NJARET20020-07633-31219-70000072D0001077D0001700001AP30218DW GGSL
NJARET20020-10052-00333-10000024D0000098D000880000200333     GGSL
NJARET20020-10052-00333-10000024D0000092D000480001300333X    GGSL
NJARET20020-10052-00336-20000012D0000094D000020000000410     GGSL
NJARET20020-10052-00336-20000002D0000015D000210000000410X    GGSL
NJARET20020-10052-00600-40000001D0000013D0005600000600X      GGSL
NJARET20020-10106-16901-30000096D0000631D000060000056901     GGSL
NJARET20020-10367-00001-80000150D0000618D00011000020001      GGSL
NJARET20020-10367-00110-70000552D0003616D00112000070110      GGSL
NJARET20020-10367-00130-50000021D0000977D00035000000130      GGSL
NJARET20020-10367-00150-30000045D0001297D00073000000150      GGSL
NJARET20020-10367-00180-00000144D0000460D00019000000180      GGSL
NJARET20020-10367-00450-40000024D0000114D00021000000450      GGSL
NJARET20020-10367-00460-30000024D0000141D00027000000460      GGSL
NJARET20020-10367-00470-20000012D0000146D00036000100470      GGSL
NJARET20020-10367-00530-30000001D0000043D00000000000530      GGSL
NJARET20020-10367-00550-10000096D0000278D00033000000550      GGSL
NJARET20020-10367-00560-00000072D0000262D000010000105608     GGSL
NJARET20020-10367-00570-90000024D0000144D00036000050570      GGSL
NJARET20020-10367-00810-60000036D0000203D0000000000ML0810    GGSL
NJARET20020-10367-01000-00000012D0000165D00000000001000      GGSL
NJARET20020-10367-01010-90000012D0000189D00000000001010      GGSL
NJARET20020-10367-01020-80000012D0000206D00000000001020      GGSL
NJARET20020-10367-01050-50000036D0000451D00000000001050      GGSL
NJARET20020-10367-01110-60000136D0000446D00062000121110      GGSL
NJARET20020-10367-01111-30000112D0000367D00067000111111      GGSL
NJARET20020-10367-01112-00000072D0000246D00031000001112      GGSL
NJARET20020-10367-01120-50000240D0000686D00055000261120      GGSL
NJARET20020-10367-01121-20000056D0000327D00097000031121      GGSL
NJARET20020-10367-01122-90000120D0000701D00097000151122      GGSL
NJARET20020-10367-01130-40000248D0001304D00087000031130      GGSL
NJARET20020-10367-01140-30000088D0000294D00016000011140      GGSL
NJARET20020-10367-01151-90000016D0000053D00027000001151      GGSL
NJARET20020-10367-01160-10000024D0000186D00023000011160      GGSL
NJARET20020-10367-01161-80000032D0000248D00023000021161      GGSL
NJARET20020-10367-01162-50000032D0000248D00017000011162      GGSL
NJARET20020-10367-01220-20000144D0000579D00001000011220      GGSL
NJARET20020-10367-01230-10000048D0000193D00000000001230      GGSL
NJARET20020-10367-01240-00000192D0001127D00000000001240      GGSL
NJARET20020-10367-02121-10000016D0000076D0000600001ML2121    GGSL
NJARET20020-10367-02131-00000016D0000076D0000400002ML2131    GGSL
NJARET20020-10367-02141-90000016D0000076D0000300000ML2141    GGSL
NJARET20020-10367-02151-80000024D0000178D0002300001ML2151    GGSL
NJARET20020-10367-02161-70000016D0000108D0000100001ML2161    GGSL
NJARET20020-10367-02162-40000064D0000433D0001000001ML2162    GGSL
NJARET20020-10367-02163-10000048D0000325D0001300001ML2163    GGSL
NJARET20020-10367-02171-60000032D0000217D0000800001ML2171    GGSL
NJARET20020-10367-02181-50000076D0000515D0000700002ML2181    GGSL
NJARET20020-10367-03010-70000032D0000188D0000900000ML3010    GGSL
NJARET20020-10367-03020-60000032D0000189D0000100000ML3020    GGSL
NJARET20020-11047-23920-90000594D0002631D000040000023920     GGSL
NJARET20020-11047-25920-70000028D0000222D000000000025920     GGSL
NJARET20020-11120-00506-60000006D0000022D00004000000891      GGSL
NJARET20020-11120-00733-60000048D0000127D00171000008538      GGSL
NJARET20020-11192-10594-70000008D0000195D0000000000JHHEATMAT8GGSL
NJARET20020-11192-10594-70000008D0000195D0000000000KHEATMAT  GGSL
NJARET20020-11192-10595-40000009D0000342D0000100000KLIGHT    GGSL
NJARET20020-11192-60612-30000016D0000146D0000000000KGFH      GGSL
NJARET20020-11192-86019-80000102D0000662D0000000000KMG6PC    GGSL
NJARET20020-11423-00338-70000012D0000073D000060000033801     GGSL
NJARET20020-11423-00402-50000006D0000030D0001800006HG402000  GGSL
NJARET20020-11423-94101-60000012D0000074D000000000094101     GGSL
NJARET20020-11423-94108-50000012D0000136D0001000000HG94108   GGSL
NJARET20020-11423-94109-20000006D0000034D000560000094109     GGSL
NJARET20020-11423-94138-20000030D0000166D000230000494138     GGSL
NJARET20020-11423-94139-90000030D0000158D0000400001HG94127   GGSL
NJARET20020-12587-60034-40000012D0000103D003550000060034     GGSL
NJARET20020-12587-78362-70000006D0000046D001130000078362     GGSL
NJARET20020-12587-78709-00000108D0000975D000120000078709     GGSL
NJARET20020-14306-92836-40000010D0000185D0000600006US643688  GGSL
NJARET20020-14306-92838-80000009D0000244D0000500002US804688  GGSL
NJARET20020-14306-92840-10000003D0000110D0000100001US900688  GGSL
NJARET20020-14306-92841-80000003D0000110D0000100001US900687  GGSL
NJARET20020-14400-16011-00000009D0000117D00022000041440016011GGSL
NJARET20020-14400-21411-00000312D0002303D00014000001440021411GGSL
NJARET20020-14400-52750-00000030D0000070D00000000001440052750GGSL
NJARET20020-14400-60000-50000005D0000045D000270000060000     GGSL
NJARET20020-14400-61000-40000009D0000093D000500000861000     GGSL
NJARET20020-14400-62000-30000058D0000669D000020000262000     GGSL
NJARET20020-14400-66000-90000075D0000856D000000000066000     GGSL
NJARET20020-14400-67000-80000005D0000071D000600000067000     GGSL
NJARET20020-14400-71065-00000228D0000979D00012000001440071065GGSL
NJARET20020-14400-71265-40000768D0003277D00016000001440071265GGSL
NJARET20020-14400-71400-90000024D0000078D00005000001440071400GGSL
NJARET20020-14400-80400-70000002D0000020D00011000001440080400GGSL
NJARET20020-14400-81200-20000003D0000034D00020000001440081200GGSL
NJARET20020-15561-20007-30000012D0000144D0000800000PT7       GGSL
NJARET20020-15561-20074-50000018D0000063D0001100000PT74      GGSL
NJARET20020-15561-20125-40000012D0000074D0000200000PT125     GGSL
NJARET20020-15561-20135-30000012D0000074D0000200000PT135     GGSL
NJARET20020-15561-20201-50000006D0000544D0000000000PT201     GGSL
NJARET20020-15561-20203-90000005D0000519D0000200000PT203     GGSL
NJARET20020-15561-20206-00000007D0001015D0000100000PT206     GGSL
NJARET20020-15561-20575-70000006D0000058D0000000000PT575     GGSL
NJARET20020-15561-20677-80000003D0000006D0000100000PT677     GGSL
NJARET20020-15561-20876-50000012D0000157D0000000000PT876     GGSL
NJARET20020-15561-20954-00000036D0000619D0000000000PT954     GGSL
NJARET20020-15561-20955-70000024D0000769D0000000000PT955     GGSL
NJARET20020-15561-20960-10000012D0000010D0000200000PT960     GGSL
NJARET20020-15561-20961-80000012D0000017D0000200000PT961     GGSL
NJARET20020-15561-20965-60000012D0000014D0000200000PT965     GGSL
NJARET20020-15561-20966-30000024D0000056D0000200000PT966     GGSL
NJARET20020-15561-20968-70000012D0000027D0000200000PT968     GGSL
NJARET20020-15561-20974-80000012D0000066D0000000000PT974     GGSL
NJARET20020-15561-20978-60000006D0000065D0000000000PT978     GGSL
NJARET20020-15561-21630-20000006D0000265D0000200000PT1630    GGSL
NJARET20020-15561-21725-50000006D0000856D0000400000PT1725    GGSL
NJARET20020-15561-21726-20000007D0001120D0000200000PT1726    GGSL
NJARET20020-15561-21727-90000005D0001226D0000400000PT1727    GGSL
NJARET20020-15561-21728-60000001D0000308D0000000000PT1728    GGSL
NJARET20020-15561-21741-50000002D0000410D0000400002PT1741    GGSL
NJARET20020-15561-21742-20000004D0001014D0000800000PT1742    GGSL
NJARET20020-15561-21743-90000004D0001490D0000800000PT1743    GGSL
NJARET20020-15561-21744-60000004D0001893D0000800000PT1744    GGSL
NJARET20020-15561-21817-70000004D0000437D0000600000PT1817    GGSL
NJARET20020-15561-28200-00000012D0000610D0000800000PT8200    GGSL
NJARET20020-15561-28240-60000012D0001157D0000500000PT8240    GGSL
NJARET20020-15561-28303-80000001D0000094D0000000000PT8303    GGSL
NJARET20020-15561-28304-50000001D0000098D0000000000PT8304    GGSL
NJARET20020-15561-28305-20000001D0000062D0000000000PT8305    GGSL
NJARET20020-15759-01272-30000006D0000136D0000500001R801B     GGSL
NJARET20020-15759-01306-50000001D0000024D0000500000R1251BGX  GGSL
NJARET20020-15759-01375-10000003D0000048D0000200000R1364BX   GGSL
NJARET20020-16069-00002-80000012D0000077D0000000000NEOR      GGSL
NJARET20020-16069-00005-90000432D0002683D0002100001TP15C     GGSL
NJARET20020-16069-00007-30000528D0003216D0008900005BN1       GGSL
NJARET20020-16069-00008-00000408D0002664D0008800004BN2       GGSL
NJARET20020-16069-00013-40000048D0001285D0004900001BN3       GGSL
NJARET20020-16069-00014-10000126D0002163D0004700001BN4       GGSL
NJARET20020-16069-00015-80000018D0000467D0000200000BN5       GGSL
NJARET20020-16069-00019-60000336D0003088D0002100001TP30C     GGSL
NJARET20020-16069-00021-90000045D0000424D0000000000BUR24     GGSL
NJARET20020-16069-00030-10000072D0000900D0003500001OW6       GGSL
NJARET20020-16069-00032-50000228D0002132D0003300001HG25      GGSL
NJARET20020-16069-00033-20000030D0000513D0000000000HG50      GGSL
NJARET20020-16069-00038-70000180D0001472D0003500001GF1015    GGSL
NJARET20020-16069-00047-90000048D0000287D0000300000TE12C     GGSL
NJARET20020-16069-00049-30000126D0002163D0006400002DX7       GGSL
NJARET20020-16069-00050-90000018D0000467D0001300000DX14      GGSL
NJARET20020-16069-00060-80000030D0000073D0000000000RAP15     GGSL
NJARET20020-16069-00072-10000012D0000069D0000400001TSD12     GGSL
NJARET20020-16069-00076-90000054D0000305D0001900000PN10      GGSL
NJARET20020-16069-00077-60000084D0000815D0001900000PN14      GGSL
NJARET20020-16069-00110-00000015D0000216D0000600000PF3       GGSL
NJARET20020-16069-00144-50000060D0000107D0000000000TG30      GGSL
NJARET20020-16069-00145-20000068D0001493D0004300002RH04      GGSL
NJARET20020-16069-00218-30000228D0000967D0004500003HST100    GGSL
NJARET20020-16069-00358-60000001D0000054D0000100000GS51000   GGSL
NJARET20020-16069-00365-40000009D0000110D0001900000PIN9      GGSL
NJARET20020-16069-00391-30000008D0000427D0000000000E410GY    GGSL
NJARET20020-16069-00393-70000384D0001183D0005500000GS20      GGSL
NJARET20020-16069-00401-90000112D0000849D0001200000GF4050    GGSL
NJARET20020-16069-00418-70000016D0000119D0000000000AU16R     GGSL
NJARET20020-16069-00436-10000015D0000037D0000000000TWST100   GGSL
NJARET20020-16069-00446-00000008D0000072D0000200002RC168W    GGSL
NJARET20020-16069-00448-40000060D0000427D0000000000BR12      GGSL
NJARET20020-16069-00467-50000020D0000185D0000000000WS550D    GGSL
NJARET20020-16069-00468-20000050D0000100D0000100000HCK50     GGSL
NJARET20020-16069-00475-00000135D0000703D0000000000GS40B     GGSL
NJARET20020-16069-00477-40000015D0000079D0000000000GR225     GGSL
NJARET20020-16069-00478-10000004D0000147D0000500001SRHO4     GGSL
NJARET20020-16069-00479-80000120D0002485D0005200003E316B     GGSL
NJARET20020-16069-00480-40000072D0000300D0000000000SPT15     GGSL
NJARET20020-16069-00486-60000008D0000071D0000100000GS675     GGSL
NJARET20020-16069-00494-10000028D0000212D0002500000GFST4050  GGSL
NJARET20020-16069-00497-20000024D0000207D0000000000BRG20     GGSL
NJARET20020-16069-00498-90000054D0000457D0000900002HGP1012   GGSL
NJARET20020-16069-00499-60000016D0000232D0000200000HGP1020   GGSL
NJARET20020-16069-00507-80000024D0000211D0000000000TPSM15    GGSL
NJARET20020-16069-00512-20000036D0000186D0000100000PH3       GGSL
NJARET20020-16069-00546-70000016D0000653D0002000000RRBG4     GGSL
NJARET20020-16069-00582-50000010D0000164D0000000000POPNET1   GGSL
NJARET20020-16069-00585-60000012D0000064D0000100001DCLLF412  GGSL
NJARET20020-16069-00597-90000012D0000244D0002500000BTK6      GGSL
NJARET20020-16069-00601-30000008D0000136D0000200000FASM4     GGSL
NJARET20020-16069-00602-00000008D0000284D0000200000FALG4     GGSL
NJARET20020-16069-00609-90000012D0000163D0000000000PTP12     GGSL
NJARET20020-16069-00611-20000016D0000163D0000000000DS50      GGSL
NJARET20020-16069-00612-90000008D0000153D0000000000DS100     GGSL
NJARET20020-16069-00621-10000004D0000034D0000000000SKOT4     GGSL
NJARET20020-16069-00622-80000096D0000380D0000000000CP612     GGSL
NJARET20020-16069-00625-90000012D0000272D0000300001DXP12     GGSL
NJARET20020-16500-54010-60000012D0000057D000130000054010     GGSL
NJARET20020-17500-08120-00000264D0000327D003960000008120     GGSL
NJARET20020-17500-90206-20000474D0010044D000830000890206     GGSL
NJARET20020-17500-91316-70000096D0001835D000660000091316     GGSL
NJARET20020-17500-91334-10000048D0001071D000000000091334     GGSL
NJARET20020-17500-91350-10000004D0000079D000000000091350     GGSL
NJARET20020-17500-91360-00000012D0000104D000000000091360     GGSL
NJARET20020-17500-91362-40000012D0000115D000010000191362     GGSL
NJARET20020-17500-91365-50000048D0000393D000000000091365     GGSL
NJARET20020-17500-91370-90000012D0000263D000000000091370     GGSL
NJARET20020-17500-91714-10000012D0000262D000480000091714     GGSL
NJARET20020-17500-95204-30000020D0000395D000580000295204     GGSL
NJARET20020-17500-95314-90000004D0000107D000000000095314     GGSL
NJARET20020-17500-95334-70000004D0000098D000060000095334     GGSL
NJARET20020-17500-95404-70000008D0000263D000000000095404     GGSL
NJARET20020-17849-09972-00000006D0000087D0000000000CLA099    GGSL
NJARET20020-17849-11022-70000006D0000096D0000800000CLA110    GGSL
NJARET20020-17849-32372-60000040D0000198D0004100000CLA323    GGSL
NJARET20020-17849-32672-70000030D0000149D0002700000CLA326    GGSL
NJARET20020-18222-00018-00000001D0000154D0000200000PP18      GGSL
NJARET20020-18222-00101-90000036D0000107D0002100000CS06101   GGSL
NJARET20020-18222-00103-30000012D0000036D0003600000CS06103   GGSL
NJARET20020-18222-00105-70000048D0000145D0006400000CS06105   GGSL
NJARET20020-18222-00107-10000108D0000411D0002100000CS06107   GGSL
NJARET20020-18222-00109-50000066D0000200D0002800000CS06109   GGSL
NJARET20020-18222-00110-10000048D0000145D0002500000CS06110   GGSL
NJARET20020-18222-00206-10000012D0000056D0000400000CS06206   GGSL
NJARET20020-18222-00213-90000036D0000150D0000700000CS06213   GGSL
NJARET20020-18222-00501-70017040D0019256D0028000002CS12501   GGSL
NJARET20020-18222-00503-10000108D0000220D0003800000CS503     GGSL
NJARET20020-18222-00505-50000144D0000154D0006200001CS12505   GGSL
NJARET20020-18222-00507-90000264D0000355D0002500000CS12507   GGSL
NJARET20020-18222-00509-30000264D0000428D0005000000CS12509   GGSL
NJARET20020-18222-00513-00000012D0000025D0001100000CS12513   GGSL
NJARET20020-18222-00526-00000162D0000479D0005300000CS06526   GGSL
NJARET20020-18222-00527-70000264D0000338D0006400000CS12527   GGSL
NJARET20020-18222-00529-10000036D0000063D0001300000CS12529   GGSL
NJARET20020-18222-00531-40000180D0000395D0003600000CS12531   GGSL
NJARET20020-18222-00535-20000072D0000094D0003500000CS12535   GGSL
NJARET20020-18222-00543-70000060D0000082D0002700000CS12543   GGSL
NJARET20020-18222-00545-10000024D0000042D0001400000CS12545   GGSL
NJARET20020-18222-00553-60004788D0008115D0000100001CS12553   GGSL
NJARET20020-18222-00559-80000156D0000200D0004100000CS12559   GGSL
NJARET20020-18222-00561-10000024D0000031D0002900000CS12561   GGSL
NJARET20020-18222-00563-50000120D0000197D0003400000CS12563   GGSL
NJARET20020-18222-00565-90000012D0000021D0001000000CS12565   GGSL
NJARET20020-18222-00566-60000012D0000021D0000500000CS12566   GGSL
NJARET20020-18222-00569-70000408D0000692D0003800000CS12569   GGSL
NJARET20020-18222-00571-00000024D0000050D0003800000CS12571   GGSL
NJARET20020-18222-00583-30000072D0000145D0004000000CS12583   GGSL
NJARET20020-18222-00608-30001392D0004763D0000800000CS608     GGSL
NJARET20020-18222-00610-60000024D0000106D0000000000CS610     GGSL
NJARET20020-18222-00611-30000120D0000407D0000000000CS611     GGSL
NJARET20020-18222-00701-10000048D0000082D0003600001CS701     GGSL
NJARET20020-18222-00709-70000006D0000029D0000100001CS709     GGSL
NJARET20020-18222-00730-10000264D0000510D0007900001CS730     GGSL
NJARET20020-18222-00749-30000006D0000033D0000800000CS749     GGSL
NJARET20020-18222-00950-30000024D0000025D0001200005CS950     GGSL
NJARET20020-18222-02501-50000004D0000028D0009700049CSV08501NLGGSL
NJARET20020-18222-50501-20000060D0000064D0011600019CS1250501XGGSL
NJARET20020-18506-00021-90000006D0000092D00000000000216      GGSL
NJARET20020-18506-00102-50000144D0000628D000390000410212     GGSL
NJARET20020-18506-00110-00000216D0001607D000880000711012     GGSL
NJARET20020-18506-00111-70000020D0000331D00004000041115      GGSL
NJARET20020-18506-00113-10000018D0000087D00000000001136      GGSL
NJARET20020-18506-00114-80000048D0000393D00000000001146      GGSL
NJARET20020-18506-00116-20000324D0002265D000240000211612     GGSL
NJARET20020-18506-00117-90000042D0000451D00029000011176      GGSL
NJARET20020-18506-00120-90000044D0000836D00012000001204      GGSL
NJARET20020-18506-00121-60000162D0001544D00013000031216      GGSL
NJARET20020-18506-00122-30000072D0000394D0000600000122       GGSL
NJARET20020-18506-00123-00000072D0000394D0000600000123       GGSL
NJARET20020-18506-00125-40000132D0000657D0002000000125       GGSL
NJARET20020-18506-00130-80000180D0000994D0002900002130       GGSL
NJARET20020-18506-00135-30000030D0000436D0000800000135       GGSL
NJARET20020-18506-00136-00000036D0000325D0000000000136       GGSL
NJARET20020-18506-01139-00000016D0000171D00000000001139      GGSL
NJARET20020-18506-01140-60000012D0000196D00001000011140      GGSL
NJARET20020-18506-01152-90000006D0000089D00002000001152      GGSL
NJARET20020-18506-02000-20000006D0000054D00004000002000      GGSL
NJARET20020-18506-02001-90000018D0000206D00025000002001      GGSL
NJARET20020-18506-02002-60000012D0000386D00000000002002      GGSL
NJARET20020-19200-00095-60000030D0000074D003780000000027     GGSL
NJARET20020-19200-00619-40000168D0000567D016120000000706     GGSL
NJARET20020-19200-02569-00000132D0000294D002980000002569     GGSL
NJARET20020-19200-05432-40000018D0000084D001020000075057     GGSL
NJARET20020-19200-75352-40000012D0000034D002600000075352     GGSL
NJARET20020-19200-76878-80000012D0000024D001540000076878     GGSL
NJARET20020-19200-78849-60000870D0004336D015200001678849     GGSL
NJARET20020-19200-79326-10000504D0002483D003740000379326     GGSL
NJARET20020-19200-79329-20000336D0001630D010600000279329     GGSL
NJARET20020-19200-79830-30000080D0000669D003660000079830     GGSL
NJARET20020-19200-79831-00000084D0000296D002450000079831     GGSL
NJARET20020-19200-80306-90000012D0000068D001070000080306     GGSL
NJARET20020-19200-80313-70000012D0000033D003030000080313     GGSL
NJARET20020-19200-80833-00000012D0000055D004390000080833     GGSL
NJARET20020-19200-81146-00000012D0000036D000540000081146     GGSL
NJARET20020-19200-81700-40000048D0000183D000900000081700     GGSL
NJARET20020-19200-82043-10000048D0000133D003980000082043     GGSL
NJARET20020-19200-83721-70000372D0000952D008170000083721     GGSL
NJARET20020-19200-84251-80000048D0000402D000210000184251     GGSL
NJARET20020-19200-89289-60000171D0000453D002310000089289     GGSL
NJARET20020-19200-89973-40000004D0000064D000600000089973     GGSL
NJARET20020-19200-93010-90000792D0003829D011380000093010     GGSL
NJARET20020-19200-93043-70005856D0004736D000000000093043     GGSL
NJARET20020-19200-94121-10000492D0002519D000880000094121     GGSL
NJARET20020-19200-94122-80000168D0000860D000730000094122     GGSL
NJARET20020-19200-96082-30000156D0000268D001640000096082     GGSL
NJARET20020-19200-98342-60000006D0000027D000790000099427     GGSL
NJARET20020-19200-98356-50000084D0000420D001520000098356     GGSL
NJARET20020-19200-98665-60000016D0000071D001740000198665     GGSL
NJARET20020-19263-25010-70000003D0000214D00017000002501      GGSL
NJARET20020-19263-25030-50000005D0000593D00016000002503      GGSL
NJARET20020-19263-25045-90000080D0002772D0001400000250450    GGSL
NJARET20020-19263-25055-80000008D0000348D0001000000250550    GGSL
NJARET20020-19263-25350-40000048D0000130D00000000002535      GGSL
NJARET20020-19263-25500-30000125D0000135D00001000002550      GGSL
NJARET20020-19263-25510-20001750D0002275D00108000022551      GGSL
NJARET20020-19263-25520-10001725D0002657D00101000072552      GGSL
NJARET20020-19263-25530-00001100D0001925D00153000102553      GGSL
NJARET20020-19263-25540-90001450D0003031D00155000112554      GGSL
NJARET20020-19263-25550-80000175D0000464D00053000102555      GGSL
NJARET20020-19263-25680-20000020D0000371D00028000012568      GGSL
NJARET20020-19263-25750-20000016D0000082D00041000002575      GGSL
NJARET20020-19263-25760-10000096D0000624D00032000052576      GGSL
NJARET20020-19263-25770-00000144D0001472D00098000112577      GGSL
NJARET20020-19263-25780-90000090D0001656D00069000002578      GGSL
NJARET20020-19263-25941-40003000D0000180D00008000002594BK    GGSL
NJARET20020-19263-25950-60000144D0000171D00021000042595      GGSL
NJARET20020-19263-26040-30000030D0000034D00000000002604      GGSL
NJARET20020-19263-26190-50000006D0000287D00006000002619      GGSL
NJARET20020-19263-26210-00000096D0000721D00072000022621      GGSL
NJARET20020-19263-26270-40000001D0000028D00003000002627      GGSL
NJARET20020-19263-26300-80000408D0000942D00009000022630      GGSL
NJARET20020-19263-26310-70000408D0001151D00018000032631      GGSL
NJARET20020-19263-26310-70000288D0000812D00019000002633      GGSL
NJARET20020-19263-26340-40000288D0000717D00002000002634      GGSL
NJARET20020-19263-26560-60000064D0000456D00035000102656      GGSL
NJARET20020-19263-26580-40000016D0000149D00013000022658      GGSL
NJARET20020-19263-29020-20000001D0000170D00000000002902      GGSL
NJARET20020-19263-29100-10000004D0000658D00000000002910      GGSL
NJARET20020-21344-00321-20000050D0001941D0005500004WX15064   GGSL
NJARET20020-21344-00322-90000014D0000543D0014200006WX15065   GGSL
NJARET20020-21344-00338-00000003D0000861D0010600000400338    GGSL
NJARET20020-21344-00339-70000023D0002136D0025900004400339    GGSL
NJARET20020-21344-00340-30000013D0001294D0039400001400340    GGSL
NJARET20020-21344-00343-40000012D0000091D0000500001400343    GGSL
NJARET20020-21344-00345-80000018D0000137D0000300001400345    GGSL
NJARET20020-21344-00347-20000016D0000243D0015800025400347    GGSL
NJARET20020-21344-00349-60000004D0000061D0012000052400349    GGSL
NJARET20020-21344-00350-20000016D0000242D0015000044400350    GGSL
NJARET20020-21344-00351-90000004D0000208D0001200000400351    GGSL
NJARET20020-21344-00352-60000008D0000312D0002100000400352    GGSL
NJARET20020-21344-00354-00000042D0002051D0013000007HQ73481784GGSL
NJARET20020-21344-00355-70000044D0002185D0007000005HQ73482102GGSL
NJARET20020-21344-00361-80000048D0001151D0006600004HQ74912297GGSL
NJARET20020-21344-00380-90000007D0001303D0011800000JFG18026  GGSL
NJARET20020-21344-00381-60000003D0000279D0004200000JFG18031  GGSL
NJARET20020-21344-00382-30000004D0000444D0009600000JFG18032  GGSL
NJARET20020-21344-00383-00000010D0001856D0003900006JFG18024  GGSL
NJARET20020-21344-00384-70000016D0000822D0007600002JFG18013  GGSL
NJARET20020-21344-00385-40000048D0001039D0005600003JFG18011A GGSL
NJARET20020-21344-00386-10000030D0001027D0004800003JFG18011B GGSL
NJARET20020-21344-00387-80000012D0000410D0009900003JFG18012  GGSL
NJARET20020-21344-00388-50000036D0000193D0004100001JFG18001  GGSL
NJARET20020-21344-00389-20000050D0000574D0003800000JFG18004  GGSL
NJARET20020-21344-00390-80000004D0000088D0005300001JFG18010A GGSL
NJARET20020-21344-00391-50000008D0000288D0003400000JFG18010B GGSL
NJARET20020-21344-00392-20000060D0000374D0003500000JFG18002  GGSL
NJARET20020-21344-00393-90000042D0001103D0006000003JFG18008A GGSL
NJARET20020-21344-00394-60000048D0000925D0006700003JFG18008ASGGSL
NJARET20020-21344-00395-30000024D0000632D0006700005JFG18006  GGSL
NJARET20020-21344-00396-00000028D0000991D0005300001JFG18016  GGSL
NJARET20020-21344-00397-70000027D0001062D0017900004JFG18018  GGSL
NJARET20020-21344-00399-10000005D0000355D0002600000FDBHLF    GGSL
NJARET20020-21344-00402-80000002D0000085D0000000000400402    GGSL
NJARET20020-21344-00403-50000012D0000286D0003000007ZT152072  GGSL
NJARET20020-21344-00404-20000021D0001329D0012800003ZT185020  GGSL
NJARET20020-21344-00405-90000030D0001976D0018700003ZT185019  GGSL
NJARET20020-21344-00406-60000001D0000096D0002600000ZT185024  GGSL
NJARET20020-21344-00407-30000009D0001183D0016100005ZT185016  GGSL
NJARET20020-21344-00408-00000014D0000788D0004200003ZT185026  GGSL
NJARET20020-21344-00409-70000216D0000825D0014600009ZT185018  GGSL
NJARET20020-21344-00410-30000004D0000154D0003700004ZT185006  GGSL
NJARET20020-21344-00411-00000016D0000619D0004000006ZT185021  GGSL
NJARET20020-21344-00412-70000004D0000152D0002300002ZT185022  GGSL
NJARET20020-21344-00413-40000156D0000190D0007200000400413    GGSL
NJARET20020-21344-00414-10000096D0000147D0008400000400414    GGSL
NJARET20020-21344-00415-80000072D0000117D0009800000400415    GGSL
NJARET20020-21344-00416-50000132D0000140D0008200000400416    GGSL
NJARET20020-21344-00417-20000108D0000138D0006200001400417    GGSL
NJARET20020-21344-00418-90000120D0000140D0007000000400418    GGSL
NJARET20020-21344-00420-20000096D0000595D0008300001400420    GGSL
NJARET20020-21344-00421-90000024D0000078D0009100000400421    GGSL
NJARET20020-21344-00422-60000010D0000338D0003600003ZT185023  GGSL
NJARET20020-21344-00423-30000295D0038200D0069500050WX17658   GGSL
NJARET20020-21344-00718-00000228D0004338D0008100008WX17422   GGSL
NJARET20020-21344-00719-70000144D0002807D0009300022WX17413   GGSL
NJARET20020-21344-00720-30000636D0009386D0009000009WX17409   GGSL
NJARET20020-21344-00721-00000780D0012121D0044200084WX17230   GGSL
NJARET20020-21344-00722-70000724D0012556D0015200058WX17401   GGSL
NJARET20020-21344-00723-40000444D0007777D0016100016WX17402   GGSL
NJARET20020-21344-00724-10000001D0000040D0005300002WXRACK20  GGSL
NJARET20020-21344-00725-80000022D0000859D0008700002HQ748416  GGSL
NJARET20020-21344-00726-50000042D0001823D0010600005HQ74843056GGSL
NJARET20020-21344-00727-20000042D0001750D0006100004HQ74842665GGSL
NJARET20020-21344-00728-90000010D0000240D0010100001HQ74912300GGSL
NJARET20020-21344-00729-60000074D0003461D0003500008HQ7348782 GGSL
NJARET20020-21344-00733-30000004D0000070D0014800028BN19188   GGSL
NJARET20020-21344-00734-00000064D0002079D0005900022WX17725   GGSL
NJARET20020-21344-00735-70000092D0001534D0007600010WX17577RV GGSL
NJARET20020-21344-00736-40000180D0003035D0011700028WX17578RV GGSL
NJARET20020-21344-00739-50000040D0001174D0005800004WX17816   GGSL
NJARET20020-21344-00740-10000048D0001456D0005200005WX17818   GGSL
NJARET20020-21344-00741-80000028D0000801D0006200003WX17817   GGSL
NJARET20020-21344-00744-90000024D0000643D0006000005WX17819   GGSL
NJARET20020-21344-00745-60000004D0000052D0024700001YS19006   GGSL
NJARET20020-21344-00746-30000008D0000140D0032700002YS19L005  GGSL
NJARET20020-21344-00747-00000012D0000210D0032600001YS19L004  GGSL
NJARET20020-21344-00748-70000008D0000109D0032600001YS19S002  GGSL
NJARET20020-21344-00749-40000008D0000109D0032500001YS19S003  GGSL
NJARET20020-21344-00750-00000008D0000109D0032500002YS19S001  GGSL
NJARET20020-21344-00762-30000076D0007810D0041400032FDBH1901  GGSL
NJARET20020-21344-00774-60000104D0003257D0003800034WX17800   GGSL
NJARET20020-21344-00775-30000148D0004545D0016400030WX17802   GGSL
NJARET20020-21344-00776-00000013D0000735D0028000006FDBB1901  GGSL
NJARET20020-21344-00779-10000045D0000839D0008900005JFG19058B GGSL
NJARET20020-21344-00799-90000252D0001714D0008800011HS190061C GGSL
NJARET20020-21344-00800-20000294D0002069D0008100011HS190061B GGSL
NJARET20020-21344-00801-90000276D0001948D0008100011HS190061A GGSL
NJARET20020-21344-00802-60000044D0000351D0016800003HS190058C GGSL
NJARET20020-21344-00803-30000072D0000602D0017600005HS190058B GGSL
NJARET20020-21344-00804-00000028D0000251D0017200004HS190058A GGSL
NJARET20020-21344-00805-70000084D0000751D0010400002HS190056  GGSL
NJARET20020-21344-00813-20000036D0002748D00305000004008132   GGSL
NJARET20020-21344-00819-40000072D0000608D0001600001WX17931   GGSL
NJARET20020-21344-00820-00000048D0000405D0001800005WX17936   GGSL
NJARET20020-21344-00821-70000096D0000810D0003600005WX17932   GGSL
NJARET20020-21344-00822-40000072D0000608D0003800003WX17930   GGSL
NJARET20020-21344-00823-10000120D0001013D0000800006WX17934   GGSL
NJARET20020-21344-00824-80000156D0001317D0003100005WX17933   GGSL
NJARET20020-21344-00825-50000132D0000714D0002100001JFG18011BWGGSL
NJARET20020-21344-00826-20000336D0002540D0004200005JFG18011AWGGSL
NJARET20020-21344-00827-90000192D0001496D0002400001JFG18008AWGGSL
NJARET20020-21344-00828-60000096D0000623D0003200002JFG18008ACGGSL
NJARET20020-21344-00829-30000008D0000067D0012300030ZT197030  GGSL
NJARET20020-21344-00830-90000010D0000219D0011500021ZT197002  GGSL
NJARET20020-21344-00831-60000030D0000504D0012500028ZT197003  GGSL
NJARET20020-21344-00832-30000018D0000374D0010200008JFG19007B GGSL
NJARET20020-21344-00833-00000008D0000234D0012600014ZT197029  GGSL
NJARET20020-21344-00834-70000004D0000390D0011600012ZT197023RVGGSL
NJARET20020-21344-00837-80000288D0000840D0013800004SK15020B  GGSL
NJARET20020-21344-00838-50000768D0001866D0026300001SK15008E  GGSL
NJARET20020-21344-00839-20000080D0001246D0010000007HS190062  GGSL
NJARET20020-21344-00844-60000318D0001523D0018700026HJAL19011 GGSL
NJARET20020-21964-10100-80000006D0000163D0001800004A6F       GGSL
NJARET20020-21964-10121-30000006D0000176D0000200000A6RP      GGSL
NJARET20020-21964-10133-60000024D0000704D0000200001TH3RP     GGSL
NJARET20020-21964-10200-50000004D0000190D0001400002B7F       GGSL
NJARET20020-21964-10211-10000006D0000054D0000600002OMT       GGSL
NJARET20020-21964-10315-60000005D0000172D0001500000SQG       GGSL
NJARET20020-21964-10350-70000008D0000195D0017600000X1        GGSL
NJARET20020-21964-10360-60000012D0000317D0000700000W1        GGSL
NJARET20020-21964-10370-50000012D0000134D0002100010OWF       GGSL
NJARET20020-21964-10380-40000002D0000096D0000600000DCF       GGSL
NJARET20020-21964-10386-60000102D0001309D0001400002CUTE      GGSL
NJARET20020-21964-10461-00000012D0000202D0002300001LF4       GGSL
NJARET20020-21964-10486-30000006D0000062D0002000002RS3WC     GGSL
NJARET20020-21964-10901-10000012D0000041D0000000000CPR       GGSL
NJARET20020-21964-20061-90000001D0000057D0001100000SDC       GGSL
NJARET20020-21964-20147-00000001D0000015D0000000000WDSP15GX  GGSL
NJARET20020-21964-20500-30000004D0000502D0005900016YF        GGSL
NJARET20020-21964-20520-10000196D0014012D0004200013YCPW180   GGSL
NJARET20020-21964-20530-00000002D0000167D0002700008YCPT360   GGSL
NJARET20020-21964-25241-00000006D0000176D0000500000CC12S     GGSL
NJARET20020-21964-25242-70000006D0000219D0001400000CC18S     GGSL
NJARET20020-21964-25256-40000006D0000176D0001300000CC12FM    GGSL
NJARET20020-21964-25256-40000001D0000024D0000300000CC12FMX   GGSL
NJARET20020-21964-25257-10000012D0000438D0000900000CC18FM    GGSL
NJARET20020-21964-30406-50000006D0000054D0000000000SFD       GGSL
NJARET20020-21964-40043-90000006D0000107D0001200000CJM8G     GGSL
NJARET20020-21964-40053-80000006D0000133D0001800003CJM15G    GGSL
NJARET20020-21964-41073-50000018D0000373D0000600000CJTHM15Y  GGSL
NJARET20020-21964-41086-50000012D0000197D0000200000CJTHM8Y   GGSL
NJARET20020-21964-50043-60000006D0000133D0000200000CJM13GP   GGSL
NJARET20020-21964-50100-60000006D0000077D0000600000SKYHK     GGSL
NJARET20020-21964-50105-10000006D0000064D0000000000STDHK     GGSL
NJARET20020-21964-60250-50000006D0000025D0000400000ADPT      GGSL
NJARET20020-21964-60510-00000006D0000125D0000900000GP        GGSL
NJARET20020-21964-60525-40000006D0000054D0000300000PS        GGSL
NJARET20020-21964-70202-10000012D0000082D0000400000WWM       GGSL
NJARET20020-21964-80100-70000012D0000100D0000500000BFB       GGSL
NJARET20020-21964-90539-20000012D0000129D0000100000BL15GS    GGSL
NJARET20020-21964-92007-40000006D0000753D0000500000YFM       GGSL
NJARET20020-22179-10012-10000012D0000183D0000100001LG3109    GGSL
NJARET20020-22179-10013-80000012D0000078D0000100000LG1100    GGSL
NJARET20020-22179-10077-00000012D0000098D0000000000LG7150    GGSL
NJARET20020-22179-10084-80000042D0000380D0002900000LG7220    GGSL
NJARET20020-22179-10106-70000006D0000148D0000400000LG5512    GGSL
NJARET20020-22179-10115-90000006D0000114D0000100000LG5599    GGSL
NJARET20020-22179-10120-30000039D0001695D0006500000LG6510    GGSL
NJARET20020-22179-10124-10000168D0000969D0007300001LG6515    GGSL
NJARET20020-22179-10139-50000060D0000335D0000100000LG1130    GGSL
NJARET20020-22179-10157-90000042D0000910D0001600002LG6530    GGSL
NJARET20020-22179-10158-60000012D0000099D0000000000LG5180    GGSL
NJARET20020-22179-10159-30000024D0000326D0000300000LG5185    GGSL
NJARET20020-22179-10167-80000018D0000309D0000000000LG6127    GGSL
NJARET20020-22179-10185-20000072D0000831D0010300001LG6500    GGSL
NJARET20020-22179-10185-20000240D0001939D000010000010032     GGSL
NJARET20020-22179-10186-90000006D0000251D0000200000LG6555    GGSL
NJARET20020-22179-10227-90000072D0000624D0001500000LG8500    GGSL
NJARET20020-22179-10230-90000096D0000473D0000100000LG8800    GGSL
NJARET20020-22179-10235-40000024D0000213D0000000000LG8510    GGSL
NJARET20020-22179-10243-90000012D0000197D0003300000LG6130    GGSL
NJARET20020-22179-10246-00000054D0000920D0002600001LG6570    GGSL
NJARET20020-22179-10248-40000132D0001123D0006100002LG6575    GGSL
NJARET20020-22179-10257-60000144D0002291D0000500000LG3190    GGSL
NJARET20020-22179-10258-30000006D0000181D0000500000LG6580    GGSL
NJARET20020-22179-10326-90000030D0000889D0001000000LG5482    GGSL
NJARET20020-22179-10327-60000024D0000213D0001100001LG6148    GGSL
NJARET20020-22179-10374-00000024D0000154D0000000000LG6286    GGSL
NJARET20020-22179-10389-40000012D0000102D0000100000LG7265    GGSL
NJARET20020-22179-10390-00000012D0000119D0006800000LG6332    GGSL
NJARET20020-22179-10400-60000036D0000796D0000000000LG6186    GGSL
NJARET20020-22179-10408-20000216D0002068D0002200005LG6338    GGSL
NJARET20020-22179-10408-20001728D0014360D0000000000LG6338P   GGSL
NJARET20020-22179-10419-80000024D0000109D0000100000LG6166    GGSL
NJARET20020-22179-10426-60000036D0000086D0000400000LG6196    GGSL
NJARET20020-22179-10429-70000156D0002565D0001000002LG6334    GGSL
NJARET20020-22179-10434-10000012D0000110D0000800000LG6133    GGSL
NJARET20020-22179-10448-80000024D0000264D0000900000LG3174    GGSL
NJARET20020-22179-10454-90000048D0000545D0000600000LG3303    GGSL
NJARET20020-22179-10455-60000006D0000106D0000100000LG3307    GGSL
NJARET20020-22179-10458-70000012D0000119D0000000000LG3234    GGSL
NJARET20020-22179-10461-70000060D0000548D0000000000LG3154    GGSL
NJARET20020-22179-10471-60000120D0001186D0000400000LG6128    GGSL
NJARET20020-22179-10473-00000024D0000257D0000100001LG6158    GGSL
NJARET20020-22179-10481-50000024D0000337D0000600000LG5592    GGSL
NJARET20020-22179-10490-70000036D0000309D0000000000LG6302    GGSL
NJARET20020-22179-10494-50000004D0000393D0000100000LG5221    GGSL
NJARET20020-22179-10499-00000024D0000409D0000000000LG9250    GGSL
NJARET20020-22179-10517-10000006D0000133D0001200000LG3176    GGSL
NJARET20020-22179-10519-50000006D0000105D0000200000LG6544    GGSL
NJARET20020-22179-10520-10000006D0000054D0000400000LG6542    GGSL
NJARET20020-22401-00301-50000058D0000604D0001800002THD20     GGSL
NJARET20020-22401-00740-20000105D0001569D0004800000DBRC20    GGSL
NJARET20020-22401-00760-00000017D0000594D0000000000RD60P     GGSL
NJARET20020-22401-10087-50000032D0000250D0000200002EAR20TMC  GGSL
NJARET20020-23075-02170-10000014D0000077D0000000000PHEX      GGSL
NJARET20020-23075-02362-00000016D0000079D0000100001FT36HFB   GGSL
NJARET20020-23075-02990-50000018D0000094D0000000000KHB6      GGSL
NJARET20020-23075-03312-40000060D0000107D0000000000FR312B    GGSL
NJARET20020-23075-05110-40000032D0000081D0000000000FS110     GGSL
NJARET20020-23075-20500-20000048D0000202D0000000000G108ORG   GGSL
NJARET20020-23865-08808-20000012D0000051D00010000008808      GGSL
NJARET20020-23865-09904-00000018D0000135D00025000019904      GGSL
NJARET20020-23865-09908-80000036D0000440D00019000019908      GGSL
NJARET20020-23865-09910-10000008D0000125D00062000009910      GGSL
NJARET20020-23865-09915-60000013D0000276D000270000009915     GGSL
NJARET20020-23865-09983-50000032D0000099D00042000019983      GGSL
NJARET20020-23883-04720-70000008D0000607D00000000004720      GGSL
NJARET20020-23883-16100-20000279D0002446D002940012116100     GGSL
NJARET20020-23883-16200-90000036D0000650D000500000116200     GGSL
NJARET20020-23883-20010-70000004D0000067D000530000020010     GGSL
NJARET20020-23883-61800-10000016D0001018D000450001261800     GGSL
NJARET20020-23883-69324-20000002D0000379D000060000063924     GGSL
NJARET20020-23883-81000-90000002D0000171D000110000081000A    GGSL
NJARET20020-24114-20430-70000050D0000320D0003600001204309    GGSL
NJARET20020-24114-20450-50000025D0000160D0001200001204509    GGSL
NJARET20020-24114-20480-20000025D0000160D0002400000204809    GGSL
NJARET20020-24114-22050-50000001D0000034D0000100000220500    GGSL
NJARET20020-24114-22060-40000001D0000027D0000000000220600    GGSL
NJARET20020-24114-30677-30000024D0000103D0001000000776777    GGSL
NJARET20020-24114-70102-80000350D0000644D0008400001701002    GGSL
NJARET20020-24114-70402-90000125D0000313D0002600001704002    GGSL
NJARET20020-24114-70609-20000125D0000545D0002700000706009    GGSL
NJARET20020-24114-70807-30000125D0000496D0004200003708073    GGSL
NJARET20020-24114-71079-20000050D0000360D0002500000710079    GGSL
NJARET20020-24114-71609-10000275D0001680D0001100000716009    GGSL
NJARET20020-24114-71664-00000075D0000880D0000000000716642    GGSL
NJARET20020-24114-71673-20000075D0000490D0002500001716073    GGSL
NJARET20020-24114-74009-60000050D0000242D0002600000704009    GGSL
NJARET20020-24114-74185-70000010D0000140D0001000001741854    GGSL
NJARET20020-24114-74209-00000075D0000479D0001100000704209    GGSL
NJARET20020-24114-74509-10000075D0000479D0002400002704509    GGSL
NJARET20020-24114-74712-50000150D0000122D0001500002742012A   GGSL
NJARET20020-24114-74712-50000150D0000491D0000100000742712    GGSL
NJARET20020-24114-74718-70000175D0000168D0001700002742018A   GGSL
NJARET20020-24114-74718-70000125D0000443D0000000000742718    GGSL
NJARET20020-24114-74809-20000100D0000639D0002400001704809    GGSL
NJARET20020-24114-74929-70000050D0000320D0001700001704929    GGSL
NJARET20020-24114-75161-00000060D0000436D0001100006750161    GGSL
NJARET20020-24114-77079-60000010D0000027D0000000000770079    GGSL
NJARET20020-24114-77777-10000036D0000127D0000400003777777    GGSL
NJARET20020-24114-77809-90000012D0000052D0000100000778009    GGSL
NJARET20020-24114-78341-30000075D0000147D000060000083410     GGSL
NJARET20020-24114-78345-10000024D0000129D000050000083450     GGSL
NJARET20020-24654-00806-90000006D0000056D0000000000971816    GGSL
NJARET20020-24654-05102-70000114D0000619D000270000051026     GGSL
NJARET20020-24654-05922-10000060D0000748D00007000005926      GGSL
NJARET20020-24654-05922-10000004D0001046D00004000005926DS    GGSL
NJARET20020-24654-05923-80000004D0000108D00000000005929      GGSL
NJARET20020-24654-05931-30000012D0000178D00004000005935      GGSL
NJARET20020-24654-05962-70000114D0001378D00025000005962      GGSL
NJARET20020-24654-05962-70000033D0006198D00046000115962DS    GGSL
NJARET20020-24654-05972-60000012D0000413D00000000005972      GGSL
NJARET20020-24654-05981-80000024D0000246D00019000005981      GGSL
NJARET20020-24654-05981-80000003D0000710D00003000005981DS    GGSL
NJARET20020-24654-05982-50000012D0000402D00001000005982      GGSL
NJARET20020-24654-09334-80000113D0003224D00271000309334      GGSL
NJARET20020-24654-30506-90000096D0000431D000140000030506     GGSL
NJARET20020-24654-51806-30000072D0000410D000050000151806     GGSL
NJARET20020-24654-55085-80000048D0000261D000040000050856     GGSL
NJARET20020-24654-55110-70000216D0001173D000740000951106     GGSL
NJARET20020-24654-55118-30000036D0000281D000110000151186     GGSL
NJARET20020-24654-55130-50000072D0000391D000070000051306     GGSL
NJARET20020-24654-55168-80000024D0000122D00005000005168      GGSL
NJARET20020-24654-55325-50000060D0000326D000030000053256     GGSL
NJARET20020-24654-55450-40000066D0000358D000310000254506     GGSL
NJARET20020-24654-65324-50000036D0000424D000170000053246A    GGSL
NJARET20020-24654-65452-50000054D0000293D000750000354526     GGSL
NJARET20020-25033-01703-00000024D0000267D000180000201703     GGSL
NJARET20020-25033-01707-80000006D0000072D000120000001707     GGSL
NJARET20020-25033-01713-90000012D0000152D000230000101713     GGSL
NJARET20020-25033-01717-70000012D0000202D000130000301717     GGSL
NJARET20020-25033-01723-80000004D0000093D000210000101723     GGSL
NJARET20020-25033-01727-60000004D0000130D000050000101727     GGSL
NJARET20020-25033-02019-10000004D0000228D000140000302019     GGSL
NJARET20020-25033-02077-10000012D0000144D000070000002077     GGSL
NJARET20020-25033-02088-70000012D0000165D000050000002088     GGSL
NJARET20020-25033-02089-40000012D0000105D000070000002089     GGSL
NJARET20020-25033-02134-10000012D0000219D000020000002134     GGSL
NJARET20020-25033-02135-80000006D0000160D000020000002135     GGSL
NJARET20020-25033-02144-00000006D0000079D000030000002144     GGSL
NJARET20020-25033-02213-30000002D0000204D000020000002213     GGSL
NJARET20020-25033-02399-40000006D0000028D000040000002399     GGSL
NJARET20020-25033-02482-30000002D0000096D000000000002482     GGSL
NJARET20020-25033-02501-10000024D0000231D000200000102501     GGSL
NJARET20020-25033-02510-30000032D0000356D000360000102510     GGSL
NJARET20020-25033-02519-60000024D0000730D000300000202519     GGSL
NJARET20020-25033-02520-20000024D0000506D000180000002520     GGSL
NJARET20020-25033-02521-90000028D0000664D000300000102521     GGSL
NJARET20020-25033-02522-60000024D0001266D000720000402522     GGSL
NJARET20020-25033-02523-30000012D0000686D000520000002523     GGSL
NJARET20020-25033-02525-70000009D0000578D000640000002525     GGSL
NJARET20020-25033-02527-10000014D0000983D000420000102527     GGSL
NJARET20020-25033-02650-60000002D0000221D000180000002650     GGSL
NJARET20020-25033-02660-50000001D0000148D000880000002660     GGSL
NJARET20020-25033-02720-60000004D0000366D000510000302720     GGSL
NJARET20020-25033-02722-00000006D0000632D000150000102722     GGSL
NJARET20020-25033-02728-20000003D0000434D000100000002728     GGSL
NJARET20020-25033-02920-00000008D0001108D000000000002920     GGSL
NJARET20020-25033-02940-80000004D0000650D000020000002940     GGSL
NJARET20020-25033-03765-60000008D0000185D000000000003765     GGSL
NJARET20020-25033-03800-40000034D0000777D000750001303800     GGSL
NJARET20020-25033-03801-10000024D0000522D000650001203801     GGSL
NJARET20020-25033-03802-80000012D0000255D000680002303802     GGSL
NJARET20020-25033-03938-40000006D0000051D000000000003938     GGSL
NJARET20020-25033-12201-70000012D0000100D000090000212201     GGSL
NJARET20020-25033-12202-40000048D0000380D000180000112202     GGSL
NJARET20020-25033-12203-10000006D0000021D000100000112203     GGSL
NJARET20020-25033-12204-80000012D0000066D000290000012204     GGSL
NJARET20020-25033-12205-50000006D0000055D000010000012205     GGSL
NJARET20020-25033-12285-70000042D0000349D000040000012285     GGSL
NJARET20020-25033-12305-20000006D0000099D000000000012305     GGSL
NJARET20020-25033-12315-10000006D0000135D000000000012315     GGSL
NJARET20020-25033-12403-50000002D0000254D000020000012403     GGSL
NJARET20020-25033-12730-20000072D0000623D000010000012730     GGSL
NJARET20020-25033-12756-20000006D0000114D000020000012756     GGSL
NJARET20020-25033-12785-20000024D0000114D000020000012785     GGSL
NJARET20020-25033-12972-50000006D0000297D000150000012972     GGSL
NJARET20020-25033-12996-20000010D0000844D000000000012996     GGSL
NJARET20020-25033-15615-90000004D0000072D000000000015615     GGSL
NJARET20020-25033-15625-80000004D0000115D000010000015625     GGSL
NJARET20020-25033-15810-40000002D0000151D000000000015810     GGSL
NJARET20020-25033-15820-30000005D0000491D000000000015820     GGSL
NJARET20020-25033-15822-10000004D0000120D000000000015822     GGSL
NJARET20020-25033-22770-50000001D0000250D000050000022770     GGSL
NJARET20020-25531-01234-60000001D0000034D000310002075160     GGSL
NJARET20020-25545-21619-80000062D0001015D0000800008 21619    GGSL
NJARET20020-25849-00078-30000060D0000634D00000000000078P     GGSL
NJARET20020-25849-00110-00000150D0001110D00001000000110P     GGSL
NJARET20020-25849-00205-30000070D0000995D00008000010205RG    GGSL
NJARET20020-25849-00305-00000070D0000958D00008000020305RG    GGSL
NJARET20020-25849-10381-10000450D0013091D000030000310381RG   GGSL
NJARET20020-25849-10381-10000143D0004160D000160000010381RGX  GGSL
NJARET20020-25849-10910-30000030D0000128D00025000031008010RGXGGSL
NJARET20020-25849-10941-70000048D0000242D00000000001008041NPCGGSL
NJARET20020-25849-11010-90000048D0000271D00017000031016010RGXGGSL
NJARET20020-25849-11110-60000053D0000337D00419000001010010RGXGGSL
NJARET20020-25849-11151-90000125D0000794D00229000001010051RGXGGSL
NJARET20020-25849-11330-80000050D0000630D00003000011020030RG GGSL
NJARET20020-25849-20381-80000150D0004460D000030000020381RG   GGSL
NJARET20020-25849-20381-80000015D0000446D000360003520381RGX  GGSL
NJARET20020-25849-62221-30000036D0000261D00001000006009211NPBGGSL
NJARET20020-25849-62320-30000024D0000262D00003000006014201NPBGGSL
NJARET20020-25849-62420-00000036D0000761D00000000006036201NPBGGSL
NJARET20020-25881-08502-10000012D0000183D0001200000 085024   GGSL
NJARET20020-25881-09942-40000012D0000351D0001000000 09942    GGSL
NJARET20020-25881-10702-00000010D0000124D0000800000 107024   GGSL
NJARET20020-25881-10712-90000004D0000062D0002000002 10712    GGSL
NJARET20020-25881-11041-90000010D0000047D0001400000 11041    GGSL
NJARET20020-25881-11091-40000002D0000008D0001200000 11091    GGSL
NJARET20020-26156-91293-60000006D0000070D000090000036HE6     GGSL
NJARET20020-26175-86100-00000378D0001693D0002100000861       GGSL
NJARET20020-26432-20125-90000018D0000195D0001600001HHBS125   GGSL
NJARET20020-26432-24016-60000012D0001028D0000800008SB4000PRCGGGSL
NJARET20020-26432-24505-50000005D0000619D0000400000SB4500PRCGGGSL
NJARET20020-26600-89334-70000016D0000033D006890000089334     GGSL
NJARET20020-26978-02181-60000200D0000959D000430000202181     GGSL
NJARET20020-26978-02182-30000150D0000732D000470000002182     GGSL
NJARET20020-26978-02188-50000120D0000466D000390000102188     GGSL
NJARET20020-26978-02241-70000320D0001712D000440000302241     GGSL
NJARET20020-26978-02242-40000370D0001980D000280000402242     GGSL
NJARET20020-26978-02248-60000220D0000867D000540000102248     GGSL
NJARET20020-26978-02301-80000130D0000923D000370000402301     GGSL
NJARET20020-26978-02302-50000140D0000994D000440000202302     GGSL
NJARET20020-26978-02308-70000060D0000338D000440000002308     GGSL
NJARET20020-26978-02361-20000130D0001169D000320000202361     GGSL
NJARET20020-26978-02362-90000150D0001349D000380000102362     GGSL
NJARET20020-26978-02368-10000020D0000137D000430000002368     GGSL
NJARET20020-26978-03060-30000030D0000119D000070000003060     GGSL
NJARET20020-26978-03062-70000020D0000080D000120000503062     GGSL
NJARET20020-26978-03082-50000030D0000222D000090000203082     GGSL
NJARET20020-26978-03088-70000020D0000148D000040000403088     GGSL
NJARET20020-26978-03100-60000025D0000308D00008000000310005   GGSL
NJARET20020-26978-03102-00000015D0000185D00012000020310205   GGSL
NJARET20020-26978-03108-20000020D0000246D00012000070310805   GGSL
NJARET20020-26978-03120-40000010D0000172D00008000000312005   GGSL
NJARET20020-26978-05011-30000144D0000140D000110000005011     GGSL
NJARET20020-26978-05041-00000252D0000454D000300000005041     GGSL
NJARET20020-26978-05071-70000108D0000127D000310000105071     GGSL
NJARET20020-26978-08060-80000030D0000120D000130000108060     GGSL
NJARET20020-26978-08061-50000030D0000120D000010000008061     GGSL
NJARET20020-26978-08062-20000070D0000279D000110000108062     GGSL
NJARET20020-26978-08080-60000040D0000296D000150000108080     GGSL
NJARET20020-26978-08081-30000030D0000222D000000000008081     GGSL
NJARET20020-26978-08082-00000040D0000296D000180000108082     GGSL
NJARET20020-26978-08100-10000020D0000255D00012000010810005   GGSL
NJARET20020-26978-08101-80000010D0000124D00003000000810105   GGSL
NJARET20020-26978-08120-90000005D0000086D00009000010812005   GGSL
NJARET20020-26978-08121-60000005D0000086D00005000000812105   GGSL
NJARET20020-26978-08122-30000005D0000086D00005000010812205   GGSL
NJARET20020-26978-10062-70000210D0000557D000460000110062     GGSL
NJARET20020-26978-10068-90000190D0000504D000450000010068     GGSL
NJARET20020-26978-10082-50000230D0000830D000340000010082     GGSL
NJARET20020-26978-10088-70000260D0000890D000260000010088     GGSL
NJARET20020-26978-10102-00000260D0001362D000590000210102     GGSL
NJARET20020-26978-10108-20000150D0000782D000530000110108     GGSL
NJARET20020-26978-10122-80000160D0001235D000520000010122     GGSL
NJARET20020-26978-10128-00000105D0000818D000630000110128     GGSL
NJARET20020-26978-10142-60000065D0000620D000420000010142     GGSL
NJARET20020-26978-10148-50000060D0000571D000420000010148     GGSL
NJARET20020-26978-10180-80000050D0000161D000230000010180     GGSL
NJARET20020-26978-10182-20000100D0000321D000230000010182     GGSL
NJARET20020-26978-10183-90000060D0000193D000190000010183     GGSL
NJARET20020-26978-10185-30000080D0000257D000370000110185     GGSL
NJARET20020-26978-10240-90000040D0000141D000360000110240     GGSL
NJARET20020-26978-10242-30000260D0000857D000510000110242     GGSL
NJARET20020-26978-10243-00000070D0000247D000210000010243     GGSL
NJARET20020-26978-10245-40000080D0000254D000320000010245     GGSL
NJARET20020-26978-10300-00000030D0000134D000270000010300     GGSL
NJARET20020-26978-10302-40000050D0000223D000350000210302     GGSL
NJARET20020-26978-10303-10000010D0000045D000180000010303     GGSL
NJARET20020-26978-10305-50000030D0000134D000190000110305     GGSL
NJARET20020-26978-10360-40000020D0000111D000190000010360     GGSL
NJARET20020-26978-10362-80000040D0000223D000180000110362     GGSL
NJARET20020-26978-10363-50000020D0000111D000120000010363     GGSL
NJARET20020-26978-10365-90000020D0000111D000130000010365     GGSL
NJARET20020-26978-16190-10000230D0001005D000770001116190     GGSL
NJARET20020-26978-16192-50000580D0002415D000510001016192     GGSL
NJARET20020-26978-16193-20000090D0000393D000540000716193     GGSL
NJARET20020-26978-16195-60000350D0001530D000730002016195     GGSL
NJARET20020-26978-16240-30000300D0001623D000600000716240     GGSL
NJARET20020-26978-16242-70000370D0002002D000920001216242     GGSL
NJARET20020-26978-16243-40000150D0000812D000650000516243     GGSL
NJARET20020-26978-16245-80000510D0002759D000870001416245     GGSL
NJARET20020-26978-16300-40000250D0001705D000750000616300     GGSL
NJARET20020-26978-16302-80000960D0005843D000350001116302     GGSL
NJARET20020-26978-16303-50000110D0000750D000610000116303     GGSL
NJARET20020-26978-16305-90000210D0001432D000660000616305     GGSL
NJARET20020-26978-16360-80000130D0001348D000640000216360     GGSL
NJARET20020-26978-16362-20000180D0001834D000600000216362     GGSL
NJARET20020-26978-16363-90000070D0000713D000330000116363     GGSL
NJARET20020-26978-16365-30000090D0000917D000380000216365     GGSL
NJARET20020-26978-26140-30000140D0001260D000270000026140     GGSL
NJARET20020-26978-26142-70000910D0007113D000180000926142     GGSL
NJARET20020-26978-26143-40000050D0000450D000200000026143     GGSL
NJARET20020-26978-26145-80000180D0001620D000260000226145     GGSL
NJARET20020-26978-26160-10000032D0000306D000010000026160     GGSL
NJARET20020-26978-26162-50000036D0000345D000010000126162     GGSL
NJARET20020-26978-26163-20000024D0000230D000010000026163     GGSL
NJARET20020-26978-26165-60000020D0000191D000020000226165     GGSL
NJARET20020-26978-26180-90000090D0001266D000070000226180     GGSL
NJARET20020-26978-26182-30000080D0001153D000310000226182     GGSL
NJARET20020-26978-26183-00000040D0000576D000150000026183     GGSL
NJARET20020-26978-26185-40000050D0000721D000280000126185     GGSL
NJARET20020-26978-26240-00000012D0000135D000020000126240     GGSL
NJARET20020-26978-26242-40000008D0000090D000020000226242     GGSL
NJARET20020-26978-26245-50000008D0000090D000050000426245     GGSL
NJARET20020-26978-26270-70000050D0000577D000300000226270     GGSL
NJARET20020-26978-26272-10000070D0000807D000390000226272     GGSL
NJARET20020-26978-26273-80000010D0000115D000200000126273     GGSL
NJARET20020-26978-26275-20000060D0000692D000400000326275     GGSL
NJARET20020-26978-29301-50000036D0000312D000110000029301     GGSL
NJARET20020-26978-29603-00000003D0000043D000000000029603     GGSL
NJARET20020-26978-29608-50000021D0000303D000020000029608     GGSL
NJARET20020-26978-30104-80000024D0000119D000000000030104     GGSL
NJARET20020-26978-30200-70000036D0000364D000190000230200     GGSL
NJARET20020-26978-30301-10001056D0006009D000900002030301     GGSL
NJARET20020-26978-30301-10000864D0004355D00007000003030196   GGSL
NJARET20020-26978-30312-70000072D0000076D000270000230312     GGSL
NJARET20020-26978-30402-50000072D0000395D000340001330402     GGSL
NJARET20020-26978-30407-00000024D0000150D000010000030407     GGSL
NJARET20020-26978-30409-40000060D0000329D000190000230409     GGSL
NJARET20020-26978-30411-70000084D0000493D000380000430411     GGSL
NJARET20020-26978-30413-10000036D0000211D000150000330413     GGSL
NJARET20020-26978-30413-10002688D0010098D00046000103041396   GGSL
NJARET20020-26978-30500-80000400D0001980D000700000530500     GGSL
NJARET20020-26978-30602-90000228D0000901D000380000330602     GGSL
NJARET20020-26978-30605-00003804D0011743D001660000830605     GGSL
NJARET20020-26978-30702-60000072D0000279D000730000430702     GGSL
NJARET20020-26978-30705-70000288D0000917D000170000330705     GGSL
NJARET20020-26978-30806-10000012D0000051D000000000030806     GGSL
NJARET20020-26978-30809-20000072D0000303D000100000430809     GGSL
NJARET20020-26978-30901-30000300D0001444D000530000430901     GGSL
NJARET20020-26978-30909-90000210D0001040D000410000430909     GGSL
NJARET20020-26978-31100-90000035D0000197D000030000031100     GGSL
NJARET20020-26978-31101-60000075D0000422D000310000331101     GGSL
NJARET20020-26978-31108-50000060D0000301D000240000731108     GGSL
NJARET20020-26978-31109-20000020D0000113D000090000331109     GGSL
NJARET20020-26978-31120-70000010D0000117D000240000831120     GGSL
NJARET20020-26978-31127-60000005D0000056D000000000031127     GGSL
NJARET20020-26978-31128-30000005D0000059D000040000031128     GGSL
NJARET20020-26978-31129-00000015D0000176D000100000531129     GGSL
NJARET20020-26978-31168-90000005D0000113D000070000031168     GGSL
NJARET20020-26978-32101-50000020D0000144D000010000032100     GGSL
NJARET20020-26978-32101-50000005D0000035D000040000032101     GGSL
NJARET20020-26978-32108-40000065D0000469D000180000632108     GGSL
NJARET20020-26978-32109-10000010D0000072D000210000532109     GGSL
NJARET20020-26978-32121-30000040D0000512D000020000132120     GGSL
NJARET20020-26978-32128-20000025D0000319D000170000032128     GGSL
NJARET20020-26978-32129-90000015D0000192D000160000432129     GGSL
NJARET20020-26978-34061-00000090D0000359D000240000534061     GGSL
NJARET20020-26978-34063-40000030D0000120D000120000334063     GGSL
NJARET20020-26978-34068-90000040D0000160D000090000234068     GGSL
NJARET20020-26978-34081-80000040D0000282D000290000334081     GGSL
NJARET20020-26978-34083-20000030D0000212D000120000134083     GGSL
NJARET20020-26978-34088-70000030D0000212D000160000134088     GGSL
NJARET20020-26978-34101-30000025D0000293D000130000134101     GGSL
NJARET20020-26978-34103-70000025D0000293D000110000134103     GGSL
NJARET20020-26978-34108-20000020D0000235D000040000134108     GGSL
NJARET20020-26978-34123-50000010D0000164D000110000134123     GGSL
NJARET20020-26978-34128-00000005D0000082D000140000134128     GGSL
NJARET20020-26978-34141-10000009D0000246D000060000234141     GGSL
NJARET20020-26978-34143-50000006D0000164D000090000234143     GGSL
NJARET20020-26978-34148-00000003D0000082D000090000234148     GGSL
NJARET20020-26978-35060-20000070D0000279D000460001635060     GGSL
NJARET20020-26978-35061-90000020D0000080D000270000435061     GGSL
NJARET20020-26978-35066-40000040D0000160D000350000935066     GGSL
NJARET20020-26978-35068-80000090D0000359D000300001635068     GGSL
NJARET20020-26978-35069-50000060D0000239D000290000435069     GGSL
NJARET20020-26978-35080-00000060D0000444D000470000735080     GGSL
NJARET20020-26978-35081-70000020D0000125D000190000235081     GGSL
NJARET20020-26978-35086-20000040D0000296D000250000635086     GGSL
NJARET20020-26978-35087-90000010D0000051D000020000035087     GGSL
NJARET20020-26978-35088-60000040D0000296D000060000335088     GGSL
NJARET20020-26978-35089-30000050D0000370D000240000135089     GGSL
NJARET20020-26978-35100-50000045D0000645D000130000235100     GGSL
NJARET20020-26978-35101-20000020D0000287D000060000235101     GGSL
NJARET20020-26978-35106-70000015D0000215D000150000835106     GGSL
NJARET20020-26978-35108-10000030D0000430D000050000335108     GGSL
NJARET20020-26978-35109-80000025D0000359D000150000535109     GGSL
NJARET20020-26978-35120-30000035D0000714D000180000735120     GGSL
NJARET20020-26978-35121-00000015D0000274D000160000135121     GGSL
NJARET20020-26978-35126-50000005D0000102D000100000235126     GGSL
NJARET20020-26978-35128-90000020D0000408D000040000135128     GGSL
NJARET20020-26978-35129-60000010D0000204D000070000335129     GGSL
NJARET20020-26978-35130-20000025D0000398D000010000035130     GGSL
NJARET20020-26978-35138-80000020D0000306D000120000035138     GGSL
NJARET20020-26978-35146-30000005D0000148D000000000035146     GGSL
NJARET20020-26978-35148-70000025D0000738D000290000735148     GGSL
NJARET20020-26978-35149-40000025D0000738D000170000435149     GGSL
NJARET20020-26978-35153-10000020D0000293D000100000735153     GGSL
NJARET20020-26978-35167-80000005D0000277D000000000035167     GGSL
NJARET20020-26978-35188-30000004D0000264D000040000135188     GGSL
NJARET20020-26978-35189-00000008D0000610D000170000035189     GGSL
NJARET20020-26978-35190-60000020D0000639D000060000035190     GGSL
NJARET20020-26978-35198-20000022D0000703D000320000535198     GGSL
NJARET20020-26978-35270-50000012D0000913D000150000835270     GGSL
NJARET20020-26978-35278-10000018D0001370D000230000835278     GGSL
NJARET20020-26978-35279-80000012D0000913D000130000235279     GGSL
NJARET20020-26978-35350-40000003D0000476D00004000003535001   GGSL
NJARET20020-26978-35359-70000001D0000159D00000000003535901   GGSL
NJARET20020-26978-36100-40000020D0000212D000090000036100     GGSL
NJARET20020-26978-36105-90000005D0000051D000040000036105     GGSL
NJARET20020-26978-36108-00000030D0000318D000120000136108     GGSL
NJARET20020-26978-36120-20000015D0000221D000160000036120     GGSL
NJARET20020-26978-36128-80000015D0000221D000050000036128     GGSL
NJARET20020-26978-36140-00000025D0000315D000330000436140     GGSL
NJARET20020-26978-36148-60000035D0000441D000250000836148     GGSL
NJARET20020-26978-36220-90000010D0000221D000310000036220     GGSL
NJARET20020-26978-36228-50000005D0000110D000340000736228     GGSL
NJARET20020-26978-36290-20000020D0000617D000070000136290     GGSL
NJARET20020-26978-36298-80000015D0000463D000070000236298     GGSL
NJARET20020-26978-38142-20000204D0001075D000010000138142     GGSL
NJARET20020-26978-38146-00000084D0000425D000360001338146     GGSL
NJARET20020-26978-38148-40001092D0005688D000070000038148     GGSL
NJARET20020-26978-38192-70000030D0000360D000440000238192     GGSL
NJARET20020-26978-38196-50000108D0001176D000170001738196     GGSL
NJARET20020-26978-38198-90000252D0003024D000710000938198     GGSL
NJARET20020-26978-39122-30000156D0000522D000030000339122     GGSL
NJARET20020-26978-39126-10000144D0000570D000470000839126     GGSL
NJARET20020-26978-39128-50000168D0000665D000620001639128     GGSL
NJARET20020-26978-39182-70000114D0001166D000230000939182     GGSL
NJARET20020-26978-39186-50000114D0001128D000100000239186     GGSL
NJARET20020-26978-39188-90000204D0002087D000940002039188     GGSL
NJARET20020-26978-48098-30000198D0000881D000160000148098     GGSL
NJARET20020-26978-48128-00000060D0000371D000170000048128     GGSL
NJARET20020-26978-48158-00000108D0000886D000230000348158     GGSL
NJARET20020-26978-63060-50000010D0000037D000170000063060     GGSL
NJARET20020-26978-63066-70000030D0000110D000150000063066     GGSL
NJARET20020-26978-63069-80000010D0000037D000140000063069     GGSL
NJARET20020-26978-63070-40000010D0000061D000200000063070     GGSL
NJARET20020-26978-63076-60000010D0000061D000110000063076     GGSL
NJARET20020-26978-63079-70000010D0000061D000200000163079     GGSL
NJARET20020-26978-63090-20000005D0000063D000110000063090     GGSL
NJARET20020-26978-63096-40000005D0000063D000100000063096     GGSL
NJARET20020-26978-63099-50000005D0000063D000100000163099     GGSL
NJARET20020-26978-80100-50000004D0000177D000050000080100     GGSL
NJARET20020-26978-80101-20000004D0000147D000140000080101     GGSL
NJARET20020-26978-80101-20000016D0000614D00003000008010104   GGSL
NJARET20020-26978-80105-00000028D0001028D000270000080105     GGSL
NJARET20020-26978-80105-00000012D0000460D00003000008010504   GGSL
NJARET20020-26978-80106-70000008D0000294D000020000080106     GGSL
NJARET20020-26978-80107-40000168D0004750D00055000458010712   GGSL
NJARET20020-26978-80150-00000004D0000183D000000000080150     GGSL
NJARET20020-26978-80151-70000052D0002045D00003000018015104   GGSL
NJARET20020-26978-80153-10000024D0000913D000000000080153     GGSL
NJARET20020-26978-80155-50000012D0000457D000240000080155     GGSL
NJARET20020-26978-80155-50000028D0001101D00003000028015504   GGSL
NJARET20020-26978-80156-20000008D0000304D000000000080156     GGSL
NJARET20020-26978-80157-90000012D0000457D00000000008015712   GGSL
NJARET20020-26978-80651-20000048D0000865D000060000080651     GGSL
NJARET20020-26978-80655-00000018D0000324D000040000080655     GGSL
NJARET20020-26978-80658-10000012D0000216D000040000080658     GGSL
NJARET20020-26978-81011-30000008D0000204D000310000081011     GGSL
NJARET20020-26978-81015-10000024D0000613D000610000081015     GGSL
NJARET20020-26978-81016-80000008D0000204D000000000081016     GGSL
NJARET20020-26978-81075-50000036D0000130D000010000181075PC   GGSL
NJARET20020-26978-81100-40000300D0002323D000060000381100     GGSL
NJARET20020-26978-81101-10000336D0003014D000340000381101     GGSL
NJARET20020-26978-81109-70000012D0000112D000000000081109     GGSL
NJARET20020-26978-81121-90000072D0000267D000170000081121     GGSL
NJARET20020-26978-81125-70000048D0000151D000000000081125     GGSL
NJARET20020-26978-81129-50000006D0000022D000000000081129     GGSL
NJARET20020-26978-81201-80000012D0000538D000230000081201     GGSL
NJARET20020-26978-81751-80000012D0000356D000150000081751     GGSL
NJARET20020-26978-81755-60000008D0000238D000170000081755     GGSL
NJARET20020-27452-02505-40000009D0000138D00000000002505      GGSL
NJARET20020-27452-06200-40000010D0000201D00000000006200      GGSL
NJARET20020-27652-80203-50000010D0000472D0002700000LG400151  GGSL
NJARET20020-27652-80203-50000012D0000346D0000200000LG400151GDGGSL
NJARET20020-27652-80204-20000001D0000054D0002900000LG400161  GGSL
NJARET20020-27652-80204-20000012D0000649D0000000000LG400161GDGGSL
NJARET20020-27652-80205-90000010D0000686D0003400000LG400171  GGSL
NJARET20020-27652-80205-90000010D0000419D0001900002LG400171GDGGSL
NJARET20020-27856-10001-20003840D0011535D0018400000P10232    GGSL
NJARET20020-27856-10002-90007026D0036567D0038000000P10264    GGSL
NJARET20020-27856-10008-10001524D0020726D0027800000P101      GGSL
NJARET20020-27856-10009-80000855D0007755D0025300000P128      GGSL
NJARET20020-27997-01017-10000007D0001041D0001800000 M6T22    GGSL
NJARET20020-27997-01017-10000010D0001150D0002100000M6T22     GGSL
NJARET20020-28009-11440-50000455D0002641D0000000000T1440     GGSL
NJARET20020-28009-11840-30000060D0000501D00001000001840      GGSL
NJARET20020-28929-02781-60000001D0000060D00104000002781SPC   GGSL
NJARET20020-28929-02937-70000001D0000082D00170000002937DL    GGSL
NJARET20020-28929-27840-90000001D0000060D00122000002784SPC   GGSL
NJARET20020-28929-29098-20000001D0000095D00093000006290W98SPBGGSL
NJARET20020-28929-67114-90000003D0000656D007100000067104914SPGGSL
NJARET20020-28929-92181-70000010D0002730D00194000002790192181GGSL
NJARET20020-29925-13194-10000003D0000210D000080000213194     GGSL
NJARET20020-29925-60009-60000003D0000069D000160000160000     GGSL
NJARET20020-29925-60151-20000014D0000189D000240000660151     GGSL
NJARET20020-29925-60152-90000015D0000231D000490001060152     GGSL
NJARET20020-29925-62227-20000012D0000033D000000000062227     GGSL
NJARET20020-29925-70153-30000013D0000319D000110000070153     GGSL
NJARET20020-29925-70161-80000020D0000320D000160000670151     GGSL
NJARET20020-29925-70162-50000016D0000315D000120000070152     GGSL
NJARET20020-29973-12316-50000560D0002850D000100000314116021P GGSL
NJARET20020-29973-12333-20000912D0002924D000860001314110028P GGSL
NJARET20020-29973-12341-70000187D0000877D0054300026141100216UGGSL
NJARET20020-29973-12349-30000224D0000930D001050002614901028P GGSL
NJARET20020-29973-12369-10000001D0000482D000010000114106021P GGSL
NJARET20020-29973-12456-80000208D0000863D000690002314902028P GGSL
NJARET20020-30541-00069-60000012D0000068D0000200000JCD05CMP  GGSL
NJARET20020-30541-00102-00000018D0000097D0000000000JCD02ER   GGSL
NJARET20020-30541-00301-70000001D0000191D0000500000JCD30BKSM GGSL
NJARET20020-30541-01010-70000024D0000046D0000100001JCD012SMP GGSL
NJARET20020-30541-01020-60000312D0000708D0006200003JCD024SM  GGSL
NJARET20020-30541-01020-60003360D0006352D0000300001JCD060SM  GGSL
NJARET20020-30541-01030-50000090D0000755D0010600003JCD100SMJ GGSL
NJARET20020-30541-01034-30000042D0000881D0004800000JCD030SM  GGSL
NJARET20020-30541-01039-80000132D0000656D0004300002JCD05SM   GGSL
NJARET20020-30541-01210-10000072D0000135D0000000000JCD024SMS GGSL
NJARET20020-30541-07006-40000003D0001102D0000300000JCDRACKA  GGSL
NJARET20020-30541-08100-80000004D0000216D0000000000JCD10BKSMPGGSL
NJARET20020-30541-09981-20000350D0000648D0000700000JCDTPG    GGSL
NJARET20020-31340-10005-10000096D0001768D0002900003B550120   GGSL
NJARET20020-31340-10006-80000204D0002269D0014600015B550125   GGSL
NJARET20020-31340-10017-40000096D0001746D0002900005B550190   GGSL
NJARET20020-31340-10020-40000004D0000100D0000600000B550205   GGSL
NJARET20020-31365-05040-90000004D0000024D0000400000 41718    GGSL
NJARET20020-31365-10600-70000038D0000682D0005900004 42808    GGSL
NJARET20020-31365-12205-20000003D0000075D0000300000 49454    GGSL
NJARET20020-31417-00049-90000220D0001366D000010000080110021  GGSL
NJARET20020-31417-00055-00000066D0001650D001940013280601131X GGSL
NJARET20020-31724-08876-00000160D0000752D00010000008876      GGSL
NJARET20020-31724-40011-10000060D0003755D00016000014001100   GGSL
NJARET20020-31724-40012-80000042D0001069D0001800001400125    GGSL
NJARET20020-31724-40015-90001332D0045710D0065500085400150    GGSL
NJARET20020-31724-40015-90000042D0001550D0004800000400150PDQ GGSL
NJARET20020-31724-40017-30000012D0000615D0000200001400175    GGSL
NJARET20020-31724-43007-10000009D0000584D0001400000430075    GGSL
NJARET20020-31724-81005-70000008D0000290D0001200000810050    GGSL
NJARET20020-31724-84000-90000039D0000862D00015000008400100   GGSL
NJARET20020-31724-84005-40000040D0000493D0001300001840050    GGSL
NJARET20020-31724-85090-90000009D0000311D00026000008509100   GGSL
NJARET20020-31724-85095-40000120D0002099D0002000001850950    GGSL
NJARET20020-31724-85097-80000003D0000078D0001400000850975    GGSL
NJARET20020-31724-85350-40000006D0000175D00003000008535100   GGSL
NJARET20020-31724-85355-90000010D0000155D0006900002853550    GGSL
NJARET20020-31724-85357-30000003D0000067D0000700003853575    GGSL
NJARET20020-31724-86150-90000042D0001852D00054000008615100   GGSL
NJARET20020-31724-86151-60000003D0000135D00000000008615130   GGSL
NJARET20020-31724-86152-30000050D0000733D0004600000861525    GGSL
NJARET20020-31724-86155-40000095D0002316D0004700000861550    GGSL
NJARET20020-31724-86155-40000168D0002614D000080000286155028  GGSL
NJARET20020-31724-86157-80000075D0002573D0003200000861575    GGSL
NJARET20020-31724-86420-30000006D0000282D00021000008642100   GGSL
NJARET20020-31724-86425-80000005D0000135D0001100000864250    GGSL
NJARET20020-31724-86427-20000003D0000110D0002400000864275    GGSL
NJARET20020-31724-86505-70000270D0008370D0006800011865050    GGSL
NJARET20020-31724-86955-00002225D0079804D0010700020869550    GGSL
NJARET20020-31724-88447-80000024D0000902D0001800001884475    GGSL
NJARET20020-31724-88805-60000040D0000944D0000100001888VR50   GGSL
NJARET20020-31724-98440-60000003D0000200D00025000009844100   GGSL
NJARET20020-31724-98445-10000005D0000183D0000000000984450    GGSL
NJARET20020-31724-98447-50000012D0000624D0002700000984475    GGSL
NJARET20020-31810-70424-60000008D0000060D0000400000704243    GGSL
NJARET20020-31810-86112-30000016D0000112D000160000086112     GGSL
NJARET20020-32247-00900-30000054D0000185D00008000011009001   GGSL
NJARET20020-32247-00910-20000066D0000226D00016000021009101   GGSL
NJARET20020-32247-00950-80000066D0000226D00009000011009501   GGSL
NJARET20020-32247-00970-60000066D0000226D00006000001009701   GGSL
NJARET20020-32247-02515-70000015D0000642D00438000002515      GGSL
NJARET20020-32247-05514-70000180D0000894D000580000570551430  GGSL
NJARET20020-32247-05514-70000046D0000229D000680000070551430X GGSL
NJARET20020-32247-10500-20000096D0000917D0003000005110500    GGSL
NJARET20020-32247-14901-30000040D0000597D000270000014901     GGSL
NJARET20020-32247-14902-00000024D0000358D000820000014902     GGSL
NJARET20020-32247-14905-10000144D0001110D000810000814905     GGSL
NJARET20020-32247-17183-00000342D0003246D000810000417183     GGSL
NJARET20020-32247-17185-40000104D0002207D000490000117185     GGSL
NJARET20020-32247-17187-80000012D0000643D000740000017187     GGSL
NJARET20020-32247-17290-50000090D0000969D000560000317290     GGSL
NJARET20020-32247-17293-60000066D0000683D000150000117293     GGSL
NJARET20020-32247-17295-00000020D0000488D000200000117295     GGSL
NJARET20020-32247-17323-00000018D0000174D000200000017323     GGSL
NJARET20020-32247-17325-40000008D0000160D000280000417325     GGSL
NJARET20020-32247-17508-10000084D0001166D000980000117508     GGSL
NJARET20020-32247-17511-10000006D0000083D000340000217511     GGSL
NJARET20020-32247-17530-20000030D0000290D000530000317530     GGSL
NJARET20020-32247-17540-10000056D0001555D000500000117540     GGSL
NJARET20020-32247-18221-80000032D0000793D000750000018221     GGSL
NJARET20020-32247-18225-60000060D0000739D001050000218225     GGSL
NJARET20020-32247-18251-50000020D0000562D000190000018251     GGSL
NJARET20020-32247-18266-90000018D0000239D000190000018266     GGSL
NJARET20020-32247-18269-00000008D0000249D000200000018269     GGSL
NJARET20020-32247-18272-00000066D0000382D000370000018272     GGSL
NJARET20020-32247-18296-60000024D0000315D000080000018296     GGSL
NJARET20020-32247-18320-80000018D0000185D000170000018320     GGSL
NJARET20020-32247-18334-50000007D0000581D000190000318334     GGSL
NJARET20020-32247-18345-10000024D0000336D000440000118345     GGSL
NJARET20020-32247-18346-80000008D0000166D000340000318346     GGSL
NJARET20020-32247-18348-20000012D0000179D000300000218348     GGSL
NJARET20020-32247-18354-30000012D0000170D000180000018354     GGSL
NJARET20020-32247-18362-80000126D0004194D000200002018362     GGSL
NJARET20020-32247-20785-00000180D0000633D003170000372078430  GGSL
NJARET20020-32247-21605-00000203D0004010D004680000021605     GGSL
NJARET20020-32247-21701-90000156D0001384D000800000021701     GGSL
NJARET20020-32247-22305-80000036D0000640D005670000022305     GGSL
NJARET20020-32247-23200-50000070D0002595D002070000023200     GGSL
NJARET20020-32247-23201-20000027D0001230D002010000023201     GGSL
NJARET20020-32247-23616-40000085D0002061D008710000423616     GGSL
NJARET20020-32247-23622-50000090D0001554D008070000023622     GGSL
NJARET20020-32247-25006-10000027D0000674D002640001325006A    GGSL
NJARET20020-32247-25009-20000016D0001050D002810000525009     GGSL
NJARET20020-32247-26002-20000006D0000401D000220000026002     GGSL
NJARET20020-32247-26784-70000414D0001168D000890003372678430  GGSL
NJARET20020-32247-27764-80000072D0000293D000470000672776430  GGSL
NJARET20020-32247-30156-50000036D0000636D001760000030156     GGSL
NJARET20020-32247-31115-80000014D0001042D001620000031115     GGSL
NJARET20020-32247-32367-30000006D0000179D002520000932367F    GGSL
NJARET20020-32247-33002-20000012D0000177D00010000003300210   GGSL
NJARET20020-32247-33040-40000162D0002408D007080004733040     GGSL
NJARET20020-32247-33050-30000017D0000727D003620000433050     GGSL
NJARET20020-32247-33160-90000029D0002095D003200001233160     GGSL
NJARET20020-32247-34161-50000012D0000720D004290000434161     GGSL
NJARET20020-32247-36905-30000049D0001835D009160007736905     GGSL
NJARET20020-32247-37594-80000030D0000241D000410000073759430X GGSL
NJARET20020-32247-37610-50000016D0000228D000120000037610C    GGSL
NJARET20020-32247-38615-90000003D0000128D001630000038615     GGSL
NJARET20020-32247-39181-80000143D0004066D009170014739181     GGSL
NJARET20020-32247-39594-60000050D0000433D000000000073959430  GGSL
NJARET20020-32247-39605-90000023D0000416D003540000039605     GGSL
NJARET20020-32247-39615-80000010D0000479D001290000039615     GGSL
NJARET20020-32247-42784-50000054D0000200D000530000274278430  GGSL
NJARET20020-32247-43750-90000004D0000086D00028000004375010   GGSL
NJARET20020-32247-43850-60000068D0002021D00009000004385010   GGSL
NJARET20020-32247-43854-40000004D0000052D00058000004385404   GGSL
NJARET20020-32247-43860-50000012D0000292D00022000014386004   GGSL
NJARET20020-32247-44615-00000010D0000231D000270000044615A    GGSL
NJARET20020-32247-45651-70000120D0001309D000070000045651300  GGSL
NJARET20020-32247-47783-30000180D0000645D000360000174778300  GGSL
NJARET20020-32247-49013-90000008D0000198D000560000349013     GGSL
NJARET20020-32247-49019-10000243D0002775D005480001749019     GGSL
NJARET20020-32247-49024-50000066D0000932D001220000049024     GGSL
NJARET20020-32247-49785-50000240D0000979D001570001474978500  GGSL
NJARET20020-32247-49801-20000030D0000427D000790000049801C    GGSL
NJARET20020-32247-50087-60000012D0000259D00048000005008710   GGSL
NJARET20020-32247-50088-30000006D0000130D00043000005008810   GGSL
NJARET20020-32247-50524-60000117D0000956D000270000075052430  GGSL
NJARET20020-32247-51105-60000067D0000887D002300000051105     GGSL
NJARET20020-32247-51115-50000025D0000931D002530000051115     GGSL
NJARET20020-32247-52784-20000096D0000395D000780000085278430  GGSL
NJARET20020-32247-53105-40000019D0000185D003320000053105     GGSL
NJARET20020-32247-53115-30000004D0000105D001710000053115     GGSL
NJARET20020-32247-54204-30000006D0000067D00009000015420406   GGSL
NJARET20020-32247-55513-50000585D0005661D000490000475551300  GGSL
NJARET20020-32247-55513-50000010D0000097D002760000075551300X GGSL
NJARET20020-32247-55523-40000324D0004915D000510000875552300  GGSL
NJARET20020-32247-55523-40000010D0000152D001640000075552300X GGSL
NJARET20020-32247-55783-20000174D0000776D001090000975578300  GGSL
NJARET20020-32247-55863-10000091D0000735D000020000075586300  GGSL
NJARET20020-32247-55863-10000021D0000170D000370000575586300X GGSL
NJARET20020-32247-56063-40000008D0000041D000100000045606300  GGSL
NJARET20020-32247-56211-90000006D0000088D00014000005621106   GGSL
NJARET20020-32247-56513-40001495D0012950D000430000475651300  GGSL
NJARET20020-32247-56513-40000135D0001172D000600000075651300X GGSL
NJARET20020-32247-56517- 0000015D0000164D000740000045651300X GGSL
NJARET20020-32247-56523-30001008D0013631D001480000675652300  GGSL
NJARET20020-32247-56523-30000035D0000474D001860002475652300X GGSL
NJARET20020-32247-56783-10000966D0004343D006120001975678300  GGSL
NJARET20020-32247-56783-10001440D0006580D000430000375678309  GGSL
NJARET20020-32247-56863-00000091D0000661D000430000175686300  GGSL
NJARET20020-32247-56863-00000102D0000741D000910002575686300X GGSL
NJARET20020-32247-60594-60000050D0000402D000070000076059430  GGSL
NJARET20020-32247-71060-20000084D0001094D000730000271060     GGSL
NJARET20020-32247-74150-70000996D0005307D0014400037274150    GGSL
NJARET20020-32247-74250-40001476D0011747D0012300033274250    GGSL
NJARET20020-32247-74850-60000336D0005962D0010400035274850    GGSL
NJARET20020-32247-76121-50000012D0000419D000900000376121     GGSL
NJARET20020-32247-76232-80000003D0000184D000210000076232     GGSL
NJARET20020-32247-77160-30000840D0003986D0015100036277160    GGSL
NJARET20020-32247-77260-00000660D0005401D0009000025277260    GGSL
NJARET20020-32247-77860-20000108D0001632D0014300008277860    GGSL
NJARET20020-32247-77960-90000140D0002719D0015500022277960    GGSL
NJARET20020-32247-90550-30000027D0002659D0007900018 671025   GGSL
NJARET20020-32247-95517-10000060D0000295D000390000079551750  GGSL
NJARET20020-32247-99605-10000010D0000221D003960001199605     GGSL
NJARET20020-32903-00169-30001440D0001742D0002800009SLI06000E3GGSL
NJARET20020-32903-00171-60000264D0000319D0003100002SLI06000A3GGSL
NJARET20020-32903-00191-40000120D0000530D0000800000GAB12000E2GGSL
NJARET20020-32903-00192-10000432D0000523D0005100005SLI06000B9GGSL
NJARET20020-32903-00193-80000006D0000098D0000200001TEA17000G2GGSL
NJARET20020-32903-00214-00000288D0000348D0003800000SLI06000E2GGSL
NJARET20020-32903-00222-50000552D0000842D0004000005SLI08000B9GGSL
NJARET20020-32903-00224-90000048D0000331D0004500002VNP18000E2GGSL
NJARET20020-32903-00240-90000360D0000558D0003200001SLI08000E2GGSL
NJARET20020-32903-00246-10000384D0000581D0002900002SLI08000A3GGSL
NJARET20020-32903-00257-70000010D0000359D0001500000RZGH210G2 GGSL
NJARET20020-32903-00258-40000360D0000634D0004200001LIA06000E2GGSL
NJARET20020-32903-00264-50000504D0001341D0001400002LIA08000E2GGSL
NJARET20020-32903-00281-20000288D0001175D0002500005LIA10000E2GGSL
NJARET20020-32903-00283-60000012D0000074D0002000001GAB14000E2GGSL
NJARET20020-32903-00284-30000068D0001973D0000500000TEA20000G2GGSL
NJARET20020-32903-00287-40000024D0000187D0003200002VNP24000E2GGSL
NJARET20020-32903-00290-40000012D0000122D0002800000VNP30000E2GGSL
NJARET20020-32903-00293-50000264D0000573D0003800003SLI10000E2GGSL
NJARET20020-32903-00301-70000010D0000146D0001100000ROP28000A3GGSL
NJARET20020-32903-00309-30000852D0001849D0010200011SLI10000E3GGSL
NJARET20020-32903-00313-00000018D0000170D0000200000GAB18000E2GGSL
NJARET20020-32903-00326-00000300D0001962D0005900001LIA12000E2GGSL
NJARET20020-32903-00332-10000384D0000823D0003800007SLI10000B9GGSL
NJARET20020-32903-00338-30000240D0000521D0005100003SLI10000A3GGSL
NJARET20020-32903-00341-30000150D0001228D0003100000SLI24000E3GGSL
NJARET20020-32903-00359-80001344D0002083D0004100009SLI08000E3GGSL
NJARET20020-32903-04255-90000120D0000991D0003700000LIA14000E2GGSL
NJARET20020-32903-04257-30000204D0000749D0003400002SLI12000E2GGSL
NJARET20020-32903-04265-80000012D0000179D0000100000GAB22000E2GGSL
NJARET20020-32903-07519-90000180D0002306D0001900001LIA16000E2GGSL
NJARET20020-32903-07530-40000120D0000470D0002600000SLI14000E2GGSL
NJARET20020-32903-07534-20000018D0000309D0002300000LIA20000E2GGSL
NJARET20020-32903-07558-80000114D0000408D0003700002RZWC1Q0B9 GGSL
NJARET20020-32903-07563-20000120D0000524D0001600000SLI17000E2GGSL
NJARET20020-32903-07577-90000018D0000412D0001400000LIA24000E2GGSL
NJARET20020-32903-12006-60001032D0001816D0006600009LIA06000E3GGSL
NJARET20020-32903-12008-00001152D0003064D0006600010LIA08000E3GGSL
NJARET20020-32903-12010-30000708D0002889D0012700017LIA10000E3GGSL
NJARET20020-32903-12012-70000684D0004473D0002800014LIA12000E3GGSL
NJARET20020-32903-12014-10000300D0002478D0001600004LIA14000E3GGSL
NJARET20020-32903-12017-20000312D0003997D0006100005LIA16000E3GGSL
NJARET20020-32903-12020-20000126D0002128D0004400005LIA20000E3GGSL
NJARET20020-32903-12024-00000090D0002062D0002800006LIA24000E3GGSL
NJARET20020-32903-12312-80000132D0000697D0003000003CNA12000E3GGSL
NJARET20020-32903-12318-00000012D0000050D0002100001SVN18000E3GGSL
NJARET20020-32903-12324-10000012D0000055D0002000002SVN24000E3GGSL
NJARET20020-32903-12330-20000018D0000099D0001500001SVN30000E3GGSL
NJARET20020-32903-12712-60000324D0001432D0002200001GAB12000E3GGSL
NJARET20020-32903-12714-00000036D0000221D0003900001GAB14000E3GGSL
NJARET20020-32903-12718-80000036D0000341D0003300002GAB18000E3GGSL
NJARET20020-32903-12722-50000024D0000358D0001600001GAB22000E3GGSL
NJARET20020-32903-12818-50000138D0000951D0005300003VNP18000E3GGSL
NJARET20020-32903-12824-60000162D0001265D0008400005VNP24000E3GGSL
NJARET20020-32903-12830-70000060D0000608D0004600002VNP30000E3GGSL
NJARET20020-32903-21026-20000012D0000052D0000000000SRO15500E3GGSL
NJARET20020-32903-22484-90000025D0000365D0000300000ROP28000E2GGSL
NJARET20020-32903-23732-00000030D0000196D0001800000SLI20000E2GGSL
NJARET20020-32903-30392-60000180D0000352D0001100002CNA08000E3GGSL
NJARET20020-32903-31000-90000008D0000232D0000400000TEA20000E3GGSL
NJARET20020-32903-35947-30000156D0000524D0003800003CNA10000E3GGSL
NJARET20020-32903-40400-50000360D0001469D0002300004LIA10000A3GGSL
NJARET20020-32903-40493-70000648D0001724D0004700005LIA08000B9GGSL
NJARET20020-32903-40770-90000042D0000289D0003000001VNP18000A3GGSL
NJARET20020-32903-41640-40000384D0001021D0003900003LIA08000A3GGSL
NJARET20020-32903-41717-30000216D0001784D0006800003LIA14000B9GGSL
NJARET20020-32903-41728-90000432D0002825D0007700007LIA12000B9GGSL
NJARET20020-32903-41842-20000006D0000061D0002500002VNP30000A3GGSL
NJARET20020-32903-41909-20000084D0001076D0002400001LIA16000A3GGSL
NJARET20020-32903-42050-00000018D0000412D0002400000LIA24000A3GGSL
NJARET20020-32903-42240-50000720D0001267D0004500006LIA06000B9GGSL
NJARET20020-32903-45170-20000120D0000991D0003900000LIA14000A3GGSL
NJARET20020-32903-45342-30000036D0000281D0003900002VNP24000A3GGSL
NJARET20020-32903-45788-90000018D0000412D0002200000LIA24000B9GGSL
NJARET20020-32903-46337-80000144D0001845D0002700002LIA16000B9GGSL
NJARET20020-32903-46966-00000024D0000412D0001500000LIA20000A3GGSL
NJARET20020-32903-47208-00000048D0000314D0000600000LIA12000A3GGSL
NJARET20020-32903-48101-30000384D0000676D0000900003LIA06000A3GGSL
NJARET20020-32903-48538-70000030D0000515D0002700002LIA20000B9GGSL
NJARET20020-32903-50286-20000180D0000625D0004200001HSI10008E2GGSL
NJARET20020-32903-50763-80000720D0002642D0005700013SLI12000E3GGSL
NJARET20020-32903-50764-50000228D0000894D0002800002SLI14000B9GGSL
NJARET20020-32903-50766-90000024D0000914D0000500000TEA24000G2GGSL
NJARET20020-32903-50767-60000204D0000749D0002600003SLI12000A3GGSL
NJARET20020-32903-50794-20000372D0001349D0004400007SLI12000B9GGSL
NJARET20020-32903-50802-40000252D0000970D0001800013SLI14000E3GGSL
NJARET20020-32903-50803-10000144D0000564D0002900001SLI14000A3GGSL
NJARET20020-32903-52340-90000006D0000026D0001800003SVN24000B9GGSL
NJARET20020-32903-52858-90000054D0000352D0007000001VNP18000B9GGSL
NJARET20020-32903-53271-50000030D0000249D0002300000SLI24000E2GGSL
NJARET20020-32903-56391-70000408D0001416D0005500005HSI10008A1GGSL
NJARET20020-32903-57235-30000018D0000172D0005100000VNP30000B9GGSL
NJARET20020-32903-57495-10000012D0000062D0001500001SVN30000B9GGSL
NJARET20020-32903-58303-80000060D0000443D0007100003VNP24000B9GGSL
NJARET20020-32903-58838-50000006D0000023D0001700001SVN18000B9GGSL
NJARET20020-32903-60255-50000012D0000052D0000000000SRO15500A3GGSL
NJARET20020-32903-61152-60000006D0000098D0000000000TEA17000E3GGSL
NJARET20020-32903-61636-10000408D0001416D0004500003HSI10008B6GGSL
NJARET20020-32903-66002-90000020D0000292D0001700000ROP28000E3GGSL
NJARET20020-32903-69739-10000005D0000069D0001000000ROP28000B9GGSL
NJARET20020-32903-71041-00000006D0000038D0000700000RZWC1G0E3 GGSL
NJARET20020-32903-72233-80000456D0001860D0006900006LIA10000B9GGSL
NJARET20020-32903-72518-60000072D0000647D0001600001RZWC2G0B9 GGSL
NJARET20020-32903-72886-60000066D0000414D0003700006RZWC1G0B9 GGSL
NJARET20020-32903-75049-20000180D0001163D0002700002SLI20000E3GGSL
NJARET20020-32903-75051-50000192D0000839D0001400000SLI17000A3GGSL
NJARET20020-32903-75057-70000180D0000767D0001800000SLI17000B9GGSL
NJARET20020-32903-75070-60000036D0000235D0001800000SLI20000A3GGSL
NJARET20020-32903-75080-50000444D0001940D0002800004SLI17000E3GGSL
NJARET20020-32903-75081-20000048D0000314D0002100002SLI20000B9GGSL
NJARET20020-32903-75084-30000024D0000199D0001400001SLI24000A3GGSL
NJARET20020-32903-75089-80000030D0000249D0002800000SLI24000B9GGSL
NJARET20020-32903-91270-80000004D0000138D0002100000RZGH210E3 GGSL
NJARET20020-32903-91300-20000030D0000234D0000400001VNP2400G18GGSL
NJARET20020-32903-91303-30000030D0000304D0000400000VNP3000G18GGSL
NJARET20020-32903-91319-40000006D0000098D0000100001TEA17000G8GGSL
NJARET20020-32903-91322-40000006D0000454D0000000000TEA30000G8GGSL
NJARET20020-32903-91485-60000040D0000503D0001500003SPX24DBA34GGSL
NJARET20020-32903-91590-70000012D0000021D0000000000IFA0600E35GGSL
NJARET20020-32903-91592-10000012D0000021D0000000000IFA0600E21GGSL
NJARET20020-32903-91608-90000010D0000066D0001000000IFA1200E35GGSL
NJARET20020-32903-91610-20000010D0000066D0000000000IFA1200E21GGSL
NJARET20020-33200-00020-40002412D0001736D00540000003320000020GGSL
NJARET20020-33200-00544-50004310D0043183D023010000000544     GGSL
NJARET20020-33200-01191-00000296D0002093D000060000001191     GGSL
NJARET20020-33200-06527-20000219D0003940D00190000006527      GGSL
NJARET20020-33200-09142-40000556D0003893D000780000309142     GGSL
NJARET20020-33200-09293-30000832D0005843D00234000009293      GGSL
NJARET20020-33200-11321-80000072D0000093D001020000011321     GGSL
NJARET20020-33200-11448-20000060D0000077D001760000211448     GGSL
NJARET20020-33200-94182-80002696D0027011D005250000094182     GGSL
NJARET20020-33200-94182-80010368D0103887D000000000094182DP   GGSL
NJARET20020-33200-97209-90000056D0000391D000670000097209     GGSL
NJARET20020-33200-97242-60001108D0007745D001880000097242     GGSL
NJARET20020-33349-03110-70000629D0000799D0004500005JP310     GGSL
NJARET20020-33349-05042-90000030D0000140D0000800000J324      GGSL
NJARET20020-33349-05047-40000012D0000063D0000000000J6R16     GGSL
NJARET20020-33349-05048-10000048D0000194D0000000000J3R36     GGSL
NJARET20020-33349-05082-50000384D0001063D0003900001JP506     GGSL
NJARET20020-33349-05618-60000176D0000982D0004000003G310      GGSL
NJARET20020-33349-07750-10000464D0001434D0002700002J4R25     GGSL
NJARET20020-33349-41029-20000016D0000094D0000100000TS50H     GGSL
NJARET20020-33349-41032-20000016D0000000D0000000000J425      GGSL
NJARET20020-33349-41211-10000792D0000800D0002500000JP212     GGSL
NJARET20020-33349-41214-20000400D0000764D0002800000JP226     GGSL
NJARET20020-33349-41221-00000750D0001425D0002000000TDOME     GGSL
NJARET20020-33349-41234-00000650D0001014D0004100000TTRAY     GGSL
NJARET20020-33349-41238-80000182D0000819D0002900001T32       GGSL
NJARET20020-33349-41251-70000510D0001454D0001600002JS50      GGSL
NJARET20020-33349-41254-80000580D0001601D0005700005JS32      GGSL
NJARET20020-33349-41258-60000066D0000115D0000300000TR72      GGSL
NJARET20020-33349-41318-70000270D0000761D0002900006JP322     GGSL
NJARET20020-33349-41444-30000532D0001101D0005000005JP406     GGSL
NJARET20020-33349-41620-10000174D0001189D0003200004G316      GGSL
NJARET20020-33349-41701-70003000D0000360D0002400003J4BULK    GGSL
NJARET20020-33349-41710-90000238D0000695D0003200001J312      GGSL
NJARET20020-33349-65153-40000010D0000060D0001000000G312      GGSL
NJARET20020-33349-65205-00000055D0000480D0000000000T34H      GGSL
NJARET20020-33349-66002-40000012D0000087D0000100000J336ST16  GGSL
NJARET20020-33349-66002-40000016D0000116D0000200000J336ST16PCGGSL
NJARET20020-33349-66003-10000140D0001421D0000000000J372ST20  GGSL
NJARET20020-33349-66005-50000168D0001319D0004400001J425ST16  GGSL
NJARET20020-33349-66005-50000240D0001884D0002600001J425ST16PCGGSL
NJARET20020-33349-66006-20000033D0000327D0000200001J450ST20  GGSL
NJARET20020-33349-66006-20000080D0000794D0000200001J450ST20PCGGSL
NJARET20020-33349-66007-90000033D0000182D0000100000J616ST11PCGGSL
NJARET20020-33349-66008-60000072D0000989D0000400000J636ST10  GGSL
NJARET20020-33349-66009-30000420D0002554D0007000001T72HST14  GGSL
NJARET20020-33349-66010-90000418D0002320D0003400003TS50HST16 GGSL
NJARET20020-33349-66015-40000196D0001054D0004600001TS20HST14 GGSL
NJARET20020-33349-66016-10000056D0000327D0006000003TS32HST14 GGSL
NJARET20020-33607-00003-60000004D0000119D0003400001EDGE180   GGSL
NJARET20020-33607-00320-40000001D0000141D0000000000TTMIX124  GGSL
NJARET20020-33607-00702-80000006D0000108D0000500000RD2       GGSL
NJARET20020-33607-00704-20000006D0000080D0001700000REA4      GGSL
NJARET20020-33607-00978-70000001D0000185D0000000000LTASST12  GGSL
NJARET20020-33607-01206-00000012D0000141D0000000000WHR6      GGSL
NJARET20020-33607-01208-40000024D0000414D0000300000LT8       GGSL
NJARET20020-33607-22000-70000060D0000659D0001400004HCWM1     GGSL
NJARET20020-33607-22004-50000001D0000188D0000300000HCDECOASSTGGSL
NJARET20020-33607-22004-50000008D0000127D0001900000HHRP4     GGSL
NJARET20020-33607-22005-20000012D0000301D0001100000HC2       GGSL
NJARET20020-33607-22006-90000016D0000402D0000200001HBE6      GGSL
NJARET20020-33607-22010-60000016D0000528D0000200000HCF3      GGSL
NJARET20020-33607-22125-70000002D0000223D0000600000HT2EZ     GGSL
NJARET20020-33607-22310-70000008D0000226D0000300000BPL6      GGSL
NJARET20020-33607-30002-00000004D0000251D0000000000YT5GRN    GGSL
NJARET20020-33607-30030-30000004D0000205D0000000000YTBC4     GGSL
NJARET20020-33607-51000-90000004D0000126D0000000000RKT1000   GGSL
NJARET20020-33607-52100-50000004D0000190D0001300000GKS2      GGSL
NJARET20020-33607-90026-80000001D0000170D0000100001GKSASST   GGSL
NJARET20020-33745-97185-40000029D0000826D005180001097185X    GGSL
NJARET20020-34411-00001-40000012D0000024D00006000008010241002GGSL
NJARET20020-34411-00011-30000012D0000014D00004000018011341002GGSL
NJARET20020-34411-00012-00000012D0000016D00003000008010041002GGSL
NJARET20020-34411-00017-50000012D0000032D00001000008001741002GGSL
NJARET20020-34411-00018-20000036D0000032D00010000018013641001GGSL
NJARET20020-34411-00340-40000012D0000138D00004000008450031002GGSL
NJARET20020-34411-00584-20000010D0000075D00003000038058421001GGSL
NJARET20020-34411-00832-40000012D0000071D00003000008083231002GGSL
NJARET20020-34411-01076-10000010D0000165D00008000008006041001GGSL
NJARET20020-34411-01173-70000001D0000037D00008000088167731001GGSL
NJARET20020-34411-01196-60000006D0000123D00025000008196031001GGSL
NJARET20020-34411-02968-80000016D0000140D00001000008550121001GGSL
NJARET20020-34411-02973-20000010D0000081D00000000008550021001GGSL
NJARET20020-34411-02974-90000036D0000156D00002000008311041001GGSL
NJARET20020-34411-02975-60000036D0000176D00002000008312041001GGSL
NJARET20020-34411-02980-00000024D0000092D00000000008401341001GGSL
NJARET20020-34411-02981-70000024D0000162D00003000008313041001GGSL
NJARET20020-34411-02982-40000024D0000234D00000000008402041001GGSL
NJARET20020-34411-02986-20000040D0000073D00001000018011441001GGSL
NJARET20020-34411-03125-40000012D0000411D00000000008658011001GGSL
NJARET20020-34411-05731-50000012D0000048D00000000008573021001GGSL
NJARET20020-34411-11207-60000008D0000333D00000000008345011001GGSL
NJARET20020-34411-11208-30000002D0000122D00001000018347511001GGSL
NJARET20020-34411-11209-00000009D0000733D00000000008341011001GGSL
NJARET20020-34411-11264-90000010D0000143D00001000008714211001GGSL
NJARET20020-34411-12528-10000024D0000175D00002000018528121001GGSL
NJARET20020-34411-26202-30000006D0000081D00001000008205221001GGSL
NJARET20020-34411-60153-20000004D0000112D00015000048405011001GGSL
NJARET20020-34411-74001-90000004D0000192D0000600000 874001101GGSL
NJARET20020-34411-74001-90000052D0002645D00051000098740011001GGSL
NJARET20020-34411-74251-80000066D0001116D00027000078742511001GGSL
NJARET20020-34411-74501-40000002D0000054D0000700000 874501101GGSL
NJARET20020-34411-74501-40000048D0001376D00023000028745011001GGSL
NJARET20020-34411-74751-30000048D0001923D00030000088747511001GGSL
NJARET20020-34411-80013-30000006D0000080D00006000028800131001GGSL
NJARET20020-34411-80203-80000006D0000109D00000000008802031011GGSL
NJARET20020-34411-92773-10000012D0000094D00265000048702511001GGSL
NJARET20020-34411-92774-80000036D0000437D00007000048705011001GGSL
NJARET20020-34411-92775-50000012D0000195D00006000048707511001GGSL
NJARET20020-34613-00013-30000036D0000310D0000000000LH013     GGSL
NJARET20020-34613-00014-00000036D0000310D0001400001LH014     GGSL
NJARET20020-34613-00015-70000024D0000300D0004300001LH015     GGSL
NJARET20020-34613-00016-40000024D0000207D0000000000LH016     GGSL
NJARET20020-34613-00020-10000108D0002438D0000000000LH020     GGSL
NJARET20020-34613-00022-50000006D0000091D0000000000LH022     GGSL
NJARET20020-34613-00048-50000006D0000071D0001000001TP48      GGSL
NJARET20020-34613-00060-70000006D0000077D0000500002TP60      GGSL
NJARET20020-34613-00068-30000018D0000291D000110000168WP      GGSL
NJARET20020-34613-00072-00000006D0000090D0000500000TP72      GGSL
NJARET20020-34613-00215-10000048D0000132D0000200002CVS010HD  GGSL
NJARET20020-34613-00216-80000015D0000087D0000000000U2403     GGSL
NJARET20020-34613-00409-40000012D0000062D0000000000CVS409    GGSL
NJARET20020-34613-00411-70000012D0000113D0000100000CVS411    GGSL
NJARET20020-34613-00412-40000012D0000119D0000100000CVS412    GGSL
NJARET20020-34613-00436-00000025D0000091D0000000000436       GGSL
NJARET20020-34613-00471-10000001D0000177D0000300000 N612     GGSL
NJARET20020-34613-00472-80000001D0000216D0000000000 N715     GGSL
NJARET20020-34613-00802-30000120D0000122D0000000000SS2       GGSL
NJARET20020-34613-00803-00000120D0000124D0001100001SS3       GGSL
NJARET20020-34613-00804-70000060D0000089D0002300001SS4       GGSL
NJARET20020-34613-00805-40000160D0000274D0002300000SS5       GGSL
NJARET20020-34613-00806-10000040D0000093D0002500001SS6       GGSL
NJARET20020-34613-00807-80000010D0000060D0000000000SS7HD     GGSL
NJARET20020-34613-00808-50000010D0000065D0000600002SS8HD     GGSL
NJARET20020-34613-00831-30000270D0000994D0000000000SFS4      GGSL
NJARET20020-34613-00832-00000075D0001111D0000000000SFS6      GGSL
NJARET20020-34613-00876-40000040D0000235D0000100000SP6       GGSL
NJARET20020-34613-01150-40000020D0000077D00003000001150PDQ   GGSL
NJARET20020-34613-01160-30000700D0001925D00005000031160      GGSL
NJARET20020-34613-01180-10000024D0000058D00001000011180PDQ   GGSL
NJARET20020-34613-01284-60000024D0000096D0000100001CVS012HD  GGSL
NJARET20020-34613-01484-00000024D0000135D0000100001CVS014HD  GGSL
NJARET20020-34613-01684-40000024D0000173D0000100001CVS016HD  GGSL
NJARET20020-34613-01901-20000036D0000312D00023000001901      GGSL
NJARET20020-34613-01902-90000072D0000624D00024000021902      GGSL
NJARET20020-34613-01903-60000084D0000728D00034000011903      GGSL
NJARET20020-34613-01904-30000012D0000105D00001000001904      GGSL
NJARET20020-34613-01905-00000012D0000105D00000000001905      GGSL
NJARET20020-34613-01906-70000072D0000948D00000000001906      GGSL
NJARET20020-34613-01908-10000024D0000210D00001000011908      GGSL
NJARET20020-34613-02130-50000012D0000119D00016000002130      GGSL
NJARET20020-34613-03104-50000024D0000232D00026000013104      GGSL
NJARET20020-34613-03105-20000012D0000145D00000000003105      GGSL
NJARET20020-34613-03344-50000006D0000141D00001000003344      GGSL
NJARET20020-34613-03603-30000045D0000299D0000300001U3603     GGSL
NJARET20020-34613-04357-40000012D0000028D0000200000550       GGSL
NJARET20020-34613-04406-90000072D0000810D00001000004406BLD   GGSL
NJARET20020-34613-04803-60000015D0000115D0000200000U4803     GGSL
NJARET20020-34613-04830-20000018D0000217D00012000014830      GGSL
NJARET20020-34613-04870-80000012D0000150D0001700000LH015BL   GGSL
NJARET20020-34613-04976-70000020D0000045D000010000110312     GGSL
NJARET20020-34613-04977-40000060D0000177D000010000010412     GGSL
NJARET20020-34613-04978-10000060D0000236D000050000010506     GGSL
NJARET20020-34613-05826-40000018D0000264D00003000015826      GGSL
NJARET20020-34613-05945-20000006D0000174D00023000005945      GGSL
NJARET20020-34613-08073-90000006D0000156D00000000008073      GGSL
NJARET20020-34613-08446-10000018D0000276D0001200000BF24      GGSL
NJARET20020-34613-09509-20000060D0000145D00040000009509      GGSL
NJARET20020-34613-09629-70000012D0000136D00004000019629      GGSL
NJARET20020-34613-09706-50000036D0000180D00000000009706      GGSL
NJARET20020-34613-09714-00000012D0000056D00002000009714      GGSL
NJARET20020-34613-25027-90000001D0000043D0000800000MDSLH     GGSL
NJARET20020-34613-34007-90000050D0000017D0000000000CVS007    GGSL
NJARET20020-34613-34008-60000100D0000047D0000200002CVS008    GGSL
NJARET20020-34613-34009-30000050D0000030D0000000000CVS009    GGSL
NJARET20020-34613-34010-90000075D0000053D0000200002CVS010    GGSL
NJARET20020-34613-34012-30000075D0000083D0000200002CVS012    GGSL
NJARET20020-34613-34014-70000050D0000073D0000100001CVS014    GGSL
NJARET20020-34613-50120-30000006D0000838D000600000350120     GGSL
NJARET20020-34613-50123-40000001D0000295D002350000050123     GGSL
NJARET20020-34613-60566-60000006D0000470D000630000060566     GGSL
NJARET20020-34613-60568-00000005D0000392D000930000060568     GGSL
NJARET20020-34613-65497-80000032D0001144D001600000065497     GGSL
NJARET20020-34613-65498-50000069D0002653D003060000065498     GGSL
NJARET20020-34613-65499-20000021D0000856D000060000065499     GGSL
NJARET20020-34613-65677-40000060D0002286D001780000065677     GGSL
NJARET20020-34613-65678-10000017D0000693D000000000065678     GGSL
NJARET20020-34613-65679-80000040D0001470D000200000065679     GGSL
NJARET20020-34613-65681-10000004D0000139D000220000065681     GGSL
NJARET20020-34613-65682-80000037D0001342D003450000065682     GGSL
NJARET20020-34613-67456-30000097D0013691D000990000367456     GGSL
NJARET20020-34613-68156-10000177D0020357D011280001268156     GGSL
NJARET20020-34613-69373-10000005D0000121D001250000069373     GGSL
NJARET20020-34613-69883-50000002D0000219D002150000069883     GGSL
NJARET20020-34613-69884-20000003D0000220D000750000069884     GGSL
NJARET20020-34613-69885-90000003D0000220D000410000069885     GGSL
NJARET20020-34613-70734-60000006D0000066D000050000070734BL   GGSL
NJARET20020-34613-80120-40000012D0000076D000120000080120     GGSL
NJARET20020-34613-91018-00000050D0000212D000000000091018     GGSL
NJARET20020-34613-91126-20000020D0000121D000000000091126     GGSL
NJARET20020-34613-91146-00000150D0000561D000020000291146     GGSL
NJARET20020-35000-05361-90000840D0000590D0013800000105375    GGSL
NJARET20020-35000-05364-00001020D0001051D0050300017105374    GGSL
NJARET20020-35000-14112-50000240D0001188D000200000014477     GGSL
NJARET20020-35000-14120-00000048D0000238D001040000014478     GGSL
NJARET20020-35000-14328-00000114D0000564D000590000014483     GGSL
NJARET20020-35000-14424-90000072D0000076D001040000114424     GGSL
NJARET20020-35000-39013-40000246D0000697D000970000039013     GGSL
NJARET20020-35000-39371-50001456D0008692D004850000039371     GGSL
NJARET20020-35000-39372-20001476D0008826D001930000039372     GGSL
NJARET20020-35000-39373-90000160D0000957D000960000039373     GGSL
NJARET20020-35000-44558-20000096D0000502D0007500000US04121A  GGSL
NJARET20020-35000-44627-50000900D0000945D0009600006144630    GGSL
NJARET20020-35000-44673-20000981D0001477D003240000044673     GGSL
NJARET20020-35000-45038-50000009D0000019D0004900000US04232A  GGSL
NJARET20020-35000-45041-50000063D0000135D0002000003US04229A  GGSL
NJARET20020-35000-45093-70000180D0000452D0005600000US04282A  GGSL
NJARET20020-35000-45118-40000036D0000085D0003800000US04268A  GGSL
NJARET20020-35000-45816-20000117D0000708D0000000000MX04966A  GGSL
NJARET20020-35000-46071-40000012D0000026D000030000046071     GGSL
NJARET20020-35000-46157-50000244D0001061D000100000046157     GGSL
NJARET20020-35000-47054-60000320D0000336D0009600004US05831A  GGSL
NJARET20020-35000-47805-40000081D0000188D000560000347805     GGSL
NJARET20020-35000-49110-70000212D0000772D002600000049110     GGSL
NJARET20020-35000-49860-10000018D0000039D001300000049860     GGSL
NJARET20020-35000-49861-80000042D0000098D002340000249861     GGSL
NJARET20020-35000-49862-50000030D0000064D001150000349862     GGSL
NJARET20020-35000-49863-20000030D0000064D001150000349863     GGSL
NJARET20020-35000-49874-80000060D0000250D007000000049874     GGSL
NJARET20020-35000-51119-50000084D0000239D0002500000151119    GGSL
NJARET20020-35000-53032-50001404D0003243D0011800000153041    GGSL
NJARET20020-35000-53058-50003252D0015233D007250017553058     GGSL
NJARET20020-35000-53060-80001332D0006220D002450000053060     GGSL
NJARET20020-35000-53063-90000576D0000778D005220001353063     GGSL
NJARET20020-35000-53099-80001068D0002456D000890000053099     GGSL
NJARET20020-35000-53106-30000192D0000259D000760000453106     GGSL
NJARET20020-35000-53122-30002238D0013540D003660000153122     GGSL
NJARET20020-35000-55190-00000090D0000270D0000800000155190    GGSL
NJARET20020-35000-96987-30000396D0002396D0005200000MX06813A  GGSL
NJARET20020-35000-97018-30000424D0002752D0054100000US06329A  GGSL
