TXBWIC2002P-C1100-3950E-A0000014D0003711D002510000411003950  GGSL
TXBWIC2002P-C1100-5800E-A0000031D0003050D000690000711005800  GGSL
TXBWIC2002P-C1100-7415E-A0000003D0001069D000110000011007415  GGSL
TXBWIC2002P-C1100-8081E-A0000001D0000061D000230000711008081  GGSL
TXBWIC2002P-C1400-1068P-K0000025D0000182D000970000014001068  GGSL
TXBWIC20020-00402-00000-00003180D0027879D0185200057BWI COMP  GGSL
TXBWIC20020-00402-01012-60000345D0004658D00485000031012      GGSL
TXBWIC20020-00402-01492-60000010D0000024D000690000214SSB     GGSL
TXBWIC20020-00402-02117-70000225D0000795D0000000003B117      GGSL
TXBWIC20020-00402-02419-20000080D0000069D000820000010XS-20   GGSL
TXBWIC20020-00402-02540-30000200D0000476D0000000000B54       GGSL
TXBWIC20020-00402-02699-50000040D0000034D000300000310XS-20B  GGSL
TXBWIC20020-00402-02750-60000600D0001842D0007300002B75       GGSL
TXBWIC20020-00402-05411-30000325D0000581D00024000035418      GGSL
TXBWIC20020-00402-07518-70000125D0000204D00000000007518      GGSL
TXBWIC20020-00402-10147-30000065D0000761D00138000041014 G    GGSL
TXBWIC20020-00402-10148-00002650D0028157D02217000571014      GGSL
TXBWIC20020-00402-11711-50000025D0000059D000000000011718TL   GGSL
TXBWIC20020-00402-11713-90000075D0000183D000180000011730     GGSL
TXBWIC20020-00402-14311-40000010D0000032D000020000014CSBK    GGSL
TXBWIC20020-00402-14312-10000019D0000066D000430000014CSB     GGSL
TXBWIC20020-00402-14319-00000017D0000054D001040001114CS      GGSL
TXBWIC20020-00402-21014-40004135D0042531D025470005410145B    GGSL
TXBWIC20020-00402-22117-10000025D0000010D0000000000VSC117    GGSL
TXBWIC20020-00402-22275-80000025D0000005D0000000000VSCH7-5   GGSL
TXBWIC20020-00402-33117-70000825D0000260D0011300005PC11-7    GGSL
TXBWIC20020-00402-33354-60002900D0000351D0024800033PC5-4     GGSL
TXBWIC20020-00402-33375-10003175D0000581D0027800027PC7-5     GGSL
TXBWIC20020-00402-41819-90000092D0000562D001360002114TRS     GGSL
TXBWIC20020-00402-44117-30000025D0000009D0000000000PLCD 11-7 GGSL
TXBWIC20020-00402-44475-40000002D0000031D0000000001PLCD 7-5  GGSL
TXBWIC20020-00402-71130-60000025D0000076D000000000071130     GGSL
TXBWIC20020-00772-01900-20000003D0000022D00000000001900      GGSL
TXBWIC20020-00772-02757-10000002D0000030D00000000002757      GGSL
TXBWIC20020-00772-02923-00000003D0000019D00000000002923      GGSL
TXBWIC20020-00772-04272-70000001D0000015D00000000004272      GGSL
TXBWIC20020-00772-04273-40000001D0000015D00000000004273      GGSL
TXBWIC20020-00772-04850-70000002D0000030D00000000004850      GGSL
TXBWIC20020-00772-06062-20000006D0000021D00000000006062      GGSL
TXBWIC20020-00772-06215-20000006D0000045D00000000006215      GGSL
TXBWIC20020-00772-06216-90000006D0000045D00000000006216      GGSL
TXBWIC20020-00772-06281-70000012D0000048D00000000006281      GGSL
TXBWIC20020-00772-06282-40000012D0000048D00000000006282      GGSL
TXBWIC20020-00772-06550-40000001D0000000D00000000006550      GGSL
TXBWIC20020-00772-06702-70000012D0000090D00000000006702      GGSL
TXBWIC20020-00772-06704-10000006D0000030D00000000006704      GGSL
TXBWIC20020-00772-06710-20000012D0000060D00000000006710      GGSL
TXBWIC20020-00772-06723-20000012D0000078D00000000006723      GGSL
TXBWIC20020-00772-06724-90000018D0000117D00000000006724      GGSL
TXBWIC20020-00772-06741-60000012D0000090D00000000006741      GGSL
TXBWIC20020-00772-08537-30000002D0000030D00000000008537      GGSL
TXBWIC20020-00772-08829-90000006D0000015D00000000008829      GGSL
TXBWIC20020-00772-09232-60000006D0000015D00000000009232      GGSL
TXBWIC20020-00772-09279-10000003D0000018D00000000009279      GGSL
TXBWIC20020-00772-09317-00000006D0000015D00000000009317      GGSL
TXBWIC20020-00772-09392-70000002D0000020D00000000009392      GGSL
TXBWIC20020-00772-09415-30000006D0000015D00000000009415      GGSL
TXBWIC20020-00772-09445-00000006D0000015D00000000009445      GGSL
TXBWIC20020-00772-09515-00000006D0000015D00000000009515      GGSL
TXBWIC20020-00772-09524-20000006D0000015D00000000009524      GGSL
TXBWIC20020-00772-09582-20000006D0000015D00000000009582      GGSL
TXBWIC20020-00772-30140-40000002D0000030D000000000030140     GGSL
TXBWIC20020-00772-30142-80000003D0000045D000000000030142     GGSL
TXBWIC20020-00772-30149-70000002D0000020D000000000030149     GGSL
TXBWIC20020-00772-30176-30000001D0000002D000000000030176     GGSL
TXBWIC20020-00772-30384-20000003D0000022D000000000030384     GGSL
TXBWIC20020-00772-30388-00000003D0000025D000000000030388     GGSL
TXBWIC20020-00772-30708-60000001D0000015D000000000030708     GGSL
TXBWIC20020-01850-60960-00000004D0002496D00000000029600      GGSL
TXBWIC20020-04020-10126-60000300D0004462D00000000001012B     GGSL
TXBWIC20020-07454-87092-00000003D0000236D0000000000R920S     GGSL
TXBWIC20020-07815-93364-00000002D0000049D001120000056566     GGSL
TXBWIC20020-09343-29005-80000002D0000514D000000000190-90058  GGSL
TXBWIC20020-10106-00000-00000006D0000064D0000000000HG-51000  GGSL
TXBWIC20020-10367-00110-70000924D0005551D0018400053110       GGSL
TXBWIC20020-10367-00150-30000106D0002917D0022600133150.0     GGSL
TXBWIC20020-10367-00300-20000012D0000091D0000000000ML0300    GGSL
TXBWIC20020-10367-00460-30000088D0000418D0002900001ML0460 8  GGSL
TXBWIC20020-10367-00530-30000002D0000071D0000600000530.0     GGSL
TXBWIC20020-10367-00560-00000296D0000975D0005900001ML0560 8  GGSL
TXBWIC20020-10367-00810-60000096D0000462D0002200026ML0810    GGSL
TXBWIC20020-10367-01000-00000048D0000599D0000500001ML1000    GGSL
TXBWIC20020-10367-01010-90000036D0000460D0000700000ML1010    GGSL
TXBWIC20020-10367-01020-80000048D0000686D0000500000ML1020    GGSL
TXBWIC20020-10367-01050-50000122C0000686C0000100000ML1050    GGSL
TXBWIC20020-10367-01110-60000048D0000129D00006000011110      GGSL
TXBWIC20020-10367-01111-30000048D0000126D00010000031111.0    GGSL
TXBWIC20020-10367-01112-00000056D0000150D00000000021112.0    GGSL
TXBWIC20020-10367-01120-50000160D0000401D00009000031120.0    GGSL
TXBWIC20020-10367-01121-20000032D0000166D00000000011121.0    GGSL
TXBWIC20020-10367-01122-90000008D0000040D00000000011122.0    GGSL
TXBWIC20020-10367-01160-10000008D0000056D00001000001160.0    GGSL
TXBWIC20020-10367-01162-50000008D0000056D00000000001162.0    GGSL
TXBWIC20020-10367-01210-30000012D0000119D00000000001210.0    GGSL
TXBWIC20020-10367-03010-70000024D0000131D0000000000ML3010    GGSL
TXBWIC20020-10367-03020-60000016D0000074D0000900000ML3020    GGSL
TXBWIC20020-10367-05110-20000006D0000043D0000000000LT5110-5  GGSL
TXBWIC20020-11247-00000-00000330D0005484D0006200003CPK0225   GGSL
TXBWIC20020-11247-00640-30000033D0001089D000830002000640     GGSL
TXBWIC20020-11247-00911-40000004D0000183D000000000000911     GGSL
TXBWIC20020-11247-00913-80000001D0000084D000000000000913     GGSL
TXBWIC20020-11247-01050-90000013D0000144D00078000001050      GGSL
TXBWIC20020-11247-01541-20000010D0000331D00059000001541      GGSL
TXBWIC20020-11247-01855-00000002D0000376D00000000081855      GGSL
TXBWIC20020-11247-02155-00000002D0000227D00024000062155.0    GGSL
TXBWIC20020-11247-02450-60000018D0001173D000000000002450     GGSL
TXBWIC20020-11247-03111-50000011D0000323D00116000003111      GGSL
TXBWIC20020-11247-03555-70000001D0000252D000000000103555     GGSL
TXBWIC20020-11247-04525-90000983D0020427D002520001604525     GGSL
TXBWIC20020-11247-04540-20000004D0000166D000000000004540     GGSL
TXBWIC20020-11247-05450-30000072D0002795D00091000325450      GGSL
TXBWIC20020-11247-10002-60000002D0000075D000000000010002     GGSL
TXBWIC20020-11247-12024-60000048D0000212D000000000012024     GGSL
TXBWIC20020-11247-16004-40000162D0000955D000580000016004     GGSL
TXBWIC20020-11247-16040-20000003D0000084D000000000016040     GGSL
TXBWIC20020-11247-20103-70000006D0000044D000000000320103     GGSL
TXBWIC20020-11247-21004-60000102D0000701D000170000121004     GGSL
TXBWIC20020-11247-25004-20000012D0000082D000000000025004     GGSL
TXBWIC20020-11247-26001-00000084D0000396D000260000026001     GGSL
TXBWIC20020-11247-26128-40000040D0000382D000120000026128     GGSL
TXBWIC20020-11247-26250-20000006D0000141D000000000026250     GGSL
TXBWIC20020-11247-30004-40000654D0004125D000730000330004     GGSL
TXBWIC20020-11247-52813-40000024D0000342D000600000052813     GGSL
TXBWIC20020-11247-52825-70000026D0000447D002600000052825     GGSL
TXBWIC20020-11247-52829-50000024D0000230D000130000052829     GGSL
TXBWIC20020-11247-52830-10000004D0000164D000180000052830     GGSL
TXBWIC20020-11247-52832-50000003D0000040D000000000052832     GGSL
TXBWIC20020-11247-52833-20000006D0000035D000000000052833     GGSL
TXBWIC20020-11247-52846-20000003D0000110D000000000052846     GGSL
TXBWIC20020-11247-52848-60000027D0000701D000000004052848     GGSL
TXBWIC20020-11247-52877-60000012D0000525D000220000052877     GGSL
TXBWIC20020-11247-52878-30000020D0001888D000010000052878     GGSL
TXBWIC20020-11247-52880-60000018D0000094D000000000052880     GGSL
TXBWIC20020-11247-52882-00000006D0000046D000000000052882     GGSL
TXBWIC20020-11247-52889-90000094D0001178D003520000052889     GGSL
TXBWIC20020-11247-60016-80000012D0000112D000000000060016     GGSL
TXBWIC20020-11247-60116-50000026D0000244D000760000060116     GGSL
TXBWIC20020-11247-61008-20000204D0000671D000000000261008     GGSL
TXBWIC20020-11247-61024-20000540D0003200D000480000461024     GGSL
TXBWIC20020-11247-61300-70000180D0001880D000000000061300     GGSL
TXBWIC20020-11247-71016-40000012D0000088D000080000671001     GGSL
TXBWIC20020-11247-71250-20000001D0000089D000000000071250     GGSL
TXBWIC20020-11247-90032-90000012D0000055D000110000190001     GGSL
TXBWIC20020-11423-94127-60000384D0001547D0001800000HG-94127  GGSL
TXBWIC20020-11444-43006-30000004D0000144D0000000000703124    GGSL
TXBWIC20020-12090-00002-00000004D0000011D0000000000703778    GGSL
TXBWIC20020-12313-11331-50000027D0000111D00000000001011331   GGSL
TXBWIC20020-12313-11332-20000042D0000699D00000000001011332   GGSL
TXBWIC20020-12313-11536-40000009D0000150D00000000001011536   GGSL
TXBWIC20020-12313-11537-10000004D0000312D00000000001011537   GGSL
TXBWIC20020-12313-11871-60000004D0000038D00000000001011871   GGSL
TXBWIC20020-12313-11872-30000004D0000180D00000000001011872   GGSL
TXBWIC20020-12313-12031-30000038D0000279D00000000001012031   GGSL
TXBWIC20020-12313-12032-00000006D0000214D00000000001012032   GGSL
TXBWIC20020-12313-12421-20000030D0000129D00000000001012421   GGSL
TXBWIC20020-12313-12423-60000029D0000503D00000000001012423   GGSL
TXBWIC20020-12313-15301-40000013D0000060D00000000001015301   GGSL
TXBWIC20020-12313-16081-40000002D0000033D00000000003011785   GGSL
TXBWIC20020-12313-16083-80000002D0000152D00000000003011787   GGSL
TXBWIC20020-12313-16121-70000058D0001064D00000000003011886   GGSL
TXBWIC20020-12313-16123-10000040D0003408D00000000003011888   GGSL
TXBWIC20020-12313-34953-00000005D0000159D00000000001034953   GGSL
TXBWIC20020-12313-38321-30000001D0000111D00000000007938321   GGSL
TXBWIC20020-12313-38322-00000002D0000417D00000000007938322   GGSL
TXBWIC20020-12313-38401-20000006D0000411D00000000003018875   GGSL
TXBWIC20020-12313-38412-80000044D0006420D00000000003014935   GGSL
TXBWIC20020-12313-38431-90000024D0001677D00000000003012681   GGSL
TXBWIC20020-12313-38432-60000022D0002201D00000000003012683   GGSL
TXBWIC20020-12313-47181-10000204D0000544D00000000003044169   GGSL
TXBWIC20020-12313-68341-20000005D0000125D00000000001068341   GGSL
TXBWIC20020-13964-53880-90000013D0000162D0000000000703364    GGSL
TXBWIC20020-13964-53881-60000014D0000350D0000000000703363    GGSL
TXBWIC20020-14021-01412-00000001D0000123D00000000001024      GGSL
TXBWIC20020-14021-01415-10000035D0000161D00000000001000      GGSL
TXBWIC20020-14021-10118-90000001D0000079D00000000003020      GGSL
TXBWIC20020-15966-49430-10000022D0000353D000010000349 00 430 GGSL
TXBWIC20020-16069-00005-90000084D0000450D0001500000TP-15C    GGSL
TXBWIC20020-16069-00007-30000036D0000164D0001000001BN-1      GGSL
TXBWIC20020-16069-00008-00000122D0000685D0004200002BN-2      GGSL
TXBWIC20020-16069-00019-60000012D0000074D0000000000TP-30C    GGSL
TXBWIC20020-16069-00030-10000066D0000714D0004500001OW-6      GGSL
TXBWIC20020-16069-00038-70000072D0000525D0000100000GF-1015   GGSL
TXBWIC20020-16069-00047-90000012D0000062D0000000000TE-12C    GGSL
TXBWIC20020-16069-00060-80000015D0000033D0000000000RAP-15    GGSL
TXBWIC20020-16069-00072-10000012D0000063D0000000000TSD-12    GGSL
TXBWIC20020-16069-00144-50000060D0000080D0000000000TG-30     GGSL
TXBWIC20020-16069-00145-20000056D0001045D0003200020RHO-4     GGSL
TXBWIC20020-16069-00218-30000024D0000088D0000000000HST-100   GGSL
TXBWIC20020-16069-00365-40000009D0000096D0000800000PIN-9     GGSL
TXBWIC20020-16069-00393-70000024D0000053D0000000000GS-20     GGSL
TXBWIC20020-16069-00473-30000007D0002730D0000000000MIXO-30MP GGSL
TXBWIC20020-16069-00475-00000015D0000070D0000000000GS-40B    GGSL
TXBWIC20020-16069-00498-90000006D0000033D0000000000HGP-1012  GGSL
TXBWIC20020-16069-00507-80000012D0000093D0000000000TPSM-15   GGSL
TXBWIC20020-16069-00531-00000240D0002994D0000000000GCM-BDO   GGSL
TXBWIC20020-16069-00622-80000048D0000171D0000000000CP6-12    GGSL
TXBWIC20020-17849-11444-70000036D0000048D0000200000CLA114    GGSL
TXBWIC20020-18506-00000-00000240D0003474D00469000510111-5    GGSL
TXBWIC20020-18506-00010-30000036D0000248D0005900047010-6     GGSL
TXBWIC20020-18506-00018-90000006D0000044D0000000000118-6     GGSL
TXBWIC20020-18506-00021-90000006D0000087D0008900000021-6     GGSL
TXBWIC20020-18506-00102-50000048D0000197D0008600000102-12    GGSL
TXBWIC20020-18506-00110-50000181D0001302D0022700010110-12    GGSL
TXBWIC20020-18506-00116-20000132D0000862D0009100022116-12    GGSL
TXBWIC20020-18506-00117-90000264D0002579D0007800075117-6     GGSL
TXBWIC20020-18506-00125-40000006D0000196D0003600000125       GGSL
TXBWIC20020-18506-00130-80000012D0000068D0005100000130       GGSL
TXBWIC20020-18506-03202-90000160D0001008D00000000003200      GGSL
TXBWIC20020-18583-06291-90000029D0000145D0000000000703697    GGSL
TXBWIC20020-18583-07718-00000020C0000145C0000000000703693    GGSL
TXBWIC20020-18583-10001-70000008D0000191D0000000000703526    GGSL
TXBWIC20020-18583-10002-40000007D0000167D0000000000703527    GGSL
TXBWIC20020-18583-10003-10000001D0000024D0000000000703528    GGSL
TXBWIC20020-18583-10041-30000008D0000191D0000000000703534    GGSL
TXBWIC20020-18583-10042-00000001D0000024D0000000000703535    GGSL
TXBWIC20020-18583-10043-70000001D0000024D0000000000703536    GGSL
TXBWIC20020-18583-10044-40000001D0000024D0000000000703537    GGSL
TXBWIC20020-18583-10121-20000004D0000113D0000000000703550    GGSL
TXBWIC20020-18583-10122-90000004D0000113D0000000000703551    GGSL
TXBWIC20020-18583-10123-60000003D0000085D0000000000703552    GGSL
TXBWIC20020-18583-10162-50000001D0000028D0000000000703560    GGSL
TXBWIC20020-18583-10164-90000011D0000282D0000000000703590    GGSL
TXBWIC20020-18583-10848-80000009D0000230D0000000000703591    GGSL
TXBWIC20020-18583-10849-50000006D0000153D0000000000703566    GGSL
TXBWIC20020-18583-10850-10000008D0000204D0000000000703593    GGSL
TXBWIC20020-18583-10851-80000007D0000179D0000000000703594    GGSL
TXBWIC20020-18583-10862-40000011D0000231D0000000000703596    GGSL
TXBWIC20020-18583-10863-10000006D0000126D0000000000703597    GGSL
TXBWIC20020-18583-10866-20000002D0000042D0000000000703600    GGSL
TXBWIC20020-18583-10874-70000001D0000017D0000000000703601    GGSL
TXBWIC20020-18583-10875-40000001D0000017D0000000000703602    GGSL
TXBWIC20020-18583-10956-00000002D0000048D0000000000703619    GGSL
TXBWIC20020-18583-10957-70000002D0000048D0000000000703620    GGSL
TXBWIC20020-18583-11077-10000002D0000057D0000000000703636    GGSL
TXBWIC20020-18583-11078-80000002D0000056D0000000000703637    GGSL
TXBWIC20020-18583-11741-10000001D0000019D0000000000703657    GGSL
TXBWIC20020-18583-11743-50000001D0000019D0000000000703659    GGSL
TXBWIC20020-18583-11744-20000001D0000019D0000000000703660    GGSL
TXBWIC20020-18583-18497-00000008D0000204D0000000000703675    GGSL
TXBWIC20020-18583-18498-70000001D0000028D0000000000703676    GGSL
TXBWIC20020-18583-18619-60000001D0000021D0000000000703684    GGSL
TXBWIC20020-20279-99300-10000008D0000048D0000000000703932    GGSL
TXBWIC20020-20279-99480-00000041D0000095D0000000000703933    GGSL
TXBWIC20020-20279-99500-50000006D0000072D0000000000703936    GGSL
TXBWIC20020-20279-99502-90000002D0000006D0000000000703937    GGSL
TXBWIC20020-20279-99509-80000011D0000039D0000000000703939    GGSL
TXBWIC20020-20279-99527-20000003D0000011D0000000000703941    GGSL
TXBWIC20020-20279-99528-90000003D0000011D0000000000703942    GGSL
TXBWIC20020-20279-99801-30000006D0000005D0000000000703956    GGSL
TXBWIC20020-20279-99803-70000006D0000023D0000000000703957    GGSL
TXBWIC20020-20279-99804-40000012D0000018D0000000000703958    GGSL
TXBWIC20020-21709-00449-60000024D0000071D00000000009134365   GGSL
TXBWIC20020-22179-00000-00000012D0000107D0000000000          GGSL
TXBWIC20020-22179-10011-40000024D0000216D0000000000lg 3104   GGSL
TXBWIC20020-22179-10035-00000049D0002400D0024600016LG4110    GGSL
TXBWIC20020-22179-10077-00000024D0000166D0000000000LG7150    GGSL
TXBWIC20020-22179-10084-80000006D0000045D0001300020LG7220    GGSL
TXBWIC20020-22179-10090-90000006D0000156D0001100000LG4300    GGSL
TXBWIC20020-22179-10108-10000012D0000086D0000000000LG7265    GGSL
TXBWIC20020-22179-10109-80000048D0000660D0000700000lg 5146   GGSL
TXBWIC20020-22179-10110-40000012D0000305D0000600000lg 5149   GGSL
TXBWIC20020-22179-10115-90000048D0000787D0002900000lg 5599   GGSL
TXBWIC20020-22179-10118-00000024D0000668D0000000000          GGSL
TXBWIC20020-22179-10124-10000324D0001622D0003400003LG6515    GGSL
TXBWIC20020-22179-10133-30000012D0000118D0000000000lg 4102   GGSL
TXBWIC20020-22179-10138-80000048D0000114D0000000004LG 1125   GGSL
TXBWIC20020-22179-10139-50000084D0000353D0001000000LG1130    GGSL
TXBWIC20020-22179-10140-10000009D0001025D0006700003LG6520    GGSL
TXBWIC20020-22179-10150-00000136D0001389D00075000667115      GGSL
TXBWIC20020-22179-10151-70000067D0002612D00260000007117      GGSL
TXBWIC20020-22179-10157-90000018D0000326D0000000000LG6530    GGSL
TXBWIC20020-22179-10167-80000006D0000086D0000000006lg 6127   GGSL
TXBWIC20020-22179-10185-20000156D0001564D0006200002LG6500    GGSL
TXBWIC20020-22179-10230-90000024D0000098D0000000002LG8800    GGSL
TXBWIC20020-22179-10246-00000084D0001300D0008000135LG6570    GGSL
TXBWIC20020-22179-10247-70000112D0002300D00326002167122      GGSL
TXBWIC20020-22179-10248-40000120D0000929D0003200000LG6575    GGSL
TXBWIC20020-22179-10257-60000060D0000864D0000200000LG3190    GGSL
TXBWIC20020-22179-10262-00000024D0000215D0000000000          GGSL
TXBWIC20020-22179-10263-70000012D0000301D0000000000          GGSL
TXBWIC20020-22179-10266-80000024D0000358D0000000001LG6145    GGSL
TXBWIC20020-22179-10271-20000012D0000088D0000000000          GGSL
TXBWIC20020-22179-10289-70000012D0000147D0000000000LG8920    GGSL
TXBWIC20020-22179-10327-60000048D0000343D0000000000LG6148    GGSL
TXBWIC20020-22179-10331-30000006D0000064D0000000000lg 6382   GGSL
TXBWIC20020-22179-10363-40000012D0000076D0000000000LG6232    GGSL
TXBWIC20020-22179-10366-50000036D0000297D0000900001LG7262    GGSL
TXBWIC20020-22179-10374-00000042D0000225D0000000000lg 6286   GGSL
TXBWIC20020-22179-10375-70000006D0000045D0000000000lg 6299   GGSL
TXBWIC20020-22179-10378-80000078D0000535D0000400006lg6274    GGSL
TXBWIC20020-22179-10384-90000036D0000415D0000000000LG6386    GGSL
TXBWIC20020-22179-10390-00000012D0000096D0003300012LG6332    GGSL
TXBWIC20020-22179-10390-20000012D0000233D0000000000LG 5206   GGSL
TXBWIC20020-22179-10395-50000021D0000552D0006600005LG6356    GGSL
TXBWIC20020-22179-10408-20000132D0001011D0002400032LG 6338   GGSL
TXBWIC20020-22179-10429-70000012D0000168D0003000045LG6334    GGSL
TXBWIC20020-22179-10454-90000078D0000776D0000700023lg 3303   GGSL
TXBWIC20020-22179-10458-70000048D0000414D0001800005lg 3234   GGSL
TXBWIC20020-22179-10462-40000012D0000089D0000000002LG1142    GGSL
TXBWIC20020-22179-10466-20000006D0000202D0000000000lg 3319   GGSL
TXBWIC20020-22179-10481-50000012D0000141D0000000002lg 5592   GGSL
TXBWIC20020-22179-10510-20000006D0000061D0000000000          GGSL
TXBWIC20020-22179-10517-10000024D0000478D0001100000lg 3176   GGSL
TXBWIC20020-22179-10519-50000006D0000079D0000500000lg 6544   GGSL
TXBWIC20020-22401-00115-80000555D0004304D0029100000MDC-15    GGSL
TXBWIC20020-22401-00301-50000004D0000037D0003300000THD-20    GGSL
TXBWIC20020-22401-00721-10000470D0004025D0000000000DBR-20    GGSL
TXBWIC20020-22401-10088-20000074D0001590D0011800105EAR-60    GGSL
TXBWIC20020-23077-00104-60000676D0002681D005050008852050326  GGSL
TXBWIC20020-23077-00107-70000195D0000333D000000000050055010  GGSL
TXBWIC20020-23077-00109-10000650D0001621D000140000050055071  GGSL
TXBWIC20020-23077-00204-30000585D0001580D012660026052055472  GGSL
TXBWIC20020-23077-00205-00009751D0028823D087920284552055475  GGSL
TXBWIC20020-23077-00207-40001050D0003157D000010000252055477  GGSL
TXBWIC20020-23077-00208-10002301D0008096D009820018252050320  GGSL
TXBWIC20020-23077-00209-80003201D0010098D036180037950055016  GGSL
TXBWIC20020-23077-00210-40005122D0014212D072350139552058069  GGSL
TXBWIC20020-23077-00211-10000320D0001039D000010000052050045  GGSL
TXBWIC20020-23077-00212-80003152D0009062D060790058752058058  GGSL
TXBWIC20020-23077-00213-50002282D0006796D014670135752058059  GGSL
TXBWIC20020-23077-00504-40000896D0003796D000000000040200451  GGSL
TXBWIC20020-23077-01900-30000070D0000394D0000000010NG190     GGSL
TXBWIC20020-23077-18200-40000004D0000031D0000300000NG182     GGSL
TXBWIC20020-23077-19142-60000152D0002801D0031200080          GGSL
TXBWIC20020-23077-41518-80000368D0003491D0073800048          GGSL
TXBWIC20020-23077-52600-60000800D0006549D0073800012NG526     GGSL
TXBWIC20020-23534-00428-80000980D0035588D04189000221664288H  GGSL
TXBWIC20020-23626-00860-10000024D0000226D0000000000116348    GGSL
TXBWIC20020-23626-01710-80000084D0000364D0008800001800       GGSL
TXBWIC20020-23626-01720-70000132D0000770D0007300000000900    GGSL
TXBWIC20020-23626-02555-40000008D0000152D0001400000112840    GGSL
TXBWIC20020-23626-02830-20000056D0000658D0007000000116841    GGSL
TXBWIC20020-23626-07002-80000020D0000589D0000000004112825    GGSL
TXBWIC20020-23851-01030-10000003D0000018D00000000003101030   GGSL
TXBWIC20020-23851-01043-10000015D0000120D00000000003101043   GGSL
TXBWIC20020-23851-01045-50000016D0000196D00000000003101045   GGSL
TXBWIC20020-23851-01046-20000040D0000305D00000000003101046   GGSL
TXBWIC20020-23851-01047-90000001D0000023D00000000003101047   GGSL
TXBWIC20020-23851-01051-60000016D0000084D00000000003101051   GGSL
TXBWIC20020-23851-01052-30000003D0000015D00000000003101052   GGSL
TXBWIC20020-23851-01054-70000007D0000042D00000000003101054   GGSL
TXBWIC20020-23851-01058-50000006D0000040D00000000003101058   GGSL
TXBWIC20020-23851-01063-90000006D0000030D00000000003101063   GGSL
TXBWIC20020-23851-01312-80000006D0000060D00000000003101312   GGSL
TXBWIC20020-23851-01367-80000014D0000075D00000000003101367   GGSL
TXBWIC20020-23851-01691-40000005D0000012D00000000003101691   GGSL
TXBWIC20020-23883-00001-10000678D0010491D0010000001G362      GGSL
TXBWIC20020-23883-00002-80000318D0001234D0006800001G385      GGSL
TXBWIC20020-23883-00003-50000138D0000509D0005200001G390      GGSL
TXBWIC20020-23883-01002-70000159D0001344D00082000031002      GGSL
TXBWIC20020-23883-01280-90000001D0000055D00000000001280.0    GGSL
TXBWIC20020-23883-05000-90000025D0000283D00097000005000      GGSL
TXBWIC20020-23883-08620-60000004D0000664D00000000008620B     GGSL
TXBWIC20020-23883-10030-80000024D0000200D000000000010030     GGSL
TXBWIC20020-23883-15710-40006773D0042038D093730304515710     GGSL
TXBWIC20020-23883-16100-20000398D0003644D005970016116100     GGSL
TXBWIC20020-23883-21220-90000001D0000056D000000000021220XP   GGSL
TXBWIC20020-23883-26011-80000064D0001766D001100000026011XP   GGSL
TXBWIC20020-23883-26021-70001025D0023945D008480031226021XP   GGSL
TXBWIC20020-23883-26031-60000041D0001456D000410000526031XP   GGSL
TXBWIC20020-23883-27010-00000033D0000648D001080000427010     GGSL
TXBWIC20020-23883-27020-90000160D0003173D002550000627020     GGSL
TXBWIC20020-23883-27030-80000062D0001531D001540000427030     GGSL
TXBWIC20020-23883-60100-30000348D0013777D003400005760100     GGSL
TXBWIC20020-23883-61800-10000043D0002437D000000004061800     GGSL
TXBWIC20020-23883-63924-20000018D0002755D000690000063924     GGSL
TXBWIC20020-23883-64601-10000002D0000025D00013000006-4601    GGSL
TXBWIC20020-23883-67711-40000002D0000021D00000000006-7711    GGSL
TXBWIC20020-23883-67749-70000002D0000012D00010000006-7749    GGSL
TXBWIC20020-23883-68061-90000122D0002810D00033000036-8061    GGSL
TXBWIC20020-23883-68238-50000001D0000041D00003000016-8238    GGSL
TXBWIC20020-23883-80000-00000240D0007317D00009000148000A     GGSL
TXBWIC20020-23883-82080-00000001D0000155D00000000008301C     GGSL
TXBWIC20020-23883-84000-60000095D0005587D00007000128701B     GGSL
TXBWIC20020-23883-84600-80000020D0000551D000030000584700A    GGSL
TXBWIC20020-23883-97100-70000067C0000000D000330000697100     GGSL
TXBWIC20020-23883-97361-20000001D0000155D000240000197361     GGSL
TXBWIC20020-23883-97561-60000125D0020187D000290000197561     GGSL
TXBWIC20020-24114-71079-20000025C0000095D0000300000710079    GGSL
TXBWIC20020-24114-74254-40000003D0000210D000010000074254     GGSL
TXBWIC20020-24114-74327-10001625D0006396D000000000074327     GGSL
TXBWIC20020-24114-77123-60000005D0002890D000010000277123     GGSL
TXBWIC20020-24114-77788-70000001D0000547D000000000077788     GGSL
TXBWIC20020-24654-05102-70000042D0000194D00000000015102-6    GGSL
TXBWIC20020-24654-05922-10000006D0000063D00000000005926      GGSL
TXBWIC20020-24654-05931-30000006D0000084D00000000005935      GGSL
TXBWIC20020-24654-05972-60000004D0000128D00000000005972      GGSL
TXBWIC20020-24654-09333-10000021D0000490D0000000000          GGSL
TXBWIC20020-24654-09334-80000023D0000604D00128000149334      GGSL
TXBWIC20020-24654-51621-20000012D0000059D00000000005162-12   GGSL
TXBWIC20020-24654-51926-80000006D0000054D00000000005192-6    GGSL
TXBWIC20020-24654-55110-70000540D0001346D00069000045110-6    GGSL
TXBWIC20020-24654-55118-30000108D0000755D00080000035118.0    GGSL
TXBWIC20020-24654-55450-40000006D0000029D00000000005450-6    GGSL
TXBWIC20020-24654-65452-50000012D0000058D00000000015452-6    GGSL
TXBWIC20020-24655-50858- 0000024D0000115D00000000005085-6    GGSL
TXBWIC20020-25033-12013-60000001D0000057D000050000012013     GGSL
TXBWIC20020-25033-12039-60000001D0000034D000040000012039     GGSL
TXBWIC20020-25033-14645-70000012D0000016D000030000014645     GGSL
TXBWIC20020-25033-40122-80000003D0000141D000000000040122     GGSL
TXBWIC20020-25033-40307-90000005D0000053D000000000040307     GGSL
TXBWIC20020-25033-40512-70000004D0000023D000000000040512     GGSL
TXBWIC20020-25531-00350-40000003D0000090D00004000007511I     GGSL
TXBWIC20020-25626-00000-00000388D0003552D9948300002          GGSL
TXBWIC20020-25784-20011-80000003D0000006D0000000000703754    GGSL
TXBWIC20020-25784-20015-60000004D0000018D0000000000703755    GGSL
TXBWIC20020-25845-12346-20000072D0000087D000000000624950     GGSL
TXBWIC20020-25845-12354-70000096D0000116D000000000524951     GGSL
TXBWIC20020-26978-10010-80000012D0000031D000000000010010     GGSL
TXBWIC20020-26978-10012-20000012D0000031D000000000010012     GGSL
TXBWIC20020-26978-10013-90000012D0000031D000000000010013     GGSL
TXBWIC20020-26978-30104-80000012D0000050D000000000030104     GGSL
TXBWIC20020-26978-30200-70000002D0000041D000020000030200     GGSL
TXBWIC20020-26978-30301-10002124D0008006D000700003030301     GGSL
TXBWIC20020-26978-30500-80000020D0000081D000000000030500     GGSL
TXBWIC20020-26978-30806-10000006D0000018D000000000030806     GGSL
TXBWIC20020-26978-30909-90000010D0000045D000000000030909     GGSL
TXBWIC20020-26978-70811-00000020D0000039D000000000070811     GGSL
TXBWIC20020-26978-80107-40000012D0000468D000000000080107.12  GGSL
TXBWIC20020-26978-95000-00000001D0000030D000000000095000     GGSL
TXBWIC20020-27324-55140-70000014D0000084D002550000040105130  GGSL
TXBWIC20020-28009-11225-80003123D0014619D02886003861225.0    GGSL
TXBWIC20020-28009-11227-20000120D0000297D00000000071227.0    GGSL
TXBWIC20020-28009-11250-00007345D0054037D07281010041250.0    GGSL
TXBWIC20020-28009-11420-70001170D0005165D00174001301420P     GGSL
TXBWIC20020-28009-11440-50002151D0015326D01460003191440P     GGSL
TXBWIC20020-28009-11550-10000150D0000809D00000000001550P     GGSL
TXBWIC20020-28009-11640-90000600D0003884D00007000051640      GGSL
TXBWIC20020-28009-11925-70000195D0001586D00000000001925      GGSL
TXBWIC20020-28009-15240-70000682D0003430D00817000005240.0    GGSL
TXBWIC20020-28009-15440-10000005D0001030D00003000005440.0    GGSL
TXBWIC20020-28009-15440-30000540D0003417D00000000001840      GGSL
TXBWIC20020-28009-15450-00003151C0003417C00371000065450.0    GGSL
TXBWIC20020-28009-15540-80002010D0005860D02000003005540.0    GGSL
TXBWIC20020-28009-15720-40000095D0000338D00223000005720.0    GGSL
TXBWIC20020-28009-15740-20001115D0004397D01208001815740.0    GGSL
TXBWIC20020-30541-00067-20000006D0000064D0000500006JCD-100FGPGGSL
TXBWIC20020-30541-00301-70000002D0000325D0000000000JCD-30BKSMGGSL
TXBWIC20020-30541-00501-10000001D0000279D0000000000JCD-50BKSMGGSL
TXBWIC20020-30541-01020-60000276D0000587D0001300003JCD-024SM GGSL
TXBWIC20020-30541-01030-50000042D0000336D0001200001JCD-100SMJGGSL
TXBWIC20020-30541-01034-30000052D0001224D0008000000JCD-030SM GGSL
TXBWIC20020-30541-01039-80000012D0000060D0000000000JCD-05SM  GGSL
TXBWIC20020-30541-08875-50001250D0000382D0000000000SMB       GGSL
TXBWIC20020-30541-09982-90000024D0000059D0000700000JCD-TPP03 GGSL
TXBWIC20020-30541-83796-40000042C0000059C0000200000SR-24     GGSL
TXBWIC20020-30641-09801-20000180D0000451D0001000005SWPDQ     GGSL
TXBWIC20020-30641-32937-60000252D0000412D0000900001RPDQ      GGSL
TXBWIC20020-30641-33935-10000216D0000336D0000800001YPDQ      GGSL
TXBWIC20020-30641-35936-60000252D0000401D0001700003WPDQ      GGSL
TXBWIC20020-30907-00548-80000007D0000120D00000000009600548   GGSL
TXBWIC20020-30907-03471-60000001D0000022D00000000009676025   GGSL
TXBWIC20020-30907-03472-30000001D0000022D00000000009676050   GGSL
TXBWIC20020-30907-03488-40000003D0000060D00000000009607701   GGSL
TXBWIC20020-30907-03494-50000002D0000046D00000000009677050   GGSL
TXBWIC20020-30907-03495-20000002D0000046D00000000009677075   GGSL
TXBWIC20020-30907-03496-90000001D0000023D00000000009677020   GGSL
TXBWIC20020-30907-03581-20000002D0000046D00000000009677125   GGSL
TXBWIC20020-30907-03582-90000001D0000023D00000000009677150   GGSL
TXBWIC20020-30907-03583-60000002D0000046D00000000009677175   GGSL
TXBWIC20020-30907-03598-00000002D0000038D00000000009607713   GGSL
TXBWIC20020-30907-03727-40000001D0000027D00000000009673025   GGSL
TXBWIC20020-30907-03728-10000001D0000027D00000000009673050   GGSL
TXBWIC20020-30907-03730-40000001D0000027D00000000009673100   GGSL
TXBWIC20020-30907-03751-90000001D0000027D00000000009679075   GGSL
TXBWIC20020-30907-03788-50000004D0000098D00000000009607907   GGSL
TXBWIC20020-30907-03837-00000004D0000108D00000000009679125   GGSL
TXBWIC20020-30907-03840-00000002D0000054D00000000009672100   GGSL
TXBWIC20020-30907-03854-70000003D0000074D00000000009607913   GGSL
TXBWIC20020-30907-04165-30000011D0000354D00000000009604165   GGSL
TXBWIC20020-30907-04924-60000002D0000225D00000000006800031   GGSL
TXBWIC20020-30907-04974-10000002D0000012D00000000009602563   GGSL
TXBWIC20020-30907-05123-20000004D0000025D00000000009605122   GGSL
TXBWIC20020-30907-05445-50000009D0000188D00000000009600495   GGSL
TXBWIC20020-30907-06212-20000005D0000104D00000000009606380   GGSL
TXBWIC20020-32221-10434-20000492D0007242D000300000310434     GGSL
TXBWIC20020-32221-10505-90000732D0003524D000270000110505     GGSL
TXBWIC20020-32221-10720-00000228D0001234D000410000310720     GGSL
TXBWIC20020-32221-10768-80000607D0015359D009970000210768     GGSL
TXBWIC20020-32221-10885-20001564D0022716D002680067010885     GGSL
TXBWIC20020-32221-11008-40002196D0001406D000870000211008     GGSL
TXBWIC20020-32221-11695-00000625D0009838D012460006211695     GGSL
TXBWIC20020-32221-31063-70000080D0001675D000020000631063     GGSL
TXBWIC20020-32221-31228-00000432D0001230D000360000331228     GGSL
TXBWIC20020-32221-32297-50000252D0004398D000030000032297     GGSL
TXBWIC20020-32221-32325-50000060D0000340D000190000032325     GGSL
TXBWIC20020-32221-33033-80000516D0003676D000280000133033     GGSL
TXBWIC20020-32221-33035-20000780D0007189D000320000033035     GGSL
TXBWIC20020-32221-33326-10002301D0017847D035240009533326     GGSL
TXBWIC20020-32221-33327-80003010D0036039D021290005733327     GGSL
TXBWIC20020-32221-33704-70003942D0134294D018340015233704     GGSL
TXBWIC20020-32221-40712-20000696D0007096D000470000440712     GGSL
TXBWIC20020-32221-40730-60000114D0001002D000630000640730     GGSL
TXBWIC20020-32221-43040-30000204D0001039D000180000142194     GGSL
TXBWIC20020-32221-57705-00001020D0005721D001200001211685     GGSL
TXBWIC20020-32247-00000-00000541D0010033D000220000117185     GGSL
TXBWIC20020-32247-00900-30000522D0001262D00032000061009001   GGSL
TXBWIC20020-32247-00910-20000228D0000582D00010000031009101   GGSL
TXBWIC20020-32247-00950-80000402D0000967D00012000011009501   GGSL
TXBWIC20020-32247-02515-70000044D0001354D00000000002515      GGSL
TXBWIC20020-32247-03115-80000171D0009745D000500000031115     GGSL
TXBWIC20020-32247-03313-80001430D0028992D00622000003313B     GGSL
TXBWIC20020-32247-03594-10000848D0005106D003740000070359430  GGSL
TXBWIC20020-32247-05514-70016845D0058441D034820023170551430  GGSL
TXBWIC20020-32247-10500-20000540D0003978D0007700001110500    GGSL
TXBWIC20020-32247-11307-60015674D0027370D023430063071130756  GGSL
TXBWIC20020-32247-14902-00000196D0002338D000060000014902     GGSL
TXBWIC20020-32247-14905-10001080D0006732D000550000114905     GGSL
TXBWIC20020-32247-15307-20000877D0001697D002540000071530751  GGSL
TXBWIC20020-32247-17183-00001026D0007984D000070000017183     GGSL
TXBWIC20020-32247-17187-80000302D0012893D000130000017187     GGSL
TXBWIC20020-32247-17290-50000552D0004735D000150000017290     GGSL
TXBWIC20020-32247-17293-60000468D0003855D000090000017293     GGSL
TXBWIC20020-32247-17295-00000228D0004437D000070000017295     GGSL
TXBWIC20020-32247-17323-00000438D0003364D000300000017323     GGSL
TXBWIC20020-32247-17325-40000248D0004026D000060000017325     GGSL
TXBWIC20020-32247-17327-80000267D0009093D000840000017327     GGSL
TXBWIC20020-32247-17424-40000056D0001255D000000000017519     GGSL
TXBWIC20020-32247-17432-90000075D0002805D000000000017504     GGSL
TXBWIC20020-32247-17488-60000012D0000269D000000000017590     GGSL
TXBWIC20020-32247-17501-20000252D0002719D000150000017508     GGSL
TXBWIC20020-32247-17508-10000030D0000309D000000000017508B    GGSL
TXBWIC20020-32247-17511-10000114D0001225D000120000117511     GGSL
TXBWIC20020-32247-17520-30000012D0000134D000000000017520     GGSL
TXBWIC20020-32247-17528-90000152D0003409D000100000017540     GGSL
TXBWIC20020-32247-17582-10000288D0003233D000010000017582     GGSL
TXBWIC20020-32247-17940-90000084D0000859D000000000017940     GGSL
TXBWIC20020-32247-17943-00000004D0000085D000020000017943     GGSL
TXBWIC20020-32247-18221-80000252D0004986D000230000018221     GGSL
TXBWIC20020-32247-18225-60000726D0006802D000580000018225     GGSL
TXBWIC20020-32247-18251-50000076D0001939D000020000018251     GGSL
TXBWIC20020-32247-18260-70000066D0000620D000050000018260     GGSL
TXBWIC20020-32247-18266-90000204D0002156D000290000018266     GGSL
TXBWIC20020-32247-18269-00000032D0000794D000060000018269     GGSL
TXBWIC20020-32247-18272-00000174D0000806D000160000018272     GGSL
TXBWIC20020-32247-18296-60000096D0001013D000010000018296     GGSL
TXBWIC20020-32247-18302-40000032D0000639D000000000018302     GGSL
TXBWIC20020-32247-18320-80000324D0002656D000270000018320     GGSL
TXBWIC20020-32247-18338-30000030D0000270D000000000018338     GGSL
TXBWIC20020-32247-18346-80000156D0002585D000250000018346     GGSL
TXBWIC20020-32247-18348-20000192D0002321D000070000018348     GGSL
TXBWIC20020-32247-18350-50001110D0006678D001580000018350     GGSL
TXBWIC20020-32247-18353-60001021D0021681D000690000018335     GGSL
TXBWIC20020-32247-18354-30000018D0000204D000190000018354     GGSL
TXBWIC20020-32247-18362-80000342D0010589D000000000018362     GGSL
TXBWIC20020-32247-18363-50000012D0000223D000010000018363     GGSL
TXBWIC20020-32247-19002-20000018D0000139D000030000019002     GGSL
TXBWIC20020-32247-19003-90000048D0001620D000030000319003     GGSL
TXBWIC20020-32247-19007-70000004D0000069D000020000019007     GGSL
TXBWIC20020-32247-19594-20000221D0001285D001630002471959430  GGSL
TXBWIC20020-32247-20605-10001097D0017797D000620000021605     GGSL
TXBWIC20020-32247-20784-30001842D0005160D003780001772078430  GGSL
TXBWIC20020-32247-20785-00000054D0000181D000010000472078500  GGSL
TXBWIC20020-32247-20814-70000367D0013542D000000000021814     GGSL
TXBWIC20020-32247-21701-90000360D0002578D000070000021701     GGSL
TXBWIC20020-32247-22305-80000450D0005918D000370003122305     GGSL
TXBWIC20020-32247-22311-90000100D0000884D000000000022311     GGSL
TXBWIC20020-32247-22315-70000128D0004278D000470000022315     GGSL
TXBWIC20020-32247-23100-80000024D0000240D000050000023100     GGSL
TXBWIC20020-32247-23200-50000179D0005357D000120000023200     GGSL
TXBWIC20020-32247-23405-40002126D0026218D001950000123405B    GGSL
TXBWIC20020-32247-23415-30000078D0002789D000090000023415     GGSL
TXBWIC20020-32247-23615-70000080D0001379D000060000023616     GGSL
TXBWIC20020-32247-23622-50000058D0000809D000020000023622     GGSL
TXBWIC20020-32247-25006-10005696D0096851D005490001025006A    GGSL
TXBWIC20020-32247-25009-20000490D0023215D000780000025009     GGSL
TXBWIC20020-32247-26002-20000006D0000335D000000000026002     GGSL
TXBWIC20020-32247-26003-90000777D0017269D000290000126003D    GGSL
TXBWIC20020-32247-26007-70000453D0010501D002760000226007B    GGSL
TXBWIC20020-32247-26008-40000120D0004907D000000000026008A    GGSL
TXBWIC20020-32247-26784-70000354D0000977D000320014172678430  GGSL
TXBWIC20020-32247-27764-80000024D0000081D000010000072776430  GGSL
TXBWIC20020-32247-27791-40000360D0000663D000000000272779180  GGSL
TXBWIC20020-32247-30073-50000116D0001629D000000000030073     GGSL
TXBWIC20020-32247-30156-50001004D0014075D000000000030156     GGSL
TXBWIC20020-32247-30177-00000351D0004941D000010000030177     GGSL
TXBWIC20020-32247-33020-60000483D0018177D001330000333020     GGSL
TXBWIC20020-32247-33040-40000058D0000809D000000000033040     GGSL
TXBWIC20020-32247-33050-30000052D0001797D000000000033050     GGSL
TXBWIC20020-32247-33160-90000095D0004985D000400000033160     GGSL
TXBWIC20020-32247-34161- 0000109D0004743D000030000034161     GGSL
TXBWIC20020-32247-35594-00000167D0000958D000000000073559430  GGSL
TXBWIC20020-32247-35605-30000209D0003899D001830000044615A    GGSL
TXBWIC20020-32247-36605-20001111D0018777D001190000099605     GGSL
TXBWIC20020-32247-37594-80006480D0030904D014980000073759430  GGSL
TXBWIC20020-32247-37610-50000612D0007376D000610000137610A    GGSL
TXBWIC20020-32247-38505-30000002D0000037D000000000038505     GGSL
TXBWIC20020-32247-38605-00000046D0000636D000200000038605D    GGSL
TXBWIC20020-32247-39181-80000178D0003885D000000000039181     GGSL
TXBWIC20020-32247-39594-60006406D0042299D018720014873959430  GGSL
TXBWIC20020-32247-39605-90000991D0014449D000490000039605     GGSL
TXBWIC20020-32247-39615-80000768D0029705D000000000039615     GGSL
TXBWIC20020-32247-42784-50000648D0001753D000510000374278430  GGSL
TXBWIC20020-32247-43850-60001140D0024417D00018000014385010   GGSL
TXBWIC20020-32247-43854-40000032D0000290D00012000004385404   GGSL
TXBWIC20020-32247-43860-50000064D0001082D00007000004386004   GGSL
TXBWIC20020-32247-45651-70000720D0005678D003860006045651300  GGSL
TXBWIC20020-32247-47783-30000234D0000662D000220000074778300  GGSL
TXBWIC20020-32247-49019-10000209D0002015D001240000049019     GGSL
TXBWIC20020-32247-49024-50000382D0004406D000170000049024     GGSL
TXBWIC20020-32247-49785-50001206D0003161D001580002574978500  GGSL
TXBWIC20020-32247-50084-50000036D0000559D00000000015008410   GGSL
TXBWIC20020-32247-50086-90000042D0000653D00007000005008610   GGSL
TXBWIC20020-32247-50087-60000540D0008409D00010000005008710   GGSL
TXBWIC20020-32247-50088-30000078D0001212D00010000005008810   GGSL
TXBWIC20020-32247-50089-00000156D0003363D00013000025008910   GGSL
TXBWIC20020-32247-50090-60000008D0000123D00000000005009010   GGSL
TXBWIC20020-32247-50154-50000300D0001794D003440006345015430  GGSL
TXBWIC20020-32247-50524-60025114D0146240D034340064975052430  GGSL
TXBWIC20020-32247-51064-60000006D0000057D000000000051064     GGSL
TXBWIC20020-32247-51105-60004739D0050396D003670000551105     GGSL
TXBWIC20020-32247-51115-50001483D0044333D001310001251115     GGSL
TXBWIC20020-32247-52524-40000238D0001888D005260004885252430  GGSL
TXBWIC20020-32247-52784-20000582D0001607D000430000185278430  GGSL
TXBWIC20020-32247-53105-40003395D0026807D001340000053105     GGSL
TXBWIC20020-32247-53115-30001018D0021509D000180000053115     GGSL
TXBWIC20020-32247-54105-30000090D0000394D00000000005410510   GGSL
TXBWIC20020-32247-55513-50004642D0032269D008770007575551300  GGSL
TXBWIC20020-32247-55523-40005712D0061574D018830013075552300  GGSL
TXBWIC20020-32247-55783-20002202D0007763D000810000675578300  GGSL
TXBWIC20020-32247-55863-10000186D0001050D001860000875586300  GGSL
TXBWIC20020-32247-56063-40000128D0000500D000290000145606300  GGSL
TXBWIC20020-32247-56513-40034043D0208791D039450041675651300  GGSL
TXBWIC20020-32247-56523-30067573D0635311D063700134675652300  GGSL
TXBWIC20020-32247-56783-10003882D0013079D004630002375678300  GGSL
TXBWIC20020-32247-56863-00002506D0013050D017610022975686300  GGSL
TXBWIC20020-32247-57905-60001800D0017190D000000000057905     GGSL
TXBWIC20020-32247-60594-60001436D0008118D012120000076059430  GGSL
TXBWIC20020-32247-71060-20001399D0014718D001760001171060     GGSL
TXBWIC20020-32247-71131-90000331D0005235D000980000371131     GGSL
TXBWIC20020-32247-74150-70002604D0010472D0013800013274150    GGSL
TXBWIC20020-32247-74250-40002232D0013993D0011700011274250    GGSL
TXBWIC20020-32247-74395-20000150D0001062D000000000043959430  GGSL
TXBWIC20020-32247-74850-60000616D0009002D0018300011274850    GGSL
TXBWIC20020-32247-75902-10000104D0006865D000480000175902     GGSL
TXBWIC20020-32247-76121-50001005D0028743D001280000476121     GGSL
TXBWIC20020-32247-76232-80000300D0015012D000170000376232     GGSL
TXBWIC20020-32247-76565-70000057D0002606D000080000276565     GGSL
TXBWIC20020-32247-77160-30002916D0010999D0008500015277160    GGSL
TXBWIC20020-32247-77260-00002976D0019376D0012700012277260    GGSL
TXBWIC20020-32247-77860-20000114D0001396D0002700000277860    GGSL
TXBWIC20020-32247-77960-90001028D0016600D0017000017277960    GGSL
TXBWIC20020-32247-84526-70000840D0002704D000000000088452600  GGSL
TXBWIC20020-32247-84594-60000130D0000446D000000000088459410  GGSL
TXBWIC20020-32247-85526-60001020D0002939D000020000088552600  GGSL
TXBWIC20020-32247-85594-50001365D0004682D000000000088559410  GGSL
TXBWIC20020-32247-86526-50000900D0002554D000040000088652600  GGSL
TXBWIC20020-32247-86594-40000975D0003344D000000000088659410  GGSL
TXBWIC20020-32247-95517-10000680D0002352D004430006079551750  GGSL
TXBWIC20020-32247-95597-30000384D0001585D000000000079559750  GGSL
TXBWIC20020-32247-99605-10000270D0004650D000000000099605B    GGSL
TXBWIC20020-32584-94501-90000002D0000010D00000000005590001   GGSL
TXBWIC20020-32584-94506-40000024D0000122D00000000005594506   GGSL
TXBWIC20020-32584-94507-10000013D0000058D00000000005594507   GGSL
TXBWIC20020-32584-94509-50000006D0000029D00000000005594509   GGSL
TXBWIC20020-32584-94515-60000001D0000006D00000000005594515   GGSL
TXBWIC20020-32903-00169-30000168D0000180D0000900004SLI06000E3GGSL
TXBWIC20020-32903-00301-70000005D0000060D0000000000ROP28000A3GGSL
TXBWIC20020-32903-00309-30000252D0000480D0004400001SLI10000E3GGSL
TXBWIC20020-32903-00313-00000012D0000085D0000000000GAB18000E2GGSL
TXBWIC20020-32903-00341-30000120D0000820D0000500000SLI24000E3GGSL
TXBWIC20020-32903-00359-80000240D0000327D0001100000SLI08000E3GGSL
TXBWIC20020-32903-07519-90000012D0000126D0000000000LIA16000E2GGSL
TXBWIC20020-32903-07534-20000006D0000085D0000000000LIA20000E2GGSL
TXBWIC20020-32903-07558-80000006D0000017D0000000000RZ.WC1Q0B9GGSL
TXBWIC20020-32903-12006-60000288D0000478D0001500002LIA06000E3GGSL
TXBWIC20020-32903-12008-00000264D0000668D0002300000LIA08000E3GGSL
TXBWIC20020-32903-12010-30000204D0000756D0006300002LIA10000E3GGSL
TXBWIC20020-32903-12012-70000216D0001244D0003800000LIA12000E3GGSL
TXBWIC20020-32903-12014-10000132D0000966D0001300000LIA14000E3GGSL
TXBWIC20020-32903-12017-20000132D0001483D0002800000LIA16000E3GGSL
TXBWIC20020-32903-12020-20000090D0001340D0001600000LIA20000E3GGSL
TXBWIC20020-32903-12024-00000018D0000339D0000000000LIA24000E3GGSL
TXBWIC20020-32903-12115-50000012D0000168D0000000000ROS15500E3GGSL
TXBWIC20020-32903-12312-80000012D0000052D0000200000CNA12000E3GGSL
TXBWIC20020-32903-12318-00000024D0000071D0001600001SVN18000E3GGSL
TXBWIC20020-32903-12324-10000018D0000073D0001100000SVN24000E3GGSL
TXBWIC20020-32903-12330-20000006D0000027D0000100000SVN30000E3GGSL
TXBWIC20020-32903-12714-00000060D0000320D0003200000GAB14000E3GGSL
TXBWIC20020-32903-12718-80000030D0000243D0002600000GAB18000E3GGSL
TXBWIC20020-32903-12722-50000156D0001618D0001700000GAB22000E3GGSL
TXBWIC20020-32903-12818-50000018D0000169D0002600008VNP18000E3GGSL
TXBWIC20020-32903-12824-60000066D0000430D0000700004VNP24000E3GGSL
TXBWIC20020-32903-12830-70000006D0000050D0000000000VNP30000E3GGSL
TXBWIC20020-32903-23751-10000012D0000168D0000000000ROS15500E2GGSL
TXBWIC20020-32903-35079-10000003D0000132D0000000000TES20000G2GGSL
TXBWIC20020-32903-41717-30000012D0000082D0000000001lia140000bGGSL
TXBWIC20020-32903-50763-80000180D0000586D0002600005SLI12000E3GGSL
TXBWIC20020-32903-50766-90000004D0000125D0000000000TEA24000G2GGSL
TXBWIC20020-32903-50802-40000072D0000252D0003500005SLI14000E3GGSL
TXBWIC20020-32903-55269-00000008D0000498D0000000000TEA30000E3GGSL
TXBWIC20020-32903-59134-70000002D0000130D0000000000TES24000E3GGSL
TXBWIC20020-32903-66002-90000005D0000060D0000000000ROP28000E3GGSL
TXBWIC20020-32903-72518-60000008D0000060D0000900000RZ.WC2G0B9GGSL
TXBWIC20020-32903-75049-20000066D0000379D0000800002SLI20000E3GGSL
TXBWIC20020-32903-75080-50000048D0000183D0001500008SLI17000E3GGSL
TXBWIC20020-32903-91322-40000004D0000249D0000000000TEA30000G1GGSL
TXBWIC20020-32903-91485-60000015D0000166D0000000000SPX24DB0A3GGSL
TXBWIC20020-32903-91585-30000012D0000319D0000000000PZA20000Y3GGSL
TXBWIC20020-32903-91605-80000010D0000054D0000000000IFA12000G1GGSL
TXBWIC20020-33349-00000-00102612D0006104D001010000970000362  GGSL
TXBWIC20020-33607-00001-50000088D0002133D0000900004GBA-1     GGSL
TXBWIC20020-33745-97185-40000085D0002077D005090001197185     GGSL
TXBWIC20020-34141-00011-70000044D0000345D0034300044YCBSM3CF-PGGSL
TXBWIC20020-34141-00012-40000442D0003220D0111700044YCBSI3CF-PGGSL
TXBWIC20020-34411-74251-80000012D0000150D0000400001874251-100GGSL
TXBWIC20020-34411-74501-40000012D0000253D0000300000874501-100GGSL
TXBWIC20020-34411-74751-30000016D0000476D0000800000874751-100GGSL
TXBWIC20020-34417-00000-00001820D0003124D000240000250055077  GGSL
TXBWIC20020-34417-53000-30004505D0016461D023220017952050327  GGSL
TXBWIC20020-34613-00002-70001749D0012663D0079400441LH002     GGSL
TXBWIC20020-34613-00003-40000592D0004449D0018000112LH003     GGSL
TXBWIC20020-34613-00004-10001217D0008525D0078700386LH004     GGSL
TXBWIC20020-34613-00005-80000003D0000042D0006600000LH005     GGSL
TXBWIC20020-34613-00006-50001408D0010234D0012500164LH006     GGSL
TXBWIC20020-34613-00011-90000012D0000075D0000000000lh011     GGSL
TXBWIC20020-34613-00012-60000012D0000075D0000000000LH012     GGSL
TXBWIC20020-34613-00013-30000012D0000075D0000000000LH013     GGSL
TXBWIC20020-34613-00014-00000024D0000150D0000000000LH014     GGSL
TXBWIC20020-34613-00022-50000028D0000325D0004900000LH022     GGSL
TXBWIC20020-34613-00029-40000008D0000097D00070000008205      GGSL
TXBWIC20020-34613-00451-30000036D0000054D0000100000451       GGSL
TXBWIC20020-34613-00555-80000012D0000018D0000000001555BL     GGSL
TXBWIC20020-34613-01182-50000024D0000036D00000000001182      GGSL
TXBWIC20020-34613-01501-10000024D0000002D00000000001501      GGSL
TXBWIC20020-34613-01502-80000036D0000004D00000000001502      GGSL
TXBWIC20020-34613-01503-50000048D0000006D00000000001503      GGSL
TXBWIC20020-34613-01505-90000024D0000000D00000000001505      GGSL
TXBWIC20020-34613-01904-30000012D0000048D00000000001904      GGSL
TXBWIC20020-34613-01906-70000012D0000129D00000000001906      GGSL
TXBWIC20020-34613-03398-80000018D0000101D00000000003398      GGSL
TXBWIC20020-34613-04850-00001950D0006837D00000001353104BL    GGSL
TXBWIC20020-34613-04864-70000006D0000048D0000000000LH016BL   GGSL
TXBWIC20020-34613-04870-80000696D0003306D0000000084LH015BL   GGSL
TXBWIC20020-34613-04883-80000012D0000129D00000000004883BL    GGSL
TXBWIC20020-34613-05017-60000024D0000149D00000000005017BLD   GGSL
TXBWIC20020-34613-07757-90000708D0002713D00000000097757BL    GGSL
TXBWIC20020-34613-07758-60001164D0004464D00000000137758BL    GGSL
TXBWIC20020-34613-07759-30001140D0004376D00000000147759BL    GGSL
TXBWIC20020-34613-07835-40000006D0000024D00000002502110BL    GGSL
TXBWIC20020-34613-12812-70000084D0001148D0000200025SMG12812  GGSL
TXBWIC20020-34613-34009-30000001D0000008D00018000002130      GGSL
TXBWIC20020-34613-70052-10000366D0004025D000110001870052     GGSL
TXBWIC20020-34613-70734-60000012D0000067D000000000070734BL   GGSL
TXBWIC20020-34613-70736-00000012D0000027D000010000070736BL   GGSL
TXBWIC20020-34613-70791-90000260D0003736D000000018970285BL   GGSL
TXBWIC20020-34613-71087-20001434D0005897D000000012771087BL   GGSL
TXBWIC20020-34613-71660-70000048D0000210D000000000071660QPD  GGSL
TXBWIC20020-35307-00781-00000048D0000368D0000000000781       GGSL
TXBWIC20020-35307-00782-70000036D0000276D0000000000782       GGSL
TXBWIC20020-35307-00817-60000012D0000023D0000000000817       GGSL
TXBWIC20020-35307-00818-30000036D0000055D0000000000818       GGSL
TXBWIC20020-35307-00820-60000060D0000081D0000400026820       GGSL
TXBWIC20020-35307-00826-80000012D0000019D0000200025826       GGSL
TXBWIC20020-35307-00828-20000012D0000024D0001600000828       GGSL
TXBWIC20020-35307-00835-00000024D0000118D0000100001835       GGSL
TXBWIC20020-35307-00840-40000012D0000025D0000000000840       GGSL
TXBWIC20020-35307-00844-20000012D0000024D0000700001844       GGSL
TXBWIC20020-35307-00861-90000072D0000151D0000200017861       GGSL
TXBWIC20020-35307-00869-50000012D0000102D0000100000869       GGSL
TXBWIC20020-35307-00874-90000072D0000100D0003100001874       GGSL
TXBWIC20020-35307-00895-40000003D0001350D0000000000895       GGSL
TXBWIC20020-35307-00973-90000012D0000065D0000000000973       GGSL
TXBWIC20020-35307-01601-00000090D0001051D00041000011601      GGSL
TXBWIC20020-35307-01609-60000144D0000532D00021000341609CS    GGSL
TXBWIC20020-35307-01618-80000012D0000072D00007000011618      GGSL
TXBWIC20020-35307-01635-50000008D0000121D00005000001635      GGSL
TXBWIC20020-35307-01640-90000030D0000165D00000000001640      GGSL
TXBWIC20020-35307-01646-10000006D0000050D00000000001646      GGSL
TXBWIC20020-35307-01810-60000137D0000577D00600000411810      GGSL
TXBWIC20020-35307-01815-10000093D0000552D00261000401815      GGSL
TXBWIC20020-35307-01817-50000012D0000044D00000000001817-6    GGSL
TXBWIC20020-35307-01820-50000054D0000592D00008000041820      GGSL
TXBWIC20020-35307-01825-00000024D0000201D00011000331825      GGSL
TXBWIC20020-35307-01835-90000006D0000159D00007000001835      GGSL
TXBWIC20020-35307-01840-30000030D0000437D00029000001840      GGSL
TXBWIC20020-35307-01845-80000012D0000131D00000000001845      GGSL
TXBWIC20020-35307-90856-80000012D0000024D0000000000856       GGSL
TXBWIC20020-35307-90858-20000024D0000130D0000100000858       GGSL
TXBWIC20020-35355-00000-00000048D0007056D00000000094960BLD   GGSL
TXBWIC20020-35355-00072-60000012D0000128D0000000007TP72      GGSL
TXBWIC20020-35355-00337-60000012D0000018D0000000000337       GGSL
TXBWIC20020-35355-00802-90000040D0000030D0003100051SS2       GGSL
TXBWIC20020-35355-00804-30000040D0000045D0011000026SS4       GGSL
TXBWIC20020-35355-00806-70000035C0000045C0006800022SS6       GGSL
TXBWIC20020-35355-00924-80000859D0006304D0043500110924       GGSL
TXBWIC20020-35355-01160-90000017D0000029D00001000941160      GGSL
TXBWIC20020-35355-01905-60000024D0000096D00000000001905      GGSL
TXBWIC20020-35355-03105-80002916D0013335D00047000773105      GGSL
TXBWIC20020-35355-03108-90000012D0000034D00000000033108      GGSL
TXBWIC20020-35355-05945-80001662D0021930D00011000565945      GGSL
TXBWIC20020-35355-06582-40000004D0000061D00000000006582      GGSL
TXBWIC20020-35355-08401-60000006D0000066D00000000008401      GGSL
TXBWIC20020-35355-20608- 0000012D0000048D00000000002060N     GGSL
TXBWIC20020-35355-25011-80000006D0000030D0001500004MDSLH     GGSL
TXBWIC20020-35355-70201-90000640D0006620D000000000470201HP   GGSL
TXBWIC20020-35355-94006-00000012D0000072D000000002194006     GGSL
TXBWIC20020-35355-96006-80000018D0000155D000010001996006     GGSL
TXBWIC20020-35356-00000-00001000D0000287D0000000000N408      GGSL
TXBWIC20020-36348-00610-70000132D0000584D0003600003610       GGSL
TXBWIC20020-36348-00645-90000071D0000815D0013400004645       GGSL
TXBWIC20020-36348-01077-70000010D0000245D00000000001077      GGSL
TXBWIC20020-36348-01078-40000002D0000080D00000000011078      GGSL
TXBWIC20020-36348-01079-10000019D0000905D00077000001079      GGSL
TXBWIC20020-36348-01084-50000054D0001534D00012000861084      GGSL
TXBWIC20020-36348-01085-20000004D0000220D00004000001085      GGSL
TXBWIC20020-36348-13769-60000012D0000026D0000000000M137      GGSL
TXBWIC20020-36348-21079-50000320D0002861D00003000001079T     GGSL
TXBWIC20020-36348-56006-70000072D0000827D0002100002DO5600-6  GGSL
TXBWIC20020-36434-00000-00000339D0046009D001720003610-12420  GGSL
TXBWIC20020-36434-10000-00000096D0001226D00005000221013620   GGSL
TXBWIC20020-36434-10000-90000012D0000269D00000000001010000   GGSL
TXBWIC20020-36434-10012-20000012D0000167D000270000010-10012  GGSL
TXBWIC20020-36434-11000-80000221D0002204D004290003260-11000  GGSL
TXBWIC20020-36434-12340-40000054D0000109D00000000016012340   GGSL
TXBWIC20020-36434-12342-80000032D0000211D001710000460-12342  GGSL
TXBWIC20020-36434-12343-50000221D0001852D000680000060-12343  GGSL
TXBWIC20020-36434-12345-90000024D0000264D000110000010-12345  GGSL
TXBWIC20020-36434-12346-60000341D0001544D006210008160-12346  GGSL
TXBWIC20020-36434-12348-00000008D0000076D000050000010-12348  GGSL
TXBWIC20020-36434-12349-70000029D0000120D000990000960-12349  GGSL
TXBWIC20020-36434-12353-40000948D0012902D004380002260-12353  GGSL
TXBWIC20020-36434-12354-10000035D0000226D000990000010-12354  GGSL
TXBWIC20020-36434-12355-80000085D0000599D003020000910-12355  GGSL
TXBWIC20020-36434-12356-50000142D0001134D002560001610-12356  GGSL
TXBWIC20020-36434-12357-20000060D0000506D001520001610-12357  GGSL
TXBWIC20020-36434-12358-90000001D0000071D00000000001012358   GGSL
TXBWIC20020-36434-12362-60000010D0000073D000000000010-12362  GGSL
TXBWIC20020-36434-12380-00000090D0000887D000000000060-12380  GGSL
TXBWIC20020-36434-12440-30000012D0000113D00000000006012440   GGSL
TXBWIC20020-36434-12450-20000012D0000173D00000000006012450   GGSL
TXBWIC20020-36434-12625-20000012D0000071D000000000060-12625  GGSL
TXBWIC20020-36434-12700-60000096D0000687D000170002410-12700  GGSL
TXBWIC20020-36434-12703-70000036D0000267D000000001360-12703  GGSL
TXBWIC20020-36434-12704-40000036D0000267D000000001060-12704  GGSL
TXBWIC20020-36434-12710-50000048D0000322D000020000110-12710  GGSL
TXBWIC20020-36434-12720-40000024D0000144D000200000110-12720  GGSL
TXBWIC20020-36434-12723-50000012D0000070D000110000060-12723  GGSL
TXBWIC20020-36434-12725-90000024D0000076D000080000060-12725  GGSL
TXBWIC20020-36434-12726-60000006D0000035D000040000060-12726  GGSL
TXBWIC20020-36434-12812-60000036D0000534D000000000110-12812  GGSL
TXBWIC20020-36434-12860-70000024D0000287D000000000010-12860  GGSL
TXBWIC20020-36434-13600-50000012D0000216D000000001910-13600  GGSL
TXBWIC20020-36434-13610-20000024D0000338D000010002210-13610  GGSL
TXBWIC20020-36434-14500-70000120D0000704D000000000010-14500  GGSL
TXBWIC20020-36434-14800-80000192D0003077D001230000210-14800  GGSL
TXBWIC20020-36434-14801-80000006D0000105D000000000060-14801  GGSL
TXBWIC20020-36434-14803-20000006D0000102D000000000060-14803  GGSL
TXBWIC20020-36434-14806-30000012D0000072D000020000060-14806  GGSL
TXBWIC20020-36434-14860-20000276D0003386D000260000110-14860  GGSL
TXBWIC20020-36434-15050-90000060D0000907D000150000010-15050  GGSL
TXBWIC20020-36434-15080-30000006D0000117D000030000010-15080  GGSL
TXBWIC20020-36434-17000-20000252D0009514D00000000001017000   GGSL
TXBWIC20020-36434-17002-30000006D0000263D000000000010-17002  GGSL
TXBWIC20020-36434-17051-40000001D0000076D000000000010 17051  GGSL
TXBWIC20020-36434-17061-30000001D0000060D00000000011017061   GGSL
TXBWIC20020-36434-18037-70000004D0000389D00001000011028037   GGSL
TXBWIC20020-36434-22310-40000060D0000315D00000000006022310   GGSL
TXBWIC20020-36434-22311-10000006D0000031D00000000006022311   GGSL
TXBWIC20020-36434-22316-60000001D0000042D00000000006022316   GGSL
TXBWIC20020-36434-22317-30000001D0000042D00000000006022317   GGSL
TXBWIC20020-36434-22318-00000243D0001027D004800000360-22318  GGSL
TXBWIC20020-36434-22341-80000024D0000246D000100000010-22341  GGSL
TXBWIC20020-36434-22358-60000006D0000070D000000000010-22358  GGSL
TXBWIC20020-36434-22626-60000064D0000773D002090000260-22626  GGSL
TXBWIC20020-36434-22729-40000048D0000609D000000000060-22729  GGSL
TXBWIC20020-36434-22731-70000059D0000561D001220000260-22731  GGSL
TXBWIC20020-36434-22732-40000254D0003113D002250000060-22732  GGSL
TXBWIC20020-36434-24011-80000001D0000096D000000000010 24011  GGSL
TXBWIC20020-36434-24505-20000006D0000061D000040000060-24505  GGSL
TXBWIC20020-36434-24506-90000006D0000021D000060000060-24506  GGSL
TXBWIC20020-36434-28010-70000348D0002519D000290002310-28010  GGSL
TXBWIC20020-36434-28020-60000144D0000999D000770000210-28020  GGSL
TXBWIC20020-36434-32700-00000157D0001227D000570025410-32700  GGSL
TXBWIC20020-36434-34500-10000084D0000776D000160004010-34500  GGSL
TXBWIC20020-36434-60123-00000019D0024843D000000000260123     GGSL
TXBWIC20020-36434-60130-80000001D0001567D000000000060130     GGSL
TXBWIC20020-36434-62020-00000004D0000640D000000000062020     GGSL
TXBWIC20020-36434-65095-50000720D0013405D000000000165095     GGSL
TXBWIC20020-36434-82342-70000047D0000583D001770000260-82342  GGSL
TXBWIC20020-36865-12250-20000154D0016595D000570000171140180  GGSL
TXBWIC20020-36865-12292-20000480D0001161D000020001486752180  GGSL
TXBWIC20020-36865-14511-20003375D0005089D000150000371451180  GGSL
TXBWIC20020-36865-24511-90001500D0004270D000260000072451180  GGSL
TXBWIC20020-36865-45220-30000060D0000150D000000000088452205  GGSL
TXBWIC20020-36865-52965-30000360D0000806D000000000087852965  GGSL
TXBWIC20020-36865-65220-70000900C0005129D000000000088652205  GGSL
TXBWIC20020-36865-71751-70000540D0000965D000000000071751180  GGSL
TXBWIC20020-37321-00000-00000120D0000304D0000300000050       GGSL
TXBWIC20020-37321-00022-80000348D0002049D0001900123022       GGSL
TXBWIC20020-37321-00023-50000004D0000063D0000000000023       GGSL
TXBWIC20020-37321-00024-20000336D0003750D0004900030024       GGSL
TXBWIC20020-37321-00025-90000060D0000442D0000000000025       GGSL
TXBWIC20020-37321-00034-10000048D0000215D0000000000034       GGSL
TXBWIC20020-37321-00036-50000024D0000134D0000000000036       GGSL
TXBWIC20020-37321-00038-90000036D0000021D0000300000038       GGSL
TXBWIC20020-37321-00040-20000036D0000369D0000000000040       GGSL
TXBWIC20020-37321-00042-60000012D0000068D0000100001042       GGSL
TXBWIC20020-37321-00050-10000036D0000029D0000000000049       GGSL
TXBWIC20020-37321-00053-20000012D0000027D0000000000053       GGSL
TXBWIC20020-37321-00061-70000036D0000223D0000000003061       GGSL
TXBWIC20020-37321-00065-50000012D0000054D0000000000065       GGSL
TXBWIC20020-37321-00066-20000012D0000123D0000000000066       GGSL
TXBWIC20020-37321-00067-90000006D0000055D0000900000067       GGSL
TXBWIC20020-37321-00068-60000048D0000217D0004400031068       GGSL
TXBWIC20020-37321-00069-30000360D0004088D0005100024069       GGSL
TXBWIC20020-37321-00070-90000011D0001638D0001400044070       GGSL
TXBWIC20020-37321-00099-00000060D0000378D0000000001099       GGSL
TXBWIC20020-37321-00105-80000156D0000413D0000300033105       GGSL
TXBWIC20020-37321-00106-50000192D0000779D0003200023106       GGSL
TXBWIC20020-37321-00107-20000152D0000591D0003000030107       GGSL
TXBWIC20020-37321-00108-90000216D0000827D0000700026108       GGSL
TXBWIC20020-37321-00110-20000008D0000023D0000100010110       GGSL
TXBWIC20020-37321-00112-60000016D0000042D0000000000112       GGSL
TXBWIC20020-37321-00120-10000024D0000114D0000200000120       GGSL
TXBWIC20020-37321-00121-80000008D0000079D0000300010121       GGSL
TXBWIC20020-37321-00123-20000348D0001204D0005000001123       GGSL
TXBWIC20020-37321-00127-00000060D0000429D0001600016127       GGSL
TXBWIC20020-37321-00141-60000048D0000205D0000000007141       GGSL
TXBWIC20020-37321-00142-30000036D0000300D0000000000142       GGSL
TXBWIC20020-37321-00150-80000096D0001456D0003900187150       GGSL
TXBWIC20020-37321-00160-70000012D0000036D0000000000160       GGSL
TXBWIC20020-37321-00161-40000012D0000057D0000000000161       GGSL
TXBWIC20020-37321-00165-20000004D0000043D0000000000165       GGSL
TXBWIC20020-37321-00166-90000048D0000252D0000300006166       GGSL
TXBWIC20020-37321-00167-60000048D0000266D0000000000167       GGSL
TXBWIC20020-37321-00171-30000060D0000498D0000000003171       GGSL
TXBWIC20020-37321-00201-70000024D0000140D0001100000201       GGSL
TXBWIC20020-37321-00202-40000540D0005255D0009300011202       GGSL
TXBWIC20020-37321-00203-10000252D0003323D0004600006203       GGSL
TXBWIC20020-37321-00210-90000180D0000961D0005000002210       GGSL
TXBWIC20020-37321-00211-60000180D0001358D0003900002211       GGSL
TXBWIC20020-37321-00213-00000192D0001776D0003100020213       GGSL
TXBWIC20020-37321-00214-70000396D0001925D0004000016214       GGSL
TXBWIC20020-37321-00216-10000024D0000340D0000000000216       GGSL
TXBWIC20020-37321-00217-80000012D0000107D0000000000217       GGSL
TXBWIC20020-37321-00221-50000024D0000115D0000000006221       GGSL
TXBWIC20020-37321-00227-70000024D0000254D0000000000227       GGSL
TXBWIC20020-37321-00230-70000012D0000095D0000000000230       GGSL
TXBWIC20020-37321-00237-60000012D0000143D0000000000237       GGSL
TXBWIC20020-37321-00238-30000060D0000476D0000500020238       GGSL
TXBWIC20020-37321-00239-00000004D0000084D0000000004239       GGSL
TXBWIC20020-37321-00240-60000024D0000359D0000000000240       GGSL
TXBWIC20020-37321-00250-50000300D0001370D0003600057250       GGSL
TXBWIC20020-37321-00252-90000276D0002955D0001200003252       GGSL
TXBWIC20020-37321-00253-60000048D0000839D0000800001253       GGSL
TXBWIC20020-37321-00255-00000216D0003942D0001400021255       GGSL
TXBWIC20020-37321-00257-40000072D0000247D0000500023257       GGSL
TXBWIC20020-37321-00258-10000012D0000067D0000000003258       GGSL
TXBWIC20020-37321-00274-10000348D0002007D0003000025274       GGSL
TXBWIC20020-37321-00276-50000024D0000304D0000000000276       GGSL
TXBWIC20020-37321-00277-20000036D0001122D0000000000277       GGSL
TXBWIC20020-37321-00285-70000024D0000120D0000000001285       GGSL
TXBWIC20020-37321-00299-40000012D0000092D0000000000299       GGSL
TXBWIC20020-37321-00301-40000024D0000179D0000000000301       GGSL
TXBWIC20020-37321-00307-60000180D0000698D0001000045307       GGSL
TXBWIC20020-37321-00309-00000120D0001736D0003100024309       GGSL
TXBWIC20020-37321-00310-60000006D0000161D0000000005310       GGSL
TXBWIC20020-37321-00330-40000120D0000994D0003700000330       GGSL
TXBWIC20020-37321-00331-10000216D0002871D0004300001331       GGSL
TXBWIC20020-37321-00370-00000036D0000140D0000000000370       GGSL
TXBWIC20020-37321-00371-70000012D0000062D0000000000371       GGSL
TXBWIC20020-37321-00372-40000004D0000034D0000000000372       GGSL
TXBWIC20020-37321-00404-20000384D0002764D0002100002404       GGSL
TXBWIC20020-37321-00411-00000036D0000110D0000300000411       GGSL
TXBWIC20020-37321-00412-70000012D0000057D0000300000412       GGSL
TXBWIC20020-37321-00413-40000028D0000307D0000900040413       GGSL
TXBWIC20020-37321-00420-20000008D0000420D0011100054420       GGSL
TXBWIC20020-37321-00426-40000072D0000654D0004400019426       GGSL
TXBWIC20020-37321-00428-80000168D0000604D0002700046428       GGSL
TXBWIC20020-37321-00442-40000264D0001547D0007400004442       GGSL
TXBWIC20020-37321-00443-10000024D0000262D0001800004443       GGSL
TXBWIC20020-37321-00506-30000156D0000612D0002000019506       GGSL
TXBWIC20020-37321-00530-80000020D0000176D0000000000530       GGSL
TXBWIC20020-37321-00543-80000084D0000251D0002500001543       GGSL
TXBWIC20020-37321-00544-50000072D0000384D0000600000544       GGSL
TXBWIC20020-37321-00552-00000012D0000187D0002000000552       GGSL
TXBWIC20020-37321-00553-70000030D0000816D0004500011553       GGSL
TXBWIC20020-37321-00564-30000012D0000109D0000000025564       GGSL
TXBWIC20020-37321-00568-10000012D0000247D0000000000568       GGSL
TXBWIC20020-37321-00573-50000120D0000489D0003600003573       GGSL
TXBWIC20020-37321-00577-30000012D0000048D0000000000577       GGSL
TXBWIC20020-37321-00578-00000004D0000039D0000000000578       GGSL
TXBWIC20020-37321-00603-90000008D0000100D0000000040603       GGSL
TXBWIC20020-37321-00609-10000060D0000560D0000500000609       GGSL
TXBWIC20020-37321-00611-40000016D0000423D0001400000611       GGSL
TXBWIC20020-37321-00612-10000048D0000214D00001000000612      GGSL
TXBWIC20020-37321-00631-20008864D0021766D0114200073631       GGSL
TXBWIC20020-37321-00651-00000012D0000136D00000000000651      GGSL
TXBWIC20020-37321-00652-70000012D0000054D0000000000652       GGSL
TXBWIC20020-37321-00655-80000054D0000308D00040000546556      GGSL
TXBWIC20020-37321-00680-00000840D0005013D0014200024680       GGSL
TXBWIC20020-37321-00683-10000348D0002546D0003900010683       GGSL
TXBWIC20020-37321-00684-80000912D0007363D0009600009685       GGSL
TXBWIC20020-37321-00687-90000060D0000667D0000000000687       GGSL
TXBWIC20020-37321-00688-60000012D0000068D0000000000688       GGSL
TXBWIC20020-37321-00690-90000108D0001061D0000900001690       GGSL
TXBWIC20020-37321-00691-60000081D0000600D0002200003691       GGSL
TXBWIC20020-37321-00692-30001045D0009476D0140800052629       GGSL
TXBWIC20020-37321-00697-80000012D0000037D0000000000697       GGSL
TXBWIC20020-37321-00698-50000120D0000674D0000000006698       GGSL
TXBWIC20020-37321-00728-90000072D0000851D0000100000728       GGSL
TXBWIC20020-37321-00771-50000048D0000232D0000300000771       GGSL
TXBWIC20020-37321-00775-30000264D0001454D0005000007775       GGSL
TXBWIC20020-37321-00777-70000036D0000325D0000500000777       GGSL
TXBWIC20020-37321-00779-10000048D0000348D0000500014779       GGSL
TXBWIC20020-37321-00784-50000096D0000258D0002200000784       GGSL
TXBWIC20020-37321-00786-90001464D0004396D0012400205786       GGSL
TXBWIC20020-37321-00788-30000012D0000067D0000000000788       GGSL
TXBWIC20020-37321-00789-00001185D0006868D0148100667791       GGSL
TXBWIC20020-37321-00802-60000012D0000060D0000100001802       GGSL
TXBWIC20020-37321-00803-30000036D0000303D0000000005803       GGSL
TXBWIC20020-37321-00806-40000048D0000333D0000000001806       GGSL
TXBWIC20020-37321-00807-10000004D0000087D0000100000807       GGSL
TXBWIC20020-37321-00811-80000432D0004626D0009000007811       GGSL
TXBWIC20020-37321-00813-20000072D0000942D0005700061813       GGSL
TXBWIC20020-37321-00814-90000006D0000130D0000000002814       GGSL
TXBWIC20020-37321-00857-60000108D0000861D0003700000857       GGSL
TXBWIC20020-37321-00858-30000024D0000297D0000000002858       GGSL
TXBWIC20020-37321-00861-30000024D0000188D0000000003861       GGSL
TXBWIC20020-37321-00862-00000204D0002460D0004800011862       GGSL
TXBWIC20020-37321-00863-70000114C0002460C0000800000863       GGSL
TXBWIC20020-37321-00865-10000036D0000184D000000000086536     GGSL
TXBWIC20020-37321-00866-80000030D0000210D0000100001865       GGSL
TXBWIC20020-37321-00870-50000108D0000611D0000700005870       GGSL
TXBWIC20020-37321-00875-00001764D0012241D0010800015875       GGSL
TXBWIC20020-37321-00880-40000108D0001227D0003000030880       GGSL
TXBWIC20020-37321-00883-50000084D0000405D0003800079883       GGSL
TXBWIC20020-37321-00892-70000156D0001375D0000000068892       GGSL
TXBWIC20020-37321-00893-40000048D0000244D0000000000893       GGSL
TXBWIC20020-37321-00894-10000048D0000354D0000000000894       GGSL
TXBWIC20020-37321-00897-20000012D0000068D0002700000897       GGSL
TXBWIC20020-37321-00903-00000036D0000194D0000000000903       GGSL
TXBWIC20020-37321-00905-40000012D0000139D0000300000905       GGSL
TXBWIC20020-37321-00925-20000660D0001871D0010600037925       GGSL
TXBWIC20020-37321-00939-90000084D0000866D0002000028939       GGSL
TXBWIC20020-37321-00941-20000612D0005821D0007000016941       GGSL
TXBWIC20020-37321-00951-10000228D0000850D0002800025951       GGSL
TXBWIC20020-37321-00952-80000048D0000249D0001000002952       GGSL
TXBWIC20020-37321-00955-90000004D0000138D0000300001955       GGSL
TXBWIC20020-37321-00963-40000036D0000292D0002000000963       GGSL
TXBWIC20020-37321-00983-20000009D0000161D0000000000983       GGSL
TXBWIC20020-37321-00986-30000048D0000259D0000000000986       GGSL
TXBWIC20020-37321-00987-00000156D0001392D0000700000987       GGSL
TXBWIC20020-37321-00992-40000012D0000099D0000000003992       GGSL
TXBWIC20020-37321-02011-00000036D0000300D00000000002011      GGSL
TXBWIC20020-37321-02021-90000006D0000080D00000000002021      GGSL
TXBWIC20020-37321-02360-90000036D0000227D00018000002360      GGSL
TXBWIC20020-37321-02361-60000300D0003270D00044000362361      GGSL
TXBWIC20020-37321-02761-40000024D0000428D00001000002761      GGSL
TXBWIC20020-37321-05121-30000024D0000127D00000000005121      GGSL
TXBWIC20020-37321-05131-20000008D0000102D00000000005131      GGSL
TXBWIC20020-37321-05611-90000036D0000181D0005600036560       GGSL
TXBWIC20020-37321-05612-60000012D0000118D00038000115612      GGSL
TXBWIC20020-37321-05710-90000048D0000267D00008000005710      GGSL
TXBWIC20020-37321-05714-70000012D0000336D00020000005714      GGSL
TXBWIC20020-37321-07460-10000012D0000071D00000000007460      GGSL
TXBWIC20020-37321-07461-80000012D0000119D00000000007461      GGSL
TXBWIC20020-37321-07464-90000006D0000076D00005000017464      GGSL
TXBWIC20020-37321-07492-20000024D0000388D00020000317492      GGSL
TXBWIC20020-37321-07497-70000012D0000047D00009000007497      GGSL
TXBWIC20020-37321-07498-40000004D0000040D00014000007498      GGSL
TXBWIC20020-37321-07504-20000036D0000855D00001000027504      GGSL
TXBWIC20020-37321-07505-90000012D0000930D00000000007505      GGSL
TXBWIC20020-37321-08636-90000006D0000067D00004000008636      GGSL
TXBWIC20020-37321-08751-90000048D0000229D00000000008751      GGSL
TXBWIC20020-37321-08752-60000456D0001996D00036000028752      GGSL
TXBWIC20020-37321-09534-70000180D0001831D00055000139534      GGSL
TXBWIC20020-37321-20434-00000001D0000721D000000000020434     GGSL
TXBWIC20020-37321-20478-40000001D0000100D000000000020479     GGSL
TXBWIC20020-37321-20558-30000001D0000515D000000000020558     GGSL
TXBWIC20020-37321-25100-20001038D0004857D0003800187CAL100    GGSL
TXBWIC20020-37321-45502-80000012D0000058D000000000045502     GGSL
TXBWIC20020-37321-45504-20000012D0000126D000000000045504     GGSL
TXBWIC20020-37321-46125-80000020D0000037D000000009046125     GGSL
TXBWIC20020-37321-46126-50000800D0000116D000410000046126     GGSL
TXBWIC20020-37321-46172-20000024D0000099D000070000046172     GGSL
TXBWIC20020-37321-46175-30000006D0000131D000000000146175     GGSL
TXBWIC20020-37321-46191-30000048D0000223D000180000046191     GGSL
TXBWIC20020-37321-46400-60000012D0000037D000000000046400     GGSL
TXBWIC20020-37321-47062-50000048D0000037D000000000147062     GGSL
TXBWIC20020-37321-48113-30000048D0000424D00009000005712      GGSL
TXBWIC20020-37321-56123-10000030D0000273D0000000000561230    GGSL
TXBWIC20020-37321-60114-90000005D0000092D000000000060215     GGSL
TXBWIC20020-37321-60211-80000010D0000111D000000000060212     GGSL
TXBWIC20020-37321-60221-70000010D0000086D000000000060222     GGSL
TXBWIC20020-37321-60224-80000278D0003291D001050000060225     GGSL
TXBWIC20020-37321-60251-40000135D0001204D000550000360252     GGSL
TXBWIC20020-37321-60254-50000005D0000083D000000000060255     GGSL
TXBWIC20020-37321-60315-30000010D0000097D000520001060315     GGSL
TXBWIC20020-37321-60360-30000398D0004350D001160000660362     GGSL
TXBWIC20020-37321-60365-80000025D0000683D000220000060365     GGSL
TXBWIC20020-37321-60400-60000420D0005091D003940050060402     GGSL
TXBWIC20020-37321-60407-50000264D0002158D000000001160407     GGSL
TXBWIC20020-37321-60414-30000132D0004125D000000000060414     GGSL
TXBWIC20020-37321-60420-40000147D0001781D001000004060420     GGSL
TXBWIC20020-37321-60424-20000166D0005315D000720000060424     GGSL
TXBWIC20020-37321-60430-30000101D0001020D001590000060432     GGSL
TXBWIC20020-37321-60434-10000030D0000795D000360000060434     GGSL
TXBWIC20020-37321-60440-20000065D0000667D000550000060442     GGSL
TXBWIC20020-37321-60444-00000065D0001626D000150000060444     GGSL
TXBWIC20020-37321-60460-00000100D0001003D000000004060460     GGSL
TXBWIC20020-37321-60464-80000035D0000904D000000000060464     GGSL
TXBWIC20020-37321-60476-10006074D0066028D022930328060478     GGSL
TXBWIC20020-37321-60490-70000018D0000294D000000000060490     GGSL
TXBWIC20020-37321-60514-00000475D0005648D009040158760515     GGSL
TXBWIC20020-37321-60613-00000040D0000349D000010000060613     GGSL
TXBWIC20020-37321-60728-10000010D0000122D000760000060730     GGSL
TXBWIC20020-38313-00000-00000001D0000000D0000100000MR 9161   GGSL
TXBWIC20020-38313-00005-90000002D0000048D0004700000GS 6750D  GGSL
TXBWIC20020-38313-00008-00000077D0001293D0011300012BP 3130   GGSL
TXBWIC20020-38313-00060-80000296D0005206D0025800224BP 3160   GGSL
TXBWIC20020-38313-00080-60000313D0006180D0040500146BP 3180D  GGSL
TXBWIC20020-38313-00081-30000138D0001216D0000000000AC 7220   GGSL
TXBWIC20020-38313-00217-60000012D0000217D0001900002FS 4350   GGSL
TXBWIC20020-38313-00830-70000019D0000567D0005900008BP 6250   GGSL
TXBWIC20020-38313-01010-20000222D0001098D0016000004CT 3010I  GGSL
TXBWIC20020-38313-01020-10000060D0000306D0003800000CT 3020I  GGSL
TXBWIC20020-38313-01030-00000054D0000275D0002600000CT 3030I  GGSL
TXBWIC20020-38313-03060-50000006D0000040D0001700013GT 3060   GGSL
TXBWIC20020-38313-03080-30000006D0000040D0001200013GT 3080   GGSL
TXBWIC20020-38313-03214-20000090D0000849D0000800002BP 3214D  GGSL
TXBWIC20020-38313-03244-90000006D0000100D0000000009HS 3244   GGSL
TXBWIC20020-38313-03264-40000006D0000098D0000000000SL 3264   GGSL
TXBWIC20020-38313-03334-70000096D0001059D0000300002AP 3334   GGSL
TXBWIC20020-38313-03364-40000006D0000136D0000000000SL 3364   GGSL
TXBWIC20020-38313-03470-20000006D0000186D0004300001FL 3470   GGSL
TXBWIC20020-38313-03634-80000006D0000145D0001300000LG 3634   GGSL
TXBWIC20020-38313-03710-90000156D0000736D0000600141CT 3710   GGSL
TXBWIC20020-38313-03720-80000012D0000076D0006600000CT 3720   GGSL
TXBWIC20020-38313-03730-70000048D0000247D0002500031CT 3730   GGSL
TXBWIC20020-38313-03750-50000066D0000324D0000900016CT 3750   GGSL
TXBWIC20020-38313-04110-60000006D0000090D0000500009AL 4110   GGSL
TXBWIC20020-38313-04920-10000024D0000153D0000000000AG 4920   GGSL
TXBWIC20020-38313-04930-00001344D0007871D0115400113AG 4930   GGSL
TXBWIC20020-38313-04930-70000190D0001534D0135300000AG 4930SS GGSL
TXBWIC20020-38313-06100-50000006D0000185D0000100000SH 61000  GGSL
TXBWIC20020-38313-06970-40000050D0002279D0015600000AH 6970   GGSL
TXBWIC20020-38313-07001-00000006D0000275D0000900002FK 70010  GGSL
TXBWIC20020-38313-07140-00000006D0000184D0000100000HS 7140   GGSL
TXBWIC20020-38313-07395-40000006D0000113D0000200001RS 7395   GGSL
TXBWIC20020-38313-07500-20000006D0000093D0000200000RS 7255   GGSL
TXBWIC20020-38313-07545-20000144D0002210D0010300012RS 7245   GGSL
TXBWIC20020-38313-08300-00000012D0000074D0000000000AC 8300   GGSL
TXBWIC20020-38313-10000-10000095D0000904D0014200012SS 10000  GGSL
TXBWIC20020-38313-10227-20000020D0001371D0008800000AL 6512   GGSL
TXBWIC20020-38313-11000-00000042D0000421D0010600013SS 11000  GGSL
TXBWIC20020-38313-12400-70000208D0002438D0046000037RK 24003  GGSL
TXBWIC20020-38313-13214-90000036D0000276D0000000010FS 3214D  GGSL
TXBWIC20020-38313-14300-80000002D0000066D0001500000BM 43001  GGSL
TXBWIC20020-38313-17450-70000004D0000118D0000000000BP 7450   GGSL
TXBWIC20020-38313-20001-50000007D0000167D0001600000PD 20000  GGSL
TXBWIC20020-38313-20002-20000006D0000092D0000400016RK 20002  GGSL
TXBWIC20020-38313-20004-60000019D0000264D0005800084CV 20004  GGSL
TXBWIC20020-38313-20022-00000032D0000567D0014800000RK 20022  GGSL
TXBWIC20020-38313-21000-70000027D0000379D0009500044SH 20000  GGSL
TXBWIC20020-38313-24000-40000039D0000301D0007100012FS 4000   GGSL
TXBWIC20020-38313-26001-90000036D0000447D0000000007SS 26010  GGSL
TXBWIC20020-38313-26020-00000026D0000372D0008200015SS 26020  GGSL
TXBWIC20020-38313-27020-90000003D0000040D0003200000SS 27020  GGSL
TXBWIC20020-38313-28000-00000005D0000086D0002600003SS 28000  GGSL
TXBWIC20020-38313-28010-90000016D0000315D0005500002SS 28010  GGSL
TXBWIC20020-38313-32440-70000072D0000434D0000300022CT 3244   GGSL
TXBWIC20020-38313-32640-10000080D0000400D0000000008CT 3264   GGSL
TXBWIC20020-38313-33140-50000128D0000950D0000000004CT 3314   GGSL
TXBWIC20020-38313-33240-20000136D0000989D0000000003CT 3324   GGSL
TXBWIC20020-38313-33340-90000160D0001204D0000400002CT 3334   GGSL
TXBWIC20020-38313-33440-60000136D0001026D0000500002CT 3344   GGSL
TXBWIC20020-38313-33540-30000144D0001044D0000100002CT 3354   GGSL
TXBWIC20020-38313-33640-00000120D0001002D0000300002CT 3364   GGSL
TXBWIC20020-38313-53841-50000005D0000273D0002100000TP 3841   GGSL
TXBWIC20020-38313-61062-30000007D0000389D0000000004RK 61062  GGSL
TXBWIC20020-38313-62062-20000006D0000288D0001600000BM 62060  GGSL
TXBWIC20020-38313-64063-70000006D0000289D0000000000RK 61063  GGSL
TXBWIC20020-38313-65500-60000042D0000147D0000000000SS 65020  GGSL
TXBWIC20020-38313-66000-00000036D0000282D0002300000SS 66000  GGSL
TXBWIC20020-38313-72090-20000003D0000123D0000000000BR 72090  GGSL
TXBWIC20020-38313-79000-40000006D0000040D0000000000SF 79000  GGSL
TXBWIC20020-38313-81000-90000059D0000621D0013700007RK 10000  GGSL
TXBWIC20020-38313-90000-70000038D0000334D0006100011SH 10000  GGSL
TXBWIC20020-38313-90010-60000002D0000011D0000000000AS 90010  GGSL
TXBWIC20020-38313-90300-80000006D0000480D0000000000AS 90300  GGSL
TXBWIC20020-38776-00207-20000012D0000112D0000000000UU1906BK3 GGSL
TXBWIC20020-38776-00307-90000012D0000065D0000000000UU1412BK3 GGSL
TXBWIC20020-38776-51012-60000012D0000053D0000000000UR1212ST  GGSL
TXBWIC20020-38776-62121-10000024D0000097D0000000000UR1212WH  GGSL
TXBWIC20020-38776-62181-50000010D0000084D0000000000UR1810WH3 GGSL
TXBWIC20020-38776-63503-40000010D0000067D0000000000DP1510TC3 GGSL
TXBWIC20020-38858-13584-10000003C0000067C00000000009685-06-09GGSL
TXBWIC20020-39044-14636-80000036D0000060D000010000514666     GGSL
TXBWIC20020-39079-00126-70000066D0000357D0001000000100520392 GGSL
TXBWIC20020-39079-00238-70000025D0000985D0014000000100530914 GGSL
TXBWIC20020-39079-00740-50000102D0000529D0012100001100519503 GGSL
TXBWIC20020-39079-00741-20000060D0000320D0007800001100519504 GGSL
TXBWIC20020-39079-01228-70000028D0000179D0000000000100525424 GGSL
TXBWIC20020-39079-05883-40000084D0000843D0001600000100519880 GGSL
TXBWIC20020-39079-05896-40000372D0002367D0000400001100511009 GGSL
TXBWIC20020-39079-05897-10000180D0002172D0006100000100511010 GGSL
TXBWIC20020-39079-05941-10000108D0000915D0004500001100503441 GGSL
TXBWIC20020-39079-05981-70000036D0000399D0000900000100522363 GGSL
TXBWIC20020-39079-06017-20000084D0000698D00020000003006017   GGSL
TXBWIC20020-39079-06022-60000072D0000704D00023000003006022.0 GGSL
TXBWIC20020-39079-09003-20000002D0000126D00000000002605941   GGSL
TXBWIC20020-39996-30292-80000010D0000092D000010000030292     GGSL
TXBWIC20020-39996-30293-50000040D0000532D000050001130293     GGSL
TXBWIC20020-40025-40001-00001200D0000190D0000800013RWS-54001 GGSL
TXBWIC20020-40025-54033-40000030D0001194D0004500008RWS-54033 GGSL
TXBWIC20020-40200-00000- 0000050D0000124D00000000005430      GGSL
TXBWIC20020-40235-75032-50000018D0000083D00010000001Q30S 6P  GGSL
TXBWIC20020-40235-75999-10000072D0000040D000000000030SRDR-01 GGSL
TXBWIC20020-40279-03300-20000498C0000851C0010000001          GGSL
TXBWIC20020-40279-03302-60000264D0000494D0012500003          GGSL
TXBWIC20020-40279-03304-00000264D0000954D00056000033304      GGSL
TXBWIC20020-41535-02008-80000160D0000314D00000000009203350   GGSL
TXBWIC20020-41535-06190-60000036D0000203D00000000009236190   GGSL
TXBWIC20020-41535-24550-40000150D0005813D006880002024550.0   GGSL
TXBWIC20020-41535-24560-30000390D0055365D013060017824560.0   GGSL
TXBWIC20020-41535-24571-90001384D0016954D0030800008100518540 GGSL
TXBWIC20020-41535-79218-30000024D0000777D00000000009206192   GGSL
TXBWIC20020-41535-79219-00000528D0004769D00000000009206231   GGSL
TXBWIC20020-42204-14504-80000006D0000006D00000000002MMC      GGSL
TXBWIC20020-42206-00000-00000009D0002403D000000000015534     GGSL
TXBWIC20020-42206-00056-90000006D0000044D000090000556-6      GGSL
TXBWIC20020-42206-00202-00000040D0000041D0003300001202S      GGSL
TXBWIC20020-42206-00202-10000001D0000001D0001400000202S      GGSL
TXBWIC20020-42206-00395-90000030D0000064D0002300008395S      GGSL
TXBWIC20020-42206-00481-90000010D0000001D0000000000481       GGSL
TXBWIC20020-42206-00525-00000040D0000097D0000000004525C      GGSL
TXBWIC20020-42206-00872-50000192D0000405D0006200000872-6     GGSL
TXBWIC20020-42206-03010-80000065D0000329D00130000443010-4    GGSL
TXBWIC20020-42206-03112-90000010D0000010D000000000031Z 1/2   GGSL
TXBWIC20020-42206-03158-70000020D0000013D000000000031Z 5/8   GGSL
TXBWIC20020-42206-09000-30000070D0000403D00012000009000      GGSL
TXBWIC20020-42206-09001-00000010D0000041D00000000009001      GGSL
TXBWIC20020-42206-09620-30000007D0000232D00125000009620-8    GGSL
TXBWIC20020-42206-14057-90000024D0000022D00000000009535C     GGSL
TXBWIC20020-42206-14058-60000192D0000988D00022000039570      GGSL
TXBWIC20020-42206-14066-10000060D0000189D00000000019560C     GGSL
TXBWIC20020-42206-14220-70000030D0000114D0001200006312S      GGSL
TXBWIC20020-42206-14221-40000070D0000120D0001200000313S      GGSL
TXBWIC20020-42206-14235-10000070D0000070D0002400003390S      GGSL
TXBWIC20020-42206-14326-60000010D0000010D0000400000225S      GGSL
TXBWIC20020-42206-14328-00000030D0000015D0000000000200C      GGSL
TXBWIC20020-42206-14456-00000020D0000026D0000000000420C      GGSL
TXBWIC20020-42206-14501-70000040D0000035D00002000001FMC      GGSL
TXBWIC20020-42206-14502-40000020D0000014D00014000011MMC      GGSL
TXBWIC20020-42206-14503- 0000007D0000007D00006000002FMC      GGSL
TXBWIC20020-42206-14503-10000280D0000251D00041000072FMC      GGSL
TXBWIC20020-42206-14504-80000260D0000197D00028000042MMC      GGSL
TXBWIC20020-42206-14505-50000020D0000019D000180000001MC      GGSL
TXBWIC20020-42206-14506-20000140D0000132D000220000502MC      GGSL
TXBWIC20020-42206-14570-30000030D0000147D0001100000ZBR3/4    GGSL
TXBWIC20020-42206-14571-00000070D0000225D0002100002ZBM3/4    GGSL
TXBWIC20020-42206-14572-70000120D0000391D0002100003ZBF3/4    GGSL
TXBWIC20020-42206-14599-40000012D0000132D00000000009536CH    GGSL
TXBWIC20020-42206-15111-70000054D0000327D000000000015111     GGSL
TXBWIC20020-42206-20491-20000050D0000238D000140000120491-10  GGSL
TXBWIC20020-42206-22701-00000030D0000087D000130000022701C    GGSL
TXBWIC20020-42206-23701-90000020D0000062D000080000023701S    GGSL
TXBWIC20020-42206-30201-40000020D0000120D0000000000XT201     GGSL
TXBWIC20020-42206-40261-50000288D0001896D000010000120261     GGSL
TXBWIC20020-42206-40301-80000010D0000059D0002100013XT301     GGSL
TXBWIC20020-42206-44100-30000006D0000100D0001100004XT4100    GGSL
TXBWIC20020-42206-63015-50000003D0000081D000650000063015     GGSL
TXBWIC20020-42206-63100-80000004D0000144D000060000263100     GGSL
TXBWIC20020-42579-00000-00000032D0004481D0000000002BRBHPM    GGSL
TXBWIC20020-42579-00066-10000003D0001739D0000000000ST554096  GGSL
TXBWIC20020-42579-11250-00000011D0004120D0008300000P12       GGSL
TXBWIC20020-42579-11500-60114000D0003483D0030300006APB5      GGSL
TXBWIC20020-42579-12342-10000024D0000195D0000000001PSS       GGSL
TXBWIC20020-42579-12343-80000217D0007050D000000000020 YR-3100GGSL
TXBWIC20020-42579-12346-90000240D0000349D0000600002TW3W      GGSL
TXBWIC20020-42579-12353-70000120D0000347D0000000000PG12      GGSL
TXBWIC20020-42579-13250-80000720D0018528D0031500012P3        GGSL
TXBWIC20020-42579-14250-70000319D0028474D0067000132P4        GGSL
TXBWIC20020-42579-15250-60000015D0002462D0015800002P5        GGSL
TXBWIC20020-42579-16250-50000131D0020648D0026300009P6        GGSL
TXBWIC20020-42579-18250-30000014D0003176D0011300000P8        GGSL
TXBWIC20020-42579-19342-40000432D0003621D000220000020 YR-324 GGSL
TXBWIC20020-42579-22341-10000864D0005621D00058000156 YR-350  GGSL
TXBWIC20020-42579-22342-80000384D0001506D0024200069NS12      GGSL
TXBWIC20020-42579-22345-90000492D0001967D0005300035APRC      GGSL
TXBWIC20020-42579-24250-40000002D0000246D001030000020 YR-4250GGSL
TXBWIC20020-42579-25250-30000001D0000154D000990000020 YR-5250GGSL
TXBWIC20020-42579-32355-50000154D0000714D0005300001RS15      GGSL
TXBWIC20020-42579-32501-60000012D0000539D00000000006 YR-4300 GGSL
TXBWIC20020-42579-43004-80000022D0001899D0007900002NB4       GGSL
TXBWIC20020-42579-43006-20000013D0001525D0004600000NB6       GGSL
TXBWIC20020-42579-43240-00000060D0000330D0000200000NB324     GGSL
TXBWIC20020-42579-50154-00000060D0001195D0002900005PRO BLK-31GGSL
TXBWIC20020-42579-50169-40000018D0000276D0000900001PRO BLK-45GGSL
TXBWIC20020-42579-50237-00000036D0000611D0001000002CS-3100BLKGGSL
TXBWIC20020-42579-50264-60000180D0001409D0000000000SG200PAL  GGSL
TXBWIC20020-42579-50278-30000144D0000448D0000100000EL-5YR350 GGSL
TXBWIC20020-42579-50400-80000016D0011856D0000100002PRO6YRPA  GGSL
TXBWIC20020-42579-63041-70000007D0000681D0002900002KG6       GGSL
TXBWIC20020-42579-63045-50000006D0000755D0000100000KG12      GGSL
TXBWIC20020-42579-63101-80000060D0000044D0000000000TSL-BX    GGSL
TXBWIC20020-42579-63105-60000054D0002189D0006300000350ROLL   GGSL
TXBWIC20020-42579-63306-70005076D0013309D00109000063 YR-350  GGSL
TXBWIC20020-42579-81272-10000001D0000077D0000000001K6        GGSL
TXBWIC20020-42579-81273-80000001D0000153D0000000000K12       GGSL
TXBWIC20020-42579-81360-50000052D0006539D0027700022NS12250   GGSL
TXBWIC20020-42579-81377-30000001D0000000D0000000000A6        GGSL
TXBWIC20020-42579-81392-60000007D0001729D0000000000WGC15     GGSL
TXBWIC20020-42579-81428-20000078D0000134D0060300010BURLAP BAGGGSL
TXBWIC20020-42579-81486-20000009D0000231D0000000000DELUXE6   GGSL
TXBWIC20020-42579-81506-70000002D0000554D0000000000ULTIMATE15GGSL
TXBWIC20020-42579-81566-10000105D0011792D0019700014SBLT10300 GGSL
TXBWIC20020-42579-81568-50000188D0026439D0057500002SBLT12300 GGSL
TXBWIC20020-42579-81569-20000168D0030068D0087400044SBLT15.530GGSL
TXBWIC20020-42579-81571-50000183D0006633D0034800039SBLT3300  GGSL
TXBWIC20020-42579-81572-20000056D0002538D0007800002SBLT4300  GGSL
TXBWIC20020-42579-81573-90000267D0019026D0047400038SBLT6300  GGSL
TXBWIC20020-42579-81577-70000001D0000041D0000000000SUPREME24 GGSL
TXBWIC20020-42579-81605-70000012D0000799D0001100013PRO BLK-33GGSL
TXBWIC20020-42579-81606-40000027D0002454D0007500003PRO BLK-43GGSL
TXBWIC20020-42579-81607-10000011D0001504D0007600016PRO BLK-63GGSL
TXBWIC20020-42579-81608-80000004D0000768D0001100000PRO BLK-83GGSL
TXBWIC20020-42579-81619-40001000D0000079D0000000001APB1      GGSL
TXBWIC20020-42579-81624-80000090D0001076D0000000005PRO BLK-35GGSL
TXBWIC20020-42579-81733-70000005D0000291D0004000011CS-3300BLKGGSL
TXBWIC20020-42579-81734-40000005D0000385D0002700001CS-4300BLKGGSL
TXBWIC20020-42579-81735-10000015D0001696D0003500003CS-6300BLKGGSL
TXBWIC20020-42579-82238-60000002D0000031D0000000000FIBC 2000 GGSL
TXBWIC20020-42579-82252-20000016D0001499D0000000000FF4OZ-4360GGSL
TXBWIC20020-42579-82278-20000120D0000780D0000300003TWBAG-12  GGSL
TXBWIC20020-42579-82283-60000040D0000326D0000000080STRTS-28  GGSL
TXBWIC20020-42579-82322-20000036D0000083D0000000000NATWASP-36GGSL
TXBWIC20020-42579-82337-60000028D0000109D0000000000BPN720    GGSL
TXBWIC20020-42579-82338-30000044D0000219D0000000000BPN1414   GGSL
TXBWIC20020-42853-00000-00000824D0003321D0040500007BFTD-DB12 GGSL
TXBWIC20020-42853-10000-10000016D0000063D0001200013ST3-BB4   GGSL
TXBWIC20020-42853-14000-70000010D0000046D0000000001PMT2-BB5  GGSL
TXBWIC20020-42853-40000-20000025D0000187D0000000005TSF-BB8   GGSL
TXBWIC20020-42853-42000-00000006D0000038D0003200001TSBF-BB6  GGSL
TXBWIC20020-42853-50000-90000942D0005828D0002400057TSW-BB6   GGSL
TXBWIC20020-42853-52000-80000048D0000304D0000000000CBTS-FD48 GGSL
TXBWIC20020-42853-60000-00000005D0000773D0000200003FFTR-FD48 GGSL
TXBWIC20020-42853-60000-60000140D0000364D0000000006FFTR-BB4  GGSL
TXBWIC20020-42853-61000-50000008D0000033D0000100002FFTR2-BB4 GGSL
TXBWIC20020-42853-62000-40000072D0000089D0000300000FFTA-DB12 GGSL
TXBWIC20020-42853-65000-10000180D0000675D0000000000AB6-FD36  GGSL
TXBWIC20020-42853-77305-40002640D0006799D0021000109FTD-DB12  GGSL
TXBWIC20020-42853-77603-90000096D0000330D0000000000YJTD-FD48-GGSL
TXBWIC20020-42853-78048-70000096D0000484D0000000000JBTZ-FD48 GGSL
TXBWIC20020-42853-79701-00000624D0002882D0000000002BFTD-FD48 GGSL
TXBWIC20020-42854-03298-10000180D0000438D0008400005FG32ORB112GGSL
TXBWIC20020-42854-63278-50000036D0000075D0005100000FG32PC1-12GGSL
TXBWIC20020-42854-64870-00000006D0000037D0001500001FG48PC1-6 GGSL
TXBWIC20020-42854-93200-70000012D0000107D0000700000FG32SM1-12GGSL
TXBWIC20020-43162-56428-70000003D0001154D000460000059021451  GGSL
TXBWIC20020-43168-50308-20000004D0000238D000000000093101226  GGSL
TXBWIC20020-43168-50309-90000004D0000285D000000000093101227  GGSL
TXBWIC20020-43168-50313-60000004D0000043D000000000093101231  GGSL
TXBWIC20020-43312-10003-70000208D0000621D0013600000103-0-009 GGSL
TXBWIC20020-43312-10027-30000024D0000212D0001600000104-0-003 GGSL
TXBWIC20020-43312-10032-50000006D0000010D0000000000104-0-012 GGSL
TXBWIC20020-43326-04096-20000001D0000091D0000000000G10X10-K3 GGSL
TXBWIC20020-43326-15710-20000030D0000048D0000000000M6X8      GGSL
TXBWIC20020-43326-16740-80000030D0000451D0000000000A12X14-P3 GGSL
TXBWIC20020-43326-59578-20000002D0000162D0000000010G12X26    GGSL
TXBWIC20020-43326-59745-80000020D0001048D0000000000G12X16    GGSL
TXBWIC20020-43326-59771-70000004D0000187D0000000010G10X18    GGSL
TXBWIC20020-43326-59772-40000003D0000187D0000000001G12X20    GGSL
TXBWIC20020-43326-85432-20000012D0000086D0000000001CB1924C-1PGGSL
TXBWIC20020-43725-11311-20000003D0000075D00000000009101614   GGSL
TXBWIC20020-43725-19680-00000004D0000122D00000000009149068   GGSL
TXBWIC20020-43725-19964-20000018D0000491D00000000009121969   GGSL
TXBWIC20020-43725-20335-60000024D0000199D00000000009102033   GGSL
TXBWIC20020-43725-20505-30000246D0001538D00000000009102050   GGSL
TXBWIC20020-43725-25114-20000002D0000008D00000000009132511   GGSL
TXBWIC20020-43725-28089-30000002D0000008D00000000009125080   GGSL
TXBWIC20020-43725-39605-80000006D0000037D00000000009143960   GGSL
TXBWIC20020-43786-70102-00000012D0000054D000000000070102     GGSL
TXBWIC20020-43792-50001-30000406D0010970D0016100073Y32       GGSL
TXBWIC20020-43792-60002-70000378D0010901D0017200068W32       GGSL
TXBWIC20020-43792-70002-40000212D0006423D0013600048R32       GGSL
TXBWIC20020-43792-80001-40000138D0003732D0008900038SW10      GGSL
TXBWIC20020-43792-90001- 0000060D0002267D0005600005SH10      GGSL
TXBWIC20020-43792-90003-50000036D0001225D0003200003GA10      GGSL
TXBWIC20020-43792-90004-20000003D0000261D0001300002GA30      GGSL
TXBWIC20020-45446-00100-60000012D0000070D00000000003512836   GGSL
TXBWIC20020-45446-00213-30000002D0000106D00000000003547510   GGSL
TXBWIC20020-45446-00241-60000018D0000256D00000000003514425   GGSL
TXBWIC20020-45446-00250-80000002D0000070D00000000003509670   GGSL
TXBWIC20020-45446-00264-50000006D0000026D00000000003500264   GGSL
TXBWIC20020-46539-62045-60001945D0022837D0261200309          GGSL
TXBWIC20020-46539-64032-40003992D0033105D0335502716          GGSL
TXBWIC20020-46753-00000-00000004D0001125D0000000002          GGSL
TXBWIC20020-46753-01032-30000042D0000159D00040000014675301032GGSL
TXBWIC20020-46753-01128-30000032D0000290D00056000024675301128GGSL
TXBWIC20020-46753-02032-20000066D0000301D00022000004675302032GGSL
TXBWIC20020-46753-02128-20000060D0000703D00073000004675302128GGSL
TXBWIC20020-46753-02500-60000002D0000102D00019000004675302500GGSL
TXBWIC20020-46753-03128-10000020D0000258D00047000014675303128GGSL
TXBWIC20020-46753-04032-00000162D0000933D00059000004675304032GGSL
TXBWIC20020-46753-04033-70000048D0000404D00036000282004675304GGSL
TXBWIC20020-46753-04128-00000132D0001841D00116000104675304128GGSL
TXBWIC20020-46753-04500-40000006D0000400D00012000004675304500GGSL
TXBWIC20020-46753-04550-90000001D0000594D000000000055508     GGSL
TXBWIC20020-46753-05032-90000048D0000404D00087000484675305032GGSL
TXBWIC20020-46753-05128-90000060D0000818D00052000224675305128GGSL
TXBWIC20020-46753-07032-70000012D0000056D00007000004675307032GGSL
TXBWIC20020-46753-07128-70000004D0000046D00000000004675307128GGSL
TXBWIC20020-46753-08016-60000024D0000194D000020000380160     GGSL
TXBWIC20020-46753-08032-60000510D0007975D00319000634675308032GGSL
TXBWIC20020-46753-14032-70000084D0000309D00022000044675314032GGSL
TXBWIC20020-46753-14128-70000192D0001343D00094000034675314128GGSL
TXBWIC20020-46753-17005-80000036D0000155D00061000004675317005GGSL
TXBWIC20020-46753-17040-90000961D0012446D01311000654675317040GGSL
TXBWIC20020-46753-17201-40000001D0000355D000000000072014     GGSL
TXBWIC20020-46753-19032-20000012D0000064D00000000002004675319GGSL
TXBWIC20020-46753-21032-70000144D0000717D000240001010327     GGSL
TXBWIC20020-46753-21128-70000108D0001307D000570002812287     GGSL
TXBWIC20020-47977-00805-90000004D0000000D0000000000NA32431   GGSL
TXBWIC20020-47977-01028-10000004D0000000D0000000000NA32441   GGSL
TXBWIC20020-47977-01252-00000001D0000000D0000000000NAGGFLYTHRGGSL
TXBWIC20020-48307-70003-20000200D0000081D0004900000ST3       GGSL
TXBWIC20020-48307-70004-90000200D0000096D0003200004ST4-WS    GGSL
TXBWIC20020-48307-70005-60000100D0000058D0005900000ST5       GGSL
TXBWIC20020-48307-70006-30004440D0002731D0003000002ST6       GGSL
TXBWIC20020-48745-22244-80000012D0000263D0007300000BL22244   GGSL
TXBWIC20020-48745-31400-60000005D0000243D00000000005331410   GGSL
TXBWIC20020-48745-32708-60000288D0003230D000450001732708     GGSL
TXBWIC20020-49206-02722-00000012D0000045D0000000000UR1212BK3 GGSL
TXBWIC20020-49206-03060-20000010D0000084D0000000000UR1810BK3 GGSL
TXBWIC20020-50197-00000-00000602D0003022D0015100015CGP25     GGSL
TXBWIC20020-50197-00104-50000564D0002515D0019300012HT4       GGSL
TXBWIC20020-50197-00108-30000084D0000561D0004900003HT8       GGSL
TXBWIC20020-50197-00118-20000337D0004016D0129600109HT18      GGSL
TXBWIC20020-50197-00136-60000362D0007518D0089000073HT36      GGSL
TXBWIC20020-50197-00150-20000325D0008281D0034200002HT50      GGSL
TXBWIC20020-50197-00204-20000288D0001346D0012500001PT4       GGSL
TXBWIC20020-50197-00208-00000042D0000292D0002400002PT8       GGSL
TXBWIC20020-50197-00218-90000279D0003242D0063300031PT18      GGSL
TXBWIC20020-50197-00236-30000145D0002926D0068600000PT36      GGSL
TXBWIC20020-50197-00250-90000391D0008538D0021300000PT50      GGSL
TXBWIC20020-50197-00304-90000432D0002001D0009900010GT4       GGSL
TXBWIC20020-50197-00308-70000036D0000232D0000000000GT8       GGSL
TXBWIC20020-50197-00318-60000114D0001447D0046100004GT18      GGSL
TXBWIC20020-50197-00336-00000039D0000854D0019200002GT36      GGSL
TXBWIC20020-50197-00404-60000264D0001219D0011000010RT4       GGSL
TXBWIC20020-50197-00408-40000042D0000294D0001900000RT8       GGSL
TXBWIC20020-50197-00418-30000268D0003497D0050400068RT18      GGSL
TXBWIC20020-50197-00604-00000180D0000819D0004000006BT4       GGSL
TXBWIC20020-50197-00618-70000004D0000045D0000000000BT18      GGSL
TXBWIC20020-50197-00704-70000108D0000469D0005500004TR4       GGSL
TXBWIC20020-50197-00718-40000068D0000833D0022100007TR18      GGSL
TXBWIC20020-50197-00904-10000420D0001932D0008700005TO4       GGSL
TXBWIC20020-50197-00908-60000024D0000163D0002000001TO8       GGSL
TXBWIC20020-50197-00918-80000041D0000559D0025000003TO18      GGSL
TXBWIC20020-50197-01004-70000012D0000060D0000100001BM04      GGSL
TXBWIC20020-50197-01024-50000010D0000181D0000000000BM24      GGSL
TXBWIC20020-50197-01106-80000018D0000170D0000100009gs6       GGSL
TXBWIC20020-50197-01130-30000012D0000357D0000000000gs30      GGSL
TXBWIC20020-50197-01228-70000079D0001352D0015000006RP28      GGSL
TXBWIC20020-50197-01303-10000024D0000149D0000100001DB03      GGSL
TXBWIC20020-50197-01317-80000018D0000493D0005300004DB17      GGSL
TXBWIC20020-50197-01403-80000084D0000454D0001300000CM3       GGSL
TXBWIC20020-50197-01606-30000006D0000051D0000000002TP6       GGSL
TXBWIC20020-50197-01706-00000012D0000102D0000000002PO6       GGSL
TXBWIC20020-50197-01803-60000060D0000209D0001100001GM3       GGSL
TXBWIC20020-50197-01825-80000155D0001610D0021200000GM25      GGSL
TXBWIC20020-50197-02206-40000216D0001104D0008300027GG6       GGSL
TXBWIC20020-50197-02304-70000012D0000054D0000000000CS4       GGSL
TXBWIC20020-50197-02703-80000012D0000141D0000000001KM4       GGSL
TXBWIC20020-50197-02805-90000012D0000074D0000000002GF101010/6GGSL
TXBWIC20020-50197-02904-90000336D0001548D0005600002FT4       GGSL
TXBWIC20020-50197-02918-60000095D0001239D0023500012FT18      GGSL
TXBWIC20020-50197-03802-70001040D0000537D0000000003BTSP5OZ   GGSL
TXBWIC20020-50197-03804-10000828D0004478D0012000006BTSP4     GGSL
TXBWIC20020-50197-03808-90000006D0000057D0000000000BTSP8     GGSL
TXBWIC20020-50197-03825-60000091D0002391D0058900016BTSP25    GGSL
TXBWIC20020-50197-03904-80000108D0000505D0005000001PM4       GGSL
TXBWIC20020-50197-03920-80000056D0000717D0007200001PM20      GGSL
TXBWIC20020-50197-05004-30000492D0002309D0016000010CT4       GGSL
TXBWIC20020-50197-05018-00000177D0002359D0025900021CT18      GGSL
TXBWIC20020-50197-05206-10000300D0002868D0000000000CGP6      GGSL
TXBWIC20020-50197-05320-40000060D0000936D0018900019ELF20     GGSL
TXBWIC20020-50197-05628-10000120D0002459D0007900000EOLF28    GGSL
TXBWIC20020-50197-05730-10000061D0001250D0004800000EOSR30    GGSL
TXBWIC20020-50197-05830-80000060D0001229D0000000000EOFW30    GGSL
TXBWIC20020-50197-06203-90000012D0000060D0000000001AL3       GGSL
TXBWIC20020-50197-06504-70000108D0000487D0006000002AT4       GGSL
TXBWIC20020-50197-06508-50000006D0000043D0000600000AT8       GGSL
TXBWIC20020-50197-06604-40000132D0000645D0001600000BR4       GGSL
TXBWIC20020-50197-30324-80000024D0000018D0000000000GR24      GGSL
TXBWIC20020-50197-30424-50000006D0000044D0000100000bl24-6    GGSL
TXBWIC20020-50197-30508-20000024D0000115D0000000002INPF8     GGSL
TXBWIC20020-50197-30608-90000006D0000025D0000000000CAPF8     GGSL
TXBWIC20020-50197-30708-60000042D0000174D0000000000VIPF8     GGSL
TXBWIC20020-50197-30808-30000024D0000099D0000000000ORPF8     GGSL
TXBWIC20020-50197-30924-00000012D0000006D0000000000FI24-6    GGSL
TXBWIC20020-50197-31208-00000006D0000025D0000000000ctpf8     GGSL
TXBWIC20020-50197-31318-60000006D0000037D0000600000topf18    GGSL
TXBWIC20020-50197-51112-40000006D0000024D0000000000IC12      GGSL
TXBWIC20020-50197-51324-10000078D0000451D0001600002EONM24    GGSL
TXBWIC20020-50197-51424-80000114D0000593D0003200000EOIS24    GGSL
TXBWIC20020-50197-51524-50000102D0000511D0004100000EOIC24    GGSL
TXBWIC20020-50197-51624-20000048D0000247D0001300000EOCS24    GGSL
TXBWIC20020-50197-51701-00000012D0000073D0000000000eoss1     GGSL
TXBWIC20020-50197-70101-30000766D0005292D0005900000ap1       GGSL
TXBWIC20020-50197-70102-00000253D0003405D0013100000ap2       GGSL
TXBWIC20020-50197-70304-80000184D0000779D0002700004ca4-8     GGSL
TXBWIC20020-50197-70308-60000072D0000298D0001000000ca8x      GGSL
TXBWIC20020-50197-70608-70000018D0000081D0000600003PTM8      GGSL
TXBWIC20020-50197-70701-50000001D0000012D0000000009PR1       GGSL
TXBWIC20020-50197-70801-20000001D0000013D0000000004VM1       GGSL
TXBWIC20020-50197-71201-90000225D0001421D0000000000mm1       GGSL
TXBWIC20020-50197-71208-80000018D0000000D0000900000MM8       GGSL
TXBWIC20020-50197-71304-70000048D0000207D0000200000EC4       GGSL
TXBWIC20020-50197-71501-00000255D0001640D0011700002lsc1      GGSL
TXBWIC20020-50197-71601-70000551D0002811D0022600002dcm1      GGSL
TXBWIC20020-50197-80117-10000122D0000972D0139000000SC17      GGSL
