TXBWIC20020-238830000108AGRI-NUTRIENTS, INC.          GGPO
TXBWIC20020-306410000061AGRI-NUTRIENTS, INC.          GGPO
TXBWIC20020-329030000027AGRI-NUTRIENTS, INC.          GGPO
TXBWIC20020-353070000036AGRI-NUTRIENTS, INC.          GGPO
TXBWIC20020-363480000129AGRI-NUTRIENTS, INC.          GGPO
TXBWIC20020-373210000178AGRI-NUTRIENTS, INC.          GGPO
TXBWIC20020-383130000058AGRI-NUTRIENTS, INC.          GGPO
TXBWIC20020-768070000145AGRI-NUTRIENTS, INC.          GGPO
TXBWIC20020-786270000467AGRI-NUTRIENTS, INC.          GGPO
TXBWIC20026-510820000068AGRI-NUTRIENTS, INC.          GGPO
TXBWIC20027-191950000037AGRI-NUTRIENTS, INC.          GGPO
TXBWIC20027-211040000093AGRI-NUTRIENTS, INC.          GGPO
TXBWIC20027-296400000034AGRI-NUTRIENTS, INC.          GGPO
TXBWIC20027-296410000046AGRI-NUTRIENTS, INC.          GGPO
TXBWIC20027-322210000162AGRI-NUTRIENTS, INC.          GGPO
TXBWIC20027-689800000919AGRI-NUTRIENTS, INC.          GGPO
TXBWIC20027-768960000065AGRI-NUTRIENTS, INC.          GGPO
TXBWIC20020-112470000021ALLIANCE ANIMAL CARE, LLC     GGPO
TXBWIC20020-238830001213ALLIANCE ANIMAL CARE, LLC     GGPO
TXBWIC20020-306410000079ALLIANCE ANIMAL CARE, LLC     GGPO
TXBWIC20020-322470000056ALLIANCE ANIMAL CARE, LLC     GGPO
TXBWIC20020-329030000129ALLIANCE ANIMAL CARE, LLC     GGPO
TXBWIC20020-333490000302ALLIANCE ANIMAL CARE, LLC     GGPO
TXBWIC20020-346130000154ALLIANCE ANIMAL CARE, LLC     GGPO
TXBWIC20020-364340000032ALLIANCE ANIMAL CARE, LLC     GGPO
TXBWIC20020-373210000600ALLIANCE ANIMAL CARE, LLC     GGPO
TXBWIC20020-383130000144ALLIANCE ANIMAL CARE, LLC     GGPO
TXBWIC20020-400250000053ALLIANCE ANIMAL CARE, LLC     GGPO
TXBWIC20020-422060000005ALLIANCE ANIMAL CARE, LLC     GGPO
TXBWIC20020-425790000807ALLIANCE ANIMAL CARE, LLC     GGPO
TXBWIC20020-428530006725ALLIANCE ANIMAL CARE, LLC     GGPO
TXBWIC20020-501970000118ALLIANCE ANIMAL CARE, LLC     GGPO
TXBWIC20020-642770000014ALLIANCE ANIMAL CARE, LLC     GGPO
TXBWIC20020-701830000076ALLIANCE ANIMAL CARE, LLC     GGPO
TXBWIC20020-702510000019ALLIANCE ANIMAL CARE, LLC     GGPO
TXBWIC20020-718980000024ALLIANCE ANIMAL CARE, LLC     GGPO
TXBWIC20020-725250000144ALLIANCE ANIMAL CARE, LLC     GGPO
TXBWIC20020-726930000171ALLIANCE ANIMAL CARE, LLC     GGPO
TXBWIC20020-728680000080ALLIANCE ANIMAL CARE, LLC     GGPO
TXBWIC20020-730350000046ALLIANCE ANIMAL CARE, LLC     GGPO
TXBWIC20020-776250000039ALLIANCE ANIMAL CARE, LLC     GGPO
TXBWIC20020-843690000045ALLIANCE ANIMAL CARE, LLC     GGPO
TXBWIC20020-851990000035ALLIANCE ANIMAL CARE, LLC     GGPO
TXBWIC20020-857650000018ALLIANCE ANIMAL CARE, LLC     GGPO
TXBWIC20020-866210000031ALLIANCE ANIMAL CARE, LLC     GGPO
TXBWIC20020-874040000195ALLIANCE ANIMAL CARE, LLC     GGPO
TXBWIC20020-946540000037ALLIANCE ANIMAL CARE, LLC     GGPO
TXBWIC20020-956680001127ALLIANCE ANIMAL CARE, LLC     GGPO
TXBWIC20021-004280000058ALLIANCE ANIMAL CARE, LLC     GGPO
TXBWIC20027-203430000036ALLIANCE ANIMAL CARE, LLC     GGPO
TXBWIC20027-211040000093ALLIANCE ANIMAL CARE, LLC     GGPO
TXBWIC20027-322210000427ALLIANCE ANIMAL CARE, LLC     GGPO
TXBWIC20027-356130000051ALLIANCE ANIMAL CARE, LLC     GGPO
TXBWIC20027-768960000023ALLIANCE ANIMAL CARE, LLC     GGPO
TXBWIC20027-865410000016ALLIANCE ANIMAL CARE, LLC     GGPO
TXBWIC20028-141740000020ALLIANCE ANIMAL CARE, LLC     GGPO
TXBWIC20028-164030000066ALLIANCE ANIMAL CARE, LLC     GGPO
TXBWIC20028-744800000317ALLIANCE ANIMAL CARE, LLC     GGPO
TXBWIC20028-839400000007ALLIANCE ANIMAL CARE, LLC     GGPO
TXBWIC20020-400250000005AUSTIN WOOD RECYCLING         GGPO
TXBWIC2002P-C11000007938B&G EQUIPMENT CO.             GGPO
TXBWIC2002P-C14000000118B&G EQUIPMENT CO.             GGPO
TXBWIC20026-337590000030B&G EQUIPMENT CO.             GGPO
TXBWIC20020-425790000064BACK TO NATURE                GGPO
TXBWIC20020-730350001522BACK TO NATURE                GGPO
TXBWIC20021-071910000186BACK TO NATURE                GGPO
TXBWIC20027-191950000070BACK TO NATURE                GGPO
TXBWIC20027-256090000144BACK TO NATURE                GGPO
TXBWIC20027-322210000134BACK TO NATURE                GGPO
TXBWIC20027-322210000106BAMBOO SUPPLY CO.             GGPO
TXBWIC20020-004020000012BASF CORPORATION              GGPO
TXBWIC20020-112470000021BASF CORPORATION              GGPO
TXBWIC20020-329030000056BASF CORPORATION              GGPO
TXBWIC20020-383130000048BASF CORPORATION              GGPO
TXBWIC20020-501970000102BASF CORPORATION              GGPO
TXBWIC20020-708050000288BASF CORPORATION              GGPO
TXBWIC20020-726930004578BASF CORPORATION              GGPO
TXBWIC20020-728680000115BASF CORPORATION              GGPO
TXBWIC20020-738890000345BASF CORPORATION              GGPO
TXBWIC20020-789780000012BASF CORPORATION              GGPO
TXBWIC20020-843690000105BASF CORPORATION              GGPO
TXBWIC20020-848650000105BASF CORPORATION              GGPO
TXBWIC20020-851990000071BASF CORPORATION              GGPO
TXBWIC20020-857650000225BASF CORPORATION              GGPO
TXBWIC20020-886850000045BASF CORPORATION              GGPO
TXBWIC20026-511240000242BASF CORPORATION              GGPO
TXBWIC20026-870730000212BASF CORPORATION              GGPO
TXBWIC20027-126260000127BASF CORPORATION              GGPO
TXBWIC20027-154900000295BASF CORPORATION              GGPO
TXBWIC20027-184770042817BASF CORPORATION              GGPO
TXBWIC20027-256090000448BASF CORPORATION              GGPO
TXBWIC20027-269320000587BASF CORPORATION              GGPO
TXBWIC20027-322210000652BASF CORPORATION              GGPO
TXBWIC20027-681030000072BASF CORPORATION              GGPO
TXBWIC20027-689800000021BASF CORPORATION              GGPO
TXBWIC20027-768960000106BASF CORPORATION              GGPO
TXBWIC20027-865410000450BASF CORPORATION              GGPO
TXBWIC20028-744800002640BASF CORPORATION              GGPO
TXBWIC20020-952420000036BASF PCS AGENCY               GGPO
TXBWIC20020-004020000009BAYER ENVIRONMENTAL SCIENCE   GGPO
TXBWIC20020-353070000051BAYER ENVIRONMENTAL SCIENCE   GGPO
TXBWIC20020-363480000147BAYER ENVIRONMENTAL SCIENCE   GGPO
TXBWIC20020-373210000118BAYER ENVIRONMENTAL SCIENCE   GGPO
TXBWIC20020-467530000019BAYER ENVIRONMENTAL SCIENCE   GGPO
TXBWIC20020-789780000107BAYER ENVIRONMENTAL SCIENCE   GGPO
TXBWIC20027-000010000048BAYER ENVIRONMENTAL SCIENCE   GGPO
TXBWIC20027-269320000176BAYER ENVIRONMENTAL SCIENCE   GGPO
TXBWIC20027-768960000032BAYER ENVIRONMENTAL SCIENCE   GGPO
TXBWIC20028-155620000125BAYER ENVIRONMENTAL SCIENCE   GGPO
TXBWIC20028-744800003634BAYER ENVIRONMENTAL SCIENCE   GGPO
TXBWIC20020-353070000704BAYER PROFESSIONAL PEST MGT   GGPO
TXBWIC20026-902470000030BAYER PROFESSIONAL PEST MGT   GGPO
TXBWIC20020-112470000562BELL LABORATORIES             GGPO
TXBWIC20020-487450002240BELL LABORATORIES             GGPO
TXBWIC20027-689800000080BELL LABORATORIES             GGPO
TXBWIC20026-397510005361BELLINGHAM GLOVE, INC         GGPO
TXBWIC20026-743260006045BELLINGHAM GLOVE, INC         GGPO
TXBWIC20021-919420003805BELTON INDUSTRIES, INC.       GGPO
TXBWIC20020-346130000088BERGERON TRUCKING CO., INC    GGPO
TXBWIC20023-535500000027BERGERON TRUCKING CO., INC    GGPO
TXBWIC20020-400250000321BIO WORKS, INC.               GGPO
TXBWIC20020-501970000104BIO WORKS, INC.               GGPO
TXBWIC20020-726930002178BIO WORKS, INC.               GGPO
TXBWIC20027-896660000037BIO WORKS, INC.               GGPO
TXBWIC20021-887160002808BIOSAFE SYSTEMS               GGPO
TXBWIC20020-537440000073BLACK GOLD COMPOST CO.        GGPO
TXBWIC20020-725250000062BLACK GOLD COMPOST CO.        GGPO
TXBWIC20020-952420000085BLACK GOLD COMPOST CO.        GGPO
TXBWIC20027-322210000656BLACK GOLD COMPOST CO.        GGPO
TXBWIC20027-423840000151BLACK GOLD COMPOST CO.        GGPO
TXBWIC20020-081410000368BLOEM, LLC                    GGPO
TXBWIC20020-874040001588BLOEM, LLC                    GGPO
TXBWIC20021-081410001391BLOEM, LLC                    GGPO
TXBWIC20028-112140000114BLOEM, LLC                    GGPO
TXBWIC20028-141740004379BLOEM, LLC                    GGPO
TXBWIC20028-185730000181BLOEM, LLC                    GGPO
TXBWIC20028-740450000011BLOEM, LLC                    GGPO
TXBWIC20020-346130008058BOND MANUFACTURING CO,INC     GGPO
TXBWIC20020-353550003930BOND MANUFACTURING CO,INC     GGPO
TXBWIC20023-461300000055BOND MANUFACTURING CO,INC     GGPO
TXBWIC20023-535500002394BOND MANUFACTURING CO,INC     GGPO
TXBWIC20028-448410000469BOND MANUFACTURING CO,INC     GGPO
TXBWIC20020-373210085013BONIDE PRODUCTS, INC.         GGPO
TXBWIC20020-768070003402BONIDE PRODUCTS, INC.         GGPO
TXBWIC20023-732100000389BONIDE PRODUCTS, INC.         GGPO
TXBWIC20026-870730000258BONIDE PRODUCTS, INC.         GGPO
TXBWIC20020-112470011296CARL POOL PRODUCTS            GGPO
TXBWIC20021-124750000221CARL POOL PRODUCTS            GGPO
TXBWIC20026-174410005500CAROLINA STALITE COMPANY      GGPO
TXBWIC20020-866210028611CENTRAL LIFE SCIENCES         GGPO
TXBWIC20020-238830013805CHAPIN INTERNATIONAL          GGPO
TXBWIC20027-502270000065CHAPIN INTERNATIONAL          GGPO
TXBWIC20020-004020062618COLLIER METAL SPECIALTIES LTD GGPO
TXBWIC20020-402350000918COLLIER MFG., LLC             GGPO
TXBWIC20024-023570000774COLLIER MFG., LLC             GGPO
TXBWIC20027-768960012374COMMODITY MARKETING CO        GGPO
TXBWIC20020-726930122904CONTROL SOLUTIONS, INC.       GGPO
TXBWIC20020-851990001445CONTROL SOLUTIONS, INC.       GGPO
TXBWIC20027-269300001656CONTROL SOLUTIONS, INC.       GGPO
TXBWIC20027-269320008138CONTROL SOLUTIONS, INC.       GGPO
TXBWIC20027-269340073910CONTROL SOLUTIONS, INC.       GGPO
TXBWIC20027-423840010197CONTROL SOLUTIONS, INC.       GGPO
TXBWIC20020-353070001414CORONA CLIPPER INC            GGPO
TXBWIC20020-383130031420CORONA CLIPPER INC            GGPO
TXBWIC20020-851990000012CORONA CLIPPER INC            GGPO
TXBWIC20023-831300000324CORONA CLIPPER INC            GGPO
TXBWIC20027-322210000400CORONA CLIPPER INC            GGPO
TXBWIC20027-591880002991CURTIS WAGNER PLASTICS CORP.  GGPO
TXBWIC20021-071910000682D & D COMMODITIES LTD.        GGPO
TXBWIC20027-191950039862D & D COMMODITIES LTD.        GGPO
TXBWIC20020-160690004375DALEN PRODUCTS, INC           GGPO
TXBWIC20027-332540000031DALEN PRODUCTS, INC           GGPO
TXBWIC20020-501970000073DARRELL MELDE                 GGPO
TXBWIC20020-730350000046DARRELL MELDE                 GGPO
TXBWIC20020-789780000100DARRELL MELDE                 GGPO
TXBWIC20020-843690000012DARRELL MELDE                 GGPO
TXBWIC20027-768960000043DARRELL MELDE                 GGPO
TXBWIC20028-744800000044DARRELL MELDE                 GGPO
TXBWIC20021-919420021799DEROMA USA                    GGPO
TXBWIC20020-224010004703DEWITT COMPANY, INC           GGPO
TXBWIC20020-364340000722DEWITT COMPANY, INC           GGPO
TXBWIC20020-425790072783DEWITT COMPANY, INC           GGPO
TXBWIC20020-433260000143DEWITT COMPANY, INC           GGPO
TXBWIC20020-726930000228DEWITT COMPANY, INC           GGPO
TXBWIC20020-730350000116DEWITT COMPANY, INC           GGPO
TXBWIC20020-843690000036DEWITT COMPANY, INC           GGPO
TXBWIC20020-886850000357DEWITT COMPANY, INC           GGPO
TXBWIC20020-952420000127DEWITT COMPANY, INC           GGPO
TXBWIC20020-112470000050DIAMOND K GYPSUM              GGPO
TXBWIC20020-642770000654DIAMOND K GYPSUM              GGPO
TXBWIC20020-730350000092DIAMOND K GYPSUM              GGPO
TXBWIC20020-642770032805DICAPERL MINERALS CORPORATION GGPO
TXBWIC20020-727250000056DOW AGROSCIENCES              GGPO
TXBWIC20020-843690000134DOW AGROSCIENCES              GGPO
TXBWIC20023-224740000010DOW AGROSCIENCES              GGPO
TXBWIC20026-511240000121DOW AGROSCIENCES              GGPO
TXBWIC20027-322210000076DOW AGROSCIENCES              GGPO
TXBWIC20027-269300000046DREYER FARM                   GGPO
TXBWIC20020-230770000011EARTHWAY PRODUCTS INC         GGPO
TXBWIC20020-501970000051EARTHWAY PRODUCTS INC         GGPO
TXBWIC20020-527320024877EARTHWAY PRODUCTS INC         GGPO
TXBWIC20020-572730002115EARTHWAY PRODUCTS INC         GGPO
TXBWIC20020-851990000499EARTHWAY PRODUCTS INC         GGPO
TXBWIC20020-946540000031EARTHWAY PRODUCTS INC         GGPO
TXBWIC20022-008510000028EARTHWAY PRODUCTS INC         GGPO
TXBWIC20025-023530001950EARTHWAY PRODUCTS INC         GGPO
TXBWIC20020-730350004232EASY GARDENER INC.            GGPO
TXBWIC20027-681030005290ECOLOGEL SOLUTIONS, LLC       GGPO
TXBWIC20021-869550015759ENVIRO PROTECTION INDUSTRIES  GGPO
TXBWIC20020-353070000820ERWIN KEITH INC.              GGPO
TXBWIC20020-373210000037ERWIN KEITH INC.              GGPO
TXBWIC20020-726930000570ERWIN KEITH INC.              GGPO
TXBWIC20027-322210000040ERWIN KEITH INC.              GGPO
TXBWIC20020-501970000043ESSCHERT DESIGN USA           GGPO
TXBWIC20020-726930000491ESSCHERT DESIGN USA           GGPO
TXBWIC20020-886850000621ESSCHERT DESIGN USA           GGPO
TXBWIC20027-689800001976ESSCHERT DESIGN USA           GGPO
TXBWIC20027-865410004560EVOLVED HABITATS              GGPO
TXBWIC20028-579700003663EZGROW PRODUCTS LLC           GGPO
TXBWIC20021-081410000695F M C CORPORATION             GGPO
TXBWIC20027-768960052581FARMERS ELEVATOR CO.          GGPO
TXBWIC20020-514970007180FERTILEEZE                    GGPO
TXBWIC20020-112470000100FESTIVAL WINDCHIMES           GGPO
TXBWIC20020-383130000363FESTIVAL WINDCHIMES           GGPO
TXBWIC20027-191950000262FESTIVAL WINDCHIMES           GGPO
TXBWIC20027-689800000043FESTIVAL WINDCHIMES           GGPO
TXBWIC20020-103670000114FLOPAK                        GGPO
TXBWIC20020-280090000180FLOPAK                        GGPO
TXBWIC20026-442160005661FOOTHILLS COMPOST LLC         GGPO
TXBWIC20021-919420002678FOXFARM SOIL & FERTILIZER CO. GGPO
TXBWIC20027-296400000454FOXFARM SOIL & FERTILIZER CO. GGPO
TXBWIC20027-296410000085FOXFARM SOIL & FERTILIZER CO. GGPO
TXBWIC20027-522890387423FOXFARM SOIL & FERTILIZER CO. GGPO
TXBWIC20028-579700000542FOXFARM SOIL & FERTILIZER CO. GGPO
TXBWIC20026-440120002773GALLAGHER                     GGPO
TXBWIC20026-444930017681GALLAGHER                     GGPO
TXBWIC20020-230770000720GARDENSCAPE INC               GGPO
TXBWIC20020-344170001801GARDENSCAPE INC               GGPO
TXBWIC20020-074540001845GARDMAN/WORLD SOURCE PARTNERS GGPO
TXBWIC20020-081450000252GARDMAN/WORLD SOURCE PARTNERS GGPO
TXBWIC20027-454870031093GARDMAN/WORLD SOURCE PARTNERS GGPO
TXBWIC20028-074540008252GARDMAN/WORLD SOURCE PARTNERS GGPO
TXBWIC20028-145670000532GARDMAN/WORLD SOURCE PARTNERS GGPO
TXBWIC20027-174820026430GARICK LLC                    GGPO
TXBWIC20020-738890002419GREEN GLO PRODUCTS            GGPO
TXBWIC20027-080560000056GREEN-TEK  INC                GGPO
TXBWIC20027-296400000213GREEN-TEK  INC                GGPO
TXBWIC20020-112470000088GROWERS FERTILIZER CORP       GGPO
TXBWIC20027-353900000264GROWTH PRODUCTS, LTD.         GGPO
TXBWIC20027-689800002772H & H FARM MACHINE CO.        GGPO
TXBWIC20020-230770000129HANES GEO COMPONENTS          GGPO
TXBWIC20020-238830000020HANES GEO COMPONENTS          GGPO
TXBWIC20020-364340000014HANES GEO COMPONENTS          GGPO
TXBWIC20020-373210000025HANES GEO COMPONENTS          GGPO
TXBWIC20020-726930000156HANES GEO COMPONENTS          GGPO
TXBWIC20020-843690000036HANES GEO COMPONENTS          GGPO
TXBWIC20027-174820000197HANES GEO COMPONENTS          GGPO
TXBWIC20027-427860000142HANES GEO COMPONENTS          GGPO
TXBWIC20020-946540000081HAPPINESS FARMS               GGPO
TXBWIC20020-532910003578HEADWIND CONSUMER PRODUCTS    GGPO
TXBWIC20021-005320001057HEADWIND CONSUMER PRODUCTS    GGPO
TXBWIC20025-081910000415HEADWIND CONSUMER PRODUCTS    GGPO
TXBWIC20020-851990014016HEATH MFG                     GGPO
TXBWIC20022-008510000028HEATH MFG                     GGPO
TXBWIC20027-427860000434HELENA CHEMICAL-GREENVILLE    GGPO
TXBWIC20020-400250001779HONEYWELL SAFETY PRODUCTS USA GGPO
TXBWIC20026-624980000429HONEYWELL SAFETY PRODUCTS USA GGPO
TXBWIC20028-839400000020HONEYWELL SAFETY PRODUCTS USA GGPO
TXBWIC20020-781590060334HOWARD JOHNSON, INC           GGPO
TXBWIC20020-437920009145HUNGENBERG PRODUCE            GGPO
TXBWIC20020-221790000064ICL SPECIALTY FERTILIZERS     GGPO
TXBWIC20020-322470002943ICL SPECIALTY FERTILIZERS     GGPO
TXBWIC20020-383130000058ICL SPECIALTY FERTILIZERS     GGPO
TXBWIC20020-422060000006ICL SPECIALTY FERTILIZERS     GGPO
TXBWIC20020-701830001668ICL SPECIALTY FERTILIZERS     GGPO
TXBWIC20020-715490000082ICL SPECIALTY FERTILIZERS     GGPO
TXBWIC20020-726930000308ICL SPECIALTY FERTILIZERS     GGPO
TXBWIC20020-728680000138ICL SPECIALTY FERTILIZERS     GGPO
TXBWIC20020-735610001639ICL SPECIALTY FERTILIZERS     GGPO
TXBWIC20020-848650000172ICL SPECIALTY FERTILIZERS     GGPO
TXBWIC20025-023530000325ICL SPECIALTY FERTILIZERS     GGPO
TXBWIC20026-870730006048ICL SPECIALTY FERTILIZERS     GGPO
TXBWIC20027-018350000036ICL SPECIALTY FERTILIZERS     GGPO
TXBWIC20027-154900000117ICL SPECIALTY FERTILIZERS     GGPO
TXBWIC20027-296400005130ICL SPECIALTY FERTILIZERS     GGPO
TXBWIC20027-296410001134ICL SPECIALTY FERTILIZERS     GGPO
TXBWIC20027-322210000059ICL SPECIALTY FERTILIZERS     GGPO
TXBWIC20027-356100000271ICL SPECIALTY FERTILIZERS     GGPO
TXBWIC20027-768960000144ICL SPECIALTY FERTILIZERS     GGPO
TXBWIC20020-333490002539JIFFY PRODUCTS OF AMERICA     GGPO
TXBWIC20027-000010000914JIFFY PRODUCTS OF AMERICA     GGPO
TXBWIC20027-296400034579JONES SEED COMPANY            GGPO
TXBWIC20027-296410006997JONES SEED COMPANY            GGPO
TXBWIC20027-396400000010JONES SEED COMPANY            GGPO
TXBWIC20020-305410002448JRM CHEMICAL                  GGPO
TXBWIC20020-778550000142KEELING COMPANY               GGPO
TXBWIC20020-353070000036KENTWOOD COOP                 GGPO
TXBWIC20020-487450000213KENTWOOD COOP                 GGPO
TXBWIC20020-727250000117KENTWOOD COOP                 GGPO
TXBWIC20020-730350000577KENTWOOD COOP                 GGPO
TXBWIC20020-789780000015KENTWOOD COOP                 GGPO
TXBWIC20028-579700000814KENTWOOD COOP                 GGPO
TXBWIC20020-322210002159L&M BAG & SUPPLY CO.          GGPO
TXBWIC20027-322210000276L&M BAG & SUPPLY CO.          GGPO
TXBWIC20020-238830000020LAMBERT PEAT MOSS, INC        GGPO
TXBWIC20020-353070000987LAMBERT PEAT MOSS, INC        GGPO
TXBWIC20020-364340000050LAMBERT PEAT MOSS, INC        GGPO
TXBWIC20020-383130000326LAMBERT PEAT MOSS, INC        GGPO
TXBWIC20020-400250000134LAMBERT PEAT MOSS, INC        GGPO
TXBWIC20020-642770000453LAMBERT PEAT MOSS, INC        GGPO
TXBWIC20020-664980120807LAMBERT PEAT MOSS, INC        GGPO
TXBWIC20020-715490000087LAMBERT PEAT MOSS, INC        GGPO
TXBWIC20020-730350000111LAMBERT PEAT MOSS, INC        GGPO
TXBWIC20026-649800001187LAMBERT PEAT MOSS, INC        GGPO
TXBWIC20026-902430000231LAMBERT PEAT MOSS, INC        GGPO
TXBWIC20027-427860000499LAMBERT PEAT MOSS, INC        GGPO
TXBWIC20020-230770001161LANDSCAPERS PRIDE             GGPO
TXBWIC20020-344170006492LANDSCAPERS PRIDE             GGPO
TXBWIC20020-886850013579LEBANON SEABOARD CORPORATION  GGPO
TXBWIC20020-336070003016LEWIS LIFETIME TOOLS          GGPO
TXBWIC20020-112470002673LIDOCHEM, INC                 GGPO
TXBWIC20028-579700000814LUMITE, INC.                  GGPO
TXBWIC20020-353070005639LUSTER LEAF PRODUCTS, INC     GGPO
TXBWIC20027-865410000240MADDOX SEED                   GGPO
TXBWIC20027-184770000985MATTRESS SAFE                 GGPO
TXBWIC20020-238830000166MEARS FERTILIZER, INC.        GGPO
TXBWIC20020-843690000034MEARS FERTILIZER, INC.        GGPO
TXBWIC20020-467530021260MEDINA AGRI PRODUCTS          GGPO
TXBWIC20021-919420000764MEDINA AGRI PRODUCTS          GGPO
TXBWIC20024-675300000144MEDINA AGRI PRODUCTS          GGPO
TXBWIC20020-280090038140MICHIGAN PEAT COMPANY         GGPO
TXBWIC20020-501970000451MICHIGAN PEAT COMPANY         GGPO
TXBWIC20020-726930000256MICHIGAN PEAT COMPANY         GGPO
TXBWIC20020-851990000059MICHIGAN PEAT COMPANY         GGPO
TXBWIC20020-874040000362MICHIGAN PEAT COMPANY         GGPO
TXBWIC20028-112140000064MICHIGAN PEAT COMPANY         GGPO
TXBWIC20028-141740000210MICHIGAN PEAT COMPANY         GGPO
TXBWIC20020-230770003000MICOBE INC.                   GGPO
TXBWIC20020-843690035136MILLER MANUFACTURING CO       GGPO
TXBWIC20020-857650011006MILLER MANUFACTURING CO       GGPO
TXBWIC20021-008430000008MILLER MANUFACTURING CO       GGPO
TXBWIC20026-592760004334MILLER MANUFACTURING CO       GGPO
TXBWIC20027-311410000351MILLER MANUFACTURING CO       GGPO
TXBWIC20028-436900000568MILLER MANUFACTURING CO       GGPO
TXBWIC20028-436910001080MILLER MANUFACTURING CO       GGPO
TXBWIC20020-465390011642MILORGANITE DIVISION -        GGPO
TXBWIC20020-728680000116MK MINERALS, INC.             GGPO
TXBWIC20026-511240000316MK MINERALS, INC.             GGPO
TXBWIC20026-870730000646MK MINERALS, INC.             GGPO
TXBWIC20027-689800001426MK MINERALS, INC.             GGPO
TXBWIC20020-353070000011MODINE MFG COMPANY            GGPO
TXBWIC20020-465390000274MONSANTO AG GROUP             GGPO
TXBWIC20027-322210000416MONTEREY L & G PRODUCTS, INC  GGPO
TXBWIC20028-744800000008MONTEREY L & G PRODUCTS, INC  GGPO
TXBWIC20020-103670004020MOSSER LEE                    GGPO
TXBWIC20020-364340000034MOULTRIE FEEDERS INC          GGPO
TXBWIC20020-383130000230MOULTRIE FEEDERS INC          GGPO
TXBWIC20027-296410000043MOULTRIE FEEDERS INC          GGPO
TXBWIC20026-300880008760MR. BIRD INC.                 GGPO
TXBWIC20020-236260002447NEOGEN CORPORATION            GGPO
TXBWIC20020-952420040323NEOGEN CORPORATION            GGPO
TXBWIC20020-952520007963NEOGEN CORPORATION            GGPO
TXBWIC20022-362600000238NEOGEN CORPORATION            GGPO
TXBWIC20020-269780000505NOVELTY MANUFACTURING CO      GGPO
TXBWIC20021-002690000022NOVELTY MANUFACTURING CO      GGPO
TXBWIC20020-353070000073NURSERY SUPPLIES, INC.        GGPO
TXBWIC20020-383130000460NURSERY SUPPLIES, INC.        GGPO
TXBWIC20020-709230000087NURSERY SUPPLIES, INC.        GGPO
TXBWIC20020-726930001413NURSERY SUPPLIES, INC.        GGPO
TXBWIC20020-786270000071NURSERY SUPPLIES, INC.        GGPO
TXBWIC20020-857650000080NURSERY SUPPLIES, INC.        GGPO
TXBWIC20021-919420000892NURSERY SUPPLIES, INC.        GGPO
TXBWIC20027-184770000756NURSERY SUPPLIES, INC.        GGPO
TXBWIC20027-322210000456NURSERY SUPPLIES, INC.        GGPO
TXBWIC20027-689800000192NURSERY SUPPLIES, INC.        GGPO
TXBWIC20027-768960000491NURSERY SUPPLIES, INC.        GGPO
TXBWIC20020-230770007860O'NEALS FARM & GARDEN         GGPO
TXBWIC20021-005320000760O'NEALS FARM & GARDEN         GGPO
TXBWIC20020-353070000048OLD FARMER'S ALMANAC          GGPO
TXBWIC20020-532910000058OLD FARMER'S ALMANAC          GGPO
TXBWIC20020-537440000381OLD FARMER'S ALMANAC          GGPO
TXBWIC20020-230770059096OLDCASTLE LAWN & GARDEN       GGPO
TXBWIC20020-236260000140OLDCASTLE LAWN & GARDEN       GGPO
TXBWIC20020-344170000826OLDCASTLE LAWN & GARDEN       GGPO
TXBWIC20020-353070000215OLDCASTLE LAWN & GARDEN       GGPO
TXBWIC20020-487450000416OLDCASTLE LAWN & GARDEN       GGPO
TXBWIC20020-642770009560OLDCASTLE LAWN & GARDEN       GGPO
TXBWIC20020-726930000228OLDCASTLE LAWN & GARDEN       GGPO
TXBWIC20020-818180024232OLDCASTLE LAWN & GARDEN       GGPO
TXBWIC20020-848650000075OLDCASTLE LAWN & GARDEN       GGPO
TXBWIC20021-869550000050OLDCASTLE LAWN & GARDEN       GGPO
TXBWIC20027-256090000577OLDCASTLE LAWN & GARDEN       GGPO
TXBWIC20027-322210000421OLDCASTLE LAWN & GARDEN       GGPO
TXBWIC20027-427860138386OLDCASTLE LAWN & GARDEN       GGPO
TXBWIC20027-681030000144OLDCASTLE LAWN & GARDEN       GGPO
TXBWIC20020-273240000243OLDCASTLE STONE PRODUCTS      GGPO
TXBWIC20020-396450000485OLDCASTLE STONE PRODUCTS      GGPO
TXBWIC20027-174820007533OLDCASTLE STONE PRODUCTS      GGPO
TXBWIC20026-510820006767ORIGIN POINT BRANDS, LLC      GGPO
TXBWIC20026-902470000015OUTDOOR INTERIORS             GGPO
TXBWIC20020-725250004810P.F. HARRIS MANUFACTURING CO  GGPO
TXBWIC20020-727250005846P.F. HARRIS MANUFACTURING CO  GGPO
TXBWIC20021-007270000345P.F. HARRIS MANUFACTURING CO  GGPO
TXBWIC20020-642770015415PALMETTO VERMICULITE, INC     GGPO
TXBWIC20020-934320000939PANACEA PRODUCTS CORPORATION  GGPO
TXBWIC20020-353070000338PARAGON PROFESSIONAL PC       GGPO
TXBWIC20027-322210000076PARAGON PROFESSIONAL PC       GGPO
TXBWIC20027-211040036975PATTEN SEED CO                GGPO
TXBWIC20020-851990000879PATTERSON WOOD PRODUCTS, INC. GGPO
TXBWIC20020-702510003528PBI/GORDON CORP.              GGPO
TXBWIC20027-502270001023PHYTOTRONICS, INC             GGPO
TXBWIC20021-919420000892PICKSEED WEST, INC            GGPO
TXBWIC20027-264820004487PLANT MATES, LLC              GGPO
TXBWIC20020-725320038378PLANTATION PRODUCTS LLC       GGPO
TXBWIC20025-077550003494PLANTBEST INC                 GGPO
TXBWIC20027-755780000068PLANTBEST INC                 GGPO
TXBWIC20020-730350000643POPPELMANN PLASTICS           GGPO
TXBWIC20027-322210000974POPPELMANN PLASTICS           GGPO
TXBWIC20027-689800000829POPPELMANN PLASTICS           GGPO
TXBWIC20020-851990001470PREMIER KITES & DESIGNS       GGPO
TXBWIC20020-322210000087PREMIER TECH HORTICULTURE     GGPO
TXBWIC20020-537440000035PREMIER TECH HORTICULTURE     GGPO
TXBWIC20020-715490000251PREMIER TECH HORTICULTURE     GGPO
TXBWIC20020-952420000134PREMIER TECH HORTICULTURE     GGPO
TXBWIC20027-191950000025PREMIER TECH HORTICULTURE     GGPO
TXBWIC20027-322210000383PREMIER TECH HORTICULTURE     GGPO
TXBWIC20027-423840000050PREMIER TECH HORTICULTURE     GGPO
TXBWIC20028-579700000407PREMIER TECH HORTICULTURE     GGPO
TXBWIC20028-744800000136PREMIER TECH HORTICULTURE     GGPO
TXBWIC20020-103670000108PRICE BEVILLE SMITH           GGPO
TXBWIC20020-238830000072PRICE BEVILLE SMITH           GGPO
TXBWIC20020-306410000040PRICE BEVILLE SMITH           GGPO
TXBWIC20020-329030000027PRICE BEVILLE SMITH           GGPO
TXBWIC20020-353070000064PRICE BEVILLE SMITH           GGPO
TXBWIC20020-364340000333PRICE BEVILLE SMITH           GGPO
TXBWIC20020-383130000088PRICE BEVILLE SMITH           GGPO
TXBWIC20020-400250000160PRICE BEVILLE SMITH           GGPO
TXBWIC20020-422060000030PRICE BEVILLE SMITH           GGPO
TXBWIC20020-425790004395PRICE BEVILLE SMITH           GGPO
TXBWIC20020-501970000032PRICE BEVILLE SMITH           GGPO
TXBWIC20020-726930000306PRICE BEVILLE SMITH           GGPO
TXBWIC20020-738890000086PRICE BEVILLE SMITH           GGPO
TXBWIC20020-843690000150PRICE BEVILLE SMITH           GGPO
TXBWIC20020-857650000021PRICE BEVILLE SMITH           GGPO
TXBWIC20020-874040000517PRICE BEVILLE SMITH           GGPO
TXBWIC20027-203430000010PRICE BEVILLE SMITH           GGPO
TXBWIC20027-256090000972PRICE BEVILLE SMITH           GGPO
TXBWIC20027-322210000496PRICE BEVILLE SMITH           GGPO
TXBWIC20027-689800000085PRICE BEVILLE SMITH           GGPO
TXBWIC20027-896660000093PRICE BEVILLE SMITH           GGPO
TXBWIC20028-164030000009PRICE BEVILLE SMITH           GGPO
TXBWIC20028-744800000118PRICE BEVILLE SMITH           GGPO
TXBWIC20027-296400000280PRIMESOURCE BUILDING PRO.INC. GGPO
TXBWIC20027-296410000339PRIMESOURCE BUILDING PRO.INC. GGPO
TXBWIC20020-910530000943PRINCIPLE PLASTICS            GGPO
TXBWIC20020-851990002048PRO GROUNDS MGT SERVICES LLC  GGPO
TXBWIC20020-238830000040PRO-SERVE, INC.               GGPO
TXBWIC20020-715490000069PRO-SERVE, INC.               GGPO
TXBWIC20020-735610000026PRO-SERVE, INC.               GGPO
TXBWIC20027-269300000921PRO-SERVE, INC.               GGPO
TXBWIC20027-269320000117PRO-SERVE, INC.               GGPO
TXBWIC20027-322210000181PRO-SERVE, INC.               GGPO
TXBWIC20027-865410000148PRO-SERVE, INC.               GGPO
TXBWIC20028-042730000716PRODUCER'S COOP               GGPO
TXBWIC20028-579700000135PROGROW SUPPLY, LLC           GGPO
TXBWIC20027-610490000471PYGAR USA INC.                GGPO
TXBWIC20027-839290006814PYGAR USA INC.                GGPO
TXBWIC20027-126260005577RED HILL LAVA PRODUCTS, INC   GGPO
TXBWIC20028-042730037620RITEPACK INC                  GGPO
TXBWIC20021-927720001227ROZELL SPRAYER MFG            GGPO
TXBWIC20021-933840000952ROZELL SPRAYER MFG            GGPO
TXBWIC20020-730350000286RPC BPI.AGRICULTURE           GGPO
TXBWIC20027-689800066438SANCO INDUSTRIES, INC.        GGPO
TXBWIC20026-870730020100SBM LIFE SCIENCE CORP/BAYER   GGPO
TXBWIC20027-502270000744SENNINGER IRRIGATION          GGPO
TXBWIC20020-353070000145SENSIENT COLORS LLC           GGPO
TXBWIC20020-708050002880SHAFER SEED COMPANY           GGPO
TXBWIC20027-080560000420SHAFER SEED COMPANY           GGPO
TXBWIC20027-768960131077SHAFER SEED COMPANY           GGPO
TXBWIC20027-141830004745SHAKE AWAY                    GGPO
TXBWIC20020-364340002993SMITHERS-OASIS                GGPO
TXBWIC20021-003640000133SMITHERS-OASIS                GGPO
TXBWIC20020-364340000153SOLO, INCORPORATED            GGPO
TXBWIC20020-422060000046SOLO, INCORPORATED            GGPO
TXBWIC20027-203430000297SOLO, INCORPORATED            GGPO
TXBWIC20026-841430003204SOUTHERN PATIO                GGPO
TXBWIC20020-718980014590SPECIALTY FEEDS INC           GGPO
TXBWIC20020-642770013290SPECIALTY VERMICULITE CORP.   GGPO
TXBWIC20026-990640004043ST. GABRIEL ORGANICS          GGPO
TXBWIC20020-353070000048STONECASTER, LLC              GGPO
TXBWIC20020-532910000349STONECASTER, LLC              GGPO
TXBWIC20020-777840000009STONECASTER, LLC              GGPO
TXBWIC20020-185060034916SUMMIT CHEMICAL COMPANY       GGPO
TXBWIC20020-778550000755SUPERIOR CONTROLS CO, INC.    GGPO
TXBWIC20020-786270017882SWAN PRODUCTS, LLC            GGPO
TXBWIC20028-144850000195SWISH, INCORPORATED           GGPO
TXBWIC20028-164030000601SWISH, INCORPORATED           GGPO
TXBWIC20020-306410000063SYNGENTA                      GGPO
TXBWIC20020-373210000047SYNGENTA                      GGPO
TXBWIC20020-532910002690SYNGENTA                      GGPO
TXBWIC20020-642770000475SYNGENTA                      GGPO
TXBWIC20020-718980000248SYNGENTA                      GGPO
TXBWIC20020-728680000043SYNGENTA                      GGPO
TXBWIC20020-843690000522SYNGENTA                      GGPO
TXBWIC20021-005320000067SYNGENTA                      GGPO
TXBWIC20027-522890000189SYNGENTA                      GGPO
TXBWIC20027-865410000062SYNGENTA                      GGPO
TXBWIC20028-164030000103SYNGENTA                      GGPO
TXBWIC20020-364340000017SYNGENTA CROP PROTECTION, LLC GGPO
TXBWIC20020-383130000019SYNGENTA CROP PROTECTION, LLC GGPO
TXBWIC20020-400250000053SYNGENTA CROP PROTECTION, LLC GGPO
TXBWIC20020-946540000015SYNGENTA CROP PROTECTION, LLC GGPO
TXBWIC20027-865410000165SYNGENTA PCS                  GGPO
TXBWIC20020-004020000003T.O. PLASTICS, INC.           GGPO
TXBWIC20020-353070000015T.O. PLASTICS, INC.           GGPO
TXBWIC20020-373210001628T.O. PLASTICS, INC.           GGPO
TXBWIC20020-383130000116T.O. PLASTICS, INC.           GGPO
TXBWIC20020-437920000409T.O. PLASTICS, INC.           GGPO
TXBWIC20020-664980000030T.O. PLASTICS, INC.           GGPO
TXBWIC20020-728680000015T.O. PLASTICS, INC.           GGPO
TXBWIC20020-735610000043T.O. PLASTICS, INC.           GGPO
TXBWIC20020-843690000028T.O. PLASTICS, INC.           GGPO
TXBWIC20020-857650000130T.O. PLASTICS, INC.           GGPO
TXBWIC20026-649800000017T.O. PLASTICS, INC.           GGPO
TXBWIC20027-322210000092T.O. PLASTICS, INC.           GGPO
TXBWIC20027-591880000311T.O. PLASTICS, INC.           GGPO
TXBWIC20027-709320000034T.O. PLASTICS, INC.           GGPO
TXBWIC20027-865410000033T.O. PLASTICS, INC.           GGPO
TXBWIC20028-155620000062T.O. PLASTICS, INC.           GGPO
TXBWIC20020-322210000153TARTER                        GGPO
TXBWIC20020-373210000120TARTER                        GGPO
TXBWIC20027-269300000046TARTER                        GGPO
TXBWIC20020-537440001526TEXAS BASKET COMPANY          GGPO
TXBWIC20020-726930006942THE ANDERSONS                 GGPO
TXBWIC20020-866210000117THE ANDERSONS                 GGPO
TXBWIC20027-322210000467THE ANDERSONS                 GGPO
TXBWIC20021-124750000200THE CASTOLEUM CORPORATION     GGPO
TXBWIC20020-003640005523THE DRAMM COMPANY-RETAIL      GGPO
TXBWIC20020-364340071986THE DRAMM COMPANY-RETAIL      GGPO
TXBWIC20021-003640016767THE DRAMM COMPANY-RETAIL      GGPO
TXBWIC20020-322210002159THE ESPOMA COMPANY            GGPO
TXBWIC20020-501970045199THE ESPOMA COMPANY            GGPO
TXBWIC20020-726930000364THE ESPOMA COMPANY            GGPO
TXBWIC20025-019700000316THE ESPOMA COMPANY            GGPO
TXBWIC20020-353070000390THE HC COMPANIES INC          GGPO
TXBWIC20020-501970000068THE HC COMPANIES INC          GGPO
TXBWIC20020-851990001028THE HC COMPANIES INC          GGPO
TXBWIC20021-919420012733THE HC COMPANIES INC          GGPO
TXBWIC20027-502270005913THE HC COMPANIES INC          GGPO
TXBWIC20020-329030015224THE HC COMPANIES, INC         GGPO
TXBWIC20020-565540000374THE HC COMPANIES, INC         GGPO
TXBWIC20027-709320001107THE HC COMPANIES, INC         GGPO
TXBWIC20020-230770002520THE MULCH AND SOIL COMPANY    GGPO
TXBWIC20020-383130000438THE MULCH AND SOIL COMPANY    GGPO
TXBWIC20027-256090000074THE MULCH AND SOIL COMPANY    GGPO
TXBWIC20020-322470230727THE SCOTTS COMPANY-RETAIL DIV GGPO
TXBWIC20020-368650012489THE SCOTTS COMPANY-RETAIL DIV GGPO
TXBWIC20020-487450002136THE SCOTTS COMPANY-RETAIL DIV GGPO
TXBWIC20020-701830062840THE SCOTTS COMPANY-RETAIL DIV GGPO
TXBWIC20020-714590011994THE SCOTTS COMPANY-RETAIL DIV GGPO
TXBWIC20020-715490024007THE SCOTTS COMPANY-RETAIL DIV GGPO
TXBWIC20020-726930000136THE SCOTTS COMPANY-RETAIL DIV GGPO
TXBWIC20020-728680000112THE SCOTTS COMPANY-RETAIL DIV GGPO
TXBWIC20020-735610037177THE SCOTTS COMPANY-RETAIL DIV GGPO
TXBWIC20020-851990000558THE SCOTTS COMPANY-RETAIL DIV GGPO
TXBWIC20023-224700000628THE SCOTTS COMPANY-RETAIL DIV GGPO
TXBWIC20023-224710000144THE SCOTTS COMPANY-RETAIL DIV GGPO
TXBWIC20023-224740000042THE SCOTTS COMPANY-RETAIL DIV GGPO
TXBWIC20023-224780006780THE SCOTTS COMPANY-RETAIL DIV GGPO
TXBWIC20027-154900011128THE SCOTTS COMPANY-RETAIL DIV GGPO
TXBWIC20027-322210000119THE SCOTTS COMPANY-RETAIL DIV GGPO
TXBWIC20027-356100006369THE SCOTTS COMPANY-RETAIL DIV GGPO
TXBWIC20027-356130001231THE SCOTTS COMPANY-RETAIL DIV GGPO
TXBWIC20028-886030006817THE SCOTTS COMPANY-RETAIL DIV GGPO
TXBWIC20020-322470000057TRAY MASTERS                  GGPO
TXBWIC20028-744800070158TUFF STUFF PRODUCTS, INC.     GGPO
TXBWIC20020-322470000026VALHOMA CORPORATION           GGPO
TXBWIC20020-364340000004VALHOMA CORPORATION           GGPO
TXBWIC20020-537440000036VALHOMA CORPORATION           GGPO
TXBWIC20020-726930000539VALHOMA CORPORATION           GGPO
TXBWIC20020-866210000116VALHOMA CORPORATION           GGPO
TXBWIC20027-269300000634VALHOMA CORPORATION           GGPO
TXBWIC20027-322210000031VALHOMA CORPORATION           GGPO
TXBWIC20027-522890000097VALHOMA CORPORATION           GGPO
TXBWIC20028-144850004483VALLEY INDUSTRIES             GGPO
TXBWIC20028-148500000186VALLEY INDUSTRIES             GGPO
TXBWIC20028-164030007872VALLEY INDUSTRIES             GGPO
TXBWIC20027-681030000144VERITIV OPERATING COMPANY     GGPO
TXBWIC20027-689800000097VERITIV OPERATING COMPANY     GGPO
TXBWIC20020-322210047825VOLUNTARY PURCHASING          GGPO
TXBWIC20020-501970001054VOLUNTARY PURCHASING          GGPO
TXBWIC20020-726930002810VOLUNTARY PURCHASING          GGPO
TXBWIC20027-322210845123VOLUNTARY PURCHASING          GGPO
TXBWIC20027-322240000420VOLUNTARY PURCHASING          GGPO
TXBWIC20027-423840000452VOLUNTARY PURCHASING          GGPO
TXBWIC20020-726930000369WADSWORTH CONTROL SYSTEMS     GGPO
TXBWIC20027-322210000116WADSWORTH CONTROL SYSTEMS     GGPO
TXBWIC20027-423840000148WADSWORTH CONTROL SYSTEMS     GGPO
TXBWIC20020-946540006361WALDO & ASSOCIATES, INC.      GGPO
TXBWIC20026-890760004457WEST TEXAS FEEDER SUPPLY      GGPO
TXBWIC20020-503490001836WESTERN PULP PROD             GGPO
TXBWIC20022-005030000144WESTERN PULP PROD             GGPO
TXBWIC20027-502270001024WEYCO GROUP                   GGPO
TXBWIC20020-246540002494WOODSTREAM CORPORATION        GGPO
TXBWIC20020-363480001267WOODSTREAM CORPORATION        GGPO
TXBWIC20020-709230001764WOODSTREAM CORPORATION        GGPO
TXBWIC20020-710920000126WOODSTREAM CORPORATION        GGPO
TXBWIC20020-728680017777WOODSTREAM CORPORATION        GGPO
TXBWIC20020-789780003075WOODSTREAM CORPORATION        GGPO
TXBWIC20027-438600000264WOODSTREAM CORPORATION        GGPO
