NJARET20120-03831-30083-70000006D0000184D0000900004BP6250    GGSL
NJARET20120-10052-00333-10001320D0004607D001790001200333     GGSL
NJARET20120-10367-00001-80000015D0000062D00026000060001      GGSL
NJARET20120-10367-00110-70000672D0004435D00123000370110      GGSL
NJARET20120-10367-00150-30000007D0000204D00001000010150      GGSL
NJARET20120-10367-00300-20000012D0000108D00000000000300      GGSL
NJARET20120-10367-00460-30000032D0000153D000020000104608     GGSL
NJARET20120-10367-00550-10000048D0000140D00003000000550      GGSL
NJARET20120-10367-00560-00000144D0000528D000420002405608     GGSL
NJARET20120-10367-00810-60000048D0000273D0000500000ML0810    GGSL
NJARET20120-10367-01000-00000012D0000166D00001000001000      GGSL
NJARET20120-10367-01110-60000096D0000317D00017000051110      GGSL
NJARET20120-10367-01111-30000176D0000582D00095000081111      GGSL
NJARET20120-10367-01112-00000088D0000302D00106000051112      GGSL
NJARET20120-10367-01120-50000392D0001130D00089000291120      GGSL
NJARET20120-10367-01121-20000160D0000942D00016000061121      GGSL
NJARET20120-10367-01122-90000152D0000895D00056000061122      GGSL
NJARET20120-10367-01130-40000200D0001082D00032000121130      GGSL
NJARET20120-10367-01140-30000088D0000296D00018000031140      GGSL
NJARET20120-10367-01151-90000096D0000322D00033000081151      GGSL
NJARET20120-10367-01160-10000072D0000563D00009000041160      GGSL
NJARET20120-10367-01230-10000012D0000049D00013000121230      GGSL
NJARET20120-10367-01240-00000492D0002910D00001000011240      GGSL
NJARET20120-10367-02141-90000008D0000038D0000200001ML2141    GGSL
NJARET20120-10367-02151-80000016D0000120D0001000002ML2151    GGSL
NJARET20120-10367-02161-70000008D0000055D0000000000ML2161    GGSL
NJARET20120-10367-02162-40000016D0000109D0001600001ML2162    GGSL
NJARET20120-10367-02163-10000008D0000055D0001600002ML2163    GGSL
NJARET20120-10367-02171-60000024D0000164D0001300001ML2171    GGSL
NJARET20120-10367-02181-50000016D0000109D0002500002ML2181    GGSL
NJARET20120-10367-03997-10000003D0001648D00014000033997      GGSL
NJARET20120-10496-40014-70000020D0000161D0000000000290       GGSL
NJARET20120-11192-10594-70000016D0000416D0000400001KHEATMAT  GGSL
NJARET20120-11192-10595-40000018D0000718D0000000000KLIGHT    GGSL
NJARET20120-11192-60378-80000018D0000148D0000000000WFSU18    GGSL
NJARET20120-11192-86001-30000048D0000365D0000000000TPOT24    GGSL
NJARET20120-11192-86019-80000024D0000181D0004700002KMG6      GGSL
NJARET20120-12587-79008-30000012D0000106D000830000079008     GGSL
NJARET20120-14021-00736-80000010D0000057D00000000007110      GGSL
NJARET20120-14021-01316-10000010D0000086D00000000002100      GGSL
NJARET20120-14400-10747-40000010D0000018D00004000001440010747GGSL
NJARET20120-14400-71065-00000012D0000054D00000000001440071065GGSL
NJARET20120-14400-71365-10000012D0000054D00011000001440071365GGSL
NJARET20120-16069-00002-80000012D0000086D0000500001NEOR      GGSL
NJARET20120-16069-00005-90000252D0001813D0006400017TP15C     GGSL
NJARET20120-16069-00007-30000444D0002957D0011600030BN1       GGSL
NJARET20120-16069-00008-00000528D0003516D0029800039BN2       GGSL
NJARET20120-16069-00013-40000030D0000864D0008000004BN3       GGSL
NJARET20120-16069-00014-10000138D0002978D0007600011BN4       GGSL
NJARET20120-16069-00015-80000024D0000691D0001700005BN5       GGSL
NJARET20120-16069-00019-60000084D0000966D0004100014TP30C     GGSL
NJARET20120-16069-00030-10000012D0000158D0002200008OW6       GGSL
NJARET20120-16069-00038-70000012D0000112D0000100001GF1015    GGSL
NJARET20120-16069-00049-30000210D0003929D0025500010DX7       GGSL
NJARET20120-16069-00050-90000048D0001382D0002000004DX14      GGSL
NJARET20120-16069-00060-80000060D0000172D0000200000RAP15     GGSL
NJARET20120-16069-00072-10000024D0000160D0000900001TSD12     GGSL
NJARET20120-16069-00076-90000072D0000444D0001700001PN10      GGSL
NJARET20120-16069-00077-60000060D0000629D0004800002PN14      GGSL
NJARET20120-16069-00110-00000015D0000242D0001700011PF3       GGSL
NJARET20120-16069-00204-60000056D0000714D0000100001WS2050    GGSL
NJARET20120-16069-00218-30000120D0000690D0005800004HST100    GGSL
NJARET20120-16069-00306-70000040D0000480D0000200002WS1050    GGSL
NJARET20120-16069-00358-60000001D0000072D0000200001GS51000   GGSL
NJARET20120-16069-00393-70000264D0000950D0009900025GS20      GGSL
NJARET20120-16069-00393-70000036D0000129D0000400000GS20C     GGSL
NJARET20120-16069-00401-90000112D0001047D0003000011GF4050    GGSL
NJARET20120-16069-00436-10000105D0000279D0000700003TWST100   GGSL
NJARET20120-16069-00446-00000024D0000245D0000100001RC168W    GGSL
NJARET20120-16069-00468-20000100D0000224D0000300002HCK50     GGSL
NJARET20120-16069-00474-30000264D0001745D0000300006GS40BW    GGSL
NJARET20120-16069-00478-10000004D0000173D0000300000SRHO4     GGSL
NJARET20120-16069-00479-80000140D0002665D0001100007E316B     GGSL
NJARET20120-16069-00480-40000036D0000181D0000300002SPT15     GGSL
NJARET20120-16069-00485-90000048D0000104D0000400003GS1024    GGSL
NJARET20120-16069-00494-10000028D0000262D0001800000GFST4050  GGSL
NJARET20120-16069-00498-90000042D0000453D0003500007HGP1012   GGSL
NJARET20120-16069-00499-60000016D0000288D0000800002HGP1020   GGSL
NJARET20120-16069-00504-70000030D0000059D0000200000TG130W    GGSL
NJARET20120-16069-00507-80000036D0000388D0000600002TPSM15    GGSL
NJARET20120-16069-00518-40000024D0000121D0000800002SG2512    GGSL
NJARET20120-16069-00519-10000012D0000086D0000200000SPB56     GGSL
NJARET20120-16069-00550-40000060D0000794D0001400006TRWTW     GGSL
NJARET20120-16069-00581-80000010D0000312D0000000000POPNET2   GGSL
NJARET20120-16069-00585-60000012D0000069D0000500001DCLLF412  GGSL
NJARET20120-16069-00622-80000012D0000048D0001100004CP612     GGSL
NJARET20120-16069-00625-90000012D0000345D0000100000DXP12     GGSL
NJARET20120-16069-00667-90000044D0000937D0005800032RH04US    GGSL
NJARET20120-16500-98041-40000024D0000027D001420000098041     GGSL
NJARET20120-17500-08120-00000108D0000158D002790000008120     GGSL
NJARET20120-17500-08150-70000564D0000790D000000000008150     GGSL
NJARET20120-17500-90206-20000042D0000890D000450003990206     GGSL
NJARET20120-17500-91316-70000024D0000459D001130000391316     GGSL
NJARET20120-17500-91334-10000004D0000089D000120000591334     GGSL
NJARET20120-17500-91360-00000024D0000207D000030000191360     GGSL
NJARET20120-17500-91362-40000012D0000115D000070000491362     GGSL
NJARET20120-17500-91367-90000012D0000098D000010000191367     GGSL
NJARET20120-17500-91714-10000076D0001657D000820000791714     GGSL
NJARET20120-17500-95204-30000004D0000079D000530000495204     GGSL
NJARET20120-17500-95314-90000032D0000858D000080000395314     GGSL
NJARET20120-18062-00019-70000024D0000107D0000400003PT06MCCS  GGSL
NJARET20120-18222-00017-30000006D0000738D0001900000PP17      GGSL
NJARET20120-18222-00101-90000030D0000092D0005500001CS06101   GGSL
NJARET20120-18222-00103-30000084D0000256D0005100010CS06103   GGSL
NJARET20120-18222-00105-70000132D0000403D0010500010CS06105   GGSL
NJARET20120-18222-00107-10000072D0000283D0002700000CS06107   GGSL
NJARET20120-18222-00109-50000102D0000311D0004600001CS06109   GGSL
NJARET20120-18222-00110-10000066D0000202D0002800005CS06110   GGSL
NJARET20120-18222-00206-10000030D0000142D0000200000CS06206   GGSL
NJARET20120-18222-00208-50000006D0000029D0000200000CS06208   GGSL
NJARET20120-18222-00213-90000072D0000294D0000500005CS06213   GGSL
NJARET20120-18222-00226-90000024D0000064D0000600000CS04226   GGSL
NJARET20120-18222-00228-30000020D0000054D0000300000CS04228   GGSL
NJARET20120-18222-00246-70000036D0000215D0000500000CS246     GGSL
NJARET20120-18222-00405-80000023D0000293D0000600000CS01405   GGSL
NJARET20120-18222-00501-70001188D0001564D0010000007CS12501   GGSL
NJARET20120-18222-00503-10000240D0000493D0000600000CS503     GGSL
NJARET20120-18222-00505-50000276D0000303D0003600005CS12505   GGSL
NJARET20120-18222-00507-90000528D0000719D0006300017CS12507   GGSL
NJARET20120-18222-00509-30000708D0001172D0013300054CS12509   GGSL
NJARET20120-18222-00513-00000036D0000074D0000000000CS12513   GGSL
NJARET20120-18222-00526-00000360D0001099D0003300000CS06526   GGSL
NJARET20120-18222-00527-70000768D0001000D0014200068CS12527   GGSL
NJARET20120-18222-00529-10000228D0000389D0000100001CS12529   GGSL
NJARET20120-18222-00531-40000336D0000740D0012900009CS12531   GGSL
NJARET20120-18222-00535-20000096D0000127D0005000009CS12535   GGSL
NJARET20120-18222-00543-70000144D0000197D0001000002CS12543   GGSL
NJARET20120-18222-00545-10000120D0000212D0000200002CS12545   GGSL
NJARET20120-18222-00553-60001680D0002859D0004300043CS12553   GGSL
NJARET20120-18222-00559-80000348D0000455D0009400044CS12559   GGSL
NJARET20120-18222-00561-10000120D0000158D0001100000CS12561   GGSL
NJARET20120-18222-00563-50000324D0000543D0003900040CS12563   GGSL
NJARET20120-18222-00565-90000408D0000673D0000000000CS12565   GGSL
NJARET20120-18222-00566-60000024D0000044D0000200001CS12566   GGSL
NJARET20120-18222-00569-70000828D0001423D0008300047CS12569   GGSL
NJARET20120-18222-00571-00000108D0000226D0000600000CS12571   GGSL
NJARET20120-18222-00583-30000456D0000957D0009300044CS12583   GGSL
NJARET20120-18222-00608-30000012D0000044D0000200000CS608     GGSL
NJARET20120-18222-00610-60000012D0000056D0000200000CS610     GGSL
NJARET20120-18222-00680-90000024D0000056D0000100000CS12680   GGSL
NJARET20120-18222-00701-10000152D0000262D0003800004CS701     GGSL
NJARET20120-18222-00707-30000040D0000120D0000900001CS707     GGSL
NJARET20120-18222-00709-70000006D0000029D0000200000CS709     GGSL
NJARET20120-18222-00727-10000006D0000041D0000400001CS727     GGSL
NJARET20120-18222-00730-10000088D0000174D0015600061CS730     GGSL
NJARET20120-18222-00749-30000060D0000335D0000600000CS749     GGSL
NJARET20120-18222-00750-90000008D0000082D0000100001CS750     GGSL
NJARET20120-18222-00753-00000048D0000247D0002600002CS753     GGSL
NJARET20120-18222-00755-40000056D0000190D0000000000CS755     GGSL
NJARET20120-18222-00770-70000012D0000093D0000000000CS770     GGSL
NJARET20120-18222-00950-30000192D0000184D0000000000CS950     GGSL
NJARET20120-18222-00954-10000016D0000087D0000000000CS08954   GGSL
NJARET20120-18222-50501-20000060D0000066D0011700003CS1250501XGGSL
NJARET20120-18222-50527-20000036D0000040D0004100028CS1250527XGGSL
NJARET20120-18222-50559-30000240D0000264D0015800011CS1250559XGGSL
NJARET20120-18506-00019-60000006D0000054D00000000000196      GGSL
NJARET20120-18506-00021-90000006D0000097D00003000030216      GGSL
NJARET20120-18506-00102-50000060D0000262D000700000110212     GGSL
NJARET20120-18506-00110-00000096D0000714D001180000111012     GGSL
NJARET20120-18506-00116-20000504D0003523D000520001511612     GGSL
NJARET20120-18506-00117-90000072D0000773D00058000121176      GGSL
NJARET20120-18506-00122-30000036D0000198D0002900020122       GGSL
NJARET20120-18506-00123-00000060D0000331D0002500022123       GGSL
NJARET20120-18506-00130-80000108D0000601D0003600001130       GGSL
NJARET20120-18506-00135-30000006D0000088D0001200000135       GGSL
NJARET20120-18506-01139-00000008D0000086D00001000011139      GGSL
NJARET20120-18506-01140-60000004D0000066D00001000011140      GGSL
NJARET20120-18506-02000-20000012D0000085D00003000012000      GGSL
NJARET20120-18506-02001-90000006D0000069D00039000002001      GGSL
NJARET20120-19200-00095-60000036D0000087D002710000000027     GGSL
NJARET20120-19200-00619-40000024D0000092D013970000100706     GGSL
NJARET20120-19200-78033-90000006D0000025D00158000001920078033GGSL
NJARET20120-19200-79838-90000006D0000029D001780000079838     GGSL
NJARET20120-19200-83262-50000048D0000194D00126000021920082362GGSL
NJARET20120-19200-83721-70000004D0000010D000000000083721     GGSL
NJARET20120-19200-83722-40000004D0000012D003350000083722     GGSL
NJARET20120-19200-89973-40000008D0000136D000370000089973     GGSL
NJARET20120-19200-98342-60000036D0000163D000590000099427     GGSL
NJARET20120-19200-98665-60000064D0000284D001210000098665     GGSL
NJARET20120-19200-98666-30000040D0000244D000800000098666     GGSL
NJARET20120-19236-29050-50000001D0000307D00000000002905      GGSL
NJARET20120-19263-25010-70000003D0000214D00000000002501      GGSL
NJARET20120-19263-25012-10000003D0000269D0000000000250125    GGSL
NJARET20120-19263-25030-50000007D0000830D00001000012503      GGSL
NJARET20120-19263-25032-90000002D0000292D0000000000250325    GGSL
NJARET20120-19263-25040-40000015D0001949D00000000002504      GGSL
NJARET20120-19263-25042-80000001D0000170D0000000000250425    GGSL
NJARET20120-19263-25045-90000076D0002765D0000000000250450    GGSL
NJARET20120-19263-25050-30000001D0000157D00000000002505      GGSL
NJARET20120-19263-25055-80000096D0004381D0000000000250550    GGSL
NJARET20120-19263-25500-30000025D0000029D00010000022550      GGSL
NJARET20120-19263-25510-20001215D0001737D00016000222551      GGSL
NJARET20120-19263-25520-10002625D0004384D00072000262552      GGSL
NJARET20120-19263-25530-00001050D0001964D00036000262553      GGSL
NJARET20120-19263-25540-90001600D0003600D00041000362554      GGSL
NJARET20120-19263-25670-30000006D0000082D00010000002567      GGSL
NJARET20120-19263-25680-20000008D0000148D00029000012568      GGSL
NJARET20120-19263-25750-20000080D0000427D00013000022575      GGSL
NJARET20120-19263-25760-10000348D0002352D00025000042576      GGSL
NJARET20120-19263-25770-00000585D0006144D00055000132577      GGSL
NJARET20120-19263-25780-90000395D0007435D00065000132578      GGSL
NJARET20120-19263-25950-60000612D0000728D00017000052595      GGSL
NJARET20120-19263-26050-20000600D0000516D00004000002605      GGSL
NJARET20120-19263-26170-70000002D0000053D00018000062617      GGSL
NJARET20120-19263-26270-40000012D0000371D00003000002627      GGSL
NJARET20120-19263-26300-80000336D0000776D00031000292630      GGSL
NJARET20120-19263-26310-70000504D0001421D00099000282631      GGSL
NJARET20120-19263-26310-70000432D0001218D00028000012633      GGSL
NJARET20120-19263-26340-40000288D0000717D00014000002634      GGSL
NJARET20120-19263-26530-90000096D0000350D00000000002653      GGSL
NJARET20120-19263-26560-60000048D0000367D00052000022656      GGSL
NJARET20120-19263-26580-40000064D0000625D00019000002658      GGSL
NJARET20120-19263-29100-10000004D0000658D00005000002910      GGSL
NJARET20120-19263-29160-50000009D0000219D0000100000291600    GGSL
NJARET20120-21344-00321-20000158D0004136D0015900012WX15064   GGSL
NJARET20120-21344-00322-90000142D0003656D0015900006WX15065   GGSL
NJARET20120-21344-00338-00000002D0000363D0009500000400338    GGSL
NJARET20120-21344-00339-70000014D0001558D0000600005400339    GGSL
NJARET20120-21344-00340-30000017D0001602D0000700007400340    GGSL
NJARET20120-21344-00343-40000036D0000205D0004700006400343    GGSL
NJARET20120-21344-00345-80000054D0000326D0001700005400345    GGSL
NJARET20120-21344-00346-50000048D0000262D0002700005400346    GGSL
NJARET20120-21344-00347-20000036D0000444D0008800003400347    GGSL
NJARET20120-21344-00348-90000020D0000284D0000400004400348    GGSL
NJARET20120-21344-00349-60000052D0000607D0001400000400349    GGSL
NJARET20120-21344-00350-20000064D0000815D0002800005400350    GGSL
NJARET20120-21344-00355-70000008D0000274D0000000000HQ73482102GGSL
NJARET20120-21344-00362-50000002D0000147D0023400000HQMUSH    GGSL
NJARET20120-21344-00364-90000005D0001932D0009600000400364    GGSL
NJARET20120-21344-00381-60000012D0001114D0001600007JFG18031  GGSL
NJARET20120-21344-00383-00000003D0000167D0001500006JFG18024  GGSL
NJARET20120-21344-00385-40000012D0000260D0000700001JFG18011A GGSL
NJARET20120-21344-00386-10000018D0000616D0000800003JFG18011B GGSL
NJARET20120-21344-00387-80000018D0000558D0007800004JFG18012  GGSL
NJARET20120-21344-00388-50000108D0000475D0000800002JFG18001  GGSL
NJARET20120-21344-00389-20000060D0000639D0000500002JFG18004  GGSL
NJARET20120-21344-00390-80000008D0000151D0003600003JFG18010A GGSL
NJARET20120-21344-00391-50000012D0000246D0002000000JFG18010B GGSL
NJARET20120-21344-00392-20000036D0000206D0000500002JFG18002  GGSL
NJARET20120-21344-00393-90000006D0000158D0000000000JFG18008A GGSL
NJARET20120-21344-00394-60000006D0000116D0000800002JFG18008ASGGSL
NJARET20120-21344-00395-30000036D0000854D0001800005JFG18006  GGSL
NJARET20120-21344-00396-00000024D0000797D0000900003JFG18016  GGSL
NJARET20120-21344-00397-70000030D0001139D0011600010JFG18018  GGSL
NJARET20120-21344-00398-40000002D0000200D0000700002JFG18042  GGSL
NJARET20120-21344-00404-20000014D0000817D0007100000ZT185020  GGSL
NJARET20120-21344-00405-90000023D0001348D0010300000ZT185019  GGSL
NJARET20120-21344-00407-30000002D0000219D0013300000ZT185016  GGSL
NJARET20120-21344-00408-00000012D0000569D0002600002ZT185026  GGSL
NJARET20120-21344-00409-70000240D0000922D0001200002ZT185018  GGSL
NJARET20120-21344-00411-00000002D0000067D0000700006ZT185021  GGSL
NJARET20120-21344-00422-60000008D0000268D0000900005ZT185023  GGSL
NJARET20120-21344-00423-30000295D0028116D0002400024WX17658   GGSL
NJARET20120-21344-00718-00000120D0001667D0001000003WX17422   GGSL
NJARET20120-21344-00719-70000030D0000479D0001100011WX17413   GGSL
NJARET20120-21344-00720-30000006D0000084D0000300002WX17409   GGSL
NJARET20120-21344-00721-00000004D0000078D0000100001WX17230   GGSL
NJARET20120-21344-00725-80000006D0000281D0001800003HQ748416  GGSL
NJARET20120-21344-00728-90000004D0000081D0008700004HQ74912300GGSL
NJARET20120-21344-00730-20000002D0000035D0005900006BN19193   GGSL
NJARET20120-21344-00731-90000018D0000228D0001300007BN19190   GGSL
NJARET20120-21344-00732-60000020D0000291D0002700004BN19187   GGSL
NJARET20120-21344-00733-30000002D0000035D0006400008BN19188   GGSL
NJARET20120-21344-00734-00000020D0000447D0000300001WX17725   GGSL
NJARET20120-21344-00735-70000044D0000600D0002400001WX17577RV GGSL
NJARET20120-21344-00736-40000032D0000442D0001400002WX17578RV GGSL
NJARET20120-21344-00739-50000020D0000440D0003300002WX17816   GGSL
NJARET20120-21344-00741-80000020D0000449D0005200003WX17817   GGSL
NJARET20120-21344-00744-90000028D0000663D0004200006WX17819   GGSL
NJARET20120-21344-00746-30000008D0000127D0029000002YS19L005  GGSL
NJARET20120-21344-00747-00000008D0000120D0029700002YS19L004  GGSL
NJARET20120-21344-00749-40000020D0000228D0029000001YS19S003  GGSL
NJARET20120-21344-00750-00000020D0000209D0027000001YS19S001  GGSL
NJARET20120-21344-00762-30000004D0000460D0010200002MG18387RV GGSL
NJARET20120-21344-00765-40000008D0000748D0012900003MG18390   GGSL
NJARET20120-21344-00766-10000003D0000420D00094000024007661   GGSL
NJARET20120-21344-00774-60000004D0000130D0001600007WX17800   GGSL
NJARET20120-21344-00775-30000002D0000065D0004900029WX17802   GGSL
NJARET20120-21344-00776-00000014D0000887D0014100009FDBB1901  GGSL
NJARET20120-21344-00779-10000018D0000307D0005500000JFG19058B GGSL
NJARET20120-21344-00780-70000016D0001021D0006600002MG18396RV GGSL
NJARET20120-21344-00781-40000019D0000731D0009100003MG18397RV GGSL
NJARET20120-21344-00795-10000009D0001089D0009500001MG18389   GGSL
NJARET20120-21344-00796-80000054D0000116D0004400002SSH1822719GGSL
NJARET20120-21344-00798-20000024D0000109D0006000008SSH1813728GGSL
NJARET20120-21344-00799-90000054D0000329D0003400004HS190061C GGSL
NJARET20120-21344-00800-20000060D0000363D0003700007HS190061B GGSL
NJARET20120-21344-00801-90000042D0000259D0003800003HS190061A GGSL
NJARET20120-21344-00802-60000044D0000329D0013400006HS190058C GGSL
NJARET20120-21344-00803-30000064D0000469D0012400006HS190058B GGSL
NJARET20120-21344-00804-00000016D0000112D0013900000HS190058A GGSL
NJARET20120-21344-00805-70000048D0000360D0008200004HS190056  GGSL
NJARET20120-21344-00806-40000080D0000498D0009000003SSH18A025 GGSL
NJARET20120-21344-00807-10000060D0000658D0007500001SSH18A034 GGSL
NJARET20120-21344-00808-80000024D0000125D0008700003SSH18A024 GGSL
NJARET20120-21344-00813-20000019D0001672D00024000134008132   GGSL
NJARET20120-21344-00820-00000036D0000217D0000100000WX17936   GGSL
NJARET20120-21344-00821-70000012D0000072D0002600005WX17932   GGSL
NJARET20120-21344-00822-40000012D0000072D0002100004WX17930   GGSL
NJARET20120-21344-00824-80000036D0000224D0000200002WX17933   GGSL
NJARET20120-21344-00825-50000012D0000070D0002000001JFG18011BWGGSL
NJARET20120-21344-00826-20000048D0000374D0002100002JFG18011AWGGSL
NJARET20120-21344-00827-90000024D0000187D0001700004JFG18008AWGGSL
NJARET20120-21344-00828-60000024D0000156D0002500002JFG18008ACGGSL
NJARET20120-21344-00829-30000040D0000290D0003900008ZT197030  GGSL
NJARET20120-21344-00830-90000014D0000281D0003300000ZT197002  GGSL
NJARET20120-21344-00831-60000020D0000290D0001700000ZT197003  GGSL
NJARET20120-21344-00832-30000015D0000238D0007000000JFG19007B GGSL
NJARET20120-21344-00833-00000002D0000058D0009700001ZT197029  GGSL
NJARET20120-21344-00834-70000005D0000357D0008900000ZT197023RVGGSL
NJARET20120-21344-00837-80000096D0000280D0013100001SK15020B  GGSL
NJARET20120-21344-00838-50000288D0000700D0029000006SK15008E  GGSL
NJARET20120-21344-00839-20000036D0000426D0005200000HS190062  GGSL
NJARET20120-21344-00844-60000042D0000245D0008900016HJAL19011 GGSL
NJARET20120-21344-01273-30000119D0013255D0084100042WX17658A  GGSL
NJARET20120-21964-10100-80000048D0001313D0002700001A6F       GGSL
NJARET20120-21964-10121-30000018D0000531D0000500000A6RP      GGSL
NJARET20120-21964-10134-30000006D0000130D0000900003BUF16     GGSL
NJARET20120-21964-10200-50000012D0000575D0001200000B7F       GGSL
NJARET20120-21964-10211-10000024D0000219D0001700001OMT       GGSL
NJARET20120-21964-10220-30000007D0000404D0000500003B72       GGSL
NJARET20120-21964-10305-70000001D0000061D0001400000BTG       GGSL
NJARET20120-21964-10315-60000038D0001167D0002000001SQG       GGSL
NJARET20120-21964-10320-00000006D0000069D0000000000SRG       GGSL
NJARET20120-21964-10322-40000006D0000241D0000700004CPF       GGSL
NJARET20120-21964-10360-60000030D0000797D0001500002W1        GGSL
NJARET20120-21964-10370-50000234D0002640D0007200005OWF       GGSL
NJARET20120-21964-10380-40000003D0000131D0002300006DCF       GGSL
NJARET20120-21964-10386-60000012D0000156D0001900002CUTE      GGSL
NJARET20120-21964-10450-40000012D0000066D0001100002FF        GGSL
NJARET20120-21964-10451-10000018D0000289D0000200001RSDHC     GGSL
NJARET20120-21964-10461-00000048D0000813D0003400008LF4       GGSL
NJARET20120-21964-10466-50000036D0000610D0001300004WH3       GGSL
NJARET20120-21964-10470-20000024D0000602D0001800003H82       GGSL
NJARET20120-21964-10481-80000036D0000215D0004600008AM        GGSL
NJARET20120-21964-10482-50000018D0000108D0000400001AMO       GGSL
NJARET20120-21964-10485-60000018D0000173D0003300004RS3HC     GGSL
NJARET20120-21964-10486-30000018D0000188D0002400004RS3WC     GGSL
NJARET20120-21964-10489-40000048D0000403D0000400000BOWM      GGSL
NJARET20120-21964-10547-10000072D0000373D0000000000TSD       GGSL
NJARET20120-21964-10550-10000006D0000083D0000200001SILW      GGSL
NJARET20120-21964-10900-40000006D0000023D0000100000SL        GGSL
NJARET20120-21964-20061-90000013D0000680D0001000003SDC       GGSL
NJARET20120-21964-20500-30000016D0002022D0005300000YF        GGSL
NJARET20120-21964-20510-20000018D0001509D0004100001YCPD90    GGSL
NJARET20120-21964-20520-10000200D0016118D0002500002YCPW180   GGSL
NJARET20120-21964-20530-00000012D0001009D0002900001YCPT360   GGSL
NJARET20120-21964-25241-00000060D0001774D0002600003CC12S     GGSL
NJARET20120-21964-25242-70000078D0002870D0003700004CC18S     GGSL
NJARET20120-21964-25244-10000024D0000709D0002500003CC12N     GGSL
NJARET20120-21964-25245-80000006D0000221D0001900000CC18N     GGSL
NJARET20120-21964-25245-80000002D0000073D0001000000CC18NX    GGSL
NJARET20120-21964-25256-40000030D0000887D0002200002CC12FM    GGSL
NJARET20120-21964-25257-10000024D0000883D0000400001CC18FM    GGSL
NJARET20120-21964-30410-20000018D0000234D0000000000PSFS      GGSL
NJARET20120-21964-40053-80000126D0002812D0007100005CJM15G    GGSL
NJARET20120-21964-40063-70000018D0000519D0002000000CJM23G    GGSL
NJARET20120-21964-40096-50000048D0000140D0000400000JFBIDBK   GGSL
NJARET20120-21964-41073-50000060D0001253D0004300002CJTHM15Y  GGSL
NJARET20120-21964-41084-10000012D0000355D0000600000CJTHM36Y  GGSL
NJARET20120-21964-41086-50000060D0000995D0001100002CJTHM8Y   GGSL
NJARET20120-21964-50043-60000030D0000670D0002000000CJM13GP   GGSL
NJARET20120-21964-50058-00000001D0000022D0000100000CJM13BLPX GGSL
NJARET20120-21964-50059-70000006D0000152D0000100000CJM13FSY  GGSL
NJARET20120-21964-50100-60000018D0000234D0001900002SKYHK     GGSL
NJARET20120-21964-50105-10000006D0000064D0000000000STDHK     GGSL
NJARET20120-21964-50111-20000024D0000175D0000000000WHK       GGSL
NJARET20120-21964-50202-70000006D0000030D0000200000LC18      GGSL
NJARET20120-21964-50227-00000006D0000031D0000100001SWH8      GGSL
NJARET20120-21964-60100-30000004D0000121D0000000000GS        GGSL
NJARET20120-21964-60110-20000006D0000113D0000000000UN        GGSL
NJARET20120-21964-60300-70000001D0000093D0000200000JG        GGSL
NJARET20120-21964-60527-80000006D0000214D0000100000UPA       GGSL
NJARET20120-21964-60528-50000036D0000686D0000200000RLS       GGSL
NJARET20120-21964-80100-70000036D0000302D0002000000BFB       GGSL
NJARET20120-22179-10084-80000036D0000328D0004900004LG7220    GGSL
NJARET20120-22179-10105-00000006D0000252D0000000000LG5518    GGSL
NJARET20120-22179-10124-10000180D0001046D0004200005LG6515    GGSL
NJARET20120-22179-10157-90000024D0000524D0004800001LG6530    GGSL
NJARET20120-22179-10158-60000012D0000100D0000000000LG5180    GGSL
NJARET20120-22179-10185-20000192D0001788D0025100008LG6500    GGSL
NJARET20120-22179-10230-90000012D0000060D0000100001LG8800    GGSL
NJARET20120-22179-10243-90000012D0000204D0001400000LG6130    GGSL
NJARET20120-22179-10246-00000012D0000206D0003900001LG6570    GGSL
NJARET20120-22179-10248-40000060D0000514D0003200000LG6575    GGSL
NJARET20120-22179-10258-30000024D0000715D0001100000LG6580    GGSL
NJARET20120-22179-10266-80000024D0000475D0000000000LG6145    GGSL
NJARET20120-22179-10448-80000060D0000707D0000600000LG3174    GGSL
NJARET20120-22179-10454-90000036D0000412D0001700002LG3303    GGSL
NJARET20120-22179-10461-70000024D0000221D0000000000LG3154    GGSL
NJARET20120-22179-10471-60000012D0000128D0000300001LG6128    GGSL
NJARET20120-22179-10508-90000012D0000035D0000900000LG6164    GGSL
NJARET20120-22401-00301-50000010D0000107D0008300000THD20     GGSL
NJARET20120-22401-00350-30000004D0000062D0004200000EDG20GMC  GGSL
NJARET20120-22401-00440-10000022D0000570D0002800000PRO40PC   GGSL
NJARET20120-22401-00740-20000004D0000062D0004500000DBRC20    GGSL
NJARET20120-22401-10087-50000068D0000547D0005900012EAR20TMC  GGSL
NJARET20120-23075-02170-10000098D0000556D0000100000PHEX      GGSL
NJARET20120-23075-02180-00000056D0000293D0000400001P180      GGSL
NJARET20120-23075-02351-40000032D0000122D0000400001P35H      GGSL
NJARET20120-23075-02362-00000064D0000338D0000100000FT36HFB   GGSL
NJARET20120-23075-02703-10000036D0000103D0000000000P703      GGSL
NJARET20120-23075-02721-50000176D0000942D0000500002P72H      GGSL
NJARET20120-23075-02990-50000012D0000065D0002700007KHB6      GGSL
NJARET20120-23075-03312-40000040D0000077D0000300000FR312B    GGSL
NJARET20120-23075-05110-40000032D0000087D0000500001FS110     GGSL
NJARET20120-23075-20501-90000024D0000096D0000100000G608PERLITGGSL
NJARET20120-23803-10031-50000012D0000124D000000000010031     GGSL
NJARET20120-23865-08808-20000012D0000051D00000000008808      GGSL
NJARET20120-23865-09983-50000032D0000089D00000000009983      GGSL
NJARET20120-23865-09987-30000136D0001068D00136000019987      GGSL
NJARET20120-23883-08706-70000012D0000100D00076000058706A     GGSL
NJARET20120-23883-16100-20000100D0000904D010540018116100     GGSL
NJARET20120-23883-16200-90000008D0000146D000710000716200     GGSL
NJARET20120-23883-20002-20000096D0001064D009040015520002     GGSL
NJARET20120-23883-63800-90000001D0000092D000000000063800     GGSL
NJARET20120-24114-20430-70000025D0000161D0001100002204309    GGSL
NJARET20120-24114-20450-50000025D0000161D0001100001204509    GGSL
NJARET20120-24114-20480-20000050D0000322D0001600002204809    GGSL
NJARET20120-24114-22050-50000006D0000207D0000400000220500    GGSL
NJARET20120-24114-30677-30000012D0000052D0000200000776777    GGSL
NJARET20120-24114-70102-80000250D0000380D0011000009701002    GGSL
NJARET20120-24114-70164-60000010D0000107D0000700000701649    GGSL
NJARET20120-24114-70300-80000075D0000197D0005700002703002    GGSL
NJARET20120-24114-70609-20000100D0000439D0002300006706009    GGSL
NJARET20120-24114-70807-30000175D0000700D0002900008708073    GGSL
NJARET20120-24114-71609-10000025D0000154D0002200003716009    GGSL
NJARET20120-24114-71642-80000020D0000192D0005400005701642    GGSL
NJARET20120-24114-71673-20000175D0001151D0005300005716073    GGSL
NJARET20120-24114-71853-80000025D0000280D0000500001718573    GGSL
NJARET20120-24114-74009-60000025D0000122D0005200002704009    GGSL
NJARET20120-24114-74209-00000075D0000482D0000400000704209    GGSL
NJARET20120-24114-74712-50000125D0000102D0001600005742012A   GGSL
NJARET20120-24114-74712-50000050D0000165D0000000000742712    GGSL
NJARET20120-24114-74718-70000150D0000145D0001200005742018A   GGSL
NJARET20120-24114-74718-70000050D0000178D0000000000742718    GGSL
NJARET20120-24114-74929-70000075D0000483D0000300001704929    GGSL
NJARET20120-24114-75161-00000060D0000439D0002900004750161    GGSL
NJARET20120-24114-78345-10000075D0000406D000010000083450     GGSL
NJARET20120-24654-05922-10000048D0000603D00051000155926      GGSL
NJARET20120-24654-05981-80000084D0000868D00034000005981      GGSL
NJARET20120-24654-05982-50000004D0000135D00000000005982      GGSL
NJARET20120-24654-09334-80000018D0000518D00352000669334      GGSL
NJARET20120-24654-30506-90000036D0000163D000350001030506     GGSL
NJARET20120-24654-51806-30000180D0001037D000000000051806     GGSL
NJARET20120-24654-51826-10000042D0000422D000130000351826     GGSL
NJARET20120-24654-55107-70000008D0000155D000010000051074     GGSL
NJARET20120-24654-55110-70000258D0001401D000490002851106     GGSL
NJARET20120-24654-55118-30000006D0000046D000350000551186     GGSL
NJARET20120-24654-55130-50000012D0000065D00006000005454      GGSL
NJARET20120-24654-55168-80000012D0000061D00004000005168      GGSL
NJARET20120-24654-55450-40000072D0000394D000180000654506     GGSL
NJARET20120-25033-01703-00000006D0000067D000160000401703     GGSL
NJARET20120-25033-01707-80000006D0000073D000180000201707     GGSL
NJARET20120-25033-01713-90000006D0000077D000150000301713     GGSL
NJARET20120-25033-02077-10000006D0000073D000030000002077     GGSL
NJARET20120-25033-02088-70000006D0000083D000060000002088     GGSL
NJARET20120-25033-02089-40000006D0000053D000070000002089     GGSL
NJARET20120-25033-02144-00000006D0000079D000040000002144     GGSL
NJARET20120-25033-02175-40000012D0000480D000030000002175     GGSL
NJARET20120-25033-02467-00000004D0000116D000100000002467     GGSL
NJARET20120-25033-02477-90000004D0000104D000310000002477     GGSL
NJARET20120-25033-02501-10000008D0000078D000080000202501     GGSL
NJARET20120-25033-02510-30000012D0000134D000150000302510     GGSL
NJARET20120-25033-02519-60000008D0000245D000190000102519     GGSL
NJARET20120-25033-02520-20000012D0000255D000050000202520     GGSL
NJARET20120-25033-02521-90000004D0000096D000090000002521     GGSL
NJARET20120-25033-02522-60000009D0000478D000430000202522     GGSL
NJARET20120-25033-02523-30000005D0000288D000300000002523     GGSL
NJARET20120-25033-02525-70000005D0000324D000750000202525     GGSL
NJARET20120-25033-02527-10000003D0000212D000480000402527     GGSL
NJARET20120-25033-02660-50000002D0000298D000750000002660     GGSL
NJARET20120-25033-02670-40000001D0000265D000080000002670     GGSL
NJARET20120-25033-02720-60000003D0000277D000510000202720     GGSL
NJARET20120-25033-02728-20000003D0000437D000200000002728     GGSL
NJARET20120-25033-02750-30000004D0000720D000040000002750     GGSL
NJARET20120-25033-02910-10000002D0000236D000050000002910     GGSL
NJARET20120-25033-02920-00000002D0000314D000020000002920     GGSL
NJARET20120-25033-03801-10000002D0000044D000240000603801     GGSL
NJARET20120-25033-03820-20000001D0000060D000000000003820     GGSL
NJARET20120-25033-04520-00000002D0000175D000090000004520     GGSL
NJARET20120-25033-12012-90000006D0000042D000010000112012     GGSL
NJARET20120-25033-12138-60000006D0000087D000000000012138     GGSL
NJARET20120-25033-12195-90000012D0000083D000470000012195     GGSL
NJARET20120-25033-12201-70000012D0000101D000030000112201     GGSL
NJARET20120-25033-12202-40000072D0000575D000150000112202     GGSL
NJARET20120-25033-12203-10000042D0000150D000160000012203     GGSL
NJARET20120-25033-12204-80000036D0000201D000230000012204     GGSL
NJARET20120-25033-12285-70000012D0000111D000060000012285     GGSL
NJARET20120-25033-12403-50000001D0000128D000010000012403     GGSL
NJARET20120-25033-12410-30000001D0000156D000000000012410     GGSL
NJARET20120-25033-12555-10000006D0000061D000000000012555     GGSL
NJARET20120-25033-12730-20000012D0000122D000060000012730     GGSL
NJARET20120-25033-12971-90000006D0000232D000140000512971     GGSL
NJARET20120-25033-12981-80000016D0000210D000040000012981     GGSL
NJARET20120-25033-22770-50000001D0000252D000000000022770     GGSL
NJARET20120-25216-66600-00000024D0000136D0000000000666N      GGSL
NJARET20120-25531-01234-60000006D0000204D000580000675160     GGSL
NJARET20120-25545-21619-80000018D0000380D0001900007 21619    GGSL
NJARET20120-25845-12346-20000048D0000066D000020000224950     GGSL
NJARET20120-25845-12346-20000024D0000041D00001000005585      GGSL
NJARET20120-25845-12356-10000036D0000192D00000000005556      GGSL
NJARET20120-25849-00305-00000140D0002582D00002000000305RG    GGSL
NJARET20120-25849-10381-10000150D0004410D000020000210381RG   GGSL
NJARET20120-25849-10381-10000030D0000893D001060000010381RGX  GGSL
NJARET20120-25849-10751-20000108D0001227D00000000001020051RG GGSL
NJARET20120-25849-11110-60000840D0004089D00003000001010010RG GGSL
NJARET20120-25849-11110-60000120D0000779D00000000001010010RGXGGSL
NJARET20120-25849-11120-50000480D0002041D00007000001010020RG GGSL
NJARET20120-25849-11151-90000480D0003071D00005000001010051RG GGSL
NJARET20120-25849-11151-90000020D0000130D00330000001010051RGXGGSL
NJARET20120-26175-86100-00000036D0000163D0003200003861       GGSL
NJARET20120-26432-40200-70000019D0000858D0000100000GC200     GGSL
NJARET20120-26600-89334-70000120D0000244D004690000189334     GGSL
NJARET20120-26978-02181-60000150D0000732D001030001502181     GGSL
NJARET20120-26978-02182-30000090D0000439D001150001702182     GGSL
NJARET20120-26978-02241-70000210D0001124D000600002402241     GGSL
NJARET20120-26978-02242-40000120D0000642D000790005102242     GGSL
NJARET20120-26978-02301-80000070D0000497D000230000702301     GGSL
NJARET20120-26978-02302-50000090D0000639D000320000902302     GGSL
NJARET20120-26978-02308-70000020D0000113D000340001402308     GGSL
NJARET20120-26978-02362-90000110D0000989D000180000702362     GGSL
NJARET20120-26978-02368-10000020D0000137D000540001502368     GGSL
NJARET20120-26978-03060-30000040D0000169D000300000303060     GGSL
NJARET20120-26978-03062-70000010D0000042D000510000303062     GGSL
NJARET20120-26978-03068-90000050D0000212D000150000503068     GGSL
NJARET20120-26978-03082-50000020D0000158D000460000403082     GGSL
NJARET20120-26978-03088-70000050D0000394D000140000503088     GGSL
NJARET20120-26978-03100-60000015D0000197D00040000040310005   GGSL
NJARET20120-26978-03102-00000010D0000131D00046000050310205   GGSL
NJARET20120-26978-03108-20000015D0000197D00017000060310805   GGSL
NJARET20120-26978-03120-40000020D0000366D00042000040312005   GGSL
NJARET20120-26978-03122-80000010D0000183D00045000050312205   GGSL
NJARET20120-26978-03128-00000010D0000183D00017000080312805   GGSL
NJARET20120-26978-05041-00000036D0000065D000000000005041     GGSL
NJARET20120-26978-05121-90000072D0000087D000000000005121     GGSL
NJARET20120-26978-08060-80000030D0000127D000240000608060     GGSL
NJARET20120-26978-08061-50000030D0000127D000210000508061     GGSL
NJARET20120-26978-08080-60000030D0000236D000250000408080     GGSL
NJARET20120-26978-08098-10000170D0001132D000190000208098     GGSL
NJARET20120-26978-08120-90000015D0000275D00024000070812005   GGSL
NJARET20120-26978-08710-20000014D0000195D000070000108710     GGSL
NJARET20120-26978-10010-80000048D0000174D000240000210010     GGSL
NJARET20120-26978-10012-20000048D0000174D000220000410012     GGSL
NJARET20120-26978-10013-90000030D0000109D000220000210013     GGSL
NJARET20120-26978-10020-70000005D0000034D000310000210020     GGSL
NJARET20120-26978-10022-10000005D0000034D000330000310022     GGSL
NJARET20120-26978-10023-80000005D0000034D000290000210023     GGSL
NJARET20120-26978-10062-70000250D0000663D000930001410062     GGSL
NJARET20120-26978-10068-90000180D0000477D001020000910068     GGSL
NJARET20120-26978-10082-50000240D0000866D000410001310082     GGSL
NJARET20120-26978-10088-70000140D0000505D000620000910088     GGSL
NJARET20120-26978-10102-00000205D0001080D000810001510102     GGSL
NJARET20120-26978-10108-20000125D0000659D000950000910108     GGSL
NJARET20120-26978-10122-80000155D0001204D000910001310122     GGSL
NJARET20120-26978-10128-00000130D0001010D000670000910128     GGSL
NJARET20120-26978-10142-60000090D0000878D000650001010142     GGSL
NJARET20120-26978-10148-50000060D0000586D000560000810148     GGSL
NJARET20120-26978-10180-80000030D0000096D000270000610180     GGSL
NJARET20120-26978-10182-20000110D0000353D000370000610182     GGSL
NJARET20120-26978-10183-90000020D0000064D000280000210183     GGSL
NJARET20120-26978-10185-30000030D0000096D000440000510185     GGSL
NJARET20120-26978-10240-90000040D0000141D000360000310240     GGSL
NJARET20120-26978-10242-30000100D0000353D000700000410242     GGSL
NJARET20120-26978-10243-00000020D0000071D000350000010243     GGSL
NJARET20120-26978-10245-40000070D0000247D000520000310245     GGSL
NJARET20120-26978-10300-00000020D0000089D000410000310300     GGSL
NJARET20120-26978-10302-40000070D0000312D000360000310302     GGSL
NJARET20120-26978-10303-10000010D0000045D000210000010303     GGSL
NJARET20120-26978-10305-50000030D0000134D000220000310305     GGSL
NJARET20120-26978-10360-40000010D0000056D000290000210360     GGSL
NJARET20120-26978-10362-80000050D0000279D000340000310362     GGSL
NJARET20120-26978-10365-90000060D0000334D000170000210365     GGSL
NJARET20120-26978-16190-10000090D0000392D001310001116190     GGSL
NJARET20120-26978-16192-50000190D0000827D001320000816192     GGSL
NJARET20120-26978-16193-20000060D0000261D000890000116193     GGSL
NJARET20120-26978-16195-60000100D0000435D001430000616195     GGSL
NJARET20120-26978-16198-70000030D0000131D000170000216198     GGSL
NJARET20120-26978-16240-30000100D0000538D000310000916240     GGSL
NJARET20120-26978-16242-70000140D0000757D000000000016242     GGSL
NJARET20120-26978-16243-40000070D0000379D000490000116243     GGSL
NJARET20120-26978-16245-80000140D0000757D001460001016245     GGSL
NJARET20120-26978-16300-40000120D0000818D000920000816300     GGSL
NJARET20120-26978-16302-80000180D0001228D001470001016302     GGSL
NJARET20120-26978-16303-50000060D0000409D000620000016303     GGSL
NJARET20120-26978-16305-90000100D0000682D000840000916305     GGSL
NJARET20120-26978-16308-00000110D0000750D000190000316308     GGSL
NJARET20120-26978-16360-80000070D0000711D000980000816360     GGSL
NJARET20120-26978-16362-20000180D0001829D000840001216362     GGSL
NJARET20120-26978-16363-90000020D0000203D000230000016363     GGSL
NJARET20120-26978-16365-30000100D0001016D000650000816365     GGSL
NJARET20120-26978-16368-40000070D0000711D000290000516368     GGSL
NJARET20120-26978-26140-30000050D0000450D000540000626140     GGSL
NJARET20120-26978-26142-70000190D0001710D000920001326142     GGSL
NJARET20120-26978-26143-40000020D0000180D000530000626143     GGSL
NJARET20120-26978-26145-80000070D0000630D000420001526145     GGSL
NJARET20120-26978-26148-90000060D0000540D000420000926148     GGSL
NJARET20120-26978-26160-10000016D0000153D000200000526160     GGSL
NJARET20120-26978-26162-50000016D0000153D000270000626162     GGSL
NJARET20120-26978-26163-20000008D0000077D000140000526163     GGSL
NJARET20120-26978-26165-60000016D0000153D000140000426165     GGSL
NJARET20120-26978-26180-90000010D0000144D000390000326180     GGSL
NJARET20120-26978-26182-30000040D0000576D000470000726182     GGSL
NJARET20120-26978-26183-00000010D0000144D000450000526183     GGSL
NJARET20120-26978-26185-40000020D0000288D000390001126185     GGSL
NJARET20120-26978-26188-50000100D0001441D000340000826188     GGSL
NJARET20120-26978-26270-70000010D0000115D000080000426270     GGSL
NJARET20120-26978-30301-10000012D0000068D000460002430301     GGSL
NJARET20120-26978-30312-70000012D0000012D000390000130312     GGSL
NJARET20120-26978-30402-50000084D0000460D000410000330402     GGSL
NJARET20120-26978-30411-70000060D0000374D000850000130411     GGSL
NJARET20120-26978-30413-10000012D0000075D000310000130413     GGSL
NJARET20120-26978-30413-10000768D0002885D00069000053041396   GGSL
NJARET20120-26978-30602-90000324D0001216D001810001930602     GGSL
NJARET20120-26978-30605-00000168D0000664D000660001130605     GGSL
NJARET20120-26978-30702-60000048D0000185D000880000430702     GGSL
NJARET20120-26978-30705-70000138D0000533D000710000630705     GGSL
NJARET20120-26978-30806-10000090D0000379D000090000930806     GGSL
NJARET20120-26978-30809-20000024D0000101D000270001530809     GGSL
NJARET20120-26978-30909-90000010D0000050D000030000330909     GGSL
NJARET20120-26978-31100-90000090D0000540D000220000331100     GGSL
NJARET20120-26978-31108-50000055D0000330D000380000431108     GGSL
NJARET20120-26978-31109-20000045D0000270D000180000331109     GGSL
NJARET20120-26978-31120-70000015D0000187D000240000231120     GGSL
NJARET20120-26978-31121-40000020D0000250D000180000431121     GGSL
NJARET20120-26978-31128-30000015D0000187D000370000831128     GGSL
NJARET20120-26978-31129-00000010D0000125D000230000231129     GGSL
NJARET20120-26978-31168-90000020D0000480D000170000631168     GGSL
NJARET20120-26978-32108-40000120D0000920D000240000632108     GGSL
NJARET20120-26978-32109-10000035D0000268D000370000232109     GGSL
NJARET20120-26978-32128-20000065D0000885D000200000432128     GGSL
NJARET20120-26978-32129-90000005D0000068D000250000332129     GGSL
NJARET20120-26978-34061-00000100D0000423D000210000834061     GGSL
NJARET20120-26978-34063-40000120D0000508D000150000734063     GGSL
NJARET20120-26978-34068-90000120D0000508D000110000434068     GGSL
NJARET20120-26978-34081-80000090D0000676D000110000434081     GGSL
NJARET20120-26978-34083-20000090D0000676D000190000434083     GGSL
NJARET20120-26978-34088-70000130D0000976D000200000734088     GGSL
NJARET20120-26978-34101-30000050D0000625D000200000834101     GGSL
NJARET20120-26978-34103-70000055D0000688D000480000634103     GGSL
NJARET20120-26978-34121-10000025D0000436D000360000834121     GGSL
NJARET20120-26978-34123-50000005D0000087D000390000634123     GGSL
NJARET20120-26978-34141-10000006D0000153D000290000934141     GGSL
NJARET20120-26978-34143-50000003D0000077D000310000734143     GGSL
NJARET20120-26978-34148-00000009D0000230D000270000934148     GGSL
NJARET20120-26978-35060-20000170D0000719D000390000935060     GGSL
NJARET20120-26978-35061-90000010D0000042D000020000235061     GGSL
NJARET20120-26978-35066-40000050D0000212D000120000535066     GGSL
NJARET20120-26978-35068-80000130D0000550D000520001335068     GGSL
NJARET20120-26978-35080-00000090D0000709D000840000735080     GGSL
NJARET20120-26978-35081-70000040D0000315D000110000635081     GGSL
NJARET20120-26978-35089-30000030D0000236D000290000435089     GGSL
NJARET20120-26978-35100-50000045D0000686D000370000835100     GGSL
NJARET20120-26978-35101-20000010D0000153D000020000235101     GGSL
NJARET20120-26978-35109-80000020D0000305D000570000535109     GGSL
NJARET20120-26978-35120-30000010D0000217D000520000635120     GGSL
NJARET20120-26978-35126-50000015D0000326D000370000335126     GGSL
NJARET20120-26978-35128-90000030D0000652D000440001335128     GGSL
NJARET20120-26978-35129-60000005D0000109D000440000035129     GGSL
NJARET20120-26978-35130-20000005D0000085D000030000335130     GGSL
NJARET20120-26978-35168-50000005D0000207D000250000535168     GGSL
NJARET20120-26978-35188-30000014D0000923D000150000135188     GGSL
NJARET20120-26978-35190-60000004D0000136D000010000135190     GGSL
NJARET20120-26978-35198-20000004D0000136D000660001235198     GGSL
NJARET20120-26978-35278-10000004D0000324D000290001435278     GGSL
NJARET20120-26978-36108-00000020D0000226D000190000236108     GGSL
NJARET20120-26978-36120-20000010D0000157D000160000036120     GGSL
NJARET20120-26978-36128-80000010D0000157D000160000136128     GGSL
NJARET20120-26978-36140-00000015D0000201D000210000936140     GGSL
NJARET20120-26978-36148-60000030D0000402D000300001836148     GGSL
NJARET20120-26978-36220-90000015D0000352D000220000536220     GGSL
NJARET20120-26978-36298-80000010D0000329D000310000736298     GGSL
NJARET20120-26978-38142-20000072D0000379D000130000438142     GGSL
NJARET20120-26978-38148-40000024D0000126D000220001338148     GGSL
NJARET20120-26978-38196-50000018D0000215D000110000538196     GGSL
NJARET20120-26978-39122-30000048D0000190D000520000439122     GGSL
NJARET20120-26978-39126-10000072D0000285D000350000639126     GGSL
NJARET20120-26978-39128-50000144D0000570D000480001339128     GGSL
NJARET20120-26978-39182-70000060D0000612D000360000439182     GGSL
NJARET20120-26978-39186-50000018D0000184D000170000539186     GGSL
NJARET20120-26978-63060-50000020D0000078D000120000163060     GGSL
NJARET20120-26978-63065-00000010D0000039D000090000163065     GGSL
NJARET20120-26978-63066-70000010D0000039D000150000163066     GGSL
NJARET20120-26978-63069-80000040D0000156D000130000063069     GGSL
NJARET20120-26978-63070-40000010D0000063D000220000063070     GGSL
NJARET20120-26978-63076-60000010D0000063D000180000063076     GGSL
NJARET20120-26978-63079-70000020D0000126D000140000063079     GGSL
NJARET20120-26978-63095-70000005D0000067D000100000163095     GGSL
NJARET20120-26978-63096-40000005D0000067D000090000163096     GGSL
NJARET20120-26978-80100-50000008D0000354D000070000180100     GGSL
NJARET20120-26978-80101-20000016D0000588D000460001680101     GGSL
NJARET20120-26978-80105-00000036D0001322D000100000280105     GGSL
NJARET20120-26978-80107-40000012D0000336D00038000048010712   GGSL
NJARET20120-26978-80151-70000024D0000909D000430000880151     GGSL
NJARET20120-26978-80155-50000016D0000606D000170000680155     GGSL
NJARET20120-26978-80156-20000012D0000455D000020000280156     GGSL
NJARET20120-26978-80658-10000018D0000323D000000000080658     GGSL
NJARET20120-26978-81011-30000004D0000102D000320000181011     GGSL
NJARET20120-26978-81100-40000084D0000646D000430001381100     GGSL
NJARET20120-26978-81101-10000144D0001292D000630002181101     GGSL
NJARET20120-26978-81109-70000012D0000112D000020000281109     GGSL
NJARET20120-26978-81121-90000012D0000044D000360000281121     GGSL
NJARET20120-26978-81201-80000012D0000538D000140000481201     GGSL
NJARET20120-26978-81700-60000004D0000143D000000000081700     GGSL
NJARET20120-26978-81701-30000004D0000135D000000000081701     GGSL
NJARET20120-26978-81705-10000004D0000135D000000000081705     GGSL
NJARET20120-26978-81751-80000016D0000475D000290000281751     GGSL
NJARET20120-27452-06200-40000004D0000068D00015000026200      GGSL
NJARET20120-27652-80203-50000016D0000761D0000400000LG400151  GGSL
NJARET20120-27652-80205-90000002D0000138D0001400000LG400171  GGSL
NJARET20120-27652-82210-10000008D0000452D0000200002LG400272GDGGSL
NJARET20120-27856-10001-20005568D0016579D0096200001P10232    GGSL
NJARET20120-27856-10002-90014034D0073840D0289600001P10264    GGSL
NJARET20120-27856-10008-10002320D0031552D0118000000P101      GGSL
NJARET20120-27856-10009-80002031D0018584D0102000000P128      GGSL
NJARET20120-28929-04710-40000002D0000325D00023000004710C     GGSL
NJARET20120-28929-06291-60000001D0000122D00035000006291WL    GGSL
NJARET20120-28929-07820-70000003D0000151D00029000002782SPC   GGSL
NJARET20120-28929-13775-10000001D0000024D0000800000137SP75   GGSL
NJARET20120-28929-49108-20000018D0000367D00000000004910MC    GGSL
NJARET20120-29973-12333-20000504D0001774D002070005914110028P GGSL
NJARET20120-29973-12341-70000679D0003375D0026200050141100216UGGSL
NJARET20120-29973-12349-30000136D0000598D000100001014901028P GGSL
NJARET20120-29973-12456-80000360D0001584D000600001314902028P GGSL
NJARET20120-30541-00067-20000006D0000052D0000200000JCD100FGP GGSL
NJARET20120-30541-00801-20000013D0000660D0001300000JCD08BKSM GGSL
NJARET20120-30541-01020-60000024D0000054D0003600007JCD024SM  GGSL
NJARET20120-30541-01020-60000240D0000459D0000800000JCD060SM  GGSL
NJARET20120-30541-01030-50000060D0000503D0005200012JCD100SMJ GGSL
NJARET20120-30541-01034-30000048D0001007D0003100011JCD030SM  GGSL
NJARET20120-30541-01039-80000012D0000060D0003200006JCD05SM   GGSL
NJARET20120-30541-09981-20000350D0000681D0000800000JCDTPG    GGSL
NJARET20120-30541-09983-60000100D0000198D0000300000JCDTPP    GGSL
NJARET20120-31009-40456-80000004D0000024D000010000127010409  GGSL
NJARET20120-31009-66921-90000004D0000016D00004000002576      GGSL
NJARET20120-31340-10005-10000024D0000440D0000600002B550120   GGSL
NJARET20120-31340-10006-80000108D0001209D0014000045B550125   GGSL
NJARET20120-31340-10007-50000006D0000195D0001300000B550130   GGSL
NJARET20120-31365-10600-70000024D0000560D0018500004 42808    GGSL
NJARET20120-31417-00055-00000015D0000378D001140002080601131X GGSL
NJARET20120-31724-85095-40000005D0000087D0000200002850950    GGSL
NJARET20120-31724-88805-60000025D0000590D0000000000888VR50   GGSL
NJARET20120-32247-00900-30000024D0000086D00038000081009001   GGSL
NJARET20120-32247-02515-70000002D0000086D00290000002515      GGSL
NJARET20120-32247-05514-70000120D0000618D000270000570551430  GGSL
NJARET20120-32247-14900-60000040D0000314D000520000014900     GGSL
NJARET20120-32247-14902-00000032D0000501D001280000014902     GGSL
NJARET20120-32247-14905-10000032D0000259D002110001314905     GGSL
NJARET20120-32247-17183-00000132D0001335D002050000217183     GGSL
NJARET20120-32247-17185-40000092D0002121D001610000017185     GGSL
NJARET20120-32247-17187-80000013D0000721D001670000017187     GGSL
NJARET20120-32247-17290-50000072D0000802D000900000017290     GGSL
NJARET20120-32247-17293-60000042D0000450D000600000117293     GGSL
NJARET20120-32247-17295-00000012D0000303D000520000017295     GGSL
NJARET20120-32247-17323-00000012D0000120D000580000117323     GGSL
NJARET20120-32247-17508-10000096D0001311D001980001117508     GGSL
NJARET20120-32247-17530-20000012D0000122D000440000117530     GGSL
NJARET20120-32247-17540-10000020D0000583D002360000117540     GGSL
NJARET20120-32247-18225-60000024D0000230D002340000918225     GGSL
NJARET20120-32247-18272-00000012D0000072D000630000018272     GGSL
NJARET20120-32247-18320-80000012D0000089D000480000018320     GGSL
NJARET20120-32247-18334-50000064D0005143D001560000018334     GGSL
NJARET20120-32247-20785-00000144D0000576D001240000172078430  GGSL
NJARET20120-32247-21605-00000035D0000737D004950001621605     GGSL
NJARET20120-32247-21701-90000048D0000441D000960000121701     GGSL
NJARET20120-32247-21814-60000014D0000649D001510000021814     GGSL
NJARET20120-32247-23616-40000005D0000122D009120000023616     GGSL
NJARET20120-32247-25009-20000002D0000138D001620000025009     GGSL
NJARET20120-32247-26784-70000042D0000168D000290000272678430  GGSL
NJARET20120-32247-30156-50000032D0000525D001730000030156     GGSL
NJARET20120-32247-33050-30000002D0000087D003640000033050     GGSL
NJARET20120-32247-33160-90000005D0000366D004930000033160     GGSL
NJARET20120-32247-34161-50000004D0000242D003210000034161     GGSL
NJARET20120-32247-36905-30000013D0000498D008330007736905     GGSL
NJARET20120-32247-37594-80000050D0000417D000000000073759430  GGSL
NJARET20120-32247-37610-50000012D0000179D000900000037610C    GGSL
NJARET20120-32247-42784-50000036D0000144D000100000374278430  GGSL
NJARET20120-32247-43850-60000004D0000119D00032000014385010   GGSL
NJARET20120-32247-47783-30000036D0000144D000170000274778300  GGSL
NJARET20120-32247-49024-50000021D0000312D002370000049024     GGSL
NJARET20120-32247-49785-50000012D0000053D000480000574978500  GGSL
NJARET20120-32247-51062-20000006D0000056D000280000051062     GGSL
NJARET20120-32247-51070-70000004D0000042D000170000151070     GGSL
NJARET20120-32247-51080-60000006D0000038D000090000151080     GGSL
NJARET20120-32247-52784-20000018D0000072D000390000885278430  GGSL
NJARET20120-32247-53105-40000009D0000087D003710000053105     GGSL
NJARET20120-32247-54204-30000006D0000070D00019000025420406   GGSL
NJARET20120-32247-55513-50000195D0001959D000240000175551300  GGSL
NJARET20120-32247-55783-20000042D0000216D000650002075578300  GGSL
NJARET20120-32247-56211-90000006D0000091D00078000005621106   GGSL
NJARET20120-32247-56513-40000390D0003510D000370002075651300  GGSL
NJARET20120-32247-56513-40000052D0000468D000180000075651300X GGSL
NJARET20120-32247-56523-30000396D0005568D000400002075652300  GGSL
NJARET20120-32247-56523-30000012D0000169D000500000075652300X GGSL
NJARET20120-32247-56783-10000564D0002640D011760002875678300  GGSL
NJARET20120-32247-56863-00000042D0000317D000280001075686300X GGSL
NJARET20120-32247-71060-20000012D0000159D001090000271060     GGSL
NJARET20120-32247-74150-70000648D0003580D0048500046274150    GGSL
NJARET20120-32247-74250-40000516D0004356D0035800041274250    GGSL
NJARET20120-32247-74850-60000104D0001991D0038900032274850    GGSL
NJARET20120-32247-75902-10000002D0000168D000210000075902     GGSL
NJARET20120-32247-76121-50000030D0001092D000780000276121     GGSL
NJARET20120-32247-76232-80000003D0000192D000370000176232     GGSL
NJARET20120-32247-77160-30000312D0001571D0064900039277160    GGSL
NJARET20120-32247-77260-00000264D0002327D0036900028277260    GGSL
NJARET20120-32247-77860-20000054D0000884D0022600013277860    GGSL
NJARET20120-32247-77960-90000232D0004908D0054800022277960    GGSL
NJARET20120-32247-99605-10000098D0002319D007990002599605     GGSL
NJARET20120-32903-00169-30001488D0001800D0003200022SLI06000E3GGSL
NJARET20120-32903-00171-60000192D0000232D0001900010SLI06000A3GGSL
NJARET20120-32903-00191-40000012D0000053D0001100001GAB12000E2GGSL
NJARET20120-32903-00192-10000264D0000319D0001500015SLI06000B9GGSL
NJARET20120-32903-00214-00000264D0000319D0001500006SLI06000E2GGSL
NJARET20120-32903-00222-50000528D0000818D0001200009SLI08000B9GGSL
NJARET20120-32903-00224-90000018D0000124D0002700001VNP18000E2GGSL
NJARET20120-32903-00227-00000012D0000050D0002300001SVN18000E2GGSL
NJARET20120-32903-00236-20000006D0000028D0003300001SVN24000E2GGSL
NJARET20120-32903-00240-90000240D0000372D0002700004SLI08000E2GGSL
NJARET20120-32903-00243-00000012D0000066D0001700001SVN30000E2GGSL
NJARET20120-32903-00246-10000456D0000707D0001900007SLI08000A3GGSL
NJARET20120-32903-00257-70000009D0000367D0001500002RZGH210G2 GGSL
NJARET20120-32903-00258-40000552D0000972D0001100005LIA06000E2GGSL
NJARET20120-32903-00264-50000384D0001021D0002000007LIA08000E2GGSL
NJARET20120-32903-00281-20000360D0001469D0001900011LIA10000E2GGSL
NJARET20120-32903-00283-60000012D0000074D0001200000GAB14000E2GGSL
NJARET20120-32903-00284-30000044D0001276D0000700001TEA20000G2GGSL
NJARET20120-32903-00290-40000018D0000183D0001600001VNP30000E2GGSL
NJARET20120-32903-00293-50000168D0000365D0001800011SLI10000E2GGSL
NJARET20120-32903-00301-70000005D0000073D0003600000ROP28000A3GGSL
NJARET20120-32903-00309-30001488D0003229D0004100041SLI10000E3GGSL
NJARET20120-32903-00313-00000006D0000057D0000200000GAB18000E2GGSL
NJARET20120-32903-00326-00000276D0001805D0001300008LIA12000E2GGSL
NJARET20120-32903-00332-10000516D0001120D0002800024SLI10000B9GGSL
NJARET20120-32903-00338-30000324D0000703D0002600012SLI10000A3GGSL
NJARET20120-32903-00341-30000180D0001496D0002100012SLI24000E3GGSL
NJARET20120-32903-00359-80001488D0002306D0002900021SLI08000E3GGSL
NJARET20120-32903-04255-90000084D0000694D0000800006LIA14000E2GGSL
NJARET20120-32903-04257-30000132D0000484D0001400005SLI12000E2GGSL
NJARET20120-32903-07519-90000120D0001537D0001900004LIA16000E2GGSL
NJARET20120-32903-07530-40000036D0000141D0001700007SLI14000E2GGSL
NJARET20120-32903-07534-20000012D0000206D0001000003LIA20000E2GGSL
NJARET20120-32903-07558-80000108D0000387D0003100008RZWC1Q0B9 GGSL
NJARET20120-32903-07563-20000096D0000420D0001100005SLI17000E2GGSL
NJARET20120-32903-12006-60000984D0001732D0002800021LIA06000E3GGSL
NJARET20120-32903-12008-00000960D0002554D0003100031LIA08000E3GGSL
NJARET20120-32903-12010-30000936D0003819D0002400021LIA10000E3GGSL
NJARET20120-32903-12012-70001032D0006749D0007100052LIA12000E3GGSL
NJARET20120-32903-12014-10000540D0004460D0002300017LIA14000E3GGSL
NJARET20120-32903-12017-20000264D0003382D0001400011LIA16000E3GGSL
NJARET20120-32903-12020-20000168D0002883D0000200002LIA20000E3GGSL
NJARET20120-32903-12024-00000084D0001924D0000300003LIA24000E3GGSL
NJARET20120-32903-12115-50000012D0000204D0000800002ROS15500E3GGSL
NJARET20120-32903-12312-80000240D0001267D0000700007CNA12000E3GGSL
NJARET20120-32903-12318-00000036D0000149D0002900004SVN18000E3GGSL
NJARET20120-32903-12324-10000042D0000194D0001400005SVN24000E3GGSL
NJARET20120-32903-12330-20000030D0000166D0002000001SVN30000E3GGSL
NJARET20120-32903-12712-60000156D0000690D0001500007GAB12000E3GGSL
NJARET20120-32903-12714-00000060D0000368D0002900005GAB14000E3GGSL
NJARET20120-32903-12718-80000042D0000397D0004300002GAB18000E3GGSL
NJARET20120-32903-12722-50000036D0000537D0002300000GAB22000E3GGSL
NJARET20120-32903-12818-50000084D0000579D0002600022VNP18000E3GGSL
NJARET20120-32903-12824-60000048D0000375D0004100009VNP24000E3GGSL
NJARET20120-32903-12830-70000030D0000304D0001600008VNP30000E3GGSL
NJARET20120-32903-22484-90000020D0000292D0000300000ROP28000E2GGSL
NJARET20120-32903-23732-00000042D0000275D0000400002SLI20000E2GGSL
NJARET20120-32903-23751-10000012D0000204D0000000000ROS15500E2GGSL
NJARET20120-32903-30392-60000120D0000264D0001000002CNA08000E3GGSL
NJARET20120-32903-31000-90000012D0000348D0000400000TEA20000E3GGSL
NJARET20120-32903-35079-10000003D0000160D0000300000TES20000G2GGSL
NJARET20120-32903-35947-30000192D0000645D0003100004CNA10000E3GGSL
NJARET20120-32903-40400-50000192D0000783D0000900009LIA10000A3GGSL
NJARET20120-32903-40493-70000480D0001277D0002800024LIA08000B9GGSL
NJARET20120-32903-40770-90000012D0000083D0004000012VNP18000A3GGSL
NJARET20120-32903-41472-10000012D0000066D0001700000SVN30000A3GGSL
NJARET20120-32903-41640-40000192D0000511D0000000000LIA08000A3GGSL
NJARET20120-32903-41717-30000156D0001289D0001600016LIA14000B9GGSL
NJARET20120-32903-41728-90000360D0002354D0002200022LIA12000B9GGSL
NJARET20120-32903-41842-20000012D0000122D0003100015VNP30000A3GGSL
NJARET20120-32903-41909-20000120D0001537D0001400002LIA16000A3GGSL
NJARET20120-32903-42050-00000030D0000687D0000500003LIA24000A3GGSL
NJARET20120-32903-42240-50000288D0000507D0002400020LIA06000B9GGSL
NJARET20120-32903-42728-80000012D0000055D0002700003SVN24000A3GGSL
NJARET20120-32903-45170-20000012D0000099D0000000000LIA14000A3GGSL
NJARET20120-32903-45342-30000018D0000141D0003000008VNP24000A3GGSL
NJARET20120-32903-45788-90000030D0000687D0000200001LIA24000B9GGSL
NJARET20120-32903-46337-80000216D0002767D0000900009LIA16000B9GGSL
NJARET20120-32903-46966-00000024D0000412D0001100005LIA20000A3GGSL
NJARET20120-32903-47208-00000264D0001727D0003000015LIA12000A3GGSL
NJARET20120-32903-48101-30000360D0000634D0001600013LIA06000A3GGSL
NJARET20120-32903-48538-70000018D0000309D0000100001LIA20000B9GGSL
NJARET20120-32903-50286-20000072D0000250D0000700007HSI10008E2GGSL
NJARET20120-32903-50763-80000756D0002775D0002900015SLI12000E3GGSL
NJARET20120-32903-50764-50000300D0001176D0000900009SLI14000B9GGSL
NJARET20120-32903-50767-60000264D0000969D0001300009SLI12000A3GGSL
NJARET20120-32903-50794-20000324D0001189D0002400016SLI12000B9GGSL
NJARET20120-32903-50802-40000456D0001788D0005800021SLI14000E3GGSL
NJARET20120-32903-50803-10000168D0000659D0001600004SLI14000A3GGSL
NJARET20120-32903-52340-90000030D0000139D0002700005SVN24000B9GGSL
NJARET20120-32903-52858-90000096D0000661D0000600002VNP18000B9GGSL
NJARET20120-32903-53271-50000012D0000100D0001900002SLI24000E2GGSL
NJARET20120-32903-55269-00000002D0000151D0000500000TEA30000E3GGSL
NJARET20120-32903-56391-70000336D0001166D0002300010HSI10008A1GGSL
NJARET20120-32903-57235-30000138D0001399D0001500015VNP30000B9GGSL
NJARET20120-32903-57495-10000024D0000132D0001700002SVN30000B9GGSL
NJARET20120-32903-58303-80000108D0000843D0000900004VNP24000B9GGSL
NJARET20120-32903-58838-50000024D0000099D0002100001SVN18000B9GGSL
NJARET20120-32903-60930-10000003D0000160D0000300000TES20000E3GGSL
NJARET20120-32903-61636-10000144D0000500D0001900014HSI10008B6GGSL
NJARET20120-32903-63553-90000012D0000457D0000500000TEA24000E3GGSL
NJARET20120-32903-63553-90000008D0000305D0000000000TEA25000E3GGSL
NJARET20120-32903-66002-90000040D0000584D0004300001ROP28000E3GGSL
NJARET20120-32903-71041-00000018D0000113D0000000000RZWC1G0E3 GGSL
NJARET20120-32903-72233-80000300D0001224D0001700017LIA10000B9GGSL
NJARET20120-32903-72886-60000048D0000301D0002100014RZWC1G0B9 GGSL
NJARET20120-32903-75049-20000138D0000903D0000900009SLI20000E3GGSL
NJARET20120-32903-75051-50000156D0000682D0001700003SLI17000A3GGSL
NJARET20120-32903-75057-70000240D0001049D0001300005SLI17000B9GGSL
NJARET20120-32903-75070-60000042D0000275D0001600005SLI20000A3GGSL
NJARET20120-32903-75080-50000468D0002045D0004300023SLI17000E3GGSL
NJARET20120-32903-75081-20000084D0000549D0001000005SLI20000B9GGSL
NJARET20120-32903-75084-30000060D0000499D0001700004SLI24000A3GGSL
NJARET20120-32903-75089-80000048D0000399D0000900005SLI24000B9GGSL
NJARET20120-32903-91270-80000006D0000220D0000500001RZGH210E3 GGSL
NJARET20120-32903-91300-20000036D0000281D0000700001VNP2400G18GGSL
NJARET20120-32903-91303-30000024D0000243D0000400000VNP3000G18GGSL
NJARET20120-32903-91320-00000012D0000348D0000200001TEA20000G8GGSL
NJARET20120-32903-91321-70000004D0000152D0000400001TEA24000G8GGSL
NJARET20120-32903-91322-40000002D0000151D0000400000TEA30000G8GGSL
NJARET20120-32903-91323-10000003D0000160D0000300000TES20000G8GGSL
NJARET20120-32903-91324-80000014D0001102D0000200000TES24000G8GGSL
NJARET20120-32903-91485-60000030D0000377D0001200005SPX24DBA34GGSL
NJARET20120-33200-00020-40000216D0000157D00189000003320000020GGSL
NJARET20120-33200-00544-50002758D0027635D013730137300544     GGSL
NJARET20120-33200-01191-00000208D0001471D000000000001191     GGSL
NJARET20120-33200-09020-50000396D0002772D000010000109020     GGSL
NJARET20120-33200-09142-40000356D0002488D000000000009142     GGSL
NJARET20120-33200-09293-30001028D0007186D00002000029293      GGSL
NJARET20120-33200-11321-80000390D0000519D000000000011321     GGSL
NJARET20120-33200-11448-20000006D0000008D001100000011448     GGSL
NJARET20120-33200-94182-80002794D0027996D016770134194182     GGSL
NJARET20120-33200-97457-40002536D0026400D000150001597457     GGSL
NJARET20120-33349-00130-80002808D0000337D0000100001JP3BULK   GGSL
NJARET20120-33349-03110-70001998D0002778D0013000013JP310     GGSL
NJARET20120-33349-05042-90000180D0000849D0000700006J324      GGSL
NJARET20120-33349-05047-40000012D0000068D0000300000J6R16     GGSL
NJARET20120-33349-05048-10000096D0000391D0000800002J3R36     GGSL
NJARET20120-33349-05072-60000024D0000186D0000000000G416      GGSL
NJARET20120-33349-05074-00000012D0000092D0000000000G516      GGSL
NJARET20120-33349-05082-50000320D0000990D0006000005JP506     GGSL
NJARET20120-33349-05262-10000028D0000396D0000000000T70H      GGSL
NJARET20120-33349-05618-60000928D0004959D0022700028G310      GGSL
NJARET20120-33349-07750-10000290D0000950D0004300007J4R25     GGSL
NJARET20120-33349-41211-10000836D0000918D0007200006JP212     GGSL
NJARET20120-33349-41214-20000400D0000834D0008000013JP226     GGSL
NJARET20120-33349-41221-00001400D0002835D0003600005TDOME     GGSL
NJARET20120-33349-41234-00002750D0004600D0006300010TTRAY     GGSL
NJARET20120-33349-41238-80000434D0002047D0005500006T32       GGSL
NJARET20120-33349-41251-70000600D0001814D0004200007JS50      GGSL
NJARET20120-33349-41254-80000700D0002101D0008900006JS32      GGSL
NJARET20120-33349-41258-60000352D0000649D0001100004TR72      GGSL
NJARET20120-33349-41318-70000342D0001008D0005900008JP322     GGSL
NJARET20120-33349-41444-30002112D0000426D0001400000JP4BULK   GGSL
NJARET20120-33349-41444-30000924D0002095D0007800009JP406     GGSL
NJARET20120-33349-41620-10000027D0000209D0015000000G316      GGSL
NJARET20120-33349-41701-70011000D0001330D0002300003J4BULK    GGSL
NJARET20120-33349-41710-90000646D0002050D0007900008J312      GGSL
NJARET20120-33349-65140-40000034D0000102D0000600002J410      GGSL
NJARET20120-33349-65153-40000060D0000378D0000700000G312      GGSL
NJARET20120-33349-65204-30000033D0000293D0000000000T14H      GGSL
NJARET20120-33349-65205-00000022D0000199D0000700003T34H      GGSL
NJARET20120-33349-65220-30000024D0000380D0000600002JH48      GGSL
NJARET20120-33349-66003-10000300D0003068D0003200005J372ST20  GGSL
NJARET20120-33349-66005-50000144D0001197D0002500003J425ST16  GGSL
NJARET20120-33349-66008-60000050D0000715D0003000003J636ST10  GGSL
NJARET20120-33349-66009-30001134D0007232D0022300018T72HST14  GGSL
NJARET20120-33349-66010-90000384D0003056D0005000006TS50HST16 GGSL
NJARET20120-33349-66015-40000252D0001483D0004100005TS20HST14 GGSL
NJARET20120-33349-66016-10000308D0001936D0003700007TS32HST14 GGSL
NJARET20120-33607-00320-40000002D0000212D0004500001TTMIX124  GGSL
NJARET20120-33607-01206-00000024D0000282D0000000000WHR6      GGSL
NJARET20120-33607-22000-70000012D0000132D0006000002HCWM1     GGSL
NJARET20120-33607-22100-40000008D0000126D0003300000HTWHEEL8  GGSL
NJARET20120-33607-22125-70000001D0000133D0004700007HT2EZ     GGSL
NJARET20120-33607-22550-70000002D0000189D0000400000SRWM180   GGSL
NJARET20120-33607-52100-50000040D0001885D0002100001GKS2      GGSL
NJARET20120-34411-02844-50000018D0000126D00003000008220031011GGSL
NJARET20120-34411-02971-80000006D0000142D00076000008550321001GGSL
NJARET20120-34411-74001-90000016D0000814D00004000008740011001GGSL
NJARET20120-34411-92774-80000048D0000582D00011000018705011001GGSL
NJARET20120-34517-15025-00000002D0000019D0002200000GMC10L    GGSL
NJARET20120-34613-00011-90000036D0000310D0001700000LH011     GGSL
NJARET20120-34613-00012-60000012D0000103D0000900000LH012     GGSL
NJARET20120-34613-00013-30000036D0000310D0000100000LH013     GGSL
NJARET20120-34613-00014-00000048D0000414D0000700000LH014     GGSL
NJARET20120-34613-00015-70000012D0000150D0000300001LH015     GGSL
NJARET20120-34613-00060-70000006D0000084D0000800002TP60      GGSL
NJARET20120-34613-00068-30000012D0000194D000280000068WP      GGSL
NJARET20120-34613-00212-00000024D0000046D0000000000CVS006HD  GGSL
NJARET20120-34613-00214-40000025D0000030D0000200000CVS010DL  GGSL
NJARET20120-34613-00215-10000120D0000330D0000000000CVS010HD  GGSL
NJARET20120-34613-00216-80000030D0000185D0000300000U2403     GGSL
NJARET20120-34613-00325-70000025D0000207D0000200002325       GGSL
NJARET20120-34613-00332-50000024D0000090D0000400002332       GGSL
NJARET20120-34613-00342-40000024D0000090D0000100000342       GGSL
NJARET20120-34613-00402-50000012D0000066D0000300000402       GGSL
NJARET20120-34613-00403-20000012D0000060D0000100000403       GGSL
NJARET20120-34613-00405-60000012D0000023D0000100001CVS405    GGSL
NJARET20120-34613-00406-30000012D0000029D0000300002CVS406    GGSL
NJARET20120-34613-00407-00000012D0000052D0000300002CVS407    GGSL
NJARET20120-34613-00409-40000012D0000066D0000200002CVS409    GGSL
NJARET20120-34613-00411-70000012D0000120D0000100000CVS411    GGSL
NJARET20120-34613-00412-40000012D0000128D0000100000CVS412    GGSL
NJARET20120-34613-00425-40000025D0000275D0000300001425       GGSL
NJARET20120-34613-00443-80000050D0000017D0000000000CVS004DL  GGSL
NJARET20120-34613-00451-30000036D0000168D0000300000451       GGSL
NJARET20120-34613-00550-30000012D0000042D0001000000550BL     GGSL
NJARET20120-34613-00551-00000024D0000083D0001200000551BL     GGSL
NJARET20120-34613-00552-70000048D0000166D0001300000552BL     GGSL
NJARET20120-34613-00553-40000060D0000208D0001700000553BL     GGSL
NJARET20120-34613-00643-20000025D0000011D0000100000CVS006DL  GGSL
NJARET20120-34613-00773-60000012D0000030D0000000000773       GGSL
NJARET20120-34613-00775-00000024D0000048D0005200000775       GGSL
NJARET20120-34613-00776-70000012D0000027D0000000000776       GGSL
NJARET20120-34613-00777-40000036D0000080D0000700007777       GGSL
NJARET20120-34613-00802-30000280D0000286D0000400004SS2       GGSL
NJARET20120-34613-00803-00000400D0000448D0000300003SS3       GGSL
NJARET20120-34613-00804-70000320D0000515D0000400003SS4       GGSL
NJARET20120-34613-00805-40000120D0000222D0001000003SS5       GGSL
NJARET20120-34613-00806-10000220D0000557D0000200002SS6       GGSL
NJARET20120-34613-00807-80000110D0000715D0000100001SS7HD     GGSL
NJARET20120-34613-00808-50000310D0002179D0000000000SS8HD     GGSL
NJARET20120-34613-00809-20000040D0000025D0001700003SS6HD     GGSL
NJARET20120-34613-00843-60000025D0000018D0000100000CVS008DL  GGSL
NJARET20120-34613-00876-40000020D0000127D0000300000SP6       GGSL
NJARET20120-34613-00884-90000096D0000204D0000000000CVS008HD  GGSL
NJARET20120-34613-00924-20000012D0000213D0000600000924       GGSL
NJARET20120-34613-01150-40000060D0000231D00011000001150PDQ   GGSL
NJARET20120-34613-01160-30000030D0000089D00000000001160      GGSL
NJARET20120-34613-01161-00000084D0000273D00009000041161PDQ   GGSL
NJARET20120-34613-01180-10000024D0000063D00006000021180PDQ   GGSL
NJARET20120-34613-01243-30000025D0000048D0000000000CVS012DL  GGSL
NJARET20120-34613-01284-60000036D0000143D0000100000CVS012HD  GGSL
NJARET20120-34613-01443-70000025D0000060D0000000000CVS014DL  GGSL
NJARET20120-34613-01484-00000036D0000203D0000100000CVS014HD  GGSL
NJARET20120-34613-01502-10000024D0000042D00028000001502      GGSL
NJARET20120-34613-01503-80000036D0000064D00036000001503      GGSL
NJARET20120-34613-01684-40000036D0000260D0000100000CVS016HD  GGSL
NJARET20120-34613-01902-90000204D0001769D00008000001902      GGSL
NJARET20120-34613-01903-60000204D0001769D00023000051903      GGSL
NJARET20120-34613-01906-70000012D0000158D00003000011906      GGSL
NJARET20120-34613-01908-10000024D0000210D00002000001908      GGSL
NJARET20120-34613-02124-40000012D0000129D00000000002124      GGSL
NJARET20120-34613-02130-50000024D0000283D00003000002130      GGSL
NJARET20120-34613-03012-30000012D0000157D00001000003012      GGSL
NJARET20120-34613-03038-30000012D0000063D00002000002104BL    GGSL
NJARET20120-34613-03104-50000018D0000174D00022000023104      GGSL
NJARET20120-34613-03110-60000006D0000047D00004000003110      GGSL
NJARET20120-34613-03344-50000006D0000141D00002000013344      GGSL
NJARET20120-34613-03603-30000105D0000741D0000500000U3603     GGSL
NJARET20120-34613-04803-60000045D0000369D0000200000U4803     GGSL
NJARET20120-34613-04830-20000006D0000072D00019000134830      GGSL
NJARET20120-34613-04850-00000006D0000058D00001000003104BL    GGSL
NJARET20120-34613-04856-20000006D0000029D00002000008131BL    GGSL
NJARET20120-34613-04862-30000036D0000310D0000600002LH013BL   GGSL
NJARET20120-34613-04863-00000036D0000310D0002000003LH014BL   GGSL
NJARET20120-34613-04864-70000024D0000207D0000900002LH016BL   GGSL
NJARET20120-34613-04870-80000024D0000300D0001100000LH015BL   GGSL
NJARET20120-34613-04871-50000024D0000258D00001000002124BL    GGSL
NJARET20120-34613-05826-40000012D0000176D00007000025826      GGSL
NJARET20120-34613-05900-10000006D0000072D00004000005900BL    GGSL
NJARET20120-34613-06349-70000048D0000156D00026000026349      GGSL
NJARET20120-34613-06385-50000060D0000555D00055000416385      GGSL
NJARET20120-34613-06790-70000006D0000096D00019000106790      GGSL
NJARET20120-34613-06792-10000030D0000079D00000000006792      GGSL
NJARET20120-34613-06793-80000018D0000057D00057000186793      GGSL
NJARET20120-34613-06794-50000054D0000442D00012000126794      GGSL
NJARET20120-34613-06796-90000018D0000235D00009000096796      GGSL
NJARET20120-34613-07160-70000024D0000157D00001000007160BL    GGSL
NJARET20120-34613-07162-10000024D0000157D00001000007162BL    GGSL
NJARET20120-34613-07164-50000012D0000078D00002000007164BL    GGSL
NJARET20120-34613-07278-90000060D0000364D00057000117278SP    GGSL
NJARET20120-34613-07378-60000012D0000081D00000000007378BL    GGSL
NJARET20120-34613-07379-30000012D0000141D00000000007379BL    GGSL
NJARET20120-34613-07380-90000012D0000185D00000000007380BL    GGSL
NJARET20120-34613-08131-60000006D0000029D00003000008131      GGSL
NJARET20120-34613-08446-10000006D0000097D0002300002BF24      GGSL
NJARET20120-34613-09580-10000012D0000061D00006000009580BL    GGSL
NJARET20120-34613-09581-80000012D0000078D00000000009581      GGSL
NJARET20120-34613-09628-00000048D0000389D00000000009628      GGSL
NJARET20120-34613-34004-80000150D0000032D0000000000CVS004    GGSL
NJARET20120-34613-34006-20000225D0000074D0001500006CVS006    GGSL
NJARET20120-34613-34007-90000100D0000034D0000000000CVS007    GGSL
NJARET20120-34613-34008-60000300D0000141D0000700004CVS008    GGSL
NJARET20120-34613-34009-30000150D0000090D0000000000CVS009    GGSL
NJARET20120-34613-34010-90000300D0000213D0000800006CVS010    GGSL
NJARET20120-34613-34012-30000200D0000220D0000800000CVS012    GGSL
NJARET20120-34613-34014-70000075D0000110D0001000000CVS014    GGSL
NJARET20120-34613-59774-90000008D0001938D000690000059774     GGSL
NJARET20120-34613-65497-80000001D0000041D000000000065497     GGSL
NJARET20120-34613-65682-80000003D0000122D000000000065682     GGSL
NJARET20120-34613-66637-70000006D0001299D000420000066637     GGSL
NJARET20120-34613-69883-50000004D0000279D000580000069883     GGSL
NJARET20120-34613-70159-70000006D0000072D00001000007159BL    GGSL
NJARET20120-34613-70280-80000025D0000453D000000000070280     GGSL
NJARET20120-34613-92006-60000024D0000073D000060000192006     GGSL
NJARET20120-34613-94006-40000030D0000224D000070000294006     GGSL
NJARET20120-34613-95006-30000066D0000624D000030000295006     GGSL
NJARET20120-34613-96006-20000042D0000444D000040000096006     GGSL
NJARET20120-35000-05361-90000780D0000538D0015000045105375    GGSL
NJARET20120-35000-39014-10000108D0000254D000110000039014     GGSL
NJARET20120-35000-39160-50000006D0000009D000000000039121     GGSL
NJARET20120-35000-39373-90000160D0000888D000110000039373     GGSL
NJARET20120-35000-45038-50000027D0000071D0015300153US04232A  GGSL
NJARET20120-35000-45041-50003663D0007875D0000900000US04229A  GGSL
NJARET20120-35000-45093-70000450D0001742D0000000000US04282A  GGSL
NJARET20120-35000-45118-40002718D0006387D0000000000US04268A  GGSL
NJARET20120-35000-45122-40000004D0000025D0007900000US04284A  GGSL
NJARET20120-35000-45329-70002612D0010735D0006700067US04574A  GGSL
NJARET20120-35000-46057-60000016D0000025D0022700000US04248A  GGSL
NJARET20120-35000-47805-40000117D0000276D000500002647805     GGSL
NJARET20120-35000-49874-80000008D0000048D000770000049874     GGSL
NJARET20120-35000-49875-50000020D0000024D0022700000144633    GGSL
NJARET20120-35000-53030-10000042D0000120D0014300043153043    GGSL
NJARET20120-35000-53032-50000144D0000384D0020100115153041    GGSL
NJARET20120-35000-53060-80000128D0000598D000640000053060     GGSL
NJARET20120-35000-53061-50000006D0000052D000720000053091     GGSL
NJARET20120-35000-53063-90004512D0006091D000740000053063     GGSL
NJARET20120-35000-53099-80000048D0000110D001420005153099     GGSL
NJARET20120-35000-53122-30000174D0001053D007020051553122     GGSL
NJARET20120-35000-55190-00000018D0000054D0002500002155190    GGSL
NJARET20120-35000-97018-30000072D0000464D0023800223US06329A  GGSL
NJARET20120-35000-97298-90000800D0005304D0000000000US06490A  GGSL
NJARET20120-35000-97299-60000600D0001986D0000000000US06491A  GGSL
NJARET20120-35000-97301-60000400D0002652D0000000000US06489A  GGSL
NJARET20120-35000-97335-10000204D0001308D0020000000US06517A  GGSL
NJARET20120-35000-97336-80000264D0001692D0021400214US06516A  GGSL
NJARET20120-35000-97343-60000174D0000534D0000000000US06522A  GGSL
NJARET20120-35000-97354-20000140D0000654D0003900039US06531A  GGSL
NJARET20120-35000-98568-20000384D0002388D0000000000US07336A  GGSL
NJARET20120-35110-01900-00000968D0006631D000800008001900     GGSL
NJARET20120-35110-01903-10000036D0000342D002470024701903     GGSL
NJARET20120-35110-04915-10000036D0000345D000870001404915     GGSL
NJARET20120-35307-00404-80000012D0000045D0000000000404       GGSL
NJARET20120-35307-00781-00000012D0000107D0000400002781       GGSL
NJARET20120-35307-00782-70000012D0000110D0000700001782       GGSL
NJARET20120-35307-00803-90000024D0000040D0000800001803       GGSL
NJARET20120-35307-00805-30000012D0000029D0000800000805       GGSL
NJARET20120-35307-00812-10000048D0000117D0000200002812       GGSL
NJARET20120-35307-00816-90000048D0000077D0001500009816       GGSL
NJARET20120-35307-00818-30000024D0000042D0000000000818       GGSL
NJARET20120-35307-00819-00000024D0000047D0000100000819       GGSL
NJARET20120-35307-00820-60000012D0000019D0001000005820       GGSL
NJARET20120-35307-00826-80000012D0000022D0000700007826       GGSL
NJARET20120-35307-00827-50000024D0000045D0002000020827       GGSL
NJARET20120-35307-00835-00000048D0000270D0003400006835       GGSL
NJARET20120-35307-00840-40000060D0000146D0001000010840       GGSL
NJARET20120-35307-00841-10000072D0000141D0001400014841       GGSL
NJARET20120-35307-00843-50000024D0000070D0000300003843       GGSL
NJARET20120-35307-00861-90000060D0000160D0001300007861       GGSL
NJARET20120-35307-00862-60000024D0000066D0000600006862       GGSL
NJARET20120-35307-00864-00000060D0000235D0000600006864       GGSL
NJARET20120-35307-00869-50000012D0000121D0001100009869       GGSL
NJARET20120-35307-00874-90000108D0000167D0000600004874       GGSL
NJARET20120-35307-00877-00000012D0000019D0000000000877       GGSL
NJARET20120-35307-00914-20000060D0000379D0000200000914       GGSL
NJARET20120-35307-00916-60000024D0000054D0001300000916       GGSL
NJARET20120-35307-00917-30000048D0000124D0000400000917       GGSL
NJARET20120-35307-00967-80000036D0000071D0001400005967       GGSL
NJARET20120-35307-00971-50000012D0000063D0000300002971       GGSL
NJARET20120-35307-00972-20000012D0000068D0001000002972       GGSL
NJARET20120-35307-00973-90000024D0000152D0002000000973       GGSL
NJARET20120-35307-00978-40000060D0000316D0001600008978       GGSL
NJARET20120-35307-00985-20000024D0000057D0000000000985       GGSL
NJARET20120-35307-00987-60000024D0000086D0000500003987       GGSL
NJARET20120-35307-01040-70000048D0000145D00008000071040      GGSL
NJARET20120-35307-01045-20000048D0000187D00012000011045      GGSL
NJARET20120-35307-01601-00000102D0001243D00026000261601      GGSL
NJARET20120-35307-01625-60000006D0000069D00000000001625      GGSL
NJARET20120-35307-01630-00000012D0000095D00000000001630      GGSL
NJARET20120-35307-01638-60000006D0000026D00001000011638      GGSL
NJARET20120-35307-01640-90000006D0000033D00005000041640      GGSL
NJARET20120-35307-01646-10000012D0000105D00002000001646      GGSL
NJARET20120-35307-01810-60000012D0000055D00001000011810      GGSL
NJARET20120-35307-01810-60000024D0000107D000000000018106     GGSL
NJARET20120-35307-01815-10000036D0000222D00004000041815      GGSL
NJARET20120-35307-01817-50000006D0000045D000000000018176     GGSL
NJARET20120-35307-01835-90000003D0000083D00003000001835      GGSL
NJARET20120-35307-01847-20000018D0000402D00000000001847      GGSL
NJARET20120-35307-01880-90000006D0000163D00000000001880      GGSL
NJARET20120-35307-90872-80000012D0000044D0000000000872       GGSL
NJARET20120-35951-07000-00000612D0006288D000520000707000     GGSL
NJARET20120-35951-07007-90000060D0000822D000140000407007     GGSL
NJARET20120-35951-07009-30000012D0000267D000120000007009     GGSL
NJARET20120-35951-07011-60000060D0003948D000100000007011     GGSL
NJARET20120-35951-07013-00000007D0002219D000140000007014     GGSL
NJARET20120-36151-46825-30000034D0000877D00074000002646825   GGSL
NJARET20120-36241-66300-10000018D0000121D009360000074297     GGSL
NJARET20120-36241-97161-80000004D0000038D001170000097161     GGSL
NJARET20120-36241-97402-20000120D0000542D0034700000974022    GGSL
NJARET20120-36348-00645-90000018D0000273D00011000010645      GGSL
NJARET20120-36348-00745-60000001D0000019D00044000000745      GGSL
NJARET20120-36348-01020-30000018D0000306D00017000021020      GGSL
NJARET20120-36348-01025-80000019D0000533D00014000021025      GGSL
NJARET20120-36348-01030-20000011D0000405D00007000021030      GGSL
NJARET20120-36348-01079-10000003D0000161D00029000061079      GGSL
NJARET20120-36348-01085-20000003D0000201D00013000011085      GGSL
NJARET20120-36348-56006-70000001D0000584D0000000000DO5600DB  GGSL
NJARET20120-36434-00009-50000024D0000331D00003000011000009   GGSL
NJARET20120-36434-11000-80000012D0000120D00049000026011000   GGSL
NJARET20120-36434-12340-40000012D0000026D00002000026012340   GGSL
NJARET20120-36434-12341-10000024D0000260D00001000011012341   GGSL
NJARET20120-36434-12342-80000018D0000113D00017000046012342   GGSL
NJARET20120-36434-12346-60000084D0000386D00058000116012346   GGSL
NJARET20120-36434-12348-00000008D0000077D00000000001012348   GGSL
NJARET20120-36434-12349-70000012D0000048D00001000016012349   GGSL
NJARET20120-36434-12351-00000060D0000276D00000000006012351   GGSL
NJARET20120-36434-12353-40000042D0000690D00002000016012353   GGSL
NJARET20120-36434-12368-80000012D0000114D00000000001012368   GGSL
NJARET20120-36434-12420-30000036D0000392D00030000121012420   GGSL
NJARET20120-36434-12625-20000006D0000039D00000000006012625   GGSL
NJARET20120-36434-12700-60000780D0006622D00104000581012700   GGSL
NJARET20120-36434-12710-50000024D0000175D00021000011012710   GGSL
NJARET20120-36434-12720-40000120D0000785D00039000111012720   GGSL
NJARET20120-36434-12812-60000024D0000389D00021000021012812   GGSL
NJARET20120-36434-12860-70000036D0000481D00027000011012860   GGSL
NJARET20120-36434-13001-30000036D0000190D00015000021013001   GGSL
NJARET20120-36434-13700-50000180D0001498D00042000111032700   GGSL
NJARET20120-36434-13812-50000036D0000653D00027000071013812   GGSL
NJARET20120-36434-13860-60000012D0000182D00005000051013860   GGSL
NJARET20120-36434-15000-40000102D0003328D00033000331015000   GGSL
NJARET20120-36434-15005-90000018D0000599D00001000011015005   GGSL
NJARET20120-36434-15020-20000024D0000424D00028000211015020   GGSL
NJARET20120-36434-15025-70000012D0000216D00001000011015025   GGSL
NJARET20120-36434-15030-10000024D0000506D00023000011015030   GGSL
NJARET20120-36434-15040-00000048D0000486D00030000091015040   GGSL
NJARET20120-36434-15060-80000042D0000639D00021000091015050   GGSL
NJARET20120-36434-15060-80000084D0001278D00000000001015060   GGSL
NJARET20120-36434-15070-70000006D0000082D00022000041015070   GGSL
NJARET20120-36434-17000-20000012D0000560D00029000041017000   GGSL
NJARET20120-36434-17010-10000054D0001185D00015000031017010   GGSL
NJARET20120-36434-17020-00000024D0000376D00014000001017020   GGSL
NJARET20120-36434-17050-70000006D0000110D00017000171017050   GGSL
NJARET20120-36434-17051-40000006D0000073D00019000191017051   GGSL
NJARET20120-36434-17061-30000030D0000182D00000000001017061   GGSL
NJARET20120-36434-17303-40000001D0000096D000000000017303     GGSL
NJARET20120-36434-18016-20000012D0000100D00000000001018016   GGSL
NJARET20120-36434-18037-70000024D0000206D00001000011018037   GGSL
NJARET20120-36434-20000-60000036D0000815D00007000001020000   GGSL
NJARET20120-36434-22310-40000006D0000034D00002000026022310   GGSL
NJARET20120-36434-22312-80000006D0000057D00000000006022312   GGSL
NJARET20120-36434-22318-00000078D0000316D00023000136022318   GGSL
NJARET20120-36434-22358-60000012D0000157D00001000011022358   GGSL
NJARET20120-36434-22626-60000006D0000074D00003000026022626   GGSL
NJARET20120-36434-22728-70000006D0000077D00001000016022728   GGSL
NJARET20120-36434-22729-40000012D0000158D00002000026022729   GGSL
NJARET20120-36434-28040-40000072D0001007D00020000071028040   GGSL
NJARET20120-37321-00022-80000036D0000241D0000900009022       GGSL
NJARET20120-37321-00023-50000008D0000163D0000200002023       GGSL
NJARET20120-37321-00051-80000054D0000671D0006600044051       GGSL
NJARET20120-37321-00053-20000048D0000134D0001100006053       GGSL
NJARET20120-37321-00055-60000006D0000086D0001400004055       GGSL
NJARET20120-37321-00061-70000192D0001496D0014000036061       GGSL
NJARET20120-37321-00065-50000024D0000130D0002200003065       GGSL
NJARET20120-37321-00066-20000060D0000733D0005500020066       GGSL
NJARET20120-37321-00068-60000012D0000067D0006800021068       GGSL
NJARET20120-37321-00069-30000108D0001463D0008700010069       GGSL
NJARET20120-37321-00070-90000012D0000185D0001300002070       GGSL
NJARET20120-37321-00081-50000012D0000081D0002200003081       GGSL
NJARET20120-37321-00082-20000004D0000069D0001300002082       GGSL
NJARET20120-37321-00097-60000048D0000268D0002300005097       GGSL
NJARET20120-37321-00099-00000012D0000083D0002900004099       GGSL
NJARET20120-37321-00102-70000012D0000147D0001900002102       GGSL
NJARET20120-37321-00103-40000032D0001166D0000500000103       GGSL
NJARET20120-37321-00106-50000036D0000107D0001700002106       GGSL
NJARET20120-37321-00108-90001260D0003732D0009400054108       GGSL
NJARET20120-37321-00110-20001776D0005893D0013800139110       GGSL
NJARET20120-37321-00112-60000248D0000760D0000900009112       GGSL
NJARET20120-37321-00114-00000032D0000107D0001600004114       GGSL
NJARET20120-37321-00116-40000056D0000188D0001300005116       GGSL
NJARET20120-37321-00123-20000012D0000049D0000300000123       GGSL
NJARET20120-37321-00147-80000012D0000081D0001000000147       GGSL
NJARET20120-37321-00148-50000072D0000751D0001500003148       GGSL
NJARET20120-37321-00150-80000060D0001016D0004400009150       GGSL
NJARET20120-37321-00160-70000024D0000085D0002800011160       GGSL
NJARET20120-37321-00165-20000016D0000195D0003300002165       GGSL
NJARET20120-37321-00167-60000036D0000227D0000400004167       GGSL
NJARET20120-37321-00171-30000180D0001715D0001000007171       GGSL
NJARET20120-37321-00196-60000144D0000878D0009900012196       GGSL
NJARET20120-37321-00197-30000096D0000586D0008200007197       GGSL
NJARET20120-37321-00198-00000072D0000836D0001400003198       GGSL
NJARET20120-37321-00201-70000012D0000083D0000200000201       GGSL
NJARET20120-37321-00202-40000096D0001052D0012000016202       GGSL
NJARET20120-37321-00203-10000048D0000750D0003000006203       GGSL
NJARET20120-37321-00210-90000180D0001078D0012100023210       GGSL
NJARET20120-37321-00211-60000096D0000830D0005200021211       GGSL
NJARET20120-37321-00212-30000020D0000399D0005700018212       GGSL
NJARET20120-37321-00213-00000168D0001788D0015500030213       GGSL
NJARET20120-37321-00214-70000048D0000271D0004200017214       GGSL
NJARET20120-37321-00216-10000108D0001830D0012600034216       GGSL
NJARET20120-37321-00217-80000036D0000383D0006200011217       GGSL
NJARET20120-37321-00218-50000024D0000375D0002500009218       GGSL
NJARET20120-37321-00221-50000192D0001098D0009800027221       GGSL
NJARET20120-37321-00225-30000132D0000763D0008900018225       GGSL
NJARET20120-37321-00237-60000024D0000325D0001000004237       GGSL
NJARET20120-37321-00238-30000120D0001057D0003300032238       GGSL
NJARET20120-37321-00239-00000268D0006299D0007700034239       GGSL
NJARET20120-37321-00240-60000072D0001220D0002600020240       GGSL
NJARET20120-37321-00252-90000036D0000449D0000200002252       GGSL
NJARET20120-37321-00255-00000012D0000255D0000300003255       GGSL
NJARET20120-37321-00257-40000060D0000239D0013600021257       GGSL
NJARET20120-37321-00258-10000012D0000077D0003100008258       GGSL
NJARET20120-37321-00272-70000060D0000243D0007200012272       GGSL
NJARET20120-37321-00274-10000132D0000892D0004600025274       GGSL
NJARET20120-37321-00276-50000108D0001572D0001100002276       GGSL
NJARET20120-37321-00307-60000108D0000508D0007900015307       GGSL
NJARET20120-37321-00308-30000072D0000754D0010000036308       GGSL
NJARET20120-37321-00309-00000072D0001270D0003900015309       GGSL
NJARET20120-37321-00310-60000006D0000187D0001500007310       GGSL
NJARET20120-37321-00312-00000012D0000247D0003900015312       GGSL
NJARET20120-37321-00321-20000018D0000110D0010800022321       GGSL
NJARET20120-37321-00322-90000012D0000228D0006800018322       GGSL
NJARET20120-37321-00330-40000048D0000488D0005800025330       GGSL
NJARET20120-37321-00331-10000072D0001188D0002500009331       GGSL
NJARET20120-37321-00370-00000012D0000056D0005700019370       GGSL
NJARET20120-37321-00371-70000012D0000074D0004700019371       GGSL
NJARET20120-37321-00372-40000040D0000410D0000200002372       GGSL
NJARET20120-37321-00411-00000048D0000162D0004200017411       GGSL
NJARET20120-37321-00412-70000012D0000065D0007800012412       GGSL
NJARET20120-37321-00413-40000008D0000098D0002100005413       GGSL
NJARET20120-37321-00426-40000060D0000651D0012800073426       GGSL
NJARET20120-37321-00428-80000024D0000098D0000400003428       GGSL
NJARET20120-37321-00442-40000192D0001296D0001900009442       GGSL
NJARET20120-37321-00506-30001008D0004673D0007700057506       GGSL
NJARET20120-37321-00527-80000108D0000474D0008700016527       GGSL
NJARET20120-37321-00530-80000016D0000168D0008100007530       GGSL
NJARET20120-37321-00543-80000060D0000198D0003600020543       GGSL
NJARET20120-37321-00544-50000048D0000288D0001600008544       GGSL
NJARET20120-37321-00560-50000132D0000614D0003900005560       GGSL
NJARET20120-37321-00564-30000048D0000521D0006400010564       GGSL
NJARET20120-37321-00568-10000012D0000296D0000700002568       GGSL
NJARET20120-37321-00571-10000012D0000104D0000700001571       GGSL
NJARET20120-37321-00573-50000048D0000219D0003100000573       GGSL
NJARET20120-37321-00574-20000004D0000043D0000500002574       GGSL
NJARET20120-37321-00603-90000045D0000434D000910003760315X    GGSL
NJARET20120-37321-00609-10000132D0001467D0012000022609       GGSL
NJARET20120-37321-00611-40000004D0000105D0004000014611       GGSL
NJARET20120-37321-00612-10000324D0001758D00153000510612      GGSL
NJARET20120-37321-00613-80000044D0000613D00118000310613      GGSL
NJARET20120-37321-00623-70000060D0000406D0005100010623       GGSL
NJARET20120-37321-00629-90000024D0000079D0000000000629       GGSL
NJARET20120-37321-00652-70000660D0003569D0000900009652       GGSL
NJARET20120-37321-00655-80000354D0002377D00113000406556      GGSL
NJARET20120-37321-00680-00000168D0001706D0004000008680       GGSL
NJARET20120-37321-00681-70000016D0000223D00022000030681      GGSL
NJARET20120-37321-00685-50000096D0001168D0002100002685       GGSL
NJARET20120-37321-00687-90000012D0000164D0001400001687       GGSL
NJARET20120-37321-00688-60000240D0001623D0004800030688       GGSL
NJARET20120-37321-00691-60001026D0008829D0013000024691       GGSL
NJARET20120-37321-00692-30000512D0006769D0009300041692       GGSL
NJARET20120-37321-00692-30000450D0005391D0000400001692150    GGSL
NJARET20120-37321-00692-30000100D0001262D000050000469250     GGSL
NJARET20120-37321-00698-50000012D0000072D0000300003698       GGSL
NJARET20120-37321-00705-00000132D0000850D0010900020705       GGSL
NJARET20120-37321-00728-90000048D0000617D0005600021728       GGSL
NJARET20120-37321-00731-90000036D0000360D0006100019731       GGSL
NJARET20120-37321-00752-40000018D0000135D0003600008752       GGSL
NJARET20120-37321-00753-10000006D0000064D0001900002753       GGSL
NJARET20120-37321-00754-80000008D0000251D0002800000754       GGSL
NJARET20120-37321-00757-90000048D0000210D0007200009757       GGSL
NJARET20120-37321-00758-60000068D0000704D0001300007758       GGSL
NJARET20120-37321-00771-50000012D0000064D0003700006771       GGSL
NJARET20120-37321-00772-20000024D0000208D0002000002772       GGSL
NJARET20120-37321-00775-30000444D0002657D0007500065775       GGSL
NJARET20120-37321-00777-70000108D0001075D0002600016777       GGSL
NJARET20120-37321-00779-10000108D0000935D0002800023779       GGSL
NJARET20120-37321-00784-50000192D0000569D0012600014784       GGSL
NJARET20120-37321-00786-90000084D0000418D0005900008786       GGSL
NJARET20120-37321-00788-30000012D0000080D0004200009788       GGSL
NJARET20120-37321-00802-60000072D0000431D0005200014802       GGSL
NJARET20120-37321-00803-30000576D0005735D0003400015803       GGSL
NJARET20120-37321-00806-40000516D0004289D0001800018806       GGSL
NJARET20120-37321-00807-10000020D0000519D0003800009807       GGSL
NJARET20120-37321-00811-80000912D0010886D0007800019811       GGSL
NJARET20120-37321-00813-20000030D0000445D0002300008813       GGSL
NJARET20120-37321-00814-90000012D0000291D0001300007814       GGSL
NJARET20120-37321-00858-30000024D0000367D0000700002858       GGSL
NJARET20120-37321-00862-00000012D0000164D0000900001862       GGSL
NJARET20120-37321-00865-10000048D0000271D0000700006865       GGSL
NJARET20120-37321-00868-20000078D0001050D0009200025868       GGSL
NJARET20120-37321-00870-50000072D0000335D0006700009870       GGSL
NJARET20120-37321-00871-20000492D0004898D0002200013871       GGSL
NJARET20120-37321-00875-00000012D0000136D0001600002875       GGSL
NJARET20120-37321-00880-40000396D0004994D0005600026880       GGSL
NJARET20120-37321-00881-10000024D0000552D0002400003881       GGSL
NJARET20120-37321-00883-50000108D0000575D0000600006883       GGSL
NJARET20120-37321-00894-10000012D0000109D0000000000894       GGSL
NJARET20120-37321-00903-00000024D0000163D0001600005903       GGSL
NJARET20120-37321-00904-70000036D0000329D0007600008904       GGSL
NJARET20120-37321-00908-50000012D0000128D0008600014908       GGSL
NJARET20120-37321-00917-70000018D0000227D0000500005917       GGSL
NJARET20120-37321-00925-20000192D0000599D0002300023925       GGSL
NJARET20120-37321-00941-20000168D0001900D0000600006941       GGSL
NJARET20120-37321-00944-30000048D0000278D0003200004944       GGSL
NJARET20120-37321-00945-00000018D0000180D0002400006945       GGSL
NJARET20120-37321-00951-10002316D0010689D0027300150951       GGSL
NJARET20120-37321-00952-80000072D0000405D0004500012952       GGSL
NJARET20120-37321-00963-40000048D0000480D0003400008963       GGSL
NJARET20120-37321-00969-60000012D0000082D0000400003969       GGSL
NJARET20120-37321-00978-80000027D0000148D0001800003978       GGSL
NJARET20120-37321-00979-50000001D0000009D0005800018979       GGSL
NJARET20120-37321-00982-50000024D0000113D0000100001982       GGSL
NJARET20120-37321-00983-20000030D0000599D0000600005983       GGSL
NJARET20120-37321-00987-00000084D0000837D0002900007987       GGSL
NJARET20120-37321-00992-40000096D0000945D0004000004992       GGSL
NJARET20120-37321-01971-80000048D0000230D00024000011971      GGSL
NJARET20120-37321-01972-50000012D0000053D00038000011972      GGSL
NJARET20120-37321-02360-90000036D0000266D00081000222360      GGSL
NJARET20120-37321-02361-60000516D0006337D00376000602361      GGSL
NJARET20120-37321-02362-30000096D0001947D00175000502362      GGSL
NJARET20120-37321-02761-40000006D0000131D00022000132761      GGSL
NJARET20120-37321-03081-20000006D0000119D00045000203081      GGSL
NJARET20120-37321-04281-50000015D0000296D00040000184281      GGSL
NJARET20120-37321-05131-20000012D0000180D00101000125131      GGSL
NJARET20120-37321-05710-90000012D0000080D00029000005710      GGSL
NJARET20120-37321-07458-80000720D0013954D00001000017458      GGSL
NJARET20120-37321-07460-10000072D0000512D00050000127460      GGSL
NJARET20120-37321-07461-80000084D0000994D00069000137461      GGSL
NJARET20120-37321-07462-50000004D0000137D00051000107462      GGSL
NJARET20120-37321-07463-20000004D0000382D00020000037463      GGSL
NJARET20120-37321-07464-90000012D0000177D00065000117464      GGSL
NJARET20120-37321-07467-00000012D0000174D00027000037467      GGSL
NJARET20120-37321-07468-70000006D0000153D00098000017468      GGSL
NJARET20120-37321-07469-40000016D0001335D00008000017469      GGSL
NJARET20120-37321-07490-80000066D0000422D00149000497490      GGSL
NJARET20120-37321-07492-20000024D0000488D00110000217492      GGSL
NJARET20120-37321-07493-90000018D0000359D00035000057493      GGSL
NJARET20120-37321-07497-70000120D0000558D00075000187497      GGSL
NJARET20120-37321-07498-40000016D0000189D00055000187498      GGSL
NJARET20120-37321-08636-90000006D0000076D00010000048636      GGSL
NJARET20120-37321-08751-90000036D0000192D00018000018751      GGSL
NJARET20120-37321-09534-70000156D0001894D00022000139534      GGSL
NJARET20120-37321-45100-60000108D0000538D000860001245100     GGSL
NJARET20120-37321-45504-20000012D0000140D000040000045504     GGSL
NJARET20120-37321-45602-50000024D0000133D000110000345602     GGSL
NJARET20120-37321-46190-60000096D0000310D000510000146190     GGSL
NJARET20120-37321-47062-50000600D0000402D000800000247062     GGSL
NJARET20120-37321-60200-20000012D0000055D000050000060200     GGSL
NJARET20120-37321-60201-90000070D0000680D000260000060202     GGSL
NJARET20120-37321-60204-00000085D0001748D000210000060205     GGSL
NJARET20120-37321-60207-10000032D0001619D000170000060207     GGSL
NJARET20120-37321-60211-80000050D0000486D000250000460212     GGSL
NJARET20120-37321-60214-90000070D0001460D000040000460215     GGSL
NJARET20120-37321-60217-00000018D0000915D000170000360217     GGSL
NJARET20120-37321-60221-70000130D0001264D000070000060222     GGSL
NJARET20120-37321-60227-90000039D0001973D000020000060227     GGSL
NJARET20120-37321-60251-40000030D0000252D000120000260252     GGSL
NJARET20120-37321-60254-50000020D0000375D000120000260255     GGSL
NJARET20120-37321-60257-60000014D0000722D000090000460257     GGSL
NJARET20120-37321-60261-30000020D0000143D000090000060262     GGSL
NJARET20120-37321-60264-40000015D0000197D000060000060265     GGSL
NJARET20120-37321-60271-20000040D0000373D000130000060272     GGSL
NJARET20120-37321-60274-30000035D0000660D000010000160275     GGSL
NJARET20120-37321-60277-40000007D0000339D000030000360277     GGSL
NJARET20120-37321-60281-10000020D0000183D000080000360282     GGSL
NJARET20120-37321-60365-80000001D0000035D000730000860365     GGSL
NJARET20120-37321-60400-60000017D0000213D000100001060400     GGSL
NJARET20120-37321-60410-50000110D0001289D004520000060410     GGSL
NJARET20120-37321-60414-30000035D0001094D000770000660414     GGSL
NJARET20120-37321-60420-40000150D0001817D004250001260420     GGSL
NJARET20120-37321-60424-20000031D0000992D000890001060424     GGSL
NJARET20120-37321-60430-30000030D0000303D006260000060430     GGSL
NJARET20120-37321-60434-10000020D0000531D000600000060434     GGSL
NJARET20120-37321-60440-20000015D0000154D000000000060440     GGSL
NJARET20120-37321-60447-10000023D0000266D000040000060448X    GGSL
NJARET20120-37321-60450-10000012D0000083D000590001060450     GGSL
NJARET20120-37321-60460-00000124D0001248D000140000260460     GGSL
NJARET20120-37321-60464-80000045D0001302D000820000060464     GGSL
NJARET20120-37321-60476-10000052D0000866D000460000060476     GGSL
NJARET20120-37321-60476-10000006D0000073D001410001060478X    GGSL
NJARET20120-37321-60490-70000056D0000828D000380001060490     GGSL
NJARET20120-37321-60514-00000008D0000112D000610000860514     GGSL
NJARET20120-37321-60613-00000004D0000037D000690000860613     GGSL
NJARET20120-37321-60613-00000016D0000116D000080000860614X    GGSL
NJARET20120-37321-60725-00000018D0000136D000160000760725     GGSL
NJARET20120-37321-61118-90000126D0001419D000060000261120     GGSL
NJARET20120-37321-61119-60000054D0000898D000460000361121     GGSL
NJARET20120-38241-51703-20000016D0000134D000040000051703     GGSL
NJARET20120-38313-00008-00000018D0000349D0000900005BP3130    GGSL
NJARET20120-38313-00060-80000120D0002378D0011100006BP3160    GGSL
NJARET20120-38313-00080-60000126D0002737D0007200008BP3180D   GGSL
NJARET20120-38313-00081-30000552D0005145D0000200002AC7220    GGSL
NJARET20120-38313-00217-60000018D0000350D0000500002FS4350    GGSL
NJARET20120-38313-00407-10000012D0000213D0001100001RS7041    GGSL
NJARET20120-38313-00413-20000012D0000280D0000400001RS7120    GGSL
NJARET20120-38313-00524-50000012D0000301D0000800001SL3310    GGSL
NJARET20120-38313-00526-90000018D0000551D0000300001WL3351    GGSL
NJARET20120-38313-00555-90000024D0000325D0001500004GS3750D   GGSL
NJARET20120-38313-01010-20000294D0001544D0019600050CT3010    GGSL
NJARET20120-38313-01020-10000174D0000914D0007500025CT3020    GGSL
NJARET20120-38313-01030-00000084D0000441D0009100011CT3030    GGSL
NJARET20120-38313-01040-90000006D0000032D0001700001CT3040    GGSL
NJARET20120-38313-03040-70000006D0000053D0000300002GT3040    GGSL
NJARET20120-38313-03050-60000012D0000106D0000800006GT3050    GGSL
NJARET20120-38313-03060-50000006D0000053D0001000007GT3060    GGSL
NJARET20120-38313-03080-30000006D0000053D0001400009GT3080    GGSL
NJARET20120-38313-03204-30000006D0000070D0000100001FS3204    GGSL
NJARET20120-38313-03214-20000018D0000211D0003900003BP3214D   GGSL
NJARET20120-38313-03230-20000012D0000137D0000000000RP3230    GGSL
NJARET20120-38313-03234-00000006D0000075D0000800002AP3234    GGSL
NJARET20120-38313-03244-90000018D0000384D0000100001HS3244    GGSL
NJARET20120-38313-03264-70000018D0000371D0000300001SL3264    GGSL
NJARET20120-38313-03334-70000006D0000073D0000300002AP3334    GGSL
NJARET20120-38313-03364-40000018D0000464D0000000000SL3364    GGSL
NJARET20120-38313-03710-90000060D0000397D0005300008CT3710    GGSL
NJARET20120-38313-03720-80000036D0000238D0005700003CT3720    GGSL
