TXBWIC20120-     -     - 0000008D0000137D0000000000116332    GGSL
TXBWIC20120-00001-31172-30000001D0000000D0000000000131172    GGSL
TXBWIC20120-00402-00000-00001136D0004535D0290900249          GGSL
TXBWIC20120-00402-01012-60000053D0003621D00207000151012      GGSL
TXBWIC20120-00402-01014-00000332D0016133D01227001411014      GGSL
TXBWIC20120-00402-01492-60000060D0000131D000280000014SSB     GGSL
TXBWIC20120-00402-01499-50000070D0000294D005760010014SS      GGSL
TXBWIC20120-00402-02419-20000003D0000050D001100000310XS-20   GGSL
TXBWIC20120-00402-02699-50000680D0000609D004800002010XS-20B  GGSL
TXBWIC20120-00402-02750-60000250D0000854D0120000050B75       GGSL
TXBWIC20120-00402-05418-20000175D0000341D00300000255418      GGSL
TXBWIC20120-00402-07566-80000050D0000080D000000000075FP      GGSL
TXBWIC20120-00402-10142-80000747D0036818D008600009310145B    GGSL
TXBWIC20120-00402-10147-30000004D0000286D00130000001014 G    GGSL
TXBWIC20120-00402-11730-60000075D0000181D002000000011730     GGSL
TXBWIC20120-00402-14311-40000020D0000075D000000000014CSBK    GGSL
TXBWIC20120-00402-14312-10000055D0000162D000100000014CSB     GGSL
TXBWIC20120-00402-14319-00000029D0000092D000260001014CS      GGSL
TXBWIC20120-00402-33117-70000275D0000090D0190000775PC11-7    GGSL
TXBWIC20120-00402-33354-60000600D0000077D0532500450PC5-4     GGSL
TXBWIC20120-00402-33375-10001400D0000278D0857501500PC7-5     GGSL
TXBWIC20120-00402-91014-30000227D0011881D00048000701014 BLACKGGSL
TXBWIC20120-00772-00167-00000006D0000060D0000000000167       GGSL
TXBWIC20120-00772-00494-70000006D0000045D0000000000494       GGSL
TXBWIC20120-00772-00575-30000004D0000030D0000000000575       GGSL
TXBWIC20120-00772-00594-40000006D0000060D0000000000594       GGSL
TXBWIC20120-00772-00656-90000004D0000040D0000000000656       GGSL
TXBWIC20120-00772-00704-70000001D0000030D0000000000704       GGSL
TXBWIC20120-00772-00732-00000002D0000013D0000000000732       GGSL
TXBWIC20120-00772-00738-20000002D0000013D0000000000738       GGSL
TXBWIC20120-00772-00775-70000003D0000019D0000000000775       GGSL
TXBWIC20120-00772-01073-30000006D0000000D00000000001073      GGSL
TXBWIC20120-00772-01077-10000001D0000000D00000000001077      GGSL
TXBWIC20120-00772-01078-80000001D0000000D00000000001078      GGSL
TXBWIC20120-00772-01079-50000001D0000000D00000000001079      GGSL
TXBWIC20120-00772-01900-20000006D0000045D00000000001900      GGSL
TXBWIC20120-00772-02053-40000002D0000012D00000000002053      GGSL
TXBWIC20120-00772-02054-10000003D0000018D00000000002054      GGSL
TXBWIC20120-00772-02055-80000003D0000018D00000000002055      GGSL
TXBWIC20120-00772-02095-40000002D0000013D00000000002095      GGSL
TXBWIC20120-00772-02195-10000003D0000045D00000000002195      GGSL
TXBWIC20120-00772-02388-70000006D0000030D00000000002388      GGSL
TXBWIC20120-00772-02390-00000001D0000007D00000000002390      GGSL
TXBWIC20120-00772-02424-20000001D0000010D00000000002424      GGSL
TXBWIC20120-00772-02505-80000004D0000069D00000000002505      GGSL
TXBWIC20120-00772-02759-50000001D0000045D00000000002759      GGSL
TXBWIC20120-00772-02946-90000010D0000002D00000000002946      GGSL
TXBWIC20120-00772-02947-60000010D0000002D00000000002947      GGSL
TXBWIC20120-00772-02948-30000010D0000002D00000000002948      GGSL
TXBWIC20120-00772-03084-70000002D0000010D00000000003084      GGSL
TXBWIC20120-00772-03272-80000001D0000004D00000000003272      GGSL
TXBWIC20120-00772-03700-60000004D0000100D00000000003700      GGSL
TXBWIC20120-00772-03701-30000001D0000025D00000000003701      GGSL
TXBWIC20120-00772-03704-40000002D0000050D00000000003704      GGSL
TXBWIC20120-00772-03722-80000002D0000010D00000000003722      GGSL
TXBWIC20120-00772-03723-50000003D0000015D00000000003723      GGSL
TXBWIC20120-00772-03726-60000003D0000015D00000000003726      GGSL
TXBWIC20120-00772-03730-30000002D0000010D00000000003730      GGSL
TXBWIC20120-00772-03771-60000003D0000019D00000000003771      GGSL
TXBWIC20120-00772-03785-30000002D0000025D00000000003785      GGSL
TXBWIC20120-00772-03954-30000002D0000020D00000000003954      GGSL
TXBWIC20120-00772-03974-10000002D0000020D00000000003974      GGSL
TXBWIC20120-00772-04019-80000004D0000040D00000000004019      GGSL
TXBWIC20120-00772-04074-70000002D0000020D00000000004074      GGSL
TXBWIC20120-00772-04097-60000001D0000010D00000000004097      GGSL
TXBWIC20120-00772-04165-20000001D0000015D00000000004165      GGSL
TXBWIC20120-00772-04169-00000002D0000015D00000000004169      GGSL
TXBWIC20120-00772-04170-60000008D0000012D00000000004170      GGSL
TXBWIC20120-00772-04179-90000002D0000010D00000000004179      GGSL
TXBWIC20120-00772-04196-60000001D0000015D00000000004196      GGSL
TXBWIC20120-00772-04217-80000002D0000030D00000000004217      GGSL
TXBWIC20120-00772-04265-90000003D0000045D00000000004265      GGSL
TXBWIC20120-00772-04545-20000009D0000090D00000000004545      GGSL
TXBWIC20120-00772-04592-60000002D0000017D00000000004592      GGSL
TXBWIC20120-00772-04610-70000002D0000120D00000000004610      GGSL
TXBWIC20120-00772-05056-20000002D0000030D00000000005056      GGSL
TXBWIC20120-00772-05149-10000008D0000100D00000000005149      GGSL
TXBWIC20120-00772-05174-30000007D0000070D00000000005174      GGSL
TXBWIC20120-00772-05186-60000006D0000060D00000000005186      GGSL
TXBWIC20120-00772-05248-10000002D0000030D00000000005248      GGSL
TXBWIC20120-00772-05355-60000002D0000030D00000000005355      GGSL
TXBWIC20120-00772-05356-30000003D0000045D00000000005356      GGSL
TXBWIC20120-00772-05357-00000002D0000030D00000000005357      GGSL
TXBWIC20120-00772-05358-70000002D0000030D00000000005358      GGSL
TXBWIC20120-00772-05375-40000004D0000060D00000000005375      GGSL
TXBWIC20120-00772-05376-10000004D0000060D00000000005376      GGSL
TXBWIC20120-00772-05389-10000002D0000030D00000000005389      GGSL
TXBWIC20120-00772-05399-00000003D0000045D00000000005399      GGSL
TXBWIC20120-00772-05536-90000002D0000030D00000000005536      GGSL
TXBWIC20120-00772-05548-20000002D0000030D00000000005548      GGSL
TXBWIC20120-00772-06060-80000030D0000105D00000000006060      GGSL
TXBWIC20120-00772-06062-20000048D0000168D00000000006062      GGSL
TXBWIC20120-00772-06063-90000048D0000168D00000000006063      GGSL
TXBWIC20120-00772-06090-50000024D0000503D00000000006090      GGSL
TXBWIC20120-00772-06181-00000007D0000070D00000000006181      GGSL
TXBWIC20120-00772-06281-70000018D0000072D00000000006281      GGSL
TXBWIC20120-00772-06337-10000012D0000287D00000000006337      GGSL
TXBWIC20120-00772-06693-80000004D0000054D00000000006693      GGSL
TXBWIC20120-00772-06694-50000008D0000108D00000000006694      GGSL
TXBWIC20120-00772-06710-20000018D0000090D00000000006710      GGSL
TXBWIC20120-00772-06712-60000018D0000090D00000000006712      GGSL
TXBWIC20120-00772-06724-90000072D0000467D00000000006724      GGSL
TXBWIC20120-00772-06740-90000018D0000063D00000000006740      GGSL
TXBWIC20120-00772-06744-70000002D0000030D00000000006744      GGSL
TXBWIC20120-00772-08265-50000001D0000030D00000000008265      GGSL
TXBWIC20120-00772-08537-30000002D0000030D00000000008537      GGSL
TXBWIC20120-00772-08592-20000001D0000010D00000000008592      GGSL
TXBWIC20120-00772-08600-40000001D0000045D00000000008600      GGSL
TXBWIC20120-00772-08605-90000001D0000002D00000000008605      GGSL
TXBWIC20120-00772-08807-70000001D0000025D00000000008807      GGSL
TXBWIC20120-00772-08842-80000001D0000040D00000000008842      GGSL
TXBWIC20120-00772-08861-90000006D0000039D00000000008861      GGSL
TXBWIC20120-00772-08862-60000004D0000014D00000000008862      GGSL
TXBWIC20120-00772-09080-30000003D0000030D00000000009080      GGSL
TXBWIC20120-00772-09100-80000003D0000045D00000000009100      GGSL
TXBWIC20120-00772-09102-20000003D0000032D00000000009102      GGSL
TXBWIC20120-00772-09106-00000002D0000030D00000000009106      GGSL
TXBWIC20120-00772-09126-80000001D0000015D00000000009126      GGSL
TXBWIC20120-00772-09129-90000002D0000030D00000000009129      GGSL
TXBWIC20120-00772-09136-70000002D0000030D00000000009136      GGSL
TXBWIC20120-00772-09168-80000002D0000025D00000000009168      GGSL
TXBWIC20120-00772-09177-00000001D0000060D00000000009177      GGSL
TXBWIC20120-00772-09232-60000003D0000045D00000000009232      GGSL
TXBWIC20120-00772-09253-10000002D0000020D00000000009253      GGSL
TXBWIC20120-00772-09279-10000002D0000012D00000000009279      GGSL
TXBWIC20120-00772-09285-20000001D0000010D00000000009285      GGSL
TXBWIC20120-00772-09314-90000008D0000080D00000000009314      GGSL
TXBWIC20120-00772-09315-60000002D0000030D00000000009315      GGSL
TXBWIC20120-00772-09317-00000002D0000030D00000000009317      GGSL
TXBWIC20120-00772-09390-30000002D0000020D00000000009390      GGSL
TXBWIC20120-00772-09391-00000003D0000030D00000000009391      GGSL
TXBWIC20120-00772-09408-50000004D0000047D00000000009408      GGSL
TXBWIC20120-00772-09410-80000006D0000021D00000000009410      GGSL
TXBWIC20120-00772-09413-90000003D0000032D00000000009413      GGSL
TXBWIC20120-00772-09415-30000002D0000030D00000000009415      GGSL
TXBWIC20120-00772-09429-00000006D0000021D00000000009429      GGSL
TXBWIC20120-00772-09441-20000002D0000030D00000000009441      GGSL
TXBWIC20120-00772-09520-40000004D0000024D00000000009520      GGSL
TXBWIC20120-00772-30119-00000004D0000014D000000000030119     GGSL
TXBWIC20120-00772-30140-40000006D0000105D000000000030140     GGSL
TXBWIC20120-00772-30141-10000001D0000017D000000000030141     GGSL
TXBWIC20120-00772-30162-60000006D0000015D000000000030162     GGSL
TXBWIC20120-00772-30269-20000001D0000006D000000000030269     GGSL
TXBWIC20120-00772-30384-20000003D0000022D000000000030384     GGSL
TXBWIC20120-00772-30501-30000002D0000017D000000000030501     GGSL
TXBWIC20120-00772-31341-40000004D0000026D000000000031341     GGSL
TXBWIC20120-00772-31343-80000004D0000026D000000000031343     GGSL
TXBWIC20120-00772-90421-60000002D0000013D0000000000421       GGSL
TXBWIC20120-10367-00110-70000294D0001817D0348601944110       GGSL
TXBWIC20120-10367-00130-50000116D0005768D0011200068130.0     GGSL
TXBWIC20120-10367-00150-30000022D0000612D0002000040150.0     GGSL
TXBWIC20120-10367-00430-60000001D0000076D0000000000430.0     GGSL
TXBWIC20120-10367-00460-30000040D0000201D0036800056ML0460 8  GGSL
TXBWIC20120-10367-00470-20000012D0000126D0000000024470.0     GGSL
TXBWIC20120-10367-00560-00000048D0000170D0076000112ML0560 8  GGSL
TXBWIC20120-10367-00810-60000024D0000108D0048000696ML0810    GGSL
TXBWIC20120-10367-01050-50000012D0000106D0010800000ML1050    GGSL
TXBWIC20120-10367-01110-60000032D0000088D00064000241110      GGSL
TXBWIC20120-10367-01111-30000080D0000225D00104000241111.0    GGSL
TXBWIC20120-10367-01112-00000048D0000130D00112000241112.0    GGSL
TXBWIC20120-10367-01120-50000048D0000119D00232000481120.0    GGSL
TXBWIC20120-10367-01151-90000016D0000044D0000800024ML1151    GGSL
TXBWIC20120-10367-02162-40000008D0000050D0000000016ML2162    GGSL
TXBWIC20120-10367-03020-60000016D0000087D0004800000ML3020    GGSL
TXBWIC20120-10367-21631- 0000024D0000150D0000000040ML2163    GGSL
TXBWIC20120-11247-00250-40000017D0000594D001120000000640     GGSL
TXBWIC20120-11247-01541-20000024D0000828D000300000001541     GGSL
TXBWIC20120-11247-01841-30000001D0000030D000000000001841     GGSL
TXBWIC20120-11247-02450-60000003D0000186D000020000002450     GGSL
TXBWIC20120-11247-04525-90000247D0005616D010400001504525     GGSL
TXBWIC20120-11247-05350-60000200D0007252D000310000005350     GGSL
TXBWIC20120-11247-05450-30000033D0001262D000940005105450     GGSL
TXBWIC20120-11247-06238-60000018C0001262C000010000006238     GGSL
TXBWIC20120-11247-10002-60000006D0000038D000000000010002     GGSL
TXBWIC20120-11247-11024-70000072D0000382D000120014411024     GGSL
TXBWIC20120-11247-13010-80000048D0000161D000600000013010     GGSL
TXBWIC20120-11247-16004-20000072D0000430D004620003616004     GGSL
TXBWIC20120-11247-26001-00000024D0000114D000240000026001     GGSL
TXBWIC20120-11247-30004-40000288D0001875D004440010230004     GGSL
TXBWIC20120-11247-52813-40000004D0000056D000200000152813     GGSL
TXBWIC20120-11247-52824-00000006D0000034D000000000052824     GGSL
TXBWIC20120-11247-52825-70000004D0000073D001480000352825     GGSL
TXBWIC20120-11247-52826-40000024D0000118D000000000052826     GGSL
TXBWIC20120-11247-52829-50000018D0000171D000060001252829     GGSL
TXBWIC20120-11247-52880-60000048D0000255D000000007252880     GGSL
TXBWIC20120-11247-52881-30000003D0000049D000000004352881     GGSL
TXBWIC20120-11247-52882-00000006D0000045D000000001252882     GGSL
TXBWIC20120-11247-52888-20000048D0000239D001080000052888     GGSL
TXBWIC20120-11247-52889-90000089D0001143D000710000552889     GGSL
TXBWIC20120-11247-60116-50000015D0000155D001440000060116     GGSL
TXBWIC20120-11247-61024-20000144D0000868D011070024061024     GGSL
TXBWIC20120-11247-71016-40000012D0000094D000000018071001     GGSL
TXBWIC20120-11247-90128-90000004D0000033D000160000090128     GGSL
TXBWIC20120-11423-94108-50000024D0000206D0015000030HG-94108  GGSL
TXBWIC20120-14021-00337-70000003D0000192D00000000002000      GGSL
TXBWIC20120-14021-01412-00000001D0000124D00000000001024      GGSL
TXBWIC20120-14021-01415-10000087C0000124C00000000001000      GGSL
TXBWIC20120-15966-49430-10000005D0000072D000320000049 00 430 GGSL
TXBWIC20120-16069-00005-90000024D0000138D0039300084TP-15C    GGSL
TXBWIC20120-16069-00007-30000069D0000365D0019500048BN-1      GGSL
TXBWIC20120-16069-00008-00000048D0000285D0081000648BN-2      GGSL
TXBWIC20120-16069-00013-40000018D0000444D0008800024BN-3      GGSL
TXBWIC20120-16069-00015-80000054D0001276D0001400006BN-5      GGSL
TXBWIC20120-16069-00019-60000024D0000204D0000000048TP-30C    GGSL
TXBWIC20120-16069-00030-10000030D0000340D0015000000OW-6      GGSL
TXBWIC20120-16069-00049-30000060D0000900D0010800006DX-7      GGSL
TXBWIC20120-16069-00060-80000015D0000037D0000000030RAP-15    GGSL
TXBWIC20120-16069-00145-20000004D0000078D0000400000RHO-4     GGSL
TXBWIC20120-16069-00166-70000024D0000354D0000000000TP-60     GGSL
TXBWIC20120-16069-00218-30000048D0000228D0000000096HST-100   GGSL
TXBWIC20120-16069-00365-40000018D0000212D0005400000PIN-9     GGSL
TXBWIC20120-16069-00393-70000048D0000147D0000000000GS-20     GGSL
TXBWIC20120-16069-00473-30000005D0002115D0000100016MIXO-30MP GGSL
TXBWIC20120-16069-00486-60000016D0000147D0000000000GS6-75    GGSL
TXBWIC20120-16069-00498-90000006D0000047D0000000002HGP-1012  GGSL
TXBWIC20120-16069-00504-70000030D0000059D0000000060TG1-3W    GGSL
TXBWIC20120-16069-00527-60000006D0000111D0000000001SG13-4    GGSL
TXBWIC20120-16069-00531-00000280D0003304D0000200021GCM-BDO   GGSL
TXBWIC20120-16069-00622-80000024D0000084D0000000000CP6-12    GGSL
TXBWIC20120-16069-00667-90000008D0000158D0031200176RHO-4US   GGSL
TXBWIC20120-18506-00000-00000165D0002316D01380001050111-5    GGSL
TXBWIC20120-18506-00010-30000041C0002316C0027500354010-6     GGSL
TXBWIC20120-18506-00021-90000012D0000162D0027300000021-6     GGSL
TXBWIC20120-18506-00102-50000012D0000046D0058800000102-12    GGSL
TXBWIC20120-18506-00110-50000018D0000117D0138800492110-12    GGSL
TXBWIC20120-18506-00116-20000081D0000526D0076200699116-12    GGSL
TXBWIC20120-18506-00117-90000030D0000287D0094200738117-6     GGSL
TXBWIC20120-18506-00125-40000036D0000186D0040800000125       GGSL
TXBWIC20120-18506-00130-80000024D0000136D0019200000130       GGSL
TXBWIC20120-22179-10035-00000059D0002888D0014300026LG4110    GGSL
TXBWIC20120-22179-10085-50000096D0000607D0000000000LG5268    GGSL
TXBWIC20120-22179-10090-90000006D0000175D0003300018LG4300    GGSL
TXBWIC20120-22179-10110-40000006D0000144D0000000000lg 5149   GGSL
TXBWIC20120-22179-10115-90000036D0000534D0000800000lg 5599   GGSL
TXBWIC20120-22179-10124-10000096D0000478D0045000012LG6515    GGSL
TXBWIC20120-22179-10133-30000012D0000117D0000000036lg 4102   GGSL
TXBWIC20120-22179-10140-10000006D0000749D0010400000LG6520    GGSL
TXBWIC20120-22179-10150-00000016D0000168D00180007207115      GGSL
TXBWIC20120-22179-10151-70000032D0001346D00246000057117      GGSL
TXBWIC20120-22179-10167-80000006D0000085D0000000000lg 6127   GGSL
TXBWIC20120-22179-10185-20000027D0000275D0031500030LG6500    GGSL
TXBWIC20120-22179-10246-00000027D0000408D0022801260LG6570    GGSL
TXBWIC20120-22179-10247-70000015D0000326D00092004177122      GGSL
TXBWIC20120-22179-10248-40000036D0000268D0026100000LG6575    GGSL
TXBWIC20120-22179-10334-40000012D0000058D0000000000LG8620    GGSL
TXBWIC20120-22179-10366-50000009D0000077D0000600000LG7262    GGSL
TXBWIC20120-22179-10390-00000024D0000191D0010200300LG6332    GGSL
TXBWIC20120-22179-10395-50000002D0000058D0007300000LG6356    GGSL
TXBWIC20120-22179-10408-20000006D0000052D0015600840LG 6338   GGSL
TXBWIC20120-22179-10417-40000004D0000289D0001200000lg6142    GGSL
TXBWIC20120-22179-10429-70000012D0000160D0006000660LG6334    GGSL
TXBWIC20120-22179-10454-90000003D0000033D0004500240lg 3303   GGSL
TXBWIC20120-22179-10458-70000012D0000102D0015300000lg 3234   GGSL
TXBWIC20120-22179-10462-40000024D0000184D0000000012LG1142    GGSL
TXBWIC20120-22401-00115-80000111D0004555D0024100022MDC-15    GGSL
TXBWIC20120-22401-00301-50000041D0000441D0003400002THD-20    GGSL
TXBWIC20120-22401-00380-10000008D0000164D0000000516NDETC-20MCGGSL
TXBWIC20120-22401-00721-10002762D0000164C0000000000DBR-20    GGSL
TXBWIC20120-22401-10088-20000103D0002411D0007900004EAR-60    GGSL
TXBWIC20120-22401-10089-90000008D0000112D0000400000BBC-20LB  GGSL
TXBWIC20120-23626-00605-80004108D0036366D1023200320116334    GGSL
TXBWIC20120-23626-00615-70003395D0033122D1355100339116336    GGSL
TXBWIC20120-23626-00630-00001308D0016650D0368300088116341    GGSL
TXBWIC20120-23626-00650-80000072D0000235D0054600012000600    GGSL
TXBWIC20120-23626-01710-80000180D0000913D0102300024800       GGSL
TXBWIC20120-23626-01720-70000210D0001369D0102600012000900    GGSL
TXBWIC20120-23626-02555-40000048D0000836D0004000000112840    GGSL
TXBWIC20120-23626-02830-20000001D0000053D0003100000116841    GGSL
TXBWIC20120-23626-04055-70000018D0000093D0000600000112845    GGSL
TXBWIC20120-23626-07002-80000040D0000683D0000000056112825    GGSL
TXBWIC20120-23883-00001-10000071D0001137D0159200072G362      GGSL
TXBWIC20120-23883-00002-80000096D0000377D0054600000G385      GGSL
TXBWIC20120-23883-00003-50000099D0000396D0055800120G390      GGSL
TXBWIC20120-23883-01000-30000012D0000113D00000000181000      GGSL
TXBWIC20120-23883-01002-70000136D0001137D00587000611002      GGSL
TXBWIC20120-23883-01280-90000002D0000113D00000000221280.0    GGSL
TXBWIC20120-23883-02675-20000024D0000805D00000000002675e     GGSL
TXBWIC20120-23883-05000-90000010D0000082D00135000455000      GGSL
TXBWIC20120-23883-08620-60000003D0000480D00014000008620B     GGSL
TXBWIC20120-23883-15710-40006773D0043051D051010206515710     GGSL
TXBWIC20120-23883-16100-20000006D0000066D000000005016100     GGSL
TXBWIC20120-23883-20020-60000005D0000080D000030003120002     GGSL
TXBWIC20120-23883-21210-00000120D0005171D001390000021210XP   GGSL
TXBWIC20120-23883-26011-80000051D0001241D004560000626011XP   GGSL
TXBWIC20120-23883-26021-70000620D0014435D033460025226021XP   GGSL
TXBWIC20120-23883-26031-60000020D0000759D003150000326031XP   GGSL
TXBWIC20120-23883-27010-00000034D0000655D003230000127010     GGSL
TXBWIC20120-23883-27020-90000107D0002199D010300004327020     GGSL
TXBWIC20120-23883-27030-80000054D0001260D004300001527030     GGSL
TXBWIC20120-23883-60100-30000517D0018075D012160018360100     GGSL
TXBWIC20120-23883-61800-10000075D0004244D000030013961800     GGSL
TXBWIC20120-23883-63924-20000004D0000620D000540000563924     GGSL
TXBWIC20120-23883-67711-40000001D0000012D00013000006-7711    GGSL
TXBWIC20120-23883-68060-20000002D0000033D00002000026-8060    GGSL
TXBWIC20120-23883-68061-90000002D0000050D00015000006-8061    GGSL
TXBWIC20120-23883-80000-00000111D0003526D00006005558000A     GGSL
TXBWIC20120-23883-81000-90000002D0000201D000040000081000A    GGSL
TXBWIC20120-23883-82080-00000003D0000464D00000000048301C     GGSL
TXBWIC20120-23883-84000-60000142D0007311D00018006528701B     GGSL
TXBWIC20120-23883-84600-80000089D0001999D000200090084700A    GGSL
TXBWIC20120-23883-97100-70000005D0002810D000480000597100     GGSL
TXBWIC20120-23883-97361-20000004D0000645D000090000097361     GGSL
TXBWIC20120-23883-97561-60000003D0000616D000170000097561     GGSL
TXBWIC20120-24654-05922-10000030D0000338D00000000545926      GGSL
TXBWIC20120-24654-09334-80000006D0000151D00115000009334      GGSL
TXBWIC20120-24654-51806-30000018D0000087D00000000245180-6    GGSL
TXBWIC20120-24654-55110-70000303D0001461D01314003905110-6    GGSL
TXBWIC20120-24654-55118-30000138D0000935D00955000125118.0    GGSL
TXBWIC20120-25033-12013-60000001D0000055D000020000012013     GGSL
TXBWIC20120-26455-91350-40000019D0000918D0008100011          GGSL
TXBWIC20120-26978-08710-20000002D0000026D000000000208710     GGSL
TXBWIC20120-26978-08713-30000002D0000026D000000000208713     GGSL
TXBWIC20120-26978-08810-90000005D0000026D000000000008810     GGSL
TXBWIC20120-26978-08813-00000005D0000026D000000000508813     GGSL
TXBWIC20120-26978-08820-80000005D0000059D000000000508820     GGSL
TXBWIC20120-26978-08823-90000005D0000059D000000000008823     GGSL
TXBWIC20120-26978-10010-80000006D0000020D000000000010010     GGSL
TXBWIC20120-26978-10012-20000054D0000182D000000000610012     GGSL
TXBWIC20120-26978-10013-90000006D0000020D000060000610013     GGSL
TXBWIC20120-26978-30200-70000001D0000021D000030000430200     GGSL
TXBWIC20120-26978-30301-10003592D0013768D085400129630301     GGSL
TXBWIC20120-26978-30402-50000012D0000061D000000000030402     GGSL
TXBWIC20120-26978-30409-40000012D0000061D000000002430409     GGSL
TXBWIC20120-26978-30411-70000036D0000183D000000001230411     GGSL
TXBWIC20120-26978-30413-10000036D0000183D000000002430413     GGSL
TXBWIC20120-26978-30702-60000024D0000084D000000001830702     GGSL
TXBWIC20120-26978-30705-70000024D0000084D000000001830705     GGSL
TXBWIC20120-26978-31100-90000015D0000084D000000000031100     GGSL
TXBWIC20120-26978-31108-50000005D0000028D000000000031108     GGSL
TXBWIC20120-26978-31109-20000015D0000084D000000000031109     GGSL
TXBWIC20120-26978-38148-40000072D0000361D000000000738148     GGSL
TXBWIC20120-26978-39128-50000060D0000211D000000000139128     GGSL
TXBWIC20120-26978-48098-30000012D0000046D000060001248098     GGSL
TXBWIC20120-26978-48128-00000012D0000065D000060002448128     GGSL
TXBWIC20120-26978-48158-00000012D0000092D000060001248158     GGSL
TXBWIC20120-26978-70801-10000075D0000189D000000000170801     GGSL
TXBWIC20120-26978-70802-80000072D0000189D000000000070802     GGSL
TXBWIC20120-26978-70810-30000004D0000136D000000000070810     GGSL
TXBWIC20120-26978-70811-00000020D0000034D000000000070811     GGSL
TXBWIC20120-28009-11225-80003720D0016022D02009002001225.0    GGSL
TXBWIC20120-28009-11227-20000030D0000069D00000000061227.0    GGSL
TXBWIC20120-28009-11250-00012439D0081957D01824007361250.0    GGSL
TXBWIC20120-28009-11420-70001621D0007036D00591001301420P     GGSL
TXBWIC20120-28009-11428-30000216D0003186D00000000001428      GGSL
TXBWIC20120-28009-11440-50006737D0045883D00723006131440P     GGSL
TXBWIC20120-28009-11465-80000240D0000586D00312000001465      GGSL
TXBWIC20120-28009-11550-10010000D0001008D00000002001550P     GGSL
TXBWIC20120-28009-11638-60000900D0000447D00030000001638      GGSL
TXBWIC20120-28009-11640-90028800D0002724D00000000001640      GGSL
TXBWIC20120-28009-11925-70004225D0000459D00130000001925      GGSL
TXBWIC20120-28009-15240-70000831D0003340D01995000035240.0    GGSL
TXBWIC20120-28009-15440-10000180D0000648D00000000605440.0    GGSL
TXBWIC20120-28009-15440-30010800D0001168D00120000001840      GGSL
TXBWIC20120-28009-15450-00000016D0000150D00324000495450.0    GGSL
TXBWIC20120-28009-15540-80004215D0013080D02170005475540.0    GGSL
TXBWIC20120-28009-15720-40000240D0000623D00229000005720.0    GGSL
TXBWIC20120-28009-15740-20001320D0004944D00390000205740.0    GGSL
TXBWIC20120-30541-00067-20000006D0000048D0006000000JCD-100FGPGGSL
TXBWIC20120-30541-00801-20000011D0000516D0000400000JCD-08BKSMGGSL
TXBWIC20120-30541-01030-50000042D0000336D0016200000JCD-100SMJGGSL
TXBWIC20120-30541-01034-30000012D0000244D0010500000JCD-030SM GGSL
TXBWIC20120-30541-01092-30000006D0000031D0000000000JCD-100SC GGSL
TXBWIC20120-30541-09982-90000624D0001172D0103202000JCD-TPP   GGSL
TXBWIC20120-30541-83795-70000024D0000048D0000000000JCD-024TMPGGSL
TXBWIC20120-32247-00900-30000168D0000421D00192000061009001   GGSL
TXBWIC20120-32247-00910-20000018D0000047D00174000061009101   GGSL
TXBWIC20120-32247-00950-80000084D0000211D00162000001009501   GGSL
TXBWIC20120-32247-03115-80000055D0003168D000380000031115     GGSL
TXBWIC20120-32247-03313-80004666D0090849D00727000003313B     GGSL
TXBWIC20120-32247-03594-10001100D0006393D003680000070359430  GGSL
TXBWIC20120-32247-05514-70012760D0046501D026430056070551430  GGSL
TXBWIC20120-32247-10500-20000153D0001257D0033300192110500    GGSL
TXBWIC20120-32247-11307-60004001D0007320D016930170271130756  GGSL
TXBWIC20120-32247-14902-00000012D0000168D000120000014902     GGSL
TXBWIC20120-32247-14905-10000072D0000475D000560000814905     GGSL
TXBWIC20120-32247-15307-20000320D0000736D001950000071530751  GGSL
TXBWIC20120-32247-17183-00000036D0000291D000300000017183     GGSL
TXBWIC20120-32247-17185-40000012D0000229D000080000417185     GGSL
TXBWIC20120-32247-17187-80000007D0000320D000050000017187     GGSL
TXBWIC20120-32247-17293-60000012D0000102D000240000017293     GGSL
TXBWIC20120-32247-17323-00000012D0000096D001140000017323     GGSL
TXBWIC20120-32247-17325-40000008D0000135D000000000017325     GGSL
TXBWIC20120-32247-17327-80000005D0000177D000460000017327     GGSL
TXBWIC20120-32247-17508-10000006D0000070D000240000017508     GGSL
TXBWIC20120-32247-17511-10000006D0000087D000360000017511     GGSL
TXBWIC20120-32247-17520-30000012D0000139D000000000017520     GGSL
TXBWIC20120-32247-17528-90000008D0000232D000000000017540     GGSL
TXBWIC20120-32247-18103-70000006D0000107D000000000018103     GGSL
TXBWIC20120-32247-18221-80000028D0000582D000080000018221     GGSL
TXBWIC20120-32247-18225-60000072D0000735D001140000618225     GGSL
TXBWIC20120-32247-18251-50000004D0000132D000000000018251     GGSL
TXBWIC20120-32247-18260-70000018D0000217D000060000018260     GGSL
TXBWIC20120-32247-18269-00000008D0000206D000000000018269     GGSL
TXBWIC20120-32247-18272-00000006D0000029D000830000018272     GGSL
TXBWIC20120-32247-18296-60000012D0000130D000000000018296     GGSL
TXBWIC20120-32247-18320-80000030D0000280D000240000018320     GGSL
TXBWIC20120-32247-18346-80000012D0000207D000080000018346     GGSL
TXBWIC20120-32247-18348-20000042D0000536D000480000018348     GGSL
TXBWIC20120-32247-18350-50000015D0000111D017250001518350     GGSL
TXBWIC20120-32247-18353-60000060D0001271D002700000018353     GGSL
TXBWIC20120-32247-18354-30000006D0000070D000360000018354     GGSL
TXBWIC20120-32247-18362-80000006D0000179D000120002418362     GGSL
TXBWIC20120-32247-18365-90000012D0000299D000060001818365     GGSL
TXBWIC20120-32247-19594-20000114D0000685D003180000071959430  GGSL
TXBWIC20120-32247-20220-60000040D0000555D000000000020220     GGSL
TXBWIC20120-32247-20784-30001050D0002996D031680195672078430  GGSL
TXBWIC20120-32247-20814-70000130D0004976D000000000021814     GGSL
TXBWIC20120-32247-21030-00000114D0001662D002550000021030A    GGSL
TXBWIC20120-32247-21605-00000201D0003405D000200000021605     GGSL
TXBWIC20120-32247-21701-90000060D0000445D000240000021701     GGSL
TXBWIC20120-32247-22305-80000037D0000551D001250000022305     GGSL
TXBWIC20120-32247-22315-70000020D0000738D000290000022315     GGSL
TXBWIC20120-32247-23001-80000045D0001147D000000000023001     GGSL
TXBWIC20120-32247-23100-80000048D0000493D000360000023100     GGSL
TXBWIC20120-32247-23405-40000760D0009899D001930000023405B    GGSL
TXBWIC20120-32247-23622-50000010D0000139D000120000023622     GGSL
TXBWIC20120-32247-25006-10000261D0004803D003770000025006A    GGSL
TXBWIC20120-32247-25009-20000037D0001849D000390000025009     GGSL
TXBWIC20120-32247-26003-90000148D0003411D001040000026003D    GGSL
TXBWIC20120-32247-26007-70000002D0000055D003880000026007B    GGSL
TXBWIC20120-32247-26784-70000138D0000419D014220007272678430  GGSL
TXBWIC20120-32247-30073-50000004D0000058D000000000030073     GGSL
TXBWIC20120-32247-30156-50000016D0000233D000480000030156     GGSL
TXBWIC20120-32247-30177-00000001D0000015D000030000030177     GGSL
TXBWIC20120-32247-33020-60000072D0002709D001220000033020     GGSL
TXBWIC20120-32247-35594-00000700D0004070D001070000073559430  GGSL
TXBWIC20120-32247-37594-80002602D0013577D004330005573759430  GGSL
TXBWIC20120-32247-37610-50000087D0001185D004190006037610C    GGSL
TXBWIC20120-32247-38605-00000034D0000524D000570000038605D    GGSL
TXBWIC20120-32247-38615-90000006D0000213D000210000038615     GGSL
TXBWIC20120-32247-39181-80000012D0000302D000000000039181     GGSL
TXBWIC20120-32247-39594-60001610D0011254D019680000173959430  GGSL
TXBWIC20120-32247-39605-90000022D0000333D000000000039605     GGSL
TXBWIC20120-32247-39615-80000100D0004013D000380000039615     GGSL
TXBWIC20120-32247-42784-50000246D0000780D012480000674278430  GGSL
TXBWIC20120-32247-43750-90000008D0000123D00000000004375010   GGSL
TXBWIC20120-32247-43850-60000076D0001628D00092000004385010   GGSL
TXBWIC20120-32247-43851-30000006D0000107D00000000004385106   GGSL
TXBWIC20120-32247-43854-40000004D0000036D00048000004385404   GGSL
TXBWIC20120-32247-43860-50000048D0000811D00024000004386004   GGSL
TXBWIC20120-32247-45651-70000120D0000928D000290001045651300  GGSL
TXBWIC20120-32247-47783-30000054D0000161D005280012074778300  GGSL
TXBWIC20120-32247-49013-90000010D0000207D000000000049013     GGSL
TXBWIC20120-32247-49019-10000080D0000767D001170000049019     GGSL
TXBWIC20120-32247-49024-50000123D0001459D001230000049024     GGSL
TXBWIC20120-32247-49785-50000312D0000906D021360013274978500  GGSL
TXBWIC20120-32247-50084-50000006D0000093D00024000005008410   GGSL
TXBWIC20120-32247-50086-90000150D0002333D00024000005008610   GGSL
TXBWIC20120-32247-50087-60000054D0000841D00024000005008710   GGSL
TXBWIC20120-32247-50088-30000018D0000280D00060000005008810   GGSL
TXBWIC20120-32247-50089-00000008D0000171D00072000005008910   GGSL
TXBWIC20120-32247-50154-50000100D0000598D000500000045015430  GGSL
TXBWIC20120-32247-50250-40000002D0000049D000380000050250     GGSL
TXBWIC20120-32247-50524-60010338D0062029D038170011575052430  GGSL
TXBWIC20120-32247-51062-20000012D0000080D000120000051062     GGSL
TXBWIC20120-32247-51105-60000139D0001640D001460000051105     GGSL
TXBWIC20120-32247-51115-50000120D0003720D000500000051115     GGSL
TXBWIC20120-32247-52524-40000002D0000022D001750007385252430  GGSL
TXBWIC20120-32247-52784-20000132D0000404D016320003085278430  GGSL
TXBWIC20120-32247-53105-40000093D0000754D001420000053105     GGSL
TXBWIC20120-32247-53115-30000105D0002306D000030000053115     GGSL
TXBWIC20120-32247-55513-50002669D0018692D010900006575551300  GGSL
TXBWIC20120-32247-55523-40003200D0035326D008580007875552300  GGSL
TXBWIC20120-32247-55783-20000272D0001910D023650004275578300  GGSL
TXBWIC20120-32247-55863-10000383D0002337D003360000375586300  GGSL
TXBWIC20120-32247-56063-40000984D0003626D000480004045606300  GGSL
TXBWIC20120-32247-56513-40023520D0143156D058470109075651300  GGSL
TXBWIC20120-32247-56523-30054030D0524359D021130148075652300  GGSL
TXBWIC20120-32247-56783-10000015D0005881D000050000075678309  GGSL
TXBWIC20120-32247-56788-60005274D0017255D081360025275678300  GGSL
TXBWIC20120-32247-56863-00000958D0005167D022310004075686300  GGSL
TXBWIC20120-32247-57905-60000012D0000119D000000000057905     GGSL
TXBWIC20120-32247-60594-60001450D0008428D002680001776059430  GGSL
TXBWIC20120-32247-71060-20000714D0007859D009000005471060     GGSL
TXBWIC20120-32247-71131-90000094D0001633D002880003271131     GGSL
TXBWIC20120-32247-74150-70001769D0007289D0745200948274150    GGSL
TXBWIC20120-32247-74250-40001710D0011128D0417001020274250    GGSL
TXBWIC20120-32247-74850-60000680D0009702D0173200276274850    GGSL
TXBWIC20120-32247-75902-10000027D0002044D000440000975902     GGSL
TXBWIC20120-32247-76121-50000213D0006422D002940009076121     GGSL
TXBWIC20120-32247-76232-80000045D0002326D000960000976232     GGSL
TXBWIC20120-32247-76565-70000003D0000141D000150000076565     GGSL
TXBWIC20120-32247-77160-30002555D0009820D0638400840277160    GGSL
TXBWIC20120-32247-77260-00001194D0009884D0597601350277260    GGSL
TXBWIC20120-32247-77960-90000608D0009800D0438800392277960    GGSL
TXBWIC20120-32247-95517-10000240D0000852D003670000079551750  GGSL
TXBWIC20120-32247-95597-30000144D0000616D000000014479559750  GGSL
TXBWIC20120-32247-99605-10000265D0004646D002810000099605     GGSL
TXBWIC20120-32903-00169-30000072D0000076D0021600000SLI06000E3GGSL
TXBWIC20120-32903-00258-40000024C0000032D0000000000LIA06000E2GGSL
TXBWIC20120-32903-00264-50000024D0000053D0000000000LIA08000E2GGSL
TXBWIC20120-32903-00309-30000276D0000518D0021600060SLI10000E3GGSL
TXBWIC20120-32903-00341-30000090D0000654D0009600006SLI24000E3GGSL
TXBWIC20120-32903-00359-80000336D0000447D0009600072SLI08000E3GGSL
TXBWIC20120-32903-07558-80000048D0000129D0000000012RZ.WC1Q0B9GGSL
TXBWIC20120-32903-12006-60000120D0000189D0019200096LIA06000E3GGSL
TXBWIC20120-32903-12008-00000120D0000276D0045600072LIA08000E3GGSL
TXBWIC20120-32903-12010-30000084D0000299D0034800072LIA10000E3GGSL
TXBWIC20120-32903-12012-70000132D0000743D0040800048LIA12000E3GGSL
TXBWIC20120-32903-12014-10000108D0000770D0030000036LIA14000E3GGSL
TXBWIC20120-32903-12017-20000060D0000641D0032400048LIA16000E3GGSL
TXBWIC20120-32903-12020-20000048D0000678D0013800024LIA20000E3GGSL
TXBWIC20120-32903-12024-00000036D0000696D0007200012LIA24000E3GGSL
TXBWIC20120-32903-12318-00000012D0000042D0010200012SVN18000E3GGSL
TXBWIC20120-32903-12324-10000012D0000046D0001800012SVN24000E3GGSL
TXBWIC20120-32903-12714-00000108D0000580D0000000036GAB14000E3GGSL
TXBWIC20120-32903-12718-80000024D0000191D0010800036GAB18000E3GGSL
TXBWIC20120-32903-12722-50000010D0000135D0012000018GAB22000E3GGSL
TXBWIC20120-32903-12818-50000042D0000248D0007200006VNP18000E3GGSL
TXBWIC20120-32903-12824-60000042D0000280D0009000018VNP24000E3GGSL
TXBWIC20120-32903-23751-10000012D0000170D0000000000ROS15500E2GGSL
TXBWIC20120-32903-40400-50000012D0000041D0000000012LIA10000A3GGSL
TXBWIC20120-32903-41640-40000024D0000053D0000000024LIA08000A3GGSL
TXBWIC20120-32903-42050-00000006D0000115D0000000000LIA24000A3GGSL
TXBWIC20120-32903-48101-30000048C0000031D0000000024LIA06000A3GGSL
TXBWIC20120-32903-50763-80000288D0000903D0018000036SLI12000E3GGSL
TXBWIC20120-32903-50802-40000264D0000889D0021000036SLI14000E3GGSL
TXBWIC20120-32903-60256-20000012D0000043D0000000000SRO15500E2GGSL
TXBWIC20120-32903-72518-60000136D0000969D0002400024RZ.WC2G0B9GGSL
TXBWIC20120-32903-72886-60000006D0000033D0000000000RZ.WC1G0B9GGSL
TXBWIC20120-32903-75049-20000054D0000314D0010800012SLI20000E3GGSL
TXBWIC20120-32903-75080-50000312D0001153D0025200024SLI17000E3GGSL
TXBWIC20120-32903-91322-40000004D0000253D0000000000TEA30000G1GGSL
TXBWIC20120-32903-91517-40000088D0000470D0000000032PPF10001Y2GGSL
TXBWIC20120-32903-91570-90000012D0000072D0000000000PZA09000Y3GGSL
TXBWIC20120-33607-00001-50000044D0001212D0006800024GBA-1     GGSL
TXBWIC20120-33745-97185-40000004D0000097D003960000097185     GGSL
TXBWIC20120-34411-74501-40000006D0000126D0000000000874501-100GGSL
TXBWIC20120-34411-74751-30000008D0000238D0004000000874751-100GGSL
TXBWIC20120-35307-00820-60000012D0000020D0008400624820       GGSL
TXBWIC20120-35307-00846-30000048D0000160D0015600012846       GGSL
TXBWIC20120-35307-00848-00000012D0000023D0000000000848       GGSL
TXBWIC20120-35307-00874-90000072D0000098D0014400012874       GGSL
TXBWIC20120-35307-01601-00000054D0000607D00126000061601      GGSL
TXBWIC20120-35307-01609-60000024D0000100D00300004801609CS    GGSL
TXBWIC20120-35307-01635-50000012D0000182D00016000121635      GGSL
TXBWIC20120-35307-01810-60000095D0000395D00182002451810      GGSL
TXBWIC20120-35307-01815-10000025D0000153D00167000261815      GGSL
TXBWIC20120-35307-01820-50000018D0000185D00120000181820      GGSL
TXBWIC20120-35307-01825-00000036D0000292D00108010441825      GGSL
TXBWIC20120-35307-01840-30000018D0000282D00072000001840      GGSL
TXBWIC20120-36348-00610-70000014D0000069D00030000000610      GGSL
TXBWIC20120-36348-00645-90000039D0000483D0029600001645       GGSL
TXBWIC20120-36348-00745-60000012D0000290D00204000000745      GGSL
TXBWIC20120-36348-01020-30000001D0000015D00004000001020      GGSL
TXBWIC20120-36348-01030-20000003D0000109D00003000001030      GGSL
TXBWIC20120-36348-01078-40000002D0000071D00047000001078      GGSL
TXBWIC20120-36348-01079-10000025D0001157D00267000011079      GGSL
TXBWIC20120-36348-01085-20000008D0000449D00007000001085      GGSL
TXBWIC20120-36348-13769-60000006D0000013D0000000000M137      GGSL
TXBWIC20120-36434-00000-00000125D0001836D011700030010-12420  GGSL
TXBWIC20120-36434-07020-00000018D0000278D00000000421017020   GGSL
TXBWIC20120-36434-10012-20000048D0000602D003240004810-10012  GGSL
TXBWIC20120-36434-11000-80000173D0001676D010710006860-11000  GGSL
TXBWIC20120-36434-12340-40000024D0000048D00006000426012340   GGSL
TXBWIC20120-36434-12342-80000052D0000312D002690007560-12342  GGSL
TXBWIC20120-36434-12343-50000006D0000057D002280000660-12343  GGSL
TXBWIC20120-36434-12345-90000408D0003624D004560151210-12345  GGSL
TXBWIC20120-36434-12346-60000202D0000904D011340016660-12346  GGSL
TXBWIC20120-36434-12349-70000004D0000017D002110000060-12349  GGSL
TXBWIC20120-36434-12350-30000006D0000034D000000000060 12350  GGSL
TXBWIC20120-36434-12351-00000012D0000050D00000000066012351   GGSL
TXBWIC20120-36434-12353-40000064D0001089D011030001260-12353  GGSL
TXBWIC20120-36434-12354-10000020D0000130D002150002010-12354  GGSL
TXBWIC20120-36434-12355-80000076D0000545D005750004910-12355  GGSL
TXBWIC20120-36434-12356-50000117D0000937D008610003010-12356  GGSL
TXBWIC20120-36434-12357-20000050D0000399D003690003110-12357  GGSL
TXBWIC20120-36434-12358-90000072D0000843D00060000001012358   GGSL
TXBWIC20120-36434-12362-60000010D0000073D000000001010-12362  GGSL
TXBWIC20120-36434-12440-30000012D0000113D00000000726012440   GGSL
TXBWIC20120-36434-12625-20000018D0000107D000000000660-12625  GGSL
TXBWIC20120-36434-12700-60000036D0000273D000720093610-12700  GGSL
TXBWIC20120-36434-12710-50000012D0000078D002280004810-12710  GGSL
TXBWIC20120-36434-12720-40000060D0000361D002880006010-12720  GGSL
TXBWIC20120-36434-12721-10000006D0000036D000180000060-12721  GGSL
TXBWIC20120-36434-12730-00000012D0000114D000000002410-12730  GGSL
TXBWIC20120-36434-12733-40000006D0000060D000000000060-12733  GGSL
TXBWIC20120-36434-13200-00000012D0000056D00000000846013200   GGSL
TXBWIC20120-36434-13600-50000048D0000863D002160096010-13600  GGSL
TXBWIC20120-36434-13610-20000024D0000354D001800088810-13610  GGSL
TXBWIC20120-36434-13611-40000006D0000088D00000000006013611   GGSL
TXBWIC20120-36434-14500-70000012D0000110D000000002410-14500  GGSL
TXBWIC20120-36434-14800-80000180D0002899D009480002410-14800  GGSL
TXBWIC20120-36434-14860-20000036D0000478D005880001210-14860  GGSL
TXBWIC20120-36434-14865-00000006D0000080D000000000060-14865  GGSL
TXBWIC20120-36434-15050-90000030D0000450D003660001810-15050  GGSL
TXBWIC20120-36434-15063-90000006D0000090D00000000001015063   GGSL
TXBWIC20120-36434-15073-80000006D0000080D00000000061015073   GGSL
TXBWIC20120-36434-15080-30000006D0000116D000900001210-15080  GGSL
TXBWIC20120-36434-17000-20000276D0010995D00024005221017000   GGSL
TXBWIC20120-36434-17061-30000010D0000060D00000001001017061   GGSL
TXBWIC20120-36434-18037-70000012D0000092D00000000001028037   GGSL
TXBWIC20120-36434-22310-40000006D0000031D00000000306022310   GGSL
TXBWIC20120-36434-22311-10000006D0000031D00000000126022311   GGSL
TXBWIC20120-36434-22316-60000012D0000085D00000000126022316   GGSL
TXBWIC20120-36434-22317-30000012D0000085D00000000126022317   GGSL
TXBWIC20120-36434-22318-00000153D0000646D009860013360-22318  GGSL
TXBWIC20120-36434-22341-80000084D0000826D002520000010-22341  GGSL
TXBWIC20120-36434-22373-90000006D0000087D00018000066022373   GGSL
TXBWIC20120-36434-22626-60000068D0000799D004320000260-22626  GGSL
TXBWIC20120-36434-22729-40000006D0000072D000000000060-22729  GGSL
TXBWIC20120-36434-22731-70000046D0000434D003590003260-22731  GGSL
TXBWIC20120-36434-22732-40000073D0000900D003730003060-22732  GGSL
TXBWIC20120-36434-24506-90000006D0000058D000120000060-24506  GGSL
TXBWIC20120-36434-28010-70000408D0002886D012360106810-28010  GGSL
TXBWIC20120-36434-28019-20000012D0000090D000000000010-28019  GGSL
TXBWIC20120-36434-28020-60000216D0001541D009000013210-28020  GGSL
TXBWIC20120-36434-32700-00000180D0001381D019220009610-32700  GGSL
TXBWIC20120-36434-34500-10000048D0000442D004680073210-34500  GGSL
TXBWIC20120-36434-60123-00000009D0011430D000000004760123     GGSL
TXBWIC20120-36434-62020-00000001D0000159D000000000062020     GGSL
TXBWIC20120-36434-65095-50001200D0020490D000000002665095     GGSL
TXBWIC20120-36434-82342-70000051D0000614D002860000660-82342  GGSL
TXBWIC20120-36865-12250-20002340D0004234D021000072071140180  GGSL
TXBWIC20120-36865-14511-20000360D0000654D004200090071451180  GGSL
TXBWIC20120-36865-24511-90000420D0001168D002400000072451180  GGSL
TXBWIC20120-36865-45220-30000360D0000900D000000000088452205  GGSL
TXBWIC20120-36865-52965-30003660D0008199D000000000087852965  GGSL
TXBWIC20120-36865-65220-70007020D0017550D000000000088652205  GGSL
TXBWIC20120-37321-00022-80000227D0001277D0002603261022       GGSL
TXBWIC20120-37321-00024-20000108D0001256D0050701287024       GGSL
TXBWIC20120-37321-00050-10000048D0000041D0000000144050       GGSL
TXBWIC20120-37321-00068-60000012D0000054D0049200768068       GGSL
TXBWIC20120-37321-00069-30000099D0001169D0119100504069       GGSL
TXBWIC20120-37321-00070-90000060D0000807D0068400528070       GGSL
TXBWIC20120-37321-00081-50000024D0000122D0000000000081       GGSL
TXBWIC20120-37321-00097-60000024D0000112D0000000024097       GGSL
TXBWIC20120-37321-00099-00000096D0000610D0000000012099       GGSL
TXBWIC20120-37321-00105-80000120D0000304D0046800864105       GGSL
TXBWIC20120-37321-00106-50000324D0000871D0060000528106       GGSL
TXBWIC20120-37321-00107-20000060D0000160D0056400744107       GGSL
TXBWIC20120-37321-00108-90000168D0000447D0064801428108       GGSL
TXBWIC20120-37321-00116-40000032D0000098D0009600032116       GGSL
TXBWIC20120-37321-00121-80000032D0000387D0000000000121       GGSL
TXBWIC20120-37321-00123-20000153D0000531D0022500036123       GGSL
TXBWIC20120-37321-00127-00000042D0000328D0044700477127       GGSL
TXBWIC20120-37321-00141-60000012D0000051D0000000300141       GGSL
TXBWIC20120-37321-00148-50000012D0000118D0000000012148       GGSL
TXBWIC20120-37321-00150-80000060D0000837D0085203012150       GGSL
TXBWIC20120-37321-00166-90000111D0000556D0022800000166       GGSL
TXBWIC20120-37321-00171-30000012D0000101D0015600036171       GGSL
TXBWIC20120-37321-00196-60000012D0000061D0004800048196       GGSL
TXBWIC20120-37321-00202-40000138D0001275D0263100144202       GGSL
TXBWIC20120-37321-00203-10000054D0000718D0076500036203       GGSL
TXBWIC20120-37321-00210-90000123D0000651D0103500012210       GGSL
TXBWIC20120-37321-00211-60000198D0001515D0084300036211       GGSL
TXBWIC20120-37321-00212-30000004D0000067D0000000004212       GGSL
TXBWIC20120-37321-00213-00000240D0002238D0111300972213       GGSL
TXBWIC20120-37321-00214-70000336D0001677D0145801032214       GGSL
TXBWIC20120-37321-00225-30000012D0000055D0002400036225       GGSL
TXBWIC20120-37321-00238-30000168D0001302D0074100396238       GGSL
TXBWIC20120-37321-00250-50000024D0000114D0000600135250       GGSL
TXBWIC20120-37321-00252-90000048D0000541D0104100078252       GGSL
TXBWIC20120-37321-00253-60000012D0000200D0048600024253       GGSL
TXBWIC20120-37321-00255-00000156D0002787D0095700795255       GGSL
TXBWIC20120-37321-00257-40000039D0000135D0045300519257       GGSL
TXBWIC20120-37321-00274-10000147D0000819D0102000900274       GGSL
TXBWIC20120-37321-00285-70000024D0000138D0000000024285       GGSL
TXBWIC20120-37321-00307-60000012D0000046D0036900996307       GGSL
TXBWIC20120-37321-00330-40000012D0000105D0056100060330       GGSL
TXBWIC20120-37321-00331-10000024D0000327D0070500060331       GGSL
TXBWIC20120-37321-00404-20000024D0000158D0016800084404       GGSL
TXBWIC20120-37321-00411-00000024D0000071D0016800000411       GGSL
TXBWIC20120-37321-00412-70000024D0000114D0016800000412       GGSL
TXBWIC20120-37321-00413-40000008D0000086D0003600008413       GGSL
TXBWIC20120-37321-00420-20000033D0001760D0020100004420       GGSL
TXBWIC20120-37321-00426-40000144D0001303D0050400864426       GGSL
TXBWIC20120-37321-00428-80000012D0000050D0000200384428       GGSL
TXBWIC20120-37321-00442-40000231D0001302D0096300072442       GGSL
TXBWIC20120-37321-00443-10000015D0000174D0048900012443       GGSL
TXBWIC20120-37321-00506-30000059D0000230D0036900396506       GGSL
TXBWIC20120-37321-00543-80000048D0000138D0088800120543       GGSL
TXBWIC20120-37321-00544-50000168D0000875D0038700012544       GGSL
TXBWIC20120-37321-00553-70000012D0000341D0033600000553       GGSL
TXBWIC20120-37321-00560-50000276D0001262D0097200048560       GGSL
TXBWIC20120-37321-00571-10000132D0000960D0035100078571       GGSL
TXBWIC20120-37321-00573-50000105D0000441D0064200036573       GGSL
TXBWIC20120-37321-00577-30000104D0000872D0045200048574       GGSL
TXBWIC20120-37321-00578-00000004D0000041D0006000000578       GGSL
TXBWIC20120-37321-00611-40000004D0000087D0028000044611       GGSL
TXBWIC20120-37321-00612-10000012D0000054D00000000000612      GGSL
TXBWIC20120-37321-00631-20001836D0004549D1366803276631       GGSL
TXBWIC20120-37321-00652-70000072D0000329D0033600000652       GGSL
TXBWIC20120-37321-00655-80000012D0000068D00066010866556      GGSL
TXBWIC20120-37321-00680-00000096D0000815D0151500408680       GGSL
TXBWIC20120-37321-00681-70000004D0000045D00004000000681      GGSL
TXBWIC20120-37321-00685-50000172D0001544D0153100384685       GGSL
TXBWIC20120-37321-00690-90000048D0000490D0046800036690       GGSL
TXBWIC20120-37321-00692-30000072D0000797D0191200033692150    GGSL
TXBWIC20120-37321-00697-80000012D0000043D0000000000697       GGSL
TXBWIC20120-37321-00698-50000012D0000060D0000000012698       GGSL
TXBWIC20120-37321-00752-40000006D0000041D0013800000752       GGSL
TXBWIC20120-37321-00754-80000004D0000108D0000000000754       GGSL
TXBWIC20120-37321-00758-60000004D0000035D0003200000758       GGSL
TXBWIC20120-37321-00771-50000060D0000297D0020400060771       GGSL
TXBWIC20120-37321-00775-30000075D0000428D0000900024775       GGSL
TXBWIC20120-37321-00784-50000084D0000225D0093600060784       GGSL
TXBWIC20120-37321-00786-90000390D0001350D0229200618786       GGSL
TXBWIC20120-37321-00789-00000060D0000396D0084602004791       GGSL
TXBWIC20120-37321-00806-40000036D0000268D0016800120806       GGSL
TXBWIC20120-37321-00811-80000339D0003542D0292500696811       GGSL
TXBWIC20120-37321-00813-20000039D0000508D0101700912813       GGSL
TXBWIC20120-37321-00814-90000006D0000130D0008400078814       GGSL
TXBWIC20120-37321-00857-60000084D0000662D0106800048857       GGSL
TXBWIC20120-37321-00858-30000060D0000766D0008400024858       GGSL
TXBWIC20120-37321-00862-00000153D0001808D0081300000862       GGSL
TXBWIC20120-37321-00868-20000012D0000134D0004800006868       GGSL
TXBWIC20120-37321-00870-50000084D0000609D0024000024870       GGSL
TXBWIC20120-37321-00875-00000036D0000341D0115500012875       GGSL
TXBWIC20120-37321-00880-40000048D0000531D0108600504880       GGSL
TXBWIC20120-37321-00883-50000030D0000142D0012900576883       GGSL
TXBWIC20120-37321-00925-20000138D0000395D0001401212925       GGSL
TXBWIC20120-37321-00939-90000012D0000131D0001200576939       GGSL
TXBWIC20120-37321-00941-20000252D0002349D0091500714941       GGSL
TXBWIC20120-37321-00951-10000372D0001538D0043201080951       GGSL
TXBWIC20120-37321-00952-80000108D0000553D0012900072952       GGSL
TXBWIC20120-37321-00963-40000012D0000100D0000600012963       GGSL
TXBWIC20120-37321-00978-80000009D0000046D0000000018978       GGSL
TXBWIC20120-37321-00987-00000426D0003555D0075000060987       GGSL
TXBWIC20120-37321-02360-90000126D0000844D00240000842360      GGSL
TXBWIC20120-37321-02361-60000696D0007841D01309006602361      GGSL
TXBWIC20120-37321-02362-30000012D0000224D00000000202362      GGSL
TXBWIC20120-37321-02761-40000012D0000214D00000000062761      GGSL
TXBWIC20120-37321-05612-60000054D0000498D00513000365612      GGSL
TXBWIC20120-37321-05710-90000144D0000810D00144000485710      GGSL
TXBWIC20120-37321-05712-30000195D0001752D00273000005712      GGSL
TXBWIC20120-37321-05714-70000092D0002568D00148000005714      GGSL
TXBWIC20120-37321-07462-50000004D0000119D00000000007462      GGSL
TXBWIC20120-37321-07504-20000006D0000140D00000000127504      GGSL
TXBWIC20120-37321-07505-90000004D0000306D00000000047505      GGSL
TXBWIC20120-37321-08636-90000012D0000140D00006000008636      GGSL
TXBWIC20120-37321-09534-70000228D0002299D00372003129534      GGSL
TXBWIC20120-37321-46126-50000300D0000046D123000060046126     GGSL
TXBWIC20120-37321-46172-20000012D0000049D000120000046172     GGSL
TXBWIC20120-37321-46180-70000012D0000070D000120001246180     GGSL
TXBWIC20120-37321-46183-80000075D0000589D0035400000691       GGSL
TXBWIC20120-37321-46406-80000072D0000540D006560005646406     GGSL
TXBWIC20120-37321-60360-30000036D0000433D003930005660362     GGSL
TXBWIC20120-37321-60400-60000561C0000433C004150305460402     GGSL
TXBWIC20120-37321-60476-10000003D0000150D044191298360478     GGSL
TXBWIC20120-37321-60514-00000353D0003815D028810123460516     GGSL
TXBWIC20120-37321-60613-00000008D0000073D000400000060613     GGSL
TXBWIC20120-37321-61118-90000006D0000058D000000000061120     GGSL
TXBWIC20120-37321-61119-60000006D0000086D000000000061121     GGSL
TXBWIC20120-38313-00005-90000002D0000045D0007400003GS 6750D  GGSL
TXBWIC20120-38313-00008-00000017D0000272D0007600083BP 3130   GGSL
TXBWIC20120-38313-00060-80000158D0002650D0048700533BP 3160   GGSL
TXBWIC20120-38313-00080-60000100D0002021D0058000193BP 3180D  GGSL
TXBWIC20120-38313-00830-70000023D0000642D0002500025BP 6250   GGSL
TXBWIC20120-38313-01010-20000360D0001691D0074400150CT 3010I  GGSL
TXBWIC20120-38313-01020-10000060D0000282D0013800108CT 3020I  GGSL
TXBWIC20120-38313-01030-00000042D0000198D0007200030CT 3030I  GGSL
TXBWIC20120-38313-03050-60000006D0000045D0000000222GT 3050   GGSL
TXBWIC20120-38313-03214-20000036D0000334D0004200012BP 3214D  GGSL
TXBWIC20120-38313-03334-70000011C0000334C0002400018AP 3334   GGSL
TXBWIC20120-38313-03394-10000012D0000092D0002400006FS 3394   GGSL
TXBWIC20120-38313-03470-20000008D0000223D0004800003FL 3470   GGSL
TXBWIC20120-38313-03694-20000001D0000028D0000500004LG 3694   GGSL
TXBWIC20120-38313-03710-90000030D0000181D0000601890CT 3710   GGSL
TXBWIC20120-38313-03750-50000012D0000070D0000000006CT 3750   GGSL
TXBWIC20120-38313-04930-00001132D0006815D0379801460AG 4930   GGSL
TXBWIC20120-38313-04930-70000722D0004888D0161300012AG 4930SS GGSL
TXBWIC20120-38313-06970-40000031D0001193D0007100006AH 6970   GGSL
TXBWIC20120-38313-07001-00000001D0000040D0001000000FK 70010  GGSL
TXBWIC20120-38313-07545-20000012D0000185D0011100012RS 7245   GGSL
TXBWIC20120-38313-10000-10000043D0000399D0015900010SS 10000  GGSL
TXBWIC20120-38313-10227-20000008D0000466D0004700001AL 6512   GGSL
TXBWIC20120-38313-11000-00000021D0000194D0010600001SS 11000  GGSL
TXBWIC20120-38313-12400-70000074D0000862D0005200004RK 24003  GGSL
TXBWIC20120-38313-14300-80000001D0000041D0000600000BM 43001  GGSL
TXBWIC20120-38313-20001-50000009D0000198D0001000005PD 20000  GGSL
TXBWIC20120-38313-20004-60000001D0000015D0002200126CV 20004  GGSL
TXBWIC20120-38313-20022-00000035D0000575D0005200013RK 20022  GGSL
TXBWIC20120-38313-21000-70000010D0000132D0011900061SH 20000  GGSL
TXBWIC20120-38313-24000-40000014D0000095D0002500012FS 4000   GGSL
TXBWIC20120-38313-26020-00000013D0000219D0011700005SS 26020  GGSL
TXBWIC20120-38313-26022-40000001D0000020D0000000001SS 26030  GGSL
TXBWIC20120-38313-27020-90000013D0000180D0003500000SS 27020  GGSL
TXBWIC20120-38313-28000-00000002D0000035D0000400006SS 28000  GGSL
TXBWIC20120-38313-28010-90000014D0000282D0004100014SS 28010  GGSL
TXBWIC20120-38313-29001-60000006D0000130D0000000000SS 29010  GGSL
TXBWIC20120-38313-32640-10000012D0000084D0000000030CT 3264   GGSL
TXBWIC20120-38313-33140-50000008D0000069D0004000048CT 3314   GGSL
TXBWIC20120-38313-33540-30000016D0000113D0000800024CT 3354   GGSL
TXBWIC20120-38313-56200-70000005D0000037D0000900009RK 62000  GGSL
TXBWIC20120-38313-62062-20000016D0000695D0002200000BM 62060  GGSL
TXBWIC20120-38313-64144-30000003D0000055D0001000002SS 64104  GGSL
TXBWIC20120-38313-81000-90000023D0000232D0013900017RK 10000  GGSL
TXBWIC20120-38313-90000-70000014D0000132D0014100000SH 10000  GGSL
TXBWIC20120-39645-11752-10000010D0000047D001890000040200010  GGSL
TXBWIC20120-39996-30293-50000110D0001463D000000005030293     GGSL
TXBWIC20120-40025-54033-40000030D0001227D0004800001RWS-54033 GGSL
TXBWIC20120-40200-00000- 0000108C0002430C0020000400VBC H11-7 GGSL
TXBWIC20120-40279-03300-20000288D0000528D01632006843300      GGSL
TXBWIC20120-40279-03302-60000228D0000435D0129600012          GGSL
TXBWIC20120-40279-16136-70000036D0000058D000000000016136     GGSL
TXBWIC20120-41535-24550-40000030D0001252D005530001124550     GGSL
TXBWIC20120-41535-24560-30000201D0028869D007960004824560     GGSL
TXBWIC20120-41535-24571-90000466D0006382D0203400106100518540 GGSL
TXBWIC20120-42204-14504-80000001D0000001D00011000002MMC      GGSL
TXBWIC20120-42206-00202-00000140D0000142D0071000000202S      GGSL
TXBWIC20120-42206-00202-10000001D0000001D0001700000202S      GGSL
TXBWIC20120-42206-00395-90000020D0000044D0057000130395S      GGSL
TXBWIC20120-42206-00525-00000010D0000022D0036300170525C      GGSL
TXBWIC20120-42206-00702-50000024D0000105D0000000078702-6     GGSL
TXBWIC20120-42206-00872-50000077D0000165D0054000054872-6     GGSL
TXBWIC20120-42206-03010-80000004D0000035D00069000003010-4    GGSL
TXBWIC20120-42206-03900-20000006D0000087D00000000303900H     GGSL
TXBWIC20120-42206-07800-10000006D0000034D00090001267800      GGSL
TXBWIC20120-42206-09000-30000034D0000206D00646000009000      GGSL
TXBWIC20120-42206-09001-00000020D0000081D00000000009001      GGSL
TXBWIC20120-42206-09009-60000025D0000326D00000000209009      GGSL
TXBWIC20120-42206-09620-30000037D0001149D00268000009620-8    GGSL
TXBWIC20120-42206-14066-10000012D0000038D00144000009560C     GGSL
TXBWIC20120-42206-14220-70000032D0000114D0027000040312S      GGSL
TXBWIC20120-42206-14221-40000054D0000094D0045900010313S      GGSL
TXBWIC20120-42206-14222-10000018D0000278D0009600090314S      GGSL
TXBWIC20120-42206-14235-10000132D0000129D0059600010390S      GGSL
TXBWIC20120-42206-14328-00000030D0000014D0000000030200C      GGSL
TXBWIC20120-42206-14456-00000080D0000123D0043200020420C      GGSL
TXBWIC20120-42206-14501-70000060D0000050D00352000001FMC      GGSL
TXBWIC20120-42206-14502-40000092D0000063D00334000001MMC      GGSL
TXBWIC20120-42206-14503- 0000008D0000008D00017000002FMC      GGSL
TXBWIC20120-42206-14503-10000378D0000349D01514001302FMC      GGSL
TXBWIC20120-42206-14504-80000106D0000086D01295000682MMC      GGSL
TXBWIC20120-42206-14505-50000040D0000036D003240000001MC      GGSL
TXBWIC20120-42206-14506-20000072D0000067D009400011002MC      GGSL
TXBWIC20120-42206-14570-30000040D0000209D0023000000ZBR3/4    GGSL
TXBWIC20120-42206-14571-00000080D0000248D0045000040ZBM3/4    GGSL
TXBWIC20120-42206-14572-70000020D0000062D0025400060ZBF3/4    GGSL
TXBWIC20120-42206-14599-40000024D0000271D00030000009536CH    GGSL
TXBWIC20120-42206-15106-30000036D0000390D000000042015106     GGSL
TXBWIC20120-42206-15111-70000006D0000037D001320000015111     GGSL
TXBWIC20120-42206-15549-80000012D0000186D000480000015549     GGSL
TXBWIC20120-42206-20491-20000064D0000285D005540006020491-10  GGSL
TXBWIC20120-42206-21701-10000010D0000028D000000000021701R    GGSL
TXBWIC20120-42206-22261-90000006D0000048D004920000022261     GGSL
TXBWIC20120-42206-22300-50000024D0000232D001560000022300     GGSL
TXBWIC20120-42206-22701-00000010D0000028D001160001022701C    GGSL
TXBWIC20120-42206-23701-90000012D0000034D001420001023701S    GGSL
TXBWIC20120-42206-30200-70000010D0000055D0002000000XT200     GGSL
TXBWIC20120-42206-30201-40000030D0000171D0000000001XT201     GGSL
TXBWIC20120-42206-40300-10000030D0000205D0011600000XT300     GGSL
TXBWIC20120-42206-40301-80000010D0000064D0046400470XT301     GGSL
TXBWIC20120-42206-44100-30000006D0000094D0013200114XT4100    GGSL
TXBWIC20120-42206-63015-50000034D0000911D000810002463015     GGSL
TXBWIC20120-42579-00035-70000072D0000645D00000000183 YR-3100 GGSL
TXBWIC20120-42579-00052-40000010D0000368D0002900000ST47812   GGSL
TXBWIC20120-42579-10342-30000048D0000689D0001200012NB348     GGSL
TXBWIC20120-42579-11050-60000012D0000093D00000000001050RC    GGSL
TXBWIC20120-42579-11250-00000011D0004558D0004300000P12       GGSL
TXBWIC20120-42579-11500-60000021D0000411D0007700004APB5      GGSL
TXBWIC20120-42579-12343-80000063D0001978D000000008420 YR-3100GGSL
TXBWIC20120-42579-12346-90000024D0000042D0009600120TW3W      GGSL
TXBWIC20120-42579-13250-80000580D0014006D0169800017P3        GGSL
TXBWIC20120-42579-14250-70000304D0024115D0021400041P4        GGSL
TXBWIC20120-42579-15250-60000030D0004659D0010300002P5        GGSL
TXBWIC20120-42579-16250-50000080D0012514D0013000005P6        GGSL
TXBWIC20120-42579-18250-30000024D0006691D0004900001P8        GGSL
TXBWIC20120-42579-19342-40000336D0002932D004320000020 YR-324 GGSL
TXBWIC20120-42579-22341-10002336D0011390D05376008646 YR-350  GGSL
TXBWIC20120-42579-22342-80002070D0017364D0014400954NS12      GGSL
TXBWIC20120-42579-22345-90001618D0001522D0308304176APRC      GGSL
TXBWIC20120-42579-23100-30000016D0000188D00000000806 YR-3100 GGSL
TXBWIC20120-42579-24250-40000040D0002094D000000000020 YR-4250GGSL
TXBWIC20120-42579-25250-30000018D0001178D000000000020 YR-5250GGSL
TXBWIC20120-42579-26250-20000002D0000362D000000000420 YR-6250GGSL
TXBWIC20120-42579-32355-50000154D0000844D0114800154RS15      GGSL
TXBWIC20120-42579-32500-90000006D0000221D00000000006 YR-3300 GGSL
TXBWIC20120-42579-32501-60000006D0000293D00000000056 YR-4300 GGSL
TXBWIC20120-42579-43004-80000013D0001119D0007800006NB4       GGSL
TXBWIC20120-42579-43006-20000012D0001543D0004500002NB6       GGSL
TXBWIC20120-42579-43240-00000080D0000647D0002000020NB324     GGSL
TXBWIC20120-42579-50154-00000048D0001296D0029600040PRO BLK-31GGSL
TXBWIC20120-42579-63041-70000009D0000974D0002200008KG6       GGSL
TXBWIC20120-42579-63045-50000001D0000201D0000000004KG12      GGSL
TXBWIC20120-42579-63105-60000015D0000789D0006300000350ROLL   GGSL
TXBWIC20120-42579-63111-70001500D0000225D0000000000RPB-RED   GGSL
TXBWIC20120-42579-63306-70000540D0002504D02556004683 YR-350  GGSL
TXBWIC20120-42579-81272-10000002D0000158D0000000002K6        GGSL
TXBWIC20120-42579-81273-80000002D0000316D0000100003K12       GGSL
TXBWIC20120-42579-81360-50000117D0015223D0006000054NS12250   GGSL
TXBWIC20120-42579-81391-90000002D0000362D0000100002WGC12     GGSL
TXBWIC20120-42579-81392-60000003D0000741D0000000002WGC15     GGSL
TXBWIC20120-42579-81428-20000342D0000605D0055400056BURLAP BAGGGSL
TXBWIC20120-42579-81497-40000006D0000013D0004400003RDR + SIGNGGSL
TXBWIC20120-42579-81566-10000093D0010190D0020600133SBLT10300 GGSL
TXBWIC20120-42579-81568-50000107D0014607D0051100177SBLT12300 GGSL
TXBWIC20120-42579-81569-20000364D0059287D0042500177SBLT15.530GGSL
TXBWIC20120-42579-81571-50000153D0005324D0042500114SBLT3300  GGSL
TXBWIC20120-42579-81572-20000024D0001176D0018700007SBLT4300  GGSL
TXBWIC20120-42579-81573-90000277D0018541D0035800112SBLT6300  GGSL
TXBWIC20120-42579-81605-70000017D0001162D0001100021PRO BLK-33GGSL
TXBWIC20120-42579-81606-40000033D0003122D0010900029PRO BLK-43GGSL
TXBWIC20120-42579-81607-10000021D0002940D0007500020PRO BLK-63GGSL
TXBWIC20120-42579-81608-80000004D0000741D0000000000PRO BLK-83GGSL
TXBWIC20120-42579-81619-40000012D0000407D0000100010APB1      GGSL
TXBWIC20120-42579-81733-70000009D0000497D0002900000CS-3300BLKGGSL
TXBWIC20120-42579-81734-40000020D0001338D0002500001CS-4300BLKGGSL
TXBWIC20120-42579-81735-10000038D0003811D0004300000CS-6300BLKGGSL
TXBWIC20120-42579-81739-90000010D0002074D0001300000CS-3100BLKGGSL
TXBWIC20120-42579-81851-80000001D0000048D0000000000DELUXE7   GGSL
TXBWIC20120-42579-82224-90000032D0000171D0000000000DELUXE650 GGSL
TXBWIC20120-42579-82238-60000006D0000091D0000000000FIBC 2000 GGSL
TXBWIC20120-42579-82252-20000004D0000375D0000000000FF4OZ-4360GGSL
TXBWIC20120-42579-82278-20000360D0002997D0000000084TWBAG-12  GGSL
TXBWIC20120-42579-82283-60000115D0001276D0000000000STRTS-28  GGSL
TXBWIC20120-42579-82293-50000280D0001422D0002802072SUPREME625GGSL
TXBWIC20120-42579-82311-60000002D0000000D0000000001BDR       GGSL
TXBWIC20120-42579-82341-30000018D0000699D0000000000DDF7100PROGGSL
TXBWIC20120-42853-00000-00000097D0004361D0029700013BFTD-DB12 GGSL
TXBWIC20120-42853-10000-10000076D0000285D0000800000ST3-BB4   GGSL
TXBWIC20120-42853-12000-90000012D0000032D0006400000MGC-DB12  GGSL
TXBWIC20120-42853-14000-70000030D0000139D0000000000PMT2-FD30 GGSL
TXBWIC20120-42853-42000-00000006D0000024D0082200102TSBF-BB6  GGSL
TXBWIC20120-42853-60000-60000008D0000021D0001600000FFTR-BB4  GGSL
TXBWIC20120-42853-61000-50000012D0000052D0000400020FFTR2-BB4 GGSL
TXBWIC20120-42853-62000-40000024D0000030D0002000012FFTA-DB12 GGSL
TXBWIC20120-42853-65000-10000001D0000135D0000000000AB6-FD36  GGSL
TXBWIC20120-42853-77305-40000030D0001177D0007400139FTD-DB12  GGSL
TXBWIC20120-42854-03298-10000360D0000894D0000000276FG32ORB112GGSL
TXBWIC20120-42854-63278-50000024D0000054D0000000000FG32PC1-12GGSL
TXBWIC20120-42854-93200-70000036D0000171D0008400000FG32SM1-12GGSL
TXBWIC20120-43256-29051-10000006D0000470D0000500000DT1260    GGSL
TXBWIC20120-43312-10003-70000311D0000961D0096000105103-0-009 GGSL
TXBWIC20120-43312-10027-30000024D0000208D0009600012104-0-003 GGSL
TXBWIC20120-43312-10102-70000144D0000213D0014400000102-0-012 GGSL
TXBWIC20120-43326-15710-20000180D0000344D0000000000M6X8      GGSL
TXBWIC20120-43326-15720-10000100D0000319D0000000020M8X10     GGSL
TXBWIC20120-43326-17720-90000016D0000087D0000000032BRB8X10-P GGSL
TXBWIC20120-43326-59578-20000002D0000167D0001200002G12X26    GGSL
TXBWIC20120-43326-59732-80000005D0000160D0000000015G10X12    GGSL
TXBWIC20120-43326-59772-40000003D0000192D0000000018G12X20    GGSL
TXBWIC20120-43326-94774-10000002D0000157D0000000000SW15X30-AGGGSL
TXBWIC20120-43792-50001-30000005D0000150D0037100241Y32       GGSL
TXBWIC20120-43792-60002-70000003D0000117D0032500260W32       GGSL
TXBWIC20120-43792-70002-40000001D0000041D0016300173R32       GGSL
TXBWIC20120-43792-80001-40000033C0000041C0013800140SW10      GGSL
TXBWIC20120-46539-62045-60000747D0009191D0750800191          GGSL
TXBWIC20120-46539-64032-40000698D0005973D0376301465          GGSL
TXBWIC20120-46753-01032-30000198D0000608D00120000064675301032GGSL
TXBWIC20120-46753-01128-30000156D0001167D00152000124675301128GGSL
TXBWIC20120-46753-01500-70000188C0001167C00012000004675302500GGSL
TXBWIC20120-46753-02032-20000174D0000630D00060000004675302032GGSL
TXBWIC20120-46753-02033-90000012D0000072D00000000004675302033GGSL
TXBWIC20120-46753-02128-20000143D0001378D00241000004675302128GGSL
TXBWIC20120-46753-03128-10000048D0000618D00160000004675303128GGSL
TXBWIC20120-46753-04032-00000060D0000328D00930000184675304032GGSL
TXBWIC20120-46753-04033-70000288D0002060D00754004682004675304GGSL
TXBWIC20120-46753-04128-00000224D0002769D00296002684675304128GGSL
TXBWIC20120-46753-04500-40000004D0000246D00018000004675304500GGSL
TXBWIC20120-46753-05032-90000198D0001477D00438004504675305032GGSL
TXBWIC20120-46753-05128-90000168D0001997D00284001644675305128GGSL
TXBWIC20120-46753-07032-70000024D0000114D00135000124675307032GGSL
TXBWIC20120-46753-07128-70000016D0000212D00004000044675307128GGSL
TXBWIC20120-46753-08032-60000362D0005173D01380004924675308032GGSL
TXBWIC20120-46753-14032-70000012D0000049D00084000244675314032GGSL
TXBWIC20120-46753-14128-70000068D0000488D00044000164675314128GGSL
TXBWIC20120-46753-17005-80000168D0000606D00348000124675317005GGSL
TXBWIC20120-46753-17040-90000290D0003940D01384000524675317040GGSL
TXBWIC20120-46753-19032-20000012D0000067D00000000722004675319GGSL
TXBWIC20120-46753-19128-20000004D0000050D0000400044          GGSL
TXBWIC20120-46753-20128-80000012D0000188D0000000012          GGSL
TXBWIC20120-46753-21032-70000024D0000125D004000057610327     GGSL
TXBWIC20120-46753-21128-70000048D0000589D004120044412287     GGSL
TXBWIC20120-47977-00100-50000003D0000101D00001000017511I     GGSL
TXBWIC20120-47985-10023-30000115D0000780D0000000000YCBSM3CF-PGGSL
TXBWIC20120-47985-10033-20000239D0001664D0043400446YCBSI3CF-PGGSL
TXBWIC20120-48307-70003-20000013D0000114D0008500002ST3       GGSL
TXBWIC20120-48307-70004-90000009D0000083D0019000015ST4-WS    GGSL
TXBWIC20120-48307-70006-30000004D0000057D0018200001ST6       GGSL
TXBWIC20120-48745-22244-80000028D0000624D0012800000BL22244   GGSL
TXBWIC20120-50197-00104-50000792D0003395D0092000096HT4       GGSL
TXBWIC20120-50197-00108-30000162D0000986D0020400000HT8       GGSL
TXBWIC20120-50197-00118-20000314D0003456D0041600060HT18      GGSL
TXBWIC20120-50197-00136-60000644D0011504D0031400015HT36      GGSL
TXBWIC20120-50197-00150-20000441D0009332D0029200000HT50      GGSL
TXBWIC20120-50197-00204-20000450D0001812D0146403396PT4       GGSL
TXBWIC20120-50197-00208-00000102D0000709D0004200024PT8       GGSL
TXBWIC20120-50197-00218-90000479D0005067D0028200011PT18      GGSL
TXBWIC20120-50197-00236-30000315D0005279D0020500055PT36      GGSL
TXBWIC20120-50197-00250-90000502D0010080D0004200010PT50      GGSL
TXBWIC20120-50197-00304-90000468D0001877D0060501704GT4       GGSL
TXBWIC20120-50197-00308-70000084D0000558D0000700054GT8       GGSL
TXBWIC20120-50197-00318-60000133D0001514D0014700050GT18      GGSL
TXBWIC20120-50197-00336-00000109D0002106D0010600001GT36      GGSL
TXBWIC20120-50197-00404-60000850D0003677D0094701662RT4       GGSL
TXBWIC20120-50197-00408-40000078D0000458D0024600006RT8       GGSL
TXBWIC20120-50197-00418-30000174D0001915D0024200109RT18      GGSL
TXBWIC20120-50197-00604-00000168D0000701D0037000756BT4       GGSL
TXBWIC20120-50197-00704-70000444D0001942D0064900030TR4       GGSL
TXBWIC20120-50197-00718-40000055D0000647D0013600002TR18      GGSL
TXBWIC20120-50197-00736-80000070D0001160D0001300000TR36      GGSL
TXBWIC20120-50197-00904-10000702D0002940D0193804944TO4       GGSL
TXBWIC20120-50197-00908-60000060D0000357D0013800018TO8       GGSL
TXBWIC20120-50197-00918-80000094D0001080D0016200018TO18      GGSL
TXBWIC20120-50197-01004-70000132D0000561D0013201416BM04      GGSL
TXBWIC20120-50197-01024-50000005D0000087D0000000000BM24      GGSL
TXBWIC20120-50197-01207-20000024D0000155D0006600030RP7       GGSL
TXBWIC20120-50197-01228-70000019D0000324D0016600001RP28      GGSL
TXBWIC20120-50197-01303-10000165D0000947D0013201344DB03      GGSL
TXBWIC20120-50197-01317-80000003D0000105D0005500009DB17      GGSL
TXBWIC20120-50197-01403-80000036D0000175D0014400012CM3       GGSL
TXBWIC20120-50197-01803-60000012D0000043D0009600024GM3       GGSL
TXBWIC20120-50197-01825-80000101D0001023D0034400005GM25      GGSL
TXBWIC20120-50197-01905-70000006D0000030D0004200018GF5105/6  GGSL
TXBWIC20120-50197-02006-00000240D0000574D0015600342GL6       GGSL
TXBWIC20120-50197-02206-40000222D0001043D0025000252GG6       GGSL
TXBWIC20120-50197-02304-70000012D0000059D0000000012CS4       GGSL
TXBWIC20120-50197-02703-80000048D0000428D0001200024KM4       GGSL
TXBWIC20120-50197-02904-90000474D0002065D0079201080FT4       GGSL
TXBWIC20120-50197-02918-60000113D0001249D0017400002FT18      GGSL
TXBWIC20120-50197-03804-10001571D0007714D0202803534BTSP4     GGSL
TXBWIC20120-50197-03808-90000048D0000384D0000000060BTSP8     GGSL
TXBWIC20120-50197-03818-80000010D0000174D0010900018BTSP18    GGSL
TXBWIC20120-50197-03825-60000294D0006469D0028200048BTSP25    GGSL
TXBWIC20120-50197-03904-80000480D0002128D0094000822PM4       GGSL
TXBWIC20120-50197-03920-80000012D0000130D0014600002PM20      GGSL
TXBWIC20120-50197-05004-30000354D0001456D0112802904CT4       GGSL
TXBWIC20120-50197-05018-00000195D0002143D0031300035CT18      GGSL
TXBWIC20120-50197-05225-20000005D0000108D0000000012CGP25     GGSL
TXBWIC20120-50197-05320-40000002D0000027D0032900000ELF20     GGSL
TXBWIC20120-50197-05405-80000300D0001375D0018100036IT5       GGSL
TXBWIC20120-50197-05420-10000010D0000149D0013900000it20      GGSL
TXBWIC20120-50197-05614-40000012D0000161D0000000012EOLF14    GGSL
TXBWIC20120-50197-05628-10000210D0004133D0014000000EOLF28    GGSL
TXBWIC20120-50197-05730-10000090D0001774D0002200000EOSR30    GGSL
TXBWIC20120-50197-05830-80000210D0004133D0000000005EOFW30    GGSL
TXBWIC20120-50197-06504-70000864D0003760D0068401560AT4       GGSL
TXBWIC20120-50197-06508-50000090D0000611D0006000000AT8       GGSL
TXBWIC20120-50197-06604-40000120D0000456D0033600024BR4       GGSL
TXBWIC20120-50197-06718-80000010D0000114D0001200000ET18      GGSL
TXBWIC20120-50197-30418-40000054D0000255D0016200011BL18      GGSL
TXBWIC20120-50197-30508-20000060D0000249D0000000090INPF8     GGSL
TXBWIC20120-50197-30608-90000072D0000287D0002400150CAPF8     GGSL
TXBWIC20120-50197-30708-60000108D0000391D0001800090VIPF8     GGSL
TXBWIC20120-50197-30808-30000108D0000374D0001800126ORPF8     GGSL
TXBWIC20120-50197-30924-00000012D0000054D0001200000FI24-6    GGSL
TXBWIC20120-50197-31308-70000006D0000020D0000000006TOPF8     GGSL
TXBWIC20120-50197-31318-60000006D0000039D0012000000topf18    GGSL
TXBWIC20120-50197-51824-60000041C0000039C0003000000eowk24    GGSL
TXBWIC20120-50197-70101-30000441D0002734D0025700020ap1       GGSL
TXBWIC20120-50197-70102-00000446D0004123D0052200010ap2       GGSL
TXBWIC20120-50197-70116-70000015D0000092D0000000000AP16      GGSL
TXBWIC20120-50197-70304-80000032D0000103D0050400016ca4-8     GGSL
TXBWIC20120-50197-70308-60000138D0000561D0018000012ca8x      GGSL
TXBWIC20120-50197-70516-50000010D0000060D0000300008SS16      GGSL
TXBWIC20120-50197-70608-70000048D0000195D0009000000PTM8      GGSL
TXBWIC20120-50197-70701-50000007D0000077D0000000012PR1       GGSL
TXBWIC20120-50197-70801-20000007D0000087D0000000011VM1       GGSL
TXBWIC20120-50197-71304-70000204D0001115D0025200168EC4       GGSL
TXBWIC20120-50197-71501-00000398D0001999D0036600000lsc1      GGSL
TXBWIC20120-50197-71601-70000065D0000240D0057900000dcm1      GGSL
TXBWIC20120-50197-71904-90000012D0000066D0004800024HC4       GGSL
TXBWIC20120-50197-80117-10000729D0007046D0002800000SC17      GGSL
TXBWIC20120-50349-01003-10000020D0000852D00001000001003-012  GGSL
TXBWIC20120-50349-01009-30000001D0000052D00000000001009-012  GGSL
TXBWIC20120-50349-01037-60000004D0000311D00000000021037-012  GGSL
TXBWIC20120-50349-01039-00000002D0000145D00000000041039-012  GGSL
TXBWIC20120-50349-01041-30000002D0000159D00000000031041-012  GGSL
TXBWIC20120-50349-01043-70000006D0000119D00004000001043-009  GGSL
TXBWIC20120-50349-01069-70000080D0000294D00020000001069-012  GGSL
TXBWIC20120-50349-01078-30000003D0001905D00000000021023-017  GGSL
TXBWIC20120-50349-10110-50000004D0000267D00000000001022-012  GGSL
TXBWIC20120-50349-10211-20000010D0000507D00001000001012-012  GGSL
TXBWIC20120-50349-10221-10000015D0001422D00000000001066-012  GGSL
TXBWIC20120-50349-10230-00000003D0000224D00001000001054-012  GGSL
TXBWIC20120-50349-10541-00000020D0017748D00000000001071-017  GGSL
TXBWIC20120-50349-10661-50000008D0000593D00000000001078-082  GGSL
TXBWIC20120-50349-18885-30000061D0000851D00000000058885-034  GGSL
TXBWIC20120-50699-00014-00000004D0000018D0002700000300014    GGSL
TXBWIC20120-50699-00128-10000002D0000056D0003900000300128    GGSL
TXBWIC20120-50699-00212-00000078D0000654D0007500000300212    GGSL
TXBWIC20120-50699-00436-00000012D0000079D0000000000300436    GGSL
TXBWIC20120-51497-15464-60000005D0000658D000650000015464     GGSL
TXBWIC20120-52427-00551-90000003D0000054D00000000004500102   GGSL
TXBWIC20120-52427-60012-70000005D0000120D000000000060121     GGSL
TXBWIC20120-52427-60109-40000002D0000044D00000000006010902   GGSL
TXBWIC20120-52732-00000-00000001D0000005D000070000019109     GGSL
TXBWIC20120-52732-10012-10000010D0001105D00379000021001-B    GGSL
TXBWIC20120-52732-10225-50000001D0000026D000620000160009.0   GGSL
TXBWIC20120-52732-20505-50000005D0000413D00191000032050SU    GGSL
TXBWIC20120-52732-20509-30000012D0001520D00256000022050P     GGSL
TXBWIC20120-52732-27500-30000236D0009206D00976000352750      GGSL
TXBWIC20120-52732-31000-10000005D0000702D00003000023100.0    GGSL
TXBWIC20120-53291-11002-60000108D0001050D0066000036820-1002  GGSL
TXBWIC20120-53291-19881-90000003D0000031D0003200000820-1002  GGSL
TXBWIC20120-53291-30000-00000001D0000269D0001500003820-1024  GGSL
TXBWIC20120-53291-55981-80000024D0000090D0054000000820-0188  GGSL
TXBWIC20120-56554-10517-30000012D0000138D0000000020MSA16001E2GGSL
TXBWIC20120-56554-10518-00000008D0000124D0000000020MSA20001E2GGSL
TXBWIC20120-56554-31058-40000004D0000030D0000000000SRA10001P0GGSL
TXBWIC20120-56554-31344-80000021D0000238D0000000000SRA13001P0GGSL
TXBWIC20120-56554-31358-50000012D0000136D0000000000SRA13001P0GGSL
TXBWIC20120-56554-67705-20000060D0000544D0000000000MOA22000G1GGSL
TXBWIC20120-56554-73105-10000040D0000416D0000000040RUA16000G1GGSL
TXBWIC20120-56554-73154-90000032D0000264D0000000000RUA12000G1GGSL
TXBWIC20120-56554-91954-10000004D0000145D0000000000KTS15000A5GGSL
TXBWIC20120-56554-91958-90000004D0000210D0000200000KTX16000A5GGSL
TXBWIC20120-58115-00114-60000006D0000087D0000000012114       GGSL
TXBWIC20120-66498-01115-70000285D0005892D003000010301115.0   GGSL
TXBWIC20120-66498-02115-60003634D0045764D027380051502775.0   GGSL
TXBWIC20120-66498-02185-90000002D0000032D003210000002185     GGSL
TXBWIC20120-66498-04175-80000743D0006969D003110021504175.0   GGSL
TXBWIC20120-66498-05113-90000360D0002171D004130016305175.0   GGSL
TXBWIC20120-66498-09782-30000585D0004622D000000006509782.0   GGSL
TXBWIC20120-66498-09795-30000375D0003583D000740001009795     GGSL
TXBWIC20120-66498-09839-40000004D0000020D000000000109839     GGSL
TXBWIC20120-66498-09901-80001549D0009028D013340061009901.0   GGSL
TXBWIC20120-66498-09902-50001852D0017035D028090063409902.0   GGSL
TXBWIC20120-66498-09903-20000638D0007835D004720037409903.0   GGSL
TXBWIC20120-66498-09925-40000114D0000408D006840022209925     GGSL
TXBWIC20120-66498-09929-20000132D0000559D002470000609929     GGSL
TXBWIC20120-66498-09937-70001536D0003998D004320091209937     GGSL
TXBWIC20120-66498-09939-10000095D0000688D000040010009939     GGSL
TXBWIC20120-66498-09947-60000252D0000621D007780082809947     GGSL
TXBWIC20120-66498-09950-50000480D0002271D003720066009955     GGSL
TXBWIC20120-66498-09965-00000318D0001885D001980082809965     GGSL
TXBWIC20120-66498-09977-30000264D0001427D005280002409977     GGSL
TXBWIC20120-66498-09985-80000108D0000415D006120054009985     GGSL
TXBWIC20120-66498-89905-20000930D0003135D007820051609905     GGSL
TXBWIC20120-66498-99827-40000768D0003042D002160057609827     GGSL
TXBWIC20120-70183-50005-50000164D0004486D00300000005000510   GGSL
TXBWIC20120-70183-50006-20000078D0002799D00132000005000610   GGSL
TXBWIC20120-70183-50023-90000054D0001343D00114000005002306   GGSL
TXBWIC20120-70183-50026-00000304D0003542D00436000125002610   GGSL
TXBWIC20120-70183-50027-70000030D0000148D00216000005002715   GGSL
TXBWIC20120-70183-50029-10000024D0000289D00284000005007410   GGSL
TXBWIC20120-70183-50030-70000024D0000092D00000000005003090   GGSL
TXBWIC20120-70183-50034-50000745D0008530D02262000125003470   GGSL
TXBWIC20120-70183-50038-30000228D0002742D00272000005003810   GGSL
TXBWIC20120-70183-50042-00000016D0001446D00025000015004215   GGSL
TXBWIC20120-70183-50055-00000252D0002803D01020000005005510   GGSL
TXBWIC20120-70183-50060-40000090D0003051D00174000005006010   GGSL
TXBWIC20120-70183-50085-70000042D0002272D00000000005008510   GGSL
TXBWIC20120-70183-51001-60000335D0005928D00852000165100114   GGSL
TXBWIC20120-70183-51006-10000302D0008965D00912000125100610   GGSL
TXBWIC20120-70183-51007-80000018D0000684D00156000005100710   GGSL
TXBWIC20120-70183-51009-20000100D0001398D00124000005004010   GGSL
TXBWIC20120-70183-51019-10000052D0001071D00156000005101910   GGSL
TXBWIC20120-70183-51073-30000132D0000624D00354000005107315   GGSL
TXBWIC20120-70183-51090-00000266D0021347D00703000045109010   GGSL
TXBWIC20120-70183-52005-30000008D0000162D00032000125200510   GGSL
TXBWIC20120-70183-52039-80000096D0002067D00132000005203910   GGSL
TXBWIC20120-70183-52350-40000016D0000405D00024000005235010   GGSL
TXBWIC20120-70183-57050-80000090D0002559D00156000005705010   GGSL
TXBWIC20120-70183-57250-20000092D0001942D00140000005725070   GGSL
TXBWIC20120-70251-65240-20000003D0000079D0003000000652400    GGSL
TXBWIC20120-70251-81482-40000024D0000082D00045000488141082   GGSL
TXBWIC20120-70805-51001-10000420D0000905D012500007070805-010-GGSL
TXBWIC20120-70805-51002-80000385D0001575D004650005070805-005-GGSL
TXBWIC20120-70805-51013-40001791D0023096D0057900304BD02      GGSL
TXBWIC20120-70805-51024-00000125D0000329D000960001270805-006-GGSL
TXBWIC20120-70805-51025-70003660D0040486D021710080670805-001-GGSL
TXBWIC20120-70805-51026-40000234D0000682D000240001870805-006-GGSL
TXBWIC20120-70805-51033-20000328D0003888D003660002770805-001-GGSL
TXBWIC20120-70805-51034-90000543D0012384D004280004170805-001-GGSL
TXBWIC20120-70805-51037-00000008D0000080D001280000670805-001-GGSL
TXBWIC20120-70805-51038-70000042D0000777D000980000670805-001-GGSL
TXBWIC20120-70805-51051-60000112D0000669D001430002470805-008-GGSL
TXBWIC20120-70805-53003-30001688D0011490D0157900419BD021     GGSL
TXBWIC20120-70805-62025-30006651D0134437D020950103170805-001-GGSL
TXBWIC20120-70805-84052-10000032D0000718D0003200020KERNEL_M-0GGSL
TXBWIC20120-70805-84053-80000146D0003041D001180002070805-001-GGSL
TXBWIC20120-70805-84054-50000111D0001553D001910000670805-001-GGSL
TXBWIC20120-70805-84071-20000007D0000168D0003700000REDMILLET-GGSL
TXBWIC20120-70805-84075-00000548D0013827D009170007570805-001-GGSL
TXBWIC20120-70805-84076-70000145D0006169D001970000670805-001-GGSL
TXBWIC20120-70805-84077-40000014D0000617D0005700004KERNEL_M-0GGSL
TXBWIC20120-70805-84079-80000061D0002573D002780000970805-001-GGSL
TXBWIC20120-70805-84093-40000021D0000920D0001700025PEANUTSPL-GGSL
TXBWIC20120-70923-00000-00000090D0000453D0042600048600.0     GGSL
TXBWIC20120-70923-00196-50000156D0000302D0064800000T100-12   GGSL
TXBWIC20120-70923-00300-60000492D0001869D0226900060T300FD    GGSL
TXBWIC20120-70923-00912-10000018D0000087D0018600018T901-6    GGSL
TXBWIC20120-70923-01860-40000042D0000213D0000000000T1806-6   GGSL
TXBWIC20120-70923-02301-10000042D0000133D0006600000T2302-6   GGSL
TXBWIC20120-70923-02600-50000048D0000428D0000000000T2600     GGSL
TXBWIC20120-70923-02900-60000148D0000741D0070800016T2900     GGSL
TXBWIC20120-70923-08515-60000048D0000087D0069600000T3206     GGSL
TXBWIC20120-70923-11915-80000001D0000209D0000000016T2502-DS  GGSL
TXBWIC20120-70923-12277-60000090D0000446D0005400012T1812     GGSL
TXBWIC20120-70923-29432-90000024D0000194D0008400000T514      GGSL
TXBWIC20120-70923-33443-80000020D0000088D0000000000T334      GGSL
TXBWIC20120-70923-45546-10000012D0000065D0000000000T512      GGSL
TXBWIC20120-70923-61781-40000008D0000015D0000000000T518      GGSL
TXBWIC20120-70923-69500-30000005D0000184D0002000000T2512     GGSL
TXBWIC20120-70923-85843-90000016C0000184C0000600000T513      GGSL
TXBWIC20120-71092-32500-80000114D0000513D0112200024T2506     GGSL
TXBWIC20120-71121-05580-40000120D0000894D00996000065580      GGSL
TXBWIC20120-71121-53940-30000072D0000567D0003200068HG-53944  GGSL
TXBWIC20120-71121-61067-60000001D0000474D0000000008HG-861067 GGSL
TXBWIC20120-71121-96281-20000006D0000028D0097200006HG-96281  GGSL
TXBWIC20120-71549-01128-40000040D0000108D00296000000112812   GGSL
TXBWIC20120-71549-01129-10000096D0000242D00256000240112912   GGSL
TXBWIC20120-71549-01656-20000180D0001211D00147002400165610   GGSL
TXBWIC20120-71549-01738-50000024D0000192D00150000060173810   GGSL
TXBWIC20120-71549-01748-40000006D0000051D00087000000174810   GGSL
TXBWIC20120-71549-01925-90000012D0000063D00006000000192510   GGSL
TXBWIC20120-71549-02003-30000184D0002612D00296000120200310   GGSL
TXBWIC20120-71549-02014-90000144D0000847D00096000000201405   GGSL
TXBWIC20120-71549-02023-10000024D0000081D00000000000202310   GGSL
TXBWIC20120-71549-02027-90000008D0000046D00000000000202712   GGSL
TXBWIC20120-71549-02030-90000012D0000099D00018000000203012   GGSL
TXBWIC20120-71549-02032-30000464D0004111D00000000000203205   GGSL
TXBWIC20120-71549-02044-60000032D0000238D00100000000204410   GGSL
TXBWIC20120-71549-02047-70000288D0001581D00348000000204710   GGSL
TXBWIC20120-71549-02048-40000048D0001155D00000000000204810   GGSL
TXBWIC20120-71549-02049-10000168D0001087D00300000000204910   GGSL
TXBWIC20120-71549-02054-50000008D0000050D00024000000205408   GGSL
TXBWIC20120-71549-02055-20001698D0003476D01560000300205506   GGSL
TXBWIC20120-71549-02057-60000108D0000402D00000000000205710   GGSL
TXBWIC20120-71549-02208-20000612D0005185D00664001040220810   GGSL
TXBWIC20120-71549-02219-80000132D0000894D00008000000221910   GGSL
TXBWIC20120-71549-02575-50000001D0000375D00000000000200328   GGSL
TXBWIC20120-71549-02756-80000152D0000374D00184000080275612   GGSL
TXBWIC20120-71549-02822-00001253D0020106D00993004680282210   GGSL
TXBWIC20120-71549-03390-30000006D0000065D00000000000339010   GGSL
TXBWIC20120-71549-03455-90000060D0000293D00006000000345510   GGSL
TXBWIC20120-71549-03456-60000306D0001246D00168001320345610   GGSL
TXBWIC20120-71549-03964-60000037C0001246C00042000000396410   GGSL
TXBWIC20120-71549-04318-60000162D0000656D00522000009994318   GGSL
TXBWIC20120-71549-04378-00000030D0000239D00600000000437806   GGSL
TXBWIC20120-71549-04380-30000024D0000084D00240000000438006   GGSL
TXBWIC20120-71549-04385-80000420D0001703D00549007380438580   GGSL
TXBWIC20120-71549-04465-70000012D0000146D00000000000446505   GGSL
TXBWIC20120-71549-04476-30000004D0000037D00000000000447605   GGSL
TXBWIC20120-71549-04477-00000024D0000105D00078000060447705   GGSL
TXBWIC20120-71549-04478-70000096D0000820D00096000000447805   GGSL
TXBWIC20120-71549-04479-40000024D0000190D00240000000447905   GGSL
TXBWIC20120-71549-04481-70000060D0000505D00148000000448105   GGSL
TXBWIC20120-71549-04486-20000036D0000270D00000000000448605   GGSL
TXBWIC20120-71549-04488-60000004D0000054D00032000000448805   GGSL
TXBWIC20120-71549-04491-60000300D0002554D00660000000449105   GGSL
TXBWIC20120-71549-04493-00000168D0001419D00108000000449305   GGSL
TXBWIC20120-71549-04494-70000048D0000380D00768000000449405   GGSL
TXBWIC20120-71549-04495-40000174D0000754D00108000000449505   GGSL
TXBWIC20120-71549-04613-20000024D0000139D00228000120461412   GGSL
TXBWIC20120-71549-04617-00000036D0000240D00000000000461712   GGSL
TXBWIC20120-71549-04619-40000024D0000096D00000000120461912   GGSL
TXBWIC20120-71549-04657-60000010D0000103D00140000200465705   GGSL
TXBWIC20120-71549-04745-00000024D0000170D00172000240474510   GGSL
TXBWIC20120-71549-04757-30000040D0000614D00020000160475705   GGSL
TXBWIC20120-71549-04759-70000005D0000330D00016000000475905   GGSL
TXBWIC20120-71549-04910-20000054D0000195D00066000000491010   GGSL
TXBWIC20120-71549-07542-20000006D0000023D00042000180754210   GGSL
TXBWIC20120-71549-07571-20000006D0000034D00000000000757110   GGSL
TXBWIC20120-71549-08410-30000798D0006805D00390002100841010   GGSL
TXBWIC20120-71549-43331-40000144D0000823D01320000000433310   GGSL
TXBWIC20120-71549-43361-10000132D0002158D00280000040433610   GGSL
TXBWIC20120-71549-43371-00000020D0000588D00250000020433710   GGSL
TXBWIC20120-71549-43701-50000052D0001065D00312000040437010   GGSL
TXBWIC20120-71549-43887-60000108D0000362D00408000004388710   GGSL
TXBWIC20120-71549-46008-20000144D0002091D00100000004600810   GGSL
TXBWIC20120-71549-46025-90000006D0000050D00126000004602510   GGSL
TXBWIC20120-71549-46132-40000072D0000934D00288000004613264   GGSL
TXBWIC20120-71549-46134-80000018D0000077D00090000004613406   GGSL
TXBWIC20120-71549-46135-50000012D0000138D00016000004613504   GGSL
TXBWIC20120-71549-46503-20000018D0000296D00582000004650306   GGSL
TXBWIC20120-71549-46526-10000388D0004001D00000000004652605   GGSL
TXBWIC20120-71549-46527-80000004D0000071D00036000004652705   GGSL
TXBWIC20120-71549-46530-80000834D0003197D00000000004653005   GGSL
TXBWIC20120-71549-99008-40000294D0003403D00624001209900810   GGSL
TXBWIC20120-71549-99019-00000006D0000065D00153000009901910   GGSL
TXBWIC20120-71559-04648-40000012D0000051D00006000000464812   GGSL
TXBWIC20120-71693-02101-60000004D0002356D000000000002-P1000S GGSL
TXBWIC20120-71693-02110-80000001D0000780D000000000002-SP660S GGSL
TXBWIC20120-71693-02115-30000001D0000130D000000000002-HB250  GGSL
TXBWIC20120-71693-02250-10000001D0000130D000000000002-PW250  GGSL
TXBWIC20120-71693-02252-50000001D0000130D000000000002-CH250  GGSL
TXBWIC20120-71693-02253-20000002D0000293D000000000002-TH250  GGSL
TXBWIC20120-71693-04113-70000001D0000246D000000000004-LG1100VGGSL
TXBWIC20120-71693-04114-40000003D0000000D000000000004-LG1100VGGSL
TXBWIC20120-71693-04254-40000002D0001478D000000000004-LG3300VGGSL
TXBWIC20120-71693-04750-40000001D0000168D000000000004-LG750  GGSL
TXBWIC20120-71693-04753-50000001D0000168D000000000004-LG750V GGSL
TXBWIC20120-71693-98401-40000001D0000340D000000000002-P450PN GGSL
TXBWIC20120-71898-43163-40000570D0011318D00364000347800      GGSL
TXBWIC20120-71898-43180-10000551D0008638D00360000307450      GGSL
TXBWIC20120-71898-43213-60000737D0014525D00235000927324      GGSL
TXBWIC20120-71898-43214-30000365D0006290D00350000207326      GGSL
TXBWIC20120-71898-43215-00000107D0001067D003450001932150     GGSL
TXBWIC20120-72525-00003-00000111D0000373D0055500027HRT-6     GGSL
TXBWIC20120-72525-00005-40000186D0000897D0044100042HRP-16    GGSL
TXBWIC20120-72525-00022-10000063D0000486D0033000024HBB-32    GGSL
TXBWIC20120-72525-00048-10000012D0000051D0016200000HDE-8     GGSL
TXBWIC20120-72525-00055-90000054D0000374D0029100000EGG-16    GGSL
TXBWIC20120-72525-00078-80000030D0000100D0010500000BBTRP     GGSL
TXBWIC20120-72532-00014-80000164D0001226D0367100840          GGSL
TXBWIC20120-72532-00015-50000048D0001097D0081600552          GGSL
TXBWIC20120-72532-00016-20000082D0003688D0031900024          GGSL
TXBWIC20120-72532-00017-90000083D0009691D0043100034          GGSL
TXBWIC20120-72532-22310-30000030D0000231D0049000410stspray-10GGSL
TXBWIC20120-72693-00014-80000071D0000746D003180000082770001  GGSL
TXBWIC20120-72693-00015-50000048D0003312D009300000182100001  GGSL
TXBWIC20120-72693-00022-30000006D0001815D002590000683000002  GGSL
TXBWIC20120-72693-00029-20000005D0001575D000430000082100002  GGSL
TXBWIC20120-72693-00046-90000048D0002200D01222000124985      GGSL
TXBWIC20120-72693-00210-40000002D0000137D002220000082690021  GGSL
TXBWIC20120-72693-00480-10000258D0020001D026000041482002490  GGSL
TXBWIC20120-72693-00498-60000192D0007371D023360022082002489  GGSL
TXBWIC20120-72693-00505-10000348D0004870D042240032482002488  GGSL
TXBWIC20120-72693-00993-60000001D0000032D000110000082100099  GGSL
TXBWIC20120-72693-01004-80000019D0000884D001910000082100100  GGSL
TXBWIC20120-72693-01020-80000006D0001328D004400000883014144  GGSL
TXBWIC20120-72693-02479-30000060D0000305D0284400012CSI2479   GGSL
TXBWIC20120-72693-02504-20000090D0001038D00843001082504.0    GGSL
TXBWIC20120-72693-02506-60001035D0016266D06204000132506.0    GGSL
TXBWIC20120-72693-02507-30000107D0015253D00759000122507.0    GGSL
TXBWIC20120-72693-02686-50000042D0001259D0133200000CSI2686   GGSL
TXBWIC20120-72693-02750-30000001D0000039D0011000000CSI2750   GGSL
TXBWIC20120-72693-03052-70000012D0000607D000660000082300305  GGSL
TXBWIC20120-72693-03143-20000006D0000055D001620000082300314  GGSL
TXBWIC20120-72693-03154-80000018D0000212D005160000082300315  GGSL
TXBWIC20120-72693-03164-70000012D0000109D000590000082300316  GGSL
TXBWIC20120-72693-03174-60000006D0000061D001110000082300317  GGSL
TXBWIC20120-72693-03194-40000006D0000174D001080000082300319  GGSL
TXBWIC20120-72693-03254-50000001D0000063D0046000000CSI3254   GGSL
TXBWIC20120-72693-03284-20000066D0000469D001920000682300328  GGSL
TXBWIC20120-72693-03298-90000016D0001168D002850000082300329  GGSL
TXBWIC20120-72693-03395-50000003D0000573D000350000082300339  GGSL
TXBWIC20120-72693-03598-00000754D0027086D0813401208CSI3598   GGSL
TXBWIC20120-72693-03599-70000441D0041895D056810026082003599  GGSL
TXBWIC20120-72693-04320-60000296D0010050D13016015404320      GGSL
TXBWIC20120-72693-04430-20001653D0026125D04617004564430.0    GGSL
TXBWIC20120-72693-04431-90000518D0011394D03891003364431.0    GGSL
TXBWIC20120-72693-04432-60000938D0029940D13683003734432      GGSL
TXBWIC20120-72693-04435-70000813D0030373D067440004882004435  GGSL
TXBWIC20120-72693-04438-80001707D0025207D17884000444438      GGSL
TXBWIC20120-72693-04491-30000204D0001370D01197000244491      GGSL
TXBWIC20120-72693-04493-70000120D0002055D00959000004493      GGSL
TXBWIC20120-72693-04500-20000019D0001140D000300001082304500  GGSL
TXBWIC20120-72693-04504-00000400D0009320D02390000484505.0    GGSL
TXBWIC20120-72693-04505-70000174D0012521D04842000294506.0    GGSL
TXBWIC20120-72693-04506-40000327D0005168D02710000244504      GGSL
TXBWIC20120-72693-04964-20008539D0077900D33990037624964      GGSL
TXBWIC20120-72693-05004-40000960D0004651D02880002885004      GGSL
TXBWIC20120-72693-05005-10000810D0009665D03042002285005      GGSL
TXBWIC20120-72693-05007-50000204D0005505D01195001585007.0    GGSL
TXBWIC20120-72693-05200-00000340D0003343D016160056830466.0   GGSL
TXBWIC20120-72693-05201-70000708D0003684D03432000965201      GGSL
TXBWIC20120-72693-05202-40000552D0006867D03990000545202      GGSL
TXBWIC20120-72693-06002-90000414D0004195D0538200486MART4318  GGSL
TXBWIC20120-72693-06003-60000248D0005627D0319100120MART4319  GGSL
TXBWIC20120-72693-08300-40000469D0019473D05554000508300.0    GGSL
TXBWIC20120-72693-10002-20000004D0000050D000420000010002.0   GGSL
TXBWIC20120-72693-10011-40000228D0001431D0210000216MART4317  GGSL
TXBWIC20120-72693-10116-60000012D0000108D009360000082210016  GGSL
TXBWIC20120-72693-14057-80000182D0012740D010230000883014005  GGSL
TXBWIC20120-72693-20038-80000038D0010102D000040000083080147  GGSL
TXBWIC20120-72693-21037-00000072D0000378D002520003682021037  GGSL
TXBWIC20120-72693-24010-00000041D0001285D00306000032401      GGSL
TXBWIC20120-72693-24030-80000083D0006377D01052000042403      GGSL
TXBWIC20120-72693-24957-80000012D0000067D006060000082002495  GGSL
TXBWIC20120-72693-29101-00000050D0002750D005440005183012910  GGSL
TXBWIC20120-72693-29912-20000646D0006845D0431500180QP12991   GGSL
TXBWIC20120-72693-31550-10000006D0000990D000930000382300332  GGSL
TXBWIC20120-72693-31766-60000012D0000174D009550003631766     GGSL
TXBWIC20120-72693-31866-30000006D0000104D000300000031866.0   GGSL
TXBWIC20120-72693-31973-80000053D0001364D005870012231973.0   GGSL
TXBWIC20120-72693-31975-20000010D0000616D004120000231975.0   GGSL
TXBWIC20120-72693-31984-40001023D0008559D046090036031984.0   GGSL
TXBWIC20120-72693-31985-10000180D0001634D064590022831985     GGSL
TXBWIC20120-72693-33655-10000008D0000252D000000002083013365  GGSL
TXBWIC20120-72693-33688-90000019D0001389D004610001583013368  GGSL
TXBWIC20120-72693-33850-00000017D0001788D005980001183013385  GGSL
TXBWIC20120-72693-33953-80000139D0005120D0278000060          GGSL
TXBWIC20120-72693-34530-00000001D0000083D000210000283013453  GGSL
TXBWIC20120-72693-36208-60000019D0000783D005360003083013620  GGSL
TXBWIC20120-72693-40010-80000043D0006488D000960000183014003  GGSL
TXBWIC20120-72693-40127-30000048C0006488C002920000183014012  GGSL
TXBWIC20120-72693-40177-80000180D0000934D04353000724017B     GGSL
TXBWIC20120-72693-44290-00000826D0009205D01073002074429      GGSL
TXBWIC20120-72693-44410-20000954D0030017D04375002284441.0    GGSL
TXBWIC20120-72693-44430-00000157D0017244D0171100036MART4443  GGSL
TXBWIC20120-72693-44650-20000060D0001129D00471000004465.0    GGSL
TXBWIC20120-72693-44660-10000012D0000645D00128000044466.0    GGSL
TXBWIC20120-72693-45000-40000312D0001873D02193000964500.0    GGSL
TXBWIC20120-72693-45010-30000480D0004128D02048001084501      GGSL
TXBWIC20120-72693-45020-20000492D0006625D02460001444502      GGSL
TXBWIC20120-72693-45030-10000009D0000447D00238000004503.0    GGSL
TXBWIC20120-72693-46930-30000424D0003385D01760002404693      GGSL
TXBWIC20120-72693-46950-10000164D0004230D00538000244695      GGSL
TXBWIC20120-72693-46970-90000489D0071342D01023000604697.0    GGSL
TXBWIC20120-72693-50064-80000852D0005963D061320049282005006  GGSL
TXBWIC20120-72693-69370-80000012D0000083D003480002482690037  GGSL
TXBWIC20120-72693-70004-80000012D0000120D003000000082770008  GGSL
TXBWIC20120-72693-77034-80000037D0000389D008170000082770003  GGSL
TXBWIC20120-72693-82104-00000185D0006089D078250043382100005  GGSL
TXBWIC20120-72693-82303-70000096D0000502D013080016882300001  GGSL
TXBWIC20120-72693-83016-50000008D0000414D000000000083000011  GGSL
TXBWIC20120-72711-60018-30000002D0000081D000540000060012     GGSL
TXBWIC20120-72725-00023-80000032D0000448D0028000012HBB-128   GGSL
TXBWIC20120-72725-00183-90000036D0000504D0010200006BLKBB-326 GGSL
TXBWIC20120-72725-00213-30000012D0000090D0014700000BLKBB16A  GGSL
TXBWIC20120-72725-00259-10000024D0000097D0000000396CR32      GGSL
TXBWIC20120-72725-00269- 0000036D0000123D0000000000HRG-2     GGSL
TXBWIC20120-72725-00269-00000081D0000400D0044400492DE-FG105P GGSL
TXBWIC20120-72725-00282-90000024D0000147D0000000000EMT-LIVE  GGSL
TXBWIC20120-72725-00407-60000024D0000172D0070800012DE-FG2P   GGSL
TXBWIC20120-72725-00408-30000040D0000366D0056800336DE-FG4P   GGSL
TXBWIC20120-72725-00432-80000008D0000049D0000000000ST-LIVE   GGSL
TXBWIC20120-72725-00498-40000012D0000096D0000000000GOLDBB-P4 GGSL
TXBWIC20120-72868-00000-00000576D0000407D0585600096M330      GGSL
TXBWIC20120-72868-00201-40000108D0000150D0000000120M201      GGSL
TXBWIC20120-72868-00300-40000936D0002791D0045600072M6006     GGSL
TXBWIC20120-72868-00326-40007452D0010399D3488400120M326      GGSL
TXBWIC20120-72868-00800-90000408D0003189D0163200102M6009     GGSL
TXBWIC20120-72868-00914-30000006D0000018D0000000000M914      GGSL
TXBWIC20120-72868-02000-10000024D0000343D0002400000M9015     GGSL
TXBWIC20120-72868-02220-30000136D0000838D0143200040M6004     GGSL
TXBWIC20120-72868-02300-20000006D0000041D0005400000M7001-1   GGSL
TXBWIC20120-72868-02400-90000036D0000408D0018800008M7002-2   GGSL
TXBWIC20120-72868-03620-00000056D0004249D0026500026VP362     GGSL
TXBWIC20120-72868-03630-90000056D0000401D0158800024VP363     GGSL
TXBWIC20120-72868-03648-40000357D0003101D0399200211VP364B    GGSL
TXBWIC20120-72868-09012-70000018D0000329D0003000000M9012     GGSL
TXBWIC20120-72868-09320-30002592D0000485D7963200072M320      GGSL
TXBWIC20120-72868-11751-00000198D0000956D0043200036M751K     GGSL
TXBWIC20120-72868-13035-90000708D0000599D0589200120M035      GGSL
TXBWIC20120-72868-13200-10001356D0001853D0450001104200R      GGSL
TXBWIC20120-72868-13308-40000236D0002247D0075600024M308      GGSL
TXBWIC20120-72868-13309-10017208D0003073D1570401584M309      GGSL
TXBWIC20120-72868-13325-10019944D0007484D8748002736M325      GGSL
TXBWIC20120-72868-13327-50002700D0000437D1635000000M327      GGSL
TXBWIC20120-72868-13362-60000001D0000004D0001700002M362      GGSL
TXBWIC20120-72868-24178-90000001D0000045D0009600000M241      GGSL
TXBWIC20120-72868-54002-80001272D0001665D0070800408M668      GGSL
TXBWIC20120-72868-54102-50000984D0001484D0000000048M669      GGSL
TXBWIC20120-72874-06464-80000024D0000042D00000002888412M     GGSL
TXBWIC20120-72874-06465-50000564D0000988D01056000848412L     GGSL
TXBWIC20120-72874-06466-20000336D0000588D00396000848412X     GGSL
TXBWIC20120-72874-06484-60000252D0000442D00468006248412B     GGSL
TXBWIC20120-72874-06946-90000072D0000158D00168000848438XS    GGSL
TXBWIC20120-72874-06947-60000108D0000237D00372001808438S     GGSL
TXBWIC20120-72874-06948-30000108D0000237D00192002288442X     GGSL
TXBWIC20120-72874-06949-00000024D0000071D00000003488442L     GGSL
TXBWIC20120-72874-06950-60000084D0000184D00180002408442M     GGSL
TXBWIC20120-72874-07747-10000144D0000316D00336002528438L     GGSL
TXBWIC20120-72874-08550-60000018D0000093D00054000004063L     GGSL
TXBWIC20120-72874-08551-30000018D0000093D00054000004063X     GGSL
TXBWIC20120-72874-08646-60000006D0000014D00000000008433      GGSL
TXBWIC20120-72874-40110-80000012D0000014D00084000124011      GGSL
TXBWIC20120-72874-40200-60000360D0000267D00000000124020L     GGSL
TXBWIC20120-72874-40206-80000024D0000019D00000000124020B     GGSL
TXBWIC20120-72874-40674-50000072D0000693D00000000004067L     GGSL
TXBWIC20120-72874-40675-20000048D0000481D00000000004067X     GGSL
TXBWIC20120-72874-40940-10000024D0000098D00036000004094L     GGSL
TXBWIC20120-72874-40945-60000192D0000735D00108000004094J     GGSL
TXBWIC20120-73035-01310-90000012D0000056D000240069601310     GGSL
TXBWIC20120-73035-02612-30000320D0000122D000000016002612     GGSL
TXBWIC20120-73035-06002-80000024D0000018D000240000006001     GGSL
TXBWIC20120-73035-09226-50000006D0000041D000300000009226     GGSL
TXBWIC20120-73035-09364-40000038C0000041C000000001809364     GGSL
TXBWIC20120-73035-25001-60000108D0000138D000000011205031T    GGSL
TXBWIC20120-73561-00022-20000636D0002683D00900003662000221   GGSL
TXBWIC20120-73561-00028-40000552D0004035D00906000481000283   GGSL
TXBWIC20120-73561-00042-00001428D0006382D10674004442000422   GGSL
TXBWIC20120-73561-00044-40000246D0001760D00300000061000441   GGSL
TXBWIC20120-73561-00055-00001194D0003164D00198001141000551   GGSL
TXBWIC20120-73561-00070-30000312D0001340D00168000241000701   GGSL
TXBWIC20120-73561-00099-40000714D0001649D03930000842000992   GGSL
TXBWIC20120-73561-00119-90000136D0002888D00128000081001193   GGSL
TXBWIC20120-73561-00150-20000372D0001628D00372000543001502   GGSL
TXBWIC20120-73561-00183-00000096D0001081D00030000061001834   GGSL
TXBWIC20120-73561-00190-80000120D0000350D0003600102100195    GGSL
TXBWIC20120-73561-00192-20000306D0001457D01092000481001921   GGSL
TXBWIC20120-73561-00199-10000528D0001460D00696003361001991   GGSL
TXBWIC20120-73561-00252-30001464D0001331D00984012001002522   GGSL
TXBWIC20120-73561-00404-60000012D0000068D00012000001004043   GGSL
TXBWIC20120-73561-00410-70000648D0006206D00582002341004102   GGSL
TXBWIC20120-73561-00432-90000222D0002484D00150000061004325   GGSL
TXBWIC20120-73561-00440-40000018D0000114D00060000001004402   GGSL
TXBWIC20120-73561-00475-60000006D0000046D00006000061004751   GGSL
TXBWIC20120-73561-00531-90000732D0001917D00168002401000532   GGSL
TXBWIC20120-73561-00590-60000174D0000448D00198000361005901   GGSL
TXBWIC20120-73561-00720-70000414D0001260D0009000090100720    GGSL
TXBWIC20120-73561-00831-00000005D0000027D00010000001008311   GGSL
TXBWIC20120-73561-01560-80000066D0000251D0003000036101560    GGSL
TXBWIC20120-73561-01611-70000108D0001192D00060000181016111   GGSL
TXBWIC20120-73561-03836-20000018D0000207D00120000061038361   GGSL
TXBWIC20120-73561-10114-10000279D0003170D00188000001011410   GGSL
TXBWIC20120-73561-30019-30000471D0050177D01452001443001910   GGSL
TXBWIC20120-73561-30022-30002400D0022759D00000000003002230   GGSL
TXBWIC20120-73561-30025-40000006D0000027D00000000003002510   GGSL
TXBWIC20120-73561-30027-80000006D0000057D00006000003002710   GGSL
TXBWIC20120-73561-30029-20000012D0000114D00000000003002910   GGSL
TXBWIC20120-73561-30034-60000006D0000055D00048000003003410   GGSL
TXBWIC20120-73561-30035-30000012D0000110D00150000003003510   GGSL
TXBWIC20120-73561-30036-00000012D0000068D00156000003003610   GGSL
TXBWIC20120-73561-30037-70000048D0000214D00008000003003710   GGSL
TXBWIC20120-73561-30053-70000006D0000038D00000000003005310   GGSL
TXBWIC20120-73561-30054-40000012D0000066D00000000003005410   GGSL
TXBWIC20120-73561-30055-10000024D0000216D00000000003005510   GGSL
TXBWIC20120-73561-30057-50000006D0000058D00006000003005710   GGSL
TXBWIC20120-73561-30059-90000006D0000058D00000000003005910   GGSL
TXBWIC20120-73561-30068-10000420D0001382D00000000003006806   GGSL
TXBWIC20120-73561-30098-80000006D0000076D00030000003009810   GGSL
TXBWIC20120-73561-36001-20001032D0003028D02532005281360011   GGSL
TXBWIC20120-73561-37841-30000006D0000023D00000000003784101   GGSL
TXBWIC20120-73561-46001-90000324D0002892D0042000246146002    GGSL
TXBWIC20120-73561-48510-40002580D0013533D00894000124851012   GGSL
TXBWIC20120-73561-48520-30001560D0008201D00357000244852012   GGSL
TXBWIC20120-73561-60101-60003648D0011015D1101000816160101    GGSL
TXBWIC20120-73561-70101-30001290D0010597D0356400390170101    GGSL
TXBWIC20120-73561-75001-10000816D0002437D01650000061750011   GGSL
TXBWIC20120-73561-85001-80000126D0001142D00336000001850011   GGSL
TXBWIC20120-73889-10004-80000183D0000897D01432005041273      GGSL
TXBWIC20120-74514-57625-20000003D0000009D0046200000HG-95715  GGSL
TXBWIC20120-76807-00020-80000192D0000117D028080004846310     GGSL
TXBWIC20120-76807-00050-50000384D0000537D025440000046100     GGSL
TXBWIC20120-76807-12400-30000006D0000173D000240000046140     GGSL
TXBWIC20120-76807-61110-70000012D0000057D001490002461110     GGSL
TXBWIC20120-77625-44906-40000002D0000020D0000000006449-2     GGSL
TXBWIC20120-77625-81082-60000020D0000250D00346000008108-2    GGSL
