NJARET2112 -82155-96190-20000080D0001143D0013100027GXP158CC  GGSL
NJARET21120-03831-30083-70000018D0000586D0000400002BP6250    GGSL
NJARET21120-10367-00001-80000030D0000125D00020000090001      GGSL
NJARET21120-10367-00430-60000001D0000103D00000000000430      GGSL
NJARET21120-10367-00460-30000032D0000199D000000000104608     GGSL
NJARET21120-10367-00560-00000176D0000743D000380003805608     GGSL
NJARET21120-10367-01020-80000060D0001037D00002000031020      GGSL
NJARET21120-10367-01050-50000012D0000151D00003000011050      GGSL
NJARET21120-10367-01110-60000152D0000596D00065000111110      GGSL
NJARET21120-10367-01111-30000088D0000345D00049000071111      GGSL
NJARET21120-10367-01112-00000088D0000345D00049000111112      GGSL
NJARET21120-10367-01120-50000192D0000753D00078000291120      GGSL
NJARET21120-10367-01121-20000184D0001083D00018000181121      GGSL
NJARET21120-10367-01122-90000184D0001083D00028000141122      GGSL
NJARET21120-10367-01130-40000104D0000667D00040000211130      GGSL
NJARET21120-10367-01140-30000080D0000311D00035000041140      GGSL
NJARET21120-10367-01151-90000088D0000306D00031000081151      GGSL
NJARET21120-10367-01230-10000024D0000097D00008000001230      GGSL
NJARET21120-10367-01240-00000012D0000071D00016000011240      GGSL
NJARET21120-10367-02121-10000016D0000076D0000200002ML2121    GGSL
NJARET21120-10367-02131-00000008D0000038D0000000000ML2131    GGSL
NJARET21120-10367-02141-90000016D0000076D0000100001ML2141    GGSL
NJARET21120-10367-03020-60000024D0000143D0000600002ML3020    GGSL
NJARET21120-11192-60612-30000016D0000148D0000100000KGFH      GGSL
NJARET21120-11423-00402-50000006D0000031D0000500000HG402000  GGSL
NJARET21120-12587-60034-40000308D0002350D000000000060034     GGSL
NJARET21120-12587-60035-10000248D0001921D000760000060035     GGSL
NJARET21120-12587-70022-80000048D0000232D002820000070022     GGSL
NJARET21120-12587-70028-00000048D0000242D003540000070028     GGSL
NJARET21120-12587-70054-90000036D0000174D000340000070054     GGSL
NJARET21120-12587-70419-60000060D0000318D003100000070419     GGSL
NJARET21120-12587-78361-00000024D0000183D000540000078361     GGSL
NJARET21120-12587-78362-70000036D0000280D000460000078362     GGSL
NJARET21120-14021-01418-20000096D0000442D00002000001024      GGSL
NJARET21120-14306-92838-80000006D0000163D0000300000US804688  GGSL
NJARET21120-14400-61000-40000007D0000076D000130001361000     GGSL
NJARET21120-14400-67000-80000002D0000029D000000000067000     GGSL
NJARET21120-14400-68100-40000001D0000013D000030000168100ZFP  GGSL
NJARET21120-14400-80400-70000003D0000021D00005000001440080400GGSL
NJARET21120-14400-81200-20000001D0000011D00004000001440081200GGSL
NJARET21120-15829-18487-90000006D0000251D000000000018487     GGSL
NJARET21120-16069-00001-10000012D0000091D0000300000NESR      GGSL
NJARET21120-16069-00002-80000012D0000091D0000500000NEOR      GGSL
NJARET21120-16069-00005-90000072D0000548D0012200038TP15C     GGSL
NJARET21120-16069-00007-30000240D0001668D0017800070BN1       GGSL
NJARET21120-16069-00008-00000276D0001965D0022700069BN2       GGSL
NJARET21120-16069-00013-40000054D0001625D0008200027BN3       GGSL
NJARET21120-16069-00014-10000054D0001236D0005100016BN4       GGSL
NJARET21120-16069-00015-80000018D0000550D0003400005BN5       GGSL
NJARET21120-16069-00019-60000024D0000293D0005900009TP30C     GGSL
NJARET21120-16069-00030-10000042D0000582D0015300132OW6       GGSL
NJARET21120-16069-00032-50000084D0000947D0006500011HG25      GGSL
NJARET21120-16069-00033-20000030D0000677D0003100003HG50      GGSL
NJARET21120-16069-00038-70000048D0000468D0017600020GF1015    GGSL
NJARET21120-16069-00047-90000036D0000274D0000400002TE12C     GGSL
NJARET21120-16069-00049-30001674D0033195D0022200041DX7       GGSL
NJARET21120-16069-00050-90000048D0001465D0003800003DX14      GGSL
NJARET21120-16069-00060-80000090D0000273D0001300004RAP15     GGSL
NJARET21120-16069-00072-10000072D0000508D0003500011TSD12     GGSL
NJARET21120-16069-00076-90000054D0000370D0005300002PN10      GGSL
NJARET21120-16069-00077-60000012D0000137D0012800007PN14      GGSL
NJARET21120-16069-00110-00000015D0000257D0000500005PF3       GGSL
NJARET21120-16069-00153-70000020D0000214D0000000000SWC50     GGSL
NJARET21120-16069-00204-60000028D0000396D0000100000WS2050    GGSL
NJARET21120-16069-00218-30000036D0000219D0000500001HST100    GGSL
NJARET21120-16069-00306-70000040D0000509D0000700000WS1050    GGSL
NJARET21120-16069-00358-60000003D0000229D0000100000GS51000   GGSL
NJARET21120-16069-00365-40000009D0000142D0001700000PIN9      GGSL
NJARET21120-16069-00393-70000120D0000457D0006600024GS20      GGSL
NJARET21120-16069-00394-40000002D0000108D0002600002PN45      GGSL
NJARET21120-16069-00436-10000045D0000126D0003700014TWST100   GGSL
NJARET21120-16069-00446-00000008D0000092D0001600002RC168W    GGSL
NJARET21120-16069-00474-30000120D0000809D0002300004GS40BW    GGSL
NJARET21120-16069-00478-10000544D0024023D0008000069SRHO4     GGSL
NJARET21120-16069-00479-80000060D0001595D0007300006E316B     GGSL
NJARET21120-16069-00480-40000048D0000246D0003500007SPT15     GGSL
NJARET21120-16069-00486-60000024D0000274D0000900004GS675     GGSL
NJARET21120-16069-00494-10000028D0000280D0001300000GFST4050  GGSL
NJARET21120-16069-00498-90000048D0000554D0017800010HGP1012   GGSL
NJARET21120-16069-00499-60000048D0000924D0014200002HGP1020   GGSL
NJARET21120-16069-00504-70000030D0000063D0000900004TG130W    GGSL
NJARET21120-16069-00518-40000072D0000369D0001500006SG2512    GGSL
NJARET21120-16069-00550-40000020D0000280D0002800007TRWTW     GGSL
NJARET21120-16069-00585-60000012D0000073D0000000000DCLLF412  GGSL
NJARET21120-16069-00622-80000012D0000051D0001600005CP612     GGSL
NJARET21120-16069-00626-60000010D0000065D0000300002PTG210    GGSL
NJARET21120-16069-00667-90000072D0001611D0026100209RH04US    GGSL
NJARET21120-17500-08120-00000288D0000405D000910000508120     GGSL
NJARET21120-17500-08150-70001800D0002862D002390009508150     GGSL
NJARET21120-17500-90206-20000066D0001683D001490003090206     GGSL
NJARET21120-17500-91316-70000006D0000151D000310000391316     GGSL
NJARET21120-17500-91334-10000004D0000116D000430000491334     GGSL
NJARET21120-17500-95204-30000012D0000273D000210000195204     GGSL
NJARET21120-18222-00101-90000546D0001660D0004900019CS06101   GGSL
NJARET21120-18222-00103-30000102D0000332D0002900015CS06103   GGSL
NJARET21120-18222-00105-70000642D0002043D0006400029CS06105   GGSL
NJARET21120-18222-00107-10000120D0000546D0004000001CS06107   GGSL
NJARET21120-18222-00109-50000606D0001860D0007000018CS06109   GGSL
NJARET21120-18222-00110-10000114D0000368D0003600011CS06110   GGSL
NJARET21120-18222-00206-10000042D0000206D0001400000CS06206   GGSL
NJARET21120-18222-00208-50000048D0000238D0000400000CS06208   GGSL
NJARET21120-18222-00213-90000012D0000051D0001700007CS06213   GGSL
NJARET21120-18222-00226-90000004D0000012D0003200000CS04226   GGSL
NJARET21120-18222-00405-80000008D0000071D0000000000CS01405   GGSL
NJARET21120-18222-00501-70001176D0001964D0007100012CS12501   GGSL
NJARET21120-18222-00503-10000312D0000733D0001100008CS503     GGSL
NJARET21120-18222-00505-50000744D0000905D0004400014CS12505   GGSL
NJARET21120-18222-00507-90000480D0000696D0003200004CS12507   GGSL
NJARET21120-18222-00509-30001284D0001913D0005200019CS12509   GGSL
NJARET21120-18222-00513-00000120D0000289D0000000000CS12513   GGSL
NJARET21120-18222-00526-00000804D0002460D0011700049CS06526   GGSL
NJARET21120-18222-00527-70001512D0002264D0006100002CS12527   GGSL
NJARET21120-18222-00529-10000132D0000261D0004500000CS12529   GGSL
NJARET21120-18222-00531-40000180D0000428D0003700004CS12531   GGSL
NJARET21120-18222-00535-20000132D0000218D0000900000CS12535   GGSL
NJARET21120-18222-00543-70000048D0000058D0001500002CS12543   GGSL
NJARET21120-18222-00545-10000084D0000155D0001500000CS12545   GGSL
NJARET21120-18222-00549-90000024D0000055D0000600000CS12549   GGSL
NJARET21120-18222-00553-60002184D0003587D0008600018CS12553   GGSL
NJARET21120-18222-00559-80000936D0001343D0007200008CS12559   GGSL
NJARET21120-18222-00561-10000024D0000043D0002100000CS12561   GGSL
NJARET21120-18222-00563-50001056D0001695D0002900001CS12563   GGSL
NJARET21120-18222-00565-90000180D0000381D0003300003CS12565   GGSL
NJARET21120-18222-00566-60000072D0000147D0001500000CS12566   GGSL
NJARET21120-18222-00569-70001944D0003450D0005600011CS12569   GGSL
NJARET21120-18222-00583-30001032D0002213D0004500015CS12583   GGSL
NJARET21120-18222-00608-30000120D0000457D0000600000CS608     GGSL
NJARET21120-18222-00610-60000048D0000230D0000400001CS610     GGSL
NJARET21120-18222-00680-90000024D0000059D0000900000CS12680   GGSL
NJARET21120-18222-00689-20000012D0000031D0000200000CS12689   GGSL
NJARET21120-18222-00701-10000336D0000642D0006400034CS701     GGSL
NJARET21120-18222-00707-30000144D0000467D0002300001CS707     GGSL
NJARET21120-18222-00709-70000072D0000365D0001400001CS709     GGSL
NJARET21120-18222-00727-10000012D0000081D0000200000CS727     GGSL
NJARET21120-18222-00730-10001552D0002981D0005600023CS730     GGSL
NJARET21120-18222-00749-30000036D0000211D0000600002CS749     GGSL
NJARET21120-18222-00750-90000012D0000131D0000400000CS750     GGSL
NJARET21120-18222-00753-00000064D0000330D0002000008CS753     GGSL
NJARET21120-18222-00755-40000072D0000256D0001200003CS755     GGSL
NJARET21120-18222-00767-70000006D0000032D0000800000CS06767   GGSL
NJARET21120-18222-00807-00000018D0000048D0000600000CS06807   GGSL
NJARET21120-18222-00853-70000006D0000020D0001100000CS06853   GGSL
NJARET21120-18222-00905-30000006D0000012D0000500000CS06905   GGSL
NJARET21120-18222-00907-70000016D0000047D0000600000CS08907   GGSL
NJARET21120-18222-00908-40000008D0000029D0000600000CS08908   GGSL
NJARET21120-18222-00950-30000024D0000028D0003700000CS950     GGSL
NJARET21120-18222-00951-00000016D0000064D0001100001CS08951   GGSL
NJARET21120-18222-00954-10000016D0000090D0001100000CS08954   GGSL
NJARET21120-18222-01967-00000006D0000012D0000400000CS06967   GGSL
NJARET21120-18222-02501-50000015D0000151D0000400000CSV08501NLGGSL
NJARET21120-18222-50501-20000072D0000089D0008700000CS1250501XGGSL
NJARET21120-18222-50527-20000084D0000102D0007300010CS1250527XGGSL
NJARET21120-18222-50559-30000048D0000060D0007200005CS1250559XGGSL
NJARET21120-18222-50561-60000002D0000003D0000100000CS1250561 GGSL
NJARET21120-18506-00102-50000156D0000680D000610000510212     GGSL
NJARET21120-18506-00110-00000180D0001339D007770001211012     GGSL
NJARET21120-18506-00110-00000002D0000000D00000000003105      GGSL
NJARET21120-18506-00116-20000036D0000252D002270004711612     GGSL
NJARET21120-18506-00125-40000072D0000368D0003100000125       GGSL
NJARET21120-18506-00130-80000024D0000136D0006200001130       GGSL
NJARET21120-18506-00135-30000006D0000089D0001400001135       GGSL
NJARET21120-18506-02001-90000012D0000137D00008000012001      GGSL
NJARET21120-19200-00095-60000018D0000047D001840000000027     GGSL
NJARET21120-19200-00619-40000132D0000453D010540000700706     GGSL
NJARET21120-19200-78033-90000066D0000297D00134000001920078033GGSL
NJARET21120-19200-78626-30000027D0000071D002720000178626     GGSL
NJARET21120-19200-79838-90000018D0000093D001520000079838     GGSL
NJARET21120-19200-82043-10001448D0003560D001400000082043     GGSL
NJARET21120-19200-83721-70000060D0000154D000850000083721     GGSL
NJARET21120-19200-83722-40000004D0000012D003290000283722     GGSL
NJARET21120-19200-84251-80000030D0000245D000050000584251     GGSL
NJARET21120-19200-89973-40000004D0000072D000130000089973     GGSL
NJARET21120-19200-98665-60000048D0000213D000800000098665     GGSL
NJARET21120-19200-98666-30000024D0000147D000520000098666     GGSL
NJARET21120-19263-25010-70000010D0000768D00003000022501      GGSL
NJARET21120-19263-25030-50000032D0004440D00000000002503      GGSL
NJARET21120-19263-25035-00000012D0000366D0001200000250350    GGSL
NJARET21120-19263-25055-80000004D0000202D0000100001250550    GGSL
NJARET21120-19263-25170-80000005D0000124D00002000022517      GGSL
NJARET21120-19263-25180-70000002D0000125D00000000002518      GGSL
NJARET21120-19263-25500-30000150D0000249D00008000032550      GGSL
NJARET21120-19263-25510-20000800D0001720D00148000362551      GGSL
NJARET21120-19263-25520-10001200D0002976D00296000372552      GGSL
NJARET21120-19263-25530-00001900D0005415D00236000662553      GGSL
NJARET21120-19263-25540-90002325D0007835D00271000492554      GGSL
NJARET21120-19263-25550-80000600D0002574D00122000352555      GGSL
NJARET21120-19263-25680-20000004D0000078D00058000052568      GGSL
NJARET21120-19263-25750-20000096D0000645D00007000012575      GGSL
NJARET21120-19263-25760-10000276D0002338D00051000252576      GGSL
NJARET21120-19263-25770-00000225D0002898D00029000062577      GGSL
NJARET21120-19263-25780-90000195D0004511D00036000052578      GGSL
NJARET21120-19263-25941-40001000D0000060D00002000022594BK    GGSL
NJARET21120-19263-25950-60000612D0000728D00041000022595      GGSL
NJARET21120-19263-26050-20000100D0000138D00016000002605      GGSL
NJARET21120-19263-26190-50000054D0002585D00030000002619      GGSL
NJARET21120-19263-26210-00000096D0000899D00017000112621      GGSL
NJARET21120-19263-26280-30000001D0000031D00006000042628      GGSL
NJARET21120-19263-26290-20000001D0000035D00001000002629      GGSL
NJARET21120-19263-26300-80000504D0001215D00086000362630      GGSL
NJARET21120-19263-26310-70000768D0002173D00098000292631      GGSL
NJARET21120-19263-26310-70000576D0001624D00017000002633      GGSL
NJARET21120-19263-26340-40000144D0000363D00001000012634      GGSL
NJARET21120-19263-26560-60000064D0000921D00080000072656      GGSL
NJARET21120-19263-26580-40000048D0001002D00017000002658      GGSL
NJARET21120-19263-29100-10000001D0000164D00011000002910      GGSL
NJARET21120-19263-29130-80000001D0000164D00000000002913      GGSL
NJARET21120-21344-00321-20000016D0000621D0005200049WX15064   GGSL
NJARET21120-21344-00322-90000010D0000388D0003100027WX15065   GGSL
NJARET21120-21344-00339-70000006D0000941D0043200009400339    GGSL
NJARET21120-21344-00340-30000004D0000597D0065000006400340    GGSL
NJARET21120-21344-00344-10000012D0000108D0000400004400344    GGSL
NJARET21120-21344-00345-80000060D0000549D0003700005400345    GGSL
NJARET21120-21344-00346-50000066D0000592D0003900012400346    GGSL
NJARET21120-21344-00347-20000016D0000304D0001000008400347    GGSL
NJARET21120-21344-00348-90000028D0000524D0004000007400348    GGSL
NJARET21120-21344-00349-60000036D0000702D0011800012400349    GGSL
NJARET21120-21344-00350-20000020D0000401D0008400016400350    GGSL
NJARET21120-21344-00361-80000002D0000050D0002100021HQ74912297GGSL
NJARET21120-21344-00362-50000006D0000441D0014900003HQMUSH    GGSL
NJARET21120-21344-00380-90000003D0000558D0004200000JFG18026  GGSL
NJARET21120-21344-00383-00000003D0000557D0000100000JFG18024  GGSL
NJARET21120-21344-00384-70000008D0000411D0003300002JFG18013  GGSL
NJARET21120-21344-00386-10000030D0001509D0001800009JFG18011B GGSL
NJARET21120-21344-00387-80000006D0000205D0003200003JFG18012  GGSL
NJARET21120-21344-00389-20000040D0000578D0004700006JFG18004  GGSL
NJARET21120-21344-00391-50000008D0000288D0005200003JFG18010B GGSL
NJARET21120-21344-00392-20000060D0000476D0003000005JFG18002  GGSL
NJARET21120-21344-00393-90000066D0002200D0000700005JFG18008A GGSL
NJARET21120-21344-00394-60000006D0000154D0000900000JFG18008ASGGSL
NJARET21120-21344-00395-30000044D0001365D0002000009JFG18006  GGSL
NJARET21120-21344-00397-70000039D0002165D0005200016JFG18018  GGSL
NJARET21120-21344-00403-50000008D0000191D0006800007ZT152072  GGSL
NJARET21120-21344-00405-90000004D0000366D0002400022ZT185019  GGSL
NJARET21120-21344-00406-60000003D0000289D0001200005ZT185024  GGSL
NJARET21120-21344-00407-30000004D0000526D0008500010ZT185016  GGSL
NJARET21120-21344-00409-70000036D0000220D0006300034ZT185018  GGSL
NJARET21120-21344-00411-00000008D0000310D0007200005ZT185021  GGSL
NJARET21120-21344-00413-40000024D0000045D0009100001400413    GGSL
NJARET21120-21344-00414-10000024D0000043D0009600001400414    GGSL
NJARET21120-21344-00415-80000024D0000042D0010200001400415    GGSL
NJARET21120-21344-00416-50000024D0000042D0009600001400416    GGSL
NJARET21120-21344-00421-90000024D0000069D0010600001400421    GGSL
NJARET21120-21344-00422-60000008D0000277D0006700005ZT185023  GGSL
NJARET21120-21344-00423-30000174D0022529D0161500485WX17658   GGSL
NJARET21120-21344-00718-00000036D0000892D0012100035WX17422   GGSL
NJARET21120-21344-00719-70000054D0001338D0008800021WX17413   GGSL
NJARET21120-21344-00720-30000060D0001321D0007400041WX17409   GGSL
NJARET21120-21344-00723-40000084D0002303D0010100060WX17402   GGSL
NJARET21120-21344-00724-10000001D0000092D0000600004WXRACK20  GGSL
NJARET21120-21344-00730-20000012D0000210D0000000000BN19193   GGSL
NJARET21120-21344-00732-60000012D0000210D0000000000BN19187   GGSL
NJARET21120-21344-00733-30000012D0000210D0000000000BN19188   GGSL
NJARET21120-21344-00735-70000012D0000306D0004500007WX17577RV GGSL
NJARET21120-21344-00736-40000024D0000612D0004600005WX17578RV GGSL
NJARET21120-21344-00740-10000004D0000171D0002200021WX17818   GGSL
NJARET21120-21344-00745-60000024D0000312D0015500005YS19006   GGSL
NJARET21120-21344-00746-30000020D0000351D0016400007YS19L005  GGSL
NJARET21120-21344-00747-00000016D0000281D0017700009YS19L004  GGSL
NJARET21120-21344-00748-70000024D0000327D0017100031YS19S002  GGSL
NJARET21120-21344-00749-40000016D0000218D0015900026YS19S003  GGSL
NJARET21120-21344-00750-00000028D0000382D0011500019YS19S001  GGSL
NJARET21120-21344-00762-30000027D0003536D0016600028FDBH1901  GGSL
NJARET21120-21344-00762-30000010D0001495D0002000003MG18387RV GGSL
NJARET21120-21344-00765-40000013D0001365D0007700011MG18390   GGSL
NJARET21120-21344-00766-10000011D0001540D00046000024007661   GGSL
NJARET21120-21344-00774-60000002D0000091D0000500005WX17800   GGSL
NJARET21120-21344-00775-30000008D0000374D0001500013WX17802   GGSL
NJARET21120-21344-00779-10000003D0000068D0002700004JFG19058B GGSL
NJARET21120-21344-00781-40000001D0000060D0001100004MG18397RV GGSL
NJARET21120-21344-00785-20000002D0000040D0004400007BN19294   GGSL
NJARET21120-21344-00795-10000009D0001502D0002700009MG18389   GGSL
NJARET21120-21344-00799-90000036D0000386D0002400023HS190061C GGSL
NJARET21120-21344-00800-20000012D0000129D0003300027HS190061B GGSL
NJARET21120-21344-00802-60000008D0000105D0002000016HS190058C GGSL
NJARET21120-21344-00804-00000008D0000105D0003600015HS190058A GGSL
NJARET21120-21344-00805-70000006D0000080D0000700005HS190056  GGSL
NJARET21120-21344-00806-40000016D0000135D0006100014SSH18A025 GGSL
NJARET21120-21344-00807-10000024D0000336D0003000013SSH18A034 GGSL
NJARET21120-21344-00808-80000048D0000249D0002900015SSH18A024 GGSL
NJARET21120-21344-00813-20000013D0001614D00304000084008132   GGSL
NJARET21120-21344-00819-40000012D0000133D0001400003WX17931   GGSL
NJARET21120-21344-00821-70000024D0000265D0001800010WX17932   GGSL
NJARET21120-21344-00822-40000012D0000135D0000800005WX17930   GGSL
NJARET21120-21344-00824-80000012D0000128D0003300003WX17933   GGSL
NJARET21120-21344-00825-50000024D0000165D0003700002JFG18011BWGGSL
NJARET21120-21344-00826-20000048D0000374D0004800004JFG18011AWGGSL
NJARET21120-21344-00827-90000060D0000550D0002600003JFG18008AWGGSL
NJARET21120-21344-00828-60000036D0000234D0003600002JFG18008ACGGSL
NJARET21120-21344-00829-30000016D0000229D0009500007ZT197030  GGSL
NJARET21120-21344-00830-90000020D0000520D0007400006ZT197002  GGSL
NJARET21120-21344-00831-60000020D0000364D0010800007ZT197003  GGSL
NJARET21120-21344-00832-30000006D0000125D0005200015JFG19007B GGSL
NJARET21120-21344-00833-00000002D0000058D0007200004ZT197029  GGSL
NJARET21120-21344-00837-80000024D0000138D0024200000SK15020B  GGSL
NJARET21120-21344-00838-50000024D0000127D0047100003SK15008E  GGSL
NJARET21120-21344-00846-00000012D0001320D0017300026FDBH1902  GGSL
NJARET21120-21344-01159-00000018D0000165D0005100005BN19294S  GGSL
NJARET21120-21344-01160-60000006D0000121D0004600004BN19296   GGSL
NJARET21120-21344-01161-30000012D0000110D0006100006BN19296S  GGSL
NJARET21120-21344-01162-00000006D0000136D0004400002BN19297   GGSL
NJARET21120-21344-01163-70000006D0000059D0005600004BN19297S  GGSL
NJARET21120-21344-01164-40000002D0000041D0005500010BN19299   GGSL
NJARET21120-21344-01166-80000016D0000302D0005400007BN19300   GGSL
NJARET21120-21344-01167-50000006D0000053D0006100018BN19300S  GGSL
NJARET21120-21344-01168-20000016D0000358D0003000014BN19302   GGSL
NJARET21120-21344-01169-90000012D0000110D0003900010BN19302S  GGSL
NJARET21120-21344-01170-50000012D0001592D0001500003FDBH2001  GGSL
NJARET21120-21344-01171-20000002D0000135D0000200002HQ73482202GGSL
NJARET21120-21344-01174-30000002D0000137D0000400004HQ73483068GGSL
NJARET21120-21344-01178-10000004D0000270D0000000000HQ7575453 GGSL
NJARET21120-21344-01179-80000012D0000132D0000400004HS18MR0461GGSL
NJARET21120-21344-01180-40000012D0000191D0002500013HS18MR0463GGSL
NJARET21120-21344-01184-20000030D0000567D0009100007HS20134   GGSL
NJARET21120-21344-01185-90000018D0000308D0006100009HS20135   GGSL
NJARET21120-21344-01186-60000012D0000206D0005600014HS20136   GGSL
NJARET21120-21344-01187-30000024D0000338D0007700003HS20137   GGSL
NJARET21120-21344-01189-70000008D0000212D0009300023HS20HS0023GGSL
NJARET21120-21344-01190-30000004D0000077D0011200025HS20HS0024GGSL
NJARET21120-21344-01191-00000004D0000077D0013600008HS20HS0025GGSL
NJARET21120-21344-01192-70000028D0000678D0002400010HS20HS0026GGSL
NJARET21120-21344-01196-50000048D0001735D0025800024MG19632   GGSL
NJARET21120-21344-01197-20000022D0001001D0025200024MG19633   GGSL
NJARET21120-21344-01201-60000048D0000234D0001000009SSH19S094 GGSL
NJARET21120-21344-01203-00000008D0000150D0002900010SSH19S104 GGSL
NJARET21120-21344-01204-70000004D0000108D0000000000WX13253   GGSL
NJARET21120-21344-01205-40000012D0000325D0001100003WX13254   GGSL
NJARET21120-21344-01206-10000018D0000306D0000100001WX18811   GGSL
NJARET21120-21344-01207-80000030D0000507D0001000011WX18812   GGSL
NJARET21120-21344-01209-20000004D0000141D0003900019WX18814   GGSL
NJARET21120-21344-01211-50000004D0000141D0004600018WX18816   GGSL
NJARET21120-21344-01213-90000006D0000143D0000200002WX18820   GGSL
NJARET21120-21344-01214-60000012D0000286D0000700007WX18821   GGSL
NJARET21120-21344-01215-30000032D0004704D0030800083WX18824   GGSL
NJARET21120-21344-01216-00000028D0004777D0084900085WX18825   GGSL
NJARET21120-21344-01218-40000004D0000072D0000800007WX19198   GGSL
NJARET21120-21344-01219-10000002D0000089D0007600013WX19199   GGSL
NJARET21120-21344-01220-70000002D0000089D0009200016WX19200   GGSL
NJARET21120-21344-01221-40000004D0000093D0007800028WX19201   GGSL
NJARET21120-21344-01222-10000002D0000083D0011200001WX19203   GGSL
NJARET21120-21344-01223-80000006D0000249D0010700014WX19204   GGSL
NJARET21120-21344-01224-50000010D0000416D0007900022WX19205   GGSL
NJARET21120-21344-01225-20000004D0000214D0015900004WX19206   GGSL
NJARET21120-21344-01226-90000004D0000049D0008500009WX19256   GGSL
NJARET21120-21344-01227-60000004D0000049D0006200007WX19257   GGSL
NJARET21120-21344-01228-30000004D0000049D0004500005WX19258   GGSL
NJARET21120-21344-01237-50000021D0003489D0047800203WX19270   GGSL
NJARET21120-21344-01238-20000002D0000089D0007500023WX8561    GGSL
NJARET21120-21344-01240-50000012D0000181D0003400009WX86808283GGSL
NJARET21120-21344-01252-80000010D0000260D0007500005ZT207010B GGSL
NJARET21120-21344-01255-90000010D0000227D0010800000ZT207015  GGSL
NJARET21120-21344-01257-30000008D0000130D0010500008ZT207017B GGSL
NJARET21120-21344-01258-00000006D0000117D0007700025ZT207023A GGSL
NJARET21120-21344-01259-70000008D0000156D0009900018ZT207024A GGSL
NJARET21120-21344-01260-30000015D0001251D0025400021ZT207025  GGSL
NJARET21120-21344-01261-00000015D0001251D0025300025ZT207026  GGSL
NJARET21120-21344-01262-70000014D0001084D0030000027ZT207027  GGSL
NJARET21120-21344-01265-80000010D0001676D0032100003HR30701AA GGSL
NJARET21120-21344-01266-50000006D0000485D0055800003CU297     GGSL
NJARET21120-21344-01267-20000013D0002438D0043200029FP35      GGSL
NJARET21120-21344-01268-90000008D0000942D0030700011HR26182AA GGSL
NJARET21120-21344-01270-20000015D0000461D0020600028HS20153   GGSL
NJARET21120-21344-01273-30000003D0000590D0000100001WX17658A  GGSL
NJARET21120-21344-01274-00000004D0000734D0022500000JFA16020GHGGSL
NJARET21120-21344-01721-90000130D0001063D00011000096764      GGSL
NJARET21120-21344-01722-60000060D0000044D00005000065949      GGSL
NJARET21120-21344-01723-30000240D0000528D00013000136761      GGSL
NJARET21120-21344-01724-00001400D0001249D00062000626758      GGSL
NJARET21120-21344-01725-70000260D0000333D00023000236759      GGSL
NJARET21120-21344-01726-40000020D0000123D00022000036762      GGSL
NJARET21120-21964-10315-60000021D0000725D0005600013SQG       GGSL
NJARET21120-21964-10350-70000048D0001143D0017600165X1        GGSL
NJARET21120-21964-10360-60000054D0001428D0002300013W1        GGSL
NJARET21120-21964-10370-50000012D0000135D0000300003OWF       GGSL
NJARET21120-21964-10466-50000018D0000330D0001700005WH3       GGSL
NJARET21120-21964-10485-60000024D0000248D0001900003RS3HC     GGSL
NJARET21120-21964-10486-30000024D0000289D0003100003RS3WC     GGSL
NJARET21120-21964-20061-90000002D0000131D0003900023SDC       GGSL
NJARET21120-21964-20500-30000010D0000983D0001700013YF        GGSL
NJARET21120-21964-20510-20000016D0001202D0001500012YCPD90    GGSL
NJARET21120-21964-20520-10000032D0002344D0004400035YCPW180   GGSL
NJARET21120-21964-20530-00000014D0000905D0001400014YCPT360   GGSL
NJARET21120-21964-25242-70000006D0000244D0000000000CC18S     GGSL
NJARET21120-21964-60528-50000012D0000157D0000100000RLS       GGSL
NJARET21120-22179-10011-40000006D0000065D0000900007LG3104    GGSL
NJARET21120-22179-10084-80000006D0000058D0005600008LG7220    GGSL
NJARET21120-22179-10106-70000006D0000161D0006300020LG5512    GGSL
NJARET21120-22179-10124-10000120D0000756D0011300022LG6515    GGSL
NJARET21120-22179-10139-50000012D0000066D0000100000LG1130    GGSL
NJARET21120-22179-10157-90000006D0000142D0004500029LG6530    GGSL
NJARET21120-22179-10159-30000012D0000230D0000200000LG5185    GGSL
NJARET21120-22179-10160-90000008D0000457D0000000000LG5190    GGSL
NJARET21120-22179-10167-80000012D0000250D0000200001LG6127    GGSL
NJARET21120-22179-10185-20000042D0000529D0020200039LG6500    GGSL
NJARET21120-22179-10246-00000006D0000108D0002800006LG6570    GGSL
NJARET21120-22179-10248-40000048D0000445D0003900007LG6575    GGSL
NJARET21120-22179-10258-30000006D0000199D0004700005LG6580    GGSL
NJARET21120-22179-10270-50000008D0000105D0000300001LG7115    GGSL
NJARET21120-22179-10278-10000012D0000075D0000100000LG6284    GGSL
NJARET21120-22179-10309-20000012D0000279D0000000000LG5206    GGSL
NJARET21120-22179-10390-00000024D0000274D0001900002LG6332    GGSL
NJARET21120-22179-10400-60000012D0000319D0000100000LG6186    GGSL
NJARET21120-22179-10401-30000006D0000123D0000300002LG6182    GGSL
NJARET21120-22179-10408-20000048D0000472D0003200005LG6338    GGSL
NJARET21120-22179-10444-00000018D0000266D0000800002LG3374    GGSL
NJARET21120-22179-10448-80000024D0000304D0001200006LG3174    GGSL
NJARET21120-22179-10455-60000006D0000109D0000000000LG3307    GGSL
NJARET21120-22179-10480-80000024D0000189D0000700001LG5268    GGSL
NJARET21120-22179-10508-90000012D0000108D0000000000LG6162    GGSL
NJARET21120-22179-10551-50000024D0000217D0000200000LG6312    GGSL
NJARET21120-22401-00301-50000031D0000445D0010000033THD20     GGSL
NJARET21120-22401-00350-30000008D0000157D0001600002EDG20GMC  GGSL
NJARET21120-22401-00440-10000036D0001186D0004600012PRO40PC   GGSL
NJARET21120-22401-10087-50000076D0000784D0003000012EAR20TMC  GGSL
NJARET21120-23075-02990-50000018D0000098D0000000000KHB6      GGSL
NJARET21120-23803-10031-50000012D0000138D000000000010031     GGSL
NJARET21120-23865-08808-20000144D0000643D00007000038808      GGSL
NJARET21120-23865-09983-50000224D0000623D00070000109983      GGSL
NJARET21120-23883-00009-70000012D0000311D0000200001G362D     GGSL
NJARET21120-23883-01003-40000012D0000145D00001000011003      GGSL
NJARET21120-23883-01055-30000012D0000048D00000000001055      GGSL
NJARET21120-23883-01105-50000024D0000098D00004000021105      GGSL
NJARET21120-23883-05000-90000012D0000088D00001000015000      GGSL
NJARET21120-23883-05001-60000006D0000040D00000000005001      GGSL
NJARET21120-23883-08706-70000009D0000166D00010000008706A     GGSL
NJARET21120-23883-16100-20000084D0001372D002470005116100     GGSL
NJARET21120-23883-16200-90000039D0000884D001410003016200     GGSL
NJARET21120-23883-20000-80000010D0000177D000200000020000     GGSL
NJARET21120-23883-20002-20000012D0000294D001380001520002     GGSL
NJARET21120-23883-20003-90000004D0000133D000470000020003     GGSL
NJARET21120-23883-20010-70000008D0000167D000810001020010     GGSL
NJARET21120-23883-20020-60000003D0000085D000440001120020     GGSL
NJARET21120-23883-20030-50000002D0000074D000000000020030     GGSL
NJARET21120-23883-27020-90000010D0000324D000060000027020     GGSL
NJARET21120-23883-61800-10000013D0001340D000040000061800     GGSL
NJARET21120-24114-70102-80000100D0000153D0005200006701002    GGSL
NJARET21120-24654-01065-90000004D0000197D00000000005118GAL   GGSL
NJARET21120-24654-05102-70000042D0000252D000880001851026     GGSL
NJARET21120-24654-05462-20000008D0000108D000030000354624     GGSL
NJARET21120-24654-05922-10000018D0000236D00056000075926      GGSL
NJARET21120-24654-05922-10000002D0000785D00000000005926DS    GGSL
NJARET21120-24654-05923-80000008D0000226D00000000005929      GGSL
NJARET21120-24654-05931-30000024D0000380D00008000005935      GGSL
NJARET21120-24654-05962-70000084D0001028D00042000215962      GGSL
NJARET21120-24654-05962-70000006D0001770D00009000065962DS    GGSL
NJARET21120-24654-05981-80000060D0000644D00007000055981      GGSL
NJARET21120-24654-05981-80000001D0000258D00000000005981DS    GGSL
NJARET21120-24654-09941-80000005D0000159D00152000209335      GGSL
NJARET21120-24654-51704-20000012D0000127D000020000051704     GGSL
NJARET21120-24654-51806-30000042D0000253D000930003251806     GGSL
NJARET21120-24654-51826-10000012D0000126D000360001551826     GGSL
NJARET21120-24654-55025-40000768D0003095D00077000465026      GGSL
NJARET21120-24654-55110-70000114D0000678D001170004951106     GGSL
NJARET21120-24654-55118-30000042D0000345D000550002051186     GGSL
NJARET21120-24654-55168-80000024D0000128D00001000015168      GGSL
NJARET21120-24654-55325-50000024D0000144D000140000253256     GGSL
NJARET21120-24654-55450-40000054D0000323D000590001654506     GGSL
NJARET21120-24654-55456-60000006D0000049D000110000154566     GGSL
NJARET21120-24654-65324-50000018D0000223D000100000053246A    GGSL
NJARET21120-24654-65452-50000090D0000536D000990002154526     GGSL
NJARET21120-25033-01703-00000006D0000077D000310000501703     GGSL
NJARET21120-25033-01707-80000006D0000084D000070000301707     GGSL
NJARET21120-25033-01713-90000018D0000264D000400000301713     GGSL
NJARET21120-25033-01717-70000006D0000116D000040000201717     GGSL
NJARET21120-25033-01723-80000004D0000108D000090000201723     GGSL
NJARET21120-25033-01727-60000004D0000150D000050000001727     GGSL
NJARET21120-25033-02077-10000012D0000166D000060000002077     GGSL
NJARET21120-25033-02088-70000018D0000287D000120000002088     GGSL
NJARET21120-25033-02089-40000018D0000182D000070000002089     GGSL
NJARET21120-25033-02134-10000006D0000126D000080000002134     GGSL
NJARET21120-25033-02145-70000012D0000220D000070000002145     GGSL
NJARET21120-25033-02175-40000004D0000183D000000000002175     GGSL
NJARET21120-25033-02211-90000008D0000352D000140000002211     GGSL
NJARET21120-25033-02217-10000001D0000138D000020000002217     GGSL
NJARET21120-25033-02399-40000030D0000161D000030000002399     GGSL
NJARET21120-25033-02467-00000008D0000266D000090000002467     GGSL
NJARET21120-25033-02477-90000008D0000237D000170000002477     GGSL
NJARET21120-25033-02481-60000012D0000582D000150000002481     GGSL
NJARET21120-25033-02501-10000012D0000132D000070000102501     GGSL
NJARET21120-25033-02510-30000024D0000306D000180000002510     GGSL
NJARET21120-25033-02519-60000008D0000279D000300000102519     GGSL
NJARET21120-25033-02520-20000004D0000097D000130000002520     GGSL
NJARET21120-25033-02522-60000026D0001574D000130000402522     GGSL
NJARET21120-25033-02523-30000016D0001049D000210000502523     GGSL
NJARET21120-25033-02525-70000022D0001620D000100000002525     GGSL
NJARET21120-25033-02527-10000019D0001530D000190000202527     GGSL
NJARET21120-25033-02650-60000004D0000507D000070000002650     GGSL
NJARET21120-25033-02660-50000006D0001019D000510000002660     GGSL
NJARET21120-25033-02720-60000019D0001996D000080000402720     GGSL
NJARET21120-25033-02722-00000013D0001581D000280000102722     GGSL
NJARET21120-25033-02728-20000007D0001161D000000000002728     GGSL
NJARET21120-25033-02750-30000008D0001639D000000000002750     GGSL
NJARET21120-25033-02910-10000004D0000611D000010000002910     GGSL
NJARET21120-25033-02920-00000002D0000358D000580000002920     GGSL
NJARET21120-25033-02940-80000004D0000846D000040000002940     GGSL
NJARET21120-25033-02940-80000001D0000212D000030000002940X    GGSL
NJARET21120-25033-03760-10000096D0000312D000000000003760     GGSL
NJARET21120-25033-03801-10000016D0000392D000350000003801     GGSL
NJARET21120-25033-03802-80000002D0000049D000300000003802     GGSL
NJARET21120-25033-03821-90000004D0000191D000030000303821     GGSL
NJARET21120-25033-03822-60000012D0000335D000080000003822     GGSL
NJARET21120-25033-03850-90000012D0000364D000140000403850     GGSL
NJARET21120-25033-04520-00000004D0000398D000060000004520     GGSL
NJARET21120-25033-12201-70000006D0000057D000040000012201     GGSL
NJARET21120-25033-12202-40000006D0000054D000160000112202     GGSL
NJARET21120-25033-12203-10000048D0000194D000050000112203     GGSL
NJARET21120-25033-12204-80000060D0000380D000140000112204     GGSL
NJARET21120-25033-12251-20000006D0000029D000000000012251     GGSL
NJARET21120-25033-12255-00000006D0000024D000020000012255     GGSL
NJARET21120-25033-12285-70000042D0000443D000220000212285     GGSL
NJARET21120-25033-12412-70000003D0000332D000010000112412     GGSL
NJARET21120-25033-12505-60000024D0000151D000000000012505     GGSL
NJARET21120-25033-12535-30000012D0000045D000010000012535     GGSL
NJARET21120-25033-12545-20000024D0000085D000010000012545     GGSL
NJARET21120-25033-12555-10000006D0000070D000000000012555     GGSL
NJARET21120-25033-12575-90000012D0000153D000010000012575     GGSL
NJARET21120-25033-12605-30000006D0000022D000020000012605     GGSL
NJARET21120-25033-12733-30000007D0000043D000050000012733     GGSL
NJARET21120-25033-12741-80000007D0000041D000050000012741     GGSL
NJARET21120-25033-12746-30000012D0000311D000040000012746     GGSL
NJARET21120-25033-12756-20000006D0000130D000000000012756     GGSL
NJARET21120-25033-12776-00000012D0000493D000010000012776     GGSL
NJARET21120-25033-12783-80000006D0000051D000010000012783     GGSL
NJARET21120-25033-12932-00000012D0000517D000000000012932     GGSL
NJARET21120-25033-12971-90000002D0000097D000040000012971     GGSL
NJARET21120-25033-12972-50000004D0000227D000080000012972     GGSL
NJARET21120-25033-12974-00000002D0000157D000070000012974     GGSL
NJARET21120-25033-20230-60000004D0001227D000010000020230     GGSL
NJARET21120-25033-71100-60000007D0000195D000010000071100     GGSL
NJARET21120-25033-71101-30000006D0000167D000000000071101     GGSL
NJARET21120-25033-90105-60000001D0000393D000000000090105     GGSL
NJARET21120-25033-90106-30000001D0000428D000000000090106     GGSL
NJARET21120-25216-66600-00000012D0000073D0000000000666N      GGSL
NJARET21120-25531-01234-60000017D0000629D000200001675160     GGSL
NJARET21120-25845-12366-00000024D0000227D00010000015566      GGSL
NJARET21120-25849-00305-00000035D0000701D00001000010305RG    GGSL
NJARET21120-25849-10910-30000216D0001054D00001000001008010RGCGGSL
NJARET21120-25849-11110-60000240D0001710D00002000001010010RG GGSL
NJARET21120-25849-11330-80000050D0001257D00000000001020030RGXGGSL
NJARET21120-25881-08502-10000002D0000036D0001000001 085024   GGSL
NJARET21120-26600-89334-70000096D0000207D002270000089334     GGSL
NJARET21120-26978-02181-60000150D0000816D001350001702181     GGSL
NJARET21120-26978-02182-30000120D0000653D001170001402182     GGSL
NJARET21120-26978-02188-50000080D0000428D001290002402188     GGSL
NJARET21120-26978-02241-70000140D0000836D001160001402241     GGSL
NJARET21120-26978-02242-40000150D0000896D001680002002242     GGSL
NJARET21120-26978-02248-60000070D0000426D001140001702248     GGSL
NJARET21120-26978-02301-80000080D0000646D001290001602301     GGSL
NJARET21120-26978-02302-50000140D0001131D000670001302302     GGSL
NJARET21120-26978-02308-70000080D0000646D000800002202308     GGSL
NJARET21120-26978-02361-20000070D0000703D000980000902361     GGSL
NJARET21120-26978-02362-90000140D0001406D000640001202362     GGSL
NJARET21120-26978-02368-10000040D0000378D000530002102368     GGSL
NJARET21120-26978-03060-30000010D0000055D000180001403060     GGSL
NJARET21120-26978-03062-70000010D0000055D000220001603062     GGSL
NJARET21120-26978-03122-80000005D0000118D00038000150312205   GGSL
NJARET21120-26978-05011-30000036D0000040D000000000005011     GGSL
NJARET21120-26978-05041-00000288D0000579D000340000405041     GGSL
NJARET21120-26978-05071-70000036D0000048D000150000505071     GGSL
NJARET21120-26978-05081-60000036D0000052D000120000105081     GGSL
NJARET21120-26978-08060-80000050D0000273D000140000908060     GGSL
NJARET21120-26978-08062-20000010D0000055D000130000808062     GGSL
NJARET21120-26978-08098-10000010D0000075D000060000008098     GGSL
NJARET21120-26978-08100-10000015D0000234D00010000060810005   GGSL
NJARET21120-26978-08120-90000005D0000118D00020000150812005   GGSL
NJARET21120-26978-08710-20000004D0000072D000080000308710     GGSL
NJARET21120-26978-10010-80000012D0000048D000150001110010     GGSL
NJARET21120-26978-10012-20000012D0000048D000150001310012     GGSL
NJARET21120-26978-10013-90000018D0000073D000130000710013     GGSL
NJARET21120-26978-10062-70000120D0000364D001170002210062     GGSL
NJARET21120-26978-10068-90000130D0000394D001360000810068     GGSL
NJARET21120-26978-10082-50000220D0000964D001740001510082     GGSL
NJARET21120-26978-10088-70000110D0000482D001650001310088     GGSL
NJARET21120-26978-10102-00000050D0000354D001820002110102     GGSL
NJARET21120-26978-10108-20000085D0000602D001160001910108     GGSL
NJARET21120-26978-10122-80000085D0000909D001440002110122     GGSL
NJARET21120-26978-10128-00000085D0000909D001520001810128     GGSL
NJARET21120-26978-10142-60000045D0000626D000920001510142     GGSL
NJARET21120-26978-10148-50000055D0000765D000630001510148     GGSL
NJARET21120-26978-10180-80000030D0000107D000390000610180     GGSL
NJARET21120-26978-10182-20000050D0000179D000090000610182     GGSL
NJARET21120-26978-10183-90000010D0000036D000390000310183     GGSL
NJARET21120-26978-10185-30000060D0000215D000430000710185     GGSL
NJARET21120-26978-10240-90000050D0000197D000540000410240     GGSL
NJARET21120-26978-10242-30000060D0000236D001030001210242     GGSL
NJARET21120-26978-10243-00000020D0000079D000200000310243     GGSL
NJARET21120-26978-10245-40000040D0000158D000550000910245     GGSL
NJARET21120-26978-10300-00000030D0000149D000270000310300     GGSL
NJARET21120-26978-10302-40000030D0000149D000350000910302     GGSL
NJARET21120-26978-10305-50000050D0000249D000290000410305     GGSL
NJARET21120-26978-10308-60000010D0000050D000260000610308     GGSL
NJARET21120-26978-10362-80000040D0000248D000200000810362     GGSL
NJARET21120-26978-10365-90000010D0000062D000250000610365     GGSL
NJARET21120-26978-16190-10000280D0001366D001080001316190     GGSL
NJARET21120-26978-16192-50000310D0001513D002280002116192     GGSL
NJARET21120-26978-16193-20000150D0000732D000770001216193     GGSL
NJARET21120-26978-16195-60000260D0001269D001550001516195     GGSL
NJARET21120-26978-16198-70000060D0000293D000260000916198     GGSL
NJARET21120-26978-16240-30000260D0001638D001250001316240     GGSL
NJARET21120-26978-16242-70000270D0001701D002400002216242     GGSL
NJARET21120-26978-16243-40000130D0000819D001110000716243     GGSL
NJARET21120-26978-16245-80000260D0001638D001270001216245     GGSL
NJARET21120-26978-16248-90000060D0000378D000120001216248     GGSL
NJARET21120-26978-16300-40000200D0001612D001200001216300     GGSL
NJARET21120-26978-16302-80000260D0002096D002010001716302     GGSL
NJARET21120-26978-16303-50000100D0000806D000490000816303     GGSL
NJARET21120-26978-16305-90000270D0002176D000910001216305     GGSL
NJARET21120-26978-16308-00000090D0000725D000160001216308     GGSL
NJARET21120-26978-16360-80000140D0001541D000760000916360     GGSL
NJARET21120-26978-16362-20000150D0001652D000930001916362     GGSL
NJARET21120-26978-16363-90000050D0000551D000470000616363     GGSL
NJARET21120-26978-16365-30000100D0001101D000830001316365     GGSL
NJARET21120-26978-16368-40000070D0000771D000180000916368     GGSL
NJARET21120-26978-26140-30000150D0001576D000560001026140     GGSL
NJARET21120-26978-26142-70000220D0002319D001080002226142     GGSL
NJARET21120-26978-26143-40000050D0000527D000490000426143     GGSL
NJARET21120-26978-26145-80000140D0001471D000770001526145     GGSL
NJARET21120-26978-26148-90000030D0000316D000380002326148     GGSL
NJARET21120-26978-26180-90000010D0000175D000400000526180     GGSL
NJARET21120-26978-26182-30000120D0002098D000410001326182     GGSL
NJARET21120-26978-26183-00000020D0000350D000270000326183     GGSL
NJARET21120-26978-26185-40000030D0000524D000450001326185     GGSL
NJARET21120-26978-26188-50000070D0001224D000240001626188     GGSL
NJARET21120-26978-26242-40000004D0000055D000240000926242     GGSL
NJARET21120-26978-26248-60000004D0000055D000290000826248     GGSL
NJARET21120-26978-26270-70000040D0000620D000360000526270     GGSL
NJARET21120-26978-26272-10000030D0000465D000510000726272     GGSL
NJARET21120-26978-26273-80000010D0000155D000190000326273     GGSL
NJARET21120-26978-30104-80000096D0000531D000430002330104     GGSL
NJARET21120-26978-30301-10000372D0002358D001100004630301     GGSL
NJARET21120-26978-30312-70000024D0000027D000210000330312     GGSL
NJARET21120-26978-30402-50000060D0000368D000750002830402     GGSL
NJARET21120-26978-30409-40000096D0000489D000420002830409     GGSL
NJARET21120-26978-30411-70000036D0000251D000650004130411     GGSL
NJARET21120-26978-30413-10000024D0000168D000550004630413     GGSL
NJARET21120-26978-30413-10000384D0001825D00023000003041396   GGSL
NJARET21120-26978-30500-80000130D0000776D000800002830500     GGSL
NJARET21120-26978-30602-90000030D0000132D000080000830602     GGSL
NJARET21120-26978-30605-00000006D0000026D000300002630605     GGSL
NJARET21120-26978-30702-60000006D0000026D000030000330702     GGSL
NJARET21120-26978-30705-70000018D0000078D000760001830705     GGSL
NJARET21120-26978-30806-10000072D0000338D001150005730806     GGSL
NJARET21120-26978-30901-30000080D0000458D000370001130901     GGSL
NJARET21120-26978-31100-90000080D0000652D000590002431100     GGSL
NJARET21120-26978-31108-50000065D0000530D000280002831108     GGSL
NJARET21120-26978-31109-20000025D0000204D000180001731109     GGSL
NJARET21120-26978-31120-70000030D0000539D000210002031120     GGSL
NJARET21120-26978-31122-10000005D0000090D000130001231122     GGSL
NJARET21120-26978-31128-30000020D0000359D000440002231128     GGSL
NJARET21120-26978-31129-00000005D0000090D000200001131129     GGSL
NJARET21120-26978-32101-50000010D0000105D000110001132100     GGSL
NJARET21120-26978-32108-40000020D0000210D000190001432108     GGSL
NJARET21120-26978-32121-30000005D0000092D000070000732120     GGSL
NJARET21120-26978-32128-20000020D0000367D000380002632128     GGSL
NJARET21120-26978-32129-90000020D0000367D000300002132129     GGSL
NJARET21120-26978-35060-20000050D0000273D000150001435060     GGSL
NJARET21120-26978-35068-80000020D0000109D000120000535068     GGSL
NJARET21120-26978-35069-50000010D0000055D000120001035069     GGSL
NJARET21120-26978-35080-00000050D0000507D000730002235080     GGSL
NJARET21120-26978-35089-30000010D0000101D000040000435089     GGSL
NJARET21120-26978-35090-90000005D0000047D000080000735090     GGSL
NJARET21120-26978-35100-50000025D0000491D000200001935100     GGSL
NJARET21120-26978-35102-90000015D0000294D000190001835102     GGSL
NJARET21120-26978-35108-10000035D0000687D000290002935108     GGSL
NJARET21120-26978-35109-80000015D0000294D000220001935109     GGSL
NJARET21120-26978-35120-30000015D0000419D000240002335120     GGSL
NJARET21120-26978-35122-70000005D0000129D000150001535122     GGSL
NJARET21120-26978-35128-90000015D0000420D000470003335128     GGSL
NJARET21120-26978-35129-60000005D0000140D000200001535129     GGSL
NJARET21120-26978-35190-60000004D0000175D000040000435190     GGSL
NJARET21120-26978-35192-00000002D0000088D000100001035192     GGSL
NJARET21120-26978-35198-20000010D0000438D000230002235198     GGSL
NJARET21120-26978-35199-90000002D0000088D000050000535199     GGSL
NJARET21120-26978-35272-90000002D0000209D000140000535272     GGSL
NJARET21120-26978-36148-60000025D0000432D000270002536148     GGSL
NJARET21120-26978-36228-50000005D0000151D000260002436228     GGSL
NJARET21120-26978-36298-80000005D0000212D000180001736298     GGSL
NJARET21120-26978-38142-20000144D0000997D000330001338142     GGSL
NJARET21120-26978-38146-00000096D0000660D000350000538146     GGSL
NJARET21120-26978-38148-40000216D0001503D000510001738148     GGSL
NJARET21120-26978-38192-70000030D0000460D000620001438192     GGSL
NJARET21120-26978-38196-50000030D0000460D000500000338196     GGSL
NJARET21120-26978-38198-90000024D0000368D001000002538198     GGSL
NJARET21120-26978-39122-30000132D0000719D000290001439122     GGSL
NJARET21120-26978-39126-10000144D0000772D000210000639126     GGSL
NJARET21120-26978-39128-50000168D0000903D000540002039128     GGSL
NJARET21120-26978-39182-70000078D0001012D000680001339182     GGSL
NJARET21120-26978-39186-50000036D0000467D000550001039186     GGSL
NJARET21120-26978-39188-90000078D0001012D000870002439188     GGSL
NJARET21120-26978-48098-30000018D0000100D000200000948098     GGSL
NJARET21120-26978-48128-00000018D0000149D000210001448128     GGSL
NJARET21120-26978-48158-00000012D0000134D000390000948158     GGSL
NJARET21120-26978-80100-50000004D0000173D000130000480100     GGSL
NJARET21120-26978-80101-20000004D0000173D000570000380101     GGSL
NJARET21120-26978-80101-60000120D0004205D00051000078010112   GGSL
NJARET21120-26978-80105-00000004D0000173D000740000680105     GGSL
NJARET21120-26978-80105-00000036D0001531D00000000008010536   GGSL
NJARET21120-26978-81100-40000012D0000113D000530000181100     GGSL
NJARET21120-26978-81101-10000168D0001855D000900002581101     GGSL
NJARET21120-26978-81121-90000024D0000104D000110000081121     GGSL
NJARET21120-27652-80203-50000055D0002496D0000600006LG400151  GGSL
NJARET21120-27652-80204-20000054D0003411D0004600023LG400161  GGSL
NJARET21120-27652-80205-90000100D0006008D0004900050LG400171  GGSL
NJARET21120-27856-10001-20004584D0013614D0001300000P10232    GGSL
NJARET21120-27856-10002-90012798D0067317D0008500008P10264    GGSL
NJARET21120-27856-10002-90010776D0056682D0000000000P10264DP  GGSL
NJARET21120-27856-10008-10002544D0034598D0014800090P101      GGSL
NJARET21120-27856-10009-80001296D0011858D0027000215P128      GGSL
NJARET21120-27856-10015-90000184D0001761D0000000000P102128   GGSL
NJARET21120-27997-00229-90000006D0000152D0002000003TE        GGSL
NJARET21120-28009-11640-90000240D0001487D00008000081640      GGSL
NJARET21120-28009-11840-30000180D0001236D0000000000T1840     GGSL
NJARET21120-29973-12316-50000210D0001434D000140000214116021P GGSL
NJARET21120-29973-12333-20000288D0001115D003620007914110028P GGSL
NJARET21120-29973-12341-70000472D0002577D0112900135141100216UGGSL
NJARET21120-29973-12349-30000464D0002242D001280003914901028P GGSL
NJARET21120-30541-00067-20000006D0000052D0000000000JCD100FGP GGSL
NJARET21120-30541-00801-20000001D0000052D0003700000JCD08BKSM GGSL
NJARET21120-30541-01020-60000168D0000403D0007000009JCD024SM  GGSL
NJARET21120-30541-01020-60000060D0000114D0001000003JCD060SM  GGSL
NJARET21120-30541-01030-50000108D0000927D0008900020JCD100SMJ GGSL
NJARET21120-30541-01034-30000030D0000643D0006300017JCD030SM  GGSL
NJARET21120-30541-01039-80000084D0000420D0007300014JCD05SM   GGSL
NJARET21120-30541-01085-50000012D0000061D0000100001JCD05SMP  GGSL
NJARET21120-30541-07005-70000001D0000174D0000000000JCDMYSTK  GGSL
NJARET21120-30541-08878-60000012D0000036D0000400000SMMS      GGSL
NJARET21120-30541-08879-30000024D0000078D0000900000SMVS      GGSL
NJARET21120-30541-09981-20000200D0000382D0001300000JCDTPG    GGSL
NJARET21120-30541-09983-60000100D0000195D0000000000JCDTPP    GGSL
NJARET21120-31340-10005-10000012D0000223D0003600015B550120   GGSL
NJARET21120-31340-10006-80000084D0000949D0019600058B550125   GGSL
NJARET21120-31340-10007-50000012D0000399D0002300000B550130   GGSL
NJARET21120-31340-10017-40000016D0000298D0004100001B550190   GGSL
NJARET21120-31340-10020-40000004D0000101D0004400000B550205   GGSL
NJARET21120-31724-84000-90000024D0000531D00006000048400100   GGSL
NJARET21120-32247-00900-30000042D0000163D00158000181009001   GGSL
NJARET21120-32247-00910-20000006D0000023D00122000011009101   GGSL
NJARET21120-32247-00950-80000018D0000068D00130000011009501   GGSL
NJARET21120-32247-02515-70000001D0000046D00331000002515      GGSL
NJARET21120-32247-14902-00000024D0000398D001750000114902     GGSL
NJARET21120-32247-14905-10000080D0000686D002940001014905     GGSL
NJARET21120-32247-17183-00000102D0001093D003630001717183     GGSL
NJARET21120-32247-17185-40000040D0000978D001320000817185     GGSL
NJARET21120-32247-17187-80000009D0000529D001610002017187     GGSL
NJARET21120-32247-17290-50000024D0000283D000750000717290     GGSL
NJARET21120-32247-17293-60000012D0000136D000430000417293     GGSL
NJARET21120-32247-17508-10000048D0000741D004010000717508     GGSL
NJARET21120-32247-17530-20000006D0000064D000790000117530     GGSL
NJARET21120-32247-17540-10000016D0000494D001390000317540     GGSL
NJARET21120-32247-18260-70000006D0000077D000270000018260     GGSL
NJARET21120-32247-18266-90000006D0000087D000460000118266     GGSL
NJARET21120-32247-18272-00000006D0000038D000460000318272     GGSL
NJARET21120-32247-20785-00000102D0000432D000370000872078430  GGSL
NJARET21120-32247-21605-00000010D0000223D006310002221605     GGSL
NJARET21120-32247-21701-90000048D0000473D000790000221701     GGSL
NJARET21120-32247-22315-70000003D0000147D002440001022315     GGSL
NJARET21120-32247-23616-40000027D0000735D012100000823616     GGSL
NJARET21120-32247-23622-50000002D0000037D005170000323622     GGSL
NJARET21120-32247-25006-10000003D0000083D003500000725006A    GGSL
NJARET21120-32247-25009-20000004D0000292D002080000525009     GGSL
NJARET21120-32247-26784-70000036D0000152D000570000372678430  GGSL
NJARET21120-32247-27764-80000024D0000128D000080000272776430  GGSL
NJARET21120-32247-30156-50000004D0000078D001280000530156     GGSL
NJARET21120-32247-31115-80000005D0000414D002770000631115     GGSL
NJARET21120-32247-32367-30000003D0000100D005250004032367F    GGSL
NJARET21120-32247-33040-40000003D0000056D008530000433040     GGSL
NJARET21120-32247-33050-30000003D0000138D005690000433050     GGSL
NJARET21120-32247-33160-90000002D0000155D002860000733160     GGSL
NJARET21120-32247-34161-50000006D0000385D007480001234161     GGSL
NJARET21120-32247-37610-50000012D0000190D001050001637610C    GGSL
NJARET21120-32247-39181-80000003D0000093D009950000739181     GGSL
NJARET21120-32247-42784-50000048D0000202D000180000074278430  GGSL
NJARET21120-32247-43860-50000004D0000094D00047000004386004   GGSL
NJARET21120-32247-47783-30000012D0000051D000070000074778300  GGSL
NJARET21120-32247-49024-50000010D0000157D003590003749024     GGSL
NJARET21120-32247-49785-50000120D0000532D000410001874978500  GGSL
NJARET21120-32247-49801-20000018D0000285D000140000049801D    GGSL
NJARET21120-32247-50088-30000012D0000259D00008000005008810   GGSL
NJARET21120-32247-50250-40000005D0000134D003340000050250     GGSL
NJARET21120-32247-53105-40000010D0000107D003620011053105     GGSL
NJARET21120-32247-54204-30000006D0000074D00025000025420406   GGSL
NJARET21120-32247-55513-50000195D0002087D000440000575551300  GGSL
NJARET21120-32247-55523-40000108D0001809D000130000775552300  GGSL
NJARET21120-32247-55783-20000072D0000401D000390000575578300  GGSL
NJARET21120-32247-56211-90000006D0000097D00039000005621106   GGSL
NJARET21120-32247-56513-40000325D0003114D000410000475651300  GGSL
NJARET21120-32247-56523-30000180D0002695D000410000375652300  GGSL
NJARET21120-32247-56783-10000132D0000690D007080001675678300  GGSL
NJARET21120-32247-56783-10000120D0000635D000180000175678309  GGSL
NJARET21120-32247-56863-00000091D0000731D000210000275686300  GGSL
NJARET21120-32247-56863-00000011D0000088D000000000075686300X GGSL
NJARET21120-32247-71060-20000066D0000925D001280000371060     GGSL
NJARET21120-32247-71131-90000004D0000083D000390000371131     GGSL
NJARET21120-32247-74150-70000972D0005893D0050700037274150    GGSL
NJARET21120-32247-74250-40000768D0007108D0051300027274250    GGSL
NJARET21120-32247-74850-60000156D0003227D0055600019274850    GGSL
NJARET21120-32247-76121-50000003D0000116D001350001076121     GGSL
NJARET21120-32247-76232-80000003D0000204D000890000276232     GGSL
NJARET21120-32247-77160-30000588D0003254D0045600042277160    GGSL
NJARET21120-32247-77260-00000456D0004405D0065700040277260    GGSL
NJARET21120-32247-77860-20000066D0001179D0026800012277860    GGSL
NJARET21120-32247-77960-90000348D0008286D0066900035277960    GGSL
NJARET21120-32247-99605-10000068D0001705D009800009999605     GGSL
NJARET21120-32903-00169-30001392D0002172D0014600042SLI06000E3GGSL
NJARET21120-32903-00171-60000312D0000487D0005000014SLI06000A3GGSL
NJARET21120-32903-00191-40000060D0000340D0001600003GAB12000E2GGSL
NJARET21120-32903-00192-10000288D0000449D0006600016SLI06000B9GGSL
NJARET21120-32903-00214-00000168D0000262D0004700005SLI06000E2GGSL
NJARET21120-32903-00222-50000216D0000430D0002000012SLI08000B9GGSL
NJARET21120-32903-00228-70000024D0000523D0000300000ROS15500A3GGSL
NJARET21120-32903-00236-20000006D0000036D0001800006SVN24000E2GGSL
NJARET21120-32903-00240-90000192D0000382D0005600007SLI08000E2GGSL
NJARET21120-32903-00243-00000006D0000043D0000500004SVN30000E2GGSL
NJARET21120-32903-00246-10000216D0000430D0005800013SLI08000A3GGSL
NJARET21120-32903-00257-70000004D0000154D0002600005RZGH210G2 GGSL
NJARET21120-32903-00258-40000120D0000272D0005700005LIA06000E2GGSL
NJARET21120-32903-00264-50000216D0000739D0003500008LIA08000E2GGSL
NJARET21120-32903-00281-20000132D0000692D0007400012LIA10000E2GGSL
NJARET21120-32903-00283-60000060D0000473D0000900002GAB14000E2GGSL
NJARET21120-32903-00287-40000024D0000241D0001400007VNP24000E2GGSL
NJARET21120-32903-00290-40000018D0000235D0001300008VNP30000E2GGSL
NJARET21120-32903-00293-50000096D0000267D0009400011SLI10000E2GGSL
NJARET21120-32903-00301-70000010D0000187D0002200001ROP28000A3GGSL
NJARET21120-32903-00309-30000444D0001234D0006800053SLI10000E3GGSL
NJARET21120-32903-00313-00000030D0000365D0001200001GAB18000E2GGSL
NJARET21120-32903-00326-00000108D0000890D0007000010LIA12000E2GGSL
NJARET21120-32903-00332-10000144D0000400D0002500018SLI10000B9GGSL
NJARET21120-32903-00338-30000120D0000334D0007800024SLI10000A3GGSL
NJARET21120-32903-00341-30000072D0000769D0006100014SLI24000E3GGSL
NJARET21120-32903-00359-80000552D0001098D0004600033SLI08000E3GGSL
NJARET21120-32903-04255-90000048D0000509D0005000008LIA14000E2GGSL
NJARET21120-32903-04257-30000096D0000454D0005600009SLI12000E2GGSL
NJARET21120-32903-04265-80000006D0000115D0000900001GAB22000E2GGSL
NJARET21120-32903-07519-90000048D0000790D0001400005LIA16000E2GGSL
NJARET21120-32903-07530-40000060D0000303D0004600008SLI14000E2GGSL
NJARET21120-32903-07534-20000042D0000926D0002300003LIA20000E2GGSL
NJARET21120-32903-07558-80000174D0000886D0013700059RZWC1Q0B9 GGSL
NJARET21120-32903-07563-20000048D0000269D0003300005SLI17000E2GGSL
NJARET21120-32903-07577-90000018D0000530D0001600004LIA24000E2GGSL
NJARET21120-32903-12006-60000720D0001634D0006700037LIA06000E3GGSL
NJARET21120-32903-12008-00000696D0002380D0013500037LIA08000E3GGSL
NJARET21120-32903-12010-30000492D0002578D0024300064LIA10000E3GGSL
NJARET21120-32903-12012-70000492D0004054D0023900060LIA12000E3GGSL
NJARET21120-32903-12014-10000336D0003565D0014300058LIA14000E3GGSL
NJARET21120-32903-12017-20000396D0006518D0005100033LIA16000E3GGSL
NJARET21120-32903-12020-20000102D0002248D0010100027LIA20000E3GGSL
NJARET21120-32903-12024-00000066D0001942D0005000014LIA24000E3GGSL
NJARET21120-32903-12115-50000012D0000261D0000700000ROS15500E3GGSL
NJARET21120-32903-12312-80000024D0000163D0002000013CNA12000E3GGSL
NJARET21120-32903-12324-10000012D0000071D0001600009SVN24000E3GGSL
NJARET21120-32903-12330-20000012D0000085D0002200009SVN30000E3GGSL
NJARET21120-32903-12712-60000084D0000475D0005200016GAB12000E3GGSL
NJARET21120-32903-12714-00000024D0000189D0000000000GAB14000E3GGSL
NJARET21120-32903-12718-80000030D0000365D0003000003GAB18000E3GGSL
NJARET21120-32903-12722-50000024D0000460D0001400004GAB22000E3GGSL
NJARET21120-32903-12818-50000006D0000053D0002800026VNP18000E3GGSL
NJARET21120-32903-12824-60000018D0000181D0000400003VNP24000E3GGSL
NJARET21120-32903-12830-70000030D0000391D0001900016VNP30000E3GGSL
NJARET21120-32903-22484-90000010D0000187D0001500001ROP28000E2GGSL
NJARET21120-32903-23732-00000036D0000309D0002900004SLI20000E2GGSL
NJARET21120-32903-30392-60000024D0000068D0002300011CNA08000E3GGSL
NJARET21120-32903-35947-30000084D0000363D0004200025CNA10000E3GGSL
NJARET21120-32903-40400-50000144D0000749D0008800021LIA10000A3GGSL
NJARET21120-32903-40493-70000432D0001477D0003100018LIA08000B9GGSL
NJARET21120-32903-40770-90000012D0000106D0002200019VNP18000A3GGSL
NJARET21120-32903-41472-10000006D0000043D0001900007SVN30000A3GGSL
NJARET21120-32903-41640-40000240D0000821D0002700013LIA08000A3GGSL
NJARET21120-32903-41717-30000228D0002419D0006800018LIA14000B9GGSL
NJARET21120-32903-41728-90000276D0002274D0010200025LIA12000B9GGSL
NJARET21120-32903-41842-20000018D0000235D0002200010VNP30000A3GGSL
NJARET21120-32903-41909-20000132D0002173D0004400011LIA16000A3GGSL
NJARET21120-32903-42050-00000024D0000706D0002000007LIA24000A3GGSL
NJARET21120-32903-42240-50000456D0001035D0003200018LIA06000B9GGSL
NJARET21120-32903-42728-80000006D0000036D0001200008SVN24000A3GGSL
NJARET21120-32903-43116-20000012D0000064D0001600009SVN18000A3GGSL
NJARET21120-32903-45170-20000084D0000891D0006100019LIA14000A3GGSL
NJARET21120-32903-45342-30000036D0000361D0001600012VNP24000A3GGSL
NJARET21120-32903-45788-90000036D0001059D0002100004LIA24000B9GGSL
NJARET21120-32903-46337-80000108D0001778D0004500010LIA16000B9GGSL
NJARET21120-32903-46966-00000018D0000397D0001400006LIA20000A3GGSL
NJARET21120-32903-47208-00000084D0000692D0007900020LIA12000A3GGSL
NJARET21120-32903-48101-30000264D0000599D0006200013LIA06000A3GGSL
NJARET21120-32903-48538-70000048D0001058D0003000006LIA20000B9GGSL
NJARET21120-32903-50286-20000072D0000322D0003100014HSI10008E2GGSL
NJARET21120-32903-50763-80000420D0001987D0017900049SLI12000E3GGSL
NJARET21120-32903-50764-50000048D0000242D0000600003SLI14000B9GGSL
NJARET21120-32903-50767-60000108D0000511D0006500016SLI12000A3GGSL
NJARET21120-32903-50794-20000144D0000681D0006900020SLI12000B9GGSL
NJARET21120-32903-50802-40000360D0001818D0005900037SLI14000E3GGSL
NJARET21120-32903-50803-10000096D0000485D0006100020SLI14000A3GGSL
NJARET21120-32903-52340-90000018D0000083D0000000000SVN24000B9GGSL
NJARET21120-32903-53271-50000024D0000256D0002300004SLI24000E2GGSL
NJARET21120-32903-56391-70000132D0000590D0006700017HSI10008A1GGSL
NJARET21120-32903-58838-50000018D0000075D0000000000SVN18000B9GGSL
NJARET21120-32903-60930-10000003D0000205D0000100001TES20000E3GGSL
NJARET21120-32903-61636-10000144D0000639D0004400040HSI10008B6GGSL
NJARET21120-32903-66002-90000035D0000656D0003300004ROP28000E3GGSL
NJARET21120-32903-71041-00000012D0000107D0002800005RZWC1G0E3 GGSL
NJARET21120-32903-72233-80000288D0001509D0008200021LIA10000B9GGSL
NJARET21120-32903-72518-60000048D0000588D0005900007RZWC2G0B9 GGSL
NJARET21120-32903-72886-60000054D0000482D0008000011RZWC1G0B9 GGSL
NJARET21120-32903-75049-20000102D0000875D0008600023SLI20000E3GGSL
NJARET21120-32903-75051-50000108D0000606D0004300013SLI17000A3GGSL
NJARET21120-32903-75057-70000072D0000404D0004400011SLI17000B9GGSL
NJARET21120-32903-75070-60000024D0000206D0001000008SLI20000A3GGSL
NJARET21120-32903-75076-80000002D0000202D0000300003TES24000G2GGSL
NJARET21120-32903-75080-50000204D0001144D0010600024SLI17000E3GGSL
NJARET21120-32903-75084-30000024D0000256D0003200012SLI24000A3GGSL
NJARET21120-32903-75089-80000048D0000513D0002700003SLI24000B9GGSL
NJARET21120-32903-91270-80000003D0000088D0001000006RZGH210E3 GGSL
NJARET21120-32903-91323-10000003D0000205D0000200002TES20000G8GGSL
NJARET21120-32903-91484-90000015D0000242D0001000007SPX24DB0E3GGSL
NJARET21120-32903-91485-60000075D0001148D0001100002SPX24DBA34GGSL
NJARET21120-32903-91575-40000012D0000161D0000400001PZA1200Y35GGSL
NJARET21120-33200-00020-40000336D0000259D00134000163320000020GGSL
NJARET21120-33200-00544-50004362D0051341D019510005600544     GGSL
NJARET21120-33200-01191-00000140D0001069D001220000301191     GGSL
NJARET21120-33200-06527-20000048D0000976D02226000006527      GGSL
NJARET21120-33200-09142-40000080D0000581D000630001109142     GGSL
NJARET21120-33200-09293-30000008D0000066D00625000669293      GGSL
NJARET21120-33200-11321-80000240D0000324D000950001711321     GGSL
NJARET21120-33200-11448-20000030D0000045D000780000011448     GGSL
NJARET21120-33200-94182-80001924D0022649D016190025794182     GGSL
NJARET21120-33200-97242-60000020D0000158D001590000097242     GGSL
NJARET21120-33200-97457-40006266D0073751D014390013197457     GGSL
NJARET21120-33349-05082-50000016D0000049D0002100000JP506     GGSL
NJARET21120-33349-41251-70000030D0000091D0000200001JS50      GGSL
NJARET21120-33349-41701-70003000D0000363D0000500005J4BULK    GGSL
NJARET21120-33349-66003-10000020D0000205D0000000000J372ST20  GGSL
NJARET21120-33607-00003-60000008D0000256D0000700001EDGE180   GGSL
NJARET21120-33607-00104-00000004D0000109D0000300000WST1      GGSL
NJARET21120-33607-00701-10000006D0000062D0001100000RT1       GGSL
NJARET21120-33607-00704-20000006D0000087D0001500000REA4      GGSL
NJARET21120-33607-00938-10000008D0000221D0002000001M7C       GGSL
NJARET21120-33607-01208-40000018D0000348D0000400003LT8       GGSL
NJARET21120-33607-01220-60000012D0000311D0004500004LT20      GGSL
NJARET21120-33607-22004-50000008D0000145D0001000000HHRP4     GGSL
NJARET21120-33607-22005-20000004D0000109D0001800001HC2       GGSL
NJARET21120-33607-22006-90000004D0000109D0002000000HBE6      GGSL
NJARET21120-33607-22010-60000008D0000288D0002600003HCF3      GGSL
NJARET21120-33607-22100-40000004D0000062D0002900000HTWHEEL8  GGSL
NJARET21120-33607-22250-60000005D0000720D0001000007HT4EZ     GGSL
NJARET21120-33607-22310-70000012D0000102D0000200002HG18      GGSL
NJARET21120-33607-30000-60000004D0000207D0000100000YT5       GGSL
NJARET21120-33607-52100-50000032D0001664D0000900004GKS2      GGSL
NJARET21120-34411-02807-00000012D0000044D00000000008210121001GGSL
NJARET21120-34411-02848-30000006D0000054D00001000018420031011GGSL
NJARET21120-34411-26101-90000010D0000121D00002000008477721001GGSL
NJARET21120-34411-80203-80000006D0000118D00008000048802031011GGSL
NJARET21120-34613-00005-80000006D0000116D0000100000LH005     GGSL
NJARET21120-34613-00022-50000006D0000102D0000400002LH022     GGSL
NJARET21120-34613-00802-30000040D0000045D0000700001SS2       GGSL
NJARET21120-34613-00803-00000020D0000025D0002600003SS3       GGSL
NJARET21120-34613-00805-40000040D0000083D0001400000SS5       GGSL
NJARET21120-34613-00808-50000010D0000079D0000300001SS8HD     GGSL
NJARET21120-34613-01901-20000060D0000584D00081000031901      GGSL
NJARET21120-34613-01902-90000120D0001168D00042000091902      GGSL
NJARET21120-34613-01903-60000132D0001284D00031000191903      GGSL
NJARET21120-34613-01904-30000012D0000118D00000000001904      GGSL
NJARET21120-34613-01905-00000036D0000354D00004000001905      GGSL
NJARET21120-34613-01908-10000012D0000118D00001000011908      GGSL
NJARET21120-34613-03104-50000012D0000130D00054000023104      GGSL
NJARET21120-34613-04862-30000024D0000232D0006000008LH013BL   GGSL
NJARET21120-34613-04863-00000036D0000348D0003300008LH014BL   GGSL
NJARET21120-34613-04864-70000024D0000232D0001000001LH016BL   GGSL
NJARET21120-34613-25016-30000001D0000042D0000400000MDSTEL    GGSL
NJARET21120-34613-34010-90000050D0000040D0000000000CVS010    GGSL
NJARET21120-34613-59740-40000001D0000052D004590045659740     GGSL
NJARET21120-34613-59741-10000001D0000052D006190061959741     GGSL
NJARET21120-34613-65497-80000010D0000540D005410052965497     GGSL
NJARET21120-34613-65498-50000001D0000054D004370042165498     GGSL
NJARET21120-34613-65677-40000008D0000432D003000028865677     GGSL
NJARET21120-34613-65680-40000003D0000162D005270051665680     GGSL
NJARET21120-34613-65681-10000005D0000270D005930058965681     GGSL
NJARET21120-34613-65682-80000009D0000486D004690046565682     GGSL
NJARET21120-34613-65767-20000005D0000270D001160010765767     GGSL
NJARET21120-35000-05361-90000540D0000373D0034900005105375    GGSL
NJARET21120-35000-14112-50000108D0000535D001050000814477     GGSL
NJARET21120-35000-44627-50000600D0000630D0004300003144630    GGSL
NJARET21120-35000-44673-20000648D0000972D000160001644673     GGSL
NJARET21120-35000-45038-50000207D0000445D0000400004US04232A  GGSL
NJARET21120-35000-45041-50000018D0000039D0000400004US04229A  GGSL
NJARET21120-35000-45072-20000414D0001052D0000000000US04274A  GGSL
NJARET21120-35000-45118-40000279D0000600D0003100025US04268A  GGSL
NJARET21120-35000-45225-20000004D0000020D0005800000US04432A  GGSL
NJARET21120-35000-46157-50000012D0000077D000550001146157     GGSL
NJARET21120-35000-46413-20000300D0000315D000400000946413     GGSL
NJARET21120-35000-47041-60000042D0000113D0019700000MX06157A  GGSL
NJARET21120-35000-47805-40000198D0000467D000230001147805     GGSL
NJARET21120-35000-49110-70000076D0000281D000990000349110     GGSL
NJARET21120-35000-49860-10000006D0000015D000520000049860     GGSL
NJARET21120-35000-49861-80000168D0000400D000130000949861     GGSL
NJARET21120-35000-51119-50000324D0000923D0008400000151119    GGSL
NJARET21120-35000-53030-10000168D0000479D0006500006153043    GGSL
NJARET21120-35000-53032-50000432D0000994D0007800015153041    GGSL
NJARET21120-35000-53058-50000960D0004282D000000000053058     GGSL
NJARET21120-35000-53060-80000912D0010895D007430000153060     GGSL
NJARET21120-35000-53063-90000012D0000006D000000000053063     GGSL
NJARET21120-35000-53099-80000300D0000690D016480001753099     GGSL
NJARET21120-35000-53122-30000876D0005300D015620007853122     GGSL
NJARET21120-35000-96987-30000063D0000381D0025500009MX06813A  GGSL
NJARET21120-35000-97018-30000004D0000026D0008000000US06329A  GGSL
NJARET21120-35000-97298-90000036D0000190D0006200000US06490A  GGSL
NJARET21120-35000-97302-30000008D0000026D0007400000US06488A  GGSL
NJARET21120-35000-97336-80000788D0004712D0071400033US06516A  GGSL
NJARET21120-35000-97337-50000004D0000024D0002200000US06515A  GGSL
NJARET21120-35000-98601-60000081D0000174D0006800000US07368A  GGSL
NJARET21120-35000-98635-10000024D0000037D0003600002MX07179A  GGSL
NJARET21120-35110-01900-00000200D0001239D000520000101900     GGSL
NJARET21120-35110-01903-10000080D0000774D000350000001903     GGSL
NJARET21120-35110-04307-40000008D0000089D0003700001US05253A  GGSL
NJARET21120-35307-00404-80000012D0000050D0000100001404       GGSL
NJARET21120-35307-00781-00000012D0000125D0000100001781       GGSL
NJARET21120-35307-00782-70000036D0000374D0000100001782       GGSL
NJARET21120-35307-00803-90000024D0000048D0000000000803       GGSL
NJARET21120-35307-00805-30000024D0000066D0000000000805       GGSL
NJARET21120-35307-00808-40000012D0000033D0000100001808       GGSL
NJARET21120-35307-00812-10000360D0000994D0010000065812       GGSL
NJARET21120-35307-00816-90000048D0000077D0000100000816       GGSL
NJARET21120-35307-00817-60000012D0000032D0000200002817       GGSL
NJARET21120-35307-00818-30000036D0000075D0000000002818       GGSL
NJARET21120-35307-00819-00000084D0000186D0003300018819       GGSL
NJARET21120-35307-00820-60000024D0000046D0000200002820       GGSL
NJARET21120-35307-00826-80000324D0000716D0006200042826       GGSL
NJARET21120-35307-00827-50000300D0000682D0005600046827       GGSL
NJARET21120-35307-00828-20000024D0000066D0000000000828       GGSL
NJARET21120-35307-00834-30000036D0000125D0001200012834       GGSL
NJARET21120-35307-00835-00000060D0000398D0001700016835       GGSL
NJARET21120-35307-00838-10000012D0000042D0000500002838       GGSL
NJARET21120-35307-00839-80000084D0000302D0006500065839       GGSL
NJARET21120-35307-00840-40000300D0000828D0006000056840       GGSL
NJARET21120-35307-00841-10000228D0000472D0009900068841       GGSL
NJARET21120-35307-00843-50000012D0000041D0000900009843       GGSL
NJARET21120-35307-00844-20000156D0000432D0009600047844       GGSL
NJARET21120-35307-00845-90000024D0000109D0000200001845       GGSL
NJARET21120-35307-00846-60000072D0000259D0003100021846       GGSL
NJARET21120-35307-00848-00000036D0000087D0000500002848       GGSL
NJARET21120-35307-00861-90000048D0000166D0002200012861       GGSL
NJARET21120-35307-00862-60000036D0000125D0000800008862       GGSL
NJARET21120-35307-00864-00000060D0000269D0001000009864       GGSL
NJARET21120-35307-00865-70000012D0000050D0000200002865       GGSL
NJARET21120-35307-00869-50000012D0000125D0000600004869       GGSL
NJARET21120-35307-00874-90000072D0000120D0001700012874       GGSL
NJARET21120-35307-00875-60000060D0000249D0003100031875       GGSL
NJARET21120-35307-00877-00000012D0000020D0000000000877       GGSL
NJARET21120-35307-00914-20000072D0000498D0002500008914       GGSL
NJARET21120-35307-00916-60000192D0000530D0000900009916       GGSL
NJARET21120-35307-00917-30000192D0000611D0000600006917       GGSL
NJARET21120-35307-00967-80000060D0000149D0000400004967       GGSL
NJARET21120-35307-00970-80000048D0000465D0001300013970       GGSL
NJARET21120-35307-00971-50000036D0000199D0000500005971       GGSL
NJARET21120-35307-00972-20000108D0000708D0001600016972       GGSL
NJARET21120-35307-00977-70000168D0000497D0004700021977       GGSL
NJARET21120-35307-00978-40000096D0000664D0001800018978       GGSL
NJARET21120-35307-00979-10000072D0000099D0000000000979       GGSL
NJARET21120-35307-00980-70000192D0000330D0000900009980       GGSL
NJARET21120-35307-00985-20000048D0000132D0000200002985       GGSL
NJARET21120-35307-00987-60000204D0000916D0000800008987       GGSL
NJARET21120-35307-01030-80000024D0000056D00000000001030      GGSL
NJARET21120-35307-01035-30000168D0000464D00002000021035      GGSL
NJARET21120-35307-01040-70000120D0000415D00003000031040      GGSL
NJARET21120-35307-01045-20000120D0000539D00012000081045      GGSL
NJARET21120-35307-01050-60000096D0000531D00002000021050      GGSL
NJARET21120-35307-01601-00000108D0001420D00058000581601      GGSL
NJARET21120-35307-01612-60000288D0001394D00074000631612      GGSL
NJARET21120-35307-01625-60000018D0000224D00003000031625      GGSL
NJARET21120-35307-01635-50000012D0000191D00001000001635      GGSL
NJARET21120-35307-01640-90000012D0000083D00002000021640      GGSL
NJARET21120-35307-01810-60000264D0001404D00038000381810      GGSL
NJARET21120-35307-01815-10000144D0000996D00030000281815      GGSL
NJARET21120-35307-01817-50000018D0000149D000030000318176     GGSL
NJARET21120-35307-01818-20000012D0000133D000010000118186     GGSL
NJARET21120-35307-01825-00000060D0000664D00004000041825      GGSL
NJARET21120-35307-01845-80000048D0000598D00007000071845      GGSL
NJARET21120-35307-01845-80000006D0000075D000000000018456     GGSL
NJARET21120-35307-01860-10000012D0000224D00001000011860      GGSL
NJARET21120-35307-90868-10000010D0000050D0001500004868       GGSL
NJARET21120-35951-07000-00000492D0005233D000190001007000     GGSL
NJARET21120-35951-07009-30000012D0000267D000340000007009     GGSL
NJARET21120-35951-07011-60000004D0000281D000290000107011     GGSL
NJARET21120-36074-12002-30000024D0000110D0001000000BC07      GGSL
NJARET21120-36151-46825-30000018D0000577D00218000022646825   GGSL
NJARET21120-36241-97402-20000012D0000058D0032200000974022    GGSL
NJARET21120-36348-00745-60000012D0000318D00049000150745      GGSL
NJARET21120-36348-01020-30000008D0000142D00045000041020      GGSL
NJARET21120-36348-01025-80000016D0000468D00061000201025      GGSL
NJARET21120-36348-01045-60000001D0000065D00008000021045      GGSL
NJARET21120-36348-01078-40000010D0000391D00013000021078      GGSL
NJARET21120-36348-01079-10000001D0000056D00021000021079      GGSL
NJARET21120-36348-01083-80000001D0000037D00001000011083      GGSL
NJARET21120-36348-01085-20000006D0000419D00022000091085      GGSL
NJARET21120-36434-00009-50000108D0001596D00083000091000009   GGSL
NJARET21120-36434-11000-80000024D0000256D00052000016011000   GGSL
NJARET21120-36434-12342-80000018D0000121D00010000026012342   GGSL
NJARET21120-36434-12345-90000120D0001435D00049000021012345   GGSL
NJARET21120-36434-12346-60000036D0000176D00038000096012346   GGSL
NJARET21120-36434-12353-40000024D0000423D00004000046012353   GGSL
NJARET21120-36434-12363-30000012D0000441D00020000151012363   GGSL
NJARET21120-36434-12420-30000072D0000840D00068000141012420   GGSL
NJARET21120-36434-12700-60000384D0003491D00118000471012700   GGSL
NJARET21120-36434-12710-50000096D0000760D00056000051012710   GGSL
NJARET21120-36434-12720-40000168D0001178D00065000161012720   GGSL
NJARET21120-36434-12743-30000006D0000056D00000000001012743   GGSL
NJARET21120-36434-12860-70000036D0000516D00031000051012860   GGSL
NJARET21120-36434-13001-30000072D0000408D00041000061013001   GGSL
NJARET21120-36434-13200-00000006D0000032D00009000026013200   GGSL
NJARET21120-36434-13700-50000180D0001604D00028000021032700   GGSL
NJARET21120-36434-13812-50000060D0001168D00055000221013812   GGSL
NJARET21120-36434-13860-60000048D0000779D00050000111013860   GGSL
NJARET21120-36434-15000-40000018D0000629D00025000151015000   GGSL
NJARET21120-36434-15020-20000024D0000454D00058000181015020   GGSL
NJARET21120-36434-15030-10000030D0000677D00057000041015030   GGSL
NJARET21120-36434-15040-00000048D0000517D00059000181015040   GGSL
NJARET21120-36434-15060-80000036D0000588D00027000131015050   GGSL
NJARET21120-36434-15060-80000060D0000980D00045000131015060   GGSL
NJARET21120-36434-15070-70000006D0000088D00042000031015070   GGSL
NJARET21120-36434-17000-20000018D0000841D00018000041017000   GGSL
NJARET21120-36434-17010-10000054D0001270D00074000231017010   GGSL
NJARET21120-36434-17020-00000042D0000705D00008000081017020   GGSL
NJARET21120-36434-18037-70000036D0000332D00003000021018037   GGSL
NJARET21120-36434-20000-60000036D0000873D00057000001020000   GGSL
NJARET21120-36434-22318-00000006D0000026D00007000036022318   GGSL
NJARET21120-36434-22345-60000060D0000703D00043000031022345   GGSL
NJARET21120-36434-22348-70000008D0000081D00001000011022348   GGSL
NJARET21120-36434-22358-60000006D0000084D00000000001022358   GGSL
NJARET21120-37000-00992-40000024D0000267D001140002000992     GGSL
NJARET21120-37000-00995-50000008D0000089D000220000600995     GGSL
NJARET21120-37000-00997-90000020D0000222D000000000000997     GGSL
NJARET21120-37000-07312-30000048D0000422D000310000207312     GGSL
NJARET21120-37000-19744-70000076D0000297D000760001497584     GGSL
NJARET21120-37000-23542-20000012D0000072D000230000223542     GGSL
NJARET21120-37000-23679-50000028D0000113D002570000277810     GGSL
NJARET21120-37000-31821-70000864D0003100D000000000013093     GGSL
NJARET21120-37000-31836-10000093D0000652D006980001531836     GGSL
NJARET21120-37000-35154-20000102D0000366D001270004808622     GGSL
NJARET21120-37000-40215-20000004D0000044D003240000340215     GGSL
NJARET21120-37000-41827-60000040D0000403D004030002341827     GGSL
NJARET21120-37000-73977-70000012D0000120D000620000773977     GGSL
NJARET21120-37000-76337-60000012D0000092D001770000676337     GGSL
NJARET21120-37000-92815-70000132D0001333D002370004092815     GGSL
NJARET21120-37000-99042-00000008D0000055D001230000099042     GGSL
NJARET21120-37321-00020-40000192D0001920D0013200025020       GGSL
NJARET21120-37321-00022-80000060D0000404D0002700014022       GGSL
NJARET21120-37321-00022-80001074D0007937D00356002020226      GGSL
NJARET21120-37321-00023-50000056D0001231D0007700075023       GGSL
NJARET21120-37321-00024-20000456D0006826D0008700063024       GGSL
NJARET21120-37321-00025-90000288D0002724D0011500053025       GGSL
NJARET21120-37321-00026-60000234D0003591D00155000350266      GGSL
NJARET21120-37321-00029-70000012D0000075D0000000000029       GGSL
NJARET21120-37321-00050-10000216D0000235D0005200024050       GGSL
NJARET21120-37321-00051-80000126D0001646D0010300046051       GGSL
NJARET21120-37321-00061-70000252D0002031D0013900044061       GGSL
NJARET21120-37321-00065-50000120D0000678D0006000011065       GGSL
NJARET21120-37321-00066-20000096D0001248D0003700025066       GGSL
NJARET21120-37321-00068-60000036D0000210D0005900009068       GGSL
NJARET21120-37321-00069-30000168D0002411D0002000004069       GGSL
NJARET21120-37321-00070-90000048D0000785D0006200008070       GGSL
NJARET21120-37321-00081-50000084D0000595D0003100016081       GGSL
NJARET21120-37321-00097-60000120D0000688D0006000021097       GGSL
NJARET21120-37321-00098-30000135D0000671D0001300005098       GGSL
NJARET21120-37321-00099-00000096D0000697D0003200009099       GGSL
NJARET21120-37321-00102-70000084D0001054D0002200001102       GGSL
NJARET21120-37321-00103-40000004D0000150D0002000005103       GGSL
NJARET21120-37321-00105-80000048D0000149D0002900010105       GGSL
NJARET21120-37321-00106-50000252D0000799D0008000017106       GGSL
NJARET21120-37321-00107-20000276D0000867D0015600022107       GGSL
NJARET21120-37321-00108-90000360D0001130D0006600037108       GGSL
NJARET21120-37321-00110-20000224D0000791D0014400069110       GGSL
NJARET21120-37321-00112-60000520D0001815D0031100197112       GGSL
NJARET21120-37321-00114-00000280D0000986D0014900025114       GGSL
NJARET21120-37321-00116-40000280D0000979D0006900012116       GGSL
NJARET21120-37321-00120-10000336D0002167D0005500038120       GGSL
NJARET21120-37321-00121-80000088D0001145D0003000016121       GGSL
NJARET21120-37321-00123-20000012D0000054D0001200002123       GGSL
NJARET21120-37321-00127-00000360D0003215D0009900041127       GGSL
NJARET21120-37321-00141-60000168D0000823D0008700027141       GGSL
NJARET21120-37321-00142-30000024D0000235D00039000101428      GGSL
NJARET21120-37321-00148-50000168D0001791D0003900018148       GGSL
NJARET21120-37321-00150-80000300D0005190D0009200043150       GGSL
NJARET21120-37321-00166-90000012D0000070D0001900003166       GGSL
NJARET21120-37321-00167-60000198D0001293D00139000791676      GGSL
NJARET21120-37321-00171-30000048D0000470D0004700018171       GGSL
NJARET21120-37321-00196-60000144D0000910D0007800021196       GGSL
NJARET21120-37321-00197-30000288D0001846D0010000017197       GGSL
NJARET21120-37321-00198-00000048D0000577D0000900002198       GGSL
NJARET21120-37321-00202-40000090D0001026D00127000362026      GGSL
NJARET21120-37321-00204-80000012D0000362D0003800012204       GGSL
NJARET21120-37321-00210-90000012D0000000D0000400001210       GGSL
NJARET21120-37321-00210-90000180D0001220D00132000452106      GGSL
NJARET21120-37321-00211-60000024D0000103D0001800001211       GGSL
NJARET21120-37321-00211-60000210D0001995D00073000382116      GGSL
NJARET21120-37321-00212-30000036D0000817D0004600026212       GGSL
NJARET21120-37321-00213-00000336D0003851D0002300007213       GGSL
NJARET21120-37321-00214-70001032D0006076D0024800046214       GGSL
NJARET21120-37321-00216-10000204D0003672D0004300025216       GGSL
NJARET21120-37321-00217-80000084D0000930D0003600027217       GGSL
NJARET21120-37321-00218-50000102D0001664D00050000162186      GGSL
NJARET21120-37321-00221-50000312D0001859D0009500039221       GGSL
NJARET21120-37321-00225-30000012D0000073D0000100001225       GGSL
NJARET21120-37321-00227-70000108D0001356D0003800026227       GGSL
NJARET21120-37321-00230-70000096D0000880D00087000732306      GGSL
NJARET21120-37321-00237-60000102D0001417D00083000372376      GGSL
NJARET21120-37321-00238-30000012D0000105D0001100011238       GGSL
NJARET21120-37321-00238-30000756D0006852D00365001742386      GGSL
NJARET21120-37321-00239-00000120D0002950D0010900035239       GGSL
NJARET21120-37321-00240-60000126D0002239D00065000512406      GGSL
NJARET21120-37321-00250-50000024D0000000D0001500001250       GGSL
NJARET21120-37321-00250-50000504D0002821D00219000872506      GGSL
NJARET21120-37321-00252-90000060D0000301D0003000002252       GGSL
NJARET21120-37321-00252-90000114D0001522D00257000782526      GGSL
NJARET21120-37321-00253-60000108D0002295D0004700021253       GGSL
NJARET21120-37321-00255-00000216D0005009D0012400040255       GGSL
NJARET21120-37321-00257-40000012D0000000D0002600002257       GGSL
NJARET21120-37321-00257-40000204D0000860D00047000302576      GGSL
NJARET21120-37321-00258-10000024D0000174D00036000132586      GGSL
NJARET21120-37321-00272-70000072D0000352D00044000302726      GGSL
NJARET21120-37321-00274-10000180D0001244D002720004927466     GGSL
NJARET21120-37321-00285-70000168D0001047D0010300022285       GGSL
NJARET21120-37321-00301-40000060D0000556D0004100010301       GGSL
NJARET21120-37321-00307-60000456D0002253D0016500055307       GGSL
NJARET21120-37321-00308-30000080D0000890D0002300004308       GGSL
NJARET21120-37321-00309-00000204D0004021D0012700038309       GGSL
NJARET21120-37321-00312-00000060D0001289D0003400020312       GGSL
NJARET21120-37321-00321-20000012D0000048D0000000000321       GGSL
NJARET21120-37321-00330-40000048D0000499D0000400002330       GGSL
NJARET21120-37321-00363-20000216D0001062D0001200013363       GGSL
NJARET21120-37321-00370-00000240D0001178D0002800016370       GGSL
NJARET21120-37321-00371-70000012D0000000D0000500001371       GGSL
NJARET21120-37321-00371-70000084D0000533D00022000053716      GGSL
NJARET21120-37321-00372-40000072D0000787D0003100015372       GGSL
NJARET21120-37321-00411-00000072D0000267D0005300008411       GGSL
NJARET21120-37321-00412-70000048D0000275D0004600001412       GGSL
NJARET21120-37321-00413-40000016D0000208D0000400000413       GGSL
NJARET21120-37321-00426-40000540D0006086D0017400097426       GGSL
NJARET21120-37321-00428-80001032D0004438D0049700162428       GGSL
NJARET21120-37321-00429-50000015D0000322D0005600015429       GGSL
NJARET21120-37321-00442-40000204D0001438D0006200012442       GGSL
NJARET21120-37321-00443-10000060D0000724D0001700011443       GGSL
NJARET21120-37321-00506-30000012D0000056D0004500006506       GGSL
NJARET21120-37321-00506-30000132D0000651D00051000075066      GGSL
NJARET21120-37321-00527-80000048D0000223D0002200006527       GGSL
NJARET21120-37321-00530-80000012D0000130D0004900011530       GGSL
NJARET21120-37321-00532-20000004D0000045D0002000004532       GGSL
NJARET21120-37321-00543-80000132D0000459D00051000145436      GGSL
NJARET21120-37321-00544-50000036D0000224D00052000235446      GGSL
NJARET21120-37321-00549-00000012D0000119D0001800002549       GGSL
NJARET21120-37321-00564-30000108D0001223D00038000225646      GGSL
NJARET21120-37321-00571-10000024D0000221D0001200003571       GGSL
NJARET21120-37321-00573-50000048D0000238D0000400000573       GGSL
NJARET21120-37321-00574-20000016D0000184D0000200001574       GGSL
NJARET21120-37321-00578-00000012D0000147D0000300001578       GGSL
NJARET21120-37321-00603-90000004D0000055D0004600002603       GGSL
NJARET21120-37321-00603-90000040D0000428D003410027460315X    GGSL
NJARET21120-37321-00609-10000192D0002239D0011900030609       GGSL
NJARET21120-37321-00611-40000152D0003114D0015200056611       GGSL
NJARET21120-37321-00611-40000024D0000611D000000000061146     GGSL
NJARET21120-37321-00612-10000540D0003051D00112000520612      GGSL
NJARET21120-37321-00613-80000076D0001105D00061000230613      GGSL
NJARET21120-37321-00622-00000156D0000573D0003600012622       GGSL
NJARET21120-37321-00623-70000072D0000531D0001300010623       GGSL
NJARET21120-37321-00629-90000228D0000819D0003700021629       GGSL
NJARET21120-37321-00631-20000120D0000520D0011400111631       GGSL
NJARET21120-37321-00651-00000008D0000112D00017000050651      GGSL
NJARET21120-37321-00652-70000012D0000024D0001000007652       GGSL
NJARET21120-37321-00652-70000060D0000343D00110000346526      GGSL
NJARET21120-37321-00655-80000186D0001376D00044000266556      GGSL
NJARET21120-37321-00681-70000008D0000117D00016000030681      GGSL
NJARET21120-37321-00688-60000384D0002726D00155000926886      GGSL
NJARET21120-37321-00690-90000072D0000837D0003000019690       GGSL
NJARET21120-37321-00691-60000027D0000237D000050000569127     GGSL
NJARET21120-37321-00692-30000040D0000549D0019500021692       GGSL
NJARET21120-37321-00692-30000052D0000644D0022900078692X      GGSL
NJARET21120-37321-00692-30000300D0003714D0000900003692150    GGSL
NJARET21120-37321-00692-30000150D0001956D000060000169250     GGSL
NJARET21120-37321-00697-80000036D0000154D0001800009697       GGSL
NJARET21120-37321-00698-50000012D0000075D0000300004698       GGSL
NJARET21120-37321-00705-00000240D0001651D0004800023705       GGSL
NJARET21120-37321-00728-90000120D0001669D0003300025728       GGSL
NJARET21120-37321-00730-20000096D0000596D0004700012730       GGSL
NJARET21120-37321-00731-90000012D0000129D0004000001731       GGSL
NJARET21120-37321-00753-10000024D0000259D0001400003753       GGSL
NJARET21120-37321-00754-80000008D0000252D0000500000754       GGSL
NJARET21120-37321-00757-90000018D0000083D0000700007757       GGSL
NJARET21120-37321-00758-60000200D0001394D0006800006758       GGSL
NJARET21120-37321-00771-50000300D0001662D0009100031771       GGSL
NJARET21120-37321-00775-30000012D0000072D0000000000775       GGSL
NJARET21120-37321-00775-30000906D0005681D00277001617756      GGSL
NJARET21120-37321-00777-70000036D0000373D0000300003777       GGSL
NJARET21120-37321-00784-50000036D0000114D0007900027784       GGSL
NJARET21120-37321-00786-90000078D0000430D00076000207866      GGSL
NJARET21120-37321-00788-30000024D0000159D0001500012788       GGSL
NJARET21120-37321-00789-00000005D0000039D0075400147789       GGSL
NJARET21120-37321-00802-60000108D0000673D0002800025802       GGSL
NJARET21120-37321-00803-30000024D0000000D0004800002803       GGSL
NJARET21120-37321-00806-40000060D0000538D0000500005806       GGSL
NJARET21120-37321-00806-40000090D0000806D00059000488066      GGSL
NJARET21120-37321-00807-10000012D0000334D0000200000807       GGSL
NJARET21120-37321-00811-80000168D0002093D00119000798116      GGSL
NJARET21120-37321-00813-20000210D0003270D0007400048813       GGSL
NJARET21120-37321-00814-90000018D0000456D0003800022814       GGSL
NJARET21120-37321-00857-60000084D0000809D0001100010857       GGSL
NJARET21120-37321-00858-30000012D0000191D0000400001858       GGSL
NJARET21120-37321-00865-10000408D0002329D0007300018865       GGSL
NJARET21120-37321-00868-20000012D0000172D0004300006868       GGSL
NJARET21120-37321-00870-50000012D0000060D0000000000870       GGSL
NJARET21120-37321-00876-70000012D0000081D0000600000876       GGSL
NJARET21120-37321-00880-40000084D0001110D0004000022880       GGSL
NJARET21120-37321-00883-50000060D0000127D0022200047883       GGSL
NJARET21120-37321-00883-50000174D0000952D00169000598836      GGSL
NJARET21120-37321-00894-10000012D0000113D0000100001894       GGSL
NJARET21120-37321-00897-20000012D0000000D0001600006897       GGSL
NJARET21120-37321-00897-20000516D0003834D00104000558976      GGSL
NJARET21120-37321-00903-00000048D0000347D0000800005903       GGSL
NJARET21120-37321-00904-70000012D0000119D0000100001904       GGSL
NJARET21120-37321-00905-40000108D0001757D0001200012905       GGSL
NJARET21120-37321-00908-50000024D0000279D00016000169086      GGSL
NJARET21120-37321-00909-20000024D0000518D0000200002909       GGSL
NJARET21120-37321-00917-70000024D0000362D0000800008917       GGSL
NJARET21120-37321-00925-20001116D0003654D0045800221925       GGSL
NJARET21120-37321-00939-90000120D0001522D0005600009939       GGSL
NJARET21120-37321-00941-20000648D0007640D0017500066941       GGSL
NJARET21120-37321-00944-30000012D0000000D0000200000944       GGSL
NJARET21120-37321-00946-70000004D0000037D0000000000946       GGSL
NJARET21120-37321-00951-10000828D0003894D0014300099951       GGSL
NJARET21120-37321-00963-40000012D0000000D0001300000963       GGSL
NJARET21120-37321-00978-80000135D0000742D0002600026978       GGSL
NJARET21120-37321-00982-50000180D0000842D0008100022982       GGSL
NJARET21120-37321-00987-00000024D0000238D0000900009987       GGSL
NJARET21120-37321-01971-80000072D0000361D00015000051971      GGSL
NJARET21120-37321-01972-50000036D0000167D00030000121972      GGSL
NJARET21120-37321-02021-90000060D0001047D00043000112021      GGSL
NJARET21120-37321-02031-80000012D0000399D00020000022031      GGSL
NJARET21120-37321-02061-50000060D0001191D00029000072061      GGSL
NJARET21120-37321-02071-40000030D0001067D00020000022071      GGSL
NJARET21120-37321-02360-90000432D0003405D000340003423606     GGSL
NJARET21120-37321-02361-60000308D0003930D001100005023614     GGSL
NJARET21120-37321-02361-60000048D0000635D000100000823618     GGSL
NJARET21120-37321-02362-30000108D0002271D00177001052362      GGSL
NJARET21120-37321-02392-00000009D0000322D00030000132392      GGSL
NJARET21120-37321-02600-60000120D0001652D00038000162600      GGSL
NJARET21120-37321-02601-30000054D0001265D00056000142601      GGSL
NJARET21120-37321-02602-00000150D0000946D00097000302602      GGSL
NJARET21120-37321-02603-70000068D0001096D00057000202603      GGSL
NJARET21120-37321-02608-20000012D0001306D00012000032608      GGSL
NJARET21120-37321-02610-50000156D0001051D00086000542610      GGSL
NJARET21120-37321-02611-20000036D0000590D00054000182611      GGSL
NJARET21120-37321-02612-90000126D0002229D00075000262612      GGSL
NJARET21120-37321-02613-60000090D0000941D00023000082613      GGSL
NJARET21120-37321-02615-00000003D0000066D00037000092615      GGSL
NJARET21120-37321-02616-70000052D0001088D00026000122616      GGSL
NJARET21120-37321-02761-40000006D0000139D00000000002761      GGSL
NJARET21120-37321-03081-20000009D0000207D00051000273081      GGSL
NJARET21120-37321-03082-90000015D0000323D00027000093082      GGSL
NJARET21120-37321-04281-50000042D0000963D00014000074281      GGSL
NJARET21120-37321-05121-30000072D0000473D00024000105121      GGSL
NJARET21120-37321-05131-20000040D0000650D00045000435131      GGSL
NJARET21120-37321-05710-90000060D0000415D00003000015710      GGSL
NJARET21120-37321-07461-80000024D0000310D00004000047461      GGSL
NJARET21120-37321-07462-50000004D0000153D00000000007462      GGSL
NJARET21120-37321-07465-60000004D0000141D00000000007465      GGSL
NJARET21120-37321-07490-80000006D0000038D00298002127490      GGSL
NJARET21120-37321-07493-90000003D0000064D00019000037493      GGSL
NJARET21120-37321-07498-40000012D0000152D00009000067498      GGSL
NJARET21120-37321-08636-90000150D0001897D00062000138636      GGSL
NJARET21120-37321-08751-90000036D0000199D00017000048751      GGSL
NJARET21120-37321-09534-70000099D0001256D000130001395349     GGSL
NJARET21120-37321-20691-00000003D0000174D000040000020691     GGSL
NJARET21120-37321-45100-60000024D0000126D000040000045100     GGSL
NJARET21120-37321-45502-80000144D0000802D000170000445502     GGSL
NJARET21120-37321-45602-50000096D0000558D000160000645602     GGSL
NJARET21120-37321-45672-80000120D0000905D000180000745672     GGSL
NJARET21120-37321-45702-20000120D0000835D000160000545702     GGSL
NJARET21120-37321-46125-80000070D0000148D000020000146125     GGSL
NJARET21120-37321-46126-50000200D0000038D000000000046126     GGSL
NJARET21120-37321-46178-40000012D0000190D000010000146178     GGSL
NJARET21120-37321-46186-90000009D0000209D000010000046186     GGSL
NJARET21120-37321-46190-60000144D0000498D000270000446190     GGSL
NJARET21120-37321-46540-90000016D0000105D000280000146540     GGSL
NJARET21120-37321-47062-50000336D0000282D000470000447062     GGSL
NJARET21120-37321-60214-90000020D0000507D000130000260215     GGSL
NJARET21120-37321-60227-90000005D0000309D000170000260227     GGSL
NJARET21120-37321-60251-40000020D0000194D000040000060252     GGSL
NJARET21120-37321-60254-50000010D0000223D000000000060255     GGSL
NJARET21120-37321-60318-40000055D0001560D002660004460318     GGSL
NJARET21120-37321-60360-30000020D0000229D005370002260360X    GGSL
NJARET21120-37321-60365-80000005D0000164D003550005060365     GGSL
NJARET21120-37321-60447-10000040D0000513D000000000060448X    GGSL
NJARET21120-37321-60454-90000008D0000132D004000000060454     GGSL
NJARET21120-37321-60460-00000005D0000067D002050013060460     GGSL
NJARET21120-37321-60464-80000046D0001654D000000000060464     GGSL
NJARET21120-37321-60476-10000005D0000067D008910006660478X    GGSL
NJARET21120-37321-60490-70000025D0000434D001150006960490     GGSL
NJARET21120-37321-60514-00000060D0000885D000460002260514     GGSL
NJARET21120-37321-60514-00000036D0000425D005560030560516X    GGSL
NJARET21120-37321-60613-00000108D0001058D000380002060613     GGSL
NJARET21120-37321-60725-00000018D0000147D000230001560725     GGSL
NJARET21120-37321-60728-10000005D0000065D020550031560728     GGSL
NJARET21120-37321-61117-20000012D0000143D000060000461117     GGSL
NJARET21120-37321-61118-90000048D0000572D000250001461120     GGSL
NJARET21120-38241-51703-20000004D0000035D000000000051703     GGSL
NJARET21120-38313-00005-90000048D0001107D0000100001GS6750D   GGSL
NJARET21120-38313-00006-60000024D0000434D0000200001FS4310    GGSL
NJARET21120-38313-00007-30000006D0000283D0000000000HS6920    GGSL
NJARET21120-38313-00008-00000084D0001725D0004700012BP3130    GGSL
NJARET21120-38313-00060-80000174D0003661D0013700020BP3160    GGSL
NJARET21120-38313-00079-00000006D0000329D0000000000HS6960    GGSL
NJARET21120-38313-00080-60000216D0004983D0013200028BP3180D   GGSL
NJARET21120-38313-00081-30000078D0000813D0001900009AC7220    GGSL
NJARET21120-38313-00214-50000012D0000242D0000100000AG5030    GGSL
NJARET21120-38313-00217-60000048D0000988D0000300001FS4350    GGSL
NJARET21120-38313-00407-10000048D0000898D0002200005RS7041    GGSL
NJARET21120-38313-00413-20000014D0000287D0000100000 RS7120   GGSL
NJARET21120-38313-00413-20000006D0000147D0000200001RS7120    GGSL
NJARET21120-38313-00524-50000036D0000962D0002200003SL3310    GGSL
NJARET21120-38313-00526-90000012D0000386D0000100001WL3351    GGSL
NJARET21120-38313-00555-90000096D0001371D0001100004GS3750D   GGSL
NJARET21120-38313-01010-20000510D0002815D0027900078CT3010    GGSL
NJARET21120-38313-01020-10000186D0001027D0019400041CT3020    GGSL
NJARET21120-38313-01030-00000108D0000596D0014000020CT3030    GGSL
NJARET21120-38313-01040-90000006D0000033D0001200000CT3040    GGSL
NJARET21120-38313-03050-60000042D0000390D0000800003GT3050    GGSL
NJARET21120-38313-03060-50000054D0000502D0001800011GT3060    GGSL
NJARET21120-38313-03070-40000036D0000334D0000300002GT3070    GGSL
NJARET21120-38313-03080-30000066D0000613D0001900011GT3080    GGSL
NJARET21120-38313-03090-20000030D0000279D0000300002GT3090    GGSL
NJARET21120-38313-03204-30000018D0000222D0000200001FS3204    GGSL
NJARET21120-38313-03214-20000312D0003853D0005500017BP3214D   GGSL
NJARET21120-38313-03230-20000018D0000216D0000500005RP3230    GGSL
NJARET21120-38313-03234-00000048D0000627D0000600006AP3234    GGSL
NJARET21120-38313-03244-90000024D0000540D0000600004HS3244    GGSL
NJARET21120-38313-03264-70000024D0000521D0000300003SL3264    GGSL
NJARET21120-38313-03334-70000042D0000543D0003200001AP3334    GGSL
NJARET21120-38313-03344-60000030D0000836D0000000000HS3344    GGSL
NJARET21120-38313-03394-10000204D0001952D0003000000FS3394    GGSL
NJARET21120-38313-03634-80000012D0000385D0000000000LG3634    GGSL
NJARET21120-38313-03694-20000004D0000149D0000000000LG3694    GGSL
NJARET21120-38313-03710-90000198D0001384D0006400018CT3710    GGSL
NJARET21120-38313-03720-80000180D0001258D0004300010CT3720    GGSL
NJARET21120-38313-03730-70000090D0000629D0005100006CT3730    GGSL
NJARET21120-38313-03740-60000132D0000923D0005100004CT3740    GGSL
NJARET21120-38313-03750-50000120D0000839D0002300008CT3750    GGSL
NJARET21120-38313-04060-40000006D0000069D0000000000RC4060    GGSL
NJARET21120-38313-04110-60000030D0000611D0000200001AL4110    GGSL
NJARET21120-38313-04111-30000048D0000209D0000200001FS4110    GGSL
NJARET21120-38313-04122-90000012D0000125D0000400001FS4120    GGSL
NJARET21120-38313-04133-50000012D0000116D0000600005FS4130    GGSL
NJARET21120-38313-04180-90000036D0000474D0000400004BP4180    GGSL
NJARET21120-38313-04220-20000066D0001359D0000900003AH4220    GGSL
NJARET21120-38313-04244-80000012D0000344D0000200001HS4244    GGSL
NJARET21120-38313-04344-50000006D0000213D0000200001HS4344    GGSL
NJARET21120-38313-04364-30000018D0000627D0000100000SL4364    GGSL
NJARET21120-38313-04436-70000006D0000197D0001400004FL3460    GGSL
NJARET21120-38313-04438-10000012D0000398D0001700004FL3420    GGSL
NJARET21120-38313-04840-20000018D0000464D0000000000BP4840    GGSL
NJARET21120-38313-04930-00000012D0000093D0000200001AG4930    GGSL
NJARET21120-38313-04931-70000072D0000590D0000700005AG4930SS  GGSL
NJARET21120-38313-06041-10000012D0000093D0000000000MA60041   GGSL
NJARET21120-38313-06830-10000001D0000072D0000400004 TP6830   GGSL
NJARET21120-38313-06870-70000004D0000434D0000000000TP6870    GGSL
NJARET21120-38313-06940-70000006D0000258D0000100000AH6940    GGSL
NJARET21120-38313-06970-40000006D0000286D0000100000AH6970    GGSL
NJARET21120-38313-07180-60000006D0000246D0000100000SL7180    GGSL
NJARET21120-38313-07245-20000024D0000464D0001200003RS7245    GGSL
NJARET21120-38313-07280-30000006D0000246D0000000000SL7280    GGSL
NJARET21120-38313-07900-00000006D0000270D0000000000QS7900    GGSL
NJARET21120-38313-08300-70000096D0000708D0000300001AC8300    GGSL
NJARET21120-38313-10720-80000024D0000596D0000200000BP7200    GGSL
NJARET21120-38313-13214-90000054D0000547D0000200002FS3214D   GGSL
NJARET21120-38313-13640-60000030D0000489D0000000000BP3640    GGSL
NJARET21120-38313-13670-30000012D0000299D0000000000BP3670    GGSL
NJARET21120-38313-14214-80000008D0000192D0000500000BP4214D   GGSL
NJARET21120-38313-14224-70000008D0000192D0000100001RP4224D   GGSL
NJARET21120-38313-14314-50000006D0000102D0000400002BP4314D   GGSL
NJARET21120-38313-15147-80000012D0000674D0000100000AL15147   GGSL
NJARET21120-38313-15148-50000006D0000358D0000200000AL15148   GGSL
NJARET21120-38313-15149-20000018D0001147D0000100000AL15149   GGSL
NJARET21120-38313-15180-50000024D0000577D0000600004BP15180   GGSL
NJARET21120-38313-15408-00000024D0000221D0000000000CT15408   GGSL
NJARET21120-38313-15409-70000064D0000835D0000500003CT15409   GGSL
NJARET21120-38313-16020-30000006D0000152D0000000000RS16020   GGSL
NJARET21120-38313-16120-00000012D0000247D0000300002RS16120   GGSL
NJARET21120-38313-16340-20000018D0000656D0000100000BP6340    GGSL
NJARET21120-38313-17100-10000024D0000596D0000400002BP7100D   GGSL
NJARET21120-38313-20001-50000002D0000053D0000000000PD20000   GGSL
NJARET21120-38313-20004-60000012D0000201D0000000000CV20004   GGSL
NJARET21120-38313-20021-30000012D0000251D0000200002RK20002   GGSL
NJARET21120-38313-20022-00000012D0000250D0000000000RK20022   GGSL
NJARET21120-38313-21050-20000030D0000167D0000300001CT3050    GGSL
NJARET21120-38313-22000-60000018D0000383D0000000000UT20000   GGSL
NJARET21120-38313-22001-30000006D0000066D0000000000CV22000   GGSL
NJARET21120-38313-24003-50000024D0000333D0000000000RK24003   GGSL
NJARET21120-38313-25008-90000036D0000216D0000100000RK25008   GGSL
NJARET21120-38313-25024-90000024D0000219D0000000000RK25024   GGSL
NJARET21120-38313-25130-70000024D0000436D0000000000RK25030   GGSL
NJARET21120-38313-26001-90000018D0000282D0000200000SS26010   GGSL
NJARET21120-38313-26020-00000012D0000203D0000300000SS26020   GGSL
NJARET21120-38313-26100-90000012D0000149D0000200000SS26000   GGSL
NJARET21120-38313-29000-90000012D0000275D0000100001SS29000   GGSL
NJARET21120-38313-29003-00000006D0000169D0000000000SS29030   GGSL
NJARET21120-38313-32441-40000004D0000050D0000000000GT3244    GGSL
NJARET21120-38313-32541-10000004D0000048D0000200001GT3254    GGSL
NJARET21120-38313-33140-50000080D0000777D0002600002CT3314    GGSL
NJARET21120-38313-33240-20000056D0000531D0000400001CT3324    GGSL
NJARET21120-38313-33340-90000040D0000394D0000300001CT3334    GGSL
NJARET21120-38313-33440-60000008D0000079D0000100000CT3344    GGSL
NJARET21120-38313-33540-30000024D0000226D0000300000CT3354    GGSL
NJARET21120-38313-33640-00000024D0000264D0000400004CT3364    GGSL
NJARET21120-38313-36041-20000004D0000091D0000000000LG3604    GGSL
NJARET21120-38313-36241-60000004D0000136D0000000000LG3624    GGSL
NJARET21120-38313-36541-70000012D0000313D0000200000LG3654    GGSL
NJARET21120-38313-36841-80000036D0001154D0000000000LG3684    GGSL
NJARET21120-38313-40002-60000006D0000218D0000000000PD40000   GGSL
NJARET21120-38313-45026-70000006D0000130D0000000000RK45026   GGSL
NJARET21120-38313-45367-10000006D0000228D0000000000RS16290   GGSL
NJARET21120-38313-53841-50000028D0001660D0000800005TP3841    GGSL
NJARET21120-38313-60012-90000006D0000106D0000100000MA60062   GGSL
