TXBWIC21120-00402-00000-00001800D0091191D0592100051          GGSL
TXBWIC21120-00402-01012-60000088D0000000D00665000021012      GGSL
TXBWIC21120-00402-01014-00000344D0010157D03001000051014      GGSL
TXBWIC21120-00402-01492-60000012D0000037D001510000014SSB     GGSL
TXBWIC21120-00402-01499-50000010D0000031D000500000014SS      GGSL
TXBWIC21120-00402-01621-70000075D0000312D003500012516BA      GGSL
TXBWIC21120-00402-02419-20000010D0000197D000360000110XS-20   GGSL
TXBWIC21120-00402-02540-00000025D0000085D0000000000B54       GGSL
TXBWIC21120-00402-02699-50000340D0000408D018600010010XS-20B  GGSL
TXBWIC21120-00402-02750-60001200D0004562D0135000150B75       GGSL
TXBWIC21120-00402-10142-80000457D0021081D019100004410145B    GGSL
TXBWIC21120-00402-10147-30000011D0000000D00213000001014 G    GGSL
TXBWIC21120-00402-11730-60000125D0000450D006000000011730     GGSL
TXBWIC21120-00402-14311-40000030D0000139D000000003014CSBK    GGSL
TXBWIC21120-00402-14312-10000137D0000566D001710000014CSB     GGSL
TXBWIC21120-00402-14411-10000036D0002881D0012500002144SSBK   GGSL
TXBWIC21120-00402-22117-10000100D0000039D0000000000VSC117    GGSL
TXBWIC21120-00402-33117-70000225D0000079D0500000500PC11-7    GGSL
TXBWIC21120-00402-33354-60001950D0000258D0957500850PC5-4     GGSL
TXBWIC21120-00402-33375-10002725D0000516D1155001875PC7-5     GGSL
TXBWIC21120-00402-44475-40000250D0000072D0005000000PLCD 7-5  GGSL
TXBWIC21120-00402-91012-90000020D0002438D00100000001012 BK   GGSL
TXBWIC21120-01850-60960-00000007D0004108D00000000279200      GGSL
TXBWIC21120-02800-91501-30000450D0002124D00000000001501      GGSL
TXBWIC21120-10367-00110-70000240D0001530D0032400396110       GGSL
TXBWIC21120-10367-00130-50000189D0009429D0011300015130.0     GGSL
TXBWIC21120-10367-00150-30000056D0001608D0001700163150.0     GGSL
TXBWIC21120-10367-00460-30000024D0000132D0004800056ML0460 8  GGSL
TXBWIC21120-10367-00530-30000027D0001151D0002700000530.0     GGSL
TXBWIC21120-10367-00560-00000328D0001113D0028000216ML0560 8  GGSL
TXBWIC21120-10367-01000-00000060D0000695D0014400024ML1000    GGSL
TXBWIC21120-10367-01010-90000012D0000136D0001200000ML1010    GGSL
TXBWIC21120-10367-01020-80000012D0000174D0013200072ML1020    GGSL
TXBWIC21120-10367-01050-50000024D0000264D0013200036ML1050    GGSL
TXBWIC21120-10367-01111-30000032D0000091D00232000241111.0    GGSL
TXBWIC21120-10367-01112-00000008D0000029D00208000241112.0    GGSL
TXBWIC21120-10367-01120-50000040D0000150D00696000481120.0    GGSL
TXBWIC21120-10367-01130-40000008D0000048D00168000481130.0    GGSL
TXBWIC21120-10367-01240-00000024D0000142D00000000961240.0    GGSL
TXBWIC21120-10367-02171-60000008D0000050D0000000008ML2171    GGSL
TXBWIC21120-10367-03010-70000008D0000043D0005600016ML3010    GGSL
TXBWIC21120-10367-03020-60000016D0000086D0004000000ML3020    GGSL
TXBWIC21120-11247-00250-40000002D0000076D001290000000640     GGSL
TXBWIC21120-11247-00911-40000001D0000046D000000000800911     GGSL
TXBWIC21120-11247-00913-80000001D0000082D000000000300913     GGSL
TXBWIC21120-11247-01050-90000001D0000016D000060000501050     GGSL
TXBWIC21120-11247-01541-20000485C0000016C000390000001541     GGSL
TXBWIC21120-11247-01855-00000017D0003491D000000000101855     GGSL
TXBWIC21120-11247-04525-90000004D0000102D001840000004525     GGSL
TXBWIC21120-11247-05450-30000012D0000516D000840002205450     GGSL
TXBWIC21120-11247-06239-30000006D0000288D000330000006239     GGSL
TXBWIC21120-11247-11024-70000144D0000851D000000012011024     GGSL
TXBWIC21120-11247-13010-80000036D0000134D000930000313010     GGSL
TXBWIC21120-11247-16004-20000012D0000084D003780007216004     GGSL
TXBWIC21120-11247-20002-30000036D0000183D000000031220002     GGSL
TXBWIC21120-11247-20103-70000018D0000133D000000006020103     GGSL
TXBWIC21120-11247-30004-40000138D0001037D005280025230004     GGSL
TXBWIC21120-11247-52813-40000015D0000293D000460000252813     GGSL
TXBWIC21120-11247-52825-70000006D0000120D001170000352825     GGSL
TXBWIC21120-11247-52829-50000012D0000136D000420000652829     GGSL
TXBWIC21120-11247-52833-20000036D0000227D000000011452833     GGSL
TXBWIC21120-11247-52842-40000002D0000154D000000000052842     GGSL
TXBWIC21120-11247-52877-60000008D0000466D000320000052877     GGSL
TXBWIC21120-11247-52880-60000006D0000036D000000002452880     GGSL
TXBWIC21120-11247-52882-00000006D0000049D000000000052882     GGSL
TXBWIC21120-11247-52888-20000042D0000239D000840002452888     GGSL
TXBWIC21120-11247-52889-90000068D0001063D000740004052889     GGSL
TXBWIC21120-11247-60116-50000020D0000225D001750000060116     GGSL
TXBWIC21120-11247-61008-20000126D0000827D000000061261008     GGSL
TXBWIC21120-11247-61024-20000150D0001023D010920037261024     GGSL
TXBWIC21120-11247-71016-40000048D0000400D000120024071001     GGSL
TXBWIC21120-11247-90001-50000036D0000191D000360002490001     GGSL
TXBWIC21120-11247-90128-90000004D0000044D000800000090128     GGSL
TXBWIC21120-11423-00338-70000006D0000037D0054600000HG-33801  GGSL
TXBWIC21120-11423-94127-60000012D0000057D0042100000HG-64127  GGSL
TXBWIC21120-11423-94138-20000036D0000172D0000000000HG-64138  GGSL
TXBWIC21120-14021-00534-00000001D0000059D00000000008000      GGSL
TXBWIC21120-14021-00732-00000001D0000068D00000000007110      GGSL
TXBWIC21120-14021-01314-70000001D0000067D00000000009090      GGSL
TXBWIC21120-14021-01412-00000007D0000875D00000000001024      GGSL
TXBWIC21120-14021-02943-80000001D0000249D00000000001046      GGSL
TXBWIC21120-14021-03029-80000001D0000209D00000000001040      GGSL
TXBWIC21120-15966-49430-10000014D0000245D000340001249 00 430 GGSL
TXBWIC21120-16069-00001-10000012D0000075D0001200000NE-SR     GGSL
TXBWIC21120-16069-00002-80000012D0000075D0002400000NE-OR     GGSL
TXBWIC21120-16069-00005-90000108D0000675D0025500000TP-15C    GGSL
TXBWIC21120-16069-00007-30000096D0000517D0027300000BN-1      GGSL
TXBWIC21120-16069-00008-00000198D0001082D0049200444BN-2      GGSL
TXBWIC21120-16069-00013-40000036D0000756D0011400000BN-3      GGSL
TXBWIC21120-16069-00014-10000036D0000576D0007800006BN-4      GGSL
TXBWIC21120-16069-00015-80000048D0001203D0004600000BN-5      GGSL
TXBWIC21120-16069-00019-60000060D0000541D0000000024TP-30C    GGSL
TXBWIC21120-16069-00030-10000092D0000915D0010800032OW-6      GGSL
TXBWIC21120-16069-00049-30000020D0000300D0011800000DX-7      GGSL
TXBWIC21120-16069-00060-80000015D0000039D0003000000RAP-15    GGSL
TXBWIC21120-16069-00072-10000048D0000312D0000000000TSD-12    GGSL
TXBWIC21120-16069-00077-60000012D0000100D0000000000PN-14     GGSL
TXBWIC21120-16069-00166-70000024D0000376D0000000000TP-60     GGSL
TXBWIC21120-16069-00218-30000036D0000180D0001200024HST-100   GGSL
TXBWIC21120-16069-00365-40000027D0000339D0000000000PIN-9     GGSL
TXBWIC21120-16069-00401-90000056D0000480D0000000000GF-4050   GGSL
TXBWIC21120-16069-00436-10000075D0000188D0000000000TWST-100  GGSL
TXBWIC21120-16069-00473-30000025D0011073D0001600001MIXO-30MP GGSL
TXBWIC21120-16069-00478-00000012D0000451D0000000000SRHO-4    GGSL
TXBWIC21120-16069-00498-90000002D0000101D0000000003HGP-1012  GGSL
TXBWIC21120-16069-00504-70000360D0000674D0006000000TG1-3W    GGSL
TXBWIC21120-16069-00518-40000012D0000051D0000000000SG25-12   GGSL
TXBWIC21120-16069-00531-00000003D0001668D0001000013GCM-BDO   GGSL
TXBWIC21120-16069-00597-90000001D0000106D0000000001BTK-6     GGSL
TXBWIC21120-16069-00667-90000044D0000636D0013200188RHO-4US   GGSL
TXBWIC21120-18506-00000-00000100D0001358D03190002000111-5    GGSL
TXBWIC21120-18506-00010-30000018D0000131D0024100360010-6     GGSL
TXBWIC21120-18506-00102-50000018D0000067D0051800012102-12    GGSL
TXBWIC21120-18506-00110-50000108D0000673D0193900912110-12    GGSL
TXBWIC21120-18506-00116-20000105D0000653D0128600783116-12    GGSL
TXBWIC21120-18506-00117-90000036D0000318D0090300570117-6     GGSL
TXBWIC21120-18506-00125-40000036D0000178D0202800000125       GGSL
TXBWIC21120-18506-00130-80000024D0000132D0144000000130       GGSL
TXBWIC21120-18506-03202-90000010D0004690D00000000263200      GGSL
TXBWIC21120-22102-01510-20000036D0001560D000360000015N       GGSL
TXBWIC21120-22102-01611-60000008D0000783D000000000016HB      GGSL
TXBWIC21120-22102-02011-30000006D0000288D000180000020FB      GGSL
TXBWIC21120-22102-05211-40000031D0001309D0002600000521G      GGSL
TXBWIC21120-22102-30430-50000010D0000357D0000000004HPW33     GGSL
TXBWIC21120-22102-75210-60000030D0000927D00030000057521      GGSL
TXBWIC21120-22179-10011-40000024D0000230D0000000006lg 3104   GGSL
TXBWIC21120-22179-10035-00000068D0003298D0022100018LG4110    GGSL
TXBWIC21120-22179-10084-80000018D0000152D0010800150LG7220    GGSL
TXBWIC21120-22179-10085-50000084D0000548D0002400000LG5268    GGSL
TXBWIC21120-22179-10090-90000006D0000145D0003300000LG4300    GGSL
TXBWIC21120-22179-10108-10000012D0000091D0001200024LG7265    GGSL
TXBWIC21120-22179-10109-80000006D0000086D0000000030lg 5146   GGSL
TXBWIC21120-22179-10115-90000072D0001178D0030300024lg 5599   GGSL
TXBWIC21120-22179-10124-10000228D0001272D0091200108LG6515    GGSL
TXBWIC21120-22179-10138-80000024D0000059D0000000048LG 1125   GGSL
TXBWIC21120-22179-10139-50000024D0000108D0053100000LG1130    GGSL
TXBWIC21120-22179-10140-10000001D0000141D0006500000LG6520    GGSL
TXBWIC21120-22179-10150-00000116D0001344D00488006807115      GGSL
TXBWIC21120-22179-10151-70000006D0000301D00180000007117      GGSL
TXBWIC21120-22179-10157-90000006D0000117D0000000024LG6530    GGSL
TXBWIC21120-22179-10167-80000060D0001032D0000000078lg 6127   GGSL
TXBWIC21120-22179-10185-20000122D0001355D0040300060LG6500    GGSL
TXBWIC21120-22179-10239-20000008D0000605D0000000000LG6155    GGSL
TXBWIC21120-22179-10246-00000123D0002096D0022500876LG6570    GGSL
TXBWIC21120-22179-10247-70000128D0002909D00283002557122      GGSL
TXBWIC21120-22179-10248-40000096D0000791D0061800180LG6575    GGSL
TXBWIC21120-22179-10266-80000024D0000432D0002401896LG6145    GGSL
TXBWIC21120-22179-10327-60000036D0000326D0000000000LG6148    GGSL
TXBWIC21120-22179-10363-40000048D0000335D0000000024LG6232    GGSL
TXBWIC21120-22179-10374-00000036D0000228D0000000084lg 6286   GGSL
TXBWIC21120-22179-10375-70000264D0001988D0000000018lg 6299   GGSL
TXBWIC21120-22179-10378-80000018D0000153D0000600126lg6274    GGSL
TXBWIC21120-22179-10390-00000144D0001367D0082500291LG6332    GGSL
TXBWIC21120-22179-10391-70000048D0000697D0000000132LG6336    GGSL
TXBWIC21120-22179-10393-10000012D0000154D0000000012lg 5367   GGSL
TXBWIC21120-22179-10395-50000036D0001167D0012700013LG6356    GGSL
TXBWIC21120-22179-10399-30000012D0000081D0064800000LG7198    GGSL
TXBWIC21120-22179-10406-80000024D0001324D0000000208LG 6344   GGSL
TXBWIC21120-22179-10408-20000072D0000576D0074300648LG 6338   GGSL
TXBWIC21120-22179-10417-40000004D0000344D0000000000lg6142    GGSL
TXBWIC21120-22179-10429-70000024D0000376D0122400468LG6334    GGSL
TXBWIC21120-22179-10454-90000126D0001229D0044400174lg 3303   GGSL
TXBWIC21120-22179-10458-70000027D0000252D0001800012lg 3234   GGSL
TXBWIC21120-22179-10462-40000012D0000095D0000000012LG1142    GGSL
TXBWIC21120-22179-10509-60000012D0000084D0000000006lg6172    GGSL
TXBWIC21120-22179-10520-10000012D0000109D0000000042lg 6542   GGSL
TXBWIC21120-22179-10529-40000020D0000142D0026000300lg 7350   GGSL
TXBWIC21120-22401-00115-80000108D0005973D0021000019MDC-15    GGSL
TXBWIC21120-22401-00301-50000011D0000180D0009200012THD-20    GGSL
TXBWIC21120-22401-00350-30000008D0000144D0000000000EDG-20GMC GGSL
TXBWIC21120-22401-00381-70000032D0000822D0017200096NDETC-2OLBGGSL
TXBWIC21120-22401-00578-10000020D0000150D0002000020MSG-12-5  GGSL
TXBWIC21120-22401-10087-50000002D0000076D0000000000EAR-20TMC GGSL
TXBWIC21120-22401-10088-20000004D0000151D0011000046EAR-60    GGSL
TXBWIC21120-22401-10089-90000008D0000145D0000000000BBC-20LB  GGSL
TXBWIC21120-22401-10091-20000006D0000084D0000000000SDE-20    GGSL
TXBWIC21120-22401-10092-90000006D0000084D0000000000SDE-20LB  GGSL
TXBWIC21120-23075-02332-30000048D0000248D0012000072P036      GGSL
TXBWIC21120-23626-00605-80002395D0024014D1004401620116334    GGSL
TXBWIC21120-23626-00615-70002251D0028537D0445401986          GGSL
TXBWIC21120-23626-00630-00000864D0011522D0382400240116341    GGSL
TXBWIC21120-23626-00860-10000020D0000168D0000000196116348    GGSL
TXBWIC21120-23626-01710-80000276D0001366D0037200033000800    GGSL
TXBWIC21120-23626-01720-70000252D0001655D0031500018000900    GGSL
TXBWIC21120-23626-02555-40000064D0001331D0000000000112840    GGSL
TXBWIC21120-23626-02843-20000004D0000138D0004000000116850    GGSL
TXBWIC21120-23626-07002-80000172D0005466D0000400000112825    GGSL
TXBWIC21120-23883-00001-10000094D0001791D0083700504G362      GGSL
TXBWIC21120-23883-00002-80000027D0000130D0035400042G385      GGSL
TXBWIC21120-23883-00003-50000030D0000142D0072300036G390      GGSL
TXBWIC21120-23883-01000-30000012D0000178D00000000421000      GGSL
TXBWIC21120-23883-01002-70000157D0001653D00721000741002      GGSL
TXBWIC21120-23883-01105-50000048D0000160D00031007081105      GGSL
TXBWIC21120-23883-05000-90000002D0000013D00133000595000      GGSL
TXBWIC21120-23883-08620-60000001D0000212D00012000028620B     GGSL
TXBWIC21120-23883-15710-40007010D0050122D252240586215710     GGSL
TXBWIC21120-23883-16100-20000010D0000138D000700000016100MP   GGSL
TXBWIC21120-23883-20020-60000012D0000236D000000002420002     GGSL
TXBWIC21120-23883-26011-80000061D0002229D001790001926011XP   GGSL
TXBWIC21120-23883-26021-70000293D0011026D015860010926021XP   GGSL
TXBWIC21120-23883-26031-60000056D0002771D001130001326031XP   GGSL
TXBWIC21120-23883-27010-00000034D0000866D000760007227010     GGSL
TXBWIC21120-23883-27020-90000046D0001222D003010012127020     GGSL
TXBWIC21120-23883-27030-80000019D0000620D001430001027030     GGSL
TXBWIC21120-23883-60100-30000068D0004218D014310008760100     GGSL
TXBWIC21120-23883-61800-10000078D0006401D000000007461800     GGSL
TXBWIC21120-23883-61925-10000006D0000065D00018000006-1925    GGSL
TXBWIC21120-23883-62000-40000002D0000014D00000000166-2000    GGSL
TXBWIC21120-23883-63924-20000007D0001333D000630000463924     GGSL
TXBWIC21120-23883-67749-70000003D0000022D00000000006-7749    GGSL
TXBWIC21120-23883-68060-20000001D0000020D00005000006-8060    GGSL
TXBWIC21120-23883-68131-90000010D0000087D00001000006-8131    GGSL
TXBWIC21120-23883-68219-40000005D0000082D00000000006-8219    GGSL
TXBWIC21120-23883-68238-50000001D0000061D00000000026-8238    GGSL
TXBWIC21120-23883-80000-00000003D0000146D00018000668000A     GGSL
TXBWIC21120-23883-80080-20000002D0000284D00000000008200A     GGSL
TXBWIC21120-23883-84000-60000015D0002127D00012000048701B     GGSL
TXBWIC21120-23883-97100-70000001D0000105D000110000097100     GGSL
TXBWIC21120-24654-05922-10000012D0000141D00000000425926      GGSL
TXBWIC21120-24654-05931-30000012D0000173D00000000305935      GGSL
TXBWIC21120-24654-05962-70000018D0000217D00120000725962      GGSL
TXBWIC21120-24654-51806-30000006D0000031D00000000425180-6    GGSL
TXBWIC21120-24654-55110-70000090D0000451D01145001325110-6    GGSL
TXBWIC21120-24654-55118-30000144D0001063D00643000665118.0    GGSL
TXBWIC21120-24654-65452-50000012D0000050D00000000005452-6    GGSL
TXBWIC21120-24654-72125-80000018D0000094D0000000006SB125     GGSL
TXBWIC21120-25845-12354-70000024D0000031D000000000024951     GGSL
TXBWIC21120-25845-12366-00000012D0000100D000000000024118     GGSL
TXBWIC21120-26455-91350-40000005D0000289D000920000070805-001-GGSL
TXBWIC21120-26978-30104-80000001D0000030D000000000730104     GGSL
TXBWIC21120-26978-30500-80000020D0000102D000000006030500     GGSL
TXBWIC21120-26978-30702-60000006D0000023D000000002430702     GGSL
TXBWIC21120-26978-31100-90000005D0000038D000000000031100     GGSL
TXBWIC21120-26978-31109-20000005D0000038D000000000031109     GGSL
TXBWIC21120-26978-38198-90000114D0001756D000000000638198     GGSL
TXBWIC21120-27452-06200-40000012D0000192D000000000023957     GGSL
TXBWIC21120-27452-06240-00000008D0000084D000000000423958     GGSL
TXBWIC21120-28009-11225-80002138D0009882D02704003351225.0    GGSL
TXBWIC21120-28009-11250-00010916D0081064D06996009611250.0    GGSL
TXBWIC21120-28009-11420-70001580D0006912D01124002051420P     GGSL
TXBWIC21120-28009-11428-30000270D0004047D00000000001428      GGSL
TXBWIC21120-28009-11438-20000120D0002713D00000000001438      GGSL
TXBWIC21120-28009-11440-50001950D0014241D00433000651440P     GGSL
TXBWIC21120-28009-11640-90001440D0008148D00000000001640      GGSL
TXBWIC21120-28009-11815-10000055D0000405D00000000001815      GGSL
TXBWIC21120-28009-11925-70000455D0003804D00065000001925      GGSL
TXBWIC21120-28009-15240-70000240D0001021D00620002315240.0    GGSL
TXBWIC21120-28009-15440-10000120D0000510D00000000005440.0    GGSL
TXBWIC21120-28009-15440-30000120D0000890D00000000001840      GGSL
TXBWIC21120-28009-15450-00000250D0001333D00073000005450.0    GGSL
TXBWIC21120-28009-15540-80001921D0006077D02408003015540.0    GGSL
TXBWIC21120-28009-15720-40000198D0000794D00000000005720.0    GGSL
TXBWIC21120-28009-15740-20001745D0008351D00504001205740.0    GGSL
TXBWIC21120-30541-00067-20000006D0000047D0001800006JCD-100FGPGGSL
TXBWIC21120-30541-01030-50000012D0000096D0000600174JCD-100SMJGGSL
TXBWIC21120-30541-01034-30000009D0000200D0001100048JCD-030SM GGSL
TXBWIC21120-30641-09801-20000025D0000055D0005000025SWPDQ     GGSL
TXBWIC21120-32247-00900-30000108D0000308D00534000001009001   GGSL
TXBWIC21120-32247-00910-20000006D0000016D00072000001009101   GGSL
TXBWIC21120-32247-00950-80000078D0000215D00060000121009501   GGSL
TXBWIC21120-32247-03313-80002822D0058796D00226000003313B     GGSL
TXBWIC21120-32247-03594-10000700D0004336D006970000070359430  GGSL
TXBWIC21120-32247-05514-70012650D0049170D034840019070551430  GGSL
TXBWIC21120-32247-10500-20000833D0006212D0022800096110500    GGSL
TXBWIC21120-32247-11307-60003005D0005942D015440009471130756  GGSL
TXBWIC21120-32247-12764-60000096D0000479D000800000071276430  GGSL
TXBWIC21120-32247-14905-10002056D0014194D001040000014905     GGSL
TXBWIC21120-32247-15307-20000180D0000384D002520000071530751  GGSL
TXBWIC21120-32247-17183-00000018D0000168D000540001817183     GGSL
TXBWIC21120-32247-17185-40000004D0000078D000560000017185     GGSL
TXBWIC21120-32247-17187-80000005D0000236D000480000017187     GGSL
TXBWIC21120-32247-17293-60000006D0000055D000000001817293     GGSL
TXBWIC21120-32247-17295-00000004D0000086D000080000017295     GGSL
TXBWIC21120-32247-17323-00000012D0000102D000480001217323     GGSL
TXBWIC21120-32247-17325-40000016D0000287D000080000017325     GGSL
TXBWIC21120-32247-17508-10000006D0000074D000300000017508     GGSL
TXBWIC21120-32247-17582-10000006D0000074D000000000017582     GGSL
TXBWIC21120-32247-18213-30000004D0000088D000120000418213     GGSL
TXBWIC21120-32247-18221-80000008D0000175D000280000018221     GGSL
TXBWIC21120-32247-18225-60000024D0000260D000600000018225     GGSL
TXBWIC21120-32247-18260-70000006D0000062D000000000018260     GGSL
TXBWIC21120-32247-18302-40000012D0000265D000040000018302     GGSL
TXBWIC21120-32247-18346-80000004D0000089D000280000018346     GGSL
TXBWIC21120-32247-18348-20000018D0000270D000120000018348     GGSL
TXBWIC21120-32247-18350-50000195D0001232D000300000018350     GGSL
TXBWIC21120-32247-18353-60000074D0003313D000000000018335     GGSL
TXBWIC21120-32247-18354-30000012D0000150D000000000018354     GGSL
TXBWIC21120-32247-19594-20001000D0006297D000450000771959430  GGSL
TXBWIC21120-32247-20784-30002646D0008207D005650016272078430  GGSL
TXBWIC21120-32247-20814-70000010D0000408D000000000021814     GGSL
TXBWIC21120-32247-21030-00000003D0000097D001940000021030A    GGSL
TXBWIC21120-32247-21605-00000340D0006085D000820000521605     GGSL
TXBWIC21120-32247-21701-90000300D0002390D000000000021701     GGSL
TXBWIC21120-32247-22305-80000008D0000125D000880000122305     GGSL
TXBWIC21120-32247-22315-70000015D0000590D000000000022315     GGSL
TXBWIC21120-32247-23405-40000700D0009781D003130000023405B    GGSL
TXBWIC21120-32247-25006-10000200D0003940D004590000025006A    GGSL
TXBWIC21120-32247-25009-20000030D0001545D000040000025009     GGSL
TXBWIC21120-32247-26007-70000009D0000205D002130000026007B    GGSL
TXBWIC21120-32247-26784-70000036D0000125D010980007872678430  GGSL
TXBWIC21120-32247-30156-50001176D0018266D000240002430156     GGSL
TXBWIC21120-32247-30177-00000005D0000435D000560000130177     GGSL
TXBWIC21120-32247-33020-60000245D0009768D000390000033020     GGSL
TXBWIC21120-32247-35594-00000450D0002789D000250000073559430  GGSL
TXBWIC21120-32247-35605-30000040D0000825D001390000044615A    GGSL
TXBWIC21120-32247-37594-80009407D0046499D021480005073759430  GGSL
TXBWIC21120-32247-37610-50000064D0003936D000490005337610A    GGSL
TXBWIC21120-32247-39594-60003705D0026998D015460016073959430  GGSL
TXBWIC21120-32247-39605-90000497D0008010D000000000039605     GGSL
TXBWIC21120-32247-39615-80000600D0025646D000240000039615     GGSL
TXBWIC21120-32247-42784-50000408D0001391D004020011474278430  GGSL
TXBWIC21120-32247-43860-50000168D0002844D00012000004386004   GGSL
TXBWIC21120-32247-45651-70000300D0002470D003260006045651300  GGSL
TXBWIC21120-32247-47783-30000048D0000182D001500001274778300  GGSL
TXBWIC21120-32247-49024-50000199D0002522D000020000749024     GGSL
TXBWIC21120-32247-49785-50000690D0002155D007320012674978500  GGSL
TXBWIC21120-32247-50089-00000008D0000164D00008000045008910   GGSL
TXBWIC21120-32247-50524-60008632D0056119D038850069775052430  GGSL
TXBWIC21120-32247-51062-20000006D0000042D000060000051062     GGSL
TXBWIC21120-32247-51105-60001298D0015261D002620006051105     GGSL
TXBWIC21120-32247-51115-50001240D0040948D001590000051115     GGSL
TXBWIC21120-32247-52524-40000048D0000590D000020000485252430  GGSL
TXBWIC21120-32247-52784-20000180D0000573D006480013285278430  GGSL
TXBWIC21120-32247-53105-40000910D0007873D001100000053105     GGSL
TXBWIC21120-32247-53115-30001080D0025211D001020000053115     GGSL
TXBWIC21120-32247-55513-50003080D0024247D008120026075551301  GGSL
TXBWIC21120-32247-55523-40004917D0058401D012400007875552301  GGSL
TXBWIC21120-32247-55783-20000218D0001801D015430007875578300  GGSL
TXBWIC21120-32247-55863-10000109D0000714D006020000075586300  GGSL
TXBWIC21120-32247-56063-40000016D0000072D002240000045606300  GGSL
TXBWIC21120-32247-56513-40034222D0222227D041260044575651301  GGSL
TXBWIC21120-32247-56523-30043360D0450813D019130106275652301  GGSL
TXBWIC21120-32247-56783-10000014D0005917D000040000075678309  GGSL
TXBWIC21120-32247-56788-60001824D0007199D045300015675678300  GGSL
TXBWIC21120-32247-56863-00000656D0003753D013520000075686301  GGSL
TXBWIC21120-32247-60594-60001750D0010837D006900000076059430  GGSL
TXBWIC21120-32247-71060-20001033D0012311D012780003071060     GGSL
TXBWIC21120-32247-71131-90000208D0003629D002920004071131     GGSL
TXBWIC21120-32247-74150-70001380D0006264D0047400852274150    GGSL
TXBWIC21120-32247-74250-40000312D0002202D0070700840274250    GGSL
TXBWIC21120-32247-74850-60000720D0010619D0007200232274850    GGSL
TXBWIC21120-32247-75902-10000107D0007771D000980001175902     GGSL
TXBWIC21120-32247-76121-50000735D0023322D003730005476121     GGSL
TXBWIC21120-32247-76232-80000243D0013762D001050000076232     GGSL
TXBWIC21120-32247-76565-70000009D0000552D000030000076565     GGSL
TXBWIC21120-32247-77160-30000972D0003925D0104800888277160    GGSL
TXBWIC21120-32247-77260-00000738D0006462D0076800690277260    GGSL
TXBWIC21120-32247-77960-90000516D0008779D0068400288277960    GGSL
TXBWIC21120-32247-95517-10000060D0000227D002230000079551750  GGSL
TXBWIC21120-32247-95597-30000480D0002055D000000000079559750  GGSL
TXBWIC21120-32247-99605-10000538D0009967D001190000099605     GGSL
TXBWIC21120-32903-00169-30000192D0000266D0036000096SLI06000E3GGSL
TXBWIC21120-32903-00193-80000006D0000151D0000000018TEA17000G2GGSL
TXBWIC21120-32903-00224-90000012D0000093D0000000012VNP18000E2GGSL
TXBWIC21120-32903-00243-00000012D0000074D0000000000SVN30000E2GGSL
TXBWIC21120-32903-00284-30000004D0000178D0000000000TEA20000G2GGSL
TXBWIC21120-32903-00309-30000036D0000087D0002400024SLI10000E3GGSL
TXBWIC21120-32903-00313-00000018D0000181D0000000000GAB18000E2GGSL
TXBWIC21120-32903-00326-00000024D0000172D0000000000LIA12000E2GGSL
TXBWIC21120-32903-00341-30000072D0000639D0017400024SLI24000E3GGSL
TXBWIC21120-32903-00359-80000048D0000089D0062400072SLI08000E3GGSL
TXBWIC21120-32903-04255-90000024D0000222D0000000000LIA14000E2GGSL
TXBWIC21120-32903-04257-30000036D0000146D0000000000SLI12000E2GGSL
TXBWIC21120-32903-04265-80000006D0000095D0000000000GAB22000E2GGSL
TXBWIC21120-32903-07530-40000024D0000106D0000000000SLI14000E2GGSL
TXBWIC21120-32903-07534-20000012D0000231D0000000000LIA20000E2GGSL
TXBWIC21120-32903-07563-20000036D0000173D0000000000SLI17000E2GGSL
TXBWIC21120-32903-07577-90000012D0000308D0000000000LIA24000E2GGSL
TXBWIC21120-32903-12006-60000144D0000286D0067200216LIA06000E3GGSL
TXBWIC21120-32903-12008-00000048D0000150D0100800144LIA08000E3GGSL
TXBWIC21120-32903-12010-30000108D0000506D0060000144LIA10000E3GGSL
TXBWIC21120-32903-12012-70000096D0000676D0042000120LIA12000E3GGSL
TXBWIC21120-32903-12014-10000120D0000895D0001200012LIA14000E3GGSL
TXBWIC21120-32903-12017-20000081D0000949D0052800096LIA16000E3GGSL
TXBWIC21120-32903-12020-20000060D0001162D0028200048LIA20000E3GGSL
TXBWIC21120-32903-12024-00000041D0001101D0012000054LIA24000E3GGSL
TXBWIC21120-32903-12324-10000030C0000068D0005400006SVN24000E3GGSL
TXBWIC21120-32903-12718-80000048D0000512D0009000060GAB18000E3GGSL
TXBWIC21120-32903-12722-50000042D0000654D0006600444GAB22000E3GGSL
TXBWIC21120-32903-12818-50000036D0000248D0021600024VNP18000E3GGSL
TXBWIC21120-32903-12824-60000005C0000248C0001200000VNP24000E3GGSL
TXBWIC21120-32903-12830-70000006D0000060D0000000012VNP30000E3GGSL
TXBWIC21120-32903-22484-90000015D0000241D0000000000ROP28000E2GGSL
TXBWIC21120-32903-23732-00000012D0000090D0000000000SLI20000E2GGSL
TXBWIC21120-32903-40770-90000012D0000085D0000000000VNP18000A3GGSL
TXBWIC21120-32903-41728-90000012D0000020D0000000000lia12000b9GGSL
TXBWIC21120-32903-43116-20000006D0000026D0000000000SVN18000A3GGSL
TXBWIC21120-32903-50763-80000144D0000564D0043200072SLI12000E3GGSL
TXBWIC21120-32903-50802-40000024D0000106D0059400084SLI14000E3GGSL
TXBWIC21120-32903-53271-50000012D0000112D0000000000SLI24000E2GGSL
TXBWIC21120-32903-58838-50000008D0000410D0000000000TEA24000G1GGSL
TXBWIC21120-32903-66002-90000010D0000163D0000000000ROP28000E3GGSL
TXBWIC21120-32903-72518-60000064D0000628D0020800120RZ.WC2G0B9GGSL
TXBWIC21120-32903-75049-20000048D0000356D0016200018SLI20000E3GGSL
TXBWIC21120-32903-75080-50000036D0000183D0058800036SLI17000E3GGSL
TXBWIC21120-32903-91322-40000004D0000408D0000000030TEA30000G1GGSL
TXBWIC21120-32903-91517-40000096D0000660D0000000024PPF10001Y2GGSL
TXBWIC21120-32903-91580-80000012D0000207D0000000000PZA16000Y3GGSL
TXBWIC21120-33349-03110-70000037D0000049D0033302664JP310     GGSL
TXBWIC21120-33349-41444-30000028D0000059D0005600168JP406     GGSL
TXBWIC21120-33349-41702-80000001D0000118D0000200003J4BULK    GGSL
TXBWIC21120-33349-66044-40000010D0000135D0000000690J636GS    GGSL
TXBWIC21120-33349-66068-00000020D0000180D0000000040J450GS    GGSL
TXBWIC21120-33524-43225-50000006D0000051D0044700000MP0020    GGSL
TXBWIC21120-33524-43240-80000089D0001142D0094500005MP0020    GGSL
TXBWIC21120-33607-00001-50000064D0002179D0011200004GBA-1     GGSL
TXBWIC21120-33745-97185-40000005D0000121D000580000097185     GGSL
TXBWIC21120-34613-00002-70000442D0005838D0180100538LH002     GGSL
TXBWIC21120-34613-00003-40000301D0003980D0057500374LH003     GGSL
TXBWIC21120-34613-00004-10000255D0003315D0047100193LH004     GGSL
TXBWIC21120-34613-00006-50000347D0004569D0196100413LH006     GGSL
TXBWIC21120-34613-00068-30000036D0000440D000360001268WP      GGSL
TXBWIC21120-34613-00446-90000012D0000029D0000000000446       GGSL
TXBWIC21120-34613-00540-40000006D0000028D00000000595-40HD    GGSL
TXBWIC21120-34613-00553-40000012D0000029D0000000012553bl     GGSL
TXBWIC21120-34613-01150-40000040D0000106D00000004801150PDQ   GGSL
TXBWIC21120-34613-01161-00000024D0000068D00012004441161PDQ   GGSL
TXBWIC21120-34613-03398-80000006D0000064D00006000003398      GGSL
TXBWIC21120-34613-04830-20000006D0000029D00006000244830      GGSL
TXBWIC21120-34613-04862-30000012D0000059D0000000000LH013BL   GGSL
TXBWIC21120-34613-04864-70000012D0000059D0000000000LH016BL   GGSL
TXBWIC21120-34613-05017-60000001D0000383D00000000015017BLD   GGSL
TXBWIC21120-34613-07161-40000012D0000059D00000000007161BL    GGSL
TXBWIC21120-34613-07835-40000006D0000037D00000000002110BL    GGSL
TXBWIC21120-34613-09164-30000009D0000170D00032000009164      GGSL
TXBWIC21120-34613-09509-20000012D0000041D00000000129509      GGSL
TXBWIC21120-34613-09629-70000012D0000133D00000000009629      GGSL
TXBWIC21120-34613-70052-10000048D0000552D000120051670052     GGSL
TXBWIC21120-34613-70791-90000005D0000146D000000000070285BL   GGSL
TXBWIC21120-34613-71086-50000005D0000038D0000400024LH015BL   GGSL
TXBWIC21120-34613-71660-70000012D0000252D000000000071660     GGSL
TXBWIC21120-34613-96006-20000001D0000057D000020002496006     GGSL
TXBWIC21120-35307-00803-90000012D0000021D0000000084803       GGSL
TXBWIC21120-35307-00812-10000024D0000057D0000000060812       GGSL
TXBWIC21120-35307-00817-60000012D0000028D0000000096817       GGSL
TXBWIC21120-35307-00818-30000024D0000042D0000000204818       GGSL
TXBWIC21120-35307-00820-60000096D0000161D0013200600820       GGSL
TXBWIC21120-35307-00826-80000024D0000047D0012000600826       GGSL
TXBWIC21120-35307-00840-40000012D0000028D0000000072840       GGSL
TXBWIC21120-35307-00843-50000024D0000070D0000000060843       GGSL
TXBWIC21120-35307-00844-20000036D0000085D0018000048844       GGSL
TXBWIC21120-35307-00846-30000060D0000188D0012000060846       GGSL
TXBWIC21120-35307-00848-00000012D0000025D0127200048848       GGSL
TXBWIC21120-35307-00862-60000012D0000035D0003600000862       GGSL
TXBWIC21120-35307-00874-90000168D0000242D0045600696874       GGSL
TXBWIC21120-35307-00875-60000024D0000085D0000000012875       GGSL
TXBWIC21120-35307-00967-80000012D0000025D0000000012967       GGSL
TXBWIC21120-35307-00979-10000072D0000084D0000000216979       GGSL
TXBWIC21120-35307-01601-00000078D0001023D00162000421601      GGSL
TXBWIC21120-35307-01612-60000060D0000286D00204006001612      GGSL
TXBWIC21120-35307-01630-00000006D0000043D00000000241630      GGSL
TXBWIC21120-35307-01640-90000001D0000041D00000000051640      GGSL
TXBWIC21120-35307-01810-60000095D0000517D00241000321810      GGSL
TXBWIC21120-35307-01815-10000048D0000344D00155000391815      GGSL
TXBWIC21120-35307-01817-50000012D0000100D00000000661817-6    GGSL
TXBWIC21120-35307-01820-50000013D0000171D00033000541820      GGSL
TXBWIC21120-35307-01825-00000072D0000666D00176008401825      GGSL
TXBWIC21120-35307-01840-30000006D0000096D00030000181840      GGSL
TXBWIC21120-35307-90872-80000024D0000078D0000000024872       GGSL
TXBWIC21120-35355-00072-60000012D0000050D0019800180TP72      GGSL
TXBWIC21120-35355-00924-80000119D0001578D0000000042924       GGSL
TXBWIC21120-35355-01151-70000010D0000048D00000003301151PDQ   GGSL
TXBWIC21120-35355-01160-90000010D0000026D00090003001160      GGSL
TXBWIC21120-35355-01901-80000012D0000059D00012000001901      GGSL
TXBWIC21120-35355-03105-80000252D0000623D00408000483105      GGSL
TXBWIC21120-35355-05939-70000012D0000151D00006000245939      GGSL
TXBWIC21120-35355-05945-80000126D0002154D00120004985945      GGSL
TXBWIC21120-35355-70201-90000015D0000075D000100003570201     GGSL
TXBWIC21120-35355-94006-00000001D0000038D000000000794006     GGSL
TXBWIC21120-36348-00610-70000204D0001022D00372000120610      GGSL
TXBWIC21120-36348-00645-90000020D0000283D0026100000645       GGSL
TXBWIC21120-36348-00745-60000004D0000101D00029000020745      GGSL
TXBWIC21120-36348-01020-30000009D0000145D00003000001020      GGSL
TXBWIC21120-36348-01078-40000006D0000211D00034000021078      GGSL
TXBWIC21120-36348-01079-10000043D0002263D00109000001079      GGSL
TXBWIC21120-36434-00000-00000031D0003801D010740028810-12420  GGSL
TXBWIC21120-36434-10000-00000036D0000345D001680000010-14510  GGSL
TXBWIC21120-36434-10012-20000024D0000315D000000000010-10012  GGSL
TXBWIC21120-36434-11000-80000149D0001510D011760006660-11000  GGSL
TXBWIC21120-36434-12340-40000036D0000079D00000000966012340   GGSL
TXBWIC21120-36434-12342-80000050D0000319D005570010160-12342  GGSL
TXBWIC21120-36434-12343-50000014D0000131D002660001860-12343  GGSL
TXBWIC21120-36434-12344-20000012D0000098D000180000660-12344  GGSL
TXBWIC21120-36434-12345-90000072D0000747D001450069610-12345  GGSL
TXBWIC21120-36434-12346-60000122D0000567D017150003760-12346  GGSL
TXBWIC21120-36434-12348-00000024D0000218D000560000810-12348  GGSL
TXBWIC21120-36434-12349-70000048D0000192D002340000660-12349  GGSL
TXBWIC21120-36434-12350-30000018D0000109D000060001260 12350  GGSL
TXBWIC21120-36434-12351-00000006D0000026D00000000186012351   GGSL
TXBWIC21120-36434-12353-40000054D0000945D010730006260-12353  GGSL
TXBWIC21120-36434-12354-10000037D0000254D001410000310-12354  GGSL
TXBWIC21120-36434-12355-80000034D0000254D002780006010-12355  GGSL
TXBWIC21120-36434-12356-50000099D0000845D003620007110-12356  GGSL
TXBWIC21120-36434-12357-20000015D0000137D002110006010-12357  GGSL
TXBWIC21120-36434-12358-90000083C0000137C00000000061012358   GGSL
TXBWIC21120-36434-12380-00000012D0000134D000000001260-12380  GGSL
TXBWIC21120-36434-12430-40000012D0000216D00000000246012430   GGSL
TXBWIC21120-36434-12440-30000012D0000118D00000000606012440   GGSL
TXBWIC21120-36434-12625-20000006D0000037D000000006660-12625  GGSL
TXBWIC21120-36434-12700-60000384D0003025D001200081610-12700  GGSL
TXBWIC21120-36434-12710-50000024D0000183D002160001210-12710  GGSL
TXBWIC21120-36434-12720-40000108D0000675D003840004810-12720  GGSL
TXBWIC21120-36434-12730-00000060D0000611D000000000010-12730  GGSL
TXBWIC21120-36434-13001-00000012D0000060D000000021610-13001  GGSL
TXBWIC21120-36434-13200-00000012D0000062D00096000246013200   GGSL
TXBWIC21120-36434-13600-50000048D0000920D000960039610-13600  GGSL
TXBWIC21120-36434-13610-20000096D0001484D001440039610-13610  GGSL
TXBWIC21120-36434-14500-70000024D0000235D000000000010-14500  GGSL
TXBWIC21120-36434-14800-80000227D0003875D002400013210-14800  GGSL
TXBWIC21120-36434-14860-20000096D0001342D001560012010-14860  GGSL
TXBWIC21120-36434-15050-90000047D0000755D003360005410-15050  GGSL
TXBWIC21120-36434-15080-30000012D0000248D000840004210-15080  GGSL
TXBWIC21120-36434-15105-60000033D0001313D000900000015105     GGSL
TXBWIC21120-36434-17000-20000348D0014516D00000008341017000   GGSL
TXBWIC21120-36434-17010-10000090D0002077D000000003010-17010  GGSL
TXBWIC21120-36434-17051-40000006D0000077D000000004810 17051  GGSL
TXBWIC21120-36434-17061-30000020D0000128D00150000301017061   GGSL
TXBWIC21120-36434-18037-70000012D0000098D00000000121028037   GGSL
TXBWIC21120-36434-22310-40000012D0000067D00030000366022310   GGSL
TXBWIC21120-36434-22317-30000006D0000051D00000000306022317   GGSL
TXBWIC21120-36434-22318-00000237D0001066D014790001760-22318  GGSL
TXBWIC21120-36434-22341-80000024D0000242D000000000010-22341  GGSL
TXBWIC21120-36434-22373-90000006D0000090D00000000786022373   GGSL
TXBWIC21120-36434-22626-60000062D0000782D005100010760-22626  GGSL
TXBWIC21120-36434-22728-70000018D0000219D00000000006022728   GGSL
TXBWIC21120-36434-22729-40000018D0000226D000000001260-22729  GGSL
TXBWIC21120-36434-22731-70000046D0000470D003720001460-22731  GGSL
TXBWIC21120-36434-22732-40000018D0000233D006690004460-22732  GGSL
TXBWIC21120-36434-28010-70000312D0002322D004920078010-28010  GGSL
TXBWIC21120-36434-28019-20000001D0000095D000000000210-28019  GGSL
TXBWIC21120-36434-28020-60000024D0000172D000000000010-28020  GGSL
TXBWIC21120-36434-32700-00000339D0002722D055170018010-32700  GGSL
TXBWIC21120-36434-34500-10000228D0002233D007920066010-34500  GGSL
TXBWIC21120-36434-60123-00000002D0002364D000000007360123     GGSL
TXBWIC21120-36434-65095-50000002D0002352D000000006265095     GGSL
TXBWIC21120-36434-82342-70000049D0000620D002730000760-82342  GGSL
TXBWIC21120-36865-12250-20005280D0009521D015000012071140180  GGSL
TXBWIC21120-36865-14511-20000420D0000823D004200006071451180  GGSL
TXBWIC21120-36865-24511-90000600D0001776D026400006072451180  GGSL
TXBWIC21120-36865-71751-70000060D0000115D000000000071751180  GGSL
TXBWIC21120-37321-00022-80000087D0000533D0041600336022       GGSL
TXBWIC21120-37321-00023-50000004D0000072D0007600272023       GGSL
TXBWIC21120-37321-00024-20000144D0002000D0129700306024       GGSL
TXBWIC21120-37321-00025-90000036D0000288D0000000096025       GGSL
TXBWIC21120-37321-00026-60000114D0001487D0110400996026       GGSL
TXBWIC21120-37321-00050-10000072D0000068D0002400264050       GGSL
TXBWIC21120-37321-00051-80000030D0000335D0000000072051       GGSL
TXBWIC21120-37321-00061-70000012D0000082D0000000168061       GGSL
TXBWIC21120-37321-00065-50000048D0000230D0000000048065       GGSL
TXBWIC21120-37321-00066-20000036D0000397D0000000072066       GGSL
TXBWIC21120-37321-00068-60000036D0000172D0039000396068       GGSL
TXBWIC21120-37321-00069-30000129D0001640D0120600120069       GGSL
TXBWIC21120-37321-00070-90000120D0001652D0056700468070       GGSL
TXBWIC21120-37321-00097-60000012D0000059D0001200096097       GGSL
TXBWIC21120-37321-00102-70000012D0000135D0000000000102       GGSL
TXBWIC21120-37321-00105-80000156D0000445D0055200696105       GGSL
TXBWIC21120-37321-00106-50000240D0000683D0054000564106       GGSL
TXBWIC21120-37321-00107-20000228D0000648D0057600972107       GGSL
TXBWIC21120-37321-00108-90000384D0001077D0096001452108       GGSL
TXBWIC21120-37321-00110-20000032D0000096D0000000096110       GGSL
TXBWIC21120-37321-00112-60000024D0000072D0000000136112       GGSL
TXBWIC21120-37321-00121-80000008D0000088D0000000224121       GGSL
TXBWIC21120-37321-00123-20001578D0005977D0276900024123       GGSL
TXBWIC21120-37321-00127-00000009D0000248D0032400516127       GGSL
TXBWIC21120-37321-00141-60000024D0000108D0036000288141       GGSL
TXBWIC21120-37321-00142-30000016D0000144D00000000161428      GGSL
TXBWIC21120-37321-00148-50000024D0000220D0000001080148       GGSL
TXBWIC21120-37321-00150-80000180D0002637D0209701536150       GGSL
TXBWIC21120-37321-00166-90000012D0000071D0030900192166       GGSL
TXBWIC21120-37321-00196-60000072D0000385D0008400036196       GGSL
TXBWIC21120-37321-00197-30000048D0000262D0000000096197       GGSL
TXBWIC21120-37321-00202-40000288D0002764D0028000528202       GGSL
TXBWIC21120-37321-00203-10000192D0002641D0065100096203       GGSL
TXBWIC21120-37321-00204-80000012D0000308D0000000006204       GGSL
TXBWIC21120-37321-00205-50000004D0000184D0000000016205       GGSL
TXBWIC21120-37321-00210-90000069D0000413D0043000111210       GGSL
TXBWIC21120-37321-00211-60000186D0001571D0057000324211       GGSL
TXBWIC21120-37321-00213-00000246D0002473D0067800084213       GGSL
TXBWIC21120-37321-00214-70000348D0001775D0091200240214       GGSL
TXBWIC21120-37321-00217-80000024D0000226D0000000108217       GGSL
TXBWIC21120-37321-00221-50000024D0000139D0000000060221       GGSL
TXBWIC21120-37321-00238-30000066D0000558D0037200714238       GGSL
TXBWIC21120-37321-00240-60000018D0000285D00000000302406      GGSL
TXBWIC21120-37321-00250-50000210D0001013D0064801518250       GGSL
TXBWIC21120-37321-00252-90000039D0000431D0032600099252       GGSL
TXBWIC21120-37321-00253-60000024D0000479D0055500120253       GGSL
TXBWIC21120-37321-00255-00000036D0000740D0115800288255       GGSL
TXBWIC21120-37321-00257-40000030D0000114D00288004742576      GGSL
TXBWIC21120-37321-00272-70000006D0000025D00000000362726      GGSL
TXBWIC21120-37321-00274-10000159D0000947D0090900978274       GGSL
TXBWIC21120-37321-00276-50000012D0000156D0000000072276       GGSL
TXBWIC21120-37321-00285-70000036D0000190D0000000132285       GGSL
TXBWIC21120-37321-00299-40000036D0000300D0000000048299       GGSL
TXBWIC21120-37321-00307-60000120D0000511D0069001044307       GGSL
TXBWIC21120-37321-00309-00000042D0000693D0044100210309       GGSL
TXBWIC21120-37321-00311-30000030D0000874D0000000018311       GGSL
TXBWIC21120-37321-00330-40000096D0000829D0045300048330       GGSL
TXBWIC21120-37321-00331-10000072D0001012D00426000723316      GGSL
TXBWIC21120-37321-00370-00000012D0000050D0000000036370       GGSL
TXBWIC21120-37321-00411-00000012D0000045D0026400000411       GGSL
TXBWIC21120-37321-00412-70000192D0000983D0028800000412       GGSL
TXBWIC21120-37321-00420-20000241D0012411D0015500006420       GGSL
TXBWIC21120-37321-00426-40000030D0000400D0063000720426       GGSL
TXBWIC21120-37321-00428-80000168D0000623D0093301260428       GGSL
TXBWIC21120-37321-00442-40000321D0001939D0062100267442       GGSL
TXBWIC21120-37321-00443-10000156D0001611D0036400084443       GGSL
TXBWIC21120-37321-00506-30000036D0000153D00456003905066      GGSL
TXBWIC21120-37321-00543-80000006D0000022D00498000605436      GGSL
TXBWIC21120-37321-00544-50000012D0000067D00264000305446      GGSL
TXBWIC21120-37321-00549-00000012D0000098D0021600000549       GGSL
TXBWIC21120-37321-00552-00000018D0000120D0011400090551       GGSL
TXBWIC21120-37321-00553-70000007D0000211D0022000012553       GGSL
TXBWIC21120-37321-00560-50000003C0000036C0001800000560       GGSL
TXBWIC21120-37321-00564-30000018D0000173D00744004505646      GGSL
TXBWIC21120-37321-00571-10000213D0001677D0021900078571       GGSL
TXBWIC21120-37321-00573-50000078D0000353D0028800060573       GGSL
TXBWIC21120-37321-00577-30000036D0000365D0016800088574       GGSL
TXBWIC21120-37321-00603-90000016D0000152D0002400000603       GGSL
TXBWIC21120-37321-00609-10000036D0000356D0008700036609       GGSL
TXBWIC21120-37321-00611-40000128D0002588D0050800096611       GGSL
TXBWIC21120-37321-00631-20001843D0004990D3060103120631       GGSL
TXBWIC21120-37321-00651-00000020D0000237D00004000040651      GGSL
TXBWIC21120-37321-00652-70000030D0000152D00198000126526      GGSL
TXBWIC21120-37321-00655-80000154D0000984D00497008406556      GGSL
TXBWIC21120-37321-00680-00000012D0000108D00870000486806      GGSL
TXBWIC21120-37321-00685-50000138D0001518D0038500222685       GGSL
TXBWIC21120-37321-00688-60000012D0000072D00000000486886      GGSL
TXBWIC21120-37321-00690-90000036D0000378D0054900012690       GGSL
TXBWIC21120-37321-00691-60000024D0000193D00256000086914      GGSL
TXBWIC21120-37321-00692-30000552D0005883D0241500180692150    GGSL
TXBWIC21120-37321-00705-00000060D0000368D0000000024705       GGSL
TXBWIC21120-37321-00752-40000018D0000123D0010200006752       GGSL
TXBWIC21120-37321-00753-10000012D0000113D0000000012753       GGSL
TXBWIC21120-37321-00754-80000004D0000110D0001600008754       GGSL
TXBWIC21120-37321-00771-50000108D0000555D0020100108771       GGSL
TXBWIC21120-37321-00775-30000357D0001936D0128700942775       GGSL
TXBWIC21120-37321-00777-70000048D0000456D0033600051777       GGSL
TXBWIC21120-37321-00779-10000096D0000813D0042900384779       GGSL
TXBWIC21120-37321-00784-50000054D0000154D0044400120784       GGSL
TXBWIC21120-37321-00786-90000354C0001501C0278401200786       GGSL
TXBWIC21120-37321-00789-00000150D0000945D0128400565791       GGSL
TXBWIC21120-37321-00802-60000012D0000063D0000000012802       GGSL
TXBWIC21120-37321-00803-30000078D0000708D00078001028036      GGSL
TXBWIC21120-37321-00811-80000336D0003731D01509002468116      GGSL
TXBWIC21120-37321-00813-20000099D0001428D0042000456813       GGSL
TXBWIC21120-37321-00857-60000276D0002294D0096000012857       GGSL
TXBWIC21120-37321-00862-00000138D0001752D0045000084862       GGSL
TXBWIC21120-37321-00866-80000030D0000214D0000000012865       GGSL
TXBWIC21120-37321-00870-50000036D0000177D0009600048870       GGSL
TXBWIC21120-37321-00875-00000159D0001717D0037300084875       GGSL
TXBWIC21120-37321-00880-40000096D0001168D0054300180880       GGSL
TXBWIC21120-37321-00883-50000042D0000194D0041100180883       GGSL
TXBWIC21120-37321-00892-70000024D0000228D0010801872892       GGSL
TXBWIC21120-37321-00904-70000012D0000101D0000000144904       GGSL
TXBWIC21120-37321-00908-50000018D0000177D00000000609086      GGSL
TXBWIC21120-37321-00925-20000543D0001698D0175901359925       GGSL
TXBWIC21120-37321-00939-90000180D0001933D0092400672939       GGSL
TXBWIC21120-37321-00941-20000540D0005503D0167100744941       GGSL
TXBWIC21120-37321-00946-70000008D0000072D0000400016946       GGSL
TXBWIC21120-37321-00951-10000384D0001624D0050401290951       GGSL
TXBWIC21120-37321-00952-80000363D0001834D0028500120952       GGSL
TXBWIC21120-37321-00978-80000027D0000159D0000000036978       GGSL
TXBWIC21120-37321-00982-50000099D0000422D0065700144982       GGSL
TXBWIC21120-37321-00986-30000012D0000015D0000000000986       GGSL
TXBWIC21120-37321-00987-00000168D0001472D0106600096987       GGSL
TXBWIC21120-37321-00992-40000012D0000106D0000000108992       GGSL
TXBWIC21120-37321-01972-50000012D0000048D00000000241972      GGSL
TXBWIC21120-37321-02031-80000018D0000508D00000000362031      GGSL
TXBWIC21120-37321-02061-50000012D0000204D00000000962061      GGSL
TXBWIC21120-37321-02071-40000006D0000181D00000000122071      GGSL
TXBWIC21120-37321-02360-90000024D0000181D002760004823606     GGSL
TXBWIC21120-37321-02361-60000036D0000418D00135002852361      GGSL
TXBWIC21120-37321-02362-30000016D0000300D00000000162362      GGSL
TXBWIC21120-37321-02600-60000030D0000362D00000000482600      GGSL
TXBWIC21120-37321-02601-30000012D0000239D00000005042601      GGSL
TXBWIC21120-37321-02602-00000048D0000260D00000008762602      GGSL
TXBWIC21120-37321-02604-40000009D0000165D00000003332604      GGSL
TXBWIC21120-37321-02610-50000018D0000106D00000000902610      GGSL
TXBWIC21120-37321-02611-20000042D0000518D00000001202611      GGSL
TXBWIC21120-37321-02612-90000078D0001202D00000007682612      GGSL
TXBWIC21120-37321-02613-60000042D0000385D00000000182613      GGSL
TXBWIC21120-37321-02615-00000009D0000175D00000000332615      GGSL
TXBWIC21120-37321-05141-10000008D0000040D00000000005141      GGSL
TXBWIC21120-37321-05612-60000027D0000258D00415002405612      GGSL
TXBWIC21120-37321-05710-90000036D0000219D00285001205710      GGSL
TXBWIC21120-37321-05712-30000144D0001393D00255000605712      GGSL
TXBWIC21120-37321-05714-70000062D0001871D00084001245714      GGSL
TXBWIC21120-37321-07458-80000072D0001250D00108001807458      GGSL
TXBWIC21120-37321-07497-70000036D0000150D00000000127497      GGSL
TXBWIC21120-37321-07498-40000008D0000086D00000000047498      GGSL
TXBWIC21120-37321-08752-60000012D0000141D00123000128752      GGSL
TXBWIC21120-37321-09534-70000327D0003583D00147003609534      GGSL
TXBWIC21120-37321-40058-20000012D0000067D000000000046130     GGSL
TXBWIC21120-37321-46126-50001000D0000171D051000130046126     GGSL
TXBWIC21120-37321-46183-80000012D0000087D0005700000691       GGSL
TXBWIC21120-37321-46190-60000096D0000307D001920014446190     GGSL
TXBWIC21120-37321-46406-80000080D0000559D004720002446406     GGSL
TXBWIC21120-37321-60400-60000060D0000808D000260270960402     GGSL
TXBWIC21120-37321-60430-30000001D0000012D000430000060432     GGSL
TXBWIC21120-37321-60476-10000211D0002494D013990571760478     GGSL
TXBWIC21120-37321-60514-00000306D0003706D021480109460516     GGSL
TXBWIC21120-38313-00000-00000004D0001030D0000000000MR 9236   GGSL
TXBWIC21120-38313-00005-90000026D0000547D0002100052GS 6750D  GGSL
TXBWIC21120-38313-00008-00000105D0001864D0040500080BP 3130   GGSL
TXBWIC21120-38313-00060-80000374D0006651D0115001236BP 3160   GGSL
TXBWIC21120-38313-00080-60000176D0003744D0044201008BP 3180D  GGSL
TXBWIC21120-38313-00081-30000030D0000320D0000000126AC 7220   GGSL
TXBWIC21120-38313-00217-60000173C0000320C0007300014FS 4350   GGSL
TXBWIC21120-38313-00524-50000006D0000130D0000000012SL 3310   GGSL
TXBWIC21120-38313-00740-90000003D0000313D0000300000FK 74000  GGSL
TXBWIC21120-38313-00830-70000016D0000504D0012300019BP 6250   GGSL
TXBWIC21120-38313-01010-20000546D0002714D0279605076CT 3010I  GGSL
TXBWIC21120-38313-01020-10000204D0000987D0055200822CT 3020I  GGSL
TXBWIC21120-38313-01030-00000090D0000428D0021000900CT 3030I  GGSL
TXBWIC21120-38313-02006-40000002D0000153D0000100000WB 2006   GGSL
TXBWIC21120-38313-03050-60000012D0000097D0011400018GT 3050   GGSL
TXBWIC21120-38313-03060-50000024D0000189D0007200018GT 3060   GGSL
TXBWIC21120-38313-03080-30000024D0000186D0010200402GT 3080   GGSL
TXBWIC21120-38313-03214-20000168D0001668D0018000084BP 3214D  GGSL
TXBWIC21120-38313-03264-40000006D0000103D0059400030SL 3264   GGSL
TXBWIC21120-38313-03344-60000012D0000325D0000000000HS 3344   GGSL
TXBWIC21120-38313-03394-10000006D0000045D0005400006FS 3394   GGSL
TXBWIC21120-38313-03470-20000010D0000303D0002700004FL 3470   GGSL
TXBWIC21120-38313-03694-20000006D0000178D0000300000LG 3694   GGSL
TXBWIC21120-38313-03710-90000090D0000561D0106800096CT 3710   GGSL
TXBWIC21120-38313-03720-80000120D0000752D0075000018CT 3720   GGSL
TXBWIC21120-38313-03750-50000042D0000262D0008400090CT 3750   GGSL
TXBWIC21120-38313-04930-00002133D0012812D0214400560AG 4930   GGSL
TXBWIC21120-38313-04930-70001301D0007755D0101500150AG 4930SS GGSL
TXBWIC21120-38313-06100-50000006D0000162D0000500006SH 61000  GGSL
TXBWIC21120-38313-06970-40000027D0001236D0010400036AH 6970   GGSL
TXBWIC21120-38313-07265-00000012D0000237D0003000000RS 7265D  GGSL
TXBWIC21120-38313-07545-20000030D0000509D0010200037RS 7245   GGSL
TXBWIC21120-38313-08300-00000048D0000316D0006000084AC 8300   GGSL
TXBWIC21120-38313-10000-10000104D0001003D0020000054SS 10000  GGSL
TXBWIC21120-38313-10227-20000030D0002080D0010900008AL 6512   GGSL
TXBWIC21120-38313-12400-70000384D0004868D0028000049RK 24003  GGSL
TXBWIC21120-38313-17100-10000006D0000118D0000000030BP 7100D  GGSL
TXBWIC21120-38313-20001-50000029D0000644D0002100005PD 20000  GGSL
TXBWIC21120-38313-20004-60000018D0000265D0010300179CV 20004  GGSL
TXBWIC21120-38313-20022-00000052D0000960D0012700031RK 20022  GGSL
TXBWIC21120-38313-21000-70000025D0000359D0017000147SH 20000  GGSL
TXBWIC21120-38313-24000-40000011D0000086D0071800030FS 4000   GGSL
TXBWIC21120-38313-26020-00000086D0001218D0008400030SS 26020  GGSL
TXBWIC21120-38313-26022-40000011D0000173D0000400003SS 26030  GGSL
TXBWIC21120-38313-27020-90000017D0000249D0001300019SS 27020  GGSL
TXBWIC21120-38313-28000-00000011D0000200D0004800002SS 28000  GGSL
TXBWIC21120-38313-28010-90000064D0001323D0004300012SS 28010  GGSL
TXBWIC21120-38313-29001-60000012D0000260D0002400000SS 29010  GGSL
TXBWIC21120-38313-32341-70000008D0000082D0005700134GT 3234   GGSL
TXBWIC21120-38313-32441-40000022D0000225D0014900139GT 3244   GGSL
TXBWIC21120-38313-32541-10000004D0000040D0000000160GT 3254   GGSL
TXBWIC21120-38313-33140-50000064D0000523D0015400024CT 3314   GGSL
TXBWIC21120-38313-33240-20000096D0000721D0009600072CT 3324   GGSL
TXBWIC21120-38313-33340-90000016D0000124D0009600008CT 3334   GGSL
TXBWIC21120-38313-33440-60000048D0000397D0014400384CT 3344   GGSL
TXBWIC21120-38313-33540-30000048D0000359D0012800016CT 3354   GGSL
TXBWIC21120-38313-33640-00000056D0000516D0020000344CT 3364   GGSL
TXBWIC21120-38313-36241-60000011D0000313D0001100203LG 3624   GGSL
TXBWIC21120-38313-37101-20000002D0000037D0001900012LG 3710   GGSL
TXBWIC21120-38313-37201-90000003D0000053D0004600174LG 3720   GGSL
TXBWIC21120-38313-53841-50000006D0000315D0000600003TP 3841   GGSL
TXBWIC21120-38313-56200-70000014D0000113D0003100003RK 62000  GGSL
TXBWIC21120-38313-60061-70000006D0000154D0000000018SH 60061  GGSL
TXBWIC21120-38313-62062-20000006D0000280D0010600003BM 62060  GGSL
TXBWIC21120-38313-65000-10000003D0000074D0000700006SS 65000  GGSL
TXBWIC21120-38313-66500-50000012D0000409D0000000006SL 6500   GGSL
TXBWIC21120-38313-70422-30000006D0000085D0000000000AC 7041   GGSL
TXBWIC21120-38313-80000-00000007D0000577D0001700006SF 80000  GGSL
TXBWIC21120-38313-81000-90000086D0000852D0017300045RK 10000  GGSL
TXBWIC21120-38313-82000-80000006D0000133D0000000006FK 42000  GGSL
TXBWIC21120-38313-90040-30000002D0000166D0000400000AS 90040  GGSL
TXBWIC21120-38313-90300-80000002D0000180D0000200002AS 90300  GGSL
TXBWIC21120-38776-00207-20000012D0000126D0000000000UU1906BK3 GGSL
TXBWIC21120-38776-00213-30000001D0000063D0000000008UU1906ST  GGSL
TXBWIC21120-38776-00313-00000001D0000073D0000000002UU1412ST  GGSL
TXBWIC21120-38776-62193-80000001D0000094D0000000006UR1810ST  GGSL
TXBWIC21120-39645-11752-10000012D0000058D003310000040200010  GGSL
TXBWIC21120-39996-30290-40000020D0000221D000000000030290     GGSL
TXBWIC21120-39996-30292-80000170D0001575D000000059030292     GGSL
TXBWIC21120-39996-30293-50000200D0003175D000000055030293     GGSL
TXBWIC21120-40025-54033-40000015D0000695D0002600004RWS-54033 GGSL
TXBWIC21120-40200-00000- 0000325D0000077D0017500100VBC H11-7 GGSL
TXBWIC21120-40279-03300-20000300D0000604D01536002763300      GGSL
TXBWIC21120-40279-03302-60000348D0000740D0108000060          GGSL
TXBWIC21120-40279-16136-70000252D0000436D000000000016136     GGSL
TXBWIC21120-41535-24550-40000085D0003744D003040000724550     GGSL
TXBWIC21120-41535-24560-30000226D0037058D006050005424560     GGSL
TXBWIC21120-41535-24571-90000476D0007040D0100900725100518540 GGSL
TXBWIC21120-42206-00202-00000110D0000149D0049400080202S      GGSL
TXBWIC21120-42206-00269-30000024D0000117D0024000156269       GGSL
TXBWIC21120-42206-00395-90000018D0000054D0054000180395S      GGSL
TXBWIC21120-42206-00525-00000040D0000120D0023600170525C      GGSL
TXBWIC21120-42206-00872-50000012D0000032D0024000024872-6     GGSL
TXBWIC21120-42206-03112-90000010D0000012D000000003031Z 1/2   GGSL
TXBWIC21120-42206-03158-70000010D0000013D000000003031Z 5/8   GGSL
TXBWIC21120-42206-03900-20000006D0000092D00000000183900H     GGSL
TXBWIC21120-42206-09000-30000074D0000525D00452001709000      GGSL
TXBWIC21120-42206-09620-30000011D0000445D00169000209620-8    GGSL
TXBWIC21120-42206-14058-60000180D0001147D00120000009570      GGSL
TXBWIC21120-42206-14196-50000020D0000031D00000000004125SH    GGSL
TXBWIC21120-42206-14220-70000034D0000171D0044600150312S      GGSL
TXBWIC21120-42206-14221-40000036D0000083D0043800010313S      GGSL
TXBWIC21120-42206-14222-10000006D0000114D0010800072314S      GGSL
TXBWIC21120-42206-14235-10000010D0000014D0013500010390S      GGSL
TXBWIC21120-42206-14456-00000006D0000012D0055200006420C      GGSL
TXBWIC21120-42206-14501-70000020D0000020D00351000201FMC      GGSL
TXBWIC21120-42206-14502-40000020D0000017D00333000301MMC      GGSL
TXBWIC21120-42206-14503-10000040D0000042D01165001102FMC      GGSL
TXBWIC21120-42206-14504-80000070D0000062D00857001402MMC      GGSL
TXBWIC21120-42206-14505-50000010D0000012D002660001001MC      GGSL
TXBWIC21120-42206-14506-20000066D0000073D005820011002MC      GGSL
TXBWIC21120-42206-14570-30000020D0000132D0025800070ZBR3/4    GGSL
TXBWIC21120-42206-14571-00000092D0000383D0039900070ZBM3/4    GGSL
TXBWIC21120-42206-14572-70000213D0000930D0058300030ZBF3/4    GGSL
TXBWIC21120-42206-15111-70000020D0000154D000970002015111     GGSL
TXBWIC21120-42206-20491-20000014D0000077D001760000420491-10  GGSL
TXBWIC21120-42206-22261-90000108D0001090D001620001822261     GGSL
TXBWIC21120-42206-30200-70000010D0000070D0000000020XT200     GGSL
TXBWIC21120-42206-38636-60000012D0000118D0000000186R8636     GGSL
TXBWIC21120-42206-40301-80000008D0000071D0020800608XT301     GGSL
TXBWIC21120-42206-63015-50000027D0000891D000320000463015     GGSL
TXBWIC21120-42206-95501-20000012D0000063D00000000249550C     GGSL
TXBWIC21120-42579-00000-00000048D0000572D0000000012LEAFTARP9XGGSL
TXBWIC21120-42579-11212-80000005D0000281D0002600000SSR12GRN  GGSL
TXBWIC21120-42579-11250-00000019D0008005D0019200001P12       GGSL
TXBWIC21120-42579-11500-60000019D0000960D0033800091APB5      GGSL
TXBWIC21120-42579-12342-10000144D0001800D0000000072PSS       GGSL
TXBWIC21120-42579-12346-90000048D0000093D0000100096TW3W      GGSL
TXBWIC21120-42579-12353-70000060D0000361D0001500000PG12      GGSL
TXBWIC21120-42579-13250-80000391D0015281D0213000161P3        GGSL
TXBWIC21120-42579-14250-70000286D0023415D0093100160P4        GGSL
TXBWIC21120-42579-15250-60000147D0014300D0020800006P5        GGSL
TXBWIC21120-42579-16250-50000271D0041037D0040600083P6        GGSL
TXBWIC21120-42579-18250-30000015D0004851D0020400023P8        GGSL
TXBWIC21120-42579-19342-40000240D0002834D010560026420 YR-324 GGSL
TXBWIC21120-42579-22341-10004960D0030397D12384045766 YR-350  GGSL
TXBWIC21120-42579-22342-80001590D0019632D0036601356NS12      GGSL
TXBWIC21120-42579-22345-90002688D0004619D0488703504APRC      GGSL
TXBWIC21120-42579-32355-50000588D0003596D0098000294RS15      GGSL
TXBWIC21120-42579-32501-60000005D0000279D00000000106 YR-4300 GGSL
TXBWIC21120-42579-43004-80000025D0002666D0014900016NB4       GGSL
TXBWIC21120-42579-43006-20000013D0001875D0005400008NB6       GGSL
TXBWIC21120-42579-43240-00000020D0000164D0000000060NB324     GGSL
TXBWIC21120-42579-50154-00000056D0001739D0033600024PRO BLK-31GGSL
TXBWIC21120-42579-50169-40000126D0002515D0034200180PRO BLK-45GGSL
TXBWIC21120-42579-50541-80000012D0000119D0000000000NSPJ8     GGSL
TXBWIC21120-42579-50542-50000001D0000312D0000000000NSPJPAL   GGSL
TXBWIC21120-42579-62010-40000006D0000351D0000000000WT10      GGSL
TXBWIC21120-42579-63041-70000006D0000835D0001100004KG6       GGSL
TXBWIC21120-42579-63045-50000002D0000482D0000100000KG12      GGSL
TXBWIC21120-42579-63101-80000058D0002866D0000000002TSL-BX    GGSL
TXBWIC21120-42579-63105-60000010D0000630D0009100000350ROLL   GGSL
TXBWIC21120-42579-63106-30000336C0000630C0300000000CLIP-C    GGSL
TXBWIC21120-42579-63111-70000900D0000189D0000000000RPB-RED   GGSL
TXBWIC21120-42579-63306-70000324D0001978D02880006123 YR-350  GGSL
TXBWIC21120-42579-81272-10000001D0000111D0000000001K6        GGSL
TXBWIC21120-42579-81360-50000146D0026822D0011500104NS12250   GGSL
TXBWIC21120-42579-81392-60000081D0020306D0000000021WGC15     GGSL
TXBWIC21120-42579-81405-30000003D0000027D0000000010AP75      GGSL
TXBWIC21120-42579-81428-20000283D0000595D0068400063BURLAP BAGGGSL
TXBWIC21120-42579-81505-00000002D0000516D0000000000ULTIMATE12GGSL
TXBWIC21120-42579-81566-10000096D0014569D0089100044SBLT10300 GGSL
TXBWIC21120-42579-81568-50000124D0021827D0122900099SBLT12300 GGSL
TXBWIC21120-42579-81569-20000316D0071777D0192100092SBLT15.530GGSL
TXBWIC21120-42579-81571-50000093D0004497D0178200097SBLT3300  GGSL
TXBWIC21120-42579-81572-20000049D0003218D0033600068SBLT4300  GGSL
TXBWIC21120-42579-81573-90000200D0018938D0214000205SBLT6300  GGSL
TXBWIC21120-42579-81580-70000001D0000091D0000000006DELUXE12-5GGSL
TXBWIC21120-42579-81605-70000012D0000988D0003100000PRO BLK-33GGSL
TXBWIC21120-42579-81606-40000010D0001299D0008200003PRO BLK-43GGSL
TXBWIC21120-42579-81607-10000023D0003922D0008700003PRO BLK-63GGSL
TXBWIC21120-42579-81608-80000003D0000754D0000400000PRO BLK-83GGSL
TXBWIC21120-42579-81619-40000014D0000960D0000000038APB1      GGSL
TXBWIC21120-42579-81624-80000072D0001072D0000000072PRO BLK-35GGSL
TXBWIC21120-42579-81733-70000009D0000598D0005100010CS-3300BLKGGSL
TXBWIC21120-42579-81734-40000008D0000613D0003100020CS-4300BLKGGSL
TXBWIC21120-42579-81735-10000008D0000992D0005300024CS-6300BLKGGSL
TXBWIC21120-42579-81738-20000175C0000992C0001100002CS-350BLK GGSL
TXBWIC21120-42579-81739-90000002D0000496D0001500000CS-3100BLKGGSL
TXBWIC21120-42579-81783-20000001D0000479D0000000000FG200PAL  GGSL
TXBWIC21120-42579-82224-90000032D0000206D0000000000DELUXE650 GGSL
TXBWIC21120-42579-82225-60000064D0001368D0000000064SUPREME650GGSL
TXBWIC21120-42579-82226-30000024D0000707D0000000000ULTIMATE65GGSL
TXBWIC21120-42579-82293-50000504D0003006D0000000084SUPREME625GGSL
TXBWIC21120-42579-82341-30000012D0000518D0000000006DDF7100PROGGSL
TXBWIC21120-42579-82500-40000020D0000115D0000000000NSPJ6     GGSL
TXBWIC21120-42597-81409-10000002D0000030D0000000000COUNTER2  GGSL
TXBWIC21120-42597-81578-40000002D0001589D0000000000SUPREME36 GGSL
TXBWIC21120-42853-00000-00000065D0002722D0027500056BFTD-DB12 GGSL
TXBWIC21120-42853-50000-90000006D0000033D0038400168TSW-BB6   GGSL
TXBWIC21120-42853-52000-40000006D0000043D0001200000CBTS-BB6  GGSL
TXBWIC21120-42853-62000-40001560D0001669D0003100012FFTA-DB12 GGSL
TXBWIC21120-42853-65000-10000016D0000037D0000000116AB6-BB4   GGSL
TXBWIC21120-42853-75017-60000136D0000634D0000000320PFTR-BB8  GGSL
TXBWIC21120-42853-75117-30000312D0000554D0001200336PFTA-DB12 GGSL
TXBWIC21120-42853-77305-40000094D0003056D0009100120FTD-DB12  GGSL
TXBWIC21120-42854-03298-10000192D0000407D0040800072FG32ORB112GGSL
TXBWIC21120-42854-09098-10000001D0000185D0000000000FG32ORB190GGSL
TXBWIC21120-42854-63278-50000022C0000185C0045600204FG32PC1-12GGSL
TXBWIC21120-42854-64870-00000072D0000502D0000600000FG48PC1-6 GGSL
TXBWIC21120-42879-81992-80000012D0000115D0000000036NAT340    GGSL
TXBWIC21120-43312-10001-50000270C0000115C0010800000101-0-027 GGSL
TXBWIC21120-43312-10003-70000384D0001108D0109300000103-0-009 GGSL
TXBWIC21120-43312-10027-30000084D0000706D0042000000104-0-003 GGSL
TXBWIC21120-43312-10102-70000576D0000852D0216000000102-0-012 GGSL
TXBWIC21120-43326-15732-40000030D0000184D0000000000M10X12    GGSL
TXBWIC21120-43326-15751-50000008D0000082D0000000000M10X20    GGSL
TXBWIC21120-43326-16720-00000016D0000150D0000000056A8X10-P8  GGSL
TXBWIC21120-43326-20002-00000050D0000045D0000000000STR-10    GGSL
TXBWIC21120-43326-20003-70000050D0000050D0000000000STR-15    GGSL
TXBWIC21120-43326-20004-40000050D0000057D0000000000STR-21    GGSL
TXBWIC21120-43326-20005-10000050D0000076D0000000000STR-31    GGSL
TXBWIC21120-43326-59578-20000006D0001033D0000000002G12X26    GGSL
TXBWIC21120-43326-59720-50000032D0000920D0000000000G8X10     GGSL
TXBWIC21120-43326-59732-80000030D0001295D0000000005G10X12    GGSL
TXBWIC21120-43326-59736-60000004D0000219D0000000004G10X16    GGSL
TXBWIC21120-43326-59748-90000006D0000444D0000000003G12X18    GGSL
TXBWIC21120-43326-59771-70000004D0000247D0000000008G10X18    GGSL
TXBWIC21120-43326-59772-40000003D0000247D0000000000G12X20    GGSL
TXBWIC21120-43786-00102-10000008D0000150D0000000000102       GGSL
TXBWIC21120-43786-05140-80000024D0000101D000000001205140     GGSL
TXBWIC21120-43786-70102-00000024D0000114D000000009670102     GGSL
TXBWIC21120-43792-50001-30000003D0000123D0000400011Y32       GGSL
TXBWIC21120-43792-60002-70000004D0000154D0000700021W32       GGSL
TXBWIC21120-43792-70002-40000001D0000041D0001400008R32       GGSL
TXBWIC21120-43792-80001-40000036C0000041C0000100001SW10      GGSL
TXBWIC21120-43792-90003-50000002D0000094D0000000002GA10      GGSL
TXBWIC21120-44882-30501-30000010D0000122D0002500095FXG5825   GGSL
TXBWIC21120-44882-30502-00000005D0000124D0010500170FXG5850   GGSL
TXBWIC21120-44882-30504-40000003D0000087D0009300075FXG5875   GGSL
TXBWIC21120-46539-62045-60000681D0010454D0458100369          GGSL
TXBWIC21120-46539-64032-40000469D0003985D0167401112          GGSL
TXBWIC21120-46753-01032-30000228D0000760D00198000004675301032GGSL
TXBWIC21120-46753-01128-30000048D0000433D00216000964675301128GGSL
TXBWIC21120-46753-02032-20000166D0000642D00343000004675302032GGSL
TXBWIC21120-46753-02128-20000020D0000240D00167000084675302128GGSL
TXBWIC21120-46753-03128-10000020D0000252D00100000004675303128GGSL
TXBWIC21120-46753-04032-00000023D0000130D00378002404675304032GGSL
TXBWIC21120-46753-04033-70000282D0002096D00438005042004675304GGSL
TXBWIC21120-46753-04128-00000080D0001086D00436003364675304128GGSL
TXBWIC21120-46753-04500-40000003D0000190D00018000004675304500GGSL
TXBWIC21120-46753-05032-90000252D0001836D00564004864675305032GGSL
TXBWIC21120-46753-05128-90000116D0001368D00288002684675305128GGSL
TXBWIC21120-46753-07032-70000016C0001368C00165000004675307032GGSL
TXBWIC21120-46753-08032-60000144D0002182D00522009904675308032GGSL
TXBWIC21120-46753-14032-70000020D0000087D00395002404675314032GGSL
TXBWIC21120-46753-14128-70000052D0000420D00162001564675314128GGSL
TXBWIC21120-46753-14550-60000003D0000882D000000000014550     GGSL
TXBWIC21120-46753-17005-80000030D0000131D00254000184675317005GGSL
TXBWIC21120-46753-17040-90000197D0002649D01397000334675317040GGSL
TXBWIC21120-46753-20128-80000012D0000241D0000000040          GGSL
TXBWIC21120-46753-21032-70000036D0000190D008660114010327     GGSL
TXBWIC21120-46753-21128-70000012D0000159D001520082412287     GGSL
TXBWIC21120-47977-00059-60000004D0000062D000000000824701     GGSL
TXBWIC21120-47977-00081-70000001D0000025D000000000023830     GGSL
TXBWIC21120-47977-00494-50000003D0000046D000000000025270     GGSL
TXBWIC21120-47977-00505-80000002D0000024D000000000023956     GGSL
TXBWIC21120-47977-00563-80000002D0000124D000000000324637     GGSL
TXBWIC21120-47977-00601-70000004D0000038D000000000023952     GGSL
TXBWIC21120-47977-01194-30000002D0000045D000000000423839     GGSL
TXBWIC21120-47985-10023-30000064D0000501D0025700000YCBSM3CF-PGGSL
TXBWIC21120-47985-10033-20000068D0000568D0056100088YCBSI3CF-PGGSL
TXBWIC21120-48307-70003-20000001D0000008D0005500002ST3       GGSL
TXBWIC21120-48307-70004-90000003D0000033D0030700000ST4-WS    GGSL
TXBWIC21120-48307-70005-60000002D0000031D0009500001ST5       GGSL
TXBWIC21120-48745-22244-80000020D0000466D0004000000BL22244   GGSL
TXBWIC21120-49206-03627-70000075D0000141D0000000000EE1025TC  GGSL
TXBWIC21120-50197-00104-50000654D0002895D0238900516HT4       GGSL
TXBWIC21120-50197-00108-30000132D0000842D0038400180HT8       GGSL
TXBWIC21120-50197-00118-20000477D0005244D0179100152HT18      GGSL
TXBWIC21120-50197-00136-60000490D0008601D0062700117HT36      GGSL
TXBWIC21120-50197-00150-20000682D0014810D0029700001HT50      GGSL
TXBWIC21120-50197-00204-20000282D0001262D0295101194PT4       GGSL
TXBWIC21120-50197-00208-00000126D0000783D0023400156PT8       GGSL
TXBWIC21120-50197-00218-90000148D0001763D0041500071PT18      GGSL
TXBWIC21120-50197-00236-30000198D0003451D0049900046PT36      GGSL
TXBWIC21120-50197-00250-90000267D0005710D0021000002PT50      GGSL
TXBWIC21120-50197-00304-90001117D0004494D0209202352GT4       GGSL
TXBWIC21120-50197-00308-70000048D0000303D0000600186GT8       GGSL
TXBWIC21120-50197-00318-60000094D0001178D0062000109GT18      GGSL
TXBWIC21120-50197-00336-00000119D0002293D0036800065GT36      GGSL
TXBWIC21120-50197-00404-60001764D0007059D0168901608RT4       GGSL
TXBWIC21120-50197-00408-40000072D0000462D0025800054RT8       GGSL
TXBWIC21120-50197-00418-30000206D0002263D0078200037RT18      GGSL
TXBWIC21120-50197-00604-00000336D0001476D0107400396BT4       GGSL
TXBWIC21120-50197-00618-70000009D0000095D0000300018BT18      GGSL
TXBWIC21120-50197-00704-70000378D0001717D0085900120TR4       GGSL
TXBWIC21120-50197-00718-40000047D0000622D0029700024TR18      GGSL
TXBWIC21120-50197-00736-80000010D0000180D0000000000TR36      GGSL
TXBWIC21120-50197-00904-10001728D0007055D0284202172TO4       GGSL
TXBWIC21120-50197-00908-60000048D0000303D0030000042TO8       GGSL
TXBWIC21120-50197-00918-80000031D0000352D0028400073TO18      GGSL
TXBWIC21120-50197-01004-70000096D0000408D0015601152BM04      GGSL
TXBWIC21120-50197-01024-50000010D0000176D0000100015BM24      GGSL
TXBWIC21120-50197-01228-70000008D0000147D0001500014RP28      GGSL
TXBWIC21120-50197-01303-10000048D0000284D0016801032DB03      GGSL
TXBWIC21120-50197-01317-80000005D0000159D0000500000DB17      GGSL
TXBWIC21120-50197-01803-60000624D0001804D0050400060GM3       GGSL
TXBWIC21120-50197-01825-80000610D0005404D0063400015GM25      GGSL
TXBWIC21120-50197-01905-70000012D0000047D0000600030GF5105/6  GGSL
TXBWIC21120-50197-02006-00000240D0000591D0067500258GL6       GGSL
TXBWIC21120-50197-02206-40000156D0000743D0063600192GG6       GGSL
TXBWIC21120-50197-02805-90000870D0004193D0000000120GF101010/6GGSL
TXBWIC21120-50197-02904-90000444D0002054D0124001122FT4       GGSL
TXBWIC21120-50197-02918-60000037D0000446D0037500042FT18      GGSL
TXBWIC21120-50197-03802-70000080D0000080D0008000000BTSP5OZ   GGSL
TXBWIC21120-50197-03804-10001512D0007712D0443602694BTSP4     GGSL
TXBWIC21120-50197-03808-90000102D0000812D0000000024BTSP8     GGSL
TXBWIC21120-50197-03818-80000022D0000396D0000000060BTSP18    GGSL
TXBWIC21120-50197-03825-60000212D0005030D0086200102BTSP25    GGSL
TXBWIC21120-50197-03904-80000288D0001307D0038501044PM4       GGSL
TXBWIC21120-50197-03920-80000005D0000070D0003800000PM20      GGSL
TXBWIC21120-50197-05004-30000744D0003356D0204801206CT4       GGSL
TXBWIC21120-50197-05018-00000178D0002027D0050100032CT18      GGSL
TXBWIC21120-50197-05320-40000025D0000345D0042100002ELF20     GGSL
TXBWIC21120-50197-05340-20000014D0000328D0000000010ELF40     GGSL
TXBWIC21120-50197-05405-80000336D0001543D0034900048IT5       GGSL
TXBWIC21120-50197-05420-10000006D0000082D0005100000it20      GGSL
TXBWIC21120-50197-05628-10000060D0001264D0008000020EOLF28    GGSL
TXBWIC21120-50197-05730-10000060D0001186D0001300000EOSR30    GGSL
TXBWIC21120-50197-05830-80000020D0000398D0001000000EOFW30    GGSL
TXBWIC21120-50197-06504-70000432D0001959D0134101272AT4       GGSL
TXBWIC21120-50197-06508-50000048D0000293D0016800012AT8       GGSL
TXBWIC21120-50197-06518-40000042D0000512D0005500004AT18      GGSL
TXBWIC21120-50197-06604-40000168D0000718D0065400048BR4       GGSL
TXBWIC21120-50197-06708-90000042D0000275D0001200006ET8       GGSL
TXBWIC21120-50197-06718-80000035D0000417D0000200002ET18      GGSL
TXBWIC21120-50197-30508-20000090D0000375D0001200348INPF8     GGSL
TXBWIC21120-50197-30608-90000090D0000362D0005400378CAPF8     GGSL
TXBWIC21120-50197-30708-60000066D0000262D0000000348VIPF8     GGSL
TXBWIC21120-50197-30808-30000078D0000312D0000600336ORPF8     GGSL
TXBWIC21120-50197-31308-70000012D0000038D0007800024TOPF8     GGSL
TXBWIC21120-50197-51324-10000024D0000134D0009600234EONM24    GGSL
TXBWIC21120-50197-51701-00000012D0000080D0000000012eoss1     GGSL
TXBWIC21120-50197-70101-30000462D0002734D0060300081ap1       GGSL
TXBWIC21120-50197-70102-00000726D0006703D0041500200ap2       GGSL
TXBWIC21120-50197-70304-80000324D0000938D0094400204ca4       GGSL
TXBWIC21120-50197-70308-60000126D0000581D0032400078ca8       GGSL
TXBWIC21120-50197-70516-50000043D0000228D0000000096SS16      GGSL
TXBWIC21120-50197-71304-70000396D0002484D0043200060EC4       GGSL
TXBWIC21120-50197-71501-00000566D0003877D0137100056lsc1      GGSL
TXBWIC21120-50197-71601-70000130D0000533D0040900000dcm1      GGSL
TXBWIC21120-50197-71804-20000096D0000647D0000000144BO4       GGSL
TXBWIC21120-50197-71904-90000060D0000410D0038400720HC4       GGSL
TXBWIC21120-50197-80117-10000097D0000975D0000100000SC17      GGSL
TXBWIC21120-50349-01003-10000012D0000564D00000000001003-012  GGSL
TXBWIC21120-50349-01069-70000100D0000460D00000000201069-012  GGSL
TXBWIC21120-50349-01078-30000002D0001460D00000000001023-017  GGSL
TXBWIC21120-50349-10661-50000007D0000589D00000000001078-082  GGSL
TXBWIC21120-50349-18885-30000060D0000992D00019000018885-034  GGSL
TXBWIC21120-50699-00000-00000001D0000009D0000100000303460    GGSL
TXBWIC21120-50699-00212-00000036D0000337D0001800000300212    GGSL
TXBWIC21120-52427-00551-90000001D0000019D00000000004500102   GGSL
TXBWIC21120-52427-01038-40000002D0000036D0000000000105462    GGSL
TXBWIC21120-52427-01048-30000001D0000037D0000000000105629    GGSL
TXBWIC21120-52427-01049-00000002D0000074D0000000000105634    GGSL
TXBWIC21120-52427-60035-60000002D0000376D00000000006035240   GGSL
TXBWIC21120-52732-00000-00000022D0001281D000160021619109     GGSL
TXBWIC21120-52732-10012-10000040D0005305D000980001810001     GGSL
TXBWIC21120-52732-10225-50000003D0000094D000140000060009.0   GGSL
TXBWIC21120-52732-20505-50000006D0000568D00116000162050SU    GGSL
TXBWIC21120-52732-20509-30000003D0000473D00153000342050P     GGSL
TXBWIC21120-52732-20519-20000004D0000612D00035000022050TP    GGSL
TXBWIC21120-52732-21700-30000004D0001222D00000000092170      GGSL
TXBWIC21120-52732-27500-30000259D0011968D01010002132750      GGSL
TXBWIC21120-52732-31000-10000002D0000376D00000000013100.0    GGSL
TXBWIC21120-52732-65000-80000007D0000858D00019000026500.0    GGSL
TXBWIC21120-53291-11002-60000072D0000852D0031200024820-1002  GGSL
TXBWIC21120-53291-30000-00000001D0000313D0000200000820-1024  GGSL
TXBWIC21120-53291-41165-60000001D0000075D0000000000          GGSL
TXBWIC21120-56554-10517-30000004D0000062D0000000000MSA16001E2GGSL
TXBWIC21120-56554-10518-00000008D0000166D0000000000MSA20001E2GGSL
TXBWIC21120-56554-10598-20000012D0000328D0000000000AOS16000P5GGSL
TXBWIC21120-56554-31058-40000008D0000078D0000000000SRA10001P0GGSL
TXBWIC21120-56554-31358-50000006D0000091D0000000000SRA13001P0GGSL
TXBWIC21120-56554-67705-20000030D0000458D0003000000moa22000G1GGSL
TXBWIC21120-56554-91954-10000012D0000561D0000000008KTS15000A5GGSL
TXBWIC21120-56554-91955-80000016D0000748D0000000004KTS15000E5GGSL
TXBWIC21120-56554-91958-90000014D0000948D0000000002KTX16000A5GGSL
TXBWIC21120-56554-91959-60000008D0000373D0000000002KTX16000E5GGSL
TXBWIC21120-58115-00114-60000008D0000128D0000000008114       GGSL
TXBWIC21120-66498-01115-70000007D0000185D000860000901115.0   GGSL
TXBWIC21120-66498-02115-60003793D0064644D033290152002775.0   GGSL
TXBWIC21120-66498-02185-90000156D0002140D001470012002185     GGSL
TXBWIC21120-66498-02330-90000600D0013017D00000000006649802330GGSL
TXBWIC21120-66498-03175-90000140D0001793D000700001003175     GGSL
TXBWIC21120-66498-04175-80001010D0012465D011150167304175.0   GGSL
TXBWIC21120-66498-05113-90000633D0004521D000330002205175.0   GGSL
TXBWIC21120-66498-09785-40000024D0000112D000000010209785     GGSL
TXBWIC21120-66498-09795-30000075D0000948D000000000109795     GGSL
TXBWIC21120-66498-09901-80001466D0010818D062340197709901.0   GGSL
TXBWIC21120-66498-09902-50005048D0052081D064700055609902.0   GGSL
TXBWIC21120-66498-09903-20003079D0044601D016620036509903.0   GGSL
TXBWIC21120-66498-09925-40000228D0001122D009840048009925     GGSL
TXBWIC21120-66498-09929-20000007D0000054D002080003309929     GGSL
TXBWIC21120-66498-09937-70001008D0003359D029630277209937     GGSL
TXBWIC21120-66498-09939-10000003D0000028D000080029809939     GGSL
TXBWIC21120-66498-09947-60000132D0000429D007080132009947     GGSL
TXBWIC21120-66498-09950-50000594D0004346D013560113409955     GGSL
TXBWIC21120-66498-09965-00000846D0007063D004260117609965     GGSL
TXBWIC21120-66498-09977-30000900D0006331D003240066009977     GGSL
TXBWIC21120-66498-09985-80000240D0001032D003950063609985     GGSL
TXBWIC21120-66498-89905-20001122D0005346D022950143409905     GGSL
TXBWIC21120-66498-99827-40000456D0002604D011040180009827     GGSL
TXBWIC21120-70183-50005-50000432D0013329D00068000605000510   GGSL
TXBWIC21120-70183-50006-20000480D0018347D00018000065000610   GGSL
TXBWIC21120-70183-50023-90000018D0000437D00054000005002306   GGSL
TXBWIC21120-70183-50026-00002080D0024755D00208000085002610   GGSL
TXBWIC21120-70183-50027-70000072D0000291D00024000065002715   GGSL
TXBWIC21120-70183-50034-50003539D0017222D00679000605003470   GGSL
TXBWIC21120-70183-50038-30000788D0010253D00080000005003810   GGSL
TXBWIC21120-70183-50042-00000006D0000633D00012000005004215   GGSL
TXBWIC21120-70183-50055-00001620D0018918D00390001325003610   GGSL
TXBWIC21120-70183-50060-40000012D0000432D00045000125006010   GGSL
TXBWIC21120-70183-50124-30000240D0003735D00000000005012408   GGSL
TXBWIC21120-70183-50125-00000004D0000086D00000000005012506   GGSL
TXBWIC21120-70183-50202-80000480D0010279D00000000005020210   GGSL
TXBWIC21120-70183-50203-50000234D0003637D00000000005020310   GGSL
TXBWIC21120-70183-50204-20000066D0001024D00000000005020410   GGSL
TXBWIC21120-70183-51000-90000492D0019748D00000000005100006   GGSL
TXBWIC21120-70183-51001-60001096D0020292D00052000005100114   GGSL
TXBWIC21120-70183-51006-10003096D0066181D00192000605100612   GGSL
TXBWIC21120-70183-51007-80000042D0001977D00036000065100710   GGSL
TXBWIC21120-70183-51009-20000012D0000164D00056000125004010   GGSL
TXBWIC21120-70183-51019-10000936D0020327D00052000005101910   GGSL
TXBWIC21120-70183-51073-30000708D0003548D00216000125107315   GGSL
TXBWIC21120-70183-51090-00000115D0036800D00150000325109010   GGSL
TXBWIC21120-70183-52005-30000008D0000172D00036000005200510   GGSL
TXBWIC21120-70183-52039-80000007D0000147D00064000045203910   GGSL
TXBWIC21120-70183-57050-80000456D0013805D00012000185705010   GGSL
TXBWIC21120-70183-57080-50000540D0009033D00008000005708010   GGSL
TXBWIC21120-70183-57250-20000616D0013806D00012000125725070   GGSL
TXBWIC21120-70251-75546-20000025C0013806C0003300000755460    GGSL
TXBWIC21120-70251-81482-40000108D0000652D01107000188141082   GGSL
TXBWIC21120-70805-00000-00000120D0001851D0000000000SH1HORANEYGGSL
TXBWIC21120-70805-51001-10000410D0000979D012400005070805-010-GGSL
TXBWIC21120-70805-51002-80000321D0001507D005120002070805-005-GGSL
TXBWIC21120-70805-51013-40001723D0024878D0161900154BD02      GGSL
TXBWIC21120-70805-51024-00000066D0000252D002760001270805-006-GGSL
TXBWIC21120-70805-51025-70002702D0039242D045260033270805-001-GGSL
TXBWIC21120-70805-51026-40000180D0000637D002700000670805-006-GGSL
TXBWIC21120-70805-51033-20000274D0003935D004820000970805-001-GGSL
TXBWIC21120-70805-51034-90000304D0008404D006330001370805-001-GGSL
TXBWIC21120-70805-51037-00000020D0000256D000390000070805-001-GGSL
TXBWIC21120-70805-51038-70000019D0000455D000860000070805-001-GGSL
TXBWIC21120-70805-51051-60000080D0000532D003680000070805-008-GGSL
TXBWIC21120-70805-53003-30001149D0009146D0248100083BD021     GGSL
TXBWIC21120-70805-62025-30005499D0143940D051380042570805-001-GGSL
TXBWIC21120-70805-84052-10000016D0000478D0005800008KERNEL_M-0GGSL
TXBWIC21120-70805-84053-80000079D0001982D002610000670805-001-GGSL
TXBWIC21120-70805-84054-50000087D0001495D002150000670805-001-GGSL
TXBWIC21120-70805-84075-00000324D0010274D008000001670805-001-GGSL
TXBWIC21120-70805-84076-70000032D0001869D004890000070805-001-GGSL
TXBWIC21120-70805-84077-40000010D0000578D0013600000KERNEL_M-0GGSL
TXBWIC21120-70805-84079-80000100D0004861D002940000470805-001-GGSL
TXBWIC21120-70805-84093-40000027D0001321D0009900001PEANUTSPL-GGSL
TXBWIC21120-70923-00000-00000012D0000053D0024700000600.0     GGSL
TXBWIC21120-70923-00196-50000096D0000168D0062300024T100-12   GGSL
TXBWIC21120-70923-00300-60000049D0000438D0093700000T300FD    GGSL
TXBWIC21120-70923-00402-70000072D0000238D0009600018T401-6    GGSL
TXBWIC21120-70923-00912-10000030D0000144D0007800000T901-6    GGSL
TXBWIC21120-70923-02111-60000012D0000070D0000600000T21016    GGSL
TXBWIC21120-70923-02301-10000024D0000085D0009000000T2302-6   GGSL
TXBWIC21120-70923-02900-60000088D0000451D0028000016T2900     GGSL
TXBWIC21120-70923-08515-60000072D0000122D0018600120T3206     GGSL
TXBWIC21120-70923-11915-80000002D0000448D0000000015T2502-DS  GGSL
TXBWIC21120-70923-12117-50000006D0000123D0003700000T300-NT   GGSL
TXBWIC21120-70923-12277-60000054D0000274D0004200000T1812     GGSL
TXBWIC21120-70923-19016-40000006D0000039D0000000000T1901-6   GGSL
TXBWIC21120-70923-69500-30000024D0000914D0007300001T2512     GGSL
TXBWIC21120-71092-32500-80000072D0000341D0025000060T2502     GGSL
TXBWIC21120-71121-05580-40000060D0000457D00252000485580      GGSL
TXBWIC21120-71121-53371-50000024D0000102D0000000000HG-53371  GGSL
TXBWIC21120-71121-53940-30000004D0000036D0024000000HG-53944  GGSL
TXBWIC21120-71121-56420-70000006D0000028D0000000000hg-66420  GGSL
TXBWIC21120-71121-61067-60000003D0001437D0000000019HG-861067 GGSL
TXBWIC21120-71121-95614-90000018D0000054D0000000000HG-95614  GGSL
TXBWIC21120-71121-95675-00000012D0000045D0001200048HG-30110  GGSL
TXBWIC21120-71121-95704-70000138D0000692D0115800876HG-95704  GGSL
TXBWIC21120-71121-95769-60000012D0000070D0000000060HG-95769  GGSL
TXBWIC21120-71121-96280-50000456D0001514D0000002556HG-96280  GGSL
TXBWIC21120-71121-96281-20000012D0000051D0087900012HG-96281  GGSL
TXBWIC21120-71549-01128-40000008D0000026D00256000000112812   GGSL
TXBWIC21120-71549-01129-10000032D0001916D00168000040112912   GGSL
TXBWIC21120-71549-01656-20000174D0001250D00285000000165610   GGSL
TXBWIC21120-71549-01666-10000006D0000072D00228000000166610   GGSL
TXBWIC21120-71549-01738-50000008C0000072C00348000000173810   GGSL
TXBWIC21120-71549-01748-40000018D0000146D00135000120174810   GGSL
TXBWIC21120-71549-01751-40000336D0003457D00000000000175110   GGSL
TXBWIC21120-71549-02003-30000048D0000711D00020000160200310   GGSL
TXBWIC21120-71549-02014-90000060D0000346D00144000000201405   GGSL
TXBWIC21120-71549-02022-40000408D0001245D00184000000202212   GGSL
TXBWIC21120-71549-02028-60000168D0000566D00008000000202812   GGSL
TXBWIC21120-71549-02029-30000204D0000816D00012000000202912   GGSL
TXBWIC21120-71549-02047-70000012D0000067D00852000120204710   GGSL
TXBWIC21120-71549-02054-50000088D0000506D00024000080205408   GGSL
TXBWIC21120-71549-02055-20001404D0003012D00048001620205506   GGSL
TXBWIC21120-71549-02208-20001512D0013196D00432000120220810   GGSL
TXBWIC21120-71549-02219-80000440D0003263D00008000000221910   GGSL
TXBWIC21120-71549-02575-50000242C0003263C00000000030200328   GGSL
TXBWIC21120-71549-02756-80000288D0000729D00288000080275612   GGSL
TXBWIC21120-71549-02822-00000440D0009789D00489000120282210   GGSL
TXBWIC21120-71549-03390-30000132D0001518D00018000000339010   GGSL
TXBWIC21120-71549-03456-60000432D0001879D00198000000345610   GGSL
TXBWIC21120-71549-03964-60000174D0001183D00036000000396410   GGSL
TXBWIC21120-71549-03987-50000222D0002442D00009000000398710   GGSL
TXBWIC21120-71549-04253-00000240D0001680D00228000000425310   GGSL
TXBWIC21120-71549-04318-60000042D0000183D00230000069994318   GGSL
TXBWIC21120-71549-04378-00000126D0001070D00171000120437806   GGSL
TXBWIC21120-71549-04380-30000168D0000631D00320000000438006   GGSL
TXBWIC21120-71549-04385-80001068D0004560D00270003060438580   GGSL
TXBWIC21120-71549-04465-70000204D0002645D00016000000446505   GGSL
TXBWIC21120-71549-04477-00000948D0004375D00012000000447705   GGSL
TXBWIC21120-71549-04478-70000768D0006963D00060000120447805   GGSL
TXBWIC21120-71549-04479-40001020D0008589D00564000120447905   GGSL
TXBWIC21120-71549-04481-70001156D0010347D00024000000448105   GGSL
TXBWIC21120-71549-04486-20000270D0002158D00036000000448605   GGSL
TXBWIC21120-71549-04487-90000150D0001125D00012000000448705   GGSL
TXBWIC21120-71549-04488-60000012D0000173D00020000000448805   GGSL
TXBWIC21120-71549-04491-60000336D0003050D00024000120449105   GGSL
TXBWIC21120-71549-04493-00000004D0000039D00008000000449305   GGSL
TXBWIC21120-71549-04494-70000012D0000101D00348000120449405   GGSL
TXBWIC21120-71549-04495-40000162D0000755D00030000000449505   GGSL
TXBWIC21120-71549-04745-00000006D0000047D00089000000474510   GGSL
TXBWIC21120-71549-04757-30000168D0002572D00064000000475705   GGSL
TXBWIC21120-71549-04758-00000013D0000324D00002000010475805   GGSL
TXBWIC21120-71549-04759-70000001D0000070D00000000000475905   GGSL
TXBWIC21120-71549-04910-20000018D0000069D00060000000491010   GGSL
TXBWIC21120-71549-07472-20000012D0000047D00006000120747210   GGSL
TXBWIC21120-71549-08410-30000552D0004944D00190000180841010   GGSL
TXBWIC21120-71549-43331-40000696D0004245D00552000000433310   GGSL
TXBWIC21120-71549-43361-10000632D0011078D00060000000433610   GGSL
TXBWIC21120-71549-43371-00000004D0000125D00094000000433710   GGSL
TXBWIC21120-71549-43701-50000284D0006147D00016000120437010   GGSL
TXBWIC21120-71549-43887-60000036D0000141D00204000004388710   GGSL
TXBWIC21120-71549-44551-50000004D0000072D00004000000445510   GGSL
TXBWIC21120-71549-46008-20000084D0001260D00056000164600810   GGSL
TXBWIC21120-71549-46026-60000012D0000085D00036000004602610   GGSL
TXBWIC21120-71549-46132-40000052D0000774D00272000004613264   GGSL
TXBWIC21120-71549-46134-80000012D0000055D00042000004613406   GGSL
TXBWIC21120-71549-46135-50000004D0000049D00024000004613504   GGSL
TXBWIC21120-71549-46510-00000018D0000228D00162000004651005   GGSL
TXBWIC21120-71549-99008-40000252D0003108D00408000069900810   GGSL
TXBWIC21120-71549-99019-00000006D0000069D00171000009901910   GGSL
TXBWIC21120-71559-04648-40000003D0000016D00003000000464812   GGSL
TXBWIC21120-71693-02101-60000006D0004265D000000000002-P1000S GGSL
TXBWIC21120-71693-02106-10000001D0002200D000000000002-SP2700SGGSL
TXBWIC21120-71693-02110-80000001D0001017D000000000002-SP660S GGSL
TXBWIC21120-71693-04110-60000003D0001021D000000000004-LG1100 GGSL
TXBWIC21120-71693-04114-40000007D0003157D000000000004-LG1100VGGSL
TXBWIC21120-71693-04754-20000001D0000240D000000000004-LG750VSGGSL
TXBWIC21120-71693-92209-20000001D0000495D000000000002-ORV500 GGSL
TXBWIC21120-71693-98401-40000001D0000371D000000000002-P450PN GGSL
TXBWIC21120-71693-98701-50000002D0000612D000000000002-PAO450 GGSL
TXBWIC21120-71693-98900-20000001D0000286D000000000002-MH250  GGSL
TXBWIC21120-71898-43163-40000812D0018158D01189000487800      GGSL
TXBWIC21120-71898-43180-10000492D0008977D00944000307450      GGSL
TXBWIC21120-71898-43209-90000054D0001183D00145001227822      GGSL
TXBWIC21120-71898-43210-50000191D0004974D00020000357824      GGSL
TXBWIC21120-71898-43211-20000238D0006397D00277000407828      GGSL
TXBWIC21120-71898-43213-60000774D0017512D01383000187324      GGSL
TXBWIC21120-71898-43214-30000201D0003891D00307000387326      GGSL
TXBWIC21120-71898-43215-00000185D0002908D003560001832150     GGSL
TXBWIC21120-72525-00003-00000114D0000385D0022200060HRT-6     GGSL
TXBWIC21120-72525-00005-40000117D0000564D0005700003HRP-16    GGSL
TXBWIC21120-72525-00022-10000042D0000312D0016200024HBB-32    GGSL
TXBWIC21120-72525-00055-90000060D0000417D0007800012EGG-16    GGSL
TXBWIC21120-72525-00078-80000060D0000206D0001500000BBTRP     GGSL
TXBWIC21120-72532-00014-80001488D0011822D0289701200          GGSL
TXBWIC21120-72532-00015-50000408D0010850D0099300469          GGSL
TXBWIC21120-72532-00016-20000162D0007093D0041100002          GGSL
TXBWIC21120-72532-00017-90000210D0017979D0074000049          GGSL
TXBWIC21120-72532-22310-30000070D0000566D0023000310stspray-10GGSL
TXBWIC21120-72532-50001-30000005D0000045D0000000035stsolid-5 GGSL
TXBWIC21120-72693-00014-80000046D0000484D005460001282770001  GGSL
TXBWIC21120-72693-00015-50000060D0004140D000900000582100001  GGSL
TXBWIC21120-72693-00022-30000053D0013405D002350000683000002  GGSL
TXBWIC21120-72693-00046-90000030D0001422D005510005482004985  GGSL
TXBWIC21120-72693-00102-20000003D0000165D001370000082701020  GGSL
TXBWIC21120-72693-00480-10000028D0003362D000000000282002490  GGSL
TXBWIC21120-72693-00498-60000208D0010118D025680010882002489  GGSL
TXBWIC21120-72693-00505-10000192D0004039D032500014482002488  GGSL
TXBWIC21120-72693-00993-60000006D0000174D000810000082100099  GGSL
TXBWIC21120-72693-01020-80000028D0006477D003030000783014144  GGSL
TXBWIC21120-72693-01021-50000006D0000114D000140000082701021  GGSL
TXBWIC21120-72693-02475-50000034D0001098D003100019382002475  GGSL
TXBWIC21120-72693-02478-60000080D0014133D000310000182002478  GGSL
TXBWIC21120-72693-02479-30000368D0002030D028150019582002479  GGSL
TXBWIC21120-72693-02504-20000012D0000141D008690015682002504  GGSL
TXBWIC21120-72693-02506-60001063D0018718D065010031482002506  GGSL
TXBWIC21120-72693-02507-30000186D0027872D006670003882002507  GGSL
TXBWIC21120-72693-02686-50000038D0001264D009900000082002686  GGSL
TXBWIC21120-72693-03052-70000018D0000979D002160000682300305  GGSL
TXBWIC21120-72693-03143-20000006D0000056D001560000082300314  GGSL
TXBWIC21120-72693-03154-80000078D0000930D002150001882300315  GGSL
TXBWIC21120-72693-03164-70000037D0000317D000510000682300316  GGSL
TXBWIC21120-72693-03174-60000045D0000446D017880000682300317  GGSL
TXBWIC21120-72693-03188-30000001D0000054D000980000082300318  GGSL
TXBWIC21120-72693-03194-40000006D0000185D000230002482300319  GGSL
TXBWIC21120-72693-03254-50000090D0006035D000120000082003254  GGSL
TXBWIC21120-72693-03284-20000030D0000216D000230001282300328  GGSL
TXBWIC21120-72693-03298-90000046D0003358D008030001882300329  GGSL
TXBWIC21120-72693-03395-50000003D0000585D000180000082300339  GGSL
TXBWIC21120-72693-03507-20000384D0002369D007440030082100050  GGSL
TXBWIC21120-72693-03598-00000228D0009864D042700157282003598  GGSL
TXBWIC21120-72693-03599-70000839D0079705D055050072682003599  GGSL
TXBWIC21120-72693-04320-60002516D0231888D002930047682004320  GGSL
TXBWIC21120-72693-04430-20001337D0021948D053790142882004430  GGSL
TXBWIC21120-72693-04431-90000370D0008408D061480090082004431  GGSL
TXBWIC21120-72693-04432-60001009D0032287D062060030582004432  GGSL
TXBWIC21120-72693-04435-70000987D0040491D112130061682004435  GGSL
TXBWIC21120-72693-04438-80002878D0044610D134380092082004438  GGSL
TXBWIC21120-72693-04491-30000111D0000780D013550016882004491  GGSL
TXBWIC21120-72693-04493-70000489D0006541D040810057082004493  GGSL
TXBWIC21120-72693-04500-20000040D0002400D000560000582304500  GGSL
TXBWIC21120-72693-04504-00000367D0007995D028540025782004505  GGSL
TXBWIC21120-72693-04505-70000122D0010549D053660034282004506  GGSL
TXBWIC21120-72693-04506-40000191D0003229D021130041182004504  GGSL
TXBWIC21120-72693-04508-80000017D0000193D004250001082004508  GGSL
TXBWIC21120-72693-04964-20007571D0058398D319300754882004964  GGSL
TXBWIC21120-72693-05004-40000876D0004383D030000030082005004  GGSL
TXBWIC21120-72693-05005-10000858D0010505D027780049282005005  GGSL
TXBWIC21120-72693-05007-50000285D0007852D014010007282005007  GGSL
TXBWIC21120-72693-05200-00000328D0003316D013880011682030466  GGSL
TXBWIC21120-72693-05201-70000588D0003117D035640052882005201  GGSL
TXBWIC21120-72693-05202-40000828D0010070D022080032482005202  GGSL
TXBWIC21120-72693-06002-90000665D0009666D044400023482004318  GGSL
TXBWIC21120-72693-06003-60000492D0014984D025040046082004319  GGSL
TXBWIC21120-72693-08300-40000166D0009625D029310005882008300  GGSL
TXBWIC21120-72693-10002-20000040D0000520D000440000382004964  GGSL
TXBWIC21120-72693-10011-40000354D0003622D021220002482004317  GGSL
TXBWIC21120-72693-10012-10000005D0000097D000610000082210011  GGSL
TXBWIC21120-72693-10013-80000090D0000716D004860009682210012  GGSL
TXBWIC21120-72693-10231-60000006D0000052D003240001882210023  GGSL
TXBWIC21120-72693-14057-80000154D0010780D017290005483014005  GGSL
TXBWIC21120-72693-20038-80000002D0000532D000040000083080147  GGSL
TXBWIC21120-72693-21037-00000084D0000625D015600007282021037  GGSL
TXBWIC21120-72693-24010-00000051D0001559D004950000082002401  GGSL
TXBWIC21120-72693-24030-80000133D0010793D015620003582002403  GGSL
TXBWIC21120-72693-24033-90000012D0000536D000180000083014004  GGSL
TXBWIC21120-72693-24957-80000587D0003285D012310020482002495  GGSL
TXBWIC21120-72693-29101-00000022D0001210D008680000383012910  GGSL
TXBWIC21120-72693-29912-20000629D0007183D064310081683012991  GGSL
TXBWIC21120-72693-31550-10000007D0001155D000200000782300332  GGSL
TXBWIC21120-72693-31766-60000042D0000652D003740009082031766  GGSL
TXBWIC21120-72693-31973-80000114D0002658D005790004882031973  GGSL
TXBWIC21120-72693-31975-20000018D0001182D001730000882031975  GGSL
TXBWIC21120-72693-31984-40000723D0007842D065050054682031984  GGSL
TXBWIC21120-72693-31985-10000681D0008053D116060189682031985  GGSL
TXBWIC21120-72693-33688-90000069D0005100D005670005283013368  GGSL
TXBWIC21120-72693-33730-90000038D0005529D000000007083013373  GGSL
TXBWIC21120-72693-33744-20000003D0000272D000660000883013374  GGSL
TXBWIC21120-72693-33820-30000553C0000272C002980002483013382  GGSL
TXBWIC21120-72693-33850-00000084D0008160D004580001183013385  GGSL
TXBWIC21120-72693-33880-70000031D0004427D000860000083013388  GGSL
TXBWIC21120-72693-33953-80000244D0008651D037520040383013395  GGSL
TXBWIC21120-72693-34958-20000060D0004510D004550001183013884  GGSL
TXBWIC21120-72693-36208-60000001D0000048D009870000883013620  GGSL
TXBWIC21120-72693-38528-30000009D0003788D002300000983013852  GGSL
TXBWIC21120-72693-40010-80000009D0001627D001600000383014003  GGSL
TXBWIC21120-72693-40127-30000001D0000052D002560000083014012  GGSL
TXBWIC21120-72693-40177-80000486D0002063D031130031582104017  GGSL
TXBWIC21120-72693-41878-30000490D0017973D033490018283014187  GGSL
TXBWIC21120-72693-44290-00000585D0007358D017470096682004429  GGSL
TXBWIC21120-72693-44410-20000333D0013365D052630073882004441  GGSL
TXBWIC21120-72693-44430-00000163D0022747D015760035782004443  GGSL
TXBWIC21120-72693-44650-20000015D0000304D000270000682004465  GGSL
TXBWIC21120-72693-44660-10000008D0000448D000640000082004466  GGSL
TXBWIC21120-72693-45000-40000120D0000751D016800012082004500  GGSL
TXBWIC21120-72693-45010-30000192D0001687D036800014482004501  GGSL
TXBWIC21120-72693-45020-20000228D0003209D031790009682004502  GGSL
TXBWIC21120-72693-45030-10000018D0000915D010300000082994503  GGSL
TXBWIC21120-72693-45115-50000384D0002434D015630026482004511  GGSL
TXBWIC21120-72693-46930-30000484D0004074D024080010482004693  GGSL
TXBWIC21120-72693-46950-10000146D0003919D007060002482004695  GGSL
TXBWIC21120-72693-46970-90000478D0071586D000010002482004697  GGSL
TXBWIC21120-72693-50064-80000588D0005369D036230027682005006  GGSL
TXBWIC21120-72693-50096-90000001D0000104D000230000082005009  GGSL
TXBWIC21120-72693-69370-80000060D0000413D007440000082690037  GGSL
TXBWIC21120-72693-70004-80000142D0001104D010350012782770008  GGSL
TXBWIC21120-72693-77034-80000243D0002552D014020000082770003  GGSL
TXBWIC21120-72693-81001-30000021D0000306D000150000382810002  GGSL
TXBWIC21120-72693-82104-00000429D0014895D043850034182100005  GGSL
TXBWIC21120-72693-82303-70000120D0000663D019680037282300001  GGSL
TXBWIC21120-72693-82998-50000080D0003997D015440035282995003  GGSL
TXBWIC21120-72725-00023-80000048D0000647D0007200004HBB-128   GGSL
TXBWIC21120-72725-00158-70000012D0000482D0008000000BLKBB-128 GGSL
TXBWIC21120-72725-00183-90000012D0000162D0004800000BLKBB-326 GGSL
TXBWIC21120-72725-00213-30000030D0000225D0000900000BLKBB-16A GGSL
TXBWIC21120-72725-00214-00000012D0000082D0000900000BLKBB-P4  GGSL
TXBWIC21120-72725-00215-40000008D0000220D0000800000BBKIT-LGVPGGSL
TXBWIC21120-72725-00235-50000012D0000071D0000000012PD-1      GGSL
TXBWIC21120-72725-00269-00000051D0000213D0034800360DE-FG105P GGSL
TXBWIC21120-72725-00407-60000036D0000226D0007200096DE-FG2P   GGSL
TXBWIC21120-72725-00408-30000088D0000775D0027300376DE-FG4P   GGSL
TXBWIC21120-72725-00461-80000048D0000156D0028800972360-32S   GGSL
TXBWIC21120-72725-00462-50000024D0000392D0000000000GOLDBB-326GGSL
TXBWIC21120-72725-00463-20000008D0000471D0000000008GOLDBB-128GGSL
TXBWIC21120-72725-00502-80000016D0000093D0000000000DE-FG4    GGSL
TXBWIC21120-72868-00000-00000528D0000391D0633600000M330      GGSL
TXBWIC21120-72868-00201-40000012D0000019D0000200012M201      GGSL
TXBWIC21120-72868-00300-40000768D0002448D0200400072M6006     GGSL
TXBWIC21120-72868-00326-40004968D0007588D2883606024M326      GGSL
TXBWIC21120-72868-00800-90000066D0000666D0093600000M6009     GGSL
TXBWIC21120-72868-02220-30000104D0000697D0018400176M6004     GGSL
TXBWIC21120-72868-02300-20000018D0000117D0000000000M7001-1   GGSL
TXBWIC21120-72868-02400-90000016D0000176D0016800000M7002-2   GGSL
TXBWIC21120-72868-03620-00000019D0001331D0033300007VP362     GGSL
TXBWIC21120-72868-03630-90000072D0000538D0221100025VP363     GGSL
TXBWIC21120-72868-03648-40000229D0006731D0237300117VP364B    GGSL
TXBWIC21120-72868-09320-30005184D0001113D0921604032M320      GGSL
TXBWIC21120-72868-11751-00000036D0000280D0003600006M751K     GGSL
TXBWIC21120-72868-13035-90000421D0000373D0332400828M035      GGSL
TXBWIC21120-72868-13150-90000036D0000030D0036000180M150      GGSL
TXBWIC21120-72868-13200-10001908D0002745D0552000048200R      GGSL
TXBWIC21120-72868-13308-40000152D0001544D0070700044M308      GGSL
TXBWIC21120-72868-13309-10011232D0002071D6184800936M309      GGSL
TXBWIC21120-72868-13310-70000006D0000083D0024600024M310S     GGSL
TXBWIC21120-72868-13325-10016560D0006479D5767200648M325      GGSL
TXBWIC21120-72868-13327-50003300D0000638D0630000450M327      GGSL
TXBWIC21120-72868-13362-60000024D0000111D0000400000M362      GGSL
TXBWIC21120-72868-13530-90000018D0000092D0000000000M530      GGSL
TXBWIC21120-72868-36410-50000028D0000578D0000000000VP364B-10 GGSL
TXBWIC21120-72868-54002-80000720D0001188D0276000048M668      GGSL
TXBWIC21120-72868-54102-50001512D0002816D0570000276M669      GGSL
TXBWIC21120-72868-98756-40000012D0000327D0000000008M756K     GGSL
TXBWIC21120-72874-00117-90000036D0000190D00060000002393      GGSL
TXBWIC21120-72874-01536-70000024D0000073D00108000008426L     GGSL
TXBWIC21120-72874-06464-80000048D0000079D01476000008412M     GGSL
TXBWIC21120-72874-06465-50000048D0000093D00336001448412L     GGSL
TXBWIC21120-72874-06466-20000060D0000113D00048000008412X     GGSL
TXBWIC21120-72874-06484-60000084D0000138D01140000008412B     GGSL
TXBWIC21120-72874-06851-60000012D0000140D00000000006039L     GGSL
TXBWIC21120-72874-06852-30000006D0000070D00000000006039X     GGSL
TXBWIC21120-72874-06946-90000024D0000050D00204000488438XS    GGSL
TXBWIC21120-72874-06947-60000036D0000076D00264000488438S     GGSL
TXBWIC21120-72874-06948-30000012D0000025D00132000008442X     GGSL
TXBWIC21120-72874-06949-00000084D0000177D00072011528442L     GGSL
TXBWIC21120-72874-06950-60000132D0000398D00000000008442M     GGSL
TXBWIC21120-72874-07747-10000036D0000087D00300000488438L     GGSL
TXBWIC21120-72874-08550-60000066D0000336D00000000004063L     GGSL
TXBWIC21120-72874-08551-30000036D0000186D00018000004063X     GGSL
TXBWIC21120-72874-40110-80000012D0000015D00000000004011      GGSL
TXBWIC21120-72874-40200-60000024D0000020D00132000124020L     GGSL
TXBWIC21120-72874-40614-10000012D0000133D00048000004061L     GGSL
TXBWIC21120-72874-40674-50000012D0000053D00024000004067L     GGSL
TXBWIC21120-72874-40675-20000012D0000053D00108000004067X     GGSL
TXBWIC21120-72874-40940-10000012D0000049D00000000004094L     GGSL
TXBWIC21120-72874-40945-60000024D0000097D00000000124094J     GGSL
TXBWIC21120-72874-60233-80000012D0000160D00000000006023M     GGSL
TXBWIC21120-72874-60235-20000012D0000160D00012000066023X     GGSL
TXBWIC21120-73035-02610-90000320D0000128D016000048002610     GGSL
TXBWIC21120-73035-02612-30000160D0000070D017600032002612     GGSL
TXBWIC21120-73035-04226-00000040D0000168D000050061004226     GGSL
TXBWIC21120-73035-06127-80000008D0000032D000000067206127     GGSL
TXBWIC21120-73035-06703-40000060D0000171D001320039606703     GGSL
TXBWIC21120-73035-09026-10000006D0000035D000000000009026     GGSL
TXBWIC21120-73035-09523-50000006D0000126D000030000009523     GGSL
TXBWIC21120-73035-15101-60000024D0000040D002160000005101     GGSL
TXBWIC21120-73035-25001-60000004D0000096D000000017005031T    GGSL
TXBWIC21120-73513-00339- 0000030D0000155D00024000123003310   GGSL
TXBWIC21120-73561-00022-20000540D0002447D00546000482000221   GGSL
TXBWIC21120-73561-00028-40000672D0005136D00653002281000283   GGSL
TXBWIC21120-73561-00042-00001692D0007809D05488002342000422   GGSL
TXBWIC21120-73561-00044-40000030D0000235D00036000361000441   GGSL
TXBWIC21120-73561-00055-00000780D0002092D00095000361000551   GGSL
TXBWIC21120-73561-00070-30000294D0001310D00372000061000701   GGSL
TXBWIC21120-73561-00099-40000684D0001618D01398001802000992   GGSL
TXBWIC21120-73561-00119-90000220D0004903D00136000321001193   GGSL
TXBWIC21120-73561-00150-20000354D0001605D00096002283001502   GGSL
TXBWIC21120-73561-00157-10000252D0000402D0006000000400157    GGSL
TXBWIC21120-73561-00183-00000006D0000072D00018000121001834   GGSL
TXBWIC21120-73561-00190-80000216D0000728D0002400006100195    GGSL
TXBWIC21120-73561-00192-20000108D0000595D00420000481001921   GGSL
TXBWIC21120-73561-00199-10000372D0001042D00192000361001991   GGSL
TXBWIC21120-73561-00252-30001032D0000976D00456003121002522   GGSL
TXBWIC21120-73561-00404-60000060D0000360D00024000181004043   GGSL
TXBWIC21120-73561-00410-70000859D0009155D00954000481004102   GGSL
TXBWIC21120-73561-00432-90000312D0003641D00174000601004325   GGSL
TXBWIC21120-73561-00440-40000012D0000081D00072000181004402   GGSL
TXBWIC21120-73561-00531-90000198D0000544D00636005041000532   GGSL
TXBWIC21120-73561-00590-60000066D0000187D00240000121005901   GGSL
TXBWIC21120-73561-00600-20000006D0000026D00096000363006002   GGSL
TXBWIC21120-73561-00720-70000324D0001012D0000000132100720    GGSL
TXBWIC21120-73561-01611-70000168D0001954D00090000001016111   GGSL
TXBWIC21120-73561-03836-20000012D0000191D00042000001038361   GGSL
TXBWIC21120-73561-10114-10000072D0000974D00251000201011410   GGSL
TXBWIC21120-73561-30019-30000887D0041024D00738000303001910   GGSL
TXBWIC21120-73561-30022-30001440D0014544D00000000003002230   GGSL
TXBWIC21120-73561-30025-40000006D0000031D00018000003002510   GGSL
TXBWIC21120-73561-30029-20000264D0002663D00000000003002910   GGSL
TXBWIC21120-73561-30035-30000246D0002154D00000000063003510   GGSL
TXBWIC21120-73561-30036-00000024D0000178D00018000003003610   GGSL
TXBWIC21120-73561-30037-70000232D0001102D00000000003003710   GGSL
TXBWIC21120-73561-30053-70000006D0000033D00000000003005310   GGSL
TXBWIC21120-73561-30054-40000006D0000033D00000000063005410   GGSL
TXBWIC21120-73561-30057-50000198D0001790D00000000003005710   GGSL
TXBWIC21120-73561-30068-10000492D0001722D00000000003006806   GGSL
TXBWIC21120-73561-33310-80000056D0000409D00000000003330110   GGSL
TXBWIC21120-73561-36001-20000708D0002223D00156000601360011   GGSL
TXBWIC21120-73561-37841-30000006D0000026D00024000063784101   GGSL
TXBWIC21120-73561-46001-90000264D0002508D0033000018146002    GGSL
TXBWIC21120-73561-48510-40002511D0014105D00111000124851012   GGSL
TXBWIC21120-73561-48520-30001602D0008987D00177000724852012   GGSL
TXBWIC21120-73561-60101-60000426D0001392D0055700300160101    GGSL
TXBWIC21120-73561-70101-30001182D0011039D0103200102170101    GGSL
TXBWIC21120-73561-75001-10000528D0001658D00226002101750011   GGSL
TXBWIC21120-73561-85001-80000222D0002146D00126000361850011   GGSL
TXBWIC21120-73889-10004-80000196D0001017D00610003601273      GGSL
TXBWIC21120-74514-57625-20000312D0000449D0227100204HG-95715  GGSL
TXBWIC21120-76807-62225-70000012D0000043D000000000047080     GGSL
TXBWIC21120-76807-63338-30000024D0000100D000000000047030     GGSL
TXBWIC21120-77625-30012-90000002D0000080D0000000000300-12    GGSL
TXBWIC21120-77625-71031-70000002D0000109D00000000027103-2    GGSL
