NJARET22010-03831-30083-70000024D0000781D0000000000BP6250    GGSL
NJARET22010-10052-00333-10001152D0003995D000000000000333     GGSL
NJARET22010-10052-00333-10000001D0000004D000000000000333X    GGSL
NJARET22010-10052-00336-20000036D0000281D000010000000410     GGSL
NJARET22010-10106-16901-30000012D0000080D0000600000HG56901   GGSL
NJARET22010-10367-00001-80000180D0000747D00004000020001      GGSL
NJARET22010-10367-00560-00000288D0001215D000000000005608     GGSL
NJARET22010-10367-01000-00000024D0000333D00000000001000      GGSL
NJARET22010-10367-01020-80000024D0000415D00000000001020      GGSL
NJARET22010-10367-01050-50000036D0000454D00000000001050      GGSL
NJARET22010-10367-01110-60000224D0000878D00037000101110      GGSL
NJARET22010-10367-01111-30000184D0000721D00026000031111      GGSL
NJARET22010-10367-01112-00000232D0000909D00020000121112      GGSL
NJARET22010-10367-01120-50000456D0001788D00021000141120      GGSL
NJARET22010-10367-01121-20000144D0000847D00000000001121      GGSL
NJARET22010-10367-01122-90000224D0001318D00000000001122      GGSL
NJARET22010-10367-01130-40000248D0001590D00009000091130      GGSL
NJARET22010-10367-01140-30000088D0000342D00024000011140      GGSL
NJARET22010-10367-01151-90000136D0000473D00014000061151      GGSL
NJARET22010-10367-01240-00000012D0000071D00015000091240      GGSL
NJARET22010-10367-02121-10000008D0000038D0000000001ML2121    GGSL
NJARET22010-10367-02141-90000008D0000038D0000000000ML2141    GGSL
NJARET22010-10367-03020-60000048D0000286D0000000000ML3020    GGSL
NJARET22010-11192-10594-70000056D0001464D0000200002KHEATMAT  GGSL
NJARET22010-11192-10595-40000054D0002286D0000200000KLIGHT    GGSL
NJARET22010-11192-60612-30000008D0000074D0000000000KGFH      GGSL
NJARET22010-11192-86019-80000060D0000452D0001400002KMG6      GGSL
NJARET22010-11423-00338-70000048D0000298D0001100001HG33801   GGSL
NJARET22010-11423-33802-10000006D0000064D0000300003HG33802   GGSL
NJARET22010-11423-94090-30000012D0000060D0000600001HG64090   GGSL
NJARET22010-11423-94139-90000066D0000354D0000600002HG94127   GGSL
NJARET22010-11423-94239-60000060D0000337D0000900001HG64138   GGSL
NJARET22010-12587-60035-10000004D0000035D000750000060035     GGSL
NJARET22010-12587-70028-00000012D0000067D003530000070028     GGSL
NJARET22010-12587-70419-60000012D0000067D003090000070419     GGSL
NJARET22010-12587-78361-00000324D0002864D000000000078361     GGSL
NJARET22010-12587-78362-70000276D0002492D000000000078362     GGSL
NJARET22010-12587-78742-70000024D0000018D000930000078742     GGSL
NJARET22010-12587-78743-40000012D0000008D001110000078743     GGSL
NJARET22010-12587-78836-30000020D0000017D002240000078836     GGSL
NJARET22010-12587-78838-70000020D0000017D001520000078838     GGSL
NJARET22010-14400-10734-40000018D0000073D00004000001440010734GGSL
NJARET22010-14400-21411-00000048D0000457D00046000001440021411GGSL
NJARET22010-14400-40000-10000024D0000168D000030000040000ZFP  GGSL
NJARET22010-14400-61000-40000006D0000065D000210001461000     GGSL
NJARET22010-14400-66000-90000006D0000075D000110001166000ZFP  GGSL
NJARET22010-14400-67000-80000002D0000029D000010000167000     GGSL
NJARET22010-14400-68100-40000002D0000025D000030000068100ZFP  GGSL
NJARET22010-14400-71065-00000072D0000364D00036000071440071065GGSL
NJARET22010-14400-71265-40000036D0000178D00039000071440071265GGSL
NJARET22010-14400-71400-90000012D0000045D00016000071440071400GGSL
NJARET22010-14400-81200-20000002D0000023D00006000001440081200GGSL
NJARET22010-15561-20084-40000006D0000070D0000400001PT84      GGSL
NJARET22010-15561-20203-90000008D0000837D0004000000PT203     GGSL
NJARET22010-15561-20206-00000006D0000877D0004200000PT206     GGSL
NJARET22010-15561-20960-10000012D0000011D0000200001PT960     GGSL
NJARET22010-15561-20961-80000012D0000019D0000900003PT961     GGSL
NJARET22010-15561-20966-30000012D0000027D0000900003PT966     GGSL
NJARET22010-17500-08120-00000168D0000237D000770000008120     GGSL
NJARET22010-17500-08150-70002304D0003663D000450002208150     GGSL
NJARET22010-17500-90206-20000162D0004324D001700002990206     GGSL
NJARET22010-17500-91316-70000012D0000303D000470000191316     GGSL
NJARET22010-17500-91334-10000012D0000347D000400000091334     GGSL
NJARET22010-17500-91714-10000036D0000975D000690000091714     GGSL
NJARET22010-17500-95204-30000028D0000735D000140000095204     GGSL
NJARET22010-18062-00019-70000120D0000565D0000700001PT06MCCS  GGSL
NJARET22010-18222-00101-90000216D0000702D0001200001CS06101   GGSL
NJARET22010-18222-00103-30000150D0000488D0000400000CS06103   GGSL
NJARET22010-18222-00105-70000282D0000950D0001700000CS06105   GGSL
NJARET22010-18222-00107-10000156D0000710D0001400004CS06107   GGSL
NJARET22010-18222-00109-50000150D0000489D0004500000CS06109   GGSL
NJARET22010-18222-00110-10000180D0000576D0000600001CS06110   GGSL
NJARET22010-18222-00206-10000072D0000353D0000100000CS06206   GGSL
NJARET22010-18222-00213-90000054D0000224D0000800000CS06213   GGSL
NJARET22010-18222-00226-90000004D0000012D0003100002CS04226   GGSL
NJARET22010-18222-00501-70000696D0001159D0001300011CS12501   GGSL
NJARET22010-18222-00503-10000084D0000197D0000400002CS503     GGSL
NJARET22010-18222-00505-50000444D0000534D0000200002CS12505   GGSL
NJARET22010-18222-00507-90000012D0000017D0003100006CS12507   GGSL
NJARET22010-18222-00509-30000576D0000945D0000400003CS12509   GGSL
NJARET22010-18222-00526-00000516D0001651D0003000001CS06526   GGSL
NJARET22010-18222-00527-70000288D0000475D0003700005CS12527   GGSL
NJARET22010-18222-00529-10000120D0000240D0003500000CS12529   GGSL
NJARET22010-18222-00531-40000048D0000114D0003300004CS12531   GGSL
NJARET22010-18222-00535-20000060D0000099D0000300001CS12535   GGSL
NJARET22010-18222-00543-70000036D0000043D0001200000CS12543   GGSL
NJARET22010-18222-00545-10000120D0000223D0000500002CS12545   GGSL
NJARET22010-18222-00549-90000024D0000055D0000400001CS12549   GGSL
NJARET22010-18222-00553-60000552D0000955D0004000031CS12553   GGSL
NJARET22010-18222-00559-80000276D0000455D0004100004CS12559   GGSL
NJARET22010-18222-00561-10000096D0000173D0001300004CS12561   GGSL
NJARET22010-18222-00563-50000300D0000546D0000400002CS12563   GGSL
NJARET22010-18222-00565-90000120D0000243D0002300003CS12565   GGSL
NJARET22010-18222-00566-60000036D0000069D0001200000CS12566   GGSL
NJARET22010-18222-00569-70000540D0001026D0000900006CS12569   GGSL
NJARET22010-18222-00571-00000048D0000108D0000000000CS12571   GGSL
NJARET22010-18222-00583-30000276D0000662D0002200007CS12583   GGSL
NJARET22010-18222-00608-30000036D0000138D0000300000CS608     GGSL
NJARET22010-18222-00610-60000024D0000118D0000200000CS610     GGSL
NJARET22010-18222-00611-30000012D0000051D0000000000CS611     GGSL
NJARET22010-18222-00680-90000024D0000057D0000700000CS12680   GGSL
NJARET22010-18222-00689-20000024D0000059D0000000000CS12689   GGSL
NJARET22010-18222-00701-10000432D0000819D0001000003CS701     GGSL
NJARET22010-18222-00707-30000056D0000181D0001600000CS707     GGSL
NJARET22010-18222-00709-70000060D0000305D0000400002CS709     GGSL
NJARET22010-18222-00730-10000168D0000370D0002500004CS730     GGSL
NJARET22010-18222-00749-30000030D0000176D0000200001CS749     GGSL
NJARET22010-18222-00750-90000008D0000087D0000200001CS750     GGSL
NJARET22010-18222-00753-00000096D0000495D0000800000CS753     GGSL
NJARET22010-18222-00755-40000016D0000055D0001000002CS755     GGSL
NJARET22010-18222-00767-70000006D0000032D0000700000CS06767   GGSL
NJARET22010-18222-00772-10000012D0000220D0000000000CS772     GGSL
NJARET22010-18222-00807-00000012D0000032D0000400001CS06807   GGSL
NJARET22010-18222-00853-70000012D0000041D0000900001CS06853   GGSL
NJARET22010-18222-00907-70000008D0000023D0000500000CS08907   GGSL
NJARET22010-18222-00951-00000016D0000065D0000900002CS08951   GGSL
NJARET22010-18222-00954-10000040D0000226D0000600000CS08954   GGSL
NJARET22010-18222-02501-50000004D0000040D0000000000CSV08501NLGGSL
NJARET22010-18222-50501-20000072D0000089D0008100000CS1250501XGGSL
NJARET22010-18222-50527-20000312D0000378D0004700002CS1250527XGGSL
NJARET22010-18222-50559-30000132D0000165D0006100008CS1250559XGGSL
NJARET22010-18506-00010-30000042D0000345D00005000030106      GGSL
NJARET22010-18506-00018-90000024D0000181D00004000010186      GGSL
NJARET22010-18506-00021-90000060D0001036D00000000000216      GGSL
NJARET22010-18506-00102-50000288D0001256D000270000310212     GGSL
NJARET22010-18506-00110-00000588D0004375D007370001711012     GGSL
NJARET22010-18506-00111-70000005D0000083D00003000021115      GGSL
NJARET22010-18506-00113-10000018D0000091D00010000061136      GGSL
NJARET22010-18506-00114-80000060D0000511D00000000001146      GGSL
NJARET22010-18506-00116-20001344D0009382D001150001511612     GGSL
NJARET22010-18506-00117-90000246D0002640D00054000211176      GGSL
NJARET22010-18506-00118-60000024D0000203D00017000001186      GGSL
NJARET22010-18506-00120-90000068D0001343D00012000001204      GGSL
NJARET22010-18506-00121-60000282D0002795D00039000001216      GGSL
NJARET22010-18506-00122-30000252D0001434D0002700000122       GGSL
NJARET22010-18506-00123-00000564D0003209D0002800003123       GGSL
NJARET22010-18506-00125-40000144D0000736D0001900000125       GGSL
NJARET22010-18506-00130-80000144D0000814D0005000001130       GGSL
NJARET22010-18506-00134-60000048D0000386D0000400000134       GGSL
NJARET22010-18506-00135-30000018D0000267D0001100002135       GGSL
NJARET22010-18506-00139-10000004D0000116D0000000000139       GGSL
NJARET22010-18506-00153-70000036D0000109D0000000000153       GGSL
NJARET22010-18506-00175-90000084D0000254D000000000017512     GGSL
NJARET22010-18506-00555-50000001D0000680D000000000011096     GGSL
NJARET22010-18506-01139-00000008D0000087D00002000021139      GGSL
NJARET22010-18506-01150-50000012D0000085D00000000001150      GGSL
NJARET22010-18506-01151-20000012D0000102D00000000001151      GGSL
NJARET22010-18506-01152-90000006D0000092D00001000001152      GGSL
NJARET22010-18506-02001-90000006D0000069D00007000012001      GGSL
NJARET22010-18506-02001-90000012D0000103D0000200000200112    GGSL
NJARET22010-18506-02001-90000002D0000446D000060000220203     GGSL
NJARET22010-19200-00095-60000012D0000031D001820000100027     GGSL
NJARET22010-19200-00619-40001812D0006633D009030000100706     GGSL
NJARET22010-19200-77182-50000006D0000022D000690000077182     GGSL
NJARET22010-19200-78626-30000072D0000159D002640000078626     GGSL
NJARET22010-19200-78914-10000024D0000049D001850000078914     GGSL
NJARET22010-19200-82043-10001112D0002780D000010000182043     GGSL
NJARET22010-19200-83623-40000006D0000047D008060000083623     GGSL
NJARET22010-19200-83721-70000028D0000072D000780000083721     GGSL
NJARET22010-19200-89973-40000008D0000128D000110000089973     GGSL
NJARET22010-19200-98665-60000024D0000106D000770000198665     GGSL
NJARET22010-19200-98666-30000008D0000049D000510000198666     GGSL
NJARET22010-19263-25010-70000002D0000173D00001000012501      GGSL
NJARET22010-19263-25160-90000018D0000210D00003000012516      GGSL
NJARET22010-19263-25170-80000010D0000247D00000000002517      GGSL
NJARET22010-19263-25350-40000048D0000130D00000000002535      GGSL
NJARET22010-19263-25500-30000075D0000125D00005000012550      GGSL
NJARET22010-19263-25510-20001275D0002741D00097000392551      GGSL
NJARET22010-19263-25520-10001950D0004836D00218000482552      GGSL
NJARET22010-19263-25530-00002075D0005914D00153000512553      GGSL
NJARET22010-19263-25540-90002425D0008172D00174000462554      GGSL
NJARET22010-19263-25550-80001150D0004934D00076000172555      GGSL
NJARET22010-19263-25680-20000008D0000156D00056000052568      GGSL
NJARET22010-19263-25750-20000016D0000108D00006000012575      GGSL
NJARET22010-19263-25760-10000276D0002338D00028000192576      GGSL
NJARET22010-19263-25770-00000036D0000473D00025000022577      GGSL
NJARET22010-19263-25780-90000015D0000356D00033000052578      GGSL
NJARET22010-19263-25941-40002000D0000120D00000000002594BK    GGSL
NJARET22010-19263-25950-60000288D0000343D00033000082595      GGSL
NJARET22010-19263-26050-20000200D0000276D00014000032605      GGSL
NJARET22010-19263-26100-40000048D0000165D00000000002610      GGSL
NJARET22010-19263-26190-50000006D0000287D00029000032619      GGSL
NJARET22010-19263-26210-00000156D0001460D00004000042621      GGSL
NJARET22010-19263-26280-30000004D0000124D00002000022628      GGSL
NJARET22010-19263-26300-80001200D0002892D00036000212630      GGSL
NJARET22010-19263-26310-70001032D0002921D00055000192631      GGSL
NJARET22010-19263-26310-70000144D0000406D00016000012633      GGSL
NJARET22010-19263-26320-30000144D0000350D00000000002632      GGSL
NJARET22010-19263-26340-40000144D0000363D00000000002634      GGSL
NJARET22010-19263-26560-60000112D0001612D00073000012656      GGSL
NJARET22010-19263-29100-10000002D0000329D00009000002910      GGSL
NJARET22010-21344-00321-20000050D0001339D0002700026WX15064   GGSL
NJARET22010-21344-00322-90000044D0001133D0000900009WX15065   GGSL
NJARET22010-21344-00337-30000001D0000093D0000000000WX16809   GGSL
NJARET22010-21344-00339-70000005D0000835D0051500012400339    GGSL
NJARET22010-21344-00340-30000005D0000794D0064500005400340    GGSL
NJARET22010-21344-00344-10000006D0000054D0000300003400344    GGSL
NJARET22010-21344-00345-80000066D0000585D0002600010400345    GGSL
NJARET22010-21344-00346-50000084D0000698D0002500011400346    GGSL
NJARET22010-21344-00347-20000008D0000152D0000800008400347    GGSL
NJARET22010-21344-00348-90000028D0000524D0003300003400348    GGSL
NJARET22010-21344-00349-60000064D0001207D0010200016400349    GGSL
NJARET22010-21344-00350-20000048D0000930D0007200037400350    GGSL
NJARET22010-21344-00354-00000038D0002089D0018300150HQ73481784GGSL
NJARET22010-21344-00361-80000024D0000799D0010900094HQ74912297GGSL
NJARET22010-21344-00362-50000003D0000177D0014600003HQMUSH    GGSL
NJARET22010-21344-00380-90000012D0000670D0003000000JFG18026  GGSL
NJARET22010-21344-00384-70000004D0000205D0003200002JFG18013  GGSL
NJARET22010-21344-00385-40000054D0001355D0009000028JFG18011A GGSL
NJARET22010-21344-00386-10000036D0001705D0005700012JFG18011B GGSL
NJARET22010-21344-00387-80000012D0000410D0008700010JFG18012  GGSL
NJARET22010-21344-00388-50000048D0000273D0005500024JFG18001  GGSL
NJARET22010-21344-00389-20000060D0000820D0004100010JFG18004  GGSL
NJARET22010-21344-00390-80000024D0000517D0004900020JFG18010A GGSL
NJARET22010-21344-00391-50000020D0000658D0004700001JFG18010B GGSL
NJARET22010-21344-00392-20000060D0000442D0005500010JFG18002  GGSL
NJARET22010-21344-00393-90000030D0001000D0009900030JFG18008A GGSL
NJARET22010-21344-00394-60000006D0000154D0000800000JFG18008ASGGSL
NJARET22010-21344-00395-30000048D0001358D0000800002JFG18006  GGSL
NJARET22010-21344-00397-70000033D0001832D0012100010JFG18018  GGSL
NJARET22010-21344-00403-50000020D0000460D0005800010ZT152072  GGSL
NJARET22010-21344-00405-90000010D0000785D0001200004ZT185019  GGSL
NJARET22010-21344-00406-60000005D0000306D0000700000ZT185024  GGSL
NJARET22010-21344-00407-30000001D0000131D0008500004ZT185016  GGSL
NJARET22010-21344-00409-70000216D0001320D0004500024ZT185018  GGSL
NJARET22010-21344-00411-00000008D0000310D0006800006ZT185021  GGSL
NJARET22010-21344-00413-40000012D0000023D0009000001400413    GGSL
NJARET22010-21344-00414-10000012D0000022D0009500000400414    GGSL
NJARET22010-21344-00415-80000024D0000042D0010000000400415    GGSL
NJARET22010-21344-00416-50000024D0000042D0009400000400416    GGSL
NJARET22010-21344-00417-20000024D0000057D0008800000400417    GGSL
NJARET22010-21344-00418-90000012D0000028D0010700000400418    GGSL
NJARET22010-21344-00421-90000024D0000069D0010400000400421    GGSL
NJARET22010-21344-00422-60000014D0000485D0006000002ZT185023  GGSL
NJARET22010-21344-00423-30000403D0058435D0121200237WX17658   GGSL
NJARET22010-21344-00718-00000288D0006008D0007300012WX17422   GGSL
NJARET22010-21344-00719-70000150D0003211D0006300016WX17413   GGSL
NJARET22010-21344-00720-30000222D0004215D0003700018WX17409   GGSL
NJARET22010-21344-00723-40000272D0006780D0003300029WX17402   GGSL
NJARET22010-21344-00724-10000003D0000233D0000300003WXRACK20  GGSL
NJARET22010-21344-00729-60000014D0000942D0009400075HQ7348782 GGSL
NJARET22010-21344-00734-00000032D0000798D0004300004WX17725   GGSL
NJARET22010-21344-00735-70000032D0000739D0003700005WX17577RV GGSL
NJARET22010-21344-00736-40000036D0000869D0003700005WX17578RV GGSL
NJARET22010-21344-00739-50000036D0001130D0003200002WX17816   GGSL
NJARET22010-21344-00740-10000048D0001563D0001000000WX17818   GGSL
NJARET22010-21344-00741-80000024D0000804D0003300000WX17817   GGSL
NJARET22010-21344-00744-90000032D0001012D0000900000WX17819   GGSL
NJARET22010-21344-00745-60000016D0000208D0015100005YS19006   GGSL
NJARET22010-21344-00746-30000048D0000823D0015200009YS19L005  GGSL
NJARET22010-21344-00747-00000044D0000772D0016600015YS19L004  GGSL
NJARET22010-21344-00748-70000048D0000641D0015900010YS19S002  GGSL
NJARET22010-21344-00749-40000052D0000682D0014600011YS19S003  GGSL
NJARET22010-21344-00750-00000048D0000641D0010300011YS19S001  GGSL
NJARET22010-21344-00762-30000035D0004550D0011300021FDBH1901  GGSL
NJARET22010-21344-00762-30000002D0000222D0001800004MG18387RV GGSL
NJARET22010-21344-00765-40000006D0000572D0007100012MG18390   GGSL
NJARET22010-21344-00766-10000001D0000140D00045000014007661   GGSL
NJARET22010-21344-00775-30000010D0000418D0001000008WX17802   GGSL
NJARET22010-21344-00779-10000006D0000118D0002500007JFG19058B GGSL
NJARET22010-21344-00780-70000008D0000606D0000300003MG18396RV GGSL
NJARET22010-21344-00781-40000002D0000121D0000900003MG18397RV GGSL
NJARET22010-21344-00785-20000022D0000422D0003300011BN19294   GGSL
NJARET22010-21344-00795-10000007D0001169D0002000009MG18389   GGSL
NJARET22010-21344-00796-80000018D0000058D0000500005SSH1822719GGSL
NJARET22010-21344-00797-50000162D0000485D0003800002SSH1813624GGSL
NJARET22010-21344-00799-90000078D0000701D0001100011HS190061C GGSL
NJARET22010-21344-00800-20000096D0000875D0001700017HS190061B GGSL
NJARET22010-21344-00801-90000012D0000129D0000800006HS190061A GGSL
NJARET22010-21344-00802-60000040D0000482D0001000010HS190058C GGSL
NJARET22010-21344-00804-00000052D0000625D0002300014HS190058A GGSL
NJARET22010-21344-00805-70000024D0000304D0000300003HS190056  GGSL
NJARET22010-21344-00806-40000128D0001014D0005300011SSH18A025 GGSL
NJARET22010-21344-00807-10000144D0001760D0001800004SSH18A034 GGSL
NJARET22010-21344-00808-80000312D0001540D0001600007SSH18A024 GGSL
NJARET22010-21344-00813-20000012D0001413D00492000144008132   GGSL
NJARET22010-21344-00819-40000036D0000414D0000900002WX17931   GGSL
NJARET22010-21344-00821-70000072D0000646D0001200006WX17932   GGSL
NJARET22010-21344-00822-40000060D0000560D0000300003WX17930   GGSL
NJARET22010-21344-00824-80000036D0000384D0003000006WX17933   GGSL
NJARET22010-21344-00825-50000024D0000135D0003500003JFG18011BWGGSL
NJARET22010-21344-00826-20000036D0000280D0004500008JFG18011AWGGSL
NJARET22010-21344-00827-90000048D0000440D0002200002JFG18008AWGGSL
NJARET22010-21344-00828-60000024D0000111D0003400004JFG18008ACGGSL
NJARET22010-21344-00829-30000052D0000731D0008200003ZT197030  GGSL
NJARET22010-21344-00830-90000024D0000624D0006200000ZT197002  GGSL
NJARET22010-21344-00831-60000028D0000499D0009400000ZT197003  GGSL
NJARET22010-21344-00832-30000048D0000796D0003600005JFG19007B GGSL
NJARET22010-21344-00833-00000004D0000117D0007000004ZT197029  GGSL
NJARET22010-21344-00834-70000002D0000195D0006600007ZT197023RVGGSL
NJARET22010-21344-00838-50000072D0000381D0046800005SK15008E  GGSL
NJARET22010-21344-00846-00000012D0001234D0016100013FDBH1902  GGSL
NJARET22010-21344-01159-00000060D0000508D0004100002BN19294S  GGSL
NJARET22010-21344-01160-60000014D0000273D0003300012BN19296   GGSL
NJARET22010-21344-01161-30000060D0000465D0005100001BN19296S  GGSL
NJARET22010-21344-01162-00000010D0000227D0003900007BN19297   GGSL
NJARET22010-21344-01163-70000036D0000339D0005000003BN19297S  GGSL
NJARET22010-21344-01164-40000014D0000295D0004800010BN19299   GGSL
NJARET22010-21344-01165-10000066D0000575D0005100002BN19299S  GGSL
NJARET22010-21344-01166-80000024D0000413D0004800004BN19300   GGSL
NJARET22010-21344-01167-50000048D0000366D0005300003BN19300S  GGSL
NJARET22010-21344-01168-20000008D0000155D0002600013BN19302   GGSL
NJARET22010-21344-01169-90000066D0000535D0002800006BN19302S  GGSL
NJARET22010-21344-01170-50000006D0000692D0001800007FDBH2001  GGSL
NJARET22010-21344-01172-90000044D0002557D0009800093HQ73482993GGSL
NJARET22010-21344-01178-10000016D0001080D0005200049HQ7575453 GGSL
NJARET22010-21344-01180-40000036D0000534D0001900019HS18MR0463GGSL
NJARET22010-21344-01183-50000018D0000364D0001800003HS20132   GGSL
NJARET22010-21344-01184-20000024D0000368D0008700009HS20134   GGSL
NJARET22010-21344-01185-90000042D0000687D0005400013HS20135   GGSL
NJARET22010-21344-01186-60000024D0000329D0005200016HS20136   GGSL
NJARET22010-21344-01187-30000018D0000224D0007400004HS20137   GGSL
NJARET22010-21344-01188-00000028D0000633D0009800008HS20HS0022GGSL
NJARET22010-21344-01189-70000028D0000675D0008600012HS20HS0023GGSL
NJARET22010-21344-01190-30000036D0000571D0010300009HS20HS0024GGSL
NJARET22010-21344-01191-00000036D0000521D0012700009HS20HS0025GGSL
NJARET22010-21344-01192-70000016D0000387D0001800008HS20HS0026GGSL
NJARET22010-21344-01196-50000022D0000728D0024700024MG19632   GGSL
NJARET22010-21344-01197-20000014D0000597D0023800021MG19633   GGSL
NJARET22010-21344-01201-60000072D0000241D0000400004SSH19S094 GGSL
NJARET22010-21344-01202-30000024D0000261D0002800002SSH19S098 GGSL
NJARET22010-21344-01203-00000080D0001415D0001900009SSH19S104 GGSL
NJARET22010-21344-01205-40000036D0000732D0000500002WX13254   GGSL
NJARET22010-21344-01206-10000006D0000102D0000000000WX18811   GGSL
NJARET22010-21344-01207-80000024D0000406D0000600006WX18812   GGSL
NJARET22010-21344-01209-20000060D0001918D0002400016WX18814   GGSL
NJARET22010-21344-01210-80000040D0001372D0000900009WX18815   GGSL
NJARET22010-21344-01211-50000056D0001737D0003200011WX18816   GGSL
NJARET22010-21344-01215-30000113D0017151D0027000152WX18824   GGSL
NJARET22010-21344-01216-00000098D0015112D0075100045WX18825   GGSL
NJARET22010-21344-01218-40000004D0000072D0000700005WX19198   GGSL
NJARET22010-21344-01219-10000008D0000354D0007300021WX19199   GGSL
NJARET22010-21344-01220-70000010D0000448D0008700012WX19200   GGSL
NJARET22010-21344-01221-40000112D0002135D0005000018WX19201   GGSL
NJARET22010-21344-01222-10000006D0000249D0010900005WX19203   GGSL
NJARET22010-21344-01223-80000024D0000813D0009500002WX19204   GGSL
NJARET22010-21344-01224-50000028D0000926D0006500014WX19205   GGSL
NJARET22010-21344-01225-20000008D0000428D0015500009WX19206   GGSL
NJARET22010-21344-01226-90000060D0000674D0007400013WX19256   GGSL
NJARET22010-21344-01227-60000044D0000520D0005100012WX19257   GGSL
NJARET22010-21344-01228-30000020D0000182D0004000002WX19258   GGSL
NJARET22010-21344-01229-00000028D0000221D0003800007WX19259   GGSL
NJARET22010-21344-01230-60000024D0000599D0002600002WX19260   GGSL
NJARET22010-21344-01231-30000012D0000327D0003900001WX19261   GGSL
NJARET22010-21344-01233-70000008D0000155D0005500000WX19264   GGSL
NJARET22010-21344-01234-40000008D0000194D0005200000WX19266   GGSL
NJARET22010-21344-01235-10000008D0000194D0005300000WX19267   GGSL
NJARET22010-21344-01237-50000247D0035073D0046100110WX19270   GGSL
NJARET22010-21344-01238-20000026D0001170D0004300019WX8561    GGSL
NJARET22010-21344-01240-50000018D0000243D0003100007WX86808283GGSL
NJARET22010-21344-01241-20000008D0000144D0001100000WX8594    GGSL
NJARET22010-21344-01246-70000024D0000622D0002100002WX8751    GGSL
NJARET22010-21344-01248-10000024D0000622D0003100002WX8757    GGSL
NJARET22010-21344-01252-80000008D0000190D0007100005ZT207010B GGSL
NJARET22010-21344-01254-20000001D0000078D0012100000ZT207012B GGSL
NJARET22010-21344-01255-90000004D0000091D0010600000ZT207015  GGSL
NJARET22010-21344-01256-60000002D0000045D0010000004ZT207016  GGSL
NJARET22010-21344-01257-30000014D0000170D0009800001ZT207017B GGSL
NJARET22010-21344-01258-00000042D0000652D0005600011ZT207023A GGSL
NJARET22010-21344-01259-70000034D0000497D0008200004ZT207024A GGSL
NJARET22010-21344-01260-30000039D0003136D0021500015ZT207025  GGSL
NJARET22010-21344-01261-00000044D0003453D0020900016ZT207026  GGSL
NJARET22010-21344-01262-70000032D0002405D0026800016ZT207027  GGSL
NJARET22010-21344-01264-10000005D0001157D0050100002HR22818AA GGSL
NJARET22010-21344-01265-80000005D0000892D0031600004HR30701AA GGSL
NJARET22010-21344-01266-50000003D0000200D0055500030CU297     GGSL
NJARET22010-21344-01267-20000017D0003110D0041500016FP35      GGSL
NJARET22010-21344-01268-90000005D0000589D0030200006HR26182AA GGSL
NJARET22010-21344-01270-20000040D0001335D0016600023HS20153   GGSL
NJARET22010-21344-01273-30000117D0022578D0104300161WX17658A  GGSL
NJARET22010-21344-01721-90000010D0000082D00010000106764      GGSL
NJARET22010-21344-01722-60000100D0000064D00000000015949      GGSL
NJARET22010-21344-01723-30000240D0000527D00001000016761      GGSL
NJARET22010-21344-01724-00000340D0000292D00045000456758      GGSL
NJARET22010-21344-01725-70000300D0000384D00001000036759      GGSL
NJARET22010-21344-01726-40000010D0000062D00023000006762      GGSL
NJARET22010-21964-10110-70000042D0000312D0000600006A6T       GGSL
NJARET22010-21964-10121-30000072D0002349D0001900011A6RP      GGSL
NJARET22010-21964-10133-60000006D0000193D0000000000TH3RP     GGSL
NJARET22010-21964-10134-30000036D0000844D0000300002BUF16     GGSL
NJARET22010-21964-10200-50000024D0001238D0001700011B7F       GGSL
NJARET22010-21964-10211-10000060D0000570D0001100004OMT       GGSL
NJARET22010-21964-10220-30000009D0000669D0001300007B72       GGSL
NJARET22010-21964-10305-70000004D0000266D0000700002BTG       GGSL
NJARET22010-21964-10315-60000036D0001362D0002100008SQG       GGSL
NJARET22010-21964-10350-70000058D0001526D0015500153X1        GGSL
NJARET22010-21964-10360-60000090D0002501D0001100009W1        GGSL
NJARET22010-21964-10370-50000390D0004748D0010500034OWF       GGSL
NJARET22010-21964-10461-00000066D0001208D0002700014LF4       GGSL
NJARET22010-21964-10466-50000048D0000879D0000900005WH3       GGSL
NJARET22010-21964-10481-80000156D0000969D0004300007AM        GGSL
NJARET22010-21964-10485-60000042D0000434D0001800005RS3HC     GGSL
NJARET22010-21964-10486-30000138D0001663D0000200003RS3WC     GGSL
NJARET22010-21964-20061-90000026D0001557D0001300002SDC       GGSL
NJARET22010-21964-20075-60000019D0001963D0000300000B7DC      GGSL
NJARET22010-21964-20500-30000068D0004328D0006300016YF        GGSL
NJARET22010-21964-20510-20000058D0002329D0001900018YCPD90    GGSL
NJARET22010-21964-20520-10000106D0005272D0007900039YCPW180   GGSL
NJARET22010-21964-20530-00000062D0002423D0006300017YCPT360   GGSL
NJARET22010-21964-25241-00000006D0000200D0000500000CC12S     GGSL
NJARET22010-21964-25242-70000018D0000686D0000200002CC18S     GGSL
NJARET22010-21964-25244-10000012D0000400D0000400001CC12N     GGSL
NJARET22010-21964-25245-80000036D0001443D0000900000CC18N     GGSL
NJARET22010-21964-25246-50000012D0000591D0000500001CC24N     GGSL
NJARET22010-21964-25256-40000066D0002198D0000900003CC12FM    GGSL
NJARET22010-21964-25257-10000006D0000244D0000800002CC18FM    GGSL
NJARET22010-21964-41073-50000048D0001066D0002100004CJTHM15Y  GGSL
NJARET22010-21964-41084-10000006D0000177D0000300000CJTHM36Y  GGSL
NJARET22010-21964-41086-50000066D0001133D0001400010CJTHM8Y   GGSL
NJARET22010-21964-50043-60000018D0000423D0000500001CJM13GP   GGSL
NJARET22010-21964-50059-70000012D0000337D0000000000CJM13FSY  GGSL
NJARET22010-21964-50227-00000042D0000223D0000700001SWH8      GGSL
NJARET22010-21964-60546-90000003D0000197D0000000000SEP       GGSL
NJARET22010-21964-92006-70000007D0000613D0000100001YCPW180M  GGSL
NJARET22010-22179-10011-40000042D0000453D0000700001LG3104    GGSL
NJARET22010-22179-10077-00000012D0000102D0000000000LG7150    GGSL
NJARET22010-22179-10081-70000006D0000049D0000000000LG7204    GGSL
NJARET22010-22179-10084-80000054D0000518D0006700002LG7220    GGSL
NJARET22010-22179-10106-70000006D0000161D0006200000LG5512    GGSL
NJARET22010-22179-10120-30000004D0000181D0005500003LG6510    GGSL
NJARET22010-22179-10124-10000240D0001512D0009300012LG6515    GGSL
NJARET22010-22179-10157-90000066D0001566D0004400018LG6530    GGSL
NJARET22010-22179-10163-00000012D0000191D0016900000LG6150    GGSL
NJARET22010-22179-10164-70000012D0000063D0000100000LG1140    GGSL
NJARET22010-22179-10167-80000006D0000125D0000200001LG6127    GGSL
NJARET22010-22179-10185-20000228D0002873D0016400011LG6500    GGSL
NJARET22010-22179-10185-20000080D0001008D000000000010032     GGSL
NJARET22010-22179-10243-90000012D0000218D0001600002LG6130    GGSL
NJARET22010-22179-10246-00000042D0000756D0002100001LG6570    GGSL
NJARET22010-22179-10248-40000096D0000890D0003100005LG6575    GGSL
NJARET22010-22179-10257-60000072D0001254D0001800002LG3190    GGSL
NJARET22010-22179-10258-30000006D0000199D0004600004LG6580    GGSL
NJARET22010-22179-10266-80000084D0001930D0000700005LG6145    GGSL
NJARET22010-22179-10269-90000012D0000072D0000100000LG8900    GGSL
NJARET22010-22179-10270-50000024D0000315D0000000000LG7115    GGSL
NJARET22010-22179-10327-60000120D0001309D0003300007LG6148    GGSL
NJARET22010-22179-10376-40000004D0000086D0000000000LG6292    GGSL
NJARET22010-22179-10390-00000012D0000137D0001800004LG6332    GGSL
NJARET22010-22179-10399-30000012D0000088D0000100001LG7198    GGSL
NJARET22010-22179-10400-60000012D0000319D0000000000LG6186    GGSL
NJARET22010-22179-10401-30000012D0000245D0000300002LG6182    GGSL
NJARET22010-22179-10408-20000132D0001298D0002600008LG6338    GGSL
NJARET22010-22179-10434-10000060D0000647D0001400004LG6133    GGSL
NJARET22010-22179-10444-00000012D0000177D0000600003LG3374    GGSL
NJARET22010-22179-10448-80000048D0000608D0001800005LG3174    GGSL
NJARET22010-22179-10454-90000078D0000931D0001200001LG3303    GGSL
NJARET22010-22179-10461-70000012D0000116D0000400004LG3154    GGSL
NJARET22010-22179-10471-60000048D0000584D0002900005LG6128    GGSL
NJARET22010-22179-10474-70000012D0000112D0000100001LG6328    GGSL
NJARET22010-22179-10481-50000030D0000439D0000800002LG5592    GGSL
NJARET22010-22179-10509-60000006D0000051D0000000000LG6172    GGSL
NJARET22010-22179-10520-10000006D0000056D0000200000LG6542    GGSL
NJARET22010-22179-10551-50000024D0000217D0000000000LG6312    GGSL
NJARET22010-22179-10552-20000010D0000118D0000000000LG7376    GGSL
NJARET22010-22179-10575-10000024D0000189D0000100000LG3102    GGSL
NJARET22010-22401-00301-50000008D0000109D0009200025THD20     GGSL
NJARET22010-22401-00350-30000008D0000157D0001400004EDG20GMC  GGSL
NJARET22010-22401-00363-30000012D0000198D0000000000EER8CR    GGSL
NJARET22010-22401-00364-00000012D0000198D0000000000EER8DB    GGSL
NJARET22010-22401-00440-10000006D0000198D0004000016PRO40PC   GGSL
NJARET22010-22401-00515-60000200D0000280D0000000000BAS       GGSL
NJARET22010-22401-00740-20000026D0000509D0009200055DBRC20    GGSL
NJARET22010-22401-10087-50000080D0000868D0001000008EAR20TMC  GGSL
NJARET22010-23075-02180-00000192D0001066D0001000007P1806     GGSL
NJARET22010-23075-02332-30000144D0000901D0000200002P036      GGSL
NJARET22010-23075-02351-40000448D0001722D0000900006P35H      GGSL
NJARET22010-23075-02361-30000108D0000681D0000300001P36S      GGSL
NJARET22010-23075-02362-00000240D0001313D0000400004FT36HFB   GGSL
NJARET22010-23075-02721-50000469D0002603D0001700015P72H7     GGSL
NJARET22010-23075-02990-50000072D0000393D0000700007KHB6      GGSL
NJARET22010-23075-03220-20000030D0000052D0000500005FR220B    GGSL
NJARET22010-23075-03312-40000140D0000274D0000900007FR312B    GGSL
NJARET22010-23075-03407-70000132D0000289D0000700007FR407     GGSL
NJARET22010-23075-05110-40000224D0000629D0001600006FS110     GGSL
NJARET22010-23865-08808-20000036D0000170D00004000048808      GGSL
NJARET22010-23865-09983-50000832D0002314D00018000109983      GGSL
NJARET22010-23883-01002-70000006D0000076D00001000011002      GGSL
NJARET22010-23883-01003-40000006D0000072D00000000001003      GGSL
NJARET22010-23883-01105-50000024D0000098D00002000011105      GGSL
NJARET22010-23883-05000-90000006D0000044D00000000005000      GGSL
NJARET22010-23883-08303-80000005D0001221D00000000008303C     GGSL
NJARET22010-23883-16100-20000096D0001568D002410002816100     GGSL
NJARET22010-23883-16200-90000046D0001042D000950001716200     GGSL
NJARET22010-23883-20000-80000015D0000265D000050000520000     GGSL
NJARET22010-23883-20002-20000061D0001493D001770001220002     GGSL
NJARET22010-23883-20003-90000003D0000100D000440000020003     GGSL
NJARET22010-23883-20010-70000029D0000605D000520000020010     GGSL
NJARET22010-23883-20020-60000017D0000480D000270000220020     GGSL
NJARET22010-23883-26031-60000001D0000062D000000000026031XP   GGSL
NJARET22010-23883-27010-00000008D0000240D000000000027010     GGSL
NJARET22010-23883-27020-90000006D0000195D000000000027020     GGSL
NJARET22010-23883-27030-80000004D0000154D000000000027030     GGSL
NJARET22010-23883-60100-30000007D0000553D000000000060100     GGSL
NJARET22010-23883-61800-10000003D0000309D000010000061800     GGSL
NJARET22010-23883-63800-90000003D0000342D000120001063800     GGSL
NJARET22010-23883-81000-90000018D0002665D000030000081000A    GGSL
NJARET22010-24114-70102-80000250D0000383D0004200006701002    GGSL
NJARET22010-24114-70300-80000075D0000198D0001200000703002    GGSL
NJARET22010-24114-70609-20000125D0000548D0002000001706009    GGSL
NJARET22010-24114-70807-30000125D0000500D0001900000708073    GGSL
NJARET22010-24114-71609-10000050D0000308D0002200000716009    GGSL
NJARET22010-24114-71642-80000110D0001055D0001700008701642    GGSL
NJARET22010-24114-71664-00000025D0000295D0000600000716642    GGSL
NJARET22010-24114-71673-20000100D0000642D0000500000716073    GGSL
NJARET22010-24114-71853-80000025D0000280D0000000000718573    GGSL
NJARET22010-24114-71863-70000025D0000280D0000000000718673    GGSL
NJARET22010-24114-74712-50000025D0000021D0000000000742012A   GGSL
NJARET22010-24114-74718-70000050D0000048D0000100001742018A   GGSL
NJARET22010-24114-78341-30000025D0000049D000010000083410     GGSL
NJARET22010-24114-98010-20000020D0000109D0000000000980100    GGSL
NJARET22010-24654-00806-90000006D0000059D0000300000971816    GGSL
NJARET22010-24654-05102-70000342D0002049D000290000751026     GGSL
NJARET22010-24654-05462-20000012D0000161D000000000054624     GGSL
NJARET22010-24654-05922-10000078D0001022D00053000085926      GGSL
NJARET22010-24654-05962-70000216D0002717D00006000055962      GGSL
NJARET22010-24654-05962-70000006D0001771D00006000035962DS    GGSL
NJARET22010-24654-05972-60000008D0000290D00009000005972      GGSL
NJARET22010-24654-05982-50000004D0000141D00005000015982      GGSL
NJARET22010-24654-09941-80000020D0000635D00116000189335      GGSL
NJARET22010-24654-51704-20000004D0000042D000010000051704     GGSL
NJARET22010-24654-51806-30000282D0001698D000460002451806     GGSL
NJARET22010-24654-51826-10000090D0000945D000210001051826     GGSL
NJARET22010-24654-51926-80000078D0000819D000070000051926     GGSL
NJARET22010-24654-55025-40001056D0004266D00048000185026      GGSL
NJARET22010-24654-55110-70000360D0002099D001070002651106     GGSL
NJARET22010-24654-55118-30000132D0001084D000420001151186     GGSL
NJARET22010-24654-55168-80000012D0000064D00000000005168      GGSL
NJARET22010-24654-55325-50000030D0000180D000090000853256     GGSL
NJARET22010-24654-55450-40000132D0000791D000570002954506     GGSL
NJARET22010-24654-55456-60000012D0000098D000090000854566     GGSL
NJARET22010-24654-65452-50000144D0000857D000750001954526     GGSL
NJARET22010-25033-01703-00000078D0001001D000180000101703     GGSL
NJARET22010-25033-01707-80000042D0000585D000000000001707     GGSL
NJARET22010-25033-01713-90000048D0000703D000320000401713     GGSL
NJARET22010-25033-01717-70000018D0000349D000010000101717     GGSL
NJARET22010-25033-01723-80000012D0000323D000060000001723     GGSL
NJARET22010-25033-02019-10000024D0001582D000210000002019     GGSL
NJARET22010-25033-02077-10000006D0000083D000050000002077     GGSL
NJARET22010-25033-02088-70000024D0000382D000080000002088     GGSL
NJARET22010-25033-02089-40000024D0000242D000030000002089     GGSL
NJARET22010-25033-02090-00000006D0000066D000020000002090     GGSL
NJARET22010-25033-02134-10000012D0000252D000060000002134     GGSL
NJARET22010-25033-02135-80000006D0000184D000010000102135     GGSL
NJARET22010-25033-02144-00000030D0000455D000100000002144     GGSL
NJARET22010-25033-02211-90000004D0000176D000130000002211     GGSL
NJARET22010-25033-02213-30000004D0000471D000030000002213     GGSL
NJARET22010-25033-02389-50000006D0000483D000000000002389     GGSL
NJARET22010-25033-02467-00000008D0000266D000060000002467     GGSL
NJARET22010-25033-02477-90000024D0000712D000110000002477     GGSL
NJARET22010-25033-02481-60000002D0000097D000130000002481     GGSL
NJARET22010-25033-02501-10000016D0000177D000030000002501     GGSL
NJARET22010-25033-02519-60000068D0002372D000130000002519     GGSL
NJARET22010-25033-02520-20000012D0000290D000100000002520     GGSL
NJARET22010-25033-02521-90000008D0000218D000050000102521     GGSL
NJARET22010-25033-02522-60000014D0000847D000050000302522     GGSL
NJARET22010-25033-02523-30000021D0001376D000000000002523     GGSL
NJARET22010-25033-02525-70000002D0000147D000080000002525     GGSL
NJARET22010-25033-02527-10000025D0002013D000000000002527     GGSL
NJARET22010-25033-02650-60000004D0000507D000030000002650     GGSL
NJARET22010-25033-02660-50000004D0000680D000470000002660     GGSL
NJARET22010-25033-02670-40000006D0001812D000040000002670     GGSL
NJARET22010-25033-02675-90000006D0001583D000000000002675     GGSL
NJARET22010-25033-02683-40000008D0002842D000000000002683     GGSL
NJARET22010-25033-02720-60000002D0000210D000020000002720     GGSL
NJARET22010-25033-02722-00000012D0001459D000160000002722     GGSL
NJARET22010-25033-02920-00000006D0001073D000550000002920     GGSL
NJARET22010-25033-02940-80000004D0000846D000020000002940     GGSL
NJARET22010-25033-03801-10000008D0000201D000310000003801     GGSL
NJARET22010-25033-03802-80000014D0000343D000230000003802     GGSL
NJARET22010-25033-03822-60000010D0000288D000030000003822     GGSL
NJARET22010-25033-03850-90000010D0000313D000090000403850     GGSL
NJARET22010-25033-05430-10000002D0000218D000020000005430     GGSL
NJARET22010-25033-05615-20000002D0000507D000030000005615     GGSL
NJARET22010-25033-05620-60000001D0000282D000020000005620     GGSL
NJARET22010-25033-12195-90000006D0000047D000110000012195     GGSL
NJARET22010-25033-12201-70000012D0000114D000020000012201     GGSL
NJARET22010-25033-12202-40000084D0000762D000030000212202     GGSL
NJARET22010-25033-12203-10000018D0000073D000020000012203     GGSL
NJARET22010-25033-12204-80000072D0000456D000020000012204     GGSL
NJARET22010-25033-12285-70000030D0000312D000170000012285     GGSL
NJARET22010-25033-12403-50000004D0000583D000000000012403     GGSL
NJARET22010-25033-12410-30000004D0000711D000010000012410     GGSL
NJARET22010-25033-12411-00000001D0000196D000000000012411     GGSL
NJARET22010-25033-12412-70000001D0000111D000000000012412     GGSL
NJARET22010-25033-12535-30000006D0000023D000000000012535     GGSL
NJARET22010-25033-12545-20000006D0000021D000000000012545     GGSL
NJARET22010-25033-12575-90000006D0000077D000000000012575     GGSL
NJARET22010-25033-12730-20000012D0000134D000000000012730     GGSL
NJARET22010-25033-12733-30000001D0000006D000040000012733     GGSL
NJARET22010-25033-12741-80000005D0000030D000000000012741     GGSL
NJARET22010-25033-12746-30000018D0000466D000010000012746     GGSL
NJARET22010-25033-12776-00000006D0000247D000000000012776     GGSL
NJARET22010-25033-12972-50000002D0000114D000060000012972     GGSL
NJARET22010-25033-12974-00000002D0000157D000060000012974     GGSL
NJARET22010-25033-20230-60000002D0000595D000000000020230     GGSL
NJARET22010-25033-20235-10000002D0000626D000000000020235     GGSL
NJARET22010-25033-22780-40000001D0000720D000000000022780     GGSL
NJARET22010-25531-01234-60000017D0000629D000030000075160     GGSL
NJARET22010-25845-12366-00000012D0000114D00008000015566      GGSL
NJARET22010-25849-10710-90000054D0000669D00000000001020010RG GGSL
NJARET22010-25849-11010-90000030D0000186D00005000001016010RGXGGSL
NJARET22010-25849-11110-60000120D0000838D00005000011010010RG GGSL
NJARET22010-25849-12500-40000240D0008285D00001000011038500RG GGSL
NJARET22010-26600-89334-70000168D0000350D002020000089334     GGSL
NJARET22010-26978-02181-60000190D0001034D001160000402181     GGSL
NJARET22010-26978-02182-30000200D0001088D000970000402182     GGSL
NJARET22010-26978-02188-50000230D0001220D001060000802188     GGSL
NJARET22010-26978-02241-70000220D0001313D000940000702241     GGSL
NJARET22010-26978-02242-40000270D0001612D001410000802242     GGSL
NJARET22010-26978-02248-60000200D0001206D000940001002248     GGSL
NJARET22010-26978-02301-80000210D0001695D001080000902301     GGSL
NJARET22010-26978-02302-50000190D0001534D000480001102302     GGSL
NJARET22010-26978-02308-70000240D0001921D000560000602308     GGSL
NJARET22010-26978-02361-20000130D0001305D000850000502361     GGSL
NJARET22010-26978-02362-90000130D0001305D000510001002362     GGSL
NJARET22010-26978-02368-10000230D0002155D000300000202368     GGSL
NJARET22010-26978-03060-30000140D0000763D000340002103060     GGSL
NJARET22010-26978-03062-70000150D0000818D000370000803062     GGSL
NJARET22010-26978-03068-90000090D0000491D000020000203068     GGSL
NJARET22010-26978-03082-50000170D0001724D000140000503082     GGSL
NJARET22010-26978-03088-70000160D0001622D000400000903088     GGSL
NJARET22010-26978-03100-60000090D0001522D00040000080310005   GGSL
NJARET22010-26978-03102-00000110D0001860D00028000020310205   GGSL
NJARET22010-26978-03108-20000075D0001268D00007000020310805   GGSL
NJARET22010-26978-03122-80000065D0001533D00025000050312205   GGSL
NJARET22010-26978-04513-30000010D0000078D000070000104513     GGSL
NJARET22010-26978-04523-20000010D0000126D000110000204523     GGSL
NJARET22010-26978-04533-10000010D0000170D000090000204533     GGSL
NJARET22010-26978-05041-00000180D0000362D000290000105041     GGSL
NJARET22010-26978-05071-70000072D0000095D000130000605071     GGSL
NJARET22010-26978-05081-60000036D0000058D000110000105081     GGSL
NJARET22010-26978-05121-90000036D0000051D000030000005121     GGSL
NJARET22010-26978-05131-80000036D0000056D000020000005131     GGSL
NJARET22010-26978-08060-80000060D0000328D000080000408060     GGSL
NJARET22010-26978-08062-20000050D0000273D000240000808062     GGSL
NJARET22010-26978-08080-60000130D0001318D000190001108080     GGSL
NJARET22010-26978-08082-00000040D0000406D000130000708082     GGSL
NJARET22010-26978-08098-10000010D0000075D000050000008098     GGSL
NJARET22010-26978-08100-10000020D0000312D00006000060810005   GGSL
NJARET22010-26978-08102-50000030D0000468D00012000090810205   GGSL
NJARET22010-26978-08120-90000070D0001651D00006000060812005   GGSL
NJARET22010-26978-08122-30000040D0000944D00009000020812205   GGSL
NJARET22010-26978-08710-20000008D0000144D000040000108710     GGSL
NJARET22010-26978-08713-30000008D0000144D000020000008713     GGSL
NJARET22010-26978-08813-00000005D0000035D000040000408813     GGSL
NJARET22010-26978-08820-80000005D0000048D000000000008820     GGSL
NJARET22010-26978-08823-90000005D0000048D000000000008823     GGSL
NJARET22010-26978-08833-80000005D0000048D000200001508833     GGSL
NJARET22010-26978-10010-80000090D0000364D000350000410010     GGSL
NJARET22010-26978-10012-20000078D0000315D000380000510012     GGSL
NJARET22010-26978-10013-90000072D0000291D000320000310013     GGSL
NJARET22010-26978-10020-70000085D0000707D000300000110020     GGSL
NJARET22010-26978-10022-10000060D0000499D000290000110022     GGSL
NJARET22010-26978-10023-80000085D0000707D000270001110023     GGSL
NJARET22010-26978-10062-70000360D0001091D001110001610062     GGSL
NJARET22010-26978-10068-90000180D0000545D001180001510068     GGSL
NJARET22010-26978-10082-50000250D0001095D001520001310082     GGSL
NJARET22010-26978-10088-70000220D0000964D001430001310088     GGSL
NJARET22010-26978-10102-00000185D0001310D001440001810102     GGSL
NJARET22010-26978-10108-20000145D0001027D001230001810108     GGSL
NJARET22010-26978-10122-80000170D0001817D001110001510122     GGSL
NJARET22010-26978-10128-00000140D0001497D001240001710128     GGSL
NJARET22010-26978-10142-60000100D0001390D000720000810142     GGSL
NJARET22010-26978-10148-50000095D0001321D000600001610148     GGSL
NJARET22010-26978-10180-80000120D0000430D000270000110180     GGSL
NJARET22010-26978-10182-20000060D0000215D000250000910182     GGSL
NJARET22010-26978-10183-90000040D0000143D000350000110183     GGSL
NJARET22010-26978-10185-30000120D0000430D000310000210185     GGSL
NJARET22010-26978-10188-40000050D0000179D000360000210188     GGSL
NJARET22010-26978-10240-90000110D0000433D000460000110240     GGSL
NJARET22010-26978-10242-30000220D0000867D000810000410242     GGSL
NJARET22010-26978-10243-00000040D0000158D000160000110243     GGSL
NJARET22010-26978-10245-40000140D0000552D000410000410245     GGSL
NJARET22010-26978-10248-50000070D0000276D000180000210248     GGSL
NJARET22010-26978-10300-00000080D0000398D000310000110300     GGSL
NJARET22010-26978-10302-40000190D0000944D000400000310302     GGSL
NJARET22010-26978-10303-10000030D0000149D000280000110303     GGSL
NJARET22010-26978-10305-50000110D0000547D000180000210305     GGSL
NJARET22010-26978-10308-60000060D0000298D000200000210308     GGSL
NJARET22010-26978-10360-40000100D0000620D000130000110360     GGSL
NJARET22010-26978-10362-80000110D0000682D000330000310362     GGSL
NJARET22010-26978-10363-50000030D0000186D000110000110363     GGSL
NJARET22010-26978-10365-90000090D0000558D000160000210365     GGSL
NJARET22010-26978-10368-00000040D0000248D000130000210368     GGSL
NJARET22010-26978-16190-10000280D0001366D000800000516190     GGSL
NJARET22010-26978-16192-50000560D0002733D001720000816192     GGSL
NJARET22010-26978-16193-20000110D0000537D000660000716193     GGSL
NJARET22010-26978-16195-60000300D0001464D001250000516195     GGSL
NJARET22010-26978-16198-70000080D0000390D000300000816198     GGSL
NJARET22010-26978-16240-30000210D0001318D001040000416240     GGSL
NJARET22010-26978-16242-70000600D0003780D001800001416242     GGSL
NJARET22010-26978-16243-40000190D0001194D000920000416243     GGSL
NJARET22010-26978-16245-80000230D0001449D001040003616245     GGSL
NJARET22010-26978-16248-90000100D0000630D000320000816248     GGSL
NJARET22010-26978-16300-40000180D0001451D001020000416300     GGSL
NJARET22010-26978-16302-80000530D0004272D001490001316302     GGSL
NJARET22010-26978-16303-50000170D0001370D000280000716303     GGSL
NJARET22010-26978-16305-90000190D0001531D000780000716305     GGSL
NJARET22010-26978-16308-00000110D0000887D000410000716308     GGSL
NJARET22010-26978-16360-80000230D0002532D000540000116360     GGSL
NJARET22010-26978-16362-20000430D0004734D000920001416362     GGSL
NJARET22010-26978-16363-90000180D0001982D000290000216363     GGSL
NJARET22010-26978-16365-30000280D0003083D000550000516365     GGSL
NJARET22010-26978-16368-40000090D0000991D000250000116368     GGSL
NJARET22010-26978-26140-30000140D0001476D000480000726140     GGSL
NJARET22010-26978-26142-70000280D0002951D000800001726142     GGSL
NJARET22010-26978-26143-40000110D0001159D000380000226143     GGSL
NJARET22010-26978-26145-80000170D0001792D000600000626145     GGSL
NJARET22010-26978-26148-90000190D0002003D000350001526148     GGSL
NJARET22010-26978-26160-10000020D0000227D000180000926160     GGSL
NJARET22010-26978-26162-50000004D0000045D000280001326162     GGSL
NJARET22010-26978-26163-20000004D0000045D000130001226163     GGSL
NJARET22010-26978-26165-60000008D0000091D000130000926165     GGSL
NJARET22010-26978-26168-70000004D0000045D000370001026168     GGSL
NJARET22010-26978-26180-90000070D0001224D000330000026180     GGSL
NJARET22010-26978-26182-30000170D0002972D000410000826182     GGSL
NJARET22010-26978-26183-00000050D0000874D000220000126183     GGSL
NJARET22010-26978-26185-40000100D0001748D000350000926185     GGSL
NJARET22010-26978-26188-50000140D0002447D000400001126188     GGSL
NJARET22010-26978-26240-00000012D0000166D000040000126240     GGSL
NJARET22010-26978-26242-40000032D0000443D000160000626242     GGSL
NJARET22010-26978-26243-10000012D0000166D000100000926243     GGSL
NJARET22010-26978-26245-50000008D0000111D000040000126245     GGSL
NJARET22010-26978-26248-60000024D0000315D000230001126248     GGSL
NJARET22010-26978-26270-70000070D0001059D000290000626270     GGSL
NJARET22010-26978-26272-10000070D0001059D000440000426272     GGSL
NJARET22010-26978-26273-80000030D0000439D000160000526273     GGSL
NJARET22010-26978-26275-20000180D0002765D000480002026275     GGSL
NJARET22010-26978-26278-30000140D0002118D000200000926278     GGSL
NJARET22010-26978-30104-80000234D0001294D000560002330104     GGSL
NJARET22010-26978-30301-10000900D0005706D000350003530301     GGSL
NJARET22010-26978-30312-70000060D0000068D000160000330312     GGSL
NJARET22010-26978-30402-50000576D0003531D000790001830402     GGSL
NJARET22010-26978-30409-40000720D0004334D000780002530409     GGSL
NJARET22010-26978-30411-70000732D0005109D000540001630411     GGSL
NJARET22010-26978-30412-40000012D0000014D000020000130412     GGSL
NJARET22010-26978-30413-10000924D0006450D000230000630413     GGSL
NJARET22010-26978-30413-10006720D0032226D00115000423041396   GGSL
NJARET22010-26978-30500-80000600D0003565D000860002530500     GGSL
NJARET22010-26978-30602-90000672D0002821D001830008930602     GGSL
NJARET22010-26978-30603-60000024D0000095D000010000030603     GGSL
NJARET22010-26978-30605-00000396D0001746D001320003630605     GGSL
NJARET22010-26978-30702-60000450D0001591D000880005630702     GGSL
NJARET22010-26978-30705-70000540D0001978D000610002130705     GGSL
NJARET22010-26978-30806-10000516D0002425D001050005130806     GGSL
NJARET22010-26978-30901-30000280D0001598D000550003130901     GGSL
NJARET22010-26978-31100-90000170D0001384D000250001331100     GGSL
NJARET22010-26978-31102-30000060D0000489D000480003531102     GGSL
NJARET22010-26978-31108-50000125D0001017D000030000331108     GGSL
NJARET22010-26978-31109-20000060D0000489D000400001131109     GGSL
NJARET22010-26978-31120-70000105D0001886D000230000431120     GGSL
NJARET22010-26978-31121-40000005D0000070D000080000831121     GGSL
NJARET22010-26978-31122-10000055D0000988D000020000231122     GGSL
NJARET22010-26978-31128-30000120D0002155D000290000731128     GGSL
NJARET22010-26978-31129-00000065D0001167D000170000331129     GGSL
NJARET22010-26978-32101-50000065D0000683D000260001832100     GGSL
NJARET22010-26978-32108-40000085D0000893D000720002632108     GGSL
NJARET22010-26978-32109-10000105D0001103D000710002832109     GGSL
NJARET22010-26978-32121-30000030D0000551D000010000132120     GGSL
NJARET22010-26978-32128-20000135D0002477D000110000332128     GGSL
NJARET22010-26978-32129-90000095D0001743D000360000832129     GGSL
NJARET22010-26978-34063-40000010D0000048D000020000034063     GGSL
NJARET22010-26978-35050-30000010D0000047D000110001035050     GGSL
NJARET22010-26978-35058-90000030D0000141D000110000835058     GGSL
NJARET22010-26978-35059-60000020D0000094D000040000435059     GGSL
NJARET22010-26978-35060-20000120D0000655D000050000435060     GGSL
NJARET22010-26978-35068-80000060D0000328D000060000335068     GGSL
NJARET22010-26978-35069-50000080D0000437D000040000235069     GGSL
NJARET22010-26978-35080-00000240D0002434D000550000935080     GGSL
NJARET22010-26978-35082-40000050D0000507D000310003435082     GGSL
NJARET22010-26978-35086-20000010D0000088D000030000135086     GGSL
NJARET22010-26978-35088-60000040D0000406D000080000835088     GGSL
NJARET22010-26978-35089-30000020D0000203D000020000235089     GGSL
NJARET22010-26978-35090-90000030D0000284D000200000935090     GGSL
NJARET22010-26978-35100-50000090D0001766D000530000935100     GGSL
NJARET22010-26978-35102-90000090D0001722D000190001135102     GGSL
NJARET22010-26978-35108-10000130D0002551D000030000335108     GGSL
NJARET22010-26978-35109-80000100D0001962D000280000535109     GGSL
NJARET22010-26978-35120-30000110D0003076D000440000835120     GGSL
NJARET22010-26978-35122-70000070D0001748D000230001135122     GGSL
NJARET22010-26978-35128-90000160D0004477D000150000935128     GGSL
NJARET22010-26978-35129-60000085D0002378D000030000335129     GGSL
NJARET22010-26978-35130-20000005D0000109D000000000035130     GGSL
NJARET22010-26978-35138-80000035D0000740D000260001135138     GGSL
NJARET22010-26978-35139-50000010D0000211D000090000735139     GGSL
NJARET22010-26978-35190-60000020D0000877D000050000235190     GGSL
NJARET22010-26978-35192-00000020D0000877D000130000535192     GGSL
NJARET22010-26978-35198-20000046D0002017D000460001535198     GGSL
NJARET22010-26978-35199-90000004D0000175D000030000335199     GGSL
NJARET22010-26978-35270-50000010D0001044D000050000335270     GGSL
NJARET22010-26978-35272-90000012D0001252D000140000235272     GGSL
NJARET22010-26978-35278-10000044D0004592D000350001235278     GGSL
NJARET22010-26978-35279-80000010D0001044D000130000235279     GGSL
NJARET22010-26978-36100-40000005D0000063D000100000036100     GGSL
NJARET22010-26978-36140-00000020D0000345D000490002536140     GGSL
NJARET22010-26978-36148-60000120D0002071D000410001036148     GGSL
NJARET22010-26978-36220-90000085D0002570D000140000436220     GGSL
NJARET22010-26978-36228-50000105D0003175D000060000636228     GGSL
NJARET22010-26978-36298-80000080D0003387D000050000236298     GGSL
NJARET22010-26978-38142-20000216D0001489D000310000838142     GGSL
NJARET22010-26978-38146-00000096D0000647D000270000738146     GGSL
NJARET22010-26978-38148-40000228D0001574D000550003338148     GGSL
NJARET22010-26978-38192-70000108D0001633D000440000838192     GGSL
NJARET22010-26978-38196-50000072D0001069D000380000538196     GGSL
NJARET22010-26978-38198-90000324D0004947D000820002938198     GGSL
NJARET22010-26978-39122-30000168D0000916D000390000739122     GGSL
NJARET22010-26978-39126-10000096D0000498D000260001239126     GGSL
NJARET22010-26978-39128-50000324D0001741D000640002439128     GGSL
NJARET22010-26978-39182-70000126D0001625D000470001739182     GGSL
NJARET22010-26978-39186-50000054D0000700D000470000939186     GGSL
NJARET22010-26978-39188-90000222D0002879D000780001839188     GGSL
NJARET22010-26978-48098-30000084D0000467D000180000548098     GGSL
NJARET22010-26978-48128-00000078D0000636D000240000948128     GGSL
NJARET22010-26978-48158-00000090D0001005D000240000448158     GGSL
NJARET22010-26978-80100-50000024D0001040D000070000080100     GGSL
NJARET22010-26978-80101-20000040D0001734D000480000580101     GGSL
NJARET22010-26978-80101-20000036D0001531D00000000008010136   GGSL
NJARET22010-26978-80101-60000228D0008109D00035000158010112   GGSL
NJARET22010-26978-80105-00000068D0002992D000580000280105     GGSL
NJARET22010-26978-80105-00000008D0000382D00016000008010504   GGSL
NJARET22010-26978-80105-40000012D0000539D00000000008010512   GGSL
NJARET22010-26978-80107-40000132D0005762D00007000018010712   GGSL
NJARET22010-26978-80151-70000048D0002156D000400000080151     GGSL
NJARET22010-26978-80151-70000004D0000180D00010000008015104   GGSL
NJARET22010-26978-80153-10000004D0000180D000010000080153     GGSL
NJARET22010-26978-80155-20000012D0000556D00001000008015512   GGSL
NJARET22010-26978-80155-50000044D0001976D000400000080155     GGSL
NJARET22010-26978-80156-20000008D0000359D000050000580156     GGSL
NJARET22010-26978-80651-20000024D0000511D000280000180651     GGSL
NJARET22010-26978-80655-00000024D0000511D000350000680655     GGSL
NJARET22010-26978-80658-10000054D0001149D000100000180658     GGSL
NJARET22010-26978-81010-60000008D0000241D000000000081010     GGSL
NJARET22010-26978-81011-30000024D0000724D000310000081011     GGSL
NJARET22010-26978-81015-10000032D0000966D000400000081015     GGSL
NJARET22010-26978-81075-50000018D0000078D000050000481075     GGSL
NJARET22010-26978-81100-40000084D0000794D000460000181100     GGSL
NJARET22010-26978-81101-10000456D0005034D000520000481101     GGSL
NJARET22010-26978-81121-90000012D0000052D000100000181121     GGSL
NJARET22010-26978-81201-80000012D0000662D000300000281201     GGSL
NJARET22010-26978-81705-10000004D0000140D000000000081705     GGSL
NJARET22010-26978-95208-00000008D0000050D000000000095208     GGSL
NJARET22010-27452-06200-40000002D0000037D00011000006200      GGSL
NJARET22010-27652-80204-20000017D0001074D0002900029LG400161  GGSL
NJARET22010-27652-80205-90000039D0002502D0001000010LG400171  GGSL
NJARET22010-27652-82210-10000002D0000212D0001200000LG400272  GGSL
NJARET22010-27856-10001-20003972D0011833D0094200029P10232    GGSL
NJARET22010-27856-10002-90005952D0031308D0126500117P10264    GGSL
NJARET22010-27856-10008-10002932D0039875D0055800037P101      GGSL
NJARET22010-27856-10009-80001998D0018282D0020400082P128      GGSL
NJARET22010-27856-10015-90002876D0027523D0019200024P102128   GGSL
NJARET22010-27997-00229-90000030D0000758D0001800008TE        GGSL
NJARET22010-27997-01017-10000005D0000902D0000500004M6T22     GGSL
NJARET22010-27997-20063-30000030D0000317D0000300000KSM       GGSL
NJARET22010-27997-20065-70000018D0000188D0000000000KHM       GGSL
NJARET22010-27997-21273-50000012D0000123D0000100000KLRO      GGSL
NJARET22010-28009-11640-90000480D0002974D00000000001640      GGSL
NJARET22010-28009-11840-30000060D0000490D00000000001840      GGSL
NJARET22010-29973-12316-50000140D0000956D000120000314116021P GGSL
NJARET22010-29973-12333-20001344D0005201D001520010314110028P GGSL
NJARET22010-29973-12341-70000025D0000137D0110400226141100216UGGSL
NJARET22010-29973-12349-30000320D0001545D000890003914901028P GGSL
NJARET22010-30541-00049-80000007D0000040D0000000000JCDRD3    GGSL
NJARET22010-30541-00102-00000042D0000226D0000400004JCD02ER   GGSL
NJARET22010-30541-00109-90000012D0000029D0000100000JCD02SE   GGSL
NJARET22010-30541-00801-20000026D0001341D0003100000JCD08BKSM GGSL
NJARET22010-30541-01010-70000012D0000024D0000100001JCD012SMP GGSL
NJARET22010-30541-01020-60000384D0000922D0006400005JCD024SM  GGSL
NJARET22010-30541-01020-60000300D0000569D0000500000JCD060SM  GGSL
NJARET22010-30541-01030-50000180D0001544D0008800007JCD100SMJ GGSL
NJARET22010-30541-01034-30000138D0002959D0006000002JCD030SM  GGSL
NJARET22010-30541-01039-80000228D0001139D0005400004JCD05SM   GGSL
NJARET22010-30541-01092-30000006D0000032D0000000000JCD100SC  GGSL
NJARET22010-30541-01210-10000024D0000047D0000100001JCD024SMS GGSL
NJARET22010-30541-07006-40000002D0000777D0000100000JCDRACKA  GGSL
NJARET22010-30541-08879-30000096D0000289D0001100006SMVS      GGSL
NJARET22010-30541-09981-20000050D0000096D0001200001JCDTPG    GGSL
NJARET22010-30541-46688-10000012D0000027D0000100000SMP       GGSL
NJARET22010-30541-77703-10000024D0000071D0000100001SMN3      GGSL
NJARET22010-31340-10005-10000192D0003568D0002000009B550120   GGSL
NJARET22010-31340-10006-80000804D0009058D0012900022B550125   GGSL
NJARET22010-31340-10017-40000016D0000298D0003900009B550190   GGSL
NJARET22010-31417-00046-80000010D0000122D001720002480201121X GGSL
NJARET22010-31417-00055-00000025D0000754D000820003680601131X GGSL
NJARET22010-31724-81001-90000003D0000201D00000000008100100   GGSL
NJARET22010-31724-81005-70000012D0000466D0000100001810050    GGSL
NJARET22010-31724-84000-90000018D0000398D00000000008400100   GGSL
NJARET22010-31724-85090-90000012D0000468D00003000038509100   GGSL
NJARET22010-31724-85097-80000003D0000088D0000000000850975    GGSL
NJARET22010-32247-00900-30000120D0000449D00138000131009001   GGSL
NJARET22010-32247-00910-20000036D0000129D00116000061009101   GGSL
NJARET22010-32247-00950-80000054D0000197D00121000071009501   GGSL
NJARET22010-32247-02515-70000004D0000184D00327000372515      GGSL
NJARET22010-32247-05514-70000240D0001336D000160000570551430  GGSL
NJARET22010-32247-10500-20000024D0000253D0001300004110500    GGSL
NJARET22010-32247-14900-60000032D0000274D000720000014900     GGSL
NJARET22010-32247-14901-30000016D0000266D001140000014901     GGSL
NJARET22010-32247-14902-00000028D0000465D001680000514902     GGSL
NJARET22010-32247-14905-10000184D0001577D002710000914905     GGSL
NJARET22010-32247-17183-00000210D0002431D003280001017183     GGSL
NJARET22010-32247-17185-40000048D0001173D001200000717185     GGSL
NJARET22010-32247-17187-80000008D0000470D001530000217187     GGSL
NJARET22010-32247-17290-50000048D0000567D000670000217290     GGSL
NJARET22010-32247-17293-60000024D0000273D000390000117293     GGSL
NJARET22010-32247-17323-00000024D0000272D000480000017323     GGSL
NJARET22010-32247-17325-40000012D0000293D000320000017325     GGSL
NJARET22010-32247-17508-10000054D0000806D003930000817508     GGSL
NJARET22010-32247-17511-10000006D0000106D000530000017511     GGSL
NJARET22010-32247-17530-20000012D0000138D000770000017530     GGSL
NJARET22010-32247-17540-10000012D0000388D001360000617540     GGSL
NJARET22010-32247-18213-30000012D0000310D000850000018213     GGSL
NJARET22010-32247-18221-80000004D0000109D001350000618221     GGSL
NJARET22010-32247-18222-50000012D0000252D000310000018222     GGSL
NJARET22010-32247-18225-60000018D0000243D001720000918225     GGSL
NJARET22010-32247-18266-90000006D0000087D000450000018266     GGSL
NJARET22010-32247-18272-00000018D0000114D000430000118272     GGSL
NJARET22010-32247-18348-20000006D0000098D000570000218348     GGSL
NJARET22010-32247-20785-00000042D0000170D000300001072078430  GGSL
NJARET22010-32247-21605-00000078D0001763D005530001821605     GGSL
NJARET22010-32247-21701-90000072D0000710D000950000521701     GGSL
NJARET22010-32247-21814-60000017D0000864D003370000021814     GGSL
NJARET22010-32247-22315-70000010D0000490D002340000222315     GGSL
NJARET22010-32247-23001-80000027D0000922D001100000023001     GGSL
NJARET22010-32247-23616-40000042D0001131D011680008223616     GGSL
NJARET22010-32247-23622-50000033D0000634D004840007423622     GGSL
NJARET22010-32247-25006-10000001D0000028D003720000325006A    GGSL
NJARET22010-32247-25009-20000005D0000365D002030000225009     GGSL
NJARET22010-32247-26003-90000004D0000111D000830000026003D    GGSL
NJARET22010-32247-26784-70000084D0000300D000500000072678430  GGSL
NJARET22010-32247-27764-80000024D0000130D000050000372776430  GGSL
NJARET22010-32247-30156-50000052D0000971D001170000330156     GGSL
NJARET22010-32247-31115-80000011D0000803D002700000031115     GGSL
NJARET22010-32247-32367-30000012D0000269D005250000232367F    GGSL
NJARET22010-32247-33002-20000024D0000412D00019000013300210   GGSL
NJARET22010-32247-33040-40000045D0000866D007780008633040     GGSL
NJARET22010-32247-33050-30000008D0000367D005610003533050     GGSL
NJARET22010-32247-33160-90000011D0000853D002750004033160     GGSL
NJARET22010-32247-34161-50000016D0001027D007320003534161     GGSL
NJARET22010-32247-36905-30000021D0000853D009800010036905     GGSL
NJARET22010-32247-37594-80000050D0000466D000090000073759430  GGSL
NJARET22010-32247-37610-50000084D0001329D000840000037610C    GGSL
NJARET22010-32247-39181-80000019D0000605D009760009539181     GGSL
NJARET22010-32247-39594-60000250D0002630D000040000073959430  GGSL
NJARET22010-32247-39605-90000041D0000823D007850006539605     GGSL
NJARET22010-32247-43860-50000004D0000076D00046000004386004   GGSL
NJARET22010-32247-47783-30000006D0000025D000060000174778300  GGSL
NJARET22010-32247-49019-10000245D0003116D008580008549019     GGSL
NJARET22010-32247-49024-50000010D0000157D003490002749024     GGSL
NJARET22010-32247-49785-50000156D0000672D000150000474978500  GGSL
NJARET22010-32247-49801-20000012D0000199D001550003549801C    GGSL
NJARET22010-32247-50524-60000195D0001778D000090000075052430  GGSL
NJARET22010-32247-50524-60000015D0000135D000630000875052430X GGSL
NJARET22010-32247-51105-60000056D0000820D003230005151105     GGSL
NJARET22010-32247-51115-50000009D0000371D000990000551115     GGSL
NJARET22010-32247-52784-20000048D0000204D000020000285278430  GGSL
NJARET22010-32247-53105-40000130D0001396D002320001053105     GGSL
NJARET22010-32247-53115-30000014D0000335D001010001053115     GGSL
NJARET22010-32247-54204-30000012D0000155D00023000005420406   GGSL
NJARET22010-32247-55513-50000260D0002782D000400000375551300  GGSL
NJARET22010-32247-55513-50000560D0006289D000030000075551301  GGSL
NJARET22010-32247-55523-40000252D0004221D000060000175552300  GGSL
NJARET22010-32247-55523-40000039D0000686D000090000075552301  GGSL
NJARET22010-32247-55783-20000168D0000919D000110001175578300  GGSL
NJARET22010-32247-55863-10000091D0000812D000060000275586300  GGSL
NJARET22010-32247-55863-10000010D0000089D001390004575586300X GGSL
NJARET22010-32247-56063-40000040D0000221D000400000045606300  GGSL
NJARET22010-32247-56211-90000024D0000407D00035000025621106   GGSL
NJARET22010-32247-56513-40000390D0003736D000320001475651300  GGSL
NJARET22010-32247-56513-40000012D0000115D003510009175651300X GGSL
NJARET22010-32247-56513-40000160D0001610D000180000175651301  GGSL
NJARET22010-32247-56523-30000180D0002695D000320001275652300  GGSL
NJARET22010-32247-56523-30000012D0000180D001680000075652300X GGSL
NJARET22010-32247-56523-30000312D0004698D000120000375652301  GGSL
NJARET22010-32247-56783-10000786D0004024D005770010175678300  GGSL
NJARET22010-32247-56783-10000840D0004271D000110000075678309  GGSL
NJARET22010-32247-56863-00000030D0000253D000750001075686301X GGSL
NJARET22010-32247-57905-60000071D0000932D001140000557905     GGSL
NJARET22010-32247-71060-20000072D0001053D001160000171060     GGSL
NJARET22010-32247-71131-90000016D0000333D000350000271131     GGSL
NJARET22010-32247-74150-70001008D0006137D0042300079274150    GGSL
NJARET22010-32247-74250-40000768D0007174D0044900056274250    GGSL
NJARET22010-32247-74850-60000232D0004877D0049900029274850    GGSL
NJARET22010-32247-75902-10000017D0001627D000540000675902     GGSL
NJARET22010-32247-76121-50000024D0000941D001270000976121     GGSL
NJARET22010-32247-76232-80000006D0000434D000870000276232     GGSL
NJARET22010-32247-76565-70000003D0000187D000350000376565     GGSL
NJARET22010-32247-77160-30001128D0006219D0042200066277160    GGSL
NJARET22010-32247-77260-00000900D0008709D0058200055277260    GGSL
NJARET22010-32247-77860-20000198D0003538D0023500014277860    GGSL
NJARET22010-32247-77960-90000300D0006847D0059400044277960    GGSL
NJARET22010-32247-99605-10000083D0002082D008970010199605     GGSL
NJARET22010-32247-99610-50000003D0000146D001710000099610     GGSL
NJARET22010-32903-00169-30001464D0002280D0011700043SLI06000E3GGSL
NJARET22010-32903-00171-60000600D0000936D0002500008SLI06000A3GGSL
NJARET22010-32903-00191-40000084D0000469D0002500003GAB12000E2GGSL
NJARET22010-32903-00192-10000624D0000970D0005400018SLI06000B9GGSL
NJARET22010-32903-00193-80000018D0000455D0000700003TEA17000G2GGSL
NJARET22010-32903-00214-00000480D0000749D0002700004SLI06000E2GGSL
NJARET22010-32903-00222-50000336D0000669D0000600002SLI08000B9GGSL
NJARET22010-32903-00224-90000054D0000474D0004200007VNP18000E2GGSL
NJARET22010-32903-00227-00000030D0000157D0001100004SVN18000E2GGSL
NJARET22010-32903-00228-70000036D0000784D0000000000ROS15500A3GGSL
NJARET22010-32903-00236-20000036D0000211D0002400003SVN24000E2GGSL
NJARET22010-32903-00240-90000504D0000999D0003500001SLI08000E2GGSL
NJARET22010-32903-00243-00000018D0000124D0001800006SVN30000E2GGSL
NJARET22010-32903-00246-10000600D0001194D0003200008SLI08000A3GGSL
NJARET22010-32903-00257-70000010D0000450D0001600005RZGH210G2 GGSL
NJARET22010-32903-00258-40000600D0001362D0004200003LIA06000E2GGSL
NJARET22010-32903-00264-50000600D0002052D0002000004LIA08000E2GGSL
NJARET22010-32903-00281-20000384D0002007D0004200006LIA10000E2GGSL
NJARET22010-32903-00283-60000072D0000560D0000900000GAB14000E2GGSL
NJARET22010-32903-00284-30000024D0001074D0000500002TEA20000G2GGSL
NJARET22010-32903-00287-40000066D0000657D0004300010VNP24000E2GGSL
NJARET22010-32903-00290-40000054D0000697D0003400006VNP30000E2GGSL
NJARET22010-32903-00293-50000360D0000998D0005200003SLI10000E2GGSL
NJARET22010-32903-00301-70000020D0000375D0001800001ROP28000A3GGSL
NJARET22010-32903-00309-30000588D0001635D0001900018SLI10000E3GGSL
NJARET22010-32903-00313-00000018D0000219D0001500000GAB18000E2GGSL
NJARET22010-32903-00326-00000324D0002670D0003900002LIA12000E2GGSL
NJARET22010-32903-00332-10000240D0000667D0000500002SLI10000B9GGSL
NJARET22010-32903-00338-30000432D0001201D0004200015SLI10000A3GGSL
NJARET22010-32903-00341-30000162D0001697D0003400006SLI24000E3GGSL
NJARET22010-32903-00359-80000936D0001863D0004300027SLI08000E3GGSL
NJARET22010-32903-04255-90000240D0002546D0003000004LIA14000E2GGSL
NJARET22010-32903-04257-30000300D0001419D0003700002SLI12000E2GGSL
NJARET22010-32903-04265-80000006D0000115D0001000001GAB22000E2GGSL
NJARET22010-32903-07519-90000084D0001383D0001700001LIA16000E2GGSL
NJARET22010-32903-07530-40000240D0001207D0002600001SLI14000E2GGSL
NJARET22010-32903-07534-20000042D0000926D0001600000LIA20000E2GGSL
NJARET22010-32903-07558-80000534D0002715D0006100012RZWC1Q0B9 GGSL
NJARET22010-32903-07563-20000144D0000808D0002700000SLI17000E2GGSL
NJARET22010-32903-07577-90000042D0001236D0000900000LIA24000E2GGSL
NJARET22010-32903-12006-60001272D0002887D0008400047LIA06000E3GGSL
NJARET22010-32903-12008-00001608D0005499D0012800032LIA08000E3GGSL
NJARET22010-32903-12010-30001188D0006210D0020000048LIA10000E3GGSL
NJARET22010-32903-12012-70001104D0009014D0016200041LIA12000E3GGSL
NJARET22010-32903-12014-10000996D0010556D0009000037LIA14000E3GGSL
NJARET22010-32903-12017-20000396D0006518D0003800029LIA16000E3GGSL
NJARET22010-32903-12020-20000246D0005347D0006000012LIA20000E3GGSL
NJARET22010-32903-12024-00000150D0004415D0002500005LIA24000E3GGSL
NJARET22010-32903-12115-50000060D0001307D0000200000ROS15500E3GGSL
NJARET22010-32903-12312-80000168D0001133D0004800008CNA12000E3GGSL
NJARET22010-32903-12318-00000078D0000413D0000600005SVN18000E3GGSL
NJARET22010-32903-12324-10000066D0000390D0004100005SVN24000E3GGSL
NJARET22010-32903-12330-20000042D0000298D0003100007SVN30000E3GGSL
NJARET22010-32903-12712-60000228D0001290D0004500009GAB12000E3GGSL
NJARET22010-32903-12714-00000048D0000379D0005100026GAB14000E3GGSL
NJARET22010-32903-12718-80000090D0001094D0003100006GAB18000E3GGSL
NJARET22010-32903-12722-50000048D0000921D0001600003GAB22000E3GGSL
NJARET22010-32903-12818-50000168D0001484D0007500045VNP18000E3GGSL
NJARET22010-32903-12830-70000156D0002026D0006800019VNP30000E3GGSL
NJARET22010-32903-22484-90000015D0000281D0001200001ROP28000E2GGSL
NJARET22010-32903-23732-00000030D0000257D0002400000SLI20000E2GGSL
NJARET22010-32903-30392-60000240D0000671D0002300006CNA08000E3GGSL
NJARET22010-32903-35079-10000006D0000411D0000300001TES20000G2GGSL
NJARET22010-32903-35947-30000156D0000669D0005900019CNA10000E3GGSL
NJARET22010-32903-40400-50000420D0002195D0005300012LIA10000A3GGSL
NJARET22010-32903-40493-70000576D0001970D0003800020LIA08000B9GGSL
NJARET22010-32903-40770-90000168D0001488D0004400025VNP18000A3GGSL
NJARET22010-32903-41472-10000054D0000383D0002000005SVN30000A3GGSL
NJARET22010-32903-41640-40000408D0001395D0003400015LIA08000A3GGSL
NJARET22010-32903-41717-30000324D0003426D0005500016LIA14000B9GGSL
NJARET22010-32903-41728-90000384D0003155D0007000023LIA12000B9GGSL
NJARET22010-32903-41842-20000126D0001642D0004700014VNP30000A3GGSL
NJARET22010-32903-41909-20000204D0003358D0003700008LIA16000A3GGSL
NJARET22010-32903-42050-00000102D0002986D0001900009LIA24000A3GGSL
NJARET22010-32903-42240-50000576D0001308D0003300018LIA06000B9GGSL
NJARET22010-32903-42728-80000054D0000321D0002300003SVN24000A3GGSL
NJARET22010-32903-43116-20000054D0000288D0001900004SVN18000A3GGSL
NJARET22010-32903-45170-20000312D0003299D0005500014LIA14000A3GGSL
NJARET22010-32903-45342-30000084D0000843D0004700025VNP24000A3GGSL
NJARET22010-32903-45788-90000042D0001220D0001100001LIA24000B9GGSL
NJARET22010-32903-46337-80000180D0002963D0003200008LIA16000B9GGSL
NJARET22010-32903-46966-00000072D0001587D0001400005LIA20000A3GGSL
NJARET22010-32903-47208-00000492D0004054D0004700009LIA12000A3GGSL
NJARET22010-32903-48101-30000648D0001471D0003500009LIA06000A3GGSL
NJARET22010-32903-48538-70000072D0001575D0001800003LIA20000B9GGSL
NJARET22010-32903-50286-20000288D0001287D0004600010HSI10008E2GGSL
NJARET22010-32903-50763-80000888D0004186D0011600049SLI12000E3GGSL
NJARET22010-32903-50764-50000060D0000303D0000100000SLI14000B9GGSL
NJARET22010-32903-50766-90000004D0000235D0001400010TEA24000G2GGSL
NJARET22010-32903-50767-60000384D0001811D0004500008SLI12000A3GGSL
NJARET22010-32903-50794-20000312D0001471D0005900020SLI12000B9GGSL
NJARET22010-32903-50802-40000408D0002060D0011000050SLI14000E3GGSL
NJARET22010-32903-50803-10000348D0001757D0003300010SLI14000A3GGSL
NJARET22010-32903-53271-50000042D0000449D0001600000SLI24000E2GGSL
NJARET22010-32903-55269-00000010D0001168D0001200002TEA30000E3GGSL
NJARET22010-32903-56391-70000528D0002360D0006900012HSI10008A1GGSL
NJARET22010-32903-59134-70000002D0000202D0000100000TES24000E3GGSL
NJARET22010-32903-61152-60000012D0000304D0000100001TEA17000E3GGSL
NJARET22010-32903-61636-10000576D0002570D0006500021HSI10008B6GGSL
NJARET22010-32903-66002-90000060D0001124D0002100000ROP28000E3GGSL
NJARET22010-32903-71041-00000060D0000530D0001800004RZWC1G0E3 GGSL
NJARET22010-32903-72233-80000432D0002258D0007600018LIA10000B9GGSL
NJARET22010-32903-72518-60000208D0002638D0003900006RZWC2G0B9 GGSL
NJARET22010-32903-72886-60000192D0001708D0005400005RZWC1G0B9 GGSL
NJARET22010-32903-73641-00000048D0000613D0000100001RZWC2G0E35GGSL
NJARET22010-32903-75049-20000222D0001878D0004900008SLI20000E3GGSL
NJARET22010-32903-75051-50000204D0001144D0002600009SLI17000A3GGSL
NJARET22010-32903-75057-70000180D0001010D0002800010SLI17000B9GGSL
NJARET22010-32903-75070-60000036D0000309D0000400004SLI20000A3GGSL
NJARET22010-32903-75076-80000004D0000404D0000200001TES24000G2GGSL
NJARET22010-32903-75080-50000480D0002687D0006500015SLI17000E3GGSL
NJARET22010-32903-75081-20000006D0000051D0002400010SLI20000B9GGSL
NJARET22010-32903-75084-30000096D0001025D0001600003SLI24000A3GGSL
NJARET22010-32903-75089-80000036D0000384D0002100001SLI24000B9GGSL
NJARET22010-32903-91270-80000006D0000314D0000400004RZGH210E3 GGSL
NJARET22010-32903-91303-30000006D0000078D0001600005VNP3000G18GGSL
NJARET22010-32903-91319-40000006D0000152D0000600004TEA17000G8GGSL
NJARET22010-32903-91320-00000004D0000179D0001200010TEA20000G8GGSL
NJARET22010-32903-91323-10000003D0000205D0000300002TES20000G8GGSL
NJARET22010-32903-91484-90000040D0000639D0002600026SPX24DB0E3GGSL
NJARET22010-32903-91485-60000070D0001124D0002600001SPX24DBA34GGSL
NJARET22010-32903-91516-70000160D0001099D0001600002PPF1000   GGSL
NJARET22010-32903-91570-90000048D0000445D0000300000PZA0900Y35GGSL
NJARET22010-32903-91575-40000024D0000322D0000700002PZA1200Y35GGSL
NJARET22010-32903-91580-80000006D0000125D0000200000PZA1600Y35GGSL
NJARET22010-33200-00020-40001116D0000811D00041000273320000020GGSL
NJARET22010-33200-00544-50001080D0012642D014110088300544     GGSL
NJARET22010-33200-01191-00000220D0001578D000670005301191     GGSL
NJARET22010-33200-06527-20000007D0000152D02219000046527      GGSL
NJARET22010-33200-09142-40000116D0000839D000340001609142     GGSL
NJARET22010-33200-09293-30000692D0005024D00453001159293      GGSL
NJARET22010-33200-11321-80000342D0000463D000370001611321     GGSL
NJARET22010-33200-35240-20000008D0000015D0001800000352402    GGSL
NJARET22010-33200-94182-80000844D0009960D022990068394182     GGSL
NJARET22010-33200-97457-40005016D0059043D028160135097457     GGSL
NJARET22010-33349-03110-70002405D0003412D0004300037JP310     GGSL
NJARET22010-33349-05082-50001088D0003389D0003700019JP506     GGSL
NJARET22010-33349-05618-60000984D0005667D0010300020G310      GGSL
NJARET22010-33349-07750-10000058D0000190D0000100001J4R25     GGSL
NJARET22010-33349-41211-10002464D0002731D0002800028JP212     GGSL
NJARET22010-33349-41214-20000816D0001716D0005000014JP226     GGSL
NJARET22010-33349-41221-00001750D0003583D0003100029TDOME     GGSL
NJARET22010-33349-41234-00002850D0004786D0002500025TTRAY     GGSL
NJARET22010-33349-41251-70001140D0003464D0002000018JS50      GGSL
NJARET22010-33349-41254-80001360D0004150D0003700029JS32      GGSL
NJARET22010-33349-41258-60000572D0001060D0001200012TR72      GGSL
NJARET22010-33349-41318-70000756D0002280D0003700012JP322     GGSL
NJARET22010-33349-41444-30002044D0004713D0003200011JP406     GGSL
NJARET22010-33349-41620-10000297D0002302D0007800018G316      GGSL
NJARET22010-33349-41701-70013000D0001572D0000600006J4BULK    GGSL
NJARET22010-33349-65153-40000130D0000832D0000100000G312      GGSL
NJARET22010-33349-65208-10000175D0001041D0005500054PHEX7     GGSL
NJARET22010-33349-66009-30000980D0006250D0006800066T72HST14  GGSL
NJARET22010-33349-66010-90000392D0003097D0001600016TS50HST8  GGSL
NJARET22010-33349-66015-40000532D0003139D0003100031TS20HST14 GGSL
NJARET22010-33349-66023-90000121D0001084D0000300002T34HG     GGSL
NJARET22010-33349-66037-60000850D0002899D0001500007J312G     GGSL
NJARET22010-33349-66038-30000448D0003517D0001100007J336GS    GGSL
NJARET22010-33349-66040-60000660D0007036D0000800008J372PROGS GGSL
NJARET22010-33349-66041-30000312D0001370D0000500005J3R36G    GGSL
NJARET22010-33349-66042-00000128D0001073D0001200001J425GS    GGSL
NJARET22010-33349-66043-70000121D0000958D0000300001J616GS    GGSL
NJARET22010-33349-66045-10000126D0001789D0000400004T70HG     GGSL
NJARET22010-33349-66045-80000110D0000986D0000200002T14HG     GGSL
NJARET22010-33349-66067-30000391D0001313D0000300003J410G     GGSL
NJARET22010-33349-66068-00000280D0003007D0000600004J450GS    GGSL
NJARET22010-33349-66069-70000580D0002071D0000600006J4REFILL  GGSL
NJARET22010-33349-66070-30000120D0000714D0000400003J6R16G    GGSL
NJARET22010-33607-00938-10000004D0000110D0001900002M7C       GGSL
NJARET22010-33607-01208-40000012D0000232D0000300001LT8       GGSL
NJARET22010-33607-01220-60000030D0000777D0004000004LT20      GGSL
NJARET22010-33607-22004-50000016D0000290D0000800002HHRP4     GGSL
NJARET22010-33607-22005-20000012D0000328D0001500004HC2       GGSL
NJARET22010-33607-22006-90000016D0000437D0001600004HBE6      GGSL
NJARET22010-33607-22010-60000020D0000720D0002100006HCF3      GGSL
NJARET22010-33607-22250-60000010D0001440D0000000000HT4EZ     GGSL
NJARET22010-33607-22310-70000012D0000102D0000000000HG18      GGSL
NJARET22010-33607-22550-70000007D0000705D0002600012SRWM180   GGSL
NJARET22010-33607-51200-30000008D0000288D0000000000RC3       GGSL
NJARET22010-33607-52100-50000020D0001040D0000400000GKS2      GGSL
NJARET22010-34411-00001-40000024D0000051D00001000008010241002GGSL
NJARET22010-34411-00011-30000006D0000009D0009500000 01M      GGSL
NJARET22010-34411-00011-30000024D0000030D00000000008011341002GGSL
NJARET22010-34411-00012-00000024D0000028D00000000008010041002GGSL
NJARET22010-34411-00017-50000024D0000065D00001000018001741002GGSL
NJARET22010-34411-00165-30000001D0000005D0000000000 01FZ     GGSL
NJARET22010-34411-00340-40000006D0000074D00003000038450031002GGSL
NJARET22010-34411-01076-10000040D0000699D00004000008006041001GGSL
NJARET22010-34411-01168-30000012D0000333D00002000008167031011GGSL
NJARET22010-34411-01169-00000006D0000144D00013000008167331011GGSL
NJARET22010-34411-02588-80000024D0000022D00002000028017041003GGSL
NJARET22010-34411-02844-50000006D0000045D00000000008220031011GGSL
NJARET22010-34411-02848-30000006D0000050D00000000008420031011GGSL
NJARET22010-34411-02968-80000002D0000021D0002200001 50501GP  GGSL
NJARET22010-34411-02971-80000006D0000130D00072000008550321001GGSL
NJARET22010-34411-02972-50000008D0000065D00000000008401821001GGSL
NJARET22010-34411-02984-80000020D0000019D00000000008017041001GGSL
NJARET22010-34411-05731-50000012D0000044D00000000008573021011GGSL
NJARET22010-34411-12528-10000012D0000087D00000000008528121001GGSL
NJARET22010-34411-18845-30000024D0000196D00015000088883031012GGSL
NJARET22010-34411-20743-70000006D0000173D00004000048004341001GGSL
NJARET22010-34411-26182-80000012D0000200D00002000008216731011GGSL
NJARET22010-34411-26187-30000006D0000089D00000000008119331011GGSL
NJARET22010-34411-26190-30000018D0000213D00000000008219331011GGSL
NJARET22010-34411-26200-90000010D0000090D00000000008204321001GGSL
NJARET22010-34411-80013-30000012D0000160D00004000038800131011GGSL
NJARET22010-34411-80203-80000024D0000471D00004000008802031011GGSL
NJARET22010-34613-00002-70000006D0000152D0000000000LH002     GGSL
NJARET22010-34613-00003-40000012D0000336D0000100000LH003     GGSL
NJARET22010-34613-00005-80000006D0000116D0000000000LH005     GGSL
NJARET22010-34613-00022-50000006D0000102D0000300002LH022     GGSL
NJARET22010-34613-00225-00000075D0000348D0013100005225       GGSL
NJARET22010-34613-00325-70000075D0000646D0014900005325       GGSL
NJARET22010-34613-00333-20000012D0000037D0000000000333       GGSL
NJARET22010-34613-00402-50000024D0000172D0000200002402       GGSL
NJARET22010-34613-00425-40000025D0000236D0013800002425       GGSL
NJARET22010-34613-00551-00000036D0000140D0000300000551BL     GGSL
NJARET22010-34613-00640-10000040D0000426D0000400001640HD     GGSL
NJARET22010-34613-00803-00000060D0000076D0002900006SS3       GGSL
NJARET22010-34613-00805-40000060D0000124D0001200001SS5       GGSL
NJARET22010-34613-00835-10000020D0000184D0000100001SFS5      GGSL
NJARET22010-34613-00876-40000040D0000286D0000000000SP6       GGSL
NJARET22010-34613-01160-30000010D0000033D00000000001160      GGSL
NJARET22010-34613-01501-40000048D0000096D00003000001501      GGSL
NJARET22010-34613-01502-10000024D0000048D00002000001502      GGSL
NJARET22010-34613-01505-20000036D0000072D00001000001505      GGSL
NJARET22010-34613-01901-20000048D0000467D00077000051901      GGSL
NJARET22010-34613-01902-90000120D0001168D00032000071902      GGSL
NJARET22010-34613-01903-60000204D0001985D00014000121903      GGSL
NJARET22010-34613-01905-00000012D0000118D00003000011905      GGSL
NJARET22010-34613-01908-10000012D0000118D00003000021908      GGSL
NJARET22010-34613-03104-50000048D0000521D00046000193104      GGSL
NJARET22010-34613-03108-30000012D0000259D00006000063108      GGSL
NJARET22010-34613-04830-20000006D0000081D00020000014830      GGSL
NJARET22010-34613-04851-70000006D0000067D00000000004851BL    GGSL
NJARET22010-34613-04853-10000006D0000067D00000000004853BL    GGSL
NJARET22010-34613-04862-30000096D0000928D0005200004LH013BL   GGSL
NJARET22010-34613-04863-00000120D0001160D0002600001LH014BL   GGSL
NJARET22010-34613-04864-70000024D0000232D0001300004LH016BL   GGSL
NJARET22010-34613-04870-80000192D0002701D0000600006LH015BL   GGSL
NJARET22010-34613-06100-40000012D0000188D00002000006100      GGSL
NJARET22010-34613-07161-40000012D0000088D00000000007161BL    GGSL
NJARET22010-34613-59741-10000001D0000052D006180061859741     GGSL
NJARET22010-34613-59947-70000002D0000244D002430021659947     GGSL
NJARET22010-34613-60567-30000003D0000235D000000000060567     GGSL
NJARET22010-34613-65497-80000004D0000216D005370053765497     GGSL
NJARET22010-34613-65498-50000004D0000216D004330043265498     GGSL
NJARET22010-34613-65677-40000009D0000486D002910029165677     GGSL
NJARET22010-34613-65678-10000002D0000108D004260042565678     GGSL
NJARET22010-34613-65679-80000002D0000108D006310063165679     GGSL
NJARET22010-34613-65680-40000004D0000216D005230052365680     GGSL
NJARET22010-34613-65767-20000002D0000108D001140011465767     GGSL
NJARET22010-34613-69885-90000001D0000101D001660016669885     GGSL
NJARET22010-34613-70013-20000006D0000041D000000000070013     GGSL
NJARET22010-34613-91128-60000030D0000188D000000000091128     GGSL
NJARET22010-34613-93506-00000012D0000051D000160000293506     GGSL
NJARET22010-34613-94006-40000012D0000100D000000000094006     GGSL
NJARET22010-34613-95006-30000006D0000066D000030000095006     GGSL
NJARET22010-35000-05361-90000980D0000682D0030000020105375    GGSL
NJARET22010-35000-05364-00000852D0000889D0008900000105374    GGSL
NJARET22010-35000-14112-50000108D0000535D000870000014477     GGSL
NJARET22010-35000-14120-00000036D0000189D001930001314478     GGSL
NJARET22010-35000-44627-50000060D0000063D0004000000144630    GGSL
NJARET22010-35000-44673-20000657D0000986D001030010344673     GGSL
NJARET22010-35000-44678-70000027D0000041D000790000044678     GGSL
NJARET22010-35000-45038-50000135D0000290D0004100041US04232A  GGSL
NJARET22010-35000-45072-20000072D0000183D0004400000US04274A  GGSL
NJARET22010-35000-45118-40000684D0001966D0000100000US04268A  GGSL
NJARET22010-35000-45122-40000096D0000526D0005600000US04284A  GGSL
NJARET22010-35000-45816-20000102D0000672D0010000007MX04966A  GGSL
NJARET22010-35000-46157-50000048D0000307D000430000146157     GGSL
NJARET22010-35000-46413-20000200D0000215D000300000046413     GGSL
NJARET22010-35000-47041-60000036D0000088D0019100005MX06157A  GGSL
NJARET22010-35000-47805-40000117D0000276D000100000047805     GGSL
NJARET22010-35000-49110-70000172D0000590D000560000349110     GGSL
NJARET22010-35000-49861-80000102D0000243D000560000049861     GGSL
NJARET22010-35000-51119-50000396D0001129D0004900000151119    GGSL
NJARET22010-35000-53030-10000060D0000171D0005500000153043    GGSL
NJARET22010-35000-53031-80000006D0000024D0010500000153042    GGSL
NJARET22010-35000-53032-50000744D0001887D0010400000153041    GGSL
NJARET22010-35000-53058-50000180D0000841D006270000053058     GGSL
NJARET22010-35000-53060-80002972D0029344D000480001353060     GGSL
NJARET22010-35000-53099-80001758D0004043D013550001553099     GGSL
NJARET22010-35000-53122-30000933D0005732D012720002953122     GGSL
NJARET22010-35000-55190-00000162D0000486D0005400000155190    GGSL
NJARET22010-35000-96987-30000684D0004226D0002700012MX06813A  GGSL
NJARET22010-35000-97335-10000808D0004832D0013700000US06517A  GGSL
NJARET22010-35000-97336-80001052D0006301D0045100029US06516A  GGSL
NJARET22010-35000-97337-50000008D0000048D0002000002US06515A  GGSL
NJARET22010-35000-98324-40000012D0000106D0032700000US07139A  GGSL
NJARET22010-35110-01900-00000256D0001897D000240000501900     GGSL
NJARET22010-35110-01903-10000220D0002090D000520000001903     GGSL
NJARET22010-35307-00100-90000024D0000086D0000600001STT100    GGSL
NJARET22010-35307-00402-40000024D0000100D0000000000402       GGSL
NJARET22010-35307-00650-90000020D0000166D0000200000A650      GGSL
NJARET22010-35307-00781-00000072D0000747D0001900005781       GGSL
NJARET22010-35307-00782-70000072D0000747D0001800004782       GGSL
NJARET22010-35307-00803-90000036D0000072D0001500005803       GGSL
NJARET22010-35307-00805-30000012D0000033D0001100004805       GGSL
NJARET22010-35307-00808-40000012D0000033D0000000000808       GGSL
NJARET22010-35307-00812-10000864D0002421D0002800025812       GGSL
NJARET22010-35307-00817-60000024D0000065D0000000000817       GGSL
NJARET22010-35307-00819-00000264D0000583D0001100011819       GGSL
NJARET22010-35307-00820-60000024D0000046D0000000000820       GGSL
NJARET22010-35307-00826-80000528D0001168D0001800018826       GGSL
NJARET22010-35307-00827-50000564D0001282D0000900009827       GGSL
NJARET22010-35307-00828-20000120D0000331D0002500013828       GGSL
NJARET22010-35307-00829-90000168D0000615D0001100008829       GGSL
NJARET22010-35307-00834-30000108D0000374D0000300003834       GGSL
NJARET22010-35307-00835-00000180D0001195D0000200002835       GGSL
NJARET22010-35307-00838-10000024D0000083D0000300003838       GGSL
NJARET22010-35307-00839-80000708D0002549D0000600006839       GGSL
NJARET22010-35307-00840-40000660D0001823D0000500005840       GGSL
NJARET22010-35307-00841-10000804D0001673D0003200019841       GGSL
NJARET22010-35307-00843-50000108D0000365D0000000000843       GGSL
NJARET22010-35307-00844-20000552D0001529D0005000027844       GGSL
NJARET22010-35307-00845-90000012D0000055D0000100000845       GGSL
NJARET22010-35307-00846-60000252D0000909D0001000010846       GGSL
NJARET22010-35307-00848-00000024D0000058D0000300003848       GGSL
NJARET22010-35307-00861-90000228D0000805D0000300003861       GGSL
NJARET22010-35307-00862-60000084D0000291D0000100001862       GGSL
NJARET22010-35307-00864-00000108D0000485D0000100000864       GGSL
NJARET22010-35307-00865-70000036D0000149D0000000000865       GGSL
NJARET22010-35307-00869-50000048D0000498D0000200000869       GGSL
NJARET22010-35307-00874-90000144D0000240D0000500005874       GGSL
NJARET22010-35307-00875-60000372D0001544D0000000000875       GGSL
NJARET22010-35307-00914-20000084D0000581D0001800007914       GGSL
NJARET22010-35307-00916-60000120D0000331D0000200001916       GGSL
NJARET22010-35307-00917-30000120D0000382D0000100001917       GGSL
NJARET22010-35307-00967-80000036D0000090D0000100001967       GGSL
NJARET22010-35307-00970-80000168D0001628D0000200002970       GGSL
NJARET22010-35307-00971-50000036D0000199D0000200002971       GGSL
NJARET22010-35307-00972-20000168D0001102D0000200002972       GGSL
NJARET22010-35307-00973-90000240D0002113D0002200022973       GGSL
NJARET22010-35307-00977-70000264D0000817D0002500025977       GGSL
NJARET22010-35307-00978-40000072D0000498D0001200012978       GGSL
NJARET22010-35307-00980-70000336D0000578D0000200002980       GGSL
NJARET22010-35307-00985-20000048D0000132D0000000000985       GGSL
NJARET22010-35307-00987-60000048D0000216D0000400004987       GGSL
NJARET22010-35307-01020-90000156D0000215D00030000211020      GGSL
NJARET22010-35307-01025-40000228D0000410D00036000261025      GGSL
NJARET22010-35307-01035-30000048D0000132D00000000001035      GGSL
NJARET22010-35307-01040-70000072D0000249D00000000001040      GGSL
NJARET22010-35307-01045-20000168D0000754D00005000061045      GGSL
NJARET22010-35307-01050-60000192D0001062D00006000061050      GGSL
NJARET22010-35307-01601-00000354D0004659D00083000371601      GGSL
NJARET22010-35307-01605-80000018D0000455D00009000071605      GGSL
NJARET22010-35307-01612-60000672D0003257D00138000431612      GGSL
NJARET22010-35307-01618-80000006D0000038D00002000001618      GGSL
NJARET22010-35307-01625-60000018D0000224D00005000031625      GGSL
NJARET22010-35307-01640-90000006D0000042D00001000011640      GGSL
NJARET22010-35307-01646-10000012D0000125D00002000021646      GGSL
NJARET22010-35307-01810-60000492D0002631D00034000101810      GGSL
NJARET22010-35307-01815-10000372D0002583D00025000101815      GGSL
NJARET22010-35307-01817-50000054D0000448D000150000918176     GGSL
NJARET22010-35307-01818-20000024D0000266D000120000818186     GGSL
NJARET22010-35307-01820-50000054D0000681D00032000111820      GGSL
NJARET22010-35307-01825-00000048D0000548D00037000181825      GGSL
NJARET22010-35307-01825-00000012D0000133D000040000218256     GGSL
NJARET22010-35307-01830-40000030D0000519D00003000001830      GGSL
NJARET22010-35307-01835-90000015D0000374D00001000011835      GGSL
NJARET22010-35307-01840-30000042D0000698D00025000081840      GGSL
NJARET22010-35307-01845-80000072D0000897D00001000011845      GGSL
NJARET22010-35307-01860-10000006D0000112D00000000001860      GGSL
NJARET22010-35307-01880-90000015D0000374D00004000031880      GGSL
NJARET22010-35307-90868-10000030D0000149D0001200003868       GGSL
NJARET22010-35951-07000-00001572D0016720D000520000807000     GGSL
NJARET22010-35951-07011-60000004D0000281D000280000407011     GGSL
NJARET22010-35951-07013-00000002D0000634D000110000007014     GGSL
NJARET22010-36074-12002-30000072D0000330D0000700001BC07      GGSL
NJARET22010-36151-46825-30000022D0000705D00193000002646825   GGSL
NJARET22010-36241-97161-80000004D0000038D001080000097161     GGSL
NJARET22010-36348-00645-90000018D0000295D00009000000645      GGSL
NJARET22010-36348-00745-60000004D0000106D00045000250745      GGSL
NJARET22010-36348-01020-30000007D0000124D00037000011020      GGSL
NJARET22010-36348-01025-80000008D0000234D00053000301025      GGSL
NJARET22010-36348-01045-60000002D0000129D00006000001045      GGSL
NJARET22010-36348-01078-40000007D0000274D00008000061078      GGSL
NJARET22010-36348-01079-10000005D0000240D00016000001079      GGSL
NJARET22010-36348-01083-80000001D0000037D00000000001083      GGSL
NJARET22010-36348-01085-20000002D0000140D00020000121085      GGSL
NJARET22010-36348-05277-70000008D0000288D00002000005277      GGSL
NJARET22010-36348-13769-60000006D0000017D0000000000M137      GGSL
NJARET22010-36434-00009-50000132D0001939D00072000031000009   GGSL
NJARET22010-36434-11000-80000048D0000513D00044000016011000   GGSL
NJARET22010-36434-12342-80000024D0000161D00006000006012342   GGSL
NJARET22010-36434-12345-90000144D0001722D00043000041012345   GGSL
NJARET22010-36434-12346-60000114D0000559D00021000086012346   GGSL
NJARET22010-36434-12353-40000084D0001479D00016000126012353   GGSL
NJARET22010-36434-12362-60000010D0000087D00002000011012362   GGSL
NJARET22010-36434-12363-30000024D0000882D00016000131012363   GGSL
NJARET22010-36434-12420-30000264D0003081D00046000081012420   GGSL
NJARET22010-36434-12700-60000828D0007527D00289000781012700   GGSL
NJARET22010-36434-12710-50000036D0000285D00053000041012710   GGSL
NJARET22010-36434-12720-40000228D0001598D00046000111012720   GGSL
NJARET22010-36434-12812-60000012D0000208D00017000021012812   GGSL
NJARET22010-36434-12860-70000048D0000688D00027000071012860   GGSL
NJARET22010-36434-13001-30000096D0000544D00033000051013001   GGSL
NJARET22010-36434-13200-00000012D0000065D00007000016013200   GGSL
NJARET22010-36434-13700-50000036D0000321D00025000041032700   GGSL
NJARET22010-36434-13812-50000252D0004904D00034000131013812   GGSL
NJARET22010-36434-13860-60000132D0002142D00039000101013860   GGSL
NJARET22010-36434-15000-40000288D0010071D00025000251015000   GGSL
NJARET22010-36434-15020-20000138D0002612D00035000081015020   GGSL
NJARET22010-36434-15030-10000018D0000406D00054000031015030   GGSL
NJARET22010-36434-15040-00000102D0001100D00042000141015040   GGSL
NJARET22010-36434-15060-80000102D0001666D00010000041015050   GGSL
NJARET22010-36434-15060-80000126D0002058D00025000071015060   GGSL
NJARET22010-36434-15070-70000024D0000353D00038000031015070   GGSL
NJARET22010-36434-15105-60000002D0000084D0000000000601015105 GGSL
NJARET22010-36434-17000-20000054D0002582D00033000081017000   GGSL
NJARET22010-36434-17010-10000054D0001270D00065000191017010   GGSL
NJARET22010-36434-17020-00000012D0000201D00006000061017020   GGSL
NJARET22010-36434-17050-70000114D0002233D00015000151017050   GGSL
NJARET22010-36434-17051-40000060D0000784D00017000131017051   GGSL
NJARET22010-36434-17062-00000020D0000165D00000000001017062   GGSL
NJARET22010-36434-18037-70000012D0000111D00002000011018037   GGSL
NJARET22010-36434-22318-00000126D0000547D00010000086022318   GGSL
NJARET22010-36434-22341-80000012D0000140D00048000011022341   GGSL
NJARET22010-36434-22345-60000048D0000563D00039000021022345   GGSL
NJARET22010-36434-22348-70000008D0000081D00000000001022348   GGSL
NJARET22010-36434-28040-40000048D0000720D00013000031028040   GGSL
NJARET22010-37000-00992-40000456D0005066D000000000000992     GGSL
NJARET22010-37000-00995-50000088D0000978D000170000000995     GGSL
NJARET22010-37000-07312-30000124D0001090D000990000055193     GGSL
NJARET22010-37000-10631-90000126D0000827D001940000010631     GGSL
NJARET22010-37000-19744-70000224D0000876D000200000097584     GGSL
NJARET22010-37000-23542-20000084D0000505D000150000023542     GGSL
NJARET22010-37000-23679-50000400D0001616D001570000077810     GGSL
NJARET22010-37000-31821-70000486D0001745D004150000013093     GGSL
NJARET22010-37000-31836-10000243D0001703D006170000031836     GGSL
NJARET22010-37000-35154-20000762D0002736D000000000008622     GGSL
NJARET22010-37000-40215-20000548D0005995D001860000040215     GGSL
NJARET22010-37000-41827-60000628D0006330D002460000041827     GGSL
NJARET22010-37000-73977-70000240D0002407D000020000073977     GGSL
NJARET22010-37000-76337-60000376D0002880D000830000076337     GGSL
NJARET22010-37000-92815-70000774D0007817D001080000092815     GGSL
NJARET22010-37321-00020-40001068D0010680D0004300035020       GGSL
NJARET22010-37321-00022-80000132D0000566D0001600015022       GGSL
NJARET22010-37321-00022-80004038D0029841D00433003630226      GGSL
NJARET22010-37321-00023-50000200D0004398D0002800028023       GGSL
NJARET22010-37321-00024-20001200D0017964D0007700077024       GGSL
NJARET22010-37321-00025-90001092D0010177D0010400041025       GGSL
NJARET22010-37321-00026-60000402D0006169D00088000640266      GGSL
NJARET22010-37321-00050-10000792D0000863D0003900016050       GGSL
NJARET22010-37321-00051-80000354D0004623D0008500026051       GGSL
NJARET22010-37321-00061-70000852D0006867D0011700041061       GGSL
NJARET22010-37321-00065-50000312D0001763D0003300024065       GGSL
NJARET22010-37321-00066-20000324D0004212D0005000029066       GGSL
NJARET22010-37321-00068-60000168D0000981D0004500017068       GGSL
NJARET22010-37321-00069-30000324D0004649D0002300008069       GGSL
NJARET22010-37321-00070-90000144D0002356D0005100007070       GGSL
NJARET22010-37321-00081-50000168D0001213D0002700009081       GGSL
NJARET22010-37321-00097-60000504D0002888D0003800032097       GGSL
NJARET22010-37321-00098-30000090D0000432D0000700005098       GGSL
NJARET22010-37321-00099-00000204D0001474D0001500008099       GGSL
NJARET22010-37321-00102-70000036D0000452D0001900006102       GGSL
NJARET22010-37321-00103-40000024D0000898D0001400001103       GGSL
NJARET22010-37321-00105-80000372D0001170D0004600030105       GGSL
NJARET22010-37321-00106-50000540D0001712D0003500018106       GGSL
NJARET22010-37321-00107-20000660D0002079D0010100024107       GGSL
NJARET22010-37321-00108-90002052D0006464D0022100067108       GGSL
NJARET22010-37321-00110-20001544D0005466D0013100101110       GGSL
NJARET22010-37321-00112-60001304D0004586D0056800195112       GGSL
NJARET22010-37321-00114-00000824D0002892D0005600036114       GGSL
NJARET22010-37321-00116-40000304D0001067D0003100024116       GGSL
NJARET22010-37321-00120-10000744D0004799D0009300037120       GGSL
NJARET22010-37321-00121-80000248D0003226D0004500036121       GGSL
NJARET22010-37321-00123-20000060D0000268D0000700000123       GGSL
NJARET22010-37321-00127-00000852D0007608D0014800041127       GGSL
NJARET22010-37321-00141-60000636D0003116D0005400023141       GGSL
NJARET22010-37321-00142-30000012D0000110D0001000001142       GGSL
NJARET22010-37321-00142-30000096D0000939D00057000211428      GGSL
NJARET22010-37321-00148-50000492D0005245D0008800015148       GGSL
NJARET22010-37321-00150-80001032D0017854D0009200040150       GGSL
NJARET22010-37321-00166-90000204D0001189D0001200008166       GGSL
NJARET22010-37321-00167-60000024D0000000D0004800000167       GGSL
NJARET22010-37321-00167-60000642D0004192D00067000481676      GGSL
NJARET22010-37321-00171-30000144D0001407D0003500013171       GGSL
NJARET22010-37321-00196-60000720D0004550D0009800051196       GGSL
NJARET22010-37321-00197-30000984D0006337D0008900030197       GGSL
NJARET22010-37321-00198-00000060D0000721D0002400002198       GGSL
NJARET22010-37321-00202-40000048D0000260D0001100011202       GGSL
NJARET22010-37321-00202-40000390D0004446D00082000482026      GGSL
NJARET22010-37321-00203-10000132D0002100D00008000082036      GGSL
NJARET22010-37321-00204-80000042D0001268D0004100003204       GGSL
NJARET22010-37321-00205-50000012D0000670D0000200001205       GGSL
NJARET22010-37321-00210-90000024D0000000D0000200000210       GGSL
NJARET22010-37321-00210-90000456D0003090D00096000352106      GGSL
NJARET22010-37321-00211-60000084D0000206D0001100002211       GGSL
NJARET22010-37321-00211-60000300D0002848D00063000262116      GGSL
NJARET22010-37321-00212-30000120D0002724D0005600019212       GGSL
NJARET22010-37321-00213-00001044D0011964D0012400066213       GGSL
NJARET22010-37321-00214-70001548D0009146D0019900049214       GGSL
NJARET22010-37321-00216-10001068D0019224D0007300050216       GGSL
NJARET22010-37321-00217-80000312D0003454D0000900008217       GGSL
NJARET22010-37321-00218-50000120D0001957D00060000312186      GGSL
NJARET22010-37321-00221-50000732D0004363D0003400029221       GGSL
NJARET22010-37321-00225-30000012D0000073D0000000000225       GGSL
NJARET22010-37321-00227-70000312D0003919D0001200011227       GGSL
NJARET22010-37321-00230-70000384D0003519D00043000392306      GGSL
NJARET22010-37321-00237-60000012D0000000D0000600000237       GGSL
NJARET22010-37321-00237-60000246D0003419D00082000262376      GGSL
NJARET22010-37321-00238-30000036D0000000D0000800008238       GGSL
NJARET22010-37321-00238-30001518D0013758D00915007772386      GGSL
NJARET22010-37321-00239-00000228D0005604D0013200043239       GGSL
NJARET22010-37321-00240-60000324D0005756D00071000432406      GGSL
NJARET22010-37321-00250-50000108D0000065D0000600004250       GGSL
NJARET22010-37321-00250-50001614D0009031D00509003792506      GGSL
NJARET22010-37321-00252-90000060D0000000D0002500002252       GGSL
NJARET22010-37321-00252-90000522D0006966D00290000692526      GGSL
NJARET22010-37321-00253-60000300D0006375D0004300020253       GGSL
NJARET22010-37321-00255-00000804D0018645D0006800027255       GGSL
NJARET22010-37321-00257-40000072D0000000D0002000002257       GGSL
NJARET22010-37321-00257-40000408D0001720D00193000362576      GGSL
NJARET22010-37321-00258-10000024D0000000D0002700000258       GGSL
NJARET22010-37321-00258-10000060D0000436D00046000152586      GGSL
NJARET22010-37321-00272-70000222D0001086D00097000192726      GGSL
NJARET22010-37321-00274-10000564D0003897D001780003727466     GGSL
NJARET22010-37321-00277-20000006D0000250D0000600000277       GGSL
NJARET22010-37321-00285-70000432D0002691D0006700024285       GGSL
NJARET22010-37321-00299-40000228D0002077D0004100025299       GGSL
NJARET22010-37321-00301-40000228D0002111D0004200015301       GGSL
NJARET22010-37321-00307-60001200D0005928D0010200041307       GGSL
