TXBWIC2201Z-ZSC11-121DI- 0000001D0000433D000000000611121     GGSL
TXBWIC22010-00402-00000-00000972D0049728D0593800387          GGSL
TXBWIC22010-00402-01012-60000064D0000492D00598000061012      GGSL
TXBWIC22010-00402-01014-00000180D0002649D02706001141014      GGSL
TXBWIC22010-00402-01421-30000004D0000568D000000000014BA      GGSL
TXBWIC22010-00402-01492-60000040D0000122D000590001214SSB     GGSL
TXBWIC22010-00402-01621-70000025D0000150D003250012516BA      GGSL
TXBWIC22010-00402-02117-70000025D0000113D0002500000B117      GGSL
TXBWIC22010-00402-02177-10000050D0000337D0000000000B117D     GGSL
TXBWIC22010-00402-02419-20000026D0000615D000030001110XS-20   GGSL
TXBWIC22010-00402-02540-00000100D0000339D0000000000B54       GGSL
TXBWIC22010-00402-02699-50000500D0000585D014200000010XS-20B  GGSL
TXBWIC22010-00402-02750-60000425D0001992D0122500050B75       GGSL
TXBWIC22010-00402-05418-20000100D0000395D00625000255418      GGSL
TXBWIC22010-00402-10142-80000165D0000931D020890026710145B    GGSL
TXBWIC22010-00402-10147-30000077D0000001D00139000001014 G    GGSL
TXBWIC22010-00402-11730-60000075D0000285D005250002511730     GGSL
TXBWIC22010-00402-14292-60000001D0000063D0000000000142SSB    GGSL
TXBWIC22010-00402-14311-40000050D0000187D000000000014CSBK    GGSL
TXBWIC22010-00402-14312-10000068D0000288D001290000214CSB     GGSL
TXBWIC22010-00402-14411-10002234C0000288C0015500000144SSBK   GGSL
TXBWIC22010-00402-14492-00000040D0000320D0000000000144SSB    GGSL
TXBWIC22010-00402-33117-70000600D0000265D0387500125PC11-7    GGSL
TXBWIC22010-00402-33354-60002950D0000472D0712500375PC5-4     GGSL
TXBWIC22010-00402-33375-10003475D0000727D1197501050PC7-5     GGSL
TXBWIC22010-00402-44117-30000125D0000063D0010000000PLCD 11-7 GGSL
TXBWIC22010-00402-44475-40000025D0000007D0000000050PLCD 7-5  GGSL
TXBWIC22010-00402-91014-30000596D0056056D00045002091014 BLACKGGSL
TXBWIC22010-00772-00167-00000002D0000026D0000000000167       GGSL
TXBWIC22010-00772-00726-90000002D0000017D0000000000726       GGSL
TXBWIC22010-00772-00730-60000002D0000017D0000000000730       GGSL
TXBWIC22010-00772-02098-50000002D0000024D00000000002098      GGSL
TXBWIC22010-00772-02280-40000002D0000022D00000000002280      GGSL
TXBWIC22010-00772-02304-70000005D0000018D00000000002304      GGSL
TXBWIC22010-00772-03781-50000002D0000012D00000000003781      GGSL
TXBWIC22010-00772-03782-20000002D0000012D00000000003782      GGSL
TXBWIC22010-00772-04021-10000002D0000026D00000000004021      GGSL
TXBWIC22010-00772-05180-40000002D0000026D00000000005180      GGSL
TXBWIC22010-00772-06181-00000002D0000030D00000000006181      GGSL
TXBWIC22010-00772-06702-70000003D0000027D00000000006702      GGSL
TXBWIC22010-00772-06703-40000006D0000043D00000000006703      GGSL
TXBWIC22010-00772-06704-10000006D0000043D00000000006704      GGSL
TXBWIC22010-00772-06710-20000003D0000023D00000000006710      GGSL
TXBWIC22010-00772-06712-60000003D0000023D00000000006712      GGSL
TXBWIC22010-00772-06714-00000003D0000036D00000000006714      GGSL
TXBWIC22010-00772-06715-70000003D0000036D00000000006715      GGSL
TXBWIC22010-00772-06724-90000006D0000046D00000000006724      GGSL
TXBWIC22010-00772-06740-90000005D0000027D00000000006740      GGSL
TXBWIC22010-00772-09344-60000002D0000018D00000000009344      GGSL
TXBWIC22010-00772-09842-70000002D0000026D00000000009842      GGSL
TXBWIC22010-00772-30149-70000002D0000030D000000000030149     GGSL
TXBWIC22010-00772-31321-60000002D0000020D000000000031321     GGSL
TXBWIC22010-00772-31322-30000002D0000020D000000000031322     GGSL
TXBWIC22010-00772-31325-40000002D0000020D000000000031325     GGSL
TXBWIC22010-01850-60960-00000006D0003522D00000000199200      GGSL
TXBWIC22010-10256-01220-30000020D0000332D0025500010GTH/SBPRHSGGSL
TXBWIC22010-10367-00001-80000030D0000104D0000000000ML0001    GGSL
TXBWIC22010-10367-00110-70000372D0002348D0021600336110       GGSL
TXBWIC22010-10367-00130-50000106D0005167D0002300025130.0     GGSL
TXBWIC22010-10367-00150-30000088D0002432D0000000138150.0     GGSL
TXBWIC22010-10367-00460-30000128D0000714D0004800032ML0460 8  GGSL
TXBWIC22010-10367-00530-30000011D0000443D0002100001530.0     GGSL
TXBWIC22010-10367-00560-00000768D0002494D0041600128ML0560 8  GGSL
TXBWIC22010-10367-00810-60000048D0000243D0000000000ML0810    GGSL
TXBWIC22010-10367-01000-00000420D0004954D0014400000ML1000    GGSL
TXBWIC22010-10367-01010-90000012D0000136D0000000000ML1010    GGSL
TXBWIC22010-10367-01020-80000564D0008276D0014400000ML1020    GGSL
TXBWIC22010-10367-01050-50000264D0002935D0021600000ML1050    GGSL
TXBWIC22010-10367-01110-60000048D0000166D00000000081110      GGSL
TXBWIC22010-10367-01111-30000056D0000187D00152000241111.0    GGSL
TXBWIC22010-10367-01112-00000144D0000496D00096000161112.0    GGSL
TXBWIC22010-10367-01120-50000136D0000453D00592000481120.0    GGSL
TXBWIC22010-10367-01121-20000080D0000410D00008000161121.0    GGSL
TXBWIC22010-10367-01130-40000048D0000286D00168000001130.0    GGSL
TXBWIC22010-10367-01140-30000104D0000375D00000000001140.0    GGSL
TXBWIC22010-10367-01151-90000104D0000333D0000000000ML1151    GGSL
TXBWIC22010-10367-01210-30000040D0000688D00048000081210.0    GGSL
TXBWIC22010-10367-01240-00000108D0000636D00672000241240.0    GGSL
TXBWIC22010-10367-02121-10000016D0000069D0000000000ML2121    GGSL
TXBWIC22010-10367-02131-00000008D0000035D0000000008ML2131    GGSL
TXBWIC22010-10367-02141-90000024D0000104D0000000008ML2141    GGSL
TXBWIC22010-10367-02151-80000008D0000055D0000000008ML2151    GGSL
TXBWIC22010-10367-02161-70000008D0000050D0000000008ML2161    GGSL
TXBWIC22010-10367-02162-40000016D0000099D0011200016ML2162    GGSL
TXBWIC22010-10367-02171-60000016D0000100D0000000000ML2171    GGSL
TXBWIC22010-10367-03010-70000048D0000256D0005600016ML3010    GGSL
TXBWIC22010-10367-03020-60000072D0000387D0005600000ML3020    GGSL
TXBWIC22010-11192-10594-70000032D0000692D0000000000KHEATMAT  GGSL
TXBWIC22010-11192-10595-40000036D0001323D0000000000KLIGHT-9  GGSL
TXBWIC22010-11192-60378-80000054D0000417D0000000036WFSU18    GGSL
TXBWIC22010-11192-61501-90000036D0000125D0000000000PREFILL36 GGSL
TXBWIC22010-11192-86019-80000030D0000185D0000000000KMG6      GGSL
TXBWIC22010-11247-00250-40000047D0001934D000690001300640     GGSL
TXBWIC22010-11247-00911-40000008D0000368D000000000000911     GGSL
TXBWIC22010-11247-00913-80000003D0000246D000000000100913     GGSL
TXBWIC22010-11247-01050-90000082D0001150D000030000801050     GGSL
TXBWIC22010-11247-01541-20000012D0000485D000110000001541     GGSL
TXBWIC22010-11247-02450-60000001D0000057D000000000002450     GGSL
TXBWIC22010-11247-03111-50000027D0000769D000800000003111     GGSL
TXBWIC22010-11247-04525-90000097D0002702D003180001604525     GGSL
TXBWIC22010-11247-05350-60000012D0000620D000020000205350     GGSL
TXBWIC22010-11247-05450-30000022D0000940D000880007505450     GGSL
TXBWIC22010-11247-06239-30000013D0000633D000200000006239     GGSL
TXBWIC22010-11247-11024-70000060D0000355D000000004811024     GGSL
TXBWIC22010-11247-12024-60000024D0000119D000000010812024     GGSL
TXBWIC22010-11247-13010-80000099D0000373D000210004813010     GGSL
TXBWIC22010-11247-16004-20000306D0002003D001920003616004     GGSL
TXBWIC22010-11247-20002-30000252D0001278D000000006020002     GGSL
TXBWIC22010-11247-20103-70000024D0000177D000000000620103     GGSL
TXBWIC22010-11247-21004-60000054D0000462D000000008421004     GGSL
TXBWIC22010-11247-29016-10000024D0000160D000000003629016     GGSL
TXBWIC22010-11247-30004-40000378D0002783D002640018030004     GGSL
TXBWIC22010-11247-52813-40000002D0000035D000430000252813     GGSL
TXBWIC22010-11247-52825-70000114D0002404D000220000652825     GGSL
TXBWIC22010-11247-52826-40000042D0000224D000000000652826     GGSL
TXBWIC22010-11247-52829-50000024D0000272D000180000652829     GGSL
TXBWIC22010-11247-52830-10000001D0000051D000020000252830     GGSL
TXBWIC22010-11247-52833-20000120D0000757D000120000652833     GGSL
TXBWIC22010-11247-52877-60000016D0000740D000360000452877     GGSL
TXBWIC22010-11247-52878-30000008D0000860D000000000052878     GGSL
TXBWIC22010-11247-52880-60000006D0000036D000000001852880     GGSL
TXBWIC22010-11247-52888-20000105D0000611D000690005452888     GGSL
TXBWIC22010-11247-52889-90000136D0002119D000430002452889     GGSL
TXBWIC22010-11247-52907-00000003D0000146D000000000252907     GGSL
TXBWIC22010-11247-60016-80000012D0000128D000000000060016     GGSL
TXBWIC22010-11247-60116-50000098D0001011D000770000060116     GGSL
TXBWIC22010-11247-61008-20000354D0003447D000000036061008     GGSL
TXBWIC22010-11247-61024-20001527D0010799D004050079261024     GGSL
TXBWIC22010-11247-71016-40000084D0000684D000120013271001     GGSL
TXBWIC22010-11247-71128-40000008D0000156D000000002471128     GGSL
TXBWIC22010-11247-72020-00000040D0000731D000000000072020     GGSL
TXBWIC22010-11247-90001-50000012D0000063D000240002490001     GGSL
TXBWIC22010-11247-90128-90000008D0000074D000400006490128     GGSL
TXBWIC22010-11247-90250-70000002D0000054D000400001090250     GGSL
TXBWIC22010-11423-00338-70000012D0000063D0052200000HG-33801  GGSL
TXBWIC22010-14021-00534-00000001D0000059D00000000008000      GGSL
TXBWIC22010-14021-00832-70000001D0000041D00000000007050      GGSL
TXBWIC22010-14021-01208-90000001D0000046D00000000007010      GGSL
TXBWIC22010-14021-01412-00000005D0000624D00000000001024      GGSL
TXBWIC22010-15966-49430-10000037D0000600D000290000049 00 430 GGSL
TXBWIC22010-16069-00002-80000012D0000075D0000000000NE-OR     GGSL
TXBWIC22010-16069-00007-30000042D0000230D0004800060BN-1      GGSL
TXBWIC22010-16069-00008-00000279D0001562D0014700168BN-2      GGSL
TXBWIC22010-16069-00013-40000020D0000429D0006400024BN-3      GGSL
TXBWIC22010-16069-00014-10000014D0000252D0004000012BN-4      GGSL
TXBWIC22010-16069-00015-80000006D0000150D0003400006BN-5      GGSL
TXBWIC22010-16069-00030-10000072D0000782D0002400026OW-6      GGSL
TXBWIC22010-16069-00038-70000012D0000100D0000000000GF-1015   GGSL
TXBWIC22010-16069-00049-30000006D0000098D0006800026DX-7      GGSL
TXBWIC22010-16069-00218-30000012D0000060D0000000024HST-100   GGSL
TXBWIC22010-16069-00473-30000003D0001329D0000000007MIXO-30MP GGSL
TXBWIC22010-16069-00498-90000003D0000151D0000000000HGP-1012  GGSL
TXBWIC22010-16069-00504-70000030D0000057D0000000000TG1-3W    GGSL
TXBWIC22010-16069-00531-00000013D0007277D0000000005GCM-BDO   GGSL
TXBWIC22010-16069-00597-90000001D0000106D0000000000BTK-6     GGSL
TXBWIC22010-16069-00667-90000148D0002838D0002000088RHO-4US   GGSL
TXBWIC22010-18506-00000-00000355D0005413D02765002700111-5    GGSL
TXBWIC22010-18506-00010-30000120D0000812D0024100240010-6     GGSL
TXBWIC22010-18506-00021-90000048D0000448D0037400012021-6     GGSL
TXBWIC22010-18506-00102-50000024D0000086D0047000000102-12    GGSL
TXBWIC22010-18506-00110-50000660D0004410D0130300888110-12    GGSL
TXBWIC22010-18506-00116-20000390D0002216D0084500738116-12    GGSL
TXBWIC22010-18506-00117-90000315D0002905D0065400462117-6     GGSL
TXBWIC22010-18506-00125-40000012D0000063D0019201812125       GGSL
TXBWIC22010-18506-00130-80000024D0000135D0016801236130       GGSL
TXBWIC22010-18506-00134-60000006D0000048D0000000000134       GGSL
TXBWIC22010-18506-03202-90000012D0005628D00001000093200      GGSL
TXBWIC22010-22102-01010-70000017D0000741D000000004010N       GGSL
TXBWIC22010-22102-01510-20000012D0000517D000000002415N       GGSL
TXBWIC22010-22102-02011-30000006D0000292D000060000020FB      GGSL
TXBWIC22010-22102-05211-40000024D0001103D0000000002521G      GGSL
TXBWIC22010-22102-28112-50000024D0000125D000000000028CSG     GGSL
TXBWIC22010-22102-30430-50000006D0000217D0000000000HPW33     GGSL
TXBWIC22010-22102-75210-60000036D0001110D00000000067521      GGSL
TXBWIC22010-22179-10011-40000030D0000289D0000000000lg 3104   GGSL
TXBWIC22010-22179-10013-80000006D0000037D0004200000LG1104    GGSL
TXBWIC22010-22179-10035-00000030D0001519D0014600073LG4110    GGSL
TXBWIC22010-22179-10084-80000084D0000679D0007200102LG7220    GGSL
TXBWIC22010-22179-10090-90000048D0001172D0006300018LG4300    GGSL
TXBWIC22010-22179-10096-10000006D0000121D0000000000lg 5328   GGSL
TXBWIC22010-22179-10108-10000012D0000100D0000000024LG7265    GGSL
TXBWIC22010-22179-10109-80000018D0000250D0000000000lg 5146   GGSL
TXBWIC22010-22179-10110-40000018D0000463D0000000000lg 5149   GGSL
TXBWIC22010-22179-10115-90000234D0003792D0004500072lg 5599   GGSL
TXBWIC22010-22179-10124-10000450D0002354D0049800276LG6515    GGSL
TXBWIC22010-22179-10130-20000006D0000077D0000000012lg 6239   GGSL
TXBWIC22010-22179-10133-30000006D0000061D0000000000LG 4102   GGSL
TXBWIC22010-22179-10139-50000036D0000181D0032700036LG1130    GGSL
TXBWIC22010-22179-10140-10000004D0000538D0006500003LG6520    GGSL
TXBWIC22010-22179-10150-00000212D0002374D00452004647115      GGSL
TXBWIC22010-22179-10151-70000054D0002549D00230000147117      GGSL
TXBWIC22010-22179-10157-90000048D0000939D0000000000LG6530    GGSL
TXBWIC22010-22179-10167-80000084D0001444D0000000024lg 6127   GGSL
TXBWIC22010-22179-10185-20000181D0001924D0024600134LG6500    GGSL
TXBWIC22010-22179-10186-90000036D0001466D0000000000lg 6555   GGSL
TXBWIC22010-22179-10246-00000243D0003738D0058201170LG6570    GGSL
TXBWIC22010-22179-10247-70000180D0004194D00240002227122      GGSL
TXBWIC22010-22179-10248-40000225D0001749D0053700048LG6575    GGSL
TXBWIC22010-22179-10256-90000012D0000117D0000000012lg 5570   GGSL
TXBWIC22010-22179-10257-60000048D0000720D0000000060LG3190    GGSL
TXBWIC22010-22179-10262-00000024D0000323D0000000084lg 6342   GGSL
TXBWIC22010-22179-10263-70000012D0000438D0000000000lg 6350   GGSL
TXBWIC22010-22179-10266-80000348D0005875D0002401548LG6145    GGSL
TXBWIC22010-22179-10278-10000012D0000072D0000000000lg 6284   GGSL
TXBWIC22010-22179-10290-30000012D0000079D0000000000lg 6440   GGSL
TXBWIC22010-22179-10295-80000012D0000279D0000000012LG6138    GGSL
TXBWIC22010-22179-10326-90000012D0000256D0000000000LG5512    GGSL
TXBWIC22010-22179-10327-60000048D0000469D0000000036LG6148    GGSL
TXBWIC22010-22179-10331-30000036D0000373D0000000018lg 6382   GGSL
TXBWIC22010-22179-10363-40000012D0000078D0000000012LG6232    GGSL
TXBWIC22010-22179-10374-00000024D0000149D0000000060lg 6286   GGSL
TXBWIC22010-22179-10375-70000018D0000135D0000000000lg 6299   GGSL
TXBWIC22010-22179-10376-40000012D0000214D0000000004LG6292    GGSL
TXBWIC22010-22179-10377-10000336D0002974D0007200588lg 6294   GGSL
TXBWIC22010-22179-10378-80000052C0002974C0000600114lg6274    GGSL
TXBWIC22010-22179-10390-00000156D0001417D0058800264LG6332    GGSL
TXBWIC22010-22179-10391-70000084D0001220D0000000288LG6336    GGSL
TXBWIC22010-22179-10395-50000030D0000966D0011100013LG6356    GGSL
TXBWIC22010-22179-10398-60000012D0000061D0000600006lg 7234   GGSL
TXBWIC22010-22179-10399-30000036D0000221D0062400000LG7198    GGSL
TXBWIC22010-22179-10406-80000004D0000221D0000000196LG 6344   GGSL
TXBWIC22010-22179-10408-20000345D0002901D0033800612LG 6338   GGSL
TXBWIC22010-22179-10417-40000008D0000688D0000000000lg6142    GGSL
TXBWIC22010-22179-10429-70000096D0001490D0091200564LG6334    GGSL
TXBWIC22010-22179-10443-30000006D0000056D0000000054LG3370    GGSL
TXBWIC22010-22179-10444-00000048D0000654D0000000000lg 3374   GGSL
TXBWIC22010-22179-10448-80000036D0000422D0000000012lg 3174   GGSL
TXBWIC22010-22179-10454-90000132D0001272D0030600132lg 3303   GGSL
TXBWIC22010-22179-10455-60000012D0000267D0000000000lg 3307   GGSL
TXBWIC22010-22179-10458-70000069D0000641D0027900012lg 3234   GGSL
TXBWIC22010-22179-10462-40000012D0000095D0000000000LG1142    GGSL
TXBWIC22010-22179-10474-70000012D0000096D0000000024lg 6328   GGSL
TXBWIC22010-22179-10481-50000042D0000507D0000000006lg 5592   GGSL
TXBWIC22010-22179-10490-70000336D0002762D0000000276LG 6302   GGSL
TXBWIC22010-22179-10492-10000006D0000090D0000000006lg 5225   GGSL
TXBWIC22010-22179-10493-80000006D0000171D0000000006lg 5226   GGSL
TXBWIC22010-22179-10499-00000006D0000089D0000000006LG9250    GGSL
TXBWIC22010-22179-10509-60000006D0000042D0000000000lg6172    GGSL
TXBWIC22010-22179-10517-10000021D0000462D0000900000lg 3176   GGSL
TXBWIC22010-22179-10520-10000018D0000138D0000000018lg 6542   GGSL
TXBWIC22010-22179-10529-40000122D0000867D0026000160lg 7350   GGSL
TXBWIC22010-22179-10552-20000240D0002304D0002000390lg 7376   GGSL
TXBWIC22010-22401-00115-80000084D0005335D0009300028MDC-15    GGSL
TXBWIC22010-22401-00301-50000041D0000651D0004300012THD-20    GGSL
TXBWIC22010-22401-00380-10000084D0001766D0058400080NDETC-20MCGGSL
TXBWIC22010-22401-00381-70000060D0001237D0012800084NDETC-2OLBGGSL
TXBWIC22010-22401-00440-10000012D0000364D0000000000PRO-40    GGSL
TXBWIC22010-22401-00558-30000002D0000402D0000000000PS-R12    GGSL
TXBWIC22010-22401-10088-20000055D0002105D0006500040EAR-60    GGSL
TXBWIC22010-23075-02180-00000006D0000028D0000000000P180-6    GGSL
TXBWIC22010-23075-02332-30000240D0001270D0000000024P036      GGSL
TXBWIC22010-23075-02361-30000018D0000093D0000000000P36S      GGSL
TXBWIC22010-23075-02721-50000245D0001129D0000000000P72H-7    GGSL
TXBWIC22010-23075-03312-40000060D0000104D0000000000FR312B    GGSL
TXBWIC22010-23075-03407-70000066D0000127D0000000000FR407     GGSL
TXBWIC22010-23626-00605-80004060D0042395D0630001776116334    GGSL
TXBWIC22010-23626-00615-70004477D0052035D0255101873          GGSL
TXBWIC22010-23626-00630-00000996D0015094D0326800152116341    GGSL
TXBWIC22010-23626-00650-80000077D0000294D0040200006000600    GGSL
TXBWIC22010-23626-00860-10000036D0000315D0000000172116348    GGSL
TXBWIC22010-23626-01710-80000219D0001160D0026400006000800    GGSL
TXBWIC22010-23626-01720-70000201D0001481D0019200312000900    GGSL
TXBWIC22010-23626-02830-20000002D0000103D0002200006116841    GGSL
TXBWIC22010-23626-04055-70000006D0000039D0000000006112845    GGSL
TXBWIC22010-23883-00001-10000688D0012755D0115500384G362      GGSL
TXBWIC22010-23883-00002-80000129D0000643D0049801116G385      GGSL
TXBWIC22010-23883-00003-50000102D0000493D0094500024G390      GGSL
TXBWIC22010-23883-01000-30000178C0000493C00024000121000      GGSL
TXBWIC22010-23883-01002-70000293D0003006D00915001101002      GGSL
TXBWIC22010-23883-01105-50000156D0000525D00103004921105      GGSL
TXBWIC22010-23883-04701-60000001D0000030D00014000054701      GGSL
TXBWIC22010-23883-05000-90000083D0000512D00126000015000      GGSL
TXBWIC22010-23883-08620-60000007D0001503D00019000008620B     GGSL
TXBWIC22010-23883-15710-40008750D0064934D136760869015710     GGSL
TXBWIC22010-23883-16100-20000010C0064934C000000000016100     GGSL
TXBWIC22010-23883-20010-70000004D0000066D000250000820010     GGSL
TXBWIC22010-23883-20020-60000040D0000786D000000005220002     GGSL
TXBWIC22010-23883-21210-00000038D0001856D000020005521210XP   GGSL
TXBWIC22010-23883-26011-80000072D0002666D003220007126011XP   GGSL
TXBWIC22010-23883-26021-70000296D0011153D023210012726021XP   GGSL
TXBWIC22010-23883-26031-60000054D0002653D001580002026031XP   GGSL
TXBWIC22010-23883-27010-00000088D0002148D001850003327010     GGSL
TXBWIC22010-23883-27020-90000275D0006964D005640006927020     GGSL
TXBWIC22010-23883-27030-80000064D0002005D002210002827030     GGSL
TXBWIC22010-23883-60100-30000213D0013092D016790012260100     GGSL
TXBWIC22010-23883-61800-10000064D0005250D000000001061800     GGSL
TXBWIC22010-23883-61925-10000004D0000048D00013000016-1925    GGSL
TXBWIC22010-23883-63924-20000014D0002765D000870001563924     GGSL
TXBWIC22010-23883-68238-50000002D0000130D00000000006-8238    GGSL
TXBWIC22010-23883-80000-00000024D0001169D00003000998000A     GGSL
TXBWIC22010-23883-81000-90000017D0002105D000010002581000A    GGSL
TXBWIC22010-23883-82080-00000002D0000399D00000000018301C     GGSL
TXBWIC22010-23883-84000-60000142C0000399C00012000008701B     GGSL
TXBWIC22010-23883-84600-80000519D0017356D000240001084700A    GGSL
TXBWIC22010-23883-97100-70000005D0005041D000120000197100     GGSL
TXBWIC22010-23883-97361-20000004D0000835D000080000097361     GGSL
TXBWIC22010-23883-97561-60000002D0000570D000010000197561     GGSL
TXBWIC22010-24654-05102-70000144D0000643D00006000065102-6    GGSL
TXBWIC22010-24654-05922-10000060D0000703D00000000065926      GGSL
TXBWIC22010-24654-05931-30000012D0000173D00000000005935      GGSL
TXBWIC22010-24654-05962-70000060D0000712D00054000185962      GGSL
TXBWIC22010-24654-51806-30000006D0000031D00000000365180-6    GGSL
TXBWIC22010-24654-55025-40000012D0000040D00000000005026      GGSL
TXBWIC22010-24654-55110-70000348D0001559D00965000485110-6    GGSL
TXBWIC22010-24654-55118-30000222D0001602D00541000425118.0    GGSL
TXBWIC22010-24654-65452-50000090D0000374D00000000005452-6    GGSL
TXBWIC22010-25845-12346-20000288D0000406D000000000024950     GGSL
TXBWIC22010-26455-91350-40000017D0000998D001390000370805-001-GGSL
TXBWIC22010-26978-30104-80000002D0000060D000000000330104     GGSL
TXBWIC22010-26978-30301-10000413D0002749D000290014430301     GGSL
TXBWIC22010-26978-30402-50000012D0000068D000000002430402     GGSL
TXBWIC22010-26978-30411-70000012D0000068D000000001230411     GGSL
TXBWIC22010-26978-30413-10000012D0000068D000000001230413     GGSL
TXBWIC22010-26978-30500-80000030D0000154D000000004030500     GGSL
TXBWIC22010-26978-30605-00000002D0000041D000000000030605     GGSL
TXBWIC22010-26978-30806-10000002D0000050D000000000130806     GGSL
TXBWIC22010-26978-30901-30000001D0000049D000000000030901     GGSL
TXBWIC22010-26978-38142-20000048D0000336D000000000038142     GGSL
TXBWIC22010-26978-38192-70000036D0000482D000000000038192     GGSL
TXBWIC22010-26978-39122-30000048D0000217D000000000039122     GGSL
TXBWIC22010-26978-39182-70000036D0000414D000000000039182     GGSL
TXBWIC22010-26978-39188-90000030D0000345D000000000039188     GGSL
TXBWIC22010-26978-70801-10000001D0000083D000000000070801     GGSL
TXBWIC22010-26978-70802-80000001D0000083D000000000070802     GGSL
TXBWIC22010-26978-80105-00000002D0000413D000000000080105.04  GGSL
TXBWIC22010-26978-81201-80000001D0000075D000000000081201     GGSL
TXBWIC22010-27452-06240-00000004D0000042D000000000023958     GGSL
TXBWIC22010-28009-11225-80002732D0014801D02095010131225.0    GGSL
TXBWIC22010-28009-11227-20000498D0001470D00012000061227.0    GGSL
TXBWIC22010-28009-11250-00013333D0109747D10983017011250.0    GGSL
TXBWIC22010-28009-11420-70001115D0006917D00323001301420P     GGSL
TXBWIC22010-28009-11428-30000216D0002700D00000000001428      GGSL
TXBWIC22010-28009-11440-50003380D0029732D01322000651440P     GGSL
TXBWIC22010-28009-15240-70001814D0008549D00726002315240.0    GGSL
TXBWIC22010-28009-15440-30000240D0001979D00000000001840      GGSL
TXBWIC22010-28009-15450-00000800D0002264D00067000005450.0    GGSL
TXBWIC22010-28009-15540-80003965D0016530D02489009005540.0    GGSL
TXBWIC22010-28009-15720-40001200D0003696D00000000005720.0    GGSL
TXBWIC22010-28009-15740-20003159D0016172D00145000605740.0    GGSL
TXBWIC22010-30541-00003-00000150D0000174D0000000000JCD-50EP  GGSL
TXBWIC22010-30541-00033-80000004D0000174D0000000000JCD-TPP5  GGSL
TXBWIC22010-30541-00102-00000036D0000181D0000000000JCD-02ER  GGSL
TXBWIC22010-30541-00109-90000144D0000321D0000000000JCD-02SC  GGSL
TXBWIC22010-30541-00301-70000002D0000324D0000000000JCD-30BKSMGGSL
TXBWIC22010-30541-00501-10000035D0008176D0000000000JCD-50BKSMGGSL
TXBWIC22010-30541-00801-20000001D0000046D0000000008JCD-08BKSMGGSL
TXBWIC22010-30541-01020-60000312D0000706D0000000048JCD-024SM GGSL
TXBWIC22010-30541-01030-50000192D0001573D0000000006JCD-100SMJGGSL
TXBWIC22010-30541-01034-30000060D0001232D0001100012JCD-030SM GGSL
TXBWIC22010-30541-01039-80000012D0000056D0000000000JCD-05SM  GGSL
TXBWIC22010-30541-08875-50000250D0000073D0000000250SMB       GGSL
TXBWIC22010-30541-08877-90000001D0000067D0000000000SMC       GGSL
TXBWIC22010-30541-08878-60000012D0000033D0000000048SMMS      GGSL
TXBWIC22010-30541-09982-90002448D0004661D0067202624JCD-TPP   GGSL
TXBWIC22010-30541-83795-70000096D0000177D0000000000JCD-024TMPGGSL
TXBWIC22010-30641-09801-20000350D0000802D0002500425SWPDQ     GGSL
TXBWIC22010-30641-32937-60000720D0001445D0010800540RPDQ      GGSL
TXBWIC22010-30641-33935-10000846D0001704D0000000594YPDQ      GGSL
TXBWIC22010-30641-35936-60000882D0001817D0001800720WPDQ      GGSL
TXBWIC22010-32247-00900-30000168D0000478D00396000901009001   GGSL
TXBWIC22010-32247-00910-20000108D0000315D00072000001009101   GGSL
TXBWIC22010-32247-00950-80000096D0000263D00048000121009501   GGSL
TXBWIC22010-32247-03115-80000082D0004899D000350000031115     GGSL
TXBWIC22010-32247-03313-80001428D0029904D00251000003313B     GGSL
TXBWIC22010-32247-03594-10001300D0008052D006920000070359430  GGSL
TXBWIC22010-32247-05514-70037233D0139374D047100030570551430  GGSL
TXBWIC22010-32247-10500-20000846D0006768D0019200012110500    GGSL
TXBWIC22010-32247-11307-60016580D0031578D027830088671130756  GGSL
TXBWIC22010-32247-12764-60000273C0031578C000800000071276430  GGSL
TXBWIC22010-32247-14810-80000032D0000211D000000001614810     GGSL
TXBWIC22010-32247-14901-30000048D0000633D000080000014901     GGSL
TXBWIC22010-32247-14902-00000040D0000527D000040000014902     GGSL
TXBWIC22010-32247-14905-10002988D0021179D001040000014905     GGSL
TXBWIC22010-32247-15307-20000175D0000368D002120002571530751  GGSL
TXBWIC22010-32247-17183-00003996D0033557D000540000017183     GGSL
TXBWIC22010-32247-17185-40002272D0043218D000560000017185     GGSL
TXBWIC22010-32247-17187-80001451D0066307D000480000017187     GGSL
TXBWIC22010-32247-17290-50001830D0016891D000120000017290     GGSL
TXBWIC22010-32247-17293-60001992D0017593D000000000017293     GGSL
TXBWIC22010-32247-17295-00000824D0017034D000080000017295     GGSL
TXBWIC22010-32247-17323-00001092D0009153D000480000017323     GGSL
TXBWIC22010-32247-17325-40000916D0015976D000080000017325     GGSL
TXBWIC22010-32247-17327-80000756D0027483D000480000017327     GGSL
TXBWIC22010-32247-17424-40000016D0000396D000000000017519     GGSL
TXBWIC22010-32247-17432-90000034D0001406D000160000017504     GGSL
TXBWIC22010-32247-17488-60000040D0000991D000000000017590     GGSL
TXBWIC22010-32247-17508-10000079D0001331D000300000017508     GGSL
TXBWIC22010-32247-17511-10000114D0001379D000960000017511     GGSL
TXBWIC22010-32247-17528-90000052D0001288D000000000017540     GGSL
TXBWIC22010-32247-17530-20000006D0000052D000000000017530     GGSL
TXBWIC22010-32247-17582-10000703D0008733D000000000117582     GGSL
TXBWIC22010-32247-17943-00000004D0000094D000480000017943     GGSL
TXBWIC22010-32247-18213-30001892D0041581D000120000018213     GGSL
TXBWIC22010-32247-18221-80000139D0005085D000160001218221     GGSL
TXBWIC22010-32247-18222-50001596D0031924D000000000018222     GGSL
TXBWIC22010-32247-18225-60000233D0004267D000610000018225     GGSL
TXBWIC22010-32247-18249-20000012D0000653D000000000018249     GGSL
TXBWIC22010-32247-18251-50000024D0000725D000160000018251     GGSL
TXBWIC22010-32247-18272-00000174D0000887D000470000018272     GGSL
TXBWIC22010-32247-18296-60000042D0000485D000060000018296     GGSL
TXBWIC22010-32247-18302-40000032D0000706D000040000018302     GGSL
TXBWIC22010-32247-18320-80000300D0002718D000060000018320     GGSL
TXBWIC22010-32247-18338-30000036D0000378D000000000018338     GGSL
TXBWIC22010-32247-18341-30000028D0000604D000000000018341     GGSL
TXBWIC22010-32247-18345-10000024D0000296D000000000018345     GGSL
TXBWIC22010-32247-18346-80000156D0002855D000280000018346     GGSL
TXBWIC22010-32247-18348-20000048D0000632D000240000018348     GGSL
TXBWIC22010-32247-18350-50003795D0023217D000450000018350     GGSL
TXBWIC22010-32247-18353-60003297D0074260D000000001818335     GGSL
TXBWIC22010-32247-18354-30000018D0000230D000000000018354     GGSL
TXBWIC22010-32247-18355-00000003D0003120D000000000018355A    GGSL
TXBWIC22010-32247-18362-80000780D0025982D000000000018362     GGSL
TXBWIC22010-32247-18363-50000012D0000350D000000000018363     GGSL
TXBWIC22010-32247-18365-90000054D0001890D000000000018365     GGSL
TXBWIC22010-32247-19002-20000072D0000616D000000000019002     GGSL
TXBWIC22010-32247-19003-90000040D0001489D000190000019003     GGSL
TXBWIC22010-32247-19007-70000020D0000346D000000000019007     GGSL
TXBWIC22010-32247-19594-20000911D0005766D000480000071959430  GGSL
TXBWIC22010-32247-20220-60000068D0001061D000000000020220     GGSL
TXBWIC22010-32247-20784-30003960D0012212D010750031272078430  GGSL
TXBWIC22010-32247-20814-70000068D0002773D000000000021814     GGSL
TXBWIC22010-32247-21030-00000061D0001518D001790000021030A    GGSL
TXBWIC22010-32247-21031-70000045D0001957D000190000021031     GGSL
TXBWIC22010-32247-21605-00001989D0035595D000620000021605     GGSL
TXBWIC22010-32247-21701-90000912D0007213D000000000021701     GGSL
TXBWIC22010-32247-21711-80000012D0000100D000000000021711     GGSL
TXBWIC22010-32247-21712-50000021D0000398D000000000021712     GGSL
TXBWIC22010-32247-22305-80000457D0006395D002020000022305     GGSL
TXBWIC22010-32247-23001-80000151D0005990D000000000023001     GGSL
TXBWIC22010-32247-23002-50000120D0001390D002160000023002     GGSL
TXBWIC22010-32247-23100-80000036D0000393D000240000023100     GGSL
TXBWIC22010-32247-23405-40003117D0043823D002730000023405B    GGSL
TXBWIC22010-32247-23415-30000174D0006843D000200000023415     GGSL
TXBWIC22010-32247-25006-10006274D0118929D004970000025006A    GGSL
TXBWIC22010-32247-25009-20000765D0039475D000000000225009     GGSL
TXBWIC22010-32247-26003-90001750D0041506D000400000026003D    GGSL
TXBWIC22010-32247-26005-30000247D0006066D000000000026005     GGSL
TXBWIC22010-32247-26007-70000752D0017256D002130000026007B    GGSL
TXBWIC22010-32247-26784-70000216D0000664D010080015672678430  GGSL
TXBWIC22010-32247-27764-80000088D0000365D000000000072776430  GGSL
TXBWIC22010-32247-27791-40000600D0001170D000000048072779180  GGSL
TXBWIC22010-32247-30073-50000706D0013368D000010000030073     GGSL
TXBWIC22010-32247-30156-50005284D0075000D000240000030156     GGSL
TXBWIC22010-32247-30177-00000501D0036873D000520000030177     GGSL
TXBWIC22010-32247-33002-20000012D0000158D00000000003300210   GGSL
TXBWIC22010-32247-33020-60000310D0012551D000750000033020     GGSL
TXBWIC22010-32247-34161- 0000027D0001389D000000000034161     GGSL
TXBWIC22010-32247-35594-00000550D0003407D000250000073559430  GGSL
TXBWIC22010-32247-35605-30000630D0012991D000990004044615A    GGSL
TXBWIC22010-32247-37594-80006199D0035147D024160005073759430  GGSL
TXBWIC22010-32247-37610-50000210D0010436D000220001737610A    GGSL
TXBWIC22010-32247-38605-00000011D0000170D000040000038605D    GGSL
TXBWIC22010-32247-39594-60014330D0106534D012370000073959430  GGSL
TXBWIC22010-32247-39605-90002505D0040356D000000000039605     GGSL
TXBWIC22010-32247-39615-80001685D0072023D000240000039615     GGSL
TXBWIC22010-32247-42784-50001601D0004897D001260016874278430  GGSL
TXBWIC22010-32247-43854-40000004D0000036D00000000004385404   GGSL
TXBWIC22010-32247-43860-50000292D0004938D00004000084386004   GGSL
TXBWIC22010-32247-44701-00000027D0000590D000000000044701     GGSL
TXBWIC22010-32247-45651-70000540D0004741D002670006045651300  GGSL
TXBWIC22010-32247-47783-30000366D0001141D001020009074778300  GGSL
TXBWIC22010-32247-49013-90000035D0000770D000000000049013     GGSL
TXBWIC22010-32247-49019-10000136D0001509D000090001749019     GGSL
TXBWIC22010-32247-49023-80000006D0000052D000000000049023     GGSL
TXBWIC22010-32247-49024-50000185D0002441D000830000049024     GGSL
TXBWIC22010-32247-49785-50001884D0005989D006540015674978500  GGSL
TXBWIC22010-32247-50089-00000016D0000339D00008000005008910   GGSL
TXBWIC22010-32247-50154-50000200D0001274D000560000045015430  GGSL
TXBWIC22010-32247-50524-60025186D0161372D040620090275052430  GGSL
TXBWIC22010-32247-51062-20000024D0000169D000060000051062     GGSL
TXBWIC22010-32247-51105-60005258D0061821D002670001251105     GGSL
TXBWIC22010-32247-51115-50005255D0173491D001590000051115     GGSL
TXBWIC22010-32247-52524-40000148D0001322D000060000085252430  GGSL
TXBWIC22010-32247-52784-20001140D0003468D006180011485278430  GGSL
TXBWIC22010-32247-53105-40004857D0041986D000840010053105     GGSL
TXBWIC22010-32247-53115-30004564D0106507D001020000053115     GGSL
TXBWIC22010-32247-54105-30000036D0000174D00000000005410510   GGSL
TXBWIC22010-32247-55513-50004759D0036579D021880042375551301  GGSL
TXBWIC22010-32247-55523-40010363D0122462D018330018575552301  GGSL
TXBWIC22010-32247-55783-20001534D0007744D014410010275578300  GGSL
TXBWIC22010-32247-55863-10000094D0000590D005910000075586300  GGSL
TXBWIC22010-32247-56063-40000088D0000345D002240000045606300  GGSL
TXBWIC22010-32247-56163-10000091D0000580D000000000045616300  GGSL
TXBWIC22010-32247-56513-40045488D0303017D042990122875651301  GGSL
TXBWIC22010-32247-56523-30104356D1075782D043000161175652301  GGSL
TXBWIC22010-32247-56783-10000049D0020466D000040000075678309  GGSL
TXBWIC22010-32247-56788-60009420D0033336D042300021075678300  GGSL
TXBWIC22010-32247-56863-00001638D0009721D016240008075686301  GGSL
TXBWIC22010-32247-57905-60001000D0010550D000000000057905     GGSL
TXBWIC22010-32247-60594-60002000D0012662D010900000076059430  GGSL
TXBWIC22010-32247-71060-20002335D0027012D010210012071060     GGSL
TXBWIC22010-32247-71131-90000571D0011019D002690004071131     GGSL
TXBWIC22010-32247-74150-70005190D0022645D0173401458274150    GGSL
TXBWIC22010-32247-74250-40005667D0039786D0264801260274250    GGSL
TXBWIC22010-32247-74395-20000300D0002262D000690000043959430  GGSL
TXBWIC22010-32247-74850-60001680D0026362D0076400516274850    GGSL
TXBWIC22010-32247-75902-10000264D0019100D000930000075902     GGSL
TXBWIC22010-32247-76121-50001458D0046337D004210007876121     GGSL
TXBWIC22010-32247-76232-80000633D0034686D001020000076232     GGSL
TXBWIC22010-32247-76565-70000102D0005097D000000000076565     GGSL
TXBWIC22010-32247-77160-30001692D0007703D0155201212277160    GGSL
TXBWIC22010-32247-77260-00003517D0029505D0280201218277260    GGSL
TXBWIC22010-32247-77960-90000800D0014844D0067200268277960    GGSL
TXBWIC22010-32247-95517-10001140D0004313D002230000079551750  GGSL
TXBWIC22010-32247-95597-30000048D0000219D000000000079559750  GGSL
TXBWIC22010-32247-99605-10001352D0037998D001070001099605     GGSL
TXBWIC22010-32903-00169-30000336D0000447D0014400072SLI06000E3GGSL
TXBWIC22010-32903-00191-40000048D0000270D0000000000gab12000e2GGSL
TXBWIC22010-32903-00193-80000018D0000377D0000000000TEA17000G2GGSL
TXBWIC22010-32903-00203-40000006D0000581D0000400000TEA30000G2GGSL
TXBWIC22010-32903-00264-50000024D0000039D0000000000SLI08000E2GGSL
TXBWIC22010-32903-00293-50000024D0000055D0000000000SLI10000E2GGSL
TXBWIC22010-32903-00309-30000024D0000061D0000000024SLI10000E3GGSL
TXBWIC22010-32903-00341-30000150D0001371D0006000030SLI24000E3GGSL
TXBWIC22010-32903-00359-80000384D0000670D0048000048SLI08000E3GGSL
TXBWIC22010-32903-04265-80000012D0000157D0000000000GAB22000E2GGSL
TXBWIC22010-32903-07558-80000024D0000092D0000000000RZ.WC1Q0B9GGSL
TXBWIC22010-32903-12006-60000432D0000825D0045600096LIA06000E3GGSL
TXBWIC22010-32903-12008-00000384D0001124D0084000048LIA08000E3GGSL
TXBWIC22010-32903-12010-30000300D0001332D0036000096LIA10000E3GGSL
TXBWIC22010-32903-12012-70000432D0003088D0012000036LIA12000E3GGSL
TXBWIC22010-32903-12014-10000240D0001100D0001200072LIA14000E3GGSL
TXBWIC22010-32903-12017-20000420D0004273D0027600036LIA16000E3GGSL
TXBWIC22010-32903-12020-20000192D0003562D0006000114LIA20000E3GGSL
TXBWIC22010-32903-12024-00000120D0002974D0003000018LIA24000E3GGSL
TXBWIC22010-32903-12324-10000048D0000226D0001800006SVN24000E3GGSL
TXBWIC22010-32903-12714-00000072D0000532D0016800084GAB14000E3GGSL
TXBWIC22010-32903-12718-80000179D0001819D0000000012GAB18000E3GGSL
TXBWIC22010-32903-12722-50000330D0004639D0000600162GAB22000E3GGSL
TXBWIC22010-32903-12818-50000138D0001041D0012600006VNP18000E3GGSL
TXBWIC22010-32903-12824-60000048D0000308D0001800006VNP24000E3GGSL
TXBWIC22010-32903-23732-00000006D0000043D0000000000SLI20000E2GGSL
TXBWIC22010-32903-41842-20000006D0000060D0000000000VNP30000A3GGSL
TXBWIC22010-32903-45342-30000006D0000047D0000000000VNP24000A3GGSL
TXBWIC22010-32903-50763-80000360D0001483D0022800084SLI12000E3GGSL
TXBWIC22010-32903-50802-40000336D0001443D0036000084SLI14000E3GGSL
TXBWIC22010-32903-55269-00000002D0000161D0000000008TEA30000E3GGSL
TXBWIC22010-32903-72518-60000248D0002452D0002400096RZ.WC2G0B9GGSL
TXBWIC22010-32903-72886-60000018D0000120D0000000060RZ.WC1G0B9GGSL
TXBWIC22010-32903-75049-20000126D0000908D0001800048SLI20000E3GGSL
TXBWIC22010-32903-75076-80000016D0001340D0000000000TES24000G2GGSL
TXBWIC22010-32903-75080-50000264D0001254D0039600048SLI17000E3GGSL
TXBWIC22010-32903-91319-40000030D0000523D0000000000TEA17000G1GGSL
TXBWIC22010-32903-91320-00000032D0000988D0000000000TEA20000G1GGSL
TXBWIC22010-32903-91322-40000030D0002417D0000000000TEA30000G1GGSL
TXBWIC22010-32903-91484-90000005D0000067D0000000000SPX24DB0E3GGSL
TXBWIC22010-32903-91517-40000024D0000165D0000000000PPF10001Y2GGSL
TXBWIC22010-33349-03110-70001813D0002281D0007401591JP310     GGSL
TXBWIC22010-33349-05082-50000032D0000091D0000000000JP506     GGSL
TXBWIC22010-33349-05618-60000056D0000279D0000000024G310      GGSL
TXBWIC22010-33349-41211-10000484D0000467D0000000088JP212     GGSL
TXBWIC22010-33349-41214-20000032D0000060D0000000016JP226     GGSL
TXBWIC22010-33349-41221-00000050D0000089D0000000000TDOME     GGSL
TXBWIC22010-33349-41234-00000350D0000535D0000000000TTRAY     GGSL
TXBWIC22010-33349-41251-70000450D0001185D0006000030JS50      GGSL
TXBWIC22010-33349-41254-80000560D0001340D0000000500JS32      GGSL
TXBWIC22010-33349-41444-30000336D0000709D0000000056JP406     GGSL
TXBWIC22010-33349-41702-80000009D0001062D0000000001J4BULK    GGSL
TXBWIC22010-33349-65069-50000001D0000158D0000000000JP3POTS-14GGSL
TXBWIC22010-33349-66009-30000014D0000076D0000000000T72HST-14 GGSL
TXBWIC22010-33349-66010-90000072D0000476D0004800008TS50HST-8 GGSL
TXBWIC22010-33349-66015-40000154D0000761D0002800000TS20HST-14GGSL
TXBWIC22010-33349-66037-60000051D0000146D0000000000J312G     GGSL
TXBWIC22010-33349-66038-30000496D0003209D0001600032J336GS    GGSL
TXBWIC22010-33349-66040-60000020D0000179D0000000040J372PROGS GGSL
TXBWIC22010-33349-66041-30000216D0000783D0002400000J3R36G    GGSL
TXBWIC22010-33349-66042-00000032D0000224D0000000000J425GS    GGSL
TXBWIC22010-33349-66044-40000240D0002496D0000000430J636GS    GGSL
TXBWIC22010-33349-66067-30000034D0000093D0000000000J410G     GGSL
TXBWIC22010-33349-66068-00000100D0000907D0000000000J450GS    GGSL
TXBWIC22010-33349-66069-70000029D0000495D0002900000J4REFILL  GGSL
TXBWIC22010-33349-66070-30000288D0001248D0000000252J6R16G    GGSL
TXBWIC22010-33524-43225-50000096D0000807D0039600000MP0020    GGSL
TXBWIC22010-33524-43240-80000512D0006372D0038100100MP0020    GGSL
TXBWIC22010-33607-00001-50000064D0002255D0004000036GBA-1     GGSL
TXBWIC22010-34411-74501-40000006D0000152D0003000000874501-100GGSL
TXBWIC22010-34613-00002-70000886D0011891D0125200777LH002     GGSL
TXBWIC22010-34613-00003-40000787D0010891D0075400479LH003     GGSL
TXBWIC22010-34613-00004-10000455D0006048D0079600614LH004     GGSL
TXBWIC22010-34613-00005-80000001D0000016D0000400006LH005     GGSL
TXBWIC22010-34613-00006-50000777D0010590D0194500604LH006     GGSL
TXBWIC22010-34613-00015-70000024D0000184D0000000084LH015     GGSL
TXBWIC22010-34613-00020-10000006D0000107D0000000000LH020     GGSL
TXBWIC22010-34613-00022-50000016D0000213D0003600002LH022     GGSL
TXBWIC22010-34613-00025-60000018D0000288D0000000018LH025     GGSL
TXBWIC22010-34613-00029-40000010D0000142D00006000208205      GGSL
TXBWIC22010-34613-00060-70000009D0000621D0002800017TP60      GGSL
TXBWIC22010-34613-00068-30000006D0000073D000240003068WP      GGSL
TXBWIC22010-34613-00337-00000036D0000087D0000000036337       GGSL
TXBWIC22010-34613-00446-90000012D0000029D0000000024446       GGSL
TXBWIC22010-34613-00451-30000024D0000058D0000000048451       GGSL
TXBWIC22010-34613-00453-70000001D0000062D0000000005453       GGSL
TXBWIC22010-34613-00455-10000048D0000176D0000000000455       GGSL
TXBWIC22010-34613-00540-40000023D0000107D00024001105-40HD    GGSL
TXBWIC22010-34613-00550-30000036D0000087D0000000084550BL     GGSL
TXBWIC22010-34613-00551-00000024D0000058D0000000036551BL     GGSL
TXBWIC22010-34613-00552-70000060D0000146D0000000156552BL     GGSL
TXBWIC22010-34613-00553-40000096D0000234D0000000216553bl     GGSL
TXBWIC22010-34613-00555-80000024D0000058D0000000060555BL     GGSL
TXBWIC22010-34613-00640-10000042D0000219D00002001126-40HD    GGSL
TXBWIC22010-34613-00805-40000148D0001003D0001400059SS5       GGSL
TXBWIC22010-34613-01150-40000340D0000865D00120012401150PDQ   GGSL
TXBWIC22010-34613-01161-00000144D0000480D00036003721161PDQ   GGSL
TXBWIC22010-34613-01182-50000120D0000216D00000000481182      GGSL
TXBWIC22010-34613-01503-50000048D0000074D00000000361503      GGSL
TXBWIC22010-34613-01505-90000012D0000018D00000000241505      GGSL
TXBWIC22010-34613-01904-30000024D0000118D00024000241904      GGSL
TXBWIC22010-34613-01908-10000012D0000059D00000000361908      GGSL
TXBWIC22010-34613-03012-30000006D0000068D00000000003012      GGSL
TXBWIC22010-34613-03104-50000012D0000093D00000000003104BG    GGSL
TXBWIC22010-34613-04803-60000120D0000379D0000000084U4803     GGSL
TXBWIC22010-34613-04856-20000006D0000015D00000000488131BL    GGSL
TXBWIC22010-34613-04857-90000018D0000232D00000000005826BL    GGSL
TXBWIC22010-34613-04859-30000060D0000659D00000000003378BL    GGSL
TXBWIC22010-34613-04864-70000012D0000059D0000000012LH016BL   GGSL
TXBWIC22010-34613-04879-10000054D0000371D00000000004879BL    GGSL
TXBWIC22010-34613-04883-80000072D0000658D00000000364883BL    GGSL
TXBWIC22010-34613-05012-10000024D0000057D00024000005012BL    GGSL
TXBWIC22010-34613-05013-80000024D0000181D00024000005013BL    GGSL
TXBWIC22010-34613-05900-10000018D0000200D00000000005900BL    GGSL
TXBWIC22010-34613-07160-70000012D0000059D00000000367160BL    GGSL
TXBWIC22010-34613-07835-40000012D0000073D00006000362110BL    GGSL
TXBWIC22010-34613-08131-60000012D0000029D00000000008131      GGSL
TXBWIC22010-34613-09164-30000004D0000076D00032000009164      GGSL
TXBWIC22010-34613-09500-90000002D0000084D00000000009500      GGSL
TXBWIC22010-34613-09509-20000012D0000041D00000000009509      GGSL
TXBWIC22010-34613-09570-20000144D0001335D00000000489570      GGSL
TXBWIC22010-34613-09600-60000003D0000165D00000000009600      GGSL
TXBWIC22010-34613-12060-20000012D0000102D00000000362060N     GGSL
TXBWIC22010-34613-18050-70000012D0000069D00000000128050BL    GGSL
TXBWIC22010-34613-34009-30000012D0000140D00000000242130BG    GGSL
TXBWIC22010-34613-70052-10000882D0011207D000180263470052     GGSL
TXBWIC22010-34613-70694-30000024D0000337D000000000070694BL   GGSL
TXBWIC22010-34613-70734-60000024D0000203D000000000070734BL   GGSL
TXBWIC22010-34613-70740-70000012D0000059D000000000670740BL   GGSL
TXBWIC22010-34613-71086-50000043D0000329D0000100028LH015BL   GGSL
TXBWIC22010-34613-95006-30000015D0000240D000000012095006     GGSL
TXBWIC22010-34613-96006-20000078D0000741D000000007896006     GGSL
TXBWIC22010-35307-00402-40000012D0000042D0000000012402       GGSL
TXBWIC22010-35307-00803-90000024D0000042D0000000036803       GGSL
TXBWIC22010-35307-00812-10000012D0000028D0000000024812       GGSL
TXBWIC22010-35307-00817-60000060D0000139D0000000012817       GGSL
TXBWIC22010-35307-00818-30000024D0000042D0000000060818       GGSL
TXBWIC22010-35307-00819-00000012D0000023D0000000084819       GGSL
TXBWIC22010-35307-00820-60000228D0000335D0001200408820       GGSL
TXBWIC22010-35307-00826-80000324D0000557D0000000360826       GGSL
TXBWIC22010-35307-00828-20000024D0000056D0000000036828       GGSL
TXBWIC22010-35307-00834-30000036D0000106D0000000012834       GGSL
TXBWIC22010-35307-00835-00000012D0000068D0002400012835       GGSL
TXBWIC22010-35307-00839-80000012D0000037D0000000060839       GGSL
TXBWIC22010-35307-00840-40000012D0000028D0000000036840       GGSL
TXBWIC22010-35307-00841-10000024D0000042D0000000036841       GGSL
TXBWIC22010-35307-00843-50000024D0000070D0000000036843       GGSL
TXBWIC22010-35307-00844-20000132D0000311D0003600024844       GGSL
TXBWIC22010-35307-00845-90000048D0000188D0000000024845       GGSL
TXBWIC22010-35307-00846-30000132D0000410D0001200060846       GGSL
TXBWIC22010-35307-00848-00000060D0000131D0001200048848       GGSL
TXBWIC22010-35307-00857-20000036D0000192D0000000012857       GGSL
TXBWIC22010-35307-00859-60000012D0000037D0000000012859       GGSL
TXBWIC22010-35307-00861-90000180D0000473D0006000228861       GGSL
TXBWIC22010-35307-00862-60000012D0000043D0000000024862       GGSL
TXBWIC22010-35307-00864-00000024D0000092D0000000036864       GGSL
TXBWIC22010-35307-00869-50000024D0000212D0000000036869       GGSL
TXBWIC22010-35307-00874-90000552D0000799D0007200648874       GGSL
TXBWIC22010-35307-00877-00000012D0000017D0000000012877       GGSL
TXBWIC22010-35307-00878-70000024D0000049D0000000000878       GGSL
TXBWIC22010-35307-00916-60000001D0000057D0000000001916       GGSL
TXBWIC22010-35307-00979-10000144D0000168D0000000000979       GGSL
TXBWIC22010-35307-00980-70000048D0000075D0000000000980       GGSL
TXBWIC22010-35307-00985-20000002D0000114D0000000000985       GGSL
TXBWIC22010-35307-01020-90000048D0000060D00000000001020      GGSL
TXBWIC22010-35307-01025-40000024D0000037D00000000001025      GGSL
TXBWIC22010-35307-01030-80000024D0000048D00000000241030      GGSL
TXBWIC22010-35307-01035-30000024D0000072D00000000001035      GGSL
TXBWIC22010-35307-01040-70000048D0000142D00000000241040      GGSL
TXBWIC22010-35307-01601-00000078D0001059D00036000541601      GGSL
TXBWIC22010-35307-01605-80000006D0000149D00000000001605      GGSL
TXBWIC22010-35307-01612-60000312D0001228D00168003361612      GGSL
TXBWIC22010-35307-01618-80000006D0000037D00048000001618      GGSL
TXBWIC22010-35307-01630-00000006D0000043D00000000061630      GGSL
TXBWIC22010-35307-01635-50000012D0000196D00032000181635      GGSL
TXBWIC22010-35307-01638-60000018D0000087D00000000001638      GGSL
TXBWIC22010-35307-01640-90000001D0000041D00000000001640      GGSL
TXBWIC22010-35307-01810-60000404D0002107D00078000381810      GGSL
TXBWIC22010-35307-01815-10000098D0000713D00057000401815      GGSL
TXBWIC22010-35307-01817-50000030D0000250D00000000301817-6    GGSL
TXBWIC22010-35307-01818-20000006D0000066D00000000121818-6    GGSL
TXBWIC22010-35307-01820-50000043D0000558D00010000481820      GGSL
TXBWIC22010-35307-01825-00000289D0002628D00043006481825      GGSL
TXBWIC22010-35307-01840-30000036D0000592D00012000001840      GGSL
TXBWIC22010-35307-01845-80000024D0000298D00000000001845      GGSL
TXBWIC22010-35307-01860-10000001D0000108D00000000001860      GGSL
TXBWIC22010-35307-90858-20000012D0000067D0000000012858       GGSL
TXBWIC22010-35307-90872-80000012D0000039D0000000012872       GGSL
TXBWIC22010-35355-00000-00000004D0001048D00001000044960BLD   GGSL
TXBWIC22010-35355-00072-60000060D0000800D0019200126TP72      GGSL
TXBWIC22010-35355-00325-30000095D0000433D0025600176325       GGSL
TXBWIC22010-35355-00342-00000048D0000118D0000000024342       GGSL
TXBWIC22010-35355-00802-90000069D0000471D0000000097SS2       GGSL
TXBWIC22010-35355-00803-60000074D0000558D0001300108SS3       GGSL
TXBWIC22010-35355-00804-30000124D0000783D0002500050SS4       GGSL
TXBWIC22010-35355-00806-70000102D0001077D0000500047SS6       GGSL
TXBWIC22010-35355-00807-40000008D0000453D0000100003SS7-HD    GGSL
TXBWIC22010-35355-00808-10000001D0000061D0000000002SS8-HD    GGSL
TXBWIC22010-35355-00924-80000225D0002609D0013200275924       GGSL
TXBWIC22010-35355-01151-70000190D0000924D00000001701151PDQ   GGSL
TXBWIC22010-35355-01160-90000220D0000588D00000004401160      GGSL
TXBWIC22010-35355-03108-90000078D0000667D00000000843108      GGSL
TXBWIC22010-35355-05945-80001536D0026610D00168009185945      GGSL
TXBWIC22010-35355-94006-00000048D0000304D000000000694006     GGSL
TXBWIC22010-36348-00610-70000204D0001025D00336000060610      GGSL
TXBWIC22010-36348-00645-90000023D0000318D0023600016645       GGSL
TXBWIC22010-36348-00745-60000012D0000306D00021000030745      GGSL
TXBWIC22010-36348-01078-40000013D0000471D00020000101078      GGSL
TXBWIC22010-36348-01079-10000023D0001224D00088000191079      GGSL
TXBWIC22010-36348-01084-50000002D0000104D00000000121084      GGSL
TXBWIC22010-36348-01085-20000013D0000742D00000000001085      GGSL
TXBWIC22010-36348-03142-00000001D0000344D00000000003142-DS   GGSL
TXBWIC22010-36434-00000-00000296D0008615D007440011210-12420  GGSL
TXBWIC22010-36434-07020-00000006D0000099D00000000001017020   GGSL
TXBWIC22010-36434-10000-00000012D0000121D001560001210-14510  GGSL
TXBWIC22010-36434-10000-90000012D0000286D00000000001010000   GGSL
TXBWIC22010-36434-11000-80000270D0002746D009020004260-11000  GGSL
TXBWIC22010-36434-12012-00000036D0000364D000000000010-12012  GGSL
TXBWIC22010-36434-12340-40000042D0000089D00000000306012340   GGSL
TXBWIC22010-36434-12342-80000128D0000786D005140003860-12342  GGSL
TXBWIC22010-36434-12343-50000020D0000181D002580000360-12343  GGSL
TXBWIC22010-36434-12344-20000012D0000098D000180000060-12344  GGSL
TXBWIC22010-36434-12345-90000504D0004799D002890019210-12345  GGSL
TXBWIC22010-36434-12346-60000298D0001416D013760006560-12346  GGSL
TXBWIC22010-36434-12348-00000008D0000072D000160002410-12348  GGSL
TXBWIC22010-36434-12349-70000038D0000152D001920001260-12349  GGSL
TXBWIC22010-36434-12350-30000012D0000072D000060000060 12350  GGSL
TXBWIC22010-36434-12351-00000012D0000052D00000000186012351   GGSL
TXBWIC22010-36434-12353-40000182D0003210D009380002160-12353  GGSL
TXBWIC22010-36434-12354-10000020D0000140D001680001910-12354  GGSL
TXBWIC22010-36434-12355-80000170D0001248D003250004610-12355  GGSL
TXBWIC22010-36434-12356-50000149D0001247D004240005910-12356  GGSL
TXBWIC22010-36434-12357-20000050D0000438D002650000010-12357  GGSL
TXBWIC22010-36434-12358-90000006D0000073D00000000001012358   GGSL
TXBWIC22010-36434-12362-60000020D0000151D000000000010-12362  GGSL
TXBWIC22010-36434-12367-10005483C0000151C00696000001012367   GGSL
TXBWIC22010-36434-12380-00000012D0000134D000000000660-12380  GGSL
TXBWIC22010-36434-12430-40000018D0000324D00000000126012430   GGSL
TXBWIC22010-36434-12440-30000042D0000412D00000000186012440   GGSL
TXBWIC22010-36434-12450-20000006D0000090D00000000006012450   GGSL
TXBWIC22010-36434-12625-20000012D0000074D000000003660-12625  GGSL
TXBWIC22010-36434-12700-60000420D0003080D001200049210-12700  GGSL
TXBWIC22010-36434-12710-50000036D0000253D001920002410-12710  GGSL
TXBWIC22010-36434-12720-40000036D0000228D002280014410-12720  GGSL
TXBWIC22010-36434-12730-00000012D0000122D000000000010-12730  GGSL
TXBWIC22010-36434-12817-10000001D0000195D000000000062025     GGSL
TXBWIC22010-36434-13600-50000360D0006276D000840007210-13600  GGSL
TXBWIC22010-36434-13610-20000330D0004742D001080009610-13610  GGSL
TXBWIC22010-36434-14800-80000120D0002066D001920015610-14800  GGSL
TXBWIC22010-36434-14860-20000096D0001322D000360008410-14860  GGSL
TXBWIC22010-36434-15050-90000059D0000951D002580001210-15050  GGSL
TXBWIC22010-36434-15080-30000048D0000985D000600001210-15080  GGSL
TXBWIC22010-36434-15105-60000037D0001472D000530000215105     GGSL
TXBWIC22010-36434-17000-20000630D0026238D00000002161017000   GGSL
TXBWIC22010-36434-17004-00000024D0000999D00000000001017004   GGSL
TXBWIC22010-36434-17010-10000018D0000415D000000001210-17010  GGSL
TXBWIC22010-36434-17051-40000036D0000461D000000001210 17051  GGSL
TXBWIC22010-36434-17061-30000020D0000128D00150000001017061   GGSL
TXBWIC22010-36434-18033-90000012D0000134D000000000010 28033  GGSL
TXBWIC22010-36434-18037-70000024D0000196D00000000121028037   GGSL
TXBWIC22010-36434-22310-40000036D0000198D00012000066022310   GGSL
TXBWIC22010-36434-22311-10000006D0000033D00000000006022311   GGSL
TXBWIC22010-36434-22312-80000006D0000054D00000000006022312   GGSL
TXBWIC22010-36434-22316-60000030D0000221D00000000006022316   GGSL
TXBWIC22010-36434-22317-30000024D0000177D00000000006022317   GGSL
TXBWIC22010-36434-22318-00000138D0000626D012290003560-22318  GGSL
TXBWIC22010-36434-22341-80000024D0000242D000720000010-22341  GGSL
TXBWIC22010-36434-22373-90000006D0000090D00000000606022373   GGSL
TXBWIC22010-36434-22626-60000051D0000623D004780010960-22626  GGSL
TXBWIC22010-36434-22729-40000012D0000151D000000000060-22729  GGSL
TXBWIC22010-36434-22731-70000062D0000638D002810003360-22731  GGSL
TXBWIC22010-36434-22732-40000045D0000594D006070003860-22732  GGSL
TXBWIC22010-36434-28010-70000516D0003700D002880048010-28010  GGSL
TXBWIC22010-36434-32700-00000317D0002549D047920034810-32700  GGSL
TXBWIC22010-36434-34500-10000264D0002409D005520051610-34500  GGSL
TXBWIC22010-36434-60123-00000072D0088497D000000001660123     GGSL
TXBWIC22010-36434-60130-80000002D0003274D000000000060130     GGSL
TXBWIC22010-36434-60132-20000001D0001494D000000000060132     GGSL
TXBWIC22010-36434-60133-90000001D0001532D000000000460133     GGSL
TXBWIC22010-36434-62020-00000015D0002521D000000000062020     GGSL
TXBWIC22010-36434-65095-50000054D0063511D000000002865095     GGSL
TXBWIC22010-36434-82342-70000036D0000488D002400000060-82342  GGSL
TXBWIC22010-36865-12250-20007380D0014020D034800066071140180  GGSL
TXBWIC22010-36865-14511-20001860D0003793D000000066071451180  GGSL
TXBWIC22010-36865-24511-90000420D0001531D022200018072451180  GGSL
TXBWIC22010-36865-71751-70000240D0000461D000000000071751180  GGSL
TXBWIC22010-37320-89407- 0000024D0000198D00000000008940      GGSL
TXBWIC22010-37321-00020-40000036D0000327D0000000060020       GGSL
TXBWIC22010-37321-00022-80001278C0000327C0093800036022       GGSL
TXBWIC22010-37321-00023-50000112D0002043D0000000244023       GGSL
TXBWIC22010-37321-00024-20000528D0007315D0076000390024       GGSL
TXBWIC22010-37321-00025-90000072D0000590D0000000048025       GGSL
TXBWIC22010-37321-00026-60000576D0007444D0073200822026       GGSL
TXBWIC22010-37321-00050-10000048D0000045D0002400216050       GGSL
TXBWIC22010-37321-00051-80000024D0000268D0000000048051       GGSL
TXBWIC22010-37321-00065-50000060D0000287D0000000012065       GGSL
TXBWIC22010-37321-00066-20000036D0000397D0000000036066       GGSL
TXBWIC22010-37321-00068-60000258D0001228D0018700378068       GGSL
TXBWIC22010-37321-00069-30000369D0004494D0061500516069       GGSL
TXBWIC22010-37321-00070-90000282D0003836D0037500468070       GGSL
TXBWIC22010-37321-00081-50000024D0000154D0000000228081       GGSL
TXBWIC22010-37321-00097-60000072D0000352D0001200036097       GGSL
TXBWIC22010-37321-00098-30000015D0000065D0000000000098       GGSL
TXBWIC22010-37321-00099-00000204D0001348D0000000048099       GGSL
TXBWIC22010-37321-00105-80000336D0000891D0034800564105       GGSL
TXBWIC22010-37321-00106-50000420D0001148D0020400588106       GGSL
TXBWIC22010-37321-00107-20000588D0001585D0027600636107       GGSL
TXBWIC22010-37321-00108-90000900D0002564D0062400912108       GGSL
TXBWIC22010-37321-00110-20000192D0000618D0000000040110       GGSL
TXBWIC22010-37321-00112-60000112D0000336D0000000048112       GGSL
TXBWIC22010-37321-00114-00000216D0000667D0000000016114       GGSL
TXBWIC22010-37321-00116-40000224D0000698D0000000024116       GGSL
TXBWIC22010-37321-00120-10000192D0001044D0000000072120       GGSL
TXBWIC22010-37321-00121-80000056D0000617D0000000184121       GGSL
TXBWIC22010-37321-00123-20000231D0000888D0253800120123       GGSL
TXBWIC22010-37321-00127-00000282D0002174D0008100513127       GGSL
TXBWIC22010-37321-00141-60000072D0000314D0036000204141       GGSL
TXBWIC22010-37321-00148-50000312D0002740D0000000780148       GGSL
TXBWIC22010-37321-00150-80000414D0006346D0191101416150       GGSL
TXBWIC22010-37321-00166-90000075D0000422D0018900192166       GGSL
TXBWIC22010-37321-00167-60000042D0000245D00000000241676      GGSL
TXBWIC22010-37321-00171-30000096D0000839D0000000060171       GGSL
TXBWIC22010-37321-00196-60000060D0000320D0000000072196       GGSL
TXBWIC22010-37321-00197-30000048D0000262D0000000096197       GGSL
TXBWIC22010-37321-00198-00000036D0000366D0000000024198       GGSL
TXBWIC22010-37321-00202-40000294D0002860D0024100468202       GGSL
TXBWIC22010-37321-00203-10000138D0001916D0039300180203       GGSL
TXBWIC22010-37321-00210-90000225D0001319D0029200078210       GGSL
TXBWIC22010-37321-00211-60000093D0000757D0050100420211       GGSL
TXBWIC22010-37321-00213-00000270D0002691D0037800144213       GGSL
TXBWIC22010-37321-00214-70000528D0002670D0045600132214       GGSL
TXBWIC22010-37321-00216-10000120D0001848D0008400444216       GGSL
TXBWIC22010-37321-00217-80000060D0000584D0000000048217       GGSL
TXBWIC22010-37321-00218-50000006D0000083D00000000062186      GGSL
TXBWIC22010-37321-00221-50000012D0000060D0000000036221       GGSL
TXBWIC22010-37321-00225-30000204D0001061D0000000012225       GGSL
TXBWIC22010-37321-00227-70000012D0000134D0000000060227       GGSL
TXBWIC22010-37321-00230-70000018D0000145D00000000242306      GGSL
TXBWIC22010-37321-00238-30000456D0003583D0009600576238       GGSL
TXBWIC22010-37321-00239-00000028D0000594D0000000000239       GGSL
TXBWIC22010-37321-00240-60000012D0000190D00000000122406      GGSL
TXBWIC22010-37321-00250-50000861D0004089D0027901212250       GGSL
TXBWIC22010-37321-00252-90000312D0003417D0037100348252       GGSL
TXBWIC22010-37321-00253-60000252D0004532D0007500309253       GGSL
TXBWIC22010-37321-00255-00000408D0008008D0066600432255       GGSL
TXBWIC22010-37321-00257-40000222D0000799D0031200468257       GGSL
TXBWIC22010-37321-00258-10000006D0000037D00000000242586      GGSL
TXBWIC22010-37321-00272-70000030D0000123D00000000182726      GGSL
TXBWIC22010-37321-00274-10000489D0002820D0048000816274       GGSL
TXBWIC22010-37321-00276-50000084D0001046D0000000024276       GGSL
TXBWIC22010-37321-00285-70000096D0000506D0000000036285       GGSL
TXBWIC22010-37321-00299-40000012D0000091D0000000036299       GGSL
TXBWIC22010-37321-00307-60000492D0002047D0047400780307       GGSL
TXBWIC22010-37321-00309-00000252D0003960D0035100060309       GGSL
TXBWIC22010-37321-00310-50000096D0002659D0000000012310       GGSL
TXBWIC22010-37321-00311-30000012D0000340D0000000006311       GGSL
TXBWIC22010-37321-00312-00000036D0000657D0000000060312       GGSL
TXBWIC22010-37321-00330-40000198D0001716D0017100180330       GGSL
TXBWIC22010-37321-00331-10000096D0001355D0031500102331       GGSL
TXBWIC22010-37321-00332-80000020D0000931D0000000008332       GGSL
TXBWIC22010-37321-00363-20000012D0000050D0000000000363       GGSL
TXBWIC22010-37321-00370-00000036D0000150D0000000012370       GGSL
TXBWIC22010-37321-00371-70000042D0000226D00000000183716      GGSL
TXBWIC22010-37321-00376-20000012D0000223D0010800000376       GGSL
TXBWIC22010-37321-00377-90000024D0000620D0013200000377       GGSL
TXBWIC22010-37321-00411-00000216D0000692D0000000060411       GGSL
TXBWIC22010-37321-00412-70000264D0001310D0000000036412       GGSL
TXBWIC22010-37321-00413-40000060D0000677D0000000964413       GGSL
TXBWIC22010-37321-00420-20000112D0005860D0012700003420       GGSL
TXBWIC22010-37321-00426-40000786D0007358D0035400264426       GGSL
TXBWIC22010-37321-00428-80000960D0003462D0041700804428       GGSL
TXBWIC22010-37321-00429-50000051D0000877D0002700066429       GGSL
TXBWIC22010-37321-00442-40000441D0002612D0011100156442       GGSL
TXBWIC22010-37321-00443-10000108D0001130D0014800096443       GGSL
TXBWIC22010-37321-00506-30000156D0000643D00306003905066      GGSL
TXBWIC22010-37321-00543-80000168D0000514D00366000305436      GGSL
TXBWIC22010-37321-00544-50000132D0000739D00108000605446      GGSL
TXBWIC22010-37321-00549-00000036D0000302D0018000000549       GGSL
TXBWIC22010-37321-00552-00000036D0000556D0007800024552       GGSL
TXBWIC22010-37321-00553-70000054D0001586D0015000006553       GGSL
TXBWIC22010-37321-00564-30000210D0002006D00354006425646      GGSL
TXBWIC22010-37321-00568-10000012D0000252D0015600000568       GGSL
TXBWIC22010-37321-00571-10000255D0002039D0015000012571       GGSL
TXBWIC22010-37321-00573-50000429D0000989D0010800039573       GGSL
TXBWIC22010-37321-00577-30000128D0001250D0000000068574       GGSL
TXBWIC22010-37321-00578-00000060D0000649D0000000000578       GGSL
TXBWIC22010-37321-00609-10000084D0000831D0000300024609       GGSL
TXBWIC22010-37321-00611-40000152D0003083D0044000064611       GGSL
TXBWIC22010-37321-00612-10000048D0000229D00000000000612      GGSL
TXBWIC22010-37321-00622-00000024D0000075D0000000000622       GGSL
TXBWIC22010-37321-00629-90000312D0000989D0038400108629       GGSL
TXBWIC22010-37321-00631-20006901D0018517D1832409012631       GGSL
TXBWIC22010-37321-00652-70000102D0000505D00102000366526      GGSL
TXBWIC22010-37321-00655-80000210D0001272D00369007086556      GGSL
TXBWIC22010-37321-00680-00000180D0001622D0056600258680       GGSL
TXBWIC22010-37321-00685-50000513D0005725D0014700132685       GGSL
TXBWIC22010-37321-00687-90000024D0000286D0000000000687       GGSL
TXBWIC22010-37321-00688-60000060D0000362D00042000006886      GGSL
TXBWIC22010-37321-00690-90000096D0000978D0024000189690       GGSL
TXBWIC22010-37321-00691-60000048D0000390D00208000326914      GGSL
TXBWIC22010-37321-00692-30000763D0007994D0129500531692150    GGSL
TXBWIC22010-37321-00697-80000084D0000319D0000000000697       GGSL
TXBWIC22010-37321-00698-50000060D0000291D0003600000698       GGSL
TXBWIC22010-37321-00705-00000012D0000070D0000000012705       GGSL
TXBWIC22010-37321-00728-90000168D0002126D0000000012728       GGSL
TXBWIC22010-37321-00752-40000024D0000166D0006000006752       GGSL
TXBWIC22010-37321-00757-90000036D0000144D0000000006757       GGSL
TXBWIC22010-37321-00758-60000036D0000284D0000000008758       GGSL
TXBWIC22010-37321-00759-30000009D0000128D0000000000759       GGSL
TXBWIC22010-37321-00771-50000132D0000637D0011400111771       GGSL
TXBWIC22010-37321-00772-20000024D0000202D0000000012772       GGSL
TXBWIC22010-37321-00775-30000756D0004106D0075000852775       GGSL
TXBWIC22010-37321-00777-70000114D0001105D0011700096777       GGSL
TXBWIC22010-37321-00779-10000219D0001723D0029400276779       GGSL
TXBWIC22010-37321-00784-50000168D0000469D0039600012784       GGSL
TXBWIC22010-37321-00786-90001056D0003707D0106201896786       GGSL
TXBWIC22010-37321-00789-00000331D0002167D0086300548791       GGSL
TXBWIC22010-37321-00803-30000132D0001196D00024000128036      GGSL
TXBWIC22010-37321-00811-80000719D0007961D0099100210811       GGSL
TXBWIC22010-37321-00813-20000423D0005501D0021000276813       GGSL
TXBWIC22010-37321-00814-90000072D0001670D0000000036814       GGSL
TXBWIC22010-37321-00857-60000144D0001237D0068400192857       GGSL
TXBWIC22010-37321-00858-30000240D0003289D0000000048858       GGSL
TXBWIC22010-37321-00862-00000189D0002341D0018900180862       GGSL
TXBWIC22010-37321-00863-70000004D0000049D00000000008634      GGSL
TXBWIC22010-37321-00866-80000018D0000151D0000000006865       GGSL
TXBWIC22010-37321-00868-20000048D0000585D0000000000868       GGSL
TXBWIC22010-37321-00870-50000540D0002896D0000000144870       GGSL
TXBWIC22010-37321-00871-20000036D0000316D00045000098719      GGSL
TXBWIC22010-37321-00875-00000165D0001756D0024700051875       GGSL
TXBWIC22010-37321-00876-70000012D0000072D0000000000876       GGSL
TXBWIC22010-37321-00880-40000132D0001587D0036300240880       GGSL
TXBWIC22010-37321-00881-10000024D0000494D0000000060881       GGSL
TXBWIC22010-37321-00883-50000300D0001385D0030900702883       GGSL
TXBWIC22010-37321-00892-70000468D0004421D0010801404892       GGSL
TXBWIC22010-37321-00897-20000036D0000212D0000000036897       GGSL
TXBWIC22010-37321-00903-00000120D0000746D0000000144903       GGSL
TXBWIC22010-37321-00904-70000072D0000606D0000000012904       GGSL
TXBWIC22010-37321-00905-40000048D0000663D0001200012905       GGSL
TXBWIC22010-37321-00908-50000054D0000532D00000000069086      GGSL
TXBWIC22010-37321-00909-20000084D0001727D0000000000909       GGSL
TXBWIC22010-37321-00917-70000012D0000153D0000000000917       GGSL
TXBWIC22010-37321-00925-20001659D0004934D0055601065925       GGSL
TXBWIC22010-37321-00939-90000360D0003838D0063600576939       GGSL
TXBWIC22010-37321-00941-20000972D0009711D0100800507941       GGSL
TXBWIC22010-37321-00946-70000016D0000144D0000400000946       GGSL
TXBWIC22010-37321-00947-40000114D0000905D0000000066947       GGSL
TXBWIC22010-37321-00951-10000816D0003406D0013800924951       GGSL
TXBWIC22010-37321-00952-80000204D0001037D0007800135952       GGSL
TXBWIC22010-37321-00963-40000012D0000100D00000000009636      GGSL
TXBWIC22010-37321-00969-60000012D0000072D0000000012969       GGSL
TXBWIC22010-37321-00978-80000018D0000096D0000000018978       GGSL
TXBWIC22010-37321-00982-50000378D0001608D0006300276982       GGSL
TXBWIC22010-37321-00983-20000006D0000108D0000000012983       GGSL
TXBWIC22010-37321-00986-30000024D0000121D0000000000986       GGSL
TXBWIC22010-37321-00987-00000270D0002379D0064000324987       GGSL
TXBWIC22010-37321-00991-70000036D0000216D0000000000991       GGSL
TXBWIC22010-37321-00992-40000060D0000530D0000000060992       GGSL
TXBWIC22010-37321-01971-80000144D0000612D00000000241971      GGSL
TXBWIC22010-37321-01972-50000024D0000096D00000000121972      GGSL
TXBWIC22010-37321-02021-90000078D0001146D00000000722021      GGSL
TXBWIC22010-37321-02061-50000060D0001016D00000000602061      GGSL
TXBWIC22010-37321-02360-90000150D0001023D001500007223606     GGSL
TXBWIC22010-37321-02361-60000067D0001309D00042003192361      GGSL
TXBWIC22010-37321-02600-60000054D0000648D00000000002600      GGSL
TXBWIC22010-37321-02601-30000174D0003377D00000003302601      GGSL
TXBWIC22010-37321-02602-00000414D0002184D00006004562602      GGSL
TXBWIC22010-37321-02603-70000020D0000211D00000000042603      GGSL
TXBWIC22010-37321-02604-40000159D0002884D00000001712604      GGSL
TXBWIC22010-37321-02608-20000012D0000286D00000000162608      GGSL
TXBWIC22010-37321-02610-50000102D0000598D00000000242610      GGSL
TXBWIC22010-37321-02611-20000114D0001406D00000000362611      GGSL
TXBWIC22010-37321-02612-90000378D0005601D00000004022612      GGSL
TXBWIC22010-37321-02613-60000018D0000162D00000000062613      GGSL
TXBWIC22010-37321-02615-00000018D0000349D00000000152615      GGSL
TXBWIC22010-37321-02761-40000048D0000885D00000000182761      GGSL
TXBWIC22010-37321-05131-20000004D0000010D00000000085131      GGSL
TXBWIC22010-37321-05612-60000432D0004068D00183002805611      GGSL
TXBWIC22010-37321-05710-90000444D0002591D00093001445710      GGSL
TXBWIC22010-37321-05712-30000291D0002878D00060000365712      GGSL
TXBWIC22010-37321-05714-70000244D0007258D00008000325714      GGSL
TXBWIC22010-37321-07458-80000156D0002568D00096000367458      GGSL
TXBWIC22010-37321-08636-90000024D0000278D00000000068636      GGSL
TXBWIC22010-37321-08751-90000013D0000171D00004000008751      GGSL
TXBWIC22010-37321-08752-60000012D0000133D00075000368752      GGSL
TXBWIC22010-37321-09534-70000189D0002064D000120028895349     GGSL
TXBWIC22010-37321-46125-80000060D0000112D000000003046125     GGSL
TXBWIC22010-37321-46126-50003400D0000557D039000090046126     GGSL
TXBWIC22010-37321-46172-20000060D0000249D000000004846172     GGSL
TXBWIC22010-37321-46183-80000027D0000221D0003900000691       GGSL
TXBWIC22010-37321-46190-60000168D0000504D001440009646190     GGSL
TXBWIC22010-37321-46401-30000012D0000075D000000003646401     GGSL
TXBWIC22010-37321-46406-80000128D0000881D003600004046406     GGSL
TXBWIC22010-37321-46540-90000052D0000361D000080000446540     GGSL
TXBWIC22010-37321-46640-60000108D0000591D000000001246640     GGSL
TXBWIC22010-37321-60114-90000005D0000130D000050000060215     GGSL
TXBWIC22010-37321-60201-90000010D0000120D000000000060202     GGSL
TXBWIC22010-37321-60204-00000010D0000254D000000000060205     GGSL
TXBWIC22010-37321-60211-80000010D0000121D000000000060212     GGSL
TXBWIC22010-37321-60221-70000010D0000120D000500005060222     GGSL
TXBWIC22010-37321-60224-80000420D0005740D000020026560225     GGSL
TXBWIC22010-37321-60251-40000010D0000149D000000001060252     GGSL
TXBWIC22010-37321-60254-50000015D0000343D000000000060255     GGSL
TXBWIC22010-37321-60360-30000024D0000273D000510005060362     GGSL
TXBWIC22010-37321-60400-60001611D0021351D000000154960402     GGSL
TXBWIC22010-37321-60407-50000036D0000279D000480000060407     GGSL
TXBWIC22010-37321-60414-30000225D0008350D000360014660415     GGSL
TXBWIC22010-37321-60420-40000258D0003758D000050001060422     GGSL
TXBWIC22010-37321-60424-20000135D0005096D000110004560425     GGSL
TXBWIC22010-37321-60434-10000090D0002736D000000000060435     GGSL
TXBWIC22010-37321-60444-00000047D0001305D000010000060445     GGSL
TXBWIC22010-37321-60464-80000025D0000714D000150000560465     GGSL
TXBWIC22010-37321-60476-10004163D0048770D011620332760478     GGSL
TXBWIC22010-37321-60514-00001065D0011835D019710110160516     GGSL
TXBWIC22010-37321-60613-00000020D0000192D000000001260613     GGSL
TXBWIC22010-37321-61118-90000018D0000182D000000000061120     GGSL
TXBWIC22010-37321-61119-60000012D0000176D000000000661121     GGSL
TXBWIC22010-38313-00000-00000006D0004656D0000000000MR 9161   GGSL
TXBWIC22010-38313-00005-90000050D0001030D0001200018GS 6750D  GGSL
TXBWIC22010-38313-00008-00000134D0002302D0026900216BP 3130   GGSL
TXBWIC22010-38313-00060-80000806D0013920D0098200996BP 3160   GGSL
TXBWIC22010-38313-00080-60000427D0008644D0061300708BP 3180D  GGSL
TXBWIC22010-38313-00081-30000048D0000440D0000000054AC 7220   GGSL
TXBWIC22010-38313-00217-60000035D0000607D0005200006FS 4350   GGSL
TXBWIC22010-38313-00555-90000018D0000228D0000000000GS 3750D  GGSL
TXBWIC22010-38313-00700-30000006D0000155D0000000000UT 70000  GGSL
TXBWIC22010-38313-00830-70000022D0000754D0011300030BP 6250   GGSL
TXBWIC22010-38313-01010-20001788D0008585D0178204824CT 3010I  GGSL
TXBWIC22010-38313-01020-10000882D0004153D0015600312CT 3020I  GGSL
TXBWIC22010-38313-01030-00000912D0004442D0002400132CT 3030I  GGSL
TXBWIC22010-38313-01040-90000018D0000087D0001200000CT 3040I  GGSL
TXBWIC22010-38313-03050-60000018D0000148D0011400018GT 3050   GGSL
TXBWIC22010-38313-03060-50000024D0000195D0012600018GT 3060   GGSL
TXBWIC22010-38313-03080-30000090D0000682D0009600336GT 3080   GGSL
TXBWIC22010-38313-03214-20000144D0001589D0008400096BP 3214D  GGSL
TXBWIC22010-38313-03244-90000126D0002235D0003000186HS 3244   GGSL
TXBWIC22010-38313-03264-40000024D0000412D0059400000SL 3264   GGSL
TXBWIC22010-38313-03334-70000006D0000058D0002400030AP 3334   GGSL
TXBWIC22010-38313-03394-10000006D0000045D0000600018FS 3394   GGSL
TXBWIC22010-38313-03470-20000044D0001242D0002400036FL 3470   GGSL
TXBWIC22010-38313-03634-80000120D0003185D0006900080LG 3634   GGSL
TXBWIC22010-38313-03694-20000003D0000104D0000000000LG 3694   GGSL
TXBWIC22010-38313-03710-90000102D0000646D0100200042CT 3710   GGSL
TXBWIC22010-38313-03720-80000030D0000193D0056400168CT 3720   GGSL
TXBWIC22010-38313-03730-70000018D0000116D0022100006CT 3730   GGSL
TXBWIC22010-38313-03740-60000006D0000039D0000600000CT 3740   GGSL
TXBWIC22010-38313-03750-50000054D0000339D0007800030CT 3750   GGSL
TXBWIC22010-38313-04110-60000156D0002621D0008400156AL 4110   GGSL
TXBWIC22010-38313-04122-90000012D0000117D0013200000FS 4120   GGSL
TXBWIC22010-38313-04930-00001419D0008691D0128501009AG 4930   GGSL
TXBWIC22010-38313-04930-70000673D0005379D0170900144AG 4930SS GGSL
TXBWIC22010-38313-06100-50000006D0000162D0001000000SH 61000  GGSL
TXBWIC22010-38313-06300-90000006D0000178D0000000000SH 63000  GGSL
TXBWIC22010-38313-06500-30000006D0000314D0000000000SH 65000  GGSL
TXBWIC22010-38313-06870-70000002D0000171D0000000000TP 6870   GGSL
TXBWIC22010-38313-06950-60000006D0000298D0000000000AH 6950   GGSL
TXBWIC22010-38313-06970-40000064D0002737D0018400012AH 6970   GGSL
TXBWIC22010-38313-07001-00000004D0000179D0001400000FK 70010  GGSL
TXBWIC22010-38313-07140-00000012D0000390D0000000000HS 7140   GGSL
TXBWIC22010-38313-07545-20000085D0001472D0010800007RS 7245   GGSL
TXBWIC22010-38313-07900-00000012D0000505D0000000012QS 7900   GGSL
TXBWIC22010-38313-08300-00000024D0000154D0006000000AC 8300   GGSL
TXBWIC22010-38313-10000-10000183D0001744D0034700122SS 10000  GGSL
TXBWIC22010-38313-10227-20000057D0004263D0014400000AL 6512   GGSL
TXBWIC22010-38313-11000-00000081D0000785D0019000025SS 11000  GGSL
TXBWIC22010-38313-12400-70000283D0003479D0025400079RK 24003  GGSL
TXBWIC22010-38313-13214-90000306D0002480D0009600294FS 3214D  GGSL
TXBWIC22010-38313-13670-30000006D0000132D0000000030BP 3670   GGSL
TXBWIC22010-38313-14300-80000004D0000162D0001200001BM 43001  GGSL
TXBWIC22010-38313-14314-50000012D0000161D0000000000BP 4314D  GGSL
TXBWIC22010-38313-17100-10000012D0000236D0000000006BP 7100D  GGSL
TXBWIC22010-38313-18180-20000003D0000141D0000000003SL 8180   GGSL
TXBWIC22010-38313-19180-10000003D0000150D0000000000MR 9180   GGSL
TXBWIC22010-38313-20001-50000011D0000262D0004200004PD 20000  GGSL
TXBWIC22010-38313-20002-20000042D0000721D0006900117RK 20002  GGSL
TXBWIC22010-38313-20004-60000093D0001324D0008900120CV 20004  GGSL
TXBWIC22010-38313-20022-00000056D0000999D0009200041RK 20022  GGSL
TXBWIC22010-38313-21000-70000116D0001648D0018400083SH 20000  GGSL
TXBWIC22010-38313-21050-20000618D0002841D0005400246CT 3050I  GGSL
TXBWIC22010-38313-24000-40000052D0000384D0068400018FS 4000   GGSL
TXBWIC22010-38313-25008-90000132D0000643D0001200348RK 25008  GGSL
TXBWIC22010-38313-25017-10000096D0000744D0121200002RK 25017  GGSL
TXBWIC22010-38313-25130-70000012D0000239D0000000000RK 25030  GGSL
TXBWIC22010-38313-26001-90000042D0000563D0000000012SS 26010  GGSL
TXBWIC22010-38313-26020-00000082D0001198D0004300031SS 26020  GGSL
TXBWIC22010-38313-27020-90000062D0000875D0004500012SS 27020  GGSL
TXBWIC22010-38313-28000-00000006D0000111D0004600007SS 28000  GGSL
TXBWIC22010-38313-28010-90000022D0000469D0002000019SS 28010  GGSL
TXBWIC22010-38313-29256-00000022D0000314D0000000006MR 9256C-1GGSL
TXBWIC22010-38313-32341-70000107D0001119D0001100069GT 3234   GGSL
TXBWIC22010-38313-32441-40000100D0001053D0005800114GT 3244   GGSL
TXBWIC22010-38313-32541-10000092D0000920D0000000064GT 3254   GGSL
TXBWIC22010-38313-33140-50000064D0000495D0008200016CT 3314   GGSL
TXBWIC22010-38313-33240-20000056D0000420D0006400048CT 3324   GGSL
TXBWIC22010-38313-33340-90000040D0000322D0004000016CT 3334   GGSL
TXBWIC22010-38313-33440-60000144D0001158D0012000304CT 3344   GGSL
TXBWIC22010-38313-33540-30000048D0000384D0008800016CT 3354   GGSL
TXBWIC22010-38313-33640-00000160D0001434D0013600224CT 3364   GGSL
TXBWIC22010-38313-36041-20000008D0000144D0000000004LG 3604   GGSL
TXBWIC22010-38313-36241-60000099D0002788D0007100049LG 3624   GGSL
TXBWIC22010-38313-36541-70000106D0002291D0000200140LG 3654   GGSL
TXBWIC22010-38313-36841-80000109D0002592D0000000125LG 3684   GGSL
TXBWIC22010-38313-37101-20000010D0000183D0001300009LG 3710   GGSL
TXBWIC22010-38313-37201-90000017D0000304D0005200150LG 3720   GGSL
TXBWIC22010-38313-42003-10000012D0000325D0000000000SS 42011  GGSL
TXBWIC22010-38313-45008-30000003D0000048D0000000000RK 45008  GGSL
TXBWIC22010-38313-53841-50000008D0000441D0002100002TP 3841   GGSL
TXBWIC22010-38313-56200-70000033D0000266D0006100001RK 62000  GGSL
TXBWIC22010-38313-60053-20000002D0000067D0000000001UT 60053  GGSL
TXBWIC22010-38313-60061-70000024D0000615D0000000006SH 60061  GGSL
TXBWIC22010-38313-60062-40000006D0000147D0000000000SH 60060  GGSL
TXBWIC22010-38313-61062-30000030D0001538D0001300008RK 61062  GGSL
TXBWIC22010-38313-62062-20000021D0000852D0009000000BM 62060  GGSL
TXBWIC22010-38313-63760-60000006D0000067D0000000000GS 3760   GGSL
TXBWIC22010-38313-64063-70000002D0000098D0001200009RK 61063  GGSL
TXBWIC22010-38313-64144-30000017D0000317D0001200015SS 64104  GGSL
TXBWIC22010-38313-65000-10000007D0000151D0000300000SS 65000  GGSL
TXBWIC22010-38313-66000-00000002D0000049D0000400000SS 66000  GGSL
TXBWIC22010-38313-68010-70000012D0000617D0000000008SS 68010  GGSL
TXBWIC22010-38313-68231-60000013D0000854D0019900000SS 68231  GGSL
TXBWIC22010-38313-71090-30000002D0000107D0000000002BR 71090  GGSL
TXBWIC22010-38313-72090-20000001D0000041D0000000000BR 72090  GGSL
TXBWIC22010-38313-80000-00000022D0001732D0005000003SF 80000  GGSL
TXBWIC22010-38313-81000-90000095D0000941D0031300026RK 10000  GGSL
TXBWIC22010-38313-82000-80000006D0000126D0000000006FK 42000  GGSL
TXBWIC22010-38313-90000-70000021D0000195D0005200025SH 10000  GGSL
TXBWIC22010-38313-90220-90000002D0000136D0000000004AS 90220  GGSL
TXBWIC22010-38313-90300-80000002D0000151D0000200000AS 90300  GGSL
TXBWIC22010-39044-14636-80000006D0000064D000000000014666     GGSL
TXBWIC22010-39645-11752-10000189D0001032D000660000040200010  GGSL
TXBWIC22010-39996-30292-80000310D0002655D000100000030292     GGSL
TXBWIC22010-39996-30293-50000310D0004836D000200001030293     GGSL
TXBWIC22010-40025-54033-40000013D0000565D0004600000RWS-54033 GGSL
TXBWIC22010-40200-00000- 0000350D0000620D0017500000VBC H11-7 GGSL
TXBWIC22010-40235-75256-50000006D0000113D00038000002.5G30S   GGSL
TXBWIC22010-40279-03300-20000504D0000912D02232004323300      GGSL
TXBWIC22010-40279-03302-60000816D0001741D0139200072          GGSL
TXBWIC22010-41535-24550-40000109D0005060D007400021224550     GGSL
TXBWIC22010-41535-24560-30000475D0077680D015400062624560     GGSL
TXBWIC22010-41535-24571-90001292D0018835D0338601145100518540 GGSL
TXBWIC22010-41700-70000-50000036D0000134D0000000000G108ORG   GGSL
TXBWIC22010-42204-14504-80000001D0000001D00000000002MMC      GGSL
TXBWIC22010-42206-00056-90000036D0000316D000480005456-6      GGSL
TXBWIC22010-42206-00202-00000190D0000257D0047400170202S      GGSL
TXBWIC22010-42206-00202-10000004D0000005D0000500000202S      GGSL
TXBWIC22010-42206-00269-30000144D0000672D0021600012269       GGSL
TXBWIC22010-42206-00336-20000012D0000054D0000000000336-6     GGSL
TXBWIC22010-42206-00345-40000012D0000070D0000000000345-6     GGSL
TXBWIC22010-42206-00395-90000280D0000708D0042800050395S      GGSL
TXBWIC22010-42206-00465-90000020D0000157D0000000000465C      GGSL
TXBWIC22010-42206-00525-00000170D0000437D0020700054525C      GGSL
TXBWIC22010-42206-00702-50000054D0000304D0000000006702-6     GGSL
TXBWIC22010-42206-00872-50000018D0000044D0031200000872-6     GGSL
TXBWIC22010-42206-03010-80000024D0000235D00114000563010-4    GGSL
TXBWIC22010-42206-03112-90000010D0000012D000000001031Z 1/2   GGSL
TXBWIC22010-42206-03158-70000010D0000013D000000001031Z 5/8   GGSL
TXBWIC22010-42206-03900-20000006D0000112D00006000063900H     GGSL
TXBWIC22010-42206-07800-10000042D0000284D00120000067800      GGSL
TXBWIC22010-42206-09000-30000326D0002230D00314000609000      GGSL
TXBWIC22010-42206-09001-00000010D0000049D00000000209001      GGSL
TXBWIC22010-42206-09002-70000020D0000075D00000000009002      GGSL
TXBWIC22010-42206-09003-40000020D0000072D00000000009003      GGSL
TXBWIC22010-42206-09004-10000020D0000072D00000000009004      GGSL
TXBWIC22010-42206-09009-60000040D0000627D00000000059009      GGSL
TXBWIC22010-42206-09620-30000036D0001476D00179000049620-8    GGSL
TXBWIC22010-42206-14057-90000024D0000279D00000000009535C     GGSL
TXBWIC22010-42206-14058-60000132D0000876D00276001689570      GGSL
TXBWIC22010-42206-14121-70000024D0000057D000000000053C       GGSL
TXBWIC22010-42206-14196-50000020D0000030D00000000004125SH    GGSL
TXBWIC22010-42206-14220-70000186D0000867D0035800060312S      GGSL
TXBWIC22010-42206-14221-40000071D0000151D0031500000313S      GGSL
TXBWIC22010-42206-14222-10000072D0001390D0011400006314S      GGSL
TXBWIC22010-42206-14227-60000010D0000033D000000000045C       GGSL
TXBWIC22010-42206-14235-10000022D0000027D0009500038390S      GGSL
TXBWIC22010-42206-14328-00000030D0000019D0000000030200C      GGSL
TXBWIC22010-42206-14390-70000003D0000036D0001200000101       GGSL
TXBWIC22010-42206-14456-00000090D0000169D0028800000420C      GGSL
TXBWIC22010-42206-14501-70000054D0000051D00351000181FMC      GGSL
TXBWIC22010-42206-14502-40000074D0000059D00341000201MMC      GGSL
TXBWIC22010-42206-14503-10000470D0000494D00757000602FMC      GGSL
TXBWIC22010-42206-14504-80000382D0000336D00747000602MMC      GGSL
TXBWIC22010-42206-14505-50000022D0000024D002560000001MC      GGSL
TXBWIC22010-42206-14506-20000258D0000282D003660007002MC      GGSL
TXBWIC22010-42206-14570-30000142D0000885D0021800010ZBR3/4    GGSL
TXBWIC22010-42206-14571-00000217D0000873D0032200040ZBM3/4    GGSL
TXBWIC22010-42206-14572-70000106D0000454D0050500050ZBF3/4    GGSL
TXBWIC22010-42206-15111-70000054D0000394D000380002615111     GGSL
TXBWIC22010-42206-15549-80000007D0000127D000000000015549     GGSL
TXBWIC22010-42206-15565-80000012D0000155D0032400108R551      GGSL
TXBWIC22010-42206-19541-80000008D0000159D0000000000XT9541M   GGSL
TXBWIC22010-42206-20491-20000078D0000427D003410001020491-10  GGSL
TXBWIC22010-42206-21701-10000040D0000140D000000001021701R    GGSL
TXBWIC22010-42206-22261-90000006D0000061D004440015022261     GGSL
TXBWIC22010-42206-22300-50000024D0000310D000240004222300     GGSL
TXBWIC22010-42206-22701-00000070D0000245D001660000022701C    GGSL
TXBWIC22010-42206-23701-90000070D0000249D000170001023701S    GGSL
TXBWIC22010-42206-30201-40000004D0000303D0000200003XT201     GGSL
TXBWIC22010-42206-38636-60000168D0001652D0000000018R8636     GGSL
TXBWIC22010-42206-40300-10000020D0000079D0001200010XT300     GGSL
TXBWIC22010-42206-40301-80000154D0001164D0017800460XT301     GGSL
TXBWIC22010-42206-44100-30000018D0000362D0004200000XT4100    GGSL
TXBWIC22010-42206-48635-60000264D0001826D0021600240R8635     GGSL
TXBWIC22010-42206-63015-50000018D0000561D000270001663015     GGSL
TXBWIC22010-42206-63100-80000048D0002053D000030001063100     GGSL
TXBWIC22010-42579-00000-00000012D0000142D0000000012LEAFTARP9XGGSL
TXBWIC22010-42579-00052-40000001D0000037D0000900001ST47812   GGSL
TXBWIC22010-42579-11190-90000061D0001535D0000000003950       GGSL
TXBWIC22010-42579-11212-80000017D0000235D0001900000SSR12GRN  GGSL
TXBWIC22010-42579-11250-00000028D0012394D0012000000P12       GGSL
TXBWIC22010-42579-11450-40000001D0000049D0000000000450       GGSL
TXBWIC22010-42579-11500-60000327D0011262D0018400171APB5      GGSL
TXBWIC22010-42579-12342-10000036D0000462D0000000036PSS       GGSL
TXBWIC22010-42579-12343-80000056D0002615D000000001420 YR-3100GGSL
TXBWIC22010-42579-12346-90000192D0000321D0000100048TW3W      GGSL
TXBWIC22010-42579-12353-70000075D0000348D0001500000PG12      GGSL
TXBWIC22010-42579-13250-80000475D0020625D0143800537P3        GGSL
TXBWIC22010-42579-14250-70000406D0037509D0036700302P4        GGSL
TXBWIC22010-42579-15250-60000038D0006659D0018200000P5        GGSL
TXBWIC22010-42579-16250-50000113D0023528D0033100064P6        GGSL
TXBWIC22010-42579-18250-30000022D0006647D0018000027P8        GGSL
TXBWIC22010-42579-19342-40000576D0007182D004080043220 YR-324 GGSL
TXBWIC22010-42579-22341-10006272D0037464D04960051846 YR-350  GGSL
TXBWIC22010-42579-22342-80002166D0024064D0016200138NS12      GGSL
TXBWIC22010-42579-22345-90004428D0006631D0329101728APRC      GGSL
TXBWIC22010-42579-23100-30000160D0001370D00176002886 YR-3100 GGSL
TXBWIC22010-42579-32355-50000560D0003301D0085400294RS15      GGSL
TXBWIC22010-42579-43004-80000042D0004422D0003600095NB4       GGSL
TXBWIC22010-42579-43006-20000021D0003192D0003000011NB6       GGSL
TXBWIC22010-42579-43240-00000040D0000275D0000000060NB324     GGSL
TXBWIC22010-42579-50154-00000168D0005391D0015200088PRO BLK-31GGSL
TXBWIC22010-42579-50169-40000198D0004191D0025200198PRO BLK-45GGSL
TXBWIC22010-42579-50171-70000016D0000610D0000000024PRO BLK-41GGSL
TXBWIC22010-42579-50541-80000036D0000402D0000000000NSPJ8     GGSL
TXBWIC22010-42579-63041-70000171C0000402C0001800003KG6       GGSL
TXBWIC22010-42579-63045-50000003D0000545D0000100000KG12      GGSL
TXBWIC22010-42579-63101-80000002D0000102D0000000000TSL-BX    GGSL
TXBWIC22010-42579-63105-60000056D0002804D0008600002350ROLL   GGSL
TXBWIC22010-42579-63111-70005400D0001134D0000000000RPB-RED   GGSL
TXBWIC22010-42579-63306-70000504D0003173D02628003243 YR-350  GGSL
TXBWIC22010-42579-81272-10000004D0000351D0000000000K6        GGSL
TXBWIC22010-42579-81273-80000002D0000352D0000000000K12       GGSL
TXBWIC22010-42579-81276-90000072D0001187D000000000012 YR-350 GGSL
TXBWIC22010-42579-81360-50000165D0031995D0004200022NS12250   GGSL
TXBWIC22010-42579-81392-60000024D0005984D0000000000WGC15     GGSL
TXBWIC22010-42579-81406-00000010D0000332D0000000000SSR12BLK  GGSL
TXBWIC22010-42579-81428-20000361D0000778D0026400168BURLAP BAGGGSL
TXBWIC22010-42579-81506-70000003D0001024D0000000000ULTIMATE15GGSL
TXBWIC22010-42579-81566-10000163D0024843D0072000041SBLT10300 GGSL
TXBWIC22010-42579-81568-50000217D0039992D0108100088SBLT12300 GGSL
TXBWIC22010-42579-81569-20000477D0103950D0127000319SBLT15.530GGSL
TXBWIC22010-42579-81571-50000192D0009440D0117400435SBLT3300  GGSL
TXBWIC22010-42579-81572-20000091D0005522D0020800089SBLT4300  GGSL
TXBWIC22010-42579-81573-90000249D0024390D0175600307SBLT6300  GGSL
TXBWIC22010-42579-81605-70000003D0000262D0001800000PRO BLK-33GGSL
TXBWIC22010-42579-81606-40000025D0002965D0005900009PRO BLK-43GGSL
TXBWIC22010-42579-81607-10000033D0005841D0006200015PRO BLK-63GGSL
TXBWIC22010-42579-81608-80000011D0002332D0000400000PRO BLK-83GGSL
TXBWIC22010-42579-81619-40000030D0002343D0000000014APB1      GGSL
TXBWIC22010-42579-81624-80000126D0001876D0000000018PRO BLK-35GGSL
TXBWIC22010-42579-81626-20000016D0000300D0000000016PRO BRN-35GGSL
TXBWIC22010-42579-81733-70000025D0001517D0005300000CS-3300BLKGGSL
TXBWIC22010-42579-81734-40000035D0002469D0002100001CS-4300BLKGGSL
TXBWIC22010-42579-81735-10000043D0004615D0003900005CS-6300BLKGGSL
TXBWIC22010-42579-81738-20000003D0000724D0000900001CS-350BLK GGSL
TXBWIC22010-42579-81739-90000003D0000759D0001000002CS-3100BLKGGSL
TXBWIC22010-42579-82222-50000001D0000039D0000000000SANDBAGBLKGGSL
TXBWIC22010-42579-82225-60000048D0000622D0000000016SUPREME650GGSL
TXBWIC22010-42579-82238-60000004D0000075D0000000000FIBC 2000 GGSL
TXBWIC22010-42579-82278-20000216D0002294D0001200060TWBAG-12  GGSL
TXBWIC22010-42579-82283-60000025D0000295D0000000000STRTS-28  GGSL
TXBWIC22010-42579-82293-50001372D0008558D0000000196SUPREME625GGSL
TXBWIC22010-42579-82320-80000048D0000486D0000000936TWD-24    GGSL
TXBWIC22010-42579-82366-60000105D0028995D0000000000WGC15F    GGSL
TXBWIC22010-42579-82374-10000025D0009139D0000000000ULTIMATE12GGSL
TXBWIC22010-42853-00000-00000161D0013010D0052103244BFTD-DB12 GGSL
TXBWIC22010-42853-10000-10000636D0001864D0233600792ST3-BB4   GGSL
TXBWIC22010-42853-12000-90000012D0000030D0000800120MGC-DB12  GGSL
TXBWIC22010-42853-14000-70000013D0000464D0000000000PMT2-BB5  GGSL
TXBWIC22010-42853-40000-20000065D0000294D0000000002TSF-BB8   GGSL
TXBWIC22010-42853-42000-00000282D0001763D0021601872TSBF-BB6  GGSL
TXBWIC22010-42853-42001-70000022D0006512D0000000057TSBF-FD48 GGSL
TXBWIC22010-42853-50000-90000151D0018626D0024700192TSW-BB6   GGSL
TXBWIC22010-42853-52000-40000006D0000037D0004800012CBTS-BB6  GGSL
TXBWIC22010-42853-52000-80000001D0000300D0000000000CBTS-FD48 GGSL
TXBWIC22010-42853-60000-00000002D0000306D0000000000FFTR-FD48 GGSL
TXBWIC22010-42853-60000-60001196D0002033D0002803512FFTR-BB4  GGSL
TXBWIC22010-42853-61000-50000252D0001044D0000000216FFTR2-BB4 GGSL
TXBWIC22010-42853-62000-40000696D0000846D0073210152FFTA-DB12 GGSL
TXBWIC22010-42853-65000-10000396D0001001D0000000436AB6-BB4   GGSL
TXBWIC22010-42853-75017-60000304D0001518D0005603512PFTR-BB8  GGSL
TXBWIC22010-42853-75117-30000288D0000552D0003603324PFTA-DB12 GGSL
TXBWIC22010-42853-77305-40000772D0025462D0058300679FTD-DB12  GGSL
TXBWIC22010-42853-77603-90000002D0000086D0001800001YJTD-DB12-GGSL
TXBWIC22010-42853-79701-00000144D0000687D0000000048BFTD-FD48 GGSL
TXBWIC22010-42854-03298-10000372D0000805D0076800048FG32ORB112GGSL
TXBWIC22010-42854-09098-10000001D0000194D0000000000FG32ORB190GGSL
TXBWIC22010-42854-63278-50000048D0000095D0078000000FG32PC1-12GGSL
TXBWIC22010-42854-64870-00000030D0000212D0012000024FG48PC1-6 GGSL
TXBWIC22010-42854-93200-70000012D0000060D0013200000FG32SM1-12GGSL
TXBWIC22010-42879-81992-80000012D0000115D0000000024NAT340    GGSL
TXBWIC22010-43256-29051-10000001D0000096D0000000000DT1260    GGSL
TXBWIC22010-43256-32797-20000005D0000651D0000300000DT2000XLP GGSL
TXBWIC22010-43312-10001-50000012D0000178D0009600000101-0-027 GGSL
TXBWIC22010-43312-10003-70000299D0000941D0060800000103-0-009 GGSL
TXBWIC22010-43312-10027-30000144D0001232D0031200036104-0-003 GGSL
TXBWIC22010-43312-10031-00000001D0000028D0004200000107-0-002 GGSL
TXBWIC22010-43312-10102-70000144D0000223D0201600000102-0-012 GGSL
TXBWIC22010-43326-15750-80000005D0000085D0000000000M16X20    GGSL
TXBWIC22010-43326-16720-00000008D0000075D0000000048A8X10-P8  GGSL
TXBWIC22010-43326-16740-80000009D0000179D0000000000A12X14-P3 GGSL
TXBWIC22010-43326-16771-20000005D0000106D0000000020A10X18-P  GGSL
TXBWIC22010-43326-59720-50000008D0000175D0000000000G8X10     GGSL
TXBWIC22010-43326-59771-70000016D0001589D0000000008G10X18    GGSL
TXBWIC22010-43786-05140-80000024D0000102D000000000005140     GGSL
TXBWIC22010-43786-70006-10000048D0000148D000000000070006     GGSL
TXBWIC22010-43786-70102-00000096D0000457D000000000070102     GGSL
TXBWIC22010-43792-50001-30000240D0007737D0003500196Y32       GGSL
TXBWIC22010-43792-60002-70000240D0007898D0008500244W32       GGSL
TXBWIC22010-43792-70002-40000181D0005863D0003500153R32       GGSL
TXBWIC22010-43792-80001-40000045D0001576D0004000137SW10      GGSL
TXBWIC22010-43792-90003-50000045D0002336D0004900060GA10      GGSL
TXBWIC22010-43792-90004-20000007D0000744D0000500006GA30      GGSL
TXBWIC22010-44882-30115-20000200D0001944D0000000080WS50      GGSL
TXBWIC22010-44882-30501-30000075D0000810D0002500020FXG5825   GGSL
TXBWIC22010-44882-30502-00000160D0003147D0003500010FXG5850   GGSL
TXBWIC22010-44882-30504-40000048D0001409D0009000030FXG5875   GGSL
TXBWIC22010-44882-30506-80000051D0001993D0004500027FXG58100  GGSL
TXBWIC22010-46539-62045-60001189D0017485D0322900423          GGSL
TXBWIC22010-46539-64032-40001211D0010424D0319603592          GGSL
TXBWIC22010-46753-00000-00000001D0000344D0000000001          GGSL
TXBWIC22010-46753-01032-30000114D0000448D00240000484675301032GGSL
TXBWIC22010-46753-01128-30000076D0000690D00272001484675301128GGSL
TXBWIC22010-46753-02032-20000102D0000459D00205000304675302032GGSL
TXBWIC22010-46753-02128-20000056D0000674D00119000004675302128GGSL
TXBWIC22010-46753-03128-10000040D0000517D00076000004675303128GGSL
TXBWIC22010-46753-04032-00000354D0001980D00318004024675304032GGSL
TXBWIC22010-46753-04033-70000408D0003312D00018005642004675304GGSL
TXBWIC22010-46753-04128-00000256D0003539D00544003684675304128GGSL
TXBWIC22010-46753-04500-10000001D0000037D0000100002ZZMED5GALPGGSL
TXBWIC22010-46753-05032-90000348D0002866D00240004984675305032GGSL
TXBWIC22010-46753-05128-90000080D0001044D00304003044675305128GGSL
TXBWIC22010-46753-07032-70000036D0000176D00177000004675307032GGSL
TXBWIC22010-46753-08016-60000204D0001637D000000019280160     GGSL
TXBWIC22010-46753-08032-60000699D0010443D01329009184675308032GGSL
TXBWIC22010-46753-10128-10000004D0000048D00000000044675310128GGSL
TXBWIC22010-46753-14032-70000152D0000626D00223003964675314032GGSL
TXBWIC22010-46753-14128-70000108D0000837D00354002044675314128GGSL
TXBWIC22010-46753-15005-00000006D0000054D000000001850050     GGSL
TXBWIC22010-46753-17005-80000084D0000353D00350000244675317005GGSL
TXBWIC22010-46753-17040-90001002D0013601D01541000014675317040GGSL
TXBWIC22010-46753-19032-20000120D0000721D00000000482004675319GGSL
TXBWIC22010-46753-19128-20000028D0000371D0000000012          GGSL
TXBWIC22010-46753-20128-80000024D0000460D0000000032          GGSL
TXBWIC22010-46753-21032-70000219D0001110D004900130810327     GGSL
TXBWIC22010-46753-21128-70000176D0002163D002840080812287     GGSL
TXBWIC22010-46753-30165-00000003D0004388D00000000031650      GGSL
TXBWIC22010-46878-26381-90000003D0000037D000330000026381     GGSL
TXBWIC22010-46878-26382-60000003D0000037D000240000026382     GGSL
TXBWIC22010-46878-27436-50000003D0000058D000120000027436     GGSL
TXBWIC22010-46878-27560-70000003D0000052D000030000327560     GGSL
TXBWIC22010-46878-56076-50000018D0000153D000000000056076     GGSL
TXBWIC22010-46878-56098-70000012D0000124D000000000056098     GGSL
TXBWIC22010-46878-56186-10000006D0000177D000000000056186N    GGSL
TXBWIC22010-46878-56361-20000016D0000167D000000000056361     GGSL
TXBWIC22010-46878-56762-70000004D0000082D000000000056762     GGSL
TXBWIC22010-46878-58308-50000008D0000412D000160000058308D    GGSL
TXBWIC22010-46878-62034-60000004D0000031D000000000062034     GGSL
TXBWIC22010-46878-62100-80000004D0000407D000000000062100     GGSL
TXBWIC22010-47977-00081-70000001D0000025D000000000023830     GGSL
TXBWIC22010-47977-00506-50000004D0000043D000000000023955     GGSL
TXBWIC22010-47977-00592-80000012D0000083D000000000024127     GGSL
TXBWIC22010-47977-00797-70000012D0000114D000000000024111     GGSL
TXBWIC22010-47977-00804-20000008D0000262D000000000023837     GGSL
TXBWIC22010-47977-00807-30000008D0000232D000000000023807     GGSL
TXBWIC22010-47977-00891-20000012D0000117D000000000024108     GGSL
TXBWIC22010-47977-00893-60000016D0000149D000000000024109     GGSL
TXBWIC22010-47977-00894-30000012D0000166D000000000024110     GGSL
TXBWIC22010-47977-00896-70000016D0000204D000000000024102     GGSL
TXBWIC22010-47977-00897-40000004D0000049D000000000024107     GGSL
TXBWIC22010-47977-01109-70000004D0000040D000000000024229     GGSL
TXBWIC22010-47977-01193-60000004D0000092D000000000023838     GGSL
TXBWIC22010-47977-01194-30000006D0000135D000000000023839     GGSL
TXBWIC22010-47985-10023-30000023D0000203D0005800044YCBSM3CF-PGGSL
TXBWIC22010-47985-10033-20000301D0002392D0034800000YCBSI3CF-PGGSL
TXBWIC22010-48307-70003-20000009D0000077D0004900000ST3       GGSL
TXBWIC22010-48307-70004-90000027D0000290D0027900000ST4-WS    GGSL
TXBWIC22010-48307-70005-60000018D0000289D0008000000ST5       GGSL
TXBWIC22010-48745-22244-80000032D0000737D0000800000BL22244   GGSL
TXBWIC22010-50197-00104-50001530D0007225D0260500372HT4       GGSL
TXBWIC22010-50197-00108-30000348D0002345D0028800156HT8       GGSL
TXBWIC22010-50197-00118-20000503D0006422D0283200084HT18      GGSL
TXBWIC22010-50197-00136-60000648D0013098D0058000188HT36      GGSL
TXBWIC22010-50197-00150-20000116D0003157D0021500059HT50      GGSL
TXBWIC22010-50197-00204-20001110D0005185D0279901008PT4       GGSL
TXBWIC22010-50197-00208-00000294D0002050D0021000054PT8       GGSL
TXBWIC22010-50197-00218-90000373D0004950D0074000127PT18      GGSL
TXBWIC22010-50197-00236-30000237D0004447D0067300121PT36      GGSL
TXBWIC22010-50197-00250-90000009D0000305D0019700002PT50      GGSL
TXBWIC22010-50197-00304-90001506D0007027D0155501800GT4       GGSL
TXBWIC22010-50197-00308-70000174D0001275D0001800000GT8       GGSL
TXBWIC22010-50197-00318-60000269D0003583D0069500044GT18      GGSL
TXBWIC22010-50197-00336-00000111D0002307D0037300086GT36      GGSL
TXBWIC22010-50197-00404-60001218D0005714D0141201200RT4       GGSL
TXBWIC22010-50197-00408-40000276D0001886D0013200018RT8       GGSL
TXBWIC22010-50197-00418-30000142D0001957D0098200064RT18      GGSL
TXBWIC22010-50197-00604-00000546D0002532D0119700204BT4       GGSL
TXBWIC22010-50197-00618-70000012D0000150D0000300006BT18      GGSL
TXBWIC22010-50197-00704-70000276D0001271D0085300024TR4       GGSL
TXBWIC22010-50197-00718-40000029D0000390D0038000000TR18      GGSL
TXBWIC22010-50197-00736-80000060D0001010D0000000000TR36      GGSL
TXBWIC22010-50197-00904-10001554D0007302D0204601692TO4       GGSL
TXBWIC22010-50197-00908-60000239D0001676D0014400036TO8       GGSL
TXBWIC22010-50197-00918-80000163D0002177D0020700024TO18      GGSL
TXBWIC22010-50197-01004-70000408D0001822D0014400828BM04      GGSL
TXBWIC22010-50197-01024-50000004D0000083D0000400012BM24      GGSL
TXBWIC22010-50197-01228-70000013D0000230D0000000009RP28      GGSL
TXBWIC22010-50197-01303-10000300D0001784D0015600720DB03      GGSL
TXBWIC22010-50197-01317-80000001D0000034D0000200000DB17      GGSL
TXBWIC22010-50197-01803-60000228D0000813D0028800036GM3       GGSL
TXBWIC22010-50197-01825-80000266D0002768D0034400057GM25      GGSL
TXBWIC22010-50197-01905-70000012D0000059D0001800006GF5105/6  GGSL
TXBWIC22010-50197-02006-00000198D0000512D0064500204GL6       GGSL
TXBWIC22010-50197-02206-40000396D0001867D0048600132GG6       GGSL
TXBWIC22010-50197-02304-70000132D0000656D0000000048CS4       GGSL
TXBWIC22010-50197-02805-90000102D0000644D0000600012GF101010/6GGSL
TXBWIC22010-50197-02904-90000972D0004612D0110600744FT4       GGSL
TXBWIC22010-50197-02918-60000074D0000991D0048100018FT18      GGSL
TXBWIC22010-50197-03804-10003618D0019592D0268501194BTSP4     GGSL
TXBWIC22010-50197-03808-90000120D0000939D0000000012BTSP8     GGSL
TXBWIC22010-50197-03818-80000130D0002273D0000000010BTSP18    GGSL
TXBWIC22010-50197-03825-60000860D0019545D0066500246BTSP25    GGSL
TXBWIC22010-50197-03904-80000888D0004155D0017500792PM4       GGSL
TXBWIC22010-50197-03920-80000032D0000438D0000000004PM20      GGSL
TXBWIC22010-50197-05004-30001608D0007574D0147900696CT4       GGSL
TXBWIC22010-50197-05018-00000257D0003457D0023500030CT18      GGSL
TXBWIC22010-50197-05225-20000012D0000334D0000000005CGP25     GGSL
TXBWIC22010-50197-05320-40000045D0000715D0058100002ELF20     GGSL
TXBWIC22010-50197-05405-80000156D0000748D0028900012IT5       GGSL
TXBWIC22010-50197-05420-10000003D0000048D0004900000it20      GGSL
TXBWIC22010-50197-05628-10000055D0001235D0007000000EOLF28    GGSL
TXBWIC22010-50197-05730-10000017D0000361D0000800000EOSR30    GGSL
TXBWIC22010-50197-05830-80000025D0000497D0001000000EOFW30    GGSL
TXBWIC22010-50197-06504-70000510D0002291D0128701080AT4       GGSL
TXBWIC22010-50197-06508-50000078D0000461D0016800000AT8       GGSL
TXBWIC22010-50197-06518-40000017D0000225D0005000000AT18      GGSL
TXBWIC22010-50197-06604-40000672D0003189D0030000012BR4       GGSL
TXBWIC22010-50197-06708-90000030D0000222D0000000012ET8       GGSL
TXBWIC22010-50197-06718-80000020D0000274D0000200000ET18      GGSL
TXBWIC22010-50197-30508-20000384D0001529D0003000084INPF8     GGSL
TXBWIC22010-50197-30608-90000318D0001260D0006000114CAPF8     GGSL
TXBWIC22010-50197-30708-60000312D0001236D0000000126VIPF8     GGSL
TXBWIC22010-50197-30808-30000342D0001348D0000600078ORPF8     GGSL
TXBWIC22010-50197-31308-70000036D0000147D0003600024TOPF8     GGSL
TXBWIC22010-50197-31318-60000006D0000038D0001800000topf18    GGSL
TXBWIC22010-50197-51324-10000042D0000214D0010800000EONM24    GGSL
TXBWIC22010-50197-70101-30002232D0012305D0054800085ap1       GGSL
TXBWIC22010-50197-70102-00001863D0016688D0038600000ap2       GGSL
TXBWIC22010-50197-70304-80000708D0001921D0054000192ca4       GGSL
TXBWIC22010-50197-70308-60000480D0002164D0007800084ca8       GGSL
TXBWIC22010-50197-70516-50000083D0000457D0000000016SS16      GGSL
TXBWIC22010-50197-70608-70000036D0000189D0069000006PTM8      GGSL
TXBWIC22010-50197-71201-90000300D0001810D0000000000mm1       GGSL
TXBWIC22010-50197-71208-80000030D0000163D0010200000MM8       GGSL
TXBWIC22010-50197-71304-70000309D0002101D0030000024EC4       GGSL
TXBWIC22010-50197-71501-00000872D0005246D0068900489lsc1      GGSL
TXBWIC22010-50197-71601-70000361D0001587D0030300000dcm1      GGSL
TXBWIC22010-50197-71804-20000132D0000937D0000000024BO4       GGSL
TXBWIC22010-50197-71904-90000360D0002416D0021600360HC4       GGSL
TXBWIC22010-50197-80117-10000065D0000650D0000000000SC17      GGSL
TXBWIC22010-50349-01009-30000002D0000142D00000000001009-012  GGSL
TXBWIC22010-50349-01037-60000003D0000289D00000000091037-012  GGSL
TXBWIC22010-50349-01039-00000001D0000095D00000000051039-012  GGSL
TXBWIC22010-50349-01041-30000002D0000172D00000000101041-012  GGSL
TXBWIC22010-50349-01043-70000001D0000019D00000000101043-009  GGSL
TXBWIC22010-50349-01061-10000001D0000061D00000000001061-012  GGSL
TXBWIC22010-50349-01069-70000020D0000106D00000000001069-012  GGSL
TXBWIC22010-50349-01078-30000004D0004359D00000000001023-017  GGSL
TXBWIC22010-50349-10110-50000009D0000752D00000000001022-012  GGSL
TXBWIC22010-50349-10211-20000011D0000628D00000000011012-012  GGSL
TXBWIC22010-50349-10330-70000002D0001809D00000000001033-017  GGSL
TXBWIC22010-50349-10519-90000001D0000068D00000000001051-082  GGSL
TXBWIC22010-50349-10541-00000007D0007751D00000000001071-017  GGSL
TXBWIC22010-50349-18885-30000019D0000299D00000000018885-034  GGSL
TXBWIC22010-50699-00000-00000003D0000028D0000000000303460    GGSL
TXBWIC22010-50699-00001-00000005D0000046D0007600000300001    GGSL
TXBWIC22010-50699-00014-00000004D0000017D0000100000300014    GGSL
TXBWIC22010-50699-00212-00000024D0000233D0000600036300212    GGSL
TXBWIC22010-50699-12016-90000012D0000077D0000000000300016    GGSL
TXBWIC22010-52427-00551-90000002D0000039D00000000004500102   GGSL
TXBWIC22010-52427-01038-40000006D0000108D0000000000105462    GGSL
TXBWIC22010-52427-01048-30000005D0000185D0000000000105629    GGSL
TXBWIC22010-52427-01049-00000002D0000074D0000000000105634    GGSL
TXBWIC22010-52732-00000-00000042D0002563D00006001742030.0    GGSL
TXBWIC22010-52732-10012-10000027D0003562D000600001610001     GGSL
TXBWIC22010-52732-20505-50000017D0001634D00096000252050SU    GGSL
TXBWIC22010-52732-20509-30000037D0006187D00114000362050P     GGSL
TXBWIC22010-52732-20519-20000004D0000660D00026000042050TP    GGSL
TXBWIC22010-52732-21700-30000001D0000278D00000000092170      GGSL
TXBWIC22010-52732-27500-30000232D0010887D00740001892750      GGSL
TXBWIC22010-52732-34000-80000001D0000022D00009000003400.0    GGSL
TXBWIC22010-52732-65000-80000011D0001364D00007000016500.0    GGSL
TXBWIC22010-52732-68016-60000006D0001820D0001300000F80       GGSL
TXBWIC22010-53291-11002-60000192D0002330D0015600012820-1002  GGSL
TXBWIC22010-53291-19937-30000012D0000028D0001200000820-0409  GGSL
TXBWIC22010-53291-20602-30000010D0000048D0000000000820-0602  GGSL
TXBWIC22010-53291-30000-00000007D0002194D0000100000820-1024  GGSL
TXBWIC22010-53291-40006-60000010D0000045D0000000000840-0006  GGSL
TXBWIC22010-53291-40053-00000001D0000051D0000000000840-0053  GGSL
TXBWIC22010-53291-50058-20000004D0000108D0000000000850-0058  GGSL
