NJARET20100-10367-00130-50000002D0000094D00010000020130      GGSL
NJARET20100-10367-00150-30000007D0000204D00014000140150      GGSL
NJARET20100-10367-00550-10000096D0000241D00014000030550      GGSL
NJARET20100-10367-00570-90000036D0000191D00004000000570      GGSL
NJARET20100-10367-01110-60000064D0000212D00031000011110      GGSL
NJARET20100-10367-01111-30000032D0000106D00056000011111      GGSL
NJARET20100-10367-01112-00000008D0000027D00055000001112      GGSL
NJARET20100-10367-01121-20000008D0000047D00048000001121      GGSL
NJARET20100-10367-01130-40000280D0001515D00053000061130      GGSL
NJARET20100-10367-01140-30000008D0000027D00001000011140      GGSL
NJARET20100-10367-01151-90000016D0000054D00003000011151      GGSL
NJARET20100-10367-02121-10000016D0000076D0000500001ML2121    GGSL
NJARET20100-10367-02131-00000008D0000038D0000100000ML2131    GGSL
NJARET20100-10367-02141-90000008D0000038D0000400000ML2141    GGSL
NJARET20100-10367-02151-80000016D0000120D0001400001ML2151    GGSL
NJARET20100-10367-03010-70000032D0000189D0000400000ML3010    GGSL
NJARET20100-12587-70054-90000900D0005058D000440000070054     GGSL
NJARET20100-14021-00736-80000010D0000057D00002000017110      GGSL
NJARET20100-14021-01417-50000175D0000805D00005000031024      GGSL
NJARET20100-14021-01417-50000040D0000184D00000000001040      GGSL
NJARET20100-14400-10747-40000080D0000140D00006000001440010747GGSL
NJARET20100-14400-10770-20000016D0000024D00000000001440010770GGSL
NJARET20100-14400-16001-10000006D0000051D00000000001440016001GGSL
NJARET20100-14400-30000-40000024D0000121D000010000030000     GGSL
NJARET20100-14400-52750-00000018D0000045D00000000001440052750GGSL
NJARET20100-14400-55000-30000024D0000099D00000000001440055000GGSL
NJARET20100-14400-66000-90000024D0000301D000240000566000ZFP  GGSL
NJARET20100-14400-72105-20000018D0000090D00000000001440072105GGSL
NJARET20100-14400-72405-30000012D0000060D00000000001440072405GGSL
NJARET20100-14400-72505-00000012D0000060D00000000001440072505GGSL
NJARET20100-14400-72750-40000024D0000125D00000000001440072750GGSL
NJARET20100-14400-72800-60000018D0000060D00000000001440072800GGSL
NJARET20100-15561-21643-20000009D0000563D0000900000PT1643    GGSL
NJARET20100-15759-01244-00000012D0000086D0001100001R1203B    GGSL
NJARET20100-15961-28600-40000006D0000080D00000000003000006683GGSL
NJARET20100-16069-00001-10000012D0000079D0000000000NESR      GGSL
NJARET20100-16069-00002-80000012D0000077D0000100000NEOR      GGSL
NJARET20100-16069-00007-30000168D0001098D0007500011BN1       GGSL
NJARET20100-16069-00008-00000132D0000874D0007100017BN2       GGSL
NJARET20100-16069-00013-40000018D0000506D0010600006BN3       GGSL
NJARET20100-16069-00014-10000042D0000906D0001500010BN4       GGSL
NJARET20100-16069-00015-80000012D0000345D0000400001BN5       GGSL
NJARET20100-16069-00030-10000006D0000079D0001300003OW6       GGSL
NJARET20100-16069-00032-50000048D0000501D0000100001HG25      GGSL
NJARET20100-16069-00038-70000048D0000449D0000400000GF1015    GGSL
NJARET20100-16069-00049-30000990D0016190D0016300012DX7       GGSL
NJARET20100-16069-00050-90000006D0000173D0000600003DX14      GGSL
NJARET20100-16069-00076-90000198D0001118D0000200002PN10      GGSL
NJARET20100-16069-00077-60000168D0001543D0000900003PN14      GGSL
NJARET20100-16069-00079-00000024D0000571D0000700003PN28      GGSL
NJARET20100-16069-00218-30000024D0000138D0001100004HST100    GGSL
NJARET20100-16069-00393-70000192D0000621D0000800004GS20      GGSL
NJARET20100-16069-00393-70000036D0000111D0000000000GS20C     GGSL
NJARET20100-16069-00394-40000004D0000204D0001000000PN45      GGSL
NJARET20100-16069-00401-90000028D0000212D0000500000GF4050    GGSL
NJARET20100-16069-00436-10000015D0000037D0000300001TWST100   GGSL
NJARET20100-16069-00478-10000008D0000345D0000600001SRHO4     GGSL
NJARET20100-16069-00479-80000100D0001913D0016900110E316B     GGSL
NJARET20100-16069-00480-40000012D0000050D0000100000SPT15     GGSL
NJARET20100-16069-00494-10000028D0000212D0002000001GFST4050  GGSL
NJARET20100-16069-00499-60000012D0000174D0000000000HGP1020   GGSL
NJARET20100-16069-00518-40000012D0000048D0000000000SG2512    GGSL
NJARET20100-16069-00519-10000012D0000072D0000100000SPB56     GGSL
NJARET20100-16069-00624-20000096D0000609D0000400000CCT24     GGSL
NJARET20100-16069-00667-90000004D0000085D0002300002RH04US    GGSL
NJARET20100-17500-08120-00000156D0000218D002990000008120     GGSL
NJARET20100-17500-08150-70001224D0001723D002020000308150     GGSL
NJARET20100-17500-90206-20000108D0002266D001420003690206     GGSL
NJARET20100-17500-91365-50000036D0000295D000020000091365     GGSL
NJARET20100-17500-91714-10000024D0000523D000130000291714     GGSL
NJARET20100-17500-95314-90000004D0000107D000000000095314     GGSL
NJARET20100-17500-95334-70000004D0000098D000010000095334     GGSL
NJARET20100-18062-00019-70000024D0000107D0000700000PT06MCCS  GGSL
NJARET20100-18222-00101-90000126D0000383D0005600000CS06101   GGSL
NJARET20100-18222-00103-30000066D0000202D0007100002CS06103   GGSL
NJARET20100-18222-00105-70000096D0000292D0012800007CS06105   GGSL
NJARET20100-18222-00107-10000066D0000259D0005000001CS06107   GGSL
NJARET20100-18222-00109-50000156D0000475D0006900003CS06109   GGSL
NJARET20100-18222-00110-10000048D0000147D0006900004CS06110   GGSL
NJARET20100-18222-00206-10000024D0000114D0001100000CS06206   GGSL
NJARET20100-18222-00213-90000120D0000487D0004600028CS06213   GGSL
NJARET20100-18222-00501-70000432D0000566D0024000019CS12501   GGSL
NJARET20100-18222-00503-10000072D0000148D0005000000CS503     GGSL
NJARET20100-18222-00505-50000048D0000052D0010100001CS12505   GGSL
NJARET20100-18222-00507-90000312D0000428D0014800008CS12507   GGSL
NJARET20100-18222-00509-30000120D0000201D0025400036CS12509   GGSL
NJARET20100-18222-00513-00000072D0000149D0000700003CS12513   GGSL
NJARET20100-18222-00526-00000138D0000420D0009300001CS06526   GGSL
NJARET20100-18222-00527-70000132D0000174D0027500024CS12527   GGSL
NJARET20100-18222-00531-40000132D0000297D0022800045CS12531   GGSL
NJARET20100-18222-00535-20000204D0000269D0008000001CS12535   GGSL
NJARET20100-18222-00543-70000144D0000197D0001700001CS12543   GGSL
NJARET20100-18222-00545-10000060D0000100D0000900001CS12545   GGSL
NJARET20100-18222-00553-60000084D0000149D0042000127CS12553   GGSL
NJARET20100-18222-00559-80000204D0000265D0015600007CS12559   GGSL
NJARET20100-18222-00561-10000060D0000079D0003100001CS12561   GGSL
NJARET20100-18222-00563-50000072D0000106D0005800001CS12563   GGSL
NJARET20100-18222-00565-90000132D0000231D0001000001CS12565   GGSL
NJARET20100-18222-00569-70000192D0000333D0028600052CS12569   GGSL
NJARET20100-18222-00571-00000252D0000522D0002700001CS12571   GGSL
NJARET20100-18222-00583-30000252D0000527D0015000010CS12583   GGSL
NJARET20100-18222-00611-30000012D0000041D0000400003CS611     GGSL
NJARET20100-18222-00689-20000024D0000055D0000100000CS12689   GGSL
NJARET20100-18222-00701-10000168D0000290D0011700035CS701     GGSL
NJARET20100-18222-00707-30000096D0000297D0002900008CS707     GGSL
NJARET20100-18222-00727-10000006D0000040D0001200002CS727     GGSL
NJARET20100-18222-00730-10002976D0005452D0017300002CS730     GGSL
NJARET20100-18222-00749-30000060D0000335D0002100000CS749     GGSL
NJARET20100-18222-00750-90000004D0000040D0000600002CS750     GGSL
NJARET20100-18222-00753-00000088D0000435D0004700000CS753     GGSL
NJARET20100-18222-00772-10000004D0000069D0000600000CS772     GGSL
NJARET20100-18222-00907-70000008D0000022D0000000000CS08907   GGSL
NJARET20100-18222-00950-30000024D0000025D0001200001CS950     GGSL
NJARET20100-18222-00951-00000008D0000032D0000000000CS08951   GGSL
NJARET20100-18222-00954-10000008D0000043D0001000000CS08954   GGSL
NJARET20100-18222-50501-20000396D0000435D0013000003CS1250501XGGSL
NJARET20100-18222-50559-30000096D0000105D0018700007CS1250559XGGSL
NJARET20100-18506-00102-50000036D0000157D000300000410212     GGSL
NJARET20100-18506-00117-90000048D0000515D00000000001176      GGSL
NJARET20100-18506-00122-30000012D0000066D0000000000122       GGSL
NJARET20100-18506-00130-80000012D0000067D0001700001130       GGSL
NJARET20100-18506-02001-90000036D0000412D00000000002001      GGSL
NJARET20100-19200-00095-60000060D0000139D002870000000027     GGSL
NJARET20100-19200-00619-40000048D0000166D014040000100706     GGSL
NJARET20100-19200-78033-90000006D0000025D00162000001920078033GGSL
NJARET20100-19200-78631-70000009D0000025D000000000078631     GGSL
NJARET20100-19200-80306-90000012D0000068D001000000080306     GGSL
NJARET20100-19200-82043-10000024D0000064D000000000082043     GGSL
NJARET20100-19200-83262-50000084D0000313D00136000001920082362GGSL
NJARET20100-19200-83623-40000012D0000093D008340000083623     GGSL
NJARET20100-19200-83721-70000760D0001946D000000000083721     GGSL
NJARET20100-19200-89973-40000004D0000072D000450000089973     GGSL
NJARET20100-19200-98342-60000012D0000054D000700000099427     GGSL
NJARET20100-19200-98665-60000152D0000657D001330000098665     GGSL
NJARET20100-19200-98666-30000088D0000538D000870000098666     GGSL
NJARET20100-19263-25010-70000006D0000428D00001000012501      GGSL
NJARET20100-19263-25035-00000016D0000458D0001800001250350    GGSL
NJARET20100-19263-25040-40000012D0001559D00005000052504      GGSL
NJARET20100-19263-25042-80000010D0001705D0000200002250425    GGSL
NJARET20100-19263-25045-90000092D0003347D0000100001250450    GGSL
NJARET20100-19263-25052-70000010D0001851D0000200002250525    GGSL
NJARET20100-19263-25055-80000008D0000365D0000000000250550    GGSL
NJARET20100-19263-25160-90000009D0000094D00000000002516      GGSL
NJARET20100-19263-25210-10000005D0000164D00000000002521      GGSL
NJARET20100-19263-25220-00000005D0000194D00000000002522      GGSL
NJARET20100-19263-25230-90000003D0000149D00000000002523      GGSL
NJARET20100-19263-25510-20001525D0002174D00059000132551      GGSL
NJARET20100-19263-25530-00000500D0000935D00020000012553      GGSL
NJARET20100-19263-25540-90001425D0003173D00014000092554      GGSL
NJARET20100-19263-25550-80000075D0000166D00012000042555      GGSL
NJARET20100-19263-25670-30000030D0000409D00007000012567      GGSL
NJARET20100-19263-25680-20000024D0000445D00007000002568      GGSL
NJARET20100-19263-25750-20000144D0000769D00005000002575      GGSL
NJARET20100-19263-25760-10000360D0002452D00001000012576      GGSL
NJARET20100-19263-25770-00000414D0004443D00091000222577      GGSL
NJARET20100-19263-25780-90000200D0003861D00109000362578      GGSL
NJARET20100-19263-25950-60000252D0000300D00005000052595      GGSL
NJARET20100-19263-26100-40000024D0000080D00000000002610      GGSL
NJARET20100-19263-26180-60000006D0000239D00002000022618      GGSL
NJARET20100-19263-26270-40000002D0000062D00000000002627      GGSL
NJARET20100-19263-26300-80000264D0000610D00038000072630      GGSL
NJARET20100-19263-26310-70000288D0000812D00017000022631      GGSL
NJARET20100-19263-26530-90000016D0000058D00000000002653      GGSL
NJARET20100-19263-26560-60000032D0000244D00027000012656      GGSL
NJARET20100-19263-26580-40000032D0000313D00023000002658      GGSL
NJARET20100-19263-29040-00000001D0000261D00000000002904      GGSL
NJARET20100-19263-29100-10000002D0000329D00004000042910      GGSL
NJARET20100-19263-29110-00000003D0000493D00009000082911      GGSL
NJARET20100-21344-00321-20000002D0000078D0025100007WX15064   GGSL
NJARET20100-21344-00339-70000237D0026347D0008900072400339    GGSL
NJARET20100-21344-00340-30000224D0017469D0002800023400340    GGSL
NJARET20100-21344-00342-70000008D0000183D0000400000400342    GGSL
NJARET20100-21344-00343-40000006D0000046D0006000004400343    GGSL
NJARET20100-21344-00345-80000006D0000046D0003300004400345    GGSL
NJARET20100-21344-00346-50000006D0000046D0004300004400346    GGSL
NJARET20100-21344-00348-90000008D0000121D0001400004400348    GGSL
NJARET20100-21344-00349-60000004D0000061D0003100002400349    GGSL
NJARET20100-21344-00350-20000004D0000060D0004800001400350    GGSL
NJARET20100-21344-00362-50000001D0000074D0023900000HQMUSH    GGSL
NJARET20100-21344-00364-90000002D0000286D0010200008400364    GGSL
NJARET20100-21344-00380-90000001D0000056D0007500005JFG18026  GGSL
NJARET20100-21344-00381-60000003D0000084D0002700018JFG18031  GGSL
NJARET20100-21344-00394-60000006D0000116D0001200002JFG18008ASGGSL
NJARET20100-21344-00404-20000001D0000063D0009000001ZT185020  GGSL
NJARET20100-21344-00405-90000001D0000066D0013500002ZT185019  GGSL
NJARET20100-21344-00409-70000012D0000046D0004100000ZT185018  GGSL
NJARET20100-21344-00411-00000002D0000077D0002700000ZT185021  GGSL
NJARET20100-21344-00422-60000002D0000069D0001800000ZT185023  GGSL
NJARET20100-21344-00423-30000025D0003393D0046800030WX17658   GGSL
NJARET20100-21344-00722-70000008D0000156D0000200013WX17401   GGSL
NJARET20100-21344-00725-80000008D0000307D0001300000HQ748416  GGSL
NJARET20100-21344-00726-50000006D0000230D0000900000HQ74843056GGSL
NJARET20100-21344-00727-20000010D0000383D0000200002HQ74842665GGSL
NJARET20100-21344-00731-90000012D0000210D0002800005BN19190   GGSL
NJARET20100-21344-00736-40000012D0000218D0002700002WX17578RV GGSL
NJARET20100-21344-00739-50000008D0000214D0003800000WX17816   GGSL
NJARET20100-21344-00741-80000004D0000107D0005700000WX17817   GGSL
NJARET20100-21344-00745-60000004D0000052D0019700000YS19006   GGSL
NJARET20100-21344-00780-70000003D0000195D0008700001MG18396RV GGSL
NJARET20100-21344-00807-10000012D0000168D0008100001SSH18A034 GGSL
NJARET20100-21344-00808-80000024D0000125D0008800000SSH18A024 GGSL
NJARET20100-21344-00813-20000172D0013788D00055000054008132   GGSL
NJARET20100-21344-00819-40000012D0000101D0000500001WX17931   GGSL
NJARET20100-21344-00830-90000004D0000104D0005200001ZT197002  GGSL
NJARET20100-21344-00831-60000004D0000073D0004200001ZT197003  GGSL
NJARET20100-21344-00844-60000012D0000057D0010500002HJAL19011 GGSL
NJARET20100-21964-10100-80000090D0002419D0001100002A6F       GGSL
NJARET20100-21964-10121-30000024D0000710D0000100001A6RP      GGSL
NJARET20100-21964-10133-60000012D0000355D0000500002TH3RP     GGSL
NJARET20100-21964-10200-50000012D0000575D0000400002B7F       GGSL
NJARET20100-21964-10220-30000002D0000106D0000000000B72       GGSL
NJARET20100-21964-10315-60000005D0000183D0001900009SQG       GGSL
NJARET20100-21964-10320-00000006D0000069D0000300001SRG       GGSL
NJARET20100-21964-10350-70000014D0000343D0015000150X1        GGSL
NJARET20100-21964-10360-60000006D0000159D0000500003W1        GGSL
NJARET20100-21964-10370-50000108D0001213D0002000003OWF       GGSL
NJARET20100-21964-10380-40000009D0000436D0000500000DCF       GGSL
NJARET20100-21964-10386-60000024D0000311D0001500002CUTE      GGSL
NJARET20100-21964-10461-00000006D0000102D0000400002LF4       GGSL
NJARET20100-21964-10466-50000012D0000203D0000400000WH3       GGSL
NJARET20100-21964-10481-80000012D0000072D0001200005AM        GGSL
NJARET20100-21964-10901-10000012D0000041D0000100000CPR       GGSL
NJARET20100-21964-20061-90000008D0000461D0000800002SDC       GGSL
NJARET20100-21964-20070-10000002D0000082D0000200002RETRO     GGSL
NJARET20100-21964-20078-70000003D0000168D0000300000B7DCWOB7  GGSL
NJARET20100-21964-20500-30000032D0004030D0003900002YF        GGSL
NJARET20100-21964-20510-20000008D0000671D0000900002YCPD90    GGSL
NJARET20100-21964-20520-10000010D0000806D0004200008YCPW180   GGSL
NJARET20100-21964-20530-00000002D0000168D0001500000YCPT360   GGSL
NJARET20100-21964-25241-00000006D0000139D0000800002CC12S     GGSL
NJARET20100-21964-25242-70000018D0000662D0001100005CC18S     GGSL
NJARET20100-21964-25245-80000006D0000221D0000900003CC18N     GGSL
NJARET20100-21964-25246-50000006D0000262D0000400000CC24N     GGSL
NJARET20100-21964-25256-40000018D0000531D0000700003CC12FM    GGSL
NJARET20100-21964-30406-50000012D0000110D0000600006SFD       GGSL
NJARET20100-21964-40043-90000006D0000108D0001000005CJM8G     GGSL
NJARET20100-21964-40053-80000102D0002269D0002100004CJM15G    GGSL
NJARET20100-21964-40063-70000024D0000692D0001000005CJM23G    GGSL
NJARET20100-21964-41064-30000002D0000051D0000000000CJTHM23BX GGSL
NJARET20100-21964-41073-50000012D0000251D0000500005CJTHM15Y  GGSL
NJARET20100-21964-41084-10000006D0000177D0000100000CJTHM36Y  GGSL
NJARET20100-21964-41086-50000006D0000099D0000300003CJTHM8Y   GGSL
NJARET20100-21964-50043-60000012D0000267D0000800002CJM13GP   GGSL
NJARET20100-21964-50059-70000006D0000152D0000200001CJM13FSY  GGSL
NJARET20100-21964-50111-20000018D0000131D0000600003WHK       GGSL
NJARET20100-21964-50202-70000018D0000089D0000200001LC18      GGSL
NJARET20100-21964-50227-00000006D0000031D0000100001SWH8      GGSL
NJARET20100-21964-60100-30000004D0000121D0000300002GS        GGSL
NJARET20100-21964-60527-80000006D0000214D0000100000UPA       GGSL
NJARET20100-21964-60528-50000012D0000229D0000100000RLS       GGSL
NJARET20100-21964-70101-70000012D0000138D0000100001SS2       GGSL
NJARET20100-21964-70202-10000012D0000082D0000200000WWM       GGSL
NJARET20100-22179-10035-00000028D0001579D0000000000LG4110    GGSL
NJARET20100-22179-10084-80000030D0000273D0000000000LG7220    GGSL
NJARET20100-22179-10124-10000012D0000070D0000900006LG6515    GGSL
NJARET20100-22179-10157-90000018D0000391D0000700004LG6530    GGSL
NJARET20100-22179-10163-00002136D0029114D0000000000LG6150    GGSL
NJARET20100-22179-10185-20000012D0000140D0003300018LG6500    GGSL
NJARET20100-22179-10248-40000012D0000103D0001900003LG6575    GGSL
NJARET20100-22179-10266-80000084D0001660D0000300000LG6145    GGSL
NJARET20100-22179-10289-70000060D0000858D0000000000LG8920    GGSL
NJARET20100-22179-10326-90000030D0000865D0001000001LG5482    GGSL
NJARET20100-22179-10327-60000108D0001028D0000200002LG6148    GGSL
NJARET20100-22179-10390-00000084D0000787D0001000001LG6332    GGSL
NJARET20100-22179-10392-40000048D0001353D0000000000LG4300    GGSL
NJARET20100-22179-10408-20000060D0000467D0000100001LG6338    GGSL
NJARET20100-22179-10422-80000006D0000281D0000000000LG6396    GGSL
NJARET20100-22179-10429-70000012D0000223D0000600003LG6334    GGSL
NJARET20100-22401-00301-50000004D0000043D0003200000THD20     GGSL
NJARET20100-23865-09904-00000333D0002534D00002000029904      GGSL
NJARET20100-23865-09908-80000006D0000081D00000000009908      GGSL
NJARET20100-23865-09910-10000292D0004573D00010000009910      GGSL
NJARET20100-23865-09912-50000116D0001863D000410001209912     GGSL
NJARET20100-23865-09915-60000036D0000786D000030000009915     GGSL
NJARET20100-23865-09983-50000608D0001741D00026000099983      GGSL
NJARET20100-23883-16100-20000016D0000210D001230005616100     GGSL
NJARET20100-23883-16200-90000010D0000182D000830000616200     GGSL
NJARET20100-23883-20010-70000002D0000034D000280000020010     GGSL
NJARET20100-23883-20020-60000001D0000023D000130000020020     GGSL
NJARET20100-23883-63800-90000004D0000367D000010000063800     GGSL
NJARET20100-23883-81008-50000004D0000518D000000000081008A    GGSL
NJARET20100-24114-74712-50000025D0000020D0000900000742012A   GGSL
NJARET20100-24654-05962-70000001D0000292D00007000015962DS    GGSL
NJARET20100-24654-09334-80000014D0000403D00165000009334      GGSL
NJARET20100-24654-30506-90000012D0000054D000210000030506     GGSL
NJARET20100-24654-51806-30000012D0000069D000020000251806     GGSL
NJARET20100-24654-55110-70000006D0000033D000010000151106     GGSL
NJARET20100-25033-01707-80000006D0000073D000040000101707     GGSL
NJARET20100-25033-02077-10000012D0000145D000020000002077     GGSL
NJARET20100-25033-02175-40000028D0001120D000040000002175     GGSL
NJARET20100-25033-02519-60000004D0000123D000010000102519     GGSL
NJARET20100-25033-02520-20000004D0000085D000040000102520     GGSL
NJARET20100-25033-02522-60000003D0000159D000090000702522     GGSL
NJARET20100-25033-02525-70000002D0000129D000190000102525     GGSL
NJARET20100-25033-02720-60000002D0000184D000050000002720     GGSL
NJARET20100-25033-02722-00000002D0000212D000000000002722     GGSL
NJARET20100-25033-02920-00000004D0000554D000010000002920     GGSL
NJARET20100-25033-03801-10000002D0000044D000210000203801     GGSL
NJARET20100-25033-04580-40000002D0000356D000070000004580     GGSL
NJARET20100-25033-12202-40000042D0000310D000050000112202     GGSL
NJARET20100-25033-12203-10000006D0000021D000000000012203     GGSL
NJARET20100-25033-12204-80000006D0000033D000100000112204     GGSL
NJARET20100-25033-12285-70000012D0000111D000090000112285     GGSL
NJARET20100-25033-12403-50000001D0000128D000030000112403     GGSL
NJARET20100-25033-12411-00000001D0000172D000000000012411     GGSL
NJARET20100-25033-12412-70000001D0000097D000020000112412     GGSL
NJARET20100-25033-12420-20000001D0000129D000020000012420     GGSL
NJARET20100-25033-12545-20000012D0000060D000010000112545     GGSL
NJARET20100-25033-12730-20000006D0000061D000080000012730     GGSL
NJARET20100-25033-12746-30000072D0001625D000000000012746     GGSL
NJARET20100-25033-12756-20000006D0000115D000010000012756     GGSL
NJARET20100-25033-15660-90000001D0000148D000000000015660     GGSL
NJARET20100-25033-20215-30000002D0000325D000000000020215     GGSL
NJARET20100-25531-01234-60000022D0000747D000020000075160     GGSL
NJARET20100-25849-10381-10000090D0002651D000030000110381RG   GGSL
NJARET20100-25849-20381-80000060D0001810D000000000020381RG   GGSL
NJARET20100-25849-20381-80000060D0001823D000000000020381RGX  GGSL
NJARET20100-25881-09984-40000004D0000070D0001800000 09984    GGSL
NJARET20100-25881-09985-10000004D0000082D0001200000 09985    GGSL
NJARET20100-25881-10712-90000005D0000078D0000000000 10712    GGSL
NJARET20100-26432-24016-60000006D0000518D0001300000SB4000PRCGGGSL
NJARET20100-26600-89334-70000136D0000281D004920000089334     GGSL
NJARET20100-26978-02182-30000010D0000049D000240000202182     GGSL
NJARET20100-26978-02188-50000010D0000039D000400000002188     GGSL
NJARET20100-26978-02242-40000020D0000107D000230000402242     GGSL
NJARET20100-26978-02248-60000010D0000044D000150000102248     GGSL
NJARET20100-26978-02302-50000010D0000071D000610000402302     GGSL
NJARET20100-26978-02308-70000010D0000056D000290000002308     GGSL
NJARET20100-26978-02368-10000040D0000274D000460000002368     GGSL
NJARET20100-26978-03060-30000010D0000042D000050000003060     GGSL
NJARET20100-26978-03082-50000040D0000315D000080000003082     GGSL
NJARET20100-26978-03102-00000025D0000328D00000000000310205   GGSL
NJARET20100-26978-03122-80000010D0000183D00005000000312205   GGSL
NJARET20100-26978-05041-00000252D0000445D000350002505041     GGSL
NJARET20100-26978-05071-70000036D0000042D000200000005071     GGSL
NJARET20100-26978-05081-60000504D0000645D000020000105081     GGSL
NJARET20100-26978-05121-90000036D0000044D000010000005121     GGSL
NJARET20100-26978-08060-80000040D0000169D000080000008060     GGSL
NJARET20100-26978-08062-20000030D0000127D000110000008062     GGSL
NJARET20100-26978-08082-00000040D0000315D000090000008082     GGSL
NJARET20100-26978-08097-40000010D0000067D000050000008097     GGSL
NJARET20100-26978-08098-10000010D0000067D000050000008098     GGSL
NJARET20100-26978-08710-20000020D0000279D000060000008710     GGSL
NJARET20100-26978-08813-00000015D0000080D000030000008813     GGSL
NJARET20100-26978-10010-80000030D0000109D000390000110010     GGSL
NJARET20100-26978-10012-20000030D0000109D000380000110012     GGSL
NJARET20100-26978-10013-90000030D0000109D000330000110013     GGSL
NJARET20100-26978-10020-70000030D0000203D000310000510020     GGSL
NJARET20100-26978-10022-10000030D0000203D000330000410022     GGSL
NJARET20100-26978-10023-80000030D0000203D000280000510023     GGSL
NJARET20100-26978-10062-70000150D0000398D000010000110062     GGSL
NJARET20100-26978-10068-90000150D0000389D000020000210068     GGSL
NJARET20100-26978-10082-50000220D0000785D000030000210082     GGSL
NJARET20100-26978-10088-70000150D0000532D000110000210088     GGSL
NJARET20100-26978-10102-00000120D0000624D000000000010102     GGSL
NJARET20100-26978-10108-20000120D0000632D000010000010108     GGSL
NJARET20100-26978-10122-80000095D0000727D000030000210122     GGSL
NJARET20100-26978-10128-00000070D0000533D000050000310128     GGSL
NJARET20100-26978-10142-60000045D0000439D000000000010142     GGSL
NJARET20100-26978-10148-50000030D0000279D000130000110148     GGSL
NJARET20100-26978-10183-90000020D0000064D000310000010183     GGSL
NJARET20100-26978-10185-30000010D0000032D000220000010185     GGSL
NJARET20100-26978-10243-00000020D0000071D000380000010243     GGSL
NJARET20100-26978-10302-40000030D0000118D000460000010302     GGSL
NJARET20100-26978-16190-10000010D0000044D000470000116190     GGSL
NJARET20100-26978-16193-20000010D0000044D000510000316193     GGSL
NJARET20100-26978-16195-60000010D0000044D000620000316195     GGSL
NJARET20100-26978-16243-40000010D0000054D000640000616243     GGSL
NJARET20100-26978-16245-80000020D0000108D000480000616245     GGSL
NJARET20100-26978-16302-80000010D0000068D000650000216302     GGSL
NJARET20100-26978-16305-90000010D0000068D000300000316305     GGSL
NJARET20100-26978-16365-30000010D0000102D000430000216365     GGSL
NJARET20100-26978-26140-30000030D0000270D000150000426140     GGSL
NJARET20100-26978-26142-70000200D0001800D000090000326142     GGSL
NJARET20100-26978-26145-80000010D0000090D000060000026145     GGSL
NJARET20100-26978-26180-90000010D0000144D000100000026180     GGSL
NJARET20100-26978-26182-30000020D0000288D000270000226182     GGSL
NJARET20100-26978-26272-10000010D0000115D000000000026272     GGSL
NJARET20100-26978-30301-10000156D0000641D000220000130301     GGSL
NJARET20100-26978-30409-40000024D0000132D000280000330409     GGSL
NJARET20100-26978-30500-80000010D0000050D000030000130500     GGSL
NJARET20100-26978-30602-90000390D0001349D002350000630602     GGSL
NJARET20100-26978-30605-00000090D0000356D000010000130605     GGSL
NJARET20100-26978-30702-60000036D0000139D000000000030702     GGSL
NJARET20100-26978-30705-70000048D0000185D000010000030705     GGSL
NJARET20100-26978-30806-10000012D0000051D000320000230806     GGSL
NJARET20100-26978-30809-20000006D0000025D000380000230809     GGSL
NJARET20100-26978-31100-90000045D0000270D000060000331100     GGSL
NJARET20100-26978-31108-50000010D0000060D000080000331108     GGSL
NJARET20100-26978-31109-20000015D0000090D000020000231109     GGSL
NJARET20100-26978-31120-70000005D0000062D000070000231120     GGSL
NJARET20100-26978-31121-40000010D0000125D000080000131121     GGSL
NJARET20100-26978-31128-30000010D0000125D000080000131128     GGSL
NJARET20100-26978-31129-00000015D0000187D000040000031129     GGSL
NJARET20100-26978-31168-90000005D0000120D000090000031168     GGSL
NJARET20100-26978-32108-40000015D0000115D000390000132108     GGSL
NJARET20100-26978-32109-10000025D0000192D000050000032109     GGSL
NJARET20100-26978-32128-20000040D0000544D000100000132128     GGSL
NJARET20100-26978-32129-90000035D0000476D000030000032129     GGSL
NJARET20100-26978-34061-00000050D0000212D000090000234061     GGSL
NJARET20100-26978-34063-40000020D0000085D000090000234063     GGSL
NJARET20100-26978-34068-90000070D0000296D000150000034068     GGSL
NJARET20100-26978-34081-80000090D0000676D000030000134081     GGSL
NJARET20100-26978-34083-20000050D0000376D000130000134083     GGSL
NJARET20100-26978-34088-70000050D0000376D000170000134088     GGSL
NJARET20100-26978-34101-30000030D0000375D000080000134101     GGSL
NJARET20100-26978-34103-70000020D0000250D000060000134103     GGSL
NJARET20100-26978-34108-20000010D0000125D000070000234108     GGSL
NJARET20100-26978-34121-10000030D0000523D000060000034121     GGSL
NJARET20100-26978-34123-50000015D0000261D000050000034123     GGSL
NJARET20100-26978-34128-00000035D0000610D000040000134128     GGSL
NJARET20100-26978-34143-50000015D0000383D000060000034143     GGSL
NJARET20100-26978-34148-00000012D0000307D000030000034148     GGSL
NJARET20100-26978-35061-90000050D0000212D000080000135061     GGSL
NJARET20100-26978-35069-50000030D0000127D000040000035069     GGSL
NJARET20100-26978-35080-00000030D0000236D000180000235080     GGSL
NJARET20100-26978-35081-70000030D0000236D000170000135081     GGSL
NJARET20100-26978-35086-20000010D0000079D000060000235086     GGSL
NJARET20100-26978-35088-60000090D0000709D000010000035088     GGSL
NJARET20100-26978-35089-30000020D0000158D000040000135089     GGSL
NJARET20100-26978-35101-20000005D0000076D000050000035101     GGSL
NJARET20100-26978-35106-70000005D0000076D000030000135106     GGSL
NJARET20100-26978-35108-10000030D0000458D000060000035108     GGSL
NJARET20100-26978-35109-80000010D0000153D000020000035109     GGSL
NJARET20100-26978-35120-30000005D0000109D000080000035120     GGSL
NJARET20100-26978-35121-00000010D0000217D000060000035121     GGSL
NJARET20100-26978-35128-90000020D0000434D000090000035128     GGSL
NJARET20100-26978-35129-60000010D0000217D000040000035129     GGSL
NJARET20100-26978-35138-80000010D0000164D000040000035138     GGSL
NJARET20100-26978-35148-70000010D0000314D000040000035148     GGSL
NJARET20100-26978-35149-40000005D0000157D000080000035149     GGSL
NJARET20100-26978-35169-20000005D0000207D000060000035169     GGSL
NJARET20100-26978-35188-30000002D0000132D000000000035188     GGSL
NJARET20100-26978-35198-20000018D0000570D000170000035198     GGSL
NJARET20100-26978-35199-90000004D0000136D000040000135199     GGSL
NJARET20100-26978-35278-10000010D0000708D000100000135278     GGSL
NJARET20100-26978-35279-80000002D0000162D000060000035279     GGSL
NJARET20100-26978-35358-00000002D0000338D00016000003535801   GGSL
NJARET20100-26978-36105-90000005D0000046D000010000036105     GGSL
NJARET20100-26978-36108-00000005D0000056D000040000136108     GGSL
NJARET20100-26978-36120-20000025D0000392D000000000036120     GGSL
NJARET20100-26978-36128-80000025D0000392D000060000036128     GGSL
NJARET20100-26978-36140-00000020D0000268D000060000036140     GGSL
NJARET20100-26978-36148-60000035D0000469D000010000136148     GGSL
NJARET20100-26978-36220-90000010D0000235D000140000036220     GGSL
NJARET20100-26978-36298-80000005D0000144D000270000036298     GGSL
NJARET20100-26978-38142-20000036D0000190D000130000338142     GGSL
NJARET20100-26978-38146-00000024D0000126D000100000338146     GGSL
NJARET20100-26978-38148-40000240D0001245D000090000238148     GGSL
NJARET20100-26978-38192-70000012D0000144D000110000538192     GGSL
NJARET20100-26978-38196-50000174D0002081D000310000138196     GGSL
NJARET20100-26978-38198-90000006D0000072D000000000038198     GGSL
NJARET20100-26978-39126-10000012D0000048D000440000139126     GGSL
NJARET20100-26978-39128-50000024D0000095D000040000439128     GGSL
NJARET20100-26978-39182-70000006D0000061D000510000139182     GGSL
NJARET20100-26978-39186-50000006D0000061D000320000139186     GGSL
NJARET20100-26978-39188-90000024D0000245D000160000639188     GGSL
NJARET20100-26978-48098-30000024D0000107D000090000248098     GGSL
NJARET20100-26978-48128-00000150D0000927D000060000248128     GGSL
NJARET20100-26978-48158-00000120D0000848D000010000148158     GGSL
NJARET20100-26978-63060-50000020D0000078D000080000063060     GGSL
NJARET20100-26978-63066-70000040D0000156D000040000063066     GGSL
NJARET20100-26978-63069-80000060D0000233D000050000063069     GGSL
NJARET20100-26978-63070-40000030D0000189D000110000063070     GGSL
NJARET20100-26978-63099-50000020D0000266D000040000063099     GGSL
NJARET20100-26978-81075-50000012D0000042D000010000081075     GGSL
NJARET20100-27652-80203-50000034D0001617D0000600006LG400151  GGSL
NJARET20100-27652-80205-90000046D0003181D0004200006LG400171  GGSL
NJARET20100-27652-82210-10000048D0002714D0000600006LG400272GDGGSL
NJARET20100-27713-20371-90000072D0000109D000100000020371     GGSL
NJARET20100-27856-10001-20010908D0032451D0053900028P10232    GGSL
NJARET20100-27856-10002-90016812D0088431D0268400081P10264    GGSL
NJARET20100-27856-10008-10003692D0050211D0071300000P101      GGSL
NJARET20100-27856-10009-80002517D0023031D0061500034P128      GGSL
NJARET20100-27997-00229-90000024D0000573D0002000000TE        GGSL
NJARET20100-27997-21273-50000012D0000116D0000000000KLRO      GGSL
NJARET20100-28929-04710-40000002D0000415D00025000004710C     GGSL
NJARET20100-28929-04902-30000001D0000049D00000000004902C     GGSL
NJARET20100-28929-06291-60000024D0000777D00000000006391WL    GGSL
NJARET20100-28929-07820-70000001D0000054D00034000022782SPC   GGSL
NJARET20100-28929-08927-20000004D0000365D00079000018927SHDI  GGSL
NJARET20100-28929-49100-60000021D0000405D00005000054910B     GGSL
NJARET20100-28929-49101-30000040D0000771D00008000084910G     GGSL
NJARET20100-28929-49106-80000041D0000790D00004000044910Y     GGSL
NJARET20100-28929-49107-50000041D0000790D00004000044910O     GGSL
NJARET20100-29973-12333-20000080D0000282D000730001214110028P GGSL
NJARET20100-29973-12341-70000028D0000139D0005100051141100216UGGSL
NJARET20100-29973-12349-30000008D0000035D000020000214901028P GGSL
NJARET20100-29973-12456-80000024D0000106D000540000714902028P GGSL
NJARET20100-30541-00801-20000001D0000051D0000600000JCD08BKSM GGSL
NJARET20100-30541-01039-80000024D0000129D0003900017JCD05SM   GGSL
NJARET20100-30541-08878-60000012D0000036D0000300000SMMS      GGSL
NJARET20100-31009-66921-90000012D0000049D00000000002576      GGSL
NJARET20100-31340-10005-10000072D0001320D0001500000B550120   GGSL
NJARET20100-31340-10006-80000132D0001475D0001400004B550125   GGSL
NJARET20100-31340-10017-40000024D0000440D0000600001B550190   GGSL
NJARET20100-31365-05040-90000006D0000036D0001200000 41718    GGSL
NJARET20100-31365-10600-70000012D0000239D0011200036 42808    GGSL
NJARET20100-31365-12205-20000003D0000075D0000900000 49454    GGSL
NJARET20100-31724-85095-40000045D0000787D0000400001850950    GGSL
NJARET20100-31724-88440-90000054D0002501D00000000008844100   GGSL
NJARET20100-31724-88447-80000006D0000226D0000200001884475    GGSL
NJARET20100-32247-00900-30000030D0000090D00027000071009001   GGSL
NJARET20100-32247-00910-20000018D0000044D00009000001009101   GGSL
NJARET20100-32247-02515-70000101D0004322D00212000022515      GGSL
NJARET20100-32247-10500-20000012D0000119D0000600000110500    GGSL
NJARET20100-32247-14900-60000056D0000432D000600000014900     GGSL
NJARET20100-32247-14902-00000028D0000423D000610000114902     GGSL
NJARET20100-32247-14905-10000168D0001309D000690000114905     GGSL
NJARET20100-32247-17183-00000132D0001269D000260000117183     GGSL
NJARET20100-32247-17185-40000072D0001581D000650000017185     GGSL
NJARET20100-32247-17187-80000009D0000485D000180000017187     GGSL
NJARET20100-32247-17290-50000024D0000258D000210000017290     GGSL
NJARET20100-32247-17293-60000006D0000062D000070000017293     GGSL
NJARET20100-32247-17323-00000012D0000116D000000000017323     GGSL
NJARET20100-32247-17325-40000016D0000333D000260000017325     GGSL
NJARET20100-32247-17508-10000108D0001413D000010000017508     GGSL
NJARET20100-32247-17511-10000012D0000170D000250000217511     GGSL
NJARET20100-32247-17540-10000064D0001688D000240000017540     GGSL
NJARET20100-32247-18221-80000020D0000496D000000000018221     GGSL
NJARET20100-32247-18225-60000030D0000357D000010000118225     GGSL
NJARET20100-32247-18249-20000011D0000580D000190000018249     GGSL
NJARET20100-32247-18266-90000018D0000239D000300000018266     GGSL
NJARET20100-32247-18269-00000004D0000124D000010000018269     GGSL
NJARET20100-32247-18287-40000036D0000476D000520000018287     GGSL
NJARET20100-32247-18345-10000024D0000306D000190000018345     GGSL
NJARET20100-32247-18348-20000018D0000250D000540000018348     GGSL
NJARET20100-32247-18354-30000006D0000085D000020000018354     GGSL
NJARET20100-32247-20785-00000474D0001849D000720000272078430  GGSL
NJARET20100-32247-21605-00000132D0002718D000700001621605     GGSL
NJARET20100-32247-21814-60000005D0000229D000640003321814     GGSL
NJARET20100-32247-23622-50000075D0001296D003860000023622     GGSL
NJARET20100-32247-26002-20000004D0000267D000370000026002A    GGSL
NJARET20100-32247-26003-90000002D0000055D000090000026003D    GGSL
NJARET20100-32247-26784-70000030D0000120D000390000072678430  GGSL
NJARET20100-32247-27764-80000112D0000465D000120000172776430  GGSL
NJARET20100-32247-30156-50000020D0000339D000770000230156     GGSL
NJARET20100-32247-36905-30000008D0000305D002820000036905     GGSL
NJARET20100-32247-38505-30000001D0000018D002480000038505     GGSL
NJARET20100-32247-38605-00000024D0000428D000500000038605D    GGSL
NJARET20100-32247-38615-90000012D0000512D000600000038615     GGSL
NJARET20100-32247-42784-50000348D0001386D000330000074278430  GGSL
NJARET20100-32247-44615-00000007D0000169D000350000044615A    GGSL
NJARET20100-32247-47783-30000120D0000480D000350000074778300  GGSL
NJARET20100-32247-49785-50000024D0000098D000140000074978500  GGSL
NJARET20100-32247-50240-50000026D0001617D000860000050240     GGSL
NJARET20100-32247-50250-40000030D0000722D003450000050250     GGSL
NJARET20100-32247-51105-60000005D0000066D001950000551105     GGSL
NJARET20100-32247-51115-50000005D0000186D001410000051115     GGSL
NJARET20100-32247-52784-20000042D0000181D000470000085278430  GGSL
NJARET20100-32247-53105-40000020D0000195D001800000053105     GGSL
NJARET20100-32247-53115-30000015D0000395D001320000053115     GGSL
NJARET20100-32247-55513-50000015D0000145D000800000075551300X GGSL
NJARET20100-32247-55523-40000004D0000061D000360000075552300X GGSL
NJARET20100-32247-55783-20000072D0000357D000410000075578300  GGSL
NJARET20100-32247-55783-20000120D0000546D000000000075578309  GGSL
NJARET20100-32247-55863-10000010D0000081D000810000075586300X GGSL
NJARET20100-32247-56063-40000008D0000041D000120000045606300  GGSL
NJARET20100-32247-56513-40000390D0003213D000320000975651300  GGSL
NJARET20100-32247-56513-40000010D0000087D000600000475651300X GGSL
NJARET20100-32247-56523-30000144D0001656D000320000975652300  GGSL
NJARET20100-32247-56783-10001530D0006969D002100002475678300  GGSL
NJARET20100-32247-56783-10000600D0002750D000080000375678309  GGSL
NJARET20100-32247-56863-00000182D0001322D000080000075686300  GGSL
NJARET20100-32247-56863-00000036D0000261D000980002275686300X GGSL
NJARET20100-32247-71060-20000042D0000541D000100000171060     GGSL
NJARET20100-32247-71131-90000004D0000075D000000000071131     GGSL
NJARET20100-32247-74150-70000276D0001499D0021900016274150    GGSL
NJARET20100-32247-74250-40000120D0000991D0025500013274250    GGSL
NJARET20100-32247-74850-60000036D0000648D0015700008274850    GGSL
NJARET20100-32247-75902-10000008D0000644D000070000075902     GGSL
NJARET20100-32247-76121-50000021D0000745D000230000176121     GGSL
NJARET20100-32247-76232-80000003D0000184D000020000276232     GGSL
NJARET20100-32247-77160-30000036D0000176D0020500020277160    GGSL
NJARET20100-32247-77260-00000084D0000721D0005700009277260    GGSL
NJARET20100-32247-77860-20000120D0001700D0002200007277860    GGSL
NJARET20100-32247-77960-90000032D0000658D0024500007277960    GGSL
NJARET20100-32247-90550-30000001D0000099D0003900003 671025   GGSL
NJARET20100-32247-95517-10000360D0001772D000050000079551750  GGSL
NJARET20100-32247-99605-10000006D0000136D003030000599605     GGSL
NJARET20100-32903-00169-30000120D0000145D0000100001SLI06000E3GGSL
NJARET20100-32903-00171-60000048D0000058D0002200005SLI06000A3GGSL
NJARET20100-32903-00192-10000144D0000174D0001100005SLI06000B9GGSL
NJARET20100-32903-00203-40000002D0000151D0000600000TEA30000G2GGSL
NJARET20100-32903-00214-00000144D0000174D0001400001SLI06000E2GGSL
NJARET20100-32903-00222-50000048D0000074D0001100002SLI08000B9GGSL
NJARET20100-32903-00240-90000120D0000186D0004300001SLI08000E2GGSL
NJARET20100-32903-00246-10000048D0000074D0000800000SLI08000A3GGSL
NJARET20100-32903-00258-40000360D0000634D0000800004LIA06000E2GGSL
NJARET20100-32903-00264-50000168D0000447D0001100011LIA08000E2GGSL
NJARET20100-32903-00281-20000168D0000685D0001900004LIA10000E2GGSL
NJARET20100-32903-00283-60000012D0000074D0000300000GAB14000E2GGSL
NJARET20100-32903-00293-50000096D0000208D0000900003SLI10000E2GGSL
NJARET20100-32903-00309-30000288D0000625D0000800008SLI10000E3GGSL
NJARET20100-32903-00326-00000120D0000785D0000700004LIA12000E2GGSL
NJARET20100-32903-00332-10000168D0000365D0001900012SLI10000B9GGSL
NJARET20100-32903-00338-30000036D0000078D0001100008SLI10000A3GGSL
NJARET20100-32903-00341-30000060D0000480D0000600006SLI24000E3GGSL
NJARET20100-32903-00359-80000144D0000223D0000600006SLI08000E3GGSL
NJARET20100-32903-04255-90000012D0000099D0001100003LIA14000E2GGSL
NJARET20100-32903-04257-30000036D0000132D0000800001SLI12000E2GGSL
NJARET20100-32903-07530-40000036D0000141D0001100000SLI14000E2GGSL
NJARET20100-32903-07534-20000006D0000103D0000700002LIA20000E2GGSL
NJARET20100-32903-07558-80000018D0000064D0000000000RZWC1Q0B9 GGSL
NJARET20100-32903-07563-20000036D0000157D0000500001SLI17000E2GGSL
NJARET20100-32903-12006-60000888D0001563D0003800015LIA06000E3GGSL
NJARET20100-32903-12008-00000864D0002298D0002400008LIA08000E3GGSL
NJARET20100-32903-12010-30000456D0001860D0003100019LIA10000E3GGSL
NJARET20100-32903-12012-70000612D0004002D0004900015LIA12000E3GGSL
NJARET20100-32903-12014-10000264D0002181D0003200009LIA14000E3GGSL
NJARET20100-32903-12017-20000156D0001998D0003300006LIA16000E3GGSL
NJARET20100-32903-12020-20000024D0000412D0002000005LIA20000E3GGSL
NJARET20100-32903-12024-00000018D0000412D0001400006LIA24000E3GGSL
NJARET20100-32903-12115-50000012D0000204D0000300000ROS15500E3GGSL
NJARET20100-32903-12312-80000096D0000507D0000300002CNA12000E3GGSL
NJARET20100-32903-12712-60000036D0000159D0002000012GAB12000E3GGSL
NJARET20100-32903-12714-00000048D0000295D0004200006GAB14000E3GGSL
NJARET20100-32903-12718-80000012D0000114D0005300005GAB18000E3GGSL
NJARET20100-32903-12722-50000006D0000090D0003100001GAB22000E3GGSL
NJARET20100-32903-12824-60000012D0000094D0003400002VNP24000E3GGSL
NJARET20100-32903-12830-70000018D0000183D0002300000VNP30000E3GGSL
NJARET20100-32903-23732-00000018D0000118D0000300001SLI20000E2GGSL
NJARET20100-32903-30392-60000192D0000422D0001400002CNA08000E3GGSL
NJARET20100-32903-35947-30000108D0000363D0000000000CNA10000E3GGSL
NJARET20100-32903-40400-50000132D0000539D0001300009LIA10000A3GGSL
NJARET20100-32903-40493-70000432D0001149D0001800008LIA08000B9GGSL
NJARET20100-32903-41640-40000264D0000702D0000200002LIA08000A3GGSL
NJARET20100-32903-41717-30000084D0000694D0002600009LIA14000B9GGSL
NJARET20100-32903-41728-90000216D0001413D0004000015LIA12000B9GGSL
NJARET20100-32903-41909-20000036D0000461D0000600002LIA16000A3GGSL
NJARET20100-32903-42050-00000018D0000412D0001100000LIA24000A3GGSL
NJARET20100-32903-42240-50000360D0000634D0002500007LIA06000B9GGSL
NJARET20100-32903-45170-20000036D0000297D0001200004LIA14000A3GGSL
NJARET20100-32903-46337-80000072D0000922D0001700006LIA16000B9GGSL
NJARET20100-32903-46966-00000012D0000206D0001000004LIA20000A3GGSL
NJARET20100-32903-47208-00000036D0000235D0001600005LIA12000A3GGSL
NJARET20100-32903-48101-30000144D0000253D0001000010LIA06000A3GGSL
NJARET20100-32903-48538-70000018D0000309D0001300002LIA20000B9GGSL
NJARET20100-32903-50286-20000060D0000208D0002700006HSI10008E2GGSL
NJARET20100-32903-50763-80000288D0001057D0000800010SLI12000E3GGSL
NJARET20100-32903-50764-50000048D0000188D0000000000SLI14000B9GGSL
NJARET20100-32903-50766-90000004D0000152D0000000000TEA24000G2GGSL
NJARET20100-32903-50767-60000060D0000220D0000300003SLI12000A3GGSL
NJARET20100-32903-50794-20000012D0000044D0000700004SLI12000B9GGSL
NJARET20100-32903-50802-40000312D0001188D0008500019SLI14000E3GGSL
NJARET20100-32903-50803-10000072D0000282D0002200003SLI14000A3GGSL
NJARET20100-32903-52858-90000018D0000124D0000700000VNP18000B9GGSL
NJARET20100-32903-53271-50000006D0000050D0002100000SLI24000E2GGSL
NJARET20100-32903-56391-70000084D0000291D0005900005HSI10008A1GGSL
NJARET20100-32903-57235-30000012D0000122D0003200021VNP30000B9GGSL
NJARET20100-32903-58303-80000006D0000047D0002400002VNP24000B9GGSL
NJARET20100-32903-61636-10000072D0000250D0004100009HSI10008B6GGSL
NJARET20100-32903-72233-80000252D0001028D0004500009LIA10000B9GGSL
NJARET20100-32903-72518-60000016D0000144D0000900006RZWC2G0B9 GGSL
NJARET20100-32903-72886-60000030D0000188D0000000000RZWC1G0B9 GGSL
NJARET20100-32903-75049-20000036D0000221D0001600010SLI20000E3GGSL
NJARET20100-32903-75051-50000096D0000420D0001800002SLI17000A3GGSL
NJARET20100-32903-75057-70000012D0000052D0000700000SLI17000B9GGSL
NJARET20100-32903-75070-60000030D0000196D0001200002SLI20000A3GGSL
NJARET20100-32903-75076-80000002D0000157D0000200000TES24000G2GGSL
NJARET20100-32903-75080-50000096D0000420D0000900005SLI17000E3GGSL
NJARET20100-32903-75081-20000012D0000078D0000500002SLI20000B9GGSL
NJARET20100-32903-75084-30000018D0000150D0001900000SLI24000A3GGSL
NJARET20100-32903-75089-80000012D0000100D0000600001SLI24000B9GGSL
NJARET20100-32903-91270-80000004D0000117D0000200000RZGH210E3 GGSL
NJARET20100-32903-91516-70000176D0000841D0000000000PPF1000   GGSL
NJARET20100-33200-00020-40004140D0002932D00209000003320000020GGSL
NJARET20100-33200-00544-50005704D0057159D005540002600544     GGSL
NJARET20100-33200-01110-10000144D0000135D0000000000011101    GGSL
NJARET20100-33200-01191-00000436D0003086D000000000001191     GGSL
NJARET20100-33200-06520-30000010D0000047D000920000006520     GGSL
NJARET20100-33200-09142-40001096D0007668D000900001209142     GGSL
NJARET20100-33200-09293-30000916D0006426D00002000029293      GGSL
NJARET20100-33200-09793-80000116D0001085D00062000009793      GGSL
NJARET20100-33200-09991-80000008D0000033D00026000009991      GGSL
NJARET20100-33200-11321-80000336D0000448D001240000111321     GGSL
NJARET20100-33200-11448-20000102D0000173D001140000211448     GGSL
NJARET20100-33200-35240-20000600D0000906D0000000000352402    GGSL
NJARET20100-33200-94182-80006586D0065992D017330090594182     GGSL
NJARET20100-33200-97242-60000016D0000127D002220000097242     GGSL
NJARET20100-33200-97457-40003556D0037018D004300000497457     GGSL
NJARET20100-33287-15032-80000001D0000036D0003700000SGA3070   GGSL
NJARET20100-33349-07750-10000087D0000263D0002300001J4R25     GGSL
NJARET20100-33349-41234-00000050D0000084D0000500001TTRAY     GGSL
NJARET20100-33349-41238-80000028D0000132D0001800014T32       GGSL
NJARET20100-33349-41251-70000030D0000070D0000800002JS50      GGSL
NJARET20100-33349-41318-70000018D0000054D0000200002JP322     GGSL
NJARET20100-33349-41710-90000017D0000054D0000600006J312      GGSL
NJARET20100-33349-66010-90000016D0000100D0001400008TS50HST16 GGSL
NJARET20100-33349-66015-40000042D0000227D0001900005TS20HST14 GGSL
NJARET20100-33349-66016-10000014D0000067D0001600010TS32HST14 GGSL
NJARET20100-33607-00307-50000012D0000146D0000000000TT7BP     GGSL
NJARET20100-33607-00976-30000030D0000518D0000000000RB14      GGSL
NJARET20100-33607-22310-70000004D0000114D0000200000BPL6      GGSL
NJARET20100-33607-52100-50000004D0000189D0000900001GKS2      GGSL
NJARET20100-33745-97185-40000005D0000149D003580000097185X    GGSL
NJARET20100-34411-00018-20000120D0000107D00004000008013641001GGSL
NJARET20100-34411-03060-80000001D0000382D000000000010058050QPGGSL
NJARET20100-34411-05711-70000150D0000986D0025000000 571TFR   GGSL
NJARET20100-34411-74001-90000004D0000203D00017000088740011001GGSL
NJARET20100-34411-92773-10000012D0000094D00027000008702511001GGSL
NJARET20100-34411-92774-80000048D0000582D00016000008705011001GGSL
NJARET20100-34613-00068-30000006D0000097D000060000068WP      GGSL
NJARET20100-34613-00643-20000125D0000056D0000000000CVS006DL  GGSL
NJARET20100-34613-00820-70000012D0000104D0000000000820       GGSL
NJARET20100-34613-00924-20000012D0000213D0000900000924       GGSL
NJARET20100-34613-01902-90000012D0000104D00010000001902      GGSL
NJARET20100-34613-02124-40000012D0000129D00002000002124      GGSL
NJARET20100-34613-03104-50000024D0000232D00001000003104      GGSL
NJARET20100-34613-03378-00000006D0000069D00000000003378      GGSL
NJARET20100-34613-04830-20000042D0000507D00001000004830      GGSL
NJARET20100-34613-05826-40000012D0000176D00002000005826      GGSL
NJARET20100-34613-08138-50000006D0000101D00000000008138      GGSL
NJARET20100-34613-18050-70000084D0000569D00002000028050BL    GGSL
NJARET20100-34613-60566-60000002D0000138D000080000060566     GGSL
NJARET20100-34613-65497-80000002D0000078D000010000065497     GGSL
NJARET20100-34613-65499-20000001D0000036D000030000065499     GGSL
NJARET20100-34613-65682-80000002D0000075D000030000365682     GGSL
NJARET20100-34613-66637-70000012D0002846D000480000166637     GGSL
NJARET20100-35000-00163-40001440D0001742D0000000000US04250A  GGSL
NJARET20100-35000-05361-90001280D0000883D0000100001105375    GGSL
NJARET20100-35000-05364-00000960D0000998D0024000240105374    GGSL
NJARET20100-35000-14112-50000288D0001426D000000000014477     GGSL
NJARET20100-35000-14328-00000306D0001515D000090000014483     GGSL
NJARET20100-35000-14424-90000108D0000113D000000000014424     GGSL
NJARET20100-35000-44628-20000100D0000092D0004700000144631    GGSL
NJARET20100-35000-44629-90000100D0000092D0005400000144632    GGSL
NJARET20100-35000-44673-20003582D0005194D000020000244673     GGSL
NJARET20100-35000-44674-90000090D0000136D000640000044674     GGSL
NJARET20100-35000-45038-50003708D0007358D0000000000US04232A  GGSL
NJARET20100-35000-45816-20000378D0002287D0000000000MX04966A  GGSL
NJARET20100-35000-46057-60000016D0000025D0022800000US04248A  GGSL
NJARET20100-35000-46157-50001996D0008683D000530004446157     GGSL
NJARET20100-35000-47805-40000459D0001081D000490000347805     GGSL
NJARET20100-35000-51119-50000156D0000445D0003900000151119    GGSL
NJARET20100-35000-53031-80000024D0000077D0011100000153042    GGSL
NJARET20100-35000-53032-50000006D0000016D0000000000153041    GGSL
NJARET20100-35000-53058-50003232D0015093D000020000153058     GGSL
NJARET20100-35000-53061-50000012D0000030D000730000053091     GGSL
NJARET20100-35000-53063-90006288D0008489D000000000053063     GGSL
NJARET20100-35000-53100-10000702D0002780D000000000053100     GGSL
NJARET20100-35000-53106-30001488D0002009D000270000753106     GGSL
NJARET20100-35000-53122-30002154D0013032D000310003153122     GGSL
NJARET20100-35000-55190-00000234D0000702D0001200000155190    GGSL
NJARET20100-35000-67123-30000006D0000032D000020000067123     GGSL
NJARET20100-35000-96987-30000405D0002450D0007500000MX06813A  GGSL
NJARET20100-35000-97018-30001848D0011901D0001800018US06329A  GGSL
NJARET20100-35000-97301-60000400D0002652D0000000000US06489A  GGSL
NJARET20100-35000-97335-10001396D0008948D0001100000US06517A  GGSL
NJARET20100-35000-97336-80000892D0005718D0001700000US06516A  GGSL
NJARET20100-35000-97337-50000440D0002820D0001000000US06515A  GGSL
NJARET20100-35000-97343-60000702D0002155D0003300000US06522A  GGSL
NJARET20100-35000-97354-20000012D0000056D0004500009US06531A  GGSL
NJARET20100-35000-98567-50006480D0027198D0000000000US07337A  GGSL
NJARET20100-35000-98568-20004608D0026995D0006400000US07336A  GGSL
NJARET20100-35000-98656-30014076D0019441D0000000000US07384A  GGSL
NJARET20100-35110-01900-00003748D0029144D000050000101900     GGSL
NJARET20100-35110-04915-10000528D0005058D000000000004915     GGSL
NJARET20100-35307-00812-10000060D0000146D0001400006812       GGSL
NJARET20100-35307-00818-30000036D0000063D0000500005818       GGSL
NJARET20100-35307-00826-80000012D0000022D0001600001826       GGSL
NJARET20100-35307-00840-40000012D0000029D0002400006840       GGSL
NJARET20100-35307-00843-50000012D0000035D0001000005843       GGSL
NJARET20100-35307-00844-20000012D0000028D0000700004844       GGSL
NJARET20100-35307-00877-00000012D0000019D0000500001877       GGSL
NJARET20100-35307-00972-20000024D0000135D0001200000972       GGSL
NJARET20100-35307-01040-70000024D0000072D00001000011040      GGSL
NJARET20100-35307-01601-00000030D0000365D00037000061601      GGSL
NJARET20100-35307-01640-90000012D0000067D00009000001640      GGSL
NJARET20100-35307-01847-20000006D0000134D00003000001847      GGSL
NJARET20100-35951-07000-00000384D0003998D000070000307000     GGSL
NJARET20100-35951-07007-90000144D0002256D000190000707007     GGSL
NJARET20100-35951-07009-30000324D0007218D000210000307009     GGSL
NJARET20100-35951-07011-60000136D0009546D000080000707011     GGSL
NJARET20100-35951-07013-00000008D0002536D000120000207014     GGSL
NJARET20100-36151-46825-30000040D0001032D00060000062646825   GGSL
NJARET20100-36241-88786-50000012D0000064D000000000088786     GGSL
NJARET20100-36241-97402-20000048D0000221D0036300000974022    GGSL
NJARET20100-36348-00645-90000018D0000273D00000000000645      GGSL
NJARET20100-36348-00745-60000003D0000076D00007000060745      GGSL
NJARET20100-36348-01045-60000003D0000186D00012000011045      GGSL
NJARET20100-36348-01079-10000007D0000376D00007000061079      GGSL
NJARET20100-36434-12353-40000006D0000099D00020000046012353   GGSL
NJARET20100-36434-12700-60000096D0000803D00154000331012700   GGSL
NJARET20100-36434-13001-30000012D0000063D00026000021013001   GGSL
NJARET20100-36434-13700-50000012D0000100D00021000001032700   GGSL
NJARET20100-36434-15020-20000006D0000106D00043000021015020   GGSL
NJARET20100-36434-15030-10000006D0000126D00033000011015030   GGSL
NJARET20100-36434-17010-10000066D0001471D00001000011017010   GGSL
NJARET20100-36434-20000-60000012D0000272D00011000001020000   GGSL
NJARET20100-36434-22341-80000012D0000148D00018000001022341   GGSL
NJARET20100-36434-28040-40000012D0000168D00003000011028040   GGSL
NJARET20100-37321-00022-80001980D0012809D0008700076022       GGSL
NJARET20100-37321-00023-50000060D0001208D0000800007023       GGSL
NJARET20100-37321-00024-20005544D0066683D0000500005024       GGSL
NJARET20100-37321-00025-90000048D0000395D0000000000025       GGSL
NJARET20100-37321-00050-10000072D0000072D0000300000050       GGSL
NJARET20100-37321-00051-80000006D0000075D0001900011051       GGSL
NJARET20100-37321-00061-70000132D0001005D0002100008061       GGSL
NJARET20100-37321-00066-20000012D0000146D0000700002066       GGSL
NJARET20100-37321-00069-30000012D0000163D0004100001069       GGSL
NJARET20100-37321-00081-50000072D0000479D0000400000081       GGSL
NJARET20100-37321-00097-60000012D0000067D0001300002097       GGSL
NJARET20100-37321-00098-30000105D0000486D0001400004098       GGSL
NJARET20100-37321-00099-00000372D0002527D0000900003099       GGSL
NJARET20100-37321-00102-70000096D0001115D0001000001102       GGSL
NJARET20100-37321-00103-40000028D0000961D0002100000103       GGSL
NJARET20100-37321-00105-80000012D0000036D0000000000105       GGSL
NJARET20100-37321-00106-50000072D0000213D0000100001106       GGSL
NJARET20100-37321-00108-90000024D0000069D0000300003108       GGSL
NJARET20100-37321-00116-40000072D0000241D0000100001116       GGSL
NJARET20100-37321-00120-10000012D0000066D0000000000120       GGSL
NJARET20100-37321-00127-00001932D0016613D0000900009127       GGSL
NJARET20100-37321-00141-60002616D0012078D0000600005141       GGSL
NJARET20100-37321-00142-30000012D0000110D0000000000142       GGSL
NJARET20100-37321-00147-80000012D0000081D0001100001147       GGSL
NJARET20100-37321-00160-70000036D0000127D0000000000160       GGSL
NJARET20100-37321-00161-40000048D0000251D0000900000161       GGSL
NJARET20100-37321-00165-20000004D0000049D0003800000165       GGSL
NJARET20100-37321-00166-90006552D0036822D0000600004166       GGSL
NJARET20100-37321-00167-60000372D0002269D0009900015167       GGSL
NJARET20100-37321-00198-00000060D0000694D0000000000198       GGSL
NJARET20100-37321-00210-90000732D0004363D0002000006210       GGSL
NJARET20100-37321-00211-60000084D0000723D0000400001211       GGSL
NJARET20100-37321-00212-30000016D0000318D0001800002212       GGSL
NJARET20100-37321-00213-00000372D0003766D0001900005213       GGSL
NJARET20100-37321-00214-70001560D0008500D0002000009214       GGSL
NJARET20100-37321-00216-10000012D0000203D0001600005216       GGSL
NJARET20100-37321-00217-80000024D0000251D0000800001217       GGSL
NJARET20100-37321-00218-50000012D0000183D0000400002218       GGSL
NJARET20100-37321-00221-50000144D0000806D0001100005221       GGSL
NJARET20100-37321-00225-30000036D0000208D0000000000225       GGSL
NJARET20100-37321-00227-70000048D0000568D0000400002227       GGSL
NJARET20100-37321-00230-70000480D0004222D0001000001230       GGSL
NJARET20100-37321-00237-60000144D0001917D0001200002237       GGSL
NJARET20100-37321-00238-30000696D0006010D0005000012238       GGSL
NJARET20100-37321-00239-00000004D0000094D0000600002239       GGSL
NJARET20100-37321-00240-60000036D0000607D0002400004240       GGSL
NJARET20100-37321-00250-50000252D0001338D0002100015250       GGSL
NJARET20100-37321-00252-90000048D0000600D0001200004252       GGSL
NJARET20100-37321-00253-60000036D0000716D0003200003253       GGSL
NJARET20100-37321-00255-00000048D0001018D0003800009255       GGSL
NJARET20100-37321-00257-40000060D0000238D0002200005257       GGSL
NJARET20100-37321-00258-10000552D0003587D0000600003258       GGSL
NJARET20100-37321-00272-70000012D0000049D0001900008272       GGSL
NJARET20100-37321-00274-10000060D0000402D0000700003274       GGSL
NJARET20100-37321-00285-70003444D0020248D0000800003285       GGSL
NJARET20100-37321-00299-40000048D0000416D0000900005299       GGSL
NJARET20100-37321-00301-40000012D0000104D0001100000301       GGSL
NJARET20100-37321-00307-60000060D0000281D0001400002307       GGSL
NJARET20100-37321-00308-30000020D0000209D0001300002308       GGSL
NJARET20100-37321-00309-00000012D0000211D0001700003309       GGSL
NJARET20100-37321-00310-60000018D0000559D0000700001310       GGSL
NJARET20100-37321-00312-00000036D0000738D0000800000312       GGSL
NJARET20100-37321-00321-20000012D0000073D0002100001321       GGSL
NJARET20100-37321-00322-90000004D0000076D0001400001322       GGSL
NJARET20100-37321-00323-60000018D0000182D0000700001323       GGSL
NJARET20100-37321-00330-40000132D0001338D0000400001330       GGSL
NJARET20100-37321-00370-00000012D0000056D0000100001370       GGSL
NJARET20100-37321-00371-70000048D0000265D0001600003371       GGSL
NJARET20100-37321-00372-40000008D0000082D0001800001372       GGSL
NJARET20100-37321-00411-00000036D0000121D0000700000411       GGSL
NJARET20100-37321-00412-70000036D0000186D0000400000412       GGSL
NJARET20100-37321-00426-40000060D0000637D0002500008426       GGSL
NJARET20100-37321-00428-80000300D0001196D0003500023428       GGSL
NJARET20100-37321-00429-50000003D0000061D0000300002429       GGSL
NJARET20100-37321-00442-40000036D0000238D0001400006442       GGSL
NJARET20100-37321-00443-10000108D0001200D0001500002443       GGSL
NJARET20100-37321-00527-80000024D0000094D0000800003527       GGSL
NJARET20100-37321-00530-80000004D0000042D0001600001530       GGSL
NJARET20100-37321-00543-80000048D0000136D0000400003543       GGSL
NJARET20100-37321-00549-00000060D0000583D0000600000549       GGSL
NJARET20100-37321-00560-50000012D0000038D0000600000560       GGSL
NJARET20100-37321-00564-30000012D0000129D0000900000564       GGSL
NJARET20100-37321-00571-10000012D0000103D0000600000571       GGSL
NJARET20100-37321-00574-20000012D0000098D0000600000574       GGSL
NJARET20100-37321-00603-90000012D0000157D0002700000603       GGSL
NJARET20100-37321-00609-10000240D0002659D0001900002609       GGSL
NJARET20100-37321-00611-40000028D0000927D0000500005611       GGSL
NJARET20100-37321-00613-80000016D0000222D00009000010613      GGSL
NJARET20100-37321-00629-90000012D0000040D0000500000629       GGSL
NJARET20100-37321-00631-20000216D0000861D0000800008631       GGSL
NJARET20100-37321-00652-70000036D0000192D0000100003652       GGSL
NJARET20100-37321-00655-80000228D0001527D00014000096556      GGSL
NJARET20100-37321-00680-00000012D0000121D0001400007680       GGSL
NJARET20100-37321-00685-50000012D0000146D0000300000685       GGSL
NJARET20100-37321-00688-60000036D0000238D0006700008688       GGSL
NJARET20100-37321-00690-90000012D0000135D0000000000690       GGSL
NJARET20100-37321-00691-60000018D0000155D0000200000691       GGSL
NJARET20100-37321-00692-30000272D0003596D0001500008692       GGSL
NJARET20100-37321-00697-80000132D0000533D0000500001697       GGSL
NJARET20100-37321-00698-50000120D0000662D0002000006698       GGSL
NJARET20100-37321-00705-00000012D0000075D0002100001705       GGSL
NJARET20100-37321-00728-90000024D0000307D0002000002728       GGSL
NJARET20100-37321-00730-20000012D0000072D0000500001730       GGSL
NJARET20100-37321-00731-90000008D0000080D0002400001731       GGSL
NJARET20100-37321-00771-50000420D0002140D0000500003771       GGSL
NJARET20100-37321-00775-30000924D0005461D0033100026775       GGSL
NJARET20100-37321-00777-70000144D0001396D0004300005777       GGSL
NJARET20100-37321-00779-10000048D0000414D0000700004779       GGSL
NJARET20100-37321-00786-90000024D0000117D0001900005786       GGSL
NJARET20100-37321-00789-00000005D0000035D0008300000789       GGSL
NJARET20100-37321-00802-60000756D0004411D0001700007802       GGSL
NJARET20100-37321-00803-30000132D0001300D0018200009803       GGSL
NJARET20100-37321-00806-40000036D0000292D0000500005806       GGSL
NJARET20100-37321-00811-80001104D0013160D0000500004811       GGSL
NJARET20100-37321-00813-20000024D0000354D0001700003813       GGSL
NJARET20100-37321-00858-30000024D0000366D0000700002858       GGSL
NJARET20100-37321-00862-00000240D0003106D0003000000862       GGSL
NJARET20100-37321-00863-70000639D0008306D0000700004863       GGSL
NJARET20100-37321-00865-10000336D0001858D0000800006865       GGSL
NJARET20100-37321-00866-80000348D0005057D0000200002866       GGSL
NJARET20100-37321-00868-20000030D0000400D0001200003868       GGSL
NJARET20100-37321-00870-50000012D0000056D0000600001870       GGSL
NJARET20100-37321-00871-20000240D0002388D0000400000871       GGSL
NJARET20100-37321-00875-00000012D0000135D0000200001875       GGSL
NJARET20100-37321-00880-40000048D0000595D0000600002880       GGSL
NJARET20100-37321-00881-10000012D0000274D0000300001881       GGSL
NJARET20100-37321-00883-50000996D0005088D0016400015883       GGSL
NJARET20100-37321-00897-20000312D0001933D0000200002897       GGSL
NJARET20100-37321-00903-00000012D0000079D0001800008903       GGSL
NJARET20100-37321-00904-70000024D0000215D0002500001904       GGSL
NJARET20100-37321-00905-40000024D0000346D0001300001905       GGSL
NJARET20100-37321-00908-50000036D0000374D0001700004908       GGSL
NJARET20100-37321-00917-70000114D0001420D0006600002917       GGSL
NJARET20100-37321-00925-20001008D0003113D0031200047925       GGSL
NJARET20100-37321-00941-20000036D0000397D0000400004941       GGSL
NJARET20100-37321-00944-30000036D0000206D0000800002944       GGSL
NJARET20100-37321-00952-80000204D0001145D0000500004952       GGSL
NJARET20100-37321-00963-40000060D0000584D0000500000963       GGSL
NJARET20100-37321-00978-80000072D0000390D0000800003978       GGSL
NJARET20100-37321-00986-30000072D0000421D0000100000986       GGSL
NJARET20100-37321-00987-00000048D0000466D0001900003987       GGSL
NJARET20100-37321-00992-40000012D0000117D0000900000992       GGSL
NJARET20100-37321-02360-90000156D0001157D00034000082360      GGSL
NJARET20100-37321-02361-60000696D0008504D00024000062361      GGSL
NJARET20100-37321-02362-30000076D0001533D00017000032362      GGSL
NJARET20100-37321-02392-00000003D0000102D00006000032392      GGSL
NJARET20100-37321-02405-70000060D0002639D00000000002405      GGSL
NJARET20100-37321-03081-20000006D0000125D00007000023081      GGSL
NJARET20100-37321-05131-20000004D0000061D00012000075131      GGSL
NJARET20100-37321-05612-60000060D0000615D00011000015612      GGSL
NJARET20100-37321-05710-90000024D0000159D00009000005710      GGSL
NJARET20100-37321-07461-80000012D0000141D00012000007461      GGSL
NJARET20100-37321-07465-60000004D0000136D00011000057465      GGSL
NJARET20100-37321-07490-80000006D0000038D00066000077490      GGSL
NJARET20100-37321-07492-20000004D0000081D00021000017492      GGSL
NJARET20100-37321-07497-70000036D0000151D00028000017497      GGSL
NJARET20100-37321-07498-40000008D0000094D00014000007498      GGSL
NJARET20100-37321-08751-90000144D0000762D00002000018751      GGSL
NJARET20100-37321-09534-70000072D0000870D00010000059534      GGSL
NJARET20100-37321-30103-50000002D0000118D000100000430103     GGSL
NJARET20100-37321-45504-20000072D0000857D000040000045504     GGSL
NJARET20100-37321-45702-20000012D0000077D000120000045702     GGSL
NJARET20100-37321-46125-80000050D0000102D000280000046125     GGSL
NJARET20100-37321-46169-20000027D0000262D000000000046169     GGSL
NJARET20100-37321-46177-70000216D0002100D000000000046177     GGSL
NJARET20100-37321-46190-60000024D0000077D000050000046190     GGSL
NJARET20100-37321-47062-50000192D0000135D000030000347062     GGSL
NJARET20100-37321-60200-20000024D0000109D000060000060200     GGSL
NJARET20100-37321-60201-90000010D0000103D000090000060202     GGSL
NJARET20100-37321-60204-00000050D0001093D000010000060205     GGSL
NJARET20100-37321-60210-10000012D0000055D000010000060210     GGSL
NJARET20100-37321-60214-90000015D0000332D000150000060215     GGSL
NJARET20100-37321-60217-00000006D0000331D000390000160217     GGSL
NJARET20100-37321-60219-40000001D0000127D000000000060219     GGSL
NJARET20100-37321-60221-70000020D0000206D000310000060222     GGSL
NJARET20100-37321-60224-80000125D0002737D000030000060225     GGSL
NJARET20100-37321-60227-90000046D0002472D000030000060227     GGSL
NJARET20100-37321-60254-50000025D0000498D000010000060255     GGSL
NJARET20100-37321-60259-00000004D0000373D000010000060259     GGSL
NJARET20100-37321-60271-20000090D0000891D000010000060272     GGSL
NJARET20100-37321-60360-30000020D0000286D000000000060360     GGSL
NJARET20100-37321-60360-30000001D0000010D000090000060360X    GGSL
NJARET20100-37321-60365-80000003D0000106D000760000060365     GGSL
NJARET20100-37321-60400-60000084D0001589D000620000460400     GGSL
NJARET20100-37321-60430-30000006D0000081D006560000060430     GGSL
NJARET20100-37321-60440-20000149D0001802D000480000360440     GGSL
NJARET20100-37321-60444-00000039D0001108D000020000260444     GGSL
NJARET20100-37321-60447-10000210D0002426D000000000060448     GGSL
NJARET20100-37321-60447-10000001D0000010D000270000060448X    GGSL
NJARET20100-37321-60450-10000036D0000249D000060000060450     GGSL
NJARET20100-37321-60454-90000043D0000656D000000000060454     GGSL
NJARET20100-37321-60476-10000036D0000599D000010000060476     GGSL
NJARET20100-37321-60490-70000018D0000318D001260000060490     GGSL
NJARET20100-37321-60514-00000002D0000023D001350000060516X    GGSL
NJARET20100-37321-60613-00000030D0000219D000460000060614X    GGSL
NJARET20100-37321-60725-00000009D0000068D000170000160725     GGSL
NJARET20100-37321-60728-10000018D0000233D002290000060728     GGSL
NJARET20100-37321-60728-10000100D0001205D000000000060730     GGSL
NJARET20100-37321-61118-90000012D0000135D000050000161120     GGSL
NJARET20100-37321-61119-60000018D0000299D000010000061121     GGSL
NJARET20100-38313-00008-00000018D0000349D0002100008BP3130    GGSL
NJARET20100-38313-00060-80000012D0000238D0009900010BP3160    GGSL
NJARET20100-38313-00080-60000060D0001303D0011100014BP3180D   GGSL
NJARET20100-38313-00217-60000078D0001515D0000500002FS4350    GGSL
NJARET20100-38313-00407-10000006D0000107D0001600001RS7041    GGSL
NJARET20100-38313-00524-50000012D0000305D0001200002SL3310    GGSL
NJARET20100-38313-00526-90000006D0000184D0000300003WL3351    GGSL
NJARET20100-38313-01010-20000066D0000347D0014800038CT3010    GGSL
NJARET20100-38313-01020-10000048D0000252D0010100009CT3020    GGSL
NJARET20100-38313-01030-00000012D0000063D0006000008CT3030    GGSL
NJARET20100-38313-03040-70000018D0000159D0000300001GT3040    GGSL
NJARET20100-38313-03090-20000012D0000106D0000300001GT3090    GGSL
NJARET20100-38313-03214-20000012D0000141D0006400006BP3214D   GGSL
NJARET20100-38313-03230-20000006D0000068D0000400001RP3230    GGSL
NJARET20100-38313-03710-90000030D0000199D0001800000CT3710    GGSL
NJARET20100-38313-03720-80000024D0000151D0006800008CT3720    GGSL
NJARET20100-38313-03730-70000006D0000032D0002400003CT3730    GGSL
NJARET20100-38313-03740-60000018D0000119D0006400003CT3740    GGSL
NJARET20100-38313-03750-50000006D0000040D0004500007CT3750    GGSL
NJARET20100-38313-04436-70000012D0000375D0002900002FL3460    GGSL
NJARET20100-38313-04438-10000018D0000393D0000000000 FL3420   GGSL
NJARET20100-38313-04438-10000024D0000757D0002700001FL3420    GGSL
NJARET20100-38313-07245-20000006D0000110D0003100000RS7245    GGSL
NJARET20100-38313-07395-40000009D0000172D0000000000 RS7395   GGSL
NJARET20100-38313-24000-40000012D0000092D0000000000FS4000    GGSL
NJARET20100-38313-32140-60000048D0000370D0001100003CT3214    GGSL
NJARET20100-38313-32240-30000056D0000431D0000300000CT3224    GGSL
NJARET20100-38313-32340-00000032D0000246D0002100004CT3234    GGSL
NJARET20100-38313-32440-70000024D0000185D0001800000CT3244    GGSL
NJARET20100-38313-32540-40000016D0000123D0000000000CT3254    GGSL
NJARET20100-38313-63140-60000006D0000063D0000300003BP3140    GGSL
NJARET20100-38313-63760-60000006D0000071D0001700003GS3760    GGSL
NJARET20100-38313-64250-10000018D0000389D0002500006BP4250    GGSL
NJARET20100-38398-00605-20000024D0000496D00025000126050      GGSL
NJARET20100-38398-09999-30000001D0000000D0001100000HAT9999   GGSL
NJARET20100-38858-03843-20000012D0000048D000000000054401209  GGSL
NJARET20100-38858-05009-00000006D0000070D000030000033600609  GGSL
NJARET20100-38858-05349-70000004D0000044D0000400002791204901 GGSL
NJARET20100-38858-05354-10000004D0000064D0000200002790902902 GGSL
NJARET20100-38858-05651-10000006D0000061D000000000037530609  GGSL
NJARET20100-38858-05652-80000024D0000156D000070000137540609  GGSL
NJARET20100-38858-05653-50000024D0000250D000130000137550609  GGSL
NJARET20100-38858-05654-20000018D0000096D000000000037560609  GGSL
NJARET20100-38858-05655-90000012D0000077D000050000237570609  GGSL
NJARET20100-38858-05657-30000012D0000078D000120000137590609  GGSL
NJARET20100-38858-05658-00000024D0000128D000120000137600609  GGSL
NJARET20100-38858-05659-70000030D0000303D000030000037610609  GGSL
NJARET20100-38858-06769-20000012D0000114D000020000037750609  GGSL
NJARET20100-38858-06770-80000012D0000210D000070000237760409  GGSL
NJARET20100-38858-06771-50000008D0000204D000180000237770409  GGSL
NJARET20100-38858-06777-70000018D0000332D000020000137830609  GGSL
NJARET20100-38858-06806-40000018D0000343D00000000001000600   GGSL
NJARET20100-38858-06933-70000096D0000182D000120000196501200  GGSL
NJARET20100-38858-06935-10000072D0000137D000390000196701200  GGSL
NJARET20100-38858-06936-80000048D0000302D000020000096801200  GGSL
NJARET20100-38858-07782-00000018D0000374D00022000011200600   GGSL
NJARET20100-38858-07793-60000012D0000145D000210000067161200  GGSL
NJARET20100-38858-08323-40000012D0000197D00000000001220600   GGSL
NJARET20100-38858-10457-10000020D0000166D00003000007985049180GGSL
NJARET20100-38858-10973-60000016D0000498D0000000000140001070 GGSL
NJARET20100-38858-10976-70000050D0000631D0000300000140310070 GGSL
NJARET20100-38858-10977-40000007D0000256D00000000001404011080GGSL
NJARET20100-38858-10979-80000036D0000095D00006000001406121080GGSL
NJARET20100-38858-10980-40000040D0000289D00006000001407101080GGSL
NJARET20100-38858-10981-10000007D0000256D00000000001404011081GGSL
NJARET20100-38858-10984-20000020D0000133D00002000001407101081GGSL
NJARET20100-38858-10987-30000024D0000056D00004000001406121082GGSL
NJARET20100-38858-10993-40000001D0000039D00008000001404011084GGSL
NJARET20100-38858-10995-80000024D0000068D00003000031406121084GGSL
NJARET20100-38858-10996-50000010D0000080D00010000001407101084GGSL
NJARET20100-38858-10999-60000012D0000034D00003000031406121085GGSL
NJARET20100-38858-11000-80000010D0000080D00006000001407101085GGSL
NJARET20100-38858-11001-50000007D0000289D00002000001408011082GGSL
NJARET20100-38858-11003-90000001D0000046D0000800000141001070 GGSL
NJARET20100-38858-11004-60000084D0000221D0000300000141112070 GGSL
NJARET20100-38858-11006-00000010D0000078D0000300000141310070 GGSL
NJARET20100-38858-11008-40000001D0000046D00011000001410011082GGSL
NJARET20100-38858-11011-40000010D0000078D00000000001413101082GGSL
NJARET20100-38858-11012-10000001D0000079D00012000001414011082GGSL
NJARET20100-38858-11019-00000001D0000057D0000400000142101070 GGSL
NJARET20100-38858-11020-60000036D0000089D0000100000142212070 GGSL
NJARET20100-38858-11021-30000010D0000052D0000100001142310070 GGSL
NJARET20100-38858-11023-70000072D0000198D00005000011425121087GGSL
NJARET20100-38858-11024-40000020D0000159D00000000001426101087GGSL
NJARET20100-38858-11288-00000012D0000065D0001200000127012070 GGSL
NJARET20100-38858-11293-40000008D0000103D0000300000128004070 GGSL
NJARET20100-38858-11296-50000020D0000283D0000000000128604070 GGSL
NJARET20100-38858-11297-20000018D0000089D0000300000129006070 GGSL
NJARET20100-38858-11298-90000006D0000068D0000800000129106070 GGSL
NJARET20100-38858-11299-60000012D0000069D0001700000129006080 GGSL
NJARET20100-38858-11726-70000020D0000093D0000500000142710070 GGSL
NJARET20100-38858-11727-40000010D0000099D0000200000142810070 GGSL
NJARET20100-38858-11838-70000012D0000206D0000600000128704070 GGSL
NJARET20100-38858-11839-40000012D0000184D0000300000128804070 GGSL
NJARET20100-38858-11840-00000004D0000070D0000200000128904070 GGSL
NJARET20100-38858-12006-90000006D0000018D000050000175006437  GGSL
NJARET20100-38858-12008-30000006D0000023D0000700001752069183 GGSL
NJARET20100-38858-13567-40000008D0000232D000180000035500209  GGSL
NJARET20100-38858-13568-10000024D0000189D000040000137790609  GGSL
NJARET20100-38858-13570-40000006D0000066D000050000137810609  GGSL
NJARET20100-38858-13572-80000024D0000602D00005000013776042000GGSL
NJARET20100-38858-13573-50000006D0000202D00013000013777022000GGSL
NJARET20100-38858-13583-40000084D0000171D000000000096401200  GGSL
NJARET20100-38858-13592-60000012D0000063D0000500003790106902 GGSL
NJARET20100-38858-13595-70000006D0000046D0000500001798006917 GGSL
NJARET20100-38858-13601-50000012D0000092D00030000017980069180GGSL
NJARET20100-38858-13998-60000030D0000191D00003000001455101087GGSL
NJARET20100-38858-14001-20000030D0000321D00004000001452101087GGSL
NJARET20100-38858-14004-30000006D0000056D0000300000126006070 GGSL
NJARET20100-38858-14005-00000006D0000056D0000600000126106070 GGSL
NJARET20100-38902-10120-40000012D0000063D0000200001 123184   GGSL
NJARET20100-39044-15624-40000024D0000155D000010000115624     GGSL
NJARET20100-39526-38165-20000180D0003854D00002000023201C503  GGSL
NJARET20100-39526-38169-00000560D0006131D00009000093201C502  GGSL
NJARET20100-39526-38177-50000060D0000323D00021000013201C501  GGSL
NJARET20100-39526-38178-20000008D0000450D0002900000 3201L162 GGSL
NJARET20100-39526-38178-20000012D0000698D00002000023201L162  GGSL
NJARET20100-39526-38250-50000003D0000223D0000000000 3201L150 GGSL
NJARET20100-39526-38250-50000031D0002381D00006000063201L150  GGSL
NJARET20100-39526-38571-10000014D0001710D00006000003201C115  GGSL
NJARET20100-39526-45010-50000180D0002504D00030000003201C541  GGSL
NJARET20100-39526-60336-50000002D0000235D00049000013301C144  GGSL
NJARET20100-39526-60552-90000009D0001636D00000000003301R123  GGSL
NJARET20100-39996-30624-70000010D0000107D000030000030624     GGSL
NJARET20100-40235-75256-50000002D0000041D000090000025G30S    GGSL
NJARET20100-41294-00007-90000012D0000009D000690000000007     GGSL
NJARET20100-41294-00008-60000024D0000019D000770000000008     GGSL
NJARET20100-41333-00030-50000012D0000112D000260000078164     GGSL
NJARET20100-41333-00149-40000048D0000314D001210000003661     GGSL
NJARET20100-41333-00213-20000300D0004908D002320000300232     GGSL
NJARET20100-41333-00222-40000900D0000909D000000000066186     GGSL
NJARET20100-41333-00281-10000072D0000768D000080000066125     GGSL
NJARET20100-41333-00406-80000972D0000864D000450000066150     GGSL
NJARET20100-41333-01310-70000576D0004510D000130000066203     GGSL
NJARET20100-41333-03255-90000840D0003193D001090010903255     GGSL
NJARET20100-41333-03257-30000144D0000833D001740017403257     GGSL
NJARET20100-41333-03263-40000768D0002908D001040010403263     GGSL
NJARET20100-41333-03265-80000144D0000833D002020020203265     GGSL
NJARET20100-41333-03501-70000288D0001741D000190000077564     GGSL
NJARET20100-41333-04864-20000144D0001327D000740000004964     GGSL
NJARET20100-41333-09006-10000306D0002275D000390000009006     GGSL
NJARET20100-41333-10110-10000072D0000063D001240000066175     GGSL
NJARET20100-41333-10210-80000144D0000125D061760009401200     GGSL
NJARET20100-41333-10210-80001800D0000954D000290000003544     GGSL
NJARET20100-41333-10310-50001998D0001787D019310000001201     GGSL
NJARET20100-41333-10310-50001800D0000954D000000000003545     GGSL
NJARET20100-41333-10810-00000036D0000028D000000000066262     GGSL
NJARET20100-41333-11009-70000036D0000024D000140000066127     GGSL
NJARET20100-41333-11210-70001548D0004078D000450000066191     GGSL
NJARET20100-41333-11310-40000036D0000090D000150000066208     GGSL
NJARET20100-41333-11609-90000144D0000160D001160000011609     GGSL
NJARET20100-41333-13009-50000180D0000140D001160000066128     GGSL
NJARET20100-41333-14809-00000108D0000043D000110000466140     GGSL
NJARET20100-41333-16909-50000036D0000019D000220000066143     GGSL
NJARET20100-41333-19809-50000036D0000017D000030000066141     GGSL
NJARET20100-41333-21210-40001944D0009362D000280000066192     GGSL
NJARET20100-41333-21301-90000384D0001427D001770000009061     GGSL
NJARET20100-41333-21601-00006384D0028869D000460000103961     GGSL
NJARET20100-41333-27035-70000444D0007237D000800000000057     GGSL
NJARET20100-41333-43001-00007584D0036055D001810000003361     GGSL
NJARET20100-41333-44001-90002484D0011919D007810000013848     GGSL
NJARET20100-41333-66112-40000296D0003744D001260000066112     GGSL
NJARET20100-41333-66155-10000144D0001349D000280000066155     GGSL
NJARET20100-41333-66160-50001032D0006432D004010000066160     GGSL
NJARET20100-41333-66275-60000036D0000060D000100000066200     GGSL
NJARET20100-41333-66287-90000360D0000734D000610000066287     GGSL
NJARET20100-41333-66385-20000936D0000950D000270000066385     GGSL
NJARET20100-41333-66388-30000012D0000021D000000000001203     GGSL
NJARET20100-41333-66388-30000144D0000146D000490000003534     GGSL
NJARET20100-41333-67448-30000108D0000174D000500000066129     GGSL
NJARET20100-41333-67848-10000864D0000518D000200000066136     GGSL
NJARET20100-41333-70464-70000792D0008974D000990000070464     GGSL
NJARET20100-41333-70464-70001044D0012215D004060000192948     GGSL
NJARET20100-41333-74064-50001740D0019999D001990000003831     GGSL
NJARET20100-41333-74064-50000144D0001685D010610000093148     GGSL
NJARET20100-41333-82501-40001536D0010005D001620000003761     GGSL
NJARET20100-41333-82701-80000012D0000139D000270000077364     GGSL
NJARET20100-41333-84401-50000920D0005991D001630000004261     GGSL
NJARET20100-41333-88401-10000036D0000451D000370000077164     GGSL
NJARET20100-41333-93364-10001716D0013966D000470000019235     GGSL
NJARET20100-41333-93464-80000036D0000451D000360000019435     GGSL
NJARET20100-41333-93564-50000480D0003610D000120000093564     GGSL
NJARET20100-41525-01200-00000008D0000116D00003000004152501201GGSL
NJARET20100-41525-01301-40001067D0014876D02161000354152501301GGSL
NJARET20100-42206-00395-90000010D0000024D0004300000395S      GGSL
NJARET20100-42206-14196-50000020D0000027D00000000004125SH    GGSL
NJARET20100-42206-29550-70000006D0000054D00003000009550DP    GGSL
NJARET20100-42206-40261-50000144D0001335D000000000120261     GGSL
NJARET20100-42206-44100-30000054D0001122D0002500000XT4100    GGSL
NJARET20100-42206-95501-20000048D0000217D00015000019550C     GGSL
NJARET20100-42338-04360-10000016D0000132D00010000024360      GGSL
NJARET20100-42338-04591-90000004D0000045D00005000004591      GGSL
NJARET20100-42338-04592-60000004D0000045D00014000004592      GGSL
NJARET20100-42338-08106-10000002D0000033D00000000008106      GGSL
NJARET20100-42338-08191-70000002D0000034D00000000008191      GGSL
NJARET20100-42338-08196-20000002D0000058D00011000008196      GGSL
NJARET20100-42338-08220-40000002D0000058D00019000028220      GGSL
NJARET20100-42338-08245-70000002D0000058D00011000028245      GGSL
NJARET20100-42338-09128-20000172D0002062D00000000009128      GGSL
NJARET20100-42351-43340-30000028D0000767D0000700000FB33100   GGSL
NJARET20100-42351-43460-80000008D0000192D0001400000HB5530    GGSL
NJARET20100-42351-43820-00000048D0000249D0000200000FLB612    GGSL
NJARET20100-42351-45460-60000012D0000060D0001600002LE420G    GGSL
NJARET20100-42351-45470-50000006D0000050D0000300001LE440G    GGSL
NJARET20100-42351-45530-60000006D0000072D0000800001LE640G    GGSL
NJARET20100-42351-45620-40000006D0000049D0000000000BD420B    GGSL
NJARET20100-42351-45680-80000044D0000596D0000700002LB520B    GGSL
NJARET20100-42351-45690-70000001D0000056D0000600002LB5100B   GGSL
NJARET20100-42351-47110-80000216D0000942D0000000000RC        GGSL
NJARET20100-42351-51330-30000004D0000051D00000000004CH10     GGSL
NJARET20100-42351-52330-20000008D0000097D00000000004CH10B    GGSL
NJARET20100-42351-52370-80000016D0000235D00042000014CH15B    GGSL
NJARET20100-42351-52390-60000004D0000088D00044000004CH20B    GGSL
NJARET20100-42351-64640-70000001D0000034D00000000004X8B      GGSL
NJARET20100-42351-64660-50000100D0003803D0000000000PS4X10BL  GGSL
NJARET20100-42579-11500-60000023D0000462D0011200023APB5      GGSL
NJARET20100-42579-12324-70000096D0001071D000100000220YR324   GGSL
NJARET20100-42579-12346-90002856D0005426D0000000000TW3W      GGSL
NJARET20100-42579-12348-30000096D0000094D0003300015APRC      GGSL
NJARET20100-42579-12349-00000504D0002758D0001400001RS15      GGSL
NJARET20100-42579-13250-80000015D0001607D0000000000P3        GGSL
NJARET20100-42579-14250-70000006D0000721D0001500012P4        GGSL
NJARET20100-42579-16250-50000010D0002114D0003600003P6        GGSL
NJARET20100-42579-23100-30000016D0000201D00000000006YR3100   GGSL
NJARET20100-42579-24250-40000010D0001275D000440000120YR4250  GGSL
NJARET20100-42579-26250-20000006D0001127D000000000020YR6250  GGSL
NJARET20100-42579-32500-90000040D0001498D00001000006YR3300   GGSL
NJARET20100-42579-32502-30000015D0001104D00016000026YR6300   GGSL
NJARET20100-42579-43004-80000013D0001156D0000000000NB4       GGSL
NJARET20100-42579-43240-00000220D0001782D0000000000NB324     GGSL
NJARET20100-42579-43480-00000120D0001726D0000000000NB348     GGSL
NJARET20100-42579-63354-80000001D0000077D000000000012YR4300  GGSL
NJARET20100-42579-81276-90000234D0003054D000290000212YR350   GGSL
NJARET20100-42579-81343-80000008D0000209D000000000112YR3100  GGSL
NJARET20100-42579-81405-30000039D0000236D0001700000AP75      GGSL
NJARET20100-42579-81429-90000088D0001613D0001400002DDF7100PC GGSL
NJARET20100-42579-81446-60000001D0000027D0000400001PU1212    GGSL
NJARET20100-42579-81569-20000003D0001116D0000200000SBLT155300GGSL
NJARET20100-42579-81571-50000125D0008233D0001700006SBLT3300  GGSL
NJARET20100-42579-81573-90000012D0001782D0003200002SBLT6300  GGSL
NJARET20100-42579-81605-70000015D0000924D0000500005PROBLK3300GGSL
NJARET20100-42579-81606-40000002D0000167D0000200002 PROBLK430GGSL
NJARET20100-42579-81606-40000001D0000095D0001000003PROBLK4300GGSL
NJARET20100-42579-81608-80000002D0000376D0001300000PROBLK8300GGSL
NJARET20100-42579-81619-40000014D0000523D0002500003APB1      GGSL
NJARET20100-42579-81624-80000666D0008741D0001900004PROBLK350 GGSL
NJARET20100-42579-81625-50000272D0007054D0000800005PROBLK3100GGSL
NJARET20100-42579-82278-20000005D0000049D0002400000 TWBAG36X GGSL
NJARET20100-42579-82283-60000665D0008576D0060400240STRTS28   GGSL
NJARET20100-42579-82320-80000024D0000237D0002900002TWD24     GGSL
NJARET20100-42853-60000-60000012D0000035D0000300000FFTRBB4   GGSL
NJARET20100-42853-62000-40000024D0000033D0000200000FFTADB12  GGSL
NJARET20100-42853-75017-60000040D0000232D0000300002PFTRBB8   GGSL
NJARET20100-42854-02498-60000005D0000095D0000300002FG24ORB112GGSL
NJARET20100-42854-03298-10000016D0000340D0000900000FG32ORB112GGSL
NJARET20100-42854-13212-40000028D0002170D0000100000FG32ACETONGGSL
NJARET20100-42854-30030-10000051D0003336D0000300003FG300MLFLOGGSL
NJARET20100-42854-61678-50000009D0000300D0000200002FG16PC124 GGSL
NJARET20100-42854-63278-50000009D0000186D0000000000FG32PC112 GGSL
NJARET20100-42854-64078-00000002D0000080D0000000000FG40PC112 GGSL
NJARET20100-42854-73261-40000012D0000045D0000800000FG32DI3   GGSL
NJARET20100-42854-73261-40000001D0000029D0006200002FG32D1312 GGSL
NJARET20100-42854-99004-50000001D0000059D0004600000B24DR2N1A GGSL
NJARET20100-42854-99016-80000001D0000122D0002200000SGBV100GRYGGSL
NJARET20100-43168-50310-50000004D0000209D0000400001 93101228 GGSL
NJARET20100-43168-50312-90000008D0000088D0000100001 93101230 GGSL
NJARET20100-43168-50313-60000012D0000158D0000200001 93101231 GGSL
NJARET20100-43168-50314-30000004D0000152D0000300000 93101232 GGSL
NJARET20100-43168-50369-30000006D0000165D0000000000 93102868 GGSL
NJARET20100-43256-29001-60000004D0000395D0000200000DT1210    GGSL
NJARET20100-43256-32652-40000006D0000069D000190000032050R    GGSL
NJARET20100-43281-00194-60000156D0000555D0004800000 20652    GGSL
NJARET20100-43281-00194-60000024D0000090D0010800000 20657    GGSL
NJARET20100-43281-00195-30000006D0000018D0004300000 20658    GGSL
NJARET20100-43281-00201-10000003D0000009D0010800000 20678    GGSL
NJARET20100-43281-00202-80000024D0000088D0017900000 20679    GGSL
NJARET20100-43281-00446-60000002D0000000D0000700000 Z607     GGSL
NJARET20100-43326-16720-00000002D0000020D0000600006 A8X10P   GGSL
NJARET20100-43326-16730-90000024D0000311D0002000020 A9X12P   GGSL
NJARET20100-43326-16740-80000008D0000165D0000000000 A12X14P  GGSL
NJARET20100-43326-16762-00000002D0000148D0000100000 A20X30P  GGSL
NJARET20100-43326-16764-40000002D0000197D0000000000 A20X40P  GGSL
NJARET20100-43326-59772-40000009D0000636D0000500000G12X20    GGSL
NJARET20100-43786-05140-80000096D0000528D000010000005140     GGSL
NJARET20100-43786-70102-00000012D0000059D000320000170102     GGSL
NJARET20100-44600-00203-30000045D0000122D000410000000203     GGSL
NJARET20100-44600-00229-30000054D0000279D000380000000229     GGSL
NJARET20100-44600-00319-10000420D0004061D000000000003191     GGSL
NJARET20100-44600-00451-80000765D0002829D000400000000451     GGSL
NJARET20100-44600-00940-70000072D0000226D001170000200940     GGSL
NJARET20100-44600-31183-80000024D0000234D001110000531183     GGSL
NJARET20100-45635-08242-70000024D0000150D0001000000NBCON     GGSL
NJARET20100-45635-92273-00000036D0000187D0001300001NHRTU     GGSL
NJARET20100-46385-10024-90000001D0000037D0001100000 10024    GGSL
NJARET20100-46385-10036-20000005D0000282D0001300002 10036    GGSL
NJARET20100-46385-20024-60000004D0000219D0002000004 20024    GGSL
NJARET20100-46385-20030-70000004D0000230D0001400002 20030    GGSL
NJARET20100-46385-20036-90000004D0000250D0000300002 20036    GGSL
NJARET20100-46385-40912-00000001D0000011D0007100000 40912    GGSL
NJARET20100-46385-40924-30000122D0002492D0008400002 40924    GGSL
NJARET20100-46385-42351-50000007D0000207D0001200000 42351    GGSL
NJARET20100-46385-82924-90000001D0000042D0000400000 82924    GGSL
NJARET20100-46385-92024-30000006D0000219D0000600002 92024    GGSL
NJARET20100-46385-92030-40000005D0000201D0000700000 92030    GGSL
NJARET20100-46385-92036-60000006D0000255D0001000004 92036    GGSL
NJARET20100-46539-62005-00000150D0000644D000020000275312     GGSL
NJARET20100-46539-64032-40000143D0001490D0021700098MOF32X    GGSL
NJARET20100-46561-17861-10000006D0000049D000000000078616398J GGSL
NJARET20100-46561-17978-60000012D0000011D000040000079786931J GGSL
NJARET20100-46561-17983-00000006D0000024D000000000079836935  GGSL
NJARET20100-46561-19115-30000006D0000075D000010000091156935  GGSL
NJARET20100-46561-19418-50000004D0000024D000030000194186997J GGSL
NJARET20100-46561-19847-30000006D0000076D00000000003984711001GGSL
NJARET20100-46561-29104-40000006D0000136D00001000003910411001GGSL
NJARET20100-46561-99608-60000018D0000155D00001000013960801003GGSL
NJARET20100-46798-16267-40000018D0000161D000170000516267     GGSL
NJARET20100-46798-16354-10000012D0000045D000160000016354     GGSL
NJARET20100-46798-16357-20000004D0000080D000130000216357     GGSL
NJARET20100-46798-16457-90000005D0000315D000320000316457     GGSL
NJARET20100-46798-16467-80000060D0000341D000040000116467     GGSL
NJARET20100-46798-16469-20000006D0000175D000060000016469     GGSL
NJARET20100-46798-16481-40000012D0000199D000010000016481     GGSL
NJARET20100-46798-16482-10000006D0000066D000070000016482     GGSL
NJARET20100-46798-16483-80000012D0000174D000100000216483     GGSL
NJARET20100-46798-16484-50000008D0000201D000110000016484     GGSL
NJARET20100-46798-16485-20000006D0000111D000090000016485     GGSL
NJARET20100-46798-16488-30000002D0000079D000100000016488     GGSL
NJARET20100-46798-16491-30000002D0000096D000100000016491     GGSL
NJARET20100-46798-16494-40000006D0000079D000100000216494     GGSL
NJARET20100-46798-19718-80000002D0000290D000060000019718     GGSL
NJARET20100-46798-26429-30000016D0000660D000000000026429     GGSL
NJARET20100-47223-07102-80000192D0000248D00000000000710212   GGSL
NJARET20100-47223-07118-90000096D0000124D00305000010711812   GGSL
NJARET20100-47223-07123-30000360D0000464D00000000000712312   GGSL
NJARET20100-47815-00006-10000040D0000076D0000100000N6PKSTRBX GGSL
NJARET20100-47815-00050-40000120D0001108D0003000008N50LBOX   GGSL
NJARET20100-47815-31737-40000024D0000062D0000300001B10TP     GGSL
NJARET20100-47977-00064-00000002D0000040D000250000075590     GGSL
NJARET20100-47977-00081-70000019D0000502D000910000074240     GGSL
NJARET20100-47977-00100-50000003D0000114D00002000007511I     GGSL
NJARET20100-47977-00340-50000002D0000022D000000000064006BNW  GGSL
NJARET20100-47977-00350-40000004D0000011D000060000064007BNR  GGSL
NJARET20100-47977-00397-90000012D0000777D00004000037536      GGSL
NJARET20100-47977-00398-60000016D0000918D00003000027533      GGSL
NJARET20100-47977-00494-50000018D0000286D000030000075860     GGSL
NJARET20100-47977-00498-30000004D0000108D00000000007458      GGSL
NJARET20100-47977-00561-40000003D0000200D00000000007537      GGSL
NJARET20100-47977-00562-10000005D0000202D00006000007512      GGSL
NJARET20100-47977-00563-80000002D0000118D000030000024637     GGSL
NJARET20100-47977-00600-00000002D0000022D0000000000NA6228    GGSL
NJARET20100-47977-00807-30000016D0000496D0000600000NA35194   GGSL
NJARET20100-47977-00808-00000004D0000092D0003000001NA32431   GGSL
NJARET20100-47977-00823-30000004D0000039D0000500000NA35182   GGSL
NJARET20100-47977-01021-20000006D0000072D000000000035315     GGSL
NJARET20100-47977-01108-00000002D0000055D0000200000RANCHB2   GGSL
NJARET20100-47977-01131-80000004D0000160D0001200001NA35250   GGSL
NJARET20100-47977-01189-90000004D0000040D000010000124232     GGSL
NJARET20100-47977-01190-50000004D0000055D000010000124233     GGSL
NJARET20100-47977-01248-30000006D0000080D0000100000NARANCH4B GGSL
NJARET20100-49206-02839-50000004D0000098D0000000000RMT1604MZ GGSL
NJARET20100-49206-11110-30000002D0000202D0001200000R625      GGSL
NJARET20100-49206-12302-10000001D0000047D0000400000 12302    GGSL
NJARET20100-49206-12598-80000006D0000154D00004000002916900   GGSL
NJARET20100-49206-12660-20000002D0000195D00018000002519500   GGSL
NJARET20100-49206-13254-20000010D0000046D00000000002445800   GGSL
NJARET20100-49206-15737-80000138D0001210D00003000001573700   GGSL
NJARET20100-49206-16030-90000006D0000111D00003000001603072   GGSL
NJARET20100-49206-16274-70000012D0000166D00040000001627400   GGSL
NJARET20100-49206-16350-80000012D0000253D00007000001635000   GGSL
NJARET20100-49206-16419-20000006D0000109D00000000001641900   GGSL
NJARET20100-49206-17891-50000012D0000104D00000000001789100   GGSL
NJARET20100-49206-17892-20000012D0000150D00000000001789200   GGSL
NJARET20100-49206-18382-70000003D0000114D000010000018382     GGSL
NJARET20100-49206-19228-70000012D0000182D000000000019228     GGSL
NJARET20100-49206-24517-40000006D0000354D0000800000 2451700  GGSL
NJARET20100-49206-63365-00000006D0000122D00009000012825800   GGSL
NJARET20100-49206-63390-20000084D0001506D00017000002915612   GGSL
NJARET20100-49206-64523-30000006D0000108D00001000002919200   GGSL
NJARET20100-49206-64533-20000006D0000108D000180000026099900  GGSL
NJARET20100-49206-64543-10000006D0000079D00023000022941600   GGSL
NJARET20100-50197-00102-10000160D0000152D0000300001HT5OZ     GGSL
NJARET20100-50197-00104-50000912D0004312D0025700031HT4       GGSL
NJARET20100-50197-00108-30000450D0003237D0021300010HT8       GGSL
NJARET20100-50197-00118-20000304D0003695D0122600051HT18      GGSL
NJARET20100-50197-00136-60000308D0005959D0077400071HT36      GGSL
NJARET20100-50197-00150-20000209D0005024D0018200023HT50      GGSL
NJARET20100-50197-00204-20000252D0001184D0018700018PT4       GGSL
NJARET20100-50197-00208-00000090D0000648D0016700008PT8       GGSL
NJARET20100-50197-00218-90000159D0001932D0098600049PT18      GGSL
NJARET20100-50197-00236-30000100D0001934D0059800014PT36      GGSL
NJARET20100-50197-00250-90000082D0001976D0013900010PT50      GGSL
NJARET20100-50197-00304-90000096D0000452D0024000009GT4       GGSL
NJARET20100-50197-00318-60000016D0000194D0052500018GT18      GGSL
NJARET20100-50197-00336-00000005D0000097D0044300014GT36      GGSL
NJARET20100-50197-00404-60001356D0006717D0014400038RT4       GGSL
NJARET20100-50197-00408-40000234D0001817D0014300069RT8       GGSL
NJARET20100-50197-00418-30000010D0000122D0037300017RT18      GGSL
NJARET20100-50197-00604-00002496D0012225D0000200002BT4       GGSL
NJARET20100-50197-00618-70000206D0002503D0016100006BT18      GGSL
NJARET20100-50197-00704-70000324D0001523D0006500003TR4       GGSL
NJARET20100-50197-00718-40000042D0000515D0024500010TR18      GGSL
NJARET20100-50197-00736-80000043D0000834D0011800003TR36      GGSL
NJARET20100-50197-00904-10007044D0035252D0016300060TO4       GGSL
NJARET20100-50197-01009-20000420D0002012D0007100010BM04      GGSL
NJARET20100-50197-01010-80001080D0012623D0031700121BM10      GGSL
NJARET20100-50197-01024-50000023D0000473D0029700008BM24      GGSL
NJARET20100-50197-01106-80000042D0000369D0003100000GS6       GGSL
NJARET20100-50197-01130-30000031D0000818D0001600005GS30      GGSL
NJARET20100-50197-01207-20000024D0000159D0000400000RP7       GGSL
NJARET20100-50197-01228-70000001D0000015D0000600000RP28      GGSL
NJARET20100-50197-01309-30000144D0000907D0005200003DB03      GGSL
NJARET20100-50197-01317-80000017D0000492D0004200008DB17      GGSL
NJARET20100-50197-01504-20000048D0000292D0007400004UR4       GGSL
NJARET20100-50197-01606-30000084D0000732D0019500133TP6       GGSL
NJARET20100-50197-01706-00000480D0004254D0006400003PO6       GGSL
NJARET20100-50197-01803-60000048D0000173D0002900001GM3       GGSL
NJARET20100-50197-01825-80000095D0000911D0019500008GM25      GGSL
NJARET20100-50197-01906-40000036D0000165D0013300013GF51056   GGSL
NJARET20100-50197-02006-00000420D0001049D0008800012GL6       GGSL
NJARET20100-50197-02206-40000072D0000364D0010900004GG6       GGSL
NJARET20100-50197-02236-10000029D0000358D0001500000GG36      GGSL
NJARET20100-50197-02304-70000324D0002778D0004500013CS4       GGSL
NJARET20100-50197-02704-50000036D0000422D0004600001KM4       GGSL
NJARET20100-50197-02806-60000180D0001081D0016000010GF1010106 GGSL
NJARET20100-50197-02904-90000156D0000761D0010100003FT4       GGSL
NJARET20100-50197-02918-60000112D0001361D0028800004FT18      GGSL
NJARET20100-50197-03006-90000240D0001296D0020600013GSUL6     GGSL
NJARET20100-50197-03030-40000055D0000790D0044000041GSUL30    GGSL
NJARET20100-50197-03430-20000016D0000144D0006700005SPF30     GGSL
NJARET20100-50197-03804-10000984D0005305D0017100015BTSP4     GGSL
NJARET20100-50197-03808-90001974D0020051D0017700049BTSP8     GGSL
NJARET20100-50197-03818-80000263D0005095D0044900009BTSP18    GGSL
NJARET20100-50197-03825-60000444D0011020D0040400017BTSP25    GGSL
NJARET20100-50197-05004-30000144D0000676D0001700000CT4       GGSL
NJARET20100-50197-05206-10000024D0000237D0003600000CGP6      GGSL
NJARET20100-50197-05225-20000190D0005548D0076400000CGP25     GGSL
NJARET20100-50197-05320-40000089D0001436D0011800060ELF20     GGSL
NJARET20100-50197-05340-20000129D0003355D0019800005ELF40     GGSL
NJARET20100-50197-05405-80000072D0000340D0006700008IT5       GGSL
NJARET20100-50197-05420-10000006D0000083D0014000000IT20      GGSL
NJARET20100-50197-05628-10000011D0000246D0017600000EOLF28    GGSL
NJARET20100-50197-05830-80000235D0005262D0030900005EOFW30    GGSL
NJARET20100-50197-05907-70000006D0000039D0009600001LS7       GGSL
NJARET20100-50197-05936-70000020D0000363D0018500000LS36      GGSL
NJARET20100-50197-06030-10000135D0001603D0014500005LL30      GGSL
NJARET20100-50197-06101-80000060D0000395D0003700001BG1       GGSL
NJARET20100-50197-06203-90000060D0000298D0001600000AL3       GGSL
NJARET20100-50197-06604-40000060D0000264D0010000026BR4       GGSL
NJARET20100-50197-30418-40000012D0000076D0000200000BL18      GGSL
NJARET20100-50197-30608-90000234D0000980D0002100005CAPF8     GGSL
NJARET20100-50197-30708-60000018D0000075D0001000000VIPF8     GGSL
NJARET20100-50197-30808-30000162D0000679D0001300003ORPF8     GGSL
NJARET20100-50197-30924-00000006D0000032D0002200000FI246     GGSL
NJARET20100-50197-31208-00000150D0000629D0001400000CTPF8     GGSL
NJARET20100-50197-70101-30000225D0001478D0000000000AP1       GGSL
NJARET20100-50197-70102-00000480D0004999D0000000000AP2       GGSL
NJARET20100-50197-70104-40003276D0008617D0020500045AP4       GGSL
NJARET20100-50197-70108-20008844D0036545D0057400419AP8       GGSL
NJARET20100-50197-70204-10000180D0000476D0010400002AV4       GGSL
NJARET20100-50197-70304-80001980D0005209D0015900052CA4N      GGSL
NJARET20100-50197-70308-60000876D0003409D0014200046CA8       GGSL
NJARET20100-50197-70404-50001308D0006810D0003600036OR4       GGSL
NJARET20100-50197-70508-00000276D0001061D0042100009SS8       GGSL
NJARET20100-50197-70516-50000069D0000343D0003200021SS16      GGSL
NJARET20100-50197-70608-70000186D0000721D0007700002PTM8      GGSL
NJARET20100-50197-70701-50000040D0000399D0008000005PR1       GGSL
NJARET20100-50197-70708-40002496D0015790D0030200302PR8       GGSL
NJARET20100-50197-70801-20000006D0000063D0011900000VM1       GGSL
NJARET20100-50197-70808-10000846D0005804D0024900182VM8       GGSL
NJARET20100-50197-71001-50000025D0000120D0084100000VFGS1     GGSL
NJARET20100-50197-71208-80000240D0001012D0005800000MM8       GGSL
NJARET20100-50197-71304-70001284D0003766D0010500010EC4       GGSL
NJARET20100-50699-00008-90000006D0000034D0002000001306008    GGSL
NJARET20100-50699-00012-60000006D0000045D0016800100300012    GGSL
NJARET20100-50699-00016-40000006D0000038D0000000000306016    GGSL
NJARET20100-50699-00212-00000006D0000058D0000000000306212    GGSL
NJARET20100-50699-00303-50000048D0000252D0000000000300303    GGSL
NJARET20100-50699-00303-50000048D0000260D0001600000306303    GGSL
NJARET20100-50699-00304-20000020D0000225D0000000000300304    GGSL
NJARET20100-50699-00304-20000045D0000597D0002100011305304    GGSL
NJARET20100-50699-00424-70000144D0000771D0000000000300424    GGSL
NJARET20100-51700-75713-80000008D0000023D000240000075713     GGSL
NJARET20100-51700-78826-20000012D0000072D000200000078826     GGSL
NJARET20100-51700-87000-40000006D0000027D000400000087000     GGSL
NJARET20100-51700-87104-90000042D0000187D002500000087104     GGSL
NJARET20100-51700-88876-40000612D0004125D001690000188876     GGSL
NJARET20100-51700-89729-20000064D0000677D000660000189729     GGSL
NJARET20100-52732-20509-30000010D0001500D00011000002050P     GGSL
NJARET20100-52837-00670-00000024D0000049D0000800000 FTR      GGSL
NJARET20100-52837-00672-40000012D0000024D0000400000 FTY      GGSL
NJARET20100-52837-00680-90000036D0000072D0000600000 FTGO     GGSL
NJARET20100-52837-00682-30000036D0000072D0001100001 FTGL     GGSL
NJARET20100-52837-00683-00000024D0000048D0001100000 FTGP     GGSL
NJARET20100-52837-01065-30000024D0000049D0000400000 FTP      GGSL
NJARET20100-56554-10505-00000025D0000075D0002500003NSR003G0G1GGSL
NJARET20100-56554-20505-70000050D0000055D0001700001NSB002G0G1GGSL
NJARET20100-56554-73105-10000072D0000897D0001500003RUA1600G18GGSL
NJARET20100-56554-73154-90000024D0000230D0000000000RUA12000G8GGSL
NJARET20100-56554-82551-40000025D0000022D0002400002NRTT1G3G18GGSL
NJARET20100-56554-92059-20000015D0000189D0001300002SPX24DB0A1GGSL
NJARET20100-56554-92106-30000012D0000078D0001100000LIA12000A4GGSL
NJARET20100-56554-92128-50000024D0000053D0000000000CNA0800A42GGSL
NJARET20100-62338-04250-30001698D0006625D001350000004250     GGSL
NJARET20100-62338-05762-00000036D0000025D006870000057620     GGSL
NJARET20100-62338-07325-50000180D0000551D000650000375143     GGSL
NJARET20100-62338-08046-80000126D0000477D004390000175144     GGSL
NJARET20100-62338-74017-10000006D0000029D0055400000740171    GGSL
NJARET20100-62338-75819-00000036D0000025D000110000075819     GGSL
NJARET20100-62338-77940-90000012D0000092D002360000077940     GGSL
NJARET20100-62338-78046-70000018D0000014D006760000078046     GGSL
NJARET20100-62338-78473-10000306D0001200D002810000078473     GGSL
NJARET20100-62338-79717-50000120D0000474D002620000079717     GGSL
NJARET20100-62338-80420-00000270D0001053D000910000080420     GGSL
NJARET20100-62338-82093-40000411D0002491D002630000082093     GGSL
NJARET20100-62338-82291-40000126D0000491D000280000082291     GGSL
NJARET20100-62338-84473-20000012D0000071D002860000084473     GGSL
NJARET20100-62338-85257-70000036D0000025D001800000085257     GGSL
NJARET20100-62338-85723-70000006D0000018D000010000085723     GGSL
NJARET20100-62338-87977-20000156D0000627D007290000187977     GGSL
NJARET20100-62338-87979-60000252D0001013D007370000087979     GGSL
NJARET20100-62338-91112-00000246D0000925D000880000091112     GGSL
NJARET20100-62338-93516-40000072D0000595D000700000093516     GGSL
NJARET20100-62338-93790-80000330D0002614D002590000093790     GGSL
