TXBWIC2010P-C1100-3900E-A0000001D0000289D000090000011003900  GGSL
TXBWIC2010P-C1100-3950E-A0000030D0008196D002180000011003950  GGSL
TXBWIC2010P-C1100-5800E-A0000025D0002642D000590000011005800  GGSL
TXBWIC2010P-C1100-7415E-A0000007D0002984D000080000011007415  GGSL
TXBWIC2010P-C1400-1068P-K0000019D0000148D001820000014001068  GGSL
TXBWIC20100-00402-00000-00001199D0012059D0088200020BWI COMP  GGSL
TXBWIC20100-00402-01012-60000056D0003973D00051000011012      GGSL
TXBWIC20100-00402-01499-50000020D0000054D000000000014SS      GGSL
TXBWIC20100-00402-02419-20000007D0000135D000350000210XS-20   GGSL
TXBWIC20100-00402-02699-50000200D0000199D004600000010XS-20B  GGSL
TXBWIC20100-00402-02750-60000075D0000248D0062500225B75       GGSL
TXBWIC20100-00402-05411-30000100D0000203D00375001255418      GGSL
TXBWIC20100-00402-10147-30000023D0001365D00136000001014 G    GGSL
TXBWIC20100-00402-10148-00000204D0010311D00564000201014      GGSL
TXBWIC20100-00402-11713-90000125D0000362D001000005011730     GGSL
TXBWIC20100-00402-21014-40000231D0011782D002880005910145B    GGSL
TXBWIC20100-00402-33117-70000300D0000101D0057500125PC11-7    GGSL
TXBWIC20100-00402-33354-60001925D0000258D0317500825PC5-4     GGSL
TXBWIC20100-00402-33375-10000825D0000160D0290000775PC7-5     GGSL
TXBWIC20100-00402-41819-90000013D0000100D000500000014TRS     GGSL
TXBWIC20100-00402-44117-30000050D0000019D0000000000PLCD 11-7 GGSL
TXBWIC20100-00402-91012-90000025D0000401D00000000001012 BK   GGSL
TXBWIC20100-00402-91014-30000300D0002683D00000000001014 BLACKGGSL
TXBWIC20100-00772-00449-70000006D0000036D0000000000449       GGSL
TXBWIC20100-00772-00592-00000010D0000100D0000000000592       GGSL
TXBWIC20100-00772-00594-40000004D0000040D0000000000594       GGSL
TXBWIC20100-00772-00701-60000003D0000195D0000000000701       GGSL
TXBWIC20100-00772-00785-60000006D0000300D0000000000785       GGSL
TXBWIC20100-00772-01065-80000002D0000000D00000000001065      GGSL
TXBWIC20100-00772-01282-90000003D0000135D00000000001282      GGSL
TXBWIC20100-00772-02105-00000001D0000050D00000000002105      GGSL
TXBWIC20100-00772-02137-10000002D0000120D00000000002137      GGSL
TXBWIC20100-00772-02174-60000001D0000040D00000000002174      GGSL
TXBWIC20100-00772-02176-00000024D0000360D00000000002176      GGSL
TXBWIC20100-00772-02181-40000024D0000360D00000000002181      GGSL
TXBWIC20100-00772-02371-90000001D0000080D00000000002371      GGSL
TXBWIC20100-00772-02388-70000012D0000060D00000000002388      GGSL
TXBWIC20100-00772-02434-10000002D0000025D00000000002434      GGSL
TXBWIC20100-00772-02666-60000010D0000100D00000000002666      GGSL
TXBWIC20100-00772-02790-80000006D0000120D00000000002790      GGSL
TXBWIC20100-00772-02950-60000001D0000896D00000000002950      GGSL
TXBWIC20100-00772-03205-60000002D0000020D00000000003205      GGSL
TXBWIC20100-00772-03571-20000006D0000069D00000000003571      GGSL
TXBWIC20100-00772-03700-60000008D0000200D00000000003700      GGSL
TXBWIC20100-00772-03704-40000006D0000150D00000000003704      GGSL
TXBWIC20100-00772-03744-00000006D0000090D00000000003744      GGSL
TXBWIC20100-00772-03778-50000002D0000010D00000000003778      GGSL
TXBWIC20100-00772-03792-10000002D0000012D00000000003792      GGSL
TXBWIC20100-00772-03793-80000002D0000012D00000000003793      GGSL
TXBWIC20100-00772-03858-40000002D0000030D00000000003858      GGSL
TXBWIC20100-00772-03868-30000001D0000000D00000000003868      GGSL
TXBWIC20100-00772-04097-60000006D0000060D00000000004097      GGSL
TXBWIC20100-00772-04145-40000006D0000120D00000000004145      GGSL
TXBWIC20100-00772-04251-20000006D0000090D00000000004251      GGSL
TXBWIC20100-00772-04265-90000006D0000090D00000000004265      GGSL
TXBWIC20100-00772-04588-90000003D0000225D00000000004588      GGSL
TXBWIC20100-00772-04592-60000014D0000119D00000000004592      GGSL
TXBWIC20100-00772-04608-40000001D0000010D00000000004608      GGSL
TXBWIC20100-00772-04800-20000010D0000130D00000000004800      GGSL
TXBWIC20100-00772-05174-30000006D0000060D00000000005174      GGSL
TXBWIC20100-00772-05175-00000012D0000120D00000000005175      GGSL
TXBWIC20100-00772-05355-60000012D0000030D00000000005355      GGSL
TXBWIC20100-00772-05357-00000012D0000030D00000000005357      GGSL
TXBWIC20100-00772-05358-70000012D0000030D00000000005358      GGSL
TXBWIC20100-00772-05376-10000012D0000030D00000000005376      GGSL
TXBWIC20100-00772-05399-00000012D0000030D00000000005399      GGSL
TXBWIC20100-00772-05502-40000012D0000030D00000000005502      GGSL
TXBWIC20100-00772-06335-70000006D0000039D00000000006335      GGSL
TXBWIC20100-00772-06336-40000006D0000039D00000000006336      GGSL
TXBWIC20100-00772-06744-70000008D0000120D00000000006744      GGSL
TXBWIC20100-00772-08200-60000001D0000000D00000000008200      GGSL
TXBWIC20100-00772-08265-50000001D0000030D00000000008265      GGSL
TXBWIC20100-00772-08520-50000014D0000210D00000000008520      GGSL
TXBWIC20100-00772-08537-30000008D0000120D00000000008537      GGSL
TXBWIC20100-00772-08561-80000006D0000090D00000000008561      GGSL
TXBWIC20100-00772-08567-00000006D0000090D00000000008567      GGSL
TXBWIC20100-00772-08600-40000006D0000090D00000000008600      GGSL
TXBWIC20100-00772-08608-00000006D0000060D00000000008608      GGSL
TXBWIC20100-00772-08807-70000001D0000025D00000000008807      GGSL
TXBWIC20100-00772-09126-80000012D0000030D00000000009126      GGSL
TXBWIC20100-00772-09216-60000006D0000075D00000000009216      GGSL
TXBWIC20100-00772-09217-30000006D0000039D00000000009217      GGSL
TXBWIC20100-00772-09274-60000006D0000045D00000000009274      GGSL
TXBWIC20100-00772-09288-30000006D0000150D00000000009288      GGSL
TXBWIC20100-00772-09299-90000006D0000030D00000000009299      GGSL
TXBWIC20100-00772-09315-60000012D0000030D00000000009315      GGSL
TXBWIC20100-00772-09351-40000006D0000039D00000000009351      GGSL
TXBWIC20100-00772-09358-30000006D0000051D00000000009358      GGSL
TXBWIC20100-00772-09359-00000006D0000060D00000000009359      GGSL
TXBWIC20100-00772-09397-20000006D0000060D00000000009397      GGSL
TXBWIC20100-00772-09408-50000006D0000015D00000000009408      GGSL
TXBWIC20100-00772-09415-30000012D0000030D00000000009415      GGSL
TXBWIC20100-00772-09441-20000012D0000030D00000000009441      GGSL
TXBWIC20100-00772-09464-10000012D0000030D00000000009464      GGSL
TXBWIC20100-00772-09485-60000012D0000030D00000000009485      GGSL
TXBWIC20100-00772-09491-70000003D0000010D00000000009491      GGSL
TXBWIC20100-00772-30128-20000008D0000280D000000000030128     GGSL
TXBWIC20100-00772-30149-70000006D0000060D000000000030149     GGSL
TXBWIC20100-00772-30196-10000002D0000013D000000000030196     GGSL
TXBWIC20100-00772-30233-30000003D0000345D000000000030233     GGSL
TXBWIC20100-00772-30266-10000003D0000019D000000000030266     GGSL
TXBWIC20100-00772-30269-20000006D0000039D000000000030269     GGSL
TXBWIC20100-00772-30511-20000002D0000005D000000000030511     GGSL
TXBWIC20100-00772-30512-90000002D0000005D000000000030512     GGSL
TXBWIC20100-00772-30611-90000006D0000051D000000000030611     GGSL
TXBWIC20100-00772-30624-90000006D0000060D000000000030624     GGSL
TXBWIC20100-00772-31701-60000004D0000460D000000000031701     GGSL
TXBWIC20100-10367-00110-70000768D0004668D0114600792110       GGSL
TXBWIC20100-10367-00130-50000134D0006614D0042900017130.0     GGSL
TXBWIC20100-10367-00150-30000025D0000656D0006200064150.0     GGSL
TXBWIC20100-10367-00460-30000048D0000230D0012800008ML0460 8  GGSL
TXBWIC20100-10367-00530-30000005D0000185D0001300000530.0     GGSL
TXBWIC20100-10367-00560-00000192D0000584D0015200064ML0560 8  GGSL
TXBWIC20100-10367-00810-60000096D0000472D0006000156ML0810    GGSL
TXBWIC20100-10367-01000-00000048D0000568D0000000000ML1000    GGSL
TXBWIC20100-10367-01010-90000048D0000657D0001200000ML1010    GGSL
TXBWIC20100-10367-01020-80000048D0000709D0000000000ML1020    GGSL
TXBWIC20100-10367-01050-50000024D0000273D0003600000ML1050    GGSL
TXBWIC20100-10367-01110-60000056D0000145D00016000001110      GGSL
TXBWIC20100-10367-01111-30000040D0000109D00104000001111.0    GGSL
TXBWIC20100-10367-01112-00000016D0000042D00064000001112.0    GGSL
TXBWIC20100-10367-01120-50000176D0000443D00072000001120.0    GGSL
TXBWIC20100-10367-01140-30000024D0000070D00000000001140.0    GGSL
TXBWIC20100-10367-01240-00000024D0000140D00012000241240.0    GGSL
TXBWIC20100-10367-03010-70000016D0000099D0008000000ML3010    GGSL
TXBWIC20100-10367-03020-60000008D0000050D0002400000ML3020    GGSL
TXBWIC20100-11247-00000-00000075D0000392D002310000613010     GGSL
TXBWIC20100-11247-00640-30000049D0001654D000430002000640     GGSL
TXBWIC20100-11247-00911-40000002D0000092D000000000200911     GGSL
TXBWIC20100-11247-01050-90000045D0000427D000070000101050     GGSL
TXBWIC20100-11247-02155-00000013D0002438D00012000002155.0    GGSL
TXBWIC20100-11247-02308-00000002D0000103D000000000002301     GGSL
TXBWIC20100-11247-04525-90000333D0007161D002520000904525     GGSL
TXBWIC20100-11247-05350-60000002D0000085D000360000005350     GGSL
TXBWIC20100-11247-05450-30000023D0000944D000560000005450     GGSL
TXBWIC20100-11247-12024-60000012D0000053D000000001212024     GGSL
TXBWIC20100-11247-16004-40000048D0000296D002700000016004     GGSL
TXBWIC20100-11247-26001-00000036D0000172D000360001226001     GGSL
TXBWIC20100-11247-26128-40000012D0000117D000480000026128     GGSL
TXBWIC20100-11247-30004-40000198D0001398D001140000030004     GGSL
TXBWIC20100-11247-52813-40000011D0000164D000020000452813     GGSL
TXBWIC20100-11247-52825-70000038D0000627D001080000552825     GGSL
TXBWIC20100-11247-52829-50000018D0000181D000420000052829     GGSL
TXBWIC20100-11247-52830-10000002D0000084D000000000052830     GGSL
TXBWIC20100-11247-52833-20000012D0000070D000000007252833     GGSL
TXBWIC20100-11247-52877-60000012D0000572D000080000052877     GGSL
TXBWIC20100-11247-52889-90000085D0001091D001950000052889     GGSL
TXBWIC20100-11247-60116-50000012D0000127D000630000060116     GGSL
TXBWIC20100-11247-61024-20000207D0001220D010020021661024     GGSL
TXBWIC20100-11247-90032-90000012D0000056D000600002490001     GGSL
TXBWIC20100-11247-90128-90000008D0000076D000080000090128     GGSL
TXBWIC20100-11423-00338-70000504D0002770D0120000012HG-33801  GGSL
TXBWIC20100-11423-94108-50000012D0000121D0008400030HG-94108  GGSL
TXBWIC20100-11423-94127-60000087D0000411D0060400048HG-64127  GGSL
TXBWIC20100-11444-43006-30000003D0000101D0000000000703124    GGSL
TXBWIC20100-11444-43105-30000002D0000034D00000000009730410   GGSL
TXBWIC20100-11444-43202-90000004D0000032D00000000009730400   GGSL
TXBWIC20100-12090-00002-00000005D0000014D0000000000703778    GGSL
TXBWIC20100-12313-11092-50000002D0000035D00000000001011092   GGSL
TXBWIC20100-12313-11331-50000037D0000152D00000000001011331   GGSL
TXBWIC20100-12313-11332-20000025D0000439D00000000001011332   GGSL
TXBWIC20100-12313-11351-30000010D0000086D00000000001011351   GGSL
TXBWIC20100-12313-11353-70000006D0000240D00000000001011353   GGSL
TXBWIC20100-12313-11536-40000006D0000100D00000000001011536   GGSL
TXBWIC20100-12313-11843-30000001D0000022D00000000001011843   GGSL
TXBWIC20100-12313-11871-60000010D0000096D00000000001011871   GGSL
TXBWIC20100-12313-12031-30000014D0000109D00000000001012031   GGSL
TXBWIC20100-12313-12032-00000015D0000535D00000000001012032   GGSL
TXBWIC20100-12313-12421-20000020D0000086D00000000001012421   GGSL
TXBWIC20100-12313-12423-60000032D0000553D00000000001012423   GGSL
TXBWIC20100-12313-12913-20000008D0000346D00000000001029131   GGSL
TXBWIC20100-12313-15871-20000192D0006092D00000000003014756   GGSL
TXBWIC20100-12313-15873-60000002D0000306D00000000003014757   GGSL
TXBWIC20100-12313-16121-70000020D0000372D00000000003011886   GGSL
TXBWIC20100-12313-16123-10000032D0002777D00000000003011888   GGSL
TXBWIC20100-12313-34952-30000004D0000212D00000000001034952   GGSL
TXBWIC20100-12313-38321-30000003D0000332D00000000007938321   GGSL
TXBWIC20100-12313-38401-20000005D0000343D00000000003018875   GGSL
TXBWIC20100-12313-38412-80000058D0008627D00000000003014935   GGSL
TXBWIC20100-12313-38431-90000028D0002019D00000000003012681   GGSL
TXBWIC20100-12313-38432-60000032D0003268D00000000003012683   GGSL
TXBWIC20100-12313-47171-20000096D0000320D00000000003044149   GGSL
TXBWIC20100-12313-47181-10000192D0000512D00000000003044169   GGSL
TXBWIC20100-13964-53881-60000003D0000073D0000000000703363    GGSL
TXBWIC20100-14021-01412-00000003D0000372D00000000001024      GGSL
TXBWIC20100-14021-02731-10000002D0000764D00000000001060B     GGSL
TXBWIC20100-15966-49430-10000006D0000097D000100001249 00 430 GGSL
TXBWIC20100-16069-00005-90000096D0000576D0002400000TP-15C    GGSL
TXBWIC20100-16069-00007-30000015D0000091D0000900000BN-1      GGSL
TXBWIC20100-16069-00008-00000126D0000771D0000600024BN-2      GGSL
TXBWIC20100-16069-00013-40000012D0000296D0004200000BN-3      GGSL
TXBWIC20100-16069-00014-10000006D0000109D0001600000BN-4      GGSL
TXBWIC20100-16069-00015-80000008D0000193D0005000000BN-5      GGSL
TXBWIC20100-16069-00030-10000036D0000400D0002400000OW-6      GGSL
TXBWIC20100-16069-00049-30000030D0000484D0001200000DX-7      GGSL
TXBWIC20100-16069-00145-20000020D0000380D0000800008RHO-4     GGSL
TXBWIC20100-16069-00218-30000012D0000057D0000000000HST-100   GGSL
TXBWIC20100-16069-00498-90000006D0000055D0000000000HGP-1012  GGSL
TXBWIC20100-17849-19992-10000018D0000023D0000000000CLA109    GGSL
TXBWIC20100-18506-00000-00000110D0001626D00420001300111-5    GGSL
TXBWIC20100-18506-00010-30000117D0000812D0004700216010-6     GGSL
TXBWIC20100-18506-00021-90000042D0000583D0020700024021-6     GGSL
TXBWIC20100-18506-00102-50000120D0000478D0023400000102-12    GGSL
TXBWIC20100-18506-00110-50000288D0001907D0015800540110-12    GGSL
TXBWIC20100-18506-00116-20000147D0000944D0012600720116-12    GGSL
TXBWIC20100-18506-00117-90000183D0001727D0014400690117-6     GGSL
TXBWIC20100-18506-00125-40000024D0000124D0048000000125       GGSL
TXBWIC20100-18506-00130-80000024D0000136D0019200000130       GGSL
TXBWIC20100-18506-02000-20000024D0000174D00000000002000      GGSL
TXBWIC20100-18506-02001-90000024D0000282D00000000002001      GGSL
TXBWIC20100-18583-06291-90000026D0000130D0000000000703697    GGSL
TXBWIC20100-18583-07718-00000011D0000221D0000000000703693    GGSL
TXBWIC20100-18583-08758-50000005D0000017D0000000000703525    GGSL
TXBWIC20100-18583-10001-70000001D0000024D0000000000703526    GGSL
TXBWIC20100-18583-10002-40000005D0000119D0000000000703527    GGSL
TXBWIC20100-18583-10003-10000001D0000024D0000000000703528    GGSL
TXBWIC20100-18583-10004-80000001D0000024D0000000000703529    GGSL
TXBWIC20100-18583-10005-50000001D0000024D0000000000703530    GGSL
TXBWIC20100-18583-10006-20000001D0000024D0000000000703531    GGSL
TXBWIC20100-18583-10007-90000001D0000024D0000000000703532    GGSL
TXBWIC20100-18583-10008-60000001D0000024D0000000000703533    GGSL
TXBWIC20100-18583-10042-00000003D0000072D0000000000703535    GGSL
TXBWIC20100-18583-10121-20000005D0000141D0000000000703550    GGSL
TXBWIC20100-18583-10122-90000002D0000056D0000000000703551    GGSL
TXBWIC20100-18583-10123-60000003D0000085D0000000000703552    GGSL
TXBWIC20100-18583-10124-30000001D0000028D0000000000703553    GGSL
TXBWIC20100-18583-10125-00000001D0000028D0000000000703554    GGSL
TXBWIC20100-18583-10126-70000001D0000028D0000000000703555    GGSL
TXBWIC20100-18583-10127-40000001D0000028D0000000000703556    GGSL
TXBWIC20100-18583-10128-10000001D0000028D0000000000703557    GGSL
TXBWIC20100-18583-10161-80000002D0000057D0000000000703559    GGSL
TXBWIC20100-18583-10847-10000004D0000113D0000000000703558    GGSL
TXBWIC20100-18583-10862-40000006D0000126D0000000000703596    GGSL
TXBWIC20100-18583-10864-80000003D0000060D0000000000703598    GGSL
TXBWIC20100-18583-10916-40000004D0000095D0000000000703611    GGSL
TXBWIC20100-18583-10956-00000002D0000048D0000000000703619    GGSL
TXBWIC20100-18583-11076-40000001D0000028D0000000000703635    GGSL
TXBWIC20100-18583-11077-10000001D0000028D0000000000703636    GGSL
TXBWIC20100-18583-18497-00000004D0000102D0000000000703675    GGSL
TXBWIC20100-18583-18498-70000003D0000085D0000000000703676    GGSL
TXBWIC20100-18583-18500-70000002D0000057D0000000000703678    GGSL
TXBWIC20100-18583-18619-60000001D0000021D0000000000703684    GGSL
TXBWIC20100-18583-18620-20000003D0000072D0000000000703685    GGSL
TXBWIC20100-18583-19356-90000003D0000213D000000000050MR2     GGSL
TXBWIC20100-18583-19357-60000007D0000472D000000000025MR2     GGSL
TXBWIC20100-20279-99500-50000054D0000646D0000000000703936    GGSL
TXBWIC20100-20279-99511-10000041D0000529D0000000000703940    GGSL
TXBWIC20100-20279-99800-60000016D0000037D0000000000703955    GGSL
TXBWIC20100-22179-10011-40000006D0000057D0000000000lg 3104   GGSL
TXBWIC20100-22179-10013-80000012D0000088D0000000000LG1100    GGSL
TXBWIC20100-22179-10035-00000002D0000108D0011900000LG4110    GGSL
TXBWIC20100-22179-10084-80000030D0000225D0000000048LG7220    GGSL
TXBWIC20100-22179-10090-90000057D0001552D0000900018LG4300    GGSL
TXBWIC20100-22179-10096-10000018D0000389D0000000000lg 5328   GGSL
TXBWIC20100-22179-10115-90000132D0002181D0006200000lg 5599   GGSL
TXBWIC20100-22179-10124-10000120D0000652D0030600012LG6515    GGSL
TXBWIC20100-22179-10133-30000006D0000068D0000000012lg 4102   GGSL
TXBWIC20100-22179-10139-50000030D0000126D0006600000LG1130    GGSL
TXBWIC20100-22179-10140-10000005D0000550D0011100001LG6520    GGSL
TXBWIC20100-22179-10150-00000103D0001032D00188002167115      GGSL
TXBWIC20100-22179-10151-70000033D0001343D00216000077117      GGSL
TXBWIC20100-22179-10164-70000024D0000101D0002400024LG1140    GGSL
TXBWIC20100-22179-10185-20000114D0001234D0014700006LG6500    GGSL
TXBWIC20100-22179-10239-20000004D0000312D0000000000LG6155    GGSL
TXBWIC20100-22179-10246-00000117D0001760D0026700252LG6570    GGSL
TXBWIC20100-22179-10247-70000136D0002888D00074001997122      GGSL
TXBWIC20100-22179-10248-40000096D0000710D0016500000LG6575    GGSL
TXBWIC20100-22179-10266-80000012D0000205D0000000000LG6145    GGSL
TXBWIC20100-22179-10365-80000006D0000038D0005400084lg 7129   GGSL
TXBWIC20100-22179-10366-50000015D0000132D0002700012LG7262    GGSL
TXBWIC20100-22179-10374-00000006D0000037D0000000000lg 6286   GGSL
TXBWIC20100-22179-10376-40000004D0000077D0000000000LG6292    GGSL
TXBWIC20100-22179-10378-80000006D0000044D0001200012lg6274    GGSL
TXBWIC20100-22179-10390-00000072D0000591D0008100108LG6332    GGSL
TXBWIC20100-22179-10395-50000036D0001026D0005400006LG6356    GGSL
TXBWIC20100-22179-10408-20000144D0001143D0001800108LG 6338   GGSL
TXBWIC20100-22179-10429-70000036D0000480D0000000360LG6334    GGSL
TXBWIC20100-22179-10443-30000024D0000210D0000000000LG3370    GGSL
TXBWIC20100-22179-10454-90000078D0000771D0000300039lg 3303   GGSL
TXBWIC20100-22179-10458-70000141D0001270D0004800003lg 3234   GGSL
TXBWIC20100-22179-10509-60000006D0000070D0000000000lg6172    GGSL
TXBWIC20100-22179-10517-10000006D0000128D0000000000lg 3176   GGSL
TXBWIC20100-22401-00115-80000445D0003699D0001000007MDC-15    GGSL
TXBWIC20100-22401-00301-50000035D0000366D0000000006THD-20    GGSL
TXBWIC20100-22401-10088-20000030D0000679D0012800040EAR-60    GGSL
TXBWIC20100-23077-00104-60000346D0001481D000100000352050326  GGSL
TXBWIC20100-23077-00107-70012675D0000375D000000000050055010  GGSL
TXBWIC20100-23077-00109-10050700D0001576D008450000050055071  GGSL
TXBWIC20100-23077-00204-30000494D0001479D010950006552055472  GGSL
TXBWIC20100-23077-00205-00006878D0020683D024110020952055475  GGSL
TXBWIC20100-23077-00207-40011250D0000437D000000000052055477  GGSL
TXBWIC20100-23077-00208-10001864D0006688D008280007252050320  GGSL
TXBWIC20100-23077-00209-80003062D0009967D014240026550055016  GGSL
TXBWIC20100-23077-00210-40003724D0011728D022620019552058069  GGSL
TXBWIC20100-23077-00211-10006000D0000168D000000007552050045  GGSL
TXBWIC20100-23077-00212-80003160D0009957D007510014552058058  GGSL
TXBWIC20100-23077-00213-50001766D0005096D016370026352058059  GGSL
TXBWIC20100-23077-00303-30003528D0000188D000000012640105120  GGSL
TXBWIC20100-23077-00504-40028224D0001554D000000000040200451  GGSL
TXBWIC20100-23077-19142-60000243D0004641D0009500052          GGSL
TXBWIC20100-23077-41518-80000699D0006808D0004500080          GGSL
TXBWIC20100-23077-52600-60000488D0004177D0010400028NG526     GGSL
TXBWIC20100-23534-00428-80000041D0002279D00002000001664288H  GGSL
TXBWIC20100-23626-00595-20000014D0000490D00000000005316362   GGSL
TXBWIC20100-23626-01710-80000252D0001238D0150300042800       GGSL
TXBWIC20100-23626-01720-70000216D0001370D0033900000000900    GGSL
TXBWIC20100-23626-02830-20000005D0000244D0003200001116841    GGSL
TXBWIC20100-23626-02842-50000008D0000028D0003200000116845    GGSL
TXBWIC20100-23626-04055-70000024D0000131D00000000003512845   GGSL
TXBWIC20100-23851-01019-60000008D0000055D00000000003101019   GGSL
TXBWIC20100-23851-01029-50000010D0000128D00000000003101029   GGSL
TXBWIC20100-23851-01030-10000008D0000047D00000000003101030   GGSL
TXBWIC20100-23851-01043-10000042D0000364D00000000003101043   GGSL
TXBWIC20100-23851-01045-50000025D0000328D00000000003101045   GGSL
TXBWIC20100-23851-01046-20000015D0000121D00000000003101046   GGSL
TXBWIC20100-23851-01047-90000002D0000045D00000000003101047   GGSL
TXBWIC20100-23851-01051-60000029D0000149D00000000003101051   GGSL
TXBWIC20100-23851-01052-30000004D0000019D00000000003101052   GGSL
TXBWIC20100-23851-01054-70000015D0000091D00000000003101054   GGSL
TXBWIC20100-23851-01057-80000001D0000006D00000000003101057   GGSL
TXBWIC20100-23851-01058-50000028D0000184D00000000003101058   GGSL
TXBWIC20100-23851-01060-80000003D0000020D00000000003101060   GGSL
TXBWIC20100-23851-01063-90000009D0000046D00000000003101063   GGSL
TXBWIC20100-23851-01132-20000001D0000007D00000000003101132   GGSL
TXBWIC20100-23851-01312-80000017D0000170D00000000003101312   GGSL
TXBWIC20100-23851-01325-80000004D0000041D00000000003101325   GGSL
TXBWIC20100-23851-01367-80000006D0000033D00000000003101367   GGSL
TXBWIC20100-23851-01691-40000050D0000114D00000000003101691   GGSL
TXBWIC20100-23883-00001-10000348D0005842D0007200045G362      GGSL
TXBWIC20100-23883-00002-80000180D0000728D0013500024G385      GGSL
TXBWIC20100-23883-00003-50000231D0000927D0003900012G390      GGSL
TXBWIC20100-23883-01002-70000279D0002435D00024000061002      GGSL
TXBWIC20100-23883-05000-90000036D0000299D00073000005000      GGSL
TXBWIC20100-23883-08620-60000006D0001054D00002000028620B     GGSL
TXBWIC20100-23883-15710-40000871D0007820D067400073015710     GGSL
TXBWIC20100-23883-16100-20000005D0000057D000000003016100     GGSL
TXBWIC20100-23883-26011-80000130D0003592D000190000626011XP   GGSL
TXBWIC20100-23883-26021-70000300D0008403D003980001626021XP   GGSL
TXBWIC20100-23883-26031-60000039D0001568D000030000626031XP   GGSL
TXBWIC20100-23883-27010-00000059D0001184D000620000427010     GGSL
TXBWIC20100-23883-27020-90000325D0007058D000460002227020     GGSL
TXBWIC20100-23883-27030-80000074D0001929D000070000827030     GGSL
TXBWIC20100-23883-60100-30000153D0007015D003590002060100     GGSL
TXBWIC20100-23883-61800-10000006D0000339D000000005061800     GGSL
TXBWIC20100-23883-63900-60000006D0000656D000000000063900     GGSL
TXBWIC20100-23883-63924-20000011D0001844D000280000163924     GGSL
TXBWIC20100-23883-66002-40000001D0000006D00007000006-6002    GGSL
TXBWIC20100-23883-67749-70000006C0000006C00003000006-7749    GGSL
TXBWIC20100-23883-68061-90000002D0000055D00013000006-8061    GGSL
TXBWIC20100-23883-68180-70000002D0000026D00000000006-8180    GGSL
TXBWIC20100-23883-68219-40000001D0000016D00000000006-8219    GGSL
TXBWIC20100-23883-68238-50000003D0000131D00000000006-8238    GGSL
TXBWIC20100-23883-97100-70000003D0001686D000070000097100     GGSL
TXBWIC20100-23883-97361-20000002D0000324D000050000097361     GGSL
TXBWIC20100-23883-97561-60000006D0001206D000100000097561     GGSL
TXBWIC20100-24654-09334-80000016D0000420D00123000009334      GGSL
TXBWIC20100-24654-55110-70000018D0000093D00000000125110-6    GGSL
TXBWIC20100-24654-55118-30000042D0000297D00018000005118.0    GGSL
TXBWIC20100-25033-14645-70000012D0000018D000120000014645     GGSL
TXBWIC20100-25033-40355-00000003D0000047D000090000040355     GGSL
TXBWIC20100-25531-00350-40000002D0000073D00006000007511I     GGSL
TXBWIC20100-25626-00000-00000328D0006688D9866800000          GGSL
TXBWIC20100-25784-10925-10000005D0000015D0000000000703753    GGSL
TXBWIC20100-25784-30302-40000004D0000038D00000000001530302   GGSL
TXBWIC20100-25784-30315-40000001D0000012D0000000000703758    GGSL
TXBWIC20100-25784-35130-80000010D0000030D0000000000703752    GGSL
TXBWIC20100-25845-12346-20000192D0000232D000000004824950     GGSL
TXBWIC20100-25845-12354-70000240D0000290D000000019224951     GGSL
TXBWIC20100-26432-20125-90000006D0000062D0000000000HHBS-125  GGSL
TXBWIC20100-26978-17003-00000514C0000062C000000000017003     GGSL
TXBWIC20100-26978-17008-50000514C0000062C000000000017008     GGSL
TXBWIC20100-26978-30200-70000003D0000062D000080000030200     GGSL
TXBWIC20100-26978-30413-10000024D0000136D000000002430413     GGSL
TXBWIC20100-26978-34083-20000072C0000136C000000000034083     GGSL
TXBWIC20100-26978-34123-50000083C0000136C000000000034123     GGSL
TXBWIC20100-26978-35060-20000077C0000136C000000000035060     GGSL
TXBWIC20100-27324-55140-70000142D0000360D000440000040105130  GGSL
TXBWIC20100-28009-11225-80001356D0006804D01794000541225.0    GGSL
TXBWIC20100-28009-11227-20000012D0000032D00000000061227.0    GGSL
TXBWIC20100-28009-11250-00006435D0046135D02113001261250.0    GGSL
TXBWIC20100-28009-11420-70000698D0003289D00107000001420P     GGSL
TXBWIC20100-28009-11440-50002368D0016618D00973000651440P     GGSL
TXBWIC20100-28009-11460-30000240D0000562D00000000001460      GGSL
TXBWIC20100-28009-11638-60002700D0001265D00030000001638      GGSL
TXBWIC20100-28009-11640-90014400D0001202D00000001201640      GGSL
TXBWIC20100-28009-11815-10003025D0000361D00000000001815      GGSL
TXBWIC20100-28009-11925-70004225D0000463D00000000001925      GGSL
TXBWIC20100-28009-15240-70002985D0012138D00289000215240.0    GGSL
TXBWIC20100-28009-15440-10000120D0000394D00060000005440.0    GGSL
TXBWIC20100-28009-15440-30010800D0001181D00000000001840      GGSL
TXBWIC20100-28009-15450-00000012D0000109D00193000055450.0    GGSL
TXBWIC20100-28009-15540-80003692D0013092D00330001255540.0    GGSL
TXBWIC20100-28009-15720-40000475D0001399D00119000105720.0    GGSL
TXBWIC20100-28009-15740-20001152D0004832D00226000105740.0    GGSL
TXBWIC20100-30541-00067-20000006D0000056D0005400000JCD-100FGPGGSL
TXBWIC20100-30541-01030-50000018D0000159D0004800000JCD-100SMJGGSL
TXBWIC20100-30541-01034-30000032D0000724D0003400000JCD-030SM GGSL
TXBWIC20100-30541-09982-90000200D0000444D0000000000JCD-TPP   GGSL
TXBWIC20100-30641-09801-20000300D0000596D0000000000SWPDQ     GGSL
TXBWIC20100-30641-32937-60000144D0000238D0000000000RPDQ      GGSL
TXBWIC20100-30641-33935-10000252D0000420D0001800000YPDQ      GGSL
TXBWIC20100-30641-35936-60000252D0000448D0001800018WPDQ      GGSL
TXBWIC20100-30907-00548-80000024D0000412D00000000009600548   GGSL
TXBWIC20100-30907-03471-60000003D0000069D00000000009676025   GGSL
TXBWIC20100-30907-03581-20000004D0000092D00000000009677125   GGSL
TXBWIC20100-30907-03598-00000006D0000122D00000000009607713   GGSL
TXBWIC20100-30907-03727-40000002D0000054D00000000009673025   GGSL
TXBWIC20100-30907-03744-10000012D0000296D00000000009607901   GGSL
TXBWIC20100-30907-03749-60000001D0000027D00000000009679025   GGSL
TXBWIC20100-30907-03750-20000001D0000027D00000000009679050   GGSL
TXBWIC20100-30907-03766-30000002D0000049D00000000009607903   GGSL
TXBWIC20100-30907-03817-20000002D0000055D00000000009675075   GGSL
TXBWIC20100-30907-03818-90000002D0000055D00000000009675100   GGSL
TXBWIC20100-30907-03837-00000002D0000055D00000000009679125   GGSL
TXBWIC20100-30907-03854-70000013D0000320D00000000009607913   GGSL
TXBWIC20100-30907-04165-30000004D0000132D00000000009604165   GGSL
TXBWIC20100-30907-04924-60000004D0000450D00000000006800031   GGSL
TXBWIC20100-30907-04974-10000005D0000032D00000000009602563   GGSL
TXBWIC20100-30907-05123-20000012D0000075D00000000009605122   GGSL
TXBWIC20100-30907-05445-50000007D0000146D00000000009600495   GGSL
TXBWIC20100-30907-06215-30000008D0000204D00000000006800074   GGSL
TXBWIC20100-32221-10434-20000221D0003560D006570008410434     GGSL
TXBWIC20100-32221-10505-90000414D0001823D002940031210505     GGSL
TXBWIC20100-32221-10720-00000042D0000237D000080001210720     GGSL
TXBWIC20100-32221-10768-80000892D0022927D005020005410768     GGSL
TXBWIC20100-32221-11008-40001908D0001232D025200014411008     GGSL
TXBWIC20100-32221-11695-00000194D0002973D007380000011695     GGSL
TXBWIC20100-32221-31063-70000008D0000167D000120001631063     GGSL
TXBWIC20100-32221-31228-00000384D0001125D005640001231228     GGSL
TXBWIC20100-32221-32297-50000821D0014988D009610022832297     GGSL
TXBWIC20100-32221-32325-50000078D0000447D001470000032325     GGSL
TXBWIC20100-32221-33033-80000663D0005242D005070003633033     GGSL
TXBWIC20100-32221-33035-20001489D0015138D003120006033035     GGSL
TXBWIC20100-32221-33326-10001918D0015650D017740006733326     GGSL
TXBWIC20100-32221-33327-80001299D0016815D013680007133327     GGSL
TXBWIC20100-32221-33704-70001118D0039074D070100022433704     GGSL
TXBWIC20100-32221-40712-20000927D0010101D010790010840712     GGSL
TXBWIC20100-32221-40730-60000091D0000871D000750000040730     GGSL
TXBWIC20100-32221-43040-30000172D0000858D002120001242194     GGSL
TXBWIC20100-32221-57705-00000384D0002235D008640032411685     GGSL
TXBWIC20100-32247-00000-00000008D0000147D000120000417185     GGSL
TXBWIC20100-32247-00900-30000126D0000355D00144000121009001   GGSL
TXBWIC20100-32247-00910-20000090D0000276D00000000001009101   GGSL
TXBWIC20100-32247-00950-80000006D0000017D00078000001009501   GGSL
TXBWIC20100-32247-03313-80000091D0002094D00175000003313B     GGSL
TXBWIC20100-32247-03594-10000770D0004361D001180000070359430  GGSL
TXBWIC20100-32247-05514-70005348D0019612D031200000070551430  GGSL
TXBWIC20100-32247-10500-20000024D0000204D0000600009110500    GGSL
TXBWIC20100-32247-11307-60003198D0005979D005270000071130756  GGSL
TXBWIC20100-32247-14905-10000064D0000399D000800000814905     GGSL
TXBWIC20100-32247-15307-20000160D0000383D000400000071530751  GGSL
TXBWIC20100-32247-17183-00000018D0000145D000120000017183     GGSL
TXBWIC20100-32247-17290-50000060D0000531D000000000617290     GGSL
TXBWIC20100-32247-17501-20000018D0000209D000240000017508     GGSL
TXBWIC20100-32247-18221-80000020D0000395D000080000018221     GGSL
TXBWIC20100-32247-18225-60000048D0000512D001380000018225     GGSL
TXBWIC20100-32247-18260-70000036D0000389D000120001218260     GGSL
TXBWIC20100-32247-18266-90000012D0000132D001200000018266     GGSL
TXBWIC20100-32247-18272-00000006D0000031D000770000018272     GGSL
TXBWIC20100-32247-18320-80000024D0000197D001200000018320     GGSL
TXBWIC20100-32247-18348-20000048D0000632D000240000018348     GGSL
TXBWIC20100-32247-18350-50000015D0000086D016500000018350     GGSL
TXBWIC20100-32247-18353-60000018D0000415D002400000618353     GGSL
TXBWIC20100-32247-18354-30000024D0000272D000900000018354     GGSL
TXBWIC20100-32247-18362-80000180D0005535D000000000018362     GGSL
TXBWIC20100-32247-19002-20000006D0000051D000060001219002     GGSL
TXBWIC20100-32247-19003-90000010D0000363D000240000519003     GGSL
TXBWIC20100-32247-19594-20000088D0000658D000920001071959430  GGSL
TXBWIC20100-32247-20605-10000032D0000612D000300001221605     GGSL
TXBWIC20100-32247-20784-30001434D0004341D003300001872078430  GGSL
TXBWIC20100-32247-21030-00000045D0001068D003290002021030A    GGSL
TXBWIC20100-32247-21701-90000012C0000072D000000000021701     GGSL
TXBWIC20100-32247-22305-80000021D0000306D000490000022305     GGSL
TXBWIC20100-32247-23405-40000080D0001148D000840000323405B    GGSL
TXBWIC20100-32247-23622-50000010D0000139D000020000023622     GGSL
TXBWIC20100-32247-25006-10000065D0001356D002600000125006A    GGSL
TXBWIC20100-32247-25009-20000003D0000167D000450000425009     GGSL
TXBWIC20100-32247-26007-70000018D0000507D001410000026007B    GGSL
TXBWIC20100-32247-26784-70000030D0000109D001920007272678430  GGSL
TXBWIC20100-32247-27791-40014400D0000232D000000000072779180  GGSL
TXBWIC20100-32247-30156-50000342C0000232C000120000030156     GGSL
TXBWIC20100-32247-30177-00000004D0000056D000000000030177     GGSL
TXBWIC20100-32247-35594-00000220D0001265D000070000073559430  GGSL
TXBWIC20100-32247-35605-30000010D0000238D000010001144615A    GGSL
TXBWIC20100-32247-36605-20000044D0000747D001910000099605     GGSL
TXBWIC20100-32247-37594-80000504D0003063D002360010073759430  GGSL
TXBWIC20100-32247-37610-50000070D0001045D000180000737610C    GGSL
TXBWIC20100-32247-38605-00000219D0003076D000830000438605D    GGSL
TXBWIC20100-32247-39594-60000331D0002647D016980000073959430  GGSL
TXBWIC20100-32247-39605-90000005D0000076D000000000039605     GGSL
TXBWIC20100-32247-42784-50000084D0000291D000840000674278430  GGSL
TXBWIC20100-32247-43850-60000008D0000184D00092000004385010   GGSL
TXBWIC20100-32247-43854-40000004D0000036D00048000004385404   GGSL
TXBWIC20100-32247-45651-70000189D0001478D000000001045651300  GGSL
TXBWIC20100-32247-47783-30000048D0000176D000900000674778300  GGSL
TXBWIC20100-32247-49019-10000009D0000108D000300000049019     GGSL
TXBWIC20100-32247-49021-40000009D0000044D000110000049021     GGSL
TXBWIC20100-32247-49024-50000037D0000456D000360000049024     GGSL
TXBWIC20100-32247-49785-50000240D0000760D000780000674978500  GGSL
TXBWIC20100-32247-50086-90000012D0000213D00012000005008610   GGSL
TXBWIC20100-32247-50089-00000004D0000103D00072000005008910   GGSL
TXBWIC20100-32247-50154-50000050D0000299D000000000045015430  GGSL
TXBWIC20100-32247-50524-60004619D0028827D029880014475052430  GGSL
TXBWIC20100-32247-51105-60000002D0000035D000460000051105     GGSL
TXBWIC20100-32247-51115-50000006D0000193D000650000051115     GGSL
TXBWIC20100-32247-52524-40000624D0000113D002500000085252430  GGSL
TXBWIC20100-32247-52784-20000084D0000298D000480001885278430  GGSL
TXBWIC20100-32247-53105-40000148D0001213D001420000053105     GGSL
TXBWIC20100-32247-55513-50000190C0001213C003630001475551300  GGSL
TXBWIC20100-32247-55523-40000871D0010304D004040007275552300  GGSL
TXBWIC20100-32247-55783-20000138D0000603D001800009075578300  GGSL
TXBWIC20100-32247-55863-10000007D0000050D000020000075586300  GGSL
TXBWIC20100-32247-56063-40000016D0000150D000960000045606300  GGSL
TXBWIC20100-32247-56513-40008451D0048576D059880003875651300  GGSL
TXBWIC20100-32247-56523-30009341D0099301D016310004275652300  GGSL
TXBWIC20100-32247-56783-10004932D0016436D010430025275678300  GGSL
TXBWIC20100-32247-56863-00000313D0002002D002760000075686300  GGSL
TXBWIC20100-32247-60594-60000050D0000280D002350000076059430  GGSL
TXBWIC20100-32247-71030-50000006D0000056D000840000671030     GGSL
TXBWIC20100-32247-71060-20000253D0003159D000310000671060     GGSL
TXBWIC20100-32247-71131-90000127D0002326D000920000171131     GGSL
TXBWIC20100-32247-74150-70001152D0005241D0012000108274150    GGSL
TXBWIC20100-32247-74250-40001020D0006656D0001200432274250    GGSL
TXBWIC20100-32247-74395-20000100D0000708D000000000043959430  GGSL
TXBWIC20100-32247-74850-60000416D0006113D0002400056274850    GGSL
TXBWIC20100-32247-75902-10000034D0002432D000140000075902     GGSL
TXBWIC20100-32247-76121-50000147D0005023D000570000076121     GGSL
TXBWIC20100-32247-76232-80000030D0001812D000360000376232     GGSL
TXBWIC20100-32247-76565-70000012D0000649D000150000076565     GGSL
TXBWIC20100-32247-77160-30000324D0001316D0007800024277160    GGSL
TXBWIC20100-32247-77260-00000065C0001316C0000000432277260    GGSL
TXBWIC20100-32247-77860-20000042D0000589D0001800006277860    GGSL
TXBWIC20100-32247-77960-90000340D0006096D0011200156277960    GGSL
TXBWIC20100-32247-95517-10000180D0000615D003670000079551750  GGSL
TXBWIC20100-32584-94501-90000029D0000144D00000000005590001   GGSL
TXBWIC20100-32584-94506-40000034D0000173D00000000005594506   GGSL
TXBWIC20100-32584-94507-10000009D0000040D00000000005594507   GGSL
TXBWIC20100-32584-94509-50000023D0000110D00000000005594509   GGSL
TXBWIC20100-32584-94510-10000004D0000022D00000000005594510   GGSL
TXBWIC20100-32584-94515-60000004D0000024D00000000005594515   GGSL
TXBWIC20100-32903-00169-30000360D0000391D0024000000SLI06000E3GGSL
TXBWIC20100-32903-00309-30000168D0000337D0021600000SLI10000E3GGSL
TXBWIC20100-32903-00341-30000012D0000095D0007800000SLI24000E3GGSL
TXBWIC20100-32903-00359-80000216D0000301D0021600000SLI08000E3GGSL
TXBWIC20100-32903-12006-60000120D0000191D0033600024LIA06000E3GGSL
TXBWIC20100-32903-12008-00000264D0000660D0031200024LIA08000E3GGSL
TXBWIC20100-32903-12010-30000108D0000387D0022800036LIA10000E3GGSL
TXBWIC20100-32903-12012-70000180D0001061D0030000000LIA12000E3GGSL
TXBWIC20100-32903-12014-10000108D0000801D0027600012LIA14000E3GGSL
TXBWIC20100-32903-12017-20000130D0001476D0028800012LIA16000E3GGSL
TXBWIC20100-32903-12020-20000024D0000370D0009600006LIA20000E3GGSL
TXBWIC20100-32903-12024-00000012D0000256D0011400000LIA24000E3GGSL
TXBWIC20100-32903-12324-10000018D0000080D0004200000SVN24000E3GGSL
TXBWIC20100-32903-12714-00000036D0000215D0015600000GAB14000E3GGSL
TXBWIC20100-32903-12718-80000012D0000098D0009000030GAB18000E3GGSL
TXBWIC20100-32903-12722-50000012D0000158D0009000000GAB22000E3GGSL
TXBWIC20100-32903-12818-50000018D0000108D0009000000VNP18000E3GGSL
TXBWIC20100-32903-12824-60000024D0000177D0008400000VNP24000E3GGSL
TXBWIC20100-32903-50763-80000156D0000530D0026400000SLI12000E3GGSL
TXBWIC20100-32903-50802-40000120D0000427D0028200000SLI14000E3GGSL
TXBWIC20100-32903-72518-60000008D0000057D0000000000RZ.WC2G0B9GGSL
TXBWIC20100-32903-75049-20000060D0000358D0008400006SLI20000E3GGSL
TXBWIC20100-32903-75080-50000132D0000515D0022800000SLI17000E3GGSL
TXBWIC20100-33349-00000-00076120D0003148D000280000070000362  GGSL
TXBWIC20100-33607-00001-50000068D0001794D0003600000GBA-1     GGSL
TXBWIC20100-33607-00953-40000020D0000482D0000400024SP-33     GGSL
TXBWIC20100-33745-97185-40000016D0000389D004040000097185     GGSL
TXBWIC20100-34141-00011-70000171D0001404D0011900000YCBSM3CF-PGGSL
TXBWIC20100-34141-00012-40000421D0003033D0039300000YCBSI3CF-PGGSL
TXBWIC20100-34411-00051-90000012D0000013D000000000005M       GGSL
TXBWIC20100-34411-74501-40000030D0000630D0000600000874501-100GGSL
TXBWIC20100-34417-00000-00159250D0004145D006500000050055077  GGSL
TXBWIC20100-34417-53000-30002949D0011080D000160030952050327  GGSL
TXBWIC20100-34613-00002-70000106D0000883D0017100024LH002     GGSL
TXBWIC20100-34613-00003-40000123D0000624D0019500018LH003     GGSL
TXBWIC20100-34613-00004-10000081D0000597D0022200006LH004     GGSL
TXBWIC20100-34613-00006-50000107D0000861D0002200025LH006     GGSL
TXBWIC20100-34613-00022-50000003D0000040D0000500003LH022     GGSL
TXBWIC20100-34613-00029-40000012D0000154D00014000108205      GGSL
TXBWIC20100-34613-00640-10000160D0000017D00000000136-40HD    GGSL
TXBWIC20100-34613-03603-30000015D0000050D0000000003U3603     GGSL
TXBWIC20100-34613-05017-60000108D0000735D00000000005017BL    GGSL
TXBWIC20100-34613-07759-30000012D0000048D00000000007759BL    GGSL
TXBWIC20100-34613-08141-50000030D0000001D00000000004992BL    GGSL
TXBWIC20100-34613-09164-30000004D0000071D00000000009164      GGSL
TXBWIC20100-35307-00820-60000096D0000122D0000000552820       GGSL
TXBWIC20100-35307-00826-80000084D0000121D0000000480826       GGSL
TXBWIC20100-35307-00828-20000036D0000064D0008400000828       GGSL
TXBWIC20100-35307-00844-20000024D0000048D0004800000844       GGSL
TXBWIC20100-35307-00846-30000024D0000071D0006000024846       GGSL
TXBWIC20100-35307-00861-90000012D0000027D0000000360861       GGSL
TXBWIC20100-35307-00874-90000072D0000098D0008400000874       GGSL
TXBWIC20100-35307-01601-00000066D0000742D00132000001601      GGSL
TXBWIC20100-35307-01609-60000084D0000292D00600005761609CS    GGSL
TXBWIC20100-35307-01612-60000036D0000105D00000000001612      GGSL
TXBWIC20100-35307-01618-80000012D0000062D00012000001618      GGSL
TXBWIC20100-35307-01635-50000008D0000121D00010000001635      GGSL
TXBWIC20100-35307-01810-60000322D0001339D00364000481810      GGSL
TXBWIC20100-35307-01815-10000091D0000546D00166000001815      GGSL
TXBWIC20100-35307-01820-50000030D0000329D00090000121820      GGSL
TXBWIC20100-35307-01825-00000132D0001126D00000003001825      GGSL
TXBWIC20100-35307-01840-30000030D0000455D00066000001840      GGSL
TXBWIC20100-35307-01845-80000024D0000262D00000000121845      GGSL
TXBWIC20100-35355-00540-00000120D0000012D00000000445-40HD    GGSL
TXBWIC20100-35355-00803-60000140D0000108D0000000007SS3       GGSL
TXBWIC20100-35355-00804-30000140D0000154D0000000003SS4       GGSL
TXBWIC20100-35355-00805-00000160D0000214D0000700023SS5       GGSL
TXBWIC20100-35355-00806-70000040D0000070D0000000001SS6       GGSL
TXBWIC20100-35355-00924-80000164D0001672D0006800028924       GGSL
TXBWIC20100-35355-01151-70000040D0000180D00000000301151PDQ   GGSL
TXBWIC20100-35355-94006-00000024D0000136D000000003394006     GGSL
TXBWIC20100-35355-95006-90000006D0000043D000000004195006     GGSL
TXBWIC20100-35951-07011-60000005D0000435D000840000407011     GGSL
TXBWIC20100-36348-00610-70000054D0000253D00004000060610      GGSL
TXBWIC20100-36348-00645-90000028D0000361D0000800000645       GGSL
TXBWIC20100-36348-01020-30000001D0000015D00009000011020      GGSL
TXBWIC20100-36348-01045-60000003D0000165D00000000021045      GGSL
TXBWIC20100-36348-01079-10000023D0001093D00035000061079      GGSL
TXBWIC20100-36348-70001-20000004D0000020D00000000005266      GGSL
TXBWIC20100-36434-00000-00000120D0001945D004920020410-12420  GGSL
TXBWIC20100-36434-10012-20000048D0000624D000960000010-10012  GGSL
TXBWIC20100-36434-11000-80000140D0001308D004940007760-11000  GGSL
TXBWIC20100-36434-12012-00000012D0000075D000000000010-12012  GGSL
TXBWIC20100-36434-12342-80000124D0000847D000870003560-12342  GGSL
TXBWIC20100-36434-12343-50000006D0000058D001580000260-12343  GGSL
TXBWIC20100-36434-12345-90000024D0000222D000000000010-12345  GGSL
TXBWIC20100-36434-12346-60000135D0000619D001760016260-12346  GGSL
TXBWIC20100-36434-12348-00000024D0000214D000080000010-12348  GGSL
TXBWIC20100-36434-12349-70000024D0000103D000990000060-12349  GGSL
TXBWIC20100-36434-12353-40000874D0011247D004380000960-12353  GGSL
TXBWIC20100-36434-12354-10000020D0000126D000360000810-12354  GGSL
TXBWIC20100-36434-12355-80000092D0000652D001450002110-12355  GGSL
TXBWIC20100-36434-12356-50000078D0000637D001140005810-12356  GGSL
TXBWIC20100-36434-12357-20000021D0000183D000340003410-12357  GGSL
TXBWIC20100-36434-12700-60000024D0000162D000000033610-12700  GGSL
TXBWIC20100-36434-12710-50000012D0000082D000840000010-12710  GGSL
TXBWIC20100-36434-12720-40000012D0000079D000480003610-12720  GGSL
TXBWIC20100-36434-13200-00000012D0000050D00000000726013200   GGSL
TXBWIC20100-36434-14800-80000084D0001384D001200006010-14800  GGSL
TXBWIC20100-36434-14860-20000024D0000318D002640003610-14860  GGSL
TXBWIC20100-36434-15050-90000036D0000529D001320001210-15050  GGSL
TXBWIC20100-36434-22318-00000244D0001055D002860014260-22318  GGSL
TXBWIC20100-36434-22341-80000012D0000129D000000000010-22341  GGSL
TXBWIC20100-36434-22626-60000025D0000302D000660001860-22626  GGSL
TXBWIC20100-36434-22731-70000020D0000194D001370000060-22731  GGSL
TXBWIC20100-36434-22732-40000020D0000265D000690000160-22732  GGSL
TXBWIC20100-36434-24211-20000008D0000174D000030000010-24211  GGSL
TXBWIC20100-36434-28010-70000132D0000949D000000027610-28010  GGSL
TXBWIC20100-36434-28020-60000072D0000573D000000002410-28020  GGSL
TXBWIC20100-36434-32700-00000312D0002368D020180000010-32700  GGSL
TXBWIC20100-36434-34500-10000036D0000321D000240028810-34500  GGSL
TXBWIC20100-36434-82342-70000710D0007083D001490001260-82342  GGSL
TXBWIC20100-36865-12250-20004500D0007762D005400024071140180  GGSL
TXBWIC20100-36865-14511-20004500D0000152D001800000071451180  GGSL
TXBWIC20100-36865-24511-90018000D0000834D001200000072451180  GGSL
TXBWIC20100-36865-45220-30032400D0001350D000000000088452205  GGSL
TXBWIC20100-36865-52965-30079200D0002956D000000000087852965  GGSL
TXBWIC20100-36865-65220-71404000D0058500D000000000088652205  GGSL
TXBWIC20100-36865-71751-70043200D0001296D000000000071751180  GGSL
TXBWIC20100-37321-00000-00000120D0000096D0000000000050       GGSL
TXBWIC20100-37321-00022-80001254D0007024D0011901239022       GGSL
TXBWIC20100-37321-00024-20000548D0005566D0009600612024       GGSL
TXBWIC20100-37321-00025-90000106C0005566C0000000000025       GGSL
TXBWIC20100-37321-00030-30000012D0000149D0000000000030       GGSL
TXBWIC20100-37321-00038-90000012D0000070D0001100000038       GGSL
TXBWIC20100-37321-00040-20000024D0000242D0004800000040       GGSL
TXBWIC20100-37321-00066-20000012D0000119D0000000000066       GGSL
TXBWIC20100-37321-00067-90000006D0000006D0001800000067       GGSL
TXBWIC20100-37321-00068-60000084D0000401D0001200240068       GGSL
TXBWIC20100-37321-00069-30000156D0001786D0018600162069       GGSL
TXBWIC20100-37321-00070-90000120D0001599D0007200192070       GGSL
TXBWIC20100-37321-00105-80000009D0000022D0001200192105       GGSL
TXBWIC20100-37321-00108-90000036D0000100D0003600024108       GGSL
TXBWIC20100-37321-00116-40000008D0000022D0000000000116       GGSL
TXBWIC20100-37321-00121-80000008D0000077D0000000000121       GGSL
TXBWIC20100-37321-00123-20000612D0002141D0029100027123       GGSL
TXBWIC20100-37321-00127-00000102D0000798D0005400156127       GGSL
TXBWIC20100-37321-00141-60000012D0000054D0000000072141       GGSL
TXBWIC20100-37321-00150-80000504D0006757D0010800336150       GGSL
TXBWIC20100-37321-00166-90000036D0000189D0017400000166       GGSL
TXBWIC20100-37321-00197-30000072D0000356D0000000000197       GGSL
TXBWIC20100-37321-00202-40000072D0000706D0010500012202       GGSL
TXBWIC20100-37321-00203-10000042D0000599D0014700012203       GGSL
TXBWIC20100-37321-00210-90000099D0000572D0005100024210       GGSL
TXBWIC20100-37321-00211-60000172D0001598D0005100082211       GGSL
TXBWIC20100-37321-00213-00000171D0001532D0003600528213       GGSL
TXBWIC20100-37321-00214-70000153D0000746D0003000444214       GGSL
TXBWIC20100-37321-00216-10000084D0001146D0000000168216       GGSL
TXBWIC20100-37321-00217-80000036D0000322D0000000000217       GGSL
TXBWIC20100-37321-00230-70000012D0000087D0000000000230       GGSL
TXBWIC20100-37321-00237-60000108D0001235D0001200000237       GGSL
TXBWIC20100-37321-00238-30000096D0000762D0003900048238       GGSL
TXBWIC20100-37321-00240-60000060D0000826D0000000000240       GGSL
TXBWIC20100-37321-00250-50000078D0000386D0000600027250       GGSL
TXBWIC20100-37321-00252-90000123D0001459D0017100036252       GGSL
TXBWIC20100-37321-00253-60000108D0001850D0012600024253       GGSL
TXBWIC20100-37321-00255-00000216D0004430D0000900375255       GGSL
TXBWIC20100-37321-00257-40000063D0000222D0002400027257       GGSL
TXBWIC20100-37321-00274-10000204D0001220D0021000120274       GGSL
TXBWIC20100-37321-00307-60000168D0000633D0005700144307       GGSL
TXBWIC20100-37321-00309-00000030D0000421D0011400048309       GGSL
TXBWIC20100-37321-00330-40000063D0000558D0015300000330       GGSL
TXBWIC20100-37321-00331-10000075D0001055D0022500000331       GGSL
TXBWIC20100-37321-00420-20000054C0001055C0000100001420       GGSL
TXBWIC20100-37321-00426-40000108D0000999D0006300264426       GGSL
TXBWIC20100-37321-00428-80000180D0000643D0001200384428       GGSL
TXBWIC20100-37321-00429-50000006D0000094D0002700102429       GGSL
TXBWIC20100-37321-00442-40000228D0001376D0002100048442       GGSL
TXBWIC20100-37321-00443-10000072D0000714D0007200000443       GGSL
TXBWIC20100-37321-00506-30000060D0000258D0004500360506       GGSL
TXBWIC20100-37321-00543-80000132D0000367D0002700000543       GGSL
TXBWIC20100-37321-00552-00000036D0000554D0007800006552       GGSL
TXBWIC20100-37321-00553-70000092D0002693D0014000006553       GGSL
TXBWIC20100-37321-00573-50000150D0000635D0002700012573       GGSL
TXBWIC20100-37321-00603-90000016D0000184D0016000000603       GGSL
TXBWIC20100-37321-00631-20001870D0005852D2094002184631       GGSL
TXBWIC20100-37321-00634-30000012D0000071D0000000000634       GGSL
TXBWIC20100-37321-00655-80000024D0000169D00000000966556      GGSL
TXBWIC20100-37321-00680-00000151D0001373D0014700003680       GGSL
TXBWIC20100-37321-00683-10000009D0000069D0001200000683       GGSL
TXBWIC20100-37321-00684-80000198D0002049D0000300000685       GGSL
TXBWIC20100-37321-00690-90000081D0000841D0003600000690       GGSL
TXBWIC20100-37321-00691-60000098D0000734D0000000009691       GGSL
TXBWIC20100-37321-00692-30000473D0005198D0022300000          GGSL
TXBWIC20100-37321-00771-50000024D0000114D0002400048771       GGSL
TXBWIC20100-37321-00775-30000231D0001352D0007500108775       GGSL
TXBWIC20100-37321-00777-70000042D0000386D0011400012777       GGSL
TXBWIC20100-37321-00779-10000117D0000838D0011100180779       GGSL
TXBWIC20100-37321-00786-90000444D0001987D0005400030786       GGSL
TXBWIC20100-37321-00789-00000215D0001354D0055801007791       GGSL
TXBWIC20100-37321-00811-80000372D0004038D0009000192811       GGSL
TXBWIC20100-37321-00813-20000135D0001699D0001200246813       GGSL
TXBWIC20100-37321-00857-60000144D0001224D0020400300857       GGSL
TXBWIC20100-37321-00862-00000123D0001507D0012300000862       GGSL
TXBWIC20100-37321-00863-70000009D0000111D0000600000863       GGSL
TXBWIC20100-37321-00868-20000108D0001944D0005400000868       GGSL
TXBWIC20100-37321-00870-50000144D0000870D0003600000870       GGSL
TXBWIC20100-37321-00875-00000204D0001971D0001500000875       GGSL
TXBWIC20100-37321-00880-40000072D0000779D0006600144880       GGSL
TXBWIC20100-37321-00883-50000375D0001713D0018300408883       GGSL
TXBWIC20100-37321-00892-70000072D0000618D0000000072892       GGSL
TXBWIC20100-37321-00904-70000024D0000178D0000000024904       GGSL
TXBWIC20100-37321-00909-20000012D0000211D0000000000909       GGSL
TXBWIC20100-37321-00925-20000477D0001405D0000900192925       GGSL
TXBWIC20100-37321-00939-90000282D0002988D0003600684939       GGSL
TXBWIC20100-37321-00941-20000888D0008613D0004800204941       GGSL
TXBWIC20100-37321-00951-10000216D0000802D0000000384951       GGSL
TXBWIC20100-37321-00952-80000033D0000176D0002400000952       GGSL
TXBWIC20100-37321-00982-50000024D0000106D0000000000982       GGSL
TXBWIC20100-37321-00987-00000060D0000536D0018600018987       GGSL
TXBWIC20100-37321-01971-80000072D0000279D00024000001971      GGSL
TXBWIC20100-37321-01972-50000024D0000086D00000000001972      GGSL
TXBWIC20100-37321-02360-90000063D0000451D00003000002360      GGSL
TXBWIC20100-37321-02361-60000411D0004419D00115000602361      GGSL
TXBWIC20100-37321-02362-30000104D0001717D00000000282362      GGSL
TXBWIC20100-37321-05611-90000036D0000145D0003600000560       GGSL
TXBWIC20100-37321-05612-60000015D0000144D00003000005612      GGSL
TXBWIC20100-37321-05710-90000024D0000143D00000000005710      GGSL
TXBWIC20100-37321-05714-70000028D0000798D00052000005714      GGSL
TXBWIC20100-37321-07490-80000078D0000390D00012001147490      GGSL
TXBWIC20100-37321-07492-20000020D0000320D00000000727492      GGSL
TXBWIC20100-37321-09534-70000234D0002556D00069001089534      GGSL
TXBWIC20100-37321-45502-80000024D0000108D000000000045502     GGSL
TXBWIC20100-37321-45672-80000012D0000066D000120001245672     GGSL
TXBWIC20100-37321-46126-50000800D0000127D009000000046126     GGSL
TXBWIC20100-37321-46180-70000012D0000070D000000003646180     GGSL
TXBWIC20100-37321-46183-80000003D0000057D000060000046183     GGSL
TXBWIC20100-37321-46190-60000024D0000073D002880000046190     GGSL
TXBWIC20100-37321-46191-30000048D0000229D003600000046191     GGSL
TXBWIC20100-37321-48113-30000006D0000058D00078000005712      GGSL
TXBWIC20100-37321-60315-30000750D0000052D000130003060315     GGSL
TXBWIC20100-37321-60360-30000001D0000011D005340004060362     GGSL
TXBWIC20100-37321-60400-60000090C0000011C003160135860402     GGSL
TXBWIC20100-37321-60407-50000024D0000182D000000018060407     GGSL
TXBWIC20100-37321-60420-40000002D0000024D000790000660420     GGSL
TXBWIC20100-37321-60424-20000007D0000253D000570000060424     GGSL
TXBWIC20100-37321-60430-30000004D0000044D000870000060432     GGSL
TXBWIC20100-37321-60434-10000022D0000583D000060000060434     GGSL
TXBWIC20100-37321-60440-20000020D0000205D000300000060442     GGSL
TXBWIC20100-37321-60444-00000015D0000366D000000000060444     GGSL
TXBWIC20100-37321-60476-10000526D0006137D001311015660478     GGSL
TXBWIC20100-37321-60514-00000960D0010446D001760044960516     GGSL
TXBWIC20100-38313-00005-90000016D0000349D0005100007GS 6750D  GGSL
TXBWIC20100-38313-00008-00000108D0001847D0014800024BP 3130   GGSL
TXBWIC20100-38313-00060-80000346D0005865D0020400408BP 3160   GGSL
TXBWIC20100-38313-00080-60000195D0003790D0022900324BP 3180D  GGSL
TXBWIC20100-38313-00217-60000007D0000125D0001300012FS 4350   GGSL
TXBWIC20100-38313-00830-70000031D0000900D0004000006BP 6250   GGSL
TXBWIC20100-38313-01010-20000420D0002058D0009600174CT 3010I  GGSL
TXBWIC20100-38313-01020-10000060D0000293D0013800030CT 3020I  GGSL
TXBWIC20100-38313-01030-00000072D0000359D0010200024CT 3030I  GGSL
TXBWIC20100-38313-03050-60000006D0000040D0000000240GT 3050   GGSL
TXBWIC20100-38313-03060-50000018D0000123D0000000204GT 3060   GGSL
TXBWIC20100-38313-03080-30000006D0000040D0000000198GT 3080   GGSL
TXBWIC20100-38313-03206-70000004D0000134D0000000000TP 3206   GGSL
TXBWIC20100-38313-03244-90000018D0000300D0000000102HS 3244   GGSL
TXBWIC20100-38313-03394-10000024D0000195D0002400006FS 3394   GGSL
TXBWIC20100-38313-03470-20000003D0000087D0005400001FL 3470   GGSL
TXBWIC20100-38313-03710-90000294D0001354D0000000000CT 3710   GGSL
TXBWIC20100-38313-03730-70000036D0000177D0000000246CT 3730   GGSL
TXBWIC20100-38313-03740-60000006D0000033D0000000000CT 3740   GGSL
TXBWIC20100-38313-03750-50000012D0000058D0000000036CT 3750   GGSL
TXBWIC20100-38313-04110-60000018D0000270D0000000090AL 4110   GGSL
TXBWIC20100-38313-04930-00001645D0009460D0370700155AG 4930   GGSL
TXBWIC20100-38313-04930-70000373D0002891D0105100036AG 4930SS GGSL
TXBWIC20100-38313-06870-70000001D0000102D0000100000TP 6870   GGSL
TXBWIC20100-38313-06970-40000011D0000535D0010300006AH 6970   GGSL
TXBWIC20100-38313-07001-00000003D0000126D0001000000FK 70010  GGSL
TXBWIC20100-38313-07265-00000018D0000296D0000000066RS 7265D  GGSL
TXBWIC20100-38313-07395-40000006D0000112D0000000012RS 7395   GGSL
TXBWIC20100-38313-07545-20000015D0000254D0009200024RS 7245   GGSL
TXBWIC20100-38313-10000-10000078D0000729D0011800012SS 10000  GGSL
TXBWIC20100-38313-10227-20000014D0000925D0008700000AL 6512   GGSL
TXBWIC20100-38313-11000-00000042D0000399D0004600000SS 11000  GGSL
TXBWIC20100-38313-12004-70000003D0000166D0000000000WB 2004   GGSL
TXBWIC20100-38313-12400-70000196D0002369D0027700034RK 24003  GGSL
TXBWIC20100-38313-13214-90000072D0000554D0000000342FS 3214D  GGSL
TXBWIC20100-38313-14300-80000004D0000164D0000100000BM 43001  GGSL
TXBWIC20100-38313-20001-50000011D0000260D0000700002PD 20000  GGSL
TXBWIC20100-38313-20002-20000009D0000138D0000000018RK 20002  GGSL
TXBWIC20100-38313-20004-60000022D0000272D0000700054CV 20004  GGSL
TXBWIC20100-38313-20022-00000053D0000919D0003500021RK 20022  GGSL
TXBWIC20100-38313-21000-70000065D0000855D0009600070SH 20000  GGSL
TXBWIC20100-38313-24000-40000050D0000358D0005700000FS 4000   GGSL
TXBWIC20100-38313-24601-30000024D0000374D0000000000RK 24061  GGSL
TXBWIC20100-38313-25008-90000024D0000104D0000000456RK 25008  GGSL
TXBWIC20100-38313-26001-90000030D0000350D0000000144SS 26010  GGSL
TXBWIC20100-38313-26020-00000050D0000710D0009000003SS 26020  GGSL
TXBWIC20100-38313-27010-00000006D0000074D0000000000SS 27010  GGSL
TXBWIC20100-38313-27020-90000024D0000334D0002000001SS 27020  GGSL
TXBWIC20100-38313-27030-80000003D0000060D0000000000SS 27030  GGSL
TXBWIC20100-38313-28000-00000010D0000175D0001100000SS 28000  GGSL
TXBWIC20100-38313-28010-90000012D0000247D0003300007SS 28010  GGSL
TXBWIC20100-38313-32640-10000048D0000318D0000000114CT 3264   GGSL
TXBWIC20100-38313-33140-50000008D0000069D0000800000CT 3314   GGSL
TXBWIC20100-38313-33640-00000008D0000078D0000000008CT 3364   GGSL
TXBWIC20100-38313-36541-70000001D0000028D0000700001LG 3654   GGSL
TXBWIC20100-38313-40021-70000004D0000137D0000000000PD 40020  GGSL
TXBWIC20100-38313-42000-00000001D0000039D0000000000PM 42000  GGSL
TXBWIC20100-38313-42003-10000006D0000169D0000000000SS 42011  GGSL
TXBWIC20100-38313-45030-40000003D0000053D0000000000RK 45030  GGSL
TXBWIC20100-38313-60061-70000006D0000136D0000600000SH 60061  GGSL
TXBWIC20100-38313-61062-30000001D0000052D0000200001RK 61062  GGSL
TXBWIC20100-38313-62061-50000012D0000135D0000000000RK 62061  GGSL
TXBWIC20100-38313-62062-20000006D0000258D0002000000BM 62060  GGSL
TXBWIC20100-38313-62065-30000006D0000246D0000000000FK 72065  GGSL
TXBWIC20100-38313-63225-00000012D0000144D0000000000BP 3640   GGSL
TXBWIC20100-38313-64144-30000023D0000409D0001500001SS 64104  GGSL
TXBWIC20100-38313-66000-00000002D0000060D0001100000SS 66000  GGSL
TXBWIC20100-38313-66500-50000006D0000175D0000000000SL 6500   GGSL
TXBWIC20100-38313-69961-10000024D0000266D0000000000MA 60061  GGSL
TXBWIC20100-38313-80000-00000008D0000588D0000400007SF 80000  GGSL
TXBWIC20100-38313-81000-90000070D0000695D0009400008RK 10000  GGSL
TXBWIC20100-38313-90000-70000022D0000201D0006100000SH 10000  GGSL
TXBWIC20100-38313-90210-00000002D0000109D0001000000AS 90210  GGSL
TXBWIC20100-39044-15544-50000012D0000054D000720002415544     GGSL
TXBWIC20100-39996-26060-00000088D0000693D000000002426060     GGSL
TXBWIC20100-39996-30292-80000580D0005332D000000002030292     GGSL
TXBWIC20100-39996-30293-50000390D0005240D000000018030293     GGSL
TXBWIC20100-40025-40001-00003050D0000570D1715000800RWS-54001 GGSL
TXBWIC20100-40025-54033-40000041D0001721D0008600003RWS-54033 GGSL
TXBWIC20100-40235-75256-50000002D0000035D00000000002.5G30S   GGSL
TXBWIC20100-40279-03300-20000314D0000558D0040600060          GGSL
TXBWIC20100-40279-03302-60000780D0001459D0031200036          GGSL
TXBWIC20100-40279-03304-00000126D0000441D00264000123304      GGSL
TXBWIC20100-41535-02008-80000012D0000025D00000000009203350   GGSL
TXBWIC20100-41535-06190-60000012D0000071D00000000009236190   GGSL
TXBWIC20100-41535-24550-40000404D0017102D004320000824550     GGSL
TXBWIC20100-41535-24560-30000751D0119268D005750007024560     GGSL
TXBWIC20100-41535-24571-90001533D0024819D0051400032100518540 GGSL
TXBWIC20100-41535-25100-00000036D0000512D00000000009225100   GGSL
TXBWIC20100-41535-79219-00000132D0001180D00000000009206231   GGSL
TXBWIC20100-42204-14504-80000003D0000003D00007000002MMC      GGSL
TXBWIC20100-42206-00056-90000006D0000044D000120000656-6      GGSL
TXBWIC20100-42206-00202-00000120D0000125D0014000010202S      GGSL
TXBWIC20100-42206-00202-10000001D0000001D0002400000202S      GGSL
TXBWIC20100-42206-00269-30000024D0000088D0000000000269       GGSL
TXBWIC20100-42206-00395-90000100D0000229D0011000060395S      GGSL
TXBWIC20100-42206-00511-30000006D0000042D0001800000511       GGSL
TXBWIC20100-42206-00525-00000124D0000292D0001400050525C      GGSL
TXBWIC20100-42206-00872-50000048D0000104D0002400090872-6     GGSL
TXBWIC20100-42206-03010-80000008D0000082D00021000003010-4    GGSL
TXBWIC20100-42206-07800-10000054D0000284D00036000607800      GGSL
TXBWIC20100-42206-09000-30000050D0000314D00110000109000      GGSL
TXBWIC20100-42206-09620-30000035D0001151D00045000059620-8    GGSL
TXBWIC20100-42206-14058-60000660D0003370D00108000369570      GGSL
TXBWIC20100-42206-14066-10000024D0000078D00012000249560C     GGSL
TXBWIC20100-42206-14220-70000042D0000135D0001200040312S      GGSL
TXBWIC20100-42206-14221-40000050D0000087D0001900000313S      GGSL
TXBWIC20100-42206-14235-10000070D0000075D0004600010390S      GGSL
TXBWIC20100-42206-14456-00000062D0000093D0005200040420C      GGSL
TXBWIC20100-42206-14501-70000042D0000035D00106000101FMC      GGSL
TXBWIC20100-42206-14502-40000056D0000039D00036000001MMC      GGSL
TXBWIC20100-42206-14503- 0000001D0000001D00009000002FMC      GGSL
TXBWIC20100-42206-14503-10000060D0000054D00104000942FMC      GGSL
TXBWIC20100-42206-14504-80000192D0000146D00095000422MMC      GGSL
TXBWIC20100-42206-14505-50000022D0000021D000580001001MC      GGSL
TXBWIC20100-42206-14506-20000220D0000205D000220003002MC      GGSL
TXBWIC20100-42206-14570-30000010D0000059D0004800000ZBR3/4    GGSL
TXBWIC20100-42206-14571-00000010D0000031D0002000000ZBM3/4    GGSL
TXBWIC20100-42206-14572-70000030D0000101D0003400000ZBF3/4    GGSL
TXBWIC20100-42206-14599-40000006D0000075D00000000009536CH    GGSL
TXBWIC20100-42206-15111-70000018D0000110D000420000015111     GGSL
TXBWIC20100-42206-15404-00000024D0000250D000000004215404     GGSL
TXBWIC20100-42206-20491-20000062D0000294D000920005020491-10  GGSL
TXBWIC20100-42206-22701-00000010D0000029D000360000022701C    GGSL
TXBWIC20100-42206-23701-90000020D0000061D000340000023701S    GGSL
TXBWIC20100-42206-40261-50000036D0000233D000000001220261     GGSL
TXBWIC20100-42206-40301-80000010D0000064D0020400070XT301     GGSL
TXBWIC20100-42206-44100-30000030D0000517D0003000072XT4100    GGSL
TXBWIC20100-42206-48635-60000024D0000126D0000000048R8635     GGSL
TXBWIC20100-42206-50300-80000006D0000061D000000000020300     GGSL
TXBWIC20100-42206-63015-50000013D0000383D000560000063015     GGSL
TXBWIC20100-42206-63100-80000011D0000419D000230000063100     GGSL
TXBWIC20100-42206-95501-20000012D0000035D00000000009550C     GGSL
TXBWIC20100-42579-00052-40000001D0000035D0000900000ST47812   GGSL
TXBWIC20100-42579-11212-80000005D0000223D0002200000SSR12GRN  GGSL
TXBWIC20100-42579-11250-00000024D0009583D0002900001P12       GGSL
TXBWIC20100-42579-11500-60011726D0002778D0004000016APBPAL    GGSL
TXBWIC20100-42579-12342-10000012D0000143D0000000024PSS       GGSL
TXBWIC20100-42579-13250-80000441D0016730D0029600016P3        GGSL
TXBWIC20100-42579-14250-70000267D0028186D0059800008P4        GGSL
TXBWIC20100-42579-15250-60000018D0002542D0009200003P5        GGSL
TXBWIC20100-42579-16250-50000148D0022535D0012600005P6        GGSL
TXBWIC20100-42579-18250-30000017D0004813D0004400001P8        GGSL
TXBWIC20100-42579-19342-40000144D0001626D002400002420 YR-324 GGSL
TXBWIC20100-42579-22342-80001470D0011138D0166800840NS12      GGSL
TXBWIC20100-42579-22345-90001428D0001341D0057500528APRC      GGSL
TXBWIC20100-42579-24250-40000019D0001907D000000000020 YR-4250GGSL
TXBWIC20100-42579-25250-30000043D0004315D000180000020 YR-5250GGSL
TXBWIC20100-42579-32355-50000322D0001768D0022400000RS15      GGSL
TXBWIC20100-42579-43004-80000029D0002586D0005600006NB4       GGSL
TXBWIC20100-42579-43006-20000010D0001310D0001700011NB6       GGSL
TXBWIC20100-42579-50154-00000016D0000412D0020800104PRO BLK-31GGSL
TXBWIC20100-42579-50169-40000036D0000595D0000000090PRO BLK-45GGSL
TXBWIC20100-42579-50264-60000032D0000470D0000000000SG200PAL  GGSL
TXBWIC20100-42579-63105-60000025D0001360D0001200001350ROLL   GGSL
TXBWIC20100-42579-63306-70000036D0000175D01332010443 YR-350  GGSL
TXBWIC20100-42579-81272-10000002D0000186D0000000000K6        GGSL
TXBWIC20100-42579-81360-50000233D0028807D0024200059NS12250   GGSL
TXBWIC20100-42579-81391-90000004D0000849D0000100001WGC12     GGSL
TXBWIC20100-42579-81428-20000309D0000548D0004500095BURLAP BAGGGSL
TXBWIC20100-42579-81505-00000004D0000959D0000000000ULTIMATE12GGSL
TXBWIC20100-42579-81566-10000077D0008612D0028500031SBLT10300 GGSL
TXBWIC20100-42579-81568-50000205D0026722D0042600030SBLT12300 GGSL
TXBWIC20100-42579-81569-20000165D0027635D0066000058SBLT15.530GGSL
TXBWIC20100-42579-81571-50000257D0008609D0051000044SBLT3300  GGSL
TXBWIC20100-42579-81572-20000035D0001848D0025700000SBLT4300  GGSL
TXBWIC20100-42579-81573-90000323D0022506D0077100045SBLT6300  GGSL
TXBWIC20100-42579-81605-70000010D0000759D0001700009PRO BLK-33GGSL
TXBWIC20100-42579-81606-40000007D0000646D0004400009PRO BLK-43GGSL
TXBWIC20100-42579-81607-10000016D0002285D0003200011PRO BLK-63GGSL
TXBWIC20100-42579-81608-80000003D0000567D0000400000PRO BLK-83GGSL
TXBWIC20100-42579-81733-70000017D0001020D0001800000CS-3300BLKGGSL
TXBWIC20100-42579-81734-40000021D0001532D0000700006CS-4300BLKGGSL
TXBWIC20100-42579-81735-10000028D0003105D0001600000CS-6300BLKGGSL
TXBWIC20100-42579-81738-20000003D0000678D0000800000CS-350BLK GGSL
TXBWIC20100-42579-81739-90000006D0001285D0000500000CS-3100BLKGGSL
TXBWIC20100-42579-81762-70000005D0002654D0000000000AEC-DS    GGSL
TXBWIC20100-42579-82278-20000024D0000240D0000000060TWBAG-12  GGSL
TXBWIC20100-42579-82283-60000040D0000326D0000000000STRTS-28  GGSL
TXBWIC20100-42579-82293-50001092D0005408D0008401316SUPREME625GGSL
TXBWIC20100-42579-82320-80000048D0000483D0000000000TWD-24    GGSL
TXBWIC20100-42853-00000-00000459D0001949D0026200006BFTD-DB12 GGSL
TXBWIC20100-42853-10000-10000016D0000065D0002400000ST3-BB4   GGSL
TXBWIC20100-42853-12000-90000008D0000022D0006400012MGC-DB12  GGSL
TXBWIC20100-42853-42000-00000054D0000354D0001800000TSBF-BB6  GGSL
TXBWIC20100-42853-50000-90000024D0000157D0004200222TSW-BB6   GGSL
TXBWIC20100-42853-52000-40000012D0000078D0000600000CBTS-BB6  GGSL
TXBWIC20100-42853-61000-50000012D0000055D0000000000FFTR2-BB4 GGSL
TXBWIC20100-42853-62000-40000016D0000020D0000800000FFTA-DB12 GGSL
TXBWIC20100-42853-65000-10000012D0000045D0000000064AB6-BB4   GGSL
TXBWIC20100-42853-77305-40000240D0000798D0003000087FTD-DB12  GGSL
TXBWIC20100-42853-77603-90000024D0000086D0000100000YJTD-DB12-GGSL
TXBWIC20100-42854-09098-10000090D0000214D0000000000FG32ORB190GGSL
TXBWIC20100-42854-63278-50000120D0000270D0000000024FG32PC1-12GGSL
TXBWIC20100-42854-64870-00000036D0000230D0005400006FG48PC1-6 GGSL
TXBWIC20100-42854-93200-70000024D0000124D0000000000FG32SM1-12GGSL
TXBWIC20100-43162-56428-70000625D0008947D000470000159021451  GGSL
TXBWIC20100-43256-28165-60000024D0001110D0000000000DT160     GGSL
TXBWIC20100-43312-10001-50000012D0000135D0000000000101-0-027 GGSL
TXBWIC20100-43312-10003-70000201D0000622D0084100105103-0-009 GGSL
TXBWIC20100-43312-10031-00000001D0000024D0005000000107-0-002 GGSL
TXBWIC20100-43725-11311-20000006D0000147D00000000009101614   GGSL
TXBWIC20100-43725-19680-00000006D0000183D00000000009149068   GGSL
TXBWIC20100-43725-19964-20000012D0000311D00000000009121969   GGSL
TXBWIC20100-43725-20335-60000240D0001986D00000000009102033   GGSL
TXBWIC20100-43725-20505-30000641D0003950D00000000009102050   GGSL
TXBWIC20100-43725-25024-40000003D0000012D00000000009125024   GGSL
TXBWIC20100-43725-28089-30000001D0000004D00000000009125080   GGSL
TXBWIC20100-43725-29604-40000003D0000012D00000000009129600   GGSL
TXBWIC20100-43725-47019-20000003D0000012D00000000009134701   GGSL
TXBWIC20100-43792-50001-30000051D0001701D0000600007Y32       GGSL
TXBWIC20100-43792-60002-70000057D0002015D0001900006W32       GGSL
TXBWIC20100-43792-70002-40000039D0001446D0000500004R32       GGSL
TXBWIC20100-43792-80001-40000046D0001375D0000000007SW10      GGSL
TXBWIC20100-43792-90001- 0000040D0001605D0000100005SH10      GGSL
TXBWIC20100-43792-90003-50000044D0001694D0000000005GA10      GGSL
TXBWIC20100-43792-90004-20000011D0000995D0000000000GA30      GGSL
TXBWIC20100-45446-00100-60000009D0000053D00000000003512836   GGSL
TXBWIC20100-45446-00142-60000006D0000101D00000000003570010   GGSL
TXBWIC20100-45446-00150-10000003D0000055D00000000001615097   GGSL
TXBWIC20100-45446-00213-30000003D0000159D00000000003547510   GGSL
TXBWIC20100-45446-00241-60000006D0000085D00000000003514425   GGSL
TXBWIC20100-45446-00264-50000003D0000013D00000000003500264   GGSL
TXBWIC20100-46539-62045-60001505D0019159D0815400020          GGSL
TXBWIC20100-46539-64032-40003627D0032173D0565900414          GGSL
TXBWIC20100-46753-01032-30000076D0000249D00170000004675301032GGSL
TXBWIC20100-46753-01128-30000096D0000809D00040000044675301128GGSL
TXBWIC20100-46753-01500-70000001D0000041D0000000000          GGSL
TXBWIC20100-46753-02032-20000068D0000278D00124000004675302032GGSL
TXBWIC20100-46753-02128-20000080D0000883D00084000044675302128GGSL
TXBWIC20100-46753-02500-60000005D0000239D00014000004675302500GGSL
TXBWIC20100-46753-03128-10000040D0000515D00072000004675303128GGSL
TXBWIC20100-46753-04032-00000186D0001045D00096000064675304032GGSL
TXBWIC20100-46753-04033-70000150D0001171D00154001082004675304GGSL
TXBWIC20100-46753-04128-00000276D0003741D00224000604675304128GGSL
TXBWIC20100-46753-04300-00000001D0000368D000000000043000     GGSL
TXBWIC20100-46753-04500-40000001D0000055D00013000004675304500GGSL
TXBWIC20100-46753-05032-90000186D0001470D00060001564675305032GGSL
TXBWIC20100-46753-05128-90000112D0001461D00048000524675305128GGSL
TXBWIC20100-46753-08032-60000615D0009371D00564002104675308032GGSL
TXBWIC20100-46753-14032-70000008D0000032D00048000244675314032GGSL
TXBWIC20100-46753-14128-70000164D0001209D00104000084675314128GGSL
TXBWIC20100-46753-14500-10000002D0000066D0000000000ZZMED5GALPGGSL
TXBWIC20100-46753-14550-60000002D0000554D000000000014550     GGSL
TXBWIC20100-46753-15040-10000002D0000066D000000000050401     GGSL
TXBWIC20100-46753-17005-80000066D0000277D00150000004675317005GGSL
TXBWIC20100-46753-17040-90001390D0018530D00665000054675317040GGSL
TXBWIC20100-46753-19128-20000012D0000153D0000000004          GGSL
TXBWIC20100-46753-19550-10000002D0001051D000000000095501     GGSL
TXBWIC20100-46753-20128-80000004D0000063D0000000004          GGSL
TXBWIC20100-46753-21032-70000104D0000478D001120013210327     GGSL
TXBWIC20100-46753-21128-70000100D0001215D000960014012287     GGSL
TXBWIC20100-46753-22550-50000001D0000527D000000000025505     GGSL
TXBWIC20100-48307-70003-20000260D0000106D0004500000ST3       GGSL
TXBWIC20100-48307-70004-90000420D0000208D0006800000ST4-WS    GGSL
TXBWIC20100-48307-70005-60000140D0000079D0000300000ST5       GGSL
TXBWIC20100-48307-70006-30000040D0000026D0000000000ST6       GGSL
TXBWIC20100-48745-22244-80000012D0000285D0017600004BL22244   GGSL
TXBWIC20100-48745-31270-50000004D0000179D00000000005331270   GGSL
TXBWIC20100-48745-31400-60000004D0000194D00000000005331410   GGSL
TXBWIC20100-48745-32708-60000264D0002977D009960002432708     GGSL
TXBWIC20100-48745-34532-10000012D0000126D00000000000348206   GGSL
TXBWIC20100-50197-00000-00000348D0001450D0049800396GL6       GGSL
TXBWIC20100-50197-00104-50000846D0003532D0067500024HT4       GGSL
TXBWIC20100-50197-00108-30000084D0000611D0016200000HT8       GGSL
TXBWIC20100-50197-00118-20000491D0005639D0047200000HT18      GGSL
TXBWIC20100-50197-00136-60000287D0005613D0030100041HT36      GGSL
TXBWIC20100-50197-00150-20000075D0001700D0012800005HT50      GGSL
TXBWIC20100-50197-00204-20000432D0001836D0065400120PT4       GGSL
TXBWIC20100-50197-00208-00000042D0000305D0012000012PT8       GGSL
TXBWIC20100-50197-00218-90000420D0004541D0024000003PT18      GGSL
TXBWIC20100-50197-00236-30000157D0002997D0035900001PT36      GGSL
TXBWIC20100-50197-00250-90000038D0000925D0009900000PT50      GGSL
TXBWIC20100-50197-00304-90000635D0002786D0027200192GT4       GGSL
TXBWIC20100-50197-00318-60000251D0002881D0013800016GT18      GGSL
TXBWIC20100-50197-00336-00000166D0003047D0007800009GT36      GGSL
TXBWIC20100-50197-00404-60000737D0003156D0051100324RT4       GGSL
TXBWIC20100-50197-00408-40000018D0000133D0011400006RT8       GGSL
TXBWIC20100-50197-00418-30000194D0002276D0027000012RT18      GGSL
TXBWIC20100-50197-00604-00000264D0001156D0043800324BT4       GGSL
TXBWIC20100-50197-00704-70000348D0001427D0042000012TR4       GGSL
TXBWIC20100-50197-00718-40000218D0002421D0008000000TR18      GGSL
TXBWIC20100-50197-00736-80000320D0005563D0000000000TR36      GGSL
TXBWIC20100-50197-00904-10000540D0002346D0058200372TO4       GGSL
TXBWIC20100-50197-00908-60000012D0000089D0011400000TO8       GGSL
TXBWIC20100-50197-00918-80000093D0001086D0016700018TO18      GGSL
TXBWIC20100-50197-01004-70000144D0000579D0000000204BM04      GGSL
TXBWIC20100-50197-01106-80000006D0000062D0000000006gs6       GGSL
TXBWIC20100-50197-01228-70000036D0000596D0003000003RP28      GGSL
TXBWIC20100-50197-01303-10000156D0000887D0000000708DB03      GGSL
TXBWIC20100-50197-01317-80000036D0001166D0004100013DB17      GGSL
TXBWIC20100-50197-01403-80000024D0000115D0008400000CM3       GGSL
TXBWIC20100-50197-01803-60000048D0000162D0012000024GM3       GGSL
TXBWIC20100-50197-01825-80000143D0001245D0043700190GM25      GGSL
TXBWIC20100-50197-02206-40000120D0000582D0014400048GG6       GGSL
TXBWIC20100-50197-02304-70000012D0000047D0001200000CS4       GGSL
TXBWIC20100-50197-02703-80000036D0000390D0000000000KM4       GGSL
TXBWIC20100-50197-02805-90000006D0000040D0001800030GF101010/6GGSL
TXBWIC20100-50197-02904-90000318D0001247D0049800396FT4       GGSL
TXBWIC20100-50197-02918-60000157D0001833D0015300000FT18      GGSL
TXBWIC20100-50197-03802-70000080D0000101D0016000080BTSP5OZ   GGSL
TXBWIC20100-50197-03804-10002346D0011467D0137800264BTSP4     GGSL
TXBWIC20100-50197-03808-90000006D0000060D0001200000BTSP8     GGSL
TXBWIC20100-50197-03818-80000049D0000878D0000000006BTSP18    GGSL
TXBWIC20100-50197-03825-60000647D0014816D0023000003BTSP25    GGSL
TXBWIC20100-50197-03904-80000432D0001740D0023800378PM4       GGSL
TXBWIC20100-50197-03920-80000193D0002054D0004800010PM20      GGSL
TXBWIC20100-50197-05004-30000810D0003404D0043800300CT4       GGSL
TXBWIC20100-50197-05018-00000448D0005143D0016300031CT18      GGSL
TXBWIC20100-50197-05320-40000351D0005407D0033100000ELF20     GGSL
TXBWIC20100-50197-05340-20000010D0000220D0000000000ELF40     GGSL
TXBWIC20100-50197-05405-80000084D0000319D0039700012IT5       GGSL
TXBWIC20100-50197-05628-10000019D0000539D0012100000EOLF28    GGSL
TXBWIC20100-50197-05830-80000070D0001439D0000000000EOFW30    GGSL
TXBWIC20100-50197-06203-90000012D0000063D0000000024AL3       GGSL
TXBWIC20100-50197-06504-70000186D0000806D0037200132AT4       GGSL
TXBWIC20100-50197-06508-50000006D0000036D0004200006AT8       GGSL
TXBWIC20100-50197-06518-40000010D0000119D0002300008AT18      GGSL
TXBWIC20100-50197-06604-40000126D0000514D0028600024BR4       GGSL
TXBWIC20100-50197-30418-40000006D0000038D0006000018BL18      GGSL
TXBWIC20100-50197-30508-20000078D0000264D0004800108INPF8     GGSL
TXBWIC20100-50197-30608-90000072D0000240D0002400090CAPF8     GGSL
TXBWIC20100-50197-30708-60000042D0000140D0005400036VIPF8     GGSL
TXBWIC20100-50197-30808-30000078D0000258D0002400018ORPF8     GGSL
TXBWIC20100-50197-31208-00000006D0000021D0000000006ctpf8     GGSL
TXBWIC20100-50197-51824-60000006D0000038D0001800000eowk24    GGSL
TXBWIC20100-50197-70101-30000863D0004641D0038000000ap1       GGSL
TXBWIC20100-50197-70102-00000826D0007056D0022500000ap2       GGSL
TXBWIC20100-50197-70116-70000010D0000046D0000000120AP16      GGSL
TXBWIC20100-50197-70304-80000444D0001157D0020400012CA4X      GGSL
TXBWIC20100-50197-70308-60000294D0001003D0008400012ca8x      GGSL
TXBWIC20100-50197-70516-50000020D0000094D0000000036SS16      GGSL
TXBWIC20100-50197-70608-70000114D0000382D0000000012PTM8      GGSL
TXBWIC20100-50197-70701-50000019D0000206D0002900014PR1       GGSL
TXBWIC20100-50197-70801-20000010D0000097D0000500013VM1       GGSL
TXBWIC20100-50197-71202-60000576D0000154D0002500000mm2       GGSL
TXBWIC20100-50197-71208-80000012D0000044D0003600000MM8       GGSL
TXBWIC20100-50197-71304-70000096D0000597D0032400036EC4       GGSL
TXBWIC20100-50197-71501-00000254D0001598D0024600105lsc1      GGSL
TXBWIC20100-50197-71601-70000213D0000942D0045700000dcm1      GGSL
TXBWIC20100-50197-80117-10000123D0001180D0029700000SC17      GGSL
TXBWIC20100-50349-01003-10000132D0000127D00001000111003-012  GGSL
TXBWIC20100-50349-01039-00000090D0000654D00000000131039-012  GGSL
TXBWIC20100-50349-01041-30000016D0000159D00000000011041-012  GGSL
TXBWIC20100-50349-01055-00000330D0001020D00000000041055-017  GGSL
TXBWIC20100-50349-01068-00000022D0000054D00000000001068-012  GGSL
TXBWIC20100-50349-01078-30001368D0001904D00000000061023-017  GGSL
TXBWIC20100-50349-08886-30000180D0000321D00000000008886-012  GGSL
TXBWIC20100-50349-10011-80000088D0000071D00000000011001-012  GGSL
TXBWIC20100-50349-10161-60000432D0000666D00038000001016-012  GGSL
TXBWIC20100-50349-10191-30000036D0000075D00020000001019-012  GGSL
TXBWIC20100-50349-10211-20000480D0000526D00000000001012-012  GGSL
TXBWIC20100-50349-10231-60000064D0000121D00018000021023-012  GGSL
TXBWIC20100-50349-10331-30000112D0000367D00005000011033-012  GGSL
TXBWIC20100-50349-10541-00000176D0000917D00000000081071-017  GGSL
TXBWIC20100-50349-10781-60000088D0000358D00078000001078-012  GGSL
TXBWIC20100-50349-88851-70000330D0000205D00100000008885-014  GGSL
TXBWIC20100-50349-88880-70000129D0000084D00110006618888-099  GGSL
TXBWIC20100-50699-00001-00000001D0000010D0003000002300001    GGSL
TXBWIC20100-50699-00014-00000015D0000067D0000600002300014    GGSL
TXBWIC20100-50699-00128-10000041D0001105D0002100000300128    GGSL
TXBWIC20100-50699-00212-00000072D0000603D0000900000300212    GGSL
TXBWIC20100-51115-04860-90000011D0000016D00000000004704860   GGSL
TXBWIC20100-51115-04861-60000013D0000019D00000000004704861   GGSL
TXBWIC20100-51115-04863-00000004D0000006D00000000004704863   GGSL
TXBWIC20100-51115-04864-70000008D0000012D00000000004704864   GGSL
TXBWIC20100-51115-04865-40000005D0000007D00000000004704865   GGSL
TXBWIC20100-51115-04867-80000021D0000030D00000000004704867   GGSL
TXBWIC20100-51115-04868-50000012D0000018D00000000004704868   GGSL
TXBWIC20100-51115-04870-80000009D0000013D00000000004704870   GGSL
TXBWIC20100-51115-05253-80000090D0000134D00000000004705172   GGSL
TXBWIC20100-51497-15466-00000008D0000079D000250000115466     GGSL
TXBWIC20100-52427-60012-70000016D0000048D000000000060121     GGSL
TXBWIC20100-52732-00000-00000008D0000293D000050021919109     GGSL
TXBWIC20100-52732-10012-10000005D0000557D00133000001001-B    GGSL
TXBWIC20100-52732-20505-50000005D0000425D00141000022050SU    GGSL
TXBWIC20100-52732-20509-30000022D0002784D00215000032050P     GGSL
TXBWIC20100-52732-20519-20000006D0000768D00043000002050TP    GGSL
TXBWIC20100-52732-27500-30000607D0023493D00953000142750      GGSL
TXBWIC20100-52732-34000-80000001D0000021D00008000003400.0    GGSL
TXBWIC20100-52732-65000-80000003D0000400D00030000006500.0    GGSL
TXBWIC20100-53291-19881-90000109D0001124D0040900036820-1002  GGSL
TXBWIC20100-53291-30000-00000024D0000261D0000200000820-1024  GGSL
TXBWIC20100-53291-50051-00000004D0000080D0000400000850-0051  GGSL
TXBWIC20100-53291-55981-80000084D0000308D0021600000820-0188  GGSL
TXBWIC20100-53744-00120-80000201D0000987D0036900068120       GGSL
TXBWIC20100-53744-00141-30000186D0000873D0051500010141       GGSL
TXBWIC20100-53744-00400-10000067D0000277D0003800000400       GGSL
TXBWIC20100-56554-31644-90000003D0000004D0000000000SRA16001P0GGSL
TXBWIC20100-64277-01107-70001145D0016406D0235300104C-3       GGSL
TXBWIC20100-64277-01111-40000803D0015630D0225000345A-3       GGSL
TXBWIC20100-64277-03110-50007300D0069470D03570010481271.cfl00GGSL
TXBWIC20100-64277-20012-80000344D0001142D01311000291348001-20GGSL
TXBWIC20100-64277-40012-20001065D0005904D02476002801348001-40GGSL
TXBWIC20100-66498-01115-70000628D0011957D005400000001115.0   GGSL
TXBWIC20100-66498-02185-90000069D0001006D001780003002185     GGSL
TXBWIC20100-66498-02775-20004537D0062466D027510009402775.0   GGSL
TXBWIC20100-66498-03175-90002100D0000610D000000000003175     GGSL
TXBWIC20100-66498-04175-80000761D0007218D004990001804175.0   GGSL
TXBWIC20100-66498-05113-90000595D0003709D005810005305175.0   GGSL
TXBWIC20100-66498-09795-30043755D0005404D004930015009792     GGSL
TXBWIC20100-66498-09901-80003122D0019048D018620030509901.0   GGSL
TXBWIC20100-66498-09902-50006149D0054523D055030009009902.0   GGSL
TXBWIC20100-66498-09903-20003238D0040568D009150002309903.0   GGSL
TXBWIC20100-66498-09925-40000366D0001330D004200004209925     GGSL
TXBWIC20100-66498-09929-20000041D0000231D003290000009929     GGSL
TXBWIC20100-66498-09937-70003684D0009768D018840073209937     GGSL
TXBWIC20100-66498-09939-10000050D0000444D000000005009939     GGSL
TXBWIC20100-66498-09947-60000576D0001486D009480031209947     GGSL
TXBWIC20100-66498-09965-00000732D0004459D003900030009965     GGSL
TXBWIC20100-66498-09977-30000324D0001818D004560000009977     GGSL
TXBWIC20100-66498-09985-80000222D0000845D003120015009985     GGSL
TXBWIC20100-66498-89827-70001320D0005135D005400027609827     GGSL
TXBWIC20100-66498-89905-20002622D0009553D010320015609905     GGSL
TXBWIC20100-66498-89955-70001566D0007517D002460039609955     GGSL
TXBWIC20100-70183-50005-50000032D0001012D00280000005000510   GGSL
TXBWIC20100-70183-50006-20000030D0001081D00090000005000610   GGSL
TXBWIC20100-70183-50023-90000060D0001442D00138000005002310   GGSL
TXBWIC20100-70183-50027-70000090D0000414D00270000005002715   GGSL
TXBWIC20100-70183-50032-10000128D0001651D00248000325002610   GGSL
TXBWIC20100-70183-50034-50000516D0002247D00591000365003470   GGSL
TXBWIC20100-70183-50038-30000036D0000390D00276000045003810   GGSL
TXBWIC20100-70183-50042-00000006D0000586D00009000015004215   GGSL
TXBWIC20100-70183-50055-00000156D0001876D00540000005005510   GGSL
TXBWIC20100-70183-50060-40000018D0000646D00126000065006010   GGSL
TXBWIC20100-70183-50085-70000006D0000298D00000000005008510   GGSL
TXBWIC20100-70183-51001-60000224D0004274D00300000005100114   GGSL
TXBWIC20100-70183-51006-10000276D0005855D00960000125100610   GGSL
TXBWIC20100-70183-51007-80000060D0002244D00072000305100710   GGSL
TXBWIC20100-70183-51009-20000020D0000285D00080000005004010   GGSL
TXBWIC20100-70183-51019-10000153C0000285C00144000005101910   GGSL
TXBWIC20100-70183-51073-30000096D0000463D00306000005107315   GGSL
TXBWIC20100-70183-51090-00000084D0000000D00216000005109010   GGSL
TXBWIC20100-70183-52005-30000012D0000266D00032000005200510   GGSL
TXBWIC20100-70183-52039-80000012D0000267D00140000005203910   GGSL
TXBWIC20100-70183-57080-50000015C0000267C00008000005708010   GGSL
TXBWIC20100-70183-57250-20000080D0001740D00104000085725070   GGSL
TXBWIC20100-70251-00000-00000006D0000084D0012900000761160    GGSL
TXBWIC20100-70251-65240-20000228D0004995D0034800000652400    GGSL
TXBWIC20100-70251-75546-20000012D0000096D0001200000755460    GGSL
TXBWIC20100-70251-79160-60000018D0000184D0019800000791600    GGSL
TXBWIC20100-70251-81482-40000084D0000513D00171000008141082   GGSL
TXBWIC20100-70805-00000-00000240D0001843D0000000000SH1YWCUSTOGGSL
TXBWIC20100-70805-51051-60000056D0000338D003350000070805-008-GGSL
TXBWIC20100-70923-00000-00000048D0000215D0004800000600.0     GGSL
TXBWIC20100-70923-00196-50000035D0000074D0003600000T100-12   GGSL
TXBWIC20100-70923-00300-60000132D0000573D0021600072300.0     GGSL
TXBWIC20100-70923-00402-70000024D0000073D0001800000T401-6    GGSL
TXBWIC20100-70923-00912-10000006D0000032D0000000000T901-6    GGSL
TXBWIC20100-70923-02111-60000018D0000100D0001200000T21016    GGSL
TXBWIC20100-70923-02301-10000006D0000018D0000000000T2302-6   GGSL
TXBWIC20100-70923-02900-60000060D0000306D0020000000T2900     GGSL
TXBWIC20100-70923-08515-60000072D0000115D0021600072T3206     GGSL
TXBWIC20100-70923-12277-60000006D0000031D0001200000T1812     GGSL
TXBWIC20100-70923-29432-90000047C0000031C0000000006T514      GGSL
TXBWIC20100-70923-72760-50000024D0000107D0000000000T517      GGSL
TXBWIC20100-70923-85843-90000006D0000016D0000000000T513      GGSL
TXBWIC20100-71092-32500-80000204D0000883D0017400006T2506     GGSL
TXBWIC20100-71121-04460- 0000012D0000114D0005400000HG-61067  GGSL
TXBWIC20100-71121-05580-40000156D0001280D01158000005580      GGSL
TXBWIC20100-71121-53940-30000020D0000162D0021600000HG-53944  GGSL
TXBWIC20100-71121-56420-70000048D0000046D0000000000hg-66420  GGSL
TXBWIC20100-71121-95704-70000009D0000056D0011400000HG-95704  GGSL
TXBWIC20100-71121-96187-70000132D0001936D0006000000hg-96187  GGSL
TXBWIC20100-71121-96280-50000012D0000055D0000000012HG-96280  GGSL
TXBWIC20100-71121-96281-20000377D0001764D0099600030HG-96281  GGSL
TXBWIC20100-71409-54321-40000005D0000013D00000000007754321   GGSL
TXBWIC20100-71409-54322-10000006D0000016D00000000007754322   GGSL
TXBWIC20100-71409-54363-40000006D0000049D00000000007754363   GGSL
TXBWIC20100-71409-54364-10000040D0000205D00000000007754364   GGSL
TXBWIC20100-71409-54365-80000026D0000132D00000000007754365   GGSL
TXBWIC20100-71409-54423-50000006D0000015D00000000007754423   GGSL
TXBWIC20100-71459-04201-90000426D0007376D00139000110420110   GGSL
TXBWIC20100-71549-01128-40000032D0000100D00184000000112812   GGSL
TXBWIC20100-71549-01129-10000110C0000000D00128000080112912   GGSL
TXBWIC20100-71549-01656-20000036D0000255D00021001440165610   GGSL
TXBWIC20100-71549-01666-10000090D0001067D00000000000166610   GGSL
TXBWIC20100-71549-01936-50000048D0000284D00030000000193610   GGSL
TXBWIC20100-71549-02003-30000192D0003141D00080000040200310   GGSL
TXBWIC20100-71549-02014-90000108D0000625D00312000120201405   GGSL
TXBWIC20100-71549-02022-40000056C0000008D00144000000202212   GGSL
TXBWIC20100-71549-02028-60000003C0000008C00008000000202812   GGSL
TXBWIC20100-71549-02029-30000006D0000025D00030000000202912   GGSL
TXBWIC20100-71549-02030-90000012D0000110D00024000060203012   GGSL
TXBWIC20100-71549-02054-50000056C0000006D00032000000205408   GGSL
TXBWIC20100-71549-02055-20000198D0000462D00036000060205506   GGSL
TXBWIC20100-71549-02756-80000056D0000166D00040000080275612   GGSL
TXBWIC20100-71549-02822-00000873D0008567D00372000600282210   GGSL
TXBWIC20100-71549-03456-60000012D0000068D00150001200345610   GGSL
TXBWIC20100-71549-03964-60000012D0000050D00000000000396410   GGSL
TXBWIC20100-71549-04243-10000169C0000050C00000000000424310   GGSL
TXBWIC20100-71549-04318-60000138D0000623D00072000009994318   GGSL
TXBWIC20100-71549-04380-30000040D0000179D00168000000438006   GGSL
TXBWIC20100-71549-04385-80000114D0000479D00099002340438580   GGSL
TXBWIC20100-71549-04475-60000008D0000171D00012000000447505   GGSL
TXBWIC20100-71549-04477-00000036D0000205D00102000000447705   GGSL
TXBWIC20100-71549-04478-70000172C0000205C00096000000447805   GGSL
TXBWIC20100-71549-04479-40000012D0000104D00240000000447905   GGSL
TXBWIC20100-71549-04486-20000048D0000360D00000000000448605   GGSL
TXBWIC20100-71549-04488-60000012D0000171D00056000000448805   GGSL
TXBWIC20100-71549-04491-60000048D0000438D00684000000449105   GGSL
TXBWIC20100-71549-04493-00000004D0000035D00108000000449305   GGSL
TXBWIC20100-71549-04494-70000012D0000099D00768000000449405   GGSL
TXBWIC20100-71549-04495-40000012D0000054D00132000000449505   GGSL
TXBWIC20100-71549-04613-20000048D0000318D00084000120461412   GGSL
TXBWIC20100-71549-04617-00000012D0000095D00000000000461712   GGSL
TXBWIC20100-71549-04657-60000010D0000081D00170000000465705   GGSL
TXBWIC20100-71549-04757-30000014C0000081C00028000000475705   GGSL
TXBWIC20100-71549-04758-00000001D0000025D00011000000475805   GGSL
TXBWIC20100-71549-04759-70000002D0000084D00016000010475905   GGSL
TXBWIC20100-71549-08410-30000167D0001636D00156001140841010   GGSL
TXBWIC20100-71549-41324- 0000008D0000116D00256000004613264   GGSL
TXBWIC20100-71549-43331-40000024D0000144D01332000000433310   GGSL
TXBWIC20100-71549-43701-50000016D0000355D00324000000437010   GGSL
TXBWIC20100-71549-44551-50000008D0000135D00012000000445510   GGSL
TXBWIC20100-71549-46008-20000008D0000124D00160000084600810   GGSL
TXBWIC20100-71549-46025-90000024D0000120D00126000004602510   GGSL
TXBWIC20100-71549-46134-80000006D0000031D00030000004613406   GGSL
TXBWIC20100-71549-46139-30000008D0000118D00000000004613905   GGSL
TXBWIC20100-71549-99008-40000018D0000210D00132001209900810   GGSL
TXBWIC20100-71549-99019-00000108D0001160D00069000009901910   GGSL
TXBWIC20100-71549-99060-20000084D0000664D00021000009906010   GGSL
TXBWIC20100-71693-00000-00001000D0000618D000000000002-TB250  GGSL
TXBWIC20100-71693-04111-30001100D0000246D000000000004-LG1100SGGSL
TXBWIC20100-71693-04114-40003300D0000924D000000000004-LG1100VGGSL
TXBWIC20100-71693-04752-80000001D0000168D000000000004-LG750S GGSL
TXBWIC20100-71693-04753-50000750D0000210D000000000004-LG750V GGSL
TXBWIC20100-71693-98401-40000450D0000425D000000000002-P450PN GGSL
TXBWIC20100-71693-98601-80000900D0000586D000000000002-PHH450 GGSL
TXBWIC20100-71860-22505-60000002D0000011D00000000008722505   GGSL
TXBWIC20100-71860-22581-00000002D0000011D00000000008722581   GGSL
TXBWIC20100-71860-22594-00000004D0000022D00000000008722594   GGSL
TXBWIC20100-71860-63400-10000009D0000063D00000000008763400   GGSL
TXBWIC20100-71860-96712-40000091C0000063C00000000009671112   GGSL
TXBWIC20100-71898-43163-40000661D0013116D00199000427800      GGSL
TXBWIC20100-71898-43180-10000454D0007201D00395000077450      GGSL
TXBWIC20100-71898-43213-60000519D0010580D00333000107324      GGSL
TXBWIC20100-71898-43214-30000350D0005973D00327000017326      GGSL
TXBWIC20100-72525-00003-00000249D0000847D0048000012HRT-6     GGSL
TXBWIC20100-72525-00005-40000255D0001236D0040200012HRP-16    GGSL
TXBWIC20100-72525-00022-10000156D0001195D0016500036HBB-32    GGSL
TXBWIC20100-72525-00048-10000051D0000203D0016500000HDE-8     GGSL
TXBWIC20100-72525-00055-90000087D0000598D0025800012EGG-16    GGSL
TXBWIC20100-72525-00060-30000036D0000018D0000000000STINK-326 GGSL
TXBWIC20100-72525-00078-80000045D0000158D0009000000BBTRP     GGSL
TXBWIC20100-72532-00014-80000952D0007186D0031200912          GGSL
TXBWIC20100-72532-00015-50000118D0002604D0006700450          GGSL
TXBWIC20100-72532-00016-20000018D0000843D0003700000          GGSL
TXBWIC20100-72532-00017-90000330D0033468D0005400003          GGSL
TXBWIC20100-72532-22310-30000100D0000768D0016000370stspray-10GGSL
TXBWIC20100-72693-00014-80000062D0000652D001830001282770001  GGSL
TXBWIC20100-72693-00015-50000075D0005175D002830000482100001  GGSL
TXBWIC20100-72693-00022-30013809D0140838D24805003364964      GGSL
TXBWIC20100-72693-00029-20000004D0001260D000540000082100002  GGSL
TXBWIC20100-72693-00046-90000158D0007543D00142000004985      GGSL
TXBWIC20100-72693-00114-50000276D0001840D0033600084MART4317  GGSL
TXBWIC20100-72693-00210-40000030D0001723D000720000082690021  GGSL
TXBWIC20100-72693-00480-10000164D0012827D001100004882002490  GGSL
TXBWIC20100-72693-00498-60000092D0003672D002880002082002489  GGSL
TXBWIC20100-72693-00505-10000174D0002553D001620003082002488  GGSL
TXBWIC20100-72693-00993-60000004D0000129D000210000082100099  GGSL
TXBWIC20100-72693-01004-80000043D0002088D001260001882100100  GGSL
TXBWIC20100-72693-01338-40000008D0000038D000000000083080133  GGSL
TXBWIC20100-72693-01773-30000279D0001457D00546000364017B     GGSL
TXBWIC20100-72693-02504-20000126D0001460D00073000062504.0    GGSL
TXBWIC20100-72693-02506-60001590D0025195D00969001822506.0    GGSL
TXBWIC20100-72693-02507-30000163D0023295D00400000142507.0    GGSL
TXBWIC20100-72693-02686-50000152D0004507D0037500000CSI2686   GGSL
TXBWIC20100-72693-02750-30000007D0000273D0006700000CSI2750   GGSL
TXBWIC20100-72693-03143-20000036D0000330D000360000082300314  GGSL
TXBWIC20100-72693-03154-80000042D0000498D001260000682300315  GGSL
TXBWIC20100-72693-03164-70000013D0000134D000350000682300316  GGSL
TXBWIC20100-72693-03174-60000018D0000201D000180000682300317  GGSL
TXBWIC20100-72693-03251-40000060D0000671D0001200096CSI3251   GGSL
TXBWIC20100-72693-03254-50000010D0000628D0028300000CSI3254   GGSL
TXBWIC20100-72693-03270-50000008D0001630D000100000082300327  GGSL
TXBWIC20100-72693-03284-20000042D0000324D001080000082300328  GGSL
TXBWIC20100-72693-03298-90000016D0001168D001240000082300329  GGSL
TXBWIC20100-72693-03599-70000974D0092530D013890012282003599  GGSL
TXBWIC20100-72693-04320-60000970D0032778D02737000224320      GGSL
TXBWIC20100-72693-04435-70001776D0070693D004920004082004435  GGSL
TXBWIC20100-72693-04438-80003846D0060435D05266000704438      GGSL
TXBWIC20100-72693-04500-20000021D0001260D000130000582304500  GGSL
TXBWIC20100-72693-04504-00000451D0011936D00155000064505.0    GGSL
TXBWIC20100-72693-04505-70000406D0028288D00322000534506.0    GGSL
TXBWIC20100-72693-04506-40000539D0008724D00391000344504      GGSL
TXBWIC20100-72693-04515-60000002D0000096D00013000004515.0    GGSL
TXBWIC20100-72693-04517-00000004D0000340D00027000004517      GGSL
TXBWIC20100-72693-04668-90000316D0003203D004000002430466.0   GGSL
TXBWIC20100-72693-04697-90000063D0009995D00679000074697.0    GGSL
TXBWIC20100-72693-05007-50000438D0011924D00272000125007.0    GGSL
TXBWIC20100-72693-08300-40000669D0028328D00968000088300.0    GGSL
TXBWIC20100-72693-10002-20000017D0000221D000330000010002.0   GGSL
TXBWIC20100-72693-10374-00000084D0000602D001240000082021037  GGSL
TXBWIC20100-72693-14057-80000076D0005320D010060000983014005  GGSL
TXBWIC20100-72693-17668-30000055D0000788D009850001831766     GGSL
TXBWIC20100-72693-19733-60000063D0001571D004180000031973.0   GGSL
TXBWIC20100-72693-19845-60001189D0012286D011610001231984.0   GGSL
TXBWIC20100-72693-19855-50003095D0034990D000390008431985     GGSL
TXBWIC20100-72693-20038-80000004D0001064D000000000083080147  GGSL
TXBWIC20100-72693-24010-00000003D0000104D00249000002401      GGSL
TXBWIC20100-72693-24030-80000190D0014788D00649000242403      GGSL
TXBWIC20100-72693-24033-90000012D0000474D000000001283014004  GGSL
TXBWIC20100-72693-24925-70000051D0001968D003330000082002492  GGSL
TXBWIC20100-72693-24957-80000068D0000380D002460002082002495  GGSL
TXBWIC20100-72693-29101-00000045D0002475D004130000083012910  GGSL
TXBWIC20100-72693-30068-20000006D0000676D000000000483013006  GGSL
TXBWIC20100-72693-31550-10000005D0000825D000470000082300332  GGSL
TXBWIC20100-72693-31967-70000004D0000504D000150000031968     GGSL
TXBWIC20100-72693-31975-20007896C0000504C003670001231975.0   GGSL
TXBWIC20100-72693-33688-90000099D0006780D004900000783013368  GGSL
TXBWIC20100-72693-33730-90000012D0001876D000000000683013373  GGSL
TXBWIC20100-72693-33850-00000078D0008327D006890000983013385  GGSL
TXBWIC20100-72693-36208-60000027D0001080D002670002083013620  GGSL
TXBWIC20100-72693-38178-00000008D0000367D000040000083013817  GGSL
TXBWIC20100-72693-40010-80000056D0008398D000880000083014003  GGSL
TXBWIC20100-72693-40127-30000025D0001126D003470000183014012  GGSL
TXBWIC20100-72693-41440-20000155D0031800D004320000783014144  GGSL
TXBWIC20100-72693-44292-40001089D0012333D00578001024429      GGSL
TXBWIC20100-72693-44304-40001701D0030987D01041001084430.0    GGSL
TXBWIC20100-72693-44315-00000974D0028865D01647000844431.0    GGSL
TXBWIC20100-72693-44327-30002024D0065365D02205000864432      GGSL
TXBWIC20100-72693-44410-20001680D0052673D00634000814441.0    GGSL
TXBWIC20100-72693-44430-00000388D0041652D0023500024MART4443  GGSL
TXBWIC20100-72693-44655-70000045D0000891D00039000244465.0    GGSL
TXBWIC20100-72693-44668-70000028D0001628D00100000004466.0    GGSL
TXBWIC20100-72693-45003-50000180D0001228D00393000844500.0    GGSL
TXBWIC20100-72693-45014-10000324D0003015D00512000964501      GGSL
TXBWIC20100-72693-45025-70000432D0006385D00252000604502      GGSL
TXBWIC20100-72693-45030-10000018D0000992D00055000004503.0    GGSL
TXBWIC20100-72693-45105-60000024D0000148D00180000004510      GGSL
TXBWIC20100-72693-45530-60000006D0000223D00046000004553.0    GGSL
TXBWIC20100-72693-46930-30000644D0005195D00688000884693      GGSL
TXBWIC20100-72693-46950-10000148D0003830D00218000004695      GGSL
TXBWIC20100-72693-50041-90000864D0004378D01296000245004      GGSL
TXBWIC20100-72693-50052-50000732D0009252D00366000665005      GGSL
TXBWIC20100-72693-50064-80000335D0002904D008400000082005006  GGSL
TXBWIC20100-72693-50096-90000001D0000095D000800000082005009  GGSL
TXBWIC20100-72693-52010-30000768D0003977D01356000125201      GGSL
TXBWIC20100-72693-52022-60000552D0007105D00588000065202      GGSL
TXBWIC20100-72693-60025-60000426D0004522D0027600114MART4318  GGSL
TXBWIC20100-72693-60038-60000232D0005485D0026700012MART4319  GGSL
TXBWIC20100-72693-69370-80000048D0000358D001920001282690037  GGSL
TXBWIC20100-72693-70004-80000036D0000360D002100000082770008  GGSL
TXBWIC20100-72693-77034-80000139D0001460D006050000082770003  GGSL
TXBWIC20100-72693-81001-30000002D0000033D002200000082810002  GGSL
TXBWIC20100-72693-82104-00000500D0016070D013320004382100005  GGSL
TXBWIC20100-72693-82303-70000168D0000974D008280000082300001  GGSL
TXBWIC20100-72693-83016-50000004D0000207D000000000483000011  GGSL
TXBWIC20100-72711-60018-30000060D0000212D000600000060012     GGSL
TXBWIC20100-72725-00023-80000072D0000983D0022000024HBB-128   GGSL
TXBWIC20100-72725-00087-00000012D0000049D0000000000RA-16     GGSL
TXBWIC20100-72725-00093-10000024D0000163D0002300000FS-14     GGSL
TXBWIC20100-72725-00158-70000024D0001038D0004400000BLKBB-128 GGSL
TXBWIC20100-72725-00183-90000042D0000583D0009300012BLKBB-326 GGSL
TXBWIC20100-72725-00213-30000024D0000183D0006300000BLKBB16A  GGSL
TXBWIC20100-72725-00214-00000012D0000082D0003600000BLKBB-P4  GGSL
TXBWIC20100-72725-00215-40000008D0000220D0002000000BBKIT-LGVPGGSL
TXBWIC20100-72725-00219-50000060D0000168D0000000240PRO-32    GGSL
TXBWIC20100-72725-00259-10000072D0000288D0000000420CR32      GGSL
TXBWIC20100-72725-00269-00000141D0000878D0014100480DE-FG105P GGSL
TXBWIC20100-72725-00407-60000156D0000971D0016800096DE-FG2P   GGSL
TXBWIC20100-72725-00408-30000136D0001178D0009600360DE-FG4P   GGSL
TXBWIC20100-72725-00420-50000012D0000171D0000000000GRR-20    GGSL
TXBWIC20100-72868-00000-00000768D0000545D0403200144M330      GGSL
TXBWIC20100-72868-00300-40000180D0000540D0004800000M6006     GGSL
TXBWIC20100-72868-00326-40005748D0008016D0184700468M326      GGSL
TXBWIC20100-72868-00800-90000096D0001072D0004800000M6009     GGSL
TXBWIC20100-72868-00915-00000012D0000070D0000000000M915      GGSL
TXBWIC20100-72868-02000-10000006D0000081D0000000012M9015     GGSL
TXBWIC20100-72868-02300-20000024D0000149D0000000000M7001-1   GGSL
TXBWIC20100-72868-02400-90000036D0000405D0007600028M7002-2   GGSL
TXBWIC20100-72868-03620-00000046D0003095D0002000000VP362     GGSL
TXBWIC20100-72868-03630-90000443D0003297D0081900025VP363     GGSL
TXBWIC20100-72868-03648-40000691D0007658D0046500006VP364B    GGSL
TXBWIC20100-72868-09012-70000012D0000223D0000000000M9012     GGSL
TXBWIC20100-72868-09320-30004379D0000806D1915201008M320      GGSL
TXBWIC20100-72868-11751-00000006D0000043D0001800000M751K     GGSL
TXBWIC20100-72868-13035-90000612D0000511D0169200036M035      GGSL
TXBWIC20100-72868-13200-10001512D0002102D0102000216200R      GGSL
TXBWIC20100-72868-13308-40000252D0002437D0020400024M308      GGSL
TXBWIC20100-72868-13309-10023256D0004128D7005600144M309      GGSL
TXBWIC20100-72868-13325-10013392D0005053D1188000144M325      GGSL
TXBWIC20100-72868-13327-50000150D0000030D0360000000M327      GGSL
TXBWIC20100-72868-24178-90000005D0000229D0009700000M241      GGSL
TXBWIC20100-72868-29633-80000010D0000014D0000000000          GGSL
TXBWIC20100-72868-54002-80000456D0000716D0001200000M668      GGSL
TXBWIC20100-72868-54102-50001572D0002702D0028800060M669      GGSL
TXBWIC20100-73035-01212-60000024D0000163D000000014401212     GGSL
TXBWIC20100-73035-01310-90000024D0000097D000000082801310     GGSL
TXBWIC20100-73035-02610-90000160D0000061D000000000002610     GGSL
TXBWIC20100-73035-02612-30000480D0000192D004800080002612     GGSL
TXBWIC20100-73035-04226-00000030D0000123D000000077004226     GGSL
TXBWIC20100-73035-06002-80000012D0000008D000480000006001     GGSL
TXBWIC20100-73035-06127-80000128D0000496D000160099206127     GGSL
TXBWIC20100-73035-06703-40000036D0000078D000120098406703     GGSL
TXBWIC20100-73035-09827-40000036D0000036D000000000609827     GGSL
TXBWIC20100-73035-15101-60000048D0000024D000000000005101     GGSL
TXBWIC20100-73035-25001-60000378D0000498D000000012205031T    GGSL
TXBWIC20100-73091-17500-10000059D0000408D00000000008517500   GGSL
TXBWIC20100-73091-17603-90000029D0000194D00000000008517603   GGSL
TXBWIC20100-73091-17703-60000074D0000892D00000000008517703   GGSL
TXBWIC20100-73222-11047-20000004D0000051D000000000011047     GGSL
TXBWIC20100-73561-00022-20000120D0000533D00036001502000221   GGSL
TXBWIC20100-73561-00028-40000204D0001593D00186000121000283   GGSL
TXBWIC20100-73561-00042-00000288D0001324D00210002582000422   GGSL
TXBWIC20100-73561-00044-40000030D0000260D00084000421000441   GGSL
TXBWIC20100-73561-00055-00000072D0000180D00078000421000551   GGSL
TXBWIC20100-73561-00070-30000072D0000327D00258000121000701   GGSL
TXBWIC20100-73561-00099-40000138D0000348D00018000002000992   GGSL
TXBWIC20100-73561-00119-90000036D0000901D00036000001001193   GGSL
TXBWIC20100-73561-00150-20000018D0000087D00420000903001502   GGSL
TXBWIC20100-73561-00157-10000036D0000053D0000000000400157    GGSL
TXBWIC20100-73561-00190-80000096D0000275D0001200006100195    GGSL
TXBWIC20100-73561-00192-20000048D0000256D00204000181001921   GGSL
TXBWIC20100-73561-00199-10000084D0000251D00180001921001991   GGSL
TXBWIC20100-73561-00252-30000648D0000598D00000000241002522   GGSL
TXBWIC20100-73561-00404-60001789C0000598C00036000001004043   GGSL
TXBWIC20100-73561-00410-70000180D0001861D00300001261004102   GGSL
TXBWIC20100-73561-00432-90000030D0000356D00006000061004325   GGSL
TXBWIC20100-73561-00440-40000048D0000368D00012000061004402   GGSL
TXBWIC20100-73561-00475-60000006D0000046D00000000121004751   GGSL
TXBWIC20100-73561-00600-20000024D0000115D00000000003006002   GGSL
TXBWIC20100-73561-00645-00000144D0000622D00000000001006451   GGSL
TXBWIC20100-73561-00720-70000090D0000312D0004800108100720    GGSL
TXBWIC20100-73561-01560-80000012D0000038D0004800030101560    GGSL
TXBWIC20100-73561-01611-70000108C0000038C00006000001016111   GGSL
TXBWIC20100-73561-10114-10000101D0001293D00104000001011410   GGSL
TXBWIC20100-73561-16001-80002994D0008832D0024000168160101    GGSL
TXBWIC20100-73561-30025-40000006D0000027D00000000003002510   GGSL
TXBWIC20100-73561-30027-80000006D0000063D00012000003002710   GGSL
TXBWIC20100-73561-30053-70000006D0000038D00000000003005310   GGSL
TXBWIC20100-73561-30068-10000006D0000025D00000000003006806   GGSL
