TXBWIC20100-238830000037ADVANCING ALTERNATIVES        GGPO
TXBWIC20100-364340000019ADVANCING ALTERNATIVES        GGPO
TXBWIC20100-383130000090ADVANCING ALTERNATIVES        GGPO
TXBWIC20100-322210002159AGRI-TEX                      GGPO
TXBWIC20100-726930002738AGRI-TEX                      GGPO
TXBWIC20100-112470001110ALLIANCE ANIMAL CARE, LLC     GGPO
TXBWIC20100-238830000461ALLIANCE ANIMAL CARE, LLC     GGPO
TXBWIC20100-322210000627ALLIANCE ANIMAL CARE, LLC     GGPO
TXBWIC20100-329030000329ALLIANCE ANIMAL CARE, LLC     GGPO
TXBWIC20100-364340000041ALLIANCE ANIMAL CARE, LLC     GGPO
TXBWIC20100-415350000441ALLIANCE ANIMAL CARE, LLC     GGPO
TXBWIC20100-422060000102ALLIANCE ANIMAL CARE, LLC     GGPO
TXBWIC20100-425790000076ALLIANCE ANIMAL CARE, LLC     GGPO
TXBWIC20100-428530000025ALLIANCE ANIMAL CARE, LLC     GGPO
TXBWIC20100-433120000715ALLIANCE ANIMAL CARE, LLC     GGPO
TXBWIC20100-501970000043ALLIANCE ANIMAL CARE, LLC     GGPO
TXBWIC20100-726930001544ALLIANCE ANIMAL CARE, LLC     GGPO
TXBWIC20100-728680000030ALLIANCE ANIMAL CARE, LLC     GGPO
TXBWIC20100-738890000129ALLIANCE ANIMAL CARE, LLC     GGPO
TXBWIC20100-777840000013ALLIANCE ANIMAL CARE, LLC     GGPO
TXBWIC20100-848650003946ALLIANCE ANIMAL CARE, LLC     GGPO
TXBWIC20100-956680001135ALLIANCE ANIMAL CARE, LLC     GGPO
TXBWIC20101-869550000158ALLIANCE ANIMAL CARE, LLC     GGPO
TXBWIC20107-203430000190ALLIANCE ANIMAL CARE, LLC     GGPO
TXBWIC20107-256090000057ALLIANCE ANIMAL CARE, LLC     GGPO
TXBWIC20107-322210001640ALLIANCE ANIMAL CARE, LLC     GGPO
TXBWIC20107-522890000147ALLIANCE ANIMAL CARE, LLC     GGPO
TXBWIC20107-768960000140ALLIANCE ANIMAL CARE, LLC     GGPO
TXBWIC20108-744800000157ALLIANCE ANIMAL CARE, LLC     GGPO
TXBWIC20100-425790000132AMERICAN PLANT FOOD CORP      GGPO
TXBWIC20107-591880000350ARBORJET, INC.                GGPO
TXBWIC20108-118900008838ARBORJET, INC.                GGPO
TXBWIC20100-768170002148ATLAS FEED MILLS, INC.        GGPO
TXBWIC20100-238830000597ATLAS GREENHOUSE SYSTEMS INC  GGPO
TXBWIC20100-501970000086ATLAS GREENHOUSE SYSTEMS INC  GGPO
TXBWIC20100-726930001152ATLAS GREENHOUSE SYSTEMS INC  GGPO
TXBWIC20101-869550000084ATLAS GREENHOUSE SYSTEMS INC  GGPO
TXBWIC20107-174820006161AUSTINVILLE LIMESTONE CO      GGPO
TXBWIC20106-870730001557B & T SHAVINGS                GGPO
TXBWIC2010P-C11000007666B&G EQUIPMENT CO.             GGPO
TXBWIC20106-337590000093B&G EQUIPMENT CO.             GGPO
TXBWIC20106-153690008000BALL DPF, LLC                 GGPO
TXBWIC20100-400250000242BASF CORPORATION              GGPO
TXBWIC20100-431620013000BASF CORPORATION              GGPO
TXBWIC20100-437920000337BASF CORPORATION              GGPO
TXBWIC20100-718980001238BASF CORPORATION              GGPO
TXBWIC20107-184770171646BASF CORPORATION              GGPO
TXBWIC20107-427860000035BASF CORPORATION              GGPO
TXBWIC20100-306410000020BAYER PROFESSIONAL PEST MGT   GGPO
TXBWIC20100-322470000013BAYER PROFESSIONAL PEST MGT   GGPO
TXBWIC20100-383130000014BAYER PROFESSIONAL PEST MGT   GGPO
TXBWIC20100-425790000125BAYER PROFESSIONAL PEST MGT   GGPO
TXBWIC20100-664980000138BAYER PROFESSIONAL PEST MGT   GGPO
TXBWIC20100-715490000044BAYER PROFESSIONAL PEST MGT   GGPO
TXBWIC20100-726930000444BAYER PROFESSIONAL PEST MGT   GGPO
TXBWIC20100-727250000262BAYER PROFESSIONAL PEST MGT   GGPO
TXBWIC20100-786270000075BAYER PROFESSIONAL PEST MGT   GGPO
TXBWIC20100-946540000471BAYER PROFESSIONAL PEST MGT   GGPO
TXBWIC20100-952420000742BAYER PROFESSIONAL PEST MGT   GGPO
TXBWIC20100-952520000271BAYER PROFESSIONAL PEST MGT   GGPO
TXBWIC20106-510820000023BAYER PROFESSIONAL PEST MGT   GGPO
TXBWIC20106-511240000108BAYER PROFESSIONAL PEST MGT   GGPO
TXBWIC20106-870730000723BAYER PROFESSIONAL PEST MGT   GGPO
TXBWIC20107-256090000057BAYER PROFESSIONAL PEST MGT   GGPO
TXBWIC20107-322210000046BAYER PROFESSIONAL PEST MGT   GGPO
TXBWIC20107-423840000053BAYER PROFESSIONAL PEST MGT   GGPO
TXBWIC20108-744800000019BAYER PROFESSIONAL PEST MGT   GGPO
TXBWIC20107-191950003230BELDEN PLASTICS               GGPO
TXBWIC20100-400250000022BELL LABORATORIES             GGPO
TXBWIC20100-487450003520BELL LABORATORIES             GGPO
TXBWIC20100-726930000115BELL LABORATORIES             GGPO
TXBWIC20107-191950000796BELL LABORATORIES             GGPO
TXBWIC20100-353070000027BELLINGHAM GLOVE, INC         GGPO
TXBWIC20100-422060000111BELLINGHAM GLOVE, INC         GGPO
TXBWIC20100-843690000287BELLINGHAM GLOVE, INC         GGPO
TXBWIC20106-397510013448BELLINGHAM GLOVE, INC         GGPO
TXBWIC20106-743260004618BELLINGHAM GLOVE, INC         GGPO
TXBWIC20108-506950000015BELLINGHAM GLOVE, INC         GGPO
TXBWIC20100-848650030542BENGAL PRODUCTS INC.          GGPO
TXBWIC20100-726930000227BIG HORN OUTDOORS             GGPO
TXBWIC20100-400250000231BIO WORKS, INC.               GGPO
TXBWIC20101-887160020323BIOSAFE SYSTEMS               GGPO
TXBWIC20100-843690000336BIOTIC ENVIRONMENTAL SOLUTIONSGGPO
TXBWIC20100-238830000018BONIDE PRODUCTS, INC.         GGPO
TXBWIC20100-322210000052BONIDE PRODUCTS, INC.         GGPO
TXBWIC20100-373210056183BONIDE PRODUCTS, INC.         GGPO
TXBWIC20100-501970000040BONIDE PRODUCTS, INC.         GGPO
TXBWIC20100-701830000207BONIDE PRODUCTS, INC.         GGPO
TXBWIC20100-726930000256BONIDE PRODUCTS, INC.         GGPO
TXBWIC20106-511240000054BONIDE PRODUCTS, INC.         GGPO
TXBWIC20107-191950000048BONIDE PRODUCTS, INC.         GGPO
TXBWIC20107-269320000549BONIDE PRODUCTS, INC.         GGPO
TXBWIC20107-322210000033BONIDE PRODUCTS, INC.         GGPO
TXBWIC20107-423840000080BONIDE PRODUCTS, INC.         GGPO
TXBWIC20100-238830000050BONUS CROP FERTILIZER INC     GGPO
TXBWIC20100-322210004318BONUS CROP FERTILIZER INC     GGPO
TXBWIC20100-726930000106BONUS CROP FERTILIZER INC     GGPO
TXBWIC20100-112470011568CARL POOL PRODUCTS            GGPO
TXBWIC20100-373210000278CARL POOL PRODUCTS            GGPO
TXBWIC20101-124720000159CARL POOL PRODUCTS            GGPO
TXBWIC20101-124750000128CARL POOL PRODUCTS            GGPO
TXBWIC20106-174410004675CAROLINA STALITE COMPANY      GGPO
TXBWIC20100-866210016609CENTRAL LIFE SCIENCES         GGPO
TXBWIC20100-238830135834CHAPIN INTERNATIONAL          GGPO
TXBWIC20100-061730001755CLASSIC BRANDS LLC            GGPO
TXBWIC20100-843690000664CLASSIC BRANDS LLC            GGPO
TXBWIC20101-556200000708CLASSIC BRANDS LLC            GGPO
TXBWIC20106-173130000441CLASSIC BRANDS LLC            GGPO
TXBWIC20108- 15560002032CLASSIC BRANDS LLC            GGPO
TXBWIC20108-155620007454CLASSIC BRANDS LLC            GGPO
TXBWIC20100-004020052220COLLIER METAL SPECIALTIES LTD GGPO
TXBWIC20100-726930001082COMMODITY MARKETING CO        GGPO
TXBWIC20107-768960011334COMMODITY MARKETING CO        GGPO
TXBWIC20100-726930687440CONTROL SOLUTIONS, INC.       GGPO
TXBWIC20107-269300018976CONTROL SOLUTIONS, INC.       GGPO
TXBWIC20107-269320000825CONTROL SOLUTIONS, INC.       GGPO
TXBWIC20107-269330000659CONTROL SOLUTIONS, INC.       GGPO
TXBWIC20107-269340000712CONTROL SOLUTIONS, INC.       GGPO
TXBWIC20107-423840163097CONTROL SOLUTIONS, INC.       GGPO
TXBWIC20100-353070000036CONWED FIBERS                 GGPO
TXBWIC20100-383130032892CORONA CLIPPER INC            GGPO
TXBWIC20103-831320000070CORONA CLIPPER INC            GGPO
TXBWIC20103-831390000391CORONA CLIPPER INC            GGPO
TXBWIC20100-843690000106CPKB DBA - TRUNK LINER        GGPO
TXBWIC20100-373210005090D & D COMMODITIES LTD.        GGPO
TXBWIC20100-400250000506D & D COMMODITIES LTD.        GGPO
TXBWIC20100-714590000132D & D COMMODITIES LTD.        GGPO
TXBWIC20101-071910001474D & D COMMODITIES LTD.        GGPO
TXBWIC20107-191950106790D & D COMMODITIES LTD.        GGPO
TXBWIC20108-191950000284D & D COMMODITIES LTD.        GGPO
TXBWIC20100-160690002792DALEN PRODUCTS, INC           GGPO
TXBWIC20100-428540000427DELTA INDUSTRIES              GGPO
TXBWIC20100-843690000021DEROMA USA                    GGPO
TXBWIC20100-103670000018DEWITT COMPANY, INC           GGPO
TXBWIC20100-224010000595DEWITT COMPANY, INC           GGPO
TXBWIC20100-238830000062DEWITT COMPANY, INC           GGPO
TXBWIC20100-400250000099DEWITT COMPANY, INC           GGPO
TXBWIC20100-425790247264DEWITT COMPANY, INC           GGPO
TXBWIC20100-433260000035DEWITT COMPANY, INC           GGPO
TXBWIC20100-843690000373DEWITT COMPANY, INC           GGPO
TXBWIC20107-322210000027DEWITT COMPANY, INC           GGPO
TXBWIC20107-689800000641DEWITT COMPANY, INC           GGPO
TXBWIC20100-642770016179DICAPERL MINERALS CORPORATION GGPO
TXBWIC20107-256090013870DIP'N GROW INC                GGPO
TXBWIC20106-990640000184DISCOUNT SEEDS, INC           GGPO
TXBWIC20107-322210000179DISCOUNT SEEDS, INC           GGPO
TXBWIC20100-364340000036DOW AGROSCIENCES              GGPO
TXBWIC20100-726930000702DOW AGROSCIENCES              GGPO
TXBWIC20100-728680000039DOW AGROSCIENCES              GGPO
TXBWIC20100-786270000084DOW AGROSCIENCES              GGPO
TXBWIC20100-843690000046DOW AGROSCIENCES              GGPO
TXBWIC20106-870730000021DOW AGROSCIENCES              GGPO
TXBWIC20107-322210000085DOW AGROSCIENCES              GGPO
TXBWIC20107-768960000013DOW AGROSCIENCES              GGPO
TXBWIC20108-506950000019DOW AGROSCIENCES              GGPO
TXBWIC20108-744800000107DOW AGROSCIENCES              GGPO
TXBWIC20100-527320089467EARTHWAY PRODUCTS INC         GGPO
TXBWIC20100-572730005358EARTHWAY PRODUCTS INC         GGPO
TXBWIC20100-843690000096EARTHWORKS                    GGPO
TXBWIC20100-730350013485EASY GARDENER INC.            GGPO
TXBWIC20100-238830000383EATON BROTHERS CORP.          GGPO
TXBWIC20101-869550010415ENVIRO PROTECTION INDUSTRIES  GGPO
TXBWIC20100-112470000420ESSCHERT DESIGN USA           GGPO
TXBWIC20100-238830000180ESSCHERT DESIGN USA           GGPO
TXBWIC20100-322210000899ESSCHERT DESIGN USA           GGPO
TXBWIC20100-329030000044ESSCHERT DESIGN USA           GGPO
TXBWIC20100-346130000178ESSCHERT DESIGN USA           GGPO
TXBWIC20100-383130000010ESSCHERT DESIGN USA           GGPO
TXBWIC20100-400250000026ESSCHERT DESIGN USA           GGPO
TXBWIC20100-725250000137ESSCHERT DESIGN USA           GGPO
TXBWIC20100-843690000080ESSCHERT DESIGN USA           GGPO
TXBWIC20100-946540000076ESSCHERT DESIGN USA           GGPO
TXBWIC20106-870730001869ESSCHERT DESIGN USA           GGPO
TXBWIC20107-322210001044ESSCHERT DESIGN USA           GGPO
TXBWIC20107-423840001092ESSCHERT DESIGN USA           GGPO
TXBWIC20107-591880000007EVOLVED HABITATS              GGPO
TXBWIC20107-865410014390EVOLVED HABITATS              GGPO
TXBWIC20108-506950005363EVOLVED HABITATS              GGPO
TXBWIC20108-550180005633EVOLVED HABITATS              GGPO
TXBWIC20108-550190000655EVOLVED HABITATS              GGPO
TXBWIC20100-726930000113FESTIVAL WINDCHIMES           GGPO
TXBWIC20100-112470000172FLOPAK                        GGPO
TXBWIC20105-023530000130FLOPAK                        GGPO
TXBWIC20107-203430000065FLOPAK                        GGPO
TXBWIC20106-902470000017FLORIKAN E.S.A. CORP          GGPO
TXBWIC20100-238830000069FOXFARM SOIL & FERTILIZER CO. GGPO
TXBWIC20100-353070001689FOXFARM SOIL & FERTILIZER CO. GGPO
TXBWIC20100-364340000091FOXFARM SOIL & FERTILIZER CO. GGPO
TXBWIC20100-373210000478FOXFARM SOIL & FERTILIZER CO. GGPO
TXBWIC20100-415350001442FOXFARM SOIL & FERTILIZER CO. GGPO
TXBWIC20100-425790001956FOXFARM SOIL & FERTILIZER CO. GGPO
TXBWIC20100-726930002526FOXFARM SOIL & FERTILIZER CO. GGPO
TXBWIC20100-730350000046FOXFARM SOIL & FERTILIZER CO. GGPO
TXBWIC20100-843690000321FOXFARM SOIL & FERTILIZER CO. GGPO
TXBWIC20100-857650000025FOXFARM SOIL & FERTILIZER CO. GGPO
TXBWIC20100-866210012461FOXFARM SOIL & FERTILIZER CO. GGPO
TXBWIC20106-510820000011FOXFARM SOIL & FERTILIZER CO. GGPO
TXBWIC20106-870730000852FOXFARM SOIL & FERTILIZER CO. GGPO
TXBWIC20107-255890000879FOXFARM SOIL & FERTILIZER CO. GGPO
TXBWIC20107-256090001776FOXFARM SOIL & FERTILIZER CO. GGPO
TXBWIC20107-522890508332FOXFARM SOIL & FERTILIZER CO. GGPO
TXBWIC20107-865410000102FOXFARM SOIL & FERTILIZER CO. GGPO
TXBWIC20106-440120008699GALLAGHER                     GGPO
TXBWIC20106-444930025004GALLAGHER                     GGPO
TXBWIC20100-344170000960GARDENSCAPE INC               GGPO
TXBWIC20107-174820014390GARICK LLC                    GGPO
TXBWIC20100-034410002916GILMOUR MFG COMPANY           GGPO
TXBWIC20100-400250000055GLOVER CUSTOM WOOD, INC       GGPO
TXBWIC20100-738890001684GREEN GLO PRODUCTS            GGPO
TXBWIC20100-537440000568GREEN-TEK  INC                GGPO
TXBWIC20100-726930000249GROWERS FERTILIZER CORP       GGPO
TXBWIC20107-256090000057GROWERS FERTILIZER CORP       GGPO
TXBWIC20107-269320000084GROWERS FERTILIZER CORP       GGPO
TXBWIC20107-322210000097GROWERS FERTILIZER CORP       GGPO
TXBWIC20100-353070000316HCT, LLC                      GGPO
TXBWIC20100-532910004641HEADWIND CONSUMER PRODUCTS    GGPO
TXBWIC20107-203430000063HIGH CALIPER GROWING, INC     GGPO
TXBWIC20107-322210000099HIGH CALIPER GROWING, INC     GGPO
TXBWIC20107-423840000075HIGH CALIPER GROWING, INC     GGPO
TXBWIC20100-400250002559HONEYWELL SAFETY PRODUCTS USA GGPO
TXBWIC20106-624980000496HONEYWELL SAFETY PRODUCTS USA GGPO
TXBWIC20100-537440000183HOWARD JOHNSON, INC           GGPO
TXBWIC20100-725250000301HOWARD JOHNSON, INC           GGPO
TXBWIC20100-727250000924HOWARD JOHNSON, INC           GGPO
TXBWIC20100-781590154083HOWARD JOHNSON, INC           GGPO
TXBWIC20108-608070001956HOWARD JOHNSON, INC           GGPO
TXBWIC20100-642770018036IMERYS PERLITE USA, INC.      GGPO
TXBWIC20100-221790001042ITB CO., INC.                 GGPO
TXBWIC20100-238830000080ITB CO., INC.                 GGPO
TXBWIC20100-373210006854ITB CO., INC.                 GGPO
TXBWIC20100-843690000132ITB CO., INC.                 GGPO
TXBWIC20107-591880000002ITB CO., INC.                 GGPO
TXBWIC20100-415350003893J & M PLASTICS INC            GGPO
TXBWIC20100-364340000058J.T. EATON & CO., INC.        GGPO
TXBWIC20107-768960054783JETTCO SEED                   GGPO
TXBWIC20100-333490000177JIFFY PRODUCTS OF AMERICA     GGPO
TXBWIC20100-728680000168JIFFY PRODUCTS OF AMERICA     GGPO
TXBWIC20107-000010000048JIFFY PRODUCTS OF AMERICA     GGPO
TXBWIC20100-306410000481JOHN RIETVELD FARMS, LLC C    GGPO
TXBWIC20100-437920003240JOHN RIETVELD FARMS, LLC C    GGPO
TXBWIC20107-296400071035JONES SEED COMPANY            GGPO
TXBWIC20107-296410023405JONES SEED COMPANY            GGPO
TXBWIC20107-768960002087JONES SEED COMPANY            GGPO
TXBWIC20107-689800001327K-SALES INC.                  GGPO
TXBWIC20100-306410000016KENTWOOD COOP                 GGPO
TXBWIC20100-437920000832KENTWOOD COOP                 GGPO
TXBWIC20100-402790000544L E COOKE COMPANY             GGPO
TXBWIC20100-938180001150L E COOKE COMPANY             GGPO
TXBWIC20100-238830000031LAMBERT PEAT MOSS, INC        GGPO
TXBWIC20100-322210000172LAMBERT PEAT MOSS, INC        GGPO
TXBWIC20100-353070000104LAMBERT PEAT MOSS, INC        GGPO
TXBWIC20100-364340000018LAMBERT PEAT MOSS, INC        GGPO
TXBWIC20100-400250000044LAMBERT PEAT MOSS, INC        GGPO
TXBWIC20100-422060000027LAMBERT PEAT MOSS, INC        GGPO
TXBWIC20100-428530000025LAMBERT PEAT MOSS, INC        GGPO
TXBWIC20100-437920000055LAMBERT PEAT MOSS, INC        GGPO
TXBWIC20100-664980152395LAMBERT PEAT MOSS, INC        GGPO
TXBWIC20100-726930000422LAMBERT PEAT MOSS, INC        GGPO
TXBWIC20100-727250000235LAMBERT PEAT MOSS, INC        GGPO
TXBWIC20100-735610000059LAMBERT PEAT MOSS, INC        GGPO
TXBWIC20100-843690001235LAMBERT PEAT MOSS, INC        GGPO
TXBWIC20101-887160000227LAMBERT PEAT MOSS, INC        GGPO
TXBWIC20105-023530000065LAMBERT PEAT MOSS, INC        GGPO
TXBWIC20106-649800003560LAMBERT PEAT MOSS, INC        GGPO
TXBWIC20106-990640000046LAMBERT PEAT MOSS, INC        GGPO
TXBWIC20107-191950001180LAMBERT PEAT MOSS, INC        GGPO
TXBWIC20107-256090000649LAMBERT PEAT MOSS, INC        GGPO
TXBWIC20107-322210000320LAMBERT PEAT MOSS, INC        GGPO
TXBWIC20107-522890001546LAMBERT PEAT MOSS, INC        GGPO
TXBWIC20107-591880000017LAMBERT PEAT MOSS, INC        GGPO
TXBWIC20107-865410000054LAMBERT PEAT MOSS, INC        GGPO
TXBWIC20108-164030000043LAMBERT PEAT MOSS, INC        GGPO
TXBWIC20108-744800000037LAMBERT PEAT MOSS, INC        GGPO
TXBWIC20108-886030000956LAMBERT PEAT MOSS, INC        GGPO
TXBWIC20100-230770002059LANDSCAPERS PRIDE             GGPO
TXBWIC20100-344170006003LANDSCAPERS PRIDE             GGPO
TXBWIC20106-870730000122LANDSCAPERS PRIDE             GGPO
TXBWIC20100-112470000007LEATHER BROTHERS              GGPO
TXBWIC20100-329030000015LEATHER BROTHERS              GGPO
TXBWIC20100-373210000055LEATHER BROTHERS              GGPO
TXBWIC20100-383130000063LEATHER BROTHERS              GGPO
TXBWIC20100-727250000065LEATHER BROTHERS              GGPO
TXBWIC20100-843690000024LEATHER BROTHERS              GGPO
TXBWIC20104-220600000043LEATHER BROTHERS              GGPO
TXBWIC20107-322210000160LEATHER BROTHERS              GGPO
TXBWIC20108-550190000062LEATHER BROTHERS              GGPO
TXBWIC20100-927830005700LEBANON SEABOARD CORPORATION  GGPO
TXBWIC20100-004020000046LUDVIG SVENSSON,INC.          GGPO
TXBWIC20100-353070000026LUDVIG SVENSSON,INC.          GGPO
TXBWIC20100-373210000093LUDVIG SVENSSON,INC.          GGPO
TXBWIC20100-425790000051LUDVIG SVENSSON,INC.          GGPO
TXBWIC20100-431620000975LUDVIG SVENSSON,INC.          GGPO
TXBWIC20100-437920000120LUDVIG SVENSSON,INC.          GGPO
TXBWIC20100-789780000029LUDVIG SVENSSON,INC.          GGPO
TXBWIC20100-851990000041LUDVIG SVENSSON,INC.          GGPO
TXBWIC20107-269320000054LUDVIG SVENSSON,INC.          GGPO
TXBWIC20107-322210000099LUDVIG SVENSSON,INC.          GGPO
TXBWIC20107-502270000280LUDVIG SVENSSON,INC.          GGPO
TXBWIC20107-591880000016LUDVIG SVENSSON,INC.          GGPO
TXBWIC20108-744800000362LUDVIG SVENSSON,INC.          GGPO
TXBWIC20107-322210001396LUMITE, INC.                  GGPO
TXBWIC20107-896660000109LUMITE, INC.                  GGPO
TXBWIC20100-353070010153LUSTER LEAF PRODUCTS, INC     GGPO
TXBWIC20100-373210000266MADDOX SEED                   GGPO
TXBWIC20100-487450000106MADDOX SEED                   GGPO
TXBWIC20100-709230000030MADDOX SEED                   GGPO
TXBWIC20101-069870000232MADDOX SEED                   GGPO
TXBWIC20107-296400000066MADDOX SEED                   GGPO
TXBWIC20107-296410000024MADDOX SEED                   GGPO
TXBWIC20107-591880000025MADDOX SEED                   GGPO
TXBWIC20107-865410000019MADDOX SEED                   GGPO
TXBWIC20108-744800000058MADDOX SEED                   GGPO
TXBWIC20100-467530029378MEDINA AGRI PRODUCTS          GGPO
TXBWIC20100-726930000500MELISSA & DOUG, LLC           GGPO
TXBWIC20101-887160000056MELISSA & DOUG, LLC           GGPO
TXBWIC20107-322210000041MELISSA & DOUG, LLC           GGPO
TXBWIC20100-422060007348MELNOR INC.                   GGPO
TXBWIC20100-280090025079MICHIGAN PEAT COMPANY         GGPO
TXBWIC20100-433120000017MICHIGAN PEAT COMPANY         GGPO
TXBWIC20100-537440000072MICHIGAN PEAT COMPANY         GGPO
TXBWIC20101-869550000237MICHIGAN PEAT COMPANY         GGPO
TXBWIC20100-238830000132MID-AMERICA MULCH INC.        GGPO
TXBWIC20100-329030000017MID-AMERICA MULCH INC.        GGPO
TXBWIC20100-373210000041MID-AMERICA MULCH INC.        GGPO
TXBWIC20100-501970000099MID-AMERICA MULCH INC.        GGPO
TXBWIC20100-709230000024MID-AMERICA MULCH INC.        GGPO
TXBWIC20100-735610000088MID-AMERICA MULCH INC.        GGPO
TXBWIC20100-843690000081MID-AMERICA MULCH INC.        GGPO
TXBWIC20100-857650000156MID-AMERICA MULCH INC.        GGPO
TXBWIC20106-870730000038MID-AMERICA MULCH INC.        GGPO
TXBWIC20107-296400000187MID-AMERICA MULCH INC.        GGPO
TXBWIC20107-322210000114MID-AMERICA MULCH INC.        GGPO
TXBWIC20107-522890000069MID-AMERICA MULCH INC.        GGPO
TXBWIC20107-591880000008MID-AMERICA MULCH INC.        GGPO
TXBWIC20107-768960000065MID-AMERICA MULCH INC.        GGPO
TXBWIC20107-865410000096MID-AMERICA MULCH INC.        GGPO
TXBWIC20108-506950000270MID-AMERICA MULCH INC.        GGPO
TXBWIC20100-843690034436MILLER MANUFACTURING CO       GGPO
TXBWIC20100-857650000390MILLER MANUFACTURING CO       GGPO
TXBWIC20106-592760002789MILLER MANUFACTURING CO       GGPO
TXBWIC20108-436900001744MILLER MANUFACTURING CO       GGPO
TXBWIC20100-465390035108MILORGANITE DIVISION -        GGPO
TXBWIC20100-238830000010MODINE MFG COMPANY            GGPO
TXBWIC20100-425790002659MODINE MFG COMPANY            GGPO
TXBWIC20108-550190000046MODINE MFG COMPANY            GGPO
TXBWIC20100-221790018707MONTEREY L & G PRODUCTS, INC  GGPO
TXBWIC20107-146540000120MONTEREY L & G PRODUCTS, INC  GGPO
TXBWIC20100-103670013544MOSSER LEE                    GGPO
TXBWIC20101-036700000050MOSSER LEE                    GGPO
TXBWIC20107-256090001776MOULTRIE FEEDERS INC          GGPO
TXBWIC20100-353070000441MR. BIRD INC.                 GGPO
TXBWIC20106-300880008786MR. BIRD INC.                 GGPO
TXBWIC20100-952420022089NEOGEN CORPORATION            GGPO
TXBWIC20100-952520008143NEOGEN CORPORATION            GGPO
TXBWIC20102-362600000439NEOGEN CORPORATION            GGPO
TXBWIC20100-353070000036NETAFIM IRRIGATION, INC.      GGPO
TXBWIC20100-714590000052NUFARM AMERICAS, INC.         GGPO
TXBWIC20100-726930000843NUFARM AMERICAS, INC.         GGPO
TXBWIC20100-843690000006NUFARM AMERICAS, INC.         GGPO
TXBWIC20106-870730000038NUFARM AMERICAS, INC.         GGPO
TXBWIC20107-322210000537NUFARM AMERICAS, INC.         GGPO
TXBWIC20107-423840000153NUFARM AMERICAS, INC.         GGPO
TXBWIC20108-144850000054NUFARM AMERICAS, INC.         GGPO
TXBWIC20100-221790000048OLD FARMER'S ALMANAC          GGPO
TXBWIC20100-322210000105OLD FARMER'S ALMANAC          GGPO
TXBWIC20100-322470000029OLD FARMER'S ALMANAC          GGPO
TXBWIC20100-422060000007OLD FARMER'S ALMANAC          GGPO
TXBWIC20100-501970000032OLD FARMER'S ALMANAC          GGPO
TXBWIC20100-726930001981OLD FARMER'S ALMANAC          GGPO
TXBWIC20107-322210001560OLD FARMER'S ALMANAC          GGPO
TXBWIC20107-896660000046OLD FARMER'S ALMANAC          GGPO
TXBWIC20100-230770027031OLDCASTLE LAWN & GARDEN       GGPO
TXBWIC20100-344170000877OLDCASTLE LAWN & GARDEN       GGPO
TXBWIC20100-818180011441OLDCASTLE LAWN & GARDEN       GGPO
TXBWIC20107-427860084182OLDCASTLE LAWN & GARDEN       GGPO
TXBWIC20107-174820005681OLDCASTLE STONE PRODUCTS      GGPO
TXBWIC20108-642090000120OLDCASTLE STONE PRODUCTS      GGPO
TXBWIC20101-065100000848ORIGIN POINT BRANDS, LLC      GGPO
TXBWIC20106-510820025880ORIGIN POINT BRANDS, LLC      GGPO
TXBWIC20100-306410000017ORORA VISUAL TX LLC           GGPO
TXBWIC20100-322470000030ORORA VISUAL TX LLC           GGPO
TXBWIC20100-329030000024ORORA VISUAL TX LLC           GGPO
TXBWIC20100-437920000124ORORA VISUAL TX LLC           GGPO
TXBWIC20100-776250000020ORORA VISUAL TX LLC           GGPO
TXBWIC20100-843690000146ORORA VISUAL TX LLC           GGPO
TXBWIC20100-857650000020ORORA VISUAL TX LLC           GGPO
TXBWIC20107-322210000112ORORA VISUAL TX LLC           GGPO
TXBWIC20107-865410000609ORORA VISUAL TX LLC           GGPO
TXBWIC20100-725250004611P.F. HARRIS MANUFACTURING CO  GGPO
TXBWIC20100-727250006911P.F. HARRIS MANUFACTURING CO  GGPO
TXBWIC20101-007270000518P.F. HARRIS MANUFACTURING CO  GGPO
TXBWIC20100-642770038820PALMETTO VERMICULITE, INC     GGPO
TXBWIC20100-934320003850PANACEA PRODUCTS CORPORATION  GGPO
TXBWIC20100-306410000100PARAGON PROFESSIONAL PC       GGPO
TXBWIC20100-329030000095PARAGON PROFESSIONAL PC       GGPO
TXBWIC20100-364340000018PARAGON PROFESSIONAL PC       GGPO
TXBWIC20100-383130000026PARAGON PROFESSIONAL PC       GGPO
TXBWIC20100-400250000263PARAGON PROFESSIONAL PC       GGPO
TXBWIC20100-425790000102PARAGON PROFESSIONAL PC       GGPO
TXBWIC20100-437920000244PARAGON PROFESSIONAL PC       GGPO
TXBWIC20100-843690000060PARAGON PROFESSIONAL PC       GGPO
TXBWIC20106-510820000054PARAGON PROFESSIONAL PC       GGPO
TXBWIC20107-256090000057PARAGON PROFESSIONAL PC       GGPO
TXBWIC20107-296400000303PARAGON PROFESSIONAL PC       GGPO
TXBWIC20107-296410000678PARAGON PROFESSIONAL PC       GGPO
TXBWIC20107-322210000380PARAGON PROFESSIONAL PC       GGPO
TXBWIC20107-522890000072PARAGON PROFESSIONAL PC       GGPO
TXBWIC20107-768960001158PARAGON PROFESSIONAL PC       GGPO
TXBWIC20108-642090000030PARSOURCE LIGHTING SOLUTIONS  GGPO
TXBWIC20100-702510003131PBI/GORDON CORP.              GGPO
TXBWIC20107-264820031460PLANT MATES, LLC              GGPO
TXBWIC20100-725320022306PLANTATION PRODUCTS LLC       GGPO
TXBWIC20107-709320001903PLANTBEST INC                 GGPO
TXBWIC20107-755780000174PLANTBEST INC                 GGPO
TXBWIC20100-238830001717POLY-AG CORP                  GGPO
TXBWIC20100-322210000018POLY-AG CORP                  GGPO
TXBWIC20100-373210000033POLY-AG CORP                  GGPO
TXBWIC20100-422060000034POLY-AG CORP                  GGPO
TXBWIC20100-437920000019POLY-AG CORP                  GGPO
TXBWIC20100-501970000028POLY-AG CORP                  GGPO
TXBWIC20100-711210000214POLY-AG CORP                  GGPO
TXBWIC20100-714590000132POLY-AG CORP                  GGPO
TXBWIC20100-725250000032POLY-AG CORP                  GGPO
TXBWIC20100-726930000778POLY-AG CORP                  GGPO
TXBWIC20100-727250000032POLY-AG CORP                  GGPO
TXBWIC20100-781590000039POLY-AG CORP                  GGPO
TXBWIC20106-153690000136POLY-AG CORP                  GGPO
TXBWIC20107-322210001558POLY-AG CORP                  GGPO
TXBWIC20107-896660000109POLY-AG CORP                  GGPO
TXBWIC20100-112470000020POLY-TEX, INC                 GGPO
TXBWIC20100-004020000008POPPELMANN PLASTICS           GGPO
TXBWIC20100-112470000107POPPELMANN PLASTICS           GGPO
TXBWIC20100-373210000056POPPELMANN PLASTICS           GGPO
TXBWIC20100-383130000005POPPELMANN PLASTICS           GGPO
TXBWIC20100-726930000135POPPELMANN PLASTICS           GGPO
TXBWIC20106-870730000252POPPELMANN PLASTICS           GGPO
TXBWIC20107-322210000634POPPELMANN PLASTICS           GGPO
TXBWIC20107-522890000086POPPELMANN PLASTICS           GGPO
TXBWIC20100-353070000990PREMIER TECH HORTICULTURE     GGPO
TXBWIC20100-238830000227PRESCO                        GGPO
TXBWIC20100-726930000077PRESCO                        GGPO
TXBWIC20100-711210000406PRICE BEVILLE SMITH           GGPO
TXBWIC20100-745140000199PRICE BEVILLE SMITH           GGPO
TXBWIC20101-887160000170PRICE BEVILLE SMITH           GGPO
TXBWIC20106-511240000042PRICE BEVILLE SMITH           GGPO
TXBWIC20107-203430000063PRICE BEVILLE SMITH           GGPO
TXBWIC20100-537440000070PRINCIPLE PLASTICS            GGPO
TXBWIC20100-910530002649PRINCIPLE PLASTICS            GGPO
TXBWIC20106-870730002016PRO-SERVE, INC.               GGPO
TXBWIC20106-902430000747PROCTER AND GAMBLE            GGPO
TXBWIC20108-042730000787PRODUCER'S COOP               GGPO
TXBWIC20100-353070000189PROGROW SUPPLY, LLC           GGPO
TXBWIC20106-870730000955PROGROW SUPPLY, LLC           GGPO
TXBWIC20100-103670000122PROKOZ, INC                   GGPO
TXBWIC20100-322470000314PROKOZ, INC                   GGPO
TXBWIC20100-373210000056PROKOZ, INC                   GGPO
TXBWIC20100-422060000203PROKOZ, INC                   GGPO
TXBWIC20100-701830000045PROKOZ, INC                   GGPO
TXBWIC20100-715490000044PROKOZ, INC                   GGPO
TXBWIC20100-789780000155PROKOZ, INC                   GGPO
TXBWIC20101-007270000086PROKOZ, INC                   GGPO
TXBWIC20106-153690000090PROKOZ, INC                   GGPO
TXBWIC20107-296410000038PROKOZ, INC                   GGPO
TXBWIC20107-423840008070PROKOZ, INC                   GGPO
TXBWIC20107-591880004463PROKOZ, INC                   GGPO
TXBWIC20107-689800001432PROKOZ, INC                   GGPO
TXBWIC20100-400250000264QUIETAIRE                     GGPO
TXBWIC20100-400250000528R.W. ROGERS COMPANY           GGPO
TXBWIC20100-400250000022REGAL ART & GIFT              GGPO
TXBWIC20100-718980001238REGAL ART & GIFT              GGPO
TXBWIC20108-143730000090ROCKWELL LABS, LTD            GGPO
TXBWIC20100-364340000015RUSTIC ARROW                  GGPO
TXBWIC20100-383130000063RUSTIC ARROW                  GGPO
TXBWIC20100-425790001329RUSTIC ARROW                  GGPO
TXBWIC20100-726930000041RUSTIC ARROW                  GGPO
TXBWIC20107-689800010086SANCO INDUSTRIES, INC.        GGPO
TXBWIC20106- 87070000150SBM LIFE SCIENCE CORP/BAYER   GGPO
TXBWIC20106-870730297410SBM LIFE SCIENCE CORP/BAYER   GGPO
TXBWIC20100-221790001731SEAMLESS CONTROL, LLC         GGPO
TXBWIC20100-238830000040SEAMLESS CONTROL, LLC         GGPO
TXBWIC20100-322210001199SEAMLESS CONTROL, LLC         GGPO
TXBWIC20100-322470000163SEAMLESS CONTROL, LLC         GGPO
TXBWIC20100-329030000178SEAMLESS CONTROL, LLC         GGPO
TXBWIC20100-346130000061SEAMLESS CONTROL, LLC         GGPO
TXBWIC20100-353070000073SEAMLESS CONTROL, LLC         GGPO
TXBWIC20100-364340000117SEAMLESS CONTROL, LLC         GGPO
TXBWIC20100-373210000235SEAMLESS CONTROL, LLC         GGPO
TXBWIC20100-383130000021SEAMLESS CONTROL, LLC         GGPO
TXBWIC20100-425790000139SEAMLESS CONTROL, LLC         GGPO
TXBWIC20100-487450000320SEAMLESS CONTROL, LLC         GGPO
TXBWIC20100-501970000068SEAMLESS CONTROL, LLC         GGPO
TXBWIC20100-527320000341SEAMLESS CONTROL, LLC         GGPO
TXBWIC20100-664980000003SEAMLESS CONTROL, LLC         GGPO
TXBWIC20100-715490000089SEAMLESS CONTROL, LLC         GGPO
TXBWIC20100-725250000039SEAMLESS CONTROL, LLC         GGPO
TXBWIC20100-726930001369SEAMLESS CONTROL, LLC         GGPO
TXBWIC20100-728680000231SEAMLESS CONTROL, LLC         GGPO
TXBWIC20100-735610000071SEAMLESS CONTROL, LLC         GGPO
TXBWIC20100-781590000338SEAMLESS CONTROL, LLC         GGPO
TXBWIC20100-843690000256SEAMLESS CONTROL, LLC         GGPO
TXBWIC20100-874040000022SEAMLESS CONTROL, LLC         GGPO
TXBWIC20101-869550000084SEAMLESS CONTROL, LLC         GGPO
TXBWIC20104-220600000029SEAMLESS CONTROL, LLC         GGPO
TXBWIC20105-023530000065SEAMLESS CONTROL, LLC         GGPO
TXBWIC20106-300880000035SEAMLESS CONTROL, LLC         GGPO
TXBWIC20106-592760000036SEAMLESS CONTROL, LLC         GGPO
TXBWIC20106-649800000011SEAMLESS CONTROL, LLC         GGPO
TXBWIC20106-870730002475SEAMLESS CONTROL, LLC         GGPO
TXBWIC20107-269300000828SEAMLESS CONTROL, LLC         GGPO
TXBWIC20107-296400000225SEAMLESS CONTROL, LLC         GGPO
TXBWIC20107-322210000445SEAMLESS CONTROL, LLC         GGPO
TXBWIC20107-423840000080SEAMLESS CONTROL, LLC         GGPO
TXBWIC20107-522890001187SEAMLESS CONTROL, LLC         GGPO
TXBWIC20107-591880000007SEAMLESS CONTROL, LLC         GGPO
TXBWIC20107-689800000030SEAMLESS CONTROL, LLC         GGPO
TXBWIC20107-865410000025SEAMLESS CONTROL, LLC         GGPO
TXBWIC20108-141740000036SEAMLESS CONTROL, LLC         GGPO
TXBWIC20108-164030000136SEAMLESS CONTROL, LLC         GGPO
TXBWIC20108-506950000102SEAMLESS CONTROL, LLC         GGPO
TXBWIC20108-744800000169SEAMLESS CONTROL, LLC         GGPO
TXBWIC20100-708050001140SHAFER SEED COMPANY           GGPO
TXBWIC20107-768960075065SHAFER SEED COMPANY           GGPO
TXBWIC20100-726930000093SKYHAWK CHEMICALS, INC        GGPO
TXBWIC20107-322210000322SKYHAWK CHEMICALS, INC        GGPO
TXBWIC20107-203430000687SOLO, INCORPORATED            GGPO
TXBWIC20100-425790000148SOUTHERN AG INSECTICIDES      GGPO
TXBWIC20107-256090002368SOUTHERN OUTDOOR TECHNOLOGIES GGPO
TXBWIC20100-718980031513SPECIALTY FEEDS INC           GGPO
TXBWIC20100-112470000085STONECASTER, LLC              GGPO
TXBWIC20100-185060012348SUMMIT CHEMICAL COMPANY       GGPO
TXBWIC20102-001850003429SUMMIT CHEMICAL COMPANY       GGPO
TXBWIC20108-642090004483SURECAN, INC.                 GGPO
TXBWIC20100-786270003498SWAN PRODUCTS, LLC            GGPO
TXBWIC20106-870730000652SWAN PRODUCTS, LLC            GGPO
TXBWIC20100-537440000106SWEETLIX LLC                  GGPO
TXBWIC20100-400250000264SYNGENTA CROP PROTECTION, LLC GGPO
TXBWIC20100-501970000012SYNGENTA CROP PROTECTION, LLC GGPO
TXBWIC20107-322210000171SYNGENTA CROP PROTECTION, LLC GGPO
TXBWIC20100-238830000033SYNGENTA PCS                  GGPO
TXBWIC20100-322470000013SYNGENTA PCS                  GGPO
TXBWIC20100-333490000060SYNGENTA PCS                  GGPO
TXBWIC20100-425790000023SYNGENTA PCS                  GGPO
TXBWIC20100-726930004335SYNGENTA PCS                  GGPO
TXBWIC20106-510820000140SYNGENTA PCS                  GGPO
TXBWIC20107-322210000835SYNGENTA PCS                  GGPO
TXBWIC20100-425790000132T.O. PLASTICS, INC.           GGPO
TXBWIC20100-437920000508T.O. PLASTICS, INC.           GGPO
TXBWIC20100-238830001324TARTER                        GGPO
TXBWIC20100-322210002159TARTER                        GGPO
TXBWIC20100-425790000133TARTER                        GGPO
TXBWIC20100-726930000619TARTER                        GGPO
TXBWIC20107-256090000057TARTER                        GGPO
TXBWIC20107-296400000151TARTER                        GGPO
TXBWIC20107-322210000042TARTER                        GGPO
TXBWIC20107-591880000012TARTER                        GGPO
TXBWIC20107-689800000077TARTER                        GGPO
TXBWIC20100-238830000081TAYLOR ENVIRONMENTAL INST     GGPO
TXBWIC20100-726930000300TAYLOR ENVIRONMENTAL INST     GGPO
TXBWIC20106-902470000035TENNESSEE FARMERS COOPERATIVE GGPO
TXBWIC20100-537440002231TEXAS BASKET COMPANY          GGPO
TXBWIC20100-364340022180THE DRAMM COMPANY-RETAIL      GGPO
TXBWIC20100-400250000066THE DRAMM COMPANY-RETAIL      GGPO
TXBWIC20101-003640005756THE DRAMM COMPANY-RETAIL      GGPO
TXBWIC20100-238830000075THE ESPOMA COMPANY            GGPO
TXBWIC20100-322470000026THE ESPOMA COMPANY            GGPO
TXBWIC20100-364340000053THE ESPOMA COMPANY            GGPO
TXBWIC20100-383130000013THE ESPOMA COMPANY            GGPO
TXBWIC20100-400250000066THE ESPOMA COMPANY            GGPO
TXBWIC20100-425790000858THE ESPOMA COMPANY            GGPO
TXBWIC20100-437920000024THE ESPOMA COMPANY            GGPO
TXBWIC20100-501970031669THE ESPOMA COMPANY            GGPO
TXBWIC20100-701830000124THE ESPOMA COMPANY            GGPO
TXBWIC20107-191950000110THE ESPOMA COMPANY            GGPO
TXBWIC20107-269300000049THE ESPOMA COMPANY            GGPO
TXBWIC20107-322210000007THE ESPOMA COMPANY            GGPO
TXBWIC20107-356130000205THE ESPOMA COMPANY            GGPO
TXBWIC20107-522890000631THE ESPOMA COMPANY            GGPO
TXBWIC20107-865410000090THE ESPOMA COMPANY            GGPO
TXBWIC20108-506950000012THE ESPOMA COMPANY            GGPO
TXBWIC20108-744800000036THE ESPOMA COMPANY            GGPO
TXBWIC20100-221790000016THE HC COMPANIES INC          GGPO
TXBWIC20100-236260000044THE HC COMPANIES INC          GGPO
TXBWIC20100-238830000887THE HC COMPANIES INC          GGPO
TXBWIC20100-322210000094THE HC COMPANIES INC          GGPO
TXBWIC20100-322470000122THE HC COMPANIES INC          GGPO
TXBWIC20100-329030000213THE HC COMPANIES INC          GGPO
TXBWIC20100-346130000118THE HC COMPANIES INC          GGPO
TXBWIC20100-364340000053THE HC COMPANIES INC          GGPO
TXBWIC20100-373210000473THE HC COMPANIES INC          GGPO
TXBWIC20100-422060000014THE HC COMPANIES INC          GGPO
TXBWIC20100-527320000243THE HC COMPANIES INC          GGPO
TXBWIC20100-537440000216THE HC COMPANIES INC          GGPO
TXBWIC20100-664980000015THE HC COMPANIES INC          GGPO
TXBWIC20100-715490000104THE HC COMPANIES INC          GGPO
TXBWIC20100-726930003219THE HC COMPANIES INC          GGPO
TXBWIC20100-735610000176THE HC COMPANIES INC          GGPO
TXBWIC20100-843690000195THE HC COMPANIES INC          GGPO
TXBWIC20106-300880000013THE HC COMPANIES INC          GGPO
TXBWIC20107-269320000061THE HC COMPANIES INC          GGPO
TXBWIC20107-296400000179THE HC COMPANIES INC          GGPO
TXBWIC20107-296410000017THE HC COMPANIES INC          GGPO
TXBWIC20107-322210000513THE HC COMPANIES INC          GGPO
TXBWIC20107-423840000151THE HC COMPANIES INC          GGPO
TXBWIC20107-522890000498THE HC COMPANIES INC          GGPO
TXBWIC20107-865410000076THE HC COMPANIES INC          GGPO
TXBWIC20107-896660000217THE HC COMPANIES INC          GGPO
TXBWIC20108-506950000076THE HC COMPANIES INC          GGPO
TXBWIC20108-642090000030THE HC COMPANIES INC          GGPO
TXBWIC20100-329030005404THE HC COMPANIES, INC         GGPO
TXBWIC20107-709320000772THE HC COMPANIES, INC         GGPO
TXBWIC20100-322240000139THE SCOTTS COMPANY-RETAIL DIV GGPO
TXBWIC20100-322470034738THE SCOTTS COMPANY-RETAIL DIV GGPO
TXBWIC20100-368650000672THE SCOTTS COMPANY-RETAIL DIV GGPO
TXBWIC20100-425790000627THE SCOTTS COMPANY-RETAIL DIV GGPO
TXBWIC20100-487450000096THE SCOTTS COMPANY-RETAIL DIV GGPO
TXBWIC20100-701830002835THE SCOTTS COMPANY-RETAIL DIV GGPO
TXBWIC20100-714590002391THE SCOTTS COMPANY-RETAIL DIV GGPO
TXBWIC20100-715490008233THE SCOTTS COMPANY-RETAIL DIV GGPO
TXBWIC20100-735610013607THE SCOTTS COMPANY-RETAIL DIV GGPO
TXBWIC20103-224780000540THE SCOTTS COMPANY-RETAIL DIV GGPO
TXBWIC20107-154900000952THE SCOTTS COMPANY-RETAIL DIV GGPO
TXBWIC20107-256090000115THE SCOTTS COMPANY-RETAIL DIV GGPO
TXBWIC20107-356100001849THE SCOTTS COMPANY-RETAIL DIV GGPO
TXBWIC20107-356130000131THE SCOTTS COMPANY-RETAIL DIV GGPO
TXBWIC20107-865410000084THE SCOTTS COMPANY-RETAIL DIV GGPO
TXBWIC20108-886030003911THE SCOTTS COMPANY-RETAIL DIV GGPO
TXBWIC20100-329030000072TINGLEY RUBBER CORP           GGPO
TXBWIC20100-425790000100TINGLEY RUBBER CORP           GGPO
TXBWIC20100-843690000095TINGLEY RUBBER CORP           GGPO
TXBWIC20108-744800000021TINGLEY RUBBER CORP           GGPO
TXBWIC20107-256090000115TRAYLOR FARMS                 GGPO
TXBWIC20107-768960000600TRAYLOR FARMS                 GGPO
TXBWIC20108-744800000217TRAYLOR FARMS                 GGPO
TXBWIC20100-725320000046TURF CARE SUPPLY CORPORATION  GGPO
TXBWIC20100-322210000118TWO OLD GOATS, LLC            GGPO
TXBWIC20107-191950000332TWO OLD GOATS, LLC            GGPO
TXBWIC20100-114230008596UNITED INDUSTRIES             GGPO
TXBWIC20100-711210005213UNITED INDUSTRIES             GGPO
TXBWIC20100-745140000280UNITED INDUSTRIES             GGPO
TXBWIC20101-142300000698UNITED INDUSTRIES             GGPO
TXBWIC20106-511240002558UNITED INDUSTRIES             GGPO
TXBWIC20108-582970000084UNITED INDUSTRIES             GGPO
TXBWIC20100-322210000052VALHOMA CORPORATION           GGPO
TXBWIC20100-726930000976VALHOMA CORPORATION           GGPO
TXBWIC20106-624980000029VALHOMA CORPORATION           GGPO
TXBWIC20107-322210000121VALHOMA CORPORATION           GGPO
TXBWIC20107-427860000374VALHOMA CORPORATION           GGPO
TXBWIC20108-144850008973VALLEY INDUSTRIES             GGPO
TXBWIC20108-148500002485VALLEY INDUSTRIES             GGPO
TXBWIC20108-164030003441VALLEY INDUSTRIES             GGPO
TXBWIC20100-353070000525VERTPAC,LLC                   GGPO
TXBWIC20100-364340000198VERY COOL STUFF               GGPO
TXBWIC20100-428530000066VERY COOL STUFF               GGPO
TXBWIC20100-537440000035VERY COOL STUFF               GGPO
TXBWIC20100-726930000144VERY COOL STUFF               GGPO
TXBWIC20100-843690000028VERY COOL STUFF               GGPO
TXBWIC20100-886850000037VERY COOL STUFF               GGPO
TXBWIC20106-592760000019VERY COOL STUFF               GGPO
TXBWIC20106-624980000049VERY COOL STUFF               GGPO
TXBWIC20106-870730000339VERY COOL STUFF               GGPO
TXBWIC20107-322210000082VERY COOL STUFF               GGPO
TXBWIC20107-522890000399VERY COOL STUFF               GGPO
TXBWIC20107-689800000066VERY COOL STUFF               GGPO
TXBWIC20107-865410000429VERY COOL STUFF               GGPO
TXBWIC20100-322210168288VOLUNTARY PURCHASING          GGPO
TXBWIC20100-353070000404VOLUNTARY PURCHASING          GGPO
TXBWIC20100-400250000165VOLUNTARY PURCHASING          GGPO
TXBWIC20100-425790000107VOLUNTARY PURCHASING          GGPO
TXBWIC20100-726930000183VOLUNTARY PURCHASING          GGPO
TXBWIC20100-732220000036VOLUNTARY PURCHASING          GGPO
TXBWIC20102-073220006159VOLUNTARY PURCHASING          GGPO
TXBWIC20107-154900000153VOLUNTARY PURCHASING          GGPO
TXBWIC20107-296400000179VOLUNTARY PURCHASING          GGPO
TXBWIC20107-322210695046VOLUNTARY PURCHASING          GGPO
TXBWIC20107-322240002522VOLUNTARY PURCHASING          GGPO
TXBWIC20107-689800001966VOLUNTARY PURCHASING          GGPO
TXBWIC20100-415350080767WELLMARK INTERNATIONAL        GGPO
TXBWIC20100-503490019940WESTERN PULP PROD             GGPO
TXBWIC20102-005030013275WESTERN PULP PROD             GGPO
TXBWIC20100-992840000480WILLIAMSON GREENHOUSES        GGPO
TXBWIC20100-007090000054WOODSTREAM CORPORATION        GGPO
TXBWIC20100-246540000022WOODSTREAM CORPORATION        GGPO
TXBWIC20100-363480000336WOODSTREAM CORPORATION        GGPO
TXBWIC20100-709230000791WOODSTREAM CORPORATION        GGPO
TXBWIC20100-710920000126WOODSTREAM CORPORATION        GGPO
TXBWIC20100-728680008001WOODSTREAM CORPORATION        GGPO
TXBWIC20100-776250000984WOODSTREAM CORPORATION        GGPO
TXBWIC20100-789780002511WOODSTREAM CORPORATION        GGPO
