TXBWIC21050-00402-00000-00003206D0144609D0307800403          GGSL
TXBWIC21050-00402-01012-60000071D0007375D00449000141012      GGSL
TXBWIC21050-00402-01014-00000718D0053027D01196002421014      GGSL
TXBWIC21050-00402-01492-60000011D0000032D000570000014SSB     GGSL
TXBWIC21050-00402-01499-50000073D0000365D004940000014SS      GGSL
TXBWIC21050-00402-02117-70000025D0000130D0000000000B117      GGSL
TXBWIC21050-00402-02419-20000049D0001097D000620000210XS-20   GGSL
TXBWIC21050-00402-02699-50000260D0000281D008400004010XS-20B  GGSL
TXBWIC21050-00402-02750-60000750D0003370D0040000100B75       GGSL
TXBWIC21050-00402-05418-20000100D0000305D00600000255418      GGSL
TXBWIC21050-00402-10142-80000789D0057718D009180014710145B    GGSL
TXBWIC21050-00402-10147-30000025D0001868D00112000001014 G    GGSL
TXBWIC21050-00402-11730-60000225D0000908D003000000011730     GGSL
TXBWIC21050-00402-14319-00000025D0000085D000740000114CS      GGSL
TXBWIC21050-00402-14560-60000036D0000097D000330000014EP      GGSL
TXBWIC21050-00402-33117-70000475D0000166D0170000025PC11-7    GGSL
TXBWIC21050-00402-33354-60000875D0000109D0652500275PC5-4     GGSL
TXBWIC21050-00402-33375-10003250D0000611D0312501300PC7-5     GGSL
TXBWIC21050-00402-41819-90000014D0000131D001820003014TRS     GGSL
TXBWIC21050-00402-44117-30000500D0000210D0000000000PLCD 11-7 GGSL
TXBWIC21050-00402-44475-40000075D0000026D0000000000PLCD 7-5  GGSL
TXBWIC21050-00772-06030-10000006D0000040D00000000006030      GGSL
TXBWIC21050-00772-06038-70000001D0000040D00000000006038      GGSL
TXBWIC21050-00772-06060-80000044D0000193D00000000006060      GGSL
TXBWIC21050-00772-06062-20000044D0000193D00000000006062      GGSL
TXBWIC21050-00772-06090-50000100C0000193C00000000006090      GGSL
TXBWIC21050-00772-06091-20000005D0000130D00000000006091      GGSL
TXBWIC21050-00772-06092-90000005D0000100D00000000006092      GGSL
TXBWIC21050-00772-06093-60000005D0000100D00000000006093      GGSL
TXBWIC21050-00772-06281-70000060D0000330D00000000006281      GGSL
TXBWIC21050-00772-06282-40000060D0000330D00000000006282      GGSL
TXBWIC21050-00772-06335-70000006D0000043D00000000006335      GGSL
TXBWIC21050-00772-06337-10000005D0000150D00000000006337      GGSL
TXBWIC21050-00772-06338-80000005D0000150D00000000006338      GGSL
TXBWIC21050-00772-06346-30000042D0000301D00000000006346      GGSL
TXBWIC21050-00772-06644-00000005D0000000D00000000006644      GGSL
TXBWIC21050-00772-06683-90000006D0000050D00000000006683      GGSL
TXBWIC21050-00772-06685-30000006D0000066D00000000006685      GGSL
TXBWIC21050-00772-06693-80000004D0000059D00000000006693      GGSL
TXBWIC21050-00772-06694-50000004D0000059D00000000006694      GGSL
TXBWIC21050-00772-06702-70000038D0000314D00000000006702      GGSL
TXBWIC21050-00772-06703-40000009D0000356D00000000006703      GGSL
TXBWIC21050-00772-06704-10000009D0000356D00000000006704      GGSL
TXBWIC21050-00772-06705-80000030D0000150D00000000006705      GGSL
TXBWIC21050-00772-06709-60000006D0000040D00000000006709      GGSL
TXBWIC21050-00772-06710-20000060D0000430D00000000006710      GGSL
TXBWIC21050-00772-06712-60000060D0000430D00000000006712      GGSL
TXBWIC21050-00772-06714-00000005D0000330D00000000006714      GGSL
TXBWIC21050-00772-06715-70000005D0000330D00000000006715      GGSL
TXBWIC21050-00772-06723-20000009D0000387D00000000006723      GGSL
TXBWIC21050-00772-06724-90000080C0000387C00000000006724      GGSL
TXBWIC21050-00772-06725-60000009D0000387D00000000006725      GGSL
TXBWIC21050-00772-06740-90000030D0000150D00000000006740      GGSL
TXBWIC21050-00772-06744-70000022D0000424D00000000006744      GGSL
TXBWIC21050-02800-91501-30000150D0000692D00000000001501      GGSL
TXBWIC21050-10367-00110-70000558D0003716D0015601068110       GGSL
TXBWIC21050-10367-00130-50000051D0002303D0000100050130.0     GGSL
TXBWIC21050-10367-00460-30000040D0000195D0020800008ML0460 8  GGSL
TXBWIC21050-10367-00530-30000002D0000079D0000000000530.0     GGSL
TXBWIC21050-10367-00560-00000104D0000346D0010400040ML0560 8  GGSL
TXBWIC21050-10367-00810-60000156D0000702D0000000252ML0810    GGSL
TXBWIC21050-10367-01020-80000012D0000177D0000000000ML1020    GGSL
TXBWIC21050-10367-01050-50000024D0000270D0000000000ML1050    GGSL
TXBWIC21050-10367-01112-00000016D0000051D00016000001112.0    GGSL
TXBWIC21050-10367-01120-50000048D0000134D00000000001120.0    GGSL
TXBWIC21050-10367-01240-00000012D0000071D00000000001240.0    GGSL
TXBWIC21050-11247-00250-40000025D0000850D001580000000640     GGSL
TXBWIC21050-11247-00911-40000005D0000221D000000000700911     GGSL
TXBWIC21050-11247-01050-90000038D0000376D001490000001050     GGSL
TXBWIC21050-11247-01541-20000004D0000145D000280000001541     GGSL
TXBWIC21050-11247-01841-30000001D0000033D000000000001841     GGSL
TXBWIC21050-11247-03111-50000087D0002700D003740001903111     GGSL
TXBWIC21050-11247-04525-90000054D0001304D003140000204525     GGSL
TXBWIC21050-11247-05350-60000018D0000869D000560000005350     GGSL
TXBWIC21050-11247-05450-30000047D0001923D000970005005450     GGSL
TXBWIC21050-11247-06239-30000040D0001716D000010000006239     GGSL
TXBWIC21050-11247-11024-70000072D0000383D000000000011024     GGSL
TXBWIC21050-11247-13010-80000012D0000039D000660000013010     GGSL
TXBWIC21050-11247-16004-20000108D0000675D002820001816004     GGSL
TXBWIC21050-11247-16040-20000005D0000161D000000000016040     GGSL
TXBWIC21050-11247-20040-50000012D0000091D000000000020040     GGSL
TXBWIC21050-11247-30004-40000360D0002462D000840010230004     GGSL
TXBWIC21050-11247-48024-10000024D0000120D000120000048020     GGSL
TXBWIC21050-11247-52813-40000016D0000241D000940000052813     GGSL
TXBWIC21050-11247-52825-70000012D0000202D002280000052825     GGSL
TXBWIC21050-11247-52829-50000018D0000182D000600001252829     GGSL
TXBWIC21050-11247-52830-10000006D0000241D000080000052830     GGSL
TXBWIC21050-11247-52851-60000008D0000175D000000000052851     GGSL
TXBWIC21050-11247-52880-60000012D0000064D000000000052880     GGSL
TXBWIC21050-11247-52888-20000153D0000809D005040000652888     GGSL
TXBWIC21050-11247-52889-90000163D0002076D006910001152889     GGSL
TXBWIC21050-11247-60116-50000014D0000148D001590001260116     GGSL
TXBWIC21050-11247-61024-20000480D0002997D009810022861024     GGSL
TXBWIC21050-11247-71016-40000252D0001932D000240004871001     GGSL
TXBWIC21050-11247-71128-40000032D0000561D000000000071128     GGSL
TXBWIC21050-11247-71250-20000014D0000605D000000000071250     GGSL
TXBWIC21050-11247-90128-90000028D0000254D000160002090128     GGSL
TXBWIC21050-11423-00338-70000618D0003354D0031200096HG-33801  GGSL
TXBWIC21050-11423-94108-50000048D0000465D0011400000HG-94108  GGSL
TXBWIC21050-11423-94127-60000162D0000762D0030200024HG-64127  GGSL
TXBWIC21050-14021-00222-60000001D0000053D00000000007000      GGSL
TXBWIC21050-14021-01037-50000001D0000064D00000000006000      GGSL
TXBWIC21050-14021-10118-90000001D0000079D00000000003020      GGSL
TXBWIC21050-15966-49430-10000024D0000358D000010000049 00 430 GGSL
TXBWIC21050-16069-00005-90000075D0000445D0027900012TP-15C    GGSL
TXBWIC21050-16069-00007-30000252D0001513D0015900012BN-1      GGSL
TXBWIC21050-16069-00008-00000606D0003603D0086100270BN-2      GGSL
TXBWIC21050-16069-00013-40000078D0001867D0007200000BN-3      GGSL
TXBWIC21050-16069-00014-10000042D0000748D0003600000BN-4      GGSL
TXBWIC21050-16069-00015-80000028D0000678D0004600006BN-5      GGSL
TXBWIC21050-16069-00030-10000184D0002104D0010600018OW-6      GGSL
TXBWIC21050-16069-00032-50000060D0000487D0000000000HG-25     GGSL
TXBWIC21050-16069-00049-30000046D0000732D0012400006DX-7      GGSL
TXBWIC21050-16069-00218-30000024D0000115D0001200000HST-100   GGSL
TXBWIC21050-16069-00549-80000003D0000545D0000400006TN-SFG    GGSL
TXBWIC21050-16069-00667-90000191D0003770D0009600340RHO-4US   GGSL
TXBWIC21050-18506-00000-00001630D0023363D01035001400111-5    GGSL
TXBWIC21050-18506-00010-30000104D0000744D0031500252010-6     GGSL
TXBWIC21050-18506-00021-90000108D0001508D0017700018021-6     GGSL
TXBWIC21050-18506-00102-50000504D0002009D0042300252102-12    GGSL
TXBWIC21050-18506-00110-50002454D0015932D0011200999110-12    GGSL
TXBWIC21050-18506-00116-20000915D0005614D0006000594116-12    GGSL
TXBWIC21050-18506-00117-90000624D0005917D0027000552117-6     GGSL
TXBWIC21050-18506-00125-40000192D0000898D0118800024125       GGSL
TXBWIC21050-18506-00130-80000096D0000545D0012000048130       GGSL
TXBWIC21050-22179-10035-00000026D0001291D0008100003LG4110    GGSL
TXBWIC21050-22179-10084-80000198D0001541D0000000084LG7220    GGSL
TXBWIC21050-22179-10090-90000015D0000393D0000000000LG4300    GGSL
TXBWIC21050-22179-10108-10000012D0000089D0000000000LG7265    GGSL
TXBWIC21050-22179-10109-80000162D0002150D0000000006lg 5146   GGSL
TXBWIC21050-22179-10115-90000259D0004128D0016400000lg 5599   GGSL
TXBWIC21050-22179-10124-10000372D0001954D0011400078LG6515    GGSL
TXBWIC21050-22179-10139-50000033D0000167D0114600012LG1130    GGSL
TXBWIC21050-22179-10140-10000046D0005254D0000800001LG6520    GGSL
TXBWIC21050-22179-10150-00000156D0001588D00060004687115      GGSL
TXBWIC21050-22179-10151-70000066D0002714D00034000087117      GGSL
TXBWIC21050-22179-10167-80000030D0000426D0000600000lg 6127   GGSL
TXBWIC21050-22179-10185-20000318D0003283D0026500012LG6500    GGSL
TXBWIC21050-22179-10239-20000008D0000600D0000000000LG6155    GGSL
TXBWIC21050-22179-10246-00000612D0009025D0101700378LG6570    GGSL
TXBWIC21050-22179-10247-70000136D0002801D00187002517122      GGSL
TXBWIC21050-22179-10248-40000420D0003560D0041400063LG6575    GGSL
TXBWIC21050-22179-10257-60000036D0000515D0000000000LG3190    GGSL
TXBWIC21050-22179-10266-80000024D0000354D0001200000LG6145    GGSL
TXBWIC21050-22179-10378-80000222D0001508D0003600006lg6274    GGSL
TXBWIC21050-22179-10390-00000108D0000956D0016200348LG6332    GGSL
TXBWIC21050-22179-10391-70000036D0000517D0000000000LG6336    GGSL
TXBWIC21050-22179-10395-50000022D0000639D0000600001LG6356    GGSL
TXBWIC21050-22179-10399-30000084D0000467D0044400168LG7198    GGSL
TXBWIC21050-22179-10408-20000348D0002745D0012900480LG 6338   GGSL
TXBWIC21050-22179-10429-70000492D0007253D0027600312LG6334    GGSL
TXBWIC21050-22179-10443-30000012D0000140D0000000000LG3370    GGSL
TXBWIC21050-22179-10454-90000036D0000347D0002700192lg 3303   GGSL
TXBWIC21050-22179-10458-70000051D0000463D0024000012lg 3234   GGSL
TXBWIC21050-22179-10517-10000042D0000832D0000000000lg 3176   GGSL
TXBWIC21050-22179-10519-50000030D0000415D0000000000lg 6544   GGSL
TXBWIC21050-22179-10520-10000084D0000610D0001800000lg 6542   GGSL
TXBWIC21050-22179-10529-40000180D0001246D0022000300lg 7350   GGSL
TXBWIC21050-22401-00115-80000313D0014103D0016900084MDC-15    GGSL
TXBWIC21050-22401-00301-50000056D0000620D0001000006THD-20    GGSL
TXBWIC21050-22401-00380-10000024D0000324D0056800212NDETC-20MCGGSL
TXBWIC21050-22401-00381-70000008D0000108D0008400120NDETC-2OLBGGSL
TXBWIC21050-22401-00510-10000050D0000290D0005000050SK-B      GGSL
TXBWIC21050-22401-00721-10000159D0009004D0000000000DBR-20    GGSL
TXBWIC21050-23626-00605-80001120D0012706D0541500256116334    GGSL
TXBWIC21050-23626-00615-70001188D0012701D0728400031116336    GGSL
TXBWIC21050-23626-00630-00000464D0006188D0159500088116341    GGSL
TXBWIC21050-23626-00650-80000060D0000187D0060600000000600    GGSL
TXBWIC21050-23626-00860-10000028D0000248D0000000000116348    GGSL
TXBWIC21050-23626-01710-80000117D0000606D0052200006000800    GGSL
TXBWIC21050-23626-01720-70000108D0000729D0042600000000900    GGSL
TXBWIC21050-23626-02830-20000003D0000119D0001500000116841    GGSL
TXBWIC21050-23883-00001-10000700D0010954D0118400024G362      GGSL
TXBWIC21050-23883-00002-80000219D0000894D0044700066G385      GGSL
TXBWIC21050-23883-00003-50000408D0001625D0052200018G390      GGSL
TXBWIC21050-23883-01002-70000591D0004975D01002000141002      GGSL
TXBWIC21050-23883-05000-90000056D0000466D00281000135000      GGSL
TXBWIC21050-23883-08620-60000015D0002680D00016000018620B     GGSL
TXBWIC21050-23883-15710-40003165D0023962D207490095215710     GGSL
TXBWIC21050-23883-16100-20000180D0002115D007780001716100MP   GGSL
TXBWIC21050-23883-21210-00000006D0000258D000980000121210XP   GGSL
TXBWIC21050-23883-26011-80000136D0003760D002180000326011XP   GGSL
TXBWIC21050-23883-26021-70000461D0012374D013150001826021XP   GGSL
TXBWIC21050-23883-26031-60000052D0002087D002160000026031XP   GGSL
TXBWIC21050-23883-27010-00000088D0001790D002980000027010     GGSL
TXBWIC21050-23883-27020-90000277D0005977D008160001027020     GGSL
TXBWIC21050-23883-27030-80000101D0002557D003170000327030     GGSL
TXBWIC21050-23883-60100-30000186D0009101D004650003060100     GGSL
TXBWIC21050-23883-61800-10000026D0001522D000310000061800     GGSL
TXBWIC21050-23883-61925-10000006D0000058D00033000006-1925    GGSL
TXBWIC21050-23883-63924-20000017D0002772D000910000163924     GGSL
TXBWIC21050-23883-64601-10000002D0000026D00007000006-4601    GGSL
TXBWIC21050-23883-66000-00000017D0000094D00002000006-6000    GGSL
TXBWIC21050-23883-66002-40000005D0000025D00004000006-6002    GGSL
TXBWIC21050-23883-68060-20000001D0000016D00002000036-8060    GGSL
TXBWIC21050-23883-68061-90000002D0000045D00017000006-8061    GGSL
TXBWIC21050-23883-68238-50000165C0000045C00004000006-8238    GGSL
TXBWIC21050-23883-80000-00000017D0000567D00018000068000A     GGSL
TXBWIC21050-23883-81000-90000004D0000467D000030000081000A    GGSL
TXBWIC21050-23883-84000-60000006D0000411D00000001408701B     GGSL
TXBWIC21050-23883-84600-80000030D0000828D005800000084700A    GGSL
TXBWIC21050-23883-97100-70000002D0003109D000220000297100     GGSL
TXBWIC21050-23883-97361-20000162C0000070C000000000097361     GGSL
TXBWIC21050-23883-97561-60000011D0002110D000170000697561     GGSL
TXBWIC21050-24654-05962-70000036D0000420D00006000005962      GGSL
TXBWIC21050-24654-55110-70000318D0001568D00294000785110-6    GGSL
TXBWIC21050-24654-55118-30000174D0001259D00961001385118.0    GGSL
TXBWIC21050-24654-65452-50000006D0000029D00000000005452-6    GGSL
TXBWIC21050-25033-12013-60000001D0000063D000020000012013     GGSL
TXBWIC21050-26455-91350-40000011D0000648D001100001070805-001-GGSL
TXBWIC21050-26978-30301-10000885D0005423D005970045830301     GGSL
TXBWIC21050-26978-30413-10000010C0005423C000000000030413     GGSL
TXBWIC21050-26978-30500-80000010D0000045D000000000030500     GGSL
TXBWIC21050-26978-30702-60000006D0000023D000000000030702     GGSL
TXBWIC21050-26978-30806-10000001D0000024D000000000030806     GGSL
TXBWIC21050-26978-39186-50000001D0000058D000000000039186     GGSL
TXBWIC21050-28009-11225-80002766D0015064D01232020641225.0    GGSL
TXBWIC21050-28009-11227-20000012D0000040D00000000001227.0    GGSL
TXBWIC21050-28009-11250-00002231D0017319D01320040331250.0    GGSL
TXBWIC21050-28009-11420-70000220D0001194D00000000001420P     GGSL
TXBWIC21050-28009-11440-50000461D0004032D00207000021440P     GGSL
TXBWIC21050-28009-11622-50000050D0000452D00000000001622      GGSL
TXBWIC21050-28009-11640-90000300D0001930D00000003601640      GGSL
TXBWIC21050-28009-11925-70000855C0001930C00065000001925      GGSL
TXBWIC21050-28009-15240-70000774D0004024D00306000615240.0    GGSL
TXBWIC21050-28009-15440-10001320D0004474D00000000005440.0    GGSL
TXBWIC21050-28009-15440-30000060D0000493D00060000001840      GGSL
TXBWIC21050-28009-15450-00000164D0000993D00333000005450.0    GGSL
TXBWIC21050-28009-15540-80003577D0011813D01498000855540.0    GGSL
TXBWIC21050-28009-15720-40000180D0000557D00285003755720.0    GGSL
TXBWIC21050-28009-15740-20000600D0003012D00000000135740.0    GGSL
TXBWIC21050-30541-00067-20000030D0000304D0001800000JCD-100FGPGGSL
TXBWIC21050-30541-01020-60000192D0000451D0000000000JCD-024SM GGSL
TXBWIC21050-30541-01030-50000054D0000464D0007800000JCD-100SMJGGSL
TXBWIC21050-30541-01034-30000033D0000728D0000700006JCD-030SM GGSL
TXBWIC21050-30541-08878-60000048D0000162D0000000000SMMS      GGSL
TXBWIC21050-30541-09982-90000072D0000186D0088800000JCD-TPP03 GGSL
TXBWIC21050-30641-32937-60000018D0000029D0000000000RPDQ      GGSL
TXBWIC21050-32247-00900-30000186D0000530D00924000181009001   GGSL
TXBWIC21050-32247-00910-20000018D0000047D00186000001009101   GGSL
TXBWIC21050-32247-00950-80000120D0000329D00192000001009501   GGSL
TXBWIC21050-32247-03115-80000035D0002183D000370000031115     GGSL
TXBWIC21050-32247-03313-80000506D0011617D00429000203313B     GGSL
TXBWIC21050-32247-03594-10002161D0012739D007190000970359430  GGSL
TXBWIC21050-32247-05514-70013742D0051662D056540006670551430  GGSL
TXBWIC21050-32247-10500-20000396D0003269D0054000168110500    GGSL
TXBWIC21050-32247-11307-60007399D0014482D066490092171130756  GGSL
TXBWIC21050-32247-14902-00000024D0000334D000280000014902     GGSL
TXBWIC21050-32247-14905-10001264D0008236D001920000014905     GGSL
TXBWIC21050-32247-15307-20000490D0001002D002900000071530751  GGSL
TXBWIC21050-32247-17183-00000258D0002077D001080000017183     GGSL
TXBWIC21050-32247-17185-40000584D0010752D000480000017185     GGSL
TXBWIC21050-32247-17187-80000629D0027861D000020000017187     GGSL
TXBWIC21050-32247-17290-50000360D0003206D000420000617290     GGSL
TXBWIC21050-32247-17293-60000576D0004960D000060000017293     GGSL
TXBWIC21050-32247-17295-00000148D0002986D000080000017295     GGSL
TXBWIC21050-32247-17323-00000078D0000623D000900000017323     GGSL
TXBWIC21050-32247-17325-40000172D0002896D000280000017325     GGSL
TXBWIC21050-32247-17327-80000452D0015968D000230000017327     GGSL
TXBWIC21050-32247-17432-90000012D0000512D000180000017504     GGSL
TXBWIC21050-32247-17488-60000016D0000390D000000000417590     GGSL
TXBWIC21050-32247-17508-10000066D0000775D000840000017508     GGSL
TXBWIC21050-32247-17511-10000018D0000217D000120000017511     GGSL
TXBWIC21050-32247-17528-90000020D0000512D000000000017540     GGSL
TXBWIC21050-32247-17582-10000246D0002866D000000001217582     GGSL
TXBWIC21050-32247-18221-80000024D0000538D001120000018221     GGSL
TXBWIC21050-32247-18222-50000354C0000538C000230000018222     GGSL
TXBWIC21050-32247-18225-60000066D0000725D001320000018225     GGSL
TXBWIC21050-32247-18251-50000012D0000349D000360000018251     GGSL
TXBWIC21050-32247-18260-70000012D0000116D000060000018260     GGSL
TXBWIC21050-32247-18266-90000210D0002323D001260000018266     GGSL
TXBWIC21050-32247-18269-00000004D0000113D000200000018269     GGSL
TXBWIC21050-32247-18272-00000024D0000132D000530000618272     GGSL
TXBWIC21050-32247-18296-60000018D0000209D000240000018296     GGSL
TXBWIC21050-32247-18320-80000036D0000326D000180000018320     GGSL
TXBWIC21050-32247-18338-30000006D0000056D000000000018338     GGSL
TXBWIC21050-32247-18341-30000008D0000162D000000000018341     GGSL
TXBWIC21050-32247-18345-10000006D0000069D000000000018345     GGSL
TXBWIC21050-32247-18346-80000032D0000579D000400000018346     GGSL
TXBWIC21050-32247-18350-50000660D0004151D013200003018350     GGSL
TXBWIC21050-32247-18353-60000533D0011761D002690000118353     GGSL
TXBWIC21050-32247-18354-30000030D0000373D000180000018354     GGSL
TXBWIC21050-32247-18362-80000306D0009746D000000000618362     GGSL
TXBWIC21050-32247-18363-50000004D0000099D000000000018363     GGSL
TXBWIC21050-32247-18365-90000072D0001918D000000000018365     GGSL
TXBWIC21050-32247-19002-20000006D0000062D000000000019002     GGSL
TXBWIC21050-32247-19594-20000210D0001557D001390000471959430  GGSL
TXBWIC21050-32247-20784-30006402D0018369D016800030072078430  GGSL
TXBWIC21050-32247-20814-70000015D0000632D000200000021814     GGSL
TXBWIC21050-32247-21605-00000526D0008938D001010000321605     GGSL
TXBWIC21050-32247-21701-90000228D0001692D000000000021701     GGSL
TXBWIC21050-32247-22305-80000083D0001252D001430000022305     GGSL
TXBWIC21050-32247-22315-70000006D0000238D000100000022315     GGSL
TXBWIC21050-32247-23405-40000521D0007126D004150000023405B    GGSL
TXBWIC21050-32247-23410-80000005D0000194D000340000023410E    GGSL
TXBWIC21050-32247-23415-30000025D0000923D000200000023415     GGSL
TXBWIC21050-32247-24864-80000091D0000578D000000000072486430  GGSL
TXBWIC21050-32247-25006-10001676D0030311D007750000025006A    GGSL
TXBWIC21050-32247-25009-20000169D0009370D000020000425009     GGSL
TXBWIC21050-32247-26003-90000469D0010847D000540000026003D    GGSL
TXBWIC21050-32247-26007-70000437D0009691D002470000026007B    GGSL
TXBWIC21050-32247-26784-70000102D0000359D013560006672678430  GGSL
TXBWIC21050-32247-30073-50000012D0000175D000000000030073     GGSL
TXBWIC21050-32247-30156-50000716D0010457D000440008830156     GGSL
TXBWIC21050-32247-30177-00000202D0009277D000800000030177     GGSL
TXBWIC21050-32247-33020-60000022D0000760D000910000033020     GGSL
TXBWIC21050-32247-35594-00000780D0004430D000850001573559430  GGSL
TXBWIC21050-32247-35605-30000091D0001780D001930000144615A    GGSL
TXBWIC21050-32247-37594-80002847D0016595D026680010073759430  GGSL
TXBWIC21050-32247-37610-50000335D0007649D004980004037610A    GGSL
TXBWIC21050-32247-39594-60007997D0056072D025310001673959430  GGSL
TXBWIC21050-32247-42784-50005022D0014093D003780006674278430  GGSL
TXBWIC21050-32247-43850-60000080D0001755D00028000004385010   GGSL
TXBWIC21050-32247-43851-30000018D0000281D00030000004385106   GGSL
TXBWIC21050-32247-43854-40000004D0000043D00044000004385404   GGSL
TXBWIC21050-32247-43860-50000096D0001680D00028000004386004   GGSL
TXBWIC21050-32247-45651-70000096D0000825D004670000045651300  GGSL
TXBWIC21050-32247-47783-30000258D0000904D003840000074778300  GGSL
TXBWIC21050-32247-49019-10000044D0000539D001400000249019     GGSL
TXBWIC21050-32247-49024-50000019D0000226D000240000449024     GGSL
TXBWIC21050-32247-49785-50000360D0001141D014640000074978500  GGSL
TXBWIC21050-32247-50084-50000006D0000102D00024000005008410   GGSL
TXBWIC21050-32247-50086-90000036D0000591D00030000065008610   GGSL
TXBWIC21050-32247-50087-60000072D0001153D00072000005008710   GGSL
TXBWIC21050-32247-50088-30000024D0000400D00042000005008810   GGSL
TXBWIC21050-32247-50089-00000028D0000647D00116000005008910   GGSL
TXBWIC21050-32247-50154-50000091D0000710D000860000545015430  GGSL
TXBWIC21050-32247-50524-60023968D0150250D087740055975052430  GGSL
TXBWIC21050-32247-51105-60000779D0008943D005110000051105     GGSL
TXBWIC21050-32247-51115-50000230D0007190D001750000751115     GGSL
TXBWIC21050-32247-52524-40000162D0001688D000580000885252430  GGSL
TXBWIC21050-32247-52784-20004626D0013053D012300000085278430  GGSL
TXBWIC21050-32247-53105-40001229D0010043D001220000053105     GGSL
TXBWIC21050-32247-53115-30000509D0011216D001300000053115     GGSL
TXBWIC21050-32247-54105-30000006D0000035D00000000005410510   GGSL
TXBWIC21050-32247-55513-50003643D0026828D021190000075551300  GGSL
TXBWIC21050-32247-55523-40002927D0034849D026450006675552300  GGSL
TXBWIC21050-32247-55783-20000903D0005139D018070000075578300  GGSL
TXBWIC21050-32247-55863-10000011D0000080D006580001375586300  GGSL
TXBWIC21050-32247-56063-40000032D0000154D002400000045606300  GGSL
TXBWIC21050-32247-56513-40023117D0146338D129310088475651300  GGSL
TXBWIC21050-32247-56523-30064269D0648458D120950120775652300  GGSL
TXBWIC21050-32247-56783-10000057D0022356D000050000075678309  GGSL
TXBWIC21050-32247-56788-60004307D0015629D059340073275678300  GGSL
TXBWIC21050-32247-56863-00001989D0011513D019910001075686300  GGSL
TXBWIC21050-32247-57905-60000100D0000991D000000000057905     GGSL
TXBWIC21050-32247-60594-60001400D0008396D008160000076059430  GGSL
TXBWIC21050-32247-71060-20000434D0005598D004460010871060     GGSL
TXBWIC21050-32247-71131-90000248D0004199D002670000971131     GGSL
TXBWIC21050-32247-74150-70002568D0011791D0174000552274150    GGSL
TXBWIC21050-32247-74250-40000879D0007439D0011300398274250    GGSL
TXBWIC21050-32247-74395-20000060D0000443D000680000043959430  GGSL
TXBWIC21050-32247-74850-60000964D0015508D0122800132274850    GGSL
TXBWIC21050-32247-75902-10000038D0002968D000020001075902     GGSL
TXBWIC21050-32247-76121-50000358D0011002D001730001876121     GGSL
TXBWIC21050-32247-76232-80000099D0005442D000600000676232     GGSL
TXBWIC21050-32247-76565-70000021D0001154D000210000076565     GGSL
TXBWIC21050-32247-77160-30001716D0007424D0400800600277160    GGSL
TXBWIC21050-32247-77260-00001843D0015969D0346200594277260    GGSL
TXBWIC21050-32247-77960-90000732D0013451D0228000252277960    GGSL
TXBWIC21050-32247-95517-10000370D0001377D004620000079551750  GGSL
TXBWIC21050-32247-95597-30000096D0000411D000000000079559750  GGSL
TXBWIC21050-32247-99605-10000709D0013792D001310000099605     GGSL
TXBWIC21050-32903-00169-30000144D0000164D0004800072SLI06000E3GGSL
TXBWIC21050-32903-00203-40000012D0000726D0000400000TEA30000G2GGSL
TXBWIC21050-32903-00309-30000156D0000325D0054000024SLI10000E3GGSL
TXBWIC21050-32903-00341-30000042D0000339D0001800048SLI24000E3GGSL
TXBWIC21050-32903-00359-80000240D0000361D0002400000SLI08000E3GGSL
TXBWIC21050-32903-12006-60000384D0000623D0062400072LIA06000E3GGSL
TXBWIC21050-32903-12008-00000576D0001477D0072000048LIA08000E3GGSL
TXBWIC21050-32903-12010-30000300D0001195D0086400036LIA10000E3GGSL
TXBWIC21050-32903-12012-70000323D0001957D0020400012LIA12000E3GGSL
TXBWIC21050-32903-12014-10000252D0001968D0000000048LIA14000E3GGSL
TXBWIC21050-32903-12017-20000240D0002882D0001200012LIA16000E3GGSL
TXBWIC21050-32903-12020-20000078D0001220D0007800000LIA20000E3GGSL
TXBWIC21050-32903-12024-00000024D0000516D0001200018LIA24000E3GGSL
TXBWIC21050-32903-12318-00000036D0000139D0006000018SVN18000E3GGSL
TXBWIC21050-32903-12324-10000013D0000057D0001200012SVN24000E3GGSL
TXBWIC21050-32903-12714-00000216D0001207D0008400024GAB14000E3GGSL
TXBWIC21050-32903-12718-80000060D0000516D0002400024GAB18000E3GGSL
TXBWIC21050-32903-12722-50000072D0000972D0001200054GAB22000E3GGSL
TXBWIC21050-32903-12818-50000168D0001054D0006000060VNP18000E3GGSL
TXBWIC21050-32903-12824-60000144D0000997D0002400024VNP24000E3GGSL
TXBWIC21050-32903-22484-90000005D0000078D0000000000ROP28000E2GGSL
TXBWIC21050-32903-40770-90000006D0000030D0000000000VNP18000A3GGSL
TXBWIC21050-32903-43116-20000006D0000018D0000000000SVN18000A3GGSL
TXBWIC21050-32903-50763-80000240D0000845D0025200012SLI12000E3GGSL
TXBWIC21050-32903-50766-90000004D0000121D0000400000TEA24000G2GGSL
TXBWIC21050-32903-50802-40000120D0000455D0024600048SLI14000E3GGSL
TXBWIC21050-32903-72518-60000040D0000311D0002400040RZ.WC2G0B9GGSL
TXBWIC21050-32903-75049-20000054D0000344D0006000006SLI20000E3GGSL
TXBWIC21050-32903-75067-60000004D0000121D0000000000TEA24000A3GGSL
TXBWIC21050-32903-75080-50000108D0000462D0022800012SLI17000E3GGSL
TXBWIC21050-33607-00001-50000052D0001381D0000800000GBA-1     GGSL
TXBWIC21050-33607-00953-40000028D0000696D0015200000SP-33     GGSL
TXBWIC21050-34411-74501-40000012D0000252D0000000000874501-100GGSL
TXBWIC21050-34613-00002-70000093D0000739D0004100006LH002     GGSL
TXBWIC21050-34613-00003-40000068D0000970D0082700027LH003     GGSL
TXBWIC21050-34613-00005-80000004D0000054D0000800000LH005     GGSL
TXBWIC21050-34613-00022-50000013D0000133D0000000005LH022     GGSL
TXBWIC21050-34613-00029-40000007D0000089D00000000008205      GGSL
TXBWIC21050-34613-00060-70000001D0000075D0000600029TP60      GGSL
TXBWIC21050-34613-00068-30000012D0000091D000600004868WP      GGSL
TXBWIC21050-34613-00540-40000008D0000032D00018000305-40HD    GGSL
TXBWIC21050-34613-00805-40000001D0000025D0000000024SS5       GGSL
TXBWIC21050-34613-01150-40000080D0000184D00020000001150PDQ   GGSL
TXBWIC21050-34613-01161-00000072D0000168D00000002881161PDQ   GGSL
TXBWIC21050-34613-03603-30000009D0000450D0000000002U3603     GGSL
TXBWIC21050-34613-04803-60000010D0000620D0000000008U4803     GGSL
TXBWIC21050-34613-04850-00000042D0000214D00006003123104BL    GGSL
TXBWIC21050-34613-05826-40000036D0000203D00000000005826      GGSL
TXBWIC21050-34613-07757-90000336D0001288D00492000727757BL    GGSL
TXBWIC21050-34613-07758-60000144D0000552D00000000247758BL    GGSL
TXBWIC21050-34613-07835-40000006D0000021D00006000002110BL    GGSL
TXBWIC21050-34613-12812-70000012D0000272D0000000000SMG12812  GGSL
TXBWIC21050-34613-70052-10000009D0000120D004380000070052     GGSL
TXBWIC21050-34613-71086-50000201D0001006D0000300060LH015BL   GGSL
TXBWIC21050-34613-71087-20000030D0000123D000780019271087BL   GGSL
TXBWIC21050-34613-95006-30000005D0000215D000150002495006     GGSL
TXBWIC21050-34613-96006-20000001D0000048D000210002096006     GGSL
TXBWIC21050-35307-00782-70000012D0000093D0000000000782       GGSL
TXBWIC21050-35307-00820-60000180D0000243D0015600372820       GGSL
TXBWIC21050-35307-00826-80000096D0000143D0004800288826       GGSL
TXBWIC21050-35307-00835-00000012D0000067D0002400000835       GGSL
TXBWIC21050-35307-00840-40000012D0000026D0000000000840       GGSL
TXBWIC21050-35307-00844-20000036D0000077D0002400024844       GGSL
TXBWIC21050-35307-00845-90000012D0000041D0000000000845       GGSL
TXBWIC21050-35307-00848-00000072D0000127D0001200012848       GGSL
TXBWIC21050-35307-00861-90000096D0000192D0016800192861       GGSL
TXBWIC21050-35307-00866-40000012D0000038D0000000000866       GGSL
TXBWIC21050-35307-00874-90000648D0000884D0016800144874       GGSL
TXBWIC21050-35307-00987-60000012D0000023D0000000000987       GGSL
TXBWIC21050-35307-01601-00000090D0001109D00072000121601      GGSL
TXBWIC21050-35307-01609-60000048D0000148D00000000841609CS    GGSL
TXBWIC21050-35307-01618-80000012D0000074D00090000001618      GGSL
TXBWIC21050-35307-01635-50000012D0000188D00048000001635      GGSL
TXBWIC21050-35307-01810-60000321D0001388D00799000651810      GGSL
TXBWIC21050-35307-01815-10000127D0000776D00438000111815      GGSL
TXBWIC21050-35307-01818-20000012D0000116D00000000001818-6    GGSL
TXBWIC21050-35307-01820-50000030D0000340D00090000121820      GGSL
TXBWIC21050-35307-01825-00000168D0001435D00336007801825      GGSL
TXBWIC21050-35307-01835-90000001D0000082D00000000001835      GGSL
TXBWIC21050-35307-01840-30000036D0000564D00060000121840      GGSL
TXBWIC21050-35307-01875-50000006D0000116D00000000001875      GGSL
TXBWIC21050-35307-90872-80000012D0000037D0000000000872       GGSL
TXBWIC21050-35355-00000-00000003D0000441D00000000004960BLD   GGSL
TXBWIC21050-35355-00072-60000024D0000260D0005400204TP72      GGSL
TXBWIC21050-35355-00325-30000006D0000024D0000000016325       GGSL
TXBWIC21050-35355-00802-90000017D0000256D0000000006SS2       GGSL
TXBWIC21050-35355-00803-60000020D0000300D0000000025SS3       GGSL
TXBWIC21050-35355-00804-30000010D0000345D0000000028SS4       GGSL
TXBWIC21050-35355-00806-70000002D0000070D0000000015SS6       GGSL
TXBWIC21050-35355-00808-10000005C0000070C0000000000SS8-HD    GGSL
TXBWIC21050-35355-00924-80000005D0000035D0004800018924       GGSL
TXBWIC21050-35355-01151-70000070D0000287D00010001101151PDQ   GGSL
TXBWIC21050-35355-01160-90000160D0000333D00000002101160      GGSL
TXBWIC21050-35355-05945-80000935D0012203D00174002165945      GGSL
TXBWIC21050-35355-70201-90000575D0005969D003600022070201     GGSL
TXBWIC21050-35355-94006-00000011D0000378D000000002294006     GGSL
TXBWIC21050-36348-00610-70000096D0000460D00054000720610      GGSL
TXBWIC21050-36348-00645-90000032D0000419D0017100000645       GGSL
TXBWIC21050-36348-00745-60000029D0000558D00080000040745      GGSL
TXBWIC21050-36348-01020-30000005D0000075D00009000061020      GGSL
TXBWIC21050-36348-01045-60000002D0000110D00000000091045      GGSL
TXBWIC21050-36348-01078-40000029D0000867D00067000061078      GGSL
TXBWIC21050-36348-01079-10000065D0002896D00154000081079      GGSL
TXBWIC21050-36348-01085-20000006D0000341D00011000001085      GGSL
TXBWIC21050-36434-00000-00000449D0026876D004140006910-12420  GGSL
TXBWIC21050-36434-10000-00000036D0000331D00036001801014510   GGSL
TXBWIC21050-36434-10012-20000144D0001925D001800002410-10012  GGSL
TXBWIC21050-36434-11000-80000191D0001959D006440003860-11000  GGSL
TXBWIC21050-36434-12342-80000032D0000203D001140003060-12342  GGSL
TXBWIC21050-36434-12343-50000023D0000217D002990002060-12343  GGSL
TXBWIC21050-36434-12345-90000240D0002378D006960016810-12345  GGSL
TXBWIC21050-36434-12346-60000222D0001073D006680001860-12346  GGSL
TXBWIC21050-36434-12348-00000032D0000266D000000000810-12348  GGSL
TXBWIC21050-36434-12349-70000057D0000221D000680001860-12349  GGSL
TXBWIC21050-36434-12353-40000174D0002953D010860000560-12353  GGSL
TXBWIC21050-36434-12354-10000040D0000266D000650000210-12354  GGSL
TXBWIC21050-36434-12355-80000073D0000528D002680000010-12355  GGSL
TXBWIC21050-36434-12356-50000125D0000990D004170002610-12356  GGSL
TXBWIC21050-36434-12357-20000056D0000475D002210000010-12357  GGSL
TXBWIC21050-36434-12358-90000012D0000146D00036000001012358   GGSL
TXBWIC21050-36434-12700-60000132D0000891D000000024010-12700  GGSL
TXBWIC21050-36434-12710-50000048D0000316D000000001210-12710  GGSL
TXBWIC21050-36434-12720-40000007D0000041D000120000010-12720  GGSL
TXBWIC21050-36434-12721-10000030D0000163D000060000660-12721  GGSL
TXBWIC21050-36434-13600-50000108D0001874D004080028810-13600  GGSL
TXBWIC21050-36434-13610-20000048D0000678D004320030010-13610  GGSL
TXBWIC21050-36434-14084-90000060D0000846D000000000060-14804  GGSL
TXBWIC21050-36434-14800-80000288D0004627D001560002410-14800  GGSL
TXBWIC21050-36434-14801-80000042D0000592D000000000060-14801  GGSL
TXBWIC21050-36434-14802-50000024D0000338D00000000006014802   GGSL
TXBWIC21050-36434-14803-20000024D0000338D000000000060-14803  GGSL
TXBWIC21050-36434-14805-60000030D0000423D000000000060-14805  GGSL
TXBWIC21050-36434-14806-30000060D0000846D000000000060-14806  GGSL
TXBWIC21050-36434-14860-20000180D0002339D004440002410-14860  GGSL
TXBWIC21050-36434-14861-20000042D0000479D000000000060-14861  GGSL
TXBWIC21050-36434-14864-30000060D0000684D000000000060-14864  GGSL
TXBWIC21050-36434-14865-00000060D0000684D000000000060-14865  GGSL
TXBWIC21050-36434-14866-70000054D0000616D000000000060-14866  GGSL
TXBWIC21050-36434-15050-90000090D0001387D000240000610-15050  GGSL
TXBWIC21050-36434-22318-00000151D0000645D007290001260-22318  GGSL
TXBWIC21050-36434-22341-80000084D0000840D000120001210-22341  GGSL
TXBWIC21050-36434-22626-60000118D0001386D002080000760-22626  GGSL
TXBWIC21050-36434-22731-70000045D0000455D002820000660-22731  GGSL
TXBWIC21050-36434-22732-40000019D0000255D007480000660-22732  GGSL
TXBWIC21050-36434-24211-20000192D0003059D000030000010-24211  GGSL
TXBWIC21050-36434-28010-70000420D0003233D003000019210-28010  GGSL
TXBWIC21050-36434-28020-60000060D0000476D000000000010-28020  GGSL
TXBWIC21050-36434-32700-00000084D0000641D000240000010-32700  GGSL
TXBWIC21050-36434-34500-10000204D0001872D002160028810-34500  GGSL
TXBWIC21050-36434-82342-70000044D0000570D002520000460-82342  GGSL
TXBWIC21050-36865-12250-20007903D0015307D028200018071140180  GGSL
TXBWIC21050-36865-12292-20000780D0001833D000000000086752180  GGSL
TXBWIC21050-36865-14511-20000540D0001104D008400000071451180  GGSL
TXBWIC21050-36865-24511-90001620D0004899D028800012072451180  GGSL
TXBWIC21050-36865-45220-30000720D0001800D000000000088452205  GGSL
TXBWIC21050-36865-52965-30000360D0000807D000000000087852965  GGSL
TXBWIC21050-36865-65220-70000240D0000600D000000000088652205  GGSL
TXBWIC21050-37321-00022-80001983D0011847D0184403534022       GGSL
TXBWIC21050-37321-00023-50000040D0000675D0000000000023       GGSL
TXBWIC21050-37321-00024-20000594D0006481D0158401272024       GGSL
TXBWIC21050-37321-00036-50000012D0000071D0000900000036       GGSL
TXBWIC21050-37321-00038-90000011D0000068D0000000000038       GGSL
TXBWIC21050-37321-00051-80000006D0000069D0000000000051       GGSL
TXBWIC21050-37321-00055-60000003D0000036D0000000000055       GGSL
TXBWIC21050-37321-00061-70000012D0000082D0000000276061       GGSL
TXBWIC21050-37321-00068-60000084D0000389D0061500432068       GGSL
TXBWIC21050-37321-00069-30000378D0004433D0096000219069       GGSL
TXBWIC21050-37321-00070-90000090D0001235D0084000219070       GGSL
TXBWIC21050-37321-00105-80000216D0000541D0000000288105       GGSL
TXBWIC21050-37321-00106-50000072D0000187D0008400060106       GGSL
TXBWIC21050-37321-00107-20000144D0000378D0000000516107       GGSL
TXBWIC21050-37321-00108-90000132D0000339D0000000696108       GGSL
TXBWIC21050-37321-00116-40000024D0000077D0000000000116       GGSL
TXBWIC21050-37321-00121-80000024D0000237D0016800192121       GGSL
TXBWIC21050-37321-00123-20000018D0000068D0001200006123       GGSL
TXBWIC21050-37321-00127-00000504D0003824D0034200288127       GGSL
TXBWIC21050-37321-00141-60000048D0000184D0000000072141       GGSL
TXBWIC21050-37321-00150-80000360D0005069D0061802136150       GGSL
TXBWIC21050-37321-00166-90000090D0000471D0014400036166       GGSL
TXBWIC21050-37321-00167-60000108D0000586D0000000000167       GGSL
TXBWIC21050-37321-00171-30000024D0000212D0004800000171       GGSL
TXBWIC21050-37321-00202-40000624D0006046D0194400060202       GGSL
TXBWIC21050-37321-00203-10000201D0002635D0120300015203       GGSL
TXBWIC21050-37321-00210-90000177D0000978D0095700012210       GGSL
TXBWIC21050-37321-00211-60000102D0000846D0248700012211       GGSL
TXBWIC21050-37321-00213-00000225D0002194D0123600567213       GGSL
TXBWIC21050-37321-00214-70000138D0000646D0030000624214       GGSL
TXBWIC21050-37321-00218-50000024D0000300D0000000000218       GGSL
TXBWIC21050-37321-00225-30000024D0000128D0026400000225       GGSL
TXBWIC21050-37321-00230-70000036D0000282D0000000012230       GGSL
TXBWIC21050-37321-00237-60000012D0000150D0000000000237       GGSL
TXBWIC21050-37321-00238-30000471D0003711D0025500213238       GGSL
TXBWIC21050-37321-00239-00000008D0000160D0000000000239       GGSL
TXBWIC21050-37321-00240-60000012D0000188D0002400000240       GGSL
TXBWIC21050-37321-00250-50000888D0003946D0086102172250       GGSL
TXBWIC21050-37321-00252-90000228D0002479D0147300072252       GGSL
TXBWIC21050-37321-00253-60000132D0002159D0020100036253       GGSL
TXBWIC21050-37321-00255-00000420D0007741D0226500420255       GGSL
TXBWIC21050-37321-00257-40000180D0000625D0030300216257       GGSL
TXBWIC21050-37321-00258-10000036D0000231D0000000000258       GGSL
TXBWIC21050-37321-00272-70000012D0000039D0000000012272       GGSL
TXBWIC21050-37321-00274-10000638D0003572D0023400810274       GGSL
TXBWIC21050-37321-00307-60000156D0000630D0008100420307       GGSL
TXBWIC21050-37321-00309-00000054D0000851D0009000150309       GGSL
TXBWIC21050-37321-00330-40000354D0003019D0048600000330       GGSL
TXBWIC21050-37321-00331-10000267D0003748D0057600012331       GGSL
TXBWIC21050-37321-00332-80000016D0000734D0001200000332       GGSL
TXBWIC21050-37321-00370-00000012D0000045D0000000000370       GGSL
TXBWIC21050-37321-00404-20000024D0000180D0010800000404       GGSL
TXBWIC21050-37321-00411-00000045D0000146D0000000000411       GGSL
TXBWIC21050-37321-00412-70000084D0000435D0000000000412       GGSL
TXBWIC21050-37321-00413-40000320D0003683D0000000000413       GGSL
TXBWIC21050-37321-00420-20000118D0006296D0022600068420       GGSL
TXBWIC21050-37321-00426-40000201D0001962D0046800555426       GGSL
TXBWIC21050-37321-00428-80000747D0002658D0000000432428       GGSL
TXBWIC21050-37321-00429-50000015D0000245D0007500081429       GGSL
TXBWIC21050-37321-00442-40000198D0001207D0012300012442       GGSL
TXBWIC21050-37321-00443-10000177D0001872D0003900036443       GGSL
TXBWIC21050-37321-00506-30000126D0000504D0000000036506       GGSL
TXBWIC21050-37321-00543-80000411D0001285D0038400075543       GGSL
TXBWIC21050-37321-00544-50000270D0001512D0005400030544       GGSL
TXBWIC21050-37321-00549-00000300D0002347D0019200024549       GGSL
TXBWIC21050-37321-00552-00000144D0002194D0003600030552       GGSL
TXBWIC21050-37321-00553-70000209D0005943D0020600036553       GGSL
TXBWIC21050-37321-00560-50000324D0001363D0125400132560       GGSL
TXBWIC21050-37321-00564-30000156D0001536D0002400204564       GGSL
TXBWIC21050-37321-00568-10000012D0000260D0022800000568       GGSL
TXBWIC21050-37321-00571-10000129D0001022D0016800000571       GGSL
TXBWIC21050-37321-00573-50000039D0000169D0106500000573       GGSL
TXBWIC21050-37321-00577-30000100D0000977D0018000000574       GGSL
TXBWIC21050-37321-00578-00000008D0000076D0000800000578       GGSL
TXBWIC21050-37321-00603-90000012D0000136D0008400000603       GGSL
TXBWIC21050-37321-00611-40000024D0000552D0002400076611       GGSL
TXBWIC21050-37321-00631-20000917D0002938D2509900912631       GGSL
TXBWIC21050-37321-00652-70000312D0001634D0040800072652       GGSL
TXBWIC21050-37321-00655-80000282D0001627D00306006846556      GGSL
TXBWIC21050-37321-00680-00000753D0005453D0000600012680       GGSL
TXBWIC21050-37321-00685-50000285D0003042D0184200000685       GGSL
TXBWIC21050-37321-00687-90000036D0000400D0001200000687       GGSL
TXBWIC21050-37321-00688-60000048D0000294D0019200024688       GGSL
TXBWIC21050-37321-00690-90000096D0001002D0037800000690       GGSL
TXBWIC21050-37321-00692-30000521D0005694D0129800307692150    GGSL
TXBWIC21050-37321-00698-50000036D0000192D0004800144698       GGSL
TXBWIC21050-37321-00728-90000012D0000151D0013200000728       GGSL
TXBWIC21050-37321-00752-40000012D0000084D0016800000752       GGSL
TXBWIC21050-37321-00757-90000030D0000127D0001200006757       GGSL
TXBWIC21050-37321-00758-60000004D0000048D0002000000758       GGSL
TXBWIC21050-37321-00771-50000072D0000362D0004200000771       GGSL
TXBWIC21050-37321-00775-30000822D0004617D0056101878775       GGSL
TXBWIC21050-37321-00777-70000096D0000931D0012900000777       GGSL
TXBWIC21050-37321-00779-10000072D0000521D0010200276779       GGSL
TXBWIC21050-37321-00784-50000438D0001157D0040200156784       GGSL
TXBWIC21050-37321-00786-90000654D0002537D0085200132786       GGSL
TXBWIC21050-37321-00789-00000277D0002074D0173101548791       GGSL
TXBWIC21050-37321-00803-30000024D0000223D0003600024803       GGSL
TXBWIC21050-37321-00806-40000036D0000268D0003600012806       GGSL
TXBWIC21050-37321-00811-80001008D0011513D0180500471811       GGSL
TXBWIC21050-37321-00813-20000184D0002416D0057900342813       GGSL
TXBWIC21050-37321-00814-90000024D0000551D0006600000814       GGSL
TXBWIC21050-37321-00857-60000396D0003411D0182400048857       GGSL
TXBWIC21050-37321-00858-30000024D0000330D0000000000858       GGSL
TXBWIC21050-37321-00862-00000108D0001289D0000000012862       GGSL
TXBWIC21050-37321-00866-80000006D0000077D0000000006866       GGSL
TXBWIC21050-37321-00868-20000018D0000231D0000000012868       GGSL
TXBWIC21050-37321-00870-50000096D0000554D0042000012870       GGSL
TXBWIC21050-37321-00875-00000885D0008377D0329400063875       GGSL
TXBWIC21050-37321-00879-80000012D0000099D0000000000879       GGSL
TXBWIC21050-37321-00880-40000339D0003861D0057900408880       GGSL
TXBWIC21050-37321-00883-50000084D0000364D0002400060883       GGSL
TXBWIC21050-37321-00892-70000132D0001155D0027600492892       GGSL
TXBWIC21050-37321-00903-00000048D0000333D0037200000903       GGSL
TXBWIC21050-37321-00908-50000045D0000442D0000600000908       GGSL
TXBWIC21050-37321-00925-20001017D0002971D0333201848925       GGSL
TXBWIC21050-37321-00939-90000039D0000391D0042000420939       GGSL
TXBWIC21050-37321-00941-20000696D0007006D0246100477941       GGSL
TXBWIC21050-37321-00947-40000036D0000296D0013200006947       GGSL
TXBWIC21050-37321-00951-10000237D0000931D0002700237951       GGSL
TXBWIC21050-37321-00952-80000156D0000831D0011400012952       GGSL
TXBWIC21050-37321-00987-00000516D0004711D0054000012987       GGSL
TXBWIC21050-37321-02360-90000099D0000693D00027000122360      GGSL
TXBWIC21050-37321-02361-60000918D0010453D00321005372361      GGSL
TXBWIC21050-37321-02761-40000123C0010453C00000000062761      GGSL
TXBWIC21050-37321-05131-20000008D0000104D00016000005131      GGSL
TXBWIC21050-37321-05612-60000240D0002236D00006000515612      GGSL
TXBWIC21050-37321-05710-90000012D0000073D00336000005710      GGSL
TXBWIC21050-37321-05712-30000078D0000751D00024000005712      GGSL
TXBWIC21050-37321-05714-70000036D0001019D00052000005714      GGSL
TXBWIC21050-37321-07458-80000036D0000554D00168000007458      GGSL
TXBWIC21050-37321-07464-90000006D0000084D00000000007464      GGSL
TXBWIC21050-37321-07490-80000054D0000279D00000001447490      GGSL
TXBWIC21050-37321-07492-20000036D0000610D00016001647492      GGSL
TXBWIC21050-37321-07497-70000018D0000086D00000000067497      GGSL
TXBWIC21050-37321-07503-50000377C0000086C00030000007503      GGSL
TXBWIC21050-37321-07591-20000024D0000433D00000000007591      GGSL
TXBWIC21050-37321-08636-90000006D0000070D00000000008636      GGSL
TXBWIC21050-37321-08752-60000063D0000734D00507000278752      GGSL
TXBWIC21050-37321-09534-70000135D0001370D00000001689534      GGSL
TXBWIC21050-37321-46126-50006600D0001061D162000010046126     GGSL
TXBWIC21050-37321-46183-80000150D0001140D0021900009691       GGSL
TXBWIC21050-37321-46190-60000072D0000219D002880004846190     GGSL
TXBWIC21050-37321-46406-80000112D0000823D008960012846406     GGSL
TXBWIC21050-37321-46540-90000012D0000111D000920000046540     GGSL
TXBWIC21050-37321-46640-60000060D0000314D000000001246640     GGSL
TXBWIC21050-37321-60221-70000010D0000126D000600010060222     GGSL
TXBWIC21050-37321-60360-30000118D0001230D000000010860362     GGSL
TXBWIC21050-37321-60365-80000010D0000311D000450000060365     GGSL
TXBWIC21050-37321-60400-60000020D0000254D007120300060402     GGSL
TXBWIC21050-37321-60420-40000132D0001955D000030000360420     GGSL
TXBWIC21050-37321-60424-20000075D0002883D000150000060424     GGSL
TXBWIC21050-37321-60430-30000013D0000159D000520000060432     GGSL
TXBWIC21050-37321-60476-10000278D0003248D033560535160478     GGSL
TXBWIC21050-37321-60514-00000560D0005787D024850176260516     GGSL
TXBWIC21050-37321-60613-00000016D0000152D000000000060613     GGSL
TXBWIC21050-37321-60728-10000010D0000126D000150000060730     GGSL
TXBWIC21050-38313-00005-90000019D0000417D0006700000GS 6750D  GGSL
TXBWIC21050-38313-00008-00000084D0001472D0031700018BP 3130   GGSL
TXBWIC21050-38313-00060-80000251D0003981D0063000768BP 3160   GGSL
TXBWIC21050-38313-00080-60000269D0005050D0037600512BP 3180D  GGSL
TXBWIC21050-38313-00524-50000006D0000131D0000000000SL 3310   GGSL
TXBWIC21050-38313-00830-70000020D0000621D0015500021BP 6250   GGSL
TXBWIC21050-38313-01010-20001013D0005075D0088800090CT 3010I  GGSL
TXBWIC21050-38313-01020-10000294D0001505D0042600072CT 3020I  GGSL
TXBWIC21050-38313-01030-00000156D0000788D0010800024CT 3030I  GGSL
TXBWIC21050-38313-02006-40000001D0000073D0000000000WB 2006   GGSL
TXBWIC21050-38313-03050-60000054D0000360D0012000150GT 3050   GGSL
TXBWIC21050-38313-03060-50000126D0000958D0003600138GT 3060   GGSL
TXBWIC21050-38313-03080-30000096D0000640D0000600174GT 3080   GGSL
TXBWIC21050-38313-03214-20000066D0000736D0003000006BP 3214D  GGSL
TXBWIC21050-38313-03244-90000036D0000617D0000000144HS 3244   GGSL
TXBWIC21050-38313-03264-40000006D0000115D0028200366SL 3264   GGSL
TXBWIC21050-38313-03334-70000012D0000140D0009000000AP 3334   GGSL
TXBWIC21050-38313-03470-20000017D0000482D0012200002FL 3470   GGSL
TXBWIC21050-38313-03634-80000020D0000595D0002800001LG 3634   GGSL
TXBWIC21050-38313-03694-20000002D0000068D0000100000LG 3694   GGSL
TXBWIC21050-38313-03710-90001230D0006063D0010802106CT 3710   GGSL
TXBWIC21050-38313-03720-80000006D0000044D0021600330CT 3720   GGSL
TXBWIC21050-38313-03730-70000216D0001081D0002400450CT 3730   GGSL
TXBWIC21050-38313-03750-50000240D0001181D0007800324CT 3750   GGSL
TXBWIC21050-38313-04110-60000054D0000844D0008400138AL 4110   GGSL
TXBWIC21050-38313-04930-00001728D0010087D0433400052AG 4930   GGSL
TXBWIC21050-38313-04930-70001151D0007366D0122100022AG 4930SS GGSL
TXBWIC21050-38313-06970-40000048D0002078D0032600000AH 6970   GGSL
TXBWIC21050-38313-07001-00000001D0000042D0001500000FK 70010  GGSL
TXBWIC21050-38313-07265-00000024D0000401D0000000030RS 7265D  GGSL
TXBWIC21050-38313-07545-20000058D0001010D0015500015RS 7245   GGSL
TXBWIC21050-38313-10000-10000196D0001843D0031800013SS 10000  GGSL
TXBWIC21050-38313-10227-20000033D0002147D0012200000AL 6512   GGSL
TXBWIC21050-38313-11000-00000088D0000817D0018500000SS 11000  GGSL
TXBWIC21050-38313-12400-70000268D0003292D0022900038RK 24003  GGSL
TXBWIC21050-38313-13214-90000162D0001252D0000600408FS 3214D  GGSL
TXBWIC21050-38313-13640-60000006D0000192D0000000000BP 6340   GGSL
TXBWIC21050-38313-14300-80000001D0000041D0002200000BM 43001  GGSL
TXBWIC21050-38313-20001-50000042D0000958D0001100004PD 20000  GGSL
TXBWIC21050-38313-20002-20000054D0000829D0000000066RK 20002  GGSL
TXBWIC21050-38313-20004-60000085D0001169D0015100092CV 20004  GGSL
TXBWIC21050-38313-20022-00000105D0001814D0030000021RK 20022  GGSL
TXBWIC21050-38313-21000-70000175D0002342D0015900072SH 20000  GGSL
TXBWIC21050-38313-21050-20000006D0000029D0000000000CT 3050I  GGSL
TXBWIC21050-38313-24000-40000022D0000175D0020100000FS 4000   GGSL
TXBWIC21050-38313-25008-90000084D0000364D0002400324RK 25008  GGSL
TXBWIC21050-38313-26001-90000084D0000994D0000000168SS 26010  GGSL
TXBWIC21050-38313-26020-00000088D0001277D0011600026SS 26020  GGSL
TXBWIC21050-38313-27020-90000026D0000364D0003600004SS 27020  GGSL
TXBWIC21050-38313-28000-00000018D0000327D0004200002SS 28000  GGSL
TXBWIC21050-38313-28010-90000059D0001231D0013700002SS 28010  GGSL
TXBWIC21050-38313-32341-70000005D0000055D0000200000GT 3234   GGSL
TXBWIC21050-38313-32441-40000011D0000121D0001200000GT 3244   GGSL
TXBWIC21050-38313-32640-10000018D0000133D0000000000CT 3264   GGSL
TXBWIC21050-38313-32706-40000061D0006418D0000000000WB 2706FF GGSL
TXBWIC21050-38313-33140-50000008D0000082D0000000088CT 3314   GGSL
TXBWIC21050-38313-33240-20000016D0000147D0000000000CT 3324   GGSL
TXBWIC21050-38313-33340-90000016D0000148D0000000064CT 3334   GGSL
TXBWIC21050-38313-33440-60000224D0001702D0000800328CT 3344   GGSL
TXBWIC21050-38313-33540-30000032D0000275D0003200048CT 3354   GGSL
TXBWIC21050-38313-33640-00000304D0002540D0013600456CT 3364   GGSL
TXBWIC21050-38313-36241-60000006D0000180D0000500000LG 3624   GGSL
TXBWIC21050-38313-36541-70000006D0000139D0000100008LG 3654   GGSL
TXBWIC21050-38313-36841-80000002D0000058D0000100000LG 3684   GGSL
TXBWIC21050-38313-37201-90000052D0000861D0001600040LG 3720   GGSL
TXBWIC21050-38313-53841-50000007D0000371D0002300000TP 3841   GGSL
TXBWIC21050-38313-56200-70000016D0000130D0005900001RK 62000  GGSL
TXBWIC21050-38313-61062-30000012D0000605D0003000009RK 61062  GGSL
TXBWIC21050-38313-62062-20000005D0000232D0002900000BM 62060  GGSL
TXBWIC21050-38313-62065-30000006D0000263D0001200000FK 72065  GGSL
TXBWIC21050-38313-64144-30000014D0000278D0000300002SS 64104  GGSL
TXBWIC21050-38313-65000-10000002D0000048D0000300000SS 65000  GGSL
TXBWIC21050-38313-80000-00000018D0001412D0001100016SF 80000  GGSL
TXBWIC21050-38313-81000-90000204D0001953D0021300006RK 10000  GGSL
TXBWIC21050-38313-90000-70000191D0001746D0016500023SH 10000  GGSL
TXBWIC21050-39044-12044-30000018D0000560D000060000012044     GGSL
TXBWIC21050-39044-14636-80000006D0000060D000000000614666     GGSL
TXBWIC21050-39645-11752-10000049C0000019D000000000040200010  GGSL
TXBWIC21050-40025-54033-40000015D0000570D0003800003RWS-54033 GGSL
TXBWIC21050-40200-00000- 0000074C0000570C00025000005430      GGSL
TXBWIC21050-40235-75256-50000002D0000037D00062000022.5G30S   GGSL
TXBWIC21050-40279-03300-20000732D0001432D01788000723300      GGSL
TXBWIC21050-40279-03302-60000585D0001155D0082800120          GGSL
TXBWIC21050-41535-24550-40000391D0016644D011280035124550     GGSL
TXBWIC21050-41535-24560-30000861D0136386D014410013924560     GGSL
TXBWIC21050-41535-24571-90001503D0023482D0287100116100518540 GGSL
TXBWIC21050-42204-14504-80000006D0000006D00011000002MMC      GGSL
TXBWIC21050-42206-00056-90000054D0000399D000580008456-6      GGSL
TXBWIC21050-42206-00202-00000210D0000217D0082700050202S      GGSL
TXBWIC21050-42206-00202-10000003D0000003D0000500000202S      GGSL
TXBWIC21050-42206-00269-30000078D0000305D0006400216269       GGSL
TXBWIC21050-42206-00395-90000130D0000296D0091000120395S      GGSL
TXBWIC21050-42206-00525-00000078D0000185D0011200150525C      GGSL
TXBWIC21050-42206-00872-50000078D0000158D0051600000872-6     GGSL
TXBWIC21050-42206-03010-80000012D0000120D00174000003010-4    GGSL
TXBWIC21050-42206-07800-10000006D0000031D00000000727800      GGSL
TXBWIC21050-42206-09000-30000114D0000673D00194000009000      GGSL
TXBWIC21050-42206-09520-60000024D0000333D00000000249520      GGSL
TXBWIC21050-42206-09620-30000071D0002446D00074000329620-8    GGSL
TXBWIC21050-42206-14058-60000432D0002287D01128000489570      GGSL
TXBWIC21050-42206-14066-10000060D0000196D00000000129560C     GGSL
TXBWIC21050-42206-14220-70000064D0000245D0057600130312S      GGSL
TXBWIC21050-42206-14221-40000119D0000207D0049500112313S      GGSL
TXBWIC21050-42206-14222-10000012D0000164D0003000090314S      GGSL
TXBWIC21050-42206-14235-10000074D0000076D0079200030390S      GGSL
TXBWIC21050-42206-14456-00000110D0000170D0010200020420C      GGSL
TXBWIC21050-42206-14501-70000094D0000080D00475001401FMC      GGSL
TXBWIC21050-42206-14502-40000064D0000046D00383002301MMC      GGSL
TXBWIC21050-42206-14503- 0000001D0000001D00020000002FMC      GGSL
TXBWIC21050-42206-14503-10000248D0000230D02015001102FMC      GGSL
TXBWIC21050-42206-14504-80000244D0000184D01801002942MMC      GGSL
TXBWIC21050-42206-14505-50000030D0000027D003920003001MC      GGSL
TXBWIC21050-42206-14506-20000129D0000122D011980011002MC      GGSL
TXBWIC21050-42206-14570-30000062D0000308D0044200010ZBR3/4    GGSL
TXBWIC21050-42206-14571-00000116D0000366D0065100010ZBM3/4    GGSL
TXBWIC21050-42206-14572-70000106D0000364D0057100010ZBF3/4    GGSL
TXBWIC21050-42206-14599-40000006D0000077D00000000009536CH    GGSL
TXBWIC21050-42206-15106-30000024D0000260D000240000015106     GGSL
TXBWIC21050-42206-15111-70000064D0000398D001360000015111     GGSL
TXBWIC21050-42206-15404-00000010D0000119D000320004815404     GGSL
TXBWIC21050-42206-15549-80000011D0000176D000250000815549     GGSL
TXBWIC21050-42206-20491-20000196D0000928D005140000020491-10  GGSL
TXBWIC21050-42206-22261-90000270D0002254D008220000022261     GGSL
TXBWIC21050-42206-22300-50000096D0000921D001500000622300     GGSL
TXBWIC21050-42206-22701-00000032D0000095D000220000022701C    GGSL
TXBWIC21050-42206-23701-90000070D0000212D001200000023701S    GGSL
TXBWIC21050-42206-30200-70000010D0000059D0001000000XT200     GGSL
TXBWIC21050-42206-30201-40000001D0000062D0000000000XT201     GGSL
TXBWIC21050-42206-40300-10000028D0000187D0005000000XT300     GGSL
TXBWIC21050-42206-40301-80000098D0000620D0019400350XT301     GGSL
TXBWIC21050-42206-44100-30000030D0000550D0000600072XT4100    GGSL
TXBWIC21050-42206-48635-60000024D0000126D0000000228R8635     GGSL
TXBWIC21050-42206-63015-50000042D0001185D000450000063015     GGSL
TXBWIC21050-42579-00035-70000036D0000430D00000000003 YR-3100 GGSL
TXBWIC21050-42579-00052-40000003D0000123D0002500004ST47812   GGSL
TXBWIC21050-42579-11212-80000026D0001330D0001800002SSR12GRN  GGSL
TXBWIC21050-42579-11250-00000013D0006330D0004700001P12       GGSL
TXBWIC21050-42579-11500-60000145D0004426D0018100005APB5      GGSL
TXBWIC21050-42579-12343-80000021D0001002D000000000020 YR-3100GGSL
TXBWIC21050-42579-12353-70000015D0000093D0004500000PG12      GGSL
TXBWIC21050-42579-13250-80000623D0019221D0202700160P3        GGSL
TXBWIC21050-42579-14250-70000126D0016854D0044600070P4        GGSL
TXBWIC21050-42579-15250-60000010D0001939D0007700002P5        GGSL
TXBWIC21050-42579-16250-50000071D0011432D0003800007P6        GGSL
TXBWIC21050-42579-18250-30000015D0004639D0004800001P8        GGSL
TXBWIC21050-42579-19342-40000216D0002695D008400000020 YR-324 GGSL
TXBWIC21050-42579-22341-10002112D0016685D04992011846 YR-350  GGSL
TXBWIC21050-42579-22342-80000078D0000797D0012600282NS12      GGSL
TXBWIC21050-42579-22345-90002412D0003408D0297201536APRC      GGSL
TXBWIC21050-42579-23100-30000032D0000473D00000000806 YR-3100 GGSL
TXBWIC21050-42579-24250-40000001D0000144D000540000020 YR-4250GGSL
TXBWIC21050-42579-32355-50000406D0002510D0079800028RS15      GGSL
TXBWIC21050-42579-43004-80000026D0002285D0007300000NB4       GGSL
TXBWIC21050-42579-43006-20000012D0001659D0006400000NB6       GGSL
TXBWIC21050-42579-50154-00000256D0007523D0032800008PRO BLK-31GGSL
TXBWIC21050-42579-50169-40000234D0004281D0070200162PRO BLK-45GGSL
TXBWIC21050-42579-63041-70000001D0000130D0001200006KG6       GGSL
TXBWIC21050-42579-63101-80000013D0000688D0000000000TSL-BX    GGSL
TXBWIC21050-42579-63105-60000030D0001828D0002600003350ROLL   GGSL
TXBWIC21050-42579-63306-70001764D0009988D04680001083 YR-350  GGSL
TXBWIC21050-42579-81392-60000015D0004543D0000000001WGC15     GGSL
TXBWIC21050-42579-81428-20000245D0000477D0037300042BURLAP BAGGGSL
TXBWIC21050-42579-81497-40000001D0000000D0000700001RDR + SIGNGGSL
TXBWIC21050-42579-81566-10000114D0018448D0006400021SBLT10300 GGSL
TXBWIC21050-42579-81568-50000117D0022547D0013900068SBLT12300 GGSL
TXBWIC21050-42579-81569-20000462D0095273D0001800029SBLT15.530GGSL
TXBWIC21050-42579-81571-50000185D0008906D0002300022SBLT3300  GGSL
TXBWIC21050-42579-81572-20000104D0006518D0000300012SBLT4300  GGSL
TXBWIC21050-42579-81573-90000215D0017829D0003100027SBLT6300  GGSL
TXBWIC21050-42579-81606-40000016D0001838D0012100000PRO BLK-43GGSL
TXBWIC21050-42579-81607-10000039D0006515D0015900010PRO BLK-63GGSL
TXBWIC21050-42579-81733-70000022D0001329D0008000000CS-3300BLKGGSL
TXBWIC21050-42579-81734-40000033D0002309D0004400013CS-4300BLKGGSL
TXBWIC21050-42579-81735-10000031D0003583D0008500002CS-6300BLKGGSL
TXBWIC21050-42579-81738-20000004D0000890D0000000000CS-350BLK GGSL
TXBWIC21050-42579-81739-90000007D0001582D0000200000CS-3100BLKGGSL
TXBWIC21050-42579-81779-50000002D0000000D0000000000LFC-R     GGSL
TXBWIC21050-42579-82278-20000084D0000823D0000000096TWBAG-12  GGSL
TXBWIC21050-42579-82320-80000096D0001013D0000000000TWD-24    GGSL
TXBWIC21050-42853-00000-00000155D0008129D0068400024BFTD-DB12 GGSL
TXBWIC21050-42853-10000-10000040D0000159D0013600000ST3-BB4   GGSL
TXBWIC21050-42853-12000-90000068D0000186D0016000000MGC-DB12  GGSL
TXBWIC21050-42853-42000-00000114D0000762D0085800006TSBF-BB6  GGSL
TXBWIC21050-42853-50000-90000295D0002234D0194400175TSW-BB6   GGSL
TXBWIC21050-42853-52000-40000030D0000197D0000600006CBTS-BB6  GGSL
TXBWIC21050-42853-61000-50000028D0000120D0000400000FFTR2-BB4 GGSL
TXBWIC21050-42853-62000-40000040D0000052D0012000024FFTA-DB12 GGSL
TXBWIC21050-42853-65000-10000036D0000135D0004400108AB6-BB4   GGSL
TXBWIC21050-42853-77305-40000141D0005986D0078900081FTD-DB12  GGSL
TXBWIC21050-42853-77603-90000004D0000172D0000200000YJTD-DB12-GGSL
TXBWIC21050-42854-03298-10000384D0000841D0058800156FG32ORB112GGSL
TXBWIC21050-42854-63278-50000084D0000164D0040800000FG32PC1-12GGSL
TXBWIC21050-42854-64870-00000012D0000074D0000000000FG48PC1-6 GGSL
TXBWIC21050-42854-93200-70000060D0000312D0000000000FG32SM1-12GGSL
TXBWIC21050-43256-29051-10000001D0000105D0000100000DT1260    GGSL
TXBWIC21050-43256-32797-20000001D0000118D0000000000DT2000XLP GGSL
TXBWIC21050-43256-33050-70000001D0000091D0003900000DT1050    GGSL
TXBWIC21050-43312-10003-70000168D0000523D0129600105103-0-009 GGSL
TXBWIC21050-43312-10031-00000041D0001101D0005300000107-0-002 GGSL
TXBWIC21050-43312-10102-70000144D0000226D0057600000102-0-012 GGSL
TXBWIC21050-43326-15732-40000015D0000069D0000000000M10X12    GGSL
TXBWIC21050-43326-16720-00000008D0000057D0000000000A8X10-P8  GGSL
TXBWIC21050-43326-17720-90000008D0000050D0000000000BRB8X10-P GGSL
TXBWIC21050-43326-59772-40000006D0000385D0000600000G12X20    GGSL
TXBWIC21050-43786-70102-00000024D0000106D000000000070102     GGSL
TXBWIC21050-43792-50001-30000002D0000061D0000100004Y32       GGSL
TXBWIC21050-43792-60002-70000001D0000039D0002800007W32       GGSL
TXBWIC21050-43792-70002-40000001D0000041D0000200005R32       GGSL
TXBWIC21050-43792-80001-40000001D0000033D0000000006SW10      GGSL
TXBWIC21050-43792-90003-50000001D0000043D0001500000GA10      GGSL
TXBWIC21050-44882-30115-20000020D0000164D0000000045WS50      GGSL
TXBWIC21050-44882-30501-30000025D0000225D0000000040FXG5825   GGSL
TXBWIC21050-44882-30502-00000015D0000243D0000000210FXG5850   GGSL
TXBWIC21050-44882-30504-40000030D0000710D0000000051FXG5875   GGSL
TXBWIC21050-44882-30506-80000036D0001152D0000000102FXG58100  GGSL
TXBWIC21050-46539-62045-60005240D0064261D0085500328          GGSL
TXBWIC21050-46539-64032-40002739D0021050D0001100316          GGSL
TXBWIC21050-46753-01032-30000068D0000270D00178000004675301032GGSL
TXBWIC21050-46753-01128-30000156D0001322D00388000004675301128GGSL
TXBWIC21050-46753-01500-70000002D0000101D00011000004675302500GGSL
TXBWIC21050-46753-02032-20000106D0000439D00129000004675302032GGSL
TXBWIC21050-46753-02128-20000088D0000921D00156000004675302128GGSL
TXBWIC21050-46753-03128-10000020D0000262D00188000004675303128GGSL
TXBWIC21050-46753-04032-00000372D0002139D00172000004675304032GGSL
TXBWIC21050-46753-04033-70000096D0000714D00384004082004675304GGSL
TXBWIC21050-46753-04128-00000399D0005404D00788001524675304128GGSL
TXBWIC21050-46753-04500-40000005D0000280D00015000004675304500GGSL
TXBWIC21050-46753-04550-90000001D0000594D000000000045509     GGSL
TXBWIC21050-46753-05032-90000114D0000880D00120002464675305032GGSL
TXBWIC21050-46753-05128-90000100D0001316D00436001164675305128GGSL
TXBWIC21050-46753-05500-10000001D0000054D000000000055003     GGSL
TXBWIC21050-46753-07032-70000048D0000242D00096000004675307032GGSL
TXBWIC21050-46753-07128-70000008D0000105D00000000044675307128GGSL
TXBWIC21050-46753-08016-60000024D0000207D000000000080160     GGSL
TXBWIC21050-46753-08032-60000822D0012729D01737003364675308032GGSL
TXBWIC21050-46753-14032-70000072D0000288D00667000284675314032GGSL
TXBWIC21050-46753-14128-70000104D0000746D00198000164675314128GGSL
TXBWIC21050-46753-14550-60000002D0000535D000000000014550     GGSL
TXBWIC21050-46753-17005-80000054D0000208D00358000004675317005GGSL
TXBWIC21050-46753-17040-90001618D0021385D01706000004675317040GGSL
TXBWIC21050-46753-19500-60000004D0000201D0000000000195006    GGSL
TXBWIC21050-46753-19550-10000001D0000507D000000000095501     GGSL
TXBWIC21050-46753-20128-80000020D0000304D0000400004          GGSL
TXBWIC21050-46753-20550-70000001D0000520D000000000020550     GGSL
TXBWIC21050-46753-21032-70000131D0000642D009120028810327     GGSL
TXBWIC21050-46753-21128-70000176D0002121D003680022012287     GGSL
TXBWIC21050-46753-22550-50000001D0000527D000000000025505     GGSL
TXBWIC21050-46753-30165-00000002D0002748D00000000001650      GGSL
TXBWIC21050-46878-26380-20000012D0000132D000000000026380     GGSL
TXBWIC21050-46878-26382-60000021D0000231D000210000026382     GGSL
TXBWIC21050-46878-27389-40000012D0000208D000330000027389     GGSL
TXBWIC21050-46878-27436-50000006D0000104D000390000027436     GGSL
TXBWIC21050-46878-27560-70000012D0000208D000090000027560     GGSL
TXBWIC21050-47977-00100-50000007D0000241D00000000007511I     GGSL
TXBWIC21050-47985-10023-30000307D0002212D0007100000YCBSM3CF-PGGSL
TXBWIC21050-47985-10033-20000713D0005492D0010600000YCBSI3CF-PGGSL
TXBWIC21050-48307-70003-20000006D0000043D0000000004ST3       GGSL
TXBWIC21050-48307-70004-90000001D0000010D0000000001ST4-WS    GGSL
TXBWIC21050-48307-70006-30000032D0000530D0000000005ST6       GGSL
TXBWIC21050-48745-22244-80000016D0000373D0006000004BL22244   GGSL
TXBWIC21050-50197-00104-50001601D0007689D0251000168HT4       GGSL
TXBWIC21050-50197-00108-30000234D0001703D0024600012HT8       GGSL
TXBWIC21050-50197-00118-20000521D0006430D0129200002HT18      GGSL
TXBWIC21050-50197-00136-60000406D0008419D0013000006HT36      GGSL
TXBWIC21050-50197-00150-20000170D0004351D0016700011HT50      GGSL
TXBWIC21050-50197-00204-20001164D0005459D0337301548PT4       GGSL
TXBWIC21050-50197-00208-00000102D0000738D0008400012PT8       GGSL
TXBWIC21050-50197-00218-90000306D0003912D0007000005PT18      GGSL
TXBWIC21050-50197-00236-30000202D0004161D0029400000PT36      GGSL
TXBWIC21050-50197-00250-90000046D0001229D0002400007PT50      GGSL
TXBWIC21050-50197-00304-90001194D0005653D0251900888GT4       GGSL
TXBWIC21050-50197-00308-70000012D0000084D0000000012GT8       GGSL
TXBWIC21050-50197-00318-60000323D0004198D0036300034GT18      GGSL
TXBWIC21050-50197-00336-00000127D0002639D0008100010GT36      GGSL
TXBWIC21050-50197-00404-60001296D0006135D0155800769RT4       GGSL
TXBWIC21050-50197-00408-40000138D0000999D0012600000RT8       GGSL
TXBWIC21050-50197-00418-30000282D0003563D0029200010RT18      GGSL
TXBWIC21050-50197-00604-00000222D0001040D0051900504BT4       GGSL
TXBWIC21050-50197-00618-70000006D0000074D0000600000BT18      GGSL
TXBWIC21050-50197-00704-70000264D0001252D0103300072TR4       GGSL
TXBWIC21050-50197-00718-40000051D0000688D0013900024TR18      GGSL
TXBWIC21050-50197-00904-10001146D0005499D0228902208TO4       GGSL
TXBWIC21050-50197-00908-60000120D0000886D0014400000TO8       GGSL
TXBWIC21050-50197-00918-80000111D0001450D0014300010TO18      GGSL
TXBWIC21050-50197-01004-70000144D0000666D0018000756BM04      GGSL
TXBWIC21050-50197-01106-80000792D0007773D0002400024gs6       GGSL
TXBWIC21050-50197-01130-30000011D0000355D0000000000gs30      GGSL
TXBWIC21050-50197-01207-20000095D0000658D0000000072RP7       GGSL
TXBWIC21050-50197-01228-70000031D0000512D0004800035RP28      GGSL
TXBWIC21050-50197-01303-10000156D0000930D0032401068DB03      GGSL
TXBWIC21050-50197-01317-80000035D0001115D0011000000DB17      GGSL
TXBWIC21050-50197-01403-80000012D0000069D0001200000CM3       GGSL
TXBWIC21050-50197-01606-30000012D0000103D0000000000TP6       GGSL
TXBWIC21050-50197-01706-00000006D0000050D0000000000PO6       GGSL
TXBWIC21050-50197-01803-60000096D0000351D0008400012GM3       GGSL
TXBWIC21050-50197-01825-80000291D0002930D0016000032GM25      GGSL
TXBWIC21050-50197-02006-00000330D0000833D0073500150GL6       GGSL
TXBWIC21050-50197-02206-40000222D0001105D0042900240GG6       GGSL
TXBWIC21050-50197-02304-70000012D0000062D0001200012CS4       GGSL
TXBWIC21050-50197-02703-80000036D0000449D0000000000KM4       GGSL
TXBWIC21050-50197-02904-90000702D0003344D0105000732FT4       GGSL
TXBWIC21050-50197-02918-60000089D0001164D0022800004FT18      GGSL
TXBWIC21050-50197-03804-10002742D0014966D0111900702BTSP4     GGSL
TXBWIC21050-50197-03808-90000042D0000429D0000000000BTSP8     GGSL
TXBWIC21050-50197-03818-80000063D0001351D0006600000BTSP18    GGSL
TXBWIC21050-50197-03825-60000342D0009019D0044800060BTSP25    GGSL
TXBWIC21050-50197-03904-80000552D0002588D0092700528PM4       GGSL
TXBWIC21050-50197-03920-80000134D0001743D0006700000PM20      GGSL
TXBWIC21050-50197-05004-30000804D0003753D0182101524CT4       GGSL
TXBWIC21050-50197-05018-00000115D0001519D0012700009CT18      GGSL
TXBWIC21050-50197-05320-40000042D0000704D0001000000ELF20     GGSL
TXBWIC21050-50197-05420-10000010D0000155D0008300005it20      GGSL
TXBWIC21050-50197-05628-10000020D0000528D0011700020EOLF28    GGSL
TXBWIC21050-50197-05730-10000003D0000063D0000100000EOSR30    GGSL
TXBWIC21050-50197-06203-90000048D0000241D0001200000AL3       GGSL
TXBWIC21050-50197-06504-70000552D0002599D0098400840AT4       GGSL
TXBWIC21050-50197-06508-50000114D0000811D0006000000AT8       GGSL
TXBWIC21050-50197-06518-40000023D0000306D0002700000AT18      GGSL
TXBWIC21050-50197-06604-40000294D0001442D0073200126BR4       GGSL
TXBWIC21050-50197-30508-20000030D0000131D0000600006INPF8     GGSL
TXBWIC21050-50197-30608-90000012D0000051D0000000000CAPF8     GGSL
TXBWIC21050-50197-30708-60000018D0000078D0000600006VIPF8     GGSL
TXBWIC21050-50197-30808-30000018D0000080D0000000006ORPF8     GGSL
TXBWIC21050-50197-51524-50000006D0000033D0000000000EOIC24    GGSL
TXBWIC21050-50197-70101-30001523D0008753D0030800000ap1       GGSL
TXBWIC21050-50197-70102-00000569D0005141D0027700048ap2       GGSL
TXBWIC21050-50197-70304-80000260D0000655D0043200048ca4       GGSL
TXBWIC21050-50197-70308-60000078D0000336D0015600030ca8       GGSL
TXBWIC21050-50197-70608-70000012D0000054D0001800006PTM8      GGSL
TXBWIC21050-50197-71202-60000013D0000167D0000000000mm2       GGSL
TXBWIC21050-50197-71304-70000048D0000295D0006000300EC4       GGSL
TXBWIC21050-50197-71501-00000498D0002871D0050400000lsc1      GGSL
TXBWIC21050-50197-71601-70000114D0000577D0078900000dcm1      GGSL
TXBWIC21050-50197-71804-20000024D0000174D0000000000BO4       GGSL
TXBWIC21050-50197-71904-90000048D0000333D0018000012HC4       GGSL
TXBWIC21050-50197-80117-10000344D0003365D0074200120SC17      GGSL
TXBWIC21050-50349-01003-10000001D0000030D00000000031003-012  GGSL
TXBWIC21050-50349-01009-30000001D0000042D00000000001009-012  GGSL
TXBWIC21050-50349-01037-60000006D0000492D00000000001037-012  GGSL
TXBWIC21050-50349-01041-30000001D0000086D00000000001041-012  GGSL
TXBWIC21050-50349-01043-70000154D0002804D00000000001043-009  GGSL
TXBWIC21050-50349-01069-70000080D0000289D00080000001069-012  GGSL
TXBWIC21050-50349-01072-70000001D0000073D00000000001072-012  GGSL
TXBWIC21050-50349-10110-50000009D0000620D00000000001022-012  GGSL
TXBWIC21050-50349-10211-20000010D0000547D00000000001012-012  GGSL
TXBWIC21050-50349-10230-00000003D0000237D00001000001054-012  GGSL
TXBWIC21050-50349-10710-70000002D0000122D00000000001021-012  GGSL
TXBWIC21050-50699-00000-00000011D0000102D0001600001303460    GGSL
TXBWIC21050-50699-00001-00000001D0000011D0009700000300001    GGSL
TXBWIC21050-50699-00014-00000005D0000023D0004600001300014    GGSL
TXBWIC21050-50699-00128-10000001D0000032D0001000000300128    GGSL
TXBWIC21050-50699-00212-00000012D0000098D0036900000300212    GGSL
TXBWIC21050-50699-00436-00000012D0000079D0000000000300436    GGSL
TXBWIC21050-51497-15464-60000005D0000700D000100001015464     GGSL
TXBWIC21050-52427-00551-90000002D0000039D00000000004500102   GGSL
TXBWIC21050-52427-01038-40000002D0000036D0000000000105462    GGSL
TXBWIC21050-52427-01048-30000003D0000111D0000000000105629    GGSL
TXBWIC21050-52732-00000-00000006D0000262D00000000182030.0    GGSL
TXBWIC21050-52732-10012-10000050D0005803D000630001010001     GGSL
TXBWIC21050-52732-10225-50000010D0000281D000130000060009.0   GGSL
TXBWIC21050-52732-20505-50000016D0001302D00090000022050SU    GGSL
TXBWIC21050-52732-20509-30000017D0002260D00050000042050P     GGSL
TXBWIC21050-52732-20519-20000010D0001343D00005000042050TP    GGSL
TXBWIC21050-52732-27500-30000204D0007795D00013000122750      GGSL
TXBWIC21050-52732-34000-80000001D0000021D00010000003400.0    GGSL
TXBWIC21050-52732-65000-80000006D0000648D00000000006500.0    GGSL
TXBWIC21050-52732-68016-60000002D0000580D0002100000F80       GGSL
TXBWIC21050-53291-11002-60000672D0006717D0010800060820-1002  GGSL
TXBWIC21050-53291-19881-90000004D0000043D0002400000820-1002  GGSL
TXBWIC21050-53291-19937-30000012D0000021D0006000000820-0409  GGSL
TXBWIC21050-53291-30000-00000007D0002063D0000700001820-1024  GGSL
TXBWIC21050-53291-40095-00000006D0000095D0002400000840-0095  GGSL
TXBWIC21050-53291-55981-80000432D0001620D0004800036820-0188  GGSL
TXBWIC21050-56554-31358-50000006D0000061D0000000000SRA13001P0GGSL
TXBWIC21050-56554-92105-60000012D0000046D0000000000LIA10000A4GGSL
TXBWIC21050-66498-01115-70000383D0007741D000000006701115.0   GGSL
TXBWIC21050-66498-02115-60001885D0025995D000800023502775.0   GGSL
TXBWIC21050-66498-02185-90000510D0007570D000000003002185     GGSL
TXBWIC21050-66498-02330-90000030D0000424D00000001206649802330GGSL
TXBWIC21050-66498-03175-90000707D0007442D000000000003175     GGSL
TXBWIC21050-66498-04175-80000145D0001326D000000003204175.0   GGSL
TXBWIC21050-66498-05113-90000556D0003125D000010007405175.0   GGSL
TXBWIC21050-66498-08781-30000003D0000025D00000000009781      GGSL
TXBWIC21050-66498-09782-30000035D0000367D000010000009782.0   GGSL
TXBWIC21050-66498-09785-40000012D0000048D000000000009785     GGSL
TXBWIC21050-66498-09795-30000075D0000680D000000000009795     GGSL
TXBWIC21050-66498-09901-80004211D0027354D111380061809901.0   GGSL
TXBWIC21050-66498-09902-50006471D0061332D026910026309902.0   GGSL
TXBWIC21050-66498-09903-20003477D0046405D015720022209903.0   GGSL
TXBWIC21050-66498-09925-40000150D0000572D003780004209925     GGSL
TXBWIC21050-66498-09929-20000017D0000096D003700000009929     GGSL
TXBWIC21050-66498-09937-70002244D0006101D043080114009937     GGSL
TXBWIC21050-66498-09939-10000053D0000561D000000000009939     GGSL
TXBWIC21050-66498-09947-60000502D0001345D005160026409947     GGSL
TXBWIC21050-66498-09950-50001638D0008015D015000058809955     GGSL
TXBWIC21050-66498-09965-00000828D0005077D012660042009965     GGSL
TXBWIC21050-66498-09977-30000612D0003376D005280001209977     GGSL
TXBWIC21050-66498-09985-80000348D0001292D003540039609985     GGSL
TXBWIC21050-66498-89905-20002154D0008293D052880021609905     GGSL
TXBWIC21050-66498-99827-40001728D0006978D020400039609827     GGSL
TXBWIC21050-70183-50005-50000208D0005626D00468000045000510   GGSL
TXBWIC21050-70183-50006-20000210D0007694D00258000065000610   GGSL
TXBWIC21050-70183-50023-90000102D0002703D00276000065002306   GGSL
TXBWIC21050-70183-50026-00000399C0000000D00920000085002610   GGSL
TXBWIC21050-70183-50027-70000276D0001260D00342000425002715   GGSL
TXBWIC21050-70183-50029-10000068D0000846D00204000125007410   GGSL
TXBWIC21050-70183-50034-50001677D0007098D02853000365003470   GGSL
TXBWIC21050-70183-50038-30000548D0006776D00252000005003810   GGSL
TXBWIC21050-70183-50042-00000056D0005053D00051000045004215   GGSL
TXBWIC21050-70183-50055-00001200D0013426D00912000125005510   GGSL
TXBWIC21050-70183-50060-40000594D0020091D00219000125006010   GGSL
TXBWIC21050-70183-50085-70000006D0000420D00000000065008510   GGSL
TXBWIC21050-70183-51001-60000719D0013122D01120000125100114   GGSL
TXBWIC21050-70183-51006-10000602D0031811D00912000005100610   GGSL
TXBWIC21050-70183-51007-80000258D0010240D00540000005100710   GGSL
TXBWIC21050-70183-51009-20000092D0001272D00244000045004010   GGSL
TXBWIC21050-70183-51019-10000192D0004143D00352000005101910   GGSL
TXBWIC21050-70183-51073-30000150D0000758D00558000005107315   GGSL
TXBWIC21050-70183-51090-00000439D0010856D00905000205109010   GGSL
TXBWIC21050-70183-52005-30000020D0000447D00092000125200510   GGSL
TXBWIC21050-70183-52039-80000312D0006857D00220000005203910   GGSL
TXBWIC21050-70183-52350-40000008D0000208D00048000005235010   GGSL
TXBWIC21050-70183-57050-80000162D0004740D00180000065705010   GGSL
TXBWIC21050-70183-57080-50000036D0000565D00008000005708010   GGSL
TXBWIC21050-70183-57250-20000188D0004243D00276000085725070   GGSL
TXBWIC21050-70251-65240-20000011D0000310D0002000000652400    GGSL
TXBWIC21050-70251-75546-20000024D0000182D0009600003755460    GGSL
TXBWIC21050-70251-76116-60000198D0002289D0029100000761160    GGSL
TXBWIC21050-70251-79160-60000048D0000554D0010500087791600    GGSL
TXBWIC21050-70251-81182-30000015D0000183D00135000008111082   GGSL
TXBWIC21050-70251-81482-40001224D0007410D00633000608141082   GGSL
TXBWIC21050-70251-82746-60000018D0000228D00102000008274600   GGSL
TXBWIC21050-70805-00000-00000240D0002715D0000000000SH1YWCUSTOGGSL
TXBWIC21050-70805-51001-10001150D0002858D030500008070805-010-GGSL
TXBWIC21050-70805-51002-80000857D0003828D013930001570805-005-GGSL
TXBWIC21050-70805-51013-40003479D0050236D0214800069BD02      GGSL
TXBWIC21050-70805-51024-00000180D0000620D003180002470805-006-GGSL
TXBWIC21050-70805-51025-70004432D0052503D068790045670805-001-GGSL
TXBWIC21050-70805-51026-40000432D0001443D004200001270805-006-GGSL
TXBWIC21050-70805-51033-20000299D0004020D011400000570805-001-GGSL
TXBWIC21050-70805-51034-90000383D0009932D008770000870805-001-GGSL
TXBWIC21050-70805-51037-00000018D0000228D001720000170805-001-GGSL
TXBWIC21050-70805-51038-70000077D0001817D003060000070805-001-GGSL
TXBWIC21050-70805-51051-60000160D0001044D004080000070805-008-GGSL
TXBWIC21050-70805-53003-30002652D0021369D0441300228BD021     GGSL
TXBWIC21050-70805-62025-30006877D0151771D109590038970805-001-GGSL
TXBWIC21050-70805-84052-10000054D0001643D0014800004KERNEL_M-0GGSL
TXBWIC21050-70805-84053-80000136D0002875D003170000170805-001-GGSL
TXBWIC21050-70805-84054-50000148D0002516D006550000070805-001-GGSL
TXBWIC21050-70805-84075-00000690D0021814D017990002470805-001-GGSL
TXBWIC21050-70805-84076-70000160D0008904D003470005470805-001-GGSL
TXBWIC21050-70805-84077-40000066D0003785D0012600005KERNEL_M-0GGSL
TXBWIC21050-70805-84079-80000251D0010148D005680001170805-001-GGSL
TXBWIC21050-70805-84093-40000046D0002246D0010600001PEANUTSPL-GGSL
TXBWIC21050-70923-00000-00000114D0000502D0052900042600.0     GGSL
TXBWIC21050-70923-00196-50000144D0000297D0162000036T100-12   GGSL
TXBWIC21050-70923-00300-60000469D0002290D0242400053T300FD    GGSL
TXBWIC21050-70923-00402-70000078D0000242D0014400048T401-6    GGSL
TXBWIC21050-70923-00912-10000015D0000082D0010200000T901-6    GGSL
TXBWIC21050-70923-02301-10000024D0000077D0004200000T2302-6   GGSL
TXBWIC21050-70923-02900-60000172D0000857D0014800016T2900     GGSL
TXBWIC21050-70923-08515-60000024D0000037D0016800456T3206     GGSL
TXBWIC21050-70923-11915-80000002D0000414D0000000000T2502-DS  GGSL
TXBWIC21050-70923-12117-50000001D0000022D0000600000T300-NT   GGSL
TXBWIC21050-70923-12277-60000078D0000378D0000900000T1812     GGSL
TXBWIC21050-70923-29432-90000018D0000150D0007800006T514      GGSL
TXBWIC21050-70923-64051-50000012D0000114D0000000006T702      GGSL
TXBWIC21050-70923-66431-30000006D0000074D0000000000T1240     GGSL
TXBWIC21050-70923-69500-30000020D0000766D0002100000T2512     GGSL
TXBWIC21050-70923-85843-90000006D0000017D0000000000T513      GGSL
TXBWIC21050-71092-32500-80000558D0002602D0118800060T2506     GGSL
TXBWIC21050-71121-04460- 0000018D0000174D0000000000HG-61067  GGSL
TXBWIC21050-71121-05580-40000108D0000842D00606000125580      GGSL
TXBWIC21050-71121-53940-30000004D0000035D0000000000HG-53944  GGSL
TXBWIC21050-71121-95704-70000030D0000182D0003000012HG-95704  GGSL
TXBWIC21050-71121-95830-30000009D0000086D0001200003HG-95830  GGSL
TXBWIC21050-71121-96280-50000055C0000086C0000000000HG-96280  GGSL
TXBWIC21050-71121-96281-20000372D0001704D0060600078HG-96281  GGSL
TXBWIC21050-71121-96541-70000060D0000565D0000000000hg-96541  GGSL
TXBWIC21050-71549-01128-40000040D0000121D00344000000112812   GGSL
TXBWIC21050-71549-01129-10000071D0000206D00520000000112912   GGSL
TXBWIC21050-71549-01656-20000024D0000176D00369000000165610   GGSL
TXBWIC21050-71549-01666-10000048D0000572D00054000000166610   GGSL
TXBWIC21050-71549-01672-20003336D0035962D00000000000167224   GGSL
TXBWIC21050-71549-01738-50000306D0002360D00450000120173810   GGSL
TXBWIC21050-71549-01748-40000036D0000281D00255000000174810   GGSL
TXBWIC21050-71549-01925-90000012D0000064D00000000000192510   GGSL
TXBWIC21050-71549-01936-50001648C0000064C00081000120193610   GGSL
TXBWIC21050-71549-02000-20000024D0000398D00136000000200010   GGSL
TXBWIC21050-71549-02003-30000200D0003283D00440000280200310   GGSL
TXBWIC21050-71549-02014-90000120D0000720D00276000000201405   GGSL
TXBWIC21050-71549-02027-90000008D0000050D00000000000202712   GGSL
TXBWIC21050-71549-02044-60000112D0000841D00144000200204410   GGSL
TXBWIC21050-71549-02045-30000020D0000287D00124000000204510   GGSL
TXBWIC21050-71549-02047-70001080D0005942D00876000000204710   GGSL
TXBWIC21050-71549-02048-40000016D0000404D00008000120204810   GGSL
TXBWIC21050-71549-02049-10001080D0007076D00600000000204910   GGSL
TXBWIC21050-71549-02054-50000040D0000219D00040000000205408   GGSL
TXBWIC21050-71549-02055-20000942D0002091D01290000300205506   GGSL
TXBWIC21050-71549-02057-60000066D0000306D00300000000205710   GGSL
TXBWIC21050-71549-02127-60000028D0000336D00020000040212710   GGSL
TXBWIC21050-71549-02208-20000484D0004098D00884000080220810   GGSL
TXBWIC21050-71549-02219-80000008D0000056D00024000000221910   GGSL
TXBWIC21050-71549-02575-50000012D0003813D00000000000200328   GGSL
TXBWIC21050-71549-02756-80000024D0000058D00264000080275612   GGSL
TXBWIC21050-71549-02822-00003462D0031999D02250000180282210   GGSL
TXBWIC21050-71549-03390-30000006D0000082D00018000000339010   GGSL
TXBWIC21050-71549-03455-90000012D0000066D00012000000345510   GGSL
TXBWIC21050-71549-03456-60000144D0000596D00156001860345610   GGSL
TXBWIC21050-71549-03964-60000084D0000531D00054000000396410   GGSL
TXBWIC21050-71549-03987-50000114D0001198D00003000000398710   GGSL
TXBWIC21050-71549-04253-00001200D0007290D00644000080425310   GGSL
TXBWIC21050-71549-04256-10000005D0001468D00000000000425610   GGSL
TXBWIC21050-71549-04318-60000048D0000226D00772000009994318   GGSL
TXBWIC21050-71549-04378-00000045D0000410D00441000000437806   GGSL
TXBWIC21050-71549-04380-30000072D0000294D00312000400438006   GGSL
TXBWIC21050-71549-04385-80000423D0001785D01260002940438580   GGSL
TXBWIC21050-71549-04465-70000060D0000796D00020000000446505   GGSL
TXBWIC21050-71549-04475-60000040D0000677D00032000000447505   GGSL
TXBWIC21050-71549-04477-00000210D0000942D00282000180447705   GGSL
TXBWIC21050-71549-04478-70000252D0002183D00396000000447805   GGSL
TXBWIC21050-71549-04479-40000348D0002785D00828000000447905   GGSL
TXBWIC21050-71549-04481-70000272D0002311D00148000000448105   GGSL
TXBWIC21050-71549-04486-20000108D0000809D00000000060448605   GGSL
TXBWIC21050-71549-04487-90000102D0000718D00006000000448705   GGSL
TXBWIC21050-71549-04488-60000052D0000734D00048000000448805   GGSL
TXBWIC21050-71549-04489-30000008D0000072D00000000000448905   GGSL
TXBWIC21050-71549-04491-60000228D0001989D00264000120449105   GGSL
TXBWIC21050-71549-04493-00000060D0000515D00080000000449305   GGSL
TXBWIC21050-71549-04494-70000084D0000697D00456000000449405   GGSL
TXBWIC21050-71549-04495-40000066D0000293D00132000000449505   GGSL
TXBWIC21050-71549-04613-20000060D0000396D00192000000461412   GGSL
TXBWIC21050-71549-04616-30000012D0000066D00336000000461612   GGSL
TXBWIC21050-71549-04657-60000010D0000092D00140000000465705   GGSL
TXBWIC21050-71549-04745-00000141D0001024D00280000300474510   GGSL
TXBWIC21050-71549-04757-30000052D0000749D00120000000475705   GGSL
TXBWIC21050-71549-04758-00000011D0000269D00021000010475805   GGSL
TXBWIC21050-71549-04759-70000020D0001353D00011000000475905   GGSL
TXBWIC21050-71549-04910-20000108D0000441D00048000000491010   GGSL
TXBWIC21050-71549-07472-20000054D0000202D00036000120747210   GGSL
TXBWIC21050-71549-08410-30000516D0004749D01074000900841010   GGSL
TXBWIC21050-71549-43331-40000084D0000490D01200000000433310   GGSL
TXBWIC21050-71549-43361-10000686D0011283D00440000040433610   GGSL
TXBWIC21050-71549-43371-00000038D0001203D00218000000433710   GGSL
TXBWIC21050-71549-43701-50000064D0001394D00320000000437010   GGSL
TXBWIC21050-71549-43820-30000010D0000089D000800000004381012  GGSL
TXBWIC21050-71549-43887-60000456D0001491D00348000124388710   GGSL
TXBWIC21050-71549-43890-60000006D0000034D00000000004389005   GGSL
TXBWIC21050-71549-44551-50000004D0000061D00012000000445510   GGSL
TXBWIC21050-71549-46008-20000036D0000525D00192000004600810   GGSL
TXBWIC21050-71549-46025-90000012D0000062D00570000004602510   GGSL
TXBWIC21050-71549-46132-40001116D0015102D00468000084613264   GGSL
TXBWIC21050-71549-46134-80000018D0000080D00138000004613406   GGSL
TXBWIC21050-71549-46503-20000012D0000189D00540000004650306   GGSL
TXBWIC21050-71549-46510-00000360D0005032D00186000004651005   GGSL
TXBWIC21050-71549-46526-10000020D0000215D00016000444652605   GGSL
TXBWIC21050-71549-46527-80000468D0008299D00156000044652705   GGSL
TXBWIC21050-71549-99008-40000015D0000206D00540001569900810   GGSL
TXBWIC21050-71549-99019-00000156D0001733D00309000009901910   GGSL
TXBWIC21050-71559-04648-40000012D0000063D00006000000464812   GGSL
TXBWIC21050-71693-02252-50000001D0000163D000000000002-CH250  GGSL
TXBWIC21050-71693-04111-30000001D0000308D000000000004-LG1100SGGSL
TXBWIC21050-71693-98901-90000001D0000400D000000000002-HTP250 GGSL
TXBWIC21050-71898-43163-40000827D0018508D00402000227800      GGSL
TXBWIC21050-71898-43180-10000584D0010800D00606000027450      GGSL
TXBWIC21050-71898-43209-90000010D0000237D00230000007822      GGSL
TXBWIC21050-71898-43210-50000041D0001052D00319000007824      GGSL
TXBWIC21050-71898-43211-20000030D0000799D00369000017828      GGSL
TXBWIC21050-71898-43213-60000677D0015053D00503001447324      GGSL
TXBWIC21050-71898-43214-30000281D0005416D00443000227326      GGSL
TXBWIC21050-71898-43215-00000491D0004869D001380007132150     GGSL
TXBWIC21050-72525-00003-00000303D0001097D0060900000HRT-6     GGSL
TXBWIC21050-72525-00005-40000264D0001294D0063900000HRP-16    GGSL
TXBWIC21050-72525-00009-20000024D0000176D0000000000HSG-6     GGSL
TXBWIC21050-72525-00022-10000132D0001015D0038400012HBB-32    GGSL
TXBWIC21050-72525-00048-10000045D0000189D0017100024HDE-8     GGSL
TXBWIC21050-72525-00055-90000114D0000774D0021000000EGG-16    GGSL
TXBWIC21050-72525-00078-80000015D0000052D0009000000BBTRP     GGSL
TXBWIC21050-72532-00014-80001085D0008044D0171301092          GGSL
TXBWIC21050-72532-00015-50000270D0006137D0072800334          GGSL
TXBWIC21050-72532-00016-20000038D0001573D0035100015          GGSL
TXBWIC21050-72532-00017-90000043D0004884D0040700011          GGSL
TXBWIC21050-72532-22310-30000070D0000510D0020000260stspray-10GGSL
TXBWIC21050-72532-33208-90000008D0000060D0000000000stfood32-8GGSL
TXBWIC21050-72693-00014-80000103D0001083D003120007282770001  GGSL
TXBWIC21050-72693-00015-50000198D0013662D007990000882100001  GGSL
TXBWIC21050-72693-00022-30000023D0004828D001890000583000002  GGSL
TXBWIC21050-72693-00029-20000005D0001575D000290000082100002  GGSL
TXBWIC21050-72693-00032-20000024D0000720D000140000082100006  GGSL
TXBWIC21050-72693-00046-90000161D0008092D00767000164985      GGSL
TXBWIC21050-72693-00065-00000012D0000120D000000000082770006  GGSL
TXBWIC21050-72693-00102-20000001D0000055D001550000082701020  GGSL
TXBWIC21050-72693-00210-40000050D0007939D000010001782690021  GGSL
TXBWIC21050-72693-00332-30000033D0000347D001300001082300330  GGSL
TXBWIC21050-72693-00368-20000013D0000663D000150000382690036  GGSL
TXBWIC21050-72693-00480-10000636D0054063D008680004082002490  GGSL
TXBWIC21050-72693-00498-60000511D0021676D012850002482002489  GGSL
TXBWIC21050-72693-00505-10000774D0011880D025980008482002488  GGSL
TXBWIC21050-72693-00993-60000024D0000669D000230000082100099  GGSL
TXBWIC21050-72693-01004-80000032D0001447D001860000082100100  GGSL
TXBWIC21050-72693-01020-80000007D0001562D001620001983014144  GGSL
TXBWIC21050-72693-01021-50000001D0000019D000500000082701021  GGSL
TXBWIC21050-72693-02475-50000214D0005421D00335000002475      GGSL
TXBWIC21050-72693-02478-60000045D0007535D00036000002478      GGSL
TXBWIC21050-72693-02479-30000876D0004365D0276500080CSI2479   GGSL
TXBWIC21050-72693-02504-20000303D0003818D00591000182504.0    GGSL
TXBWIC21050-72693-02506-60002047D0033541D03678000552506.0    GGSL
TXBWIC21050-72693-02507-30000109D0016885D00549000492507.0    GGSL
TXBWIC21050-72693-02686-50000267D0008126D0094900000CSI2686   GGSL
TXBWIC21050-72693-02750-30000058D0002401D0001700005CSI2750   GGSL
TXBWIC21050-72693-03052-70000006D0000380D000480000082300305  GGSL
TXBWIC21050-72693-03143-20000042D0000370D004620000082300314  GGSL
TXBWIC21050-72693-03154-80000150D0001696D009780000O82300315  GGSL
TXBWIC21050-72693-03164-70000021D0000172D000420000682300316  GGSL
TXBWIC21050-72693-03174-60000024D0000242D000600001282300317  GGSL
TXBWIC21050-72693-03188-30000001D0000042D000690004882300318  GGSL
TXBWIC21050-72693-03194-40000018D0000554D000660000682300319  GGSL
TXBWIC21050-72693-03254-50000033D0001649D0069200025CSI3254   GGSL
TXBWIC21050-72693-03270-50001388C0001649C000100000082300327  GGSL
TXBWIC21050-72693-03284-20000024D0000192D000900000082300328  GGSL
TXBWIC21050-72693-03298-90000303D0022119D003190000082300329  GGSL
TXBWIC21050-72693-03395-50000004D0000780D000270000082300339  GGSL
TXBWIC21050-72693-03598-00005071D0175418D0585901134CSI3598   GGSL
TXBWIC21050-72693-03599-70001345D0127775D029750035482003599  GGSL
TXBWIC21050-72693-04320-60003504D0140606D03413003844320      GGSL
TXBWIC21050-72693-04430-20001110D0017779D03540002764430.0    GGSL
TXBWIC21050-72693-04431-90002304D0048223D02286000464431.0    GGSL
TXBWIC21050-72693-04432-60004322D0119550D05224012914432      GGSL
TXBWIC21050-72693-04435-70004335D0153893D093650068382004435  GGSL
TXBWIC21050-72693-04438-80005245D0076516D09112028404438      GGSL
TXBWIC21050-72693-04491-30000282D0001961D00633000604491      GGSL
TXBWIC21050-72693-04493-70000283D0005171D00800000484493      GGSL
TXBWIC21050-72693-04500-20000023D0001380D000520002682304500  GGSL
TXBWIC21050-72693-04504-00000435D0011889D01086000504505.0    GGSL
TXBWIC21050-72693-04505-70001146D0079726D02886001054506.0    GGSL
TXBWIC21050-72693-04506-40000631D0010268D01592000364504      GGSL
TXBWIC21050-72693-04508-80000258D0002841D01990000124508      GGSL
TXBWIC21050-72693-04515-60000009D0000459D00067000024515.0    GGSL
TXBWIC21050-72693-04517-00000008D0000748D00079000004517      GGSL
TXBWIC21050-72693-04964-20012719D0113870D3377402555MT10002KITGGSL
TXBWIC21050-72693-05004-40000528D0002804D02832000365004      GGSL
TXBWIC21050-72693-05005-10000582D0007546D03924000305005      GGSL
TXBWIC21050-72693-05007-50000360D0009883D01393000965007.0    GGSL
TXBWIC21050-72693-05200-00000228D0002340D011760001230466.0   GGSL
TXBWIC21050-72693-05201-70000936D0004793D02208000485201      GGSL
TXBWIC21050-72693-05202-40000462D0006041D01932000125202      GGSL
TXBWIC21050-72693-06002-90000930D0010249D0398400066MART4318  GGSL
TXBWIC21050-72693-06003-60000680D0016077D0175600136MART4319  GGSL
TXBWIC21050-72693-08300-40001014D0043745D02946002328300.0    GGSL
TXBWIC21050-72693-10002-20000015D0000190D000490000010002.0   GGSL
TXBWIC21050-72693-10011-40000432D0002910D0176400012MART4317  GGSL
TXBWIC21050-72693-10012-10000024D0000415D000220000082210011  GGSL
TXBWIC21050-72693-10013-80000072D0000508D002280000082210012  GGSL
TXBWIC21050-72693-10014-50000192D0005505D000000000082210014  GGSL
TXBWIC21050-72693-10015-20000006D0000058D001860000082210015  GGSL
TXBWIC21050-72693-10221-70000013D0000357D002070000082210022  GGSL
TXBWIC21050-72693-10231-60000060D0000537D003180000082210023  GGSL
TXBWIC21050-72693-14057-80000220D0014490D006930000983014005  GGSL
TXBWIC21050-72693-14081-30000008D0000432D000040000083014008  GGSL
TXBWIC21050-72693-24010-00000128D0003106D00287000012401      GGSL
TXBWIC21050-72693-24030-80000353D0026628D01303000572403      GGSL
TXBWIC21050-72693-24925-70000213D0008882D001350006382002492  GGSL
TXBWIC21050-72693-24957-80000116D0000647D006560007782002495  GGSL
TXBWIC21050-72693-29101-00000211D0011605D001690000683012910  GGSL
TXBWIC21050-72693-29912-20001104D0013078D0224900021QP12991   GGSL
TXBWIC21050-72693-30018-70000004D0000854D000110000083100018  GGSL
TXBWIC21050-72693-31550-10000001D0000165D000830000082300332  GGSL
TXBWIC21050-72693-31766-60000127D0001852D005410004231766     GGSL
TXBWIC21050-72693-31967-70000002D0000275D000200000031968     GGSL
TXBWIC21050-72693-31973-80000137D0003384D004030000131973.0   GGSL
TXBWIC21050-72693-31975-20000007C0000420D002970000631975.0   GGSL
TXBWIC21050-72693-31984-40000798D0008949D030490073531984.0   GGSL
TXBWIC21050-72693-31985-10001695D0019362D037080113131985     GGSL
TXBWIC21050-72693-33563-90000042D0002444D002590001283013356  GGSL
TXBWIC21050-72693-33655-10000004D0000144D000120001283013365  GGSL
TXBWIC21050-72693-33688-90000085D0006294D002760000583013368  GGSL
TXBWIC21050-72693-33730-90000012D0001876D000000000083013373  GGSL
TXBWIC21050-72693-33820-30000005D0001560D000910000183013382  GGSL
TXBWIC21050-72693-33850-00000111D0011767D003000000083013385  GGSL
TXBWIC21050-72693-33880-70000018D0002595D000510000283013388  GGSL
TXBWIC21050-72693-33953-80000953D0032481D0114900062          GGSL
TXBWIC21050-72693-34958-20000046D0003412D002060002283013884  GGSL
TXBWIC21050-72693-36208-60000595D0022920D008210001683013620  GGSL
TXBWIC21050-72693-37888-90000076D0003422D000000000083013788  GGSL
TXBWIC21050-72693-38178-00000036D0001563D000160038083013817  GGSL
TXBWIC21050-72693-38271-80000008D0000784D000380000013827     GGSL
TXBWIC21050-72693-38528-30000005D0001937D000510000083013852  GGSL
TXBWIC21050-72693-38610-50000008D0008293D000020000083013861  GGSL
TXBWIC21050-72693-38830-70000012D0000362D000000000083013833  GGSL
TXBWIC21050-72693-39988-40000014D0001785D000140000083013998  GGSL
TXBWIC21050-72693-40010-80000026D0004080D001000000083014003  GGSL
TXBWIC21050-72693-40127-30000010D0000512D001620000083014012  GGSL
TXBWIC21050-72693-40177-80000954D0005150D02796000724017B     GGSL
TXBWIC21050-72693-41488-40000048D0003687D000080001283014148  GGSL
TXBWIC21050-72693-41878-30000443D0016797D008110028783014187  GGSL
TXBWIC21050-72693-44290-00000534D0006473D02054000544429      GGSL
TXBWIC21050-72693-44410-20001907D0066498D02298001504441.0    GGSL
TXBWIC21050-72693-44430-00000780D0088067D0071800062MART4443  GGSL
TXBWIC21050-72693-44650-20000147D0002895D00339000004465.0    GGSL
TXBWIC21050-72693-44660-10000069D0003964D00079000044466      GGSL
TXBWIC21050-72693-45000-40000312D0002061D01449002284500.0    GGSL
TXBWIC21050-72693-45010-30000828D0007644D02155001684501      GGSL
TXBWIC21050-72693-45020-20000540D0007754D02016002284502      GGSL
TXBWIC21050-72693-45030-10000639D0029505D00529000044503.0    GGSL
TXBWIC21050-72693-45115-50000138D0000982D002550008482004511  GGSL
TXBWIC21050-72693-45530-60000074D0002559D00050000024553.0    GGSL
TXBWIC21050-72693-46930-30000328D0002798D00888000084693      GGSL
TXBWIC21050-72693-46950-10000076D0002136D00206000084695      GGSL
TXBWIC21050-72693-46970-90000027D0004742D00069000054697.0    GGSL
TXBWIC21050-72693-50064-80000312D0002730D014870184882005006  GGSL
TXBWIC21050-72693-50096-90000016D0001333D000720000082005009  GGSL
TXBWIC21050-72693-69370-80000048D0000368D002880000082690037  GGSL
TXBWIC21050-72693-70004-80000112D0001065D005310010682770008  GGSL
TXBWIC21050-72693-77034-80000263D0002762D007200024082770003  GGSL
TXBWIC21050-72693-81001-30000034D0000477D001030000782810002  GGSL
TXBWIC21050-72693-82104-00003664D0107850D063850081182100005  GGSL
TXBWIC21050-72693-82303-70000192D0001090D014280002482300001  GGSL
TXBWIC21050-72711-60018-30000008D0000330D000290000160012     GGSL
TXBWIC21050-72725-00023-80000052D0000731D0033600012HBB-128   GGSL
TXBWIC21050-72725-00077-10000015D0000051D0000000000RTRP      GGSL
TXBWIC21050-72725-00087-00000012D0000049D0000000012RA-16     GGSL
TXBWIC21050-72725-00158-70000020D0000810D0018800000BLKBB-128 GGSL
TXBWIC21050-72725-00183-90000036D0000498D0011700000BLKBB-326 GGSL
TXBWIC21050-72725-00213-30000060D0000468D0012300000BLKBB-16A GGSL
TXBWIC21050-72725-00214-00000012D0000082D0009600000BLKBB-P4  GGSL
TXBWIC21050-72725-00215-40000004D0000108D0002800016BBKIT-LGVPGGSL
TXBWIC21050-72725-00242-30000001D0000194D0000000000blkrat1-96GGSL
TXBWIC21050-72725-00259-10000012D0000054D0032400132CR-32     GGSL
TXBWIC21050-72725-00269-00000252D0002007D0085800426DE-FG105P GGSL
TXBWIC21050-72725-00407-60000144D0000897D0084000012DE-FG2P   GGSL
TXBWIC21050-72725-00408-30000200D0001845D0080800432DE-FG4P   GGSL
TXBWIC21050-72725-00461-80000156D0000497D0000000828360-32S   GGSL
TXBWIC21050-72725-00462-50000006D0000102D0000000000GOLDBB-326GGSL
TXBWIC21050-72725-00463-20000004D0000246D0000000000GOLDBB-128GGSL
TXBWIC21050-72868-00000-00000432D0000305D0912000000M330      GGSL
TXBWIC21050-72868-00300-40000348D0001055D0000000084M6006     GGSL
TXBWIC21050-72868-00326-40004116D0005931D2404804920M326      GGSL
TXBWIC21050-72868-00800-90000138D0001555D0091200954M6009     GGSL
TXBWIC21050-72868-02000-10000018D0000281D0009600012M9015     GGSL
TXBWIC21050-72868-02220-30000336D0002142D0196000016M6004     GGSL
TXBWIC21050-72868-02300-20000018D0000118D0001800000M7001-1   GGSL
TXBWIC21050-72868-02400-90000036D0000418D0011600296M7002-2   GGSL
TXBWIC21050-72868-03620-00000120D0008771D0042400041VP362     GGSL
TXBWIC21050-72868-03630-90000538D0003939D0160400286VP363     GGSL
TXBWIC21050-72868-03648-40002018D0022513D0300200157VP364B    GGSL
TXBWIC21050-72868-09012-70000036D0000685D0000000000M9012     GGSL
TXBWIC21050-72868-09014-10000004D0000060D0000000000M9014     GGSL
TXBWIC21050-72868-09320-30007776D0001453D5270400000M320      GGSL
TXBWIC21050-72868-11751-00000012D0000090D0016200012M751K     GGSL
TXBWIC21050-72868-13035-90000684D0000596D0826800288M035      GGSL
TXBWIC21050-72868-13200-10001308D0001853D0481200240200R      GGSL
TXBWIC21050-72868-13308-40000068D0000703D0085600024M308      GGSL
TXBWIC21050-72868-13309-10014904D0002713D5911203168M309      GGSL
TXBWIC21050-72868-13310-70000012D0000160D0034200000M310S     GGSL
TXBWIC21050-72868-13325-10004176D0001606D2254402016M325      GGSL
TXBWIC21050-72868-13327-50000750D0000144D1740000000M327      GGSL
TXBWIC21050-72868-13362-60000001D0000005D0000400000M362      GGSL
TXBWIC21050-72868-51804-10000048D0000078D0000000000M182      GGSL
TXBWIC21050-72868-54002-80000492D0000760D0494400204M668      GGSL
TXBWIC21050-72868-54102-50000960D0001794D1034400156M669      GGSL
TXBWIC21050-72874-00117-90000012D0000062D00120000002393      GGSL
TXBWIC21050-72874-04985-00000012D0000129D00096000004050S     GGSL
TXBWIC21050-72874-06465-50000063C0000129C00516000008412L     GGSL
TXBWIC21050-72874-06850-90000012D0000140D00042000006039M     GGSL
TXBWIC21050-72874-06851-60000012D0000140D00090000066039L     GGSL
TXBWIC21050-72874-06852-30000012D0000140D00048000006039X     GGSL
TXBWIC21050-72874-06948-30000012D0000026D00228000008442X     GGSL
TXBWIC21050-72874-40110-80000024D0000028D00060000004011      GGSL
TXBWIC21050-72874-40200-60000012D0000010D00420000004020L     GGSL
TXBWIC21050-72874-40206-80000012D0000010D00060000004020B     GGSL
TXBWIC21050-72874-40940-10000024D0000098D00060000004094L     GGSL
TXBWIC21050-72874-40945-60000024D0000098D00144000004094J     GGSL
TXBWIC21050-73035-01212-60000012D0000073D002280020401212     GGSL
TXBWIC21050-73035-01310-90000312D0001268D000840031201310     GGSL
TXBWIC21050-73035-01312-30000024D0000108D000240003601312     GGSL
TXBWIC21050-73035-02010-70000288D0000682D000320000002010     GGSL
TXBWIC21050-73035-02610-90000480D0000195D004800144002610     GGSL
TXBWIC21050-73035-02611-60000320D0000125D000000000002611     GGSL
TXBWIC21050-73035-02612-30001920D0000752D060800032002612     GGSL
TXBWIC21050-73035-04226-00000130D0000571D001550049004226     GGSL
TXBWIC21050-73035-06002-80000228D0000161D001560002406001     GGSL
TXBWIC21050-73035-06127-80000056D0000217D002560045606127     GGSL
TXBWIC21050-73035-06528-30000032D0000137D000000000006528     GGSL
TXBWIC21050-73035-06703-40000060D0000152D000720045606703     GGSL
TXBWIC21050-73035-09026-10000006D0000038D000000000609026     GGSL
TXBWIC21050-73035-09226-50000006D0000037D000120000009226     GGSL
TXBWIC21050-73035-09327-90000096D0000617D002040003009327     GGSL
TXBWIC21050-73035-09364-40000228D0001466D000000001809364     GGSL
TXBWIC21050-73035-09526-60000354D0001876D000000000009526     GGSL
TXBWIC21050-73035-25001-60000017D0000381D000000007305031T    GGSL
TXBWIC21050-73513-00339- 0000036D0000208D00084000183003310   GGSL
TXBWIC21050-73561-00022-20000870D0003837D01044002222000221   GGSL
TXBWIC21050-73561-00028-40000288D0002602D01572000181000283   GGSL
TXBWIC21050-73561-00042-00001818D0008601D07386003962000422   GGSL
TXBWIC21050-73561-00044-40000126D0001058D00006000181000441   GGSL
TXBWIC21050-73561-00055-00000612D0001675D01398001681000551   GGSL
TXBWIC21050-73561-00070-30000174D0000797D00654000061000701   GGSL
TXBWIC21050-73561-00099-40000754D0001804D03192001562000992   GGSL
TXBWIC21050-73561-00119-90000092D0002190D00240000001001193   GGSL
TXBWIC21050-73561-00150-20000126D0000639D00528000963001502   GGSL
TXBWIC21050-73561-00157-10000036D0000054D0003600000400157    GGSL
TXBWIC21050-73561-00179-30000006D0000073D00006000001001791   GGSL
TXBWIC21050-73561-00183-00000054D0000619D00018000001001834   GGSL
TXBWIC21050-73561-00190-80000348D0001027D0065400042100195    GGSL
TXBWIC21050-73561-00192-20000228D0001187D00912000601001921   GGSL
TXBWIC21050-73561-00199-10000108D0000282D00624000841001991   GGSL
TXBWIC21050-73561-00252-30001152D0001140D03168008641002522   GGSL
TXBWIC21050-73561-00366-70000024D0000035D00024000001003661   GGSL
TXBWIC21050-73561-00410-70000869D0008802D01674001561004102   GGSL
TXBWIC21050-73561-00432-90000420D0005004D00600000241004325   GGSL
TXBWIC21050-73561-00440-40000036D0000266D00162000001004402   GGSL
TXBWIC21050-73561-00475-60000006D0000041D00054000001004751   GGSL
TXBWIC21050-73561-00531-90000864D0002381D01146002221000532   GGSL
TXBWIC21050-73561-00590-60000144D0000421D00090000361005901   GGSL
TXBWIC21050-73561-00600-20000096D0000471D00018000903006002   GGSL
TXBWIC21050-73561-00720-70000204D0000691D0040800126100720    GGSL
TXBWIC21050-73561-00831-00000005D0000027D00010000001008311   GGSL
TXBWIC21050-73561-01611-70000360D0004156D00018000001016111   GGSL
TXBWIC21050-73561-03836-20000330D0003863D00114000001038361   GGSL
TXBWIC21050-73561-10114-10000146D0002159D00559000181011410   GGSL
TXBWIC21050-73561-12100-20000006D0000034D0000600000112100    GGSL
TXBWIC21050-73561-30019-30000300D0003219D01260000243001910   GGSL
TXBWIC21050-73561-30025-40000006D0000028D00000000003002510   GGSL
TXBWIC21050-73561-30027-80000006D0000070D00096000063002710   GGSL
TXBWIC21050-73561-30034-60000012D0000110D00048000003003410   GGSL
TXBWIC21050-73561-30035-30000036D0000313D00108000063003510   GGSL
TXBWIC21050-73561-30053-70000012D0000077D00018000003005310   GGSL
TXBWIC21050-73561-30054-40000024D0000136D00000000003005410   GGSL
TXBWIC21050-73561-30057-50000012D0000102D00000000003005710   GGSL
TXBWIC21050-73561-30059-90000006D0000051D00000000003005910   GGSL
TXBWIC21050-73561-30068-10000012D0000045D00000000003006806   GGSL
TXBWIC21050-73561-30098-80000006D0000076D00018000003009810   GGSL
TXBWIC21050-73561-36001-20000894D0002826D02190001981360011   GGSL
TXBWIC21050-73561-37841-30000018D0000057D00024000123784101   GGSL
TXBWIC21050-73561-46001-90000192D0001900D0070200090146002    GGSL
TXBWIC21050-73561-48510-40000078D0000465D00282002794851012   GGSL
TXBWIC21050-73561-48520-30000036D0000193D00009000724852012   GGSL
TXBWIC21050-73561-60101-60003330D0010561D0686300708160101    GGSL
