NJARET2104 -04797-70080-50000004D0000092D0000800000NA32431   GGSL
NJARET21040-07633-31219-70000120D0001846D0000300001AP30218DW GGSL
NJARET21040-10052-00333-10000048D0000208D000020000000333     GGSL
NJARET21040-10106-16901-30000024D0000159D000010000156901     GGSL
NJARET21040-10367-00110-70000576D0003801D00001000000110      GGSL
NJARET21040-10367-00470-20000048D0000588D00016000010470      GGSL
NJARET21040-10367-00560-00000136D0000499D000010000105608     GGSL
NJARET21040-10367-01110-60000088D0000291D00011000031110      GGSL
NJARET21040-10367-01111-30000072D0000238D00069000021111      GGSL
NJARET21040-10367-01112-00000024D0000082D00065000021112      GGSL
NJARET21040-10367-01120-50000200D0000571D00007000021120      GGSL
NJARET21040-10367-01121-20000176D0001036D00011000051121      GGSL
NJARET21040-10367-01122-90000168D0000934D00037000051122      GGSL
NJARET21040-10367-01130-40000160D0000866D00000000001130      GGSL
NJARET21040-10367-01140-30000024D0000081D00007000061140      GGSL
NJARET21040-10367-01151-90000016D0000054D00008000031151      GGSL
NJARET21040-10367-01161-80000032D0000250D00000000001161      GGSL
NJARET21040-10367-01162-50000040D0000313D00003000031162      GGSL
NJARET21040-10367-02151-80000024D0000180D0001000000ML2151    GGSL
NJARET21040-10367-02162-40000032D0000218D0000000000ML2162    GGSL
NJARET21040-10367-02163-10000016D0000109D0000800001ML2163    GGSL
NJARET21040-10367-02171-60000024D0000164D0000000000ML2171    GGSL
NJARET21040-10367-02181-50000032D0000218D0001000001ML2181    GGSL
NJARET21040-10367-03010-70000008D0000047D0000000000ML3010    GGSL
NJARET21040-10367-03020-60000016D0000095D0000000000ML3020    GGSL
NJARET21040-11192-60612-30000008D0000074D0000400000KGFH      GGSL
NJARET21040-11192-86019-80000006D0000045D0001300000KMG6      GGSL
NJARET21040-11423-00338-70000012D0000074D000140000033801     GGSL
NJARET21040-11423-00402-50000006D0000030D0000700000HG402000  GGSL
NJARET21040-11423-94127-60000036D0000187D0002500006HG64127   GGSL
NJARET21040-11423-94133-70000006D0000034D000000000094133     GGSL
NJARET21040-11423-94239-60000048D0000264D0001600001HG64138   GGSL
NJARET21040-12587-60034-40000032D0000283D000920000160034     GGSL
NJARET21040-12587-60035-10000008D0000071D001540000860035     GGSL
NJARET21040-12587-70054-90000009D0000081D000430000470054     GGSL
NJARET21040-12587-70111-90000012D0000038D001170000070111     GGSL
NJARET21040-12587-70403-50000036D0000202D000900000170403     GGSL
NJARET21040-12587-78362-70000012D0000108D000630000778362     GGSL
NJARET21040-14306-91164-90000010D0000201D0000100000US562171  GGSL
NJARET21040-14306-92433-50000009D0000365D0000700000US225688  GGSL
NJARET21040-14306-92836-40000005D0000092D0000300000US643688  GGSL
NJARET21040-14306-92838-80000006D0000163D0000800000US804688  GGSL
NJARET21040-14306-92840-10000015D0000552D0000300000US900688  GGSL
NJARET21040-14306-92848-70000012D0000251D0000100000US395700  GGSL
NJARET21040-14400-10734-40000018D0000073D00000000001440010734GGSL
NJARET21040-14400-10747-40000010D0000018D00003000001440010747GGSL
NJARET21040-14400-10813-60000012D0000051D00001000001440010813GGSL
NJARET21040-14400-61000-40000073D0000781D001530013961000     GGSL
NJARET21040-14400-62000-30000054D0000687D000180001862000     GGSL
NJARET21040-14400-62504-60000178D0002264D00000000001440062504GGSL
NJARET21040-14400-66000-90000014D0000176D000090000966000ZFP  GGSL
NJARET21040-14400-67000-80000020D0000287D000000000067000     GGSL
NJARET21040-14400-69056-30000064D0000397D00090000101440069056GGSL
NJARET21040-14400-71265-40000012D0000053D00009000001440071265GGSL
NJARET21040-14400-71400-90000024D0000070D00008000001440071400GGSL
NJARET21040-14400-80400-70000322D0003278D00032000321440080400GGSL
NJARET21040-14400-81200-20000028D0000320D00000000001440081200GGSL
NJARET21040-15561-20007-30000004D0000048D0000000000PT7       GGSL
NJARET21040-15561-20125-40000006D0000037D0000100000PT125     GGSL
NJARET21040-15561-20135-30000006D0000037D0000100000PT135     GGSL
NJARET21040-15561-20811-60000024D0000144D0001200012PT811EA   GGSL
NJARET21040-15561-20960-10000012D0000010D0000100001PT960     GGSL
NJARET21040-15561-20961-80000012D0000017D0000000000PT961     GGSL
NJARET21040-15561-20979-30000012D0000128D0001200000PT979 EA  GGSL
NJARET21040-15561-21818-40000004D0000554D0000600000PT1818    GGSL
NJARET21040-15759-01272-30000006D0000137D0000000000R801B     GGSL
NJARET21040-15759-01507-60000001D0000029D0000400000R1203GX   GGSL
NJARET21040-15759-01518-20000012D0000202D0000000000R1253G    GGSL
NJARET21040-15759-01521-20000012D0000068D0000300000R1364G    GGSL
NJARET21040-15759-01528-10000012D0000331D0000000000R1380MP   GGSL
NJARET21040-16069-00005-90000312D0002245D0008200010TP15C     GGSL
NJARET21040-16069-00007-30000408D0002717D0013200014BN1       GGSL
NJARET21040-16069-00008-00001884D0011964D0025100018BN2       GGSL
NJARET21040-16069-00013-40000108D0003109D0009500008BN3       GGSL
NJARET21040-16069-00014-10000090D0001903D0008300002BN4       GGSL
NJARET21040-16069-00015-80000030D0000864D0001200002BN5       GGSL
NJARET21040-16069-00019-60000072D0000828D0003200009TP30C     GGSL
NJARET21040-16069-00030-10000090D0001104D0003600004OW6       GGSL
NJARET21040-16069-00032-50000444D0004791D0012400005HG25      GGSL
NJARET21040-16069-00033-20000102D0002201D0004700004HG50      GGSL
NJARET21040-16069-00038-70000564D0005273D0002800006GF1015    GGSL
NJARET21040-16069-00047-90000012D0000086D0001900000TE12C     GGSL
NJARET21040-16069-00049-30000162D0002998D0019700007DX7       GGSL
NJARET21040-16069-00050-90000030D0000864D0006800007DX14      GGSL
NJARET21040-16069-00060-80000015D0000043D0000200001RAP15     GGSL
NJARET21040-16069-00072-10000036D0000240D0001400000TSD12     GGSL
NJARET21040-16069-00076-90000234D0001405D0001800003PN10      GGSL
NJARET21040-16069-00077-60000144D0001554D0001400014PN14      GGSL
NJARET21040-16069-00079-00000042D0001331D0002800006PN28      GGSL
NJARET21040-16069-00110-00000030D0000484D0000900000PF3       GGSL
NJARET21040-16069-00204-60000028D0000373D0000000000WS2050    GGSL
NJARET21040-16069-00218-30000156D0000898D0006300001HST100    GGSL
NJARET21040-16069-00306-70000040D0000480D0000400000WS1050    GGSL
NJARET21040-16069-00307-40000012D0000280D0000300001WS10100   GGSL
NJARET21040-16069-00365-40000027D0000325D0004600028PIN9      GGSL
NJARET21040-16069-00393-70000480D0001490D0009400005GS20      GGSL
NJARET21040-16069-00394-40000008D0000409D0001900010PN45      GGSL
NJARET21040-16069-00401-90000168D0001571D0003300002GF4050    GGSL
NJARET21040-16069-00474-30000120D0000793D0000000000GS40BW    GGSL
NJARET21040-16069-00478-10000016D0000691D0002800000SRHO4     GGSL
NJARET21040-16069-00479-80002196D0041813D0058400479E316B     GGSL
NJARET21040-16069-00494-10000028D0000262D0001300000GFST4050  GGSL
NJARET21040-16069-00498-90000096D0001036D0027400012HGP1012   GGSL
NJARET21040-16069-00499-60000004D0000072D0022000000HGP1020   GGSL
NJARET21040-16069-00519-10000012D0000068D0000200000SPB56     GGSL
NJARET21040-16069-00546-70000148D0005547D0001000008RRBG4     GGSL
NJARET21040-16069-00550-40000040D0000529D0000000000TRWTW     GGSL
NJARET21040-16069-00585-60000024D0000138D0000300000DCLLF412  GGSL
NJARET21040-16069-00597-90000012D0000257D0001100000BTK6      GGSL
NJARET21040-16069-00622-80000036D0000144D0002400002CP612     GGSL
NJARET21040-16069-00623-50000024D0000207D0000200001PK24      GGSL
NJARET21040-16069-00667-90003556D0075620D0364003625RH04US    GGSL
NJARET21040-16500-54010-60000012D0000057D000080000054010     GGSL
NJARET21040-16500-98041-40000024D0000027D001390000098041     GGSL
NJARET21040-17500-08120-00000108D0000151D002540000008120     GGSL
NJARET21040-17500-08150-70000804D0001278D000210000108150     GGSL
NJARET21040-17500-08150-70000036D0000050D001220004008150M    GGSL
NJARET21040-17500-90206-20001122D0023750D003250012490206     GGSL
NJARET21040-17500-91316-70000156D0002974D000170000291316     GGSL
NJARET21040-17500-91334-10000008D0000179D000090000191334     GGSL
NJARET21040-17500-91350-10000004D0000079D000000000091350     GGSL
NJARET21040-17500-91362-40000024D0000229D000010000091362     GGSL
NJARET21040-17500-91365-50000012D0000098D000000000091365     GGSL
NJARET21040-17500-91714-10000064D0001400D000130001391714     GGSL
NJARET21040-17500-91818-60000004D0000069D000000000091818     GGSL
NJARET21040-17500-95204-30000112D0002299D000200001095204     GGSL
NJARET21040-17500-95314-90000008D0000215D000000000095314     GGSL
NJARET21040-18062-00019-70000072D0000320D0001000000PT06MCCS  GGSL
NJARET21040-18222-00017-30000004D0000593D0000600000PP17      GGSL
NJARET21040-18222-00101-90000078D0000238D0021200006CS06101   GGSL
NJARET21040-18222-00103-30000102D0000311D0009900003CS06103   GGSL
NJARET21040-18222-00105-70000060D0000183D0025600004CS06105   GGSL
NJARET21040-18222-00107-10000042D0000165D0016700002CS06107   GGSL
NJARET21040-18222-00109-50000078D0000238D0024100013CS06109   GGSL
NJARET21040-18222-00110-10000042D0000128D0009400002CS06110   GGSL
NJARET21040-18222-00206-10000012D0000057D0003000001CS06206   GGSL
NJARET21040-18222-00213-90000126D0000513D0004200014CS06213   GGSL
NJARET21040-18222-00226-90000004D0000011D0004200000CS04226   GGSL
NJARET21040-18222-00501-70001044D0001344D0029900007CS12501   GGSL
NJARET21040-18222-00503-10000144D0000296D0005600002CS503     GGSL
NJARET21040-18222-00505-50000468D0000514D0022700005CS12505   GGSL
NJARET21040-18222-00507-90000264D0000337D0018900004CS12507   GGSL
NJARET21040-18222-00509-30000132D0000209D0021800003CS12509   GGSL
NJARET21040-18222-00513-00000108D0000223D0004400001CS12513   GGSL
NJARET21040-18222-00526-00000420D0001273D0023200005CS06526   GGSL
NJARET21040-18222-00527-70000408D0000514D0023600033CS12527   GGSL
NJARET21040-18222-00529-10000588D0000988D0010600000CS12529   GGSL
NJARET21040-18222-00531-40000288D0000639D0018800000CS12531   GGSL
NJARET21040-18222-00535-20000072D0000091D0010200002CS12535   GGSL
NJARET21040-18222-00543-70000096D0000132D0010200000CS12543   GGSL
NJARET21040-18222-00545-10000072D0000127D0005400000CS12545   GGSL
NJARET21040-18222-00553-60017748D0030005D0060400350CS12553   GGSL
NJARET21040-18222-00559-80000108D0000138D0014000000CS12559   GGSL
NJARET21040-18222-00561-10000072D0000095D0007700000CS12561   GGSL
NJARET21040-18222-00563-50000192D0000319D0009000010CS12563   GGSL
NJARET21040-18222-00565-90000072D0000126D0004400001CS12565   GGSL
NJARET21040-18222-00569-70000468D0000784D0028900020CS12569   GGSL
NJARET21040-18222-00571-00000036D0000075D0009600002CS12571   GGSL
NJARET21040-18222-00583-30000300D0000627D0016400003CS12583   GGSL
NJARET21040-18222-00608-30000048D0000163D0004200003CS608     GGSL
NJARET21040-18222-00610-60000012D0000056D0000100000CS610     GGSL
NJARET21040-18222-00611-30000012D0000049D0000100001CS611     GGSL
NJARET21040-18222-00680-90000024D0000056D0000100000CS12680   GGSL
NJARET21040-18222-00701-10000296D0000510D0014600011CS701     GGSL
NJARET21040-18222-00707-30000256D0000740D0004600009CS707     GGSL
NJARET21040-18222-00709-70000024D0000116D0000800000CS709     GGSL
NJARET21040-18222-00730-10000344D0000670D0036500064CS730     GGSL
NJARET21040-18222-00749-30000024D0000134D0002500000CS749     GGSL
NJARET21040-18222-00750-90000016D0000163D0000200000CS750     GGSL
NJARET21040-18222-00753-00000032D0000164D0003300002CS753     GGSL
NJARET21040-18222-00950-30000024D0000025D0004000000CS950     GGSL
NJARET21040-18222-50501-20001092D0001199D0021400014CS1250501XGGSL
NJARET21040-18222-50527-20000036D0000040D0020900010CS1250527XGGSL
NJARET21040-18222-50559-30001428D0001568D0020600012CS1250559XGGSL
NJARET21040-18506-00102-50000108D0000471D000500000010212     GGSL
NJARET21040-18506-00110-00000120D0000863D001260000611012     GGSL
NJARET21040-18506-00116-20000360D0002438D000240002111612     GGSL
NJARET21040-18506-00117-90000108D0001159D00035000001176      GGSL
NJARET21040-18506-00121-60000006D0000058D00013000051216      GGSL
NJARET21040-18506-00122-30000036D0000198D0000800008122       GGSL
NJARET21040-18506-00123-00000048D0000265D0000000000123       GGSL
NJARET21040-18506-00125-40000012D0000060D0002100001125       GGSL
NJARET21040-18506-00130-80000048D0000267D0002700002130       GGSL
NJARET21040-18506-00135-30000006D0000088D0000300001135       GGSL
NJARET21040-18506-02001-90000036D0000412D00016000052001      GGSL
NJARET21040-19200-00095-60000096D0000215D002350000600027     GGSL
NJARET21040-19200-00619-40000408D0001333D013430000200706     GGSL
NJARET21040-19200-05432-40000054D0000224D000700000075057     GGSL
NJARET21040-19200-78033-90000018D0000076D00153000001920078033GGSL
NJARET21040-19200-78914-10000144D0000344D002760004978914     GGSL
NJARET21040-19200-80306-90000024D0000135D000960000080306     GGSL
NJARET21040-19200-82043-10000960D0002393D001600016082043     GGSL
NJARET21040-19200-83262-50000024D0000084D00113000021920082362GGSL
NJARET21040-19200-83383-70000054D0000452D000060000083383     GGSL
NJARET21040-19200-83623-40000096D0000654D008140000083623     GGSL
NJARET21040-19200-83721-70000008D0000023D005530014483721     GGSL
NJARET21040-19200-89973-40000004D0000072D000330000089973     GGSL
NJARET21040-19200-98342-60000012D0000051D000510000099427     GGSL
NJARET21040-19200-98665-60000072D0000314D001040000098665     GGSL
NJARET21040-19200-98666-30000040D0000244D000660000098666     GGSL
NJARET21040-19263-25010-70000014D0000998D00006000002501      GGSL
NJARET21040-19263-25030-50000004D0000474D00019000012503      GGSL
NJARET21040-19263-25035-00000008D0000229D0006000000250350    GGSL
NJARET21040-19263-25040-40000001D0000130D00006000002504      GGSL
NJARET21040-19263-25045-90000044D0001601D0003700002250450    GGSL
NJARET21040-19263-25055-80000004D0000183D0002300000250550    GGSL
NJARET21040-19263-25160-90000009D0000094D00002000002516      GGSL
NJARET21040-19263-25510-20001325D0001895D00069000132551      GGSL
NJARET21040-19263-25520-10003450D0005762D00037000152552      GGSL
NJARET21040-19263-25530-00001700D0003179D00066000662553      GGSL
NJARET21040-19263-25540-90003375D0007594D00013000132554      GGSL
NJARET21040-19263-25550-80002775D0007937D00026000102555      GGSL
NJARET21040-19263-25670-30000006D0000082D00036000002567      GGSL
NJARET21040-19263-25680-20000008D0000148D00033000022568      GGSL
NJARET21040-19263-25730-40000004D0000074D00003000002573      GGSL
NJARET21040-19263-25750-20000048D0000256D00025000012575      GGSL
NJARET21040-19263-25760-10000156D0001062D00028000002576      GGSL
NJARET21040-19263-25770-00000162D0001694D00054000002577      GGSL
NJARET21040-19263-25780-90000085D0001574D00073000022578      GGSL
NJARET21040-19263-25950-60000648D0000771D00046000022595      GGSL
NJARET21040-19263-26170-70000016D0000428D00014000002617      GGSL
NJARET21040-19263-26210-00000372D0002794D00093000062621      GGSL
NJARET21040-19263-26300-80000600D0001386D00012000032630      GGSL
NJARET21040-19263-26310-70000768D0002166D00076000152631      GGSL
NJARET21040-19263-26310-70000432D0001218D00017000002633      GGSL
NJARET21040-19263-26560-60000208D0001589D00006000032656      GGSL
NJARET21040-19263-26580-40000144D0001407D00016000012658      GGSL
NJARET21040-19263-55555-40000001D0000062D00000000002579      GGSL
NJARET21040-21344-00321-20000078D0003027D0001600000WX15064   GGSL
NJARET21040-21344-00322-90000018D0000699D0008700002WX15065   GGSL
NJARET21040-21344-00330-40000018D0000103D0000000000WX16812   GGSL
NJARET21040-21344-00338-00000002D0000574D0006600000400338    GGSL
NJARET21040-21344-00342-70000008D0000183D0000000000400342    GGSL
NJARET21040-21344-00344-10000348D0002378D0004100009400344    GGSL
NJARET21040-21344-00345-80000240D0001642D0008300009400345    GGSL
NJARET21040-21344-00346-50000264D0001815D0007900009400346    GGSL
NJARET21040-21344-00347-20000116D0001583D0002900001400347    GGSL
NJARET21040-21344-00348-90000228D0003405D0008800012400348    GGSL
NJARET21040-21344-00349-60000152D0002205D0014900010400349    GGSL
NJARET21040-21344-00350-20000156D0002191D0009600001400350    GGSL
NJARET21040-21344-00354-00000090D0004624D0006900048HQ73481784GGSL
NJARET21040-21344-00361-80000090D0002183D0011600049HQ74912297GGSL
NJARET21040-21344-00362-50000014D0000937D0020100008HQMUSH    GGSL
NJARET21040-21344-00364-90000034D0005870D0000700004400364    GGSL
NJARET21040-21344-00382-30000006D0000573D0008400000JFG18032  GGSL
NJARET21040-21344-00383-00000001D0000186D0000700001JFG18024  GGSL
NJARET21040-21344-00384-70000036D0001849D0004100000JFG18013  GGSL
NJARET21040-21344-00385-40000240D0005262D0005200022JFG18011A GGSL
NJARET21040-21344-00386-10000264D0009919D0005800004JFG18011B GGSL
NJARET21040-21344-00387-80000030D0000989D0005600001JFG18012  GGSL
NJARET21040-21344-00388-50000168D0000881D0003700002JFG18001  GGSL
NJARET21040-21344-00389-20000170D0001887D0006600001JFG18004  GGSL
NJARET21040-21344-00390-80000032D0000686D0001700001JFG18010A GGSL
NJARET21040-21344-00391-50000020D0000721D0008200014JFG18010B GGSL
NJARET21040-21344-00392-20000252D0001549D0006900024JFG18002  GGSL
NJARET21040-21344-00393-90000342D0008751D0005800040JFG18008A GGSL
NJARET21040-21344-00394-60000222D0004209D0006600038JFG18008ASGGSL
NJARET21040-21344-00395-30000036D0000930D0008200023JFG18006  GGSL
NJARET21040-21344-00396-00000116D0004023D0004600033JFG18016  GGSL
NJARET21040-21344-00397-70000081D0003026D0013500012JFG18018  GGSL
NJARET21040-21344-00404-20000008D0000506D0001600000ZT185020  GGSL
NJARET21040-21344-00405-90000012D0000790D0004000000ZT185019  GGSL
NJARET21040-21344-00406-60000001D0000096D0001700000ZT185024  GGSL
NJARET21040-21344-00407-30000012D0001430D0010900004ZT185016  GGSL
NJARET21040-21344-00408-00000006D0000338D0000500000ZT185026  GGSL
NJARET21040-21344-00409-70000108D0000413D0021600086ZT185018  GGSL
NJARET21040-21344-00413-40000024D0000043D0011000001400413    GGSL
NJARET21040-21344-00414-10000036D0000065D0010000000400414    GGSL
NJARET21040-21344-00415-80000048D0000100D0010800000400415    GGSL
NJARET21040-21344-00416-50000060D0000095D0010700000400416    GGSL
NJARET21040-21344-00417-20000156D0000385D0014600000400417    GGSL
NJARET21040-21344-00418-90000024D0000059D0011400000400418    GGSL
NJARET21040-21344-00420-20000012D0000194D0011000000400420    GGSL
NJARET21040-21344-00421-90000024D0000078D0011100000400421    GGSL
NJARET21040-21344-00423-30000028D0003892D0000000000WX17658   GGSL
NJARET21040-21344-00718-00000012D0000240D0013900000WX17422   GGSL
NJARET21040-21344-00719-70000150D0002734D0005900005WX17413   GGSL
NJARET21040-21344-00720-30000174D0002713D0009600017WX17409   GGSL
NJARET21040-21344-00721-00000544D0010942D0018200058WX17230   GGSL
NJARET21040-21344-00722-70000308D0006225D0004600019WX17401   GGSL
NJARET21040-21344-00723-40000128D0002616D0014700010WX17402   GGSL
NJARET21040-21344-00724-10000002D0000080D0003500000WXRACK20  GGSL
NJARET21040-21344-00725-80000020D0000937D0007800018HQ748416  GGSL
NJARET21040-21344-00726-50000104D0004519D0005400026HQ74843056GGSL
NJARET21040-21344-00727-20000038D0001780D0005300008HQ74842665GGSL
NJARET21040-21344-00728-90000068D0001541D0002200007HQ74912300GGSL
NJARET21040-21344-00729-60000034D0001701D0002800028HQ7348782 GGSL
NJARET21040-21344-00730-20000004D0000070D0002900000BN19193   GGSL
NJARET21040-21344-00731-90000002D0000035D0000000000BN19190   GGSL
NJARET21040-21344-00733-30000006D0000105D0003100000BN19188   GGSL
NJARET21040-21344-00734-00000080D0002599D0007000005WX17725   GGSL
NJARET21040-21344-00735-70000032D0000617D0007900002WX17577RV GGSL
NJARET21040-21344-00736-40000028D0000541D0008900003WX17578RV GGSL
NJARET21040-21344-00739-50000012D0000384D0007600010WX17816   GGSL
NJARET21040-21344-00740-10000004D0000124D0003800000WX17818   GGSL
NJARET21040-21344-00741-80000008D0000248D0004200000WX17817   GGSL
NJARET21040-21344-00744-90000008D0000248D0002800006WX17819   GGSL
NJARET21040-21344-00745-60000024D0000312D0018200010YS19006   GGSL
NJARET21040-21344-00746-30000072D0001165D0025600009YS19L005  GGSL
NJARET21040-21344-00747-00000064D0001044D0026300007YS19L004  GGSL
NJARET21040-21344-00748-70000068D0000843D0025600008YS19S002  GGSL
NJARET21040-21344-00749-40000060D0000765D0026000007YS19S003  GGSL
NJARET21040-21344-00750-00000096D0001202D0022500011YS19S001  GGSL
NJARET21040-21344-00762-30000030D0002870D0021500008FDBH1901  GGSL
NJARET21040-21344-00762-30000003D0000286D0005500006MG18387RV GGSL
NJARET21040-21344-00765-40000004D0000361D0010700000MG18390   GGSL
NJARET21040-21344-00766-10000002D0000280D00076000004007661   GGSL
NJARET21040-21344-00774-60000196D0006583D0009700074WX17800   GGSL
NJARET21040-21344-00775-30000212D0007076D0012000046WX17802   GGSL
NJARET21040-21344-00776-00000044D0002723D0003300019FDBB1901  GGSL
NJARET21040-21344-00779-10000009D0000189D0004000000JFG19058B GGSL
NJARET21040-21344-00780-70000004D0000260D0003300000MG18396RV GGSL
NJARET21040-21344-00781-40000005D0000195D0005700000MG18397RV GGSL
NJARET21040-21344-00785-20000078D0001447D0005800011BN19294   GGSL
NJARET21040-21344-00795-10000002D0000232D0005400000MG18389   GGSL
NJARET21040-21344-00796-80000072D0000233D0003000000SSH1822719GGSL
NJARET21040-21344-00797-50000054D0000210D0006000000SSH1813624GGSL
NJARET21040-21344-00798-20000096D0000436D0002400001SSH1813728GGSL
NJARET21040-21344-00799-90000084D0000710D0008100019HS190061C GGSL
NJARET21040-21344-00800-20000060D0000506D0008300016HS190061B GGSL
NJARET21040-21344-00801-90000054D0000456D0007700023HS190061A GGSL
NJARET21040-21344-00802-60000080D0000681D0008400026HS190058C GGSL
NJARET21040-21344-00803-30000064D0000542D0008000028HS190058B GGSL
NJARET21040-21344-00804-00000092D0000787D0009400025HS190058A GGSL
NJARET21040-21344-00805-70000078D0000760D0003800002HS190056  GGSL
NJARET21040-21344-00806-40000016D0000135D0007500002SSH18A025 GGSL
NJARET21040-21344-00807-10000036D0000504D0004900002SSH18A034 GGSL
NJARET21040-21344-00808-80000240D0001179D0005000003SSH18A024 GGSL
NJARET21040-21344-00813-20000006D0000499D00007000064008132   GGSL
NJARET21040-21344-00819-40000048D0000414D0002200000WX17931   GGSL
NJARET21040-21344-00821-70000012D0000103D0002700000WX17932   GGSL
NJARET21040-21344-00822-40000036D0000312D0001900000WX17930   GGSL
NJARET21040-21344-00824-80000036D0000304D0002000004WX17933   GGSL
NJARET21040-21344-00825-50000168D0001301D0004400008JFG18011BWGGSL
NJARET21040-21344-00826-20000048D0000374D0005700014JFG18011AWGGSL
NJARET21040-21344-00827-90000168D0001675D0003500005JFG18008AWGGSL
NJARET21040-21344-00828-60000096D0000623D0004500003JFG18008ACGGSL
NJARET21040-21344-00829-30000020D0000195D0000500001ZT197030  GGSL
NJARET21040-21344-00832-30000003D0000062D0005700000JFG19007B GGSL
NJARET21040-21344-00833-00000014D0000377D0008100001ZT197029  GGSL
NJARET21040-21344-00834-70000008D0000698D0007300000ZT197023RVGGSL
NJARET21040-21344-00837-80000024D0000093D0025600135SK15020B  GGSL
NJARET21040-21344-00838-50000312D0000919D0039100005SK15008E  GGSL
NJARET21040-21344-00839-20000008D0000130D0002400000HS190062  GGSL
NJARET21040-21344-00844-60000012D0000070D0004400005HJAL19011 GGSL
NJARET21040-21344-00846-00000035D0003543D0026800087FDBH1902  GGSL
NJARET21040-21344-01159-00000120D0001094D0006900001BN19294S  GGSL
NJARET21040-21344-01160-60000046D0000863D0007200029BN19296   GGSL
NJARET21040-21344-01161-30000072D0000662D0008100003BN19296S  GGSL
NJARET21040-21344-01162-00000050D0000974D0007200034BN19297   GGSL
NJARET21040-21344-01163-70000090D0000845D0007900006BN19297S  GGSL
NJARET21040-21344-01164-40000046D0000871D0008200031BN19299   GGSL
NJARET21040-21344-01165-10000072D0000657D0008300004BN19299S  GGSL
NJARET21040-21344-01166-80000088D0001621D0007800036BN19300   GGSL
NJARET21040-21344-01167-50000102D0000932D0008000004BN19300S  GGSL
NJARET21040-21344-01168-20000086D0001645D0006900044BN19302   GGSL
NJARET21040-21344-01169-90000150D0001383D0006000003BN19302S  GGSL
NJARET21040-21344-01170-50000021D0002154D0013200072FDBH2001  GGSL
NJARET21040-21344-01171-20000036D0001878D0001700012HQ73482202GGSL
NJARET21040-21344-01172-90000102D0005037D0006300056HQ73482993GGSL
NJARET21040-21344-01173-60000090D0004329D0006800047HQ73483050GGSL
NJARET21040-21344-01174-30000074D0004113D0006800047HQ73483068GGSL
NJARET21040-21344-01175-00000046D0002400D0003900009HQ75752083GGSL
NJARET21040-21344-01176-70000096D0004673D0005100013HQ75752836GGSL
NJARET21040-21344-01177-40000056D0002922D0003800013HQ75752848GGSL
NJARET21040-21344-01178-10000142D0006948D0011100023HQ7575453 GGSL
NJARET21040-21344-01179-80000210D0001835D0005100005HS18MR0461GGSL
NJARET21040-21344-01180-40000198D0002640D0006700009HS18MR0463GGSL
NJARET21040-21344-01183-50000156D0003211D0002300006HS20132   GGSL
NJARET21040-21344-01184-20000372D0006083D0009000013HS20134   GGSL
NJARET21040-21344-01185-90000432D0006183D0010400027HS20135   GGSL
NJARET21040-21344-01186-60001326D0017234D0008600012HS20136   GGSL
NJARET21040-21344-01187-30000408D0005273D0011400007HS20137   GGSL
NJARET21040-21344-01188-00000680D0012941D0013800008HS20HS0022GGSL
NJARET21040-21344-01189-70000848D0016236D0012800008HS20HS0023GGSL
NJARET21040-21344-01190-30000968D0012384D0015100012HS20HS0024GGSL
NJARET21040-21344-01191-00000940D0012004D0015700059HS20HS0025GGSL
NJARET21040-21344-01192-70000156D0003191D0006100003HS20HS0026GGSL
NJARET21040-21344-01201-60000360D0001900D0007000009SSH19S094 GGSL
NJARET21040-21344-01202-30000472D0005463D0009000040SSH19S098 GGSL
NJARET21040-21344-01203-00000184D0003724D0006700008SSH19S104 GGSL
NJARET21040-21344-01204-70000056D0001172D0005400008WX13253   GGSL
NJARET21040-21344-01205-40000048D0001018D0004200003WX13254   GGSL
NJARET21040-21344-01206-10000072D0000975D0004900014WX18811   GGSL
NJARET21040-21344-01207-80000096D0001301D0004900008WX18812   GGSL
NJARET21040-21344-01208-50000228D0003058D0004300023WX18813   GGSL
NJARET21040-21344-01209-20000160D0004471D0007900014WX18814   GGSL
NJARET21040-21344-01210-80000196D0005496D0007500015WX18815   GGSL
NJARET21040-21344-01211-50000116D0003199D0006300006WX18816   GGSL
NJARET21040-21344-01212-20000168D0003393D0016500087WX18819   GGSL
NJARET21040-21344-01213-90000162D0003282D0014400094WX18820   GGSL
NJARET21040-21344-01214-60000096D0001948D0024400165WX18821   GGSL
NJARET21040-21344-01215-30000156D0035424D0049100058WX18824   GGSL
NJARET21040-21344-01216-00000103D0014475D0025800069WX18825   GGSL
NJARET21040-21344-01218-40000064D0000909D0003000016WX19198   GGSL
NJARET21040-21344-01219-10000012D0000525D0009800005WX19199   GGSL
NJARET21040-21344-01220-70000012D0000559D0010500001WX19200   GGSL
NJARET21040-21344-01221-40000152D0002960D0008200036WX19201   GGSL
NJARET21040-21344-01222-10000034D0001147D0005600008WX19203   GGSL
NJARET21040-21344-01223-80000020D0000675D0005600012WX19204   GGSL
NJARET21040-21344-01224-50000032D0001028D0000700003WX19205   GGSL
NJARET21040-21344-01225-20000134D0007061D0010400015WX19206   GGSL
NJARET21040-21344-01226-90000072D0000749D0013900036WX19256   GGSL
NJARET21040-21344-01227-60000176D0001826D0010800018WX19257   GGSL
NJARET21040-21344-01228-30000072D0000679D0004500004WX19258   GGSL
NJARET21040-21344-01229-00000112D0001094D0004700001WX19259   GGSL
NJARET21040-21344-01230-60000100D0002438D0004900004WX19260   GGSL
NJARET21040-21344-01231-30000100D0002439D0005000002WX19261   GGSL
NJARET21040-21344-01233-70000032D0000777D0006900004WX19264   GGSL
NJARET21040-21344-01234-40000048D0001167D0006300004WX19266   GGSL
NJARET21040-21344-01235-10000032D0000777D0007700003WX19267   GGSL
NJARET21040-21344-01237-50000329D0045996D0040400150WX19270   GGSL
NJARET21040-21344-01238-20000026D0001210D0007700011WX8561    GGSL
NJARET21040-21344-01240-50000120D0001665D0005500009WX86808283GGSL
NJARET21040-21344-01241-20000048D0000695D0002000005WX8594    GGSL
NJARET21040-21344-01246-70000088D0002176D0003900012WX8751    GGSL
NJARET21040-21344-01247-40000176D0002399D0000900003WX8752    GGSL
NJARET21040-21344-01248-10000016D0000390D0004800013WX8757    GGSL
NJARET21040-21344-01249-80000032D0000435D0001800000WX8758    GGSL
NJARET21040-21344-01258-00000012D0000234D0011800026ZT207023A GGSL
NJARET21040-21344-01264-10000055D0009104D0023600063HR22818AA GGSL
NJARET21040-21344-01265-80000029D0003229D0016700023HR30701AA GGSL
NJARET21040-21344-01266-50000034D0002242D0033200098CU297     GGSL
NJARET21040-21344-01267-20000040D0005683D0019600053FP35      GGSL
NJARET21040-21344-01268-90000031D0003161D0021000012HR26182AA GGSL
NJARET21040-21344-01270-20000088D0002462D0025900088HS20153   GGSL
NJARET21040-21344-01273-30000223D0032545D0076000122WX17658A  GGSL
NJARET21040-21344-01275-70000068D0004247D0007600016JFG20031  GGSL
NJARET21040-21964-10100-80000042D0001150D0000800005A6F       GGSL
NJARET21040-21964-10110-70000006D0000041D0000200002A6T       GGSL
NJARET21040-21964-10121-30000042D0001242D0000100001A6RP      GGSL
NJARET21040-21964-10133-60000024D0000710D0000900001TH3RP     GGSL
NJARET21040-21964-10134-30000024D0000519D0000700002BUF16     GGSL
NJARET21040-21964-10211-10000024D0000219D0000400000OMT       GGSL
NJARET21040-21964-10220-30000007D0000422D0000000000B72       GGSL
NJARET21040-21964-10315-60000023D0000659D0003400001SQG       GGSL
NJARET21040-21964-10350-70000016D0000393D0015400147X1        GGSL
NJARET21040-21964-10360-60000048D0001276D0000300000W1        GGSL
NJARET21040-21964-10370-50000060D0000677D0000400001OWF       GGSL
NJARET21040-21964-10461-00000018D0000305D0000500000LF4       GGSL
NJARET21040-21964-10466-50000042D0000711D0001100002WH3       GGSL
NJARET21040-21964-10470-20000014D0000352D0001600004H82       GGSL
NJARET21040-21964-10481-80000072D0000431D0002900001AM        GGSL
NJARET21040-21964-10485-60000042D0000403D0000800000RS3HC     GGSL
NJARET21040-21964-10486-30000036D0000376D0001900003RS3WC     GGSL
NJARET21040-21964-20061-90000001D0000058D0000100000SDC       GGSL
NJARET21040-21964-20500-30000008D0001012D0005300001YF        GGSL
NJARET21040-21964-20510-20000008D0000671D0004700000YCPD90    GGSL
NJARET21040-21964-20520-10000026D0002095D0004500001YCPW180   GGSL
NJARET21040-21964-20530-00000008D0000673D0002800000YCPT360   GGSL
NJARET21040-21964-20740-30000004D0000171D0001300000PWRSTK    GGSL
NJARET21040-21964-25241-00000030D0000887D0001400002CC12S     GGSL
NJARET21040-21964-25242-70000042D0001545D0002000002CC18S     GGSL
NJARET21040-21964-25243-40000012D0000528D0000300000CC24S     GGSL
NJARET21040-21964-25244-10000012D0000355D0002200000CC12N     GGSL
NJARET21040-21964-25245-80000012D0000442D0001700000CC18N     GGSL
NJARET21040-21964-25256-40000006D0000177D0002400001CC12FM    GGSL
NJARET21040-21964-40043-90000072D0001299D0001800005CJM8G     GGSL
NJARET21040-21964-40053-80000018D0000402D0000900000CJM15G    GGSL
NJARET21040-21964-40096-50000024D0000070D0000000000JFBIDBK   GGSL
NJARET21040-21964-40216-70000002D0000045D0000000000TS40216X  GGSL
NJARET21040-21964-41073-50000036D0000752D0001300002CJTHM15Y  GGSL
NJARET21040-21964-41084-10000006D0000177D0000400000CJTHM36Y  GGSL
NJARET21040-21964-41086-50000048D0000796D0001100000CJTHM8Y   GGSL
NJARET21040-21964-50043-60000006D0000134D0000100000CJM13GP   GGSL
NJARET21040-21964-50059-70000012D0000303D0000400000CJM13FSY  GGSL
NJARET21040-21964-60110-20000012D0000227D0000000000UNX       GGSL
NJARET21040-21964-60303-80000001D0000116D0000000000JGA       GGSL
NJARET21040-21964-60525-40000006D0000055D0000300000PS        GGSL
NJARET21040-21964-70202-10000012D0000082D0000600000WWM       GGSL
NJARET21040-21964-80100-70000024D0000201D0000300000BFB       GGSL
NJARET21040-21964-92006-70000001D0000088D0001300000YCPW180M  GGSL
NJARET21040-22179-10012-10000018D0000276D0000000000LG3109    GGSL
NJARET21040-22179-10084-80000234D0002109D0010900024LG7220    GGSL
NJARET21040-22179-10105-00000360D0015131D0004900024LG5518    GGSL
NJARET21040-22179-10106-70000624D0014677D0007700009LG5512    GGSL
NJARET21040-22179-10120-30000001D0000042D0005600000LG6510    GGSL
NJARET21040-22179-10124-10000132D0000767D0002100000LG6515    GGSL
NJARET21040-22179-10138-80000024D0000069D0000000000LG1125    GGSL
NJARET21040-22179-10157-90000012D0000262D0002800003LG6530    GGSL
NJARET21040-22179-10163-00003756D0051210D0046600182LG6150    GGSL
NJARET21040-22179-10185-20000108D0001219D0006300001LG6500    GGSL
NJARET21040-22179-10244-60000012D0000311D0000300000LG6135    GGSL
NJARET21040-22179-10246-00000054D0000927D0000300000LG6570    GGSL
NJARET21040-22179-10248-40000024D0000206D0001400003LG6575    GGSL
NJARET21040-22179-10257-60000012D0000200D0001900000LG3190    GGSL
NJARET21040-22179-10258-30000036D0001095D0000100001LG6580    GGSL
NJARET21040-22179-10266-80000012D0000238D0000900006LG6145    GGSL
NJARET21040-22179-10326-90000024D0000716D0001000000LG5482    GGSL
NJARET21040-22179-10390-00000024D0000256D0000400002LG6332    GGSL
NJARET21040-22179-10391-70000204D0003042D0004500000LG6336    GGSL
NJARET21040-22179-10392-40000006D0000146D0000400000LG4300    GGSL
NJARET21040-22179-10393-10000006D0000090D0000000000LG5367    GGSL
NJARET21040-22179-10398-60000018D0000090D0000000000LG7234    GGSL
NJARET21040-22179-10408-20000240D0002188D0000300003LG6338    GGSL
NJARET21040-22179-10417-40000016D0001378D0000200000LG6142    GGSL
NJARET21040-22179-10429-70000036D0000670D0000300000LG6334    GGSL
NJARET21040-22179-10434-10000132D0001192D0000300001LG6133    GGSL
NJARET21040-22179-10444-00000006D0000081D0000100000LG3374    GGSL
NJARET21040-22179-10448-80000060D0000707D0000600003LG3174    GGSL
NJARET21040-22179-10454-90000006D0000069D0000100001LG3303    GGSL
NJARET21040-22179-10466-20000012D0000432D0000000000LG3319    GGSL
NJARET21040-22179-10471-60000012D0000128D0000500000LG6128    GGSL
NJARET21040-22179-10481-50000018D0000255D0000200002LG5592    GGSL
NJARET21040-22179-10519-50000006D0000106D0000000000LG6544    GGSL
NJARET21040-22179-10520-10000006D0000054D0000400000LG6542    GGSL
NJARET21040-22401-00301-50000001D0000011D0002300020THD20     GGSL
NJARET21040-22401-00350-30000144D0002570D0000200000EDG20GMC  GGSL
NJARET21040-22401-00721-10000010D0000162D0000000000DBR20     GGSL
NJARET21040-22401-00740-20000036D0000640D0000400000DBRC20    GGSL
NJARET21040-22401-00740-20000002D0000036D0000000000DBRC20PC  GGSL
NJARET21040-22401-10084-40000006D0000039D0000000000VPI10     GGSL
NJARET21040-22401-10091-20000006D0000071D0000000000SDE20     GGSL
NJARET21040-22671-19590-80000012D0000137D0000000000100099412 GGSL
NJARET21040-23075-02361-30000018D0000114D0000000000P36S      GGSL
NJARET21040-23075-02721-50000016D0000086D0000000000P72H      GGSL
NJARET21040-23075-20501-90000012D0000048D0000000000G608PERLITGGSL
NJARET21040-23883-04700-90000006D0000138D00013000004700      GGSL
NJARET21040-23883-04701-60000015D0000434D00005000004701      GGSL
NJARET21040-23883-08706-70000024D0000292D00011000028706A     GGSL
NJARET21040-23883-16100-20000035D0000460D001520004016100     GGSL
NJARET21040-23883-16200-90000014D0000255D000160000016200     GGSL
NJARET21040-23883-20002-20000080D0001349D001220000620002     GGSL
NJARET21040-23883-20003-90000014D0000375D000060000520003     GGSL
NJARET21040-23883-20010-70000005D0000084D000050000020010     GGSL
NJARET21040-23883-20020-60000014D0000318D000650000720020     GGSL
NJARET21040-23883-31410-10000001D0000043D000000000031410     GGSL
NJARET21040-23883-61800-10000012D0000995D000310000061800     GGSL
NJARET21040-23883-63800-90000005D0000459D000030000163800     GGSL
NJARET21040-23883-81000-90000004D0000476D000030000081000A    GGSL
NJARET21040-24114-20450-50000075D0000483D0000500001204509    GGSL
NJARET21040-24114-70102-80000025D0000038D0009900022701002    GGSL
NJARET21040-24114-70300-80000050D0000132D0007600010703002    GGSL
NJARET21040-24114-70609-20000100D0000439D0003400003706009    GGSL
NJARET21040-24114-70807-30000175D0000700D0004500019708073    GGSL
NJARET21040-24114-71609-10000250D0001539D0000200001716009    GGSL
NJARET21040-24114-71642-80000040D0000383D0001200000701642    GGSL
NJARET21040-24114-71664-00000050D0000591D0001100000716642    GGSL
NJARET21040-24114-71673-20000250D0001645D0002100010716073    GGSL
NJARET21040-24114-71853-80000075D0000840D0000000000718573    GGSL
NJARET21040-24114-73009-70000150D0000537D0000700000730009    GGSL
NJARET21040-24114-74009-60000125D0000610D0003400028704009    GGSL
NJARET21040-24114-74209-00000075D0000483D0001200007704209    GGSL
NJARET21040-24114-74509-10000125D0000805D0001500013704509    GGSL
NJARET21040-24114-74712-50000125D0000102D0000000000742012A   GGSL
NJARET21040-24114-74712-50000100D0000329D0000800000742712    GGSL
NJARET21040-24114-74718-70000025D0000024D0000000000742018A   GGSL
NJARET21040-24114-74718-70000025D0000089D0000000000742718    GGSL
NJARET21040-24114-74809-20000075D0000483D0000300000704809    GGSL
NJARET21040-24114-77077-20000600D0000482D0000000000770077PC  GGSL
NJARET21040-24654-05922-10000060D0000753D00027000025926      GGSL
NJARET21040-24654-05931-30000006D0000091D00002000005935      GGSL
NJARET21040-24654-05962-70000002D0000584D00000000005962DS    GGSL
NJARET21040-24654-05972-60000008D0000278D00008000015972      GGSL
NJARET21040-24654-05981-80000012D0000124D00001000005981      GGSL
NJARET21040-24654-09334-80000061D0001754D00011000019334      GGSL
NJARET21040-24654-30506-90000120D0000543D000030000130506     GGSL
NJARET21040-24654-51806-30000036D0000199D000000000051806     GGSL
NJARET21040-24654-51826-10000060D0000602D000100000951826     GGSL
NJARET21040-24654-55025-40000048D0000186D00019000195026      GGSL
NJARET21040-24654-55325-50000006D0000033D000060000053256     GGSL
NJARET21040-25033-01703-00000018D0000188D000250000101703     GGSL
NJARET21040-25033-01713-90000018D0000244D000180000101713     GGSL
NJARET21040-25033-01717-70000006D0000108D000160000301717     GGSL
NJARET21040-25033-01723-80000004D0000099D000050000301723     GGSL
NJARET21040-25033-01727-60000004D0000139D000130000001727     GGSL
NJARET21040-25033-01739-90000008D0000405D000010000001739M    GGSL
NJARET21040-25033-02019-10000016D0000974D000140000002019     GGSL
NJARET21040-25033-02099-30000006D0000053D000000000002099     GGSL
NJARET21040-25033-02114-30000002D0000155D000010000102114     GGSL
NJARET21040-25033-02135-80000012D0000341D000030000002135     GGSL
NJARET21040-25033-02144-00000018D0000248D000030000002144     GGSL
NJARET21040-25033-02145-70000006D0000096D000030000002145     GGSL
NJARET21040-25033-02212-60000004D0000379D000060000102212     GGSL
NJARET21040-25033-02213-30000002D0000205D000010000102213     GGSL
NJARET21040-25033-02215-70000004D0000486D000030000002215     GGSL
NJARET21040-25033-02389-50000006D0000419D000010000002389     GGSL
NJARET21040-25033-02467-00000004D0000116D000150000002467     GGSL
NJARET21040-25033-02477-90000004D0000110D000240000002477     GGSL
NJARET21040-25033-02481-60000004D0000179D000090000002481     GGSL
NJARET21040-25033-02501-10000012D0000120D000230000102501     GGSL
NJARET21040-25033-02510-30000068D0000769D000390000102510     GGSL
NJARET21040-25033-02519-60000008D0000245D000480000002519     GGSL
NJARET21040-25033-02520-20000012D0000264D000210000102520     GGSL
NJARET21040-25033-02521-90000012D0000297D000160000102521     GGSL
NJARET21040-25033-02522-60000014D0000772D000440000002522     GGSL
NJARET21040-25033-02523-30000006D0000354D000250000102523     GGSL
NJARET21040-25033-02525-70000005D0000324D000550000002525     GGSL
NJARET21040-25033-02527-10000012D0000878D000260000002527     GGSL
NJARET21040-25033-02650-60000003D0000351D000110000002650     GGSL
NJARET21040-25033-02660-50000001D0000157D000650000002660     GGSL
NJARET21040-25033-02680-30000001D0000209D000070000002680     GGSL
NJARET21040-25033-02683-40000006D0001872D000000000002683     GGSL
NJARET21040-25033-02720-60000006D0000563D000660000102720     GGSL
NJARET21040-25033-02722-00000002D0000225D000390000002722     GGSL
NJARET21040-25033-02728-20000006D0000873D000180000002728     GGSL
NJARET21040-25033-02750-30000004D0000720D000100000002750     GGSL
NJARET21040-25033-03801-10000002D0000046D000310000003801     GGSL
NJARET21040-25033-03802-80000006D0000136D000430000003802     GGSL
NJARET21040-25033-03821-90000001D0000044D000000000003821     GGSL
NJARET21040-25033-04520-00000004D0000368D000090000004520     GGSL
NJARET21040-25033-05615-20000001D0000223D000090000005615     GGSL
NJARET21040-25033-05630-50000001D0000332D000040000005630     GGSL
NJARET21040-25033-12012-90000006D0000042D000000000012012     GGSL
NJARET21040-25033-12035-80000004D0000222D000000000012035     GGSL
NJARET21040-25033-12138-60000006D0000087D000000000012138     GGSL
NJARET21040-25033-12155-30000012D0000045D000000000012155     GGSL
NJARET21040-25033-12195-90000018D0000127D000250000012195     GGSL
NJARET21040-25033-12201-70000006D0000050D000010000012201     GGSL
NJARET21040-25033-12202-40000048D0000395D000240000612202     GGSL
NJARET21040-25033-12203-10000030D0000105D000220000012203     GGSL
NJARET21040-25033-12204-80000048D0000270D000340000312204     GGSL
NJARET21040-25033-12251-20000006D0000026D000010000012251     GGSL
NJARET21040-25033-12285-70000018D0000170D000080000112285     GGSL
NJARET21040-25033-12395-30000006D0000133D000000000012395     GGSL
NJARET21040-25033-12403-50000003D0000397D000030000012403     GGSL
NJARET21040-25033-12409-70000004D0000064D000000000012409     GGSL
NJARET21040-25033-12410-30000002D0000328D000040000012410     GGSL
NJARET21040-25033-12412-70000005D0000512D000050000012412     GGSL
NJARET21040-25033-12505-60000012D0000068D000000000012505     GGSL
NJARET21040-25033-12733-30000003D0000017D000000000012733     GGSL
NJARET21040-25033-12955-90000006D0000062D000020000012955     GGSL
NJARET21040-25033-12971-90000003D0000134D000140000212971     GGSL
NJARET21040-25033-12991-70000002D0000113D000000000012991     GGSL
NJARET21040-25033-20230-60000002D0000539D000030000020230     GGSL
NJARET21040-25531-01234-60000018D0000566D000410003375160     GGSL
NJARET21040-25545-21619-80000140D0002181D0000300003 21619    GGSL
NJARET21040-25626-15056-40000036D0000286D000000000035056     GGSL
NJARET21040-25849-00082-00000720D0007018D00000000000082P     GGSL
NJARET21040-25849-00305-00000070D0001348D00000000000305RG    GGSL
NJARET21040-25849-00305-00000035D0000662D00005000000305RGX   GGSL
NJARET21040-25849-10381-10000540D0015893D000000000010381RG   GGSL
NJARET21040-25849-10710-90000108D0001110D00004000031020010RG GGSL
NJARET21040-25849-10720-80000054D0000367D00002000021020020RG GGSL
NJARET21040-25849-11051-20000024D0000146D00013000021016051NPCGGSL
NJARET21040-25849-11051-20000060D0000331D00025000041016051RGXGGSL
NJARET21040-25849-11110-60000360D0002168D00001000011010010RG GGSL
NJARET21040-25849-11110-60000120D0000799D00120001201010010RGXGGSL
NJARET21040-25849-11120-50000240D0001214D00012000031010020RG GGSL
NJARET21040-25849-11151-90000240D0001573D00001000001010051RG GGSL
NJARET21040-25849-11151-90000110D0000719D00330001851010051RGXGGSL
NJARET21040-25849-11330-80000100D0001748D00000000001020030RG GGSL
NJARET21040-25849-11330-80000010D0000169D00000000001020030RGXGGSL
NJARET21040-25849-20381-80000090D0002826D000000000020381RG   GGSL
NJARET21040-25849-20381-80000048D0001500D000120001220381RGX  GGSL
NJARET21040-25849-62251-00000036D0000261D00001000016009051NPBGGSL
NJARET21040-25881-08502-10000001D0000015D0002400008 085024   GGSL
NJARET21040-25881-08504-50000004D0000079D0001200000 085044   GGSL
NJARET21040-25881-09984-40000023D0000402D0000000000 09984    GGSL
NJARET21040-25881-09985-10000009D0000185D0001200000 09985    GGSL
NJARET21040-25881-10702-00000012D0000149D0001800016 107024   GGSL
NJARET21040-25881-10712-90000008D0000118D0001200000 10712    GGSL
NJARET21040-26432-24016-60000001D0000086D0000000000SB4000PRCGGGSL
NJARET21040-26600-89334-70000080D0000156D003400000089334     GGSL
NJARET21040-26978-02181-60000080D0000412D000210000102181     GGSL
NJARET21040-26978-02182-30000320D0001633D000250001102182     GGSL
NJARET21040-26978-02188-50000250D0001004D000570000202188     GGSL
NJARET21040-26978-02241-70000400D0002164D000120000302241     GGSL
NJARET21040-26978-02242-40000170D0000970D000370001902242     GGSL
NJARET21040-26978-02248-60000060D0000278D000130000002248     GGSL
NJARET21040-26978-02301-80000110D0000813D000080000002301     GGSL
NJARET21040-26978-02302-50000040D0000308D000000000002302     GGSL
NJARET21040-26978-02308-70000010D0000063D000150000002308     GGSL
NJARET21040-26978-02361-20000070D0000660D000080000202361     GGSL
NJARET21040-26978-02362-90000030D0000290D000000000002362     GGSL
NJARET21040-26978-02368-10000060D0000410D000110000002368     GGSL
NJARET21040-26978-03060-30000050D0000211D000000000003060     GGSL
NJARET21040-26978-03062-70000010D0000042D000230000003062     GGSL
NJARET21040-26978-03082-50000010D0000079D000230000003082     GGSL
NJARET21040-26978-03088-70000020D0000177D000090000503088     GGSL
NJARET21040-26978-03100-60000020D0000278D00001000000310005   GGSL
NJARET21040-26978-03102-00000010D0000131D00016000010310205   GGSL
NJARET21040-26978-03108-20000005D0000066D00000000000310805   GGSL
NJARET21040-26978-03120-40000015D0000286D00005000000312005   GGSL
NJARET21040-26978-03122-80000025D0000491D00011000020312205   GGSL
NJARET21040-26978-03128-00000020D0000377D00004000000312805   GGSL
NJARET21040-26978-05013-70000036D0000035D000000000005013     GGSL
NJARET21040-26978-05016-80000072D0000070D000000000005016     GGSL
NJARET21040-26978-05041-00000036D0000065D000030000005041     GGSL
NJARET21040-26978-05071-70000288D0000340D000050000005071     GGSL
NJARET21040-26978-08060-80000080D0000359D000040000208060     GGSL
NJARET21040-26978-08062-20000020D0000095D000070000008062     GGSL
NJARET21040-26978-08080-60000020D0000177D000010000008080     GGSL
NJARET21040-26978-08098-10000040D0000266D000110000008098     GGSL
NJARET21040-26978-08120-90000005D0000103D00000000000812005   GGSL
NJARET21040-26978-08257-20000004D0000231D000000000008257     GGSL
NJARET21040-26978-08710-20000004D0000056D000020000008710     GGSL
NJARET21040-26978-08713-30000004D0000056D000040000008713     GGSL
NJARET21040-26978-10010-80000096D0000365D000030000110010     GGSL
NJARET21040-26978-10012-20000042D0000157D000080000010012     GGSL
NJARET21040-26978-10013-90000018D0000073D000090000210013     GGSL
NJARET21040-26978-10062-70000110D0000316D000160001610062     GGSL
NJARET21040-26978-10068-90000080D0000208D000170000710068     GGSL
NJARET21040-26978-10082-50000070D0000253D000000000010082     GGSL
NJARET21040-26978-10088-70000080D0000279D000050000510088     GGSL
NJARET21040-26978-10102-00000135D0000700D000210001410102     GGSL
NJARET21040-26978-10108-20000035D0000191D000080000210108     GGSL
NJARET21040-26978-10122-80000065D0000434D000220001310122     GGSL
NJARET21040-26978-10128-00000065D0000493D000120000610128     GGSL
NJARET21040-26978-10142-60000035D0000353D000050000010142     GGSL
NJARET21040-26978-10148-50000035D0000350D000150000210148     GGSL
NJARET21040-26978-10180-80000140D0000472D000030000010180     GGSL
NJARET21040-26978-10182-20000020D0000064D000030000010182     GGSL
NJARET21040-26978-10185-30000010D0000032D000040000010185     GGSL
NJARET21040-26978-10240-90000080D0000306D000050000010240     GGSL
NJARET21040-26978-10242-30000200D0000726D000270000210242     GGSL
NJARET21040-26978-10243-00000060D0000216D000120000010243     GGSL
NJARET21040-26978-10245-40000010D0000039D000320000410245     GGSL
NJARET21040-26978-10248-50000210D0000753D000190001210248     GGSL
NJARET21040-26978-10300-00000070D0000337D000160000010300     GGSL
NJARET21040-26978-10302-40000090D0000401D000060000010302     GGSL
NJARET21040-26978-10303-10000030D0000134D000060000010303     GGSL
NJARET21040-26978-10360-40000060D0000341D000060000010360     GGSL
NJARET21040-26978-10362-80000070D0000390D000160000010362     GGSL
NJARET21040-26978-10363-50000020D0000111D000040000010363     GGSL
NJARET21040-26978-10365-90000090D0000508D000040000010365     GGSL
NJARET21040-26978-16190-10000430D0001980D000160000916190     GGSL
NJARET21040-26978-16192-50000180D0000825D000000000016192     GGSL
NJARET21040-26978-16193-20000150D0000658D000160000016193     GGSL
NJARET21040-26978-16195-60000450D0002015D000000000316195     GGSL
NJARET21040-26978-16198-70000120D0000558D000010000116198     GGSL
NJARET21040-26978-16240-30000650D0003662D000730003616240     GGSL
NJARET21040-26978-16242-70001090D0006015D000850007716242     GGSL
NJARET21040-26978-16243-40000210D0001161D000200001316243     GGSL
NJARET21040-26978-16245-80000260D0001493D000070000816245     GGSL
NJARET21040-26978-16248-90000230D0001263D000230001916248     GGSL
NJARET21040-26978-16300-40000190D0001327D000010000016300     GGSL
NJARET21040-26978-16302-80000170D0001198D000270000116302     GGSL
NJARET21040-26978-16303-50000150D0001070D000070000016303     GGSL
NJARET21040-26978-16305-90000270D0001919D000040000416305     GGSL
NJARET21040-26978-16308-00000100D0000729D000030000116308     GGSL
NJARET21040-26978-16360-80000220D0002345D000200000416360     GGSL
NJARET21040-26978-16362-20000340D0003601D000050000116362     GGSL
NJARET21040-26978-16363-90000100D0001089D000040000016363     GGSL
NJARET21040-26978-16365-30000120D0001280D000150000116365     GGSL
NJARET21040-26978-16368-40000090D0001000D000040000116368     GGSL
NJARET21040-26978-26140-30000040D0000360D000020000026140     GGSL
NJARET21040-26978-26142-70000140D0001281D000440001226142     GGSL
NJARET21040-26978-26143-40000050D0000460D000100000626143     GGSL
NJARET21040-26978-26145-80000120D0001101D000150000926145     GGSL
NJARET21040-26978-26148-90000140D0001312D000070000426148     GGSL
NJARET21040-26978-26180-90000020D0000288D000040000026180     GGSL
NJARET21040-26978-26182-30000010D0000144D000030000026182     GGSL
NJARET21040-26978-26183-00000030D0000449D000130000026183     GGSL
NJARET21040-26978-26185-40000030D0000432D000050000026185     GGSL
NJARET21040-26978-26188-50000010D0000161D000050000026188     GGSL
NJARET21040-26978-26240-00000068D0000751D000060000626240     GGSL
NJARET21040-26978-26242-40000100D0001116D000130001326242     GGSL
NJARET21040-26978-26243-10000048D0000530D000020000226243     GGSL
NJARET21040-26978-26245-50000024D0000265D000000000026245     GGSL
NJARET21040-26978-29505-70000005D0000058D000070000429505     GGSL
NJARET21040-26978-30104-80000150D0000769D000680005930104     GGSL
NJARET21040-26978-30301-10000468D0002735D000960008830301     GGSL
NJARET21040-26978-30312-70000060D0000066D000130000030312     GGSL
NJARET21040-26978-30402-50000276D0001631D000030000330402     GGSL
NJARET21040-26978-30409-40000108D0000631D000000000030409     GGSL
NJARET21040-26978-30411-70000336D0002169D000040000430411     GGSL
NJARET21040-26978-30413-10000144D0000944D000080000230413     GGSL
NJARET21040-26978-30413-10000480D0002006D00003000003041396   GGSL
NJARET21040-26978-30500-80000400D0002028D001010008730500     GGSL
NJARET21040-26978-30602-90000096D0000379D000010000130602     GGSL
NJARET21040-26978-30605-00000204D0000819D000070000230605     GGSL
NJARET21040-26978-30702-60000150D0000587D000160000230702     GGSL
NJARET21040-26978-30705-70000228D0000937D000090000930705     GGSL
NJARET21040-26978-30806-10000420D0001791D000730006630806     GGSL
NJARET21040-26978-30809-20000228D0000977D000730005130809     GGSL
NJARET21040-26978-30901-30000240D0001200D000120000630901     GGSL
NJARET21040-26978-30909-90000120D0000606D000420003330909     GGSL
NJARET21040-26978-31100-90000065D0000405D000060000631100     GGSL
NJARET21040-26978-31108-50000040D0000247D000010000131108     GGSL
NJARET21040-26978-31109-20000045D0000277D000000000031109     GGSL
NJARET21040-26978-31120-70000025D0000319D000050000131120     GGSL
NJARET21040-26978-31121-40000020D0000257D000100000031121     GGSL
NJARET21040-26978-31122-10000030D0000374D000020000031122     GGSL
NJARET21040-26978-31128-30000015D0000187D000160000431128     GGSL
NJARET21040-26978-31129-00000005D0000062D000090000231129     GGSL
NJARET21040-26978-31168-90000005D0000120D000040000131168     GGSL
NJARET21040-26978-31169-60000005D0000120D000070000031169     GGSL
NJARET21040-26978-32101-50000045D0000364D000050000132100     GGSL
NJARET21040-26978-32102-20000060D0000460D000030000232102     GGSL
NJARET21040-26978-32108-40000030D0000239D000060000332108     GGSL
NJARET21040-26978-32109-10000015D0000120D000080000232109     GGSL
NJARET21040-26978-32122-70000015D0000205D000000000032122     GGSL
NJARET21040-26978-32128-20000015D0000212D000070000532128     GGSL
NJARET21040-26978-34061-00000050D0000227D000020000034061     GGSL
NJARET21040-26978-34063-40000060D0000269D000010000134063     GGSL
NJARET21040-26978-34068-90000040D0000180D000100000334068     GGSL
NJARET21040-26978-34081-80000050D0000385D000050000334081     GGSL
NJARET21040-26978-34083-20000050D0000394D000030000134083     GGSL
NJARET21040-26978-34101-30000025D0000320D000080000434101     GGSL
NJARET21040-26978-34103-70000025D0000301D000100000334103     GGSL
NJARET21040-26978-34108-20000010D0000125D000000000034108     GGSL
NJARET21040-26978-34121-10000010D0000185D000130000034121     GGSL
NJARET21040-26978-34123-50000010D0000195D000170000034123     GGSL
NJARET21040-26978-34128-00000020D0000390D000080000134128     GGSL
NJARET21040-26978-34148-00000012D0000325D000040000234148     GGSL
NJARET21040-26978-35058-90000010D0000053D000030000035058     GGSL
NJARET21040-26978-35059-60000010D0000053D000010000035059     GGSL
NJARET21040-26978-35060-20000150D0000645D000280000935060     GGSL
NJARET21040-26978-35068-80000100D0000433D000120000635068     GGSL
NJARET21040-26978-35069-50000010D0000048D000020000035069     GGSL
NJARET21040-26978-35080-00000080D0000668D000280000035080     GGSL
NJARET21040-26978-35081-70000050D0000394D000060000035081     GGSL
NJARET21040-26978-35082-40000020D0000167D000080000035082     GGSL
NJARET21040-26978-35086-20000030D0000255D000050000035086     GGSL
NJARET21040-26978-35088-60000090D0000766D000150000735088     GGSL
NJARET21040-26978-35089-30000010D0000079D000040000135089     GGSL
NJARET21040-26978-35100-50000005D0000085D000120001035100     GGSL
NJARET21040-26978-35102-90000005D0000085D000020000035102     GGSL
NJARET21040-26978-35106-70000020D0000332D000070000135106     GGSL
NJARET21040-26978-35108-10000035D0000561D000250001035108     GGSL
NJARET21040-26978-35109-80000010D0000162D000260000135109     GGSL
NJARET21040-26978-35120-30000010D0000243D000070000335120     GGSL
NJARET21040-26978-35126-50000005D0000122D000110000235126     GGSL
NJARET21040-26978-35128-90000035D0000799D000040000035128     GGSL
NJARET21040-26978-35129-60000015D0000326D000190000135129     GGSL
NJARET21040-26978-35132-60000015D0000275D000050000235132     GGSL
NJARET21040-26978-35138-80000025D0000449D000030000235138     GGSL
NJARET21040-26978-35139-50000010D0000184D000060000035139     GGSL
NJARET21040-26978-35146-30000005D0000157D000010000035146     GGSL
NJARET21040-26978-35148-70000040D0001314D000070000535148     GGSL
NJARET21040-26978-35168-50000015D0000647D000040000135168     GGSL
NJARET21040-26978-35188-30000038D0002506D000320000535188     GGSL
NJARET21040-26978-35189-00000004D0000325D000200000035189     GGSL
NJARET21040-26978-35192-00000004D0000144D000020000235192     GGSL
NJARET21040-26978-35198-20000048D0001699D000180001135198     GGSL
NJARET21040-26978-35199-90000012D0000449D000050000235199     GGSL
NJARET21040-26978-35203-30000004D0000120D000030000035203     GGSL
NJARET21040-26978-35272-90000004D0000324D000000000035272     GGSL
NJARET21040-26978-35278-10000030D0002528D000000000035278     GGSL
NJARET21040-26978-35278-10000002D0000216D00000000003527801   GGSL
NJARET21040-26978-35279-80000008D0000687D000190000535279     GGSL
NJARET21040-26978-35358-00000011D0001901D00002000003535801   GGSL
NJARET21040-26978-36100-40000015D0000176D000150000036100     GGSL
NJARET21040-26978-36108-00000005D0000056D000040000036108     GGSL
NJARET21040-26978-36140-00000005D0000067D000040000036140     GGSL
NJARET21040-26978-36148-60000030D0000402D000040000036148     GGSL
NJARET21040-26978-36220-90000025D0000587D000110000236220     GGSL
NJARET21040-26978-36228-50000040D0000939D000060000036228     GGSL
NJARET21040-26978-36298-80000010D0000329D000140000136298     GGSL
NJARET21040-26978-38142-20000168D0000893D000010000138142     GGSL
NJARET21040-26978-38148-40000348D0001879D000350001638148     GGSL
NJARET21040-26978-38192-70000048D0000583D000280002238192     GGSL
NJARET21040-26978-38196-50000198D0002419D000020000238196     GGSL
NJARET21040-26978-38198-90000186D0002225D000160000138198     GGSL
NJARET21040-26978-39122-30000060D0000259D000060000039122     GGSL
NJARET21040-26978-39126-10000024D0000100D000040000039126     GGSL
NJARET21040-26978-39128-50000024D0000095D000110000139128     GGSL
NJARET21040-26978-39182-70000174D0001782D000490003539182     GGSL
NJARET21040-26978-39186-50000036D0000375D000340002039186     GGSL
NJARET21040-26978-39188-90000552D0005667D000480003439188     GGSL
NJARET21040-26978-48098-30000018D0000080D000140000048098     GGSL
NJARET21040-26978-48158-00000030D0000217D000000000048158     GGSL
NJARET21040-26978-63065-00000010D0000044D000010000063065     GGSL
NJARET21040-26978-63066-70000010D0000044D000060000063066     GGSL
NJARET21040-26978-63069-80000020D0000082D000010000063069     GGSL
NJARET21040-26978-63075-90000010D0000071D000050000063075     GGSL
NJARET21040-26978-63096-40000005D0000075D000090000563096     GGSL
NJARET21040-26978-80101-20000064D0002434D000090000480101     GGSL
NJARET21040-26978-80101-20000020D0000767D00000000008010104   GGSL
NJARET21040-26978-80105-00000064D0002485D000100001080105     GGSL
NJARET21040-26978-80105-00000012D0000460D00000000008010504   GGSL
NJARET21040-26978-80105-40000012D0000509D00000000008010512   GGSL
NJARET21040-26978-80107-40000072D0002727D00015000008010712   GGSL
NJARET21040-26978-80151-70000004D0000170D000080000080151     GGSL
NJARET21040-26978-80155-50000072D0002746D000060000080155     GGSL
NJARET21040-26978-80157-90000024D0000909D00000000008015712   GGSL
NJARET21040-26978-81011-30000016D0000409D000250000181011     GGSL
NJARET21040-26978-81015-10000008D0000216D000280000181015     GGSL
NJARET21040-26978-81100-40000132D0001036D000270000581100     GGSL
NJARET21040-26978-81101-10000156D0001498D000210000881101     GGSL
NJARET21040-26978-81121-90000120D0000475D000090000081121     GGSL
NJARET21040-26978-81751-80000020D0000635D000210000281751     GGSL
NJARET21040-26978-81755-60000012D0000397D000230000281755     GGSL
NJARET21040-27856-10001-20008424D0025043D0000000000P10232    GGSL
NJARET21040-27856-10001-20000096D0000285D0004800015P10232M   GGSL
NJARET21040-27856-10002-90011394D0060007D0005800000P10264    GGSL
NJARET21040-27856-10002-90000030D0000158D0002300023P10264M   GGSL
NJARET21040-27856-10008-10004332D0058915D0003500000P101      GGSL
NJARET21040-27856-10008-10000004D0000054D0003200011P101M     GGSL
NJARET21040-27856-10009-80001383D0012654D0035900030P128      GGSL
NJARET21040-27856-10009-80000030D0000275D0002000018P128M     GGSL
NJARET21040-27997-00229-90000150D0003405D0000000000TE        GGSL
NJARET21040-27997-01017-10000008D0001212D0000200002 M6T22    GGSL
NJARET21040-27997-01017-10000022D0003929D0000900003M6T22     GGSL
NJARET21040-27997-20063-30000006D0000060D0000000000KSM       GGSL
NJARET21040-27997-21273-50000012D0000115D0000000000KLRO      GGSL
NJARET21040-28009-11250-00000066D0000296D0000000000T1225X    GGSL
NJARET21040-28009-11440-50000065D0000461D0000600003T1440     GGSL
NJARET21040-28009-11731-40000048D0000378D0001700000T1925X    GGSL
NJARET21040-28009-11731-40000065D0000611D00000000001925      GGSL
NJARET21040-28009-11840-30000060D0000443D0000000000T1840     GGSL
NJARET21040-28929-13793-50000005D0000038D0000000000137SP93   GGSL
NJARET21040-29973-12333-20000640D0002253D000060000514110028P GGSL
NJARET21040-29973-12341-70000013D0000065D0000000000141100216UGGSL
NJARET21040-29973-12456-80000048D0000211D000010000114902028P GGSL
NJARET21040-30541-00003-00000050D0000063D0000000000JCD50EP   GGSL
NJARET21040-30541-00066-50000048D0000120D0002300012JCDTP03   GGSL
NJARET21040-30541-00069-60000012D0000069D0000100000JCD05CMP  GGSL
NJARET21040-30541-00801-20000012D0000609D0001600000JCD08BKSM GGSL
NJARET21040-30541-01020-60000216D0000490D0006500008JCD024SM  GGSL
NJARET21040-30541-01020-60000060D0000108D0000000000JCD060SM  GGSL
NJARET21040-30541-01030-50000102D0000856D0006000004JCD100SMJ GGSL
NJARET21040-30541-01034-30000066D0001384D0003900001JCD030SM  GGSL
NJARET21040-30541-01039-80000096D0000484D0005000028JCD05SM   GGSL
NJARET21040-30541-07002-60000001D0000150D0000200000JCDSTKT2  GGSL
NJARET21040-30541-08878-60000024D0000072D0000600000SMMS      GGSL
NJARET21040-30541-08879-30000048D0000150D0002200018SMVS      GGSL
NJARET21040-30541-09981-20000550D0001070D0000400000JCDTPG    GGSL
NJARET21040-30541-09983-60000050D0000099D0000000000JCDTPP    GGSL
NJARET21040-31340-10005-10000096D0001759D0002300004B550120   GGSL
NJARET21040-31340-10006-80000204D0002265D0014500018B550125   GGSL
NJARET21040-31340-10007-50000012D0000390D0001000000B550130   GGSL
NJARET21040-31340-10017-40000104D0001906D0000100000B550190   GGSL
NJARET21040-31365-10600-70000104D0001824D0013000015 42808    GGSL
NJARET21040-31417-00043-70000104D0000555D000050000080201105  GGSL
NJARET21040-31417-00046-80000007D0000077D000050000580201121X GGSL
NJARET21040-31417-00047-50000002D0000042D000000000080551121X GGSL
NJARET21040-31417-00055-00000264D0006650D000000000080601131  GGSL
NJARET21040-31417-00055-00000007D0000176D000150000080601131X GGSL
NJARET21040-31417-00056-70000132D0002971D000000000080611131  GGSL
NJARET21040-31417-00056-70000016D0000362D000710000080611131X GGSL
NJARET21040-31417-00057-40000010D0000193D000340000080621131X GGSL
NJARET21040-31724-01002-00000006D0000084D0000000000HM100     GGSL
NJARET21040-31724-81001-90000003D0000189D00009000028100100   GGSL
NJARET21040-31724-81005-70000016D0000587D0001500005810050    GGSL
NJARET21040-31724-84000-90000015D0000345D00034000008400100   GGSL
NJARET21040-31724-84005-40000020D0000254D0008000031840050    GGSL
NJARET21040-31724-84007-80000003D0000066D0002400001840075    GGSL
NJARET21040-31724-85090-90000006D0000214D00031000048509100   GGSL
NJARET21040-31724-85095-40000060D0001095D0002100002850950    GGSL
NJARET21040-31724-85097-80000006D0000166D0003800004850975    GGSL
NJARET21040-31724-85350-40000003D0000093D00003000028535100   GGSL
NJARET21040-31724-85355-90000015D0000238D0004000000853550    GGSL
NJARET21040-31724-85357-30000003D0000067D0000000000853575    GGSL
NJARET21040-31724-86175-20000030D0000788D0001100000861750    GGSL
NJARET21040-31724-86175-20000003D0001285D000000000086175028  GGSL
NJARET21040-31724-86177-60000075D0003276D00008000018617100   GGSL
NJARET21040-31724-86177-60000090D0003231D0002700006861775    GGSL
NJARET21040-31724-88451-50000006D0000307D00000000008845100   GGSL
NJARET21040-31724-88455-30000020D0000620D0001100000884550    GGSL
NJARET21040-32247-00900-30000270D0000849D00124000371009001   GGSL
NJARET21040-32247-00910-20000186D0000626D00114000101009101   GGSL
NJARET21040-32247-00950-80000174D0000582D00137000081009501   GGSL
NJARET21040-32247-02515-70000183D0007670D00388000112515      GGSL
NJARET21040-32247-03594-10000050D0000417D000010000070359430  GGSL
NJARET21040-32247-05514-70001260D0006489D000470000370551430  GGSL
NJARET21040-32247-05514-70000057D0000291D000810004270551430X GGSL
NJARET21040-32247-10500-20000048D0000475D0004300000110500    GGSL
NJARET21040-32247-14900-60000064D0000518D001020000014900     GGSL
NJARET21040-32247-14901-30000012D0000188D001250000014901     GGSL
NJARET21040-32247-14902-00000324D0005010D000550000314902     GGSL
NJARET21040-32247-14905-10000192D0001498D001600002514905     GGSL
NJARET21040-32247-17183-00000546D0005380D000530001517183     GGSL
NJARET21040-32247-17185-40000200D0004504D001290000817185     GGSL
NJARET21040-32247-17187-80000076D0004194D001270003617187     GGSL
NJARET21040-32247-17290-50000132D0001431D000780000217290     GGSL
NJARET21040-32247-17293-60000060D0000599D000470000117293     GGSL
NJARET21040-32247-17295-00000032D0000747D000230000117295     GGSL
NJARET21040-32247-17323-00000168D0001654D000510000217323     GGSL
NJARET21040-32247-17325-40000044D0000851D000180000217325     GGSL
NJARET21040-32247-17327-80000009D0000375D000450000017327     GGSL
NJARET21040-32247-17378-00000001D0000034D001560000017378     GGSL
NJARET21040-32247-17504-30000014D0000680D000930002617504     GGSL
NJARET21040-32247-17508-10000642D0008332D002450004717508     GGSL
NJARET21040-32247-17511-10000126D0001769D000600000117511     GGSL
NJARET21040-32247-17530-20000102D0000940D000400000517530     GGSL
NJARET21040-32247-17540-10000164D0004577D002640001317540     GGSL
NJARET21040-32247-18213-30000072D0001808D000770000918213     GGSL
NJARET21040-32247-18216-40000025D0001736D000970006718216     GGSL
NJARET21040-32247-18221-80000192D0004558D001340000618221     GGSL
NJARET21040-32247-18222-50000016D0000255D000340000018222     GGSL
NJARET21040-32247-18225-60000264D0003126D001750001718225     GGSL
NJARET21040-32247-18249-20000025D0001557D000570000418249     GGSL
NJARET21040-32247-18251-50000048D0001593D000260000018251     GGSL
NJARET21040-32247-18260-70000066D0000700D000430000418260     GGSL
NJARET21040-32247-18266-90000078D0001002D000590000118266     GGSL
NJARET21040-32247-18269-00000028D0000875D000410000018269     GGSL
NJARET21040-32247-18272-00000066D0000331D000440000218272     GGSL
NJARET21040-32247-18277-50000012D0000335D000390000018277     GGSL
NJARET21040-32247-18287-40000006D0000081D000460000018287     GGSL
NJARET21040-32247-18296-60000030D0000371D000070000018296     GGSL
NJARET21040-32247-18320-80000024D0000217D000290000118320     GGSL
NJARET21040-32247-18334-50000032D0003456D000100000018334     GGSL
NJARET21040-32247-18345-10000090D0001170D000550000518345     GGSL
NJARET21040-32247-18346-80000032D0000689D000480000218346     GGSL
NJARET21040-32247-18348-20000102D0001374D000520000718348     GGSL
NJARET21040-32247-18354-30000132D0001829D000310000218354     GGSL
NJARET21040-32247-20785-00000588D0001740D000100001072078430  GGSL
NJARET21040-32247-21605-00000206D0004170D004710005721605     GGSL
NJARET21040-32247-21701-90000252D0002262D001180000521701     GGSL
NJARET21040-32247-21814-60000023D0001070D004540000621814     GGSL
NJARET21040-32247-22305-80000044D0000821D004980000622305     GGSL
NJARET21040-32247-22315-70000042D0001911D002750000022315     GGSL
NJARET21040-32247-23001-80000162D0005128D002530005723001     GGSL
NJARET21040-32247-23002-50000132D0001806D000830000223002     GGSL
NJARET21040-32247-23200-50000010D0000373D000290000023200     GGSL
NJARET21040-32247-23616-40000649D0013963D003470001723616     GGSL
NJARET21040-32247-23622-50000371D0005686D008380000923622     GGSL
NJARET21040-32247-25006-10000162D0004021D003180002225006A    GGSL
NJARET21040-32247-25009-20000108D0006953D001880000225009     GGSL
NJARET21040-32247-26002-20000032D0002119D001590000726002A    GGSL
NJARET21040-32247-26003-90000135D0003540D002390004626003D    GGSL
NJARET21040-32247-26784-70000132D0000528D000990001372678430  GGSL
NJARET21040-32247-27764-80000384D0001920D000130001172776430  GGSL
NJARET21040-32247-30073-50000020D0000276D000010000030073     GGSL
NJARET21040-32247-30156-50000028D0000516D001650002430156     GGSL
NJARET21040-32247-30158-90000032D0001508D000080000030158C1   GGSL
NJARET21040-32247-31115-80000020D0001563D002410000031115     GGSL
NJARET21040-32247-32367-30000058D0001780D005240000032367F    GGSL
NJARET21040-32247-33002-20000012D0000185D00029000003300210   GGSL
NJARET21040-32247-33040-40000399D0006174D006750003133040     GGSL
NJARET21040-32247-33050-30000153D0006477D005770001133050     GGSL
NJARET21040-32247-33160-90000395D0027773D002120004033160     GGSL
NJARET21040-32247-34161-50000237D0014082D003960003634161     GGSL
NJARET21040-32247-36905-30000452D0016384D002900003536905     GGSL
NJARET21040-32247-37594-80000200D0001668D000010000073759430  GGSL
NJARET21040-32247-37610-50000029D0000397D000970000437610C    GGSL
NJARET21040-32247-38505-30000013D0000250D002270000038505     GGSL
NJARET21040-32247-38615-90000002D0000071D000880000038615     GGSL
NJARET21040-32247-39181-80000704D0018761D004820001039181     GGSL
NJARET21040-32247-39594-60000050D0000493D000110000073959430  GGSL
NJARET21040-32247-39605-90000061D0001137D006260000039605     GGSL
NJARET21040-32247-39615-80000068D0003418D003060000039615     GGSL
NJARET21040-32247-42784-50000390D0001560D000000000174278430  GGSL
NJARET21040-32247-43750-90000012D0000257D00020000014375010   GGSL
NJARET21040-32247-43850-60000092D0002450D00046000004385010   GGSL
NJARET21040-32247-43854-40000012D0000156D00036000004385404   GGSL
NJARET21040-32247-43860-50000028D0000682D00053000024386004   GGSL
NJARET21040-32247-44615-00000044D0001038D000490000644615A    GGSL
NJARET21040-32247-45651-70000120D0001309D000040000245651300  GGSL
NJARET21040-32247-47783-30000096D0000384D000800000774778300  GGSL
NJARET21040-32247-49019-10000254D0003044D002490001749019     GGSL
NJARET21040-32247-49023-80000024D0000245D000140000049023     GGSL
NJARET21040-32247-49024-50000284D0004212D000430002749024     GGSL
NJARET21040-32247-49785-50000894D0003479D000380001374978500  GGSL
NJARET21040-32247-49801-20000018D0000238D002170001649801C    GGSL
NJARET21040-32247-50087-60000006D0000130D00032000005008710   GGSL
NJARET21040-32247-50088-30000018D0000389D00018000005008810   GGSL
NJARET21040-32247-50154-50000050D0000422D000100000245015430  GGSL
NJARET21040-32247-50524-60000156D0001323D000030000075052430  GGSL
NJARET21040-32247-50524-60000039D0000331D001220000075052430X GGSL
NJARET21040-32247-51062-20000006D0000056D000340000051062     GGSL
NJARET21040-32247-51070-70000020D0000189D000210000151070     GGSL
NJARET21040-32247-51080-60000030D0000146D000110000151080     GGSL
NJARET21040-32247-51105-60000105D0001404D004950000551105     GGSL
NJARET21040-32247-51115-50000117D0004545D002480005651115     GGSL
NJARET21040-32247-52784-20000252D0000956D000970001785278430  GGSL
NJARET21040-32247-53105-40000125D0001344D003550002353105     GGSL
NJARET21040-32247-53115-30000074D0001810D002750002653115     GGSL
NJARET21040-32247-54105-30000024D0000129D00010000035410510   GGSL
NJARET21040-32247-54204-30000030D0000349D00010000005420406   GGSL
NJARET21040-32247-55513-50000715D0007186D000900000175551300  GGSL
NJARET21040-32247-55513-50000113D0001136D002690008375551300X GGSL
NJARET21040-32247-55523-40000216D0003400D000590000375552300  GGSL
NJARET21040-32247-55523-40000034D0000512D001820006075552300X GGSL
NJARET21040-32247-55783-20000138D0000709D000330002675578300  GGSL
NJARET21040-32247-55863-10000028D0000191D004270007175586300X GGSL
NJARET21040-32247-56063-40000304D0001261D000690000045606300  GGSL
NJARET21040-32247-56163-10000091D0000769D000050000245616300  GGSL
NJARET21040-32247-56163-10000031D0000230D001050000245616300X GGSL
NJARET21040-32247-56211-90000132D0001755D00041000035621106   GGSL
NJARET21040-32247-56513-40003445D0029952D000850002475651300  GGSL
NJARET21040-32247-56513-40000092D0000828D004480010475651300X GGSL
NJARET21040-32247-56523-30001764D0024043D000650002075652300  GGSL
NJARET21040-32247-56523-30000036D0000506D001750002075652300X GGSL
NJARET21040-32247-56783-10001290D0005977D016510010075678300  GGSL
NJARET21040-32247-56783-10002880D0013651D000240000575678309  GGSL
NJARET21040-32247-56863-00000819D0006175D000240000275686300  GGSL
NJARET21040-32247-56863-00000229D0001712D000910005175686300X GGSL
NJARET21040-32247-57905-60000045D0000558D002210000957905     GGSL
NJARET21040-32247-60594-60000050D0000417D000060000076059430  GGSL
NJARET21040-32247-71060-20000378D0004652D000130000471060     GGSL
NJARET21040-32247-71131-90000052D0000913D000260000271131     GGSL
NJARET21040-32247-74150-70001920D0010032D0015500043274150    GGSL
NJARET21040-32247-74250-40002364D0019836D0004800026274250    GGSL
NJARET21040-32247-74850-60000352D0006490D0019900027274850    GGSL
NJARET21040-32247-75902-10000043D0003539D000000000075902     GGSL
NJARET21040-32247-76121-50000006D0000218D000030000376121     GGSL
NJARET21040-32247-76232-80000102D0006098D000130000276232     GGSL
NJARET21040-32247-76565-70000057D0003279D000040000276565     GGSL
NJARET21040-32247-77160-30001800D0008645D0013600034277160    GGSL
NJARET21040-32247-77260-00001236D0010813D0021700030277260    GGSL
NJARET21040-32247-77860-20000228D0003715D0019500006277860    GGSL
NJARET21040-32247-77960-90000512D0010780D0022100037277960    GGSL
NJARET21040-32247-90550-30000067D0006227D0008400014 671025   GGSL
NJARET21040-32247-95517-10000240D0001226D000210001179551750  GGSL
NJARET21040-32247-95517-10000028D0000143D001400002279551750X GGSL
NJARET21040-32247-99605-10000268D0005813D004720003699605     GGSL
NJARET21040-32247-99610-50000009D0000412D002240001699610     GGSL
NJARET21040-32903-00169-30000864D0001085D0001600005SLI06000E3GGSL
NJARET21040-32903-00171-60000288D0000328D0001300003SLI06000A3GGSL
NJARET21040-32903-00191-40000108D0000503D0000200000GAB12000E2GGSL
NJARET21040-32903-00192-10000456D0000562D0001800012SLI06000B9GGSL
NJARET21040-32903-00214-00000168D0000204D0001800003SLI06000E2GGSL
NJARET21040-32903-00222-50000288D0000473D0002400005SLI08000B9GGSL
NJARET21040-32903-00224-90000060D0000403D0001400005VNP18000E2GGSL
NJARET21040-32903-00227-00000054D0000224D0001400002SVN18000E2GGSL
NJARET21040-32903-00240-90000096D0000154D0002400003SLI08000E2GGSL
NJARET21040-32903-00246-10000312D0000487D0003400002SLI08000A3GGSL
NJARET21040-32903-00257-70000001D0000044D0000100001RZGH210G2 GGSL
NJARET21040-32903-00258-40000192D0000313D0003600005LIA06000E2GGSL
NJARET21040-32903-00264-50000192D0000512D0002300004LIA08000E2GGSL
NJARET21040-32903-00281-20000144D0000545D0005100005LIA10000E2GGSL
NJARET21040-32903-00283-60000048D0000316D0000800000GAB14000E2GGSL
NJARET21040-32903-00284-30000020D0000580D0000000000TEA20000G2GGSL
NJARET21040-32903-00287-40000078D0000630D0002400017VNP24000E2GGSL
NJARET21040-32903-00290-40000060D0000581D0002300005VNP30000E2GGSL
NJARET21040-32903-00293-50000156D0000323D0011200007SLI10000E2GGSL
NJARET21040-32903-00301-70000080D0001244D0001000000ROP28000A3GGSL
NJARET21040-32903-00309-30000384D0000839D0006200014SLI10000E3GGSL
NJARET21040-32903-00313-00000006D0000061D0000000000GAB18000E2GGSL
NJARET21040-32903-00326-00000192D0001253D0005400003LIA12000E2GGSL
NJARET21040-32903-00332-10000288D0000620D0001100005SLI10000B9GGSL
NJARET21040-32903-00338-30000144D0000306D0002700005SLI10000A3GGSL
NJARET21040-32903-00341-30000126D0001107D0000800004SLI24000E3GGSL
NJARET21040-32903-00359-80000552D0000869D0006000011SLI08000E3GGSL
NJARET21040-32903-04255-90000504D0004043D0002800002LIA14000E2GGSL
NJARET21040-32903-04257-30000060D0000218D0002000005SLI12000E2GGSL
NJARET21040-32903-07519-90000048D0000658D0001700002LIA16000E2GGSL
NJARET21040-32903-07530-40000060D0000246D0001700001SLI14000E2GGSL
NJARET21040-32903-07534-20000006D0000110D0001500006LIA20000E2GGSL
NJARET21040-32903-07558-80000090D0000339D0000200002RZWC1Q0B9 GGSL
NJARET21040-32903-07563-20000024D0000091D0000900002SLI17000E2GGSL
NJARET21040-32903-12006-60001032D0001789D0003700010LIA06000E3GGSL
NJARET21040-32903-12008-00001080D0002922D0001500003LIA08000E3GGSL
NJARET21040-32903-12010-30000744D0002956D0007800014LIA10000E3GGSL
NJARET21040-32903-12012-70001140D0007329D0006500023LIA12000E3GGSL
NJARET21040-32903-12014-10001596D0012832D0003000020LIA14000E3GGSL
NJARET21040-32903-12017-20000456D0005599D0000000001LIA16000E3GGSL
NJARET21040-32903-12020-20000060D0001051D0000200002LIA20000E3GGSL
NJARET21040-32903-12024-00000084D0002021D0001500010LIA24000E3GGSL
NJARET21040-32903-12312-80000228D0001253D0001700011CNA12000E3GGSL
NJARET21040-32903-12318-00000018D0000078D0001800002SVN18000E3GGSL
NJARET21040-32903-12324-10000042D0000202D0001400001SVN24000E3GGSL
NJARET21040-32903-12712-60000036D0000166D0003700010GAB12000E3GGSL
NJARET21040-32903-12714-00000012D0000079D0003600008GAB14000E3GGSL
NJARET21040-32903-12718-80000018D0000178D0002300002GAB18000E3GGSL
NJARET21040-32903-12722-50000018D0000281D0001500000GAB22000E3GGSL
NJARET21040-32903-12818-50000132D0000892D0000300002VNP18000E3GGSL
NJARET21040-32903-12824-60000042D0000329D0001100000VNP24000E3GGSL
NJARET21040-32903-12830-70000120D0001286D0001400006VNP30000E3GGSL
NJARET21040-32903-22484-90000025D0000380D0000100001ROP28000E2GGSL
NJARET21040-32903-23732-00000012D0000086D0001300002SLI20000E2GGSL
NJARET21040-32903-30392-60000408D0000930D0001700008CNA08000E3GGSL
NJARET21040-32903-35947-30000216D0000747D0001600010CNA10000E3GGSL
NJARET21040-32903-40400-50000180D0000730D0002900004LIA10000A3GGSL
NJARET21040-32903-40493-70000288D0000768D0003500004LIA08000B9GGSL
NJARET21040-32903-40770-90000066D0000478D0002500012VNP18000A3GGSL
NJARET21040-32903-41472-10000024D0000137D0002300000SVN30000A3GGSL
NJARET21040-32903-41640-40000240D0000597D0002300008LIA08000A3GGSL
NJARET21040-32903-41717-30000264D0002146D0002300004LIA14000B9GGSL
NJARET21040-32903-41728-90000360D0002315D0002100004LIA12000B9GGSL
NJARET21040-32903-41842-20000300D0002518D0000600006VNP30000A3GGSL
NJARET21040-32903-41909-20000144D0001805D0000900006LIA16000A3GGSL
NJARET21040-32903-42050-00000012D0000294D0000400000LIA24000A3GGSL
NJARET21040-32903-42240-50000456D0000791D0003600010LIA06000B9GGSL
NJARET21040-32903-42728-80000042D0000200D0001700002SVN24000A3GGSL
NJARET21040-32903-43116-20000054D0000237D0002200002SVN18000A3GGSL
NJARET21040-32903-45170-20000012D0000106D0000800000LIA14000A3GGSL
NJARET21040-32903-45342-30000120D0000910D0001400008VNP24000A3GGSL
NJARET21040-32903-45788-90000042D0000962D0001800004LIA24000B9GGSL
NJARET21040-32903-46337-80000180D0002362D0000500002LIA16000B9GGSL
NJARET21040-32903-46966-00000030D0000544D0001000005LIA20000A3GGSL
NJARET21040-32903-47208-00000168D0001052D0003500003LIA12000A3GGSL
NJARET21040-32903-48101-30000216D0000394D0001200000LIA06000A3GGSL
NJARET21040-32903-48538-70000048D0000838D0003300005LIA20000B9GGSL
NJARET21040-32903-50286-20000252D0000918D0001700008HSI10008E2GGSL
NJARET21040-32903-50763-80000096D0000359D0006400040SLI12000E3GGSL
NJARET21040-32903-50764-50000132D0000545D0005700008SLI14000B9GGSL
NJARET21040-32903-50766-90000004D0000163D0000100001TEA24000G2GGSL
NJARET21040-32903-50767-60000048D0000189D0000700001SLI12000A3GGSL
NJARET21040-32903-50794-20000144D0000558D0001200007SLI12000B9GGSL
NJARET21040-32903-50802-40000324D0001304D0001400008SLI14000E3GGSL
NJARET21040-32903-50803-10000072D0000271D0000900001SLI14000A3GGSL
NJARET21040-32903-52340-90000006D0000028D0000800000SVN24000B9GGSL
NJARET21040-32903-52858-90000018D0000124D0000000000VNP18000B9GGSL
NJARET21040-32903-53271-50000018D0000153D0012100099SLI24000E2GGSL
NJARET21040-32903-55269-00000004D0000324D0000000000TEA30000E3GGSL
NJARET21040-32903-56391-70000096D0000346D0004600010HSI10008A1GGSL
NJARET21040-32903-57235-30000012D0000122D0000700000VNP30000B9GGSL
NJARET21040-32903-57495-10000024D0000132D0000700000SVN30000B9GGSL
NJARET21040-32903-58838-50000030D0000124D0001000001SVN18000B9GGSL
NJARET21040-32903-60254-80000012D0000044D0000000000SRO12500E2GGSL
NJARET21040-32903-61636-10000180D0000650D0003100007HSI10008B6GGSL
NJARET21040-32903-63553-90000004D0000152D0000200000TEA24000E3GGSL
NJARET21040-32903-66002-90000090D0001405D0000500002ROP28000E3GGSL
NJARET21040-32903-71041-00000012D0000075D0000300003RZWC1G0E3 GGSL
NJARET21040-32903-72233-80000864D0003302D0002000012LIA10000B9GGSL
NJARET21040-32903-72518-60000216D0002044D0001100008RZWC2G0B9 GGSL
NJARET21040-32903-72886-60000024D0000150D0000000000RZWC1G0B9 GGSL
NJARET21040-32903-75049-20000060D0000397D0002100006SLI20000E3GGSL
NJARET21040-32903-75051-50000024D0000112D0001000003SLI17000A3GGSL
NJARET21040-32903-75057-70000036D0000161D0001500003SLI17000B9GGSL
NJARET21040-32903-75070-60000024D0000161D0001100000SLI20000A3GGSL
NJARET21040-32903-75080-50000192D0000825D0002800006SLI17000E3GGSL
NJARET21040-32903-75081-20000030D0000207D0000900001SLI20000B9GGSL
NJARET21040-32903-75084-30000006D0000053D0001000000SLI24000A3GGSL
NJARET21040-32903-75089-80000018D0000157D0002000003SLI24000B9GGSL
NJARET21040-32903-91270-80000005D0000175D0000100001RZGH210E3 GGSL
NJARET21040-32903-91319-40000006D0000098D0000100000TEA17000G8GGSL
NJARET21040-32903-91485-60000100D0001333D0000200000SPX24DBA34GGSL
NJARET21040-33200-00020-40002076D0001454D01119007423320000020GGSL
NJARET21040-33200-00544-50008464D0084814D089640896400544     GGSL
NJARET21040-33200-01191-00000044D0000311D002450023201191     GGSL
NJARET21040-33200-06527-20000012D0000216D00948009486527      GGSL
NJARET21040-33200-09020-50000180D0001258D002200012009020     GGSL
NJARET21040-33200-09142-40000048D0000339D003030030309142     GGSL
NJARET21040-33200-09293-30000204D0001426D00629006299293      GGSL
NJARET21040-33200-09793-80000010D0000094D00054000009793      GGSL
NJARET21040-33200-11321-80000090D0000120D002370015411321     GGSL
NJARET21040-33200-11448-20000012D0000018D000960000011448     GGSL
NJARET21040-33200-35240-20000008D0000015D0007400000352402    GGSL
NJARET21040-33200-94182-80011642D0116653D047160471694182     GGSL
NJARET21040-33200-97242-60000004D0000032D002070000697242     GGSL
NJARET21040-33200-97457-40003210D0033416D032320323297457     GGSL
NJARET21040-33349-03110-70000296D0000412D0000000000JP310     GGSL
NJARET21040-33349-05042-90000060D0000283D0000000000J324      GGSL
NJARET21040-33349-05048-10000144D0000586D0000500001J3R36     GGSL
NJARET21040-33349-05082-50000048D0000148D0003000003JP506     GGSL
NJARET21040-33349-05618-60000088D0000506D0006100061G310      GGSL
NJARET21040-33349-07750-10000232D0000760D0000300000J4R25     GGSL
NJARET21040-33349-41211-10000704D0000773D0000400003JP212     GGSL
NJARET21040-33349-41214-20001744D0003637D0000000000JP226     GGSL
NJARET21040-33349-41221-00000300D0000608D0000500000TDOME     GGSL
NJARET21040-33349-41234-00000800D0001338D0000000000TTRAY     GGSL
NJARET21040-33349-41238-80000014D0000066D0000000000T32       GGSL
NJARET21040-33349-41251-70000630D0001904D0000600001JS50      GGSL
NJARET21040-33349-41254-80000320D0000967D0000200000JS32      GGSL
NJARET21040-33349-41258-60000066D0000122D0000000000TR72      GGSL
NJARET21040-33349-41318-70000054D0000161D0000000000JP322     GGSL
NJARET21040-33349-41444-30000336D0000762D0000200001JP406     GGSL
NJARET21040-33349-41620-10000045D0000349D0000000000G316      GGSL
NJARET21040-33349-41701-70002000D0000242D0001800002J4BULK    GGSL
NJARET21040-33349-41710-90000034D0000108D0000100001J312      GGSL
NJARET21040-33349-65153-40000040D0000252D0000000000G312      GGSL
NJARET21040-33349-66005-50000016D0000060D0000000000J425ST16PCGGSL
NJARET21040-33349-66006-20000060D0000629D0000100001J450ST20  GGSL
NJARET21040-33349-66008-60000040D0000572D0000600001J636ST10  GGSL
NJARET21040-33349-66009-30000112D0000714D0001200003T72HST14  GGSL
NJARET21040-33349-66010-90000016D0000127D0000000000TS50HST16 GGSL
NJARET21040-33349-66015-40000014D0000082D0000000000TS20HST14 GGSL
NJARET21040-33349-66016-10000056D0000352D0000200001TS32HST14 GGSL
NJARET21040-33607-00003-60000012D0000358D0001700001EDGE180   GGSL
NJARET21040-33607-00301-30000012D0000141D0000100000TT1W      GGSL
NJARET21040-33607-00320-40000001D0000106D0000300001TTMIX124  GGSL
NJARET21040-33607-00938-10000004D0000100D0002500001M7C       GGSL
NJARET21040-33607-01208-40000030D0000518D0000600001LT8       GGSL
NJARET21040-33607-01220-60000072D0001716D0000200000LT20      GGSL
NJARET21040-33607-22000-70000120D0001188D0000900002HCWM1     GGSL
NJARET21040-33607-22004-50000036D0000904D0000600002D6C       GGSL
NJARET21040-33607-22005-20000012D0000301D0002500002HC2       GGSL
NJARET21040-33607-22006-90000012D0000255D0002800002HBE6      GGSL
NJARET21040-33607-22010-60000016D0000467D0004000003HCF3      GGSL
NJARET21040-33607-22075-50000007D0000605D0002000002HTC1      GGSL
NJARET21040-33607-22125-70000007D0000779D0002800001HT2EZ     GGSL
NJARET21040-33607-22250-60000004D0000534D0002000001HT4EZ     GGSL
NJARET21040-33607-22310-70000004D0000114D0000300000BPL6      GGSL
NJARET21040-33607-22310-70000006D0000047D0000500000HG18      GGSL
NJARET21040-33607-51200-30000004D0000188D0001000000RC3       GGSL
NJARET21040-33607-52100-50000052D0002451D0000100000GKS2      GGSL
NJARET21040-33607-90042-80000008D0000465D0000000000HT100S    GGSL
NJARET21040-33745-97185-40000037D0001105D001980001497185X    GGSL
NJARET21040-34411-00018-20000012D0000011D00000000008013641001GGSL
NJARET21040-34411-00340-40000006D0000069D00001000008450031002GGSL
NJARET21040-34411-00775-40000006D0000040D00000000008177531001GGSL
NJARET21040-34411-00832-40000012D0000071D00004000008083231002GGSL
NJARET21040-34411-01076-10000050D0000825D00000000008006041001GGSL
NJARET21040-34411-05711-70000010D0000048D0046700000 571TFR   GGSL
NJARET21040-34411-11208-30000003D0000166D0000000000 10034075 GGSL
NJARET21040-34411-18845-30000004D0000030D00008000008883031012GGSL
NJARET21040-34411-26190-30000006D0000075D00000000008219331011GGSL
NJARET21040-34411-74501-40000012D0000344D00000000008745011002GGSL
NJARET21040-34411-80203-80000018D0000327D00000000008802031011GGSL
NJARET21040-34411-92773-10000048D0000376D00001000008702511001GGSL
NJARET21040-34613-00006-50000012D0000295D0000000000LH006     GGSL
NJARET21040-34613-00011-90000024D0000207D0000500003LH011     GGSL
NJARET21040-34613-00014-00000012D0000103D0000500000LH014     GGSL
NJARET21040-34613-00068-30000036D0000582D000000000068WP      GGSL
NJARET21040-34613-00214-40000025D0000030D0000000000CVS010DL  GGSL
NJARET21040-34613-00342-40000024D0000090D0000000000342       GGSL
NJARET21040-34613-00448-30000012D0000048D0000100000448       GGSL
NJARET21040-34613-00469-80000009D0001264D0000000000 N408     GGSL
NJARET21040-34613-00805-40000040D0000074D0000000000SS5       GGSL
NJARET21040-34613-00809-20000020D0000012D0000000000SS6HD     GGSL
NJARET21040-34613-00860-30000012D0000233D0000400000860       GGSL
NJARET21040-34613-01064-40000012D0000144D00068000001064      GGSL
NJARET21040-34613-01284-60000012D0000048D0000000000CVS012HD  GGSL
NJARET21040-34613-01502-10000024D0000042D00000000001502      GGSL
NJARET21040-34613-01901-20000192D0001665D00004000011901      GGSL
NJARET21040-34613-02130-50000024D0000283D00001000002130      GGSL
NJARET21040-34613-03104-50000012D0000116D00000000003104      GGSL
NJARET21040-34613-04863-00000012D0000103D0000200000LH014BL   GGSL
NJARET21040-34613-04864-70000012D0000103D0000100000LH016BL   GGSL
NJARET21040-34613-04870-80000012D0000150D0000400000LH015BL   GGSL
NJARET21040-34613-07174-40000006D0000061D00009000007174BL    GGSL
NJARET21040-34613-08446-10000024D0000388D0000200000BF24      GGSL
NJARET21040-34613-09501-60000048D0000721D00006000009501      GGSL
NJARET21040-34613-09707-20000012D0000060D00000000009707      GGSL
NJARET21040-34613-12060-20000006D0000127D00000000002060N     GGSL
NJARET21040-34613-25027-90000001D0000043D0000000000MDSLH     GGSL
NJARET21040-34613-34012-30000025D0000028D0000200000CVS012    GGSL
NJARET21040-34613-60476-80000025D0000621D000490000060476A    GGSL
NJARET21040-34613-60481-20000015D0000574D000040000360481A    GGSL
NJARET21040-34613-60567-30000007D0000548D000200000060567     GGSL
NJARET21040-34613-60568-00000002D0000067D000000000060568     GGSL
NJARET21040-34613-65499-20000002D0000074D000000000065499     GGSL
NJARET21040-34613-65677-40000060D0002447D012870115265677     GGSL
NJARET21040-34613-69883-50000018D0001967D000040000469883     GGSL
NJARET21040-35000-05361-90002580D0001839D0024900205105375    GGSL
NJARET21040-35000-05364-00002220D0002309D0029500275105374    GGSL
NJARET21040-35000-14112-50000006D0000030D001180009514477     GGSL
NJARET21040-35000-14424-90000108D0000113D000110000614424     GGSL
NJARET21040-35000-39373-90000044D0000244D000000000039373     GGSL
NJARET21040-35000-44673-20000009D0000016D003320033244673     GGSL
NJARET21040-35000-45038-50000261D0000561D0023100102US04232A  GGSL
NJARET21040-35000-45072-20000693D0001772D0003000030US04274A  GGSL
NJARET21040-35000-45118-40000612D0001316D0019200192US04268A  GGSL
NJARET21040-35000-45816-20000051D0000309D0019300183MX04966A  GGSL
NJARET21040-35000-47805-40000378D0000889D000580003447805     GGSL
NJARET21040-35000-49863-20000360D0000756D000000000049863     GGSL
NJARET21040-35000-49874-80000004D0000020D000710000049874     GGSL
NJARET21040-35000-49875-50000020D0000019D0015700001144633    GGSL
NJARET21040-35000-53030-10000066D0000188D0011500067153043    GGSL
NJARET21040-35000-53032-50000108D0000277D0037400257153041    GGSL
NJARET21040-35000-53058-50000144D0000709D015700089253058     GGSL
NJARET21040-35000-53060-80000224D0001182D000340001753060     GGSL
NJARET21040-35000-53122-30000255D0001687D023400150753122     GGSL
NJARET21040-35000-97018-30000564D0003632D0022200218US06329A  GGSL
NJARET21040-35000-97298-90000036D0000239D0009100000US06490A  GGSL
NJARET21040-35000-97299-60000120D0000257D0006000000US06491A  GGSL
NJARET21040-35000-97301-60000024D0000159D0019400000US06489A  GGSL
NJARET21040-35000-97336-80000152D0000909D0072100480US06516A  GGSL
NJARET21040-35000-98324-40000080D0000392D0018000161US07139A  GGSL
NJARET21040-35110-01900-00000008D0000073D001770017701900     GGSL
NJARET21040-35110-01903-10000676D0006504D002990026301903     GGSL
NJARET21040-35110-04915-10000008D0000077D000020000204915     GGSL
NJARET21040-35307-00781-00000072D0000643D0000600002781       GGSL
NJARET21040-35307-00782-70000060D0000548D0000900002782       GGSL
NJARET21040-35307-00804-60000132D0000222D0000000000804       GGSL
NJARET21040-35307-00805-30000048D0000118D0000000000805       GGSL
NJARET21040-35307-00808-40000012D0000032D0000000000808       GGSL
NJARET21040-35307-00812-10000060D0000146D0000100001812       GGSL
NJARET21040-35307-00818-30000096D0000169D0000100001818       GGSL
NJARET21040-35307-00820-60000096D0000156D0000100001820       GGSL
NJARET21040-35307-00826-80000108D0000196D0000000000826       GGSL
NJARET21040-35307-00827-50000384D0000722D0000100001827       GGSL
NJARET21040-35307-00834-30000156D0000435D0000500003834       GGSL
NJARET21040-35307-00835-00000168D0000929D0001100002835       GGSL
NJARET21040-35307-00838-10000168D0000501D0000400000838       GGSL
NJARET21040-35307-00839-80000360D0001205D0000800001839       GGSL
NJARET21040-35307-00840-40000900D0002187D0000200002840       GGSL
NJARET21040-35307-00841-10001068D0002088D0000900009841       GGSL
NJARET21040-35307-00843-50000564D0001621D0000400004843       GGSL
NJARET21040-35307-00844-20000396D0000898D0002100012844       GGSL
NJARET21040-35307-00845-90000192D0000749D0002500004845       GGSL
NJARET21040-35307-00846-60000072D0000238D0000000000846       GGSL
NJARET21040-35307-00848-00000336D0000631D0000300002848       GGSL
NJARET21040-35307-00857-20000024D0000132D0000400000857       GGSL
NJARET21040-35307-00859-60000204D0000715D0000000000859       GGSL
NJARET21040-35307-00860-20000012D0000084D0000000000860       GGSL
NJARET21040-35307-00864-00000612D0002361D0001700003864       GGSL
NJARET21040-35307-00865-70000312D0001170D0000600002865       GGSL
NJARET21040-35307-00869-50000132D0001302D0000200001869       GGSL
NJARET21040-35307-00875-60000108D0000370D0002500021875       GGSL
NJARET21040-35307-00877-00000468D0000722D0000200001877       GGSL
NJARET21040-35307-00878-70000024D0000052D0000000000878       GGSL
NJARET21040-35307-00916-60000216D0000485D0000300000916       GGSL
NJARET21040-35307-00967-80000660D0001297D0001300006967       GGSL
NJARET21040-35307-00970-80000024D0000219D0000000000970       GGSL
NJARET21040-35307-00973-90000072D0000455D0000000000973       GGSL
NJARET21040-35307-00977-70000360D0000961D0000100001977       GGSL
NJARET21040-35307-00978-40000684D0003605D0000500005978       GGSL
NJARET21040-35307-00979-10000144D0000120D0000000000979       GGSL
NJARET21040-35307-01025-40000012D0000018D00000000001025      GGSL
NJARET21040-35307-01030-80000144D0000275D00009000001030      GGSL
NJARET21040-35307-01035-30000168D0000411D00027000011035      GGSL
NJARET21040-35307-01040-70000048D0000145D00000000001040      GGSL
NJARET21040-35307-01045-20000240D0000917D00034000001045      GGSL
NJARET21040-35307-01220-30000012D0000042D00000000001220      GGSL
NJARET21040-35307-01601-00000234D0002851D00002000021601      GGSL
NJARET21040-35307-01605-80000009D0000228D00000000001605      GGSL
NJARET21040-35307-01609-60000600D0002437D00004000041609CS    GGSL
NJARET21040-35307-01612-60000936D0003783D00025000101612      GGSL
NJARET21040-35307-01618-80000084D0000531D00015000011618      GGSL
NJARET21040-35307-01638-60000006D0000026D00000000001638      GGSL
NJARET21040-35307-01640-90000066D0000366D00017000011640      GGSL
NJARET21040-35307-01645-40000036D0000351D00000000001645      GGSL
NJARET21040-35307-01646-10000054D0000471D00001000011646      GGSL
NJARET21040-35307-01810-60000036D0000169D000000000018106     GGSL
NJARET21040-35307-01815-10000156D0000964D00002000021815      GGSL
NJARET21040-35307-01815-10000036D0000224D000030000018156     GGSL
NJARET21040-35307-01817-50000006D0000045D000000000018176     GGSL
NJARET21040-35307-01820-50000240D0002646D00012000021820      GGSL
NJARET21040-35307-01825-00000312D0003043D00000000001825      GGSL
NJARET21040-35307-01840-30000096D0001490D00005000011840      GGSL
NJARET21040-35307-01845-80000336D0003654D00021000051845      GGSL
NJARET21040-35307-01845-80000036D0000406D000020000218456     GGSL
NJARET21040-35307-01860-10000018D0000341D00003000001860      GGSL
NJARET21040-35307-01880-90000009D0000244D00016000001880      GGSL
NJARET21040-35307-90867-40000012D0000203D0000100000867       GGSL
NJARET21040-35307-90868-10000060D0000284D0000000000868       GGSL
NJARET21040-35355-02022-90000048D0000131D0000100000Y2022     GGSL
NJARET21040-35951-07000-00000060D0000638D000160000007000     GGSL
NJARET21040-35951-07007-90000036D0000564D000060000007007     GGSL
NJARET21040-35951-07009-30000012D0000267D000070000007009     GGSL
NJARET21040-35951-07011-60000008D0000562D000020000107011     GGSL
NJARET21040-36151-46825-30000004D0000093D00041000192646825   GGSL
NJARET21040-36241-66300-10000240D0001824D008670000274297     GGSL
NJARET21040-36241-97161-80000016D0000150D001120000097161     GGSL
NJARET21040-36241-97402-20000024D0000114D0033900000974022    GGSL
NJARET21040-36348-00645-90000018D0000273D00007000000645      GGSL
NJARET21040-36348-00745-60000006D0000121D00024000050745      GGSL
NJARET21040-36348-01020-30000005D0000085D00068000241020      GGSL
NJARET21040-36348-01025-80000002D0000056D00005000001025      GGSL
NJARET21040-36348-01030-20000001D0000043D00000000001030      GGSL
NJARET21040-36348-01079-10000012D0000645D00018000021079      GGSL
NJARET21040-36348-01085-20000001D0000067D00004000011085      GGSL
NJARET21040-36348-05277-70000004D0000138D00005000005277      GGSL
NJARET21040-36434-00009-50000204D0002813D00009000001000009   GGSL
NJARET21040-36434-11000-80000060D0000598D00003000036011000   GGSL
NJARET21040-36434-12342-80000024D0000150D00020000016012342   GGSL
NJARET21040-36434-12345-90000408D0004557D00007000041012345   GGSL
NJARET21040-36434-12346-60000114D0000523D00001000026012346   GGSL
NJARET21040-36434-12348-00000008D0000077D00000000001012348   GGSL
NJARET21040-36434-12349-70000006D0000024D00000000006012349   GGSL
NJARET21040-36434-12351-00000006D0000028D00000000006012351   GGSL
NJARET21040-36434-12353-40000036D0000591D00003000036012353   GGSL
NJARET21040-36434-12363-30000060D0002056D00016000051012363   GGSL
NJARET21040-36434-12380-00000006D0000069D00000000006012380   GGSL
NJARET21040-36434-12420-30000384D0004182D00052000081012420   GGSL
NJARET21040-36434-12700-60001896D0015879D00112000511012700   GGSL
NJARET21040-36434-12701-30000012D0000100D00000000006012701   GGSL
NJARET21040-36434-12702-00000012D0000100D00000000006012702   GGSL
NJARET21040-36434-12703-70000012D0000100D00011000036012703   GGSL
NJARET21040-36434-12704-40000060D0000499D00003000036012704   GGSL
NJARET21040-36434-12705-10000018D0000150D00002000006012705   GGSL
NJARET21040-36434-12706-80000024D0000200D00002000026012706   GGSL
NJARET21040-36434-12710-50000072D0000525D00019000021012710   GGSL
NJARET21040-36434-12720-40000336D0002105D00020000091012720   GGSL
NJARET21040-36434-12743-30000012D0000105D00000000001012743   GGSL
NJARET21040-36434-12812-60000216D0003501D00002000021012812   GGSL
NJARET21040-36434-12860-70000060D0000802D00003000001012860   GGSL
NJARET21040-36434-12900-00000006D0000104D00000000001012900   GGSL
NJARET21040-36434-13001-30000084D0000444D00030000021013001   GGSL
NJARET21040-36434-13200-00000018D0000091D00000000006013200   GGSL
NJARET21040-36434-13700-50000144D0001198D00000000011032700   GGSL
NJARET21040-36434-13812-50000264D0004662D00011000051013812   GGSL
NJARET21040-36434-13860-60000156D0002365D00001000011013860   GGSL
NJARET21040-36434-15000-40000108D0003524D00031000111015000   GGSL
NJARET21040-36434-15001-10000006D0000200D00000000001015001   GGSL
NJARET21040-36434-15002-80000006D0000200D00001000001015002   GGSL
NJARET21040-36434-15003-50000006D0000200D00000000001015003   GGSL
NJARET21040-36434-15005-90000006D0000200D00002000001015005   GGSL
NJARET21040-36434-15020-20000060D0001060D00015000021015020   GGSL
NJARET21040-36434-15021-90000006D0000106D00001000001015021   GGSL
NJARET21040-36434-15022-60000006D0000108D00000000001015022   GGSL
NJARET21040-36434-15023-30000006D0000106D00000000001015023   GGSL
NJARET21040-36434-15024-00000006D0000108D00001000001015024   GGSL
NJARET21040-36434-15025-70000006D0000108D00001000001015025   GGSL
NJARET21040-36434-15026-40000006D0000106D00000000001015026   GGSL
NJARET21040-36434-15030-10000024D0000506D00042000011015030   GGSL
NJARET21040-36434-15040-00000048D0000486D00038000031015040   GGSL
NJARET21040-36434-15060-80000096D0001461D00033000021015050   GGSL
NJARET21040-36434-15060-80000120D0001826D00004000011015060   GGSL
NJARET21040-36434-15070-70000024D0000329D00004000001015070   GGSL
NJARET21040-36434-15091-20000006D0000119D00000000001015091   GGSL
NJARET21040-36434-17000-20000024D0001120D00000000001017000   GGSL
NJARET21040-36434-17004-00000006D0000280D00001000001017004   GGSL
NJARET21040-36434-17005-70000006D0000280D00000000001017005   GGSL
NJARET21040-36434-17010-10000036D0000790D00041000061017010   GGSL
NJARET21040-36434-17020-00000036D0000564D00002000001017020   GGSL
NJARET21040-36434-17050-70000024D0000438D00034000051017050   GGSL
NJARET21040-36434-17051-40000156D0001900D00022000091017051   GGSL
NJARET21040-36434-17061-30000010D0000061D00001000001017061   GGSL
NJARET21040-36434-18037-70000024D0000206D00011000001018037   GGSL
NJARET21040-36434-18037-70000060D0000464D00001000011028037   GGSL
NJARET21040-36434-19015-40000030D0000171D00000000006019010   GGSL
NJARET21040-36434-22318-00000126D0000510D00024000046022318   GGSL
NJARET21040-36434-22345-60000012D0000131D00005000001022345   GGSL
NJARET21040-36434-22373-90000030D0000476D00000000006022373   GGSL
NJARET21040-36434-22728-70000018D0000230D00000000006022728   GGSL
NJARET21040-36434-22729-40000018D0000237D00000000006022729   GGSL
NJARET21040-36434-24112-20000012D0000123D00000000001024112   GGSL
NJARET21040-36434-28040-40000012D0000168D00000000001028040   GGSL
NJARET21040-36865-43016-40000320D0001494D000030000370430160  GGSL
NJARET21040-37321-00022-80000132D0000893D0000000000022       GGSL
NJARET21040-37321-00024-20004572D0056002D0035300201024       GGSL
NJARET21040-37321-00050-10000168D0000168D0002400001050       GGSL
NJARET21040-37321-00051-80000096D0001188D0003400007051       GGSL
NJARET21040-37321-00055-60000003D0000043D0000400000055       GGSL
NJARET21040-37321-00061-70000276D0002087D0003800013061       GGSL
NJARET21040-37321-00066-20000060D0000729D0000400004066       GGSL
NJARET21040-37321-00068-60000084D0000466D0001200003068       GGSL
NJARET21040-37321-00069-30000024D0000324D0002300001069       GGSL
NJARET21040-37321-00070-90000048D0000701D0001700000070       GGSL
NJARET21040-37321-00081-50000024D0000162D0000100001081       GGSL
NJARET21040-37321-00082-20000008D0000138D0000800004082       GGSL
NJARET21040-37321-00097-60000144D0000800D0002700002097       GGSL
NJARET21040-37321-00099-00000012D0000083D0001000000099       GGSL
NJARET21040-37321-00110-20000008D0000027D0000000000110       GGSL
NJARET21040-37321-00121-80000040D0000471D0000000000121       GGSL
NJARET21040-37321-00127-00000060D0000530D0015500155127       GGSL
NJARET21040-37321-00142-30000024D0000219D0000000000142       GGSL
NJARET21040-37321-00147-80000012D0000081D0000400004147       GGSL
NJARET21040-37321-00148-50000084D0000849D0000600004148       GGSL
NJARET21040-37321-00150-80000288D0004857D0004000006150       GGSL
NJARET21040-37321-00160-70000048D0000170D0000100001160       GGSL
NJARET21040-37321-00165-20000064D0000778D0000400000165       GGSL
NJARET21040-37321-00166-90000036D0000203D0001800000166       GGSL
NJARET21040-37321-00167-60003036D0018825D0009600021167       GGSL
NJARET21040-37321-00196-60000048D0000293D0000000000196       GGSL
NJARET21040-37321-00197-30000024D0000146D0001100000197       GGSL
NJARET21040-37321-00198-00000012D0000139D0000300000198       GGSL
NJARET21040-37321-00201-70000012D0000083D0000000000201       GGSL
