TXBWIC21040-00402-00000-00006013D0332911D0330500406          GGSL
TXBWIC21040-00402-01012-60000057D0005606D00338000051012      GGSL
TXBWIC21040-00402-01014-00000252D0019576D01271001681014      GGSL
TXBWIC21040-00402-01492-60000009D0000028D000380001014SSB     GGSL
TXBWIC21040-00402-01499-50000010D0000029D000570000014SS      GGSL
TXBWIC21040-00402-02117-70000025D0000117D0000000000B117      GGSL
TXBWIC21040-00402-02419-20000003D0000062D000640000610XS-20   GGSL
TXBWIC21040-00402-02699-50000260D0000297D009200002010XS-20B  GGSL
TXBWIC21040-00402-02750-60000225D0000933D0032500325B75       GGSL
TXBWIC21040-00402-02754-40000050D0000272D0000000000B75D      GGSL
TXBWIC21040-00402-05418-20000150D0000464D00375000005418      GGSL
TXBWIC21040-00402-10142-80000531D0036337D011730022810145B    GGSL
TXBWIC21040-00402-10147-30000090D0006473D00122000051014 G    GGSL
TXBWIC21040-00402-11730-60000225D0000877D002500007511730     GGSL
TXBWIC21040-00402-14319-00000006D0000020D000430002514CS      GGSL
TXBWIC21040-00402-14411-10000004D0000252D0018100001144SSBK   GGSL
TXBWIC21040-00402-33117-70000475D0000160D0120000375PC11-7    GGSL
TXBWIC21040-00402-33354-60003800D0000484D0242500450PC5-4     GGSL
TXBWIC21040-00402-33375-10004075D0000794D0052501025PC7-5     GGSL
TXBWIC21040-00402-41819-90000004D0000033D001980000114TRS     GGSL
TXBWIC21040-00402-44117-30000100D0000037D0000000000PLCD 11-7 GGSL
TXBWIC21040-00402-91014-30000108D0007093D00000000001014 BLACKGGSL
TXBWIC21040-00772-00271-40000004D0000048D0000000000271       GGSL
TXBWIC21040-00772-02923-00000006D0000043D00000000002923      GGSL
TXBWIC21040-00772-03205-60000004D0000051D00000000003205      GGSL
TXBWIC21040-00772-04370-00000020D0000143D00000000004370      GGSL
TXBWIC21040-00772-05375-40000001D0000020D00000000005375      GGSL
TXBWIC21040-00772-06281-70000006D0000033D00000000006281      GGSL
TXBWIC21040-00772-06337-10000001D0000030D00000000006337      GGSL
TXBWIC21040-00772-06346-30000012D0000086D00000000006346      GGSL
TXBWIC21040-00772-06703-40000002D0000079D00000000006703      GGSL
TXBWIC21040-00772-06704-10000002D0000079D00000000006704      GGSL
TXBWIC21040-00772-06705-80000012D0000059D00000000006705      GGSL
TXBWIC21040-00772-06723-20000002D0000086D00000000006723      GGSL
TXBWIC21040-00772-06741-60000012D0000099D00000000006741      GGSL
TXBWIC21040-00772-06744-70000004D0000077D00000000006744      GGSL
TXBWIC21040-00772-08265-50000001D0000033D00000000008265      GGSL
TXBWIC21040-00772-08600-40000002D0000109D00000000008600      GGSL
TXBWIC21040-00772-08814-50000001D0000044D00000000008814      GGSL
TXBWIC21040-00772-08833-60000001D0000033D00000000008833      GGSL
TXBWIC21040-00772-09310-10000003D0000050D00000000009310      GGSL
TXBWIC21040-00772-30386-60000006D0000043D000000000030386     GGSL
TXBWIC21040-00772-30404-70000002D0000044D000000000030404     GGSL
TXBWIC21040-02800-91501-30000300D0001374D00000000001501      GGSL
TXBWIC21040-10367-00110-70002022D0012348D0073801188110       GGSL
TXBWIC21040-10367-00130-50000004D0000179D0005200050130.0     GGSL
TXBWIC21040-10367-00150-30000002D0000045D0000000000150.0     GGSL
TXBWIC21040-10367-00460-30000112D0000530D0023200008ML0460 8  GGSL
TXBWIC21040-10367-00560-00000216D0000709D0018400048ML0560 8  GGSL
TXBWIC21040-10367-00810-60000192D0000910D0012000324ML0810    GGSL
TXBWIC21040-10367-01020-80000036D0000556D0001200000ML1020    GGSL
TXBWIC21040-10367-01110-60000008D0000027D00008000001110      GGSL
TXBWIC21040-10367-01120-50000032D0000090D00000000161120.0    GGSL
TXBWIC21040-10367-01162-50000016D0000111D00016000001162.0    GGSL
TXBWIC21040-10367-03010-70000008D0000044D0008800000ML3010    GGSL
TXBWIC21040-11247-00250-40000093D0003170D000940000800640     GGSL
TXBWIC21040-11247-00411-90000001D0000038D000040000000411     GGSL
TXBWIC21040-11247-00911-40000004D0000178D000000001000911     GGSL
TXBWIC21040-11247-01050-90000089D0000840D000160000001050     GGSL
TXBWIC21040-11247-01541-20000037D0001286D000170000001541     GGSL
TXBWIC21040-11247-01841-30000080D0002137D000000000001841     GGSL
TXBWIC21040-11247-02450-60000016D0001053D000000000002450     GGSL
TXBWIC21040-11247-03111-50000177D0005455D000000000003111     GGSL
TXBWIC21040-11247-03555-70000001D0000248D000000000003555     GGSL
TXBWIC21040-11247-04525-90000165D0003965D003050000204525     GGSL
TXBWIC21040-11247-04540-20000005D0000207D000000000004540     GGSL
TXBWIC21040-11247-05350-60000019D0000899D000690000405350     GGSL
TXBWIC21040-11247-05450-30000075D0002993D001320000705450     GGSL
TXBWIC21040-11247-13010-80000072D0000239D000300000013010     GGSL
TXBWIC21040-11247-16004-20000144D0000913D003060000016004     GGSL
TXBWIC21040-11247-20103-70000102D0000715D000000000020103     GGSL
TXBWIC21040-11247-30004-40000510D0003570D002880013830004     GGSL
TXBWIC21040-11247-52813-40000019D0000267D001090000152813     GGSL
TXBWIC21040-11247-52816-50000006D0000043D000000000052816     GGSL
TXBWIC21040-11247-52825-70000021D0000360D002220000152825     GGSL
TXBWIC21040-11247-52829-50000024D0000237D000780000052829     GGSL
TXBWIC21040-11247-52830-10000008D0000320D000020000052830     GGSL
TXBWIC21040-11247-52846-20000004D0000147D000000000052846     GGSL
TXBWIC21040-11247-52861-50000012D0000130D000000000052861     GGSL
TXBWIC21040-11247-52876-90000036D0000142D000000000052876     GGSL
TXBWIC21040-11247-52880-60000006D0000029D000000000052880     GGSL
TXBWIC21040-11247-52881-30000001D0000017D000000000052881     GGSL
TXBWIC21040-11247-52888-20000174D0000900D005220000952888     GGSL
TXBWIC21040-11247-52889-90000120D0001540D006480000752889     GGSL
TXBWIC21040-11247-60016-80000012D0000129D000000000060016     GGSL
TXBWIC21040-11247-60116-50000021D0000221D001710001260116     GGSL
TXBWIC21040-11247-61024-20000780D0004895D012570027661024     GGSL
TXBWIC21040-11247-70024-00000012D0000064D000000002470024     GGSL
TXBWIC21040-11247-71016-40000108D0000846D000000002471001     GGSL
TXBWIC21040-11247-71128-40000008D0000148D000000000071128     GGSL
TXBWIC21040-11247-72020-00000004D0000056D000000000072020     GGSL
TXBWIC21040-11247-90128-90000116D0000894D000240001690128     GGSL
TXBWIC21040-11423-00338-70000024D0000130D0126400000HG-33801  GGSL
TXBWIC21040-11423-94108-50000024D0000226D0015600018HG-94108  GGSL
TXBWIC21040-11423-94127-60000038D0000298D0045500036HG-64127  GGSL
TXBWIC21040-14021-01208-90000001D0000046D00000000007010      GGSL
TXBWIC21040-14021-01234-80000001D0000071D00000000005110      GGSL
TXBWIC21040-14021-03040-30000001D0000117D00000000003030      GGSL
TXBWIC21040-14021-10118-90000001D0000079D00000000003020      GGSL
TXBWIC21040-15966-49430-10000022D0000354D000320000049 00 430 GGSL
TXBWIC21040-16069-00005-90000165D0001010D0040200000TP-15C    GGSL
TXBWIC21040-16069-00007-30000144D0000874D0042300012BN-1      GGSL
TXBWIC21040-16069-00008-00000402D0002362D0083700627BN-2      GGSL
TXBWIC21040-16069-00013-40000048D0001149D0012400000BN-3      GGSL
TXBWIC21040-16069-00014-10000044D0000784D0009000000BN-4      GGSL
TXBWIC21040-16069-00015-80000020D0000486D0009200000BN-5      GGSL
TXBWIC21040-16069-00030-10000150D0001718D0015400024OW-6      GGSL
TXBWIC21040-16069-00038-70000096D0000767D0000000000GF-1015   GGSL
TXBWIC21040-16069-00049-30000046D0000735D0018200000DX-7      GGSL
TXBWIC21040-16069-00077-60000012D0000111D0000000000PN-14     GGSL
TXBWIC21040-16069-00365-40000027D0000324D0002700000PIN-9     GGSL
TXBWIC21040-16069-00473-30000014C0000324C0000100000MIXO-30MP GGSL
TXBWIC21040-16069-00498-90000002D0000094D0000000000HGP-1012  GGSL
TXBWIC21040-16069-00667-90000110D0002160D0036000276RHO-4US   GGSL
TXBWIC21040-17849-00120-40000360D0001680D0000000000LRB120    GGSL
TXBWIC21040-18506-00000-00000975D0013562D02085001050111-5    GGSL
TXBWIC21040-18506-00010-30000048D0000346D0038300264010-6     GGSL
TXBWIC21040-18506-00021-90000192D0002645D0023100006021-6     GGSL
TXBWIC21040-18506-00102-50000264D0001045D0102600036102-12    GGSL
TXBWIC21040-18506-00110-50000552D0003653D0260000396110-12    GGSL
TXBWIC21040-18506-00116-20000315D0001937D0057000756116-12    GGSL
TXBWIC21040-18506-00117-90000252D0002415D0090900516117-6     GGSL
TXBWIC21040-18506-00125-40000036D0000186D0145200000125       GGSL
TXBWIC21040-18506-00130-80000072D0000408D0022800000130       GGSL
TXBWIC21040-22179-10005-30000006D0000115D0000000000lg 5129   GGSL
TXBWIC21040-22179-10013-80000012D0000069D0000000048LG1100    GGSL
TXBWIC21040-22179-10035-00000041D0002053D0010300010LG4110    GGSL
TXBWIC21040-22179-10084-80000030D0000225D0000000102LG7220    GGSL
TXBWIC21040-22179-10090-90000024D0000627D0000300006LG4300    GGSL
TXBWIC21040-22179-10124-10000384D0002015D0056400042LG6515    GGSL
TXBWIC21040-22179-10139-50000102D0000476D0116400012LG1130    GGSL
TXBWIC21040-22179-10140-10000028D0003195D0003300014LG6520    GGSL
TXBWIC21040-22179-10150-00000332D0003356D00200005447115      GGSL
TXBWIC21040-22179-10151-70000116D0004626D00077000097117      GGSL
TXBWIC21040-22179-10167-80000042D0000597D0000000012lg 6127   GGSL
TXBWIC21040-22179-10185-20000249D0002680D0066000006LG6500    GGSL
TXBWIC21040-22179-10246-00000402D0006097D0123900948LG6570    GGSL
TXBWIC21040-22179-10247-70000215D0004321D00187003697122      GGSL
TXBWIC21040-22179-10248-40000192D0001510D0090000048LG6575    GGSL
TXBWIC21040-22179-10266-80000024D0000355D0001200000LG6145    GGSL
TXBWIC21040-22179-10375-70000018D0000132D0000000000lg 6299   GGSL
TXBWIC21040-22179-10376-40000004D0000072D0000000000LG6292    GGSL
TXBWIC21040-22179-10378-80000120D0000817D0000000006lg6274    GGSL
TXBWIC21040-22179-10390-00000048D0000394D0001800264LG6332    GGSL
TXBWIC21040-22179-10395-50000017D0000491D0002700001LG6356    GGSL
TXBWIC21040-22179-10399-30000012D0000065D0008400540LG7198    GGSL
TXBWIC21040-22179-10406-80000008D0000474D0002400000LG 6344   GGSL
TXBWIC21040-22179-10408-20000279D0002240D0026400756LG 6338   GGSL
TXBWIC21040-22179-10417-40000004D0000321D0000000000lg6142    GGSL
TXBWIC21040-22179-10429-70000084D0001305D0000000780LG6334    GGSL
TXBWIC21040-22179-10454-90000030D0000293D0007800168lg 3303   GGSL
TXBWIC21040-22179-10458-70000015D0000137D0015300006lg 3234   GGSL
TXBWIC21040-22179-10529-40000050D0000320D0018000440lg 7350   GGSL
TXBWIC21040-22401-00115-80000055D0002552D0005000073MDC-15    GGSL
TXBWIC21040-22401-00380-10000040D0000540D0039200408NDETC-20MCGGSL
TXBWIC21040-22401-00381-70000036D0000486D0000000192NDETC-2OLBGGSL
TXBWIC21040-23626-00605-80001128D0012675D0642000376116334    GGSL
TXBWIC21040-23626-00615-70001422D0015226D0811400282116336    GGSL
TXBWIC21040-23626-00630-00000880D0012582D0205100036116341    GGSL
TXBWIC21040-23626-00650-80000024D0000083D0061800048000600    GGSL
TXBWIC21040-23626-00860-10000004D0000036D0002800000116348    GGSL
TXBWIC21040-23626-01710-80000156D0000809D0061200012000800    GGSL
TXBWIC21040-23626-01720-70000138D0000922D0052200000000900    GGSL
TXBWIC21040-23626-04055-70000012D0000072D0000000000112845    GGSL
TXBWIC21040-23883-00001-10000505D0008275D0070000044G362      GGSL
TXBWIC21040-23883-00002-80000195D0000780D0024600024G385      GGSL
TXBWIC21040-23883-00003-50000153D0000595D0041100240G390      GGSL
TXBWIC21040-23883-01002-70000364D0003105D01191003801002      GGSL
TXBWIC21040-23883-01105-50000012D0000033D00283002881105      GGSL
TXBWIC21040-23883-05000-90000071D0000591D00103000045000      GGSL
TXBWIC21040-23883-08620-60000003D0000497D00019000098620B     GGSL
TXBWIC21040-23883-15710-40006582D0046547D132980113815710     GGSL
TXBWIC21040-23883-16100-20004054D0026313D010000001016100MP   GGSL
TXBWIC21040-23883-21210-00000016D0000688D001050000121210XP   GGSL
TXBWIC21040-23883-26011-80000057D0001703D003430002426011XP   GGSL
TXBWIC21040-23883-26021-70000289D0008104D013360046926021XP   GGSL
TXBWIC21040-23883-26031-60000034D0001396D002110002426031XP   GGSL
TXBWIC21040-23883-27010-00000078D0001576D003670002527010     GGSL
TXBWIC21040-23883-27020-90000354D0007774D010610004227020     GGSL
TXBWIC21040-23883-27030-80000077D0001984D003910002627030     GGSL
TXBWIC21040-23883-60100-30000240D0011154D005830007060100     GGSL
TXBWIC21040-23883-61800-10000002D0000134D000120002561800     GGSL
TXBWIC21040-23883-61925-10000006D0000052D00030000006-1925    GGSL
TXBWIC21040-23883-63924-20000017D0002794D000120000463924     GGSL
TXBWIC21040-23883-64601-10000001D0000013D00009000006-4601    GGSL
TXBWIC21040-23883-66002-40000002D0000010D00003000006-6002    GGSL
TXBWIC21040-23883-67749-70000003D0000018D00000000006-7749    GGSL
TXBWIC21040-23883-68060-20000003D0000048D00005000006-8060    GGSL
TXBWIC21040-23883-68061-90000001D0000025D00017000026-8061    GGSL
TXBWIC21040-23883-68238-50000002D0000083D00004000006-8238    GGSL
TXBWIC21040-23883-80000-00000011D0000438D00009000308000A     GGSL
TXBWIC21040-23883-81000-90000005D0000507D000080000081000A    GGSL
TXBWIC21040-23883-84000-60000076D0004198D00000000438701B     GGSL
TXBWIC21040-23883-84600-80000020D0000552D006100000084700A    GGSL
TXBWIC21040-23883-97100-70000008D0003470D000150000397100     GGSL
TXBWIC21040-23883-97361-20000010D0001647D000010000097361     GGSL
TXBWIC21040-23883-97561-60000011D0002188D000380000197561     GGSL
TXBWIC21040-24654-05931-30000001D0000239D00000000005935-DS   GGSL
TXBWIC21040-24654-05962-70000018D0000209D00042000005962      GGSL
TXBWIC21040-24654-05972-60000012D0000391D00000000005972      GGSL
TXBWIC21040-24654-09334-80000004D0000105D00000000009334      GGSL
TXBWIC21040-24654-51806-30000030D0000146D00000000005180-6    GGSL
TXBWIC21040-24654-55110-70000198D0001029D00366000725110-6    GGSL
TXBWIC21040-24654-55118-30000132D0000942D01183001445118.0    GGSL
TXBWIC21040-25033-14645-70000018C0000942C000000000014645     GGSL
TXBWIC21040-25845-12354-70000072D0000094D000960000024951     GGSL
TXBWIC21040-26455-91350-40000032D0001706D000730001270805-001-GGSL
TXBWIC21040-26978-30200-70000002D0000041D000000000130200     GGSL
TXBWIC21040-26978-30301-10000743D0004390D020890036830301     GGSL
TXBWIC21040-26978-30413-10000012D0000061D000000000030413     GGSL
TXBWIC21040-26978-30500-80000200D0000860D000000001030500     GGSL
TXBWIC21040-26978-30602-90000001D0000019D000000000030602     GGSL
TXBWIC21040-26978-30605-00000001D0000019D000000000030605     GGSL
TXBWIC21040-26978-30806-10000014D0000318D000000000130806     GGSL
TXBWIC21040-26978-30809-20000015D0000341D000000000030809     GGSL
TXBWIC21040-26978-30901-30000015D0000646D000000000030901     GGSL
TXBWIC21040-26978-30909-90000007D0000301D000000000030909     GGSL
TXBWIC21040-26978-39186-50000005D0000292D000000000039186     GGSL
TXBWIC21040-26978-80107-40000001D0000548D000000000080107.12  GGSL
TXBWIC21040-27452-06240-00000012D0000112D000000000023958     GGSL
TXBWIC21040-28009-11225-80006185D0033800D00228003321225.0    GGSL
TXBWIC21040-28009-11227-20000072D0000163D00018000001227.0    GGSL
TXBWIC21040-28009-11250-00016085D0133897D00179001111250.0    GGSL
TXBWIC21040-28009-11420-70003840D0017446D00220000001420P     GGSL
TXBWIC21040-28009-11428-30000756D0008208D00000000001428      GGSL
TXBWIC21040-28009-11438-20000360D0008614D00000000001438      GGSL
TXBWIC21040-28009-11440-50005959D0045639D00584001291440P     GGSL
TXBWIC21040-28009-11460-30000160D0002241D00000000001460      GGSL
TXBWIC21040-28009-11550-10000050D0000219D00000000001550P     GGSL
TXBWIC21040-28009-11622-50000150D0001739D00000000001622      GGSL
TXBWIC21040-28009-11638-60000150D0002406D00000000001638      GGSL
TXBWIC21040-28009-11640-90001380D0007809D00000005401640      GGSL
TXBWIC21040-28009-11815-10000055D0000314D00000000001815      GGSL
TXBWIC21040-28009-11925-70000520D0004584D00000000001925      GGSL
TXBWIC21040-28009-15240-70001316D0006327D00240002715240.0    GGSL
TXBWIC21040-28009-15440-10002100D0007137D00000000005440.0    GGSL
TXBWIC21040-28009-15440-30000480D0003632D00060000001840      GGSL
TXBWIC21040-28009-15450-00000207D0000931D00183002105450.0    GGSL
TXBWIC21040-28009-15540-80002643D0009756D01630001705540.0    GGSL
TXBWIC21040-28009-15720-40000120D0000299D00000000005720.0    GGSL
TXBWIC21040-28009-15740-20002097D0009640D00000001325740.0    GGSL
TXBWIC21040-30541-00067-20000018D0000184D0003600006JCD-100FGPGGSL
TXBWIC21040-30541-01020-60000288D0000704D0016800000JCD-024SM GGSL
TXBWIC21040-30541-01030-50000036D0000314D0012000000JCD-100SMJGGSL
TXBWIC21040-30541-01034-30000039D0000937D0003900006JCD-030SM GGSL
TXBWIC21040-30541-09982-90000072D0000186D0098400000JCD-TPP03 GGSL
TXBWIC21040-30641-09801-20000025D0000053D0000000000SWPDQ     GGSL
TXBWIC21040-30641-32937-60000018D0000035D0000000000RPDQ      GGSL
TXBWIC21040-30641-35936-60000018D0000034D0001800000WPDQ      GGSL
TXBWIC21040-32247-00900-30000300D0000866D01014000001009001   GGSL
TXBWIC21040-32247-00910-20000090D0000279D00192000001009101   GGSL
TXBWIC21040-32247-00950-80000126D0000349D00168000481009501   GGSL
TXBWIC21040-32247-03115-80000075D0004678D000370000031115     GGSL
TXBWIC21040-32247-03313-80000692D0016280D00544000303313B     GGSL
TXBWIC21040-32247-03594-10002932D0017097D007780002070359430  GGSL
TXBWIC21040-32247-05514-70020740D0078651D062520056570551430  GGSL
TXBWIC21040-32247-10500-20000666D0005650D0032100291110500    GGSL
TXBWIC21040-32247-11307-60013360D0025235D058090050871130756  GGSL
TXBWIC21040-32247-14902-00000016D0000257D000440001214902     GGSL
TXBWIC21040-32247-14905-10000744D0004881D001120005614905     GGSL
TXBWIC21040-32247-15307-20001680D0003326D002240000071530751  GGSL
TXBWIC21040-32247-17183-00001284D0010424D000960000017183     GGSL
TXBWIC21040-32247-17185-40000944D0017395D000360000017185     GGSL
TXBWIC21040-32247-17187-80000696D0030865D000020000017187     GGSL
TXBWIC21040-32247-17290-50000660D0005876D000660000017290     GGSL
TXBWIC21040-32247-17293-60000120D0001026D000120000017293     GGSL
TXBWIC21040-32247-17295-00000208D0004193D000080000017295     GGSL
TXBWIC21040-32247-17323-00000396D0003211D000900000017323     GGSL
TXBWIC21040-32247-17325-40000796D0013457D000280000017325     GGSL
TXBWIC21040-32247-17327-80000343D0012157D000300000017327     GGSL
TXBWIC21040-32247-17424-40000004D0000102D000000000017519     GGSL
TXBWIC21040-32247-17432-90000010D0000427D000240000617504     GGSL
TXBWIC21040-32247-17508-10000018D0000224D000900000017508     GGSL
TXBWIC21040-32247-17511-10000018D0000209D000120000017511     GGSL
TXBWIC21040-32247-17530-20000006D0000048D000000000017530     GGSL
TXBWIC21040-32247-17582-10000096D0001097D000000000017582     GGSL
TXBWIC21040-32247-18001-60000704C0001097C000000000018001     GGSL
TXBWIC21040-32247-18103-70000060D0001072D000000000018103     GGSL
TXBWIC21040-32247-18213-30000012D0000390D000200000018213     GGSL
TXBWIC21040-32247-18221-80000068D0001418D001240000018221     GGSL
TXBWIC21040-32247-18225-60000312D0003328D001620003018225     GGSL
TXBWIC21040-32247-18260-70000018D0000174D000120000018260     GGSL
TXBWIC21040-32247-18266-90000012D0000151D001260000618266     GGSL
TXBWIC21040-32247-18269-00000004D0000113D000200000418269     GGSL
TXBWIC21040-32247-18272-00000030D0000158D000710001818272     GGSL
TXBWIC21040-32247-18296-60000036D0000418D000300000018296     GGSL
TXBWIC21040-32247-18302-40000012D0000265D000240000018302     GGSL
TXBWIC21040-32247-18320-80000138D0001208D000120001218320     GGSL
TXBWIC21040-32247-18338-30000024D0000225D000000000018338     GGSL
TXBWIC21040-32247-18341-30000004D0000081D000000000018341     GGSL
TXBWIC21040-32247-18346-80000060D0001099D000480000418346     GGSL
TXBWIC21040-32247-18348-20000060D0000747D000480000618348     GGSL
TXBWIC21040-32247-18350-50000585D0003576D015300001518350     GGSL
TXBWIC21040-32247-18353-60000822D0017957D003170000618353     GGSL
TXBWIC21040-32247-18354-30000036D0000462D000240000018354     GGSL
TXBWIC21040-32247-18362-80000258D0008270D000000000018362     GGSL
TXBWIC21040-32247-18363-50000004D0000077D000000000018363     GGSL
TXBWIC21040-32247-18365-90000006D0000160D000060000018365     GGSL
TXBWIC21040-32247-19003-90000006D0000070D000420000019003     GGSL
TXBWIC21040-32247-19594-20000410D0002800D001470005071959430  GGSL
TXBWIC21040-32247-20784-30003882D0011858D032760010272078430  GGSL
TXBWIC21040-32247-20814-70000022D0000842D000200001521814     GGSL
TXBWIC21040-32247-21030-00000040D0000942D002330000021030A    GGSL
TXBWIC21040-32247-21031-70000002D0000123D000200000021031     GGSL
TXBWIC21040-32247-21605-00000197D0003434D001210000021605     GGSL
TXBWIC21040-32247-21701-90000096D0000712D000120000021701     GGSL
TXBWIC21040-32247-22305-80000205D0003075D001810001622305     GGSL
TXBWIC21040-32247-22315-70000010D0000397D000190000022315     GGSL
TXBWIC21040-32247-23001-80000014D0000381D000120000023001     GGSL
TXBWIC21040-32247-23100-80000036D0000407D000000001223100     GGSL
TXBWIC21040-32247-23405-40000724D0009758D001260000023405B    GGSL
TXBWIC21040-32247-23415-30000029D0001105D000200000023415     GGSL
TXBWIC21040-32247-23622-50000040D0000558D000000000023622     GGSL
TXBWIC21040-32247-24864-80000091D0000578D000000000072486430  GGSL
TXBWIC21040-32247-25006-10001701D0030782D008860000025006A    GGSL
TXBWIC21040-32247-25009-20000144D0008538D000080002625009     GGSL
TXBWIC21040-32247-26003-90000148D0003436D000730000026003D    GGSL
TXBWIC21040-32247-26007-70000323D0007485D002580000026007B    GGSL
TXBWIC21040-32247-26784-70000198D0000650D013920012672678430  GGSL
TXBWIC21040-32247-27764-80000288D0001002D000000000072776430  GGSL
TXBWIC21040-32247-30073-50000052D0000758D000000000030073     GGSL
TXBWIC21040-32247-30156-50000436D0006380D000000001230156     GGSL
TXBWIC21040-32247-30177-00000163D0010601D000990000030177     GGSL
TXBWIC21040-32247-33002-20000036D0000480D00000000003300210   GGSL
TXBWIC21040-32247-33020-60000148D0006479D001030001033020     GGSL
TXBWIC21040-32247-35594-00001543D0009290D000130000073559430  GGSL
TXBWIC21040-32247-35605-30000105D0002108D002070000044615A    GGSL
TXBWIC21040-32247-37594-80003699D0022101D028550002073759430  GGSL
TXBWIC21040-32247-37610-50000156D0003637D008000008437610A    GGSL
TXBWIC21040-32247-39594-60009722D0069461D025850025773959430  GGSL
TXBWIC21040-32247-39605-90000480D0007263D000010000039605     GGSL
TXBWIC21040-32247-39615-80000204D0008193D000240000039615     GGSL
TXBWIC21040-32247-42784-50002633D0007841D007140019874278430  GGSL
TXBWIC21040-32247-43750-90000004D0000067D00000000004375010   GGSL
TXBWIC21040-32247-43850-60002404D0038855D00040000164385010   GGSL
TXBWIC21040-32247-43851-30000006D0000107D00042000004385106   GGSL
TXBWIC21040-32247-43860-50000024D0000407D00028000124386004   GGSL
TXBWIC21040-32247-45651-70000274D0002300D003270000045651300  GGSL
TXBWIC21040-32247-47783-30000306D0001025D004440004874778300  GGSL
TXBWIC21040-32247-49013-90000001D0000027D000020000049013     GGSL
TXBWIC21040-32247-49019-10000039D0000477D001430000249019     GGSL
TXBWIC21040-32247-49024-50000062D0000775D000000000049024     GGSL
TXBWIC21040-32247-49785-50002262D0006688D015780006674978500  GGSL
TXBWIC21040-32247-50084-50000036D0000585D00030000005008410   GGSL
TXBWIC21040-32247-50086-90000036D0000626D00036000005008610   GGSL
TXBWIC21040-32247-50087-60000036D0000593D00030000245008710   GGSL
TXBWIC21040-32247-50088-30000006D0000093D00054000185008810   GGSL
TXBWIC21040-32247-50089-00000056D0001336D00112000005008910   GGSL
TXBWIC21040-32247-50090-60000008D0000123D00000000005009010   GGSL
TXBWIC21040-32247-50154-50000983D0006045D001290005545015430  GGSL
TXBWIC21040-32247-50524-60051521D0316648D111340133475052430  GGSL
TXBWIC21040-32247-51062-20000006D0000044D000000000051062     GGSL
TXBWIC21040-32247-51105-60001688D0019259D006270013951105     GGSL
TXBWIC21040-32247-51115-50000694D0021553D002470011751115     GGSL
TXBWIC21040-32247-52524-40000934D0008243D001260002985252430  GGSL
TXBWIC21040-32247-52784-20001740D0005175D014580004885278430  GGSL
TXBWIC21040-32247-53105-40001043D0008611D002560000053105     GGSL
TXBWIC21040-32247-53115-30000322D0007122D001590000053115     GGSL
TXBWIC21040-32247-55513-50002999D0022944D025030013075551300  GGSL
TXBWIC21040-32247-55523-40005748D0066354D029050034575552300  GGSL
TXBWIC21040-32247-55783-20000727D0003434D023890002475578300  GGSL
TXBWIC21040-32247-55863-10000131D0000826D006770000575586300  GGSL
TXBWIC21040-32247-56063-40000080D0000337D001840002445606300  GGSL
TXBWIC21040-32247-56513-40036957D0229877D161430089175651300  GGSL
TXBWIC21040-32247-56523-30063815D0663451D203680228675652300  GGSL
TXBWIC21040-32247-56783-10000085D0033328D000050000075678309  GGSL
TXBWIC21040-32247-56788-60004782D0017332D058740096075678300  GGSL
TXBWIC21040-32247-56863-00003150D0017361D023420021375686300  GGSL
TXBWIC21040-32247-57905-60000400D0003964D000000000057905     GGSL
TXBWIC21040-32247-60594-60003110D0018259D008160000076059430  GGSL
TXBWIC21040-32247-71060-20000927D0011193D006660005471060     GGSL
TXBWIC21040-32247-71131-90000319D0006278D002190001371131     GGSL
TXBWIC21040-32247-74150-70003048D0013700D0336001008274150    GGSL
TXBWIC21040-32247-74250-40001836D0013195D0038300780274250    GGSL
TXBWIC21040-32247-74395-20000050D0000354D000000006843959430  GGSL
TXBWIC21040-32247-74850-60001188D0019209D0193400248274850    GGSL
TXBWIC21040-32247-75902-10000056D0003997D000130001175902     GGSL
TXBWIC21040-32247-76121-50000627D0019540D002760003676121     GGSL
TXBWIC21040-32247-76232-80000173D0009543D001080000376232     GGSL
TXBWIC21040-32247-76565-70000009D0000431D000270000376565     GGSL
TXBWIC21040-32247-77160-30002483D0010489D0523200996277160    GGSL
TXBWIC21040-32247-77260-00003551D0027850D0516000540277260    GGSL
TXBWIC21040-32247-77960-90001216D0021503D0265600312277960    GGSL
TXBWIC21040-32247-95517-10000660D0002343D004870000079551750  GGSL
TXBWIC21040-32247-95597-30000288D0001232D000000000079559750  GGSL
TXBWIC21040-32247-99605-10000367D0007443D001670000299605     GGSL
TXBWIC21040-32903-00169-30000120D0000135D0019200024SLI06000E3GGSL
TXBWIC21040-32903-00243-00000006D0000014D0000000000SVN30000E2GGSL
TXBWIC21040-32903-00301-70000005D0000078D0000000000ROP28000A3GGSL
TXBWIC21040-32903-00309-30000204D0000418D0066000012SLI10000E3GGSL
TXBWIC21040-32903-00341-30000078D0000627D0010800012SLI24000E3GGSL
TXBWIC21040-32903-00359-80000216D0000317D0026400024SLI08000E3GGSL
TXBWIC21040-32903-07558-80000018D0000050D0000000000RZ.WC1Q0B9GGSL
TXBWIC21040-32903-12006-60000216D0000366D0088800192LIA06000E3GGSL
TXBWIC21040-32903-12008-00000552D0001510D0084000168LIA08000E3GGSL
TXBWIC21040-32903-12010-30000360D0001564D0110400012LIA10000E3GGSL
TXBWIC21040-32903-12012-70000299D0001852D0027600132LIA12000E3GGSL
TXBWIC21040-32903-12014-10000456D0003614D0021600012LIA14000E3GGSL
TXBWIC21040-32903-12017-20000288D0003733D0019200096LIA16000E3GGSL
TXBWIC21040-32903-12020-20000090D0001480D0009600042LIA20000E3GGSL
TXBWIC21040-32903-12024-00000030D0000643D0001800006LIA24000E3GGSL
TXBWIC21040-32903-12318-00000078D0000276D0007800000SVN18000E3GGSL
TXBWIC21040-32903-12324-10000084D0000307D0006000006SVN24000E3GGSL
TXBWIC21040-32903-12714-00000036D0000229D0007200036GAB14000E3GGSL
TXBWIC21040-32903-12718-80000042D0000361D0005400054GAB18000E3GGSL
TXBWIC21040-32903-12722-50000066D0000811D0001200060GAB22000E3GGSL
TXBWIC21040-32903-12818-50000054D0000380D0006600120VNP18000E3GGSL
TXBWIC21040-32903-12824-60000072D0000494D0002400108VNP24000E3GGSL
TXBWIC21040-32903-35079-10000003D0000124D0000000000TES20000G2GGSL
TXBWIC21040-32903-50763-80000240D0000782D0049200024SLI12000E3GGSL
TXBWIC21040-32903-50802-40000228D0000879D0035400000SLI14000E3GGSL
TXBWIC21040-32903-66002-90000005D0000078D0000000000ROP28000E3GGSL
TXBWIC21040-32903-72518-60000088D0000705D0002400008RZ.WC2G0B9GGSL
TXBWIC21040-32903-73641-00000008D0000056D0000000000RZ.WC2G0E3GGSL
TXBWIC21040-32903-75049-20000066D0000434D0012000000SLI20000E3GGSL
TXBWIC21040-32903-75076-80000004D0000245D0000000000TES24000G2GGSL
TXBWIC21040-32903-75080-50000156D0000675D0026400024SLI17000E3GGSL
TXBWIC21040-32903-91319-40000006D0000082D0000000000TEA17000G1GGSL
TXBWIC21040-32903-91322-40000010D0000587D0000000000TEA30000G1GGSL
TXBWIC21040-32903-91324-80000004D0000245D0000000000TES24000G1GGSL
TXBWIC21040-33607-00001-50000036D0000954D0008800000GBA-1     GGSL
TXBWIC21040-33607-00953-40000008D0000201D0014000024SP-33     GGSL
TXBWIC21040-33745-97185-40000033D0000801D001730000097185     GGSL
TXBWIC21040-34411-74501-40000042D0000882D0000000012874501-100GGSL
TXBWIC21040-34613-00000-00000001D0000479D00000000004906BLD   GGSL
TXBWIC21040-34613-00002-70001699D0012223D0004500012LH002     GGSL
TXBWIC21040-34613-00003-40002366D0017111D0084200051LH003     GGSL
TXBWIC21040-34613-00004-10001155D0008140D0000000006LH004     GGSL
TXBWIC21040-34613-00005-80000047D0000493D0000800002LH005     GGSL
TXBWIC21040-34613-00006-50000510D0003624D0000500002LH006     GGSL
TXBWIC21040-34613-00011-90000024D0000150D0000000000lh011     GGSL
TXBWIC21040-34613-00012-60000012D0000075D0000000000LH012     GGSL
TXBWIC21040-34613-00013-30000036D0000144D0000000000LH013     GGSL
TXBWIC21040-34613-00014-00000036D0000144D0000000000LH014     GGSL
TXBWIC21040-34613-00015-70000096D0000544D0000000000LH015     GGSL
TXBWIC21040-34613-00016-40000012D0000048D0000000000LH016     GGSL
TXBWIC21040-34613-00020-10000024D0000396D0000000000LH020     GGSL
TXBWIC21040-34613-00022-50000113D0001071D0000000015LH022     GGSL
TXBWIC21040-34613-00025-60000048D0000567D0000000000LH025     GGSL
TXBWIC21040-34613-00029-40000045D0000553D00000000028205      GGSL
TXBWIC21040-34613-00043-00000012D0000096D0000000000LH043     GGSL
TXBWIC21040-34613-00060-70000027D0001565D0000000037TP60      GGSL
TXBWIC21040-34613-00068-30001938D0008496D000000013868WP      GGSL
TXBWIC21040-34613-00133-80000018D0000183D0000000000LH133     GGSL
TXBWIC21040-34613-00212-00000024D0000031D0000000000CVS006HD  GGSL
TXBWIC21040-34613-00225-00000006D0000330D0002200000225       GGSL
TXBWIC21040-34613-00328-80000012D0000043D0000000000328       GGSL
TXBWIC21040-34613-00332-50000156D0000234D0000000000332       GGSL
TXBWIC21040-34613-00337-00000048D0000072D0000000000337       GGSL
TXBWIC21040-34613-00398-10000024D0000087D0000000000398       GGSL
TXBWIC21040-34613-00446-90000012D0000018D0000000012446       GGSL
TXBWIC21040-34613-00451-30000180D0000316D0000000000451       GGSL
TXBWIC21040-34613-00453-70000005D0000276D0000000000453       GGSL
TXBWIC21040-34613-00455-10000024D0000075D0000000000455       GGSL
TXBWIC21040-34613-00489-60000001D0000065D0000000000489       GGSL
TXBWIC21040-34613-00493-30000024D0000110D0000000000493       GGSL
TXBWIC21040-34613-00497-10000003D0000091D0000000000497       GGSL
TXBWIC21040-34613-00499-50000003D0000121D0000000000499       GGSL
TXBWIC21040-34613-00500-80000003D0000213D0000000000500       GGSL
TXBWIC21040-34613-00503-90000001D0000020D0000000000503       GGSL
TXBWIC21040-34613-00540-40000044D0000331D00000000585-40HD    GGSL
TXBWIC21040-34613-00550-30000072D0000108D0001200000550BL     GGSL
TXBWIC21040-34613-00551-00000096D0000144D0000000000551BL     GGSL
TXBWIC21040-34613-00552-70000132D0000198D0000000000552BL     GGSL
TXBWIC21040-34613-00553-40000478D0000717D0002400000553bl     GGSL
TXBWIC21040-34613-00555-80000048D0000072D0000000000555BL     GGSL
TXBWIC21040-34613-00640-10000040D0000177D00010000726-40HD    GGSL
TXBWIC21040-34613-00805-40000037D0001005D0000000026SS5       GGSL
TXBWIC21040-34613-01150-40001100D0002213D00020000801150PDQ   GGSL
TXBWIC21040-34613-01161-00000504D0001243D00000003721161PDQ   GGSL
TXBWIC21040-34613-01182-50000216D0000333D00000000001182      GGSL
TXBWIC21040-34613-01284-60000024D0000064D0000000000CVS012HD  GGSL
TXBWIC21040-34613-01501-10000048D0000064D00000000001501      GGSL
TXBWIC21040-34613-01502-80000060D0000080D00000000001502      GGSL
TXBWIC21040-34613-01503-50000060D0000083D00000000001503      GGSL
TXBWIC21040-34613-01505-90000024D0000032D00000000001505      GGSL
TXBWIC21040-34613-01684-40000024D0000108D0000000000CVS016HD  GGSL
TXBWIC21040-34613-01904-30000060D0000240D00000000001904      GGSL
TXBWIC21040-34613-01905-00000036D0000144D00000000001905      GGSL
TXBWIC21040-34613-01906-70000024D0000258D00000000001906      GGSL
TXBWIC21040-34613-01908-10000024D0000096D00000000001908      GGSL
TXBWIC21040-34613-03012-30000006D0000059D00000000003012      GGSL
TXBWIC21040-34613-03104-50000066D0000459D00006000003104      GGSL
TXBWIC21040-34613-03110-60000072D0000432D00168000003110      GGSL
TXBWIC21040-34613-03378-00000042D0000168D00006000003378      GGSL
TXBWIC21040-34613-03398-80000018D0000165D00000000003398      GGSL
TXBWIC21040-34613-03603-30000053D0002685D0000000003U3603     GGSL
TXBWIC21040-34613-04406-90000021D0003146D00000000004406BLD   GGSL
TXBWIC21040-34613-04803-60000027D0001674D0000000014U4803     GGSL
TXBWIC21040-34613-04850-00002466D0008871D00018003243104BL    GGSL
TXBWIC21040-34613-04855-50000006D0000077D00000000008402BL    GGSL
TXBWIC21040-34613-04856-20000060D0000090D00000000008131BL    GGSL
TXBWIC21040-34613-04862-30000012D0000048D0000000000LH013BL   GGSL
TXBWIC21040-34613-04883-80000108D0000864D00000000004883BL    GGSL
TXBWIC21040-34613-04899-90000012D0000104D00000000003105BL    GGSL
TXBWIC21040-34613-05017-60000012D0000074D00000000005017BL    GGSL
TXBWIC21040-34613-05171-50000012D0000153D00000000005171      GGSL
TXBWIC21040-34613-05826-40000024D0000136D00000000005826      GGSL
TXBWIC21040-34613-05900-10000024D0000136D00000000005900BL    GGSL
TXBWIC21040-34613-06811-90000006D0000088D00000000006811      GGSL
TXBWIC21040-34613-07160-70000048D0000236D00000000007160BL    GGSL
TXBWIC21040-34613-07161-40000048D0000236D00000000007161BL    GGSL
TXBWIC21040-34613-07170-60000036D0000168D00000000007170BL    GGSL
TXBWIC21040-34613-07378-60000024D0000119D00000000007378BL    GGSL
TXBWIC21040-34613-07379-30000012D0000098D00000000007379BL    GGSL
TXBWIC21040-34613-07757-90000120D0000462D00324005647757BL    GGSL
TXBWIC21040-34613-07758-60001704D0006544D00000001567758BL    GGSL
TXBWIC21040-34613-07835-40001518D0005367D00006000062110BL    GGSL
TXBWIC21040-34613-08131-60000018D0000027D00000000008131      GGSL
TXBWIC21040-34613-08210-80000036D0000191D0000000000PS10      GGSL
TXBWIC21040-34613-08401-00000018D0000198D00000000008401      GGSL
TXBWIC21040-34613-08975-60000015D0000577D00000000008975      GGSL
TXBWIC21040-34613-09164-30000034D0000551D00005000409164      GGSL
TXBWIC21040-34613-09215-20000024D0000335D00000000009215      GGSL
TXBWIC21040-34613-09500-90000019D0000706D00000000009500      GGSL
TXBWIC21040-34613-09509-20000132D0000411D00000000009509      GGSL
TXBWIC21040-34613-09570-20000072D0000423D00000000009570      GGSL
TXBWIC21040-34613-09580-10000108D0000162D00012000009580BL    GGSL
TXBWIC21040-34613-09600-60000021D0001029D00000000009600      GGSL
TXBWIC21040-34613-09629-70000132D0001268D00000000009629      GGSL
TXBWIC21040-34613-09706-50000060D0000220D00000000009706      GGSL
TXBWIC21040-34613-09707-20000024D0000083D00000000009707      GGSL
TXBWIC21040-34613-09708-90000012D0000044D00000000009708      GGSL
TXBWIC21040-34613-09709-60000024D0000088D00000000009709      GGSL
TXBWIC21040-34613-12060-20000030D0000120D00000000002060N     GGSL
TXBWIC21040-34613-12812-70000138D0003128D0000000006SMG12812  GGSL
TXBWIC21040-34613-18050-70000060D0000305D00000000128050BL    GGSL
TXBWIC21040-34613-34009-30000036D0000327D00000000002130      GGSL
TXBWIC21040-34613-70016-30000060D0000090D000000000070016     GGSL
TXBWIC21040-34613-70034-70000024D0000234D000000000070034     GGSL
TXBWIC21040-34613-70052-10002400D0018837D003600009670052     GGSL
TXBWIC21040-34613-70201-30000032D0000331D000000000070201HP   GGSL
TXBWIC21040-34613-70734-60000042D0000238D000000000070734BL   GGSL
TXBWIC21040-34613-70740-70000024D0000096D000000000070740BL   GGSL
TXBWIC21040-34613-70791-90000115D0001801D000050000570285BL   GGSL
TXBWIC21040-34613-71086-50000734D0003758D0001600269LH015BL   GGSL
TXBWIC21040-34613-71087-20002106D0008693D000180027071087BL   GGSL
TXBWIC21040-34613-71660-70000036D0000630D000120001271660     GGSL
TXBWIC21040-34613-95006-30000021D0000908D000000004395006     GGSL
TXBWIC21040-34613-96006-20000037D0001788D000000004296006     GGSL
TXBWIC21040-35307-00820-60000312D0000424D0015600192820       GGSL
TXBWIC21040-35307-00826-80000180D0000271D0021600180826       GGSL
TXBWIC21040-35307-00828-20000036D0000059D0001200000828       GGSL
TXBWIC21040-35307-00835-00000024D0000117D0002400000835       GGSL
TXBWIC21040-35307-00844-20000036D0000076D0003600012844       GGSL
TXBWIC21040-35307-00846-30000060D0000196D0000000000846       GGSL
TXBWIC21040-35307-00848-00000048D0000084D0002400036848       GGSL
TXBWIC21040-35307-00861-90000108D0000220D0003600168861       GGSL
TXBWIC21040-35307-00862-60000012D0000029D0000000000862       GGSL
TXBWIC21040-35307-00874-90000408D0000546D0000000000874       GGSL
TXBWIC21040-35307-01601-00000150D0001809D00006000121601      GGSL
TXBWIC21040-35307-01609-60000132D0000420D00000001321609CS    GGSL
TXBWIC21040-35307-01618-80000036D0000211D00036000001618      GGSL
TXBWIC21040-35307-01635-50000024D0000376D00000000001635      GGSL
TXBWIC21040-35307-01699-70000001D0000050D0000000000B1699     GGSL
TXBWIC21040-35307-01810-60000196D0000919D00000000351810      GGSL
TXBWIC21040-35307-01815-10000234D0001451D00139000221815      GGSL
TXBWIC21040-35307-01820-50000072D0000816D00006000061820      GGSL
TXBWIC21040-35307-01825-00000228D0001746D00192005761825      GGSL
TXBWIC21040-35307-01840-30000102D0001586D00066000001840      GGSL
TXBWIC21040-35355-00000-00000066D0010010D00000000034960BLD   GGSL
TXBWIC21040-35355-00072-60000120D0001311D0000000282TP72      GGSL
TXBWIC21040-35355-00325-30000100D0000396D0000000016325       GGSL
TXBWIC21040-35355-00440-30000001D0000142D00000000004-40HD    GGSL
TXBWIC21040-35355-00802-90000098D0001494D0000000019SS2       GGSL
TXBWIC21040-35355-00803-60000086D0001375D0000000032SS3       GGSL
TXBWIC21040-35355-00804-30000073D0001728D0000000040SS4       GGSL
TXBWIC21040-35355-00806-70000057D0002183D0000000018SS6       GGSL
TXBWIC21040-35355-00807-40000015D0000753D0000000000SS7-HD    GGSL
TXBWIC21040-35355-00808-10000003D0000152D0000000000SS8-HD    GGSL
TXBWIC21040-35355-00924-80003464D0025208D0002500036924       GGSL
TXBWIC21040-35355-01151-70000410D0001779D00010001801151PDQ   GGSL
TXBWIC21040-35355-01160-90000545D0001100D00000003601160      GGSL
TXBWIC21040-35355-01901-80000096D0000384D00024000001901      GGSL
TXBWIC21040-35355-03105-80000060D0000547D00012019563105      GGSL
TXBWIC21040-35355-03108-90000300D0001752D00000000063108      GGSL
TXBWIC21040-35355-05939-70000084D0000808D00000000245939      GGSL
TXBWIC21040-35355-05945-80002916D0038240D00013007985945      GGSL
TXBWIC21040-35355-70201-90000300D0003143D004600066070201     GGSL
TXBWIC21040-35355-94006-00000044D0001526D000040002694006     GGSL
TXBWIC21040-36348-00610-70000048D0000225D00258000000610      GGSL
TXBWIC21040-36348-00645-90000091D0001174D0021200005645       GGSL
TXBWIC21040-36348-00745-60000025D0000496D00087000160745      GGSL
TXBWIC21040-36348-01020-30000009D0000146D00008000061020      GGSL
TXBWIC21040-36348-01078-40000030D0000927D00081000161078      GGSL
TXBWIC21040-36348-01079-10000058D0002751D00185000161079      GGSL
TXBWIC21040-36348-01085-20000004D0000232D00015000001085      GGSL
TXBWIC21040-36434-00000-00000332D0011544D004980015210-12420  GGSL
TXBWIC21040-36434-10000-00000036D0000338D00072001801014510   GGSL
TXBWIC21040-36434-10012-20000036D0000492D000000000010-10012  GGSL
TXBWIC21040-36434-11000-80000263D0002668D008130007660-11000  GGSL
TXBWIC21040-36434-12340-40000006D0000013D00000000006012340   GGSL
TXBWIC21040-36434-12342-80000164D0001075D001480002160-12342  GGSL
TXBWIC21040-36434-12343-50000015D0000136D003400000760-12343  GGSL
TXBWIC21040-36434-12345-90000048D0000505D000000098410-12345  GGSL
TXBWIC21040-36434-12346-60000399D0001891D008970004260-12346  GGSL
TXBWIC21040-36434-12349-70000046D0000199D001440000360-12349  GGSL
TXBWIC21040-36434-12353-40000276D0004757D012310003660-12353  GGSL
TXBWIC21040-36434-12354-10000054D0000351D000880000510-12354  GGSL
TXBWIC21040-36434-12355-80000184D0001323D003270000010-12355  GGSL
TXBWIC21040-36434-12356-50000237D0001924D003860001210-12356  GGSL
TXBWIC21040-36434-12357-20000071D0000625D001500002110-12357  GGSL
TXBWIC21040-36434-12358-90000006D0000079D00036000061012358   GGSL
TXBWIC21040-36434-12700-60000240D0001620D000000033610-12700  GGSL
TXBWIC21040-36434-12710-50000084D0000564D000480001210-12710  GGSL
TXBWIC21040-36434-12720-40000143D0000870D000120000010-12720  GGSL
TXBWIC21040-36434-13600-50000108D0001856D000720067210-13600  GGSL
TXBWIC21040-36434-13610-20000084D0001161D000000067210-13610  GGSL
TXBWIC21040-36434-13615-20000006D0000079D00000000006013615   GGSL
TXBWIC21040-36434-14800-80000396D0006552D000000001210-14800  GGSL
TXBWIC21040-36434-14805-60000006D0000096D000000000060-14805  GGSL
TXBWIC21040-36434-14860-20000060D0000800D000000001210-14860  GGSL
TXBWIC21040-36434-14865-00000006D0000077D000000000060-14865  GGSL
TXBWIC21040-36434-14866-70000006D0000077D000000000060-14866  GGSL
TXBWIC21040-36434-15050-90000132D0002092D001260000010-15050  GGSL
TXBWIC21040-36434-15080-30000030D0000614D000420000010-15080  GGSL
TXBWIC21040-36434-22318-00000414D0001766D008710000360-22318  GGSL
TXBWIC21040-36434-22341-80000108D0001112D000000001210-22341  GGSL
TXBWIC21040-36434-22345-60000010C0001112C000000000010-22345  GGSL
TXBWIC21040-36434-22626-60000192D0002314D003170002560-22626  GGSL
TXBWIC21040-36434-22731-70000091D0000922D003070001060-22731  GGSL
TXBWIC21040-36434-22732-40000038D0000521D007700000360-22732  GGSL
TXBWIC21040-36434-24501-40000006D0000056D000000000060-24501  GGSL
TXBWIC21040-36434-24505-20000018D0000167D000000000060-24505  GGSL
TXBWIC21040-36434-24506-90000006D0000056D000000000060-24506  GGSL
TXBWIC21040-36434-28010-70000204D0001556D000240039610-28010  GGSL
TXBWIC21040-36434-28020-60000144D0001113D000360000010-28020  GGSL
TXBWIC21040-36434-32700-00000636D0004921D001300000210-32700  GGSL
TXBWIC21040-36434-34500-10000396D0003576D005040014410-34500  GGSL
TXBWIC21040-36434-65095-50000018C0003576C000000000065095     GGSL
TXBWIC21040-36434-82342-70000054D0000689D002790002260-82342  GGSL
TXBWIC21040-36865-12250-20013126D0024343D055200078071140180  GGSL
TXBWIC21040-36865-12292-20000420D0001131D000000000086752180  GGSL
TXBWIC21040-36865-14511-20000840D0001856D010800000071451180  GGSL
TXBWIC21040-36865-24511-90001980D0005907D031800018072451180  GGSL
TXBWIC21040-36865-45220-30000420D0001050D000000000088452205  GGSL
TXBWIC21040-36865-52965-30000660D0001478D000000000087852965  GGSL
TXBWIC21040-36865-65220-70002160D0005400D000000000088652205  GGSL
TXBWIC21040-37321-00022-80001725D0010131D0539602031022       GGSL
TXBWIC21040-37321-00023-50000012D0000192D0000000000023       GGSL
TXBWIC21040-37321-00024-20000870D0009397D0226501263024       GGSL
TXBWIC21040-37321-00036-50000003D0000018D0002100000036       GGSL
TXBWIC21040-37321-00051-80000006D0000063D0000000000051       GGSL
TXBWIC21040-37321-00053-20000060D0000135D0000000000053       GGSL
TXBWIC21040-37321-00068-60000075D0000359D0047100636068       GGSL
TXBWIC21040-37321-00069-30000372D0004408D0098100384069       GGSL
TXBWIC21040-37321-00070-90000144D0001897D0078900348070       GGSL
TXBWIC21040-37321-00102-70000012D0000138D0000000000102       GGSL
TXBWIC21040-37321-00105-80000276D0000679D0010800396105       GGSL
TXBWIC21040-37321-00106-50000288D0000719D0000000252106       GGSL
TXBWIC21040-37321-00107-20000252D0000617D0007200588107       GGSL
TXBWIC21040-37321-00108-90000444D0001120D0019200648108       GGSL
TXBWIC21040-37321-00110-20000016D0000046D0000000000110       GGSL
TXBWIC21040-37321-00121-80000008D0000079D0000000384121       GGSL
TXBWIC21040-37321-00123-20000012D0000045D0003300000123       GGSL
TXBWIC21040-37321-00127-00000144D0001058D0021600180127       GGSL
TXBWIC21040-37321-00141-60000024D0000092D0000000096141       GGSL
TXBWIC21040-37321-00150-80000300D0004176D0079802436150       GGSL
TXBWIC21040-37321-00166-90000090D0000497D0006300000166       GGSL
TXBWIC21040-37321-00171-30000096D0000743D0006000000171       GGSL
TXBWIC21040-37321-00202-40000960D0009502D0252900048202       GGSL
TXBWIC21040-37321-00203-10000401D0005385D0130200018203       GGSL
TXBWIC21040-37321-00205-50000012D0000650D0000000000205       GGSL
TXBWIC21040-37321-00210-90000222D0001250D0104400006210       GGSL
TXBWIC21040-37321-00211-60000330D0002550D0261000051211       GGSL
TXBWIC21040-37321-00213-00000243D0002415D0129300711213       GGSL
TXBWIC21040-37321-00214-70000240D0001175D0041400744214       GGSL
TXBWIC21040-37321-00216-10000060D0000825D0001200312216       GGSL
TXBWIC21040-37321-00217-80000024D0000246D0007200000217       GGSL
TXBWIC21040-37321-00225-30000012D0000052D0027600024225       GGSL
TXBWIC21040-37321-00238-30000447D0003536D0076800243238       GGSL
TXBWIC21040-37321-00239-00000004D0000088D0002400000239       GGSL
TXBWIC21040-37321-00250-50000537D0002200D0117302304250       GGSL
TXBWIC21040-37321-00252-90000180D0002011D0130800048252       GGSL
TXBWIC21040-37321-00253-60000138D0002285D0026100012253       GGSL
TXBWIC21040-37321-00255-00000078D0001446D0155101200255       GGSL
TXBWIC21040-37321-00257-40000066D0000233D0017700396257       GGSL
TXBWIC21040-37321-00272-70000072D0000239D0000000024272       GGSL
TXBWIC21040-37321-00274-10000588D0003345D0108600492274       GGSL
TXBWIC21040-37321-00307-60000231D0000887D0021600489307       GGSL
TXBWIC21040-37321-00309-00000066D0001026D0009000246309       GGSL
TXBWIC21040-37321-00310-50000036D0000931D0000000000310       GGSL
TXBWIC21040-37321-00312-00000012D0000226D0000000000312       GGSL
TXBWIC21040-37321-00330-40000237D0002057D0083400024330       GGSL
TXBWIC21040-37321-00331-10000276D0003874D0086100006331       GGSL
TXBWIC21040-37321-00332-80000004D0000198D0001600000332       GGSL
TXBWIC21040-37321-00404-20000024D0000172D0012000012404       GGSL
TXBWIC21040-37321-00411-00000180D0000527D0000900024411       GGSL
TXBWIC21040-37321-00412-70000033D0000174D0000000072412       GGSL
TXBWIC21040-37321-00413-40000016D0000171D0000000000413       GGSL
TXBWIC21040-37321-00420-20000058D0002999D0030100123420       GGSL
TXBWIC21040-37321-00426-40000159D0001559D0053700708426       GGSL
TXBWIC21040-37321-00428-80000183D0000639D0028500600428       GGSL
TXBWIC21040-37321-00429-50000027D0000478D0010800072429       GGSL
TXBWIC21040-37321-00442-40000108D0000658D0026700048442       GGSL
TXBWIC21040-37321-00443-10000177D0002127D0020700000443       GGSL
TXBWIC21040-37321-00506-30000218D0000876D0006900084506       GGSL
TXBWIC21040-37321-00530-80000004D0000043D0000400000530       GGSL
TXBWIC21040-37321-00543-80000228D0000682D0076800000543       GGSL
TXBWIC21040-37321-00544-50000138D0000740D0015600114544       GGSL
TXBWIC21040-37321-00549-00000156D0001206D0051600000549       GGSL
TXBWIC21040-37321-00552-00000054D0000797D0024000000552       GGSL
TXBWIC21040-37321-00553-70000048D0001468D0045900006553       GGSL
TXBWIC21040-37321-00560-50000060D0000255D0176400018560       GGSL
TXBWIC21040-37321-00564-30000204D0001909D0016800288564       GGSL
TXBWIC21040-37321-00568-10000024D0000473D0025200000568       GGSL
TXBWIC21040-37321-00571-10000027D0000206D0033300000571       GGSL
TXBWIC21040-37321-00573-50000072D0000309D0110400012573       GGSL
TXBWIC21040-37321-00577-30000084D0000745D0026400004574       GGSL
TXBWIC21040-37321-00578-00000012D0000126D0001600000578       GGSL
TXBWIC21040-37321-00603-90000026D0000280D0010400000603       GGSL
TXBWIC21040-37321-00609-10000060D0000599D0014400012609       GGSL
TXBWIC21040-37321-00611-40000139D0006101D0002000082611       GGSL
TXBWIC21040-37321-00629-90000072D0000216D0116400000629       GGSL
TXBWIC21040-37321-00631-20002447D0007359D2614400948631       GGSL
TXBWIC21040-37321-00634-30000048D0000330D0000000000634       GGSL
TXBWIC21040-37321-00652-70000144D0000767D0066000012652       GGSL
TXBWIC21040-37321-00655-80000216D0001233D00426008646556      GGSL
TXBWIC21040-37321-00680-00000147D0001036D0034800096680       GGSL
TXBWIC21040-37321-00685-50000798D0006923D0206100048685       GGSL
TXBWIC21040-37321-00687-90000012D0000163D0004800000687       GGSL
TXBWIC21040-37321-00688-60000204D0001170D0021600036688       GGSL
TXBWIC21040-37321-00690-90000228D0002400D0049800012690       GGSL
TXBWIC21040-37321-00691-60000027D0000178D000060000069127     GGSL
TXBWIC21040-37321-00692-30000560D0006183D0216200035692150    GGSL
TXBWIC21040-37321-00698-50000060D0000282D0020400012698       GGSL
TXBWIC21040-37321-00728-90000012D0000151D0014400000728       GGSL
TXBWIC21040-37321-00752-40000012D0000076D0018000000752       GGSL
TXBWIC21040-37321-00757-90000042D0000169D0004800000757       GGSL
TXBWIC21040-37321-00758-60000028D0000230D0003200000758       GGSL
TXBWIC21040-37321-00771-50000099D0000426D0010500009771       GGSL
TXBWIC21040-37321-00775-30001544D0008278D0154801851775       GGSL
TXBWIC21040-37321-00777-70000018D0000176D0021300000777       GGSL
TXBWIC21040-37321-00779-10000060D0000420D0011700357779       GGSL
TXBWIC21040-37321-00784-50000174D0000472D0103800024784       GGSL
TXBWIC21040-37321-00786-90000228D0001091D0116400408786       GGSL
TXBWIC21040-37321-00789-00000323D0002245D0142701954791       GGSL
TXBWIC21040-37321-00803-30000072D0000624D0010800000803       GGSL
TXBWIC21040-37321-00806-40000048D0000384D0012000012806       GGSL
TXBWIC21040-37321-00811-80000873D0009474D0253700231811       GGSL
TXBWIC21040-37321-00813-20000345D0004630D0063900480813       GGSL
TXBWIC21040-37321-00814-90000024D0000551D0007800006814       GGSL
TXBWIC21040-37321-00857-60000420D0003591D0194400288857       GGSL
TXBWIC21040-37321-00858-30000024D0000345D0002400000858       GGSL
TXBWIC21040-37321-00862-00000168D0002036D0013200000862       GGSL
TXBWIC21040-37321-00863-70000012D0000167D0000000003863       GGSL
TXBWIC21040-37321-00866-80000018D0000162D0000000012865       GGSL
TXBWIC21040-37321-00868-20000006D0000078D0003000000868       GGSL
TXBWIC21040-37321-00870-50000084D0000427D0052800000870       GGSL
TXBWIC21040-37321-00875-00000175D0002088D0414900023875       GGSL
TXBWIC21040-37321-00880-40000267D0002825D0091800414880       GGSL
TXBWIC21040-37321-00883-50000126D0000551D0002400120883       GGSL
TXBWIC21040-37321-00892-70000360D0003153D0000000876892       GGSL
TXBWIC21040-37321-00908-50000060D0000560D0003900000908       GGSL
TXBWIC21040-37321-00917-70000012D0000126D0000000000917       GGSL
TXBWIC21040-37321-00925-20001794D0005126D0566000612925       GGSL
TXBWIC21040-37321-00939-90000108D0001044D0030300588939       GGSL
TXBWIC21040-37321-00941-20000561D0005578D0310600552941       GGSL
TXBWIC21040-37321-00946-70000039D0000286D0000000004946       GGSL
TXBWIC21040-37321-00947-40000006D0000048D0018000006947       GGSL
TXBWIC21040-37321-00951-10000347D0001389D0017700372951       GGSL
TXBWIC21040-37321-00952-80000357D0001801D0015900039952       GGSL
TXBWIC21040-37321-00963-40000012D0000110D0000000000963       GGSL
TXBWIC21040-37321-00987-00000279D0002538D0101700096987       GGSL
TXBWIC21040-37321-01971-80000024D0000101D00072000001971      GGSL
TXBWIC21040-37321-02360-90000108D0000783D00066000242360      GGSL
TXBWIC21040-37321-02361-60000600D0006749D01201005852361      GGSL
TXBWIC21040-37321-02362-30000008D0000142D00000000042362      GGSL
TXBWIC21040-37321-02761-40000012D0000246D00000000002761      GGSL
TXBWIC21040-37321-05121-30000024D0000126D00000000005121      GGSL
TXBWIC21040-37321-05612-60000297D0002726D00270000485612      GGSL
TXBWIC21040-37321-05710-90000165D0000943D00360000005710      GGSL
TXBWIC21040-37321-05714-70000024D0000687D00084000005714      GGSL
TXBWIC21040-37321-07464-90000006D0000077D00006000007464      GGSL
TXBWIC21040-37321-07467-00000012D0000150D00000000007467      GGSL
TXBWIC21040-37321-07490-80000108D0000562D00012002047490      GGSL
TXBWIC21040-37321-07492-20000068D0001130D00112000967492      GGSL
TXBWIC21040-37321-07497-70000012D0000051D00024000007497      GGSL
TXBWIC21040-37321-08752-60000027D0000323D00615000008752      GGSL
TXBWIC21040-37321-09534-70000495D0005388D00171001329534      GGSL
TXBWIC21040-37321-46126-50001200D0000197D229000010046126     GGSL
TXBWIC21040-37321-46172-20000012D0000047D000000000046172     GGSL
TXBWIC21040-37321-46175-30000006D0000138D000000000046175     GGSL
TXBWIC21040-37321-46183-80000099D0000763D0028500060691       GGSL
TXBWIC21040-37321-46190-60000096D0000286D004560000046190     GGSL
TXBWIC21040-37321-46406-80000088D0000658D011280000046406     GGSL
TXBWIC21040-37321-46540-90000004D0000036D000960000046540     GGSL
TXBWIC21040-37321-60224-80000041D0000529D000000000060410     GGSL
TXBWIC21040-37321-60360-30000027D0000275D001500007560362     GGSL
TXBWIC21040-37321-60400-60000106D0001352D011010066160402     GGSL
TXBWIC21040-37321-60407-50000060D0000465D000000010860407     GGSL
TXBWIC21040-37321-60420-40000019D0000281D000030000560420     GGSL
TXBWIC21040-37321-60430-30000002D0000022D000580001060432     GGSL
TXBWIC21040-37321-60476-10001077D0012346D069430188360478     GGSL
TXBWIC21040-37321-60514-00001965D0019986D027740114460516     GGSL
TXBWIC21040-37321-60613-00000028D0000262D000160000060613     GGSL
TXBWIC21040-38313-00000-00000004D0000000D0000000000MR 9161   GGSL
TXBWIC21040-38313-00005-90000010D0000214D0007200008GS 6750D  GGSL
TXBWIC21040-38313-00008-00000198D0003386D0039000012BP 3130   GGSL
TXBWIC21040-38313-00060-80000434D0007244D0072700568BP 3160   GGSL
TXBWIC21040-38313-00080-60000393D0007502D0049000349BP 3180D  GGSL
TXBWIC21040-38313-00081-30000006D0000055D0000000006AC 7220   GGSL
TXBWIC21040-38313-00217-60000030D0000481D0005400000FS 4350   GGSL
TXBWIC21040-38313-00429-30000004D0000474D0000000000WL 6490   GGSL
TXBWIC21040-38313-00830-70000013D0000386D0014100000BP 6250   GGSL
TXBWIC21040-38313-01010-20001350D0006780D0154800120CT 3010I  GGSL
TXBWIC21040-38313-01020-10000378D0001908D0065400012CT 3020I  GGSL
TXBWIC21040-38313-01030-00000348D0001778D0022800066CT 3030I  GGSL
TXBWIC21040-38313-02006-40000002D0000146D0000000000WB 2006   GGSL
TXBWIC21040-38313-03050-60000084D0000605D0009000072GT 3050   GGSL
TXBWIC21040-38313-03060-50000132D0000922D0009000090GT 3060   GGSL
TXBWIC21040-38313-03080-30000162D0001148D0021000042GT 3080   GGSL
TXBWIC21040-38313-03214-20000084D0000930D0006600012BP 3214D  GGSL
TXBWIC21040-38313-03244-90000078D0001339D0000000048HS 3244   GGSL
TXBWIC21040-38313-03264-40000006D0000122D0028800366SL 3264   GGSL
TXBWIC21040-38313-03334-70000036D0000424D0010200000AP 3334   GGSL
TXBWIC21040-38313-03394-10000006D0000051D0000600000FS 3394   GGSL
TXBWIC21040-38313-03470-20000048D0001406D0011500002FL 3470   GGSL
TXBWIC21040-38313-03634-80000013D0000370D0000300000LG 3634   GGSL
TXBWIC21040-38313-03710-90000168D0000824D0000001116CT 3710   GGSL
TXBWIC21040-38313-03720-80000282D0001410D0012600330CT 3720   GGSL
TXBWIC21040-38313-03730-70000198D0000969D0000000516CT 3730   GGSL
TXBWIC21040-38313-03750-50000240D0001174D0000000510CT 3750   GGSL
TXBWIC21040-38313-04110-60000042D0000644D0000000042AL 4110   GGSL
TXBWIC21040-38313-04930-00002035D0011954D0356201084AG 4930   GGSL
TXBWIC21040-38313-04930-70000398D0002892D0148700048AG 4930SS GGSL
TXBWIC21040-38313-06870-70000004D0000358D0000100000TP 6870   GGSL
TXBWIC21040-38313-06970-40000085D0003501D0034000000AH 6970   GGSL
TXBWIC21040-38313-07001-00000044C0003501C0001700000FK 70010  GGSL
TXBWIC21040-38313-07265-00000006D0000096D0000000036RS 7265D  GGSL
TXBWIC21040-38313-07545-20000045D0000764D0019800018RS 7245   GGSL
TXBWIC21040-38313-10000-00000002D0001919D0000000000SP 1502   GGSL
TXBWIC21040-38313-10000-10000365D0003346D0030200019SS 10000  GGSL
TXBWIC21040-38313-10227-20000043D0002946D0009200000AL 6512   GGSL
TXBWIC21040-38313-11000-00000137D0001284D0020300015SS 11000  GGSL
TXBWIC21040-38313-12400-70000546D0006297D0040400083RK 24003  GGSL
TXBWIC21040-38313-13214-90000012D0000092D0000000174FS 3214D  GGSL
TXBWIC21040-38313-14300-80000001D0000033D0002400000BM 43001  GGSL
TXBWIC21040-38313-20001-50000038D0000837D0002800000PD 20000  GGSL
TXBWIC21040-38313-20002-20000048D0000737D0000000024RK 20002  GGSL
TXBWIC21040-38313-20004-60000094D0001227D0025500027CV 20004  GGSL
TXBWIC21040-38313-20022-00000261D0004472D0025700008RK 20022  GGSL
TXBWIC21040-38313-21000-70000246D0003267D0027200078SH 20000  GGSL
TXBWIC21040-38313-21050-20000006D0000029D0000000000CT 3050I  GGSL
TXBWIC21040-38313-24000-40000028D0000205D0009700006FS 4000   GGSL
TXBWIC21040-38313-25008-90000060D0000260D0000000180RK 25008  GGSL
TXBWIC21040-38313-26001-90000090D0001077D0000000090SS 26010  GGSL
TXBWIC21040-38313-26020-00000194D0002803D0009300001SS 26020  GGSL
TXBWIC21040-38313-26022-40000007D0000147D0000500000SS 26030  GGSL
TXBWIC21040-38313-27020-90000040D0000608D0002600001SS 27020  GGSL
TXBWIC21040-38313-28000-00000042D0000747D0000800010SS 28000  GGSL
TXBWIC21040-38313-28010-90000113D0002281D0011500001SS 28010  GGSL
TXBWIC21040-38313-32440-70000008D0000048D0000000024CT 3244   GGSL
TXBWIC21040-38313-32441-40000008D0000089D0000000007GT 3244   GGSL
TXBWIC21040-38313-32640-10000012D0000089D0000000006CT 3264   GGSL
TXBWIC21040-38313-33140-50000032D0000299D0000000088CT 3314   GGSL
TXBWIC21040-38313-33240-20000016D0000142D0001600000CT 3324   GGSL
TXBWIC21040-38313-33340-90000008D0000072D0000000048CT 3334   GGSL
TXBWIC21040-38313-33440-60000328D0002435D0000800144CT 3344   GGSL
TXBWIC21040-38313-33540-30000056D0000486D0000000072CT 3354   GGSL
TXBWIC21040-38313-33640-00000416D0003526D0001600032CT 3364   GGSL
TXBWIC21040-38313-36241-60000007D0000217D0000000000LG 3624   GGSL
TXBWIC21040-38313-36541-70000006D0000138D0001100000LG 3654   GGSL
TXBWIC21040-38313-36841-80000004D0000113D0000300000LG 3684   GGSL
TXBWIC21040-38313-37101-20000002D0000043D0000400000LG 3710   GGSL
TXBWIC21040-38313-37201-90000066D0001210D0002100011LG 3720   GGSL
TXBWIC21040-38313-41100-80000175C0001210C0000800000PM 41000  GGSL
TXBWIC21040-38313-42003-10000006D0000155D0000000000SS 42011  GGSL
TXBWIC21040-38313-53841-50000014D0000681D0002800001TP 3841   GGSL
TXBWIC21040-38313-56200-70000034D0000279D0000600008RK 62000  GGSL
TXBWIC21040-38313-60053-20000001D0000031D0000000000UT 60053  GGSL
TXBWIC21040-38313-61062-30000016D0000803D0003400003RK 61062  GGSL
TXBWIC21040-38313-62062-20000011D0000487D0002700000BM 62060  GGSL
TXBWIC21040-38313-64144-30000029D0000559D0001600003SS 64104  GGSL
TXBWIC21040-38313-65000-10000002D0000047D0000000001SS 65000  GGSL
TXBWIC21040-38313-66000-00000004D0000094D0000900000SS 66000  GGSL
TXBWIC21040-38313-80000-00000030D0002305D0001300008SF 80000  GGSL
TXBWIC21040-38313-80020-80000006D0000395D0000000000SF 80020  GGSL
TXBWIC21040-38313-81000-90000348D0003310D0024000023RK 10000  GGSL
TXBWIC21040-38313-82000-80000006D0000126D0000000006FK 42000  GGSL
TXBWIC21040-38313-90000-70000197D0001770D0023800018SH 10000  GGSL
TXBWIC21040-38858-10457-10000004D0000027D00000000007985-04-91GGSL
TXBWIC21040-38858-10816-60000006D0000021D00000000009685-06-45GGSL
TXBWIC21040-38858-13575-90000024D0000117D00000000006717-12-76GGSL
TXBWIC21040-38858-13576-60000002D0000142D00000000006718-12-76GGSL
TXBWIC21040-39044-14636-80000012D0000120D000000000614666     GGSL
TXBWIC21040-39044-15544-50000012D0000064D000840000015544     GGSL
TXBWIC21040-39645-11752-10000238D0001144D001090003240200010  GGSL
TXBWIC21040-40025-54033-40000013D0000584D0003700000RWS-54033 GGSL
TXBWIC21040-40200-00000- 0000525D0000264D0000000050VBC H11-7 GGSL
TXBWIC21040-40235-75256-50000008D0000142D00076000002.5G30S   GGSL
TXBWIC21040-40279-03300-20000912D0001552D02124000603300      GGSL
TXBWIC21040-40279-03302-60000648D0001199D0109200036          GGSL
TXBWIC21040-41535-24550-40000352D0015182D012750014124550     GGSL
TXBWIC21040-41535-24560-30001002D0162572D009010033524560     GGSL
TXBWIC21040-41535-24571-90001686D0026010D0233000432100518540 GGSL
TXBWIC21040-42204-14504-80000002D0000002D00017000002MMC      GGSL
TXBWIC21040-42206-00056-90000032D0000228D001000005456-6      GGSL
TXBWIC21040-42206-00202-00000290D0000305D0108500030202S      GGSL
TXBWIC21040-42206-00202-10000002D0000002D0000700001202S      GGSL
TXBWIC21040-42206-00269-30000050D0000203D0015400156269       GGSL
TXBWIC21040-42206-00395-90000110D0000250D0108200070395S      GGSL
TXBWIC21040-42206-00511-30000006D0000045D0000000000511       GGSL
TXBWIC21040-42206-00525-00000110D0000258D0024000090525C      GGSL
TXBWIC21040-42206-00872-50000102D0000215D0049200102872-6     GGSL
TXBWIC21040-42206-03010-80000018D0000175D00186000043010-4    GGSL
TXBWIC21040-42206-07800-10000018D0000102D00000000847800      GGSL
TXBWIC21040-42206-09000-30000126D0000750D00304000109000      GGSL
TXBWIC21040-42206-09520-60000018D0000276D00006000429520      GGSL
TXBWIC21040-42206-09620-30000147D0004923D00186000029620-8    GGSL
TXBWIC21040-42206-14058-60000384D0002001D01536000729570      GGSL
TXBWIC21040-42206-14066-10000012D0000038D00024000009560C     GGSL
TXBWIC21040-42206-14220-70000232D0000830D0076000046312S      GGSL
TXBWIC21040-42206-14221-40000230D0000406D0070200032313S      GGSL
TXBWIC21040-42206-14222-10000090D0001556D0009600030314S      GGSL
TXBWIC21040-42206-14235-10000198D0000206D0025200030390S      GGSL
TXBWIC21040-42206-14456-00000172D0000254D0020400040420C      GGSL
TXBWIC21040-42206-14501-70000176D0000146D00657000501FMC      GGSL
TXBWIC21040-42206-14502-40000192D0000135D00631000301MMC      GGSL
TXBWIC21040-42206-14503- 0000008D0000008D00021000002FMC      GGSL
TXBWIC21040-42206-14503-10000428D0000387D02261000702FMC      GGSL
TXBWIC21040-42206-14504-80000322D0000233D02266000742MMC      GGSL
TXBWIC21040-42206-14505-50000192D0000174D004320003001MC      GGSL
TXBWIC21040-42206-14506-20000388D0000372D013780006002MC      GGSL
TXBWIC21040-42206-14570-30000106D0000543D0048800000ZBR3/4    GGSL
TXBWIC21040-42206-14571-00000286D0000912D0076500010ZBM3/4    GGSL
TXBWIC21040-42206-14572-70000266D0000921D0065900026ZBF3/4    GGSL
TXBWIC21040-42206-14599-40000006D0000072D00012000009536CH    GGSL
TXBWIC21040-42206-15106-30000108D0001170D000000003615106     GGSL
TXBWIC21040-42206-15111-70000065D0000407D001900001215111     GGSL
TXBWIC21040-42206-15404-00000018D0000180D000900000615404     GGSL
TXBWIC21040-42206-15549-80000011D0000177D000370000015549     GGSL
TXBWIC21040-42206-15565-80000072D0000660D0000000000R551      GGSL
TXBWIC21040-42206-20491-20000212D0001003D007140001020491-10  GGSL
TXBWIC21040-42206-22261-90000222D0001849D010740000022261     GGSL
TXBWIC21040-42206-22300-50000108D0001034D002520000022300     GGSL
TXBWIC21040-42206-22701-00000058D0000175D000540000022701C    GGSL
TXBWIC21040-42206-23701-90000052D0000156D001900000023701S    GGSL
TXBWIC21040-42206-40300-10000058D0000402D0007000008XT300     GGSL
TXBWIC21040-42206-40301-80000230D0001412D0044200190XT301     GGSL
TXBWIC21040-42206-44100-30000066D0001122D0007200042XT4100    GGSL
TXBWIC21040-42206-48635-60000192D0001027D0000000264R8635     GGSL
TXBWIC21040-42206-63015-50000044D0001245D000760001163015     GGSL
TXBWIC21040-42206-63100-80000019D0000728D000170000063100     GGSL
TXBWIC21040-42579-00052-40000001D0000043D0002500000ST47812   GGSL
TXBWIC21040-42579-11212-80000012D0000617D0000000002SSR12GRN  GGSL
TXBWIC21040-42579-11250-00000016D0007733D0005900002P12       GGSL
TXBWIC21040-42579-11500-60000470D0009443D0009800026APBPAL    GGSL
TXBWIC21040-42579-12343-80000028D0001046D000000000020 YR-3100GGSL
TXBWIC21040-42579-12353-70000060D0000238D0006000000PG12      GGSL
TXBWIC21040-42579-13250-80000880D0028623D0178600196P3        GGSL
TXBWIC21040-42579-14250-70000181D0026086D0059300029P4        GGSL
TXBWIC21040-42579-15250-60000012D0002196D0008300006P5        GGSL
TXBWIC21040-42579-16250-50000116D0023301D0013500016P6        GGSL
TXBWIC21040-42579-18250-30000026D0007651D0006400001P8        GGSL
TXBWIC21040-42579-19342-40000240D0002661D007440000020 YR-324 GGSL
TXBWIC21040-42579-22341-10003456D0025918D01824006086 YR-350  GGSL
TXBWIC21040-42579-22342-80000084D0000808D0001800276NS12      GGSL
TXBWIC21040-42579-22345-90004008D0005222D0240800576APRC      GGSL
TXBWIC21040-42579-23100-30000064D0000448D00000000166 YR-3100 GGSL
TXBWIC21040-42579-32355-50000504D0003157D0046200014RS15      GGSL
TXBWIC21040-42579-43004-80000033D0003072D0003900025NB4       GGSL
TXBWIC21040-42579-43006-20000013D0001800D0004200001NB6       GGSL
TXBWIC21040-42579-50154-00000144D0004312D0019200032PRO BLK-31GGSL
TXBWIC21040-42579-50169-40000252D0005108D0012600090PRO BLK-45GGSL
TXBWIC21040-42579-50264-60000096D0001543D0000000000SG200PAL  GGSL
TXBWIC21040-42579-63041-70000003D0000389D0000000000KG6       GGSL
TXBWIC21040-42579-63101-80000002D0000109D0001300000TSL-BX    GGSL
TXBWIC21040-42579-63105-60000020D0001206D0003800007350ROLL   GGSL
TXBWIC21040-42579-63306-70001656D0009226D03024002163 YR-350  GGSL
TXBWIC21040-42579-81273-80000001D0000204D0000000000K12       GGSL
TXBWIC21040-42579-81360-50000020D0003154D0000100003NS12250   GGSL
TXBWIC21040-42579-81392-60000056D0014163D0000100000WGC15     GGSL
TXBWIC21040-42579-81428-20000184D0000358D0072900000BURLAP BAGGGSL
TXBWIC21040-42579-81497-40000002D0000000D0000800001RDR + SIGNGGSL
TXBWIC21040-42579-81566-10000095D0014694D0016000016SBLT10300 GGSL
TXBWIC21040-42579-81568-50000138D0025515D0028700058SBLT12300 GGSL
TXBWIC21040-42579-81569-20000288D0064003D0025100187SBLT15.530GGSL
TXBWIC21040-42579-81571-50000393D0018393D0016400071SBLT3300  GGSL
TXBWIC21040-42579-81572-20000129D0007722D0002500068SBLT4300  GGSL
TXBWIC21040-42579-81573-90000247D0023235D0024500075SBLT6300  GGSL
TXBWIC21040-42579-81605-70000009D0000683D0006000001PRO BLK-33GGSL
TXBWIC21040-42579-81606-40000030D0003384D0010400006PRO BLK-43GGSL
TXBWIC21040-42579-81607-10000030D0005005D0009800002PRO BLK-63GGSL
TXBWIC21040-42579-81608-80000007D0001482D0000300000PRO BLK-83GGSL
TXBWIC21040-42579-81733-70000031D0001770D0002600006CS-3300BLKGGSL
TXBWIC21040-42579-81734-40000050D0003478D0000600009CS-4300BLKGGSL
TXBWIC21040-42579-81735-10000034D0003919D0003800003CS-6300BLKGGSL
TXBWIC21040-42579-81738-20000006D0001487D0000400000CS-350BLK GGSL
TXBWIC21040-42579-81739-90000002D0000459D0000200002CS-3100BLKGGSL
TXBWIC21040-42579-82278-20000384D0003597D0000000024TWBAG-12  GGSL
TXBWIC21040-42579-82293-50000079D0000438D0000000112SUPREME625GGSL
TXBWIC21040-42579-82311-60000001D0000000D0000000000BDR       GGSL
TXBWIC21040-42579-82320-80000144D0001519D0000000000TWD-24    GGSL
TXBWIC21040-42597-81578-40000016D0012064D0000000000SUPREME36 GGSL
TXBWIC21040-42853-00000-00000121D0005371D0080600052BFTD-DB12 GGSL
TXBWIC21040-42853-10000-10000024D0000099D0017600008ST3-BB4   GGSL
TXBWIC21040-42853-12000-90000024D0000063D0022400000MGC-DB12  GGSL
TXBWIC21040-42853-40000-20000001D0000133D0000000000TSF-FD48  GGSL
TXBWIC21040-42853-42000-00000132D0000725D0097200012TSBF-BB6  GGSL
TXBWIC21040-42853-50000-90000457D0003309D0213000272TSW-BB6   GGSL
TXBWIC21040-42853-52000-40000060D0000396D0002400018CBTS-BB6  GGSL
TXBWIC21040-42853-61000-50000020D0000091D0005200000FFTR2-BB4 GGSL
TXBWIC21040-42853-62000-40000036D0000046D0017200012FFTA-DB12 GGSL
TXBWIC21040-42853-65000-10000012D0000045D0000000180AB6-BB4   GGSL
TXBWIC21040-42853-77301-40002200D0139040D0000000000FTD-BB24  GGSL
TXBWIC21040-42853-77305-40000127D0004991D0096700069FTD-DB12  GGSL
TXBWIC21040-42853-77503-20000160D0020218D0000000000YJTD-FD48-GGSL
TXBWIC21040-42853-77603-90000003D0000129D0000600000YJTD-DB12-GGSL
TXBWIC21040-42854-03298-10000264D0000655D0110400024FG32ORB112GGSL
TXBWIC21040-42854-09098-10000001D0000214D0000000000FG32ORB190GGSL
TXBWIC21040-42854-63278-50000120D0000270D0044400000FG32PC1-12GGSL
TXBWIC21040-42854-64870-00000102D0000666D0000000006FG48PC1-6 GGSL
TXBWIC21040-42854-70012-50000012D0000082D0000000000FG700MLEQUGGSL
TXBWIC21040-42854-93200-70000048D0000249D0002400000FG32SM1-12GGSL
TXBWIC21040-43312-10003-70000298D0000890D0072900000103-0-009 GGSL
TXBWIC21040-43312-10031-00000022D0000577D0009200000107-0-002 GGSL
TXBWIC21040-43326-59578-20000002D0000106D0000000000G12X26    GGSL
TXBWIC21040-43792-50001-30000009D0000327D0000500002Y32       GGSL
TXBWIC21040-43792-60002-70000013D0000464D0003100005W32       GGSL
TXBWIC21040-43792-70002-40000003D0000117D0000200006R32       GGSL
TXBWIC21040-43792-80001-40000006D0000198D0000100006SW10      GGSL
TXBWIC21040-43792-90003-50000006D0000254D0001500000GA10      GGSL
TXBWIC21040-44882-30115-20000055D0000451D0002000040WS50      GGSL
TXBWIC21040-44882-30501-30000005D0000045D0000000065FXG5825   GGSL
TXBWIC21040-44882-30502-00000070D0001134D0000000100FXG5850   GGSL
TXBWIC21040-44882-30504-40000018D0000426D0000000084FXG5875   GGSL
TXBWIC21040-44882-30506-80000003D0000096D0000000102FXG58100  GGSL
TXBWIC21040-46539-62045-60002969D0040102D0121700741          GGSL
TXBWIC21040-46539-64032-40001000D0008699D0003100386          GGSL
TXBWIC21040-46753-01032-30000084D0000305D00106000004675301032GGSL
TXBWIC21040-46753-01128-30000244D0002054D00156000044675301128GGSL
TXBWIC21040-46753-01500-70000002D0000100D00013000004675302500GGSL
TXBWIC21040-46753-02032-20000120D0000540D00169000004675302032GGSL
TXBWIC21040-46753-02128-20000140D0001560D00224000044675302128GGSL
TXBWIC21040-46753-03128-10000032D0000419D00204000004675303128GGSL
TXBWIC21040-46753-04032-00000540D0003105D00526000244675304032GGSL
TXBWIC21040-46753-04033-70000312D0002544D00372005162004675304GGSL
TXBWIC21040-46753-04128-00000608D0008351D00716001644675304128GGSL
TXBWIC21040-46753-04500-10000013D0000424D0001000000ZZMED5GALPGGSL
TXBWIC21040-46753-04500-40000019D0001171D000130000045004     GGSL
TXBWIC21040-46753-05032-90000426D0003528D00090004024675305032GGSL
TXBWIC21040-46753-05128-90000256D0003380D00412000924675305128GGSL
TXBWIC21040-46753-05500-10000001D0000060D000000000155003     GGSL
TXBWIC21040-46753-07032-70000021D0000113D00144000004675307032GGSL
TXBWIC21040-46753-07128-70000012D0000160D00008000004675307128GGSL
TXBWIC21040-46753-08016-60000012D0000104D000000000080160     GGSL
TXBWIC21040-46753-08032-60000798D0012443D02154003304675308032GGSL
TXBWIC21040-46753-14032-70000032D0000133D00775000004675314032GGSL
TXBWIC21040-46753-14128-70000184D0001320D00362000084675314128GGSL
TXBWIC21040-46753-17005-80000300D0001198D00142000004675317005GGSL
TXBWIC21040-46753-17040-90002383D0031943D01108000554675317040GGSL
TXBWIC21040-46753-17201-40000005D0001961D000000000072014     GGSL
TXBWIC21040-46753-19032-20000060D0000341D00000000002004675319GGSL
TXBWIC21040-46753-19128-20000016D0000212D0000000000          GGSL
TXBWIC21040-46753-20128-80000016D0000252D0000000036          GGSL
TXBWIC21040-46753-21032-70000252D0001189D011400024010327     GGSL
TXBWIC21040-46753-21128-70000284D0003410D005960012012287     GGSL
TXBWIC21040-46753-21550-60000001D0000476D000000000015506     GGSL
TXBWIC21040-46753-30165-00000001D0001374D00000000021650      GGSL
TXBWIC21040-46878-26380-20000057D0000627D000090000326380     GGSL
TXBWIC21040-46878-26381-90000060D0000660D000000000026381     GGSL
TXBWIC21040-46878-26382-60000057D0000627D000510000326382     GGSL
TXBWIC21040-46878-27389-40000081D0001404D000480000027389     GGSL
TXBWIC21040-46878-27436-50000066D0001144D000420000327436     GGSL
TXBWIC21040-46878-27560-70000087D0001508D000270000027560     GGSL
TXBWIC21040-47977-00100-50000001D0000034D00000000007511I     GGSL
TXBWIC21040-47977-00498-30000008D0000197D000000000023804     GGSL
TXBWIC21040-47977-00804-20000008D0000224D000000000023837     GGSL
TXBWIC21040-47977-00896-70000016D0000173D000000000024102     GGSL
TXBWIC21040-47985-10023-30000194D0001553D0030000088YCBSM3CF-PGGSL
TXBWIC21040-47985-10033-20000714D0005807D0028400364YCBSI3CF-PGGSL
TXBWIC21040-48307-70003-20000012D0000089D0000400003ST3       GGSL
TXBWIC21040-48307-70004-90000008D0000078D0000100001ST4-WS    GGSL
TXBWIC21040-48307-70006-30000048D0000745D0000900007ST6       GGSL
TXBWIC21040-48745-22244-80000008D0000181D0007200000BL22244   GGSL
TXBWIC21040-48745-34532-10000018D0000191D00000000000348206   GGSL
TXBWIC21040-50197-00104-50001932D0008887D0156300480HT4       GGSL
TXBWIC21040-50197-00108-30000384D0002792D0027600036HT8       GGSL
TXBWIC21040-50197-00118-20000976D0011622D0063900095HT18      GGSL
TXBWIC21040-50197-00136-60000350D0007085D0023100034HT36      GGSL
TXBWIC21040-50197-00150-20000232D0005835D0021300024HT50      GGSL
TXBWIC21040-50197-00204-20001854D0008507D0111502838PT4       GGSL
TXBWIC21040-50197-00208-00000198D0001425D0000000024PT8       GGSL
TXBWIC21040-50197-00218-90000697D0008176D0026000055PT18      GGSL
TXBWIC21040-50197-00236-30000265D0005289D0000100032PT36      GGSL
TXBWIC21040-50197-00250-90000416D0009192D0005900006PT50      GGSL
TXBWIC21040-50197-00304-90001866D0008676D0285500912GT4       GGSL
TXBWIC21040-50197-00308-70000036D0000218D0000000000GT8       GGSL
TXBWIC21040-50197-00318-60000419D0005188D0055200051GT18      GGSL
TXBWIC21040-50197-00336-00000140D0002856D0007900028GT36      GGSL
TXBWIC21040-50197-00404-60001415D0006588D0098801201RT4       GGSL
TXBWIC21040-50197-00408-40000112D0000775D0007800156RT8       GGSL
TXBWIC21040-50197-00418-30000250D0003018D0019400126RT18      GGSL
TXBWIC21040-50197-00604-00000414D0001847D0017100384BT4       GGSL
TXBWIC21040-50197-00704-70000558D0002504D0070300312TR4       GGSL
TXBWIC21040-50197-00718-40000161D0001969D0009400039TR18      GGSL
TXBWIC21040-50197-00736-80000004D0000065D0000500000TR36      GGSL
TXBWIC21040-50197-00904-10001986D0009312D0112003948TO4       GGSL
TXBWIC21040-50197-00908-60000150D0001065D0013200006TO8       GGSL
TXBWIC21040-50197-00918-80000154D0002076D0013600022TO18      GGSL
TXBWIC21040-50197-01004-70000479D0002164D0000000456BM04      GGSL
TXBWIC21040-50197-01024-50000016D0000290D0000000000BM24      GGSL
TXBWIC21040-50197-01106-80000354D0003404D0000000120gs6       GGSL
TXBWIC21040-50197-01130-30000044D0001408D0000000002gs30      GGSL
TXBWIC21040-50197-01207-20000132D0000902D0001200024RP7       GGSL
TXBWIC21040-50197-01228-70000120D0001987D0003600005RP28      GGSL
TXBWIC21040-50197-01303-10000492D0002959D0001200696DB03      GGSL
TXBWIC21040-50197-01317-80000069D0002137D0009500006DB17      GGSL
TXBWIC21040-50197-01403-80000036D0000199D0002400000CM3       GGSL
TXBWIC21040-50197-01803-60000144D0000509D0016800024GM3       GGSL
TXBWIC21040-50197-01825-80000531D0005487D0040700063GM25      GGSL
TXBWIC21040-50197-01905-70000006D0000030D0002400000GF5105/6  GGSL
TXBWIC21040-50197-02006-00000579D0001368D0024000432GL6       GGSL
TXBWIC21040-50197-02206-40000378D0001810D0055500276GG6       GGSL
TXBWIC21040-50197-02805-90000006D0000038D0000000012GF101010/6GGSL
TXBWIC21040-50197-02904-90001110D0005084D0067800708FT4       GGSL
TXBWIC21040-50197-02918-60000199D0002414D0015900002FT18      GGSL
TXBWIC21040-50197-03804-10003751D0020128D0100501116BTSP4     GGSL
TXBWIC21040-50197-03808-90000006D0000046D0000000000BTSP8     GGSL
TXBWIC21040-50197-03818-80000009D0000205D0009800006BTSP18    GGSL
TXBWIC21040-50197-03825-60000407D0010789D0003200039BTSP25    GGSL
TXBWIC21040-50197-03904-80000686D0003154D0070000492PM4       GGSL
TXBWIC21040-50197-03920-80000070D0000902D0017100001PM20      GGSL
TXBWIC21040-50197-05004-30001536D0007070D0090302310CT4       GGSL
TXBWIC21040-50197-05018-00000238D0003175D0028400022CT18      GGSL
TXBWIC21040-50197-05225-20000004D0000087D0000000000CGP25     GGSL
TXBWIC21040-50197-05320-40000058D0000893D0004800000ELF20     GGSL
TXBWIC21040-50197-05405-80000036D0000186D0000100168IT5       GGSL
TXBWIC21040-50197-05628-10000123D0002533D0012300020EOLF28    GGSL
TXBWIC21040-50197-05730-10000079D0001726D0000400000EOSR30    GGSL
TXBWIC21040-50197-05830-80000060D0001229D0000000000EOFW30    GGSL
TXBWIC21040-50197-06203-90000012D0000057D0001200024AL3       GGSL
TXBWIC21040-50197-06504-70001224D0005407D0016300996AT4       GGSL
TXBWIC21040-50197-06508-50000054D0000375D0001800018AT8       GGSL
TXBWIC21040-50197-06518-40000005D0000066D0000700014AT18      GGSL
TXBWIC21040-50197-06604-40000078D0000378D0032400306BR4       GGSL
TXBWIC21040-50197-30418-40000024D0000134D0000000000BL18      GGSL
TXBWIC21040-50197-30508-20000042D0000148D0000000000INPF8     GGSL
TXBWIC21040-50197-30608-90000078D0000352D0000000000CAPF8     GGSL
TXBWIC21040-50197-30708-60000006D0000021D0000000012VIPF8     GGSL
TXBWIC21040-50197-30808-30000054D0000192D0000000000ORPF8     GGSL
TXBWIC21040-50197-31318-60000018D0000099D0001800000topf18    GGSL
TXBWIC21040-50197-51701-00000012D0000060D0000000000eoss1     GGSL
TXBWIC21040-50197-70101-30000116D0000252D0014600092ap1       GGSL
TXBWIC21040-50197-70102-00000347D0003486D0012800048ap2       GGSL
TXBWIC21040-50197-70304-80000408D0000886D0012400088ca4       GGSL
TXBWIC21040-50197-70308-60000048D0000168D0009000000ca8       GGSL
TXBWIC21040-50197-70516-50000061D0000285D0000000000SS16      GGSL
TXBWIC21040-50197-70608-70000054D0000211D0001200000PTM8      GGSL
TXBWIC21040-50197-71202-60000012D0000154D0001300000mm2       GGSL
TXBWIC21040-50197-71208-80000006D0000021D0006000000MM8       GGSL
TXBWIC21040-50197-71304-70000012D0000076D0000000036EC4       GGSL
TXBWIC21040-50197-71501-00000224D0001458D0040500012lsc1      GGSL
TXBWIC21040-50197-71601-70000163D0000834D0090400000dcm1      GGSL
TXBWIC21040-50197-71804-20000036D0000191D0000000000BO4       GGSL
TXBWIC21040-50197-71904-90000024D0000143D0015600000HC4       GGSL
TXBWIC21040-50197-80117-10000257D0002482D0082600360SC17      GGSL
TXBWIC21040-50197-80206-20000006D0000027D0001800000OC6       GGSL
TXBWIC21040-50349-01003-10000010D0000424D00000000001003-012  GGSL
TXBWIC21040-50349-01069-70000120D0000492D00000000001069-012  GGSL
TXBWIC21040-50349-01078-30000001D0000635D00003000001023-017  GGSL
TXBWIC21040-50349-11177-60000003D0000206D00000000001077-082  GGSL
TXBWIC21040-50349-18885-30000003D0000042D00000000008885-034  GGSL
TXBWIC21040-50699-00000-00000018D0000168D0003100000303460    GGSL
TXBWIC21040-50699-00001-00000008D0000073D0009800000300001    GGSL
TXBWIC21040-50699-00014-00000005D0000024D0004800000300014    GGSL
TXBWIC21040-50699-00128-10000047D0001270D0001100000300128    GGSL
TXBWIC21040-50699-00304-90000020D0000239D0000000000300304    GGSL
TXBWIC21040-51497-15464-60000013D0001494D000180000115464     GGSL
TXBWIC21040-51497-15466-00000012D0000119D000120000015466     GGSL
TXBWIC21040-52427-00551-90000001D0000019D00000000004500102   GGSL
TXBWIC21040-52427-01038-40000003D0000054D0000000000105462    GGSL
TXBWIC21040-52427-01048-30000002D0000074D0000000000105629    GGSL
TXBWIC21040-52427-01049-00000002D0000074D0000000000105634    GGSL
TXBWIC21040-52732-00000-00000026D0001071D000000002419109     GGSL
TXBWIC21040-52732-10012-10000119D0013494D00087000191001-B    GGSL
TXBWIC21040-52732-10225-50000029D0000800D000220000360009.0   GGSL
TXBWIC21040-52732-20505-50000023D0001993D00113000012050SU    GGSL
TXBWIC21040-52732-20509-30000037D0005011D00061000122050P     GGSL
TXBWIC21040-52732-20519-20000010D0001305D00010000032050TP    GGSL
TXBWIC21040-52732-27500-30000327D0012572D00144000562750      GGSL
TXBWIC21040-52732-34000-80000002D0000042D00011000003400.0    GGSL
TXBWIC21040-52732-65000-80000023D0002546D00002000016500.0    GGSL
TXBWIC21040-52732-68016-60000001D0000292D0002300000F80       GGSL
TXBWIC21040-53291-11002-60000552D0005578D0054000060820-1002  GGSL
TXBWIC21040-53291-19881-90000019D0000168D0001600000820-0002  GGSL
TXBWIC21040-53291-19937-30000024D0000042D0006000012820-0409  GGSL
TXBWIC21040-53291-30000-00000013D0003447D0000700002820-1024  GGSL
TXBWIC21040-53291-40003-50000020D0000062D0000000000840-0003  GGSL
TXBWIC21040-53291-40005-90000010D0000041D0000000000840-0005  GGSL
TXBWIC21040-53291-40006-60000010D0000015D0000000000840-0006  GGSL
TXBWIC21040-53291-40007-30000001D0000005D0000000000840-0007  GGSL
TXBWIC21040-53291-40091-20000001D0000076D0000100000840-0091  GGSL
TXBWIC21040-53291-41210-60000006D0000054D0000600000840-1210  GGSL
TXBWIC21040-53291-41221-20000006D0000054D0000000000840-1221  GGSL
TXBWIC21040-53291-41234-20000006D0000054D0000000000840-1234  GGSL
TXBWIC21040-53291-41500-80000006D0000093D0000000000840-1500  GGSL
TXBWIC21040-53291-50050-30000004D0000130D0000800000850-0050  GGSL
TXBWIC21040-53291-55981-80000408D0001508D0021600084820-0188  GGSL
TXBWIC21040-66498-01115-70000695D0013991D000240000501115.0   GGSL
TXBWIC21040-66498-02115-60002823D0038881D000830055402775.0   GGSL
TXBWIC21040-66498-02185-90000021D0000321D004800012002185     GGSL
TXBWIC21040-66498-02330-90000030D0000424D00000001506649802330GGSL
TXBWIC21040-66498-03175-90000028D0000387D000030000003175     GGSL
TXBWIC21040-66498-04175-80000300D0002883D000000000304175.0   GGSL
TXBWIC21040-66498-05113-90000700D0004365D000050002405175.0   GGSL
TXBWIC21040-66498-08781-30000207D0001518D00003000009781      GGSL
TXBWIC21040-66498-09776-20000021D0000257D001230000009776     GGSL
TXBWIC21040-66498-09782-30000485D0004471D000000003509782.0   GGSL
TXBWIC21040-66498-09795-30000225D0001834D000000000009795     GGSL
TXBWIC21040-66498-09901-80006380D0040786D017730034209901.0   GGSL
TXBWIC21040-66498-09902-50007971D0078782D019990036109902.0   GGSL
TXBWIC21040-66498-09903-20004889D0068627D013550035609903.0   GGSL
TXBWIC21040-66498-09925-40000588D0002162D003900004209925     GGSL
TXBWIC21040-66498-09929-20000163D0000731D003740000009929     GGSL
TXBWIC21040-66498-09937-70002940D0007736D013320093609937     GGSL
TXBWIC21040-66498-09939-10000020D0000182D000000000509939     GGSL
TXBWIC21040-66498-09947-60000384D0000978D003340034809947     GGSL
TXBWIC21040-66498-09950-50002406D0011608D023340075009955     GGSL
TXBWIC21040-66498-09965-00001482D0008997D011040049809965     GGSL
TXBWIC21040-66498-09977-30000312D0001758D004680001209977     GGSL
TXBWIC21040-66498-09985-80000522D0001979D002640043809985     GGSL
TXBWIC21040-66498-89905-20001968D0007473D034640037809905     GGSL
TXBWIC21040-66498-99827-40001692D0006728D015240056409827     GGSL
TXBWIC21040-70183-50005-50000716D0019374D00360000045000510   GGSL
TXBWIC21040-70183-50006-20000390D0013994D00234000185000610   GGSL
TXBWIC21040-70183-50023-90000091D0002351D00312000065002306   GGSL
TXBWIC21040-70183-50026-00000924D0010698D00988000045002610   GGSL
TXBWIC21040-70183-50027-70000378D0001701D00564000005002715   GGSL
TXBWIC21040-70183-50029-10000068D0000860D00204000005007410   GGSL
TXBWIC21040-70183-50034-50003321D0013379D03174000485003470   GGSL
TXBWIC21040-70183-50038-30000468D0005732D00276000005003810   GGSL
TXBWIC21040-70183-50042-00000038D0003486D00057000005004215   GGSL
TXBWIC21040-70183-50055-00002592D0029009D01188000725005510   GGSL
TXBWIC21040-70183-50060-40000909D0030795D00231000005006010   GGSL
TXBWIC21040-70183-50085-70000018D0001038D00000000005008510   GGSL
TXBWIC21040-70183-51001-60000828D0014914D01304000125100114   GGSL
TXBWIC21040-70183-51006-10000747D0068898D00924000365100610   GGSL
TXBWIC21040-70183-51007-80000522D0020029D00600000005100710   GGSL
TXBWIC21040-70183-51009-20000120D0001633D00268000005004010   GGSL
TXBWIC21040-70183-51019-10000096D0002113D00284000005101910   GGSL
TXBWIC21040-70183-51073-30000102D0000519D00540000005107315   GGSL
TXBWIC21040-70183-51090-00000701D0013531D00641000445109010   GGSL
TXBWIC21040-70183-52005-30000024D0000551D00116000005200510   GGSL
TXBWIC21040-70183-52039-80000400D0008719D00236000045203910   GGSL
TXBWIC21040-70183-52350-40000004D0000109D00056000005235010   GGSL
TXBWIC21040-70183-57050-80000186D0005598D00270000065705010   GGSL
TXBWIC21040-70183-57080-50000012D0000188D00008000005708010   GGSL
TXBWIC21040-70183-57250-20000400D0008487D00292000005725070   GGSL
TXBWIC21040-70251-65240-20000019D0000529D0002700000652400    GGSL
TXBWIC21040-70251-75546-20000051D0000353D0005100000755460    GGSL
TXBWIC21040-70251-76116-60000198D0002278D0041700012761160    GGSL
TXBWIC21040-70251-79140-80000012D0000088D0000000000791400    GGSL
TXBWIC21040-70251-79160-60000267D0002925D0015900084791600    GGSL
TXBWIC21040-70251-81182-30000039D0000466D00153000008111082   GGSL
TXBWIC21040-70251-81482-40001080D0006649D02049000248141082   GGSL
TXBWIC21040-70251-82746-60000084D0000832D00078000008274600   GGSL
TXBWIC21040-70686-25412-70000016C0000832C000000000084818     GGSL
TXBWIC21040-70805-00000-00000120D0001777D0000000000SH1HORANEYGGSL
TXBWIC21040-70805-51001-10001480D0003564D027800010070805-010-GGSL
TXBWIC21040-70805-51002-80001070D0004601D012250009070805-005-GGSL
TXBWIC21040-70805-51013-40003312D0045594D0268100112BD02      GGSL
TXBWIC21040-70805-51024-00000144D0000487D004200003670805-006-GGSL
TXBWIC21040-70805-51025-70003787D0042867D066460057470805-001-GGSL
TXBWIC21040-70805-51026-40000462D0001451D005100001870805-006-GGSL
TXBWIC21040-70805-51033-20000368D0004965D011530000870805-001-GGSL
TXBWIC21040-70805-51034-90000383D0009933D009730001470805-001-GGSL
TXBWIC21040-70805-51037-00000039D0000417D001970000070805-001-GGSL
TXBWIC21040-70805-51038-70000106D0002266D002400000570805-001-GGSL
TXBWIC21040-70805-51051-60000320D0001998D003520001670805-008-GGSL
TXBWIC21040-70805-53003-30002838D0021643D0378200195BD021     GGSL
TXBWIC21040-70805-62025-30007732D0163570D086690015170805-001-GGSL
TXBWIC21040-70805-84052-10000036D0001084D0018300017KERNEL_M-0GGSL
TXBWIC21040-70805-84053-80000136D0002878D005180001870805-001-GGSL
TXBWIC21040-70805-84054-50000193D0003019D007250000170805-001-GGSL
TXBWIC21040-70805-84075-00000629D0018114D022540000970805-001-GGSL
TXBWIC21040-70805-84076-70000185D0010694D004260000470805-001-GGSL
TXBWIC21040-70805-84077-40000078D0004428D0007500000KERNEL_M-0GGSL
TXBWIC21040-70805-84079-80000172D0007046D007180000970805-001-GGSL
TXBWIC21040-70805-84093-40000036D0001763D0014700002PEANUTSPL-GGSL
TXBWIC21040-70923-00000-00000048D0000218D0066700006600.0     GGSL
TXBWIC21040-70923-00196-50000312D0000617D0151200024T100-12   GGSL
TXBWIC21040-70923-00300-60000409D0002046D0290400125T300FD    GGSL
TXBWIC21040-70923-00402-70000090D0000268D0006000012T401-6    GGSL
TXBWIC21040-70923-00912-10000033D0000183D0009300000T901-6    GGSL
TXBWIC21040-70923-02301-10000066D0000207D0006600000T2302-6   GGSL
TXBWIC21040-70923-02900-60000196D0000969D0022400016T2900     GGSL
TXBWIC21040-70923-08515-60000048D0000078D0016800456T3206     GGSL
TXBWIC21040-70923-11915-80000003D0000621D0000000000T2502-DS  GGSL
TXBWIC21040-70923-12117-50000003D0000065D0000700000T300-NT   GGSL
TXBWIC21040-70923-12277-60000087D0000458D0004500006T1812     GGSL
TXBWIC21040-70923-29432-90000012D0000107D0012000000T514      GGSL
TXBWIC21040-70923-64051-50000024D0000228D0000000006T702      GGSL
TXBWIC21040-70923-66431-30000090D0001110D0000000000T1240     GGSL
TXBWIC21040-70923-69500-30000001D0000037D0003500000T2512     GGSL
TXBWIC21040-71092-32500-80000216D0000986D0186600054T2506     GGSL
TXBWIC21040-71121-04460- 0000006D0000059D0001200006HG-61067  GGSL
TXBWIC21040-71121-05580-40000288D0002261D00924000005580      GGSL
TXBWIC21040-71121-53940-30000024D0000192D0000000004HG-53944  GGSL
TXBWIC21040-71121-55829-90000060D0000597D0000000000hg-55829  GGSL
TXBWIC21040-71121-61067-60000003D0001670D0000000000HG-861067 GGSL
TXBWIC21040-71121-95675-00000012D0000045D0013200000HG-30110  GGSL
TXBWIC21040-71121-95704-70000012D0000068D0007800000HG-95704  GGSL
TXBWIC21040-71121-96281-20000132D0000614D0099600120HG-96281  GGSL
TXBWIC21040-71549-00000-00000066D0050102D0000000000895422MP82GGSL
TXBWIC21040-71549-01128-40000120D0000351D00368000000112812   GGSL
TXBWIC21040-71549-01129-10000403D0001863D00560000000112912   GGSL
TXBWIC21040-71549-01656-20000036D0000242D00381000000165610   GGSL
TXBWIC21040-71549-01666-10000018D0000215D00072000060166610   GGSL
TXBWIC21040-71549-01674-60000042D0000263D00084000000167442   GGSL
TXBWIC21040-71549-01738-50000108D0000863D00360000060173810   GGSL
TXBWIC21040-71549-01748-40000114D0000903D00231000120174810   GGSL
TXBWIC21040-71549-01936-50000246D0001521D00045000000193610   GGSL
TXBWIC21040-71549-02000-20000144D0002326D00148000120200010   GGSL
TXBWIC21040-71549-02003-30000304D0004952D00224000480200310   GGSL
TXBWIC21040-71549-02014-90000096D0000555D00336000000201405   GGSL
TXBWIC21040-71549-02022-40000224D0000675D00136000000202212   GGSL
TXBWIC21040-71549-02028-60000040D0000126D00016000000202812   GGSL
TXBWIC21040-71549-02029-30000054D0000203D00018000000202912   GGSL
TXBWIC21040-71549-02030-90000006D0000057D00024000000203012   GGSL
TXBWIC21040-71549-02044-60000140D0001047D00120000280204410   GGSL
TXBWIC21040-71549-02045-30000008D0000138D00160000000204510   GGSL
TXBWIC21040-71549-02047-70000444D0002491D00888000120204710   GGSL
TXBWIC21040-71549-02048-40000012D0000303D00000000080204810   GGSL
TXBWIC21040-71549-02049-10000720D0004737D00624000120204910   GGSL
TXBWIC21040-71549-02054-50000024D0000132D00040000000205408   GGSL
TXBWIC21040-71549-02055-20001080D0002376D01494000360205506   GGSL
TXBWIC21040-71549-02127-60000024D0000294D00052000000212710   GGSL
TXBWIC21040-71549-02208-20000560D0004692D00896000040220810   GGSL
TXBWIC21040-71549-02219-80000056D0000393D00024000000221910   GGSL
TXBWIC21040-71549-02756-80000104D0000285D00288000000275612   GGSL
TXBWIC21040-71549-02822-00001582D0015559D02217006000282210   GGSL
TXBWIC21040-71549-03390-30000012D0000172D00018000000339010   GGSL
TXBWIC21040-71549-03455-90000006D0000029D00018000060345510   GGSL
TXBWIC21040-71549-03456-60000144D0000597D00204001800345610   GGSL
TXBWIC21040-71549-03964-60000096D0000619D00060000000396410   GGSL
TXBWIC21040-71549-03987-50000042D0000491D00009000000398710   GGSL
TXBWIC21040-71549-04253-00001444D0008919D00680000040425310   GGSL
TXBWIC21040-71549-04256-10000004D0001222D00000000010425610   GGSL
TXBWIC21040-71549-04318-60000228D0000982D00640000069994318   GGSL
TXBWIC21040-71549-04378-00000090D0000794D00498000000437806   GGSL
TXBWIC21040-71549-04380-30000080D0000337D00408000160438006   GGSL
TXBWIC21040-71549-04385-80000515D0002332D01413003360438580   GGSL
TXBWIC21040-71549-04465-70000016D0000200D00020000000446505   GGSL
TXBWIC21040-71549-04475-60000056D0000851D00076000120447505   GGSL
TXBWIC21040-71549-04476-30000004D0000037D00000000000447605   GGSL
TXBWIC21040-71549-04477-00000144D0000649D00078000060447705   GGSL
TXBWIC21040-71549-04478-70000876D0007527D00480000360447805   GGSL
TXBWIC21040-71549-04479-40000252D0002039D00948000360447905   GGSL
TXBWIC21040-71549-04481-70000140D0001222D00088000120448105   GGSL
TXBWIC21040-71549-04486-20000480D0003619D00006000120448605   GGSL
TXBWIC21040-71549-04487-90000084D0000592D00006000000448705   GGSL
TXBWIC21040-71549-04488-60000040D0000566D00068000080448805   GGSL
TXBWIC21040-71549-04489-30000020D0000180D00000000000448905   GGSL
TXBWIC21040-71549-04491-60000444D0004003D00360000120449105   GGSL
TXBWIC21040-71549-04493-00000056D0000504D00048000120449305   GGSL
TXBWIC21040-71549-04494-70000360D0002990D00492000000449405   GGSL
TXBWIC21040-71549-04495-40000030D0000143D00144000000449505   GGSL
TXBWIC21040-71549-04613-20000216D0001489D00228000120461412   GGSL
TXBWIC21040-71549-04615-60000008D0000211D00000000000461504   GGSL
TXBWIC21040-71549-04616-30000012D0000066D00348000000461612   GGSL
TXBWIC21040-71549-04620-00000012D0000060D00000000000462012   GGSL
TXBWIC21040-71549-04621-70000012D0000043D00000000000462112   GGSL
TXBWIC21040-71549-04657-60000020D0000170D00150000000465705   GGSL
TXBWIC21040-71549-04745-00000153D0001037D00397000000474510   GGSL
TXBWIC21040-71549-04755-90000012D0000106D00000000000475510   GGSL
TXBWIC21040-71549-04757-30000052D0000780D00128000000475705   GGSL
TXBWIC21040-71549-04758-00000017D0000405D00031000000475805   GGSL
TXBWIC21040-71549-04759-70000025D0001671D00010000000475905   GGSL
TXBWIC21040-71549-04910-20000054D0000194D00102000180491010   GGSL
TXBWIC21040-71549-07472-20000066D0000242D00048000300747210   GGSL
TXBWIC21040-71549-08410-30000702D0006369D01014002400841010   GGSL
TXBWIC21040-71549-43331-40000984D0005708D01224000000433310   GGSL
TXBWIC21040-71549-43361-10000508D0008455D00512000200433610   GGSL
TXBWIC21040-71549-43371-00000006D0000183D00258000220433710   GGSL
TXBWIC21040-71549-43701-50000076D0001660D00376000000437010   GGSL
TXBWIC21040-71549-43887-60000396D0001319D00336000364388710   GGSL
TXBWIC21040-71549-44551-50000020D0000306D00012000000445510   GGSL
TXBWIC21040-71549-46008-20000044D0000659D00208000164600810   GGSL
TXBWIC21040-71549-46025-90000078D0000402D00516000064602510   GGSL
TXBWIC21040-71549-46026-60000004D0000039D00000000004602610   GGSL
TXBWIC21040-71549-46132-40000220D0003043D00504000004613264   GGSL
TXBWIC21040-71549-46134-80000024D0000108D00132000004613406   GGSL
TXBWIC21040-71549-46139-30000004D0000049D00016000004613905   GGSL
TXBWIC21040-71549-46503-20000024D0000403D00546000004650306   GGSL
TXBWIC21040-71549-46510-00000402D0005595D00186000004651005   GGSL
TXBWIC21040-71549-46527-80000364D0006441D00168000004652705   GGSL
TXBWIC21040-71549-46530-80000006D0000030D00120000004653005   GGSL
TXBWIC21040-71549-99008-40000003D0000073D00441002769900810   GGSL
TXBWIC21040-71549-99019-00000060D0000680D00213000489901910   GGSL
TXBWIC21040-71693-00000-00000003D0001950D000000000002-P1000V GGSL
TXBWIC21040-71693-02100-90000001D0000700D000000000002-P1000  GGSL
TXBWIC21040-71693-02101-60000008D0005200D000000000002-P1000S GGSL
TXBWIC21040-71693-02104-70000001D0000650D000000000002-P1000VSGGSL
TXBWIC21040-71693-02115-30000001D0000163D000000000002-HB250  GGSL
TXBWIC21040-71693-02250-10000001D0000163D000000000002-PW250  GGSL
TXBWIC21040-71693-02251-80000002D0000326D000000000002-BF250  GGSL
TXBWIC21040-71693-02252-50000002D0000326D000000000002-CH250  GGSL
TXBWIC21040-71693-04110-60000002D0000610D000000000004-LG1100 GGSL
TXBWIC21040-71693-04111-30000005D0001540D000000000004-LG1100SGGSL
TXBWIC21040-71693-04112-00000001D0000308D000000000004-LG1100FGGSL
TXBWIC21040-71693-04113-70000001D0000308D000000000004-LG1100VGGSL
TXBWIC21040-71693-04114-40000007D0002124D000000000004-LG1100VGGSL
TXBWIC21040-71693-04150-20000002D0000818D000000000004-LG1500 GGSL
TXBWIC21040-71693-04151-90000001D0000420D000000000004-LG1500SGGSL
TXBWIC21040-71693-04153-30000001D0000420D000000000004-LG1500VGGSL
TXBWIC21040-71693-04750-40000001D0000210D000000000004-LG750  GGSL
TXBWIC21040-71693-04752-80000001D0000210D000000000004-LG750F GGSL
TXBWIC21040-71693-04753-50000001D0000210D000000000004-LG750V GGSL
TXBWIC21040-71693-04754-20000005D0001050D000000000004-LG750VSGGSL
TXBWIC21040-71693-92209-20000001D0000500D000000000002-ORV500 GGSL
TXBWIC21040-71693-92602-10000004D0001040D000000000002-PN250  GGSL
TXBWIC21040-71693-98201-00000001D0000990D000000000002-UB880  GGSL
TXBWIC21040-71693-98601-80000001D0000293D000000000002-PHH450 GGSL
TXBWIC21040-71693-98701-50000011D0003223D000000000002-PAO450 GGSL
TXBWIC21040-71693-98801-20000002D0001012D000000000002-UB450  GGSL
TXBWIC21040-71898-43163-40000694D0015347D00637000727800      GGSL
TXBWIC21040-71898-43180-10000554D0009563D00093000007450      GGSL
TXBWIC21040-71898-43213-60000702D0015432D00613000457324      GGSL
TXBWIC21040-71898-43214-30000346D0006758D00463000327326      GGSL
TXBWIC21040-71898-43215-00000035D0000590D000000000032150     GGSL
TXBWIC21040-72525-00003-00000159D0000534D0069600024HRT-6     GGSL
TXBWIC21040-72525-00005-40000237D0001173D0048300012HRP-16    GGSL
TXBWIC21040-72525-00009-20000012D0000086D0000000012HSG-6     GGSL
TXBWIC21040-72525-00022-10000084D0000633D0025200012HBB-32    GGSL
TXBWIC21040-72525-00048-10000024D0000100D0014400012HDE-8     GGSL
TXBWIC21040-72525-00055-90000060D0000413D0022800000EGG-16    GGSL
TXBWIC21040-72532-00014-80001605D0011750D0176100624          GGSL
TXBWIC21040-72532-00015-50000736D0017301D0051400198          GGSL
TXBWIC21040-72532-00016-20000165D0006826D0018100012          GGSL
TXBWIC21040-72532-00017-90000287D0032023D0011800012          GGSL
TXBWIC21040-72532-22310-30000130D0000892D0044000090stspray-10GGSL
TXBWIC21040-72693-00014-80000098D0001030D003100010882770001  GGSL
TXBWIC21040-72693-00015-50000115D0007728D003610058082100001  GGSL
TXBWIC21040-72693-00022-30000023D0005083D002040001183000002  GGSL
TXBWIC21040-72693-00029-20000012D0003752D000340000482100002  GGSL
TXBWIC21040-72693-00032-20000006D0000192D000340000382100006  GGSL
TXBWIC21040-72693-00046-90000173D0008491D00844000124985      GGSL
TXBWIC21040-72693-00065-00000024D0000240D000000001282770006  GGSL
TXBWIC21040-72693-00210-40000125D0011186D000740000082690021  GGSL
TXBWIC21040-72693-00332-30000038D0000399D001760000082300330  GGSL
TXBWIC21040-72693-00368-20000001D0000051D000300000082690036  GGSL
TXBWIC21040-72693-00480-10000646D0054272D012560007282002490  GGSL
TXBWIC21040-72693-00498-60000440D0018708D013280002082002489  GGSL
TXBWIC21040-72693-00505-10000696D0010651D025980010282002488  GGSL
TXBWIC21040-72693-00993-60000012D0000334D000230000082100099  GGSL
TXBWIC21040-72693-01004-80000032D0001466D001560000682100100  GGSL
TXBWIC21040-72693-01020-80000037D0007967D001330002583014144  GGSL
TXBWIC21040-72693-02475-50000233D0006050D00591000002475      GGSL
TXBWIC21040-72693-02478-60000053D0009059D00073000002478      GGSL
TXBWIC21040-72693-02479-30000698D0003549D0341100182CSI2479   GGSL
TXBWIC21040-72693-02504-20000129D0001541D00579001652504.0    GGSL
TXBWIC21040-72693-02506-60003191D0050648D03286006102506.0    GGSL
TXBWIC21040-72693-02507-30000213D0035086D00507000522507.0    GGSL
TXBWIC21040-72693-02686-50000238D0007009D0088700090CSI2686   GGSL
TXBWIC21040-72693-02750-30000022D0000877D0011300000CSI2750   GGSL
TXBWIC21040-72693-03143-20000030D0000267D005100000082300314  GGSL
TXBWIC21040-72693-03154-80000072D0000813D011100000682300315  GGSL
TXBWIC21040-72693-03164-70000005D0000039D000630000082300316  GGSL
TXBWIC21040-72693-03174-60000012D0000130D000780000082300317  GGSL
TXBWIC21040-72693-03194-40000023D0000686D000840001282300319  GGSL
TXBWIC21040-72693-03254-50000197D0009078D0076500006CSI3254   GGSL
TXBWIC21040-72693-03265-10000002D0000100D001080000082300326  GGSL
TXBWIC21040-72693-03284-20000024D0000197D001080000082300328  GGSL
TXBWIC21040-72693-03298-90000321D0023434D003490003682300329  GGSL
TXBWIC21040-72693-03395-50000003D0000581D000190000182300339  GGSL
TXBWIC21040-72693-03598-00004344D0150467D0469101812CSI3598   GGSL
TXBWIC21040-72693-03599-70001578D0149910D034260087982003599  GGSL
TXBWIC21040-72693-04320-60004024D0146023D05871007404320      GGSL
TXBWIC21040-72693-04430-20000900D0014679D03291005914430.0    GGSL
TXBWIC21040-72693-04431-90000980D0021573D02402002164431.0    GGSL
TXBWIC21040-72693-04432-60003204D0091434D06062011074432      GGSL
TXBWIC21040-72693-04435-70003921D0139290D090390023482004435  GGSL
TXBWIC21040-72693-04438-80005094D0074649D13426015374438      GGSL
TXBWIC21040-72693-04491-30000255D0001889D00735000124491      GGSL
TXBWIC21040-72693-04493-70000240D0004542D00986000004493      GGSL
TXBWIC21040-72693-04500-20000019D0001140D000420001882304500  GGSL
TXBWIC21040-72693-04504-00000457D0012414D01332000144505.0    GGSL
TXBWIC21040-72693-04505-70000971D0069838D03114001254506.0    GGSL
TXBWIC21040-72693-04506-40000429D0007127D01880000124504      GGSL
TXBWIC21040-72693-04508-80000146D0001568D02227000004508      GGSL
TXBWIC21040-72693-04515-60000004D0000199D00076000004515.0    GGSL
TXBWIC21040-72693-04964-20018220D0269058D4544002688MT10002KITGGSL
TXBWIC21040-72693-05004-40000456D0002415D02616000125004      GGSL
TXBWIC21040-72693-05005-10000558D0007324D04176000185005      GGSL
TXBWIC21040-72693-05007-50000390D0010563D00815000685007.0    GGSL
TXBWIC21040-72693-05200-00000212D0002209D013040001630466.0   GGSL
TXBWIC21040-72693-05201-70000456D0002465D02652000605201      GGSL
TXBWIC21040-72693-05202-40000408D0005330D02016000425202      GGSL
TXBWIC21040-72693-06002-90001086D0011863D0404400114MART4318  GGSL
TXBWIC21040-72693-06003-60000788D0018836D0186400300MART4319  GGSL
TXBWIC21040-72693-08300-40001241D0055092D03169001528300.0    GGSL
TXBWIC21040-72693-10002-20000009D0000112D000150000010002.0   GGSL
TXBWIC21040-72693-10011-40000300D0002124D0186000000MART4317  GGSL
TXBWIC21040-72693-10012-10000079D0001323D000650000482210011  GGSL
TXBWIC21040-72693-10013-80000162D0001109D002880000682210012  GGSL
TXBWIC21040-72693-10015-20000006D0000056D001920000082210015  GGSL
TXBWIC21040-72693-10116-60000091D0000739D008760000082210016  GGSL
TXBWIC21040-72693-10221-70000016D0000442D002200000082210022  GGSL
TXBWIC21040-72693-10231-60000054D0000472D003840000082210023  GGSL
TXBWIC21040-72693-14057-80000426D0029820D007540003083014005  GGSL
TXBWIC21040-72693-14081-30000008D0000424D000040000883014008  GGSL
TXBWIC21040-72693-24010-00000057D0001500D00313000002401      GGSL
TXBWIC21040-72693-24030-80000413D0030541D01262001092403      GGSL
TXBWIC21040-72693-24033-90000006D0000270D000000000083014004  GGSL
TXBWIC21040-72693-24925-70000093D0003893D001950007882002492  GGSL
TXBWIC21040-72693-24957-80000257D0001437D005590008482002495  GGSL
TXBWIC21040-72693-29101-00000149D0008195D002350003483012910  GGSL
TXBWIC21040-72693-29912-20001296D0015312D0166300503QP12991   GGSL
TXBWIC21040-72693-31550-10000002D0000330D000830000182300332  GGSL
TXBWIC21040-72693-31766-60000118D0001662D006860000031766     GGSL
TXBWIC21040-72693-31973-80000089D0002196D005170002531973.0   GGSL
TXBWIC21040-72693-31975-20000019D0001285D003370000031975.0   GGSL
TXBWIC21040-72693-31984-40000426D0004984D032230018031984.0   GGSL
