NJARET2106 -04797-70080-50000012D0000277D0000200000NA32431   GGSL
NJARET21060-10052-00333-10000012D0000052D000030000300333     GGSL
NJARET21060-10367-00110-70000012D0000079D00000000000110      GGSL
NJARET21060-10367-00430-60000001D0000088D00000000000430      GGSL
NJARET21060-10367-00460-30000048D0000230D000120000004608     GGSL
NJARET21060-10367-00470-20000048D0000588D00009000010470      GGSL
NJARET21060-10367-00560-00000200D0000734D000000000005608     GGSL
NJARET21060-10367-01000-00000024D0000333D00000000001000      GGSL
NJARET21060-10367-01010-90000012D0000191D00000000001010      GGSL
NJARET21060-10367-01020-80000012D0000207D00001000011020      GGSL
NJARET21060-10367-01110-60000024D0000079D00090000021110      GGSL
NJARET21060-10367-01111-30000112D0000370D00049000021111      GGSL
NJARET21060-10367-01112-00000064D0000220D00094000001112      GGSL
NJARET21060-10367-01120-50000312D0000899D00100000031120      GGSL
NJARET21060-10367-01122-90000128D0000753D00000000001122      GGSL
NJARET21060-10367-01130-40000312D0001688D00055000081130      GGSL
NJARET21060-10367-01151-90000024D0000081D00000000001151      GGSL
NJARET21060-10367-01160-10000128D0001001D00038000001160      GGSL
NJARET21060-10367-01161-80000096D0000751D00008000011161      GGSL
NJARET21060-10367-01162-50000096D0000751D00001000001162      GGSL
NJARET21060-10367-01240-00000024D0000142D00000000001240      GGSL
NJARET21060-10367-02121-10000008D0000038D0000200000ML2121    GGSL
NJARET21060-10367-02151-80000008D0000060D0002100000ML2151    GGSL
NJARET21060-10367-02162-40000008D0000055D0000200000ML2162    GGSL
NJARET21060-10367-02163-10000072D0000491D0000000000ML2163    GGSL
NJARET21060-10367-02181-50000032D0000218D0000200000ML2181    GGSL
NJARET21060-10367-03010-70000064D0000378D0001200000ML3010    GGSL
NJARET21060-11423-00338-70000096D0000557D000060000033801     GGSL
NJARET21060-11423-00402-50000006D0000031D0000600000HG402000  GGSL
NJARET21060-11423-94108-50000006D0000070D0000300000HG94108   GGSL
NJARET21060-11423-94127-60000024D0000125D0001600000HG64127   GGSL
NJARET21060-11423-94239-60000060D0000337D0000900000HG64138   GGSL
NJARET21060-12587-60035-10000004D0000035D001450000060035     GGSL
NJARET21060-14306-92177-80000003D0000097D0000100000US395116  GGSL
NJARET21060-14306-92845-60000010D0000188D0000300000US295702  GGSL
NJARET21060-14306-92848-70000003D0000097D0000000000US395700  GGSL
NJARET21060-14400-10813-60000012D0000052D00000000001440010813GGSL
NJARET21060-14400-16011-00000030D0000395D00003000001440016011GGSL
NJARET21060-14400-21411-00000300D0002484D00050000001440021411GGSL
NJARET21060-14400-24100-00000012D0000050D000000000024100     GGSL
NJARET21060-14400-40000-10000084D0000586D000110001140000ZFP  GGSL
NJARET21060-14400-61000-40000046D0000500D001220002661000     GGSL
NJARET21060-14400-62000-30000015D0000191D000180001862000     GGSL
NJARET21060-14400-62504-60000001D0000013D00000000001440062504GGSL
NJARET21060-14400-65500-50000001D0000012D00000000001440065500GGSL
NJARET21060-14400-66000-90000007D0000087D000060000666000ZFP  GGSL
NJARET21060-14400-69056-30000140D0000868D00055000101440069056GGSL
NJARET21060-14400-71065-00000048D0000194D00006000001440071065GGSL
NJARET21060-14400-71265-40000048D0000205D00000000001440071265GGSL
NJARET21060-14400-71365-10000024D0000097D00009000001440071365GGSL
NJARET21060-14400-71400-90000024D0000071D00006000001440071400GGSL
NJARET21060-14400-81400-60000091D0001178D00076000001440081400GGSL
NJARET21060-15561-20008-00000001D0000023D0000700000PT8       GGSL
NJARET21060-15561-20074-50000006D0000021D0000600000PT74      GGSL
NJARET21060-15561-20811-60000024D0000144D0008100006PT811EA   GGSL
NJARET21060-15561-20813-00000036D0000202D0010200018PT813EA   GGSL
NJARET21060-15561-20910-60000048D0000330D0000100000PT910     GGSL
NJARET21060-15561-20960-10000012D0000010D0000000000PT960     GGSL
NJARET21060-15561-20965-60000012D0000014D0000000000PT965     GGSL
NJARET21060-15561-20968-70000012D0000027D0000000000PT968     GGSL
NJARET21060-15561-21141-30000002D0000072D0000000000PT1141    GGSL
NJARET21060-15561-21744-60000001D0000477D0000800000PT1744    GGSL
NJARET21060-15561-28304-50000001D0000118D0000000000PT8304    GGSL
NJARET21060-16069-00005-90000300D0002158D0003400000TP15C     GGSL
NJARET21060-16069-00007-30000768D0005079D0002400003BN1       GGSL
NJARET21060-16069-00008-00006000D0036280D0006400002BN2       GGSL
NJARET21060-16069-00013-40000216D0005852D0003800001BN3       GGSL
NJARET21060-16069-00014-10000192D0004144D0004400001BN4       GGSL
NJARET21060-16069-00015-80000072D0001940D0002600000BN5       GGSL
NJARET21060-16069-00019-60000156D0001795D0000700000TP30C     GGSL
NJARET21060-16069-00030-10000108D0001362D0000200002OW6       GGSL
NJARET21060-16069-00032-50000108D0001165D0010100001HG25      GGSL
NJARET21060-16069-00033-20000060D0001295D0003200000HG50      GGSL
NJARET21060-16069-00038-70000012D0000089D0000500000GF1015    GGSL
NJARET21060-16069-00047-90000024D0000173D0001700000TE12C     GGSL
NJARET21060-16069-00049-30000222D0004154D0012800003DX7       GGSL
NJARET21060-16069-00050-90000054D0001554D0004800006DX14      GGSL
NJARET21060-16069-00076-90000072D0000466D0005700019PN10      GGSL
NJARET21060-16069-00077-60000060D0000647D0000000000PN14      GGSL
NJARET21060-16069-00079-00000012D0000380D0001600000PN28      GGSL
NJARET21060-16069-00166-70000012D0000238D0000000000TP60      GGSL
NJARET21060-16069-00218-30000204D0001174D0003400001HST100    GGSL
NJARET21060-16069-00306-70000020D0000240D0000400000WS1050    GGSL
NJARET21060-16069-00393-70000384D0001250D0004500002GS20      GGSL
NJARET21060-16069-00393-70000072D0000259D0000200000GS20C     GGSL
NJARET21060-16069-00394-40000002D0000102D0000400000PN45      GGSL
NJARET21060-16069-00401-90000196D0001833D0001600000GF4050    GGSL
NJARET21060-16069-00478-10000024D0000931D0001800001SRHO4     GGSL
NJARET21060-16069-00479-80001568D0029543D0009500018E316B     GGSL
NJARET21060-16069-00494-10000028D0000262D0001400000GFST4050  GGSL
NJARET21060-16069-00498-90000078D0000842D0022100000HGP1012   GGSL
NJARET21060-16069-00499-60000124D0002230D0017100002HGP1020   GGSL
NJARET21060-16069-00518-40000072D0000363D0002400000SG2512    GGSL
NJARET21060-16069-00546-70000016D0000560D0001000000RRBG4     GGSL
NJARET21060-16069-00550-40000020D0000265D0000000000TRWTW     GGSL
NJARET21060-16069-00597-90000018D0000386D0000700000BTK6      GGSL
NJARET21060-16069-00622-80000024D0000096D0002600000CP612     GGSL
NJARET21060-16069-00624-20000096D0000369D0000000000CCT24     GGSL
NJARET21060-16069-00667-90004214D0089675D0046200007RH04US    GGSL
NJARET21060-16500-51020-80000012D0000056D000060000051020     GGSL
NJARET21060-16500-54010-60000024D0000114D000050000054010     GGSL
NJARET21060-16500-98041-40000024D0000027D001380000098041     GGSL
NJARET21060-17500-08120-00000432D0000632D002120000008120     GGSL
NJARET21060-17500-08150-70000888D0001412D006790000008150     GGSL
NJARET21060-17500-08150-70000048D0000067D001220001408150M    GGSL
NJARET21060-17500-90206-20000906D0020079D000130000190206     GGSL
NJARET21060-17500-91316-70000042D0000844D000390001291316     GGSL
NJARET21060-17500-95204-30000012D0000251D000000000095204     GGSL
NJARET21060-18062-00019-70000072D0000320D0000400000PT06MCCS  GGSL
NJARET21060-18222-00101-90000348D0000886D0012600010CS06101   GGSL
NJARET21060-18222-00103-30000204D0000623D0004900001CS06103   GGSL
NJARET21060-18222-00105-70000378D0000992D0017000009CS06105   GGSL
NJARET21060-18222-00107-10000078D0000300D0013100006CS06107   GGSL
NJARET21060-18222-00109-50000378D0000992D0013600005CS06109   GGSL
NJARET21060-18222-00110-10000156D0000462D0005500002CS06110   GGSL
NJARET21060-18222-00206-10000018D0000085D0002300001CS06206   GGSL
NJARET21060-18222-00208-50000012D0000057D0002000001CS06208   GGSL
NJARET21060-18222-00213-90000108D0000448D0001800004CS06213   GGSL
NJARET21060-18222-00249-80000012D0000130D0000000000CS249     GGSL
NJARET21060-18222-00405-80000001D0000013D0001000000CS01405   GGSL
NJARET21060-18222-00501-70000480D0000629D0021700021CS12501   GGSL
NJARET21060-18222-00503-10000204D0000419D0003100000CS503     GGSL
NJARET21060-18222-00505-50000456D0000500D0014700015CS12505   GGSL
NJARET21060-18222-00507-90000516D0000697D0013000003CS12507   GGSL
NJARET21060-18222-00509-30000204D0000336D0018000000CS12509   GGSL
NJARET21060-18222-00513-00000084D0000174D0003000000CS12513   GGSL
NJARET21060-18222-00526-00000444D0001197D0012800006CS06526   GGSL
NJARET21060-18222-00527-70000720D0000922D0011300003CS12527   GGSL
NJARET21060-18222-00529-10000156D0000275D0008700002CS12529   GGSL
NJARET21060-18222-00531-40000252D0000566D0015400002CS12531   GGSL
NJARET21060-18222-00535-20000156D0000206D0007500000CS12535   GGSL
NJARET21060-18222-00543-70000120D0000165D0008400003CS12543   GGSL
NJARET21060-18222-00545-10000060D0000106D0004600000CS12545   GGSL
NJARET21060-18222-00553-60000864D0001460D0044400327CS12553   GGSL
NJARET21060-18222-00559-80000324D0000410D0010700001CS12559   GGSL
NJARET21060-18222-00561-10000144D0000190D0005300000CS12561   GGSL
NJARET21060-18222-00563-50000408D0000691D0004100003CS12563   GGSL
NJARET21060-18222-00565-90000072D0000126D0002400000CS12565   GGSL
NJARET21060-18222-00569-70000648D0001107D0017400001CS12569   GGSL
NJARET21060-18222-00571-00000168D0000352D0006400002CS12571   GGSL
NJARET21060-18222-00583-30000312D0000653D0010300002CS12583   GGSL
NJARET21060-18222-00608-30000024D0000063D0003100001CS608     GGSL
NJARET21060-18222-00701-10000312D0000538D0006300013CS701     GGSL
NJARET21060-18222-00707-30000048D0000149D0003100001CS707     GGSL
NJARET21060-18222-00709-70000006D0000029D0000200000CS709     GGSL
NJARET21060-18222-00727-10000018D0000122D0000700000CS727     GGSL
NJARET21060-18222-00730-10000664D0001280D0019600004CS730     GGSL
NJARET21060-18222-00749-30000036D0000201D0000600002CS749     GGSL
NJARET21060-18222-00750-90000004D0000041D0000100000CS750     GGSL
NJARET21060-18222-00753-00000072D0000370D0001400001CS753     GGSL
NJARET21060-18222-00755-40000008D0000027D0000000000CS755     GGSL
NJARET21060-18222-00954-10000008D0000043D0000300000CS08954   GGSL
NJARET21060-18222-50501-20000060D0000066D0019300000CS1250501XGGSL
NJARET21060-18222-50527-20000084D0000092D0019200000CS1250527XGGSL
NJARET21060-18222-50559-30000084D0000092D0018500000CS1250559XGGSL
NJARET21060-18506-00018-90000018D0000131D00003000000186      GGSL
NJARET21060-18506-00028-80000018D0000199D00006000000286      GGSL
NJARET21060-18506-00029-50000006D0000072D00005000000296      GGSL
NJARET21060-18506-00102-50000168D0000725D000410000310212     GGSL
NJARET21060-18506-00102-50000072D0000298D000000000010224     GGSL
NJARET21060-18506-00110-00000384D0002643D001280000011012     GGSL
NJARET21060-18506-00114-80000012D0000105D000040000011412     GGSL
NJARET21060-18506-00116-20000528D0003594D000220000211612     GGSL
NJARET21060-18506-00117-90000186D0001686D00016000001176      GGSL
NJARET21060-18506-00118-60000006D0000049D00006000001186      GGSL
NJARET21060-18506-00120-90000004D0000077D00011000001204      GGSL
NJARET21060-18506-00121-60000012D0000115D00031000001216      GGSL
NJARET21060-18506-00122-30000144D0000794D0000600000122       GGSL
NJARET21060-18506-00123-00000168D0000926D0001300000123       GGSL
NJARET21060-18506-00125-40000048D0000241D0002400000125       GGSL
NJARET21060-18506-00130-80000060D0000334D0001500000130       GGSL
NJARET21060-18506-00135-30000006D0000088D0001100000135       GGSL
NJARET21060-18506-02000-20000018D0000127D00001000002000      GGSL
NJARET21060-18506-02001-90000018D0000206D00028000002001      GGSL
NJARET21060-19200-00095-60000036D0000080D002160000000027     GGSL
NJARET21060-19200-00619-40000048D0000171D013350000000706     GGSL
NJARET21060-19200-05432-40000030D0000125D000610000175057     GGSL
NJARET21060-19200-78033-90000006D0000025D00152000001920078033GGSL
NJARET21060-19200-78626-30000270D0000659D003160000078626     GGSL
NJARET21060-19200-78914-10000156D0000435D002110000078914     GGSL
NJARET21060-19200-79838-90000048D0000213D001630000079838     GGSL
NJARET21060-19200-80078-50000018D0000073D000410000080078     GGSL
NJARET21060-19200-82043-10000664D0001660D000010000182043     GGSL
NJARET21060-19200-83262-50000012D0000042D00111000001920082362GGSL
NJARET21060-19200-98342-60000222D0000955D000140000099427     GGSL
NJARET21060-19200-98665-60000016D0000071D000990000098665     GGSL
NJARET21060-19236-29050-50000001D0000341D00000000002905      GGSL
NJARET21060-19263-25010-70000003D0000214D00001000012501      GGSL
NJARET21060-19263-25030-50000009D0001208D00006000022503      GGSL
NJARET21060-19263-25035-00000064D0001950D0004400001250350    GGSL
NJARET21060-19263-25040-40000005D0000695D00001000012504      GGSL
NJARET21060-19263-25042-80000001D0000170D0000000000250425    GGSL
NJARET21060-19263-25045-90000068D0002765D0001600004250450    GGSL
NJARET21060-19263-25055-80000056D0002829D0000800000250550    GGSL
NJARET21060-19263-25500-30000100D0000117D00000000002550      GGSL
NJARET21060-19263-25510-20001275D0002597D00098000012551      GGSL
NJARET21060-19263-25520-10001950D0004310D00145000042552      GGSL
NJARET21060-19263-25530-00001650D0003870D00103000082553      GGSL
NJARET21060-19263-25540-90002400D0007192D00111000072554      GGSL
NJARET21060-19263-25550-80001850D0007508D00003000002555      GGSL
NJARET21060-19263-25670-30000054D0000756D00038000002567      GGSL
NJARET21060-19263-25680-20000048D0000894D00029000002568      GGSL
NJARET21060-19263-25730-40000004D0000080D00002000002573      GGSL
NJARET21060-19263-25750-20000144D0000946D00014000002575      GGSL
NJARET21060-19263-25760-10000192D0001566D00010000002576      GGSL
NJARET21060-19263-25770-00000297D0003840D00012000012577      GGSL
NJARET21060-19263-25780-90000170D0003947D00033000022578      GGSL
NJARET21060-19263-25950-60000540D0000643D00024000012595      GGSL
NJARET21060-19263-26050-20000500D0000430D00006000002605      GGSL
NJARET21060-19263-26210-00000228D0001934D00097000002621      GGSL
NJARET21060-19263-26260-50000003D0000093D00002000002626      GGSL
NJARET21060-19263-26290-20000001D0000035D00000000002629      GGSL
NJARET21060-19263-26300-80000768D0001824D00051000022630      GGSL
NJARET21060-19263-26310-70001032D0002910D00029000062631      GGSL
NJARET21060-19263-26310-70000576D0001624D00010000002633      GGSL
NJARET21060-19263-26530-90000016D0000058D00000000002653      GGSL
NJARET21060-19263-26560-60000032D0000460D00000000002656      GGSL
NJARET21060-19263-26580-40000176D0002385D00001000002658      GGSL
NJARET21060-19263-29100-10000002D0000329D00000000002910      GGSL
NJARET21060-21344-00321-20000008D0000310D0010200013WX15064   GGSL
NJARET21060-21344-00322-90000036D0001370D0006200000WX15065   GGSL
NJARET21060-21344-00338-00000002D0000574D0006300000400338    GGSL
NJARET21060-21344-00339-70000162D0018216D0031300181400339    GGSL
NJARET21060-21344-00340-30000114D0009504D0041000238400340    GGSL
NJARET21060-21344-00344-10000042D0000320D0001900000400344    GGSL
NJARET21060-21344-00345-80000042D0000253D0006600001400345    GGSL
NJARET21060-21344-00346-50000036D0000240D0006300001400346    GGSL
NJARET21060-21344-00347-20000008D0000122D0002400000400347    GGSL
NJARET21060-21344-00348-90000032D0000511D0006500001400348    GGSL
NJARET21060-21344-00349-60000012D0000187D0013600001400349    GGSL
NJARET21060-21344-00350-20000032D0000454D0009900000400350    GGSL
NJARET21060-21344-00354-00000014D0000687D0000300003HQ73481784GGSL
NJARET21060-21344-00361-80000080D0001963D0000700007HQ74912297GGSL
NJARET21060-21344-00362-50000022D0001535D0016300000HQMUSH    GGSL
NJARET21060-21344-00364-90000002D0000332D0000300000400364    GGSL
NJARET21060-21344-00380-90000020D0000945D0004600001JFG18026  GGSL
NJARET21060-21344-00384-70000004D0000205D0003900000JFG18013  GGSL
NJARET21060-21344-00385-40000108D0002419D0000500001JFG18011A GGSL
NJARET21060-21344-00386-10000060D0002247D0003000003JFG18011B GGSL
NJARET21060-21344-00387-80000024D0000763D0003700006JFG18012  GGSL
NJARET21060-21344-00388-50000216D0000995D0001600000JFG18001  GGSL
NJARET21060-21344-00389-20000070D0000804D0005400000JFG18004  GGSL
NJARET21060-21344-00390-80000024D0000526D0000300000JFG18010A GGSL
NJARET21060-21344-00391-50000040D0001381D0006000000JFG18010B GGSL
NJARET21060-21344-00392-20000192D0001159D0004300001JFG18002  GGSL
NJARET21060-21344-00393-90000084D0002205D0000900002JFG18008A GGSL
NJARET21060-21344-00394-60000156D0003006D0001500002JFG18008ASGGSL
NJARET21060-21344-00395-30000100D0002522D0003800003JFG18006  GGSL
NJARET21060-21344-00396-00000056D0001963D0001000000JFG18016  GGSL
NJARET21060-21344-00397-70000075D0002999D0008500001JFG18018  GGSL
NJARET21060-21344-00403-50000040D0000932D0007700009ZT152072  GGSL
NJARET21060-21344-00404-20000002D0000115D0000500000ZT185020  GGSL
NJARET21060-21344-00405-90000004D0000263D0003100000ZT185019  GGSL
NJARET21060-21344-00407-30000002D0000226D0009900000ZT185016  GGSL
NJARET21060-21344-00408-00000002D0000113D0000300000ZT185026  GGSL
NJARET21060-21344-00409-70000600D0002165D0007900004ZT185018  GGSL
NJARET21060-21344-00411-00000030D0001061D0008200003ZT185021  GGSL
NJARET21060-21344-00413-40000012D0000021D0010500000400413    GGSL
NJARET21060-21344-00415-80000012D0000025D0010500000400415    GGSL
NJARET21060-21344-00416-50000012D0000019D0010200000400416    GGSL
NJARET21060-21344-00417-20000024D0000059D0014300050400417    GGSL
NJARET21060-21344-00418-90000012D0000029D0011000000400418    GGSL
NJARET21060-21344-00420-20000012D0000194D0010700000400420    GGSL
NJARET21060-21344-00421-90000036D0000116D0010800000400421    GGSL
NJARET21060-21344-00422-60000034D0001058D0008100002ZT185023  GGSL
NJARET21060-21344-00423-30000313D0043328D0106200125WX17658   GGSL
NJARET21060-21344-00718-00000042D0000653D0013200000WX17422   GGSL
NJARET21060-21344-00719-70000048D0000967D0011300000WX17413   GGSL
NJARET21060-21344-00720-30000084D0001423D0011800012WX17409   GGSL
NJARET21060-21344-00721-00000268D0005456D0001600016WX17230   GGSL
NJARET21060-21344-00722-70000024D0000460D0011000012WX17401   GGSL
NJARET21060-21344-00723-40000044D0000853D0016600030WX17402   GGSL
NJARET21060-21344-00724-10000001D0000040D0003400000WXRACK20  GGSL
NJARET21060-21344-00725-80000046D0002076D0004500000HQ748416  GGSL
NJARET21060-21344-00726-50000038D0001781D0000000000HQ74843056GGSL
NJARET21060-21344-00727-20000028D0001259D0000500002HQ74842665GGSL
NJARET21060-21344-00728-90000016D0000402D0000400000HQ74912300GGSL
NJARET21060-21344-00729-60000018D0000653D0000500007HQ7348782 GGSL
NJARET21060-21344-00729-60000008D0000000D0001000000TVHQ734878GGSL
NJARET21060-21344-00730-20000004D0000050D0002700000BN19193   GGSL
NJARET21060-21344-00734-00000040D0001300D0005300000WX17725   GGSL
NJARET21060-21344-00735-70000052D0001002D0005900000WX17577RV GGSL
NJARET21060-21344-00736-40000032D0000593D0007100000WX17578RV GGSL
NJARET21060-21344-00739-50000068D0001876D0005500000WX17816   GGSL
NJARET21060-21344-00740-10000040D0001001D0002700000WX17818   GGSL
NJARET21060-21344-00744-90000032D0000787D0002000000WX17819   GGSL
NJARET21060-21344-00745-60000036D0000417D0016300001YS19006   GGSL
NJARET21060-21344-00746-30000108D0001769D0018600004YS19L005  GGSL
NJARET21060-21344-00747-00000112D0001849D0019600002YS19L004  GGSL
NJARET21060-21344-00748-70000080D0001009D0019800002YS19S002  GGSL
NJARET21060-21344-00749-40000096D0001243D0019500002YS19S003  GGSL
NJARET21060-21344-00750-00000144D0001890D0014200002YS19S001  GGSL
NJARET21060-21344-00762-30000010D0001040D0019000009FDBH1901  GGSL
NJARET21060-21344-00765-40000009D0000792D0009500000MG18390   GGSL
NJARET21060-21344-00766-10000003D0000301D00066000024007661   GGSL
NJARET21060-21344-00774-60000014D0000436D0001700017WX17800   GGSL
NJARET21060-21344-00775-30000054D0001979D0003500020WX17802   GGSL
NJARET21060-21344-00779-10000006D0000121D0003200000JFG19058B GGSL
NJARET21060-21344-00780-70000013D0000788D0001800004MG18396RV GGSL
NJARET21060-21344-00781-40000024D0000885D0003200010MG18397RV GGSL
NJARET21060-21344-00785-20000014D0000243D0004600010BN19294   GGSL
NJARET21060-21344-00795-10000004D0000456D0004300000MG18389   GGSL
NJARET21060-21344-00796-80000018D0000058D0002600000SSH1822719GGSL
NJARET21060-21344-00797-50000036D0000101D0005700000SSH1813624GGSL
NJARET21060-21344-00798-20000060D0000272D0001600000SSH1813728GGSL
NJARET21060-21344-00799-90000162D0001208D0003700002HS190061C GGSL
NJARET21060-21344-00800-20000078D0000566D0004400006HS190061B GGSL
NJARET21060-21344-00801-90000204D0001474D0001700006HS190061A GGSL
NJARET21060-21344-00802-60000076D0000643D0003100000HS190058C GGSL
NJARET21060-21344-00803-30000068D0000588D0000500000HS190058B GGSL
NJARET21060-21344-00804-00000068D0000624D0004700000HS190058A GGSL
NJARET21060-21344-00805-70000108D0000957D0001200001HS190056  GGSL
NJARET21060-21344-00806-40000128D0001009D0006400000SSH18A025 GGSL
NJARET21060-21344-00807-10000072D0000917D0004000000SSH18A034 GGSL
NJARET21060-21344-00808-80000168D0000805D0003400000SSH18A024 GGSL
NJARET21060-21344-00813-20000097D0008511D00090000814008132   GGSL
NJARET21060-21344-00819-40000024D0000207D0001800000WX17931   GGSL
NJARET21060-21344-00821-70000048D0000413D0002100000WX17932   GGSL
NJARET21060-21344-00822-40000156D0001353D0000300000WX17930   GGSL
NJARET21060-21344-00824-80000024D0000203D0003800000WX17933   GGSL
NJARET21060-21344-00826-20000024D0000187D0005400000JFG18011AWGGSL
NJARET21060-21344-00827-90000012D0000110D0003200000JFG18008AWGGSL
NJARET21060-21344-00828-60000024D0000156D0004000000JFG18008ACGGSL
NJARET21060-21344-00829-30000008D0000078D0000200000ZT197030  GGSL
NJARET21060-21344-00830-90000012D0000284D0009400000ZT197002  GGSL
NJARET21060-21344-00831-60000032D0000582D0013200001ZT197003  GGSL
NJARET21060-21344-00832-30000006D0000125D0005400000JFG19007B GGSL
NJARET21060-21344-00833-00000006D0000125D0007400000ZT197029  GGSL
NJARET21060-21344-00834-70000003D0000214D0006900000ZT197023RVGGSL
NJARET21060-21344-00837-80000840D0002480D0008400000SK15020B  GGSL
NJARET21060-21344-00838-50000792D0002080D0018300001SK15008E  GGSL
NJARET21060-21344-00839-20000044D0000662D0000900000HS190062  GGSL
NJARET21060-21344-00844-60000054D0000248D0001800000HJAL19011 GGSL
NJARET21060-21344-00846-00000003D0000288D0017500003FDBH1902  GGSL
NJARET21060-21344-01159-00000030D0000205D0005700000BN19294S  GGSL
NJARET21060-21344-01160-60000022D0000395D0005600024BN19296   GGSL
NJARET21060-21344-01161-30000042D0000357D0006800000BN19296S  GGSL
NJARET21060-21344-01162-00000040D0000629D0004500030BN19297   GGSL
NJARET21060-21344-01163-70000036D0000240D0006400000BN19297S  GGSL
NJARET21060-21344-01164-40000034D0000567D0006300030BN19299   GGSL
NJARET21060-21344-01165-10000036D0000240D0006900000BN19299S  GGSL
NJARET21060-21344-01166-80000028D0000485D0006000030BN19300   GGSL
NJARET21060-21344-01167-50000030D0000252D0006600000BN19300S  GGSL
NJARET21060-21344-01168-20000024D0000437D0004700040BN19302   GGSL
NJARET21060-21344-01169-90000006D0000047D0004600000BN19302S  GGSL
NJARET21060-21344-01170-50000011D0001101D0003600012FDBH2001  GGSL
NJARET21060-21344-01171-20000006D0000313D0000200002HQ73482202GGSL
NJARET21060-21344-01172-90000014D0000724D0000400004HQ73482993GGSL
NJARET21060-21344-01173-60000016D0000791D0000800001HQ73483050GGSL
NJARET21060-21344-01174-30000032D0001717D0000700006HQ73483068GGSL
NJARET21060-21344-01175-00000032D0001670D0000100001HQ75752083GGSL
NJARET21060-21344-01176-70000056D0002922D0000300000HQ75752836GGSL
NJARET21060-21344-01177-40000030D0001405D0000300003HQ75752848GGSL
NJARET21060-21344-01178-10000112D0005655D0000900001HQ7575453 GGSL
NJARET21060-21344-01179-80000114D0000952D0001800002HS18MR0461GGSL
NJARET21060-21344-01180-40000096D0001233D0003700007HS18MR0463GGSL
NJARET21060-21344-01184-20000060D0000948D0006300002HS20134   GGSL
NJARET21060-21344-01185-90000066D0000913D0007200002HS20135   GGSL
NJARET21060-21344-01186-60000054D0000696D0006300002HS20136   GGSL
NJARET21060-21344-01187-30000066D0000876D0008900002HS20137   GGSL
NJARET21060-21344-01188-00000036D0000682D0010900000HS20HS0022GGSL
NJARET21060-21344-01189-70000048D0000916D0009800000HS20HS0023GGSL
NJARET21060-21344-01190-30000048D0000611D0011700000HS20HS0024GGSL
NJARET21060-21344-01191-00000052D0000665D0012900000HS20HS0025GGSL
NJARET21060-21344-01192-70000060D0001175D0004200003HS20HS0026GGSL
NJARET21060-21344-01196-50000030D0001014D0029600016MG19632   GGSL
NJARET21060-21344-01197-20000015D0000631D0029000016MG19633   GGSL
NJARET21060-21344-01201-60000168D0000771D0003500001SSH19S094 GGSL
NJARET21060-21344-01202-30000160D0001668D0004500001SSH19S098 GGSL
NJARET21060-21344-01203-00000088D0001553D0002900001SSH19S104 GGSL
NJARET21060-21344-01204-70000060D0001261D0001900000WX13253   GGSL
NJARET21060-21344-01205-40000020D0000421D0002900000WX13254   GGSL
NJARET21060-21344-01206-10000144D0001855D0001000010WX18811   GGSL
NJARET21060-21344-01207-80000084D0001139D0003100012WX18812   GGSL
NJARET21060-21344-01208-50000186D0002512D0000400004WX18813   GGSL
NJARET21060-21344-01209-20000048D0001248D0005000000WX18814   GGSL
NJARET21060-21344-01210-80000100D0002561D0002800000WX18815   GGSL
NJARET21060-21344-01211-50000016D0000396D0004900000WX18816   GGSL
NJARET21060-21344-01212-20000354D0006327D0004500015WX18819   GGSL
NJARET21060-21344-01213-90000330D0005406D0006400021WX18820   GGSL
NJARET21060-21344-01214-60000456D0009439D0010300074WX18821   GGSL
NJARET21060-21344-01215-30000056D0011190D0036900004WX18824   GGSL
NJARET21060-21344-01216-00000058D0007934D0000900009WX18825   GGSL
NJARET21060-21344-01218-40000016D0000228D0001000002WX19198   GGSL
NJARET21060-21344-01219-10000014D0000558D0003400001WX19199   GGSL
NJARET21060-21344-01220-70000010D0000393D0009400000WX19200   GGSL
NJARET21060-21344-01221-40000072D0001369D0008300001WX19201   GGSL
NJARET21060-21344-01222-10000034D0001104D0012100001WX19203   GGSL
NJARET21060-21344-01223-80000034D0001106D0011500000WX19204   GGSL
NJARET21060-21344-01224-50000002D0000056D0010200017WX19205   GGSL
NJARET21060-21344-01225-20000022D0001088D0017600000WX19206   GGSL
NJARET21060-21344-01226-90000056D0000543D0009400000WX19256   GGSL
NJARET21060-21344-01227-60000052D0000500D0007100000WX19257   GGSL
NJARET21060-21344-01229-00000004D0000042D0004500000WX19259   GGSL
NJARET21060-21344-01230-60000020D0000471D0003500000WX19260   GGSL
NJARET21060-21344-01231-30000020D0000471D0004100000WX19261   GGSL
NJARET21060-21344-01233-70000024D0000568D0005600000WX19264   GGSL
NJARET21060-21344-01234-40000008D0000180D0005400000WX19266   GGSL
NJARET21060-21344-01235-10000020D0000504D0005800003WX19267   GGSL
NJARET21060-21344-01237-50000128D0017107D0012600052WX19270   GGSL
NJARET21060-21344-01238-20000024D0001043D0007500000WX8561    GGSL
NJARET21060-21344-01240-50000030D0000402D0004300003WX86808283GGSL
NJARET21060-21344-01241-20000008D0000107D0002200001WX8594    GGSL
NJARET21060-21344-01247-40000016D0000208D0000700000WX8752    GGSL
NJARET21060-21344-01252-80000012D0000290D0008300002ZT207010B GGSL
NJARET21060-21344-01254-20000015D0001115D0013100006ZT207012B GGSL
NJARET21060-21344-01255-90000030D0000571D0011900002ZT207015  GGSL
NJARET21060-21344-01256-60000036D0000752D0011700003ZT207016  GGSL
NJARET21060-21344-01257-30000010D0000153D0009400000ZT207017B GGSL
NJARET21060-21344-01258-00000034D0000552D0008300007ZT207023A GGSL
NJARET21060-21344-01259-70000030D0000460D0010200005ZT207024A GGSL
NJARET21060-21344-01260-30000096D0006108D0029400006ZT207025  GGSL
NJARET21060-21344-01261-00000100D0006358D0029300006ZT207026  GGSL
NJARET21060-21344-01262-70000053D0003953D0033600004ZT207027  GGSL
NJARET21060-21344-01264-10000006D0000876D0020000023HR22818AA GGSL
NJARET21060-21344-01265-80000018D0002370D0014700001HR30701AA GGSL
NJARET21060-21344-01266-50000060D0003374D0024000046CU297     GGSL
NJARET21060-21344-01267-20000015D0002180D0014300025FP35      GGSL
NJARET21060-21344-01268-90000022D0001888D0015700000HR26182AA GGSL
NJARET21060-21344-01270-20000006D0000163D0023500002HS20153   GGSL
NJARET21060-21344-01273-30000280D0040187D0032300077WX17658A  GGSL
NJARET21060-21344-01274-00000015D0001869D0021600032JFA16020GHGGSL
NJARET21060-21344-01275-70000006D0000392D0010700021JFG20031  GGSL
NJARET21060-21964-10133-60000012D0000355D0000700000TH3RP     GGSL
NJARET21060-21964-10134-30000018D0000389D0000000000BUF16     GGSL
NJARET21060-21964-10305-70000002D0000121D0001300000BTG       GGSL
NJARET21060-21964-10350-70000002D0000049D0014500145X1        GGSL
NJARET21060-21964-10481-80000078D0000467D0001500000AM        GGSL
NJARET21060-21964-10486-30000042D0000438D0000200000RS3WC     GGSL
NJARET21060-21964-20500-30000026D0003289D0002700000YF        GGSL
NJARET21060-21964-20510-20000016D0001341D0002900000YCPD90    GGSL
NJARET21060-21964-20520-10000020D0001612D0001800000YCPW180   GGSL
NJARET21060-21964-20530-00000012D0001009D0001700000YCPT360   GGSL
NJARET21060-21964-25241-00000006D0000177D0000800000CC12S     GGSL
NJARET21060-21964-25242-70000024D0000883D0000400001CC18S     GGSL
NJARET21060-21964-25243-40000018D0000793D0000000000CC24S     GGSL
NJARET21060-21964-25244-10000018D0000532D0001800000CC12N     GGSL
NJARET21060-21964-25245-80000024D0000883D0001000000CC18N     GGSL
NJARET21060-21964-25256-40000036D0001064D0001400000CC12FM    GGSL
NJARET21060-21964-40043-90000012D0000216D0000100001CJM8G     GGSL
NJARET21060-21964-40063-70000006D0000173D0000100001CJM23G    GGSL
NJARET21060-21964-41073-50000018D0000376D0000000000CJTHM15Y  GGSL
NJARET21060-21964-41084-10000006D0000177D0000200001CJTHM36Y  GGSL
NJARET21060-21964-41086-50000006D0000099D0000700001CJTHM8Y   GGSL
NJARET21060-21964-50100-60000012D0000156D0000000000SKYHK     GGSL
NJARET21060-21964-80100-70000036D0000302D0000000000BFB       GGSL
NJARET21060-21964-92006-70000004D0000339D0000800000YCPW180M  GGSL
NJARET21060-22179-10012-10000006D0000092D0000900000LG3109    GGSL
NJARET21060-22179-10084-80000114D0001073D0007000000LG7220    GGSL
NJARET21060-22179-10105-00000180D0007565D0002500000LG5518    GGSL
NJARET21060-22179-10115-90000012D0000230D0000300000LG5599    GGSL
NJARET21060-22179-10120-30000001D0000045D0000700000LG6510    GGSL
NJARET21060-22179-10124-10000600D0003669D0007000002LG6515    GGSL
NJARET21060-22179-10157-90000048D0001128D0003700001LG6530    GGSL
NJARET21060-22179-10159-30000012D0000230D0000100000LG5185    GGSL
NJARET21060-22179-10163-00002784D0038028D0035600182LG6150    GGSL
NJARET21060-22179-10185-20000264D0003221D0004000000LG6500    GGSL
NJARET21060-22179-10243-90000072D0001267D0000700000LG6130    GGSL
NJARET21060-22179-10246-00000048D0000854D0004200002LG6570    GGSL
NJARET21060-22179-10248-40000156D0001388D0000000000LG6575    GGSL
NJARET21060-22179-10257-60000120D0002011D0000900000LG3190    GGSL
NJARET21060-22179-10258-30000036D0001192D0001200001LG6580    GGSL
NJARET21060-22179-10266-80000300D0006290D0002300000LG6145    GGSL
NJARET21060-22179-10326-90000012D0000361D0000500000LG5482    GGSL
NJARET21060-22179-10327-60000432D0004330D0001300010LG6148    GGSL
NJARET21060-22179-10389-40000024D0000212D0000300000LG7265    GGSL
NJARET21060-22179-10390-00000096D0001095D0000100001LG6332    GGSL
NJARET21060-22179-10391-70000120D0002141D0003500000LG6336    GGSL
NJARET21060-22179-10392-40000012D0000364D0000200000LG4300    GGSL
NJARET21060-22179-10400-60000012D0000282D0000000000LG6186    GGSL
NJARET21060-22179-10408-20000120D0001094D0000000000LG6338    GGSL
NJARET21060-22179-10417-40000004D0000414D0000000000LG6142    GGSL
NJARET21060-22179-10422-80000024D0001068D0000000000LG6396    GGSL
NJARET21060-22179-10429-70000060D0001188D0000300000LG6334    GGSL
NJARET21060-22179-10434-10000216D0002148D0000400001LG6133    GGSL
NJARET21060-22179-10444-00000006D0000089D0000200000LG3374    GGSL
NJARET21060-22179-10448-80000012D0000141D0000000000LG3174    GGSL
NJARET21060-22179-10455-60000006D0000106D0000100000LG3307    GGSL
NJARET21060-22179-10471-60000120D0001278D0000900004LG6128    GGSL
NJARET21060-22179-10480-80000012D0000094D0001100000LG5268    GGSL
NJARET21060-22179-10481-50000006D0000088D0000500000LG5592    GGSL
NJARET21060-22179-10517-10000006D0000153D0000500000LG3176    GGSL
NJARET21060-22401-00301-50000063D0000720D0007200024THD20     GGSL
NJARET21060-22401-00356-50000008D0000105D0000000000NDE20MC   GGSL
NJARET21060-22401-00365-70000016D0000216D0000000000EER8BK    GGSL
NJARET21060-22401-00440-10000039D0001115D0011700000PRO40PC   GGSL
NJARET21060-22401-10087-50000180D0001636D0003400004EAR20TMC  GGSL
NJARET21060-23865-09908-80000005D0000065D00000000009908X     GGSL
NJARET21060-23865-09987-30000004D0000031D00033000009987      GGSL
NJARET21060-23883-04701-60000006D0000153D00005000034701      GGSL
NJARET21060-23883-08303-80000005D0000989D00005000008303C     GGSL
NJARET21060-23883-08706-70000015D0000138D00003000008706A     GGSL
NJARET21060-23883-16100-20000113D0001621D000350000316100     GGSL
NJARET21060-23883-16200-90000055D0001105D001000000216200     GGSL
NJARET21060-23883-20002-20000029D0000628D001900000220002     GGSL
NJARET21060-23883-20003-90000004D0000120D000110000020003     GGSL
NJARET21060-23883-20010-70000019D0000353D000300000220010     GGSL
NJARET21060-23883-20020-60000019D0000472D000850000020020     GGSL
NJARET21060-23883-29003-00000002D0000073D000000000029003     GGSL
NJARET21060-23883-63800-90000002D0000205D000000000063800     GGSL
NJARET21060-24114-20430-70000100D0000644D0000400000204309    GGSL
NJARET21060-24114-20450-50000075D0000483D0000100000204509    GGSL
NJARET21060-24114-20480-20000050D0000322D0000100000204809    GGSL
NJARET21060-24114-22050-50000010D0000345D0000000000220500    GGSL
NJARET21060-24114-70102-80000250D0000380D0004500001701002    GGSL
NJARET21060-24114-70300-80000475D0001249D0000400000703002    GGSL
NJARET21060-24114-70609-20000275D0001208D0000300006706009    GGSL
NJARET21060-24114-70807-30000075D0000300D0000000001708073    GGSL
NJARET21060-24114-71664-00000025D0000295D0000800000716642    GGSL
NJARET21060-24114-71673-20000125D0000822D0000400001716073    GGSL
NJARET21060-24114-71843-90000050D0000504D0000000000718473    GGSL
NJARET21060-24114-73009-70000175D0000627D0000000000730009    GGSL
NJARET21060-24114-74009-60000275D0001341D0001000001704009    GGSL
NJARET21060-24114-74209-00000175D0001127D0000100000704209    GGSL
NJARET21060-24114-74509-10000025D0000161D0000000000704509    GGSL
NJARET21060-24114-74712-50000025D0000082D0000000000742712    GGSL
NJARET21060-24114-74809-20000050D0000322D0000000000704809    GGSL
NJARET21060-24114-74929-70000075D0000483D0000000000704929    GGSL
NJARET21060-24654-01065-90000004D0000197D00000000005118GAL   GGSL
NJARET21060-24654-05922-10000102D0001336D00001000005926      GGSL
NJARET21060-24654-05922-10000001D0000377D00002000015926DS    GGSL
NJARET21060-24654-05962-70000002D0000584D00000000005962DS    GGSL
NJARET21060-24654-05972-60000012D0000435D00013000005972      GGSL
NJARET21060-24654-05982-50000012D0000417D00002000025982      GGSL
NJARET21060-24654-09334-80000001D0000029D00001000009334      GGSL
NJARET21060-24654-51704-20000004D0000042D000010000051704     GGSL
NJARET21060-24654-51926-80000006D0000063D000040000051926     GGSL
NJARET21060-24654-55025-40000192D0000760D00002000025026      GGSL
NJARET21060-24654-55118-30000084D0000677D000160000251186     GGSL
NJARET21060-24654-55325-50000012D0000072D000040000053256     GGSL
NJARET21060-24654-65452-50000318D0001763D000370002754526     GGSL
NJARET21060-24654-72125-80000012D0000086D0000200002SB125     GGSL
NJARET21060-25033-01703-00000048D0000569D000160000001703     GGSL
NJARET21060-25033-01707-80000018D0000232D000100000001707     GGSL
NJARET21060-25033-01713-90000054D0000731D000060000001713     GGSL
NJARET21060-25033-01717-70000024D0000430D000090000001717     GGSL
NJARET21060-25033-01723-80000008D0000199D000100000001723     GGSL
NJARET21060-25033-01727-60000024D0000834D000070000001727     GGSL
NJARET21060-25033-01735-10000012D0000512D000020000001735M    GGSL
NJARET21060-25033-02019-10000012D0000731D000120000002019     GGSL
NJARET21060-25033-02088-70000012D0000177D000030000002088     GGSL
NJARET21060-25033-02092-40000006D0000064D000040000002092     GGSL
NJARET21060-25033-02144-00000006D0000084D000010000002144     GGSL
NJARET21060-25033-02211-90000004D0000163D000050000002211     GGSL
NJARET21060-25033-02215-70000002D0000243D000020000002215     GGSL
NJARET21060-25033-02217-10000001D0000127D000030000002217     GGSL
NJARET21060-25033-02477-90000008D0000219D000210000002477     GGSL
NJARET21060-25033-02481-60000001D0000045D000080000002481     GGSL
NJARET21060-25033-02501-10000020D0000204D000140000002501     GGSL
NJARET21060-25033-02510-30000012D0000141D000340000002510     GGSL
NJARET21060-25033-02519-60000012D0000387D000440000002519     GGSL
NJARET21060-25033-02521-90000012D0000302D000120000002521     GGSL
NJARET21060-25033-02522-60000016D0000895D000640000002522     GGSL
NJARET21060-25033-02523-30000013D0000787D000250000002523     GGSL
NJARET21060-25033-02525-70000011D0000748D000660000402525     GGSL
NJARET21060-25033-02527-10000007D0000521D000420000002527     GGSL
NJARET21060-25033-02585-10000004D0000350D000000000002585     GGSL
NJARET21060-25033-02650-60000002D0000234D000070000002650     GGSL
NJARET21060-25033-02660-50000001D0000157D000590000002660     GGSL
NJARET21060-25033-02670-40000002D0000558D000050000002670     GGSL
NJARET21060-25033-02720-60000009D0000873D000540000002720     GGSL
NJARET21060-25033-02722-00000004D0000449D000190000102722     GGSL
NJARET21060-25033-02728-20000002D0000306D000130000002728     GGSL
NJARET21060-25033-02750-30000002D0000379D000060000002750     GGSL
NJARET21060-25033-02910-10000002D0000282D000030000002910     GGSL
NJARET21060-25033-02920-00000002D0000330D000590000002920     GGSL
NJARET21060-25033-02940-80000004D0000782D000040000002940     GGSL
NJARET21060-25033-03801-10000004D0000093D000370000003801     GGSL
NJARET21060-25033-03802-80000002D0000045D000420000003802     GGSL
NJARET21060-25033-04520-00000004D0000368D000100000004520     GGSL
NJARET21060-25033-05615-20000002D0000468D000070000005615     GGSL
NJARET21060-25033-12195-90000048D0000349D000170000012195     GGSL
NJARET21060-25033-12202-40000054D0000453D000070000012202     GGSL
NJARET21060-25033-12203-10000042D0000157D000150000012203     GGSL
NJARET21060-25033-12204-80000018D0000105D000280000012204     GGSL
NJARET21060-25033-12205-50000006D0000058D000000000012205     GGSL
NJARET21060-25033-12285-70000024D0000234D000020000012285     GGSL
NJARET21060-25033-12412-70000001D0000102D000000000012412     GGSL
NJARET21060-25033-12420-20000001D0000136D000000000012420     GGSL
NJARET21060-25033-12575-90000006D0000067D000000000012575     GGSL
NJARET21060-25033-12955-90000006D0000062D000010000012955     GGSL
NJARET21060-25033-12971-90000002D0000089D000100000212971     GGSL
NJARET21060-25033-12972-50000002D0000105D000120000012972     GGSL
NJARET21060-25033-20220-70000004D0000905D000000000020220     GGSL
NJARET21060-25033-20230-60000004D0001133D000010000020230     GGSL
NJARET21060-25531-01234-60000001D0000030D000000000075160     GGSL
NJARET21060-25626-15052-60000054D0000297D000000000095052     GGSL
NJARET21060-25849-00205-30000035D0000701D00000000000205RGX   GGSL
NJARET21060-25849-00305-00000003D0000058D00001000000305RGX   GGSL
NJARET21060-25849-10281-40000057D0000791D000000000010281RG   GGSL
NJARET21060-25849-10381-10000390D0011873D000070000310381RG   GGSL
NJARET21060-25849-10381-10000030D0000898D000600002510381RGX  GGSL
NJARET21060-25849-11010-90000060D0000350D00025000101016010RGXGGSL
NJARET21060-25849-11051-20000012D0000073D00009000001016051NPCGGSL
NJARET21060-25849-11051-20000126D0000696D00000000001016051RGXGGSL
NJARET21060-25849-11110-60000480D0002779D00002000011010010RG GGSL
NJARET21060-25849-11120-50000360D0001531D00009000011010020RG GGSL
NJARET21060-25849-11151-90000060D0000403D00015000001010051RGXGGSL
NJARET21060-25849-11330-80000050D0000860D00050000001020030RGXGGSL
NJARET21060-25849-12500-40000120D0003998D00002000001038500RG GGSL
NJARET21060-25849-20381-80000120D0003768D000050000120381RG   GGSL
NJARET21060-25849-21130-10000004D0000064D00054000002028130RG GGSL
NJARET21060-25849-62151-30000036D0000105D00008000006001051NPBGGSL
NJARET21060-25881-10702-00000004D0000031D0000000000 10702    GGSL
NJARET21060-25881-10703-70000002D0000031D0000800000 107034   GGSL
NJARET21060-26600-89334-70000288D0000569D002980000089334     GGSL
NJARET21060-26978-02181-60000030D0000163D000330000002181     GGSL
NJARET21060-26978-02182-30000020D0000109D000310000002182     GGSL
NJARET21060-26978-02188-50000050D0000216D000290000002188     GGSL
NJARET21060-26978-02241-70000190D0001107D000220000002241     GGSL
NJARET21060-26978-02242-40000180D0001059D000230000102242     GGSL
NJARET21060-26978-02248-60000420D0001914D000340000002248     GGSL
NJARET21060-26978-02301-80000220D0001603D000480000802301     GGSL
NJARET21060-26978-02302-50000380D0002722D000050000102302     GGSL
NJARET21060-26978-02308-70000250D0001484D000130000002308     GGSL
NJARET21060-26978-02361-20000320D0002958D000570000502361     GGSL
NJARET21060-26978-02362-90000390D0003731D000070000102362     GGSL
NJARET21060-26978-02368-10000160D0001218D000130000002368     GGSL
NJARET21060-26978-03060-30000060D0000284D000000000003060     GGSL
NJARET21060-26978-03062-70000110D0000521D000120000003062     GGSL
NJARET21060-26978-03082-50000080D0000706D000130000003082     GGSL
NJARET21060-26978-03088-70000030D0000255D000050000103088     GGSL
NJARET21060-26978-03102-00000045D0000661D00003000000310205   GGSL
NJARET21060-26978-03120-40000020D0000410D00000000000312005   GGSL
NJARET21060-26978-03122-80000035D0000718D00001000000312205   GGSL
NJARET21060-26978-03128-00000015D0000308D00000000000312805   GGSL
NJARET21060-26978-04513-30000025D0000173D000070000004513     GGSL
NJARET21060-26978-04523-20000005D0000056D000110000204523     GGSL
NJARET21060-26978-04533-10000005D0000076D000110000004533     GGSL
NJARET21060-26978-05041-00000612D0001145D000330000005041     GGSL
NJARET21060-26978-05071-70000108D0000138D000120000005071     GGSL
NJARET21060-26978-05081-60000144D0000207D000440000005081     GGSL
NJARET21060-26978-08060-80000030D0000143D000030000008060     GGSL
NJARET21060-26978-08062-20000020D0000095D000020000008062     GGSL
NJARET21060-26978-08080-60000060D0000501D000000000008080     GGSL
NJARET21060-26978-08082-00000020D0000177D000010000008082     GGSL
NJARET21060-26978-08098-10000010D0000075D000080000008098     GGSL
NJARET21060-26978-08102-50000005D0000071D0000200000810205    GGSL
NJARET21060-26978-08710-20000004D0000056D000040000008710     GGSL
NJARET21060-26978-10010-80000018D0000070D000040000010010     GGSL
NJARET21060-26978-10012-20000024D0000097D000080000010012     GGSL
NJARET21060-26978-10013-90000036D0000143D000070000110013     GGSL
NJARET21060-26978-10020-70000010D0000075D000110000010020     GGSL
NJARET21060-26978-10023-80000005D0000034D000110000010023     GGSL
NJARET21060-26978-10062-70000140D0000380D000170000010062     GGSL
NJARET21060-26978-10068-90000160D0000406D000040000010068     GGSL
NJARET21060-26978-10082-50000180D0000588D000140000110082     GGSL
NJARET21060-26978-10088-70000110D0000389D000090000010088     GGSL
NJARET21060-26978-10102-00000120D0000574D000120000010102     GGSL
NJARET21060-26978-10108-20000085D0000495D000170000010108     GGSL
NJARET21060-26978-10122-80000135D0000921D000020000010122     GGSL
NJARET21060-26978-10128-00000055D0000378D000150000010128     GGSL
NJARET21060-26978-10148-50000010D0000089D000050000010148     GGSL
NJARET21060-26978-10182-20000010D0000036D000140000010182     GGSL
NJARET21060-26978-10183-90000010D0000036D000070000010183     GGSL
NJARET21060-26978-10185-30000010D0000036D000000000010185     GGSL
NJARET21060-26978-10240-90000050D0000197D000120000010240     GGSL
NJARET21060-26978-10242-30000070D0000259D000160000110242     GGSL
NJARET21060-26978-10243-00000030D0000118D000080000010243     GGSL
NJARET21060-26978-10245-40000040D0000157D000370000210245     GGSL
NJARET21060-26978-10248-50000020D0000075D000060000110248     GGSL
NJARET21060-26978-10300-00000020D0000099D000100000010300     GGSL
NJARET21060-26978-10302-40000030D0000144D000170000010302     GGSL
NJARET21060-26978-10305-50000040D0000198D000100000010305     GGSL
NJARET21060-26978-10360-40000010D0000062D000030000010360     GGSL
NJARET21060-26978-10362-80000020D0000124D000120000010362     GGSL
NJARET21060-26978-10363-50000020D0000124D000030000010363     GGSL
NJARET21060-26978-16192-50000310D0001469D000270000916192     GGSL
NJARET21060-26978-16193-20000010D0000049D000070000016193     GGSL
NJARET21060-26978-16195-60000270D0001289D000310000816195     GGSL
NJARET21060-26978-16198-70000050D0000244D000050000216198     GGSL
NJARET21060-26978-16240-30000280D0001645D000540000016240     GGSL
NJARET21060-26978-16242-70000370D0002138D000290000216242     GGSL
NJARET21060-26978-16243-40000180D0001085D000190000616243     GGSL
NJARET21060-26978-16245-80000350D0002080D000190000516245     GGSL
NJARET21060-26978-16248-90000100D0000560D000090000416248     GGSL
NJARET21060-26978-16300-40000140D0001048D000270000316300     GGSL
NJARET21060-26978-16302-80000330D0002407D000370000716302     GGSL
NJARET21060-26978-16303-50000150D0001132D000220000216303     GGSL
NJARET21060-26978-16305-90000010D0000068D000000000016305     GGSL
NJARET21060-26978-16308-00000050D0000357D000090000216308     GGSL
NJARET21060-26978-16360-80000090D0001024D000150000016360     GGSL
NJARET21060-26978-16362-20000110D0001215D000350000316362     GGSL
NJARET21060-26978-16363-90000050D0000569D000120000016363     GGSL
NJARET21060-26978-16365-30000100D0001138D000120000016365     GGSL
NJARET21060-26978-16368-40000020D0000228D000080000216368     GGSL
NJARET21060-26978-26140-30000110D0001093D000110000226140     GGSL
NJARET21060-26978-26142-70000080D0000802D000450000126142     GGSL
NJARET21060-26978-26143-40000050D0000502D000100000026143     GGSL
NJARET21060-26978-26145-80000050D0000502D000150000126145     GGSL
NJARET21060-26978-26148-90000040D0000381D000020000126148     GGSL
NJARET21060-26978-26180-90000090D0001445D000080000026180     GGSL
NJARET21060-26978-26182-30000080D0001268D000070000226182     GGSL
NJARET21060-26978-26183-00000120D0001927D000070000026183     GGSL
NJARET21060-26978-26185-40000100D0001573D000140000026185     GGSL
NJARET21060-26978-26188-50000100D0001524D000060000326188     GGSL
NJARET21060-26978-26240-00000008D0000088D000020000226240     GGSL
NJARET21060-26978-26245-50000020D0000221D000080000126245     GGSL
NJARET21060-26978-26248-60000120D0001220D000200000226248     GGSL
NJARET21060-26978-26270-70000160D0001898D000210000126270     GGSL
NJARET21060-26978-26272-10000190D0002296D000010000026272     GGSL
NJARET21060-26978-26273-80000130D0001512D000220000026273     GGSL
NJARET21060-26978-26275-20000370D0004332D000200000026275     GGSL
NJARET21060-26978-26278-30000160D0001884D000150000026278     GGSL
NJARET21060-26978-29005-20000005D0000107D000000000029005     GGSL
NJARET21060-26978-30104-80000066D0000328D000040000430104     GGSL
NJARET21060-26978-30301-10000420D0002345D000130001330301     GGSL
NJARET21060-26978-30312-70000072D0000081D000060000130312     GGSL
NJARET21060-26978-30409-40000252D0001547D000050000530409     GGSL
NJARET21060-26978-30412-40000012D0000012D000010000030412     GGSL
NJARET21060-26978-30413-10000084D0000587D000110001130413     GGSL
NJARET21060-26978-30413-10000288D0001488D00000000003041396   GGSL
NJARET21060-26978-30500-80000030D0000149D000030000330500     GGSL
NJARET21060-26978-30602-90000216D0000948D000020000230602     GGSL
NJARET21060-26978-30605-00000066D0000285D000010000130605     GGSL
NJARET21060-26978-30702-60000216D0000841D000020000230702     GGSL
NJARET21060-26978-30806-10000252D0001165D000090000530806     GGSL
NJARET21060-26978-30809-20000024D0000110D000020000230809     GGSL
NJARET21060-26978-30901-30000010D0000056D000000000130901     GGSL
NJARET21060-26978-30909-90000130D0000644D000020000230909     GGSL
NJARET21060-26978-31100-90000050D0000337D000100000031100     GGSL
NJARET21060-26978-31102-30000005D0000030D000000000031102     GGSL
NJARET21060-26978-31120-70000040D0000559D000010000031120     GGSL
NJARET21060-26978-31121-40000005D0000070D000090000031121     GGSL
NJARET21060-26978-31122-10000055D0000686D000070000231122     GGSL
NJARET21060-26978-31128-30000020D0000279D000090000031128     GGSL
NJARET21060-26978-31129-00000005D0000070D000070000031129     GGSL
NJARET21060-26978-31169-60000005D0000134D000060000031169     GGSL
NJARET21060-26978-32102-20000125D0000986D000110000232102     GGSL
NJARET21060-26978-32109-10000015D0000120D000050000032109     GGSL
NJARET21060-26978-32122-70000145D0001908D000020000232122     GGSL
NJARET21060-26978-32128-20000020D0000305D000120000032128     GGSL
NJARET21060-26978-32129-90000005D0000076D000180000032129     GGSL
NJARET21060-26978-34063-40000100D0000418D000030000134063     GGSL
NJARET21060-26978-34068-90000070D0000315D000040000034068     GGSL
NJARET21060-26978-34081-80000030D0000253D000000000034081     GGSL
NJARET21060-26978-34088-70000100D0000760D000560000034088     GGSL
NJARET21060-26978-34101-30000015D0000210D000000000034101     GGSL
NJARET21060-26978-34103-70000005D0000070D000000000034103     GGSL
NJARET21060-26978-34108-20000050D0000677D000050000034108     GGSL
NJARET21060-26978-34121-10000035D0000683D000050000034121     GGSL
NJARET21060-26978-34123-50000025D0000488D000050000034123     GGSL
NJARET21060-26978-34128-00000015D0000293D000000000034128     GGSL
NJARET21060-26978-34143-50000003D0000086D000060000034143     GGSL
NJARET21060-26978-34148-00000012D0000343D000040000034148     GGSL
NJARET21060-26978-35059-60000030D0000158D000030000135059     GGSL
NJARET21060-26978-35060-20000010D0000048D000290000435060     GGSL
NJARET21060-26978-35068-80000020D0000090D000040000135068     GGSL
NJARET21060-26978-35080-00000060D0000530D000120000035080     GGSL
NJARET21060-26978-35081-70000010D0000088D000020000035081     GGSL
NJARET21060-26978-35088-60000080D0000706D000020000035088     GGSL
NJARET21060-26978-35089-30000060D0000530D000050000035089     GGSL
NJARET21060-26978-35100-50000060D0000970D000160000035100     GGSL
NJARET21060-26978-35106-70000010D0000171D000080000035106     GGSL
NJARET21060-26978-35108-10000075D0001250D000040000035108     GGSL
NJARET21060-26978-35109-80000040D0000683D000160000035109     GGSL
NJARET21060-26978-35120-30000020D0000486D000100000035120     GGSL
NJARET21060-26978-35122-70000025D0000494D000040000035122     GGSL
NJARET21060-26978-35126-50000015D0000365D000040000035126     GGSL
NJARET21060-26978-35128-90000050D0001203D000010000135128     GGSL
NJARET21060-26978-35129-60000020D0000487D000140000035129     GGSL
NJARET21060-26978-35139-50000005D0000092D000020000035139     GGSL
NJARET21060-26978-35146-30000005D0000176D000000000035146     GGSL
NJARET21060-26978-35148-70000005D0000176D000100000035148     GGSL
NJARET21060-26978-35149-40000025D0000817D000090000035149     GGSL
NJARET21060-26978-35169-20000005D0000232D000130000035169     GGSL
NJARET21060-26978-35188-30000010D0000911D000290000235188     GGSL
NJARET21060-26978-35189-00000002D0000182D000180000035189     GGSL
NJARET21060-26978-35199-90000002D0000076D000010000035199     GGSL
NJARET21060-26978-35278-10000004D0000363D000060000035278     GGSL
NJARET21060-26978-35279-80000018D0001634D000050000035279     GGSL
NJARET21060-26978-36100-40000005D0000063D000140000036100     GGSL
NJARET21060-26978-36108-00000005D0000063D000050000036108     GGSL
NJARET21060-26978-36120-20000005D0000088D000080000036120     GGSL
NJARET21060-26978-36128-80000005D0000088D000030000036128     GGSL
NJARET21060-26978-36140-00000035D0000542D000000000036140     GGSL
NJARET21060-26978-36220-90000015D0000394D000050000036220     GGSL
NJARET21060-26978-36298-80000035D0001288D000030000036298     GGSL
NJARET21060-26978-38142-20000144D0000812D000140000338142     GGSL
NJARET21060-26978-38146-00000192D0001034D000090000138146     GGSL
NJARET21060-26978-38148-40000132D0000725D000180000138148     GGSL
NJARET21060-26978-38192-70000024D0000296D000070000238192     GGSL
NJARET21060-26978-38196-50000018D0000241D000150000238196     GGSL
NJARET21060-26978-38198-90000030D0000359D000000000038198     GGSL
NJARET21060-26978-39126-10000120D0000438D000340000339126     GGSL
NJARET21060-26978-39182-70000114D0001219D000230000439182     GGSL
NJARET21060-26978-39186-50000060D0000656D000070000039186     GGSL
NJARET21060-26978-39188-90000192D0002040D000180000639188     GGSL
NJARET21060-26978-48098-30000072D0000301D000270000048098     GGSL
NJARET21060-26978-48128-00000126D0000804D000100000148128     GGSL
NJARET21060-26978-48158-00000102D0000866D000320000048158     GGSL
NJARET21060-26978-63075-90000010D0000071D000040000063075     GGSL
NJARET21060-26978-63079-70000010D0000071D000070000063079     GGSL
NJARET21060-26978-80100-50000012D0000591D000020000080100     GGSL
NJARET21060-26978-80101-20000008D0000327D000220000080101     GGSL
NJARET21060-26978-80105-00000012D0000491D000140000080105     GGSL
NJARET21060-26978-80105-00000016D0000684D00000000008010504   GGSL
NJARET21060-26978-80151-70000012D0000509D000110000080151     GGSL
NJARET21060-26978-80151-70000012D0000526D00000000008015104   GGSL
NJARET21060-26978-80155-50000028D0001189D000060000080155     GGSL
NJARET21060-26978-80651-20000036D0000724D000010000080651     GGSL
NJARET21060-26978-80655-00000036D0000724D000000000080655     GGSL
NJARET21060-26978-80658-10000024D0000482D000000000080658     GGSL
NJARET21060-26978-81011-30000008D0000228D000240000081011     GGSL
NJARET21060-26978-81015-10000004D0000114D000390000081015     GGSL
NJARET21060-26978-81100-40000048D0000412D000070000181100     GGSL
NJARET21060-26978-81101-10000036D0000360D000180000181101     GGSL
NJARET21060-26978-81112-70000018D0000177D000030000081112     GGSL
NJARET21060-26978-81121-90000012D0000049D000060000081121     GGSL
NJARET21060-26978-81201-80000001D0000043D000070000381201     GGSL
NJARET21060-27652-80203-50000012D0000348D0000000000LG400151GDGGSL
NJARET21060-27652-80204-20000016D0000854D0001500000LG400161  GGSL
NJARET21060-27652-80205-90000001D0000069D0000000000LG400171  GGSL
NJARET21060-27856-10001-20007548D0022461D0033400000P10232    GGSL
NJARET21060-27856-10001-20000624D0001853D0002900018P10232M   GGSL
NJARET21060-27856-10002-90011646D0061289D0048000000P10264    GGSL
NJARET21060-27856-10002-90000558D0002935D0001500009P10264M   GGSL
NJARET21060-27856-10008-10002536D0034490D0061200000P101      GGSL
NJARET21060-27856-10008-10000120D0001632D0002100008P101M     GGSL
NJARET21060-27856-10009-80002037D0018639D0041200000P128      GGSL
NJARET21060-27856-10009-80000108D0000988D0000100005P128M     GGSL
NJARET21060-27997-00229-90000120D0002858D0002300000TE        GGSL
NJARET21060-27997-01017-10000003D0000499D0001100005 M6T22    GGSL
NJARET21060-27997-01017-10000001D0000180D0002100004M6T22     GGSL
NJARET21060-28009-11440-50000130D0000757D0000000000T1440     GGSL
NJARET21060-28009-11440-50000065D0000461D0000000000T1440X    GGSL
NJARET21060-28009-11440-50000103D0000804D00027000001440X     GGSL
NJARET21060-29973-12316-50000140D0000822D000150000414116021P GGSL
NJARET21060-29973-12333-20000728D0002563D000910009014110028P GGSL
NJARET21060-30541-00066-50000048D0000120D0001300003JCDTP03   GGSL
NJARET21060-30541-00401-40000002D0000457D0000000000JCD40BKSM GGSL
NJARET21060-30541-00801-20000022D0001117D0000100001JCD08BKSM GGSL
NJARET21060-30541-01020-60000720D0001656D0003500002JCD024SM  GGSL
NJARET21060-30541-01030-50000192D0001593D0007100002JCD100SMJ GGSL
NJARET21060-30541-01034-30000120D0002528D0003300000JCD030SM  GGSL
NJARET21060-30541-01039-80000876D0004639D0005200003JCD05SM   GGSL
NJARET21060-30541-08100-80000001D0000054D0000100000JCD10BKSMPGGSL
NJARET21060-30541-08879-30000108D0000349D0000800003SMVS      GGSL
NJARET21060-30541-77703-10000072D0000205D0000000000SMN3      GGSL
NJARET21060-31340-10005-10000264D0004867D0000700007B550120   GGSL
NJARET21060-31340-10006-80000696D0007848D0004300021B550125   GGSL
NJARET21060-31340-10007-50000042D0001386D0000000000B550130   GGSL
NJARET21060-31340-10017-40000192D0003545D0000100000B550190   GGSL
NJARET21060-31340-10020-40000016D0000402D0000400000B550205   GGSL
NJARET21060-31365-10600-70000029D0000557D0022100000 42808    GGSL
NJARET21060-31365-12205-20000006D0000156D0001200000 49454    GGSL
NJARET21060-31417-00043-70000032D0000171D000430000080201105  GGSL
NJARET21060-31417-00046-80000023D0000254D001820000080201121X GGSL
NJARET21060-31417-00055-00000034D0000856D001120000080601131X GGSL
NJARET21060-31417-00056-70000021D0000475D000310000080611131X GGSL
NJARET21060-31417-00058-10000001D0000025D000650001080631131X GGSL
NJARET21060-31417-00107-60000050D0000272D000070000080202005  GGSL
NJARET21060-31724-81001-90000009D0000568D00001000008100100   GGSL
NJARET21060-31724-81005-70000016D0000587D0000400000810050    GGSL
NJARET21060-31724-84000-90000024D0000565D00025000008400100   GGSL
NJARET21060-31724-84005-40000110D0001400D0002200000840050    GGSL
NJARET21060-31724-84007-80000030D0000573D0001000000840075    GGSL
NJARET21060-31724-85090-90000021D0000773D00007000008509100   GGSL
NJARET21060-31724-85095-40000060D0001118D0000000000850950    GGSL
NJARET21060-31724-85097-80000072D0001989D0000100000850975    GGSL
NJARET21060-31724-85350-40000003D0000093D00000000008535100   GGSL
NJARET21060-31724-85355-90000105D0001737D0001800002853550    GGSL
NJARET21060-31724-86177-60000018D0000665D0000500000861775    GGSL
NJARET21060-31724-88455-30000020D0000620D0000000000884550    GGSL
NJARET21060-32247-00900-30000132D0000404D00088000171009001   GGSL
NJARET21060-32247-00910-20000144D0000482D00059000031009101   GGSL
NJARET21060-32247-00950-80000156D0000483D00068000001009501   GGSL
NJARET21060-32247-05514-70001800D0008989D000230000070551430  GGSL
NJARET21060-32247-05514-70000083D0000340D000350000070551430X GGSL
NJARET21060-32247-10500-20000084D0000832D0003400000110500    GGSL
NJARET21060-32247-14900-60000080D0000647D000850000014900     GGSL
NJARET21060-32247-14902-00000128D0001994D000220000014902     GGSL
NJARET21060-32247-14905-10000248D0001951D000820000014905     GGSL
NJARET21060-32247-17183-00000324D0003251D000270000217183     GGSL
NJARET21060-32247-17185-40000144D0003321D000760000317185     GGSL
NJARET21060-32247-17187-80000051D0002830D000890000217187     GGSL
NJARET21060-32247-17290-50000036D0000401D000620000017290     GGSL
NJARET21060-32247-17293-60000030D0000321D000370000017293     GGSL
NJARET21060-32247-17295-00000004D0000101D000190000017295     GGSL
NJARET21060-32247-17323-00000018D0000180D000480000017323     GGSL
NJARET21060-32247-17325-40000004D0000084D000090000017325     GGSL
NJARET21060-32247-17504-30000006D0000292D000520000017504     GGSL
NJARET21060-32247-17508-10000420D0005877D001270000017508     GGSL
NJARET21060-32247-17511-10000006D0000087D000500000017511     GGSL
NJARET21060-32247-17530-20000048D0000476D000090000017530     GGSL
NJARET21060-32247-17540-10000092D0002559D001830000117540     GGSL
NJARET21060-32247-18213-30000028D0000818D000450000018213     GGSL
NJARET21060-32247-18216-40000002D0000135D000460000018216     GGSL
NJARET21060-32247-18221-80000080D0002001D000930000418221     GGSL
NJARET21060-32247-18225-60000102D0001274D001270000118225     GGSL
NJARET21060-32247-18249-20000013D0000822D000330000018249     GGSL
NJARET21060-32247-18251-50000016D0000498D000180000018251     GGSL
NJARET21060-32247-18260-70000012D0000133D000370000018260     GGSL
NJARET21060-32247-18266-90000006D0000068D000480000018266     GGSL
NJARET21060-32247-18269-00000004D0000107D000350000018269     GGSL
NJARET21060-32247-18272-00000018D0000088D000320000018272     GGSL
NJARET21060-32247-18277-50000004D0000112D000360000018277     GGSL
NJARET21060-32247-18345-10000054D0000767D000300000018345     GGSL
NJARET21060-32247-18346-80000012D0000258D000430000018346     GGSL
NJARET21060-32247-18348-20000042D0000616D000370000018348     GGSL
NJARET21060-32247-18354-30000006D0000088D000240000118354     GGSL
NJARET21060-32247-18362-80000036D0001439D000030000018362     GGSL
NJARET21060-32247-20785-00000432D0001306D000360000072078430  GGSL
NJARET21060-32247-21605-00000085D0001790D002490000021605     GGSL
NJARET21060-32247-21701-90000120D0001117D000960000121701     GGSL
NJARET21060-32247-21814-60000003D0000144D004380000021814     GGSL
NJARET21060-32247-22305-80000006D0000112D004450000022305     GGSL
NJARET21060-32247-22315-70000030D0001388D002370000522315     GGSL
NJARET21060-32247-23001-80000005D0000160D001660000023001     GGSL
NJARET21060-32247-23002-50000060D0000821D000750000023002     GGSL
NJARET21060-32247-23616-40000066D0001608D002430000023616     GGSL
NJARET21060-32247-23622-50000002D0000035D007890000023622     GGSL
NJARET21060-32247-25006-10000074D0001828D001910000025006A    GGSL
NJARET21060-32247-25009-20000030D0002066D001450000025009     GGSL
NJARET21060-32247-26002-20000003D0000200D001510000026002A    GGSL
NJARET21060-32247-26003-90000007D0000183D001390000026003D    GGSL
NJARET21060-32247-26784-70000042D0000162D000740000072678430  GGSL
NJARET21060-32247-27764-80000056D0000266D000130000972776430  GGSL
NJARET21060-32247-30156-50000068D0001019D001310000030156     GGSL
NJARET21060-32247-31115-80000002D0000147D002480000031115     GGSL
NJARET21060-32247-32367-30000006D0000188D005180000032367F    GGSL
NJARET21060-32247-33002-20000060D0000895D00022000003300210   GGSL
NJARET21060-32247-33040-40000083D0001450D005390000033040     GGSL
NJARET21060-32247-34161-50000041D0002483D002800000034161     GGSL
NJARET21060-32247-36905-30000015D0000575D002070000036905     GGSL
NJARET21060-32247-37594-80000050D0000417D000110000073759430  GGSL
NJARET21060-32247-37610-50000196D0002918D000290000137610C    GGSL
NJARET21060-32247-39594-60000100D0000986D000090000073959430  GGSL
NJARET21060-32247-42784-50000354D0001410D000000000074278430  GGSL
NJARET21060-32247-43750-90000012D0000257D00016000004375010   GGSL
NJARET21060-32247-43850-60000056D0001563D00028000004385010   GGSL
NJARET21060-32247-43860-50000024D0000586D00049000014386004   GGSL
NJARET21060-32247-44615-00000001D0000020D000420000044615A    GGSL
NJARET21060-32247-45651-70000060D0000556D000040000045651300  GGSL
NJARET21060-32247-47783-30000030D0000120D000290000074778300  GGSL
NJARET21060-32247-49013-90000079D0001843D001040000049013     GGSL
NJARET21060-32247-49019-10000003D0000032D001240000049019     GGSL
NJARET21060-32247-49024-50000014D0000208D000090000049024     GGSL
NJARET21060-32247-49785-50000060D0000288D000230000074978500  GGSL
NJARET21060-32247-49801-20000010D0000139D001560000049801C    GGSL
NJARET21060-32247-50087-60000012D0000247D00035000005008710   GGSL
NJARET21060-32247-50524-60000156D0001222D000130000175052430  GGSL
NJARET21060-32247-51062-20000036D0000278D000250000051062     GGSL
NJARET21060-32247-51070-70000028D0000263D000100000051070     GGSL
NJARET21060-32247-51105-60000015D0000207D004430000051105     GGSL
NJARET21060-32247-51115-50000065D0002525D001110000051115     GGSL
NJARET21060-32247-52784-20000126D0000500D000540000085278430  GGSL
NJARET21060-32247-53105-40000009D0000102D002770000053105     GGSL
NJARET21060-32247-54105-30000024D0000152D00007000015410510   GGSL
NJARET21060-32247-54204-30000030D0000349D00009000035420406   GGSL
NJARET21060-32247-55513-50001560D0015077D000480000075551300  GGSL
NJARET21060-32247-55513-50000037D0000372D001270000075551300X GGSL
NJARET21060-32247-55523-40001080D0016569D000180000075552300  GGSL
NJARET21060-32247-55523-40000099D0001558D000330000075552300X GGSL
NJARET21060-32247-55783-20000366D0001772D000300000075578300  GGSL
NJARET21060-32247-55783-20000120D0000546D000010000075578309  GGSL
NJARET21060-32247-55863-10000273D0002288D000030000075586300  GGSL
NJARET21060-32247-55863-10000062D0000480D001840000075586300X GGSL
NJARET21060-32247-56063-40000056D0000273D000550000045606300  GGSL
NJARET21060-32247-56163-10000003D0000020D000870000045616300X GGSL
NJARET21060-32247-56211-90000036D0000502D00033000005621106   GGSL
NJARET21060-32247-56513-40003640D0031873D000700000275651300  GGSL
NJARET21060-32247-56513-40000190D0001697D002780001075651300X GGSL
NJARET21060-32247-56517- 0000055D0000600D000270000045651300X GGSL
NJARET21060-32247-56523-30002232D0029998D000770000475652300  GGSL
NJARET21060-32247-56523-30000155D0002179D000360000175652300X GGSL
NJARET21060-32247-56783-10003738D0016896D004820004175678300  GGSL
NJARET21060-32247-56783-10002160D0010062D000140000075678309  GGSL
NJARET21060-32247-56863-00000819D0006175D000080000175686300  GGSL
NJARET21060-32247-56863-00000221D0001638D000810003475686300X GGSL
NJARET21060-32247-57905-60000004D0000050D002120000057905     GGSL
NJARET21060-32247-71060-20000054D0000715D000160000171060     GGSL
NJARET21060-32247-71131-90000012D0000222D000160000071131     GGSL
NJARET21060-32247-74150-70000012D0000066D0000100003274150    GGSL
NJARET21060-32247-74250-40000192D0001613D0001900011274250    GGSL
NJARET21060-32247-74395-20000050D0000502D000010000043959430  GGSL
NJARET21060-32247-74850-60000276D0005258D0007000006274850    GGSL
NJARET21060-32247-75902-10000006D0000469D000100000275902     GGSL
NJARET21060-32247-76121-50000042D0001444D000230000076121     GGSL
NJARET21060-32247-76232-80000021D0001229D000160000076232     GGSL
NJARET21060-32247-77160-30000900D0004510D0005000006277160    GGSL
NJARET21060-32247-77260-00001416D0012418D0005400014277260    GGSL
NJARET21060-32247-77860-20000408D0006618D0013500006277860    GGSL
NJARET21060-32247-77960-90000524D0011030D0005100001277960    GGSL
NJARET21060-32247-90550-30000028D0002642D0000500002 671025   GGSL
NJARET21060-32247-95517-10000180D0000920D000150000179551750  GGSL
NJARET21060-32247-99605-10000105D0002484D002220000499605     GGSL
NJARET21060-32903-00169-30000384D0000479D0000000000SLI06000E3GGSL
NJARET21060-32903-00171-60000096D0000125D0000100001SLI06000A3GGSL
NJARET21060-32903-00191-40000012D0000057D0000300000GAB12000E2GGSL
NJARET21060-32903-00192-10000312D0000396D0000700002SLI06000B9GGSL
NJARET21060-32903-00214-00000168D0000198D0000300000SLI06000E2GGSL
NJARET21060-32903-00222-50000264D0000400D0000000000SLI08000B9GGSL
NJARET21060-32903-00224-90000030D0000179D0000000000VNP18000E2GGSL
NJARET21060-32903-00240-90000048D0000080D0001100001SLI08000E2GGSL
NJARET21060-32903-00246-10000360D0000572D0001100002SLI08000A3GGSL
NJARET21060-32903-00258-40000432D0000773D0000000000LIA06000E2GGSL
NJARET21060-32903-00264-50000192D0000504D0000000000LIA08000E2GGSL
NJARET21060-32903-00281-20000144D0000596D0002000000LIA10000E2GGSL
NJARET21060-32903-00283-60000024D0000158D0000500000GAB14000E2GGSL
NJARET21060-32903-00284-30000008D0000248D0000000000TEA20000G2GGSL
NJARET21060-32903-00287-40000006D0000050D0001100000VNP24000E2GGSL
NJARET21060-32903-00290-40000060D0000569D0000300000VNP30000E2GGSL
NJARET21060-32903-00293-50000288D0000624D0006900000SLI10000E2GGSL
NJARET21060-32903-00309-30000264D0000612D0000000000SLI10000E3GGSL
NJARET21060-32903-00326-00000372D0002425D0000600002LIA12000E2GGSL
NJARET21060-32903-00332-10000228D0000449D0000100001SLI10000B9GGSL
NJARET21060-32903-00338-30000240D0000513D0001400002SLI10000A3GGSL
NJARET21060-32903-00341-30000042D0000370D0000300000SLI24000E3GGSL
NJARET21060-32903-00359-80000480D0000802D0000100001SLI08000E3GGSL
NJARET21060-32903-04255-90000192D0001564D0000000000LIA14000E2GGSL
NJARET21060-32903-04257-30000072D0000284D0000100000SLI12000E2GGSL
NJARET21060-32903-07519-90000072D0000883D0000000000LIA16000E2GGSL
NJARET21060-32903-07530-40000120D0000457D0000200000SLI14000E2GGSL
NJARET21060-32903-07534-20000036D0000661D0000100000LIA20000E2GGSL
NJARET21060-32903-07558-80000012D0000046D0000000000RZWC1Q0B9 GGSL
NJARET21060-32903-07563-20000024D0000094D0000700000SLI17000E2GGSL
NJARET21060-32903-07577-90000012D0000294D0000900000LIA24000E2GGSL
NJARET21060-32903-12006-60000768D0001343D0000900003LIA06000E3GGSL
NJARET21060-32903-12008-00000888D0002089D0000700003LIA08000E3GGSL
NJARET21060-32903-12010-30000192D0000818D0000200002LIA10000E3GGSL
NJARET21060-32903-12012-70000360D0002285D0001200005LIA12000E3GGSL
NJARET21060-32903-12014-10000360D0003001D0000700007LIA14000E3GGSL
NJARET21060-32903-12017-20000336D0004210D0000300003LIA16000E3GGSL
NJARET21060-32903-12020-20000078D0001404D0001700004LIA20000E3GGSL
NJARET21060-32903-12024-00000030D0000726D0000800000LIA24000E3GGSL
NJARET21060-32903-12312-80000072D0000407D0002100000CNA12000E3GGSL
NJARET21060-32903-12318-00000006D0000027D0001200000SVN18000E3GGSL
NJARET21060-32903-12324-10000006D0000030D0001000000SVN24000E3GGSL
NJARET21060-32903-12330-20000006D0000035D0001500000SVN30000E3GGSL
NJARET21060-32903-12712-60000168D0000793D0000400001GAB12000E3GGSL
NJARET21060-32903-12714-00000108D0000705D0002100000GAB14000E3GGSL
NJARET21060-32903-12718-80000042D0000407D0000100000GAB18000E3GGSL
NJARET21060-32903-12818-50000084D0000535D0000700000VNP18000E3GGSL
NJARET21060-32903-12824-60000096D0000691D0002500003VNP24000E3GGSL
NJARET21060-32903-12830-70000078D0000764D0000700000VNP30000E3GGSL
NJARET21060-32903-22484-90000005D0000078D0000000000ROP28000E2GGSL
NJARET21060-32903-23732-00000012D0000086D0001100000SLI20000E2GGSL
NJARET21060-32903-31000-90000004D0000116D0000000000TEA20000E3GGSL
NJARET21060-32903-35947-30000060D0000202D0002000001CNA10000E3GGSL
NJARET21060-32903-40400-50000300D0001244D0000200001LIA10000A3GGSL
NJARET21060-32903-40493-70000408D0001097D0000100001LIA08000B9GGSL
NJARET21060-32903-40770-90000054D0000350D0000000000VNP18000A3GGSL
NJARET21060-32903-41472-10000018D0000106D0002000000SVN30000A3GGSL
NJARET21060-32903-41640-40000312D0000802D0000000000LIA08000A3GGSL
NJARET21060-32903-41728-90000228D0001462D0000100001LIA12000B9GGSL
NJARET21060-32903-41842-20000030D0000305D0001500003VNP30000A3GGSL
NJARET21060-32903-41909-20000120D0001488D0000000000LIA16000A3GGSL
NJARET21060-32903-42050-00000024D0000588D0000400000LIA24000A3GGSL
NJARET21060-32903-42240-50000384D0000697D0000000000LIA06000B9GGSL
NJARET21060-32903-42728-80000006D0000030D0001300000SVN24000A3GGSL
NJARET21060-32903-43116-20000006D0000027D0001700000SVN18000A3GGSL
NJARET21060-32903-45170-20000420D0003445D0001800010LIA14000A3GGSL
NJARET21060-32903-45342-30000036D0000269D0000600000VNP24000A3GGSL
NJARET21060-32903-45788-90000006D0000092D0001500000LIA24000B9GGSL
NJARET21060-32903-46337-80000120D0001384D0000100001LIA16000B9GGSL
NJARET21060-32903-46966-00000030D0000551D0000300000LIA20000A3GGSL
NJARET21060-32903-47208-00000168D0001154D0000000000LIA12000A3GGSL
NJARET21060-32903-48101-30000096D0000181D0000300000LIA06000A3GGSL
NJARET21060-32903-48538-70000036D0000661D0001400000LIA20000B9GGSL
NJARET21060-32903-50286-20000060D0000224D0000300003HSI10008E2GGSL
NJARET21060-32903-50763-80000108D0000416D0000100001SLI12000E3GGSL
NJARET21060-32903-50764-50000204D0000826D0001800000SLI14000B9GGSL
NJARET21060-32903-50766-90000004D0000163D0000100001TEA24000G2GGSL
NJARET21060-32903-50767-60000156D0000569D0000600000SLI12000A3GGSL
NJARET21060-32903-50794-20000192D0000651D0000100000SLI12000B9GGSL
NJARET21060-32903-50802-40000132D0000556D0000100002SLI14000E3GGSL
NJARET21060-32903-50803-10000048D0000186D0000700001SLI14000A3GGSL
NJARET21060-32903-52340-90000006D0000028D0000500000SVN24000B9GGSL
NJARET21060-32903-53271-50000024D0000214D0001700000SLI24000E2GGSL
NJARET21060-32903-56391-70000180D0000671D0000000000HSI10008A1GGSL
NJARET21060-32903-57235-30000012D0000122D0000500000VNP30000B9GGSL
NJARET21060-32903-57495-10000006D0000033D0000600000SVN30000B9GGSL
NJARET21060-32903-58838-50000006D0000025D0000400000SVN18000B9GGSL
NJARET21060-32903-61636-10000084D0000313D0001700005HSI10008B6GGSL
NJARET21060-32903-66002-90000020D0000312D0000000000ROP28000E3GGSL
NJARET21060-32903-71041-00000006D0000040D0000000000RZWC1G0E3 GGSL
NJARET21060-32903-72233-80000324D0001332D0000300003LIA10000B9GGSL
NJARET21060-32903-72518-60000008D0000072D0000000000RZWC2G0B9 GGSL
NJARET21060-32903-75049-20000066D0000472D0000500000SLI20000E3GGSL
NJARET21060-32903-75051-50000036D0000168D0000500000SLI17000A3GGSL
NJARET21060-32903-75057-70000060D0000262D0000200000SLI17000B9GGSL
NJARET21060-32903-75070-60000030D0000215D0000500000SLI20000A3GGSL
NJARET21060-32903-75080-50000192D0000826D0000000000SLI17000E3GGSL
NJARET21060-32903-75081-20000018D0000129D0000200000SLI20000B9GGSL
NJARET21060-32903-75084-30000024D0000214D0000600000SLI24000A3GGSL
NJARET21060-32903-75089-80000030D0000267D0000900000SLI24000B9GGSL
NJARET21060-32903-91270-80000001D0000044D0000000000RZGH210E3 GGSL
NJARET21060-32903-91319-40000006D0000105D0000000000TEA17000G8GGSL
NJARET21060-32903-91485-60000035D0000471D0002900001SPX24DBA34GGSL
NJARET21060-32903-91610-20000010D0000066D0000000000IFA1200E21GGSL
NJARET21060-33200-00020-40006132D0004364D00440004403320000020GGSL
NJARET21060-33200-00544-50017208D0172424D116930798900544     GGSL
NJARET21060-33200-01191-00000516D0003648D005750015601191     GGSL
NJARET21060-33200-06527-20000089D0001601D04499003376527      GGSL
NJARET21060-33200-09020-50000084D0000587D002470006009020     GGSL
NJARET21060-33200-09142-40000172D0001202D002540021209142     GGSL
NJARET21060-33200-09293-30002004D0014022D01854005779293      GGSL
NJARET21060-33200-09793-80000002D0000019D00052000009793      GGSL
NJARET21060-33200-11321-80000480D0000639D003280014111321     GGSL
NJARET21060-33200-11448-20000012D0000018D000940000011448     GGSL
NJARET21060-33200-94182-80009876D0098955D110580801294182     GGSL
NJARET21060-33200-97242-60000016D0000127D001970000097242     GGSL
NJARET21060-33200-97457-40004960D0051634D046460216097457     GGSL
NJARET21060-33349-00130-80001404D0000168D0000100000JP3BULK   GGSL
NJARET21060-33349-05618-60000064D0000368D0000700000G310      GGSL
NJARET21060-33349-41701-70002000D0000242D0001400000J4BULK    GGSL
NJARET21060-33349-66006-20000020D0000210D0000000000J450ST20  GGSL
NJARET21060-33349-66008-60000010D0000143D0000800000J636ST10  GGSL
NJARET21060-33349-66009-30000028D0000179D0000900000T72HST14  GGSL
NJARET21060-33607-00003-60000020D0000640D0001000000EDGE180   GGSL
NJARET21060-33607-00320-40000002D0000260D0000000000TTMIX124  GGSL
NJARET21060-33607-01208-40000006D0000116D0000000000LT8       GGSL
NJARET21060-33607-01220-60000018D0000466D0005200000LT20      GGSL
NJARET21060-33607-22000-70000120D0001313D0000900000HCWM1     GGSL
NJARET21060-33607-22005-20000044D0001156D0002400000HC2       GGSL
NJARET21060-33607-22006-90000004D0000109D0002400000HBE6      GGSL
NJARET21060-33607-22010-60000028D0000851D0003000000HCF3      GGSL
NJARET21060-33607-22075-50000016D0001483D0000600006HTC1      GGSL
NJARET21060-33607-22125-70000005D0000599D0000800000HT2EZ     GGSL
NJARET21060-33607-22250-60000001D0000144D0001700000HT4EZ     GGSL
NJARET21060-33607-22310-70000006D0000051D0000400000HG18      GGSL
NJARET21060-33607-51200-30000008D0000288D0000600000RC3       GGSL
NJARET21060-33607-52100-50000016D0000832D0002100001GKS2      GGSL
NJARET21060-34411-00164-60000004D0000021D0000000000 01MZ     GGSL
NJARET21060-34411-02807-00000012D0000041D00001000008210121001GGSL
NJARET21060-34411-02971-80000006D0000142D00073000008550321001GGSL
NJARET21060-34411-03134-60000024D0000248D00001000008201921001GGSL
NJARET21060-34411-05711-70000012D0000055D0045500000 571TFR   GGSL
NJARET21060-34411-11208-30000004D0000243D00002000008437511002GGSL
NJARET21060-34411-18845-30000016D0000121D00000000008883031012GGSL
NJARET21060-34411-26182-80000006D0000104D00001000008216731011GGSL
NJARET21060-34411-60153-20000003D0000080D0000000000 25034050 GGSL
NJARET21060-34411-74001-90000138D0006855D00007000068740011001GGSL
NJARET21060-34411-74501-40000102D0002892D00019000088745011002GGSL
NJARET21060-34411-80013-30000042D0000559D00000000008800131011GGSL
NJARET21060-34411-80203-80000006D0000109D00000000008802031011GGSL
NJARET21060-34613-00011-90000012D0000103D0001900000LH011     GGSL
NJARET21060-34613-00014-00000036D0000310D0000000000LH014     GGSL
NJARET21060-34613-00072-00000012D0000196D0000000000TP72      GGSL
NJARET21060-34613-00225-00000675D0003557D0015900003225       GGSL
NJARET21060-34613-00325-70000250D0002070D0017900001325       GGSL
NJARET21060-34613-00342-40000024D0000090D0000000000342       GGSL
NJARET21060-34613-00425-40000100D0001098D0004100001425       GGSL
NJARET21060-34613-00455-10000024D0000090D0000000000455       GGSL
NJARET21060-34613-00471-10000002D0000263D0000400000 N612A    GGSL
NJARET21060-34613-00803-00000100D0000112D0000000000SS3       GGSL
NJARET21060-34613-00804-70000120D0000193D0000500003SS4       GGSL
NJARET21060-34613-00805-40000160D0000296D0002300001SS5       GGSL
NJARET21060-34613-00806-10000100D0000253D0000000000SS6       GGSL
NJARET21060-34613-01064-40000012D0000144D00062000001064      GGSL
NJARET21060-34613-01150-40000040D0000154D00012000031150PDQ   GGSL
NJARET21060-34613-01904-30000012D0000105D00000000001904      GGSL
NJARET21060-34613-03104-50000018D0000174D00013000013104      GGSL
NJARET21060-34613-03105-20000024D0000291D00001000013105      GGSL
NJARET21060-34613-04856-20000024D0000117D00004000048131BL    GGSL
NJARET21060-34613-04870-80000012D0000150D0000000000LH015BL   GGSL
NJARET21060-34613-04879-10000018D0000283D00001000004879BL    GGSL
NJARET21060-34613-07161-40000024D0000157D00004000047161BL    GGSL
NJARET21060-34613-07174-40000012D0000123D00004000007174BL    GGSL
NJARET21060-34613-08140-80000012D0000177D00001000008140      GGSL
NJARET21060-34613-09501-60000036D0000541D00003000009501      GGSL
NJARET21060-34613-09509-20000024D0000117D00000000009509      GGSL
NJARET21060-34613-34012-30000050D0000055D0000300003CVS012    GGSL
NJARET21060-34613-34014-70000025D0000037D0000900002CVS014    GGSL
NJARET21060-34613-59738-10000139D0004786D006310062759738     GGSL
NJARET21060-34613-59739-80000101D0003257D005690049659739     GGSL
NJARET21060-34613-59740-40000127D0004380D005430051159740     GGSL
NJARET21060-34613-59741-10000074D0002106D006760054659741     GGSL
NJARET21060-34613-59774-90000006D0001489D000060000359774     GGSL
NJARET21060-34613-59946-00000106D0006808D002930021159946     GGSL
NJARET21060-34613-59947-70000097D0005891D003020022259947     GGSL
NJARET21060-34613-60479-90000009D0000200D000820000060479A    GGSL
NJARET21060-34613-60481-20000001D0000038D000000000060481A    GGSL
NJARET21060-34613-65497-80000151D0005234D006790064465497     GGSL
NJARET21060-34613-65498-50000152D0005361D005410052065498     GGSL
NJARET21060-34613-65499-20000286D0009892D002640026465499     GGSL
NJARET21060-34613-65677-40000126D0004177D004910042665677     GGSL
NJARET21060-34613-65678-10000304D0010463D005730053265678     GGSL
NJARET21060-34613-65679-80000168D0005472D007310062465679     GGSL
NJARET21060-34613-65680-40000209D0006355D005700046065680     GGSL
NJARET21060-34613-65681-10000251D0007994D006880055965681     GGSL
NJARET21060-34613-65682-80000110D0003833D006020049265682     GGSL
NJARET21060-34613-65767-20000195D0006132D002050017165767     GGSL
NJARET21060-34613-69880-40000002D0000232D000000000069880     GGSL
NJARET21060-34613-69884-20000035D0002110D000780003269884     GGSL
NJARET21060-34613-69885-90000050D0003050D001780011269885     GGSL
NJARET21060-34613-69886-60000039D0002318D001140006769886     GGSL
NJARET21060-34613-70734-60000030D0000332D000000000070734BL   GGSL
NJARET21060-34613-70739-10000060D0000491D000000000070739BL   GGSL
NJARET21060-34613-70740-70000024D0000216D000000000070740BL   GGSL
NJARET21060-34613-93506-00000024D0000090D000000000093506     GGSL
NJARET21060-34613-95006-30000012D0000114D000000000095006     GGSL
NJARET21060-34613-96006-20000006D0000063D000000000096006     GGSL
NJARET21060-35000-05361-90003000D0002052D0047500114105375    GGSL
NJARET21060-35000-05364-00000936D0000919D0026200262105374    GGSL
NJARET21060-35000-14112-50000522D0002584D004290006414477     GGSL
NJARET21060-35000-14328-00000030D0000149D003920002214483     GGSL
NJARET21060-35000-14424-90000072D0000076D000090000914424     GGSL
NJARET21060-35000-44627-50000520D0000546D0007700060144630    GGSL
NJARET21060-35000-44673-20001134D0001706D003210032144673     GGSL
NJARET21060-35000-44678-70000009D0000014D000810008344678     GGSL
NJARET21060-35000-45038-50000756D0001459D0007100071US04232A  GGSL
NJARET21060-35000-45041-50000108D0000232D0004000046US04229A  GGSL
NJARET21060-35000-45072-20000423D0001074D0000300001US04274A  GGSL
NJARET21060-35000-45118-40001935D0004160D0008900089US04268A  GGSL
NJARET21060-35000-45122-40000004D0000025D0007900000US04284A  GGSL
NJARET21060-35000-45225-20000004D0000024D0005900000US04432A  GGSL
NJARET21060-35000-45816-20000348D0002105D0024000114MX04966A  GGSL
NJARET21060-35000-46413-20000340D0000357D000940006646413     GGSL
NJARET21060-35000-47041-60000348D0000940D0016700021MX06157A  GGSL
NJARET21060-35000-47805-40000090D0000212D000980004547805     GGSL
NJARET21060-35000-49110-70000004D0000024D000590000049110     GGSL
NJARET21060-35000-49861-80000612D0001457D001030010349861     GGSL
NJARET21060-35000-49862-50000360D0000756D000000000049862     GGSL
NJARET21060-35000-49863-20000360D0000756D000000000049863     GGSL
NJARET21060-35000-53030-10000078D0000222D0010200067153043    GGSL
NJARET21060-35000-53031-80000006D0000024D0011100000153042    GGSL
NJARET21060-35000-53032-50000372D0000914D0044200311153041    GGSL
NJARET21060-35000-53058-50002936D0013770D028970191053058     GGSL
NJARET21060-35000-53060-80000992D0004646D020820051053060     GGSL
NJARET21060-35000-53099-80000582D0001339D030780033753099     GGSL
NJARET21060-35000-53122-30001284D0007847D040710104253122     GGSL
NJARET21060-35000-96987-30000234D0001416D0067700350MX06813A  GGSL
NJARET21060-35000-97018-30000112D0000721D0062700162US06329A  GGSL
NJARET21060-35000-97301-60000024D0000159D0018800000US06489A  GGSL
NJARET21060-35000-97335-10000004D0000034D0151900003US06517A  GGSL
NJARET21060-35000-97336-80000800D0004784D0162400552US06516A  GGSL
NJARET21060-35000-98324-40000364D0001784D0048600076US07139A  GGSL
NJARET21060-35000-98595-80000060D0000271D0005800013US07369A  GGSL
NJARET21060-35000-98631-30001152D0001187D0004900049MX07180A  GGSL
NJARET21060-35000-98635-10000120D0000124D0002200020MX07179A  GGSL
NJARET21060-35110-01900-00000284D0002471D002010013001900     GGSL
NJARET21060-35110-01903-10000256D0002432D000840003601903     GGSL
NJARET21060-35110-04915-10000008D0000077D000000000004915     GGSL
NJARET21060-35127-69982-00000012D0000078D0000000000ARBSWINGTNGGSL
NJARET21060-35307-00402-40000012D0000045D0000000000402       GGSL
NJARET21060-35307-00404-80000012D0000045D0000800003404       GGSL
NJARET21060-35307-00650-90000060D0000446D0000400000A650      GGSL
NJARET21060-35307-00781-00000012D0000107D0000300000781       GGSL
NJARET21060-35307-00782-70000036D0000329D0000200000782       GGSL
NJARET21060-35307-00808-40000096D0000256D0000700005808       GGSL
NJARET21060-35307-00810-70000612D0001277D0000200002810       GGSL
NJARET21060-35307-00817-60000012D0000028D0000100000817       GGSL
NJARET21060-35307-00818-30000060D0000106D0001000005818       GGSL
NJARET21060-35307-00838-10000420D0001253D0001200003838       GGSL
NJARET21060-35307-00839-80000024D0000081D0000000000839       GGSL
NJARET21060-35307-00841-10000504D0000985D0006100003841       GGSL
NJARET21060-35307-00843-50000012D0000035D0003500003843       GGSL
NJARET21060-35307-00844-20000012D0000028D0003500004844       GGSL
NJARET21060-35307-00845-90000216D0000842D0000100000845       GGSL
NJARET21060-35307-00857-20000024D0000132D0002500009857       GGSL
NJARET21060-35307-00861-90000024D0000064D0005300016861       GGSL
NJARET21060-35307-00862-60000168D0000459D0001700004862       GGSL
NJARET21060-35307-00864-00000036D0000141D0000100001864       GGSL
NJARET21060-35307-00875-60000012D0000042D0000000000875       GGSL
NJARET21060-35307-00877-00000156D0000241D0002200002877       GGSL
NJARET21060-35307-00930-20000006D0000177D0000000000930       GGSL
NJARET21060-35307-00970-80000012D0000110D0000000000970       GGSL
NJARET21060-35307-00971-50000132D0000694D0001400001971       GGSL
NJARET21060-35307-00972-20000132D0000743D0001800001972       GGSL
NJARET21060-35307-00977-70000012D0000032D0001000000977       GGSL
NJARET21060-35307-00978-40000084D0000443D0000100001978       GGSL
NJARET21060-35307-01035-30000312D0000779D00006000001035      GGSL
NJARET21060-35307-01040-70000288D0000868D00000000001040      GGSL
NJARET21060-35307-01050-60000264D0001304D00002000001050      GGSL
NJARET21060-35307-01601-00000006D0000073D00003000001601      GGSL
NJARET21060-35307-01609-60000012D0000049D00001000011609CS    GGSL
NJARET21060-35307-01612-60000048D0000195D00000000001612      GGSL
NJARET21060-35307-01618-80000012D0000076D00008000001618      GGSL
NJARET21060-35307-01625-60000006D0000069D00000000001625      GGSL
NJARET21060-35307-01640-90000024D0000133D00008000001640      GGSL
NJARET21060-35307-01810-60000204D0000939D00003000031810      GGSL
NJARET21060-35307-01815-10000012D0000074D00000000001815      GGSL
NJARET21060-35307-01818-20000006D0000059D000000000018186     GGSL
NJARET21060-35307-01820-50000012D0000132D00000000001820      GGSL
NJARET21060-35307-01830-40000030D0000493D00002000001830      GGSL
NJARET21060-35307-01840-30000006D0000093D00000000001840      GGSL
NJARET21060-35307-01845-80000048D0000564D00006000001845      GGSL
NJARET21060-35307-01880-90000003D0000075D00015000001880      GGSL
NJARET21060-35307-90872-80000048D0000175D0001100003872       GGSL
NJARET21060-35951-07000-00000036D0000383D000120000007000     GGSL
NJARET21060-35951-07013-00000001D0000318D000090000007014     GGSL
NJARET21060-36151-46825-30000030D0000821D00038000002646825   GGSL
NJARET21060-36241-97161-80000004D0000038D001110000097161     GGSL
NJARET21060-36241-97402-20000024D0000114D0033500000974022    GGSL
NJARET21060-36348-00645-90000006D0000098D00005000000645      GGSL
NJARET21060-36348-00745-60000001D0000019D00016000000745      GGSL
NJARET21060-36348-01020-30000015D0000250D00045000001020      GGSL
NJARET21060-36348-01025-80000009D0000263D00000000001025      GGSL
NJARET21060-36348-01079-10000001D0000043D00014000001079      GGSL
NJARET21060-36348-05277-70000012D0000360D00000000005277      GGSL
NJARET21060-36434-12340-40000006D0000013D00002000026012340   GGSL
NJARET21060-36434-12341-10000048D0000521D00000000001012341   GGSL
NJARET21060-36434-12342-80000048D0000300D00033000016012342   GGSL
NJARET21060-36434-12344-20000006D0000050D00000000006012344   GGSL
NJARET21060-36434-12346-60000018D0000083D00045000026012346   GGSL
NJARET21060-36434-12348-00000008D0000077D00000000001012348   GGSL
NJARET21060-36434-12350-30000006D0000038D00000000006012350   GGSL
NJARET21060-36434-12351-00000006D0000028D00001000006012351   GGSL
NJARET21060-36434-12352-70000018D0000170D00001000011012352   GGSL
NJARET21060-36434-12353-40000084D0001380D00036000046012353   GGSL
NJARET21060-36434-12358-90000006D0000079D00000000001012358   GGSL
NJARET21060-36434-12363-30000006D0000206D00000000001012363   GGSL
NJARET21060-36434-12368-80000012D0000114D00000000001012368   GGSL
NJARET21060-36434-12420-30000348D0003790D00021000021012420   GGSL
NJARET21060-36434-12700-60001452D0012219D00025000241012700   GGSL
NJARET21060-36434-12701-30000030D0000250D00000000006012701   GGSL
NJARET21060-36434-12704-40000006D0000050D00002000026012704   GGSL
NJARET21060-36434-12705-10000018D0000150D00002000006012705   GGSL
NJARET21060-36434-12710-50000060D0000437D00000000001012710   GGSL
NJARET21060-36434-12720-40000144D0000911D00048000031012720   GGSL
NJARET21060-36434-13001-30000180D0000925D00046000001013001   GGSL
NJARET21060-36434-13200-00000012D0000061D00010000006013200   GGSL
NJARET21060-36434-13812-50000024D0000436D00000000001013812   GGSL
NJARET21060-36434-13825-50000006D0000067D00023000006013825   GGSL
NJARET21060-36434-13860-60000024D0000364D00000000001013860   GGSL
NJARET21060-36434-15000-40000168D0005482D00003000031015000   GGSL
NJARET21060-36434-15020-20000054D0000954D00031000011015020   GGSL
NJARET21060-36434-15030-10000150D0003162D00010000001015030   GGSL
NJARET21060-36434-15040-00000102D0001025D00062000001015040   GGSL
NJARET21060-36434-15060-80000174D0002648D00040000001015050   GGSL
NJARET21060-36434-15060-80000072D0001096D00016000001015060   GGSL
NJARET21060-36434-17000-20000036D0001680D00042000031017000   GGSL
NJARET21060-36434-17010-10000048D0001054D00013000091017010   GGSL
NJARET21060-36434-17020-00000144D0002256D00036000061017020   GGSL
NJARET21060-36434-17050-70000252D0004604D00009000001017050   GGSL
NJARET21060-36434-17051-40000096D0001169D00009000001017051   GGSL
NJARET21060-36434-18037-70000024D0000206D00009000001018037   GGSL
NJARET21060-36434-22310-40000006D0000034D00001000006022310   GGSL
NJARET21060-36434-22314-20000006D0000054D00000000006022314   GGSL
NJARET21060-36434-22318-00000030D0000122D00055000026022318   GGSL
NJARET21060-36434-22341-80000096D0001042D00004000001022341   GGSL
NJARET21060-36434-22728-70000006D0000077D00000000006022728   GGSL
NJARET21060-36434-22729-40000006D0000079D00001000016022729   GGSL
NJARET21060-36434-28040-40000348D0004865D00016000001028040   GGSL
NJARET21060-37000-00992-40000400D0004444D000000000000992     GGSL
NJARET21060-37000-00995-50000200D0002222D000000000000995     GGSL
NJARET21060-37000-00997-90000440D0004888D000100000000997     GGSL
NJARET21060-37000-07312-30001320D0011603D000320000007312     GGSL
NJARET21060-37000-10631-90000126D0000827D000090000010631     GGSL
NJARET21060-37000-16943-70000009D0000039D0000000000169434    GGSL
NJARET21060-37000-23679-50000840D0003058D001500000077810     GGSL
NJARET21060-37000-24684-80001422D0012499D002670000024684     GGSL
NJARET21060-37000-31821-70000384D0001240D000000000013093     GGSL
NJARET21060-37000-31836-10000504D0003533D000000000031836     GGSL
NJARET21060-37000-35154-20001296D0004186D000000000008622     GGSL
NJARET21060-37000-40215-20000192D0002100D000690000040215     GGSL
NJARET21060-37000-40509-20000924D0002985D000000000011804     GGSL
NJARET21060-37000-41767-50000792D0004823D000000000021459     GGSL
NJARET21060-37000-41827-60000468D0004717D000000000041827     GGSL
NJARET21060-37000-44750-40000240D0001601D000000000082074     GGSL
NJARET21060-37000-73378-20000248D0001944D000030000073378     GGSL
NJARET21060-37000-76337-60000436D0003340D000110000076337     GGSL
NJARET21060-37000-87848-30001566D0006123D000990000087848     GGSL
NJARET21060-37000-92811-90000032D0000592D000260000092811     GGSL
NJARET21060-37000-92815-70000720D0006559D000000000092815     GGSL
NJARET21060-37000-99042-00000512D0003118D000000000099042     GGSL
NJARET21060-37321-00022-80011532D0076670D0022200221022       GGSL
NJARET21060-37321-00023-50000468D0009422D0001200012023       GGSL
NJARET21060-37321-00024-20002136D0026377D0000500008024       GGSL
NJARET21060-37321-00050-10000360D0000360D0001300001050       GGSL
NJARET21060-37321-00051-80000048D0000594D0000100001051       GGSL
NJARET21060-37321-00053-20000048D0000134D0000000000053       GGSL
NJARET21060-37321-00055-60000003D0000043D0002300011055       GGSL
NJARET21060-37321-00061-70000036D0000261D0000100001061       GGSL
NJARET21060-37321-00068-60000108D0000578D0000700000068       GGSL
NJARET21060-37321-00069-30000228D0003073D0002500001069       GGSL
NJARET21060-37321-00070-90000060D0000923D0001000000070       GGSL
NJARET21060-37321-00081-50000012D0000081D0000000001081       GGSL
NJARET21060-37321-00097-60000180D0000985D0000300001097       GGSL
NJARET21060-37321-00098-30000075D0000357D0000400000098       GGSL
NJARET21060-37321-00099-00000036D0000250D0000600000099       GGSL
NJARET21060-37321-00102-70000036D0000440D0001500000102       GGSL
NJARET21060-37321-00121-80000008D0000094D0000000000121       GGSL
NJARET21060-37321-00127-00002868D0025273D0001500010127       GGSL
NJARET21060-37321-00142-30000096D0000881D0000200002142       GGSL
NJARET21060-37321-00147-80000036D0000243D0000100000147       GGSL
NJARET21060-37321-00150-80000276D0004615D0000000000150       GGSL
NJARET21060-37321-00160-70000060D0000212D0002000002160       GGSL
NJARET21060-37321-00161-40000300D0001544D0000500000161       GGSL
NJARET21060-37321-00165-20000012D0000146D0001000000165       GGSL
NJARET21060-37321-00166-90000060D0000337D0001200000166       GGSL
NJARET21060-37321-00167-60000312D0001942D0005200003167       GGSL
NJARET21060-37321-00197-30000096D0000583D0000000000197       GGSL
NJARET21060-37321-00202-40000300D0003271D0000100001202       GGSL
NJARET21060-37321-00203-10000120D0001866D0000000000203       GGSL
NJARET21060-37321-00204-80000036D0001052D0004600001204       GGSL
NJARET21060-37321-00205-50000008D0000433D0000500000205       GGSL
NJARET21060-37321-00210-90000168D0001001D0000000000210       GGSL
NJARET21060-37321-00211-60000240D0002071D0000000000211       GGSL
NJARET21060-37321-00212-30000040D0000794D0000100001212       GGSL
NJARET21060-37321-00213-00000336D0003534D0000300003213       GGSL
NJARET21060-37321-00216-10000048D0000809D0000000000216       GGSL
NJARET21060-37321-00217-80000084D0000890D0000000000217       GGSL
NJARET21060-37321-00218-50000216D0003359D0021200000218       GGSL
NJARET21060-37321-00221-50000312D0001762D0000100000221       GGSL
NJARET21060-37321-00225-30000132D0000762D0001200000225       GGSL
NJARET21060-37321-00230-70000984D0008602D0000500005230       GGSL
NJARET21060-37321-00237-60000036D0000486D0004800022237       GGSL
NJARET21060-37321-00238-30001704D0014169D0006400021238       GGSL
NJARET21060-37321-00239-00000120D0002724D0001500001239       GGSL
NJARET21060-37321-00240-60000048D0000809D0001600006240       GGSL
NJARET21060-37321-00250-50005580D0029768D0006100053250       GGSL
NJARET21060-37321-00252-90000312D0003784D0000000000252       GGSL
NJARET21060-37321-00253-60000276D0005489D0000200002253       GGSL
NJARET21060-37321-00255-00002088D0042095D0000200002255       GGSL
NJARET21060-37321-00257-40000468D0001840D0000200002257       GGSL
NJARET21060-37321-00258-10000324D0002138D0001300001258       GGSL
NJARET21060-37321-00272-70000156D0000631D0000900000272       GGSL
NJARET21060-37321-00276-50000048D0000701D0000900001276       GGSL
NJARET21060-37321-00301-40000024D0000208D0000000000301       GGSL
NJARET21060-37321-00307-60001284D0005946D0002400011307       GGSL
NJARET21060-37321-00308-30000552D0005580D0003600003308       GGSL
NJARET21060-37321-00309-00000168D0002954D0000000000309       GGSL
NJARET21060-37321-00310-60000072D0002203D0000100000310       GGSL
NJARET21060-37321-00311-30000084D0002703D0000000000311       GGSL
NJARET21060-37321-00321-20000066D0000401D0000000000321       GGSL
NJARET21060-37321-00322-90000024D0000453D0000000000322       GGSL
NJARET21060-37321-00323-60000030D0000306D0000000000323       GGSL
NJARET21060-37321-00330-40000108D0001047D0000000000330       GGSL
NJARET21060-37321-00331-10000024D0000394D0000000000331       GGSL
NJARET21060-37321-00363-20001476D0006651D0005800018363       GGSL
NJARET21060-37321-00370-00000024D0000111D0000000000370       GGSL
NJARET21060-37321-00371-70000048D0000295D0000000000371       GGSL
NJARET21060-37321-00411-00000168D0000563D0000600003411       GGSL
NJARET21060-37321-00412-70000120D0000587D0000000000412       GGSL
NJARET21060-37321-00413-40000020D0000243D0000000000413       GGSL
NJARET21060-37321-00414-10000002D0000054D0000000000414       GGSL
NJARET21060-37321-00426-40000468D0004781D0000100001426       GGSL
NJARET21060-37321-00428-80002520D0009327D0003100023428       GGSL
NJARET21060-37321-00429-50000009D0000175D0000000000429       GGSL
NJARET21060-37321-00442-40001776D0012006D0003200015442       GGSL
NJARET21060-37321-00443-10000180D0002066D0000500002443       GGSL
NJARET21060-37321-00506-30000132D0000614D0022900137506       GGSL
NJARET21060-37321-00527-80000012D0000052D0000700000527       GGSL
NJARET21060-37321-00530-80000008D0000076D0001900000530       GGSL
NJARET21060-37321-00543-80000108D0000334D0000000000543       GGSL
NJARET21060-37321-00544-50000192D0001147D0004000001544       GGSL
NJARET21060-37321-00549-00000036D0000355D0002000002549       GGSL
NJARET21060-37321-00560-50000108D0000490D0000300000560       GGSL
NJARET21060-37321-00564-30000024D0000259D0000200002564       GGSL
NJARET21060-37321-00567-40000012D0000156D0000000000567       GGSL
NJARET21060-37321-00568-10000012D0000294D0000000000568       GGSL
NJARET21060-37321-00571-10000048D0000355D0000300001571       GGSL
NJARET21060-37321-00573-50000024D0000092D0000200000573       GGSL
NJARET21060-37321-00577-30000012D0000046D0000000000577       GGSL
NJARET21060-37321-00603-90000016D0000209D0003000000603       GGSL
NJARET21060-37321-00603-90000150D0001538D000000000060315     GGSL
NJARET21060-37321-00603-90000062D0000636D001860000060315X    GGSL
NJARET21060-37321-00609-10000276D0003046D0000600002609       GGSL
NJARET21060-37321-00611-40000040D0001026D0000000000611       GGSL
NJARET21060-37321-00611-40000024D0000576D000010000061146     GGSL
NJARET21060-37321-00611-40000048D0001052D000000000061148     GGSL
NJARET21060-37321-00612-10000048D0000260D00076000520612      GGSL
NJARET21060-37321-00613-80000016D0000222D00005000000613      GGSL
NJARET21060-37321-00622-00000216D0000672D0000200000622       GGSL
NJARET21060-37321-00623-70000072D0000439D0000000000623       GGSL
NJARET21060-37321-00629-90000072D0000241D0000100001629       GGSL
NJARET21060-37321-00631-20000108D0000438D0000100003631       GGSL
NJARET21060-37321-00652-70000036D0000195D0000200002652       GGSL
NJARET21060-37321-00655-80000324D0002177D00002000026556      GGSL
NJARET21060-37321-00680-00000432D0004173D0004900002680       GGSL
NJARET21060-37321-00681-70000012D0000166D00025000000681      GGSL
NJARET21060-37321-00687-90000072D0000978D0000200002687       GGSL
NJARET21060-37321-00688-60001056D0006775D0000500005688       GGSL
NJARET21060-37321-00690-90000024D0000219D0000000000690       GGSL
NJARET21060-37321-00691-60000054D0000438D0000500001691       GGSL
NJARET21060-37321-00691-60000054D0000453D000010000069127     GGSL
NJARET21060-37321-00692-30000144D0001888D0000200002692       GGSL
NJARET21060-37321-00692-30000075D0000844D0001400005692X      GGSL
NJARET21060-37321-00692-30000050D0000628D000000000069250     GGSL
NJARET21060-37321-00698-50000036D0000214D0000300001698       GGSL
NJARET21060-37321-00705-00000024D0000154D0000000000705       GGSL
NJARET21060-37321-00728-90000108D0001352D0001700000728       GGSL
NJARET21060-37321-00731-90000004D0000040D0000000000731       GGSL
NJARET21060-37321-00753-10000006D0000064D0001900008753       GGSL
NJARET21060-37321-00754-80000004D0000125D0000800000754       GGSL
NJARET21060-37321-00757-90000030D0000131D0000100001757       GGSL
NJARET21060-37321-00758-60000016D0000165D0002200001758       GGSL
NJARET21060-37321-00759-30000006D0000094D0000300001759       GGSL
NJARET21060-37321-00775-30001392D0008267D0001000009775       GGSL
NJARET21060-37321-00784-50000012D0000036D0000000000784       GGSL
NJARET21060-37321-00786-90000384D0001833D0003500011786       GGSL
NJARET21060-37321-00789-00000079D0000526D0043000002789       GGSL
NJARET21060-37321-00802-60000012D0000072D0000000000802       GGSL
NJARET21060-37321-00806-40002844D0023250D0010700075806       GGSL
NJARET21060-37321-00807-10000116D0002999D0000500002807       GGSL
NJARET21060-37321-00811-80000612D0007241D0001500003811       GGSL
NJARET21060-37321-00813-20000078D0001112D0000700007813       GGSL
NJARET21060-37321-00814-90000084D0002029D0000300002814       GGSL
NJARET21060-37321-00857-60000204D0001891D0000500000857       GGSL
NJARET21060-37321-00858-30000012D0000183D0000000000858       GGSL
NJARET21060-37321-00865-10000144D0000797D0000700001865       GGSL
NJARET21060-37321-00866-80000090D0001412D0007900000866       GGSL
NJARET21060-37321-00870-50000036D0000167D0000700000870       GGSL
NJARET21060-37321-00871-20000120D0001104D0000000000871       GGSL
NJARET21060-37321-00875-00000036D0000379D0000000000875       GGSL
NJARET21060-37321-00883-50000324D0001724D0041300258883       GGSL
NJARET21060-37321-00894-10000012D0000109D0000400000894       GGSL
NJARET21060-37321-00897-20001080D0006835D0000800008897       GGSL
NJARET21060-37321-00903-00000720D0004866D0002000013903       GGSL
NJARET21060-37321-00904-70000156D0001361D0000100001904       GGSL
NJARET21060-37321-00908-50000384D0004052D0001100007908       GGSL
NJARET21060-37321-00909-20000240D0004744D0001400006909       GGSL
NJARET21060-37321-00925-20000756D0002278D0000200005925       GGSL
NJARET21060-37321-00941-20000264D0002971D0000100001941       GGSL
NJARET21060-37321-00944-30000036D0000208D0000100000944       GGSL
NJARET21060-37321-00945-00000063D0000627D0000500000945       GGSL
NJARET21060-37321-00946-70000008D0000075D0000400000946       GGSL
NJARET21060-37321-00946-70000027D0000252D000020000094627     GGSL
NJARET21060-37321-00947-40000054D0000472D0000000000947       GGSL
NJARET21060-37321-00951-10000264D0001223D0021200213951       GGSL
NJARET21060-37321-01971-80000120D0000572D00000000001971      GGSL
NJARET21060-37321-01972-50000252D0001102D00001000001972      GGSL
