TXBWIC2106D-IS21S-00000-00000024D0022320D0000000000DIS21SHOE6GGSL
TXBWIC21060-00402-00000-00002103D0086219D0244400114          GGSL
TXBWIC21060-00402-01012-60000061D0006146D00392000141012      GGSL
TXBWIC21060-00402-01014-00000419D0030407D01079000171014      GGSL
TXBWIC21060-00402-01492-60000020D0000066D000570000014SSB     GGSL
TXBWIC21060-00402-01499-50000020D0000066D000340000014SS      GGSL
TXBWIC21060-00402-02419-20000015D0000333D000440000110XS-20   GGSL
TXBWIC21060-00402-02699-50000300D0000320D004600000010XS-20B  GGSL
TXBWIC21060-00402-02750-60000300D0001277D0040000250B75       GGSL
TXBWIC21060-00402-05418-20000025D0000075D00525000505418      GGSL
TXBWIC21060-00402-10142-80000551D0036946D004260008310145B    GGSL
TXBWIC21060-00402-10147-30000019D0001569D00090000001014 G    GGSL
TXBWIC21060-00402-11730-60000175D0000715D001000010011730     GGSL
TXBWIC21060-00402-14312-10000006D0000023D000220001014CSB     GGSL
TXBWIC21060-00402-14411-10000022D0001377D0015800000144SSBK   GGSL
TXBWIC21060-00402-14562-00000020D0000064D000000000014EPB     GGSL
TXBWIC21060-00402-21012-00000090D0005490D00030000001012B     GGSL
TXBWIC21060-00402-22117-10000050D0000020D0000000000VSC117    GGSL
TXBWIC21060-00402-33117-70000525D0000191D0137500075PC11-7    GGSL
TXBWIC21060-00402-33354-60002125D0000281D0392500025PC5-4     GGSL
TXBWIC21060-00402-33375-10001700D0000332D0200000325PC7-5     GGSL
TXBWIC21060-00402-41819-90000015D0000131D001600001814TRS     GGSL
TXBWIC21060-00772-06030-10000006D0000040D00000000006030      GGSL
TXBWIC21060-00772-06038-70000001D0000043D00000000006038      GGSL
TXBWIC21060-00772-06060-80000020D0000097D00000000006060      GGSL
TXBWIC21060-00772-06062-20000008D0000039D00000000006062      GGSL
TXBWIC21060-00772-06090-50000002D0000058D00000000006090      GGSL
TXBWIC21060-00772-06091-20000001D0000029D00000000006091      GGSL
TXBWIC21060-00772-06092-90000002D0000044D00000000006092      GGSL
TXBWIC21060-00772-06093-60000003D0000064D00000000006093      GGSL
TXBWIC21060-00772-06281-70000006D0000036D00000000006281      GGSL
TXBWIC21060-00772-06282-40000012D0000071D00000000006282      GGSL
TXBWIC21060-00772-06337-10000002D0000064D00000000006337      GGSL
TXBWIC21060-00772-06338-80000002D0000064D00000000006338      GGSL
TXBWIC21060-00772-06346-30000006D0000046D00000000006346      GGSL
TXBWIC21060-00772-06644-00000001D0000000D00000000006644      GGSL
TXBWIC21060-00772-06685-30000003D0000033D00000000006685      GGSL
TXBWIC21060-00772-06702-70000014D0000126D00000000006702      GGSL
TXBWIC21060-00772-06703-40000004D0000169D00000000006703      GGSL
TXBWIC21060-00772-06704-10000003D0000129D00000000006704      GGSL
TXBWIC21060-00772-06712-60000032D0000241D00000000006712      GGSL
TXBWIC21060-00772-06714-00000002D0000142D00000000006714      GGSL
TXBWIC21060-00772-06715-70000002D0000142D00000000006715      GGSL
TXBWIC21060-00772-06723-20000001D0000043D00000000006723      GGSL
TXBWIC21060-00772-06724-90000003D0000138D00000000006724      GGSL
TXBWIC21060-00772-06725-60000002D0000092D00000000006725      GGSL
TXBWIC21060-00772-06740-90000006D0000032D00000000006740      GGSL
TXBWIC21060-00772-06744-70000002D0000042D00000000006744      GGSL
TXBWIC21060-00772-06753-90000004D0000058D00000000006753      GGSL
TXBWIC21060-00772-06754-60000004D0000058D00000000006754      GGSL
TXBWIC21060-00772-08600-40000001D0000054D00000000008600      GGSL
TXBWIC21060-00772-09414-60000001D0000020D00000000009414      GGSL
TXBWIC21060-00772-09442-90000004D0000018D00000000009442      GGSL
TXBWIC21060-00772-30162-60000006D0000020D000000000030162     GGSL
TXBWIC21060-00772-30171-80000003D0000010D000000000030171     GGSL
TXBWIC21060-00772-30217-30000001D0000075D000000000030217     GGSL
TXBWIC21060-00772-30511-20000004D0000013D000000000030511     GGSL
TXBWIC21060-00772-30512-90000004D0000013D000000000030512     GGSL
TXBWIC21060-00772-30521-10000006D0000020D000000000030521     GGSL
TXBWIC21060-00772-30522-80000006D0000020D000000000030522     GGSL
TXBWIC21060-00772-31325-40000006D0000056D000000000031325     GGSL
TXBWIC21060-10367-00110-70000510D0002957D0000000900110       GGSL
TXBWIC21060-10367-00130-50000002D0000090D0000400000130.0     GGSL
TXBWIC21060-10367-00460-30000024D0000112D0016800032ML0460 8  GGSL
TXBWIC21060-10367-00560-00000056D0000202D0007200008ML0560 8  GGSL
TXBWIC21060-10367-00810-60000192D0000864D0000000108ML0810    GGSL
TXBWIC21060-10367-01110-60000032D0000089D00072000001110      GGSL
TXBWIC21060-10367-01111-30000040D0000109D00216000001111.0    GGSL
TXBWIC21060-10367-01112-00000032D0000084D00104000001112.0    GGSL
TXBWIC21060-10367-01120-50000040D0000090D00240000001120.0    GGSL
TXBWIC21060-10367-03010-70000008D0000047D0008000000ML3010    GGSL
TXBWIC21060-11247-00250-40000066D0002430D001140000000640     GGSL
TXBWIC21060-11247-00411-90000004D0000171D000000000000411     GGSL
TXBWIC21060-11247-00911-40000003D0000132D000000000800911     GGSL
TXBWIC21060-11247-00913-80000003D0000249D000000000200913     GGSL
TXBWIC21060-11247-00950-30000010D0000509D000000000000950     GGSL
TXBWIC21060-11247-01050-90000004D0000056D001460000001050     GGSL
TXBWIC21060-11247-01855-00000002D0000442D000000000001855     GGSL
TXBWIC21060-11247-02305-90000010D0002662D000000000002305     GGSL
TXBWIC21060-11247-02450-60000001D0000066D000010000002450     GGSL
TXBWIC21060-11247-03111-50000152D0004657D001880000003111     GGSL
TXBWIC21060-11247-03555-70000001D0000289D000000000003555     GGSL
TXBWIC21060-11247-04525-90000062D0001609D002680000204525     GGSL
TXBWIC21060-11247-05350-60000008D0000400D000480000005350     GGSL
TXBWIC21060-11247-05450-30000186D0006965D001010004405450     GGSL
TXBWIC21060-11247-11024-70000084D0000464D000000000011024     GGSL
TXBWIC21060-11247-12024-60000120D0000526D000000000012024     GGSL
TXBWIC21060-11247-13010-80000012D0000039D001260000013010     GGSL
TXBWIC21060-11247-16004-20000102D0000643D002160000016004     GGSL
TXBWIC21060-11247-20002-30000444D0002020D000000000020002     GGSL
TXBWIC21060-11247-20103-70000126D0000905D000000000020103     GGSL
TXBWIC21060-11247-21004-60000096D0000696D000000000021004     GGSL
TXBWIC21060-11247-26128-40000028D0000269D000000000026128     GGSL
TXBWIC21060-11247-26250-20000004D0000096D000000000026250     GGSL
TXBWIC21060-11247-29016-10000036D0000215D000000000029016     GGSL
TXBWIC21060-11247-30004-40000318D0002358D002280003630004     GGSL
TXBWIC21060-11247-52813-40000004D0000055D000930000052813     GGSL
TXBWIC21060-11247-52825-70000014D0000249D002120000452825     GGSL
TXBWIC21060-11247-52826-40000018D0000089D000060000052826     GGSL
TXBWIC21060-11247-52829-50000012D0000141D000480000652829     GGSL
TXBWIC21060-11247-52830-10000001D0000055D000060000052830     GGSL
TXBWIC21060-11247-52833-20000156D0000912D000000000052833     GGSL
TXBWIC21060-11247-52838-70000024D0000154D000000000052838     GGSL
TXBWIC21060-11247-52851-60000006D0000126D000000000052851     GGSL
TXBWIC21060-11247-52877-60000088D0004338D000560000052877     GGSL
TXBWIC21060-11247-52878-30000004D0000403D000000000052878     GGSL
TXBWIC21060-11247-52880-60000018D0000097D000000000052880     GGSL
TXBWIC21060-11247-52888-20000249D0001413D003930001852888     GGSL
TXBWIC21060-11247-52889-90000226D0003312D004930000552889     GGSL
TXBWIC21060-11247-52892-90000018D0000117D000000000052896     GGSL
TXBWIC21060-11247-60116-50000027D0000300D001320001260116     GGSL
TXBWIC21060-11247-61008-20001152D0008769D000000001261008     GGSL
TXBWIC21060-11247-61024-20000438D0002784D009390020461024     GGSL
TXBWIC21060-11247-70024-00000024D0000129D000000000070024     GGSL
TXBWIC21060-11247-70300-50000012D0000124D000000000070300     GGSL
TXBWIC21060-11247-71016-40000144D0001336D000240002471001     GGSL
TXBWIC21060-11247-71128-40000040D0000876D000000000071128     GGSL
TXBWIC21060-11247-71250-20000014D0000729D000000000071250     GGSL
TXBWIC21060-11247-90001-50000384D0001867D000720000090001     GGSL
TXBWIC21060-11247-90128-90000060D0000576D000520000090128     GGSL
TXBWIC21060-11247-90250-70000004D0000089D000000000090250     GGSL
TXBWIC21060-11423-00338-70000414D0002255D0012000048HG-33801  GGSL
TXBWIC21060-11423-94108-50000060D0000634D0005400000HG-94108  GGSL
TXBWIC21060-11423-94127-60000672D0002957D0011500036HG-64127  GGSL
TXBWIC21060-14021-10118-90000002D0000181D00000000003020      GGSL
TXBWIC21060-15966-49430-10000021D0000321D000200000049 00 430 GGSL
TXBWIC21060-16069-00001-10000024D0000142D0000000000NE-SR     GGSL
TXBWIC21060-16069-00005-90000108D0000660D0017700000TP-15C    GGSL
TXBWIC21060-16069-00007-30000078D0000479D0005700030BN-1      GGSL
TXBWIC21060-16069-00008-00000582D0003569D0040800159BN-2      GGSL
TXBWIC21060-16069-00013-40000024D0000611D0000200008BN-3      GGSL
TXBWIC21060-16069-00014-10000042D0000317D0000000006BN-4      GGSL
TXBWIC21060-16069-00015-80000026D0000649D0000800000BN-5      GGSL
TXBWIC21060-16069-00030-10000173D0001989D0000000000OW-6      GGSL
TXBWIC21060-16069-00049-30000030D0000485D0005800000DX-7      GGSL
TXBWIC21060-16069-00473-30000423C0000485C0000000000MIXO-30MP GGSL
TXBWIC21060-16069-00549-80000006D0001113D0000400000TN-SFG    GGSL
TXBWIC21060-16069-00626-60000010D0000054D0000000000PTG2-10   GGSL
TXBWIC21060-16069-00667-90000131D0002578D0013200100RHO-4US   GGSL
TXBWIC21060-18506-00000-00001080D0015175D02830002050111-5    GGSL
TXBWIC21060-18506-00010-30000798D0005456D0024200082010-6     GGSL
TXBWIC21060-18506-00021-90000123D0001701D0059100006021-6     GGSL
TXBWIC21060-18506-00102-50001024D0003799D0052500036102-12    GGSL
TXBWIC21060-18506-00110-50003147D0019998D0113400445110-12    GGSL
TXBWIC21060-18506-00116-20001092D0006583D0074000363116-12    GGSL
TXBWIC21060-18506-00117-90001164D0010836D0058800159117-6     GGSL
TXBWIC21060-18506-00125-40000288D0001304D0105600000125       GGSL
TXBWIC21060-18506-00130-80000180D0001013D0055200000130       GGSL
TXBWIC21060-18506-02001-90000012D0000130D00000000002001      GGSL
TXBWIC21060-22179-10005-30000006D0000105D0000000000lg 5129   GGSL
TXBWIC21060-22179-10011-40000006D0000061D0000000000lg 3104   GGSL
TXBWIC21060-22179-10035-00000031D0001420D0016000003LG4110    GGSL
TXBWIC21060-22179-10084-80000024D0000190D0013800090LG7220    GGSL
TXBWIC21060-22179-10085-50000024D0000186D0000000000LG5268    GGSL
TXBWIC21060-22179-10090-90000042D0001066D0000600006LG4300    GGSL
TXBWIC21060-22179-10096-10000012D0000250D0000000000lg 5328   GGSL
TXBWIC21060-22179-10109-80000036D0000509D0000600000lg 5146   GGSL
TXBWIC21060-22179-10110-40000030D0000800D0000600000lg 5149   GGSL
TXBWIC21060-22179-10115-90000138D0002197D0017300024lg 5599   GGSL
TXBWIC21060-22179-10124-10000571D0003071D0053400078LG6515    GGSL
TXBWIC21060-22179-10133-30000006D0000064D0000600000lg 4102   GGSL
TXBWIC21060-22179-10139-50000060D0000325D0115800012LG1130    GGSL
TXBWIC21060-22179-10140-10000010D0001208D0004100002LG6520    GGSL
TXBWIC21060-22179-10150-00000332D0003403D00640004567115      GGSL
TXBWIC21060-22179-10151-70000135D0005841D00364000137117      GGSL
TXBWIC21060-22179-10164-70000024D0000098D0000000000LG1140    GGSL
TXBWIC21060-22179-10185-20000385D0003928D0054200025LG6500    GGSL
TXBWIC21060-22179-10246-00000918D0013675D0029100768LG6570    GGSL
TXBWIC21060-22179-10247-70000202D0004081D00758002067122      GGSL
TXBWIC21060-22179-10248-40000408D0003207D0043500015LG6575    GGSL
TXBWIC21060-22179-10266-80000012D0000205D0000000000LG6145    GGSL
TXBWIC21060-22179-10295-80000012D0000276D0000000000LG6138    GGSL
TXBWIC21060-22179-10327-60000012D0000095D0000000000LG6148    GGSL
TXBWIC21060-22179-10374-00000006D0000037D0000000000lg 6286   GGSL
TXBWIC21060-22179-10375-70000036D0000257D0000000000lg 6299   GGSL
TXBWIC21060-22179-10376-40000048D0000737D0000000000LG6292    GGSL
TXBWIC21060-22179-10378-80000024D0000176D0003000000lg6274    GGSL
TXBWIC21060-22179-10390-00000168D0001405D0049800300LG6332    GGSL
TXBWIC21060-22179-10391-70000048D0000708D0000000000LG6336    GGSL
TXBWIC21060-22179-10395-50000025D0000750D0004900009LG6356    GGSL
TXBWIC21060-22179-10399-30000036D0000195D0056400132LG7198    GGSL
TXBWIC21060-22179-10408-20000636D0005054D0070800411LG 6338   GGSL
TXBWIC21060-22179-10429-70000168D0002481D0098400420LG6334    GGSL
TXBWIC21060-22179-10454-90000051D0000484D0025500180lg 3303   GGSL
TXBWIC21060-22179-10458-70000123D0001149D0021000000lg 3234   GGSL
TXBWIC21060-22179-10517-10000012D0000277D0000000000lg 3176   GGSL
TXBWIC21060-22179-10520-10000012D0000082D0000000006lg 6542   GGSL
TXBWIC21060-22179-10529-40000100D0000627D0045000190lg 7350   GGSL
TXBWIC21060-22401-00115-80000236D0010230D0042800013MDC-15    GGSL
TXBWIC21060-22401-00301-50000064D0000781D0011100006THD-20    GGSL
TXBWIC21060-22401-00380-10000020D0000270D0056800192NDETC-20MCGGSL
TXBWIC21060-22401-00381-70000020D0000270D0008400104NDETC-2OLBGGSL
TXBWIC21060-22401-00510-10000050D0000290D0000000000SK-B      GGSL
TXBWIC21060-22401-10088-20000195D0004710D0000400050EAR-60    GGSL
TXBWIC21060-22401-10089-90000004D0000070D0000000000BBC-20LB  GGSL
TXBWIC21060-23626-00605-80001316D0015386D0415900176116334    GGSL
TXBWIC21060-23626-00615-70001191D0012544D0595200069116336    GGSL
TXBWIC21060-23626-00630-00000551D0007208D0096000136116341    GGSL
TXBWIC21060-23626-00650-80000018D0000064D0057600000000600    GGSL
TXBWIC21060-23626-01710-80000108D0000557D0041400006000800    GGSL
TXBWIC21060-23626-01720-70000132D0000902D0025200000000900    GGSL
TXBWIC21060-23626-02842-50000004D0000155D0002800000116845    GGSL
TXBWIC21060-23883-00001-10000581D0009877D0073600046G362      GGSL
TXBWIC21060-23883-00002-80000258D0001044D0016000036G385      GGSL
TXBWIC21060-23883-00003-50000276D0001063D0033900006G390      GGSL
TXBWIC21060-23883-01002-70000296D0002601D00652000241002      GGSL
TXBWIC21060-23883-01105-50000024D0000066D00259002881105      GGSL
TXBWIC21060-23883-05000-90000110D0001019D00180000035000      GGSL
TXBWIC21060-23883-08620-60000006D0001005D00008000008620B     GGSL
TXBWIC21060-23883-15710-40001887D0017401D196160022115710     GGSL
TXBWIC21060-23883-16100-20000286D0003414D005030000716100MP   GGSL
TXBWIC21060-23883-21210-00000010D0000445D000860000021210XP   GGSL
TXBWIC21060-23883-26011-80000095D0002784D001950000726011XP   GGSL
TXBWIC21060-23883-26021-70000263D0008509D010370001126021XP   GGSL
TXBWIC21060-23883-26031-60000067D0002738D001450000426031XP   GGSL
TXBWIC21060-23883-27010-00000093D0001966D002030000127010     GGSL
TXBWIC21060-23883-27020-90000326D0007226D004230001627020     GGSL
TXBWIC21060-23883-27030-80000108D0002799D001900000827030     GGSL
TXBWIC21060-23883-60100-30000226D0011895D003170002660100     GGSL
TXBWIC21060-23883-61925-10000003D0000026D00018000126-1925    GGSL
TXBWIC21060-23883-63924-20000034D0005230D000510000063924     GGSL
TXBWIC21060-23883-66002-40000010C0005230C00006000006-6002    GGSL
TXBWIC21060-23883-68060-20000003D0000049D00003000016-8060    GGSL
TXBWIC21060-23883-68061-90000005D0000125D00009000026-8061    GGSL
TXBWIC21060-23883-68219-40000001D0000013D00001000006-8219    GGSL
TXBWIC21060-23883-80000-00000031C0000013C00018000068000A     GGSL
TXBWIC21060-23883-81000-90000004D0000432D000060000081000A    GGSL
TXBWIC21060-23883-84000-60000106D0008156D00018000398701B     GGSL
TXBWIC21060-23883-97100-70000003D0001980D000040000297100     GGSL
TXBWIC21060-23883-97561-60000016D0003068D000030000197561     GGSL
TXBWIC21060-24654-05922-10000065C0003068C00000000005926      GGSL
TXBWIC21060-24654-05962-70000126D0001493D00096000605962      GGSL
TXBWIC21060-24654-05982-50000012D0000379D00000000005982      GGSL
TXBWIC21060-24654-55025-40000048D0000194D00000000005026      GGSL
TXBWIC21060-24654-55110-70000510D0002485D00324000305110-6    GGSL
TXBWIC21060-24654-55118-30000341D0002418D00799000005118.0    GGSL
TXBWIC21060-25033-40355-00000006D0000094D000010000040355     GGSL
TXBWIC21060-25845-12354-70000024D0000030D000720000024951     GGSL
TXBWIC21060-26455-91350-40000006D0000347D001090001070805-001-GGSL
TXBWIC21060-26978-30301-10000566D0003610D007990014830301     GGSL
TXBWIC21060-27452-06240-00000004D0000047D000000000023958     GGSL
TXBWIC21060-28009-11225-80003503D0019462D00451003231225.0    GGSL
TXBWIC21060-28009-11227-20000006D0000020D00000000001227.0    GGSL
TXBWIC21060-28009-11250-00011860D0099551D04058003571250.0    GGSL
TXBWIC21060-28009-11420-70000910D0004547D00000000041420P     GGSL
TXBWIC21060-28009-11440-50001297D0010286D00622000651440P     GGSL
TXBWIC21060-28009-11465-80000024D0000095D00288000001465      GGSL
TXBWIC21060-28009-11550-10000050D0000419D00000000001550P     GGSL
TXBWIC21060-28009-11640-90000420D0002242D00000003601640      GGSL
TXBWIC21060-28009-15240-70000356D0002367D00189000015240.0    GGSL
TXBWIC21060-28009-15440-30000180D0001495D00060000001840      GGSL
TXBWIC21060-28009-15450-00000834D0002095D00326000105450.0    GGSL
TXBWIC21060-28009-15540-80003490D0013689D01583001605540.0    GGSL
TXBWIC21060-28009-15720-40000590D0002437D00000000005720.0    GGSL
TXBWIC21060-28009-15740-20000012D0000065D00000000015740.0    GGSL
TXBWIC21060-30541-00801-20000001D0000056D0000000000JCD-08BKSMGGSL
TXBWIC21060-30541-01020-60000216D0000515D0000000048JCD-024SM GGSL
TXBWIC21060-30541-01030-50000024D0000212D0007800000JCD-100SMJGGSL
TXBWIC21060-30541-01034-30000003D0000096D0005800006JCD-030SM GGSL
TXBWIC21060-30541-08878-60000036D0000117D0000000000SMMS      GGSL
TXBWIC21060-30541-09982-90000674D0001464D0086400000JCD-TPP   GGSL
TXBWIC21060-32247-00900-30000198D0000592D00786000121009001   GGSL
TXBWIC21060-32247-00910-20000012D0000035D00162000001009101   GGSL
TXBWIC21060-32247-00950-80000048D0000134D00132000121009501   GGSL
TXBWIC21060-32247-03313-80000058D0001427D00367000243313B     GGSL
TXBWIC21060-32247-03594-10001314D0007653D007050000970359430  GGSL
TXBWIC21060-32247-05514-70010128D0037446D051810000070551430  GGSL
TXBWIC21060-32247-10500-20000573D0004865D0023700120110500    GGSL
TXBWIC21060-32247-11307-60003606D0007414D054010000071130756  GGSL
TXBWIC21060-32247-14902-00000008D0000112D000240000014902     GGSL
TXBWIC21060-32247-14905-10000224D0001474D001360002414905     GGSL
TXBWIC21060-32247-17183-00000048C0001474C001080000017183     GGSL
TXBWIC21060-32247-17290-50000036D0000351D000180000617290     GGSL
TXBWIC21060-32247-17295-00000012D0000242D000080000017295     GGSL
TXBWIC21060-32247-17323-00000288C0000242C000900000017323     GGSL
TXBWIC21060-32247-17488-60000008D0000198D000000000017590     GGSL
TXBWIC21060-32247-17508-10000006D0000077D000720000017508     GGSL
TXBWIC21060-32247-17582-10000042D0000537D000000000017582     GGSL
TXBWIC21060-32247-18001-60000060D0001408D000000000018001     GGSL
TXBWIC21060-32247-18213-30000004D0000130D000160000418213     GGSL
TXBWIC21060-32247-18221-80000004D0000090D001040000018221     GGSL
TXBWIC21060-32247-18225-60000042D0000433D000960000018225     GGSL
TXBWIC21060-32247-18251-50000004D0000116D000360000018251     GGSL
TXBWIC21060-32247-18260-70000058C0000116C000060000018260     GGSL
TXBWIC21060-32247-18266-90000012D0000132D001260000018266     GGSL
TXBWIC21060-32247-18296-60000006D0000072D000240000018296     GGSL
TXBWIC21060-32247-18302-40000004D0000091D000200000018302     GGSL
TXBWIC21060-32247-18320-80000006D0000056D000120000018320     GGSL
TXBWIC21060-32247-18346-80000024D0000433D000840000018346     GGSL
TXBWIC21060-32247-18348-20000006D0000081D000480000018348     GGSL
TXBWIC21060-32247-18350-50000165D0001136D012450000018350     GGSL
TXBWIC21060-32247-18353-60000169D0003826D001980002418353     GGSL
TXBWIC21060-32247-18362-80000198D0006439D000000000018362     GGSL
TXBWIC21060-32247-19594-20000290D0002188D003850003071959430  GGSL
TXBWIC21060-32247-20784-30003246D0009660D019140006672078430  GGSL
TXBWIC21060-32247-21030-00000040D0000942D002230001021030A    GGSL
TXBWIC21060-32247-21605-00000536D0009030D000340004521605     GGSL
TXBWIC21060-32247-21701-90000276D0002048D000000000021701     GGSL
TXBWIC21060-32247-22305-80000037D0000568D001610000022305     GGSL
TXBWIC21060-32247-22315-70000003D0000119D000100000022315     GGSL
TXBWIC21060-32247-23100-80000152C0000119C000120001223100     GGSL
TXBWIC21060-32247-23405-40000073D0001105D003870000023405B    GGSL
TXBWIC21060-32247-23415-30000025D0000923D000200000023415     GGSL
TXBWIC21060-32247-25006-10000103D0002205D007200000025006A    GGSL
TXBWIC21060-32247-25009-20000048D0002644D000060000025009     GGSL
TXBWIC21060-32247-26003-90000084D0001940D000500000026003D    GGSL
TXBWIC21060-32247-26007-70000052D0001209D002470000026007B    GGSL
TXBWIC21060-32247-26784-70000060D0000216D012960007272678430  GGSL
TXBWIC21060-32247-27764-80000064D0000292D000000000072776430  GGSL
TXBWIC21060-32247-27791-40000240D0000464D000000036072779180  GGSL
TXBWIC21060-32247-30156-50000016D0000244D001080000430156     GGSL
TXBWIC21060-32247-30177-00000232C0000000D000760000030177     GGSL
TXBWIC21060-32247-33020-60000022D0001023D000690000033020     GGSL
TXBWIC21060-32247-35594-00000565D0003310D000850000073559430  GGSL
TXBWIC21060-32247-35605-30000072D0001528D001640000044615A    GGSL
TXBWIC21060-32247-37594-80001235D0007133D026550005073759430  GGSL
TXBWIC21060-32247-37610-50000370D0006938D004960004037610A    GGSL
TXBWIC21060-32247-39594-60002897D0020060D025100000073959430  GGSL
TXBWIC21060-32247-39605-90000030C0020060C000010000039605     GGSL
TXBWIC21060-32247-39615-80000083C0020060C000240000039615     GGSL
TXBWIC21060-32247-42784-50001044D0003147D005520001274278430  GGSL
TXBWIC21060-32247-43850-60000376D0008080D00012000004385010   GGSL
TXBWIC21060-32247-43854-40000008D0000086D00028000004385404   GGSL
TXBWIC21060-32247-43860-50000048D0000811D00028000004386004   GGSL
TXBWIC21060-32247-45651-70000010D0000105D004670000045651300  GGSL
TXBWIC21060-32247-47783-30000132D0000471D004080004274778300  GGSL
TXBWIC21060-32247-49019-10000017D0000205D001240000249019     GGSL
TXBWIC21060-32247-49021-40000003D0000077D000030000549021     GGSL
TXBWIC21060-32247-49024-50000029D0000348D000360000049024     GGSL
TXBWIC21060-32247-49785-50000264D0000801D013680000074978500  GGSL
TXBWIC21060-32247-50084-50000006D0000119D00006000065008410   GGSL
TXBWIC21060-32247-50086-90000024D0000409D00018000005008610   GGSL
TXBWIC21060-32247-50087-60000192D0003004D00072000005008710   GGSL
TXBWIC21060-32247-50088-30000174D0002730D00030000005008810   GGSL
TXBWIC21060-32247-50089-00000032D0000758D00080000005008910   GGSL
TXBWIC21060-32247-50154-50000016D0000123D000660000045015430  GGSL
TXBWIC21060-32247-50524-60008079D0050707D075950017275052430  GGSL
TXBWIC21060-32247-51105-60000027D0000335D004710000051105     GGSL
TXBWIC21060-32247-51115-50000325D0010076D001800000051115     GGSL
TXBWIC21060-32247-52524-40000013D0000144D000470000685252430  GGSL
TXBWIC21060-32247-52784-20001511D0004376D010980000085278430  GGSL
TXBWIC21060-32247-53105-40000163D0001400D001660000053105     GGSL
TXBWIC21060-32247-53115-30000280D0006136D001280000053115     GGSL
TXBWIC21060-32247-55513-50001203D0009963D017280000075551300  GGSL
TXBWIC21060-32247-55523-40001267D0015583D021610000075552300  GGSL
TXBWIC21060-32247-55783-20000384D0001525D020100000075578300  GGSL
TXBWIC21060-32247-55863-10000016D0000116D006550000075586300  GGSL
TXBWIC21060-32247-56063-40000008D0000040D002320000045606300  GGSL
TXBWIC21060-32247-56513-40016883D0103121D107910027675651300  GGSL
TXBWIC21060-32247-56523-30037906D0377729D107990039775652300  GGSL
TXBWIC21060-32247-56783-10000030D0011770D000050000075678309  GGSL
TXBWIC21060-32247-56788-60003540D0012506D055860042675678300  GGSL
TXBWIC21060-32247-56863-00000934D0005348D018780000075686300  GGSL
TXBWIC21060-32247-57905-60000100D0000991D000000000057905     GGSL
TXBWIC21060-32247-60594-60000904D0005265D008120000076059430  GGSL
TXBWIC21060-32247-71060-20000689D0008081D004910001971060     GGSL
TXBWIC21060-32247-71131-90000305D0005006D001680000471131     GGSL
TXBWIC21060-32247-74150-70001392D0006501D0045000372274150    GGSL
TXBWIC21060-32247-74250-40000188D0001952D0011300300274250    GGSL
TXBWIC21060-32247-74395-20000050D0000354D000680000043959430  GGSL
TXBWIC21060-32247-74850-60000612D0009542D0084800116274850    GGSL
TXBWIC21060-32247-75902-10000016D0001116D000130000775902     GGSL
TXBWIC21060-32247-76121-50000309D0009648D002170002476121     GGSL
TXBWIC21060-32247-76232-80000167D0008519D000380001276232     GGSL
TXBWIC21060-32247-76565-70000009D0000458D000150000076565     GGSL
TXBWIC21060-32247-77160-30001231D0005249D0273500528277160    GGSL
TXBWIC21060-32247-77260-00001464D0011235D0254400522277260    GGSL
TXBWIC21060-32247-77960-90000416D0007440D0184000264277960    GGSL
TXBWIC21060-32247-95517-10000250D0000894D004520000079551750  GGSL
TXBWIC21060-32247-99605-10000092D0001918D001060000099605     GGSL
TXBWIC21060-32903-00169-30000096D0000112D0021600048SLI06000E3GGSL
TXBWIC21060-32903-00193-80000006D0000082D0000000000TEA17000G2GGSL
TXBWIC21060-32903-00203-40000006D0000363D0000400000TEA30000G2GGSL
TXBWIC21060-32903-00309-30000120D0000257D0039600036SLI10000E3GGSL
TXBWIC21060-32903-00341-30000066D0000476D0006000048SLI24000E3GGSL
TXBWIC21060-32903-00359-80000024D0000035D0016800024SLI08000E3GGSL
TXBWIC21060-32903-12006-60000240D0000418D0033600048LIA06000E3GGSL
TXBWIC21060-32903-12008-00000264D0000686D0057600048LIA08000E3GGSL
TXBWIC21060-32903-12010-30000396D0001653D0040800048LIA10000E3GGSL
TXBWIC21060-32903-12012-70000192D0001237D0022800012LIA12000E3GGSL
TXBWIC21060-32903-12014-10000072D0000566D0014400012LIA14000E3GGSL
TXBWIC21060-32903-12017-20000096D0001180D0016800000LIA16000E3GGSL
TXBWIC21060-32903-12020-20000042D0000674D0010800018LIA20000E3GGSL
TXBWIC21060-32903-12024-00000036D0000774D0004200012LIA24000E3GGSL
TXBWIC21060-32903-12318-00000024D0000068D0001200012SVN18000E3GGSL
TXBWIC21060-32903-12324-10000042D0000153D0000000006SVN24000E3GGSL
TXBWIC21060-32903-12714-00000060D0000363D0001200048GAB14000E3GGSL
TXBWIC21060-32903-12718-80000042D0000385D0003000012GAB18000E3GGSL
TXBWIC21060-32903-12818-50000054D0000295D0008400006VNP18000E3GGSL
TXBWIC21060-32903-12824-60000030D0000226D0000000072VNP24000E3GGSL
TXBWIC21060-32903-35079-10000006D0000248D0000000000TES20000G2GGSL
TXBWIC21060-32903-50763-80000120D0000363D0014400024SLI12000E3GGSL
TXBWIC21060-32903-50766-90000012D0000363D0000400000TEA24000G2GGSL
TXBWIC21060-32903-50802-40000060D0000226D0028200048SLI14000E3GGSL
TXBWIC21060-32903-58838-50000012D0000363D0000000000TEA24000G1GGSL
TXBWIC21060-32903-72518-60000079D0000620D0000800008RZ.WC2G0B9GGSL
TXBWIC21060-32903-75049-20000018D0000119D0013800012SLI20000E3GGSL
TXBWIC21060-32903-75076-80000006D0000367D0000000000TES24000G2GGSL
TXBWIC21060-32903-75080-50000108D0000462D0026400012SLI17000E3GGSL
TXBWIC21060-32903-91319-40000006D0000082D0000000000TEA17000G1GGSL
TXBWIC21060-32903-91322-40000006D0000363D0000000000TEA30000G1GGSL
TXBWIC21060-32903-91324-80000006D0000367D0000000000TES24000G1GGSL
TXBWIC21060-33524-43225-50001299D0010249D0004500000MP0020    GGSL
TXBWIC21060-33524-43240-80002502D0029645D0038100004MP0020    GGSL
TXBWIC21060-33607-00001-50000064D0001844D0012000008GBA-1     GGSL
TXBWIC21060-34613-00000-00000001D0000479D00000000004906BLD   GGSL
TXBWIC21060-34613-00002-70000077C0000479C0004300014LH002     GGSL
TXBWIC21060-34613-00003-40000044D0000750D0079300027LH003     GGSL
TXBWIC21060-34613-00060-70000003D0000168D0000000032TP60      GGSL
TXBWIC21060-34613-00068-30000024D0000143D000840001268WP      GGSL
TXBWIC21060-34613-00446-90000012D0000050D0000000000446       GGSL
TXBWIC21060-34613-00540-40000004D0000017D00065000275-40HD    GGSL
TXBWIC21060-34613-00640-10000009D0000037D00038000346-40HD    GGSL
TXBWIC21060-34613-00805-40000004D0000100D0000300055SS5       GGSL
TXBWIC21060-34613-01161-00000108D0000252D00180005401161PDQ   GGSL
TXBWIC21060-34613-03104-50000006D0000042D00000000003104      GGSL
TXBWIC21060-34613-03110-60000102D0000337D00066000003110      GGSL
TXBWIC21060-34613-03603-30000002D0000100D0000000000U3603     GGSL
TXBWIC21060-34613-04803-60000005D0000310D0000000003U4803     GGSL
TXBWIC21060-34613-04830-20000006D0000024D00000000004830      GGSL
TXBWIC21060-34613-04850-00000010D0000077D00000003003104BL    GGSL
TXBWIC21060-34613-07757-90000048D0000184D00048004927757BL    GGSL
TXBWIC21060-34613-09164-30000001D0000016D00044000009164      GGSL
TXBWIC21060-34613-70791-90000005D0000125D000050000070285BL   GGSL
TXBWIC21060-34613-71086-50000014D0000077D0002700043LH015BL   GGSL
TXBWIC21060-34613-95006-30000004D0000172D000030003695006     GGSL
TXBWIC21060-34613-96006-20000006D0000288D000090002696006     GGSL
TXBWIC21060-35307-00402-40000012D0000038D0001200000402       GGSL
TXBWIC21060-35307-00816-90000024D0000036D0000000012816       GGSL
TXBWIC21060-35307-00820-60000036D0000055D0018000336820       GGSL
TXBWIC21060-35307-00826-80000060D0000102D0001200252826       GGSL
TXBWIC21060-35307-00841-10000012D0000021D0000000000841       GGSL
TXBWIC21060-35307-00844-20000060D0000135D0002400012844       GGSL
TXBWIC21060-35307-00846-30000072D0000217D0000000024846       GGSL
TXBWIC21060-35307-00848-00000024D0000050D0000000012848       GGSL
TXBWIC21060-35307-00861-90000084D0000211D0013200168861       GGSL
TXBWIC21060-35307-00874-90000384D0000516D0000000012874       GGSL
TXBWIC21060-35307-01601-00000054D0000674D00012000001601      GGSL
TXBWIC21060-35307-01609-60000108D0000409D0000000000          GGSL
TXBWIC21060-35307-01612-60000084D0000329D00000000001612      GGSL
TXBWIC21060-35307-01635-50000006D0000066D00042000001635      GGSL
TXBWIC21060-35307-01810-60000352D0001734D00430000161810      GGSL
TXBWIC21060-35307-01815-10000219D0001408D00210000081815      GGSL
TXBWIC21060-35307-01817-50000012D0000091D00000000001817-6    GGSL
TXBWIC21060-35307-01820-50000036D0000435D00108000241820      GGSL
TXBWIC21060-35307-01825-00000204D0001571D00480006241825      GGSL
TXBWIC21060-35307-01840-30000023D0000373D00054000121840      GGSL
TXBWIC21060-35355-00802-90000006D0000091D0002700041SS2       GGSL
TXBWIC21060-35355-00803-60000012D0000180D0002400041SS3       GGSL
TXBWIC21060-35355-00804-30000011D0000242D0001000065SS4       GGSL
TXBWIC21060-35355-00806-70000005D0000169D0000500047SS6       GGSL
TXBWIC21060-35355-00924-80000019D0000177D0009300015924       GGSL
TXBWIC21060-35355-01151-70000080D0000336D00140004401151PDQ   GGSL
TXBWIC21060-35355-01160-90000140D0000280D00300004201160      GGSL
TXBWIC21060-35355-03105-80000012D0000116D00000019443105      GGSL
TXBWIC21060-35355-03108-90000006D0000089D00000000003108      GGSL
TXBWIC21060-35355-05939-70000006D0000115D00042000005939      GGSL
TXBWIC21060-35355-05945-80000281D0003741D00798002885945      GGSL
TXBWIC21060-35355-70201-90000130D0001687D000100046570201     GGSL
TXBWIC21060-35355-94006-00000014D0000476D000030001994006     GGSL
TXBWIC21060-36348-00610-70000342D0001659D00372000120610      GGSL
TXBWIC21060-36348-00645-90000075D0001000D0012900012645       GGSL
TXBWIC21060-36348-00745-60000008D0000181D00079000000745      GGSL
TXBWIC21060-36348-01020-30000001D0000015D00015000001020      GGSL
TXBWIC21060-36348-01078-40000012D0000403D00074000001078      GGSL
TXBWIC21060-36348-01079-10000044D0002037D00146000011079      GGSL
TXBWIC21060-36434-00000-00000112D0007563D004920012010-12420  GGSL
TXBWIC21060-36434-10000-00000024D0000226D00072001801014510   GGSL
TXBWIC21060-36434-10012-20000180D0002369D000000002410-10012  GGSL
TXBWIC21060-36434-11000-80000125D0001308D010130000260-11000  GGSL
TXBWIC21060-36434-12342-80000023D0000161D001080007460-12342  GGSL
TXBWIC21060-36434-12343-50000036D0000326D003320000060-12343  GGSL
TXBWIC21060-36434-12345-90000096D0000902D000000086410-12345  GGSL
TXBWIC21060-36434-12346-60000366D0001688D009680002160-12346  GGSL
TXBWIC21060-36434-12348-00000008D0000059D000000000010-12348  GGSL
TXBWIC21060-36434-12349-70000031D0000133D001960000060-12349  GGSL
TXBWIC21060-36434-12353-40000135D0002323D012180000360-12353  GGSL
TXBWIC21060-36434-12354-10000008D0000042D000530000010-12354  GGSL
TXBWIC21060-36434-12355-80000112D0000813D001680001110-12355  GGSL
TXBWIC21060-36434-12356-50000147D0001189D003440002710-12356  GGSL
TXBWIC21060-36434-12357-20000091D0000738D001730000610-12357  GGSL
TXBWIC21060-36434-12700-60000072D0000496D000000016810-12700  GGSL
TXBWIC21060-36434-12710-50000012D0000087D000000000010-12710  GGSL
TXBWIC21060-36434-12720-40000012D0000072D000240002410-12720  GGSL
TXBWIC21060-36434-12721-10000006D0000039D000060000060-12721  GGSL
TXBWIC21060-36434-12725-90000012D0000072D000000000060-12725  GGSL
TXBWIC21060-36434-13600-50000084D0001479D003840025210-13600  GGSL
TXBWIC21060-36434-13610-20000108D0001585D003720025210-13610  GGSL
TXBWIC21060-36434-14800-80000276D0004474D000720001210-14800  GGSL
TXBWIC21060-36434-14860-20000180D0002381D002640002410-14860  GGSL
TXBWIC21060-36434-15050-90000028D0000429D000900000010-15050  GGSL
TXBWIC21060-36434-15080-30000019D0000285D000120000010-15080  GGSL
TXBWIC21060-36434-22318-00000124D0000537D008390001560-22318  GGSL
TXBWIC21060-36434-22341-80000036D0000346D000000002410-22341  GGSL
TXBWIC21060-36434-22626-60000107D0001282D002630001660-22626  GGSL
TXBWIC21060-36434-22731-70000025D0000257D003670000060-22731  GGSL
TXBWIC21060-36434-22732-40000053D0000688D007820000260-22732  GGSL
TXBWIC21060-36434-28010-70000240D0001723D001800027610-28010  GGSL
TXBWIC21060-36434-28020-60000012D0000093D000360006010-28020  GGSL
TXBWIC21060-36434-32700-00000035D0000265D012000002410-32700  GGSL
TXBWIC21060-36434-34500-10000228D0002075D000120025210-34500  GGSL
TXBWIC21060-36434-60123-00000001D0001270D000010000060123     GGSL
TXBWIC21060-36434-82342-70000026D0000329D002310000060-82342  GGSL
TXBWIC21060-36865-12250-20004887D0009369D015700036071140180  GGSL
TXBWIC21060-36865-14511-20000540D0000919D008400000071451180  GGSL
TXBWIC21060-36865-24511-90000540D0001783D031200006072451180  GGSL
TXBWIC21060-36865-45220-30000060D0000150D000000000088452205  GGSL
TXBWIC21060-36865-52965-30000180D0000403D000000000087852965  GGSL
TXBWIC21060-36865-65220-70000360D0000900D000000000088652205  GGSL
TXBWIC21060-37321-00022-80002646D0015525D0030802820022       GGSL
TXBWIC21060-37321-00023-50000132D0002145D0005600260023       GGSL
TXBWIC21060-37321-00024-20001088D0011959D0059401035024       GGSL
TXBWIC21060-37321-00053-20000012D0000027D0001200000053       GGSL
TXBWIC21060-37321-00068-60000210D0000969D0065100300068       GGSL
TXBWIC21060-37321-00069-30000435D0005088D0071100228069       GGSL
TXBWIC21060-37321-00070-90000087D0001192D0075600192070       GGSL
TXBWIC21060-37321-00105-80000120D0000290D0000000228105       GGSL
TXBWIC21060-37321-00106-50000036D0000087D0007200072106       GGSL
TXBWIC21060-37321-00107-20000120D0000290D0000000456107       GGSL
TXBWIC21060-37321-00108-90000168D0000406D0000000564108       GGSL
TXBWIC21060-37321-00123-20000018D0000065D0000000000123       GGSL
TXBWIC21060-37321-00127-00000297D0002316D0022800216127       GGSL
TXBWIC21060-37321-00141-60000012D0000046D0000000144141       GGSL
TXBWIC21060-37321-00150-80000633D0008720D0022502028150       GGSL
TXBWIC21060-37321-00160-70000072D0000204D0000000000160       GGSL
TXBWIC21060-37321-00166-90000141D0000748D0003900012166       GGSL
TXBWIC21060-37321-00196-60000048D0000265D0000000000196       GGSL
TXBWIC21060-37321-00202-40000657D0005917D0125700054202       GGSL
TXBWIC21060-37321-00203-10000282D0003480D0097200000203       GGSL
TXBWIC21060-37321-00210-90000108D0000604D0077700048210       GGSL
TXBWIC21060-37321-00211-60000177D0001274D0239700000211       GGSL
TXBWIC21060-37321-00212-30000008D0000132D0000000000212       GGSL
TXBWIC21060-37321-00213-00000366D0003215D0076500588213       GGSL
TXBWIC21060-37321-00214-70000168D0000844D0014400624214       GGSL
TXBWIC21060-37321-00216-10000024D0000330D0002400276216       GGSL
TXBWIC21060-37321-00217-80000048D0000516D0000000012217       GGSL
TXBWIC21060-37321-00221-50000120D0000563D0000000012221       GGSL
TXBWIC21060-37321-00225-30000024D0000136D0025200000225       GGSL
TXBWIC21060-37321-00230-70000036D0000298D0001200000230       GGSL
TXBWIC21060-37321-00237-60000012D0000161D0000000000237       GGSL
TXBWIC21060-37321-00238-30000465D0003545D0006600348238       GGSL
TXBWIC21060-37321-00240-60000012D0000193D0002400000240       GGSL
TXBWIC21060-37321-00250-50001863D0007643D0063902880250       GGSL
TXBWIC21060-37321-00252-90000354D0003695D0108900075252       GGSL
TXBWIC21060-37321-00253-60000276D0004559D0007500030253       GGSL
TXBWIC21060-37321-00255-00000378D0006597D0207900342255       GGSL
TXBWIC21060-37321-00257-40000333D0001139D0014400180257       GGSL
TXBWIC21060-37321-00274-10000347D0001996D0017100625274       GGSL
TXBWIC21060-37321-00276-50000060D0000763D0000000000276       GGSL
TXBWIC21060-37321-00277-20000030D0000933D0000000000277       GGSL
TXBWIC21060-37321-00307-60000240D0000941D0041700360307       GGSL
TXBWIC21060-37321-00308-30000008D0000069D0000000000308       GGSL
TXBWIC21060-37321-00309-00000087D0001362D0033900210309       GGSL
TXBWIC21060-37321-00330-40000369D0003214D0009300000330       GGSL
TXBWIC21060-37321-00331-10000288D0003858D0026400012331       GGSL
TXBWIC21060-37321-00377-90000012D0000298D0016800000377       GGSL
TXBWIC21060-37321-00411-00000096D0000307D0000000000411       GGSL
TXBWIC21060-37321-00412-70000063D0000324D0000900000412       GGSL
TXBWIC21060-37321-00413-40000060D0000602D0000000000413       GGSL
TXBWIC21060-37321-00420-20000244D0012542D0002200002420       GGSL
TXBWIC21060-37321-00426-40000480D0004616D0030000660426       GGSL
TXBWIC21060-37321-00428-80001212D0004237D0042600456428       GGSL
TXBWIC21060-37321-00429-50000030D0000498D0007800063429       GGSL
TXBWIC21060-37321-00442-40000870D0005174D0003300012442       GGSL
TXBWIC21060-37321-00443-10000165D0001752D0003000036443       GGSL
TXBWIC21060-37321-00506-30000012D0000040D0000000024506       GGSL
TXBWIC21060-37321-00543-80000186D0000583D0024600060543       GGSL
TXBWIC21060-37321-00544-50000129D0000711D0007500012544       GGSL
TXBWIC21060-37321-00549-00000204D0001633D0001200000549       GGSL
TXBWIC21060-37321-00552-00000078D0001080D0007800000551       GGSL
TXBWIC21060-37321-00553-70000153D0004392D0010300000553       GGSL
TXBWIC21060-37321-00560-50000659D0002671D0048600168560       GGSL
TXBWIC21060-37321-00564-30000216D0001894D0002400048564       GGSL
TXBWIC21060-37321-00568-10000012D0000260D0022800000568       GGSL
TXBWIC21060-37321-00571-10000079D0000615D0011100012571       GGSL
TXBWIC21060-37321-00573-50000147D0000584D0091800000573       GGSL
TXBWIC21060-37321-00577-30000040D0000388D0012800004574       GGSL
TXBWIC21060-37321-00603-90000016D0000194D0006800008603       GGSL
TXBWIC21060-37321-00609-10000012D0000123D0010800036609       GGSL
TXBWIC21060-37321-00611-40000026D0001358D0000200076611       GGSL
TXBWIC21060-37321-00629-90000180D0000480D0091200036629       GGSL
TXBWIC21060-37321-00631-20002399D0007676D2321000360631       GGSL
TXBWIC21060-37321-00652-70000156D0000775D0021600156652       GGSL
TXBWIC21060-37321-00655-80000342D0001925D00234004266556      GGSL
TXBWIC21060-37321-00680-00000608D0005007D0011100204680       GGSL
TXBWIC21060-37321-00681-70000004D0000050D00000000000681      GGSL
TXBWIC21060-37321-00685-50000508D0005514D0130100003685       GGSL
TXBWIC21060-37321-00688-60000048D0000307D0015600012688       GGSL
TXBWIC21060-37321-00690-90000123D0001247D0020100006690       GGSL
TXBWIC21060-37321-00692-30000851D0009077D0088300045692150    GGSL
TXBWIC21060-37321-00698-50000048D0000255D0006000072698       GGSL
TXBWIC21060-37321-00728-90000024D0000302D0009600000728       GGSL
TXBWIC21060-37321-00757-90000006D0000024D0001200000757       GGSL
TXBWIC21060-37321-00758-60000004D0000037D0001600000758       GGSL
TXBWIC21060-37321-00771-50000024D0000125D0002700003771       GGSL
TXBWIC21060-37321-00775-30001146D0006272D0077701548775       GGSL
TXBWIC21060-37321-00777-70000039D0000372D0010200000777       GGSL
TXBWIC21060-37321-00779-10000126D0000896D0007200216779       GGSL
TXBWIC21060-37321-00784-50000390D0001083D0018600000784       GGSL
TXBWIC21060-37321-00786-90000990D0003848D0022800042786       GGSL
TXBWIC21060-37321-00789-00000141D0001078D0162701521791       GGSL
TXBWIC21060-37321-00803-30000048D0000416D0001200072803       GGSL
TXBWIC21060-37321-00806-40000132D0000995D0000000048806       GGSL
TXBWIC21060-37321-00807-10000032D0000689D0000000000807       GGSL
TXBWIC21060-37321-00811-80001233D0013930D0078800293811       GGSL
TXBWIC21060-37321-00813-20000354D0004521D0045300102813       GGSL
TXBWIC21060-37321-00857-60000444D0003473D0116400144857       GGSL
TXBWIC21060-37321-00858-30000012D0000168D0000000000858       GGSL
TXBWIC21060-37321-00862-00000012D0000164D0000000012862       GGSL
TXBWIC21060-37321-00866-80000012D0000064D0000000000865       GGSL
TXBWIC21060-37321-00868-20000012D0000147D0000000000868       GGSL
TXBWIC21060-37321-00870-50000048D0000264D0037200012870       GGSL
TXBWIC21060-37321-00875-00001155D0011661D0220600049875       GGSL
TXBWIC21060-37321-00880-40000270D0003070D0036900276880       GGSL
TXBWIC21060-37321-00883-50000012D0000052D0024001176883       GGSL
TXBWIC21060-37321-00892-70000060D0000525D0013200588892       GGSL
TXBWIC21060-37321-00897-20000024D0000150D0009600000897       GGSL
TXBWIC21060-37321-00903-00000132D0000856D0025200000903       GGSL
TXBWIC21060-37321-00908-50000078D0000698D0000000000908       GGSL
TXBWIC21060-37321-00909-20000012D0000211D0000000000909       GGSL
TXBWIC21060-37321-00925-20001881D0005371D0180001338925       GGSL
TXBWIC21060-37321-00939-90000192D0001909D0036000288939       GGSL
TXBWIC21060-37321-00941-20000594D0005985D0158800516941       GGSL
TXBWIC21060-37321-00945-00000009D0000083D0001800000945       GGSL
TXBWIC21060-37321-00946-70000220D0001773D0000000000946       GGSL
TXBWIC21060-37321-00947-40000030D0000249D0010800006947       GGSL
TXBWIC21060-37321-00951-10000357D0001373D0008700708951       GGSL
TXBWIC21060-37321-00952-80000090D0000449D0000000012952       GGSL
TXBWIC21060-37321-00987-00000306D0002677D0015900108987       GGSL
TXBWIC21060-37321-02360-90000132D0000905D00033000002360      GGSL
TXBWIC21060-37321-02361-60000468D0005175D00066003962361      GGSL
TXBWIC21060-37321-02362-30000004D0000075D00000000002362      GGSL
TXBWIC21060-37321-02761-40000006D0000126D00000000002761      GGSL
TXBWIC21060-37321-05612-60000549D0005205D00060000125612      GGSL
TXBWIC21060-37321-05710-90000015D0000087D00309000005710      GGSL
TXBWIC21060-37321-05714-70000048D0001364D00024000005714      GGSL
TXBWIC21060-37321-07458-80000060D0000938D00108000007458      GGSL
TXBWIC21060-37321-07461-80000012D0000108D00000000007461      GGSL
TXBWIC21060-37321-07468-70000006D0000133D00000000007468      GGSL
TXBWIC21060-37321-07490-80000150D0000777D00000000067490      GGSL
TXBWIC21060-37321-07492-20000080D0001349D00064001047492      GGSL
TXBWIC21060-37321-07497-70000006D0000029D00000000007497      GGSL
TXBWIC21060-37321-07498-40000004D0000040D00004000007498      GGSL
TXBWIC21060-37321-08636-90000018D0000189D00000000008636      GGSL
TXBWIC21060-37321-08752-60000285D0003214D00246000008752      GGSL
TXBWIC21060-37321-09534-70000072D0000729D00000001089534      GGSL
TXBWIC21060-37321-45602-50000024D0000119D000120000045602     GGSL
TXBWIC21060-37321-46126-50008100D0001327D028000080046126     GGSL
TXBWIC21060-37321-46172-20000024D0000109D000000000046172     GGSL
TXBWIC21060-37321-46178-40000012D0000160D000000000046178     GGSL
TXBWIC21060-37321-46183-80000075D0000562D0012600021691       GGSL
TXBWIC21060-37321-46190-60000312D0000971D000240000046190     GGSL
TXBWIC21060-37321-46191-30000192D0000951D000720000046191     GGSL
TXBWIC21060-37321-46406-80000312D0002363D007680000046406     GGSL
TXBWIC21060-37321-46540-90000060D0000486D000760000046540     GGSL
TXBWIC21060-37321-46640-60000048D0000248D000120001246640     GGSL
TXBWIC21060-37321-60114-90000010D0000221D000100000060215     GGSL
TXBWIC21060-37321-60211-80000020D0000212D000000000060212     GGSL
TXBWIC21060-37321-60221-70000020D0000205D000600010060222     GGSL
TXBWIC21060-37321-60224-80000010D0000209D000100000060225     GGSL
TXBWIC21060-37321-60360-30000108D0001307D000000000060362     GGSL
TXBWIC21060-37321-60400-60000120D0001523D007130287060402     GGSL
TXBWIC21060-37321-60407-50000012D0000093D000000009660407     GGSL
TXBWIC21060-37321-60420-40000003D0000044D000030000060420     GGSL
TXBWIC21060-37321-60430-30000008D0000086D000470000060432     GGSL
TXBWIC21060-37321-60476-10000168D0001908D032960525160478     GGSL
TXBWIC21060-37321-60514-00000862D0008920D020560151660516     GGSL
TXBWIC21060-37321-60613-00000013D0000104D000000000060613     GGSL
TXBWIC21060-37321-61118-90000012D0000122D000000000061120     GGSL
TXBWIC21060-37321-61119-60000030D0000439D000000000061121     GGSL
TXBWIC21060-38313-00008-00000064D0001102D0028900012BP 3130   GGSL
TXBWIC21060-38313-00060-80000324D0005711D0050100668BP 3160   GGSL
TXBWIC21060-38313-00080-60000222D0004325D0030300445BP 3180D  GGSL
TXBWIC21060-38313-00081-30000012D0000110D0000000000AC 7220   GGSL
TXBWIC21060-38313-00217-60000004D0000068D0004800025FS 4350   GGSL
TXBWIC21060-38313-00830-70000056D0001696D0013400003BP 6250   GGSL
TXBWIC21060-38313-01010-20000562D0002801D0044400072CT 3010I  GGSL
TXBWIC21060-38313-01020-10000150D0000761D0037800012CT 3020I  GGSL
TXBWIC21060-38313-01030-00000102D0000508D0007800042CT 3030I  GGSL
TXBWIC21060-38313-03050-60000042D0000290D0011400120GT 3050   GGSL
TXBWIC21060-38313-03060-50000048D0000320D0012000084GT 3060   GGSL
TXBWIC21060-38313-03080-30000066D0000450D0018600120GT 3080   GGSL
TXBWIC21060-38313-03214-20000024D0000264D0003600000BP 3214D  GGSL
TXBWIC21060-38313-03244-90000018D0000309D0000000120HS 3244   GGSL
TXBWIC21060-38313-03334-70000024D0000279D0007800000AP 3334   GGSL
TXBWIC21060-38313-03470-20000027D0000801D0008800006FL 3470   GGSL
TXBWIC21060-38313-03634-80000012D0000341D0001800002LG 3634   GGSL
TXBWIC21060-38313-03710-90000366D0001807D0009001872CT 3710   GGSL
TXBWIC21060-38313-03720-80000018D0000125D0021000324CT 3720   GGSL
TXBWIC21060-38313-03730-70000126D0000617D0001800342CT 3730   GGSL
TXBWIC21060-38313-03750-50000120D0000597D0007200282CT 3750   GGSL
TXBWIC21060-38313-04110-60000024D0000384D0008400114AL 4110   GGSL
TXBWIC21060-38313-04930-00001282D0007763D0341500144AG 4930   GGSL
TXBWIC21060-38313-04930-70000393D0002908D0201800047AG 4930SS GGSL
TXBWIC21060-38313-06970-40000016D0000723D0027800006AH 6970   GGSL
TXBWIC21060-38313-07001-00000001D0000042D0002700000FK 70010  GGSL
TXBWIC21060-38313-07395-40000030D0000555D0001200000RS 7395   GGSL
TXBWIC21060-38313-07545-20000097D0001551D0007100033RS 7245   GGSL
TXBWIC21060-38313-08300-00000012D0000077D0000000000AC 8300   GGSL
TXBWIC21060-38313-10000-10000164D0001499D0020600019SS 10000  GGSL
TXBWIC21060-38313-10227-20000042D0002799D0009600016AL 6512   GGSL
TXBWIC21060-38313-11000-00000073D0000675D0010600040SS 11000  GGSL
TXBWIC21060-38313-12400-70000161D0001869D0008200126RK 24003  GGSL
TXBWIC21060-38313-13214-90000048D0000368D0000000366FS 3214D  GGSL
TXBWIC21060-38313-14300-80000001D0000041D0002000000BM 43001  GGSL
TXBWIC21060-38313-20001-50000018D0000399D0000100002PD 20000  GGSL
TXBWIC21060-38313-20002-20000009D0000138D0000000060RK 20002  GGSL
TXBWIC21060-38313-20004-60000017D0000233D0016000084CV 20004  GGSL
TXBWIC21060-38313-20022-00000179D0003071D0020600006RK 20022  GGSL
TXBWIC21060-38313-21000-70000121D0001634D0004800101SH 20000  GGSL
TXBWIC21060-38313-21050-20000012D0000058D0000000000CT 3050I  GGSL
TXBWIC21060-38313-24000-40000023D0000171D0018000012FS 4000   GGSL
TXBWIC21060-38313-24601-30000012D0000195D0001200000RK 24061  GGSL
TXBWIC21060-38313-25008-90000036D0000156D0002400300RK 25008  GGSL
TXBWIC21060-38313-26001-90000054D0000639D0000000114SS 26010  GGSL
TXBWIC21060-38313-26020-00000052D0000762D0014100019SS 26020  GGSL
TXBWIC21060-38313-26022-40000008D0000168D0001100000SS 26030  GGSL
TXBWIC21060-38313-27020-90000007D0000102D0004800000SS 27020  GGSL
TXBWIC21060-38313-28000-00000007D0000122D0002900001SS 28000  GGSL
TXBWIC21060-38313-28010-90000042D0000852D0008100002SS 28010  GGSL
TXBWIC21060-38313-32441-40000004D0000044D0000000004GT 3244   GGSL
TXBWIC21060-38313-33140-50000024D0000219D0000000080CT 3314   GGSL
TXBWIC21060-38313-33340-90000016D0000153D0000000048CT 3334   GGSL
TXBWIC21060-38313-33440-60000152D0001159D0000000200CT 3344   GGSL
TXBWIC21060-38313-33640-00000120D0001014D0011200376CT 3364   GGSL
TXBWIC21060-38313-36241-60000001D0000032D0000400000LG 3624   GGSL
TXBWIC21060-38313-36541-70000020D0000472D0000500000LG 3654   GGSL
TXBWIC21060-38313-37201-90000048D0000815D0001200004LG 3720   GGSL
TXBWIC21060-38313-41100-80000004D0000146D0000000004PM 41000  GGSL
TXBWIC21060-38313-42003-10000006D0000194D0000000000SS 42011  GGSL
TXBWIC21060-38313-53841-50000021D0001044D0000300000TP 3841   GGSL
TXBWIC21060-38313-56200-70000003D0000025D0005400008RK 62000  GGSL
TXBWIC21060-38313-60053-20000001D0000031D0000000000UT 60053  GGSL
TXBWIC21060-38313-61062-30000012D0000608D0002300007RK 61062  GGSL
TXBWIC21060-38313-62062-20000006D0000269D0002300000BM 62060  GGSL
TXBWIC21060-38313-62065-30000006D0000263D0001200000FK 72065  GGSL
TXBWIC21060-38313-64144-30000005D0000103D0000000000SS 64104  GGSL
TXBWIC21060-38313-65000-10000009D0000211D0000200000SS 65000  GGSL
TXBWIC21060-38313-66000-00000008D0000188D0000100000SS 66000  GGSL
TXBWIC21060-38313-80000-00000026D0002073D0000300010SF 80000  GGSL
TXBWIC21060-38313-81000-90000091D0000875D0020400015RK 10000  GGSL
TXBWIC21060-38313-90000-70000149D0001343D0008100041SH 10000  GGSL
TXBWIC21060-38313-90310-70000002D0000160D0000000000AS 90310  GGSL
TXBWIC21060-38858-06770-80000012D0000207D00000000003776-04-09GGSL
TXBWIC21060-38858-06778-40000004D0000130D00000000003785-04-09GGSL
TXBWIC21060-38858-10457-10000004D0000027D00000000007985-04-91GGSL
TXBWIC21060-38858-10816-60000066D0000299D00000000009685-06-45GGSL
TXBWIC21060-38858-11293-40000004D0000049D00000000001280-04-07GGSL
TXBWIC21060-38858-13569-80000018D0000176D00000000003780-06-09GGSL
TXBWIC21060-38858-13575-90000036D0000193D00000000006717-12-76GGSL
TXBWIC21060-38858-13576-60000002D0000142D00000000006718-12-76GGSL
TXBWIC21060-38858-13601-50000006D0000050D00000000007980-06-91GGSL
TXBWIC21060-39044-14636-80000006D0000060D000000000014666     GGSL
TXBWIC21060-39079-05897-10000048D0000674D0000000000100511010 GGSL
TXBWIC21060-39645-11752-10000124D0000591D000000000040200010  GGSL
TXBWIC21060-40025-54033-40000027D0001210D0004100000RWS-54033 GGSL
TXBWIC21060-40025-54053-20000004D0000080D0001500000RWS-54053 GGSL
TXBWIC21060-40200-00000- 0000050D0000016D0015000000VBC H11-7 GGSL
TXBWIC21060-40235-75256-50000012D0000230D00060000022.5G30S   GGSL
TXBWIC21060-40279-03300-20000732D0001420D01476000003300      GGSL
TXBWIC21060-40279-03302-60001164D0002440D0082800012          GGSL
TXBWIC21060-41535-24550-40000469D0018833D009580008324550     GGSL
TXBWIC21060-41535-24560-30000262D0046212D013230012524560     GGSL
TXBWIC21060-41535-24571-90000770D0013207D0217100048100518540 GGSL
TXBWIC21060-42204-14504-80000003D0000003D00007000002MMC      GGSL
TXBWIC21060-42206-00056-90000024D0000184D000340008456-6      GGSL
TXBWIC21060-42206-00202-00000190D0000217D0069000000202S      GGSL
TXBWIC21060-42206-00202-10000003D0000004D0001000000202S      GGSL
TXBWIC21060-42206-00269-30000024D0000116D0004000216269       GGSL
TXBWIC21060-42206-00395-90000104D0000243D0081600092395S      GGSL
TXBWIC21060-42206-00525-00000050D0000129D0007000120525C      GGSL
TXBWIC21060-42206-00872-50000078D0000171D0041400024872-6     GGSL
TXBWIC21060-42206-03010-80000008D0000084D00170000003010-4    GGSL
TXBWIC21060-42206-07800-10000024D0000151D00078001027800      GGSL
TXBWIC21060-42206-09000-30000114D0000744D00096000049000      GGSL
TXBWIC21060-42206-09620-30000150D0005504D00175000389620-8    GGSL
TXBWIC21060-42206-14058-60000072D0000452D01104000369570      GGSL
TXBWIC21060-42206-14066-10000060D0000195D00120000249560C     GGSL
TXBWIC21060-42206-14220-70000140D0000576D0046600130312S      GGSL
TXBWIC21060-42206-14221-40000222D0000415D0026900002313S      GGSL
TXBWIC21060-42206-14222-10000012D0000220D0001800090314S      GGSL
TXBWIC21060-42206-14235-10000126D0000139D0066200020390S      GGSL
TXBWIC21060-42206-14456-00000116D0000183D0034200006420C      GGSL
TXBWIC21060-42206-14501-70000278D0000246D00419000001FMC      GGSL
TXBWIC21060-42206-14502-40000254D0000193D00353000101MMC      GGSL
TXBWIC21060-42206-14503- 0000001D0000001D00017000002FMC      GGSL
TXBWIC21060-42206-14503-10000238D0000231D01767000902FMC      GGSL
TXBWIC21060-42206-14504-80000388D0000323D01574001142MMC      GGSL
TXBWIC21060-42206-14505-50000070D0000066D003100000001MC      GGSL
TXBWIC21060-42206-14506-20000251D0000260D007720008002MC      GGSL
TXBWIC21060-42206-14570-30000126D0000682D0030800000ZBR3/4    GGSL
TXBWIC21060-42206-14571-00000232D0000777D0042100020ZBM3/4    GGSL
TXBWIC21060-42206-14572-70000232D0000854D0032700018ZBF3/4    GGSL
TXBWIC21060-42206-14599-40000048D0000585D00072000069536CH    GGSL
TXBWIC21060-42206-15106-30000012D0000130D000120000015106     GGSL
TXBWIC21060-42206-15111-70000038D0000257D001000000615111     GGSL
TXBWIC21060-42206-15404-00000006D0000081D000200006015404     GGSL
TXBWIC21060-42206-15549-80000015D0000251D000050001015549     GGSL
TXBWIC21060-42206-20491-20000122D0000614D003950002020491-10  GGSL
TXBWIC21060-42206-22261-90000198D0001758D006660001222261     GGSL
TXBWIC21060-42206-22300-50000114D0001203D001080000622300     GGSL
TXBWIC21060-42206-22701-00000050D0000162D002620000022701C    GGSL
TXBWIC21060-42206-23701-90000032D0000106D001580000023701S    GGSL
TXBWIC21060-42206-40300-10000040C0000106C0004200000XT300     GGSL
TXBWIC21060-42206-40301-80000152D0000992D0013000270XT301     GGSL
TXBWIC21060-42206-44100-30000018D0000312D0002400066XT4100    GGSL
TXBWIC21060-42206-48635-60000024D0000126D0000000288R8635     GGSL
TXBWIC21060-42206-63015-50000035D0001048D000060000663015     GGSL
TXBWIC21060-42206-63100-80000011D0000454D000030000063100     GGSL
TXBWIC21060-42579-00000-00000001D0000119D0000000000W5525X1210GGSL
TXBWIC21060-42579-00052-40000011D0000439D0002400000ST47812   GGSL
TXBWIC21060-42579-11212-80000013D0000642D0003100000SSR12GRN  GGSL
TXBWIC21060-42579-11250-00000007D0003363D0006000000P12       GGSL
TXBWIC21060-42579-11500-60000049D0001562D0029600003APB5      GGSL
TXBWIC21060-42579-12343-80000021D0001108D000000000020 YR-3100GGSL
TXBWIC21060-42579-13250-80000437D0011790D0182400000P3        GGSL
TXBWIC21060-42579-14250-70000211D0031078D0038500035P4        GGSL
TXBWIC21060-42579-15250-60000022D0004420D0010500001P5        GGSL
TXBWIC21060-42579-16250-50000055D0009438D0010900003P6        GGSL
TXBWIC21060-42579-18250-30000012D0003657D0006000000P8        GGSL
TXBWIC21060-42579-19342-40000144D0001746D007440000020 YR-324 GGSL
TXBWIC21060-42579-22341-10001280D0010940D06048008966 YR-350  GGSL
TXBWIC21060-42579-22342-80000054D0000545D0014400408NS12      GGSL
TXBWIC21060-42579-22345-90002172D0003108D0324402016APRC      GGSL
TXBWIC21060-42579-23100-30000144D0001008D00000002246 YR-3100 GGSL
TXBWIC21060-42579-32355-50000294D0001877D0085400014RS15      GGSL
TXBWIC21060-42579-43004-80000009D0000949D0008400000NB4       GGSL
TXBWIC21060-42579-43006-20000015D0002127D0008000000NB6       GGSL
TXBWIC21060-42579-50154-00000112D0003380D0035200008PRO BLK-31GGSL
TXBWIC21060-42579-50169-40000126D0002378D0054000000PRO BLK-45GGSL
TXBWIC21060-42579-50171-70000024D0000953D0000000000PRO BLK-41GGSL
TXBWIC21060-42579-63041-70000014D0001816D0002500001KG6       GGSL
TXBWIC21060-42579-63105-60000020D0001235D0005000000350ROLL   GGSL
TXBWIC21060-42579-63306-70000468D0002736D05400000003 YR-350  GGSL
TXBWIC21060-42579-81272-10000002D0000204D0000000000K6        GGSL
TXBWIC21060-42579-81360-50000004D0000657D0000200000NS12250   GGSL
TXBWIC21060-42579-81391-90000001D0000210D0000000002WGC12     GGSL
TXBWIC21060-42579-81392-60000001D0000258D0000000000WGC15     GGSL
TXBWIC21060-42579-81428-20000302D0000586D0060000000BURLAP BAGGGSL
TXBWIC21060-42579-81497-40000001D0000000D0000700000RDR + SIGNGGSL
TXBWIC21060-42579-81566-10000097D0015528D0008800006SBLT10300 GGSL
TXBWIC21060-42579-81568-50000157D0029639D0015000050SBLT12300 GGSL
TXBWIC21060-42579-81569-20000158D0032793D0016300004SBLT15.530GGSL
TXBWIC21060-42579-81571-50000090D0004258D0011300001SBLT3300  GGSL
TXBWIC21060-42579-81572-20000031D0002142D0015300005SBLT4300  GGSL
TXBWIC21060-42579-81573-90000119D0011366D0021700007SBLT6300  GGSL
TXBWIC21060-42579-81605-70000007D0000575D0006000000PRO BLK-33GGSL
TXBWIC21060-42579-81606-40000045D0005126D0013900001PRO BLK-43GGSL
TXBWIC21060-42579-81607-10000066D0010729D0010900006PRO BLK-63GGSL
TXBWIC21060-42579-81608-80000005D0001174D0000600000PRO BLK-83GGSL
TXBWIC21060-42579-81624-80000018D0000279D0000000000PRO BLK-35GGSL
TXBWIC21060-42579-81733-70000020D0001272D0006600008CS-3300BLKGGSL
TXBWIC21060-42579-81734-40000035D0002591D0002200011CS-4300BLKGGSL
TXBWIC21060-42579-81735-10000023D0002720D0010400001CS-6300BLKGGSL
TXBWIC21060-42579-81739-90000002D0000411D0000400004CS-3100BLKGGSL
TXBWIC21060-42579-82278-20000024D0000233D0000000084TWBAG-12  GGSL
TXBWIC21060-42853-00000-00000405D0021112D0023900033BFTD-DB12 GGSL
TXBWIC21060-42853-10000-10000056D0000219D0006800012ST3-BB4   GGSL
TXBWIC21060-42853-12000-90000136D0000374D0001200024MGC-DB12  GGSL
TXBWIC21060-42853-42000-00000708D0004675D0011400012TSBF-BB6  GGSL
TXBWIC21060-42853-50000-90000588D0003877D0136800126TSW-BB6   GGSL
TXBWIC21060-42853-60000-60000008D0000022D0000000000FFTR-BB4  GGSL
TXBWIC21060-42853-61000-50000024D0000106D0000000000FFTR2-BB4 GGSL
TXBWIC21060-42853-62000-40000068D0000090D0002800012FFTA-DB12 GGSL
TXBWIC21060-42853-65000-10000020D0000075D0004400088AB6-BB4   GGSL
TXBWIC21060-42853-77305-40000480D0019922D0019200100FTD-DB12  GGSL
TXBWIC21060-42853-77603-90000002D0000086D0000100000YJTD-DB12-GGSL
TXBWIC21060-42854-03298-10000780D0001683D0040800048FG32ORB112GGSL
TXBWIC21060-42854-09098-10000001D0000235D0000000000FG32ORB190GGSL
TXBWIC21060-42854-63278-50000108D0000206D0063600000FG32PC1-12GGSL
TXBWIC21060-42854-64870-00000060D0000412D0023400006FG48PC1-6 GGSL
TXBWIC21060-42854-93200-70000036D0000181D0008400000FG32SM1-12GGSL
TXBWIC21060-42879-81992-80000012D0000120D0000000000NAT340    GGSL
TXBWIC21060-43312-10003-70000056D0000168D0008500000103-0-009 GGSL
TXBWIC21060-43312-10027-30000072D0000700D0009600000104-0-003 GGSL
TXBWIC21060-43312-10031-00000042D0001150D0009100000107-0-002 GGSL
TXBWIC21060-43786-70006-10000048D0000162D000000000070006     GGSL
TXBWIC21060-43792-50001-30000001D0000031D0000100003Y32       GGSL
TXBWIC21060-44882-30115-20000020D0000157D0000000020WS50      GGSL
TXBWIC21060-44882-30501-30000057C0000157C0000000035FXG5825   GGSL
TXBWIC21060-44882-30502-00000005D0000057D0000000195FXG5850   GGSL
TXBWIC21060-44882-30504-40000006D0000122D0000000042FXG5875   GGSL
TXBWIC21060-44882-30506-80000012D0000358D0000000087FXG58100  GGSL
TXBWIC21060-46539-62045-60001150D0012973D0238201477          GGSL
TXBWIC21060-46539-64032-40000085D0000660D0000000224          GGSL
TXBWIC21060-46753-01032-30000048D0000162D00118000004675301032GGSL
TXBWIC21060-46753-01128-30000096D0000788D00260000204675301128GGSL
TXBWIC21060-46753-01500-70000002D0000098D00008000014675302500GGSL
TXBWIC21060-46753-02032-20000084D0000357D00123000064675302032GGSL
TXBWIC21060-46753-02128-20000064D0000726D00267000004675302128GGSL
TXBWIC21060-46753-03128-10000024D0000313D00152000044675303128GGSL
TXBWIC21060-46753-04032-00000210D0001200D00000000064675304032GGSL
TXBWIC21060-46753-04033-70000264D0002171D00084003842004675304GGSL
TXBWIC21060-46753-04128-00000299D0004091D00496001284675304128GGSL
TXBWIC21060-46753-04500-40000005D0000321D00015000004675304500GGSL
TXBWIC21060-46753-05032-90000180D0001499D00000001924675305032GGSL
TXBWIC21060-46753-05128-90000168D0002340D00284000964675305128GGSL
TXBWIC21060-46753-07032-70000039D0000197D00108000004675307032GGSL
TXBWIC21060-46753-07128-70000012D0000165D00004000004675307128GGSL
TXBWIC21060-46753-08016-60000012D0000104D000000000080160     GGSL
TXBWIC21060-46753-08032-60000504D0007905D01545002764675308032GGSL
TXBWIC21060-46753-14032-70000112D0000457D00591000004675314032GGSL
TXBWIC21060-46753-14128-70000196D0001439D00234000084675314128GGSL
TXBWIC21060-46753-14550-60000002D0000548D000020000014550     GGSL
TXBWIC21060-46753-15040-10000001D0000040D000010000050401     GGSL
TXBWIC21060-46753-17005-80000108D0000448D00250000004675317005GGSL
TXBWIC21060-46753-17040-90000720D0009780D00756000234675317040GGSL
TXBWIC21060-46753-19032-20000012D0000067D00000000002004675319GGSL
TXBWIC21060-46753-20128-80000032D0000462D0000000000          GGSL
TXBWIC21060-46753-21032-70000142D0000682D008400026410327     GGSL
TXBWIC21060-46753-21128-70000140D0001694D003240017612287     GGSL
TXBWIC21060-46753-22550-50000001D0000590D000000000025505     GGSL
TXBWIC21060-46878-26382-60000030D0000329D000060000026382     GGSL
TXBWIC21060-46878-27389-40000018D0000312D000180000027389     GGSL
TXBWIC21060-46878-27436-50000012D0000208D000270000027436     GGSL
TXBWIC21060-46878-27560-70000024D0000414D000540000027560     GGSL
TXBWIC21060-47985-10023-30000074D0000591D0031100044YCBSM3CF-PGGSL
TXBWIC21060-47985-10033-20000154D0001233D0057100003YCBSI3CF-PGGSL
TXBWIC21060-48307-70003-20000002D0000015D0000000002ST3       GGSL
TXBWIC21060-48307-70004-90000002D0000018D0034600013ST4-WS    GGSL
TXBWIC21060-48307-70006-30000004D0000074D0000000001ST6       GGSL
TXBWIC21060-48745-22244-80000012D0000280D0003200004BL22244   GGSL
TXBWIC21060-50197-00104-50001110D0004964D0172400096HT4       GGSL
TXBWIC21060-50197-00108-30000150D0001131D0015600000HT8       GGSL
TXBWIC21060-50197-00118-20000259D0003175D0091800304HT18      GGSL
TXBWIC21060-50197-00136-60000137D0002857D0036600009HT36      GGSL
TXBWIC21060-50197-00150-20000047D0001272D0013900001HT50      GGSL
TXBWIC21060-50197-00204-20000942D0004341D0340901176PT4       GGSL
TXBWIC21060-50197-00208-00000144D0001026D0004200018PT8       GGSL
TXBWIC21060-50197-00218-90000138D0001758D0011500000PT18      GGSL
TXBWIC21060-50197-00236-30000557D0010483D0019800131PT36      GGSL
TXBWIC21060-50197-00250-90000025D0000643D0000200001PT50      GGSL
TXBWIC21060-50197-00304-90000792D0003595D0261500648GT4       GGSL
TXBWIC21060-50197-00308-70000012D0000087D0001200012GT8       GGSL
TXBWIC21060-50197-00318-60000134D0001717D0040700025GT18      GGSL
TXBWIC21060-50197-00336-00000054D0001158D0011100020GT36      GGSL
TXBWIC21060-50197-00404-60000750D0003492D0173900552RT4       GGSL
TXBWIC21060-50197-00408-40000168D0001074D0011400048RT8       GGSL
TXBWIC21060-50197-00418-30000094D0001229D0041300000RT18      GGSL
TXBWIC21060-50197-00604-00000042D0000197D0051900492BT4       GGSL
TXBWIC21060-50197-00704-70000174D0000813D0084500060TR4       GGSL
TXBWIC21060-50197-00718-40000042D0000554D0012300020TR18      GGSL
TXBWIC21060-50197-00904-10000828D0003810D0228701908TO4       GGSL
TXBWIC21060-50197-00908-60000060D0000439D0014400012TO8       GGSL
TXBWIC21060-50197-00918-80000054D0000717D0017700011TO18      GGSL
TXBWIC21060-50197-01004-70000168D0000762D0020400648BM04      GGSL
TXBWIC21060-50197-01106-80000018D0000171D0003000000gs6       GGSL
TXBWIC21060-50197-01207-20000078D0000546D0000000000RP7       GGSL
TXBWIC21060-50197-01228-70000074D0001274D0004400002RP28      GGSL
TXBWIC21060-50197-01303-10000120D0000721D0054000996DB03      GGSL
TXBWIC21060-50197-01317-80000024D0000799D0009100000DB17      GGSL
TXBWIC21060-50197-01403-80000012D0000058D0000000000CM3       GGSL
TXBWIC21060-50197-01803-60000036D0000133D0006000000GM3       GGSL
TXBWIC21060-50197-01825-80000220D0002190D0000000009GM25      GGSL
TXBWIC21060-50197-02006-00000360D0000863D0068700096GL6       GGSL
TXBWIC21060-50197-02206-40000174D0000870D0026100222GG6       GGSL
TXBWIC21060-50197-02703-80000024D0000270D0000000012KM4       GGSL
TXBWIC21060-50197-02904-90000630D0002897D0094200666FT4       GGSL
TXBWIC21060-50197-02918-60000054D0000704D0026400002FT18      GGSL
TXBWIC21060-50197-03804-10002027D0010767D0104200891BTSP4     GGSL
TXBWIC21060-50197-03808-90000012D0000126D0000000000BTSP8     GGSL
TXBWIC21060-50197-03825-60000164D0004276D0064100023BTSP25    GGSL
TXBWIC21060-50197-03904-80000270D0001258D0093900456PM4       GGSL
TXBWIC21060-50197-03920-80000030D0000408D0024200000PM20      GGSL
TXBWIC21060-50197-05004-30000402D0001865D0182101164CT4       GGSL
TXBWIC21060-50197-05018-00000219D0002886D0046800020CT18      GGSL
TXBWIC21060-50197-05320-40000022D0000359D0003200000ELF20     GGSL
TXBWIC21060-50197-05405-80000132D0000632D0030100072IT5       GGSL
TXBWIC21060-50197-05420-10000020D0000305D0006100005it20      GGSL
TXBWIC21060-50197-05628-10000014D0000347D0008600020EOLF28    GGSL
TXBWIC21060-50197-05730-10000001D0000021D0000000000EOSR30    GGSL
TXBWIC21060-50197-06203-90000012D0000057D0000000000AL3       GGSL
TXBWIC21060-50197-06504-70000462D0002092D0130800372AT4       GGSL
TXBWIC21060-50197-06508-50000012D0000085D0006600000AT8       GGSL
TXBWIC21060-50197-06604-40000150D0000721D0057000168BR4       GGSL
TXBWIC21060-50197-06708-90000006D0000042D0000000006ET8       GGSL
TXBWIC21060-50197-30508-20000012D0000051D0000000000INPF8     GGSL
TXBWIC21060-50197-30808-30000036D0000150D0000000012ORPF8     GGSL
TXBWIC21060-50197-31318-60000006D0000039D0002400012topf18    GGSL
TXBWIC21060-50197-70101-30000240D0001447D0029800000ap1       GGSL
TXBWIC21060-50197-70102-00000225D0002519D0019200000ap2       GGSL
TXBWIC21060-50197-70116-70000120D0000772D0000000000AP16      GGSL
TXBWIC21060-50197-70304-80000204D0000411D0024000048ca4       GGSL
TXBWIC21060-50197-70308-60000114D0000496D0013200024ca8       GGSL
TXBWIC21060-50197-70608-70000018D0000080D0001200000PTM8      GGSL
TXBWIC21060-50197-70801-20000010D0000131D0000000000VM1       GGSL
TXBWIC21060-50197-71304-70000156D0000966D0045600300EC4       GGSL
TXBWIC21060-50197-71501-00000080D0000508D0042000004lsc1      GGSL
TXBWIC21060-50197-71601-70000075D0000384D0071200000dcm1      GGSL
TXBWIC21060-50197-71904-90000060D0000373D0013200000HC4       GGSL
TXBWIC21060-50197-80117-10000101D0000990D0089100120SC17      GGSL
TXBWIC21060-50349-01069-70000020D0000092D00060000001069-012  GGSL
TXBWIC21060-50699-00000-00000005D0000046D0001200000303460    GGSL
TXBWIC21060-50699-00014-00000019D0000082D0002200000300014    GGSL
TXBWIC21060-50699-00128-10000008D0000216D0000000002300128    GGSL
TXBWIC21060-50699-00212-00000039D0000349D0030600000300212    GGSL
TXBWIC21060-51497-15464-60000011D0001497D000130000015464     GGSL
TXBWIC21060-52427-00551-90000003D0000058D00000000004500102   GGSL
TXBWIC21060-52427-01038-40000003D0000054D0000000000105462    GGSL
TXBWIC21060-52427-60035-60000001D0000147D00000000006035240   GGSL
TXBWIC21060-52427-60109-40000001D0000022D00000000006010902   GGSL
TXBWIC21060-52732-00000-00000006D0000262D00006000302030.0    GGSL
TXBWIC21060-52732-10012-10000009D0001147D001000000410001     GGSL
TXBWIC21060-52732-10225-50000008D0000246D000120000060009.0   GGSL
TXBWIC21060-52732-16150-40000001D0000220D0000300000P15150    GGSL
TXBWIC21060-52732-20505-50000006D0000543D00092000002050SU    GGSL
TXBWIC21060-52732-20509-30000007D0000996D00083000002050P     GGSL
TXBWIC21060-52732-20519-20000001D0000149D00022000052050TP    GGSL
TXBWIC21060-52732-27500-30000125D0004809D00626000282750      GGSL
TXBWIC21060-53291-11002-60000504D0005373D0031200036820-1002  GGSL
TXBWIC21060-53291-19881-90000004D0000049D0002000000820-1002  GGSL
TXBWIC21060-53291-20602-30000010D0000040D0000000000820-0602  GGSL
TXBWIC21060-53291-30000-00000010D0002822D0001000001820-1024  GGSL
TXBWIC21060-53291-40003-50000020D0000062D0000000010840-0003  GGSL
TXBWIC21060-53291-40052-30000016D0000076D0000800000840-0052  GGSL
TXBWIC21060-53291-41501-50000006D0000071D0000000000840-1501  GGSL
TXBWIC21060-53291-41502-20000006D0000120D0000000000840-1502  GGSL
TXBWIC21060-53291-50052-00000004D0000152D0001200000850-0052  GGSL
TXBWIC21060-53291-55981-80000204D0000765D0000000024820-0188  GGSL
TXBWIC21060-66498-01115-70000503D0010845D004350001801115.0   GGSL
TXBWIC21060-66498-02115-60003132D0044210D040050192102775.0   GGSL
TXBWIC21060-66498-02185-90000060D0000820D000560001202185     GGSL
TXBWIC21060-66498-02330-90000060D0000868D00000001206649802330GGSL
TXBWIC21060-66498-04175-80001318D0013132D004270016704175.0   GGSL
TXBWIC21060-66498-05113-90001048D0006449D001120006905175.0   GGSL
TXBWIC21060-66498-09776-20000093D0001088D000300000009776     GGSL
TXBWIC21060-66498-09785-40000018D0000082D000000000009785     GGSL
TXBWIC21060-66498-09795-30000075D0000858D000000000009795     GGSL
TXBWIC21060-66498-09901-80003524D0021534D108830001409901.0   GGSL
TXBWIC21060-66498-09902-50003552D0034087D070580030209902.0   GGSL
TXBWIC21060-66498-09903-20003371D0044290D023530035009903.0   GGSL
TXBWIC21060-66498-09925-40000144D0000543D008880001209925     GGSL
TXBWIC21060-66498-09929-20000028D0000164D003420000009929     GGSL
TXBWIC21060-66498-09937-70002364D0006489D046200079209937     GGSL
TXBWIC21060-66498-09939-10000030D0000275D000020000009939     GGSL
TXBWIC21060-66498-09947-60000492D0001350D008880034809947     GGSL
TXBWIC21060-66498-09950-50001662D0008057D013860049809955     GGSL
TXBWIC21060-66498-09965-00000792D0004813D014940024609965     GGSL
TXBWIC21060-66498-09977-30000372D0002086D005880008409977     GGSL
TXBWIC21060-66498-09985-80000582D0002141D001490028809985     GGSL
TXBWIC21060-66498-89905-20001182D0004612D051740011409905     GGSL
TXBWIC21060-66498-99827-40001128D0004496D017280040809827     GGSL
TXBWIC21060-70183-50005-50000212D0006219D00356000125000510   GGSL
TXBWIC21060-70183-50006-20000414D0015065D00144000185000610   GGSL
TXBWIC21060-70183-50023-90000096D0002534D00162000125002306   GGSL
TXBWIC21060-70183-50026-00004580D0051120D00656000445002610   GGSL
TXBWIC21060-70183-50027-70000240D0001131D00402000125002715   GGSL
TXBWIC21060-70183-50029-10000096D0001158D00159000085007410   GGSL
TXBWIC21060-70183-50034-50001461D0005828D02322000245003470   GGSL
TXBWIC21060-70183-50038-30000372D0004564D00216000085003810   GGSL
TXBWIC21060-70183-50042-00000019D0001702D00048000005004215   GGSL
TXBWIC21060-70183-50055-00001620D0018014D01032000245005510   GGSL
TXBWIC21060-70183-50060-40000123D0004227D00174000005006010   GGSL
TXBWIC21060-70183-50085-70000006D0000420D00006000005008510   GGSL
TXBWIC21060-70183-51001-60001284D0022833D00788000365100114   GGSL
TXBWIC21060-70183-51006-10000720C0000000D00792000125100610   GGSL
TXBWIC21060-70183-51007-80000264D0010240D00396000245100710   GGSL
TXBWIC21060-70183-51009-20000060D0000905D00184000005004010   GGSL
TXBWIC21060-70183-51019-10000844D0017585D00248000085101910   GGSL
TXBWIC21060-70183-51073-30000654D0003107D00504000125107315   GGSL
TXBWIC21060-70183-51090-00000288D0029682D00677000325109010   GGSL
TXBWIC21060-70183-52005-30000032D0000779D00068000005200510   GGSL
TXBWIC21060-70183-52039-80000104D0002341D00156000005203910   GGSL
TXBWIC21060-70183-52350-40000008D0000236D00044000005235010   GGSL
TXBWIC21060-70183-57050-80000270D0007729D00186000125705010   GGSL
TXBWIC21060-70183-57080-50000272D0004270D00008000005708010   GGSL
TXBWIC21060-70183-57250-20000396D0008488D00112000765725070   GGSL
TXBWIC21060-70183-88891-70000002D0000291D00000000008889136   GGSL
TXBWIC21060-70251-65240-20000006D0000169D0000900003652400    GGSL
TXBWIC21060-70251-75546-20000006D0000054D0006900000755460    GGSL
TXBWIC21060-70251-76116-60000105D0001252D0025200012761160    GGSL
TXBWIC21060-70251-79160-60000429D0004715D0015300072791600    GGSL
TXBWIC21060-70251-81182-30000045D0000553D00081000098111082   GGSL
TXBWIC21060-70251-81482-40001140D0006822D00500000008141082   GGSL
TXBWIC21060-70251-82746-60000048D0000512D00051000038274600   GGSL
TXBWIC21060-70805-51001-10000810D0002046D023500007070805-010-GGSL
TXBWIC21060-70805-51002-80000600D0002834D009330004070805-005-GGSL
TXBWIC21060-70805-51013-40002038D0029803D0146200114BD02      GGSL
TXBWIC21060-70805-51024-00000180D0000636D002100001270805-006-GGSL
TXBWIC21060-70805-51025-70003140D0043100D061720017570805-001-GGSL
TXBWIC21060-70805-51026-40000360D0001211D004320000670805-006-GGSL
TXBWIC21060-70805-51033-20000422D0005676D008380002070805-001-GGSL
TXBWIC21060-70805-51034-90000417D0010802D006920002470805-001-GGSL
TXBWIC21060-70805-51037-00000018D0000224D001600000770805-001-GGSL
TXBWIC21060-70805-51038-70000070D0001640D002320000770805-001-GGSL
TXBWIC21060-70805-51051-60000112D0000736D005040000070805-008-GGSL
TXBWIC21060-70805-53003-30002099D0016830D0296700114BD021     GGSL
TXBWIC21060-70805-62025-30004568D0118248D110740015970805-001-GGSL
TXBWIC21060-70805-84052-10000037D0001128D0010800000KERNEL_M-0GGSL
TXBWIC21060-70805-84053-80000184D0003900D002320000570805-001-GGSL
TXBWIC21060-70805-84054-50000117D0002003D006030000270805-001-GGSL
TXBWIC21060-70805-84075-00000731D0022532D014170000470805-001-GGSL
TXBWIC21060-70805-84076-70000140D0007748D003580000770805-001-GGSL
TXBWIC21060-70805-84077-40000048D0002733D0011400000KERNEL_M-0GGSL
TXBWIC21060-70805-84079-80000244D0010081D004340000570805-001-GGSL
TXBWIC21060-70805-84093-40000037D0001818D0013200009PEANUTSPL-GGSL
TXBWIC21060-70923-00000-00000126D0000566D0044500024600.0     GGSL
TXBWIC21060-70923-00196-50000408D0000781D0127100024T100-12   GGSL
TXBWIC21060-70923-00300-60000617D0003451D0190800024T300FD    GGSL
TXBWIC21060-70923-00402-70000276D0000879D0022200036T401-6    GGSL
TXBWIC21060-70923-00912-10000060D0000324D0007800000T901-6    GGSL
TXBWIC21060-70923-01860-40000006D0000032D0000000000T1806-6   GGSL
TXBWIC21060-70923-02111-60000024D0000136D0003600000T21016    GGSL
TXBWIC21060-70923-02301-10000066D0000220D0000000000T2302-6   GGSL
TXBWIC21060-70923-02900-60000152D0000756D0022800040T2900     GGSL
TXBWIC21060-70923-08515-60000048D0000085D0057600000T3206     GGSL
TXBWIC21060-70923-11915-80000001D0000207D0000000000T2502-DS  GGSL
TXBWIC21060-70923-12277-60000048D0000242D0005100000T1812     GGSL
TXBWIC21060-70923-19016-40000120D0000637D0000000000T1901-6   GGSL
TXBWIC21060-70923-29432-90000072D0000605D0002400000T514      GGSL
TXBWIC21060-70923-64051-50000006D0000057D0000600012T702      GGSL
TXBWIC21060-70923-66431-30000006D0000074D0000000000T1240     GGSL
TXBWIC21060-70923-69500-30000001D0000035D0001300005T2512     GGSL
TXBWIC21060-71092-32500-80000960D0004425D0048600096T2502     GGSL
TXBWIC21060-71121-04460- 0000015D0000160D0004200006HG-61067  GGSL
TXBWIC21060-71121-05580-40000294D0002283D01002000125580      GGSL
TXBWIC21060-71121-53940-30000012D0000104D0006400000HG-53944  GGSL
TXBWIC21060-71121-95704-70000048D0000289D0006000000HG-95704  GGSL
TXBWIC21060-71121-95830-30000009D0000079D0001200000HG-95830  GGSL
TXBWIC21060-71121-96281-20001559D0007151D0025200060HG-96281  GGSL
TXBWIC21060-71121-96470-00000030D0000142D0003000000HG-96470  GGSL
TXBWIC21060-71549-01128-40000072D0000212D00256000000112812   GGSL
TXBWIC21060-71549-01129-10000096D0000261D00456000000112912   GGSL
TXBWIC21060-71549-01656-20000018D0000122D00351000000165610   GGSL
TXBWIC21060-71549-01666-10000096D0001096D00048000000166610   GGSL
TXBWIC21060-71549-01738-50000138D0001135D00498000000173810   GGSL
TXBWIC21060-71549-01748-40000018D0000141D00243000000174810   GGSL
TXBWIC21060-71549-01936-50000180D0001161D00135000000193610   GGSL
TXBWIC21060-71549-02000-20000185C0001161C00124000000200010   GGSL
TXBWIC21060-71549-02003-30000159D0002639D00344000040200310   GGSL
TXBWIC21060-71549-02014-90000144D0000860D00228000000201405   GGSL
TXBWIC21060-71549-02022-40000080D0000234D00168000000202212   GGSL
TXBWIC21060-71549-02028-60000120D0000378D00016000000202812   GGSL
TXBWIC21060-71549-02029-30000120D0000451D00018000000202912   GGSL
TXBWIC21060-71549-02030-90000012D0000111D00018000000203012   GGSL
TXBWIC21060-71549-02044-60000092D0000698D00148000040204410   GGSL
TXBWIC21060-71549-02045-30000232D0002821D00100000000204510   GGSL
TXBWIC21060-71549-02047-70000240D0001362D00816000000204710   GGSL
TXBWIC21060-71549-02048-40000024D0000606D00036000040204810   GGSL
TXBWIC21060-71549-02049-10000072D0000518D00552000000204910   GGSL
TXBWIC21060-71549-02054-50000048D0000261D00040000000205408   GGSL
TXBWIC21060-71549-02055-20001566D0003310D00840000240205506   GGSL
TXBWIC21060-71549-02057-60000018D0000072D00288000000205710   GGSL
TXBWIC21060-71549-02127-60000012D0000147D00012000000212710   GGSL
TXBWIC21060-71549-02208-20001020D0008450D00676000640220810   GGSL
TXBWIC21060-71549-02219-80000196D0001365D00024000000221910   GGSL
TXBWIC21060-71549-02756-80000184D0000463D00216000160275612   GGSL
TXBWIC21060-71549-02822-00000918D0009292D01374001920282210   GGSL
TXBWIC21060-71549-03455-90000024D0000138D00000000000345510   GGSL
TXBWIC21060-71549-03456-60000192D0000796D00132001800345610   GGSL
TXBWIC21060-71549-03964-60000168D0001070D00042000240396410   GGSL
TXBWIC21060-71549-03987-50000168D0001750D00003000000398710   GGSL
TXBWIC21060-71549-04253-00000136D0000922D00588000000425310   GGSL
TXBWIC21060-71549-04256-10000004D0001195D00000000020425610   GGSL
TXBWIC21060-71549-04318-60000090D0000401D00580000849994318   GGSL
TXBWIC21060-71549-04378-00000279D0002469D00258000060437806   GGSL
TXBWIC21060-71549-04380-30000336D0001323D00160000160438006   GGSL
TXBWIC21060-71549-04385-80000660D0002987D00750002820438580   GGSL
TXBWIC21060-71549-04465-70001064D0012949D00016000000446505   GGSL
TXBWIC21060-71549-04475-60000052D0000782D00000000000447505   GGSL
TXBWIC21060-71549-04477-00000612D0002689D00210000420447705   GGSL
TXBWIC21060-71549-04478-70000876D0007498D00300000000447805   GGSL
TXBWIC21060-71549-04479-40000984D0007812D00816000000447905   GGSL
TXBWIC21060-71549-04481-70000832D0007008D00088000080448105   GGSL
TXBWIC21060-71549-04486-20000072D0000552D00018000300448605   GGSL
TXBWIC21060-71549-04487-90000054D0000386D00000000000448705   GGSL
TXBWIC21060-71549-04488-60000051C0000386C00036000000448805   GGSL
TXBWIC21060-71549-04491-60000252D0002231D00156000120449105   GGSL
TXBWIC21060-71549-04493-00000044D0000377D00056000080449305   GGSL
TXBWIC21060-71549-04494-70000108D0000870D00420000000449405   GGSL
TXBWIC21060-71549-04495-40000030D0000155D00084000000449505   GGSL
TXBWIC21060-71549-04613-20000072D0000473D00132000000461412   GGSL
TXBWIC21060-71549-04616-30000120D0000670D00180000000461612   GGSL
TXBWIC21060-71549-04657-60000020D0000177D00130000000465705   GGSL
TXBWIC21060-71549-04745-00000102D0000758D00214000060474510   GGSL
TXBWIC21060-71549-04757-30000168D0002445D00104000040475705   GGSL
TXBWIC21060-71549-04758-00000033D0000815D00012000000475805   GGSL
TXBWIC21060-71549-04759-70000008D0000583D00008000000475905   GGSL
TXBWIC21060-71549-04910-20000090D0000362D00138000000491010   GGSL
TXBWIC21060-71549-07472-20000018D0000072D00018000060747210   GGSL
TXBWIC21060-71549-08410-30000610D0005584D00684001560841010   GGSL
TXBWIC21060-71549-43331-40001152D0006617D01008000000433310   GGSL
TXBWIC21060-71549-43361-10000815D0013430D00248000120433610   GGSL
TXBWIC21060-71549-43371-00000072D0002145D00140000040433710   GGSL
TXBWIC21060-71549-43701-50000092D0001972D00276000040437010   GGSL
TXBWIC21060-71549-43820-30000020D0000173D000400002004381012  GGSL
TXBWIC21060-71549-43887-60000048D0000195D00300000004388710   GGSL
TXBWIC21060-71549-46008-20000040D0000640D00148000004600810   GGSL
TXBWIC21060-71549-46025-90000030D0000154D00546000004602510   GGSL
TXBWIC21060-71549-46132-40000176D0002492D00380000004613264   GGSL
TXBWIC21060-71549-46134-80000090D0000393D00096000004613406   GGSL
TXBWIC21060-71549-46135-50000008D0000102D00012000004613504   GGSL
TXBWIC21060-71549-46526-10000020D0000215D00008000324652605   GGSL
TXBWIC21060-71549-46527-80000008D0000180D00188000004652705   GGSL
TXBWIC21060-71549-46530-80000006D0000026D00114000004653005   GGSL
TXBWIC21060-71549-99008-40000054D0000712D00468001749900810   GGSL
TXBWIC21060-71549-99019-00000024D0000309D00219000609901910   GGSL
TXBWIC21060-71693-98701-50000001D0000293D000000000002-PAO450 GGSL
TXBWIC21060-71898-43163-40000383D0008567D00769000227800      GGSL
TXBWIC21060-71898-43180-10000405D0007341D00739000427450      GGSL
TXBWIC21060-71898-43209-90000002D0000047D00228000007822      GGSL
TXBWIC21060-71898-43210-50000018D0000478D00281000207824      GGSL
TXBWIC21060-71898-43211-20000045D0001083D00324000007828      GGSL
TXBWIC21060-71898-43213-60000761D0016945D00589000247324      GGSL
TXBWIC21060-71898-43214-30000219D0004292D00436000007326      GGSL
TXBWIC21060-71898-43215-00000105D0001509D003260000532150     GGSL
TXBWIC21060-72525-00003-00000240D0000816D0034500000HRT-6     GGSL
TXBWIC21060-72525-00005-40000309D0001506D0029100060HRP-16    GGSL
TXBWIC21060-72525-00022-10000102D0000783D0025800012HBB-32    GGSL
TXBWIC21060-72525-00048-10000042D0000174D0014100000HDE-8     GGSL
TXBWIC21060-72525-00055-90000072D0000495D0015000000EGG-16    GGSL
TXBWIC21060-72525-00078-80000045D0000161D0009000015BBTRP     GGSL
TXBWIC21060-72532-00014-80001260D0009307D0223700936          GGSL
TXBWIC21060-72532-00015-50000254D0006222D0087200360          GGSL
TXBWIC21060-72532-00016-20000156D0006264D0033900001          GGSL
TXBWIC21060-72532-00017-90000458D0050935D0041200002          GGSL
TXBWIC21060-72532-22310-30000080D0000601D0017000250stspray-10GGSL
TXBWIC21060-72693-00014-80000132D0001388D003970001682770001  GGSL
TXBWIC21060-72693-00015-50000264D0018216D006940000282100001  GGSL
TXBWIC21060-72693-00022-30000011D0002385D001510000583000002  GGSL
TXBWIC21060-72693-00029-20000013D0004095D000140000082100002  GGSL
TXBWIC21060-72693-00032-20000012D0000360D000740000482100006  GGSL
TXBWIC21060-72693-00046-90000167D0008174D006460000482004985  GGSL
TXBWIC21060-72693-00065-00000024D0000179D000000001282770006  GGSL
TXBWIC21060-72693-00210-40000017D0009347D000000000782690021  GGSL
TXBWIC21060-72693-00220-30000002D0000518D000080000082690032  GGSL
TXBWIC21060-72693-00332-30000103D0001083D000810000082300330  GGSL
TXBWIC21060-72693-00368-20000013D0000663D000000000082690036  GGSL
TXBWIC21060-72693-00480-10000750D0072744D002900005082002490  GGSL
TXBWIC21060-72693-00498-60000692D0033507D007450005682002489  GGSL
TXBWIC21060-72693-00505-10001187D0021811D014820013282002488  GGSL
TXBWIC21060-72693-00993-60000012D0000370D000220000182100099  GGSL
TXBWIC21060-72693-01004-80000068D0003085D001500000482100100  GGSL
TXBWIC21060-72693-01020-80000032D0007272D001570000583014144  GGSL
TXBWIC21060-72693-02475-50000143D0003339D004330000082002475  GGSL
TXBWIC21060-72693-02478-60000058D0009925D000700000082002478  GGSL
TXBWIC21060-72693-02479-30000874D0004508D013790123582002479  GGSL
TXBWIC21060-72693-02504-20000219D0002739D004440000082002504  GGSL
TXBWIC21060-72693-02506-60003540D0059151D041230000882002506  GGSL
TXBWIC21060-72693-02507-30000118D0018007D006550003182002507  GGSL
TXBWIC21060-72693-02686-50000409D0012132D008730003882002686  GGSL
TXBWIC21060-72693-02750-30000049D0002267D000080000082002750  GGSL
TXBWIC21060-72693-03052-70000006D0000380D000420000082300305  GGSL
TXBWIC21060-72693-03143-20000072D0000654D003780000682300314  GGSL
TXBWIC21060-72693-03154-80000216D0002429D007320001282300315  GGSL
TXBWIC21060-72693-03164-70000063D0000565D000510000082300316  GGSL
TXBWIC21060-72693-03174-60000039D0000390D000570000082300317  GGSL
TXBWIC21060-72693-03194-40000012D0000374D000480000682300319  GGSL
TXBWIC21060-72693-03254-50000201D0011846D004580002582003254  GGSL
TXBWIC21060-72693-03284-20000018D0000147D000660000082300328  GGSL
TXBWIC21060-72693-03298-90000199D0014529D001840000282300329  GGSL
TXBWIC21060-72693-03395-50000001D0000145D000270000082300339  GGSL
TXBWIC21060-72693-03598-00002772D0098957D069270113582003598  GGSL
TXBWIC21060-72693-03599-70001897D0180215D024670031582003599  GGSL
TXBWIC21060-72693-04320-60003366D0145211D008710056082004320  GGSL
TXBWIC21060-72693-04430-20001896D0030117D036060004882004430  GGSL
TXBWIC21060-72693-04431-90001582D0033749D030580002682004431  GGSL
TXBWIC21060-72693-04432-60005343D0151275D073860028582004432  GGSL
TXBWIC21060-72693-04435-70006489D0230364D078060038782004435  GGSL
TXBWIC21060-72693-04438-80006140D0092272D058520115482004438  GGSL
TXBWIC21060-72693-04491-30000426D0003091D002850001282004491  GGSL
TXBWIC21060-72693-04493-70000402D0007562D006020002782004493  GGSL
TXBWIC21060-72693-04500-20000037D0002000D000540000282304500  GGSL
TXBWIC21060-72693-04504-00000852D0022520D007260005482004505  GGSL
TXBWIC21060-72693-04505-70001095D0078296D022660018682004506  GGSL
TXBWIC21060-72693-04506-40000623D0010665D012970003682004504  GGSL
TXBWIC21060-72693-04508-80000196D0002056D017570002082004508  GGSL
TXBWIC21060-72693-04515-60000003D0000145D000620000082004515  GGSL
TXBWIC21060-72693-04964-20005096D0046474D2890301637MT10002KITGGSL
TXBWIC21060-72693-05004-40000707D0003739D026280006082005004  GGSL
TXBWIC21060-72693-05005-10000834D0010888D030420004882005005  GGSL
TXBWIC21060-72693-05007-50000522D0014202D008520039082005007  GGSL
TXBWIC21060-72693-05200-00000384D0003992D007440026882030466  GGSL
TXBWIC21060-72693-05201-70000684D0003841D020760012082005201  GGSL
TXBWIC21060-72693-05202-40000792D0010063D014700012082005202  GGSL
TXBWIC21060-72693-06002-90001461D0018575D022320044482004318  GGSL
TXBWIC21060-72693-06003-60000952D0025423D009200026082004319  GGSL
TXBWIC21060-72693-08300-40001363D0062048D030630003282008300  GGSL
TXBWIC21060-72693-10002-20000007D0000089D000510000082004964  GGSL
TXBWIC21060-72693-10011-40000360D0002982D012840018082004317  GGSL
TXBWIC21060-72693-10012-10000042D0000690D000460000082210011  GGSL
TXBWIC21060-72693-10013-80000054D0000422D001560000082210012  GGSL
TXBWIC21060-72693-10116-60000048C0000422C008700000082210016  GGSL
TXBWIC21060-72693-10231-60000018D0000152D003060000082210023  GGSL
TXBWIC21060-72693-14057-80000280D0019110D005210001083014005  GGSL
TXBWIC21060-72693-21037-00000156D0000819D001560000082021037  GGSL
TXBWIC21060-72693-24010-00000108D0002711D001870001682002401  GGSL
TXBWIC21060-72693-24030-80000386D0030138D010460004082002403  GGSL
TXBWIC21060-72693-24033-90000006D0000270D000000000083014004  GGSL
TXBWIC21060-72693-24925-70000206D0008592D000000000182002492  GGSL
TXBWIC21060-72693-24957-80000300D0001675D006560002482002495  GGSL
TXBWIC21060-72693-29101-00000022D0001210D001650000283012910  GGSL
TXBWIC21060-72693-29912-20001417D0016795D021570030583012991  GGSL
TXBWIC21060-72693-30018-70000005D0001155D000140000083100018  GGSL
TXBWIC21060-72693-31550-10000005D0000675D000780000082300332  GGSL
TXBWIC21060-72693-31766-60000192D0002848D004060001282031766  GGSL
TXBWIC21060-72693-31866-30000024D0000231D000120000082031866  GGSL
TXBWIC21060-72693-31967-70000004D0000520D000080000482031968  GGSL
TXBWIC21060-72693-31973-80000236D0005610D002470000082031973  GGSL
TXBWIC21060-72693-31975-20000031D0002450D003130000182031975  GGSL
TXBWIC21060-72693-31984-40001269D0014311D022450070882031984  GGSL
TXBWIC21060-72693-31985-10003058D0038142D007470094882031985  GGSL
TXBWIC21060-72693-33563-90000025D0001776D002580000083013356  GGSL
TXBWIC21060-72693-33655-10000012D0000234D000000001283013365  GGSL
TXBWIC21060-72693-33688-90000063D0004677D003350000383013368  GGSL
TXBWIC21060-72693-33744-20000019D0001571D000190000083013374  GGSL
TXBWIC21060-72693-33820-30000010D0003766D000820000083013382  GGSL
TXBWIC21060-72693-33850-00000133D0013460D002300000483013385  GGSL
TXBWIC21060-72693-33880-70000013D0001921D000560000083013388  GGSL
TXBWIC21060-72693-33953-80000755D0026621D010020029383013395  GGSL
TXBWIC21060-72693-34530-00000003D0000261D000160000083013453  GGSL
TXBWIC21060-72693-34958-20000038D0002846D001530002383013884  GGSL
TXBWIC21060-72693-35969-70000004D0000267D000170000482690040  GGSL
TXBWIC21060-72693-36208-60000241D0010166D006210000083013620  GGSL
TXBWIC21060-72693-37888-90003422C0010166C000760000083013788  GGSL
TXBWIC21060-72693-38528-30000010D0004172D000670000083013852  GGSL
TXBWIC21060-72693-38830-70000072D0002172D000000000083013833  GGSL
TXBWIC21060-72693-40010-80000015D0002292D001250000083014003  GGSL
TXBWIC21060-72693-40127-30000013D0000650D001250000083014012  GGSL
TXBWIC21060-72693-40177-80000930D0005052D024780004882104017  GGSL
TXBWIC21060-72693-41488-40000008D0000643D000080000483014148  GGSL
TXBWIC21060-72693-41878-30000095D0003791D007980037183014187  GGSL
TXBWIC21060-72693-41888-20000022D0002723D000180000083014188  GGSL
TXBWIC21060-72693-44290-00000702D0008498D020150002482004429  GGSL
TXBWIC21060-72693-44410-20002300D0080416D041140004082004441  GGSL
TXBWIC21060-72693-44430-00000759D0087241D010610005382004443  GGSL
TXBWIC21060-72693-44650-20000180D0003526D003780001282004465  GGSL
TXBWIC21060-72693-44660-10000083D0004924D000800000482004466  GGSL
TXBWIC21060-72693-45000-40000624D0003986D010770001282004500  GGSL
TXBWIC21060-72693-45010-30001224D0011024D014110013282004501  GGSL
TXBWIC21060-72693-45020-20001307D0019415D014040014482004502  GGSL
TXBWIC21060-72693-45030-10000297D0014244D014190000882994503  GGSL
TXBWIC21060-72693-45115-50000321D0002078D002010004882004511  GGSL
TXBWIC21060-72693-45530-60000024D0000856D000380000482004553  GGSL
TXBWIC21060-72693-46930-30000356D0003022D006720000082004693  GGSL
TXBWIC21060-72693-46950-10000106D0002897D001940000082004695  GGSL
TXBWIC21060-72693-46970-90000001D0000261D000190003682004697  GGSL
TXBWIC21060-72693-50064-80000418D0004084D011390188482005006  GGSL
TXBWIC21060-72693-50096-90000019D0001867D000620000082005009  GGSL
TXBWIC21060-72693-69370-80000072D0000523D002160001282690037  GGSL
TXBWIC21060-72693-70004-80000440D0003628D005080000082770008  GGSL
TXBWIC21060-72693-77034-80000474D0004979D004940001082770003  GGSL
TXBWIC21060-72693-81001-30000043D0000615D000450000182810002  GGSL
TXBWIC21060-72693-82104-00003492D0106935D059850061182100005  GGSL
TXBWIC21060-72693-82303-70000396D0002293D012240003682300001  GGSL
TXBWIC21060-72711-60018-30000006D0000240D000240000060012     GGSL
TXBWIC21060-72725-00023-80000088D0001228D0024800004HBB-128   GGSL
TXBWIC21060-72725-00087-00000012D0000049D0000000000RA-16     GGSL
TXBWIC21060-72725-00158-70000004D0000164D0018400000BLKBB-128 GGSL
TXBWIC21060-72725-00183-90000033D0000457D0007200012BLKBB-326 GGSL
TXBWIC21060-72725-00213-30000024D0000180D0008700000BLKBB-16A GGSL
TXBWIC21060-72725-00215-40000028D0000760D0001600000BBKIT-LGVPGGSL
TXBWIC21060-72725-00218-80000004D0000205D0000000000BLKBB-KIT GGSL
TXBWIC21060-72725-00235-50000012D0000074D0000000000PD-1      GGSL
TXBWIC21060-72725-00269-00000249D0002184D0063000393DE-FG105P GGSL
TXBWIC21060-72725-00407-60000276D0001711D0049200036DE-FG2P   GGSL
TXBWIC21060-72725-00408-30000368D0003267D0053600384DE-FG4P   GGSL
TXBWIC21060-72725-00420-50000001D0000157D0000000000GRR-20    GGSL
TXBWIC21060-72725-00461-80000216D0000666D0000000624360-32S   GGSL
TXBWIC21060-72845-10424-30000006D0000031D000000000010424X    GGSL
TXBWIC21060-72868-00000-00001200D0000900D0672001008M330      GGSL
TXBWIC21060-72868-00300-40001044D0003180D0142800144M6006     GGSL
TXBWIC21060-72868-00326-40003720D0005354D2062805088M326      GGSL
TXBWIC21060-72868-00800-90000114D0001319D0105600630M6009     GGSL
TXBWIC21060-72868-02000-10000036D0000559D0006000018M9015     GGSL
TXBWIC21060-72868-02220-30000392D0002611D0144800016M6004     GGSL
TXBWIC21060-72868-02300-20000012D0000079D0002400006M7001-1   GGSL
TXBWIC21060-72868-02400-90000144D0001394D0013600236M7002-2   GGSL
TXBWIC21060-72868-03620-00000154D0011194D0031300029VP362     GGSL
TXBWIC21060-72868-03630-90000803D0005771D0380500260VP363     GGSL
TXBWIC21060-72868-03648-40002144D0026139D0271700082VP364B    GGSL
TXBWIC21060-72868-03660-60000001D0000310D0000000002VP366     GGSL
TXBWIC21060-72868-09012-70000018D0000339D0000000006M9012     GGSL
TXBWIC21060-72868-09320-30007200D0001359D3074415048M320      GGSL
TXBWIC21060-72868-11751-00000018D0000136D0015000000M751K     GGSL
TXBWIC21060-72868-13035-90001044D0000904D0756000000M035      GGSL
TXBWIC21060-72868-13200-10001164D0001629D0427200444200R      GGSL
TXBWIC21060-72868-13308-40000276D0002794D0059900012M308      GGSL
TXBWIC21060-72868-13309-10022320D0004051D5313601872M309      GGSL
TXBWIC21060-72868-13325-10011232D0004204D1253600000M325      GGSL
TXBWIC21060-72868-13327-50000450D0000068D1695000000M327      GGSL
TXBWIC21060-72868-13362-60000010D0000048D0000400000M362      GGSL
TXBWIC21060-72868-36410-50000020C0000048C0000000000VP364B-10 GGSL
TXBWIC21060-72868-54002-80000456D0000671D0464400000M668      GGSL
TXBWIC21060-72868-54102-50001008D0001781D0933600036M669      GGSL
TXBWIC21060-72874-00145-20000012D0000135D00048000004052X     GGSL
TXBWIC21060-72874-04985-00000012D0000132D00096000004050S     GGSL
TXBWIC21060-72874-06464-80000036D0000063D01560000008412M     GGSL
TXBWIC21060-72874-06465-50000024D0000070D00492000008412L     GGSL
TXBWIC21060-72874-06850-90000012D0000137D00030000006039M     GGSL
TXBWIC21060-72874-06851-60000012D0000137D00078000066039L     GGSL
TXBWIC21060-72874-06852-30000012D0000137D00036000006039X     GGSL
TXBWIC21060-72874-06946-90000012D0000037D00336000008438XS    GGSL
TXBWIC21060-72874-06947-60000012D0000037D00360000008438S     GGSL
TXBWIC21060-72874-06948-30000012D0000038D00216000008442X     GGSL
TXBWIC21060-72874-07229-20000012D0000056D00000000008445M     GGSL
TXBWIC21060-72874-07231-50000012D0000056D00012000008445L     GGSL
TXBWIC21060-72874-07747-10000048D0000150D00456000008438L     GGSL
TXBWIC21060-72874-08550-60000006D0000030D00084000004063L     GGSL
TXBWIC21060-72874-08551-30000006D0000030D00072000004063X     GGSL
TXBWIC21060-72874-40200-60000036D0000028D00396000004020L     GGSL
TXBWIC21060-72874-40206-80000012D0000009D00060000004020B     GGSL
TXBWIC21060-72874-40524-30000012D0000135D00048000004052L     GGSL
TXBWIC21060-72874-40674-50000024D0000238D00096000004067L     GGSL
TXBWIC21060-72874-40713-10000012D0000064D00084000004071M     GGSL
TXBWIC21060-72874-40714-80000012D0000066D00012000004071L     GGSL
TXBWIC21060-72874-40940-10000024D0000096D00048000004094L     GGSL
TXBWIC21060-72874-40945-60000012D0000048D00132000004094J     GGSL
TXBWIC21060-73035-01212-60000012D0000073D002280020401212     GGSL
TXBWIC21060-73035-01310-90000144D0000574D000600024001310     GGSL
TXBWIC21060-73035-01312-30000024D0000113D000360000001312     GGSL
TXBWIC21060-73035-02010-70000064D0000147D000960000002010     GGSL
TXBWIC21060-73035-02610-90004960D0001943D057600000002610     GGSL
TXBWIC21060-73035-02611-60001280D0000499D030400000002611     GGSL
TXBWIC21060-73035-02612-30000960D0000385D052800000002612     GGSL
TXBWIC21060-73035-04226-00000010D0000041D001950048004226     GGSL
TXBWIC21060-73035-06002-80000120D0000085D000120001206001     GGSL
TXBWIC21060-73035-06127-80000128D0000496D002560032006127     GGSL
TXBWIC21060-73035-06703-40000048D0000112D000360039606703     GGSL
TXBWIC21060-73035-09026-10000006D0000037D000000000009026     GGSL
TXBWIC21060-73035-09326-20000102D0000606D000060000009326     GGSL
TXBWIC21060-73035-09327-90000054D0000405D002040000009327     GGSL
TXBWIC21060-73035-09364-40000084D0000559D000000001809364     GGSL
TXBWIC21060-73035-25001-60000013D0000286D000570014505031T    GGSL
TXBWIC21060-73513-00339- 0000042D0000239D00054000063003310   GGSL
TXBWIC21060-73561-00022-20000282D0001317D00816002342000221   GGSL
TXBWIC21060-73561-00028-40000096D0000961D01380000121000283   GGSL
TXBWIC21060-73561-00042-00001200D0005748D06652003662000422   GGSL
TXBWIC21060-73561-00044-40000018D0000140D00000000061000441   GGSL
TXBWIC21060-73561-00055-00001128D0002951D01044001681000551   GGSL
TXBWIC21060-73561-00070-30000108D0000554D00558000001000701   GGSL
TXBWIC21060-73561-00099-40001024D0002411D02862000362000992   GGSL
TXBWIC21060-73561-00119-90000036D0000826D00224000001001193   GGSL
TXBWIC21060-73561-00150-20000114D0000542D00420001203001502   GGSL
TXBWIC21060-73561-00157-10004776D0007212D0003600000400157    GGSL
TXBWIC21060-73561-00190-80001218D0003202D0026400012100195    GGSL
TXBWIC21060-73561-00192-20000180D0000947D00792000061001921   GGSL
TXBWIC21060-73561-00199-10000288D0000832D00456000481001991   GGSL
TXBWIC21060-73561-00252-30001968D0002014D01224009121002522   GGSL
TXBWIC21060-73561-00404-60000048D0000266D00006000061004043   GGSL
TXBWIC21060-73561-00410-70000486D0004924D01386001321004102   GGSL
TXBWIC21060-73561-00432-90000180D0002432D00456000061004325   GGSL
TXBWIC21060-73561-00440-40000060D0000440D00084000001004402   GGSL
TXBWIC21060-73561-00475-60000006D0000041D00042000061004751   GGSL
TXBWIC21060-73561-00531-90000882D0002298D00816001081000532   GGSL
TXBWIC21060-73561-00590-60000636D0001642D00060000181005901   GGSL
TXBWIC21060-73561-00600-20000006D0000031D00030000963006002   GGSL
TXBWIC21060-73561-00720-70000228D0000792D0014400132100720    GGSL
TXBWIC21060-73561-00831-00000010D0000058D00005000001008311   GGSL
TXBWIC21060-73561-01560-80000012D0000053D0000000030101560    GGSL
TXBWIC21060-73561-01611-70000030D0000351D00000000061016111   GGSL
TXBWIC21060-73561-03836-20000018D0000243D00102000001038361   GGSL
TXBWIC21060-73561-10114-10000165D0002011D00487000241011410   GGSL
TXBWIC21060-73561-30019-30000324D0003295D01110000363001910   GGSL
TXBWIC21060-73561-30025-40000006D0000030D00000000003002510   GGSL
TXBWIC21060-73561-30027-80000012D0000133D00090000003002710   GGSL
TXBWIC21060-73561-30034-60000006D0000068D00042000003003410   GGSL
TXBWIC21060-73561-30035-30000060D0000527D00102000003003510   GGSL
TXBWIC21060-73561-30037-70000096D0000436D00000000003003710   GGSL
TXBWIC21060-73561-30053-70000006D0000034D00012000003005310   GGSL
TXBWIC21060-73561-30055-10000006D0000051D00018000003005510   GGSL
TXBWIC21060-73561-30057-50000006D0000051D00000000003005710   GGSL
TXBWIC21060-73561-30068-10000084D0000277D00000000003006806   GGSL
TXBWIC21060-73561-30098-80000006D0000084D00012000003009810   GGSL
TXBWIC21060-73561-33310-80000004D0000034D00000000003330110   GGSL
TXBWIC21060-73561-36001-20000618D0001965D01662003961360011   GGSL
TXBWIC21060-73561-46001-90000132D0001276D0055200102146002    GGSL
TXBWIC21060-73561-48510-40000576D0003645D00273000424851012   GGSL
TXBWIC21060-73561-48520-30000024D0000125D00009000724852012   GGSL
TXBWIC21060-73561-60101-60001962D0006584D0532700660160101    GGSL
TXBWIC21060-73561-70101-30000798D0007472D0165600330170101    GGSL
TXBWIC21060-73561-75001-10001080D0003634D01176002941750011   GGSL
TXBWIC21060-73561-85001-80000270D0002500D00318000001850011   GGSL
TXBWIC21060-73889-10004-80000284D0001439D00788004321273      GGSL
TXBWIC21060-74514-57625-20000168D0000534D0063000024HG-95715  GGSL
TXBWIC21060-76807-00020-80002976D0001742D013440064846310     GGSL
TXBWIC21060-76807-00050-50001488D0002355D012480064846100     GGSL
TXBWIC21060-76807-00700-90000048D0000186D0000000000124       GGSL
TXBWIC21060-76807-53800-80000036D0000216D000600000046220     GGSL
TXBWIC21060-77342-14494-70000055D0000495D00005002208073807CS GGSL
TXBWIC21060-77625-81082-60000064D0000840D00192000008108-2    GGSL
TXBWIC21060-77625-81092-50000062D0000798D00302000028109-2    GGSL
TXBWIC21060-78627-01912-50000200D0002963D0105001010CSNFA12050GGSL
TXBWIC21060-78627-34824-90000004D0000266D0000000002CSNCG34100GGSL
TXBWIC21060-78627-58220-90000044D0000730D0000000000MDNP58050 GGSL
TXBWIC21060-78627-58822-50000050D0001044D0007900055CSNCG58050GGSL
TXBWIC21060-78627-58823-20000057D0001709D0000300039CSNCG58075GGSL
TXBWIC21060-78627-58824-90000058D0002526D0001700039CSNCG58100GGSL
TXBWIC21060-78627-58832-40000195D0004222D0020000035SNFR58050 GGSL
TXBWIC21060-78627-58834-80000147D0006007D0020300009SNFR58100 GGSL
TXBWIC21060-78627-67582-60000170D0004286D0053500045CSNFXP5805GGSL
TXBWIC21060-78627-67583-30000045D0001572D0008400000CSNFXP5807GGSL
TXBWIC21060-78627-67584-00000039D0001927D0030600003CSNFXP5810GGSL
TXBWIC21060-78627-99381-40000096D0000608D0009600012CELSP38025GGSL
TXBWIC21060-78978-02300-00000012D0000029D000000000023T       GGSL
TXBWIC21060-78978-02400-70000078D0000154D003810005168        GGSL
TXBWIC21060-78978-05045-70000004D0000013D00104001609100      GGSL
TXBWIC21060-78978-06700-40000084D0000119D000480000367        GGSL
TXBWIC21060-78978-10158-60000020D0000267D00060000068117-2    GGSL
TXBWIC21060-78978-10348-10000006D0000053D0000000126YSSFOO348 GGSL
TXBWIC21060-78978-12115-70000008D0000127D000060000050182     GGSL
TXBWIC21060-78978-20540-60000036D0000068D0010900000205-Y     GGSL
TXBWIC21060-78978-21087-50000201D0001533D0060000192203CPBN   GGSL
TXBWIC21060-78978-21089-90000096D0001284D0044000000209B      GGSL
TXBWIC21060-78978-21090-50000052D0000534D0010400000210PB     GGSL
TXBWIC21060-78978-21520-70000084D0000264D0020400000215P      GGSL
TXBWIC21060-78978-21720-10000012D0000104D0007200000217       GGSL
TXBWIC21060-78978-22000-30000206D0002738D0083100000220-6     GGSL
TXBWIC21060-78978-23153-50000168D0000102D0157200048231-12    GGSL
TXBWIC21060-78978-23900-50000302D0001394D0150900018239       GGSL
TXBWIC21060-78978-27300-90000054D0000168D0023400012273       GGSL
TXBWIC21060-78978-33600-10000042D0000769D0014300072336       GGSL
TXBWIC21060-78978-33800-50000056D0001274D0008800039338       GGSL
TXBWIC21060-78978-34000-80000001D0000149D0000000000340       GGSL
TXBWIC21060-78978-54699-80000030D0000558D0002800000MCF001    GGSL
