NJARET2108 -00465-61806-80000036D0000477D00024000033750511001GGSL
NJARET21080-10052-00333-10001632D0005686D000080000200333     GGSL
NJARET21080-10367-00110-70000024D0000168D00000000000110      GGSL
NJARET21080-10367-01110-60000072D0000277D00072000011110      GGSL
NJARET21080-10367-01111-30000112D0000439D00019000021111      GGSL
NJARET21080-10367-01112-00000040D0000157D00085000021112      GGSL
NJARET21080-10367-01120-50000176D0000690D00057000061120      GGSL
NJARET21080-10367-01122-90000008D0000047D00001000011122      GGSL
NJARET21080-10367-01130-40000104D0000667D00025000091130      GGSL
NJARET21080-10367-01160-10000016D0000125D00032000021160      GGSL
NJARET21080-10367-01161-80000016D0000125D00000000001161      GGSL
NJARET21080-10367-03010-70000024D0000142D0000800000ML3010    GGSL
NJARET21080-11192-10595-40000009D0000403D0000600000KLIGHT    GGSL
NJARET21080-11423-94109-20000060D0000118D000390000294109     GGSL
NJARET21080-11423-94239-60000012D0000067D0000000000HG64138   GGSL
NJARET21080-12587-70028-00000012D0000067D003600000070028     GGSL
NJARET21080-12587-70419-60000012D0000067D003160000070419     GGSL
NJARET21080-14021-10124-00000020D0000092D00000000003020      GGSL
NJARET21080-14400-10731-30000005D0000049D00001000011440010731GGSL
NJARET21080-14400-61000-40000001D0000011D000410004061000     GGSL
NJARET21080-14400-62000-30000013D0000165D000170001762000     GGSL
NJARET21080-14400-69056-30000160D0000992D00010000111440069056GGSL
NJARET21080-14400-71265-40000012D0000043D00005000021440071265GGSL
NJARET21080-14400-81200-20000121D0001384D00003000031440081200GGSL
NJARET21080-14400-81400-60000010D0000130D00033000151440081400GGSL
NJARET21080-15561-20135-30000006D0000037D0000000000PT135     GGSL
NJARET21080-15561-20203-90000002D0000209D0001900000PT203     GGSL
NJARET21080-15561-20206-00000002D0000292D0001800000PT206     GGSL
NJARET21080-15561-20811-60000006D0000036D0007500000PT811EA   GGSL
NJARET21080-15561-20813-00000006D0000034D0009000000PT813EA   GGSL
NJARET21080-15561-20979-30000012D0000128D0000700001PT979     GGSL
NJARET21080-15561-21643-20000006D0000376D0000400000PT1643    GGSL
NJARET21080-16069-00005-90000012D0000091D0002900001TP15C     GGSL
NJARET21080-16069-00008-00000108D0000736D0000200002BN2       GGSL
NJARET21080-16069-00013-40000006D0000181D0002800000BN3       GGSL
NJARET21080-16069-00014-10000066D0001463D0001900001BN4       GGSL
NJARET21080-16069-00019-60000024D0000293D0000600000TP30C     GGSL
NJARET21080-16069-00030-10000006D0000083D0000000000OW6       GGSL
NJARET21080-16069-00032-50000060D0000665D0009300001HG25      GGSL
NJARET21080-16069-00033-20000012D0000259D0002800000HG50      GGSL
NJARET21080-16069-00047-90000060D0000437D0001000000TE12C     GGSL
NJARET21080-16069-00049-30000624D0012105D0000100001DX7       GGSL
NJARET21080-16069-00050-90000006D0000183D0003400001DX14      GGSL
NJARET21080-16069-00076-90000162D0000852D0004800010PN10      GGSL
NJARET21080-16069-00077-60000012D0000129D0000000000PN14      GGSL
NJARET21080-16069-00079-00000024D0000784D0001600000PN28      GGSL
NJARET21080-16069-00110-00000030D0000513D0000600000PF3       GGSL
NJARET21080-16069-00218-30000132D0000792D0001600000HST100    GGSL
NJARET21080-16069-00307-40000024D0000594D0000200000WS10100   GGSL
NJARET21080-16069-00393-70000216D0000760D0002900000GS20      GGSL
NJARET21080-16069-00394-40000002D0000108D0001200000PN45      GGSL
NJARET21080-16069-00401-90000252D0002484D0000600000GF4050    GGSL
NJARET21080-16069-00478-10000004D0000183D0001500011SRHO4     GGSL
NJARET21080-16069-00479-80002756D0052340D0007500002E316B     GGSL
NJARET21080-16069-00498-90000150D0001599D0019000000HGP1012   GGSL
NJARET21080-16069-00499-60000036D0000561D0016000000HGP1020   GGSL
NJARET21080-16069-00518-40000072D0000365D0001300000SG2512    GGSL
NJARET21080-16069-00585-60000024D0000142D0000100000DCLLF412  GGSL
NJARET21080-16069-00622-80000012D0000048D0002500000CP612     GGSL
NJARET21080-16069-00667-90000008D0000179D0032100074RH04US    GGSL
NJARET21080-16500-54010-60000012D0000057D000040000054010     GGSL
NJARET21080-17500-08120-00000312D0000446D001700000008120     GGSL
NJARET21080-17500-08150-70001332D0002128D002390000008150     GGSL
NJARET21080-17500-08150-70000444D0000701D002390001108150M    GGSL
NJARET21080-17500-90206-20000066D0001434D000010000190206     GGSL
NJARET21080-17500-91316-70000006D0000122D000370000091316     GGSL
NJARET21080-17500-91714-10000008D0000185D000010000191714     GGSL
NJARET21080-18062-00019-70000024D0000113D0000200000PT06MCCS  GGSL
NJARET21080-18222-00017-30000001D0000173D0000500000PP17      GGSL
NJARET21080-18222-00101-90000270D0000732D0006900010CS06101   GGSL
NJARET21080-18222-00103-30000102D0000313D0002400002CS06103   GGSL
NJARET21080-18222-00105-70000210D0000562D0009600008CS06105   GGSL
NJARET21080-18222-00107-10000144D0000566D0009800004CS06107   GGSL
NJARET21080-18222-00109-50000198D0000522D0008500011CS06109   GGSL
NJARET21080-18222-00110-10000072D0000211D0003600006CS06110   GGSL
NJARET21080-18222-00206-10000048D0000227D0000900000CS06206   GGSL
NJARET21080-18222-00208-50000018D0000086D0001500000CS06208   GGSL
NJARET21080-18222-00213-90000012D0000051D0000000000CS06213   GGSL
NJARET21080-18222-00226-90000004D0000011D0003700000CS04226   GGSL
NJARET21080-18222-00501-70000588D0000795D0012000023CS12501   GGSL
NJARET21080-18222-00503-10000060D0000123D0000400001CS503     GGSL
NJARET21080-18222-00505-50000180D0000198D0010800011CS12505   GGSL
NJARET21080-18222-00507-90000312D0000428D0009100005CS12507   GGSL
NJARET21080-18222-00509-30000300D0000496D0013300004CS12509   GGSL
NJARET21080-18222-00513-00000060D0000128D0001700003CS12513   GGSL
NJARET21080-18222-00526-00000222D0000600D0004800010CS06526   GGSL
NJARET21080-18222-00527-70000384D0000515D0004800002CS12527   GGSL
NJARET21080-18222-00529-10000192D0000339D0006200004CS12529   GGSL
NJARET21080-18222-00531-40000264D0000595D0011200007CS12531   GGSL
NJARET21080-18222-00535-20000120D0000162D0005900000CS12535   GGSL
NJARET21080-18222-00543-70000216D0000296D0005900002CS12543   GGSL
NJARET21080-18222-00545-10000048D0000085D0003700001CS12545   GGSL
NJARET21080-18222-00553-60000708D0001233D0001900012CS12553   GGSL
NJARET21080-18222-00559-80000168D0000222D0010400002CS12559   GGSL
NJARET21080-18222-00561-10000108D0000143D0003700001CS12561   GGSL
NJARET21080-18222-00563-50000084D0000142D0001800000CS12563   GGSL
NJARET21080-18222-00565-90000120D0000203D0000800003CS12565   GGSL
NJARET21080-18222-00569-70000624D0001062D0009100007CS12569   GGSL
NJARET21080-18222-00571-00000132D0000277D0004800004CS12571   GGSL
NJARET21080-18222-00583-30000324D0000686D0005900005CS12583   GGSL
NJARET21080-18222-00608-30000204D0000719D0000900000CS608     GGSL
NJARET21080-18222-00701-10000312D0000539D0001900005CS701     GGSL
NJARET21080-18222-00707-30000008D0000025D0000000001CS707     GGSL
NJARET21080-18222-00727-10000012D0000081D0000100000CS727     GGSL
NJARET21080-18222-00730-10000280D0000553D0015300006CS730     GGSL
NJARET21080-18222-00749-30000006D0000033D0000200002CS749     GGSL
NJARET21080-18222-00753-00000032D0000164D0000500000CS753     GGSL
NJARET21080-18222-00950-30000096D0000104D0003500000CS950     GGSL
NJARET21080-18222-00954-10000016D0000087D0000100000CS08954   GGSL
NJARET21080-18222-50501-20000060D0000071D0010200000CS1250501XGGSL
NJARET21080-18222-50527-20000072D0000083D0009600001CS1250527XGGSL
NJARET21080-18222-50559-30000084D0000098D0009200002CS1250559XGGSL
NJARET21080-18506-00102-50000060D0000262D000400000010212     GGSL
NJARET21080-18506-00110-00000096D0000655D000940000011012     GGSL
NJARET21080-18506-00116-20000180D0001179D000450000511612     GGSL
NJARET21080-18506-00117-90000054D0000579D00031000001176      GGSL
NJARET21080-18506-00121-60000084D0000832D00021000001216      GGSL
NJARET21080-18506-00123-00000036D0000205D0000500000123       GGSL
NJARET21080-18506-00130-80000012D0000068D0002100000130       GGSL
NJARET21080-18506-00134-60000036D0000280D0000700000134       GGSL
NJARET21080-18506-02001-90000024D0000275D00021000002001      GGSL
NJARET21080-19200-00095-60000036D0000089D002050000000027     GGSL
NJARET21080-19200-00619-40000144D0000470D013190000100706     GGSL
NJARET21080-19200-05432-40000270D0001134D000080000075057     GGSL
NJARET21080-19200-78033-90000006D0000025D00151000001920078033GGSL
NJARET21080-19200-78626-30000018D0000047D003140000078626     GGSL
NJARET21080-19200-78914-10000168D0000426D001930000078914     GGSL
NJARET21080-19200-83262-50000048D0000168D00107000001920082362GGSL
NJARET21080-19200-83721-70000020D0000051D005160006583721     GGSL
NJARET21080-19200-89973-40000008D0000128D000300000189973     GGSL
NJARET21080-19200-98666-30000008D0000049D000620000098666     GGSL
NJARET21080-19263-25010-70000031D0002390D00002000022501      GGSL
NJARET21080-19263-25035-00000044D0001341D0002800003250350    GGSL
NJARET21080-19263-25040-40000016D0002224D00008000012504      GGSL
NJARET21080-19263-25045-90000124D0005075D0002100010250450    GGSL
NJARET21080-19263-25050-30000003D0000517D00000000002505      GGSL
NJARET21080-19263-25052-70000005D0001076D0000000000250525    GGSL
NJARET21080-19263-25055-80000016D0000808D0005800001250550    GGSL
NJARET21080-19263-25510-20001175D0002526D00162000002551      GGSL
NJARET21080-19263-25520-10002375D0005890D00153000042552      GGSL
NJARET21080-19263-25530-00000750D0002138D00072000072553      GGSL
NJARET21080-19263-25540-90002000D0006740D00085000062554      GGSL
NJARET21080-19263-25550-80001025D0004397D00046000012555      GGSL
NJARET21080-19263-25670-30000018D0000257D00035000032567      GGSL
NJARET21080-19263-25680-20000132D0002577D00032000022568      GGSL
NJARET21080-19263-25730-40000008D0000159D00000000002573      GGSL
NJARET21080-19263-25750-20000336D0002239D00014000072575      GGSL
NJARET21080-19263-25760-10000396D0003354D00001000002576      GGSL
NJARET21080-19263-25770-00000549D0007219D00024000052577      GGSL
NJARET21080-19263-25780-90000565D0013413D00063000202578      GGSL
NJARET21080-19263-25950-60000108D0000129D00049000002595      GGSL
NJARET21080-19263-26050-20000200D0000276D00009000002605      GGSL
NJARET21080-19263-26100-40000024D0000083D00000000002610      GGSL
NJARET21080-19263-26210-00000120D0001123D00098000002621      GGSL
NJARET21080-19263-26260-50000002D0000062D00000000002626      GGSL
NJARET21080-19263-26270-40000007D0000216D00000000002627      GGSL
NJARET21080-19263-26280-30000003D0000093D00002000002628      GGSL
NJARET21080-19263-26300-80000480D0001157D00052000012630      GGSL
NJARET21080-19263-26310-70000576D0001630D00090000012631      GGSL
NJARET21080-19263-26310-70000288D0000812D00009000002633      GGSL
NJARET21080-19263-26320-30000144D0000350D00000000002632      GGSL
NJARET21080-19263-26560-60000016D0000230D00001000002656      GGSL
NJARET21080-19263-29100-10000004D0000658D00000000002910      GGSL
NJARET21080-19263-29110-00000001D0000164D00000000002911      GGSL
NJARET21080-19263-29130-80000001D0000164D00000000002913      GGSL
NJARET21080-21344-00321-20000014D0000543D0008500000WX15064   GGSL
NJARET21080-21344-00322-90000010D0000388D0005300001WX15065   GGSL
NJARET21080-21344-00338-00000001D0000163D0006300000400338    GGSL
NJARET21080-21344-00339-70000048D0004478D0019700001400339    GGSL
NJARET21080-21344-00340-30000047D0004003D0035100000400340    GGSL
NJARET21080-21344-00344-10000018D0000161D0001500000400344    GGSL
NJARET21080-21344-00345-80000006D0000055D0005800000400345    GGSL
NJARET21080-21344-00346-50000006D0000054D0005900001400346    GGSL
NJARET21080-21344-00347-20000004D0000076D0002200000400347    GGSL
NJARET21080-21344-00348-90000008D0000150D0006300000400348    GGSL
NJARET21080-21344-00349-60000004D0000078D0013400000400349    GGSL
NJARET21080-21344-00354-00000002D0000090D0000300003HQ73481784GGSL
NJARET21080-21344-00361-80000018D0000599D0000400001HQ74912297GGSL
NJARET21080-21344-00362-50000001D0000046D0015800000HQMUSH    GGSL
NJARET21080-21344-00380-90000001D0000186D0004800000JFG18026  GGSL
NJARET21080-21344-00382-30000036D0001041D0006500000JFG18032  GGSL
NJARET21080-21344-00383-00000001D0000186D0000600000JFG18024  GGSL
NJARET21080-21344-00389-20000010D0000145D0005400000JFG18004  GGSL
NJARET21080-21344-00392-20000024D0000159D0003700000JFG18002  GGSL
NJARET21080-21344-00393-90000006D0000200D0000800000JFG18008A GGSL
NJARET21080-21344-00395-30000004D0000124D0003800001JFG18006  GGSL
NJARET21080-21344-00398-40000002D0000146D0009800000JFG18042  GGSL
NJARET21080-21344-00403-50000002D0000027D0007600003ZT152072  GGSL
NJARET21080-21344-00404-20000001D0000066D0000100000ZT185020  GGSL
NJARET21080-21344-00405-90000003D0000244D0002900000ZT185019  GGSL
NJARET21080-21344-00406-60000001D0000054D0001500000ZT185024  GGSL
NJARET21080-21344-00407-30000002D0000263D0009700000ZT185016  GGSL
NJARET21080-21344-00409-70000060D0000315D0007300000ZT185018  GGSL
NJARET21080-21344-00411-00000002D0000045D0007900001ZT185021  GGSL
NJARET21080-21344-00413-40000024D0000045D0009400000400413    GGSL
NJARET21080-21344-00416-50000024D0000042D0009900000400416    GGSL
NJARET21080-21344-00417-20000024D0000057D0009100000400417    GGSL
NJARET21080-21344-00418-90000012D0000028D0010900000400418    GGSL
NJARET21080-21344-00422-60000010D0000317D0007600000ZT185023  GGSL
NJARET21080-21344-00423-30000208D0026166D0074200063WX17658   GGSL
NJARET21080-21344-00718-00000024D0000594D0013200000WX17422   GGSL
NJARET21080-21344-00719-70000036D0000892D0010700000WX17413   GGSL
NJARET21080-21344-00720-30000048D0001057D0010400005WX17409   GGSL
NJARET21080-21344-00721-00000020D0000409D0000000000WX17230   GGSL
NJARET21080-21344-00722-70000100D0002544D0001000007WX17401   GGSL
NJARET21080-21344-00723-40000040D0001069D0014000004WX17402   GGSL
NJARET21080-21344-00724-10000005D0000369D0001500002WXRACK20  GGSL
NJARET21080-21344-00725-80000010D0000468D0003400000HQ748416  GGSL
NJARET21080-21344-00727-20000002D0000094D0000000003HQ74842665GGSL
NJARET21080-21344-00728-90000004D0000101D0000200000HQ74912300GGSL
NJARET21080-21344-00729-60000002D0000104D0000400004HQ7348782 GGSL
NJARET21080-21344-00735-70000008D0000179D0005400002WX17577RV GGSL
NJARET21080-21344-00736-40000008D0000179D0006200002WX17578RV GGSL
NJARET21080-21344-00739-50000008D0000340D0004100000WX17816   GGSL
NJARET21080-21344-00740-10000004D0000171D0002500000WX17818   GGSL
NJARET21080-21344-00741-80000008D0000342D0004000001WX17817   GGSL
NJARET21080-21344-00744-90000008D0000342D0001800000WX17819   GGSL
NJARET21080-21344-00746-30000020D0000283D0017800000YS19L005  GGSL
NJARET21080-21344-00747-00000028D0000404D0019300000YS19L004  GGSL
NJARET21080-21344-00748-70000020D0000221D0019000000YS19S002  GGSL
NJARET21080-21344-00749-40000028D0000315D0017100000YS19S003  GGSL
NJARET21080-21344-00750-00000020D0000221D0013400000YS19S001  GGSL
NJARET21080-21344-00762-30000003D0000274D0020300001FDBH1901  GGSL
NJARET21080-21344-00762-30000002D0000218D0003300002MG18387RV GGSL
NJARET21080-21344-00765-40000001D0000067D0009400000MG18390   GGSL
NJARET21080-21344-00766-10000001D0000090D00065000024007661   GGSL
NJARET21080-21344-00774-60000002D0000096D0001300004WX17800   GGSL
NJARET21080-21344-00775-30000006D0000265D0001800007WX17802   GGSL
NJARET21080-21344-00779-10000006D0000111D0003000000JFG19058B GGSL
NJARET21080-21344-00780-70000005D0000380D0001200001MG18396RV GGSL
NJARET21080-21344-00781-40000007D0000402D0002500000MG18397RV GGSL
NJARET21080-21344-00785-20000002D0000027D0004500000BN19294   GGSL
NJARET21080-21344-00795-10000005D0000739D0003800000MG18389   GGSL
NJARET21080-21344-00796-80000072D0000233D0001600002SSH1822719GGSL
NJARET21080-21344-00797-50000126D0000466D0005200000SSH1813624GGSL
NJARET21080-21344-00798-20000024D0000109D0001500000SSH1813728GGSL
NJARET21080-21344-00799-90000018D0000168D0003200000HS190061C GGSL
NJARET21080-21344-00800-20000012D0000104D0003800001HS190061B GGSL
NJARET21080-21344-00801-90000018D0000168D0001200000HS190061A GGSL
NJARET21080-21344-00802-60000008D0000086D0002700000HS190058C GGSL
NJARET21080-21344-00804-00000004D0000034D0004200000HS190058A GGSL
NJARET21080-21344-00805-70000006D0000056D0001000000HS190056  GGSL
NJARET21080-21344-00806-40000016D0000090D0006400000SSH18A025 GGSL
NJARET21080-21344-00807-10000012D0000110D0003800002SSH18A034 GGSL
NJARET21080-21344-00808-80000024D0000075D0003300000SSH18A024 GGSL
NJARET21080-21344-00813-20000034D0003101D00052000294008132   GGSL
NJARET21080-21344-00819-40000012D0000133D0001700000WX17931   GGSL
NJARET21080-21344-00824-80000012D0000128D0003700000WX17933   GGSL
NJARET21080-21344-00827-90000012D0000110D0003100000JFG18008AWGGSL
NJARET21080-21344-00829-30000004D0000039D0010000001ZT197030  GGSL
NJARET21080-21344-00830-90000004D0000086D0009200000ZT197002  GGSL
NJARET21080-21344-00831-60000010D0000169D0012700000ZT197003  GGSL
NJARET21080-21344-00832-30000009D0000164D0005600000JFG19007B GGSL
NJARET21080-21344-00833-00000002D0000037D0007300000ZT197029  GGSL
NJARET21080-21344-00834-70000001D0000064D0006800000ZT197023RVGGSL
NJARET21080-21344-00837-80000024D0000088D0007600000SK15020B  GGSL
NJARET21080-21344-00838-50000120D0000323D0020200000SK15008E  GGSL
NJARET21080-21344-00839-20000008D0000187D0001200001HS190062  GGSL
NJARET21080-21344-00844-60000006D0000030D0001100000HJAL19011 GGSL
NJARET21080-21344-00846-00000007D0000732D0015900001FDBH1902  GGSL
NJARET21080-21344-01160-60000002D0000027D0005100000BN19296   GGSL
NJARET21080-21344-01162-00000002D0000030D0004900000BN19297   GGSL
NJARET21080-21344-01163-70000012D0000118D0006500000BN19297S  GGSL
NJARET21080-21344-01164-40000002D0000027D0005800000BN19299   GGSL
NJARET21080-21344-01165-10000006D0000036D0006800000BN19299S  GGSL
NJARET21080-21344-01168-20000002D0000029D0004300000BN19302   GGSL
NJARET21080-21344-01170-50000001D0000133D0003500000FDBH2001  GGSL
NJARET21080-21344-01171-20000002D0000135D0000300002HQ73482202GGSL
NJARET21080-21344-01172-90000002D0000137D0000600010HQ73482993GGSL
NJARET21080-21344-01173-60000002D0000135D0000800005HQ73483050GGSL
NJARET21080-21344-01175-00000010D0000675D0000200000HQ75752083GGSL
NJARET21080-21344-01177-40000006D0000405D0000000000HQ75752848GGSL
NJARET21080-21344-01178-10000002D0000135D0000500000HQ7575453 GGSL
NJARET21080-21344-01179-80000018D0000155D0001100000HS18MR0461GGSL
NJARET21080-21344-01180-40000012D0000146D0003300002HS18MR0463GGSL
NJARET21080-21344-01184-20000006D0000064D0006200000HS20134   GGSL
NJARET21080-21344-01185-90000006D0000060D0006800000HS20135   GGSL
NJARET21080-21344-01186-60000018D0000239D0005800000HS20136   GGSL
NJARET21080-21344-01187-30000006D0000048D0008300000HS20137   GGSL
NJARET21080-21344-01188-00000004D0000056D0010900001HS20HS0022GGSL
NJARET21080-21344-01189-70000004D0000056D0009800000HS20HS0023GGSL
NJARET21080-21344-01190-30000004D0000037D0011600001HS20HS0024GGSL
NJARET21080-21344-01191-00000004D0000037D0013700000HS20HS0025GGSL
NJARET21080-21344-01196-50000006D0000168D0028900000MG19632   GGSL
NJARET21080-21344-01197-20000003D0000107D0028100000MG19633   GGSL
NJARET21080-21344-01201-60000096D0000462D0002700004SSH19S094 GGSL
NJARET21080-21344-01202-30000040D0000436D0004100005SSH19S098 GGSL
NJARET21080-21344-01203-00000016D0000293D0003800002SSH19S104 GGSL
NJARET21080-21344-01204-70000008D0000217D0001500000WX13253   GGSL
NJARET21080-21344-01205-40000008D0000193D0002600000WX13254   GGSL
NJARET21080-21344-01206-10000012D0000204D0001000004WX18811   GGSL
NJARET21080-21344-01207-80000018D0000284D0001800000WX18812   GGSL
NJARET21080-21344-01208-50000036D0000541D0000000000WX18813   GGSL
NJARET21080-21344-01210-80000004D0000141D0002600000WX18815   GGSL
NJARET21080-21344-01212-20000066D0001555D0001200002WX18819   GGSL
NJARET21080-21344-01213-90000120D0002709D0001600003WX18820   GGSL
NJARET21080-21344-01214-60000252D0005862D0003600007WX18821   GGSL
NJARET21080-21344-01215-30000103D0016759D0042700040WX18824   GGSL
NJARET21080-21344-01216-00000011D0001610D0025800042WX18825   GGSL
NJARET21080-21344-01219-10000002D0000040D0003100001WX19199   GGSL
NJARET21080-21344-01220-70000002D0000040D0009300000WX19200   GGSL
NJARET21080-21344-01221-40000008D0000159D0007900001WX19201   GGSL
NJARET21080-21344-01222-10000002D0000050D0011800001WX19203   GGSL
NJARET21080-21344-01223-80000006D0000216D0011200000WX19204   GGSL
NJARET21080-21344-01224-50000004D0000123D0008400001WX19205   GGSL
NJARET21080-21344-01225-20000010D0000487D0016700000WX19206   GGSL
NJARET21080-21344-01235-10000012D0000291D0005500000WX19267   GGSL
NJARET21080-21344-01237-50000051D0007301D0002700008WX19270   GGSL
NJARET21080-21344-01238-20000002D0000040D0007500002WX8561    GGSL
NJARET21080-21344-01252-80000002D0000030D0008300000ZT207010B GGSL
NJARET21080-21344-01254-20000001D0000042D0012600000ZT207012B GGSL
NJARET21080-21344-01255-90000004D0000071D0011800000ZT207015  GGSL
NJARET21080-21344-01256-60000018D0000389D0010700000ZT207016  GGSL
NJARET21080-21344-01257-30000002D0000016D0011100000ZT207017B GGSL
NJARET21080-21344-01258-00000002D0000022D0008000007ZT207023A GGSL
NJARET21080-21344-01259-70000004D0000060D0010300003ZT207024A GGSL
NJARET21080-21344-01260-30000008D0000640D0028400001ZT207025  GGSL
NJARET21080-21344-01261-00000008D0000640D0028200001ZT207026  GGSL
NJARET21080-21344-01262-70000008D0000616D0032800002ZT207027  GGSL
NJARET21080-21344-01264-10000005D0000639D0028500000HR22818AA GGSL
NJARET21080-21344-01265-80000002D0000277D0014600001HR30701AA GGSL
NJARET21080-21344-01266-50000015D0000913D0026100000CU297     GGSL
NJARET21080-21344-01267-20000011D0001758D0023700000FP35      GGSL
NJARET21080-21344-01268-90000008D0000814D0014800006HR26182AA GGSL
NJARET21080-21344-01270-20000008D0000251D0022500000HS20153   GGSL
NJARET21080-21344-01273-30000180D0025778D0006800046WX17658A  GGSL
NJARET21080-21344-01274-00000001D0000121D0022900002JFA16020GHGGSL
NJARET21080-21344-01275-70000006D0000521D0010300000JFG20031  GGSL
NJARET21080-21964-10100-80000006D0000164D0000000000A6F       GGSL
NJARET21080-21964-10133-60000006D0000177D0000300000TH3RP     GGSL
NJARET21080-21964-10305-70000004D0000260D0000400001BTG       GGSL
NJARET21080-21964-10315-60000022D0000805D0000200000SQG       GGSL
NJARET21080-21964-10370-50000006D0000068D0000000000OWF       GGSL
NJARET21080-21964-20500-30000030D0003481D0000800000YF        GGSL
NJARET21080-21964-20510-20000028D0002021D0001200002YCPD90    GGSL
NJARET21080-21964-20520-10000006D0000484D0000400001YCPW180   GGSL
NJARET21080-21964-20530-00000018D0001430D0000400001YCPT360   GGSL
NJARET21080-21964-25241-00000006D0000177D0000600000CC12S     GGSL
NJARET21080-21964-25242-70000006D0000221D0000200000CC18S     GGSL
NJARET21080-21964-25244-10000030D0000887D0001200000CC12N     GGSL
NJARET21080-21964-25245-80000006D0000221D0000500000CC18N     GGSL
NJARET21080-21964-25256-40000006D0000200D0001000000CC12FM    GGSL
NJARET21080-21964-40053-80000006D0000134D0000000000CJM15G    GGSL
NJARET21080-21964-41086-50000012D0000199D0000100000CJTHM8Y   GGSL
NJARET21080-21964-50043-60000006D0000134D0000000000CJM13GP   GGSL
NJARET21080-21964-92006-70000005D0000426D0000200000YCPW180M  GGSL
NJARET21080-22179-10084-80000012D0000115D0006600000LG7220    GGSL
NJARET21080-22179-10106-70000006D0000161D0006400000LG5512    GGSL
NJARET21080-22179-10120-30000040D0001811D0001500000LG6510    GGSL
NJARET21080-22179-10124-10000204D0001285D0001500000LG6515    GGSL
NJARET21080-22179-10157-90000036D0000854D0002500000LG6530    GGSL
NJARET21080-22179-10185-20000030D0000378D0002700001LG6500    GGSL
NJARET21080-22179-10246-00000006D0000108D0003100000LG6570    GGSL
NJARET21080-22179-10257-60000012D0000209D0000600000LG3190    GGSL
NJARET21080-22179-10258-30000012D0000397D0000400000LG6580    GGSL
NJARET21080-22179-10266-80000024D0000539D0001600000LG6145    GGSL
NJARET21080-22179-10326-90000012D0000364D0000000000LG5482    GGSL
NJARET21080-22179-10327-60000096D0001014D0000400003LG6148    GGSL
NJARET21080-22179-10391-70000108D0001732D0001900000LG6336    GGSL
NJARET21080-22179-10408-20000072D0000699D0000100000LG6338    GGSL
NJARET21080-22179-10434-10000012D0000129D0000300001LG6133    GGSL
NJARET21080-22179-10471-60000048D0000584D0000000000LG6128    GGSL
NJARET21080-22179-10474-70000012D0000112D0000000000LG6328    GGSL
NJARET21080-22179-10480-80000024D0000189D0000900000LG5268    GGSL
NJARET21080-22179-10481-50000006D0000088D0000300000LG5592    GGSL
NJARET21080-22179-10517-10000012D0000307D0000100000LG3176    GGSL
NJARET21080-22401-00440-10000007D0000216D0010200000PRO40PC   GGSL
NJARET21080-22401-10087-50000016D0000165D0001500000EAR20TMC  GGSL
NJARET21080-23865-09987-30000132D0001036D00000000009987      GGSL
NJARET21080-23883-01949-50000003D0000124D00000000001949      GGSL
NJARET21080-23883-16100-20000017D0000278D000010000016100     GGSL
NJARET21080-23883-16200-90000018D0000408D000580000016200     GGSL
NJARET21080-23883-20002-20000011D0000269D001750000220002     GGSL
NJARET21080-23883-20010-70000021D0000438D000000000020010     GGSL
NJARET21080-23883-20020-60000021D0000593D000590000020020     GGSL
NJARET21080-23883-22090-70000001D0000026D000000000022090XP   GGSL
NJARET21080-23883-61800-10000008D0000670D000170000061800     GGSL
NJARET21080-23883-64800-80000002D0000052D000020000064800     GGSL
NJARET21080-23883-69324-20000001D0000064D000000000063924     GGSL
NJARET21080-23883-82108-10000001D0000119D000040000082108B    GGSL
NJARET21080-24114-75161-00000015D0000110D0000800000750161    GGSL
NJARET21080-24654-05922-10000001D0000377D00000000005926DS    GGSL
NJARET21080-24654-05931-30000012D0000182D00000000005935      GGSL
NJARET21080-24654-05972-60000016D0000580D00007000005972      GGSL
NJARET21080-24654-05982-50000004D0000135D00001000015982      GGSL
NJARET21080-24654-51806-30000018D0000105D000090000051806     GGSL
NJARET21080-24654-55025-40000372D0001503D00002000025026      GGSL
NJARET21080-24654-55110-70000096D0000543D000170000451106     GGSL
NJARET21080-24654-55118-30000006D0000049D000080000051186     GGSL
NJARET21080-24654-55168-80000012D0000064D00001000005168      GGSL
NJARET21080-24654-65452-50000090D0000519D000120000254526     GGSL
NJARET21080-25033-01703-00000024D0000256D000090000001703     GGSL
NJARET21080-25033-01707-80000006D0000081D000090000001707     GGSL
NJARET21080-25033-01723-80000004D0000104D000070000001723     GGSL
NJARET21080-25033-02019-10000004D0000256D000090000002019     GGSL
NJARET21080-25033-02077-10000006D0000081D000040000002077     GGSL
NJARET21080-25033-02175-40000020D0000889D000030000002175     GGSL
NJARET21080-25033-02477-90000004D0000115D000200000002477     GGSL
NJARET21080-25033-02510-30000012D0000148D000280000002510     GGSL
NJARET21080-25033-02519-60000016D0000541D000320000002519     GGSL
NJARET21080-25033-02522-60000010D0000587D000480000102522     GGSL
NJARET21080-25033-02523-30000011D0000699D000090000002523     GGSL
NJARET21080-25033-02525-70000014D0001000D000430000102525     GGSL
NJARET21080-25033-02527-10000010D0000781D000210000102527     GGSL
NJARET21080-25033-02650-60000002D0000246D000070000002650     GGSL
NJARET21080-25033-02720-60000009D0000917D000400000102720     GGSL
NJARET21080-25033-02722-00000008D0000944D000050000102722     GGSL
NJARET21080-25033-02728-20000005D0000804D000030000002728     GGSL
NJARET21080-25033-02750-30000004D0000795D000010000002750     GGSL
NJARET21080-25033-02755-80000002D0000423D000010000002755     GGSL
NJARET21080-25033-03911-70000006D0000057D000020000003911     GGSL
NJARET21080-25033-12195-90000012D0000092D000090000012195     GGSL
NJARET21080-25033-12203-10000012D0000047D000130000012203     GGSL
NJARET21080-25033-12204-80000012D0000074D000260000012204     GGSL
NJARET21080-25033-12285-70000006D0000061D000000000012285     GGSL
NJARET21080-25033-12404-20000001D0000015D000000000012404     GGSL
NJARET21080-25033-12410-30000002D0000345D000000000012410     GGSL
NJARET21080-25033-12746-30000048D0001205D000000000012746     GGSL
NJARET21080-25033-12955-90000006D0000065D000000000012955     GGSL
NJARET21080-25033-12971-90000002D0000094D000060000212971     GGSL
NJARET21080-25033-12974-00000002D0000152D000090000012974     GGSL
NJARET21080-25033-15640-50000004D0000054D000000000015640     GGSL
NJARET21080-25033-40307-90000006D0000064D000000000040307     GGSL
NJARET21080-25545-89821-90000002D0000024D0000400000 66801    GGSL
NJARET21080-25849-00078-30000120D0001435D00000000000078P     GGSL
NJARET21080-25849-00082-00000030D0000359D00000000000082P     GGSL
NJARET21080-25849-00205-30000070D0001457D00000000000205RG    GGSL
NJARET21080-25849-10381-10000360D0010977D000000000010381RG   GGSL
NJARET21080-25849-10381-10000011D0000334D000390002010381RGX  GGSL
NJARET21080-25849-10720-80000054D0000367D00004000021020020RG GGSL
NJARET21080-25849-10910-30000066D0000310D00010000001008010RGXGGSL
NJARET21080-25849-20381-80000060D0001884D000030000020381RG   GGSL
NJARET21080-25849-20381-80000117D0001385D000000000020381RGX  GGSL
NJARET21080-25881-08502-10000004D0000058D0001200000 085024   GGSL
NJARET21080-25881-10702-00000010D0000124D0000000000 107024   GGSL
NJARET21080-25881-11041-90000005D0000023D0000300000 11041    GGSL
NJARET21080-26600-89334-70000080D0000160D002560000089334     GGSL
NJARET21080-26600-89334-70000024D0000046D000620000889334M    GGSL
NJARET21080-26619-41000-90000006D0000051D00002000004100001   GGSL
NJARET21080-26978-02241-70000010D0000037D000130000002241     GGSL
NJARET21080-26978-02301-80000010D0000079D000390000002301     GGSL
NJARET21080-26978-02362-90000010D0000100D000080000102362     GGSL
NJARET21080-26978-03062-70000020D0000095D000100000003062     GGSL
NJARET21080-26978-03082-50000020D0000177D000110000003082     GGSL
NJARET21080-26978-05081-60000036D0000039D000300000005081     GGSL
NJARET21080-26978-10010-80000012D0000048D000010000110010     GGSL
NJARET21080-26978-10012-20000018D0000073D000050000010012     GGSL
NJARET21080-26978-10013-90000012D0000048D000050000010013     GGSL
NJARET21080-26978-10020-70000010D0000076D000090000010020     GGSL
NJARET21080-26978-10022-10000010D0000076D000070000010022     GGSL
NJARET21080-26978-10023-80000010D0000076D000090000010023     GGSL
NJARET21080-26978-10062-70000090D0000266D000010000110062     GGSL
NJARET21080-26978-10068-90000010D0000030D000010000110068     GGSL
NJARET21080-26978-10082-50000040D0000135D000030000010082     GGSL
NJARET21080-26978-10088-70000040D0000161D000010000110088     GGSL
NJARET21080-26978-10108-20000050D0000295D000020000110108     GGSL
NJARET21080-26978-10128-00000035D0000305D000030000010128     GGSL
NJARET21080-26978-10148-50000005D0000054D000040000010148     GGSL
NJARET21080-26978-10183-90000010D0000036D000420000010183     GGSL
NJARET21080-26978-10185-30000020D0000068D000220000010185     GGSL
NJARET21080-26978-10188-40000040D0000128D000440000210188     GGSL
NJARET21080-26978-10240-90000060D0000236D000060000010240     GGSL
NJARET21080-26978-10242-30000010D0000039D000120000010242     GGSL
NJARET21080-26978-10245-40000010D0000035D000280000010245     GGSL
NJARET21080-26978-10300-00000010D0000050D000100000010300     GGSL
NJARET21080-26978-16192-50000010D0000029D000210000616192     GGSL
NJARET21080-26978-16195-60000010D0000049D000230000416195     GGSL
NJARET21080-26978-16198-70000010D0000049D000040000016198     GGSL
NJARET21080-26978-16240-30000030D0000181D000410000216240     GGSL
NJARET21080-26978-16245-80000020D0000120D000050000216245     GGSL
NJARET21080-26978-16248-90000010D0000054D000060000016248     GGSL
NJARET21080-26978-26142-70000010D0000100D000310000226142     GGSL
NJARET21080-26978-26182-30000010D0000144D000060000026182     GGSL
NJARET21080-26978-26242-40000004D0000044D000060000026242     GGSL
NJARET21080-26978-26270-70000030D0000385D000180000026270     GGSL
NJARET21080-26978-30104-80000012D0000066D000000000030104     GGSL
NJARET21080-26978-30301-10000084D0000376D000070000730301     GGSL
NJARET21080-26978-30312-70000024D0000022D000000000030312     GGSL
NJARET21080-26978-30402-50000240D0001471D000240000230402     GGSL
NJARET21080-26978-30409-40000024D0000147D000000000030409     GGSL
NJARET21080-26978-30411-70000024D0000138D000020000030411     GGSL
NJARET21080-26978-30413-10000084D0000587D000000000030413     GGSL
NJARET21080-26978-30500-80000060D0000327D000000000030500     GGSL
NJARET21080-26978-30605-00000012D0000053D000000000030605     GGSL
NJARET21080-26978-30705-70000024D0000103D000030000030705     GGSL
NJARET21080-26978-30806-10000024D0000113D000010000130806     GGSL
NJARET21080-26978-30809-20000006D0000028D000010000130809     GGSL
NJARET21080-26978-30901-30000020D0000099D000450000230901     GGSL
NJARET21080-26978-30909-90000010D0000056D000010000130909     GGSL
NJARET21080-26978-31100-90000020D0000145D000010000031100     GGSL
NJARET21080-26978-31108-50000005D0000034D000050000131108     GGSL
NJARET21080-26978-32128-20000005D0000088D000020000032128     GGSL
NJARET21080-26978-34088-70000020D0000168D000540000034088     GGSL
NJARET21080-26978-34108-20000005D0000070D000000000034108     GGSL
NJARET21080-26978-35068-80000010D0000055D000040000135068     GGSL
NJARET21080-26978-35069-50000010D0000055D000020000035069     GGSL
NJARET21080-26978-35080-00000060D0000530D000040000035080     GGSL
NJARET21080-26978-35086-20000020D0000177D000100000135086     GGSL
NJARET21080-26978-35088-60000020D0000177D000000000035088     GGSL
NJARET21080-26978-35089-30000020D0000177D000030000035089     GGSL
NJARET21080-26978-35109-80000010D0000171D000140000035109     GGSL
NJARET21080-26978-35120-30000010D0000256D000010000035120     GGSL
NJARET21080-26978-35126-50000005D0000122D000030000035126     GGSL
NJARET21080-26978-35128-90000005D0000122D000000000035128     GGSL
NJARET21080-26978-35129-60000020D0000487D000110000035129     GGSL
NJARET21080-26978-35148-70000020D0000704D000060000035148     GGSL
NJARET21080-26978-35149-40000015D0000465D000060000035149     GGSL
NJARET21080-26978-35168-50000010D0000465D000010000035168     GGSL
NJARET21080-26978-35198-20000010D0000419D000180000035198     GGSL
NJARET21080-26978-35278-10000010D0000962D000000000035278     GGSL
NJARET21080-26978-35279-80000002D0000162D000040000035279     GGSL
NJARET21080-26978-36100-40000005D0000063D000110000136100     GGSL
NJARET21080-26978-36120-20000005D0000088D000070000036120     GGSL
NJARET21080-26978-38148-40000132D0000779D000050000138148     GGSL
NJARET21080-26978-38196-50000006D0000080D000160000038196     GGSL
NJARET21080-26978-38198-90000090D0001157D000750000138198     GGSL
NJARET21080-26978-39128-50000084D0000338D000170000639128     GGSL
NJARET21080-26978-39182-70000012D0000086D000170000139182     GGSL
NJARET21080-26978-39186-50000012D0000112D000170000039186     GGSL
NJARET21080-26978-39188-90000012D0000137D000270000039188     GGSL
NJARET21080-26978-48098-30000078D0000388D000130000048098     GGSL
NJARET21080-26978-48128-00000048D0000332D000010000148128     GGSL
NJARET21080-26978-48158-00000090D0000824D000170000048158     GGSL
NJARET21080-27652-80203-50000001D0000055D0000000000LG400151  GGSL
NJARET21080-27856-10001-20008328D0024754D0007300000P10232    GGSL
NJARET21080-27856-10001-20000024D0000071D0000200000P10232M   GGSL
NJARET21080-27856-10002-90012072D0063541D0018900000P10264    GGSL
NJARET21080-27856-10002-90000054D0000284D0000600000P10264M   GGSL
NJARET21080-27856-10008-10003536D0048090D0005000000P101      GGSL
NJARET21080-27856-10008-10000004D0000054D0001300000P101M     GGSL
NJARET21080-27856-10009-80002388D0021850D0006900067P128      GGSL
NJARET21080-27856-10009-80000009D0000082D0000100000P128M     GGSL
NJARET21080-27856-10015-90036672D0350951D0100800672P102128   GGSL
NJARET21080-27997-00229-90000060D0001236D0001200000TE        GGSL
NJARET21080-27997-01017-10000002D0000297D0000900003 M6T22    GGSL
NJARET21080-27997-01017-10000010D0001804D0000700000M6T22     GGSL
NJARET21080-29973-12316-50000070D0000478D000170000214116021P GGSL
NJARET21080-29973-12333-20000040D0000141D002130000814110028P GGSL
NJARET21080-29973-12341-70000012D0000060D0106200006141100216UGGSL
NJARET21080-30541-01020-60000048D0000112D0005100000JCD024SM  GGSL
NJARET21080-30541-01030-50000018D0000153D0006100001JCD100SMJ GGSL
NJARET21080-30541-01034-30000042D0000900D0002200000JCD030SM  GGSL
NJARET21080-30541-01039-80000036D0000180D0006300000JCD05SM   GGSL
NJARET21080-30541-08879-30000024D0000075D0001600001SMVS      GGSL
NJARET21080-31340-10005-10000060D0001124D0003500000B550120   GGSL
NJARET21080-31340-10006-80000240D0002741D0003600001B550125   GGSL
NJARET21080-31340-10007-50000042D0001395D0004000000B550130   GGSL
NJARET21080-31340-10017-40000048D0000899D0002100000B550190   GGSL
NJARET21080-31365-10600-70000002D0000041D0030000000 42808    GGSL
NJARET21080-31417-00057-40000020D0000386D000500000080621131X GGSL
NJARET21080-31417-00058-10000021D0000492D000200001080631131X GGSL
NJARET21080-31724-84000-90000009D0000212D00016000008400100   GGSL
NJARET21080-31724-84007-80000012D0000229D0000200000840075    GGSL
NJARET21080-31724-85090-90000003D0000110D00007000008509100   GGSL
NJARET21080-32247-00900-30000048D0000149D00056000061009001   GGSL
NJARET21080-32247-00910-20000036D0000105D00045000001009101   GGSL
NJARET21080-32247-00950-80000030D0000106D00060000001009501   GGSL
NJARET21080-32247-02515-70000002D0000080D00366000002515      GGSL
NJARET21080-32247-05514-70000060D0000309D000200000070551430  GGSL
NJARET21080-32247-05514-70000016D0000063D000030000370551430X GGSL
NJARET21080-32247-10500-20000120D0001266D0001200003110500    GGSL
NJARET21080-32247-14900-60000024D0000191D000820000014900     GGSL
NJARET21080-32247-14902-00000056D0000915D000190000114902     GGSL
NJARET21080-32247-14905-10000240D0001945D000540000914905     GGSL
NJARET21080-32247-17183-00000102D0001079D000270000417183     GGSL
NJARET21080-32247-17185-40000024D0000587D000530000117185     GGSL
NJARET21080-32247-17187-80000100D0005880D000410000017187     GGSL
NJARET21080-32247-17290-50000006D0000071D000510000017290     GGSL
NJARET21080-32247-17293-60000036D0000409D000500000017293     GGSL
NJARET21080-32247-17295-00000008D0000191D000220000017295     GGSL
NJARET21080-32247-17323-00000024D0000255D000430000017323     GGSL
NJARET21080-32247-17325-40000008D0000179D000060000017325     GGSL
NJARET21080-32247-17327-80000035D0001643D000240000017327     GGSL
NJARET21080-32247-17508-10000126D0001914D001000000217508     GGSL
NJARET21080-32247-17530-20000042D0000381D000070000117530     GGSL
NJARET21080-32247-17540-10000036D0001112D001610000117540     GGSL
NJARET21080-32247-18213-30000008D0000248D000590000118213     GGSL
NJARET21080-32247-18216-40000003D0000232D000430000018216     GGSL
NJARET21080-32247-18221-80000128D0002986D000770000618221     GGSL
NJARET21080-32247-18225-60000132D0001771D001240000018225     GGSL
NJARET21080-32247-18249-20000015D0000974D000150000018249     GGSL
NJARET21080-32247-18260-70000030D0000318D000290000018260     GGSL
NJARET21080-32247-18266-90000030D0000399D000450000018266     GGSL
NJARET21080-32247-18269-00000004D0000137D000440000018269     GGSL
NJARET21080-32247-18272-00000030D0000149D000270000018272     GGSL
NJARET21080-32247-18287-40000024D0000326D000410000018287     GGSL
NJARET21080-32247-18290-40000003D0000116D000110000018290     GGSL
NJARET21080-32247-18296-60000006D0000068D000100000018296     GGSL
NJARET21080-32247-18320-80000006D0000068D000270000018320     GGSL
NJARET21080-32247-18345-10000066D0000853D000220000018345     GGSL
NJARET21080-32247-18348-20000030D0000426D000310000018348     GGSL
NJARET21080-32247-18354-30000006D0000093D000220000018354     GGSL
NJARET21080-32247-20785-00000408D0001170D000000000072078430  GGSL
NJARET21080-32247-21605-00000056D0001129D001930000021605     GGSL
NJARET21080-32247-21701-90000192D0001791D000950000221701     GGSL
NJARET21080-32247-21814-60000026D0001255D004110000021814     GGSL
NJARET21080-32247-22305-80000005D0000099D004300000022305     GGSL
NJARET21080-32247-23002-50000012D0000175D000820000023002     GGSL
NJARET21080-32247-25006-10000008D0000222D001780000025006A    GGSL
NJARET21080-32247-25009-20000002D0000146D001380000025009     GGSL
NJARET21080-32247-26002-20000006D0000349D001450000026002A    GGSL
NJARET21080-32247-26003-90000024D0000578D000840000126003D    GGSL
NJARET21080-32247-26784-70000018D0000066D000650000072678430  GGSL
NJARET21080-32247-27764-80000112D0000513D000060000672776430  GGSL
NJARET21080-32247-30156-50000052D0000897D001120000030156     GGSL
NJARET21080-32247-33040-40000016D0000296D005450000033040     GGSL
NJARET21080-32247-33050-30000005D0000229D004830000033050     GGSL
NJARET21080-32247-33160-90000030D0001174D001840000033160     GGSL
NJARET21080-32247-37594-80000050D0000417D000100000073759430  GGSL
NJARET21080-32247-37610-50000028D0000443D000100000237610C    GGSL
NJARET21080-32247-38605-00000027D0000514D001840004538605D    GGSL
NJARET21080-32247-38615-90000028D0001204D000590001038615     GGSL
NJARET21080-32247-42784-50000036D0000132D000000000074278430  GGSL
NJARET21080-32247-43750-90000004D0000119D00012000004375010   GGSL
NJARET21080-32247-43850-60000008D0000173D00033000004385010   GGSL
NJARET21080-32247-43852-00000009D0000326D00011000004385203   GGSL
NJARET21080-32247-43860-50000020D0000454D00040000034386004   GGSL
NJARET21080-32247-47783-30000060D0000240D000000000074778300  GGSL
NJARET21080-32247-49013-90000022D0000509D000440000049013     GGSL
NJARET21080-32247-49020-70000003D0000183D000950000049020     GGSL
NJARET21080-32247-49801-20000003D0000037D001740000049801C    GGSL
NJARET21080-32247-50087-60000006D0000142D00035000005008710   GGSL
NJARET21080-32247-50088-30000012D0000259D00021000005008810   GGSL
NJARET21080-32247-50240-50000010D0000702D001520000050240     GGSL
NJARET21080-32247-50250-40000010D0000267D004200001050250     GGSL
NJARET21080-32247-51062-20000006D0000042D000220000051062     GGSL
NJARET21080-32247-51070-70000032D0000344D000040000051070     GGSL
NJARET21080-32247-51105-60000010D0000147D003890000051105     GGSL
NJARET21080-32247-51115-50000045D0001853D000140000051115     GGSL
NJARET21080-32247-52784-20000060D0000236D000380000085278430  GGSL
NJARET21080-32247-53115-30000080D0002327D001010000053115     GGSL
NJARET21080-32247-55523-40000036D0000567D000160000075552300  GGSL
NJARET21080-32247-55783-20000156D0000678D000290000175578300  GGSL
NJARET21080-32247-55863-10000019D0000122D001630000575586300X GGSL
NJARET21080-32247-56063-40000008D0000033D000520000645606300  GGSL
NJARET21080-32247-56211-90000012D0000194D00030000005621106   GGSL
NJARET21080-32247-56513-40000390D0003510D000550000075651300  GGSL
NJARET21080-32247-56523-30000288D0004049D000520000275652300  GGSL
NJARET21080-32247-56783-10000726D0003267D006320004975678300  GGSL
NJARET21080-32247-56783-10000120D0000569D000030000075678309  GGSL
NJARET21080-32247-56863-00000273D0002058D000050000375686300  GGSL
NJARET21080-32247-56863-00000077D0000540D001050001775686300X GGSL
NJARET21080-32247-57905-60000074D0000972D001380000057905     GGSL
NJARET21080-32247-71060-20000084D0001084D000140000471060     GGSL
NJARET21080-32247-71131-90000016D0000297D000090000071131     GGSL
NJARET21080-32247-74150-70000408D0002304D0001600003274150    GGSL
NJARET21080-32247-74250-40000684D0006167D0001300007274250    GGSL
NJARET21080-32247-74850-60000180D0003766D0002500001274850    GGSL
NJARET21080-32247-75902-10000005D0000423D000060000075902     GGSL
NJARET21080-32247-76121-50000024D0000850D000100000176121     GGSL
NJARET21080-32247-76232-80000021D0001381D000230000276232     GGSL
NJARET21080-32247-76565-70000012D0000691D000120000176565     GGSL
NJARET21080-32247-77160-30000552D0003036D0003000008277160    GGSL
NJARET21080-32247-77260-00000468D0004507D0003400004277260    GGSL
NJARET21080-32247-77860-20000048D0000858D0011000001277860    GGSL
NJARET21080-32247-77960-90000172D0003977D0002000002277960    GGSL
NJARET21080-32247-99605-10000021D0000527D002170000099605     GGSL
NJARET21080-32247-99610-50000006D0000292D001760000099610     GGSL
NJARET21080-32903-00169-30000192D0000254D0000000000SLI06000E3GGSL
NJARET21080-32903-00171-60000120D0000177D0000400000SLI06000A3GGSL
NJARET21080-32903-00191-40000012D0000062D0000600000GAB12000E2GGSL
NJARET21080-32903-00192-10000096D0000131D0000600000SLI06000B9GGSL
NJARET21080-32903-00214-00000168D0000242D0000300000SLI06000E2GGSL
NJARET21080-32903-00222-50000192D0000331D0000500000SLI08000B9GGSL
NJARET21080-32903-00240-90000120D0000222D0000700000SLI08000E2GGSL
NJARET21080-32903-00246-10000072D0000123D0000000000SLI08000A3GGSL
NJARET21080-32903-00257-70000006D0000221D0000300000RZGH210G2 GGSL
NJARET21080-32903-00258-40000072D0000148D0001100001LIA06000E2GGSL
NJARET21080-32903-00264-50000048D0000150D0000600001LIA08000E2GGSL
NJARET21080-32903-00281-20000036D0000172D0001500000LIA10000E2GGSL
NJARET21080-32903-00283-60000012D0000086D0000500000GAB14000E2GGSL
NJARET21080-32903-00293-50000168D0000391D0006100000SLI10000E2GGSL
NJARET21080-32903-00309-30000228D0000497D0000000000SLI10000E3GGSL
NJARET21080-32903-00326-00000048D0000352D0001200000LIA12000E2GGSL
NJARET21080-32903-00332-10000120D0000299D0000500000SLI10000B9GGSL
NJARET21080-32903-00338-30000120D0000268D0000400001SLI10000A3GGSL
NJARET21080-32903-00341-30000054D0000531D0000000000SLI24000E3GGSL
NJARET21080-32903-00359-80000216D0000373D0000300001SLI08000E3GGSL
NJARET21080-32903-04257-30000048D0000206D0000300000SLI12000E2GGSL
NJARET21080-32903-07519-90000024D0000360D0000200000LIA16000E2GGSL
NJARET21080-32903-07534-20000006D0000120D0000200000LIA20000E2GGSL
NJARET21080-32903-07563-20000048D0000251D0000300000SLI17000E2GGSL
NJARET21080-32903-07577-90000006D0000161D0000800000LIA24000E2GGSL
NJARET21080-32903-12006-60000024D0000045D0000000000LIA06000E3GGSL
NJARET21080-32903-12008-00000240D0000679D0000200001LIA08000E3GGSL
NJARET21080-32903-12010-30000372D0001645D0002300003LIA10000E3GGSL
NJARET21080-32903-12012-70000348D0002547D0001900004LIA12000E3GGSL
NJARET21080-32903-12014-10000240D0002222D0000200002LIA14000E3GGSL
NJARET21080-32903-12017-20000132D0001845D0001100000LIA16000E3GGSL
NJARET21080-32903-12020-20000018D0000310D0001200000LIA20000E3GGSL
NJARET21080-32903-12024-00000012D0000321D0001100000LIA24000E3GGSL
NJARET21080-32903-12312-80000048D0000297D0000900000CNA12000E3GGSL
NJARET21080-32903-12712-60000048D0000247D0000800001GAB12000E3GGSL
NJARET21080-32903-12714-00000024D0000172D0001200000GAB14000E3GGSL
NJARET21080-32903-12718-80000012D0000133D0000300000GAB18000E3GGSL
NJARET21080-32903-12818-50000012D0000097D0000600000VNP18000E3GGSL
NJARET21080-32903-12824-60000018D0000160D0001600000VNP24000E3GGSL
NJARET21080-32903-12830-70000012D0000116D0000200000VNP30000E3GGSL
NJARET21080-32903-23732-00000030D0000239D0000600000SLI20000E2GGSL
NJARET21080-32903-30392-60000072D0000191D0001700000CNA08000E3GGSL
NJARET21080-32903-35947-30000060D0000236D0000800001CNA10000E3GGSL
NJARET21080-32903-40400-50000048D0000235D0000300001LIA10000A3GGSL
NJARET21080-32903-40493-70000336D0000992D0002900000LIA08000B9GGSL
NJARET21080-32903-41640-40000072D0000225D0000300000LIA08000A3GGSL
NJARET21080-32903-41717-30000084D0000813D0000400000LIA14000B9GGSL
NJARET21080-32903-41728-90000084D0000497D0000000000LIA12000B9GGSL
NJARET21080-32903-41842-20000006D0000065D0002700000VNP30000A3GGSL
NJARET21080-32903-41909-20000048D0000652D0000700000LIA16000A3GGSL
NJARET21080-32903-42240-50000120D0000210D0000000000LIA06000B9GGSL
NJARET21080-32903-45170-20000048D0000377D0000600002LIA14000A3GGSL
NJARET21080-32903-45788-90000006D0000161D0001300000LIA24000B9GGSL
NJARET21080-32903-46337-80000048D0000693D0000500000LIA16000B9GGSL
NJARET21080-32903-47208-00000036D0000270D0000400000LIA12000A3GGSL
NJARET21080-32903-48101-30000024D0000049D0000200000LIA06000A3GGSL
NJARET21080-32903-48538-70000012D0000241D0001000000LIA20000B9GGSL
NJARET21080-32903-50763-80000060D0000236D0000000000SLI12000E3GGSL
NJARET21080-32903-50764-50000096D0000432D0000600001SLI14000B9GGSL
NJARET21080-32903-50766-90000068D0003638D0000000000TEA24000G2GGSL
NJARET21080-32903-50767-60000012D0000052D0000200000SLI12000A3GGSL
NJARET21080-32903-50794-20000180D0000683D0000000000SLI12000B9GGSL
NJARET21080-32903-50802-40000096D0000437D0000000000SLI14000E3GGSL
NJARET21080-32903-50803-10000060D0000281D0000500000SLI14000A3GGSL
NJARET21080-32903-52858-90000006D0000030D0000000000VNP18000B9GGSL
NJARET21080-32903-53271-50000018D0000181D0001400000SLI24000E2GGSL
NJARET21080-32903-61636-10000024D0000090D0002200004HSI10008B6GGSL
NJARET21080-32903-72233-80000228D0000911D0000000000LIA10000B9GGSL
NJARET21080-32903-75049-20000018D0000145D0000200000SLI20000E3GGSL
NJARET21080-32903-75050-80000008D0000326D0000000000TEA2000A34GGSL
NJARET21080-32903-75051-50000024D0000129D0000400000SLI17000A3GGSL
NJARET21080-32903-75057-70000060D0000296D0000200000SLI17000B9GGSL
NJARET21080-32903-75067-60000012D0000642D0000000000TEA2400A34GGSL
NJARET21080-32903-75070-60000018D0000145D0000100000SLI20000A3GGSL
NJARET21080-32903-75080-50000072D0000321D0000000000SLI17000E3GGSL
NJARET21080-32903-75081-20000018D0000141D0000400000SLI20000B9GGSL
NJARET21080-32903-75084-30000012D0000122D0000400000SLI24000A3GGSL
NJARET21080-32903-75089-80000018D0000175D0000700000SLI24000B9GGSL
NJARET21080-32903-91485-60000010D0000147D0002400001SPX24DBA34GGSL
NJARET21080-33200-00020-40004404D0003163D00809002783320000020GGSL
NJARET21080-33200-00544-50008256D0082734D050810272900544     GGSL
NJARET21080-33200-01191-00000556D0003931D004880009801191     GGSL
NJARET21080-33200-06527-20000979D0017612D03582000856527      GGSL
NJARET21080-33200-09020-50000020D0000140D001590000009020     GGSL
NJARET21080-33200-09142-40001380D0009654D009350025809142     GGSL
NJARET21080-33200-09293-30002208D0015434D01840002579293      GGSL
NJARET21080-33200-09793-80000004D0000037D00050000009793      GGSL
NJARET21080-33200-11321-80000414D0000553D004210004811321     GGSL
NJARET21080-33200-11448-20000036D0000054D000880000011448     GGSL
NJARET21080-33200-35240-20000016D0000030D0007200000352402    GGSL
NJARET21080-33200-94182-80006588D0066012D069110152694182     GGSL
NJARET21080-33200-97209-90000004D0000032D000510000097209     GGSL
NJARET21080-33200-97242-60000024D0000190D001850000097242     GGSL
NJARET21080-33200-97457-40006984D0072703D039690145597457     GGSL
NJARET21080-33349-05082-50000016D0000053D0002400000JP506     GGSL
NJARET21080-33349-07750-10000029D0000095D0000800000J4R25     GGSL
NJARET21080-33349-41221-00000100D0000218D0000200000TDOME     GGSL
NJARET21080-33349-41251-70000030D0000097D0000400000JS50      GGSL
NJARET21080-33349-41254-80000020D0000064D0000000000JS32      GGSL
NJARET21080-33349-41444-30000028D0000071D0000000000JP406     GGSL
NJARET21080-33349-41701-70002000D0000260D0001200000J4BULK    GGSL
NJARET21080-33349-66003-10000020D0000205D0000200000J372ST20  GGSL
NJARET21080-33349-66009-30000014D0000089D0000800000T72HST14  GGSL
NJARET21080-33349-66016-10000014D0000088D0000400001TS32HST14 GGSL
NJARET21080-33607-00104-00000004D0000109D0000400000WST1      GGSL
NJARET21080-33607-00702-80000012D0000232D0000100000RD2       GGSL
NJARET21080-33607-00704-20000018D0000261D0001800000REA4      GGSL
NJARET21080-33607-00938-10000004D0000110D0002200000M7C       GGSL
NJARET21080-33607-01220-60000006D0000155D0005100002LT20      GGSL
NJARET21080-33607-22000-70000012D0000113D0000200000HCWM1     GGSL
NJARET21080-33607-22005-20000004D0000086D0001900000HC2       GGSL
NJARET21080-33607-22006-90000008D0000219D0002100000HBE6      GGSL
NJARET21080-33607-22010-60000008D0000257D0002800000HCF3      GGSL
NJARET21080-33607-22125-70000006D0000719D0000000000HT2EZ     GGSL
NJARET21080-33607-22250-60000001D0000144D0001600000HT4EZ     GGSL
NJARET21080-33607-22550-70000001D0000101D0003300000SRWM180   GGSL
NJARET21080-33607-51200-30000004D0000144D0000400000RC3       GGSL
NJARET21080-33607-52100-50000008D0000416D0001800000GKS2      GGSL
NJARET21080-34411-01076-10000010D0000165D00009000008006041001GGSL
NJARET21080-34411-74501-40000042D0001204D00020000008745011002GGSL
NJARET21080-34411-80203-80000036D0000654D00009000008802031011GGSL
NJARET21080-34411-92773-10000012D0000094D00002000008702511001GGSL
NJARET21080-34613-00005-80000006D0000116D0000100000LH005     GGSL
NJARET21080-34613-00014-00000012D0000103D0002300000LH014     GGSL
NJARET21080-34613-00015-70000024D0000319D0001600000LH015     GGSL
NJARET21080-34613-00025-60000012D0000245D0000000000LH025     GGSL
NJARET21080-34613-00225-00000175D0000758D0013900000225       GGSL
NJARET21080-34613-00325-70000175D0001455D0015400000325       GGSL
NJARET21080-34613-00337-00000012D0000045D0001100001337       GGSL
NJARET21080-34613-00402-50000012D0000075D0000200000402       GGSL
NJARET21080-34613-00409-40000012D0000066D0000100000CVS409    GGSL
NJARET21080-34613-00412-40000012D0000128D0000000000CVS412    GGSL
NJARET21080-34613-00425-40000325D0002954D0014200000425       GGSL
NJARET21080-34613-00451-30000012D0000063D0000000000451       GGSL
NJARET21080-34613-00473-50000001D0000083D0001100000 N824     GGSL
NJARET21080-34613-00540-40000040D0000328D0000000000540HD     GGSL
NJARET21080-34613-00551-00000012D0000042D0001400000551BL     GGSL
NJARET21080-34613-00552-70000012D0000042D0000600000552BL     GGSL
NJARET21080-34613-00640-10000080D0000824D0000500000640HD     GGSL
NJARET21080-34613-00802-30000120D0000131D0000800000SS2       GGSL
NJARET21080-34613-00803-00000120D0000146D0002700000SS3       GGSL
NJARET21080-34613-00804-70000040D0000072D0000000000SS4       GGSL
NJARET21080-34613-00805-40000120D0000244D0001800001SS5       GGSL
NJARET21080-34613-00806-10000100D0000272D0000400000SS6       GGSL
NJARET21080-34613-00807-80000020D0000146D0000400000SS7HD     GGSL
NJARET21080-34613-00808-50000020D0000141D0000300000SS8HD     GGSL
NJARET21080-34613-00809-20000020D0000012D0000600000SS6HD     GGSL
NJARET21080-34613-00831-30000040D0000179D0000100000SFS4      GGSL
NJARET21080-34613-00835-10000020D0000184D0000200000SFS5      GGSL
NJARET21080-34613-01064-40000012D0000144D00059000001064      GGSL
NJARET21080-34613-01150-40000060D0000259D00012000001150PDQ   GGSL
NJARET21080-34613-01160-30000030D0000100D00004000001160      GGSL
NJARET21080-34613-01180-10000048D0000142D00006000001180PDQ   GGSL
NJARET21080-34613-01484-00000012D0000076D0000000000CVS014HD  GGSL
NJARET21080-34613-01503-80000084D0000168D00002000001503      GGSL
NJARET21080-34613-01901-20000012D0000104D00031000031901      GGSL
NJARET21080-34613-01902-90000012D0000104D00029000041902      GGSL
NJARET21080-34613-01903-60000036D0000312D00014000061903      GGSL
NJARET21080-34613-03104-50000036D0000376D00066000013104      GGSL
NJARET21080-34613-03378-00000012D0000138D00000000003378      GGSL
NJARET21080-34613-04803-60000015D0000138D0000100000U4803     GGSL
NJARET21080-34613-04851-70000006D0000060D00002000014851BL    GGSL
NJARET21080-34613-04862-30000024D0000219D0002700000LH013BL   GGSL
NJARET21080-34613-06811-90000018D0000368D00002000006811      GGSL
NJARET21080-34613-07161-40000012D0000078D00002000007161BL    GGSL
NJARET21080-34613-07162-10000012D0000078D00000000007162BL    GGSL
NJARET21080-34613-07163-80000024D0000167D00000000007163BL    GGSL
NJARET21080-34613-08138-50000012D0000201D00002000008138      GGSL
NJARET21080-34613-08446-10000018D0000296D0002200000BF24      GGSL
NJARET21080-34613-09509-20000012D0000058D00000000009509      GGSL
NJARET21080-34613-09629-70000012D0000153D00000000009629      GGSL
NJARET21080-34613-34006-20000050D0000019D0000000000CVS006    GGSL
NJARET21080-34613-34007-90000050D0000017D0000100000CVS007    GGSL
NJARET21080-34613-34008-60000075D0000038D0000100000CVS008    GGSL
NJARET21080-34613-34009-30000075D0000045D0000400001CVS009    GGSL
NJARET21080-34613-34012-30000025D0000031D0000100000CVS012    GGSL
NJARET21080-34613-34014-70000050D0000082D0000500000CVS014    GGSL
NJARET21080-34613-59738-10000034D0000968D005370053759738     GGSL
NJARET21080-34613-59739-80000013D0000366D005130044959739     GGSL
NJARET21080-34613-59740-40000025D0000708D004600043959740     GGSL
NJARET21080-34613-59741-10000008D0000224D006200049359741     GGSL
NJARET21080-34613-59774-90000001D0000170D000000000059774     GGSL
NJARET21080-34613-59946-00000029D0001761D002450016559946     GGSL
NJARET21080-34613-59947-70000028D0001700D002460016859947     GGSL
NJARET21080-34613-65497-80000060D0001742D005520047265497     GGSL
NJARET21080-34613-65498-50000026D0000762D004380040365498     GGSL
NJARET21080-34613-65499-20000008D0000240D002180021665499     GGSL
NJARET21080-34613-65677-40000046D0001368D003080027665677     GGSL
NJARET21080-34613-65678-10000040D0001172D004400043765678     GGSL
NJARET21080-34613-65679-80000029D0000838D006340053065679     GGSL
NJARET21080-34613-65680-40000017D0000506D005310042565680     GGSL
NJARET21080-34613-65681-10000042D0001233D005990048365681     GGSL
NJARET21080-34613-65682-80000054D0001571D004820038965682     GGSL
NJARET21080-34613-65767-20000036D0001120D001210010365767     GGSL
NJARET21080-34613-69884-20000002D0000113D000610001869884     GGSL
NJARET21080-34613-69886-60000009D0000503D000910005369886     GGSL
NJARET21080-34613-91018-00000025D0000105D000000000091018     GGSL
NJARET21080-34613-94006-40000006D0000045D000020000094006     GGSL
NJARET21080-34613-96006-20000012D0000142D000010000096006     GGSL
NJARET21080-35000-05361-90000780D0000554D0055900048105375    GGSL
NJARET21080-35000-05364-00002040D0002122D0015000144105374    GGSL
NJARET21080-35000-14112-50000480D0002376D002920010614477     GGSL
NJARET21080-35000-14120-00000468D0002317D005720005414478     GGSL
NJARET21080-35000-14328-00000126D0000624D004320000614483     GGSL
NJARET21080-35000-44627-50000280D0000294D0012100003144630    GGSL
NJARET21080-35000-44673-20000045D0000068D001550006844673     GGSL
NJARET21080-35000-44678-70000081D0000171D000160001644678     GGSL
NJARET21080-35000-45038-50000099D0000191D0008100030US04232A  GGSL
NJARET21080-35000-45041-50000126D0000271D0006200016US04229A  GGSL
NJARET21080-35000-45118-40000171D0000368D0017100059US04268A  GGSL
NJARET21080-35000-45122-40000200D0000826D0002900000US04284A  GGSL
NJARET21080-35000-45816-20000123D0000744D0011400000MX04966A  GGSL
NJARET21080-35000-47805-40000063D0000149D000430000847805     GGSL
NJARET21080-35000-49861-80000240D0000571D000190001949861     GGSL
NJARET21080-35000-51119-50000012D0000034D0030200063151119    GGSL
NJARET21080-35000-53030-10000060D0000171D0008900024153043    GGSL
NJARET21080-35000-53032-50000714D0001773D0025800075153041    GGSL
NJARET21080-35000-53058-50009396D0043913D013280091153058     GGSL
NJARET21080-35000-53060-80000824D0003896D014520038953060     GGSL
NJARET21080-35000-53099-80002280D0005244D029220012953099     GGSL
NJARET21080-35000-53122-30004422D0026799D039450061553122     GGSL
NJARET21080-35000-55190-00000162D0000486D0013800008155190    GGSL
NJARET21080-35000-96987-30000822D0004973D0023700070MX06813A  GGSL
NJARET21080-35000-97018-30000368D0002370D0055100031US06329A  GGSL
NJARET21080-35000-97335-10000768D0004593D0175800502US06517A  GGSL
NJARET21080-35000-97336-80001652D0009879D0126400206US06516A  GGSL
NJARET21080-35000-97337-50000016D0000096D0003700002US06515A  GGSL
NJARET21080-35000-97343-60000036D0000085D0104300337US06522A  GGSL
NJARET21080-35000-98324-40000020D0000098D0044400000US07139A  GGSL
NJARET21080-35000-98601-60000081D0000174D0009900006US07368A  GGSL
NJARET21080-35000-98631-30000096D0000099D0010400052MX07180A  GGSL
NJARET21080-35110-01900-00000516D0003903D001880008701900     GGSL
NJARET21080-35110-01903-10000072D0000684D000660001501903     GGSL
NJARET21080-35110-04915-10000016D0000153D000920000004915     GGSL
NJARET21080-35307-00404-80000024D0000100D0000400000404       GGSL
NJARET21080-35307-00810-70000012D0000025D0000000000810       GGSL
NJARET21080-35307-00812-10000024D0000059D0000100001812       GGSL
NJARET21080-35307-00816-90000024D0000038D0002000000816       GGSL
NJARET21080-35307-00817-60000048D0000111D0000100000817       GGSL
NJARET21080-35307-00818-30000012D0000025D0000700000818       GGSL
NJARET21080-35307-00819-00000024D0000053D0005100000819       GGSL
NJARET21080-35307-00820-60000024D0000046D0001700000820       GGSL
NJARET21080-35307-00828-20000024D0000066D0000800000828       GGSL
NJARET21080-35307-00829-90000012D0000044D0001200000829       GGSL
NJARET21080-35307-00835-00000060D0000398D0000600000835       GGSL
NJARET21080-35307-00838-10000012D0000042D0001800000838       GGSL
NJARET21080-35307-00840-40000024D0000059D0000000000840       GGSL
NJARET21080-35307-00841-10000180D0000373D0001900000841       GGSL
NJARET21080-35307-00843-50000012D0000041D0002700000843       GGSL
NJARET21080-35307-00844-20000048D0000132D0001700003844       GGSL
NJARET21080-35307-00845-90000024D0000109D0000100000845       GGSL
NJARET21080-35307-00846-60000060D0000216D0005500000846       GGSL
NJARET21080-35307-00848-00000060D0000145D0002100000848       GGSL
NJARET21080-35307-00857-20000072D0000449D0000200000857       GGSL
NJARET21080-35307-00869-50000012D0000125D0001000000869       GGSL
NJARET21080-35307-00874-90000048D0000080D0002900000874       GGSL
NJARET21080-35307-00877-00000072D0000120D0000900000877       GGSL
NJARET21080-35307-00917-30000024D0000062D0000200000917       GGSL
NJARET21080-35307-00972-20000036D0000236D0001300001972       GGSL
NJARET21080-35307-00977-70000048D0000142D0000200000977       GGSL
NJARET21080-35307-00978-40000012D0000083D0000100000978       GGSL
NJARET21080-35307-00985-20000024D0000066D0000000000985       GGSL
NJARET21080-35307-00987-60000012D0000054D0004400000987       GGSL
NJARET21080-35307-01035-30000096D0000265D00000000001035      GGSL
NJARET21080-35307-01045-20000024D0000108D00008000001045      GGSL
NJARET21080-35307-01220-30000012D0000043D00000000001220      GGSL
NJARET21080-35307-01250-00000060D0000208D00006000021250      GGSL
NJARET21080-35307-01601-00000012D0000158D00000000001601      GGSL
NJARET21080-35307-01612-60000024D0000116D00000000001612      GGSL
NJARET21080-35307-01618-80000012D0000076D00005000001618      GGSL
NJARET21080-35307-01638-60000006D0000029D00000000001638      GGSL
NJARET21080-35307-01640-90000018D0000125D00001000011640      GGSL
NJARET21080-35307-01810-60000024D0000128D00002000021810      GGSL
NJARET21080-35307-01815-10000048D0000332D00000000001815      GGSL
NJARET21080-35307-01817-50000006D0000045D000000000018176     GGSL
NJARET21080-35307-01820-50000042D0000523D00003000031820      GGSL
NJARET21080-35307-01830-40000006D0000104D00000000001830      GGSL
NJARET21080-35307-01845-80000012D0000150D00000000001845      GGSL
NJARET21080-35307-01880-90000003D0000075D00010000001880      GGSL
NJARET21080-35307-90872-80000024D0000091D0000900000872       GGSL
NJARET21080-35307-90879-70000012D0000057D0000700000879       GGSL
NJARET21080-35355-91015-50000025D0000088D000060000091015     GGSL
NJARET21080-35951-07000-00000528D0005558D001330000407000     GGSL
NJARET21080-35951-07007-90000084D0001316D000240000007007     GGSL
NJARET21080-35951-07009-30000132D0002900D000330000007009     GGSL
NJARET21080-35951-07011-60000028D0001965D000430000207011     GGSL
NJARET21080-36074-12002-30000096D0000441D0001900002BC07      GGSL
NJARET21080-36151-46825-30000005D0000138D00073000502646825   GGSL
NJARET21080-36241-66300-10000012D0000081D008600000674297     GGSL
NJARET21080-36241-97402-20000036D0000161D0033200000974022    GGSL
NJARET21080-36348-01020-30000008D0000133D00077000001020      GGSL
NJARET21080-36348-01079-10000008D0000392D00025000001079      GGSL
NJARET21080-36348-05277-70000008D0000288D00003000005277      GGSL
NJARET21080-36434-12342-80000006D0000040D00018000016012342   GGSL
NJARET21080-36434-12343-50000006D0000057D00017000006012343   GGSL
NJARET21080-36434-12346-60000030D0000147D00050000016012346   GGSL
NJARET21080-36434-12353-40000018D0000317D00023000026012353   GGSL
NJARET21080-36434-12363-30000012D0000441D00000000001012363   GGSL
NJARET21080-36434-12420-30000012D0000140D00058000001012420   GGSL
NJARET21080-36434-12700-60000600D0005251D00103000001012700   GGSL
NJARET21080-36434-12720-40000084D0000526D00083000001012720   GGSL
NJARET21080-36434-13001-30000012D0000051D00054000001013001   GGSL
NJARET21080-36434-13200-00000006D0000032D00010000006013200   GGSL
NJARET21080-36434-13700-50000132D0001176D00042000021032700   GGSL
NJARET21080-36434-15000-40000090D0003147D00048000001015000   GGSL
NJARET21080-36434-15020-20000030D0000568D00064000001015020   GGSL
NJARET21080-36434-15030-10000018D0000406D00050000001015030   GGSL
NJARET21080-36434-15060-80000006D0000098D00037000001015050   GGSL
NJARET21080-36434-15060-80000030D0000490D00009000001015060   GGSL
NJARET21080-36434-15070-70000018D0000264D00044000001015070   GGSL
NJARET21080-36434-17000-20000048D0002382D00033000021017000   GGSL
NJARET21080-36434-17010-10000036D0000818D00089000061017010   GGSL
NJARET21080-36434-17020-00000024D0000403D00015000001017020   GGSL
NJARET21080-36434-17050-70000066D0001293D00014000001017050   GGSL
NJARET21080-36434-17051-40000042D0000549D00010000001017051   GGSL
NJARET21080-36434-22318-00000048D0000208D00035000056022318   GGSL
NJARET21080-36434-22341-80000012D0000140D00001000001022341   GGSL
NJARET21080-36434-22345-60000012D0000141D00001000011022345   GGSL
NJARET21080-36434-22729-40000006D0000079D00000000006022729   GGSL
NJARET21080-36434-28040-40000108D0001555D00001000011028040   GGSL
NJARET21080-37000-00992-40000256D0002844D002660000400992     GGSL
NJARET21080-37000-00995-50000280D0003111D002300000200995     GGSL
NJARET21080-37000-00997-90000072D0000800D000920000200997     GGSL
NJARET21080-37000-07312-30000510D0004483D003610000307312     GGSL
NJARET21080-37000-19744-70000028D0000109D004140001297584     GGSL
NJARET21080-37000-24684-80000072D0000633D003450000424684     GGSL
NJARET21080-37000-31821-70002772D0008954D002490000013093     GGSL
NJARET21080-37000-35154-20001200D0003876D003210000108622     GGSL
NJARET21080-37000-40509-20000900D0002907D001140000011804     GGSL
NJARET21080-37000-41767-50001588D0009671D003070000021459     GGSL
NJARET21080-37000-41827-60000004D0000040D001550000641827     GGSL
NJARET21080-37000-44750-40000480D0003202D001000000082074     GGSL
NJARET21080-37000-73378-20000012D0000094D000520000373378     GGSL
NJARET21080-37000-73977-70000008D0000080D001150000373977     GGSL
NJARET21080-37000-76337-60000088D0000674D001090000176337     GGSL
NJARET21080-37000-87848-30000024D0000094D000950000387848     GGSL
NJARET21080-37000-92811-90000276D0005103D000000000092811     GGSL
NJARET21080-37000-92815-70001410D0012845D001730007492815     GGSL
NJARET21080-37000-99042-00001632D0009939D002320000099042     GGSL
NJARET21080-37321-00022-80003060D0020497D0023100058022       GGSL
NJARET21080-37321-00023-50000040D0000810D0000300003023       GGSL
NJARET21080-37321-00024-20000408D0005017D0000200002024       GGSL
NJARET21080-37321-00025-90001140D0009923D0010900023025       GGSL
NJARET21080-37321-00036-50000012D0000081D0000000000036       GGSL
NJARET21080-37321-00042-60000012D0000131D0000300000042       GGSL
NJARET21080-37321-00050-10000096D0000096D0000500000050       GGSL
NJARET21080-37321-00051-80000018D0000223D0001600001051       GGSL
NJARET21080-37321-00053-20000024D0000066D0001000000053       GGSL
NJARET21080-37321-00055-60000015D0000215D0001100000055       GGSL
NJARET21080-37321-00061-70000204D0001581D0002000000061       GGSL
NJARET21080-37321-00065-50000396D0002139D0007400004065       GGSL
NJARET21080-37321-00068-60000036D0000200D0000100000068       GGSL
NJARET21080-37321-00069-30000192D0002558D0002700000069       GGSL
NJARET21080-37321-00070-90000036D0000554D0001500000070       GGSL
NJARET21080-37321-00082-20000004D0000069D0000100000082       GGSL
NJARET21080-37321-00097-60000180D0000999D0000500000097       GGSL
NJARET21080-37321-00098-30000060D0000286D0000000000098       GGSL
NJARET21080-37321-00099-00000012D0000083D0000000000099       GGSL
NJARET21080-37321-00102-70000060D0000734D0000500001102       GGSL
NJARET21080-37321-00108-90000984D0002925D0008600074108       GGSL
NJARET21080-37321-00110-20001528D0005120D0052000128110       GGSL
NJARET21080-37321-00112-60001894D0006356D0061400218112       GGSL
NJARET21080-37321-00121-80000224D0002629D0003300001121       GGSL
NJARET21080-37321-00123-20000048D0000195D0001600000123       GGSL
NJARET21080-37321-00127-00000624D0005446D0003600001127       GGSL
NJARET21080-37321-00141-60000312D0001462D0008100015141       GGSL
NJARET21080-37321-00142-30000036D0000329D0001200000142       GGSL
NJARET21080-37321-00150-80000024D0000405D0000000000150       GGSL
NJARET21080-37321-00160-70000012D0000042D0001500001160       GGSL
NJARET21080-37321-00165-20000012D0000146D0000500000165       GGSL
NJARET21080-37321-00166-90004128D0023199D0064600625166       GGSL
NJARET21080-37321-00167-60000048D0000301D0005000000167       GGSL
NJARET21080-37321-00196-60000204D0001239D0003600017196       GGSL
NJARET21080-37321-00202-40000024D0000262D0001700001202       GGSL
NJARET21080-37321-00204-80000012D0000350D0004400000204       GGSL
NJARET21080-37321-00210-90000060D0000358D0001500000210       GGSL
NJARET21080-37321-00211-60000036D0000310D0002600001211       GGSL
NJARET21080-37321-00212-30000016D0000318D0001600000212       GGSL
NJARET21080-37321-00213-00000336D0003424D0000400001213       GGSL
NJARET21080-37321-00214-70001080D0006041D0037200018214       GGSL
NJARET21080-37321-00216-10000096D0001619D0000100001216       GGSL
NJARET21080-37321-00217-80000036D0000381D0001100002217       GGSL
NJARET21080-37321-00225-30000012D0000069D0001900008225       GGSL
NJARET21080-37321-00227-70000156D0001860D0001000001227       GGSL
NJARET21080-37321-00230-70000180D0001591D0003100000230       GGSL
NJARET21080-37321-00237-60000084D0001132D0000600001237       GGSL
NJARET21080-37321-00238-30000504D0004397D0002300019238       GGSL
NJARET21080-37321-00239-00000012D0000283D0003700000239       GGSL
NJARET21080-37321-00240-60000036D0000607D0000000000240       GGSL
NJARET21080-37321-00250-50000852D0004589D0005300013250       GGSL
NJARET21080-37321-00253-60000012D0000238D0000100002253       GGSL
NJARET21080-37321-00255-00000228D0004824D0000200001255       GGSL
NJARET21080-37321-00258-10000528D0003425D0003400010258       GGSL
NJARET21080-37321-00272-70000060D0000234D0002000000272       GGSL
NJARET21080-37321-00274-10000144D0000955D0000100001274       GGSL
NJARET21080-37321-00276-50000048D0000698D0000400000276       GGSL
NJARET21080-37321-00277-20000006D0000229D0001000000277       GGSL
NJARET21080-37321-00307-60000048D0000225D0003700000307       GGSL
NJARET21080-37321-00308-30000044D0000458D0000900000308       GGSL
NJARET21080-37321-00309-00000018D0000316D0000000000309       GGSL
NJARET21080-37321-00310-60000084D0002611D0000200001310       GGSL
NJARET21080-37321-00311-30000114D0003669D0000100001311       GGSL
NJARET21080-37321-00312-00000060D0001231D0002000002312       GGSL
NJARET21080-37321-00321-20000072D0000430D0008000001321       GGSL
NJARET21080-37321-00323-60000108D0001475D0000200000323       GGSL
NJARET21080-37321-00330-40000060D0000607D0001500001330       GGSL
NJARET21080-37321-00331-10000168D0002706D0001000000331       GGSL
NJARET21080-37321-00363-20000252D0001050D0000300003363       GGSL
NJARET21080-37321-00370-00000024D0000101D0001800001370       GGSL
NJARET21080-37321-00371-70000048D0000266D0000600000371       GGSL
NJARET21080-37321-00372-40000012D0000115D0000800000372       GGSL
NJARET21080-37321-00404-20000012D0000095D0002000000404       GGSL
NJARET21080-37321-00411-00000084D0000281D0000600000411       GGSL
NJARET21080-37321-00412-70000048D0000247D0002100000412       GGSL
NJARET21080-37321-00426-40000024D0000259D0000000000426       GGSL
NJARET21080-37321-00428-80000396D0001604D0006600023428       GGSL
NJARET21080-37321-00429-50000006D0000123D0000800002429       GGSL
NJARET21080-37321-00442-40000084D0000567D0000300003442       GGSL
NJARET21080-37321-00506-30000660D0003014D0005800008506       GGSL
NJARET21080-37321-00530-80000012D0000125D0002700000530       GGSL
NJARET21080-37321-00544-50000012D0000072D0003400000544       GGSL
NJARET21080-37321-00560-50000036D0000167D0000000000560       GGSL
NJARET21080-37321-00571-10000024D0000168D0000400000571       GGSL
NJARET21080-37321-00573-50000024D0000102D0000900000573       GGSL
NJARET21080-37321-00574-20000012D0000098D0000800001574       GGSL
NJARET21080-37321-00603-90000028D0000367D0000700000603       GGSL
NJARET21080-37321-00603-90000075D0000769D002310000060315X    GGSL
NJARET21080-37321-00609-10000144D0001600D0000000000609       GGSL
NJARET21080-37321-00611-40000036D0000937D0000400000611       GGSL
NJARET21080-37321-00612-10000084D0000454D00043000000612      GGSL
NJARET21080-37321-00613-80000016D0000222D00005000000613      GGSL
NJARET21080-37321-00629-90000036D0000106D0000100001629       GGSL
NJARET21080-37321-00631-20000600D0002430D0000300003631       GGSL
NJARET21080-37321-00651-00000040D0000539D00020000050651      GGSL
NJARET21080-37321-00652-70000444D0002382D0010500020652       GGSL
NJARET21080-37321-00655-80000204D0001284D00020000026556      GGSL
NJARET21080-37321-00680-00000084D0000850D0000700000680       GGSL
NJARET21080-37321-00681-70000004D0000055D00021000000681      GGSL
NJARET21080-37321-00688-60000168D0001115D0001500006688       GGSL
NJARET21080-37321-00690-90000060D0000675D0000700000690       GGSL
NJARET21080-37321-00691-60000018D0000138D0004700001691       GGSL
NJARET21080-37321-00692-30000084D0001110D0006100001692       GGSL
NJARET21080-37321-00692-30000008D0000095D0030100000692X      GGSL
NJARET21080-37321-00692-30000100D0001019D000020000069250     GGSL
NJARET21080-37321-00697-80000372D0001510D0003900003697       GGSL
NJARET21080-37321-00698-50000024D0000143D0000800002698       GGSL
NJARET21080-37321-00705-00000096D0000615D0002500000705       GGSL
NJARET21080-37321-00728-90000012D0000153D0001200000728       GGSL
NJARET21080-37321-00757-90000030D0000131D0001500000757       GGSL
NJARET21080-37321-00775-30000324D0001931D0002400007775       GGSL
NJARET21080-37321-00777-70000168D0002410D0004400029777       GGSL
NJARET21080-37321-00779-10000396D0003417D0001400009779       GGSL
NJARET21080-37321-00784-50000168D0000487D0002600017784       GGSL
NJARET21080-37321-00786-90000096D0000465D0002900003786       GGSL
NJARET21080-37321-00788-30000012D0000080D0002400002788       GGSL
NJARET21080-37321-00789-00000038D0000266D0061800002789       GGSL
NJARET21080-37321-00802-60000024D0000143D0002900018802       GGSL
NJARET21080-37321-00803-30000060D0000599D0004000012803       GGSL
NJARET21080-37321-00806-40000312D0002585D0003600009806       GGSL
NJARET21080-37321-00807-10000008D0000207D0001000000807       GGSL
NJARET21080-37321-00811-80000372D0004434D0000100001811       GGSL
NJARET21080-37321-00813-20000180D0002513D0000600005813       GGSL
NJARET21080-37321-00814-90000078D0001862D0000600001814       GGSL
NJARET21080-37321-00857-60000012D0000111D0002000001857       GGSL
NJARET21080-37321-00858-30000036D0000548D0001200000858       GGSL
NJARET21080-37321-00862-00000048D0000657D0004100015862       GGSL
NJARET21080-37321-00863-70000234D0003077D0002700003863       GGSL
NJARET21080-37321-00865-10000228D0001317D0001600003865       GGSL
NJARET21080-37321-00866-80000372D0005969D0000100001866       GGSL
NJARET21080-37321-00870-50000072D0000302D0001300000870       GGSL
NJARET21080-37321-00871-20000024D0000215D0001300000871       GGSL
NJARET21080-37321-00875-00000120D0001350D0001000000875       GGSL
NJARET21080-37321-00880-40000084D0001035D0003200001880       GGSL
NJARET21080-37321-00881-10000060D0001131D0000400000881       GGSL
NJARET21080-37321-00883-50000636D0003126D0013100068883       GGSL
NJARET21080-37321-00897-20000396D0002565D0002300010897       GGSL
NJARET21080-37321-00903-00000096D0000647D0001400004903       GGSL
NJARET21080-37321-00904-70000024D0000218D0000300000904       GGSL
NJARET21080-37321-00905-40000048D0000698D0000400002905       GGSL
NJARET21080-37321-00908-50000036D0000382D0000400001908       GGSL
NJARET21080-37321-00909-20000012D0000238D0000800001909       GGSL
NJARET21080-37321-00917-70000030D0000377D0002600000917       GGSL
NJARET21080-37321-00925-20004812D0014695D0028600009925       GGSL
NJARET21080-37321-00939-90000168D0002036D0009600019939       GGSL
NJARET21080-37321-00941-20000240D0002700D0002100008941       GGSL
NJARET21080-37321-00951-10001224D0005558D0009200092951       GGSL
NJARET21080-37321-00978-80000018D0000098D0000100001978       GGSL
NJARET21080-37321-00979-50000005D0000044D0000000000979       GGSL
NJARET21080-37321-00982-50000540D0002534D0011000007982       GGSL
NJARET21080-37321-00983-20000024D0000529D0001500014983       GGSL
NJARET21080-37321-00987-00000072D0000714D0001200000987       GGSL
NJARET21080-37321-00991-70000096D0000665D0001200002991       GGSL
NJARET21080-37321-00992-40000048D0000470D0000200000992       GGSL
NJARET21080-37321-02021-90000282D0004502D00058000012021      GGSL
NJARET21080-37321-02031-80000012D0000383D00018000012031      GGSL
NJARET21080-37321-02061-50000180D0003416D00031000022061      GGSL
NJARET21080-37321-02071-40000018D0000598D00032000022071      GGSL
NJARET21080-37321-02360-90000324D0002404D00012000022360      GGSL
NJARET21080-37321-02361-60000648D0007925D00055000032361      GGSL
NJARET21080-37321-02362-30000088D0001697D00031000122362      GGSL
NJARET21080-37321-02392-00000015D0000510D00002000002392      GGSL
NJARET21080-37321-02405-70000036D0001584D00001000002405      GGSL
NJARET21080-37321-02761-40000006D0000131D00005000002761      GGSL
NJARET21080-37321-03081-20000006D0000125D00022000003081      GGSL
NJARET21080-37321-03082-90000006D0000123D00003000033082      GGSL
NJARET21080-37321-04281-50000012D0000250D00001000004281      GGSL
NJARET21080-37321-05121-30000024D0000150D00003000005121      GGSL
NJARET21080-37321-05712-30000012D0000126D00000000005712      GGSL
NJARET21080-37321-07458-80000012D0000233D00031000007458      GGSL
NJARET21080-37321-07460-10000108D0000764D00007000017460      GGSL
NJARET21080-37321-07461-80000060D0000707D00009000017461      GGSL
NJARET21080-37321-07462-50000028D0000957D00005000017462      GGSL
NJARET21080-37321-07463-20000004D0000380D00000000007463      GGSL
NJARET21080-37321-07464-90000006D0000088D00007000007464      GGSL
NJARET21080-37321-07465-60000008D0000272D00009000007465      GGSL
NJARET21080-37321-07466-30000006D0000459D00022000007466      GGSL
NJARET21080-37321-07468-70000348D0003630D00003000037468      GGSL
NJARET21080-37321-07490-80000588D0003729D00402000977490      GGSL
NJARET21080-37321-07492-20000032D0000647D00015000007492      GGSL
NJARET21080-37321-07497-70000084D0000389D00004000007497      GGSL
NJARET21080-37321-07498-40000036D0000415D00020000007498      GGSL
NJARET21080-37321-08636-90000084D0001042D00014000008636      GGSL
NJARET21080-37321-08941-40000004D0000105D00003000008941      GGSL
NJARET21080-37321-09534-70000132D0001595D00000000009534      GGSL
NJARET21080-37321-45100-60000156D0000728D000120000345100     GGSL
NJARET21080-37321-45672-80000024D0000143D000000000045672     GGSL
NJARET21080-37321-45702-20000024D0000153D000010000045702     GGSL
NJARET21080-37321-46125-80000010D0000021D000010000046125     GGSL
NJARET21080-37321-46126-50000200D0000034D000070000046126     GGSL
NJARET21080-37321-46190-60000480D0001402D000030000046190     GGSL
NJARET21080-37321-47062-50000336D0000237D000190000047062     GGSL
NJARET21080-37321-60207-10000005D0000269D000090000260207     GGSL
NJARET21080-37321-60214-90000005D0000111D000190000060215     GGSL
NJARET21080-37321-60224-80000055D0001186D000050000060225     GGSL
NJARET21080-37321-60227-90000005D0000269D000020000260227     GGSL
NJARET21080-37321-60251-40000010D0000089D000060000060252     GGSL
NJARET21080-37321-60257-60000002D0000114D000060000060257     GGSL
NJARET21080-37321-60318-40000015D0000425D000850000060318     GGSL
NJARET21080-37321-60365-80000025D0000764D001300000060365     GGSL
NJARET21080-37321-60414-30000032D0001166D000430000360414     GGSL
NJARET21080-37321-60440-20000050D0000565D003650000060440     GGSL
NJARET21080-37321-60444-00000015D0000426D001100006060444     GGSL
NJARET21080-37321-60447-10000002D0000026D000570000060448X    GGSL
NJARET21080-37321-60454-90000065D0000992D002020001060454     GGSL
NJARET21080-37321-60464-80000033D0000968D000010000060464     GGSL
NJARET21080-37321-60476-10000008D0000133D000180000060476     GGSL
NJARET21080-37321-60476-10000050D0000631D005830000060478X    GGSL
NJARET21080-37321-60490-70000044D0000745D001820001360490     GGSL
NJARET21080-37321-60613-00000009D0000059D000420001660614X    GGSL
NJARET21080-37321-60725-00000009D0000068D000240000060725     GGSL
NJARET21080-37321-60728-10000009D0000117D019220000060728     GGSL
NJARET21080-37321-61118-90000012D0000135D000030000061120     GGSL
NJARET21080-37321-61119-60000012D0000199D000100000161121     GGSL
NJARET21080-38313-00008-00000042D0000863D0004400001BP3130    GGSL
NJARET21080-38313-00060-80000006D0000113D0000600000 BP3160   GGSL
NJARET21080-38313-00060-80000168D0003535D0004200001BP3160    GGSL
NJARET21080-38313-00080-60000066D0001458D0005400001BP3180D   GGSL
NJARET21080-38313-00081-30000024D0000250D0004000000AC7220    GGSL
NJARET21080-38313-00217-60000024D0000494D0002400000FS4350    GGSL
NJARET21080-38313-00407-10000030D0000561D0003100001RS7041    GGSL
NJARET21080-38313-00413-20000002D0000035D0004600000 RS7120   GGSL
NJARET21080-38313-00524-50000030D0000802D0001600000SL3310    GGSL
NJARET21080-38313-01010-20000336D0001855D0004900010CT3010    GGSL
NJARET21080-38313-01020-10000090D0000497D0012700005CT3020    GGSL
NJARET21080-38313-01030-00000018D0000099D0009000004CT3030    GGSL
NJARET21080-38313-03214-20000132D0001509D0003700004BP3214D   GGSL
NJARET21080-38313-03710-90000060D0000419D0005000000CT3710    GGSL
NJARET21080-38313-03720-80000030D0000210D0002700000CT3720    GGSL
NJARET21080-38313-03730-70000030D0000210D0007600001CT3730    GGSL
NJARET21080-38313-03740-60000018D0000126D0008100001CT3740    GGSL
NJARET21080-38313-03750-50000024D0000168D0005100000CT3750    GGSL
NJARET21080-38313-04436-70000007D0000153D0000000002 FL3460   GGSL
NJARET21080-38313-04436-70000024D0000731D0002500001FL3460    GGSL
NJARET21080-38313-04438-10000006D0000148D0000000003 FL3420   GGSL
NJARET21080-38313-04438-10000024D0000796D0002300000FL3420    GGSL
NJARET21080-38313-06830-10000006D0000474D0000400004 TP6830   GGSL
NJARET21080-38313-07245-20000006D0000116D0002300000RS7245    GGSL
NJARET21080-38313-07395-40000012D0000243D0000200000 RS7395   GGSL
NJARET21080-38313-24003-50000012D0000166D0000000000RK24003   GGSL
NJARET21080-38313-32340-00000016D0000123D0000200002CT3234    GGSL
NJARET21080-38313-53841-50000020D0001186D0000400000TP3841    GGSL
NJARET21080-38313-63460-50000006D0000143D0001300000LR3460    GGSL
NJARET21080-38313-63760-60000042D0000518D0001900000GS3760    GGSL
NJARET21080-38313-64250-10000120D0002753D0002400000BP4250    GGSL
NJARET21080-38313-83911-60000066D0001957D0000000000HS3911    GGSL
NJARET21080-38858-05354-10000002D0000032D0000400000790902902 GGSL
NJARET21080-38858-05653-50000006D0000068D000080000037550609  GGSL
NJARET21080-38858-05657-30000006D0000039D000050000037590609  GGSL
NJARET21080-38858-06771-50000008D0000167D000010000037770409  GGSL
NJARET21080-38858-06933-70000024D0000046D000030000196501200  GGSL
NJARET21080-38858-06935-10000012D0000018D000040000096701200  GGSL
NJARET21080-38858-06936-80000012D0000077D000080000096801200  GGSL
NJARET21080-38858-07459-10000006D0000045D000100000035120609  GGSL
NJARET21080-38858-07792-90000024D0000117D000040000067152400  GGSL
NJARET21080-38858-10457-10000008D0000073D00002000007985049180GGSL
NJARET21080-38858-10816-60000006D0000026D00000000009685064502GGSL
NJARET21080-38858-10973-60000008D0000249D0000000000140001070 GGSL
NJARET21080-38858-10974-30000024D0000067D0000000000140112070 GGSL
NJARET21080-38858-10979-80000012D0000034D00010000011406121080GGSL
NJARET21080-38858-10980-40000010D0000090D00000000001407101080GGSL
NJARET21080-38858-10984-20000020D0000181D00002000011407101081GGSL
NJARET21080-38858-10987-30000036D0000116D00010000021406121082GGSL
NJARET21080-38858-10988-00000010D0000090D00002000001407101082GGSL
NJARET21080-38858-11008-40000001D0000052D00008000001410011082GGSL
NJARET21080-38858-11023-70000024D0000066D00002000001425121087GGSL
NJARET21080-38858-11292-70000024D0000332D0001500000127112070 GGSL
NJARET21080-38858-11299-60000006D0000035D0001000000129006080 GGSL
NJARET21080-38858-11300-90000006D0000049D0000900000129106080 GGSL
NJARET21080-38858-11307-80000006D0000041D0001000002131006070 GGSL
NJARET21080-38858-11309-20000002D0000106D0000300000127702070 GGSL
NJARET21080-38858-11315-30000012D0000060D0000300000125512070 GGSL
NJARET21080-38858-12006-90000006D0000026D000010000075006437  GGSL
NJARET21080-38858-13576-60000012D0000088D0000100000671812769 GGSL
NJARET21080-38858-13584-10000012D0000050D000090000296850609  GGSL
NJARET21080-38858-13586-50000006D0000026D0000300003968506579 GGSL
NJARET21080-38858-13587-20000024D0000105D0000500000968506426 GGSL
NJARET21080-38858-13588-90000006D0000026D0000100001968506425 GGSL
NJARET21080-38858-13601-50000006D0000047D00014000007980069180GGSL
NJARET21080-38858-14005-00000006D0000056D0000300000126106070 GGSL
NJARET21080-38858-60597-90000010D0000092D000040000096521000  GGSL
NJARET21080-38858-60623-50000108D0000537D0000200000129236070 GGSL
NJARET21080-38858-60637-20000006D0000059D0000300000124006070 GGSL
NJARET21080-38858-60641-90000006D0000059D0000000000124206070 GGSL
NJARET21080-38902-10120-40000012D0000067D0003400001123184    GGSL
NJARET21080-39044-15624-40000012D0000078D000010000115624     GGSL
NJARET21080-39044-15720-30000009D0000153D000020000015720     GGSL
NJARET21080-39526-38165-20000240D0007532D00056000023201C503  GGSL
NJARET21080-39526-38169-00000160D0002656D00074000043201C502  GGSL
NJARET21080-39526-38177-50000060D0000490D00049000023201C501  GGSL
NJARET21080-39526-38178-20000011D0000969D00021000103201L162  GGSL
NJARET21080-39526-38250-50000006D0000698D00032000003201L150  GGSL
NJARET21080-39526-38571-10000011D0002036D00049000243201C115  GGSL
NJARET21080-39526-38988-70000002D0000754D00059000003201C041  GGSL
NJARET21080-39526-45010-50000080D0001686D00042000013201C541  GGSL
NJARET21080-40232-01324-90000006D0001096D0000200000 01321    GGSL
NJARET21080-40232-01325-60000012D0000320D0000500001 01322    GGSL
NJARET21080-40235-75032-50000006D0000031D00029000001Q30S6P   GGSL
NJARET21080-40235-75128-50000036D0000295D00030000001G30S     GGSL
NJARET21080-40235-75256-50000014D0000268D000030000025G30S    GGSL
NJARET21080-40235-75384-50000004D0000074D00025000001GSAWA    GGSL
NJARET21080-40235-75400-20000030D0000512D000000000030SS      GGSL
NJARET21080-41294-00007-90000012D0000009D000580000000007     GGSL
NJARET21080-41333-00149-40001248D0004484D002970000003661     GGSL
NJARET21080-41333-00151-70000320D0001133D003240000004161     GGSL
NJARET21080-41333-00213-20005172D0060009D001900000000232     GGSL
NJARET21080-41333-00276-70000048D0000512D000030000000073     GGSL
NJARET21080-41333-00278-10000108D0001151D000020000066122     GGSL
NJARET21080-41333-00279-80000036D0000240D000300000066124     GGSL
NJARET21080-41333-00281-10000216D0002303D000080000066125     GGSL
NJARET21080-41333-00406-80001692D0001911D001610000066150     GGSL
NJARET21080-41333-01310-70000324D0002537D000160000066203     GGSL
NJARET21080-41333-01548-40000072D0000990D000500000001548     GGSL
NJARET21080-41333-03255-90000240D0000764D000580000003255     GGSL
NJARET21080-41333-03256-60000528D0001965D001060000003256     GGSL
NJARET21080-41333-03257-30000384D0002136D000680000003257     GGSL
NJARET21080-41333-03258-00001248D0009254D000000000003258     GGSL
NJARET21080-41333-03263-40000240D0000764D001540000003263     GGSL
NJARET21080-41333-03264-10000072D0000420D000100000003264     GGSL
NJARET21080-41333-03265-80000192D0001043D001080000003265     GGSL
NJARET21080-41333-03266-50000816D0005657D002010000003266     GGSL
NJARET21080-41333-03575-80000756D0010206D001910000003575     GGSL
NJARET21080-41333-04864-20000144D0001143D000400000004964     GGSL
NJARET21080-41333-09006-10000222D0001666D000830000009006     GGSL
NJARET21080-41333-10110-10000036D0000031D003710000066175     GGSL
NJARET21080-41333-10210-80000216D0000136D000460000003544     GGSL
NJARET21080-41333-10310-50002232D0001942D002440000203545     GGSL
NJARET21080-41333-10709-70000036D0000017D000330000066134     GGSL
NJARET21080-41333-11009-70000036D0000024D000310000066127     GGSL
NJARET21080-41333-11210-70000216D0000670D000510000066191     GGSL
NJARET21080-41333-11609-90000036D0000040D000880000011609     GGSL
NJARET21080-41333-11809-30000036D0000014D000000000066139     GGSL
NJARET21080-41333-13009-50000144D0000107D000730000066128     GGSL
NJARET21080-41333-13009-50000001D0000001D000350000066128X    GGSL
NJARET21080-41333-14809-00000036D0000014D000440000066140     GGSL
NJARET21080-41333-15909-60000036D0000017D000370000066142     GGSL
NJARET21080-41333-16210-20000036D0000031D000320000066171     GGSL
NJARET21080-41333-16909-50000036D0000019D000160000066143     GGSL
NJARET21080-41333-17064-00000200D0001550D000880000217064     GGSL
NJARET21080-41333-17709-00000072D0000037D001090000017709     GGSL
NJARET21080-41333-21210-40001476D0008946D003690000066192     GGSL
NJARET21080-41333-21601-00013632D0065941D000740000003961     GGSL
NJARET21080-41333-22805-10000036D0000084D000320000066154     GGSL
NJARET21080-41333-27035-70008604D0108338D001100000000057     GGSL
NJARET21080-41333-27035-70003312D0032160D000060000000061     GGSL
NJARET21080-41333-43001-00007788D0038290D000540000203361     GGSL
NJARET21080-41333-44001-90007308D0037972D001370000213848     GGSL
NJARET21080-41333-66105-60000040D0000621D000900000066105     GGSL
NJARET21080-41333-66112-40000112D0001417D002960000066112     GGSL
NJARET21080-41333-66155-10000096D0000856D001300000066155     GGSL
NJARET21080-41333-66160-50000048D0000450D001940000166160     GGSL
NJARET21080-41333-66275-60000036D0000060D000260000066200     GGSL
NJARET21080-41333-66287-90000288D0000588D002010000166287     GGSL
NJARET21080-41333-66287-90000001D0000001D000320000066287X    GGSL
NJARET21080-41333-66385-20001080D0001354D002920000066385     GGSL
NJARET21080-41333-66387-60001728D0002172D000260000003535     GGSL
NJARET21080-41333-66388-30006336D0007510D002470000003534     GGSL
NJARET21080-41333-66391-30002268D0005478D001290000066391     GGSL
NJARET21080-41333-67448-30000828D0001333D001110000067448     GGSL
NJARET21080-41333-70464-70005316D0043707D001600000070464     GGSL
NJARET21080-41333-70464-70002904D0026053D002170001192948     GGSL
NJARET21080-41333-74064-50005720D0049479D000920000003831     GGSL
NJARET21080-41333-74064-50000312D0003583D005170000093148     GGSL
NJARET21080-41333-75864-00000096D0001320D001570000001348     GGSL
NJARET21080-41333-81848-10000048D0000435D000220000082048     GGSL
NJARET21080-41333-82501-40016896D0076720D000700000003761     GGSL
NJARET21080-41333-82648-60000120D0001087D000120000082848     GGSL
NJARET21080-41333-82701-80000036D0000451D004930000077364     GGSL
NJARET21080-41333-83448-10000312D0002827D000010000083648     GGSL
NJARET21080-41333-84248-60000096D0000870D000120000084448     GGSL
NJARET21080-41333-84401-50008600D0040572D000600000004261     GGSL
NJARET21080-41333-88301-40000012D0000132D000860000176964     GGSL
NJARET21080-41333-93364-10000180D0002244D000430000019235     GGSL
NJARET21080-41333-93464-80000024D0000300D000560000019435     GGSL
NJARET21080-41333-93564-50000024D0000264D000490000293564     GGSL
NJARET21080-41525-01301-40000013D0000245D01687016874152501301GGSL
NJARET21080-42206-00395-90000010D0000029D0004300000395S      GGSL
NJARET21080-42206-00480-20000020D0000149D0003700000480       GGSL
NJARET21080-42206-00511-30000006D0000051D0000400000511       GGSL
NJARET21080-42206-03900-20000006D0000142D00034000003900H     GGSL
NJARET21080-42206-09000-30000050D0000367D00053000019000      GGSL
NJARET21080-42206-09001-00000040D0000223D00041000009001      GGSL
NJARET21080-42206-09620-30000004D0000132D000010000096208     GGSL
NJARET21080-42206-14057-90000036D0000474D00020000009535C     GGSL
NJARET21080-42206-14200-90000030D0000163D0023200000312S      GGSL
NJARET21080-42206-14328-00000120D0000095D0005200000200C      GGSL
NJARET21080-42206-14503-10000040D0000061D00059000002FMC      GGSL
NJARET21080-42206-14504-80000030D0000047D00088000002MMC      GGSL
NJARET21080-42206-14506-20000030D0000062D000500000002MC      GGSL
NJARET21080-42206-14551-20000010D0000088D0003600000493C      GGSL
NJARET21080-42206-14572-70000010D0000051D0004400000ZBF34     GGSL
NJARET21080-42206-14599-40000018D0000292D00041000009536CH    GGSL
NJARET21080-42206-14656-40000020D0000044D000170000011MQC     GGSL
NJARET21080-42206-15534-40000001D0000252D000000000015534     GGSL
NJARET21080-42206-22300-50000006D0000086D000180000022300     GGSL
NJARET21080-42206-28639-00000018D0000237D0000300000R8639     GGSL
NJARET21080-42206-29550-70000012D0000142D00026000009550DP    GGSL
NJARET21080-42206-30200-70000070D0000478D0001400001XT200     GGSL
NJARET21080-42206-30201-40000020D0000221D0004600000XT201     GGSL
NJARET21080-42206-40260-80000012D0000123D000470000120260     GGSL
NJARET21080-42206-40301-80000010D0000117D0001500000XT301     GGSL
NJARET21080-42206-40360-50000030D0001012D0003000000XT360M    GGSL
NJARET21080-42206-44000-60000006D0000099D0004400000XT4000    GGSL
NJARET21080-42206-44200-00000012D0000269D0004100000XT4200    GGSL
NJARET21080-42206-63015-50000064D0002262D000310000163015     GGSL
NJARET21080-42206-63100-80000044D0002106D000150000163100     GGSL
NJARET21080-42206-63280-70000004D0000302D000110000063280     GGSL
NJARET21080-42206-95501-20000024D0000143D00042000009550C     GGSL
NJARET21080-42338-01102-00000048D0000274D00003000001102      GGSL
NJARET21080-42338-01776-30000002D0000077D00002000001776      GGSL
NJARET21080-42338-02122-70000008D0000077D00005000002122B     GGSL
NJARET21080-42338-02173-90000002D0000094D00004000042173W     GGSL
NJARET21080-42338-02521-80000004D0000072D00005000032521P     GGSL
NJARET21080-42338-03667-20000012D0000137D00000000003667      GGSL
NJARET21080-42338-03715-00000003D0000050D00005000003715      GGSL
NJARET21080-42338-03716-70000003D0000050D00025000003716      GGSL
NJARET21080-42338-03733-40000006D0000101D00006000003733      GGSL
NJARET21080-42338-03780-80000004D0000134D00001000003780      GGSL
NJARET21080-42338-04061-70000014D0000428D00011000034061      GGSL
NJARET21080-42338-04201-70000008D0000115D00003000014201      GGSL
NJARET21080-42338-04278-90000004D0000082D00001000014278W     GGSL
NJARET21080-42338-04346-50000004D0000163D00008000014346W     GGSL
NJARET21080-42338-04353-30000006D0000238D00005000014353W     GGSL
NJARET21080-42338-04579-70000012D0000088D00000000004579      GGSL
NJARET21080-42338-04728-90000002D0000072D00000000004728W     GGSL
NJARET21080-42338-04738-80000002D0000072D00002000004738W     GGSL
NJARET21080-42338-04902-30000002D0000029D00002000004902      GGSL
NJARET21080-42338-06256-50000006D0000017D00001000006256      GGSL
NJARET21080-42338-06285-50000012D0000060D00000000006285      GGSL
NJARET21080-42338-06286-20000006D0000060D00000000006286      GGSL
NJARET21080-42338-06288-60000012D0000094D00001000006288      GGSL
NJARET21080-42338-08102-30000010D0000207D00019000018102      GGSL
NJARET21080-42338-08104-70000016D0000323D00027000028104      GGSL
NJARET21080-42338-08106-10000002D0000038D00001000008106      GGSL
NJARET21080-42338-08128-30000004D0000073D00000000008128      GGSL
NJARET21080-42338-08140-50000002D0000050D00118000008140      GGSL
NJARET21080-42338-08142-90000002D0000050D00143000018142      GGSL
NJARET21080-42338-08191-70000020D0000397D00038000028191      GGSL
NJARET21080-42338-08199-30000002D0000077D00014000038199      GGSL
NJARET21080-42338-08201-30000010D0000204D00000000008201      GGSL
NJARET21080-42338-08210-50000002D0000058D00004000028210      GGSL
NJARET21080-42338-08220-40000002D0000068D00004000008220      GGSL
NJARET21080-42338-08234-10000002D0000077D00008000018234      GGSL
NJARET21080-42338-08242-60000004D0000134D00006000018242      GGSL
NJARET21080-42338-08243-30000006D0000192D00001000008243      GGSL
NJARET21080-42338-08250-10000002D0000058D00002000008250      GGSL
NJARET21080-42338-08269-30000002D0000058D00001000018269      GGSL
NJARET21080-42338-08270-90000004D0000134D00002000008270      GGSL
NJARET21080-42338-08271-60000002D0000058D00000000008271      GGSL
NJARET21080-42338-08307-20000012D0000202D00035000018307      GGSL
NJARET21080-42338-08760-50000002D0000034D00001000018760      GGSL
NJARET21080-42338-08814-50000036D0000302D0000000000BPQDS     GGSL
NJARET21080-42338-09128-20000004D0000048D00003000019128      GGSL
NJARET21080-42338-09132-90000010D0000384D00001000009132      GGSL
NJARET21080-42338-09134-30000008D0000120D00005000029134      GGSL
NJARET21080-42338-12122-40000008D0000077D00002000002122F     GGSL
NJARET21080-42338-14216-80000144D0000215D00001000014216MD    GGSL
NJARET21080-42338-14217-50000048D0000115D00000000004217S     GGSL
NJARET21080-42338-14219-90000096D0000230D00001000014219S     GGSL
NJARET21080-42338-14221-20000072D0000259D00001000004221S     GGSL
NJARET21080-42338-18815-90000002D0000041D00004000008815      GGSL
NJARET21080-42338-22122-10000008D0000077D00006000002122S     GGSL
NJARET21080-42338-24355-10000004D0000144D00005000004355BP    GGSL
NJARET21080-42338-24417-60000016D0000077D00001000004417C     GGSL
NJARET21080-42338-24478-70000004D0000082D00001000004478P     GGSL
NJARET21080-42338-42179-90000144D0000691D000030000142179     GGSL
NJARET21080-42338-81002-90000012D0000101D000000000010GL      GGSL
NJARET21080-42338-93100-70000024D0000069D000050000293100     GGSL
NJARET21080-42351-43340-30000004D0000087D0001100000FB33100   GGSL
NJARET21080-42351-43370-00000004D0000124D0001100000FB5550    GGSL
NJARET21080-42351-45130-80000048D0000167D0002000000NH350     GGSL
NJARET21080-42351-45140-70000012D0000076D0001500001NH3100    GGSL
NJARET21080-42351-45200-80000012D0000098D0002000001EG50      GGSL
NJARET21080-42351-45460-60000012D0000060D0002900000LE420G    GGSL
NJARET21080-42351-45470-50000006D0000050D0002300000LE440G    GGSL
NJARET21080-42351-45530-60000006D0000072D0001900000LE640G    GGSL
NJARET21080-42351-45680-80000152D0002058D0001800000LB520B    GGSL
NJARET21080-42351-45690-70000002D0000112D0001500000LB5100B   GGSL
NJARET21080-42351-47110-80000048D0000209D0006700013RC        GGSL
NJARET21080-42351-52370-80000016D0000235D00053000004CH15B    GGSL
NJARET21080-42351-54250-10000001D0000242D0000000000CHA3      GGSL
NJARET21080-42351-54460-40000001D0000250D0000500000CHA3B     GGSL
NJARET21080-42351-64660-50000100D0003993D0000000000PS4X10BL  GGSL
NJARET21080-42579-11500-60000018D0000743D0002500000APB5      GGSL
NJARET21080-42579-12346-90000024D0000053D0000000000TW3W      GGSL
NJARET21080-42579-12348-30000864D0001358D0002500004APRC      GGSL
NJARET21080-42579-12349-00000084D0000551D0007300000RS15      GGSL
NJARET21080-42579-12350-60000028D0000689D000410000020YR350   GGSL
NJARET21080-42579-13250-80000001D0000116D0009300000P3        GGSL
NJARET21080-42579-14250-70000002D0000310D0004200000P4        GGSL
NJARET21080-42579-15250-60000001D0000194D0001000000P5        GGSL
NJARET21080-42579-16250-50000004D0000930D0006100042P6        GGSL
NJARET21080-42579-22350-30000416D0003540D00118000066YR350    GGSL
NJARET21080-42579-23100-30000192D0002878D00037000016YR3100   GGSL
NJARET21080-42579-23250-50000002D0000213D000270000020YR3250  GGSL
NJARET21080-42579-24250-40000013D0001820D000220000120YR4250  GGSL
NJARET21080-42579-26250-20000005D0001011D000120000120YR6250  GGSL
NJARET21080-42579-28250-00000003D0000852D000100000020YR8250  GGSL
NJARET21080-42579-32500-90000036D0001607D00013000096YR3300   GGSL
NJARET21080-42579-32501-60000007D0000413D00057000006YR4300   GGSL
NJARET21080-42579-32502-30000006D0000526D00007000046YR6300   GGSL
NJARET21080-42579-43004-80000014D0001369D0002800010NB4       GGSL
NJARET21080-42579-43240-00000060D0000535D0000700002NB324     GGSL
NJARET21080-42579-43480-00000228D0003273D0000100001NB348     GGSL
NJARET21080-42579-63306-70000108D0000635D00027000003YR350    GGSL
NJARET21080-42579-63354-80000015D0001599D000410000012YR4300  GGSL
NJARET21080-42579-63376-00000017D0002821D000020000012YR6300  GGSL
NJARET21080-42579-81276-90000090D0001416D000210000012YR350   GGSL
NJARET21080-42579-81343-80000016D0000498D000450000012YR3100  GGSL
NJARET21080-42579-81383-40000003D0000474D0001400000AP10210   GGSL
NJARET21080-42579-81405-30000001D0000010D0004900000AP75      GGSL
NJARET21080-42579-81429-90000044D0000887D0001600000DDF7100PC GGSL
NJARET21080-42579-81573-90000002D0000321D0001700000SBLT6300  GGSL
NJARET21080-42579-81605-70000004D0000256D0007100000PROBLK3300GGSL
NJARET21080-42579-81606-40000012D0001335D0006100000PROBLK4300GGSL
NJARET21080-42579-81607-10000002D0000332D0002200000PROBLK6300GGSL
NJARET21080-42579-81619-40000008D0000373D0005300000APB1      GGSL
NJARET21080-42579-81624-80000234D0003637D0004700000PROBLK350 GGSL
