TXBWIC21080-00402-00000-00000748D0039800D0342400125          GGSL
TXBWIC21080-00402-01012-60000053D0007073D00459000331012      GGSL
TXBWIC21080-00402-01014-00000245D0025158D01384000621014      GGSL
TXBWIC21080-00402-02117-70000075D0000343D0000000000B117      GGSL
TXBWIC21080-00402-02419-20000014D0000322D000180000110XS-20   GGSL
TXBWIC21080-00402-02699-50000220D0000243D001600006010XS-20B  GGSL
TXBWIC21080-00402-02750-60000050D0000233D0042500125B75       GGSL
TXBWIC21080-00402-05418-20000125D0000399D00425000005418      GGSL
TXBWIC21080-00402-10142-80000064D0006422D010780003010145B    GGSL
TXBWIC21080-00402-10147-30000012D0001110D00058000001014 G    GGSL
TXBWIC21080-00402-11730-60000050D0000218D004750002511730     GGSL
TXBWIC21080-00402-14411-10002411C0000218C0012800000144SSBK   GGSL
TXBWIC21080-00402-21012-00000029D0004221D00016000001012B     GGSL
TXBWIC21080-00402-33117-70000175D0000060D0107500000PC11-7    GGSL
TXBWIC21080-00402-33354-60000725D0000100D0280000200PC5-4     GGSL
TXBWIC21080-00402-33375-10000800D0000156D0097500425PC7-5     GGSL
TXBWIC21080-00402-41819-90000048D0000463D000680001814TRS     GGSL
TXBWIC21080-00402-91012-90000010D0001219D00000000001012 BK   GGSL
TXBWIC21080-00772-00271-40000024D0000314D0000000000271       GGSL
TXBWIC21080-00772-00511-10000024D0000314D0000000000511       GGSL
TXBWIC21080-00772-00513-50000004D0000052D0000000000513       GGSL
TXBWIC21080-00772-03954-30000006D0000071D00000000003954      GGSL
TXBWIC21080-00772-04074-70000006D0000079D00000000004074      GGSL
TXBWIC21080-00772-04265-90000002D0000036D00000000004265      GGSL
TXBWIC21080-00772-04282-60000002D0000024D00000000004282      GGSL
TXBWIC21080-00772-05357-00000001D0000022D00000000005357      GGSL
TXBWIC21080-00772-05358-70000001D0000022D00000000005358      GGSL
TXBWIC21080-00772-06030-10000006D0000043D00000000006030      GGSL
TXBWIC21080-00772-06060-80000012D0000058D00000000006060      GGSL
TXBWIC21080-00772-06062-20000012D0000058D00000000006062      GGSL
TXBWIC21080-00772-06090-50000001D0000029D00000000006090      GGSL
TXBWIC21080-00772-06092-90000002D0000043D00000000006092      GGSL
TXBWIC21080-00772-06093-60000002D0000043D00000000006093      GGSL
TXBWIC21080-00772-06181-00000014D0000208D00000000006181      GGSL
TXBWIC21080-00772-06346-30000012D0000092D00000000006346      GGSL
TXBWIC21080-00772-06424-80000006D0000043D00000000006424      GGSL
TXBWIC21080-00772-06425-50000006D0000050D00000000006425      GGSL
TXBWIC21080-00772-06431-60000006D0000060D00000000006431      GGSL
TXBWIC21080-00772-06434-70000006D0000060D00000000006434      GGSL
TXBWIC21080-00772-06435-40000006D0000050D00000000006435      GGSL
TXBWIC21080-00772-06658-70000006D0000060D00000000006658      GGSL
TXBWIC21080-00772-06669-30000006D0000054D00000000006669      GGSL
TXBWIC21080-00772-06683-90000006D0000054D00000000006683      GGSL
TXBWIC21080-00772-06685-30000015D0000178D00000000006685      GGSL
TXBWIC21080-00772-06693-80000006D0000097D00000000006693      GGSL
TXBWIC21080-00772-06694-50000003D0000048D00000000006694      GGSL
TXBWIC21080-00772-06697-60000003D0000062D00000000006697      GGSL
TXBWIC21080-00772-06703-40000003D0000129D00000000006703      GGSL
TXBWIC21080-00772-06704-10000001D0000043D00000000006704      GGSL
TXBWIC21080-00772-06705-80000012D0000065D00000000006705      GGSL
TXBWIC21080-00772-06709-60000006D0000043D00000000006709      GGSL
TXBWIC21080-00772-06712-60000006D0000046D00000000006712      GGSL
TXBWIC21080-00772-06714-00000001D0000071D00000000006714      GGSL
TXBWIC21080-00772-06723-20000001D0000046D00000000006723      GGSL
TXBWIC21080-00772-06740-90000006D0000032D00000000006740      GGSL
TXBWIC21080-00772-06744-70000004D0000083D00000000006744      GGSL
TXBWIC21080-00772-06753-90000001D0000022D00000000006753      GGSL
TXBWIC21080-00772-06754-60000001D0000022D00000000006754      GGSL
TXBWIC21080-00772-09168-80000004D0000064D00000000009168      GGSL
TXBWIC21080-00772-09840-30000002D0000030D00000000009840      GGSL
TXBWIC21080-10367-00110-70000834D0005190D0159600720110       GGSL
TXBWIC21080-10367-00130-50000027D0001337D0001500023130.0     GGSL
TXBWIC21080-10367-00150-30000020D0000517D0000200096150.0     GGSL
TXBWIC21080-10367-00460-30000008D0000045D0012800000ML0460 8  GGSL
TXBWIC21080-10367-00530-30000001D0000036D0000200002530.0     GGSL
TXBWIC21080-10367-00810-60000012D0000054D0000000036ML0810    GGSL
TXBWIC21080-10367-01000-00000012D0000119D0000000000ML1000    GGSL
TXBWIC21080-10367-01010-90000024D0000299D0000000000ML1010    GGSL
TXBWIC21080-10367-01020-80000012D0000148D0000000000ML1020    GGSL
TXBWIC21080-10367-01050-50000012D0000112D0000000000ML1050    GGSL
TXBWIC21080-10367-01110-60000032D0000083D00008000001110      GGSL
TXBWIC21080-10367-01111-30000024D0000063D00128000001111.0    GGSL
TXBWIC21080-10367-01112-00000040D0000104D00024000001112.0    GGSL
TXBWIC21080-10367-01120-50000048D0000112D00240000241120.0    GGSL
TXBWIC21080-10367-01162-50000016D0000116D00000000001162.0    GGSL
TXBWIC21080-10367-03010-70000050C0000116C0008000000ML3010    GGSL
TXBWIC21080-11247-00250-40000064D0002491D000620000000640     GGSL
TXBWIC21080-11247-00911-40000010D0000492D000000000100911     GGSL
TXBWIC21080-11247-00913-80000004D0000341D000000000200913     GGSL
TXBWIC21080-11247-01050-90000002D0000032D001420000001050     GGSL
TXBWIC21080-11247-01541-20000029D0001168D000470000001541     GGSL
TXBWIC21080-11247-02308-00000002D0000159D000010000102301     GGSL
TXBWIC21080-11247-02450-60000001D0000054D000000000102450     GGSL
TXBWIC21080-11247-03111-50000086D0002630D000300000003111     GGSL
TXBWIC21080-11247-04525-90000241D0006011D001580000004525     GGSL
TXBWIC21080-11247-04955-40000001D0000453D000000000004955     GGSL
TXBWIC21080-11247-05350-60000006D0000310D000340000005350     GGSL
TXBWIC21080-11247-05450-30000052D0002317D001660000205450     GGSL
TXBWIC21080-11247-13010-80000024D0000092D000900001213010     GGSL
TXBWIC21080-11247-14024-40000012D0000075D000000001214024     GGSL
TXBWIC21080-11247-16004-20000036D0000246D001680000016004     GGSL
TXBWIC21080-11247-25004-20000006D0000046D000000000025004     GGSL
TXBWIC21080-11247-30004-40000174D0001290D001680004830004     GGSL
TXBWIC21080-11247-52829-50000036D0000413D000600000052829     GGSL
TXBWIC21080-11247-52830-10000002D0000103D000030000052830     GGSL
TXBWIC21080-11247-52833-20000006D0000038D000000000052833     GGSL
TXBWIC21080-11247-52851-60000004D0000096D000000000052851     GGSL
TXBWIC21080-11247-52863-90000012D0000210D000000000052863     GGSL
TXBWIC21080-11247-52882-00000006D0000051D000000000052882     GGSL
TXBWIC21080-11247-52888-20000150D0000885D002100000652888     GGSL
TXBWIC21080-11247-52889-90000175D0002743D002380001452889     GGSL
TXBWIC21080-11247-60116-50000074D0000833D001000000060116     GGSL
TXBWIC21080-11247-61008-20000024D0000092D000000000061008     GGSL
TXBWIC21080-11247-61024-20000297D0002019D002940024061024     GGSL
TXBWIC21080-11247-71016-40000012D0000107D000000000071001     GGSL
TXBWIC21080-11247-90001-50000012D0000063D000360001290001     GGSL
TXBWIC21080-11247-90128-90000028D0000305D000360000490128     GGSL
TXBWIC21080-11423-00338-70000084D0000464D0040800060HG-33801  GGSL
TXBWIC21080-11423-94108-50000069D0000713D0009000027HG-94108  GGSL
TXBWIC21080-11423-94127-60000768D0003345D0023500000HG-64127  GGSL
TXBWIC21080-14021-01412-00000002D0000250D00000000001024      GGSL
TXBWIC21080-15966-49430-10000017D0000264D000270000349 00 430 GGSL
TXBWIC21080-16069-00007-30000015D0000097D0009900000BN-1      GGSL
TXBWIC21080-16069-00008-00000090D0000536D0041400132BN-2      GGSL
TXBWIC21080-16069-00013-40000024D0000604D0008000000BN-3      GGSL
TXBWIC21080-16069-00014-10000006D0000021D0006000000BN-4      GGSL
TXBWIC21080-16069-00015-80000008D0000209D0003400000BN-5      GGSL
TXBWIC21080-16069-00030-10000052D0000591D0005600000OW-6      GGSL
TXBWIC21080-16069-00049-30000014D0000243D0006000000DX-7      GGSL
TXBWIC21080-16069-00549-80000724C0000243C0000900000TN-SFG    GGSL
TXBWIC21080-16069-00667-90000060D0001201D0011200072RHO-4US   GGSL
TXBWIC21080-18506-00000-00000580D0008155D01475001000111-5    GGSL
TXBWIC21080-18506-00010-30000168D0001169D0025200051010-6     GGSL
TXBWIC21080-18506-00021-90000096D0001384D0027900030021-6     GGSL
TXBWIC21080-18506-00102-50000156D0000642D0022200000102-12    GGSL
TXBWIC21080-18506-00110-50001125D0006950D0033300042110-12    GGSL
TXBWIC21080-18506-00116-20000276D0001740D0038900336116-12    GGSL
TXBWIC21080-18506-00117-90000183D0001798D0035700102117-6     GGSL
TXBWIC21080-18506-00125-40000072D0000378D0088800024125       GGSL
TXBWIC21080-18506-00130-80000084D0000483D0037200000130       GGSL
TXBWIC21080-22102-01010-70000009D0000335D000000000010N       GGSL
TXBWIC21080-22102-05211-40000012D0000468D0000000000521G      GGSL
TXBWIC21080-22179-10011-40000012D0000114D0000000000lg 3104   GGSL
TXBWIC21080-22179-10035-00000049D0002519D0008200001LG4110    GGSL
TXBWIC21080-22179-10084-80000024D0000188D0015000042LG7220    GGSL
TXBWIC21080-22179-10090-90000036D0000946D0001200006LG4300    GGSL
TXBWIC21080-22179-10115-90000264D0004246D0008600006lg 5599   GGSL
TXBWIC21080-22179-10124-10000246D0001423D0046800072LG6515    GGSL
TXBWIC21080-22179-10139-50000933D0003921D0018900024LG1130    GGSL
TXBWIC21080-22179-10140-10000016D0001855D0006400000LG6520    GGSL
TXBWIC21080-22179-10150-00000224D0002425D00476002487115      GGSL
TXBWIC21080-22179-10151-70000177D0008517D00179000017117      GGSL
TXBWIC21080-22179-10185-20000144D0001643D0045600024LG6500    GGSL
TXBWIC21080-22179-10246-00000222D0003561D0045600558LG6570    GGSL
TXBWIC21080-22179-10247-70000176D0003912D00566000617122      GGSL
TXBWIC21080-22179-10248-40000180D0001489D0022500000LG6575    GGSL
TXBWIC21080-22179-10257-60000036D0000551D0001200000LG3190    GGSL
TXBWIC21080-22179-10374-00000126D0000766D0000000000lg 6286   GGSL
TXBWIC21080-22179-10375-70000042D0000300D0000000000lg 6299   GGSL
TXBWIC21080-22179-10376-40000008D0000169D0000000000LG6292    GGSL
TXBWIC21080-22179-10390-00000192D0001708D0046800366LG6332    GGSL
TXBWIC21080-22179-10395-50000031D0001004D0006600001LG6356    GGSL
TXBWIC21080-22179-10406-80000024D0001393D0000000000LG 6344   GGSL
TXBWIC21080-22179-10408-20000551D0004322D0000900084LG 6338   GGSL
TXBWIC21080-22179-10429-70000611D0009184D0000000384LG6334    GGSL
TXBWIC21080-22179-10454-90000021D0000205D0032400126lg 3303   GGSL
TXBWIC21080-22179-10458-70000090D0000875D0025800006lg 3234   GGSL
TXBWIC21080-22179-10517-10000006D0000138D0000000006lg 3176   GGSL
TXBWIC21080-22179-10519-50000006D0000097D0000000000lg 6544   GGSL
TXBWIC21080-22179-10520-10000012D0000101D0000600000lg 6542   GGSL
TXBWIC21080-22179-10529-40000040D0000269D0050000090lg 7350   GGSL
TXBWIC21080-22401-00115-80000130D0006419D0030900010MDC-15    GGSL
TXBWIC21080-22401-00301-50000006D0000079D0014100000THD-20    GGSL
TXBWIC21080-22401-00380-10000028D0000378D0064000092NDETC-20MCGGSL
TXBWIC21080-22401-00381-70000016D0000216D0017600072NDETC-2OLBGGSL
TXBWIC21080-22401-10088-20000020D0000594D0013100037EAR-60    GGSL
TXBWIC21080-22401-10089-90000004D0000069D0000000000BBC-20LB  GGSL
TXBWIC21080-23626-00605-80000972D0012125D2376700056116334    GGSL
TXBWIC21080-23626-00615-70001445D0016332D1628300036116336    GGSL
TXBWIC21080-23626-00630-00000421D0005927D0807500056116341    GGSL
TXBWIC21080-23626-00650-80000018D0000068D0054600000000600    GGSL
TXBWIC21080-23626-01710-80000060D0000314D0124200024000800    GGSL
TXBWIC21080-23626-01720-70000132D0000927D0092700000000900    GGSL
TXBWIC21080-23626-02830-20000005D0000225D0001700000116841    GGSL
TXBWIC21080-23883-00001-10000457D0009026D0072700083G362      GGSL
TXBWIC21080-23883-00002-80000189D0000925D0020800006G385      GGSL
TXBWIC21080-23883-00003-50000117D0000585D0076200000G390      GGSL
TXBWIC21080-23883-01002-70000363D0003579D00403000181002      GGSL
TXBWIC21080-23883-01105-50000012D0000039D00079003961105      GGSL
TXBWIC21080-23883-05000-90000022D0000140D00148000005000      GGSL
TXBWIC21080-23883-08620-60000003D0000661D00010000008620B     GGSL
TXBWIC21080-23883-15710-40001479D0018096D169800010815710     GGSL
TXBWIC21080-23883-16100-20000100D0001267D001910001716100MP   GGSL
TXBWIC21080-23883-21210-00000004D0000154D000730000121210XP   GGSL
TXBWIC21080-23883-26011-80000101D0003719D001390000426011XP   GGSL
TXBWIC21080-23883-26021-70000252D0009782D007760000726021XP   GGSL
TXBWIC21080-23883-26031-60000052D0002645D000310000126031XP   GGSL
TXBWIC21080-23883-27010-00000072D0001834D001010000327010     GGSL
TXBWIC21080-23883-27020-90000236D0006355D003220001427020     GGSL
TXBWIC21080-23883-27030-80000056D0001757D001420000527030     GGSL
TXBWIC21080-23883-60100-30000125D0008262D002300000760100     GGSL
TXBWIC21080-23883-61800-10000002D0000183D000270000061800     GGSL
TXBWIC21080-23883-61925-10000003D0000037D00024000006-1925    GGSL
TXBWIC21080-23883-63924-20000018D0003734D000480000463924     GGSL
TXBWIC21080-23883-67749-70000002D0000016D00008000006-7749    GGSL
TXBWIC21080-23883-68060-20000001D0000018D00006000006-8060    GGSL
TXBWIC21080-23883-68061-90000006D0000161D00005000016-8061    GGSL
TXBWIC21080-23883-81000-90000350C0000161C000080000081000A    GGSL
TXBWIC21080-23883-84000-60000001D0000051D00018000138701B     GGSL
TXBWIC21080-23883-84600-80000751C0000051C000100032084700A    GGSL
TXBWIC21080-23883-97361-20000012D0002141D000120000097361     GGSL
TXBWIC21080-23883-97561-60000448C0002141C000010000097561     GGSL
TXBWIC21080-24654-05102-70000006D0000029D00000000125102-6    GGSL
TXBWIC21080-24654-05962-70000018D0000215D00024000305962      GGSL
TXBWIC21080-24654-55025-40000024D0000097D00000000005026      GGSL
TXBWIC21080-24654-55110-70000240D0001227D00245000185110-6    GGSL
TXBWIC21080-24654-55118-30000144D0001027D00589000065118.0    GGSL
TXBWIC21080-26978-30200-70000001D0000021D000000000030200     GGSL
TXBWIC21080-26978-30301-10000297D0001921D002890003630301     GGSL
TXBWIC21080-26978-38148-40000002D0000119D000000000038148     GGSL
TXBWIC21080-26978-39128-50000001D0000042D000000000039128     GGSL
TXBWIC21080-26978-48098-30000012D0000046D000000000048098     GGSL
TXBWIC21080-26978-48128-00000012D0000065D000000000048128     GGSL
TXBWIC21080-28009-11225-80000958D0004601D00980000381225.0    GGSL
TXBWIC21080-28009-11227-20000480D0001190D00000000001227.0    GGSL
TXBWIC21080-28009-11250-00003719D0029467D03849002151250.0    GGSL
TXBWIC21080-28009-11420-70000003D0000016D00260000001420P     GGSL
TXBWIC21080-28009-11438-20000060D0001557D00000000001438      GGSL
TXBWIC21080-28009-11440-50000006D0000050D00854000001440P     GGSL
TXBWIC21080-28009-15240-70000262D0001535D00040000075240.0    GGSL
TXBWIC21080-28009-15440-10000120D0000400D00000000005440.0    GGSL
TXBWIC21080-28009-15440-30000240D0001651D00000000001840      GGSL
TXBWIC21080-28009-15450-00000800D0001888D00361000005450.0    GGSL
TXBWIC21080-28009-15540-80000597D0002301D02250001455540.0    GGSL
TXBWIC21080-28009-15720-40000240D0000799D00000000005720.0    GGSL
TXBWIC21080-28009-15740-20000661D0002941D00908000005740.0    GGSL
TXBWIC21080-30541-01020-60000048D0000118D0000000000JCD-024SM GGSL
TXBWIC21080-30541-01030-50000012D0000096D0005400000JCD-100SMJGGSL
TXBWIC21080-30541-01034-30000002D0000049D0004700000JCD-030SM GGSL
TXBWIC21080-30641-33935-10000018D0000033D0000000000YPDQ      GGSL
TXBWIC21080-32247-00900-30000030D0000089D00750000001009001   GGSL
TXBWIC21080-32247-00910-20000006D0000015D00162000001009101   GGSL
TXBWIC21080-32247-00950-80000042D0000114D00108000001009501   GGSL
TXBWIC21080-32247-03115-80005763C0000114C000370000031115     GGSL
TXBWIC21080-32247-03313-80000387C0000114C00352000013313B     GGSL
TXBWIC21080-32247-03594-10000305D0001782D007230000070359430  GGSL
TXBWIC21080-32247-05514-70001982D0007184D045500006070551430  GGSL
TXBWIC21080-32247-10500-20000063D0000494D0001500036110500    GGSL
TXBWIC21080-32247-11307-60003028D0005713D040340001071130756  GGSL
TXBWIC21080-32247-14902-00000052D0000651D000240000014902     GGSL
TXBWIC21080-32247-14905-10000016C0000643D000960000014905     GGSL
TXBWIC21080-32247-15307-20000094D0000189D002680000071530751  GGSL
TXBWIC21080-32247-17183-00000024D0000194D001080000017183     GGSL
TXBWIC21080-32247-17185-40000016D0000316D000400000017185     GGSL
TXBWIC21080-32247-17187-80000010D0000443D000020000017187     GGSL
TXBWIC21080-32247-17290-50000066D0000603D000120000017290     GGSL
TXBWIC21080-32247-17293-60000024D0000205D000060000017293     GGSL
TXBWIC21080-32247-17295-00000012D0000242D000080000017295     GGSL
TXBWIC21080-32247-17323-00000072D0000575D000900000017323     GGSL
TXBWIC21080-32247-17325-40000020D0000336D000080000017325     GGSL
TXBWIC21080-32247-17327-80000002D0000071D000200000017327     GGSL
TXBWIC21080-32247-17432-90000009D0000349D000180000017504     GGSL
TXBWIC21080-32247-17488-60000004D0000099D000000000417590     GGSL
TXBWIC21080-32247-17508-10000111C0000099C000660000017508     GGSL
TXBWIC21080-32247-17511-10000006D0000070D000000000017511     GGSL
TXBWIC21080-32247-17528-90000008D0000186D000360000017540     GGSL
TXBWIC21080-32247-17582-10000024D0000320D000000000017582     GGSL
TXBWIC21080-32247-18221-80000068D0001402D000920000018221     GGSL
TXBWIC21080-32247-18225-60000266C0001402C001140000018225     GGSL
TXBWIC21080-32247-18251-50000008D0000212D000360000018251     GGSL
TXBWIC21080-32247-18260-70000006D0000075D000000000018260     GGSL
TXBWIC21080-32247-18266-90000102D0001138D001200000018266     GGSL
TXBWIC21080-32247-18269-00000012D0000319D000160000018269     GGSL
TXBWIC21080-32247-18272-00000018D0000086D000290000018272     GGSL
TXBWIC21080-32247-18296-60000036D0000391D000240000018296     GGSL
TXBWIC21080-32247-18302-40000016D0000332D000200000018302     GGSL
TXBWIC21080-32247-18320-80000066D0000561D000060000018320     GGSL
TXBWIC21080-32247-18338-30000006D0000056D000000000018338     GGSL
TXBWIC21080-32247-18346-80000036D0000620D000800000418346     GGSL
TXBWIC21080-32247-18348-20000042D0000518D000420000018348     GGSL
TXBWIC21080-32247-18350-50000075D0000498D007950001518350     GGSL
TXBWIC21080-32247-18353-60000048D0001092D001980000018353     GGSL
TXBWIC21080-32247-18354-30000012D0000140D000180000018354     GGSL
TXBWIC21080-32247-18362-80000378D0012114D000000000018362     GGSL
TXBWIC21080-32247-18365-90000012D0000412D000000000018365     GGSL
TXBWIC21080-32247-19594-20000116D0000850D001600006471959430  GGSL
TXBWIC21080-32247-20784-30001158D0003588D003840003672078430  GGSL
TXBWIC21080-32247-20814-70000020D0000766D000180000621814     GGSL
TXBWIC21080-32247-21030-00000004D0000128D002290000021030A    GGSL
TXBWIC21080-32247-21605-00000120D0002091D001750000521605     GGSL
TXBWIC21080-32247-21701-90000120D0000899D000240000021701     GGSL
TXBWIC21080-32247-22305-80000003D0000240D001080004022305     GGSL
TXBWIC21080-32247-22315-70001833C0000240C000100000022315     GGSL
TXBWIC21080-32247-23001-80000006D0000153D000120000023001     GGSL
TXBWIC21080-32247-23100-80000012D0000123D000000000023100     GGSL
TXBWIC21080-32247-23405-40000037D0000530D003530001023405B    GGSL
TXBWIC21080-32247-23415-30000025D0000923D000200000023415     GGSL
TXBWIC21080-32247-25006-10004551C0000923C006470000125006A    GGSL
TXBWIC21080-32247-25009-20000010D0000550D000060000025009     GGSL
TXBWIC21080-32247-26003-90000074D0001706D000500000026003D    GGSL
TXBWIC21080-32247-26007-70000042D0000934D002390000026007B    GGSL
TXBWIC21080-32247-26784-70000060D0000214D011580006672678430  GGSL
TXBWIC21080-32247-27791-40000360D0000671D000000024072779180  GGSL
TXBWIC21080-32247-30156-50000080D0001178D000560000830156     GGSL
TXBWIC21080-32247-30177-00000014D0000205D000660000030177     GGSL
TXBWIC21080-32247-33020-60000037C0000205C000690000033020     GGSL
TXBWIC21080-32247-35594-00000210D0001308D000250000073559430  GGSL
TXBWIC21080-32247-35605-30000105D0002117D001490000044615A    GGSL
TXBWIC21080-32247-37594-80000006D0000047D024690003073759430  GGSL
TXBWIC21080-32247-37610-50000282D0003710D002530000437610C    GGSL
TXBWIC21080-32247-38505-30000003D0000058D000000000038505     GGSL
TXBWIC21080-32247-38605-00000215D0002911D000570000138605D    GGSL
TXBWIC21080-32247-38615-90000058D0002022D000000002438615     GGSL
TXBWIC21080-32247-39594-60000212D0001754D022610000673959430  GGSL
TXBWIC21080-32247-42784-50000252D0000894D001800003074278430  GGSL
TXBWIC21080-32247-43850-60000060D0001285D00000000004385010   GGSL
TXBWIC21080-32247-43854-40000012D0000109D00000000044385404   GGSL
TXBWIC21080-32247-47783-30000120D0000426D002220002474778300  GGSL
TXBWIC21080-32247-49013-90000010D0000207D000000000049013     GGSL
TXBWIC21080-32247-49019-10000012D0000145D000900000149019     GGSL
TXBWIC21080-32247-49024-50000006D0000073D000690000049024     GGSL
TXBWIC21080-32247-49785-50000204D0000711D011940000674978500  GGSL
TXBWIC21080-32247-50086-90000012D0000200D00000000005008610   GGSL
TXBWIC21080-32247-50087-60000030D0000469D00066000005008710   GGSL
TXBWIC21080-32247-50088-30000006D0000100D00024000005008810   GGSL
TXBWIC21080-32247-50089-00000052D0001156D00032000005008910   GGSL
TXBWIC21080-32247-50250-40000211D0004113D000000001850250     GGSL
TXBWIC21080-32247-50524-60001385D0009716D065660012975052430  GGSL
TXBWIC21080-32247-51105-60000006D0000071D004380000051105     GGSL
TXBWIC21080-32247-51115-50000005D0000161D001640000051115     GGSL
TXBWIC21080-32247-52524-40000010D0000109D000320001185252430  GGSL
TXBWIC21080-32247-52784-20000144D0000480D009720001885278430  GGSL
TXBWIC21080-32247-53105-40000140D0001162D000670002053105     GGSL
TXBWIC21080-32247-55513-50000196D0001729D013850002075551300  GGSL
TXBWIC21080-32247-55523-40000383D0005049D015850023675552300  GGSL
TXBWIC21080-32247-55783-20000180D0000711D018600002475578300  GGSL
TXBWIC21080-32247-55863-10000004D0000027D006510000075586300  GGSL
TXBWIC21080-32247-56513-40005863D0034815D081040020575651300  GGSL
TXBWIC21080-32247-56523-30006391D0068212D077550049875652300  GGSL
TXBWIC21080-32247-56783-10000004D0001568D000050000075678309  GGSL
TXBWIC21080-32247-56788-60001278D0004664D055080087075678300  GGSL
TXBWIC21080-32247-56863-00000109D0000729D017780001175686300  GGSL
TXBWIC21080-32247-57905-60000386D0003826D000000000057905     GGSL
TXBWIC21080-32247-60594-60000550D0003197D007600000076059430  GGSL
TXBWIC21080-32247-71060-20000412D0005761D008370001871060     GGSL
TXBWIC21080-32247-71131-90000096D0001793D003520000871131     GGSL
TXBWIC21080-32247-74150-70000763D0003398D0150001212274150    GGSL
TXBWIC21080-32247-74250-40001512D0010917D0168500708274250    GGSL
TXBWIC21080-32247-74850-60000376D0006014D0074400120274850    GGSL
TXBWIC21080-32247-75902-10000008D0000612D000260000275902     GGSL
TXBWIC21080-32247-76121-50000228D0007295D002050001576121     GGSL
TXBWIC21080-32247-76232-80000057D0003297D000570001576232     GGSL
TXBWIC21080-32247-76565-70000012D0000621D000060000076565     GGSL
TXBWIC21080-32247-77160-30000744D0003005D0152900396277160    GGSL
TXBWIC21080-32247-77260-00000436D0005118D0189000378277260    GGSL
TXBWIC21080-32247-77960-90000108D0002332D0160800132277960    GGSL
TXBWIC21080-32247-85526-60000060D0000253D000600000088552600  GGSL
TXBWIC21080-32247-95517-10000240D0000852D004520000079551750  GGSL
TXBWIC21080-32247-99605-10000019C0000852C001090000099605     GGSL
TXBWIC21080-32903-00169-30000072D0000094D0016800024SLI06000E3GGSL
TXBWIC21080-32903-00309-30000096D0000205D0020400012SLI10000E3GGSL
TXBWIC21080-32903-00341-30000024D0000195D0003600018SLI24000E3GGSL
TXBWIC21080-32903-00359-80000048D0000083D0012000024SLI08000E3GGSL
TXBWIC21080-32903-12006-60000360D0000646D0000000120LIA06000E3GGSL
TXBWIC21080-32903-12008-00000120D0000331D0076800000LIA08000E3GGSL
TXBWIC21080-32903-12010-30000216D0000885D0046800012LIA10000E3GGSL
TXBWIC21080-32903-12012-70000036D0000213D0032400000LIA12000E3GGSL
TXBWIC21080-32903-12014-10000048D0000390D0003600012LIA14000E3GGSL
TXBWIC21080-32903-12017-20000011D0000159D0019200000LIA16000E3GGSL
TXBWIC21080-32903-12020-20000030D0000535D0007200006LIA20000E3GGSL
TXBWIC21080-32903-12024-00000042D0000997D0004200000LIA24000E3GGSL
TXBWIC21080-32903-12714-00000012D0000062D0000000000GAB14000E3GGSL
TXBWIC21080-32903-12718-80000264D0002883D0004200006GAB18000E3GGSL
TXBWIC21080-32903-12722-50000018D0000265D0008400000GAB22000E3GGSL
TXBWIC21080-32903-12818-50000006D0000041D0003000000VNP18000E3GGSL
TXBWIC21080-32903-12824-60000012D0000084D0001200000VNP24000E3GGSL
TXBWIC21080-32903-50763-80000096D0000358D0006000024SLI12000E3GGSL
TXBWIC21080-32903-50802-40000072D0000299D0016200012SLI14000E3GGSL
TXBWIC21080-32903-58838-50000121C0000299C0000000000TEA24000G1GGSL
TXBWIC21080-32903-75049-20000018D0000118D0011400006SLI20000E3GGSL
TXBWIC21080-32903-75080-50000070D0000307D0015600000SLI17000E3GGSL
TXBWIC21080-32903-91517-40000064D0000401D0000000000PPF10001Y2GGSL
TXBWIC21080-32903-91580-80000042D0000472D0000000000PZA16000Y3GGSL
TXBWIC21080-33524-43225-50000039D0000327D0023600000MP0020    GGSL
TXBWIC21080-33524-43240-80000075D0000897D0103500000MP0020    GGSL
TXBWIC21080-33607-00001-50000016D0000452D0008800000GBA-1     GGSL
TXBWIC21080-33745-97185-40000007D0000171D001600000097185     GGSL
TXBWIC21080-34411-74501-40000006D0000126D0005400000874501-100GGSL
TXBWIC21080-34613-00002-70000683D0005916D0105900014LH002     GGSL
TXBWIC21080-34613-00003-40000072D0001236D0151000018LH003     GGSL
TXBWIC21080-34613-00004-10000539D0003877D0121400002LH004     GGSL
TXBWIC21080-34613-00006-50000440D0003140D0028100047LH006     GGSL
TXBWIC21080-34613-00020-10000016C0003140C0000000000LH020     GGSL
TXBWIC21080-34613-00029-40000007D0000086D00000000248205      GGSL
TXBWIC21080-34613-00060-70000007D0000392D0003300021TP60      GGSL
TXBWIC21080-34613-00446-90000012D0000045D0001200000446       GGSL
TXBWIC21080-34613-00540-40000010D0000040D00055000105-40HD    GGSL
TXBWIC21080-34613-00640-10000006D0000026D00016000406-40HD    GGSL
TXBWIC21080-34613-00805-40000007D0000185D0002800045SS5       GGSL
TXBWIC21080-34613-01150-40000300D0000690D00380003201150PDQ   GGSL
TXBWIC21080-34613-01161-00000060D0000140D00264003601161PDQ   GGSL
TXBWIC21080-34613-01903-60000072D0000339D00012000001903      GGSL
TXBWIC21080-34613-03012-30000059C0000339C00000000003012      GGSL
TXBWIC21080-34613-04850-00000006D0000021D00000000123104BL    GGSL
TXBWIC21080-34613-05017-60000002D0000389D00002000005017BLD   GGSL
TXBWIC21080-34613-05826-40000054D0000499D00018000005826      GGSL
TXBWIC21080-34613-07170-60000012D0000067D00000000007170BL    GGSL
TXBWIC21080-34613-07757-90000012D0000046D00036001447757BL    GGSL
TXBWIC21080-34613-07759-30000024D0000187D00024000007759BL    GGSL
TXBWIC21080-34613-08975-60000003D0000128D00000000008975      GGSL
TXBWIC21080-34613-18050-70000012D0000061D00000000008050BL    GGSL
TXBWIC21080-34613-70052-10000006D0000110D006720000070052     GGSL
TXBWIC21080-34613-95006-30000001D0000043D000080002995006     GGSL
TXBWIC21080-34613-96006-20000002D0000096D000100002196006     GGSL
TXBWIC21080-35307-00812-10000012D0000026D0000000000812       GGSL
TXBWIC21080-35307-00817-60000012D0000028D0000000000817       GGSL
TXBWIC21080-35307-00818-30000012D0000018D0000000000818       GGSL
TXBWIC21080-35307-00820-60000132D0000220D0016800180820       GGSL
TXBWIC21080-35307-00826-80000060D0000115D0010800192826       GGSL
TXBWIC21080-35307-00828-20000048D0000093D0000000000828       GGSL
TXBWIC21080-35307-00834-30000012D0000036D0000000000834       GGSL
TXBWIC21080-35307-00839-80000012D0000037D0000000000839       GGSL
TXBWIC21080-35307-00840-40000012D0000026D0000000000840       GGSL
TXBWIC21080-35307-00843-50000012D0000030D0000000000843       GGSL
TXBWIC21080-35307-00844-20000012D0000029D0003600012844       GGSL
TXBWIC21080-35307-00846-30000024D0000079D0000000000846       GGSL
TXBWIC21080-35307-00848-00000108D0000245D0001200000848       GGSL
TXBWIC21080-35307-00861-90000012D0000037D0014400144861       GGSL
TXBWIC21080-35307-00874-90000036D0000052D0018000024874       GGSL
TXBWIC21080-35307-01601-00000018D0000237D00042000121601      GGSL
TXBWIC21080-35307-01612-60000084D0000366D00360002881612      GGSL
TXBWIC21080-35307-01618-80000012D0000056D00072000001618      GGSL
TXBWIC21080-35307-01810-60000180D0000917D00271000061810      GGSL
TXBWIC21080-35307-01815-10000069D0000472D00076000081815      GGSL
TXBWIC21080-35307-01820-50000036D0000448D00084000001820      GGSL
TXBWIC21080-35307-01825-00000124D0001052D00536003841825      GGSL
TXBWIC21080-35307-01840-30000054D0000900D00096000001840      GGSL
TXBWIC21080-35307-01880-90000003D0000075D00000000001880      GGSL
TXBWIC21080-35355-00072-60000036D0000390D0025200138TP72      GGSL
TXBWIC21080-35355-00802-90000022D0000330D0001900011SS2       GGSL
TXBWIC21080-35355-00803-60000015D0000228D0001600027SS3       GGSL
TXBWIC21080-35355-00804-30000016D0000352D0003100028SS4       GGSL
TXBWIC21080-35355-00806-70000009D0000315D0000600033SS6       GGSL
TXBWIC21080-35355-00924-80000075D0000797D0039900011924       GGSL
TXBWIC21080-35355-01151-70000070D0000294D00110003001151PDQ   GGSL
TXBWIC21080-35355-01160-90000100D0000216D00350002401160      GGSL
TXBWIC21080-35355-03105-80000036D0000162D00144005523105      GGSL
TXBWIC21080-35355-05945-80000037C0000162C00900000125945      GGSL
TXBWIC21080-35355-70201-90000040D0000415D000000006070201     GGSL
TXBWIC21080-35355-94006-00000005D0000170D000000001694006     GGSL
TXBWIC21080-36348-00610-70000042D0000213D00270000000610      GGSL
TXBWIC21080-36348-00645-90000033D0000467D0009600000645       GGSL
TXBWIC21080-36348-00745-60000001D0000023D00054000000745      GGSL
TXBWIC21080-36348-01020-30000003D0000047D00018000001020      GGSL
TXBWIC21080-36348-01078-40000011D0000375D00044000011078      GGSL
TXBWIC21080-36348-01079-10000043D0002285D00081000011079      GGSL
TXBWIC21080-36348-21079-50000020D0000154D00000000001079T     GGSL
TXBWIC21080-36434-00000-00000239D0004107D007740007210-12420  GGSL
TXBWIC21080-36434-10000-00000048D0000472D001920000010-14510  GGSL
TXBWIC21080-36434-10012-20000012D0000149D000960000010-10012  GGSL
TXBWIC21080-36434-11000-80000179D0001271D006390001860-11000  GGSL
TXBWIC21080-36434-12342-80000059D0000365D000560004360-12342  GGSL
TXBWIC21080-36434-12343-50000013D0000127D002910000060-12343  GGSL
TXBWIC21080-36434-12345-90000192D0002236D000720074410-12345  GGSL
TXBWIC21080-36434-12346-60000169D0000866D005640003560-12346  GGSL
TXBWIC21080-36434-12348-00000059C0000866C000080000010-12348  GGSL
TXBWIC21080-36434-12349-70000023D0000107D001680000060-12349  GGSL
TXBWIC21080-36434-12353-40000138D0002564D009800001860-12353  GGSL
TXBWIC21080-36434-12354-10000015D0000106D000260000710-12354  GGSL
TXBWIC21080-36434-12355-80000061D0000480D000190000910-12355  GGSL
TXBWIC21080-36434-12356-50000146D0001273D000390001710-12356  GGSL
TXBWIC21080-36434-12357-20000082D0000764D000270002110-12357  GGSL
TXBWIC21080-36434-12358-90000018D0000233D00018000061012358   GGSL
TXBWIC21080-36434-12700-60000072D0000486D000000002410-12700  GGSL
TXBWIC21080-36434-12710-50000036D0000253D000480000010-12710  GGSL
TXBWIC21080-36434-12720-40000036D0000236D002280000010-12720  GGSL
TXBWIC21080-36434-12730-00000012D0000116D000000000010-12730  GGSL
TXBWIC21080-36434-13200-00000012D0000060D00120000006013200   GGSL
TXBWIC21080-36434-13600-50000024D0000489D004080014410-13600  GGSL
TXBWIC21080-36434-13610-20000036D0000531D004200016810-13610  GGSL
TXBWIC21080-36434-14800-80000036D0000632D003360001210-14800  GGSL
TXBWIC21080-36434-14860-20000108D0001543D003600000010-14860  GGSL
TXBWIC21080-36434-15050-90000012D0000202D001740000010-15050  GGSL
TXBWIC21080-36434-15080-30000006D0000129D000300000010-15080  GGSL
TXBWIC21080-36434-22318-00000167D0000776D005530004460-22318  GGSL
TXBWIC21080-36434-22341-80000036D0000380D000000000010-22341  GGSL
TXBWIC21080-36434-22626-60000045D0000567D001530000960-22626  GGSL
TXBWIC21080-36434-22731-70000032D0000346D002400000260-22731  GGSL
TXBWIC21080-36434-22732-40000034D0000485D007020000060-22732  GGSL
TXBWIC21080-36434-28010-70000175D0001357D003360036010-28010  GGSL
TXBWIC21080-36434-28020-60000048D0000410D002880000010-28020  GGSL
TXBWIC21080-36434-32700-00000239D0001956D032760000010-32700  GGSL
TXBWIC21080-36434-34500-10000168D0001561D003600012010-34500  GGSL
TXBWIC21080-36434-82342-70000018D0000226D001700003560-82342  GGSL
TXBWIC21080-36865-12250-20003300D0005851D033000018071140180  GGSL
TXBWIC21080-36865-14511-20000120D0000254D007800000071451180  GGSL
TXBWIC21080-36865-24511-90000240D0000980D028200006072451180  GGSL
TXBWIC21080-37321-00022-80000864D0004908D0025801341022       GGSL
TXBWIC21080-37321-00023-50000064D0001120D0000400156023       GGSL
TXBWIC21080-37321-00024-20000404D0005246D0002100696024       GGSL
TXBWIC21080-37321-00025-90000084D0000726D0007200000025       GGSL
TXBWIC21080-37321-00036-50000003D0000018D0000600000036       GGSL
TXBWIC21080-37321-00051-80000010C0000018C0000000000051       GGSL
TXBWIC21080-37321-00068-60000090D0000414D0060900132068       GGSL
TXBWIC21080-37321-00069-30000366D0004575D0036300189069       GGSL
TXBWIC21080-37321-00070-90000162D0002349D0026100300070       GGSL
TXBWIC21080-37321-00105-80000120D0000290D0000000048105       GGSL
TXBWIC21080-37321-00106-50000012D0000029D0000000012106       GGSL
TXBWIC21080-37321-00107-20000084D0000203D0000000264107       GGSL
TXBWIC21080-37321-00108-90000288D0000738D0004800192108       GGSL
TXBWIC21080-37321-00110-20000032D0000094D0002400144110       GGSL
TXBWIC21080-37321-00112-60000040D0000118D0000000024112       GGSL
TXBWIC21080-37321-00114-00000056D0000163D0006400032114       GGSL
TXBWIC21080-37321-00121-80000007D0000090D0014400128121       GGSL
TXBWIC21080-37321-00123-20000237D0000916D0048000012123       GGSL
TXBWIC21080-37321-00127-00000102D0000793D0007800108127       GGSL
TXBWIC21080-37321-00141-60000024D0000097D0000000144141       GGSL
TXBWIC21080-37321-00142-30000024D0000215D0000000012142       GGSL
TXBWIC21080-37321-00150-80000396D0005951D0006301320150       GGSL
TXBWIC21080-37321-00160-70000012D0000036D0001200000160       GGSL
TXBWIC21080-37321-00166-90000144D0000731D0010500000166       GGSL
TXBWIC21080-37321-00197-30000048D0000280D0000000000197       GGSL
TXBWIC21080-37321-00202-40000096D0000968D0114300012202       GGSL
TXBWIC21080-37321-00203-10000027D0000417D0090600000203       GGSL
TXBWIC21080-37321-00210-90000123D0000755D0055500000210       GGSL
TXBWIC21080-37321-00211-60000162D0001405D0213300012211       GGSL
TXBWIC21080-37321-00212-30000012D0000216D0000000000212       GGSL
TXBWIC21080-37321-00213-00000192D0001903D0039600420213       GGSL
TXBWIC21080-37321-00214-70000282D0001515D0007500540214       GGSL
TXBWIC21080-37321-00216-10000012D0000165D0021600240216       GGSL
TXBWIC21080-37321-00230-70000012D0000094D0000000000230       GGSL
TXBWIC21080-37321-00238-30000117D0000939D0004200240238       GGSL
TXBWIC21080-37321-00250-50000708D0003402D0073201188250       GGSL
TXBWIC21080-37321-00252-90000177D0002033D0069000006252       GGSL
TXBWIC21080-37321-00253-60000027D0000550D0003300000253       GGSL
TXBWIC21080-37321-00255-00000663D0013610D0119100312255       GGSL
TXBWIC21080-37321-00257-40000096D0000323D0012600060257       GGSL
TXBWIC21080-37321-00258-10000012D0000070D0000000000          GGSL
TXBWIC21080-37321-00274-10000493D0001965D0035700321274       GGSL
TXBWIC21080-37321-00307-60000105D0000447D0003300567307       GGSL
TXBWIC21080-37321-00309-00000030D0000495D0015300348309       GGSL
TXBWIC21080-37321-00310-50000012D0000343D0006000000310       GGSL
TXBWIC21080-37321-00311-30000006D0000175D0000000000311       GGSL
TXBWIC21080-37321-00330-40000204D0001755D0014100000330       GGSL
TXBWIC21080-37321-00331-10000120D0001681D0004800000331       GGSL
TXBWIC21080-37321-00332-80000004D0000194D0000400000332       GGSL
TXBWIC21080-37321-00370-00000036D0000163D0000000000370       GGSL
TXBWIC21080-37321-00372-40000008D0000069D0000000000372       GGSL
TXBWIC21080-37321-00376-20000012D0000207D0013200000376       GGSL
TXBWIC21080-37321-00404-20000012D0000093D0008400000404       GGSL
TXBWIC21080-37321-00412-70000012D0000061D0000000000412       GGSL
TXBWIC21080-37321-00420-20000004D0000248D0000100000420       GGSL
TXBWIC21080-37321-00426-40000348D0003130D0000900252426       GGSL
TXBWIC21080-37321-00428-80000348D0001200D0016800252428       GGSL
TXBWIC21080-37321-00429-50000039D0000638D0002700048429       GGSL
TXBWIC21080-37321-00442-40000012D0000075D0000300000442       GGSL
TXBWIC21080-37321-00443-10000024D0000260D0000400012443       GGSL
TXBWIC21080-37321-00506-30000146D0000603D0005400084506       GGSL
TXBWIC21080-37321-00543-80000159D0000485D0008700030543       GGSL
TXBWIC21080-37321-00544-50000036D0000202D0001800012544       GGSL
TXBWIC21080-37321-00549-00000132D0001052D0016800000549       GGSL
TXBWIC21080-37321-00552-00000156D0002415D0012000000552       GGSL
TXBWIC21080-37321-00553-70000212D0006112D0015500036553       GGSL
TXBWIC21080-37321-00560-50000168D0000745D0009600048560       GGSL
TXBWIC21080-37321-00571-10000069D0000549D0001500000571       GGSL
TXBWIC21080-37321-00573-50000060D0000167D0072300000573       GGSL
TXBWIC21080-37321-00577-30000107D0001001D0012800000574       GGSL
TXBWIC21080-37321-00603-90000004D0000053D0006000000603       GGSL
TXBWIC21080-37321-00609-10000027D0000275D0002700000609       GGSL
TXBWIC21080-37321-00611-40000036D0000856D0026000116611       GGSL
TXBWIC21080-37321-00612-10000012D0000060D00000000000612      GGSL
TXBWIC21080-37321-00629-90000228D0000731D0052800084629       GGSL
TXBWIC21080-37321-00631-20003756D0013734D1689300720631       GGSL
TXBWIC21080-37321-00652-70000144D0000701D0022800000652       GGSL
TXBWIC21080-37321-00655-80000204D0001169D00252004206556      GGSL
TXBWIC21080-37321-00680-00000084D0000759D0009600000680       GGSL
TXBWIC21080-37321-00685-50000333D0003838D0064400036685       GGSL
TXBWIC21080-37321-00688-60000036D0000223D0007200000688       GGSL
TXBWIC21080-37321-00690-90000042D0000431D0013800000690       GGSL
TXBWIC21080-37321-00692-30000446D0004606D0035500003692150    GGSL
TXBWIC21080-37321-00697-80000060D0000191D0000000000697       GGSL
TXBWIC21080-37321-00698-50000012D0000073D0001200036698       GGSL
TXBWIC21080-37321-00728-90000012D0000160D0008400000728       GGSL
TXBWIC21080-37321-00752-40000018D0000128D0014400000752       GGSL
TXBWIC21080-37321-00758-60000004D0000037D0001200000758       GGSL
TXBWIC21080-37321-00775-30000504D0002673D0069900408775       GGSL
TXBWIC21080-37321-00777-70000099D0000975D0007300000777       GGSL
TXBWIC21080-37321-00779-10000072D0000561D0038700195779       GGSL
TXBWIC21080-37321-00784-50000090D0000274D0020400012784       GGSL
TXBWIC21080-37321-00786-90000384D0001374D0051500048786       GGSL
TXBWIC21080-37321-00788-30000036D0000234D0000000000788       GGSL
TXBWIC21080-37321-00789-00000696D0004911D0173200569791       GGSL
TXBWIC21080-37321-00806-40000036D0000294D0000000000806       GGSL
TXBWIC21080-37321-00811-80000240D0003087D0019700192811       GGSL
TXBWIC21080-37321-00813-20000288D0003848D0031200048813       GGSL
TXBWIC21080-37321-00814-90000006D0000119D0001800006814       GGSL
TXBWIC21080-37321-00857-60000312D0002861D0069600012857       GGSL
TXBWIC21080-37321-00862-00000801D0010029D0030900036862       GGSL
TXBWIC21080-37321-00866-80000005D0000025D0000000000865       GGSL
TXBWIC21080-37321-00868-20000024D0000312D0000000000868       GGSL
TXBWIC21080-37321-00870-50000012D0000056D0010800012870       GGSL
TXBWIC21080-37321-00875-00000916D0010424D0081600000875       GGSL
TXBWIC21080-37321-00880-40000124D0001538D0035400087880       GGSL
TXBWIC21080-37321-00883-50000216D0001045D0067200372883       GGSL
TXBWIC21080-37321-00892-70000060D0000525D0018000324892       GGSL
TXBWIC21080-37321-00903-00000012D0000079D0022800012903       GGSL
TXBWIC21080-37321-00908-50000048D0000495D0000000000908       GGSL
TXBWIC21080-37321-00925-20000912D0002702D0084000183925       GGSL
TXBWIC21080-37321-00939-90000372D0003741D0003600048939       GGSL
TXBWIC21080-37321-00941-20000750D0007571D0049300336941       GGSL
TXBWIC21080-37321-00946-70000036D0000341D0000400000946       GGSL
TXBWIC21080-37321-00947-40000012D0000105D0009000006947       GGSL
TXBWIC21080-37321-00951-10000456D0001819D0002700396951       GGSL
TXBWIC21080-37321-00982-50000240D0001050D0022800024982       GGSL
TXBWIC21080-37321-00987-00000101D0000911D0001000012987       GGSL
TXBWIC21080-37321-01971-80000024D0000099D00000000001971      GGSL
TXBWIC21080-37321-02360-90000069D0000476D00024000002360      GGSL
TXBWIC21080-37321-02361-60000330D0003695D00360003242361      GGSL
TXBWIC21080-37321-02362-30000004D0000077D00000000002362      GGSL
TXBWIC21080-37321-02761-40000006D0000117D00000000002761      GGSL
TXBWIC21080-37321-03082-90000006D0000117D00000000003082      GGSL
TXBWIC21080-37321-05131-20000004D0000067D00012000005131      GGSL
TXBWIC21080-37321-05612-60000024D0000223D00012000005612      GGSL
TXBWIC21080-37321-05710-90000012D0000073D00141000005710      GGSL
TXBWIC21080-37321-05714-70000008D0000260D00004000005714      GGSL
TXBWIC21080-37321-07458-80000048D0000738D00072000007458      GGSL
TXBWIC21080-37321-07465-60000004D0000130D00016000047465      GGSL
TXBWIC21080-37321-07490-80000090D0000484D00000000247490      GGSL
TXBWIC21080-37321-07492-20000092D0001547D00000000367492      GGSL
TXBWIC21080-37321-08752-60000021D0000257D00177000008752      GGSL
TXBWIC21080-37321-09534-70000291D0003019D00177001329534      GGSL
TXBWIC21080-37321-46126-50001600D0000271D013000000046126     GGSL
TXBWIC21080-37321-46183-80000027D0000196D0016500000691       GGSL
TXBWIC21080-37321-46190-60000024D0000075D000000000046190     GGSL
TXBWIC21080-37321-46191-30000048D0000251D000000002446191     GGSL
TXBWIC21080-37321-46400-60000024D0000070D000240000046400     GGSL
TXBWIC21080-37321-46401-30000036D0000187D000000000046401     GGSL
TXBWIC21080-37321-46406-80000056D0000414D007200000046406     GGSL
TXBWIC21080-37321-46540-90000008D0000077D000680000046540     GGSL
TXBWIC21080-37321-60365-80000010D0000320D000290000060365     GGSL
TXBWIC21080-37321-60400-60001652D0020950D005740131160402     GGSL
TXBWIC21080-37321-60476-10003448D0037750D029410182660478     GGSL
TXBWIC21080-37321-60514-00000507D0005492D015550116360516     GGSL
TXBWIC21080-38313-00005-90000012D0000255D0005300000GS 6750D  GGSL
TXBWIC21080-38313-00008-00000080D0001452D0021800006BP 3130   GGSL
TXBWIC21080-38313-00060-80000252D0004555D0042600595BP 3160   GGSL
TXBWIC21080-38313-00080-60000169D0003641D0036100373BP 3180D  GGSL
TXBWIC21080-38313-00081-30000006D0000069D0001200000AC 7220   GGSL
TXBWIC21080-38313-00217-60000017D0000305D0005900001FS 4350   GGSL
TXBWIC21080-38313-00830-70000018D0000570D0009100000BP 6250   GGSL
TXBWIC21080-38313-01010-20000384D0001998D0067800072CT 3010I  GGSL
TXBWIC21080-38313-01020-10000054D0000312D0032400006CT 3020I  GGSL
TXBWIC21080-38313-01030-00000084D0000439D0019200024CT 3030I  GGSL
TXBWIC21080-38313-03050-60000012D0000080D0009600096GT 3050   GGSL
TXBWIC21080-38313-03060-50000024D0000170D0005400102GT 3060   GGSL
TXBWIC21080-38313-03080-30000024D0000170D0017400090GT 3080   GGSL
TXBWIC21080-38313-03214-20000018D0000233D0001800000BP 3214D  GGSL
TXBWIC21080-38313-03334-70000024D0000288D0004800000AP 3334   GGSL
TXBWIC21080-38313-03394-10000006D0000064D0000000000FS 3394   GGSL
TXBWIC21080-38313-03470-20000019D0000561D0003700000FL 3470   GGSL
TXBWIC21080-38313-03634-80000014D0000424D0000100003LG 3634   GGSL
TXBWIC21080-38313-03710-90000156D0000765D0022201482CT 3710   GGSL
TXBWIC21080-38313-03720-80000012D0000090D0046800054CT 3720   GGSL
TXBWIC21080-38313-03730-70000084D0000416D0009000162CT 3730   GGSL
TXBWIC21080-38313-03750-50000084D0000416D0006000156CT 3750   GGSL
TXBWIC21080-38313-04110-60000012D0000184D0000600168AL 4110   GGSL
TXBWIC21080-38313-04930-00001329D0008453D0273800065AG 4930   GGSL
TXBWIC21080-38313-04930-70000374D0003074D0111400001AG 4930SS GGSL
TXBWIC21080-38313-06870-70000001D0000000D0000000000TP 6870   GGSL
TXBWIC21080-38313-06970-40000025D0001138D0020900002AH 6970   GGSL
TXBWIC21080-38313-07001-00000001D0000044D0002600000FK 70010  GGSL
TXBWIC21080-38313-07545-20000027D0000489D0006400006RS 7245   GGSL
TXBWIC21080-38313-10000-10000119D0001161D0022500008SS 10000  GGSL
TXBWIC21080-38313-10227-20000019D0001339D0007700003AL 6512   GGSL
TXBWIC21080-38313-11000-00000044D0000437D0002700006SS 11000  GGSL
TXBWIC21080-38313-12400-70000190D0002418D0042700016RK 24003  GGSL
TXBWIC21080-38313-13214-90000018D0000138D0000000312FS 3214D  GGSL
TXBWIC21080-38313-14300-80000005D0000225D0001400000BM 43001  GGSL
TXBWIC21080-38313-20001-50000010D0000227D0000600007PD 20000  GGSL
TXBWIC21080-38313-20002-20000006D0000092D0000000090RK 20002  GGSL
TXBWIC21080-38313-20004-60000004D0000067D0016600046CV 20004  GGSL
TXBWIC21080-38313-20022-00000043D0000811D0017100000RK 20022  GGSL
TXBWIC21080-38313-21000-70000045D0000670D0007800048SH 20000  GGSL
TXBWIC21080-38313-24000-40000027D0000219D0016600006FS 4000   GGSL
TXBWIC21080-38313-25008-90000012D0000052D0003600276RK 25008  GGSL
TXBWIC21080-38313-26001-90000024D0000284D0001800030SS 26010  GGSL
TXBWIC21080-38313-26020-00000068D0001018D0009500001SS 26020  GGSL
TXBWIC21080-38313-26022-40000004D0000082D0000000000SS 26030  GGSL
TXBWIC21080-38313-27002-50000037C0000082C0000000000AX 70020  GGSL
TXBWIC21080-38313-27020-90000011D0000164D0006600001SS 27020  GGSL
TXBWIC21080-38313-28000-00000003D0000055D0001700005SS 28000  GGSL
TXBWIC21080-38313-28010-90000011D0000232D0008900007SS 28010  GGSL
TXBWIC21080-38313-33140-50000016D0000145D0000000080CT 3314   GGSL
TXBWIC21080-38313-33240-20000032D0000277D0000000000CT 3324   GGSL
TXBWIC21080-38313-33340-90000008D0000064D0000000048CT 3334   GGSL
TXBWIC21080-38313-33440-60000054D0000405D0006400064CT 3344   GGSL
TXBWIC21080-38313-33640-00000064D0000560D0008800280CT 3364   GGSL
TXBWIC21080-38313-36541-70000004D0000097D0000800000LG 3654   GGSL
TXBWIC21080-38313-37201-90000018D0000305D0002900027LG 3720   GGSL
TXBWIC21080-38313-53841-50000001D0000051D0000000000TP 3841   GGSL
TXBWIC21080-38313-56200-70000010D0000080D0005100001RK 62000  GGSL
TXBWIC21080-38313-61062-30000007D0000376D0000700009RK 61062  GGSL
TXBWIC21080-38313-62062-20000001D0000051D0001800000BM 62060  GGSL
TXBWIC21080-38313-62065-30000006D0000260D0000600000FK 72065  GGSL
TXBWIC21080-38313-64144-30000016D0000314D0000000001SS 64104  GGSL
TXBWIC21080-38313-80000-00000006D0000519D0003200006SF 80000  GGSL
TXBWIC21080-38313-81000-90000056D0000583D0019600012RK 10000  GGSL
TXBWIC21080-38313-90000-70000069D0000668D0002300004SH 10000  GGSL
TXBWIC21080-38313-90020-50000002D0000144D0000000000AS 90020  GGSL
TXBWIC21080-38858-13571-80001466C0000144C0000000000DISP-31   GGSL
TXBWIC21080-39044-12044-30000006D0000183D000000000012044     GGSL
TXBWIC21080-40025-54033-40000014D0000641D0007000000RWS-54033 GGSL
TXBWIC21080-40235-75256-50000004D0000073D00048000002.5G30S   GGSL
TXBWIC21080-40279-03300-20000516D0000989D00420003123300      GGSL
TXBWIC21080-40279-03302-60000216D0000432D0104400036          GGSL
TXBWIC21080-41535-24550-40000108D0004859D009730000624550     GGSL
TXBWIC21080-41535-24560-30000154D0028289D014110002324560     GGSL
TXBWIC21080-41535-24571-90000711D0012484D0215400053100518540 GGSL
TXBWIC21080-42204-14504-80000006D0000006D00008000002MMC      GGSL
TXBWIC21080-42206-00056-90000004D0000042D000480004856-6      GGSL
TXBWIC21080-42206-00202-00000170D0000224D0036000000202S      GGSL
TXBWIC21080-42206-00202-10000003D0000004D0000400000202S      GGSL
TXBWIC21080-42206-00395-90000046D0000115D0076400060395S      GGSL
TXBWIC21080-42206-00525-00000076D0000205D0019400100525C      GGSL
TXBWIC21080-42206-00872-50000036D0000091D0034200024872-6     GGSL
TXBWIC21080-42206-03010-80000022D0000233D00144000003010-4    GGSL
TXBWIC21080-42206-07800-10000012D0000085D00066000907800      GGSL
TXBWIC21080-42206-09000-30000084D0000569D00382000109000      GGSL
TXBWIC21080-42206-09520-60000006D0000100D00000000249520      GGSL
TXBWIC21080-42206-09620-30002136C0000100C00134000049620-8    GGSL
TXBWIC21080-42206-14058-60000180D0001166D00456001569570      GGSL
TXBWIC21080-42206-14066-10000036D0000120D00060000129560C     GGSL
TXBWIC21080-42206-14220-70000048D0000244D0038200130312S      GGSL
TXBWIC21080-42206-14221-40000033D0000065D0008100002313S      GGSL
TXBWIC21080-42206-14235-10000046D0000060D0028700020390S      GGSL
TXBWIC21080-42206-14456-00000082D0000172D0014600000420C      GGSL
TXBWIC21080-42206-14501-70000056D0000057D00313000001FMC      GGSL
TXBWIC21080-42206-14502-40000043D0000033D00249000101MMC      GGSL
TXBWIC21080-42206-14503- 0000003D0000003D00010000002FMC      GGSL
TXBWIC21080-42206-14503-10000126D0000137D01255001102FMC      GGSL
TXBWIC21080-42206-14504-80000194D0000171D01189000902MMC      GGSL
TXBWIC21080-42206-14505-50000034D0000035D001600010001MC      GGSL
TXBWIC21080-42206-14506-20000134D0000148D005320010002MC      GGSL
TXBWIC21080-42206-14570-30000030D0000187D0023800000ZBR3/4    GGSL
TXBWIC21080-42206-14571-00000175D0000650D0007600020ZBM3/4    GGSL
TXBWIC21080-42206-14572-70000168D0000700D0008200020ZBF3/4    GGSL
TXBWIC21080-42206-14599-40000018D0000277D00042000009536CH    GGSL
TXBWIC21080-42206-15111-70000030D0000228D000720000615111     GGSL
TXBWIC21080-42206-15404-00000016D0000229D000140004815404     GGSL
TXBWIC21080-42206-15565-80000096D0000880D0016800288R551      GGSL
TXBWIC21080-42206-20491-20000090D0000486D001910001020491-10  GGSL
TXBWIC21080-42206-22261-90000240D0002569D002700000022261     GGSL
TXBWIC21080-42206-22300-50000042D0000538D000840000022300     GGSL
TXBWIC21080-42206-22701-00000010D0000035D002420000022701C    GGSL
TXBWIC21080-42206-23701-90000022D0000079D001280000023701S    GGSL
TXBWIC21080-42206-38636-60000024D0000192D0000600072R8636     GGSL
TXBWIC21080-42206-40300-10000010D0000084D0003200000XT300     GGSL
TXBWIC21080-42206-40301-80000060D0000388D0015000100XT301     GGSL
TXBWIC21080-42206-44100-30000006D0000090D0001800054XT4100    GGSL
TXBWIC21080-42206-48635-60000072D0000378D0000000132R8635     GGSL
TXBWIC21080-42206-63015-50000008D0000263D000040000063015     GGSL
TXBWIC21080-42206-63100-80000003D0000119D000040000063100     GGSL
TXBWIC21080-42579-00000-00000012D0000106D0000000000LEAFTARP9XGGSL
TXBWIC21080-42579-11212-80000009D0000462D0003200000SSR12GRN  GGSL
TXBWIC21080-42579-11250-00000015D0007235D0021400000P12       GGSL
TXBWIC21080-42579-11500-60000151D0003984D0019000014APBPAL    GGSL
TXBWIC21080-42579-12343-80000140D0005519D000000000020 YR-3100GGSL
TXBWIC21080-42579-12346-90000072D0000138D0000000000TW3W      GGSL
TXBWIC21080-42579-13250-80000549D0016416D0209800020P3        GGSL
TXBWIC21080-42579-14250-70000137D0018916D0105700002P4        GGSL
TXBWIC21080-42579-15250-60000025D0004552D0030200000P5        GGSL
TXBWIC21080-42579-16250-50000075D0014912D0061200003P6        GGSL
TXBWIC21080-42579-18250-30000017D0005481D0019200000P8        GGSL
TXBWIC21080-42579-19342-40000336D0003678D006960000020 YR-324 GGSL
TXBWIC21080-42579-22341-10000832D0006863D04800005446 YR-350  GGSL
TXBWIC21080-42579-22342-80000270D0002749D0030001452NS12      GGSL
TXBWIC21080-42579-22345-90001177D0001738D0169703420APRC      GGSL
TXBWIC21080-42579-23100-30000016D0000112D00064002726 YR-3100 GGSL
TXBWIC21080-42579-24250-40000001D0000141D000630000020 YR-4250GGSL
TXBWIC21080-42579-25250-30000003D0000531D000660000020 YR-5250GGSL
TXBWIC21080-42579-32355-50000112D0000656D0049000042RS15      GGSL
TXBWIC21080-42579-43004-80000030D0002989D0003900000NB4       GGSL
TXBWIC21080-42579-43006-20000014D0002002D0003700005NB6       GGSL
TXBWIC21080-42579-50154-00000128D0003906D0020000000PRO BLK-31GGSL
TXBWIC21080-42579-50169-40000108D0002285D0036000000PRO BLK-45GGSL
TXBWIC21080-42579-50264-60000032D0000518D0000000000SG200PAL  GGSL
TXBWIC21080-42579-63041-70000003D0000369D0001900000KG6       GGSL
TXBWIC21080-42579-63101-80000010D0000429D0000000000TSL-BX    GGSL
TXBWIC21080-42579-63105-60000010D0000617D0004300000350ROLL   GGSL
TXBWIC21080-42579-63306-70000216D0001299D04644000003 YR-350  GGSL
TXBWIC21080-42579-81272-10000002D0000204D0000100000K6        GGSL
TXBWIC21080-42579-81273-80000001D0000204D0000000000K12       GGSL
TXBWIC21080-42579-81359-90000001D0000122D0000000000SG12500   GGSL
TXBWIC21080-42579-81360-50000018D0002851D0012000077NS12250   GGSL
TXBWIC21080-42579-81428-20000289D0000556D0046100100BURLAP BAGGGSL
TXBWIC21080-42579-81566-10000049D0008043D0057100005SBLT10300 GGSL
TXBWIC21080-42579-81568-50000167D0031663D0093800053SBLT12300 GGSL
TXBWIC21080-42579-81569-20000499D0107664D0103700096SBLT15.530GGSL
TXBWIC21080-42579-81571-50000281D0013767D0088500022SBLT3300  GGSL
TXBWIC21080-42579-81572-20000051D0003447D0018400005SBLT4300  GGSL
TXBWIC21080-42579-81573-90000364D0035366D0132400205SBLT6300  GGSL
TXBWIC21080-42579-81605-70000013D0001061D0003900000PRO BLK-33GGSL
TXBWIC21080-42579-81606-40000033D0003683D0009400002PRO BLK-43GGSL
TXBWIC21080-42579-81607-10000067D0011422D0003400004PRO BLK-63GGSL
TXBWIC21080-42579-81608-80000007D0001576D0000200000PRO BLK-83GGSL
TXBWIC21080-42579-81626-20000016D0000247D0000000000PRO BRN-35GGSL
TXBWIC21080-42579-81733-70000031D0001770D0005200000CS-3300BLKGGSL
TXBWIC21080-42579-81734-40000035D0002501D0002900003CS-4300BLKGGSL
TXBWIC21080-42579-81735-10000014D0001789D0005300001CS-6300BLKGGSL
TXBWIC21080-42579-81738-20000003D0000740D0001200000CS-350BLK GGSL
TXBWIC21080-42579-81739-90000002D0000482D0002100000CS-3100BLKGGSL
TXBWIC21080-42579-82252-20000016D0002751D0000000000FF4OZ-4360GGSL
TXBWIC21080-42579-82278-20000372D0004049D0000000060TWBAG-12  GGSL
TXBWIC21080-42579-82320-80000144D0001675D0002400000TWD-24    GGSL
TXBWIC21080-42853-00000-00000504D0018131D0028100013BFTD-DB12 GGSL
TXBWIC21080-42853-10000-10000132D0000532D0002000000ST3-BB4   GGSL
TXBWIC21080-42853-12000-90000084D0000231D0008000024MGC-DB12  GGSL
TXBWIC21080-42853-42000-00000114D0000788D0025800018TSBF-BB6  GGSL
TXBWIC21080-42853-50000-90000531D0003784D0051000168TSW-BB6   GGSL
TXBWIC21080-42853-52000-40000042D0000282D0001800000CBTS-BB6  GGSL
TXBWIC21080-42853-61000-50000024D0000102D0000400012FFTR2-BB4 GGSL
TXBWIC21080-42853-62000-40000012D0000015D0010300000FFTA-DB12 GGSL
TXBWIC21080-42853-65000-10000012D0000045D0005200052AB6-BB4   GGSL
TXBWIC21080-42853-75117-30001212D0002930D0066000000PFTA-DB12 GGSL
TXBWIC21080-42853-77305-40000235D0009426D0016800033FTD-DB12  GGSL
TXBWIC21080-42854-03298-10000300D0000650D0026400132FG32ORB112GGSL
TXBWIC21080-42854-63278-50000108D0000212D0048000000FG32PC1-12GGSL
TXBWIC21080-42854-64870-00000096D0000668D0007800012FG48PC1-6 GGSL
TXBWIC21080-42854-93200-70000012D0000060D0019200000FG32SM1-12GGSL
TXBWIC21080-43256-32797-20000002D0000236D0000800000DT2000XLP GGSL
TXBWIC21080-43312-10003-70000172D0000526D0152600000103-0-009 GGSL
TXBWIC21080-43312-10027-30000336D0002683D0045600000104-0-003 GGSL
TXBWIC21080-43312-10031-00000022D0000603D0005800001107-0-002 GGSL
TXBWIC21080-43326-59771-70000008D0000390D0000000000G10X18    GGSL
TXBWIC21080-43786-70006-10000024D0000081D000000000070006     GGSL
TXBWIC21080-43792-60002-70000002D0000082D0000000003W32       GGSL
TXBWIC21080-43792-70002-40000001D0000041D0000000002R32       GGSL
TXBWIC21080-44882-30501-30000025D0000225D0007500080FXG5825   GGSL
TXBWIC21080-44882-30502-00000030D0000486D0014000175FXG5850   GGSL
TXBWIC21080-44882-30504-40000003D0000071D0014400054FXG5875   GGSL
TXBWIC21080-44882-30506-80000006D0000192D0005100081FXG58100  GGSL
TXBWIC21080-46539-62045-60001042D0015987D0533300191          GGSL
TXBWIC21080-46539-64032-40001338D0010089D0019802149          GGSL
TXBWIC21080-46753-01032-30000054D0000216D00100000004675301032GGSL
TXBWIC21080-46753-01128-30000072D0000630D00120000044675301128GGSL
TXBWIC21080-46753-01500-70000003D0000151D00005000014675302500GGSL
TXBWIC21080-46753-02032-20000074D0000334D00121000184675302032GGSL
TXBWIC21080-46753-02128-20000052D0000584D00155000124675302128GGSL
TXBWIC21080-46753-03128-10000036D0000478D00088000044675303128GGSL
TXBWIC21080-46753-04032-00000174D0001520D00378000064675304032GGSL
TXBWIC21080-46753-04033-70000228D0001908D00564002642004675304GGSL
TXBWIC21080-46753-04128-00000256D0003567D00392000804675304128GGSL
TXBWIC21080-46753-04500-10000002D0000073D0000800000ZZMED5GALPGGSL
TXBWIC21080-46753-04500-40000006D0000387D00007000004675304500GGSL
TXBWIC21080-46753-05032-90000276D0002310D00672003304675305032GGSL
TXBWIC21080-46753-05128-90000076D0001000D00288000404675305128GGSL
TXBWIC21080-46753-05500-10000002D0000112D000000000055003     GGSL
TXBWIC21080-46753-07032-70000024D0000124D00120000004675307032GGSL
TXBWIC21080-46753-07128-70000004D0000051D00000000004675307128GGSL
TXBWIC21080-46753-08032-60000423D0006562D01344002884675308032GGSL
TXBWIC21080-46753-14032-70000052D0000225D00527000004675314032GGSL
TXBWIC21080-46753-14128-70000140D0001127D00194000044675314128GGSL
TXBWIC21080-46753-14550-60000002D0000468D000020000014550     GGSL
TXBWIC21080-46753-15040-10000001D0000033D000000000150401     GGSL
TXBWIC21080-46753-17005-80000042D0000167D00154000064675317005GGSL
TXBWIC21080-46753-17040-90000568D0007862D00564000184675317040GGSL
TXBWIC21080-46753-19128-20000004D0000054D0000000000          GGSL
TXBWIC21080-46753-19500-60000001D0000061D0000000000195006    GGSL
TXBWIC21080-46753-20128-80000004D0000079D0000000000          GGSL
TXBWIC21080-46753-21032-70000084D0000412D007680010810327     GGSL
TXBWIC21080-46753-21128-70000104D0001286D003200007612287     GGSL
TXBWIC21080-46878-26380-20000006D0000066D000600000026380     GGSL
TXBWIC21080-46878-26381-90000003D0000033D000360000326381     GGSL
TXBWIC21080-46878-26382-60000009D0000099D000330000026382     GGSL
TXBWIC21080-46878-27389-40000015D0000260D000210000327389     GGSL
TXBWIC21080-46878-27436-50000003D0000052D000270000027436     GGSL
TXBWIC21080-46878-27560-70000015D0000260D000270000327560     GGSL
TXBWIC21080-47985-10023-30000102D0000715D0012000045YCBSM3CF-PGGSL
TXBWIC21080-47985-10033-20000403D0003073D0001000002YCBSI3CF-PGGSL
TXBWIC21080-48307-70003-20000023D0000167D0007000003ST3       GGSL
TXBWIC21080-48307-70004-90000018D0000169D0034000002ST4-WS    GGSL
TXBWIC21080-48307-70005-60000027D0000344D0013700003ST5       GGSL
TXBWIC21080-48307-70006-30000021D0000335D0000300003ST6       GGSL
TXBWIC21080-48745-22244-80000012D0000279D0002000000BL22244   GGSL
TXBWIC21080-50197-00104-50000384D0001852D0244400180HT4       GGSL
TXBWIC21080-50197-00108-30000042D0000314D0020400024HT8       GGSL
TXBWIC21080-50197-00118-20000655D0008004D0149200019HT18      GGSL
TXBWIC21080-50197-00136-60000167D0003671D0006400031HT36      GGSL
TXBWIC21080-50197-00150-20000035D0000974D0014700027HT50      GGSL
TXBWIC21080-50197-00204-20000558D0002656D0315700744PT4       GGSL
TXBWIC21080-50197-00208-00000040D0000301D0009400044PT8       GGSL
TXBWIC21080-50197-00218-90000353D0004291D0036000008PT18      GGSL
TXBWIC21080-50197-00236-30000030D0000687D0030700128PT36      GGSL
TXBWIC21080-50197-00250-90000440D0010461D0018600005PT50      GGSL
TXBWIC21080-50197-00304-90000540D0002554D0200900408GT4       GGSL
TXBWIC21080-50197-00308-70000018D0000117D0000000012GT8       GGSL
TXBWIC21080-50197-00318-60000045D0000592D0048000020GT18      GGSL
TXBWIC21080-50197-00336-00000143D0002920D0013600003GT36      GGSL
TXBWIC21080-50197-00404-60000330D0001590D0109100396RT4       GGSL
TXBWIC21080-50197-00408-40000330D0002339D0024000000RT8       GGSL
TXBWIC21080-50197-00418-30000164D0002046D0029700000RT18      GGSL
TXBWIC21080-50197-00604-00000150D0000680D0098700396BT4       GGSL
TXBWIC21080-50197-00704-70000090D0000422D0063800156TR4       GGSL
TXBWIC21080-50197-00718-40000013D0000179D0018800043TR18      GGSL
TXBWIC21080-50197-00904-10000504D0002310D0221501284TO4       GGSL
TXBWIC21080-50197-00908-60000042D0000281D0018600006TO8       GGSL
TXBWIC21080-50197-00918-80000259D0003227D0017700008TO18      GGSL
TXBWIC21080-50197-01004-70000120D0000564D0034800432BM04      GGSL
TXBWIC21080-50197-01024-50000010D0000185D0000000003BM24      GGSL
TXBWIC21080-50197-01228-70000028D0000509D0009400004RP28      GGSL
TXBWIC21080-50197-01303-10000036D0000213D0060000732DB03      GGSL
TXBWIC21080-50197-01317-80000003D0000087D0009500000DB17      GGSL
TXBWIC21080-50197-01803-60000024D0000118D0025200000GM3       GGSL
TXBWIC21080-50197-01825-80000249D0002356D0021100000GM25      GGSL
TXBWIC21080-50197-02006-00000108D0000277D0058500102GL6       GGSL
TXBWIC21080-50197-02206-40000060D0000308D0042900174GG6       GGSL
TXBWIC21080-50197-02805-90000006D0000038D0000000012GF101010/6GGSL
TXBWIC21080-50197-02904-90000282D0001332D0098400366FT4       GGSL
TXBWIC21080-50197-02918-60000128D0001615D0020400067FT18      GGSL
TXBWIC21080-50197-03804-10001128D0006028D0217700156BTSP4     GGSL
TXBWIC21080-50197-03825-60000117D0003262D0078700033BTSP25    GGSL
TXBWIC21080-50197-03904-80000192D0000900D0078900324PM4       GGSL
TXBWIC21080-50197-03920-80000022D0000271D0022100000PM20      GGSL
TXBWIC21080-50197-05004-30000372D0001715D0242000480CT4       GGSL
TXBWIC21080-50197-05018-00000099D0001312D0048300001CT18      GGSL
TXBWIC21080-50197-05320-40000033D0000531D0025000017ELF20     GGSL
TXBWIC21080-50197-05405-80000048D0000231D0020500144IT5       GGSL
TXBWIC21080-50197-05628-10000120D0002509D0007500020EOLF28    GGSL
TXBWIC21080-50197-05730-10000004D0000084D0000800000EOSR30    GGSL
TXBWIC21080-50197-05830-80000120D0002509D0001000000EOFW30    GGSL
TXBWIC21080-50197-06504-70000180D0000829D0130800192AT4       GGSL
TXBWIC21080-50197-06508-50000006D0000044D0009000000AT8       GGSL
TXBWIC21080-50197-06604-40000108D0000500D0058200144BR4       GGSL
TXBWIC21080-50197-51824-60000006D0000035D0000000000eowk24    GGSL
TXBWIC21080-50197-70101-30000012D0000091D0046800000ap1       GGSL
TXBWIC21080-50197-70102-00000016D0000191D0053600000ap2       GGSL
TXBWIC21080-50197-70304-80000228D0000692D0100400096ca4       GGSL
TXBWIC21080-50197-70308-60000186D0000831D0007200012ca8       GGSL
TXBWIC21080-50197-70608-70000330D0001441D0019200534PTM8      GGSL
TXBWIC21080-50197-71208-80000090D0000519D0012600000MM8       GGSL
TXBWIC21080-50197-71304-70000084D0000589D0052800216EC4       GGSL
TXBWIC21080-50197-71501-00000107D0000719D0054300007lsc1      GGSL
TXBWIC21080-50197-71601-70000195D0000999D0029900130dcm1      GGSL
TXBWIC21080-50197-71804-20000084D0000546D0001200000BO4       GGSL
TXBWIC21080-50197-71904-90000084D0000543D0009600660HC4       GGSL
TXBWIC21080-50197-80117-10000168D0001697D0060700120SC17      GGSL
TXBWIC21080-50349-01039-00000004D0000355D00008000001039-012  GGSL
TXBWIC21080-50699-00000-00000002D0000019D0001000000303460    GGSL
TXBWIC21080-50699-00014-00000004D0000019D0002300000300014    GGSL
TXBWIC21080-50699-00212-00000024D0000196D0029400000300212    GGSL
TXBWIC21080-52427-00551-90000001D0000019D00000000004500102   GGSL
TXBWIC21080-52427-01038-40000004D0000072D0000000000105462    GGSL
TXBWIC21080-52427-01048-30000002D0000074D0000000000105629    GGSL
TXBWIC21080-52732-00000-00000012D0000488D00000000242030.0    GGSL
TXBWIC21080-52732-10012-10000001D0000133D000980000310001     GGSL
TXBWIC21080-52732-16150-40000001D0000302D0000200000P15150    GGSL
TXBWIC21080-52732-20505-50000017D0001674D00064000002050SU    GGSL
TXBWIC21080-52732-20509-30000003D0000474D00069000002050P     GGSL
TXBWIC21080-52732-20519-20000001D0000145D00023000002050TP    GGSL
TXBWIC21080-52732-21700-30000002D0000608D00003000002170      GGSL
TXBWIC21080-52732-27500-30000487D0022001D00786000372750      GGSL
TXBWIC21080-52732-31000-10000003D0000564D00000000003100.0    GGSL
TXBWIC21080-52732-68016-60000001D0000338D0002000000F80       GGSL
TXBWIC21080-53291-11002-60000144D0001674D0018000060820-1002  GGSL
TXBWIC21080-53291-19881-90000005D0000061D0001500000820-1002  GGSL
TXBWIC21080-53291-30000-00000001D0000313D0000800000820-1024  GGSL
TXBWIC21080-53291-40052-30000008D0000052D0000000000840-0052  GGSL
TXBWIC21080-53291-50052-00000004D0000119D0000400000850-0052  GGSL
TXBWIC21080-66498-01115-70000061D0001495D004150002101115.0   GGSL
TXBWIC21080-66498-02115-60001998D0034854D049580159602775.0   GGSL
TXBWIC21080-66498-02185-90000060D0000724D001200000802185     GGSL
TXBWIC21080-66498-04175-80001211D0013751D007910065304175.0   GGSL
TXBWIC21080-66498-05113-90000004D0000087D000210000005175.0   GGSL
TXBWIC21080-66498-09901-80001186D0008816D095810002209901.0   GGSL
TXBWIC21080-66498-09902-50001236D0013676D086890011509902.0   GGSL
TXBWIC21080-66498-09903-20000679D0011164D022810005409903.0   GGSL
TXBWIC21080-66498-09925-40000210D0000991D008880001209925     GGSL
TXBWIC21080-66498-09929-20000018D0000135D003220000009929     GGSL
TXBWIC21080-66498-09937-70001378D0004653D057840079209937     GGSL
TXBWIC21080-66498-09939-10000022D0000224D000000000609939     GGSL
TXBWIC21080-66498-09947-60000180D0000591D011040027609947     GGSL
TXBWIC21080-66498-09950-50000918D0006533D012960046209955     GGSL
TXBWIC21080-66498-09965-00000612D0005140D015000032409965     GGSL
TXBWIC21080-66498-09977-30000372D0002483D002160002409977     GGSL
TXBWIC21080-66498-09985-80000198D0000841D004430031809985     GGSL
TXBWIC21080-66498-89905-20001086D0005118D048980006609905     GGSL
TXBWIC21080-66498-99827-40000960D0005510D013920043209827     GGSL
TXBWIC21080-70183-50005-50000120D0003757D00192000045000510   GGSL
TXBWIC21080-70183-50006-20000132D0004893D00072000065000610   GGSL
TXBWIC21080-70183-50023-90000132D0003365D00114000065002306   GGSL
TXBWIC21080-70183-50026-00000924D0010628D00440000485002610   GGSL
TXBWIC21080-70183-50027-70000480D0002115D00222000125002715   GGSL
TXBWIC21080-70183-50029-10000064D0000842D00059000005007410   GGSL
TXBWIC21080-70183-50034-50001203D0005415D00870001445003470   GGSL
TXBWIC21080-70183-50038-30000040D0000517D00124000245003810   GGSL
TXBWIC21080-70183-50042-00000069D0006244D00011000085004215   GGSL
TXBWIC21080-70183-50055-00001176D0013248D00420000485005510   GGSL
TXBWIC21080-70183-50060-40000168D0005735D00024000065006010   GGSL
TXBWIC21080-70183-50085-70000012D0000618D00006000005008510   GGSL
TXBWIC21080-70183-51001-60000611D0012177D00424000125100114   GGSL
TXBWIC21080-70183-51006-10000121D0008668D00468000005100610   GGSL
TXBWIC21080-70183-51007-80000198D0007754D00114000185100710   GGSL
TXBWIC21080-70183-51009-20000076D0001092D00096000005004010   GGSL
TXBWIC21080-70183-51019-10000012D0000665D00092000085101910   GGSL
TXBWIC21080-70183-51073-30000186D0000911D00360000125107315   GGSL
TXBWIC21080-70183-51090-00000484D0009592D00333000045109010   GGSL
TXBWIC21080-70183-52005-30000016D0000376D00048000005200510   GGSL
TXBWIC21080-70183-52039-80000148D0003378D00108000045203910   GGSL
TXBWIC21080-70183-52350-40000024D0000605D00028000005235010   GGSL
TXBWIC21080-70183-57050-80000114D0003463D00042000245705010   GGSL
TXBWIC21080-70183-57080-50000012D0000188D00008000005708010   GGSL
TXBWIC21080-70183-57250-20000228D0004906D00116000005725070   GGSL
TXBWIC21080-70183-88891-70000034D0005673D00000000008889136   GGSL
TXBWIC21080-70251-65240-20000002D0000056D0002000000652400    GGSL
TXBWIC21080-70251-75546-20000012D0000095D0003900000755460    GGSL
TXBWIC21080-70251-76116-60000084D0000882D0010800000761160    GGSL
TXBWIC21080-70251-79160-60000009D0000085D0013200000791600    GGSL
TXBWIC21080-70251-81182-30000024D0000277D00036000008111082   GGSL
TXBWIC21080-70251-81482-40000606D0003771D00273000008141082   GGSL
TXBWIC21080-70805-00000-00000160D0001972D0000000000SH1YWCUSTOGGSL
TXBWIC21080-70805-51001-10000710D0001775D024200007070805-010-GGSL
TXBWIC21080-70805-51002-80000575D0002636D012530002570805-005-GGSL
TXBWIC21080-70805-51013-40003263D0047620D0329400351BD02      GGSL
TXBWIC21080-70805-51024-00000216D0000806D006180000070805-006-GGSL
TXBWIC21080-70805-51025-70003573D0049869D049200026870805-001-GGSL
TXBWIC21080-70805-51026-40000348D0001212D004440003070805-006-GGSL
TXBWIC21080-70805-51033-20000288D0004093D009750001370805-001-GGSL
TXBWIC21080-70805-51034-90000354D0009455D009740005870805-001-GGSL
TXBWIC21080-70805-51037-00000021D0000265D001250000170805-001-GGSL
TXBWIC21080-70805-51038-70000038D0000906D002000000070805-001-GGSL
TXBWIC21080-70805-51051-60000088D0000578D005200000070805-008-GGSL
TXBWIC21080-70805-53003-30001977D0015944D0415600161BD021     GGSL
TXBWIC21080-70805-62025-30005969D0155732D093130051470805-001-GGSL
TXBWIC21080-70805-84052-10000015D0000449D0006200018KERNEL_M-0GGSL
TXBWIC21080-70805-84053-80000175D0003956D003760001170805-001-GGSL
TXBWIC21080-70805-84054-50000126D0002161D003720001270805-001-GGSL
TXBWIC21080-70805-84075-00000684D0021704D013940007870805-001-GGSL
TXBWIC21080-70805-84076-70000115D0006634D006730000370805-001-GGSL
TXBWIC21080-70805-84077-40000083D0004717D0017400000KERNEL_M-0GGSL
TXBWIC21080-70805-84079-80000214D0009604D004850005270805-001-GGSL
TXBWIC21080-70805-84093-40000031D0001518D0018300005PEANUTSPL-GGSL
TXBWIC21080-70923-00000-00000060D0000287D0038500012600.0     GGSL
TXBWIC21080-70923-00196-50000348D0000698D0063500024T100-12   GGSL
TXBWIC21080-70923-00300-60000372D0001694D0123600036300.0     GGSL
TXBWIC21080-70923-00402-70000096D0000303D0007800000T401-6    GGSL
TXBWIC21080-70923-00912-10000006D0000033D0005400000T901-6    GGSL
TXBWIC21080-70923-02111-60000065D0000383D0003600000T21016    GGSL
TXBWIC21080-70923-02301-10000102D0000300D0000000006T2302-6   GGSL
TXBWIC21080-70923-02900-60000128D0000682D0016000008T2900     GGSL
TXBWIC21080-70923-08515-60000048D0000077D0045600024T3206     GGSL
TXBWIC21080-70923-12117-50000001D0000017D0001800002T300-NT   GGSL
TXBWIC21080-70923-29432-90000006D0000050D0000000000T514      GGSL
TXBWIC21080-70923-69500-30000020D0000754D0009000004T2512     GGSL
TXBWIC21080-71092-32500-80000420D0001968D0081600030T2502     GGSL
TXBWIC21080-71121-04460- 0000006D0000063D0009300000HG-61067  GGSL
TXBWIC21080-71121-05580-40000306D0002369D00372000125580      GGSL
TXBWIC21080-71121-53940-30000076D0000631D0041200000HG-53944  GGSL
TXBWIC21080-71121-95704-70000006D0000034D0003000000HG-95704  GGSL
TXBWIC21080-71121-96280-50000012D0000056D0000000000HG-96280  GGSL
TXBWIC21080-71121-96281-20000305D0001443D0078000018HG-96281  GGSL
TXBWIC21080-71121-96623-00000006D0000049D0005400000hg-96623  GGSL
TXBWIC21080-71549-01128-40000032D0000093D00120000000112812   GGSL
TXBWIC21080-71549-01129-10001361C0000000D00288000400112912   GGSL
TXBWIC21080-71549-01656-20000036D0000243D00321000060165610   GGSL
TXBWIC21080-71549-01666-10000006D0000093D00240000000166610   GGSL
TXBWIC21080-71549-01738-50000054D0000449D00414000000173810   GGSL
TXBWIC21080-71549-01748-40000036D0000298D00195000000174810   GGSL
TXBWIC21080-71549-01936-50000027D0000158D00204000000193610   GGSL
TXBWIC21080-71549-02000-20000006D0000096D00112000000200010   GGSL
TXBWIC21080-71549-02003-30000169C0000096C00384000080200310   GGSL
TXBWIC21080-71549-02014-90000036D0000210D00084000120201405   GGSL
TXBWIC21080-71549-02022-40000232D0000690D00128000160202212   GGSL
TXBWIC21080-71549-02028-60000088D0000277D00000000160202812   GGSL
TXBWIC21080-71549-02029-30000030D0000339D00000000120202912   GGSL
TXBWIC21080-71549-02030-90000006D0000063D00012000000203012   GGSL
TXBWIC21080-71549-02044-60000036D0000269D00132000000204410   GGSL
TXBWIC21080-71549-02045-30000012D0000143D00144000000204510   GGSL
TXBWIC21080-71549-02047-70000096D0000637D00876000120204710   GGSL
TXBWIC21080-71549-02048-40000008D0000197D00028000000204810   GGSL
TXBWIC21080-71549-02049-10000613C0000197C00636000000204910   GGSL
TXBWIC21080-71549-02054-50000040D0000218D00032000000205408   GGSL
TXBWIC21080-71549-02055-20000600D0001270D00780000120205506   GGSL
TXBWIC21080-71549-02057-60000006D0000022D00312000000205710   GGSL
TXBWIC21080-71549-02127-60000020D0000241D00004000040212710   GGSL
TXBWIC21080-71549-02208-20006464D0052876D00596000920220810   GGSL
TXBWIC21080-71549-02219-80000264D0001839D00008000000221910   GGSL
TXBWIC21080-71549-02756-80000056D0000143D00224000000275612   GGSL
TXBWIC21080-71549-02822-00000071D0000000D01533001320282210   GGSL
TXBWIC21080-71549-03455-90000036D0000237D00000000000345510   GGSL
TXBWIC21080-71549-03456-60000048D0000201D00114001500345610   GGSL
TXBWIC21080-71549-03964-60000018D0000119D00042000120396410   GGSL
TXBWIC21080-71549-03987-50000012D0000159D00009000000398710   GGSL
TXBWIC21080-71549-04253-00000104D0000706D00364000120425310   GGSL
TXBWIC21080-71549-04318-60000312D0001391D00418000069994318   GGSL
TXBWIC21080-71549-04378-00000018D0000204D00174000060437806   GGSL
TXBWIC21080-71549-04380-30000008D0000266D00104000000438006   GGSL
TXBWIC21080-71549-04385-80000378D0001719D00450000300438580   GGSL
TXBWIC21080-71549-04465-70000056D0000681D00016000000446505   GGSL
TXBWIC21080-71549-04475-60000016D0000246D00032000000447505   GGSL
TXBWIC21080-71549-04477-00000198D0000869D00054000240447705   GGSL
TXBWIC21080-71549-04478-70000252D0002180D00132000120447805   GGSL
TXBWIC21080-71549-04479-40000168D0001429D00672000120447905   GGSL
TXBWIC21080-71549-04481-70000032D0000435D00044000120448105   GGSL
TXBWIC21080-71549-04486-20000132D0001448D00066000180448605   GGSL
TXBWIC21080-71549-04487-90000072D0000508D00018000000448705   GGSL
TXBWIC21080-71549-04488-60000020D0000279D00036000000448805   GGSL
TXBWIC21080-71549-04491-60000084D0000761D00072000000449105   GGSL
TXBWIC21080-71549-04493-00000016D0000140D00020000000449305   GGSL
TXBWIC21080-71549-04494-70000072D0000570D00384000000449405   GGSL
TXBWIC21080-71549-04495-40000048D0000217D00042000060449505   GGSL
TXBWIC21080-71549-04613-20000048D0000314D00060000000461412   GGSL
TXBWIC21080-71549-04616-30000028D0000153D00092000000461612   GGSL
TXBWIC21080-71549-04657-60000010D0000092D00100000000465705   GGSL
TXBWIC21080-71549-04745-00000030D0000224D00136000000474510   GGSL
TXBWIC21080-71549-04757-30000036D0000566D00076000000475705   GGSL
TXBWIC21080-71549-04758-00000007D0000179D00003000010475805   GGSL
TXBWIC21080-71549-04759-70000014D0000959D00001000000475905   GGSL
TXBWIC21080-71549-04910-20000168D0000657D00024000180491010   GGSL
TXBWIC21080-71549-07472-20000018D0000067D00012000000747210   GGSL
TXBWIC21080-71549-08410-30000601D0005576D00568001500841010   GGSL
TXBWIC21080-71549-43331-40000252D0001554D00660000120433310   GGSL
TXBWIC21080-71549-43361-10000232D0003916D00172000120433610   GGSL
TXBWIC21080-71549-43371-00000046D0001409D00068000000433710   GGSL
TXBWIC21080-71549-43701-50000144D0003267D00156000080437010   GGSL
TXBWIC21080-71549-43820-30000020D0000175D000100000004381012  GGSL
TXBWIC21080-71549-43887-60000048D0000164D00264000004388710   GGSL
TXBWIC21080-71549-46008-20000044D0000658D00100000004600810   GGSL
TXBWIC21080-71549-46025-90000006D0000029D00534000004602510   GGSL
TXBWIC21080-71549-46026-60000012D0000117D00000000364602610   GGSL
TXBWIC21080-71549-46132-40000108D0001490D00308000004613264   GGSL
TXBWIC21080-71549-46134-80000012D0000054D00090000004613406   GGSL
TXBWIC21080-71549-46139-30000008D0000118D00004000044613905   GGSL
TXBWIC21080-71549-46503-20000042D0000688D00504000004650306   GGSL
TXBWIC21080-71549-46510-00000030D0000419D00186000004651005   GGSL
TXBWIC21080-71549-46526-10000024D0000256D00028000244652605   GGSL
TXBWIC21080-71549-46527-80000036D0000651D00176000004652705   GGSL
TXBWIC21080-71549-99008-40000012D0000140D00384001689900810   GGSL
TXBWIC21080-71549-99019-00000024D0000297D00183000669901910   GGSL
TXBWIC21080-71559-04648-40000036D0000159D00006000120464812   GGSL
TXBWIC21080-71898-43163-40000345D0008033D00951001377800      GGSL
TXBWIC21080-71898-43180-10000479D0008713D00804000577450      GGSL
TXBWIC21080-71898-43210-50000015D0000415D00188000107824      GGSL
TXBWIC21080-71898-43211-20000134D0003567D00464000127828      GGSL
TXBWIC21080-71898-43212-90000005D0000118D00115000007321      GGSL
TXBWIC21080-71898-43213-60000716D0016166D01101000407324      GGSL
TXBWIC21080-71898-43214-30000311D0006054D00403000127326      GGSL
TXBWIC21080-71898-43215-00000185D0002633D002970007032150     GGSL
TXBWIC21080-72525-00003-00000360D0001215D0054000000HRT-6     GGSL
TXBWIC21080-72525-00005-40000198D0000965D0041400024HRP-16    GGSL
TXBWIC21080-72525-00009-20000012D0000088D0000000000HSG-6     GGSL
TXBWIC21080-72525-00022-10000159D0001207D0013200015HBB-32    GGSL
TXBWIC21080-72525-00048-10000057D0000233D0008400000HDE-8     GGSL
TXBWIC21080-72525-00055-90000048D0000406D0013800000EGG-16    GGSL
TXBWIC21080-72525-00078-80000045D0000148D0007500000BBTRP     GGSL
TXBWIC21080-72532-00014-80000597D0004619D0096700708          GGSL
TXBWIC21080-72532-00015-50000260D0006576D0061600121          GGSL
TXBWIC21080-72532-00016-20000072D0003358D0019700012          GGSL
TXBWIC21080-72532-00017-90000057D0007797D0024900000          GGSL
TXBWIC21080-72532-22310-30000079D0000544D0018000140stspray-10GGSL
TXBWIC21080-72693-00014-80000099D0001040D002560001282770001  GGSL
TXBWIC21080-72693-00015-50000098D0006762D004680001382100001  GGSL
TXBWIC21080-72693-00022-30000021D0003949D001160000883000002  GGSL
TXBWIC21080-72693-00029-20000004D0001260D000100000082100002  GGSL
TXBWIC21080-72693-00032-20000061D0001830D000800000282100006  GGSL
TXBWIC21080-72693-00046-90000214D0010289D003460002082004985  GGSL
TXBWIC21080-72693-00065-00000072D0000689D000000000082770006  GGSL
TXBWIC21080-72693-00102-20000006D0000330D001470000082701020  GGSL
TXBWIC21080-72693-00332-30000060D0000630D000380000082300330  GGSL
TXBWIC21080-72693-00368-20000043D0002193D000340000082690036  GGSL
TXBWIC21080-72693-00480-10000362D0045199D004920005082002490  GGSL
TXBWIC21080-72693-00498-60000727D0043519D002360000882002489  GGSL
TXBWIC21080-72693-00505-10001070D0024018D003600004282002488  GGSL
TXBWIC21080-72693-00993-60000010D0000308D000190000082100099  GGSL
TXBWIC21080-72693-01004-80000055D0002474D000080000682100100  GGSL
TXBWIC21080-72693-01020-80000051D0009991D001200000683014144  GGSL
TXBWIC21080-72693-01021-50000012D0000228D000240000082701021  GGSL
TXBWIC21080-72693-02475-50000151D0003668D001820000082002475  GGSL
TXBWIC21080-72693-02478-60000008D0001414D000330007382002478  GGSL
TXBWIC21080-72693-02479-30000409D0002211D014680003282002479  GGSL
TXBWIC21080-72693-02504-20000147D0001903D002360001282002504  GGSL
TXBWIC21080-72693-02506-60001745D0031334D017070022782002506  GGSL
TXBWIC21080-72693-02507-30000198D0029911D004180000282002507  GGSL
TXBWIC21080-72693-02686-50000326D0008412D006010001282002686  GGSL
TXBWIC21080-72693-03052-70000018D0001140D000300000082300305  GGSL
TXBWIC21080-72693-03143-20000078D0000710D002160001282300314  GGSL
TXBWIC21080-72693-03154-80000096D0001126D003190006082300315  GGSL
TXBWIC21080-72693-03164-70000018D0000162D000390000082300316  GGSL
TXBWIC21080-72693-03174-60000033D0000322D000390000082300317  GGSL
TXBWIC21080-72693-03188-30000005D0000243D001080000082300318  GGSL
TXBWIC21080-72693-03194-40000018D0000535D000300000082300319  GGSL
TXBWIC21080-72693-03254-50000293D0016350D001940001882003254  GGSL
TXBWIC21080-72693-03284-20000006D0000049D000360000682300328  GGSL
TXBWIC21080-72693-03298-90000081D0005913D001940000682300329  GGSL
TXBWIC21080-72693-03395-50000001D0000195D000240000082300339  GGSL
TXBWIC21080-72693-03507-20000012D0000100D000960000082100050  GGSL
TXBWIC21080-72693-03598-00000707D0028377D063010010882003598  GGSL
TXBWIC21080-72693-03599-70001098D0103850D014810010182003599  GGSL
TXBWIC21080-72693-04320-60003913D0242357D010460167482004320  GGSL
TXBWIC21080-72693-04430-20001612D0027563D011700013782004430  GGSL
TXBWIC21080-72693-04431-90001238D0028904D013390009982004431  GGSL
TXBWIC21080-72693-04432-60002006D0066179D032350013382004432  GGSL
TXBWIC21080-72693-04435-70003859D0158281D030050007782004435  GGSL
TXBWIC21080-72693-04438-80004750D0072913D022030043282004438  GGSL
TXBWIC21080-72693-04491-30000198D0001463D002490001882004491  GGSL
TXBWIC21080-72693-04493-70000201D0003912D003140003682004493  GGSL
TXBWIC21080-72693-04500-20000072D0004320D000390000082304500  GGSL
TXBWIC21080-72693-04504-00000656D0016613D010920002482004505  GGSL
TXBWIC21080-72693-04505-70001566D0120366D009370004282004506  GGSL
TXBWIC21080-72693-04506-40000393D0006720D008790000082004504  GGSL
TXBWIC21080-72693-04508-80000295D0003411D012060001882004508  GGSL
TXBWIC21080-72693-04515-60000005D0000248D000520000082004515  GGSL
TXBWIC21080-72693-04517-00000005D0000441D000650000082004517  GGSL
TXBWIC21080-72693-04964-20004002D0035640D309800031282004964  GGSL
TXBWIC21080-72693-05004-40000492D0002586D016080004882005004  GGSL
TXBWIC21080-72693-05005-10000684D0008760D017820004882005005  GGSL
TXBWIC21080-72693-05007-50000359D0010564D005480009682005007  GGSL
TXBWIC21080-72693-05200-00000212D0002258D004960001682030466  GGSL
TXBWIC21080-72693-05201-70000768D0004228D009120003682005201  GGSL
TXBWIC21080-72693-05202-40000546D0007240D007560001882005202  GGSL
TXBWIC21080-72693-06002-90001103D0018193D007440003682004318  GGSL
TXBWIC21080-72693-06003-60000772D0026424D004000002882004319  GGSL
TXBWIC21080-72693-08300-40001014C0000000D016320002982008300  GGSL
TXBWIC21080-72693-10002-20000016D0000208D000840000082004964  GGSL
TXBWIC21080-72693-10011-40000480D0004871D006000001282004317  GGSL
TXBWIC21080-72693-10012-10000005D0000105D000400000482210011  GGSL
TXBWIC21080-72693-10013-80000084D0000660D000300000082210012  GGSL
TXBWIC21080-72693-10231-60000018D0000150D002460000082210023  GGSL
TXBWIC21080-72693-14057-80000172D0012040D004400000583014005  GGSL
TXBWIC21080-72693-21037-00000624D0004007D021120000082021037  GGSL
TXBWIC21080-72693-24010-00000039D0001007D001350000482002401  GGSL
TXBWIC21080-72693-24030-80000298D0023910D005790001682002403  GGSL
TXBWIC21080-72693-24957-80000512D0002864D000860008782002495  GGSL
TXBWIC21080-72693-29101-00000013D0000715D001490000083012910  GGSL
TXBWIC21080-72693-29912-20000703D0008487D011870014683012991  GGSL
TXBWIC21080-72693-31550-10000004D0000660D000660000082300332  GGSL
TXBWIC21080-72693-31766-60000046D0000709D003420000082031766  GGSL
TXBWIC21080-72693-31866-30000024D0000291D000240000082031866  GGSL
TXBWIC21080-72693-31973-80000147D0003616D001870000082031973  GGSL
TXBWIC21080-72693-31975-20000113D0008364D002090000682031975  GGSL
TXBWIC21080-72693-31984-40001365D0016200D023830042082031984  GGSL
TXBWIC21080-72693-31985-10002269D0028726D015260043282031985  GGSL
TXBWIC21080-72693-33563-90000058D0004076D001660000783013356  GGSL
TXBWIC21080-72693-33688-90000036D0002744D002540000383013368  GGSL
TXBWIC21080-72693-33744-20000006D0000503D000210000083013374  GGSL
TXBWIC21080-72693-33850-00000068D0006769D001700000883013385  GGSL
TXBWIC21080-72693-33880-70000013D0001979D000380000083013388  GGSL
TXBWIC21080-72693-33953-80000499D0017847D003800004383013395  GGSL
TXBWIC21080-72693-34958-20000035D0002450D000830002583013884  GGSL
TXBWIC21080-72693-36208-60000245D0011214D001530001083013620  GGSL
TXBWIC21080-72693-38178-00000004D0000195D003120000083013817  GGSL
TXBWIC21080-72693-38528-30000006D0002483D000550000083013852  GGSL
TXBWIC21080-72693-38830-70000018D0000543D000000000083013833  GGSL
TXBWIC21080-72693-39988-40000002D0000277D000120000083013998  GGSL
TXBWIC21080-72693-39990-70000004D0001255D000000000083013999  GGSL
TXBWIC21080-72693-40010-80000020D0003209D001030000083014003  GGSL
TXBWIC21080-72693-40127-30000001D0000053D001040000083014012  GGSL
TXBWIC21080-72693-40177-80000390D0002110D014160001282104017  GGSL
TXBWIC21080-72693-41488-40000008D0000705D000000000483014148  GGSL
TXBWIC21080-72693-41878-30000236D0008682D007310005183014187  GGSL
TXBWIC21080-72693-44290-00000813D0010599D008450008182004429  GGSL
TXBWIC21080-72693-44410-20000938D0038204D023460003682004441  GGSL
TXBWIC21080-72693-44430-00000290D0040843D006120000482004443  GGSL
TXBWIC21080-72693-44650-20000120D0002429D001410000082004465  GGSL
TXBWIC21080-72693-44660-10000078D0004505D000550000482004466  GGSL
TXBWIC21080-72693-45000-40000180D0001229D007290004882004500  GGSL
TXBWIC21080-72693-45010-30000636D0006253D006320015682004501  GGSL
TXBWIC21080-72693-45020-20000372D0005375D008160002482004502  GGSL
TXBWIC21080-72693-45030-10000066D0003295D011490000082994503  GGSL
TXBWIC21080-72693-45115-50000024D0000178D004620000082004511  GGSL
TXBWIC21080-72693-45530-60000006D0000214D000380000082004553  GGSL
TXBWIC21080-72693-46930-30000248D0002103D003720008482004693  GGSL
TXBWIC21080-72693-46950-10000062D0001695D001580000082004695  GGSL
TXBWIC21080-72693-46970-90000019D0002778D000780000082004697  GGSL
TXBWIC21080-72693-50064-80000394D0003727D006240183682005006  GGSL
TXBWIC21080-72693-50096-90000015D0001504D000280000782005009  GGSL
TXBWIC21080-72693-69370-80000036D0000250D001440001282690037  GGSL
TXBWIC21080-72693-70004-80000060D0000536D004280000082770008  GGSL
TXBWIC21080-72693-77034-80000243D0002554D002800002482770003  GGSL
TXBWIC21080-72693-81001-30000015D0000220D000270000682810002  GGSL
TXBWIC21080-72693-82104-00001876D0062863D029240005082100005  GGSL
TXBWIC21080-72693-82303-70000312D0001779D010680000082300001  GGSL
TXBWIC21080-72711-60018-30000001D0000041D000190000360012     GGSL
TXBWIC21080-72725-00023-80000148D0002034D0016800000HBB-128   GGSL
TXBWIC21080-72725-00087-00000048D0000196D0000000024RA-16     GGSL
TXBWIC21080-72725-00158-70000016D0000646D0014400004BLKBB-128 GGSL
TXBWIC21080-72725-00160-00000012D0000057D0000000000bar-16    GGSL
TXBWIC21080-72725-00183-90000036D0000504D0003300000BLKBB-326 GGSL
TXBWIC21080-72725-00213-30000024D0000190D0005700000BLKBB-16A GGSL
TXBWIC21080-72725-00214-00000003D0000021D0008100000BLKBB-P4  GGSL
TXBWIC21080-72725-00215-40000008D0000234D0002000000BBKIT-LGVPGGSL
TXBWIC21080-72725-00218-80000004D0000205D0000000000BLKBB-KIT GGSL
TXBWIC21080-72725-00242-30000048D0000099D0000000000BLKRAT-1  GGSL
TXBWIC21080-72725-00259-10000012D0000054D0040800000CR-32     GGSL
TXBWIC21080-72725-00269-00000129D0001165D0045900333DE-FG105P GGSL
TXBWIC21080-72725-00407-60000132D0000849D0026400024DE-FG2P   GGSL
TXBWIC21080-72725-00408-30000200D0001840D0024800296DE-FG4P   GGSL
TXBWIC21080-72725-00461-80000036D0000111D0000000528360-32S   GGSL
TXBWIC21080-72725-00462-50000012D0000204D0000000000GOLDBB-326GGSL
TXBWIC21080-72725-00574-50000001D0000221D0000000000GOLDBB-34 GGSL
TXBWIC21080-72868-00000-00000528D0000408D0532800384M330      GGSL
TXBWIC21080-72868-00300-40000552D0001679D0086400024M6006     GGSL
TXBWIC21080-72868-00326-40005736D0008597D1898400624M326      GGSL
TXBWIC21080-72868-00800-90000072D0000883D0103200084M6009     GGSL
TXBWIC21080-72868-02000-10000012D0000180D0004200000M9015     GGSL
TXBWIC21080-72868-02220-30000176D0001151D0108000032M6004     GGSL
TXBWIC21080-72868-02300-20000006D0000038D0001800000M7001-1   GGSL
TXBWIC21080-72868-02400-90000016D0000193D0028800000M7002-2   GGSL
TXBWIC21080-72868-03620-00000169D0012185D0017000079VP362     GGSL
TXBWIC21080-72868-03630-90000327D0002447D0303900000VP363     GGSL
TXBWIC21080-72868-03648-40000936D0009953D0089400024VP364B    GGSL
TXBWIC21080-72868-09320-30008352D0001598D1778400000M320      GGSL
TXBWIC21080-72868-11751-00000024D0000183D0009600006M751K     GGSL
TXBWIC21080-72868-13035-90000912D0000799D0655200072M035      GGSL
TXBWIC21080-72868-13200-10001296D0001890D0236400228200R      GGSL
TXBWIC21080-72868-13308-40000072D0000735D0054800036M308      GGSL
TXBWIC21080-72868-13309-10021528D0004165D4572000072M309      GGSL
TXBWIC21080-72868-13325-10008424D0003323D8330400576M325      GGSL
TXBWIC21080-72868-13327-50004500D0000944D1110000000M327      GGSL
TXBWIC21080-72868-54002-80000444D0000724D0380400000M668      GGSL
TXBWIC21080-72868-54102-50000948D0001791D0777400072M669      GGSL
TXBWIC21080-72874-06947-60000012D0000038D00348000008438S     GGSL
TXBWIC21080-72874-06948-30000012D0000037D00192000128442X     GGSL
TXBWIC21080-72874-06949-00000012D0000037D00156000008442L     GGSL
TXBWIC21080-72874-07747-10000012D0000038D00132000008438M     GGSL
TXBWIC21080-72874-08550-60000006D0000030D00066000004063L     GGSL
TXBWIC21080-72874-08551-30000006D0000030D00054000004063X     GGSL
TXBWIC21080-72874-40940-10000012D0000048D00024000004094L     GGSL
TXBWIC21080-72874-40945-60000036D0000146D00084000004094J     GGSL
TXBWIC21080-73035-01310-90000096D0000366D000000006001310     GGSL
TXBWIC21080-73035-02610-90000960D0000397D032000000002610     GGSL
TXBWIC21080-73035-02611-60000160D0000064D025600000002611     GGSL
TXBWIC21080-73035-02612-30000640D0000250D043200000002612     GGSL
TXBWIC21080-73035-04226-00000050D0000217D001850038004226     GGSL
TXBWIC21080-73035-06002-80000006D0000004D000060000006001     GGSL
TXBWIC21080-73035-06127-80000008D0000031D002880026406127     GGSL
TXBWIC21080-73035-06703-40000012D0000033D003960031206703     GGSL
TXBWIC21080-73035-09326-20000006D0000041D000000000009326     GGSL
TXBWIC21080-73035-09364-40000006D0000050D000120000009364     GGSL
TXBWIC21080-73035-09523-50000003D0000061D000030000909523     GGSL
TXBWIC21080-73035-09526-60000006D0000037D000060000009526     GGSL
TXBWIC21080-73035-25001-60000010D0000220D000000017505031T    GGSL
TXBWIC21080-73561-00022-20000114D0000520D00654002162000221   GGSL
TXBWIC21080-73561-00028-40000210D0001541D01212000241000283   GGSL
TXBWIC21080-73561-00042-00000378D0001689D06520001562000422   GGSL
TXBWIC21080-73561-00044-40000018D0000153D00072000781000441   GGSL
TXBWIC21080-73561-00055-00000570D0001504D00846002461000551   GGSL
TXBWIC21080-73561-00070-30000042D0000195D00468000061000701   GGSL
TXBWIC21080-73561-00099-40000996D0002098D02550000482000992   GGSL
TXBWIC21080-73561-00119-90000004D0000083D00196000001001193   GGSL
TXBWIC21080-73561-00150-20000042D0000207D00276001803001502   GGSL
TXBWIC21080-73561-00157-10000060D0000090D0000000036400157    GGSL
TXBWIC21080-73561-00183-00000030D0000351D00018000001001834   GGSL
TXBWIC21080-73561-00190-80000222D0000688D0012600096100195    GGSL
TXBWIC21080-73561-00192-20000168D0000879D00660000061001921   GGSL
TXBWIC21080-73561-00199-10000132D0000364D00348000361001991   GGSL
TXBWIC21080-73561-00252-30000984D0000980D00456018481002522   GGSL
TXBWIC21080-73561-00410-70000162D0001839D01194001261004102   GGSL
TXBWIC21080-73561-00432-90000168D0001955D00288000061004325   GGSL
TXBWIC21080-73561-00440-40000030D0000235D00048000301004402   GGSL
TXBWIC21080-73561-00475-60000006D0000051D00030000001004751   GGSL
TXBWIC21080-73561-00531-90000252D0000721D00780002881000532   GGSL
TXBWIC21080-73561-00590-60000084D0000250D00132001381005901   GGSL
TXBWIC21080-73561-00600-20000012D0000062D00066000903006002   GGSL
TXBWIC21080-73561-00720-70000174D0000658D0012000168100720    GGSL
TXBWIC21080-73561-01611-70000144D0001732D00030000001016111   GGSL
TXBWIC21080-73561-03836-20000030D0000349D00084000061038361   GGSL
TXBWIC21080-73561-10114-10000582D0006590D00388000001011410   GGSL
TXBWIC21080-73561-30019-30000053D0000641D01038000003001910   GGSL
TXBWIC21080-73561-30034-60000064C0000641C00018000003003410   GGSL
TXBWIC21080-73561-30053-70000006D0000038D00006000003005310   GGSL
TXBWIC21080-73561-36001-20000564D0001748D01146003241360011   GGSL
TXBWIC21080-73561-46001-90000066D0000627D0036600162146002    GGSL
TXBWIC21080-73561-48510-40000261D0001496D00348000154851012   GGSL
TXBWIC21080-73561-48520-30000183D0001143D00255003154852012   GGSL
TXBWIC21080-73561-60101-60000984D0003050D0418700396160101    GGSL
TXBWIC21080-73561-70101-30000240D0002283D0148800192170101    GGSL
TXBWIC21080-73561-75001-10000204D0000732D00582003241750011   GGSL
TXBWIC21080-73561-85001-80000024D0000235D00234000061850011   GGSL
TXBWIC21080-73889-10004-80000372D0001866D00880002641273      GGSL
TXBWIC21080-74514-57625-20001386D0004721D0037200606HG-95715  GGSL
TXBWIC21080-76807-00020-80000528D0000348D004320000046310     GGSL
TXBWIC21080-76807-00050-50000264D0000420D001920000046100     GGSL
TXBWIC21080-76807-00100-70000020D0000028D000800000046120     GGSL
TXBWIC21080-77342-14494-70000015D0000135D00005001108073807CS GGSL
TXBWIC21080-77625-81082-60000044D0000557D00114000048108-2    GGSL
TXBWIC21080-77625-81092-50000070D0000891D00166000048109-2    GGSL
TXBWIC21080-77784-05460-40000001D0000021D00074000005460      GGSL
TXBWIC21080-78627-01912-50000465D0007180D0018501035CSNFA12050GGSL
TXBWIC21080-78627-34824-90000002D0000134D0000600000CSNCG34100GGSL
TXBWIC21080-78627-58822-50000075D0001865D0004900010CSNCG58050GGSL
TXBWIC21080-78627-58823-20000003D0000112D0000900000CSNCG58075GGSL
TXBWIC21080-78627-58824-90000024D0001267D0006600003CSNCG58100GGSL
TXBWIC21080-78627-58832-40000054D0001324D0021600025SNFR58050 GGSL
TXBWIC21080-78627-58834-80000076D0003461D0007700004SNFR58100 GGSL
TXBWIC21080-78627-67582-60000105D0002955D0039000010CSNFXP5805GGSL
TXBWIC21080-78627-67583-30000030D0001156D0000000003CSNFXP5807GGSL
TXBWIC21080-78627-67584-00000069D0003949D0021600003CSNFXP5810GGSL
TXBWIC21080-78627-99381-40000036D0000253D0007200000CELSP38025GGSL
TXBWIC21080-78978-02300-00000012D0000029D000000000023T       GGSL
TXBWIC21080-78978-02400-70000111D0000247D002250005168        GGSL
TXBWIC21080-78978-05045-70000008D0000026D00128001169100      GGSL
TXBWIC21080-78978-06700-40000021D0000030D001080002767        GGSL
TXBWIC21080-78978-10158-60000018D0000256D00066000008117-2    GGSL
TXBWIC21080-78978-21087-50000230D0001760D0023100153203CPBN   GGSL
TXBWIC21080-78978-21089-90000054D0000720D0032900003209B      GGSL
TXBWIC21080-78978-21090-50000016D0000170D0006000000210PB     GGSL
TXBWIC21080-78978-21520-70000072D0000221D0007200000215P      GGSL
TXBWIC21080-78978-21720-10000036D0000279D0007200000217       GGSL
TXBWIC21080-78978-22000-30000015D0000218D0077400006220-6     GGSL
TXBWIC21080-78978-23153-50000084D0000052D0146400012231-12    GGSL
TXBWIC21080-78978-23900-50000144D0000693D0109500030239       GGSL
TXBWIC21080-78978-27300-90000018D0000058D0021000000273       GGSL
TXBWIC21080-78978-33600-10000048D0000924D0010300066336       GGSL
TXBWIC21080-78978-33800-50000034D0000856D0005100011338       GGSL
TXBWIC21080-78978-33900-20000001D0000024D0000000004339       GGSL
TXBWIC21080-78978-54699-80000012D0000222D0000400000MCF001    GGSL
TXBWIC21080-78978-55002-50000222D0000310D0155400108240SF     GGSL
TXBWIC21080-78978-55005-60000036D0000053D0043800024243SF     GGSL
TXBWIC21080-78978-57084-90000012D0000138D00054001383266      GGSL
TXBWIC21080-78978-60100-00000006D0000072D00270001449201-6    GGSL
TXBWIC21080-78978-60201-40000004D0000086D00000000589110-2    GGSL
TXBWIC21080-78978-64863-00000005D0000082D0000200000312R      GGSL
TXBWIC21080-78978-70046-80000022D0000358D00070000249109-2    GGSL
TXBWIC21080-78978-78500-70000023D0000318D0007400000785       GGSL
TXBWIC21080-78978-81322-90000024D0000316D00120000088132-2    GGSL
TXBWIC21080-78978-92818-30000012D0000187D0004000000HF940     GGSL
TXBWIC21080-78978-96327-60000057D0000360D0024500006238       GGSL
TXBWIC21080-84369-00001-70000057D0000645D0048000006PDF1RED   GGSL
TXBWIC21080-84369-00003-10000174D0001213D0010500012HP3       GGSL
TXBWIC21080-84369-00015-40000018D0000411D0000900006HP15      GGSL
TXBWIC21080-84369-00032-10000282D0001118D0063000012AW32      GGSL
TXBWIC21080-84369-00068-00000002D0000011D0000000001HP8       GGSL
TXBWIC21080-84369-00071-00000033D0000468D0001400005PSB70RED  GGSL
TXBWIC21080-84369-00073-40000014D0000168D0001400005PSB70BLUE GGSL
TXBWIC21080-84369-00090-10000094D0000307D007930001290        GGSL
TXBWIC21080-84369-00112-00000002D0000047D0000000002CH12      GGSL
TXBWIC21080-84369-00115-10000042D0000473D0023800000HF12RED   GGSL
TXBWIC21080-84369-00125-00000011D0000301D0000300012CH25      GGSL
TXBWIC21080-84369-00150-20000018D0000766D0000000000CH50      GGSL
TXBWIC21080-84369-00188-50000001D0000034D000000000088ESW     GGSL
TXBWIC21080-84369-00200-40000006D0000022D0021000000HP2       GGSL
TXBWIC21080-84369-00310-00000019D0000426D0002600001PW13      GGSL
TXBWIC21080-84369-00324-70000060D0000134D0085200000PS32BLUE  GGSL
TXBWIC21080-84369-00650-70000006D0000067D0018600024HP650     GGSL
TXBWIC21080-84369-00666-80000072D0000112D0015600000666       GGSL
TXBWIC21080-84369-00680-40000048D0000087D0063600000680       GGSL
TXBWIC21080-84369-00690-30000432D0000474D0763200000690       GGSL
TXBWIC21080-84369-00730-60000072D0000070D0026400000730       GGSL
TXBWIC21080-84369-00740-50000324D0000318D0576000000740       GGSL
TXBWIC21080-84369-00780-10000048D0000101D0024000024780       GGSL
TXBWIC21080-84369-00785-60000005D0000017D0012500001P8FBBLACK GGSL
TXBWIC21080-84369-00786-30000006D0000024D0017400000P8FBBLUE  GGSL
TXBWIC21080-84369-00789-40000007D0000024D0009400002P8FBRED   GGSL
TXBWIC21080-84369-00820-40000024D0000074D0068400000820       GGSL
TXBWIC21080-84369-00825-90000132D0001071D0011300024TM825     GGSL
TXBWIC21080-84369-01009-20000024D0000136D0003600000AF3SL     GGSL
TXBWIC21080-84369-01013-90000048D0000289D0018000000AF5SL     GGSL
TXBWIC21080-84369-01017-70000059D0000396D0019200000AF7SL     GGSL
TXBWIC21080-84369-01018-40000011D0000251D0007200000AH2424    GGSL
TXBWIC21080-84369-01020-70000011D0000332D0005000000AH3030    GGSL
TXBWIC21080-84369-01039-90000024D0000036D0002400012SSH2      GGSL
TXBWIC21080-84369-01040-50000009D0000070D0014300012ACP2      GGSL
TXBWIC21080-84369-01045-00000132D0000290D0008400000ACC1      GGSL
TXBWIC21080-84369-01110-50000001D0000021D0003600000LT1       GGSL
TXBWIC21080-84369-01140-20000011D0000455D0004500000LT4       GGSL
TXBWIC21080-84369-01830-20000186D0002381D0001200018TM830     GGSL
TXBWIC21080-84369-02001-50000003D0000018D0018400000P20FBBLUE GGSL
TXBWIC21080-84369-02002-20000013D0000080D0059300006P20FBGREENGGSL
TXBWIC21080-84369-02003-90000025D0000154D0052300006P20FBRED  GGSL
TXBWIC21080-84369-02008-40000009D0000056D0013800007P20FBBLACKGGSL
TXBWIC21080-84369-02009-10000009D0000046D0005900000P20FBPURPLGGSL
TXBWIC21080-84369-02010-70000005D0000025D0001000000P20FBNAVY GGSL
TXBWIC21080-84369-02013-80000015D0000077D0012500000P20FBTEAL GGSL
TXBWIC21080-84369-04043-30000033D0000527D0019800000914043    GGSL
TXBWIC21080-84369-04173-70000006D0000113D0003000000914273    GGSL
TXBWIC21080-84369-07500-80000036D0000066D0055200000750       GGSL
TXBWIC21080-84369-09112-10000102D0001221D01308000549112      GGSL
TXBWIC21080-84369-09144-20000006D0000017D00032000069144      GGSL
TXBWIC21080-84369-09203-60000008D0000048D00018000039203      GGSL
TXBWIC21080-84369-09312-50000012D0000038D00504000009312      GGSL
TXBWIC21080-84369-09616-40000036D0000826D0049600000PPF3      GGSL
TXBWIC21080-84369-09617-10000044D0001249D0022400000PPF5      GGSL
TXBWIC21080-84369-09618-80000012D0000393D0003800000PPF7      GGSL
TXBWIC21080-84369-09640-90000024D0000156D0000000000TAP1      GGSL
TXBWIC21080-84369-09655-30000060D0000366D0192000000PHF3      GGSL
TXBWIC21080-84369-09656-00000030D0000380D0121200006PHF11     GGSL
TXBWIC21080-84369-09657-70000008D0000156D0008400006PHF22     GGSL
TXBWIC21080-84369-09808-30000012D0000019D00144000249808      GGSL
TXBWIC21080-84369-09810-60000012D0000027D01116000009810      GGSL
TXBWIC21080-84369-09814-40000060D0000119D00972000009814      GGSL
TXBWIC21080-84369-09822-90000048D0000115D00576000009822      GGSL
TXBWIC21080-84369-09826-70000012D0000016D00000000009826      GGSL
TXBWIC21080-84369-09832-80000032D0000564D00112000049832      GGSL
TXBWIC21080-84369-09833-50000048D0001053D00396000009833      GGSL
TXBWIC21080-84369-09835-80000022D0000575D00098000069835      GGSL
TXBWIC21080-84369-15041-50000024D0000077D0002400012150415    GGSL
TXBWIC21080-84369-15044-60000014D0000506D0000500003150446    GGSL
TXBWIC21080-84369-15045-30000001D0000083D0000000001HGFS      GGSL
TXBWIC21080-84369-15055-20000001D0000009D0000200000150552    GGSL
TXBWIC21080-84369-15056-90000003D0000036D0000500000150569    GGSL
TXBWIC21080-84369-15057-60000002D0000030D0000000000150576    GGSL
TXBWIC21080-84369-15059-00000001D0000019D0000000000150590    GGSL
TXBWIC21080-84369-15091-00000002D0000085D0000000000150910    GGSL
TXBWIC21080-84369-15099-60000012D0000019D0007200012ACU2BLACK GGSL
TXBWIC21080-84369-15224-20000005D0000052D0006600000152242    GGSL
TXBWIC21080-84369-15225-90000003D0000039D0002200001152259    GGSL
TXBWIC21080-84369-15226-60000008D0000140D0001300004152266    GGSL
TXBWIC21080-84369-15330-00000072D0000157D0217200000806RED    GGSL
TXBWIC21080-84369-15379-90000007D0000035D0009000006P20FBHOTPIGGSL
TXBWIC21080-84369-15381-20000018D0000111D0017700000P20FBLIMEGGGSL
TXBWIC21080-84369-15401-70000003D0000010D0001400000P8FBBERRYBGGSL
TXBWIC21080-84369-15406-20000009D0000049D0009400000P20FBBERRYGGSL
TXBWIC21080-84369-15439-00000018D0000213D0006100018FF16RED   GGSL
TXBWIC21080-84369-15441-30000018D0000153D0033600012FF11RED   GGSL
TXBWIC21080-84369-15494-90000030D0000312D00805000007906      GGSL
TXBWIC21080-84369-15730-80000001D0000067D0006400000157308    GGSL
TXBWIC21080-84369-15747-60000004D0000150D00129000006300      GGSL
TXBWIC21080-84369-15749-00000001D0000013D00009000026302      GGSL
TXBWIC21080-84369-15750- 0000002D0000006D00114000056303      GGSL
TXBWIC21080-84369-16638-60000001D0000025D0001000007166386    GGSL
TXBWIC21080-84369-17001-70000044D0000397D0905700004170017    GGSL
TXBWIC21080-84369-17002-40000036D0000186D1293600000170024    GGSL
TXBWIC21080-84369-17003-10000012D0000034D0614400000170031    GGSL
TXBWIC21080-84369-17056-70000018D0000186D0014200000GOT2      GGSL
TXBWIC21080-84369-17057-40000015D0000164D0007300003GOT4      GGSL
