NJARET21090-10052-00333-10000036D0000166D000020000000333     GGSL
NJARET21090-10367-00001-80000045D0000187D00016000020001      GGSL
NJARET21090-10367-00460-30000088D0000548D000000000004608     GGSL
NJARET21090-10367-00470-20000096D0001176D00000000000470      GGSL
NJARET21090-10367-01110-60000056D0000220D00065000031110      GGSL
NJARET21090-10367-01111-30000048D0000188D00013000041111      GGSL
NJARET21090-10367-01112-00000016D0000063D00083000021112      GGSL
NJARET21090-10367-01120-50000208D0000807D00031000051120      GGSL
NJARET21090-10367-01122-90000008D0000047D00000000001122      GGSL
NJARET21090-10367-01130-40000200D0001218D00000000001130      GGSL
NJARET21090-10367-01160-10000216D0001689D00005000021160      GGSL
NJARET21090-10367-02151-80000104D0000779D0000700007ML2151    GGSL
NJARET21090-10367-03010-70000064D0000378D0000000000ML3010    GGSL
NJARET21090-11192-86019-80000012D0000090D0001100000KMG6      GGSL
NJARET21090-11423-32501-40000028D0000178D0000000000HG42501   GGSL
NJARET21090-11423-94109-20000012D0000024D000370000194109     GGSL
NJARET21090-11423-94127-60000132D0000708D0000500005HG64127   GGSL
NJARET21090-12587-60035-10000004D0000035D001380000060035     GGSL
NJARET21090-12587-70028-00000012D0000067D003590000070028     GGSL
NJARET21090-12587-78361-00000012D0000106D000580000078361     GGSL
NJARET21090-12587-79008-30000006D0000053D000790000079008     GGSL
NJARET21090-13887-16800-80000002D0000000D0000000000WB6800PB  GGSL
NJARET21090-13887-20000-50000001D0000068D0002700001WCR20000  GGSL
NJARET21090-14306-92177-80000003D0000097D0000000000US395116  GGSL
NJARET21090-14306-92433-50000018D0000729D0000000000US225688  GGSL
NJARET21090-14306-92461-80000005D0000094D0000000000US296116  GGSL
NJARET21090-14306-92464-90000002D0000036D0000000000US569102  GGSL
NJARET21090-14306-92465-60000001D0000028D0000000000US669102  GGSL
NJARET21090-14306-92836-40000010D0000185D0000000000US643688  GGSL
NJARET21090-14306-92838-80000006D0000163D0000500003US804688  GGSL
NJARET21090-14306-92840-10000006D0000221D0000000000US900688  GGSL
NJARET21090-14306-92844-90000005D0000094D0000000000US295700  GGSL
NJARET21090-14306-92845-60000010D0000188D0000200001US295702  GGSL
NJARET21090-14306-92849-40000006D0000193D0000000000US395702  GGSL
NJARET21090-14306-92962-00000006D0000243D0000000000US225687  GGSL
NJARET21090-14400-10731-30000005D0000048D00000000001440010731GGSL
NJARET21090-14400-16011-00000006D0000063D00003000001440016011GGSL
NJARET21090-14400-21411-00000012D0000099D00049000001440021411GGSL
NJARET21090-14400-61000-40000043D0000468D000000000061000     GGSL
NJARET21090-14400-62000-30000007D0000089D000110001162000     GGSL
NJARET21090-14400-69046-40000008D0000078D00000000001440069046GGSL
NJARET21090-14400-71265-40000024D0000087D00000000001440071265GGSL
NJARET21090-14400-71400-90000012D0000031D00000000001440071400GGSL
NJARET21090-14400-81200-20000003D0000034D00000000001440081200GGSL
NJARET21090-14400-81400-60000029D0000376D00000000001440081400GGSL
NJARET21090-15561-20207-70000001D0000297D0000000000PT207     GGSL
NJARET21090-15561-20209-10000001D0000312D0000000000PT209     GGSL
NJARET21090-15561-21299-10000001D0000022D0000000000PT1299    GGSL
NJARET21090-15759-01306-50000004D0000096D0000000000R1251BGX  GGSL
NJARET21090-15759-01308-90000012D0000202D0000000000R1253B    GGSL
NJARET21090-16069-00005-90000012D0000091D0002800000TP15C     GGSL
NJARET21090-16069-00008-00000012D0000080D0006100043BN2       GGSL
NJARET21090-16069-00013-40000012D0000361D0002600000BN3       GGSL
NJARET21090-16069-00014-10000030D0000686D0001400002BN4       GGSL
NJARET21090-16069-00032-50000084D0000947D0008600000HG25      GGSL
NJARET21090-16069-00033-20000024D0000541D0002400000HG50      GGSL
NJARET21090-16069-00038-70000024D0000234D0000200000GF1015    GGSL
NJARET21090-16069-00049-30000192D0003599D0000500003DX7       GGSL
NJARET21090-16069-00050-90000072D0002198D0002200001DX14      GGSL
NJARET21090-16069-00076-90000108D0000568D0004200005PN10      GGSL
NJARET21090-16069-00079-00000006D0000202D0001500000PN28      GGSL
NJARET21090-16069-00218-30000012D0000073D0001500000HST100    GGSL
NJARET21090-16069-00393-70000048D0000183D0002700000GS20      GGSL
NJARET21090-16069-00393-70000108D0000404D0000000000GS20C     GGSL
NJARET21090-16069-00394-40000002D0000108D0001100007PN45      GGSL
NJARET21090-16069-00478-10000060D0002650D0000000000SRHO4     GGSL
NJARET21090-16069-00479-80000004D0000106D0007400002E316B     GGSL
NJARET21090-16069-00498-90000054D0000595D0018400002HGP1012   GGSL
NJARET21090-16069-00499-60000016D0000260D0015600000HGP1020   GGSL
NJARET21090-16069-00518-40000024D0000121D0001300001SG2512    GGSL
NJARET21090-16069-00667-90001272D0027094D0000300005RH04US    GGSL
NJARET21090-16500-54010-60000012D0000057D000030000054010     GGSL
NJARET21090-17500-08120-00000264D0000381D001480000008120     GGSL
NJARET21090-17500-08150-70000552D0000878D001170000008150     GGSL
NJARET21090-17500-08150-70000660D0001049D002600007708150M    GGSL
NJARET21090-17500-91714-10000004D0000092D000000000091714     GGSL
NJARET21090-17500-95204-30000004D0000084D000000000095204     GGSL
NJARET21090-18222-00017-30000003D0000520D0000200000PP17      GGSL
NJARET21090-18222-00101-90000186D0000477D0004000007CS06101   GGSL
NJARET21090-18222-00103-30000030D0000096D0001900003CS06103   GGSL
NJARET21090-18222-00105-70000150D0000397D0006900021CS06105   GGSL
NJARET21090-18222-00107-10000048D0000201D0009000008CS06107   GGSL
NJARET21090-18222-00109-50000156D0000395D0005900012CS06109   GGSL
NJARET21090-18222-00110-10000042D0000128D0002900008CS06110   GGSL
NJARET21090-18222-00501-70001176D0001752D0002200020CS12501   GGSL
NJARET21090-18222-00505-50000336D0000395D0007900001CS12505   GGSL
NJARET21090-18222-00507-90000216D0000304D0007300006CS12507   GGSL
NJARET21090-18222-00509-30000168D0000276D0011900002CS12509   GGSL
NJARET21090-18222-00513-00000132D0000307D0000600001CS12513   GGSL
NJARET21090-18222-00526-00000108D0000286D0003000030CS06526   GGSL
NJARET21090-18222-00527-70000216D0000340D0003000007CS12527   GGSL
NJARET21090-18222-00529-10000024D0000042D0006000002CS12529   GGSL
NJARET21090-18222-00531-40000252D0000598D0009100012CS12531   GGSL
NJARET21090-18222-00535-20000072D0000119D0005300002CS12535   GGSL
NJARET21090-18222-00543-70000084D0000105D0005200000CS12543   GGSL
NJARET21090-18222-00545-10000060D0000111D0003200001CS12545   GGSL
NJARET21090-18222-00553-60000132D0000234D0000800001CS12553   GGSL
NJARET21090-18222-00559-80000108D0000174D0009500002CS12559   GGSL
NJARET21090-18222-00561-10000036D0000065D0003400003CS12561   GGSL
NJARET21090-18222-00563-50000012D0000022D0001700000CS12563   GGSL
NJARET21090-18222-00565-90000084D0000180D0000500001CS12565   GGSL
NJARET21090-18222-00569-70000288D0000526D0006700016CS12569   GGSL
NJARET21090-18222-00571-00000132D0000294D0003700002CS12571   GGSL
NJARET21090-18222-00583-30000204D0000479D0004200007CS12583   GGSL
NJARET21090-18222-00608-30000036D0000109D0000600000CS608     GGSL
NJARET21090-18222-00701-10000128D0000239D0000300003CS701     GGSL
NJARET21090-18222-00730-10000112D0000236D0013900000CS730     GGSL
NJARET21090-18222-00749-30000012D0000067D0000000000CS749     GGSL
NJARET21090-18222-00753-00000008D0000041D0000400000CS753     GGSL
NJARET21090-18222-00950-30000048D0000056D0003300000CS950     GGSL
NJARET21090-18222-50527-20000072D0000087D0009000001CS1250527XGGSL
NJARET21090-18222-50559-30000036D0000045D0008900003CS1250559XGGSL
NJARET21090-18506-00102-50000060D0000262D000350000010212     GGSL
NJARET21090-18506-00110-00000012D0000089D000930000011012     GGSL
NJARET21090-18506-00116-20000276D0001929D000220000011612     GGSL
NJARET21090-18506-00117-90000012D0000129D00029000001176      GGSL
NJARET21090-18506-02001-90000030D0000343D00016000072001      GGSL
NJARET21090-18506-02001-90000001D0000359D000000000020202     GGSL
NJARET21090-19200-00095-60000078D0000192D001920006000027     GGSL
NJARET21090-19200-00619-40000372D0001267D012200000400706     GGSL
NJARET21090-19200-00619-40000024D0000079D000760001700706M    GGSL
NJARET21090-19200-78033-90000030D0000112D00146000001920078033GGSL
NJARET21090-19200-78626-30000063D0000163D003070000078626     GGSL
NJARET21090-19200-78914-10000084D0000197D001860000078914     GGSL
NJARET21090-19200-79329-20000696D0003424D000000000079329M    GGSL
NJARET21090-19200-79838-90000024D0000114D001590000079838     GGSL
NJARET21090-19200-83262-50000060D0000205D00102000061920082362GGSL
NJARET21090-19200-83623-40000036D0000279D008080000083623     GGSL
NJARET21090-19200-83721-70000724D0001853D003350008083721     GGSL
NJARET21090-19200-83722-40000008D0000023D003300000283722     GGSL
NJARET21090-19200-89289-60000396D0001049D000000000089289     GGSL
NJARET21090-19200-89973-40000028D0000455D000230000589973     GGSL
NJARET21090-19200-98665-60000064D0000284D000900000098665     GGSL
NJARET21090-19200-98666-30000040D0000244D000570000098666     GGSL
NJARET21090-19263-25010-70000005D0000433D00004000042501      GGSL
NJARET21090-19263-25030-50000008D0001110D00016000072503      GGSL
NJARET21090-19263-25035-00000060D0001828D0001300001250350    GGSL
NJARET21090-19263-25040-40000008D0001112D00004000042504      GGSL
NJARET21090-19263-25045-90000092D0003766D0000200002250450    GGSL
NJARET21090-19263-25050-30000003D0000517D00001000012505      GGSL
NJARET21090-19263-25055-80000048D0002424D0004600002250550    GGSL
NJARET21090-19263-25510-20001175D0002526D00255000042551      GGSL
NJARET21090-19263-25520-10001425D0003534D00201000082552      GGSL
NJARET21090-19263-25530-00002050D0005843D00130000152553      GGSL
NJARET21090-19263-25540-90000675D0002275D00198000092554      GGSL
NJARET21090-19263-25550-80000325D0001394D00079000002555      GGSL
NJARET21090-19263-25670-30000018D0000257D00031000002567      GGSL
NJARET21090-19263-25680-20000036D0000703D00023000002568      GGSL
NJARET21090-19263-25750-20000240D0001574D00023000012575      GGSL
NJARET21090-19263-25760-10000576D0004860D00001000012576      GGSL
NJARET21090-19263-25770-00000090D0001096D00014000042577      GGSL
NJARET21090-19263-25780-90000135D0003073D00042000032578      GGSL
NJARET21090-19263-25950-60000252D0000300D00042000102595      GGSL
NJARET21090-19263-26050-20000200D0000276D00007000002605      GGSL
NJARET21090-19263-26100-40000024D0000083D00000000002610      GGSL
NJARET21090-19263-26170-70000010D0000267D00000000002617      GGSL
NJARET21090-19263-26210-00000072D0000674D00092000032621      GGSL
NJARET21090-19263-26300-80000360D0000868D00037000002630      GGSL
NJARET21090-19263-26310-70000312D0000883D00077000002631      GGSL
NJARET21090-19263-26310-70000144D0000406D00008000002633      GGSL
NJARET21090-19263-26320-30000144D0000350D00000000002632      GGSL
NJARET21090-19263-26560-60000016D0000105D0000000000 2656     GGSL
NJARET21090-19263-26560-60000144D0002072D00092000002656      GGSL
NJARET21090-19962-19710-90000020D0000308D0000000000AP8595098 GGSL
NJARET21090-21344-00321-20000004D0000123D0008300000WX15064   GGSL
NJARET21090-21344-00322-90000008D0000278D0004900000WX15065   GGSL
NJARET21090-21344-00337-30000001D0000093D0000100000WX16809   GGSL
NJARET21090-21344-00339-70000015D0001654D0045200052400339    GGSL
NJARET21090-21344-00340-30000011D0001642D0066000027400340    GGSL
NJARET21090-21344-00344-10000018D0000161D0001200000400344    GGSL
NJARET21090-21344-00345-80000018D0000165D0005500000400345    GGSL
NJARET21090-21344-00346-50000006D0000054D0005800000400346    GGSL
NJARET21090-21344-00350-20000004D0000080D0009700000400350    GGSL
NJARET21090-21344-00354-00000002D0000090D0000200002HQ73481784GGSL
NJARET21090-21344-00361-80000002D0000067D0002400003HQ74912297GGSL
NJARET21090-21344-00362-50000001D0000074D0015700012HQMUSH    GGSL
NJARET21090-21344-00364-90000003D0001159D0000000000400364    GGSL
NJARET21090-21344-00366-30000024D0000456D0000000000WXPUMP    GGSL
NJARET21090-21344-00380-90000001D0000186D0004700000JFG18026  GGSL
NJARET21090-21344-00381-60000006D0000557D0000000000JFG18031  GGSL
NJARET21090-21344-00382-30000018D0001999D0005600000JFG18032  GGSL
NJARET21090-21344-00389-20000010D0000145D0005300000JFG18004  GGSL
NJARET21090-21344-00391-50000004D0000144D0005800000JFG18010B GGSL
NJARET21090-21344-00392-20000012D0000095D0003600000JFG18002  GGSL
NJARET21090-21344-00393-90000006D0000200D0000700000JFG18008A GGSL
NJARET21090-21344-00395-30000004D0000124D0003700001JFG18006  GGSL
NJARET21090-21344-00397-70000006D0000333D0008100001JFG18018  GGSL
NJARET21090-21344-00398-40000001D0000073D0009700006JFG18042  GGSL
NJARET21090-21344-00403-50000006D0000143D0007300003ZT152072  GGSL
NJARET21090-21344-00407-30000001D0000073D0009600002ZT185016  GGSL
NJARET21090-21344-00423-30000110D0014485D0063300003WX17658   GGSL
NJARET21090-21344-00719-70000006D0000149D0010600000WX17413   GGSL
NJARET21090-21344-00720-30000036D0000793D0009800000WX17409   GGSL
NJARET21090-21344-00722-70000040D0001127D0000000000WX17401   GGSL
NJARET21090-21344-00723-40000028D0000768D0013300000WX17402   GGSL
NJARET21090-21344-00724-10000002D0000148D0001300004WXRACK20  GGSL
NJARET21090-21344-00725-80000052D0002435D0000400008HQ748416  GGSL
NJARET21090-21344-00728-90000004D0000101D0000000000HQ74912300GGSL
NJARET21090-21344-00730-20000038D0000667D0000800008BN19193   GGSL
NJARET21090-21344-00732-60000008D0000140D0000600006BN19187   GGSL
NJARET21090-21344-00733-30000042D0000737D0000800008BN19188   GGSL
NJARET21090-21344-00735-70000008D0000204D0005200000WX17577RV GGSL
NJARET21090-21344-00736-40000020D0000510D0005700000WX17578RV GGSL
NJARET21090-21344-00741-80000004D0000171D0003900000WX17817   GGSL
NJARET21090-21344-00746-30000008D0000112D0017500036YS19L005  GGSL
NJARET21090-21344-00747-00000008D0000112D0019100031YS19L004  GGSL
NJARET21090-21344-00748-70000008D0000087D0018800020YS19S002  GGSL
NJARET21090-21344-00749-40000008D0000087D0016900020YS19S003  GGSL
NJARET21090-21344-00750-00000008D0000087D0013200021YS19S001  GGSL
NJARET21090-21344-00762-30000001D0000150D0003200001MG18387RV GGSL
NJARET21090-21344-00774-60000004D0000192D0001500004WX17800   GGSL
NJARET21090-21344-00775-30000002D0000065D0001700008WX17802   GGSL
NJARET21090-21344-00780-70000001D0000094D0001100000MG18396RV GGSL
NJARET21090-21344-00781-40000001D0000040D0002400001MG18397RV GGSL
NJARET21090-21344-00796-80000162D0000296D0000700001SSH1822719GGSL
NJARET21090-21344-00798-20000180D0000817D0000000000SSH1813728GGSL
NJARET21090-21344-00800-20000006D0000064D0003700000HS190061B GGSL
NJARET21090-21344-00803-30000004D0000028D0000600002HS190058B GGSL
NJARET21090-21344-00807-10000024D0000336D0003600003SSH18A034 GGSL
NJARET21090-21344-00813-20000025D0002404D00327000394008132   GGSL
NJARET21090-21344-00819-40000012D0000133D0001600000WX17931   GGSL
NJARET21090-21344-00821-70000012D0000133D0002100000WX17932   GGSL
NJARET21090-21344-00822-40000012D0000135D0001100000WX17930   GGSL
NJARET21090-21344-00823-10000012D0000085D0000000000WX17934   GGSL
NJARET21090-21344-00824-80000024D0000213D0003500000WX17933   GGSL
NJARET21090-21344-00825-50000012D0000082D0003900000JFG18011BWGGSL
NJARET21090-21344-00826-20000024D0000154D0005200000JFG18011AWGGSL
NJARET21090-21344-00828-60000012D0000078D0004000000JFG18008ACGGSL
NJARET21090-21344-00829-30000008D0000115D0009800017ZT197030  GGSL
NJARET21090-21344-00839-20000004D0000047D0001100007HS190062  GGSL
NJARET21090-21344-00844-60000066D0000534D0000000000HJAL19011 GGSL
NJARET21090-21344-00846-00000001D0000110D0015800000FDBH1902  GGSL
NJARET21090-21344-01160-60000002D0000027D0005000026BN19296   GGSL
NJARET21090-21344-01172-90000008D0000243D0000200002HQ73482993GGSL
NJARET21090-21344-01173-60000008D0000303D0000400004HQ73483050GGSL
NJARET21090-21344-01174-30000012D0000789D0000700004HQ73483068GGSL
NJARET21090-21344-01175-00000002D0000135D0000300000HQ75752083GGSL
NJARET21090-21344-01178-10000004D0000270D0000300003HQ7575453 GGSL
NJARET21090-21344-01179-80000006D0000036D0001000000HS18MR0461GGSL
NJARET21090-21344-01180-40000018D0000241D0003000000HS18MR0463GGSL
NJARET21090-21344-01184-20000006D0000120D0006100000HS20134   GGSL
NJARET21090-21344-01187-30000006D0000091D0008200000HS20137   GGSL
NJARET21090-21344-01190-30000004D0000077D0011500001HS20HS0024GGSL
NJARET21090-21344-01196-50000004D0000145D0028700001MG19632   GGSL
NJARET21090-21344-01197-20000002D0000091D0027900001MG19633   GGSL
NJARET21090-21344-01201-60000048D0000234D0002300000SSH19S094 GGSL
NJARET21090-21344-01202-30000040D0000436D0003600000SSH19S098 GGSL
NJARET21090-21344-01203-00000016D0000293D0003600010SSH19S104 GGSL
NJARET21090-21344-01204-70000016D0000433D0001100000WX13253   GGSL
NJARET21090-21344-01205-40000004D0000108D0002500000WX13254   GGSL
NJARET21090-21344-01206-10000024D0000192D0000600000WX18811   GGSL
NJARET21090-21344-01207-80000012D0000203D0002800000WX18812   GGSL
NJARET21090-21344-01211-50000004D0000089D0005200002WX18816   GGSL
NJARET21090-21344-01212-20000012D0000286D0001000007WX18819   GGSL
NJARET21090-21344-01213-90000018D0000430D0001300007WX18820   GGSL
NJARET21090-21344-01214-60000090D0002083D0002100012WX18821   GGSL
NJARET21090-21344-01215-30000052D0007427D0037900060WX18824   GGSL
NJARET21090-21344-01216-00000042D0005574D0021600001WX18825   GGSL
NJARET21090-21344-01219-10000002D0000089D0003000000WX19199   GGSL
NJARET21090-21344-01221-40000004D0000093D0007800016WX19201   GGSL
NJARET21090-21344-01224-50000002D0000050D0008300001WX19205   GGSL
NJARET21090-21344-01230-60000004D0000109D0003200000WX19260   GGSL
NJARET21090-21344-01240-50000006D0000054D0003900001WX86808283GGSL
NJARET21090-21344-01260-30000004D0000277D0028000005ZT207025  GGSL
NJARET21090-21344-01261-00000004D0000277D0027800005ZT207026  GGSL
NJARET21090-21344-01262-70000004D0000233D0032400006ZT207027  GGSL
NJARET21090-21344-01266-50000006D0000358D0025500000CU297     GGSL
NJARET21090-21344-01267-20000005D0000938D0023200002FP35      GGSL
NJARET21090-21344-01268-90000006D0000522D0014200000HR26182AA GGSL
NJARET21090-21344-01273-30000044D0006533D0002300006WX17658A  GGSL
NJARET21090-21964-10305-70000002D0000133D0000200000BTG       GGSL
NJARET21090-21964-20500-30000002D0000262D0000700000YF        GGSL
NJARET21090-21964-20510-20000006D0000532D0000900000YCPD90    GGSL
NJARET21090-21964-20520-10000004D0000335D0000200000YCPW180   GGSL
NJARET21090-21964-20530-00000004D0000327D0000200001YCPT360   GGSL
NJARET21090-21964-25244-10000006D0000200D0001100000CC12N     GGSL
NJARET21090-21964-40053-80000012D0000268D0000000000CJM15G    GGSL
NJARET21090-21964-60528-50000012D0000157D0000300000RLS       GGSL
NJARET21090-21964-70202-10000060D0000411D0000300001WWM       GGSL
NJARET21090-21964-92006-70000002D0000175D0000000000YCPW180M  GGSL
NJARET21090-22179-10013-80000012D0000079D0000100001LG1100    GGSL
NJARET21090-22179-10084-80000012D0000115D0006400000LG7220    GGSL
NJARET21090-22179-10105-00000006D0000270D0002400000LG5518    GGSL
NJARET21090-22179-10124-10000036D0000227D0006500001LG6515    GGSL
NJARET21090-22179-10170-80000012D0000086D0000000000LG1138    GGSL
NJARET21090-22179-10185-20000012D0000151D0002500001LG6500    GGSL
NJARET21090-22179-10225-50000006D0000064D0000000000LG3120    GGSL
NJARET21090-22179-10248-40000012D0000111D0004700001LG6575    GGSL
NJARET21090-22179-10257-60000012D0000209D0000500000LG3190    GGSL
NJARET21090-22179-10259-00000006D0000371D0000400000LG6585    GGSL
NJARET21090-22179-10266-80000012D0000269D0001500001LG6145    GGSL
NJARET21090-22179-10309-20000012D0000279D0000100001LG5206    GGSL
NJARET21090-22179-10369-60000012D0000150D0000000000LG5288    GGSL
NJARET21090-22179-10429-70000012D0000238D0000200000LG6334    GGSL
NJARET21090-22179-10471-60000084D0001021D0001300000LG6128    GGSL
NJARET21090-22179-10508-90000012D0000108D0000700000LG6164    GGSL
NJARET21090-22401-00301-50000022D0000300D0000300000THD20     GGSL
NJARET21090-22401-00350-30000004D0000078D0002400000EDG20GMC  GGSL
NJARET21090-22401-00440-10000001D0000033D0000000000PRO40     GGSL
NJARET21090-22401-10087-50000040D0000412D0002900005EAR20TMC  GGSL
NJARET21090-23865-09910-10000004D0000063D00002000029910      GGSL
NJARET21090-23883-01105-50000012D0000049D00008000001105      GGSL
NJARET21090-23883-04701-60000003D0000077D00004000004701      GGSL
NJARET21090-23883-04710-80000004D0000265D00001000004710      GGSL
NJARET21090-23883-08706-70000009D0000266D00000000008706A3    GGSL
NJARET21090-23883-16100-20000001D0000016D000000000016100     GGSL
NJARET21090-23883-16200-90000005D0000113D000530000516200     GGSL
NJARET21090-23883-20002-20000005D0000122D001700000020002     GGSL
NJARET21090-23883-20020-60000008D0000226D000510000020020     GGSL
NJARET21090-24114-20430-70000050D0000322D0000200002204309    GGSL
NJARET21090-24114-20450-50000025D0000161D0000000000204509    GGSL
NJARET21090-24114-20480-20000050D0000322D0000000000204809    GGSL
NJARET21090-24114-70164-60000080D0000854D0000000000701649    GGSL
NJARET21090-24114-71665-70000005D0000058D0000000000716654    GGSL
NJARET21090-24114-75161-00000120D0000878D0000000000750161    GGSL
NJARET21090-24654-55025-40000024D0000097D00000000005026      GGSL
NJARET21090-24654-55110-70000030D0000175D000120000251106     GGSL
NJARET21090-25033-01723-80000004D0000108D000060000001723     GGSL
NJARET21090-25033-01727-60000004D0000146D000060000001727     GGSL
NJARET21090-25033-02521-90000004D0000109D000090000102521     GGSL
NJARET21090-25033-02522-60000001D0000059D000470000402522     GGSL
NJARET21090-25033-02523-30000004D0000262D000050000302523     GGSL
NJARET21090-25033-02525-70000004D0000286D000390000102525     GGSL
NJARET21090-25033-02527-10000005D0000391D000160000202527     GGSL
NJARET21090-25033-02720-60000007D0000729D000330000002720     GGSL
NJARET21090-25033-02722-00000004D0000483D000010000102722     GGSL
NJARET21090-25033-02728-20000003D0000483D000000000002728     GGSL
NJARET21090-25033-02750-30000002D0000410D000000000002750     GGSL
NJARET21090-25033-03801-10000002D0000050D000500000003801     GGSL
NJARET21090-25033-03802-80000002D0000049D000380000003802     GGSL
NJARET21090-25033-03810-30000002D0000054D000000000003810     GGSL
NJARET21090-25033-12203-10000012D0000047D000110000012203     GGSL
NJARET21090-25033-12204-80000006D0000037D000250000012204     GGSL
NJARET21090-25626-11802-10000018D0000168D000000000024181413  GGSL
NJARET21090-25626-12154-00000024D0000205D000030000010120030  GGSL
NJARET21090-25849-10720-80000054D0000489D00003000001020020RG GGSL
NJARET21090-25849-11010-90000006D0000037D00010000001016010RGXGGSL
NJARET21090-25849-11051-20000054D0000328D00000000001016051NPCGGSL
NJARET21090-25849-11120-50000120D0000680D00008000001010020RG GGSL
NJARET21090-25849-20381-80000090D0002826D000000000020381RG   GGSL
NJARET21090-25881-10703-70000006D0000093D0000200000 107034   GGSL
NJARET21090-26156-91293-60000006D0000066D000090000036HE6     GGSL
NJARET21090-26600-89334-70000088D0000185D002450000089334     GGSL
NJARET21090-26600-89334-70000104D0000201D000490000389334M    GGSL
NJARET21090-26978-02181-60000020D0000109D000260000102181     GGSL
NJARET21090-26978-02241-70000030D0000179D000100000202241     GGSL
NJARET21090-26978-02301-80000020D0000160D000370000102301     GGSL
NJARET21090-26978-03082-50000010D0000101D000100000003082     GGSL
NJARET21090-26978-03088-70000010D0000079D000050000003088     GGSL
NJARET21090-26978-03102-00000005D0000085D00004000000310205   GGSL
NJARET21090-26978-05071-70000036D0000048D000100000005071     GGSL
NJARET21090-26978-08060-80000060D0000328D000000000008060     GGSL
NJARET21090-26978-08061-50000030D0000143D000000000008061     GGSL
NJARET21090-26978-08082-00000020D0000203D000050000008082     GGSL
NJARET21090-26978-08102-50000010D0000142D0000000000810205    GGSL
NJARET21090-26978-10013-90000012D0000048D000030000010013     GGSL
NJARET21090-26978-10062-70000050D0000151D000200000310062     GGSL
NJARET21090-26978-10068-90000030D0000090D000220000110068     GGSL
NJARET21090-26978-10088-70000040D0000172D000210000310088     GGSL
NJARET21090-26978-10122-80000035D0000354D000430000310122     GGSL
NJARET21090-26978-10128-00000025D0000257D000460000310128     GGSL
NJARET21090-26978-10142-60000020D0000278D000270000510142     GGSL
NJARET21090-26978-10146-40000005D0000046D000000000010146     GGSL
NJARET21090-26978-10148-50000025D0000332D000300000410148     GGSL
NJARET21090-26978-10182-20000010D0000036D000190000010182     GGSL
NJARET21090-26978-10185-30000010D0000036D000210000010185     GGSL
NJARET21090-26978-10188-40000010D0000036D000430000110188     GGSL
NJARET21090-26978-10240-90000010D0000039D000050000010240     GGSL
NJARET21090-26978-16190-10000030D0000146D000780000016190     GGSL
NJARET21090-26978-16192-50000040D0000190D000170001716192     GGSL
NJARET21090-26978-16193-20000020D0000098D000850000316193     GGSL
NJARET21090-26978-16195-60000040D0000190D000190000416195     GGSL
NJARET21090-26978-16198-70000010D0000049D000030000016198     GGSL
NJARET21090-26978-16240-30000010D0000063D000400000316240     GGSL
NJARET21090-26978-16242-70000010D0000063D000240002416242     GGSL
NJARET21090-26978-16248-90000010D0000060D000050000016248     GGSL
NJARET21090-26978-16300-40000010D0000089D000250000116300     GGSL
NJARET21090-26978-16305-90000020D0000136D000790000116305     GGSL
NJARET21090-26978-16360-80000010D0000110D000120000016360     GGSL
NJARET21090-26978-26140-30000020D0000180D000100000026140     GGSL
NJARET21090-26978-26142-70000010D0000100D000300000126142     GGSL
NJARET21090-26978-26148-90000010D0000100D000020000126148     GGSL
NJARET21090-26978-26182-30000010D0000175D000370000026182     GGSL
NJARET21090-26978-26185-40000010D0000161D000130000026185     GGSL
NJARET21090-26978-26188-50000010D0000144D000160000326188     GGSL
NJARET21090-26978-26270-70000010D0000155D000170000126270     GGSL
NJARET21090-26978-29505-70000025D0000322D000000000029505     GGSL
NJARET21090-26978-30301-10000756D0003571D000380001130301     GGSL
NJARET21090-26978-30402-50000084D0000515D000170000230402     GGSL
NJARET21090-26978-30409-40000060D0000266D000270000030409     GGSL
NJARET21090-26978-30602-90000192D0000618D000160000730602     GGSL
NJARET21090-26978-30605-00000030D0000132D000190000430605     GGSL
NJARET21090-26978-30702-60000030D0000129D000270000630702     GGSL
NJARET21090-26978-30901-30000010D0000050D000440000230901     GGSL
NJARET21090-26978-30909-90000010D0000056D000000000030909     GGSL
NJARET21090-26978-31100-90000005D0000041D000000000031100     GGSL
NJARET21090-26978-31108-50000025D0000198D000000000031108     GGSL
NJARET21090-26978-31109-20000010D0000082D000070000031109     GGSL
NJARET21090-26978-31122-10000005D0000080D000040000031122     GGSL
NJARET21090-26978-31168-90000005D0000134D000000000031168     GGSL
NJARET21090-26978-31169-60000005D0000134D000050000031169     GGSL
NJARET21090-26978-32101-50000010D0000069D000000000032101     GGSL
NJARET21090-26978-32102-20000010D0000099D000010000032102     GGSL
NJARET21090-26978-32105-30000010D0000069D000000000032105     GGSL
NJARET21090-26978-32122-70000005D0000092D000000000032122     GGSL
NJARET21090-26978-32128-20000010D0000180D000000000032128     GGSL
NJARET21090-26978-32129-90000010D0000180D000160000032129     GGSL
NJARET21090-26978-34088-70000050D0000421D000490000034088     GGSL
NJARET21090-26978-34123-50000020D0000390D000010000034123     GGSL
NJARET21090-26978-34143-50000006D0000172D000030000034143     GGSL
NJARET21090-26978-34148-00000006D0000172D000000000034148     GGSL
NJARET21090-26978-35050-30000010D0000053D000000000035050     GGSL
NJARET21090-26978-35060-20000050D0000236D000100000135060     GGSL
NJARET21090-26978-35062-60000010D0000055D000000000035062     GGSL
NJARET21090-26978-35069-50000020D0000085D000100000135069     GGSL
NJARET21090-26978-35086-20000010D0000088D000090000135086     GGSL
NJARET21090-26978-35106-70000005D0000085D000050000035106     GGSL
NJARET21090-26978-35108-10000005D0000098D000000000035108     GGSL
NJARET21090-26978-35109-80000005D0000098D000130000035109     GGSL
NJARET21090-26978-35120-30000005D0000140D000100000035120     GGSL
NJARET21090-26978-35126-50000005D0000122D000020000035126     GGSL
NJARET21090-26978-35129-60000005D0000140D000100000035129     GGSL
NJARET21090-26978-35148-70000015D0000528D000030000035148     GGSL
NJARET21090-26978-35168-50000005D0000232D000000000035168     GGSL
NJARET21090-26978-35169-20000010D0000465D000110000035169     GGSL
NJARET21090-26978-35187-60000002D0000147D000000000035187     GGSL
NJARET21090-26978-35188-30000006D0000547D000240000035188     GGSL
NJARET21090-26978-35189-00000006D0000547D000150000035189     GGSL
NJARET21090-26978-35198-20000010D0000438D000130000035198     GGSL
NJARET21090-26978-35230-90000004D0000238D000000000035230     GGSL
NJARET21090-26978-36148-60000005D0000086D000160000036148     GGSL
NJARET21090-26978-36220-90000005D0000151D000040000036220     GGSL
NJARET21090-26978-36228-50000005D0000151D000160000036228     GGSL
NJARET21090-26978-38142-20000024D0000126D000100000038142     GGSL
NJARET21090-26978-38148-40000048D0000297D000240000038148     GGSL
NJARET21090-26978-38198-90000006D0000080D000900000538198     GGSL
NJARET21090-26978-39122-30000024D0000101D000160000239122     GGSL
NJARET21090-26978-39126-10000012D0000053D000310000039126     GGSL
NJARET21090-26978-39128-50000180D0000882D000020000039128     GGSL
NJARET21090-26978-39188-90000054D0000617D000180000039188     GGSL
NJARET21090-26978-48098-30000030D0000149D000130000048098     GGSL
NJARET21090-26978-48158-00000048D0000451D000210000048158     GGSL
NJARET21090-26978-63099-50000005D0000075D000040000063099     GGSL
NJARET21090-26978-80105-00000004D0000173D000150000080105     GGSL
NJARET21090-26978-81010-60000020D0000624D000000000081010     GGSL
NJARET21090-26978-81112-70000012D0000118D000010000081112     GGSL
NJARET21090-27713-20182-10000036D0000149D000000000020182     GGSL
NJARET21090-27713-20371-90000090D0000526D000040000020371     GGSL
NJARET21090-27856-10001-20007200D0021408D0043300153P10232    GGSL
NJARET21090-27856-10002-90011850D0062331D0085200232P10264    GGSL
NJARET21090-27856-10008-10002736D0037210D0037400096P101      GGSL
NJARET21090-27856-10009-80002007D0018364D0030900071P128      GGSL
NJARET21090-27856-10015-90003832D0036672D0057600576P102128   GGSL
NJARET21090-27997-00229-90000042D0000886D0000500000TE        GGSL
NJARET21090-27997-01017-10000002D0000339D0000700002 M6T22    GGSL
NJARET21090-29973-12333-20000016D0000062D002110002114110028P GGSL
NJARET21090-29973-12349-30000280D0001355D002650026714901028P GGSL
NJARET21090-30541-01030-50000012D0000103D0005900001JCD100SMJ GGSL
NJARET21090-30541-01034-30000060D0001286D0001200001JCD030SM  GGSL
NJARET21090-30541-01039-80000012D0000060D0006200001JCD05SM   GGSL
NJARET21090-30541-08879-30000012D0000039D0001700000SMVS      GGSL
NJARET21090-30541-09981-20000300D0000603D0001700000JCDTPG    GGSL
NJARET21090-31340-10006-80000084D0000959D0007800001B550125   GGSL
NJARET21090-31365-10600-70000003D0000060D000000000042808     GGSL
NJARET21090-31365-12205-20000004D0000104D0002000000 49454    GGSL
NJARET21090-31417-00057-40000034D0000656D000160000080621131X GGSL
NJARET21090-31417-00058-10000001D0000025D000180001080631131X GGSL
NJARET21090-31724-84000-90000006D0000133D00014000008400100   GGSL
NJARET21090-31724-84007-80000003D0000066D0000100000840075    GGSL
NJARET21090-31724-86155-40000005D0000122D0000000000861550    GGSL
NJARET21090-31724-86171-40000006D0000307D00000000008617130   GGSL
NJARET21090-32247-00900-30000012D0000028D00182000061009001   GGSL
NJARET21090-32247-02515-70000144D0006448D00382000002515      GGSL
NJARET21090-32247-10500-20000036D0000372D0000600000110500    GGSL
NJARET21090-32247-14900-60000024D0000206D000790000014900     GGSL
NJARET21090-32247-14901-30000004D0000066D001180000014901     GGSL
NJARET21090-32247-14902-00000068D0001129D001900000014902     GGSL
NJARET21090-32247-14905-10000224D0001829D003210000014905     GGSL
NJARET21090-32247-17183-00000162D0001723D004060000017183     GGSL
NJARET21090-32247-17185-40000120D0002933D001680000017185     GGSL
NJARET21090-32247-17187-80000032D0001882D002370000017187     GGSL
NJARET21090-32247-17290-50000036D0000425D000850000017290     GGSL
NJARET21090-32247-17293-60000018D0000204D000470000017293     GGSL
NJARET21090-32247-17295-00000016D0000428D000300000017295     GGSL
NJARET21090-32247-17323-00000042D0000446D000560000017323     GGSL
NJARET21090-32247-17325-40000004D0000089D000390000017325     GGSL
NJARET21090-32247-17327-80000024D0001127D000520000017327     GGSL
NJARET21090-32247-17504-30000006D0000309D000460000017504     GGSL
NJARET21090-32247-17508-10000186D0002872D004230000317508     GGSL
NJARET21090-32247-17511-10000006D0000093D000540000017511     GGSL
NJARET21090-32247-17530-20000024D0000230D000800000117530     GGSL
NJARET21090-32247-17540-10000068D0002101D001560000017540     GGSL
NJARET21090-32247-18213-30000036D0001115D000900000018213     GGSL
NJARET21090-32247-18216-40000001D0000077D001140000018216     GGSL
NJARET21090-32247-18221-80000108D0002725D001400000018221     GGSL
NJARET21090-32247-18225-60000132D0001785D001820000018225     GGSL
NJARET21090-32247-18249-20000007D0000475D000680000018249     GGSL
NJARET21090-32247-18251-50000004D0000141D000270000018251     GGSL
NJARET21090-32247-18260-70000006D0000060D000280000018260     GGSL
NJARET21090-32247-18266-90000048D0000623D000490000018266     GGSL
NJARET21090-32247-18269-00000020D0000655D000390000018269     GGSL
NJARET21090-32247-18272-00000036D0000204D000480000018272     GGSL
NJARET21090-32247-18277-50000008D0000237D000400000018277     GGSL
NJARET21090-32247-18287-40000024D0000292D000370000018287     GGSL
NJARET21090-32247-18296-60000012D0000173D000080000018296     GGSL
NJARET21090-32247-18320-80000030D0000339D000220000018320     GGSL
NJARET21090-32247-18334-50000024D0002276D001820000018334     GGSL
NJARET21090-32247-18345-10000054D0000684D000630000018345     GGSL
NJARET21090-32247-18346-80000028D0000619D000410000018346     GGSL
NJARET21090-32247-18348-20000018D0000273D000580000018348     GGSL
NJARET21090-32247-20785-00000198D0000806D000030000072078430  GGSL
NJARET21090-32247-21605-00000064D0001303D007230000021605     GGSL
NJARET21090-32247-21701-90000216D0002027D000970000021701     GGSL
NJARET21090-32247-21814-60000012D0000566D003990000021814     GGSL
NJARET21090-32247-22305-80000016D0000288D004140000022305     GGSL
NJARET21090-32247-22315-70000004D0000196D002530000022315     GGSL
NJARET21090-32247-23001-80000029D0000990D002170000023001     GGSL
NJARET21090-32247-23200-50000029D0001081D000000000023200     GGSL
NJARET21090-32247-23616-40000004D0000104D012790000023616     GGSL
NJARET21090-32247-23622-50000203D0003760D005930000023622     GGSL
NJARET21090-32247-26003-90000024D0000578D000600000026003D    GGSL
NJARET21090-32247-27764-80000016D0000061D000040000472776430  GGSL
NJARET21090-32247-30156-50000060D0000985D001330000030156     GGSL
NJARET21090-32247-33040-40000040D0000741D009050000033040     GGSL
NJARET21090-32247-36905-30000092D0003737D011170000036905     GGSL
NJARET21090-32247-37610-50000040D0000633D001120000037610C    GGSL
NJARET21090-32247-38505-30000006D0000122D002210000038505     GGSL
NJARET21090-32247-38605-00000138D0002566D001020000038605D    GGSL
NJARET21090-32247-38615-90000069D0002903D000510000038615     GGSL
NJARET21090-32247-39181-80000135D0002781D010290000039181     GGSL
NJARET21090-32247-42784-50000216D0000871D000000000074278430  GGSL
NJARET21090-32247-43750-90000004D0000119D00011000004375010   GGSL
NJARET21090-32247-43850-60000116D0002511D00004000004385010   GGSL
NJARET21090-32247-43851-30000048D0001012D00111000004385106   GGSL
NJARET21090-32247-43854-40000020D0000255D00025000004385404   GGSL
NJARET21090-32247-43860-50000036D0000850D00051000004386004   GGSL
NJARET21090-32247-49019-10000018D0000229D011450000049019     GGSL
NJARET21090-32247-49023-80000006D0000061D000190000049023     GGSL
NJARET21090-32247-49785-50000006D0000019D000250000074978500  GGSL
NJARET21090-32247-49801-20000018D0000285D000150000149801D    GGSL
NJARET21090-32247-50087-60000030D0000709D00030000005008710   GGSL
NJARET21090-32247-50088-30000066D0001426D00010000005008810   GGSL
NJARET21090-32247-50240-50000022D0001344D001320000050240     GGSL
NJARET21090-32247-50250-40000055D0001236D003650000050250     GGSL
NJARET21090-32247-50524-60000078D0000704D000100000075052430  GGSL
NJARET21090-32247-51062-20000018D0000125D000190000051062     GGSL
NJARET21090-32247-51070-70000008D0000076D000370000051070     GGSL
NJARET21090-32247-51080-60000006D0000040D000190000051080     GGSL
NJARET21090-32247-52784-20000066D0000275D000270000285278430  GGSL
NJARET21090-32247-53105-40000045D0000483D003870000053105     GGSL
NJARET21090-32247-53115-30000131D0003811D002910000053115     GGSL
NJARET21090-32247-54204-30000006D0000074D00027000005420406   GGSL
NJARET21090-32247-55513-50000065D0000696D000470000075551300  GGSL
NJARET21090-32247-55523-40000072D0001133D000140000075552300  GGSL
NJARET21090-32247-55783-20000096D0000442D000130000075578300  GGSL
NJARET21090-32247-55863-10000014D0000100D001490000075586300X GGSL
NJARET21090-32247-56063-40000056D0000282D000450000045606300  GGSL
NJARET21090-32247-56513-40000260D0002491D000510000175651300  GGSL
NJARET21090-32247-56523-30000144D0002156D000480000275652300  GGSL
NJARET21090-32247-56783-10000666D0003138D005210006675678300  GGSL
NJARET21090-32247-56863-00000273D0002058D000220000075686300  GGSL
NJARET21090-32247-56863-00000071D0000518D000310000075686300X GGSL
NJARET21090-32247-57905-60000058D0000762D001800000057905     GGSL
NJARET21090-32247-71060-20000096D0001268D001580000071060     GGSL
NJARET21090-32247-71131-90000012D0000232D000410000071131     GGSL
NJARET21090-32247-74150-70000540D0003232D0063400010274150    GGSL
NJARET21090-32247-74250-40000132D0001198D0061500005274250    GGSL
NJARET21090-32247-74850-60000020D0000411D0065200004274850    GGSL
NJARET21090-32247-75902-10000017D0001511D000850000075902     GGSL
NJARET21090-32247-76121-50000048D0001697D001500000076121     GGSL
NJARET21090-32247-76232-80000033D0002229D001140000076232     GGSL
NJARET21090-32247-76565-70000015D0000812D000370000076565     GGSL
NJARET21090-32247-77160-30000216D0001176D0053700008277160    GGSL
NJARET21090-32247-77260-00000048D0000462D0071400005277260    GGSL
NJARET21090-32247-77860-20000030D0000536D0029400001277860    GGSL
NJARET21090-32247-77960-90000016D0000362D0083200027277960    GGSL
NJARET21090-32247-95517-10000480D0002575D000060000079551750  GGSL
NJARET21090-32247-95517-10000020D0000102D000720000079551750X GGSL
NJARET21090-32247-99605-10000058D0001455D011190000099605     GGSL
NJARET21090-32903-00214-00000024D0000037D0001400000SLI06000E2GGSL
NJARET21090-32903-00257-70000001D0000052D0000200000RZGH210G2 GGSL
NJARET21090-32903-00258-40000048D0000109D0000900000LIA06000E2GGSL
NJARET21090-32903-00264-50000024D0000082D0001700000LIA08000E2GGSL
NJARET21090-32903-00281-20000024D0000126D0001300000LIA10000E2GGSL
NJARET21090-32903-00283-60000012D0000095D0000400000GAB14000E2GGSL
NJARET21090-32903-00290-40000006D0000078D0000100000VNP30000E2GGSL
NJARET21090-32903-00293-50000024D0000067D0005900000SLI10000E2GGSL
NJARET21090-32903-00326-00000012D0000099D0001100000LIA12000E2GGSL
NJARET21090-32903-00332-10000012D0000033D0003400000SLI10000B9GGSL
NJARET21090-32903-00338-30000024D0000064D0001400001SLI10000A3GGSL
NJARET21090-32903-04255-90000024D0000255D0000300000LIA14000E2GGSL
NJARET21090-32903-04257-30000012D0000057D0000100000SLI12000E2GGSL
NJARET21090-32903-12006-60000024D0000054D0002300000LIA06000E3GGSL
NJARET21090-32903-12008-00000024D0000082D0003700002LIA08000E3GGSL
NJARET21090-32903-12010-30000228D0001179D0005200003LIA10000E3GGSL
NJARET21090-32903-12012-70000108D0000881D0005800008LIA12000E3GGSL
NJARET21090-32903-12017-20000132D0002173D0000000000LIA16000E3GGSL
NJARET21090-32903-12020-20000048D0001058D0000400000LIA20000E3GGSL
NJARET21090-32903-12024-00000024D0000706D0000700000LIA24000E3GGSL
NJARET21090-32903-12312-80000060D0000407D0001600001CNA12000E3GGSL
NJARET21090-32903-12718-80000018D0000219D0000000000GAB18000E3GGSL
NJARET21090-32903-30392-60000144D0000406D0001100001CNA08000E3GGSL
NJARET21090-32903-35947-30000024D0000104D0001300003CNA10000E3GGSL
NJARET21090-32903-40400-50000036D0000189D0001200000LIA10000A3GGSL
NJARET21090-32903-40493-70000072D0000246D0002600000LIA08000B9GGSL
NJARET21090-32903-41909-20000012D0000198D0000600000LIA16000A3GGSL
NJARET21090-32903-45170-20000048D0000509D0002000002LIA14000A3GGSL
NJARET21090-32903-45788-90000006D0000177D0001200000LIA24000B9GGSL
NJARET21090-32903-48101-30000048D0000097D0001200000LIA06000A3GGSL
NJARET21090-32903-50286-20000012D0000054D0001600002HSI10008E2GGSL
NJARET21090-32903-50764-50000036D0000182D0001500000SLI14000B9GGSL
NJARET21090-32903-50767-60000012D0000057D0001100000SLI12000A3GGSL
NJARET21090-32903-50803-10000012D0000061D0001600000SLI14000A3GGSL
NJARET21090-32903-52340-90000012D0000055D0000300003SVN24000B9GGSL
NJARET21090-32903-53271-50000012D0000128D0001200000SLI24000E2GGSL
NJARET21090-32903-56391-70000048D0000215D0001100001HSI10008A1GGSL
NJARET21090-32903-57495-10000012D0000066D0000400004SVN30000B9GGSL
NJARET21090-32903-58838-50000006D0000025D0000300003SVN18000B9GGSL
NJARET21090-32903-61636-10000060D0000263D0001700003HSI10008B6GGSL
NJARET21090-32903-75081-20000012D0000103D0001200000SLI20000B9GGSL
NJARET21090-32903-75084-30000006D0000064D0001300000SLI24000A3GGSL
NJARET21090-32903-91270-80000001D0000052D0000600000RZGH210E3 GGSL
NJARET21090-32903-91485-60000005D0000081D0002300002SPX24DBA34GGSL
NJARET21090-32903-91590-70000072D0000127D0000000000IFA0600E35GGSL
NJARET21090-33200-00020-40008424D0006023D00107000943320000020GGSL
NJARET21090-33200-00523-00000004D0000032D001790000000523     GGSL
NJARET21090-33200-00544-50011104D0111261D035130201100544     GGSL
NJARET21090-33200-01191-00000736D0005207D004040020801191     GGSL
NJARET21090-33200-06527-20000872D0015687D02713003606527      GGSL
NJARET21090-33200-09020-50000104D0000727D002140000109020     GGSL
NJARET21090-33200-09142-40001828D0012778D004980029909142     GGSL
NJARET21090-33200-09293-30002108D0014749D01313005239293      GGSL
NJARET21090-33200-09793-80000096D0000898D00000000009793      GGSL
NJARET21090-33200-11321-80000606D0000812D003200007611321     GGSL
NJARET21090-33200-11448-20000018D0000027D000850000011448     GGSL
NJARET21090-33200-35240-20000024D0000045D0006900000352402    GGSL
NJARET21090-33200-94182-80005714D0057260D057820232794182     GGSL
NJARET21090-33200-97209-90000004D0000032D000500000097209     GGSL
NJARET21090-33200-97242-60000032D0000253D001770000097242     GGSL
NJARET21090-33200-97457-40003080D0032063D026760000097457     GGSL
NJARET21090-33349-03110-70000037D0000060D0000000000JP310     GGSL
NJARET21090-33349-05048-10000096D0000391D0000000000J3R36     GGSL
NJARET21090-33349-05262-10000014D0000198D0000000000T70H      GGSL
NJARET21090-33349-07750-10000174D0000569D0000200002J4R25     GGSL
NJARET21090-33349-41221-00000050D0000109D0000100000TDOME     GGSL
NJARET21090-33349-41444-30009504D0001901D0000000000JP4BULK   GGSL
NJARET21090-33349-41701-70001000D0000130D0001000000J4BULK    GGSL
NJARET21090-33349-41710-90000017D0000054D0000000000J312      GGSL
NJARET21090-33349-65220-30000008D0000127D0000000000JH48      GGSL
NJARET21090-33349-65223-40000012D0000055D0000000000JHFERT12  GGSL
NJARET21090-33349-66003-10000020D0000205D0000100000J372ST20  GGSL
NJARET21090-33349-66008-60000080D0001145D0000000000J636ST10  GGSL
NJARET21090-33349-66009-30000014D0000089D0000700001T72HST14  GGSL
NJARET21090-33349-66016-10000056D0000352D0000000000TS32HST14 GGSL
NJARET21090-33607-00003-60000004D0000128D0000900000EDGE180   GGSL
NJARET21090-33607-00703-50000006D0000124D0000100000RP3       GGSL
NJARET21090-33607-00704-20000012D0000174D0001600000REA4      GGSL
NJARET21090-33607-01208-40000012D0000232D0000700000LT8       GGSL
NJARET21090-33607-01220-60000024D0000621D0004700000LT20      GGSL
NJARET21090-33607-52100-50000004D0000208D0001700000GKS2      GGSL
NJARET21090-34411-11208-30000002D0000122D00000000008347511001GGSL
NJARET21090-34613-00011-90000012D0000116D0001800000LH011     GGSL
NJARET21090-34613-00015-70000012D0000169D0001500000LH015     GGSL
NJARET21090-34613-00225-00000075D0000325D0013600000225       GGSL
NJARET21090-34613-00325-70000025D0000208D0015300000325       GGSL
NJARET21090-34613-00425-40000025D0000227D0014100000425       GGSL
NJARET21090-34613-00551-00000096D0000372D0000600000551BL     GGSL
NJARET21090-34613-00552-70000060D0000233D0000100000552BL     GGSL
NJARET21090-34613-00553-40000180D0000693D0000300000553BL     GGSL
NJARET21090-34613-00805-40000020D0000041D0001600000SS5       GGSL
NJARET21090-34613-00806-10000020D0000057D0000300000SS6       GGSL
NJARET21090-34613-00809-20000010D0000070D0000500000SS6HD     GGSL
NJARET21090-34613-00860-30000012D0000265D0000300000860       GGSL
NJARET21090-34613-00884-90000024D0000051D0000100000CVS008HD  GGSL
NJARET21090-34613-01150-40000020D0000086D00011000001150PDQ   GGSL
NJARET21090-34613-01160-30000020D0000067D00002000001160      GGSL
NJARET21090-34613-01283-90000048D0000292D00003000031283      GGSL
NJARET21090-34613-01902-90000036D0000312D00056000011902      GGSL
NJARET21090-34613-01903-60000072D0000675D00051000041903      GGSL
NJARET21090-34613-03038-30000012D0000063D00000000002104BL    GGSL
NJARET21090-34613-03104-50000012D0000130D00064000003104      GGSL
NJARET21090-34613-03398-80000006D0000084D00000000003398      GGSL
NJARET21090-34613-04803-60000015D0000138D0000000000U4803     GGSL
NJARET21090-34613-04830-20000006D0000072D00022000014830      GGSL
NJARET21090-34613-04862-30000012D0000116D0006200000LH013BL   GGSL
NJARET21090-34613-07161-40000012D0000088D00001000007161BL    GGSL
NJARET21090-34613-07835-40000006D0000053D00003000002110BL    GGSL
NJARET21090-34613-09501-60000036D0000563D00000000009501      GGSL
NJARET21090-34613-34008-60000025D0000013D0000000000CVS008    GGSL
NJARET21090-34613-34009-30000025D0000015D0000300000CVS009    GGSL
NJARET21090-34613-34012-30000025D0000031D0000000000CVS012    GGSL
NJARET21090-34613-59738-10000003D0000085D005340053459738     GGSL
NJARET21090-34613-59946-00000002D0000121D002430016359946     GGSL
NJARET21090-34613-60567-30000020D0001567D000000000060567     GGSL
NJARET21090-34613-65497-80000001D0000054D005510047065497     GGSL
NJARET21090-34613-65678-10000012D0000489D004280042265678     GGSL
NJARET21090-34613-65679-80000001D0000041D006330052965679     GGSL
NJARET21090-34613-65681-10000001D0000034D005980048365681     GGSL
NJARET21090-34613-65682-80000004D0000127D004780038665682     GGSL
NJARET21090-34613-66637-70000027D0006403D000110001166637     GGSL
NJARET21090-34613-70159-70000006D0000080D00000000007159BL    GGSL
NJARET21090-34613-91126-20000010D0000071D000040000091126     GGSL
NJARET21090-34613-91148-40000010D0000054D000020000091148     GGSL
NJARET21090-35000-05361-90001920D0001310D0046300049105375    GGSL
NJARET21090-35000-05364-00002652D0002758D0008900089105374    GGSL
NJARET21090-35000-14112-50001068D0005287D003180010114477     GGSL
NJARET21090-35000-14116-30001404D0003412D000000000014178     GGSL
NJARET21090-35000-14120-00000900D0004455D004220014814478     GGSL
NJARET21090-35000-14328-00000762D0003772D003070009414483     GGSL
NJARET21090-35000-38353-50000117D0000921D0000300000128353    GGSL
NJARET21090-35000-39131-50000012D0000027D000060000039366     GGSL
NJARET21090-35000-44627-50000120D0000126D0011500013144630    GGSL
NJARET21090-35000-44673-20000846D0001278D000610006144673     GGSL
NJARET21090-35000-44674-90000009D0000014D000600000444674     GGSL
NJARET21090-35000-44678-70000396D0000595D000520002344678     GGSL
NJARET21090-35000-45038-50000729D0001407D0003100000US04232A  GGSL
NJARET21090-35000-45041-50000378D0000813D0001600004US04229A  GGSL
NJARET21090-35000-45118-40001539D0003089D0000000000US04268A  GGSL
NJARET21090-35000-45122-40000012D0000058D0002600000US04284A  GGSL
NJARET21090-35000-45816-20000012D0000116D0010900000MX04966A  GGSL
NJARET21090-35000-46157-50000040D0000228D000590000146157     GGSL
NJARET21090-35000-46413-20000180D0000189D000340000446413     GGSL
NJARET21090-35000-47805-40000099D0000232D000320002547805     GGSL
NJARET21090-35000-49860-10000012D0000030D000570000449860     GGSL
NJARET21090-35000-49861-80000276D0000657D000220002249861     GGSL
NJARET21090-35000-49862-50000012D0000030D000580000049862     GGSL
NJARET21090-35000-49863-20000012D0000030D000580000049863     GGSL
NJARET21090-35000-51119-50001512D0004309D0022800075151119    GGSL
NJARET21090-35000-53030-10000186D0000530D0005800034153043    GGSL
NJARET21090-35000-53031-80000006D0000017D0011000003153042    GGSL
NJARET21090-35000-53032-50001152D0002831D0006600034153041    GGSL
NJARET21090-35000-53058-50004832D0022572D006940025953058     GGSL
NJARET21090-35000-53060-80001584D0007443D016790032253060     GGSL
NJARET21090-35000-53061-50000006D0000017D000710000053091     GGSL
NJARET21090-35000-53063-90000180D0000353D000010000153063     GGSL
NJARET21090-35000-53099-80003234D0007438D028340064253099     GGSL
NJARET21090-35000-53122-30003003D0018262D032800062653122     GGSL
NJARET21090-35000-55190-00000504D0001512D0011000048155190    GGSL
NJARET21090-35000-74127-10000072D0000294D000030000076326     GGSL
NJARET21090-35000-96987-30000231D0001398D0095600167MX06813A  GGSL
NJARET21090-35000-97018-30000548D0003529D0047800205US06329A  GGSL
NJARET21090-35000-97301-60000008D0000053D0018500000US06489A  GGSL
NJARET21090-35000-97335-10004000D0023920D0119800605US06517A  GGSL
NJARET21090-35000-97336-80001212D0007261D0116100317US06516A  GGSL
NJARET21090-35000-97337-50000008D0000048D0003500000US06515A  GGSL
NJARET21090-35000-97343-60003204D0007543D0050900121US06522A  GGSL
NJARET21090-35000-98324-40000456D0002234D0033000000US07139A  GGSL
NJARET21090-35000-98595-80000018D0000081D0004200000US07369A  GGSL
NJARET21090-35000-98601-60000135D0000290D0008400007US07368A  GGSL
NJARET21090-35000-98631-30002496D0002571D0000000000MX07180A  GGSL
NJARET21090-35000-98635-10000144D0000148D0006600008MX07179A  GGSL
NJARET21090-35110-01900-00000600D0005147D001470008201900     GGSL
NJARET21090-35110-01903-10000188D0001800D000170001701903     GGSL
NJARET21090-35110-04307-40000004D0000045D0004500006US05253A  GGSL
NJARET21090-35307-00404-80000012D0000050D0000300000404       GGSL
NJARET21090-35307-00808-40000012D0000033D0000400000808       GGSL
NJARET21090-35307-00812-10000012D0000033D0000100001812       GGSL
NJARET21090-35307-00816-90000132D0000211D0000900009816       GGSL
NJARET21090-35307-00818-30000036D0000075D0000400000818       GGSL
NJARET21090-35307-00819-00000012D0000027D0005000000819       GGSL
NJARET21090-35307-00820-60000012D0000023D0001600000820       GGSL
NJARET21090-35307-00828-20000012D0000033D0000700000828       GGSL
NJARET21090-35307-00835-00000012D0000080D0000500000835       GGSL
NJARET21090-35307-00838-10000144D0000498D0000400000838       GGSL
NJARET21090-35307-00841-10000132D0000273D0001100001841       GGSL
NJARET21090-35307-00843-50000084D0000284D0002000001843       GGSL
NJARET21090-35307-00844-20000096D0000265D0000900001844       GGSL
NJARET21090-35307-00846-60000024D0000086D0005300000846       GGSL
NJARET21090-35307-00848-00000072D0000174D0001500000848       GGSL
NJARET21090-35307-00857-20000012D0000075D0000200000857       GGSL
NJARET21090-35307-00861-90000012D0000042D0003900000861       GGSL
NJARET21090-35307-00862-60000024D0000083D0001500000862       GGSL
NJARET21090-35307-00865-70000024D0000095D0000200001865       GGSL
NJARET21090-35307-00874-90000036D0000060D0002600000874       GGSL
NJARET21090-35307-00875-60000048D0000199D0000000000875       GGSL
NJARET21090-35307-00877-00000024D0000040D0000700000877       GGSL
NJARET21090-35307-00917-30000024D0000076D0000100001917       GGSL
NJARET21090-35307-00967-80000012D0000030D0000000000967       GGSL
NJARET21090-35307-00973-90000024D0000209D0000000000973       GGSL
NJARET21090-35307-00980-70000048D0000083D0001900000980       GGSL
NJARET21090-35307-01025-40000012D0000022D00003000001025      GGSL
NJARET21090-35307-01250-00000048D0000166D00002000001250      GGSL
NJARET21090-35307-01618-80000006D0000038D00004000001618      GGSL
NJARET21090-35307-01635-50000006D0000096D00002000001635      GGSL
NJARET21090-35307-01640-90000006D0000042D00000000001640      GGSL
NJARET21090-35307-01646-10000006D0000062D00000000001646      GGSL
NJARET21090-35307-01810-60000012D0000064D00001000011810      GGSL
NJARET21090-35307-01820-50000018D0000224D00000000001820      GGSL
NJARET21090-35307-01840-30000006D0000093D00000000001840      GGSL
NJARET21090-35307-90872-80000012D0000046D0000800000872       GGSL
NJARET21090-35307-90879-70000072D0000341D0000100000879       GGSL
NJARET21090-35355-02022-90000048D0000131D0000000000Y2022     GGSL
NJARET21090-35355-91015-50000025D0000088D000050000091015     GGSL
NJARET21090-35951-07000-00000636D0006707D000930001407000     GGSL
NJARET21090-35951-07007-90000072D0001128D000180000007007     GGSL
NJARET21090-35951-07009-30000108D0002366D000240000307009     GGSL
NJARET21090-35951-07011-60000048D0003369D000310000407011     GGSL
NJARET21090-36074-12002-30000048D0000220D0001700005BC07      GGSL
NJARET21090-36151-46825-30000066D0001837D00257000002646825   GGSL
NJARET21090-36241-66300-10000060D0000403D008500001574297     GGSL
NJARET21090-36241-97161-80000008D0000075D001090000097161     GGSL
NJARET21090-36241-97402-20000036D0000167D0032900000974022    GGSL
NJARET21090-36348-00645-90000006D0000098D00003000000645      GGSL
NJARET21090-36348-00745-60000006D0000159D00005000000745      GGSL
NJARET21090-36348-01020-30000003D0000049D00074000001020      GGSL
NJARET21090-36348-01079-10000007D0000379D00018000001079      GGSL
NJARET21090-36434-12342-80000006D0000040D00017000016012342   GGSL
NJARET21090-36434-12353-40000006D0000106D00022000026012353   GGSL
NJARET21090-36434-12380-00000012D0000150D00000000006012380   GGSL
NJARET21090-36434-12700-60000072D0000654D00193000031012700   GGSL
NJARET21090-36434-12720-40000192D0001325D00091000031012720   GGSL
NJARET21090-36434-13001-30000012D0000051D00053000001013001   GGSL
NJARET21090-36434-13700-50000192D0001711D00050000011032700   GGSL
NJARET21090-36434-15000-40000018D0000629D00045000031015000   GGSL
NJARET21090-36434-15060-80000006D0000098D00008000001015060   GGSL
NJARET21090-36434-17000-20000006D0000300D00032000031017000   GGSL
NJARET21090-36434-17010-10000006D0000141D00088000101017010   GGSL
NJARET21090-36434-18026-10000012D0000100D00000000001018026   GGSL
NJARET21090-36434-22318-00000042D0000182D00028000006022318   GGSL
NJARET21090-36434-28040-40000012D0000180D00018000001028040   GGSL
NJARET21090-36434-82342-70000012D0000167D00000000006082342   GGSL
NJARET21090-37000-00992-40000572D0006355D003230000000992     GGSL
NJARET21090-37000-00995-50000744D0008266D000940000000995     GGSL
NJARET21090-37000-00997-90000768D0008532D001000000000997     GGSL
NJARET21090-37000-07312-30000774D0006803D002310000007312     GGSL
NJARET21090-37000-10631-90000204D0001338D002700000010631     GGSL
NJARET21090-37000-19744-70000880D0003441D001940000097584     GGSL
NJARET21090-37000-23542-20000018D0000108D000800000023542     GGSL
NJARET21090-37000-24684-80000882D0007753D001980000024684     GGSL
NJARET21090-37000-31821-70000132D0000426D003230000013093     GGSL
NJARET21090-37000-35154-20000492D0001589D005270000008622     GGSL
NJARET21090-37000-40215-20000144D0001575D006830000040215     GGSL
NJARET21090-37000-40509-20000030D0000097D002360000011804     GGSL
NJARET21090-37000-41767-50000024D0000146D003010000021459     GGSL
NJARET21090-37000-41827-60000620D0006250D006240000041827     GGSL
NJARET21090-37000-44750-40000300D0002001D000630000082074     GGSL
NJARET21090-37000-73378-20000624D0004892D000000000073378     GGSL
NJARET21090-37000-73977-70000224D0002247D001100000073977     GGSL
NJARET21090-37000-76337-60000384D0002941D004930000076337     GGSL
NJARET21090-37000-87848-30000570D0002229D000000000087848     GGSL
NJARET21090-37000-92815-70000924D0008418D000190000092815     GGSL
NJARET21090-37000-99042-00000076D0000463D004210000099042     GGSL
NJARET21090-37321-00022-80001500D0010116D0010800030022       GGSL
NJARET21090-37321-00023-50000052D0001080D0002000004023       GGSL
NJARET21090-37321-00024-20000180D0002545D0002700005024       GGSL
NJARET21090-37321-00025-90000192D0001693D0009300007025       GGSL
NJARET21090-37321-00042-60000012D0000146D0000100001042       GGSL
NJARET21090-37321-00050-10000024D0000024D0000400001050       GGSL
NJARET21090-37321-00051-80000036D0000458D0001000001051       GGSL
NJARET21090-37321-00053-20000048D0000133D0000600000053       GGSL
NJARET21090-37321-00055-60000030D0000427D0000100000055       GGSL
NJARET21090-37321-00061-70000048D0000379D0001600001061       GGSL
NJARET21090-37321-00065-50000072D0000392D0006800002065       GGSL
NJARET21090-37321-00066-20000024D0000312D0006300012066       GGSL
NJARET21090-37321-00069-30000036D0000485D0002400000069       GGSL
NJARET21090-37321-00070-90000048D0000762D0001100002070       GGSL
NJARET21090-37321-00097-60000060D0000333D0000000000097       GGSL
NJARET21090-37321-00099-00000396D0002765D0004800023099       GGSL
NJARET21090-37321-00102-70000192D0002364D0000900000102       GGSL
NJARET21090-37321-00103-40000028D0001023D0000800004103       GGSL
NJARET21090-37321-00105-80000312D0000935D0004400006105       GGSL
NJARET21090-37321-00106-50000264D0000796D0009800003106       GGSL
NJARET21090-37321-00107-20000396D0001191D0022600007107       GGSL
NJARET21090-37321-00108-90001560D0004612D0009800008108       GGSL
NJARET21090-37321-00110-20001352D0004588D0035100068110       GGSL
NJARET21090-37321-00112-60001322D0004493D0044900133112       GGSL
NJARET21090-37321-00114-00001040D0003508D0022000004114       GGSL
NJARET21090-37321-00116-40000160D0000549D0013000009116       GGSL
NJARET21090-37321-00120-10000060D0000348D0007600011120       GGSL
NJARET21090-37321-00121-80000016D0000188D0004100000121       GGSL
NJARET21090-37321-00127-00000168D0001475D0002200002127       GGSL
NJARET21090-37321-00141-60000120D0000565D0007100011141       GGSL
NJARET21090-37321-00142-30000012D0000110D0001100000142       GGSL
NJARET21090-37321-00148-50000132D0001378D0003900001148       GGSL
NJARET21090-37321-00150-80000168D0002843D0001600003150       GGSL
NJARET21090-37321-00160-70000168D0000595D0000100001160       GGSL
NJARET21090-37321-00161-40000048D0000251D0000000000161       GGSL
NJARET21090-37321-00165-20000020D0000243D0000000000165       GGSL
NJARET21090-37321-00166-90007512D0042220D0002000000166       GGSL
NJARET21090-37321-00196-60000156D0000936D0002300004196       GGSL
NJARET21090-37321-00197-30000048D0000300D0004000003197       GGSL
NJARET21090-37321-00198-00000024D0000277D0001200001198       GGSL
NJARET21090-37321-00202-40000072D0000785D0001600001202       GGSL
NJARET21090-37321-00210-90000060D0000358D0001000000210       GGSL
NJARET21090-37321-00211-60000036D0000310D0002300000211       GGSL
NJARET21090-37321-00212-30000008D0000159D0001400000212       GGSL
NJARET21090-37321-00213-00000060D0000635D0004500001213       GGSL
NJARET21090-37321-00214-70000540D0002838D0032700008214       GGSL
NJARET21090-37321-00216-10000012D0000202D0000000000216       GGSL
NJARET21090-37321-00217-80000012D0000133D0001000001217       GGSL
NJARET21090-37321-00225-30000168D0000886D0000500000225       GGSL
NJARET21090-37321-00227-70000024D0000267D0000800001227       GGSL
NJARET21090-37321-00230-70000024D0000214D0002900000230       GGSL
NJARET21090-37321-00237-60000084D0001102D0001100004237       GGSL
NJARET21090-37321-00238-30000096D0000842D0001600011238       GGSL
NJARET21090-37321-00239-00000020D0000492D0003200000239       GGSL
NJARET21090-37321-00250-50000372D0002009D0002200001250       GGSL
NJARET21090-37321-00253-60000036D0000732D0001800001253       GGSL
NJARET21090-37321-00255-00000024D0000508D0002000000255       GGSL
NJARET21090-37321-00257-40000048D0000192D0002800002257       GGSL
NJARET21090-37321-00258-10000120D0000776D0002900000258       GGSL
NJARET21090-37321-00272-70000228D0000914D0000000000272       GGSL
NJARET21090-37321-00276-50000024D0000349D0000000000276       GGSL
NJARET21090-37321-00285-70000360D0002169D0013500006285       GGSL
NJARET21090-37321-00307-60000108D0000515D0002800002307       GGSL
NJARET21090-37321-00310-60000006D0000186D0000100000310       GGSL
NJARET21090-37321-00311-30000006D0000193D0000000000311       GGSL
NJARET21090-37321-00312-00000084D0001770D0001300001312       GGSL
NJARET21090-37321-00321-20000330D0002003D0002500013321       GGSL
NJARET21090-37321-00323-60000006D0000061D0000100001323       GGSL
NJARET21090-37321-00330-40000060D0000611D0001000001330       GGSL
NJARET21090-37321-00363-20000012D0000059D0000200002363       GGSL
NJARET21090-37321-00370-00000060D0000239D0001300001370       GGSL
NJARET21090-37321-00404-20000315D0002429D000000000040012     GGSL
NJARET21090-37321-00411-00000024D0000089D0000400000411       GGSL
NJARET21090-37321-00412-70000084D0000461D0001400000412       GGSL
NJARET21090-37321-00426-40000168D0001847D0000700007426       GGSL
NJARET21090-37321-00428-80000360D0001464D0003600010428       GGSL
NJARET21090-37321-00429-50000012D0000251D0000400001429       GGSL
NJARET21090-37321-00442-40000024D0000165D0003100003442       GGSL
NJARET21090-37321-00443-10000012D0000142D0001900001443       GGSL
NJARET21090-37321-00506-30000072D0000334D0005000004506       GGSL
NJARET21090-37321-00527-80000012D0000056D0003000005527       GGSL
NJARET21090-37321-00530-80000004D0000042D0002600000530       GGSL
NJARET21090-37321-00535-30000048D0000617D000000000053548     GGSL
NJARET21090-37321-00549-00000012D0000119D0001700000549       GGSL
NJARET21090-37321-00573-50000012D0000046D0000800000573       GGSL
NJARET21090-37321-00574-20000008D0000070D0000600000574       GGSL
NJARET21090-37321-00603-90000004D0000052D0000600000603       GGSL
NJARET21090-37321-00611-40000032D0000846D0000600005611       GGSL
NJARET21090-37321-00612-10000072D0000401D00037000030612      GGSL
NJARET21090-37321-00613-80000008D0000114D00003000000613      GGSL
NJARET21090-37321-00614-50000010D0000493D0000000000614       GGSL
NJARET21090-37321-00629-90001296D0003901D0000000000630       GGSL
NJARET21090-37321-00631-20000048D0000189D0000900000631       GGSL
NJARET21090-37321-00651-00000024D0000327D00014000010651      GGSL
NJARET21090-37321-00652-70000624D0003370D0005300006652       GGSL
NJARET21090-37321-00655-80000006D0000044D00018000016556      GGSL
NJARET21090-37321-00680-00000012D0000121D0000600001680       GGSL
NJARET21090-37321-00681-70000004D0000055D00020000000681      GGSL
NJARET21090-37321-00688-60000060D0000404D0001000000688       GGSL
NJARET21090-37321-00690-90000072D0000819D0000100000690       GGSL
NJARET21090-37321-00691-60000414D0003560D0000100000691       GGSL
NJARET21090-37321-00692-30000044D0000600D0005700001692       GGSL
NJARET21090-37321-00692-30000182D0002224D0015900008692X      GGSL
NJARET21090-37321-00692-30000050D0000509D000030000069250     GGSL
NJARET21090-37321-00697-80000084D0000340D0003200000697       GGSL
NJARET21090-37321-00698-50000108D0000669D0002000003698       GGSL
NJARET21090-37321-00705-00000024D0000159D0002300001705       GGSL
NJARET21090-37321-00728-90000060D0000794D0000700001728       GGSL
NJARET21090-37321-00753-10000006D0000064D0000800000753       GGSL
NJARET21090-37321-00757-90000024D0000105D0001100000757       GGSL
NJARET21090-37321-00771-50000336D0001762D0009800019771       GGSL
NJARET21090-37321-00775-30000276D0001645D0000300000775       GGSL
NJARET21090-37321-00777-70000408D0005367D0001000002777       GGSL
NJARET21090-37321-00779-10000156D0001348D0000100000779       GGSL
NJARET21090-37321-00786-90000240D0001190D0000800008786       GGSL
NJARET21090-37321-00789-00000040D0000283D0057800000789       GGSL
NJARET21090-37321-00802-60000252D0001479D0000800000802       GGSL
NJARET21090-37321-00803-30000168D0001673D0005500003803       GGSL
NJARET21090-37321-00806-40000084D0000695D0002900010806       GGSL
NJARET21090-37321-00807-10000004D0000103D0000900000807       GGSL
NJARET21090-37321-00813-20000006D0000089D0000500005813       GGSL
NJARET21090-37321-00814-90000030D0000725D0000100000814       GGSL
NJARET21090-37321-00857-60000024D0000222D0002300001857       GGSL
NJARET21090-37321-00862-00000192D0002509D0002500019862       GGSL
NJARET21090-37321-00863-70000180D0002381D0000700007863       GGSL
NJARET21090-37321-00865-10000204D0001111D0000600002865       GGSL
NJARET21090-37321-00868-20000186D0002787D0001900003868       GGSL
NJARET21090-37321-00870-50000048D0000202D0000900000870       GGSL
NJARET21090-37321-00871-20000012D0000119D0001200000871       GGSL
NJARET21090-37321-00880-40000036D0000453D0002900000880       GGSL
NJARET21090-37321-00883-50000756D0003904D0023400015883       GGSL
NJARET21090-37321-00894-10000012D0000108D0000300000894       GGSL
NJARET21090-37321-00897-20000048D0000324D0001900006897       GGSL
NJARET21090-37321-00903-00000012D0000081D0001800003903       GGSL
NJARET21090-37321-00905-40000036D0000535D0000100001905       GGSL
NJARET21090-37321-00908-50000012D0000127D0000300001908       GGSL
NJARET21090-37321-00909-20000012D0000238D0000700002909       GGSL
NJARET21090-37321-00925-20001044D0003259D0019900007925       GGSL
NJARET21090-37321-00939-90000252D0003050D0007500004939       GGSL
NJARET21090-37321-00941-20000228D0002565D0000300002941       GGSL
NJARET21090-37321-00944-30000084D0000485D0000400000944       GGSL
NJARET21090-37321-00951-10000852D0003897D0002100021951       GGSL
NJARET21090-37321-00952-80000312D0001753D0001400003952       GGSL
NJARET21090-37321-00982-50000036D0000169D0010700006982       GGSL
NJARET21090-37321-00983-20000036D0000918D0000300002983       GGSL
NJARET21090-37321-00991-70000024D0000166D0001000001991       GGSL
NJARET21090-37321-00992-40000012D0000117D0000100000992       GGSL
NJARET21090-37321-02031-80000006D0000191D00027000002031      GGSL
NJARET21090-37321-02041-70000006D0000377D00001000002041      GGSL
NJARET21090-37321-02061-50000012D0000230D00030000012061      GGSL
NJARET21090-37321-02071-40000012D0000399D00030000012071      GGSL
NJARET21090-37321-02360-90000120D0000565D00098000092360      GGSL
NJARET21090-37321-02361-60000228D0002733D00036000012361      GGSL
NJARET21090-37321-02361-60000048D0000635D000010000023618     GGSL
NJARET21090-37321-02362-30000112D0002175D00003000032362      GGSL
NJARET21090-37321-02392-00000003D0000107D00001000002392      GGSL
NJARET21090-37321-02405-70000004D0000176D00000000002405      GGSL
NJARET21090-37321-02761-40000012D0000261D00003000002761      GGSL
NJARET21090-37321-04281-50000003D0000062D00000000004281      GGSL
NJARET21090-37321-05131-20000004D0000061D00021000015131      GGSL
NJARET21090-37321-05710-90000012D0000083D00006000005710      GGSL
NJARET21090-37321-07460-10000048D0000339D00003000007460      GGSL
NJARET21090-37321-07461-80000024D0000283D00007000007461      GGSL
NJARET21090-37321-07462-50000012D0000426D00002000017462      GGSL
NJARET21090-37321-07464-90000042D0000618D00000000007464      GGSL
NJARET21090-37321-07466-30000008D0000612D00018000027466      GGSL
NJARET21090-37321-07469-40000044D0003654D00000000007469      GGSL
NJARET21090-37321-07490-80000390D0002110D00337001207490      GGSL
NJARET21090-37321-07492-20000064D0001295D00000000007492      GGSL
NJARET21090-37321-07498-40000008D0000094D00018000007498      GGSL
NJARET21090-37321-08636-90000012D0000122D00012000008636      GGSL
NJARET21090-37321-09534-70000024D0000290D00000000009534      GGSL
NJARET21090-37321-30103-50000006D0000353D000000000030103     GGSL
NJARET21090-37321-45100-60000072D0000302D000060000045100     GGSL
NJARET21090-37321-45672-80000288D0002016D000000000045676     GGSL
NJARET21090-37321-46126-50000100D0000019D000060000046126     GGSL
NJARET21090-37321-46540-90000004D0000040D000320000046540     GGSL
NJARET21090-37321-47062-50000312D0000226D000060000047062     GGSL
NJARET21090-37321-60200-20000048D0000218D000000000060200     GGSL
NJARET21090-37321-60207-10000008D0000430D000010000060207     GGSL
NJARET21090-37321-60214-90000010D0000238D000170000060215     GGSL
NJARET21090-37321-60217-00000001D0000061D000000000060217     GGSL
NJARET21090-37321-60219-40000005D0000592D000000000060219     GGSL
NJARET21090-37321-60224-80000015D0000376D000000000060225     GGSL
NJARET21090-37321-60271-20000070D0000693D000000000060272     GGSL
NJARET21090-37321-60277-40000006D0000309D000000000060277     GGSL
NJARET21090-37321-60318-40000001D0000035D000840000060318     GGSL
NJARET21090-37321-60360-30000008D0000114D000030000360360     GGSL
NJARET21090-37321-60365-80000080D0002444D000500000060365     GGSL
NJARET21090-37321-60407-50000072D0000660D000000000060407     GGSL
NJARET21090-37321-60414-30000035D0001275D000080000360414     GGSL
NJARET21090-37321-60420-40000010D0000168D003810000060420     GGSL
NJARET21090-37321-60430-30000021D0000264D005260000060430     GGSL
NJARET21090-37321-60434-10000020D0000619D001130000060434     GGSL
NJARET21090-37321-60440-20000049D0000665D003160000060440     GGSL
NJARET21090-37321-60444-00000081D0002422D000090000060444     GGSL
NJARET21090-37321-60447-10000070D0000809D000000000060448     GGSL
NJARET21090-37321-60447-10000017D0000218D000400004060448X    GGSL
NJARET21090-37321-60454-90000025D0000393D001770001060454     GGSL
NJARET21090-37321-60476-10000025D0000315D005580000060478X    GGSL
NJARET21090-37321-60490-70000078D0001361D001040001760490     GGSL
NJARET21090-37321-60514-00000044D0000625D000140000060514     GGSL
NJARET21090-37321-60613-00000032D0000244D000100000060614X    GGSL
NJARET21090-37321-60728-10000041D0000533D018810000060728     GGSL
NJARET21090-37321-60728-10000100D0001726D000180000560729     GGSL
NJARET21090-37321-60728-10000100D0001295D000190000060730     GGSL
NJARET21090-37321-61118-90000018D0000214D000000000061120     GGSL
NJARET21090-37321-61119-60000030D0000520D000050000061121     GGSL
NJARET21090-38313-00008-00000090D0001728D0002900001BP3130    GGSL
NJARET21090-38313-00060-80000048D0001010D0003400001BP3160    GGSL
NJARET21090-38313-00080-60000102D0002224D0003700000BP3180D   GGSL
NJARET21090-38313-00081-30000018D0000188D0003700002AC7220    GGSL
NJARET21090-38313-00217-60000054D0001056D0001500000FS4350    GGSL
NJARET21090-38313-00407-10000012D0000224D0002900000RS7041    GGSL
NJARET21090-38313-00413-20000010D0000199D0003600001 RS7120   GGSL
NJARET21090-38313-00524-50000030D0000802D0001100000SL3310    GGSL
NJARET21090-38313-01010-20000096D0000523D0003300003CT3010    GGSL
NJARET21090-38313-01020-10000024D0000132D0012300007CT3020    GGSL
NJARET21090-38313-01030-00000024D0000126D0008600001CT3030    GGSL
NJARET21090-38313-03214-20000066D0000697D0002600001BP3214D   GGSL
NJARET21090-38313-03710-90000018D0000126D0004700000CT3710    GGSL
NJARET21090-38313-03720-80000006D0000042D0002600000CT3720    GGSL
NJARET21090-38313-03730-70000006D0000042D0007500001CT3730    GGSL
NJARET21090-38313-03740-60000012D0000084D0008000001CT3740    GGSL
NJARET21090-38313-04436-70000006D0000197D0002400001FL3460    GGSL
NJARET21090-38313-06830-10000006D0000343D0000900004 TP6830   GGSL
NJARET21090-38313-07245-20000012D0000232D0002100000RS7245    GGSL
NJARET21090-38313-07395-40000002D0000041D0000000000 RS7395   GGSL
NJARET21090-38313-13214-90000006D0000061D0000000000FS3214D   GGSL
NJARET21090-38313-18350-90000006D0000221D0000000000AL8350    GGSL
NJARET21090-38313-32340-00000016D0000123D0000000000CT3234    GGSL
NJARET21090-38313-63760-60000012D0000148D0001700000GS3760    GGSL
NJARET21090-38313-64250-10000018D0000413D0004400001BP4250    GGSL
NJARET21090-38858-02037-60000018D0000281D0000000000135706080 GGSL
NJARET21090-38858-02038-30000030D0000605D0000100001135806080 GGSL
NJARET21090-38858-05351-00000008D0000080D0000000000791304901 GGSL
NJARET21090-38858-05353-40000006D0000096D0000000000790902901 GGSL
NJARET21090-38858-05354-10000002D0000032D0000300003790902902 GGSL
NJARET21090-38858-05653-50000006D0000068D000070000037550609  GGSL
NJARET21090-38858-05657-30000012D0000078D000030000337590609  GGSL
NJARET21090-38858-05658-00000012D0000064D000030000337600609  GGSL
NJARET21090-38858-05869-00000025D0000107D00003000005642507   GGSL
NJARET21090-38858-06933-70000012D0000023D000140000696501200  GGSL
NJARET21090-38858-06935-10000012D0000018D000030000096701200  GGSL
NJARET21090-38858-06936-80000012D0000077D000070000196801200  GGSL
NJARET21090-38858-07764-60000006D0000081D0000000000980006770 GGSL
NJARET21090-38858-07765-30000012D0000202D0000200002980106770 GGSL
NJARET21090-38858-07766-00000024D0000455D0000000000980204770 GGSL
NJARET21090-38858-07782-00000024D0000499D00001000011200600   GGSL
NJARET21090-38858-08322-70000006D0000105D00002000001210600   GGSL
NJARET21090-38858-09930-30000012D0000102D00001000019310061178GGSL
NJARET21090-38858-10977-40000003D0000110D00017000001404011080GGSL
NJARET21090-38858-10979-80000120D0000386D00022000101406121080GGSL
NJARET21090-38858-10983-50000060D0000193D00017000121406121081GGSL
NJARET21090-38858-10984-20000020D0000181D00011000011407101081GGSL
NJARET21090-38858-10987-30000012D0000039D00004000011406121082GGSL
NJARET21090-38858-10991-00000012D0000034D00000000001406121083GGSL
NJARET21090-38858-10993-40000003D0000118D00005000011404011084GGSL
NJARET21090-38858-11001-50000001D0000041D00000000001408011082GGSL
NJARET21090-38858-11002-20000002D0000036D0000900000140901070 GGSL
NJARET21090-38858-11004-60000156D0000444D0000500000141112070 GGSL
NJARET21090-38858-11006-00000010D0000077D0000100000141310070 GGSL
NJARET21090-38858-11007-70000001D0000020D00002000011409011082GGSL
NJARET21090-38858-11010-70000080D0000379D00001000011412101082GGSL
NJARET21090-38858-11011-40000060D0000517D00016000001413101082GGSL
NJARET21090-38858-11014-50000012D0000028D00013000111416121086GGSL
NJARET21090-38858-11268-20000018D0000077D0000100001121006070 GGSL
NJARET21090-38858-11269-90000018D0000088D0000000000121106070 GGSL
NJARET21090-38858-11270-50000012D0000091D0000100000121206070 GGSL
NJARET21090-38858-11271-20000018D0000109D0000000000121406070 GGSL
NJARET21090-38858-11272-90000018D0000122D0000000000121506070 GGSL
NJARET21090-38858-11273-60000006D0000044D0000000000121606070 GGSL
NJARET21090-38858-11288-00000012D0000050D0000000000127512070 GGSL
NJARET21090-38858-11293-40000004D0000059D0000000000128004070 GGSL
NJARET21090-38858-11299-60000060D0000346D0000000000129006080 GGSL
NJARET21090-38858-11300-90000042D0000346D0000200001129106080 GGSL
NJARET21090-38858-11301-60000060D0000575D0000400001130006080 GGSL
NJARET21090-38858-11304-70000012D0000075D0001000000130612070 GGSL
NJARET21090-38858-11305-40000012D0000085D0000000000130704070 GGSL
NJARET21090-38858-11309-20000006D0000318D0000000000127702070 GGSL
NJARET21090-38858-11311-50000012D0000084D0000300000122612070 GGSL
NJARET21090-38858-11315-30000024D0000119D0000000000125512070 GGSL
NJARET21090-38858-11316-00000108D0000275D0000100000130536070 GGSL
NJARET21090-38858-11391-70000006D0000028D0000200002123806070 GGSL
NJARET21090-38858-13572-80000020D0000509D00010000023776042000GGSL
NJARET21090-38858-13584-10000042D0000176D000200001196850609  GGSL
NJARET21090-38858-13587-20000030D0000132D0001800004968506426 GGSL
NJARET21090-38858-13998-60000040D0000255D00000000001455101087GGSL
NJARET21090-38858-13999-30000072D0000359D00001000001450121087GGSL
NJARET21090-38858-14005-00000012D0000111D0000100000126106070 GGSL
NJARET21090-38858-60480-40000001D0000041D00001000011404012087GGSL
NJARET21090-38858-60597-90000030D0000276D000010000096521000  GGSL
NJARET21090-38858-60621-10000004D0000062D00002000009688041242GGSL
NJARET21090-38858-60623-50000072D0000358D0000000000129236070 GGSL
NJARET21090-38858-60637-20000006D0000059D0000200001124006070 GGSL
NJARET21090-38858-60645-70000004D0000031D0000300000745104222 GGSL
NJARET21090-38858-60647-10000004D0000033D0000200000745204222 GGSL
NJARET21090-38902-10120-40000036D0000189D0001300000 123184   GGSL
NJARET21090-38902-10120-40000036D0000202D0003100000123184    GGSL
NJARET21090-39526-38165-20000264D0008497D00064000033201C503  GGSL
NJARET21090-39526-38169-00000260D0004210D00101000033201C502  GGSL
NJARET21090-39526-38177-50000030D0000245D00062000023201C501  GGSL
NJARET21090-39526-38178-20000043D0003787D00023000003201L162  GGSL
NJARET21090-39526-38250-50000010D0001163D00096000003201L150  GGSL
NJARET21090-39526-38571-10000025D0004626D00069000003201C115  GGSL
NJARET21090-39526-38988-70000001D0000216D00058000003201C041  GGSL
NJARET21090-39526-45010-50000040D0000843D00040000003201C541  GGSL
NJARET21090-39526-60336-50000001D0000173D00018000003301C144  GGSL
NJARET21090-39526-60552-90000008D0002141D00009000003301R123  GGSL
NJARET21090-39996-30624-70000020D0000214D000000000030624     GGSL
NJARET21090-40232-01325-60000012D0000404D0000400000 01322    GGSL
NJARET21090-40235-75128-50000004D0000035D00027000001G30S     GGSL
NJARET21090-40235-75256-50000004D0000082D000010000025G30S    GGSL
NJARET21090-41333-00030-50000048D0000433D000150000078164     GGSL
NJARET21090-41333-00149-40001488D0006912D002640000003661     GGSL
NJARET21090-41333-00151-70000120D0000425D003210000004161     GGSL
NJARET21090-41333-00213-20006540D0081512D002180003300232     GGSL
NJARET21090-41333-00222-40000036D0000048D000240000066186     GGSL
NJARET21090-41333-00275-00000900D0006012D000210000066118     GGSL
NJARET21090-41333-00277-40000900D0006012D000210000066121     GGSL
NJARET21090-41333-00279-80000900D0006012D000050000066124     GGSL
NJARET21090-41333-00406-80001728D0002331D001130003066150     GGSL
NJARET21090-41333-01548-40000600D0008250D000000000001548     GGSL
NJARET21090-41333-03255-90000816D0003045D000240000203255     GGSL
NJARET21090-41333-03257-30000936D0006348D000290000603257     GGSL
NJARET21090-41333-03263-40000768D0002935D001220000403263     GGSL
NJARET21090-41333-03264-10000024D0000140D000140000003264     GGSL
NJARET21090-41333-03265-80000744D0005306D000810000303265     GGSL
NJARET21090-41333-03575-80000396D0005346D001800001103575     GGSL
NJARET21090-41333-04864-20001392D0011052D000110000004964     GGSL
NJARET21090-41333-09006-10000036D0000274D000770000009006     GGSL
NJARET21090-41333-10110-10001008D0000859D003430000066175     GGSL
NJARET21090-41333-10210-80000270D0000225D060460000001200     GGSL
NJARET21090-41333-10210-80001944D0001657D000190000003544     GGSL
NJARET21090-41333-10310-50002592D0002158D002080000103545     GGSL
NJARET21090-41333-10310-50000036D0000042D000000000066180     GGSL
NJARET21090-41333-10709-70000900D0000414D000340000066134     GGSL
NJARET21090-41333-10809-40000144D0000118D000030000066131     GGSL
NJARET21090-41333-10810-00000900D0000693D000180000066262     GGSL
NJARET21090-41333-11009-70000900D0000603D000060000066127     GGSL
NJARET21090-41333-11210-70001008D0004178D000230000266191     GGSL
NJARET21090-41333-11210-70000030D0000171D000000000066191X    GGSL
NJARET21090-41333-11310-40000900D0002259D000070000066208     GGSL
NJARET21090-41333-11609-90000900D0000999D000630000011609     GGSL
NJARET21090-41333-12810-80000900D0003978D000020000066209     GGSL
NJARET21090-41333-13009-50000900D0000702D000480000066128     GGSL
NJARET21090-41333-13009-50000035D0000036D000000000066128X    GGSL
NJARET21090-41333-13709-40000900D0000342D000150000066138     GGSL
NJARET21090-41333-13909-80000900D0000468D000210000066130     GGSL
NJARET21090-41333-14809-00000900D0000360D000190000066140     GGSL
NJARET21090-41333-15909-60000900D0000414D000120000066142     GGSL
NJARET21090-41333-16210-20000900D0000783D000070000066171     GGSL
NJARET21090-41333-16409-00000900D0000360D000040000066272     GGSL
NJARET21090-41333-16909-50000504D0000262D000020000066143     GGSL
NJARET21090-41333-17064-00001160D0009210D000590000117064     GGSL
NJARET21090-41333-17605-50000072D0000199D000000000017605     GGSL
NJARET21090-41333-17709-00001080D0000575D000790000017709     GGSL
NJARET21090-41333-19809-50000900D0000414D000150000066141     GGSL
NJARET21090-41333-21210-40000720D0004226D003490002366192     GGSL
NJARET21090-41333-21601-00014400D0064082D000780005803961     GGSL
NJARET21090-41333-22805-10000900D0002097D000070000066154     GGSL
NJARET21090-41333-27035-70011196D0139347D003210029600057     GGSL
NJARET21090-41333-27035-70003360D0032626D000060000000061     GGSL
NJARET21090-41333-43001-00009912D0045191D002320013603361     GGSL
NJARET21090-41333-44001-90001620D0009082D002570009213848     GGSL
NJARET21090-41333-66105-60000360D0005591D000000000066105     GGSL
NJARET21090-41333-66112-40000576D0007283D001500000066112     GGSL
NJARET21090-41333-66153-70000600D0003810D000980000066153     GGSL
NJARET21090-41333-66155-10000648D0006057D001030000066155     GGSL
NJARET21090-41333-66158-20000600D0003810D001540000066158     GGSL
NJARET21090-41333-66160-50000120D0001110D001890012066160     GGSL
NJARET21090-41333-66275-60000900D0001494D000260000066200     GGSL
NJARET21090-41333-66287-90001224D0002497D001670000066287     GGSL
NJARET21090-41333-66385-20001368D0002065D002540000966385     GGSL
NJARET21090-41333-66387-60002304D0003595D002300001003535     GGSL
NJARET21090-41333-66388-30004968D0007551D001780001503534     GGSL
NJARET21090-41333-66391-30003060D0008782D000440003466391     GGSL
NJARET21090-41333-67448-30000648D0001043D000930001467448     GGSL
NJARET21090-41333-70464-70012564D0094104D003730021570464     GGSL
NJARET21090-41333-70464-70000636D0007386D001640002392948     GGSL
NJARET21090-41333-74064-50003340D0025055D002130000603831     GGSL
NJARET21090-41333-74064-50000432D0005021D004810006993148     GGSL
NJARET21090-41333-75864-00000660D0009075D001020000001348     GGSL
NJARET21090-41333-82501-40006480D0031857D001510003803761     GGSL
NJARET21090-41333-82701-80000324D0004056D004660000077364     GGSL
NJARET21090-41333-84401-50003320D0016682D000940001604261     GGSL
NJARET21090-41333-88301-40000024D0000264D000840000076964     GGSL
NJARET21090-41333-88401-10000036D0000397D000460000077164     GGSL
NJARET21090-41333-93364-10000312D0003896D000170000019235     GGSL
NJARET21090-41333-93464-80000312D0003896D000300000019435     GGSL
NJARET21090-41333-93564-50000084D0000926D000420000093564     GGSL
NJARET21090-41333-99330-00000216D0001264D000000000066205     GGSL
NJARET21090-42206-00480-20000350D0002615D0000200002480       GGSL
NJARET21090-42206-09000-30000010D0000075D00052000019000      GGSL
NJARET21090-42206-09001-00000010D0000056D00040000019001      GGSL
NJARET21090-42206-14057-90000024D0000316D00018000009535C     GGSL
NJARET21090-42206-14189-70000010D0000030D0002900000505S      GGSL
NJARET21090-42206-14200-90000010D0000054D0023100001312S      GGSL
NJARET21090-42206-14328-00000030D0000024D0005100002200C      GGSL
NJARET21090-42206-14504-80000020D0000031D00086000002MMC      GGSL
NJARET21090-42206-14571-00000010D0000051D0006400000ZBM34     GGSL
NJARET21090-42206-14572-70000010D0000051D0004300000ZBF34     GGSL
NJARET21090-42206-14599-40000012D0000195D00039000009536CH    GGSL
NJARET21090-42206-14655-70000010D0000017D00003000005MQC      GGSL
NJARET21090-42206-14656-40000050D0000109D000120000011MQC     GGSL
NJARET21090-42206-15406-40000010D0000038D000210000015406     GGSL
NJARET21090-42206-15407-10000010D0000037D000200000015407     GGSL
NJARET21090-42206-24651-60000010D0000023D00071000001MQC      GGSL
NJARET21090-42206-30200-70000030D0000185D0001100000XT200     GGSL
NJARET21090-42206-30201-40000010D0000111D0004600000XT201     GGSL
NJARET21090-42206-40260-80000012D0000123D000460000120260     GGSL
NJARET21090-42206-40360-50000180D0006073D0001500000XT360M    GGSL
NJARET21090-42206-44000-60000222D0003652D0000700007XT4000    GGSL
NJARET21090-42206-44100-30000216D0004488D0000100001XT4100    GGSL
NJARET21090-42206-44200-00000204D0004570D0000700007XT4200    GGSL
NJARET21090-42206-54200-70000204D0006858D0000000000XT4200M   GGSL
NJARET21090-42206-63015-50000020D0000707D000260000163015     GGSL
NJARET21090-42206-63100-80000012D0000580D000120000163100     GGSL
NJARET21090-42206-95501-20000024D0000143D00040000009550C     GGSL
NJARET21090-42338-00112-00000001D0000031D0000000000SLTD      GGSL
NJARET21090-42338-01100-60000024D0000129D00000000001100      GGSL
NJARET21090-42338-01301-70000018D0000064D00000000001301      GGSL
NJARET21090-42338-04202-40000004D0000058D00002000004202      GGSL
NJARET21090-42338-04204-80000004D0000058D00005000004204      GGSL
NJARET21090-42338-04278-90000004D0000082D00000000004278W     GGSL
NJARET21090-42338-04581-00000004D0000067D00000000004581      GGSL
NJARET21090-42338-04590-20000004D0000045D00001000004590      GGSL
NJARET21090-42338-04591-90000004D0000045D00000000004591      GGSL
NJARET21090-42338-04592-60000008D0000090D00000000004592      GGSL
NJARET21090-42338-06256-50000006D0000017D00000000006256      GGSL
NJARET21090-42338-08102-30000002D0000050D00018000018102      GGSL
NJARET21090-42338-08104-70000004D0000089D00025000028104      GGSL
NJARET21090-42338-08142-90000002D0000050D00142000758142      GGSL
NJARET21090-42338-08191-70000006D0000144D00035000018191      GGSL
NJARET21090-42338-08196-20000002D0000058D00013000008196      GGSL
NJARET21090-42338-08199-30000008D0000276D00010000038199      GGSL
NJARET21090-42338-08210-50000004D0000154D00002000008210      GGSL
NJARET21090-42338-08242-60000002D0000077D00005000018242      GGSL
NJARET21090-42338-08282-20000002D0000053D00001000008282      GGSL
NJARET21090-42338-08284-60000002D0000053D00000000008284      GGSL
NJARET21090-42338-08307-20000002D0000050D00034000038307      GGSL
NJARET21090-42338-08760-50000002D0000034D00000000008760      GGSL
NJARET21090-42338-09134-30000004D0000068D00004000009134      GGSL
NJARET21090-42338-09176-30000006D0000173D00005000009176      GGSL
NJARET21090-42338-09178-70000006D0000209D00004000009178      GGSL
NJARET21090-42338-14216-80000048D0000072D00000000004216MD    GGSL
NJARET21090-42338-14219-90000024D0000058D00000000004219S     GGSL
NJARET21090-42338-18815-90000002D0000055D00003000018815      GGSL
NJARET21090-42338-19147-00000002D0000043D00000000009147G     GGSL
NJARET21090-42338-24417-60000016D0000085D00000000004417C     GGSL
NJARET21090-42338-24580-70000004D0000067D00000000004580SL    GGSL
NJARET21090-42338-42179-90000024D0000115D000020000042179     GGSL
NJARET21090-42351-43340-30000032D0001000D0000300000FB33100   GGSL
NJARET21090-42351-43370-00000004D0000124D0001000000FB5550    GGSL
NJARET21090-42351-45140-70000012D0000076D0001400001NH3100    GGSL
NJARET21090-42351-45530-60000006D0000072D0001800000LE640G    GGSL
NJARET21090-42351-45680-80000072D0000854D0000000000LBP520B   GGSL
NJARET21090-42351-45680-80000016D0000217D0001400000LB520B    GGSL
NJARET21090-42351-47110-80000504D0002197D0002500000RC        GGSL
NJARET21090-42351-52370-80000004D0000071D00052000004CH15B    GGSL
NJARET21090-42351-54460-40000001D0000250D0000400000CHA3B     GGSL
NJARET21090-42579-11500-60000025D0001032D0002300019APB5      GGSL
NJARET21090-42579-12324-70000024D0000294D000330000020YR324   GGSL
NJARET21090-42579-12346-90001848D0003511D0002300000TW3W      GGSL
NJARET21090-42579-12348-30001008D0001593D0005200006APRC      GGSL
NJARET21090-42579-12349-00000014D0000092D0009600000RS15      GGSL
NJARET21090-42579-12350-60000014D0000344D000400000020YR350   GGSL
NJARET21090-42579-16250-50000017D0003910D0004400025P6        GGSL
NJARET21090-42579-22350-30000384D0003137D00130000146YR350    GGSL
NJARET21090-42579-23100-30000176D0002523D00068000096YR3100   GGSL
NJARET21090-42579-23250-50000004D0000426D000150000020YR3250  GGSL
NJARET21090-42579-24250-40000003D0000426D000210000220YR4250  GGSL
NJARET21090-42579-26250-20000004D0000798D000240000120YR6250  GGSL
NJARET21090-42579-32500-90000012D0000500D00040000066YR3300   GGSL
NJARET21090-42579-32501-60000003D0000177D00094000006YR4300   GGSL
NJARET21090-42579-32502-30000008D0000683D00020000006YR6300   GGSL
NJARET21090-42579-43003-10000016D0001136D0000300001NB3       GGSL
NJARET21090-42579-43004-80000020D0001956D0002000000NB4       GGSL
NJARET21090-42579-43006-20000002D0000280D0000000000NB6       GGSL
NJARET21090-42579-43120-50000060D0000317D0000000000NB312     GGSL
NJARET21090-42579-43240-00000040D0000356D0000500001NB324     GGSL
NJARET21090-42579-63332-60000003D0000251D000400002012YR3300  GGSL
NJARET21090-42579-63354-80000002D0000222D000390000012YR4300  GGSL
NJARET21090-42579-63376-00000001D0000133D000020000012YR6300  GGSL
NJARET21090-42579-81276-90000018D0000283D000340000012YR350   GGSL
NJARET21090-42579-81343-80000016D0000498D000430000012YR3100  GGSL
NJARET21090-42579-81405-30000005D0000048D0004400000AP75      GGSL
NJARET21090-42579-81429-90000132D0002662D0001600000DDF7100PC GGSL
NJARET21090-42579-81519-70000003D0000083D0000500000PN301220  GGSL
NJARET21090-42579-81604-00000003D0001030D0000600000PROBL12300GGSL
NJARET21090-42579-81607-10000006D0000996D0001700000PROBLK6300GGSL
NJARET21090-42579-81619-40000002D0000149D0005100000APB1      GGSL
NJARET21090-42579-81624-80000072D0001014D0007100007PROBLK350 GGSL
NJARET21090-42579-81625-50000064D0001887D0008500006PROBLK3100GGSL
NJARET21090-42579-81766-50000010D0000424D0000000000AECSS     GGSL
NJARET21090-42579-81782-50000016D0000346D0000000000SG200PAL  GGSL
NJARET21090-42579-82278-20000012D0000194D0000900000TWBAG12   GGSL
NJARET21090-42579-82283-60000565D0007779D0244600080STRTS28   GGSL
NJARET21090-42579-82320-80000048D0000749D0002400000TWD24     GGSL
NJARET21090-42853-30000-50000016D0000082D0001600002OTYJIEDB8 GGSL
NJARET21090-42853-40000-20000011D0001531D0000000000TSFFD48   GGSL
NJARET21090-42853-60000-60000032D0000093D0000700000FFTRBB4   GGSL
NJARET21090-42854-03288-20000120D0000264D0001100003FG32WM1   GGSL
NJARET21090-42854-63278-50000012D0000028D0000000000FG32PC1   GGSL
NJARET21090-42854-70001-90000012D0000111D0001700008FG700MLFLOGGSL
NJARET21090-42854-93200-70000072D0000389D0000800000FG32SM1   GGSL
NJARET21090-43168-50313-60000008D0000105D0000200000 93101231 GGSL
NJARET21090-43168-50314-30000004D0000152D0000300000 93101232 GGSL
NJARET21090-43168-50315-00000004D0000183D0000400000 93101233 GGSL
NJARET21090-43281-00138-00000014D0000053D0002200000 20669    GGSL
NJARET21090-43281-00192-20000027D0000107D0000000000 20653    GGSL
NJARET21090-43281-00194-60000012D0000045D0052800303 20652    GGSL
NJARET21090-43281-00194-60000086D0000350D0029300036 20657    GGSL
NJARET21090-43281-00201-10000010D0000040D0024600000 20678    GGSL
NJARET21090-43281-00202-80000012D0000038D0013200024 20679    GGSL
NJARET21090-43281-00445-90000004D0000104D0000800000 Z606     GGSL
NJARET21090-43326-15762-10000004D0000125D0000000000 M20X30   GGSL
NJARET21090-43326-16720-00000009D0000091D0006300000 A8X10P   GGSL
NJARET21090-43326-16730-90000025D0000334D0006100000 A9X12P   GGSL
NJARET21090-43326-16764-40000002D0000237D0000600000 A20X40P  GGSL
NJARET21090-43326-17720-90000008D0000050D0000000000BRB8X10P  GGSL
NJARET21090-43326-18736-90000012D0000543D0000000000T10X16P   GGSL
NJARET21090-43786-05140-80000072D0000425D000110000005140     GGSL
NJARET21090-43786-07270-00000036D0000221D000070000007270     GGSL
NJARET21090-43786-70006-10000024D0000086D000250000070006     GGSL
NJARET21090-44434-30012-10000001D0000028D0000000000WDSBS     GGSL
NJARET21090-44434-30013-80000003D0000085D0000000000WDSCS     GGSL
NJARET21090-44434-30014-50000003D0000085D0000000000WDSCKS    GGSL
NJARET21090-44434-30015-20000002D0000056D0000000000WDSPS     GGSL
NJARET21090-44434-30016-90000002D0000044D0000000000WDMBS     GGSL
NJARET21090-44434-30017-60000003D0000066D0000000000WDMFS     GGSL
NJARET21090-44434-30019-00000002D0000044D0000300000WDMFRS    GGSL
NJARET21090-44434-30020-60000012D0000341D0000000000WDCWS     GGSL
NJARET21090-44434-30021-30000002D0000057D0000200002WDCMS     GGSL
NJARET21090-44434-30022-00000024D0000683D0000200002WDCOS     GGSL
NJARET21090-44434-30023-70000029D0000705D0000400004WDCBS     GGSL
NJARET21090-44434-30032-90000004D0000069D0000100001WDCPPC    GGSL
NJARET21090-44434-30033-60000004D0000069D0000000000WDCRPC    GGSL
NJARET21090-44600-01210-00000012D0000030D000190000401210     GGSL
NJARET21090-44600-01211-70000012D0000027D000990000001211     GGSL
NJARET21090-44600-08033-80000018D0000055D001580000008033     GGSL
NJARET21090-44600-30614-80000018D0000052D000770000030614     GGSL
NJARET21090-44600-31183-80000016D0000156D000000000031183     GGSL
NJARET21090-46385-10024-90000005D0000202D0001600001 10024    GGSL
NJARET21090-46385-10030-00000001D0000039D0000500002 10030    GGSL
NJARET21090-46385-10036-20000653D0040035D0006200066 10036    GGSL
NJARET21090-46385-40912-00000228D0004863D0001200012 40912    GGSL
NJARET21090-46385-40924-30000214D0004631D0006700026 40924    GGSL
NJARET21090-46385-40932-80000024D0000443D0003000004 40932    GGSL
NJARET21090-46385-40936-60000007D0000127D0004000000 40936    GGSL
NJARET21090-46385-41044-70000028D0000093D0002000008 41044    GGSL
NJARET21090-46385-49457-70000012D0000285D0000000000 49457    GGSL
NJARET21090-46385-85713-60000001D0000202D000000000085713     GGSL
NJARET21090-46385-85731-00000001D0000221D000000000085731     GGSL
NJARET21090-46385-89025-60000002D0000034D0000500000 89025    GGSL
NJARET21090-46385-92030-40000005D0000203D0001900002 92030    GGSL
NJARET21090-46385-92036-60000001D0000046D0000200002 92036    GGSL
NJARET21090-46539-62005-00000400D0001716D000000000075312     GGSL
NJARET21090-46539-64032-40000363D0003956D0024400244MOF32X    GGSL
NJARET21090-46561-00654-90000006D0000054D00000000003992401003GGSL
NJARET21090-46561-10015-50000006D0000074D000000000091105935J GGSL
NJARET21090-46561-17079-00000016D0000123D00000000003707901007GGSL
NJARET21090-46561-17362-30000012D0000032D00003000003736201001GGSL
NJARET21090-46561-17923-60000006D0000051D00006000003992611001GGSL
NJARET21090-46561-19234-10000002D0000094D000010000092346935K GGSL
NJARET21090-46561-19278-50000008D0000126D00003000003927811001GGSL
NJARET21090-46561-19354-60000008D0000320D00000000003939511001GGSL
NJARET21090-46561-99608-60000036D0000322D00013000003960801006GGSL
NJARET21090-46798-16210-00000012D0000043D000060000016210     GGSL
NJARET21090-46798-16457-90000005D0000235D000190000016457     GGSL
NJARET21090-46798-16458-60000007D0000444D000010000016458     GGSL
NJARET21090-46798-16459-30000004D0000071D000020000216459     GGSL
NJARET21090-46798-16469-20000006D0000130D000010000016469     GGSL
NJARET21090-46798-16481-40000006D0000074D000000000016481     GGSL
NJARET21090-47223-07118-90000144D0000204D00186000030711812   GGSL
NJARET21090-47400-66652-80000012D0001680D000190000166652     GGSL
NJARET21090-47977-00064-00000002D0000044D000150000075590     GGSL
NJARET21090-47977-00081-70000008D0000230D000410000074240     GGSL
NJARET21090-47977-00801-10000004D0000092D0002800001NA35329   GGSL
NJARET21090-47977-00807-30000002D0000052D0000100000NA35194   GGSL
NJARET21090-47977-00812-70000004D0000059D0002500001NA35241   GGSL
NJARET21090-47977-00891-20000008D0000084D0001900003NA35223   GGSL
NJARET21090-47977-01051-90000002D0000070D0000000000NARANCH3USGGSL
NJARET21090-47977-01107-30000004D0000080D0000000000RANCHB1   GGSL
NJARET21090-47977-01189-90000004D0000044D000000000024232     GGSL
NJARET21090-49206-02855-50000012D0000640D0000000000RMT2404MZ GGSL
NJARET21090-49206-03879-00000152D0006221D0000000000193055510 GGSL
NJARET21090-49206-12015-00000003D0000145D0000300000 12015    GGSL
NJARET21090-49206-12302-10000003D0000260D00001000001230200   GGSL
NJARET21090-49206-12660-20000001D0000139D00009000002519500   GGSL
NJARET21090-49206-13250-40000012D0000075D00000000002445300   GGSL
NJARET21090-49206-13251-10000036D0000321D00000000002445400   GGSL
NJARET21090-49206-14089-90000018D0000286D000000000040193     GGSL
NJARET21090-49206-15737-80000216D0002132D00015000061573700   GGSL
NJARET21090-49206-16801-50000001D0000017D0000500000 16801    GGSL
NJARET21090-49206-16807-70000004D0000110D0000100000 16807    GGSL
NJARET21090-49206-18295-00000030D0001695D000040000018295     GGSL
NJARET21090-49206-23805-30000001D0000225D00004000002380500   GGSL
NJARET21090-49206-24309-50000012D0000173D00000000002430900   GGSL
NJARET21090-49206-24322-40000012D0000198D00001000002432200   GGSL
NJARET21090-49206-24517-40000004D0000266D00024000032451700   GGSL
NJARET21090-49206-63022-20000006D0000341D0002800000163105000 GGSL
NJARET21090-49206-63026-00000004D0000226D00001000002398900   GGSL
NJARET21090-49206-63365-00000018D0000405D00005000042825800   GGSL
NJARET21090-49206-63390-20000060D0001187D00032000012915612   GGSL
NJARET21090-49206-64506-60000006D0000129D00042000002585600   GGSL
NJARET21090-49206-64527-10000042D0000824D00017000002811600   GGSL
NJARET21090-49206-64533-20000012D0000236D000160000126099900  GGSL
NJARET21090-49206-64537-00000003D0000120D00000000002914000   GGSL
NJARET21090-50197-00102-10000080D0000076D0000000000HT5OZ     GGSL
NJARET21090-50197-00104-50000840D0003989D0010300020HT4       GGSL
NJARET21090-50197-00108-30000252D0001812D0032700013HT8       GGSL
NJARET21090-50197-00118-20000465D0005730D0209600065HT18      GGSL
NJARET21090-50197-00136-60000025D0000494D0042600200HT36      GGSL
NJARET21090-50197-00150-20000263D0006428D0027000008HT50      GGSL
NJARET21090-50197-00204-20000324D0001536D0008700016PT4       GGSL
NJARET21090-50197-00208-00000168D0001208D0019200016PT8       GGSL
NJARET21090-50197-00218-90000235D0002899D0158000078PT18      GGSL
NJARET21090-50197-00236-30000183D0003594D0113000041PT36      GGSL
NJARET21090-50197-00250-90000071D0001739D0018900004PT50      GGSL
NJARET21090-50197-00304-90000072D0000342D0029300012GT4       GGSL
NJARET21090-50197-00308-70000036D0000259D0013800005GT8       GGSL
NJARET21090-50197-00318-60000033D0000408D0057400025GT18      GGSL
NJARET21090-50197-00404-60000192D0000892D0016800010RT4       GGSL
NJARET21090-50197-00408-40000510D0003942D0000000000RT8       GGSL
NJARET21090-50197-00418-30000012D0000149D0057300010RT18      GGSL
NJARET21090-50197-00604-00000888D0004293D0001400014BT4       GGSL
NJARET21090-50197-00618-70000163D0002020D0023700008BT18      GGSL
NJARET21090-50197-00718-40000047D0000580D0035900003TR18      GGSL
NJARET21090-50197-00736-80000004D0000079D0027700000TR36      GGSL
NJARET21090-50197-00904-10000132D0000650D0045800076TO4       GGSL
NJARET21090-50197-00908-90000006D0000043D0009000000TO8       GGSL
NJARET21090-50197-01009-20000504D0002414D0017100008BM04      GGSL
NJARET21090-50197-01024-50000095D0001953D0025800007BM24      GGSL
NJARET21090-50197-01130-30000001D0000027D0000600006GS30      GGSL
NJARET21090-50197-01309-30000108D0000679D0003600002DB03      GGSL
NJARET21090-50197-01317-80000052D0001477D0036400084DB17      GGSL
NJARET21090-50197-01803-60000204D0000732D0004100009GM3       GGSL
NJARET21090-50197-01825-80000156D0001496D0030400063GM25      GGSL
NJARET21090-50197-01906-40000006D0000029D0005100006GF51056   GGSL
NJARET21090-50197-02006-00001296D0003340D0014800044GL6       GGSL
NJARET21090-50197-02236-10000052D0000642D0011000006GG36      GGSL
NJARET21090-50197-02704-50000012D0000137D0003300001KM4       GGSL
NJARET21090-50197-02806-60000294D0001743D0008500011GF1010106 GGSL
NJARET21090-50197-02904-90000156D0000765D0004900009FT4       GGSL
NJARET21090-50197-02918-60000006D0000074D0028300000FT18      GGSL
NJARET21090-50197-03006-90000228D0001268D0020300008GSUL6     GGSL
NJARET21090-50197-03030-40000183D0002928D0008000013GSUL30    GGSL
NJARET21090-50197-03525-50000002D0000028D0033100000BTSG25    GGSL
NJARET21090-50197-03804-10001092D0005861D0015300008BTSP4     GGSL
NJARET21090-50197-03808-90000282D0002762D0001900019BTSP8     GGSL
NJARET21090-50197-03818-80000227D0004397D0047600040BTSP18    GGSL
NJARET21090-50197-03825-60000083D0002058D0065500041BTSP25    GGSL
NJARET21090-50197-05004-30000090D0000422D0000000000CT4MP     GGSL
NJARET21090-50197-05225-20000028D0000774D0062000010CGP25     GGSL
NJARET21090-50197-05320-40000172D0002774D0008500000ELF20     GGSL
NJARET21090-50197-05340-20000102D0002653D0029000008ELF40     GGSL
NJARET21090-50197-05614-40000030D0000382D0000000000EOLF14    GGSL
NJARET21090-50197-05628-10000053D0001187D0000000000EOLF28    GGSL
NJARET21090-50197-05830-80000118D0002642D0006500000EOFW30    GGSL
NJARET21090-50197-05907-70000120D0000779D0002000020LS7       GGSL
NJARET21090-50197-06030-10000179D0002125D0025800015LL30      GGSL
NJARET21090-50197-06604-40000072D0000312D0002900007BR4       GGSL
NJARET21090-50197-06708-90000006D0000043D0001500001ET8       GGSL
NJARET21090-50197-06718-80000004D0000050D0008700000ET18      GGSL
NJARET21090-50197-30508-20000132D0000527D0003600009INPF8     GGSL
NJARET21090-50197-51324-10000054D0000324D0003900039EONM24    GGSL
NJARET21090-50197-70101-30000600D0004328D0002300001AP1       GGSL
NJARET21090-50197-70102-00000240D0002792D0002800000AP2       GGSL
NJARET21090-50197-70102-00000017D0000171D0049600048AP2X      GGSL
NJARET21090-50197-70104-40003408D0009571D0032100018AP4       GGSL
NJARET21090-50197-70108-20002280D0009489D0037400035AP8       GGSL
NJARET21090-50197-70108-20000840D0003889D0000000000AP8D      GGSL
