TXBWIC21090-00402-00000-00001710D0086412D0328300236          GGSL
TXBWIC21090-00402-01012-60000041D0005309D00400000501012      GGSL
TXBWIC21090-00402-01014-00000449D0044951D01111000441014      GGSL
TXBWIC21090-00402-01492-60000002D0000006D000550000014SSB     GGSL
TXBWIC21090-00402-01499-50000002D0000006D000220000014SS      GGSL
TXBWIC21090-00402-02419-20000008D0000176D000020001510XS-20   GGSL
TXBWIC21090-00402-02699-50000340D0000399D002200000010XS-20B  GGSL
TXBWIC21090-00402-02750-60000175D0000776D0040000000B75       GGSL
TXBWIC21090-00402-05418-20000075D0000239D00300000255418      GGSL
TXBWIC21090-00402-10142-80000304D0028137D011890014110145B    GGSL
TXBWIC21090-00402-10147-30000061D0005639D00113000011014 G    GGSL
TXBWIC21090-00402-11730-60000050D0000179D004000000011730     GGSL
TXBWIC21090-00402-33117-70000075D0000025D0102500000PC11-7    GGSL
TXBWIC21090-00402-33354-60000525D0000069D0145000450PC5-4     GGSL
TXBWIC21090-00402-33375-10000900D0000175D0045000075PC7-5     GGSL
TXBWIC21090-00402-41819-90000011D0000125D000520002314TRS     GGSL
TXBWIC21090-00402-44475-40000025D0000009D0000000000PLCD 7-5  GGSL
TXBWIC21090-00402-91014-30000060D0005085D00030000301014 BLACKGGSL
TXBWIC21090-00772-00047-50000001D0000010D000000000047        GGSL
TXBWIC21090-00772-00145-80000001D0000012D0000000000145       GGSL
TXBWIC21090-00772-00271-40000314C0000012C0000000000271       GGSL
TXBWIC21090-00772-00440-40000001D0000008D0000000000440       GGSL
TXBWIC21090-00772-00446-60000001D0000008D0000000000446       GGSL
TXBWIC21090-00772-00493-00000001D0000009D0000000000493       GGSL
TXBWIC21090-00772-00511-10000314C0000009C0000000000511       GGSL
TXBWIC21090-00772-00644-60000002D0000026D0000000000644       GGSL
TXBWIC21090-00772-01300-00000003D0000007D00000000001300      GGSL
TXBWIC21090-00772-01456-40000006D0000025D00000000001456      GGSL
TXBWIC21090-00772-02054-10000002D0000014D00000000002054      GGSL
TXBWIC21090-00772-02105-00000001D0000059D00000000002105      GGSL
TXBWIC21090-00772-02149-40000001D0000024D00000000002149      GGSL
TXBWIC21090-00772-02281-10000001D0000021D00000000002281      GGSL
TXBWIC21090-00772-02388-70000002D0000015D00000000002388      GGSL
TXBWIC21090-00772-02390-00000002D0000020D00000000002390      GGSL
TXBWIC21090-00772-02391-70000002D0000020D00000000002391      GGSL
TXBWIC21090-00772-02410-50000002D0000014D00000000002410      GGSL
TXBWIC21090-00772-02423-50000001D0000012D00000000002423      GGSL
TXBWIC21090-00772-02434-10000002D0000030D00000000002434      GGSL
TXBWIC21090-00772-02435-80000001D0000016D00000000002435      GGSL
TXBWIC21090-00772-02530-00000001D0000059D00000000002530      GGSL
TXBWIC21090-00772-03378-70000001D0000016D00000000003378      GGSL
TXBWIC21090-00772-03858-40000001D0000020D00000000003858      GGSL
TXBWIC21090-00772-04889-70000001D0000010D00000000004889      GGSL
TXBWIC21090-00772-05027-20000001D0000011D00000000005027      GGSL
TXBWIC21090-00772-05028-90000001D0000011D00000000005028      GGSL
TXBWIC21090-00772-05029-60000001D0000011D00000000005029      GGSL
TXBWIC21090-00772-05030-20000001D0000011D00000000005030      GGSL
TXBWIC21090-00772-05031-90000002D0000021D00000000005031      GGSL
TXBWIC21090-00772-05032-60000001D0000011D00000000005032      GGSL
TXBWIC21090-00772-05033-30000001D0000011D00000000005033      GGSL
TXBWIC21090-00772-05035-70000001D0000011D00000000005035      GGSL
TXBWIC21090-00772-05038-80000001D0000011D00000000005038      GGSL
TXBWIC21090-00772-05042-50000001D0000011D00000000005042      GGSL
TXBWIC21090-00772-05182-80000001D0000012D00000000005182      GGSL
TXBWIC21090-00772-05248-10000003D0000011D00000000005248      GGSL
TXBWIC21090-00772-05399-00000006D0000022D00000000005399      GGSL
TXBWIC21090-00772-05945-90000006D0000032D00000000005945      GGSL
TXBWIC21090-00772-06062-20000003D0000015D00000000006062      GGSL
TXBWIC21090-00772-07720-00000002D0000024D00000000007720      GGSL
TXBWIC21090-00772-08815-20000001D0000071D00000000008815      GGSL
TXBWIC21090-00772-09081-00000001D0000012D00000000009081      GGSL
TXBWIC21090-00772-09208-10000002D0000017D00000000009208      GGSL
TXBWIC21090-00772-09216-60000001D0000016D00000000009216      GGSL
TXBWIC21090-00772-09232-60000002D0000007D00000000009232      GGSL
TXBWIC21090-00772-09317-00000006D0000022D00000000009317      GGSL
TXBWIC21090-00772-09390-30000001D0000012D00000000009390      GGSL
TXBWIC21090-00772-09397-20000002D0000024D00000000009397      GGSL
TXBWIC21090-00772-09415-30000003D0000011D00000000009415      GGSL
TXBWIC21090-00772-30149-70000002D0000030D000000000030149     GGSL
TXBWIC21090-00772-31202-80000003D0000023D000000000031202     GGSL
TXBWIC21090-00772-31261-50000002D0000008D000000000031261     GGSL
TXBWIC21090-00772-31710-80000002D0000020D000000000031710     GGSL
TXBWIC21090-00772-31711-50000001D0000027D000000000031711     GGSL
TXBWIC21090-02800-91501-30000375D0001853D00000000001501      GGSL
TXBWIC21090-10106-00000-00000006D0000069D0000000000HG-51000  GGSL
TXBWIC21090-10367-00110-70000480D0002996D0118800588110       GGSL
TXBWIC21090-10367-00130-50000081D0004017D0066700219130.0     GGSL
TXBWIC21090-10367-00150-30000058D0001560D0030400108150.0     GGSL
TXBWIC21090-10367-00460-30000040D0000241D0008000000ML0460 8  GGSL
TXBWIC21090-10367-00530-30000002D0000086D0000000000530.0     GGSL
TXBWIC21090-10367-00560-00000008D0000028D0041600008ML0560 8  GGSL
TXBWIC21090-10367-00810-60000024D0000108D0000000024ML0810    GGSL
TXBWIC21090-10367-01000-00000072D0000880D0006000024ML1000    GGSL
TXBWIC21090-10367-01010-90000108D0001523D0002400012ML1010    GGSL
TXBWIC21090-10367-01020-80000012D0000182D0008400000ML1020    GGSL
TXBWIC21090-10367-01050-50000024D0000292D0001200000ML1050    GGSL
TXBWIC21090-10367-01111-30000048D0000125D00104000001111.0    GGSL
TXBWIC21090-10367-01112-00000008D0000021D00024000001112.0    GGSL
TXBWIC21090-10367-01120-50000120D0000296D00168000001120.0    GGSL
TXBWIC21090-10367-01140-30000008D0000023D00000000001140.0    GGSL
TXBWIC21090-10367-01240-00000012D0000071D00000000121240.0    GGSL
TXBWIC21090-11247-00250-40000009D0000349D000450001700640     GGSL
TXBWIC21090-11247-00911-40000001D0000046D000000000000911     GGSL
TXBWIC21090-11247-00913-80000002D0000172D000000000000913     GGSL
TXBWIC21090-11247-01050-90000037D0000534D000980000001050     GGSL
TXBWIC21090-11247-01541-20000020D0000767D000470000001541     GGSL
TXBWIC21090-11247-01855-00000004D0000822D000000000001855     GGSL
TXBWIC21090-11247-02305-90000002D0000734D000000000202305     GGSL
TXBWIC21090-11247-02308-00000002D0000160D000000000102301     GGSL
TXBWIC21090-11247-02450-60000001D0000054D000000000602450     GGSL
TXBWIC21090-11247-03111-50000016D0000528D001080000003111     GGSL
TXBWIC21090-11247-04525-90000158D0003958D001240014204525     GGSL
TXBWIC21090-11247-05350-60000007D0000362D000260000005350     GGSL
TXBWIC21090-11247-05450-30000016D0000705D001330000205450     GGSL
TXBWIC21090-11247-06238-60000080D0001318D000000000006238     GGSL
TXBWIC21090-11247-11024-70000012D0000079D000000000011024     GGSL
TXBWIC21090-11247-12024-60000048D0000246D000000000012024     GGSL
TXBWIC21090-11247-13010-80000027D0000101D000630001213010     GGSL
TXBWIC21090-11247-14024-40000012D0000075D000000000014024     GGSL
TXBWIC21090-11247-16004-20000084D0000561D001440001216004     GGSL
TXBWIC21090-11247-20002-30000012D0000061D000000000020002     GGSL
TXBWIC21090-11247-20103-70000018D0000118D000000000020103     GGSL
TXBWIC21090-11247-21004-60000054D0000411D000000000021004     GGSL
TXBWIC21090-11247-30004-40000114D0000912D003300003030004     GGSL
TXBWIC21090-11247-52813-40000005D0000089D000820000652813     GGSL
TXBWIC21090-11247-52825-70000002D0000038D001020000052825     GGSL
TXBWIC21090-11247-52826-40000006D0000032D000000000652826     GGSL
TXBWIC21090-11247-52829-50000006D0000068D000420000052829     GGSL
TXBWIC21090-11247-52851-60000002D0000048D000000000052851     GGSL
TXBWIC21090-11247-52876-90000012D0000070D000000000052876     GGSL
TXBWIC21090-11247-52878-30000002D0000271D000000000052878     GGSL
TXBWIC21090-11247-52881-30000004D0000080D000000000052881     GGSL
TXBWIC21090-11247-52888-20000102D0000586D001230000652888     GGSL
TXBWIC21090-11247-52889-90000137D0002113D001340001852889     GGSL
TXBWIC21090-11247-60116-50000006D0000067D001060000060116     GGSL
TXBWIC21090-11247-61008-20000096D0000920D000000002461008     GGSL
TXBWIC21090-11247-61024-20000342D0002342D004380024061024     GGSL
TXBWIC21090-11247-71016-40000156D0001522D000000002471001     GGSL
TXBWIC21090-11247-71128-40000032D0000721D000000000071128     GGSL
TXBWIC21090-11247-71250-20000012D0000623D000000000071250     GGSL
TXBWIC21090-11247-90001-50000072D0000387D000000009690001     GGSL
TXBWIC21090-11247-90128-90000052D0000550D000120000890128     GGSL
TXBWIC21090-11423-00338-70000168D0000963D0071400108HG-33801  GGSL
TXBWIC21090-11423-94108-50000048D0000537D0006300006HG-94108  GGSL
TXBWIC21090-11423-94127-60000072D0000351D0045100012HG-64127  GGSL
TXBWIC21090-14021-00322-30000001D0000129D00000000002020      GGSL
TXBWIC21090-14021-00337-70000075C0000129C00000000002000      GGSL
TXBWIC21090-14021-00534-00000007D0000413D00000000008000      GGSL
TXBWIC21090-14021-00732-00000004D0000272D00000000007110      GGSL
TXBWIC21090-14021-01032-00000002D0000258D00000000006020      GGSL
TXBWIC21090-14021-01234-80000002D0000214D00000000005110      GGSL
TXBWIC21090-14021-01314-70000002D0000134D00000000009090      GGSL
TXBWIC21090-14021-01317-80000060D0000672D00000000002100-2    GGSL
TXBWIC21090-14021-01412-00000012D0001926D00000000001024      GGSL
TXBWIC21090-14021-01415-10000078C0000311C00000000001000      GGSL
TXBWIC21090-14021-02731-10000003D0001161D00000000001060B     GGSL
TXBWIC21090-14021-02734-20000001D0000266D00000000001036A     GGSL
TXBWIC21090-14021-03029-80000002D0000418D00000000001040      GGSL
TXBWIC21090-14021-03228-50000010D0003630D00000000001050BK    GGSL
TXBWIC21090-15966-49430-10000026D0000384D000050000049 00 430 GGSL
TXBWIC21090-16069-00005-90000018D0000115D0013500000TP-15C    GGSL
TXBWIC21090-16069-00007-30000027D0000168D0006900000BN-1      GGSL
TXBWIC21090-16069-00008-00000022C0000168C0038100156BN-2      GGSL
TXBWIC21090-16069-00013-40000012D0000304D0006200000BN-3      GGSL
TXBWIC21090-16069-00014-10000012D0000252D0004800000BN-4      GGSL
TXBWIC21090-16069-00030-10000010D0000126D0013000000OW-6      GGSL
TXBWIC21090-16069-00049-30000008D0000132D0003800012DX-7      GGSL
TXBWIC21090-16069-00667-90000212D0004680D0011600072RHO-4US   GGSL
TXBWIC21090-18506-00000-00000180D0002569D01345001200111-5    GGSL
TXBWIC21090-18506-00010-30000036D0000257D0027100024010-6     GGSL
TXBWIC21090-18506-00021-90000060D0000911D0024200180021-6     GGSL
TXBWIC21090-18506-00102-50000078D0000308D0026600012102-12    GGSL
TXBWIC21090-18506-00110-50000592D0003829D0004700036110-12    GGSL
TXBWIC21090-18506-00116-20000216D0001335D0065300216116-12    GGSL
TXBWIC21090-18506-00117-90000042D0000388D0069300084117-6     GGSL
TXBWIC21090-18506-00125-40000072D0000378D0085200000125       GGSL
TXBWIC21090-18506-00130-80000036D0000197D0039600000130       GGSL
TXBWIC21090-22102-75210-60000008D0000254D00004000007521      GGSL
TXBWIC21090-22179-10035-00000016D0000786D0006500026LG4110    GGSL
TXBWIC21090-22179-10084-80000012D0000090D0015000042LG7220    GGSL
TXBWIC21090-22179-10090-90000069D0001774D0001500033LG4300    GGSL
TXBWIC21090-22179-10115-90000050D0000892D0008000103lg 5599   GGSL
TXBWIC21090-22179-10124-10000144D0000839D0049200006LG6515    GGSL
TXBWIC21090-22179-10139-50001506D0006253D0013500012LG1130    GGSL
TXBWIC21090-22179-10140-10000020D0002666D0002000010LG6520    GGSL
TXBWIC21090-22179-10150-00000101D0001163D00424002487115      GGSL
TXBWIC21090-22179-10151-70000054D0002558D00166000137117      GGSL
TXBWIC21090-22179-10185-20000072D0000779D0047500000LG6500    GGSL
TXBWIC21090-22179-10246-00000150D0002524D0040500558LG6570    GGSL
TXBWIC21090-22179-10247-70000128D0003172D00515000937122      GGSL
TXBWIC21090-22179-10248-40000042D0000344D0021300027LG6575    GGSL
TXBWIC21090-22179-10375-70000174D0001242D0000000006lg 6299   GGSL
TXBWIC21090-22179-10390-00000114D0001072D0040800360LG6332    GGSL
TXBWIC21090-22179-10391-70000012D0000188D0000000000LG6336    GGSL
TXBWIC21090-22179-10395-50000015D0000490D0008000007LG6356    GGSL
TXBWIC21090-22179-10399-30000024D0000130D0062400048LG7198    GGSL
TXBWIC21090-22179-10408-20000250D0001991D0033300075LG 6338   GGSL
TXBWIC21090-22179-10429-70000312D0004981D0002400684LG6334    GGSL
TXBWIC21090-22179-10454-90000099D0000978D0026700072lg 3303   GGSL
TXBWIC21090-22179-10458-70000048D0000473D0019500012lg 3234   GGSL
TXBWIC21090-22179-10517-10000006D0000128D0000000006lg 3176   GGSL
TXBWIC21090-22179-10529-40000010D0000080D0050000090lg 7350   GGSL
TXBWIC21090-22401-00115-80000072D0003550D0023700031MDC-15    GGSL
TXBWIC21090-22401-00301-50000021D0000286D0010000030THD-20    GGSL
TXBWIC21090-22401-00380-10000004D0000054D0064000088NDETC-20MCGGSL
TXBWIC21090-22401-10088-20000006D0000179D0006800058EAR-60    GGSL
TXBWIC21090-23626-00605-80001008D0012697D2266300048116334    GGSL
TXBWIC21090-23626-00615-70001126D0012799D1502500089116336    GGSL
TXBWIC21090-23626-00630-00000500D0007084D0776300056116341    GGSL
TXBWIC21090-23626-00650-80000060D0000202D0049200000000600    GGSL
TXBWIC21090-23626-01710-80000114D0000589D0112200000000800    GGSL
TXBWIC21090-23626-01720-70000132D0000929D0081300000000900    GGSL
TXBWIC21090-23883-00001-10000190D0004016D0069000006G362      GGSL
TXBWIC21090-23883-00002-80000093D0000460D0022300000G385      GGSL
TXBWIC21090-23883-00003-50000099D0000494D0062700000G390      GGSL
TXBWIC21090-23883-01002-70000139D0001465D00241000241002      GGSL
TXBWIC21090-23883-05000-90000039D0000255D00121000015000      GGSL
TXBWIC21090-23883-08620-60000001D0000216D00008000008620B     GGSL
TXBWIC21090-23883-15710-40000851D0010079D157730035115710     GGSL
TXBWIC21090-23883-16100-20000128D0001843D000980000216100MP   GGSL
TXBWIC21090-23883-21210-00000008D0000363D000640000021210XP   GGSL
TXBWIC21090-23883-26011-80000068D0002529D000800000026011XP   GGSL
TXBWIC21090-23883-26021-70000116D0004768D006430001326021XP   GGSL
TXBWIC21090-23883-26031-60000017D0000875D000240000226031XP   GGSL
TXBWIC21090-23883-27010-00000037D0000909D000570000327010     GGSL
TXBWIC21090-23883-27020-90000143D0003804D001660001927020     GGSL
TXBWIC21090-23883-27030-80000036D0001158D001240000827030     GGSL
TXBWIC21090-23883-60100-30000089D0006040D001290000860100     GGSL
TXBWIC21090-23883-63924-20000011D0002187D000380000163924     GGSL
TXBWIC21090-23883-67711-40000002D0000030D00002000006-7711    GGSL
TXBWIC21090-23883-68060-20000001D0000020D00005000006-8060    GGSL
TXBWIC21090-23883-68061-90000001D0000029D00005000006-8061    GGSL
TXBWIC21090-23883-68238-50000005D0000321D00000000006-8238    GGSL
TXBWIC21090-23883-80000-00000003D0000157D00009000128000A     GGSL
TXBWIC21090-23883-81000-90000315C0000157C000070000181000A    GGSL
TXBWIC21090-23883-84600-80000050D0001614D002120022084700A    GGSL
TXBWIC21090-23883-97100-70000001D0000105D000120000097100     GGSL
TXBWIC21090-23883-97361-20000003D0000544D000120000097361     GGSL
TXBWIC21090-23883-97561-60000001D0000180D000010000097561     GGSL
TXBWIC21090-24654-05922-10000024D0000288D00000000005926      GGSL
TXBWIC21090-24654-05931-30000024D0000341D00000000005935      GGSL
TXBWIC21090-24654-05962-70000042D0000515D00024000005962      GGSL
TXBWIC21090-24654-51806-30000012D0000069D00000000005180-6    GGSL
TXBWIC21090-24654-55110-70000192D0001051D00131000185110-6    GGSL
TXBWIC21090-24654-55118-30000168D0001235D00415000005118.0    GGSL
TXBWIC21090-25845-12354-70000072D0000096D000000000024951     GGSL
TXBWIC21090-26455-91350-40000004D0000231D001110001070805-001-GGSL
TXBWIC21090-26978-30301-10000158D0001016D001890003030301     GGSL
TXBWIC21090-28009-11225-80000494D0003050D02231001251225.0    GGSL
TXBWIC21090-28009-11250-00002813D0025917D02519001721250.0    GGSL
TXBWIC21090-28009-11420-70000011D0000066D00749000201420P     GGSL
TXBWIC21090-28009-11440-50001757D0012402D00722000001440P     GGSL
TXBWIC21090-28009-11640-90000900D0005049D00000000001640      GGSL
TXBWIC21090-28009-11925-70000260D0002231D00065000001925      GGSL
TXBWIC21090-28009-15240-70000142D0001011D00264000015240.0    GGSL
TXBWIC21090-28009-15440-30000060D0000485D00000000001840      GGSL
TXBWIC21090-28009-15450-00000008D0000050D00382000255450.0    GGSL
TXBWIC21090-28009-15540-80000788D0003235D02649001005540.0    GGSL
TXBWIC21090-28009-15740-20000065D0000384D00845000005740.0    GGSL
TXBWIC21090-30541-01020-60000192D0000459D0016800000JCD-024SM GGSL
TXBWIC21090-30541-01030-50000024D0000223D0016200000JCD-100SMJGGSL
TXBWIC21090-30541-01034-30000003D0000063D0006200000JCD-030SM GGSL
TXBWIC21090-30541-09982-90000024D0000063D0084000000JCD-TPP03 GGSL
TXBWIC21090-30641-09801-20000525D0001155D0000000375SWPDQ     GGSL
TXBWIC21090-30641-32937-60000360D0000741D0007200090RPDQ      GGSL
TXBWIC21090-30641-33935-10000468D0000968D0007200072YPDQ      GGSL
TXBWIC21090-30641-35936-60000324D0000675D0005400090WPDQ      GGSL
TXBWIC21090-32247-00900-30000030D0000090D00630000901009001   GGSL
TXBWIC21090-32247-00910-20000012D0000030D00162000001009101   GGSL
TXBWIC21090-32247-00950-80000012D0000032D00096000001009501   GGSL
TXBWIC21090-32247-03313-80000045D0001164D00280000003313B     GGSL
TXBWIC21090-32247-03594-10001210D0007057D007130000070359430  GGSL
TXBWIC21090-32247-05514-70002805D0011054D037300012570551430  GGSL
TXBWIC21090-32247-10500-20000030D0000279D0000600024110500    GGSL
TXBWIC21090-32247-11307-60001064D0002379D029710008071130756  GGSL
TXBWIC21090-32247-14810-80000016D0000099D000000000014810     GGSL
TXBWIC21090-32247-14905-10000016D0000109D000880000014905     GGSL
TXBWIC21090-32247-17323-00000006D0000048D000840000017323     GGSL
TXBWIC21090-32247-17488-60000004D0000120D000000000017590     GGSL
TXBWIC21090-32247-17508-10000012D0000147D000600000017508     GGSL
TXBWIC21090-32247-17511-10000006D0000070D000000000017511     GGSL
TXBWIC21090-32247-17582-10000006D0000070D000000000017582     GGSL
TXBWIC21090-32247-18221-80000020D0000450D000760000018221     GGSL
TXBWIC21090-32247-18222-50000004D0000083D000160000018222     GGSL
TXBWIC21090-32247-18225-60000030D0000335D000840000018225     GGSL
TXBWIC21090-32247-18272-00000006D0000032D000230000018272     GGSL
TXBWIC21090-32247-18296-60000006D0000072D000180000018296     GGSL
TXBWIC21090-32247-18302-40000004D0000091D000160000018302     GGSL
TXBWIC21090-32247-18346-80000012D0000227D000320000418346     GGSL
TXBWIC21090-32247-18348-20000012D0000155D000360000018348     GGSL
TXBWIC21090-32247-18350-50000060D0000382D007650000018350     GGSL
TXBWIC21090-32247-18353-60000018D0000426D001920000018353     GGSL
TXBWIC21090-32247-18365-90000006D0000160D000000000018365     GGSL
TXBWIC21090-32247-19594-20000146D0001164D000770000271959430  GGSL
TXBWIC21090-32247-20784-30001044D0003153D003000009672078430  GGSL
TXBWIC21090-32247-21030-00000005D0000175D002240000021030A    GGSL
TXBWIC21090-32247-21605-00000058D0001064D001250000121605     GGSL
TXBWIC21090-32247-21701-90000084D0000623D000240000021701     GGSL
TXBWIC21090-32247-22305-80000053D0000806D001040000022305     GGSL
TXBWIC21090-32247-23100-80000012D0000123D000000000023100     GGSL
TXBWIC21090-32247-23405-40000011D0000172D003530000023405B    GGSL
TXBWIC21090-32247-25006-10000027D0000579D006220000025006A    GGSL
TXBWIC21090-32247-25009-20000034D0001873D000040000025009     GGSL
TXBWIC21090-32247-26003-90000035D0000807D000500000026003D    GGSL
TXBWIC21090-32247-26007-70000004D0000129D002320000026007B    GGSL
TXBWIC21090-32247-26784-70000090D0000317D010740006672678430  GGSL
TXBWIC21090-32247-30073-50000004D0000058D000000000030073     GGSL
TXBWIC21090-32247-30156-50000020D0000305D000440000030156     GGSL
TXBWIC21090-32247-30177-00000006D0000089D000640000030177     GGSL
TXBWIC21090-32247-35594-00000050D0000291D000250000073559430  GGSL
TXBWIC21090-32247-37594-80000295D0002136D024420000773759430  GGSL
TXBWIC21090-32247-37610-50000159D0002854D000560005937610A    GGSL
TXBWIC21090-32247-38605-00000081D0001193D000280000038605D    GGSL
TXBWIC21090-32247-38615-90000064D0002161D000240000038615     GGSL
TXBWIC21090-32247-39594-60000160D0001380D020590005073959430  GGSL
TXBWIC21090-32247-42784-50000126D0000427D000960002474278430  GGSL
TXBWIC21090-32247-47783-30000156D0000537D001560001274778300  GGSL
TXBWIC21090-32247-49019-10000029D0000351D000650000049019     GGSL
TXBWIC21090-32247-49024-50000067D0001013D000070000049024     GGSL
TXBWIC21090-32247-49785-50000108D0000391D010980000674978500  GGSL
TXBWIC21090-32247-50086-90000006D0000100D00000000005008610   GGSL
TXBWIC21090-32247-50087-60000006D0000093D00066000005008710   GGSL
TXBWIC21090-32247-50088-30000006D0000100D00018000005008810   GGSL
TXBWIC21090-32247-50089-00000012D0000288D00024000005008910   GGSL
TXBWIC21090-32247-50154-50000004D0000031D000570000145015430  GGSL
TXBWIC21090-32247-50240-50000090D0004461D000000000050240     GGSL
TXBWIC21090-32247-50250-40000098D0001886D000000000050250     GGSL
TXBWIC21090-32247-50524-60001474D0010881D051360024275052430  GGSL
TXBWIC21090-32247-51105-60000019D0000250D004280000051105     GGSL
TXBWIC21090-32247-51115-50000002D0000066D001600000151115     GGSL
TXBWIC21090-32247-52524-40000032D0000392D000050000385252430  GGSL
TXBWIC21090-32247-52784-20000408D0001295D008160001285278430  GGSL
TXBWIC21090-32247-53105-40000043D0000382D000200001053105     GGSL
TXBWIC21090-32247-55513-50000521D0003991D012650000075551300  GGSL
TXBWIC21090-32247-55523-40000335D0005176D014800003675552300  GGSL
TXBWIC21090-32247-55783-20000204D0000905D017280000075578300  GGSL
TXBWIC21090-32247-55863-10000005D0000038D006400000075586300  GGSL
TXBWIC21090-32247-56513-40007314D0042493D063290032175651300  GGSL
TXBWIC21090-32247-56523-30015363D0155681D051630080175652300  GGSL
TXBWIC21090-32247-56783-10000054D0021185D000050000075678309  GGSL
TXBWIC21090-32247-56788-60000990D0004210D054300002475678300  GGSL
TXBWIC21090-32247-56863-00000384D0002418D015720000875686300  GGSL
TXBWIC21090-32247-60594-60000810D0004736D007500000076059430  GGSL
TXBWIC21090-32247-71060-20000528D0006845D001950022271060     GGSL
TXBWIC21090-32247-71131-90000084D0001743D002550000071131     GGSL
TXBWIC21090-32247-74150-70000546D0002844D0070200714274150    GGSL
TXBWIC21090-32247-74250-40001146D0008026D0119300552274250    GGSL
TXBWIC21090-32247-74850-60000328D0005555D0032800228274850    GGSL
TXBWIC21090-32247-75902-10000037D0002540D000270000175902     GGSL
TXBWIC21090-32247-76121-50000129D0004102D001450000076121     GGSL
TXBWIC21090-32247-76232-80000051D0002864D000270001876232     GGSL
TXBWIC21090-32247-76565-70000003D0000141D000060000076565     GGSL
TXBWIC21090-32247-77160-30000474D0002093D0074200774277160    GGSL
TXBWIC21090-32247-77260-00000348D0002989D0155400372277260    GGSL
TXBWIC21090-32247-77960-90000180D0003368D0121600280277960    GGSL
TXBWIC21090-32247-95517-10000020D0000085D004320000079551750  GGSL
TXBWIC21090-32247-95597-30000096D0000411D000000000079559750  GGSL
TXBWIC21090-32247-99605-10000060D0001168D001110000099605     GGSL
TXBWIC21090-32903-00169-30000096D0000131D0012000024SLI06000E3GGSL
TXBWIC21090-32903-00309-30000132D0000321D0020400024SLI10000E3GGSL
TXBWIC21090-32903-00341-30000018D0000161D0004200018SLI24000E3GGSL
TXBWIC21090-32903-00359-80000072D0000125D0026400024SLI08000E3GGSL
TXBWIC21090-32903-12006-60000024D0000047D0031200096LIA06000E3GGSL
TXBWIC21090-32903-12008-00000072D0000216D0069600000LIA08000E3GGSL
TXBWIC21090-32903-12010-30000072D0000343D0042000000LIA10000E3GGSL
TXBWIC21090-32903-12012-70000096D0000712D0030000000LIA12000E3GGSL
TXBWIC21090-32903-12014-10000012D0000055D0018000036LIA14000E3GGSL
TXBWIC21090-32903-12017-20000012D0000171D0019200000LIA16000E3GGSL
TXBWIC21090-32903-12020-20000048D0000936D0007200000LIA20000E3GGSL
TXBWIC21090-32903-12024-00000006D0000154D0006600000LIA24000E3GGSL
TXBWIC21090-32903-12324-10000006D0000019D0000000000SVN24000E3GGSL
TXBWIC21090-32903-12718-80000024D0000264D0001200012GAB18000E3GGSL
TXBWIC21090-32903-12818-50000024D0000187D0001800000VNP18000E3GGSL
TXBWIC21090-32903-12824-60000024D0000203D0001200000VNP24000E3GGSL
TXBWIC21090-32903-50763-80000084D0000347D0008400048SLI12000E3GGSL
TXBWIC21090-32903-50802-40000084D0000372D0012600000SLI14000E3GGSL
TXBWIC21090-32903-71041-00000012D0000059D0000000000RZ.WC1G0E3GGSL
TXBWIC21090-32903-72886-60000012D0000059D0000000000RZ.WC1G0B9GGSL
TXBWIC21090-32903-75049-20000042D0000319D0008400006SLI20000E3GGSL
TXBWIC21090-32903-75080-50000072D0000354D0013200000SLI17000E3GGSL
TXBWIC21090-33524-43225-50000006D0000051D0023000000MP0020    GGSL
TXBWIC21090-33524-43240-80000247D0003086D0072500087MP0020    GGSL
TXBWIC21090-33607-00001-50000020D0000631D0005200012GBA-1     GGSL
TXBWIC21090-33745-97185-40000016D0000389D001440000097185     GGSL
TXBWIC21090-34411-74501-40000012D0000252D0004200000874501-100GGSL
TXBWIC21090-34613-00002-70000101D0000925D0130900001LH002     GGSL
TXBWIC21090-34613-00003-40000026D0000458D0149500012LH003     GGSL
TXBWIC21090-34613-00004-10000035D0000325D0129900000LH004     GGSL
TXBWIC21090-34613-00006-50000159D0001255D0031400000LH006     GGSL
TXBWIC21090-34613-00022-50000005D0000059D0000000000LH022     GGSL
TXBWIC21090-34613-00029-40000041D0000606D00000000008205      GGSL
TXBWIC21090-34613-00550-30000012D0000018D0000000000550BL     GGSL
TXBWIC21090-34613-00805-40000003D0000093D0002800042SS5       GGSL
TXBWIC21090-34613-01150-40000040D0000076D00000006801150PDQ   GGSL
TXBWIC21090-34613-01161-00000024D0000056D00000006001161PDQ   GGSL
TXBWIC21090-34613-01903-60000012D0000048D00000000121903      GGSL
TXBWIC21090-34613-04850-00000042C0000048C00000000123104BL    GGSL
TXBWIC21090-34613-05826-40000006D0000078D00012000005826      GGSL
TXBWIC21090-34613-06811-90000006D0000099D00006000006811      GGSL
TXBWIC21090-34613-07758-60000046C0000099C00024018607758BL    GGSL
TXBWIC21090-34613-07835-40000021C0000099C00006000002110BL    GGSL
TXBWIC21090-34613-09580-10000012D0000018D00000000129580BL    GGSL
TXBWIC21090-34613-71087-20000074C0000018C000600012671087BL   GGSL
TXBWIC21090-34613-96006-20000001D0000064D000000002996006     GGSL
TXBWIC21090-35307-00820-60000012D0000020D0015600180820       GGSL
TXBWIC21090-35307-00826-80000048D0000092D0009600180826       GGSL
TXBWIC21090-35307-00843-50000030C0000092C0001200000843       GGSL
TXBWIC21090-35307-00846-30000012D0000037D0000000048846       GGSL
TXBWIC21090-35307-00874-90000084D0000119D0015600048874       GGSL
TXBWIC21090-35307-01601-00000066D0000869D00150000241601      GGSL
TXBWIC21090-35307-01612-60000108D0000372D00456002281612      GGSL
TXBWIC21090-35307-01635-50000002D0000032D00040000001635      GGSL
TXBWIC21090-35307-01810-60000123D0000610D00173000801810      GGSL
TXBWIC21090-35307-01815-10000041D0000285D00109000361815      GGSL
TXBWIC21090-35307-01820-50000055D0000686D00047000001820      GGSL
TXBWIC21090-35307-01825-00000114D0000941D00530003001825      GGSL
TXBWIC21090-35307-01840-30000042D0000700D00060000001840      GGSL
TXBWIC21090-35355-00802-90000007D0000107D0001200011SS2       GGSL
TXBWIC21090-35355-00803-60000007D0000105D0001800015SS3       GGSL
TXBWIC21090-35355-00804-30000004D0000088D0003300021SS4       GGSL
TXBWIC21090-35355-00806-70000001D0000035D0000500031SS6       GGSL
TXBWIC21090-35355-00924-80000143D0002558D0026900006924       GGSL
TXBWIC21090-35355-01151-70000030D0000132D00000004001151PDQ   GGSL
TXBWIC21090-35355-01160-90000050D0000100D00090004401160      GGSL
TXBWIC21090-36348-00610-70000012D0000061D00348000000610      GGSL
TXBWIC21090-36348-00645-90000026D0000361D0009000000645       GGSL
TXBWIC21090-36348-00745-60000018D0000426D00048000020745      GGSL
TXBWIC21090-36348-01020-30000002D0000033D00014000001020      GGSL
TXBWIC21090-36348-01045-60000001D0000058D00008000001045      GGSL
TXBWIC21090-36348-01078-40000005D0000190D00040000041078      GGSL
TXBWIC21090-36348-01079-10000014D0000684D00088000161079      GGSL
TXBWIC21090-36348-01085-20000005D0000298D00002000021085      GGSL
TXBWIC21090-36434-00000-00000497C0003127D007920001810-12420  GGSL
TXBWIC21090-36434-10000-00000006D0000158D00000000001013620   GGSL
TXBWIC21090-36434-10012-20000060D0000841D000000003610-10012  GGSL
TXBWIC21090-36434-11000-80000165D0001766D010680003360-11000  GGSL
TXBWIC21090-36434-12340-40000006D0000014D00000000186012340   GGSL
TXBWIC21090-36434-12342-80000012D0000086D002320004660-12342  GGSL
TXBWIC21090-36434-12343-50000028D0000258D002940000360-12343  GGSL
TXBWIC21090-36434-12344-20000006D0000058D000420000660-12344  GGSL
TXBWIC21090-36434-12346-60000155D0000759D013690000660-12346  GGSL
TXBWIC21090-36434-12349-70000006D0000027D002260000060-12349  GGSL
TXBWIC21090-36434-12353-40000520D0004737D008440001260-12353  GGSL
TXBWIC21090-36434-12354-10000008D0000055D000070000310-12354  GGSL
TXBWIC21090-36434-12355-80000028D0000210D000050000110-12355  GGSL
TXBWIC21090-36434-12356-50000061D0000526D000080000110-12356  GGSL
TXBWIC21090-36434-12357-20000035D0000333D000170001410-12357  GGSL
TXBWIC21090-36434-12430-40000006D0000122D00000000006012430   GGSL
TXBWIC21090-36434-12440-30000006D0000067D00000000006012440   GGSL
TXBWIC21090-36434-12450-20000006D0000102D00000000006012450   GGSL
TXBWIC21090-36434-12700-60000024D0000162D000000004810-12700  GGSL
TXBWIC21090-36434-12710-50000012D0000075D000240001210-12710  GGSL
TXBWIC21090-36434-12720-40000048D0000293D003000000010-12720  GGSL
TXBWIC21090-36434-13600-50000048D0000845D000600046810-13600  GGSL
TXBWIC21090-36434-13610-20000012D0000178D000000058810-13610  GGSL
TXBWIC21090-36434-14800-80000120D0002010D002520004810-14800  GGSL
TXBWIC21090-36434-14860-20000144D0002018D002160001210-14860  GGSL
TXBWIC21090-36434-15050-90000060D0000983D002760000610-15050  GGSL
TXBWIC21090-36434-15080-30000006D0000135D000600000010-15080  GGSL
TXBWIC21090-36434-22318-00000141D0000662D008310000360-22318  GGSL
TXBWIC21090-36434-22626-60000039D0000496D004310000960-22626  GGSL
TXBWIC21090-36434-22731-70000048D0000489D003120000860-22731  GGSL
TXBWIC21090-36434-22732-40000063D0000841D006860000060-22732  GGSL
TXBWIC21090-36434-28010-70000192D0001572D004920033610-28010  GGSL
TXBWIC21090-36434-28020-60000144D0001226D001320003610-28020  GGSL
TXBWIC21090-36434-32700-00000196D0001568D033600000010-32700  GGSL
TXBWIC21090-36434-34500-10000095D0000920D004080009610-34500  GGSL
TXBWIC21090-36434-60123-00000006C0000920C000000000160123     GGSL
TXBWIC21090-36434-65095-50000018C0000920C000000000065095     GGSL
TXBWIC21090-36434-82342-70000069D0001013D001930001260-82342  GGSL
TXBWIC21090-36865-12250-20001920D0003921D020400018071140180  GGSL
TXBWIC21090-36865-14511-20000480D0000797D007800000071451180  GGSL
TXBWIC21090-36865-24511-90000180D0000565D028200000072451180  GGSL
TXBWIC21090-36865-65220-70004020D0010050D000000000088652205  GGSL
TXBWIC21090-36865-71751-70000300D0000540D000000000071751180  GGSL
TXBWIC21090-37320-89407- 0000024D0000198D00000000008940      GGSL
TXBWIC21090-37321-00022-80001386D0008072D0033500847022       GGSL
TXBWIC21090-37321-00023-50000036D0000585D0000000148023       GGSL
TXBWIC21090-37321-00024-20000246D0003062D0067200492024       GGSL
TXBWIC21090-37321-00025-90000012D0000087D0002400036025       GGSL
TXBWIC21090-37321-00050-10000024D0000022D0000000000050       GGSL
TXBWIC21090-37321-00065-50000024D0000116D0000000000065       GGSL
TXBWIC21090-37321-00066-20000036D0000400D0000000000066       GGSL
TXBWIC21090-37321-00068-60000171D0000816D0053700024068       GGSL
TXBWIC21090-37321-00069-30000254D0003113D0026700192069       GGSL
TXBWIC21090-37321-00070-90000126D0001743D0022500228070       GGSL
TXBWIC21090-37321-00102-70000024D0000288D0000000000102       GGSL
TXBWIC21090-37321-00105-80000108D0000286D0002400012105       GGSL
TXBWIC21090-37321-00106-50000312D0000872D0018000216106       GGSL
TXBWIC21090-37321-00107-20000168D0000450D0018000468107       GGSL
TXBWIC21090-37321-00108-90000456D0001276D0018000924108       GGSL
TXBWIC21090-37321-00110-20000144D0000446D0003200008110       GGSL
TXBWIC21090-37321-00112-60000032D0000100D0001600000112       GGSL
TXBWIC21090-37321-00114-00000040D0000133D0004000016114       GGSL
TXBWIC21090-37321-00116-40000024D0000074D0001600008116       GGSL
TXBWIC21090-37321-00120-10000024D0000124D0000000000120       GGSL
TXBWIC21090-37321-00121-80000016D0000177D0014400112121       GGSL
TXBWIC21090-37321-00123-20000075D0000289D0041700012123       GGSL
TXBWIC21090-37321-00127-00000096D0000760D0015300207127       GGSL
TXBWIC21090-37321-00141-60000048D0000205D0000000132141       GGSL
TXBWIC21090-37321-00148-50000036D0000350D0007200396148       GGSL
TXBWIC21090-37321-00150-80000342D0004914D0019201992150       GGSL
TXBWIC21090-37321-00166-90000051D0000269D0015300012166       GGSL
TXBWIC21090-37321-00197-30000024D0000132D0000000024197       GGSL
TXBWIC21090-37321-00202-40000072D0000739D0106800000202       GGSL
TXBWIC21090-37321-00203-10000027D0000377D0089100000203       GGSL
TXBWIC21090-37321-00210-90000108D0000677D0043800000210       GGSL
TXBWIC21090-37321-00211-60000111D0000798D0186600192211       GGSL
TXBWIC21090-37321-00213-00000180D0001849D0043800276213       GGSL
TXBWIC21090-37321-00214-70000129D0000685D0023400468214       GGSL
TXBWIC21090-37321-00225-30000024D0000134D0021600000225       GGSL
TXBWIC21090-37321-00238-30000030D0000234D0003000228238       GGSL
TXBWIC21090-37321-00250-50000282D0001370D0100800648250       GGSL
TXBWIC21090-37321-00252-90000117D0001360D0065900000252       GGSL
TXBWIC21090-37321-00253-60000096D0001759D0005700000253       GGSL
TXBWIC21090-37321-00255-00000336D0006343D0105900264255       GGSL
TXBWIC21090-37321-00257-40000048D0000182D0005400156257       GGSL
TXBWIC21090-37321-00272-70000024D0000088D0001200000272       GGSL
TXBWIC21090-37321-00274-10000444D0002237D0011400126274       GGSL
TXBWIC21090-37321-00299-40000024D0000209D0000000000299       GGSL
TXBWIC21090-37321-00307-60000099D0000390D0003300468307       GGSL
TXBWIC21090-37321-00309-00000042D0000695D0020700282309       GGSL
TXBWIC21090-37321-00310-50000343C0000695C0006000000310       GGSL
TXBWIC21090-37321-00311-30000012D0000342D0001200000311       GGSL
TXBWIC21090-37321-00312-00000024D0000440D0000000000312       GGSL
TXBWIC21090-37321-00330-40000048D0000452D0013800036330       GGSL
TXBWIC21090-37321-00331-10000021D0000294D0003900003331       GGSL
TXBWIC21090-37321-00404-20000012D0000090D0006000012404       GGSL
TXBWIC21090-37321-00412-70000012D0000064D0000000000412       GGSL
TXBWIC21090-37321-00420-20000002D0000118D0000100000420       GGSL
TXBWIC21090-37321-00426-40000135D0001219D0018300144426       GGSL
TXBWIC21090-37321-00428-80000462D0001727D0011400564428       GGSL
TXBWIC21090-37321-00429-50000018D0000294D0002700039429       GGSL
TXBWIC21090-37321-00442-40000060D0000369D0011100042442       GGSL
TXBWIC21090-37321-00443-10000063C0000369C0005800030443       GGSL
TXBWIC21090-37321-00506-30000042D0000167D0003600060506       GGSL
TXBWIC21090-37321-00527-80000024D0000101D0000000000527       GGSL
TXBWIC21090-37321-00543-80000027D0000089D0006600024543       GGSL
TXBWIC21090-37321-00549-00000060D0000480D0024000000549       GGSL
TXBWIC21090-37321-00552-00000048D0000721D0010200000552       GGSL
TXBWIC21090-37321-00553-70000054D0001534D0009600030553       GGSL
TXBWIC21090-37321-00560-50000072D0000310D0003600012560       GGSL
TXBWIC21090-37321-00568-10000036D0000815D0018000000568       GGSL
TXBWIC21090-37321-00571-10000039D0000329D0003000036571       GGSL
TXBWIC21090-37321-00573-50000096D0000426D0061500024573       GGSL
TXBWIC21090-37321-00577-30000024D0000250D0013600000574       GGSL
TXBWIC21090-37321-00578-00000004D0000045D0000000000578       GGSL
TXBWIC21090-37321-00603-90000004D0000046D0004800000603       GGSL
TXBWIC21090-37321-00609-10000018D0000196D0000300012609       GGSL
TXBWIC21090-37321-00611-40000040D0000966D0023200124611       GGSL
TXBWIC21090-37321-00622-00000024D0000081D0000000000622       GGSL
TXBWIC21090-37321-00629-90000108D0000348D0046800060629       GGSL
TXBWIC21090-37321-00631-20004091D0015021D1321700588631       GGSL
TXBWIC21090-37321-00651-00000004D0000048D00000000000651      GGSL
TXBWIC21090-37321-00652-70000048D0000244D0016800000652       GGSL
TXBWIC21090-37321-00655-80000204D0001183D00210002586556      GGSL
TXBWIC21090-37321-00680-00000012D0000118D0007200000680       GGSL
TXBWIC21090-37321-00685-50000236D0002735D0021600102685       GGSL
TXBWIC21090-37321-00688-60000036D0000223D0007200000688       GGSL
TXBWIC21090-37321-00690-90000093D0001006D0010500024690       GGSL
TXBWIC21090-37321-00692-30000478D0005356D0084600234692150    GGSL
TXBWIC21090-37321-00698-50000012D0000077D0002400036698       GGSL
TXBWIC21090-37321-00752-40000006D0000050D0013800000752       GGSL
TXBWIC21090-37321-00771-50000054D0000282D0015000051771       GGSL
TXBWIC21090-37321-00772-20000024D0000203D0000000012772       GGSL
TXBWIC21090-37321-00775-30000465D0002565D0052500132775       GGSL
TXBWIC21090-37321-00777-70000036D0000347D0013300036777       GGSL
TXBWIC21090-37321-00779-10000075D0000632D0036300183779       GGSL
TXBWIC21090-37321-00784-50000054D0000173D0018600000784       GGSL
TXBWIC21090-37321-00786-90000168D0000712D0043700036786       GGSL
TXBWIC21090-37321-00789-00000097D0000786D0169800559791       GGSL
TXBWIC21090-37321-00802-60000120D0000677D0000000000802       GGSL
TXBWIC21090-37321-00803-30000084D0000766D0001200000803       GGSL
TXBWIC21090-37321-00806-40000072D0000563D0002400012806       GGSL
TXBWIC21090-37321-00807-10000004D0000095D0000000000807       GGSL
TXBWIC21090-37321-00811-80000224D0002395D0020100012811       GGSL
TXBWIC21090-37321-00813-20000183D0002431D0018900030813       GGSL
TXBWIC21090-37321-00814-90000018D0000438D0001200006814       GGSL
TXBWIC21090-37321-00857-60000132D0001175D0061200012857       GGSL
TXBWIC21090-37321-00858-30000024D0000354D0000000000858       GGSL
TXBWIC21090-37321-00862-00000213D0002637D0036000000862       GGSL
TXBWIC21090-37321-00870-50000096D0000707D0024000000870       GGSL
TXBWIC21090-37321-00875-00000385D0004392D0061200080875       GGSL
TXBWIC21090-37321-00880-40000078D0000880D0038100072880       GGSL
TXBWIC21090-37321-00883-50000165D0000769D0065700288883       GGSL
TXBWIC21090-37321-00892-70000132D0001229D0000000396892       GGSL
TXBWIC21090-37321-00903-00000024D0000151D0021600000903       GGSL
TXBWIC21090-37321-00904-70000012D0000101D0000000000904       GGSL
TXBWIC21090-37321-00925-20000735D0002291D0072000216925       GGSL
TXBWIC21090-37321-00939-90000252D0002754D0019200864939       GGSL
TXBWIC21090-37321-00941-20000546D0005671D0032100324941       GGSL
TXBWIC21090-37321-00945-00000009D0000091D0001800000945       GGSL
TXBWIC21090-37321-00947-40000012D0000106D0008400000947       GGSL
TXBWIC21090-37321-00951-10000387D0001634D0017100351951       GGSL
TXBWIC21090-37321-00952-80000048D0000237D0000000012952       GGSL
TXBWIC21090-37321-00982-50000096D0000439D0014400012982       GGSL
TXBWIC21090-37321-00987-00000048D0000448D0007000000987       GGSL
TXBWIC21090-37321-02031-80000012D0000340D00000000002031      GGSL
TXBWIC21090-37321-02360-90000012D0000085D00018000002360      GGSL
TXBWIC21090-37321-02361-60000012D0000127D00318003182361      GGSL
TXBWIC21090-37321-03082-90000006D0000107D00000000003082      GGSL
TXBWIC21090-37321-05612-60000099D0000961D00165000245612      GGSL
TXBWIC21090-37321-05710-90000132D0000772D00141000005710      GGSL
TXBWIC21090-37321-05714-70000004D0000124D00020000045714      GGSL
TXBWIC21090-37321-07458-80000036D0000610D00120000007458      GGSL
TXBWIC21090-37321-07460-10000012D0000080D00000000007460      GGSL
TXBWIC21090-37321-07465-60000004D0000135D00016000007465      GGSL
TXBWIC21090-37321-07490-80000024D0000130D00000001387490      GGSL
TXBWIC21090-37321-07492-20000036D0000594D00000000127492      GGSL
TXBWIC21090-37321-07497-70000012D0000050D00000000007497      GGSL
TXBWIC21090-37321-08636-90000012D0000137D00030000008636      GGSL
TXBWIC21090-37321-08751-90000003D0000187D00000000008751      GGSL
TXBWIC21090-37321-08752-60000003D0000037D00213000008752      GGSL
TXBWIC21090-37321-09534-70000219D0002272D00090000549534      GGSL
TXBWIC21090-37321-45502-80000012D0000063D000000000045502     GGSL
TXBWIC21090-37321-46126-50000800D0000135D064000000046126     GGSL
TXBWIC21090-37321-46172-20000012D0000058D000000000046172     GGSL
TXBWIC21090-37321-46183-80000030D0000236D0014400000691       GGSL
TXBWIC21090-37321-46190-60000024D0000085D000000000046190     GGSL
TXBWIC21090-37321-46191-30000024D0000102D000000000046191     GGSL
TXBWIC21090-37321-46406-80000008D0000063D006720000046406     GGSL
TXBWIC21090-37321-46540-90000016D0000155D000520000046540     GGSL
TXBWIC21090-37321-46640-60000012D0000068D000120000046640     GGSL
TXBWIC21090-37321-60400-60000590D0007579D004900084060402     GGSL
TXBWIC21090-37321-60440-20000003D0000039D000050000560442     GGSL
TXBWIC21090-37321-60476-10000803D0009074D026420145060478     GGSL
TXBWIC21090-37321-60514-00000480D0005205D040500108260516     GGSL
TXBWIC21090-37321-60613-00000004D0000037D000000000060613     GGSL
TXBWIC21090-38313-00005-90000002D0000043D0003300018GS 6750D  GGSL
TXBWIC21090-38313-00008-00000064D0001199D0020700012BP 3130   GGSL
TXBWIC21090-38313-00060-80000236D0003915D0038500475BP 3160   GGSL
TXBWIC21090-38313-00080-60000152D0003003D0033900307BP 3180D  GGSL
TXBWIC21090-38313-00217-60000006D0000105D0004700001FS 4350   GGSL
TXBWIC21090-38313-00830-70000009D0000308D0007300024BP 6250   GGSL
TXBWIC21090-38313-01010-20000300D0001576D0042000108CT 3010I  GGSL
TXBWIC21090-38313-01020-10000048D0000259D0028200018CT 3020I  GGSL
TXBWIC21090-38313-01030-00000060D0000327D0018600012CT 3030I  GGSL
TXBWIC21090-38313-02706-30000022D0002315D0000000000WB 2706   GGSL
TXBWIC21090-38313-03050-60000012D0000100D0009600090GT 3050   GGSL
TXBWIC21090-38313-03060-50000030D0000190D0006000066GT 3060   GGSL
TXBWIC21090-38313-03080-30000030D0000200D0017400060GT 3080   GGSL
TXBWIC21090-38313-03244-90000030D0000515D0000000084HS 3244   GGSL
TXBWIC21090-38313-03334-70000012D0000146D0004200000AP 3334   GGSL
TXBWIC21090-38313-03470-20000019D0000603D0001800016FL 3470   GGSL
TXBWIC21090-38313-03634-80000003D0000090D0000000001LG 3634   GGSL
TXBWIC21090-38313-03710-90000288D0001398D0020401206CT 3710   GGSL
TXBWIC21090-38313-03720-80000006D0000041D0044400072CT 3720   GGSL
TXBWIC21090-38313-03730-70000138D0000690D0007800048CT 3730   GGSL
TXBWIC21090-38313-03750-50000114D0000573D0000000114CT 3750   GGSL
TXBWIC21090-38313-04110-60000036D0000552D0000000168AL 4110   GGSL
TXBWIC21090-38313-04930-00001341D0007978D0180500060AG 4930   GGSL
TXBWIC21090-38313-04930-70000688D0004438D0117900072AG 4930SS GGSL
TXBWIC21090-38313-06970-40000008D0000384D0018800014AH 6970   GGSL
TXBWIC21090-38313-07001-00000001D0000044D0002400001FK 70010  GGSL
TXBWIC21090-38313-07545-20000040D0000716D0006500000RS 7245   GGSL
TXBWIC21090-38313-10000-10000099D0000960D0011200010SS 10000  GGSL
TXBWIC21090-38313-10227-20000011D0000792D0007600001AL 6512   GGSL
TXBWIC21090-38313-11000-00000032D0000323D0003800002SS 11000  GGSL
TXBWIC21090-38313-12400-70000177D0002267D0029100037RK 24003  GGSL
TXBWIC21090-38313-13214-90000024D0000184D0000000288FS 3214D  GGSL
TXBWIC21090-38313-20001-50000009D0000212D0002300000PD 20000  GGSL
TXBWIC21090-38313-20002-20000012D0000184D0000300072RK 20002  GGSL
TXBWIC21090-38313-20004-60000041D0000530D0016600016CV 20004  GGSL
TXBWIC21090-38313-20022-00000064D0001192D0014200000RK 20022  GGSL
TXBWIC21090-38313-21000-70000027D0000405D0009000047SH 20000  GGSL
TXBWIC21090-38313-24000-40000027D0000226D0009400012FS 4000   GGSL
TXBWIC21090-38313-25008-90000048D0000208D0000000240RK 25008  GGSL
TXBWIC21090-38313-26001-90000024D0000284D0000000030SS 26010  GGSL
TXBWIC21090-38313-26020-00000046D0000689D0007600013SS 26020  GGSL
TXBWIC21090-38313-27020-90000020D0000301D0006100001SS 27020  GGSL
TXBWIC21090-38313-28000-00000004D0000073D0001100002SS 28000  GGSL
TXBWIC21090-38313-28010-90000017D0000370D0006900009SS 28010  GGSL
TXBWIC21090-38313-32341-70000002D0000023D0000000000GT 3234   GGSL
TXBWIC21090-38313-32441-40000001D0000012D0000300000GT 3244   GGSL
TXBWIC21090-38313-33440-60000016D0000133D0005600056CT 3344   GGSL
TXBWIC21090-38313-33540-30000016D0000144D0001600048CT 3354   GGSL
TXBWIC21090-38313-33640-00000096D0000840D0009600200CT 3364   GGSL
TXBWIC21090-38313-36241-60000004D0000126D0000000000LG 3624   GGSL
TXBWIC21090-38313-36541-70000006D0000146D0000200000LG 3654   GGSL
TXBWIC21090-38313-37201-90000004D0000066D0002900023LG 3720   GGSL
TXBWIC21090-38313-53841-50000001D0000051D0000000000TP 3841   GGSL
TXBWIC21090-38313-56200-70000027D0000239D0002400001RK 62000  GGSL
TXBWIC21090-38313-61062-30000002D0000111D0000800005RK 61062  GGSL
TXBWIC21090-38313-62062-20000006D0000289D0001400000BM 62060  GGSL
TXBWIC21090-38313-64144-30000002D0000036D0000000002SS 64104  GGSL
TXBWIC21090-38313-65000-10000001D0000032D0000300004SS 65000  GGSL
TXBWIC21090-38313-66000-00000002D0000047D0000000000SS 66000  GGSL
TXBWIC21090-38313-80000-00000008D0000657D0002200006SF 80000  GGSL
TXBWIC21090-38313-81000-90000084D0000881D0014300011RK 10000  GGSL
TXBWIC21090-38313-90000-70000010D0000094D0002000004SH 10000  GGSL
TXBWIC21090-39044-15544-50000004D0000021D000800000015544     GGSL
TXBWIC21090-39645-11752-10000093D0000458D000000006340200010  GGSL
TXBWIC21090-40025-54033-40000026D0001129D0005000004RWS-54033 GGSL
TXBWIC21090-40235-75256-50000002D0000037D00046000022.5G30S   GGSL
TXBWIC21090-40279-03300-20000420D0000802D01104003003300      GGSL
TXBWIC21090-40279-03302-60000372D0000779D0076800096          GGSL
TXBWIC21090-41535-24550-40000126D0005710D007270009924550     GGSL
TXBWIC21090-41535-24560-30000384D0070958D016070006124560     GGSL
TXBWIC21090-41535-24571-90000586D0010523D0299700097100518540 GGSL
TXBWIC21090-42204-14504-80000002D0000002D00007000002MMC      GGSL
TXBWIC21090-42206-00202-00000060D0000085D0028000010202S      GGSL
TXBWIC21090-42206-00202-10000003D0000003D0001200000202S      GGSL
TXBWIC21090-42206-00269-30000016D0000087D0006000156269       GGSL
TXBWIC21090-42206-00395-90000020D0000048D0077000050395S      GGSL
TXBWIC21090-42206-00525-00000058D0000171D0015400100525C      GGSL
TXBWIC21090-42206-00702-50000030D0000177D0000000000702-6     GGSL
TXBWIC21090-42206-00872-50000054D0000138D0031800000872-6     GGSL
TXBWIC21090-42206-03010-80000009D0000097D00135000003010-4    GGSL
TXBWIC21090-42206-07800-10000012D0000062D00066000787800      GGSL
TXBWIC21090-42206-09000-30000112D0000807D00280000129000      GGSL
TXBWIC21090-42206-09520-60000006D0000100D00000000249520      GGSL
TXBWIC21090-42206-09620-30000029D0001259D00107000029620-8    GGSL
TXBWIC21090-42206-14058-60000276D0001887D00264001329570      GGSL
TXBWIC21090-42206-14066-10000024D0000102D00060000009560C     GGSL
TXBWIC21090-42206-14220-70000026D0000138D0036600130312S      GGSL
TXBWIC21090-42206-14221-40000024D0000054D0005900002313S      GGSL
TXBWIC21090-42206-14235-10000120D0000156D0022700010390S      GGSL
TXBWIC21090-42206-14456-00000100D0000211D0012600020420C      GGSL
TXBWIC21090-42206-14501-70000064D0000065D00289000001FMC      GGSL
TXBWIC21090-42206-14502-40000042D0000038D00247000001MMC      GGSL
TXBWIC21090-42206-14503-10000208D0000230D01091001162FMC      GGSL
TXBWIC21090-42206-14504-80000196D0000185D00973001002MMC      GGSL
TXBWIC21090-42206-14505-50000016D0000018D001460010001MC      GGSL
TXBWIC21090-42206-14506-20000100D0000108D004460009002MC      GGSL
TXBWIC21090-42206-14570-30000040D0000264D0021800000ZBR3/4    GGSL
TXBWIC21090-42206-14571-00000058D0000251D0006000020ZBM3/4    GGSL
TXBWIC21090-42206-14572-70000046D0000209D0006600010ZBF3/4    GGSL
TXBWIC21090-42206-14599-40000018D0000269D00036000009536CH    GGSL
TXBWIC21090-42206-15111-70000008D0000059D000520000615111     GGSL
TXBWIC21090-42206-15549-80000006D0000103D000030000015549     GGSL
TXBWIC21090-42206-15565-80000012D0000110D0015600300R551      GGSL
TXBWIC21090-42206-20491-20000054D0000314D001630000020491-10  GGSL
TXBWIC21090-42206-22261-90000018D0000199D002580000022261     GGSL
TXBWIC21090-42206-22300-50000230C0000199C000780000022300     GGSL
TXBWIC21090-42206-22701-00000010D0000041D002420000022701C    GGSL
TXBWIC21090-42206-23701-90000018D0000071D001180000023701S    GGSL
TXBWIC21090-42206-38636-60000018D0000144D0000000060R8636     GGSL
TXBWIC21090-42206-40300-10000010D0000093D0002200000XT300     GGSL
TXBWIC21090-42206-40301-80000050D0000295D0015400050XT301     GGSL
TXBWIC21090-42206-44100-30000012D0000205D0001200048XT4100    GGSL
TXBWIC21090-42206-48635-60000060D0000315D0000000072R8635     GGSL
TXBWIC21090-42206-63100-80000001D0000040D000030000063100     GGSL
TXBWIC21090-42579-00052-40000005D0000214D0001700000ST47812   GGSL
TXBWIC21090-42579-11250-00000016D0007934D0019600000P12       GGSL
TXBWIC21090-42579-11500-60000070D0002991D0017400005APB5      GGSL
TXBWIC21090-42579-12346-90000002C0002991C0000000000TW3W      GGSL
TXBWIC21090-42579-13250-80000300D0013039D0168000154P3        GGSL
TXBWIC21090-42579-14250-70000155D0020537D0087900051P4        GGSL
TXBWIC21090-42579-15250-60000038D0004347D0027300000P5        GGSL
TXBWIC21090-42579-16250-50000084D0015826D0054900003P6        GGSL
TXBWIC21090-42579-18250-30000023D0007232D0016400007P8        GGSL
TXBWIC21090-42579-19342-40000096D0001192D006720000020 YR-324 GGSL
TXBWIC21090-42579-22341-10001280D0010522D03744007366 YR-350  GGSL
TXBWIC21090-42579-22342-80000468D0004875D0122401398NS12      GGSL
TXBWIC21090-42579-22345-90000948D0001423D0241703504APRC      GGSL
TXBWIC21090-42579-23100-30000032D0000224D00000002886 YR-3100 GGSL
TXBWIC21090-42579-32355-50000294D0001869D0046200014RS15      GGSL
TXBWIC21090-42579-43004-80000014D0001377D0005500000NB4       GGSL
TXBWIC21090-42579-43006-20000031D0004191D0005500000NB6       GGSL
TXBWIC21090-42579-50154-00000072D0001984D0016800000PRO BLK-31GGSL
TXBWIC21090-42579-50169-40000036D0000716D0034200000PRO BLK-45GGSL
TXBWIC21090-42579-63041-70000006D0000770D0000700005KG6       GGSL
TXBWIC21090-42579-63105-60000016D0000985D0004600001350ROLL   GGSL
TXBWIC21090-42579-63306-70000252D0001489D04320000363 YR-350  GGSL
TXBWIC21090-42579-63376-00000064D0008748D000000000012 YR-6300GGSL
TXBWIC21090-42579-81360-50000080D0012229D0018800176NS12250   GGSL
TXBWIC21090-42579-81391-90000004D0000988D0000000002WGC12     GGSL
TXBWIC21090-42579-81428-20000277D0000539D0102900096BURLAP BAGGGSL
TXBWIC21090-42579-81566-10000053D0008752D0056300004SBLT10300 GGSL
TXBWIC21090-42579-81568-50000192D0034373D0083500026SBLT12300 GGSL
TXBWIC21090-42579-81569-20000432D0092191D0091700095SBLT15.530GGSL
TXBWIC21090-42579-81571-50000246D0011690D0080500018SBLT3300  GGSL
TXBWIC21090-42579-81572-20000046D0003048D0011800008SBLT4300  GGSL
TXBWIC21090-42579-81573-90000242D0022861D0132200120SBLT6300  GGSL
TXBWIC21090-42579-81605-70000004D0000331D0003200001PRO BLK-33GGSL
TXBWIC21090-42579-81606-40000030D0003419D0008200003PRO BLK-43GGSL
TXBWIC21090-42579-81607-10000036D0005847D0008700004PRO BLK-63GGSL
TXBWIC21090-42579-81608-80000002D0000482D0000700001PRO BLK-83GGSL
TXBWIC21090-42579-81733-70000025D0001521D0007700008CS-3300BLKGGSL
TXBWIC21090-42579-81734-40000024D0001843D0003400003CS-4300BLKGGSL
TXBWIC21090-42579-81735-10000019D0002236D0006300000CS-6300BLKGGSL
TXBWIC21090-42579-81739-90000002D0000438D0001900000CS-3100BLKGGSL
TXBWIC21090-42579-82225-60000032D0000510D0000000000SUPREME650GGSL
TXBWIC21090-42579-82283-60000080D0000983D0000000000STRTS-28  GGSL
TXBWIC21090-42853-00000-00000094D0003615D0037100002BFTD-DB12 GGSL
TXBWIC21090-42853-10000-10000008D0000033D0005200004ST3-BB4   GGSL
TXBWIC21090-42853-12000-90000060D0000176D0011600000MGC-DB12  GGSL
TXBWIC21090-42853-42000-00000042D0000275D0021000000TSBF-BB6  GGSL
TXBWIC21090-42853-50000-90003438C0000275C0050400138TSW-BB6   GGSL
TXBWIC21090-42853-52000-40000006D0000039D0000000006CBTS-BB6  GGSL
TXBWIC21090-42853-61000-50000056D0000246D0002400000FFTR2-BB4 GGSL
TXBWIC21090-42853-62000-40000028D0000042D0164700000FFTA-DB12 GGSL
TXBWIC21090-42853-65000-10000008D0000030D0000000092AB6-BB4   GGSL
TXBWIC21090-42853-77305-40000096D0004066D0021900052FTD-DB12  GGSL
TXBWIC21090-42853-81100-60000001D0000050D0003400050WHYTA-DB16GGSL
TXBWIC21090-42854-03298-10000216D0000465D0019200036FG32ORB112GGSL
TXBWIC21090-42854-63278-50000228D0000433D0025200000FG32PC1-12GGSL
TXBWIC21090-42854-64870-00000042D0000296D0006000000FG48PC1-6 GGSL
TXBWIC21090-43312-10003-70000462D0001447D0114300000103-0-009 GGSL
TXBWIC21090-43312-10027-30000288D0002609D0073200000104-0-003 GGSL
TXBWIC21090-43312-10031-00000021D0000574D0003800000107-0-002 GGSL
TXBWIC21090-43326-17745-20000008D0000116D0000000000BRB12X16-PGGSL
TXBWIC21090-43792-50001-30000172D0006948D0002200035Y32       GGSL
TXBWIC21090-43792-60002-70000153D0006240D0004000046W32       GGSL
TXBWIC21090-43792-70002-40000103D0004197D0003500023R32       GGSL
TXBWIC21090-43792-80001-40000213D0007807D0003500028SW10      GGSL
TXBWIC21090-43792-90003-50000104D0005531D0002300037GA10      GGSL
TXBWIC21090-43792-90004-20000021D0002352D0000600018GA30      GGSL
TXBWIC21090-44882-30501-30000025D0000244D0007000065FXG5825   GGSL
TXBWIC21090-44882-30502-00000010D0000162D0014000155FXG5850   GGSL
TXBWIC21090-44882-30504-40000015D0000466D0012900045FXG5875   GGSL
TXBWIC21090-44882-30506-80000009D0000288D0005100072FXG58100  GGSL
TXBWIC21090-46539-62045-60001154D0016707D0422700061          GGSL
TXBWIC21090-46539-64032-40002241D0017329D0000000874          GGSL
TXBWIC21090-46753-01032-30000030D0000121D00124000004675301032GGSL
TXBWIC21090-46753-01128-30000088D0000782D00108000084675301128GGSL
TXBWIC21090-46753-01500-70000005D0000256D00004000014675302500GGSL
TXBWIC21090-46753-02032-20000024D0000109D00115000004675302032GGSL
TXBWIC21090-46753-02128-20000068D0000756D00095000044675302128GGSL
TXBWIC21090-46753-03128-10000016D0000218D00076000004675303128GGSL
TXBWIC21090-46753-04032-00000174D0001515D00192000124675304032GGSL
TXBWIC21090-46753-04033-70000090D0000777D00678000722004675304GGSL
TXBWIC21090-46753-04128-00000224D0003140D00452000644675304128GGSL
TXBWIC21090-46753-04500-40000003D0000190D00011000034675304500GGSL
TXBWIC21090-46753-05032-90000138D0001191D00690000904675305032GGSL
TXBWIC21090-46753-05128-90000092D0001254D00216000324675305128GGSL
TXBWIC21090-46753-07032-70000012D0000064D00096000004675307032GGSL
TXBWIC21090-46753-07128-70000004D0000053D00000000004675307128GGSL
TXBWIC21090-46753-08016-60000012D0000104D000000000080160     GGSL
TXBWIC21090-46753-08032-60000339D0005378D00831002404675308032GGSL
TXBWIC21090-46753-11004-70000010D0000074D0000000000          GGSL
TXBWIC21090-46753-14032-70000040D0000171D00475000004675314032GGSL
TXBWIC21090-46753-14128-70000124D0001004D00170000004675314128GGSL
TXBWIC21090-46753-14550-60000002D0000599D000000000014550     GGSL
TXBWIC21090-46753-15040-10000001D0000033D000000000050401     GGSL
TXBWIC21090-46753-17005-80000042D0000175D00112000004675317005GGSL
TXBWIC21090-46753-17040-90001119D0015364D01286001004675317040GGSL
TXBWIC21090-46753-17201-40000002D0000760D000000000072014     GGSL
TXBWIC21090-46753-19128-20000008D0000112D0000000000          GGSL
TXBWIC21090-46753-19500-60000001D0000061D0000000000195006    GGSL
TXBWIC21090-46753-19550-10000001D0000583D000000000195501     GGSL
TXBWIC21090-46753-21032-70000088D0000438D007400004810327     GGSL
TXBWIC21090-46753-21128-70000104D0001345D002000008812287     GGSL
TXBWIC21090-46753-22550-50000001D0000590D000000000125505     GGSL
TXBWIC21090-46878-26380-20000006D0000066D000540000026380     GGSL
TXBWIC21090-46878-26381-90000003D0000033D000360000026381     GGSL
TXBWIC21090-46878-26382-60000018D0000198D000210000026382     GGSL
TXBWIC21090-46878-27389-40000009D0000156D000180000027389     GGSL
TXBWIC21090-46878-27436-50000009D0000156D000210000027436     GGSL
TXBWIC21090-46878-27560-70000006D0000104D000240000027560     GGSL
TXBWIC21090-47985-10023-30000133D0001085D0012000000YCBSM3CF-PGGSL
TXBWIC21090-47985-10033-20000002D0000016D0000000000YCBSI3CF-PGGSL
TXBWIC21090-48307-70003-20000023D0000198D0007200003ST3       GGSL
TXBWIC21090-48307-70004-90000014D0000141D0034800008ST4-WS    GGSL
TXBWIC21090-48307-70005-60000039D0000616D0010700006ST5       GGSL
TXBWIC21090-48307-70006-30000002D0000034D0000900002ST6       GGSL
TXBWIC21090-50197-00104-50000600D0002706D0209600018HT4       GGSL
TXBWIC21090-50197-00108-30000060D0000418D0016800000HT8       GGSL
TXBWIC21090-50197-00118-20000383D0004543D0119000030HT18      GGSL
TXBWIC21090-50197-00136-60000111D0002367D0014600008HT36      GGSL
TXBWIC21090-50197-00150-20000151D0003893D0006500013HT50      GGSL
TXBWIC21090-50197-00204-20000546D0002637D0279500744PT4       GGSL
TXBWIC21090-50197-00208-00000084D0000591D0005400006PT8       GGSL
TXBWIC21090-50197-00218-90000157D0001928D0021800005PT18      GGSL
TXBWIC21090-50197-00236-30000045D0000949D0024900134PT36      GGSL
TXBWIC21090-50197-00250-90000041D0001130D0013500011PT50      GGSL
TXBWIC21090-50197-00304-90000408D0001897D0181100204GT4       GGSL
TXBWIC21090-50197-00318-60000077D0001025D0040300021GT18      GGSL
TXBWIC21090-50197-00336-00000038D0000832D0009300006GT36      GGSL
TXBWIC21090-50197-00404-60000331D0001529D0097400240RT4       GGSL
TXBWIC21090-50197-00408-40000018D0000134D0022800000RT8       GGSL
TXBWIC21090-50197-00418-30000107D0001390D0018500011RT18      GGSL
TXBWIC21090-50197-00604-00000336D0001516D0061100384BT4       GGSL
TXBWIC21090-50197-00618-70000006D0000075D0000000000BT18      GGSL
TXBWIC21090-50197-00704-70000108D0000492D0072800000TR4       GGSL
TXBWIC21090-50197-00718-40000048D0000612D0015800020TR18      GGSL
TXBWIC21090-50197-00904-10000264D0001243D0218801080TO4       GGSL
TXBWIC21090-50197-00908-60000006D0000038D0018600000TO8       GGSL
TXBWIC21090-50197-00918-80000023D0000324D0015100003TO18      GGSL
TXBWIC21090-50197-01004-70000060D0000276D0002400660BM04      GGSL
TXBWIC21090-50197-01228-70000029D0000526D0006400008RP28      GGSL
TXBWIC21090-50197-01303-10000060D0000359D0016801032DB03      GGSL
TXBWIC21090-50197-01317-80000022D0000700D0005400000DB17      GGSL
TXBWIC21090-50197-01803-60000048D0000176D0018000000GM3       GGSL
TXBWIC21090-50197-01825-80000176D0001778D0033500009GM25      GGSL
TXBWIC21090-50197-02006-00000054D0000110D0052500078GL6       GGSL
TXBWIC21090-50197-02206-40000102D0000485D0039900090GG6       GGSL
TXBWIC21090-50197-02805-90000012D0000080D0000000018GF101010/6GGSL
TXBWIC21090-50197-02904-90000270D0001259D0085800228FT4       GGSL
TXBWIC21090-50197-02918-60000194D0002457D0019600002FT18      GGSL
TXBWIC21090-50197-03804-10001200D0006242D0116000216BTSP4     GGSL
TXBWIC21090-50197-03818-80000002D0000043D0003400021BTSP18    GGSL
TXBWIC21090-50197-03825-60000219D0005875D0052200029BTSP25    GGSL
TXBWIC21090-50197-03904-80000246D0001152D0068500144PM4       GGSL
TXBWIC21090-50197-03920-80000116D0001568D0006700007PM20      GGSL
TXBWIC21090-50197-05004-30000486D0002333D0211400336CT4       GGSL
TXBWIC21090-50197-05018-00000096D0001283D0038900000CT18      GGSL
TXBWIC21090-50197-05320-40000144D0002440D0019800021ELF20     GGSL
TXBWIC21090-50197-05405-80000024D0000114D0028900048IT5       GGSL
TXBWIC21090-50197-05628-10000013D0000336D0006300020EOLF28    GGSL
TXBWIC21090-50197-06504-70000090D0000403D0132300084AT4       GGSL
TXBWIC21090-50197-06508-50000006D0000045D0008400000AT8       GGSL
TXBWIC21090-50197-06518-40000001D0000015D0003100000AT18      GGSL
TXBWIC21090-50197-06604-40000060D0000276D0063000048BR4       GGSL
TXBWIC21090-50197-30708-60000060D0000248D0000000018VIPF8     GGSL
TXBWIC21090-50197-31308-70000006D0000025D0001800000TOPF8     GGSL
TXBWIC21090-50197-51324-10000012D0000067D0003000240EONM24    GGSL
TXBWIC21090-50197-70101-30000546D0003266D0028700000ap1       GGSL
TXBWIC21090-50197-70102-00000844D0007787D0028200000ap2       GGSL
TXBWIC21090-50197-70304-80000144D0000442D0084800084ca4       GGSL
TXBWIC21090-50197-70308-60000024D0000107D0004800000ca8       GGSL
TXBWIC21090-50197-71304-70000120D0000856D0063600000EC4       GGSL
TXBWIC21090-50197-71501-00000085D0000580D0046200029lsc1      GGSL
TXBWIC21090-50197-71601-70000130D0000666D0021400000dcm1      GGSL
TXBWIC21090-50197-71804-20000012D0000096D0000000000BO4       GGSL
TXBWIC21090-50197-71904-90000360D0002308D0009600540HC4       GGSL
TXBWIC21090-50197-80117-10000194D0001965D0040800120SC17      GGSL
TXBWIC21090-50349-01069-70000180D0000626D00040000001069-012  GGSL
TXBWIC21090-50699-00000-00000007D0000066D0000300000303460    GGSL
TXBWIC21090-50699-00014-00000012D0000051D0001200000300014    GGSL
TXBWIC21090-50699-00128-10000035D0000957D0006900004300128    GGSL
TXBWIC21090-50699-00212-00000036D0000352D0023400012300212    GGSL
TXBWIC21090-51497-15464-60000005D0000668D000050000015464     GGSL
TXBWIC21090-52427-00551-90000003D0000058D00000000004500102   GGSL
TXBWIC21090-52427-01038-40000003D0000054D0000000000105462    GGSL
TXBWIC21090-52427-01049-00000002D0000082D0000000000105634    GGSL
TXBWIC21090-52427-60035-60000001D0000147D00000000006035240   GGSL
TXBWIC21090-52732-00000-00000018D0000750D00000000152030.0    GGSL
TXBWIC21090-52732-10012-10000003D0000399D000970000210001     GGSL
TXBWIC21090-52732-10225-50000003D0000100D000070000060009.0   GGSL
TXBWIC21090-52732-20505-50000005D0000538D00062000002050SU    GGSL
TXBWIC21090-52732-20509-30000007D0001120D00062000002050P     GGSL
TXBWIC21090-52732-20519-20000002D0000306D00021000002050TP    GGSL
TXBWIC21090-52732-21700-30000002D0000557D00000000012170      GGSL
TXBWIC21090-52732-27500-30000440D0019882D00218000512750      GGSL
TXBWIC21090-52732-31000-10000012D0001464D00000000003100.0    GGSL
TXBWIC21090-52732-34000-80000001D0000020D00008000003400.0    GGSL
TXBWIC21090-52732-65000-80000002D0000241D00022000006500.0    GGSL
TXBWIC21090-53291-11002-60000216D0002545D0003600024820-1002  GGSL
TXBWIC21090-53291-19881-90000002D0000024D0001200000820-1002  GGSL
TXBWIC21090-53291-30000-00000001D0000313D0000400000820-1024  GGSL
TXBWIC21090-53291-40091-20000001D0000101D0000000000840-0091  GGSL
TXBWIC21090-53291-50052-00000004D0000119D0000000000850-0052  GGSL
TXBWIC21090-56554-10598-20000006D0000173D0000000000AOS16000P5GGSL
TXBWIC21090-56554-92129-20000012D0000045D0000000000CNA10000A4GGSL
TXBWIC21090-66498-01115-70000113D0002485D004130001001115.0   GGSL
TXBWIC21090-66498-02115-60004276D0070566D023680061302775.0   GGSL
TXBWIC21090-66498-02185-90000626D0007744D000880000002185     GGSL
TXBWIC21090-66498-03175-90000700D0007343D000000000003175     GGSL
TXBWIC21090-66498-04175-80000480D0005749D003800058304175.0   GGSL
TXBWIC21090-66498-05113-90000013D0000097D000120000005175.0   GGSL
TXBWIC21090-66498-09795-30000001D0000011D000000000009795     GGSL
TXBWIC21090-66498-09901-80001587D0009879D087400028509901.0   GGSL
TXBWIC21090-66498-09902-50001816D0020638D075020027709902.0   GGSL
TXBWIC21090-66498-09903-20000796D0013234D015340004509903.0   GGSL
TXBWIC21090-66498-09925-40000174D0000845D006600003009925     GGSL
TXBWIC21090-66498-09929-20000026D0000210D002900000009929     GGSL
TXBWIC21090-66498-09937-70001392D0004713D047870052809937     GGSL
TXBWIC21090-66498-09939-10000015D0000166D000000000009939     GGSL
TXBWIC21090-66498-09947-60000192D0000652D009840027609947     GGSL
TXBWIC21090-66498-09950-50000960D0007122D011880030609955     GGSL
TXBWIC21090-66498-09965-00000594D0005082D012840020409965     GGSL
TXBWIC21090-66498-09977-30000108D0000730D002040004809977     GGSL
TXBWIC21090-66498-09985-80000264D0001127D004910019209985     GGSL
TXBWIC21090-66498-89905-20000804D0003850D039500018609905     GGSL
TXBWIC21090-66498-99827-40001212D0007030D004800024009827     GGSL
TXBWIC21090-70183-50005-50000124D0003554D00124000005000510   GGSL
TXBWIC21090-70183-50006-20000102D0003799D00000000245000610   GGSL
TXBWIC21090-70183-50023-90000060D0001622D00048000125002306   GGSL
TXBWIC21090-70183-50026-00000188D0002220D00308000485002610   GGSL
TXBWIC21090-70183-50027-70000192D0000875D00078000485002715   GGSL
TXBWIC21090-70183-50029-10000020D0000245D00051000005007410   GGSL
TXBWIC21090-70183-50034-50000852D0003600D00408002765003470   GGSL
TXBWIC21090-70183-50038-30000092D0001200D00096000045003810   GGSL
TXBWIC21090-70183-50042-00000030D0002744D00007000045004215   GGSL
TXBWIC21090-70183-50055-00000480D0005871D00192000485005510   GGSL
TXBWIC21090-70183-50060-40000099D0003504D00003000005006010   GGSL
TXBWIC21090-70183-51001-60000516C0000000D00172000405100114   GGSL
TXBWIC21090-70183-51006-10000420D0009317D00192001085100610   GGSL
TXBWIC21090-70183-51007-80000060D0002353D00060000365100710   GGSL
TXBWIC21090-70183-51009-20000048D0000698D00044000365004010   GGSL
TXBWIC21090-70183-51019-10000130D0002723D00072000125101910   GGSL
TXBWIC21090-70183-51073-30000072D0000389D00276000005107315   GGSL
TXBWIC21090-70183-51090-00000213D0005001D00222000435109010   GGSL
TXBWIC21090-70183-52039-80000040D0000917D00092000005203910   GGSL
TXBWIC21090-70183-52350-40000008D0000215D00020000005235010   GGSL
TXBWIC21090-70183-57050-80000108D0003180D00030000005705010   GGSL
TXBWIC21090-70183-57080-50000016D0000251D00008000005708010   GGSL
TXBWIC21090-70183-57250-20000108D0002460D00068000005725070   GGSL
TXBWIC21090-70251-65240-20000003D0000084D0002900000652400    GGSL
TXBWIC21090-70251-76116-60000006D0000083D0010200012761160    GGSL
TXBWIC21090-70251-79160-60000003D0000033D0011700012791600    GGSL
TXBWIC21090-70251-81482-40000105D0000651D00213000128141082   GGSL
TXBWIC21090-70805-51001-10000508D0001359D023000003070805-010-GGSL
TXBWIC21090-70805-51002-80000495D0002344D009930000070805-005-GGSL
TXBWIC21090-70805-51013-40002602D0037924D0255300075BD02      GGSL
TXBWIC21090-70805-51024-00000102D0000384D005460000070805-006-GGSL
TXBWIC21090-70805-51025-70003055D0043273D060270015070805-001-GGSL
TXBWIC21090-70805-51026-40000310D0001095D003060000670805-006-GGSL
TXBWIC21090-70805-51033-20000342D0005001D007290001070805-001-GGSL
TXBWIC21090-70805-51034-90000353D0009975D009370001970805-001-GGSL
TXBWIC21090-70805-51037-00000011D0000136D001150000070805-001-GGSL
TXBWIC21090-70805-51038-70000040D0000954D002050000570805-001-GGSL
TXBWIC21090-70805-51051-60000152D0000975D003440001670805-008-GGSL
TXBWIC21090-70805-53003-30001768D0014359D0296500072BD021     GGSL
TXBWIC21090-70805-62025-30006564D0171126D068460051270805-001-GGSL
TXBWIC21090-70805-84052-10000026D0000776D0013400000KERNEL_M-0GGSL
TXBWIC21090-70805-84053-80000180D0004409D003470000770805-001-GGSL
TXBWIC21090-70805-84054-50000144D0002453D003270000070805-001-GGSL
TXBWIC21090-70805-84075-00000428D0013588D014770005670805-001-GGSL
TXBWIC21090-70805-84076-70000051D0002954D006560000570805-001-GGSL
TXBWIC21090-70805-84077-40000013D0000753D0016100000KERNEL_M-0GGSL
TXBWIC21090-70805-84079-80000180D0008750D004700000170805-001-GGSL
TXBWIC21090-70805-84093-40000023D0001155D0015300005PEANUTSPL-GGSL
TXBWIC21090-70923-00000-00000054D0000259D0033100000600.0     GGSL
TXBWIC21090-70923-00196-50000228D0000488D0044300000T100-12   GGSL
TXBWIC21090-70923-00300-60000276D0001301D0081600120300.0     GGSL
TXBWIC21090-70923-00402-70000054D0000180D0004800006T401-6    GGSL
TXBWIC21090-70923-00912-10000036D0000192D0003600000T901-6    GGSL
TXBWIC21090-70923-02111-60000048D0000285D0003000006T21016    GGSL
TXBWIC21090-70923-02301-10000012D0000040D0000000000T2302-6   GGSL
TXBWIC21090-70923-02900-60000148D0000759D0015200000T2900     GGSL
TXBWIC21090-70923-08515-60000048D0000081D0045000000T3206     GGSL
TXBWIC21090-70923-12117-50000008D0000179D0001600000T300-NT   GGSL
TXBWIC21090-70923-12277-60000006D0000031D0001500000T1812     GGSL
TXBWIC21090-70923-29432-90000030D0000249D0000600000T514      GGSL
TXBWIC21090-70923-69500-30000024D0000927D0007700000T2512     GGSL
TXBWIC21090-71092-32500-80000294D0001399D0052200012T2502     GGSL
TXBWIC21090-71121-05580-40000276D0002053D00288000125580      GGSL
TXBWIC21090-71121-53940-30000004D0000032D0040800000HG-53944  GGSL
TXBWIC21090-71121-95830-30000003D0000026D0003300000HG-95830  GGSL
TXBWIC21090-71121-96281-20000282D0001399D0104400180HG-96281  GGSL
TXBWIC21090-71549-01128-40000008D0000022D00120000000112812   GGSL
TXBWIC21090-71549-01129-10000280D0000789D00088000000112912   GGSL
TXBWIC21090-71549-01656-20000018D0000138D00303000000165610   GGSL
TXBWIC21090-71549-01666-10000030D0000354D00228000000166610   GGSL
TXBWIC21090-71549-01738-50000018D0000144D00402000000173810   GGSL
TXBWIC21090-71549-01748-40000012D0000090D00183000000174810   GGSL
TXBWIC21090-71549-01936-50000024D0000150D00132000000193610   GGSL
TXBWIC21090-71549-02003-30000028D0000459D00316000160200310   GGSL
TXBWIC21090-71549-02014-90000108D0000649D00024000000201405   GGSL
TXBWIC21090-71549-02022-40000056D0000161D00136000000202212   GGSL
TXBWIC21090-71549-02028-60000008D0000025D00008000000202812   GGSL
TXBWIC21090-71549-02029-30000030D0000113D00012000000202912   GGSL
TXBWIC21090-71549-02030-90000006D0000054D00006000000203012   GGSL
TXBWIC21090-71549-02032-30000004D0000041D00004000040203205   GGSL
TXBWIC21090-71549-02044-60000004D0000030D00128000000204410   GGSL
TXBWIC21090-71549-02045-30000004D0000053D00140000000204510   GGSL
TXBWIC21090-71549-02047-70000024D0000144D00876000000204710   GGSL
TXBWIC21090-71549-02054-50000032D0000179D00032000000205408   GGSL
TXBWIC21090-71549-02055-20000618D0001320D00654000180205506   GGSL
TXBWIC21090-71549-02057-60000012D0000047D00306000000205710   GGSL
TXBWIC21090-71549-02127-60000008D0000096D00004000000212710   GGSL
TXBWIC21090-71549-02208-20001368D0011387D00456000240220810   GGSL
TXBWIC21090-71549-02756-80000040D0000108D00200000000275612   GGSL
TXBWIC21090-71549-02822-00000753D0007671D01065001320282210   GGSL
TXBWIC21090-71549-03455-90000012D0000061D00000000000345510   GGSL
TXBWIC21090-71549-03456-60000012D0000053D00240000060345610   GGSL
TXBWIC21090-71549-03964-60000018D0000124D00048000000396410   GGSL
TXBWIC21090-71549-04253-00000160D0001050D00340000000425310   GGSL
TXBWIC21090-71549-04318-60000240D0001144D00266000429994318   GGSL
TXBWIC21090-71549-04378-00000018D0000159D00173000000437806   GGSL
TXBWIC21090-71549-04380-30000024D0000100D00112000000438006   GGSL
TXBWIC21090-71549-04385-80000162D0000736D00276000780438580   GGSL
TXBWIC21090-71549-04465-70000016D0000216D00016000000446505   GGSL
TXBWIC21090-71549-04477-00000060D0000264D00048000000447705   GGSL
TXBWIC21090-71549-04478-70000120D0001054D00108000000447805   GGSL
TXBWIC21090-71549-04479-40000144D0001147D00660000000447905   GGSL
TXBWIC21090-71549-04481-70000028D0000247D00044000000448105   GGSL
TXBWIC21090-71549-04486-20000120D0000916D00048000000448605   GGSL
TXBWIC21090-71549-04487-90000042D0000294D00018000000448705   GGSL
TXBWIC21090-71549-04488-60000016D0000227D00020000080448805   GGSL
TXBWIC21090-71549-04491-60000060D0000522D00036000360449105   GGSL
TXBWIC21090-71549-04493-00000012D0000105D00004000120449305   GGSL
TXBWIC21090-71549-04494-70000012D0000095D00384000000449405   GGSL
TXBWIC21090-71549-04495-40000024D0000113D00036000000449505   GGSL
TXBWIC21090-71549-04613-20000048D0000307D00000000120461412   GGSL
TXBWIC21090-71549-04616-30000001D0000006D00091000000461612   GGSL
TXBWIC21090-71549-04745-00000030D0000226D00100000060474510   GGSL
TXBWIC21090-71549-04757-30000016D0000240D00072000000475705   GGSL
TXBWIC21090-71549-04758-00000003D0000072D00003000010475805   GGSL
TXBWIC21090-71549-04759-70000003D0000198D00001000000475905   GGSL
TXBWIC21090-71549-04910-20000036D0000150D00006000000491010   GGSL
TXBWIC21090-71549-07472-20000018D0000068D00000000000747210   GGSL
TXBWIC21090-71549-08410-30000336D0003260D00592000240841010   GGSL
TXBWIC21090-71549-43331-40000096D0000601D00660000000433310   GGSL
TXBWIC21090-71549-43361-10000148D0002525D00064000200433610   GGSL
TXBWIC21090-71549-43371-00000010D0000357D00066000000433710   GGSL
TXBWIC21090-71549-43701-50000096D0002041D00072000000437010   GGSL
TXBWIC21090-71549-43887-60000012D0000046D00252000004388710   GGSL
TXBWIC21090-71549-46008-20000020D0000337D00060000044600810   GGSL
TXBWIC21090-71549-46025-90000006D0000032D00528000004602510   GGSL
TXBWIC21090-71549-46132-40000052D0000767D00292000004613264   GGSL
TXBWIC21090-71549-46134-80000042D0000180D00090000004613406   GGSL
TXBWIC21090-71549-46139-30000008D0000111D00004000004613905   GGSL
TXBWIC21090-71549-46503-20000030D0000466D00498000004650306   GGSL
TXBWIC21090-71549-46510-00000036D0000503D00186000004651005   GGSL
TXBWIC21090-71549-46530-80000006D0000032D00108000004653005   GGSL
TXBWIC21090-71549-99008-40000084D0001045D00480000009900810   GGSL
TXBWIC21090-71549-99019-00000066D0000804D00135000609901910   GGSL
TXBWIC21090-71898-43163-40000573D0012905D01420000137800      GGSL
TXBWIC21090-71898-43180-10000483D0008704D00915000757450      GGSL
TXBWIC21090-71898-43209-90000059D0001396D00167000007822      GGSL
TXBWIC21090-71898-43210-50000084D0002094D00087000007824      GGSL
TXBWIC21090-71898-43211-20000323D0008413D00157000007828      GGSL
TXBWIC21090-71898-43213-60000765D0016926D00960000597324      GGSL
TXBWIC21090-71898-43214-30000275D0005501D00329000117326      GGSL
TXBWIC21090-71898-43215-00000126D0001673D004940002032150     GGSL
TXBWIC21090-72525-00003-00000207D0000702D0049200000HRT-6     GGSL
TXBWIC21090-72525-00005-40000318D0001536D0019200048HRP-16    GGSL
TXBWIC21090-72525-00022-10000039D0000299D0026400012HBB-32    GGSL
TXBWIC21090-72525-00048-10000003D0000013D0012900000HDE-8     GGSL
TXBWIC21090-72525-00055-90000030D0000201D0012600000EGG-16    GGSL
TXBWIC21090-72525-00078-80000015D0000052D0006000000BBTRP     GGSL
TXBWIC21090-72532-00014-80000606D0004682D0027900624          GGSL
TXBWIC21090-72532-00015-50000309D0008025D0033200109          GGSL
TXBWIC21090-72532-00016-20000036D0001728D0016400015          GGSL
TXBWIC21090-72532-00017-90000049D0006648D0016600001          GGSL
TXBWIC21090-72532-22310-30000040D0000292D0016000120stspray-10GGSL
TXBWIC21090-72693-00022-30000041D0008635D001300003983000002  GGSL
TXBWIC21090-72693-00046-90000166D0008082D003010004382004985  GGSL
TXBWIC21090-72693-00480-10000522D0064129D003820001682002490  GGSL
TXBWIC21090-72693-00498-60000412D0024762D002120000482002489  GGSL
TXBWIC21090-72693-00505-10000630D0014139D004460002482002488  GGSL
TXBWIC21090-72693-00993-60000004D0000124D000130000282100099  GGSL
TXBWIC21090-72693-01020-80000059D0013203D001460005783014144  GGSL
TXBWIC21090-72693-02504-20000153D0001956D002520000082002504  GGSL
TXBWIC21090-72693-03143-20000018D0000173D002640000682300314  GGSL
TXBWIC21090-72693-03154-80000114D0001350D002690000682300315  GGSL
TXBWIC21090-72693-03174-60000012D0000122D000480000382300317  GGSL
TXBWIC21090-72693-03194-40000006D0000204D000060000082300319  GGSL
TXBWIC21090-72693-03265-10000001D0000057D000950000082300326  GGSL
TXBWIC21090-72693-03284-20000012D0000094D000300000082300328  GGSL
TXBWIC21090-72693-03507-20000012D0000100D000960000082100050  GGSL
TXBWIC21090-72693-04320-60008896D0563432D044730322682004320  GGSL
TXBWIC21090-72693-04430-20001387D0023674D032920006982004430  GGSL
TXBWIC21090-72693-04431-90000776D0018251D011760011082004431  GGSL
TXBWIC21090-72693-04491-30000120D0000877D003630001282004491  GGSL
TXBWIC21090-72693-04493-70000174D0003333D003050002482004493  GGSL
TXBWIC21090-72693-04504-00000592D0015925D012100003482004505  GGSL
TXBWIC21090-72693-04506-40000321D0005611D009500015682004504  GGSL
TXBWIC21090-72693-04508-80000354D0003514D007960001582004508  GGSL
TXBWIC21090-72693-04515-60000001D0000051D000520000082004515  GGSL
TXBWIC21090-72693-04964-20005298D0047063D482930030682004964  GGSL
TXBWIC21090-72693-05004-40000888D0004705D016440001282005004  GGSL
TXBWIC21090-72693-05005-10000713D0009134D019500004882005005  GGSL
TXBWIC21090-72693-05007-50000392D0010517D007950001882005007  GGSL
TXBWIC21090-72693-05200-00000544D0005627D004680000482030466  GGSL
TXBWIC21090-72693-05201-70000744D0004092D018360004882005201  GGSL
TXBWIC21090-72693-05202-40000528D0007037D009180001282005202  GGSL
TXBWIC21090-72693-06002-90000834D0013796D009900005482004318  GGSL
TXBWIC21090-72693-06003-60000588D0019314D003160001282004319  GGSL
TXBWIC21090-72693-10002-20000011D0000136D000750000082004964  GGSL
TXBWIC21090-72693-10011-40000444D0004578D006600002482004317  GGSL
TXBWIC21090-72693-10012-10000009D0000185D000520000082210011  GGSL
TXBWIC21090-72693-10013-80000036D0000277D001260000082210012  GGSL
TXBWIC21090-72693-10015-20000006D0000065D001680000082210015  GGSL
TXBWIC21090-72693-10221-70000007D0000208D001880000082210022  GGSL
TXBWIC21090-72693-10231-60000006D0000052D002460000082210023  GGSL
TXBWIC21090-72693-14057-80000088D0005670D004190010883014005  GGSL
TXBWIC21090-72693-21037-00000096D0000712D020400000082021037  GGSL
TXBWIC21090-72693-24010-00000033D0000853D001500000082002401  GGSL
TXBWIC21090-72693-29101-00000003D0000165D001580000083012910  GGSL
TXBWIC21090-72693-29912-20000711D0008508D006570004083012991  GGSL
TXBWIC21090-72693-30018-70000002D0000462D000070000183100018  GGSL
TXBWIC21090-72693-31766-60000018D0000264D003360000082031766  GGSL
TXBWIC21090-72693-31866-30000006D0000087D000240000082031866  GGSL
TXBWIC21090-72693-31967-70000004D0000508D000050000382031968  GGSL
TXBWIC21090-72693-31973-80000275C0000508C003520000082031973  GGSL
TXBWIC21090-72693-31984-40000540D0006344D035950003682031984  GGSL
TXBWIC21090-72693-31985-10000996D0012931D031400003682031985  GGSL
TXBWIC21090-72693-33563-90000065D0004215D000670001883013356  GGSL
TXBWIC21090-72693-33655-10000004D0000144D000000000083013365  GGSL
TXBWIC21090-72693-33688-90000084D0006270D001350007483013368  GGSL
TXBWIC21090-72693-33820-30000020D0004539D000500001383013382  GGSL
TXBWIC21090-72693-33850-00000039D0003797D002640002483013385  GGSL
TXBWIC21090-72693-33880-70000002D0000283D000450000283013388  GGSL
TXBWIC21090-72693-33953-80000297D0010793D009210001783013395  GGSL
TXBWIC21090-72693-34958-20000022D0001595D001680006183013884  GGSL
TXBWIC21090-72693-35969-70000001D0000069D000120000082690040  GGSL
TXBWIC21090-72693-36208-60000055D0002871D002290001883013620  GGSL
TXBWIC21090-72693-38528-30000002D0000904D000310002883013852  GGSL
TXBWIC21090-72693-40010-80000008D0001485D001010002083014003  GGSL
TXBWIC21090-72693-40127-30000027D0001349D001000000083014012  GGSL
TXBWIC21090-72693-40177-80000324D0001745D013070001282104017  GGSL
TXBWIC21090-72693-41488-40000004D0000358D000000000483014148  GGSL
TXBWIC21090-72693-41878-30000052D0002068D003730058283014187  GGSL
TXBWIC21090-72693-41888-20000010D0001276D000080000083014188  GGSL
TXBWIC21090-72693-44290-00000714D0009313D016320005482004429  GGSL
TXBWIC21090-72693-44650-20000093D0001916D000900000082004465  GGSL
TXBWIC21090-72693-44660-10000016D0000925D001000000082004466  GGSL
TXBWIC21090-72693-45000-40000192D0001349D008850001282004500  GGSL
TXBWIC21090-72693-45010-30000480D0004269D007880007282004501  GGSL
TXBWIC21090-72693-45020-20000372D0005345D011760008482004502  GGSL
TXBWIC21090-72693-45030-10000033D0001668D011130000082994503  GGSL
TXBWIC21090-72693-45115-50000027D0000202D004500000082004511  GGSL
TXBWIC21090-72693-45530-60000004D0000152D000380000082004553  GGSL
TXBWIC21090-72693-46930-30000320D0002906D015160002482004693  GGSL
TXBWIC21090-72693-46950-10000034D0000927D004100000882004695  GGSL
TXBWIC21090-72693-46970-90000002D0000335D003330000082004697  GGSL
TXBWIC21090-72693-50064-80000528D0005081D026390003682005006  GGSL
TXBWIC21090-72693-69370-80000036D0000264D001800000082690037  GGSL
TXBWIC21090-72693-81001-30000009D0000134D000390000082810002  GGSL
TXBWIC21090-72693-82303-70000300D0001719D007080001282300001  GGSL
TXBWIC21090-72711-60018-30000007D0000301D000020000060012     GGSL
TXBWIC21090-72725-00023-80000068D0000929D0017600000HBB-128   GGSL
TXBWIC21090-72725-00041-20000012D0000067D0000000000HBXA-32   GGSL
TXBWIC21090-72725-00087-00000012D0000049D0000000024RA-16     GGSL
TXBWIC21090-72725-00158-70000016D0000655D0013600000BLKBB-128 GGSL
TXBWIC21090-72725-00183-90000030D0000413D0003000000BLKBB-326 GGSL
TXBWIC21090-72725-00213-30000036D0000268D0006300000BLKBB-16A GGSL
TXBWIC21090-72725-00259-10000024D0000103D0038400000CR-32     GGSL
TXBWIC21090-72725-00269-00000201D0001928D0039000303DE-FG105P GGSL
TXBWIC21090-72725-00407-60000179D0001076D0010800000DE-FG2P   GGSL
TXBWIC21090-72725-00408-30000216D0001957D0036000272DE-FG4P   GGSL
TXBWIC21090-72725-00420-50000001D0000127D0000000000GRR-20    GGSL
TXBWIC21090-72725-00461-80000108D0000333D0000000420360-32S   GGSL
TXBWIC21090-72725-00463-20000008D0000491D0000000000GOLDBB-128GGSL
TXBWIC21090-72725-00768-80000008D0000113D0000000000VINE30-128GGSL
TXBWIC21090-72868-00000-00000672D0000503D0470400384M330      GGSL
TXBWIC21090-72868-00300-40001488D0004322D0085200012M6006     GGSL
TXBWIC21090-72868-00326-40004536D0006877D1768800672M326      GGSL
TXBWIC21090-72868-00800-90000054D0000641D0105600024M6009     GGSL
TXBWIC21090-72868-02220-30000168D0001126D0091200000M6004     GGSL
TXBWIC21090-72868-02400-90000056D0000710D0027200000M7002-2   GGSL
TXBWIC21090-72868-03620-00000078D0006082D0009600032VP362     GGSL
TXBWIC21090-72868-03630-90000229D0001742D0275700036VP363     GGSL
TXBWIC21090-72868-03648-40000728D0008385D0055500063VP364B    GGSL
TXBWIC21090-72868-03660-60000003D0001038D0000100000VP366     GGSL
TXBWIC21090-72868-09012-70000006D0000113D0000000000M9012     GGSL
TXBWIC21090-72868-09320-30003240D0000774D1072800000M320      GGSL
TXBWIC21090-72868-11751-00000012D0000097D0009600000M751K     GGSL
TXBWIC21090-72868-13035-90000492D0000456D0612000000M035      GGSL
TXBWIC21090-72868-13200-10000996D0001509D0222000000200R      GGSL
TXBWIC21090-72868-13308-40000280D0002873D0047100024M308      GGSL
TXBWIC21090-72868-13309-10021168D0003912D3268803816M309      GGSL
TXBWIC21090-72868-13310-70000072D0000999D0023400024M310S     GGSL
TXBWIC21090-72868-13317-60000800D0000104D0000000000M317      GGSL
TXBWIC21090-72868-13325-10011592D0004499D7020003240M325      GGSL
TXBWIC21090-72868-13327-50003150D0000603D0735000000M327      GGSL
TXBWIC21090-72868-13530-90000012D0000059D0000000006M530      GGSL
TXBWIC21090-72868-54002-80000540D0000918D0330000024M668      GGSL
TXBWIC21090-72868-54102-50001488D0002773D0657400012M669      GGSL
TXBWIC21090-72874-00117-90000012D0000064D00108000002393      GGSL
TXBWIC21090-72874-04985-00000012D0000129D00084000004050S     GGSL
TXBWIC21090-72874-06850-90000018D0000207D00000000006039M     GGSL
TXBWIC21090-72874-06851-60000018D0000207D00048000006039L     GGSL
TXBWIC21090-72874-06852-30000018D0000207D00000000006039X     GGSL
TXBWIC21090-72874-40110-80000024D0000030D00012000004011      GGSL
TXBWIC21090-72874-40200-60000048D0000040D00312000004020L     GGSL
TXBWIC21090-72874-40714-80000012D0000065D00000000004071L     GGSL
TXBWIC21090-72874-40920-30000024D0000078D00060000004092      GGSL
TXBWIC21090-72874-40940-10000012D0000049D00012000004094L     GGSL
TXBWIC21090-72874-40945-60000024D0000098D00060000004094J     GGSL
TXBWIC21090-72874-60233-80000006D0000078D00036000006023M     GGSL
TXBWIC21090-72874-60234-50000006D0000078D00060000006023L     GGSL
TXBWIC21090-73035-01212-60000012D0000073D002640013201212     GGSL
TXBWIC21090-73035-01310-90000060D0000225D000000002401310     GGSL
TXBWIC21090-73035-02610-90000320D0000128D025600000002610     GGSL
TXBWIC21090-73035-02612-30000320D0000119D038400016002612     GGSL
TXBWIC21090-73035-04226-00000050D0000205D001850033004226     GGSL
TXBWIC21090-73035-06127-80000024D0000093D002880024006127     GGSL
TXBWIC21090-73035-06703-40000048D0000112D003960026406703     GGSL
TXBWIC21090-73035-25001-60000006D0000132D000000016605031T    GGSL
TXBWIC21090-73561-00022-20000048D0000245D00822000002000221   GGSL
TXBWIC21090-73561-00028-40000072D0000651D01091000421000283   GGSL
TXBWIC21090-73561-00042-00000084D0000430D06592000242000422   GGSL
TXBWIC21090-73561-00044-40000048D0000398D00060000301000441   GGSL
TXBWIC21090-73561-00055-00000630D0001759D00660000301000551   GGSL
TXBWIC21090-73561-00070-30000018D0000097D00432000121000701   GGSL
TXBWIC21090-73561-00099-40000258D0000597D02490000002000992   GGSL
TXBWIC21090-73561-00119-90000004D0000089D00192000001001193   GGSL
TXBWIC21090-73561-00150-20000066D0000343D00354000303001502   GGSL
TXBWIC21090-73561-00157-10000120D0000181D0003600000400157    GGSL
TXBWIC21090-73561-00183-00000006D0000068D00000000001001834   GGSL
TXBWIC21090-73561-00190-80000144D0000431D0000600036100195    GGSL
TXBWIC21090-73561-00192-20000024D0000132D00606000241001921   GGSL
TXBWIC21090-73561-00199-10000084D0000226D00252000361001991   GGSL
TXBWIC21090-73561-00252-30000552D0000549D01512003841002522   GGSL
TXBWIC21090-73561-00366-70000024D0000039D00000000001003661   GGSL
TXBWIC21090-73561-00410-70000090D0000925D01254000061004102   GGSL
TXBWIC21090-73561-00432-90000036D0000480D00210000361004325   GGSL
TXBWIC21090-73561-00531-90000294D0000840D00510003301000532   GGSL
TXBWIC21090-73561-00590-60000144D0000419D00084000061005901   GGSL
TXBWIC21090-73561-00600-20000030D0000144D00036000903006002   GGSL
TXBWIC21090-73561-00720-70000156D0000561D0018600006100720    GGSL
TXBWIC21090-73561-01560-80000030D0000116D0000000000101560    GGSL
TXBWIC21090-73561-01611-70000519C0000116C00072000061016111   GGSL
TXBWIC21090-73561-01660-50007200D0018864D0000000000101660    GGSL
TXBWIC21090-73561-03836-20000018D0000215D00060000001038361   GGSL
TXBWIC21090-73561-10114-10000009D0000132D00368000001011410   GGSL
TXBWIC21090-73561-30019-30000144D0001650D00960000003001910   GGSL
TXBWIC21090-73561-30027-80000006D0000079D00078000003002710   GGSL
TXBWIC21090-73561-30034-60000024D0000273D00018000003003410   GGSL
TXBWIC21090-73561-36001-20000192D0000626D01278000001360011   GGSL
TXBWIC21090-73561-46001-90000078D0000817D0047400000146002    GGSL
TXBWIC21090-73561-48510-40000204D0001240D00087001324851012   GGSL
TXBWIC21090-73561-48520-30000171D0001114D00456000004852012   GGSL
TXBWIC21090-73561-60101-60000648D0002094D0401900072160101    GGSL
TXBWIC21090-73561-70101-30000216D0002158D0151800000170101    GGSL
TXBWIC21090-73561-75001-10000149D0000508D00684000241750011   GGSL
TXBWIC21090-73561-85001-80000048D0000472D00174000361850011   GGSL
TXBWIC21090-73889-10003-10000008D0000058D00008000121091      GGSL
TXBWIC21090-73889-10004-80000356D0001830D00740002521273      GGSL
TXBWIC21090-74514-57625-20000270D0000852D0054600234HG-95715  GGSL
TXBWIC21090-76807-00020-80000144D0000092D003120000046310     GGSL
TXBWIC21090-76807-00050-50000096D0000153D001440000046100     GGSL
TXBWIC21090-76807-62228-80000012D0000045D000000000047090     GGSL
TXBWIC21090-77342-14494-70000005D0000045D00005001058073807CS GGSL
TXBWIC21090-77625-81082-60000052D0000665D00084000028108-2    GGSL
TXBWIC21090-77625-81092-50000070D0000931D00104000108109-2    GGSL
TXBWIC21090-78627-01912-50000075D0001267D0009501000CSNFA12050GGSL
TXBWIC21090-78627-58822-50000025D0000665D0004400000CSNCG58050GGSL
TXBWIC21090-78627-58823-20000012D0000425D0005700000CSNCG58075GGSL
TXBWIC21090-78627-58824-90000024D0001265D0004200000CSNCG58100GGSL
TXBWIC21090-78627-58832-40000149D0003701D0014000000SNFR58050 GGSL
TXBWIC21090-78627-58834-80000050D0002438D0002200004SNFR58100 GGSL
TXBWIC21090-78627-67582-60000084D0002318D0031000005CSNFXP5805GGSL
TXBWIC21090-78627-67583-30000012D0000469D0000000000CSNFXP5807GGSL
TXBWIC21090-78627-67584-00000072D0004133D0017400000CSNFXP5810GGSL
TXBWIC21090-78627-99381-40000012D0000078D0003600012CELSP38025GGSL
TXBWIC21090-78978-01774-00000012D0000304D0000500000HUMBAR200 GGSL
TXBWIC21090-78978-02400-70000081D0000181D002040000368        GGSL
TXBWIC21090-78978-06700-40000030D0000043D001020000367        GGSL
TXBWIC21090-78978-10158-60000028D0000403D00040000028117-2    GGSL
TXBWIC21090-78978-21087-50000173D0001349D0014400090203CPBN   GGSL
TXBWIC21090-78978-21089-90000036D0000496D0028100027209B      GGSL
TXBWIC21090-78978-21090-50000028D0000309D0003200000210PB     GGSL
TXBWIC21090-78978-21520-70000108D0000333D0000000000215P      GGSL
TXBWIC21090-78978-21720-10000012D0000090D0005400000217       GGSL
TXBWIC21090-78978-22000-30000078D0001189D0070500000220-6     GGSL
TXBWIC21090-78978-23153-50000156D0000103D0129600000231-12    GGSL
TXBWIC21090-78978-23900-50000495D0002415D0058800081239       GGSL
TXBWIC21090-78978-27300-90000132D0000440D0005400030273       GGSL
TXBWIC21090-78978-33600-10000036D0000660D0008500058336       GGSL
TXBWIC21090-78978-33800-50000015D0000373D0005800004338       GGSL
TXBWIC21090-78978-33900-20000004D0000098D0000000000339       GGSL
TXBWIC21090-78978-54699-80000004D0000077D0000200002MCF001    GGSL
TXBWIC21090-78978-55002-50000612D0000887D0097800060240SF     GGSL
TXBWIC21090-78978-55004-90000004D0000022D0000000000244SFB    GGSL
TXBWIC21090-78978-55005-60000246D0000356D0024000012243SF     GGSL
TXBWIC21090-78978-60100-00000030D0000373D00246001509201-6    GGSL
TXBWIC21090-78978-70046-80000012D0000202D00056000189109-2    GGSL
TXBWIC21090-78978-78500-70000040D0000563D0004200000785       GGSL
TXBWIC21090-78978-81322-90000044D0000607D00102000008132-2    GGSL
TXBWIC21090-78978-92818-30000010D0000168D0004200000HF940     GGSL
TXBWIC21090-78978-96327-60000117D0000789D0014300012238       GGSL
TXBWIC21090-84369-00001-70000054D0000705D0025100342PDF1RED   GGSL
TXBWIC21090-84369-00003-10000051D0000385D0006400009HP3       GGSL
TXBWIC21090-84369-00015-40000018D0000445D0000900000HP15      GGSL
TXBWIC21090-84369-00017-80000003D0000068D0000900000PDFERED   GGSL
TXBWIC21090-84369-00032-10000102D0000449D0051000030AW32      GGSL
TXBWIC21090-84369-00068-00000003D0000017D0000000000HP8       GGSL
TXBWIC21090-84369-00071-00000014D0000224D0000900002PSB70RED  GGSL
TXBWIC21090-84369-00073-40000010D0000160D0000600003PSB70BLUE GGSL
TXBWIC21090-84369-00088-80000016D0000466D000000000088SW      GGSL
TXBWIC21090-84369-00090-10000071D0000265D008070001290        GGSL
TXBWIC21090-84369-00092-50000012D0000007D000520001292        GGSL
TXBWIC21090-84369-00112-00000003D0000072D0022900001CH12      GGSL
TXBWIC21090-84369-00115-10000026D0000350D0021400013HF12RED   GGSL
TXBWIC21090-84369-00125-00000038D0001148D0037500003CH25      GGSL
TXBWIC21090-84369-00150-20000003D0000144D0013700000CH50      GGSL
TXBWIC21090-84369-00188-50000007D0000238D000000000088ESW     GGSL
TXBWIC21090-84369-00200-40000024D0000105D0018600000HP2       GGSL
TXBWIC21090-84369-00310-00000015D0000351D0001900000PW13      GGSL
TXBWIC21090-84369-00324-70000060D0000150D0081600000PS32BLUE  GGSL
TXBWIC21090-84369-00650-70000006D0000082D0034800006HP650     GGSL
TXBWIC21090-84369-00666-80000036D0000069D0018000012666       GGSL
TXBWIC21090-84369-00680-40000036D0000070D0062400000680       GGSL
TXBWIC21090-84369-00690-30000180D0000213D0723600072690       GGSL
TXBWIC21090-84369-00730-60000012D0000011D0026400000730       GGSL
TXBWIC21090-84369-00740-50000180D0000187D0550800072740       GGSL
TXBWIC21090-84369-00780-10000024D0000054D0024000000780       GGSL
TXBWIC21090-84369-00785-60000007D0000030D0011600004P8FBBLACK GGSL
TXBWIC21090-84369-00786-30000008D0000035D0016000003P8FBBLUE  GGSL
TXBWIC21090-84369-00789-40000010D0000042D0007800006P8FBRED   GGSL
TXBWIC21090-84369-00825-90000066D0000570D0010100000TM825     GGSL
TXBWIC21090-84369-01009-20000012D0000081D0000000000AF3SL     GGSL
TXBWIC21090-84369-01013-90000036D0000246D0019200012AF5SL     GGSL
TXBWIC21090-84369-01017-70000048D0000340D0016800012AF7SL     GGSL
TXBWIC21090-84369-01018-40000015D0000390D0006600000AH2424    GGSL
TXBWIC21090-84369-01020-70000002D0000068D0004800000AH3030    GGSL
TXBWIC21090-84369-01039-90000048D0000072D0000000000SSH2      GGSL
TXBWIC21090-84369-01040-50000029D0000228D0012700000ACP2      GGSL
TXBWIC21090-84369-01110-50000004D0000092D0003500000LT1       GGSL
TXBWIC21090-84369-01130-30000001D0000031D0000000000LT3       GGSL
TXBWIC21090-84369-01140-20000011D0000459D0007100000LT4       GGSL
TXBWIC21090-84369-01830-20000042D0000601D0000000000TM830     GGSL
TXBWIC21090-84369-02001-50000009D0000055D0062300000P20FBBLUE GGSL
TXBWIC21090-84369-02002-20000035D0000190D0075300006P20FBGREENGGSL
TXBWIC21090-84369-02003-90000024D0000140D0071100006P20FBRED  GGSL
TXBWIC21090-84369-02008-40000012D0000075D0011400006P20FBBLACKGGSL
TXBWIC21090-84369-02009-10000023D0000128D0007200000P20FBPURPLGGSL
TXBWIC21090-84369-02010-70000009D0000056D0000500000P20FBNAVY GGSL
TXBWIC21090-84369-02013-80000036D0000196D0008900000P20FBTEAL GGSL
TXBWIC21090-84369-02014-50000003D0000020D0007500000P20FBBURGUGGSL
TXBWIC21090-84369-04043-30000042D0000769D0016800000914043    GGSL
TXBWIC21090-84369-04173-70000018D0000405D0000600000914273    GGSL
TXBWIC21090-84369-07500-80000024D0000050D0045600000750       GGSL
TXBWIC21090-84369-09112-10000036D0000580D01722000009112      GGSL
TXBWIC21090-84369-09144-20000002D0000006D00038000059144      GGSL
TXBWIC21090-84369-09203-60000006D0000040D00023000009203      GGSL
TXBWIC21090-84369-09609-60000012D0000062D0000000000GP13      GGSL
TXBWIC21090-84369-09616-40000022D0000586D0059600006PPF3      GGSL
TXBWIC21090-84369-09617-10000016D0000503D0022400000PPF5      GGSL
TXBWIC21090-84369-09618-80000011D0000366D0004600000PPF7      GGSL
TXBWIC21090-84369-09640-90000012D0000078D0000000000TAP1      GGSL
TXBWIC21090-84369-09653-90000001D0000057D0000000000DDLT4     GGSL
TXBWIC21090-84369-09655-30000048D0000320D0247200012PHF3      GGSL
TXBWIC21090-84369-09656-00000030D0000431D0160200006PHF11     GGSL
TXBWIC21090-84369-09657-70000022D0000483D0006200002PHF22     GGSL
TXBWIC21090-84369-09808-30000036D0000070D00156000009808      GGSL
TXBWIC21090-84369-09812-00000012D0000047D00120000009812      GGSL
TXBWIC21090-84369-09814-40000012D0000027D00924000009814      GGSL
TXBWIC21090-84369-09822-90000024D0000080D00552000009822      GGSL
TXBWIC21090-84369-09830-40000012D0000039D00012000009830      GGSL
TXBWIC21090-84369-09832-80000016D0000304D00100000049832      GGSL
TXBWIC21090-84369-09833-50000018D0000421D00526000009833      GGSL
TXBWIC21090-84369-09835-80000012D0000354D00090000009835      GGSL
TXBWIC21090-84369-15040-80000036D0000111D0000000000150408    GGSL
TXBWIC21090-84369-15041-50000012D0000039D0002400000150415    GGSL
TXBWIC21090-84369-15044-60000006D0000267D0000600000150446    GGSL
TXBWIC21090-84369-15045-30000001D0000091D0000000000HGFS      GGSL
TXBWIC21090-84369-15059-00000005D0000098D0000000000150590    GGSL
TXBWIC21090-84369-15099-60000036D0000073D0004800024ACU2BLACK GGSL
TXBWIC21090-84369-15190-00000012D0000019D0000000000ACU1BLUE  GGSL
TXBWIC21090-84369-15224-20000003D0000034D0006100000152242    GGSL
TXBWIC21090-84369-15225-90000006D0000088D0002100000152259    GGSL
TXBWIC21090-84369-15226-60000001D0000019D0001800000152266    GGSL
TXBWIC21090-84369-15332-40000096D0000205D0000000000806PURPLE GGSL
TXBWIC21090-84369-15379-90000012D0000070D0008300002P20FBHOTPIGGSL
TXBWIC21090-84369-15381-20000011D0000068D0016700000P20FBLIMEGGGSL
TXBWIC21090-84369-15401-70000001D0000004D0001400000P8FBBERRYBGGSL
TXBWIC21090-84369-15406-20000042D0000232D0005200000P20FBBERRYGGSL
TXBWIC21090-84369-15439-00000036D0000447D0001800012FF16RED   GGSL
TXBWIC21090-84369-15441-30000240D0002133D0018600006FF11RED   GGSL
TXBWIC21090-84369-15494-90000024D0000281D00973000067906      GGSL
TXBWIC21090-84369-15731-50000001D0000095D0004400000157315    GGSL
TXBWIC21090-84369-15747-60000003D0000132D00128000016300      GGSL
TXBWIC21090-84369-15749-00000003D0000041D00011000006302      GGSL
TXBWIC21090-84369-15750- 0000006D0000020D00113000006303      GGSL
TXBWIC21090-84369-15777-30000020D0000271D0000000000157773    GGSL
TXBWIC21090-84369-15778-00000010D0000131D0000000000157780    GGSL
TXBWIC21090-84369-17001-70000352D0003557D0885200024170017    GGSL
TXBWIC21090-84369-17002-40000648D0003488D1395600096170024    GGSL
TXBWIC21090-84369-17003-10000228D0000789D0631200096170031    GGSL
TXBWIC21090-84369-17056-70000018D0000217D0022600004GOT2      GGSL
TXBWIC21090-84369-17057-40000025D0000290D0030100000GOT4      GGSL
TXBWIC21090-84369-17058-10000027D0000434D0033100001GOT55     GGSL
TXBWIC21090-84369-17067-30000006D0000094D0024000000GOT105    GGSL
TXBWIC21090-84369-17068-00000021D0000408D0012200003GOT16     GGSL
TXBWIC21090-84369-17126-70000008D0000275D0000600000171267    GGSL
TXBWIC21090-84369-17135-90000012D0000139D0001500000HH1       GGSL
TXBWIC21090-84369-17197-70000001D0000044D00113000009300      GGSL
TXBWIC21090-84369-17198-40000001D0000082D000240000010300     GGSL
TXBWIC21090-84369-17348-30000006D0000024D0000000000GP5       GGSL
TXBWIC21090-84369-17370-40000010D0001075D0000900000HIVE10    GGSL
TXBWIC21090-84369-17376-60000001D0000019D0000000000DFRBLACK  GGSL
TXBWIC21090-84369-17378-00000001D0000028D0000900000SM7       GGSL
TXBWIC21090-84369-17382-70000012D0000039D0009600000SMFUEL    GGSL
TXBWIC21090-84369-17390-20000006D0000072D0000000000GLVLG     GGSL
TXBWIC21090-84369-17398-80000006D0000076D0003900000HVEIL     GGSL
TXBWIC21090-84369-17410-70000003D0000016D0000000000ENTFDR    GGSL
TXBWIC21090-84369-17567-80000006D0000026D0000000000HFORK     GGSL
TXBWIC21090-84369-17891-40000002D0000009D0000000002P8FBORANGEGGSL
TXBWIC21090-84369-18120-40000102D0000134D0013200000DT9854    GGSL
TXBWIC21090-84369-18121-10000030D0000080D0033600000DT9855    GGSL
TXBWIC21090-84369-18122-80000030D0000148D0013200006DT9856    GGSL
TXBWIC21090-84369-18123-50000060D0000079D0037800000DT9857    GGSL
TXBWIC21090-84369-18124-20000054D0000164D0012000000DT9858    GGSL
TXBWIC21090-84369-18219-50000048D0000247D0018000000DT9862    GGSL
TXBWIC21090-84369-18248-50000005D0000182D0002800000WCSML     GGSL
TXBWIC21090-84369-18249-20000005D0000225D0003000002WCMED     GGSL
TXBWIC21090-84369-18250-80000008D0000461D0003300004WCLRG     GGSL
TXBWIC21090-84369-18251-50000009D0000748D0001600003WCXLG     GGSL
TXBWIC21090-84369-18252-20000006D0000607D0002700000WCGNT     GGSL
TXBWIC21090-84369-18539-40000014D0000596D0021600000DOMEFDR35 GGSL
TXBWIC21090-84369-18540-00000013D0000504D0020100000DOMEWTR5  GGSL
TXBWIC21090-84369-18541-70000020D0000932D0016400000DOMEFDR45 GGSL
TXBWIC21090-84369-18542-40000015D0000592D0022500000DOMEWTR8  GGSL
TXBWIC21090-84369-18543-10000018D0000908D0017800000DOMEFDR60 GGSL
TXBWIC21090-84369-18544-80000023D0001030D0018600000DOMEWTR10 GGSL
TXBWIC21090-84369-18546-20000005D0000074D0025500000DBW2      GGSL
TXBWIC21090-84369-18560-80005000D0001078D2640000600EGGCTNSLD GGSL
TXBWIC21090-84369-18676-60000001D0000078D0000000000GNB3      GGSL
TXBWIC21090-84369-18695-70000001D0000005D0012500000P8BERRYBLUGGSL
TXBWIC21090-84369-18697-10000020D0000083D0007600000P8BLACK6  GGSL
TXBWIC21090-84369-18702-20000044D0000205D0051700000P8BLUE6   GGSL
TXBWIC21090-84369-18708-40000010D0000044D0015100000P8GREEN6  GGSL
TXBWIC21090-84369-18710-70000009D0000033D0001100000P8HOTPINK GGSL
TXBWIC21090-84369-18712-10000011D0000045D0005500000P8LIMEGREEGGSL
TXBWIC21090-84369-18720-60000011D0000049D0066100000P8RED     GGSL
TXBWIC21090-84369-18743-50000008D0000050D0009800000P20FBORANGGGSL
TXBWIC21090-84369-18841-80000099D0000869D0036800009GGC10CAN  GGSL
TXBWIC21090-84369-18842-50000118D0000472D0074900009GGC10LID  GGSL
TXBWIC21090-84369-18843-20000104D0000934D0038000018GGC20CAN  GGSL
TXBWIC21090-84369-18845-60000217D0002997D0038000009GGC31CAN  GGSL
TXBWIC21090-84369-18846-30000197D0000893D0059800006GGC31LID  GGSL
TXBWIC21090-84369-18849- 0000105D0000426D0098600012GGC20LID  GGSL
TXBWIC21090-84865-33100-40000045D0000224D002040000033100     GGSL
TXBWIC21090-84865-55200-30000114D0000942D001920000055201     GGSL
TXBWIC21090-84865-87560-70000087D0000657D001680001287560     GGSL
TXBWIC21090-84865-92464-00000153D0001476D004020009692464     GGSL
TXBWIC21090-84865-92465-70000102D0000860D017190001292465     GGSL
TXBWIC21090-84865-93250-80000012D0000046D000000000093250     GGSL
TXBWIC21090-84865-93500-40000060D0000238D000570000093500     GGSL
TXBWIC21090-84865-93625-40000039D0000326D003810000093625     GGSL
TXBWIC21090-84865-93650-60000024D0000104D019200000093650     GGSL
TXBWIC21090-84865-96837-50000006D0000083D000720000096837     GGSL
TXBWIC21090-84865-97121-70001548D0004562D004560018097121     GGSL
TXBWIC21090-84865-97185-90000468D0002072D001320008497185     GGSL
TXBWIC21090-85199-00000-00000360D0000416D0099600084DD-11     GGSL
TXBWIC21090-85199-03306-00000003D0000222D0013700000PH-12     GGSL
TXBWIC21090-85199-03550-70000072D0000626D0024100000PMG-1     GGSL
TXBWIC21090-85199-04200-00000732D0000724D0206400036DD4-12    GGSL
TXBWIC21090-85199-04400-40000168D0000199D0074400000DD5-12    GGSL
TXBWIC21090-85199-05014-20000180D0000187D0093600036DD-14     GGSL
TXBWIC21090-85199-05015-90000307D0000317D0202800024DD-15     GGSL
TXBWIC21090-85199-05018-00000240D0000253D0081600000DD-18     GGSL
TXBWIC21090-85199-05029-60000108D0000201D0044400000DD-25     GGSL
TXBWIC21090-85199-06300-50000002D0000129D0002100003MP-15-4   GGSL
TXBWIC21090-85199-08001-90000016D0000035D0001600000S-1-8     GGSL
TXBWIC21090-85199-10102-80000002D0000053D0000000000BAT-1     GGSL
TXBWIC21090-85199-57001-50000036D0000046D0026400120DDC1-12   GGSL
TXBWIC21090-85199-57002-20000036D0000042D0019200444DDC2-12   GGSL
