NJARET20030-03831-30083-70000030D0000921D0000200000BP6250    GGSL
NJARET20030-07633-31219-70000144D0002154D0001100000AP30218DW GGSL
NJARET20030-10052-00333-10000132D0000539D000770000000333     GGSL
NJARET20030-10052-00333-10000046D0000177D000020000000333X    GGSL
NJARET20030-10052-00336-20000013D0000097D000080000100410X    GGSL
NJARET20030-10052-00600-40000013D0000171D0004300004600X      GGSL
NJARET20030-10106-16901-30000072D0000473D000000000056901     GGSL
NJARET20030-10106-16905-10000024D0000116D000000000016905     GGSL
NJARET20030-10367-00001-80000150D0000618D00001000000001      GGSL
NJARET20030-10367-00110-70000468D0003065D00133000000110      GGSL
NJARET20030-10367-00130-50000011D0000493D00024000000130      GGSL
NJARET20030-10367-00150-30000013D0000376D00060000000150      GGSL
NJARET20030-10367-00180-00000192D0000697D00021000000180      GGSL
NJARET20030-10367-00450-40000048D0000227D00019000000450      GGSL
NJARET20030-10367-00460-30000084D0000494D00020000000460      GGSL
NJARET20030-10367-00470-20000012D0000132D00035000010470      GGSL
NJARET20030-10367-00550-10000096D0000278D00039000000550      GGSL
NJARET20030-10367-00560-00000036D0000118D00006000000560      GGSL
NJARET20030-10367-00560-00000048D0000175D000040000405608     GGSL
NJARET20030-10367-00570-90000120D0000721D00030000000570      GGSL
NJARET20030-10367-01010-90000024D0000379D00000000001010      GGSL
NJARET20030-10367-01050-50000024D0000300D00000000001050      GGSL
NJARET20030-10367-01110-60000080D0000262D00082000011110      GGSL
NJARET20030-10367-01111-30000056D0000184D00080000001111      GGSL
NJARET20030-10367-01112-00000048D0000164D00025000001112      GGSL
NJARET20030-10367-01120-50000232D0000664D00120000021120      GGSL
NJARET20030-10367-01121-20000168D0000981D00124000011121      GGSL
NJARET20030-10367-01122-90000192D0001101D00121000021122      GGSL
NJARET20030-10367-01130-40000144D0000773D00117000011130      GGSL
NJARET20030-10367-01140-30000032D0000107D00022000011140      GGSL
NJARET20030-10367-01151-90000024D0000080D00024000001151      GGSL
NJARET20030-10367-01160-10000032D0000248D00019000011160      GGSL
NJARET20030-10367-01161-80000032D0000248D00029000011161      GGSL
NJARET20030-10367-01162-50000040D0000310D00032000011162      GGSL
NJARET20030-10367-01220-20000012D0000048D00000000001220      GGSL
NJARET20030-10367-02121-10000008D0000038D0000500000ML2121    GGSL
NJARET20030-10367-02151-80000016D0000119D0002100000ML2151    GGSL
NJARET20030-10367-02162-40000040D0000271D0000500001ML2162    GGSL
NJARET20030-10367-02163-10000056D0000379D0000600001ML2163    GGSL
NJARET20030-10367-02171-60000032D0000217D0000400001ML2171    GGSL
NJARET20030-10367-02181-50000032D0000217D0001300003ML2181    GGSL
NJARET20030-11120-00733-60000318D0000960D00118000028538      GGSL
NJARET20030-11423-00338-70000012D0000073D000110000033801     GGSL
NJARET20030-11423-00338-70000001D0000006D000000000093801     GGSL
NJARET20030-11423-00402-50000036D0000179D0001200000HG402000  GGSL
NJARET20030-11423-94098-90000006D0000021D0000000000HG94098   GGSL
NJARET20030-11423-94138-20000084D0000464D000090000094138     GGSL
NJARET20030-11423-94139-90000012D0000063D0000200000HG94127   GGSL
NJARET20030-12587-60034-40001408D0011120D000000000060034     GGSL
NJARET20030-12587-60035-10000212D0001750D003720000460035     GGSL
NJARET20030-12587-60764-00000196D0001509D000690000960764     GGSL
NJARET20030-12587-70028-00000024D0000135D003800000270028     GGSL
NJARET20030-12587-70054-90000018D0000101D001660000170054     GGSL
NJARET20030-12587-70403-50000012D0000067D001640000070403     GGSL
NJARET20030-12587-78361-00000018D0000159D000880000078361     GGSL
NJARET20030-12587-78362-70000468D0003628D000350000678362     GGSL
NJARET20030-12587-78459-40000006D0000053D000960000678459     GGSL
NJARET20030-12587-78634-50000384D0002962D001450002978634     GGSL
NJARET20030-12587-78685-70000006D0000054D000680000478685     GGSL
NJARET20030-12587-78709-00000018D0000163D000110001178709     GGSL
NJARET20030-12587-78742-70000036D0000028D001610000078742     GGSL
NJARET20030-12587-78743-40000024D0000017D001240000078743     GGSL
NJARET20030-12587-78835-60000060D0000055D001280000078835     GGSL
NJARET20030-12587-78836-30000060D0000055D001820000078836     GGSL
NJARET20030-12587-78837-00000060D0000055D002070000078837     GGSL
NJARET20030-12587-78838-70000040D0000036D002080000178838     GGSL
NJARET20030-12587-79008-30000024D0000170D001900000679008     GGSL
NJARET20030-13887-00404-70000240D0002705D0001800000404P      GGSL
NJARET20030-14306-14144-20000045D0000831D0000500001US647116  GGSL
NJARET20030-14306-14145-90000030D0000813D0000200000US807116  GGSL
NJARET20030-14306-14150-30000012D0000442D0000200000US907116  GGSL
NJARET20030-14306-92177-80000009D0000290D0000600000US395116  GGSL
NJARET20030-14306-92433-50000033D0001337D0002100006US225688  GGSL
NJARET20030-14306-92461-80000015D0000282D0000400000US296116  GGSL
NJARET20030-14306-92464-90000002D0000036D0000200000US569102  GGSL
NJARET20030-14306-92465-60000005D0000141D0000100000US669102  GGSL
NJARET20030-14306-92836-40000065D0001146D0001100000US643688  GGSL
NJARET20030-14306-92837-10000035D0000646D0000100000US643687  GGSL
NJARET20030-14306-92838-80000024D0000641D0001400004US804688  GGSL
NJARET20030-14306-92839-50000021D0000569D0000600005US804687  GGSL
NJARET20030-14306-92840-10000009D0000331D0001800004US900688  GGSL
NJARET20030-14306-92841-80000006D0000221D0000400004US900687  GGSL
NJARET20030-14306-92844-90000010D0000188D0000800000US295700  GGSL
NJARET20030-14306-92845-60000010D0000188D0000800000US295702  GGSL
NJARET20030-14306-92848-70000009D0000290D0001000001US395700  GGSL
NJARET20030-14306-92849-40000030D0000966D0000300000US395702  GGSL
NJARET20030-14306-92962-00000015D0000608D0000400000US225687  GGSL
NJARET20030-14400-10730-60000004D0000271D00005000001440010730GGSL
NJARET20030-14400-16011-00000012D0000156D00018000001440016011GGSL
NJARET20030-14400-21411-00000036D0000266D00035000001440021411GGSL
NJARET20030-14400-31000-30000036D0000093D00034000001440032000GGSL
NJARET20030-14400-42000-90000036D0000124D000080000042000     GGSL
NJARET20030-14400-60000-50000026D0000193D000010000060000     GGSL
NJARET20030-14400-61000-40000051D0000441D000000000061000     GGSL
NJARET20030-14400-61180-30000008D0000047D00057000001440061180GGSL
NJARET20030-14400-62000-30000002D0000023D000000000062000     GGSL
NJARET20030-14400-66000-90000003D0000034D000000000066000     GGSL
NJARET20030-14400-67000-80000022D0000312D000380000067000     GGSL
NJARET20030-14400-71065-00000192D0000812D00000000001440071065GGSL
NJARET20030-14400-71265-40000504D0002184D00003000031440071265GGSL
NJARET20030-14400-71400-90000048D0000151D00001000001440071400GGSL
NJARET20030-14400-80400-70000004D0000040D00009000001440080400GGSL
NJARET20030-14400-81200-20000004D0000045D00018000001440081200GGSL
NJARET20030-14400-81400-60000001D0000013D00006000001440081400GGSL
NJARET20030-15561-20007-30000012D0000144D0000500000PT7       GGSL
NJARET20030-15561-20008-00000012D0000276D0001000000PT8       GGSL
NJARET20030-15561-20910-60000096D0000656D0000000000PT910     GGSL
NJARET20030-15561-20966-30000012D0000028D0000100000PT966     GGSL
NJARET20030-15561-20968-70000012D0000027D0000100000PT968     GGSL
NJARET20030-15561-20970-00000432D0000691D0000000000PT970     GGSL
NJARET20030-15561-20971-70000432D0000881D0000000000PT971     GGSL
NJARET20030-15561-20977-90000012D0000076D0000000000PT977     GGSL
NJARET20030-15561-21496-40000004D0000152D0000000000PT1496    GGSL
NJARET20030-15561-21497-10000004D0000167D0000000000PT1497    GGSL
NJARET20030-15561-21498-80000003D0000191D0000000000PT1498    GGSL
NJARET20030-15561-21642-50000005D0000165D0000000000PT1642    GGSL
NJARET20030-15561-21725-50000003D0000428D0000200000PT1725    GGSL
NJARET20030-15561-21726-20000002D0000334D0000100000PT1726    GGSL
NJARET20030-15561-21741-50000002D0000410D0000500000PT1741    GGSL
NJARET20030-15561-21817-70000004D0000437D0000600000PT1817    GGSL
NJARET20030-15561-28232-10000012D0000606D0000600000PT8232    GGSL
NJARET20030-15561-28244-40000004D0000475D0000500000PT8244    GGSL
NJARET20030-15759-01272-30000006D0000136D0000400000R801B     GGSL
NJARET20030-15759-01506-90000006D0000102D0000100000R1115COLG GGSL
NJARET20030-15759-01515-10000001D0000022D0000000000R1248GX   GGSL
NJARET20030-15961-28600-40000006D0000080D00152000003000006683GGSL
NJARET20030-16069-00001-10000024D0000159D0000000000NESR      GGSL
NJARET20030-16069-00005-90000168D0001043D0003700000TP15C     GGSL
NJARET20030-16069-00007-30000216D0001315D0007900001BN1       GGSL
NJARET20030-16069-00008-00000372D0002429D0005700002BN2       GGSL
NJARET20030-16069-00013-40000030D0000803D0005000000BN3       GGSL
NJARET20030-16069-00014-10000048D0000824D0003900000BN4       GGSL
NJARET20030-16069-00019-60000012D0000110D0002000001TP30C     GGSL
NJARET20030-16069-00030-10000042D0000525D0003000000OW6       GGSL
NJARET20030-16069-00032-50000132D0001234D0002800000HG25      GGSL
NJARET20030-16069-00038-70000096D0000785D0002700000GF1015    GGSL
NJARET20030-16069-00047-90000036D0000215D0000100000TE12C     GGSL
NJARET20030-16069-00049-30000132D0002266D0008000001DX7       GGSL
NJARET20030-16069-00050-90000036D0000933D0001700000DX14      GGSL
NJARET20030-16069-00072-10000012D0000069D0000300000TSD12     GGSL
NJARET20030-16069-00076-90000054D0000305D0001600000PN10      GGSL
NJARET20030-16069-00077-60000336D0003082D0002100004PN14      GGSL
NJARET20030-16069-00079-00000018D0000525D0001400000PN28      GGSL
NJARET20030-16069-00110-00000015D0000216D0000600000PF3       GGSL
NJARET20030-16069-00145-20000040D0000878D0007700000RH04      GGSL
NJARET20030-16069-00218-30000120D0000509D0006100000HST100    GGSL
NJARET20030-16069-00306-70000020D0000216D0000000000WS1050    GGSL
NJARET20030-16069-00358-60000001D0000054D0000000000GS51000   GGSL
NJARET20030-16069-00365-40000018D0000219D0001700000PIN9      GGSL
NJARET20030-16069-00393-70000312D0000939D0004700000GS20      GGSL
NJARET20030-16069-00401-90000056D0000424D0001000000GF4050    GGSL
NJARET20030-16069-00434-70000030D0000090D0000000000PM25      GGSL
NJARET20030-16069-00446-00000016D0000144D0000000000RC168W    GGSL
NJARET20030-16069-00468-20000050D0000100D0000000000HCK50     GGSL
NJARET20030-16069-00478-10000020D0000737D0000000000SRHO4     GGSL
NJARET20030-16069-00479-80000040D0000828D0004000002E316B     GGSL
NJARET20030-16069-00485-90000024D0000037D0000000000GS1024    GGSL
NJARET20030-16069-00486-60000008D0000071D0000000000GS675     GGSL
NJARET20030-16069-00498-90000066D0000559D0000200000HGP1012   GGSL
NJARET20030-16069-00499-60000008D0000116D0000000000HGP1020   GGSL
NJARET20030-16069-00512-20000012D0000062D0000000000PH3       GGSL
NJARET20030-16069-00545-00000072D0000272D0000000000PD36      GGSL
NJARET20030-16069-00601-30000008D0000136D0000000000FASM4     GGSL
NJARET20030-16069-00602-00000008D0000284D0000000000FALG4     GGSL
NJARET20030-16069-00625-90000024D0000543D0000200000DXP12     GGSL
NJARET20030-16500-98130-50000072D0000144D002650000098130     GGSL
NJARET20030-17500-08120-00000252D0000318D003750000208120     GGSL
NJARET20030-17500-90206-20000276D0005848D001250000990206     GGSL
NJARET20030-17500-91316-70000060D0001147D000560000291316     GGSL
NJARET20030-17500-91350-10000024D0000472D000000000091350     GGSL
NJARET20030-17500-91362-40000012D0000115D000000000091362     GGSL
NJARET20030-17500-91714-10000024D0000523D000420000091714     GGSL
NJARET20030-17500-91818-60000004D0000069D000000000091818     GGSL
NJARET20030-17500-95204-30000048D0000948D000460000195204     GGSL
NJARET20030-17500-95334-70000004D0000098D000050000095334     GGSL
NJARET20030-17849-32372-60000035D0000174D0003400000CLA323    GGSL
NJARET20030-18062-00019-70000048D0000206D0000800000PT06MCCS  GGSL
NJARET20030-18222-00101-90000036D0000108D0002700000CS06101   GGSL
NJARET20030-18222-00103-30000048D0000145D0002800000CS06103   GGSL
NJARET20030-18222-00105-70000042D0000127D0005700000CS06105   GGSL
NJARET20030-18222-00107-10000024D0000091D0002000000CS06107   GGSL
NJARET20030-18222-00109-50000018D0000055D0002500000CS06109   GGSL
NJARET20030-18222-00110-10000012D0000036D0003900000CS06110   GGSL
NJARET20030-18222-00206-10000012D0000056D0001200000CS06206   GGSL
NJARET20030-18222-00213-90000060D0000246D0001900009CS06213   GGSL
NJARET20030-18222-00501-70002700D0003265D0025500002CS12501   GGSL
NJARET20030-18222-00503-10000216D0000441D0002000000CS503     GGSL
NJARET20030-18222-00505-50000216D0000231D0009400005CS12505   GGSL
NJARET20030-18222-00507-90000144D0000196D0001300001CS12507   GGSL
NJARET20030-18222-00509-30000228D0000379D0003100000CS12509   GGSL
NJARET20030-18222-00513-00000060D0000123D0000600000CS12513   GGSL
NJARET20030-18222-00526-00000564D0001664D0007900051CS06526   GGSL
NJARET20030-18222-00527-70000228D0000299D0004900000CS12527   GGSL
NJARET20030-18222-00531-40000180D0000401D0004100001CS12531   GGSL
NJARET20030-18222-00535-20000096D0000126D0002700000CS12535   GGSL
NJARET20030-18222-00543-70000072D0000098D0002100001CS12543   GGSL
NJARET20030-18222-00545-10000060D0000105D0000900000CS12545   GGSL
NJARET20030-18222-00553-60006252D0010649D0000000000CS12553   GGSL
NJARET20030-18222-00559-80000120D0000157D0003100000CS12559   GGSL
NJARET20030-18222-00561-10000108D0000141D0002000000CS12561   GGSL
NJARET20030-18222-00563-50000132D0000222D0004300000CS12563   GGSL
NJARET20030-18222-00565-90000300D0000503D0014600081CS12565   GGSL
NJARET20030-18222-00569-70000372D0000640D0005700000CS12569   GGSL
NJARET20030-18222-00571-00000096D0000200D0003000001CS12571   GGSL
NJARET20030-18222-00583-30000084D0000176D0003300001CS12583   GGSL
NJARET20030-18222-00608-30001284D0004369D0002000020CS608     GGSL
NJARET20030-18222-00610-60000012D0000053D0000000000CS610     GGSL
NJARET20030-18222-00611-30000348D0001180D0001500010CS611     GGSL
NJARET20030-18222-00680-90000084D0000179D0001200000CS12680   GGSL
NJARET20030-18222-00701-10000120D0000205D0002100001CS701     GGSL
NJARET20030-18222-00707-30000016D0000049D0000700001CS707     GGSL
NJARET20030-18222-00709-70000006D0000029D0000000000CS709     GGSL
NJARET20030-18222-00730-10000168D0000329D0010800000CS730     GGSL
NJARET20030-18222-00753-00000544D0002669D0000000000CS753     GGSL
NJARET20030-18222-00757-80000008D0000054D0000900000CS757     GGSL
NJARET20030-18222-00950-30000024D0000025D0002400004CS950     GGSL
NJARET20030-18222-02501-50000049D0000490D0004800000CSV08501NLGGSL
NJARET20030-18222-50501-20000492D0000522D0007500000CS1250501XGGSL
NJARET20030-18222-50527-20000120D0000127D0018400000CS1250527XGGSL
NJARET20030-18222-50559-30000444D0000471D0016400000CS1250559XGGSL
NJARET20030-18441-99080-40000004D0000128D0000500000300000685 GGSL
NJARET20030-18506-00012-70000012D0000138D0000000000126       GGSL
NJARET20030-18506-00102-50000096D0000419D000410000110212     GGSL
NJARET20030-18506-00110-00000132D0000982D001170000111012     GGSL
NJARET20030-18506-00111-70000020D0000331D00000000001115      GGSL
NJARET20030-18506-00116-20000192D0001342D000080000011612     GGSL
NJARET20030-18506-00117-90000102D0001094D00012000001176      GGSL
NJARET20030-18506-00121-60000018D0000172D00010000001216      GGSL
NJARET20030-18506-00123-00000036D0000197D0000400000123       GGSL
NJARET20030-18506-00125-40000060D0000299D0001500000125       GGSL
NJARET20030-18506-00129-20000012D0000063D0000000000129       GGSL
NJARET20030-18506-00130-80000084D0000464D0002200000130       GGSL
NJARET20030-18506-00135-30000006D0000087D0000700000135       GGSL
NJARET20030-18506-00139-10000004D0000140D0000000000139       GGSL
NJARET20030-18506-00555-50000002D0001429D000000000011096     GGSL
NJARET20030-18506-01140-60000004D0000065D00000000001140      GGSL
NJARET20030-18506-02001-90000036D0000412D00019000002001      GGSL
NJARET20030-19200-00061-10000004D0000050D000010000000061     GGSL
NJARET20030-19200-00095-60000054D0000139D003690000000027     GGSL
NJARET20030-19200-00619-40000372D0001266D015820000100706     GGSL
NJARET20030-19200-00888-40011628D0025348D000000000000888     GGSL
NJARET20030-19200-02522-50001668D0002967D000980000102522     GGSL
NJARET20030-19200-02569-00003432D0007424D000120001202569     GGSL
NJARET20030-19200-02699-40001680D0005251D000000000002699     GGSL
NJARET20030-19200-02845-50004380D0015676D000000000028455     GGSL
NJARET20030-19200-05432-40000042D0000169D000950000075057     GGSL
NJARET20030-19200-74186-60004344D0017328D000000000074186     GGSL
NJARET20030-19200-75055-40001704D0003051D001090000175055     GGSL
NJARET20030-19200-75352-40003120D0008697D000000000075352     GGSL
NJARET20030-19200-76878-80000060D0000120D001490000076878     GGSL
NJARET20030-19200-76879-50002424D0004305D000140001476879     GGSL
NJARET20030-19200-78033-90000018D0000076D00180000011920078033GGSL
NJARET20030-19200-78625-60002376D0005855D000000000078625     GGSL
NJARET20030-19200-78626-30003708D0008144D000000000078626     GGSL
NJARET20030-19200-78630-00001782D0004185D000000000078630     GGSL
NJARET20030-19200-78631-70002115D0004941D000000000078631     GGSL
NJARET20030-19200-78849-60009114D0041396D000000000078849     GGSL
NJARET20030-19200-78914-10003048D0008595D000000000078914     GGSL
NJARET20030-19200-79174-80000006D0000018D000110000079174     GGSL
NJARET20030-19200-79326-10004464D0022670D000000000079326     GGSL
NJARET20030-19200-79329-20012456D0058865D000000000079329     GGSL
NJARET20030-19200-79830-30000228D0001906D003090000079830     GGSL
NJARET20030-19200-79831-00000330D0001162D001900000079831     GGSL
NJARET20030-19200-79838-90000024D0000099D001930000179838     GGSL
NJARET20030-19200-80078-50000054D0000220D001270000280078     GGSL
NJARET20030-19200-80296-30000138D0000867D000000000080296     GGSL
NJARET20030-19200-80306-90000024D0000135D001050000080306     GGSL
NJARET20030-19200-80313-70003636D0008605D000000000080313     GGSL
NJARET20030-19200-80833-00005256D0020047D000000000080833     GGSL
NJARET20030-19200-81146-00000648D0001497D000000000081146     GGSL
NJARET20030-19200-81545-10004008D0014970D000000000081545     GGSL
NJARET20030-19200-81700-40000540D0002252D000000000081700     GGSL
NJARET20030-19200-82043-10001376D0003427D002260000082043     GGSL
NJARET20030-19200-83262-50000012D0000042D00168000001920082362GGSL
NJARET20030-19200-83623-40000006D0000047D008430000083623     GGSL
NJARET20030-19200-83721-70000608D0001558D006650001783721     GGSL
NJARET20030-19200-83925-90000864D0002281D000000000083925     GGSL
NJARET20030-19200-84251-80000042D0000310D000000000084251     GGSL
NJARET20030-19200-85668-30000336D0000785D000000000085668     GGSL
NJARET20030-19200-89016-80000064D0000270D000000000089016     GGSL
NJARET20030-19200-89289-60002061D0006101D000000000089289     GGSL
NJARET20030-19200-89868-30000016D0000038D000540000089868     GGSL
NJARET20030-19200-93010-90006828D0030343D000000000093010     GGSL
NJARET20030-19200-93053-60000288D0001201D000000000093053     GGSL
NJARET20030-19200-94121-10001056D0005067D000000000094121     GGSL
NJARET20030-19200-94122-80000864D0004031D000000000094122     GGSL
NJARET20030-19200-95872-10000128D0001053D000070000795872     GGSL
NJARET20030-19200-96082-30000336D0000550D001080000896082     GGSL
NJARET20030-19200-97181-20000888D0003634D000000000097181     GGSL
NJARET20030-19200-98356-50000930D0006507D000000000098356     GGSL
NJARET20030-19200-98665-60000064D0000284D001660000098665     GGSL
NJARET20030-19200-98666-30000048D0000293D001110000098666     GGSL
NJARET20030-19263-25010-70000002D0000143D00025000002501      GGSL
NJARET20030-19263-25030-50000001D0000119D00015000002503      GGSL
NJARET20030-19263-25035-00000020D0000545D0003200000250350    GGSL
NJARET20030-19263-25045-90000012D0000416D0001100000250450    GGSL
NJARET20030-19263-25050-30000001D0000156D00001000012505      GGSL
NJARET20030-19263-25052-70000001D0000171D0000000000250525    GGSL
NJARET20030-19263-25055-80000020D0000869D0000500000250550    GGSL
NJARET20030-19263-25500-30000025D0000027D00000000002550      GGSL
NJARET20030-19263-25510-20000550D0000715D00121000002551      GGSL
NJARET20030-19263-25520-10001100D0001694D00197000022552      GGSL
NJARET20030-19263-25530-00000975D0001706D00149000032553      GGSL
NJARET20030-19263-25540-90001350D0002822D00129000052554      GGSL
NJARET20030-19263-25550-80000875D0002319D00060000012555      GGSL
NJARET20030-19263-25600-00000001D0000025D00001000002560      GGSL
NJARET20030-19263-25670-30000030D0000409D00016000002567      GGSL
NJARET20030-19263-25680-20000036D0000668D00019000002568      GGSL
NJARET20030-19263-25750-20000064D0000326D00037000002575      GGSL
NJARET20030-19263-25760-10000132D0000858D00070000002576      GGSL
NJARET20030-19263-25770-00000144D0001472D00082000062577      GGSL
NJARET20030-19263-25780-90000065D0001196D00056000012578      GGSL
NJARET20030-19263-25941-40007000D0000420D00000000002594BK    GGSL
NJARET20030-19263-25950-60000684D0000814D00002000002595      GGSL
NJARET20030-19263-26050-20000500D0000430D00009000002605      GGSL
NJARET20030-19263-26170-70000009D0000240D00000000002617      GGSL
NJARET20030-19263-26190-50000006D0000287D00023000002619      GGSL
NJARET20030-19263-26210-00000144D0001075D00061000032621      GGSL
NJARET20030-19263-26280-30000001D0000028D00003000002628      GGSL
NJARET20030-19263-26300-80000288D0000665D00038000072630      GGSL
NJARET20030-19263-26310-70000456D0001286D00054000042631      GGSL
NJARET20030-19263-26310-70000720D0002030D00014000002633      GGSL
NJARET20030-19263-26320-30000144D0000341D00001000012632      GGSL
NJARET20030-19263-26340-40000288D0000717D00000000002634      GGSL
NJARET20030-19263-26560-60000096D0000584D0000500000 2656     GGSL
NJARET20030-19263-26560-60000288D0002051D00017000042656      GGSL
NJARET20030-19263-26580-40000224D0002085D00014000002658      GGSL
NJARET20030-19263-29160-50000009D0000219D0000000000291600    GGSL
NJARET20030-19962-19690-40000030D0000339D0000000000AP8595096 GGSL
NJARET20030-19962-19700-00000025D0000332D0000100000AP8595097 GGSL
NJARET20030-19962-19710-90000040D0000653D0000100000AP8595098 GGSL
NJARET20030-21344-00321-20000060D0002152D0002500000WX15064   GGSL
NJARET20030-21344-00322-90000036D0001368D0012400005WX15065   GGSL
NJARET20030-21344-00328-10000006D0000043D0001300000WX16828   GGSL
NJARET20030-21344-00339-70000006D0000668D0025300074400339    GGSL
NJARET20030-21344-00340-30000007D0000697D0038700090400340    GGSL
NJARET20030-21344-00343-40000174D0001098D0007500001400343    GGSL
NJARET20030-21344-00344-10000282D0001869D0007300010400344    GGSL
NJARET20030-21344-00345-80000282D0001823D0005600003400345    GGSL
NJARET20030-21344-00346-50000300D0002006D0007000006400346    GGSL
NJARET20030-21344-00347-20000108D0001292D0012300005400347    GGSL
NJARET20030-21344-00348-90000276D0003729D0008000016400348    GGSL
NJARET20030-21344-00349-60000268D0003464D0006700013400349    GGSL
NJARET20030-21344-00350-20000200D0002515D0010100011400350    GGSL
NJARET20030-21344-00354-00000024D0001192D0013000031HQ73481784GGSL
NJARET20030-21344-00355-70000020D0000993D0007200030HQ73482102GGSL
NJARET20030-21344-00356-40000002D0000091D0000400000HQ734816  GGSL
NJARET20030-21344-00361-80000020D0000480D0006200001HQ74912297GGSL
NJARET20030-21344-00380-90000001D0000163D0012300001JFG18026  GGSL
NJARET20030-21344-00381-60000006D0000478D0004000000JFG18031  GGSL
NJARET20030-21344-00383-00000010D0001856D0002900000JFG18024  GGSL
NJARET20030-21344-00385-40000018D0000343D0005300001JFG18011A GGSL
NJARET20030-21344-00386-10000018D0000556D0006200001JFG18011B GGSL
NJARET20030-21344-00387-80000030D0001026D0009800001JFG18012  GGSL
NJARET20030-21344-00388-50000012D0000064D0004000000JFG18001  GGSL
NJARET20030-21344-00389-20000010D0000115D0003700000JFG18004  GGSL
NJARET20030-21344-00390-80000008D0000175D0005700000JFG18010A GGSL
NJARET20030-21344-00393-90000024D0000630D0005600001JFG18008A GGSL
NJARET20030-21344-00394-60000042D0000696D0006000000JFG18008ASGGSL
NJARET20030-21344-00395-30000020D0000527D0006200001JFG18006  GGSL
NJARET20030-21344-00396-00000020D0000695D0004800000JFG18016  GGSL
NJARET20030-21344-00397-70000027D0001059D0017000004JFG18018  GGSL
NJARET20030-21344-00398-40000001D0000116D0001000000JFG18042  GGSL
NJARET20030-21344-00403-50000032D0000734D0001600000ZT152072  GGSL
NJARET20030-21344-00404-20000009D0000541D0012500000ZT185020  GGSL
NJARET20030-21344-00405-90000007D0000461D0018000000ZT185019  GGSL
NJARET20030-21344-00406-60000003D0000289D0002300000ZT185024  GGSL
NJARET20030-21344-00407-30000012D0001555D0014900007ZT185016  GGSL
NJARET20030-21344-00408-00000012D0000657D0003600000ZT185026  GGSL
NJARET20030-21344-00409-70000228D0000871D0012700045ZT185018  GGSL
NJARET20030-21344-00410-30000008D0000307D0003300001ZT185006  GGSL
NJARET20030-21344-00411-00000028D0001063D0002600001ZT185021  GGSL
NJARET20030-21344-00412-70000008D0000305D0001900001ZT185022  GGSL
NJARET20030-21344-00413-40000072D0000091D0006700000400413    GGSL
NJARET20030-21344-00414-10000036D0000064D0008100000400414    GGSL
NJARET20030-21344-00415-80000012D0000025D0009700000400415    GGSL
NJARET20030-21344-00416-50000036D0000034D0007900000400416    GGSL
NJARET20030-21344-00417-20000084D0000134D0005500000400417    GGSL
NJARET20030-21344-00418-90000012D0000010D0006900000400418    GGSL
NJARET20030-21344-00420-20000036D0000343D0008000000400420    GGSL
NJARET20030-21344-00422-60000018D0000623D0002700001ZT185023  GGSL
NJARET20030-21344-00423-30000454D0051013D0004400019WX17658   GGSL
NJARET20030-21344-00718-00000138D0002478D0005800005WX17422   GGSL
NJARET20030-21344-00719-70000264D0004721D0004900006WX17413   GGSL
NJARET20030-21344-00720-30000234D0003800D0008100003WX17409   GGSL
NJARET20030-21344-00721-00000596D0011148D0035700022WX17230   GGSL
NJARET20030-21344-00722-70000396D0007674D0011100007WX17401   GGSL
NJARET20030-21344-00723-40000224D0004366D0016300007WX17402   GGSL
NJARET20030-21344-00724-10000006D0000240D0005300000WXRACK20  GGSL
NJARET20030-21344-00725-80000016D0000713D0007900001HQ748416  GGSL
NJARET20030-21344-00726-50000020D0000891D0009600001HQ74843056GGSL
NJARET20030-21344-00727-20000026D0001159D0005800001HQ74842665GGSL
NJARET20030-21344-00728-90000004D0000096D0010500000HQ74912300GGSL
NJARET20030-21344-00729-60000044D0002185D0001400001HQ7348782 GGSL
NJARET20030-21344-00730-20000072D0001152D0011400002BN19193   GGSL
NJARET20030-21344-00731-90000112D0001800D0009400005BN19190   GGSL
NJARET20030-21344-00732-60000092D0001494D0010600009BN19187   GGSL
NJARET20030-21344-00733-30000084D0001343D0010600001BN19188   GGSL
NJARET20030-21344-00734-00000104D0002933D0005800014WX17725   GGSL
NJARET20030-21344-00735-70000164D0002944D0007300005WX17577RV GGSL
NJARET20030-21344-00736-40000216D0003771D0008100004WX17578RV GGSL
NJARET20030-21344-00739-50000048D0001456D0005800003WX17816   GGSL
NJARET20030-21344-00740-10000072D0002065D0005000001WX17818   GGSL
NJARET20030-21344-00741-80000008D0000248D0006600002WX17817   GGSL
NJARET20030-21344-00744-90000036D0001049D0006300002WX17819   GGSL
NJARET20030-21344-00745-60000012D0000156D0024400000YS19006   GGSL
NJARET20030-21344-00746-30000012D0000210D0032400002YS19L005  GGSL
NJARET20030-21344-00747-00000012D0000210D0032300001YS19L004  GGSL
NJARET20030-21344-00748-70000008D0000109D0032400000YS19S002  GGSL
NJARET20030-21344-00749-40000008D0000109D0032300000YS19S003  GGSL
NJARET20030-21344-00750-00000012D0000164D0032200002YS19S001  GGSL
NJARET20030-21344-00762-30000064D0006301D0037400043FDBH1901  GGSL
NJARET20030-21344-00762-30000035D0004134D0014500012MG18387RV GGSL
NJARET20030-21344-00765-40000016D0001649D0016400012MG18390   GGSL
NJARET20030-21344-00766-10000020D0002760D00135000144007661   GGSL
NJARET20030-21344-00774-60000180D0005552D0019700107WX17800   GGSL
NJARET20030-21344-00775-30000172D0005367D0015700063WX17802   GGSL
NJARET20030-21344-00776-00000006D0000390D0027200000FDBB1901  GGSL
NJARET20030-21344-00779-10000021D0000478D0009800006JFG19058B GGSL
NJARET20030-21344-00780-70000037D0002235D0014300016MG18396RV GGSL
NJARET20030-21344-00781-40000047D0001822D0017300031MG18397RV GGSL
NJARET20030-21344-00795-10000042D0005376D0013800011MG18389   GGSL
NJARET20030-21344-00796-80000558D0001769D0006900006SSH1822719GGSL
NJARET20030-21344-00797-50000306D0001152D0008000002SSH1813624GGSL
NJARET20030-21344-00798-20000516D0002287D0008700011SSH1813728GGSL
NJARET20030-21344-00799-90000108D0000896D0007000004HS190061C GGSL
NJARET20030-21344-00800-20000108D0000896D0006300004HS190061B GGSL
NJARET20030-21344-00801-90000102D0000845D0006400006HS190061A GGSL
NJARET20030-21344-00802-60000028D0000251D0017700014HS190058C GGSL
NJARET20030-21344-00803-30000036D0000329D0016700014HS190058B GGSL
NJARET20030-21344-00804-00000032D0000290D0018000016HS190058A GGSL
NJARET20030-21344-00805-70000024D0000220D0011200001HS190056  GGSL
NJARET20030-21344-00806-40000320D0002595D0011000009SSH18A025 GGSL
NJARET20030-21344-00807-10000276D0003816D0009700004SSH18A034 GGSL
NJARET20030-21344-00808-80000768D0003737D0012800014SSH18A024 GGSL
NJARET20030-21344-00813-20000006D0000546D00301003014008132   GGSL
NJARET20030-21344-00819-40000072D0000608D0002000000WX17931   GGSL
NJARET20030-21344-00820-00000060D0000449D0002100004WX17936   GGSL
NJARET20030-21344-00821-70000156D0001259D0003900001WX17932   GGSL
NJARET20030-21344-00822-40000144D0001158D0004200001WX17930   GGSL
NJARET20030-21344-00823-10000132D0000970D0000800001WX17934   GGSL
NJARET20030-21344-00824-80000156D0001236D0003400003WX17933   GGSL
NJARET20030-21344-00825-50000096D0000561D0003100003JFG18011BWGGSL
NJARET20030-21344-00826-20000060D0000467D0003700003JFG18011AWGGSL
NJARET20030-21344-00827-90000072D0000561D0002800002JFG18008AWGGSL
NJARET20030-21344-00828-60000048D0000312D0003800002JFG18008ACGGSL
NJARET20030-21344-00829-30000112D0001015D0009500005ZT197030  GGSL
NJARET20030-21344-00830-90000038D0000974D0009600007ZT197002  GGSL
NJARET20030-21344-00831-60000056D0000977D0009700007ZT197003  GGSL
NJARET20030-21344-00832-30000051D0000932D0009700000JFG19007B GGSL
NJARET20030-21344-00833-00000026D0000726D0011300005ZT197029  GGSL
NJARET20030-21344-00834-70000016D0001534D0010000000ZT197023RVGGSL
NJARET20030-21344-00837-80000216D0000654D0012900078SK15020B  GGSL
NJARET20030-21344-00838-50001104D0002799D0021700093SK15008E  GGSL
NJARET20030-21344-00839-20000036D0000585D0009100002HS190062  GGSL
NJARET20030-21344-00844-60000150D0000831D0016200012HJAL19011 GGSL
NJARET20030-21964-10100-80000024D0000652D0001400000A6F       GGSL
NJARET20030-21964-10110-70000012D0000082D0001100000A6T       GGSL
NJARET20030-21964-10133-60000006D0000176D0000100000TH3RP     GGSL
NJARET20030-21964-10200-50000012D0000570D0001100000B7F       GGSL
NJARET20030-21964-10211-10000018D0000163D0000900000OMT       GGSL
NJARET20030-21964-10220-30000004D0000228D0000900000B72       GGSL
NJARET20030-21964-10315-60000004D0000126D0001100000SQG       GGSL
NJARET20030-21964-10322-40000002D0000080D0000700000CPF       GGSL
NJARET20030-21964-10370-50000066D0000739D0001000000OWF       GGSL
NJARET20030-21964-10386-60000012D0000154D0001200009CUTE      GGSL
NJARET20030-21964-10451-10000006D0000096D0000100000RSDHC     GGSL
NJARET20030-21964-10461-00000006D0000101D0003200000LF4       GGSL
NJARET20030-21964-10466-50000012D0000202D0002600000WH3       GGSL
NJARET20030-21964-10470-20000002D0000050D0002200000H82       GGSL
NJARET20030-21964-10480-10000012D0000036D0000100000NGT       GGSL
NJARET20030-21964-10481-80000018D0000107D0002400000AM        GGSL
NJARET20030-21964-10484-90000006D0000062D0000500000RS3WL     GGSL
NJARET20030-21964-10485-60000012D0000114D0001600000RS3HC     GGSL
NJARET20030-21964-10486-30000012D0000124D0001800000RS3WC     GGSL
NJARET20030-21964-10547-10000012D0000062D0000400000TSD       GGSL
NJARET20030-21964-10900-40000006D0000023D0000100000SL        GGSL
NJARET20030-21964-20061-90000005D0000231D0000600000SDC       GGSL
NJARET20030-21964-20075-60000003D0000234D0000700000B7DC      GGSL
NJARET20030-21964-20500-30000038D0004772D0004000000YF        GGSL
NJARET20030-21964-20510-20000016D0001331D0001600000YCPD90    GGSL
NJARET20030-21964-20510-20000004D0000288D0000000000YCPD90MB  GGSL
NJARET20030-21964-20520-10000036D0002829D0004200000YCPW180   GGSL
NJARET20030-21964-20530-00000018D0001502D0001800000YCPT360   GGSL
NJARET20030-21964-20530-00000002D0000163D0000100000YCPT360MB GGSL
NJARET20030-21964-25242-70000006D0000219D0001300000CC18S     GGSL
NJARET20030-21964-25243-40000006D0000262D0000700000CC24S     GGSL
NJARET20030-21964-25244-10000006D0000176D0000900000CC12N     GGSL
NJARET20030-21964-25245-80000018D0000657D0000900000CC18N     GGSL
NJARET20030-21964-25256-40000002D0000049D0000100000CC12FMX   GGSL
NJARET20030-21964-40053-80000036D0000798D0001200000CJM15G    GGSL
NJARET20030-21964-40063-70000024D0000687D0000200000CJM23G    GGSL
NJARET20030-21964-40096-50000012D0000035D0000900000JFBIDBK   GGSL
NJARET20030-21964-60510-00000006D0000125D0001200000GP        GGSL
NJARET20030-21964-90533-00000006D0000064D0000100000BLBUF15   GGSL
NJARET20030-21964-92007-40000005D0000628D0000000000YFM       GGSL
NJARET20030-22179-10012-10000390D0005944D0000000000LG3109    GGSL
NJARET20030-22179-10084-80000168D0001519D0000600000LG7220    GGSL
NJARET20030-22179-10115-90000006D0000114D0000000000LG5599    GGSL
NJARET20030-22179-10115-90000036D0000643D0000000000LG5600    GGSL
NJARET20030-22179-10120-30000074D0003246D0003100013LG6510    GGSL
NJARET20030-22179-10124-10000096D0000554D0011200005LG6515    GGSL
NJARET20030-22179-10139-50000012D0000062D0000000000LG1130    GGSL
NJARET20030-22179-10157-90000030D0000650D0001100002LG6530    GGSL
NJARET20030-22179-10185-20000096D0001108D0008700001LG6500    GGSL
NJARET20030-22179-10185-20000080D0000646D000000000010032     GGSL
NJARET20030-22179-10186-90000006D0000251D0000100000LG6555    GGSL
NJARET20030-22179-10227-90000240D0002189D0000200000LG8500    GGSL
NJARET20030-22179-10230-90000084D0000414D0000200000LG8800    GGSL
NJARET20030-22179-10246-00000054D0000920D0001700000LG6570    GGSL
NJARET20030-22179-10248-40000096D0000817D0000600000LG6575    GGSL
NJARET20030-22179-10257-60000012D0000199D0000400001LG3190    GGSL
NJARET20030-22179-10258-30000024D0000724D0000100000LG6580    GGSL
NJARET20030-22179-10259-00000012D0000679D0000200000LG6585    GGSL
NJARET20030-22179-10266-80000012D0000222D0000500000LG6145    GGSL
NJARET20030-22179-10327-60000024D0000213D0000900000LG6148    GGSL
NJARET20030-22179-10398-60000012D0000060D0000000000LG7236    GGSL
NJARET20030-22179-10408-20000396D0003791D0001400013LG6338    GGSL
NJARET20030-22179-10408-20000576D0005835D0000000000LG6338P   GGSL
NJARET20030-22179-10417-40000044D0003868D0000000000LG6142    GGSL
NJARET20030-22179-10419-80000012D0000055D0000000000LG6166    GGSL
NJARET20030-22179-10420-40000012D0000190D0000000000LG6168    GGSL
NJARET20030-22179-10429-70000024D0000418D0000800008LG6334    GGSL
NJARET20030-22179-10434-10000036D0000331D0000500000LG6133    GGSL
NJARET20030-22179-10443-30000006D0000056D0000600000LG3370    GGSL
NJARET20030-22179-10448-80000024D0000264D0000700000LG3174    GGSL
NJARET20030-22179-10454-90000012D0000136D0000400000LG3303    GGSL
NJARET20030-22179-10471-60000012D0000119D0000300000LG6128    GGSL
NJARET20030-22179-10473-00000012D0000129D0000000000LG6158    GGSL
NJARET20030-22179-10481-50000006D0000084D0000500000LG5592    GGSL
NJARET20030-22401-00301-50000018D0000188D0000000000THD20     GGSL
NJARET20030-22401-00350-30000008D0000120D0000900000EDG20GMC  GGSL
NJARET20030-22401-00401-20000012D0000158D0000000000PRO20B    GGSL
NJARET20030-22401-00440-10000008D0000201D0000100000PRO40     GGSL
NJARET20030-22401-00440-10000006D0000151D0008400000PRO40PC   GGSL
NJARET20030-22401-00740-20000031D0000463D0005300000DBRC20    GGSL
NJARET20030-22401-00760-00000002D0000070D0000000000RD60P     GGSL
NJARET20030-22401-10087-50000016D0000125D0001000010EAR20TMC  GGSL
NJARET20030-23075-02361-30000018D0000107D0000000000P36S      GGSL
NJARET20030-23075-02362-00000016D0000079D0000000000FT36HFB   GGSL
NJARET20030-23075-05032-90000048D0000107D0000000000FS32      GGSL
NJARET20030-23865-08808-20000036D0000160D00007000008808      GGSL
NJARET20030-23865-09904-00000045D0000339D00024000029904      GGSL
NJARET20030-23865-09908-80000024D0000301D00016000019908      GGSL
NJARET20030-23865-09910-10000012D0000188D00059000009910      GGSL
NJARET20030-23865-09912-50000008D0000122D000110001009912     GGSL
NJARET20030-23865-09915-60000005D0000106D000220000509915     GGSL
NJARET20030-23865-09983-50000048D0000143D00039000019983      GGSL
NJARET20030-23865-09987-30000008D0000059D00260000859987      GGSL
NJARET20030-23883-01105-50000012D0000039D00000000001105      GGSL
NJARET20030-23883-04700-90000018D0000546D00007000004700      GGSL
NJARET20030-23883-10030-80000006D0000062D000000000010030     GGSL
NJARET20030-23883-16100-20000238D0002239D000540000216100     GGSL
NJARET20030-23883-16200-90000027D0000488D000230000116200     GGSL
NJARET20030-23883-20003-90000001D0000027D000060000020003     GGSL
NJARET20030-23883-20010-70000005D0000083D000480000020010     GGSL
NJARET20030-23883-20020-60000002D0000045D000300000020020     GGSL
NJARET20030-23883-21210-00000006D0000350D000000000021210XP   GGSL
NJARET20030-23883-21220-90000006D0000415D000000000021220XP   GGSL
NJARET20030-23883-61800-10000020D0001165D000250000061800     GGSL
NJARET20030-23883-63800-90000001D0000091D000000000063800     GGSL
NJARET20030-23883-81000-90000004D0000343D000070000281000A    GGSL
NJARET20030-24114-20430-70000075D0000479D0003300000204309    GGSL
NJARET20030-24114-20450-50000025D0000160D0001100000204509    GGSL
NJARET20030-24114-20480-20000075D0000479D0002700000204809    GGSL
NJARET20030-24114-21823-60000050D0000556D0000400000218273    GGSL
NJARET20030-24114-70102-80000200D0000368D0007600000701002    GGSL
NJARET20030-24114-70402-90000175D0000438D0004300000704002    GGSL
NJARET20030-24114-70609-20000150D0000654D0002100000706009    GGSL
NJARET20030-24114-70807-30000175D0000695D0003200001708073    GGSL
NJARET20030-24114-71079-20000100D0000719D0002100000710079    GGSL
NJARET20030-24114-71609-10000075D0000458D0001800000716009    GGSL
NJARET20030-24114-71642-80000400D0007072D0002300000701642    GGSL
NJARET20030-24114-71673-20000225D0001469D0002200000716073    GGSL
NJARET20030-24114-71863-70000025D0000278D0000400000718673    GGSL
NJARET20030-24114-74009-60000100D0000484D0003400001704009    GGSL
NJARET20030-24114-74164-20000030D0000350D0000700000741642    GGSL
NJARET20030-24114-74185-70000060D0000840D0000400000741854    GGSL
NJARET20030-24114-74206-90000025D0000016D0000000000742006A   GGSL
NJARET20030-24114-74509-10000100D0000639D0002000001704509    GGSL
NJARET20030-24114-74712-50000100D0000081D0001100000742012A   GGSL
NJARET20030-24114-74712-50000025D0000082D0000000000742712    GGSL
NJARET20030-24114-74718-70000175D0000168D0001000000742018A   GGSL
NJARET20030-24114-74809-20000075D0000479D0002300000704809    GGSL
NJARET20030-24114-74929-70000175D0001118D0001000000704929    GGSL
NJARET20030-24114-75042-20000075D0000540D0000300000750642PC  GGSL
NJARET20030-24114-75161-00000060D0000436D0000500000750161    GGSL
NJARET20030-24114-77777-10000048D0000170D0000000000777777    GGSL
NJARET20030-24114-77809-90000012D0000048D0000000000778009    GGSL
NJARET20030-24114-78341-30000125D0000245D000010000083410     GGSL
NJARET20030-24114-78345-10000048D0000258D000010000083450     GGSL
NJARET20030-24114-98010-20000010D0000054D0000500000980100    GGSL
NJARET20030-24654-01065-90000020D0000938D00000000005118GAL   GGSL
NJARET20030-24654-05102-70000066D0000358D000260000351026     GGSL
NJARET20030-24654-05922-10000078D0000972D00014000005926      GGSL
NJARET20030-24654-05922-10000001D0000262D00003000005926DS    GGSL
NJARET20030-24654-05931-30000006D0000089D00003000005935      GGSL
NJARET20030-24654-05962-70000036D0000435D00039000005962      GGSL
NJARET20030-24654-05962-70000017D0003193D00029000015962DS    GGSL
NJARET20030-24654-05981-80000048D0000492D00011000005981      GGSL
NJARET20030-24654-05981-80000003D0000710D00000000005981DS    GGSL
NJARET20030-24654-09334-80000101D0002882D00225000009334      GGSL
NJARET20030-24654-30506-90000018D0000081D000110000030506     GGSL
NJARET20030-24654-51806-30000006D0000035D000190000151806     GGSL
NJARET20030-24654-55110-70000144D0000782D001100000451106     GGSL
NJARET20030-24654-55118-30000030D0000234D000060000051186     GGSL
NJARET20030-24654-55325-50000018D0000098D000010000053256     GGSL
NJARET20030-24654-55450-40000066D0000358D000200000154506     GGSL
NJARET20030-24654-65324-50000018D0000212D000140000053246A    GGSL
NJARET20030-24654-65452-50000042D0000228D000680000054526     GGSL
NJARET20030-25033-01703-00000018D0000200D000150000001703     GGSL
NJARET20030-25033-01713-90000018D0000229D000200000001713     GGSL
NJARET20030-25033-01717-70000030D0000504D000120000001717     GGSL
NJARET20030-25033-01723-80000016D0000373D000170000001723     GGSL
NJARET20030-25033-01727-60000004D0000130D000040000001727     GGSL
NJARET20030-25033-02019-10000052D0002826D000110000002019     GGSL
NJARET20030-25033-02145-70000012D0000191D000030000002145     GGSL
NJARET20030-25033-02213-30000002D0000179D000030000002213     GGSL
NJARET20030-25033-02215-70000002D0000204D000090000002215X    GGSL
NJARET20030-25033-02217-10000004D0000477D000070000002217     GGSL
NJARET20030-25033-02399-40000024D0000112D000000000002399     GGSL
NJARET20030-25033-02501-10000020D0000193D000150000002501     GGSL
NJARET20030-25033-02510-30000008D0000089D000340000102510     GGSL
NJARET20030-25033-02519-60000020D0000608D000250000102519     GGSL
NJARET20030-25033-02520-20000004D0000084D000170000002520     GGSL
NJARET20030-25033-02521-90000008D0000190D000280000002521     GGSL
NJARET20030-25033-02522-60000007D0000369D000650000202522     GGSL
NJARET20030-25033-02523-30000001D0000057D000510000002523     GGSL
NJARET20030-25033-02527-10000003D0000211D000390000202527     GGSL
NJARET20030-25033-02650-60000004D0000408D000180000002650     GGSL
NJARET20030-25033-02660-50000001D0000148D000870000002660     GGSL
NJARET20030-25033-02670-40000006D0001492D000120000102670     GGSL
NJARET20030-25033-02675-90000003D0000697D000120000002675     GGSL
NJARET20030-25033-02680-30000001D0000208D000110000202680     GGSL
NJARET20030-25033-02720-60000007D0000641D000440000002720     GGSL
NJARET20030-25033-02722-00000001D0000105D000140000002722     GGSL
NJARET20030-25033-02910-10000002D0000266D000030000002910     GGSL
NJARET20030-25033-02920-00000070D0009731D000000000002920     GGSL
NJARET20030-25033-02940-80000070D0011382D000000000002940     GGSL
NJARET20030-25033-03800-40000052D0001188D000490000003800     GGSL
NJARET20030-25033-03801-10000046D0001000D000420000003801     GGSL
NJARET20030-25033-03802-80000064D0001361D000380000403802     GGSL
NJARET20030-25033-04560-60000010D0001289D000000000004560     GGSL
NJARET20030-25033-05040-20000001D0000274D000000000005040     GGSL
NJARET20030-25033-05625-10000004D0000992D000020000205625     GGSL
NJARET20030-25033-05635-00000001D0000378D000050000005635     GGSL
NJARET20030-25033-12195-90000006D0000041D000110000012195     GGSL
NJARET20030-25033-12201-70000030D0000250D000040000012201     GGSL
NJARET20030-25033-12202-40000012D0000095D000160000012202     GGSL
NJARET20030-25033-12203-10000006D0000021D000090000012203     GGSL
NJARET20030-25033-12204-80000012D0000066D000280000012204     GGSL
NJARET20030-25033-12205-50000012D0000109D000050000012205     GGSL
NJARET20030-25033-12285-70000060D0000467D000220000012285     GGSL
NJARET20030-25033-12305-20000048D0000816D000000000012305     GGSL
NJARET20030-25033-12403-50000001D0000127D000010000012403     GGSL
NJARET20030-25033-12410-30000001D0000155D000050000012410     GGSL
NJARET20030-25033-12412-70000002D0000193D000050000212412     GGSL
NJARET20030-25033-12505-60000006D0000033D000070000012505     GGSL
NJARET20030-25033-12535-30000018D0000055D000000000012535     GGSL
NJARET20030-25033-12730-20000588D0005108D000210001612730     GGSL
NJARET20030-25033-12785-20000006D0000015D000010000112785     GGSL
NJARET20030-25033-12971-90000002D0000084D000110000012971     GGSL
NJARET20030-25033-12974-00000001D0000059D000160000012974     GGSL
NJARET20030-25033-12981-80000040D0000540D000010000112981     GGSL
NJARET20030-25033-15625-80000008D0000208D000020000015625     GGSL
NJARET20030-25531-01234-60000023D0000776D000290000075160     GGSL
NJARET20030-25545-21619-80000006D0000099D0017000014 21619    GGSL
NJARET20030-25626-13405-20000003D0000124D0000000000801968    GGSL
NJARET20030-25845-12321-90000018D0000045D00000000005521      GGSL
NJARET20030-25845-12346-20000024D0000039D00000000005585      GGSL
NJARET20030-25845-12366-00000036D0000294D00005000045566      GGSL
NJARET20030-25849-00110-00000050D0000370D00000000000110P     GGSL
NJARET20030-25849-00205-30000035D0000663D00007000010205RG    GGSL
NJARET20030-25849-00205-30000033D0000625D00015000000205RGX   GGSL
NJARET20030-25849-00280-00000200D0001064D00000000000280P     GGSL
NJARET20030-25849-00305-00000140D0002075D00004000000305RG    GGSL
NJARET20030-25849-00305-00000003D0000055D00072000000305RGX   GGSL
NJARET20030-25849-10281-40000171D0002355D000010000010281RG   GGSL
NJARET20030-25849-10381-10000510D0014836D000000000010381RG   GGSL
NJARET20030-25849-10381-10000013D0000378D000000000010381RGX  GGSL
NJARET20030-25849-10720-80000005D0000044D00193000001020020RGXGGSL
NJARET20030-25849-10910-30000060D0000256D00015000021008010RGXGGSL
NJARET20030-25849-11010-90000030D0000170D00012000001016010RGXGGSL
NJARET20030-25849-11051-20000012D0000063D00035000061016051RGXGGSL
NJARET20030-25849-11110-60000120D0000762D00006000021010010RG GGSL
NJARET20030-25849-11110-60000205D0001302D00573000001010010RGXGGSL
NJARET20030-25849-11151-90000240D0001524D00005000011010051RG GGSL
NJARET20030-25849-11151-90000080D0000508D00269000051010051RGXGGSL
NJARET20030-25849-11330-80000100D0001261D00003000001020030RG GGSL
NJARET20030-25849-11330-80000004D0000067D00099000501020030RGXGGSL
NJARET20030-25849-20381-80000090D0002676D000000000020381RG   GGSL
NJARET20030-25849-20381-80000035D0001041D000010000020381RGX  GGSL
NJARET20030-25849-22810-10000060D0000344D00003000002260010RG GGSL
NJARET20030-25849-22816-30000160D0000357D00000000002260161RGXGGSL
NJARET20030-25849-22821-70000240D0000442D00060000602260021R6XGGSL
NJARET20030-25881-08502-10000004D0000064D0000800000 085024   GGSL
NJARET20030-25881-08503-80000005D0000102D0002900000 08503COMPGGSL
NJARET20030-25881-08504-50000001D0000023D0000600000 085044   GGSL
NJARET20030-25881-09985-10000003D0000072D0001900000 09985    GGSL
NJARET20030-25881-10702-00000008D0000099D0000000000 107024   GGSL
NJARET20030-25881-10703-70000014D0000215D0000400000 107034   GGSL
NJARET20030-25881-10712-90000006D0000093D0001400002 10712    GGSL
NJARET20030-26175-86100-00000036D0000161D0004300000861       GGSL
NJARET20030-26432-20125-90000072D0000779D0002100000HHBS125   GGSL
NJARET20030-26432-24016-60000011D0000943D0003700000SB4000PRCGGGSL
NJARET20030-26600-89334-70000080D0000162D006790001489334     GGSL
NJARET20030-26978-02181-60000230D0001069D000210000202181     GGSL
NJARET20030-26978-02182-30000110D0000537D000360000002182     GGSL
NJARET20030-26978-02188-50000040D0000155D000350000002188     GGSL
NJARET20030-26978-02241-70000180D0000963D000260000302241     GGSL
NJARET20030-26978-02242-40000130D0000696D000390000202242     GGSL
NJARET20030-26978-02248-60000100D0000407D000460000002248     GGSL
NJARET20030-26978-02301-80000200D0001420D000170000102301     GGSL
NJARET20030-26978-02302-50000150D0001065D000300000102302     GGSL
NJARET20030-26978-02308-70000020D0000113D000420000002308     GGSL
NJARET20030-26978-02361-20000120D0001079D000250000202361     GGSL
NJARET20030-26978-02362-90000080D0000719D000300000202362     GGSL
NJARET20030-26978-02368-10000010D0000068D000420000002368     GGSL
NJARET20030-26978-03060-30000010D0000040D000070000003060     GGSL
NJARET20030-26978-03062-70000060D0000239D000120000003062     GGSL
NJARET20030-26978-03068-90000070D0000279D000040000003068     GGSL
NJARET20030-26978-03082-50000030D0000222D000060000003082     GGSL
NJARET20030-26978-03088-70000040D0000296D000030000003088     GGSL
NJARET20030-26978-03102-00000020D0000246D00008000000310205   GGSL
NJARET20030-26978-03108-20000050D0000599D00002000020310805   GGSL
NJARET20030-26978-03122-80000025D0000430D00011000010312205   GGSL
NJARET20030-26978-03128-00000035D0000573D00000000000312805   GGSL
NJARET20030-26978-05041-00000180D0000289D000250000005041     GGSL
NJARET20030-26978-05071-70000036D0000042D000300000005071     GGSL
NJARET20030-26978-05081-60000072D0000092D000190000005081     GGSL
NJARET20030-26978-05121-90000036D0000051D000000000005121     GGSL
NJARET20030-26978-08060-80000030D0000120D000100000008060     GGSL
NJARET20030-26978-08062-20000030D0000120D000080000008062     GGSL
NJARET20030-26978-08080-60000030D0000222D000120000008080     GGSL
NJARET20030-26978-08082-00000020D0000148D000160000008082     GGSL
NJARET20030-26978-08100-10000020D0000255D00010000000810005   GGSL
NJARET20030-26978-08102-50000005D0000056D00000000000810205   GGSL
NJARET20030-26978-08120-90000010D0000172D00013000000812005   GGSL
NJARET20030-26978-08122-30000010D0000172D00009000000812205   GGSL
NJARET20030-26978-08178-00000005D0000073D000030000008178     GGSL
NJARET20030-26978-10010-80000126D0000457D000140000410010     GGSL
NJARET20030-26978-10012-20000138D0000501D000160000410012     GGSL
NJARET20030-26978-10013-90000120D0000436D000150000410013     GGSL
NJARET20030-26978-10062-70000190D0000504D000270000010062     GGSL
NJARET20030-26978-10068-90000190D0000504D000260000010068     GGSL
NJARET20030-26978-10082-50000170D0000584D000160000010082     GGSL
NJARET20030-26978-10088-70000160D0000567D000100000110088     GGSL
NJARET20030-26978-10102-00000115D0000606D000540000010102     GGSL
NJARET20030-26978-10108-20000065D0000334D000400000010108     GGSL
NJARET20030-26978-10122-80000090D0000689D000340000010122     GGSL
NJARET20030-26978-10128-00000090D0000701D000450000010128     GGSL
NJARET20030-26978-10142-60000095D0000927D000230000010142     GGSL
NJARET20030-26978-10148-50000070D0000683D000280000010148     GGSL
NJARET20030-26978-10180-80000090D0000289D000140000010180     GGSL
NJARET20030-26978-10182-20000050D0000161D000180000010182     GGSL
NJARET20030-26978-10183-90000020D0000064D000170000010183     GGSL
NJARET20030-26978-10185-30000090D0000289D000310000010185     GGSL
NJARET20030-26978-10240-90000080D0000282D000280000010240     GGSL
NJARET20030-26978-10242-30000200D0000630D000410000010242     GGSL
NJARET20030-26978-10243-00000010D0000035D000200000010243     GGSL
NJARET20030-26978-10245-40000060D0000212D000320000010245     GGSL
NJARET20030-26978-10300-00000020D0000089D000250000010300     GGSL
NJARET20030-26978-10302-40000040D0000178D000310000010302     GGSL
NJARET20030-26978-10303-10000040D0000169D000140000010303     GGSL
NJARET20030-26978-10305-50000020D0000089D000170000010305     GGSL
NJARET20030-26978-10360-40000030D0000167D000160000010360     GGSL
NJARET20030-26978-10362-80000030D0000167D000250000010362     GGSL
NJARET20030-26978-10363-50000010D0000056D000110000010363     GGSL
NJARET20030-26978-10365-90000010D0000056D000120000010365     GGSL
NJARET20030-26978-16190-10000320D0001398D000460000216190     GGSL
NJARET20030-26978-16192-50000480D0002082D000430000416192     GGSL
NJARET20030-26978-16193-20000150D0000656D000400000016193     GGSL
NJARET20030-26978-16195-60000490D0002054D000310000616195     GGSL
NJARET20030-26978-16240-30000320D0001731D000300000116240     GGSL
NJARET20030-26978-16242-70000750D0004032D000600000416242     GGSL
NJARET20030-26978-16243-40000140D0000757D000510000216243     GGSL
NJARET20030-26978-16245-80000360D0001948D000520000716245     GGSL
NJARET20030-26978-16300-40000220D0001500D000530000116300     GGSL
NJARET20030-26978-16302-80000390D0002599D000040000316302     GGSL
NJARET20030-26978-16303-50000100D0000682D000510000216303     GGSL
NJARET20030-26978-16305-90000200D0001364D000470000716305     GGSL
NJARET20030-26978-16360-80000100D0001027D000540000016360     GGSL
NJARET20030-26978-16362-20000350D0003567D000260000116362     GGSL
NJARET20030-26978-16363-90000030D0000306D000300000016363     GGSL
NJARET20030-26978-16365-30000100D0001019D000290000016365     GGSL
NJARET20030-26978-26140-30000050D0000450D000220000026140     GGSL
NJARET20030-26978-26142-70000190D0001457D000510000226142     GGSL
NJARET20030-26978-26143-40000010D0000090D000190000026143     GGSL
NJARET20030-26978-26145-80000090D0000810D000170000026145     GGSL
NJARET20030-26978-26160-10000040D0000383D000000000026160     GGSL
NJARET20030-26978-26162-50000056D0000536D000030000226162     GGSL
NJARET20030-26978-26163-20000036D0000345D000000000026163     GGSL
NJARET20030-26978-26165-60000056D0000536D000020000026165     GGSL
NJARET20030-26978-26180-90000130D0001810D000080000126180     GGSL
NJARET20030-26978-26182-30000100D0001441D000270000326182     GGSL
NJARET20030-26978-26183-00000020D0000288D000130000026183     GGSL
NJARET20030-26978-26185-40000060D0000865D000220000026185     GGSL
NJARET20030-26978-26240-00000092D0001034D000010000026240     GGSL
NJARET20030-26978-26242-40000112D0001259D000120000526242     GGSL
NJARET20030-26978-26243-10000080D0000899D000000000026243     GGSL
NJARET20030-26978-26245-50000096D0001079D000040000026245     GGSL
NJARET20030-26978-26270-70000080D0000922D000200000126270     GGSL
NJARET20030-26978-26272-10000050D0000577D000340000026272     GGSL
NJARET20030-26978-26273-80000040D0000461D000160000026273     GGSL
NJARET20030-26978-26275-20000080D0000922D000330000126275     GGSL
NJARET20030-26978-29006-90000005D0000096D000000000029006     GGSL
NJARET20030-26978-29223-00000009D0000289D000040000029223     GGSL
NJARET20030-26978-29505-70000035D0000404D000250000029505     GGSL
NJARET20030-26978-29608-50000003D0000043D000010000029608     GGSL
NJARET20030-26978-30200-70000084D0000844D000120000030200     GGSL
NJARET20030-26978-30301-10001032D0005872D001010000330301     GGSL
NJARET20030-26978-30301-10000192D0000968D00005000013030196   GGSL
NJARET20030-26978-30312-70000048D0000048D000230000030312     GGSL
NJARET20030-26978-30402-50000252D0001381D000370000230402     GGSL
NJARET20030-26978-30409-40000120D0000658D000090000030409     GGSL
NJARET20030-26978-30411-70000192D0001127D000240000330411     GGSL
NJARET20030-26978-30413-10000084D0000493D000080000330413     GGSL
NJARET20030-26978-30413-10001920D0007213D00026000003041396   GGSL
NJARET20030-26978-30500-80000140D0000693D000560000730500     GGSL
NJARET20030-26978-30602-90000102D0000403D000220000130602     GGSL
NJARET20030-26978-30605-00006366D0019568D001510005130605     GGSL
NJARET20030-26978-30702-60000090D0000348D000580000130702     GGSL
NJARET20030-26978-30705-70000060D0000232D000370000130705     GGSL
NJARET20030-26978-30809-20000030D0000126D000050000430809     GGSL
NJARET20030-26978-30901-30000130D0000643D000400000030901     GGSL
NJARET20030-26978-30909-90000070D0000347D000340000230909     GGSL
NJARET20030-26978-31100-90000125D0000704D000140000631100     GGSL
NJARET20030-26978-31101-60000080D0000450D000150000031101     GGSL
NJARET20030-26978-31108-50000075D0000404D000250000031108     GGSL
NJARET20030-26978-31109-20000020D0000113D000050000031109     GGSL
NJARET20030-26978-31120-70000045D0000528D000150000331120     GGSL
NJARET20030-26978-31121-40000010D0000117D000220000031121     GGSL
NJARET20030-26978-31128-30000080D0000939D000360000231128     GGSL
NJARET20030-26978-31129-00000030D0000352D000160000131129     GGSL
NJARET20030-26978-32108-40000080D0000578D000100000032108     GGSL
NJARET20030-26978-32109-10000040D0000289D000130000032109     GGSL
NJARET20030-26978-32121-30000005D0000064D000010000032120     GGSL
NJARET20030-26978-32128-20000020D0000255D000130000032128     GGSL
NJARET20030-26978-32129-90000030D0000383D000100000032129     GGSL
NJARET20030-26978-34061-00000090D0000359D000220000034061     GGSL
NJARET20030-26978-34063-40000070D0000279D000210000034063     GGSL
NJARET20030-26978-34068-90000040D0000160D000050000034068     GGSL
NJARET20030-26978-34081-80000100D0000705D000190000034081     GGSL
NJARET20030-26978-34083-20000070D0000494D000050000034083     GGSL
NJARET20030-26978-34088-70000070D0000494D000210000034088     GGSL
NJARET20030-26978-34101-30000035D0000411D000060000034101     GGSL
NJARET20030-26978-34103-70000010D0000117D000090000034103     GGSL
NJARET20030-26978-34108-20000010D0000117D000020000034108     GGSL
NJARET20030-26978-34121-10000020D0000327D000240000034121     GGSL
NJARET20030-26978-34123-50000020D0000327D000070000034123     GGSL
NJARET20030-26978-34128-00000025D0000409D000090000034128     GGSL
NJARET20030-26978-34141-10000009D0000246D000190000134141     GGSL
NJARET20030-26978-34143-50000012D0000327D000110000034143     GGSL
NJARET20030-26978-34148-00000012D0000327D000210000034148     GGSL
NJARET20030-26978-35060-20000190D0000758D000270000135060     GGSL
NJARET20030-26978-35061-90000080D0000319D000190000035061     GGSL
NJARET20030-26978-35066-40000110D0000439D000240000035066     GGSL
NJARET20030-26978-35068-80000200D0000798D000110000135068     GGSL
NJARET20030-26978-35069-50000060D0000239D000230000035069     GGSL
NJARET20030-26978-35080-00000160D0001184D000310000035080     GGSL
NJARET20030-26978-35081-70000040D0000296D000150000035081     GGSL
NJARET20030-26978-35086-20000070D0000518D000180000035086     GGSL
NJARET20030-26978-35087-90000010D0000063D000010000035087     GGSL
NJARET20030-26978-35088-60000090D0000643D000330000535088     GGSL
NJARET20030-26978-35089-30000040D0000296D000200000035089     GGSL
NJARET20030-26978-35100-50000015D0000215D000310000035100     GGSL
NJARET20030-26978-35101-20000015D0000215D000030000035101     GGSL
NJARET20030-26978-35106-70000045D0000645D000180000035106     GGSL
NJARET20030-26978-35108-10000055D0000789D000430000335108     GGSL
NJARET20030-26978-35109-80000025D0000359D000130000035109     GGSL
NJARET20030-26978-35120-30000055D0001121D000230000035120     GGSL
NJARET20030-26978-35121-00000020D0000408D000180000035121     GGSL
NJARET20030-26978-35126-50000020D0000408D000220000035126     GGSL
NJARET20030-26978-35128-90000070D0001396D000300000135128     GGSL
NJARET20030-26978-35129-60000025D0000510D000180000035129     GGSL
NJARET20030-26978-35130-20000005D0000080D000000000035130     GGSL
NJARET20030-26978-35138-80000005D0000077D000110000035138     GGSL
NJARET20030-26978-35148-70000035D0001034D000220000035148     GGSL
NJARET20030-26978-35149-40000020D0000591D000160000035149     GGSL
NJARET20030-26978-35153-10000035D0000513D000030000035153     GGSL
NJARET20030-26978-35168-50000030D0001171D000180000035168     GGSL
NJARET20030-26978-35169-20000025D0000976D000120000035169     GGSL
NJARET20030-26978-35188-30000008D0000569D000060000235188     GGSL
NJARET20030-26978-35189-00000002D0000153D000160000035189     GGSL
NJARET20030-26978-35190-60000010D0000320D000030000235190     GGSL
NJARET20030-26978-35198-20000034D0001086D000150000135198     GGSL
NJARET20030-26978-35199-90000014D0000447D000060000135199     GGSL
NJARET20030-26978-35208-80000002D0000060D000010000035208     GGSL
NJARET20030-26978-35270-50000026D0001978D000020000135270     GGSL
NJARET20030-26978-35278-10000030D0002283D000080000135278     GGSL
NJARET20030-26978-35279-80000014D0001065D000060000135279     GGSL
NJARET20030-26978-35350-40000004D0000634D00000000003535001   GGSL
NJARET20030-26978-35358-00000004D0000634D00036000023535801   GGSL
NJARET20030-26978-36100-40000005D0000053D000080000036100     GGSL
NJARET20030-26978-36108-00000015D0000159D000090000036108     GGSL
NJARET20030-26978-36120-20000025D0000368D000110000036120     GGSL
NJARET20030-26978-36128-80000005D0000074D000100000036128     GGSL
NJARET20030-26978-36140-00000020D0000252D000290000036140     GGSL
NJARET20030-26978-36148-60000040D0000504D000170000036148     GGSL
NJARET20030-26978-36220-90000005D0000110D000300000036220     GGSL
NJARET20030-26978-36228-50000045D0000992D000320000036228     GGSL
NJARET20030-26978-36290-20000005D0000154D000120000036290     GGSL
NJARET20030-26978-36298-80000020D0000617D000090000036298     GGSL
NJARET20030-26978-38142-20000024D0000126D000390000338142     GGSL
NJARET20030-26978-38146-00000168D0000877D000260000138146     GGSL
NJARET20030-26978-38148-40000024D0000126D000020000038148     GGSL
NJARET20030-26978-38192-70000204D0002448D000260000138192     GGSL
NJARET20030-26978-38196-50000120D0001391D000330000038196     GGSL
NJARET20030-26978-38198-90000414D0004968D000840001138198     GGSL
NJARET20030-26978-39122-30000048D0000190D000290000139122     GGSL
NJARET20030-26978-39126-10000264D0001045D000310000239126     GGSL
NJARET20030-26978-39128-50000324D0001283D000350000639128     GGSL
NJARET20030-26978-39182-70000102D0001043D000540001239182     GGSL
NJARET20030-26978-39186-50000060D0000614D000300000239186     GGSL
NJARET20030-26978-39188-90000222D0002271D000930000739188     GGSL
NJARET20030-26978-48098-30000024D0000107D000270000048098     GGSL
NJARET20030-26978-48128-00000024D0000148D000250000048128     GGSL
NJARET20030-26978-48158-00000078D0000636D000100000048158     GGSL
NJARET20030-26978-63060-50000010D0000037D000160000063060     GGSL
NJARET20030-26978-63065-00000010D0000037D000110000063065     GGSL
NJARET20030-26978-63066-70000010D0000037D000140000063066     GGSL
NJARET20030-26978-63069-80000010D0000037D000190000063069     GGSL
NJARET20030-26978-63070-40000010D0000061D000190000063070     GGSL
NJARET20030-26978-63075-90000010D0000061D000100000063075     GGSL
NJARET20030-26978-63076-60000010D0000061D000100000063076     GGSL
NJARET20030-26978-63079-70000020D0000122D000180000063079     GGSL
NJARET20030-26978-63090-20000005D0000063D000100000063090     GGSL
NJARET20030-26978-63095-70000005D0000063D000080000063095     GGSL
NJARET20030-26978-63096-40000005D0000063D000090000063096     GGSL
NJARET20030-26978-63099-50000010D0000125D000140000063099     GGSL
NJARET20030-26978-80101-20000008D0000294D000120000080101     GGSL
NJARET20030-26978-80101-20000008D0000307D00001000018010104   GGSL
NJARET20030-26978-80103-60000004D0000147D000010000080103     GGSL
NJARET20030-26978-80105-00000112D0004113D000000000080105     GGSL
NJARET20030-26978-80105-00000008D0000307D00002000028010504   GGSL
NJARET20030-26978-80107-40000060D0001696D00050000438010712   GGSL
NJARET20030-26978-80151-70000044D0001674D000230002080151     GGSL
NJARET20030-26978-80151-70000008D0000315D00001000008015104   GGSL
NJARET20030-26978-80155-50000100D0003805D000110000080155     GGSL
NJARET20030-26978-80155-50000016D0000629D00000000008015504   GGSL
NJARET20030-26978-80655-00000006D0000108D000030000080655     GGSL
NJARET20030-26978-80658-10000006D0000108D000030000080658     GGSL
NJARET20030-26978-81011-30000004D0000102D000300000081011     GGSL
NJARET20030-26978-81015-10000028D0000715D000540000081015     GGSL
NJARET20030-26978-81075-50000024D0000085D000120000081075     GGSL
NJARET20030-26978-81075-50000006D0000022D000000000081075PC   GGSL
NJARET20030-26978-81100-40000120D0000976D000230000281100     GGSL
NJARET20030-26978-81101-10000276D0002476D000110000181101     GGSL
NJARET20030-26978-81121-90000132D0000493D000060000081121     GGSL
NJARET20030-26978-81201-80000006D0000269D000170000081201     GGSL
NJARET20030-26978-81751-80000008D0000238D000130000181751     GGSL
NJARET20030-26978-81755-60000012D0000356D000140000181755     GGSL
NJARET20030-27452-06200-40000004D0000080D00015000006200      GGSL
NJARET20030-27652-80203-50000012D0000346D0000000000LG400151GDGGSL
NJARET20030-27652-80204-20000001D0000054D0002800000LG400161  GGSL
NJARET20030-27652-80205-90000009D0000618D0002500000LG400171  GGSL
NJARET20030-27652-80205-90000015D0000762D0001600000LG400171GDGGSL
NJARET20030-27652-80205-90000010D0000686D0000000000LG40017110GGSL
NJARET20030-27856-10001-20008580D0025038D0024900072P10232    GGSL
NJARET20030-27856-10002-90012900D0067294D0039200379P10264    GGSL
NJARET20030-27856-10008-10004228D0056647D0037300229P101      GGSL
NJARET20030-27856-10009-80002343D0021004D0024900200P128      GGSL
NJARET20030-27997-00229-90000018D0000427D0001100000TE        GGSL
NJARET20030-27997-01017-10000009D0001546D0001900000 M6T22    GGSL
NJARET20030-27997-01041-60000003D0000494D0000400000 M11T22   GGSL
NJARET20030-28009-11440-50000065D0000330D0000000000T1440     GGSL
NJARET20030-28929-02781-60000002D0000120D00102000032781SPC   GGSL
NJARET20030-28929-02937-70000002D0000164D00168000002937DL    GGSL
NJARET20030-28929-04750-00000001D0000120D00023000004750BR    GGSL
NJARET20030-28929-04902-30000002D0000084D00079000004902C     GGSL
NJARET20030-28929-27840-90000006D0000361D00116000012784SPC   GGSL
NJARET20030-28929-27850-80000001D0000054D00129000002785SPC   GGSL
NJARET20030-28929-34780-80000001D0000082D00076000004780BRC   GGSL
NJARET20030-28929-67114-90000017D0003715D006930000367104914SPGGSL
NJARET20030-28929-92181-70000001D0000276D00193000012790192181GGSL
NJARET20030-29925-13194-10000007D0000465D000010000113194     GGSL
NJARET20030-29925-60009-60000008D0000183D000080000060000     GGSL
NJARET20030-29925-60151-20000021D0000284D000030000060151     GGSL
NJARET20030-29925-60152-90000022D0000341D000270000060152     GGSL
NJARET20030-29925-70153-30000002D0000049D000090000070153     GGSL
NJARET20030-29925-70161-80000013D0000208D000030000070151     GGSL
NJARET20030-29925-70162-50000008D0000158D000020000070152     GGSL
NJARET20030-29925-80063-20000002D0000056D000000000080163     GGSL
NJARET20030-29925-80101-10000002D0000037D000060000080161     GGSL
NJARET20030-29925-80102-80000002D0000045D000130000080162     GGSL
NJARET20030-29973-12316-50000560D0002850D000020000014116021P GGSL
NJARET20030-29973-12333-20000904D0003006D000030000314110028P GGSL
NJARET20030-29973-12341-70000527D0002472D0001600016141100216UGGSL
NJARET20030-29973-12349-30000504D0002094D000410001714901028P GGSL
NJARET20030-29973-12456-80000352D0001450D000250000014902028P GGSL
NJARET20030-30541-00066-50000024D0000060D0000000000JCDTP03   GGSL
NJARET20030-30541-00301-70000005D0000957D0000000000JCD30BKSM GGSL
NJARET20030-30541-00401-40000001D0000227D0000000000JCD40BKSM GGSL
NJARET20030-30541-00801-20000002D0000101D0001600000JCD08BKSM GGSL
NJARET20030-30541-01010-70000012D0000023D0000000000JCD012SMP GGSL
NJARET20030-30541-01020-60000240D0000545D0005200001JCD024SM  GGSL
NJARET20030-30541-01020-60000180D0000323D0000000000JCD060SM  GGSL
NJARET20030-30541-01030-50000066D0000554D0009600000JCD100SMJ GGSL
NJARET20030-30541-01034-30000018D0000377D0004500000JCD030SM  GGSL
NJARET20030-30541-01039-80000180D0000895D0002900000JCD05SM   GGSL
NJARET20030-30541-01085-50000012D0000060D0000200000JCD05SMP  GGSL
NJARET20030-30541-07006-40000002D0000735D0000100000JCDRACKA  GGSL
NJARET20030-30541-08879-30000060D0000179D0001100000SMVS      GGSL
NJARET20030-30541-09981-20000050D0000093D0000600000JCDTPG    GGSL
NJARET20030-30541-09982-90000072D0000176D0000000000JCDTPP03  GGSL
NJARET20030-30541-09983-60000100D0000191D0000000000JCDTPP    GGSL
NJARET20030-31340-10005-10000096D0001757D0002100002B550120   GGSL
NJARET20030-31340-10006-80000372D0004181D0011600011B550125   GGSL
NJARET20030-31340-10007-50000078D0002515D0001200000B550130   GGSL
NJARET20030-31340-10017-40000112D0002037D0001500004B550190   GGSL
NJARET20030-31365-05040-90000013D0000076D0001200000 41718    GGSL
NJARET20030-31365-10600-70000012D0000226D0013700004 42808    GGSL
NJARET20030-31365-12205-20000009D0000223D0000000000 49454    GGSL
NJARET20030-31417-00043-70000136D0000721D000280000380201105  GGSL
NJARET20030-31417-00046-80000010D0000110D000900000080201121X GGSL
NJARET20030-31417-00048-20000016D0000110D000000000080551105  GGSL
NJARET20030-31417-00049-90000020D0000124D000380000080110021X GGSL
NJARET20030-31417-00055-00000198D0004950D000030000480601131  GGSL
NJARET20030-31417-00055-00000178D0004450D000160000480601131X GGSL
NJARET20030-31417-00056-70000066D0001474D000000000080611131  GGSL
NJARET20030-31417-00056-70000024D0000536D000750000080611131X GGSL
NJARET20030-31417-00057-40000066D0001264D000000000080621131  GGSL
NJARET20030-31417-00058-10000004D0000089D001280000080631131X GGSL
NJARET20030-31417-00105-20000010D0000134D000010000180202020  GGSL
NJARET20030-31417-00107-60000010D0000054D000480000080202005  GGSL
NJARET20030-31724-08876-00000016D0000075D00009000008876      GGSL
NJARET20030-31724-10300-50000004D0000088D00003000001030100   GGSL
NJARET20030-31724-10302-90000020D0000187D0000800000103025    GGSL
NJARET20030-31724-10305-00000030D0000397D0003800000103050    GGSL
NJARET20030-31724-20302-60000010D0000095D0000000000203025    GGSL
NJARET20030-31724-20305-70000010D0000184D0000700001203050    GGSL
NJARET20030-31724-40006-70000016D0000109D000000000040006     GGSL
NJARET20030-31724-40011-10000016D0001001D00012000014001100   GGSL
NJARET20030-31724-40012-80000060D0001528D0000800001400125    GGSL
NJARET20030-31724-40015-90008250D0284290D0013200018400150    GGSL
NJARET20030-31724-40015-90000030D0001107D0006100000400150PDQ GGSL
NJARET20030-31724-43007-10000024D0001558D0000600000430075    GGSL
NJARET20030-31724-76125-00000070D0001472D0000000000761250    GGSL
NJARET20030-31724-81005-70000008D0000290D0001000000810050    GGSL
NJARET20030-31724-84005-40000015D0000185D0001000000840050    GGSL
NJARET20030-31724-85095-40000025D0000437D0001500000850950    GGSL
NJARET20030-31724-85097-80000003D0000078D0001300000850975    GGSL
NJARET20030-31724-85350-40000003D0000087D00002000008535100   GGSL
NJARET20030-31724-85355-90000025D0000389D0006400000853550    GGSL
NJARET20030-31724-85357-30000009D0000200D0000300000853575    GGSL
NJARET20030-31724-86122-60000005D0000143D0000100000861250    GGSL
NJARET20030-31724-86150-90000027D0001190D00045000008615100   GGSL
NJARET20030-31724-86152-30000035D0000513D0003900000861525    GGSL
NJARET20030-31724-86155-40000040D0000975D0003900000861550    GGSL
NJARET20030-31724-86155-40000112D0001743D000030000086155028  GGSL
NJARET20030-31724-86157-80000021D0000721D0002500000861575    GGSL
NJARET20030-31724-86420-30000021D0000988D00014000008642100   GGSL
NJARET20030-31724-86425-80000020D0000541D0001900000864250    GGSL
NJARET20030-31724-86427-20000006D0000219D0002200000864275    GGSL
NJARET20030-31724-86505-70000515D0016129D0002100020865050    GGSL
NJARET20030-31724-86955-00001250D0045407D0000100000869550    GGSL
NJARET20030-31724-88440-90000015D0000767D00004000008844100   GGSL
NJARET20030-31724-88445-40000015D0000415D0000500000884450    GGSL
NJARET20030-31724-88447-80000012D0000451D0001400001884475    GGSL
NJARET20030-31724-98440-60000009D0000600D00022000009844100   GGSL
NJARET20030-31724-98447-50000009D0000468D0002400000984475    GGSL
NJARET20030-31810-70424-60000004D0000029D0000300000704243    GGSL
NJARET20030-31810-86112-30000016D0000112D000130000086112     GGSL
NJARET20030-32247-00900-30000078D0000267D00083000001009001   GGSL
NJARET20030-32247-00910-20000024D0000081D00068000001009101   GGSL
NJARET20030-32247-00950-80000018D0000062D00062000001009501   GGSL
NJARET20030-32247-02515-70000138D0005630D00540000152515      GGSL
NJARET20030-32247-05514-70001140D0005665D000390000070551430  GGSL
NJARET20030-32247-05514-70000055D0000273D001250000070551430X GGSL
NJARET20030-32247-10500-20000072D0000688D0003600000110500    GGSL
NJARET20030-32247-14900-60000056D0000420D000330000014900     GGSL
NJARET20030-32247-14901-30000004D0000060D000260000014901     GGSL
NJARET20030-32247-14902-00000132D0001972D001390000514902     GGSL
NJARET20030-32247-14905-10000216D0001664D002490000314905     GGSL
NJARET20030-32247-17183-00000480D0004355D001440000217183     GGSL
NJARET20030-32247-17185-40000068D0001478D001520000217185     GGSL
NJARET20030-32247-17187-80000025D0001339D001030000017187     GGSL
NJARET20030-32247-17290-50000078D0000781D000830000217290     GGSL
NJARET20030-32247-17293-60000054D0000508D000460000017293     GGSL
NJARET20030-32247-17295-00000056D0001314D000540005317295     GGSL
NJARET20030-32247-17323-00000072D0000672D000200000217323     GGSL
NJARET20030-32247-17325-40000056D0001114D000230000217325     GGSL
NJARET20030-32247-17327-80000002D0000086D000480000017327     GGSL
NJARET20030-32247-17378-00000100D0003478D000000000017378     GGSL
NJARET20030-32247-17504-30000010D0000460D000490000017504     GGSL
NJARET20030-32247-17508-10000186D0002579D002460000017508     GGSL
NJARET20030-32247-17511-10000012D0000167D000320000017511     GGSL
NJARET20030-32247-17519-70000016D0000429D000060000017519     GGSL
NJARET20030-32247-17530-20000066D0000637D000420000017530     GGSL
NJARET20030-32247-17540-10000052D0001444D002090000017540     GGSL
NJARET20030-32247-18221-80000060D0001473D001600000218221     GGSL
NJARET20030-32247-18225-60000174D0002131D002080000218225     GGSL
NJARET20030-32247-18249-20000005D0000309D000780000018249     GGSL
NJARET20030-32247-18251-50000016D0000506D000210000218251     GGSL
NJARET20030-32247-18260-70000018D0000208D000130000018260     GGSL
NJARET20030-32247-18266-90000012D0000159D000290000218266     GGSL
NJARET20030-32247-18269-00000004D0000124D000190000218269     GGSL
NJARET20030-32247-18272-00000072D0000415D000250000018272     GGSL
NJARET20030-32247-18277-50000016D0000430D000150000018277     GGSL
NJARET20030-32247-18287-40000036D0000476D000100000018287     GGSL
NJARET20030-32247-18320-80000012D0000124D000150000018320     GGSL
NJARET20030-32247-18334-50000016D0001668D000350000018334     GGSL
NJARET20030-32247-18345-10000102D0001400D000350000018345     GGSL
NJARET20030-32247-18346-80000032D0000665D000260000218346     GGSL
NJARET20030-32247-18348-20000054D0000804D000570000118348     GGSL
NJARET20030-32247-18354-30000024D0000324D000180000018354     GGSL
NJARET20030-32247-18362-80000084D0003221D000060000018362     GGSL
NJARET20030-32247-20785-00000588D0002143D002550001072078430  GGSL
NJARET20030-32247-21605-00000234D0004768D005510001021605     GGSL
NJARET20030-32247-21701-90000120D0001044D000900000021701     GGSL
NJARET20030-32247-21814-60000066D0002963D002920000221814     GGSL
NJARET20030-32247-22305-80000027D0000480D006400000022305     GGSL
NJARET20030-32247-22315-70000053D0002162D001540000322315     GGSL
NJARET20030-32247-23200-50000091D0003373D002160000023200     GGSL
NJARET20030-32247-23201-20000064D0003607D001370000023201     GGSL
NJARET20030-32247-23616-40000198D0004572D012920003223616     GGSL
NJARET20030-32247-23622-50000155D0002616D010520012423622     GGSL
NJARET20030-32247-25006-10000025D0000625D003990000025006A    GGSL
NJARET20030-32247-25009-20000020D0001313D002610000025009     GGSL
NJARET20030-32247-26002-20000026D0001736D000290000026002A    GGSL
NJARET20030-32247-26003-90000020D0000554D001560001026003D    GGSL
NJARET20030-32247-26784-70000288D0001128D000790000172678430  GGSL
NJARET20030-32247-27764-80000176D0000847D000380002072776430  GGSL
NJARET20030-32247-30156-50000048D0000820D001660000330156     GGSL
NJARET20030-32247-30158-90000015D0000641D000310001430158     GGSL
NJARET20030-32247-31010-90000006D0000054D000050000031010     GGSL
NJARET20030-32247-31115-80000077D0005716D001550000131115     GGSL
NJARET20030-32247-32367-30000055D0001642D002770001032367F    GGSL
NJARET20030-32247-33040-40000214D0003419D010940008133040     GGSL
NJARET20030-32247-33050-30000114D0004694D004480001333050     GGSL
NJARET20030-32247-33160-90000207D0014528D004330002333160     GGSL
NJARET20030-32247-34161-50000111D0006342D006780003834161     GGSL
NJARET20030-32247-36905-30000432D0015711D007860005536905     GGSL
NJARET20030-32247-37594-80000050D0000402D000190000073759430  GGSL
NJARET20030-32247-37594-80000048D0000385D000170000073759430X GGSL
NJARET20030-32247-37610-50000244D0003499D000200000237610C    GGSL
NJARET20030-32247-39181-80000456D0012609D011570008939181     GGSL
NJARET20030-32247-39605-90000074D0001338D002800000139605     GGSL
NJARET20030-32247-39615-80000008D0000383D001610001539615     GGSL
NJARET20030-32247-42784-50000132D0000476D000370000074278430  GGSL
NJARET20030-32247-43850-60000004D0000086D00035000024385010   GGSL
NJARET20030-32247-43860-50000036D0000877D00061000004386004   GGSL
NJARET20030-32247-44615-00000002D0000046D001050000044615A    GGSL
NJARET20030-32247-47783-30000096D0000357D000240000174778300  GGSL
NJARET20030-32247-49013-90000003D0000074D000530000049013     GGSL
NJARET20030-32247-49019-10000185D0002084D014420002049019     GGSL
NJARET20030-32247-49020-70000003D0000212D001760000049020     GGSL
NJARET20030-32247-49023-80000012D0000117D000160000149023     GGSL
NJARET20030-32247-49024-50000094D0001331D002710000049024     GGSL
NJARET20030-32247-49785-50000870D0003514D000880002074978500  GGSL
NJARET20030-32247-49801-20000006D0000086D000730000049801C    GGSL
NJARET20030-32247-50088-30000006D0000130D00042000005008810   GGSL
NJARET20030-32247-50240-50000005D0000316D000920000050240     GGSL
NJARET20030-32247-50250-40000010D0000241D000920000050250     GGSL
NJARET20030-32247-50524-60000117D0000949D000340000075052430  GGSL
NJARET20030-32247-50524-60000024D0000196D000450000075052430X GGSL
NJARET20030-32247-51062-20000012D0000107D000290000151062     GGSL
NJARET20030-32247-51070-70000004D0000040D000230000051070     GGSL
NJARET20030-32247-51080-60000018D0000108D000230000051080     GGSL
NJARET20030-32247-51105-60000050D0000663D003800000051105     GGSL
NJARET20030-32247-51115-50000014D0000500D002790000051115     GGSL
NJARET20030-32247-52784-20000030D0000130D000730000085278430  GGSL
NJARET20030-32247-53105-40000040D0000390D003920003053105     GGSL
NJARET20030-32247-53115-30000124D0003000D002070000053115     GGSL
NJARET20030-32247-54105-30000018D0000098D00016000005410510   GGSL
NJARET20030-32247-54204-30000012D0000121D00018000005420406   GGSL
NJARET20030-32247-55513-50000910D0008806D000570000075551300  GGSL
NJARET20030-32247-55513-50000167D0001617D001450000075551300X GGSL
NJARET20030-32247-55523-40000828D0012560D000480000075552300  GGSL
NJARET20030-32247-55523-40000036D0000546D001280000075552300X GGSL
NJARET20030-32247-55783-20000294D0001456D001320002475578300  GGSL
NJARET20030-32247-55863-10000047D0000380D001720010575586300X GGSL
NJARET20030-32247-56163-10000024D0000203D000470000045616300X GGSL
NJARET20030-32247-56211-90000030D0000421D00045000015621106   GGSL
NJARET20030-32247-56513-40001950D0016832D001000000575651300  GGSL
NJARET20030-32247-56513-40000012D0000104D000480000075651300X GGSL
NJARET20030-32247-56523-30001512D0020430D001890000475652300  GGSL
NJARET20030-32247-56523-30000039D0000528D001470002475652300X GGSL
NJARET20030-32247-56783-10000948D0004332D008140000075678300  GGSL
NJARET20030-32247-56783-10001560D0007128D000300000175678309  GGSL
NJARET20030-32247-56863-00000546D0003965D000340000475686300  GGSL
NJARET20030-32247-56863-00000176D0001278D001880003075686300X GGSL
NJARET20030-32247-57905-60000030D0000357D001770000057905     GGSL
NJARET20030-32247-60594-60000050D0000364D000110000076059430  GGSL
NJARET20030-32247-60594-60000046D0000369D001390000076059430X GGSL
NJARET20030-32247-71060-20000162D0002088D001430000171060     GGSL
NJARET20030-32247-71131-90000028D0000527D000280000071131     GGSL
NJARET20030-32247-74150-70001440D0007703D0024700010274150    GGSL
NJARET20030-32247-74250-40001548D0012441D0018100010274250    GGSL
NJARET20030-32247-74850-60000416D0007481D0019400007274850    GGSL
NJARET20030-32247-75902-10000022D0001768D000550000075902     GGSL
NJARET20030-32247-76121-50000045D0001569D001200000176121     GGSL
NJARET20030-32247-76232-80000015D0000919D000520000076232     GGSL
NJARET20030-32247-76565-70000006D0000338D000290000076565     GGSL
NJARET20030-32247-77160-30001452D0006973D0017700007277160    GGSL
NJARET20030-32247-77260-00001176D0009854D0020900014277260    GGSL
NJARET20030-32247-77860-20000198D0003043D0013700009277860    GGSL
NJARET20030-32247-77960-90000464D0009429D0023300012277960    GGSL
NJARET20030-32247-90550-30000050D0005145D0002800003 671025   GGSL
NJARET20030-32247-95517-10000300D0001477D000340000079551750  GGSL
NJARET20030-32247-95517-10000012D0000059D000230000079551750X GGSL
NJARET20030-32247-99605-10000100D0002255D008700000899605     GGSL
NJARET20030-32247-99610-50000026D0001146D001140000099610     GGSL
NJARET20030-32903-00169-30000408D0000494D0001100001SLI06000E3GGSL
NJARET20030-32903-00171-60000192D0000232D0002300000SLI06000A3GGSL
NJARET20030-32903-00191-40000036D0000159D0000500000GAB12000E2GGSL
NJARET20030-32903-00192-10000528D0000639D0002900000SLI06000B9GGSL
NJARET20030-32903-00193-80000012D0000197D0000000000TEA17000G2GGSL
NJARET20030-32903-00203-40000004D0000303D0000200000TEA30000G2GGSL
NJARET20030-32903-00214-00000144D0000174D0003200000SLI06000E2GGSL
NJARET20030-32903-00222-50000432D0000670D0002300001SLI08000B9GGSL
NJARET20030-32903-00224-90000060D0000413D0003500000VNP18000E2GGSL
NJARET20030-32903-00227-00000012D0000050D0002000000SVN18000E2GGSL
NJARET20030-32903-00236-20000006D0000028D0001000000SVN24000E2GGSL
NJARET20030-32903-00240-90000120D0000186D0002700000SLI08000E2GGSL
NJARET20030-32903-00243-00000012D0000066D0001200000SVN30000E2GGSL
NJARET20030-32903-00246-10000192D0000298D0002100000SLI08000A3GGSL
NJARET20030-32903-00257-70000001D0000041D0001400000RZGH210G2 GGSL
NJARET20030-32903-00258-40000216D0000380D0003300002LIA06000E2GGSL
NJARET20030-32903-00264-50000144D0000383D0000800002LIA08000E2GGSL
NJARET20030-32903-00281-20000180D0000734D0003500001LIA10000E2GGSL
NJARET20030-32903-00283-60000036D0000221D0001700000GAB14000E2GGSL
NJARET20030-32903-00284-30000020D0000580D0000000000TEA20000G2GGSL
NJARET20030-32903-00287-40000060D0000469D0002200000VNP24000E2GGSL
NJARET20030-32903-00290-40000060D0000608D0001800000VNP30000E2GGSL
NJARET20030-32903-00293-50000120D0000260D0002800000SLI10000E2GGSL
NJARET20030-32903-00301-70000015D0000219D0000800000ROP28000A3GGSL
NJARET20030-32903-00309-30000492D0001068D0006100002SLI10000E3GGSL
NJARET20030-32903-00313-00000012D0000114D0000000000GAB18000E2GGSL
NJARET20030-32903-00326-00000132D0000863D0004800000LIA12000E2GGSL
NJARET20030-32903-00332-10000216D0000469D0002000000SLI10000B9GGSL
NJARET20030-32903-00338-30000168D0000355D0003700000SLI10000A3GGSL
NJARET20030-32903-00341-30000066D0000548D0002000002SLI24000E3GGSL
NJARET20030-32903-00359-80000624D0000967D0000900001SLI08000E3GGSL
NJARET20030-32903-04255-90000072D0000595D0003200000LIA14000E2GGSL
NJARET20030-32903-04257-30000108D0000396D0002600000SLI12000E2GGSL
NJARET20030-32903-04265-80000006D0000090D0000000000GAB22000E2GGSL
NJARET20030-32903-07519-90000036D0000461D0001600000LIA16000E2GGSL
NJARET20030-32903-07530-40000060D0000235D0002100000SLI14000E2GGSL
NJARET20030-32903-07534-20000018D0000309D0002000000LIA20000E2GGSL
NJARET20030-32903-07558-80000114D0000408D0001800000RZWC1Q0B9 GGSL
NJARET20030-32903-07563-20000060D0000262D0001200001SLI17000E2GGSL
NJARET20030-32903-07577-90000018D0000412D0001100000LIA24000E2GGSL
NJARET20030-32903-12006-60000840D0001478D0003300003LIA06000E3GGSL
NJARET20030-32903-12008-00000864D0002298D0003000002LIA08000E3GGSL
NJARET20030-32903-12010-30000660D0002693D0007200004LIA10000E3GGSL
NJARET20030-32903-12012-70000600D0003924D0006900002LIA12000E3GGSL
NJARET20030-32903-12014-10000528D0004361D0004800002LIA14000E3GGSL
NJARET20030-32903-12017-20000240D0003074D0004100001LIA16000E3GGSL
NJARET20030-32903-12020-20000132D0002251D0002200002LIA20000E3GGSL
NJARET20030-32903-12024-00000072D0001650D0001600004LIA24000E3GGSL
NJARET20030-32903-12115-50000024D0000407D0002200000ROS15500E3GGSL
NJARET20030-32903-12312-80000144D0000744D0001800000CNA12000E3GGSL
NJARET20030-32903-12318-00000030D0000124D0001600000SVN18000E3GGSL
NJARET20030-32903-12324-10000030D0000139D0001500000SVN24000E3GGSL
NJARET20030-32903-12330-20000024D0000132D0001100000SVN30000E3GGSL
NJARET20030-32903-12712-60000072D0000318D0001600000GAB12000E3GGSL
NJARET20030-32903-12714-00000216D0001326D0002100000GAB14000E3GGSL
NJARET20030-32903-12718-80000030D0000284D0002800001GAB18000E3GGSL
NJARET20030-32903-12722-50000024D0000358D0001200000GAB22000E3GGSL
NJARET20030-32903-12818-50000138D0000951D0003000000VNP18000E3GGSL
NJARET20030-32903-12824-60000174D0001359D0005500000VNP24000E3GGSL
NJARET20030-32903-12830-70000096D0000973D0002900000VNP30000E3GGSL
NJARET20030-32903-22484-90000015D0000219D0000000000ROP28000E2GGSL
NJARET20030-32903-23732-00000012D0000078D0001600001SLI20000E2GGSL
NJARET20030-32903-35079-10000003D0000160D0000000000TES20000G2GGSL
NJARET20030-32903-35947-30000132D0000433D0002700000CNA10000E3GGSL
NJARET20030-32903-40400-50000156D0000636D0001100000LIA10000A3GGSL
NJARET20030-32903-40493-70000504D0001341D0002600002LIA08000B9GGSL
NJARET20030-32903-40770-90000054D0000372D0002100000VNP18000A3GGSL
NJARET20030-32903-41472-10000018D0000099D0001100000SVN30000A3GGSL
NJARET20030-32903-41640-40000240D0000638D0002900000LIA08000A3GGSL
NJARET20030-32903-41717-30000168D0001388D0004200001LIA14000B9GGSL
NJARET20030-32903-41728-90000276D0001805D0005400001LIA12000B9GGSL
NJARET20030-32903-41842-20000054D0000548D0001600000VNP30000A3GGSL
NJARET20030-32903-41909-20000036D0000461D0002100000LIA16000A3GGSL
NJARET20030-32903-42050-00000012D0000275D0002200000LIA24000A3GGSL
NJARET20030-32903-42240-50000432D0000760D0002800003LIA06000B9GGSL
NJARET20030-32903-42728-80000018D0000083D0000600000SVN24000A3GGSL
NJARET20030-32903-43116-20000030D0000124D0001800000SVN18000A3GGSL
NJARET20030-32903-45170-20000048D0000396D0003500000LIA14000A3GGSL
NJARET20030-32903-45342-30000054D0000422D0003000000VNP24000A3GGSL
NJARET20030-32903-45788-90000018D0000412D0001900002LIA24000B9GGSL
NJARET20030-32903-46337-80000108D0001383D0003400002LIA16000B9GGSL
NJARET20030-32903-46966-00000006D0000103D0001400000LIA20000A3GGSL
NJARET20030-32903-47208-00000324D0002119D0003600000LIA12000A3GGSL
NJARET20030-32903-48101-30000120D0000211D0000400001LIA06000A3GGSL
NJARET20030-32903-48538-70000036D0000618D0002100001LIA20000B9GGSL
NJARET20030-32903-50286-20000120D0000416D0003200000HSI10008E2GGSL
NJARET20030-32903-50763-80000492D0001789D0001600001SLI12000E3GGSL
NJARET20030-32903-50764-50000156D0000612D0001500000SLI14000B9GGSL
NJARET20030-32903-50766-90000004D0000152D0000300000TEA24000G2GGSL
NJARET20030-32903-50767-60000120D0000440D0001600000SLI12000A3GGSL
NJARET20030-32903-50794-20000240D0000881D0002400001SLI12000B9GGSL
NJARET20030-32903-50802-40000144D0000564D0000600001SLI14000E3GGSL
NJARET20030-32903-50803-10000072D0000282D0002300000SLI14000A3GGSL
NJARET20030-32903-52340-90000030D0000131D0001300001SVN24000B9GGSL
NJARET20030-32903-52858-90000060D0000399D0006000000VNP18000B9GGSL
NJARET20030-32903-53271-50000018D0000150D0002000000SLI24000E2GGSL
NJARET20030-32903-56391-70000300D0001041D0003100000HSI10008A1GGSL
NJARET20030-32903-57235-30000054D0000522D0004200000VNP30000B9GGSL
NJARET20030-32903-57495-10000024D0000125D0001100000SVN30000B9GGSL
NJARET20030-32903-58303-80000108D0000801D0005300000VNP24000B9GGSL
NJARET20030-32903-58838-50000018D0000070D0001400000SVN18000B9GGSL
NJARET20030-32903-61636-10000300D0001041D0002100000HSI10008B6GGSL
NJARET20030-32903-66002-90000020D0000292D0001300000ROP28000E3GGSL
NJARET20030-32903-69739-10000005D0000069D0000900000ROP28000B9GGSL
NJARET20030-32903-71041-00000036D0000226D0000100000RZWC1G0E3 GGSL
NJARET20030-32903-72233-80000216D0000881D0005200002LIA10000B9GGSL
NJARET20030-32903-72518-60000040D0000360D0001100000RZWC2G0B9 GGSL
NJARET20030-32903-72886-60000108D0000677D0001900000RZWC1G0B9 GGSL
NJARET20030-32903-75049-20000084D0000549D0001300001SLI20000E3GGSL
NJARET20030-32903-75051-50000024D0000105D0001200000SLI17000A3GGSL
NJARET20030-32903-75057-70000108D0000472D0000900001SLI17000B9GGSL
NJARET20030-32903-75070-60000018D0000118D0001500000SLI20000A3GGSL
NJARET20030-32903-75076-80000002D0000157D0000000000TES24000G2GGSL
NJARET20030-32903-75080-50000216D0000944D0001000001SLI17000E3GGSL
NJARET20030-32903-75081-20000054D0000353D0001200001SLI20000B9GGSL
NJARET20030-32903-75084-30000012D0000100D0001200000SLI24000A3GGSL
NJARET20030-32903-75089-80000018D0000150D0002500002SLI24000B9GGSL
NJARET20030-32903-91270-80000009D0000267D0001500000RZGH210E3 GGSL
NJARET20030-32903-91300-20000012D0000094D0000200000VNP2400G18GGSL
NJARET20030-32903-91303-30000006D0000061D0000300000VNP3000G18GGSL
NJARET20030-32903-91319-40000006D0000098D0000000000TEA17000G8GGSL
NJARET20030-32903-91485-60000040D0000503D0000700000SPX24DBA34GGSL
NJARET20030-32903-91516-70000048D0000308D0000200001PPF1000   GGSL
NJARET20030-33200-00020-40008100D0005676D00000000003320000020GGSL
NJARET20030-33200-00544-50005436D0054474D013110060000544     GGSL
NJARET20030-33200-01191-00000360D0002545D000200000001191     GGSL
NJARET20030-33200-06527-20000187D0003364D00203001606527      GGSL
NJARET20030-33200-09142-40000652D0004470D000000000009142     GGSL
NJARET20030-33200-09293-30000700D0004994D00149000009293      GGSL
NJARET20030-33200-11321-80000060D0000077D000920000011321     GGSL
NJARET20030-33200-94182-80004914D0049230D005770000094182     GGSL
NJARET20030-33200-94182-80000480D0004810D000000000094182DP   GGSL
NJARET20030-33200-97209-90000100D0000699D000420000097209     GGSL
NJARET20030-33200-97242-60001032D0007214D002900003597242     GGSL
NJARET20030-33349-03110-70001406D0001786D0000700002JP310     GGSL
NJARET20030-33349-05042-90000240D0001123D0000000000J324      GGSL
NJARET20030-33349-05082-50000368D0001078D0001600000JP506     GGSL
NJARET20030-33349-05618-60000288D0001607D0000300001G310      GGSL
NJARET20030-33349-07750-10000493D0001523D0001000001J4R25     GGSL
NJARET20030-33349-41029-20000016D0000076D0000000000TS50H     GGSL
NJARET20030-33349-41131-20000028D0000134D0000000000TS32      GGSL
NJARET20030-33349-41211-10001056D0001067D0000100000JP212     GGSL
NJARET20030-33349-41214-20000272D0000522D0001200001JP226     GGSL
NJARET20030-33349-41221-00000900D0001710D0000200000TDOME     GGSL
NJARET20030-33349-41234-00002000D0003120D0000100000TTRAY     GGSL
NJARET20030-33349-41238-80000420D0001890D0000000000T32       GGSL
NJARET20030-33349-41251-70000480D0001368D0000000000JS50      GGSL
NJARET20030-33349-41254-80001120D0003091D0000100001JS32      GGSL
NJARET20030-33349-41258-60000044D0000077D0000100001TR72      GGSL
NJARET20030-33349-41318-70000468D0001320D0000300001JP322     GGSL
NJARET20030-33349-41444-30000003D0000643D0000300002JP4BULK   GGSL
NJARET20030-33349-41444-30001092D0002260D0001100001JP406     GGSL
NJARET20030-33349-41620-10000084D0000613D0000400000G316      GGSL
NJARET20030-33349-41701-70011000D0001320D0001300000J4BULK    GGSL
NJARET20030-33349-41708-60000015D0000026D0000100000J3R72     GGSL
NJARET20030-33349-41710-90000476D0001390D0000300001J312      GGSL
NJARET20030-33349-65153-40000070D0000420D0000300000G312      GGSL
NJARET20030-33349-65204-30000011D0000092D0000100000T14H      GGSL
NJARET20030-33349-66002-40000012D0000087D0000000000J336ST16  GGSL
NJARET20030-33349-66005-50000574D0003279D0000300000J425ST16  GGSL
NJARET20030-33349-66005-50000048D0000377D0002500000J425ST16PCGGSL
NJARET20030-33349-66006-20000033D0000327D0000100000J450ST20  GGSL
NJARET20030-33349-66006-20000040D0000397D0000000000J450ST20PCGGSL
NJARET20030-33349-66007-90000060D0000331D0000000000J616ST11  GGSL
NJARET20030-33349-66008-60000096D0001175D0000000000J636ST10  GGSL
NJARET20030-33349-66009-30000952D0005788D0000200002T72HST14  GGSL
NJARET20030-33349-66010-90000748D0004151D0000000000TS50HST16 GGSL
NJARET20030-33349-66015-40000546D0002937D0000800003TS20HST14 GGSL
NJARET20030-33349-66016-10000784D0004579D0000400000TS32HST14 GGSL
NJARET20030-33607-00003-60000004D0000119D0003300000EDGE180   GGSL
NJARET20030-33607-00005-00000003D0000231D0000100000HR1       GGSL
NJARET20030-33607-00304-40000012D0000141D0000300000TT4T      GGSL
NJARET20030-33607-00310-50000004D0000188D0000300000GC1       GGSL
NJARET20030-33607-00701-10000006D0000056D0000200000RT1       GGSL
NJARET20030-33607-00703-50000006D0000114D0000200000RP3       GGSL
NJARET20030-33607-00938-10000004D0000100D0002700000M7C       GGSL
NJARET20030-33607-01220-60000018D0000429D0001200000LT20      GGSL
NJARET20030-33607-22000-70000192D0002108D0001800002HCWM1     GGSL
NJARET20030-33607-22004-50000004D0000100D0000900000D6C       GGSL
NJARET20030-33607-22005-20000012D0000301D0002900002HC2       GGSL
NJARET20030-33607-22006-90000020D0000502D0001300001HBE6      GGSL
NJARET20030-33607-22010-60000016D0000528D0001400003HCF3      GGSL
NJARET20030-33607-22075-50000002D0000173D0001600001HTC1      GGSL
NJARET20030-33607-22125-70000003D0000334D0002100001HT2EZ     GGSL
NJARET20030-33607-22250-60000005D0000668D0001300000HT4EZ     GGSL
NJARET20030-33607-22550-70000003D0000283D0000400001SRWM180   GGSL
NJARET20030-33607-51300-00000004D0000113D0000200000TNT4      GGSL
NJARET20030-33607-52101-20000004D0000170D0000000000GKS2BLU   GGSL
NJARET20030-33607-90015-20000008D0000176D0000100000CA36      GGSL
NJARET20030-33607-90026-80000001D0000170D0000000000GKSASST   GGSL
NJARET20030-33745-97185-40000088D0002600D004300000097185X    GGSL
NJARET20030-34411-00001-40000005D0000014D0024700000 01HM     GGSL
NJARET20030-34411-00001-40000072D0000145D00000000008010241002GGSL
NJARET20030-34411-00011-30000005D0000010D0013100000 01M      GGSL
NJARET20030-34411-00011-30000048D0000057D00001000018011341002GGSL
NJARET20030-34411-00012-00000005D0000011D0002800000 01F      GGSL
NJARET20030-34411-00012-00000048D0000062D00000000008010041002GGSL
NJARET20030-34411-00017-50000012D0000032D00001000008001741002GGSL
NJARET20030-34411-00018-20000024D0000021D00014000008013641001GGSL
NJARET20030-34411-00061-80000012D0000059D00000000008060021001GGSL
NJARET20030-34411-00164-60000003D0000016D0000400000 01MZ     GGSL
NJARET20030-34411-00164-60000012D0000049D00001000018011341003GGSL
NJARET20030-34411-00165-30000003D0000018D0000100000 01FZ     GGSL
NJARET20030-34411-00165-30000012D0000057D00000000008010141001GGSL
NJARET20030-34411-00584-20000030D0000226D00000000008058421001GGSL
NJARET20030-34411-01076-10000030D0000495D00005000008006041001GGSL
NJARET20030-34411-01995-50000006D0000431D00008000068190031001GGSL
NJARET20030-34411-02730-10000001D0000013D0001400000 440GP    GGSL
NJARET20030-34411-02968-80000008D0000070D00000000008550121001GGSL
NJARET20030-34411-02974-90000012D0000052D00001000008311041001GGSL
NJARET20030-34411-02975-60000012D0000059D00001000008312041001GGSL
NJARET20030-34411-02979-40000006D0000112D00001000018423041001GGSL
NJARET20030-34411-02981-70000012D0000081D00002000008313041001GGSL
NJARET20030-34411-02984-80000080D0000071D00001000018011141001GGSL
NJARET20030-34411-02986-20000020D0000036D00000000008011441001GGSL
NJARET20030-34411-02987-90000012D0000083D00000000008401741001GGSL
NJARET20030-34411-05711-70000001D0000007D0040700000 571TFR   GGSL
NJARET20030-34411-05711-70000015D0000086D00031000008571021002GGSL
NJARET20030-34411-05731-50000012D0000048D00000000008573021001GGSL
NJARET20030-34411-08762-60000010D0000043D00000000008876031001GGSL
NJARET20030-34411-11209-00000003D0000223D0000300000 10034100 GGSL
NJARET20030-34411-11259-50000006D0000084D00001000008165011002GGSL
NJARET20030-34411-12528-10000024D0000175D00000000008528121001GGSL
NJARET20030-34411-18845-30000016D0000121D00000000008883031002GGSL
NJARET20030-34411-26048-70000010D0000122D00000000008381221001GGSL
NJARET20030-34411-26190-30000006D0000075D00000000008219331011GGSL
NJARET20030-34411-26202-30000006D0000081D00000000008205221001GGSL
NJARET20030-34411-60204-10000002D0000103D0001500003 25034100 GGSL
NJARET20030-34411-60204-10000006D0000326D00010000108410011001GGSL
NJARET20030-34411-64501-70000006D0000123D00000000008645011001GGSL
NJARET20030-34411-74001-90000001D0000048D0000500000 874001101GGSL
NJARET20030-34411-74001-90000060D0003052D00038000068740011001GGSL
NJARET20030-34411-74251-80000024D0000406D00023000068742511001GGSL
NJARET20030-34411-74501-40000001D0000027D0000600000 874501101GGSL
NJARET20030-34411-74501-40000072D0002064D00025000008745011001GGSL
NJARET20030-34411-74751-30000001D0000039D0000300000 874751101GGSL
NJARET20030-34411-74751-30000028D0001122D00035000068747511001GGSL
NJARET20030-34411-80013-30000012D0000160D00004000008800131001GGSL
NJARET20030-34411-92774-80000036D0000437D00019000048705011001GGSL
NJARET20030-34613-00005-80000006D0000104D0000000000LH005     GGSL
NJARET20030-34613-00011-90000024D0000207D0000700000LH011     GGSL
NJARET20030-34613-00012-60000012D0000103D0000900000LH012     GGSL
NJARET20030-34613-00014-00000084D0000724D0000700000LH014     GGSL
NJARET20030-34613-00015-70000096D0001202D0003500000LH015     GGSL
NJARET20030-34613-00048-50000012D0000142D0000800001TP48      GGSL
NJARET20030-34613-00060-70000018D0000232D0000200001TP60      GGSL
NJARET20030-34613-00068-30000018D0000221D000080000068WP      GGSL
NJARET20030-34613-00072-00000012D0000181D0000100000TP72      GGSL
NJARET20030-34613-00212-00000024D0000046D0000000000CVS006HD  GGSL
NJARET20030-34613-00215-10000048D0000132D0000000000CVS010HD  GGSL
NJARET20030-34613-00332-50000012D0000041D0000000000332       GGSL
NJARET20030-34613-00351-60000024D0000110D0000100000351       GGSL
NJARET20030-34613-00398-10000024D0000099D0000000000398       GGSL
NJARET20030-34613-00425-40000025D0000258D0000100000425       GGSL
NJARET20030-34613-00438-40000025D0000131D0000100000438       GGSL
NJARET20030-34613-00448-30000012D0000045D0000200000448       GGSL
NJARET20030-34613-00451-30000012D0000050D0000000000451       GGSL
NJARET20030-34613-00457-50000024D0000036D0000000000497       GGSL
NJARET20030-34613-00469-80000001D0000138D0000500001 N408     GGSL
NJARET20030-34613-00473-50000005D0000414D0000000000 N824     GGSL
NJARET20030-34613-00553-40000036D0000125D0000000000553BL     GGSL
NJARET20030-34613-00802-30000040D0000041D0000000000SS2       GGSL
NJARET20030-34613-00803-00000020D0000021D0001000000SS3       GGSL
NJARET20030-34613-00804-70000020D0000030D0002200000SS4       GGSL
NJARET20030-34613-00805-40000060D0000111D0002000000SS5       GGSL
NJARET20030-34613-00806-10000040D0000097D0002300000SS6       GGSL
NJARET20030-34613-00808-50000020D0000130D0000400000SS8HD     GGSL
NJARET20030-34613-00809-20000020D0000010D0000000000SS6HD     GGSL
NJARET20030-34613-00834-40000010D0000174D0000000000SFS8      GGSL
NJARET20030-34613-00876-40000020D0000117D0000000000SP6       GGSL
NJARET20030-34613-00884-90000024D0000051D0000200000CVS008HD  GGSL
NJARET20030-34613-00924-20000096D0001273D0001000000924       GGSL
NJARET20030-34613-01151-10000010D0000062D00000000001151PDQ   GGSL
NJARET20030-34613-01160-30000010D0000028D00004000021160      GGSL
NJARET20030-34613-01284-60000012D0000048D0000000000CVS012HD  GGSL
NJARET20030-34613-01484-00000012D0000068D0000000000CVS014HD  GGSL
NJARET20030-34613-01501-40000012D0000021D00000000001501      GGSL
NJARET20030-34613-01684-40000012D0000087D0000000000CVS016HD  GGSL
NJARET20030-34613-01901-20000048D0000298D00019000001901      GGSL
NJARET20030-34613-01902-90000120D0000804D00020000001902      GGSL
NJARET20030-34613-01903-60000108D0000700D00025000001903      GGSL
NJARET20030-34613-01908-10000012D0000105D00000000001908      GGSL
NJARET20030-34613-03104-50000102D0000930D00011000003104      GGSL
NJARET20030-34613-03110-60000012D0000094D00000000003110      GGSL
NJARET20030-34613-03603-30000015D0000100D0000200000U3603     GGSL
NJARET20030-34613-04406-90000024D0000270D00000000004406BLD   GGSL
NJARET20030-34613-04830-20000054D0000651D00003000004830      GGSL
NJARET20030-34613-04862-30000012D0000103D0001500000LH013BL   GGSL
NJARET20030-34613-04863-00000012D0000103D0001200001LH014BL   GGSL
NJARET20030-34613-04864-70000012D0000103D0001900000LH016BL   GGSL
NJARET20030-34613-04870-80000060D0000751D0001200000LH015BL   GGSL
NJARET20030-34613-04976-70000020D0000045D000000000010312     GGSL
NJARET20030-34613-05826-40000006D0000067D00005000015826      GGSL
NJARET20030-34613-08138-50000012D0000201D00005000008138      GGSL
NJARET20030-34613-08446-10000018D0000283D0000900000BF24      GGSL
NJARET20030-34613-09500-90000025D0000045D00000000009500      GGSL
NJARET20030-34613-09501-60000012D0000180D00016000009501      GGSL
NJARET20030-34613-09509-20000048D0000086D00036000009509      GGSL
NJARET20030-34613-09629-70000012D0000136D00003000009629      GGSL
NJARET20030-34613-09708-90000024D0000120D00000000009708      GGSL
NJARET20030-34613-09709-60000024D0000120D00000000009709      GGSL
NJARET20030-34613-09714-00000024D0000112D00000000009714      GGSL
NJARET20030-34613-25325-60000001D0000023D0000100000MDSWC     GGSL
NJARET20030-34613-34004-80000025D0000005D0000100000CVS004    GGSL
NJARET20030-34613-34006-20000075D0000025D0000000000CVS006    GGSL
NJARET20030-34613-34008-60000050D0000024D0000000000CVS008    GGSL
NJARET20030-34613-34010-90000050D0000036D0000000000CVS010    GGSL
NJARET20030-34613-34012-30000050D0000055D0000000000CVS012    GGSL
NJARET20030-34613-34014-70000025D0000037D0000000000CVS014    GGSL
NJARET20030-34613-50120-30000014D0001919D000460000050120     GGSL
NJARET20030-34613-50123-40000003D0000941D002320000050123     GGSL
NJARET20030-34613-60565-90000004D0000313D000530000060565     GGSL
