TXBWIC2003P-C1100-3950E-A0000055D0013656D002530000411003950  GGSL
TXBWIC2003P-C1100-5800E-A0000012D0001280D000830001711005800  GGSL
TXBWIC2003P-C1100-7415E-A0000003D0001200D000100000011007415  GGSL
TXBWIC2003P-C1100-8081E-A0000007D0000441D000180000511008081  GGSL
TXBWIC2003P-C1400-1068P-K0000028D0000211D001090000014001068  GGSL
TXBWIC20030-00402-00000-00003012D0026856D0196300022BWI COMP  GGSL
TXBWIC20030-00402-01012-60000250D0003476D00414000001012      GGSL
TXBWIC20030-00402-01492-60000002D0000005D000690000014SSB     GGSL
TXBWIC20030-00402-01499-50000051D0000118D000160000014SS      GGSL
TXBWIC20030-00402-02419-20000160D0000150D000730000110XS-20   GGSL
TXBWIC20030-00402-02699-50000180D0000181D000240000010XS-20B  GGSL
TXBWIC20030-00402-02750-60000775D0002740D0003600003B75       GGSL
TXBWIC20030-00402-05411-30000350D0000699D00016000005418      GGSL
TXBWIC20030-00402-10147-30000090D0001140D00099000041014 G    GGSL
TXBWIC20030-00402-10148-00002510D0025345D01872000221014      GGSL
TXBWIC20030-00402-11713-90000075D0000264D000160000111730     GGSL
TXBWIC20030-00402-14299-50000002D0000083D0000000000142SS     GGSL
TXBWIC20030-00402-14319-00000025D0000084D000800000014CS      GGSL
TXBWIC20030-00402-14499-90000002D0000090D0000000000144SS     GGSL
TXBWIC20030-00402-14560-60000031D0000082D000140000014EP      GGSL
TXBWIC20030-00402-21014-40002515D0026352D021330002210145B    GGSL
TXBWIC20030-00402-33117-70000875D0000288D0007900002PC11-7    GGSL
TXBWIC20030-00402-33354-60002925D0000369D0012000015PC5-4     GGSL
TXBWIC20030-00402-33375-10004650D0000893D0013200014PC7-5     GGSL
TXBWIC20030-00402-41819-90000101D0000567D001010000014TRS     GGSL
TXBWIC20030-00402-60011-20000025D0000103D0000000000117DFHS   GGSL
TXBWIC20030-00772-06215-20000006D0000045D00000000006215      GGSL
TXBWIC20030-00772-06216-90000006D0000045D00000000006216      GGSL
TXBWIC20030-00772-06281-70000012D0000048D00000000006281      GGSL
TXBWIC20030-00772-06702-70000012D0000090D00000000006702      GGSL
TXBWIC20030-00772-06741-60000012D0000090D00000000006741      GGSL
TXBWIC20030-00772-06744-70000024D0000360D00000000006744      GGSL
TXBWIC20030-00772-06753-90000024D0000060D00000000006753      GGSL
TXBWIC20030-07815-93364-00000112D0002467D001500004056566     GGSL
TXBWIC20030-09343-29005-80000001D0000257D000000000090-90058  GGSL
TXBWIC20030-1002 -     - 0000001D0000140D00000000005801002   GGSL
TXBWIC20030-10367-00110-70000960D0005965D0023100037110       GGSL
TXBWIC20030-10367-00130-50000001D0000040D0000300000130.0     GGSL
TXBWIC20030-10367-00150-30000229D0006785D0002100112150.0     GGSL
TXBWIC20030-10367-00460-30000068D0000334D0003900000ML0460 8  GGSL
TXBWIC20030-10367-00560-00000176D0000549D0007700001ML0560 8  GGSL
TXBWIC20030-10367-00810-60000048D0000216D0002700018ML0810    GGSL
TXBWIC20030-10367-01000-00000012D0000145D0000800000ML1000    GGSL
TXBWIC20030-10367-01010-90000148C0000145C0001000001ML1010    GGSL
TXBWIC20030-10367-01110-60000008D0000021D00010000011110      GGSL
TXBWIC20030-10367-01111-30000056D0000155D00021000001111.0    GGSL
TXBWIC20030-10367-01112-00000024D0000067D00008000001112.0    GGSL
TXBWIC20030-10367-01120-50000072D0000178D00042000001120.0    GGSL
TXBWIC20030-10367-01140-30000024D0000045D00000000001140.0    GGSL
TXBWIC20030-10367-01240-00000012D0000070D00000000001240.0    GGSL
TXBWIC20030-10367-03010-70000064D0000333D0000600000ML3010    GGSL
TXBWIC20030-11247-00000-00000192D0000934D000560000413010     GGSL
TXBWIC20030-11247-00640-30000061D0002182D001280001200640     GGSL
TXBWIC20030-11247-00911-40000005D0000229D000000000600911     GGSL
TXBWIC20030-11247-01050-90000010D0000099D00068000001050      GGSL
TXBWIC20030-11247-01855-00000001D0000188D00000000071855      GGSL
TXBWIC20030-11247-02155-00000006D0000950D00024000002155.0    GGSL
TXBWIC20030-11247-03111-50000082D0002574D00039000003111      GGSL
TXBWIC20030-11247-04525-90000173D0003847D002300002404525     GGSL
TXBWIC20030-11247-05350-60000048D0002269D000660002105350     GGSL
TXBWIC20030-11247-05450-30000056D0002300D00141000235450      GGSL
TXBWIC20030-11247-12024-60000024D0000104D000010000012024     GGSL
TXBWIC20030-11247-16004-40000072D0000453D000570000116004     GGSL
TXBWIC20030-11247-17020-30000001D0000015D000000000017020     GGSL
TXBWIC20030-11247-20103-70000006D0000043D000000000220103     GGSL
TXBWIC20030-11247-21004-60000054D0000392D000100000121004     GGSL
TXBWIC20030-11247-25040-00000040D0001179D000000000025040     GGSL
TXBWIC20030-11247-26001-00000144D0000695D000140000026001     GGSL
TXBWIC20030-11247-26128-40000036D0000355D000100000026128     GGSL
TXBWIC20030-11247-26250-20000002D0000049D000000000026250     GGSL
TXBWIC20030-11247-30004-40000180D0001285D000830000530004     GGSL
TXBWIC20030-11247-52813-40000009D0000135D000680000052813     GGSL
TXBWIC20030-11247-52816-50000006D0000043D000000000052816     GGSL
TXBWIC20030-11247-52825-70000192D0003234D001820007652825     GGSL
TXBWIC20030-11247-52828-80000006D0000039D000000000052828     GGSL
TXBWIC20030-11247-52829-50000012D0000116D000130000052829     GGSL
TXBWIC20030-11247-52830-10000006D0000213D000140000052830     GGSL
TXBWIC20030-11247-52833-20000006D0000035D000000000052833     GGSL
TXBWIC20030-11247-52838-70000006D0000035D000010000052838     GGSL
TXBWIC20030-11247-52877-60000008D0000386D000200000052877     GGSL
TXBWIC20030-11247-52878-30000002D0000227D000000000052878     GGSL
TXBWIC20030-11247-52889-90000154D0001995D002160001552889     GGSL
TXBWIC20030-11247-60116-50000031D0000328D000810000060116     GGSL
TXBWIC20030-11247-61008-20000096D0000333D000000000061008     GGSL
TXBWIC20030-11247-61024-20000264D0001673D000390000461024     GGSL
TXBWIC20030-11247-61300-70000054D0000606D000000000061300     GGSL
TXBWIC20030-11247-71016-40000048D0000376D000040000771001     GGSL
TXBWIC20030-11247-72020-00000040D0000545D000000000072020     GGSL
TXBWIC20030-11247-90032-90000036D0000181D000060000290001     GGSL
TXBWIC20030-11423-00338-70000036D0000210D0000500002HG-33801  GGSL
TXBWIC20030-11423-94108-50000012D0000133D0001700000HG-94108  GGSL
TXBWIC20030-11423-94127-60000018D0000082D0001500001HG-94127  GGSL
TXBWIC20030-11444-43006-30000002D0000067D0000000000703124    GGSL
TXBWIC20030-12313-11331-50000010D0000041D00000000001011331   GGSL
TXBWIC20030-12313-11332-20000026D0000457D00000000001011332   GGSL
TXBWIC20030-12313-11537-10000020D0001558D00000000001011537   GGSL
TXBWIC20030-12313-12421-20000016D0000069D00000000001012421   GGSL
TXBWIC20030-12313-12423-60000055D0000954D00000000001012423   GGSL
TXBWIC20030-12313-16081-40000010D0000165D00000000003011785   GGSL
TXBWIC20030-12313-16083-80000004D0000304D00000000003011787   GGSL
TXBWIC20030-12313-16121-70000010D0000187D00000000003011886   GGSL
TXBWIC20030-12313-16123-10000011D0000955D00000000003011888   GGSL
TXBWIC20030-12313-34953-00000016D0000507D00000000001034953   GGSL
TXBWIC20030-12313-38321-30000002D0000221D00000000007938321   GGSL
TXBWIC20030-12313-38322-00000003D0000625D00000000007938322   GGSL
TXBWIC20030-12313-38401-20000011D0000754D00000000003018875   GGSL
TXBWIC20030-12313-38402-90000006D0001440D00000000003018876   GGSL
TXBWIC20030-12313-38412-80000062D0008452D00000000003014935   GGSL
TXBWIC20030-12313-38431-90000072D0005311D00000000003012681   GGSL
TXBWIC20030-12313-38432-60000035D0003576D00000000003012683   GGSL
TXBWIC20030-12313-47171-20000024D0000080D00000000003044149   GGSL
TXBWIC20030-12313-68341-20000004D0000099D00000000001068341   GGSL
TXBWIC20030-12313-68343-60000001D0000078D00000000001068343   GGSL
TXBWIC20030-13964-53881-60000013D0000325D0000000000703363    GGSL
TXBWIC20030-14021-01412-00000003D0000369D00000000001024      GGSL
TXBWIC20030-15966-49430-10000004D0000076D000850000049 00 430 GGSL
TXBWIC20030-16069-00005-90000024D0000130D0001300000TP-15C    GGSL
TXBWIC20030-16069-00007-30000024D0000128D0000300006BN-1      GGSL
TXBWIC20030-16069-00008-00000168D0000971D0001700008BN-2      GGSL
TXBWIC20030-16069-00013-40000024D0000545D0001200001BN-3      GGSL
TXBWIC20030-16069-00014-10000018D0000270D0001300001BN-4      GGSL
TXBWIC20030-16069-00030-10000090D0000973D0003000001OW-6      GGSL
TXBWIC20030-16069-00049-30000018D0000267D0000900001DX-7      GGSL
TXBWIC20030-16069-00145-20000084D0001578D0003400018RHO-4     GGSL
TXBWIC20030-16069-00365-40000027D0000294D0000500000PIN-9     GGSL
TXBWIC20030-18506-00000-00000740D0010381D00446000640111-5    GGSL
TXBWIC20030-18506-00010-30000048D0000317D0005100047010-6     GGSL
TXBWIC20030-18506-00021-90000048D0000633D0007800000021-6     GGSL
TXBWIC20030-18506-00102-50000120D0000466D0005200021102-12    GGSL
TXBWIC20030-18506-00110-50000276D0001842D0010700084110-12    GGSL
TXBWIC20030-18506-00116-20000120D0000753D0005900043116-12    GGSL
TXBWIC20030-18506-00117-90000126D0001261D0003000055117-6     GGSL
TXBWIC20030-18506-00125-40000004D0000124D0003500000125       GGSL
TXBWIC20030-18506-00130-80000132D0000700D0004300000130       GGSL
TXBWIC20030-18583-06291-90000018D0000090D0000000000703697    GGSL
TXBWIC20030-18583-07718-00000011D0000221D0000000000703693    GGSL
TXBWIC20030-18583-08758-50000005D0000017D0000000000703525    GGSL
TXBWIC20030-18583-10001-70000004D0000096D0000000000703526    GGSL
TXBWIC20030-18583-10002-40000002D0000048D0000000000703527    GGSL
TXBWIC20030-18583-10003-10000004D0000096D0000000000703528    GGSL
TXBWIC20030-18583-10004-80000004D0000096D0000000000703529    GGSL
TXBWIC20030-18583-10041-30000003D0000072D0000000000703534    GGSL
TXBWIC20030-18583-10042-00000002D0000048D0000000000703535    GGSL
TXBWIC20030-18583-10043-70000002D0000048D0000000000703536    GGSL
TXBWIC20030-18583-10081-90000002D0000048D0000000000703542    GGSL
TXBWIC20030-18583-10084-00000002D0000048D0000000000703545    GGSL
TXBWIC20030-18583-10121-20000002D0000056D0000000000703550    GGSL
TXBWIC20030-18583-10122-90000001D0000028D0000000000703551    GGSL
TXBWIC20030-18583-10164-90000004D0000102D0000000000703590    GGSL
TXBWIC20030-18583-10848-80000003D0000077D0000000000703591    GGSL
TXBWIC20030-18583-10850-10000004D0000102D0000000000703593    GGSL
TXBWIC20030-18583-10866-20000004D0000084D0000000000703600    GGSL
TXBWIC20030-18583-10916-40000001D0000024D0000000000703611    GGSL
TXBWIC20030-18583-10956-00000006D0000143D0000000000703619    GGSL
TXBWIC20030-18583-10957-70000002D0000048D0000000000703620    GGSL
TXBWIC20030-18583-10958-40000001D0000024D0000000000703621    GGSL
TXBWIC20030-18583-10959-10000001D0000024D0000000000703622    GGSL
TXBWIC20030-18583-11076-40000002D0000056D0000000000703635    GGSL
TXBWIC20030-18583-18497-00000003D0000077D0000000000703675    GGSL
TXBWIC20030-18583-18620-20000002D0000048D0000000000703685    GGSL
TXBWIC20030-18583-18621-90000001D0000024D0000000000703686    GGSL
TXBWIC20030-18583-18622-60000001D0000024D0000000000703687    GGSL
TXBWIC20030-18583-19356-90000003D0000213D000000000050MR2     GGSL
TXBWIC20030-18583-19424-50000001D0000050D0000000000703001    GGSL
TXBWIC20030-20279-99300-10000010D0000060D0000000000703932    GGSL
TXBWIC20030-20279-99500-50000020D0000240D0000000000703936    GGSL
TXBWIC20030-20279-99502-90000009D0000027D0000000000703937    GGSL
TXBWIC20030-20279-99509-80000003D0000011D0000000000703939    GGSL
TXBWIC20030-20279-99511-10000006D0000078D0000000000703940    GGSL
TXBWIC20030-20279-99548-70000001D0000005D0000000000703944    GGSL
TXBWIC20030-20279-99800-60000009D0000021D0000000000703955    GGSL
TXBWIC20030-20279-99801-30000032D0000025D0000000000703956    GGSL
TXBWIC20030-20279-99804-40000018D0000027D0000000000703958    GGSL
TXBWIC20030-21709-00449-60000096D0000292D00000000009134365   GGSL
TXBWIC20030-22179-10034-30000030D0001010D0000100000lg 5137   GGSL
TXBWIC20030-22179-10035-00000102D0005311D0012400000LG4110    GGSL
TXBWIC20030-22179-10089-30000012D0000113D0000000000lg5285    GGSL
TXBWIC20030-22179-10090-90000024D0000600D0000500002LG4300    GGSL
TXBWIC20030-22179-10108-10000012D0000095D0000000000LG7265    GGSL
TXBWIC20030-22179-10109-80000018D0000230D0000000000lg 5146   GGSL
TXBWIC20030-22179-10115-90000078D0001298D0002600000lg 5599   GGSL
TXBWIC20030-22179-10124-10000264D0001388D0003500002LG6515    GGSL
TXBWIC20030-22179-10139-50000084D0000360D0000300000LG1130    GGSL
TXBWIC20030-22179-10140-10000024D0002674D0008300000LG6520    GGSL
TXBWIC20030-22179-10150-00000112D0001091D00081000557115      GGSL
TXBWIC20030-22179-10151-70000068D0002698D00249000067117      GGSL
TXBWIC20030-22179-10185-20000222D0002308D0005700000LG6500    GGSL
TXBWIC20030-22179-10239-20000004D0000304D0000000000LG6155    GGSL
TXBWIC20030-22179-10246-00000156D0002430D0007100130LG6570    GGSL
TXBWIC20030-22179-10247-70000078D0001613D00365002047122      GGSL
TXBWIC20030-22179-10248-40000132D0001037D0001900000LG6575    GGSL
TXBWIC20030-22179-10266-80000012D0000179D0000000001LG6145    GGSL
TXBWIC20030-22179-10327-60000012D0000096D0000000000LG6148    GGSL
TXBWIC20030-22179-10365-80000030D0000197D0002000033lg 7129   GGSL
TXBWIC20030-22179-10366-50000024D0000208D0001000000LG7262    GGSL
TXBWIC20030-22179-10374-00000012D0000067D0000000000lg 6286   GGSL
TXBWIC20030-22179-10375-70000006D0000045D0000000000lg 6299   GGSL
TXBWIC20030-22179-10376-40000008D0000152D0000100001LG6292    GGSL
TXBWIC20030-22179-10378-80000054D0000383D0000200001lg6274    GGSL
TXBWIC20030-22179-10390-00000036D0000297D0003000011LG6332    GGSL
TXBWIC20030-22179-10391-70000012D0000175D0000000004LG6336    GGSL
TXBWIC20030-22179-10395-50000021D0000569D0005100009LG6356    GGSL
TXBWIC20030-22179-10399-30000024D0000130D0000200003LG7198    GGSL
TXBWIC20030-22179-10408-20000024D0000188D0002700033LG 6338   GGSL
TXBWIC20030-22179-10429-70000036D0000533D0003300039LG6334    GGSL
TXBWIC20030-22179-10454-90000042D0000413D0001300019lg 3303   GGSL
TXBWIC20030-22179-10458-70000144D0001307D0000400001lg 3234   GGSL
TXBWIC20030-22179-10459-40000018D0000212D0000000000lg3235    GGSL
TXBWIC20030-22179-10519-50000006D0000079D0000500000lg 6544   GGSL
TXBWIC20030-22401-00110-30000250D0002922D0000000000MDC-20    GGSL
TXBWIC20030-22401-00115-80000495D0003925D0023600022MDC-15    GGSL
TXBWIC20030-22401-00301-50000006D0000061D0005500004THD-20    GGSL
TXBWIC20030-22401-00510-10000050D0000197D0000800000SK-B      GGSL
TXBWIC20030-22401-00721-10000090D0000766D0000000000DBR-20    GGSL
TXBWIC20030-22401-10088-20000105D0002340D0017100024EAR-60    GGSL
TXBWIC20030-22401-10089-90000008D0000115D0000000000BBC-20LB  GGSL
TXBWIC20030-23077-00104-60000751D0002805D002130006452050326  GGSL
TXBWIC20030-23077-00107-70000195D0000389D000000000050055010  GGSL
TXBWIC20030-23077-00109-10001235D0003458D000090000250055071  GGSL
TXBWIC20030-23077-00204-30001690D0005059D006560042052055472  GGSL
TXBWIC20030-23077-00205-00014439D0042718D076060140552055475  GGSL
TXBWIC20030-23077-00207-40000375D0001224D000010000052055477  GGSL
TXBWIC20030-23077-00208-10003836D0014419D008410016652050320  GGSL
TXBWIC20030-23077-00209-80004130D0013236D010330083350055016  GGSL
TXBWIC20030-23077-00210-40008993D0027125D049480068452058069  GGSL
TXBWIC20030-23077-00212-80006437D0019685D043560059252058058  GGSL
TXBWIC20030-23077-00213-50003168D0009406D011280060552058059  GGSL
TXBWIC20030-23077-00303-30000056D0000197D000000000040105120  GGSL
TXBWIC20030-23077-00504-40000112D0000387D000000000140200451  GGSL
TXBWIC20030-23077-01900-30000010D0000058D0000000000NG190     GGSL
TXBWIC20030-23077-19142-60000323D0005912D0021300000          GGSL
TXBWIC20030-23077-41518-80000398D0003776D0026100003          GGSL
TXBWIC20030-23077-52600-60001308D0010829D0156400065NG526     GGSL
TXBWIC20030-23534-00428-80000395D0014586D03166002481664288H  GGSL
TXBWIC20030-23626-00595-20000012D0000420D00000000005316362   GGSL
TXBWIC20030-23626-00860-10000024D0000203D0000100000116348    GGSL
TXBWIC20030-23626-01710-80000246D0001062D0005800000800       GGSL
TXBWIC20030-23626-01720-70000144D0000839D0006600001000900    GGSL
TXBWIC20030-23626-02830-20000008D0000094D0006400000116841    GGSL
TXBWIC20030-23626-04055-70000024D0000131D00000000003512845   GGSL
TXBWIC20030-23626-07002-80000016D0000493D0000000000112825    GGSL
TXBWIC20030-23851-01019-60000004D0000027D00000000003101019   GGSL
TXBWIC20030-23851-01030-10000002D0000012D00000000003101030   GGSL
TXBWIC20030-23851-01042-40000002D0000027D00000000003101042   GGSL
TXBWIC20030-23851-01043-10000032D0000278D00000000003101043   GGSL
TXBWIC20030-23851-01045-50000025D0000331D00000000003101045   GGSL
TXBWIC20030-23851-01046-20000030D0000243D00000000003101046   GGSL
TXBWIC20030-23851-01047-90000009D0000205D00000000003101047   GGSL
TXBWIC20030-23851-01050-90000004D0000032D00000000003101050   GGSL
TXBWIC20030-23851-01051-60000017D0000089D00000000003101051   GGSL
TXBWIC20030-23851-01052-30000003D0000015D00000000003101052   GGSL
TXBWIC20030-23851-01057-80000001D0000006D00000000003101057   GGSL
TXBWIC20030-23851-01058-50000007D0000047D00000000003101058   GGSL
TXBWIC20030-23851-01063-90000007D0000035D00000000003101063   GGSL
TXBWIC20030-23851-01132-20000002D0000013D00000000003101132   GGSL
TXBWIC20030-23851-01312-80000018D0000180D00000000003101312   GGSL
TXBWIC20030-23851-01367-80000004D0000021D00000000003101367   GGSL
TXBWIC20030-23883-00001-10000456D0007730D0012300028G362      GGSL
TXBWIC20030-23883-00002-80000168D0000697D0004700010G385      GGSL
TXBWIC20030-23883-00003-50000078D0000302D0008100005G390      GGSL
TXBWIC20030-23883-01002-70000161D0001319D00230000131002      GGSL
TXBWIC20030-23883-04701-60000008D0000220D00000000504701      GGSL
TXBWIC20030-23883-05000-90000014D0000155D00171000075000      GGSL
TXBWIC20030-23883-08620-60000001D0000166D00000000008620B     GGSL
TXBWIC20030-23883-15710-40002061D0015867D102220084415710     GGSL
TXBWIC20030-23883-16100-20000734D0006018D000070000416100     GGSL
TXBWIC20030-23883-26011-80000089D0002490D000900001826011XP   GGSL
TXBWIC20030-23883-26021-70000160D0004610D009120029226021XP   GGSL
TXBWIC20030-23883-26031-60000050D0001958D001050000726031XP   GGSL
TXBWIC20030-23883-27010-00000047D0000969D000870000827010     GGSL
TXBWIC20030-23883-27020-90000268D0005826D002380002827020     GGSL
TXBWIC20030-23883-27030-80000064D0001649D000750001727030     GGSL
TXBWIC20030-23883-60100-30000190D0009158D002730003160100     GGSL
TXBWIC20030-23883-61800-10000008D0000453D000000003261800     GGSL
TXBWIC20030-23883-61925-10000001D0000009D00000000066-1925    GGSL
TXBWIC20030-23883-63924-20000013D0002128D000690000063924     GGSL
TXBWIC20030-23883-64601-10000001D0000014D00018000006-4601    GGSL
TXBWIC20030-23883-67711-40000004D0000042D00013000016-7711    GGSL
TXBWIC20030-23883-68061-90000002D0000058D00033000006-8061    GGSL
TXBWIC20030-23883-80000-00000015D0000629D00005000128000A     GGSL
TXBWIC20030-23883-84000-60000015D0000885D00002000008701B     GGSL
TXBWIC20030-23883-84600-80000040D0001357D000000000084700A    GGSL
TXBWIC20030-23883-97100-70000006D0002932D000330000097100     GGSL
TXBWIC20030-23883-97361-20000005D0000836D000280000097361     GGSL
TXBWIC20030-23883-97561-60000003D0000559D000290000097561     GGSL
TXBWIC20030-24114-74254-40000001D0000050D0000000000          GGSL
TXBWIC20030-24114-77788-70000001D0000547D0000000000          GGSL
TXBWIC20030-24654-05102-70000006D0000028D00000000005102-6    GGSL
TXBWIC20030-24654-09334-80000028D0000733D00077000069334      GGSL
TXBWIC20030-24654-51806-30000006D0000029D00000000005180-6    GGSL
TXBWIC20030-24654-55110-70000324D0000809D00093000015110-6    GGSL
TXBWIC20030-24654-55118-30000114D0000813D00081000005118.0    GGSL
TXBWIC20030-24654-65452-50000006D0000031D00000000005452-6    GGSL
TXBWIC20030-25531-00350-40000001D0000031D00003000007511I     GGSL
TXBWIC20030-25626-00000-00000327D0006145D9953900006          GGSL
TXBWIC20030-25784-30302-40000002D0000019D00000000001530302   GGSL
TXBWIC20030-25784-35130-80000002D0000006D0000000000703752    GGSL
TXBWIC20030-25845-12354-70000024D0000029D000000000524951     GGSL
TXBWIC20030-26978-08082-00000006C0000029C000000000008082     GGSL
TXBWIC20030-26978-08142-10000022C0000029C000000000008142.03  GGSL
TXBWIC20030-26978-08162-90000162C0000029C000000000008162.03  GGSL
TXBWIC20030-26978-17000-90000007D0000360D000000000017000     GGSL
TXBWIC20030-26978-17008-50000008D0000412D000000000017008     GGSL
TXBWIC20030-26978-30200-70000002D0000041D000000000030200     GGSL
TXBWIC20030-26978-30301-10000468D0002396D000430000730301     GGSL
TXBWIC20030-26978-30500-80000020D0000091D000000000030500     GGSL
TXBWIC20030-26978-30809-20000024D0000096D000000000030809     GGSL
TXBWIC20030-26978-30901-30000020D0000092D000000000030901     GGSL
TXBWIC20030-26978-30909-90000040D0000161D000000000030909     GGSL
TXBWIC20030-26978-34088-70000006C0000161C000000000034088     GGSL
TXBWIC20030-26978-35190-60000028C0000161C000000000035190     GGSL
TXBWIC20030-26978-38148-40000048D0000257D000000000038148     GGSL
TXBWIC20030-26978-38198-90000012D0000146D000000000038198     GGSL
TXBWIC20030-26978-39128-50000048D0000183D000000000039128     GGSL
TXBWIC20030-26978-70811-00000020D0000039D000000000070811     GGSL
TXBWIC20030-27324-55140-70000095D0000594D002040000040105130  GGSL
TXBWIC20030-28009-11225-80007085D0032755D00634003311225.0    GGSL
TXBWIC20030-28009-11227-20000054D0000113D00000000001227.0    GGSL
TXBWIC20030-28009-11250-00014693D0109628D01243011381250.0    GGSL
TXBWIC20030-28009-11420-70001744D0007358D00000001311420P     GGSL
TXBWIC20030-28009-11438-20000150D0003478D00000000001438      GGSL
TXBWIC20030-28009-11440-50005265D0036055D00458006551440P     GGSL
TXBWIC20030-28009-11550-10000450D0002175D00000000001550P     GGSL
TXBWIC20030-28009-11638-60000090D0001050D00001000001638      GGSL
TXBWIC20030-28009-11640-90000540D0003000D00006000041640      GGSL
TXBWIC20030-28009-11925-70000065D0000454D00000000001925      GGSL
TXBWIC20030-28009-15240-70000875D0003977D00556000105240.0    GGSL
TXBWIC20030-28009-15440-10000001D0000316D00003000005440.0    GGSL
TXBWIC20030-28009-15440-30000840D0005412D00000000011840      GGSL
TXBWIC20030-28009-15450-00000168D0000722D00358000005450.0    GGSL
TXBWIC20030-28009-15540-80003370D0011636D01434002455540.0    GGSL
TXBWIC20030-28009-15720-40000041D0000144D00151000005720.0    GGSL
TXBWIC20030-28009-15740-20001519D0006333D00522005115740.0    GGSL
TXBWIC20030-30541-00067-20000042D0000387D0001900001JCD-100FGPGGSL
TXBWIC20030-30541-01020-60000120D0000279D0002800001JCD-024SM GGSL
TXBWIC20030-30541-01030-50000036D0000321D0003100003JCD-100SMJGGSL
TXBWIC20030-30541-01034-30000015D0000295D0012700000JCD-030SM GGSL
TXBWIC20030-30541-01091-60000001D0000052D0000000000JCD-08SC  GGSL
TXBWIC20030-30541-08878-60000072D0000212D0000000000SMMS      GGSL
TXBWIC20030-30641-09801-20000072D0000180D0000900002SWPDQ     GGSL
TXBWIC20030-30641-32937-60000072D0000118D0000600000RPDQ      GGSL
TXBWIC20030-30641-33935-10000108D0000164D0000500000YPDQ      GGSL
TXBWIC20030-30641-35936-60000144D0000234D0001200001WPDQ      GGSL
TXBWIC20030-30907-00548-80000004D0000069D00000000009600548   GGSL
TXBWIC20030-30907-03488-40000001D0000020D00000000009607701   GGSL
TXBWIC20030-30907-03494-50000002D0000046D00000000009677050   GGSL
TXBWIC20030-30907-03581-20000001D0000023D00000000009677125   GGSL
TXBWIC20030-30907-03598-00000002D0000038D00000000009607713   GGSL
TXBWIC20030-30907-03749-60000001D0000027D00000000009679025   GGSL
TXBWIC20030-30907-03750-20000001D0000027D00000000009679050   GGSL
TXBWIC20030-30907-03751-90000001D0000027D00000000009679075   GGSL
TXBWIC20030-30907-03752-60000001D0000027D00000000009679100   GGSL
TXBWIC20030-30907-03766-30000008D0000197D00000000009607903   GGSL
TXBWIC20030-30907-04165-30000015D0000482D00000000009604165   GGSL
TXBWIC20030-30907-04166-00000002D0000317D00000000009604166   GGSL
TXBWIC20030-30907-04735-80000002D0000032D00000000009604735   GGSL
TXBWIC20030-30907-04924-60000012D0001344D00000000006800031   GGSL
TXBWIC20030-30907-04974-10000003D0000018D00000000009602563   GGSL
TXBWIC20030-30907-05445-50000083C0000018C00000000009600495   GGSL
TXBWIC20030-30907-05675-60000018D0000101D00000000009640001   GGSL
TXBWIC20030-30907-05984-90000005D0000220D00000000009603730   GGSL
TXBWIC20030-30907-06208-50000020D0001163D00000000009605124   GGSL
TXBWIC20030-30907-06212-20000003D0000062D00000000009606380   GGSL
TXBWIC20030-30907-06215-30000004D0000102D00000000006800074   GGSL
TXBWIC20030-32221-10434-20000144D0002664D000380000210434     GGSL
TXBWIC20030-32221-10505-90000468D0002145D000520000710505     GGSL
TXBWIC20030-32221-10720-00000252D0001405D000500000110720     GGSL
TXBWIC20030-32221-10768-80000110D0003319D007520000010768     GGSL
TXBWIC20030-32221-10885-20000771D0011504D003680042610885     GGSL
TXBWIC20030-32221-11008-40002196D0001388D000810000111008     GGSL
TXBWIC20030-32221-11695-00001051D0016869D009600000911695     GGSL
TXBWIC20030-32221-31063-70000012D0000274D000010000631063     GGSL
TXBWIC20030-32221-31228-00000360D0001051D000200000131228     GGSL
TXBWIC20030-32221-32297-50000228D0003901D000200000132297     GGSL
TXBWIC20030-32221-32325-50000108D0000628D000100000032325     GGSL
TXBWIC20030-32221-33033-80000576D0004152D000440000033033     GGSL
TXBWIC20030-32221-33035-20000756D0006894D000370000633035     GGSL
TXBWIC20030-32221-33326-10001595D0013406D024670004333326     GGSL
TXBWIC20030-32221-33327-80000648D0008624D015140010033327     GGSL
TXBWIC20030-32221-33704-70002550D0088713D021730023133704     GGSL
TXBWIC20030-32221-40712-20000672D0007099D000460000240712     GGSL
TXBWIC20030-32221-40730-60000012D0000120D001600000040730     GGSL
TXBWIC20030-32221-43040-30000144D0000738D000130000042194     GGSL
TXBWIC20030-32221-57705-00000912D0005343D000450002311685     GGSL
TXBWIC20030-32247-00000-00000036D0000660D000200000117185     GGSL
TXBWIC20030-32247-00900-30000234D0000691D00029000021009001   GGSL
TXBWIC20030-32247-00910-20000156D0000480D00011000001009101   GGSL
TXBWIC20030-32247-00950-80000036D0000105D00010000001009501   GGSL
TXBWIC20030-32247-03115-80000009D0000590D000410000031115     GGSL
TXBWIC20030-32247-03313-80000665D0013842D00148000233313B     GGSL
TXBWIC20030-32247-03594-10000791D0004667D001720000070359430  GGSL
TXBWIC20030-32247-05514-70011781D0042483D017600077370551430  GGSL
TXBWIC20030-32247-10500-20000348D0002813D0005600001110500    GGSL
TXBWIC20030-32247-11307-60010804D0020090D009420070871130756  GGSL
TXBWIC20030-32247-13581-80000008D0000143D00005000001358101   GGSL
TXBWIC20030-32247-14901-30000008D0000120D000000000014901     GGSL
TXBWIC20030-32247-14902-00000016D0000249D000010000014902     GGSL
TXBWIC20030-32247-14905-10001560D0009732D000390000014905     GGSL
TXBWIC20030-32247-15307-20000565D0001090D000720008571530751  GGSL
TXBWIC20030-32247-17183-00000054D0000428D000170000017183     GGSL
TXBWIC20030-32247-17187-80000012D0000536D000110000017187     GGSL
TXBWIC20030-32247-17290-50000144D0001256D000080000017290     GGSL
TXBWIC20030-32247-17293-60000042D0000346D000110000017293     GGSL
TXBWIC20030-32247-17295-00000044D0000856D000070000017295     GGSL
TXBWIC20030-32247-17323-00000042D0000336D000270000017323     GGSL
TXBWIC20030-32247-17325-40000040D0000650D000090000017325     GGSL
TXBWIC20030-32247-17327-80000031D0001059D000830000017327     GGSL
TXBWIC20030-32247-17423-70000006D0000058D000000000017530     GGSL
TXBWIC20030-32247-17488-60000004D0000099D000000000017590     GGSL
TXBWIC20030-32247-17501-20000018D0000235D000060000017508     GGSL
TXBWIC20030-32247-17511-10000006D0000084D000180000017511     GGSL
TXBWIC20030-32247-17582-10000042D0000471D000000000017582     GGSL
TXBWIC20030-32247-17943-00000008D0000186D000000000017943     GGSL
TXBWIC20030-32247-18103-70000006D0000103D000000000018103     GGSL
TXBWIC20030-32247-18221-80000012D0000262D000160000018221     GGSL
TXBWIC20030-32247-18225-60000072D0000726D000610000318225     GGSL
TXBWIC20030-32247-18251-50000008D0000244D000030000018251     GGSL
TXBWIC20030-32247-18266-90000012D0000140D000260000118266     GGSL
TXBWIC20030-32247-18272-00000012D0000055D000190000018272     GGSL
TXBWIC20030-32247-18320-80000018D0000147D000270000018320     GGSL
TXBWIC20030-32247-18346-80000008D0000146D000110000018346     GGSL
TXBWIC20030-32247-18348-20000006D0000092D000170000018348     GGSL
TXBWIC20030-32247-18350-50000551C0000092C001580000018350     GGSL
TXBWIC20030-32247-18353-60000144D0003168D000850000118353     GGSL
TXBWIC20030-32247-18354-30000006D0000068D000180000018354     GGSL
TXBWIC20030-32247-18362-80000078D0002721D000000000018362     GGSL
TXBWIC20030-32247-18391-80000040D0000320D000000000018391     GGSL
TXBWIC20030-32247-19003-90000002D0000074D000090000019003     GGSL
TXBWIC20030-32247-19594-20000195D0001327D003210001071959430  GGSL
TXBWIC20030-32247-20605-10000601D0009798D000870002621605     GGSL
TXBWIC20030-32247-20784-30001080D0003277D003340000372078430  GGSL
TXBWIC20030-32247-20785-00000024D0000082D000000000172078500  GGSL
TXBWIC20030-32247-20814-70000012D0000487D000000000021814     GGSL
TXBWIC20030-32247-21030-00000081D0001839D002890016021030A    GGSL
TXBWIC20030-32247-21701-90000396D0002832D000060000021701     GGSL
TXBWIC20030-32247-22305-80000075D0001155D001130000022305     GGSL
TXBWIC20030-32247-23200-50000044D0001360D000040000023200     GGSL
TXBWIC20030-32247-23405-40000441D0005271D003080000323405B    GGSL
TXBWIC20030-32247-23415-30000003D0000116D000290000023415     GGSL
TXBWIC20030-32247-25006-10000396D0008076D005670005425006A    GGSL
TXBWIC20030-32247-25009-20000045D0002465D000090000025009     GGSL
TXBWIC20030-32247-26003-90000186D0004183D001560000326003D    GGSL
TXBWIC20030-32247-26007-70000284D0006279D000490000226007B    GGSL
TXBWIC20030-32247-26784-70000132D0000430D000430013772678430  GGSL
TXBWIC20030-32247-27791-40000360D0000664D000000000372779180  GGSL
TXBWIC20030-32247-30156-50000305C0000000D000000000030156     GGSL
TXBWIC20030-32247-30177-00000093D0001310D000000000030177     GGSL
TXBWIC20030-32247-33020-60000030D0001368D001350000033020     GGSL
TXBWIC20030-32247-34161- 0000002D0000012D000010000034161     GGSL
TXBWIC20030-32247-35594-00000800D0004480D000000000073559430  GGSL
TXBWIC20030-32247-35605-30000129D0002659D001200000044615A    GGSL
TXBWIC20030-32247-36605-20000786D0013610D003310000099605     GGSL
TXBWIC20030-32247-37594-80002576D0013188D005550020173759430  GGSL
TXBWIC20030-32247-37610-50000421D0005360D002130000037610A    GGSL
TXBWIC20030-32247-38605-00000040D0000508D000200000038605D    GGSL
TXBWIC20030-32247-38615-90000031C0000508C000140000038615     GGSL
TXBWIC20030-32247-39181-80000002D0000050D000000000039181     GGSL
TXBWIC20030-32247-39594-60001096D0008712D016080013573959430  GGSL
TXBWIC20030-32247-39605-90000437D0006496D000010000039605     GGSL
TXBWIC20030-32247-39615-80007736C0006496C000000000039615     GGSL
TXBWIC20030-32247-42784-50000234D0000695D000650000074278430  GGSL
TXBWIC20030-32247-43850-60000720D0015435D00010000004385010   GGSL
TXBWIC20030-32247-43854-40000064D0000584D00002000004385404   GGSL
TXBWIC20030-32247-43860-50000076D0001284D00007000004386004   GGSL
TXBWIC20030-32247-45651-70000312D0002441D003760005845651300  GGSL
TXBWIC20030-32247-47783-30000078D0000257D000270000074778300  GGSL
TXBWIC20030-32247-49013-90000049D0000977D000170000049013     GGSL
TXBWIC20030-32247-49019-10000053D0000631D000740002549019     GGSL
TXBWIC20030-32247-49021-40000015D0000370D000400000149021     GGSL
TXBWIC20030-32247-49024-50000549C0000000D000770002749024     GGSL
TXBWIC20030-32247-49785-50000660D0001970D001080000574978500  GGSL
TXBWIC20030-32247-50084-50000048D0000832D00002000005008410   GGSL
TXBWIC20030-32247-50086-90000036D0000636D00004000015008610   GGSL
TXBWIC20030-32247-50087-60000150D0002337D00009000005008710   GGSL
TXBWIC20030-32247-50088-30000054D0000841D00006000045008810   GGSL
TXBWIC20030-32247-50089-00000012D0000283D00024000005008910   GGSL
TXBWIC20030-32247-50154-50000143D0001027D002590000045015430  GGSL
TXBWIC20030-32247-50524-60020370D0123306D006520069975052430  GGSL
TXBWIC20030-32247-51064-60000012D0000115D000000000051064     GGSL
TXBWIC20030-32247-51105-60000284D0003234D003500001651105     GGSL
TXBWIC20030-32247-51115-50001123D0033594D001200000851115     GGSL
TXBWIC20030-32247-52524-40017760D0004722D001010000485252430  GGSL
TXBWIC20030-32247-52784-20000144D0000422D000650000085278430  GGSL
TXBWIC20030-32247-53105-40000234D0001870D003190000053105     GGSL
TXBWIC20030-32247-53115-30001045D0022114D000000000053115     GGSL
TXBWIC20030-32247-54105-30000012D0000057D00000000005410510   GGSL
TXBWIC20030-32247-55513-50003802D0026112D005780019875551300  GGSL
TXBWIC20030-32247-55523-40003195D0036338D011510040175552300  GGSL
TXBWIC20030-32247-55783-20000312D0001264D000940000175578300  GGSL
TXBWIC20030-32247-55863-10000100D0000585D001780018275586300  GGSL
TXBWIC20030-32247-56063-40000056D0000233D000290000045606300  GGSL
TXBWIC20030-32247-56513-40024065D0148416D035730073575651300  GGSL
TXBWIC20030-32247-56523-30034898D0347240D023530125775652300  GGSL
TXBWIC20030-32247-56783-10011640D0037778D004040004875678300  GGSL
TXBWIC20030-32247-56863-00002138D0011634D015670024575686300  GGSL
TXBWIC20030-32247-57905-60000100D0000955D000000000057905     GGSL
TXBWIC20030-32247-60594-60000905D0005422D005190000076059430  GGSL
TXBWIC20030-32247-71060-20001206D0012566D001660002571060     GGSL
TXBWIC20030-32247-71131-90000334D0005337D001030000671131     GGSL
TXBWIC20030-32247-74150-70001644D0007283D0020400012274150    GGSL
TXBWIC20030-32247-74250-40001632D0010096D0014200016274250    GGSL
TXBWIC20030-32247-74850-60000600D0009124D0021700012274850    GGSL
TXBWIC20030-32247-75902-10000114D0007547D000490000375902     GGSL
TXBWIC20030-32247-76121-50000891D0025559D001510000276121     GGSL
TXBWIC20030-32247-76232-80000213D0011295D000250000176232     GGSL
TXBWIC20030-32247-76565-70000018D0000927D000150000076565     GGSL
TXBWIC20030-32247-77160-30001440D0005996D0013900013277160    GGSL
TXBWIC20030-32247-77260-00001644D0010751D0015300006277260    GGSL
TXBWIC20030-32247-77860-20000108D0001452D0001100007277860    GGSL
TXBWIC20030-32247-77960-90000692D0012285D0019900017277960    GGSL
TXBWIC20030-32247-84526-70000120D0000386D000000000088452600  GGSL
TXBWIC20030-32247-84594-60000390D0001356D000000000088459410  GGSL
TXBWIC20030-32247-85526-60000120D0000386D000020000088552600  GGSL
TXBWIC20030-32247-85594-50000065D0000241D000000000088559410  GGSL
TXBWIC20030-32247-86526-50000060D0000193D000040000088652600  GGSL
TXBWIC20030-32247-86594-40000390D0001356D000000000088659410  GGSL
TXBWIC20030-32247-95517-10000180D0000695D004080000079551750  GGSL
TXBWIC20030-32247-95597-30000373C0000695C000040000079559750  GGSL
TXBWIC20030-32584-94505-70000002D0000009D00000000005594505   GGSL
TXBWIC20030-32584-94506-40000026D0000132D00000000005594506   GGSL
TXBWIC20030-32584-94507-10000006D0000026D00000000005594507   GGSL
TXBWIC20030-32584-94509-50000016D0000078D00000000005594509   GGSL
TXBWIC20030-32584-94510-10000006D0000033D00000000005594510   GGSL
TXBWIC20030-32584-94515-60000004D0000024D00000000005594515   GGSL
TXBWIC20030-32903-00169-30000168D0000190D0000300003SLI06000E3GGSL
TXBWIC20030-32903-00309-30000216D0000431D0002500000SLI10000E3GGSL
TXBWIC20030-32903-00341-30000018D0000139D0000000001SLI24000E3GGSL
TXBWIC20030-32903-00359-80000096D0000144D0000800000SLI08000E3GGSL
TXBWIC20030-32903-12006-60000168D0000273D0000900001LIA06000E3GGSL
TXBWIC20030-32903-12008-00000192D0000468D0001000002LIA08000E3GGSL
TXBWIC20030-32903-12010-30000228D0000838D0004000002LIA10000E3GGSL
TXBWIC20030-32903-12012-70000168D0000993D0002500001LIA12000E3GGSL
TXBWIC20030-32903-12014-10000144D0001086D0002500002LIA14000E3GGSL
TXBWIC20030-32903-12017-20000156D0001944D0001500000LIA16000E3GGSL
TXBWIC20030-32903-12020-20000066D0001033D0000500000LIA20000E3GGSL
TXBWIC20030-32903-12324-10000012D0000042D0000600001SVN24000E3GGSL
TXBWIC20030-32903-12714-00000132D0000765D0001800001GAB14000E3GGSL
TXBWIC20030-32903-12718-80000060D0000525D0001400001GAB18000E3GGSL
TXBWIC20030-32903-12722-50000036D0000501D0001000000GAB22000E3GGSL
TXBWIC20030-32903-12818-50000078D0000448D0002200001VNP18000E3GGSL
TXBWIC20030-32903-12824-60000150D0000944D0000200003VNP24000E3GGSL
TXBWIC20030-32903-50763-80000156D0000507D0001500000SLI12000E3GGSL
TXBWIC20030-32903-50802-40000132D0000462D0002500002SLI14000E3GGSL
TXBWIC20030-32903-72518-60000040D0000297D0000900000RZ.WC2G0B9GGSL
TXBWIC20030-32903-75049-20000024D0000147D0000500001SLI20000E3GGSL
TXBWIC20030-32903-75067-60000008D0000251D0000000000TEA24000A3GGSL
TXBWIC20030-32903-75080-50000120D0000455D0001100001SLI17000E3GGSL
TXBWIC20030-32903-91485-60000111C0000455C0000000000SPX24DB0A3GGSL
TXBWIC20030-33349-00000-00106232D0006140D000620000970000362  GGSL
TXBWIC20030-33607-00001-50000052D0001260D0000000036GBA-1     GGSL
TXBWIC20030-33607-00953-40000036D0000879D0002300021SP-33     GGSL
TXBWIC20030-33745-97185-40000030D0000722D004880000297185     GGSL
TXBWIC20030-34141-00011-70000249D0001969D0048700000YCBSM3CF-PGGSL
TXBWIC20030-34141-00012-40000221D0001817D0162600000YCBSI3CF-PGGSL
TXBWIC20030-34411-74251-80000024D0000311D0002800000874251-100GGSL
TXBWIC20030-34411-74501-40000018D0000398D0003500001874501-100GGSL
TXBWIC20030-34411-74751-30000004D0000119D0003100000874751-100GGSL
TXBWIC20030-34417-00000-00002450D0005234D000140000250055077  GGSL
TXBWIC20030-34417-53000-30011393D0038475D010080017452050327  GGSL
TXBWIC20030-34613-00002-70000430D0003148D0070400191LH002     GGSL
TXBWIC20030-34613-00003-40000096D0000898D0017400033LH003     GGSL
TXBWIC20030-34613-00004-10000337D0002480D0069300203LH004     GGSL
TXBWIC20030-34613-00005-80000010D0000140D0005600000LH005     GGSL
TXBWIC20030-34613-00006-50000291D0002148D0008800018LH006     GGSL
TXBWIC20030-34613-00022-50000016D0000195D0001300013LH022     GGSL
TXBWIC20030-34613-00029-40000018D0000218D00051000118205      GGSL
TXBWIC20030-34613-00060-70000006D0000056D0000300007TP60      GGSL
TXBWIC20030-34613-00555-80000012D0000018D0000000000555BL     GGSL
TXBWIC20030-34613-03603-30000015D0000067D0000800010U3603     GGSL
TXBWIC20030-34613-04850-00000498D0001743D00000000963104BL    GGSL
TXBWIC20030-34613-04855-50000006D0000077D00000000008402BL    GGSL
TXBWIC20030-34613-04870-80000144D0000684D0000000000LH015BL   GGSL
TXBWIC20030-34613-05900-10000006D0000034D00000000005900BL    GGSL
TXBWIC20030-34613-07170-60000180D0000018D00000000007170BL    GGSL
TXBWIC20030-34613-07378-60000012D0000064D00000000007378BL    GGSL
TXBWIC20030-34613-07379-30000012D0000106D00000000007379BL    GGSL
TXBWIC20030-34613-07380-90000012D0000142D00000000007380BL    GGSL
TXBWIC20030-34613-07757-90000240D0000920D00013000007757BL    GGSL
TXBWIC20030-34613-07758-60000312D0001200D00000000007758BL    GGSL
TXBWIC20030-34613-07759-30000312D0001198D00000000007759BL    GGSL
TXBWIC20030-34613-08141-50000010D0000001D00003000004992BL    GGSL
TXBWIC20030-34613-12812-70000144D0001968D0000200003SMG12812  GGSL
TXBWIC20030-34613-34009-30000001D0000009D00017000002130      GGSL
TXBWIC20030-34613-70052-10000084D0001023D000080001670052     GGSL
TXBWIC20030-34613-70791-90000120D0001698D000000017470285BL   GGSL
TXBWIC20030-34613-71087-20000432D0001774D000000008971087BL   GGSL
TXBWIC20030-34613-71660-70000048D0000210D000000000071660QPD  GGSL
TXBWIC20030-35307-00820-60000120D0000164D0001400014820       GGSL
TXBWIC20030-35307-00826-80000072D0000109D0001300013826       GGSL
TXBWIC20030-35307-00828-20000024D0000040D0001400000828       GGSL
TXBWIC20030-35307-00843-50000012D0000031D0000000000843       GGSL
TXBWIC20030-35307-00844-20000036D0000073D0001200000844       GGSL
TXBWIC20030-35307-00848-00000012D0000020D0000400001848       GGSL
TXBWIC20030-35307-00861-90000048D0000096D0000900006861       GGSL
TXBWIC20030-35307-00862-60000024D0000056D0000300000862       GGSL
TXBWIC20030-35307-00874-90000324D0000445D0002400000874       GGSL
TXBWIC20030-35307-00895-40000001D0000490D0000000000895       GGSL
TXBWIC20030-35307-01601-00000114D0001286D00020000021601      GGSL
TXBWIC20030-35307-01609-60000252D0000961D00028000191609CS    GGSL
TXBWIC20030-35307-01618-80000030D0000163D00002000011618      GGSL
TXBWIC20030-35307-01635-50000003D0000046D00000000001635      GGSL
TXBWIC20030-35307-01699-70000006C0000046C0000100000B1699     GGSL
TXBWIC20030-35307-01810-60000311D0001337D00583000241810      GGSL
TXBWIC20030-35307-01815-10000139D0000832D00311000241815      GGSL
TXBWIC20030-35307-01825-00000072D0000522D00013000291825      GGSL
TXBWIC20030-35307-01840-30000054D0000810D00026000001840      GGSL
TXBWIC20030-35355-00000-00000017D0002499D00000000004960BLD   GGSL
TXBWIC20030-35355-00072-60000012D0000130D0000000005TP72      GGSL
TXBWIC20030-35355-00802-90000080D0000060D0003200047SS2       GGSL
TXBWIC20030-35355-00803-60000080D0000060D0003500041SS3       GGSL
TXBWIC20030-35355-00806-70000300D0000711D0005300022SS6       GGSL
TXBWIC20030-35355-00807-40000010D0000052D0000000000SS7-HD    GGSL
TXBWIC20030-35355-00924-80000183D0001711D0036600034924       GGSL
TXBWIC20030-35355-01151-70000050D0000225D00007000091151PDQ   GGSL
TXBWIC20030-35355-01160-90000006D0000012D00001000881160      GGSL
TXBWIC20030-35355-03105-80000780D0003981D00047000343105      GGSL
TXBWIC20030-35355-05945-80000552D0007590D00072000065945      GGSL
TXBWIC20030-35355-25011-80000004D0000000D0001500000MDSLH     GGSL
TXBWIC20030-35355-70201-90000256D0002648D000010000070201HP   GGSL
TXBWIC20030-35355-96006-80000006D0000048D000020001896006     GGSL
TXBWIC20030-35951-07011-60000001D0000087D000600000007011     GGSL
TXBWIC20030-36348-00610-70000156D0000729D00038000000610      GGSL
TXBWIC20030-36348-00645-90000049D0000572D0015700000645       GGSL
TXBWIC20030-36348-01020-30000003D0000047D00027000001020      GGSL
TXBWIC20030-36348-01030-20000002D0000086D00009000001030      GGSL
TXBWIC20030-36348-01045-60000002D0000126D00000000001045      GGSL
TXBWIC20030-36348-01078-40000002D0000080D00001000021078      GGSL
TXBWIC20030-36348-01079-10000010D0000489D00083000001079      GGSL
TXBWIC20030-36348-01084-50000018D0000504D00011000701084      GGSL
TXBWIC20030-36348-21079-50000040D0000831D00003000001079T     GGSL
TXBWIC20030-36348-56006-70000042D0000501D0001400002DO5600-6  GGSL
TXBWIC20030-36434-00000-00000233D0014301D001410002610-12420  GGSL
TXBWIC20030-36434-07020-00000006D0000093D00000000001017020   GGSL
TXBWIC20030-36434-10000-00000042D0000459D00005000191013620   GGSL
TXBWIC20030-36434-10012-20000096D0001253D000240000210-10012  GGSL
TXBWIC20030-36434-11000-80000261D0002627D001890014760-11000  GGSL
TXBWIC20030-36434-12340-40000006D0000012D00000000006012340   GGSL
TXBWIC20030-36434-12342-80000039D0000261D001330000160-12342  GGSL
TXBWIC20030-36434-12343-50000033D0000300D000530001260-12343  GGSL
TXBWIC20030-36434-12345-90000072D0000739D000130000110-12345  GGSL
TXBWIC20030-36434-12346-60000311D0001441D004610007660-12346  GGSL
TXBWIC20030-36434-12348-00000008D0000076D000040000010-12348  GGSL
TXBWIC20030-36434-12349-70000050D0000212D000880000060-12349  GGSL
TXBWIC20030-36434-12353-40000210D0003511D003480002260-12353  GGSL
TXBWIC20030-36434-12354-10000062D0000400D000640002010-12354  GGSL
TXBWIC20030-36434-12355-80000088D0000635D002290003510-12355  GGSL
TXBWIC20030-36434-12356-50000191D0001559D002080007510-12356  GGSL
TXBWIC20030-36434-12357-20000093D0000823D001110001810-12357  GGSL
TXBWIC20030-36434-12450-20000012D0000196D00000000006012450   GGSL
TXBWIC20030-36434-12700-60000096D0000698D000260002010-12700  GGSL
TXBWIC20030-36434-12701-30000108D0000763D000000000060-12701  GGSL
TXBWIC20030-36434-12702-00000072D0000509D000000000060-12702  GGSL
TXBWIC20030-36434-12703-70000114D0000805D000000000060-12703  GGSL
TXBWIC20030-36434-12704-40000060D0000424D000000000060-12704  GGSL
TXBWIC20030-36434-12706-80000060D0000424D000000000060-12706  GGSL
TXBWIC20030-36434-12710-50000012D0000082D000040000010-12710  GGSL
TXBWIC20030-36434-12720-40000060D0000366D000380000010-12720  GGSL
TXBWIC20030-36434-12730-00000024D0000229D000000000110-12730  GGSL
TXBWIC20030-36434-12812-60000012D0000178D000000000010-12812  GGSL
TXBWIC20030-36434-12817-10000036D0000617D000000000062025     GGSL
TXBWIC20030-36434-13600-50000012D0000197D000060001210-13600  GGSL
TXBWIC20030-36434-13610-20000012D0000177D000010002210-13610  GGSL
TXBWIC20030-36434-14800-80000180D0003007D001030000410-14800  GGSL
TXBWIC20030-36434-14801-80000006D0000105D000000000060-14801  GGSL
TXBWIC20030-36434-14860-20000060D0000812D000450000010-14860  GGSL
TXBWIC20030-36434-15050-90000030D0000481D000290000010-15050  GGSL
TXBWIC20030-36434-15080-30000006D0000129D000000000010-15080  GGSL
TXBWIC20030-36434-17010-10000006D0000130D000000000010-17010  GGSL
TXBWIC20030-36434-17061-30000001D0000060D00000000001017061   GGSL
TXBWIC20030-36434-18037-70000001D0000093D00001000001028037   GGSL
TXBWIC20030-36434-22318-00000202D0000875D004090011760-22318  GGSL
TXBWIC20030-36434-22341-80000036D0000372D000120000110-22341  GGSL
TXBWIC20030-36434-22345-60000060D0000575D000110000010-22345  GGSL
TXBWIC20030-36434-22373-90000024D0000348D00005000006022373   GGSL
TXBWIC20030-36434-22626-60000064D0000774D002560001860-22626  GGSL
TXBWIC20030-36434-22731-70000063D0000622D001080002460-22731  GGSL
TXBWIC20030-36434-22732-40000048D0000633D001730001860-22732  GGSL
TXBWIC20030-36434-28010-70000168D0001358D000480002410-28010  GGSL
TXBWIC20030-36434-28020-60000072D0000584D000710000210-28020  GGSL
TXBWIC20030-36434-32700-00000201D0001553D000490025910-32700  GGSL
TXBWIC20030-36434-34500-10000048D0000459D000180004010-34500  GGSL
TXBWIC20030-36434-60123-00000003D0003929D000010000060123     GGSL
TXBWIC20030-36434-65095-50000120D0002234D000010000065095     GGSL
TXBWIC20030-36434-82342-70000102D0001436D001380000860-82342  GGSL
TXBWIC20030-36865-12250-20000209D0023128D000270001571140180  GGSL
TXBWIC20030-36865-12292-20002640D0006766D000000000086752180  GGSL
TXBWIC20030-36865-14511-20001800D0003004D000020001171451180  GGSL
TXBWIC20030-36865-24511-90002580D0007537D000170000472451180  GGSL
TXBWIC20030-36865-45220-30000780D0001950D000000000088452205  GGSL
TXBWIC20030-36865-52965-30000300D0000672D000000000087852965  GGSL
TXBWIC20030-36865-65220-70002640D0006600D000000000088652205  GGSL
TXBWIC20030-37321-00000-00000012D0000114D0000500000908       GGSL
TXBWIC20030-37321-00022-80000432D0002472D0003000120022       GGSL
TXBWIC20030-37321-00024-20000312D0003501D0004000029024       GGSL
TXBWIC20030-37321-00038-90000036D0000091D0000300000038       GGSL
TXBWIC20030-37321-00042-60000012D0000068D0000100001042       GGSL
TXBWIC20030-37321-00051-80000042D0000438D0000100002051       GGSL
TXBWIC20030-37321-00068-60000036D0000163D0004800030068       GGSL
TXBWIC20030-37321-00069-30000432D0004963D0006500017069       GGSL
TXBWIC20030-37321-00070-90000014D0002414D0001600042070       GGSL
TXBWIC20030-37321-00101-00000024D0000182D0000300000101       GGSL
TXBWIC20030-37321-00105-80000108D0000270D0000600030105       GGSL
TXBWIC20030-37321-00106-50000112D0000449D0005400016106       GGSL
TXBWIC20030-37321-00107-20000128D0000503D0005700023107       GGSL
TXBWIC20030-37321-00108-90000096D0000372D0001900027108       GGSL
TXBWIC20030-37321-00110-20000016D0000048D0000000010110       GGSL
TXBWIC20030-37321-00121-80000048D0000446D0000200005121       GGSL
TXBWIC20030-37321-00123-20000156D0000540D0003800003123       GGSL
TXBWIC20030-37321-00127-00000096D0000718D0002400014127       GGSL
TXBWIC20030-37321-00141-60000048D0000180D0000000004141       GGSL
TXBWIC20030-37321-00147-80000012D0000073D0000000000147       GGSL
TXBWIC20030-37321-00150-80000108D0001479D0003200182150       GGSL
TXBWIC20030-37321-00166-90000084D0000408D0001400000166       GGSL
TXBWIC20030-37321-00167-60000012D0000068D0000000000167       GGSL
TXBWIC20030-37321-00171-30000012D0000100D0000000003171       GGSL
TXBWIC20030-37321-00202-40001008D0009613D0005800003202       GGSL
TXBWIC20030-37321-00203-10000360D0004982D0001900004203       GGSL
TXBWIC20030-37321-00204-80000012D0000266D0000000000204       GGSL
TXBWIC20030-37321-00210-90000324D0001748D0004500001210       GGSL
TXBWIC20030-37321-00211-60000192D0001498D0004600001211       GGSL
TXBWIC20030-37321-00213-00000216D0002054D0004200017213       GGSL
TXBWIC20030-37321-00214-70000156D0000772D0005700016214       GGSL
TXBWIC20030-37321-00217-80000012D0000128D0000000000217       GGSL
TXBWIC20030-37321-00221-50000072D0000309D0000000001221       GGSL
TXBWIC20030-37321-00225-30000024D0000122D0000100000225       GGSL
TXBWIC20030-37321-00230-70000012D0000087D0000000000230       GGSL
TXBWIC20030-37321-00237-60000264C0000087C0000000002237       GGSL
TXBWIC20030-37321-00238-30000228D0001638D0001900008238       GGSL
TXBWIC20030-37321-00240-60000012D0000184D0000000000240       GGSL
TXBWIC20030-37321-00250-50000168D0000814D0004100056250       GGSL
TXBWIC20030-37321-00252-90000156D0001753D0002900002252       GGSL
TXBWIC20030-37321-00253-60000048D0000810D0000700000253       GGSL
TXBWIC20030-37321-00255-00000084D0001480D0002400016255       GGSL
TXBWIC20030-37321-00257-40000060D0000207D0000500021257       GGSL
TXBWIC20030-37321-00272-70000120D0000371D0000000000272       GGSL
TXBWIC20030-37321-00274-10000168D0000980D0005800027274       GGSL
TXBWIC20030-37321-00307-60000132D0000489D0001100039307       GGSL
TXBWIC20030-37321-00309-00000096D0001336D0003800014309       GGSL
TXBWIC20030-37321-00310-60000006D0000161D0000000004310       GGSL
TXBWIC20030-37321-00311-30000012D0000311D0000000000311       GGSL
TXBWIC20030-37321-00312-00000012D0000221D0000100000312       GGSL
TXBWIC20030-37321-00323-60000006D0000054D0000000000323       GGSL
TXBWIC20030-37321-00330-40000072D0000607D0003200001330       GGSL
TXBWIC20030-37321-00331-10000084D0001148D0003900000331       GGSL
TXBWIC20030-37321-00404-20000072D0000508D0003000001404       GGSL
TXBWIC20030-37321-00411-00000012D0000042D0000200000411       GGSL
TXBWIC20030-37321-00412-70000012D0000059D0000200000412       GGSL
TXBWIC20030-37321-00413-40000164D0001577D0000700000413       GGSL
TXBWIC20030-37321-00420-20000088D0004137D0010300009420       GGSL
TXBWIC20030-37321-00426-40000048D0000426D0004600017426       GGSL
TXBWIC20030-37321-00428-80000204D0000759D0005300041428       GGSL
TXBWIC20030-37321-00429-50000027D0000462D0002300009429       GGSL
TXBWIC20030-37321-00442-40000216D0001352D0007200004442       GGSL
TXBWIC20030-37321-00443-10000084D0000867D0001900003443       GGSL
TXBWIC20030-37321-00506-30000084D0000371D0002100019506       GGSL
TXBWIC20030-37321-00543-80000120D0000382D0004100003543       GGSL
TXBWIC20030-37321-00544-50000012D0000075D0001800001544       GGSL
TXBWIC20030-37321-00549-00000060D0000453D0000300000549       GGSL
TXBWIC20030-37321-00551-30000084D0000648D0000000012551       GGSL
TXBWIC20030-37321-00552-00000006D0000079D0001700000552       GGSL
TXBWIC20030-37321-00553-70000070D0001759D0007300001553       GGSL
TXBWIC20030-37321-00564-30000300D0002775D0000000000564       GGSL
TXBWIC20030-37321-00573-50000108D0000500D0005200000573       GGSL
TXBWIC20030-37321-00577-30000036D0000147D0000000000577       GGSL
TXBWIC20030-37321-00603-90000016D0000204D0000000040603       GGSL
TXBWIC20030-37321-00609-10000012D0000135D0000800000609       GGSL
TXBWIC20030-37321-00611-40000028D0000792D0000700000611       GGSL
TXBWIC20030-37321-00631-20001993D0005801D0094600058631       GGSL
TXBWIC20030-37321-00655-80000012D0000058D00040000516556      GGSL
TXBWIC20030-37321-00680-00000984D0005853D0010900012680       GGSL
TXBWIC20030-37321-00683-10000204D0001460D0005200000683       GGSL
TXBWIC20030-37321-00684-80000336D0003086D0008800002685       GGSL
TXBWIC20030-37321-00690-90000048D0000456D0001700000690       GGSL
TXBWIC20030-37321-00691-60000081D0000579D0003300000691       GGSL
TXBWIC20030-37321-00692-30003206D0009920D0128200044629       GGSL
TXBWIC20030-37321-00698-50000024D0000108D0000000005698       GGSL
TXBWIC20030-37321-00728-90000036D0000440D0000100000728       GGSL
TXBWIC20030-37321-00771-50000036D0000182D0000000000771       GGSL
TXBWIC20030-37321-00775-30000288D0001544D0007100000775       GGSL
TXBWIC20030-37321-00777-70000012D0000121D0000500000777       GGSL
TXBWIC20030-37321-00779-10000012D0000085D0000300017779       GGSL
TXBWIC20030-37321-00784-50000072D0000203D0002200000784       GGSL
TXBWIC20030-37321-00786-90000288D0001177D0012500203786       GGSL
TXBWIC20030-37321-00789-00000313D0002199D0128000565791       GGSL
TXBWIC20030-37321-00803-30000024D0000184D0000000003803       GGSL
TXBWIC20030-37321-00811-80000612D0006791D0006900020811       GGSL
TXBWIC20030-37321-00813-20000054D0000689D0005900057813       GGSL
TXBWIC20030-37321-00814-90000012D0000267D0000000002814       GGSL
TXBWIC20030-37321-00857-60000144D0001224D0005300001857       GGSL
TXBWIC20030-37321-00862-00000192D0002241D0005000001862       GGSL
TXBWIC20030-37321-00866-80000018D0000134D0000000000865       GGSL
TXBWIC20030-37321-00868-20000006D0000067D0000900000868       GGSL
TXBWIC20030-37321-00870-50000168D0001213D0000700001870       GGSL
TXBWIC20030-37321-00875-00000420D0003608D0009700001875       GGSL
TXBWIC20030-37321-00876-70000060D0000302D0000000000876       GGSL
TXBWIC20030-37321-00879-80000048D0000315D0000000000879       GGSL
TXBWIC20030-37321-00880-40000132D0001494D0002900028880       GGSL
TXBWIC20030-37321-00883-50000156D0000719D0004500072883       GGSL
TXBWIC20030-37321-00892-70000300D0002575D0000900046892       GGSL
TXBWIC20030-37321-00909-20000012D0000215D0000000000909       GGSL
TXBWIC20030-37321-00925-20000768D0002212D0012800032925       GGSL
TXBWIC20030-37321-00939-90000048D0000491D0002300029939       GGSL
TXBWIC20030-37321-00941-20000708D0006883D0008000012941       GGSL
TXBWIC20030-37321-00951-10000120D0000485D0003400026951       GGSL
TXBWIC20030-37321-00952-80000072D0000377D0000800000952       GGSL
TXBWIC20030-37321-00955-90000004D0000142D0000000000955       GGSL
TXBWIC20030-37321-00978-80000045D0000186D0000000000978       GGSL
TXBWIC20030-37321-00982-50000816D0003392D0004700002982       GGSL
TXBWIC20030-37321-00983-20000027D0000474D0000000000983       GGSL
TXBWIC20030-37321-00984-90000024D0000482D0000000000984       GGSL
TXBWIC20030-37321-00986-30000048D0000262D0000300000986       GGSL
TXBWIC20030-37321-00987-00000300D0002596D0004500000987       GGSL
TXBWIC20030-37321-00992-40000012D0000099D0000000002992       GGSL
TXBWIC20030-37321-00993-10000012D0000167D0000000000993       GGSL
TXBWIC20030-37321-02360-90000120D0000841D00014000002360      GGSL
TXBWIC20030-37321-02361-60000660D0006934D00062000162361      GGSL
TXBWIC20030-37321-03082-90000012D0000194D00000000003082      GGSL
TXBWIC20030-37321-05611-90000480D0001727D0005400003560       GGSL
TXBWIC20030-37321-05612-60000204D0001692D00038000005612      GGSL
TXBWIC20030-37321-05710-90000012D0000069D00008000005710      GGSL
TXBWIC20030-37321-05714-70000004D0000114D00017000005714      GGSL
TXBWIC20030-37321-07464-90000006D0000085D00003000017464      GGSL
TXBWIC20030-37321-07490-80000072D0000360D00037001187490      GGSL
TXBWIC20030-37321-07492-20000056D0000905D00024000267492      GGSL
TXBWIC20030-37321-07503-50000060D0000781D00002000027503      GGSL
TXBWIC20030-37321-07504-20000006D0000135D00001000027504      GGSL
TXBWIC20030-37321-08752-60000024D0000274D00037000008752      GGSL
TXBWIC20030-37321-09534-70000336D0003640D00039000109534      GGSL
TXBWIC20030-37321-20470-80000002D0001052D000000000020472     GGSL
TXBWIC20030-37321-20549-10000001D0000051D000000000020549     GGSL
TXBWIC20030-37321-20691-00000001D0000051D000000000320691     GGSL
TXBWIC20030-37321-25100-20000864D0004043D0003800552CAL100    GGSL
TXBWIC20030-37321-45602-50000048D0000212D000000000045602     GGSL
TXBWIC20030-37321-45672-80000072D0000405D000000000245672     GGSL
TXBWIC20030-37321-46125-80000900D0001484D000000000046125     GGSL
TXBWIC20030-37321-46126-50001000D0000153D000340000146126     GGSL
TXBWIC20030-37321-46172-20000024D0000105D000040000146172     GGSL
TXBWIC20030-37321-46175-30000003D0000068D000000000046175     GGSL
TXBWIC20030-37321-46190-60000048D0000132D000170000246190     GGSL
TXBWIC20030-37321-48113-30000024D0000222D00006000005712      GGSL
TXBWIC20030-37321-60224-80000132D0001547D001050000060410     GGSL
TXBWIC20030-37321-60360-30000038D0000459D000530000060362     GGSL
TXBWIC20030-37321-60400-60000772D0008723D004360050560402     GGSL
TXBWIC20030-37321-60407-50001596C0008723C000180001360407     GGSL
TXBWIC20030-37321-60414-30000045D0001501D000000000060414     GGSL
TXBWIC20030-37321-60420-40000036D0000554D001320001060420     GGSL
TXBWIC20030-37321-60424-20001269C0000554C001090000060424     GGSL
TXBWIC20030-37321-60434-10000017D0000461D000280000060434     GGSL
TXBWIC20030-37321-60460-00000003D0000030D000400000060460     GGSL
TXBWIC20030-37321-60476-10003487D0038121D011930428260478     GGSL
TXBWIC20030-37321-60514-00000221D0002365D011200112260516     GGSL
TXBWIC20030-37321-60613-00000046C0002365C000010000060613     GGSL
TXBWIC20030-38313-00005-90000027D0000606D0003000000GS 6750D  GGSL
TXBWIC20030-38313-00008-00000064D0001074D0015900024BP 3130   GGSL
TXBWIC20030-38313-00060-80000231D0004071D0052400147BP 3160   GGSL
TXBWIC20030-38313-00080-60000137D0002825D0048700108BP 3180D  GGSL
TXBWIC20030-38313-00081-30000006D0000058D0000000000AC 7220   GGSL
TXBWIC20030-38313-00217-60000006D0000099D0002500002FS 4350   GGSL
TXBWIC20030-38313-00830-70000022D0000709D0010100003BP 6250   GGSL
TXBWIC20030-38313-01010-20000336D0001664D0019100009CT 3010I  GGSL
TXBWIC20030-38313-01020-10000108D0000558D0003100000CT 3020I  GGSL
TXBWIC20030-38313-01030-00000084D0000425D0002300001CT 3030I  GGSL
TXBWIC20030-38313-03060-50000030D0000220D0001400012GT 3060   GGSL
TXBWIC20030-38313-03080-30000012D0000080D0001800012GT 3080   GGSL
TXBWIC20030-38313-03214-20000024D0000245D0000900001BP 3214D  GGSL
TXBWIC20030-38313-03334-70000012D0000132D0000700001AP 3334   GGSL
TXBWIC20030-38313-03470-20000017D0000528D0003100000FL 3470   GGSL
TXBWIC20030-38313-03720-80000168D0000759D0003900000CT 3720   GGSL
TXBWIC20030-38313-03730-70000012D0000066D0003900029CT 3730   GGSL
TXBWIC20030-38313-03740-60000012D0000073D0000200000CT 3740   GGSL
TXBWIC20030-38313-03750-50000042D0000236D0003200016CT 3750   GGSL
TXBWIC20030-38313-04930-00001068D0006594D0208100000AG 4930   GGSL
TXBWIC20030-38313-04930-70000313D0002583D0080600000AG 4930SS GGSL
TXBWIC20030-38313-06970-40000053D0002477D0014300000AH 6970   GGSL
TXBWIC20030-38313-07001-00000008D0000338D0000200001FK 70010  GGSL
TXBWIC20030-38313-07265-00000012D0000192D0000600003RS 7265D  GGSL
TXBWIC20030-38313-07395-40000006D0000113D0000100001RS 7395   GGSL
TXBWIC20030-38313-07545-20000022D0000330D0015900000RS 7245   GGSL
TXBWIC20030-38313-10000-10000089D0000876D0013900000SS 10000  GGSL
TXBWIC20030-38313-10227-20000015D0001034D0007700002AL 6512   GGSL
TXBWIC20030-38313-11000-00000042D0000400D0004900001SS 11000  GGSL
TXBWIC20030-38313-12400-70000235D0002824D0037800018RK 24003  GGSL
TXBWIC20030-38313-13214-90000006D0000046D0000000011FS 3214D  GGSL
TXBWIC20030-38313-13670-30000006D0000126D0000000000BP 3670   GGSL
TXBWIC20030-38313-20001-50000008D0000176D0000500001PD 20000  GGSL
TXBWIC20030-38313-20002-20000012D0000184D0000600010RK 20002  GGSL
TXBWIC20030-38313-20004-60000020D0000261D0008400072CV 20004  GGSL
TXBWIC20030-38313-20022-00000045D0000769D0010800002RK 20022  GGSL
TXBWIC20030-38313-21000-70000059D0000806D0004200055SH 20000  GGSL
TXBWIC20030-38313-24000-40000043D0000331D0011100012FS 4000   GGSL
TXBWIC20030-38313-26001-90000012D0000138D0000000006SS 26010  GGSL
TXBWIC20030-38313-26020-00000050D0000737D0007400001SS 26020  GGSL
TXBWIC20030-38313-26022-40000001D0000021D0000500000SS 26030  GGSL
TXBWIC20030-38313-27020-90000008D0000114D0003400004SS 27020  GGSL
TXBWIC20030-38313-28000-00000017D0000332D0002400000SS 28000  GGSL
TXBWIC20030-38313-28010-90000019D0000406D0007100000SS 28010  GGSL
TXBWIC20030-38313-32440-70000016D0000118D0000100022CT 3244   GGSL
TXBWIC20030-38313-33140-50000016D0000130D0000100000CT 3314   GGSL
TXBWIC20030-38313-33240-20000008D0000057D0000100000CT 3324   GGSL
TXBWIC20030-38313-33340-90000016D0000118D0000400000CT 3334   GGSL
TXBWIC20030-38313-33440-60000016D0000118D0000400000CT 3344   GGSL
TXBWIC20030-38313-33540-30000016D0000114D0000200000CT 3354   GGSL
TXBWIC20030-38313-33640-00000024D0000210D0000400000CT 3364   GGSL
TXBWIC20030-38313-37201-90000003D0000052D0000000000LG 3720   GGSL
TXBWIC20030-38313-53841-50000006D0000326D0001700001TP 3841   GGSL
TXBWIC20030-38313-56200-70000003D0000025D0003500005RK 62000  GGSL
TXBWIC20030-38313-61062-30000007D0000352D0001500006RK 61062  GGSL
TXBWIC20030-38313-62062-20000006D0000240D0001300000BM 62060  GGSL
TXBWIC20030-38313-64063-70000289C0000240C0000000000RK 61063  GGSL
TXBWIC20030-38313-64105-40000006D0000104D0000000000SS 64105  GGSL
TXBWIC20030-38313-64144-30000011D0000214D0001200005SS 64104  GGSL
TXBWIC20030-38313-65000-10000009D0000191D0000100006SS 65000  GGSL
TXBWIC20030-38313-66000-00000005D0000117D0001200001SS 66000  GGSL
TXBWIC20030-38313-80000-00000006D0000470D0000500000SF 80000  GGSL
TXBWIC20030-38313-81000-90000084D0000853D0007800000RK 10000  GGSL
TXBWIC20030-38313-90000-70000066D0000589D0001400010SH 10000  GGSL
TXBWIC20030-38313-90020-50000002D0000120D0000000001AS 90020  GGSL
TXBWIC20030-39044-14636-80000036D0000062D000030000514666     GGSL
TXBWIC20030-39044-15544-50000024D0000108D000020001615544     GGSL
TXBWIC20030-39079-00126-70000030D0000180D0000000000100520392 GGSL
TXBWIC20030-39079-00238-70000004D0000226D0013600000100530914 GGSL
TXBWIC20030-39079-00740-50000024D0000149D0010200005100519503 GGSL
TXBWIC20030-39079-00741-20000024D0000145D0006700002100519504 GGSL
TXBWIC20030-39079-05883-40000036D0000401D0001200000100519880 GGSL
TXBWIC20030-39079-05897-10000060D0000974D0004200007100511010 GGSL
TXBWIC20030-39079-05941-10000108D0001034D0003200002100503441 GGSL
TXBWIC20030-39079-05981-70000006D0000074D0000600000100522363 GGSL
TXBWIC20030-39079-06017-20000012D0000109D00018000013006017   GGSL
TXBWIC20030-39079-06022-60000132D0001514D00008000023006022.0 GGSL
TXBWIC20030-39645-11752-10000190D0000902D001260000040200010  GGSL
TXBWIC20030-40025-40001-00003750D0000676D0000000032RWS-54001 GGSL
TXBWIC20030-40025-54033-40000116D0005031D0000100002RWS-54033 GGSL
TXBWIC20030-40235-75032-50000012D0000051D00007000001Q30S 6P  GGSL
TXBWIC20030-40235-75256-50000054D0000924D00008000002.5G30S   GGSL
TXBWIC20030-40279-03300-20000764D0001320D0014900006          GGSL
TXBWIC20030-40279-03302-60000396D0000718D0020800005          GGSL
TXBWIC20030-40279-03304-00000272D0001017D0013700004          GGSL
TXBWIC20030-41535-02008-80000054D0000112D00000000009203350   GGSL
TXBWIC20030-41535-06166-10000004D0000023D00000000009206166   GGSL
TXBWIC20030-41535-24550-40000652D0025784D003800003824550.0   GGSL
TXBWIC20030-41535-24560-30000996D0159641D010910017724560.0   GGSL
TXBWIC20030-41535-24571-90001440D0022254D0020100013100518540 GGSL
TXBWIC20030-41535-25100-00000027D0000384D00000000009225100   GGSL
TXBWIC20030-41535-79218-30000002D0000068D00000000009206192   GGSL
TXBWIC20030-41535-79219-00000004D0000038D00000000009206231   GGSL
TXBWIC20030-42204-14504-80000002D0000002D00007000002MMC      GGSL
TXBWIC20030-42206-00056-90000006D0000044D000120000456-6      GGSL
TXBWIC20030-42206-00202-00000060D0000062D0003800002202S      GGSL
TXBWIC20030-42206-00202-10000005D0000005D0000900000202S      GGSL
TXBWIC20030-42206-00395-90000100D0000231D0001700005395S      GGSL
TXBWIC20030-42206-00525-00000030D0000072D0000600003525C      GGSL
TXBWIC20030-42206-00872-50000265C0000072C0005800000872-6     GGSL
TXBWIC20030-42206-03010-80000085D0000483D00077000123010-4    GGSL
TXBWIC20030-42206-09000-30000030D0000177D00027000019000      GGSL
TXBWIC20030-42206-09620-30000040D0001232D00099000309620-8    GGSL
TXBWIC20030-42206-14058-60000300D0001547D00032000029570      GGSL
TXBWIC20030-42206-14220-70000040D0000151D0000900006312S      GGSL
TXBWIC20030-42206-14221-40000060D0000104D0002800000313S      GGSL
TXBWIC20030-42206-14235-10000120D0000118D0000900001390S      GGSL
TXBWIC20030-42206-14326-60000010D0000010D0000300000225S      GGSL
TXBWIC20030-42206-14456-00000080D0000121D0000600001420C      GGSL
TXBWIC20030-42206-14501-70000010D0000008D00009000001FMC      GGSL
TXBWIC20030-42206-14502-40000020D0000014D00019000001MMC      GGSL
TXBWIC20030-42206-14503- 0000004D0000004D00011000002FMC      GGSL
TXBWIC20030-42206-14503-10000180D0000164D00088000052FMC      GGSL
TXBWIC20030-42206-14504-80000150D0000113D00056000032MMC      GGSL
TXBWIC20030-42206-14505-50000050D0000046D000110000001MC      GGSL
TXBWIC20030-42206-14506-20000110D0000099D000360000402MC      GGSL
TXBWIC20030-42206-14570-30000050D0000250D0000800000ZBR3/4    GGSL
TXBWIC20030-42206-14571-00000060D0000196D0002700000ZBM3/4    GGSL
TXBWIC20030-42206-14572-70000070D0000245D0001900001ZBF3/4    GGSL
TXBWIC20030-42206-14599-40000006D0000070D00003000019536CH    GGSL
TXBWIC20030-42206-15111-70000013D0000082D000140000015111     GGSL
TXBWIC20030-42206-15404-00000006D0000060D000090000515404     GGSL
TXBWIC20030-42206-20491-20000090D0000424D000300000120491-10  GGSL
TXBWIC20030-42206-22701-00000020D0000059D000090000122701C    GGSL
TXBWIC20030-42206-23701-90000010D0000030D000060000123701S    GGSL
TXBWIC20030-42206-40261-50000294D0001921D000330000020261     GGSL
TXBWIC20030-42206-40301-80000020D0000125D0002000012XT301     GGSL
TXBWIC20030-42206-44100-30000006D0000100D0001000004XT4100    GGSL
TXBWIC20030-42206-50300-80000024D0000230D000130000120300     GGSL
TXBWIC20030-42206-63100-80000002D0000074D000060000063100     GGSL
TXBWIC20030-42579-00000-00000001D0000530D0000000001BRBHPM    GGSL
TXBWIC20030-42579-00052-40000006D0000226D0001200001ST47812   GGSL
TXBWIC20030-42579-11212-80000005D0000194D0000700000SSR12GRN  GGSL
TXBWIC20030-42579-11250-00000017D0007088D0004900000P12       GGSL
TXBWIC20030-42579-11500-60029500D0001345D0021700004APB5      GGSL
TXBWIC20030-42579-12343-80000042D0001764D000000000020 YR-3100GGSL
TXBWIC20030-42579-12346-90000072D0000130D0000400000TW3W      GGSL
TXBWIC20030-42579-13250-80000262D0011939D0026600003P3        GGSL
TXBWIC20030-42579-14250-70000150D0016220D0063500015P4        GGSL
TXBWIC20030-42579-15250-60000013D0002230D0014700000P5        GGSL
TXBWIC20030-42579-16250-50000090D0015459D0015700007P6        GGSL
TXBWIC20030-42579-18250-30000021D0005752D0008200002P8        GGSL
TXBWIC20030-42579-19342-40000120D0001258D000150000120 YR-324 GGSL
TXBWIC20030-42579-22341-10001344D0008932D00034000146 YR-350  GGSL
TXBWIC20030-42579-22342-80000072D0000301D0023700069NS12      GGSL
TXBWIC20030-42579-22345-90000348D0001534D0007300030APRC      GGSL
TXBWIC20030-42579-32355-50000182D0000982D0006000002RS15      GGSL
TXBWIC20030-42579-43004-80000017D0001437D0005900004NB4       GGSL
TXBWIC20030-42579-43006-20000013D0001586D0003200000NB6       GGSL
TXBWIC20030-42579-50154-00000250D0005115D0001300000PRO BLK-31GGSL
TXBWIC20030-42579-50169-40000072D0001211D0000000004PRO BLK-45GGSL
TXBWIC20030-42579-50237-00000054D0001016D0000500000CS-3100BLKGGSL
TXBWIC20030-42579-50278-30000036D0000103D0000000000EL-5YR350 GGSL
TXBWIC20030-42579-63041-70000003D0000343D0002500002KG6       GGSL
TXBWIC20030-42579-63105-60000011D0000575D0006700000350ROLL   GGSL
TXBWIC20030-42579-63306-70001008D0004721D00086000113 YR-350  GGSL
TXBWIC20030-42579-81272-10000001D0000081D0000000000K6        GGSL
TXBWIC20030-42579-81360-50000021D0002755D0026700010NS12250   GGSL
TXBWIC20030-42579-81428-20000104D0000176D0042000000BURLAP BAGGGSL
TXBWIC20030-42579-81566-10000072D0008421D0013100004SBLT10300 GGSL
TXBWIC20030-42579-81568-50000061D0008999D0049600008SBLT12300 GGSL
TXBWIC20030-42579-81569-20000307D0054312D0064700011SBLT15.530GGSL
TXBWIC20030-42579-81571-50000175D0006575D0019000006SBLT3300  GGSL
TXBWIC20030-42579-81572-20000019D0000956D0005100003SBLT4300  GGSL
TXBWIC20030-42579-81573-90000182D0013168D0015700167SBLT6300  GGSL
TXBWIC20030-42579-81605-70000008D0000550D0002200002PRO BLK-33GGSL
TXBWIC20030-42579-81606-40000020D0001802D0009500003PRO BLK-43GGSL
TXBWIC20030-42579-81607-10000036D0004948D0008000001PRO BLK-63GGSL
TXBWIC20030-42579-81608-80000001D0000199D0000600000PRO BLK-83GGSL
TXBWIC20030-42579-81624-80000018D0000227D0000000004PRO BLK-35GGSL
TXBWIC20030-42579-81733-70000038D0001996D0003600000CS-3300BLKGGSL
TXBWIC20030-42579-81734-40000032D0002229D0004400000CS-4300BLKGGSL
TXBWIC20030-42579-81735-10000020D0002260D0004900000CS-6300BLKGGSL
TXBWIC20030-42579-81738-20000144D0001380D0000000000          GGSL
TXBWIC20030-42579-82278-20000144D0001289D0000300000TWBAG-36  GGSL
TXBWIC20030-42579-82311-60000001D0000000D0000000000BDR       GGSL
TXBWIC20030-42579-82320-80000048D0000455D0000000000TWD-24    GGSL
TXBWIC20030-42583-12000-90000024D0000058D0000000000GC-M-DB24 GGSL
TXBWIC20030-42853-00000-00000198D0000828D0042800008BFTD-DB12 GGSL
TXBWIC20030-42853-10000-10000016D0000068D0002400002ST3-BB4   GGSL
TXBWIC20030-42853-12000-90000012D0000031D0001800001MGC-DB12  GGSL
TXBWIC20030-42853-42000-00000042D0000279D0003700000TSBF-BB6  GGSL
TXBWIC20030-42853-50000-90000294D0001917D0005700027TSW-BB6   GGSL
TXBWIC20030-42853-60000-00000001D0000155D0000200003FFTR-FD48 GGSL
TXBWIC20030-42853-61000-50000004D0000017D0000400000FFTR2-BB4 GGSL
TXBWIC20030-42853-65000-10000036D0000135D0000000000AB6-FD36  GGSL
TXBWIC20030-42853-77305-40000372D0001132D0014600204FTD-DB12  GGSL
TXBWIC20030-42854-03298-10000948D0002335D0000000024FG32ORB112GGSL
TXBWIC20030-42854-63278-50000636D0001353D0000400006FG32PC1-12GGSL
TXBWIC20030-42854-64870-00000066D0000432D0003200004FG48PC1-6 GGSL
TXBWIC20030-42854-93200-70000048D0000268D0000000002FG32SM1-12GGSL
TXBWIC20030-43162-56428-70000425D0005550D000410000059021451  GGSL
TXBWIC20030-43168-50308-20000012D0000737D000000000093101226  GGSL
TXBWIC20030-43168-50309-90000008D0000599D000000000093101227  GGSL
TXBWIC20030-43168-50310-50000004D0000187D000000000093101228  GGSL
TXBWIC20030-43168-50311-20000004D0000244D000000000093101229  GGSL
TXBWIC20030-43168-50312-90000012D0000111D000000000093101230  GGSL
TXBWIC20030-43168-50313-60000008D0000090D000000000093101231  GGSL
TXBWIC20030-43168-50314-30000004D0000124D000000000093101232  GGSL
TXBWIC20030-43312-10003-70000144D0000437D0006200000103-0-009 GGSL
TXBWIC20030-43326-16720-00000008D0000062D0000000000A8X10-P8  GGSL
TXBWIC20030-43326-59748-90000003D0000168D0000100000G12X18    GGSL
TXBWIC20030-43326-59772-40000003D0000187D0000000000G12X20    GGSL
TXBWIC20030-43725-11311-20000028D0000705D00000000009101614   GGSL
TXBWIC20030-43725-19680-00000004D0000122D00000000009149068   GGSL
TXBWIC20030-43725-19964-20000004D0000109D00000000009121969   GGSL
TXBWIC20030-43725-20335-60000126D0001048D00000000009102033   GGSL
TXBWIC20030-43725-20505-30000280D0001750D00000000009102050   GGSL
TXBWIC20030-43725-25114-20000024D0000100D00000000009132511   GGSL
TXBWIC20030-43725-28089-30000012D0000050D00000000009125080   GGSL
TXBWIC20030-43725-29604-40000012D0000050D00000000009129600   GGSL
TXBWIC20030-43725-39605-80000002D0000012D00000000009143960   GGSL
TXBWIC20030-43725-39615-70000014D0000203D00000000009143961   GGSL
TXBWIC20030-43725-39625-60000002D0000107D00000000009143962   GGSL
TXBWIC20030-43725-93161-70000006D0000050D00000000009149311   GGSL
TXBWIC20030-43792-50001-30000166D0005028D0005800006Y32       GGSL
TXBWIC20030-43792-60002-70000126D0003899D0007800006W32       GGSL
TXBWIC20030-43792-70002-40000086D0002801D0008400006R32       GGSL
TXBWIC20030-43792-80001-40000063D0001740D0005900005SW10      GGSL
TXBWIC20030-43792-90001- 0000024D0000935D0002300001SH10      GGSL
TXBWIC20030-43792-90003-50000014D0000482D0002400000GA10      GGSL
TXBWIC20030-43792-90004-20000001D0000089D0001300001GA30      GGSL
TXBWIC20030-45446-00100-60000016D0000094D00000000003512836   GGSL
TXBWIC20030-45446-00213-30000004D0000212D00000000003547510   GGSL
TXBWIC20030-45446-00241-60000010D0000141D00000000003514425   GGSL
TXBWIC20030-46539-62045-60002406D0029765D0354500327          GGSL
TXBWIC20030-46539-64032-40005901D0047887D0312003663          GGSL
TXBWIC20030-46753-00000-00000001D0000054D000000000055003     GGSL
TXBWIC20030-46753-01032-00000012D0000045D00000000004675301032GGSL
TXBWIC20030-46753-01032-30000036D0000139D00034000004675301032GGSL
TXBWIC20030-46753-01128-30000072D0000650D00036000014675301128GGSL
TXBWIC20030-46753-02032-20000030D0000133D00019000004675302032GGSL
TXBWIC20030-46753-02033-90000012D0000074D00000000004675302033GGSL
TXBWIC20030-46753-02128-20000044D0000530D00054000004675302128GGSL
TXBWIC20030-46753-02500-60000002D0000097D00016000004675302500GGSL
TXBWIC20030-46753-03032-10000024D0000115D00001000004675303032GGSL
TXBWIC20030-46753-03128-10000040D0000523D00032000004675303128GGSL
TXBWIC20030-46753-04032-00000312D0001825D00034000024675304032GGSL
TXBWIC20030-46753-04033-70000048D0000419D00034000262004675304GGSL
TXBWIC20030-46753-04128-00000260D0003576D00100000104675304128GGSL
TXBWIC20030-46753-04500-40000003D0000191D00018000004675304500GGSL
TXBWIC20030-46753-05032-90000156D0001301D00071000364675305032GGSL
TXBWIC20030-46753-05128-90000064D0000878D00071000224675305128GGSL
TXBWIC20030-46753-07032-70000024D0000119D00012000014675307032GGSL
TXBWIC20030-46753-07128-70000004D0000051D00000000004675307128GGSL
TXBWIC20030-46753-08016-60000024D0000209D000010000280160     GGSL
TXBWIC20030-46753-08032-60001008D0015328D00191000824675308032GGSL
TXBWIC20030-46753-14032-70000120D0000448D00009000144675314032GGSL
TXBWIC20030-46753-14128-70000108D0000753D00050000024675314128GGSL
TXBWIC20030-46753-14550-60000004D0001034D000000000014550     GGSL
TXBWIC20030-46753-17005-80000078D0000343D00046000004675317005GGSL
TXBWIC20030-46753-17040-90001578D0020963D00768000064675317040GGSL
TXBWIC20030-46753-17201-40000004D0001715D000000000072014     GGSL
TXBWIC20030-46753-19032-20000012D0000067D00000000002004675319GGSL
TXBWIC20030-46753-19128-20000008D0000103D0000000000          GGSL
TXBWIC20030-46753-19550-10000002D0001090D000000000095501     GGSL
TXBWIC20030-46753-20128-80000004D0000063D0000000000          GGSL
TXBWIC20030-46753-20550-70000001D0000520D000000000020550     GGSL
TXBWIC20030-46753-21032-70000060D0000273D000210000710327     GGSL
TXBWIC20030-46753-21128-70000184D0002194D000690002112287     GGSL
TXBWIC20030-46753-22020-30000001D0000013D000050000020203     GGSL
TXBWIC20030-46753-22550-50000002D0001134D000000000025505     GGSL
TXBWIC20030-48307-70003-20000260D0000106D0007100000ST3       GGSL
TXBWIC20030-48307-70004-90000380D0000183D0014800000ST4-WS    GGSL
TXBWIC20030-48307-70005-60000820D0000478D0009800002ST5       GGSL
TXBWIC20030-48307-70006-30000640D0000403D0007400002ST6       GGSL
TXBWIC20030-48745-31400-60000001D0000049D00000000005331410   GGSL
TXBWIC20030-48745-32708-60000300D0003253D000550000032708     GGSL
TXBWIC20030-50197-00000-00000530D0002662D0017200010CGP25     GGSL
TXBWIC20030-50197-00104-50001044D0004741D0021400019HT4       GGSL
TXBWIC20030-50197-00108-30000222D0001684D0003200001HT8       GGSL
TXBWIC20030-50197-00118-20000938D0011087D0159500161HT18      GGSL
TXBWIC20030-50197-00136-60000379D0007892D0072800147HT36      GGSL
TXBWIC20030-50197-00150-20000317D0008137D0018000002HT50      GGSL
TXBWIC20030-50197-00204-20000492D0002338D0010200014PT4       GGSL
TXBWIC20030-50197-00208-00000108D0000748D0002000004PT8       GGSL
TXBWIC20030-50197-00218-90000588D0006814D0068100046PT18      GGSL
TXBWIC20030-50197-00236-30000175D0003475D0067900016PT36      GGSL
TXBWIC20030-50197-00250-90000052D0001360D0016400000PT50      GGSL
TXBWIC20030-50197-00304-90000840D0004001D0005700016GT4       GGSL
TXBWIC20030-50197-00308-70000006D0000044D0000000000GT8       GGSL
TXBWIC20030-50197-00318-60000226D0002883D0041200035GT18      GGSL
TXBWIC20030-50197-00336-00000176D0003499D0004500022GT36      GGSL
TXBWIC20030-50197-00404-60000708D0003283D0013200002RT4       GGSL
TXBWIC20030-50197-00408-40000054D0000439D0001600000RT8       GGSL
TXBWIC20030-50197-00418-30000298D0003817D0041500013RT18      GGSL
TXBWIC20030-50197-00604-00000216D0000979D0003700000BT4       GGSL
TXBWIC20030-50197-00704-70000288D0001319D0005600002TR4       GGSL
TXBWIC20030-50197-00718-40000108D0001367D0018200036TR18      GGSL
TXBWIC20030-50197-00736-80000060D0001103D0000000000TR36      GGSL
TXBWIC20030-50197-00904-10000672D0003209D0006700007TO4       GGSL
TXBWIC20030-50197-00908-60000042D0000300D0001500001TO8       GGSL
TXBWIC20030-50197-00918-80000075D0001035D0018300010TO18      GGSL
TXBWIC20030-50197-01004-70000024D0000114D0000000001BM04      GGSL
TXBWIC20030-50197-01106-80000036D0000343D0000500002gs6       GGSL
TXBWIC20030-50197-01130-30000006D0000177D0001000000gs30      GGSL
TXBWIC20030-50197-01228-70000065D0001105D0009400008RP28      GGSL
TXBWIC20030-50197-01317-80000025D0000812D0007400009DB17      GGSL
TXBWIC20030-50197-01403-80000132D0000665D0002300000CM3       GGSL
TXBWIC20030-50197-01706-00000006D0000050D0000000002PO6       GGSL
TXBWIC20030-50197-01803-60000048D0000176D0001700001GM3       GGSL
TXBWIC20030-50197-01825-80000213D0002198D0048800008GM25      GGSL
TXBWIC20030-50197-02206-40000300D0001624D0004400035GG6       GGSL
TXBWIC20030-50197-02703-80000024D0000269D0000000001KM4       GGSL
TXBWIC20030-50197-02805-90000024D0000150D0000000002GF101010/6GGSL
TXBWIC20030-50197-02904-90000276D0001299D0006800002FT4       GGSL
TXBWIC20030-50197-02918-60000103D0001289D0021800018FT18      GGSL
TXBWIC20030-50197-03804-10001284D0006821D0010500017BTSP4     GGSL
TXBWIC20030-50197-03825-60000217D0005648D0046400015BTSP25    GGSL
TXBWIC20030-50197-03904-80000204D0000962D0006000000PM4       GGSL
TXBWIC20030-50197-03920-80000034D0000461D0001300000PM20      GGSL
TXBWIC20030-50197-05004-30000828D0003851D0014100002CT4       GGSL
TXBWIC20030-50197-05018-00000261D0003451D0018200002CT18      GGSL
TXBWIC20030-50197-05320-40000066D0001041D0022100008ELF20     GGSL
TXBWIC20030-50197-05405-80000036D0000171D0003500000IT5       GGSL
TXBWIC20030-50197-05420-10000020D0000323D0017200000it20      GGSL
TXBWIC20030-50197-05628-10000102D0002306D0005000000EOLF28    GGSL
TXBWIC20030-50197-05730-10000002D0000045D0003200000EOSR30    GGSL
TXBWIC20030-50197-05830-80000060D0001255D0000000000EOFW30    GGSL
TXBWIC20030-50197-06101-80000012D0000082D0000000001BG1       GGSL
TXBWIC20030-50197-06504-70000240D0001043D0008200000AT4       GGSL
TXBWIC20030-50197-06508-50000006D0000043D0000500001AT8       GGSL
TXBWIC20030-50197-06518-40000009D0000117D0003000010AT18      GGSL
TXBWIC20030-50197-06604-40000168D0000782D0000900002BR4       GGSL
TXBWIC20030-50197-30418-40000018D0000113D0001100000BL18      GGSL
TXBWIC20030-50197-30508-20000012D0000050D0000000000INPF8     GGSL
TXBWIC20030-50197-30608-90000012D0000050D0000000000CAPF8     GGSL
TXBWIC20030-50197-30808-30000018D0000067D0000000000ORPF8     GGSL
TXBWIC20030-50197-31318-60000018D0000117D0000300000topf18    GGSL
TXBWIC20030-50197-51112-40000024D0000103D0000000000IC12      GGSL
TXBWIC20030-50197-51324-10000078D0000472D0002400002EONM24    GGSL
TXBWIC20030-50197-51424-80000102D0000545D0001700003EOIS24    GGSL
TXBWIC20030-50197-51524-50000108D0000572D0002900004EOIC24    GGSL
TXBWIC20030-50197-51624-20000054D0000284D0000900000EOCS24    GGSL
TXBWIC20030-50197-51701-00000012D0000085D0000000000eoss1     GGSL
TXBWIC20030-50197-70101-30000106D0000722D0008300020ap1       GGSL
TXBWIC20030-50197-70102-00000061D0000652D0019900015ap2       GGSL
TXBWIC20030-50197-70304-80000080D0000356D0003300001CA4X      GGSL
TXBWIC20030-50197-70308-60000042D0000186D0000700003ca8x      GGSL
TXBWIC20030-50197-70608-70000024D0000101D0000600001PTM8      GGSL
TXBWIC20030-50197-71208-80000018D0000085D0000700001MM8       GGSL
TXBWIC20030-50197-71304-70000096D0000305D0000000000EC4       GGSL
TXBWIC20030-50197-71501-00000111D0000722D0030000010lsc1      GGSL
TXBWIC20030-50197-71601-70000208D0001075D0027500008dcm1      GGSL
TXBWIC20030-50197-80117-10000393D0003306D0126300000SC17      GGSL
TXBWIC20030-50349-00000-00000080D0000487D00000000001071-012  GGSL
TXBWIC20030-50349-01003-10000132D0000134D00000000001003-012  GGSL
TXBWIC20030-50349-01025-30000052D0000119D00000000001025-012  GGSL
TXBWIC20030-50349-01039-00000020D0000159D00009000001039-012  GGSL
TXBWIC20030-50349-01056-70000022D0000055D00027000001056-012  GGSL
TXBWIC20030-50349-01066-00000044D0000180D00000000001066-082  GGSL
TXBWIC20030-50349-10161-60000072D0000112D00003000041016-012  GGSL
TXBWIC20030-50349-10231-60000032D0000065D00003000001023-012  GGSL
TXBWIC20030-50349-10291-00000168D0000401D00001000001029-012  GGSL
TXBWIC20030-50349-10331-30000048D0000180D00004000031033-012  GGSL
TXBWIC20030-50349-10591-10000110D0000458D00000000001059-012  GGSL
TXBWIC20030-50349-10691-80000668C0000458C00016000001069-012  GGSL
TXBWIC20030-50349-10781-60000066D0000287D00000000011078-012  GGSL
TXBWIC20030-50349-11177-60000044D0000140D00000000001077-082  GGSL
TXBWIC20030-50349-18885-30000198D0000143D00000000008885-034  GGSL
TXBWIC20030-50349-88821-00000020D0000150D00000000008882-011  GGSL
TXBWIC20030-50349-88851-70000066D0000045D00031000008885-014  GGSL
TXBWIC20030-50349-88880-70000100D0000058D00000000008888-099  GGSL
TXBWIC20030-50699-00001-00000002D0000018D0004600000300001    GGSL
TXBWIC20030-50699-00014-00000002D0000009D0008000000300014    GGSL
TXBWIC20030-50699-00128-10000001D0000032D0009500000300128    GGSL
TXBWIC20030-50699-00212-00000048D0000386D0003500004300212    GGSL
TXBWIC20030-51115-04861-60000010D0000014D00000000004704861   GGSL
TXBWIC20030-51115-04864-70000010D0000014D00000000004704864   GGSL
TXBWIC20030-51115-04865-40000004D0000006D00000000004704865   GGSL
TXBWIC20030-51115-05253-80000018D0000027D00000000004705172   GGSL
TXBWIC20030-51497-15464-60000046D0006260D000280000115464     GGSL
TXBWIC20030-51497-15466-00000004D0000040D000460000015466     GGSL
TXBWIC20030-52427-00551-90000005D0000018D00000000004500102   GGSL
TXBWIC20030-52427-50002-10000027D0000077D00000000005000222   GGSL
TXBWIC20030-52427-60012-70000052D0000157D000000000060121     GGSL
TXBWIC20030-52732-00000-00000020D0000802D000020001319109     GGSL
TXBWIC20030-52732-07312-80000001D0000121D00000000007312      GGSL
TXBWIC20030-52732-10012-10000093D0009715D00076000001001-B    GGSL
TXBWIC20030-52732-10225-50000018D0000482D000170000060009.0   GGSL
TXBWIC20030-52732-16036-10000730C0000482C0000100000PCD36S    GGSL
TXBWIC20030-52732-20505-50000041D0003246D00046000002050SU    GGSL
TXBWIC20030-52732-20509-30000043D0005635D00113000002050P     GGSL
TXBWIC20030-52732-20519-20000022D0002857D00034000002050TP    GGSL
TXBWIC20030-52732-21700-30000001D0000251D00003000002170      GGSL
TXBWIC20030-52732-27500-30000248D0009811D00791000052750      GGSL
TXBWIC20030-52732-31000-10000002D0000324D00000000003100.0    GGSL
TXBWIC20030-52732-34000-80000186D0003059D00098000293400.0    GGSL
TXBWIC20030-52732-65000-80000005D0000639D00016000016500.0    GGSL
TXBWIC20030-53291-11600-40000045D0000326D0000000000820-1600  GGSL
TXBWIC20030-53291-19881-90000158D0001255D0007200004820-0002  GGSL
TXBWIC20030-53291-30000-00000048D0000522D0001200000820-1024  GGSL
TXBWIC20030-53291-40052-30000008D0000031D0000000000840-0052  GGSL
TXBWIC20030-53291-40063-90000006D0000035D0000000000840-0063  GGSL
TXBWIC20030-53291-40097-80000030D0000184D00000000018400097   GGSL
TXBWIC20030-53291-41165-60000208D0001120D0000100000840-1165  GGSL
TXBWIC20030-53291-41212-00000006D0000053D0000000000840-1212  GGSL
TXBWIC20030-53291-50050-30000004D0000130D0000300000850-0050  GGSL
TXBWIC20030-53291-50051-00000004D0000097D0000400000850-0051  GGSL
TXBWIC20030-53291-50052-00000004D0000119D0000500000850-0052  GGSL
TXBWIC20030-53291-55981-80000072D0000264D0003100003820-0188  GGSL
TXBWIC20030-53744-00120-80000161D0000772D0046300006120       GGSL
TXBWIC20030-53744-00141-30000173D0000793D0026600002141       GGSL
TXBWIC20030-53744-00314-10000006D0000040D0001800000314       GGSL
TXBWIC20030-53744-00400-10000029D0000117D0008800000400       GGSL
TXBWIC20030-56554-73154-90000008D0000067D0000000000RUA12000G1GGSL
TXBWIC20030-56554-92126-10000048C0000067C0000000000RZ.JSRA0F0GGSL
TXBWIC20030-64277-01107-70001141D0015520D0144800098C-3       GGSL
TXBWIC20030-64277-01111-40002120D0040937D0271300071A-3       GGSL
TXBWIC20030-64277-03110-50010395D0102270D04863007361271.cfl00GGSL
TXBWIC20030-64277-05030-40000002D0000025D00000000001110102.CFGGSL
TXBWIC20030-64277-08428-60000002D0000038D00000000005242601.cfGGSL
TXBWIC20030-64277-20012-80002402D0007937D00713002341348001-20GGSL
TXBWIC20030-64277-40012-20004658D0025925D00210005551348001-40GGSL
TXBWIC20030-66498-01115-70000118D0002235D005510000001115.0   GGSL
TXBWIC20030-66498-02185-90000200D0003004D003340000002185     GGSL
TXBWIC20030-66498-02775-20004982D0068292D015750046302775.0   GGSL
TXBWIC20030-66498-03175-90001716C0068292C000180000003175     GGSL
TXBWIC20030-66498-04175-80001794D0017274D005620002504175.0   GGSL
TXBWIC20030-66498-05113-90001045D0006475D009800019905175.0   GGSL
TXBWIC20030-66498-09781-60000091D0000637D00002000009781      GGSL
TXBWIC20030-66498-09782-30000195D0001991D000000000009782.0   GGSL
TXBWIC20030-66498-09795-30020670D0003315D000370026009792     GGSL
TXBWIC20030-66498-09901-80003663D0023745D031880099209901.0   GGSL
TXBWIC20030-66498-09902-50005780D0055365D029680088009902.0   GGSL
TXBWIC20030-66498-09903-20001631D0022117D012530038509903.0   GGSL
TXBWIC20030-66498-09925-40000468D0001707D000800000609925     GGSL
TXBWIC20030-66498-09929-20000028D0000151D000820002209929     GGSL
TXBWIC20030-66498-09937-70002004D0005244D003210003409937     GGSL
TXBWIC20030-66498-09939-10000242D0002052D000840000009939     GGSL
TXBWIC20030-66498-09947-60000264D0000695D000900002309947     GGSL
TXBWIC20030-66498-09965-00000732D0004395D001700003309965     GGSL
TXBWIC20030-66498-09977-30000228D0001236D000820000709977     GGSL
TXBWIC20030-66498-09985-80000216D0000787D000530002309985     GGSL
TXBWIC20030-66498-89827-70000852D0003269D001940002809827     GGSL
TXBWIC20030-66498-89905-20001446D0005290D003600005509905     GGSL
TXBWIC20030-66498-89955-70001104D0005259D001830004009955     GGSL
TXBWIC20030-70183-50005-50001096D0028472D00062000005000510   GGSL
TXBWIC20030-70183-50006-20000990D0034449D00017000005000610   GGSL
TXBWIC20030-70183-50023-90000078D0002053D00024000005002310   GGSL
TXBWIC20030-70183-50026-00000064D0000685D00001000005002688   GGSL
TXBWIC20030-70183-50027-70000060D0000255D00052000005002715   GGSL
TXBWIC20030-70183-50029-10000028D0000332D00026000005007410   GGSL
TXBWIC20030-70183-50032-10005188D0055332D00324000025002610   GGSL
TXBWIC20030-70183-50034-50006012D0022613D00119000235003470   GGSL
TXBWIC20030-70183-50038-30000904D0009935D00076000035003810   GGSL
TXBWIC20030-70183-50042-00000064D0005761D00082000005004215   GGSL
TXBWIC20030-70183-50055-00003348D0035651D00065000005005510   GGSL
TXBWIC20030-70183-50060-40001530D0049896D00033000015006010   GGSL
TXBWIC20030-70183-51001-60002576D0043056D00090000135100114   GGSL
TXBWIC20030-70183-51006-10007272D0138002D00100000035100610   GGSL
TXBWIC20030-70183-51007-80000930D0034097D00022000035100710   GGSL
TXBWIC20030-70183-51009-20000072D0000997D00025000005004010   GGSL
TXBWIC20030-70183-51019-10001872D0034406D00025000045101910   GGSL
TXBWIC20030-70183-51073-30000912D0004180D00022000005107315   GGSL
TXBWIC20030-70183-51090-00009068D0135992D00092000265109010   GGSL
TXBWIC20030-70183-52005-30000032D0000741D00017000015200510   GGSL
TXBWIC20030-70183-52039-80000052D0001131D00007000045203910   GGSL
TXBWIC20030-70183-52350-40000016D0000428D00007000015235010   GGSL
TXBWIC20030-70183-57050-80001146D0031626D00032000005705010   GGSL
TXBWIC20030-70183-57080-50000588D0008896D00002000005708010   GGSL
TXBWIC20030-70183-57250-20000684D0013907D00080000015725070   GGSL
TXBWIC20030-70183-88891-70000004D0000581D00000000008889136   GGSL
TXBWIC20030-70251-00000-00000161D0001922D0005300001761160    GGSL
TXBWIC20030-70251-65240-20000688D0013818D0008700001652400    GGSL
TXBWIC20030-70251-79160-60000144D0001417D0002900000791600    GGSL
TXBWIC20030-70251-81482-40000924D0005530D00079000008141082   GGSL
TXBWIC20030-70251-82746-60000024D0000254D00010000008274600   GGSL
TXBWIC20030-70251-98520-30000032D0000185D0003400001985200    GGSL
TXBWIC20030-70805-51051-60000160D0000928D0007400001          GGSL
TXBWIC20030-70923-00000-00000060D0000281D0001200002600.0     GGSL
TXBWIC20030-70923-00196-50000084D0000265D0005900008T100-12   GGSL
TXBWIC20030-70923-00300-60000648D0002615D0002000003T300FD    GGSL
TXBWIC20030-70923-00402-70000024D0000073D0001800001T401-6    GGSL
TXBWIC20030-70923-00912-10000006D0000032D0001000002T901-6    GGSL
TXBWIC20030-70923-02111-60000018D0000100D0000400000T21016    GGSL
TXBWIC20030-70923-02301-10000009D0000060D0001300001T2302-6   GGSL
TXBWIC20030-70923-02900-60000128D0000607D0001500001T2900     GGSL
TXBWIC20030-70923-11915-80000015D0003107D0000000000T2502-DS  GGSL
TXBWIC20030-70923-12277-60000018D0000091D0000300001T1812     GGSL
TXBWIC20030-70923-29432-90000030D0000097D0004600000T514      GGSL
TXBWIC20030-70923-64051-50000078D0000702D0000000002T702      GGSL
TXBWIC20030-70923-66431-30000144D0001584D0000100004T1240     GGSL
TXBWIC20030-70964-25092-60000001D0000151D0000000000SNFXP58325GGSL
TXBWIC20030-71092-32500-80000072D0000329D0003500003T2506     GGSL
TXBWIC20030-71121-05580-40000204D0001372D00039000105580      GGSL
TXBWIC20030-71121-53940-30000044D0000357D0000700004HG-53944  GGSL
TXBWIC20030-71121-55829-90000006D0000054D0000000000hg-55829  GGSL
TXBWIC20030-71121-59000-80000006D0000031D0000000000hg-69000  GGSL
TXBWIC20030-71121-62325-60000012D0000065D0000000000HG-96434  GGSL
TXBWIC20030-71121-95704-70000012D0000070D0001300000HG-95704  GGSL
TXBWIC20030-71121-96187-70000006D0000096D0000000010hg-96187  GGSL
TXBWIC20030-71121-96281-20000180D0000916D0009900000HG-96281  GGSL
TXBWIC20030-71121-96647-60000006D0000029D0000100000hg-96647  GGSL
TXBWIC20030-71409-54321-40000008D0000020D00000000007754321   GGSL
TXBWIC20030-71409-54322-10000006D0000015D00000000007754322   GGSL
TXBWIC20030-71409-54364-10000063D0000310D00000000007754364   GGSL
TXBWIC20030-71409-54365-80000037D0000184D00000000007754365   GGSL
TXBWIC20030-71459-04201-90000604D0009849D00000000230420110   GGSL
TXBWIC20030-71549-01128-40000144D0000413D00016000080112812   GGSL
TXBWIC20030-71549-01129-10002696D0007188D00020000070112912   GGSL
TXBWIC20030-71549-01656-20000006D0000039D00020000000165610   GGSL
TXBWIC20030-71549-01666-10000006D0000065D00066000000166610   GGSL
TXBWIC20030-71549-01672-20003336D0034362D00000000000167224   GGSL
TXBWIC20030-71549-01674-60000792D0004783D00001000000167420   GGSL
TXBWIC20030-71549-01928-00000004D0000030D00000000000192810   GGSL
TXBWIC20030-71549-01936-50000084D0000489D00012000000193610   GGSL
TXBWIC20030-71549-02000-20000018D0000282D00016000000200010   GGSL
TXBWIC20030-71549-02003-30000196D0003101D00017000040200310   GGSL
TXBWIC20030-71549-02014-90000036D0000202D00008000010201405   GGSL
TXBWIC20030-71549-02022-40000296D0000862D00011000030202212   GGSL
TXBWIC20030-71549-02024-80000006D0000059D00004000000202410   GGSL
TXBWIC20030-71549-02027-90000008D0000048D00002000000202712   GGSL
TXBWIC20030-71549-02028-60000088D0000311D00005000000202812   GGSL
TXBWIC20030-71549-02029-30000150D0000544D00006000000202912   GGSL
TXBWIC20030-71549-02054-50000072D0000393D00006000000205408   GGSL
TXBWIC20030-71549-02055-20000990D0001945D00139000810205506   GGSL
TXBWIC20030-71549-02127-60000024D0000285D00007000000212710   GGSL
TXBWIC20030-71549-02219-80000352D0002170D00014000000221910   GGSL
TXBWIC20030-71549-02545-80000001D0000003D00003000000254501   GGSL
TXBWIC20030-71549-02756-80000232D0000539D00032000030275612   GGSL
TXBWIC20030-71549-02822-00009120C0000000D00115000030282210   GGSL
TXBWIC20030-71549-03455-90000012D0000057D00000000000345510   GGSL
TXBWIC20030-71549-03456-60000240D0000939D00002000000345610   GGSL
TXBWIC20030-71549-03964-60000246D0001520D00000000000396410   GGSL
TXBWIC20030-71549-03987-50000216D0002187D00005000000398710   GGSL
TXBWIC20030-71549-04201-10000039D0000551D00000000000420150   GGSL
TXBWIC20030-71549-04243-10000012D0000125D00000000000424310   GGSL
TXBWIC20030-71549-04248-60000060D0000375D00078000000424812   GGSL
TXBWIC20030-71549-04306-30000004D0000117D00000000020430610   GGSL
TXBWIC20030-71549-04314-80000006D0000071D00000000000431406   GGSL
TXBWIC20030-71549-04318-60000102D0000462D00023000009994318   GGSL
TXBWIC20030-71549-04345-20000004D0000035D00040000000434510   GGSL
TXBWIC20030-71549-04363-60000012D0000314D00001000000436304   GGSL
TXBWIC20030-71549-04366-70000004D0000050D00002000020436604   GGSL
TXBWIC20030-71549-04380-30000352D0001292D00083000010438006   GGSL
TXBWIC20030-71549-04385-80001428D0005648D00038000190438580   GGSL
TXBWIC20030-71549-04451-00000004D0000076D00009000000445104   GGSL
TXBWIC20030-71549-04475-60000708D0010534D00000000000447505   GGSL
TXBWIC20030-71549-04477-00001128D0004893D00000000000447705   GGSL
TXBWIC20030-71549-04478-70001104D0009394D00000000000447805   GGSL
TXBWIC20030-71549-04479-40001404D0011255D00010000000447905   GGSL
TXBWIC20030-71549-04481-70000980D0008288D00011000000448105   GGSL
TXBWIC20030-71549-04491-60000036D0000326D00000000000449105   GGSL
TXBWIC20030-71549-04493-00000004D0000034D00012000000449305   GGSL
TXBWIC20030-71549-04494-70000036D0000300D00000000000449405   GGSL
TXBWIC20030-71549-04495-40000006D0000026D00000000000449505   GGSL
TXBWIC20030-71549-04613-20000060D0000381D00016000020461412   GGSL
TXBWIC20030-71549-04615-60000102C0000381C00000000000461504   GGSL
TXBWIC20030-71549-04616-30000048D0000205D00000000000461612   GGSL
TXBWIC20030-71549-04617-00000012D0000077D00001000000461712   GGSL
TXBWIC20030-71549-04618-70000024D0000089D00001000000461812   GGSL
TXBWIC20030-71549-04619-40000024D0000078D00001000000461912   GGSL
TXBWIC20030-71549-04620-00000024D0000108D00001000000462012   GGSL
TXBWIC20030-71549-04621-70000060D0000182D00001000000462112   GGSL
TXBWIC20030-71549-04655-20000050D0000204D00013000000465510   GGSL
TXBWIC20030-71549-04657-60000010D0000081D00000000000465705   GGSL
TXBWIC20030-71549-04740-50000012D0000089D00000000000474010   GGSL
TXBWIC20030-71549-04755-90000012D0000108D00000000000475510   GGSL
TXBWIC20030-71549-04757-30000080D0001152D00000000000475705   GGSL
TXBWIC20030-71549-04758-00000204D0000793D00000000000475805   GGSL
TXBWIC20030-71549-04759-70000030D0000330D00000000000475905   GGSL
TXBWIC20030-71549-04910-20000036D0000124D00007000000491010   GGSL
TXBWIC20030-71549-08410-30000792D0006447D00091000000841010   GGSL
TXBWIC20030-71549-41324- 0000088D0001243D00091000004613264   GGSL
TXBWIC20030-71549-43331-40000804D0004728D00042000080433310   GGSL
TXBWIC20030-71549-43701-50000592D0013318D00042000160437010   GGSL
TXBWIC20030-71549-43820-30000110D0000730D00014000004382008   GGSL
TXBWIC20030-71549-43887-60000240D0000874D00017000024388710   GGSL
TXBWIC20030-71549-44551-50000004D0000072D00000000000445510   GGSL
TXBWIC20030-71549-46008-20000004D0000065D00002000014600810   GGSL
TXBWIC20030-71549-46025-90000114D0000589D00012000024602510   GGSL
TXBWIC20030-71549-46134-80000030D0000144D00007000004613406   GGSL
TXBWIC20030-71549-46503-20000054D0000904D00073000034650306   GGSL
TXBWIC20030-71549-99008-40000030D0000371D00007000259900810   GGSL
TXBWIC20030-71549-99019-00000060D0000680D00033000009901910   GGSL
TXBWIC20030-71549-99060-20000084D0000793D00002000009906010   GGSL
TXBWIC20030-71549-99934-60000180D0001543D00019000009994110   GGSL
TXBWIC20030-71549-99946-90000036D0000370D00007000009994610   GGSL
TXBWIC20030-71693-00000-00000002D0001040D000000000002-P500VS GGSL
TXBWIC20030-71693-02101-60001000D0000620D000000000002-P1000S GGSL
TXBWIC20030-71693-02109-20001250D0000780D000000000002-SP660  GGSL
TXBWIC20030-71693-02117-70001000D0000531D000000000002-HR250  GGSL
TXBWIC20030-71693-02250-10000250D0000130D000000000002-PW250  GGSL
TXBWIC20030-71693-02251-80000250D0000130D000000000002-BF250  GGSL
TXBWIC20030-71693-02510-60000500D0000260D000000000002-P500S  GGSL
TXBWIC20030-71693-04110-60002200D0000462D000000000004-LG1100 GGSL
TXBWIC20030-71693-04111-30004400D0000924D000000000004-LG1100SGGSL
TXBWIC20030-71693-04114-40001100D0000000D000000000004-LG1100VGGSL
TXBWIC20030-71693-04153-30001500D0000315D000000000004-LG1500VGGSL
TXBWIC20030-71693-04750-40001500D0000314D000000000004-LG750  GGSL
TXBWIC20030-71693-04752-80000751D0000353D000000000004-LG750F GGSL
TXBWIC20030-71693-04753-50001500D0000324D000000000004-LG750V GGSL
TXBWIC20030-71693-04754-20000750D0000167D000000000004-LG750VSGGSL
TXBWIC20030-71693-92409-60000001D0000192D000000000002-ORH240 GGSL
TXBWIC20030-71693-92602-10000500D0000416D000000000002-PN250  GGSL
TXBWIC20030-71693-98601-80000450D0000234D000000000002-PHH450 GGSL
TXBWIC20030-71693-98701-50000900D0000482D000000000002-PAO450 GGSL
TXBWIC20030-71693-99913-10000001D0000161D000000000002-HHCC120GGSL
TXBWIC20030-71860-11036-70000002D0000016D00000000008711036   GGSL
TXBWIC20030-71898-43163-40000167D0003187D00109000207800      GGSL
TXBWIC20030-71898-43180-10000073D0001125D00415000007450      GGSL
TXBWIC20030-71898-43213-60000264D0004857D00543000007324      GGSL
TXBWIC20030-71898-43214-30000096D0001681D00598000607326      GGSL
TXBWIC20030-72525-00003-00000084D0000280D0002100001HRT-6     GGSL
TXBWIC20030-72525-00005-40000108D0000510D0002100000HRP-16    GGSL
TXBWIC20030-72525-00022-10000048D0000726D0001100000HBB-32    GGSL
TXBWIC20030-72525-00048-10000048D0000187D0001300000HDE-8     GGSL
TXBWIC20030-72525-00055-90000096D0000647D0001000000EGG-16    GGSL
TXBWIC20030-72525-00078-80000015D0000052D0000800000BBTRP     GGSL
TXBWIC20030-72532-00014-80001098D0008147D0026000036          GGSL
TXBWIC20030-72532-00015-50000285D0006866D0047000221          GGSL
TXBWIC20030-72532-00016-20000101D0004285D0019200000          GGSL
TXBWIC20030-72532-00017-90000191D0021451D0012200050          GGSL
TXBWIC20030-72532-22310-30000040D0000304D0001400027stspray-10GGSL
TXBWIC20030-72693-00014-80000672D0000588D002000009582770001  GGSL
TXBWIC20030-72693-00015-50000063D0004386D000910005382100001  GGSL
TXBWIC20030-72693-00022-30008994D0081952D02987001554964      GGSL
TXBWIC20030-72693-00029-20000008D0002520D003320000082100002  GGSL
TXBWIC20030-72693-00046-90000315D0015726D00685000084985      GGSL
TXBWIC20030-72693-00114-50000480D0003189D0016400001MART4317  GGSL
TXBWIC20030-72693-00210-40000060D0003090D000890001382690021  GGSL
TXBWIC20030-72693-00480-10000540D0042774D010370001182002490  GGSL
TXBWIC20030-72693-00498-60000288D0011696D004180000982002489  GGSL
TXBWIC20030-72693-00505-10000624D0009303D004700000682002488  GGSL
TXBWIC20030-72693-01004-80000024D0001135D001490000482100100  GGSL
TXBWIC20030-72693-01773-30000516D0002739D00231000064017B     GGSL
TXBWIC20030-72693-02504-20000108D0001275D00028000002504.0    GGSL
TXBWIC20030-72693-02506-60001515D0025504D03656000762506.0    GGSL
TXBWIC20030-72693-02507-30000135D0019137D00847000172507.0    GGSL
TXBWIC20030-72693-02686-50000207D0005955D0040100054CSI2686   GGSL
TXBWIC20030-72693-02750-30000006D0000234D0005000000CSI2750   GGSL
TXBWIC20030-72693-03143-20000036D0000338D000200000482300314  GGSL
TXBWIC20030-72693-03154-80000090D0001097D000610000382300315  GGSL
TXBWIC20030-72693-03188-30000004D0000157D000280000482300318  GGSL
TXBWIC20030-72693-03251-40000048D0000516D0001900000CSI3251   GGSL
TXBWIC20030-72693-03254-50000182D0008327D0084000000CSI3254   GGSL
TXBWIC20030-72693-03265-10000132D0000274D002390000082300326  GGSL
TXBWIC20030-72693-03270-50000008D0000000D000390000082300327  GGSL
TXBWIC20030-72693-03284-20000006D0000039D000270000082300328  GGSL
TXBWIC20030-72693-03298-90000216D0002628D000810000682300329  GGSL
TXBWIC20030-72693-03599-70001341D0127395D047650014482003599  GGSL
TXBWIC20030-72693-04320-60002592D0087056D04199004324320      GGSL
TXBWIC20030-72693-04435-70001536D0059551D006900001482004435  GGSL
TXBWIC20030-72693-04438-80004299D0064943D11674002614438      GGSL
TXBWIC20030-72693-04500-20000014D0000840D000340000082304500  GGSL
TXBWIC20030-72693-04504-00000378D0010237D01397000184505.0    GGSL
TXBWIC20030-72693-04505-70000709D0046292D02683000354506.0    GGSL
TXBWIC20030-72693-04506-40000386D0006389D00925000004504      GGSL
TXBWIC20030-72693-04515-60000006D0000273D00006000004515.0    GGSL
TXBWIC20030-72693-04668-90000260D0002557D004250001430466.0   GGSL
TXBWIC20030-72693-04697-90000520D0077312D00354000384697.0    GGSL
TXBWIC20030-72693-05007-50000263D0006981D01199000125007.0    GGSL
TXBWIC20030-72693-08300-40000947D0039137D04019000848300.0    GGSL
TXBWIC20030-72693-10002-20000011D0000129D000660000010002.0   GGSL
TXBWIC20030-72693-10374-00000144D0001092D000800001021037     GGSL
TXBWIC20030-72693-14057-80000257D0013880D003160003183014005  GGSL
TXBWIC20030-72693-14081-30000020D0001064D000170000283014008  GGSL
TXBWIC20030-72693-17668-30000054D0000800D017230000931766     GGSL
TXBWIC20030-72693-18668-20000012D0000207D000050000031866.0   GGSL
TXBWIC20030-72693-19733-60000119D0002827D005960000031973.0   GGSL
TXBWIC20030-72693-19845-60000444D0005050D001770000331984.0   GGSL
TXBWIC20030-72693-19855-50000792D0009003D001640000531985     GGSL
