TXBWIC20037-203430000115AGRI-TEX                      GGPO
TXBWIC20037-322210000802AGRI-TEX                      GGPO
TXBWIC20030-103670001663ALLIANCE ANIMAL CARE, LLC     GGPO
TXBWIC20030-112470000874ALLIANCE ANIMAL CARE, LLC     GGPO
TXBWIC20030-221790000946ALLIANCE ANIMAL CARE, LLC     GGPO
TXBWIC20030-238830000989ALLIANCE ANIMAL CARE, LLC     GGPO
TXBWIC20030-246540000023ALLIANCE ANIMAL CARE, LLC     GGPO
TXBWIC20030-322470000657ALLIANCE ANIMAL CARE, LLC     GGPO
TXBWIC20030-346130000018ALLIANCE ANIMAL CARE, LLC     GGPO
TXBWIC20030-353070001230ALLIANCE ANIMAL CARE, LLC     GGPO
TXBWIC20030-373210000671ALLIANCE ANIMAL CARE, LLC     GGPO
TXBWIC20030-383130000077ALLIANCE ANIMAL CARE, LLC     GGPO
TXBWIC20030-422060000011ALLIANCE ANIMAL CARE, LLC     GGPO
TXBWIC20030-425790000126ALLIANCE ANIMAL CARE, LLC     GGPO
TXBWIC20030-501970000124ALLIANCE ANIMAL CARE, LLC     GGPO
TXBWIC20030-506990000020ALLIANCE ANIMAL CARE, LLC     GGPO
TXBWIC20030-527320000085ALLIANCE ANIMAL CARE, LLC     GGPO
TXBWIC20030-701830000131ALLIANCE ANIMAL CARE, LLC     GGPO
TXBWIC20030-715490000140ALLIANCE ANIMAL CARE, LLC     GGPO
TXBWIC20030-726930005669ALLIANCE ANIMAL CARE, LLC     GGPO
TXBWIC20030-730350000092ALLIANCE ANIMAL CARE, LLC     GGPO
TXBWIC20030-735610000427ALLIANCE ANIMAL CARE, LLC     GGPO
TXBWIC20030-776250000046ALLIANCE ANIMAL CARE, LLC     GGPO
TXBWIC20030-789780000016ALLIANCE ANIMAL CARE, LLC     GGPO
TXBWIC20030-843690000002ALLIANCE ANIMAL CARE, LLC     GGPO
TXBWIC20030-851990000617ALLIANCE ANIMAL CARE, LLC     GGPO
TXBWIC20030-952420000032ALLIANCE ANIMAL CARE, LLC     GGPO
TXBWIC20030-956680001127ALLIANCE ANIMAL CARE, LLC     GGPO
TXBWIC20036-592760000014ALLIANCE ANIMAL CARE, LLC     GGPO
TXBWIC20036-870730002111ALLIANCE ANIMAL CARE, LLC     GGPO
TXBWIC20037-184770000392ALLIANCE ANIMAL CARE, LLC     GGPO
TXBWIC20037-203430048176ALLIANCE ANIMAL CARE, LLC     GGPO
TXBWIC20037-256090000999ALLIANCE ANIMAL CARE, LLC     GGPO
TXBWIC20037-296410000024ALLIANCE ANIMAL CARE, LLC     GGPO
TXBWIC20037-322210000247ALLIANCE ANIMAL CARE, LLC     GGPO
TXBWIC20037-522890000070ALLIANCE ANIMAL CARE, LLC     GGPO
TXBWIC20037-689800000150ALLIANCE ANIMAL CARE, LLC     GGPO
TXBWIC20037-768960000052ALLIANCE ANIMAL CARE, LLC     GGPO
TXBWIC20037-865410000109ALLIANCE ANIMAL CARE, LLC     GGPO
TXBWIC20038-744800002486ALLIANCE ANIMAL CARE, LLC     GGPO
TXBWIC20030-642770035100AMERICAN GARDEN PERLITE, LLC  GGPO
TXBWIC20030-954220003177AMERICAN GARDENWORKS, INC.    GGPO
TXBWIC20030-726930000211AMERICAN PLANT FOOD CORP      GGPO
TXBWIC20030-004020000028AQUATROLS CORP OF AM          GGPO
TXBWIC20030-322210000599AQUATROLS CORP OF AM          GGPO
TXBWIC20030-422060000027AQUATROLS CORP OF AM          GGPO
TXBWIC20030-874040000045AQUATROLS CORP OF AM          GGPO
TXBWIC20030-946540000018AQUATROLS CORP OF AM          GGPO
TXBWIC20031-887160000145AQUATROLS CORP OF AM          GGPO
TXBWIC20037-203430000127AQUATROLS CORP OF AM          GGPO
TXBWIC20038-144850000065AQUATROLS CORP OF AM          GGPO
TXBWIC20038-118900006824ARBORJET, INC.                GGPO
TXBWIC20030-306410000031ATKISON'S SEED & SUPPLY       GGPO
TXBWIC20030-715490000140ATKISON'S SEED & SUPPLY       GGPO
TXBWIC20030-726930000114ATKISON'S SEED & SUPPLY       GGPO
TXBWIC20030-843690000055ATKISON'S SEED & SUPPLY       GGPO
TXBWIC20036-592760000019ATKISON'S SEED & SUPPLY       GGPO
TXBWIC20038-744800000103ATKISON'S SEED & SUPPLY       GGPO
TXBWIC20030-768170003223ATLAS FEED MILLS, INC.        GGPO
TXBWIC20037-174820005734AUSTINVILLE LIMESTONE CO      GGPO
TXBWIC20030-322470000128AUTREY SUPPLY COMPANY         GGPO
TXBWIC20030-346130000027AUTREY SUPPLY COMPANY         GGPO
TXBWIC20030-383130000042AUTREY SUPPLY COMPANY         GGPO
TXBWIC2003P-C11000012269B&G EQUIPMENT CO.             GGPO
TXBWIC2003P-C14000000236B&G EQUIPMENT CO.             GGPO
TXBWIC20030-238830000033B&G EQUIPMENT CO.             GGPO
TXBWIC20030-537440000067B&G EQUIPMENT CO.             GGPO
TXBWIC20030-664980000223B&G EQUIPMENT CO.             GGPO
TXBWIC20030-726930000479B&G EQUIPMENT CO.             GGPO
TXBWIC20037-322210000122BACK TO NATURE                GGPO
TXBWIC20037-311510001474BAHCO NORTH AMERICA           GGPO
TXBWIC20037-191950000183BARENBRUG USA-MKTNG DIVIS     GGPO
TXBWIC20037-577350002521BARNEL INTERNATIONAL, INC.    GGPO
TXBWIC20030-353070000244BASF CORPORATION              GGPO
TXBWIC20030-383130000037BASF CORPORATION              GGPO
TXBWIC20030-400250000080BASF CORPORATION              GGPO
TXBWIC20030-431620002275BASF CORPORATION              GGPO
TXBWIC20037-184770066934BASF CORPORATION              GGPO
TXBWIC20037-322210000025BASF CORPORATION              GGPO
TXBWIC20038-744800000423BASF CORPORATION              GGPO
TXBWIC20038-839400000002BASF CORPORATION              GGPO
TXBWIC20030-322470000057BAYER ENVIRONMENTAL SCIENCE   GGPO
TXBWIC20030-383130000039BAYER ENVIRONMENTAL SCIENCE   GGPO
TXBWIC20030-422060000061BAYER ENVIRONMENTAL SCIENCE   GGPO
TXBWIC20030-425790001289BAYER ENVIRONMENTAL SCIENCE   GGPO
TXBWIC20030-527320000240BAYER ENVIRONMENTAL SCIENCE   GGPO
TXBWIC20030-709230000155BAYER ENVIRONMENTAL SCIENCE   GGPO
TXBWIC20030-728680000095BAYER ENVIRONMENTAL SCIENCE   GGPO
TXBWIC20030-843690000100BAYER ENVIRONMENTAL SCIENCE   GGPO
TXBWIC20030-857650000008BAYER ENVIRONMENTAL SCIENCE   GGPO
TXBWIC20030-886850000040BAYER ENVIRONMENTAL SCIENCE   GGPO
TXBWIC20036-870730000049BAYER ENVIRONMENTAL SCIENCE   GGPO
TXBWIC20037-522890000094BAYER ENVIRONMENTAL SCIENCE   GGPO
TXBWIC20037-689800000249BAYER ENVIRONMENTAL SCIENCE   GGPO
TXBWIC20038-744800000888BAYER ENVIRONMENTAL SCIENCE   GGPO
TXBWIC20037-522890000013BAYER PROFESSIONAL PEST MGT   GGPO
TXBWIC20030-428530000964BELL LABORATORIES             GGPO
TXBWIC20030-487450004160BELL LABORATORIES             GGPO
TXBWIC20037-522890000028BELL LABORATORIES             GGPO
TXBWIC20036-397510012605BELLINGHAM GLOVE, INC         GGPO
TXBWIC20036-743260000167BELLINGHAM GLOVE, INC         GGPO
TXBWIC20030-383130000012BERRY GLOBAL, INC.            GGPO
TXBWIC20037-427860000284BERRY GLOBAL, INC.            GGPO
TXBWIC20030-238830002249BIO WORKS, INC.               GGPO
TXBWIC20030-487450000533BIO WORKS, INC.               GGPO
TXBWIC20037-689800000111BIO WORKS, INC.               GGPO
TXBWIC20038-144850000110BIO WORKS, INC.               GGPO
TXBWIC20031-887160012689BIOSAFE SYSTEMS               GGPO
TXBWIC20030-322210000899BLACK GOLD COMPOST CO.        GGPO
TXBWIC20030-501970000153BLACK GOLD COMPOST CO.        GGPO
TXBWIC20030-726930004986BLACK GOLD COMPOST CO.        GGPO
TXBWIC20037-296400000728BLACK GOLD COMPOST CO.        GGPO
TXBWIC20037-296410000922BLACK GOLD COMPOST CO.        GGPO
TXBWIC20037-768960000466BLACK GOLD COMPOST CO.        GGPO
TXBWIC20030-874040007959BLOEM, LLC                    GGPO
TXBWIC20038-141740000209BLOEM, LLC                    GGPO
TXBWIC20030-346130000654BOND MANUFACTURING CO,INC     GGPO
TXBWIC20030-353550008036BOND MANUFACTURING CO,INC     GGPO
TXBWIC20030-373210131892BONIDE PRODUCTS, INC.         GGPO
TXBWIC20030-768070002602BONIDE PRODUCTS, INC.         GGPO
TXBWIC20031-003730000421BONIDE PRODUCTS, INC.         GGPO
TXBWIC20033-732100000359BONIDE PRODUCTS, INC.         GGPO
TXBWIC20030-364340000011BWI PACKAGING                 GGPO
TXBWIC20030-501970000981BWI PACKAGING                 GGPO
TXBWIC20030-946540000052BWI PACKAGING                 GGPO
TXBWIC20037-322210000099BWI PACKAGING                 GGPO
TXBWIC20030-112470016452CARL POOL PRODUCTS            GGPO
TXBWIC20030-322470000214CARL POOL PRODUCTS            GGPO
TXBWIC20030-363480000049CARL POOL PRODUCTS            GGPO
TXBWIC20030-373210000305CARL POOL PRODUCTS            GGPO
TXBWIC20030-425790000064CARL POOL PRODUCTS            GGPO
TXBWIC20030-735610000060CARL POOL PRODUCTS            GGPO
TXBWIC20030-786270000096CARL POOL PRODUCTS            GGPO
TXBWIC20030-789780000038CARL POOL PRODUCTS            GGPO
TXBWIC20030-843690000115CARL POOL PRODUCTS            GGPO
TXBWIC20030-851990000007CARL POOL PRODUCTS            GGPO
TXBWIC20030-934320000516CARL POOL PRODUCTS            GGPO
TXBWIC20031-124750000211CARL POOL PRODUCTS            GGPO
TXBWIC20031-919420000563CARL POOL PRODUCTS            GGPO
TXBWIC20036-510820000014CARL POOL PRODUCTS            GGPO
TXBWIC20036-870730000026CARL POOL PRODUCTS            GGPO
TXBWIC20037-126260000061CARL POOL PRODUCTS            GGPO
TXBWIC20037-184770001932CARL POOL PRODUCTS            GGPO
TXBWIC20037-522890000172CARL POOL PRODUCTS            GGPO
TXBWIC20037-709320000054CARL POOL PRODUCTS            GGPO
TXBWIC20038-143730000077CARL POOL PRODUCTS            GGPO
TXBWIC20038-164030000043CARL POOL PRODUCTS            GGPO
TXBWIC20038-518530000045CARL POOL PRODUCTS            GGPO
TXBWIC20030-004020000009CENTRAL LIFE SCIENCES         GGPO
TXBWIC20030-112470000950CENTRAL LIFE SCIENCES         GGPO
TXBWIC20030-346130000045CENTRAL LIFE SCIENCES         GGPO
TXBWIC20030-383130000095CENTRAL LIFE SCIENCES         GGPO
TXBWIC20030-709230000026CENTRAL LIFE SCIENCES         GGPO
TXBWIC20030-843690000026CENTRAL LIFE SCIENCES         GGPO
TXBWIC20030-866210033328CENTRAL LIFE SCIENCES         GGPO
TXBWIC20036-592760000316CENTRAL LIFE SCIENCES         GGPO
TXBWIC20037-256090000056CENTRAL LIFE SCIENCES         GGPO
TXBWIC20037-322210000029CENTRAL LIFE SCIENCES         GGPO
TXBWIC20037-689800000151CENTRAL LIFE SCIENCES         GGPO
TXBWIC20037-709320000035CENTRAL LIFE SCIENCES         GGPO
TXBWIC20030-501970000051CENTRAL LIFE SCIENCES/WELLMARKGGPO
TXBWIC20030-726930000635CENTRAL LIFE SCIENCES/WELLMARKGGPO
TXBWIC20037-322210000117CENTRAL LIFE SCIENCES/WELLMARKGGPO
TXBWIC20030-238830052968CHAPIN INTERNATIONAL          GGPO
TXBWIC20030-726930004323CHEM ONE LTD.                 GGPO
TXBWIC20030-730350000006CHEM ONE LTD.                 GGPO
TXBWIC20030-851990000010CHEM ONE LTD.                 GGPO
TXBWIC20030-886850000019CHEM ONE LTD.                 GGPO
TXBWIC20037-322210000544CHEM ONE LTD.                 GGPO
TXBWIC20031-061730001790CLASSIC BRANDS LLC            GGPO
TXBWIC20036-173130001606CLASSIC BRANDS LLC            GGPO
TXBWIC20038- 15560002670CLASSIC BRANDS LLC            GGPO
TXBWIC20038-155620006366CLASSIC BRANDS LLC            GGPO
TXBWIC20030-004020039674COLLIER METAL SPECIALTIES LTD GGPO
TXBWIC20037-768960012214COMMODITY MARKETING CO        GGPO
TXBWIC20030-726930211245CONTROL SOLUTIONS, INC.       GGPO
TXBWIC20037-269300000828CONTROL SOLUTIONS, INC.       GGPO
TXBWIC20037-269320000168CONTROL SOLUTIONS, INC.       GGPO
TXBWIC20037-269330000709CONTROL SOLUTIONS, INC.       GGPO
TXBWIC20037-269340095027CONTROL SOLUTIONS, INC.       GGPO
TXBWIC20037-423840005169CONTROL SOLUTIONS, INC.       GGPO
TXBWIC20030-322210000019CORONA CLIPPER INC            GGPO
TXBWIC20030-383130032831CORONA CLIPPER INC            GGPO
TXBWIC20031-003830000086CORONA CLIPPER INC            GGPO
TXBWIC20033-831300000162CORONA CLIPPER INC            GGPO
TXBWIC20033-831320000024CORONA CLIPPER INC            GGPO
TXBWIC20030-949220014049CPKB DBA - TRUNK LINER        GGPO
TXBWIC20037-191950022435D & D COMMODITIES LTD.        GGPO
TXBWIC20038-191950000027D & D COMMODITIES LTD.        GGPO
TXBWIC20030-952420000277DALLAS MANUFACTURING COMPANY  GGPO
TXBWIC20037-322210000081DALLAS MANUFACTURING COMPANY  GGPO
TXBWIC20037-296400000321DAVID MELDE                   GGPO
TXBWIC20037-296410000081DAVID MELDE                   GGPO
TXBWIC20038-143730000760DELKIN DEVICES                GGPO
TXBWIC20030-400250000023DELUXE HOLDINGS, LLC          GGPO
TXBWIC20030-072620001265DEROMA USA                    GGPO
TXBWIC20030-726930000097DEROMA USA                    GGPO
TXBWIC20031-919420003863DEROMA USA                    GGPO
TXBWIC20037-262320000145DEROMA USA                    GGPO
TXBWIC20037-322210000208DEROMA USA                    GGPO
TXBWIC20030-322210002159DEVROOMEN GARDEN PRODUCTS INC GGPO
TXBWIC20030-333490000060DEVROOMEN GARDEN PRODUCTS INC GGPO
TXBWIC20030-428530001147DEVROOMEN GARDEN PRODUCTS INC GGPO
TXBWIC20030-726930001606DEVROOMEN GARDEN PRODUCTS INC GGPO
TXBWIC20037-322210000120DEVROOMEN GARDEN PRODUCTS INC GGPO
TXBWIC20037-709320001015DEVROOMEN GARDEN PRODUCTS INC GGPO
TXBWIC20030-224010006056DEWITT COMPANY, INC           GGPO
TXBWIC20030-425790032581DEWITT COMPANY, INC           GGPO
TXBWIC20030-433260000365DEWITT COMPANY, INC           GGPO
TXBWIC20030-532910001276DEWITT COMPANY, INC           GGPO
TXBWIC20030-843690000154DEWITT COMPANY, INC           GGPO
TXBWIC20030-851990000072DEWITT COMPANY, INC           GGPO
TXBWIC20037-184770000240DEWITT COMPANY, INC           GGPO
TXBWIC20037-296400000268DEWITT COMPANY, INC           GGPO
TXBWIC20037-322210000191DEWITT COMPANY, INC           GGPO
TXBWIC20037-689800000033DEWITT COMPANY, INC           GGPO
TXBWIC20030-642770015997DICAPERL MINERALS CORPORATION GGPO
TXBWIC20037-256090015692DIP'N GROW INC                GGPO
TXBWIC20037-768960078993DISCOUNT SEEDS, INC           GGPO
TXBWIC20030-851990001134DOSATRON INTERNATIONAL        GGPO
TXBWIC20030-701830000373DREXEL CHEMICAL COMPANY       GGPO
TXBWIC20030-400250000321EARTHWAY PRODUCTS INC         GGPO
TXBWIC20030-527320020919EARTHWAY PRODUCTS INC         GGPO
TXBWIC20030-572730004935EARTHWAY PRODUCTS INC         GGPO
TXBWIC20030-425790000026EARTHWORKS                    GGPO
TXBWIC20030-487450000106EARTHWORKS                    GGPO
TXBWIC20030-726930001657EARTHWORKS                    GGPO
TXBWIC20036-173130000073EARTHWORKS                    GGPO
TXBWIC20036-511240000050EARTHWORKS                    GGPO
TXBWIC20037-322210001350EARTHWORKS                    GGPO
TXBWIC20038-155620000333EARTHWORKS                    GGPO
TXBWIC20030-390440000182EASY GARDENER INC.            GGPO
TXBWIC20030-730350008532EASY GARDENER INC.            GGPO
TXBWIC20030-506990002305EATON BROTHERS CORP.          GGPO
TXBWIC20035-069900001395EATON BROTHERS CORP.          GGPO
TXBWIC20037-184770000173ERWIN KEITH INC.              GGPO
TXBWIC20037-184770000499ESSCHERT DESIGN USA           GGPO
TXBWIC20037-322210000053ESSCHERT DESIGN USA           GGPO
TXBWIC20037-203430009035EXTREME DOG FUEL              GGPO
TXBWIC20030-221790000114FAULTLESS STARCH              GGPO
TXBWIC20030-322470000053FAULTLESS STARCH              GGPO
TXBWIC20030-329030000056FAULTLESS STARCH              GGPO
TXBWIC20030-373210000156FAULTLESS STARCH              GGPO
TXBWIC20030-714590000052FAULTLESS STARCH              GGPO
TXBWIC20030-728680000015FAULTLESS STARCH              GGPO
TXBWIC20030-789780000019FAULTLESS STARCH              GGPO
TXBWIC20030-843690000083FAULTLESS STARCH              GGPO
TXBWIC20036-870730000026FAULTLESS STARCH              GGPO
TXBWIC20037-522890000227FAULTLESS STARCH              GGPO
TXBWIC20037-689800000018FAULTLESS STARCH              GGPO
TXBWIC20037-768960000162FAULTLESS STARCH              GGPO
TXBWIC20038-744800000112FAULTLESS STARCH              GGPO
TXBWIC20037-203430003535FESTIVAL WINDCHIMES           GGPO
TXBWIC20030-230770011448FLEISCHMANN'S VINEGAR COMPANY GGPO
TXBWIC20036-442160000573FOOTHILLS COMPOST LLC         GGPO
TXBWIC20037-522890436329FOXFARM SOIL & FERTILIZER CO. GGPO
TXBWIC20030-537440000067G & R TRELLIS & SUPPLY CO.    GGPO
TXBWIC20030-230770001506GARDENSCAPE INC               GGPO
TXBWIC20030-344170001081GARDENSCAPE INC               GGPO
TXBWIC20030-074540011230GARDMAN/WORLD SOURCE PARTNERS GGPO
TXBWIC20037-454870044637GARDMAN/WORLD SOURCE PARTNERS GGPO
TXBWIC20038-114210000052GARDMAN/WORLD SOURCE PARTNERS GGPO
TXBWIC20038-145670000094GARDMAN/WORLD SOURCE PARTNERS GGPO
TXBWIC20037-174820020301GARICK LLC                    GGPO
TXBWIC20030-034410007980GILMOUR MFG COMPANY           GGPO
TXBWIC20036-173130000024GREEN-TEK  INC                GGPO
TXBWIC20037-296400000021GREEN-TEK  INC                GGPO
TXBWIC20038-525530000641GTX TURF FARMS LP             GGPO
TXBWIC20036-902430007945H D HUDSON MFG CO             GGPO
TXBWIC20036-902470000462H D HUDSON MFG CO             GGPO
TXBWIC20037-709320000571HAPPINESS FARMS               GGPO
TXBWIC20030-532910003619HEADWIND CONSUMER PRODUCTS    GGPO
TXBWIC20031-005320000311HEADWIND CONSUMER PRODUCTS    GGPO
TXBWIC20030-851990000378HEATH MFG                     GGPO
TXBWIC20030-400250002689HONEYWELL SAFETY PRODUCTS USA GGPO
TXBWIC20036-624980000197HONEYWELL SAFETY PRODUCTS USA GGPO
TXBWIC20038-839400000010HONEYWELL SAFETY PRODUCTS USA GGPO
TXBWIC20030-346130000067HOWARD JOHNSON, INC           GGPO
TXBWIC20030-781590081961HOWARD JOHNSON, INC           GGPO
TXBWIC20031-007810003710HOWARD JOHNSON, INC           GGPO
TXBWIC20030-322210000320ICL SPECIALTY FERTILIZERS     GGPO
TXBWIC20030-322470000071ICL SPECIALTY FERTILIZERS     GGPO
TXBWIC20030-329030000024ICL SPECIALTY FERTILIZERS     GGPO
TXBWIC20030-353070000166ICL SPECIALTY FERTILIZERS     GGPO
TXBWIC20030-373210000268ICL SPECIALTY FERTILIZERS     GGPO
TXBWIC20030-383130000346ICL SPECIALTY FERTILIZERS     GGPO
TXBWIC20030-400250000026ICL SPECIALTY FERTILIZERS     GGPO
TXBWIC20030-428530001004ICL SPECIALTY FERTILIZERS     GGPO
TXBWIC20030-467530000030ICL SPECIALTY FERTILIZERS     GGPO
TXBWIC20030-701830000622ICL SPECIALTY FERTILIZERS     GGPO
TXBWIC20030-725250000032ICL SPECIALTY FERTILIZERS     GGPO
TXBWIC20030-735610000243ICL SPECIALTY FERTILIZERS     GGPO
TXBWIC20030-768070000143ICL SPECIALTY FERTILIZERS     GGPO
TXBWIC20030-777840000013ICL SPECIALTY FERTILIZERS     GGPO
TXBWIC20030-851990000005ICL SPECIALTY FERTILIZERS     GGPO
TXBWIC20030-866210002159ICL SPECIALTY FERTILIZERS     GGPO
TXBWIC20036-511240000050ICL SPECIALTY FERTILIZERS     GGPO
TXBWIC20036-870730000140ICL SPECIALTY FERTILIZERS     GGPO
TXBWIC20037-211040002800ICL SPECIALTY FERTILIZERS     GGPO
TXBWIC20037-269300000046ICL SPECIALTY FERTILIZERS     GGPO
TXBWIC20037-296410000037ICL SPECIALTY FERTILIZERS     GGPO
TXBWIC20037-322210000692ICL SPECIALTY FERTILIZERS     GGPO
TXBWIC20037-522890000059ICL SPECIALTY FERTILIZERS     GGPO
TXBWIC20037-591880000008ICL SPECIALTY FERTILIZERS     GGPO
TXBWIC20037-689800003189ICL SPECIALTY FERTILIZERS     GGPO
TXBWIC20037-709320000093ICL SPECIALTY FERTILIZERS     GGPO
TXBWIC20037-768960000064ICL SPECIALTY FERTILIZERS     GGPO
TXBWIC20038-744800001551ICL SPECIALTY FERTILIZERS     GGPO
TXBWIC20030-415350000132ITB CO., INC.                 GGPO
TXBWIC20030-501970000081ITB CO., INC.                 GGPO
TXBWIC20030-537440000106ITB CO., INC.                 GGPO
TXBWIC20030-701830000320ITB CO., INC.                 GGPO
TXBWIC20030-726930001792ITB CO., INC.                 GGPO
TXBWIC20030-886850000042ITB CO., INC.                 GGPO
TXBWIC20037-322210000105ITB CO., INC.                 GGPO
TXBWIC20030-843690000009J & D MANUFACTURING           GGPO
TXBWIC20036-511240000039J & D MANUFACTURING           GGPO
TXBWIC20037-322210000155J & D MANUFACTURING           GGPO
TXBWIC20030-400250000023J & M PLASTICS INC            GGPO
TXBWIC20030-333490004783JIFFY PRODUCTS OF AMERICA     GGPO
TXBWIC20030-527320000400JIFFY PRODUCTS OF AMERICA     GGPO
TXBWIC20031-036020000177JIFFY PRODUCTS OF AMERICA     GGPO
TXBWIC20037-000010000352JIFFY PRODUCTS OF AMERICA     GGPO
TXBWIC20037-000030000389JIFFY PRODUCTS OF AMERICA     GGPO
TXBWIC20037-000040000114JIFFY PRODUCTS OF AMERICA     GGPO
TXBWIC20034-077340002128JONES SEED COMPANY            GGPO
TXBWIC20037-296400032735JONES SEED COMPANY            GGPO
TXBWIC20037-296410019327JONES SEED COMPANY            GGPO
TXBWIC20037-396400003397JONES SEED COMPANY            GGPO
TXBWIC20037-768960001140JONES SEED COMPANY            GGPO
TXBWIC20030-305410003523JRM CHEMICAL                  GGPO
TXBWIC20030-402790004789L E COOKE COMPANY             GGPO
TXBWIC20030-938180002024L E COOKE COMPANY             GGPO
TXBWIC20030-004020000001LAMBERT PEAT MOSS, INC        GGPO
TXBWIC20030-221790000061LAMBERT PEAT MOSS, INC        GGPO
TXBWIC20030-353070000096LAMBERT PEAT MOSS, INC        GGPO
TXBWIC20030-425790000538LAMBERT PEAT MOSS, INC        GGPO
TXBWIC20030-532910000965LAMBERT PEAT MOSS, INC        GGPO
TXBWIC20030-664980105804LAMBERT PEAT MOSS, INC        GGPO
TXBWIC20036-173130000019LAMBERT PEAT MOSS, INC        GGPO
TXBWIC20036-649800001094LAMBERT PEAT MOSS, INC        GGPO
TXBWIC20037-184770001283LAMBERT PEAT MOSS, INC        GGPO
TXBWIC20037-296400000393LAMBERT PEAT MOSS, INC        GGPO
TXBWIC20037-322210000221LAMBERT PEAT MOSS, INC        GGPO
TXBWIC20037-522890000097LAMBERT PEAT MOSS, INC        GGPO
TXBWIC20038-155620000068LAMBERT PEAT MOSS, INC        GGPO
TXBWIC20030-230770001363LANDSCAPERS PRIDE             GGPO
TXBWIC20030-344170007228LANDSCAPERS PRIDE             GGPO
TXBWIC20030-664980000597LANDSCAPERS PRIDE             GGPO
TXBWIC20037-154900000461LANDSCAPERS PRIDE             GGPO
TXBWIC20030-428530000867LEATHER BROTHERS              GGPO
TXBWIC20030-866210000479LEATHER BROTHERS              GGPO
TXBWIC20030-322470000043LEBANON SEABOARD CORPORATION  GGPO
TXBWIC20030-886850014166LEBANON SEABOARD CORPORATION  GGPO
TXBWIC20030-927830003990LEBANON SEABOARD CORPORATION  GGPO
TXBWIC20031-887160000072LEBANON SEABOARD CORPORATION  GGPO
TXBWIC20030-336070003746LEWIS LIFETIME TOOLS          GGPO
TXBWIC20030-112470000089LIDOCHEM, INC                 GGPO
TXBWIC20030-353070005384LUSTER LEAF PRODUCTS, INC     GGPO
TXBWIC20037-865410000210MADDOX SEED                   GGPO
TXBWIC20030-322210000094MARSHALL HOME CORPORATION     GGPO
TXBWIC20030-322470000405MARSHALL HOME CORPORATION     GGPO
TXBWIC20030-373210000037MARSHALL HOME CORPORATION     GGPO
TXBWIC20030-383130000135MARSHALL HOME CORPORATION     GGPO
TXBWIC20030-501970000025MARSHALL HOME CORPORATION     GGPO
TXBWIC20030-527320000080MARSHALL HOME CORPORATION     GGPO
TXBWIC20030-664980001376MARSHALL HOME CORPORATION     GGPO
TXBWIC20030-715490000047MARSHALL HOME CORPORATION     GGPO
TXBWIC20030-726930000757MARSHALL HOME CORPORATION     GGPO
TXBWIC20030-735610000039MARSHALL HOME CORPORATION     GGPO
TXBWIC20030-843690000113MARSHALL HOME CORPORATION     GGPO
TXBWIC20030-851990000156MARSHALL HOME CORPORATION     GGPO
TXBWIC20030-952420000206MARSHALL HOME CORPORATION     GGPO
TXBWIC20031-071910000040MARSHALL HOME CORPORATION     GGPO
TXBWIC20036-510820000053MARSHALL HOME CORPORATION     GGPO
TXBWIC20036-870730000629MARSHALL HOME CORPORATION     GGPO
TXBWIC20037-191950000069MARSHALL HOME CORPORATION     GGPO
TXBWIC20037-269320000439MARSHALL HOME CORPORATION     GGPO
TXBWIC20037-296400000143MARSHALL HOME CORPORATION     GGPO
TXBWIC20037-296410000060MARSHALL HOME CORPORATION     GGPO
TXBWIC20037-322210000374MARSHALL HOME CORPORATION     GGPO
TXBWIC20037-522890000022MARSHALL HOME CORPORATION     GGPO
TXBWIC20037-591880000020MARSHALL HOME CORPORATION     GGPO
TXBWIC20037-709320000018MARSHALL HOME CORPORATION     GGPO
TXBWIC20038-744800002602MARSHALL HOME CORPORATION     GGPO
TXBWIC20030-843690006309MEARS FERTILIZER, INC.        GGPO
TXBWIC20030-230770020555MEDINA AGRI PRODUCTS          GGPO
TXBWIC20030-467530038858MEDINA AGRI PRODUCTS          GGPO
TXBWIC20034-675300000096MEDINA AGRI PRODUCTS          GGPO
TXBWIC20036-173130000033MELISSA & DOUG, LLC           GGPO
TXBWIC20038-155620000265MELISSA & DOUG, LLC           GGPO
TXBWIC20030-422060012495MELNOR INC.                   GGPO
TXBWIC20030-280090046205MICHIGAN PEAT COMPANY         GGPO
TXBWIC20030-322210000419MICHIGAN PEAT COMPANY         GGPO
TXBWIC20030-487450000106MICHIGAN PEAT COMPANY         GGPO
TXBWIC20038-744800000627MICHIGAN PEAT COMPANY         GGPO
TXBWIC20030-483070003148MIDWEST AIR TECHNOLOGIES,INC. GGPO
TXBWIC20030-465390017463MILORGANITE DIVISION -        GGPO
TXBWIC20037-296400000837MK MINERALS, INC.             GGPO
TXBWIC20037-296410000339MK MINERALS, INC.             GGPO
TXBWIC20031-927720000153MONSANTO AG GROUP             GGPO
TXBWIC20030-221790006460MONTEREY L & G PRODUCTS, INC  GGPO
TXBWIC20032-217910000200MONTEREY L & G PRODUCTS, INC  GGPO
TXBWIC20030-072620000586MOSSER LEE                    GGPO
TXBWIC20030-103670010352MOSSER LEE                    GGPO
TXBWIC20030-501970000086MOSSER LEE                    GGPO
TXBWIC20030-714590000198MOSSER LEE                    GGPO
TXBWIC20037-269320000084MOSSER LEE                    GGPO
TXBWIC20030-341410007627MOUNTAIN WEST LLC             GGPO
TXBWIC20030-428530000779MR. BIRD INC.                 GGPO
TXBWIC20036-511240000039MR. BIRD INC.                 GGPO
TXBWIC20030-383130000031MULDOON MINERALS              GGPO
TXBWIC20038-839400000007MYCORRHIZAL APPLICATIONS      GGPO
TXBWIC20030-236260001274NEOGEN CORPORATION            GGPO
TXBWIC20030-364340000108NEOGEN CORPORATION            GGPO
TXBWIC20030-383130000106NEOGEN CORPORATION            GGPO
TXBWIC20030-425790000161NEOGEN CORPORATION            GGPO
TXBWIC20030-714590000039NEOGEN CORPORATION            GGPO
TXBWIC20030-726930000211NEOGEN CORPORATION            GGPO
TXBWIC20030-843690000090NEOGEN CORPORATION            GGPO
TXBWIC20030-857650000025NEOGEN CORPORATION            GGPO
TXBWIC20030-952420032721NEOGEN CORPORATION            GGPO
TXBWIC20030-952520007029NEOGEN CORPORATION            GGPO
TXBWIC20032-362600000278NEOGEN CORPORATION            GGPO
TXBWIC20033-831300000040NEOGEN CORPORATION            GGPO
TXBWIC20036-510820000067NEOGEN CORPORATION            GGPO
TXBWIC20036-649800000069NEOGEN CORPORATION            GGPO
TXBWIC20036-870730000049NEOGEN CORPORATION            GGPO
TXBWIC20037-184770000684NEOGEN CORPORATION            GGPO
TXBWIC20037-296410000045NEOGEN CORPORATION            GGPO
TXBWIC20037-322210000086NEOGEN CORPORATION            GGPO
TXBWIC20037-522890000222NEOGEN CORPORATION            GGPO
TXBWIC20037-865410000090NEOGEN CORPORATION            GGPO
TXBWIC20038-143730000076NEOGEN CORPORATION            GGPO
TXBWIC20030-238830000148NISUS CORPORATION             GGPO
TXBWIC20030-322470000013NISUS CORPORATION             GGPO
TXBWIC20030-373210000168NISUS CORPORATION             GGPO
TXBWIC20030-532910000029NISUS CORPORATION             GGPO
TXBWIC20030-715490000064NISUS CORPORATION             GGPO
TXBWIC20030-789780000011NISUS CORPORATION             GGPO
TXBWIC20030-843690000035NISUS CORPORATION             GGPO
TXBWIC20030-857650000005NISUS CORPORATION             GGPO
TXBWIC20037-154900000095NISUS CORPORATION             GGPO
TXBWIC20037-322210000069NISUS CORPORATION             GGPO
TXBWIC20037-356130000051NISUS CORPORATION             GGPO
TXBWIC20037-522890000094NISUS CORPORATION             GGPO
TXBWIC20037-591880000008NISUS CORPORATION             GGPO
TXBWIC20037-689800000018NISUS CORPORATION             GGPO
TXBWIC20030-269780000229NOVELTY MANUFACTURING CO      GGPO
TXBWIC20031-002690000500NOVELTY MANUFACTURING CO      GGPO
TXBWIC20030-726930000352NUFARM AMERICAS, INC.         GGPO
TXBWIC20030-532910000594NURSERY SUPPLIES, INC.        GGPO
TXBWIC20030-537440000677NURSERY SUPPLIES, INC.        GGPO
TXBWIC20031-005320000311NURSERY SUPPLIES, INC.        GGPO
TXBWIC20037-322210000269NURSERY SUPPLIES, INC.        GGPO
TXBWIC20030-230770050206OLDCASTLE LAWN & GARDEN       GGPO
TXBWIC20030-344170002127OLDCASTLE LAWN & GARDEN       GGPO
TXBWIC20030-642770010110OLDCASTLE LAWN & GARDEN       GGPO
TXBWIC20030-818180017253OLDCASTLE LAWN & GARDEN       GGPO
TXBWIC20031-919420001412OLDCASTLE LAWN & GARDEN       GGPO
TXBWIC20037-322210000112OLDCASTLE LAWN & GARDEN       GGPO
TXBWIC20037-427860138012OLDCASTLE LAWN & GARDEN       GGPO
TXBWIC20030-273240000243OLDCASTLE STONE PRODUCTS      GGPO
TXBWIC20030-396450000485OLDCASTLE STONE PRODUCTS      GGPO
TXBWIC20037-174820008850OLDCASTLE STONE PRODUCTS      GGPO
TXBWIC20037-904510001104ORGANIC LABORATORIES, INC.    GGPO
TXBWIC20036-510820014783ORIGIN POINT BRANDS, LLC      GGPO
TXBWIC20030-322470000077PACE 49, INC.                 GGPO
TXBWIC20030-383130000051PACE 49, INC.                 GGPO
TXBWIC20030-422060000022PACE 49, INC.                 GGPO
TXBWIC20030-527320000240PACE 49, INC.                 GGPO
TXBWIC20030-848650000033PACE 49, INC.                 GGPO
TXBWIC20030-934320000929PACE 49, INC.                 GGPO
TXBWIC20037-184770001737PACE 49, INC.                 GGPO
TXBWIC20037-322210000671PACE 49, INC.                 GGPO
TXBWIC20037-438600000005PACE 49, INC.                 GGPO
TXBWIC20037-522890000506PACE 49, INC.                 GGPO
TXBWIC20037-689800000040PACE 49, INC.                 GGPO
TXBWIC20030-642770046785PALMETTO VERMICULITE, INC     GGPO
TXBWIC20030-221790000182PARAGON PROFESSIONAL PC       GGPO
TXBWIC20030-726930004832PARAGON PROFESSIONAL PC       GGPO
TXBWIC20030-851990000040PARAGON PROFESSIONAL PC       GGPO
TXBWIC20030-886850000135PARAGON PROFESSIONAL PC       GGPO
TXBWIC20037-322210000091PARAGON PROFESSIONAL PC       GGPO
TXBWIC20037-211040067676PATTEN SEED CO                GGPO
TXBWIC20030-702510029657PBI/GORDON CORP.              GGPO
TXBWIC20037-025180000350PBI/GORDON CORP.              GGPO
TXBWIC20030-726930000637PEAK SEASONS                  GGPO
TXBWIC20030-866210000239PEAK SEASONS                  GGPO
TXBWIC20030-952420000123PEAK SEASONS                  GGPO
TXBWIC20037-184630002105PEAK SEASONS                  GGPO
TXBWIC20037-322210000117PEAK SEASONS                  GGPO
TXBWIC20037-709320003702PLANTBEST INC                 GGPO
TXBWIC20037-755780000712PLANTBEST INC                 GGPO
TXBWIC20030-004020000015POPPELMANN PLASTICS           GGPO
TXBWIC20030-103670000099POPPELMANN PLASTICS           GGPO
TXBWIC20030-221790000152POPPELMANN PLASTICS           GGPO
TXBWIC20030-373210000063POPPELMANN PLASTICS           GGPO
TXBWIC20030-383130000007POPPELMANN PLASTICS           GGPO
TXBWIC20030-422060000021POPPELMANN PLASTICS           GGPO
TXBWIC20030-428530000133POPPELMANN PLASTICS           GGPO
TXBWIC20030-527320000080POPPELMANN PLASTICS           GGPO
TXBWIC20030-789780000062POPPELMANN PLASTICS           GGPO
TXBWIC20037-211040001680POPPELMANN PLASTICS           GGPO
TXBWIC20037-522890000283POPPELMANN PLASTICS           GGPO
TXBWIC20037-591880000025POPPELMANN PLASTICS           GGPO
TXBWIC20030-269780000081PREMIER TECH HORTICULTURE     GGPO
TXBWIC20030-306410000020PREMIER TECH HORTICULTURE     GGPO
TXBWIC20030-373210001484PREMIER TECH HORTICULTURE     GGPO
TXBWIC20030-383130000230PREMIER TECH HORTICULTURE     GGPO
TXBWIC20030-527320000105PREMIER TECH HORTICULTURE     GGPO
TXBWIC20030-726930000254PREMIER TECH HORTICULTURE     GGPO
TXBWIC20030-730350000138PREMIER TECH HORTICULTURE     GGPO
TXBWIC20030-768070000143PREMIER TECH HORTICULTURE     GGPO
TXBWIC20030-843690000157PREMIER TECH HORTICULTURE     GGPO
TXBWIC20030-866210002799PREMIER TECH HORTICULTURE     GGPO
TXBWIC20037-322210001136PREMIER TECH HORTICULTURE     GGPO
TXBWIC20037-689800000122PREMIER TECH HORTICULTURE     GGPO
TXBWIC20037-768960000043PREMIER TECH HORTICULTURE     GGPO
TXBWIC20038-436900000004PREMIER TECH HORTICULTURE     GGPO
TXBWIC20038-744800000103PREMIER TECH HORTICULTURE     GGPO
TXBWIC20030-004020000005PRICE BEVILLE SMITH           GGPO
TXBWIC20030-103670000059PRICE BEVILLE SMITH           GGPO
TXBWIC20030-112470000295PRICE BEVILLE SMITH           GGPO
TXBWIC20030-221790000182PRICE BEVILLE SMITH           GGPO
TXBWIC20030-306410000052PRICE BEVILLE SMITH           GGPO
TXBWIC20030-322470000016PRICE BEVILLE SMITH           GGPO
TXBWIC20030-353070000467PRICE BEVILLE SMITH           GGPO
TXBWIC20030-373210000186PRICE BEVILLE SMITH           GGPO
TXBWIC20030-383130000017PRICE BEVILLE SMITH           GGPO
TXBWIC20030-425790003013PRICE BEVILLE SMITH           GGPO
TXBWIC20030-501970001346PRICE BEVILLE SMITH           GGPO
TXBWIC20030-527320001440PRICE BEVILLE SMITH           GGPO
TXBWIC20030-532910000174PRICE BEVILLE SMITH           GGPO
TXBWIC20030-664980001424PRICE BEVILLE SMITH           GGPO
TXBWIC20030-711210000054PRICE BEVILLE SMITH           GGPO
TXBWIC20030-726930008287PRICE BEVILLE SMITH           GGPO
TXBWIC20030-730350000046PRICE BEVILLE SMITH           GGPO
TXBWIC20030-735610000022PRICE BEVILLE SMITH           GGPO
TXBWIC20030-789780000038PRICE BEVILLE SMITH           GGPO
TXBWIC20030-843690000009PRICE BEVILLE SMITH           GGPO
TXBWIC20030-857650000018PRICE BEVILLE SMITH           GGPO
TXBWIC20036-624980000009PRICE BEVILLE SMITH           GGPO
TXBWIC20036-649800000121PRICE BEVILLE SMITH           GGPO
TXBWIC20036-870730000230PRICE BEVILLE SMITH           GGPO
TXBWIC20037-191950000077PRICE BEVILLE SMITH           GGPO
TXBWIC20037-269320000117PRICE BEVILLE SMITH           GGPO
TXBWIC20037-296400000109PRICE BEVILLE SMITH           GGPO
TXBWIC20037-322210000249PRICE BEVILLE SMITH           GGPO
TXBWIC20037-522890000189PRICE BEVILLE SMITH           GGPO
TXBWIC20037-681030000224PRICE BEVILLE SMITH           GGPO
TXBWIC20037-689800000184PRICE BEVILLE SMITH           GGPO
TXBWIC20037-768960000523PRICE BEVILLE SMITH           GGPO
TXBWIC20037-865410000075PRICE BEVILLE SMITH           GGPO
TXBWIC20038-164030000536PRICE BEVILLE SMITH           GGPO
TXBWIC20038-525530000115PRICE BEVILLE SMITH           GGPO
TXBWIC20038-744800000492PRICE BEVILLE SMITH           GGPO
TXBWIC20030-910530002620PRINCIPLE PLASTICS            GGPO
TXBWIC20038-042730000716PRODUCER'S COOP               GGPO
TXBWIC20037-423840008070PROKOZ, INC                   GGPO
TXBWIC20030-238830000268QUIETAIRE                     GGPO
TXBWIC20038-144850000391QUIETAIRE                     GGPO
TXBWIC20038-164030000047QUIETAIRE                     GGPO
TXBWIC20030-786270002199R.W. ROGERS COMPANY           GGPO
TXBWIC20030-952420000277RED CARPET STUDIOS LTD        GGPO
TXBWIC20037-322210000165RED CARPET STUDIOS LTD        GGPO
TXBWIC20038-525530000069RED HILL LAVA PRODUCTS, INC   GGPO
TXBWIC20037-689800071527SANCO INDUSTRIES, INC.        GGPO
TXBWIC20030-322210004317SBM LIFE SCIENCE CORP/BAYER   GGPO
TXBWIC20036-870730078317SBM LIFE SCIENCE CORP/BAYER   GGPO
TXBWIC20030-004020000028SEAMLESS CONTROL, LLC         GGPO
TXBWIC20030-353070000339SEAMLESS CONTROL, LLC         GGPO
TXBWIC20030-383130000071SEAMLESS CONTROL, LLC         GGPO
TXBWIC20030-702510000333SEAMLESS CONTROL, LLC         GGPO
TXBWIC20036-649800000018SEAMLESS CONTROL, LLC         GGPO
TXBWIC20037-184770000331SEAMLESS CONTROL, LLC         GGPO
TXBWIC20037-522890000285SEAMLESS CONTROL, LLC         GGPO
TXBWIC20038-744800000024SEAMLESS CONTROL, LLC         GGPO
TXBWIC20030-465390000336SEPRO CORPORATION             GGPO
TXBWIC20036-511240000121SEPRO CORPORATION             GGPO
TXBWIC20037-322210000066SEPRO CORPORATION             GGPO
TXBWIC20037-080560000280SHAFER SEED COMPANY           GGPO
TXBWIC20037-768960030229SHAFER SEED COMPANY           GGPO
TXBWIC20034-015960001053SOLO, INCORPORATED            GGPO
TXBWIC20037-203430074415SOLO, INCORPORATED            GGPO
TXBWIC20030-537440000036SOUTHERN AG INSECTICIDES      GGPO
TXBWIC20036-173130000017SOUTHERN AG INSECTICIDES      GGPO
TXBWIC20038-155620000297SOUTHERN AG INSECTICIDES      GGPO
TXBWIC20030-718980012750SPECIALTY FEEDS INC           GGPO
TXBWIC20030-642770002678SPECIALTY VERMICULITE CORP.   GGPO
TXBWIC20036-559720005909SPECTRUM PRODUCTS, INC.       GGPO
TXBWIC20036-990640022500ST. GABRIEL ORGANICS          GGPO
TXBWIC20030-428530009885STERLING INTERNATIONAL INC.   GGPO
TXBWIC20031-004280000123STERLING INTERNATIONAL INC.   GGPO
TXBWIC20030-428530000033STONECASTER, LLC              GGPO
TXBWIC20030-725250000072SUMMIT CHEMICAL COMPANY       GGPO
TXBWIC20030-727250000041SUMMIT CHEMICAL COMPANY       GGPO
TXBWIC20030-730350000092SUMMIT CHEMICAL COMPANY       GGPO
TXBWIC20037-322210000069SUMMIT CHEMICAL COMPANY       GGPO
TXBWIC20030-221790000114SUPERMOSS                     GGPO
TXBWIC20030-329030000056SUPERMOSS                     GGPO
TXBWIC20030-726930000535SUPERMOSS                     GGPO
TXBWIC20037-322210000492SUPERMOSS                     GGPO
TXBWIC20030-786270006899SWAN PRODUCTS, LLC            GGPO
TXBWIC20030-400250000023SWISH, INCORPORATED           GGPO
TXBWIC20030-726930000704SWISH, INCORPORATED           GGPO
TXBWIC20030-428530000468SYNGENTA                      GGPO
TXBWIC20030-789780000020T.O. PLASTICS, INC.           GGPO
TXBWIC20030-487450000106TARTER                        GGPO
TXBWIC20030-946540000012TARTER                        GGPO
TXBWIC20037-184770000264TARTER                        GGPO
TXBWIC20037-211040002963TARTER                        GGPO
TXBWIC20030-537440000866TEXAS BASKET COMPANY          GGPO
TXBWIC20030-383130000061THE BUG STOP                  GGPO
TXBWIC20030-701830000076THE BUG STOP                  GGPO
TXBWIC20030-726930000155THE BUG STOP                  GGPO
TXBWIC20030-776250000073THE BUG STOP                  GGPO
TXBWIC20030-789780000021THE BUG STOP                  GGPO
TXBWIC20030-843690000167THE BUG STOP                  GGPO
TXBWIC20037-211040000093THE BUG STOP                  GGPO
TXBWIC20037-356100000013THE BUG STOP                  GGPO
TXBWIC20038-744800000086THE BUG STOP                  GGPO
TXBWIC20030-415350000132THE DRAMM COMPANY-COMMERCIAL  GGPO
TXBWIC20037-423840000186THE DRAMM COMPANY-COMMERCIAL  GGPO
TXBWIC20030-003640001180THE DRAMM COMPANY-RETAIL      GGPO
TXBWIC20030-364340019756THE DRAMM COMPANY-RETAIL      GGPO
TXBWIC20031-003640003545THE DRAMM COMPANY-RETAIL      GGPO
TXBWIC20030-238830005212THE ESPOMA COMPANY            GGPO
TXBWIC20030-353070000036THE ESPOMA COMPANY            GGPO
TXBWIC20030-501970064811THE ESPOMA COMPANY            GGPO
TXBWIC20035-019700000727THE ESPOMA COMPANY            GGPO
TXBWIC20037-126260000027THE ESPOMA COMPANY            GGPO
TXBWIC20037-322210000096THE ESPOMA COMPANY            GGPO
TXBWIC20030-004020000035THE GORILLA GLUE COMPANY      GGPO
TXBWIC20030-238830000005THE GORILLA GLUE COMPANY      GGPO
TXBWIC20030-353070000041THE GORILLA GLUE COMPANY      GGPO
TXBWIC20030-664980000058THE GORILLA GLUE COMPANY      GGPO
TXBWIC20030-848650000037THE GORILLA GLUE COMPANY      GGPO
TXBWIC20036-870730000277THE GORILLA GLUE COMPANY      GGPO
TXBWIC20037-184770000152THE GORILLA GLUE COMPANY      GGPO
TXBWIC20037-322210000073THE GORILLA GLUE COMPANY      GGPO
TXBWIC20037-522890000190THE GORILLA GLUE COMPANY      GGPO
TXBWIC20030-425790000025THE HC COMPANIES INC          GGPO
TXBWIC20030-501970000072THE HC COMPANIES INC          GGPO
TXBWIC20030-726930000549THE HC COMPANIES INC          GGPO
TXBWIC20030-851990001548THE HC COMPANIES INC          GGPO
TXBWIC20037-322210000189THE HC COMPANIES INC          GGPO
TXBWIC20037-689800000253THE HC COMPANIES INC          GGPO
TXBWIC20038-744800000820THE HC COMPANIES INC          GGPO
TXBWIC20030-329030001790THE HC COMPANIES, INC         GGPO
TXBWIC20037-709320000561THE HC COMPANIES, INC         GGPO
TXBWIC20030-004020000028THE PAGE SEED COMPANY         GGPO
TXBWIC20030-112470000023THE PAGE SEED COMPANY         GGPO
TXBWIC20030-373210000044THE PAGE SEED COMPANY         GGPO
TXBWIC20030-437920000023THE PAGE SEED COMPANY         GGPO
TXBWIC20030-714590000462THE PAGE SEED COMPANY         GGPO
TXBWIC20030-843690000097THE PAGE SEED COMPANY         GGPO
TXBWIC20037-322210000155THE PAGE SEED COMPANY         GGPO
TXBWIC20037-768960000013THE PAGE SEED COMPANY         GGPO
TXBWIC20037-865410000240THE PAGE SEED COMPANY         GGPO
TXBWIC20030-238830010751THE SCOTTS COMPANY-RETAIL DIV GGPO
TXBWIC20030-322240000279THE SCOTTS COMPANY-RETAIL DIV GGPO
TXBWIC20030-322470299455THE SCOTTS COMPANY-RETAIL DIV GGPO
TXBWIC20030-346130000081THE SCOTTS COMPANY-RETAIL DIV GGPO
TXBWIC20030-368650009110THE SCOTTS COMPANY-RETAIL DIV GGPO
TXBWIC20030-373210000225THE SCOTTS COMPANY-RETAIL DIV GGPO
TXBWIC20030-664980000532THE SCOTTS COMPANY-RETAIL DIV GGPO
TXBWIC20030-701830039341THE SCOTTS COMPANY-RETAIL DIV GGPO
TXBWIC20030-714590002113THE SCOTTS COMPANY-RETAIL DIV GGPO
TXBWIC20030-715490029711THE SCOTTS COMPANY-RETAIL DIV GGPO
TXBWIC20030-735130000165THE SCOTTS COMPANY-RETAIL DIV GGPO
TXBWIC20030-735610032742THE SCOTTS COMPANY-RETAIL DIV GGPO
TXBWIC20030-768070000449THE SCOTTS COMPANY-RETAIL DIV GGPO
TXBWIC20030-851990000022THE SCOTTS COMPANY-RETAIL DIV GGPO
TXBWIC20030-866210000159THE SCOTTS COMPANY-RETAIL DIV GGPO
TXBWIC20031-007350000364THE SCOTTS COMPANY-RETAIL DIV GGPO
TXBWIC20031-916620000014THE SCOTTS COMPANY-RETAIL DIV GGPO
TXBWIC20033-224710001058THE SCOTTS COMPANY-RETAIL DIV GGPO
TXBWIC20033-224730000383THE SCOTTS COMPANY-RETAIL DIV GGPO
TXBWIC20033-224740000107THE SCOTTS COMPANY-RETAIL DIV GGPO
TXBWIC20033-224780018369THE SCOTTS COMPANY-RETAIL DIV GGPO
TXBWIC20036-649800000069THE SCOTTS COMPANY-RETAIL DIV GGPO
TXBWIC20037-154900004230THE SCOTTS COMPANY-RETAIL DIV GGPO
TXBWIC20037-296400000006THE SCOTTS COMPANY-RETAIL DIV GGPO
TXBWIC20037-322210000559THE SCOTTS COMPANY-RETAIL DIV GGPO
TXBWIC20037-356100003586THE SCOTTS COMPANY-RETAIL DIV GGPO
TXBWIC20037-356130002246THE SCOTTS COMPANY-RETAIL DIV GGPO
TXBWIC20037-522890001287THE SCOTTS COMPANY-RETAIL DIV GGPO
TXBWIC20037-709320000175THE SCOTTS COMPANY-RETAIL DIV GGPO
TXBWIC20037-755780000032THE SCOTTS COMPANY-RETAIL DIV GGPO
TXBWIC20038-886030006538THE SCOTTS COMPANY-RETAIL DIV GGPO
TXBWIC20030-946540000172TOPIARY ART WORKS             GGPO
TXBWIC20030-072620000339TREE FROG ENVIRONMENTAL PROD  GGPO
TXBWIC20030-322470000845TREE FROG ENVIRONMENTAL PROD  GGPO
TXBWIC20030-373210000254TREE FROG ENVIRONMENTAL PROD  GGPO
TXBWIC20030-501970000051TREE FROG ENVIRONMENTAL PROD  GGPO
TXBWIC20030-728680000141TREE FROG ENVIRONMENTAL PROD  GGPO
TXBWIC20030-735610000172TREE FROG ENVIRONMENTAL PROD  GGPO
TXBWIC20030-843690000177TREE FROG ENVIRONMENTAL PROD  GGPO
TXBWIC20030-848650000113TREE FROG ENVIRONMENTAL PROD  GGPO
TXBWIC20030-851990000036TREE FROG ENVIRONMENTAL PROD  GGPO
TXBWIC20036-870730000169TREE FROG ENVIRONMENTAL PROD  GGPO
TXBWIC20037-154900000019TREE FROG ENVIRONMENTAL PROD  GGPO
TXBWIC20037-184770000120TREE FROG ENVIRONMENTAL PROD  GGPO
TXBWIC20037-191950000039TREE FROG ENVIRONMENTAL PROD  GGPO
TXBWIC20037-296400000299TREE FROG ENVIRONMENTAL PROD  GGPO
TXBWIC20037-311410000028TREE FROG ENVIRONMENTAL PROD  GGPO
TXBWIC20037-522890000165TREE FROG ENVIRONMENTAL PROD  GGPO
TXBWIC20037-591880000020TREE FROG ENVIRONMENTAL PROD  GGPO
TXBWIC20037-296410000403TUFF STUFF PRODUCTS, INC.     GGPO
TXBWIC20038-744800082045TUFF STUFF PRODUCTS, INC.     GGPO
TXBWIC20030-322470000134VALHOMA CORPORATION           GGPO
TXBWIC20030-333490000094VALHOMA CORPORATION           GGPO
TXBWIC20030-353070000202VALHOMA CORPORATION           GGPO
TXBWIC20030-364340000068VALHOMA CORPORATION           GGPO
TXBWIC20030-373210000673VALHOMA CORPORATION           GGPO
TXBWIC20030-415350000132VALHOMA CORPORATION           GGPO
TXBWIC20030-422060000050VALHOMA CORPORATION           GGPO
TXBWIC20030-425790000088VALHOMA CORPORATION           GGPO
TXBWIC20030-437920000049VALHOMA CORPORATION           GGPO
TXBWIC20030-501970000065VALHOMA CORPORATION           GGPO
TXBWIC20030-701830000156VALHOMA CORPORATION           GGPO
TXBWIC20030-726930000372VALHOMA CORPORATION           GGPO
TXBWIC20030-776250000037VALHOMA CORPORATION           GGPO
TXBWIC20030-886850000127VALHOMA CORPORATION           GGPO
TXBWIC20036-870730000091VALHOMA CORPORATION           GGPO
TXBWIC20037-191950000027VALHOMA CORPORATION           GGPO
TXBWIC20037-296400000055VALHOMA CORPORATION           GGPO
TXBWIC20037-296410000016VALHOMA CORPORATION           GGPO
TXBWIC20037-322210000200VALHOMA CORPORATION           GGPO
TXBWIC20037-522890000096VALHOMA CORPORATION           GGPO
TXBWIC20030-726930000501VALLEY INDUSTRIES             GGPO
TXBWIC20038-144850002045VALLEY INDUSTRIES             GGPO
TXBWIC20038-148500001121VALLEY INDUSTRIES             GGPO
TXBWIC20038-164030002184VALLEY INDUSTRIES             GGPO
TXBWIC20030-322210054239VOLUNTARY PURCHASING          GGPO
TXBWIC20037-322210742015VOLUNTARY PURCHASING          GGPO
TXBWIC20037-322240000525VOLUNTARY PURCHASING          GGPO
TXBWIC20030-415350202725WELLMARK INTERNATIONAL        GGPO
TXBWIC20030-503490001195WESTERN PULP PROD             GGPO
TXBWIC20032-005030000226WESTERN PULP PROD             GGPO
TXBWIC20037-322210000041WESTERN PULP PROD             GGPO
TXBWIC20030-992840000060WILLIAMSON GREENHOUSES        GGPO
TXBWIC20030-246540001185WOODSTREAM CORPORATION        GGPO
TXBWIC20030-363480002113WOODSTREAM CORPORATION        GGPO
TXBWIC20030-709230002788WOODSTREAM CORPORATION        GGPO
TXBWIC20030-710920000147WOODSTREAM CORPORATION        GGPO
TXBWIC20030-728680025377WOODSTREAM CORPORATION        GGPO
TXBWIC20030-776250000061WOODSTREAM CORPORATION        GGPO
TXBWIC20030-789780005544WOODSTREAM CORPORATION        GGPO
TXBWIC20037-178160000279WOODSTREAM CORPORATION        GGPO
