NJARET21020-03831-30083-70000030D0000921D0000000000BP6250    GGSL
NJARET21020-07633-31219-70000072D0001107D0000700004AP30218DW GGSL
NJARET21020-08182-30017-60000011D0016162D00006000021160B     GGSL
NJARET21020-10052-00333-10000024D0000104D000060000400333     GGSL
NJARET21020-10367-00001-80000090D0000374D00011000000001      GGSL
NJARET21020-10367-00110-70000396D0002613D00010000100110      GGSL
NJARET21020-10367-00130-50000003D0000141D00000000000130      GGSL
NJARET21020-10367-00180-00000024D0000088D00000000000180      GGSL
NJARET21020-10367-00460-30000080D0000383D000080000004608     GGSL
NJARET21020-10367-00470-20000036D0000441D00022000000470      GGSL
NJARET21020-10367-00560-00000144D0000528D000110001105608     GGSL
NJARET21020-10367-01050-50000012D0000151D00000000001050      GGSL
NJARET21020-10367-01110-60000048D0000159D00001000011110      GGSL
NJARET21020-10367-01111-30000128D0000423D00095000021111      GGSL
NJARET21020-10367-01112-00000104D0000357D00073000011112      GGSL
NJARET21020-10367-01120-50000224D0000646D00029000071120      GGSL
NJARET21020-10367-01121-20000384D0002260D00006000061121      GGSL
NJARET21020-10367-01122-90000192D0001130D00047000081122      GGSL
NJARET21020-10367-01140-30000040D0000135D00018000031140      GGSL
NJARET21020-10367-01151-90000048D0000161D00004000011151      GGSL
NJARET21020-10367-01160-10000096D0000751D00007000021160      GGSL
NJARET21020-10367-01161-80000184D0001439D00000000001161      GGSL
NJARET21020-10367-01162-50000168D0001314D00026000001162      GGSL
NJARET21020-10367-02121-10000008D0000038D0000000000ML2121    GGSL
NJARET21020-10367-02141-90000008D0000038D0000000000ML2141    GGSL
NJARET21020-10367-02162-40000056D0000382D0001200004ML2162    GGSL
NJARET21020-10367-02163-10000024D0000164D0001800002ML2163    GGSL
NJARET21020-10367-02171-60000016D0000109D0000500001ML2171    GGSL
NJARET21020-10367-02181-50000048D0000327D0001300003ML2181    GGSL
NJARET21020-10367-03020-60000016D0000095D0000100001ML3020    GGSL
NJARET21020-10367-03997-10000007D0003846D00001000013997      GGSL
NJARET21020-11192-10594-70000008D0000208D0000000000KHEATMAT  GGSL
NJARET21020-11192-60612-30000128D0001180D0000100001KGFH      GGSL
NJARET21020-11192-61100-40000012D0000056D0000000000HTESTKIT12GGSL
NJARET21020-11192-86019-80000120D0000904D0001900000KMG6      GGSL
NJARET21020-11423-00338-70000012D0000074D000180000133801     GGSL
NJARET21020-11423-00402-50000006D0000030D0000800000HG402000  GGSL
NJARET21020-11423-94127-60000024D0000084D0002800000HG64127   GGSL
NJARET21020-11423-94239-60000012D0000066D0000800000HG64138   GGSL
NJARET21020-12587-70028-00000012D0000067D003720000170028     GGSL
NJARET21020-12587-78459-40000024D0000212D000740000278459     GGSL
NJARET21020-12587-78743-40000024D0000021D001130000078743     GGSL
NJARET21020-12587-78834-90000024D0000024D001330000078834     GGSL
NJARET21020-12587-78869-10000060D0000061D000550000078869     GGSL
NJARET21020-14021-10123-30000020D0000069D00001000003020      GGSL
NJARET21020-14306-92177-80000006D0000193D0000300000US395116  GGSL
NJARET21020-14306-92461-80000010D0000188D0000200000US296116  GGSL
NJARET21020-14306-92836-40000010D0000185D0000400000US643688  GGSL
NJARET21020-14306-92840-10000006D0000221D0001400004US900688  GGSL
NJARET21020-14306-92844-90000010D0000188D0000600000US295700  GGSL
NJARET21020-14306-92845-60000010D0000188D0000600000US295702  GGSL
NJARET21020-14306-92848-70000006D0000193D0000800001US395700  GGSL
NJARET21020-14400-10813-60000060D0000256D00000000001440010813GGSL
NJARET21020-14400-30000-40000024D0000121D000000000030000     GGSL
NJARET21020-14400-66000-90000001D0000012D000000000066000ZFP  GGSL
NJARET21020-14400-73015-30000012D0000055D00000000001440073015GGSL
NJARET21020-15561-20201-50000001D0000091D0000000000PT201     GGSL
NJARET21020-15561-20679-20000003D0000015D0000000000PT679     GGSL
NJARET21020-15561-20931-10000005D0000060D0000700000PT931     GGSL
NJARET21020-15561-20932-80000003D0000044D0000000000PT932     GGSL
NJARET21020-15561-20933-50000003D0000054D0000000000PT933     GGSL
NJARET21020-15561-20934-20000003D0000067D0000000000PT934     GGSL
NJARET21020-15561-20935-90000002D0000040D0000000000PT935     GGSL
NJARET21020-15561-20941-00000005D0000050D0000000000PT941     GGSL
NJARET21020-15561-20960-10000012D0000010D0000100000PT960     GGSL
NJARET21020-15561-20965-60000024D0000029D0000100000PT965     GGSL
NJARET21020-15561-20966-30000012D0000028D0000300000PT966     GGSL
NJARET21020-15561-20968-70000012D0000027D0000300000PT968     GGSL
NJARET21020-15561-21020-10000003D0000003D0000000000PT1020    GGSL
NJARET21020-15561-21140-60000002D0000041D0000000000PT1140    GGSL
NJARET21020-15561-21726-20000001D0000168D0000100000PT1726    GGSL
NJARET21020-15561-21727-90000001D0000247D0000400000PT1727    GGSL
NJARET21020-15561-21728-60000001D0000310D0000000000PT1728    GGSL
NJARET21020-15561-21738-50000002D0000092D0000000000PT1738    GGSL
NJARET21020-16069-00002-80000048D0000309D0000000000NEOR      GGSL
NJARET21020-16069-00005-90000396D0002849D0009300008TP15C     GGSL
NJARET21020-16069-00007-30000408D0002717D0014800020BN1       GGSL
NJARET21020-16069-00008-00000552D0003676D0021500024BN2       GGSL
NJARET21020-16069-00013-40000102D0002936D0013500005BN3       GGSL
NJARET21020-16069-00014-10000126D0002719D0008000008BN4       GGSL
NJARET21020-16069-00015-80000024D0000658D0001600003BN5       GGSL
NJARET21020-16069-00019-60000168D0001933D0003400001TP30C     GGSL
NJARET21020-16069-00030-10000666D0007668D0005400002OW6       GGSL
NJARET21020-16069-00038-70000012D0000112D0000000000GF1015    GGSL
NJARET21020-16069-00047-90000048D0000345D0000900001TE12C     GGSL
NJARET21020-16069-00049-30000210D0003929D0020400012DX7       GGSL
NJARET21020-16069-00050-90000036D0001036D0003800001DX14      GGSL
NJARET21020-16069-00060-80000120D0000345D0000200001RAP15     GGSL
NJARET21020-16069-00072-10000072D0000480D0001700005TSD12     GGSL
NJARET21020-16069-00076-90000090D0000539D0002100003PN10      GGSL
NJARET21020-16069-00077-60000036D0000388D0003100002PN14      GGSL
NJARET21020-16069-00079-00000012D0000380D0002600000PN28      GGSL
NJARET21020-16069-00110-00000015D0000242D0001600001PF3       GGSL
NJARET21020-16069-00218-30000276D0001588D0006300006HST100    GGSL
NJARET21020-16069-00365-40000018D0000227D0000000000PIN9      GGSL
NJARET21020-16069-00391-30000004D0000228D0000000000E410GY    GGSL
NJARET21020-16069-00393-70000528D0001899D0007100007GS20      GGSL
NJARET21020-16069-00401-90000308D0002880D0000400004GF4050    GGSL
NJARET21020-16069-00418-70000016D0000121D0000000000AU16R     GGSL
NJARET21020-16069-00436-10000060D0000160D0000300001TWST100   GGSL
NJARET21020-16069-00446-00000016D0000163D0000000000RC168W    GGSL
NJARET21020-16069-00447-70000016D0000212D0000000000FS8       GGSL
NJARET21020-16069-00448-40000012D0000112D0000100000BR12      GGSL
NJARET21020-16069-00468-20000050D0000112D0000300001HCK50     GGSL
NJARET21020-16069-00474-30000216D0001428D0001100006GS40BW    GGSL
NJARET21020-16069-00478-10000004D0000173D0001600000SRHO4     GGSL
NJARET21020-16069-00479-80000752D0014431D0013200132E316B     GGSL
NJARET21020-16069-00480-40000036D0000181D0000400002SPT15     GGSL
NJARET21020-16069-00485-90000048D0000104D0000100001GS1024    GGSL
NJARET21020-16069-00486-60000016D0000173D0000000000GS675     GGSL
NJARET21020-16069-00494-10000028D0000262D0001600001GFST4050  GGSL
NJARET21020-16069-00498-90000120D0001295D0001800002HGP1012   GGSL
NJARET21020-16069-00499-60000012D0000216D0000400001HGP1020   GGSL
NJARET21020-16069-00504-70000090D0000178D0000000000TG130W    GGSL
NJARET21020-16069-00507-80000048D0000518D0000000000TPSM15    GGSL
NJARET21020-16069-00517-70000075D0000214D0000000000RGP10     GGSL
NJARET21020-16069-00519-10000012D0000086D0000100000SPB56     GGSL
NJARET21020-16069-00545-00000144D0000590D0000200001PD36      GGSL
NJARET21020-16069-00546-70000040D0001646D0001400000RRBG4     GGSL
NJARET21020-16069-00550-40000020D0000265D0000900001TRWTW     GGSL
NJARET21020-16069-00581-80000010D0000312D0000000000POPNET2   GGSL
NJARET21020-16069-00582-50000010D0000181D0000200001POPNET1   GGSL
NJARET21020-16069-00585-60000048D0000276D0000800002DCLLF412  GGSL
NJARET21020-16069-00597-90000006D0000129D0001200000BTK6      GGSL
NJARET21020-16069-00601-30000004D0000069D0000200000FASM4     GGSL
NJARET21020-16069-00622-80000096D0000383D0000200002CP612     GGSL
NJARET21020-16069-00626-60000020D0000129D0000100001PTG210    GGSL
NJARET21020-16069-00667-90003262D0067633D0002900016RH04US    GGSL
NJARET21020-17500-08120-00000024D0000034D002650000008120     GGSL
NJARET21020-17500-08150-70000756D0001058D002580000708150     GGSL
NJARET21020-17500-90206-20000234D0004213D000000000090206     GGSL
NJARET21020-17500-91316-70000084D0001605D000850000391316     GGSL
NJARET21020-17500-91350-10000020D0000394D000000000091350     GGSL
NJARET21020-17500-91370-90000018D0000394D000000000091370     GGSL
NJARET21020-17500-91714-10000056D0001221D000460000891714     GGSL
NJARET21020-17500-91818-60000020D0000344D000020000291818     GGSL
NJARET21020-17500-95204-30000012D0000237D000330000395204     GGSL
NJARET21020-17500-95314-90000004D0000107D000000000095314     GGSL
NJARET21020-17500-95334-70000004D0000098D000000000095334     GGSL
NJARET21020-17500-95404-70000032D0001051D000010000095404     GGSL
NJARET21020-17849-91072-80000006D0000105D0000000000CLA910    GGSL
NJARET21020-18062-00019-70000072D0000320D0000700004PT06MCCS  GGSL
NJARET21020-18222-00017-30000004D0000492D0001200000PP17      GGSL
NJARET21020-18222-00101-90000090D0000275D0013200000CS06101   GGSL
NJARET21020-18222-00103-30000042D0000128D0007700000CS06103   GGSL
NJARET21020-18222-00105-70000114D0000348D0017800001CS06105   GGSL
NJARET21020-18222-00107-10000072D0000283D0006800000CS06107   GGSL
NJARET21020-18222-00109-50000096D0000293D0013000000CS06109   GGSL
NJARET21020-18222-00110-10000132D0000400D0005700000CS06110   GGSL
NJARET21020-18222-00206-10000006D0000028D0001300000CS06206   GGSL
NJARET21020-18222-00208-50000024D0000115D0001200000CS06208   GGSL
NJARET21020-18222-00213-90000108D0000445D0001100006CS06213   GGSL
NJARET21020-18222-00226-90000004D0000011D0000500000CS04226   GGSL
NJARET21020-18222-00228-30000004D0000011D0000200000CS04228   GGSL
NJARET21020-18222-00246-70000006D0000036D0000700000CS246     GGSL
NJARET21020-18222-00501-70000756D0000998D0005300005CS12501   GGSL
NJARET21020-18222-00503-10000516D0001061D0000600000CS503     GGSL
NJARET21020-18222-00505-50000228D0000250D0018200006CS12505   GGSL
NJARET21020-18222-00507-90000588D0000806D0009400000CS12507   GGSL
NJARET21020-18222-00509-30001020D0001602D0016000002CS12509   GGSL
NJARET21020-18222-00513-00000228D0000471D0000900000CS12513   GGSL
NJARET21020-18222-00526-00000330D0001008D0010200000CS06526   GGSL
NJARET21020-18222-00527-70001032D0001292D0013500001CS12527   GGSL
NJARET21020-18222-00529-10000108D0000189D0000000000CS12529   GGSL
NJARET21020-18222-00531-40000360D0000809D0012100000CS12531   GGSL
NJARET21020-18222-00535-20000120D0000158D0007600000CS12535   GGSL
NJARET21020-18222-00543-70000276D0000378D0003700000CS12543   GGSL
NJARET21020-18222-00545-10000132D0000233D0002800002CS12545   GGSL
NJARET21020-18222-00553-60002700D0004539D0000000000CS12553   GGSL
NJARET21020-18222-00559-80000840D0001039D0006900000CS12559   GGSL
NJARET21020-18222-00561-10000108D0000143D0004800000CS12561   GGSL
NJARET21020-18222-00563-50000780D0001207D0003100004CS12563   GGSL
NJARET21020-18222-00565-90000612D0001022D0000900003CS12565   GGSL
NJARET21020-18222-00566-60000012D0000022D0000100000CS12566   GGSL
NJARET21020-18222-00569-70001320D0002179D0016100008CS12569   GGSL
NJARET21020-18222-00571-00000072D0000151D0006600000CS12571   GGSL
NJARET21020-18222-00583-30001008D0001990D0010900002CS12583   GGSL
NJARET21020-18222-00608-30000036D0000131D0007000010CS608     GGSL
NJARET21020-18222-00610-60000024D0000112D0000100000CS610     GGSL
NJARET21020-18222-00611-30000012D0000049D0000100000CS611     GGSL
NJARET21020-18222-00689-20000012D0000028D0000000000CS12689   GGSL
NJARET21020-18222-00701-10000400D0000690D0006300005CS701     GGSL
NJARET21020-18222-00707-30000152D0000447D0002400006CS707     GGSL
NJARET21020-18222-00709-70000030D0000145D0000200000CS709     GGSL
NJARET21020-18222-00727-10000018D0000122D0000800000CS727     GGSL
NJARET21020-18222-00730-10000968D0001782D0025200019CS730     GGSL
NJARET21020-18222-00749-30000066D0000368D0003500000CS749     GGSL
NJARET21020-18222-00753-00000040D0000206D0004300000CS753     GGSL
NJARET21020-18222-00770-70000012D0000100D0000000000CS770     GGSL
NJARET21020-18222-00772-10000012D0000209D0000200001CS772     GGSL
NJARET21020-18222-00950-30000504D0000496D0000000000CS950     GGSL
NJARET21020-18222-00954-10000016D0000087D0000800000CS08954   GGSL
NJARET21020-18222-50501-20000036D0000040D0010900002CS1250501XGGSL
NJARET21020-18222-50527-20000300D0000327D0001500002CS1250527XGGSL
NJARET21020-18222-50559-30000108D0000118D0013900000CS1250559XGGSL
NJARET21020-18506-00010-30000006D0000048D00002000000106      GGSL
NJARET21020-18506-00029-50000006D0000072D00007000000296      GGSL
NJARET21020-18506-00102-50000072D0000283D000640000210212     GGSL
NJARET21020-18506-00110-00000204D0001464D001200000311012     GGSL
NJARET21020-18506-00116-20000576D0004026D000320001111612     GGSL
NJARET21020-18506-00117-90000030D0000322D00045000091176      GGSL
NJARET21020-18506-00118-60000006D0000049D00004000001186      GGSL
NJARET21020-18506-00122-30000012D0000066D0001200000122       GGSL
NJARET21020-18506-00123-00000024D0000132D0001300000123       GGSL
NJARET21020-18506-00125-40000036D0000181D0002700003125       GGSL
NJARET21020-18506-00130-80000084D0000467D0002700003130       GGSL
NJARET21020-18506-02000-20000006D0000042D00004000002000      GGSL
NJARET21020-18506-02001-90000006D0000069D00031000002001      GGSL
NJARET21020-19200-00095-60000030D0000074D002560000000027     GGSL
NJARET21020-19200-00619-40000024D0000079D013820000100706     GGSL
NJARET21020-19200-00888-40000012D0000031D000000000000888     GGSL
NJARET21020-19200-05432-40000018D0000071D000840000075057     GGSL
NJARET21020-19200-78033-90000012D0000050D00156000001920078033GGSL
NJARET21020-19200-79838-90000006D0000042D001720000079838     GGSL
NJARET21020-19200-83262-50000012D0000040D00123000081920082362GGSL
NJARET21020-19200-83721-70000228D0000584D000000000083721     GGSL
NJARET21020-19200-89973-40000008D0000128D000350000089973     GGSL
NJARET21020-19200-98665-60000008D0000035D001190000198665     GGSL
NJARET21020-19263-25010-70000001D0000071D00003000002501      GGSL
NJARET21020-19263-25030-50000005D0000593D00034000052503      GGSL
NJARET21020-19263-25032-90000001D0000146D0000000000250325    GGSL
NJARET21020-19263-25035-00000032D0000916D0002200003250350    GGSL
NJARET21020-19263-25040-40000002D0000260D00010000002504      GGSL
NJARET21020-19263-25055-80000024D0001095D0000600000250550    GGSL
NJARET21020-19263-25160-90000009D0000094D00001000012516      GGSL
NJARET21020-19263-25170-80000005D0000096D00000000002517      GGSL
NJARET21020-19263-25350-40000024D0000065D00004000002535      GGSL
NJARET21020-19263-25500-30000175D0000205D00000000002550      GGSL
NJARET21020-19263-25510-20001200D0001716D00031000052551      GGSL
NJARET21020-19263-25520-10000225D0000360D00045000062552      GGSL
NJARET21020-19263-25530-00001850D0003460D00120000282553      GGSL
NJARET21020-19263-25540-90002275D0005099D00098000292554      GGSL
NJARET21020-19263-25600-00000001D0000025D00000000002560      GGSL
NJARET21020-19263-25670-30000012D0000164D00008000002567      GGSL
NJARET21020-19263-25680-20000008D0000148D00017000022568      GGSL
NJARET21020-19263-25760-10000204D0001389D00021000102576      GGSL
NJARET21020-19263-25770-00000450D0004829D00062000202577      GGSL
NJARET21020-19263-25780-90000300D0005791D00087000232578      GGSL
NJARET21020-19263-25950-60000144D0000171D00042000052595      GGSL
NJARET21020-19263-26040-30000030D0000034D00001000012604      GGSL
NJARET21020-19263-26050-20000100D0000086D00003000022605      GGSL
NJARET21020-19263-26170-70000006D0000160D00034000342617      GGSL
NJARET21020-19263-26190-50000018D0000862D00015000002619      GGSL
NJARET21020-19263-26210-00000036D0000270D00004000012621      GGSL
NJARET21020-19263-26270-40000005D0000154D00001000002627      GGSL
NJARET21020-19263-26300-80000960D0002215D00036000092630      GGSL
NJARET21020-19263-26310-70000600D0001692D00024000162631      GGSL
NJARET21020-19263-26310-70000144D0000406D00023000012633      GGSL
NJARET21020-19263-26340-40001584D0003944D00001000002634      GGSL
NJARET21020-19263-26560-60000240D0001834D00008000042656      GGSL
NJARET21020-19263-29100-10000001D0000164D00003000002910      GGSL
NJARET21020-21344-00321-20000058D0002251D0010200018WX15064   GGSL
NJARET21020-21344-00322-90000036D0001397D0012500013WX15065   GGSL
NJARET21020-21344-00338-00000007D0002009D0008600022400338    GGSL
NJARET21020-21344-00339-70000001D0000111D0000000001400339    GGSL
NJARET21020-21344-00343-40000042D0000320D0000800002400343    GGSL
NJARET21020-21344-00344-10000060D0000457D0001300001400344    GGSL
NJARET21020-21344-00345-80000042D0000320D0000800004400345    GGSL
NJARET21020-21344-00346-50000084D0000640D0000900003400346    GGSL
NJARET21020-21344-00347-20000056D0000851D0006900001400347    GGSL
NJARET21020-21344-00348-90000008D0000121D0000100001400348    GGSL
NJARET21020-21344-00349-60000032D0000484D0000300003400349    GGSL
NJARET21020-21344-00350-20000028D0000423D0001700003400350    GGSL
NJARET21020-21344-00354-00000122D0006064D0003800015HQ73481784GGSL
NJARET21020-21344-00361-80000002D0000050D0000000000HQ74912297GGSL
NJARET21020-21344-00362-50000006D0000441D0022700019HQMUSH    GGSL
NJARET21020-21344-00364-90000002D0000773D0009400016400364    GGSL
NJARET21020-21344-00384-70000016D0000822D0005300001JFG18013  GGSL
NJARET21020-21344-00385-40000012D0000260D0000300000JFG18011A GGSL
NJARET21020-21344-00386-10000018D0000616D0001300001JFG18011B GGSL
NJARET21020-21344-00387-80000030D0000968D0006800003JFG18012  GGSL
NJARET21020-21344-00388-50000060D0000321D0000300000JFG18001  GGSL
NJARET21020-21344-00389-20000030D0000344D0000100000JFG18004  GGSL
NJARET21020-21344-00390-80000024D0000502D0002700001JFG18010A GGSL
NJARET21020-21344-00391-50000020D0000721D0001500000JFG18010B GGSL
NJARET21020-21344-00392-20000036D0000224D0000100000JFG18002  GGSL
NJARET21020-21344-00394-60000012D0000231D0000400001JFG18008ASGGSL
NJARET21020-21344-00395-30000020D0000497D0000500005JFG18006  GGSL
NJARET21020-21344-00396-00000008D0000283D0000100001JFG18016  GGSL
NJARET21020-21344-00397-70000108D0004250D0007400001JFG18018  GGSL
NJARET21020-21344-00398-40000003D0000284D0000300001JFG18042  GGSL
NJARET21020-21344-00404-20000024D0001519D0004500005ZT185020  GGSL
NJARET21020-21344-00405-90000034D0002240D0006600005ZT185019  GGSL
NJARET21020-21344-00406-60000004D0000386D0001800000ZT185024  GGSL
NJARET21020-21344-00407-30000003D0000394D0013000002ZT185016  GGSL
NJARET21020-21344-00408-00000018D0001013D0001400001ZT185026  GGSL
NJARET21020-21344-00409-70000024D0000092D0000800001ZT185018  GGSL
NJARET21020-21344-00412-70000002D0000076D0000300000ZT185022  GGSL
NJARET21020-21344-00413-40000048D0000087D0010000000400413    GGSL
NJARET21020-21344-00414-10000048D0000087D0009100000400414    GGSL
NJARET21020-21344-00415-80000048D0000100D0004700001400415    GGSL
NJARET21020-21344-00416-50000036D0000056D0002200000400416    GGSL
NJARET21020-21344-00417-20000096D0000239D0008800000400417    GGSL
NJARET21020-21344-00418-90000084D0000207D0010400000400418    GGSL
NJARET21020-21344-00420-20000108D0001758D0009900000400420    GGSL
NJARET21020-21344-00421-90000012D0000039D0010200001400421    GGSL
NJARET21020-21344-00422-60000002D0000069D0000000000ZT185023  GGSL
NJARET21020-21344-00423-30000216D0028542D0048200434WX17658   GGSL
NJARET21020-21344-00718-00000018D0000351D0005600000WX17422   GGSL
NJARET21020-21344-00719-70000132D0002200D0003900004WX17413   GGSL
NJARET21020-21344-00720-30000108D0001754D0006000008WX17409   GGSL
NJARET21020-21344-00721-00000256D0004989D0014900055WX17230   GGSL
NJARET21020-21344-00722-70000448D0008732D0036100234WX17401   GGSL
NJARET21020-21344-00723-40000168D0003274D0033300129WX17402   GGSL
NJARET21020-21344-00724-10000004D0000160D0004100002WXRACK20  GGSL
NJARET21020-21344-00725-80000014D0000656D0009500001HQ748416  GGSL
NJARET21020-21344-00726-50000030D0001406D0012500002HQ74843056GGSL
NJARET21020-21344-00727-20000016D0000707D0009800025HQ74842665GGSL
NJARET21020-21344-00728-90000022D0000553D0006600004HQ74912300GGSL
NJARET21020-21344-00729-60000066D0003156D0007300009HQ7348782 GGSL
NJARET21020-21344-00730-20000014D0000246D0004000003BN19193   GGSL
NJARET21020-21344-00731-90000012D0000199D0000300001BN19190   GGSL
NJARET21020-21344-00732-60000010D0000175D0001200002BN19187   GGSL
NJARET21020-21344-00733-30000020D0000351D0003800002BN19188   GGSL
NJARET21020-21344-00734-00000008D0000260D0000000000WX17725   GGSL
NJARET21020-21344-00735-70000024D0000437D0003600003WX17577RV GGSL
NJARET21020-21344-00736-40000004D0000073D0004100002WX17578RV GGSL
NJARET21020-21344-00739-50000008D0000182D0002900001WX17816   GGSL
NJARET21020-21344-00740-10000016D0000363D0004000001WX17818   GGSL
NJARET21020-21344-00741-80000020D0000521D0004700001WX17817   GGSL
NJARET21020-21344-00744-90000032D0000793D0003300000WX17819   GGSL
NJARET21020-21344-00746-30000008D0000140D0028600002YS19L005  GGSL
NJARET21020-21344-00747-00000012D0000210D0029100002YS19L004  GGSL
NJARET21020-21344-00748-70000012D0000145D0028500002YS19S002  GGSL
NJARET21020-21344-00749-40000008D0000090D0028400002YS19S003  GGSL
NJARET21020-21344-00750-00000004D0000055D0026400004YS19S001  GGSL
NJARET21020-21344-00762-30000153D0015844D0033600062FDBH1901  GGSL
NJARET21020-21344-00762-30000008D0000960D0008800039MG18387RV GGSL
NJARET21020-21344-00765-40000004D0000420D0011700012MG18390   GGSL
NJARET21020-21344-00766-10000004D0000560D00086000044007661   GGSL
NJARET21020-21344-00774-60000018D0000585D0000500001WX17800   GGSL
NJARET21020-21344-00775-30000018D0000585D0003700024WX17802   GGSL
NJARET21020-21344-00776-00000029D0001885D0009900004FDBB1901  GGSL
NJARET21020-21344-00779-10000009D0000205D0004900002JFG19058B GGSL
NJARET21020-21344-00780-70000011D0000715D0005000012MG18396RV GGSL
NJARET21020-21344-00781-40000010D0000390D0007700007MG18397RV GGSL
NJARET21020-21344-00795-10000012D0001620D0008100021MG18389   GGSL
NJARET21020-21344-00796-80000072D0000233D0003400000SSH1822719GGSL
NJARET21020-21344-00797-50000054D0000210D0006300000SSH1813624GGSL
NJARET21020-21344-00798-20000132D0000599D0004100002SSH1813728GGSL
NJARET21020-21344-00799-90000054D0000456D0002000003HS190061C GGSL
NJARET21020-21344-00800-20000090D0000760D0001900003HS190061B GGSL
NJARET21020-21344-00801-90000096D0000810D0001500005HS190061A GGSL
NJARET21020-21344-00802-60000048D0000468D0011600003HS190058C GGSL
NJARET21020-21344-00803-30000036D0000351D0010700004HS190058B GGSL
NJARET21020-21344-00804-00000024D0000234D0013000002HS190058A GGSL
NJARET21020-21344-00805-70000090D0000877D0006200004HS190056  GGSL
NJARET21020-21344-00806-40000128D0001080D0008000002SSH18A025 GGSL
NJARET21020-21344-00807-10000108D0001511D0005900001SSH18A034 GGSL
NJARET21020-21344-00808-80000168D0000872D0007300003SSH18A024 GGSL
NJARET21020-21344-00813-20000010D0000910D00014000054008132   GGSL
NJARET21020-21344-00821-70000120D0001013D0001300002WX17932   GGSL
NJARET21020-21344-00822-40000132D0001114D0000600001WX17930   GGSL
NJARET21020-21344-00823-10000024D0000203D0000000000WX17934   GGSL
NJARET21020-21344-00824-80000024D0000203D0000000000WX17933   GGSL
NJARET21020-21344-00826-20000072D0000561D0001000002JFG18011AWGGSL
NJARET21020-21344-00827-90000012D0000093D0000900000JFG18008AWGGSL
NJARET21020-21344-00828-60000048D0000312D0001700002JFG18008ACGGSL
NJARET21020-21344-00829-30000052D0000506D0002100005ZT197030  GGSL
NJARET21020-21344-00832-30000003D0000062D0006800004JFG19007B GGSL
NJARET21020-21344-00834-70000004D0000390D0008400001ZT197023RVGGSL
NJARET21020-21344-00837-80000480D0001494D0026700019SK15020B  GGSL
NJARET21020-21344-00838-50001080D0002955D0045200047SK15008E  GGSL
NJARET21020-21344-00839-20000040D0000650D0004000001HS190062  GGSL
NJARET21020-21344-00844-60000084D0000491D0005700004HJAL19011 GGSL
NJARET21020-21344-00846-00000021D0002310D0031100024FDBH1902  GGSL
NJARET21020-21344-01170-50000145D0015055D0025300079FDBH2001  GGSL
NJARET21020-21344-01171-20000050D0002522D0006100007HQ73482202GGSL
NJARET21020-21344-01172-90000152D0007757D0004900039HQ73482993GGSL
NJARET21020-21344-01173-60000120D0006262D0004000021HQ73483050GGSL
NJARET21020-21344-01206-10000048D0000624D0001600005WX18811   GGSL
NJARET21020-21344-01207-80000048D0000624D0001500006WX18812   GGSL
NJARET21020-21344-01208-50000066D0000857D0003000010WX18813   GGSL
NJARET21020-21344-01212-20000108D0002105D0003200011WX18819   GGSL
NJARET21020-21344-01213-90000120D0002339D0002000009WX18820   GGSL
NJARET21020-21344-01214-60000138D0002690D0005200052WX18821   GGSL
NJARET21020-21344-01219-10000004D0000156D0002800006WX19199   GGSL
NJARET21020-21344-01267-20000006D0000780D0027800085FP35      GGSL
NJARET21020-21344-01273-30000104D0014796D0059100068WX17658A  GGSL
NJARET21020-21964-10100-80000018D0000493D0000400000A6F       GGSL
NJARET21020-21964-10110-70000006D0000041D0000400000A6T       GGSL
NJARET21020-21964-10121-30000012D0000355D0000600001A6RP      GGSL
NJARET21020-21964-10133-60000090D0002661D0000600001TH3RP     GGSL
NJARET21020-21964-10134-30000042D0000908D0000600001BUF16     GGSL
NJARET21020-21964-10200-50000056D0002682D0000400001B7F       GGSL
NJARET21020-21964-10211-10000012D0000110D0001100001OMT       GGSL
NJARET21020-21964-10219-70000006D0000046D0000000000CCTS      GGSL
NJARET21020-21964-10220-30000006D0000334D0000900003B72       GGSL
NJARET21020-21964-10305-70000003D0000161D0000000000BTG       GGSL
NJARET21020-21964-10315-60000014D0000451D0003800000SQG       GGSL
NJARET21020-21964-10322-40000003D0000120D0000000000CPF       GGSL
NJARET21020-21964-10350-70000040D0000981D0014800144X1        GGSL
NJARET21020-21964-10360-60000018D0000478D0001900003W1        GGSL
NJARET21020-21964-10370-50000102D0001151D0005800007OWF       GGSL
NJARET21020-21964-10380-40000001D0000034D0000200002DCF       GGSL
NJARET21020-21964-10386-60000144D0001677D0000000000CUTE      GGSL
NJARET21020-21964-10450-40000018D0000094D0000300003FF        GGSL
NJARET21020-21964-10451-10000006D0000096D0000000000RSDHC     GGSL
NJARET21020-21964-10461-00000024D0000406D0001800004LF4       GGSL
NJARET21020-21964-10466-50000012D0000203D0000400000WH3       GGSL
NJARET21020-21964-10470-20000002D0000050D0001400004H82       GGSL
NJARET21020-21964-10481-80000024D0000144D0003800004AM        GGSL
NJARET21020-21964-10482-50000006D0000036D0000200002AMO       GGSL
NJARET21020-21964-10485-60000024D0000230D0002000002RS3HC     GGSL
NJARET21020-21964-10486-30000060D0000610D0001500002RS3WC     GGSL
NJARET21020-21964-10489-40000006D0000050D0000100001BOWM      GGSL
NJARET21020-21964-10550-10000006D0000072D0000000000SILW      GGSL
NJARET21020-21964-20500-30000014D0001771D0005700000YF        GGSL
NJARET21020-21964-20510-20000012D0001006D0002500000YCPD90    GGSL
NJARET21020-21964-20520-10000040D0003224D0003100000YCPW180   GGSL
NJARET21020-21964-20530-00000004D0000336D0003000000YCPT360   GGSL
NJARET21020-21964-25241-00000024D0000709D0001800000CC12S     GGSL
NJARET21020-21964-25242-70000060D0002208D0003700002CC18S     GGSL
NJARET21020-21964-25243-40000024D0001057D0000700001CC24S     GGSL
NJARET21020-21964-25244-10000006D0000177D0001800002CC12N     GGSL
NJARET21020-21964-25245-80000072D0002360D0000500000CC18N     GGSL
NJARET21020-21964-25256-40000012D0000355D0001600000CC12FM    GGSL
NJARET21020-21964-40043-90000180D0003232D0004100004CJM8G     GGSL
NJARET21020-21964-40053-80000072D0001608D0003000005CJM15G    GGSL
NJARET21020-21964-41073-50000030D0000626D0002900003CJTHM15Y  GGSL
NJARET21020-21964-41086-50000018D0000298D0001200000CJTHM8Y   GGSL
NJARET21020-21964-50043-60000078D0000858D0000300000CJM13GP   GGSL
NJARET21020-21964-50059-70000018D0000455D0000300000CJM13FSY  GGSL
NJARET21020-21964-50100-60000054D0000316D0000300003SKYHK     GGSL
NJARET21020-21964-50227-00000006D0000031D0000000000SWH8      GGSL
NJARET21020-21964-60303-80000001D0000116D0000100000JGA       GGSL
NJARET21020-21964-60510-00000102D0002028D0000100001GP        GGSL
NJARET21020-21964-60528-50000006D0000114D0000500000RLS       GGSL
NJARET21020-21964-60543-80000006D0000408D0000000000UYS       GGSL
NJARET21020-21964-60544-50000001D0000065D0001700000UNBSX     GGSL
NJARET21020-21964-70101-70000004D0000046D0000000000SS2       GGSL
NJARET21020-21964-70202-10000096D0000658D0000000000WWM       GGSL
NJARET21020-21964-80100-70000012D0000101D0001600001BFB       GGSL
NJARET21020-21964-80120-50000024D0000096D0000000000HUM       GGSL
NJARET21020-22179-10011-40000012D0000114D0000000000LG3100    GGSL
NJARET21020-22179-10011-40000012D0000121D0000100000LG3104    GGSL
NJARET21020-22179-10034-30000006D0000231D0000000000LG5137    GGSL
NJARET21020-22179-10077-00000036D0000296D0000100000LG7150    GGSL
NJARET21020-22179-10081-70000030D0000230D0000000000LG7204    GGSL
NJARET21020-22179-10084-80000156D0001398D0002000020LG7220    GGSL
NJARET21020-22179-10106-70000018D0000449D0000300003LG5512    GGSL
NJARET21020-22179-10115-90000012D0000230D0000000000LG5599    GGSL
NJARET21020-22179-10124-10000120D0000698D0005200005LG6515    GGSL
NJARET21020-22179-10133-30000006D0000071D0000000000LG4102    GGSL
NJARET21020-22179-10157-90000054D0001179D0003400000LG6530    GGSL
NJARET21020-22179-10163-00000036D0000491D0004000040LG6150    GGSL
NJARET21020-22179-10167-80000012D0000219D0000000000LG6127    GGSL
NJARET21020-22179-10167-80000024D0000400D0000000000LG6140    GGSL
NJARET21020-22179-10185-20000438D0003870D0011300010LG6500    GGSL
NJARET21020-22179-10244-60000012D0000311D0000500000LG6135    GGSL
NJARET21020-22179-10246-00000024D0000412D0002000002LG6570    GGSL
NJARET21020-22179-10248-40000048D0000412D0002700004LG6575    GGSL
NJARET21020-22179-10269-90000012D0000069D0000000000LG8900    GGSL
NJARET21020-22179-10270-50000008D0000092D0000000000LG7115    GGSL
NJARET21020-22179-10278-10000012D0000072D0000000000LG6284    GGSL
NJARET21020-22179-10309-20000024D0000557D0000200000LG5206    GGSL
NJARET21020-22179-10326-90000006D0000179D0001600000LG5482    GGSL
NJARET21020-22179-10327-60000564D0005370D0004700047LG6148    GGSL
NJARET21020-22179-10334-40000012D0000069D0000000000LG8620    GGSL
NJARET21020-22179-10374-00000006D0000043D0000000000LG6286    GGSL
NJARET21020-22179-10390-00000012D0000128D0000600000LG6332    GGSL
NJARET21020-22179-10391-70000048D0000716D0000000000LG6336    GGSL
NJARET21020-22179-10398-60000006D0000030D0000400000LG7234    GGSL
NJARET21020-22179-10401-30000030D0000534D0000000000LG6182    GGSL
NJARET21020-22179-10406-80000004D0000261D0000000000LG6344    GGSL
NJARET21020-22179-10414-30000006D0000169D0000000000LG6189    GGSL
NJARET21020-22179-10417-40000016D0001469D0000000000LG6142    GGSL
NJARET21020-22179-10429-70000036D0000670D0000700000LG6334    GGSL
NJARET21020-22179-10434-10000096D0000897D0000600004LG6133    GGSL
NJARET21020-22179-10444-00000018D0000244D0000400002LG3374    GGSL
NJARET21020-22179-10448-80000024D0000283D0000300001LG3174    GGSL
NJARET21020-22179-10454-90000006D0000069D0000900000LG3303    GGSL
NJARET21020-22179-10458-70000012D0000119D0000200000LG3234    GGSL
NJARET21020-22179-10462-40000012D0000107D0000000000LG1142    GGSL
NJARET21020-22179-10471-60000012D0000128D0000300000LG6128    GGSL
NJARET21020-22179-10474-70000012D0000104D0000100000LG6328    GGSL
NJARET21020-22179-10480-80000012D0000091D0001200000LG5268    GGSL
NJARET21020-22179-10481-50000030D0000424D0000700000LG5592    GGSL
NJARET21020-22179-10517-10000024D0000571D0000600000LG3176    GGSL
NJARET21020-22401-00301-50000051D0000548D0000000000THD20     GGSL
NJARET21020-22401-00350-30000008D0000124D0003700000EDG20GMC  GGSL
NJARET21020-22401-00356-50000024D0000315D0000000000NDE20MC   GGSL
NJARET21020-22401-00364-00000020D0000271D0000000000EER8DB    GGSL
NJARET21020-22401-00440-10000013D0000337D0000000000PRO40PC   GGSL
NJARET21020-22401-00740-20000074D0001139D0000000000DBRC20    GGSL
NJARET21020-22401-10084-40000012D0000079D0000000000VPI10     GGSL
NJARET21020-22401-10087-50000072D0000579D0000500004EAR20TMC  GGSL
NJARET21020-22401-10088-20000050D0001143D0000000000EAR60     GGSL
NJARET21020-22401-10089-90000004D0000062D0000100000BBC20LB   GGSL
NJARET21020-22401-10092-90000012D0000143D0000000000SDE20LB   GGSL
NJARET21020-23075-02351-40000032D0000122D0000100000P35H      GGSL
NJARET21020-23075-02368-20000008D0000036D0000000000PFB7      GGSL
NJARET21020-23075-02721-50000080D0000428D0000500005P72H      GGSL
NJARET21020-23075-02990-50000090D0000489D0000300000KHB6      GGSL
NJARET21020-23075-03312-40000020D0000038D0000300001FR312B    GGSL
NJARET21020-23075-03407-70000044D0000095D0000000000FR407     GGSL
NJARET21020-23075-05110-40000096D0000260D0000200000FS110     GGSL
NJARET21020-23075-20500-20000024D0000106D0000400004G108ORG   GGSL
NJARET21020-23075-20501-90000024D0000096D0000300001G608PERLITGGSL
NJARET21020-23803-10031-50000006D0000062D000000000010031     GGSL
NJARET21020-23865-09915-60000003D0000067D000000000009915     GGSL
NJARET21020-23865-09987-30000072D0000565D00047000009987      GGSL
NJARET21020-23883-00002-80000006D0000027D0000000000G385      GGSL
NJARET21020-23883-00009-70000012D0000250D0000000000G362D     GGSL
NJARET21020-23883-01002-70000018D0000183D00000000001002      GGSL
NJARET21020-23883-01055-30000060D0000193D00001000011055      GGSL
NJARET21020-23883-08706-70000105D0000920D00017000118706A     GGSL
NJARET21020-23883-16100-20000311D0002982D003920022616100     GGSL
NJARET21020-23883-16200-90000036D0000656D000360000416200     GGSL
NJARET21020-23883-20000-80000002D0000028D000000000020000     GGSL
NJARET21020-23883-20002-20000326D0003231D002800010320002     GGSL
NJARET21020-23883-20003-90000004D0000107D000040000420003     GGSL
NJARET21020-23883-20010-70000008D0000134D000610000420010     GGSL
NJARET21020-23883-20020-60000005D0000114D000430000420020     GGSL
NJARET21020-23883-27010-00000003D0000072D000000000027010     GGSL
NJARET21020-23883-27020-90000003D0000078D000000000027020     GGSL
NJARET21020-23883-27030-80000003D0000093D000000000027030     GGSL
NJARET21020-23883-61800-10000010D0000829D000430000061800     GGSL
NJARET21020-24114-20430-70000100D0000644D0000100000204309    GGSL
NJARET21020-24114-20450-50000025D0000161D0000000000204509    GGSL
NJARET21020-24114-20480-20000125D0000805D0000600000204809    GGSL
NJARET21020-24114-22050-50000002D0000069D0000100000220500    GGSL
NJARET21020-24114-70102-80000200D0000304D0008100001701002    GGSL
NJARET21020-24114-70300-80000375D0000723D0006800004703002    GGSL
NJARET21020-24114-70609-20000100D0000439D0001500000706009    GGSL
NJARET21020-24114-70807-30000075D0000300D0001900002708073    GGSL
NJARET21020-24114-71609-10000200D0001231D0000500000716009    GGSL
NJARET21020-24114-71642-80000270D0002587D0001500001701642    GGSL
NJARET21020-24114-71664-00000025D0000295D0001500002716642    GGSL
NJARET21020-24114-71673-20000250D0001645D0004200004716073    GGSL
NJARET21020-24114-71853-80000025D0000280D0000400000718573    GGSL
NJARET21020-24114-74009-60000325D0001585D0002900006704009    GGSL
NJARET21020-24114-74509-10000075D0000483D0000400004704509    GGSL
NJARET21020-24114-74712-50000050D0000041D0000900001742012A   GGSL
NJARET21020-24114-74712-50000025D0000082D0001500002742712    GGSL
NJARET21020-24114-74718-70000050D0000048D0000500001742018A   GGSL
NJARET21020-24114-74929-70000100D0000644D0001000004704929    GGSL
NJARET21020-24114-75161-00000135D0000989D0000000001750161    GGSL
NJARET21020-24114-78345-10000025D0000135D000000000083450     GGSL
NJARET21020-24654-00806-90000006D0000057D0000000000971816    GGSL
NJARET21020-24654-05462-20000008D0000092D000020000154624     GGSL
NJARET21020-24654-05922-10000198D0002486D00010000065926      GGSL
NJARET21020-24654-05923-80000004D0000108D00001000005929      GGSL
NJARET21020-24654-05931-30000012D0000182D00003000005935      GGSL
NJARET21020-24654-05931-30000002D0000546D00000000005935DS    GGSL
NJARET21020-24654-05962-70000078D0000950D00001000015962      GGSL
NJARET21020-24654-05962-70000005D0001461D00000000005962DS    GGSL
NJARET21020-24654-05981-80000102D0001053D00016000055981      GGSL
NJARET21020-24654-09334-80000105D0003019D00106000259334      GGSL
NJARET21020-24654-30506-90000048D0000217D000340000930506     GGSL
NJARET21020-24654-51704-20000036D0000365D000050000051704     GGSL
NJARET21020-24654-51806-30000396D0002281D000540005451806     GGSL
NJARET21020-24654-51826-10000048D0000483D000240001151826     GGSL
NJARET21020-24654-55025-40000120D0000465D00004000045026      GGSL
NJARET21020-24654-55110-70000084D0000450D000110000551106     GGSL
NJARET21020-24654-55118-30000096D0000736D000000000051186     GGSL
NJARET21020-24654-55130-50000024D0000130D00001000015454      GGSL
NJARET21020-24654-55168-80000012D0000061D00000000005168      GGSL
NJARET21020-24654-55325-50000060D0000328D000070000053256     GGSL
NJARET21020-24654-55450-40000024D0000131D000040000254506     GGSL
NJARET21020-24654-55456-60000006D0000046D000000000054566     GGSL
NJARET21020-25033-01703-00000018D0000202D000150000101703     GGSL
NJARET21020-25033-01707-80000024D0000292D000150000001707     GGSL
NJARET21020-25033-01713-90000048D0000614D000160000101713     GGSL
NJARET21020-25033-01717-70000054D0000915D000120000001717     GGSL
NJARET21020-25033-01723-80000004D0000094D000100000001723     GGSL
NJARET21020-25033-02019-10000020D0001150D000120000002019     GGSL
NJARET21020-25033-02077-10000012D0000145D000060000002077     GGSL
NJARET21020-25033-02088-70000006D0000083D000060000002088     GGSL
NJARET21020-25033-02089-40000006D0000053D000060000002089     GGSL
NJARET21020-25033-02134-10000006D0000110D000000000002134     GGSL
NJARET21020-25033-02135-80000006D0000161D000020000002135     GGSL
NJARET21020-25033-02144-00000006D0000079D000020000002144     GGSL
NJARET21020-25033-02146-40000012D0000212D000010000102146     GGSL
NJARET21020-25033-02175-40000020D0000800D000080000002175     GGSL
NJARET21020-25033-02211-90000008D0000307D000040000002211     GGSL
NJARET21020-25033-02212-60000002D0000184D000080000002212     GGSL
NJARET21020-25033-02213-30000006D0000616D000000000002213     GGSL
NJARET21020-25033-02393-20000004D0000403D000010000002393     GGSL
NJARET21020-25033-02467-00000004D0000116D000070000102467     GGSL
NJARET21020-25033-02477-90000008D0000207D000260000002477     GGSL
NJARET21020-25033-02501-10000024D0000233D000210000102501     GGSL
NJARET21020-25033-02519-60000052D0001594D000110000202519     GGSL
NJARET21020-25033-02520-20000016D0000340D000110000102520     GGSL
NJARET21020-25033-02521-90000020D0000478D000090000002521     GGSL
NJARET21020-25033-02522-60000024D0001276D000620000402522     GGSL
NJARET21020-25033-02523-30000012D0000691D000510000302523     GGSL
NJARET21020-25033-02525-70000017D0001100D000350000402525     GGSL
NJARET21020-25033-02527-10000012D0000849D000530000402527     GGSL
NJARET21020-25033-02650-60000002D0000222D000180000002650     GGSL
NJARET21020-25033-02660-50000003D0000448D000680000002660     GGSL
NJARET21020-25033-02720-60000009D0000830D000470000202720     GGSL
NJARET21020-25033-02722-00000013D0001379D000260000002722     GGSL
NJARET21020-25033-02728-20000006D0000874D000190000002728     GGSL
NJARET21020-25033-02750-30000006D0001080D000120000002750     GGSL
NJARET21020-25033-02940-80000002D0000372D000070000002940     GGSL
NJARET21020-25033-03800-40000002D0000046D000010000003800     GGSL
NJARET21020-25033-03801-10000010D0000219D000210000003801     GGSL
NJARET21020-25033-03802-80000014D0000300D000180000003802     GGSL
NJARET21020-25033-03820-20000002D0000121D000000000003820     GGSL
NJARET21020-25033-03821-90000001D0000041D000000000003821     GGSL
NJARET21020-25033-04520-00000004D0000350D000120000104520     GGSL
NJARET21020-25033-05615-20000008D0001781D000010000005615     GGSL
NJARET21020-25033-12014-30000001D0000007D000000000012014     GGSL
NJARET21020-25033-12035-80000001D0000055D000040000412035     GGSL
NJARET21020-25033-12195-90000006D0000042D000340000012195     GGSL
NJARET21020-25033-12201-70000048D0000402D000020000012201     GGSL
NJARET21020-25033-12202-40000024D0000192D000260000012202     GGSL
NJARET21020-25033-12203-10000030D0000107D000180000012203     GGSL
NJARET21020-25033-12204-80000024D0000134D000280000012204     GGSL
NJARET21020-25033-12205-50000012D0000110D000020000012205     GGSL
NJARET21020-25033-12402-80000001D0000109D000000000012402     GGSL
NJARET21020-25033-12403-50000004D0000512D000020000012403     GGSL
NJARET21020-25033-12404-20000002D0000027D000010000012404     GGSL
NJARET21020-25033-12409-70000001D0000016D000040000412409     GGSL
NJARET21020-25033-12410-30000002D0000312D000030000012410     GGSL
NJARET21020-25033-12411-00000002D0000343D000000000012411     GGSL
NJARET21020-25033-12555-10000006D0000061D000000000012555     GGSL
NJARET21020-25033-12585-80000006D0000076D000010000112585     GGSL
NJARET21020-25033-12730-20000030D0000304D000000000012730     GGSL
NJARET21020-25033-12746-30000036D0000813D000020000212746     GGSL
NJARET21020-25033-12756-20000006D0000115D000000000012756     GGSL
NJARET21020-25033-12785-20000006D0000029D000000000012785     GGSL
NJARET21020-25033-12955-90000012D0000118D000030000012955     GGSL
NJARET21020-25531-01234-60000042D0001426D000300000275160     GGSL
NJARET21020-25545-21619-80000008D0000169D0021100072 21619    GGSL
NJARET21020-25626-13259-10000004D0000195D0000000000801359    GGSL
NJARET21020-25626-14083-10000001D0000000D000000000014083     GGSL
NJARET21020-25845-12383-70000006D0000048D00000000005583      GGSL
NJARET21020-25849-00078-30000150D0001597D00000000000078P     GGSL
NJARET21020-25849-00110-00000050D0000373D00000000000110P     GGSL
NJARET21020-25849-00205-30000070D0001336D00001000000205RG    GGSL
NJARET21020-25849-00262-60000100D0000536D00000000000262P     GGSL
NJARET21020-25849-00280-00000100D0000536D00000000000280P     GGSL
NJARET21020-25849-00305-00000035D0000653D00000000000305RG    GGSL
NJARET21020-25849-00305-00000008D0000149D00054000080305RGX   GGSL
NJARET21020-25849-10381-10000150D0004436D000010000110381RG   GGSL
NJARET21020-25849-10710-90001458D0013653D00012000121020010RG GGSL
NJARET21020-25849-10720-80000486D0003302D00010000101020020RG GGSL
NJARET21020-25849-11051-20000210D0001124D00002000001016051RGCGGSL
NJARET21020-25849-11110-60001680D0008762D00003000031010010RG GGSL
NJARET21020-25849-11120-50000360D0001871D00005000041010020RG GGSL
NJARET21020-25849-11151-90000070D0000454D00200000201010051RGXGGSL
NJARET21020-25849-20381-80000240D0007215D000010000020381RG   GGSL
NJARET21020-25881-09942-40000020D0000685D0001000003 09942    GGSL
NJARET21020-25881-09985-10000001D0000018D0000900000 09985    GGSL
NJARET21020-25881-10702-00000004D0000058D0001600016 107024   GGSL
NJARET21020-26175-86100-00000198D0000894D0000500005861       GGSL
NJARET21020-26432-24016-60000003D0000268D0000000000 SB4000PRCGGSL
NJARET21020-26432-24016-60000001D0000086D0000700004SB4000PRCGGGSL
NJARET21020-26432-26110-90000003D0000764D0000000000SB6500    GGSL
NJARET21020-26600-89334-70000056D0000121D003920000089334     GGSL
NJARET21020-26600-89334-70000048D0000093D000460000289334M    GGSL
NJARET21020-26978-02181-60000230D0001122D000580000702181     GGSL
NJARET21020-26978-02182-30000180D0000878D000800000702182     GGSL
NJARET21020-26978-02188-50000160D0000621D000940000502188     GGSL
NJARET21020-26978-02241-70000160D0000856D000160000502241     GGSL
NJARET21020-26978-02242-40000260D0001391D000290000902242     GGSL
NJARET21020-26978-02248-60000020D0000088D000220000002248     GGSL
NJARET21020-26978-02301-80000030D0000213D000120000002301     GGSL
NJARET21020-26978-02302-50000040D0000284D000050000002302     GGSL
NJARET21020-26978-02308-70000020D0000113D000160000002308     GGSL
NJARET21020-26978-02361-20000100D0000899D000100000002361     GGSL
NJARET21020-26978-02362-90000040D0000360D000040000002362     GGSL
NJARET21020-26978-02368-10000100D0000684D000220000402368     GGSL
NJARET21020-26978-03060-30000060D0000253D000110000303060     GGSL
NJARET21020-26978-03062-70000030D0000127D000300000303062     GGSL
NJARET21020-26978-03068-90000030D0000127D000050000303068     GGSL
NJARET21020-26978-03082-50000030D0000236D000290000203082     GGSL
NJARET21020-26978-03088-70000030D0000236D000040000203088     GGSL
NJARET21020-26978-03100-60000030D0000394D00017000030310005   GGSL
NJARET21020-26978-03102-00000010D0000131D00025000030310205   GGSL
NJARET21020-26978-03108-20000010D0000131D00005000030310805   GGSL
NJARET21020-26978-03120-40000030D0000549D00022000030312005   GGSL
NJARET21020-26978-03122-80000015D0000275D00027000030312205   GGSL
NJARET21020-26978-03128-00000010D0000183D00011000030312805   GGSL
NJARET21020-26978-05041-00000180D0000324D000010000005041     GGSL
NJARET21020-26978-05071-70000288D0000340D000200000005071     GGSL
NJARET21020-26978-08060-80000100D0000423D000040000108060     GGSL
NJARET21020-26978-08061-50000070D0000296D000090000308061     GGSL
NJARET21020-26978-08062-20000090D0000381D000130000308062     GGSL
NJARET21020-26978-08080-60000120D0000946D000040000108080     GGSL
NJARET21020-26978-08082-00000100D0000788D000050000108082     GGSL
NJARET21020-26978-08097-40000030D0000200D000040000008097     GGSL
NJARET21020-26978-08098-10000040D0000266D000080000108098     GGSL
NJARET21020-26978-08102-50000015D0000171D00003000020810205   GGSL
NJARET21020-26978-08120-90000045D0000824D00004000020812005   GGSL
NJARET21020-26978-08121-60000035D0000641D00011000000812105   GGSL
NJARET21020-26978-08122-30000025D0000458D00015000020812205   GGSL
NJARET21020-26978-08162-90000003D0000119D00006000000816203   GGSL
NJARET21020-26978-08710-20000004D0000056D000060000208710     GGSL
NJARET21020-26978-08713-30000008D0000111D000060000008713     GGSL
NJARET21020-26978-08810-90000010D0000054D000000000008810     GGSL
NJARET21020-26978-08813-00000015D0000080D000000000008813     GGSL
NJARET21020-26978-08820-80000010D0000075D000000000008820     GGSL
NJARET21020-26978-08823-90000010D0000075D000000000008823     GGSL
NJARET21020-26978-10010-80000060D0000218D000000000010010     GGSL
NJARET21020-26978-10012-20000096D0000348D000000000110012     GGSL
NJARET21020-26978-10013-90000078D0000283D000050000110013     GGSL
NJARET21020-26978-10020-70000060D0000406D000050000210020     GGSL
NJARET21020-26978-10022-10000070D0000473D000050000310022     GGSL
NJARET21020-26978-10023-80000045D0000304D000060000210023     GGSL
NJARET21020-26978-10062-70000330D0000875D000260000210062     GGSL
NJARET21020-26978-10068-90000280D0000742D000480000210068     GGSL
NJARET21020-26978-10082-50000400D0001444D000480000310082     GGSL
NJARET21020-26978-10088-70000290D0001047D000270000210088     GGSL
NJARET21020-26978-10102-00000195D0001028D000100000310102     GGSL
NJARET21020-26978-10108-20000125D0000659D000470000210108     GGSL
NJARET21020-26978-10122-80000170D0001321D000210000210122     GGSL
NJARET21020-26978-10128-00000190D0001476D000280000210128     GGSL
NJARET21020-26978-10142-60000145D0001415D000340000110142     GGSL
NJARET21020-26978-10148-50000095D0000927D000170000110148     GGSL
NJARET21020-26978-10180-80000180D0000578D000280000310180     GGSL
NJARET21020-26978-10182-20000050D0000161D000120000310182     GGSL
NJARET21020-26978-10183-90000060D0000193D000140000010183     GGSL
NJARET21020-26978-10185-30000110D0000353D000180000410185     GGSL
NJARET21020-26978-10240-90000110D0000388D000150000210240     GGSL
NJARET21020-26978-10242-30000210D0000741D000040000010242     GGSL
NJARET21020-26978-10243-00000080D0000282D000240000010243     GGSL
NJARET21020-26978-10245-40000200D0000706D000180000210245     GGSL
NJARET21020-26978-10300-00000190D0000846D000120000110300     GGSL
NJARET21020-26978-10302-40000090D0000401D000210000110302     GGSL
NJARET21020-26978-10303-10000060D0000267D000140000010303     GGSL
NJARET21020-26978-10305-50000080D0000356D000110000110305     GGSL
NJARET21020-26978-10360-40000060D0000334D000160000110360     GGSL
NJARET21020-26978-10362-80000170D0000947D000070000010362     GGSL
NJARET21020-26978-10363-50000070D0000390D000090000010363     GGSL
NJARET21020-26978-10365-90000070D0000390D000040000110365     GGSL
NJARET21020-26978-16190-10000190D0000827D000940001316190     GGSL
NJARET21020-26978-16192-50000250D0001088D000630001616192     GGSL
NJARET21020-26978-16193-20000420D0001827D000420000816193     GGSL
NJARET21020-26978-16195-60000290D0001262D000960001416195     GGSL
NJARET21020-26978-16198-70000070D0000305D000130000516198     GGSL
NJARET21020-26978-16240-30000080D0000430D000040000416240     GGSL
NJARET21020-26978-16243-40000270D0001461D000180000816243     GGSL
NJARET21020-26978-16245-80000590D0003192D000620001716245     GGSL
NJARET21020-26978-16300-40000330D0002251D000450001016300     GGSL
NJARET21020-26978-16302-80000470D0003205D000570001316302     GGSL
NJARET21020-26978-16303-50000340D0002319D000250000316303     GGSL
NJARET21020-26978-16305-90000370D0002523D000290001216305     GGSL
NJARET21020-26978-16308-00000040D0000273D000110000216308     GGSL
NJARET21020-26978-16360-80000220D0002235D000590001016360     GGSL
NJARET21020-26978-16362-20000260D0002642D000280000916362     GGSL
NJARET21020-26978-16363-90000190D0001930D000110000016363     GGSL
NJARET21020-26978-16365-30000220D0002235D000300001016365     GGSL
NJARET21020-26978-16368-40000080D0000813D000190000216368     GGSL
NJARET21020-26978-26140-30000130D0001170D000390002026140     GGSL
NJARET21020-26978-26142-70000200D0001800D000490001626142     GGSL
NJARET21020-26978-26143-40000130D0001170D000340001026143     GGSL
NJARET21020-26978-26145-80000130D0001170D000290001726145     GGSL
NJARET21020-26978-26148-90000110D0000990D000170000526148     GGSL
NJARET21020-26978-26160-10000036D0000345D000010000026160     GGSL
NJARET21020-26978-26162-50000056D0000536D000010000026162     GGSL
NJARET21020-26978-26163-20000036D0000345D000000000026163     GGSL
NJARET21020-26978-26165-60000036D0000345D000010000026165     GGSL
NJARET21020-26978-26180-90000130D0001873D000170000526180     GGSL
NJARET21020-26978-26182-30000160D0002306D000180000526182     GGSL
NJARET21020-26978-26183-00000140D0002017D000260000526183     GGSL
NJARET21020-26978-26185-40000140D0002017D000110000626185     GGSL
NJARET21020-26978-26188-50000090D0001297D000100000126188     GGSL
NJARET21020-26978-26242-40000020D0000221D000000000026242     GGSL
NJARET21020-26978-26245-50000012D0000133D000000000026245     GGSL
NJARET21020-26978-26270-70000040D0000461D000010000026270     GGSL
NJARET21020-26978-29603-00000003D0000043D000000000029603     GGSL
NJARET21020-26978-30200-70000012D0000121D000000000030200     GGSL
NJARET21020-26978-30301-10000384D0002177D000170001030301     GGSL
NJARET21020-26978-30312-70000084D0000085D000300000330312     GGSL
NJARET21020-26978-30402-50000036D0000197D000360000830402     GGSL
NJARET21020-26978-30409-40000084D0000460D000320000630409     GGSL
NJARET21020-26978-30411-70000108D0000674D000630000630411     GGSL
NJARET21020-26978-30413-10000096D0000599D000150000230413     GGSL
NJARET21020-26978-30413-10002784D0010459D00023000073041396   GGSL
NJARET21020-26978-30602-90000372D0001462D000420002130602     GGSL
NJARET21020-26978-30605-00000198D0000782D000090000930605     GGSL
NJARET21020-26978-30702-60000078D0000301D000270000930702     GGSL
NJARET21020-26978-30705-70000162D0000625D000050000330705     GGSL
NJARET21020-26978-30806-10000012D0000051D000010000130806     GGSL
NJARET21020-26978-30809-20000024D0000101D000030000330809     GGSL
NJARET21020-26978-30909-90000010D0000050D000000000030909     GGSL
NJARET21020-26978-31100-90000130D0000780D000030000131100     GGSL
NJARET21020-26978-31102-30000155D0000930D000030000031102     GGSL
NJARET21020-26978-31108-50000115D0000690D000020000031108     GGSL
NJARET21020-26978-31109-20000045D0000270D000210000431109     GGSL
NJARET21020-26978-31120-70000040D0000499D000010000031120     GGSL
NJARET21020-26978-31121-40000050D0000624D000120000131121     GGSL
NJARET21020-26978-31128-30000055D0000686D000100000331128     GGSL
NJARET21020-26978-31129-00000020D0000250D000120000031129     GGSL
NJARET21020-26978-31168-90000005D0000120D000140000431168     GGSL
NJARET21020-26978-32101-50000040D0000307D000010000132100     GGSL
NJARET21020-26978-32108-40000145D0001112D000070000432108     GGSL
NJARET21020-26978-32109-10000045D0000345D000090000032109     GGSL
NJARET21020-26978-32121-30000010D0000137D000000000032120     GGSL
NJARET21020-26978-32128-20000040D0000544D000160000032128     GGSL
NJARET21020-26978-32129-90000030D0000408D000180000032129     GGSL
NJARET21020-26978-34061-00000010D0000042D000050000134061     GGSL
NJARET21020-26978-34063-40000170D0000719D000150000434063     GGSL
NJARET21020-26978-34068-90000240D0001015D000170000334068     GGSL
NJARET21020-26978-34081-80000210D0001577D000190000434081     GGSL
NJARET21020-26978-34083-20000070D0000526D000160000434083     GGSL
NJARET21020-26978-34088-70000050D0000376D000010000134088     GGSL
NJARET21020-26978-34101-30000110D0001375D000180000334101     GGSL
NJARET21020-26978-34103-70000045D0000563D000200000134103     GGSL
NJARET21020-26978-34108-20000220D0002750D000080000334108     GGSL
NJARET21020-26978-34121-10000020D0000349D000200000134121     GGSL
NJARET21020-26978-34123-50000025D0000436D000270000134123     GGSL
NJARET21020-26978-34128-00000010D0000174D000390002134128     GGSL
NJARET21020-26978-34143-50000009D0000230D000150000234143     GGSL
NJARET21020-26978-34148-00000012D0000307D000120000034148     GGSL
NJARET21020-26978-35050-30000030D0000158D000010000135050     GGSL
NJARET21020-26978-35058-90000070D0000368D000030000235058     GGSL
NJARET21020-26978-35060-20000060D0000254D000310002235060     GGSL
NJARET21020-26978-35062-60000300D0001269D000070000335062     GGSL
NJARET21020-26978-35066-40000050D0000212D000010000135066     GGSL
NJARET21020-26978-35068-80000130D0000550D000190000635068     GGSL
NJARET21020-26978-35069-50000200D0000846D000030000035069     GGSL
NJARET21020-26978-35080-00000140D0001103D000430000435080     GGSL
NJARET21020-26978-35081-70000090D0000681D000190000435081     GGSL
NJARET21020-26978-35082-40000370D0002916D000110000235082     GGSL
NJARET21020-26978-35086-20000270D0002128D000120000235086     GGSL
NJARET21020-26978-35088-60000390D0003073D000320000535088     GGSL
NJARET21020-26978-35089-30000110D0000867D000140000135089     GGSL
NJARET21020-26978-35090-90000050D0000470D000030000035090     GGSL
NJARET21020-26978-35093-00000010D0000094D000040000035093     GGSL
NJARET21020-26978-35098-50000015D0000141D000030000035098     GGSL
NJARET21020-26978-35100-50000075D0001144D000130000335100     GGSL
NJARET21020-26978-35101-20000065D0000915D000350001435101     GGSL
NJARET21020-26978-35106-70000145D0002211D000140000235106     GGSL
NJARET21020-26978-35108-10000235D0003584D000410000835108     GGSL
NJARET21020-26978-35109-80000045D0000686D000350000235109     GGSL
NJARET21020-26978-35120-30000055D0001194D000180000535120     GGSL
NJARET21020-26978-35121-00000005D0000109D000020000135121     GGSL
NJARET21020-26978-35126-50000020D0000434D000170000235126     GGSL
NJARET21020-26978-35128-90000035D0000760D000210000635128     GGSL
NJARET21020-26978-35129-60000035D0000760D000270000335129     GGSL
NJARET21020-26978-35132-60000020D0000339D000080000035132     GGSL
NJARET21020-26978-35138-80000010D0000164D000110000135138     GGSL
NJARET21020-26978-35139-50000005D0000082D000090000035139     GGSL
NJARET21020-26978-35148-70000015D0000472D000240000535148     GGSL
NJARET21020-26978-35149-40000010D0000314D000210000235149     GGSL
NJARET21020-26978-35168-50000015D0000622D000120000535168     GGSL
NJARET21020-26978-35188-30000004D0000294D000050000335188     GGSL
NJARET21020-26978-35189-00000004D0000325D000230000035189     GGSL
NJARET21020-26978-35190-60000004D0000136D000000000035190     GGSL
NJARET21020-26978-35192-00000018D0000613D000070000035192     GGSL
NJARET21020-26978-35197-50000004D0000121D000000000035197     GGSL
NJARET21020-26978-35198-20000012D0000408D000470000535198     GGSL
NJARET21020-26978-35199-90000006D0000204D000140000035199     GGSL
NJARET21020-26978-35208-80000002D0000060D000010000035208     GGSL
NJARET21020-26978-35270-50000002D0000162D000000000035270     GGSL
NJARET21020-26978-35272-90000022D0001783D000050000035272     GGSL
NJARET21020-26978-35278-10000010D0000810D000230000435278     GGSL
NJARET21020-26978-35279-80000004D0000324D000240000035279     GGSL
NJARET21020-26978-35358-00000005D0000844D00013000033535801   GGSL
NJARET21020-26978-36100-40000070D0000790D000080000336100     GGSL
NJARET21020-26978-36108-00000010D0000113D000110000436108     GGSL
NJARET21020-26978-36128-80000010D0000157D000110000336128     GGSL
NJARET21020-26978-36140-00000025D0000335D000130000236140     GGSL
NJARET21020-26978-36148-60000035D0000469D000210001136148     GGSL
NJARET21020-26978-36220-90000010D0000235D000040000036220     GGSL
NJARET21020-26978-36228-50000080D0001878D000220000736228     GGSL
NJARET21020-26978-36298-80000005D0000164D000160000036298     GGSL
NJARET21020-26978-38146-00000024D0000126D000110000138146     GGSL
NJARET21020-26978-38148-40000228D0001202D000010000138148     GGSL
NJARET21020-26978-38192-70000012D0000144D000030000138192     GGSL
NJARET21020-26978-38196-50000012D0000144D000070000138196     GGSL
NJARET21020-26978-38198-90000006D0000072D000080000838198     GGSL
NJARET21020-26978-39122-30000204D0000808D000210000739122     GGSL
NJARET21020-26978-39126-10000204D0000808D000100000339126     GGSL
NJARET21020-26978-39128-50000240D0000950D000320000739128     GGSL
NJARET21020-26978-39182-70000060D0000612D000020000239182     GGSL
NJARET21020-26978-39186-50000018D0000184D000000000039186     GGSL
NJARET21020-26978-39188-90000036D0000367D000030000339188     GGSL
NJARET21020-26978-48098-30000060D0000267D000070000348098     GGSL
NJARET21020-26978-48128-00000012D0000074D000070000248128     GGSL
NJARET21020-26978-48158-00000048D0000394D000080000148158     GGSL
NJARET21020-26978-63060-50000010D0000039D000090000063060     GGSL
NJARET21020-26978-63065-00000010D0000039D000060000063065     GGSL
NJARET21020-26978-63066-70000020D0000078D000100000063066     GGSL
NJARET21020-26978-63069-80000030D0000117D000070000063069     GGSL
NJARET21020-26978-63070-40000010D0000063D000200000063070     GGSL
NJARET21020-26978-63075-90000010D0000063D000070000063075     GGSL
NJARET21020-26978-63076-60000010D0000063D000130000063076     GGSL
NJARET21020-26978-63079-70000020D0000126D000100000063079     GGSL
NJARET21020-26978-63090-20000045D0000599D000030000063090     GGSL
NJARET21020-26978-63095-70000005D0000067D000060000063095     GGSL
NJARET21020-26978-63099-50000005D0000067D000060000063099     GGSL
NJARET21020-26978-80100-50000012D0000531D000050000080100     GGSL
NJARET21020-26978-80101-20000016D0000588D000170000280101     GGSL
NJARET21020-26978-80105-00000016D0000588D000210000180105     GGSL
NJARET21020-26978-80107-40000396D0011573D00037000048010712   GGSL
NJARET21020-26978-80153-10000004D0000152D000010000180153     GGSL
NJARET21020-26978-80155-50000008D0000303D000360000280155     GGSL
NJARET21020-26978-80155-50000004D0000157D00000000008015504   GGSL
NJARET21020-26978-80156-20000012D0000455D000020000280156     GGSL
NJARET21020-26978-80651-20000006D0000108D000010000080651     GGSL
NJARET21020-26978-80655-00000006D0000108D000000000080655     GGSL
NJARET21020-26978-81011-30000012D0000307D000320000181011     GGSL
NJARET21020-26978-81015-10000008D0000204D000360000181015     GGSL
NJARET21020-26978-81100-40000012D0000092D000130000381100     GGSL
NJARET21020-26978-81101-10000180D0001615D000080000481101     GGSL
NJARET21020-26978-81121-90000036D0000132D000230000081121     GGSL
NJARET21020-26978-81125-70000012D0000038D000000000081125     GGSL
NJARET21020-26978-81201-80000023D0001032D000060000281201     GGSL
NJARET21020-27652-80203-50000025D0001189D0000000000LG400151  GGSL
NJARET21020-27652-80204-20000007D0000381D0000900000LG400161  GGSL
NJARET21020-27652-80205-90000010D0000692D0000400000LG400171  GGSL
NJARET21020-27652-80205-90000005D0000343D0000000000LG400171GDGGSL
NJARET21020-27856-10001-20004632D0013781D0039600095P10232    GGSL
NJARET21020-27856-10001-20000036D0000107D0003500035P10232M   GGSL
NJARET21020-27856-10002-90004254D0022376D0174000175P10264    GGSL
NJARET21020-27856-10002-90000078D0000410D0003800038P10264M   GGSL
NJARET21020-27856-10008-10001052D0014307D0065800024P101      GGSL
NJARET21020-27856-10008-10000052D0000707D0003300012P101M     GGSL
NJARET21020-27856-10009-80001077D0009855D0049200081P128      GGSL
NJARET21020-27997-00229-90000006D0000152D0001500001TE        GGSL
NJARET21020-27997-01017-10000003D0000480D0000100000 M6T22    GGSL
NJARET21020-27997-20063-30000012D0000120D0000100001KSM       GGSL
NJARET21020-27997-20064-00000006D0000059D0000000000KGRM      GGSL
NJARET21020-27997-21273-50000012D0000115D0000000000KLRO      GGSL
NJARET21020-28009-15540-80000120D0000338D0000000000T5540     GGSL
NJARET21020-29973-12316-50000560D0003287D000130000514116021P GGSL
NJARET21020-29973-12333-20000720D0002534D001240008314110028P GGSL
NJARET21020-29973-12341-70000556D0002763D0024700054141100216UGGSL
NJARET21020-29973-12349-30000200D0000880D000040000414901028P GGSL
NJARET21020-29973-12456-80000264D0001162D000780000914902028P GGSL
NJARET21020-30541-00049-80000012D0000069D0001200000JCDRD3    GGSL
NJARET21020-30541-00069-60000012D0000069D0000300000JCD05CMP  GGSL
NJARET21020-30541-00102-00000012D0000065D0000000000JCD02ER   GGSL
NJARET21020-30541-00401-40000001D0000224D0000000000JCD40BKSM GGSL
NJARET21020-30541-01008-40000024D0000060D0000000000JCD024SMD GGSL
NJARET21020-30541-01010-70000012D0000023D0000200002JCD012SMP GGSL
NJARET21020-30541-01020-60000336D0000763D0007000005JCD024SM  GGSL
NJARET21020-30541-01020-60000180D0000323D0000500003JCD060SM  GGSL
NJARET21020-30541-01030-50000096D0000805D0006600004JCD100SMJ GGSL
NJARET21020-30541-01034-30000030D0000629D0004100002JCD030SM  GGSL
NJARET21020-30541-01039-80000240D0001250D0002900005JCD05SM   GGSL
NJARET21020-30541-07006-40000004D0001489D0001600002JCDRACKA  GGSL
NJARET21020-30541-08878-60000024D0000072D0001000000SMMS      GGSL
NJARET21020-30541-08879-30000144D0000447D0001100003SMVS      GGSL
NJARET21020-30541-09981-20000050D0000097D0001600000JCDTPG    GGSL
NJARET21020-30541-09983-60000050D0000099D0000200000JCDTPP    GGSL
NJARET21020-30541-46688-10000012D0000025D0000000000SMP       GGSL
NJARET21020-30541-46699-70000012D0000030D0000100000SMPP      GGSL
NJARET21020-30541-70065-80000018D0000119D0000000000JCD05OB   GGSL
NJARET21020-30541-77703-10000024D0000067D0000100001SMN3      GGSL
NJARET21020-30541-77710-90000024D0000194D0000000000SMN10     GGSL
NJARET21020-31009-40456-80000004D0000024D000000000027010409  GGSL
NJARET21020-31009-43607-10000014D0000234D0000100001952153209 GGSL
NJARET21020-31009-66921-90000004D0000016D00000000002576      GGSL
NJARET21020-31340-10005-10000096D0001771D0001900004B550120   GGSL
NJARET21020-31340-10006-80000312D0003491D0009300009B550125   GGSL
NJARET21020-31340-10007-50000012D0000390D0001800001B550130   GGSL
NJARET21020-31340-10017-40000128D0002346D0002600003B550190   GGSL
NJARET21020-31365-10600-70000072D0001421D0011000004 42808    GGSL
NJARET21020-31365-12205-20000004D0000096D0000500000 49454    GGSL
NJARET21020-31417-00049-90000220D0001376D000030000180110021  GGSL
NJARET21020-31417-00049-90000027D0000169D000830000080110021X GGSL
NJARET21020-31417-00055-00000132D0003325D000070000580601131  GGSL
NJARET21020-31417-00056-70000010D0000225D001030001580611131X GGSL
NJARET21020-31417-00107-60000120D0000653D000230000080202005  GGSL
NJARET21020-31417-00208-00000072D0000403D000000000070552001  GGSL
NJARET21020-31417-00300-10000072D0000562D000010000060606061  GGSL
NJARET21020-31724-01002-00000006D0000084D0000100000HM100     GGSL
NJARET21020-31724-20305-70000010D0000184D0000000000203050    GGSL
NJARET21020-31724-57575-80000005D0000157D0000000000988VR50   GGSL
NJARET21020-31724-57576-50000012D0000533D0000000000988VR75   GGSL
NJARET21020-31724-81001-90000024D0001498D00008000018100100   GGSL
NJARET21020-31724-84000-90000009D0000199D00040000228400100   GGSL
NJARET21020-31724-84005-40000120D0001418D0000100001840050    GGSL
NJARET21020-31724-84007-80000021D0000376D0000100001840075    GGSL
NJARET21020-31724-85090-90000024D0000830D00019000078509100   GGSL
NJARET21020-31724-85095-40000135D0002361D0005600011850950    GGSL
NJARET21020-31724-85097-80000012D0000311D0001800010850975    GGSL
NJARET21020-31724-85350-40000009D0000262D00007000018535100   GGSL
NJARET21020-31724-85355-90000015D0000233D0001600004853550    GGSL
NJARET21020-31724-85357-30000018D0000378D0000200002853575    GGSL
NJARET21020-31724-86177-60000018D0000625D0000000000861775    GGSL
NJARET21020-31724-86427-20000003D0000110D0000100001864275    GGSL
NJARET21020-31724-86955-00000010D0000388D0000000000869550    GGSL
NJARET21020-31724-88447-80000003D0000113D0000000000884475    GGSL
NJARET21020-31724-88451-50000006D0000307D00009000088845100   GGSL
NJARET21020-31724-88455-30000010D0000291D0001800000884550    GGSL
NJARET21020-31724-88805-60000015D0000354D0002200003888VR50   GGSL
NJARET21020-31724-98800-80000027D0001538D0000000000988VR100  GGSL
NJARET21020-32247-00900-30000060D0000214D00110000121009001   GGSL
NJARET21020-32247-00910-20000102D0000364D00126000061009101   GGSL
NJARET21020-32247-00950-80000072D0000257D00151000031009501   GGSL
NJARET21020-32247-02515-70000034D0001462D00510000212515      GGSL
NJARET21020-32247-05514-70000360D0001854D000600000670551430  GGSL
NJARET21020-32247-05514-70000036D0000185D001440004170551430X GGSL
NJARET21020-32247-10500-20000084D0000798D0005400005110500    GGSL
NJARET21020-32247-14900-60000056D0000453D001050000214900     GGSL
NJARET21020-32247-14901-30000032D0000501D001170000414901     GGSL
NJARET21020-32247-14902-00000028D0000409D001060000414902     GGSL
NJARET21020-32247-14905-10000120D0000941D001910001614905     GGSL
NJARET21020-32247-17183-00000132D0001322D002450001817183     GGSL
NJARET21020-32247-17185-40000060D0001383D001370000717185     GGSL
NJARET21020-32247-17187-80000005D0000277D001620000617187     GGSL
NJARET21020-32247-17290-50000048D0000535D000770000217290     GGSL
NJARET21020-32247-17293-60000036D0000386D000510000217293     GGSL
NJARET21020-32247-17295-00000024D0000575D000430000017295     GGSL
NJARET21020-32247-17323-00000018D0000180D000520000217323     GGSL
NJARET21020-32247-17325-40000020D0000422D000440000117325     GGSL
NJARET21020-32247-17327-80000001D0000044D000290000017327     GGSL
NJARET21020-32247-17508-10000138D0001838D002030006817508     GGSL
NJARET21020-32247-17511-10000126D0001507D000200000417511     GGSL
NJARET21020-32247-17530-20000054D0000547D000240000317530     GGSL
NJARET21020-32247-17540-10000028D0000763D002440000517540     GGSL
NJARET21020-32247-18213-30000048D0000889D000400001118213     GGSL
NJARET21020-32247-18221-80000032D0000821D001060000018221     GGSL
NJARET21020-32247-18222-50000040D0000638D000420000718222     GGSL
NJARET21020-32247-18225-60000144D0001568D001760001518225     GGSL
NJARET21020-32247-18251-50000008D0000265D000480000018251     GGSL
NJARET21020-32247-18260-70000012D0000145D000570000018260     GGSL
NJARET21020-32247-18266-90000018D0000248D000800000118266     GGSL
NJARET21020-32247-18269-00000004D0000129D000480000018269     GGSL
NJARET21020-32247-18272-00000006D0000036D000590000018272     GGSL
NJARET21020-32247-18277-50000004D0000112D000130000018277     GGSL
NJARET21020-32247-18296-60000012D0000163D000100000018296     GGSL
NJARET21020-32247-18320-80000096D0000714D000300000218320     GGSL
NJARET21020-32247-18334-50000010D0001080D001460001018334     GGSL
NJARET21020-32247-18345-10000036D0000521D000510000018345     GGSL
NJARET21020-32247-18346-80000024D0000517D000430000018346     GGSL
NJARET21020-32247-18348-20000036D0000555D000590000118348     GGSL
NJARET21020-32247-18354-30000006D0000088D000570000018354     GGSL
NJARET21020-32247-20785-00000234D0000936D001570002172078430  GGSL
NJARET21020-32247-21605-00000017D0000358D005400002021605     GGSL
NJARET21020-32247-21701-90000108D0001005D001170000121701     GGSL
NJARET21020-32247-21814-60000002D0000074D001490001021814     GGSL
NJARET21020-32247-22305-80000024D0000448D002430002422305     GGSL
NJARET21020-32247-22315-70000039D0001804D000900001222315     GGSL
NJARET21020-32247-23001-80000014D0000449D000260000023001     GGSL
NJARET21020-32247-23200-50000012D0000447D000610000023200     GGSL
NJARET21020-32247-23201-20000060D0003272D000470003923201     GGSL
NJARET21020-32247-23616-40000079D0001925D012060002123616     GGSL
NJARET21020-32247-23622-50000028D0000486D011420001123622     GGSL
NJARET21020-32247-25006-10000047D0001232D003530000525006A    GGSL
NJARET21020-32247-25009-20000050D0003444D001100001425009     GGSL
NJARET21020-32247-26003-90000010D0000277D001940000026003D    GGSL
NJARET21020-32247-26784-70000078D0000312D001200000772678430  GGSL
NJARET21020-32247-27764-80000200D0000897D000450001072776430  GGSL
NJARET21020-32247-30073-50000052D0000719D000030000330073     GGSL
NJARET21020-32247-30156-50000224D0003908D000680001530156     GGSL
NJARET21020-32247-31115-80000040D0003104D002390000331115     GGSL
NJARET21020-32247-32367-30000041D0001285D004750000732367F    GGSL
NJARET21020-32247-33002-20000024D0000371D00003000003300210   GGSL
NJARET21020-32247-33040-40000046D0000804D009680001833040     GGSL
NJARET21020-32247-33050-30000035D0001516D006600002133050     GGSL
NJARET21020-32247-33160-90000051D0003730D006950002933160     GGSL
NJARET21020-32247-34161-50000039D0002361D006360002634161     GGSL
NJARET21020-32247-36905-30000105D0004025D006970004036905     GGSL
NJARET21020-32247-37594-80000150D0001251D000030000073759430  GGSL
NJARET21020-32247-37610-50000040D0000511D000780000037610C    GGSL
NJARET21020-32247-38505-30000002D0000035D002460000238505     GGSL
NJARET21020-32247-39181-80000077D0002241D010860002239181     GGSL
NJARET21020-32247-39605-90000009D0000170D007290001339605     GGSL
NJARET21020-32247-42784-50000204D0000816D000820000574278430  GGSL
NJARET21020-32247-43850-60000016D0000478D00024000004385010   GGSL
NJARET21020-32247-43851-30000006D0000126D00122000004385106   GGSL
NJARET21020-32247-43860-50000008D0000196D00029000004386004   GGSL
NJARET21020-32247-47783-30000072D0000288D001090001074778300  GGSL
NJARET21020-32247-49019-10000352D0004224D002040001049019     GGSL
NJARET21020-32247-49023-80000018D0000183D000170000149023     GGSL
NJARET21020-32247-49024-50000067D0000995D001880000349024     GGSL
NJARET21020-32247-49785-50000336D0001381D000530000274978500  GGSL
NJARET21020-32247-49801-20000049D0000731D001050000049801C    GGSL
NJARET21020-32247-50087-60000012D0000261D00032000015008710   GGSL
NJARET21020-32247-50088-30000024D0000521D00023000045008810   GGSL
NJARET21020-32247-50524-60000117D0000992D000250000675052430  GGSL
NJARET21020-32247-50524-60000050D0000424D000920005475052430X GGSL
NJARET21020-32247-51063-90000006D0000084D000110000051063     GGSL
NJARET21020-32247-51070-70000012D0000126D000130000051070     GGSL
NJARET21020-32247-51080-60000006D0000038D000070000051080     GGSL
NJARET21020-32247-51105-60000032D0000443D005270000551105     GGSL
NJARET21020-32247-51115-50000002D0000078D003240001351115     GGSL
NJARET21020-32247-52784-20000108D0000432D000510000185278430  GGSL
NJARET21020-32247-53105-40000023D0000261D004280002553105     GGSL
NJARET21020-32247-53115-30000006D0000165D002460001053115     GGSL
NJARET21020-32247-54105-30000024D0000152D00017000015410510   GGSL
NJARET21020-32247-54204-30000018D0000209D00013000025420406   GGSL
NJARET21020-32247-55513-50000585D0005877D001100000775551300  GGSL
NJARET21020-32247-55513-50000175D0001759D001400000075551300X GGSL
NJARET21020-32247-55523-40000072D0001133D000620000175552300  GGSL
NJARET21020-32247-55523-40000040D0000630D000160000075552300X GGSL
NJARET21020-32247-55783-20000282D0001449D000370002775578300  GGSL
NJARET21020-32247-55863-10000021D0000176D000440002075586300X GGSL
NJARET21020-32247-56063-40000112D0000531D000620002645606300  GGSL
NJARET21020-32247-56211-90000018D0000274D00068000005621106   GGSL
NJARET21020-32247-56513-40001820D0015540D000820001675651300  GGSL
NJARET21020-32247-56513-40000122D0001098D002760010875651300X GGSL
NJARET21020-32247-56523-30000864D0012112D000850001375652300  GGSL
NJARET21020-32247-56783-10000732D0003449D009550004275678300  GGSL
NJARET21020-32247-56783-10001320D0006255D000360002075678309  GGSL
NJARET21020-32247-56863-00000364D0002282D000210000575686300  GGSL
NJARET21020-32247-71060-20000090D0001191D000780000671060     GGSL
NJARET21020-32247-71131-90000016D0000314D000320000171131     GGSL
NJARET21020-32247-74150-70001596D0008807D0034300057274150    GGSL
NJARET21020-32247-74250-40001140D0009610D0027400038274250    GGSL
NJARET21020-32247-74850-60000356D0006800D0030200032274850    GGSL
NJARET21020-32247-75902-10000007D0000553D000210000075902     GGSL
NJARET21020-32247-76121-50000096D0003249D000380003876121     GGSL
NJARET21020-32247-76232-80000093D0005841D000250000476232     GGSL
NJARET21020-32247-76565-70000006D0000353D000240000076565     GGSL
NJARET21020-32247-77160-30001572D0007880D0043400061277160    GGSL
NJARET21020-32247-77260-00001008D0008874D0035000028277260    GGSL
NJARET21020-32247-77860-20000438D0006512D0018200007277860    GGSL
NJARET21020-32247-77960-90000196D0004143D0034700026277960    GGSL
NJARET21020-32247-90550-30000006D0000706D0003300003 671025   GGSL
NJARET21020-32247-95517-10000060D0000306D000320000579551750  GGSL
NJARET21020-32247-99605-10000112D0002387D006970003899605     GGSL
NJARET21020-32247-99610-50000010D0000460D001140000399610     GGSL
NJARET21020-32903-00169-30001224D0001481D0011400035SLI06000E3GGSL
NJARET21020-32903-00171-60000432D0000523D0003500014SLI06000A3GGSL
NJARET21020-32903-00191-40000072D0000318D0000100000GAB12000E2GGSL
NJARET21020-32903-00192-10000528D0000639D0004300008SLI06000B9GGSL
NJARET21020-32903-00193-80000012D0000197D0000300002TEA17000G2GGSL
NJARET21020-32903-00203-40000010D0000757D0000100000TEA30000G2GGSL
NJARET21020-32903-00214-00000336D0000407D0002100010SLI06000E2GGSL
NJARET21020-32903-00222-50000528D0000818D0005600009SLI08000B9GGSL
NJARET21020-32903-00224-90000030D0000207D0002000005VNP18000E2GGSL
NJARET21020-32903-00236-20000018D0000083D0002100001SVN24000E2GGSL
NJARET21020-32903-00240-90000288D0000446D0005900013SLI08000E2GGSL
NJARET21020-32903-00243-00000018D0000099D0000800001SVN30000E2GGSL
NJARET21020-32903-00246-10000384D0000595D0004700015SLI08000A3GGSL
NJARET21020-32903-00257-70000003D0000115D0001100002RZGH210G2 GGSL
NJARET21020-32903-00258-40000096D0000169D0000600001LIA06000E2GGSL
NJARET21020-32903-00264-50000096D0000255D0000400000LIA08000E2GGSL
NJARET21020-32903-00281-20000060D0000245D0000600002LIA10000E2GGSL
NJARET21020-32903-00283-60000024D0000147D0000200000GAB14000E2GGSL
NJARET21020-32903-00284-30000012D0000348D0000100001TEA20000G2GGSL
NJARET21020-32903-00287-40000042D0000328D0003100007VNP24000E2GGSL
NJARET21020-32903-00290-40000030D0000304D0002700005VNP30000E2GGSL
NJARET21020-32903-00293-50000192D0000417D0014800007SLI10000E2GGSL
NJARET21020-32903-00309-30000300D0000651D0003700021SLI10000E3GGSL
NJARET21020-32903-00313-00000012D0000114D0000700000GAB18000E2GGSL
NJARET21020-32903-00326-00000036D0000235D0000000000LIA12000E2GGSL
NJARET21020-32903-00332-10000228D0000495D0001500011SLI10000B9GGSL
NJARET21020-32903-00338-30000192D0000417D0007500016SLI10000A3GGSL
NJARET21020-32903-00341-30000084D0000698D0001200008SLI24000E3GGSL
NJARET21020-32903-00359-80001440D0002232D0010100034SLI08000E3GGSL
NJARET21020-32903-04255-90000060D0000496D0000200002LIA14000E2GGSL
NJARET21020-32903-04257-30000132D0000484D0000400003SLI12000E2GGSL
NJARET21020-32903-04265-80000012D0000179D0000200000GAB22000E2GGSL
NJARET21020-32903-07519-90000072D0000922D0002500005LIA16000E2GGSL
NJARET21020-32903-07530-40000012D0000047D0000200000SLI14000E2GGSL
NJARET21020-32903-07558-80000240D0000859D0000300003RZWC1Q0B9 GGSL
NJARET21020-32903-07563-20000060D0000262D0000300002SLI17000E2GGSL
NJARET21020-32903-07577-90000006D0000137D0001000001LIA24000E2GGSL
NJARET21020-32903-12006-60000504D0000887D0001500015LIA06000E3GGSL
NJARET21020-32903-12008-00001032D0002745D0004800031LIA08000E3GGSL
NJARET21020-32903-12010-30000192D0000783D0001600009LIA10000E3GGSL
NJARET21020-32903-12012-70000252D0001648D0005600033LIA12000E3GGSL
NJARET21020-32903-12014-10000156D0001289D0003500035LIA14000E3GGSL
NJARET21020-32903-12017-20000156D0001998D0000500003LIA16000E3GGSL
NJARET21020-32903-12020-20000060D0001030D0000000000LIA20000E3GGSL
NJARET21020-32903-12024-00000060D0001375D0003800018LIA24000E3GGSL
NJARET21020-32903-12312-80000192D0001014D0001200009CNA12000E3GGSL
NJARET21020-32903-12318-00000012D0000050D0000800003SVN18000E3GGSL
NJARET21020-32903-12324-10000006D0000028D0000900000SVN24000E3GGSL
NJARET21020-32903-12330-20000030D0000166D0001200002SVN30000E3GGSL
NJARET21020-32903-12712-60000216D0000955D0000900009GAB12000E3GGSL
NJARET21020-32903-12714-00000108D0000663D0003600014GAB14000E3GGSL
NJARET21020-32903-12718-80000078D0000724D0001800001GAB18000E3GGSL
NJARET21020-32903-12722-50000024D0000358D0001300001GAB22000E3GGSL
NJARET21020-32903-12818-50000102D0000703D0006600015VNP18000E3GGSL
NJARET21020-32903-12824-60000096D0000750D0009900021VNP24000E3GGSL
NJARET21020-32903-12830-70000102D0001034D0006700014VNP30000E3GGSL
NJARET21020-32903-22484-90000005D0000073D0000100000ROP28000E2GGSL
NJARET21020-32903-23732-00000012D0000078D0001000000SLI20000E2GGSL
NJARET21020-32903-30392-60000216D0000475D0001000005CNA08000E3GGSL
NJARET21020-32903-31000-90000008D0000232D0000100000TEA20000E3GGSL
NJARET21020-32903-35079-10000006D0000320D0000000000TES20000G2GGSL
NJARET21020-32903-35947-30000048D0000161D0000700007CNA10000E3GGSL
NJARET21020-32903-40400-50000324D0001322D0003300016LIA10000A3GGSL
NJARET21020-32903-40493-70000192D0000511D0001400008LIA08000B9GGSL
NJARET21020-32903-40770-90000042D0000289D0004500007VNP18000A3GGSL
NJARET21020-32903-41472-10000018D0000099D0001600005SVN30000A3GGSL
NJARET21020-32903-41640-40000432D0001149D0003200015LIA08000A3GGSL
NJARET21020-32903-41717-30000084D0000694D0001300010LIA14000B9GGSL
NJARET21020-32903-41728-90000108D0000706D0002000008LIA12000B9GGSL
NJARET21020-32903-41842-20000024D0000243D0004900008VNP30000A3GGSL
NJARET21020-32903-42050-00000024D0000550D0000400002LIA24000A3GGSL
NJARET21020-32903-42240-50000384D0000676D0001100009LIA06000B9GGSL
NJARET21020-32903-42728-80000006D0000028D0001200005SVN24000A3GGSL
NJARET21020-32903-43116-20000024D0000099D0003100004SVN18000A3GGSL
NJARET21020-32903-45170-20000084D0000694D0000400000LIA14000A3GGSL
NJARET21020-32903-45342-30000042D0000328D0004500011VNP24000A3GGSL
NJARET21020-32903-46337-80000144D0001845D0001300006LIA16000B9GGSL
NJARET21020-32903-46966-00000012D0000206D0000200002LIA20000A3GGSL
NJARET21020-32903-47208-00000300D0001962D0004300016LIA12000A3GGSL
NJARET21020-32903-48101-30000504D0000887D0001200007LIA06000A3GGSL
NJARET21020-32903-50286-20000420D0001457D0001000010HSI10008E2GGSL
NJARET21020-32903-50763-80000324D0001189D0002600015SLI12000E3GGSL
NJARET21020-32903-50764-50000072D0000282D0001500007SLI14000B9GGSL
NJARET21020-32903-50766-90000024D0000914D0000100001TEA24000G2GGSL
NJARET21020-32903-50767-60000048D0000176D0000500003SLI12000A3GGSL
NJARET21020-32903-50794-20000084D0000308D0000700004SLI12000B9GGSL
NJARET21020-32903-50802-40000216D0000847D0001700016SLI14000E3GGSL
NJARET21020-32903-50803-10000096D0000376D0001400004SLI14000A3GGSL
NJARET21020-32903-52340-90000030D0000139D0000900004SVN24000B9GGSL
NJARET21020-32903-52858-90000090D0000620D0004700009VNP18000B9GGSL
NJARET21020-32903-53271-50000018D0000150D0000400000SLI24000E2GGSL
NJARET21020-32903-55269-00000004D0000303D0000000000TEA30000E3GGSL
NJARET21020-32903-56391-70000660D0002290D0001100011HSI10008A1GGSL
NJARET21020-32903-57235-30000006D0000060D0001400000VNP30000B9GGSL
NJARET21020-32903-57495-10000012D0000066D0001300004SVN30000B9GGSL
NJARET21020-32903-58303-80000012D0000094D0000400001VNP24000B9GGSL
NJARET21020-32903-58838-50000018D0000075D0000700003SVN18000B9GGSL
NJARET21020-32903-61636-10000480D0001666D0001000010HSI10008B6GGSL
NJARET21020-32903-63553-90000004D0000152D0000300000TEA24000E3GGSL
NJARET21020-32903-63553-90000004D0000152D0000100001TEA25000E3GGSL
NJARET21020-32903-66002-90000005D0000073D0003500003ROP28000E3GGSL
NJARET21020-32903-72233-80000084D0000343D0001400013LIA10000B9GGSL
NJARET21020-32903-72518-60000208D0001870D0001600016RZWC2G0B9 GGSL
NJARET21020-32903-72886-60000156D0000978D0000800005RZWC1G0B9 GGSL
NJARET21020-32903-75049-20000096D0000628D0001300011SLI20000E3GGSL
NJARET21020-32903-75051-50000084D0000367D0000600004SLI17000A3GGSL
NJARET21020-32903-75057-70000048D0000210D0000800006SLI17000B9GGSL
NJARET21020-32903-75070-60000054D0000353D0001400006SLI20000A3GGSL
NJARET21020-32903-75076-80000002D0000157D0000100001TES24000G2GGSL
NJARET21020-32903-75080-50000132D0000577D0000800006SLI17000E3GGSL
NJARET21020-32903-75081-20000018D0000118D0000500001SLI20000B9GGSL
NJARET21020-32903-75084-30000018D0000150D0000700001SLI24000A3GGSL
NJARET21020-32903-75089-80000024D0000199D0001300003SLI24000B9GGSL
NJARET21020-32903-91270-80000004D0000138D0001800002RZGH210E3 GGSL
NJARET21020-32903-91300-20000006D0000047D0000800003VNP2400G18GGSL
NJARET21020-32903-91319-40000006D0000098D0000000000TEA17000G8GGSL
NJARET21020-32903-91320-00000012D0000348D0000400002TEA20000G8GGSL
NJARET21020-32903-91321-70000012D0000457D0000000000TEA24000G8GGSL
NJARET21020-32903-91322-40000012D0000908D0000000000TEA30000G8GGSL
NJARET21020-32903-91323-10000006D0000320D0000100001TES20000G8GGSL
NJARET21020-32903-91485-60000015D0000189D0000600002SPX24DBA34GGSL
NJARET21020-32903-91516-70000008D0000043D0000500003PPF1000   GGSL
NJARET21020-33200-00020-40000504D0000363D00486000033320000020GGSL
NJARET21020-33200-00544-50000648D0006498D047020470200544     GGSL
NJARET21020-33200-01191-00000208D0001471D000120001201191     GGSL
NJARET21020-33200-09142-40000188D0001314D000490004909142     GGSL
NJARET21020-33200-09293-30000072D0000503D00450001239293      GGSL
NJARET21020-33200-09793-80000004D0000028D00059000009793      GGSL
NJARET21020-33200-09991-80000048D0000169D00019000009991      GGSL
NJARET21020-33200-11321-80000396D0000527D001000005611321     GGSL
NJARET21020-33200-11448-20000042D0000056D000990000011448     GGSL
NJARET21020-33200-35240-20001136D0001785D0000000000352402    GGSL
NJARET21020-33200-94182-80001102D0011035D041730417394182     GGSL
NJARET21020-33200-97242-60000012D0000095D002150000097242     GGSL
NJARET21020-33200-97457-40000134D0001395D024080209397457     GGSL
NJARET21020-33349-00130-80001404D0000168D0000100000JP3BULK   GGSL
NJARET21020-33349-03110-70001665D0002315D0006800014JP310     GGSL
NJARET21020-33349-05042-90000120D0000566D0000200002J324      GGSL
NJARET21020-33349-05082-50000160D0000495D0007500008JP506     GGSL
NJARET21020-33349-05262-10000014D0000198D0000300002T70H      GGSL
NJARET21020-33349-05618-60000616D0003432D0007900025G310      GGSL
NJARET21020-33349-07750-10000377D0001234D0002900001J4R25     GGSL
NJARET21020-33349-41211-10001100D0001208D0002500005JP212     GGSL
NJARET21020-33349-41214-20000320D0000667D0001200004JP226     GGSL
NJARET21020-33349-41221-00000800D0001620D0002400002TDOME     GGSL
NJARET21020-33349-41234-00001300D0002174D0001400008TTRAY     GGSL
NJARET21020-33349-41238-80000490D0002311D0000500005T32       GGSL
NJARET21020-33349-41251-70000270D0000816D0001800001JS50      GGSL
NJARET21020-33349-41254-80000380D0001149D0002300010JS32      GGSL
NJARET21020-33349-41258-60000176D0000325D0000100001TR72      GGSL
NJARET21020-33349-41318-70000216D0000644D0004200004JP322     GGSL
NJARET21020-33349-41444-30000364D0000825D0006400007JP406     GGSL
NJARET21020-33349-41620-10000036D0000279D0008300001G316      GGSL
NJARET21020-33349-41701-70002000D0000242D0001900003J4BULK    GGSL
NJARET21020-33349-41710-90000391D0001241D0003300009J312      GGSL
NJARET21020-33349-65153-40000040D0000252D0000300003G312      GGSL
NJARET21020-33349-65205-00000033D0000298D0000100001T34H      GGSL
NJARET21020-33349-65220-30000056D0000886D0000100000JH48      GGSL
NJARET21020-33349-65221-00000030D0001382D0000000000JHGROW6   GGSL
NJARET21020-33349-66003-10000200D0002045D0002600005J372ST20  GGSL
NJARET21020-33349-66005-50000128D0001064D0000000001J425ST16  GGSL
NJARET21020-33349-66006-20000060D0000629D0000500003J450ST20  GGSL
NJARET21020-33349-66007-90000033D0000263D0000100001J616ST11  GGSL
NJARET21020-33349-66008-60000080D0001145D0001000004J636ST10  GGSL
NJARET21020-33349-66009-30000756D0004822D0010400031T72HST14  GGSL
NJARET21020-33349-66010-90000352D0002802D0001500006TS50HST16 GGSL
NJARET21020-33349-66015-40000196D0001153D0002700003TS20HST14 GGSL
NJARET21020-33349-66016-10000182D0001144D0001600003TS32HST14 GGSL
NJARET21020-33607-00320-40000012D0001271D0000700000TTMIX124  GGSL
NJARET21020-33607-01208-40000012D0000207D0001500002LT8       GGSL
NJARET21020-33607-01220-60000012D0000286D0000100001LT20      GGSL
NJARET21020-33607-22000-70000048D0000527D0005100006HCWM1     GGSL
NJARET21020-33607-22005-20000004D0000100D0000100000HC2       GGSL
NJARET21020-33607-22006-90000008D0000201D0000300002HBE6      GGSL
NJARET21020-33607-22010-60000008D0000264D0002800002HCF3      GGSL
NJARET21020-33607-22075-50000002D0000200D0000200004HTC1      GGSL
NJARET21020-33607-22250-60000002D0000267D0002500005HT4EZ     GGSL
NJARET21020-33607-22255-10000006D0000896D0000000000HT4TURN   GGSL
NJARET21020-33745-97185-40000013D0000388D003200002697185X    GGSL
NJARET21020-34411-00018-20000024D0000021D00008000038013641001GGSL
NJARET21020-34411-00165-30000012D0000057D00000000008010141001GGSL
NJARET21020-34411-00584-20000040D0000302D00000000008058421001GGSL
NJARET21020-34411-00832-40000036D0000213D00006000018083231002GGSL
NJARET21020-34411-00875-10000010D0000043D00000000008087531001GGSL
NJARET21020-34411-00894-20000036D0000379D00000000008089431001GGSL
NJARET21020-34411-01076-10000020D0000330D00008000038006041001GGSL
NJARET21020-34411-02971-80000006D0000142D00075000008550321001GGSL
NJARET21020-34411-03134-60000096D0000994D00002000008201921001GGSL
NJARET21020-34411-05711-70000048D0000271D0004500000 571TFR   GGSL
NJARET21020-34411-12528-10000012D0000087D00001000018528121001GGSL
NJARET21020-34411-18845-30000036D0000273D00009000008883031012GGSL
NJARET21020-34411-64751-60000004D0000112D00000000008647511014GGSL
NJARET21020-34411-74001-90000010D0000509D00001000018740011001GGSL
NJARET21020-34411-74251-80000012D0000203D00000000008742511002GGSL
NJARET21020-34411-74501-40000048D0001376D00008000088745011002GGSL
NJARET21020-34411-92773-10000060D0000470D00014000048702511001GGSL
NJARET21020-34411-92774-80000024D0000291D00001000018705011001GGSL
NJARET21020-34411-92775-50000024D0000389D00001000018707511001GGSL
NJARET21020-34613-00006-50000006D0000147D0000200000LH006     GGSL
NJARET21020-34613-00015-70000012D0000150D0000000000LH015     GGSL
NJARET21020-34613-00060-70000006D0000084D0000400004TP60      GGSL
NJARET21020-34613-00062-10000012D0000288D0000000000LH062     GGSL
NJARET21020-34613-00072-00000006D0000098D0000400000TP72      GGSL
NJARET21020-34613-00127-70000006D0000093D0000000000LH127     GGSL
NJARET21020-34613-00216-80000030D0000185D0000100000U2403     GGSL
NJARET21020-34613-00325-70000050D0000414D0000000000325       GGSL
NJARET21020-34613-00333-20000012D0000033D0000000000333       GGSL
NJARET21020-34613-00349-30000012D0000098D0000000000349       GGSL
NJARET21020-34613-00351-60000072D0000330D0000000000351       GGSL
NJARET21020-34613-00425-40000025D0000275D0000000000425       GGSL
NJARET21020-34613-00436-00000025D0000091D0000000000436       GGSL
NJARET21020-34613-00449-00000006D0000084D0000000000449       GGSL
NJARET21020-34613-00450-60000006D0000101D0000000000450       GGSL
NJARET21020-34613-00451-30000012D0000056D0000200002451       GGSL
NJARET21020-34613-00469-80000002D0000323D0001100000 N408     GGSL
NJARET21020-34613-00540-40000040D0000293D0000000000540HD     GGSL
NJARET21020-34613-00550-30000012D0000042D0000200002550BL     GGSL
NJARET21020-34613-00551-00000012D0000042D0000400004551BL     GGSL
NJARET21020-34613-00552-70000012D0000042D0000200002552BL     GGSL
NJARET21020-34613-00553-40000024D0000083D0000200002553BL     GGSL
NJARET21020-34613-00640-10000040D0000366D0000200001640HD     GGSL
NJARET21020-34613-00775-00000024D0000048D0004700000775       GGSL
NJARET21020-34613-00802-30000020D0000020D0000100001SS2       GGSL
NJARET21020-34613-00803-00000040D0000045D0000100001SS3       GGSL
NJARET21020-34613-00804-70000040D0000064D0000200002SS4       GGSL
NJARET21020-34613-00805-40000100D0000185D0000200002SS5       GGSL
NJARET21020-34613-00806-10000060D0000152D0000000000SS6       GGSL
NJARET21020-34613-00807-80000010D0000065D0000000000SS7HD     GGSL
NJARET21020-34613-00809-20000020D0000012D0001200012SS6HD     GGSL
NJARET21020-34613-00820-70000012D0000104D0000000000820       GGSL
NJARET21020-34613-00831-30000020D0000080D0000000000SFS4      GGSL
NJARET21020-34613-00832-00000005D0000080D0000000000SFS6      GGSL
NJARET21020-34613-00834-40000010D0000190D0000000000SFS8      GGSL
NJARET21020-34613-00835-10000020D0000164D0000000000SFS5      GGSL
NJARET21020-34613-00876-40000020D0000127D0000200002SP6       GGSL
NJARET21020-34613-00924-20000012D0000213D0000500000924       GGSL
NJARET21020-34613-01064-40000024D0000288D00072000031064      GGSL
NJARET21020-34613-01150-40000140D0000539D00001000011150PDQ   GGSL
NJARET21020-34613-01180-10000024D0000063D00002000021180PDQ   GGSL
NJARET21020-34613-01484-00000012D0000068D0000000000CVS014HD  GGSL
NJARET21020-34613-01502-10000036D0000064D00004000041502      GGSL
NJARET21020-34613-01503-80000156D0000276D00006000061503      GGSL
NJARET21020-34613-01684-40000012D0000087D0000000000CVS016HD  GGSL
NJARET21020-34613-01901-20000024D0000208D00007000001901      GGSL
NJARET21020-34613-01902-90000012D0000104D00000000001902      GGSL
NJARET21020-34613-01903-60000012D0000104D00004000041903      GGSL
NJARET21020-34613-01904-30000012D0000105D00001000011904      GGSL
NJARET21020-34613-03104-50000018D0000174D00001000013104      GGSL
NJARET21020-34613-03105-20000012D0000145D00000000003105      GGSL
NJARET21020-34613-03108-30000012D0000231D00000000003108      GGSL
NJARET21020-34613-03344-50000006D0000141D00001000013344      GGSL
NJARET21020-34613-03378-00000006D0000069D00001000013378      GGSL
NJARET21020-34613-03485-50000006D0000078D00000000003485      GGSL
NJARET21020-34613-03603-30000060D0000424D0000000000U3603     GGSL
NJARET21020-34613-04532-50000120D0001332D00138000074532      GGSL
NJARET21020-34613-04533-20000300D0002424D00065000074533SP    GGSL
NJARET21020-34613-04830-20000018D0000217D00001000014830      GGSL
NJARET21020-34613-04853-10000006D0000060D00000000004853BL    GGSL
NJARET21020-34613-04859-30000006D0000069D00000000003378BL    GGSL
NJARET21020-34613-04879-10000006D0000094D00002000024879BL    GGSL
NJARET21020-34613-04911-80000012D0000185D00000000004911BL    GGSL
NJARET21020-34613-05017-60000012D0000135D00000000005017BL    GGSL
NJARET21020-34613-05171-50000006D0000097D00000000005171      GGSL
NJARET21020-34613-05826-40000012D0000176D00003000005826      GGSL
NJARET21020-34613-05945-20000018D0000521D00012000015945      GGSL
NJARET21020-34613-06349-70000048D0000146D00021000056349      GGSL
NJARET21020-34613-06352-70001272D0024321D00026000256352      GGSL
NJARET21020-34613-06353-40000060D0001307D00151000176353      GGSL
NJARET21020-34613-06354-10000114D0001694D00048000056354      GGSL
NJARET21020-34613-06355-80001200D0021348D00108000246355      GGSL
NJARET21020-34613-06586-60000012D0000206D00000000006586      GGSL
NJARET21020-34613-06790-70000024D0000384D00011000066790      GGSL
NJARET21020-34613-06793-80000108D0000339D00014000056793      GGSL
NJARET21020-34613-06794-50000036D0000294D00000000006794      GGSL
NJARET21020-34613-07029-70000024D0000086D00000000006439SP    GGSL
NJARET21020-34613-07108-90000072D0000233D00014000007108      GGSL
NJARET21020-34613-07156-00000006D0000085D00002000007156BL    GGSL
NJARET21020-34613-07179-90000138D0002088D00085000057179      GGSL
NJARET21020-34613-07180-50000180D0002597D00177000137180      GGSL
NJARET21020-34613-07278-90000132D0000800D00035000037278SP    GGSL
NJARET21020-34613-08055-50000006D0000177D00000000008055      GGSL
NJARET21020-34613-08073-90000012D0000311D00000000008073      GGSL
NJARET21020-34613-08131-60000006D0000029D00000000008131      GGSL
NJARET21020-34613-08204-70000012D0000113D00001000008204      GGSL
NJARET21020-34613-08210-80000012D0000086D0000000000PS10      GGSL
NJARET21020-34613-08401-00000018D0000253D00002000008401      GGSL
NJARET21020-34613-08446-10000018D0000291D0001600005BF24      GGSL
NJARET21020-34613-08975-60000003D0000161D00000000008975      GGSL
NJARET21020-34613-09501-60000024D0000361D00011000009501      GGSL
NJARET21020-34613-09706-50000024D0000120D00000000009706      GGSL
NJARET21020-34613-12060-20000012D0000254D00001000002060N     GGSL
NJARET21020-34613-34006-20000150D0000050D0000100001CVS006    GGSL
NJARET21020-34613-34008-60000050D0000024D0000000000CVS008    GGSL
NJARET21020-34613-34010-90000100D0000071D0000000000CVS010    GGSL
NJARET21020-34613-34012-30000075D0000083D0000400000CVS012    GGSL
NJARET21020-34613-34014-70000025D0000037D0000900000CVS014    GGSL
NJARET21020-34613-59774-90000008D0002080D000610000159774     GGSL
NJARET21020-34613-60568-00000032D0001078D000120001260568     GGSL
NJARET21020-34613-65499-20000001D0000041D000020000065499     GGSL
NJARET21020-34613-66637-70000001D0000237D000400000066637     GGSL
NJARET21020-34613-91018-00000025D0000115D000020000191018     GGSL
NJARET21020-34613-91146-00000010D0000041D000010000191146     GGSL
NJARET21020-34613-92006-60000012D0000037D000040000092006     GGSL
NJARET21020-34613-94006-40000018D0000134D000000000094006     GGSL
NJARET21020-34613-95006-30000018D0000170D000000000095006     GGSL
NJARET21020-35000-05361-90001640D0001197D0000100001105375    GGSL
NJARET21020-35000-14112-50000318D0001574D001200000414477     GGSL
NJARET21020-35000-14120-00000072D0000356D001560000014478     GGSL
NJARET21020-35000-14328-00000060D0000297D001200000014483     GGSL
NJARET21020-35000-44558-20000200D0001046D0010000000US04121A  GGSL
NJARET21020-35000-44627-50000900D0000945D0001500015144630    GGSL
NJARET21020-35000-45122-40000004D0000025D0007800000US04284A  GGSL
NJARET21020-35000-46057-60000032D0000050D0022500000US04248A  GGSL
NJARET21020-35000-46413-20001780D0001869D000670002146413     GGSL
NJARET21020-35000-47805-40000306D0000722D000660000047805     GGSL
NJARET21020-35000-49862-50000360D0000756D000600000049862     GGSL
NJARET21020-35000-49863-20000360D0000756D000600000049863     GGSL
NJARET21020-35000-49874-80000004D0000024D000720000049874     GGSL
NJARET21020-35000-51119-50000312D0000889D0000000000151119    GGSL
NJARET21020-35000-53031-80000012D0000048D0011200000153042    GGSL
NJARET21020-35000-53032-50000360D0000878D0000800008153041    GGSL
NJARET21020-35000-53058-50001456D0008921D018930065353058     GGSL
NJARET21020-35000-53060-80000036D0000168D000900000253060     GGSL
NJARET21020-35000-53099-80000372D0000856D018750001653099     GGSL
NJARET21020-35000-53122-30000267D0001637D004220015653122     GGSL
NJARET21020-35000-55190-00000126D0000378D0001600016155190    GGSL
NJARET21020-35000-96987-30000003D0000020D0020900000MX06813A  GGSL
NJARET21020-35000-97299-60000600D0001283D0000000000US06491A  GGSL
NJARET21020-35000-97335-10000572D0003667D0005700057US06517A  GGSL
NJARET21020-35110-01900-00000144D0001253D002160021601900     GGSL
NJARET21020-35110-04915-10000192D0001839D000160001304915     GGSL
NJARET21020-35307-00100-90000024D0000080D0000000000STT100    GGSL
NJARET21020-35307-00402-40000024D0000089D0000400002402       GGSL
NJARET21020-35307-00404-80000036D0000134D0000100001404       GGSL
NJARET21020-35307-00781-00000144D0001285D0000500002781       GGSL
NJARET21020-35307-00782-70000144D0001314D0000600001782       GGSL
NJARET21020-35307-00803-90000108D0000182D0000100001803       GGSL
NJARET21020-35307-00804-60000012D0000020D0000000000804       GGSL
NJARET21020-35307-00805-30000084D0000206D0000100001805       GGSL
NJARET21020-35307-00808-40000048D0000128D0000200002808       GGSL
NJARET21020-35307-00810-70000048D0000100D0000000000810       GGSL
NJARET21020-35307-00812-10000288D0000702D0000700007812       GGSL
NJARET21020-35307-00816-90000012D0000019D0000100001816       GGSL
NJARET21020-35307-00817-60000360D0000831D0001300013817       GGSL
NJARET21020-35307-00818-30000072D0000127D0000100000818       GGSL
NJARET21020-35307-00819-00000324D0000637D0000300003819       GGSL
NJARET21020-35307-00820-60000096D0000156D0000400004820       GGSL
NJARET21020-35307-00826-80000288D0000522D0000600007826       GGSL
NJARET21020-35307-00827-50000012D0000023D0000100001827       GGSL
NJARET21020-35307-00828-20000168D0000401D0000700007828       GGSL
NJARET21020-35307-00829-90000108D0000341D0000100001829       GGSL
NJARET21020-35307-00834-30000744D0002114D0003800010834       GGSL
NJARET21020-35307-00835-00000204D0001149D0000600002835       GGSL
NJARET21020-35307-00838-10000288D0000859D0000100001838       GGSL
NJARET21020-35307-00839-80001524D0005145D0003200009839       GGSL
NJARET21020-35307-00840-40000960D0002341D0001800010840       GGSL
NJARET21020-35307-00841-10000144D0000282D0001300013841       GGSL
NJARET21020-35307-00843-50000228D0000662D0000300003843       GGSL
NJARET21020-35307-00844-20001104D0002536D0004200022844       GGSL
NJARET21020-35307-00845-90000084D0000327D0001500007845       GGSL
NJARET21020-35307-00846-60000432D0001428D0000500002846       GGSL
NJARET21020-35307-00848-00000216D0000409D0000300008848       GGSL
NJARET21020-35307-00857-20000360D0001977D0000900003857       GGSL
NJARET21020-35307-00860-20000018D0000125D0000300003860       GGSL
NJARET21020-35307-00861-90000024D0000064D0000000000861       GGSL
NJARET21020-35307-00862-60000060D0000164D0000300003862       GGSL
NJARET21020-35307-00864-00000036D0000141D0000200002864       GGSL
NJARET21020-35307-00865-70000216D0000818D0000300003865       GGSL
NJARET21020-35307-00869-50000084D0000850D0000600002869       GGSL
NJARET21020-35307-00874-90000144D0000222D0001900009874       GGSL
NJARET21020-35307-00875-60001080D0003798D0001200008875       GGSL
NJARET21020-35307-00914-20000024D0000152D0000100001914       GGSL
NJARET21020-35307-00916-60000216D0000485D0000800002916       GGSL
NJARET21020-35307-00917-30000048D0000124D0000000000917       GGSL
NJARET21020-35307-00967-80000348D0000684D0001600012967       GGSL
NJARET21020-35307-00970-80000060D0000548D0000300002970       GGSL
NJARET21020-35307-00971-50000204D0001073D0000500005971       GGSL
NJARET21020-35307-00972-20000228D0001284D0000400002972       GGSL
NJARET21020-35307-00973-90000264D0001668D0001100003973       GGSL
NJARET21020-35307-00977-70000300D0000801D0001700017977       GGSL
NJARET21020-35307-00978-40000324D0001707D0001000010978       GGSL
NJARET21020-35307-00979-10000216D0000181D0000000000979       GGSL
NJARET21020-35307-00980-70000528D0000590D0000500001980       GGSL
NJARET21020-35307-00985-20000072D0000172D0000100001985       GGSL
NJARET21020-35307-00987-60000408D0001455D0001700008987       GGSL
NJARET21020-35307-01020-90000012D0000015D00001000011020      GGSL
NJARET21020-35307-01025-40000036D0000053D00001000011025      GGSL
NJARET21020-35307-01030-80000168D0000332D00012000011030      GGSL
NJARET21020-35307-01035-30000048D0000118D00003000001035      GGSL
NJARET21020-35307-01040-70000192D0000578D00013000011040      GGSL
NJARET21020-35307-01045-20000408D0001591D00006000011045      GGSL
NJARET21020-35307-01050-60000120D0000577D00008000001050      GGSL
NJARET21020-35307-01220-30000012D0000042D00000000001220      GGSL
NJARET21020-35307-01250-00000060D0000124D00000000001250      GGSL
NJARET21020-35307-01270-80000032D0000310D00000000001270      GGSL
NJARET21020-35307-01601-00000102D0001243D00001000021601      GGSL
NJARET21020-35307-01605-80000003D0000076D00005000021605      GGSL
NJARET21020-35307-01609-60000468D0001895D00009000071609CS    GGSL
NJARET21020-35307-01612-60000504D0002047D00010000101612      GGSL
NJARET21020-35307-01617-10000024D0000055D00001000011617PDQ   GGSL
NJARET21020-35307-01617-10000012D0000027D00000000001617PDQPC GGSL
NJARET21020-35307-01618-80000048D0000303D00003000011618      GGSL
NJARET21020-35307-01625-60000012D0000138D00001000011625      GGSL
NJARET21020-35307-01630-00000024D0000190D00002000011630      GGSL
