TXBWIC21020-00402-00000-00001428D0017288D0337900436          GGSL
TXBWIC21020-00402-01012-60000044D0003064D00442000111012      GGSL
TXBWIC21020-00402-01014-00000506D0029397D01263003561014      GGSL
TXBWIC21020-00402-01492-60000020D0000044D000280000014SSB     GGSL
TXBWIC21020-00402-01499-50000079D0000273D005770000014SS      GGSL
TXBWIC21020-00402-02117-70000075D0000248D0000000000B117      GGSL
TXBWIC21020-00402-02177-10000150D0000759D0000000000B117D     GGSL
TXBWIC21020-00402-02419-20000011D0000248D000890000010XS-20   GGSL
TXBWIC21020-00402-02544-10000050D0000171D0000000000B54D      GGSL
TXBWIC21020-00402-02699-50000180D0000174D005600002010XS-20B  GGSL
TXBWIC21020-00402-02750-60000650D0002643D0095000175B75       GGSL
TXBWIC21020-00402-05418-20000075D0000199D00600000505418      GGSL
TXBWIC21020-00402-07530-90000025D0000058D00000000007530      GGSL
TXBWIC21020-00402-10142-80000800D0050564D011120006910145B    GGSL
TXBWIC21020-00402-10147-30000061D0004351D00179000001014 G    GGSL
TXBWIC21020-00402-10512-90000006D0000013D000080000010ESB     GGSL
TXBWIC21020-00402-10519-80000060D0000141D000000000010ES      GGSL
TXBWIC21020-00402-14282-70000030D0000198D000000000014TRSB    GGSL
TXBWIC21020-00402-14292-60000003D0000123D0000000000142SSB    GGSL
TXBWIC21020-00402-14299-50000030D0000126D0000000000142SS     GGSL
TXBWIC21020-00402-14312-10000035D0000105D000000000514CSB     GGSL
TXBWIC21020-00402-14319-00000052D0000155D000060000814CS      GGSL
TXBWIC21020-00402-14411-10000010D0000450D0006600060144SSBK   GGSL
TXBWIC21020-00402-14492-00000040D0000180D0000000000144SSB    GGSL
TXBWIC21020-00402-14560-60000011D0000028D000490000014EP      GGSL
TXBWIC21020-00402-14562-00000020D0000059D000000000014EPB     GGSL
TXBWIC21020-00402-22117-10000050D0000020D0005000000VSC117    GGSL
TXBWIC21020-00402-22275-80000050D0000010D0000000000VSCH7-5   GGSL
TXBWIC21020-00402-33117-70000850D0000287D0160000775PC11-7    GGSL
TXBWIC21020-00402-33354-60002925D0000360D0635000100PC5-4     GGSL
TXBWIC21020-00402-33375-10004925D0000934D0667500400PC7-5     GGSL
TXBWIC21020-00402-41819-90000055D0000263D000750000014TRS     GGSL
TXBWIC21020-00402-44117-30000225D0000081D0000000000PLCD 11-7 GGSL
TXBWIC21020-00402-91012-90000030D0002052D00000000001012 BK   GGSL
TXBWIC21020-00402-91014-30000010D0000534D00048000601014 BLACKGGSL
TXBWIC21020-00772-06060-80000008D0000028D00000000006060      GGSL
TXBWIC21020-00772-06062-20000008D0000028D00000000006062      GGSL
TXBWIC21020-00772-06063-90000008D0000028D00000000006063      GGSL
TXBWIC21020-00772-06090-50000001D0000021D00000000006090      GGSL
TXBWIC21020-00772-06092-90000001D0000015D00000000006092      GGSL
TXBWIC21020-00772-06093-60000001D0000015D00000000006093      GGSL
TXBWIC21020-00772-06216-90000006D0000045D00000000006216      GGSL
TXBWIC21020-00772-06281-70000012D0000048D00000000006281      GGSL
TXBWIC21020-00772-06282-40000012D0000048D00000000006282      GGSL
TXBWIC21020-00772-06337-10000001D0000024D00000000006337      GGSL
TXBWIC21020-00772-06338-80000001D0000024D00000000006338      GGSL
TXBWIC21020-00772-06346-30000012D0000060D00000000006346      GGSL
TXBWIC21020-00772-06644-00000001D0000000D00000000006644      GGSL
TXBWIC21020-00772-06705-80000006D0000021D00000000006705      GGSL
TXBWIC21020-00772-06710-20000012D0000060D00000000006710      GGSL
TXBWIC21020-00772-06712-60000012D0000060D00000000006712      GGSL
TXBWIC21020-00772-06715-70000001D0000060D00000000006715      GGSL
TXBWIC21020-00772-06724-90000002D0000078D00000000006724      GGSL
TXBWIC21020-00772-06725-60000002D0000078D00000000006725      GGSL
TXBWIC21020-00772-06740-90000006D0000021D00000000006740      GGSL
TXBWIC21020-00772-06741-60000008D0000060D00000000006741      GGSL
TXBWIC21020-00772-06753-90000004D0000060D00000000006753      GGSL
TXBWIC21020-01850-60960-00000010D0005980D00000000039600      GGSL
TXBWIC21020-02800-91501-30000225D0001152D00000000751501      GGSL
TXBWIC21020-10367-00001-80000015D0000052D0000000000ML0001    GGSL
TXBWIC21020-10367-00110-70001704D0010436D0191401788110       GGSL
TXBWIC21020-10367-00130-50000011D0000616D0005600050130.0     GGSL
TXBWIC21020-10367-00150-30000007D0000161D0000000004150.0     GGSL
TXBWIC21020-10367-00300-20000024D0000186D0000000000ML0300    GGSL
TXBWIC21020-10367-00460-30000040D0000185D0036000056ML0460 8  GGSL
TXBWIC21020-10367-00470-20000024D0000252D0000000000470.0     GGSL
TXBWIC21020-10367-00530-30000003D0000098D0000800000530.0     GGSL
TXBWIC21020-10367-00560-00000152D0000489D0048800064ML0560 8  GGSL
TXBWIC21020-10367-00810-60000108D0000513D0037200480ML0810    GGSL
TXBWIC21020-10367-01000-00000125D0001258D0000000000ML1000    GGSL
TXBWIC21020-10367-01010-90000156D0001867D0000000000ML1010    GGSL
TXBWIC21020-10367-01020-80000156D0002005D0006000012ML1020    GGSL
TXBWIC21020-10367-01050-50000084D0000743D0000000048ML1050    GGSL
TXBWIC21020-10367-01110-60000032D0000092D00008000401110      GGSL
TXBWIC21020-10367-01111-30000040D0000113D00032000801111.0    GGSL
TXBWIC21020-10367-01112-00000056D0000150D00024000161112.0    GGSL
TXBWIC21020-10367-01120-50000152D0000374D00152000561120.0    GGSL
TXBWIC21020-10367-01121-20000040D0000205D00000000081121.0    GGSL
TXBWIC21020-10367-01130-40000016D0000082D00000000001130.0    GGSL
TXBWIC21020-10367-01140-30000024D0000066D00000000001140.0    GGSL
TXBWIC21020-10367-01151-90000032D0000088D0000000000ML1151    GGSL
TXBWIC21020-10367-01160-10000008D0000055D00000000001160.0    GGSL
TXBWIC21020-10367-01161-80000008D0000055D00000000001161.0    GGSL
TXBWIC21020-10367-01162-50000032D0000220D00040000001162.0    GGSL
TXBWIC21020-10367-01210-30000012D0000138D00000000001210.0    GGSL
TXBWIC21020-10367-01240-00000084D0000483D00012000001240.0    GGSL
TXBWIC21020-10367-02121-10000024D0000084D0000000000ML2121    GGSL
TXBWIC21020-10367-02131-00000016D0000056D0000000000ML2131    GGSL
TXBWIC21020-10367-02141-90000016D0000056D0000000000ML2141    GGSL
TXBWIC21020-10367-02151-80000008D0000055D0000000000ML2151    GGSL
TXBWIC21020-10367-02161-70000050C0000055C0000800000ML2161    GGSL
TXBWIC21020-10367-02162-40000008D0000050D0000000000ML2162    GGSL
TXBWIC21020-10367-02171-60000008D0000050D0000000000ML2171    GGSL
TXBWIC21020-10367-02181-50000008D0000055D0000000000ML2181    GGSL
TXBWIC21020-10367-03010-70000056D0000304D0008800000ML3010    GGSL
TXBWIC21020-10367-03020-60000040D0000216D0000800000ML3020    GGSL
TXBWIC21020-10367-21631- 0000050C0000216C0000800000ML2163    GGSL
TXBWIC21020-11247-00000-00000240D0005088D0016000000CPK0225   GGSL
TXBWIC21020-11247-00250-40000023D0000782D001390000500640     GGSL
TXBWIC21020-11247-00911-40000002D0000082D000000001000911     GGSL
TXBWIC21020-11247-01050-90000001D0000011D000000004001050     GGSL
TXBWIC21020-11247-01541-20000013D0000473D000150000001541     GGSL
TXBWIC21020-11247-03111-50000002D0000063D002090000003111     GGSL
TXBWIC21020-11247-04525-90000846D0017378D003310000504525     GGSL
TXBWIC21020-11247-05350-60000019D0000898D000470000005350     GGSL
TXBWIC21020-11247-05450-30000064D0002552D001090002905450     GGSL
TXBWIC21020-11247-06239-30000040D0001532D000000005206239     GGSL
TXBWIC21020-11247-11024-70000060D0000318D000000007211024     GGSL
TXBWIC21020-11247-13010-80000024D0000078D000600003613010     GGSL
TXBWIC21020-11247-16004-20000168D0001027D003180000616004     GGSL
TXBWIC21020-11247-20103-70000024D0000168D000000000020103     GGSL
TXBWIC21020-11247-26001-00000012D0000057D000000000026001     GGSL
TXBWIC21020-11247-30004-40000270D0001795D001380004230004     GGSL
TXBWIC21020-11247-48024-10000024D0000120D000120002448020     GGSL
TXBWIC21020-11247-52813-40000008D0000111D000000000052813     GGSL
TXBWIC21020-11247-52825-70000016D0000259D001020000252825     GGSL
TXBWIC21020-11247-52829-50000030D0000285D000480000052829     GGSL
TXBWIC21020-11247-52848-60000007D0000174D000000000052848     GGSL
TXBWIC21020-11247-52863-90000012D0000192D000000000052863     GGSL
TXBWIC21020-11247-52878-30000030D0003059D000000000052878     GGSL
TXBWIC21020-11247-52880-60000060D0000320D000000000052880     GGSL
TXBWIC21020-11247-52881-30000025D0000405D000030000052881     GGSL
TXBWIC21020-11247-52882-00000012D0000090D000000000052882     GGSL
TXBWIC21020-11247-52888-20000090D0000455D003420000052888     GGSL
TXBWIC21020-11247-52889-90000042D0000527D005030002852889     GGSL
TXBWIC21020-11247-60116-50000026D0000258D001580000060116     GGSL
TXBWIC21020-11247-61024-20000636D0003837D011250026461024     GGSL
TXBWIC21020-11247-70024-00000036D0000191D000120002470024     GGSL
TXBWIC21020-11247-70300-50000018D0000183D000000001270300     GGSL
TXBWIC21020-11247-71016-40000132D0001011D000000002471001     GGSL
TXBWIC21020-11247-71128-40000032D0000561D000000000071128     GGSL
TXBWIC21020-11247-71250-20000012D0000507D000000000071250     GGSL
TXBWIC21020-11247-90128-90000004D0000038D000000000090128     GGSL
TXBWIC21020-11423-00338-70000012D0000067D0115000000HG-33801  GGSL
TXBWIC21020-11423-94108-50000012D0000138D0013800030HG-94108  GGSL
TXBWIC21020-11423-94127-60000048D0000188D0064600012HG-64127  GGSL
TXBWIC21020-14021-00337-70000001D0000064D00000000002000      GGSL
TXBWIC21020-14021-01412-00000002D0000248D00000000001024      GGSL
TXBWIC21020-14021-01415-10000048D0000248D00000000001000      GGSL
TXBWIC21020-14021-10118-90000001D0000079D00000000003020      GGSL
TXBWIC21020-15966-49430-10000004D0000065D000130000049 00 430 GGSL
TXBWIC21020-16069-00005-90000213D0001196D0015600024TP-15C    GGSL
TXBWIC21020-16069-00007-30000108D0000551D0018300036BN-1      GGSL
TXBWIC21020-16069-00008-00000396D0002059D0152100552BN-2      GGSL
TXBWIC21020-16069-00013-40000046D0000975D0004000008BN-3      GGSL
TXBWIC21020-16069-00014-10000016D0000255D0010000020BN-4      GGSL
TXBWIC21020-16069-00015-80000012D0000284D0007400012BN-5      GGSL
TXBWIC21020-16069-00030-10000036D0000403D0028000056OW-6      GGSL
TXBWIC21020-16069-00049-30000084D0001140D0021600012DX-7      GGSL
TXBWIC21020-16069-00060-80000030D0000074D0000000000RAP-15    GGSL
TXBWIC21020-16069-00072-10000012D0000073D0000000000TSD-12    GGSL
TXBWIC21020-16069-00218-30000072D0000341D0004800000HST-100   GGSL
TXBWIC21020-16069-00365-40000009D0000106D0004500000PIN-9     GGSL
TXBWIC21020-16069-00473-30000013D0005499D0000000001MIXO-30MP GGSL
TXBWIC21020-16069-00531-00000014D0007069D0000000001GCM-BDO   GGSL
TXBWIC21020-16069-00667-90000068D0001356D0034000160RHO-4US   GGSL
TXBWIC21020-18506-00000-00000305D0004560D01490002600111-5    GGSL
TXBWIC21020-18506-00021-90000006D0000083D0026700000021-6     GGSL
TXBWIC21020-18506-00102-50000048D0000191D0060000000102-12    GGSL
TXBWIC21020-18506-00110-50000348D0002174D0104600411110-12    GGSL
TXBWIC21020-18506-00116-20000165D0001072D0057300615116-12    GGSL
TXBWIC21020-18506-00117-90000081D0000803D0103200468117-6     GGSL
TXBWIC21020-18506-00125-40000096D0000427D0034800000125       GGSL
TXBWIC21020-18506-00130-80000036D0000204D0020400000130       GGSL
TXBWIC21020-18506-02000-20000012D0000096D00000000002000      GGSL
TXBWIC21020-18506-02001-90000006D0000078D00000000002001      GGSL
TXBWIC21020-19263-25500-30000002D0000057D00000000002550      GGSL
TXBWIC21020-19263-25520-10000002D0000083D00000000002552      GGSL
TXBWIC21020-19263-25540-90000002D0000108D00000000002554      GGSL
TXBWIC21020-19263-25600-00000001D0000000D0000000000256000    GGSL
TXBWIC21020-22102-01010-70000044D0001664D000110000010N       GGSL
TXBWIC21020-22102-05211-40000060D0002361D0000000000521G      GGSL
TXBWIC21020-22179-10005-30000006D0000100D0000000000lg 5129   GGSL
TXBWIC21020-22179-10011-40000018D0000153D0000000000lg 3104   GGSL
TXBWIC21020-22179-10034-30000006D0000192D0000000036lg 5137   GGSL
TXBWIC21020-22179-10035-00000022D0001128D0018100023LG4110    GGSL
TXBWIC21020-22179-10084-80000012D0000134D0003000132LG7220    GGSL
TXBWIC21020-22179-10090-90000036D0000893D0001500006LG4300    GGSL
TXBWIC21020-22179-10109-80000030D0000398D0004200000lg 5146   GGSL
TXBWIC21020-22179-10110-40000006D0000144D0000000000lg 5149   GGSL
TXBWIC21020-22179-10115-90000092D0001387D0000000000lg 5599   GGSL
TXBWIC21020-22179-10124-10000274D0001330D0097800138LG6515    GGSL
TXBWIC21020-22179-10139-50000048D0000204D0277800000LG1130    GGSL
TXBWIC21020-22179-10140-10000009D0001090D0009200000LG6520    GGSL
TXBWIC21020-22179-10150-00000208D0002106D00312007327115      GGSL
TXBWIC21020-22179-10151-70000029D0001162D00229000227117      GGSL
TXBWIC21020-22179-10164-70000012D0000048D0000000000LG1140    GGSL
TXBWIC21020-22179-10185-20000171D0001680D0078600003LG6500    GGSL
TXBWIC21020-22179-10246-00000132D0001935D0085201230LG6570    GGSL
TXBWIC21020-22179-10247-70000192D0003987D00357005037122      GGSL
TXBWIC21020-22179-10248-40000300D0002192D0086100000LG6575    GGSL
TXBWIC21020-22179-10257-60000036D0000516D0000000000LG3190    GGSL
TXBWIC21020-22179-10258-30000024D0000588D0000000000LG6580    GGSL
TXBWIC21020-22179-10266-80000024D0000354D0001200000LG6145    GGSL
TXBWIC21020-22179-10326-90000018D0000366D0000000000LG5512    GGSL
TXBWIC21020-22179-10327-60000024D0000171D0000000000LG6148    GGSL
TXBWIC21020-22179-10331-30000006D0000061D0000000000lg 6382   GGSL
TXBWIC21020-22179-10366-50000006D0000054D0000000000          GGSL
TXBWIC21020-22179-10374-00000054D0000298D0000000000lg 6286   GGSL
TXBWIC21020-22179-10375-70000006D0000043D0000000000lg 6299   GGSL
TXBWIC21020-22179-10390-00000060D0000475D0005100327LG6332    GGSL
TXBWIC21020-22179-10391-70000024D0000310D0000000000LG6336    GGSL
TXBWIC21020-22179-10395-50000048D0001359D0010900001LG6356    GGSL
TXBWIC21020-22179-10406-80000004D0000196D0003200000LG 6344   GGSL
TXBWIC21020-22179-10408-20000168D0001272D0039300927LG 6338   GGSL
TXBWIC21020-22179-10429-70000108D0001550D0007200672LG6334    GGSL
TXBWIC21020-22179-10454-90000087D0000857D0008400204lg 3303   GGSL
TXBWIC21020-22179-10458-70000216D0001954D0021900030lg 3234   GGSL
TXBWIC21020-22179-10481-50000036D0000397D0000000000lg 5592   GGSL
TXBWIC21020-22179-10517-10000006D0000115D0000000000lg 3176   GGSL
TXBWIC21020-22179-10519-50000012D0000162D0000600000lg 6544   GGSL
TXBWIC21020-22179-10520-10000048D0000328D0001800000lg 6542   GGSL
TXBWIC21020-22401-00115-80000132D0005448D0011200009MDC-15    GGSL
TXBWIC21020-22401-00301-50000029D0000297D0000000006THD-20    GGSL
TXBWIC21020-22401-00381-70000008D0000108D0000000244NDETC-2OLBGGSL
TXBWIC21020-22401-10088-20000018D0000397D0005500016EAR-60    GGSL
TXBWIC21020-22401-10089-90000004D0000061D0000000000BBC-20LB  GGSL
TXBWIC21020-23626-00605-80003732D0030890D0700000924116334    GGSL
TXBWIC21020-23626-00615-70002448D0023487D1041300328116336    GGSL
TXBWIC21020-23626-00630-00000740D0008813D0222300068116341    GGSL
TXBWIC21020-23626-00650-80000084D0000266D0037800000000600    GGSL
TXBWIC21020-23626-01710-80000114D0000549D0082500036800       GGSL
TXBWIC21020-23626-01720-70000186D0001169D0081600012000900    GGSL
TXBWIC21020-23626-02830-20000001D0000054D0002700001116841    GGSL
TXBWIC21020-23626-07002-80000056D0000956D0000000000112825    GGSL
TXBWIC21020-23883-00001-10000323D0004995D0102600051G362      GGSL
TXBWIC21020-23883-00002-80000384D0001492D0039300018G385      GGSL
TXBWIC21020-23883-00003-50000102D0000373D0054600006G390      GGSL
TXBWIC21020-23883-01000-30000006D0000057D00000000001000      GGSL
TXBWIC21020-23883-01002-70000468D0003992D00211000181002      GGSL
TXBWIC21020-23883-01105-50000084D0000231D00271003121105      GGSL
TXBWIC21020-23883-01280-90000002D0000113D00000000201280.0    GGSL
TXBWIC21020-23883-04701-60000004D0000109D00040000024701      GGSL
TXBWIC21020-23883-05000-90000068D0000556D00137000025000      GGSL
TXBWIC21020-23883-08620-60000004D0000630D00008000008620B     GGSL
TXBWIC21020-23883-15710-40006746D0041541D000020165215710     GGSL
TXBWIC21020-23883-16100-20000020D0000222D000000000016100     GGSL
TXBWIC21020-23883-20010-70000012D0000169D000380000020010     GGSL
TXBWIC21020-23883-20020-60000015D0000239D000000000020002     GGSL
TXBWIC21020-23883-21210-00000005D0000215D001270000021210XP   GGSL
TXBWIC21020-23883-26011-80000097D0002652D002920000026011XP   GGSL
TXBWIC21020-23883-26021-70001412D0032916D016390018926021XP   GGSL
TXBWIC21020-23883-26031-60000061D0002221D002330000526031XP   GGSL
TXBWIC21020-23883-27010-00000026D0000506D002240001327010     GGSL
TXBWIC21020-23883-27020-90000166D0003211D007660003427020     GGSL
TXBWIC21020-23883-27030-80000044D0001015D003620001027030     GGSL
TXBWIC21020-23883-60100-30000873D0030566D005520014560100     GGSL
TXBWIC21020-23883-61800-10000018D0001019D000100004961800     GGSL
TXBWIC21020-23883-61925-10000009D0000079D00013000026-1925    GGSL
TXBWIC21020-23883-63924-20000021D0003414D000410000563924     GGSL
TXBWIC21020-23883-64601-10000005D0000062D00004000006-4601    GGSL
TXBWIC21020-23883-66002-40000002D0000010D00005000006-6002    GGSL
TXBWIC21020-23883-67711-40000010D0000122D00003000006-7711    GGSL
TXBWIC21020-23883-80000-00000291D0009280D00009000698000A     GGSL
TXBWIC21020-23883-80080-20000006D0000695D00000000008200A     GGSL
TXBWIC21020-23883-81000-90000003D0000301D000030000181000A    GGSL
TXBWIC21020-23883-82080-00000001D0000155D00000000018301C     GGSL
TXBWIC21020-23883-84000-60000515D0026678D00006002628701B     GGSL
TXBWIC21020-23883-84600-80000230D0005184D006300000084700A    GGSL
TXBWIC21020-23883-97100-70000030D0017361D000150000697100     GGSL
TXBWIC21020-23883-97361-20000002D0000323D000090000097361     GGSL
TXBWIC21020-23883-97561-60000002D0000388D000130000197561     GGSL
TXBWIC21020-24654-05922-10000048D0000522D00000000005926      GGSL
TXBWIC21020-24654-09334-80000018D0000459D00078000009334      GGSL
TXBWIC21020-24654-51806-30000006D0000029D00000000005180-6    GGSL
TXBWIC21020-24654-55110-70000660D0003094D00456000725110-6    GGSL
TXBWIC21020-24654-55118-30000306D0002005D00445001985118.0    GGSL
TXBWIC21020-24654-65452-50000005C0002005C00000000005452-6    GGSL
TXBWIC21020-24654-72125-80000006D0000036D0000000000SB125     GGSL
TXBWIC21020-26455-91350-40000046D0002347D0002600002          GGSL
TXBWIC21020-26978-10012-20000006D0000020D000000000010012     GGSL
TXBWIC21020-26978-10013-90000006D0000020D000060000010013     GGSL
TXBWIC21020-26978-26160-10000004D0000036D000000000026160     GGSL
TXBWIC21020-26978-26165-60000004D0000036D000000000026165     GGSL
TXBWIC21020-26978-30104-80000002D0000053D000000000330104     GGSL
TXBWIC21020-26978-30301-10003362D0013129D034980054030301     GGSL
TXBWIC21020-26978-30409-40000024D0000122D000000000030409     GGSL
TXBWIC21020-26978-30411-70000012D0000061D000000000030411     GGSL
TXBWIC21020-26978-30602-90000003D0000056D000000000030602     GGSL
TXBWIC21020-26978-30605-00000003D0000056D000000000030605     GGSL
TXBWIC21020-26978-30702-60000012D0000042D000060000030702     GGSL
TXBWIC21020-26978-36100-40000005D0000049D000000000036100     GGSL
TXBWIC21020-26978-36140-70000005D0000063D000000000036140     GGSL
TXBWIC21020-26978-38198-90000024D0000281D000000004838198     GGSL
TXBWIC21020-26978-48098-30000006D0000023D000000001248098     GGSL
TXBWIC21020-26978-48128-00000018D0000098D000000001248128     GGSL
TXBWIC21020-26978-48158-00000018D0000138D000000000048158     GGSL
TXBWIC21020-26978-70801-10000001D0000063D000000000070801     GGSL
TXBWIC21020-28009-11225-80004319D0020887D03832002751225.0    GGSL
TXBWIC21020-28009-11227-20000330D0000850D00000000301227.0    GGSL
TXBWIC21020-28009-11250-00010941D0080926D04379022841250.0    GGSL
TXBWIC21020-28009-11420-70001120D0005327D00551004001420P     GGSL
TXBWIC21020-28009-11438-20001080D0023594D00000000001438      GGSL
TXBWIC21020-28009-11440-50003865D0028862D01001008801440P     GGSL
TXBWIC21020-28009-11460-30000040D0000488D00000000001460      GGSL
TXBWIC21020-28009-11550-10000100D0000650D00050001001550P     GGSL
TXBWIC21020-28009-11638-60000120D0001902D00030000001638      GGSL
TXBWIC21020-28009-11640-90001080D0005981D00000007201640      GGSL
TXBWIC21020-28009-11925-70000325D0002914D00000001301925      GGSL
TXBWIC21020-28009-15240-70001458D0006724D01701001695240.0    GGSL
TXBWIC21020-28009-15440-10000060D0000286D00060000605440.0    GGSL
TXBWIC21020-28009-15440-30000180D0001153D00060002401840      GGSL
TXBWIC21020-28009-15450-00000149D0000866D00223000105450.0    GGSL
TXBWIC21020-28009-15540-80003558D0011655D02283001915540.0    GGSL
TXBWIC21020-28009-15720-40000580D0001930D00039000205720.0    GGSL
TXBWIC21020-28009-15740-20002062D0008039D01328002505740.0    GGSL
TXBWIC21020-30541-00003-00000100D0000114D0000000000JCD-50EP  GGSL
TXBWIC21020-30541-00067-20000012D0000096D0004800000JCD-100FGPGGSL
TXBWIC21020-30541-00102-00000012D0000061D0000000000JCD-02ER  GGSL
TXBWIC21020-30541-00141-90000012D0000089D0000000000JCD-03PT  GGSL
TXBWIC21020-30541-00801-20000004D0000184D0000000000JCD-08BKSMGGSL
TXBWIC21020-30541-01020-60000228D0000501D0033600024JCD-024SM GGSL
TXBWIC21020-30541-01030-50000054D0000436D0009000000JCD-100SMJGGSL
TXBWIC21020-30541-01034-30000005D0000118D0009800000JCD-030SM GGSL
TXBWIC21020-30541-08878-60000024D0000068D0000000000SMMS      GGSL
TXBWIC21020-30541-09982-90002072D0003899D0000000000JCD-TPP   GGSL
TXBWIC21020-30641-09801-20000400D0000791D0000000075SWPDQ     GGSL
TXBWIC21020-30641-32937-60000108D0000186D0003600144RPDQ      GGSL
TXBWIC21020-30641-33935-10000162D0000260D0003600198YPDQ      GGSL
TXBWIC21020-30641-35936-60000252D0000420D0009000180WPDQ      GGSL
TXBWIC21020-32247-00900-30000294D0000846D00624001321009001   GGSL
TXBWIC21020-32247-00910-20000156D0000472D00204000301009101   GGSL
TXBWIC21020-32247-00950-80000138D0000354D00054000121009501   GGSL
TXBWIC21020-32247-02515-70000040D0001216D00000000002515      GGSL
TXBWIC21020-32247-03115-80000040D0002196D000380000031115     GGSL
TXBWIC21020-32247-03313-80000604D0012693D00955000103313B     GGSL
TXBWIC21020-32247-03594-10000505D0002993D005030000070359430  GGSL
TXBWIC21020-32247-05514-70021743D0078575D039400132270551430  GGSL
TXBWIC21020-32247-10500-20000624D0004872D0066000426110500    GGSL
TXBWIC21020-32247-11307-60011224D0020496D035010286571130756  GGSL
TXBWIC21020-32247-14902-00000088D0001116D000680000814902     GGSL
TXBWIC21020-32247-14905-10002859D0018939D000560000014905     GGSL
TXBWIC21020-32247-15307-20000830D0001635D003450000071530751  GGSL
TXBWIC21020-32247-17183-00002196D0017735D000360000017183     GGSL
TXBWIC21020-32247-17185-40000648D0011923D000080000417185     GGSL
TXBWIC21020-32247-17187-80000385D0017050D000050000017187     GGSL
TXBWIC21020-32247-17290-50000774D0006900D000420000017290     GGSL
TXBWIC21020-32247-17293-60000858D0007345D000300000017293     GGSL
TXBWIC21020-32247-17295-00000692D0013958D000120000017295     GGSL
TXBWIC21020-32247-17323-00000990D0007906D001140000017323     GGSL
TXBWIC21020-32247-17325-40000668D0011245D000000000017325     GGSL
TXBWIC21020-32247-17327-80000279D0009858D000380000017327     GGSL
TXBWIC21020-32247-17424-40000016D0000372D000000000017519     GGSL
TXBWIC21020-32247-17488-60000008D0000186D000040000017590     GGSL
TXBWIC21020-32247-17508-10000132D0001447D000060000617508     GGSL
TXBWIC21020-32247-17511-10000012D0000145D000360000017511     GGSL
TXBWIC21020-32247-17528-90000004D0000093D000000000017540     GGSL
TXBWIC21020-32247-17582-10000768D0008932D000240000017582     GGSL
TXBWIC21020-32247-18213-30000252D0005208D000000000018213     GGSL
TXBWIC21020-32247-18221-80000016D0000328D000360000018221     GGSL
TXBWIC21020-32247-18222-50000264D0004962D000000000018222     GGSL
TXBWIC21020-32247-18225-60000397D0004103D001740000018225     GGSL
TXBWIC21020-32247-18260-70000102D0000985D000060000018260     GGSL
TXBWIC21020-32247-18266-90000174D0001910D000720004218266     GGSL
TXBWIC21020-32247-18272-00000210D0001013D000770000018272     GGSL
TXBWIC21020-32247-18296-60000018D0000195D000000000018296     GGSL
TXBWIC21020-32247-18320-80000145D0001530D000120000018320     GGSL
TXBWIC21020-32247-18338-30000072D0000676D000000000018338     GGSL
TXBWIC21020-32247-18341-30000020D0000405D000000000018341     GGSL
TXBWIC21020-32247-18345-10000012D0000139D000000000018345     GGSL
TXBWIC21020-32247-18346-80000033D0001101D000280000418330     GGSL
TXBWIC21020-32247-18348-20000036D0000444D000240003618348     GGSL
TXBWIC21020-32247-18350-50001740D0010478D015600001518350     GGSL
TXBWIC21020-32247-18353-60001863D0041670D002580002418335     GGSL
TXBWIC21020-32247-18354-30000042D0000492D000360000018354     GGSL
TXBWIC21020-32247-18362-80000294D0009317D000120000018362     GGSL
TXBWIC21020-32247-18365-90000036D0000929D000060000018365     GGSL
TXBWIC21020-32247-19002-20000036D0000290D000060000019002     GGSL
TXBWIC21020-32247-19594-20000292D0001850D003310001071959430  GGSL
TXBWIC21020-32247-20784-30007434D0021034D049560007872078430  GGSL
TXBWIC21020-32247-20814-70000100D0003826D000520000021814     GGSL
TXBWIC21020-32247-21030-00000015D0000248D002340000021030A    GGSL
TXBWIC21020-32247-21605-00000669D0011258D000510004021605     GGSL
TXBWIC21020-32247-21701-90000756D0005607D000120002421701     GGSL
TXBWIC21020-32247-21712-50000005D0000089D000000000021712     GGSL
TXBWIC21020-32247-22305-80000336D0004732D001060002522305     GGSL
TXBWIC21020-32247-23001-80000057D0015907D000000000023001     GGSL
TXBWIC21020-32247-23002-50000648D0007043D000360000023002     GGSL
TXBWIC21020-32247-23100-80000012D0000123D000240000023100     GGSL
TXBWIC21020-32247-23405-40002465D0029855D001720000523405B    GGSL
TXBWIC21020-32247-23415-30000050D0001847D000300000023415     GGSL
TXBWIC21020-32247-23615-70000160D0002758D000000000023616     GGSL
TXBWIC21020-32247-23622-50000010D0000139D000000000023622     GGSL
TXBWIC21020-32247-25006-10005275D0091860D007460002025006A    GGSL
TXBWIC21020-32247-25009-20000488D0023733D000990000025009     GGSL
TXBWIC21020-32247-26003-90000755D0017461D000960000026003D    GGSL
TXBWIC21020-32247-26007-70001029D0023437D001640002526007B    GGSL
TXBWIC21020-32247-26008-40000080D0003396D000000000026008A    GGSL
TXBWIC21020-32247-26784-70000636D0001800D013380007872678430  GGSL
TXBWIC21020-32247-27764-80000720D0002546D000000000072776430  GGSL
TXBWIC21020-32247-27791-40001080D0001976D000000000072779180  GGSL
TXBWIC21020-32247-30073-50000021D0000642D000000000030073     GGSL
TXBWIC21020-32247-30156-50001832D0026719D000480000030156     GGSL
TXBWIC21020-32247-30177-00000071D0020635D000000000030177A    GGSL
TXBWIC21020-32247-33002-20000012D0000148D00000000003300210   GGSL
TXBWIC21020-32247-33020-60000084D0003240D001130000033020     GGSL
TXBWIC21020-32247-33050-30000040D0001216D000000000033050     GGSL
TXBWIC21020-32247-33160-90000120D0006165D000400000033160     GGSL
TXBWIC21020-32247-34161- 0000131D0005626D000010000034161     GGSL
TXBWIC21020-32247-35594-00000065D0000401D000730000073559430  GGSL
TXBWIC21020-32247-35605-30000163D0003176D001300000044615A    GGSL
TXBWIC21020-32247-37594-80008314D0041196D015170078973759430  GGSL
TXBWIC21020-32247-37610-50000055D0005543D005770008337610A    GGSL
TXBWIC21020-32247-38605-00000020D0000286D000810000038605D    GGSL
TXBWIC21020-32247-38615-90000036C0000286C000210000038615     GGSL
TXBWIC21020-32247-39181-80000110D0002294D000000000039181     GGSL
TXBWIC21020-32247-39594-60010103D0070912D029500000673959430  GGSL
TXBWIC21020-32247-39605-90000437D0006613D000000000039605     GGSL
TXBWIC21020-32247-39615-80000620D0024879D000380000039615     GGSL
TXBWIC21020-32247-42784-50002964D0008229D009420004874278430  GGSL
TXBWIC21020-32247-43750-90000004D0000062D00004000004375010   GGSL
TXBWIC21020-32247-43850-60001792D0038407D00084000004385010   GGSL
TXBWIC21020-32247-43854-40000020D0000181D00048000004385404   GGSL
TXBWIC21020-32247-43860-50000104D0001769D00000000084386004   GGSL
TXBWIC21020-32247-45651-70000790D0006237D001390000045651300  GGSL
TXBWIC21020-32247-47783-30000192D0000592D005520001874778300  GGSL
TXBWIC21020-32247-49013-90000028D0000579D000000000049013     GGSL
TXBWIC21020-32247-49019-10000047D0000576D001220000349019     GGSL
TXBWIC21020-32247-49024-50000248D0003330D000750000049024     GGSL
TXBWIC21020-32247-49785-50002286D0006605D013560007874978500  GGSL
TXBWIC21020-32247-50084-50000012D0000186D00036000005008410   GGSL
TXBWIC21020-32247-50086-90000006D0000093D00036000005008610   GGSL
TXBWIC21020-32247-50087-60000210D0003262D00024000005008710   GGSL
TXBWIC21020-32247-50088-30000210D0003259D00060000005008810   GGSL
TXBWIC21020-32247-50089-00000508D0010911D00056000005008910   GGSL
TXBWIC21020-32247-50154-50000053D0000321D000970006245015430  GGSL
TXBWIC21020-32247-50250-40000050D0001010D000380000050250     GGSL
TXBWIC21020-32247-50524-60033469D0200560D075110227475052430  GGSL
TXBWIC21020-32247-51064-60000012D0000135D000000000051064     GGSL
TXBWIC21020-32247-51105-60002562D0028280D004120001651105     GGSL
TXBWIC21020-32247-51115-50003090D0095790D000200008051115     GGSL
TXBWIC21020-32247-52524-40000622D0005655D000960024085252430  GGSL
TXBWIC21020-32247-52784-20004068D0011421D014220001885278430  GGSL
TXBWIC21020-32247-53105-40001289D0010453D003660000053105     GGSL
TXBWIC21020-32247-53115-30002420D0053050D001420000253115     GGSL
TXBWIC21020-32247-55513-50005730D0041335D028440009575551300  GGSL
TXBWIC21020-32247-55523-40007975D0089203D037200038075552300  GGSL
TXBWIC21020-32247-55783-20001102D0005775D028150013275578300  GGSL
TXBWIC21020-32247-55863-10000212D0001278D003790000875586300  GGSL
TXBWIC21020-32247-56063-40000152D0000656D001680000045606300  GGSL
TXBWIC21020-32247-56513-40035541D0227089D104510133375651300  GGSL
TXBWIC21020-32247-56523-30057255D0569166D108990255475652300  GGSL
TXBWIC21020-32247-56783-10000071D0027850D000050000075678309  GGSL
TXBWIC21020-32247-56788-60007074D0023766D091020036075678300  GGSL
TXBWIC21020-32247-56863-00002451D0013064D024610001875686300  GGSL
TXBWIC21020-32247-57905-60000100D0000991D000000000057905     GGSL
TXBWIC21020-32247-60594-60001550D0009255D005850030076059430  GGSL
TXBWIC21020-32247-71060-20002205D0023709D006730016271060     GGSL
TXBWIC21020-32247-71131-90000355D0006469D004430000871131     GGSL
TXBWIC21020-32247-74150-70003654D0015717D0564600666274150    GGSL
TXBWIC21020-32247-74250-40004752D0030343D0317900984274250    GGSL
TXBWIC21020-32247-74395-20000300D0002124D000280000043959430  GGSL
TXBWIC21020-32247-74850-60001576D0022418D0190600220274850    GGSL
TXBWIC21020-32247-75902-10000291D0019771D000550000875902     GGSL
TXBWIC21020-32247-76121-50001194D0035263D007260002776121     GGSL
TXBWIC21020-32247-76232-80000462D0023731D001560000976232     GGSL
TXBWIC21020-32247-76565-70000063D0002972D000030000376565     GGSL
TXBWIC21020-32247-77160-30003990D0015083D0553200636277160    GGSL
TXBWIC21020-32247-77260-00005586D0039348D0564001338277260    GGSL
TXBWIC21020-32247-77960-90001396D0022234D0403600180277960    GGSL
TXBWIC21020-32247-84526-70000240D0000773D000000000088452600  GGSL
TXBWIC21020-32247-85526-60000240D0000773D001200000088552600  GGSL
TXBWIC21020-32247-86526-50000240D0000773D002400000088652600  GGSL
TXBWIC21020-32247-95517-10000840D0002982D003670000079551750  GGSL
TXBWIC21020-32247-99605-10000681D0011873D003190000399605     GGSL
TXBWIC21020-32903-00169-30000336D0000362D0055200048SLI06000E3GGSL
TXBWIC21020-32903-00188-40000006D0000082D0000000006TEA17000A3GGSL
TXBWIC21020-32903-00193-80000012D0000160D0000000000TEA17000G2GGSL
TXBWIC21020-32903-00203-40000004D0000235D0000400000TEA30000G2GGSL
TXBWIC21020-32903-00283-60000012D0000062D0000000000GAB14000E2GGSL
TXBWIC21020-32903-00309-30000252D0000483D0094800060SLI10000E3GGSL
TXBWIC21020-32903-00313-00000012D0000095D0000000000GAB18000E2GGSL
TXBWIC21020-32903-00341-30000096D0000676D0018000012SLI24000E3GGSL
TXBWIC21020-32903-00359-80000144D0000199D0038400096SLI08000E3GGSL
TXBWIC21020-32903-12006-60000192D0000299D0110400072LIA06000E3GGSL
TXBWIC21020-32903-12008-00000168D0000404D0139200024LIA08000E3GGSL
TXBWIC21020-32903-12010-30000120D0000443D0141600096LIA10000E3GGSL
TXBWIC21020-32903-12012-70000120D0000679D0082800012LIA12000E3GGSL
TXBWIC21020-32903-12014-10000144D0001069D0013200024LIA14000E3GGSL
TXBWIC21020-32903-12017-20000108D0001196D0055200024LIA16000E3GGSL
TXBWIC21020-32903-12020-20000114D0001697D0023400036LIA20000E3GGSL
TXBWIC21020-32903-12024-00000012D0000253D0009600006LIA24000E3GGSL
TXBWIC21020-32903-12318-00000012D0000045D0017400000SVN18000E3GGSL
TXBWIC21020-32903-12324-10000036D0000141D0011400006SVN24000E3GGSL
TXBWIC21020-32903-12712-60000024D0000088D0001200000GAB12000E3GGSL
TXBWIC21020-32903-12714-00000096D0000499D0019200096GAB14000E3GGSL
TXBWIC21020-32903-12718-80000030D0000236D0011400048GAB18000E3GGSL
TXBWIC21020-32903-12722-50000078D0000839D0004800012GAB22000E3GGSL
TXBWIC21020-32903-12818-50000060D0000345D0019200060VNP18000E3GGSL
TXBWIC21020-32903-12824-60000060D0000403D0016200054VNP24000E3GGSL
TXBWIC21020-32903-41909-20000012D0000115D0000000000LIA16000A3GGSL
TXBWIC21020-32903-50763-80000216D0000683D0063600036SLI12000E3GGSL
TXBWIC21020-32903-50766-90000004D0000117D0000400000TEA24000G2GGSL
TXBWIC21020-32903-50802-40000168D0000582D0059400036SLI14000E3GGSL
TXBWIC21020-32903-55269-00000004D0000235D0000000000TEA30000E3GGSL
TXBWIC21020-32903-61152-60000012D0000160D0000000000TEA17000E3GGSL
TXBWIC21020-32903-66002-90000005D0000061D0000000005ROP28000E3GGSL
TXBWIC21020-32903-72518-60000008D0000051D0021600048RZ.WC2G0B9GGSL
TXBWIC21020-32903-75049-20000030D0000170D0016800030SLI20000E3GGSL
TXBWIC21020-32903-75080-50000108D0000418D0048000024SLI17000E3GGSL
TXBWIC21020-32903-91319-40000018D0000242D0000000000TEA17000G1GGSL
TXBWIC21020-32903-91484-90000015D0000158D0000000000SPX24DB0E3GGSL
TXBWIC21020-32903-91485-60000025D0000263D0000000000SPX24DB0A3GGSL
TXBWIC21020-32903-91570-90000024D0000129D0000000000PZA09000Y3GGSL
TXBWIC21020-32903-91580-80000012D0000153D0000000000PZA16000Y3GGSL
TXBWIC21020-32903-91585-30000006D0000133D0000000000PZA20000Y3GGSL
TXBWIC21020-33607-00001-50000044D0001196D0009200000GBA-1     GGSL
TXBWIC21020-33745-97185-40000118D0002957D002610000097185     GGSL
TXBWIC21020-34411-74251-80000084D0001050D0000000000874251-100GGSL
TXBWIC21020-34411-74501-40000048D0001008D0011400000874501-100GGSL
TXBWIC21020-34411-74751-30000040D0001190D0000000000874751-100GGSL
TXBWIC21020-35307-00781-00000024D0000187D0000000000781       GGSL
TXBWIC21020-35307-00782-70000024D0000187D0000000000782       GGSL
TXBWIC21020-35307-00818-30000048D0000075D0000000000818       GGSL
TXBWIC21020-35307-00820-60000024D0000037D0009600516820       GGSL
TXBWIC21020-35307-00826-80000024D0000039D0013200396826       GGSL
TXBWIC21020-35307-00828-20000036D0000059D0004800000828       GGSL
TXBWIC21020-35307-00840-40000012D0000026D0000000000840       GGSL
TXBWIC21020-35307-00846-30000060D0000195D0002400024846       GGSL
TXBWIC21020-35307-00861-90000024D0000050D0008400300861       GGSL
TXBWIC21020-35307-00874-90000084D0000112D0070800072874       GGSL
TXBWIC21020-35307-01601-00000036D0000448D00144000901601      GGSL
TXBWIC21020-35307-01618-80000012D0000074D00024000121618      GGSL
TXBWIC21020-35307-01635-50000016D0000251D00012000001635      GGSL
TXBWIC21020-35307-01638-60000012D0000051D00000000001638      GGSL
TXBWIC21020-35307-01810-60000038D0000180D00111001191810      GGSL
TXBWIC21020-35307-01815-10000063D0000391D00117001211815      GGSL
TXBWIC21020-35307-01820-50000072D0000809D00006000181820      GGSL
TXBWIC21020-35307-01825-00000060D0000497D00096008401825      GGSL
TXBWIC21020-35307-01835-90000001D0000080D00000000001835      GGSL
TXBWIC21020-35307-01840-30000048D0000746D00102000361840      GGSL
TXBWIC21020-36348-00610-70000180D0000872D00318000240610      GGSL
TXBWIC21020-36348-00645-90000071D0000923D0021600006645       GGSL
TXBWIC21020-36348-00745-60000075D0001496D00086000060745      GGSL
TXBWIC21020-36348-01078-40000045D0001298D00019000061078      GGSL
TXBWIC21020-36348-01079-10000113D0004865D00144000061079      GGSL
TXBWIC21020-36434-00000-00000258D0005111D006900023410-12420  GGSL
TXBWIC21020-36434-07020-00000030D0000465D00000000001017020   GGSL
TXBWIC21020-36434-10000-00000036D0000506D00084001801013620   GGSL
TXBWIC21020-36434-10012-20000156D0002014D000720001210-10012  GGSL
TXBWIC21020-36434-11000-80000182D0001819D010110006260-11000  GGSL
TXBWIC21020-36434-12012-00000012D0000117D000000000010-12012  GGSL
TXBWIC21020-36434-12340-40000036D0000072D00006000006012340   GGSL
TXBWIC21020-36434-12342-80000069D0000440D002250005460-12342  GGSL
TXBWIC21020-36434-12343-50000014D0000131D003570000260-12343  GGSL
TXBWIC21020-36434-12345-90000648D0005838D002400098410-12345  GGSL
TXBWIC21020-36434-12346-60000318D0001433D010050012260-12346  GGSL
TXBWIC21020-36434-12349-70000010D0000043D001630000360-12349  GGSL
TXBWIC21020-36434-12351-00000006D0000025D00000000006012351   GGSL
TXBWIC21020-36434-12353-40000348D0005064D015800000460-12353  GGSL
TXBWIC21020-36434-12354-10000031D0000193D001950000410-12354  GGSL
TXBWIC21020-36434-12355-80000096D0000692D005950003410-12355  GGSL
TXBWIC21020-36434-12356-50000146D0001139D006780002310-12356  GGSL
TXBWIC21020-36434-12357-20000052D0000430D002930002010-12357  GGSL
TXBWIC21020-36434-12380-00000006D0000069D000000000060-12380  GGSL
TXBWIC21020-36434-12430-40000030D0000523D00000000006012430   GGSL
TXBWIC21020-36434-12440-30000048D0000450D00000000006012440   GGSL
TXBWIC21020-36434-12450-20000042D0000602D00000000006012450   GGSL
TXBWIC21020-36434-12700-60000048D0000344D000360081610-12700  GGSL
TXBWIC21020-36434-12701-30000006D0000044D000000000060-12701  GGSL
TXBWIC21020-36434-12702-00000006D0000044D000000000060-12702  GGSL
TXBWIC21020-36434-12710-50000036D0000245D001080006010-12710  GGSL
TXBWIC21020-36434-12720-40000108D0000648D001200001210-12720  GGSL
TXBWIC21020-36434-12723-50000012D0000070D000000000060-12723  GGSL
TXBWIC21020-36434-12730-00000024D0000228D000000000010-12730  GGSL
TXBWIC21020-36434-13001-00000012D0000057D000000000010-13001  GGSL
TXBWIC21020-36434-13600-50000072D0001311D003600069610-13600  GGSL
TXBWIC21020-36434-13610-20000036D0000543D002400069610-13610  GGSL
TXBWIC21020-36434-14500-70000024D0000221D000000000010-14500  GGSL
TXBWIC21020-36434-14800-80000252D0004076D007200003610-14800  GGSL
TXBWIC21020-36434-14860-20000228D0002992D002640003610-14860  GGSL
TXBWIC21020-36434-15050-90000096D0001448D001980003010-15050  GGSL
TXBWIC21020-36434-15064-60000006D0000090D00000000001015064   GGSL
TXBWIC21020-36434-15071-40000006D0000080D00000000001015071   GGSL
TXBWIC21020-36434-15073-80000006D0000080D00000000001015073   GGSL
TXBWIC21020-36434-15076-90000006D0000080D00000000001015076   GGSL
TXBWIC21020-36434-15080-30000030D0000581D000480000610-15080  GGSL
TXBWIC21020-36434-17000-20000300D0011632D00000000721017000   GGSL
TXBWIC21020-36434-17010-10000054D0001170D000000000010-17010  GGSL
TXBWIC21020-36434-17051-40000036D0000432D000000000010 17051  GGSL
TXBWIC21020-36434-17061-30000060D0000360D00000000001017061   GGSL
TXBWIC21020-36434-22310-40000012D0000062D00000000006022310   GGSL
TXBWIC21020-36434-22316-60000006D0000042D00000000006022316   GGSL
TXBWIC21020-36434-22317-30000006D0000042D00000000006022317   GGSL
TXBWIC21020-36434-22318-00000147D0000632D009640010360-22318  GGSL
TXBWIC21020-36434-22341-80000084D0000858D001200000010-22341  GGSL
TXBWIC21020-36434-22345-60000024D0000252D000000000010-22345  GGSL
TXBWIC21020-36434-22358-60000006D0000078D000000000010-22358  GGSL
TXBWIC21020-36434-22373-90000006D0000087D00018000006022373   GGSL
TXBWIC21020-36434-22626-60000076D0000904D003860003960-22626  GGSL
TXBWIC21020-36434-22731-70000076D0000765D003390001860-22731  GGSL
TXBWIC21020-36434-22732-40000036D0000448D007790000060-22732  GGSL
TXBWIC21020-36434-28010-70000624D0004391D009000037210-28010  GGSL
TXBWIC21020-36434-28020-60000420D0002973D001440004810-28020  GGSL
TXBWIC21020-36434-32700-00000516D0003893D008180022810-32700  GGSL
TXBWIC21020-36434-34500-10000168D0001565D006720050410-34500  GGSL
TXBWIC21020-36434-60123-00000022D0027940D000000000260123     GGSL
TXBWIC21020-36434-60130-80000001D0001569D000000000060130     GGSL
TXBWIC21020-36434-65095-50000008D0008512D000000000265095     GGSL
TXBWIC21020-36434-82342-70000027D0000321D003020000260-82342  GGSL
TXBWIC21020-36865-12250-20008820D0016492D044400192071140180  GGSL
TXBWIC21020-36865-12292-20002760D0007075D000000048086752180  GGSL
TXBWIC21020-36865-14511-20001320D0002705D021600048071451180  GGSL
TXBWIC21020-36865-24511-90003600D0010107D016800030072451180  GGSL
TXBWIC21020-36865-45220-30000060D0000150D000000000088452205  GGSL
TXBWIC21020-36865-52965-30000120D0000269D000000000087852965  GGSL
TXBWIC21020-36865-65220-70002400D0006000D000000000088652205  GGSL
TXBWIC21020-37320-89407- 0000024D0000187D00000000008940      GGSL
TXBWIC21020-37321-00022-80001253D0007197D0354503817022       GGSL
TXBWIC21020-37321-00023-50000032D0000523D0000000080023       GGSL
TXBWIC21020-37321-00024-20000069D0000762D0081001809024       GGSL
TXBWIC21020-37321-00036-50000012D0000067D0002400000036       GGSL
TXBWIC21020-37321-00050-10000120D0000100D0000000000050       GGSL
TXBWIC21020-37321-00051-80000018D0000189D0000000042051       GGSL
TXBWIC21020-37321-00061-70000012D0000078D0000000288061       GGSL
TXBWIC21020-37321-00065-50000024D0000108D0000000000065       GGSL
TXBWIC21020-37321-00066-20000012D0000122D0000000000066       GGSL
TXBWIC21020-37321-00068-60000207D0000938D0054900732068       GGSL
TXBWIC21020-37321-00069-30000294D0003272D0183600444069       GGSL
TXBWIC21020-37321-00070-90000204D0002640D0075300459070       GGSL
TXBWIC21020-37321-00081-50000048D0000246D0000000288081       GGSL
TXBWIC21020-37321-00082-20000004D0000061D0000000000082       GGSL
TXBWIC21020-37321-00097-60000024D0000110D0000000000097       GGSL
TXBWIC21020-37321-00098-30000030D0000131D0000000015098       GGSL
TXBWIC21020-37321-00102-70000024D0000258D0001200024102       GGSL
TXBWIC21020-37321-00105-80000084D0000217D0028800624105       GGSL
TXBWIC21020-37321-00106-50000180D0000475D0019200492106       GGSL
TXBWIC21020-37321-00107-20000048D0000120D0032400780107       GGSL
TXBWIC21020-37321-00108-90000168D0000426D0039601068108       GGSL
TXBWIC21020-37321-00110-20000032D0000090D0000000000110       GGSL
TXBWIC21020-37321-00114-00000016D0000056D0000000000114       GGSL
TXBWIC21020-37321-00116-40000032D0000099D0002400000116       GGSL
TXBWIC21020-37321-00120-10000060D0000284D0000000000120       GGSL
TXBWIC21020-37321-00121-80000040D0000393D0000800384121       GGSL
TXBWIC21020-37321-00123-20000024D0000082D0008700024123       GGSL
TXBWIC21020-37321-00127-00000060D0000473D0037500336127       GGSL
TXBWIC21020-37321-00141-60000024D0000102D0000000156141       GGSL
TXBWIC21020-37321-00148-50000180D0001580D0000000564148       GGSL
TXBWIC21020-37321-00150-80000459D0006712D0081302952150       GGSL
TXBWIC21020-37321-00166-90000258D0001331D0022500036166       GGSL
TXBWIC21020-37321-00171-30000024D0000202D0016800000171       GGSL
TXBWIC21020-37321-00196-60000012D0000061D0004800012196       GGSL
TXBWIC21020-37321-00197-30000048D0000244D0000000000197       GGSL
TXBWIC21020-37321-00201-70000012D0000072D0003600000201       GGSL
TXBWIC21020-37321-00202-40000943D0009049D0400200156202       GGSL
TXBWIC21020-37321-00203-10000468D0006219D0147500096203       GGSL
TXBWIC21020-37321-00210-90000462D0002424D0123000042210       GGSL
TXBWIC21020-37321-00211-60000330D0002449D0289800000211       GGSL
TXBWIC21020-37321-00212-30000016D0000266D0000000000212       GGSL
TXBWIC21020-37321-00213-00000252D0002327D0071700876213       GGSL
TXBWIC21020-37321-00214-70000204D0001040D0059400888214       GGSL
TXBWIC21020-37321-00216-10000084D0001186D0009600348216       GGSL
TXBWIC21020-37321-00217-80000096D0000864D0009600000217       GGSL
TXBWIC21020-37321-00218-50000012D0000156D0000000000218       GGSL
TXBWIC21020-37321-00221-50000072D0000321D0000000012221       GGSL
TXBWIC21020-37321-00225-30000060D0000296D0024000000225       GGSL
TXBWIC21020-37321-00237-60000036D0000429D0000000024237       GGSL
TXBWIC21020-37321-00238-30000168D0001310D0038100372238       GGSL
TXBWIC21020-37321-00239-00000016D0000333D0003600000239       GGSL
TXBWIC21020-37321-00240-60000024D0000358D0003600012240       GGSL
TXBWIC21020-37321-00250-50002436D0008878D0189302760250       GGSL
TXBWIC21020-37321-00252-90000351D0003788D0168000024252       GGSL
TXBWIC21020-37321-00253-60000270D0004501D0047700060253       GGSL
TXBWIC21020-37321-00255-00000231D0004163D0218100732255       GGSL
TXBWIC21020-37321-00257-40000162D0000553D0028500432257       GGSL
TXBWIC21020-37321-00258-10000024D0000134D0003600000258       GGSL
TXBWIC21020-37321-00274-10000552D0003102D0172200840274       GGSL
TXBWIC21020-37321-00276-50000036D0000438D0000000000276       GGSL
TXBWIC21020-37321-00277-20000006D0000187D0000000000277       GGSL
TXBWIC21020-37321-00285-70000012D0000060D0000000000285       GGSL
TXBWIC21020-37321-00301-40000036D0000267D0000000012301       GGSL
TXBWIC21020-37321-00307-60000102D0000420D0033900816307       GGSL
TXBWIC21020-37321-00309-00000024D0000362D0012600330309       GGSL
TXBWIC21020-37321-00312-00000084D0001447D0000000012312       GGSL
TXBWIC21020-37321-00321-20000004D0000063D0000000000322       GGSL
TXBWIC21020-37321-00323-60000006D0000050D0000000000323       GGSL
TXBWIC21020-37321-00330-40000216D0001804D0095700012330       GGSL
TXBWIC21020-37321-00331-10000210D0002835D0105600024331       GGSL
TXBWIC21020-37321-00332-80000012D0000553D0001200000332       GGSL
TXBWIC21020-37321-00370-00000036D0000140D0000000000370       GGSL
TXBWIC21020-37321-00372-40000008D0000068D0000000000372       GGSL
TXBWIC21020-37321-00376-20000036D0000614D0014400012376       GGSL
TXBWIC21020-37321-00377-90000036D0000883D0015600000377       GGSL
TXBWIC21020-37321-00404-20000024D0000166D0015600000404       GGSL
TXBWIC21020-37321-00411-00000315D0000909D0018900000411       GGSL
TXBWIC21020-37321-00412-70000564D0002612D0011700012412       GGSL
TXBWIC21020-37321-00413-40000152D0001578D0000000008413       GGSL
TXBWIC21020-37321-00420-20000035D0001789D0029200120420       GGSL
TXBWIC21020-37321-00426-40000405D0003712D0078900768426       GGSL
TXBWIC21020-37321-00428-80000168D0000575D0045800876428       GGSL
TXBWIC21020-37321-00429-50000030D0000522D0012000096429       GGSL
TXBWIC21020-37321-00442-40000135D0000784D0052500012442       GGSL
TXBWIC21020-37321-00443-10000207D0002056D0059100030443       GGSL
TXBWIC21020-37321-00506-30000084D0000342D0025500204506       GGSL
TXBWIC21020-37321-00530-80000020D0000175D0000800000530       GGSL
TXBWIC21020-37321-00543-80000165D0000482D0098700012543       GGSL
TXBWIC21020-37321-00544-50000084D0000446D0029100012544       GGSL
TXBWIC21020-37321-00549-00000048D0000417D0004800000549       GGSL
TXBWIC21020-37321-00552-00000030D0000367D0024600000551       GGSL
TXBWIC21020-37321-00553-70000030D0000809D0039000000553       GGSL
TXBWIC21020-37321-00560-50000192D0000752D0145200000560       GGSL
TXBWIC21020-37321-00564-30000240D0002213D0025200492564       GGSL
TXBWIC21020-37321-00568-10000012D0000247D0000000000568       GGSL
TXBWIC21020-37321-00571-10000261D0001944D0020400024571       GGSL
TXBWIC21020-37321-00573-50000132D0000541D0092400000573       GGSL
TXBWIC21020-37321-00577-30000148D0001180D0039200000574       GGSL
TXBWIC21020-37321-00578-00000032D0000320D0002000000578       GGSL
TXBWIC21020-37321-00603-90000020D0000193D000130000060315     GGSL
TXBWIC21020-37321-00609-10000108D0001013D0018000000609       GGSL
TXBWIC21020-37321-00611-40000091D0011746D0023600038611       GGSL
TXBWIC21020-37321-00629-90000048D0000136D0112800012629       GGSL
TXBWIC21020-37321-00631-20009900D0023870D2347208256631       GGSL
TXBWIC21020-37321-00652-70000036D0000165D0026400012652       GGSL
TXBWIC21020-37321-00655-80000066D0000375D00132009426556      GGSL
TXBWIC21020-37321-00680-00000411D0002756D0074700384680       GGSL
TXBWIC21020-37321-00685-50001084D0008641D0120000120685       GGSL
TXBWIC21020-37321-00687-90000012D0000133D0007200000687       GGSL
TXBWIC21020-37321-00690-90000129D0001296D0069300036690       GGSL
TXBWIC21020-37321-00692-30000305D0003341D0258400343692150    GGSL
TXBWIC21020-37321-00698-50000012D0000060D0000000000698       GGSL
TXBWIC21020-37321-00705-00000012D0000058D0000000000705       GGSL
TXBWIC21020-37321-00728-90000048D0000568D0015600000728       GGSL
TXBWIC21020-37321-00731-90000008D0000067D0000000000731       GGSL
TXBWIC21020-37321-00752-40000012D0000077D0018000000752       GGSL
TXBWIC21020-37321-00753-10000024D0000220D0000000000753       GGSL
TXBWIC21020-37321-00758-60000144D0001109D000000000075824     GGSL
TXBWIC21020-37321-00771-50000177D0000813D0026400012771       GGSL
TXBWIC21020-37321-00772-20000012D0000094D0000000000772       GGSL
TXBWIC21020-37321-00775-30000072D0000373D0008100024775       GGSL
TXBWIC21020-37321-00777-70000054D0000515D0027900000777       GGSL
TXBWIC21020-37321-00779-10000033D0000255D0012600468779       GGSL
TXBWIC21020-37321-00784-50000150D0000380D0072600012784       GGSL
TXBWIC21020-37321-00786-90001722D0004898D0223200216786       GGSL
TXBWIC21020-37321-00789-00000293D0001936D0036801987791       GGSL
TXBWIC21020-37321-00802-60000012D0000060D0000000000802       GGSL
TXBWIC21020-37321-00803-30000072D0000646D0025200000803       GGSL
TXBWIC21020-37321-00806-40000036D0000249D0020400024806       GGSL
TXBWIC21020-37321-00811-80000717D0007898D0324600810811       GGSL
TXBWIC21020-37321-00813-20000171D0002332D0081600762813       GGSL
TXBWIC21020-37321-00814-90000126D0002742D0013200006814       GGSL
TXBWIC21020-37321-00857-60000120D0000962D0206400048857       GGSL
TXBWIC21020-37321-00858-30000072D0000934D0010800012858       GGSL
TXBWIC21020-37321-00862-00000099D0001223D0057900012862       GGSL
TXBWIC21020-37321-00863-70000012D0000145D0002700003863       GGSL
TXBWIC21020-37321-00866-80000066D0000712D0000000000865       GGSL
TXBWIC21020-37321-00868-20000018D0000208D0003600000868       GGSL
TXBWIC21020-37321-00870-50000132D0000820D0043200012870       GGSL
TXBWIC21020-37321-00875-00000155D0003974D0395100013875       GGSL
TXBWIC21020-37321-00880-40000204D0002315D0129300480880       GGSL
TXBWIC21020-37321-00883-50000096D0000450D0004200420883       GGSL
TXBWIC21020-37321-00892-70000024D0000210D0000001512892       GGSL
TXBWIC21020-37321-00894-10000024D0000176D0000000000894       GGSL
TXBWIC21020-37321-00897-20000024D0000140D0016800000897       GGSL
TXBWIC21020-37321-00904-70000012D0000092D0000000000904       GGSL
TXBWIC21020-37321-00905-40000012D0000149D0000000000905       GGSL
TXBWIC21020-37321-00908-50000024D0000214D0018300000908       GGSL
TXBWIC21020-37321-00909-20000012D0000200D0000000000909       GGSL
TXBWIC21020-37321-00917-70000006D0000063D0000000000917       GGSL
TXBWIC21020-37321-00925-20000230D0000619D0117600996925       GGSL
TXBWIC21020-37321-00939-90000084D0000840D0032400732939       GGSL
TXBWIC21020-37321-00941-20001390D0013780D0293200504941       GGSL
TXBWIC21020-37321-00946-70000012D0000097D0000000000946       GGSL
TXBWIC21020-37321-00947-40000078D0000598D0012600000947       GGSL
TXBWIC21020-37321-00951-10000303D0001212D0034500897951       GGSL
TXBWIC21020-37321-00952-80000078D0000374D0007500000952       GGSL
TXBWIC21020-37321-00963-40000048D0000399D0000000000963       GGSL
TXBWIC21020-37321-00978-80000036D0000175D0000000000978       GGSL
TXBWIC21020-37321-00979-50000006D0000052D0000000000979       GGSL
TXBWIC21020-37321-00987-00000165D0001437D0114300042987       GGSL
TXBWIC21020-37321-00992-40000012D0000099D0000000000992       GGSL
TXBWIC21020-37321-01971-80000048D0000192D00048000001971      GGSL
TXBWIC21020-37321-01972-50000024D0000090D00000000241972      GGSL
TXBWIC21020-37321-02360-90000096D0000635D00336000122360      GGSL
TXBWIC21020-37321-02361-60000640D0007629D01840005792361      GGSL
TXBWIC21020-37321-02362-30000028D0000499D00004000082362      GGSL
TXBWIC21020-37321-02761-40000066D0001194D00018000002761      GGSL
TXBWIC21020-37321-03082-90000006D0000100D00000000003082      GGSL
TXBWIC21020-37321-05131-20000012D0000153D00024000005131      GGSL
TXBWIC21020-37321-05612-60000084D0000738D00381000005612      GGSL
TXBWIC21020-37321-05710-90000084D0000481D00153000005710      GGSL
TXBWIC21020-37321-05712-30000090D0000817D00090000005712      GGSL
TXBWIC21020-37321-05714-70000040D0001113D00128000085714      GGSL
TXBWIC21020-37321-07458-80000012D0000190D00096000247458      GGSL
TXBWIC21020-37321-07460-10000012D0000071D00000000007460      GGSL
TXBWIC21020-37321-07461-80000048D0000464D00000000007461      GGSL
TXBWIC21020-37321-07464-90000006D0000077D00012000007464      GGSL
TXBWIC21020-37321-07490-80000018D0000102D00078003127490      GGSL
TXBWIC21020-37321-07492-20000016D0000270D00104002487492      GGSL
TXBWIC21020-37321-07497-70000012D0000047D00036000007497      GGSL
TXBWIC21020-37321-08636-90000036D0000409D00012000008636      GGSL
TXBWIC21020-37321-08752-60000012D0000133D00243000008752      GGSL
TXBWIC21020-37321-09534-70000144D0001451D00189002409534      GGSL
TXBWIC21020-37321-20472-20000001D0000698D000000000020473     GGSL
TXBWIC21020-37321-20479-10000006D0000031D0000000006321       GGSL
TXBWIC21020-37321-45100-60000024D0000104D000000000045100     GGSL
TXBWIC21020-37321-46125-80000030D0000055D000000000046125     GGSL
TXBWIC21020-37321-46126-50002600D0000404D201000020046126     GGSL
TXBWIC21020-37321-46172-20000060D0000235D000000000046172     GGSL
TXBWIC21020-37321-46173-90000003D0000051D000060000046173     GGSL
TXBWIC21020-37321-46174-60000004D0000040D000000000046174     GGSL
TXBWIC21020-37321-46175-30000003D0000065D000000000346175     GGSL
TXBWIC21020-37321-46177-70000012D0000101D000000000046177     GGSL
TXBWIC21020-37321-46178-40000012D0000152D000120000046178     GGSL
TXBWIC21020-37321-46180-70000012D0000070D000120000046180     GGSL
TXBWIC21020-37321-46181-40000004D0000071D000000000046181     GGSL
TXBWIC21020-37321-46183-80000135D0000982D0058800000691       GGSL
TXBWIC21020-37321-46190-60000096D0000270D003360000046190     GGSL
TXBWIC21020-37321-46191-30000024D0000117D002640000046191     GGSL
TXBWIC21020-37321-46401-30000012D0000067D000000000046401     GGSL
TXBWIC21020-37321-46406-80000104D0000739D007680000846406     GGSL
TXBWIC21020-37321-46431-00000004D0000166D000000000046431     GGSL
TXBWIC21020-37321-46540-90000036D0000287D001120000446540     GGSL
TXBWIC21020-37321-47062-50000048D0000034D000000000047062     GGSL
TXBWIC21020-37321-60114-90000010D0000232D000000000060215     GGSL
TXBWIC21020-37321-60221-70000010D0000108D000000015060222     GGSL
TXBWIC21020-37321-60251-40000020D0000188D000000000060252     GGSL
TXBWIC21020-37321-60254-50000010D0000210D000000000060255     GGSL
TXBWIC21020-37321-60281-10000020D0000204D000000000060282     GGSL
TXBWIC21020-37321-60360-30000056D0000582D000310014060362     GGSL
TXBWIC21020-37321-60365-80000006D0000164D000560000060365     GGSL
TXBWIC21020-37321-60400-60000255D0003036D000510252160402     GGSL
TXBWIC21020-37321-60407-50000024D0000192D000000018060407     GGSL
TXBWIC21020-37321-60414-30000130D0004063D000000000060414     GGSL
TXBWIC21020-37321-60420-40000001D0000013D000250000560420     GGSL
TXBWIC21020-37321-60424-20000051D0001647D000060000060424     GGSL
TXBWIC21020-37321-60440-20000015D0000154D000080000060442     GGSL
TXBWIC21020-37321-60454-90000080D0001149D000000000060454     GGSL
TXBWIC21020-37321-60476-10001057D0012150D015721074560478     GGSL
TXBWIC21020-37321-60514-00000382D0003790D022790141960516     GGSL
TXBWIC21020-37321-60613-00000008D0000068D000600000060613     GGSL
TXBWIC21020-37321-60728-10000080D0001028D000250000060730     GGSL
TXBWIC21020-38313-00005-90000011D0000224D0006200000GS 6750D  GGSL
TXBWIC21020-38313-00007-30000006D0000235D0000000000HS 6920   GGSL
TXBWIC21020-38313-00008-00000157D0002564D0037200031BP 3130   GGSL
TXBWIC21020-38313-00060-80000411D0006943D0073600333BP 3160   GGSL
TXBWIC21020-38313-00080-60000184D0003826D0075300238BP 3180D  GGSL
TXBWIC21020-38313-00081-30000042D0000366D0001200000AC 7220   GGSL
TXBWIC21020-38313-00217-60000036D0000564D0003000012FS 4350   GGSL
TXBWIC21020-38313-00524-50000006D0000124D0000000000SL 3310   GGSL
TXBWIC21020-38313-00555-90000006D0000072D0000000000GS 3750D  GGSL
TXBWIC21020-38313-00830-70000047D0001301D0008100012BP 6250   GGSL
TXBWIC21020-38313-01010-20000714D0003466D0168600108CT 3010I  GGSL
TXBWIC21020-38313-01020-10000414D0001988D0008400024CT 3020I  GGSL
TXBWIC21020-38313-01030-00000306D0001462D0038400060CT 3030I  GGSL
TXBWIC21020-38313-03050-60000024D0000165D0008400198GT 3050   GGSL
TXBWIC21020-38313-03060-50000018D0000135D0010800186GT 3060   GGSL
TXBWIC21020-38313-03080-30000006D0000030D0011400198GT 3080   GGSL
TXBWIC21020-38313-03214-20000036D0000392D0010200000BP 3214D  GGSL
TXBWIC21020-38313-03244-90000006D0000102D0005400144HS 3244   GGSL
TXBWIC21020-38313-03334-70000036D0000342D0009000006AP 3334   GGSL
TXBWIC21020-38313-03394-10000018D0000129D0001200000FS 3394   GGSL
TXBWIC21020-38313-03470-20000034D0001024D0005300006FL 3470   GGSL
TXBWIC21020-38313-03634-80000009D0000226D0001100006LG 3634   GGSL
TXBWIC21020-38313-03694-20000015D0000425D0000000002LG 3694   GGSL
TXBWIC21020-38313-03710-90000120D0000610D0004201740CT 3710   GGSL
TXBWIC21020-38313-03720-80000012D0000079D0039600000CT 3720   GGSL
TXBWIC21020-38313-03730-70000102D0000493D0004800468CT 3730   GGSL
TXBWIC21020-38313-03750-50000144D0000748D0010800540CT 3750   GGSL
TXBWIC21020-38313-04110-60000006D0000111D0001200108AL 4110   GGSL
TXBWIC21020-38313-04920-10000024D0000145D0000000000AG 4920   GGSL
TXBWIC21020-38313-04930-00001898D0010923D0442900071AG 4930   GGSL
TXBWIC21020-38313-04930-70000473D0003562D0117000531AG 4930SS GGSL
TXBWIC21020-38313-06001-50000002D0000074D0000000000BM 60001  GGSL
TXBWIC21020-38313-06100-50000006D0000185D0000500000SH 61000  GGSL
TXBWIC21020-38313-06970-40000042D0001697D0016100005AH 6970   GGSL
TXBWIC21020-38313-07001-00000002D0000079D0000500008FK 70010  GGSL
TXBWIC21020-38313-07265-00000006D0000107D0001200060RS 7265D  GGSL
TXBWIC21020-38313-07395-40000024D0000508D0001200000RS 7395   GGSL
TXBWIC21020-38313-07500-20000048D0000745D0000000000RS 7255   GGSL
TXBWIC21020-38313-07545-20000058D0000944D0025900011RS 7245   GGSL
TXBWIC21020-38313-08300-00000072D0000438D0000000000AC 8300   GGSL
TXBWIC21020-38313-10000-00000036D0023364D0000000003SP 1502   GGSL
TXBWIC21020-38313-10000-10000144D0001319D0033300030SS 10000  GGSL
TXBWIC21020-38313-10227-20000040D0002673D0008400000AL 6512   GGSL
TXBWIC21020-38313-11000-00000082D0000779D0015000000SS 11000  GGSL
TXBWIC21020-38313-12400-70000258D0002998D0089000055RK 24003  GGSL
TXBWIC21020-38313-13214-90000048D0000368D0008400144FS 3214D  GGSL
TXBWIC21020-38313-14300-80000002D0000077D0001900001BM 43001  GGSL
TXBWIC21020-38313-20001-50000006D0000139D0005800003PD 20000  GGSL
TXBWIC21020-38313-20004-60000008D0000111D0013900128CV 20004  GGSL
TXBWIC21020-38313-20022-00000076D0001284D0025100043RK 20022  GGSL
TXBWIC21020-38313-21000-70000101D0001339D0030400122SH 20000  GGSL
TXBWIC21020-38313-24000-40000050D0000362D0009200006FS 4000   GGSL
TXBWIC21020-38313-25008-90000012D0000052D0006000324RK 25008  GGSL
TXBWIC21020-38313-26001-90000006D0000071D0008400252SS 26010  GGSL
TXBWIC21020-38313-26020-00000039D0000575D0024400016SS 26020  GGSL
TXBWIC21020-38313-27002-50000004D0000178D0000000000AX 70020  GGSL
TXBWIC21020-38313-27020-90000006D0000090D0005400004SS 27020  GGSL
TXBWIC21020-38313-28000-00000025D0000435D0001500015SS 28000  GGSL
TXBWIC21020-38313-28010-90000016D0000315D0002000000SS 28010  GGSL
TXBWIC21020-38313-29001-60000030D0000620D0000000000SS 29010  GGSL
TXBWIC21020-38313-32341-70000004D0000047D0000700000GT 3234   GGSL
TXBWIC21020-38313-32440-70000016D0000096D0000800032CT 3244   GGSL
TXBWIC21020-38313-32441-40000029D0000273D0000100002GT 3244   GGSL
TXBWIC21020-38313-32640-10000060D0000443D0000000066CT 3264   GGSL
TXBWIC21020-38313-33140-50000112D0000873D0011200000CT 3314   GGSL
TXBWIC21020-38313-33240-20000080D0000611D0003200000CT 3324   GGSL
TXBWIC21020-38313-33340-90000032D0000236D0005600000CT 3334   GGSL
TXBWIC21020-38313-33440-60000072D0000516D0000000376CT 3344   GGSL
TXBWIC21020-38313-33540-30000040D0000307D0008000000CT 3354   GGSL
TXBWIC21020-38313-33640-00000040D0000330D0000800048CT 3364   GGSL
TXBWIC21020-38313-36241-60000013D0000332D0001000001LG 3624   GGSL
TXBWIC21020-38313-36541-70000010D0000197D0001300001LG 3654   GGSL
TXBWIC21020-38313-36841-80000002D0000057D0000000000LG 3684   GGSL
TXBWIC21020-38313-37101-20000017D0000298D0000500000LG 3710   GGSL
TXBWIC21020-38313-37201-90000015D0000251D0003300043LG 3720   GGSL
TXBWIC21020-38313-42003-10000006D0000194D0000000000SS 42011  GGSL
TXBWIC21020-38313-53841-50000017D0000904D0004000002TP 3841   GGSL
TXBWIC21020-38313-56200-70000032D0000264D0004100002RK 62000  GGSL
TXBWIC21020-38313-60053-20000001D0000030D0000100000UT 60053  GGSL
TXBWIC21020-38313-60061-70000012D0000292D0000600000SH 60061  GGSL
TXBWIC21020-38313-61062-30000018D0000920D0003500006RK 61062  GGSL
TXBWIC21020-38313-62062-20000014D0000574D0002200001BM 62060  GGSL
TXBWIC21020-38313-64144-30000010D0000192D0001500005SS 64104  GGSL
TXBWIC21020-38313-65500-60000006D0000231D0000000000SS 65020  GGSL
TXBWIC21020-38313-72005-60000012D0000518D0000000000FK 72005  GGSL
TXBWIC21020-38313-80000-00000004D0000303D0002500007SF 80000  GGSL
TXBWIC21020-38313-81000-90000086D0000844D0038200014RK 10000  GGSL
TXBWIC21020-38313-90000-70000065D0000604D0033100017SH 10000  GGSL
TXBWIC21020-38313-90300-80000004D0000283D0000000000AS 90300  GGSL
TXBWIC21020-38776-00207-20000018D0000170D0000000000UU1906BK3 GGSL
TXBWIC21020-38776-51012-60000004D0000184D0000000000UR1212ST  GGSL
TXBWIC21020-38858-02097-00000006D0000037D00000000005408-06-09GGSL
TXBWIC21020-38858-03844-90000004D0000067D00000000005410-02-09GGSL
TXBWIC21020-38858-06769-20000006D0000060D00000000003775-06-09GGSL
TXBWIC21020-38858-06770-80000004D0000075D00000000003776-04-09GGSL
TXBWIC21020-38858-06771-50000001D0000108D00000000003777-04-09GGSL
TXBWIC21020-39526-38169-00000020D0000205D00020000003201C-502WGGSL
TXBWIC21020-39645-11752-10000013D0000063D001590008040200010  GGSL
TXBWIC21020-39996-30292-80000020D0000184D000000000030292     GGSL
TXBWIC21020-39996-30293-50000040D0000532D000000001030293     GGSL
TXBWIC21020-40025-54033-40000022D0000980D0004500000RWS-54033 GGSL
TXBWIC21020-40235-75256-50000012D0000207D00060000002.5G30S   GGSL
TXBWIC21020-40279-03300-20000552D0000949D01392000963300      GGSL
TXBWIC21020-40279-03302-60000372D0000704D0080400180          GGSL
TXBWIC21020-41535-24550-40000280D0010612D014750007224550     GGSL
TXBWIC21020-41535-24560-30000346D0051763D016460011424560     GGSL
TXBWIC21020-41535-24571-90001355D0017282D0383200472100518540 GGSL
TXBWIC21020-42206-00000-00000001D0000297D000000000015534     GGSL
TXBWIC21020-42206-00056-90000006D0000042D000360009056-6      GGSL
TXBWIC21020-42206-00202-00000190D0000191D0050000010202S      GGSL
TXBWIC21020-42206-00202-10000001D0000001D0001500000202S      GGSL
TXBWIC21020-42206-00269-30000036D0000141D0018000240269       GGSL
TXBWIC21020-42206-00395-90000070D0000161D0034800070395S      GGSL
TXBWIC21020-42206-00525-00000052D0000123D0026000180525C      GGSL
TXBWIC21020-42206-00702-50000042D0000179D0000000000702-6     GGSL
TXBWIC21020-42206-00872-50000036D0000075D0045000108872-6     GGSL
TXBWIC21020-42206-03010-80000012D0000104D00216000003010-4    GGSL
TXBWIC21020-42206-03900-20000018D0000261D00000000003900H     GGSL
TXBWIC21020-42206-07800-10000012D0000068D00024001207800      GGSL
TXBWIC21020-42206-09000-30000180D0001036D00340000209000      GGSL
TXBWIC21020-42206-09009-60000005D0000065D00000000009009      GGSL
TXBWIC21020-42206-09620-30000022D0000723D00277000009620-8    GGSL
TXBWIC21020-42206-14058-60000060D0000321D00912000729570      GGSL
TXBWIC21020-42206-14066-10000024D0000068D00108000009560C     GGSL
TXBWIC21020-42206-14220-70000124D0000466D0027600092312S      GGSL
TXBWIC21020-42206-14221-40000164D0000282D0013800000313S      GGSL
TXBWIC21020-42206-14222-10000030D0000460D0009600042314S      GGSL
TXBWIC21020-42206-14235-10000150D0000150D0032000030390S      GGSL
TXBWIC21020-42206-14328-00000030D0000014D0000000000200C      GGSL
TXBWIC21020-42206-14456-00000092D0000135D0028000020420C      GGSL
TXBWIC21020-42206-14501-70000030D0000024D00292000401FMC      GGSL
TXBWIC21020-42206-14502-40000020D0000014D00304000101MMC      GGSL
TXBWIC21020-42206-14503- 0000001D0000001D00019000002FMC      GGSL
TXBWIC21020-42206-14503-10000250D0000225D00992000802FMC      GGSL
TXBWIC21020-42206-14504-80000182D0000133D01609000802MMC      GGSL
TXBWIC21020-42206-14505-50000020D0000019D003340000001MC      GGSL
TXBWIC21020-42206-14506-20000122D0000115D007120010002MC      GGSL
TXBWIC21020-42206-14570-30000010D0000052D0021000010ZBR3/4    GGSL
TXBWIC21020-42206-14571-00000090D0000268D0052900080ZBM3/4    GGSL
TXBWIC21020-42206-14572-70000090D0000291D0052400060ZBF3/4    GGSL
TXBWIC21020-42206-14599-40000012D0000128D00036000009536CH    GGSL
TXBWIC21020-42206-15106-30000252D0002730D000000015615106     GGSL
TXBWIC21020-42206-15111-70000038D0000236D000770000015111     GGSL
TXBWIC21020-42206-15404-00000012D0000126D000360002415404     GGSL
TXBWIC21020-42206-15549-80000039D0000580D000440000015549     GGSL
TXBWIC21020-42206-15565-80000024D0000238D0000000108R551      GGSL
TXBWIC21020-42206-20491-20000128D0000607D004200004020491-10  GGSL
TXBWIC21020-42206-22261-90000066D0000517D010680000022261     GGSL
TXBWIC21020-42206-22300-50000024D0000218D001860001822300     GGSL
TXBWIC21020-42206-22701-00000030D0000084D001560001022701C    GGSL
TXBWIC21020-42206-23701-90000050D0000145D000920000023701S    GGSL
TXBWIC21020-42206-30201-40000001D0000056D0000000000XT201     GGSL
TXBWIC21020-42206-40301-80000020D0000124D0041200420XT301     GGSL
TXBWIC21020-42206-44100-30000018D0000308D0010800078XT4100    GGSL
TXBWIC21020-42206-48635-60000012D0000065D0009600456R8635     GGSL
TXBWIC21020-42206-63015-50000021D0000545D000450000663015     GGSL
TXBWIC21020-42206-63100-80000004D0000148D000330000363100     GGSL
TXBWIC21020-42206-86000-20000001D0000135D000000000086000     GGSL
TXBWIC21020-42579-00000-00000036D0000336D0000000000LEAFTARP9XGGSL
TXBWIC21020-42579-00035-70000018D0000155D00000000003 YR-3100 GGSL
TXBWIC21020-42579-10342-30000024D0000322D0000000000NB348     GGSL
TXBWIC21020-42579-11212-80000005D0000190D0000900005SSR12GRN  GGSL
TXBWIC21020-42579-11250-00000027D0010983D0003800002P12       GGSL
TXBWIC21020-42579-11500-60000053D0000975D0025600005APB5      GGSL
TXBWIC21020-42579-12342-10000024D0000236D0000000000PSS       GGSL
TXBWIC21020-42579-12343-80000140D0005205D000000000020 YR-3100GGSL
TXBWIC21020-42579-12346-90000072D0000126D0009600000TW3W      GGSL
TXBWIC21020-42579-12353-70000015D0000074D0006000000PG12      GGSL
TXBWIC21020-42579-13250-80002285D0041351D0187300232P3        GGSL
TXBWIC21020-42579-14250-70000198D0015982D0054000065P4        GGSL
TXBWIC21020-42579-15250-60000011D0001915D0007500077P5        GGSL
TXBWIC21020-42579-16250-50000131D0022500D0016900067P6        GGSL
TXBWIC21020-42579-18250-30000021D0005534D0004100000P8        GGSL
TXBWIC21020-42579-19342-40000384D0004029D005280002420 YR-324 GGSL
TXBWIC21020-42579-22341-10009726D0047408D02528019526 YR-350  GGSL
TXBWIC21020-42579-22342-80001164D0009291D0012600306NS12      GGSL
TXBWIC21020-42579-22345-90004212D0003816D0345501800APRC      GGSL
TXBWIC21020-42579-23100-30000112D0000784D00000001766 YR-3100 GGSL
TXBWIC21020-42579-23250-50000001D0000090D000000000020 YR-3250GGSL
TXBWIC21020-42579-24250-40000175D0011160D000550000020 YR-4250GGSL
TXBWIC21020-42579-25250-30000176D0013990D000790000020 YR-5250GGSL
TXBWIC21020-42579-26250-20000154D0015118D000000000020 YR-6250GGSL
TXBWIC21020-42579-32355-50000574D0002917D0044800028RS15      GGSL
TXBWIC21020-42579-32501-60000005D0000232D00000000006 YR-4300 GGSL
TXBWIC21020-42579-32502-30000004D0000275D00000000016 YR-6300 GGSL
TXBWIC21020-42579-43004-80000029D0002549D0005500007NB4       GGSL
TXBWIC21020-42579-43006-20000030D0003918D0002300000NB6       GGSL
TXBWIC21020-42579-43240-00000020D0000147D0002000000NB324     GGSL
TXBWIC21020-42579-50154-00000192D0004847D0016800016PRO BLK-31GGSL
TXBWIC21020-42579-50169-40000414D0006172D0010800108PRO BLK-45GGSL
TXBWIC21020-42579-63041-70000010D0001076D0001300000KG6       GGSL
TXBWIC21020-42579-63045-50000004D0000803D0000000000KG12      GGSL
TXBWIC21020-42579-63101-80000002D0000086D0001800000TSL-BX    GGSL
TXBWIC21020-42579-63105-60000026D0001424D0006200000350ROLL   GGSL
TXBWIC21020-42579-63106-30000300D0000036D0030000000CLIP-C    GGSL
TXBWIC21020-42579-63145-20000048D0000837D00000000006 YR-4100 GGSL
TXBWIC21020-42579-63306-70000684D0003170D04500005403 YR-350  GGSL
TXBWIC21020-42579-81272-10000002D0000150D0000000000K6        GGSL
TXBWIC21020-42579-81273-80000003D0000420D0000100000K12       GGSL
TXBWIC21020-42579-81360-50000116D0014788D0000100029NS12250   GGSL
TXBWIC21020-42579-81391-90000042D0007407D0000100002WGC12     GGSL
TXBWIC21020-42579-81392-60000035D0008178D0000000000WGC15     GGSL
TXBWIC21020-42579-81428-20000235D0000420D0060700060BURLAP BAGGGSL
TXBWIC21020-42579-81497-40000032D0000197D0001000003RDR + SIGNGGSL
TXBWIC21020-42579-81506-70000002D0000450D0000000000ULTIMATE15GGSL
TXBWIC21020-42579-81566-10000088D0009965D0027200020SBLT10300 GGSL
TXBWIC21020-42579-81568-50000210D0029434D0047200143SBLT12300 GGSL
TXBWIC21020-42579-81569-20000367D0061929D0052100147SBLT15.530GGSL
TXBWIC21020-42579-81571-50000222D0007541D0044100066SBLT3300  GGSL
TXBWIC21020-42579-81572-20000161D0008995D0023800093SBLT4300  GGSL
TXBWIC21020-42579-81573-90000217D0014484D0028100164SBLT6300  GGSL
TXBWIC21020-42579-81580-70000002D0000151D0000000000DELUXE12-5GGSL
TXBWIC21020-42579-81605-70000003D0000197D0000300001PRO BLK-33GGSL
TXBWIC21020-42579-81606-40000038D0003335D0012100000PRO BLK-43GGSL
TXBWIC21020-42579-81607-10000036D0005126D0009700002PRO BLK-63GGSL
TXBWIC21020-42579-81608-80000006D0001083D0000800001PRO BLK-83GGSL
TXBWIC21020-42579-81619-40000006D0000204D0000100000APB1      GGSL
TXBWIC21020-42579-81624-80000630D0007772D0001800000PRO BLK-35GGSL
TXBWIC21020-42579-81734-40000006D0000465D0006900006CS-4300BLKGGSL
TXBWIC21020-42579-81735-10000006D0000671D0005200000CS-6300BLKGGSL
TXBWIC21020-42579-81739-90000002D0000427D0001300001CS-3100BLKGGSL
TXBWIC21020-42579-81762-70000004D0002162D0000000000AEC-DS    GGSL
TXBWIC21020-42579-82226-30000016D0000360D0000000000ULTIMATE65GGSL
TXBWIC21020-42579-82252-20000016D0001545D0000000000FF4OZ-4360GGSL
TXBWIC21020-42579-82283-60000120D0001008D0000000000STRTS-28  GGSL
TXBWIC21020-42579-82293-50001624D0008154D0000000336SUPREME625GGSL
TXBWIC21020-42579-82320-80000048D0000416D0000000000TWD-24    GGSL
TXBWIC21020-42579-82338-30000011D0000062D0000000000BPN1414   GGSL
TXBWIC21020-42579-82340-60000007D0000138D0000000000BPN2828   GGSL
TXBWIC21020-42853-00000-00000437D0022466D0037900063BFTD-DB12 GGSL
TXBWIC21020-42853-10000-10000011D0000582D0012400001ST3-BB4   GGSL
TXBWIC21020-42853-42000-00001086D0004374D0030000180TSBF-BB6  GGSL
TXBWIC21020-42853-50000-90000123D0008598D0104400375TSW-BB6   GGSL
TXBWIC21020-42853-52000-40000006D0000037D0002400000CBTS-BB6  GGSL
TXBWIC21020-42853-61000-50000064D0000286D0006000004FFTR2-BB4 GGSL
TXBWIC21020-42853-62000-40000048D0000060D0016000036FFTA-DB12 GGSL
TXBWIC21020-42853-77305-40000073D0002890D0088200065FTD-DB12  GGSL
TXBWIC21020-42853-77603-90000002D0000081D0000000000YJTD-DB12-GGSL
TXBWIC21020-42854-03298-10000120D0000309D0006000492FG32ORB112GGSL
TXBWIC21020-42854-63278-50000192D0000482D0030000048FG32PC1-12GGSL
TXBWIC21020-42854-64870-00000036D0000233D0009000012FG48PC1-6 GGSL
TXBWIC21020-42854-93200-70000024D0000122D0004800000FG32SM1-12GGSL
TXBWIC21020-43168-50308-20000001D0000261D000000000093101226  GGSL
TXBWIC21020-43168-50312-90000001D0000039D000000000093101230  GGSL
TXBWIC21020-43168-50313-60000001D0000047D000000000093101231  GGSL
TXBWIC21020-43256-28160-10000004D0000109D0000400000DT150-DEC2GGSL
TXBWIC21020-43256-28165-60000002D0000072D0000200000DT160     GGSL
TXBWIC21020-43256-29051-10000003D0000235D0000200000DT1260    GGSL
TXBWIC21020-43256-33050-70000014D0000722D0000400036DT1050    GGSL
TXBWIC21020-43312-10003-70000415D0001259D0086200105103-0-009 GGSL
TXBWIC21020-43312-10027-30000012D0000119D0018000000104-0-003 GGSL
TXBWIC21020-43312-10031-00000004D0000098D0006300000107-0-002 GGSL
TXBWIC21020-43326-15720-10000040D0000113D0000000000M8X10     GGSL
TXBWIC21020-43326-17720-90000032D0000169D0000000000BRB8X10-P GGSL
TXBWIC21020-43326-31031-60000250D0000055D0000000000SNUG08BLK-GGSL
TXBWIC21020-43326-59578-20000002D0000167D0001000000G12X26    GGSL
TXBWIC21020-43326-59720-50000040D0000855D0000000000G8X10     GGSL
TXBWIC21020-43326-59732-80000005D0000160D0000000010G10X12    GGSL
TXBWIC21020-43326-59736-60000012D0000508D0000000000G10X16    GGSL
TXBWIC21020-43326-59772-40000012D0000770D0000000012G12X20    GGSL
TXBWIC21020-43786-70102-00000072D0000319D000000000070102     GGSL
TXBWIC21020-43792-50001-30000270D0007087D0003300093Y32       GGSL
TXBWIC21020-43792-60002-70000291D0008512D0010100094W32       GGSL
TXBWIC21020-43792-70002-40000205D0006061D0004800067R32       GGSL
TXBWIC21020-43792-80001-40000124D0003623D0002000048SW10      GGSL
TXBWIC21020-43792-90003-50000039D0001501D0001800021GA10      GGSL
TXBWIC21020-43792-90004-20000008D0000758D0000200004GA30      GGSL
TXBWIC21020-44882-30504-40000006D0000142D0000000087FXG5875   GGSL
TXBWIC21020-44882-30506-80000015D0000480D0000000033FXG58100  GGSL
TXBWIC21020-46539-62045-60001752D0021789D0411900204          GGSL
TXBWIC21020-46539-64032-40003376D0028662D0263801938          GGSL
TXBWIC21020-46753-00000-00000001D0000347D0000100000          GGSL
TXBWIC21020-46753-01032-30000048D0000180D00114000064675301032GGSL
TXBWIC21020-46753-01128-30000036D0000328D00036000044675301128GGSL
TXBWIC21020-46753-01500-70000004D0000154D0000000000          GGSL
TXBWIC21020-46753-02032-20000006D0000028D00078000004675302032GGSL
TXBWIC21020-46753-02128-20000040D0000440D00120000044675302128GGSL
TXBWIC21020-46753-03032-10000012D0000059D00000000004675303032GGSL
TXBWIC21020-46753-03128-10000032D0000417D00100000004675303128GGSL
TXBWIC21020-46753-04032-00000167D0000975D00502000604675304032GGSL
TXBWIC21020-46753-04033-70000204D0001744D00450003482004675304GGSL
TXBWIC21020-46753-04128-00000104D0001408D00384002684675304128GGSL
TXBWIC21020-46753-04500-10000020D0000669D0000000010ZZMED5GALPGGSL
TXBWIC21020-46753-04500-40000007D0000431D000230000045004     GGSL
TXBWIC21020-46753-04550-90000001D0000619D000000000045509     GGSL
TXBWIC21020-46753-05032-90000102D0000886D00846004384675305032GGSL
TXBWIC21020-46753-05128-90000028D0000381D00184001364675305128GGSL
TXBWIC21020-46753-05500-10000002D0000106D000000000055003     GGSL
TXBWIC21020-46753-07032-70000084D0000403D00147000124675307032GGSL
TXBWIC21020-46753-08016-60000072D0000590D000000000080160     GGSL
TXBWIC21020-46753-08032-60000333D0005084D02298004714675308032GGSL
TXBWIC21020-46753-14032-70000136D0000548D00195000364675314032GGSL
TXBWIC21020-46753-14128-70000148D0001070D00298000524675314128GGSL
TXBWIC21020-46753-17005-80000078D0000334D00216000004675317005GGSL
TXBWIC21020-46753-17040-90000906D0012232D00981002414675317040GGSL
TXBWIC21020-46753-19032-20000024D0000134D00000000002004675319GGSL
TXBWIC21020-46753-19128-20000008D0000103D0000000000          GGSL
TXBWIC21020-46753-20128-80000008D0000113D0000000004          GGSL
TXBWIC21020-46753-21032-70000108D0000538D003680048010327     GGSL
TXBWIC21020-46753-21128-70000040D0000513D003360033612287     GGSL
TXBWIC21020-47977-00100-50000001D0000034D00001000007511I     GGSL
TXBWIC21020-47985-10023-30000074D0000566D0001400044YCBSM3CF-PGGSL
TXBWIC21020-47985-10033-20000345D0002553D0055700000YCBSI3CF-PGGSL
TXBWIC21020-48307-70003-20000018D0000147D0004100003ST3       GGSL
TXBWIC21020-48307-70004-90000068D0000682D0011400003ST4-WS    GGSL
TXBWIC21020-48307-70005-60000001D0000012D0000000000ST5       GGSL
TXBWIC21020-48307-70006-30000039D0000530D0009300017ST6       GGSL
TXBWIC21020-48745-22244-80000004D0000088D0008800000BL22244   GGSL
TXBWIC21020-50197-00104-50000834D0003826D0254000168HT4       GGSL
TXBWIC21020-50197-00108-30000216D0001405D0087600024HT8       GGSL
TXBWIC21020-50197-00118-20000707D0008078D0115100035HT18      GGSL
TXBWIC21020-50197-00136-60000595D0012597D0082700044HT36      GGSL
TXBWIC21020-50197-00150-20000092D0002353D0066300004HT50      GGSL
TXBWIC21020-50197-00204-20000924D0004248D0172703252PT4       GGSL
TXBWIC21020-50197-00208-00000192D0001216D0027000000PT8       GGSL
TXBWIC21020-50197-00218-90000156D0001898D0051600014PT18      GGSL
TXBWIC21020-50197-00236-30000516D0009332D0024900107PT36      GGSL
TXBWIC21020-50197-00250-90000100D0002463D0014700004PT50      GGSL
TXBWIC21020-50197-00304-90001776D0007800D0251301428GT4       GGSL
TXBWIC21020-50197-00308-70000234D0001346D0000100006GT8       GGSL
TXBWIC21020-50197-00318-60000553D0005993D0052200033GT18      GGSL
TXBWIC21020-50197-00336-00000259D0004617D0019200012GT36      GGSL
TXBWIC21020-50197-00404-60000564D0002576D0256101380RT4       GGSL
TXBWIC21020-50197-00408-40000126D0000843D0020400138RT8       GGSL
TXBWIC21020-50197-00418-30000435D0005401D0044800022RT18      GGSL
TXBWIC21020-50197-00604-00000438D0001962D0029700600BT4       GGSL
TXBWIC21020-50197-00618-70000044D0000472D0000000000BT18      GGSL
TXBWIC21020-50197-00704-70000234D0001039D0097300036TR4       GGSL
TXBWIC21020-50197-00718-40000169D0002026D0018400016TR18      GGSL
TXBWIC21020-50197-00904-10001176D0005551D0168004884TO4       GGSL
TXBWIC21020-50197-00908-60000180D0001303D0040800012TO8       GGSL
TXBWIC21020-50197-00918-80000136D0001678D0028200011TO18      GGSL
TXBWIC21020-50197-01004-70000120D0000551D0013201080BM04      GGSL
TXBWIC21020-50197-01207-20000204D0001355D0036600018RP7       GGSL
TXBWIC21020-50197-01228-70000190D0002560D0016600002RP28      GGSL
TXBWIC21020-50197-01303-10000084D0000497D0031201116DB03      GGSL
TXBWIC21020-50197-01317-80000016D0000526D0015600014DB17      GGSL
TXBWIC21020-50197-01606-30000006D0000051D0000000000TP6       GGSL
TXBWIC21020-50197-01706-00000006D0000049D0000000000PO6       GGSL
TXBWIC21020-50197-01803-60000084D0000325D0039600024GM3       GGSL
TXBWIC21020-50197-01825-80000195D0001962D0136300071GM25      GGSL
TXBWIC21020-50197-01905-70000012D0000056D0004200000GF5105/6  GGSL
TXBWIC21020-50197-02006-00000318D0000795D0059400432GL6       GGSL
TXBWIC21020-50197-02206-40000102D0000529D0084400246GG6       GGSL
TXBWIC21020-50197-02304-70000012D0000059D0000000000CS4       GGSL
TXBWIC21020-50197-02703-80000060D0000626D0000000000KM4       GGSL
TXBWIC21020-50197-02805-90000084D0000539D0001200000GF101010/6GGSL
TXBWIC21020-50197-02904-90000354D0001666D0158400984FT4       GGSL
TXBWIC21020-50197-02918-60000112D0001454D0029700002FT18      GGSL
TXBWIC21020-50197-03804-10002545D0013401D0422601608BTSP4     GGSL
TXBWIC21020-50197-03808-90000018D0000177D0000000000BTSP8     GGSL
TXBWIC21020-50197-03818-80000033D0000637D0010700000BTSP18    GGSL
TXBWIC21020-50197-03825-60000340D0008769D0031500005BTSP25    GGSL
TXBWIC21020-50197-03904-80000171D0000820D0038801416PM4       GGSL
TXBWIC21020-50197-03920-80000127D0001635D0014700003PM20      GGSL
TXBWIC21020-50197-05004-30001014D0004755D0193202652CT4       GGSL
TXBWIC21020-50197-05018-00000325D0004222D0046700015CT18      GGSL
TXBWIC21020-50197-05225-20000003D0000081D0000000005CGP25     GGSL
TXBWIC21020-50197-05320-40000283D0004695D0001000000ELF20     GGSL
TXBWIC21020-50197-05340-20000020D0000418D0000000000ELF40     GGSL
TXBWIC21020-50197-05405-80000192D0000948D0018100024IT5       GGSL
TXBWIC21020-50197-05614-40000011D0000148D0000000000EOLF14    GGSL
TXBWIC21020-50197-05628-10000043D0001065D0015100005EOLF28    GGSL
TXBWIC21020-50197-05730-10000002D0000052D0002500000EOSR30    GGSL
TXBWIC21020-50197-06101-80000108D0000707D0000000012BG1       GGSL
TXBWIC21020-50197-06203-90000060D0000254D0000000000AL3       GGSL
TXBWIC21020-50197-06504-70000240D0001078D0084001488AT4       GGSL
TXBWIC21020-50197-06508-50000048D0000327D0002400000AT8       GGSL
TXBWIC21020-50197-06518-40000012D0000156D0002300000AT18      GGSL
TXBWIC21020-50197-06604-40000246D0001155D0043800036BR4       GGSL
TXBWIC21020-50197-30418-40000090D0000556D0002400042BL18      GGSL
TXBWIC21020-50197-30508-20000144D0000609D0000000000INPF8     GGSL
TXBWIC21020-50197-30608-90000066D0000277D0000000006CAPF8     GGSL
TXBWIC21020-50197-30708-60000036D0000149D0001200000VIPF8     GGSL
TXBWIC21020-50197-30808-30000054D0000222D0001200006ORPF8     GGSL
TXBWIC21020-50197-31208-00000042D0000173D0000000000ctpf8     GGSL
TXBWIC21020-50197-31308-70000012D0000049D0000600006TOPF8     GGSL
TXBWIC21020-50197-31318-60000024D0000150D0001800066topf18    GGSL
TXBWIC21020-50197-51701-00000048D0000296D0001200000eoss1     GGSL
TXBWIC21020-50197-51824-60000012D0000079D0001200000eowk24    GGSL
TXBWIC21020-50197-70101-30001448D0008536D0025000035ap1       GGSL
TXBWIC21020-50197-70102-00000906D0008051D0060000010ap2       GGSL
TXBWIC21020-50197-70304-80000488D0001211D0070800052ca4       GGSL
TXBWIC21020-50197-70308-60000438D0001863D0001200012ca8       GGSL
TXBWIC21020-50197-70516-50000048D0000236D0000000000SS16      GGSL
TXBWIC21020-50197-70608-70000066D0000267D0003000024PTM8      GGSL
TXBWIC21020-50197-70701-50000012D0000142D0000000000PR1       GGSL
TXBWIC21020-50197-70801-20000011D0000135D0000000000VM1       GGSL
TXBWIC21020-50197-71201-90000300D0001899D0000000000mm1       GGSL
TXBWIC21020-50197-71304-70000564D0003254D0010800084EC4       GGSL
TXBWIC21020-50197-71501-00000502D0003211D0036900240lsc1      GGSL
TXBWIC21020-50197-71601-70000163D0000682D0069900012dcm1      GGSL
TXBWIC21020-50197-71804-20000024D0000154D0001200000BO4       GGSL
TXBWIC21020-50197-71904-90000084D0000532D0009600000HC4       GGSL
TXBWIC21020-50197-80117-10000458D0004459D0035700004SC17      GGSL
TXBWIC21020-50349-01003-10000001D0000042D00000000001003-012  GGSL
TXBWIC21020-50349-01041-30000001D0000079D00000000021041-012  GGSL
TXBWIC21020-50349-01069-70000040D0000182D00140000001069-012  GGSL
TXBWIC21020-50349-01078-30000007D0004844D00000000001023-017  GGSL
TXBWIC21020-50699-00000-00000012D0000111D0000300001303460    GGSL
TXBWIC21020-50699-00001-00000008D0000073D0005700000300001    GGSL
TXBWIC21020-50699-00014-00000018D0000078D0001200000300014    GGSL
TXBWIC21020-50699-00128-10000002D0000056D0001800001300128    GGSL
TXBWIC21020-50699-00212-00000012D0000105D0021900012300212    GGSL
TXBWIC21020-50699-00304-90000020D0000239D0000000000300304    GGSL
TXBWIC21020-51497-15464-60000007D0000979D000230001315464     GGSL
TXBWIC21020-52427-00551-90000001D0000018D00000000004500102   GGSL
TXBWIC21020-52427-60012-70000002D0000048D000000000060121     GGSL
TXBWIC21020-52427-60035-60000001D0000147D00000000006035240   GGSL
TXBWIC21020-52732-00000-00000006D0000280D00015000632030.0    GGSL
TXBWIC21020-52732-10012-10000046D0005196D00301000071001-B    GGSL
TXBWIC21020-52732-20505-50000032D0002528D00117000072050SU    GGSL
TXBWIC21020-52732-20509-30000056D0006879D00126000172050P     GGSL
TXBWIC21020-52732-20519-20000007D0000888D00019000032050TP    GGSL
TXBWIC21020-52732-27500-30000192D0007512D00619000572750      GGSL
TXBWIC21020-52732-65000-80000004D0000558D00008000036500.0    GGSL
TXBWIC21020-53291-11002-60000192D0001845D0152400048820-1002  GGSL
TXBWIC21020-53291-19881-90000002D0000022D0003000000820-1002  GGSL
TXBWIC21020-53291-19937-30000012D0000021D0019200000820-0409  GGSL
TXBWIC21020-53291-20602-30000010D0000039D0000000000820-0602  GGSL
TXBWIC21020-53291-30000-00000003D0000799D0002700001820-1024  GGSL
TXBWIC21020-53291-40002-80000010D0000019D0000000000840-0002  GGSL
TXBWIC21020-53291-40003-50000040D0000123D0002000000840-0003  GGSL
TXBWIC21020-53291-40047-90000010D0000030D0000000000840-0047  GGSL
TXBWIC21020-53291-40052-30000024D0000099D0000000000840-0052  GGSL
TXBWIC21020-53291-40054-40000001D0000056D0000000000850-0054  GGSL
TXBWIC21020-53291-50051-00000004D0000080D0000000000850-0051  GGSL
TXBWIC21020-53291-50053-70000004D0000056D0000000000850-0053  GGSL
TXBWIC21020-53291-55981-80000060D0000225D0088800156820-0188  GGSL
TXBWIC21020-56554-10517-30000020D0000231D0000000000MSA16001E2GGSL
TXBWIC21020-56554-10518-00000020D0000310D0000000000MSA20001E2GGSL
TXBWIC21020-56554-30763-80000016D0000087D0000000000SRA07501P0GGSL
TXBWIC21020-56554-31058-40000012D0000081D0000000000SRA10001P0GGSL
TXBWIC21020-56554-31063-80000012D0000081D0000000000SRA10001P0GGSL
TXBWIC21020-56554-31344-80000009D0000091D0000000000SRA13001P0GGSL
TXBWIC21020-56554-31363-90000009D0000091D0000000000SRA13001P0GGSL
TXBWIC21020-56554-67705-20000012D0000138D0000000000moa22000G1GGSL
TXBWIC21020-56554-73105-10000056D0000566D0000000008RUA16000G1GGSL
TXBWIC21020-56554-92105-60000012D0000037D0000000000LIA10000A4GGSL
TXBWIC21020-58115-00114-60000012D0000174D0000000000114       GGSL
TXBWIC21020-66498-01115-70000144D0003031D003870006401115.0   GGSL
TXBWIC21020-66498-02115-60005867D0081910D053960141902775.0   GGSL
TXBWIC21020-66498-02185-90000090D0001372D001890037002185     GGSL
TXBWIC21020-66498-02330-90000120D0001697D00000001806649802330GGSL
TXBWIC21020-66498-03175-90002977D0029937D000000000003175     GGSL
TXBWIC21020-66498-04175-80001781D0016946D014110024504175.0   GGSL
TXBWIC21020-66498-05113-90001237D0007327D009120011305175.0   GGSL
TXBWIC21020-66498-09776-20000085D0000920D001390001509776     GGSL
TXBWIC21020-66498-09782-30000130D0002330D000000000009782.0   GGSL
TXBWIC21020-66498-09785-40000006D0000025D000000000009785     GGSL
TXBWIC21020-66498-09795-30000224D0002436D000000000009795     GGSL
TXBWIC21020-66498-09901-80004090D0026784D024660069009901.0   GGSL
TXBWIC21020-66498-09902-50007974D0076069D056460145609902.0   GGSL
TXBWIC21020-66498-09903-20003959D0052502D024440090309903.0   GGSL
TXBWIC21020-66498-09925-40000648D0002364D001500013209925     GGSL
TXBWIC21020-66498-09929-20000039D0000213D001120002309929     GGSL
TXBWIC21020-66498-09937-70002076D0005479D004080145209937     GGSL
TXBWIC21020-66498-09939-10000043D0000373D000000000409939     GGSL
TXBWIC21020-66498-09947-60000336D0000896D004660039609947     GGSL
TXBWIC21020-66498-09950-50001302D0006228D001680067809955     GGSL
TXBWIC21020-66498-09965-00001134D0006756D002220064809965     GGSL
TXBWIC21020-66498-09977-30000384D0002084D000600003609977     GGSL
TXBWIC21020-66498-09985-80000239D0000917D002700038409985     GGSL
TXBWIC21020-66498-89905-20002376D0008611D012920073809905     GGSL
TXBWIC21020-66498-99827-40000804D0003174D002880039609827     GGSL
TXBWIC21020-70183-50005-50001540D0042527D00308000045000510   GGSL
TXBWIC21020-70183-50006-20001260D0045312D00156000005000610   GGSL
TXBWIC21020-70183-50023-90000348D0008523D00216000065002306   GGSL
TXBWIC21020-70183-50026-00002612D0029097D00744000165002610   GGSL
TXBWIC21020-70183-50027-70000666D0002808D00252000245002715   GGSL
TXBWIC21020-70183-50029-10000148D0001697D00292000125007410   GGSL
TXBWIC21020-70183-50034-50010966D0043995D01698006255003470   GGSL
TXBWIC21020-70183-50038-30002196D0026272D00284000045003810   GGSL
TXBWIC21020-70183-50042-00000076D0006764D00037000015004215   GGSL
TXBWIC21020-70183-50055-00004080D0044926D00984000605005510   GGSL
TXBWIC21020-70183-50060-40001848D0062401D00198000005006010   GGSL
TXBWIC21020-70183-51001-60002335D0040851D00808000805100114   GGSL
TXBWIC21020-70183-51006-10006592D0152907D00948000605100610   GGSL
TXBWIC21020-70183-51007-80000762D0028857D00234000065100710   GGSL
TXBWIC21020-70183-51009-20000140D0001846D00200000005004010   GGSL
TXBWIC21020-70183-51019-10001696D0033625D00104000005101910   GGSL
TXBWIC21020-70183-51073-30000720D0003410D00378000005107315   GGSL
TXBWIC21020-70183-51090-00002250D0122890D00369001975109010   GGSL
TXBWIC21020-70183-52005-30000008D0000166D00092000125200510   GGSL
TXBWIC21020-70183-52039-80000420D0009064D00120000005203910   GGSL
TXBWIC21020-70183-52350-40000036D0000879D00020000005235010   GGSL
TXBWIC21020-70183-57050-80000780D0022260D00180000005705010   GGSL
TXBWIC21020-70183-57080-50000684D0010743D00000000085708010   GGSL
TXBWIC21020-70183-57250-20001400D0029439D00164000045725070   GGSL
TXBWIC21020-70183-88891-70000020D0002906D00000000008889136   GGSL
TXBWIC21020-70251-65240-20000003D0000084D0002300000652400    GGSL
TXBWIC21020-70251-76116-60000003D0000038D0067200006761160    GGSL
TXBWIC21020-70251-79160-60000033D0000369D0040500000791600    GGSL
TXBWIC21020-70251-81482-40000324D0001995D01833000128141082   GGSL
TXBWIC21020-70686-25412-70000008D0000130D000000000084818     GGSL
TXBWIC21020-70735-00000-00000024D0000033D0012000000CHINAMARKEGGSL
TXBWIC21020-70805-00000-00000360D0004107D0000000000SH1HORANEYGGSL
TXBWIC21020-70805-51001-10001180D0002714D012700007070805-010-GGSL
TXBWIC21020-70805-51002-80000859D0003563D007850016070805-005-GGSL
TXBWIC21020-70805-51013-40002575D0033589D0089200448BD02      GGSL
TXBWIC21020-70805-51024-00000120D0000365D001740001870805-006-GGSL
TXBWIC21020-70805-51025-70004064D0042380D025450149570805-001-GGSL
TXBWIC21020-70805-51026-40000246D0000711D002760012670805-006-GGSL
TXBWIC21020-70805-51033-20000476D0006146D005370002670805-001-GGSL
TXBWIC21020-70805-51034-90000353D0008760D004370002870805-001-GGSL
TXBWIC21020-70805-51037-00000036D0000366D001660000070805-001-GGSL
TXBWIC21020-70805-51038-70000061D0001206D002420000070805-001-GGSL
TXBWIC21020-70805-51051-60000216D0001351D001520003270805-008-GGSL
TXBWIC21020-70805-53003-30002765D0019623D0190400914BD021     GGSL
TXBWIC21020-70805-62025-30008806D0166700D023470243470805-001-GGSL
TXBWIC21020-70805-84052-10000030D0000837D0003600010KERNEL_M-0GGSL
TXBWIC21020-70805-84053-80000118D0002481D001870001370805-001-GGSL
TXBWIC21020-70805-84054-50000191D0002842D003860001970805-001-GGSL
TXBWIC21020-70805-84071-20000027D0000608D0000100000REDMILLET-GGSL
TXBWIC21020-70805-84075-00000503D0013615D012190005770805-001-GGSL
TXBWIC21020-70805-84076-70000129D0006916D003470002270805-001-GGSL
TXBWIC21020-70805-84077-40000025D0001336D0011700000KERNEL_M-0GGSL
TXBWIC21020-70805-84079-80000119D0004872D003330000870805-001-GGSL
TXBWIC21020-70805-84093-40000037D0001747D0013300007PEANUTSPL-GGSL
TXBWIC21020-70923-00000-00000072D0000309D0037300012600.0     GGSL
TXBWIC21020-70923-00196-50000168D0000333D0062400024T100-12   GGSL
TXBWIC21020-70923-00300-60000407D0005346D0218400152T300FD    GGSL
TXBWIC21020-70923-00912-10000054D0000270D0015000006T901-6    GGSL
TXBWIC21020-70923-02900-60000080D0000410D0056000024T2900     GGSL
TXBWIC21020-70923-08515-60000072D0000117D0021600456T3206     GGSL
TXBWIC21020-70923-11915-80000010D0002071D0000000005T2502-DS  GGSL
TXBWIC21020-70923-12277-60000018D0000086D0005400000T1812     GGSL
TXBWIC21020-70923-19016-40000018D0000093D0000000000T1901-6   GGSL
TXBWIC21020-70923-29432-90000018D0000154D0009000000T514      GGSL
TXBWIC21020-70923-64051-50000018D0000171D0000000048T702      GGSL
TXBWIC21020-70923-66431-30000036D0000444D0000000132T1240     GGSL
TXBWIC21020-70923-69500-30000003D0000110D0004200000T2512     GGSL
TXBWIC21020-71092-32500-80000156D0000700D0095400012T2506     GGSL
TXBWIC21020-71121-05580-40000036D0000272D00954000005580      GGSL
TXBWIC21020-71121-53940-30000036D0000260D0002000032HG-53944  GGSL
TXBWIC21020-71121-61067-60000005D0002370D0000000003HG-861067 GGSL
TXBWIC21020-71121-95704-70000048D0000256D0006600000HG-95704  GGSL
TXBWIC21020-71121-95830-30000006D0000049D0004200000HG-95830  GGSL
TXBWIC21020-71121-96187-70000006D0000088D0005400000hg-96187  GGSL
TXBWIC21020-71121-96280-50000036D0000147D0000000000HG-96280  GGSL
TXBWIC21020-71121-96281-20000096D0000452D0084600000HG-96281  GGSL
TXBWIC21020-71459-07645-00000006D0000023D00000000000764510   GGSL
TXBWIC21020-71549-01128-40000104D0000285D00120001360112812   GGSL
TXBWIC21020-71549-01129-10000438D0005810D00163001200112912   GGSL
TXBWIC21020-71549-01656-20000012D0000080D00381000060165610   GGSL
TXBWIC21020-71549-01666-10000138D0001554D00012000600166610   GGSL
TXBWIC21020-71549-01672-20005400D0058212D00000000000167224   GGSL
TXBWIC21020-71549-01738-50000726D0005708D00186000060173810   GGSL
TXBWIC21020-71549-01748-40000024D0000208D00129000060174810   GGSL
TXBWIC21020-71549-01936-50000024D0000151D00339000000193610   GGSL
TXBWIC21020-71549-02003-30001084D0013554D00296000240200310   GGSL
TXBWIC21020-71549-02014-90000228D0001217D00180000120201405   GGSL
TXBWIC21020-71549-02022-40000136D0000403D00088000960202212   GGSL
TXBWIC21020-71549-02023-10000048D0000162D00000000000202310   GGSL
TXBWIC21020-71549-02027-90000024D0000138D00000000000202712   GGSL
TXBWIC21020-71549-02028-60000064D0000201D00000000080202812   GGSL
TXBWIC21020-71549-02029-30000192D0000731D00012000000202912   GGSL
TXBWIC21020-71549-02030-90000036D0000311D00012000000203012   GGSL
TXBWIC21020-71549-02032-30000004D0000035D00000000000203205   GGSL
TXBWIC21020-71549-02044-60000084D0000627D00116000040204410   GGSL
TXBWIC21020-71549-02045-30000220D0002628D00072000000204510   GGSL
TXBWIC21020-71549-02047-70001680D0009235D00480000000204710   GGSL
TXBWIC21020-71549-02048-40000036D0000864D00000000000204810   GGSL
TXBWIC21020-71549-02049-10001092D0007066D00588000000204910   GGSL
TXBWIC21020-71549-02054-50000032D0000182D00000000000205408   GGSL
TXBWIC21020-71549-02055-20002454D0004929D01710000360205506   GGSL
TXBWIC21020-71549-02057-60000234D0000869D00222000000205710   GGSL
TXBWIC21020-71549-02127-60000048D0000537D00004000080212710   GGSL
TXBWIC21020-71549-02208-20002704D0022071D00672000280220810   GGSL
TXBWIC21020-71549-02219-80000516D0003606D00000000000221910   GGSL
TXBWIC21020-71549-02575-50000018D0005758D00000000000200328   GGSL
TXBWIC21020-71549-02756-80000472D0001129D00240000080275612   GGSL
TXBWIC21020-71549-02822-00005248D0052809D02091002880282210   GGSL
TXBWIC21020-71549-03320-00000004D0000064D00000000000332010   GGSL
TXBWIC21020-71549-03390-30000006D0000065D00006000000339010   GGSL
TXBWIC21020-71549-03455-90000042D0000206D00000000120345510   GGSL
TXBWIC21020-71549-03456-60000210D0000853D00144001080345610   GGSL
TXBWIC21020-71549-03964-60000216D0001369D00036000240396410   GGSL
TXBWIC21020-71549-03987-50000282D0002904D00021000000398710   GGSL
TXBWIC21020-71549-04243-10000030D0000347D00000000000424310   GGSL
TXBWIC21020-71549-04253-00002488D0015408D00000000040425310   GGSL
TXBWIC21020-71549-04256-10000013D0003882D00000000000425610   GGSL
TXBWIC21020-71549-04318-60000158D0000678D00460000069994318   GGSL
TXBWIC21020-71549-04378-00000282D0002273D00510000660437806   GGSL
TXBWIC21020-71549-04380-30000224D0000820D00248000960438006   GGSL
TXBWIC21020-71549-04385-80002076D0008320D01185004740438580   GGSL
TXBWIC21020-71549-04465-70000036D0000438D00000000000446505   GGSL
TXBWIC21020-71549-04475-60001000D0014889D00032000000447505   GGSL
TXBWIC21020-71549-04476-30000004D0000037D00000000000447605   GGSL
TXBWIC21020-71549-04477-00001200D0005203D00084000000447705   GGSL
TXBWIC21020-71549-04478-70002040D0017348D00252000000447805   GGSL
TXBWIC21020-71549-04479-40000996D0007921D00708000000447905   GGSL
TXBWIC21020-71549-04481-70001880D0015789D00140000000448105   GGSL
TXBWIC21020-71549-04486-20000636D0004770D00012000120448605   GGSL
TXBWIC21020-71549-04487-90000276D0001934D00000000000448705   GGSL
TXBWIC21020-71549-04488-60000048D0000651D00052000000448805   GGSL
TXBWIC21020-71549-04489-30000024D0000216D00000000000448905   GGSL
TXBWIC21020-71549-04491-60000180D0001581D00708000000449105   GGSL
TXBWIC21020-71549-04493-00000176D0001479D00104000000449305   GGSL
TXBWIC21020-71549-04494-70000180D0001477D00720000000449405   GGSL
TXBWIC21020-71549-04495-40000060D0000265D00156000060449505   GGSL
TXBWIC21020-71549-04613-20000048D0000342D00240000120461412   GGSL
TXBWIC21020-71549-04616-30001200D0005316D00360000000461612   GGSL
TXBWIC21020-71549-04617-00002940D0019580D00000000000461712   GGSL
TXBWIC21020-71549-04619-40000048C0019580C00000000000461912   GGSL
TXBWIC21020-71549-04621-70000072D0000240D00000000000462112   GGSL
TXBWIC21020-71549-04657-60000010D0000085D00160000000465705   GGSL
TXBWIC21020-71549-04745-00000084D0000567D00214000000474510   GGSL
TXBWIC21020-71549-04757-30000268D0003863D00072000000475705   GGSL
TXBWIC21020-71549-04758-00000012D0000278D00011000000475805   GGSL
TXBWIC21020-71549-04759-70000095D0006274D00015000000475905   GGSL
TXBWIC21020-71549-04910-20000126D0000463D00048000000491010   GGSL
TXBWIC21020-71549-08410-30001146D0009780D00702001380841010   GGSL
TXBWIC21020-71549-43331-40001680D0009617D01296000000433310   GGSL
TXBWIC21020-71549-43361-10001796D0029404D00264000000433610   GGSL
TXBWIC21020-71549-43371-00000118D0003591D00250000040433710   GGSL
TXBWIC21020-71549-43701-50000700D0014206D00344000120437010   GGSL
TXBWIC21020-71549-43820-30000010D0000095D000900000004381012  GGSL
TXBWIC21020-71549-43887-60000624D0002015D00312001564388710   GGSL
TXBWIC21020-71549-43890-60000012D0000059D00000000004389005   GGSL
TXBWIC21020-71549-44551-50000020D0000305D00012000000445510   GGSL
TXBWIC21020-71549-46008-20000320D0004500D00132000044600810   GGSL
TXBWIC21020-71549-46025-90000060D0000281D00504000964602510   GGSL
TXBWIC21020-71549-46026-60000008D0000079D00000000004602610   GGSL
TXBWIC21020-71549-46132-40001120D0014699D00316000124613264   GGSL
TXBWIC21020-71549-46134-80000066D0000288D00120000004613406   GGSL
TXBWIC21020-71549-46135-50000020D0000230D00012000004613504   GGSL
TXBWIC21020-71549-46139-30000016D0000195D00016000004613905   GGSL
TXBWIC21020-71549-46503-20000048D0000777D00594000004650306   GGSL
TXBWIC21020-71549-46510-00000084D0001189D00000000004651005   GGSL
TXBWIC21020-71549-46527-80000692D0012280D00040000004652705   GGSL
TXBWIC21020-71549-46529-20000032D0000377D00000000004652905   GGSL
TXBWIC21020-71549-46530-80000078D0000299D00000000004653005   GGSL
TXBWIC21020-71549-99008-40000012D0000174D00612001209900810   GGSL
TXBWIC21020-71549-99019-00000060D0000635D00153000009901910   GGSL
TXBWIC21020-71693-00000-00000005D0001886D000000000002-P1000V GGSL
TXBWIC21020-71693-02101-60000018D0011532D000000000002-P1000S GGSL
TXBWIC21020-71693-02104-70000001D0000650D000000000002-P1000VSGGSL
TXBWIC21020-71693-02110-80000003D0002535D000000000002-SP660S GGSL
TXBWIC21020-71693-02115-30000003D0000423D000000000002-HB250  GGSL
TXBWIC21020-71693-02250-10000002D0000260D000000000002-PW250  GGSL
TXBWIC21020-71693-02251-80000006D0000879D000000000002-BF250  GGSL
TXBWIC21020-71693-02252-50000005D0000716D000000000002-CH250  GGSL
TXBWIC21020-71693-02253-20000003D0000489D000000000002-TH250  GGSL
TXBWIC21020-71693-02510-60000001D0000325D000000000002-P500S  GGSL
TXBWIC21020-71693-02520-50000001D0000325D000000000002-P500F  GGSL
TXBWIC21020-71693-02550-20000001D0000325D000000000002-P500   GGSL
TXBWIC21020-71693-04110-60000001D0000308D000000000004-LG1100 GGSL
TXBWIC21020-71693-04111-30000003D0000862D000000000004-LG1100SGGSL
TXBWIC21020-71693-04113-70000003D0000800D000000000004-LG1100VGGSL
TXBWIC21020-71693-04114-40000014D0000924D000000000004-LG1100VGGSL
TXBWIC21020-71693-04153-30000003D0001176D000000000004-LG1500VGGSL
TXBWIC21020-71693-04753-50000001D0000168D000000000004-LG750V GGSL
TXBWIC21020-71693-04754-20000001D0000168D000000000004-LG750VSGGSL
TXBWIC21020-71693-92602-10000001D0000208D000000000002-PN250  GGSL
TXBWIC21020-71693-98401-40000001D0000340D000000000002-P450PN GGSL
TXBWIC21020-71693-98601-80000002D0000586D000000000002-PHH450 GGSL
TXBWIC21020-71693-98701-50000002D0000468D000000000002-PAO450 GGSL
TXBWIC21020-71693-98801-20000002D0001012D000000000002-UB450  GGSL
TXBWIC21020-71693-98900-20000001D0000248D000000000002-MH250  GGSL
TXBWIC21020-71693-98901-90000001D0000400D000000000002-HTP250 GGSL
TXBWIC21020-71693-98902-60000001D0000599D000000000002-NSP250 GGSL
TXBWIC21020-71898-43163-40000760D0015063D00301001137800      GGSL
TXBWIC21020-71898-43180-10000619D0009803D00430000057450      GGSL
TXBWIC21020-71898-43213-60000793D0016127D00352000787324      GGSL
TXBWIC21020-71898-43214-30000224D0003987D00375000227326      GGSL
TXBWIC21020-71898-43215-00000176D0002014D001460005632150     GGSL
TXBWIC21020-72525-00003-00000288D0000966D0074400012HRT-6     GGSL
TXBWIC21020-72525-00005-40000156D0000762D0059700036HRP-16    GGSL
TXBWIC21020-72525-00022-10000150D0001166D0033600012HBB-32    GGSL
TXBWIC21020-72525-00033-70000012D0000080D0000000000HRS-32    GGSL
TXBWIC21020-72525-00048-10000024D0000095D0020700000HDE-8     GGSL
TXBWIC21020-72525-00055-90000078D0000535D0028800009EGG-16    GGSL
TXBWIC21020-72525-00078-80000015D0000048D0012000015BBTRP     GGSL
TXBWIC21020-72532-00014-80000918D0006590D0249900828          GGSL
TXBWIC21020-72532-00015-50000207D0004774D0063500494          GGSL
TXBWIC21020-72532-00016-20000050D0002230D0019800040          GGSL
TXBWIC21020-72532-00017-90000096D0011267D0026300028          GGSL
TXBWIC21020-72532-22310-30000070D0000529D0048000250stspray-10GGSL
TXBWIC21020-72532-33208-90000008D0000060D0000000008stfood32-8GGSL
TXBWIC21020-72532-50001-30000010D0000084D0000000000stsolid-5 GGSL
TXBWIC21020-72693-00014-80000032D0000337D004870000682770001  GGSL
TXBWIC21020-72693-00015-50000045D0003105D008200002082100001  GGSL
TXBWIC21020-72693-00022-30000004D0002773D000810000283000003  GGSL
