TXBWIC20087-865410000045AGRI-TEX                      GGPO
TXBWIC20080-726930000211ALL SEASONS FEEDERS           GGPO
TXBWIC20087-322210000347ALL SEASONS FEEDERS           GGPO
TXBWIC20080-103670000921ALLIANCE ANIMAL CARE, LLC     GGPO
TXBWIC20080-221790000088ALLIANCE ANIMAL CARE, LLC     GGPO
TXBWIC20080-238830001275ALLIANCE ANIMAL CARE, LLC     GGPO
TXBWIC20080-322210000052ALLIANCE ANIMAL CARE, LLC     GGPO
TXBWIC20080-322470000058ALLIANCE ANIMAL CARE, LLC     GGPO
TXBWIC20080-373210000134ALLIANCE ANIMAL CARE, LLC     GGPO
TXBWIC20080-383130000431ALLIANCE ANIMAL CARE, LLC     GGPO
TXBWIC20080-415350000615ALLIANCE ANIMAL CARE, LLC     GGPO
TXBWIC20080-425790000231ALLIANCE ANIMAL CARE, LLC     GGPO
TXBWIC20080-501970000295ALLIANCE ANIMAL CARE, LLC     GGPO
TXBWIC20080-537440000036ALLIANCE ANIMAL CARE, LLC     GGPO
TXBWIC20080-642770000866ALLIANCE ANIMAL CARE, LLC     GGPO
TXBWIC20080-709230000085ALLIANCE ANIMAL CARE, LLC     GGPO
TXBWIC20080-725250000129ALLIANCE ANIMAL CARE, LLC     GGPO
TXBWIC20080-726930000338ALLIANCE ANIMAL CARE, LLC     GGPO
TXBWIC20080-735610000051ALLIANCE ANIMAL CARE, LLC     GGPO
TXBWIC20080-738890000086ALLIANCE ANIMAL CARE, LLC     GGPO
TXBWIC20080-768070000143ALLIANCE ANIMAL CARE, LLC     GGPO
TXBWIC20080-843690000014ALLIANCE ANIMAL CARE, LLC     GGPO
TXBWIC20080-866210000084ALLIANCE ANIMAL CARE, LLC     GGPO
TXBWIC20085-023530000260ALLIANCE ANIMAL CARE, LLC     GGPO
TXBWIC20086-870730000303ALLIANCE ANIMAL CARE, LLC     GGPO
TXBWIC20087-154900000081ALLIANCE ANIMAL CARE, LLC     GGPO
TXBWIC20087-203430000100ALLIANCE ANIMAL CARE, LLC     GGPO
TXBWIC20087-264820000034ALLIANCE ANIMAL CARE, LLC     GGPO
TXBWIC20087-296410000161ALLIANCE ANIMAL CARE, LLC     GGPO
TXBWIC20087-322210000997ALLIANCE ANIMAL CARE, LLC     GGPO
TXBWIC20087-423840000137ALLIANCE ANIMAL CARE, LLC     GGPO
TXBWIC20087-522890000190ALLIANCE ANIMAL CARE, LLC     GGPO
TXBWIC20087-591880002588ALLIANCE ANIMAL CARE, LLC     GGPO
TXBWIC20087-689800000217ALLIANCE ANIMAL CARE, LLC     GGPO
TXBWIC20087-768960000012ALLIANCE ANIMAL CARE, LLC     GGPO
TXBWIC20087-896660000868ALLIANCE ANIMAL CARE, LLC     GGPO
TXBWIC20088-143730000090ALLIANCE ANIMAL CARE, LLC     GGPO
TXBWIC20088-155620000086ALLIANCE ANIMAL CARE, LLC     GGPO
TXBWIC20088-164030000004ALLIANCE ANIMAL CARE, LLC     GGPO
TXBWIC20088-118900004699ARBORJET, INC.                GGPO
TXBWIC20080-425790000038ARETT SALES - TERRA VERDE     GGPO
TXBWIC20080-956680000135ARETT SALES - TERRA VERDE     GGPO
TXBWIC20087-591880000187ARETT SALES - TERRA VERDE     GGPO
TXBWIC20080-768170002148ATLAS FEED MILLS, INC.        GGPO
TXBWIC20080-952420000453ATLAS GREENHOUSE SYSTEMS INC  GGPO
TXBWIC20087-174820002323AUSTINVILLE LIMESTONE CO      GGPO
TXBWIC20080-727110002194B & P INDUSTRIAL INC DBA      GGPO
TXBWIC20080-383130000045B & T SHAVINGS                GGPO
TXBWIC2008P-C11000005339B&G EQUIPMENT CO.             GGPO
TXBWIC2008P-C14000001328B&G EQUIPMENT CO.             GGPO
TXBWIC20086-337590000520B&G EQUIPMENT CO.             GGPO
TXBWIC20080-221790000071BACK TO NATURE                GGPO
TXBWIC20080-238830000248BACK TO NATURE                GGPO
TXBWIC20080-322210000227BACK TO NATURE                GGPO
TXBWIC20080-322470000017BACK TO NATURE                GGPO
TXBWIC20080-329030000264BACK TO NATURE                GGPO
TXBWIC20080-415350000432BACK TO NATURE                GGPO
TXBWIC20080-428530000178BACK TO NATURE                GGPO
TXBWIC20080-527320000036BACK TO NATURE                GGPO
TXBWIC20080-701830000203BACK TO NATURE                GGPO
TXBWIC20080-709230000019BACK TO NATURE                GGPO
TXBWIC20080-715490000055BACK TO NATURE                GGPO
TXBWIC20080-726930000278BACK TO NATURE                GGPO
TXBWIC20080-789780000012BACK TO NATURE                GGPO
TXBWIC20080-843690000284BACK TO NATURE                GGPO
TXBWIC20080-848650000027BACK TO NATURE                GGPO
TXBWIC20080-851990000038BACK TO NATURE                GGPO
TXBWIC20086-870730000055BACK TO NATURE                GGPO
TXBWIC20087-191950000168BACK TO NATURE                GGPO
TXBWIC20087-203430000041BACK TO NATURE                GGPO
TXBWIC20087-256090000057BACK TO NATURE                GGPO
TXBWIC20087-264820000060BACK TO NATURE                GGPO
TXBWIC20087-322210000389BACK TO NATURE                GGPO
TXBWIC20087-356100000045BACK TO NATURE                GGPO
TXBWIC20087-522890000116BACK TO NATURE                GGPO
TXBWIC20087-768960000800BACK TO NATURE                GGPO
TXBWIC20087-577350000792BARNEL INTERNATIONAL, INC.    GGPO
TXBWIC20080-373210005443BASF CORPORATION              GGPO
TXBWIC20080-431620010725BASF CORPORATION              GGPO
TXBWIC20087-184770085840BASF CORPORATION              GGPO
TXBWIC20080-221790000064BAYER PROFESSIONAL PEST MGT   GGPO
TXBWIC20080-238830000155BAYER PROFESSIONAL PEST MGT   GGPO
TXBWIC20080-322470000384BAYER PROFESSIONAL PEST MGT   GGPO
TXBWIC20080-726930000348BAYER PROFESSIONAL PEST MGT   GGPO
TXBWIC20080-735610000309BAYER PROFESSIONAL PEST MGT   GGPO
TXBWIC20087-322210000370BAYER PROFESSIONAL PEST MGT   GGPO
TXBWIC20087-356100000135BAYER PROFESSIONAL PEST MGT   GGPO
TXBWIC20080-487450004587BELL LABORATORIES             GGPO
TXBWIC20087-322210000159BELL LABORATORIES             GGPO
TXBWIC20086-397510010863BELLINGHAM GLOVE, INC         GGPO
TXBWIC20086-743260001456BELLINGHAM GLOVE, INC         GGPO
TXBWIC20080-848650009842BENGAL PRODUCTS INC.          GGPO
TXBWIC20087-256090000707BERGERON TRUCKING CO., INC    GGPO
TXBWIC20080-238830000177BERRY GLOBAL, INC.            GGPO
TXBWIC20080-373210000336BERRY GLOBAL, INC.            GGPO
TXBWIC20080-383130000074BERRY GLOBAL, INC.            GGPO
TXBWIC20080-422060000042BERRY GLOBAL, INC.            GGPO
TXBWIC20080-425790000196BERRY GLOBAL, INC.            GGPO
TXBWIC20080-428530000025BERRY GLOBAL, INC.            GGPO
TXBWIC20080-532910000029BERRY GLOBAL, INC.            GGPO
TXBWIC20080-725250000032BERRY GLOBAL, INC.            GGPO
TXBWIC20080-726930000585BERRY GLOBAL, INC.            GGPO
TXBWIC20080-727250000035BERRY GLOBAL, INC.            GGPO
TXBWIC20080-728680000101BERRY GLOBAL, INC.            GGPO
TXBWIC20080-768070000028BERRY GLOBAL, INC.            GGPO
TXBWIC20086-870730000079BERRY GLOBAL, INC.            GGPO
TXBWIC20087-154900000085BERRY GLOBAL, INC.            GGPO
TXBWIC20087-296400000027BERRY GLOBAL, INC.            GGPO
TXBWIC20087-322210000871BERRY GLOBAL, INC.            GGPO
TXBWIC20087-689800002430BERRY GLOBAL, INC.            GGPO
TXBWIC20080-238830000067BIO WORKS, INC.               GGPO
TXBWIC20080-364340000090BIO WORKS, INC.               GGPO
TXBWIC20080-422060000006BIO WORKS, INC.               GGPO
TXBWIC20080-726930000344BIO WORKS, INC.               GGPO
TXBWIC20080-843690000837BIO WORKS, INC.               GGPO
TXBWIC20087-184770000666BIO WORKS, INC.               GGPO
TXBWIC20087-322210000116BIO WORKS, INC.               GGPO
TXBWIC20081-887160002072BIOSAFE SYSTEMS               GGPO
TXBWIC20080-353070000633BLACK GOLD COMPOST CO.        GGPO
TXBWIC20080-874040000078BLOEM, LLC                    GGPO
TXBWIC20088-141740000317BLOEM, LLC                    GGPO
TXBWIC20088-185730001406BLOEM, LLC                    GGPO
TXBWIC20080-346130000178BOND MANUFACTURING CO,INC     GGPO
TXBWIC20080-329030000132BONIDE PRODUCTS, INC.         GGPO
TXBWIC20080-373210085548BONIDE PRODUCTS, INC.         GGPO
TXBWIC20080-422060000024BONIDE PRODUCTS, INC.         GGPO
TXBWIC20080-428530000195BONIDE PRODUCTS, INC.         GGPO
TXBWIC20080-527320000173BONIDE PRODUCTS, INC.         GGPO
TXBWIC20080-726930002380BONIDE PRODUCTS, INC.         GGPO
TXBWIC20080-768070001791BONIDE PRODUCTS, INC.         GGPO
TXBWIC20080-789780000014BONIDE PRODUCTS, INC.         GGPO
TXBWIC20080-952520000542BONIDE PRODUCTS, INC.         GGPO
TXBWIC20083-732100000299BONIDE PRODUCTS, INC.         GGPO
TXBWIC20086-870730000708BONIDE PRODUCTS, INC.         GGPO
TXBWIC20087-269320001538BONIDE PRODUCTS, INC.         GGPO
TXBWIC20087-522890000058BONIDE PRODUCTS, INC.         GGPO
TXBWIC20087-768960000097BONIDE PRODUCTS, INC.         GGPO
TXBWIC20086-902470000017BW RESOURCES, LLC             GGPO
TXBWIC20087-322210000251BWI PACKAGING                 GGPO
TXBWIC20080-112470008319CARL POOL PRODUCTS            GGPO
TXBWIC20081-124720000042CARL POOL PRODUCTS            GGPO
TXBWIC20081-124730000046CARL POOL PRODUCTS            GGPO
TXBWIC20081-124750000033CARL POOL PRODUCTS            GGPO
TXBWIC20080-353070000575CAROLINA SHAVINGS, INC.       GGPO
TXBWIC20080-866210074512CENTRAL LIFE SCIENCES         GGPO
TXBWIC20080-238830042143CHAPIN INTERNATIONAL          GGPO
TXBWIC20080-532910000904CHAPIN INTERNATIONAL          GGPO
TXBWIC20080-537440000070CHAPIN INTERNATIONAL          GGPO
TXBWIC20080-726930000492CHAPIN INTERNATIONAL          GGPO
TXBWIC20086-649800000090CHAPIN INTERNATIONAL          GGPO
TXBWIC20087-126260000283CHAPIN INTERNATIONAL          GGPO
TXBWIC20087-264820000107CHAPIN INTERNATIONAL          GGPO
TXBWIC20087-322210000373CHAPIN INTERNATIONAL          GGPO
TXBWIC20087-522890000057CHAPIN INTERNATIONAL          GGPO
TXBWIC20087-591880000020CHAPIN INTERNATIONAL          GGPO
TXBWIC20088-164030000094CHAPIN INTERNATIONAL          GGPO
TXBWIC20086-173130000320CLASSIC BRANDS LLC            GGPO
TXBWIC20088- 15560000301CLASSIC BRANDS LLC            GGPO
TXBWIC20088-155620003527CLASSIC BRANDS LLC            GGPO
TXBWIC20080-004020000515COLLIER METAL SPECIALTIES LTD GGPO
TXBWIC20084-023570000802COLLIER MFG., LLC             GGPO
TXBWIC20087-768960048174COMMODITY MARKETING CO        GGPO
TXBWIC20088-164030000014CONLEY'S MFG. & SALES         GGPO
TXBWIC20080-726930567652CONTROL SOLUTIONS, INC.       GGPO
TXBWIC20087-269300005968CONTROL SOLUTIONS, INC.       GGPO
TXBWIC20087-269320001260CONTROL SOLUTIONS, INC.       GGPO
TXBWIC20087-269340012776CONTROL SOLUTIONS, INC.       GGPO
TXBWIC20087-423840074702CONTROL SOLUTIONS, INC.       GGPO
TXBWIC20080-236260000072CORONA CLIPPER INC            GGPO
TXBWIC20080-238830000179CORONA CLIPPER INC            GGPO
TXBWIC20080-322210002159CORONA CLIPPER INC            GGPO
TXBWIC20080-383130069167CORONA CLIPPER INC            GGPO
TXBWIC20080-501970000022CORONA CLIPPER INC            GGPO
TXBWIC20080-726930001058CORONA CLIPPER INC            GGPO
TXBWIC20080-952420001878CORONA CLIPPER INC            GGPO
TXBWIC20083-831320000631CORONA CLIPPER INC            GGPO
TXBWIC20083-831390000848CORONA CLIPPER INC            GGPO
TXBWIC20087-322210000053CORONA CLIPPER INC            GGPO
TXBWIC20087-896660000547CORONA CLIPPER INC            GGPO
TXBWIC20082-362600000278CURTIS DYNA-FOG LTD           GGPO
TXBWIC20087-591880008689CURTIS WAGNER PLASTICS CORP.  GGPO
TXBWIC20081-071910000089D & D COMMODITIES LTD.        GGPO
TXBWIC20087-191950064761D & D COMMODITIES LTD.        GGPO
TXBWIC20088-191950000052D & D COMMODITIES LTD.        GGPO
TXBWIC20080-160690003096DALEN PRODUCTS, INC           GGPO
TXBWIC20080-428540002014DELTA INDUSTRIES              GGPO
TXBWIC20080-238830000101DEROMA USA                    GGPO
TXBWIC20080-224010007395DEWITT COMPANY, INC           GGPO
TXBWIC20080-425700002185DEWITT COMPANY, INC           GGPO
TXBWIC20080-425790072973DEWITT COMPANY, INC           GGPO
TXBWIC20080-433260000140DEWITT COMPANY, INC           GGPO
TXBWIC20080-851990000056DEWITT COMPANY, INC           GGPO
TXBWIC20080-642770026919DICAPERL MINERALS CORPORATION GGPO
TXBWIC20087-256090021002DIP'N GROW INC                GGPO
TXBWIC20087-768960014179DISCOUNT SEEDS, INC           GGPO
TXBWIC20086-987030001013EARTH KIND, INC.              GGPO
TXBWIC20080-236260000162EARTHWAY PRODUCTS INC         GGPO
TXBWIC20080-527320007160EARTHWAY PRODUCTS INC         GGPO
TXBWIC20080-390440000091EASY GARDENER INC.            GGPO
TXBWIC20080-730350009931EASY GARDENER INC.            GGPO
TXBWIC20080-390440000907EASY GARDENER, INC            GGPO
TXBWIC20080-501970000051ECOSAFE LABS, INC             GGPO
TXBWIC20080-726930000052ECOSAFE LABS, INC             GGPO
TXBWIC20087-322210000080ECOSAFE LABS, INC             GGPO
TXBWIC20081-869550006808ENVIRO PROTECTION INDUSTRIES  GGPO
TXBWIC20087-865410006613EVOLVED HABITATS              GGPO
TXBWIC20088-506950011134EVOLVED HABITATS              GGPO
TXBWIC20088-550180001207EVOLVED HABITATS              GGPO
TXBWIC20088-550190000093EVOLVED HABITATS              GGPO
TXBWIC20080-221790000072EXTREME DOG FUEL              GGPO
TXBWIC20080-373210000188EXTREME DOG FUEL              GGPO
TXBWIC20080-428530000190EXTREME DOG FUEL              GGPO
TXBWIC20086-870730000553EXTREME DOG FUEL              GGPO
TXBWIC20087-322210000728EXTREME DOG FUEL              GGPO
TXBWIC20087-591880000007EXTREME DOG FUEL              GGPO
TXBWIC20080-322210000039F M C CORPORATION             GGPO
TXBWIC20087-322210000252F M C CORPORATION             GGPO
TXBWIC20087-896660000109F M C CORPORATION             GGPO
TXBWIC20088-744800000024F M C CORPORATION             GGPO
TXBWIC20080-383130000363FESTIVAL WINDCHIMES           GGPO
TXBWIC20080-843690000130FESTIVAL WINDCHIMES           GGPO
TXBWIC20082-362600000039FESTIVAL WINDCHIMES           GGPO
TXBWIC20087-522890000035FESTIVAL WINDCHIMES           GGPO
TXBWIC20087-591880000356FESTIVAL WINDCHIMES           GGPO
TXBWIC20087-689800000097FESTIVAL WINDCHIMES           GGPO
TXBWIC20080-238830000152FLOPAK                        GGPO
TXBWIC20080-329030000299FLOPAK                        GGPO
TXBWIC20080-353070000351FLOPAK                        GGPO
TXBWIC20080-642770001240FLOPAK                        GGPO
TXBWIC20080-843690000776FLOPAK                        GGPO
TXBWIC20086-510820000003FLOPAK                        GGPO
TXBWIC20086-870730000311FLOPAK                        GGPO
TXBWIC20087-191950000322FLOPAK                        GGPO
TXBWIC20087-768960000260FLOPAK                        GGPO
TXBWIC20088-155620000086FLOPAK                        GGPO
TXBWIC20088-744800000173FLOPAK                        GGPO
TXBWIC20080-322470000215FLORIKAN E.S.A. CORP          GGPO
TXBWIC20080-701830002283FLORIKAN E.S.A. CORP          GGPO
TXBWIC20080-715490000021FLORIKAN E.S.A. CORP          GGPO
TXBWIC20087-154900000176FLORIKAN E.S.A. CORP          GGPO
TXBWIC20087-356100000306FLORIKAN E.S.A. CORP          GGPO
TXBWIC20080-221790000220FOXFARM SOIL & FERTILIZER CO. GGPO
TXBWIC20080-238830000081FOXFARM SOIL & FERTILIZER CO. GGPO
TXBWIC20080-322210004003FOXFARM SOIL & FERTILIZER CO. GGPO
TXBWIC20080-501970000080FOXFARM SOIL & FERTILIZER CO. GGPO
TXBWIC20080-532910000116FOXFARM SOIL & FERTILIZER CO. GGPO
TXBWIC20080-725250000032FOXFARM SOIL & FERTILIZER CO. GGPO
TXBWIC20080-726930000354FOXFARM SOIL & FERTILIZER CO. GGPO
TXBWIC20087-191950000032FOXFARM SOIL & FERTILIZER CO. GGPO
TXBWIC20087-322210000645FOXFARM SOIL & FERTILIZER CO. GGPO
TXBWIC20087-522891031287FOXFARM SOIL & FERTILIZER CO. GGPO
TXBWIC20086-440120000691GALLAGHER                     GGPO
TXBWIC20086-444930009202GALLAGHER                     GGPO
TXBWIC20080-344170001201GARDENSCAPE INC               GGPO
TXBWIC20087-174820002203GARICK LLC                    GGPO
TXBWIC20080-353070000832GOLD RIVER FEED PRODUCTS      GGPO
TXBWIC20080-738890003283GREEN GLO PRODUCTS            GGPO
TXBWIC20080-537440000031GREENSMITHS INC.              GGPO
TXBWIC20087-322210000022GREENSMITHS INC.              GGPO
TXBWIC20087-768960000082GREENSMITHS INC.              GGPO
TXBWIC20080-329030000082GROWERS FERTILIZER CORP       GGPO
TXBWIC20080-422060000017GROWERS FERTILIZER CORP       GGPO
TXBWIC20080-843690000241GROWERS FERTILIZER CORP       GGPO
TXBWIC20086-870730000155GROWERS FERTILIZER CORP       GGPO
TXBWIC20087-591880000016GROWERS FERTILIZER CORP       GGPO
TXBWIC20087-591880000232GROWTH PRODUCTS, LTD.         GGPO
TXBWIC20080-329030000072HAMPTON FARMS                 GGPO
TXBWIC20080-353070000021HAMPTON FARMS                 GGPO
TXBWIC20080-373210000220HAMPTON FARMS                 GGPO
TXBWIC20080-501970000020HAMPTON FARMS                 GGPO
TXBWIC20080-537440000015HAMPTON FARMS                 GGPO
TXBWIC20080-843690000068HAMPTON FARMS                 GGPO
TXBWIC20086-592760000012HAMPTON FARMS                 GGPO
TXBWIC20087-322210000739HAMPTON FARMS                 GGPO
TXBWIC20080-221790000680HARCROS CHEMICALS, INC        GGPO
TXBWIC20080-373210001224HARCROS CHEMICALS, INC        GGPO
TXBWIC20080-501970000084HARCROS CHEMICALS, INC        GGPO
TXBWIC20080-726930000128HARCROS CHEMICALS, INC        GGPO
TXBWIC20087-322210000833HARCROS CHEMICALS, INC        GGPO
TXBWIC20080-532910004572HEADWIND CONSUMER PRODUCTS    GGPO
TXBWIC20080-851990001518HEATH MFG                     GGPO
TXBWIC20081-008510000188HEATH MFG                     GGPO
TXBWIC20086-624980000198HONEYWELL SAFETY PRODUCTS USA GGPO
TXBWIC20080-781590060703HOWARD JOHNSON, INC           GGPO
TXBWIC20080-726930000658ICL SPECIALTY FERTILIZERS     GGPO
TXBWIC20087-322210000117ICL SPECIALTY FERTILIZERS     GGPO
TXBWIC20080-642770017550IMERYS PERLITE USA, INC.      GGPO
TXBWIC20080-501970000198J & M PLASTICS INC            GGPO
TXBWIC20080-726930000263J & M PLASTICS INC            GGPO
TXBWIC20087-322210000050J & M PLASTICS INC            GGPO
TXBWIC20087-896660000434J & M PLASTICS INC            GGPO
TXBWIC20086-624980000099JANITOR'S WAREHOUSE           GGPO
TXBWIC20080-112470000029JEMASCO INC.                  GGPO
TXBWIC20080-238830000406JEMASCO INC.                  GGPO
TXBWIC20080-269780000039JEMASCO INC.                  GGPO
TXBWIC20080-373210000189JEMASCO INC.                  GGPO
TXBWIC20087-689800003309JEMASCO INC.                  GGPO
TXBWIC20087-768960000010JEMASCO INC.                  GGPO
TXBWIC20088-143730000325JEMASCO INC.                  GGPO
TXBWIC20080-333490000265JIFFY PRODUCTS OF AMERICA     GGPO
TXBWIC20087-000010000231JIFFY PRODUCTS OF AMERICA     GGPO
TXBWIC20087-000030000129JIFFY PRODUCTS OF AMERICA     GGPO
TXBWIC20084-077340001557JONES SEED COMPANY            GGPO
TXBWIC20087-296400055121JONES SEED COMPANY            GGPO
TXBWIC20087-296410018545JONES SEED COMPANY            GGPO
TXBWIC20087-396400000225JONES SEED COMPANY            GGPO
TXBWIC20087-768960001140JONES SEED COMPANY            GGPO
TXBWIC20087-256090000592JRM CHEMICAL                  GGPO
TXBWIC20080-238830000378KNESS MFG. CO.,INC.           GGPO
TXBWIC20080-433120002528KNESS MFG. CO.,INC.           GGPO
TXBWIC20087-184770000499KNESS MFG. CO.,INC.           GGPO
TXBWIC20087-322210000934KNESS MFG. CO.,INC.           GGPO
TXBWIC20080-402790003286L E COOKE COMPANY             GGPO
TXBWIC20080-664980080835LAMBERT PEAT MOSS, INC        GGPO
TXBWIC20086-649800002736LAMBERT PEAT MOSS, INC        GGPO
TXBWIC20087-708240000052LAMBERT PEAT MOSS, INC        GGPO
TXBWIC20080-230770000145LANDSCAPERS PRIDE             GGPO
TXBWIC20080-322210002194LANDSCAPERS PRIDE             GGPO
TXBWIC20087-322210000203LANDSCAPERS PRIDE             GGPO
TXBWIC20080-886850004578LEBANON SEABOARD CORPORATION  GGPO
TXBWIC20080-353070005682LUSTER LEAF PRODUCTS, INC     GGPO
TXBWIC20087-269340000757MADDOX SEED                   GGPO
TXBWIC20080-383130000172MARSHALL HOME CORPORATION     GGPO
TXBWIC20080-701830000040MARSHALL HOME CORPORATION     GGPO
TXBWIC20080-467530015065MEDINA AGRI PRODUCTS          GGPO
TXBWIC20084-675300000096MEDINA AGRI PRODUCTS          GGPO
TXBWIC20080-238830000018MELISSA & DOUG, LLC           GGPO
TXBWIC20080-322470000951MELISSA & DOUG, LLC           GGPO
TXBWIC20080-701830001481MELISSA & DOUG, LLC           GGPO
TXBWIC20080-715490000390MELISSA & DOUG, LLC           GGPO
TXBWIC20080-726930000168MELISSA & DOUG, LLC           GGPO
TXBWIC20080-735610000519MELISSA & DOUG, LLC           GGPO
TXBWIC20087-154900000240MELISSA & DOUG, LLC           GGPO
TXBWIC20087-322210000734MELISSA & DOUG, LLC           GGPO
TXBWIC20087-356100000026MELISSA & DOUG, LLC           GGPO
TXBWIC20087-356130000256MELISSA & DOUG, LLC           GGPO
TXBWIC20088-148500000186MELISSA & DOUG, LLC           GGPO
TXBWIC20080-422060010297MELNOR INC.                   GGPO
TXBWIC20080-238830000050MICHIGAN PEAT COMPANY         GGPO
TXBWIC20080-280090012522MICHIGAN PEAT COMPANY         GGPO
TXBWIC20087-322210000035MICHIGAN PEAT COMPANY         GGPO
TXBWIC20087-896660000109MICHIGAN PEAT COMPANY         GGPO
TXBWIC20080-230770006000MICOBE INC.                   GGPO
TXBWIC20080-230770000575MID-AMERICA MULCH INC.        GGPO
TXBWIC20080-425790005585MID-AMERICA MULCH INC.        GGPO
TXBWIC20080-537440000110MID-AMERICA MULCH INC.        GGPO
TXBWIC20080-727250000056MID-AMERICA MULCH INC.        GGPO
TXBWIC20080-789780000014MID-AMERICA MULCH INC.        GGPO
TXBWIC20080-848650006711MID-AMERICA MULCH INC.        GGPO
TXBWIC20086-624980000039MID-AMERICA MULCH INC.        GGPO
TXBWIC20087-322210000422MID-AMERICA MULCH INC.        GGPO
TXBWIC20087-522890000096MID-AMERICA MULCH INC.        GGPO
TXBWIC20088-155620000086MID-AMERICA MULCH INC.        GGPO
TXBWIC20080-843690094321MILLER MANUFACTURING CO       GGPO
TXBWIC20080-857650007820MILLER MANUFACTURING CO       GGPO
TXBWIC20081-008430000018MILLER MANUFACTURING CO       GGPO
TXBWIC20086-592760001652MILLER MANUFACTURING CO       GGPO
TXBWIC20087-311410000239MILLER MANUFACTURING CO       GGPO
TXBWIC20088-436900000053MILLER MANUFACTURING CO       GGPO
TXBWIC20088-436910001744MILLER MANUFACTURING CO       GGPO
TXBWIC20080-465390037567MILORGANITE DIVISION -        GGPO
TXBWIC20080-221790034032MONTEREY L & G PRODUCTS, INC  GGPO
TXBWIC20080-952520000442MONTEREY L & G PRODUCTS, INC  GGPO
TXBWIC20080-103670021977MOSSER LEE                    GGPO
TXBWIC20087-256090000592MOULTRIE FEEDERS INC          GGPO
TXBWIC20086-300880003105MR. BIRD INC.                 GGPO
TXBWIC20080-236260005539NEOGEN CORPORATION            GGPO
TXBWIC20080-952420166491NEOGEN CORPORATION            GGPO
TXBWIC20080-952520027834NEOGEN CORPORATION            GGPO
TXBWIC20082-362600000228NEOGEN CORPORATION            GGPO
TXBWIC20080-364340000057NISUS CORPORATION             GGPO
TXBWIC20080-373210000082NISUS CORPORATION             GGPO
TXBWIC20080-425790000074NISUS CORPORATION             GGPO
TXBWIC20080-702510000233NISUS CORPORATION             GGPO
TXBWIC20080-768070000057NISUS CORPORATION             GGPO
TXBWIC20080-843690000391NISUS CORPORATION             GGPO
TXBWIC20080-848650000036NISUS CORPORATION             GGPO
TXBWIC20080-851990000007NISUS CORPORATION             GGPO
TXBWIC20087-191950000046NISUS CORPORATION             GGPO
TXBWIC20087-522890000040NISUS CORPORATION             GGPO
TXBWIC20087-591880000025NISUS CORPORATION             GGPO
TXBWIC20088-583850000198NISUS CORPORATION             GGPO
TXBWIC20080-269780002275NOVELTY MANUFACTURING CO      GGPO
TXBWIC20088-583850000841NOVELTY MANUFACTURING CO      GGPO
TXBWIC20080-425790000065NURSERY SUPPLIES, INC.        GGPO
TXBWIC20080-527320000086NURSERY SUPPLIES, INC.        GGPO
TXBWIC20080-726930000471NURSERY SUPPLIES, INC.        GGPO
TXBWIC20087-322210000039NURSERY SUPPLIES, INC.        GGPO
TXBWIC20087-768960000640NURSERY SUPPLIES, INC.        GGPO
TXBWIC20087-896660000164NURSERY SUPPLIES, INC.        GGPO
TXBWIC20080-353070000067OHP                           GGPO
TXBWIC20080-383130000196OHP                           GGPO
TXBWIC20080-422060000017OHP                           GGPO
TXBWIC20080-428530000061OHP                           GGPO
TXBWIC20080-537440000141OHP                           GGPO
TXBWIC20080-728680000023OHP                           GGPO
TXBWIC20080-738890000043OHP                           GGPO
TXBWIC20086-870730000792OHP                           GGPO
TXBWIC20087-768960000160OHP                           GGPO
TXBWIC20088-155620000166OHP                           GGPO
TXBWIC20081-887160000069OLD FARMER'S ALMANAC          GGPO
TXBWIC20080-230770020700OLDCASTLE LAWN & GARDEN       GGPO
TXBWIC20080-238830000816OLDCASTLE LAWN & GARDEN       GGPO
TXBWIC20080-344170000506OLDCASTLE LAWN & GARDEN       GGPO
TXBWIC20080-373210000084OLDCASTLE LAWN & GARDEN       GGPO
TXBWIC20080-532910000204OLDCASTLE LAWN & GARDEN       GGPO
TXBWIC20080-642770000960OLDCASTLE LAWN & GARDEN       GGPO
TXBWIC20080-708050000036OLDCASTLE LAWN & GARDEN       GGPO
TXBWIC20080-726930001595OLDCASTLE LAWN & GARDEN       GGPO
TXBWIC20080-728680000502OLDCASTLE LAWN & GARDEN       GGPO
TXBWIC20080-789780000058OLDCASTLE LAWN & GARDEN       GGPO
TXBWIC20080-818180006206OLDCASTLE LAWN & GARDEN       GGPO
TXBWIC20080-848650000152OLDCASTLE LAWN & GARDEN       GGPO
TXBWIC20080-851990000017OLDCASTLE LAWN & GARDEN       GGPO
TXBWIC20081-007270000086OLDCASTLE LAWN & GARDEN       GGPO
TXBWIC20086-870730000522OLDCASTLE LAWN & GARDEN       GGPO
TXBWIC20087-296410000199OLDCASTLE LAWN & GARDEN       GGPO
TXBWIC20087-322210000391OLDCASTLE LAWN & GARDEN       GGPO
TXBWIC20087-427860061597OLDCASTLE LAWN & GARDEN       GGPO
TXBWIC20087-689800000338OLDCASTLE LAWN & GARDEN       GGPO
TXBWIC20087-768960000011OLDCASTLE LAWN & GARDEN       GGPO
TXBWIC20088-143730000569OLDCASTLE LAWN & GARDEN       GGPO
TXBWIC20088-155620000041OLDCASTLE LAWN & GARDEN       GGPO
TXBWIC20088-744800000022OLDCASTLE LAWN & GARDEN       GGPO
TXBWIC20087-174820004679OLDCASTLE STONE PRODUCTS      GGPO
TXBWIC20086-510820029359ORIGIN POINT BRANDS, LLC      GGPO
TXBWIC20080-364340000068P.F. HARRIS MANUFACTURING CO  GGPO
TXBWIC20080-537440000109P.F. HARRIS MANUFACTURING CO  GGPO
TXBWIC20080-664980000034P.F. HARRIS MANUFACTURING CO  GGPO
TXBWIC20080-725250002414P.F. HARRIS MANUFACTURING CO  GGPO
TXBWIC20080-727250004505P.F. HARRIS MANUFACTURING CO  GGPO
TXBWIC20080-727720000065P.F. HARRIS MANUFACTURING CO  GGPO
TXBWIC20081-007270000086P.F. HARRIS MANUFACTURING CO  GGPO
TXBWIC20087-322210000082P.F. HARRIS MANUFACTURING CO  GGPO
TXBWIC20087-689800000891P.F. HARRIS MANUFACTURING CO  GGPO
TXBWIC20080-642770047470PALMETTO VERMICULITE, INC     GGPO
TXBWIC20080-103670000921PARAGON PROFESSIONAL PC       GGPO
TXBWIC20080-236260000027PARAGON PROFESSIONAL PC       GGPO
TXBWIC20080-238830000020PARAGON PROFESSIONAL PC       GGPO
TXBWIC20080-322210001149PARAGON PROFESSIONAL PC       GGPO
TXBWIC20080-501970000024PARAGON PROFESSIONAL PC       GGPO
TXBWIC20080-715490000043PARAGON PROFESSIONAL PC       GGPO
TXBWIC20080-726930000592PARAGON PROFESSIONAL PC       GGPO
TXBWIC20087-264820000031PARAGON PROFESSIONAL PC       GGPO
TXBWIC20087-322210002768PARAGON PROFESSIONAL PC       GGPO
TXBWIC20087-768960000160PARAGON PROFESSIONAL PC       GGPO
TXBWIC20087-896660000054PARAGON PROFESSIONAL PC       GGPO
TXBWIC20088-744800000008PARAGON PROFESSIONAL PC       GGPO
TXBWIC20080-236260000094PBI/Gordon Corp.              GGPO
TXBWIC20080-952420000609PBI/Gordon Corp.              GGPO
TXBWIC20080-952520000245PBI/Gordon Corp.              GGPO
TXBWIC20080-702510003031PBI/GORDON CORP.              GGPO
TXBWIC20080-843690005628PICKSEED WEST, INC            GGPO
TXBWIC20086-592760000847PICKSEED WEST, INC            GGPO
TXBWIC20087-311410000057PICKSEED WEST, INC            GGPO
TXBWIC20088-436900000053PICKSEED WEST, INC            GGPO
TXBWIC20080-725320019164PLANTATION PRODUCTS LLC       GGPO
TXBWIC20080-952420001510POPPELMANN PLASTICS           GGPO
TXBWIC20080-230770000258PREMIER TECH HORTICULTURE     GGPO
TXBWIC20080-236260000453PRICE BEVILLE SMITH           GGPO
TXBWIC20080-238830000205PRICE BEVILLE SMITH           GGPO
TXBWIC20080-246540000022PRICE BEVILLE SMITH           GGPO
TXBWIC20080-322210000232PRICE BEVILLE SMITH           GGPO
TXBWIC20080-329030000491PRICE BEVILLE SMITH           GGPO
TXBWIC20080-373210000214PRICE BEVILLE SMITH           GGPO
TXBWIC20080-428530001084PRICE BEVILLE SMITH           GGPO
TXBWIC20080-501970000084PRICE BEVILLE SMITH           GGPO
TXBWIC20080-715490000021PRICE BEVILLE SMITH           GGPO
TXBWIC20080-726930001793PRICE BEVILLE SMITH           GGPO
TXBWIC20080-843690000114PRICE BEVILLE SMITH           GGPO
TXBWIC20080-851990000040PRICE BEVILLE SMITH           GGPO
TXBWIC20080-952420007067PRICE BEVILLE SMITH           GGPO
TXBWIC20080-952520001573PRICE BEVILLE SMITH           GGPO
TXBWIC20086-870730000326PRICE BEVILLE SMITH           GGPO
TXBWIC20087-203430000063PRICE BEVILLE SMITH           GGPO
TXBWIC20087-264820000107PRICE BEVILLE SMITH           GGPO
TXBWIC20087-322210000938PRICE BEVILLE SMITH           GGPO
TXBWIC20087-689800000079PRICE BEVILLE SMITH           GGPO
TXBWIC20087-709320000217PRICE BEVILLE SMITH           GGPO
TXBWIC20088-155620000041PRICE BEVILLE SMITH           GGPO
TXBWIC20088-744800000371PRICE BEVILLE SMITH           GGPO
TXBWIC20088-042730000716PRODUCER'S COOP               GGPO
TXBWIC20087-610490000494PYGAR USA INC.                GGPO
TXBWIC20087-839290002167PYGAR USA INC.                GGPO
TXBWIC20080-230770000460RED CARPET STUDIOS LTD        GGPO
TXBWIC20080-238830000122RED CARPET STUDIOS LTD        GGPO
TXBWIC20080-373210000161RED CARPET STUDIOS LTD        GGPO
TXBWIC20080-428530000119RED CARPET STUDIOS LTD        GGPO
TXBWIC20080-702510000111RED CARPET STUDIOS LTD        GGPO
TXBWIC20080-726930000383RED CARPET STUDIOS LTD        GGPO
TXBWIC20080-728680000123RED CARPET STUDIOS LTD        GGPO
TXBWIC20080-956680000027RED CARPET STUDIOS LTD        GGPO
TXBWIC20086-870730000422RED CARPET STUDIOS LTD        GGPO
TXBWIC20087-191950000026RED CARPET STUDIOS LTD        GGPO
TXBWIC20087-322210000053RED CARPET STUDIOS LTD        GGPO
TXBWIC20087-423840000159RED CARPET STUDIOS LTD        GGPO
TXBWIC20087-768960000012RED CARPET STUDIOS LTD        GGPO
TXBWIC20087-126260001911RED HILL LAVA PRODUCTS, INC   GGPO
TXBWIC20080-101060000050RUSTIC ARROW                  GGPO
TXBWIC20080-238830000075RUSTIC ARROW                  GGPO
TXBWIC20080-532910000412RUSTIC ARROW                  GGPO
TXBWIC20080-735610000021RUSTIC ARROW                  GGPO
TXBWIC20087-689800046412SANCO INDUSTRIES, INC.        GGPO
TXBWIC20086-870730053048SBM LIFE SCIENCE CORP/BAYER   GGPO
TXBWIC20087-256090000173SBM LIFE SCIENCE CORP/BAYER   GGPO
TXBWIC20087-256090000288SEYMOUR OF SYCAMORE           GGPO
TXBWIC20080-708050000360SHAFER SEED COMPANY           GGPO
TXBWIC20087-080560000700SHAFER SEED COMPANY           GGPO
TXBWIC20087-768960138694SHAFER SEED COMPANY           GGPO
TXBWIC20080-221790000080SHAKE AWAY                    GGPO
TXBWIC20087-896660000217SHAKE AWAY                    GGPO
TXBWIC20088-143730000108SHAKE AWAY                    GGPO
TXBWIC20087-322210000047SMITHERS-OASIS                GGPO
TXBWIC20087-203430000261SOLO, INCORPORATED            GGPO
TXBWIC20087-256090002368SOLO, INCORPORATED            GGPO
TXBWIC20087-591880000289SOLO, INCORPORATED            GGPO
TXBWIC20080-718980014300SPECIALTY FEEDS INC           GGPO
TXBWIC20086-990640002824ST. GABRIEL ORGANICS          GGPO
TXBWIC20080-428530027163STERLING INTERNATIONAL INC.   GGPO
TXBWIC20084-285370000522STERLING INTERNATIONAL INC.   GGPO
TXBWIC20080-238830000152STONECASTER, LLC              GGPO
TXBWIC20080-467530000072STONECASTER, LLC              GGPO
TXBWIC20080-527320000086STONECASTER, LLC              GGPO
TXBWIC20080-537440000036STONECASTER, LLC              GGPO
TXBWIC20080-726930001715STONECASTER, LLC              GGPO
TXBWIC20080-952420002273STONECASTER, LLC              GGPO
TXBWIC20087-256090000898STONECASTER, LLC              GGPO
TXBWIC20087-296400000093STONECASTER, LLC              GGPO
TXBWIC20087-296410000038STONECASTER, LLC              GGPO
TXBWIC20087-322210000784STONECASTER, LLC              GGPO
TXBWIC20080-185060016481SUMMIT CHEMICAL COMPANY       GGPO
TXBWIC20080-786270012086SWAN PRODUCTS, LLC            GGPO
TXBWIC20087-867270003039SWAN PRODUCTS, LLC            GGPO
TXBWIC20087-296400000309SWEETLIX LLC                  GGPO
TXBWIC20087-296410000094SWEETLIX LLC                  GGPO
TXBWIC20080-726930000327SWISH, INCORPORATED           GGPO
TXBWIC20087-322210000198SWISH, INCORPORATED           GGPO
TXBWIC20080-238830000349SYNGENTA                      GGPO
TXBWIC20080-322470000030SYNGENTA                      GGPO
TXBWIC20080-467530000039SYNGENTA                      GGPO
TXBWIC20080-501970000042SYNGENTA                      GGPO
TXBWIC20080-537440000236SYNGENTA                      GGPO
TXBWIC20080-664980000075SYNGENTA                      GGPO
TXBWIC20080-701830000434SYNGENTA                      GGPO
TXBWIC20080-745140000025SYNGENTA                      GGPO
TXBWIC20080-786270000075SYNGENTA                      GGPO
TXBWIC20087-296410000036SYNGENTA                      GGPO
TXBWIC20087-322210000131SYNGENTA                      GGPO
TXBWIC20080-425790000540SYNGENTA PCS                  GGPO
TXBWIC20080-956680000081SYNGENTA PCS                  GGPO
TXBWIC20086-870730000158SYNGENTA PCS                  GGPO
TXBWIC20087-296400000479SYNGENTA PCS                  GGPO
TXBWIC20087-296410000444SYNGENTA PCS                  GGPO
TXBWIC20080-221790000064TENNESSEE FARMERS COOPERATIVE GGPO
TXBWIC20080-425790000171TENNESSEE FARMERS COOPERATIVE GGPO
TXBWIC20087-322210000558TENNESSEE FARMERS COOPERATIVE GGPO
TXBWIC20080-537440001680TEXAS BASKET COMPANY          GGPO
TXBWIC20080-843690002560THE ANDERSONS                 GGPO
TXBWIC20088-436910000026THE ANDERSONS                 GGPO
TXBWIC20080-221790000039THE DRAMM COMPANY-COMMERCIAL  GGPO
TXBWIC20080-238830000171THE DRAMM COMPANY-COMMERCIAL  GGPO
TXBWIC20080-353070000012THE DRAMM COMPANY-COMMERCIAL  GGPO
TXBWIC20080-726930000500THE DRAMM COMPANY-COMMERCIAL  GGPO
TXBWIC20080-269780001520THE DRAMM COMPANY-RETAIL      GGPO
TXBWIC20080-364340006704THE DRAMM COMPANY-RETAIL      GGPO
TXBWIC20081-003640007573THE DRAMM COMPANY-RETAIL      GGPO
TXBWIC20087-689800004147THE DRAMM COMPANY-RETAIL      GGPO
TXBWIC20088-583850000841THE DRAMM COMPANY-RETAIL      GGPO
TXBWIC20080-238830000123THE ESPOMA COMPANY            GGPO
TXBWIC20080-501970042723THE ESPOMA COMPANY            GGPO
TXBWIC20085-019700000727THE ESPOMA COMPANY            GGPO
TXBWIC20088-170850002500THE GREAT STATES CORP         GGPO
TXBWIC20080-112470000055THE HC COMPANIES INC          GGPO
TXBWIC20080-373210000408THE HC COMPANIES INC          GGPO
TXBWIC20080-537440000036THE HC COMPANIES INC          GGPO
TXBWIC20080-727250000131THE HC COMPANIES INC          GGPO
TXBWIC20080-848650000075THE HC COMPANIES INC          GGPO
TXBWIC20086-510820000023THE HC COMPANIES INC          GGPO
TXBWIC20087-296410000189THE HC COMPANIES INC          GGPO
TXBWIC20087-591880000017THE HC COMPANIES INC          GGPO
TXBWIC20080-329030014441THE HC COMPANIES, INC         GGPO
TXBWIC20087-709320000468THE HC COMPANIES, INC         GGPO
TXBWIC20080-322240000093THE SCOTTS COMPANY-RETAIL DIV GGPO
TXBWIC20080-322470101829THE SCOTTS COMPANY-RETAIL DIV GGPO
TXBWIC20080-368650003203THE SCOTTS COMPANY-RETAIL DIV GGPO
TXBWIC20080-487450000048THE SCOTTS COMPANY-RETAIL DIV GGPO
TXBWIC20080-701830030820THE SCOTTS COMPANY-RETAIL DIV GGPO
TXBWIC20080-714590004583THE SCOTTS COMPANY-RETAIL DIV GGPO
TXBWIC20080-715490016797THE SCOTTS COMPANY-RETAIL DIV GGPO
TXBWIC20080-735610011778THE SCOTTS COMPANY-RETAIL DIV GGPO
TXBWIC20083-224700000157THE SCOTTS COMPANY-RETAIL DIV GGPO
TXBWIC20083-224750001988THE SCOTTS COMPANY-RETAIL DIV GGPO
TXBWIC20083-224780012240THE SCOTTS COMPANY-RETAIL DIV GGPO
TXBWIC20087-154900020262THE SCOTTS COMPANY-RETAIL DIV GGPO
TXBWIC20087-356100006921THE SCOTTS COMPANY-RETAIL DIV GGPO
TXBWIC20087-356130002706THE SCOTTS COMPANY-RETAIL DIV GGPO
TXBWIC20088-886030007448THE SCOTTS COMPANY-RETAIL DIV GGPO
TXBWIC20081-817520002598THERMACELL MOSQUITO REPELLANT GGPO
TXBWIC20088-436540003130THERMACELL MOSQUITO REPELLANT GGPO
TXBWIC20088-744800039952TUFF STUFF PRODUCTS, INC.     GGPO
TXBWIC20080-848650000054TURNER SEED CO                GGPO
TXBWIC20080-501970000042TWO OLD GOATS, LLC            GGPO
TXBWIC20080-726930000245TWO OLD GOATS, LLC            GGPO
TXBWIC20087-322210000165TWO OLD GOATS, LLC            GGPO
TXBWIC20080-114230002224UNITED INDUSTRIES             GGPO
TXBWIC20080-711210003376UNITED INDUSTRIES             GGPO
TXBWIC20080-745140000199UNITED INDUSTRIES             GGPO
TXBWIC20086-511240010762UNITED INDUSTRIES             GGPO
TXBWIC20080-322210000633VALHOMA CORPORATION           GGPO
TXBWIC20080-415350000102VALHOMA CORPORATION           GGPO
TXBWIC20080-425790000163VALHOMA CORPORATION           GGPO
TXBWIC20080-501970000030VALHOMA CORPORATION           GGPO
TXBWIC20080-726930000049VALHOMA CORPORATION           GGPO
TXBWIC20087-191950000105VALHOMA CORPORATION           GGPO
TXBWIC20087-423840000322VALHOMA CORPORATION           GGPO
TXBWIC20088-144850004907VALLEY INDUSTRIES             GGPO
TXBWIC20088-148500001681VALLEY INDUSTRIES             GGPO
TXBWIC20088-164030006752VALLEY INDUSTRIES             GGPO
TXBWIC20087-423840000151VERY COOL STUFF               GGPO
TXBWIC20080-322210205350VOLUNTARY PURCHASING          GGPO
TXBWIC20080-537440000104VOLUNTARY PURCHASING          GGPO
TXBWIC20087-322210716085VOLUNTARY PURCHASING          GGPO
TXBWIC20087-322240000840VOLUNTARY PURCHASING          GGPO
TXBWIC20088-642090000030VOLUNTARY PURCHASING          GGPO
TXBWIC20080-353070000162WALDO & ASSOCIATES, INC.      GGPO
TXBWIC20080-364340000031WEYCO GROUP                   GGPO
TXBWIC20080-373210000055WEYCO GROUP                   GGPO
TXBWIC20080-425790000594WEYCO GROUP                   GGPO
TXBWIC20080-467530000051WEYCO GROUP                   GGPO
TXBWIC20080-537440000214WEYCO GROUP                   GGPO
TXBWIC20080-727250000043WEYCO GROUP                   GGPO
TXBWIC20080-843690000954WEYCO GROUP                   GGPO
TXBWIC20080-857650000626WEYCO GROUP                   GGPO
TXBWIC20081-008430000018WEYCO GROUP                   GGPO
TXBWIC20084-023570000043WEYCO GROUP                   GGPO
TXBWIC20087-296410000026WEYCO GROUP                   GGPO
TXBWIC20087-322210000228WEYCO GROUP                   GGPO
TXBWIC20087-768960000192WEYCO GROUP                   GGPO
TXBWIC20088-744800000007WEYCO GROUP                   GGPO
TXBWIC20080-992840000600WILLIAMSON GREENHOUSES        GGPO
TXBWIC20080-007090000054WOODSTREAM CORPORATION        GGPO
TXBWIC20080-246540003294WOODSTREAM CORPORATION        GGPO
TXBWIC20080-363480004061WOODSTREAM CORPORATION        GGPO
TXBWIC20080-432560000322WOODSTREAM CORPORATION        GGPO
TXBWIC20080-709230002474WOODSTREAM CORPORATION        GGPO
TXBWIC20080-710920002730WOODSTREAM CORPORATION        GGPO
TXBWIC20080-728680043094WOODSTREAM CORPORATION        GGPO
TXBWIC20080-789780002530WOODSTREAM CORPORATION        GGPO
TXBWIC20087-178160000034WOODSTREAM CORPORATION        GGPO
TXBWIC20087-438600000120WOODSTREAM CORPORATION        GGPO
TXBWIC20087-557400000097WOODSTREAM CORPORATION        GGPO
