NJARET2111 -82155-96190-20000176D0001588D0006000005GXP158CC  GGSL
NJARET21110-07633-31219-70000024D0000384D0000200000AP30218DW GGSL
NJARET21110-10367-00001-80000270D0001121D00022000030001      GGSL
NJARET21110-10367-00300-20000012D0000152D00000000000300      GGSL
NJARET21110-10367-00460-30000120D0000748D000050000304608     GGSL
NJARET21110-10367-00560-00000320D0001350D000600003405608     GGSL
NJARET21110-10367-01000-00000024D0000333D00002000011000      GGSL
NJARET21110-10367-01010-90000001D0000211D0000000000ML101012DIGGSL
NJARET21110-10367-01010-90000036D0000572D00000000011010      GGSL
NJARET21110-10367-01020-80000072D0001245D00007000021020      GGSL
NJARET21110-10367-01050-50000012D0000151D00004000001050      GGSL
NJARET21110-10367-01110-60000576D0002258D00084000161110      GGSL
NJARET21110-10367-01111-30000440D0001725D00060000091111      GGSL
NJARET21110-10367-01112-00000128D0000502D00060000081112      GGSL
NJARET21110-10367-01120-50000416D0001631D00103000171120      GGSL
NJARET21110-10367-01121-20000408D0002401D00041000181121      GGSL
NJARET21110-10367-01122-90000712D0004190D00053000121122      GGSL
NJARET21110-10367-01130-40000664D0004256D00053000031130      GGSL
NJARET21110-10367-01140-30000072D0000280D00045000021140      GGSL
NJARET21110-10367-01151-90000104D0000362D00042000041151      GGSL
NJARET21110-10367-01230-10000024D0000097D00010000011230      GGSL
NJARET21110-10367-01240-00000036D0000213D00017000021240      GGSL
NJARET21110-10367-02131-00000008D0000038D0000100000ML2131    GGSL
NJARET21110-10367-02151-80000008D0000060D0000000000ML2151    GGSL
NJARET21110-10367-03020-60000008D0000048D0000900000ML3020    GGSL
NJARET21110-11192-60612-30000008D0000075D0000300002KGFH      GGSL
NJARET21110-11423-94108-50000006D0000070D0000200000HG94108   GGSL
NJARET21110-12587-60034-40000024D0000212D000770000060034     GGSL
NJARET21110-14021-00738-20000020D0000115D00004000007110      GGSL
NJARET21110-14021-01418-20000096D0000442D00006000011024      GGSL
NJARET21110-14021-01418-20000080D0000367D00001000001040      GGSL
NJARET21110-14306-92845-60000005D0000094D0000100000US295702  GGSL
NJARET21110-14400-21411-00000012D0000099D00050000001440021411GGSL
NJARET21110-14400-40000-10000012D0000084D000020000040000ZFP  GGSL
NJARET21110-14400-61000-40000008D0000087D000130000761000     GGSL
NJARET21110-14400-62000-30000001D0000013D000110001162000     GGSL
NJARET21110-14400-66000-90000002D0000025D000110000966000ZFP  GGSL
NJARET21110-14400-71065-00000012D0000054D00011000001440071065GGSL
NJARET21110-14400-71265-40000012D0000054D00008000001440071265GGSL
NJARET21110-14400-71400-90000012D0000039D00008000001440071400GGSL
NJARET21110-14400-80400-70000002D0000014D00008000011440080400GGSL
NJARET21110-14400-81200-20000002D0000023D00005000011440081200GGSL
NJARET21110-15759-01509-00000006D0000170D0000000000R1209LG   GGSL
NJARET21110-16069-00002-80000012D0000091D0000600000NEOR      GGSL
NJARET21110-16069-00005-90000144D0001096D0001000009TP15C     GGSL
NJARET21110-16069-00007-30000012D0000083D0000100000BN1       GGSL
NJARET21110-16069-00008-00000120D0000854D0006400007BN2       GGSL
NJARET21110-16069-00013-40000042D0001264D0001400014BN3       GGSL
NJARET21110-16069-00014-10000030D0000686D0000500003BN4       GGSL
NJARET21110-16069-00030-10000006D0000083D0000000000OW6       GGSL
NJARET21110-16069-00032-50000108D0001217D0007200006HG25      GGSL
NJARET21110-16069-00033-20000012D0000271D0002100004HG50      GGSL
NJARET21110-16069-00038-70000024D0000234D0000000000GF1015    GGSL
NJARET21110-16069-00047-90000024D0000183D0000700001TE12C     GGSL
NJARET21110-16069-00049-30000036D0000094D0000300003DX7       GGSL
NJARET21110-16069-00060-80000015D0000043D0000000000RAP15     GGSL
NJARET21110-16069-00076-90000018D0000123D0003600001PN10      GGSL
NJARET21110-16069-00079-00000006D0000202D0001200000PN28      GGSL
NJARET21110-16069-00218-30000012D0000073D0000800003HST100    GGSL
NJARET21110-16069-00393-70000360D0001372D0001100002GS20      GGSL
NJARET21110-16069-00401-90000112D0001120D0000200001GF4050    GGSL
NJARET21110-16069-00436-10000015D0000040D0000000000TWST100   GGSL
NJARET21110-16069-00474-30000048D0000324D0000200002GS40BW    GGSL
NJARET21110-16069-00479-80000040D0001063D0008800003E316B     GGSL
NJARET21110-16069-00498-90000042D0000485D0017000002HGP1012   GGSL
NJARET21110-16069-00499-60000020D0000385D0015000005HGP1020   GGSL
NJARET21110-16069-00518-40000072D0000369D0000500004SG2512    GGSL
NJARET21110-16069-00546-70000004D0000175D0000900004RRBG4     GGSL
NJARET21110-16069-00622-80000096D0000406D0001700003CP612     GGSL
NJARET21110-16069-00626-60000010D0000065D0000000000PTG210    GGSL
NJARET21110-16069-00667-90000008D0000179D0000100001RH04US    GGSL
NJARET21110-16500-54010-60000012D0000056D0000100000HG54010   GGSL
NJARET21110-16500-98041-40000048D0000054D001360000098041     GGSL
NJARET21110-17500-08120-00000072D0000101D001150000708120     GGSL
NJARET21110-17500-08150-70000384D0000611D000850001108150     GGSL
NJARET21110-17500-08150-70000252D0000401D001430000008150M    GGSL
NJARET21110-17500-90206-20000054D0001270D001600003090206     GGSL
NJARET21110-17500-91316-70000018D0000424D000320000391316     GGSL
NJARET21110-18062-00019-70000096D0000452D0000500001PT06MCCS  GGSL
NJARET21110-18222-00101-90000114D0000371D0014000011CS06101   GGSL
NJARET21110-18222-00103-30000084D0000273D0004600008CS06103   GGSL
NJARET21110-18222-00105-70000096D0000324D0016900019CS06105   GGSL
NJARET21110-18222-00107-10000084D0000382D0006000003CS06107   GGSL
NJARET21110-18222-00109-50000156D0000509D0017100003CS06109   GGSL
NJARET21110-18222-00110-10000072D0000233D0005500011CS06110   GGSL
NJARET21110-18222-00206-10000036D0000175D0002100003CS06206   GGSL
NJARET21110-18222-00208-50000036D0000179D0001200004CS06208   GGSL
NJARET21110-18222-00213-90000006D0000024D0001900003CS06213   GGSL
NJARET21110-18222-00226-90000012D0000036D0003300000CS04226   GGSL
NJARET21110-18222-00501-70000516D0000862D0016900024CS12501   GGSL
NJARET21110-18222-00503-10000192D0000448D0003700004CS503     GGSL
NJARET21110-18222-00505-50000264D0000322D0010600018CS12505   GGSL
NJARET21110-18222-00507-90000228D0000329D0007200006CS12507   GGSL
NJARET21110-18222-00509-30000216D0000354D0015900082CS12509   GGSL
NJARET21110-18222-00513-00000072D0000174D0001000002CS12513   GGSL
NJARET21110-18222-00526-00000222D0000710D0025200027CS06526   GGSL
NJARET21110-18222-00527-70000396D0000653D0018800095CS12527   GGSL
NJARET21110-18222-00529-10000072D0000144D0005600003CS12529   GGSL
NJARET21110-18222-00531-40000192D0000451D0005200007CS12531   GGSL
NJARET21110-18222-00535-20000204D0000337D0002000002CS12535   GGSL
NJARET21110-18222-00543-70000156D0000189D0001900006CS12543   GGSL
NJARET21110-18222-00545-10000108D0000200D0002200003CS12545   GGSL
NJARET21110-18222-00549-90000024D0000055D0000800000CS12549   GGSL
NJARET21110-18222-00553-60000468D0000816D0026800084CS12553   GGSL
NJARET21110-18222-00559-80000156D0000257D0014900072CS12559   GGSL
NJARET21110-18222-00561-10000048D0000086D0002300000CS12561   GGSL
NJARET21110-18222-00563-50000252D0000454D0011700079CS12563   GGSL
NJARET21110-18222-00565-90000048D0000103D0004800006CS12565   GGSL
NJARET21110-18222-00566-60000036D0000069D0002100004CS12566   GGSL
NJARET21110-18222-00569-70000792D0001495D0021900080CS12569   GGSL
NJARET21110-18222-00571-00000180D0000407D0000400000CS12571   GGSL
NJARET21110-18222-00583-30000228D0000547D0012700060CS12583   GGSL
NJARET21110-18222-00608-30000096D0000368D0001600007CS608     GGSL
NJARET21110-18222-00610-60000048D0000233D0000800002CS610     GGSL
NJARET21110-18222-00611-30000048D0000195D0000100000CS611     GGSL
NJARET21110-18222-00680-90000036D0000087D0001100001CS12680   GGSL
NJARET21110-18222-00701-10000072D0000138D0010600020CS701     GGSL
NJARET21110-18222-00707-30000056D0000178D0004100010CS707     GGSL
NJARET21110-18222-00709-70000054D0000266D0002600009CS709     GGSL
NJARET21110-18222-00730-10000632D0001390D0024700161CS730     GGSL
NJARET21110-18222-00749-30000024D0000139D0001200001CS749     GGSL
NJARET21110-18222-00750-90000008D0000084D0000700000CS750     GGSL
NJARET21110-18222-00753-00000016D0000083D0002800003CS753     GGSL
NJARET21110-18222-00755-40000008D0000028D0002100008CS755     GGSL
NJARET21110-18222-00772-10000012D0000220D0000300000CS772     GGSL
NJARET21110-18222-00807-00000006D0000016D0000900003CS06807   GGSL
NJARET21110-18222-00808-70000006D0000052D0000600000CS12808   GGSL
NJARET21110-18222-00853-70000018D0000061D0001200001CS06853   GGSL
NJARET21110-18222-00907-70000016D0000047D0000800001CS08907   GGSL
NJARET21110-18222-00908-40000008D0000029D0000700000CS08908   GGSL
NJARET21110-18222-00951-00000024D0000097D0001300002CS08951   GGSL
NJARET21110-18222-00954-10000056D0000316D0001300000CS08954   GGSL
NJARET21110-18222-01967-00000018D0000036D0000500001CS06967   GGSL
NJARET21110-18222-02501-50000002D0000020D0001900000CSV08501NLGGSL
NJARET21110-18222-50501-20000060D0000074D0009300002CS1250501XGGSL
NJARET21110-18222-50527-20000036D0000044D0007900012CS1250527XGGSL
NJARET21110-18222-50559-30000108D0000135D0007600002CS1250559XGGSL
NJARET21110-18506-00011-00000006D0000045D00002000000116      GGSL
NJARET21110-18506-00102-50000012D0000052D000340000010212     GGSL
NJARET21110-18506-00110-00000036D0000268D000900000611012     GGSL
NJARET21110-18506-00114-80000012D0000105D000030000311412     GGSL
NJARET21110-18506-00116-20000132D0000872D000000000011612     GGSL
NJARET21110-18506-00117-90000096D0001030D00005000051176      GGSL
NJARET21110-18506-00118-60000006D0000051D00005000031186      GGSL
NJARET21110-18506-00123-00000048D0000273D0000000000123       GGSL
NJARET21110-18506-00130-80000012D0000068D0002900000130       GGSL
NJARET21110-18506-02001-90000012D0000137D00010000032001      GGSL
NJARET21110-19200-00095-60000030D0000078D001870000000027     GGSL
NJARET21110-19200-00619-40001272D0004694D010650006900706     GGSL
NJARET21110-19200-00619-40000132D0000436D000400000000706M    GGSL
NJARET21110-19200-78626-30000099D0000277D002750000278626     GGSL
NJARET21110-19200-78914-10000024D0000068D001870000278914     GGSL
NJARET21110-19200-83262-50000108D0000356D00053000001920082362GGSL
NJARET21110-19200-83623-40000006D0000047D008070000083623     GGSL
NJARET21110-19200-83624-10000012D0000058D002200000083624     GGSL
NJARET21110-19200-83721-70000664D0001700D001000001583721     GGSL
NJARET21110-19200-89973-40000024D0000384D000070000089973     GGSL
NJARET21110-19200-96082-30000018D0000035D000670000296082     GGSL
NJARET21110-19200-98665-60000016D0000071D000860000098665     GGSL
NJARET21110-19200-98666-30000016D0000098D000550000098666     GGSL
NJARET21110-19263-25010-70000007D0000606D00010000082501      GGSL
NJARET21110-19263-25030-50000008D0001110D00032000012503      GGSL
NJARET21110-19263-25035-00000108D0003291D0001500001250350    GGSL
NJARET21110-19263-25045-90000088D0003602D0000100001250450    GGSL
NJARET21110-19263-25050-30000001D0000172D00000000002505      GGSL
NJARET21110-19263-25055-80000104D0005253D0000200002250550    GGSL
NJARET21110-19263-25170-80000005D0000124D00003000002517      GGSL
NJARET21110-19263-25280-40000009D0000129D00000000002528      GGSL
NJARET21110-19263-25350-40000072D0000194D00000000002535      GGSL
NJARET21110-19263-25500-30000275D0000457D00004000042550      GGSL
NJARET21110-19263-25510-20001775D0003816D00180000192551      GGSL
NJARET21110-19263-25520-10001625D0004030D00155000192552      GGSL
NJARET21110-19263-25530-00002775D0007909D00182000342553      GGSL
NJARET21110-19263-25540-90002850D0009605D00146000492554      GGSL
NJARET21110-19263-25550-80001700D0007293D00096000182555      GGSL
NJARET21110-19263-25670-30000006D0000086D00025000052567      GGSL
NJARET21110-19263-25730-40000004D0000080D00000000002573      GGSL
NJARET21110-19263-25750-20000080D0000538D00013000042575      GGSL
NJARET21110-19263-25760-10000444D0003742D00074000072576      GGSL
NJARET21110-19263-25770-00000423D0005541D00053000162577      GGSL
NJARET21110-19263-25780-90000310D0007338D00075000162578      GGSL
NJARET21110-19263-25941-40017000D0001020D00002000022594BK    GGSL
NJARET21110-19263-25950-60001152D0001371D00058000102595      GGSL
NJARET21110-19263-26050-20000200D0000276D00017000002605      GGSL
NJARET21110-19263-26100-40000024D0000083D00000000002610      GGSL
NJARET21110-19263-26190-50000054D0002585D00034000002619      GGSL
NJARET21110-19263-26210-00000240D0002246D00025000142621      GGSL
NJARET21110-19263-26270-40000003D0000093D00000000002627      GGSL
NJARET21110-19263-26280-30000011D0000340D00004000042628      GGSL
NJARET21110-19263-26290-20000001D0000035D00002000012629      GGSL
NJARET21110-19263-26300-80000672D0001620D00107000232630      GGSL
NJARET21110-19263-26310-70000528D0001494D00080000252631      GGSL
NJARET21110-19263-26310-70000576D0001624D00004000012633      GGSL
NJARET21110-19263-26320-30000144D0000350D00001000002632      GGSL
NJARET21110-19263-26530-90000016D0000088D00000000002653      GGSL
NJARET21110-19263-26560-60000032D0000460D00084000042656      GGSL
NJARET21110-19263-26580-40000016D0000334D00011000012658      GGSL
NJARET21110-19263-29030-10000008D0001387D00000000002903      GGSL
NJARET21110-21344-00321-20000044D0001708D0006000045WX15064   GGSL
NJARET21110-21344-00322-90000024D0000931D0003600027WX15065   GGSL
NJARET21110-21344-00338-00000001D0000287D0006100000400338    GGSL
NJARET21110-21344-00339-70000010D0001513D0043800006400339    GGSL
NJARET21110-21344-00340-30000007D0001045D0065400006400340    GGSL
NJARET21110-21344-00344-10000030D0000269D0000600006400344    GGSL
NJARET21110-21344-00345-80000048D0000439D0004700003400345    GGSL
NJARET21110-21344-00346-50000048D0000431D0004900006400346    GGSL
NJARET21110-21344-00347-20000028D0000531D0001400008400347    GGSL
NJARET21110-21344-00348-90000036D0000674D0005400009400348    GGSL
NJARET21110-21344-00349-60000032D0000624D0012700009400349    GGSL
NJARET21110-21344-00350-20000032D0000641D0008900010400350    GGSL
NJARET21110-21344-00361-80000004D0000133D0002200019HQ74912297GGSL
NJARET21110-21344-00362-50000003D0000221D0015500007HQMUSH    GGSL
NJARET21110-21344-00380-90000002D0000372D0004500000JFG18026  GGSL
NJARET21110-21344-00382-30000004D0000444D0005400000JFG18032  GGSL
NJARET21110-21344-00383-00000002D0000371D0000400000JFG18024  GGSL
NJARET21110-21344-00385-40000012D0000318D0000100001JFG18011A GGSL
NJARET21110-21344-00386-10000030D0001470D0002300005JFG18011B GGSL
NJARET21110-21344-00387-80000018D0000589D0003300003JFG18012  GGSL
NJARET21110-21344-00388-50000012D0000075D0000900000JFG18001  GGSL
NJARET21110-21344-00389-20000010D0000145D0005200002JFG18004  GGSL
NJARET21110-21344-00390-80000012D0000306D0000000000JFG18010A GGSL
NJARET21110-21344-00391-50000012D0000432D0005400001JFG18010B GGSL
NJARET21110-21344-00392-20000012D0000095D0003500002JFG18002  GGSL
NJARET21110-21344-00393-90000018D0000574D0000400000JFG18008A GGSL
NJARET21110-21344-00394-60000018D0000443D0001000000JFG18008ASGGSL
NJARET21110-21344-00395-30000024D0000729D0003100003JFG18006  GGSL
NJARET21110-21344-00396-00000016D0000697D0000500000JFG18016  GGSL
NJARET21110-21344-00397-70000021D0001166D0007300007JFG18018  GGSL
NJARET21110-21344-00398-40000002D0000218D0009600000JFG18042  GGSL
NJARET21110-21344-00403-50000004D0000095D0007200005ZT152072  GGSL
NJARET21110-21344-00404-20000001D0000099D0000000000ZT185020  GGSL
NJARET21110-21344-00405-90000001D0000092D0002800021ZT185019  GGSL
NJARET21110-21344-00407-30000005D0000657D0008900006ZT185016  GGSL
NJARET21110-21344-00409-70000072D0000440D0006600005ZT185018  GGSL
NJARET21110-21344-00411-00000004D0000155D0007600004ZT185021  GGSL
NJARET21110-21344-00413-40000012D0000023D0009300000400413    GGSL
NJARET21110-21344-00414-10000012D0000022D0009800000400414    GGSL
NJARET21110-21344-00415-80000012D0000021D0010400000400415    GGSL
NJARET21110-21344-00416-50000012D0000021D0009800000400416    GGSL
NJARET21110-21344-00417-20000012D0000029D0009000000400417    GGSL
NJARET21110-21344-00418-90000012D0000028D0010800000400418    GGSL
NJARET21110-21344-00420-20000012D0000197D0010600000400420    GGSL
NJARET21110-21344-00422-60000008D0000277D0007100001ZT185023  GGSL
NJARET21110-21344-00423-30000054D0009564D0152900417WX17658   GGSL
NJARET21110-21344-00718-00000030D0000743D0012700009WX17422   GGSL
NJARET21110-21344-00719-70000048D0001189D0009800011WX17413   GGSL
NJARET21110-21344-00720-30000078D0001718D0008400009WX17409   GGSL
NJARET21110-21344-00723-40000044D0001206D0012200027WX17402   GGSL
NJARET21110-21344-00724-10000004D0000368D0000700001WXRACK20  GGSL
NJARET21110-21344-00730-20000002D0000035D0000600006BN19193   GGSL
NJARET21110-21344-00733-30000002D0000035D0000600006BN19188   GGSL
NJARET21110-21344-00734-00000004D0000112D0005100006WX17725   GGSL
NJARET21110-21344-00735-70000012D0000306D0004800004WX17577RV GGSL
NJARET21110-21344-00736-40000020D0000510D0005200001WX17578RV GGSL
NJARET21110-21344-00740-10000004D0000171D0002300012WX17818   GGSL
NJARET21110-21344-00746-30000024D0000399D0016900005YS19L005  GGSL
NJARET21110-21344-00747-00000024D0000399D0018100006YS19L004  GGSL
NJARET21110-21344-00748-70000028D0000365D0017700004YS19S002  GGSL
NJARET21110-21344-00749-40000024D0000311D0016300005YS19S003  GGSL
NJARET21110-21344-00750-00000024D0000311D0012200006YS19S001  GGSL
NJARET21110-21344-00762-30000010D0001217D0017500019FDBH1901  GGSL
NJARET21110-21344-00762-30000002D0000299D0003000003MG18387RV GGSL
NJARET21110-21344-00765-40000004D0000420D0009000008MG18390   GGSL
NJARET21110-21344-00766-10000007D0000980D00057000034007661   GGSL
NJARET21110-21344-00775-30000026D0000781D0001900012WX17802   GGSL
NJARET21110-21344-00779-10000006D0000136D0002800003JFG19058B GGSL
NJARET21110-21344-00781-40000010D0000603D0001200004MG18397RV GGSL
NJARET21110-21344-00785-20000002D0000040D0004500003BN19294   GGSL
NJARET21110-21344-00795-10000003D0000501D0003600009MG18389   GGSL
NJARET21110-21344-00796-80000018D0000058D0000600002SSH1822719GGSL
NJARET21110-21344-00799-90000012D0000129D0003000013HS190061C GGSL
NJARET21110-21344-00800-20000018D0000193D0003500015HS190061B GGSL
NJARET21110-21344-00801-90000012D0000129D0001000005HS190061A GGSL
NJARET21110-21344-00802-60000020D0000262D0002200006HS190058C GGSL
NJARET21110-21344-00803-30000008D0000105D0000500005HS190058B GGSL
NJARET21110-21344-00804-00000016D0000210D0003800007HS190058A GGSL
NJARET21110-21344-00805-70000006D0000080D0000800005HS190056  GGSL
NJARET21110-21344-00806-40000032D0000270D0006200007SSH18A025 GGSL
NJARET21110-21344-00807-10000060D0000839D0003200005SSH18A034 GGSL
NJARET21110-21344-00808-80000048D0000249D0003100003SSH18A024 GGSL
NJARET21110-21344-00813-20000004D0000497D00317000224008132   GGSL
NJARET21110-21344-00819-40000012D0000133D0001500001WX17931   GGSL
NJARET21110-21344-00821-70000012D0000133D0002000004WX17932   GGSL
NJARET21110-21344-00822-40000024D0000271D0000900000WX17930   GGSL
NJARET21110-21344-00823-10000012D0000135D0000000000WX17934   GGSL
NJARET21110-21344-00824-80000012D0000128D0003400002WX17933   GGSL
NJARET21110-21344-00826-20000012D0000093D0005200002JFG18011AWGGSL
NJARET21110-21344-00827-90000012D0000110D0003100001JFG18008AWGGSL
NJARET21110-21344-00828-60000012D0000078D0003900001JFG18008ACGGSL
NJARET21110-21344-00830-90000018D0000468D0008400007ZT197002  GGSL
NJARET21110-21344-00831-60000018D0000327D0011800003ZT197003  GGSL
NJARET21110-21344-00832-30000006D0000125D0005400009JFG19007B GGSL
NJARET21110-21344-01159-00000018D0000165D0005400001BN19294S  GGSL
NJARET21110-21344-01160-60000004D0000081D0004900001BN19296   GGSL
NJARET21110-21344-01161-30000030D0000276D0006300004BN19296S  GGSL
NJARET21110-21344-01162-00000004D0000091D0004700001BN19297   GGSL
NJARET21110-21344-01163-70000030D0000295D0005700002BN19297S  GGSL
NJARET21110-21344-01164-40000004D0000082D0005600009BN19299   GGSL
NJARET21110-21344-01165-10000036D0000331D0006200002BN19299S  GGSL
NJARET21110-21344-01166-80000004D0000075D0005800006BN19300   GGSL
NJARET21110-21344-01167-50000024D0000210D0006200004BN19300S  GGSL
NJARET21110-21344-01168-20000010D0000224D0003800013BN19302   GGSL
NJARET21110-21344-01169-90000024D0000221D0004100004BN19302S  GGSL
NJARET21110-21344-01170-50000008D0000968D0002700008FDBH2001  GGSL
NJARET21110-21344-01173-60000004D0000269D0000200002HQ73483050GGSL
NJARET21110-21344-01174-30000004D0000273D0000500005HQ73483068GGSL
NJARET21110-21344-01176-70000002D0000135D0000000000HQ75752836GGSL
NJARET21110-21344-01178-10000002D0000135D0000200002HQ7575453 GGSL
NJARET21110-21344-01179-80000024D0000264D0000600005HS18MR0461GGSL
NJARET21110-21344-01180-40000012D0000191D0002700005HS18MR0463GGSL
NJARET21110-21344-01183-50000006D0000136D0002100003HS20132   GGSL
NJARET21110-21344-01184-20000012D0000223D0006000003HS20134   GGSL
NJARET21110-21344-01185-90000024D0000437D0006400005HS20135   GGSL
NJARET21110-21344-01186-60000006D0000103D0005800008HS20136   GGSL
NJARET21110-21344-01187-30000012D0000169D0008100002HS20137   GGSL
NJARET21110-21344-01188-00000016D0000398D0010500003HS20HS0022GGSL
NJARET21110-21344-01189-70000016D0000398D0009500004HS20HS0023GGSL
NJARET21110-21344-01190-30000016D0000290D0011300004HS20HS0024GGSL
NJARET21110-21344-01191-00000016D0000290D0013700003HS20HS0025GGSL
NJARET21110-21344-01192-70000020D0000484D0003100008HS20HS0026GGSL
NJARET21110-21344-01196-50000008D0000289D0028200009MG19632   GGSL
NJARET21110-21344-01197-20000004D0000182D0027400009MG19633   GGSL
NJARET21110-21344-01201-60000084D0000409D0001400003SSH19S094 GGSL
NJARET21110-21344-01202-30000024D0000261D0003100002SSH19S098 GGSL
NJARET21110-21344-01203-00000040D0000734D0003000002SSH19S104 GGSL
NJARET21110-21344-01204-70000040D0001083D0000100000WX13253   GGSL
NJARET21110-21344-01205-40000044D0001192D0001400002WX13254   GGSL
NJARET21110-21344-01206-10000012D0000204D0000400000WX18811   GGSL
NJARET21110-21344-01207-80000066D0001115D0001500011WX18812   GGSL
NJARET21110-21344-01209-20000028D0000989D0004000013WX18814   GGSL
NJARET21110-21344-01210-80000016D0000565D0001900008WX18815   GGSL
NJARET21110-21344-01211-50000004D0000141D0004700010WX18816   GGSL
NJARET21110-21344-01212-20000036D0000859D0000200002WX18819   GGSL
NJARET21110-21344-01213-90000030D0000716D0000300003WX18820   GGSL
NJARET21110-21344-01214-60000036D0000816D0000900009WX18821   GGSL
NJARET21110-21344-01215-30000037D0005680D0034000049WX18824   GGSL
NJARET21110-21344-01216-00000011D0001944D0058200225WX18825   GGSL
NJARET21110-21344-01218-40000008D0000144D0000900004WX19198   GGSL
NJARET21110-21344-01221-40000004D0000093D0007600023WX19201   GGSL
NJARET21110-21344-01222-10000004D0000166D0011300000WX19203   GGSL
NJARET21110-21344-01223-80000004D0000166D0011000000WX19204   GGSL
NJARET21110-21344-01225-20000012D0000642D0016100005WX19206   GGSL
NJARET21110-21344-01226-90000020D0000244D0008600003WX19256   GGSL
NJARET21110-21344-01227-60000028D0000341D0006300002WX19257   GGSL
NJARET21110-21344-01228-30000020D0000244D0003400002WX19258   GGSL
NJARET21110-21344-01237-50000012D0001994D0001900019WX19270   GGSL
NJARET21110-21344-01240-50000012D0000181D0003600006WX86808283GGSL
NJARET21110-21344-01252-80000004D0000104D0008000004ZT207010B GGSL
NJARET21110-21344-01254-20000004D0000312D0012200000ZT207012B GGSL
NJARET21110-21344-01255-90000010D0000227D0011300000ZT207015  GGSL
NJARET21110-21344-01256-60000012D0000273D0010100000ZT207016  GGSL
NJARET21110-21344-01257-30000006D0000097D0010900002ZT207017B GGSL
NJARET21110-21344-01258-00000002D0000039D0008000010ZT207023A GGSL
NJARET21110-21344-01259-70000002D0000039D0010300007ZT207024A GGSL
NJARET21110-21344-01260-30000011D0000819D0026900013ZT207025  GGSL
NJARET21110-21344-01261-00000010D0000735D0026800013ZT207026  GGSL
NJARET21110-21344-01262-70000010D0000683D0031400019ZT207027  GGSL
NJARET21110-21344-01265-80000001D0000168D0033100004HR30701AA GGSL
NJARET21110-21344-01266-50000005D0000404D0056400002CU297     GGSL
NJARET21110-21344-01267-20000006D0001125D0044500020FP35      GGSL
NJARET21110-21344-01268-90000014D0001648D0031500011HR26182AA GGSL
NJARET21110-21344-01270-20000008D0000212D0022100026HS20153   GGSL
NJARET21110-21344-01273-30000009D0001770D0000400004WX17658A  GGSL
NJARET21110-21964-10121-30000001D0000041D0000300000A6RPX     GGSL
NJARET21110-21964-10200-50000004D0000214D0000000000B7F       GGSL
NJARET21110-21964-20510-20000002D0000182D0000400002YCPD90    GGSL
NJARET21110-21964-25244-10000012D0000400D0000200000CC12N     GGSL
NJARET21110-21964-25257-10000006D0000244D0000400000CC18FM    GGSL
NJARET21110-21964-41086-50000006D0000107D0000000000CJTHM8Y   GGSL
NJARET21110-21964-50059-70000006D0000169D0000000000CJM13FSY  GGSL
NJARET21110-21964-70202-10000012D0000082D0000200000WWM       GGSL
NJARET21110-22179-10012-10000012D0000196D0001300000LG3109    GGSL
NJARET21110-22179-10084-80000036D0000345D0005700000LG7220    GGSL
NJARET21110-22179-10120-30000004D0000181D0001100004LG6510    GGSL
NJARET21110-22179-10124-10000096D0000605D0005500003LG6515    GGSL
NJARET21110-22179-10157-90000048D0001139D0001700003LG6530    GGSL
NJARET21110-22179-10185-20000036D0000454D0001700002LG6500    GGSL
NJARET21110-22179-10246-00000036D0000648D0002400000LG6570    GGSL
NJARET21110-22179-10247-70000004D0000109D0000000000LG7122    GGSL
NJARET21110-22179-10248-40000096D0000890D0003800002LG6575    GGSL
NJARET21110-22179-10258-30000024D0000795D0004800000LG6580    GGSL
NJARET21110-22179-10266-80000012D0000269D0001400001LG6145    GGSL
NJARET21110-22179-10327-60000012D0000131D0002300004LG6148    GGSL
NJARET21110-22179-10363-40000024D0000122D0000000000LG6232    GGSL
NJARET21110-22179-10391-70000012D0000221D0001800000LG6336    GGSL
NJARET21110-22179-10447-10000004D0000092D0000100000LG3382    GGSL
NJARET21110-22179-10448-80000012D0000152D0000400004LG3174    GGSL
NJARET21110-22179-10456-30000004D0000067D0000100000LG3312    GGSL
NJARET21110-22401-00301-50000034D0000464D0008300008THD20     GGSL
NJARET21110-22401-00350-30000024D0000470D0001800002EDG20GMC  GGSL
NJARET21110-22401-00440-10000020D0000659D0008200012PRO40PC   GGSL
NJARET21110-22401-00740-20000010D0000196D0010000008DBRC20    GGSL
NJARET21110-22401-10087-50000028D0000289D0004900010EAR20TMC  GGSL
NJARET21110-22401-10089-90000040D0000786D0000100000BBC20LB   GGSL
NJARET21110-23075-02721-50000016D0000086D0000000000P72H      GGSL
NJARET21110-23865-08808-20000144D0000681D00017000018808      GGSL
NJARET21110-23865-09983-50000720D0002003D00084000159983      GGSL
NJARET21110-23883-01105-50000024D0000098D00006000031105      GGSL
NJARET21110-23883-16100-20000029D0000474D001510003316100     GGSL
NJARET21110-23883-16200-90000022D0000499D001300001416200     GGSL
NJARET21110-23883-20002-20000018D0000441D001500001620002     GGSL
NJARET21110-23883-20010-70000004D0000083D000890000220010     GGSL
NJARET21110-23883-20020-60000004D0000113D000470000320020     GGSL
NJARET21110-24114-22050-50000011D0000379D0000100001220500    GGSL
NJARET21110-24114-30677-30000012D0000052D0000000000776777    GGSL
NJARET21110-24114-70102-80000075D0000115D0005600008701002    GGSL
NJARET21110-24114-70609-20000050D0000219D0000100001706009    GGSL
NJARET21110-24114-71642-80000130D0001247D0003000003701642    GGSL
NJARET21110-24654-05102-70000138D0000814D000950001051026     GGSL
NJARET21110-24654-05922-10000018D0000236D00038000025926      GGSL
NJARET21110-24654-05931-30000036D0000550D00009000005935      GGSL
NJARET21110-24654-05962-70000084D0001027D00056000075962      GGSL
NJARET21110-24654-05981-80000012D0000129D00010000055981      GGSL
NJARET21110-24654-09334-80000003D0000086D00001000009334      GGSL
NJARET21110-24654-51704-20000032D0000339D000050000051704     GGSL
NJARET21110-24654-51806-30000282D0001698D000810003051806     GGSL
NJARET21110-24654-51826-10000072D0000756D000380001251826     GGSL
NJARET21110-24654-51926-80000018D0000189D000200001251926     GGSL
NJARET21110-24654-55025-40001548D0006254D00111000485026      GGSL
NJARET21110-24654-55110-70000348D0002071D001360003351106     GGSL
NJARET21110-24654-55118-30000096D0000788D000420000951186     GGSL
NJARET21110-24654-55325-50000018D0000108D000180000253256     GGSL
NJARET21110-24654-55450-40000072D0000422D000680001954506     GGSL
NJARET21110-24654-55456-60000024D0000196D000120000054566     GGSL
NJARET21110-24654-65452-50000264D0001571D001140002154526     GGSL
NJARET21110-24654-72125-80000030D0000225D0000200002SB125     GGSL
NJARET21110-25033-01703-00000012D0000152D000320000401703     GGSL
NJARET21110-25033-01707-80000006D0000084D000080000201707     GGSL
NJARET21110-25033-01713-90000012D0000173D000430000201713     GGSL
NJARET21110-25033-01717-70000006D0000113D000050000201717     GGSL
NJARET21110-25033-01723-80000004D0000108D000100000201723     GGSL
NJARET21110-25033-02019-10000008D0000527D000270000002019     GGSL
NJARET21110-25033-02077-10000006D0000083D000080000002077     GGSL
NJARET21110-25033-02088-70000006D0000096D000150000102088     GGSL
NJARET21110-25033-02089-40000006D0000061D000100000102089     GGSL
NJARET21110-25033-02134-10000006D0000126D000090000002134     GGSL
NJARET21110-25033-02135-80000006D0000184D000020000102135     GGSL
NJARET21110-25033-02175-40000024D0001100D000010000002175     GGSL
NJARET21110-25033-02212-60000002D0000211D000040000002212     GGSL
NJARET21110-25033-02399-40000012D0000064D000080000002399     GGSL
NJARET21110-25033-02501-10000004D0000043D000100000202501     GGSL
NJARET21110-25033-02510-30000016D0000204D000240000002510     GGSL
NJARET21110-25033-02520-20000004D0000097D000140000002520     GGSL
NJARET21110-25033-02521-90000008D0000218D000070000002521     GGSL
NJARET21110-25033-02522-60000006D0000363D000390000602522     GGSL
NJARET21110-25033-02523-30000005D0000328D000370000202523     GGSL
NJARET21110-25033-02525-70000003D0000221D000320000002525     GGSL
NJARET21110-25033-02527-10000006D0000483D000380000002527     GGSL
NJARET21110-25033-02650-60000002D0000253D000110000002650     GGSL
NJARET21110-25033-02660-50000002D0000340D000570000002660     GGSL
NJARET21110-25033-02720-60000003D0000315D000270000002720     GGSL
NJARET21110-25033-02722-00000002D0000243D000410000002722     GGSL
NJARET21110-25033-02728-20000003D0000497D000070000002728     GGSL
NJARET21110-25033-03760-10000024D0000078D000080000003760     GGSL
NJARET21110-25033-03801-10000014D0000351D000430000003801     GGSL
NJARET21110-25033-03802-80000014D0000343D000310000003802     GGSL
NJARET21110-25033-03820-20000001D0000070D000080000303820     GGSL
NJARET21110-25033-03821-90000002D0000095D000070000303821     GGSL
NJARET21110-25033-03822-60000004D0000115D000140000003822     GGSL
NJARET21110-25033-12201-70000012D0000114D000050000012201     GGSL
NJARET21110-25033-12204-80000006D0000038D000240000012204     GGSL
NJARET21110-25033-12505-60000006D0000038D000040000012505     GGSL
NJARET21110-25033-12585-80000012D0000173D000000000012585     GGSL
NJARET21110-25033-12746-30000072D0001808D000060000012746     GGSL
NJARET21110-25033-20230-60000002D0000613D000030000020230     GGSL
NJARET21110-25849-10381-10000015D0000461D000000000010381RGX  GGSL
NJARET21110-25849-10751-20000054D0000669D00000000001020051RG GGSL
NJARET21110-25849-11330-80000050D0001257D00000000001020030RGXGGSL
NJARET21110-25849-12500-40000030D0001019D00000000001038500RG GGSL
NJARET21110-25881-09942-40000008D0000234D0001200000 09942    GGSL
NJARET21110-25881-11091-40000002D0000008D0001200000 11091    GGSL
NJARET21110-26600-89334-70000016D0000035D002390000089334     GGSL
NJARET21110-26600-89334-70000104D0000201D000240000089334M    GGSL
NJARET21110-26978-02181-60000250D0001360D001500000502181     GGSL
NJARET21110-26978-02182-30000050D0000272D001290000902182     GGSL
NJARET21110-26978-02188-50000030D0000161D001370002302188     GGSL
NJARET21110-26978-02241-70000140D0000836D001300000802241     GGSL
NJARET21110-26978-02242-40000090D0000537D001830001102242     GGSL
NJARET21110-26978-02248-60000070D0000426D001210001402248     GGSL
NJARET21110-26978-02301-80000070D0000566D001380000602301     GGSL
NJARET21110-26978-02302-50000070D0000566D000810000602302     GGSL
NJARET21110-26978-02308-70000030D0000242D000880001902308     GGSL
NJARET21110-26978-02361-20000050D0000502D001050000602361     GGSL
NJARET21110-26978-02362-90000070D0000703D000780000802362     GGSL
NJARET21110-26978-02368-10000050D0000473D000570001902368     GGSL
NJARET21110-26978-03060-30000050D0000273D000190001503060     GGSL
NJARET21110-26978-03062-70000030D0000164D000230001703062     GGSL
NJARET21110-26978-03068-90000020D0000109D000110001103068     GGSL
NJARET21110-26978-03082-50000040D0000406D000310001203082     GGSL
NJARET21110-26978-03088-70000060D0000608D000190000703088     GGSL
NJARET21110-26978-03100-60000020D0000338D00022000180310005   GGSL
NJARET21110-26978-03102-00000055D0000930D00030000160310205   GGSL
NJARET21110-26978-03108-20000060D0001015D00022000160310805   GGSL
NJARET21110-26978-03122-80000040D0000944D00039000100312205   GGSL
NJARET21110-26978-04513-30000005D0000039D000060000004513     GGSL
NJARET21110-26978-04523-20000005D0000063D000100000004523     GGSL
NJARET21110-26978-05041-00000036D0000072D000420000205041     GGSL
NJARET21110-26978-05071-70000216D0000285D000160000205071     GGSL
NJARET21110-26978-05081-60000180D0000292D000130000005081     GGSL
NJARET21110-26978-08060-80000070D0000382D000190000308060     GGSL
NJARET21110-26978-08062-20000100D0000546D000140000408062     GGSL
NJARET21110-26978-08082-00000040D0000406D000010000108082     GGSL
NJARET21110-26978-08098-10000010D0000075D000070000008098     GGSL
NJARET21110-26978-08100-10000045D0000702D00013000040810005   GGSL
NJARET21110-26978-08120-90000005D0000118D00021000040812005   GGSL
NJARET21110-26978-08122-30000005D0000118D00017000100812205   GGSL
NJARET21110-26978-08713-30000002D0000036D000060000008713     GGSL
NJARET21110-26978-10010-80000048D0000194D000170000910010     GGSL
NJARET21110-26978-10012-20000048D0000194D000170000810012     GGSL
NJARET21110-26978-10013-90000048D0000194D000160000810013     GGSL
NJARET21110-26978-10020-70000015D0000125D000320001410020     GGSL
NJARET21110-26978-10022-10000015D0000125D000260000710022     GGSL
NJARET21110-26978-10023-80000025D0000208D000280001410023     GGSL
NJARET21110-26978-10062-70000180D0000545D001290001310062     GGSL
NJARET21110-26978-10068-90000100D0000303D001490000310068     GGSL
NJARET21110-26978-10082-50000120D0000526D001930000910082     GGSL
NJARET21110-26978-10088-70000100D0000438D001750000710088     GGSL
NJARET21110-26978-10102-00000180D0001257D001920001210102     GGSL
NJARET21110-26978-10108-20000090D0000637D001330001210108     GGSL
NJARET21110-26978-10122-80000110D0001176D001610001410122     GGSL
NJARET21110-26978-10128-00000075D0000802D001770001110128     GGSL
NJARET21110-26978-10142-60000075D0001043D001010001010142     GGSL
NJARET21110-26978-10148-50000050D0000695D000740000910148     GGSL
NJARET21110-26978-10180-80000060D0000215D000420000110180     GGSL
NJARET21110-26978-10182-20000100D0000358D000140000410182     GGSL
NJARET21110-26978-10183-90000020D0000072D000400000110183     GGSL
NJARET21110-26978-10185-30000080D0000286D000490000110185     GGSL
NJARET21110-26978-10188-40000010D0000036D000410000210188     GGSL
NJARET21110-26978-10240-90000090D0000355D000590000210240     GGSL
NJARET21110-26978-10242-30000150D0000591D001090000310242     GGSL
NJARET21110-26978-10243-00000060D0000236D000220000110243     GGSL
NJARET21110-26978-10245-40000090D0000355D000590000110245     GGSL
NJARET21110-26978-10248-50000010D0000039D000140000210248     GGSL
NJARET21110-26978-10300-00000040D0000199D000300000110300     GGSL
NJARET21110-26978-10302-40000080D0000398D000380000310302     GGSL
NJARET21110-26978-10303-10000020D0000099D000310000110303     GGSL
NJARET21110-26978-10305-50000060D0000298D000340000110305     GGSL
NJARET21110-26978-10308-60000030D0000144D000270000210308     GGSL
NJARET21110-26978-10360-40000040D0000248D000150000110360     GGSL
NJARET21110-26978-10362-80000050D0000310D000240000410362     GGSL
NJARET21110-26978-10363-50000010D0000062D000140000110363     GGSL
NJARET21110-26978-10365-90000030D0000186D000260000010365     GGSL
NJARET21110-26978-10368-00000020D0000124D000170000310368     GGSL
NJARET21110-26978-16190-10000190D0000927D001360000516190     GGSL
NJARET21110-26978-16192-50000250D0001220D002590003316192     GGSL
NJARET21110-26978-16193-20000080D0000390D000920000716193     GGSL
NJARET21110-26978-16195-60000220D0001074D001810000516195     GGSL
NJARET21110-26978-16198-70000050D0000244D000320000216198     GGSL
NJARET21110-26978-16240-30000330D0002076D001510001216240     GGSL
NJARET21110-26978-16242-70000330D0002076D002670004316242     GGSL
NJARET21110-26978-16243-40000170D0001071D001240000816243     GGSL
NJARET21110-26978-16245-80000280D0001761D001530000616245     GGSL
NJARET21110-26978-16248-90000080D0000504D000180000516248     GGSL
NJARET21110-26978-16300-40000200D0001607D001400000916300     GGSL
NJARET21110-26978-16302-80000210D0001693D002270003716302     GGSL
NJARET21110-26978-16303-50000140D0001128D000590000616303     GGSL
NJARET21110-26978-16305-90000130D0001043D001180000716305     GGSL
NJARET21110-26978-16308-00000050D0000403D000250000616308     GGSL
NJARET21110-26978-16360-80000180D0001986D000900000516360     GGSL
NJARET21110-26978-16362-20000200D0002206D001080002316362     GGSL
NJARET21110-26978-16363-90000050D0000551D000520000516363     GGSL
NJARET21110-26978-16365-30000110D0001215D000930000316365     GGSL
NJARET21110-26978-16368-40000030D0000330D000250000516368     GGSL
NJARET21110-26978-26140-30000110D0001159D000710001026140     GGSL
NJARET21110-26978-26142-70000080D0000843D001300002026142     GGSL
NJARET21110-26978-26143-40000020D0000211D000540000426143     GGSL
NJARET21110-26978-26145-80000040D0000422D000910001326145     GGSL
NJARET21110-26978-26148-90000080D0000843D000410001526148     GGSL
NJARET21110-26978-26160-10000028D0000318D000170000126160     GGSL
NJARET21110-26978-26162-50000020D0000227D000090000026162     GGSL
NJARET21110-26978-26163-20000016D0000182D000110000126163     GGSL
NJARET21110-26978-26165-60000028D0000318D000120000126165     GGSL
NJARET21110-26978-26168-70000004D0000045D000380000126168     GGSL
NJARET21110-26978-26180-90000030D0000524D000420000426180     GGSL
NJARET21110-26978-26182-30000060D0001049D000690001526182     GGSL
NJARET21110-26978-26183-00000020D0000350D000290000426183     GGSL
NJARET21110-26978-26185-40000030D0000524D000480001226185     GGSL
NJARET21110-26978-26188-50000040D0000699D000310001526188     GGSL
NJARET21110-26978-26240-00000008D0000111D000000000026240     GGSL
NJARET21110-26978-26242-40000020D0000277D000250000326242     GGSL
NJARET21110-26978-26245-50000016D0000221D000040000126245     GGSL
NJARET21110-26978-26248-60000004D0000055D000300000626248     GGSL
NJARET21110-26978-26270-70000040D0000620D000400000526270     GGSL
NJARET21110-26978-26272-10000040D0000620D000540000626272     GGSL
NJARET21110-26978-26273-80000050D0000776D000200000326273     GGSL
NJARET21110-26978-26275-20000060D0000931D000260002126275     GGSL
NJARET21110-26978-30104-80000102D0000564D000590001230104     GGSL
NJARET21110-26978-30301-10000744D0004709D001410002430301     GGSL
NJARET21110-26978-30312-70000060D0000068D000230000130312     GGSL
NJARET21110-26978-30402-50000168D0001030D000800001430402     GGSL
NJARET21110-26978-30409-40000168D0001030D000500001630409     GGSL
NJARET21110-26978-30411-70000156D0001089D000680001930411     GGSL
NJARET21110-26978-30412-40000012D0000014D000000000030412     GGSL
NJARET21110-26978-30413-10000072D0000503D000570004430413     GGSL
NJARET21110-26978-30413-10000192D0000913D00027000003041396   GGSL
NJARET21110-26978-30500-80000150D0000896D000930001930500     GGSL
NJARET21110-26978-30602-90000126D0000556D000100000630602     GGSL
NJARET21110-26978-30605-00000108D0000476D000310002530605     GGSL
NJARET21110-26978-30702-60000084D0000292D000040000430702     GGSL
NJARET21110-26978-30705-70000150D0000507D000790001830705     GGSL
NJARET21110-26978-30806-10000216D0001015D001270004330806     GGSL
NJARET21110-26978-30901-30000160D0000915D000450001030901     GGSL
NJARET21110-26978-31100-90000045D0000367D000750001431100     GGSL
NJARET21110-26978-31108-50000025D0000204D000410001331108     GGSL
NJARET21110-26978-31109-20000060D0000489D000230000331109     GGSL
NJARET21110-26978-31120-70000045D0000808D000270001731120     GGSL
NJARET21110-26978-31122-10000040D0000718D000140001031122     GGSL
NJARET21110-26978-31128-30000020D0000359D000480002031128     GGSL
NJARET21110-26978-31129-00000035D0000629D000210001031129     GGSL
NJARET21110-26978-32101-50000030D0000315D000130000532100     GGSL
NJARET21110-26978-32108-40000030D0000315D000230001432108     GGSL
NJARET21110-26978-32109-10000010D0000105D000030000232109     GGSL
NJARET21110-26978-32121-30000020D0000367D000080000432120     GGSL
NJARET21110-26978-32128-20000035D0000642D000430001432128     GGSL
NJARET21110-26978-32129-90000015D0000275D000340001532129     GGSL
NJARET21110-26978-34083-20000010D0000075D000000000034083     GGSL
NJARET21110-26978-35050-30000010D0000047D000010000135050     GGSL
NJARET21110-26978-35058-90000010D0000047D000040000335058     GGSL
NJARET21110-26978-35060-20000120D0000655D000200000735060     GGSL
NJARET21110-26978-35068-80000020D0000109D000140000335068     GGSL
NJARET21110-26978-35069-50000050D0000261D000130000835069     GGSL
NJARET21110-26978-35080-00000120D0001217D000780001535080     GGSL
NJARET21110-26978-35081-70000010D0000063D000010000035081     GGSL
NJARET21110-26978-35086-20000020D0000177D000040000135086     GGSL
NJARET21110-26978-35089-30000030D0000304D000050000335089     GGSL
NJARET21110-26978-35090-90000005D0000047D000090000735090     GGSL
NJARET21110-26978-35093-00000005D0000047D000000000035093     GGSL
NJARET21110-26978-35098-50000005D0000047D000010000135098     GGSL
NJARET21110-26978-35100-50000065D0001275D000250001835100     GGSL
NJARET21110-26978-35102-90000035D0000687D000220001835102     GGSL
NJARET21110-26978-35108-10000055D0001079D000360003135108     GGSL
NJARET21110-26978-35109-80000040D0000785D000250001235109     GGSL
NJARET21110-26978-35120-30000015D0000419D000270001435120     GGSL
NJARET21110-26978-35122-70000015D0000357D000160001535122     GGSL
NJARET21110-26978-35126-50000005D0000122D000010000035126     GGSL
NJARET21110-26978-35128-90000025D0000700D000500002835128     GGSL
NJARET21110-26978-35129-60000020D0000536D000210000735129     GGSL
NJARET21110-26978-35188-30000004D0000364D000190000035188     GGSL
NJARET21110-26978-35270-50000002D0000209D000100000335270     GGSL
NJARET21110-26978-35272-90000006D0000626D000150000435272     GGSL
NJARET21110-26978-35278-10000010D0001044D000220002235278     GGSL
NJARET21110-26978-35279-80000002D0000209D000180000335279     GGSL
NJARET21110-26978-36148-60000010D0000173D000320001336148     GGSL
NJARET21110-26978-36220-90000005D0000151D000220000636220     GGSL
NJARET21110-26978-36228-50000020D0000605D000270002436228     GGSL
NJARET21110-26978-38142-20000048D0000337D000450000938142     GGSL
NJARET21110-26978-38146-00000036D0000253D000430000238146     GGSL
NJARET21110-26978-38148-40000156D0001082D000690001138148     GGSL
NJARET21110-26978-38192-70000054D0000828D000670001438192     GGSL
NJARET21110-26978-38196-50000054D0000828D000550000538196     GGSL
NJARET21110-26978-38198-90000114D0001737D001040001638198     GGSL
NJARET21110-26978-39122-30000072D0000392D000400001039122     GGSL
NJARET21110-26978-39126-10000048D0000262D000330000239126     GGSL
NJARET21110-26978-39128-50000144D0000772D000680001339128     GGSL
NJARET21110-26978-39182-70000096D0001245D000810000939182     GGSL
NJARET21110-26978-39186-50000018D0000233D000610001039186     GGSL
NJARET21110-26978-39188-90000102D0001314D001000001339188     GGSL
NJARET21110-26978-48098-30000018D0000100D000230000048098     GGSL
NJARET21110-26978-48128-00000042D0000347D000240000448128     GGSL
NJARET21110-26978-48158-00000036D0000402D000410000248158     GGSL
NJARET21110-26978-63079-70000010D0000071D000060000063079     GGSL
NJARET21110-26978-80101-60000156D0005704D00061000128010112   GGSL
NJARET21110-26978-80105-00000012D0000520D000750000080105     GGSL
NJARET21110-26978-80107-40000012D0000524D00008000008010712   GGSL
NJARET21110-26978-80151-70000004D0000180D00011000008015104   GGSL
NJARET21110-26978-80155-50000004D0000180D000550000980155     GGSL
NJARET21110-26978-81011-30000028D0000845D000370000481011     GGSL
NJARET21110-26978-81015-10000012D0000362D000480000481015     GGSL
NJARET21110-26978-81075-50000006D0000021D000000000081075     GGSL
NJARET21110-26978-81100-40000300D0002835D000540000181100     GGSL
NJARET21110-26978-81101-10000168D0001855D001040002181101     GGSL
NJARET21110-26978-81121-90000072D0000312D000130000081121     GGSL
NJARET21110-26978-81201-80000008D0000441D000160000081201     GGSL
NJARET21110-26978-81700-60000004D0000140D000000000081700     GGSL
NJARET21110-26978-81705-10000004D0000140D000000000081705     GGSL
NJARET21110-27856-10001-20002616D0007770D0003500023P10232    GGSL
NJARET21110-27856-10002-90005064D0026637D0141700288P10264    GGSL
NJARET21110-27856-10002-90023640D0124346D0008200077P10264DP  GGSL
NJARET21110-27856-10008-10000436D0005930D0018100146P101      GGSL
NJARET21110-27856-10009-80000456D0004172D0016200109P128      GGSL
NJARET21110-27856-10015-90000960D0009187D0000000000P102128   GGSL
NJARET21110-27997-00229-90000006D0000152D0002100004TE        GGSL
NJARET21110-28009-11440-50000195D0001287D0000000000T1440     GGSL
NJARET21110-29973-12316-50000070D0000478D000170000214116021P GGSL
NJARET21110-29973-12333-20000232D0000898D003830002114110028P GGSL
NJARET21110-29973-12341-70000139D0000759D0160100062141100216UGGSL
NJARET21110-29973-12349-30000416D0002013D000660001114901028P GGSL
NJARET21110-30541-00066-50000048D0000120D0000800000JCDTP03   GGSL
NJARET21110-30541-00067-20000006D0000052D0000100001JCD100FGP GGSL
NJARET21110-30541-00069-60000012D0000069D0000100000JCD05CMP  GGSL
NJARET21110-30541-00102-00000030D0000162D0000000000JCD02ER   GGSL
NJARET21110-30541-00110-50000012D0000237D0000000000JCD08ER   GGSL
NJARET21110-30541-00501-10000004D0001020D0000000000JCD50BKSM GGSL
NJARET21110-30541-00801-20000005D0000258D0003800000JCD08BKSM GGSL
NJARET21110-30541-01008-40000024D0000060D0000000000JCD024SMD GGSL
NJARET21110-30541-01010-70000036D0000072D0000200001JCD012SMP GGSL
NJARET21110-30541-01020-60000240D0000576D0005700010JCD024SM  GGSL
NJARET21110-30541-01030-50000114D0000978D0007700020JCD100SMJ GGSL
NJARET21110-30541-01034-30000096D0002058D0003400012JCD030SM  GGSL
NJARET21110-30541-01039-80000120D0000600D0007000012JCD05SM   GGSL
NJARET21110-30541-01085-50000024D0000122D0000100001JCD05SMP  GGSL
NJARET21110-30541-08878-60000012D0000036D0000500000SMMS      GGSL
NJARET21110-30541-08879-30000024D0000072D0001100000SMVS      GGSL
NJARET21110-30541-09983-60000050D0000103D0000100000JCDTPP    GGSL
NJARET21110-31340-10005-10000012D0000223D0003700014B550120   GGSL
NJARET21110-31340-10006-80000156D0001756D0020300057B550125   GGSL
NJARET21110-31340-10007-50000066D0002190D0002500002B550130   GGSL
NJARET21110-31340-10008-20000002D0000408D0000100000B550135   GGSL
NJARET21110-31340-10017-40000056D0001037D0004300003B550190   GGSL
NJARET21110-31340-10020-40000008D0000202D0004500000B550205   GGSL
NJARET21110-31417-00058-10000001D0000025D000150000080631131X GGSL
NJARET21110-32247-00900-30000102D0000391D00165000081009001   GGSL
NJARET21110-32247-00910-20000090D0000343D00123000001009101   GGSL
NJARET21110-32247-00950-80000018D0000068D00133000011009501   GGSL
NJARET21110-32247-02515-70000011D0000523D00332000002515      GGSL
NJARET21110-32247-14900-60000008D0000078D000760000014900     GGSL
NJARET21110-32247-14905-10000040D0000343D003040000214905     GGSL
NJARET21110-32247-17183-00000066D0000717D003800000417183     GGSL
NJARET21110-32247-17185-40000044D0001130D001420000217185     GGSL
NJARET21110-32247-17187-80000019D0001199D001700000817187     GGSL
NJARET21110-32247-17290-50000024D0000283D000790000217290     GGSL
NJARET21110-32247-17508-10000024D0000384D004090000417508     GGSL
NJARET21110-32247-17540-10000020D0000618D001430000217540     GGSL
NJARET21110-32247-18272-00000006D0000038D000470000018272     GGSL
NJARET21110-32247-18287-40000006D0000098D000360000018287     GGSL
NJARET21110-32247-20785-00000090D0000386D000540002372078430  GGSL
NJARET21110-32247-21701-90000084D0000828D000830000021701     GGSL
NJARET21110-32247-23001-80000070D0002390D001370000023001     GGSL
NJARET21110-32247-23002-50000024D0000350D000790000023002     GGSL
NJARET21110-32247-23616-40000020D0000520D012370001323616     GGSL
NJARET21110-32247-23622-50000037D0000705D005190000723622     GGSL
NJARET21110-32247-27764-80000064D0000357D000050000572776430  GGSL
NJARET21110-32247-30156-50000004D0000078D001290000330156     GGSL
NJARET21110-32247-31115-80000001D0000074D002820000031115     GGSL
NJARET21110-32247-33002-20000012D0000196D00021000003300210   GGSL
NJARET21110-32247-33040-40000023D0000430D008560000233040     GGSL
NJARET21110-32247-33050-30000005D0000229D005720000433050     GGSL
NJARET21110-32247-33160-90000011D0000853D002880000433160     GGSL
NJARET21110-32247-34161-50000005D0000321D007540000634161     GGSL
NJARET21110-32247-36905-30000105D0004265D010010006536905     GGSL
NJARET21110-32247-37610-50000012D0000190D001080000637610C    GGSL
NJARET21110-32247-38505-30000004D0000081D002170000038505     GGSL
NJARET21110-32247-39181-80000005D0000155D009980001039181     GGSL
NJARET21110-32247-42784-50000060D0000262D000260000874278430  GGSL
NJARET21110-32247-47783-30000006D0000027D000090000274778300  GGSL
NJARET21110-32247-49019-10000020D0000254D011030000549019     GGSL
NJARET21110-32247-51105-60000010D0000147D003790001551105     GGSL
NJARET21110-32247-52784-20000018D0000080D000100000085278430  GGSL
NJARET21110-32247-53105-40000010D0000107D003720012053105     GGSL
NJARET21110-32247-53115-30000120D0003665D001130000053115     GGSL
NJARET21110-32247-54105-30000024D0000144D00022000005410510   GGSL
NJARET21110-32247-54204-30000006D0000074D00026000035420406   GGSL
NJARET21110-32247-55783-20000078D0000449D000150000475578300  GGSL
NJARET21110-32247-56211-90000006D0000097D00040000035621106   GGSL
NJARET21110-32247-56513-40000195D0001868D000460000575651300  GGSL
NJARET21110-32247-56523-30000072D0001078D000460000575652300  GGSL
NJARET21110-32247-56783-10000300D0001573D007300000575678300  GGSL
NJARET21110-32247-56783-10000240D0001270D000190000075678309  GGSL
NJARET21110-32247-56863-00000018D0000145D000130001375686300X GGSL
NJARET21110-32247-71060-20000054D0000757D001390000671060     GGSL
NJARET21110-32247-74150-70000360D0002197D0058800047274150    GGSL
NJARET21110-32247-74250-40000396D0003675D0057700026274250    GGSL
NJARET21110-32247-74850-60000184D0003764D0059500026274850    GGSL
NJARET21110-32247-75902-10000002D0000178D000710000075902     GGSL
NJARET21110-32247-76121-50000027D0001087D001360000576121     GGSL
NJARET21110-32247-76232-80000054D0003666D000900000176232     GGSL
NJARET21110-32247-77160-30000312D0001732D0050500038277160    GGSL
NJARET21110-32247-77260-00000180D0001747D0069500031277260    GGSL
NJARET21110-32247-77860-20000078D0001394D0027900010277860    GGSL
NJARET21110-32247-77960-90000180D0004062D0075600020277960    GGSL
NJARET21110-32247-99605-10000069D0001731D010500005199605     GGSL
NJARET21110-32247-99610-50000020D0000974D001740000099610     GGSL
NJARET21110-32903-00169-30000216D0000337D0011100066SLI06000E3GGSL
NJARET21110-32903-00171-60000288D0000449D0003300010SLI06000A3GGSL
NJARET21110-32903-00191-40000036D0000204D0001500006GAB12000E2GGSL
NJARET21110-32903-00192-10000528D0000824D0002800013SLI06000B9GGSL
NJARET21110-32903-00193-80000006D0000152D0000100000TEA17000G2GGSL
NJARET21110-32903-00203-40000002D0000234D0000000000TEA30000G2GGSL
NJARET21110-32903-00214-00000336D0000524D0003000004SLI06000E2GGSL
NJARET21110-32903-00222-50000528D0001051D0002900015SLI08000B9GGSL
NJARET21110-32903-00224-90000036D0000319D0001300004VNP18000E2GGSL
NJARET21110-32903-00227-00000012D0000064D0001600004SVN18000E2GGSL
NJARET21110-32903-00228-70000012D0000261D0000200001ROS15500A3GGSL
NJARET21110-32903-00236-20000006D0000036D0001900004SVN24000E2GGSL
NJARET21110-32903-00240-90000264D0000525D0002800007SLI08000E2GGSL
NJARET21110-32903-00243-00000006D0000043D0000600004SVN30000E2GGSL
NJARET21110-32903-00246-10000264D0000525D0003700006SLI08000A3GGSL
NJARET21110-32903-00257-70000008D0000336D0001400002RZGH210G2 GGSL
NJARET21110-32903-00258-40000216D0000490D0004600005LIA06000E2GGSL
NJARET21110-32903-00264-50000240D0000821D0004400007LIA08000E2GGSL
NJARET21110-32903-00281-20000312D0001598D0004300009LIA10000E2GGSL
NJARET21110-32903-00284-30000008D0000358D0000600000TEA20000G2GGSL
NJARET21110-32903-00287-40000024D0000241D0001800008VNP24000E2GGSL
NJARET21110-32903-00290-40000006D0000078D0001300006VNP30000E2GGSL
NJARET21110-32903-00293-50000168D0000467D0004900008SLI10000E2GGSL
NJARET21110-32903-00309-30000804D0002235D0010500042SLI10000E3GGSL
NJARET21110-32903-00313-00000006D0000073D0001700004GAB18000E2GGSL
NJARET21110-32903-00326-00000192D0001582D0003300007LIA12000E2GGSL
NJARET21110-32903-00332-10000360D0001001D0003700020SLI10000B9GGSL
NJARET21110-32903-00338-30000204D0000567D0004800011SLI10000A3GGSL
NJARET21110-32903-00341-30000156D0001666D0002500007SLI24000E3GGSL
NJARET21110-32903-00359-80001056D0002101D0006900024SLI08000E3GGSL
NJARET21110-32903-04255-90000072D0000764D0003000003LIA14000E2GGSL
NJARET21110-32903-04257-30000144D0000681D0003400007SLI12000E2GGSL
NJARET21110-32903-07519-90000072D0001185D0001800002LIA16000E2GGSL
NJARET21110-32903-07530-40000036D0000182D0003100004SLI14000E2GGSL
NJARET21110-32903-07534-20000030D0000661D0001800003LIA20000E2GGSL
NJARET21110-32903-07558-80000126D0000641D0011600036RZWC1Q0B9 GGSL
NJARET21110-32903-07563-20000036D0000202D0002500004SLI17000E2GGSL
NJARET21110-32903-07577-90000030D0000883D0001300002LIA24000E2GGSL
NJARET21110-32903-12006-60000720D0001634D0009700029LIA06000E3GGSL
NJARET21110-32903-12008-00000840D0002873D0009200023LIA08000E3GGSL
NJARET21110-32903-12010-30000720D0003773D0011400031LIA10000E3GGSL
NJARET21110-32903-12012-70000648D0005322D0010500039LIA12000E3GGSL
NJARET21110-32903-12014-10000396D0004202D0007400029LIA14000E3GGSL
NJARET21110-32903-12017-20000120D0001940D0008400034LIA16000E3GGSL
NJARET21110-32903-12020-20000138D0003042D0005400015LIA20000E3GGSL
NJARET21110-32903-12024-00000084D0002472D0003100005LIA24000E3GGSL
NJARET21110-32903-12312-80000264D0001793D0002200010CNA12000E3GGSL
NJARET21110-32903-12318-00000018D0000096D0001900004SVN18000E3GGSL
NJARET21110-32903-12324-10000018D0000107D0001800006SVN24000E3GGSL
NJARET21110-32903-12330-20000012D0000085D0002400004SVN30000E3GGSL
NJARET21110-32903-12712-60000168D0000951D0003900008GAB12000E3GGSL
NJARET21110-32903-12714-00000072D0000568D0000200002GAB14000E3GGSL
NJARET21110-32903-12718-80000060D0000729D0003500013GAB18000E3GGSL
NJARET21110-32903-12818-50000054D0000478D0002900006VNP18000E3GGSL
NJARET21110-32903-12824-60000066D0000662D0000700006VNP24000E3GGSL
NJARET21110-32903-12830-70000054D0000704D0002600010VNP30000E3GGSL
NJARET21110-32903-23732-00000024D0000206D0001900003SLI20000E2GGSL
NJARET21110-32903-30392-60000072D0000203D0002400007CNA08000E3GGSL
NJARET21110-32903-31000-90000004D0000179D0000100000TEA20000E3GGSL
NJARET21110-32903-35079-10000003D0000205D0000100000TES20000G2GGSL
NJARET21110-32903-35947-30000060D0000259D0004300028CNA10000E3GGSL
NJARET21110-32903-40400-50000144D0000755D0004000012LIA10000A3GGSL
NJARET21110-32903-40493-70000384D0001313D0004900018LIA08000B9GGSL
NJARET21110-32903-40770-90000006D0000053D0002400007VNP18000A3GGSL
NJARET21110-32903-41640-40000288D0000985D0003700006LIA08000A3GGSL
NJARET21110-32903-41717-30000276D0002928D0003700020LIA14000B9GGSL
NJARET21110-32903-41728-90000468D0003856D0005000023LIA12000B9GGSL
NJARET21110-32903-41842-20000006D0000078D0002500006VNP30000A3GGSL
NJARET21110-32903-41909-20000060D0000988D0002500008LIA16000A3GGSL
NJARET21110-32903-42050-00000030D0000883D0001600002LIA24000A3GGSL
NJARET21110-32903-42240-50000360D0000817D0005100017LIA06000B9GGSL
NJARET21110-32903-45170-20000180D0001910D0002800008LIA14000A3GGSL
NJARET21110-32903-45342-30000006D0000060D0002200009VNP24000A3GGSL
NJARET21110-32903-45788-90000018D0000530D0001500004LIA24000B9GGSL
NJARET21110-32903-46337-80000132D0002173D0003000006LIA16000B9GGSL
NJARET21110-32903-46966-00000030D0000661D0001700005LIA20000A3GGSL
NJARET21110-32903-47208-00000168D0001384D0003600006LIA12000A3GGSL
NJARET21110-32903-48101-30000312D0000708D0004300005LIA06000A3GGSL
NJARET21110-32903-48538-70000078D0001719D0000800003LIA20000B9GGSL
NJARET21110-32903-50286-20000132D0000590D0003100008HSI10008E2GGSL
NJARET21110-32903-50763-80000528D0002497D0009800032SLI12000E3GGSL
NJARET21110-32903-50764-50000096D0000485D0001000005SLI14000B9GGSL
NJARET21110-32903-50766-90000004D0000235D0000500000TEA24000G2GGSL
NJARET21110-32903-50767-60000192D0000908D0002800004SLI12000A3GGSL
NJARET21110-32903-50794-20000240D0001135D0003100015SLI12000B9GGSL
NJARET21110-32903-50802-40000288D0001454D0008900020SLI14000E3GGSL
NJARET21110-32903-50803-10000108D0000545D0002900006SLI14000A3GGSL
NJARET21110-32903-53271-50000018D0000192D0001500004SLI24000E2GGSL
NJARET21110-32903-56391-70000252D0001126D0005400014HSI10008A1GGSL
NJARET21110-32903-59134-70000004D0000404D0000100000TES24000E3GGSL
NJARET21110-32903-61152-60000030D0000759D0000200000TEA17000E3GGSL
NJARET21110-32903-61636-10000228D0001019D0005600020HSI10008B6GGSL
NJARET21110-32903-66002-90000030D0000562D0002000004ROP28000E3GGSL
NJARET21110-32903-72233-80000336D0001761D0004100023LIA10000B9GGSL
NJARET21110-32903-72886-60000072D0000642D0006900011RZWC1G0B9 GGSL
NJARET21110-32903-75049-20000144D0001236D0005300013SLI20000E3GGSL
NJARET21110-32903-75051-50000036D0000202D0003200009SLI17000A3GGSL
NJARET21110-32903-75057-70000132D0000741D0001400006SLI17000B9GGSL
NJARET21110-32903-75070-60000012D0000103D0001400006SLI20000A3GGSL
NJARET21110-32903-75076-80000002D0000202D0000400000TES24000G2GGSL
NJARET21110-32903-75080-50000324D0001818D0004200013SLI17000E3GGSL
NJARET21110-32903-75081-20000042D0000360D0000100001SLI20000B9GGSL
NJARET21110-32903-75084-30000018D0000192D0002000005SLI24000A3GGSL
NJARET21110-32903-75089-80000042D0000449D0001100003SLI24000B9GGSL
NJARET21110-32903-91270-80000008D0000326D0001300004RZGH210E3 GGSL
NJARET21110-32903-91300-20000006D0000047D0000000000VNP2400G18GGSL
NJARET21110-32903-91484-90000015D0000242D0001300005SPX24DB0E3GGSL
NJARET21110-32903-91485-60000030D0000485D0002600015SPX24DBA34GGSL
NJARET21110-32903-91516-70000544D0003737D0003200012PPF1000   GGSL
NJARET21110-32903-91575-40000012D0000161D0000300000PZA1200Y35GGSL
NJARET21110-33200-00544-50003802D0042041D041320075300544     GGSL
NJARET21110-33200-01191-00000148D0001050D001570001701191     GGSL
NJARET21110-33200-06527-20000072D0001295D02274000236527      GGSL
NJARET21110-33200-09142-40000432D0003020D000830000709142     GGSL
NJARET21110-33200-09293-30000192D0001377D00627000009293      GGSL
NJARET21110-33200-11321-80000693D0000919D001350002411321     GGSL
NJARET21110-33200-11448-20000012D0000018D000830000011448     GGSL
NJARET21110-33200-94182-80001722D0018653D025390025594182     GGSL
NJARET21110-33200-97209-90000004D0000032D000490000097209     GGSL
NJARET21110-33200-97242-60000024D0000190D001640000097242     GGSL
NJARET21110-33200-97457-40001344D0014152D019350000097457     GGSL
NJARET21110-33349-05082-50000032D0000099D0002200000JP506     GGSL
NJARET21110-33349-41251-70000030D0000091D0000300001JS50      GGSL
NJARET21110-33349-41701-70001000D0000121D0000800005J4BULK    GGSL
NJARET21110-33349-66009-30000042D0000268D0000300001T72HST14  GGSL
NJARET21110-33607-51200-30000004D0000144D0000300000RC3       GGSL
NJARET21110-34411-74501-40000048D0001376D00012000008745011002GGSL
NJARET21110-34613-00011-90000024D0000232D0001600000LH011     GGSL
NJARET21110-34613-00012-60000012D0000116D0000700000LH012     GGSL
NJARET21110-34613-00014-00000012D0000116D0002200000LH014     GGSL
NJARET21110-34613-00015-70000036D0000507D0001100000LH015     GGSL
NJARET21110-34613-00022-50000006D0000102D0000500004LH022     GGSL
NJARET21110-34613-00212-00000024D0000052D0000000000CVS006HD  GGSL
NJARET21110-34613-00215-10000024D0000074D0000000000CVS010HD  GGSL
NJARET21110-34613-00225-00000025D0000108D0013400000225       GGSL
NJARET21110-34613-00884-90000024D0000057D0000000000CVS008HD  GGSL
NJARET21110-34613-01150-40000040D0000173D00007000001150PDQ   GGSL
NJARET21110-34613-01160-30000010D0000033D00001000001160      GGSL
NJARET21110-34613-01161-00000012D0000044D00005000001161PDQ   GGSL
NJARET21110-34613-01180-10000048D0000142D00004000001180PDQ   GGSL
NJARET21110-34613-01501-40000012D0000024D00007000031501      GGSL
NJARET21110-34613-01502-10000012D0000024D00004000001502      GGSL
NJARET21110-34613-01901-20000036D0000350D00086000061901      GGSL
NJARET21110-34613-01902-90000120D0001168D00052000121902      GGSL
NJARET21110-34613-01903-60000132D0001284D00042000181903      GGSL
NJARET21110-34613-01905-00000012D0000118D00007000031905      GGSL
NJARET21110-34613-03104-50000036D0000391D00056000023104      GGSL
NJARET21110-34613-03105-20000012D0000163D00000000003105      GGSL
NJARET21110-34613-03124-30000006D0000085D00000000003124      GGSL
NJARET21110-34613-04857-90000006D0000099D00003000005826BL    GGSL
NJARET21110-34613-04879-10000006D0000106D00000000004879BL    GGSL
NJARET21110-34613-05012-10000024D0000066D00000000005012BL    GGSL
NJARET21110-34613-08138-50000006D0000113D00001000008138      GGSL
NJARET21110-34613-08401-00000006D0000095D00000000008401      GGSL
NJARET21110-34613-08446-10000012D0000204D0002000000BF24      GGSL
NJARET21110-34613-34004-80000125D0000031D0000400000CVS004    GGSL
NJARET21110-34613-34007-90000025D0000009D0000000000CVS007    GGSL
NJARET21110-34613-34010-90000050D0000040D0000200002CVS010    GGSL
NJARET21110-34613-59946-00000001D0000122D002420021159946     GGSL
NJARET21110-34613-59947-70000001D0000122D002450021659947     GGSL
NJARET21110-34613-65680-40000002D0000086D005300051965680     GGSL
NJARET21110-34613-66637-70000002D0000474D000010000166637     GGSL
NJARET21110-34613-70001-90000012D0000057D000000000070001     GGSL
NJARET21110-34613-91126-20000020D0000141D000020000091126     GGSL
NJARET21110-35000-05361-90001020D0000704D0031300003105375    GGSL
NJARET21110-35000-05364-00001224D0001294D0000000000105374    GGSL
NJARET21110-35000-14112-50000432D0002138D000870000014477     GGSL
NJARET21110-35000-14120-00000372D0001841D001870000014478     GGSL
NJARET21110-35000-14328-00000402D0001990D001240000014483     GGSL
NJARET21110-35000-39131-50000024D0000054D000000000039365     GGSL
NJARET21110-35000-44627-50000560D0000598D0007300005144630    GGSL
NJARET21110-35000-44628-20000060D0000073D0004400000144631    GGSL
NJARET21110-35000-44629-90000060D0000073D0005100000144632    GGSL
NJARET21110-35000-44673-20000675D0001037D000880002844673     GGSL
NJARET21110-35000-44674-90000036D0000077D000560000044674     GGSL
NJARET21110-35000-44678-70000099D0000178D000020000244678     GGSL
NJARET21110-35000-45038-50000126D0000271D0002700027US04232A  GGSL
NJARET21110-35000-45041-50000243D0000649D0000600006US04229A  GGSL
NJARET21110-35000-45118-40000171D0000368D0006200023US04268A  GGSL
NJARET21110-35000-45816-20000039D0000236D0009200000MX04966A  GGSL
NJARET21110-35000-46157-50000004D0000026D000580002146157     GGSL
NJARET21110-35000-46413-20000660D0000703D000550000346413     GGSL
NJARET21110-35000-47041-60000054D0000124D0020400000MX06157A  GGSL
NJARET21110-35000-47805-40000045D0000126D000450000047805     GGSL
NJARET21110-35000-49110-70000480D0001646D001180006049110     GGSL
NJARET21110-35000-49860-10000024D0000083D000530002149860     GGSL
NJARET21110-35000-49861-80000210D0000528D000410000049861     GGSL
NJARET21110-35000-49874-80000004D0000020D001880004049874     GGSL
NJARET21110-35000-49875-50000080D0000098D0015200000144633    GGSL
NJARET21110-35000-51119-50000420D0001197D0011100000151119    GGSL
NJARET21110-35000-53030-10000018D0000071D0009300000153043    GGSL
NJARET21110-35000-53031-80000018D0000071D0010600040153042    GGSL
NJARET21110-35000-53032-50000558D0001341D0000000000153041    GGSL
NJARET21110-35000-53058-50000380D0001775D000000000053058     GGSL
NJARET21110-35000-53060-80000560D0006793D009710000453060     GGSL
NJARET21110-35000-53099-80001854D0004264D016980002953099     GGSL
NJARET21110-35000-53122-30001398D0008458D012240000053122     GGSL
NJARET21110-35000-55190-00000342D0001026D0003800000155190    GGSL
NJARET21110-35000-96987-30001173D0007097D0027600000MX06813A  GGSL
NJARET21110-35000-97018-30001144D0007367D0008200002US06329A  GGSL
NJARET21110-35000-97298-90000072D0000334D0007100005US06490A  GGSL
NJARET21110-35000-97301-60000068D0000331D0016400000US06489A  GGSL
NJARET21110-35000-97335-10001464D0008755D0017900000US06517A  GGSL
NJARET21110-35000-97336-80000932D0005578D0051100022US06516A  GGSL
NJARET21110-35000-97337-50000024D0000144D0002300000US06515A  GGSL
NJARET21110-35000-97343-60000894D0002101D0023700000US06522A  GGSL
NJARET21110-35000-98595-80000006D0000027D0004100000US07369A  GGSL
NJARET21110-35000-98635-10000048D0000075D0003700000MX07179A  GGSL
NJARET21110-35110-01900-00000384D0002887D000700000001900     GGSL
NJARET21110-35110-01903-10000148D0001413D000550000101903     GGSL
NJARET21110-35110-04307-40000004D0000045D0003900001US05253A  GGSL
NJARET21110-35307-00402-40000012D0000050D0000200002402       GGSL
NJARET21110-35307-00404-80000012D0000050D0000200001404       GGSL
NJARET21110-35307-00781-00000108D0001121D0000200001781       GGSL
NJARET21110-35307-00782-70000024D0000249D0000400004782       GGSL
NJARET21110-35307-00803-90000012D0000024D0000200002803       GGSL
NJARET21110-35307-00805-30000024D0000066D0000200002805       GGSL
NJARET21110-35307-00808-40000024D0000066D0000200002808       GGSL
NJARET21110-35307-00812-10000192D0000530D0013000048812       GGSL
NJARET21110-35307-00816-90000012D0000019D0000500004816       GGSL
NJARET21110-35307-00817-60000024D0000065D0000300003817       GGSL
NJARET21110-35307-00818-30000060D0000124D0000600006818       GGSL
NJARET21110-35307-00819-00000108D0000239D0004000007819       GGSL
NJARET21110-35307-00820-60000120D0000232D0000400004820       GGSL
NJARET21110-35307-00826-80000108D0000239D0008900025826       GGSL
NJARET21110-35307-00827-50000204D0000459D0008100025827       GGSL
NJARET21110-35307-00828-20000072D0000199D0000100001828       GGSL
NJARET21110-35307-00829-90000024D0000088D0001000000829       GGSL
NJARET21110-35307-00834-30000108D0000374D0001500015834       GGSL
NJARET21110-35307-00835-00000012D0000080D0002200014835       GGSL
NJARET21110-35307-00838-10000036D0000125D0000600006838       GGSL
NJARET21110-35307-00839-80000216D0000778D0007200024839       GGSL
NJARET21110-35307-00840-40000132D0000364D0008500027840       GGSL
NJARET21110-35307-00841-10000180D0000373D0011800032841       GGSL
NJARET21110-35307-00843-50000096D0000324D0001000010843       GGSL
NJARET21110-35307-00844-20000228D0000629D0010900015844       GGSL
NJARET21110-35307-00845-90000060D0000274D0000400003845       GGSL
NJARET21110-35307-00846-60000192D0000691D0003700006846       GGSL
NJARET21110-35307-00848-00000072D0000174D0000800008848       GGSL
NJARET21110-35307-00857-20000024D0000150D0000200002857       GGSL
NJARET21110-35307-00859-60000012D0000043D0000000000859       GGSL
NJARET21110-35307-00861-90000156D0000540D0002600007861       GGSL
NJARET21110-35307-00862-60000048D0000166D0001100008862       GGSL
NJARET21110-35307-00864-00000024D0000108D0001500005864       GGSL
NJARET21110-35307-00865-70000072D0000299D0000300003865       GGSL
NJARET21110-35307-00869-50000024D0000249D0000700002869       GGSL
NJARET21110-35307-00874-90000012D0000020D0002300005874       GGSL
NJARET21110-35307-00875-60000432D0001793D0003600028875       GGSL
NJARET21110-35307-00877-00000048D0000080D0000200002877       GGSL
NJARET21110-35307-00916-60000216D0000596D0001700005916       GGSL
NJARET21110-35307-00917-30000120D0000382D0001400007917       GGSL
NJARET21110-35307-00967-80000132D0000329D0000900009967       GGSL
NJARET21110-35307-00970-80000024D0000233D0001700017970       GGSL
NJARET21110-35307-00971-50000060D0000332D0000800008971       GGSL
NJARET21110-35307-00972-20000168D0001102D0002500008972       GGSL
NJARET21110-35307-00977-70000228D0000675D0006100013977       GGSL
NJARET21110-35307-00978-40000216D0001495D0002600022978       GGSL
NJARET21110-35307-00979-10000072D0000099D0000100001979       GGSL
NJARET21110-35307-00980-70000192D0000330D0001300003980       GGSL
NJARET21110-35307-00985-20000024D0000066D0000400004985       GGSL
NJARET21110-35307-00987-60000216D0000970D0002500009987       GGSL
NJARET21110-35307-01025-40000036D0000065D00000000001025      GGSL
NJARET21110-35307-01030-80000096D0000226D00001000011030      GGSL
NJARET21110-35307-01035-30000144D0000397D00009000021035      GGSL
NJARET21110-35307-01040-70000216D0000747D00008000021040      GGSL
NJARET21110-35307-01045-20000216D0000970D00017000081045      GGSL
NJARET21110-35307-01050-60000240D0001327D00006000011050      GGSL
NJARET21110-35307-01601-00000156D0002051D00076000261601      GGSL
NJARET21110-35307-01605-80000003D0000076D00000000001605      GGSL
NJARET21110-35307-01612-60000300D0001452D00098000291612      GGSL
NJARET21110-35307-01618-80000006D0000038D00003000001618      GGSL
NJARET21110-35307-01630-00000012D0000100D00000000001630      GGSL
NJARET21110-35307-01635-50000006D0000096D00003000011635      GGSL
NJARET21110-35307-01638-60000006D0000029D00000000001638      GGSL
NJARET21110-35307-01640-90000012D0000083D00004000041640      GGSL
NJARET21110-35307-01810-60000192D0001021D00060000241810      GGSL
NJARET21110-35307-01815-10000096D0000664D00042000171815      GGSL
NJARET21110-35307-01820-50000018D0000224D00000000001820      GGSL
NJARET21110-35307-01825-00000096D0001063D00009000081825      GGSL
NJARET21110-35307-01825-00000006D0000066D000020000218256     GGSL
NJARET21110-35307-01830-40000006D0000104D00000000001830      GGSL
NJARET21110-35307-01840-30000006D0000100D00000000001840      GGSL
NJARET21110-35307-01845-80000024D0000299D00011000041845      GGSL
NJARET21110-35307-01845-80000006D0000075D000010000118456     GGSL
NJARET21110-35307-01860-10000006D0000112D00003000031860      GGSL
NJARET21110-35307-01880-90000003D0000075D00009000001880      GGSL
NJARET21110-35307-90807-00000024D0000046D0001100000807       GGSL
NJARET21110-35307-90858-20000024D0000156D0000000000858       GGSL
NJARET21110-35307-90867-40000006D0000112D0000200000867       GGSL
NJARET21110-35307-90868-10000050D0000249D0001600000868       GGSL
NJARET21110-35307-90872-80000072D0000274D0000200000872       GGSL
NJARET21110-35355-91015-50000025D0000088D000040000091015     GGSL
NJARET21110-35951-07000-00001368D0014550D000150001507000     GGSL
NJARET21110-35951-07007-90000180D0002820D000140000007007     GGSL
NJARET21110-35951-07009-30000336D0007485D000150000107009     GGSL
NJARET21110-35951-07011-60000132D0009265D000100000107011     GGSL
NJARET21110-35951-07013-00000026D0008243D000030000007014     GGSL
NJARET21110-36074-12002-30000024D0000110D0001100000BC07      GGSL
NJARET21110-36151-46825-30000013D0000417D00236000122646825   GGSL
NJARET21110-36241-66300-10000060D0000419D008240000074297     GGSL
NJARET21110-36241-97402-20000012D0000054D0032400000974022    GGSL
NJARET21110-36348-00645-90000006D0000098D00007000010645      GGSL
NJARET21110-36348-00745-60000012D0000303D00061000020745      GGSL
NJARET21110-36348-01020-30000026D0000461D00053000001020      GGSL
NJARET21110-36348-01045-60000002D0000124D00009000021045      GGSL
NJARET21110-36348-01078-40000002D0000078D00023000081078      GGSL
NJARET21110-36348-01079-10000010D0000520D00022000021079      GGSL
NJARET21110-36348-01083-80000001D0000037D00002000021083      GGSL
NJARET21110-36348-01085-20000003D0000210D00018000061085      GGSL
NJARET21110-36348-13769-60000030D0000084D0000000000M137      GGSL
NJARET21110-36434-00009-50000048D0000709D00092000111000009   GGSL
NJARET21110-36434-11000-80000030D0000320D00056000016011000   GGSL
NJARET21110-36434-12342-80000018D0000121D00013000046012342   GGSL
NJARET21110-36434-12343-50000024D0000228D00013000006012343   GGSL
NJARET21110-36434-12345-90000096D0001148D00053000021012345   GGSL
NJARET21110-36434-12346-60000036D0000176D00044000066012346   GGSL
NJARET21110-36434-12352-70000006D0000060D00000000001012352   GGSL
NJARET21110-36434-12353-40000030D0000528D00008000086012353   GGSL
NJARET21110-36434-12362-60000010D0000087D00003000001012362   GGSL
NJARET21110-36434-12363-30000006D0000220D00022000001012363   GGSL
NJARET21110-36434-12420-30000084D0000980D00075000031012420   GGSL
NJARET21110-36434-12700-60000408D0003709D00150000141012700   GGSL
NJARET21110-36434-12710-50000024D0000190D00064000011012710   GGSL
NJARET21110-36434-12720-40000144D0001009D00079000101012720   GGSL
NJARET21110-36434-13001-30000060D0000340D00047000071013001   GGSL
NJARET21110-36434-13700-50000084D0000748D00043000081032700   GGSL
NJARET21110-36434-13860-60000012D0000195D00054000061013860   GGSL
NJARET21110-36434-15000-40000078D0002728D00028000171015000   GGSL
NJARET21110-36434-15020-20000006D0000114D00062000101015020   GGSL
NJARET21110-36434-15040-00000006D0000065D00070000131015040   GGSL
NJARET21110-36434-15060-80000024D0000392D00033000071015050   GGSL
NJARET21110-36434-15060-80000042D0000686D00055000121015060   GGSL
NJARET21110-36434-15070-70000006D0000088D00043000001015070   GGSL
NJARET21110-36434-17000-20000030D0001441D00021000031017000   GGSL
NJARET21110-36434-17010-10000006D0000141D00083000201017010   GGSL
NJARET21110-36434-17050-70000024D0000470D00010000101017050   GGSL
NJARET21110-36434-17051-40000006D0000078D00009000091017051   GGSL
NJARET21110-36434-18037-70000024D0000221D00006000001018037   GGSL
NJARET21110-36434-22310-40000006D0000037D00000000006022310   GGSL
NJARET21110-36434-22318-00000090D0000391D00008000006022318   GGSL
NJARET21110-36434-72700-80000012D0000115D00006000001072700   GGSL
NJARET21110-37000-00992-40000028D0000311D000140000000992     GGSL
NJARET21110-37000-00995-50000396D0004400D000150000000995     GGSL
NJARET21110-37000-00997-90000400D0004444D000000000000997     GGSL
NJARET21110-37000-07312-30000066D0000580D000390000007312     GGSL
NJARET21110-37000-10631-90000210D0001378D002150000010631     GGSL
NJARET21110-37000-19744-70000396D0001548D000950000097584     GGSL
NJARET21110-37000-23542-20000450D0002705D000050000023542     GGSL
NJARET21110-37000-24684-80000138D0001213D000000000024684     GGSL
NJARET21110-37000-31836-10000207D0001451D001870000031836     GGSL
NJARET21110-37000-40215-20000700D0007658D003250000040215     GGSL
NJARET21110-37000-40509-20000672D0002171D000000000011804     GGSL
NJARET21110-37000-41827-60000116D0001169D004130000041827     GGSL
NJARET21110-37000-73977-70000196D0001966D000000000073977     GGSL
NJARET21110-37000-76337-60000420D0003217D001800000076337     GGSL
NJARET21110-37000-92811-90000128D0002367D000000000092811     GGSL
NJARET21110-37000-99042-00000688D0004190D001250000099042     GGSL
NJARET21110-37321-00020-40000396D0003960D0012800013020       GGSL
NJARET21110-37321-00022-80000012D0000081D0003200032022       GGSL
NJARET21110-37321-00022-80001110D0008203D00455003440226      GGSL
NJARET21110-37321-00023-50000028D0000616D0001100008023       GGSL
NJARET21110-37321-00024-20000396D0005928D0012500063024       GGSL
NJARET21110-37321-00025-90000276D0002611D0005900039025       GGSL
NJARET21110-37321-00026-60000132D0002026D00194000180266      GGSL
NJARET21110-37321-00042-60000006D0000081D0000000000042       GGSL
NJARET21110-37321-00050-10000072D0000078D0001100003050       GGSL
NJARET21110-37321-00051-80000096D0001254D0012400040051       GGSL
NJARET21110-37321-00061-70000180D0001451D0013000035061       GGSL
NJARET21110-37321-00065-50000216D0001220D0007000005065       GGSL
NJARET21110-37321-00066-20000204D0002652D0004500013066       GGSL
NJARET21110-37321-00069-30000084D0001205D0003400015069       GGSL
NJARET21110-37321-00070-90000060D0000982D0000600001070       GGSL
NJARET21110-37321-00081-50000024D0000173D0003800007081       GGSL
NJARET21110-37321-00082-20000004D0000069D0000000000082       GGSL
NJARET21110-37321-00098-30000135D0000665D0001200003098       GGSL
NJARET21110-37321-00099-00000132D0000952D0001000007099       GGSL
NJARET21110-37321-00102-70000048D0000602D0001900003102       GGSL
NJARET21110-37321-00103-40000012D0000449D0000100000103       GGSL
NJARET21110-37321-00105-80000192D0000605D0002300011105       GGSL
NJARET21110-37321-00106-50000144D0000454D0010100020106       GGSL
NJARET21110-37321-00107-20000216D0000676D0019900023107       GGSL
NJARET21110-37321-00108-90000216D0000676D0009600059108       GGSL
NJARET21110-37321-00110-20000928D0003285D0012300088110       GGSL
NJARET21110-37321-00112-60000760D0002674D0033600171112       GGSL
NJARET21110-37321-00114-00000624D0002196D0016400023114       GGSL
NJARET21110-37321-00116-40000192D0000674D0009400014116       GGSL
NJARET21110-37321-00120-10000312D0002012D0008300032120       GGSL
NJARET21110-37321-00121-80000072D0000937D0004100023121       GGSL
NJARET21110-37321-00123-20000024D0000107D0001300000123       GGSL
NJARET21110-37321-00127-00000300D0002679D0010900044127       GGSL
NJARET21110-37321-00141-60000204D0001000D0005300020141       GGSL
NJARET21110-37321-00148-50000156D0001663D0004300023148       GGSL
NJARET21110-37321-00150-80000192D0003322D0011700042150       GGSL
NJARET21110-37321-00166-90000048D0000280D0003600004166       GGSL
NJARET21110-37321-00167-60000048D0000313D00112000371676      GGSL
NJARET21110-37321-00171-30000024D0000232D0000300001171       GGSL
NJARET21110-37321-00196-60000120D0000758D0001000006196       GGSL
NJARET21110-37321-00197-30000408D0002628D0006200005197       GGSL
NJARET21110-37321-00198-00000036D0000433D0000800003198       GGSL
NJARET21110-37321-00202-40000012D0000131D0001500001202       GGSL
NJARET21110-37321-00202-40000084D0000958D00142000132026      GGSL
NJARET21110-37321-00204-80000024D0000725D0004000010204       GGSL
NJARET21110-37321-00205-50000004D0000223D0000500001205       GGSL
NJARET21110-37321-00210-90000036D0000215D0000500005210       GGSL
NJARET21110-37321-00210-90000144D0000976D00162000172106      GGSL
NJARET21110-37321-00211-60000072D0000684D00088000292116      GGSL
NJARET21110-37321-00212-30000020D0000454D0001500006212       GGSL
NJARET21110-37321-00213-00000048D0000550D0005100033213       GGSL
NJARET21110-37321-00214-70000720D0004284D0029600069214       GGSL
NJARET21110-37321-00217-80000024D0000266D0001300005217       GGSL
NJARET21110-37321-00218-50000018D0000294D00067000082186      GGSL
NJARET21110-37321-00225-30000012D0000073D0000200002225       GGSL
NJARET21110-37321-00227-70000048D0000603D0004200014227       GGSL
NJARET21110-37321-00230-70000042D0000385D00073000222306      GGSL
NJARET21110-37321-00237-60000012D0000162D0000700004237       GGSL
NJARET21110-37321-00237-60000120D0001667D00080000092376      GGSL
NJARET21110-37321-00238-30000414D0003751D00491001232386      GGSL
NJARET21110-37321-00239-00000040D0000983D0005900028239       GGSL
NJARET21110-37321-00240-60000084D0001493D00066000192406      GGSL
NJARET21110-37321-00250-50000012D0000065D0001700009250       GGSL
NJARET21110-37321-00250-50000582D0003259D00143000762506      GGSL
NJARET21110-37321-00252-90000216D0002884D00276000252526      GGSL
NJARET21110-37321-00253-60000096D0002040D0005600018253       GGSL
NJARET21110-37321-00255-00000012D0000278D0002200013255       GGSL
NJARET21110-37321-00257-40000012D0000048D0002600005257       GGSL
NJARET21110-37321-00257-40000054D0000228D00051000202576      GGSL
NJARET21110-37321-00272-70000024D0000117D00036000142726      GGSL
NJARET21110-37321-00274-10000120D0000829D003020004827466     GGSL
NJARET21110-37321-00285-70000240D0001495D0010700015285       GGSL
NJARET21110-37321-00301-40000048D0000444D0004100008301       GGSL
NJARET21110-37321-00307-60000204D0001008D0016600046307       GGSL
NJARET21110-37321-00308-30000024D0000267D0004300001308       GGSL
NJARET21110-37321-00309-00000084D0001656D0016100029309       GGSL
NJARET21110-37321-00312-00000012D0000258D0003900009312       GGSL
NJARET21110-37321-00321-20000006D0000036D0000200003321       GGSL
NJARET21110-37321-00330-40000024D0000250D0000800004330       GGSL
NJARET21110-37321-00363-20000144D0000710D0002100021363       GGSL
NJARET21110-37321-00370-00000108D0000530D0004300007370       GGSL
NJARET21110-37321-00371-70000084D0000533D00016000103716      GGSL
NJARET21110-37321-00372-40000016D0000175D0004400012372       GGSL
NJARET21110-37321-00404-20000012D0000101D0001900000404       GGSL
NJARET21110-37321-00411-00001200D0004452D0005900008411       GGSL
NJARET21110-37321-00412-70002760D0015815D0005000000412       GGSL
NJARET21110-37321-00413-40000008D0000104D0000800000413       GGSL
NJARET21110-37321-00420-20000003D0000194D0000000000420       GGSL
NJARET21110-37321-00426-40000060D0000676D0004100010426       GGSL
NJARET21110-37321-00428-80000060D0000259D0010300020428       GGSL
NJARET21110-37321-00429-50000006D0000129D0006100015429       GGSL
NJARET21110-37321-00442-40000132D0000931D0004900016442       GGSL
NJARET21110-37321-00443-10000036D0000425D0002200014443       GGSL
NJARET21110-37321-00506-30000162D0000799D00053000245066      GGSL
NJARET21110-37321-00527-80000084D0000390D0001600010527       GGSL
NJARET21110-37321-00530-80000052D0000562D0005200006530       GGSL
NJARET21110-37321-00543-80000042D0000146D00053000165436      GGSL
NJARET21110-37321-00544-50000012D0000075D00058000035446      GGSL
NJARET21110-37321-00549-00000024D0000246D0001400000549       GGSL
NJARET21110-37321-00564-30000024D0000272D00036000365646      GGSL
NJARET21110-37321-00569-80000006D0000285D0000000000569       GGSL
NJARET21110-37321-00578-00000004D0000049D0000600000578       GGSL
NJARET21110-37321-00603-90000016D0000219D0004700002603       GGSL
NJARET21110-37321-00609-10000144D0001679D0013500026609       GGSL
NJARET21110-37321-00611-40000152D0003251D0013000032611       GGSL
NJARET21110-37321-00612-10000240D0001356D00157000480612      GGSL
NJARET21110-37321-00613-80000008D0000116D00040000010613      GGSL
NJARET21110-37321-00622-00000024D0000088D0002900010622       GGSL
NJARET21110-37321-00623-70000060D0000442D0001900008623       GGSL
NJARET21110-37321-00629-90000048D0000172D0004600012629       GGSL
NJARET21110-37321-00631-20000132D0000572D0010400084631       GGSL
NJARET21110-37321-00651-00000004D0000056D00019000090651      GGSL
NJARET21110-37321-00655-80000210D0001554D00055000546556      GGSL
NJARET21110-37321-00681-70000008D0000117D00018000030681      GGSL
NJARET21110-37321-00687-90000024D0000346D0000000000687       GGSL
NJARET21110-37321-00688-60000126D0000895D00139001216886      GGSL
NJARET21110-37321-00690-90000060D0000697D0003600006690       GGSL
NJARET21110-37321-00691-60000004D0000037D00069000006914      GGSL
NJARET21110-37321-00692-30000208D0002854D0009700008692       GGSL
NJARET21110-37321-00692-30000016D0000198D0028100124692X      GGSL
NJARET21110-37321-00692-30000050D0000652D000020000069250     GGSL
NJARET21110-37321-00697-80000120D0000515D0002100006697       GGSL
NJARET21110-37321-00698-50000132D0000826D0000500005698       GGSL
NJARET21110-37321-00705-00000528D0003633D0006800030705       GGSL
NJARET21110-37321-00728-90000012D0000167D0000300000728       GGSL
NJARET21110-37321-00730-20000072D0000446D0005500009730       GGSL
NJARET21110-37321-00752-40000006D0000047D0000800003752       GGSL
NJARET21110-37321-00754-80000004D0000126D0000700002754       GGSL
NJARET21110-37321-00758-60000076D0000567D0007800026758       GGSL
NJARET21110-37321-00771-50000324D0001792D0009600026771       GGSL
NJARET21110-37321-00775-30000012D0000072D0000100001775       GGSL
NJARET21110-37321-00775-30000792D0004966D00348001327756      GGSL
NJARET21110-37321-00777-70000036D0000373D0000600006777       GGSL
NJARET21110-37321-00784-50000060D0000197D0002100021784       GGSL
NJARET21110-37321-00786-90000066D0000364D00089000127866      GGSL
NJARET21110-37321-00788-30000072D0000505D0001700008788       GGSL
NJARET21110-37321-00789-00000010D0000077D0076200057789       GGSL
NJARET21110-37321-00802-60000012D0000075D0000700002802       GGSL
NJARET21110-37321-00806-40000156D0001398D0001000010806       GGSL
NJARET21110-37321-00806-40000036D0000322D00074000278066      GGSL
NJARET21110-37321-00807-10000016D0000445D0000500003807       GGSL
NJARET21110-37321-00811-80000174D0002168D00127000278116      GGSL
NJARET21110-37321-00813-20000096D0001495D0010900049813       GGSL
NJARET21110-37321-00857-60000060D0000578D0001800003857       GGSL
NJARET21110-37321-00858-30000036D0000574D0000500002858       GGSL
NJARET21110-37321-00862-00000048D0000683D0000200002862       GGSL
NJARET21110-37321-00863-70000018D0000238D0000500005863       GGSL
NJARET21110-37321-00865-10000468D0002735D0010700007865       GGSL
NJARET21110-37321-00868-20000012D0000172D0000500005868       GGSL
NJARET21110-37321-00876-70000012D0000081D0000700000876       GGSL
NJARET21110-37321-00880-40000144D0001902D0001700017880       GGSL
NJARET21110-37321-00881-10000012D0000287D0000300000881       GGSL
NJARET21110-37321-00883-50000252D0001378D00198000408836      GGSL
NJARET21110-37321-00894-10000012D0000113D0000200001894       GGSL
NJARET21110-37321-00897-20000300D0002229D00190001298976      GGSL
NJARET21110-37321-00903-00000036D0000260D0001200009903       GGSL
NJARET21110-37321-00909-20000024D0000518D0000400004909       GGSL
NJARET21110-37321-00917-70000084D0001266D0001200012917       GGSL
NJARET21110-37321-00925-20001872D0006140D0055100140925       GGSL
NJARET21110-37321-00939-90000084D0001077D0006600006939       GGSL
NJARET21110-37321-00941-20000168D0001981D0004900006941       GGSL
NJARET21110-37321-00946-70000027D0000252D000010000094627     GGSL
NJARET21110-37321-00951-10003300D0014994D0021200110951       GGSL
NJARET21110-37321-00982-50000084D0000393D0009600023982       GGSL
NJARET21110-37321-00987-00000024D0000238D0001100007987       GGSL
NJARET21110-37321-00991-70000060D0000416D0000500000991       GGSL
NJARET21110-37321-00992-40000012D0000117D0000000000992       GGSL
NJARET21110-37321-01971-80000048D0000241D00008000021971      GGSL
NJARET21110-37321-01972-50000084D0000389D00013000021972      GGSL
NJARET21110-37321-02021-90000024D0000419D00053000112021      GGSL
NJARET21110-37321-02031-80000030D0000998D00022000022031      GGSL
NJARET21110-37321-02041-70000006D0000397D00000000002041      GGSL
NJARET21110-37321-02061-50000072D0001442D00024000082061      GGSL
NJARET21110-37321-02071-40000024D0000853D00025000032071      GGSL
NJARET21110-37321-02360-90000072D0000263D00071000402360      GGSL
NJARET21110-37321-02360-90000108D0000851D001060009723606     GGSL
NJARET21110-37321-02361-60000012D0000147D00025000022361      GGSL
NJARET21110-37321-02361-60000092D0001174D001870012423614     GGSL
NJARET21110-37321-02361-60000048D0000635D000020000223618     GGSL
NJARET21110-37321-02362-30000028D0000589D00036000122362      GGSL
NJARET21110-37321-02392-00000024D0000859D00033000122392      GGSL
NJARET21110-37321-02600-60000012D0000165D00038000102600      GGSL
NJARET21110-37321-02601-30000030D0000703D00035000102601      GGSL
NJARET21110-37321-02602-00000108D0000681D00062000552602      GGSL
NJARET21110-37321-02603-70000024D0000387D00034000252603      GGSL
NJARET21110-37321-02604-40000003D0000064D00019000022604      GGSL
NJARET21110-37321-02610-50000048D0000324D00072000342610      GGSL
NJARET21110-37321-02612-90000024D0000425D00076000092612      GGSL
NJARET21110-37321-02613-60000012D0000125D00018000102613      GGSL
NJARET21110-37321-02615-00000006D0000133D00018000022615      GGSL
NJARET21110-37321-02616-70000004D0000084D00019000132616      GGSL
NJARET21110-37321-02761-40000012D0000278D00001000002761      GGSL
NJARET21110-37321-03081-20000009D0000207D00054000293081      GGSL
NJARET21110-37321-03082-90000003D0000065D00022000123082      GGSL
NJARET21110-37321-04281-50000012D0000275D00028000124281      GGSL
NJARET21110-37321-05121-30000012D0000079D00020000045121      GGSL
NJARET21110-37321-05131-20000016D0000260D00055000065131      GGSL
NJARET21110-37321-05141-10000006D0000236D00036000035141      GGSL
NJARET21110-37321-07458-80000012D0000253D00030000027458      GGSL
NJARET21110-37321-07465-60000020D0000705D00001000017465      GGSL
NJARET21110-37321-07490-80000090D0000428D00299000967490      GGSL
NJARET21110-37321-07493-90000015D0000318D00000000007493      GGSL
NJARET21110-37321-07497-70000012D0000059D00002000027497      GGSL
NJARET21110-37321-07498-40000024D0000303D00012000097498      GGSL
NJARET21110-37321-08636-90000102D0001292D00087000108636      GGSL
NJARET21110-37321-08751-90000012D0000066D00000000008751      GGSL
NJARET21110-37321-45502-80000120D0000668D000290000245502     GGSL
NJARET21110-37321-45602-50000072D0000418D000140000945602     GGSL
NJARET21110-37321-45672-80000036D0000271D000180000545672     GGSL
NJARET21110-37321-45702-20000060D0000418D000160001545702     GGSL
NJARET21110-37321-46125-80000020D0000042D000090000046125     GGSL
NJARET21110-37321-46126-50000200D0000038D000020000046126     GGSL
NJARET21110-37321-46172-20000012D0000060D000010000046172     GGSL
NJARET21110-37321-46401-30000012D0000086D000000000046401     GGSL
NJARET21110-37321-60257-60000002D0000114D000010000060257     GGSL
NJARET21110-37321-60318-40000003D0000104D003210004260318     GGSL
NJARET21110-37321-60360-30000004D0000057D000020000060360     GGSL
NJARET21110-37321-60360-30000022D0000252D005570002260360X    GGSL
NJARET21110-37321-60400-60000015D0000196D005900000060400     GGSL
NJARET21110-37321-60410-50000030D0000498D006020000060410     GGSL
NJARET21110-37321-60414-30000005D0000221D001380000060414     GGSL
NJARET21110-37321-60414-30000090D0003975D000010000060415     GGSL
NJARET21110-37321-60424-20000135D0006047D000000000060425     GGSL
NJARET21110-37321-60454-90000135D0002219D000000000060456     GGSL
NJARET21110-37321-60460-00000030D0000403D002100000060460     GGSL
NJARET21110-37321-60464-80000090D0003236D000000000060465     GGSL
NJARET21110-37321-60476-10000032D0000572D000350000960476     GGSL
NJARET21110-37321-60476-10000028D0000403D008930006660478X    GGSL
NJARET21110-37321-60490-70000020D0000347D001290004060490     GGSL
NJARET21110-37321-60514-00000004D0000059D000370003760514     GGSL
NJARET21110-37321-60514-00000008D0000094D005920022160516X    GGSL
NJARET21110-37321-60613-00000004D0000039D000450004560613     GGSL
NJARET21110-37321-60613-00000010D0000072D006000022960614X    GGSL
NJARET21110-37321-60725-00000063D0000514D000150001160725     GGSL
NJARET21110-37321-60728-10000006D0000090D020610000560728     GGSL
NJARET21110-37321-60728-10000100D0001218D000180000060730     GGSL
NJARET21110-37321-61118-90000024D0000286D000230000561120     GGSL
NJARET21110-37321-61119-60000024D0000416D000010000161121     GGSL
NJARET21110-38313-00008-00000096D0001972D0006400007BP3130    GGSL
NJARET21110-38313-00060-80000036D0000757D0002200005BP3160    GGSL
NJARET21110-38313-00080-60000072D0001661D0002600008BP3180D   GGSL
NJARET21110-38313-00081-30000060D0000625D0003200004AC7220    GGSL
NJARET21110-38313-00217-60000078D0001522D0000400001FS4350    GGSL
NJARET21110-38313-00407-10000018D0000337D0002300005RS7041    GGSL
NJARET21110-38313-00413-20000012D0000246D0001500001 RS7120   GGSL
NJARET21110-38313-00524-50000012D0000321D0000400000SL3310    GGSL
NJARET21110-38313-01010-20000030D0000166D0036400047CT3010    GGSL
NJARET21110-38313-01020-10000156D0000861D0008100008CT3020    GGSL
NJARET21110-38313-01030-00000060D0000331D0015800001CT3030    GGSL
NJARET21110-38313-03060-50000006D0000056D0000300001GT3060    GGSL
NJARET21110-38313-03214-20000024D0000296D0010700012BP3214D   GGSL
NJARET21110-38313-03230-20000006D0000072D0000000000RP3230    GGSL
NJARET21110-38313-03334-70000006D0000078D0000300000AP3334    GGSL
NJARET21110-38313-03710-90000084D0000587D0002300005CT3710    GGSL
NJARET21110-38313-03720-80000042D0000294D0007300009CT3720    GGSL
NJARET21110-38313-03730-70000024D0000168D0006600008CT3730    GGSL
NJARET21110-38313-03740-60000024D0000168D0007300007CT3740    GGSL
NJARET21110-38313-03750-50000018D0000126D0004300012CT3750    GGSL
NJARET21110-38313-04180-90000006D0000079D0000100000BP4180    GGSL
NJARET21110-38313-04436-70000030D0000986D0001500000FL3460    GGSL
NJARET21110-38313-04438-10000018D0000597D0001900000FL3420    GGSL
NJARET21110-38313-04931-70000012D0000098D0000600003AG4930SS  GGSL
NJARET21110-38313-06830-10000002D0000143D0000500004 TP6830   GGSL
NJARET21110-38313-07245-20000012D0000232D0001600001RS7245    GGSL
NJARET21110-38313-08300-70000012D0000089D0000100000AC8300    GGSL
NJARET21110-38313-10720-80000006D0000149D0000200000BP7200    GGSL
NJARET21110-38313-13640-60000012D0000195D0000000000BP3640    GGSL
NJARET21110-38313-15180-50000006D0000144D0001000006BP15180   GGSL
NJARET21110-38313-15409-70000008D0000104D0000400000CT15409   GGSL
NJARET21110-38313-63460-50000006D0000143D0001400002LR3460    GGSL
NJARET21110-38313-63760-60000006D0000074D0001600002GS3760    GGSL
NJARET21110-38313-64250-10000126D0002890D0006600008BP4250    GGSL
NJARET21110-38776-00207-20000012D0000150D0000000000UU1906BK  GGSL
NJARET21110-38776-00307-90000024D0000173D0000000000UU1412BK  GGSL
NJARET21110-38776-51012-60000012D0000060D0000400000UR1212ST  GGSL
NJARET21110-38776-64000-70000012D0000124D0000200000WB3012WH  GGSL
NJARET21110-38776-64003-80000024D0000265D0000100000WB3012TC  GGSL
NJARET21110-38776-64500-20000012D0000106D0000200000WB2412WH  GGSL
NJARET21110-38776-64503-30000024D0000235D0000100000WB2412TC  GGSL
NJARET21110-38858-02012-30000004D0000062D00002000007220041042GGSL
NJARET21110-38858-02018-50000004D0000078D00003000007222041042GGSL
NJARET21110-38858-02020-80000008D0000156D000040000072220422  GGSL
NJARET21110-38858-02024-60000004D0000108D00002000007224041042GGSL
NJARET21110-38858-02026-00000004D0000108D000060000072240422  GGSL
NJARET21110-38858-02038-30000006D0000121D0000000000135806080 GGSL
NJARET21110-38858-02096-30000012D0000028D000000000054061209  GGSL
NJARET21110-38858-05529-30000001D0000026D00002000001398011082GGSL
NJARET21110-38858-05649-80000018D0000098D000040000337510609  GGSL
NJARET21110-38858-05650-40000030D0000179D000020000137520609  GGSL
NJARET21110-38858-05653-50000006D0000068D000060000037550609  GGSL
NJARET21110-38858-05654-20000012D0000068D000030000237560609  GGSL
NJARET21110-38858-05655-90000120D0000782D000020000137570609  GGSL
NJARET21110-38858-05657-30000012D0000078D000000000037590609  GGSL
NJARET21110-38858-05658-00000012D0000064D000000000037600609  GGSL
NJARET21110-38858-05856-00000060D0000121D00004000015606007   GGSL
NJARET21110-38858-05867-60000080D0000267D00007000045634007   GGSL
NJARET21110-38858-05869-00000050D0000213D00001000015642507   GGSL
NJARET21110-38858-05873-70000020D0000146D00000000005661007   GGSL
NJARET21110-38858-06771-50000040D0000727D000030000137770409  GGSL
NJARET21110-38858-06778-40000004D0000127D000020000037850409  GGSL
NJARET21110-38858-06933-70000096D0000182D000050000296501200  GGSL
NJARET21110-38858-06936-80000132D0000845D000060000496801200  GGSL
NJARET21110-38858-07782-00000006D0000125D00000000001200600   GGSL
NJARET21110-38858-07792-90000168D0000750D000100000867152400  GGSL
NJARET21110-38858-07793-60000108D0001239D000190001367161200  GGSL
NJARET21110-38858-09816-00000006D0000026D00001000009331061179GGSL
NJARET21110-38858-09817-70000006D0000026D00000000009331061184GGSL
NJARET21110-38858-09818-40000006D0000062D00001000019332061179GGSL
NJARET21110-38858-09819-10000006D0000062D00002000019332061184GGSL
NJARET21110-38858-09822-10000006D0000056D00003000019333061179GGSL
NJARET21110-38858-09931-00000006D0000051D00001000009311061174GGSL
NJARET21110-38858-09935-80000006D0000051D00000000009311061178GGSL
NJARET21110-38858-09936-50000006D0000087D00001000019312061174GGSL
NJARET21110-38858-09938-90000006D0000087D00001000019312061178GGSL
NJARET21110-38858-10816-60000108D0000475D00006000069685064502GGSL
NJARET21110-38858-10974-30000072D0000227D0000800003140112070 GGSL
NJARET21110-38858-10975-00000030D0000255D0001100003140210070 GGSL
NJARET21110-38858-10976-70000050D0000712D0000000000140310070 GGSL
NJARET21110-38858-10979-80000072D0000232D00016000081406121080GGSL
NJARET21110-38858-10981-10000003D0000110D00003000031404011081GGSL
NJARET21110-38858-10982-80000001D0000131D00001000001405011081GGSL
NJARET21110-38858-10983-50000072D0000232D00008000081406121081GGSL
NJARET21110-38858-10984-20000040D0000362D00005000001407101081GGSL
NJARET21110-38858-10987-30000108D0000343D00004000021406121082GGSL
NJARET21110-38858-10989-70000001D0000039D00001000001404011083GGSL
NJARET21110-38858-10993-40000001D0000039D00003000001404011084GGSL
NJARET21110-38858-11004-60000072D0000214D0000400000141112070 GGSL
NJARET21110-38858-11005-30000020D0000095D0001000004141210070 GGSL
NJARET21110-38858-11007-70000001D0000020D00000000001409011082GGSL
NJARET21110-38858-11009-10000060D0000178D00002000001411121082GGSL
NJARET21110-38858-11011-40000050D0000441D00003000001413101082GGSL
NJARET21110-38858-11014-50000180D0000423D00001000001416121086GGSL
NJARET21110-38858-11019-00000001D0000065D0000100000142101070 GGSL
NJARET21110-38858-11020-60000036D0000102D0000200000142212070 GGSL
NJARET21110-38858-11021-30000010D0000060D0000800000142310070 GGSL
NJARET21110-38858-11023-70000180D0000558D00006000031425121087GGSL
NJARET21110-38858-11024-40000010D0000090D00009000001426101087GGSL
NJARET21110-38858-11288-00000024D0000131D0000000000127012070 GGSL
NJARET21110-38858-11292-70000012D0000166D0001400001127112070 GGSL
NJARET21110-38858-11297-20000012D0000105D0000100000129006070 GGSL
NJARET21110-38858-11298-90000024D0000315D0000000000129106070 GGSL
NJARET21110-38858-11307-80000018D0000123D0000700002131006070 GGSL
NJARET21110-38858-11310-80000048D0000169D0000500002122512070 GGSL
NJARET21110-38858-11311-50000060D0000419D0001000003122612070 GGSL
NJARET21110-38858-11312-20000036D0000338D0000500001122712070 GGSL
NJARET21110-38858-11313-90000036D0000208D0000700000123012070 GGSL
NJARET21110-38858-11314-60000024D0000164D0000900001123112070 GGSL
NJARET21110-38858-11726-70000030D0000161D0000700000142710070 GGSL
NJARET21110-38858-11838-70000020D0000362D0000100001128704070 GGSL
NJARET21110-38858-12008-30000006D0000038D0000100000752069183 GGSL
NJARET21110-38858-13567-40000006D0000177D000060000235500209  GGSL
NJARET21110-38858-13569-80000012D0000123D000040000137800609  GGSL
NJARET21110-38858-13572-80000028D0000714D00002000003776042000GGSL
NJARET21110-38858-13573-50000020D0000685D00009000043777022000GGSL
NJARET21110-38858-13575-90000084D0000468D0000900006671712769 GGSL
NJARET21110-38858-13576-60000072D0000476D0001300008671812769 GGSL
NJARET21110-38858-13583-40000288D0000639D000050000396401200  GGSL
NJARET21110-38858-13584-10000090D0000377D000120001296850609  GGSL
NJARET21110-38858-13585-80000018D0000082D0001100002968506423 GGSL
NJARET21110-38858-13587-20000132D0000575D0000700006968506426 GGSL
NJARET21110-38858-13588-90000162D0000712D0001200009968506425 GGSL
NJARET21110-38858-13595-70000018D0000141D0000300002798006917 GGSL
NJARET21110-38858-13601-50000012D0000094D00010000027980069180GGSL
NJARET21110-38858-14006-70000004D0000045D000020000035490409  GGSL
NJARET21110-38858-60480-40000001D0000041D00000000001404012087GGSL
NJARET21110-38858-60611-20000072D0000405D000020000036231209  GGSL
NJARET21110-38858-60613-60000012D0000068D00000000003623121251GGSL
NJARET21110-38858-60617-40000018D0000213D00005000059686061242GGSL
NJARET21110-38858-60619-80000012D0000142D00004000029687061242GGSL
NJARET21110-38858-60621-10000024D0000372D00004000039688041242GGSL
NJARET21110-38858-60623-50000144D0000716D0000000001129236070 GGSL
NJARET21110-38858-60626-60000108D0000598D0000100001129336070 GGSL
NJARET21110-38858-60629-70000072D0000265D0000000000129736070 GGSL
NJARET21110-38858-60632-70000036D0000176D0000300001129836070 GGSL
NJARET21110-38858-60637-20000018D0000170D0000000000124006070 GGSL
NJARET21110-38858-60639-60000018D0000176D0000300001124106070 GGSL
NJARET21110-38858-60641-90000012D0000118D0000500000124206070 GGSL
NJARET21110-38858-60643-30000048D0000399D0000100001745004222 GGSL
NJARET21110-38858-60645-70000028D0000233D0000300001745104222 GGSL
NJARET21110-38858-60647-10000008D0000067D0000000000745204222 GGSL
NJARET21110-38858-60658-70000006D0000049D000000000037620609  GGSL
NJARET21110-38858-60660-00000012D0000117D000010000037630609  GGSL
NJARET21110-38858-60662-40000048D0000304D00000000007896121295GGSL
NJARET21110-38858-60664-80000072D0000456D00000000007897121305GGSL
NJARET21110-38858-60666-20000168D0000623D00000000007898121315GGSL
NJARET21110-38858-60875-80000060D0000307D00000000008153121239GGSL
