TXBWIC21110-00402-00000-00002060D0103213D0367400128          GGSL
TXBWIC21110-00402-01012-60000077D0001618D00509000041012      GGSL
TXBWIC21110-00402-01014-00000240D0003124D01646000531014      GGSL
TXBWIC21110-00402-01492-60000005D0000016D001030000014SSB     GGSL
TXBWIC21110-00402-01499-50000002D0000007D000200000014SS      GGSL
TXBWIC21110-00402-01621-70000025D0000104D002500002516BA      GGSL
TXBWIC21110-00402-02699-50000200D0000199D013600000010XS-20B  GGSL
TXBWIC21110-00402-02750-60000150D0000638D0085000100B75       GGSL
TXBWIC21110-00402-05418-20000076C0000638C00525000255418      GGSL
TXBWIC21110-00402-07518-40000125D0000339D00000000007518      GGSL
TXBWIC21110-00402-07530-90000100D0000305D00000000007530      GGSL
TXBWIC21110-00402-10142-80000625D0008912D012440007110145B    GGSL
TXBWIC21110-00402-10147-30000063D0000318D00037000001014 G    GGSL
TXBWIC21110-00402-11711-50000025D0000084D000000000011718TL   GGSL
TXBWIC21110-00402-11730-60000050D0000164D004000000011730     GGSL
TXBWIC21110-00402-14560-60000006D0000024D000260000014EP      GGSL
TXBWIC21110-00402-21012-00000090D0009461D00120000001012B     GGSL
TXBWIC21110-00402-33117-70000025D0000011D0222500675PC11-7    GGSL
TXBWIC21110-00402-33354-60000425D0000063D0687500800PC5-4     GGSL
TXBWIC21110-00402-33375-10003375D0000736D0515000500PC7-5     GGSL
TXBWIC21110-00402-41819-90000012D0000117D000620000014TRS     GGSL
TXBWIC21110-00402-44475-40000050D0000015D0002500025PLCD 7-5  GGSL
TXBWIC21110-00402-91012-90000070D0007526D00090000201012 BK   GGSL
TXBWIC21110-00772-00271-40000002D0000026D0000000000271       GGSL
TXBWIC21110-00772-00442-80000003D0000023D0000000000442       GGSL
TXBWIC21110-00772-00481-70000001D0000012D0000000000481       GGSL
TXBWIC21110-00772-00488-60000002D0000030D0000000000488       GGSL
TXBWIC21110-00772-00494-70000003D0000027D0000000000494       GGSL
TXBWIC21110-00772-00513-50000003D0000039D0000000000513       GGSL
TXBWIC21110-00772-00572-20000002D0000022D0000000000572       GGSL
TXBWIC21110-00772-00644-60000003D0000039D0000000000644       GGSL
TXBWIC21110-00772-01273-70000003D0000039D00000000001273      GGSL
TXBWIC21110-00772-02610-90000004D0000072D00000000002610      GGSL
TXBWIC21110-00772-02758-80000002D0000036D00000000002758      GGSL
TXBWIC21110-00772-03011-30000002D0000071D00000000003011      GGSL
TXBWIC21110-00772-03018-20000002D0000015D00000000003018      GGSL
TXBWIC21110-00772-03129-50000002D0000071D00000000003129      GGSL
TXBWIC21110-00772-04284-00000002D0000018D00000000004284      GGSL
TXBWIC21110-00772-04577-30000002D0000026D00000000004577      GGSL
TXBWIC21110-00772-05059-30000004D0000052D00000000005059      GGSL
TXBWIC21110-00772-05175-00000002D0000026D00000000005175      GGSL
TXBWIC21110-00772-08268-60000002D0000036D00000000008268      GGSL
TXBWIC21110-00772-09167-10000002D0000032D00000000009167      GGSL
TXBWIC21110-00772-09232-60000004D0000014D00000000009232      GGSL
TXBWIC21110-00772-09288-30000002D0000059D00000000009288      GGSL
TXBWIC21110-00772-09315-60000004D0000014D00000000009315      GGSL
TXBWIC21110-00772-09338-50000004D0000014D00000000009338      GGSL
TXBWIC21110-00772-09356-90000002D0000036D00000000009356      GGSL
TXBWIC21110-00772-30122-00000002D0000059D000000000030122     GGSL
TXBWIC21110-00772-90487-20000002D0000026D0000000000487       GGSL
TXBWIC21110-10367-00110-70000228D0001348D0087600216110       GGSL
TXBWIC21110-10367-00130-50000147D0008012D0017500065130.0     GGSL
TXBWIC21110-10367-00150-30000014D0000371D0013000139150.0     GGSL
TXBWIC21110-10367-00460-30000008D0000047D0004000024ML0460 8  GGSL
TXBWIC21110-10367-00560-00000008D0000025D0035200040ML0560 8  GGSL
TXBWIC21110-10367-01000-00000012D0000141D0001200024ML1000    GGSL
TXBWIC21110-10367-01111-30000024D0000071D00048000161111.0    GGSL
TXBWIC21110-10367-01120-50000016D0000036D00096000001120.0    GGSL
TXBWIC21110-10367-03010-70000008D0000049D0006400008ML3010    GGSL
TXBWIC21110-10367-03020-60000016D0000093D0002400000ML3020    GGSL
TXBWIC21110-11247-00950-30000010D0000524D000000000000950     GGSL
TXBWIC21110-11247-01050-90000048D0000669D000140000001050     GGSL
TXBWIC21110-11247-01855-00000001D0000205D000000000101855     GGSL
TXBWIC21110-11247-02308-00000001D0000076D000000000102301     GGSL
TXBWIC21110-11247-03111-50000080D0002288D000270000003111     GGSL
TXBWIC21110-11247-03555-70000006D0001468D000000000003555     GGSL
TXBWIC21110-11247-04525-90000155D0004253D002720000804525     GGSL
TXBWIC21110-11247-05350-60000002D0000103D000240000005350     GGSL
TXBWIC21110-11247-05450-30000021D0000900D000920002705450     GGSL
TXBWIC21110-11247-13010-80000024D0000090D001200004813010     GGSL
TXBWIC21110-11247-16004-20000018D0000117D004020007216004     GGSL
TXBWIC21110-11247-21004-60000090D0000865D000000019221004     GGSL
TXBWIC21110-11247-30004-40000042D0000318D007680016230004     GGSL
TXBWIC21110-11247-52813-40000010D0000196D000460000252813     GGSL
TXBWIC21110-11247-52825-70000006D0000122D000550007052825     GGSL
TXBWIC21110-11247-52833-20000006D0000038D000000011452833     GGSL
TXBWIC21110-11247-52877-60000004D0000233D000560000452877     GGSL
TXBWIC21110-11247-52878-30000004D0000430D000000001852878     GGSL
TXBWIC21110-11247-52880-60000006D0000036D000000002452880     GGSL
TXBWIC21110-11247-52888-20000039D0000229D001500001252888     GGSL
TXBWIC21110-11247-52889-90000067D0001045D001750002152889     GGSL
TXBWIC21110-11247-60116-50000001D0000011D001950000060116     GGSL
TXBWIC21110-11247-61008-20000012D0000045D000000039661008     GGSL
TXBWIC21110-11247-61024-20000114D0000756D014580028861024     GGSL
TXBWIC21110-11247-71250-20000004D0000187D000000000671250     GGSL
TXBWIC21110-11247-90001-50000012D0000063D000720000090001     GGSL
TXBWIC21110-11247-90128-90000004D0000044D001160000090128     GGSL
TXBWIC21110-11423-00338-70000030D0000184D0054600006HG-33801  GGSL
TXBWIC21110-14021-00322-30000002D0000258D00000000002020      GGSL
TXBWIC21110-14021-00534-00000001D0000059D00000000008000      GGSL
TXBWIC21110-14021-00832-70000001D0000041D00000000007050      GGSL
TXBWIC21110-14021-01412-00000002D0000250D00000000001024      GGSL
TXBWIC21110-14021-02731-10000001D0000387D00000000001060B     GGSL
TXBWIC21110-14021-03029-80000002D0000418D00000000001040      GGSL
TXBWIC21110-16069-00005-90000012D0000076D0008700024TP-15C    GGSL
TXBWIC21110-16069-00008-00000036D0000232D0014700267BN-2      GGSL
TXBWIC21110-16069-00013-40000018D0000404D0000200012BN-3      GGSL
TXBWIC21110-16069-00030-10000036D0000411D0002800030OW-6      GGSL
TXBWIC21110-16069-00049-30000018D0000298D0001800000DX-7      GGSL
TXBWIC21110-16069-00365-40000018D0000269D0000900000PIN-9     GGSL
TXBWIC21110-16069-00667-90000016D0000260D0000000144RHO-4US   GGSL
TXBWIC21110-18506-00000-00000170D0002322D03060001000111-5    GGSL
TXBWIC21110-18506-00021-90000012D0000194D0039800000021-6     GGSL
TXBWIC21110-18506-00102-50000003D0000014D0021200000102-12    GGSL
TXBWIC21110-18506-00110-50000060D0000405D0042100210110-12    GGSL
TXBWIC21110-18506-00116-20000117D0000690D0028400342116-12    GGSL
TXBWIC21110-18506-00117-90000018D0000173D0042900288117-6     GGSL
TXBWIC21110-18506-00125-40000072D0000373D0076800000125       GGSL
TXBWIC21110-22102-01611-60000004D0000392D000000000016HB      GGSL
TXBWIC21110-22102-02011-30000030D0001462D000240000020FB      GGSL
TXBWIC21110-22102-30430-50000008D0000282D0000000000HPW33     GGSL
TXBWIC21110-22179-10035-00000026D0001372D0020900040LG4110    GGSL
TXBWIC21110-22179-10084-80000012D0000100D0010800144LG7220    GGSL
TXBWIC21110-22179-10090-90000272C0000100C0004500000LG4300    GGSL
TXBWIC21110-22179-10108-10000012D0000091D0000000024LG7265    GGSL
TXBWIC21110-22179-10110-40000006D0000162D0000000024lg 5149   GGSL
TXBWIC21110-22179-10115-90000030D0000493D0033200000lg 5599   GGSL
TXBWIC21110-22179-10124-10000072D0000422D0129000012LG6515    GGSL
TXBWIC21110-22179-10133-30000012D0000122D0000000000LG 4102   GGSL
TXBWIC21110-22179-10139-50000012D0000048D0055500000LG1130    GGSL
TXBWIC21110-22179-10140-10000040D0004761D0006700000LG6520    GGSL
TXBWIC21110-22179-10150-00000032D0000389D00420005767115      GGSL
TXBWIC21110-22179-10151-70000016D0000713D00202000007117      GGSL
TXBWIC21110-22179-10185-20000146D0001687D0042200018LG6500    GGSL
TXBWIC21110-22179-10246-00000060D0000975D0019800621LG6570    GGSL
TXBWIC21110-22179-10247-70000090D0002260D00345002457122      GGSL
TXBWIC21110-22179-10248-40000069D0000593D0087000000LG6575    GGSL
TXBWIC21110-22179-10331-30000006D0000062D0000000030lg 6382   GGSL
TXBWIC21110-22179-10363-40000012D0000078D0000000060LG6232    GGSL
TXBWIC21110-22179-10390-00000036D0000324D0084000348LG6332    GGSL
TXBWIC21110-22179-10391-70000024D0000349D0000000156LG6336    GGSL
TXBWIC21110-22179-10395-50000001D0000038D0014100025LG6356    GGSL
TXBWIC21110-22179-10408-20000132D0001066D0083900708LG 6338   GGSL
TXBWIC21110-22179-10429-70000035D0000550D0114000444LG6334    GGSL
TXBWIC21110-22179-10454-90000015D0000141D0033600276lg 3303   GGSL
TXBWIC21110-22179-10458-70000060D0000600D0006900000lg 3234   GGSL
TXBWIC21110-22179-10520-10000006D0000046D0000000042lg 6542   GGSL
TXBWIC21110-22179-10529-40000010D0000064D0028000300lg 7350   GGSL
TXBWIC21110-22401-00115-80000006D0000596D0028300044MDC-15    GGSL
TXBWIC21110-22401-00301-50000003D0000050D0011600000THD-20    GGSL
TXBWIC21110-22401-00380-10000004D0000092D0060400140NDETC-20MCGGSL
TXBWIC21110-22401-00381-70000004D0000096D0018800104NDETC-2OLBGGSL
TXBWIC21110-22401-10088-20000004D0000102D0015800006EAR-60    GGSL
TXBWIC21110-23626-00605-80002648D0024204D1447601088116334    GGSL
TXBWIC21110-23626-00615-70004101D0044950D0638701939          GGSL
TXBWIC21110-23626-00630-00001673D0021748D0452600192116341    GGSL
TXBWIC21110-23626-00650-80000030D0000105D0048600000000600    GGSL
TXBWIC21110-23626-00860-10000036D0000302D0000000192116348    GGSL
TXBWIC21110-23626-01710-80000222D0001106D0060300120000800    GGSL
TXBWIC21110-23626-01720-70000228D0001591D0035400072000900    GGSL
TXBWIC21110-23626-02555-40000084D0001746D0000000000112840    GGSL
TXBWIC21110-23626-07002-80000732D0023274D0000000004112825    GGSL
TXBWIC21110-23883-00001-10000024D0000486D0067300066G362      GGSL
TXBWIC21110-23883-00002-80000061D0000302D0019500018G385      GGSL
TXBWIC21110-23883-00003-50000003D0000015D0067500030G390      GGSL
TXBWIC21110-23883-01002-70000064D0000675D00291000961002      GGSL
TXBWIC21110-23883-04701-60000021D0000202D00014000054701      GGSL
TXBWIC21110-23883-05000-90000014D0000089D00145000005000      GGSL
TXBWIC21110-23883-08620-60000001D0000251D00011000018620B     GGSL
TXBWIC21110-23883-15710-40003133D0023628D278010211415710     GGSL
TXBWIC21110-23883-16100-20000016D0000214D000790000016100MP   GGSL
TXBWIC21110-23883-23664-10000004D0000206D0000000000LBXR20    GGSL
TXBWIC21110-23883-26011-80000018D0000646D001360000126011XP   GGSL
TXBWIC21110-23883-26021-70000049D0002023D011250005226021XP   GGSL
TXBWIC21110-23883-26031-60000009D0000426D000760001626031XP   GGSL
TXBWIC21110-23883-27010-00000010D0000250D000910002227010     GGSL
TXBWIC21110-23883-27020-90000054D0001456D001810001627020     GGSL
TXBWIC21110-23883-27030-80000017D0000526D001160001227030     GGSL
TXBWIC21110-23883-60100-30000002D0000221D002490004360100     GGSL
TXBWIC21110-23883-61800-10000007D0000574D000000001061800     GGSL
TXBWIC21110-23883-63924-20000001D0000240D000390000663924     GGSL
TXBWIC21110-23883-67749-70000004D0000033D00003000006-7749    GGSL
TXBWIC21110-24654-05922-10000012D0000144D00000000905926      GGSL
TXBWIC21110-24654-05962-70000012D0000145D00126000665962      GGSL
TXBWIC21110-24654-51806-30000006D0000031D00000000485180-6    GGSL
TXBWIC21110-24654-55110-70000108D0000555D00959000365110-6    GGSL
TXBWIC21110-24654-55118-30000078D0000574D00703000065118.0    GGSL
TXBWIC21110-24654-65452-50000006D0000032D00000001025452-6    GGSL
TXBWIC21110-25033-12013-60000001D0000055D000010000012013     GGSL
TXBWIC21110-26455-91350-40000011D0000650D001080000170805-001-GGSL
TXBWIC21110-28009-11225-80002907D0014769D01550001891225.0    GGSL
TXBWIC21110-28009-11227-20000240D0000648D00030000001227.0    GGSL
TXBWIC21110-28009-11250-00003859D0030227D02032000501250.0    GGSL
TXBWIC21110-28009-11420-70000810D0004004D00429001401420P     GGSL
TXBWIC21110-28009-11440-50000666D0005055D00563000001440P     GGSL
TXBWIC21110-28009-11640-90000120D0000752D00000000001640      GGSL
TXBWIC21110-28009-11815-10000220D0001621D00000000001815      GGSL
TXBWIC21110-28009-15240-70001190D0006111D00830000215240.0    GGSL
TXBWIC21110-28009-15440-10001140D0004069D00000000005440.0    GGSL
TXBWIC21110-28009-15440-30000060D0000449D00000000001840      GGSL
TXBWIC21110-28009-15450-00000109D0000653D00064000005450.0    GGSL
TXBWIC21110-28009-15540-80000729D0002742D02649000615540.0    GGSL
TXBWIC21110-28009-15720-40000390D0001299D00210000005720.0    GGSL
TXBWIC21110-28009-15740-20000741D0003445D00929000005740.0    GGSL
TXBWIC21110-30541-00109-90000012D0000032D0000000000JCD-02SC  GGSL
TXBWIC21110-30541-00801-20000002D0000096D0000000000JCD-08BKSMGGSL
TXBWIC21110-30541-01020-60000120D0000287D0000000000JCD-024SM GGSL
TXBWIC21110-30541-09982-90000024D0000067D0076800000JCD-TPP03 GGSL
TXBWIC21110-30541-83795-70000192D0000428D0000000000JCD-024TMPGGSL
TXBWIC21110-30641-09801-20000050D0000110D0025000000SWPDQ     GGSL
TXBWIC21110-30641-33935-10000036D0000074D0003600018YPDQ      GGSL
TXBWIC21110-30641-35936-60000018D0000037D0016200018WPDQ      GGSL
TXBWIC21110-32247-00900-30000036D0000121D00546000421009001   GGSL
TXBWIC21110-32247-00910-20000018D0000062D00060000241009101   GGSL
TXBWIC21110-32247-00950-80000018D0000060D00084000001009501   GGSL
TXBWIC21110-32247-03594-10000550D0003295D006970000070359430  GGSL
TXBWIC21110-32247-05514-70005344D0021448D037920012370551430  GGSL
TXBWIC21110-32247-10500-20000204D0002074D0029700012110500    GGSL
TXBWIC21110-32247-11307-60001221D0002701D021130002071130756  GGSL
TXBWIC21110-32247-14810-80000016D0000105D000000001614810     GGSL
TXBWIC21110-32247-14902-00000004D0000068D000040000014902     GGSL
TXBWIC21110-32247-15307-20000080D0000161D002720000071530751  GGSL
TXBWIC21110-32247-17520-30000012D0000148D000000000017520     GGSL
TXBWIC21110-32247-17530-20000006D0000052D000000000017530     GGSL
TXBWIC21110-32247-17582-10000012D0000149D000000000017582     GGSL
TXBWIC21110-32247-18103-70000018D0000343D000000000018103     GGSL
TXBWIC21110-32247-18213-30000003D0002103D000020000218213A    GGSL
TXBWIC21110-32247-18222-50000003D0001914D000000000018222A    GGSL
TXBWIC21110-32247-18225-60000006D0000079D000600000018225     GGSL
TXBWIC21110-32247-18260-70000012D0000116D000000000018260     GGSL
TXBWIC21110-32247-18296-60000006D0000069D000060000018296     GGSL
TXBWIC21110-32247-18320-80000012D0000102D000060000018320     GGSL
TXBWIC21110-32247-18348-20000012D0000173D000120000018348     GGSL
TXBWIC21110-32247-18350-50000045D0000324D000000000018350     GGSL
TXBWIC21110-32247-18353-60000024D0000533D000660000018353     GGSL
TXBWIC21110-32247-18354-30000006D0000070D000000000018354     GGSL
TXBWIC21110-32247-18355-00000003D0003120D000000000018355A    GGSL
TXBWIC21110-32247-18362-80000030D0001019D000000000018362     GGSL
TXBWIC21110-32247-18365-90000042D0001191D000000000018365     GGSL
TXBWIC21110-32247-19594-20000115D0000967D000800000071959430  GGSL
TXBWIC21110-32247-20784-30000288D0001108D006300081672078430  GGSL
TXBWIC21110-32247-21030-00000021D0000683D001940000021030A    GGSL
TXBWIC21110-32247-22305-80000012D0000183D000910000122305     GGSL
TXBWIC21110-32247-23001-80010582C0000183C000000000023001A    GGSL
TXBWIC21110-32247-23405-40000020D0000346D003330000023405B    GGSL
TXBWIC21110-32247-23622-50000050D0000697D000000000023622     GGSL
TXBWIC21110-32247-25006-10000007D0000150D005400000025006A    GGSL
TXBWIC21110-32247-26784-70000024D0000092D010740006072678430  GGSL
TXBWIC21110-32247-35594-00000050D0000310D000250000073559430  GGSL
TXBWIC21110-32247-37594-80001275D0007210D022480000073759430  GGSL
TXBWIC21110-32247-37610-50000089D0001702D001140000037610A    GGSL
TXBWIC21110-32247-39594-60001428D0010679D018840005073959430  GGSL
TXBWIC21110-32247-42784-50000138D0000540D005820010874278430  GGSL
TXBWIC21110-32247-43860-50000012D0000281D00012000004386004   GGSL
TXBWIC21110-32247-45651-70000060D0000494D004360000045651300  GGSL
TXBWIC21110-32247-47783-30000228D0000815D001860001874778300  GGSL
TXBWIC21110-32247-49785-50000378D0001198D008160006074978500  GGSL
TXBWIC21110-32247-50087-60000016C0001198C00060000005008710   GGSL
TXBWIC21110-32247-50240-50000010D0000529D000000000050240     GGSL
TXBWIC21110-32247-50250-40000031D0000950D000000000150250     GGSL
TXBWIC21110-32247-50524-60005198D0033750D049740051375052430  GGSL
TXBWIC21110-32247-51062-20000006D0000047D000060000051062     GGSL
TXBWIC21110-32247-51105-60000111D0001366D003270000051105     GGSL
TXBWIC21110-32247-51115-50000001D0000033D001590000051115     GGSL
TXBWIC21110-32247-52524-40000050D0000613D000020005285252430  GGSL
TXBWIC21110-32247-52784-20000078D0000297D007920003085278430  GGSL
TXBWIC21110-32247-53105-40000034D0000309D000200000053105     GGSL
TXBWIC21110-32247-55513-50003915D0028242D009430033575551301  GGSL
TXBWIC21110-32247-55523-40001588D0019441D013610025075552301  GGSL
TXBWIC21110-32247-55783-20000078D0000382D015120006075578300  GGSL
TXBWIC21110-32247-55863-10000004D0000032D006260000075586300  GGSL
TXBWIC21110-32247-56513-40011731D0074225D059350025075651301  GGSL
TXBWIC21110-32247-56523-30017654D0187160D038560024075652301  GGSL
TXBWIC21110-32247-56783-10000013D0005302D000040000175678309  GGSL
TXBWIC21110-32247-56788-60000780D0003351D051780010275678300  GGSL
TXBWIC21110-32247-56863-00000182D0001387D014250000075686301  GGSL
TXBWIC21110-32247-60594-60000150D0000929D006900000076059430  GGSL
TXBWIC21110-32247-71060-20000330D0004215D015330007271060     GGSL
TXBWIC21110-32247-71131-90000023D0000570D003520000071131     GGSL
TXBWIC21110-32247-74150-70000822D0003818D0040200888274150    GGSL
TXBWIC21110-32247-74250-40000696D0004983D0065300252274250    GGSL
TXBWIC21110-32247-74395-20000050D0000377D000690000043959430  GGSL
TXBWIC21110-32247-74850-60000384D0006203D0007600236274850    GGSL
TXBWIC21110-32247-75902-10000011D0000864D001130000175902     GGSL
TXBWIC21110-32247-76121-50000144D0004857D005290001876121     GGSL
TXBWIC21110-32247-76232-80000039D0002453D001320000676232     GGSL
TXBWIC21110-32247-76565-70000009D0000450D000030000076565     GGSL
TXBWIC21110-32247-77160-30000594D0002380D0110200726277160    GGSL
TXBWIC21110-32247-77260-00000763D0006464D0090600342277260    GGSL
TXBWIC21110-32247-77960-90000404D0007418D0078800296277960    GGSL
TXBWIC21110-32247-99605-10000052D0000994D001230000099605     GGSL
TXBWIC21110-32903-00169-30000024D0000034D0031200048SLI06000E3GGSL
TXBWIC21110-32903-00309-30000036D0000088D0007200000SLI10000E3GGSL
TXBWIC21110-32903-00341-30000018D0000162D0011400030SLI24000E3GGSL
TXBWIC21110-32903-00359-80000120D0000213D0004800000SLI08000E3GGSL
TXBWIC21110-32903-12006-60000120D0000252D0045600120LIA06000E3GGSL
TXBWIC21110-32903-12008-00000096D0000292D0074400096LIA08000E3GGSL
TXBWIC21110-32903-12010-30000108D0000484D0048000036LIA10000E3GGSL
TXBWIC21110-32903-12012-70000084D0000594D0040800012LIA12000E3GGSL
TXBWIC21110-32903-12014-10000024D0000166D0010800012LIA14000E3GGSL
TXBWIC21110-32903-12017-20000108D0001139D0009600012LIA16000E3GGSL
TXBWIC21110-32903-12020-20000006D0000115D0020400006LIA20000E3GGSL
TXBWIC21110-32903-12024-00000030D0000796D0009000024LIA24000E3GGSL
TXBWIC21110-32903-12718-80000006D0000064D0008400006GAB18000E3GGSL
TXBWIC21110-32903-12722-50000006D0000280D0016200042GAB22000E3GGSL
TXBWIC21110-32903-12818-50000006D0000044D0012600024VNP18000E3GGSL
TXBWIC21110-32903-12824-60000042C0000044C0000600006VNP24000E3GGSL
TXBWIC21110-32903-50763-80000096D0000403D0032400036SLI12000E3GGSL
TXBWIC21110-32903-50766-90000004D0000233D0000000000TEA24000G2GGSL
TXBWIC21110-32903-50802-40000012D0000053D0007800012SLI14000E3GGSL
TXBWIC21110-32903-72518-60000008D0000073D0018400008RZ.WC2G0B9GGSL
TXBWIC21110-32903-75049-20000036D0000272D0007800012SLI20000E3GGSL
TXBWIC21110-32903-75080-50000024D0000115D0028800024SLI17000E3GGSL
TXBWIC21110-33524-43225-50000012D0000103D0019300000MP0020    GGSL
TXBWIC21110-33524-43240-80000077D0000950D0059400007MP0020    GGSL
TXBWIC21110-33607-00001-50000064D0002063D0009200004GBA-1     GGSL
TXBWIC21110-33607-00953-40000020D0000581D0011200000SP-33     GGSL
TXBWIC21110-34613-00002-70000288D0004034D0240200319LH002     GGSL
TXBWIC21110-34613-00003-40000109D0001457D0128600234LH003     GGSL
TXBWIC21110-34613-00004-10000165D0002348D0083500121LH004     GGSL
TXBWIC21110-34613-00006-50000202D0002846D0156000196LH006     GGSL
TXBWIC21110-34613-00805-40000001D0000025D0002100042SS5       GGSL
TXBWIC21110-34613-01150-40000140D0000329D00000005001150PDQ   GGSL
TXBWIC21110-34613-01161-00000084D0000196D00048004201161PDQ   GGSL
TXBWIC21110-34613-70052-10000018D0000371D000000061870052     GGSL
TXBWIC21110-34613-95006-30000002D0000086D000030002095006     GGSL
TXBWIC21110-34613-96006-20000002D0000112D000010002696006     GGSL
TXBWIC21110-35307-00820-60000132D0000217D0012000096820       GGSL
TXBWIC21110-35307-00826-80000048D0000089D0000000204826       GGSL
TXBWIC21110-35307-00848-00000048D0000103D0001200024848       GGSL
TXBWIC21110-35307-00861-90000036D0000108D0007200168861       GGSL
TXBWIC21110-35307-00874-90000048D0000069D0006000060874       GGSL
TXBWIC21110-35307-01601-00000006D0000079D00084000061601      GGSL
TXBWIC21110-35307-01612-60000012D0000058D00156004681612      GGSL
TXBWIC21110-35307-01618-80000006D0000028D00054000001618      GGSL
TXBWIC21110-35307-01810-60000107D0000532D00012000291810      GGSL
TXBWIC21110-35307-01815-10000010D0000070D00077000161815      GGSL
TXBWIC21110-35307-01820-50000063C0000070C00010000361820      GGSL
TXBWIC21110-35307-01825-00000066D0000527D00116005161825      GGSL
TXBWIC21110-35307-01840-30000030D0000478D00024000001840      GGSL
TXBWIC21110-35355-00802-90000002D0000030D0000000012SS2       GGSL
TXBWIC21110-35355-00803-60000008D0000131D0000300015SS3       GGSL
TXBWIC21110-35355-00804-30000007D0000164D0001500028SS4       GGSL
TXBWIC21110-35355-00806-70000001D0000035D0000200030SS6       GGSL
TXBWIC21110-35355-00924-80000079D0001173D0002400042924       GGSL
TXBWIC21110-35355-01151-70000050D0000210D00000003301151PDQ   GGSL
TXBWIC21110-35355-01160-90000040D0000090D00100003101160      GGSL
TXBWIC21110-35355-05945-80000078D0001298D00120006425945      GGSL
TXBWIC21110-35355-94006-00000008D0000272D000000000894006     GGSL
TXBWIC21110-36348-00610-70000136D0000680D00196000440610      GGSL
TXBWIC21110-36348-00645-90000055D0000760D0025000000645       GGSL
TXBWIC21110-36348-00745-60000002D0000051D00042000000745      GGSL
TXBWIC21110-36348-01020-30000017D0000250D00008000011020      GGSL
TXBWIC21110-36348-01045-60000005D0000288D00005000001045      GGSL
TXBWIC21110-36348-01078-40000003D0000121D00044000011078      GGSL
TXBWIC21110-36348-01079-10000023D0001181D00084000041079      GGSL
TXBWIC21110-36348-01084-50000001D0000052D00002000121084      GGSL
TXBWIC21110-36434-00000-00000228D0004295D012660015010-12420  GGSL
TXBWIC21110-36434-07020-00000024D0000395D00000000121017020   GGSL
TXBWIC21110-36434-10012-20000156D0002105D000000000010-10012  GGSL
TXBWIC21110-36434-11000-80000144D0001459D011000006960-11000  GGSL
TXBWIC21110-36434-12342-80000013D0000097D006150010560-12342  GGSL
TXBWIC21110-36434-12343-50000003D0000030D002930000860-12343  GGSL
TXBWIC21110-36434-12344-20000006D0000049D000180002460-12344  GGSL
TXBWIC21110-36434-12345-90000336D0003733D002410067210-12345  GGSL
TXBWIC21110-36434-12346-60000165D0000760D018310005460-12346  GGSL
TXBWIC21110-36434-12348-00000016D0000133D000880000010-12348  GGSL
TXBWIC21110-36434-12349-70000027D0000115D002490003860-12349  GGSL
TXBWIC21110-36434-12353-40000108D0001839D010320003560-12353  GGSL
TXBWIC21110-36434-12354-10000007D0000052D000570001910-12354  GGSL
TXBWIC21110-36434-12355-80000082D0000642D000910001010-12355  GGSL
TXBWIC21110-36434-12356-50000067D0000585D001830001510-12356  GGSL
TXBWIC21110-36434-12357-20000037D0000340D000550001110-12357  GGSL
TXBWIC21110-36434-12358-90000018D0000230D00000000061012358   GGSL
TXBWIC21110-36434-12430-40000012D0000216D00000000306012430   GGSL
TXBWIC21110-36434-12700-60000036D0000248D000960112810-12700  GGSL
TXBWIC21110-36434-12710-50000024D0000174D002640000010-12710  GGSL
TXBWIC21110-36434-12720-40000120D0000746D004800004810-12720  GGSL
TXBWIC21110-36434-12730-00000012D0000123D000000003610-12730  GGSL
TXBWIC21110-36434-13200-00000006D0000031D00096000246013200   GGSL
TXBWIC21110-36434-13600-50000012D0000230D000840039610-13600  GGSL
TXBWIC21110-36434-13610-20000012D0000191D001320038410-13610  GGSL
TXBWIC21110-36434-14800-80000408D0007039D005640001210-14800  GGSL
TXBWIC21110-36434-14860-20000180D0002565D003240000010-14860  GGSL
TXBWIC21110-36434-15050-90000048D0000769D003900000610-15050  GGSL
TXBWIC21110-36434-15080-30000012D0000248D001200001810-15080  GGSL
TXBWIC21110-36434-15105-60000003D0000119D000220000615105     GGSL
TXBWIC21110-36434-17000-20000024D0000999D000000064870-17000  GGSL
TXBWIC21110-36434-17010-10000042D0000969D000000012010-17010  GGSL
TXBWIC21110-36434-22318-00000116D0000523D015680006460-22318  GGSL
TXBWIC21110-36434-22341-80000084D0000913D000000002410-22341  GGSL
TXBWIC21110-36434-22626-60000041D0000503D005850001360-22626  GGSL
TXBWIC21110-36434-22731-70000089D0000870D004070001960-22731  GGSL
TXBWIC21110-36434-22732-40000021D0000283D006940002160-22732  GGSL
TXBWIC21110-36434-24211-20000004D0000100D001950000010-24211  GGSL
TXBWIC21110-36434-28010-70000180D0001377D008040082810-28010  GGSL
TXBWIC21110-36434-28020-60000096D0000811D000000002410-28020  GGSL
TXBWIC21110-36434-32700-00000204D0001646D057960019210-32700  GGSL
TXBWIC21110-36434-34500-10000095D0000928D010200050410-34500  GGSL
TXBWIC21110-36865-12250-20005280D0009651D019200018071140180  GGSL
TXBWIC21110-36865-24511-90000120D0000356D027000000072451180  GGSL
TXBWIC21110-36865-71751-70000300D0000576D000000000071751180  GGSL
TXBWIC21110-37321-00020-40000012D0000109D0000000072020       GGSL
TXBWIC21110-37321-00022-80000193D0001116D0043700375022       GGSL
TXBWIC21110-37321-00023-50000028D0000462D0007600276023       GGSL
TXBWIC21110-37321-00024-20000180D0002311D0154900222024       GGSL
TXBWIC21110-37321-00026-60000090D0001185D0132600780026       GGSL
TXBWIC21110-37321-00050-10000024D0000024D0000000168050       GGSL
TXBWIC21110-37321-00068-60000024D0000121D0049800348068       GGSL
TXBWIC21110-37321-00069-30000126D0001596D0149400012069       GGSL
TXBWIC21110-37321-00070-90000048D0000679D0089700300070       GGSL
TXBWIC21110-37321-00081-50000012D0000077D0000000228081       GGSL
TXBWIC21110-37321-00098-30000045D0000189D0000000000098       GGSL
TXBWIC21110-37321-00102-70000024D0000260D0000000012102       GGSL
TXBWIC21110-37321-00105-80000180D0000501D0052800732105       GGSL
TXBWIC21110-37321-00106-50000120D0000334D0061200528106       GGSL
TXBWIC21110-37321-00107-20000096D0000262D0098400624107       GGSL
TXBWIC21110-37321-00108-90000264D0000686D0136801296108       GGSL
TXBWIC21110-37321-00123-20000066D0000240D0291300030123       GGSL
TXBWIC21110-37321-00127-00000099D0000734D0037800447127       GGSL
TXBWIC21110-37321-00141-60000012D0000049D0037200288141       GGSL
TXBWIC21110-37321-00150-80000264D0003859D0221701572150       GGSL
TXBWIC21110-37321-00166-90000021D0000126D0046800048166       GGSL
TXBWIC21110-37321-00196-60000012D0000065D0008400072196       GGSL
TXBWIC21110-37321-00202-40000036D0000358D0017100816202       GGSL
TXBWIC21110-37321-00203-10000024D0000331D0074700072203       GGSL
TXBWIC21110-37321-00210-90000120D0000779D0019500012210       GGSL
TXBWIC21110-37321-00211-60000099D0000850D0099600096211       GGSL
TXBWIC21110-37321-00213-00000138D0001397D0085200000213       GGSL
TXBWIC21110-37321-00214-70000228D0001220D0097800036214       GGSL
TXBWIC21110-37321-00216-10000048D0000660D0020400384216       GGSL
TXBWIC21110-37321-00238-30000072D0000655D0050400600238       GGSL
TXBWIC21110-37321-00250-50000225D0001075D0108001308250       GGSL
TXBWIC21110-37321-00252-90000060D0000670D0087500144252       GGSL
TXBWIC21110-37321-00253-60000066D0001206D0069900012253       GGSL
TXBWIC21110-37321-00255-00000048D0000838D0130200264255       GGSL
TXBWIC21110-37321-00257-40000030D0000104D0048000456257       GGSL
TXBWIC21110-37321-00258-10000012D0000077D00000000242586      GGSL
TXBWIC21110-37321-00272-70000006D0000025D00000000482726      GGSL
TXBWIC21110-37321-00274-10000120D0000688D0104400738274       GGSL
TXBWIC21110-37321-00276-50000012D0000169D0000000084276       GGSL
TXBWIC21110-37321-00285-70000012D0000069D0000000156285       GGSL
TXBWIC21110-37321-00301-40000012D0000094D0000000024301       GGSL
TXBWIC21110-37321-00307-60000048D0000199D0076201104307       GGSL
TXBWIC21110-37321-00309-00000048D0000758D0056700138309       GGSL
TXBWIC21110-37321-00311-30000018D0000510D0000600036311       GGSL
TXBWIC21110-37321-00312-00000036D0000632D0000000096312       GGSL
TXBWIC21110-37321-00330-40000036D0000316D0046500012330       GGSL
TXBWIC21110-37321-00331-10000024D0000352D00444000183316      GGSL
TXBWIC21110-37321-00371-70000012D0000067D00000000363716      GGSL
TXBWIC21110-37321-00412-70000036D0000191D0031200180412       GGSL
TXBWIC21110-37321-00420-20000015D0000887D0043700000420       GGSL
TXBWIC21110-37321-00426-40000108D0001061D0093600348426       GGSL
TXBWIC21110-37321-00428-80000357D0001366D0148500744428       GGSL
TXBWIC21110-37321-00442-40000072D0000464D0080100204442       GGSL
TXBWIC21110-37321-00443-10000036D0000365D0049900060443       GGSL
TXBWIC21110-37321-00506-30000043D0000172D0037500396506       GGSL
TXBWIC21110-37321-00543-80000009D0000030D0008100000543       GGSL
TXBWIC21110-37321-00544-50000021D0000127D0000900000544       GGSL
TXBWIC21110-37321-00549-00000012D0000096D0021600000549       GGSL
TXBWIC21110-37321-00552-00000042D0000632D0010200006552       GGSL
TXBWIC21110-37321-00553-70000024D0000762D0022800000553       GGSL
TXBWIC21110-37321-00560-50000006D0000027D0001800000560       GGSL
TXBWIC21110-37321-00564-30000012D0000119D00762003965646      GGSL
TXBWIC21110-37321-00567-40000012D0000068D0000000000567       GGSL
TXBWIC21110-37321-00571-10000117D0000973D0024300012571       GGSL
TXBWIC21110-37321-00573-50000111D0000497D0045900000573       GGSL
TXBWIC21110-37321-00577-30000064D0000647D0019600016574       GGSL
TXBWIC21110-37321-00603-90000008D0000088D0003200008603       GGSL
TXBWIC21110-37321-00611-40000012D0000249D0055600124611       GGSL
TXBWIC21110-37321-00631-20001590D0005300D3382506828631       GGSL
TXBWIC21110-37321-00651-00000004D0000048D00004000240651      GGSL
TXBWIC21110-37321-00652-70000036D0000178D0031200000652       GGSL
TXBWIC21110-37321-00655-80000162D0000954D00627008526556      GGSL
TXBWIC21110-37321-00680-00000048D0000466D0092400000680       GGSL
TXBWIC21110-37321-00685-50000120D0001407D0080000024685       GGSL
TXBWIC21110-37321-00690-90000081D0000846D0039300024690       GGSL
TXBWIC21110-37321-00691-60000020D0000168D00200000046914      GGSL
TXBWIC21110-37321-00692-30000250D0002761D0297000253692150    GGSL
TXBWIC21110-37321-00771-50000021D0000112D0028500048771       GGSL
TXBWIC21110-37321-00775-30000162D0000868D0174600666775       GGSL
TXBWIC21110-37321-00777-70000072D0000727D0037300000777       GGSL
TXBWIC21110-37321-00779-10000039D0000331D0053700300779       GGSL
TXBWIC21110-37321-00784-50000006D0000020D0046200012784       GGSL
TXBWIC21110-37321-00786-90000132D0000503D0423600306786       GGSL
TXBWIC21110-37321-00789-00000104D0000659D0156400560791       GGSL
TXBWIC21110-37321-00803-30000036D0000332D0016800018803       GGSL
TXBWIC21110-37321-00811-80000146D0001716D0121800427811       GGSL
TXBWIC21110-37321-00813-20000084D0001130D0047400348813       GGSL
TXBWIC21110-37321-00857-60000132D0001180D0099600000857       GGSL
TXBWIC21110-37321-00862-00000123D0001420D0050100108862       GGSL
TXBWIC21110-37321-00863-70000012D0000148D00000000008634      GGSL
TXBWIC21110-37321-00866-80000006D0000088D0000000012866       GGSL
TXBWIC21110-37321-00870-50000072D0000338D0040800012870       GGSL
TXBWIC21110-37321-00875-00000129D0001459D0056500012875       GGSL
TXBWIC21110-37321-00880-40000066D0000772D0074700036880       GGSL
TXBWIC21110-37321-00881-10000012D0000256D0000000096881       GGSL
TXBWIC21110-37321-00883-50000072D0000337D0057900834883       GGSL
TXBWIC21110-37321-00892-70000048D0000420D0010801896892       GGSL
TXBWIC21110-37321-00908-50000006D0000064D00000000669086      GGSL
TXBWIC21110-37321-00909-20000012D0000238D0006000036909       GGSL
TXBWIC21110-37321-00925-20000588D0001746D0259501071925       GGSL
TXBWIC21110-37321-00939-90000096D0000973D0073200996939       GGSL
TXBWIC21110-37321-00941-20000430D0004616D0129000744941       GGSL
TXBWIC21110-37321-00951-10000291D0001187D0091501152951       GGSL
TXBWIC21110-37321-00952-80000156D0000819D0034800276952       GGSL
TXBWIC21110-37321-00963-40000006D0000057D00006000069636      GGSL
TXBWIC21110-37321-00982-50000048D0000209D0063600048982       GGSL
TXBWIC21110-37321-00987-00000060D0000560D0100600132987       GGSL
TXBWIC21110-37321-00991-70000012D0000072D0000000036991       GGSL
TXBWIC21110-37321-02031-80000024D0000677D00000000422031      GGSL
TXBWIC21110-37321-02061-50000024D0000410D00000001202061      GGSL
TXBWIC21110-37321-02360-90000114D0000861D00237000122360      GGSL
TXBWIC21110-37321-02361-60000114D0001268D00093002732361      GGSL
TXBWIC21110-37321-02362-30000020D0000375D00000000162362      GGSL
TXBWIC21110-37321-02600-60000024D0000287D00000000722600      GGSL
TXBWIC21110-37321-02608-20000004D0000371D00000000282608      GGSL
TXBWIC21110-37321-02610-50000012D0000069D00000001322610      GGSL
TXBWIC21110-37321-03082-90000003D0000052D00000000003082      GGSL
TXBWIC21110-37321-05612-60000051D0000491D00595000365612      GGSL
TXBWIC21110-37321-05712-30000033D0000316D00222000125712      GGSL
TXBWIC21110-37321-05714-70000008D0000248D00024000085714      GGSL
TXBWIC21110-37321-07458-80000012D0000185D00192000847458      GGSL
TXBWIC21110-37321-09534-70000228D0002588D00150004119534      GGSL
TXBWIC21110-37321-46125-80000020D0000038D000000009046125     GGSL
TXBWIC21110-37321-46126-50000900D0000164D082000060046126     GGSL
TXBWIC21110-37321-46173-90000006D0000060D000000000346173     GGSL
TXBWIC21110-37321-46183-80000048D0000389D0006600000691       GGSL
TXBWIC21110-37321-46406-80000080D0000631D005600004046406     GGSL
TXBWIC21110-37321-60400-60000006D0000090D000710124960402     GGSL
TXBWIC21110-37321-60430-30000002D0000025D000440000060432     GGSL
TXBWIC21110-37321-60476-10000210D0002432D011610258260478     GGSL
TXBWIC21110-37321-60514-00000378D0004032D028940084560516     GGSL
TXBWIC21110-38313-00008-00000041D0000708D0039600024BP 3130   GGSL
TXBWIC21110-38313-00060-80000143D0002459D0165501032BP 3160   GGSL
TXBWIC21110-38313-00080-60000119D0002305D0065100894BP 3180D  GGSL
TXBWIC21110-38313-00217-60000044D0000746D0003300006FS 4350   GGSL
TXBWIC21110-38313-00830-70000044D0001339D0008800000BP 6250   GGSL
TXBWIC21110-38313-01010-20000270D0001380D0181201062CT 3010I  GGSL
TXBWIC21110-38313-01020-10000102D0000512D0058200378CT 3020I  GGSL
TXBWIC21110-38313-01030-00000042D0000210D0005400066CT 3030I  GGSL
TXBWIC21110-38313-03050-60000030D0000207D0013800018GT 3050   GGSL
TXBWIC21110-38313-03060-50000018D0000131D0009000012GT 3060   GGSL
TXBWIC21110-38313-03080-30000024D0000184D0007800402GT 3080   GGSL
TXBWIC21110-38313-03214-20000006D0000073D0028200030BP 3214D  GGSL
TXBWIC21110-38313-03264-40000006D0000125D0059400042SL 3264   GGSL
TXBWIC21110-38313-03334-70000006D0000058D0008400000AP 3334   GGSL
TXBWIC21110-38313-03394-10000006D0000045D0005400006FS 3394   GGSL
TXBWIC21110-38313-03470-20000011D0000330D0000500005FL 3470   GGSL
TXBWIC21110-38313-03634-80000001D0000030D0001500015LG 3634   GGSL
TXBWIC21110-38313-03710-90000252D0001268D0114600072CT 3710   GGSL
TXBWIC21110-38313-03720-80000006D0000046D0078000072CT 3720   GGSL
TXBWIC21110-38313-03730-70000072D0000349D0016200000CT 3730   GGSL
TXBWIC21110-38313-03750-50000084D0000415D0010200090CT 3750   GGSL
TXBWIC21110-38313-04930-00001268D0007009D0316400313AG 4930   GGSL
TXBWIC21110-38313-04930-70000382D0003085D0108300210AG 4930SS GGSL
TXBWIC21110-38313-06970-40000010D0000450D0016700032AH 6970   GGSL
TXBWIC21110-38313-07001-00000004D0000180D0001800000FK 70010  GGSL
TXBWIC21110-38313-07395-40000018D0000366D0000000012RS 7395   GGSL
TXBWIC21110-38313-07545-20000007D0000119D0009700000RS 7245   GGSL
TXBWIC21110-38313-10000-10000067D0000628D0032300019SS 10000  GGSL
TXBWIC21110-38313-10227-20000013D0000917D0009500013AL 6512   GGSL
TXBWIC21110-38313-11000-00000019D0000186D0000300000SS 11000  GGSL
TXBWIC21110-38313-12400-70000139D0001775D0012700059RK 24003  GGSL
TXBWIC21110-38313-14300-80000001D0000045D0002200000BM 43001  GGSL
TXBWIC21110-38313-20001-50000006D0000135D0003000007PD 20000  GGSL
TXBWIC21110-38313-20002-20000015D0000240D0006900159RK 20002  GGSL
TXBWIC21110-38313-20004-60000020D0000247D0009600180CV 20004  GGSL
TXBWIC21110-38313-20022-00000018D0000323D0016400017RK 20022  GGSL
TXBWIC21110-38313-21000-70000025D0000360D0018700145SH 20000  GGSL
TXBWIC21110-38313-24000-40000014D0000124D0077700000FS 4000   GGSL
TXBWIC21110-38313-24601-30000012D0000201D0001200000RK 24061  GGSL
TXBWIC21110-38313-26020-00000018D0000285D0012200046SS 26020  GGSL
TXBWIC21110-38313-27020-90000016D0000245D0001500014SS 27020  GGSL
TXBWIC21110-38313-28000-00000001D0000018D0003400001SS 28000  GGSL
TXBWIC21110-38313-28010-90000023D0000513D0007000007SS 28010  GGSL
TXBWIC21110-38313-33140-50000008D0000062D0021600008CT 3314   GGSL
TXBWIC21110-38313-33240-20000570C0000062C0015200048CT 3324   GGSL
TXBWIC21110-38313-33440-60000032D0000248D0021600392CT 3344   GGSL
TXBWIC21110-38313-33540-30000008D0000060D0016000008CT 3354   GGSL
TXBWIC21110-38313-33640-00000040D0000298D0027200320CT 3364   GGSL
TXBWIC21110-38313-37101-20000001D0000022D0001500007LG 3710   GGSL
TXBWIC21110-38313-45030-40000009D0000171D0000000009RK 45030  GGSL
TXBWIC21110-38313-56200-70000022D0000187D0004600001RK 62000  GGSL
TXBWIC21110-38313-61062-30000001D0000056D0000100003RK 61062  GGSL
TXBWIC21110-38313-62062-20000004D0000203D0006000062BM 62060  GGSL
TXBWIC21110-38313-65000-10000001D0000025D0001500001SS 65000  GGSL
TXBWIC21110-38313-66500-50000012D0000378D0000000000SL 6500   GGSL
TXBWIC21110-38313-80000-00000001D0000096D0001700001SF 80000  GGSL
TXBWIC21110-38313-81000-90000040D0000425D0024300026RK 10000  GGSL
TXBWIC21110-38313-90000-70000003D0000031D0001800004SH 10000  GGSL
TXBWIC21110-38313-90020-50000006D0000358D0000000000AS 90020  GGSL
TXBWIC21110-38313-90300-80000002D0000151D0000200002AS 90300  GGSL
TXBWIC21110-39645-11752-10000076D0000255D003110000040200010  GGSL
TXBWIC21110-39996-30292-80000440D0004024D000000044030292     GGSL
TXBWIC21110-39996-30293-50000340D0004545D000000054030293     GGSL
TXBWIC21110-40025-54033-40000009D0000351D0004500000RWS-54033 GGSL
TXBWIC21110-40200-00000- 0000125D0000047D0000000050VBC H11-7 GGSL
TXBWIC21110-40235-75256-50000002D0000036D00044000002.5G30S   GGSL
TXBWIC21110-40279-03300-20000300D0000603D00960002763300      GGSL
TXBWIC21110-40279-03302-60000204D0000422D0046800084          GGSL
TXBWIC21110-40279-16136-70000072D0000125D000000000016136     GGSL
TXBWIC21110-41535-24550-40000286D0011940D003070003224550     GGSL
TXBWIC21110-41535-24560-30000409D0066688D006010003124560     GGSL
TXBWIC21110-41535-24571-90000571D0009079D0105200333100518540 GGSL
TXBWIC21110-42204-14504-80000004D0000004D00001000002MMC      GGSL
TXBWIC21110-42206-00056-90000012D0000082D000240004856-6      GGSL
TXBWIC21110-42206-00202-00000080D0000110D0064400060202S      GGSL
TXBWIC21110-42206-00202-10000001D0000001D0001000000202S      GGSL
TXBWIC21110-42206-00395-90000042D0000122D0064000130395S      GGSL
TXBWIC21110-42206-00525-00000016D0000049D0027600150525C      GGSL
TXBWIC21110-42206-00702-50000012D0000071D0000000066702-6     GGSL
TXBWIC21110-42206-00872-50000006D0000015D0022800060872-6     GGSL
TXBWIC21110-42206-03010-80000008D0000086D00126000523010-4    GGSL
TXBWIC21110-42206-09000-30000044D0000319D00544000509000      GGSL
TXBWIC21110-42206-09620-30000039C0000319C00178000289620-8    GGSL
TXBWIC21110-42206-14058-60000156D0000994D00432000009570      GGSL
TXBWIC21110-42206-14066-10000012D0000049D00072000609560C     GGSL
TXBWIC21110-42206-14220-70000036D0000193D0051000130312S      GGSL
TXBWIC21110-42206-14221-40000036D0000075D0042800050313S      GGSL
TXBWIC21110-42206-14235-10000030D0000040D0016500000390S      GGSL
TXBWIC21110-42206-14456-00000014D0000029D0051800126420C      GGSL
TXBWIC21110-42206-14501-70000032D0000032D00337000401FMC      GGSL
TXBWIC21110-42206-14502-40000032D0000026D00315000801MMC      GGSL
TXBWIC21110-42206-14503- 0000006D0000006D00001000002FMC      GGSL
TXBWIC21110-42206-14503-10000122D0000137D01193001202FMC      GGSL
TXBWIC21110-42206-14504-80000104D0000099D00923001402MMC      GGSL
TXBWIC21110-42206-14505-50000040D0000044D002560004001MC      GGSL
TXBWIC21110-42206-14506-20000065D0000074D006150012002MC      GGSL
TXBWIC21110-42206-14570-30000026D0000177D0028000000ZBR3/4    GGSL
TXBWIC21110-42206-14571-00000042D0000173D0047500050ZBM3/4    GGSL
TXBWIC21110-42206-14572-70000034D0000149D0051700050ZBF3/4    GGSL
TXBWIC21110-42206-15111-70000010D0000074D001260000615111     GGSL
TXBWIC21110-42206-20491-20000030D0000169D002040000020491-10  GGSL
TXBWIC21110-42206-22261-90000180D0002014D002760001222261     GGSL
TXBWIC21110-42206-22300-50000012D0000153D000960000022300     GGSL
TXBWIC21110-42206-22701-00000002D0000007D002560000022701C    GGSL
TXBWIC21110-42206-40301-80000046D0000289D0023000600XT301     GGSL
TXBWIC21110-42206-48635-60000012D0000069D0022800516R8635     GGSL
TXBWIC21110-42206-63015-50000065D0002052D000800000063015     GGSL
TXBWIC21110-42579-00052-40000004D0000186D0000300000ST47812   GGSL
TXBWIC21110-42579-11250-00000012D0005329D0021400007P12       GGSL
TXBWIC21110-42579-11500-60000102D0004592D0037100008APB5      GGSL
TXBWIC21110-42579-12343-80000063D0002966D000000008420 YR-3100GGSL
TXBWIC21110-42579-12346-90000096D0000180D0000000144TW3W      GGSL
TXBWIC21110-42579-13250-80000511D0015474D0203300276P3        GGSL
TXBWIC21110-42579-14250-70000243D0023658D0099600091P4        GGSL
TXBWIC21110-42579-15250-60000026D0003639D0021700134P5        GGSL
TXBWIC21110-42579-16250-50000124D0018478D0045900239P6        GGSL
TXBWIC21110-42579-18250-30000020D0007057D0020000014P8        GGSL
TXBWIC21110-42579-19342-40000144D0001937D012000019220 YR-324 GGSL
TXBWIC21110-42579-22341-10000864D0005613D15296042886 YR-350  GGSL
TXBWIC21110-42579-22342-80001842D0020777D0127201860NS12      GGSL
TXBWIC21110-42579-22345-90001080D0001778D0824704320APRC      GGSL
TXBWIC21110-42579-23100-30000032D0000224D00176004486 YR-3100 GGSL
TXBWIC21110-42579-32355-50000350D0002313D0113400238RS15      GGSL
TXBWIC21110-42579-43004-80000021D0002270D0007300088NB4       GGSL
TXBWIC21110-42579-43006-20000016D0002391D0003600009NB6       GGSL
TXBWIC21110-42579-43240-00000060D0000507D0000000100NB324     GGSL
TXBWIC21110-42579-50154-00000080D0002202D0036800096PRO BLK-31GGSL
TXBWIC21110-42579-50169-40000018D0000409D0064800000PRO BLK-45GGSL
TXBWIC21110-42579-63041-70000003D0000424D0001700002KG6       GGSL
TXBWIC21110-42579-63105-60000018D0001120D0009500007350ROLL   GGSL
TXBWIC21110-42579-63106-30003000D0000420D0000000600CLIP-C    GGSL
TXBWIC21110-42579-63306-70000252D0001656D03564000723 YR-350  GGSL
TXBWIC21110-42579-81359-90000004D0000385D0000000000SG12500   GGSL
TXBWIC21110-42579-81360-50000221D0041489D0012100114NS12250   GGSL
TXBWIC21110-42579-81392-60000035D0009597D0000000101WGC15     GGSL
TXBWIC21110-42579-81407-70000008D0000146D0000000000SSR6BLK   GGSL
TXBWIC21110-42579-81428-20000462D0000957D0039700090BURLAP BAGGGSL
TXBWIC21110-42579-81566-10000107D0015836D0070400017SBLT10300 GGSL
TXBWIC21110-42579-81568-50000182D0031472D0101200064SBLT12300 GGSL
TXBWIC21110-42579-81569-20000388D0082385D0171500067SBLT15.530GGSL
TXBWIC21110-42579-81571-50000183D0008641D0163400009SBLT3300  GGSL
TXBWIC21110-42579-81572-20000169D0010063D0042700009SBLT4300  GGSL
TXBWIC21110-42579-81573-90000190D0018245D0208500158SBLT6300  GGSL
TXBWIC21110-42579-81605-70000085C0018245C0003300010PRO BLK-33GGSL
TXBWIC21110-42579-81606-40000046D0005400D0006800003PRO BLK-43GGSL
TXBWIC21110-42579-81607-10000053D0009527D0009800003PRO BLK-63GGSL
TXBWIC21110-42579-81608-80000004D0000980D0001200000PRO BLK-83GGSL
TXBWIC21110-42579-81624-80000018D0000279D0000000144PRO BLK-35GGSL
TXBWIC21110-42579-81733-70000027D0001920D0005400003CS-3300BLKGGSL
TXBWIC21110-42579-81734-40000008D0000722D0006400000CS-4300BLKGGSL
TXBWIC21110-42579-81735-10000012D0001712D0008500000CS-6300BLKGGSL
TXBWIC21110-42579-81738-20000001D0000269D0001000000CS-350BLK GGSL
TXBWIC21110-42579-81739-90000001D0000233D0001300001CS-3100BLKGGSL
TXBWIC21110-42579-82225-60000048D0001039D0001600064SUPREME650GGSL
TXBWIC21110-42579-82278-20000012D0000126D0004800108TWBAG-12  GGSL
TXBWIC21110-42579-82283-60000040D0000472D0000000025STRTS-28  GGSL
TXBWIC21110-42579-82293-50000560D0003493D0002801176SUPREME625GGSL
TXBWIC21110-42579-82320-80000024D0000243D0000000000TWD-24    GGSL
TXBWIC21110-42579-82341-30000012D0000518D0000000018DDF7100PROGGSL
TXBWIC21110-42853-00000-00000023D0000602D0022800100BFTD-DB12 GGSL
TXBWIC21110-42853-42000-00000018D0000115D0013800006TSBF-BB6  GGSL
TXBWIC21110-42853-50000-90000018D0000135D0039000174TSW-BB6   GGSL
TXBWIC21110-42853-61000-50000020D0000089D0000000000FFTR2-BB4 GGSL
TXBWIC21110-42853-62000-40000012D0000015D0003101572FFTA-DB12 GGSL
TXBWIC21110-42853-77305-40000033D0001094D0000900080FTD-DB12  GGSL
TXBWIC21110-42853-77603-90000001D0000043D0000300001YJTD-DB12-GGSL
TXBWIC21110-42854-03298-10000060D0000129D0051600204FG32ORB112GGSL
TXBWIC21110-42854-63278-50000012D0000023D0038400264FG32PC1-12GGSL
TXBWIC21110-42854-64870-00000018D0000126D0000600072FG48PC1-6 GGSL
TXBWIC21110-42854-93200-70000024D0000120D0014400012FG32SM1-12GGSL
TXBWIC21110-43312-10001-50000024D0000293D0002400000101-0-027 GGSL
TXBWIC21110-43312-10003-70000465D0001460D0109000000103-0-009 GGSL
TXBWIC21110-43312-10027-30000096D0000799D0050400000104-0-003 GGSL
TXBWIC21110-43312-10030-80000024D0000257D0018000000104-0-058 GGSL
TXBWIC21110-43312-10102-70000432D0000645D0072000144102-0-012 GGSL
TXBWIC21110-43326-15720-10000080D0000339D0000000000M8X10     GGSL
TXBWIC21110-43326-15745-40000008D0000079D0000000000M12X16    GGSL
TXBWIC21110-43326-17710-00000012D0000050D0000000000BRB6X8-P  GGSL
TXBWIC21110-43326-20004-40000100D0000128D0000000050STR-21    GGSL
TXBWIC21110-43792-50001-30000003D0000122D0002100002Y32       GGSL
TXBWIC21110-43792-60002-70000008D0000327D0003700004W32       GGSL
TXBWIC21110-43792-70002-40000009D0000367D0003000003R32       GGSL
TXBWIC21110-43792-80001-40000037C0000367C0000000003SW10      GGSL
TXBWIC21110-43792-90003-50000002D0000106D0000200003GA10      GGSL
TXBWIC21110-44882-30502-00000010D0000193D0012500150FXG5850   GGSL
TXBWIC21110-46539-62045-60001331D0018190D0448800391          GGSL
TXBWIC21110-46539-64032-40000885D0007630D0075901109          GGSL
TXBWIC21110-46753-01032-30000030D0000120D00000000604675301032GGSL
TXBWIC21110-46753-01128-30000048D0000410D00004000044675301128GGSL
TXBWIC21110-46753-01300-30000001D0000228D000000000013003     GGSL
TXBWIC21110-46753-01500-70000001D0000050D00010000004675302500GGSL
TXBWIC21110-46753-02032-20000016D0000081D00019000004675302032GGSL
TXBWIC21110-46753-02128-20000060D0000691D00195000004675302128GGSL
TXBWIC21110-46753-03128-10000032D0000416D00016000004675303128GGSL
TXBWIC21110-46753-04032-00000072D0000415D00528001204675304032GGSL
TXBWIC21110-46753-04033-70000036D0000302D00078005522004675304GGSL
TXBWIC21110-46753-04128-00000144D0001963D00160002044675304128GGSL
TXBWIC21110-46753-04500-10000006D0000231D0000400000ZZMED5GALPGGSL
TXBWIC21110-46753-04500-40000003D0000186D000210000045004     GGSL
TXBWIC21110-46753-05032-90000054D0000469D00078005464675305032GGSL
TXBWIC21110-46753-05128-90000096D0001300D00096002844675305128GGSL
TXBWIC21110-46753-07032-70000018D0000094D00075000004675307032GGSL
TXBWIC21110-46753-08032-60000198D0003063D00183003844675308032GGSL
TXBWIC21110-46753-14128-70000072D0000564D00126000764675314128GGSL
TXBWIC21110-46753-14550-60000002D0000581D000000000014550     GGSL
TXBWIC21110-46753-17005-80000024D0000099D00290000004675317005GGSL
TXBWIC21110-46753-17040-90000535D0007399D00949000004675317040GGSL
TXBWIC21110-46753-19500-60000009D0000574D0000000000195006    GGSL
TXBWIC21110-46753-19550-10000002D0001108D000000000095501     GGSL
TXBWIC21110-46753-20128-80000012D0000240D0000000044          GGSL
TXBWIC21110-46753-21032-70000036D0000171D000030060010327     GGSL
TXBWIC21110-46753-21128-70000052D0000713D000840006812287     GGSL
TXBWIC21110-46753-22550-50000002D0001121D000000000025505     GGSL
TXBWIC21110-46753-30165-00000003D0004320D00000000001650      GGSL
TXBWIC21110-46878-26380-20000012D0000132D000360000026380     GGSL
TXBWIC21110-46878-26381-90000003D0000033D000330000026381     GGSL
TXBWIC21110-46878-26382-60000003D0000033D000270000026382     GGSL
TXBWIC21110-46878-27389-40000003D0000052D000150000027389     GGSL
TXBWIC21110-46878-27436-50000003D0000052D000150000027436     GGSL
TXBWIC21110-46878-27560-70000006D0000104D000090000027560     GGSL
TXBWIC21110-47985-10023-30000022D0000190D0031000000YCBSM3CF-PGGSL
TXBWIC21110-47985-10033-20000528D0004242D0071000004YCBSI3CF-PGGSL
TXBWIC21110-48307-70003-20000011D0000089D0006000000ST3       GGSL
TXBWIC21110-48307-70004-90000023D0000269D0031300000ST4-WS    GGSL
TXBWIC21110-48307-70005-60000009D0000134D0010000000ST5       GGSL
TXBWIC21110-48745-22244-80000024D0000601D0002400004BL22244   GGSL
TXBWIC21110-48745-34532-10000012D0000131D00000000000348206   GGSL
TXBWIC21110-50197-00104-50000486D0002020D0140500168HT4       GGSL
TXBWIC21110-50197-00108-30000030D0000206D0007800036HT8       GGSL
TXBWIC21110-50197-00118-20000123D0001476D0088300023HT18      GGSL
TXBWIC21110-50197-00136-60000015D0000321D0022200008HT36      GGSL
TXBWIC21110-50197-00150-20000031D0000823D0008700009HT50      GGSL
TXBWIC21110-50197-00204-20000438D0001859D0203401044PT4       GGSL
TXBWIC21110-50197-00208-00000030D0000224D0001200006PT8       GGSL
TXBWIC21110-50197-00218-90000097D0001107D0010800025PT18      GGSL
TXBWIC21110-50197-00236-30000031D0000635D0011400004PT36      GGSL
TXBWIC21110-50197-00250-90000006D0000161D0005800011PT50      GGSL
TXBWIC21110-50197-00304-90000131D0000601D0096000456GT4       GGSL
TXBWIC21110-50197-00318-60000424C0000601C0032300045GT18      GGSL
TXBWIC21110-50197-00336-00000020D0000448D0007300004GT36      GGSL
TXBWIC21110-50197-00404-60000240D0001050D0029100672RT4       GGSL
TXBWIC21110-50197-00408-40000030D0000230D0004800006RT8       GGSL
TXBWIC21110-50197-00418-30000363D0004624D0021100026RT18      GGSL
TXBWIC21110-50197-00604-00000267D0001176D0019800300BT4       GGSL
TXBWIC21110-50197-00704-70000312D0001202D0028400252TR4       GGSL
TXBWIC21110-50197-00718-40000069D0000789D0013300000TR18      GGSL
TXBWIC21110-50197-00904-10000096D0000453D0092802196TO4       GGSL
TXBWIC21110-50197-00908-60000048D0000356D0010200006TO8       GGSL
TXBWIC21110-50197-00918-80000037D0000529D0005600021TO18      GGSL
TXBWIC21110-50197-01004-70000106D0000477D0000000492BM04      GGSL
TXBWIC21110-50197-01106-80000012D0000124D0001200000gs6       GGSL
TXBWIC21110-50197-01228-70000023D0000436D0003300004RP28      GGSL
TXBWIC21110-50197-01303-10000204D0001207D0000000768DB03      GGSL
TXBWIC21110-50197-01317-80000018D0000559D0001200000DB17      GGSL
TXBWIC21110-50197-01803-60000036D0000127D0012000012GM3       GGSL
TXBWIC21110-50197-01825-80000090D0000957D0010600002GM25      GGSL
TXBWIC21110-50197-01905-70000006D0000023D0000600024GF5105/6  GGSL
TXBWIC21110-50197-02006-00000042D0000106D0033900198GL6       GGSL
TXBWIC21110-50197-02206-40000030D0000150D0015000192GG6       GGSL
TXBWIC21110-50197-02904-90000168D0000738D0031000366FT4       GGSL
TXBWIC21110-50197-02918-60000015D0000191D0014700015FT18      GGSL
TXBWIC21110-50197-03804-10000560D0002963D0094000132BTSP4     GGSL
TXBWIC21110-50197-03818-80000003D0000061D0000000060BTSP18    GGSL
TXBWIC21110-50197-03825-60000126D0003393D0028400051BTSP25    GGSL
TXBWIC21110-50197-03904-80000042D0000200D0012100468PM4       GGSL
TXBWIC21110-50197-03920-80000017D0000248D0001500003PM20      GGSL
TXBWIC21110-50197-05004-30000168D0000796D0050601368CT4       GGSL
TXBWIC21110-50197-05018-00000058D0000785D0025400003CT18      GGSL
TXBWIC21110-50197-05320-40000009D0000160D0027100002ELF20     GGSL
TXBWIC21110-50197-05420-10000002D0000029D0005500000it20      GGSL
TXBWIC21110-50197-05628-10000013D0000322D0003800001EOLF28    GGSL
TXBWIC21110-50197-06504-70000114D0000506D0047700648AT4       GGSL
TXBWIC21110-50197-06508-50000012D0000089D0004800006AT8       GGSL
TXBWIC21110-50197-06518-40000002D0000026D0000500010AT18      GGSL
TXBWIC21110-50197-06604-40000054D0000240D0051600000BR4       GGSL
TXBWIC21110-50197-06708-90000060D0000373D0000600000ET8       GGSL
TXBWIC21110-50197-30608-90000012D0000051D0000000042CAPF8     GGSL
TXBWIC21110-50197-51324-10000012D0000066D0004800234EONM24    GGSL
TXBWIC21110-50197-51701-00000012D0000062D0000000012eoss1     GGSL
TXBWIC21110-50197-70101-30000763D0004222D0011400000ap1       GGSL
TXBWIC21110-50197-70102-00001142D0009771D0039300000ap2       GGSL
TXBWIC21110-50197-70304-80000120D0000371D0062000108ca4       GGSL
TXBWIC21110-50197-70308-60000054D0000234D0005400006ca8       GGSL
TXBWIC21110-50197-70608-70000089C0000234C0069000000PTM8      GGSL
TXBWIC21110-50197-71304-70000048D0000338D0028800252EC4       GGSL
TXBWIC21110-50197-71501-00000310D0001931D0070700373lsc1      GGSL
TXBWIC21110-50197-71601-70000123D0000628D0008400000dcm1      GGSL
TXBWIC21110-50197-71904-90000084D0000589D0006000552HC4       GGSL
TXBWIC21110-50197-80117-10000349D0003780D0007600042SC17      GGSL
TXBWIC21110-50349-01039-00000006D0000493D00000000021039-012  GGSL
TXBWIC21110-50349-18885-30000003D0000047D00000000008885-034  GGSL
TXBWIC21110-50699-00001-00000003D0000029D0009100000300001    GGSL
TXBWIC21110-50699-00014-00000004D0000017D0000000004300014    GGSL
TXBWIC21110-50699-00128-10000003D0000102D0006900000300128    GGSL
TXBWIC21110-50699-00212-00000012D0000111D0007800012300212    GGSL
TXBWIC21110-51497-15464-60000001D0000140D000040000015464     GGSL
TXBWIC21110-52427-01038-40000001D0000018D0000000000105462    GGSL
TXBWIC21110-52427-01048-30000001D0000037D0000000000105629    GGSL
TXBWIC21110-52427-01049-00000001D0000041D0000000000105634    GGSL
TXBWIC21110-52732-00000-00000016D0000927D000160011719109     GGSL
TXBWIC21110-52732-10012-10000006D0000796D000990000410001     GGSL
TXBWIC21110-52732-20505-50000028D0002423D00060000152050SU    GGSL
TXBWIC21110-52732-20509-30000016D0002328D00078000262050P     GGSL
TXBWIC21110-52732-20519-20000001D0000153D00031000002050TP    GGSL
TXBWIC21110-52732-21700-30000001D0000278D00000000012170      GGSL
TXBWIC21110-52732-27500-30000188D0008652D01237001212750      GGSL
TXBWIC21110-52732-34000-80000001D0000020D00010000003400.0    GGSL
TXBWIC21110-53291-11002-60000166D0001928D0003600012820-1002  GGSL
TXBWIC21110-53291-19881-90000001D0000012D0000600000820-1002  GGSL
TXBWIC21110-53291-55981-80000012D0000052D0000000000820-0188  GGSL
TXBWIC21110-58115-00114-60000004D0000064D0000000010114       GGSL
TXBWIC21110-66498-01115-70000166D0004080D001780000901115.0   GGSL
TXBWIC21110-66498-02115-60003146D0053429D047660111002775.0   GGSL
TXBWIC21110-66498-02185-90000033D0000495D001470000002185     GGSL
TXBWIC21110-66498-04175-80000685D0008126D016950140104175.0   GGSL
TXBWIC21110-66498-05113-90000285D0002053D002740003205175.0   GGSL
TXBWIC21110-66498-09782-30000585D0005762D000000001509782.0   GGSL
TXBWIC21110-66498-09901-80004044D0026286D071880135409901.0   GGSL
TXBWIC21110-66498-09902-50002733D0029794D081220059109902.0   GGSL
TXBWIC21110-66498-09903-20002233D0029942D018670114209903.0   GGSL
TXBWIC21110-66498-09925-40000168D0000784D016380011409925     GGSL
TXBWIC21110-66498-09929-20000025D0000150D002490000109929     GGSL
TXBWIC21110-66498-09937-70001140D0003813D068630094809937     GGSL
TXBWIC21110-66498-09939-10000039D0000376D000330037809939     GGSL
TXBWIC21110-66498-09947-60000192D0000647D016080052809947     GGSL
TXBWIC21110-66498-09950-50000870D0006269D023160057609955     GGSL
TXBWIC21110-66498-09965-00000546D0004635D010620036609965     GGSL
TXBWIC21110-66498-09977-30000312D0002082D010080078009977     GGSL
TXBWIC21110-66498-09985-80000084D0000359D008810039009985     GGSL
TXBWIC21110-66498-89905-20001134D0005174D041960047409905     GGSL
TXBWIC21110-66498-99827-40000948D0005342D024120066009827     GGSL
TXBWIC21110-70183-50005-50000020D0000704D00068000045000510   GGSL
TXBWIC21110-70183-50006-20000024D0000918D00030000005000610   GGSL
TXBWIC21110-70183-50023-90000018D0000437D00042000005002306   GGSL
TXBWIC21110-70183-50026-00000020D0000327D00204001085002610   GGSL
TXBWIC21110-70183-50027-70000024D0000112D00132000005002715   GGSL
TXBWIC21110-70183-50029-10000008D0000106D00023000005007410   GGSL
TXBWIC21110-70183-50034-50000231D0001026D00465000005003470   GGSL
TXBWIC21110-70183-50038-30000020D0000284D00076000005003810   GGSL
TXBWIC21110-70183-50042-00000028D0002492D00018000005004215   GGSL
TXBWIC21110-70183-50055-00000072D0000828D00096000845003610   GGSL
TXBWIC21110-70183-50060-40000126D0004340D00057000005006010   GGSL
TXBWIC21110-70183-50085-70000006D0000309D00000000005008510   GGSL
TXBWIC21110-70183-51001-60000224D0004574D00060000165100114   GGSL
TXBWIC21110-70183-51006-10000072D0001649D00192000125100612   GGSL
TXBWIC21110-70183-51007-80000018D0000792D00042000185100710   GGSL
TXBWIC21110-70183-51019-10000060D0001442D00056000005101910   GGSL
TXBWIC21110-70183-51073-30000084D0000446D00264000005107315   GGSL
TXBWIC21110-70183-51090-00000024D0000477D00172000045109010   GGSL
TXBWIC21110-70183-52039-80000004D0000098D00080000005203910   GGSL
TXBWIC21110-70183-52350-40000004D0000106D00012000005235010   GGSL
TXBWIC21110-70183-57050-80000036D0001162D00042000005705010   GGSL
TXBWIC21110-70183-57250-20000192D0004042D00052000045725070   GGSL
TXBWIC21110-70251-65240-20000012D0000339D0002900000652400    GGSL
TXBWIC21110-70251-75546-20000006D0000050D0002100012755460    GGSL
TXBWIC21110-70251-79160-60000006D0000063D0009600024791600    GGSL
TXBWIC21110-70251-81182-30000012D0000163D00012000008111082   GGSL
TXBWIC21110-70735-00000-00000012D0000016D0011900000CHINAMARKEGGSL
TXBWIC21110-70805-51001-10000490D0001165D013400002070805-010-GGSL
TXBWIC21110-70805-51002-80000260D0001219D006770002070805-005-GGSL
TXBWIC21110-70805-51013-40001654D0024319D0249000071BD02      GGSL
TXBWIC21110-70805-51024-00000060D0000229D003900000670805-006-GGSL
TXBWIC21110-70805-51025-70002405D0034546D048970005470805-001-GGSL
TXBWIC21110-70805-51026-40000150D0000542D002280001270805-006-GGSL
TXBWIC21110-70805-51033-20000329D0004702D004540001070805-001-GGSL
TXBWIC21110-70805-51034-90000288D0008066D004930000570805-001-GGSL
TXBWIC21110-70805-51037-00000023D0000295D000620000070805-001-GGSL
TXBWIC21110-70805-51038-70000039D0000916D001240000070805-001-GGSL
TXBWIC21110-70805-51051-60000064D0000429D002400002470805-008-GGSL
TXBWIC21110-70805-53003-30001113D0008923D0297300066BD021     GGSL
TXBWIC21110-70805-62025-30004585D0122082D052750045370805-001-GGSL
TXBWIC21110-70805-84052-10000024D0000727D0009500000KERNEL_M-0GGSL
TXBWIC21110-70805-84053-80000151D0003731D001810000070805-001-GGSL
TXBWIC21110-70805-84054-50000080D0001368D003220000770805-001-GGSL
TXBWIC21110-70805-84075-00000353D0011444D007690000570805-001-GGSL
TXBWIC21110-70805-84076-70000080D0004648D004860000070805-001-GGSL
TXBWIC21110-70805-84077-40000002D0000115D0014400000KERNEL_M-0GGSL
TXBWIC21110-70805-84079-80000142D0006742D003620000570805-001-GGSL
TXBWIC21110-70805-84093-40000023D0001141D0008600001PEANUTSPL-GGSL
TXBWIC21110-70923-00000-00000035D0000176D0027100000600.0     GGSL
TXBWIC21110-70923-00196-50000084D0000183D0061100036T100-12   GGSL
TXBWIC21110-70923-00300-60000060D0000282D0086400024300.0     GGSL
TXBWIC21110-70923-00402-70000012D0000043D0013200012T401-6    GGSL
TXBWIC21110-70923-00912-10000018D0000099D0007200000T901-6    GGSL
TXBWIC21110-70923-02111-60000006D0000035D0001800000T21016    GGSL
TXBWIC21110-70923-02301-10000024D0000081D0009000024T2302-6   GGSL
TXBWIC21110-70923-02900-60000140D0000741D0029200032T2900     GGSL
TXBWIC21110-70923-03300-30000006D0000022D0000000000T3300-6   GGSL
TXBWIC21110-70923-08515-60000024D0000043D0035400024T3206     GGSL
TXBWIC21110-70923-12277-60000012D0000065D0006300006T1812     GGSL
TXBWIC21110-70923-19016-40000006D0000036D0000000000T1901-6   GGSL
TXBWIC21110-70923-45546-10000006D0000038D0000600000T512      GGSL
TXBWIC21110-70923-69500-30000038D0001437D0007100000T2512     GGSL
TXBWIC21110-70923-85843-90000018D0000048D0000000000T513      GGSL
TXBWIC21110-71092-32500-80000108D0000511D0037100042T2502     GGSL
TXBWIC21110-71121-05580-40000168D0001292D00312000365580      GGSL
TXBWIC21110-71121-53940-30000080D0000662D0024400000HG-53944  GGSL
TXBWIC21110-71121-61067-60000001D0000479D0000000015HG-861067 GGSL
TXBWIC21110-71121-95675-00000240D0001032D0001200060HG-30110  GGSL
TXBWIC21110-71121-95704-70000144D0000662D0223200024HG-95704  GGSL
TXBWIC21110-71121-95830-30000024D0000217D0000900000HG-95830  GGSL
TXBWIC21110-71121-96280-50000072D0000266D0000002424HG-96280  GGSL
TXBWIC21110-71121-96281-20000060D0000286D0093900012HG-96281  GGSL
TXBWIC21110-71121-96470-00000012D0000051D0000000000HG-96470  GGSL
TXBWIC21110-71549-00000-00000002D0001618D0000000000895422MP82GGSL
TXBWIC21110-71549-01128-40000008D0000025D00072000080112812   GGSL
TXBWIC21110-71549-01129-10000073D0000679D00008000000112912   GGSL
TXBWIC21110-71549-01656-20000006D0000046D00285000000165610   GGSL
TXBWIC21110-71549-01738-50000024D0000192D00360000000173810   GGSL
TXBWIC21110-71549-01936-50000012D0000080D00108000000193610   GGSL
TXBWIC21110-71549-02000-20000006D0000116D00100000000200010   GGSL
TXBWIC21110-71549-02003-30000100D0001657D00028000040200310   GGSL
TXBWIC21110-71549-02014-90000132D0000742D00156000000201405   GGSL
TXBWIC21110-71549-02022-40000012C0000742C00128000000202212   GGSL
TXBWIC21110-71549-02028-60000003C0000742C00008000000202812   GGSL
TXBWIC21110-71549-02044-60000100D0000743D00128000000204410   GGSL
TXBWIC21110-71549-02045-30000286C0000743C00136000000204510   GGSL
TXBWIC21110-71549-02047-70000527C0000743C00876000000204710   GGSL
TXBWIC21110-71549-02048-40000289C0000743C00040000000204810   GGSL
TXBWIC21110-71549-02049-10001377C0000743C00900000000204910   GGSL
TXBWIC21110-71549-02054-50000005C0000743C00024000080205408   GGSL
TXBWIC21110-71549-02055-20000522D0001173D00264000000205506   GGSL
TXBWIC21110-71549-02057-60000002C0001173C00306000000205710   GGSL
TXBWIC21110-71549-02127-60000004D0000055D00000000000212710   GGSL
TXBWIC21110-71549-02208-20000184D0001657D00516000040220810   GGSL
TXBWIC21110-71549-02219-80000007C0001657C00008000000221910   GGSL
TXBWIC21110-71549-02575-50000002D0000798D00000000000200328   GGSL
TXBWIC21110-71549-02756-80000032D0000092D00112000000275612   GGSL
TXBWIC21110-71549-02822-00000548D0005411D00540000060282210   GGSL
TXBWIC21110-71549-03456-60000006D0000030D00222000060345610   GGSL
TXBWIC21110-71549-03964-60000024D0000155D00036000000396410   GGSL
TXBWIC21110-71549-04253-00000076D0000500D00236000000425310   GGSL
TXBWIC21110-71549-04318-60000018D0000087D00236000009994318   GGSL
TXBWIC21110-71549-04380-30000004C0000087C00096000000438006   GGSL
TXBWIC21110-71549-04385-80000042D0000268D00204001020438580   GGSL
TXBWIC21110-71549-04465-70000004D0000049D00016000000446505   GGSL
TXBWIC21110-71549-04477-00000078D0000351D00018000000447705   GGSL
TXBWIC21110-71549-04478-70000072D0000612D00096000000447805   GGSL
TXBWIC21110-71549-04479-40000024D0000190D00588000000447905   GGSL
TXBWIC21110-71549-04481-70000008D0000074D00028000000448105   GGSL
TXBWIC21110-71549-04487-90000090D0000632D00012000000448705   GGSL
TXBWIC21110-71549-04488-60000016D0000251D00024000000448805   GGSL
TXBWIC21110-71549-04491-60000012D0000113D00060000000449105   GGSL
TXBWIC21110-71549-04494-70000012D0000118D00360000000449405   GGSL
TXBWIC21110-71549-04616-30000002D0000012D00089000000461612   GGSL
TXBWIC21110-71549-04618-70000012D0000049D00000000000461812   GGSL
TXBWIC21110-71549-04621-70000012D0000037D00000000000462112   GGSL
TXBWIC21110-71549-04745-00000015D0000116D00085000060474510   GGSL
TXBWIC21110-71549-04759-70000006D0000403D00000000000475905   GGSL
TXBWIC21110-71549-07472-20000006D0000024D00006000120747210   GGSL
TXBWIC21110-71549-08410-30000048D0000665D00400000000841010   GGSL
TXBWIC21110-71549-43331-40000036D0000256D00576000000433310   GGSL
TXBWIC21110-71549-43361-10000020D0000454D00044000000433610   GGSL
TXBWIC21110-71549-43371-00000004D0000143D00062000000433710   GGSL
TXBWIC21110-71549-43701-50000056D0001175D00020000120437010   GGSL
TXBWIC21110-71549-43887-60000024D0000098D00240000004388710   GGSL
TXBWIC21110-71549-46025-90000018D0000103D00516000004602510   GGSL
TXBWIC21110-71549-46132-40000072D0000957D00276000044613264   GGSL
TXBWIC21110-71549-46134-80000024D0000119D00048000004613406   GGSL
TXBWIC21110-71549-46139-30000008D0000126D00004000004613905   GGSL
TXBWIC21110-71549-46503-20000030D0000462D00498000004650306   GGSL
TXBWIC21110-71549-99008-40000036D0000483D00420000009900810   GGSL
TXBWIC21110-71549-99019-00000006D0000088D00195000009901910   GGSL
TXBWIC21110-71693-00000-00000001D0000160D000000000002-P500VS GGSL
TXBWIC21110-71693-02100-90000002D0001430D000000000002-P1000  GGSL
TXBWIC21110-71693-02101-60000004D0002840D000000000002-P1000S GGSL
TXBWIC21110-71693-02102-30000001D0000715D000000000002-P1000F GGSL
TXBWIC21110-71693-02115-30000001D0000179D000000000002-HB250  GGSL
TXBWIC21110-71693-02250-10000001D0000179D000000000002-PW250  GGSL
TXBWIC21110-71693-02251-80000001D0000179D000000000002-BF250  GGSL
TXBWIC21110-71693-04110-60000001D0000317D000000000004-LG1100 GGSL
TXBWIC21110-71693-04113-70000001D0000352D000000000004-LG1100VGGSL
TXBWIC21110-71693-04114-40000006D0002710D000000000004-LG1100VGGSL
TXBWIC21110-71693-04153-30000001D0000480D000000000004-LG1500VGGSL
TXBWIC21110-71693-98601-80000001D0000322D000000000002-PHH450 GGSL
TXBWIC21110-71898-43163-40000488D0010861D00913002267800      GGSL
TXBWIC21110-71898-43180-10000433D0007728D00858000207450      GGSL
TXBWIC21110-71898-43209-90000038D0000883D00314000107822      GGSL
TXBWIC21110-71898-43210-50000073D0001795D00156000507824      GGSL
TXBWIC21110-71898-43211-20000055D0001491D00572000607828      GGSL
TXBWIC21110-71898-43212-90000005D0000099D00139000007321      GGSL
TXBWIC21110-71898-43213-60001029D0022526D00920001307324      GGSL
TXBWIC21110-71898-43214-30000373D0007049D00416000107326      GGSL
TXBWIC21110-71898-43215-00000218D0003109D004060006032150     GGSL
TXBWIC21110-72525-00003-00000099D0000342D0033600024HRT-6     GGSL
TXBWIC21110-72525-00005-40000228D0001118D0018000048HRP-16    GGSL
TXBWIC21110-72525-00022-10000060D0000460D0024000012HBB-32    GGSL
TXBWIC21110-72525-00048-10000015D0000064D0006900000HDE-8     GGSL
TXBWIC21110-72525-00055-90000048D0000349D0013200012EGG-16    GGSL
TXBWIC21110-72532-00014-80000283D0003109D0118901108          GGSL
TXBWIC21110-72532-00015-50000109D0002484D0041600077          GGSL
TXBWIC21110-72532-00016-20000019D0000879D0025900013          GGSL
TXBWIC21110-72532-00017-90000040D0004612D0013100073          GGSL
TXBWIC21110-72532-22310-30000020D0000146D0006000320stspray-10GGSL
TXBWIC21110-72693-00014-80000103D0001084D005740000082770001  GGSL
TXBWIC21110-72693-00015-50000093D0006417D001590000082100001  GGSL
TXBWIC21110-72693-00022-30000049D0015788D002390002183000002  GGSL
TXBWIC21110-72693-00032-20000008D0000240D000510000082100006  GGSL
TXBWIC21110-72693-00046-90000090D0004314D007180000682004985  GGSL
TXBWIC21110-72693-00065-00000036D0000270D000000001282770006  GGSL
TXBWIC21110-72693-00102-20000001D0000055D001380000082701020  GGSL
TXBWIC21110-72693-00368-20000150D0007653D000550000082690036  GGSL
TXBWIC21110-72693-00480-10000224D0025870D000060000282002490  GGSL
TXBWIC21110-72693-00498-60000292D0017523D016600014082002489  GGSL
TXBWIC21110-72693-00505-10000570D0012542D025520003082002488  GGSL
TXBWIC21110-72693-01020-80000030D0006983D004020000583014144  GGSL
TXBWIC21110-72693-02475-50000130D0003839D004690009782002475  GGSL
TXBWIC21110-72693-02479-30000387D0002089D023240001282002479  GGSL
TXBWIC21110-72693-02504-20000030D0000357D008210001282002504  GGSL
TXBWIC21110-72693-02506-60001236D0021639D060080018882002506  GGSL
TXBWIC21110-72693-02507-30000134D0020740D007330000082002507  GGSL
TXBWIC21110-72693-02600-10000006D0000454D000000000082002600  GGSL
TXBWIC21110-72693-02686-50000019D0000571D009860000682002686  GGSL
TXBWIC21110-72693-02750-30000001D0000054D000000000182002750  GGSL
TXBWIC21110-72693-03143-20000036D0000334D001860000082300314  GGSL
TXBWIC21110-72693-03154-80000090D0001079D002570000082300315  GGSL
TXBWIC21110-72693-03164-70000024D0000208D000390000082300316  GGSL
TXBWIC21110-72693-03174-60000006D0000056D017580000682300317  GGSL
TXBWIC21110-72693-03188-30000008D0000388D001000000082300318  GGSL
TXBWIC21110-72693-03194-40000006D0000185D000540000682300319  GGSL
TXBWIC21110-72693-03254-50000011D0000750D000000000082003254  GGSL
TXBWIC21110-72693-03284-20000012D0000091D000300003082300328  GGSL
TXBWIC21110-72693-03298-90000048D0003504D002770001282300329  GGSL
TXBWIC21110-72693-03395-50000001D0000195D000200000082300339  GGSL
TXBWIC21110-72693-03507-20000456D0002810D011400026482100050  GGSL
TXBWIC21110-72693-03598-00000342D0014860D045380152482003598  GGSL
TXBWIC21110-72693-03599-70000962D0091390D029960021682003599  GGSL
TXBWIC21110-72693-04320-60001830D0148351D012630183282004320  GGSL
TXBWIC21110-72693-04430-20001758D0028863D036990049282004430  GGSL
TXBWIC21110-72693-04431-90000764D0017790D046980007282004431  GGSL
TXBWIC21110-72693-04432-60002360D0076611D025200017282004432  GGSL
TXBWIC21110-72693-04435-70001591D0065848D015250058182004435  GGSL
TXBWIC21110-72693-04438-80004633D0070724D067050088682004438  GGSL
TXBWIC21110-72693-04491-30000195D0001342D014780003682004491  GGSL
TXBWIC21110-72693-04493-70000597D0007911D045150027682004493  GGSL
TXBWIC21110-72693-04500-20000022D0001320D000900000582304500  GGSL
TXBWIC21110-72693-04504-00000314D0007525D028300015782004505  GGSL
TXBWIC21110-72693-04505-70000339D0029009D023630016382004506  GGSL
TXBWIC21110-72693-04506-40000236D0004043D026630000082004504  GGSL
TXBWIC21110-72693-04508-80000133D0001414D005010001082004508  GGSL
TXBWIC21110-72693-04515-60000006D0000296D001060000082004515  GGSL
TXBWIC21110-72693-04964-20010572D0081565D289330241282004964  GGSL
TXBWIC21110-72693-05004-40000708D0003624D026520024082005004  GGSL
TXBWIC21110-72693-05005-10000708D0008721D025860052882005005  GGSL
TXBWIC21110-72693-05007-50000318D0008684D013630006682005007  GGSL
TXBWIC21110-72693-05200-00000392D0003959D008800004882030466  GGSL
TXBWIC21110-72693-05201-70000576D0003068D034800045682005201  GGSL
TXBWIC21110-72693-05202-40000390D0005027D027420064882005202  GGSL
TXBWIC21110-72693-06002-90000654D0010599D027960026482004318  GGSL
TXBWIC21110-72693-06003-60000293D0009600D019840027282004319  GGSL
TXBWIC21110-72693-08300-40000527D0026977D017870002982008300  GGSL
TXBWIC21110-72693-10002-20000003D0000039D000660000182004964  GGSL
TXBWIC21110-72693-10011-40000336D0003420D017040004882004317  GGSL
TXBWIC21110-72693-10013-80000204D0001429D002820000682210012  GGSL
TXBWIC21110-72693-10015-20000006D0000065D001800001882210015  GGSL
TXBWIC21110-72693-10116-60000006D0000049D000420000082210016  GGSL
TXBWIC21110-72693-10221-70000019D0000607D001610000082210022  GGSL
TXBWIC21110-72693-10231-60000054D0000430D002820000682210023  GGSL
TXBWIC21110-72693-14057-80000114D0007980D012140009983014005  GGSL
TXBWIC21110-72693-21037-00000108D0000796D017400007282021037  GGSL
TXBWIC21110-72693-24010-00000020D0000543D003410004882002401  GGSL
TXBWIC21110-72693-24030-80000214D0017210D008300003982002403  GGSL
TXBWIC21110-72693-24957-80000142D0000793D008060015682002495  GGSL
TXBWIC21110-72693-29101-00000013D0000715D009190000683012910  GGSL
TXBWIC21110-72693-29912-20000180D0002117D054740034283012991  GGSL
TXBWIC21110-72693-30018-70000001D0000231D000200000083100018  GGSL
TXBWIC21110-72693-31550-10000008D0001320D000350000782300332  GGSL
TXBWIC21110-72693-31766-60000070D0001090D004000012082031766  GGSL
TXBWIC21110-72693-31866-30000012D0000174D000420000082031866  GGSL
TXBWIC21110-72693-31973-80000047D0001137D006130007282031973  GGSL
TXBWIC21110-72693-31975-20000007D0000355D001990000882031975  GGSL
TXBWIC21110-72693-31984-40000201D0002278D057370039682031984  GGSL
TXBWIC21110-72693-31985-10000606D0007256D095990046882031985  GGSL
TXBWIC21110-72693-33563-90000018D0001323D002370000083013356  GGSL
TXBWIC21110-72693-33688-90000140D0010559D005430004183013368  GGSL
TXBWIC21110-72693-33730-90000014D0002126D000000011283013373  GGSL
TXBWIC21110-72693-33744-20000001D0000079D000770000083013374  GGSL
TXBWIC21110-72693-33820-30000020D0006184D002720000083013382  GGSL
TXBWIC21110-72693-33850-00000073D0006790D002310001583013385  GGSL
TXBWIC21110-72693-33880-70000006D0000843D001040000183013388  GGSL
TXBWIC21110-72693-33953-80000183D0006633D033850022083013395  GGSL
TXBWIC21110-72693-34958-20000025D0001828D004790001583013884  GGSL
TXBWIC21110-72693-36208-60000003D0000144D009900000083013620  GGSL
TXBWIC21110-72693-37888-90000004D0000193D000520001683013788  GGSL
TXBWIC21110-72693-38178-00000012D0000533D005520000483013817  GGSL
TXBWIC21110-72693-38528-30000013D0005309D002380000883013852  GGSL
TXBWIC21110-72693-38610-50000004D0003234D000160000083013861  GGSL
TXBWIC21110-72693-40010-80000020D0003957D001780000083014003  GGSL
TXBWIC21110-72693-40127-30000003D0000153D002570000083014012  GGSL
TXBWIC21110-72693-40177-80000378D0001718D029660019282104017  GGSL
TXBWIC21110-72693-41488-40000072D0006451D000000000083014148  GGSL
TXBWIC21110-72693-41878-30000185D0007226D031370000083014187  GGSL
TXBWIC21110-72693-44290-00000741D0009367D019380044482004429  GGSL
TXBWIC21110-72693-44410-20000482D0019848D048300011482004441  GGSL
TXBWIC21110-72693-44430-00000177D0024280D016090010982004443  GGSL
TXBWIC21110-72693-44650-20000039D0000786D000360000082004465  GGSL
TXBWIC21110-72693-44660-10000008D0000462D000760000082004466  GGSL
TXBWIC21110-72693-45000-40000240D0001494D017400004882004500  GGSL
TXBWIC21110-72693-45010-30000264D0003099D026840008482004501  GGSL
TXBWIC21110-72693-45020-20000276D0003950D030600003682004502  GGSL
TXBWIC21110-72693-45030-10000017D0000816D010560001682994503  GGSL
TXBWIC21110-72693-45115-50000180D0001201D021990036082004511  GGSL
TXBWIC21110-72693-45530-60000002D0000076D000820000082004553  GGSL
TXBWIC21110-72693-46930-30000396D0003354D032040006882004693  GGSL
TXBWIC21110-72693-46950-10000150D0004121D009800000482004695  GGSL
TXBWIC21110-72693-46970-90000305D0044762D003730000482004697  GGSL
TXBWIC21110-72693-50064-80000504D0004780D042830033682005006  GGSL
TXBWIC21110-72693-50096-90000002D0000219D000200000082005009  GGSL
TXBWIC21110-72693-69370-80000011D0000076D003960004882690037  GGSL
TXBWIC21110-72693-70004-80000073D0000730D011950018182770008  GGSL
TXBWIC21110-72693-77034-80000230D0002417D016000014482770003  GGSL
TXBWIC21110-72693-82104-00000622D0021687D038500045082100005  GGSL
TXBWIC21110-72693-82303-70000264D0001455D017760008482300001  GGSL
TXBWIC21110-72693-82998-50000236D0011813D000080050082995003  GGSL
TXBWIC21110-72725-00023-80000052D0000725D0012800000HBB-128   GGSL
TXBWIC21110-72725-00077-10000015D0000051D0000000000RTRP      GGSL
TXBWIC21110-72725-00158-70000012D0000482D0010400004BLKBB-128 GGSL
TXBWIC21110-72725-00183-90000012D0000164D0005400000BLKBB-326 GGSL
TXBWIC21110-72725-00213-30000012D0000090D0002700000BLKBB-16A GGSL
TXBWIC21110-72725-00214-00000012D0000082D0004500000BLKBB-P4  GGSL
TXBWIC21110-72725-00269-00000189D0001136D0043800324DE-FG105P GGSL
TXBWIC21110-72725-00407-60000192D0001140D0015600024DE-FG2P   GGSL
TXBWIC21110-72725-00408-30000136D0001187D0036900392DE-FG4P   GGSL
TXBWIC21110-72725-00461-80000096D0000296D0028801020360-32S   GGSL
TXBWIC21110-72725-00498-40000012D0000096D0000000012GOLDBB-P4 GGSL
TXBWIC21110-72868-00000-00000480D0000367D0609600000M330      GGSL
TXBWIC21110-72868-00300-40000420D0001327D0074400264M6006     GGSL
TXBWIC21110-72868-00326-40007188D0010415D1488006312M326      GGSL
TXBWIC21110-72868-00800-90000036D0000430D0095400036M6009     GGSL
TXBWIC21110-72868-02220-30000248D0001687D0042400040M6004     GGSL
TXBWIC21110-72868-02300-20000006D0000043D0002400000M7001-1   GGSL
TXBWIC21110-72868-03620-00001428C0000043C0030300001VP362     GGSL
TXBWIC21110-72868-03630-90000110D0000844D0244000012VP363     GGSL
TXBWIC21110-72868-03648-40000247D0004333D0181900118VP364B    GGSL
TXBWIC21110-72868-09014-10000012D0000187D0000000000M9014     GGSL
TXBWIC21110-72868-09320-30006480D0001354D1555201440M320      GGSL
TXBWIC21110-72868-11751-00000018D0000142D0003000006M751K     GGSL
TXBWIC21110-72868-13035-90000804D0000726D0400800648M035      GGSL
TXBWIC21110-72868-13150-90000396D0000334D0000000252M150      GGSL
TXBWIC21110-72868-13200-10001932D0002868D0177600372200R      GGSL
TXBWIC21110-72868-13308-40000144D0001534D0077100048M308      GGSL
TXBWIC21110-72868-13309-10018648D0003410D6825600360M309      GGSL
TXBWIC21110-72868-13325-10014976D0005989D4852800648M325      GGSL
TXBWIC21110-72868-13327-50001350D0000272D0690000300M327      GGSL
TXBWIC21110-72868-13530-90000006D0000031D0000000000M530      GGSL
TXBWIC21110-72868-24178-90000002D0000097D0000800000M241      GGSL
TXBWIC21110-72868-36410-50000128D0002643D0000400000VP364B-10 GGSL
TXBWIC21110-72868-54002-80000708D0001176D0190800048M668      GGSL
TXBWIC21110-72868-54102-50001740D0003383D0319200216M669      GGSL
TXBWIC21110-72874-00096-70000006D0000171D00018000004085M     GGSL
TXBWIC21110-72874-00097-40000006D0000171D00126000004085L     GGSL
TXBWIC21110-72874-00098-10000006D0000171D00060000004085X     GGSL
TXBWIC21110-72874-00117-90000012D0000062D00084000122393      GGSL
TXBWIC21110-72874-06464-80000072D0000208D01476000488412M     GGSL
TXBWIC21110-72874-06465-50000036D0000105D00336001928412L     GGSL
TXBWIC21110-72874-06850-90000012D0000140D00000000006039M     GGSL
TXBWIC21110-72874-06851-60000024D0000251D00000000066039L     GGSL
TXBWIC21110-72874-06949-00000048D0000127D00000000008442L     GGSL
TXBWIC21110-72874-40200-60000096D0000081D00144000244020L     GGSL
TXBWIC21110-72874-40673-80000012D0000053D00000000004067M     GGSL
TXBWIC21110-72874-40674-50000024D0000106D00024000124067L     GGSL
TXBWIC21110-72874-40675-20000012D0000053D00108000124067X     GGSL
TXBWIC21110-72874-40920-30000024D0000076D00024000004092      GGSL
TXBWIC21110-72874-40945-60000012D0000049D00012000244094J     GGSL
TXBWIC21110-73035-01212-60000012D0000073D000720030001212     GGSL
TXBWIC21110-73035-02010-70000064D0000156D000000000002010     GGSL
TXBWIC21110-73035-02612-30000960D0000403D022400016002612     GGSL
TXBWIC21110-73035-04226-00000010D0000041D000050038004226     GGSL
TXBWIC21110-73035-06127-80000024D0000094D000000048006127     GGSL
TXBWIC21110-73035-06703-40000012D0000029D001440044406703     GGSL
TXBWIC21110-73035-09326-20000006D0000042D000000000009326     GGSL
TXBWIC21110-73035-09327-90000006D0000051D001800000009327     GGSL
TXBWIC21110-73035-25001-60000003D0000070D000000014905031T    GGSL
TXBWIC21110-73513-00339- 0000018D0000100D00048000003003310   GGSL
TXBWIC21110-73561-00022-20000096D0000452D00738000062000221   GGSL
TXBWIC21110-73561-00028-40000252D0002041D00953000121000283   GGSL
TXBWIC21110-73561-00042-00000264D0001233D06286001022000422   GGSL
TXBWIC21110-73561-00044-40000012D0000122D00060000301000441   GGSL
TXBWIC21110-73561-00055-00000282D0000872D00210000241000551   GGSL
TXBWIC21110-73561-00070-30000024D0000139D00396000001000701   GGSL
TXBWIC21110-73561-00099-40000792D0001849D02052000002000992   GGSL
TXBWIC21110-73561-00119-90000032D0000719D00176000001001193   GGSL
TXBWIC21110-73561-00150-20000018D0000091D00060002883001502   GGSL
TXBWIC21110-73561-00183-00000018D0000220D00012000001001834   GGSL
TXBWIC21110-73561-00190-80000246D0000734D0024600006100195    GGSL
TXBWIC21110-73561-00192-20000030D0000175D00498000421001921   GGSL
TXBWIC21110-73561-00199-10000048D0000159D00276000241001991   GGSL
TXBWIC21110-73561-00252-30000432D0000458D00600001681002522   GGSL
TXBWIC21110-73561-00404-60000012D0000067D00006000001004043   GGSL
TXBWIC21110-73561-00410-70000054D0000628D00852003421004102   GGSL
TXBWIC21110-73561-00432-90000036D0000428D00258000001004325   GGSL
TXBWIC21110-73561-00531-90000300D0000911D00816004381000532   GGSL
TXBWIC21110-73561-00590-60000036D0000098D00306000001005901   GGSL
TXBWIC21110-73561-00600-20000012D0000051D00084000303006002   GGSL
TXBWIC21110-73561-00720-70000078D0000291D0003000132100720    GGSL
TXBWIC21110-73561-00831-00000005D0000027D00005000001008311   GGSL
TXBWIC21110-73561-01560-80000024D0000079D0000000000101560    GGSL
TXBWIC21110-73561-01611-70000054D0000628D00084000001016111   GGSL
TXBWIC21110-73561-03836-20000006D0000083D00042000001038361   GGSL
TXBWIC21110-73561-10114-10000163D0001897D00244000301011410   GGSL
TXBWIC21110-73561-30019-30000030D0000353D00780000843001910   GGSL
TXBWIC21110-73561-30037-70000024D0000107D00000000003003710   GGSL
TXBWIC21110-73561-30053-70000012D0000066D00006000003005310   GGSL
TXBWIC21110-73561-30098-80000024D0000261D00000000123009810   GGSL
TXBWIC21110-73561-36001-20000132D0000409D00966000001360011   GGSL
TXBWIC21110-73561-46001-90000090D0000849D0041400000146002    GGSL
TXBWIC21110-73561-48510-40000108D0000793D00147000124851012   GGSL
TXBWIC21110-73561-48520-30000126D0000853D00279000124852012   GGSL
TXBWIC21110-73561-60101-60000378D0001234D0306500180160101    GGSL
TXBWIC21110-73561-70101-30000036D0000370D0128400024170101    GGSL
TXBWIC21110-73561-75001-10000264D0000818D00576000181750011   GGSL
TXBWIC21110-73561-85001-80000006D0000075D00174000001850011   GGSL
TXBWIC21110-73889-10003-10000008D0000065D00000000001091      GGSL
TXBWIC21110-73889-10004-80000196D0000962D00314003961273      GGSL
TXBWIC21110-74514-57625-20000060D0000182D0264300204HG-95715  GGSL
TXBWIC21110-76807-00020-80000024D0000015D002160000046310     GGSL
TXBWIC21110-76807-00700-90000036D0000183D000000002412412     GGSL
TXBWIC21110-76807-62225-70000024D0000086D000000001247080     GGSL
TXBWIC21110-77342-14494-70000010D0000090D00000000958073807CS GGSL
TXBWIC21110-77625-44906-40000002D0000020D0000000002449-2     GGSL
TXBWIC21110-77625-81082-60000004D0000062D00280000048108-2    GGSL
TXBWIC21110-77625-81092-50000012D0000160D00280000448109-2    GGSL
TXBWIC21110-77784-05460-40000004D0000083D00022000005460      GGSL
TXBWIC21110-78627-01912-50000350D0005034D0012001000CSNFA12050GGSL
TXBWIC21110-78627-34824-90000006D0000434D0003800010CSNCG34100GGSL
TXBWIC21110-78627-38474-40000004D0000264D0000000014CELCF34100GGSL
TXBWIC21110-78627-58292-60000005D0000119D0000000000CELGG58050GGSL
TXBWIC21110-78627-58822-50000025D0000613D0015900010CSNCG58050GGSL
TXBWIC21110-78627-58823-20000027D0000919D0007200000CSNCG58075GGSL
TXBWIC21110-78627-58824-90000027D0001463D0009900012CSNCG58100GGSL
TXBWIC21110-78627-58832-40000077D0001863D0049900055SNFR58050 GGSL
TXBWIC21110-78627-58834-80000045D0002054D0035900018SNFR58100 GGSL
TXBWIC21110-78627-58872-90000020D0000762D0000000035CELCF58050GGSL
TXBWIC21110-78627-58874-40000003D0000181D0000000036CELCF58100GGSL
TXBWIC21110-78627-67582-60000024D0000609D0051500190CSNFXP5805GGSL
TXBWIC21110-78627-67583-30000003D0000114D0012600003CSNFXP5807GGSL
TXBWIC21110-78627-67584-00000021D0001141D0031800099CSNFXP5810GGSL
TXBWIC21110-78978-00090-20000006D0000032D000000001890        GGSL
TXBWIC21110-78978-02400-70000042D0000088D001620008768        GGSL
TXBWIC21110-78978-05045-70000012D0000041D00132001089100      GGSL
TXBWIC21110-78978-06700-40000039D0000056D002140016267        GGSL
TXBWIC21110-78978-10155-50000001D0000030D0000000003363       GGSL
TXBWIC21110-78978-10158-60000006D0000091D00260000068117-2    GGSL
TXBWIC21110-78978-10348-10000030D0000265D0012600114YSSFOO348 GGSL
TXBWIC21110-78978-10514-00000002D0000060D00000000128504-2    GGSL
TXBWIC21110-78978-10878-30000002D0000031D0000000034WFH001    GGSL
TXBWIC21110-78978-21084-40000006D0000026D0000000036403CP     GGSL
TXBWIC21110-78978-21087-50000047D0000355D0182400210203CPBN   GGSL
TXBWIC21110-78978-21089-90000009D0000106D0040500012209B      GGSL
TXBWIC21110-78978-21090-50000004D0000043D0015200000210PB     GGSL
TXBWIC21110-78978-21520-70000012D0000037D0014400000215P      GGSL
TXBWIC21110-78978-22000-30000008D0000130D0060300000220-6     GGSL
TXBWIC21110-78978-23153-50000036D0000023D0108000072231-12    GGSL
TXBWIC21110-78978-23900-50000024D0000118D0080700000239       GGSL
TXBWIC21110-78978-27300-90000066D0000215D0016800012273       GGSL
TXBWIC21110-78978-33600-10000041D0000863D0032100102336       GGSL
TXBWIC21110-78978-33800-50000043D0001093D0018000060338       GGSL
TXBWIC21110-78978-33900-20000006D0000153D0000000022339       GGSL
TXBWIC21110-78978-34300-90000001D0000030D0000000000342       GGSL
TXBWIC21110-78978-36600-80000001D0000043D0000000007366       GGSL
TXBWIC21110-78978-51508-60000002D0000022D0000000052784       GGSL
TXBWIC21110-78978-54037-80000006D0000090D0000000002TSS00349  GGSL
TXBWIC21110-78978-54038-50000004D0000063D0000000024GAZ01     GGSL
TXBWIC21110-78978-54039-20000004D0000079D0000000000GAZ02     GGSL
TXBWIC21110-78978-54699-80000010D0000199D0001600014MCF001    GGSL
TXBWIC21110-78978-55000-10000001D0000033D0000000003370       GGSL
TXBWIC21110-78978-55002-50000042D0000062D0379800108240SF     GGSL
TXBWIC21110-78978-55004-90000008D0000046D0000400012244SFB    GGSL
TXBWIC21110-78978-55005-60000024D0000036D0032400024243SF     GGSL
TXBWIC21110-78978-55006-30000012D0000017D0000000000293SF     GGSL
TXBWIC21110-78978-57084-90000012D0000166D00138002583266      GGSL
TXBWIC21110-78978-60100-00000030D0000323D00306000369201-6    GGSL
TXBWIC21110-78978-60201-40000002D0000033D00048000829110-2    GGSL
TXBWIC21110-78978-60202-10000002D0000033D00000000589111-2    GGSL
TXBWIC21110-78978-63709-20000002D0000038D0000000000SBG101    GGSL
TXBWIC21110-78978-78500-70000006D0000076D0026800006785       GGSL
TXBWIC21110-78978-81322-90000002D0000032D00122000068132-2    GGSL
TXBWIC21110-78978-92811-40000002D0000014D0003600048HF950     GGSL
TXBWIC21110-78978-92818-30000024D0000386D0011800004HF940     GGSL
TXBWIC21110-78978-93018-60000006D0000094D000000000250181     GGSL
TXBWIC21110-78978-96327-60000018D0000116D0017300000238       GGSL
TXBWIC21110-78978-96328-30000006D0000029D0000000030239CL     GGSL
TXBWIC21110-84369-00000-00000003D0000459D0004300004CKDISP    GGSL
TXBWIC21110-84369-00001-70000445D0004131D0010400162PDF1RED   GGSL
TXBWIC21110-84369-00003-10000079D0000575D0009500035HP3       GGSL
TXBWIC21110-84369-00017-80000003D0000068D0000900000PDFERED   GGSL
TXBWIC21110-84369-00032-10000054D0000241D0030600084AW32      GGSL
TXBWIC21110-84369-00068-00000118D0000731D0017400028HP8       GGSL
TXBWIC21110-84369-00071-00000026D0000411D0002400000PSB70RED  GGSL
TXBWIC21110-84369-00073-40000006D0000094D0002000000PSB70BLUE GGSL
TXBWIC21110-84369-00090-10000094D0000336D003780000090        GGSL
TXBWIC21110-84369-00092-50000012D0000008D001720000092        GGSL
TXBWIC21110-84369-00112-00000056D0001500D0030100057CH12      GGSL
TXBWIC21110-84369-00113-70000010D0000133D0003200000HF12BLUE  GGSL
TXBWIC21110-84369-00115-10000053D0000695D0021000013HF12RED   GGSL
TXBWIC21110-84369-00125-00000086D0002708D0079200109CH25      GGSL
TXBWIC21110-84369-00150-20000049D0002396D0025400027CH50      GGSL
TXBWIC21110-84369-00200-40000006D0000026D0017400006HP2       GGSL
TXBWIC21110-84369-00310-00000015D0000356D0002000001PW13      GGSL
TXBWIC21110-84369-00324-70000108D0000275D0060000000PS32BLUE  GGSL
TXBWIC21110-84369-00650-70000042D0000517D0026400012HP650     GGSL
TXBWIC21110-84369-00666-80000156D0000289D0060000096666       GGSL
TXBWIC21110-84369-00680-40000036D0000066D0056400000680       GGSL
TXBWIC21110-84369-00690-30000216D0000260D0705600612690       GGSL
TXBWIC21110-84369-00730-60000072D0000079D0043200000730       GGSL
TXBWIC21110-84369-00740-50000324D0000353D0478800108740       GGSL
TXBWIC21110-84369-00785-60000031D0000136D0005700026P8FBBLACK GGSL
TXBWIC21110-84369-00786-30000022D0000092D0021900004P8FBBLUE  GGSL
TXBWIC21110-84369-00788-70000006D0000026D0020500002P8FBNAVY  GGSL
TXBWIC21110-84369-00789-40000030D0000129D0004500006P8FBRED   GGSL
TXBWIC21110-84369-00790-00000004D0000017D0006100004P8FBBURGUNGGSL
TXBWIC21110-84369-00820-40000024D0000086D0085200000820       GGSL
TXBWIC21110-84369-00825-90000042D0000385D0024600030TM825     GGSL
TXBWIC21110-84369-01013-90000024D0000167D0013200036AF5SL     GGSL
TXBWIC21110-84369-01017-70000024D0000171D0009600000AF7SL     GGSL
TXBWIC21110-84369-01018-40000005D0000122D0005600004AH2424    GGSL
TXBWIC21110-84369-01022-10000002D0000029D0000000000AHFK24    GGSL
TXBWIC21110-84369-01040-50000026D0000227D0012600000ACP2      GGSL
TXBWIC21110-84369-01043-60000004D0000289D0001900002RHCK1     GGSL
TXBWIC21110-84369-01045-00000036D0000086D0009600000ACC1      GGSL
TXBWIC21110-84369-01110-50000010D0000257D0002900000LT1       GGSL
TXBWIC21110-84369-01140-20000013D0000532D0005000000LT4       GGSL
TXBWIC21110-84369-01830-20000298D0003633D0006000042TM830     GGSL
TXBWIC21110-84369-02001-50000105D0000655D0066600036P20FBBLUE GGSL
TXBWIC21110-84369-02002-20000076D0000474D0072500036P20FBGREENGGSL
TXBWIC21110-84369-02003-90000106D0000663D0054700036P20FBRED  GGSL
TXBWIC21110-84369-02008-40000072D0000445D0061800114P20FBBLACKGGSL
TXBWIC21110-84369-02009-10000014D0000088D0006900006P20FBPURPLGGSL
TXBWIC21110-84369-02010-70000010D0000062D0015700000P20FBNAVY GGSL
TXBWIC21110-84369-02013-80000012D0000075D0005200006P20FBTEAL GGSL
TXBWIC21110-84369-02014-50000011D0000070D0021700000P20FBBURGUGGSL
TXBWIC21110-84369-04043-30000042D0000821D0016800012914043    GGSL
TXBWIC21110-84369-04173-70000006D0000135D0006000000914273    GGSL
TXBWIC21110-84369-07500-80000168D0000339D0079200048750       GGSL
TXBWIC21110-84369-08251-80000006D0000059D0000600000TM825T    GGSL
TXBWIC21110-84369-09112-10000090D0001192D01512001629112      GGSL
TXBWIC21110-84369-09203-60000011D0000077D00016000039203      GGSL
TXBWIC21110-84369-09312-50000024D0000088D00456000009312      GGSL
TXBWIC21110-84369-09616-40000042D0001075D0053600016PPF3      GGSL
TXBWIC21110-84369-09617-10000014D0000446D0022600006PPF5      GGSL
TXBWIC21110-84369-09618-80000020D0000756D0006600002PPF7      GGSL
TXBWIC21110-84369-09655-30000108D0000709D0243600072PHF3      GGSL
TXBWIC21110-84369-09656-00000072D0001004D0138000138PHF11     GGSL
TXBWIC21110-84369-09657-70000032D0000712D0007400002PHF22     GGSL
TXBWIC21110-84369-09810-60000072D0000179D01008000249810      GGSL
TXBWIC21110-84369-09812-00000048D0000186D00120000009812      GGSL
TXBWIC21110-84369-09814-40000048D0000120D00912000729814      GGSL
TXBWIC21110-84369-09822-90000024D0000077D00624000489822      GGSL
TXBWIC21110-84369-09832-80000032D0000623D00112000009832      GGSL
TXBWIC21110-84369-09833-50000044D0001052D00476000109833      GGSL
TXBWIC21110-84369-09835-80000033D0000981D00098000009835      GGSL
TXBWIC21110-84369-10040-30000002D0000091D0000000000100403    GGSL
TXBWIC21110-84369-15041-50000024D0000091D0002400000150415    GGSL
TXBWIC21110-84369-15044-60000002D0000090D0000600000150446    GGSL
TXBWIC21110-84369-15090-30000001D0000046D0000000000150903    GGSL
TXBWIC21110-84369-15099-60000036D0000078D0002400000ACU2BLACK GGSL
TXBWIC21110-84369-15190-00000012D0000021D0000000000ACU1BLUE  GGSL
TXBWIC21110-84369-15224-20000007D0000086D0004700001152242    GGSL
TXBWIC21110-84369-15225-90000009D0000143D0001900002152259    GGSL
TXBWIC21110-84369-15226-60000006D0000129D0001400000152266    GGSL
TXBWIC21110-84369-15330-00000336D0000823D0172800072806RED    GGSL
TXBWIC21110-84369-15378-20000006D0000026D0006100002P8FBLIMEGRGGSL
TXBWIC21110-84369-15379-90000012D0000075D0006300000P20FBHOTPIGGSL
TXBWIC21110-84369-15381-20000013D0000080D0014100000P20FBLIMEGGGSL
TXBWIC21110-84369-15392-80000003D0000053D0000100000ST15      GGSL
TXBWIC21110-84369-15401-70000025D0000105D0005400000P8FBBERRYBGGSL
TXBWIC21110-84369-15406-20000011D0000070D0008200000P20FBBERRYGGSL
TXBWIC21110-84369-15439-00000012D0000146D0012600078FF16RED   GGSL
TXBWIC21110-84369-15441-30000462D0004163D0016200006FF11RED   GGSL
TXBWIC21110-84369-15494-90000066D0000768D00775001507906      GGSL
TXBWIC21110-84369-15730-80000002D0000167D0005700000157308    GGSL
TXBWIC21110-84369-15747-60000014D0000649D00105000006300      GGSL
TXBWIC21110-84369-15750- 0000024D0000081D00079000026303      GGSL
TXBWIC21110-84369-15864-00000006D0000096D0001200000PSB70HOTPIGGSL
TXBWIC21110-84369-16075-90000002D0000023D0002100000160759    GGSL
TXBWIC21110-84369-16076-60000002D0000030D0001000000160766    GGSL
TXBWIC21110-84369-16077-30000002D0000039D0001000000160773    GGSL
TXBWIC21110-84369-16300-20000048D0000186D00006007987506LIMEGRGGSL
TXBWIC21110-84369-16301-90000048D0000186D00012007387506PURPLEGGSL
TXBWIC21110-84369-16638-60000180D0004574D0003000001166386    GGSL
TXBWIC21110-84369-17001-70000655D0007547D0744000176170017    GGSL
TXBWIC21110-84369-17002-40001689D0009865D1120800240170024    GGSL
TXBWIC21110-84369-17003-10000766D0002904D0474000192170031    GGSL
TXBWIC21110-84369-17056-70000065D0000755D0017500024GOT2      GGSL
TXBWIC21110-84369-17057-40000049D0000602D0029700019GOT4      GGSL
TXBWIC21110-84369-17058-10000060D0001023D0026200020GOT55     GGSL
TXBWIC21110-84369-17067-30000054D0001023D0020700009GOT105    GGSL
TXBWIC21110-84369-17068-00000032D0000697D0011500009GOT16     GGSL
TXBWIC21110-84369-17098-70000001D0000032D00039000017300      GGSL
TXBWIC21110-84369-17126-70000005D0000174D0002600002171267    GGSL
TXBWIC21110-84369-17135-90000006D0000079D0001500000HH1       GGSL
TXBWIC21110-84369-17197-70000018D0000786D00089000059300      GGSL
TXBWIC21110-84369-17198-40000001D0000082D000380000010300     GGSL
TXBWIC21110-84369-17230-10000006D0000049D0000000012EB13      GGSL
TXBWIC21110-84369-17370-40000001D0000148D0000400000HIVE10    GGSL
TXBWIC21110-84369-17891-40000012D0000051D0004900004P8FBORANGEGGSL
TXBWIC21110-84369-17892-10000006D0000096D0000600000PSB70ORANGGGSL
TXBWIC21110-84369-18120-40000048D0000073D0009600036DT9854    GGSL
TXBWIC21110-84369-18121-10000036D0000108D0032400030DT9855    GGSL
TXBWIC21110-84369-18122-80000042D0000251D0013800018DT9856    GGSL
TXBWIC21110-84369-18123-50000078D0000121D0026400030DT9857    GGSL
TXBWIC21110-84369-18124-20000036D0000121D0010200018DT9858    GGSL
TXBWIC21110-84369-18219-50000030D0000179D0015000006DT9862    GGSL
TXBWIC21110-84369-18248-50000010D0000389D0001700002WCSML     GGSL
TXBWIC21110-84369-18249-20000005D0000235D0001800000WCMED     GGSL
TXBWIC21110-84369-18250-80000013D0000773D0000400000WCLRG     GGSL
TXBWIC21110-84369-18251-50000008D0000693D0000200001WCXLG     GGSL
TXBWIC21110-84369-18252-20000005D0000528D0001900004WCGNT     GGSL
TXBWIC21110-84369-18539-40000039D0001742D0026800013DOMEFDR35 GGSL
TXBWIC21110-84369-18540-00000041D0001604D0027100014DOMEWTR5  GGSL
TXBWIC21110-84369-18541-70000040D0001880D0016500010DOMEFDR45 GGSL
TXBWIC21110-84369-18542-40000046D0001889D0022100010DOMEWTR8  GGSL
TXBWIC21110-84369-18543-10000046D0002325D0016400009DOMEFDR60 GGSL
TXBWIC21110-84369-18544-80000043D0002028D0018300010DOMEWTR10 GGSL
TXBWIC21110-84369-18547-90000005D0000075D0002000020DBW3      GGSL
TXBWIC21110-84369-18560-80004800D0001024D4300000600EGGCTNSLD GGSL
TXBWIC21110-84369-18681-00000002D0000362D0000100000BROODER   GGSL
TXBWIC21110-84369-18695-70000005D0000020D0010000008P8BERRYBLUGGSL
TXBWIC21110-84369-18702-20000106D0000441D0055100044P8BLUE6   GGSL
TXBWIC21110-84369-18708-40000002D0000008D0011900008P8GREEN6  GGSL
TXBWIC21110-84369-18710-70000006D0000024D0000100000P8HOTPINK GGSL
TXBWIC21110-84369-18712-10000010D0000040D0004100000P8LIMEGREEGGSL
TXBWIC21110-84369-18720-60000079D0000305D0066000042P8RED     GGSL
TXBWIC21110-84369-18743-50000020D0000122D0009700000P20FBORANGGGSL
TXBWIC21110-84369-18841-80000148D0001356D0028700030GGC10CAN  GGSL
TXBWIC21110-84369-18842-50000163D0000675D0030400080GGC10LID  GGSL
TXBWIC21110-84369-18843-20000179D0001754D0042100024GGC20CAN  GGSL
TXBWIC21110-84369-18845-60000098D0001389D0036100067GGC31CAN  GGSL
TXBWIC21110-84369-18846-30000184D0000849D0072800082GGC31LID  GGSL
TXBWIC21110-84369-18849- 0000197D0000846D0068600139GGC20LID  GGSL
TXBWIC21110-84865-33100-40000018D0000090D001980002433100     GGSL
TXBWIC21110-84865-55200-30000342D0002088D010320031255201     GGSL
TXBWIC21110-84865-87560-70000060D0000442D000990002487560     GGSL
TXBWIC21110-84865-92445-90000012D0000056D000000002492445     GGSL
TXBWIC21110-84865-92464-00000147D0001407D001620006092464     GGSL
TXBWIC21110-84865-92465-70000204D0001537D013150085282200     GGSL
TXBWIC21110-84865-93250-80000036D0000132D000000006093250     GGSL
TXBWIC21110-84865-93290-40000012D0000071D000000006093290     GGSL
TXBWIC21110-84865-93500-40000012D0000043D000660002493500     GGSL
TXBWIC21110-84865-93625-40000048D0000391D002010000093625     GGSL
TXBWIC21110-84865-93650-60000072D0000309D011940004893650     GGSL
TXBWIC21110-84865-96837-50000030D0000403D000380000096837     GGSL
TXBWIC21110-84865-97121-70000456D0001291D008400006097121     GGSL
TXBWIC21110-84865-97185-90000432D0001828D010440004897185     GGSL
TXBWIC21110-85199-00000-00000180D0000215D0252000228DD-11     GGSL
TXBWIC21110-85199-03306-00000003D0000217D0011100004PH-12     GGSL
TXBWIC21110-85199-03550-70000066D0000604D0015100000PMG-1     GGSL
TXBWIC21110-85199-03800-30000002D0000017D0000700000BP-15     GGSL
TXBWIC21110-85199-04200-00000624D0000622D0210000168DD4-12    GGSL
TXBWIC21110-85199-04400-40000096D0000117D0082800072DD5-12    GGSL
TXBWIC21110-85199-05014-20000228D0000231D0108000072DD-14     GGSL
TXBWIC21110-85199-05015-90000360D0000373D0241200144DD-15     GGSL
TXBWIC21110-85199-05018-00000240D0000246D0116400072DD-18     GGSL
TXBWIC21110-85199-05028-90000012D0000014D0000000000DD-24     GGSL
TXBWIC21110-85199-05029-60000084D0000159D0037200012DD-25     GGSL
TXBWIC21110-85199-05100-20000020D0000024D0026000060DD4-10    GGSL
TXBWIC21110-85199-06300-50000007D0000441D0000700002MP-15-4   GGSL
TXBWIC21110-85199-08001-90000016D0000036D0041600048S-1-8     GGSL
TXBWIC21110-85199-21230-40000006D0000148D000120000021230     GGSL
TXBWIC21110-85199-57001-50000024D0000032D0013200336DDC1-12   GGSL
TXBWIC21110-85199-57002-20000108D0000134D0058800240DDC2-12   GGSL
TXBWIC21110-85199-57003-90000072D0000097D0050400264DDC3-12   GGSL
TXBWIC21110-85199-57004-60000036D0000049D0055200276DDC4-12   GGSL
TXBWIC21110-85199-57005-30000084D0000115D0055200252DDC5-12   GGSL
TXBWIC21110-85199-57006-00000048D0000065D0058800240DDC6-12   GGSL
TXBWIC21110-85199-57007-70000048D0000061D0062400216DDC7-12   GGSL
TXBWIC21110-85765-00270-40000057D0000427D0020300014GWT425    GGSL
TXBWIC21110-85765-00272-80000058D0000878D0022500020GWT1375   GGSL
TXBWIC21110-85765-00273-50000053D0000927D0020700017GWT1675   GGSL
TXBWIC21110-85765-00278-00000034D0000460D0012000017GBT8      GGSL
TXBWIC21110-85765-00284-10000010D0000050D0001800002GP8       GGSL
TXBWIC21110-85765-00286-50000004D0000026D0000000001GP12      GGSL
TXBWIC21110-85765-00296-40000151D0002259D0058000038GWC10     GGSL
TXBWIC21110-85765-01001-30000004D0000053D0000500004BB20RED   GGSL
TXBWIC21110-85765-01002-00000002D0000024D0001000000BB20GREEN GGSL
TXBWIC21110-85765-01020-40000004D0000028D0000800000BB10RED   GGSL
TXBWIC21110-85765-01021-10000002D0000011D0001000000BB10GREEN GGSL
TXBWIC21110-85765-01023-50000001D0000007D0000000012BB10BLUE  GGSL
TXBWIC21110-85765-01044- 0000006D0000079D0000200004BB20BLUE  GGSL
TXBWIC21110-85765-92606-20000303D0007428D0154800145ELT42     GGSL
TXBWIC21110-86386-10014-50000017D0000178D0000000000997 HO    GGSL
TXBWIC21110-86386-10032-90000002D0000008D0000000000MZ 4      GGSL
TXBWIC21110-86386-10061-90000003D0000018D0000000000CL2540 BK GGSL
TXBWIC21110-86386-10063-30000002D0000012D0000000000CL2540 HO GGSL
TXBWIC21110-86386-10064-00000004D0000022D0000000000CL2040 BK GGSL
TXBWIC21110-86386-10065-70000001D0000005D0000000000CL2040 HP GGSL
TXBWIC21110-86386-10066-40000001D0000005D0000000000CL2040 HO GGSL
TXBWIC21110-86386-10067-10000005D0000030D0000000000CL3040 BK GGSL
TXBWIC21110-86386-10068-80000005D0000031D0000000000CL3040 HP GGSL
TXBWIC21110-86386-10069-50000004D0000024D0000000000CL3040 HO GGSL
TXBWIC21110-86386-10070-10000009D0000109D0000000000CL4840 BK GGSL
TXBWIC21110-86386-10079-40000006D0000013D0000000000PCLG      GGSL
