NJARET21010-03831-30083-70000036D0001105D0000300003BP6250    GGSL
NJARET21010-08182-30017-60000005D0007346D00017000031160B     GGSL
NJARET21010-10052-00333-10002004D0007021D000120000300333     GGSL
NJARET21010-10367-00001-80000285D0001183D00017000010001      GGSL
NJARET21010-10367-00110-70001440D0009503D00043000210110      GGSL
NJARET21010-10367-00130-50000002D0000094D00002000000130      GGSL
NJARET21010-10367-00150-30000001D0000029D00000000000150      GGSL
NJARET21010-10367-00430-60000002D0000176D00000000000430      GGSL
NJARET21010-10367-00460-30000032D0000153D000180000604608     GGSL
NJARET21010-10367-00470-20000024D0000294D00025000000470      GGSL
NJARET21010-10367-00530-30000002D0000087D00001000000530      GGSL
NJARET21010-10367-00550-10000072D0000210D00000000000550      GGSL
NJARET21010-10367-00560-00000328D0001203D000290002105608     GGSL
NJARET21010-10367-00810-60000060D0000341D0000000000ML0810    GGSL
NJARET21010-10367-01000-00000012D0000166D00000000001000      GGSL
NJARET21010-10367-01020-80000036D0000622D00000000001020      GGSL
NJARET21010-10367-01110-60000080D0000264D00007000001110      GGSL
NJARET21010-10367-01111-30000256D0000846D00111000001111      GGSL
NJARET21010-10367-01112-00000160D0000550D00086000011112      GGSL
NJARET21010-10367-01120-50000648D0001868D00056000101120      GGSL
NJARET21010-10367-01121-20000072D0000424D00055000391121      GGSL
NJARET21010-10367-01122-90000264D0001554D00071000071122      GGSL
NJARET21010-10367-01130-40000200D0001082D00007000001130      GGSL
NJARET21010-10367-01140-30000120D0000404D00023000001140      GGSL
NJARET21010-10367-01151-90000184D0000617D00010000001151      GGSL
NJARET21010-10367-01160-10000080D0000626D00019000081160      GGSL
NJARET21010-10367-01161-80000016D0000125D00028000191161      GGSL
NJARET21010-10367-01162-50000024D0000188D00047000171162      GGSL
NJARET21010-10367-01230-10000156D0000632D00000000001230      GGSL
NJARET21010-10367-02121-10000008D0000038D0000100000ML2121    GGSL
NJARET21010-10367-02141-90000008D0000038D0000100000ML2141    GGSL
NJARET21010-10367-02151-80000016D0000120D0000800000ML2151    GGSL
NJARET21010-10367-02162-40000056D0000382D0001900001ML2162    GGSL
NJARET21010-10367-02163-10000040D0000273D0002100000ML2163    GGSL
NJARET21010-10367-02171-60000048D0000327D0000700000ML2171    GGSL
NJARET21010-10367-02181-50000048D0000327D0001900003ML2181    GGSL
NJARET21010-10367-03010-70000016D0000094D0000000000ML3010    GGSL
NJARET21010-10367-03997-10000012D0006593D00008000053997      GGSL
NJARET21010-10367-05010-50000018D0000144D0000000000LT50106   GGSL
NJARET21010-11192-10594-70000040D0001039D0000100001KHEATMAT  GGSL
NJARET21010-11192-60612-30000032D0000295D0001800014KGFH      GGSL
NJARET21010-11192-61100-40000012D0000056D0000100001HTESTKIT12GGSL
NJARET21010-11192-86019-80000054D0000407D0003800016KMG6      GGSL
NJARET21010-11423-00338-70000012D0000074D000180000033801     GGSL
NJARET21010-11423-94109-20000006D0000034D000500000094109     GGSL
NJARET21010-11423-94137-50000012D0000064D000000000094137     GGSL
NJARET21010-11423-94239-60000012D0000066D0000900000HG64138   GGSL
NJARET21010-12587-70028-00000024D0000135D003730000170028     GGSL
NJARET21010-12587-70419-60000048D0000270D003220000070419     GGSL
NJARET21010-14021-01417-50000024D0000110D00000000001024      GGSL
NJARET21010-15561-20140-70000024D0000063D0000000000PT140     GGSL
NJARET21010-15561-20206-00000006D0000877D0000000000PT206     GGSL
NJARET21010-15561-20910-60000048D0000330D0000300000PT910     GGSL
NJARET21010-15561-20911-30000144D0000884D0000200000PT911     GGSL
NJARET21010-15561-20974-80000012D0000067D0000200000PT974     GGSL
NJARET21010-15561-20975-50000012D0000088D0000000000PT975     GGSL
NJARET21010-15561-20976-20000012D0000047D0000200000PT976     GGSL
NJARET21010-15561-20978-60000006D0000065D0000100000PT978     GGSL
NJARET21010-15561-20984-70000024D0000155D0000000000PT984     GGSL
NJARET21010-15561-20985-40000024D0000209D0000000000PT985     GGSL
NJARET21010-15561-21496-40000004D0000153D0000000000PT1496    GGSL
NJARET21010-15561-21498-80000003D0000193D0000000000PT1498    GGSL
NJARET21010-15561-21499-50000003D0000222D0000000000PT1499    GGSL
NJARET21010-15561-21643-20000003D0000188D0000600000PT1643    GGSL
NJARET21010-15561-21735-40000004D0000056D0000000000PT1735    GGSL
NJARET21010-15561-21736-10000003D0000059D0000000000PT1736    GGSL
NJARET21010-15561-21737-80000003D0000107D0000000000PT1737    GGSL
NJARET21010-16069-00001-10000024D0000173D0000300000NESR      GGSL
NJARET21010-16069-00002-80000048D0000336D0000300000NEOR      GGSL
NJARET21010-16069-00005-90000684D0004921D0007500014TP15C     GGSL
NJARET21010-16069-00007-30001008D0006713D0014900020BN1       GGSL
NJARET21010-16069-00008-00002364D0015744D0017100028BN2       GGSL
NJARET21010-16069-00013-40000348D0010017D0008000006BN3       GGSL
NJARET21010-16069-00014-10000192D0004144D0010000012BN4       GGSL
NJARET21010-16069-00015-80000126D0003627D0001800002BN5       GGSL
NJARET21010-16069-00019-60000360D0004142D0003600006TP30C     GGSL
NJARET21010-16069-00030-10000078D0001029D0016500105OW6       GGSL
NJARET21010-16069-00047-90000048D0000345D0001300003TE12C     GGSL
NJARET21010-16069-00049-30000618D0011563D0023900013DX7       GGSL
NJARET21010-16069-00050-90000096D0002763D0004400002DX14      GGSL
NJARET21010-16069-00060-80000075D0000215D0001000002RAP15     GGSL
NJARET21010-16069-00072-10000072D0000480D0001700003TSD12     GGSL
NJARET21010-16069-00076-90000162D0001026D0002400005PN10      GGSL
NJARET21010-16069-00077-60000168D0001813D0003400000PN14      GGSL
NJARET21010-16069-00079-00000024D0000761D0002800001PN28      GGSL
NJARET21010-16069-00110-00000180D0002904D0001100002PF3       GGSL
NJARET21010-16069-00166-70000012D0000238D0000300000TP60      GGSL
NJARET21010-16069-00204-60000028D0000373D0000300000WS2050    GGSL
NJARET21010-16069-00218-30000360D0002071D0006600009HST100    GGSL
NJARET21010-16069-00306-70000060D0000720D0000700000WS1050    GGSL
NJARET21010-16069-00307-40000036D0000840D0000600000WS10100   GGSL
NJARET21010-16069-00358-60000002D0000144D0000000000GS51000   GGSL
NJARET21010-16069-00365-40000009D0000129D0000200001PIN9      GGSL
NJARET21010-16069-00393-70001104D0003971D0009300015GS20      GGSL
NJARET21010-16069-00393-70000072D0000259D0000400000GS20C     GGSL
NJARET21010-16069-00401-90000504D0004712D0001500006GF4050    GGSL
NJARET21010-16069-00418-70000016D0000121D0000100000AU16R     GGSL
NJARET21010-16069-00436-10000120D0000319D0000700002TWST100   GGSL
NJARET21010-16069-00446-00000008D0000082D0000200000RC168W    GGSL
NJARET21010-16069-00447-70000040D0000529D0000200001FS8       GGSL
NJARET21010-16069-00448-40000036D0000337D0000200000BR12      GGSL
NJARET21010-16069-00467-50000020D0000200D0000100001WS550D    GGSL
NJARET21010-16069-00468-20000100D0000224D0000400000HCK50     GGSL
NJARET21010-16069-00474-30000168D0001110D0001400008GS40BW    GGSL
NJARET21010-16069-00475-00000045D0000083D0000000000GS40B     GGSL
NJARET21010-16069-00479-80000360D0006935D0005600040E316B     GGSL
NJARET21010-16069-00480-40000048D0000242D0000700002SPT15     GGSL
NJARET21010-16069-00485-90000120D0000259D0000300003GS1024    GGSL
NJARET21010-16069-00486-60000072D0000777D0000200002GS675     GGSL
NJARET21010-16069-00490-30000004D0000155D0000000000EXC200    GGSL
NJARET21010-16069-00494-10000056D0000524D0001700001GFST4050  GGSL
NJARET21010-16069-00497-20000012D0000129D0000200000BRG20     GGSL
NJARET21010-16069-00498-90000138D0001489D0002600010HGP1012   GGSL
NJARET21010-16069-00499-60000048D0000849D0000700000HGP1020   GGSL
NJARET21010-16069-00504-70000030D0000059D0000300001TG130W    GGSL
NJARET21010-16069-00507-80000084D0000906D0000400001TPSM15    GGSL
NJARET21010-16069-00517-70000060D0000171D0000500000RGP10     GGSL
NJARET21010-16069-00518-40000072D0000363D0000200002SG2512    GGSL
NJARET21010-16069-00519-10000012D0000086D0000200000SPB56     GGSL
NJARET21010-16069-00546-70000020D0000823D0001800008RRBG4     GGSL
NJARET21010-16069-00550-40000110D0001455D0000600001TRWTW     GGSL
NJARET21010-16069-00585-60000048D0000276D0000400000DCLLF412  GGSL
NJARET21010-16069-00597-90000054D0001157D0000900001BTK6      GGSL
NJARET21010-16069-00601-30000008D0000137D0000300001FASM4     GGSL
NJARET21010-16069-00602-00000004D0000150D0000200000FALG4     GGSL
NJARET21010-16069-00609-90000012D0000172D0000100000PTP12     GGSL
NJARET21010-16069-00621-10000008D0000074D0000200000SKOT4     GGSL
NJARET21010-16069-00622-80000180D0000718D0000800002CP612     GGSL
NJARET21010-16069-00625-90000012D0000345D0000200000DXP12     GGSL
NJARET21010-16069-00626-60000020D0000129D0000300002PTG210    GGSL
NJARET21010-16069-00667-90000236D0005027D0033500320RH04US    GGSL
NJARET21010-16500-54010-60000036D0000160D000090000054010     GGSL
NJARET21010-16500-98041-40000048D0000054D001400000098041     GGSL
NJARET21010-17500-08120-00000144D0000202D002670000008120     GGSL
NJARET21010-17500-90206-20000048D0001017D000380003890206     GGSL
NJARET21010-17500-91316-70000084D0001605D000990000791316     GGSL
NJARET21010-17500-91334-10000044D0000982D000010000191334     GGSL
NJARET21010-17500-91350-10000024D0000472D000050000191350     GGSL
NJARET21010-17500-91360-00000024D0000207D000040000091360     GGSL
NJARET21010-17500-91360-00000048D0000414D000000000091364     GGSL
NJARET21010-17500-91362-40000048D0000458D000030000091362     GGSL
NJARET21010-17500-91365-50000072D0000590D000090000191365     GGSL
NJARET21010-17500-91367-90000012D0000098D000000000091367     GGSL
NJARET21010-17500-91714-10000120D0002616D000600001291714     GGSL
NJARET21010-17500-91818-60000016D0000275D000070000291818     GGSL
NJARET21010-17500-95204-30000068D0001344D000360000495204     GGSL
NJARET21010-17500-95314-90000040D0001073D000030000395314     GGSL
NJARET21010-17500-95404-70000012D0000394D000090000295404     GGSL
NJARET21010-18222-00017-30000003D0000369D0001600003PP17      GGSL
NJARET21010-18222-00101-90000054D0000165D0010700000CS06101   GGSL
NJARET21010-18222-00103-30000102D0000311D0008400000CS06103   GGSL
NJARET21010-18222-00105-70000120D0000366D0019700000CS06105   GGSL
NJARET21010-18222-00107-10000042D0000165D0008000000CS06107   GGSL
NJARET21010-18222-00109-50000072D0000220D0014600000CS06109   GGSL
NJARET21010-18222-00110-10000114D0000348D0004900000CS06110   GGSL
NJARET21010-18222-00206-10000048D0000227D0001400000CS06206   GGSL
NJARET21010-18222-00208-50000012D0000057D0001600000CS06208   GGSL
NJARET21010-18222-00213-90000126D0000515D0000900004CS06213   GGSL
NJARET21010-18222-00501-70001008D0001331D0011600011CS12501   GGSL
NJARET21010-18222-00503-10000372D0000765D0002900001CS503     GGSL
NJARET21010-18222-00505-50000408D0000448D0020100004CS12505   GGSL
NJARET21010-18222-00507-90000624D0000855D0008400009CS12507   GGSL
NJARET21010-18222-00509-30001104D0001836D0019500054CS12509   GGSL
NJARET21010-18222-00513-00000024D0000050D0002800001CS12513   GGSL
NJARET21010-18222-00526-00000228D0000696D0010700002CS06526   GGSL
NJARET21010-18222-00527-70001620D0002131D0016100055CS12527   GGSL
NJARET21010-18222-00529-10000012D0000021D0000000000CS12529   GGSL
NJARET21010-18222-00531-40000648D0001457D0015000008CS12531   GGSL
NJARET21010-18222-00535-20000168D0000222D0008600000CS12535   GGSL
NJARET21010-18222-00545-10000036D0000063D0003900003CS12545   GGSL
NJARET21010-18222-00553-60008688D0014795D0012400063CS12553   GGSL
NJARET21010-18222-00559-80000528D0000697D0014000049CS12559   GGSL
NJARET21010-18222-00561-10000048D0000063D0005700001CS12561   GGSL
NJARET21010-18222-00563-50000636D0001077D0009600047CS12563   GGSL
NJARET21010-18222-00565-90001980D0003279D0000000000CS12565   GGSL
NJARET21010-18222-00566-60000012D0000022D0000100000CS12566   GGSL
NJARET21010-18222-00569-70001224D0002122D0021100058CS12569   GGSL
NJARET21010-18222-00571-00000048D0000101D0007200002CS12571   GGSL
NJARET21010-18222-00583-30000540D0001143D0016300048CS12583   GGSL
NJARET21010-18222-00608-30000060D0000219D0006300010CS608     GGSL
NJARET21010-18222-00610-60000036D0000168D0000300000CS610     GGSL
NJARET21010-18222-00611-30000048D0000195D0000200000CS611     GGSL
NJARET21010-18222-00680-90000012D0000028D0000400000CS12680   GGSL
NJARET21010-18222-00689-20000012D0000028D0000100000CS12689   GGSL
NJARET21010-18222-00701-10000840D0001448D0011300009CS701     GGSL
NJARET21010-18222-00707-30000128D0000381D0001800003CS707     GGSL
NJARET21010-18222-00709-70000018D0000087D0000600000CS709     GGSL
NJARET21010-18222-00727-10000018D0000122D0001100001CS727     GGSL
NJARET21010-18222-00730-10001720D0003388D0030100096CS730     GGSL
NJARET21010-18222-00749-30000030D0000167D0002600000CS749     GGSL
NJARET21010-18222-00750-90000004D0000041D0000400001CS750     GGSL
NJARET21010-18222-00753-00000064D0000329D0003300000CS753     GGSL
NJARET21010-18222-00755-40000008D0000027D0000100000CS755     GGSL
NJARET21010-18222-00772-10000004D0000070D0000500000CS772     GGSL
NJARET21010-18222-00950-30001656D0001590D0002100005CS950     GGSL
NJARET21010-18222-50501-20000060D0000066D0011200002CS1250501XGGSL
NJARET21010-18222-50527-20000012D0000013D0004000027CS1250527XGGSL
NJARET21010-18222-50559-30000120D0000132D0014800005CS1250559XGGSL
NJARET21010-18506-00010-30000072D0000572D00001000000106      GGSL
NJARET21010-18506-00019-60000006D0000054D00000000000196      GGSL
NJARET21010-18506-00021-90000036D0000584D00000000000216      GGSL
NJARET21010-18506-00102-50000252D0001099D000690000010212     GGSL
NJARET21010-18506-00102-50000024D0000105D000040000110224     GGSL
NJARET21010-18506-00110-00000276D0002040D001350000311012     GGSL
NJARET21010-18506-00113-10000060D0000294D00000000001136      GGSL
NJARET21010-18506-00114-80000084D0000693D00001000001146      GGSL
NJARET21010-18506-00116-20000648D0004530D000780001911612     GGSL
NJARET21010-18506-00117-90000174D0001867D00049000021176      GGSL
NJARET21010-18506-00120-90000084D0001608D00014000001204      GGSL
NJARET21010-18506-00121-60000438D0004206D00016000001216      GGSL
NJARET21010-18506-00122-30000312D0001720D0001300000122       GGSL
NJARET21010-18506-00123-00000360D0001984D0001500000123       GGSL
NJARET21010-18506-00125-40000060D0000301D0003000001125       GGSL
NJARET21010-18506-00130-80000144D0000801D0003400003130       GGSL
NJARET21010-18506-00135-30000018D0000263D0000900000135       GGSL
NJARET21010-18506-00555-90000001D0000720D000010000011096     GGSL
NJARET21010-18506-02000-20000006D0000042D00005000002000      GGSL
NJARET21010-18506-02001-90000066D0000755D00038000002001      GGSL
NJARET21010-19200-00095-60000060D0000148D002610000100027     GGSL
NJARET21010-19200-00619-40000012D0000046D013840000100706     GGSL
NJARET21010-19200-05432-40000006D0000029D000870000375057     GGSL
NJARET21010-19200-76879-50000924D0002144D000030000376879     GGSL
NJARET21010-19200-79838-90000030D0000140D001730000079838     GGSL
NJARET21010-19200-80306-90000024D0000135D000990000080306     GGSL
NJARET21010-19200-82043-10002592D0006381D002840000082043     GGSL
NJARET21010-19200-83262-50000024D0000079D00124000091920082362GGSL
NJARET21010-19200-83623-40000012D0000093D008310000083623     GGSL
NJARET21010-19200-83721-70000024D0000070D001790017983721     GGSL
NJARET21010-19200-83722-40000008D0000023D003330000083722     GGSL
NJARET21010-19200-98342-60000012D0000054D000570000099427     GGSL
NJARET21010-19200-98665-60000008D0000035D001200000098665     GGSL
NJARET21010-19200-98666-30000024D0000147D000770000098666     GGSL
NJARET21010-19263-25010-70000008D0000570D00000000002501      GGSL
NJARET21010-19263-25030-50000003D0000356D00018000032503      GGSL
NJARET21010-19263-25035-00000052D0001488D0003000002250350    GGSL
NJARET21010-19263-25050-30000001D0000156D00000000002505      GGSL
NJARET21010-19263-25160-90000009D0000094D00001000002516      GGSL
NJARET21010-19263-25170-80000005D0000096D00001000002517      GGSL
NJARET21010-19263-25200-20000004D0000105D00000000002520      GGSL
NJARET21010-19263-25210-10000004D0000131D00000000002521      GGSL
NJARET21010-19263-25250-70000016D0000143D00000000002525      GGSL
NJARET21010-19263-25500-30000075D0000088D00007000022550      GGSL
NJARET21010-19263-25510-20001650D0002360D00050000182551      GGSL
NJARET21010-19263-25520-10001950D0003257D00044000142552      GGSL
NJARET21010-19263-25530-00002925D0005470D00089000462553      GGSL
NJARET21010-19263-25540-90003300D0007425D00070000562554      GGSL
NJARET21010-19263-25680-20000040D0000742D00019000022568      GGSL
NJARET21010-19263-25730-40000004D0000074D00000000002573      GGSL
NJARET21010-19263-25750-20000112D0000598D00006000022575      GGSL
NJARET21010-19263-25760-10000216D0001471D00007000032576      GGSL
NJARET21010-19263-25770-00000459D0004926D00064000352577      GGSL
NJARET21010-19263-25780-90000310D0005984D00075000382578      GGSL
NJARET21010-19263-25941-40005000D0000300D00005000052594BK    GGSL
NJARET21010-19263-25950-60000432D0000514D00005000012595      GGSL
NJARET21010-19263-26040-30000030D0000034D00001000002604      GGSL
NJARET21010-19263-26050-20000100D0000086D00004000002605      GGSL
NJARET21010-19263-26170-70000031D0000828D00000000002617      GGSL
NJARET21010-19263-26210-00000024D0000180D00007000022621      GGSL
NJARET21010-19263-26270-40000003D0000093D00000000002627      GGSL
NJARET21010-19263-26280-30000006D0000185D00000000002628      GGSL
NJARET21010-19263-26300-80000720D0001663D00001000012630      GGSL
NJARET21010-19263-26310-70001272D0003587D00046000112631      GGSL
NJARET21010-19263-26310-70000576D0001624D00024000002633      GGSL
NJARET21010-19263-26340-40000288D0000717D00012000082634      GGSL
NJARET21010-19263-26560-60000464D0003545D00023000152656      GGSL
NJARET21010-19263-26580-40000096D0000938D00013000002658      GGSL
NJARET21010-19263-29100-10000001D0000164D00004000002910      GGSL
NJARET21010-19263-29110-00000001D0000164D00000000002911      GGSL
NJARET21010-19263-29160-50000009D0000219D0000000000291600    GGSL
NJARET21010-21344-00321-20000056D0002173D0013100023WX15064   GGSL
NJARET21010-21344-00322-90000032D0001242D0014300007WX15065   GGSL
NJARET21010-21344-00338-00000002D0000574D0009300000400338    GGSL
NJARET21010-21344-00339-70000004D0000445D0000200002400339    GGSL
NJARET21010-21344-00340-30000003D0000299D0000400004400340    GGSL
NJARET21010-21344-00343-40000018D0000137D0004400011400343    GGSL
NJARET21010-21344-00344-10000024D0000183D0002300002400344    GGSL
NJARET21010-21344-00345-80000012D0000091D0001500005400345    GGSL
NJARET21010-21344-00346-50000024D0000183D0002300010400346    GGSL
NJARET21010-21344-00347-20000020D0000304D0008300006400347    GGSL
NJARET21010-21344-00348-90000004D0000061D0000300003400348    GGSL
NJARET21010-21344-00349-60000012D0000182D0001100002400349    GGSL
NJARET21010-21344-00350-20000012D0000181D0002500003400350    GGSL
NJARET21010-21344-00354-00000064D0003340D0009900028HQ73481784GGSL
NJARET21010-21344-00361-80000006D0000151D0000100001HQ74912297GGSL
NJARET21010-21344-00362-50000001D0000074D0023300004HQMUSH    GGSL
NJARET21010-21344-00381-60000006D0000557D0001400007JFG18031  GGSL
NJARET21010-21344-00382-30000004D0000444D0008700000JFG18032  GGSL
NJARET21010-21344-00383-00000007D0000448D0000800001JFG18024  GGSL
NJARET21010-21344-00384-70000016D0000812D0005700003JFG18013  GGSL
NJARET21010-21344-00385-40000012D0000223D0000500001JFG18011A GGSL
NJARET21010-21344-00386-10000012D0000353D0001600003JFG18011B GGSL
NJARET21010-21344-00387-80000030D0000954D0007300003JFG18012  GGSL
NJARET21010-21344-00389-20000010D0000115D0000400000JFG18004  GGSL
NJARET21010-21344-00390-80000012D0000196D0003300003JFG18010A GGSL
NJARET21010-21344-00392-20000012D0000075D0000400000JFG18002  GGSL
NJARET21010-21344-00394-60000012D0000199D0000600002JFG18008ASGGSL
NJARET21010-21344-00395-30000032D0000814D0001000004JFG18006  GGSL
NJARET21010-21344-00396-00000024D0000810D0000300002JFG18016  GGSL
NJARET21010-21344-00397-70000018D0000701D0011000020JFG18018  GGSL
NJARET21010-21344-00398-40000001D0000116D0000600001JFG18042  GGSL
NJARET21010-21344-00404-20000002D0000127D0006900014ZT185020  GGSL
NJARET21010-21344-00405-90000003D0000198D0010000018ZT185019  GGSL
NJARET21010-21344-00408-00000004D0000225D0002400001ZT185026  GGSL
NJARET21010-21344-00409-70000024D0000092D0001000001ZT185018  GGSL
NJARET21010-21344-00411-00000014D0000521D0000000000ZT185021  GGSL
NJARET21010-21344-00412-70000024D0000915D0000400001ZT185022  GGSL
NJARET21010-21344-00413-40000012D0000022D0012100004400413    GGSL
NJARET21010-21344-00416-50000012D0000019D0003700003400416    GGSL
NJARET21010-21344-00418-90000024D0000059D0012300007400418    GGSL
NJARET21010-21344-00421-90000024D0000078D0011500001400421    GGSL
NJARET21010-21344-00422-60000016D0000545D0000100001ZT185023  GGSL
NJARET21010-21344-00423-30000544D0047450D0001800018WX17658   GGSL
NJARET21010-21344-00718-00000006D0000117D0000900002WX17422   GGSL
NJARET21010-21344-00721-00000004D0000078D0000000000WX17230   GGSL
NJARET21010-21344-00723-40000004D0000078D0000300003WX17402   GGSL
NJARET21010-21344-00724-10000006D0000240D0004500001WXRACK20  GGSL
NJARET21010-21344-00725-80000012D0000533D0001200002HQ748416  GGSL
NJARET21010-21344-00726-50000038D0001781D0014000006HQ74843056GGSL
NJARET21010-21344-00727-20000022D0001030D0002100005HQ74842665GGSL
NJARET21010-21344-00728-90000020D0000484D0007700004HQ74912300GGSL
NJARET21010-21344-00729-60000036D0001878D0010700013HQ7348782 GGSL
NJARET21010-21344-00730-20000024D0000391D0004700003BN19193   GGSL
NJARET21010-21344-00731-90000012D0000210D0000900003BN19190   GGSL
NJARET21010-21344-00732-60000020D0000351D0001700007BN19187   GGSL
NJARET21010-21344-00733-30000032D0000501D0004800007BN19188   GGSL
NJARET21010-21344-00734-00000004D0000130D0000200001WX17725   GGSL
NJARET21010-21344-00735-70000008D0000146D0002200002WX17577RV GGSL
NJARET21010-21344-00736-40000008D0000146D0001200001WX17578RV GGSL
NJARET21010-21344-00739-50000008D0000248D0003100002WX17816   GGSL
NJARET21010-21344-00740-10000008D0000214D0004400004WX17818   GGSL
NJARET21010-21344-00744-90000004D0000124D0004100006WX17819   GGSL
NJARET21010-21344-00745-60000024D0000312D0019000000YS19006   GGSL
NJARET21010-21344-00746-30000008D0000120D0028800000YS19L005  GGSL
NJARET21010-21344-00747-00000012D0000190D0029400000YS19L004  GGSL
NJARET21010-21344-00748-70000020D0000243D0028800000YS19S002  GGSL
NJARET21010-21344-00749-40000016D0000218D0028600000YS19S003  GGSL
NJARET21010-21344-00750-00000020D0000273D0026500000YS19S001  GGSL
NJARET21010-21344-00762-30000008D0000800D0048700066FDBH1901  GGSL
NJARET21010-21344-00762-30000006D0000687D0009600001MG18387RV GGSL
NJARET21010-21344-00765-40000008D0000840D0012100001MG18390   GGSL
NJARET21010-21344-00766-10000004D0000560D00090000004007661   GGSL
NJARET21010-21344-00774-60000004D0000130D0001400004WX17800   GGSL
NJARET21010-21344-00775-30000006D0000195D0004600026WX17802   GGSL
NJARET21010-21344-00776-00000013D0000845D0012800009FDBB1901  GGSL
NJARET21010-21344-00779-10000009D0000205D0005200000JFG19058B GGSL
NJARET21010-21344-00780-70000005D0000306D0006100000MG18396RV GGSL
NJARET21010-21344-00781-40000004D0000136D0008700004MG18397RV GGSL
NJARET21010-21344-00795-10000002D0000270D0009300003MG18389   GGSL
NJARET21010-21344-00796-80000108D0000350D0003800002SSH1822719GGSL
NJARET21010-21344-00797-50000036D0000101D0006600001SSH1813624GGSL
NJARET21010-21344-00798-20000096D0000408D0005200004SSH1813728GGSL
NJARET21010-21344-00799-90000030D0000253D0002900007HS190061C GGSL
NJARET21010-21344-00800-20000018D0000152D0003400005HS190061B GGSL
NJARET21010-21344-00801-90000042D0000354D0003100006HS190061A GGSL
NJARET21010-21344-00802-60000024D0000234D0012800003HS190058C GGSL
NJARET21010-21344-00803-30000032D0000312D0011600001HS190058B GGSL
NJARET21010-21344-00804-00000012D0000117D0013600002HS190058A GGSL
NJARET21010-21344-00805-70000030D0000292D0007700014HS190056  GGSL
NJARET21010-21344-00806-40000032D0000270D0008800003SSH18A025 GGSL
NJARET21010-21344-00807-10000084D0001175D0006800003SSH18A034 GGSL
NJARET21010-21344-00808-80000192D0000913D0007900003SSH18A024 GGSL
NJARET21010-21344-00813-20000002D0000157D00022000134008132   GGSL
NJARET21010-21344-00819-40000012D0000101D0000100001WX17931   GGSL
NJARET21010-21344-00821-70000036D0000246D0002300006WX17932   GGSL
NJARET21010-21344-00822-40000048D0000376D0001700005WX17930   GGSL
NJARET21010-21344-00823-10000024D0000203D0000200000WX17934   GGSL
NJARET21010-21344-00825-50000012D0000070D0001900001JFG18011BWGGSL
NJARET21010-21344-00826-20000132D0001028D0001600002JFG18011AWGGSL
NJARET21010-21344-00827-90000084D0000625D0001000000JFG18008AWGGSL
NJARET21010-21344-00828-60000048D0000288D0002100001JFG18008ACGGSL
NJARET21010-21344-00829-30000020D0000195D0003400005ZT197030  GGSL
NJARET21010-21344-00830-90000030D0000780D0001800000ZT197002  GGSL
NJARET21010-21344-00831-60000020D0000364D0000700000ZT197003  GGSL
NJARET21010-21344-00832-30000003D0000062D0006900000JFG19007B GGSL
NJARET21010-21344-00833-00000016D0000451D0008900000ZT197029  GGSL
NJARET21010-21344-00834-70000001D0000097D0008800002ZT197023RVGGSL
NJARET21010-21344-00837-80000120D0000373D0012600011SK15020B  GGSL
NJARET21010-21344-00838-50001488D0003732D0022800025SK15008E  GGSL
NJARET21010-21344-00839-20000008D0000130D0005000010HS190062  GGSL
NJARET21010-21344-00844-60000108D0000620D0007100005HJAL19011 GGSL
NJARET21010-21344-01171-20000028D0001461D0008600008HQ73482202GGSL
NJARET21010-21344-01273-30000146D0021501D0069500061WX17658A  GGSL
NJARET21010-21964-10100-80000120D0002814D0000700000A6F       GGSL
NJARET21010-21964-10110-70000018D0000123D0000500000A6T       GGSL
NJARET21010-21964-10121-30000030D0000887D0000000000A6RP      GGSL
NJARET21010-21964-10133-60000018D0000532D0000100000TH3RP     GGSL
NJARET21010-21964-10134-30000036D0000721D0000300003BUF16     GGSL
NJARET21010-21964-10200-50000036D0001429D0000300000B7F       GGSL
NJARET21010-21964-10211-10000024D0000219D0001300001OMT       GGSL
NJARET21010-21964-10220-30000005D0000299D0000000000B72       GGSL
NJARET21010-21964-10305-70000011D0000519D0000300000BTG       GGSL
NJARET21010-21964-10315-60000033D0000994D0001200005SQG       GGSL
NJARET21010-21964-10322-40000004D0000161D0000300000CPF       GGSL
NJARET21010-21964-10350-70000002D0000049D0014400144X1        GGSL
NJARET21010-21964-10360-60000054D0001435D0000600000W1        GGSL
NJARET21010-21964-10370-50000138D0001557D0004900005OWF       GGSL
NJARET21010-21964-10380-40000020D0000822D0000300002DCF       GGSL
NJARET21010-21964-10386-60000030D0000390D0001400002CUTE      GGSL
NJARET21010-21964-10450-40000030D0000165D0000600001FF        GGSL
NJARET21010-21964-10451-10000012D0000193D0000100001RSDHC     GGSL
NJARET21010-21964-10461-00000066D0001118D0002300005LF4       GGSL
NJARET21010-21964-10466-50000042D0000711D0000600000WH3       GGSL
NJARET21010-21964-10470-20000006D0000151D0001500002H82       GGSL
NJARET21010-21964-10481-80000024D0000144D0004200008AM        GGSL
NJARET21010-21964-10482-50000006D0000036D0000300000AMO       GGSL
NJARET21010-21964-10485-60000054D0000518D0002400002RS3HC     GGSL
NJARET21010-21964-10486-30000084D0000877D0001000002RS3WC     GGSL
NJARET21010-21964-10489-40000012D0000101D0000200001BOWM      GGSL
NJARET21010-21964-10550-10000006D0000083D0000100001SILW      GGSL
NJARET21010-21964-20061-90000008D0000461D0000200000SDC       GGSL
NJARET21010-21964-20500-30000090D0011287D0000800000YF        GGSL
NJARET21010-21964-20510-20000078D0005477D0000200000YCPD90    GGSL
NJARET21010-21964-20520-10000232D0018654D0004900000YCPW180   GGSL
NJARET21010-21964-20530-00000052D0004328D0000300000YCPT360   GGSL
NJARET21010-21964-25241-00000132D0003238D0000400000CC12S     GGSL
NJARET21010-21964-25242-70000060D0002208D0002700002CC18S     GGSL
NJARET21010-21964-25243-40000006D0000264D0000100000CC24S     GGSL
NJARET21010-21964-25244-10000036D0001064D0001900001CC12N     GGSL
NJARET21010-21964-25245-80000084D0002411D0000500000CC18N     GGSL
NJARET21010-21964-25256-40000048D0001419D0001400001CC12FM    GGSL
NJARET21010-21964-25257-10000012D0000442D0000200000CC18FM    GGSL
NJARET21010-21964-40043-90000012D0000216D0000100000CJM8G     GGSL
NJARET21010-21964-40053-80000162D0003618D0004200002CJM15G    GGSL
NJARET21010-21964-40063-70000078D0002249D0000700000CJM23G    GGSL
NJARET21010-21964-41073-50000054D0001127D0003400003CJTHM15Y  GGSL
NJARET21010-21964-41086-50000048D0000796D0000300001CJTHM8Y   GGSL
NJARET21010-21964-50043-60000024D0000536D0001600013CJM13GP   GGSL
NJARET21010-21964-50100-60000036D0000468D0001300001SKYHK     GGSL
NJARET21010-21964-50202-70000012D0000052D0000000000LC18      GGSL
NJARET21010-21964-50227-00000006D0000031D0000100001SWH8      GGSL
NJARET21010-21964-60120-10000001D0000019D0001100000UCX       GGSL
NJARET21010-21964-60300-70000002D0000186D0000000000JG        GGSL
NJARET21010-21964-60303-80000002D0000231D0000200000JGA       GGSL
NJARET21010-21964-60303-80000001D0000101D0000000000JGAM      GGSL
NJARET21010-21964-60525-40000012D0000110D0000400000PS        GGSL
NJARET21010-21964-60527-80000006D0000214D0000000000UPA       GGSL
NJARET21010-21964-60528-50000006D0000114D0000100001RLS       GGSL
NJARET21010-21964-60533-90000006D0000137D0000000000TPH       GGSL
NJARET21010-21964-70101-70000012D0000138D0000000000SS2       GGSL
NJARET21010-21964-80100-70000036D0000302D0001700000BFB       GGSL
NJARET21010-21964-90514-90000001D0000008D0000000000BL8RSX    GGSL
NJARET21010-22179-10011-40000006D0000060D0000000000LG3104    GGSL
NJARET21010-22179-10081-70000012D0000092D0000000000LG7204    GGSL
NJARET21010-22179-10084-80000120D0001086D0004900011LG7220    GGSL
NJARET21010-22179-10115-90000012D0000230D0000200000LG5599    GGSL
NJARET21010-22179-10120-30000002D0000084D0001400003LG6510    GGSL
NJARET21010-22179-10124-10000408D0002372D0002800004LG6515    GGSL
NJARET21010-22179-10151-70000010D0000432D0000100000LG7117    GGSL
NJARET21010-22179-10157-90000060D0001310D0004300000LG6530    GGSL
NJARET21010-22179-10167-80000036D0000600D0000200000LG6140    GGSL
NJARET21010-22179-10185-20000462D0004371D0017400004LG6500    GGSL
NJARET21010-22179-10186-90000006D0000253D0000200000LG6555    GGSL
NJARET21010-22179-10246-00000090D0001544D0002400003LG6570    GGSL
NJARET21010-22179-10248-40000192D0001646D0002100005LG6575    GGSL
NJARET21010-22179-10257-60000072D0001201D0000000000LG3190    GGSL
NJARET21010-22179-10258-30000006D0000182D0001000000LG6580    GGSL
NJARET21010-22179-10259-00000024D0001367D0000000000LG6585    GGSL
NJARET21010-22179-10263-70000004D0000120D0000000000LG6350    GGSL
NJARET21010-22179-10270-50000016D0000184D0000100001LG7115    GGSL
NJARET21010-22179-10326-90000048D0001433D0001700000LG5482    GGSL
NJARET21010-22179-10327-60000204D0001942D0004600037LG6148    GGSL
NJARET21010-22179-10376-40000004D0000083D0000000000LG6292    GGSL
NJARET21010-22179-10389-40000012D0000106D0000100001LG7265    GGSL
NJARET21010-22179-10390-00000012D0000128D0000700000LG6332    GGSL
NJARET21010-22179-10408-20000024D0000219D0000500000LG6338    GGSL
NJARET21010-22179-10429-70000060D0001117D0001000000LG6334    GGSL
NJARET21010-22179-10434-10000012D0000120D0000400001LG6133    GGSL
NJARET21010-22179-10444-00000012D0000163D0000400002LG3374    GGSL
NJARET21010-22179-10448-80000012D0000141D0000500001LG3174    GGSL
NJARET21010-22179-10454-90000042D0000481D0001000000LG3303    GGSL
NJARET21010-22179-10455-60000006D0000106D0000000000LG3307    GGSL
NJARET21010-22179-10463-10000006D0000069D0000000000LG3213    GGSL
NJARET21010-22179-10471-60000048D0000511D0000400000LG6128    GGSL
NJARET21010-22179-10481-50000012D0000170D0001200000LG5592    GGSL
NJARET21010-22179-10499-00000006D0000103D0000200000LG9250    GGSL
NJARET21010-22179-10509-60000006D0000073D0000000000LG6172    GGSL
NJARET21010-22179-10517-10000006D0000143D0001000000LG3176    GGSL
NJARET21010-22179-10519-50000018D0000317D0000100000LG6544    GGSL
NJARET21010-22401-00301-50000051D0000548D0003100001THD20     GGSL
NJARET21010-22401-00350-30000012D0000186D0003900000EDG20GMC  GGSL
NJARET21010-22401-00364-00000016D0000216D0000000000EER8DB    GGSL
NJARET21010-22401-00440-10000015D0000389D0001300000PRO40PC   GGSL
NJARET21010-22401-10087-50000148D0001190D0002200020EAR20TMC  GGSL
NJARET21010-22401-10089-90000004D0000062D0000100000BBC20LB   GGSL
NJARET21010-23075-02170-10000028D0000159D0000100001PHEX      GGSL
NJARET21010-23075-02180-00000056D0000293D0000200002P180      GGSL
NJARET21010-23075-02351-40000096D0000365D0000200001P35H      GGSL
NJARET21010-23075-02361-30000036D0000227D0000000000P36S      GGSL
NJARET21010-23075-02362-00000112D0000591D0000000000FT36HFB   GGSL
NJARET21010-23075-02707-90000024D0000061D0000000000P707      GGSL
NJARET21010-23075-02721-50000160D0000856D0000800008P72H      GGSL
NJARET21010-23075-02990-50000060D0000326D0001800015KHB6      GGSL
NJARET21010-23075-03312-40000080D0000153D0000100001FR312B    GGSL
NJARET21010-23075-03407-70000066D0000143D0000200001FR407     GGSL
NJARET21010-23075-05110-40000192D0000520D0000500003FS110     GGSL
NJARET21010-23075-20501-90000012D0000048D0000300003G608PERLITGGSL
NJARET21010-23865-09987-30000284D0002229D00065000009987      GGSL
NJARET21010-23883-00009-70000018D0000375D0000200001G362D     GGSL
NJARET21010-23883-00032-50000002D0000071D0000000000G2005P    GGSL
NJARET21010-23883-01000-30000012D0000134D00000000001000      GGSL
NJARET21010-23883-01002-70000030D0000305D00003000031002      GGSL
NJARET21010-23883-05000-90000006D0000057D00003000005000      GGSL
NJARET21010-23883-08303-80000010D0001977D00000000008303C     GGSL
NJARET21010-23883-08706-70000240D0002058D00076000128706A     GGSL
NJARET21010-23883-16100-20000891D0007953D007030026816100     GGSL
NJARET21010-23883-16200-90000049D0000893D000720000416200     GGSL
NJARET21010-23883-20000-80000004D0000057D000020000220000     GGSL
NJARET21010-23883-20002-20000698D0007180D006060017720002     GGSL
NJARET21010-23883-20003-90000006D0000161D000080000420003     GGSL
NJARET21010-23883-20010-70000031D0000520D000690000620010     GGSL
NJARET21010-23883-20020-60000023D0000522D000480000320020     GGSL
NJARET21010-23883-20030-50000011D0000329D000000000020030     GGSL
NJARET21010-23883-26010-10000001D0000029D000000000026010     GGSL
NJARET21010-23883-26021-70000008D0000313D000000000026021XP   GGSL
NJARET21010-23883-26031-60000004D0000199D000000000026031XP   GGSL
NJARET21010-23883-27010-00000006D0000145D000030000327010     GGSL
NJARET21010-23883-27020-90000008D0000209D000030000327020     GGSL
NJARET21010-23883-27030-80000008D0000248D000030000327030     GGSL
NJARET21010-23883-60100-30000001D0000064D000000000060100     GGSL
NJARET21010-23883-61900-80000001D0000104D000000000061900     GGSL
NJARET21010-23883-63800-90000010D0000917D000000000063800     GGSL
NJARET21010-23883-69324-20000001D0000191D000020000063924     GGSL
NJARET21010-24114-20430-70000150D0000966D0000500000204309    GGSL
NJARET21010-24114-20450-50000175D0001127D0000100000204509    GGSL
NJARET21010-24114-20480-20000125D0000805D0001100000204809    GGSL
NJARET21010-24114-70102-80000525D0000799D0008900003701002    GGSL
NJARET21010-24114-70164-60000020D0000214D0000500000701649    GGSL
NJARET21010-24114-70300-80000250D0000658D0004700003703002    GGSL
NJARET21010-24114-70609-20000225D0000988D0002400000706009    GGSL
NJARET21010-24114-70807-30000175D0000700D0002200002708073    GGSL
NJARET21010-24114-71609-10000100D0000616D0001800008716009    GGSL
NJARET21010-24114-71642-80000120D0001150D0004200004701642    GGSL
NJARET21010-24114-71664-00000125D0001477D0000000000716642    GGSL
NJARET21010-24114-71673-20000350D0002303D0004000009716073    GGSL
NJARET21010-24114-73009-70000025D0000090D0000000000730009    GGSL
NJARET21010-24114-74009-60000250D0001219D0004200008704009    GGSL
NJARET21010-24114-74509-10000125D0000805D0000700002704509    GGSL
NJARET21010-24114-74712-50000125D0000102D0001100002742012A   GGSL
NJARET21010-24114-74718-70000125D0000121D0000700002742018A   GGSL
NJARET21010-24114-74929-70000025D0000161D0000800004704929    GGSL
NJARET21010-24114-75161-00000150D0001099D0001700013750161    GGSL
NJARET21010-24654-01065-90000004D0000188D00000000005118GAL   GGSL
NJARET21010-24654-05922-10000162D0002034D00043000065926      GGSL
NJARET21010-24654-05922-10000001D0000377D00000000005926DS    GGSL
NJARET21010-24654-05931-30000012D0000182D00005000005935      GGSL
NJARET21010-24654-05931-30000001D0000273D00002000025935DS    GGSL
NJARET21010-24654-05962-70000036D0000439D00014000065962      GGSL
NJARET21010-24654-05962-70000019D0005550D00002000005962DS    GGSL
NJARET21010-24654-05972-60000012D0000417D00011000005972      GGSL
NJARET21010-24654-05981-80000036D0000372D00033000025981      GGSL
NJARET21010-24654-05981-80000005D0001204D00000000005981DS    GGSL
NJARET21010-24654-09334-80000113D0003249D00220000879334      GGSL
NJARET21010-24654-30506-90000078D0000353D000220000830506     GGSL
NJARET21010-24654-51826-10000060D0000604D000030000151826     GGSL
NJARET21010-24654-55025-40000192D0000744D00004000045026      GGSL
NJARET21010-24654-55110-70000144D0000782D000250001651106     GGSL
NJARET21010-24654-55118-30000114D0000873D000160000651186     GGSL
NJARET21010-24654-55130-50000006D0000033D00005000015454      GGSL
NJARET21010-24654-55168-80000012D0000061D00001000005168      GGSL
NJARET21010-24654-55325-50000090D0000492D000170000153256     GGSL
NJARET21010-24654-55450-40000060D0000328D000080000454506     GGSL
NJARET21010-25033-01703-00000048D0000538D000080000101703     GGSL
NJARET21010-25033-01707-80000042D0000511D000110000001707     GGSL
NJARET21010-25033-01713-90000066D0000845D000040000301713     GGSL
NJARET21010-25033-01717-70000048D0000813D000020000201717     GGSL
NJARET21010-25033-01723-80000028D0000658D000110000001723     GGSL
NJARET21010-25033-01727-60000008D0000263D000060000001727     GGSL
NJARET21010-25033-02019-10000036D0002071D000170000102019     GGSL
NJARET21010-25033-02077-10000018D0000218D000080000102077     GGSL
NJARET21010-25033-02088-70000054D0000750D000070000002088     GGSL
NJARET21010-25033-02089-40000030D0000265D000020000002089     GGSL
NJARET21010-25033-02099-30000006D0000053D000000000002099     GGSL
NJARET21010-25033-02114-30000002D0000155D000040000202114     GGSL
NJARET21010-25033-02134-10000006D0000110D000000000002134     GGSL
NJARET21010-25033-02135-80000006D0000161D000000000002135     GGSL
NJARET21010-25033-02136-50000006D0000171D000000000002136     GGSL
NJARET21010-25033-02144-00000024D0000318D000000000002144     GGSL
NJARET21010-25033-02145-70000006D0000096D000050000002145     GGSL
NJARET21010-25033-02205-80000008D0000192D000000000002205     GGSL
NJARET21010-25033-02211-90000024D0000922D000060000002211     GGSL
NJARET21010-25033-02212-60000004D0000368D000040000102212     GGSL
NJARET21010-25033-02213-30000006D0000616D000000000002213     GGSL
NJARET21010-25033-02215-70000008D0000918D000020000002215     GGSL
NJARET21010-25033-02217-10000001D0000120D000040000002217     GGSL
NJARET21010-25033-02273-70000004D0000175D000000000002273     GGSL
NJARET21010-25033-02314-70000048D0000973D000000000002314     GGSL
NJARET21010-25033-02467-00000008D0000232D000080000002467     GGSL
NJARET21010-25033-02477-90000012D0000311D000280000002477     GGSL
NJARET21010-25033-02481-60000014D0000593D000010000002481     GGSL
NJARET21010-25033-02501-10000024D0000233D000170000202501     GGSL
NJARET21010-25033-02510-30000040D0000448D000050000102510     GGSL
NJARET21010-25033-02519-60000060D0001839D000040000102519     GGSL
NJARET21010-25033-02520-20000008D0000170D000150000302520     GGSL
NJARET21010-25033-02521-90000020D0000478D000140000302521     GGSL
NJARET21010-25033-02522-60000031D0001648D000120000202522     GGSL
NJARET21010-25033-02523-30000024D0001381D000060000002523     GGSL
NJARET21010-25033-02525-70000038D0002459D000370001402525     GGSL
NJARET21010-25033-02527-10000033D0002334D000450001202527     GGSL
NJARET21010-25033-02650-60000006D0000667D000140000102650     GGSL
NJARET21010-25033-02660-50000003D0000448D000710000102660     GGSL
NJARET21010-25033-02670-40000002D0000530D000060000002670     GGSL
NJARET21010-25033-02675-90000003D0000702D000060000002675     GGSL
NJARET21010-25033-02720-60000036D0003321D000150000702720     GGSL
NJARET21010-25033-02722-00000025D0002653D000170000902722     GGSL
NJARET21010-25033-02728-20000010D0001456D000100000202728     GGSL
NJARET21010-25033-02750-30000004D0000720D000110000102750     GGSL
NJARET21010-25033-02910-10000006D0000805D000020000002910     GGSL
NJARET21010-25033-02920-00000004D0000628D000040000002920     GGSL
NJARET21010-25033-02940-80000008D0001487D000030000002940     GGSL
NJARET21010-25033-03760-10000048D0000137D000020000003760     GGSL
NJARET21010-25033-03770-00000004D0000103D000000000003770     GGSL
NJARET21010-25033-03801-10000026D0000569D000110000003801     GGSL
NJARET21010-25033-03802-80000018D0000386D000100000303802     GGSL
NJARET21010-25033-03810-30000002D0000048D000000000003810     GGSL
NJARET21010-25033-03821-90000003D0000124D000010000103821     GGSL
NJARET21010-25033-03822-60000004D0000100D000000000003822     GGSL
NJARET21010-25033-03850-90000002D0000027D000000000003850     GGSL
NJARET21010-25033-03936-00000006D0000055D000000000003936     GGSL
NJARET21010-25033-04560-60000002D0000283D000000000004560     GGSL
NJARET21010-25033-05410-30000002D0000161D000000000005410     GGSL
NJARET21010-25033-11104-20000024D0000095D000290000011104     GGSL
NJARET21010-25033-12012-90000006D0000042D000010000112012     GGSL
NJARET21010-25033-12195-90000072D0000499D000350000012195     GGSL
NJARET21010-25033-12201-70000030D0000252D000100000612201     GGSL
NJARET21010-25033-12202-40000072D0000575D000150000212202     GGSL
NJARET21010-25033-12203-10000138D0000492D000110000112203     GGSL
NJARET21010-25033-12204-80000186D0001038D000120000112204     GGSL
NJARET21010-25033-12205-50000024D0000220D000040000112205     GGSL
NJARET21010-25033-12285-70000030D0000278D000010000012285     GGSL
NJARET21010-25033-12315-10000006D0000186D000000000012315     GGSL
NJARET21010-25033-12411-00000001D0000172D000010000112411     GGSL
NJARET21010-25033-12412-70000002D0000195D000060000012412     GGSL
NJARET21010-25033-12505-60000042D0000232D000010000012505     GGSL
NJARET21010-25033-12535-30000006D0000020D000000000012535     GGSL
NJARET21010-25033-12545-20000006D0000019D000010000112545     GGSL
NJARET21010-25033-12575-90000006D0000067D000000000012575     GGSL
NJARET21010-25033-12605-30000006D0000019D000000000012605     GGSL
NJARET21010-25033-12730-20000006D0000061D000050000012730     GGSL
NJARET21010-25033-12733-30000001D0000005D000090000012733     GGSL
NJARET21010-25033-12741-80000010D0000052D000000000012741     GGSL
NJARET21010-25033-12776-00000012D0000433D000000000012776     GGSL
NJARET21010-25033-12780-70000006D0000359D000000000012780     GGSL
NJARET21010-25033-12784-50000012D0000047D000000000012784     GGSL
NJARET21010-25033-12785-20000012D0000057D000010000112785     GGSL
NJARET21010-25033-12955-90000030D0000296D000020000212955     GGSL
NJARET21010-25033-12971-90000001D0000043D000170000512971     GGSL
NJARET21010-25033-12972-50000001D0000050D000160000012972     GGSL
NJARET21010-25033-12974-00000002D0000138D000140000012974     GGSL
NJARET21010-25033-20230-60000002D0000539D000030000020230     GGSL
NJARET21010-25033-20235-10000004D0001134D000000000020235     GGSL
NJARET21010-25531-01234-60000027D0000917D000310002975160     GGSL
NJARET21010-25545-21619-80000004D0000084D0001500007 21619    GGSL
NJARET21010-25845-12346-20000024D0000041D00000000005585      GGSL
NJARET21010-25849-00078-30000060D0000639D00000000000078P     GGSL
NJARET21010-25849-00082-00000120D0001278D00000000000082P     GGSL
NJARET21010-25849-00110-00000300D0002237D00000000000110P     GGSL
NJARET21010-25849-00205-30000035D0000668D00003000020205RG    GGSL
NJARET21010-25849-00262-60000100D0000536D00001000010262P     GGSL
NJARET21010-25849-00280-00000100D0000536D00001000010280P     GGSL
NJARET21010-25849-00305-00000035D0000653D00001000000305RG    GGSL
NJARET21010-25849-00305-00000008D0000149D00062000080305RGX   GGSL
NJARET21010-25849-10281-40000057D0000791D000010000010281RG   GGSL
NJARET21010-25849-10380-40000060D0001645D000000000010380RG   GGSL
NJARET21010-25849-10381-10000270D0007940D000030000310381RG   GGSL
NJARET21010-25849-10381-10000046D0001369D000000000010381RGX  GGSL
NJARET21010-25849-10710-90000594D0005137D00024000191020010RG GGSL
NJARET21010-25849-10720-80000324D0002202D00014000151020020RG GGSL
NJARET21010-25849-10941-70000216D0001013D00000000001008041RGCGGSL
NJARET21010-25849-11041-30000216D0001251D00000000001016041RGCGGSL
NJARET21010-25849-11110-60000240D0001168D00001000011010010RG GGSL
NJARET21010-25849-11120-50000360D0001531D00004000041010020RG GGSL
NJARET21010-25849-11151-90000240D0001535D00003000001010051RG GGSL
NJARET21010-25849-11151-90000060D0000389D00270000201010051RGXGGSL
NJARET21010-25849-20381-80000060D0001797D000040000220381RG   GGSL
NJARET21010-25881-09985-10000002D0000048D0001000000 09985    GGSL
NJARET21010-26175-86100-00000288D0001300D0001600007861       GGSL
NJARET21010-26432-22510-10000002D0000242D0000000000SB5010U   GGSL
NJARET21010-26432-26110-90000005D0001273D0000300000SB6500    GGSL
NJARET21010-26600-89334-70000144D0000309D003990000089334     GGSL
NJARET21010-26978-02181-60000250D0001220D000810001202181     GGSL
NJARET21010-26978-02182-30000170D0000830D000980000802182     GGSL
NJARET21010-26978-02188-50000260D0001009D001100001202188     GGSL
NJARET21010-26978-02241-70000280D0001498D000320001902241     GGSL
NJARET21010-26978-02242-40000560D0002996D000550001302242     GGSL
NJARET21010-26978-02248-60000020D0000088D000240000202248     GGSL
NJARET21010-26978-02301-80000080D0000568D000150000002301     GGSL
NJARET21010-26978-02302-50000220D0001562D000090000002302     GGSL
NJARET21010-26978-02308-70000160D0000901D000180000202308     GGSL
NJARET21010-26978-02361-20000060D0000539D000200000802361     GGSL
NJARET21010-26978-02362-90000100D0000899D000080000102362     GGSL
NJARET21010-26978-02368-10000220D0001505D000320000602368     GGSL
NJARET21010-26978-03060-30000130D0000549D000170000203060     GGSL
NJARET21010-26978-03062-70000180D0000760D000330000203062     GGSL
NJARET21010-26978-03068-90000150D0000635D000080000303068     GGSL
NJARET21010-26978-03082-50000140D0001103D000320000203082     GGSL
NJARET21010-26978-03088-70000150D0001182D000070000303088     GGSL
NJARET21010-26978-03100-60000085D0001116D00023000040310005   GGSL
NJARET21010-26978-03102-00000095D0001247D00027000010310205   GGSL
NJARET21010-26978-03108-20000080D0001050D00007000010310805   GGSL
NJARET21010-26978-03120-40000070D0001282D00028000040312005   GGSL
NJARET21010-26978-03122-80000075D0001373D00030000010312205   GGSL
NJARET21010-26978-03128-00000085D0001556D00013000020312805   GGSL
NJARET21010-26978-04513-30000005D0000035D000050000004513     GGSL
NJARET21010-26978-04523-20000005D0000056D000050000004523     GGSL
NJARET21010-26978-04533-10000005D0000076D000040000004533     GGSL
NJARET21010-26978-05011-30000108D0000105D000120001205011     GGSL
NJARET21010-26978-05013-70000036D0000035D000020000105013     GGSL
NJARET21010-26978-05071-70000036D0000042D000280000105071     GGSL
NJARET21010-26978-05081-60000036D0000046D000010000005081     GGSL
NJARET21010-26978-05131-80000036D0000055D000000000005131     GGSL
NJARET21010-26978-08060-80000100D0000423D000140000208060     GGSL
NJARET21010-26978-08061-50000070D0000296D000160000408061     GGSL
NJARET21010-26978-08062-20000060D0000254D000220000208062     GGSL
NJARET21010-26978-08080-60000090D0000709D000160000508080     GGSL
NJARET21010-26978-08082-00000060D0000473D000150000408082     GGSL
NJARET21010-26978-08097-40000040D0000266D000070000108097     GGSL
NJARET21010-26978-08098-10000070D0000466D000120000308098     GGSL
NJARET21010-26978-08101-80000005D0000066D00000000000810105   GGSL
NJARET21010-26978-08102-50000025D0000285D00006000020810205   GGSL
NJARET21010-26978-08120-90000055D0001007D00013000030812005   GGSL
NJARET21010-26978-08121-60000045D0000824D00018000020812105   GGSL
NJARET21010-26978-08122-30000025D0000458D00020000010812205   GGSL
NJARET21010-26978-08162-90000006D0000238D00007000000816203   GGSL
NJARET21010-26978-08710-20000006D0000084D000040000008710     GGSL
NJARET21010-26978-08713-30000006D0000084D000100000108713     GGSL
NJARET21010-26978-10010-80000090D0000327D000100000110010     GGSL
NJARET21010-26978-10012-20000090D0000327D000170000310012     GGSL
NJARET21010-26978-10013-90000084D0000305D000180000110013     GGSL
NJARET21010-26978-10020-70000070D0000473D000170000210020     GGSL
NJARET21010-26978-10022-10000075D0000507D000190000310022     GGSL
NJARET21010-26978-10023-80000075D0000507D000150000010023     GGSL
NJARET21010-26978-10062-70000340D0000901D000590001810062     GGSL
NJARET21010-26978-10068-90000260D0000689D000760001710068     GGSL
NJARET21010-26978-10082-50000340D0001227D000880002010082     GGSL
NJARET21010-26978-10088-70000240D0000866D000560001710088     GGSL
NJARET21010-26978-10102-00000205D0001080D000490002210102     GGSL
NJARET21010-26978-10108-20000130D0000685D000720001710108     GGSL
NJARET21010-26978-10122-80000180D0001399D000550002110122     GGSL
NJARET21010-26978-10128-00000145D0001127D000710001710128     GGSL
NJARET21010-26978-10142-60000130D0001269D000630001310142     GGSL
NJARET21010-26978-10148-50000100D0000976D000360001110148     GGSL
NJARET21010-26978-10180-80000130D0000417D000460000210180     GGSL
NJARET21010-26978-10182-20000200D0000642D000170000310182     GGSL
NJARET21010-26978-10183-90000080D0000257D000200000110183     GGSL
NJARET21010-26978-10185-30000150D0000482D000290000210185     GGSL
NJARET21010-26978-10240-90000100D0000353D000260000110240     GGSL
NJARET21010-26978-10242-30000410D0001447D000290000210242     GGSL
NJARET21010-26978-10243-00000030D0000106D000320000110243     GGSL
NJARET21010-26978-10245-40000140D0000494D000380000010245     GGSL
NJARET21010-26978-10300-00000100D0000445D000310000110300     GGSL
NJARET21010-26978-10302-40000160D0000712D000300000110302     GGSL
NJARET21010-26978-10303-10000010D0000045D000200000110303     GGSL
NJARET21010-26978-10305-50000130D0000579D000190000010305     GGSL
NJARET21010-26978-10360-40000070D0000390D000220000110360     GGSL
NJARET21010-26978-10362-80000100D0000557D000240000110362     GGSL
NJARET21010-26978-10363-50000020D0000111D000160000110363     GGSL
NJARET21010-26978-10365-90000060D0000334D000110000010365     GGSL
NJARET21010-26978-16190-10000190D0000827D001120000916190     GGSL
NJARET21010-26978-16192-50000440D0001914D000880001516192     GGSL
NJARET21010-26978-16193-20000060D0000261D000830000816193     GGSL
NJARET21010-26978-16195-60000190D0000827D001240001416195     GGSL
NJARET21010-26978-16198-70000070D0000305D000200000416198     GGSL
NJARET21010-26978-16240-30000190D0001022D000120001016240     GGSL
NJARET21010-26978-16243-40000050D0000271D000440000716243     GGSL
NJARET21010-26978-16245-80000260D0001407D001200001416245     GGSL
NJARET21010-26978-16300-40000150D0001023D000770000916300     GGSL
NJARET21010-26978-16302-80000410D0002796D001040001816302     GGSL
NJARET21010-26978-16303-50000030D0000205D000590000316303     GGSL
NJARET21010-26978-16305-90000190D0001296D000650001216305     GGSL
NJARET21010-26978-16308-00000140D0000955D000150000216308     GGSL
NJARET21010-26978-16360-80000160D0001626D000810000816360     GGSL
NJARET21010-26978-16362-20000320D0003251D000540001016362     GGSL
NJARET21010-26978-16363-90000030D0000305D000300000116363     GGSL
NJARET21010-26978-16365-30000130D0001321D000520000816365     GGSL
NJARET21010-26978-16368-40000120D0001219D000270000316368     GGSL
NJARET21010-26978-26140-30000120D0001080D000520000326140     GGSL
NJARET21010-26978-26142-70000230D0002070D000690001226142     GGSL
NJARET21010-26978-26143-40000070D0000630D000460000326143     GGSL
NJARET21010-26978-26145-80000200D0001800D000420000726145     GGSL
NJARET21010-26978-26148-90000140D0001260D000280000426148     GGSL
NJARET21010-26978-26160-10000060D0000574D000090000026160     GGSL
NJARET21010-26978-26162-50000064D0000612D000150000026162     GGSL
NJARET21010-26978-26163-20000020D0000191D000090000026163     GGSL
NJARET21010-26978-26165-60000024D0000230D000100000026165     GGSL
NJARET21010-26978-26180-90000090D0001297D000300000826180     GGSL
NJARET21010-26978-26182-30000130D0001873D000340000926182     GGSL
NJARET21010-26978-26183-00000050D0000721D000400001026183     GGSL
NJARET21010-26978-26185-40000140D0002017D000250001026185     GGSL
NJARET21010-26978-26188-50000150D0002162D000190000226188     GGSL
NJARET21010-26978-26242-40000004D0000044D000050000126242     GGSL
NJARET21010-26978-26245-50000012D0000133D000030000026245     GGSL
NJARET21010-26978-26270-70000030D0000346D000050000126270     GGSL
NJARET21010-26978-29005-20000005D0000096D000020000029005     GGSL
NJARET21010-26978-29505-70000005D0000058D000070000329505     GGSL
NJARET21010-26978-29603-00000006D0000086D000010000029603     GGSL
NJARET21010-26978-30200-70000012D0000121D000010000030200     GGSL
NJARET21010-26978-30301-10001524D0008641D000490003030301     GGSL
NJARET21010-26978-30312-70000024D0000024D000370000130312     GGSL
NJARET21010-26978-30402-50000276D0001512D000390000330402     GGSL
NJARET21010-26978-30409-40000192D0001052D000390000430409     GGSL
NJARET21010-26978-30411-70000156D0000973D000720000430411     GGSL
NJARET21010-26978-30412-40000024D0000024D000000000030412     GGSL
NJARET21010-26978-30413-10000096D0000595D000230000630413     GGSL
NJARET21010-26978-30413-10001632D0006537D00052000073041396   GGSL
NJARET21010-26978-30500-80000010D0000050D000000000030500     GGSL
NJARET21010-26978-30602-90000462D0001742D001040001730602     GGSL
NJARET21010-26978-30605-00000288D0001138D000420001430605     GGSL
NJARET21010-26978-30702-60000288D0001049D000400001830702     GGSL
NJARET21010-26978-30705-70000234D0000841D000320001530705     GGSL
NJARET21010-26978-30806-10000042D0000177D000030000330806     GGSL
NJARET21010-26978-30809-20000120D0000505D000070000730809     GGSL
NJARET21010-26978-30909-90000020D0000099D000010000130909     GGSL
NJARET21010-26978-31100-90000145D0000870D000290000731100     GGSL
NJARET21010-26978-31108-50000125D0000750D000250000831108     GGSL
NJARET21010-26978-31109-20000070D0000420D000140000431109     GGSL
NJARET21010-26978-31120-70000075D0000936D000090000531120     GGSL
NJARET21010-26978-31121-40000060D0000749D000220000531121     GGSL
NJARET21010-26978-31128-30000130D0001622D000110000631128     GGSL
NJARET21010-26978-31129-00000035D0000437D000160000131129     GGSL
NJARET21010-26978-31168-90000040D0000961D000150000331168     GGSL
NJARET21010-26978-31169-60000020D0000480D000130000031169     GGSL
NJARET21010-26978-32101-50000010D0000077D000030000332100     GGSL
NJARET21010-26978-32108-40000090D0000690D000060000632108     GGSL
NJARET21010-26978-32109-10000155D0001189D000180000232109     GGSL
NJARET21010-26978-32121-30000020D0000273D000020000232120     GGSL
NJARET21010-26978-32128-20000160D0002178D000240000232128     GGSL
NJARET21010-26978-32129-90000115D0001565D000240000232129     GGSL
NJARET21010-26978-34061-00000120D0000508D000060000234061     GGSL
NJARET21010-26978-34063-40000080D0000338D000320001334063     GGSL
NJARET21010-26978-34068-90000070D0000296D000400001734068     GGSL
NJARET21010-26978-34081-80000050D0000376D000410001634081     GGSL
NJARET21010-26978-34083-20000120D0000901D000070000234083     GGSL
NJARET21010-26978-34088-70000140D0001051D000060000434088     GGSL
NJARET21010-26978-34101-30000050D0000625D000400002134101     GGSL
NJARET21010-26978-34103-70000095D0001188D000290000434103     GGSL
NJARET21010-26978-34108-20000010D0000125D000010000134108     GGSL
NJARET21010-26978-34121-10000060D0001046D000240000134121     GGSL
NJARET21010-26978-34123-50000035D0000610D000320000234123     GGSL
NJARET21010-26978-34141-10000033D0000843D000180000634141     GGSL
NJARET21010-26978-34143-50000039D0000996D000180000434143     GGSL
NJARET21010-26978-34148-00000033D0000843D000160000334148     GGSL
NJARET21010-26978-35060-20000140D0000592D000370001835060     GGSL
NJARET21010-26978-35061-90000020D0000085D000000000035061     GGSL
NJARET21010-26978-35066-40000060D0000254D000060000235066     GGSL
NJARET21010-26978-35068-80000360D0001523D000320000935068     GGSL
NJARET21010-26978-35069-50000020D0000085D000070000235069     GGSL
NJARET21010-26978-35080-00000270D0002128D000570000735080     GGSL
NJARET21010-26978-35081-70000090D0000709D000120000235081     GGSL
NJARET21010-26978-35086-20000010D0000079D000030000035086     GGSL
NJARET21010-26978-35088-60000050D0000394D000710003435088     GGSL
NJARET21010-26978-35089-30000160D0001261D000250000435089     GGSL
NJARET21010-26978-35093-00000025D0000235D000060000235093     GGSL
NJARET21010-26978-35098-50000045D0000423D000060000235098     GGSL
NJARET21010-26978-35100-50000165D0002516D000280000935100     GGSL
NJARET21010-26978-35101-20000010D0000153D000000000035101     GGSL
NJARET21010-26978-35106-70000005D0000076D000070000135106     GGSL
NJARET21010-26978-35108-10000035D0000534D000880004035108     GGSL
NJARET21010-26978-35109-80000065D0000991D000440000435109     GGSL
NJARET21010-26978-35120-30000115D0002496D000290000535120     GGSL
NJARET21010-26978-35121-00000010D0000217D000030000135121     GGSL
NJARET21010-26978-35126-50000080D0001736D000210000135126     GGSL
NJARET21010-26978-35128-90000140D0003041D000160000735128     GGSL
NJARET21010-26978-35129-60000050D0001086D000340000335129     GGSL
NJARET21010-26978-35130-20000015D0000254D000000000035130     GGSL
NJARET21010-26978-35138-80000025D0000410D000130000235138     GGSL
NJARET21010-26978-35139-50000010D0000164D000100000135139     GGSL
NJARET21010-26978-35146-30000020D0000629D000010000035146     GGSL
NJARET21010-26978-35148-70000100D0003144D000270000435148     GGSL
NJARET21010-26978-35149-40000060D0001886D000230000135149     GGSL
NJARET21010-26978-35168-50000050D0002074D000150000335168     GGSL
NJARET21010-26978-35169-20000020D0000829D000230000135169     GGSL
NJARET21010-26978-35188-30000016D0001208D000070000035188     GGSL
NJARET21010-26978-35189-00000004D0000325D000250000035189     GGSL
NJARET21010-26978-35190-60000006D0000204D000020000135190     GGSL
NJARET21010-26978-35198-20000026D0000885D000530000735198     GGSL
NJARET21010-26978-35199-90000004D0000136D000170000235199     GGSL
NJARET21010-26978-35208-80000002D0000060D000000000035208     GGSL
NJARET21010-26978-35270-50000006D0000486D000010000135270     GGSL
NJARET21010-26978-35278-10000026D0002107D000280000635278     GGSL
NJARET21010-26978-35279-80000002D0000162D000260000135279     GGSL
NJARET21010-26978-35358-00000010D0001689D00018000063535801   GGSL
NJARET21010-26978-36108-00000030D0000338D000130000336108     GGSL
NJARET21010-26978-36128-80000015D0000235D000130000136128     GGSL
NJARET21010-26978-36140-00000075D0001005D000180000536140     GGSL
NJARET21010-26978-36148-60000140D0001876D000280001136148     GGSL
NJARET21010-26978-36220-90000080D0001878D000060000136220     GGSL
NJARET21010-26978-36228-50000040D0000939D000220001636228     GGSL
NJARET21010-26978-36295-70000005D0000149D000000000036295     GGSL
NJARET21010-26978-36298-80000070D0002300D000170000136298     GGSL
NJARET21010-26978-38142-20000096D0000506D000050000138142     GGSL
NJARET21010-26978-38146-00000024D0000126D000130000138146     GGSL
NJARET21010-26978-38148-40000060D0000316D000170000538148     GGSL
NJARET21010-26978-38192-70000018D0000215D000050000138192     GGSL
NJARET21010-26978-38196-50000012D0000144D000090000138196     GGSL
NJARET21010-26978-39122-30000168D0000665D000380001039122     GGSL
NJARET21010-26978-39126-10000108D0000428D000260000939126     GGSL
NJARET21010-26978-39128-50000096D0000380D000400000239128     GGSL
NJARET21010-26978-39182-70000144D0001469D000120000439182     GGSL
NJARET21010-26978-39186-50000078D0000796D000040000439186     GGSL
NJARET21010-26978-39188-90000036D0000367D000090000939188     GGSL
NJARET21010-26978-48098-30000012D0000053D000170000348098     GGSL
NJARET21010-26978-48128-00000018D0000111D000090000248128     GGSL
NJARET21010-26978-48158-00000024D0000197D000160000148158     GGSL
NJARET21010-26978-63060-50000020D0000078D000100000063060     GGSL
NJARET21010-26978-63065-00000020D0000078D000070000063065     GGSL
NJARET21010-26978-63066-70000030D0000117D000120000063066     GGSL
NJARET21010-26978-63069-80000030D0000117D000100000063069     GGSL
NJARET21010-26978-63070-40000010D0000063D000210000063070     GGSL
NJARET21010-26978-63075-90000010D0000063D000080000063075     GGSL
NJARET21010-26978-63076-60000040D0000252D000140000063076     GGSL
NJARET21010-26978-63079-70000020D0000126D000120000063079     GGSL
NJARET21010-26978-63090-20000005D0000067D000030000063090     GGSL
NJARET21010-26978-63095-70000015D0000200D000070000063095     GGSL
NJARET21010-26978-63096-40000005D0000067D000090000463096     GGSL
NJARET21010-26978-63099-50000015D0000200D000070000063099     GGSL
NJARET21010-26978-80100-50000004D0000177D000080000080100     GGSL
NJARET21010-26978-80101-20000104D0003819D000210000380101     GGSL
NJARET21010-26978-80101-20000012D0000460D00007000008010104   GGSL
NJARET21010-26978-80101-20000036D0001298D00000000008010136   GGSL
NJARET21010-26978-80105-00000084D0003084D000250000280105     GGSL
NJARET21010-26978-80105-00000012D0000460D00006000008010504   GGSL
NJARET21010-26978-80107-40000504D0014718D00070000158010712   GGSL
NJARET21010-26978-80151-40000024D0000909D00000000008015112   GGSL
NJARET21010-26978-80151-70000040D0001516D000330000280151     GGSL
NJARET21010-26978-80151-70000004D0000157D00000000008015104   GGSL
NJARET21010-26978-80153-10000004D0000152D000020000180153     GGSL
NJARET21010-26978-80155-50000024D0000909D000380000280155     GGSL
NJARET21010-26978-80155-50000004D0000157D00001000008015504   GGSL
NJARET21010-26978-80651-20000054D0000969D000010000080651     GGSL
NJARET21010-26978-80655-00000018D0000323D000010000080655     GGSL
NJARET21010-26978-80658-10000006D0000108D000010000080658     GGSL
NJARET21010-26978-81010-60000008D0000244D000070000081010     GGSL
NJARET21010-26978-81011-30000028D0000715D000350000181011     GGSL
NJARET21010-26978-81013-70000004D0000102D000000000081013     GGSL
NJARET21010-26978-81015-10000020D0000511D000380000181015     GGSL
NJARET21010-26978-81016-80000004D0000102D000000000081016     GGSL
NJARET21010-26978-81075-50000006D0000042D000010000181075     GGSL
NJARET21010-26978-81100-40000336D0002584D000140000481100     GGSL
NJARET21010-26978-81101-10000480D0004306D000230000681101     GGSL
NJARET21010-26978-81121-90000120D0000439D000260000081121     GGSL
NJARET21010-26978-81201-80000009D0000404D000290000281201     GGSL
NJARET21010-26978-95008-60000008D0000019D000000000095008     GGSL
NJARET21010-26978-95208-00000016D0000088D000010000095208     GGSL
NJARET21010-27452-06200-40000002D0000034D00013000006200      GGSL
NJARET21010-27652-80204-20000043D0002342D0000900001LG400161  GGSL
NJARET21010-27652-80205-90000010D0000422D0000100001LG400171GDGGSL
NJARET21010-27856-10001-20008904D0026469D0037300022P10232    GGSL
NJARET21010-27856-10002-90014244D0074977D0115200017P10264    GGSL
NJARET21010-27856-10008-10003068D0041725D0060700000P101      GGSL
NJARET21010-27856-10009-80002592D0023721D0031800020P128      GGSL
NJARET21010-27997-00229-90000024D0000569D0001600000TE        GGSL
NJARET21010-27997-01017-10000006D0001015D0001200000M6T22     GGSL
NJARET21010-28009-11440-50000455D0002649D0000300000T1440     GGSL
NJARET21010-28009-15540-80000180D0000508D0000200002T5540     GGSL
NJARET21010-28929-02937-70000001D0000068D00000000002937DL    GGSL
NJARET21010-29925-70153-30000002D0000049D000000000070153     GGSL
NJARET21010-29973-12316-50000210D0001233D000210000314116021P GGSL
NJARET21010-29973-12333-20001808D0006364D000940003714110028P GGSL
NJARET21010-29973-12341-70001015D0005045D0080500072141100216UGGSL
NJARET21010-29973-12349-30000808D0003555D000290001614901028P GGSL
NJARET21010-29973-12369-10000003D0001531D000010000014106021P GGSL
NJARET21010-29973-12456-80000320D0001408D000500001514902028P GGSL
NJARET21010-30541-00030-60000012D0000079D0000100000JCD100TF  GGSL
NJARET21010-30541-00066-50000048D0000121D0000000000JCDTP03   GGSL
NJARET21010-30541-00069-60000024D0000138D0000400000JCD05CMP  GGSL
NJARET21010-30541-00102-00000012D0000065D0000200000JCD02ER   GGSL
NJARET21010-30541-01010-70000012D0000023D0000000000JCD012SMP GGSL
NJARET21010-30541-01020-60000288D0000654D0006400008JCD024SM  GGSL
NJARET21010-30541-01020-60000360D0000674D0000800001JCD060SM  GGSL
NJARET21010-30541-01030-50000228D0001913D0006200005JCD100SMJ GGSL
NJARET21010-30541-01034-30000090D0001887D0003600003JCD030SM  GGSL
NJARET21010-30541-01039-80000156D0000780D0004900006JCD05SM   GGSL
NJARET21010-30541-07006-40000011D0004094D0001300001JCDRACKA  GGSL
NJARET21010-30541-08100-80000002D0000109D0000000000JCD10BKSMPGGSL
NJARET21010-30541-08878-60000024D0000072D0000200000SMMS      GGSL
NJARET21010-30541-08879-30000024D0000072D0001300001SMVS      GGSL
NJARET21010-30541-09981-20000050D0000097D0001700000JCDTPG    GGSL
NJARET21010-30541-09982-90000024D0000059D0000000000JCDTPP03  GGSL
NJARET21010-31009-40456-80000004D0000024D000010000127010409  GGSL
NJARET21010-31009-66921-90000004D0000016D00002000002576      GGSL
NJARET21010-31009-67877-80000008D0000048D00000000002579      GGSL
NJARET21010-31009-69125-80000001D0000006D00000000002580      GGSL
NJARET21010-31340-10005-10000036D0000660D0000300003B550120   GGSL
NJARET21010-31340-10006-80000828D0009252D0007100013B550125   GGSL
NJARET21010-31340-10007-50000030D0000975D0000800000B550130   GGSL
NJARET21010-31340-10017-40000096D0001759D0002200002B550190   GGSL
NJARET21010-31340-10020-40000008D0000201D0000600000B550205   GGSL
NJARET21010-31365-10600-70000004D0000093D0011000004 42808    GGSL
NJARET21010-31417-00047-50000025D0000445D000240000080551121X GGSL
NJARET21010-31417-00055-00000037D0000932D000760000080601131X GGSL
NJARET21010-31417-00056-70000022D0000495D000230000080611131X GGSL
NJARET21010-31417-00058-10000032D0000720D000360000080631131X GGSL
NJARET21010-31417-00107-60000070D0000381D000350000080202005  GGSL
NJARET21010-31724-01002-00000006D0000084D0000200001HM100     GGSL
NJARET21010-31724-20305-70000005D0000092D0000200000203050    GGSL
NJARET21010-31724-57575-80000005D0000157D0000100000988VR50   GGSL
NJARET21010-31724-57576-50000003D0000133D0000400000988VR75   GGSL
NJARET21010-31724-84000-90000027D0000597D00043000008400100   GGSL
NJARET21010-31724-84005-40000120D0001430D0002500000840050    GGSL
NJARET21010-31724-84007-80000030D0000663D0000800000840075    GGSL
NJARET21010-31724-85090-90000078D0002697D00027000008509100   GGSL
NJARET21010-31724-85095-40000075D0001312D0008300028850950    GGSL
NJARET21010-31724-85097-80000039D0001012D0002200004850975    GGSL
NJARET21010-31724-85350-40000060D0001747D00010000018535100   GGSL
NJARET21010-31724-85355-90000095D0001476D0001900002853550    GGSL
NJARET21010-31724-85357-30000069D0001507D0000800006853575    GGSL
NJARET21010-31724-86175-20000014D0005999D000010000186175028  GGSL
NJARET21010-31724-86177-60000129D0004476D0000600006861775    GGSL
NJARET21010-31724-86505-70000010D0000365D0000200000865050    GGSL
NJARET21010-31724-86955-00000005D0000194D0000200002869550    GGSL
NJARET21010-31724-88451-50000057D0002914D00011000018845100   GGSL
NJARET21010-31724-88455-30000030D0000873D0002000001884550    GGSL
NJARET21010-31724-88805-60000010D0000236D0002500001888VR50   GGSL
NJARET21010-31724-98461-10000006D0000429D00000000009846100   GGSL
NJARET21010-31724-98465-90000015D0000584D0000000000984650    GGSL
NJARET21010-31724-98467-30000003D0000167D0000000000984675    GGSL
NJARET21010-31724-98800-80000006D0000342D0000900005988VR100  GGSL
NJARET21010-32247-00900-30000084D0000278D00120000061009001   GGSL
NJARET21010-32247-00910-20000084D0000293D00143000071009101   GGSL
NJARET21010-32247-00950-80000066D0000235D00163000071009501   GGSL
NJARET21010-32247-02515-70000026D0001118D00304000002515      GGSL
NJARET21010-32247-10500-20000384D0003820D0006100005110500    GGSL
NJARET21010-32247-14902-00000060D0000939D001130000414902     GGSL
NJARET21010-32247-14905-10000280D0002265D002060001314905     GGSL
NJARET21010-32247-17183-00000108D0001092D002670001317183     GGSL
NJARET21010-32247-17185-40000036D0000830D001520000917185     GGSL
NJARET21010-32247-17290-50000030D0000334D000850000017290     GGSL
NJARET21010-32247-17293-60000018D0000193D000570000117293     GGSL
NJARET21010-32247-17295-00000012D0000303D000490000017295     GGSL
NJARET21010-32247-17323-00000018D0000180D000550000317323     GGSL
NJARET21010-32247-17508-10000270D0003402D002260002017508     GGSL
NJARET21010-32247-17530-20000066D0000669D000330000317530     GGSL
NJARET21010-32247-17540-10000036D0001050D002510000717540     GGSL
NJARET21010-32247-18213-30000032D0000561D000520001018213     GGSL
NJARET21010-32247-18221-80000024D0000616D001140000018221     GGSL
NJARET21010-32247-18222-50000032D0000510D000520000818222     GGSL
NJARET21010-32247-18225-60000204D0002238D002000001918225     GGSL
NJARET21010-32247-18251-50000012D0000371D000420000018251     GGSL
NJARET21010-32247-18260-70000006D0000073D000590000018260     GGSL
NJARET21010-32247-18266-90000042D0000577D000830000318266     GGSL
NJARET21010-32247-18269-00000008D0000258D000090000018269     GGSL
NJARET21010-32247-18272-00000018D0000108D000600000018272     GGSL
NJARET21010-32247-18277-50000008D0000224D000140000018277     GGSL
NJARET21010-32247-18320-80000012D0000128D000460001618320     GGSL
NJARET21010-32247-18345-10000012D0000174D000570000418345     GGSL
NJARET21010-32247-18346-80000008D0000172D000490000018346     GGSL
NJARET21010-32247-18348-20000054D0000814D000650000418348     GGSL
NJARET21010-32247-18354-30000024D0000353D000580000018354     GGSL
NJARET21010-32247-20785-00000234D0000936D001210000572078430  GGSL
NJARET21010-32247-21605-00000020D0000421D005570001121605     GGSL
NJARET21010-32247-21701-90000120D0001117D000860000321701     GGSL
NJARET21010-32247-23616-40000027D0000658D008850000023616     GGSL
NJARET21010-32247-23622-50000016D0000278D009700000023622     GGSL
NJARET21010-32247-25006-10000005D0000131D004000000125006A    GGSL
NJARET21010-32247-25009-20000002D0000138D001600000025009     GGSL
NJARET21010-32247-26002-20000005D0000334D001170000026002A    GGSL
NJARET21010-32247-26003-90000015D0000415D002040000026003D    GGSL
NJARET21010-32247-26784-70000024D0000096D000610000372678430  GGSL
NJARET21010-32247-27764-80000128D0000640D000320001472776430  GGSL
NJARET21010-32247-30156-50000200D0002820D001240001530156     GGSL
NJARET21010-32247-31015-40000040D0000420D000000000031015     GGSL
NJARET21010-32247-31115-80000008D0000625D002090000031115     GGSL
NJARET21010-32247-32367-30000006D0000188D004780000132367F    GGSL
NJARET21010-32247-33002-20000012D0000185D00005000003300210   GGSL
NJARET21010-32247-33040-40000013D0000227D007140000033040     GGSL
NJARET21010-32247-33050-30000029D0001256D004950000033050     GGSL
NJARET21010-32247-33160-90000027D0001975D004660000033160     GGSL
NJARET21010-32247-34161-50000034D0002059D003450000034161     GGSL
NJARET21010-32247-36905-30000031D0001188D008020007736905     GGSL
NJARET21010-32247-37610-50000008D0000119D000880000037610C    GGSL
NJARET21010-32247-38605-00000015D0000215D002110000038605D    GGSL
NJARET21010-32247-38615-90000010D0000355D000900000038615     GGSL
NJARET21010-32247-39181-80000005D0000146D007630000039181     GGSL
NJARET21010-32247-39605-90000020D0000379D007380000939605     GGSL
NJARET21010-32247-39615-80000010D0000503D003730000339615     GGSL
NJARET21010-32247-42784-50000012D0000048D000440000374278430  GGSL
NJARET21010-32247-43750-90000004D0000086D00012000004375010   GGSL
NJARET21010-32247-43850-60000016D0000478D00028000004385010   GGSL
NJARET21010-32247-43860-50000004D0000097D00031000004386004   GGSL
NJARET21010-32247-47783-30000024D0000096D000490000774778300  GGSL
NJARET21010-32247-49019-10000133D0001596D005560028049019     GGSL
NJARET21010-32247-49023-80000024D0000245D000200000049023     GGSL
NJARET21010-32247-49024-50000022D0000327D002550004049024     GGSL
NJARET21010-32247-49785-50000210D0000948D000490000974978500  GGSL
NJARET21010-32247-49801-20000018D0000214D000160000049801D    GGSL
NJARET21010-32247-51070-70000004D0000042D000160000051070     GGSL
NJARET21010-32247-51080-60000006D0000038D000080000051080     GGSL
NJARET21010-32247-51105-60000041D0000564D005590001651105     GGSL
NJARET21010-32247-51115-50000055D0002137D003260000351115     GGSL
NJARET21010-32247-52784-20000036D0000144D000330001285278430  GGSL
NJARET21010-32247-53105-40000020D0000227D004510001453105     GGSL
NJARET21010-32247-54105-30000018D0000114D00021000005410510   GGSL
NJARET21010-32247-54204-30000018D0000209D00016000015420406   GGSL
NJARET21010-32247-55513-50000065D0000653D000600000775551300  GGSL
NJARET21010-32247-55523-40000144D0002246D000240000075552300  GGSL
NJARET21010-32247-55783-20000102D0000524D000480002475578300  GGSL
NJARET21010-32247-55863-10000091D0000763D000010000075586300  GGSL
NJARET21010-32247-55863-10000016D0000134D000650002075586300X GGSL
NJARET21010-32247-56063-40000016D0000058D000520003045606300  GGSL
NJARET21010-32247-56211-90000042D0000640D00071000015621106   GGSL
NJARET21010-32247-56513-40000520D0004680D000490001175651300  GGSL
NJARET21010-32247-56513-40000010D0000090D000080000075651300X GGSL
NJARET21010-32247-56523-30000324D0004556D000510001275652300  GGSL
NJARET21010-32247-56783-10000594D0002815D010770005175678300  GGSL
NJARET21010-32247-56783-10001200D0005687D000270000975678309  GGSL
NJARET21010-32247-56863-00000182D0001372D000230000375686300  GGSL
NJARET21010-32247-56863-00000017D0000128D000000001075686300X GGSL
NJARET21010-32247-57905-60000010D0000124D001880000057905     GGSL
NJARET21010-32247-71060-20000096D0001271D000930000471060     GGSL
NJARET21010-32247-71131-90000004D0000079D000360000171131     GGSL
NJARET21010-32247-74150-70002088D0011534D0038300092274150    GGSL
NJARET21010-32247-74250-40001860D0015690D0027300057274250    GGSL
NJARET21010-32247-74850-60000348D0006661D0030200031274850    GGSL
NJARET21010-32247-75902-10000014D0001174D000230000275902     GGSL
NJARET21010-32247-76121-50000024D0000874D000700000676121     GGSL
NJARET21010-32247-76232-80000003D0000192D000560000276232     GGSL
NJARET21010-32247-76565-70000024D0001375D000280000076565     GGSL
NJARET21010-32247-77160-30001872D0009393D0056500072277160    GGSL
NJARET21010-32247-77260-00001236D0010867D0033800045277260    GGSL
NJARET21010-32247-77860-20000306D0004992D0020100019277860    GGSL
NJARET21010-32247-77960-90000744D0015733D0041000027277960    GGSL
NJARET21010-32247-99605-10000086D0001805D008090007299605     GGSL
NJARET21010-32247-99610-50000001D0000046D001240000399610     GGSL
NJARET21010-32903-00169-30001584D0001917D0016500032SLI06000E3GGSL
NJARET21010-32903-00171-60000528D0000639D0005400006SLI06000A3GGSL
NJARET21010-32903-00191-40000120D0000530D0000700004GAB12000E2GGSL
NJARET21010-32903-00192-10001032D0001249D0006500011SLI06000B9GGSL
NJARET21010-32903-00193-80000012D0000197D0000500002TEA17000G2GGSL
NJARET21010-32903-00214-00000456D0000552D0003200009SLI06000E2GGSL
NJARET21010-32903-00222-50000840D0001302D0007800013SLI08000B9GGSL
NJARET21010-32903-00224-90000156D0001075D0002500000VNP18000E2GGSL
NJARET21010-32903-00227-00000126D0000522D0000200000SVN18000E2GGSL
NJARET21010-32903-00228-70000024D0000407D0000000000ROS15500A3GGSL
NJARET21010-32903-00236-20000054D0000249D0002400000SVN24000E2GGSL
NJARET21010-32903-00240-90000384D0000595D0007100005SLI08000E2GGSL
NJARET21010-32903-00243-00000036D0000199D0001100000SVN30000E2GGSL
NJARET21010-32903-00246-10000432D0000670D0006300005SLI08000A3GGSL
NJARET21010-32903-00257-70000030D0001058D0001400001RZGH210G2 GGSL
NJARET21010-32903-00258-40000504D0000887D0001000005LIA06000E2GGSL
NJARET21010-32903-00264-50000576D0001532D0000800002LIA08000E2GGSL
NJARET21010-32903-00281-20000252D0001028D0001100007LIA10000E2GGSL
NJARET21010-32903-00283-60000096D0000589D0000400000GAB14000E2GGSL
NJARET21010-32903-00284-30000008D0000232D0000400003TEA20000G2GGSL
NJARET21010-32903-00287-40000078D0000609D0003800000VNP24000E2GGSL
NJARET21010-32903-00290-40000048D0000487D0003200000VNP30000E2GGSL
NJARET21010-32903-00293-50001656D0003594D0005400006SLI10000E2GGSL
NJARET21010-32903-00301-70000020D0000292D0003200000ROP28000A3GGSL
NJARET21010-32903-00309-30000804D0001745D0006200040SLI10000E3GGSL
NJARET21010-32903-00313-00000036D0000341D0000900001GAB18000E2GGSL
NJARET21010-32903-00326-00000108D0000706D0000300003LIA12000E2GGSL
NJARET21010-32903-00332-10000528D0001146D0003400013SLI10000B9GGSL
NJARET21010-32903-00338-30000324D0000703D0009100004SLI10000A3GGSL
NJARET21010-32903-00341-30000228D0001895D0002600010SLI24000E3GGSL
NJARET21010-32903-00359-80001200D0001860D0016100045SLI08000E3GGSL
NJARET21010-32903-04255-90000204D0001685D0000700007LIA14000E2GGSL
NJARET21010-32903-04257-30000348D0001277D0001500006SLI12000E2GGSL
NJARET21010-32903-04265-80000006D0000090D0000400001GAB22000E2GGSL
NJARET21010-32903-07519-90000216D0002767D0003100000LIA16000E2GGSL
NJARET21010-32903-07530-40000252D0000988D0000300001SLI14000E2GGSL
NJARET21010-32903-07534-20000030D0000515D0000500000LIA20000E2GGSL
NJARET21010-32903-07558-80000216D0000773D0004300011RZWC1Q0B9 GGSL
NJARET21010-32903-07563-20000180D0000787D0000800003SLI17000E2GGSL
NJARET21010-32903-07577-90000054D0001237D0001100001LIA24000E2GGSL
NJARET21010-32903-12006-60001632D0002872D0003600033LIA06000E3GGSL
NJARET21010-32903-12008-00001752D0004660D0009200040LIA08000E3GGSL
NJARET21010-32903-12010-30000816D0003329D0003200021LIA10000E3GGSL
NJARET21010-32903-12012-70001008D0006592D0007700047LIA12000E3GGSL
NJARET21010-32903-12014-10000876D0007236D0004800049LIA14000E3GGSL
NJARET21010-32903-12017-20000252D0003228D0001800010LIA16000E3GGSL
NJARET21010-32903-12020-20000042D0000721D0000400004LIA20000E3GGSL
NJARET21010-32903-12024-00000180D0004124D0004800012LIA24000E3GGSL
NJARET21010-32903-12115-50000060D0001018D0000300000ROS15500E3GGSL
NJARET21010-32903-12312-80000252D0001331D0002800009CNA12000E3GGSL
NJARET21010-32903-12318-00000114D0000472D0001000003SVN18000E3GGSL
NJARET21010-32903-12324-10000084D0000388D0001000001SVN24000E3GGSL
NJARET21010-32903-12330-20000078D0000431D0001700001SVN30000E3GGSL
NJARET21010-32903-12712-60000288D0001273D0002700015GAB12000E3GGSL
NJARET21010-32903-12714-00000240D0001474D0004500018GAB14000E3GGSL
NJARET21010-32903-12718-80000072D0000668D0003100002GAB18000E3GGSL
NJARET21010-32903-12722-50000036D0000537D0001700001GAB22000E3GGSL
NJARET21010-32903-12818-50000252D0001736D0008300018VNP18000E3GGSL
NJARET21010-32903-12824-60000228D0001781D0011500013VNP24000E3GGSL
NJARET21010-32903-12830-70000228D0002312D0008400011VNP30000E3GGSL
NJARET21010-32903-22484-90000025D0000365D0000200000ROP28000E2GGSL
NJARET21010-32903-23732-00000066D0000432D0001100000SLI20000E2GGSL
NJARET21010-32903-30392-60000216D0000475D0001300003CNA08000E3GGSL
NJARET21010-32903-31000-90000008D0000232D0000300002TEA20000E3GGSL
NJARET21010-32903-35079-10000009D0000480D0000200002TES20000G2GGSL
NJARET21010-32903-35947-30000240D0000806D0001100006CNA10000E3GGSL
NJARET21010-32903-40400-50000324D0001322D0006100009LIA10000A3GGSL
NJARET21010-32903-40493-70000864D0002298D0002200012LIA08000B9GGSL
NJARET21010-32903-40770-90000186D0001282D0005200005VNP18000A3GGSL
NJARET21010-32903-41472-10000048D0000265D0001900001SVN30000A3GGSL
NJARET21010-32903-41640-40000864D0002298D0005000011LIA08000A3GGSL
NJARET21010-32903-41717-30000420D0003469D0002100014LIA14000B9GGSL
NJARET21010-32903-41728-90000372D0002433D0002900013LIA12000B9GGSL
NJARET21010-32903-41842-20000198D0002008D0005300004VNP30000A3GGSL
NJARET21010-32903-41909-20000132D0001691D0000300003LIA16000A3GGSL
NJARET21010-32903-42050-00000042D0000962D0000800002LIA24000A3GGSL
NJARET21010-32903-42240-50001152D0002028D0002700014LIA06000B9GGSL
NJARET21010-32903-42728-80000084D0000388D0001300001SVN24000A3GGSL
NJARET21010-32903-43116-20000060D0000248D0003500002SVN18000A3GGSL
NJARET21010-32903-45170-20000360D0002974D0001100007LIA14000A3GGSL
NJARET21010-32903-45342-30000204D0001593D0005200005VNP24000A3GGSL
NJARET21010-32903-45788-90000030D0000687D0001300008LIA24000B9GGSL
NJARET21010-32903-46337-80000336D0004304D0002500011LIA16000B9GGSL
NJARET21010-32903-46966-00000060D0001030D0000400001LIA20000A3GGSL
NJARET21010-32903-47208-00000360D0002354D0005600010LIA12000A3GGSL
NJARET21010-32903-48101-30000696D0001225D0003300011LIA06000A3GGSL
NJARET21010-32903-48538-70000006D0000103D0000000000LIA20000B9GGSL
NJARET21010-32903-50286-20000360D0001249D0004500019HSI10008E2GGSL
NJARET21010-32903-50763-80001332D0004888D0005300034SLI12000E3GGSL
NJARET21010-32903-50764-50000264D0001035D0002100013SLI14000B9GGSL
NJARET21010-32903-50766-90000008D0000305D0000700004TEA24000G2GGSL
NJARET21010-32903-50767-60000288D0001057D0000900006SLI12000A3GGSL
NJARET21010-32903-50794-20000456D0001674D0001400008SLI12000B9GGSL
NJARET21010-32903-50802-40000852D0003340D0003500030SLI14000E3GGSL
NJARET21010-32903-50803-10000216D0000847D0002200006SLI14000A3GGSL
NJARET21010-32903-52340-90000078D0000360D0001400003SVN24000B9GGSL
NJARET21010-32903-52858-90000396D0002728D0006300014VNP18000B9GGSL
NJARET21010-32903-53271-50000072D0000598D0000700000SLI24000E2GGSL
NJARET21010-32903-55269-00000006D0000454D0000200002TEA30000E3GGSL
NJARET21010-32903-56391-70000360D0001249D0006500024HSI10008A1GGSL
NJARET21010-32903-57235-30000090D0000913D0001500001VNP30000B9GGSL
NJARET21010-32903-57495-10000072D0000397D0001500001SVN30000B9GGSL
NJARET21010-32903-58303-80000072D0000562D0000600002VNP24000B9GGSL
NJARET21010-32903-58838-50000066D0000273D0001000001SVN18000B9GGSL
NJARET21010-32903-60930-10000009D0000480D0000100001TES20000E3GGSL
NJARET21010-32903-61152-60000012D0000197D0000100000TEA17000E3GGSL
NJARET21010-32903-61636-10000552D0001915D0004900030HSI10008B6GGSL
NJARET21010-32903-63553-90000012D0000457D0000400001TEA24000E3GGSL
NJARET21010-32903-66002-90000035D0000511D0003600000ROP28000E3GGSL
NJARET21010-32903-72233-80000636D0002595D0002100018LIA10000B9GGSL
NJARET21010-32903-72518-60000184D0001654D0003800018RZWC2G0B9 GGSL
NJARET21010-32903-72886-60000072D0000451D0003400017RZWC1G0B9 GGSL
NJARET21010-32903-75049-20000306D0002001D0002900023SLI20000E3GGSL
NJARET21010-32903-75051-50000180D0000787D0001300003SLI17000A3GGSL
NJARET21010-32903-75057-70000156D0000682D0001200007SLI17000B9GGSL
NJARET21010-32903-75070-60000078D0000510D0002300002SLI20000A3GGSL
NJARET21010-32903-75076-80000004D0000315D0000200002TES24000G2GGSL
NJARET21010-32903-75080-50000540D0002360D0001900011SLI17000E3GGSL
NJARET21010-32903-75081-20000084D0000549D0000800003SLI20000B9GGSL
NJARET21010-32903-75084-30000060D0000499D0001200001SLI24000A3GGSL
NJARET21010-32903-75089-80000066D0000548D0001700006SLI24000B9GGSL
NJARET21010-32903-91270-80000017D0000618D0002200000RZGH210E3 GGSL
NJARET21010-32903-91300-20000024D0000187D0000900000VNP2400G18GGSL
NJARET21010-32903-91303-30000018D0000183D0000700000VNP3000G18GGSL
NJARET21010-32903-91320-00000008D0000232D0000700003TEA20000G8GGSL
NJARET21010-32903-91321-70000012D0000457D0000300003TEA24000G8GGSL
NJARET21010-32903-91322-40000002D0000151D0000600006TEA30000G8GGSL
NJARET21010-32903-91323-10000006D0000320D0000300003TES20000G8GGSL
NJARET21010-32903-91324-80000004D0000315D0000000000TES24000G8GGSL
NJARET21010-32903-91485-60000015D0000189D0000900005SPX24DBA34GGSL
NJARET21010-32903-91575-40000012D0000124D0000100001PZA1200Y35GGSL
NJARET21010-32903-91608-90000060D0000397D0000000000IFA1200E35GGSL
NJARET21010-32903-91620-10000030D0000399D0000000000IFA1600E35GGSL
NJARET21010-32903-91622-50000024D0000319D0000000000IFA1600E21GGSL
NJARET21010-33200-00020-40001764D0001240D00042000423320000020GGSL
NJARET21010-33200-00544-50006396D0064104D003350033500544     GGSL
NJARET21010-33200-01191-00000144D0001018D000640006401191     GGSL
NJARET21010-33200-09020-50000004D0000028D000000000009020     GGSL
NJARET21010-33200-09142-40000156D0001090D000960009609142     GGSL
NJARET21010-33200-09293-30000024D0000166D00018000189293      GGSL
NJARET21010-33200-11321-80000084D0000117D001660011611321     GGSL
NJARET21010-33200-11448-20000024D0000035D001060000011448     GGSL
NJARET21010-33200-35240-20000032D0000048D0007100000352402    GGSL
NJARET21010-33200-94182-80002738D0027448D006440064494182     GGSL
NJARET21010-33200-97242-60000012D0000095D002180000097242     GGSL
NJARET21010-33200-97457-40000822D0008557D000840008497457     GGSL
NJARET21010-33349-00130-80002808D0000337D0000200001JP3BULK   GGSL
NJARET21010-33349-03110-70003034D0004219D0011300015JP310     GGSL
NJARET21010-33349-05042-90000360D0001698D0000600006J324      GGSL
NJARET21010-33349-05047-40000048D0000274D0000100000J6R16     GGSL
NJARET21010-33349-05048-10000192D0000782D0000000000J3R36     GGSL
NJARET21010-33349-05082-50000480D0001485D0005500002JP506     GGSL
NJARET21010-33349-05618-60001848D0009729D0003600017G310      GGSL
NJARET21010-33349-07750-10000609D0001994D0002200001J4R25     GGSL
NJARET21010-33349-41211-10001804D0001981D0005100009JP212     GGSL
NJARET21010-33349-41214-20001072D0002236D0003100008JP226     GGSL
NJARET21010-33349-41221-00001300D0002633D0004000001TDOME     GGSL
NJARET21010-33349-41234-00002400D0004014D0004000005TTRAY     GGSL
NJARET21010-33349-41238-80000840D0003961D0001500008T32       GGSL
NJARET21010-33349-41251-70000990D0002992D0002700004JS50      GGSL
NJARET21010-33349-41254-80001340D0004050D0004200005JS32      GGSL
NJARET21010-33349-41258-60000264D0000487D0000400004TR72      GGSL
NJARET21010-33349-41318-70001026D0003060D0003300007JP322     GGSL
NJARET21010-33349-41444-30001056D0000213D0001400000JP4BULK   GGSL
NJARET21010-33349-41444-30001848D0004190D0004700008JP406     GGSL
NJARET21010-33349-41620-10000246D0001907D0005500001G316      GGSL
NJARET21010-33349-41701-70008000D0000967D0002100000J4BULK    GGSL
NJARET21010-33349-41710-90001224D0003885D0003100007J312      GGSL
NJARET21010-33349-65140-40000136D0000408D0000100001J410      GGSL
NJARET21010-33349-65153-40000060D0000378D0000400002G312      GGSL
NJARET21010-33349-65205-00000088D0000794D0000200002T34H      GGSL
NJARET21010-33349-65220-30000016D0000253D0000700006JH48      GGSL
NJARET21010-33349-66003-10000420D0004295D0001100003J372ST20  GGSL
NJARET21010-33349-66005-50000400D0003325D0000800001J425ST16  GGSL
NJARET21010-33349-66006-20000040D0000420D0000400002J450ST20  GGSL
NJARET21010-33349-66007-90000088D0000702D0000200001J616ST11  GGSL
NJARET21010-33349-66008-60000120D0001717D0001800002J636ST10  GGSL
NJARET21010-33349-66009-30001862D0011876D0012700013T72HST14  GGSL
NJARET21010-33349-66010-90000688D0005476D0003700007TS50HST16 GGSL
NJARET21010-33349-66015-40000658D0003872D0000900002TS20HST14 GGSL
NJARET21010-33349-66016-10000602D0003785D0002900007TS32HST14 GGSL
NJARET21010-33607-00003-60000012D0000358D0002100000EDGE180   GGSL
NJARET21010-33607-00304-40000012D0000141D0000000000TT4T      GGSL
NJARET21010-33607-00320-40000026D0002789D0001900009TTMIX124  GGSL
NJARET21010-33607-00702-80000012D0000218D0000200000RD2       GGSL
NJARET21010-33607-00703-50000006D0000115D0000100000RP3       GGSL
NJARET21010-33607-00704-20000012D0000161D0002200000REA4      GGSL
NJARET21010-33607-00978-70000002D0000493D0000000000LTASST12  GGSL
NJARET21010-33607-01208-40000042D0000725D0001700002LT8       GGSL
NJARET21010-33607-01220-60000006D0000143D0000300003LT20      GGSL
NJARET21010-33607-22000-70000060D0000659D0005500005HCWM1     GGSL
NJARET21010-33607-22004-50000004D0000100D0000500000D6C       GGSL
NJARET21010-33607-22005-20000020D0000502D0000200001HC2       GGSL
NJARET21010-33607-22006-90000020D0000502D0000500004HBE6      GGSL
NJARET21010-33607-22010-60000024D0000792D0003000004HCF3      GGSL
NJARET21010-33607-22075-50000007D0000672D0000400004HTC1      GGSL
NJARET21010-33607-22125-70000012D0001335D0003500002HT2EZ     GGSL
NJARET21010-33607-22250-60000009D0001202D0002700004HT4EZ     GGSL
NJARET21010-33607-22255-10000002D0000299D0000600006HT4TURN   GGSL
NJARET21010-33607-22310-70000020D0000570D0000200000BPL6      GGSL
NJARET21010-33607-22310-70000006D0000047D0000900000HG18      GGSL
NJARET21010-33607-22550-70000004D0000377D0000000000SRWM180   GGSL
NJARET21010-33607-51000-90000004D0000127D0000000000RKT1000   GGSL
NJARET21010-33607-51200-30000004D0000188D0001100000RC3       GGSL
NJARET21010-33607-51300-00000008D0000228D0000100000TNT4      GGSL
NJARET21010-33607-52100-50000008D0000377D0001900000GKS2      GGSL
NJARET21010-33745-97185-40000025D0000747D003330000097185X    GGSL
NJARET21010-34411-00001-40000072D0000145D00000000008010241002GGSL
NJARET21010-34411-00011-30000048D0000057D00000000008011341002GGSL
NJARET21010-34411-00012-00000084D0000109D00000000008010041002GGSL
NJARET21010-34411-00017-50000060D0000158D00000000008001741002GGSL
NJARET21010-34411-00018-20000072D0000064D00010000038013641001GGSL
NJARET21010-34411-00165-30000036D0000170D00001000008010141001GGSL
NJARET21010-34411-00775-40000006D0000040D00001000008177531001GGSL
NJARET21010-34411-00832-40000006D0000036D00012000008083231002GGSL
NJARET21010-34411-01076-10000020D0000330D00010000018006041001GGSL
NJARET21010-34411-01173-70000005D0000160D00004000048167731011GGSL
NJARET21010-34411-02844-50000018D0000126D00000000008220031011GGSL
NJARET21010-34411-02974-90000072D0000311D00000000008311041001GGSL
NJARET21010-34411-02975-60000060D0000293D00000000008312041001GGSL
NJARET21010-34411-02981-70000048D0000324D00000000008313041001GGSL
NJARET21010-34411-03134-60000024D0000248D00006000048201921001GGSL
NJARET21010-34411-05711-70000200D0001130D0009300053 571TFR   GGSL
NJARET21010-34411-08762-60000010D0000043D00000000008876031001GGSL
NJARET21010-34411-11208-30000002D0000122D00000000008437511002GGSL
NJARET21010-34411-12528-10000012D0000087D00002000028528121001GGSL
NJARET21010-34411-18845-30000008D0000061D00018000008883031012GGSL
NJARET21010-34411-60158-70000012D0000177D00000000008292511002GGSL
NJARET21010-34411-74001-90000005D0000240D0000000000 874001101GGSL
NJARET21010-34411-74501-40000066D0001892D00016000068745011002GGSL
NJARET21010-34411-92773-10000096D0000752D00019000028702511001GGSL
NJARET21010-34411-92774-80000096D0001164D00003000028705011001GGSL
NJARET21010-34411-92775-50000120D0001946D00003000028707511001GGSL
NJARET21010-34517-15025-00000022D0000210D0000000000GMC10L    GGSL
NJARET21010-34613-00002-70000006D0000135D0000000000LH002     GGSL
NJARET21010-34613-00006-50000006D0000147D0000300000LH006     GGSL
NJARET21010-34613-00011-90000012D0000103D0001600000LH011     GGSL
NJARET21010-34613-00013-30000012D0000103D0000000000LH013     GGSL
NJARET21010-34613-00015-70000024D0000300D0000100001LH015     GGSL
NJARET21010-34613-00017-10000012D0000103D0000000000LH017     GGSL
NJARET21010-34613-00020-10000006D0000135D0000000000LH020     GGSL
NJARET21010-34613-00043-00000006D0000100D0000000000LH043     GGSL
NJARET21010-34613-00048-50000012D0000153D0000200002TP48      GGSL
NJARET21010-34613-00060-70000018D0000251D0000500005TP60      GGSL
NJARET21010-34613-00068-30000024D0000388D000240000168WP      GGSL
NJARET21010-34613-00072-00000018D0000293D0000100001TP72      GGSL
NJARET21010-34613-00127-70000006D0000093D0000100000LH127     GGSL
NJARET21010-34613-00128-40000006D0000093D0000000000LH128     GGSL
NJARET21010-34613-00132-10000012D0000166D0000000000LH132     GGSL
NJARET21010-34613-00133-80000006D0000082D0000000000LH133     GGSL
NJARET21010-34613-00351-60000024D0000110D0000300001351       GGSL
NJARET21010-34613-00402-50000012D0000066D0000200002402       GGSL
NJARET21010-34613-00403-20000012D0000060D0000000000403       GGSL
NJARET21010-34613-00405-60000012D0000023D0000000000CVS405    GGSL
NJARET21010-34613-00406-30000036D0000086D0000000000CVS406    GGSL
NJARET21010-34613-00407-00000036D0000155D0000000000CVS407    GGSL
NJARET21010-34613-00409-40000024D0000133D0000000000CVS409    GGSL
NJARET21010-34613-00411-70000012D0000120D0000000000CVS411    GGSL
NJARET21010-34613-00412-40000012D0000128D0000000000CVS412    GGSL
NJARET21010-34613-00425-40000050D0000549D0000100001425       GGSL
NJARET21010-34613-00440-70000120D0000666D0000100000440HD     GGSL
NJARET21010-34613-00446-90000024D0000120D0000000000446       GGSL
NJARET21010-34613-00550-30000084D0000291D0000300003550BL     GGSL
NJARET21010-34613-00551-00000084D0000291D0000500005551BL     GGSL
NJARET21010-34613-00552-70000120D0000415D0000300003552BL     GGSL
NJARET21010-34613-00553-40000156D0000540D0000400004553BL     GGSL
NJARET21010-34613-00640-10000080D0000733D0000100001640HD     GGSL
NJARET21010-34613-00775-00000036D0000072D0004900001775       GGSL
NJARET21010-34613-00777-40000084D0000186D0000000000777       GGSL
NJARET21010-34613-00802-30000020D0000020D0000200003SS2       GGSL
NJARET21010-34613-00803-00000020D0000022D0000300003SS3       GGSL
NJARET21010-34613-00804-70000020D0000032D0000300003SS4       GGSL
NJARET21010-34613-00805-40000060D0000111D0000700005SS5       GGSL
NJARET21010-34613-00809-20000030D0000019D0001400012SS6HD     GGSL
NJARET21010-34613-00820-70000024D0000207D0000100000820       GGSL
NJARET21010-34613-00831-30000040D0000160D0000200002SFS4      GGSL
NJARET21010-34613-00832-00000015D0000240D0000100001SFS6      GGSL
NJARET21010-34613-00834-40000010D0000190D0000200002SFS8      GGSL
NJARET21010-34613-00835-10000040D0000328D0000300003SFS5      GGSL
NJARET21010-34613-00860-30000012D0000233D0000500000860       GGSL
NJARET21010-34613-01150-40000060D0000231D00008000021150PDQ   GGSL
NJARET21010-34613-01151-10000020D0000123D00000000001151PDQ   GGSL
NJARET21010-34613-01161-00000108D0000351D00000000001161PDQ   GGSL
NJARET21010-34613-01180-10000072D0000190D00003000031180PDQ   GGSL
NJARET21010-34613-01182-50000048D0000116D00001000001182      GGSL
NJARET21010-34613-01502-10000252D0000446D00007000071502      GGSL
NJARET21010-34613-01503-80000204D0000361D00019000191503      GGSL
NJARET21010-34613-01505-20000060D0000106D00000000001505      GGSL
NJARET21010-34613-01901-20000012D0000104D00009000001901      GGSL
NJARET21010-34613-01902-90000084D0000728D00001000011902      GGSL
NJARET21010-34613-01903-60000216D0001873D00005000051903      GGSL
NJARET21010-34613-01906-70000024D0000316D00001000011906      GGSL
NJARET21010-34613-01908-10000024D0000210D00000000001908      GGSL
NJARET21010-34613-03104-50000108D0001044D00004000033104      GGSL
NJARET21010-34613-03110-60000018D0000141D00001000013110      GGSL
NJARET21010-34613-03124-30000072D0000906D00000000003124      GGSL
NJARET21010-34613-03603-30000015D0000106D0000400002U3603     GGSL
NJARET21010-34613-04532-50000084D0000932D00158000024532      GGSL
NJARET21010-34613-04533-20000324D0002618D00090000054533SP    GGSL
NJARET21010-34613-04803-60000030D0000246D0000000000U4803     GGSL
NJARET21010-34613-04830-20000090D0001085D00004000024830      GGSL
NJARET21010-34613-04850-00000006D0000058D00000000003104BL    GGSL
NJARET21010-34613-04853-10000048D0000476D00002000024853BL    GGSL
NJARET21010-34613-04855-50000012D0000198D00000000008402BL    GGSL
NJARET21010-34613-04856-20000012D0000058D00000000008131BL    GGSL
NJARET21010-34613-04859-30000006D0000069D00001000003378BL    GGSL
NJARET21010-34613-04862-30000024D0000207D0000400000LH013BL   GGSL
NJARET21010-34613-04863-00000048D0000414D0001600000LH014BL   GGSL
NJARET21010-34613-04864-70000036D0000310D0000600000LH016BL   GGSL
NJARET21010-34613-04870-80000024D0000300D0000900000LH015BL   GGSL
NJARET21010-34613-04871-50000012D0000129D00000000002124BL    GGSL
NJARET21010-34613-04879-10000012D0000189D00003000024879BL    GGSL
NJARET21010-34613-05017-60000120D0001349D00001000015017BL    GGSL
NJARET21010-34613-05826-40000012D0000176D00005000005826      GGSL
NJARET21010-34613-05945-20000018D0000429D00015000005945      GGSL
NJARET21010-34613-06349-70000072D0000235D00023000036349      GGSL
NJARET21010-34613-06350-30000048D0000224D00005000006350      GGSL
NJARET21010-34613-06352-70001302D0010732D00238000066352      GGSL
NJARET21010-34613-06353-40000054D0000910D00161000026353      GGSL
NJARET21010-34613-06354-10000402D0003766D00067000056354      GGSL
NJARET21010-34613-06355-80000732D0006663D00308000076355      GGSL
NJARET21010-34613-06385-50000192D0001770D00033000386385      GGSL
NJARET21010-34613-06586-60000024D0000412D00001000006586      GGSL
NJARET21010-34613-06790-70000024D0000384D00015000066790      GGSL
NJARET21010-34613-06793-80000150D0000471D00032000086793      GGSL
NJARET21010-34613-06794-50000036D0000294D00006000066794      GGSL
NJARET21010-34613-06796-90000048D0000626D00001000016796      GGSL
NJARET21010-34613-07029-70000024D0000086D00001000016439SP    GGSL
NJARET21010-34613-07108-90000072D0000233D00017000027108      GGSL
NJARET21010-34613-07156-00000012D0000171D00003000007156BL    GGSL
NJARET21010-34613-07160-70000012D0000078D00000000007160BL    GGSL
NJARET21010-34613-07163-80000012D0000078D00001000007163BL    GGSL
NJARET21010-34613-07179-90000060D0000908D00108000117179      GGSL
NJARET21010-34613-07180-50000108D0001823D00207000137180      GGSL
NJARET21010-34613-07278-90000132D0000800D00046000057278SP    GGSL
NJARET21010-34613-07835-40000006D0000047D00000000002110BL    GGSL
NJARET21010-34613-08131-60000012D0000058D00001000018131      GGSL
NJARET21010-34613-08446-10000024D0000388D0001900004BF24      GGSL
NJARET21010-34613-09501-60000024D0000361D00013000009501      GGSL
NJARET21010-34613-09509-20000012D0000058D00000000009509      GGSL
NJARET21010-34613-09580-10000024D0000121D00004000009580BL    GGSL
NJARET21010-34613-09629-70000012D0000136D00000000009629      GGSL
NJARET21010-34613-11021-40000004D0000197D000040000011021BL   GGSL
NJARET21010-34613-11023-80000004D0000197D000000000011023BL   GGSL
NJARET21010-34613-12060-20000018D0000381D00003000002060N     GGSL
NJARET21010-34613-34006-20000200D0000066D0000700003CVS006    GGSL
NJARET21010-34613-34008-60000125D0000059D0000200002CVS008    GGSL
NJARET21010-34613-34010-90000100D0000071D0000400004CVS010    GGSL
NJARET21010-34613-34012-30000025D0000028D0000700001CVS012    GGSL
NJARET21010-34613-65679-80000001D0000041D000000000065679     GGSL
NJARET21010-34613-66637-70000002D0000474D000410000066637     GGSL
NJARET21010-34613-70029-30000020D0000029D000000000070029     GGSL
NJARET21010-34613-70159-70000006D0000072D00000000007159BL    GGSL
NJARET21010-34613-70230-30000012D0000063D000000000070230BL   GGSL
NJARET21010-34613-70694-30000024D0000384D000000000070694BL   GGSL
NJARET21010-34613-70709-40000012D0000026D000080000070709     GGSL
NJARET21010-34613-70734-60000018D0000199D000000000070734BL   GGSL
NJARET21010-34613-70791-90000005D0000168D000000000070285BL   GGSL
NJARET21010-34613-94006-40000024D0000179D000030000394006     GGSL
NJARET21010-34613-96006-20000024D0000253D000000000096006     GGSL
NJARET21010-35000-05361-90001340D0000929D0008300083105375    GGSL
NJARET21010-35000-05364-00007656D0007971D0000000000105374    GGSL
NJARET21010-35000-14112-50000042D0000208D000530005314477     GGSL
NJARET21010-35000-14328-00000084D0000416D000100001014483     GGSL
NJARET21010-35000-14424-90000396D0000416D000170000014424     GGSL
NJARET21010-35000-44558-20000292D0001527D0002700027US04121A  GGSL
NJARET21010-35000-44627-50002760D0002898D0006000008144630    GGSL
NJARET21010-35000-44673-20002160D0003357D000010000144673     GGSL
NJARET21010-35000-44678-70000531D0000797D000210000044678     GGSL
NJARET21010-35000-45038-50001341D0002883D0000000000US04232A  GGSL
NJARET21010-35000-45041-50000081D0000174D0000000000US04229A  GGSL
NJARET21010-35000-45072-20000468D0001811D0000000000US04274A  GGSL
NJARET21010-35000-45329-70000264D0001085D0000000000US04574A  GGSL
NJARET21010-35000-46157-50000004D0000026D000090000046157     GGSL
NJARET21010-35000-47805-40000441D0001041D000000000047805     GGSL
NJARET21010-35000-49874-80000020D0000082D000720000049874     GGSL
NJARET21010-35000-53030-10000498D0001419D0006000000153043    GGSL
NJARET21010-35000-53032-50000798D0002170D0006800047153041    GGSL
NJARET21010-35000-53060-80000012D0000058D000610001153060     GGSL
NJARET21010-35000-53063-90000660D0000891D000190000053063     GGSL
NJARET21010-35000-53099-80000480D0001104D000620006253099     GGSL
NJARET21010-35000-53122-30001833D0011118D000910009153122     GGSL
NJARET21010-35000-55190-00000036D0000108D0002300023155190    GGSL
NJARET21010-35000-97018-30000952D0006322D0000000000US06329A  GGSL
NJARET21010-35000-97336-80000844D0005410D0000000000US06516A  GGSL
NJARET21010-35110-01900-00000320D0002784D000000000001900     GGSL
NJARET21010-35110-01903-10000964D0010165D000000000101903     GGSL
NJARET21010-35110-04915-10000092D0000881D000640006104915     GGSL
NJARET21010-35307-00402-40000048D0000178D0000000000402       GGSL
NJARET21010-35307-00404-80000048D0000178D0000000000404       GGSL
NJARET21010-35307-00650-90000010D0000074D0000000000A650      GGSL
NJARET21010-35307-00781-00000108D0000964D0001600001781       GGSL
