TXBWIC2101Z-ZSC11-121DI- 0000001D0000424D000000000011121     GGSL
TXBWIC21010-00402-00000-00001620D0024104D0360900804          GGSL
TXBWIC21010-00402-01012-60000053D0004697D00483000131012      GGSL
TXBWIC21010-00402-01014-00000794D0045713D01638003881014      GGSL
TXBWIC21010-00402-01499-50000200D0000898D0050000010144SS     GGSL
TXBWIC21010-00402-02419-20000014D0000262D000930000510XS-20   GGSL
TXBWIC21010-00402-02699-50000640D0000602D006200006010XS-20B  GGSL
TXBWIC21010-00402-02750-60000350D0001262D0130000200B75       GGSL
TXBWIC21010-00402-02754-40000025D0000101D0000000000B75D      GGSL
TXBWIC21010-00402-05418-20000200D0000480D00575000755418      GGSL
TXBWIC21010-00402-10142-80000773D0039906D011580034310145B    GGSL
TXBWIC21010-00402-10512-90000042D0000088D000080000010ESB     GGSL
TXBWIC21010-00402-11730-60000125D0000483D002000000011730     GGSL
TXBWIC21010-00402-11766-50000025D0000043D0000000000117FP     GGSL
TXBWIC21010-00402-14282-70000030D0000199D000000001014TRSB    GGSL
TXBWIC21010-00402-14312-10000055D0000208D000050000814CSB     GGSL
TXBWIC21010-00402-14319-00000010D0000031D000140002814CS      GGSL
TXBWIC21010-00402-14492-00000030D0000135D0000000010144SSB    GGSL
TXBWIC21010-00402-22275-80000100D0000019D0000000050VSCH7-5   GGSL
TXBWIC21010-00402-33117-70001900D0000609D0245000625PC11-7    GGSL
TXBWIC21010-00402-33354-60003625D0000468D0840000150PC5-4     GGSL
TXBWIC21010-00402-33375-10005275D0000992D1027501025PC7-5     GGSL
TXBWIC21010-00402-44117-30000375D0000143D0000000225PLCD 11-7 GGSL
TXBWIC21010-00402-44475-40000325D0000218D0000000000PLCD 7-5  GGSL
TXBWIC21010-00402-91012-90000030D0002169D00000000001012 BK   GGSL
TXBWIC21010-00402-91014-30000030D0001617D00048000701014 BLACKGGSL
TXBWIC21010-01850-60960-00000011D0006577D00000000139600      GGSL
TXBWIC21010-02800-91501-30000375D0001789D00000000751501      GGSL
TXBWIC21010-10367-00110-70001950D0011371D0262202166110       GGSL
TXBWIC21010-10367-00130-50000146D0007343D0006000066130.0     GGSL
TXBWIC21010-10367-00150-30000066D0001694D0000000007150.0     GGSL
TXBWIC21010-10367-00180-00000024D0000075D0000000000180.0     GGSL
TXBWIC21010-10367-00300-20000012D0000093D0000000012ML0300    GGSL
TXBWIC21010-10367-00460-30000096D0000437D0038400032ML0460 8  GGSL
TXBWIC21010-10367-00530-30000015D0000581D0000900001530.0     GGSL
TXBWIC21010-10367-00560-00000648D0001994D0068800048ML0560 8  GGSL
TXBWIC21010-10367-00810-60000312D0001532D0042000516ML0810    GGSL
TXBWIC21010-10367-01000-00000348D0003402D0003600060ML1000    GGSL
TXBWIC21010-10367-01010-90000300D0003358D0010800048ML1010    GGSL
TXBWIC21010-10367-01020-80000288D0003546D0012000060ML1020    GGSL
TXBWIC21010-10367-01050-50000192D0001699D0001200036ML1050    GGSL
TXBWIC21010-10367-01110-60000136D0000410D00024000081110      GGSL
TXBWIC21010-10367-01111-30000144D0000439D00056000161111.0    GGSL
TXBWIC21010-10367-01112-00000152D0000444D00072000081112.0    GGSL
TXBWIC21010-10367-01120-50000352D0000889D00168000321120.0    GGSL
TXBWIC21010-10367-01121-20000040D0000206D00000000321121.0    GGSL
TXBWIC21010-10367-01122-90000008D0000041D00000000001122.0    GGSL
TXBWIC21010-10367-01130-40000120D0000616D00000000161130.0    GGSL
TXBWIC21010-10367-01140-30000112D0000308D00000000241140.0    GGSL
TXBWIC21010-10367-01151-90000048D0000132D0000800016ML1151    GGSL
TXBWIC21010-10367-01160-10000008D0000055D00000000081160.0    GGSL
TXBWIC21010-10367-01161-80000016D0000110D00000000081161.0    GGSL
TXBWIC21010-10367-01162-50000048D0000329D00048000161162.0    GGSL
TXBWIC21010-10367-01210-30000096D0001104D00000000001210.0    GGSL
TXBWIC21010-10367-01240-00000216D0001242D00012000721240.0    GGSL
TXBWIC21010-10367-02121-10000040D0000140D0000800016ML2121    GGSL
TXBWIC21010-10367-02131-00000072D0000251D0000800008ML2131    GGSL
TXBWIC21010-10367-02141-90000072D0000251D0000800008ML2141    GGSL
TXBWIC21010-10367-02151-80000032D0000220D0000000008ML2151    GGSL
TXBWIC21010-10367-02161-70000008D0000050D0000000000ML2161    GGSL
TXBWIC21010-10367-02162-40000024D0000150D0000000008ML2162    GGSL
TXBWIC21010-10367-02171-60000008D0000050D0000000000ML2171    GGSL
TXBWIC21010-10367-02181-50000056D0000383D0000000008ML2181    GGSL
TXBWIC21010-10367-03010-70000024D0000129D0012800008ML3010    GGSL
TXBWIC21010-10367-03020-60000016D0000086D0000800016ML3020    GGSL
TXBWIC21010-10367-21631- 0000048D0000299D0000000000ML2163    GGSL
TXBWIC21010-11247-00000-00003260C0000299C0016000000CPK0225   GGSL
TXBWIC21010-11247-00250-40000010D0000354D001320000300640     GGSL
TXBWIC21010-11247-00913-80000003D0000244D000000000400913     GGSL
TXBWIC21010-11247-01050-90000006D0000068D000010000001050     GGSL
TXBWIC21010-11247-01541-20000001D0000036D000150001401541     GGSL
TXBWIC21010-11247-01841-30000001D0000033D000000000001841     GGSL
TXBWIC21010-11247-04525-90000107D0002605D002910081504525     GGSL
TXBWIC21010-11247-05350-60000014D0000658D000220000005350     GGSL
TXBWIC21010-11247-05450-30000023D0000924D001220002905450     GGSL
TXBWIC21010-11247-11024-70000084D0000448D000000009611024     GGSL
TXBWIC21010-11247-13010-80000096D0000313D000480000013010     GGSL
TXBWIC21010-11247-16004-20000198D0001188D003240008416004     GGSL
TXBWIC21010-11247-20103-70000012D0000084D000000000620103     GGSL
TXBWIC21010-11247-25004-20000006D0000040D000000000025004     GGSL
TXBWIC21010-11247-26001-00000060D0000286D000000001226001     GGSL
TXBWIC21010-11247-30004-40000330D0002161D002040015030004     GGSL
TXBWIC21010-11247-48024-10000012D0000060D000120002448020     GGSL
TXBWIC21010-11247-52813-40000011D0000153D000000001352813     GGSL
TXBWIC21010-11247-52824-00000006D0000034D000000000052824     GGSL
TXBWIC21010-11247-52825-70000111D0001853D001000000052825     GGSL
TXBWIC21010-11247-52826-40000012D0000059D000000000052826     GGSL
TXBWIC21010-11247-52829-50000018D0000174D000300001852829     GGSL
TXBWIC21010-11247-52861-50000012D0000143D000000000052861     GGSL
TXBWIC21010-11247-52876-90000024D0000108D000000000052876     GGSL
TXBWIC21010-11247-52880-60000042D0000223D000000002452880     GGSL
TXBWIC21010-11247-52881-30000045D0000730D000000000052881     GGSL
TXBWIC21010-11247-52888-20000111D0000565D000870004552888     GGSL
TXBWIC21010-11247-52889-90000061D0000762D002270001052889     GGSL
TXBWIC21010-11247-60116-50000006D0000060D001490000060116     GGSL
TXBWIC21010-11247-61024-20001134D0006789D006930046861024     GGSL
TXBWIC21010-11247-71016-40000072D0000552D000000014471001     GGSL
TXBWIC21010-11247-71128-40000008D0000140D000000003271128     GGSL
TXBWIC21010-11247-72020-00000046D0000708D000000000072020     GGSL
TXBWIC21010-11247-90128-90000012D0000113D000040000090128     GGSL
TXBWIC21010-11423-94127-60000042D0000189D0065800048HG-64127  GGSL
TXBWIC21010-14021-00337-70000002D0000128D00000000002000      GGSL
TXBWIC21010-14021-00732-00000001D0000068D00000000007110      GGSL
TXBWIC21010-14021-01412-00000003D0000372D00000000001024      GGSL
TXBWIC21010-14021-01415-10000078D0000403D00000000001000      GGSL
TXBWIC21010-14021-02943-80000002D0000494D00000000001046      GGSL
TXBWIC21010-15966-49430-10000015D0000216D000130000449 00 430 GGSL
TXBWIC21010-16069-00001-10000024D0000142D0000000000NE-SR     GGSL
TXBWIC21010-16069-00002-80000036D0000213D0000000000NE-OR     GGSL
TXBWIC21010-16069-00005-90000264D0001437D0019800120TP-15C    GGSL
TXBWIC21010-16069-00007-30000144D0000770D0015900060BN-1      GGSL
TXBWIC21010-16069-00008-00000441D0002306D0059700780BN-2      GGSL
TXBWIC21010-16069-00013-40000096D0001981D0004400032BN-3      GGSL
TXBWIC21010-16069-00014-10000030D0000466D0005000006BN-4      GGSL
TXBWIC21010-16069-00015-80000012D0000284D0004400006BN-5      GGSL
TXBWIC21010-16069-00019-60000060D0000510D0000000000TP-30C    GGSL
TXBWIC21010-16069-00030-10000030D0000339D0015600012OW-6      GGSL
TXBWIC21010-16069-00047-90000024D0000142D0000000000TE-12C    GGSL
TXBWIC21010-16069-00049-30000036D0000483D0006600012DX-7      GGSL
TXBWIC21010-16069-00060-80000015D0000037D0000000000RAP-15    GGSL
TXBWIC21010-16069-00072-10000012D0000073D0000000012TSD-12    GGSL
TXBWIC21010-16069-00145-20000004D0000078D0000000000RHO-4     GGSL
TXBWIC21010-16069-00218-30000084D0000418D0000000048HST-100   GGSL
TXBWIC21010-16069-00365-40000018D0000212D0004500000PIN-9     GGSL
TXBWIC21010-16069-00436-10000015D0000035D0000000000TWST-100  GGSL
TXBWIC21010-16069-00473-30000009D0003807D0000000014MIXO-30MP GGSL
TXBWIC21010-16069-00478-00000004D0000138D0000000000SRHO-4    GGSL
TXBWIC21010-16069-00504-70000060D0000120D0000000030TG1-3W    GGSL
TXBWIC21010-16069-00507-80000012D0000106D0000000000TPSM-15   GGSL
TXBWIC21010-16069-00518-40000012D0000049D0000000000SG25-12   GGSL
TXBWIC21010-16069-00527-60000001D0000111D0000000000SG13-4    GGSL
TXBWIC21010-16069-00531-00000015D0007079D0000000016GCM-BDO   GGSL
TXBWIC21010-16069-00597-90000006D0000474D0000000000BTK-6     GGSL
TXBWIC21010-16069-00626-60000020D0000106D0000000000PTG2-10   GGSL
TXBWIC21010-16069-00667-90000124D0002334D0037200156RHO-4US   GGSL
TXBWIC21010-18506-00000-00000165D0002334D01260002000111-5    GGSL
TXBWIC21010-18506-00010-30000078D0000533D0026300288010-6     GGSL
TXBWIC21010-18506-00021-90000006D0000081D0026700000021-6     GGSL
TXBWIC21010-18506-00102-50000036D0000140D0054000000102-12    GGSL
TXBWIC21010-18506-00110-50000507D0003214D0115700444110-12    GGSL
TXBWIC21010-18506-00116-20000276D0001711D0063000591116-12    GGSL
TXBWIC21010-18506-00117-90000119C0001711C0090600690117-6     GGSL
TXBWIC21010-18506-00125-40000036D0000184D0039600000125       GGSL
TXBWIC21010-18506-00130-80000012D0000068D0018000012130       GGSL
TXBWIC21010-22179-10005-30000012D0000205D0000000000lg 5129   GGSL
TXBWIC21010-22179-10011-40000018D0000153D0000000000lg 3104   GGSL
TXBWIC21010-22179-10034-30000024D0000768D0000000060lg 5137   GGSL
TXBWIC21010-22179-10035-00000072D0003562D0016600026LG4110    GGSL
TXBWIC21010-22179-10084-80000084D0000646D0001800138LG7220    GGSL
TXBWIC21010-22179-10089-30000012D0000092D0000000000lg5285    GGSL
TXBWIC21010-22179-10090-90000054D0001282D0001500024LG4300    GGSL
TXBWIC21010-22179-10109-80000078D0001006D0005400006lg 5146   GGSL
TXBWIC21010-22179-10110-40000006D0000144D0000000000lg 5149   GGSL
TXBWIC21010-22179-10115-90000036D0000540D0004200008lg 5599   GGSL
TXBWIC21010-22179-10117-30000060D0000276D0000000000LG1105    GGSL
TXBWIC21010-22179-10124-10000372D0001855D0080400138LG6515    GGSL
TXBWIC21010-22179-10133-30000054D0000533D0000000000lg 4102   GGSL
TXBWIC21010-22179-10138-80000024D0000059D0007200000LG 1125   GGSL
TXBWIC21010-22179-10139-50000204D0000867D0030600024LG1130    GGSL
TXBWIC21010-22179-10140-10000005D0000636D0009600001LG6520    GGSL
TXBWIC21010-22179-10150-00000204D0001976D00252008327115      GGSL
TXBWIC21010-22179-10151-70000047D0001805D00306000007117      GGSL
TXBWIC21010-22179-10164-70000024D0000110D0000000012LG1140    GGSL
TXBWIC21010-22179-10185-20000249D0002563D0061800078LG6500    GGSL
TXBWIC21010-22179-10230-90000012D0000053D0001200000LG8800    GGSL
TXBWIC21010-22179-10234-70000012D0000087D0000000000LG8610    GGSL
TXBWIC21010-22179-10239-20000024D0001650D0000000000LG6155    GGSL
TXBWIC21010-22179-10246-00000543D0007628D0031201422LG6570    GGSL
TXBWIC21010-22179-10247-70000255D0004998D00180004177122      GGSL
TXBWIC21010-22179-10248-40000312D0002239D0074100108LG6575    GGSL
TXBWIC21010-22179-10269-90000024D0000116D0000000000LG8900    GGSL
TXBWIC21010-22179-10289-70000012D0000146D0000000000LG8920    GGSL
TXBWIC21010-22179-10295-80000024D0000524D0000000000LG6138    GGSL
TXBWIC21010-22179-10327-60000036D0000256D0000000024LG6148    GGSL
TXBWIC21010-22179-10331-30000012D0000121D0000000006lg 6382   GGSL
TXBWIC21010-22179-10363-40000024D0000152D0000000000LG6232    GGSL
TXBWIC21010-22179-10365-80000114D0000742D0000600012lg 7129   GGSL
TXBWIC21010-22179-10366-50000012D0000099D0000600000LG7262    GGSL
TXBWIC21010-22179-10376-40000016D0000260D0000000000LG6292    GGSL
TXBWIC21010-22179-10378-80000006D0000040D0000000000lg6274    GGSL
TXBWIC21010-22179-10390-00000180D0001506D0008700351LG6332    GGSL
TXBWIC21010-22179-10391-70000060D0000775D0000000024LG6336    GGSL
TXBWIC21010-22179-10395-50000024D0000688D0014300002LG6356    GGSL
TXBWIC21010-22179-10399-30000048D0000272D0008400480LG7198    GGSL
TXBWIC21010-22179-10406-80000012D0000589D0003200004LG 6344   GGSL
TXBWIC21010-22179-10408-20000312D0002356D0021600936LG 6338   GGSL
TXBWIC21010-22179-10428-00000012D0000111D0000000000LG6222    GGSL
TXBWIC21010-22179-10429-70000120D0001781D0001200636LG6334    GGSL
TXBWIC21010-22179-10443-30000030D0000244D0000000000LG3370    GGSL
TXBWIC21010-22179-10454-90000270D0002544D0005700222lg 3303   GGSL
TXBWIC21010-22179-10458-70000060D0000516D0041100012lg 3234   GGSL
TXBWIC21010-22179-10459-40000012D0000134D0000000000lg3235    GGSL
TXBWIC21010-22179-10462-40000012D0000092D0000000000LG1142    GGSL
TXBWIC21010-22179-10492-10000006D0000096D0000000000lg 5225   GGSL
TXBWIC21010-22179-10499-00000006D0000069D0000600000LG9250    GGSL
TXBWIC21010-22179-10509-60000024D0000152D0000000006lg6172    GGSL
TXBWIC21010-22179-10517-10000024D0000474D0000000000lg 3176   GGSL
TXBWIC21010-22179-10519-50000012D0000161D0000600006lg 6544   GGSL
TXBWIC21010-22179-10520-10000012D0000082D0002400024lg 6542   GGSL
TXBWIC21010-22401-00110-30000002D0000100D0000000000MDC-20    GGSL
TXBWIC21010-22401-00115-80000120D0004851D0023000006MDC-15    GGSL
TXBWIC21010-22401-00301-50000016D0000157D0002500000THD-20    GGSL
TXBWIC21010-22401-00380-10000092D0001242D0002000564NDETC-20MCGGSL
TXBWIC21010-22401-00381-70000088D0001188D0000400240NDETC-2OLBGGSL
TXBWIC21010-22401-00721-10000001D0000066D0000000000DBR-20    GGSL
TXBWIC21010-22401-10087-50000002D0000058D0000100000EAR-20TMC GGSL
TXBWIC21010-22401-10088-20000050D0001124D0008400000EAR-60    GGSL
TXBWIC21010-23626-00605-80003980D0035454D0803202588116334    GGSL
TXBWIC21010-23626-00615-70003415D0033621D1149801218116336    GGSL
TXBWIC21010-23626-00630-00001472D0018681D0278700396116341    GGSL
TXBWIC21010-23626-00650-80000180D0000611D0041400000000600    GGSL
TXBWIC21010-23626-00860-10000124D0000963D0000000000116348    GGSL
TXBWIC21010-23626-01710-80000210D0001060D0089100060800       GGSL
TXBWIC21010-23626-01720-70000207D0001364D0089400132000900    GGSL
TXBWIC21010-23626-02830-20000002D0000087D0002900000116841    GGSL
TXBWIC21010-23626-07002-80000040D0000683D0000000040112825    GGSL
TXBWIC21010-23883-00001-10000595D0009124D0104700180G362      GGSL
TXBWIC21010-23883-00002-80000117D0000465D0024900228G385      GGSL
TXBWIC21010-23883-00003-50000216D0000840D0048000006G390      GGSL
TXBWIC21010-23883-01000-30000048D0000454D00000000061000      GGSL
TXBWIC21010-23883-01002-70000296D0002443D00148003521002      GGSL
TXBWIC21010-23883-01105-50000348D0000957D00264003721105      GGSL
TXBWIC21010-23883-01280-90000002D0000113D00000000221280.0    GGSL
TXBWIC21010-23883-02675-20000002D0000067D00000000002675e     GGSL
TXBWIC21010-23883-04701-60000003D0000082D00040000024701      GGSL
TXBWIC21010-23883-05000-90000052D0000428D00109000005000      GGSL
TXBWIC21010-23883-08620-60000004D0000631D00009000008620B     GGSL
TXBWIC21010-23883-15710-40009710D0060887D002810659515710     GGSL
TXBWIC21010-23883-20020-60000016D0000255D000030001020002     GGSL
TXBWIC21010-23883-21210-00005042C0000255C001320000221210XP   GGSL
TXBWIC21010-23883-21220-90000008D0000448D000000000321220XP   GGSL
TXBWIC21010-23883-26011-80000104D0002790D003110002026011XP   GGSL
TXBWIC21010-23883-26021-70001478D0034772D014930094926021XP   GGSL
TXBWIC21010-23883-26031-60000075D0002710D002100002826031XP   GGSL
TXBWIC21010-23883-27010-00000064D0001192D002700000427010     GGSL
TXBWIC21010-23883-27020-90000144D0002974D008170006727020     GGSL
TXBWIC21010-23883-27030-80000058D0001400D003660003827030     GGSL
TXBWIC21010-23883-60100-30000975D0033897D002980046360100     GGSL
TXBWIC21010-23883-61800-10000065D0003678D000100005461800     GGSL
TXBWIC21010-23883-61925-10000001D0000008D00016000006-1925    GGSL
TXBWIC21010-23883-63924-20000016D0002512D000400000763924     GGSL
TXBWIC21010-23883-64601-10000006D0000074D00004000006-4601    GGSL
TXBWIC21010-23883-66002-40000006D0000030D00005000006-6002    GGSL
TXBWIC21010-23883-68060-20000002D0000033D00002000006-8060    GGSL
TXBWIC21010-23883-68131-90000010D0000071D00000000106-8131    GGSL
TXBWIC21010-23883-68180-70000001D0000011D00000000006-8180    GGSL
TXBWIC21010-23883-68219-40000001D0000013D00000000006-8219    GGSL
TXBWIC21010-23883-68238-50000001D0000041D00000000006-8238    GGSL
TXBWIC21010-23883-80000-00000318D0010109D00006002198000A     GGSL
TXBWIC21010-23883-80080-20000003D0000348D00000000008200A     GGSL
TXBWIC21010-23883-82080-00000006D0000927D00000000028301C     GGSL
TXBWIC21010-23883-84000-60000434D0022346D00008003738701B     GGSL
TXBWIC21010-23883-84600-80000080D0001802D006300019084700A    GGSL
TXBWIC21010-23883-97100-70000020D0011242D000040002397100     GGSL
TXBWIC21010-23883-97561-60000001D0000194D000140000097561     GGSL
TXBWIC21010-24654-05922-10000006D0000065D00000000485926      GGSL
TXBWIC21010-24654-09334-80000009D0000212D00101000009334      GGSL
TXBWIC21010-24654-51806-30000024D0000116D00000000065180-6    GGSL
TXBWIC21010-24654-55110-70000858D0004120D00732002285110-6    GGSL
TXBWIC21010-24654-55118-30000240D0001631D00655001325118.0    GGSL
TXBWIC21010-24654-72125-80000018D0000109D0000000006SB125     GGSL
TXBWIC21010-26455-91350-40000042D0002062D0004000010          GGSL
TXBWIC21010-26978-08710-20000002D0000026D000000000008710     GGSL
TXBWIC21010-26978-08713-30000006D0000078D000000000008713     GGSL
TXBWIC21010-26978-08813-00000005D0000026D000000000008813     GGSL
TXBWIC21010-26978-08820-80000005D0000059D000000000008820     GGSL
TXBWIC21010-26978-10010-80000006D0000020D000000000010010     GGSL
TXBWIC21010-26978-26245-50000008D0000082D000000000026245     GGSL
TXBWIC21010-26978-30200-70000004D0000083D000010000230200     GGSL
TXBWIC21010-26978-30301-10004452D0016795D036880228230301     GGSL
TXBWIC21010-26978-30402-50000096D0000485D000000000030402     GGSL
TXBWIC21010-26978-30409-40000024D0000122D000000001230409     GGSL
TXBWIC21010-26978-30411-70000024D0000122D000000001230411     GGSL
TXBWIC21010-26978-30413-10000036D0000182D000000001230413     GGSL
TXBWIC21010-26978-30602-90000003D0000056D000000000030602     GGSL
TXBWIC21010-26978-30605-00000003D0000056D000000000030605     GGSL
TXBWIC21010-26978-30702-60000018D0000063D000060001230702     GGSL
TXBWIC21010-26978-30705-70000024D0000084D000000000630705     GGSL
TXBWIC21010-26978-31121-40000005D0000055D000000000031121     GGSL
TXBWIC21010-26978-32128-20000005D0000064D000000000032128     GGSL
TXBWIC21010-26978-32129-90000010D0000128D000000000032129     GGSL
TXBWIC21010-26978-35066-40000001D0000040D000000000035066     GGSL
TXBWIC21010-26978-35068-80000010D0000040D000000000035068     GGSL
TXBWIC21010-26978-35080-00000010D0000074D000000000035080     GGSL
TXBWIC21010-26978-35088-60000010D0000074D000000000035088     GGSL
TXBWIC21010-26978-35089-30000010D0000074D000000000035089     GGSL
TXBWIC21010-26978-35100-50000005D0000072D000000000035100     GGSL
TXBWIC21010-26978-38148-40000005D0000297D000000000238148     GGSL
TXBWIC21010-26978-70801-10000004D0000252D000000000170801     GGSL
TXBWIC21010-26978-70802-80000003D0000189D000000000070802     GGSL
TXBWIC21010-26978-80110-40000004D0000150D000000000080110     GGSL
TXBWIC21010-26978-81108-00000006D0000054D000000000081108     GGSL
TXBWIC21010-26978-81201-80000001D0000052D000000000081201     GGSL
TXBWIC21010-26978-81755-60000004D0000133D000000000081755     GGSL
TXBWIC21010-27452-06234-90000004D0000037D000000000023950     GGSL
TXBWIC21010-28009-11225-80004428D0020705D02941003361225.0    GGSL
TXBWIC21010-28009-11227-20000480D0001133D00000001021227.0    GGSL
TXBWIC21010-28009-11250-00016692D0119275D02636013201250.0    GGSL
TXBWIC21010-28009-11420-70002350D0010162D00511002701420P     GGSL
TXBWIC21010-28009-11440-50002251D0016778D00768001931440P     GGSL
TXBWIC21010-28009-11465-80000586C0016778C00312000001465      GGSL
TXBWIC21010-28009-11550-10000200D0001141D00050001001550P     GGSL
TXBWIC21010-28009-11638-60000030D0000382D00030000001638      GGSL
TXBWIC21010-28009-11640-90000780D0004441D00000007201640      GGSL
TXBWIC21010-28009-11815-10000110D0000714D00000000001815      GGSL
TXBWIC21010-28009-11925-70000390D0002709D00000003901925      GGSL
TXBWIC21010-28009-15240-70000346D0001748D01974000815240.0    GGSL
TXBWIC21010-28009-15440-10000360D0001300D00060000605440.0    GGSL
TXBWIC21010-28009-15440-30001260D0008746D00060003001840      GGSL
TXBWIC21010-28009-15450-00000158D0000903D00281000575450.0    GGSL
TXBWIC21010-28009-15540-80003420D0012117D02064000715540.0    GGSL
TXBWIC21010-28009-15720-40000040D0000147D00349000205720.0    GGSL
TXBWIC21010-28009-15740-20001556D0006108D00655001305740.0    GGSL
TXBWIC21010-30541-00003-00000050D0000057D0000000100JCD-50EP  GGSL
TXBWIC21010-30541-00102-00000012D0000061D0000000012JCD-02ER  GGSL
TXBWIC21010-30541-00109-90000024D0000052D0000000000JCD-02SC  GGSL
TXBWIC21010-30541-01020-60000072D0000156D0043200048JCD-024SM GGSL
TXBWIC21010-30541-01030-50000054D0000458D0010200042JCD-100SMJGGSL
TXBWIC21010-30541-01034-30000002D0000048D0010200001JCD-030SM GGSL
TXBWIC21010-30541-01092-30000006D0000031D0000000000JCD-100SC GGSL
TXBWIC21010-30541-08875-50000250D0000073D0000000000SMB       GGSL
TXBWIC21010-30541-09982-90001960D0004097D0002402048JCD-TPP   GGSL
TXBWIC21010-30641-09801-20000625D0001231D0032500200SWPDQ     GGSL
TXBWIC21010-30641-32937-60000774D0001416D0001800108RPDQ      GGSL
TXBWIC21010-30641-33935-10000792D0001333D0000000180YPDQ      GGSL
TXBWIC21010-30641-35936-60000774D0007161D0001800252WPDQ      GGSL
TXBWIC21010-32247-00900-30000690D0001774D00480000541009001   GGSL
TXBWIC21010-32247-00910-20000270D0000704D00234000121009101   GGSL
TXBWIC21010-32247-00950-80000336D0000851D00090000481009501   GGSL
TXBWIC21010-32247-03115-80000215D0011838D000380000031115     GGSL
TXBWIC21010-32247-03313-80002045D0040324D00710000003313B     GGSL
TXBWIC21010-32247-03594-10001020D0005946D004030005070359430  GGSL
TXBWIC21010-32247-05514-70021459D0077039D035930066570551430  GGSL
TXBWIC21010-32247-10500-20001755D0012477D0039600570110500    GGSL
TXBWIC21010-32247-11307-60016965D0030983D041960017071130756  GGSL
TXBWIC21010-32247-14810-80000040D0000273D000000000014810     GGSL
TXBWIC21010-32247-14902-00000188D0002341D000040000014902     GGSL
TXBWIC21010-32247-14905-10002096D0014743D000400000014905     GGSL
TXBWIC21010-32247-15307-20000525D0001020D003150008071530751  GGSL
TXBWIC21010-32247-17183-00001560D0012627D000360000017183     GGSL
TXBWIC21010-32247-17185-40001092D0020093D000080000417185     GGSL
TXBWIC21010-32247-17187-80000580D0025685D000050000017187     GGSL
TXBWIC21010-32247-17290-50001368D0012213D000000000017290     GGSL
TXBWIC21010-32247-17293-60000960D0008245D000180000017293     GGSL
TXBWIC21010-32247-17295-00000520D0010491D000120000017295     GGSL
TXBWIC21010-32247-17323-00000858D0006848D001140000017323     GGSL
TXBWIC21010-32247-17325-40000660D0011109D000000000017325     GGSL
TXBWIC21010-32247-17327-80000628D0022189D000460000017327     GGSL
TXBWIC21010-32247-17424-40000024D0000560D000000000017519     GGSL
TXBWIC21010-32247-17432-90000100D0003880D000000000017504     GGSL
TXBWIC21010-32247-17488-60000008D0000186D000040000017590     GGSL
TXBWIC21010-32247-17508-10000301D0003548D000240000017508     GGSL
TXBWIC21010-32247-17511-10000049D0000851D000360000017511     GGSL
TXBWIC21010-32247-17528-90000104D0002418D000000000017540     GGSL
TXBWIC21010-32247-17540-10000001D0001303D000000000017543     GGSL
TXBWIC21010-32247-17582-10000384D0004469D000240000017582     GGSL
TXBWIC21010-32247-18213-30000248D0005104D000000000018213     GGSL
TXBWIC21010-32247-18221-80000344D0007052D000080000018221     GGSL
TXBWIC21010-32247-18222-50000248D0004643D000000000018222     GGSL
TXBWIC21010-32247-18225-60000500D0005441D001380000018225     GGSL
TXBWIC21010-32247-18249-20000008D0000409D000000000018249     GGSL
TXBWIC21010-32247-18251-50000128D0003391D000000000018251     GGSL
TXBWIC21010-32247-18260-70000012D0000116D000060000018260     GGSL
TXBWIC21010-32247-18266-90000030D0000345D001080000618266     GGSL
TXBWIC21010-32247-18269-00000044D0001133D000000000018269     GGSL
TXBWIC21010-32247-18272-00000192D0000917D000770000018272     GGSL
TXBWIC21010-32247-18296-60000054D0000586D000000000018296     GGSL
TXBWIC21010-32247-18302-40000072D0001491D000000000018302     GGSL
TXBWIC21010-32247-18320-80000174D0001479D000000001218320     GGSL
TXBWIC21010-32247-18338-30000036D0000331D000000000018338     GGSL
TXBWIC21010-32247-18341-30000008D0000162D000000000018341     GGSL
TXBWIC21010-32247-18345-10000006D0000069D000000000018345     GGSL
TXBWIC21010-32247-18346-80000152D0002613D000080000018346     GGSL
TXBWIC21010-32247-18348-20000132D0001664D000000003618348     GGSL
TXBWIC21010-32247-18350-50001155D0006936D016350000018350     GGSL
TXBWIC21010-32247-18353-60001032D0021937D002700000018353     GGSL
TXBWIC21010-32247-18354-30000006D0000070D000360000018354     GGSL
TXBWIC21010-32247-18362-80000282D0008992D000120000018362     GGSL
TXBWIC21010-32247-18365-90000042D0001120D000060000018365     GGSL
TXBWIC21010-32247-19002-20000042D0000361D000060000019002     GGSL
TXBWIC21010-32247-19003-90000021D0000734D000510000019003     GGSL
TXBWIC21010-32247-19007-70000016D0000260D000000000019007     GGSL
TXBWIC21010-32247-19594-20000228D0001443D002220003571959430  GGSL
TXBWIC21010-32247-20784-30002838D0008199D043380255672078430  GGSL
TXBWIC21010-32247-20814-70000213D0008153D000120000021814     GGSL
TXBWIC21010-32247-21030-00000012D0000314D002490000021030A    GGSL
TXBWIC21010-32247-21605-00001871D0031436D000320000021605     GGSL
TXBWIC21010-32247-21701-90000792D0005875D000240000021701     GGSL
TXBWIC21010-32247-21711-80000120D0000943D000000000021711     GGSL
TXBWIC21010-32247-21712-50000043D0000764D000000000021712     GGSL
TXBWIC21010-32247-22305-80000369D0004848D000260009922305     GGSL
TXBWIC21010-32247-22315-70000160D0005289D000290000022315     GGSL
TXBWIC21010-32247-23001-80000265D0009433D000000000023001     GGSL
TXBWIC21010-32247-23100-80000024D0000246D000360000023100     GGSL
TXBWIC21010-32247-23405-40001334D0016701D001800000023405B    GGSL
TXBWIC21010-32247-23410-80000004D0000140D000150000023410E    GGSL
TXBWIC21010-32247-23415-30000150D0005540D000300000023415     GGSL
TXBWIC21010-32247-23615-70000092D0001667D000000000023616     GGSL
TXBWIC21010-32247-23622-50000102D0001460D000000000023622     GGSL
TXBWIC21010-32247-24864-80000091D0000578D000000000072486430  GGSL
TXBWIC21010-32247-25006-10003427D0060692D003460013525006A    GGSL
TXBWIC21010-32247-25009-20000309D0015004D000390000025009     GGSL
TXBWIC21010-32247-26003-90003627D0083608D001040000026003D    GGSL
TXBWIC21010-32247-26007-70000651D0014493D003220000026007B    GGSL
TXBWIC21010-32247-26784-70000198D0000579D013260015072678430  GGSL
TXBWIC21010-32247-27764-80000048D0000196D000000005672776430  GGSL
TXBWIC21010-32247-27791-40000840D0001538D000000000072779180  GGSL
TXBWIC21010-32247-30073-50000673D0009607D000000000030073     GGSL
TXBWIC21010-32247-30156-50002076D0030272D000480000030156     GGSL
TXBWIC21010-32247-30177-00000154D0011142D000010000030177     GGSL
TXBWIC21010-32247-33002-20000240D0002963D00000000003300210   GGSL
TXBWIC21010-32247-33020-60000450D0016849D001160000033020     GGSL
TXBWIC21010-32247-33040-40000062D0000902D000000000033040     GGSL
TXBWIC21010-32247-33160-90000080D0004110D000400000033160     GGSL
TXBWIC21010-32247-34161- 0000091D0003873D000010000034161     GGSL
TXBWIC21010-32247-35594-00000307D0001797D000880001273559430  GGSL
TXBWIC21010-32247-35605-30000320D0006194D000410000044615A    GGSL
TXBWIC21010-32247-37594-80010022D0047624D011670027973759430  GGSL
TXBWIC21010-32247-37610-50000697D0014848D003280008937610A    GGSL
TXBWIC21010-32247-38605-00000016D0000229D000810000038605D    GGSL
TXBWIC21010-32247-39181-80000120D0002528D000000000039181     GGSL
TXBWIC21010-32247-39594-60016701D0116130D020700012173959430  GGSL
TXBWIC21010-32247-39605-90002077D0031426D000000000039605     GGSL
TXBWIC21010-32247-39615-80001646D0066053D000380000039615     GGSL
TXBWIC21010-32247-42784-50002700D0007530D012000003074278430  GGSL
TXBWIC21010-32247-43850-60000956D0020476D00084000004385010   GGSL
TXBWIC21010-32247-43851-30000006D0000088D00000000004385106   GGSL
TXBWIC21010-32247-43854-40000136D0001239D00048000004385404   GGSL
TXBWIC21010-32247-43860-50000192D0003252D00012000124386004   GGSL
TXBWIC21010-32247-44610-50000040D0001827D000000000044611A    GGSL
TXBWIC21010-32247-45651-70001330D0010413D000480007045651300  GGSL
TXBWIC21010-32247-47783-30000294D0000923D004620007274778300  GGSL
TXBWIC21010-32247-49013-90000032D0000662D000000000049013     GGSL
TXBWIC21010-32247-49019-10000200D0001953D000960000049019     GGSL
TXBWIC21010-32247-49021-40000006D0000124D000110000049021     GGSL
TXBWIC21010-32247-49023-80000006D0000049D000000000049023     GGSL
TXBWIC21010-32247-49024-50000024D0000632D000680010049024     GGSL
TXBWIC21010-32247-49785-50001500D0004469D014580042674978500  GGSL
TXBWIC21010-32247-50086-90000054D0000841D00024000005008610   GGSL
TXBWIC21010-32247-50087-60000708D0011022D00024000005008710   GGSL
TXBWIC21010-32247-50088-30000144D0002238D00060000005008810   GGSL
TXBWIC21010-32247-50089-00000160D0003426D00072000005008910   GGSL
TXBWIC21010-32247-50154-50000200D0001196D000760005345015430  GGSL
TXBWIC21010-32247-50524-60045438D0271907D053370126875052430  GGSL
TXBWIC21010-32247-51062-20000066D0000439D000120000051062     GGSL
TXBWIC21010-32247-51105-60004508D0049704D001370004551105     GGSL
TXBWIC21010-32247-51115-50002820D0087432D000500000051115     GGSL
TXBWIC21010-32247-52524-40000133D0001357D002880020085252430  GGSL
TXBWIC21010-32247-52784-20002484D0006977D015600007285278430  GGSL
TXBWIC21010-32247-53105-40003581D0029031D001600001053105     GGSL
TXBWIC21010-32247-53115-30002396D0052528D000030000053115     GGSL
TXBWIC21010-32247-54105-30000012D0000054D00000000005410510   GGSL
TXBWIC21010-32247-55513-50003854D0027344D011880027075551300  GGSL
TXBWIC21010-32247-55523-40004564D0051311D014370024375552300  GGSL
TXBWIC21010-32247-55783-20001589D0008061D019570006675578300  GGSL
TXBWIC21010-32247-55863-10000108D0000647D003140000375586300  GGSL
TXBWIC21010-32247-56063-40000112D0000495D000880010445606300  GGSL
TXBWIC21010-32247-56513-40031699D0200283D071240078075651300  GGSL
TXBWIC21010-32247-56523-30083456D0825222D058900164075652300  GGSL
TXBWIC21010-32247-56783-10000127D0049799D000050000075678309  GGSL
TXBWIC21010-32247-56788-60002904D0010316D072840019275678300  GGSL
TXBWIC21010-32247-56863-00002259D0012169D021000029975686300  GGSL
TXBWIC21010-32247-57905-60000200D0001982D000000000057905     GGSL
TXBWIC21010-32247-60594-60001800D0010462D006850020076059430  GGSL
TXBWIC21010-32247-71060-20001602D0017311D006170018671060     GGSL
TXBWIC21010-32247-71131-90000443D0007595D002770001271131     GGSL
TXBWIC21010-32247-74150-70005400D0022518D0494401908274150    GGSL
TXBWIC21010-32247-74250-40004013D0027176D0235201777274250    GGSL
TXBWIC21010-32247-74395-20000250D0001770D000420000843959430  GGSL
TXBWIC21010-32247-74850-60001316D0019443D0128000468274850    GGSL
TXBWIC21010-32247-75902-10000220D0015091D000440000575902     GGSL
TXBWIC21010-32247-76121-50001332D0039077D002640004276121     GGSL
TXBWIC21010-32247-76232-80000405D0020992D001230000076232     GGSL
TXBWIC21010-32247-76565-70000036D0001687D000210000076565     GGSL
TXBWIC21010-32247-77160-30002136D0008645D0529201428277160    GGSL
TXBWIC21010-32247-77260-00003641D0026680D0548401524277260    GGSL
TXBWIC21010-32247-77960-90000772D0012751D0416000504277960    GGSL
TXBWIC21010-32247-84526-70000360D0001159D000000000088452600  GGSL
TXBWIC21010-32247-85526-60000300D0000966D001200000088552600  GGSL
TXBWIC21010-32247-86526-50000180D0000580D002400000088652600  GGSL
TXBWIC21010-32247-95517-10001080D0003834D003670000079551750  GGSL
TXBWIC21010-32247-95597-30000144D0000616D000000000079559750  GGSL
TXBWIC21010-32247-99605-10002655D0046120D002780000099605     GGSL
TXBWIC21010-32903-00169-30000624D0000645D0004800024SLI06000E3GGSL
TXBWIC21010-32903-00203-40000018D0001137D0000400000TEA30000G2GGSL
TXBWIC21010-32903-00246-10000024D0000031D0000000000SLI08000A3GGSL
TXBWIC21010-32903-00281-20000012D0000041D0000000000LIA10000E2GGSL
TXBWIC21010-32903-00284-30000028D0000679D0000000000TEA20000G2GGSL
TXBWIC21010-32903-00309-30000456D0000852D0010800012SLI10000E3GGSL
TXBWIC21010-32903-00332-10000012D0000022D0000000000SLI10000B9GGSL
TXBWIC21010-32903-00338-30000012D0000022D0000000000SLI10000A3GGSL
TXBWIC21010-32903-00341-30000102D0000721D0005400054SLI24000E3GGSL
TXBWIC21010-32903-00359-80000576D0000764D0004800072SLI08000E3GGSL
TXBWIC21010-32903-04255-90000012D0000083D0000000000LIA14000E2GGSL
TXBWIC21010-32903-07558-80000072D0000194D0000000000RZ.WC1Q0B9GGSL
TXBWIC21010-32903-07577-90000006D0000115D0000000000LIA24000E2GGSL
TXBWIC21010-32903-12006-60000552D0000841D0014400072LIA06000E3GGSL
TXBWIC21010-32903-12008-00000696D0001584D0036000048LIA08000E3GGSL
TXBWIC21010-32903-12010-30000552D0001935D0027600048LIA10000E3GGSL
TXBWIC21010-32903-12012-70000480D0002625D0038400024LIA12000E3GGSL
TXBWIC21010-32903-12014-10000384D0002693D0031200024LIA14000E3GGSL
TXBWIC21010-32903-12017-20000394D0004309D0026400012LIA16000E3GGSL
TXBWIC21010-32903-12020-20000168D0002491D0005400084LIA20000E3GGSL
TXBWIC21010-32903-12024-00000132D0002563D0003600006LIA24000E3GGSL
TXBWIC21010-32903-12318-00000126D0000444D0006000006SVN18000E3GGSL
TXBWIC21010-32903-12324-10000096D0000349D0000000018SVN24000E3GGSL
TXBWIC21010-32903-12330-20000006D0000028D0000600000SVN30000E3GGSL
TXBWIC21010-32903-12712-60000036D0000128D0001200000GAB12000E3GGSL
TXBWIC21010-32903-12714-00000180D0000962D0000000060GAB14000E3GGSL
TXBWIC21010-32903-12718-80000198D0001592D0009000000GAB18000E3GGSL
TXBWIC21010-32903-12722-50000108D0001393D0005400060GAB22000E3GGSL
TXBWIC21010-32903-12818-50000198D0001125D0000000018VNP18000E3GGSL
TXBWIC21010-32903-12824-60000192D0001201D0001800024VNP24000E3GGSL
TXBWIC21010-32903-12830-70000012D0000102D0000000000VNP30000E3GGSL
TXBWIC21010-32903-35079-10000003D0000134D0000000000TES20000G2GGSL
TXBWIC21010-32903-40400-50000024D0000078D0000000000LIA10000A3GGSL
TXBWIC21010-32903-41640-40000024D0000053D0000000000LIA08000A3GGSL
TXBWIC21010-32903-41909-20000012D0000128D0000000000LIA16000A3GGSL
TXBWIC21010-32903-45170-20000024D0000166D0000000000LIA14000A3GGSL
TXBWIC21010-32903-46337-80000012D0000115D0000000000LIA16000B9GGSL
TXBWIC21010-32903-46966-00000006D0000086D0000000000LIA20000A3GGSL
TXBWIC21010-32903-47208-00000024D0000122D0000000000LIA12000A3GGSL
TXBWIC21010-32903-48101-30000024D0000035D0000000000LIA06000A3GGSL
TXBWIC21010-32903-48538-70000006D0000077D0000000000LIA20000B9GGSL
TXBWIC21010-32903-50763-80000360D0001140D0015600084SLI12000E3GGSL
TXBWIC21010-32903-50766-90000028D0000901D0000400000TEA24000G2GGSL
TXBWIC21010-32903-50767-60000012D0000037D0000000000SLI12000A3GGSL
TXBWIC21010-32903-50802-40000324D0001084D0015000024SLI14000E3GGSL
TXBWIC21010-32903-50803-10000012D0000039D0000000000SLI14000A3GGSL
TXBWIC21010-32903-53271-50000006D0000042D0000000000SLI24000E2GGSL
TXBWIC21010-32903-55269-00000004D0000253D0000000000TEA30000E3GGSL
TXBWIC21010-32903-58838-50000004D0000127D0000000000TEA24000G1GGSL
TXBWIC21010-32903-72233-80000024D0000078D0000000000LIA10000B9GGSL
TXBWIC21010-32903-72518-60000104D0000717D0000000016RZ.WC2G0B9GGSL
TXBWIC21010-32903-72886-60000006D0000028D0000000000RZ.WC1G0B9GGSL
TXBWIC21010-32903-75049-20000174D0000991D0007200012SLI20000E3GGSL
TXBWIC21010-32903-75050-80000004D0000097D0000000000TEA20000A3GGSL
TXBWIC21010-32903-75051-50000012D0000044D0000000000SLI17000A3GGSL
TXBWIC21010-32903-75070-60000006D0000033D0000000000SLI20000A3GGSL
TXBWIC21010-32903-75076-80000004D0000264D0000000000TES24000G2GGSL
TXBWIC21010-32903-75080-50000312D0001155D0018000024SLI17000E3GGSL
TXBWIC21010-32903-75084-30000006D0000042D0000000000SLI24000A3GGSL
TXBWIC21010-32903-91322-40000002D0000126D0000000000TEA30000G1GGSL
TXBWIC21010-32903-91484-90000005D0000053D0000000000SPX24DB0E3GGSL
TXBWIC21010-32903-91580-80000012D0000166D0000000000PZA16000Y3GGSL
TXBWIC21010-32903-91585-30000006D0000140D0000000000PZA20000Y3GGSL
TXBWIC21010-33607-00001-50000140D0003846D0010400024GBA-1     GGSL
TXBWIC21010-33745-97185-40000007D0000170D003580003097185     GGSL
TXBWIC21010-34411-74751-30000004D0000119D0003600000874751-100GGSL
TXBWIC21010-35307-00402-40000048D0000129D0002400000402       GGSL
TXBWIC21010-35307-00820-60000204D0000259D0003600564820       GGSL
TXBWIC21010-35307-00826-80000204D0000291D0006000432826       GGSL
TXBWIC21010-35307-00835-00000012D0000061D0000000012835       GGSL
TXBWIC21010-35307-00846-30000036D0000114D0009600048846       GGSL
TXBWIC21010-35307-00861-90000084D0000165D0003600312861       GGSL
TXBWIC21010-35307-00874-90000036D0000050D0008400060874       GGSL
TXBWIC21010-35307-01601-00000096D0001197D00018000301601      GGSL
TXBWIC21010-35307-01609-60000648D0002223D00000004321609CS    GGSL
TXBWIC21010-35307-01618-80000018D0000111D00012000121618      GGSL
TXBWIC21010-35307-01810-60000412D0001863D00036000301810      GGSL
TXBWIC21010-35307-01815-10000123D0000762D00054000281815      GGSL
TXBWIC21010-35307-01820-50000042D0000466D00048000241820      GGSL
TXBWIC21010-35307-01825-00000276D0002094D00072009361825      GGSL
TXBWIC21010-35307-01840-30000030D0000470D00018000121840      GGSL
TXBWIC21010-36348-00610-70000203D0000962D00318000000610      GGSL
TXBWIC21010-36348-00645-90000033D0000420D0026700009645       GGSL
TXBWIC21010-36348-00745-60000046D0000926D00106000200745      GGSL
TXBWIC21010-36348-01020-30000002D0000030D00004000001020      GGSL
TXBWIC21010-36348-01078-40000058D0001869D00024000201078      GGSL
TXBWIC21010-36348-01079-10000067D0002949D00189000201079      GGSL
TXBWIC21010-36348-01084-50000006D0000247D00013000021084      GGSL
TXBWIC21010-36348-01085-20000002D0000108D00013000011085      GGSL
TXBWIC21010-36348-13769-60000013C0000108C0000600000M137      GGSL
TXBWIC21010-36434-00000-00000528D0008386D008880031210-12420  GGSL
TXBWIC21010-36434-07020-00000024D0000372D00000000241017020   GGSL
TXBWIC21010-36434-10000-00000024D0000216D00072001801014510   GGSL
TXBWIC21010-36434-10012-20000252D0003205D001320012010-10012  GGSL
TXBWIC21010-36434-11000-80000197D0001891D009640006660-11000  GGSL
TXBWIC21010-36434-12340-40000036D0000072D00006000066012340   GGSL
TXBWIC21010-36434-12342-80000196D0001063D002110001960-12342  GGSL
TXBWIC21010-36434-12343-50000029D0000262D002110000260-12343  GGSL
TXBWIC21010-36434-12344-20000006D0000047D000000000060-12344  GGSL
TXBWIC21010-36434-12345-90000168D0001700D000480132010-12345  GGSL
TXBWIC21010-36434-12346-60000281D0001266D009620020460-12346  GGSL
TXBWIC21010-36434-12348-00000008D0000069D000480000010-12348  GGSL
TXBWIC21010-36434-12349-70000030D0000126D001880000460-12349  GGSL
TXBWIC21010-36434-12350-30000006D0000034D000000000060 12350  GGSL
TXBWIC21010-36434-12353-40000174D0002786D009120005360-12353  GGSL
TXBWIC21010-36434-12354-10000046D0000292D001780002210-12354  GGSL
TXBWIC21010-36434-12355-80000075D0000531D005350003010-12355  GGSL
TXBWIC21010-36434-12356-50000128D0000998D007260003110-12356  GGSL
TXBWIC21010-36434-12357-20000077D0000608D003160000510-12357  GGSL
TXBWIC21010-36434-12358-90000205C0000608C00054000001012358   GGSL
TXBWIC21010-36434-12362-60000030D0000226D000000000010-12362  GGSL
TXBWIC21010-36434-12380-00000024D0000276D000000000660-12380  GGSL
TXBWIC21010-36434-12430-40000018D0000311D00000000186012430   GGSL
TXBWIC21010-36434-12440-30000054D0000508D00000000186012440   GGSL
TXBWIC21010-36434-12450-20000048D0000688D00000000186012450   GGSL
TXBWIC21010-36434-12625-20000012D0000072D000000000060-12625  GGSL
TXBWIC21010-36434-12700-60000228D0001549D000600084010-12700  GGSL
TXBWIC21010-36434-12710-50000072D0000465D002160001210-12710  GGSL
TXBWIC21010-36434-12720-40000144D0000854D001440008410-12720  GGSL
TXBWIC21010-36434-12723-50000006D0000035D000000001260-12723  GGSL
TXBWIC21010-36434-12725-90000006D0000035D000120000060-12725  GGSL
TXBWIC21010-36434-12730-00000024D0000228D000000000010-12730  GGSL
TXBWIC21010-36434-12731-00000006D0000057D000000000060-12731  GGSL
TXBWIC21010-36434-12860-70000084D0001002D000000000010-12860  GGSL
TXBWIC21010-36434-13001-00000012D0000057D000000000010-13001  GGSL
TXBWIC21010-36434-13200-00000012D0000055D00000000846013200   GGSL
TXBWIC21010-36434-13600-50000132D0002224D002160086410-13600  GGSL
TXBWIC21010-36434-13610-20000132D0001819D001800078010-13610  GGSL
TXBWIC21010-36434-14500-70000012D0000110D000000000010-14500  GGSL
TXBWIC21010-36434-14800-80000324D0005164D006240010810-14800  GGSL
TXBWIC21010-36434-14801-80000006D0000095D000000000060-14801  GGSL
TXBWIC21010-36434-14860-20000168D0002148D003840008410-14860  GGSL
TXBWIC21010-36434-15041-70000036D0000359D000000000010-15041  GGSL
TXBWIC21010-36434-15045-50000036D0000359D000000000010-15045  GGSL
TXBWIC21010-36434-15050-90000138D0002076D002220008410-15050  GGSL
TXBWIC21010-36434-15063-90000006D0000090D00000000001015063   GGSL
TXBWIC21010-36434-15080-30000042D0000812D000540003610-15080  GGSL
TXBWIC21010-36434-17000-20000300D0011634D00000002041017000   GGSL
TXBWIC21010-36434-17010-10000006D0000130D000000001810-17010  GGSL
TXBWIC21010-36434-17051-40000012D0000144D000000000010 17051  GGSL
TXBWIC21010-36434-17061-30000070D0000420D00000000201017061   GGSL
TXBWIC21010-36434-22309-80000006D0000025D000360000060-22309  GGSL
TXBWIC21010-36434-22310-40000024D0000125D00000000126022310   GGSL
TXBWIC21010-36434-22311-10000036D0000188D00000000006022311   GGSL
TXBWIC21010-36434-22316-60000006D0000047D00000000066022316   GGSL
TXBWIC21010-36434-22317-30000006D0000047D00000000066022317   GGSL
TXBWIC21010-36434-22318-00000331D0001371D009270004260-22318  GGSL
TXBWIC21010-36434-22341-80000048D0000459D001440004810-22341  GGSL
TXBWIC21010-36434-22345-60000072D0000718D000000001210-22345  GGSL
TXBWIC21010-36434-22358-60000006D0000070D000000000610-22358  GGSL
TXBWIC21010-36434-22626-60000054D0000652D003630004460-22626  GGSL
TXBWIC21010-36434-22728-70000012D0000140D00000000006022728   GGSL
TXBWIC21010-36434-22729-40000006D0000072D000000000060-22729  GGSL
TXBWIC21010-36434-22731-70000049D0000455D003390001660-22731  GGSL
TXBWIC21010-36434-22732-40000086D0001054D003550002360-22732  GGSL
TXBWIC21010-36434-24111-50000012D0000107D00000000001024111   GGSL
TXBWIC21010-36434-28010-70000756D0005287D003960128410-28010  GGSL
TXBWIC21010-36434-28020-60000576D0004038D001680046810-28020  GGSL
TXBWIC21010-36434-32700-00000672D0005081D012500030010-32700  GGSL
TXBWIC21010-36434-34500-10000240D0002166D002640067210-34500  GGSL
TXBWIC21010-36434-60123-00000043D0054613D000000001960123     GGSL
TXBWIC21010-36434-62020-00000012D0001912D000000000062020     GGSL
TXBWIC21010-36434-65095-50000021D0022344D000000000665095     GGSL
TXBWIC21010-36434-82342-70000057D0000666D002110002460-82342  GGSL
TXBWIC21010-36865-12250-20010020D0018339D017400132071140180  GGSL
TXBWIC21010-36865-14511-20001680D0003161D027000000071451180  GGSL
TXBWIC21010-36865-24511-90001620D0004549D007200000072451180  GGSL
TXBWIC21010-36865-45220-30000840D0002100D000000000088452205  GGSL
TXBWIC21010-36865-52965-30000180D0000403D000000000087852965  GGSL
TXBWIC21010-36865-65220-70004140D0010350D000000000088652205  GGSL
TXBWIC21010-36865-71751-70000300D0000540D000000000071751180  GGSL
TXBWIC21010-37321-00022-80000660D0003707D0000002735022       GGSL
TXBWIC21010-37321-00023-50000120D0001961D0000000092023       GGSL
TXBWIC21010-37321-00024-20000537D0005613D0030001032024       GGSL
TXBWIC21010-37321-00036-50000060D0000335D0002400000036       GGSL
TXBWIC21010-37321-00040-20000036D0000368D0001200000040       GGSL
TXBWIC21010-37321-00050-10000264D0000220D0000000024050       GGSL
TXBWIC21010-37321-00051-80000036D0000376D0000000006051       GGSL
TXBWIC21010-37321-00053-20000036D0000081D0000000000053       GGSL
TXBWIC21010-37321-00055-60000015D0000178D0000000000055       GGSL
TXBWIC21010-37321-00061-70000024D0000145D0028800000061       GGSL
TXBWIC21010-37321-00065-50000060D0000270D0000000000065       GGSL
TXBWIC21010-37321-00066-20000012D0000122D0000000000066       GGSL
TXBWIC21010-37321-00067-90000006D0000050D0000600000067       GGSL
TXBWIC21010-37321-00068-60000168D0000760D0055200708068       GGSL
TXBWIC21010-37321-00069-30000375D0004251D0184200492069       GGSL
TXBWIC21010-37321-00070-90000204D0002569D0074400456070       GGSL
TXBWIC21010-37321-00081-50000012D0000071D0028800000081       GGSL
TXBWIC21010-37321-00097-60000048D0000216D0000000012097       GGSL
TXBWIC21010-37321-00099-00000012D0000073D0000000000099       GGSL
TXBWIC21010-37321-00105-80000600D0001495D0026400708105       GGSL
TXBWIC21010-37321-00106-50000576D0001449D0045600360106       GGSL
TXBWIC21010-37321-00107-20000312D0000771D0052800624107       GGSL
TXBWIC21010-37321-00108-90000732D0001818D0048001116108       GGSL
TXBWIC21010-37321-00110-20000056D0000158D0000000032110       GGSL
TXBWIC21010-37321-00112-60000008D0000021D0000000000112       GGSL
TXBWIC21010-37321-00114-00000064D0000182D0000000016114       GGSL
TXBWIC21010-37321-00116-40000152D0000436D0002400000116       GGSL
TXBWIC21010-37321-00120-10000012D0000060D0001200048120       GGSL
TXBWIC21010-37321-00123-20000120D0000424D0017100012123       GGSL
TXBWIC21010-37321-00127-00000189D0001367D0041100348127       GGSL
TXBWIC21010-37321-00141-60000216D0000828D0000000180141       GGSL
TXBWIC21010-37321-00150-80000276D0003936D0069603048150       GGSL
TXBWIC21010-37321-00166-90000122D0000608D0029100150166       GGSL
TXBWIC21010-37321-00171-30000192D0001501D0019200012171       GGSL
TXBWIC21010-37321-00196-60000024D0000122D0004800012196       GGSL
TXBWIC21010-37321-00197-30000072D0000366D0000000024197       GGSL
TXBWIC21010-37321-00198-00000036D0000340D0000000000198       GGSL
TXBWIC21010-37321-00202-40000864D0008116D0418500660202       GGSL
TXBWIC21010-37321-00203-10000348D0004598D0148400240203       GGSL
TXBWIC21010-37321-00205-50000012D0000530D0000000000205       GGSL
TXBWIC21010-37321-00210-90000396D0002030D0128100072210       GGSL
TXBWIC21010-37321-00211-60000384D0002797D0170101794211       GGSL
TXBWIC21010-37321-00212-30000008D0000129D0000000000212       GGSL
TXBWIC21010-37321-00213-00000672D0005960D0071700876213       GGSL
TXBWIC21010-37321-00214-70000852D0004015D0088200888214       GGSL
TXBWIC21010-37321-00216-10000096D0001404D0000000480216       GGSL
TXBWIC21010-37321-00217-80000060D0000532D0012000036217       GGSL
TXBWIC21010-37321-00218-50000012D0000156D0000000000218       GGSL
TXBWIC21010-37321-00221-50000012D0000052D0000000024221       GGSL
TXBWIC21010-37321-00225-30000048D0000232D0015600156225       GGSL
TXBWIC21010-37321-00227-70000012D0000126D0000000000227       GGSL
TXBWIC21010-37321-00230-70000012D0000094D0000000000230       GGSL
TXBWIC21010-37321-00237-60000012D0000140D0000000000237       GGSL
TXBWIC21010-37321-00238-30000360D0002711D0056100336238       GGSL
TXBWIC21010-37321-00250-50001200D0005119D0069002931250       GGSL
TXBWIC21010-37321-00252-90000612D0006584D0129600339252       GGSL
TXBWIC21010-37321-00253-60000147D0002437D0059100084253       GGSL
TXBWIC21010-37321-00255-00000420D0007385D0220200774255       GGSL
TXBWIC21010-37321-00257-40000252D0000835D0036900399257       GGSL
TXBWIC21010-37321-00258-10000012D0000067D0003600012258       GGSL
TXBWIC21010-37321-00272-70000012D0000040D0000000000272       GGSL
TXBWIC21010-37321-00274-10000594D0003261D0135001212274       GGSL
TXBWIC21010-37321-00276-50000036D0000437D0000000012276       GGSL
TXBWIC21010-37321-00277-20000006D0000187D0000000000277       GGSL
TXBWIC21010-37321-00285-70000024D0000120D0000000000285       GGSL
TXBWIC21010-37321-00299-40000012D0000094D0000000000299       GGSL
TXBWIC21010-37321-00307-60000540D0002086D0033300840307       GGSL
TXBWIC21010-37321-00309-00000246D0003831D0014400306309       GGSL
TXBWIC21010-37321-00310-50000006D0000156D0000000000310       GGSL
TXBWIC21010-37321-00312-00000012D0000207D0001200048312       GGSL
TXBWIC21010-37321-00330-40000252D0002102D0090900144330       GGSL
TXBWIC21010-37321-00331-10000195D0002591D0114600144331       GGSL
TXBWIC21010-37321-00371-70000024D0000123D0000000000371       GGSL
TXBWIC21010-37321-00372-40000004D0000034D0000000000372       GGSL
TXBWIC21010-37321-00377-90000012D0000296D0015600000377       GGSL
TXBWIC21010-37321-00404-20000120D0000802D0016800012404       GGSL
TXBWIC21010-37321-00411-00000012D0000038D0012900027411       GGSL
TXBWIC21010-37321-00412-70000027D0000140D0012900012412       GGSL
TXBWIC21010-37321-00413-40000028D0000284D0000800000413       GGSL
TXBWIC21010-37321-00420-20000024D0001298D0026700124420       GGSL
TXBWIC21010-37321-00426-40000450D0004062D0063900960426       GGSL
TXBWIC21010-37321-00428-80000132D0000435D0000200324428       GGSL
TXBWIC21010-37321-00429-50000027D0000445D0006000177429       GGSL
TXBWIC21010-37321-00442-40000495D0002825D0054000123442       GGSL
TXBWIC21010-37321-00443-10000150D0001455D0066000156443       GGSL
TXBWIC21010-37321-00506-30000438D0001698D0026700228506       GGSL
TXBWIC21010-37321-00532-20000004D0000036D0000000000532       GGSL
TXBWIC21010-37321-00543-80000483D0001401D0108000060543       GGSL
TXBWIC21010-37321-00544-50000120D0000611D0031500024544       GGSL
TXBWIC21010-37321-00549-00000060D0000482D0008400000549       GGSL
TXBWIC21010-37321-00552-00000018D0000272D0016800012552       GGSL
TXBWIC21010-37321-00553-70000013D0000360D0041700006553       GGSL
TXBWIC21010-37321-00560-50000216D0000838D0144000084560       GGSL
TXBWIC21010-37321-00564-30000336D0002948D0020400324564       GGSL
TXBWIC21010-37321-00571-10000339D0002547D0015600096571       GGSL
TXBWIC21010-37321-00573-50000270D0001108D0093600072573       GGSL
TXBWIC21010-37321-00577-30000232D0001719D0040800068574       GGSL
TXBWIC21010-37321-00578-00000048D0000462D0002400012578       GGSL
TXBWIC21010-37321-00603-90000010D0000097D000130000060315     GGSL
TXBWIC21010-37321-00609-10000132D0001204D0009600048609       GGSL
TXBWIC21010-37321-00611-40000088D0001923D0026000044611       GGSL
TXBWIC21010-37321-00612-10000012D0000050D00000000000612      GGSL
TXBWIC21010-37321-00629-90000060D0000176D0093600036629       GGSL
TXBWIC21010-37321-00631-20005148D0012047D0382805892631       GGSL
TXBWIC21010-37321-00651-00000012D0000136D00000000000651      GGSL
TXBWIC21010-37321-00652-70000192D0000877D0019200012652       GGSL
TXBWIC21010-37321-00655-80000408D0002321D00078009426556      GGSL
TXBWIC21010-37321-00680-00000693D0004107D0101100468680       GGSL
TXBWIC21010-37321-00685-50001539D0012466D0133600456685       GGSL
TXBWIC21010-37321-00687-90000048D0000532D0007200000687       GGSL
TXBWIC21010-37321-00688-60000084D0000472D0008400012688       GGSL
TXBWIC21010-37321-00690-90000168D0001668D0069900036690       GGSL
TXBWIC21010-37321-00691-60000027D0000178D000060000069127     GGSL
TXBWIC21010-37321-00692-30000531D0005601D0276200362692150    GGSL
TXBWIC21010-37321-00728-90000132D0001524D0016800024728       GGSL
TXBWIC21010-37321-00730-20000012D0000060D0000000000730       GGSL
TXBWIC21010-37321-00752-40000006D0000039D0018000012752       GGSL
TXBWIC21010-37321-00757-90000006D0000023D0006600000757       GGSL
TXBWIC21010-37321-00758-60000004D0000035D0002400016758       GGSL
TXBWIC21010-37321-00771-50000156D0000713D0033600072771       GGSL
TXBWIC21010-37321-00772-20000012D0000086D0000000000772       GGSL
TXBWIC21010-37321-00775-30000036D0000188D0008100036775       GGSL
TXBWIC21010-37321-00777-70000130D0001132D0029700036777       GGSL
TXBWIC21010-37321-00779-10000144D0001064D0007500528779       GGSL
TXBWIC21010-37321-00784-50000204D0000530D0075000114784       GGSL
TXBWIC21010-37321-00786-90001908D0005476D0234001362786       GGSL
TXBWIC21010-37321-00789-00000330D0002169D0041302041791       GGSL
TXBWIC21010-37321-00802-60000024D0000120D0000000012802       GGSL
TXBWIC21010-37321-00803-30000192D0001600D0028800072803       GGSL
TXBWIC21010-37321-00806-40000228D0001582D0020400048806       GGSL
TXBWIC21010-37321-00811-80000864D0009287D0365400843811       GGSL
TXBWIC21010-37321-00813-20000360D0004556D0105000873813       GGSL
TXBWIC21010-37321-00814-90000066D0001448D0005400018814       GGSL
TXBWIC21010-37321-00857-60000264D0002142D0177600324857       GGSL
TXBWIC21010-37321-00858-30000084D0001112D0010800000858       GGSL
TXBWIC21010-37321-00862-00000153D0001808D0064800036862       GGSL
TXBWIC21010-37321-00863-70000006D0000076D0002700000863       GGSL
TXBWIC21010-37321-00868-20000018D0000208D0003600006868       GGSL
TXBWIC21010-37321-00870-50000216D0001324D0037200132870       GGSL
TXBWIC21010-37321-00875-00000536D0006736D0249900075875       GGSL
TXBWIC21010-37321-00876-70000012D0000070D0000000000876       GGSL
TXBWIC21010-37321-00880-40000120D0001381D0137400552880       GGSL
TXBWIC21010-37321-00881-10000024D0000484D0000000000881       GGSL
TXBWIC21010-37321-00883-50000276D0001237D0005700420883       GGSL
TXBWIC21010-37321-00892-70000516D0004530D0000001584892       GGSL
TXBWIC21010-37321-00894-10000012D0000088D0000000000894       GGSL
TXBWIC21010-37321-00897-20000012D0000068D0018000012897       GGSL
TXBWIC21010-37321-00903-00000012D0000063D0038400000903       GGSL
TXBWIC21010-37321-00904-70000084D0000634D0000000012904       GGSL
TXBWIC21010-37321-00905-40000024D0000299D0000000000905       GGSL
TXBWIC21010-37321-00908-50000144D0001272D0019500012908       GGSL
TXBWIC21010-37321-00909-20000048D0000795D0000000000909       GGSL
TXBWIC21010-37321-00925-20000375D0000977D0000001022925       GGSL
TXBWIC21010-37321-00939-90000240D0002369D0000000420939       GGSL
TXBWIC21010-37321-00941-20000900D0008577D0215102562941       GGSL
TXBWIC21010-37321-00946-70000008D0000065D0000000000946       GGSL
TXBWIC21010-37321-00947-40000012D0000090D0003600024947       GGSL
TXBWIC21010-37321-00951-10000627D0002469D0039601137951       GGSL
TXBWIC21010-37321-00952-80000168D0000784D0008100036952       GGSL
TXBWIC21010-37321-00955-90000002D0000078D0000000000955       GGSL
TXBWIC21010-37321-00979-50000024D0000209D0000000006979       GGSL
TXBWIC21010-37321-00987-00000432D0003530D0129000036987       GGSL
TXBWIC21010-37321-00991-70000024D0000136D0000000000991       GGSL
TXBWIC21010-37321-00992-40000036D0000287D0000000012992       GGSL
TXBWIC21010-37321-01971-80000024D0000096D00024000001971      GGSL
TXBWIC21010-37321-02360-90000225D0001476D00309001112360      GGSL
TXBWIC21010-37321-02361-60000735D0007936D01771007922361      GGSL
TXBWIC21010-37321-02761-40000018D0000321D00024000242761      GGSL
TXBWIC21010-37321-03082-90000009D0000150D00000000033082      GGSL
TXBWIC21010-37321-05121-30000012D0000063D00000000005121      GGSL
TXBWIC21010-37321-05612-60000096D0000844D00417000125612      GGSL
TXBWIC21010-37321-05710-90000159D0000911D00117000485710      GGSL
TXBWIC21010-37321-05712-30000195D0001755D00114000005712      GGSL
TXBWIC21010-37321-05714-70000108D0003032D00096000245714      GGSL
TXBWIC21010-37321-07458-80000180D0002841D00084000127458      GGSL
TXBWIC21010-37321-07462-50000008D0000226D00000000007462      GGSL
TXBWIC21010-37321-07464-90000036D0000459D00012000067464      GGSL
TXBWIC21010-37321-07465-60000004D0000119D00020000007465      GGSL
TXBWIC21010-37321-07469-40000004D0000290D00000000007469      GGSL
TXBWIC21010-37321-07490-80000258D0001343D00096003067490      GGSL
TXBWIC21010-37321-07492-20000060D0000996D00016003487492      GGSL
TXBWIC21010-37321-07503-50000024D0000300D00000000007503      GGSL
TXBWIC21010-37321-07504-20000012D0000265D00000000007504      GGSL
TXBWIC21010-37321-07505-90000004D0000288D00000000007505      GGSL
TXBWIC21010-37321-08636-90000024D0000279D00018000008636      GGSL
TXBWIC21010-37321-08752-60000048D0000505D00255000248752      GGSL
TXBWIC21010-37321-09534-70000417D0004327D00189003369534      GGSL
TXBWIC21010-37321-45672-80000012D0000074D000120000045672     GGSL
TXBWIC21010-37321-46126-50001700D0000251D204000100046126     GGSL
TXBWIC21010-37321-46172-20000036D0000145D000000000046172     GGSL
TXBWIC21010-37321-46180-70000024D0000141D000120001246180     GGSL
TXBWIC21010-37321-46183-80000237D0001798D0059700063691       GGSL
TXBWIC21010-37321-46186-90000001D0000084D000000000046315     GGSL
TXBWIC21010-37321-46190-60000072D0000205D003600004846190     GGSL
TXBWIC21010-37321-46191-30000072D0000331D002880000046191     GGSL
TXBWIC21010-37321-46406-80000280D0002023D007680001646406     GGSL
TXBWIC21010-37321-46540-90000036D0000282D001120002846540     GGSL
TXBWIC21010-37321-60224-80000272D0002996D000000000060410     GGSL
TXBWIC21010-37321-60360-30000424D0004293D001720001160362     GGSL
TXBWIC21010-37321-60365-80000020D0000546D000560000060365     GGSL
TXBWIC21010-37321-60400-60001547D0019331D001960254160402     GGSL
TXBWIC21010-37321-60407-50000228D0001791D000000020460407     GGSL
TXBWIC21010-37321-60414-30000140D0004412D000000013060414     GGSL
TXBWIC21010-37321-60420-40000315D0003829D000260000560420     GGSL
TXBWIC21010-37321-60424-20000180D0005761D000100004560424     GGSL
TXBWIC21010-37321-60430-30000015D0000155D000720000060432     GGSL
TXBWIC21010-37321-60434-10000006D0000159D000000000060434     GGSL
TXBWIC21010-37321-60440-20000272D0002789D000080000060442     GGSL
TXBWIC21010-37321-60444-00000087D0002123D000030000060444     GGSL
TXBWIC21010-37321-60454-90000055D0000790D000000008060454     GGSL
TXBWIC21010-37321-60464-80000045D0001129D000000000060464     GGSL
TXBWIC21010-37321-60476-10007461D0081498D028831075560478     GGSL
TXBWIC21010-37321-60514-00001038D0010872D026390137260515     GGSL
TXBWIC21010-37321-60613-00000052D0000455D000360000460613     GGSL
TXBWIC21010-37321-60728-10000020D0000250D000600005060730     GGSL
TXBWIC21010-37321-61118-90000018D0000170D000000000061120     GGSL
TXBWIC21010-37321-61119-60000018D0000250D000000000061121     GGSL
TXBWIC21010-38313-00000-00000001D0000287D0000000000MR 9161   GGSL
TXBWIC21010-38313-00005-90000020D0000420D0007500012GS 6750D  GGSL
TXBWIC21010-38313-00007-30000018D0000704D0000000000HS 6920   GGSL
TXBWIC21010-38313-00008-00000074D0001145D0029600064BP 3130   GGSL
TXBWIC21010-38313-00060-80000668D0010878D0057500645BP 3160   GGSL
TXBWIC21010-38313-00080-60000389D0007425D0094900144BP 3180D  GGSL
TXBWIC21010-38313-00081-30000126D0001037D0001200036AC 7220   GGSL
TXBWIC21010-38313-00217-60000043D0000691D0003600024FS 4350   GGSL
TXBWIC21010-38313-00524-50000012D0000248D0000000006SL 3310   GGSL
TXBWIC21010-38313-00555-90000012D0000144D0000000000GS 3750D  GGSL
TXBWIC21010-38313-00830-70000065D0001828D0006800042BP 6250   GGSL
TXBWIC21010-38313-01010-20001278D0006024D0053400312CT 3010I  GGSL
TXBWIC21010-38313-01020-10000588D0002773D0027000150CT 3020I  GGSL
TXBWIC21010-38313-01030-00000114D0000552D0022200096CT 3030I  GGSL
TXBWIC21010-38313-01040-90000018D0000083D0000000000CT 3040I  GGSL
TXBWIC21010-38313-03040-70000006D0000045D0000000000GT 3040   GGSL
TXBWIC21010-38313-03050-60000096D0000670D0002400264GT 3050   GGSL
TXBWIC21010-38313-03060-50000114D0000790D0012000156GT 3060   GGSL
TXBWIC21010-38313-03080-30000096D0000670D0012000204GT 3080   GGSL
TXBWIC21010-38313-03090-20000006D0000045D0000000000GT 3090   GGSL
TXBWIC21010-38313-03214-20000030D0000280D0011400012BP 3214D  GGSL
TXBWIC21010-38313-03244-90000078D0001337D0003600162HS 3244   GGSL
TXBWIC21010-38313-03334-70000036D0000341D0004200012AP 3334   GGSL
TXBWIC21010-38313-03394-10000042D0000309D0000000012FS 3394   GGSL
TXBWIC21010-38313-03470-20000041D0001136D0002700012FL 3470   GGSL
TXBWIC21010-38313-03634-80000010D0000242D0001100025LG 3634   GGSL
TXBWIC21010-38313-03694-20000011D0000316D0001800006LG 3694   GGSL
TXBWIC21010-38313-03710-90000786D0003898D0003001734CT 3710   GGSL
TXBWIC21010-38313-03720-80000036D0000209D0039600006CT 3720   GGSL
TXBWIC21010-38313-03730-70000198D0000985D0011400336CT 3730   GGSL
TXBWIC21010-38313-03750-50000036D0000181D0003000660CT 3750   GGSL
TXBWIC21010-38313-04110-60000084D0001298D0004800096AL 4110   GGSL
TXBWIC21010-38313-04150-20000030D0000641D0000000000SL 4150   GGSL
TXBWIC21010-38313-04930-00001463D0008866D0437900761AG 4930   GGSL
TXBWIC21010-38313-04930-70001004D0006258D0072300082AG 4930SS GGSL
TXBWIC21010-38313-06100-50000006D0000147D0000600000SH 61000  GGSL
TXBWIC21010-38313-06970-40000046D0001939D0022300026AH 6970   GGSL
TXBWIC21010-38313-07001-00000006D0000241D0001100002FK 70010  GGSL
TXBWIC21010-38313-07265-00000006D0000066D0001800060RS 7265D  GGSL
TXBWIC21010-38313-07395-40000012D0000239D0000600018RS 7395   GGSL
TXBWIC21010-38313-07545-20000045D0000733D0027000035RS 7245   GGSL
TXBWIC21010-38313-08300-00000144D0000843D0001200036AC 8300   GGSL
TXBWIC21010-38313-10000-10000106D0000961D0029900022SS 10000  GGSL
TXBWIC21010-38313-10227-20000062D0004257D0010400015AL 6512   GGSL
TXBWIC21010-38313-11000-00000057D0000534D0015900010SS 11000  GGSL
TXBWIC21010-38313-12400-70000283D0003236D0043500082RK 24003  GGSL
TXBWIC21010-38313-13214-90000144D0001103D0009600156FS 3214D  GGSL
TXBWIC21010-38313-13640-60000024D0000652D0000000000BP 6340   GGSL
TXBWIC21010-38313-14300-80000021D0000686D0002100001BM 43001  GGSL
TXBWIC21010-38313-17450-70000004D0000112D0000000000BP 7450   GGSL
TXBWIC21010-38313-20001-50000031D0000674D0002800001PD 20000  GGSL
TXBWIC21010-38313-20002-20000057D0000885D0000000048RK 20002  GGSL
TXBWIC21010-38313-20004-60000087D0001085D0006400080CV 20004  GGSL
TXBWIC21010-38313-20022-00000090D0001533D0010800045RK 20022  GGSL
TXBWIC21010-38313-21000-70000069D0000873D0013400075SH 20000  GGSL
TXBWIC21010-38313-21050-20000012D0000055D0000000000CT 3050I  GGSL
TXBWIC21010-38313-24000-40000068D0000456D0010900020FS 4000   GGSL
TXBWIC21010-38313-24601-30000012D0000200D0000000000RK 24061  GGSL
TXBWIC21010-38313-25008-90000108D0000479D0012000288RK 25008  GGSL
TXBWIC21010-38313-26001-90000048D0000568D0009000252SS 26010  GGSL
TXBWIC21010-38313-26020-00000028D0000405D0008400025SS 26020  GGSL
TXBWIC21010-38313-26022-40000008D0000160D0000000000SS 26030  GGSL
TXBWIC21010-38313-27002-50000004D0000149D0000000000AX 70020  GGSL
TXBWIC21010-38313-27020-90000030D0000424D0001700014SS 27020  GGSL
TXBWIC21010-38313-28000-00000021D0000363D0003000004SS 28000  GGSL
TXBWIC21010-38313-28010-90000031D0000610D0003200002SS 28010  GGSL
TXBWIC21010-38313-32341-70000020D0000190D0000000002GT 3234   GGSL
TXBWIC21010-38313-32440-70000080D0000482D0000000056CT 3244   GGSL
TXBWIC21010-38313-32441-40000005D0000047D0001800017GT 3244   GGSL
TXBWIC21010-38313-32640-10000060D0000444D0000000078CT 3264   GGSL
TXBWIC21010-38313-33140-50000088D0000664D0007200048CT 3314   GGSL
TXBWIC21010-38313-33240-20000064D0000457D0000800040CT 3324   GGSL
TXBWIC21010-38313-33340-90000040D0000307D0002400016CT 3334   GGSL
TXBWIC21010-38313-33440-60000104D0000829D0002400024CT 3344   GGSL
TXBWIC21010-38313-33540-30000064D0000453D0004000008CT 3354   GGSL
TXBWIC21010-38313-33640-00000072D0000594D0001600032CT 3364   GGSL
TXBWIC21010-38313-36241-60000010D0000287D0001500010LG 3624   GGSL
TXBWIC21010-38313-36541-70000016D0000314D0000500001LG 3654   GGSL
TXBWIC21010-38313-36841-80000003D0000072D0000200000LG 3684   GGSL
TXBWIC21010-38313-37101-20000028D0000490D0000500001LG 3710   GGSL
TXBWIC21010-38313-37201-90000066D0001111D0001200067LG 3720   GGSL
TXBWIC21010-38313-41100-80000004D0000146D0001200000PM 41000  GGSL
TXBWIC21010-38313-53841-50000016D0000744D0003800007TP 3841   GGSL
TXBWIC21010-38313-56200-70000074D0000565D0001900010RK 62000  GGSL
TXBWIC21010-38313-60061-70000048D0001168D0000600006SH 60061  GGSL
TXBWIC21010-38313-61062-30000016D0000813D0001200012RK 61062  GGSL
TXBWIC21010-38313-62062-20000016D0000646D0001700008BM 62060  GGSL
TXBWIC21010-38313-64063-70000012D0000548D0000400000RK 61063  GGSL
TXBWIC21010-38313-64144-30000015D0000286D0003100002SS 64104  GGSL
TXBWIC21010-38313-65000-10000017D0000393D0000100000SS 65000  GGSL
TXBWIC21010-38313-66000-00000006D0000141D0001100000SS 66000  GGSL
TXBWIC21010-38313-69961-10000036D0000428D0000000000MA 60061  GGSL
TXBWIC21010-38313-71005-70000006D0000259D0000000000FK 71005  GGSL
TXBWIC21010-38313-72005-60000012D0000518D0001200000FK 72005  GGSL
TXBWIC21010-38313-80000-00000017D0001259D0001000009SF 80000  GGSL
TXBWIC21010-38313-81000-90000104D0000978D0024300024RK 10000  GGSL
TXBWIC21010-38313-82000-80000006D0000120D0000000000FK 42000  GGSL
TXBWIC21010-38313-90000-70000058D0000512D0015100031SH 10000  GGSL
TXBWIC21010-38313-90310-70000002D0000150D0000000000AS 90310  GGSL
TXBWIC21010-38313-96320-00000030D0000961D0000000000WL 6320   GGSL
TXBWIC21010-39645-11752-10000063D0000296D002470000040200010  GGSL
TXBWIC21010-40025-54033-40000014D0000622D0007100000RWS-54033 GGSL
TXBWIC21010-40200-00000- 0000470D0000073D0020000025VBC H11-7 GGSL
TXBWIC21010-40279-03300-20000648D0001056D01872002403300      GGSL
TXBWIC21010-40279-03302-60000432D0000775D0093600012          GGSL
TXBWIC21010-41535-24550-40000139D0005274D016540007224550     GGSL
TXBWIC21010-41535-24560-30000673D0094257D019600012924560     GGSL
TXBWIC21010-41535-24571-90001225D0016011D0508700482100518540 GGSL
TXBWIC21010-42204-14504-80000001D0000001D00010000002MMC      GGSL
TXBWIC21010-42206-00056-90000054D0000375D000420009056-6      GGSL
TXBWIC21010-42206-00131-30000010D0000023D0000000000T131-10   GGSL
TXBWIC21010-42206-00202-00000060D0000061D0061000070202S      GGSL
TXBWIC21010-42206-00202-10000001D0000001D0001600000202S      GGSL
TXBWIC21010-42206-00269-30000132D0000497D0018000264269       GGSL
TXBWIC21010-42206-00335-50000006D0000012D0000000000335-6     GGSL
TXBWIC21010-42206-00336-20000006D0000019D0000000000336-6     GGSL
TXBWIC21010-42206-00395-90000270D0000545D0043000070395S      GGSL
TXBWIC21010-42206-00511-30000012D0000080D0000600000511       GGSL
TXBWIC21010-42206-00525-00000070D0000166D0027100180525C      GGSL
TXBWIC21010-42206-00702-50000054D0000230D0000000012702-6     GGSL
TXBWIC21010-42206-00872-50000030D0000057D0052200060872-6     GGSL
TXBWIC21010-42206-02950-80000012D0000102D00000000002950      GGSL
TXBWIC21010-42206-03010-80000020D0000180D00204000083010-4    GGSL
TXBWIC21010-42206-03900-20000012D0000174D00000000003900H     GGSL
TXBWIC21010-42206-07800-10000072D0000396D00042001147800      GGSL
TXBWIC21010-42206-09000-30000162D0000923D00504000109000      GGSL
TXBWIC21010-42206-09002-70000030D0000096D00000000009002      GGSL
TXBWIC21010-42206-09004-10000010D0000030D00000000009004      GGSL
TXBWIC21010-42206-09009-60000040D0000520D00000000009009      GGSL
TXBWIC21010-42206-09520-60000006D0000080D00000000009520      GGSL
TXBWIC21010-42206-09620-30000033D0001042D00259000029620-8    GGSL
TXBWIC21010-42206-14058-60000528D0002693D00300000849570      GGSL
TXBWIC21010-42206-14066-10000048D0000140D00120000009560C     GGSL
TXBWIC21010-42206-14103-30000012D0000026D0000000000112       GGSL
TXBWIC21010-42206-14121-70000012D0000023D000000000053C       GGSL
TXBWIC21010-42206-14220-70000166D0000584D0037600110312S      GGSL
TXBWIC21010-42206-14221-40000128D0000218D0035000030313S      GGSL
TXBWIC21010-42206-14222-10000090D0001257D0008400078314S      GGSL
TXBWIC21010-42206-14235-10000126D0000120D0049000020390S      GGSL
TXBWIC21010-42206-14326-60000020D0000022D0000000000225S      GGSL
TXBWIC21010-42206-14328-00000060D0000029D0000000000200C      GGSL
TXBWIC21010-42206-14390-70000012D0000102D0001500000101       GGSL
TXBWIC21010-42206-14456-00000120D0000171D0033000020420C      GGSL
TXBWIC21010-42206-14501-70000024D0000019D00322000001FMC      GGSL
TXBWIC21010-42206-14502-40000054D0000037D00284000001MMC      GGSL
TXBWIC21010-42206-14503- 0000007D0000007D00020000002FMC      GGSL
TXBWIC21010-42206-14503-10000332D0000288D01202001002FMC      GGSL
TXBWIC21010-42206-14504-80000510D0000370D00999000502MMC      GGSL
TXBWIC21010-42206-14505-50000060D0000052D003040000001MC      GGSL
TXBWIC21010-42206-14506-20000254D0000224D008260007002MC      GGSL
TXBWIC21010-42206-14549-90000010D0000032D0000000000491C      GGSL
TXBWIC21010-42206-14570-30000080D0000403D0024000010ZBR3/4    GGSL
TXBWIC21010-42206-14571-00000200D0000623D0056000060ZBM3/4    GGSL
TXBWIC21010-42206-14572-70000220D0000729D0060400030ZBF3/4    GGSL
TXBWIC21010-42206-14599-40000030D0000333D00024000069536CH    GGSL
TXBWIC21010-42206-15106-30000024D0000261D000000042015106     GGSL
TXBWIC21010-42206-15109-40000006D0000046D000000000015109     GGSL
TXBWIC21010-42206-15111-70000045D0000270D001110000615111     GGSL
TXBWIC21010-42206-15366-10000010D0000046D000000000015366     GGSL
TXBWIC21010-42206-15404-00000084D0000852D000360003615404     GGSL
TXBWIC21010-42206-15549-80000005D0000075D000480003115549     GGSL
TXBWIC21010-42206-15565-80000264D0002414D0000000108R551      GGSL
TXBWIC21010-42206-20491-20000108D0000486D004760006020491-10  GGSL
TXBWIC21010-42206-22261-90000408D0003393D005220002422261     GGSL
TXBWIC21010-42206-22300-50000006D0000053D001860001822300     GGSL
TXBWIC21010-42206-22701-00000060D0000168D001860000022701C    GGSL
TXBWIC21010-42206-23701-90000070D0000197D000820000023701S    GGSL
TXBWIC21010-42206-30200-70000010D0000055D0002000000XT200     GGSL
TXBWIC21010-42206-40301-80000150D0000901D0041400440XT301     GGSL
TXBWIC21010-42206-44100-30000060D0000987D0008400108XT4100    GGSL
TXBWIC21010-42206-48635-60000084D0000443D0000000576R8635     GGSL
TXBWIC21010-42206-63015-50000033D0000872D000530001663015     GGSL
TXBWIC21010-42206-63100-80000006D0000226D000430000263100     GGSL
TXBWIC21010-42579-00000-00000072D0000436D0000000036LEAFTARP6XGGSL
TXBWIC21010-42579-10342-30000024D0000327D0000000000NB348     GGSL
TXBWIC21010-42579-11212-80000031D0001184D0000900000SSR12GRN  GGSL
TXBWIC21010-42579-11250-00000018D0006275D0002900005P12       GGSL
TXBWIC21010-42579-11500-60000110D0002130D0027900023APB5      GGSL
TXBWIC21010-42579-12342-10000060D0000681D0000000012PSS       GGSL
TXBWIC21010-42579-12346-90000048D0000084D0009600024TW3W      GGSL
TXBWIC21010-42579-13250-80000943D0019895D0165701365P3        GGSL
TXBWIC21010-42579-14250-70000228D0019633D0000800061P4        GGSL
TXBWIC21010-42579-15250-60000012D0002010D0004200045P5        GGSL
TXBWIC21010-42579-16250-50000092D0014315D0010700011P6        GGSL
TXBWIC21010-42579-18250-30000032D0007519D0003500005P8        GGSL
TXBWIC21010-42579-19342-40000408D0004341D004320014420 YR-324 GGSL
TXBWIC21010-42579-22341-10004704D0021366D03360056006 YR-350  GGSL
TXBWIC21010-42579-22342-80000486D0004012D0029400966NS12      GGSL
TXBWIC21010-42579-22345-90002616D0002392D0244703708APRC      GGSL
TXBWIC21010-42579-23100-30000160D0001120D00000000326 YR-3100 GGSL
TXBWIC21010-42579-24250-40000033D0001958D000150000020 YR-4250GGSL
TXBWIC21010-42579-25250-30000003D0000408D000190000020 YR-5250GGSL
TXBWIC21010-42579-32355-50000711D0003618D0075600140RS15      GGSL
TXBWIC21010-42579-32501-60000015D0000696D00000000056 YR-4300 GGSL
TXBWIC21010-42579-32502-30000015D0001032D00000000056 YR-6300 GGSL
TXBWIC21010-42579-43004-80000026D0002408D0005800022NB4       GGSL
TXBWIC21010-42579-43006-20000015D0001890D0003300001NB6       GGSL
TXBWIC21010-42579-43240-00000020D0000147D0002000000NB324     GGSL
TXBWIC21010-42579-50154-00000200D0005044D0019200128PRO BLK-31GGSL
TXBWIC21010-42579-50169-40000252D0003650D0019800000PRO BLK-45GGSL
TXBWIC21010-42579-50171-70000008D0000253D0000000000PRO BLK-41GGSL
TXBWIC21010-42579-63041-70000003D0000336D0002300006KG6       GGSL
TXBWIC21010-42579-63045-50000001D0000201D0000000004KG12      GGSL
TXBWIC21010-42579-63101-80000084D0003628D0001800000TSL-BX    GGSL
TXBWIC21010-42579-63105-60000024D0001198D0005200008350ROLL   GGSL
TXBWIC21010-42579-63106-30000300D0000036D0030000000CLIP-C    GGSL
TXBWIC21010-42579-63145-20000048D0000837D00000000486 YR-4100 GGSL
TXBWIC21010-42579-63306-70000792D0003803D03960006483 YR-350  GGSL
TXBWIC21010-42579-81273-80000001D0000186D0000100003K12       GGSL
TXBWIC21010-42579-81360-50000030D0003640D0008800026NS12250   GGSL
TXBWIC21010-42579-81392-60000005D0001113D0000000000WGC15     GGSL
TXBWIC21010-42579-81405-30000210D0001096D0000000000AP75      GGSL
TXBWIC21010-42579-81407-70000008D0000125D0000000000SSR6BLK   GGSL
TXBWIC21010-42579-81428-20000284D0000496D0028100102BURLAP BAGGGSL
TXBWIC21010-42579-81497-40000013D0000000D0001300020RDR + SIGNGGSL
TXBWIC21010-42579-81566-10000165D0017611D0014900040SBLT10300 GGSL
TXBWIC21010-42579-81568-50000404D0049997D0030800133SBLT12300 GGSL
TXBWIC21010-42579-81569-20000299D0050821D0037100104SBLT15.530GGSL
TXBWIC21010-42579-81571-50000217D0007718D0025600135SBLT3300  GGSL
TXBWIC21010-42579-81572-20000079D0003975D0012600035SBLT4300  GGSL
TXBWIC21010-42579-81573-90000182D0013072D0025200107SBLT6300  GGSL
TXBWIC21010-42579-81577-70000025D0010000D0000000000SUPREME24 GGSL
TXBWIC21010-42579-81605-70000033D0002221D0000300004PRO BLK-33GGSL
TXBWIC21010-42579-81606-40000046D0004154D0008900000PRO BLK-43GGSL
TXBWIC21010-42579-81607-10000072D0009966D0007600012PRO BLK-63GGSL
TXBWIC21010-42579-81608-80000001D0000176D0000900000PRO BLK-83GGSL
TXBWIC21010-42579-81619-40000028D0000951D0000100003APB1      GGSL
TXBWIC21010-42579-81624-80000180D0002220D0000000252PRO BLK-35GGSL
TXBWIC21010-42579-81626-20000032D0000498D0000000000PRO BRN-35GGSL
TXBWIC21010-42579-81733-70000081D0004317D0004000000CS-3300BLKGGSL
TXBWIC21010-42579-81734-40000004D0000296D0007300002CS-4300BLKGGSL
TXBWIC21010-42579-81735-10000028D0002860D0005300003CS-6300BLKGGSL
TXBWIC21010-42579-81738-20000001D0000229D0000800000CS-350BLK GGSL
TXBWIC21010-42579-81739-90000010D0002091D0001200001CS-3100BLKGGSL
TXBWIC21010-42579-82224-90000032D0000171D0000000000DELUXE650 GGSL
TXBWIC21010-42579-82278-20000360D0003230D0000000072TWBAG-12  GGSL
TXBWIC21010-42579-82293-50000168D0000845D0005601904SUPREME625GGSL
TXBWIC21010-42579-82311-60000002D0000000D0000000001BDR       GGSL
TXBWIC21010-42579-82340-60000007D0000138D0000000007BPN2828   GGSL
TXBWIC21010-42579-82341-30000006D0000233D0000000000DDF7100PROGGSL
TXBWIC21010-42597-81409-10000001D0000015D0000000000COUNTER2  GGSL
TXBWIC21010-42853-00000-00000289D0014665D0035600361BFTD-DB12 GGSL
TXBWIC21010-42853-10000-10000019D0000613D0013200004ST3-BB4   GGSL
TXBWIC21010-42853-14000-70000003D0000418D0000000000PMT2-FD30 GGSL
TXBWIC21010-42853-42000-00000624D0002549D0023400822TSBF-BB6  GGSL
TXBWIC21010-42853-50000-90000077D0007152D0066000803TSW-BB6   GGSL
TXBWIC21010-42853-60000-00000002D0000306D0000000000FFTR-FD48 GGSL
TXBWIC21010-42853-61000-50000028D0000127D0004400072FFTR2-BB4 GGSL
TXBWIC21010-42853-62000-40000012D0000015D0019200048FFTA-DB12 GGSL
TXBWIC21010-42853-65000-10000012D0000045D0000000220AB6-BB4   GGSL
TXBWIC21010-42853-77305-40000047D0001916D0066200263FTD-DB12  GGSL
TXBWIC21010-42853-77603-90000002D0000078D0000100000YJTD-DB12-GGSL
TXBWIC21010-42854-03298-10000372D0000928D0000000144FG32ORB112GGSL
TXBWIC21010-42854-09098-10000001D0000224D0000000000FG32ORB190GGSL
TXBWIC21010-42854-63278-50000108D0000242D0018000132FG32PC1-12GGSL
TXBWIC21010-42854-64870-00000024D0000153D0011400024FG48PC1-6 GGSL
TXBWIC21010-42854-93200-70000012D0000061D0006000000FG32SM1-12GGSL
TXBWIC21010-43168-50312-90000001D0000039D000000000093101230  GGSL
TXBWIC21010-43168-50313-60000001D0000047D000000000093101231  GGSL
TXBWIC21010-43256-28165-60000008D0000287D0000200002DT160     GGSL
TXBWIC21010-43256-28167-00000004D0000179D0000200000DT160-DEC2GGSL
TXBWIC21010-43256-29051-10000005D0000392D0000200002DT1260    GGSL
TXBWIC21010-43256-33050-70000003D0000155D0000400050DT1050    GGSL
TXBWIC21010-43312-10003-70000398D0001141D0112100000103-0-009 GGSL
TXBWIC21010-43312-10027-30000072D0000675D0018000000104-0-003 GGSL
TXBWIC21010-43326-16720-00000048D0000353D0000000000A8X10-P8  GGSL
TXBWIC21010-43326-16740-80000006D0000093D0000000033A12X14-P3 GGSL
TXBWIC21010-43326-17710-00000036D0000114D0000000000BRB6X8-P  GGSL
TXBWIC21010-43326-17720-90000008D0000042D0000000000BRB8X10-P GGSL
TXBWIC21010-43326-17745-20000008D0000103D0000000000BRB12X16-PGGSL
TXBWIC21010-43326-31031-60000050D0000011D0000000000SNUG08BLK-GGSL
TXBWIC21010-43326-59578-20000002D0000200D0001000002G12X26    GGSL
TXBWIC21010-43326-59732-80000020D0000641D0000000015G10X12    GGSL
TXBWIC21010-43326-59736-60000004D0000171D0000000008G10X16    GGSL
TXBWIC21010-43326-59748-90000006D0000346D0000000000G12X18    GGSL
TXBWIC21010-43326-59771-70000004D0000192D0000000000G10X18    GGSL
TXBWIC21010-43326-59772-40000003D0000192D0000000012G12X20    GGSL
TXBWIC21010-43792-50001-30000399D0011929D0005500110Y32       GGSL
TXBWIC21010-43792-60002-70000429D0013627D0009300134W32       GGSL
TXBWIC21010-43792-70002-40000293D0009822D0000900083R32       GGSL
TXBWIC21010-43792-80001-40000153D0004714D0003200117SW10      GGSL
TXBWIC21010-43792-90003-50000126D0005130D0001400030GA10      GGSL
TXBWIC21010-43792-90004-20000015D0001371D0000300006GA30      GGSL
TXBWIC21010-44882-30115-20000025D0000210D0000000125WS50      GGSL
TXBWIC21010-44882-30501-30000110D0001002D0002000025FXG5825   GGSL
TXBWIC21010-44882-30502-00000115D0001887D0000000125FXG5850   GGSL
TXBWIC21010-44882-30504-40000066D0001582D0000000093FXG5875   GGSL
TXBWIC21010-44882-30506-80000066D0002138D0000000048FXG58100  GGSL
TXBWIC21010-46539-62045-60001893D0023661D0613500430          GGSL
TXBWIC21010-46539-64032-40002795D0023857D0303601321          GGSL
TXBWIC21010-46753-01032-30000084D0000319D00162000064675301032GGSL
TXBWIC21010-46753-01128-30000112D0000993D00104000044675301128GGSL
TXBWIC21010-46753-01500-70000009D0000392D0001100000          GGSL
TXBWIC21010-46753-02032-20000168D0000760D00207000004675302032GGSL
TXBWIC21010-46753-02128-20000088D0001018D00168000004675302128GGSL
TXBWIC21010-46753-03128-10000044D0000573D00136000004675303128GGSL
TXBWIC21010-46753-04032-00000216D0001208D00772000124675304032GGSL
TXBWIC21010-46753-04033-70000238D0001953D00586003722004675304GGSL
TXBWIC21010-46753-04128-00000348D0004591D00440002284675304128GGSL
TXBWIC21010-46753-04500-40000008D0000483D000240000245004     GGSL
TXBWIC21010-46753-04550-90000001D0000594D000010000045509     GGSL
TXBWIC21010-46753-05032-90000222D0001855D00306004144675305032GGSL
TXBWIC21010-46753-05128-90000128D0001708D00220001324675305128GGSL
TXBWIC21010-46753-07032-70000036D0000176D00147000004675307032GGSL
TXBWIC21010-46753-07128-70000008D0000114D00004000124675307128GGSL
TXBWIC21010-46753-08016-60000048D0000384D000000004880160     GGSL
TXBWIC21010-46753-08032-60000909D0013657D01506005464675308032GGSL
TXBWIC21010-46753-14032-70000256D0000979D00352000044675314032GGSL
TXBWIC21010-46753-14128-70000192D0001347D00276000324675314128GGSL
TXBWIC21010-46753-14550-60000001D0000264D000000000014550     GGSL
TXBWIC21010-46753-17005-80000042D0000187D00294000004675317005GGSL
TXBWIC21010-46753-17040-90001689D0022159D01256001154675317040GGSL
TXBWIC21010-46753-19032-20000036D0000193D00000000482004675319GGSL
TXBWIC21010-46753-19128-20000044D0000532D0000000024          GGSL
TXBWIC21010-46753-20128-80000012D0000181D0000000004          GGSL
TXBWIC21010-46753-21032-70000380D0001829D002240049210327     GGSL
TXBWIC21010-46753-21128-70000432D0005250D003320039612287     GGSL
TXBWIC21010-46753-22020-30000002D0000024D000030000020203     GGSL
TXBWIC21010-46753-22550-50000001D0000527D000000000025505     GGSL
TXBWIC21010-47977-00059-60000004D0000058D000000000024701     GGSL
TXBWIC21010-47977-00064-00000002D0000036D000000000024700     GGSL
TXBWIC21010-47977-00081-70000001D0000023D000000000023830     GGSL
TXBWIC21010-47977-00100-50000006D0000199D00000000007511I     GGSL
TXBWIC21010-47977-00498-30000002D0000055D000000000023804     GGSL
TXBWIC21010-47977-00561-40000001D0000059D000000000024603     GGSL
TXBWIC21010-47977-00601-70000002D0000018D000000000023952     GGSL
TXBWIC21010-47977-00797-70000004D0000036D000000000024111     GGSL
TXBWIC21010-47977-00804-20000002D0000062D000000000023837     GGSL
TXBWIC21010-47977-00807-30000002D0000055D000000000023807     GGSL
TXBWIC21010-47977-00893-60000004D0000035D000000000024109     GGSL
TXBWIC21010-47977-00896-70000004D0000048D000000000024102     GGSL
TXBWIC21010-47977-01051-90000001D0000029D000000000024004     GGSL
TXBWIC21010-47977-01194-30000002D0000043D000000000023839     GGSL
TXBWIC21010-47985-10023-30000220D0001582D0010200044YCBSM3CF-PGGSL
TXBWIC21010-47985-10033-20000726D0005292D0056600308YCBSI3CF-PGGSL
TXBWIC21010-48307-70003-20000024D0000200D0006100001ST3       GGSL
TXBWIC21010-48307-70004-90000034D0000345D0015700003ST4-WS    GGSL
TXBWIC21010-48307-70006-30000037D0000484D0015100003ST6       GGSL
TXBWIC21010-48745-22244-80000032D0000705D0010800000BL22244   GGSL
TXBWIC21010-48745-34532-10000060D0000596D00006000000348206   GGSL
TXBWIC21010-50197-00104-50001002D0004494D0151400396HT4       GGSL
TXBWIC21010-50197-00108-30000204D0001307D0031800036HT8       GGSL
TXBWIC21010-50197-00118-20001050D0011982D0072400080HT18      GGSL
TXBWIC21010-50197-00136-60000073D0001426D0045000223HT36      GGSL
TXBWIC21010-50197-00150-20000090D0002081D0059000023HT50      GGSL
TXBWIC21010-50197-00204-20001878D0007756D0121103672PT4       GGSL
TXBWIC21010-50197-00208-00000048D0000345D0022200072PT8       GGSL
TXBWIC21010-50197-00218-90000531D0005943D0031300027PT18      GGSL
TXBWIC21010-50197-00236-30000112D0002300D0034300151PT36      GGSL
TXBWIC21010-50197-00250-90000039D0000935D0004900000PT50      GGSL
TXBWIC21010-50197-00304-90002508D0010471D0197301608GT4       GGSL
TXBWIC21010-50197-00308-70000048D0000301D0000100018GT8       GGSL
TXBWIC21010-50197-00318-60000382D0004401D0021600082GT18      GGSL
TXBWIC21010-50197-00336-00000173D0003420D0007600085GT36      GGSL
TXBWIC21010-50197-00404-60001518D0006640D0176901590RT4       GGSL
TXBWIC21010-50197-00408-40000132D0000978D0040200006RT8       GGSL
TXBWIC21010-50197-00418-30000327D0004039D0050100092RT18      GGSL
TXBWIC21010-50197-00604-00000540D0002302D0049500774BT4       GGSL
TXBWIC21010-50197-00618-70000004D0000043D0000000005BT18      GGSL
TXBWIC21010-50197-00704-70000606D0002589D0075700216TR4       GGSL
TXBWIC21010-50197-00718-40000211D0002284D0013800052TR18      GGSL
TXBWIC21010-50197-00736-80000004D0000091D0001300000TR36      GGSL
TXBWIC21010-50197-00904-10002676D0011036D0153605304TO4       GGSL
TXBWIC21010-50197-00908-60000180D0001259D0033000084TO8       GGSL
TXBWIC21010-50197-00918-80000251D0003001D0013200021TO18      GGSL
TXBWIC21010-50197-01004-70000312D0001443D0013201140BM04      GGSL
TXBWIC21010-50197-01106-80000018D0000146D0000000000gs6       GGSL
TXBWIC21010-50197-01130-30000006D0000135D0000000000gs30      GGSL
TXBWIC21010-50197-01207-20000186D0001174D0045600042RP7       GGSL
TXBWIC21010-50197-01228-70000047D0000791D0020300031RP28      GGSL
TXBWIC21010-50197-01303-10000192D0001158D0032401164DB03      GGSL
TXBWIC21010-50197-01317-80000013D0000430D0012100016DB17      GGSL
TXBWIC21010-50197-01403-80000096D0000503D0002400000CM3       GGSL
TXBWIC21010-50197-01706-00000036D0000288D0000000006PO6       GGSL
TXBWIC21010-50197-01803-60001272D0003837D0013200072GM3       GGSL
TXBWIC21010-50197-01825-80001038D0009292D0007300017GM25      GGSL
TXBWIC21010-50197-01905-70000078D0000339D0004200012GF5105/6  GGSL
TXBWIC21010-50197-02006-00000390D0000916D0083400390GL6       GGSL
TXBWIC21010-50197-02206-40000402D0001901D0082000318GG6       GGSL
TXBWIC21010-50197-02304-70000024D0000090D0000000000CS4       GGSL
TXBWIC21010-50197-02703-80000096D0000898D0000000048KM4       GGSL
TXBWIC21010-50197-02805-90001625D0007789D0003600072GF101010/6GGSL
TXBWIC21010-50197-02904-90001308D0005522D0081601188FT4       GGSL
TXBWIC21010-50197-02918-60000201D0002195D0026500013FT18      GGSL
TXBWIC21010-50197-03802-70000080D0000102D0016000000BTSP5OZ   GGSL
TXBWIC21010-50197-03804-10004781D0023750D0222901962BTSP4     GGSL
TXBWIC21010-50197-03808-90000042D0000365D0000000000BTSP8     GGSL
TXBWIC21010-50197-03818-80000063D0001064D0010700005BTSP18    GGSL
TXBWIC21010-50197-03825-60000758D0017540D0022900138BTSP25    GGSL
TXBWIC21010-50197-03904-80000498D0002271D0094001080PM4       GGSL
TXBWIC21010-50197-03920-80000009D0000118D0004500109PM20      GGSL
TXBWIC21010-50197-05004-30002058D0009101D0171602934CT4       GGSL
TXBWIC21010-50197-05018-00000439D0005215D0022900069CT18      GGSL
TXBWIC21010-50197-05225-20000005D0000135D0000000007CGP25     GGSL
TXBWIC21010-50197-05320-40000121D0001796D0004800239ELF20     GGSL
TXBWIC21010-50197-05405-80000240D0001085D0013300096IT5       GGSL
TXBWIC21010-50197-05420-10000032D0000381D0013400000it20      GGSL
TXBWIC21010-50197-05614-40000012D0000161D0000000012EOLF14    GGSL
TXBWIC21010-50197-05628-10000007D0000173D0013200041EOLF28    GGSL
TXBWIC21010-50197-05730-10000005D0000123D0002900000EOSR30    GGSL
TXBWIC21010-50197-05830-80000005D0000123D0000000000EOFW30    GGSL
TXBWIC21010-50197-06101-80000036D0000235D0000000096BG1       GGSL
TXBWIC21010-50197-06203-90000024D0000108D0004800000AL3       GGSL
TXBWIC21010-50197-06504-70000708D0002966D0081601704AT4       GGSL
TXBWIC21010-50197-06508-50000078D0000465D0005400012AT8       GGSL
TXBWIC21010-50197-06518-40000059D0000638D0004100000AT18      GGSL
TXBWIC21010-50197-06604-40000489D0002089D0040800216BR4       GGSL
TXBWIC21010-50197-06708-90000072D0000452D0000600000ET8       GGSL
TXBWIC21010-50197-06718-80000020D0000240D0000200000ET18      GGSL
TXBWIC21010-50197-30418-40000167D0000960D0005400072BL18      GGSL
TXBWIC21010-50197-30508-20000126D0000517D0000000018INPF8     GGSL
TXBWIC21010-50197-30608-90000198D0000803D0001800024CAPF8     GGSL
TXBWIC21010-50197-30708-60000156D0000641D0001200006VIPF8     GGSL
TXBWIC21010-50197-30808-30000198D0000772D0001200012ORPF8     GGSL
TXBWIC21010-50197-30924-00000018D0000094D0000600000FI24-6    GGSL
TXBWIC21010-50197-31208-00000060D0000246D0000000006ctpf8     GGSL
TXBWIC21010-50197-31308-70000036D0000149D0000000012TOPF8     GGSL
TXBWIC21010-50197-31318-60000054D0000340D0009600000topf18    GGSL
TXBWIC21010-50197-51524-50000006D0000033D0000000006EOIC24    GGSL
TXBWIC21010-50197-51824-60000006D0000036D0001200000eowk24    GGSL
TXBWIC21010-50197-70101-30000043D0000343D0023700020ap1       GGSL
TXBWIC21010-50197-70102-00000107D0001445D0031200022ap2       GGSL
TXBWIC21010-50197-70304-80000388D0000921D0064800136ca4-8     GGSL
TXBWIC21010-50197-70308-60000252D0001005D0003600264ca8x      GGSL
TXBWIC21010-50197-70516-50000045D0000259D0000000008SS16      GGSL
TXBWIC21010-50197-70608-70000042D0000156D0007200012PTM8      GGSL
TXBWIC21010-50197-70701-50000019D0000219D0000000000PR1       GGSL
TXBWIC21010-50197-71201-90000075D0000616D0000000000mm1       GGSL
TXBWIC21010-50197-71202-60000048D0000610D0002500000mm2       GGSL
TXBWIC21010-50197-71208-80000024D0000109D0002400000MM8       GGSL
TXBWIC21010-50197-71304-70000444D0002408D0003600420EC4       GGSL
TXBWIC21010-50197-71501-00000163D0001017D0016500021lsc1      GGSL
TXBWIC21010-50197-71601-70000142D0000721D0056900000dcm1      GGSL
TXBWIC21010-50197-71904-90000168D0001036D0004800012HC4       GGSL
TXBWIC21010-50197-80117-10000003D0000031D0046500000SC17      GGSL
TXBWIC21010-50349-01037-60000001D0000078D00000000021037-012  GGSL
TXBWIC21010-50349-01039-00000001D0000073D00000000041039-012  GGSL
TXBWIC21010-50349-01052-90000003D0000163D00000000001052-012  GGSL
TXBWIC21010-50349-01061-10000003D0000164D00000000001061-012  GGSL
TXBWIC21010-50349-01069-70000040D0000147D00000000201069-012  GGSL
TXBWIC21010-50349-01072-70000003D0000203D00000000001072-012  GGSL
TXBWIC21010-50349-01078-30000004D0002539D00000000021023-017  GGSL
TXBWIC21010-50349-10110-50000002D0000133D00000000001022-012  GGSL
TXBWIC21010-50349-11155-40000003D0000207D00000000001055-082  GGSL
TXBWIC21010-50349-18885-30000005D0000070D00000000008885-034  GGSL
TXBWIC21010-50699-00000-00000002D0000019D0000600000303460    GGSL
TXBWIC21010-50699-00001-00000005D0000046D0001800001300001    GGSL
TXBWIC21010-50699-00014-00000003D0000013D0001900000300014    GGSL
TXBWIC21010-50699-00128-10000002D0000056D0002400000300128    GGSL
TXBWIC21010-51497-15464-60000007D0000938D000530000215464     GGSL
TXBWIC21010-52427-60012-70000005D0000290D000000000060121     GGSL
TXBWIC21010-52427-60109-40000001D0000022D00000000006010902   GGSL
TXBWIC21010-52732-00000-00000075D0003348D00024000602030.0    GGSL
TXBWIC21010-52732-10012-10000041D0004556D00338000091001-B    GGSL
TXBWIC21010-52732-10225-50000009D0000239D000590000060009.0   GGSL
TXBWIC21010-52732-10230-90000002D0000049D000000000060010     GGSL
TXBWIC21010-52732-20505-50000041D0003230D00156000052050SU    GGSL
TXBWIC21010-52732-20509-30000072D0008836D00197000112050P     GGSL
TXBWIC21010-52732-20519-20000019D0002436D00029000002050TP    GGSL
TXBWIC21010-52732-21500-90000001D0000211D00001000002150      GGSL
TXBWIC21010-52732-21700-30000004D0000940D00000000002170      GGSL
TXBWIC21010-52732-27500-30000300D0011728D00832000252750      GGSL
TXBWIC21010-52732-34000-80000002D0000042D00015000003400.0    GGSL
TXBWIC21010-52732-65000-80000023D0002928D00000000036500.0    GGSL
TXBWIC21010-52732-68016-60000001D0000239D0000000036F80       GGSL
TXBWIC21010-53291-11002-60000168D0001666D0090000024820-1002  GGSL
TXBWIC21010-53291-19937-30000036D0000063D0015600000820-0409  GGSL
TXBWIC21010-53291-30000-00000004D0001076D0002600000820-1024  GGSL
TXBWIC21010-53291-40091-20000001D0000074D0000300000840-0091  GGSL
TXBWIC21010-53291-40095-00000006D0000095D0004200000840-0095  GGSL
TXBWIC21010-53291-41210-60000006D0000054D0000000000840-1210  GGSL
TXBWIC21010-53291-41221-20000006D0000054D0000000000840-1221  GGSL
TXBWIC21010-53291-50050-30000004D0000130D0001200000850-0050  GGSL
TXBWIC21010-53291-55981-80000120D0000450D0055200000820-0188  GGSL
TXBWIC21010-56554-10517-30000004D0000046D0000000000MSA16001E2GGSL
TXBWIC21010-56554-10518-00000004D0000062D0000000000MSA20001E2GGSL
TXBWIC21010-56554-10580-70000006D0000065D0000000000AOS13000P2GGSL
TXBWIC21010-56554-10581-40000006D0000115D0000000000AOS16000P2GGSL
TXBWIC21010-56554-31058-40000004D0000030D0000000000SRA10001P0GGSL
TXBWIC21010-56554-31063-80000004D0000030D0000000000SRA10001P0GGSL
TXBWIC21010-56554-31344-80000003D0000034D0000000000SRA13001P0GGSL
TXBWIC21010-56554-31358-50000006D0000068D0000000000SRA13001P0GGSL
TXBWIC21010-56554-31363-90000006D0000068D0000000000SRA13001P0GGSL
TXBWIC21010-56554-82534-70000006D0000037D0000000000SAA12001G1GGSL
TXBWIC21010-56554-91959-60000002D0000105D0000200000KTX16000E5GGSL
TXBWIC21010-56554-92105-60000108D0000369D0000000000LIA10000A4GGSL
TXBWIC21010-56554-92106-30000144D0000764D0000000000LIA12000A4GGSL
TXBWIC21010-56554-92107-00000108D0000745D0000000000LIA14000A4GGSL
TXBWIC21010-56554-92108-70000108D0001142D0000000000LIA16000A4GGSL
TXBWIC21010-56554-92113-10000060D0000109D0001200000SLI10000A4GGSL
TXBWIC21010-56554-92114-80000060D0000185D0001200000SLI12000A4GGSL
TXBWIC21010-56554-92115-50000048D0000156D0000000000SLI14000A4GGSL
TXBWIC21010-56554-92116-20000060D0000219D0000000000SLI17000A4GGSL
TXBWIC21010-66498-01115-70000265D0005185D006460000001115.0   GGSL
TXBWIC21010-66498-02115-60005212D0069313D064160147302775.0   GGSL
TXBWIC21010-66498-02185-90000642D0007481D004890003402185     GGSL
TXBWIC21010-66498-02330-90000240D0005052D00000000006649802330GGSL
TXBWIC21010-66498-03175-90000915D0009370D000000000203175     GGSL
TXBWIC21010-66498-04175-80001846D0017631D008440039604175.0   GGSL
TXBWIC21010-66498-05113-90001275D0007487D008900028705175.0   GGSL
TXBWIC21010-66498-08781-30000025D0000163D00000000009781      GGSL
TXBWIC21010-66498-09776-20000010D0000113D001990000009776     GGSL
TXBWIC21010-66498-09785-40000006D0000023D000060000009785     GGSL
TXBWIC21010-66498-09795-30000160D0001552D000740000009795     GGSL
TXBWIC21010-66498-09901-80004401D0025482D033840062509901.0   GGSL
TXBWIC21010-66498-09902-50005610D0052126D019700197609902.0   GGSL
TXBWIC21010-66498-09903-20004525D0056997D013480039809903.0   GGSL
TXBWIC21010-66498-09925-40001182D0004241D004500015609925     GGSL
TXBWIC21010-66498-09929-20000147D0000794D001670001909929     GGSL
TXBWIC21010-66498-09937-70003888D0010102D004920146409937     GGSL
TXBWIC21010-66498-09939-10000322D0002784D000000005509939     GGSL
TXBWIC21010-66498-09947-60001152D0002979D004540062409947     GGSL
TXBWIC21010-66498-09950-50001866D0008611D001800093009955     GGSL
TXBWIC21010-66498-09965-00001253D0007293D001320081609965     GGSL
TXBWIC21010-66498-09977-30000792D0004231D003240008409977     GGSL
TXBWIC21010-66498-09985-80000522D0001954D003600055809985     GGSL
TXBWIC21010-66498-89905-20002052D0007479D009860032409905     GGSL
TXBWIC21010-66498-99827-40001392D0005307D005040037209827     GGSL
TXBWIC21010-70183-50005-50001984D0053341D00288000085000510   GGSL
TXBWIC21010-70183-50006-20001230D0044207D00096000125000610   GGSL
TXBWIC21010-70183-50023-90000180D0004421D00114000305002306   GGSL
TXBWIC21010-70183-50026-00005304D0058974D00460000285002610   GGSL
TXBWIC21010-70183-50027-70000576D0002448D00126000125002715   GGSL
TXBWIC21010-70183-50029-10000104D0001206D00260000205007410   GGSL
TXBWIC21010-70183-50030-70000048D0000183D00000000005003090   GGSL
TXBWIC21010-70183-50034-50007724D0031487D01359009125003470   GGSL
TXBWIC21010-70183-50038-30001568D0018487D00264000045003810   GGSL
TXBWIC21010-70183-50042-00000084D0007476D00025000015004215   GGSL
TXBWIC21010-70183-50055-00005724D0065019D00672000725005510   GGSL
TXBWIC21010-70183-50060-40000654D0022108D00174000005006010   GGSL
TXBWIC21010-70183-51001-60003460D0059980D00784000245100114   GGSL
TXBWIC21010-70183-51006-10007061D0190157D00816000605100610   GGSL
TXBWIC21010-70183-51007-80000480D0018108D00156000065100710   GGSL
TXBWIC21010-70183-51009-20000168D0002214D00064000245004010   GGSL
TXBWIC21010-70183-51019-10001840D0036036D00096000045101910   GGSL
TXBWIC21010-70183-51073-30001440D0006806D00330000125107315   GGSL
TXBWIC21010-70183-51090-00002488D0107434D00313002885109010   GGSL
TXBWIC21010-70183-52005-30000128D0002650D00028000045200510   GGSL
TXBWIC21010-70183-52039-80000596D0012886D00132000005203910   GGSL
TXBWIC21010-70183-52350-40000072D0001686D00016000005235010   GGSL
TXBWIC21010-70183-57050-80001170D0033323D00126000125705010   GGSL
TXBWIC21010-70183-57080-50000596D0009359D00008000005708010   GGSL
TXBWIC21010-70183-57250-20000904D0019033D00100000365725070   GGSL
TXBWIC21010-70251-65240-20000004D0000112D0002700000652400    GGSL
TXBWIC21010-70251-76116-60000324D0003329D0062100048761160    GGSL
TXBWIC21010-70251-79140-80000012D0000088D0000000000791400    GGSL
TXBWIC21010-70251-79160-60000012D0000103D0045000000791600    GGSL
TXBWIC21010-70251-81482-40000210D0001249D02193000848141082   GGSL
TXBWIC21010-70735-00000-00000024D0000032D0012000024CHINAMARKEGGSL
TXBWIC21010-70805-51001-10000810D0001791D011600011070805-010-GGSL
TXBWIC21010-70805-51002-80000580D0002443D004500006070805-005-GGSL
TXBWIC21010-70805-51013-40002092D0026990D0073100048BD02      GGSL
TXBWIC21010-70805-51024-00000138D0000360D000660003070805-006-GGSL
TXBWIC21010-70805-51025-70006250D0066855D018290009870805-001-GGSL
TXBWIC21010-70805-51026-40000264D0000765D000060008470805-006-GGSL
TXBWIC21010-70805-51033-20000440D0005236D003750001670805-001-GGSL
TXBWIC21010-70805-51034-90000445D0010331D003630002770805-001-GGSL
TXBWIC21010-70805-51037-00000010D0000098D001160000070805-001-GGSL
TXBWIC21010-70805-51038-70000034D0000618D001770000070805-001-GGSL
TXBWIC21010-70805-51051-60000271D0001638D000870004070805-008-GGSL
TXBWIC21010-70805-53003-30001694D0011890D0129100188BD021     GGSL
TXBWIC21010-70805-62025-30011075D0213868D024550068370805-001-GGSL
TXBWIC21010-70805-84052-10000055D0001241D0003000002KERNEL_M-0GGSL
TXBWIC21010-70805-84053-80000136D0002876D001390001570805-001-GGSL
TXBWIC21010-70805-84054-50000188D0002635D003850001270805-001-GGSL
TXBWIC21010-70805-84071-20000018D0000404D0003100003REDMILLET-GGSL
TXBWIC21010-70805-84075-00000687D0017555D009750013170805-001-GGSL
TXBWIC21010-70805-84076-70000234D0009955D000810000670805-001-GGSL
TXBWIC21010-70805-84077-40000026D0001129D0004800000KERNEL_M-0GGSL
TXBWIC21010-70805-84079-80000227D0009187D002330000670805-001-GGSL
TXBWIC21010-70805-84093-40000072D0003136D0006400006PEANUTSPL-GGSL
TXBWIC21010-70923-00000-00000120D0000630D0037200048600.0     GGSL
TXBWIC21010-70923-00196-50000204D0000413D0057600048T100-12   GGSL
TXBWIC21010-70923-00300-60000507D0006577D0228100073T300FD    GGSL
TXBWIC21010-70923-00402-70000012D0000037D0000000000T401-6    GGSL
TXBWIC21010-70923-00912-10000030D0000149D0016200018T901-6    GGSL
TXBWIC21010-70923-02301-10000012D0000038D0006000006T2302-6   GGSL
TXBWIC21010-70923-02900-60000076D0000384D0064400008T2900     GGSL
TXBWIC21010-70923-03300-30000006D0000021D0000000000T3300-6   GGSL
TXBWIC21010-70923-08515-60000048D0000082D0021600480T3206     GGSL
TXBWIC21010-70923-11915-80000002D0000418D0000100014T2502-DS  GGSL
TXBWIC21010-70923-12277-60000030D0000144D0007200018T1812     GGSL
TXBWIC21010-70923-29432-90000024D0000198D0009600006T514      GGSL
TXBWIC21010-70923-85843-90000012D0000031D0000600000T513      GGSL
TXBWIC21010-71092-32500-80000186D0000844D0100800048T2506     GGSL
TXBWIC21010-71121-04460- 0000012D0000109D0004200000HG-61067  GGSL
TXBWIC21010-71121-05580-40000072D0000536D00954000125580      GGSL
TXBWIC21010-71121-53940-30000080D0000662D0002000000HG-53944  GGSL
TXBWIC21010-71121-59000-80000006D0000033D0000000000hg-69000  GGSL
TXBWIC21010-71121-95704-70000036D0000198D0007800000HG-95704  GGSL
TXBWIC21010-71121-95916-40000024D0000140D0000000000HG-95916  GGSL
TXBWIC21010-71121-96187-70000006D0000088D0005400000hg-96187  GGSL
TXBWIC21010-71121-96280-50000012D0000055D0000000000HG-96280  GGSL
TXBWIC21010-71121-96281-20000072D0000335D0089400012HG-96281  GGSL
TXBWIC21010-71549-01128-40000136D0000357D00144001520112812   GGSL
TXBWIC21010-71549-01129-10000320D0012774D00104001760112912   GGSL
TXBWIC21010-71549-01656-20000018D0000127D00183002040165610   GGSL
TXBWIC21010-71549-01666-10000126D0001419D00000000000166610   GGSL
TXBWIC21010-71549-01674-60000042D0000263D00084000000167442   GGSL
TXBWIC21010-71549-01738-50000354D0002785D00138000180173810   GGSL
TXBWIC21010-71549-01748-40000030D0000253D00093000000174810   GGSL
TXBWIC21010-71549-01936-50000603D0003356D00147000000193610   GGSL
TXBWIC21010-71549-02003-30000524D0007356D00220000040200310   GGSL
TXBWIC21010-71549-02014-90000180D0001018D00132000000201405   GGSL
TXBWIC21010-71549-02022-40000008D0000027D00000001280202212   GGSL
TXBWIC21010-71549-02023-10000048D0000162D00000000000202310   GGSL
TXBWIC21010-71549-02028-60000008D0000025D00008000000202812   GGSL
TXBWIC21010-71549-02029-30000246D0000935D00012000000202912   GGSL
TXBWIC21010-71549-02030-90000006D0000050D00018000000203012   GGSL
TXBWIC21010-71549-02044-60000116D0000860D00100000000204410   GGSL
TXBWIC21010-71549-02045-30000020D0000238D00032000000204510   GGSL
TXBWIC21010-71549-02046-00000012D0000089D00000000000204610   GGSL
TXBWIC21010-71549-02047-70000612D0003365D00384000000204710   GGSL
TXBWIC21010-71549-02048-40000060D0001441D00000000000204810   GGSL
TXBWIC21010-71549-02049-10000456D0002951D00336000000204910   GGSL
TXBWIC21010-71549-02054-50000160D0000874D00016000080205408   GGSL
TXBWIC21010-71549-02055-20001752D0003556D01494000240205506   GGSL
TXBWIC21010-71549-02057-60000066D0000246D00120000000205710   GGSL
TXBWIC21010-71549-02127-60000040D0000455D00016000000212710   GGSL
TXBWIC21010-71549-02208-20008548D0069856D00628000960220810   GGSL
TXBWIC21010-71549-02219-80000696D0004680D00008000000221910   GGSL
TXBWIC21010-71549-02575-50000018D0005912D00000000000200328   GGSL
TXBWIC21010-71549-02756-80000672D0001608D00176000160275612   GGSL
TXBWIC21010-71549-02822-00003123D0029894D01380007680282210   GGSL
TXBWIC21010-71549-03320-00000012D0000192D00000000000332010   GGSL
TXBWIC21010-71549-03390-30000012D0000130D00000000000339010   GGSL
TXBWIC21010-71549-03455-90000072D0000357D00000000060345510   GGSL
TXBWIC21010-71549-03456-60000318D0001303D00060002280345610   GGSL
TXBWIC21010-71549-03964-60000246D0001558D00036000000396410   GGSL
TXBWIC21010-71549-03987-50000249D0002596D00009000000398710   GGSL
TXBWIC21010-71549-04243-10000006D0000065D00000000180424310   GGSL
TXBWIC21010-71549-04253-00000244D0001508D00000000000425310   GGSL
TXBWIC21010-71549-04256-10000020D0005972D00000000000425610   GGSL
TXBWIC21010-71549-04318-60000408D0001631D00492000129994318   GGSL
TXBWIC21010-71549-04378-00000180D0001451D00510000720437806   GGSL
TXBWIC21010-71549-04380-30000344D0001217D00096001440438006   GGSL
TXBWIC21010-71549-04385-80001938D0007875D00381007380438580   GGSL
TXBWIC21010-71549-04465-70001536D0018677D00000000000446505   GGSL
TXBWIC21010-71549-04475-60001480D0022025D00032000000447505   GGSL
TXBWIC21010-71549-04477-00001932D0008380D00072000000447705   GGSL
TXBWIC21010-71549-04478-70001752D0014903D00096000000447805   GGSL
TXBWIC21010-71549-04479-40001356D0010777D00324000000447905   GGSL
TXBWIC21010-71549-04481-70001452D0012198D00144000000448105   GGSL
TXBWIC21010-71549-04486-20001692D0012677D00000000000448605   GGSL
