NJARET20110-10367-00001-80000150D0000623D00017000000001      GGSL
NJARET20110-10367-00110-70000972D0006311D00079000150110      GGSL
NJARET20110-10367-00130-50000006D0000282D00004000000130      GGSL
NJARET20110-10367-00150-30000011D0000321D00003000030150      GGSL
NJARET20110-10367-00460-30000056D0000268D000010000004608     GGSL
NJARET20110-10367-00470-20000048D0000588D00027000000470      GGSL
NJARET20110-10367-00550-10000216D0000631D00005000020550      GGSL
NJARET20110-10367-00570-90000036D0000204D00002000000570      GGSL
NJARET20110-10367-00810-60000012D0000068D0000900001ML0810    GGSL
NJARET20110-10367-01050-50000024D0000303D00000000001050      GGSL
NJARET20110-10367-01110-60000176D0000582D00029000181110      GGSL
NJARET20110-10367-01111-30000136D0000449D00069000181111      GGSL
NJARET20110-10367-01112-00000344D0001182D00021000091112      GGSL
NJARET20110-10367-01120-50000432D0001245D00090000111120      GGSL
NJARET20110-10367-01121-20000384D0002260D00036000181121      GGSL
NJARET20110-10367-01122-90000800D0004687D00026000101122      GGSL
NJARET20110-10367-01130-40000448D0002424D00057000121130      GGSL
NJARET20110-10367-01140-30000064D0000215D00029000041140      GGSL
NJARET20110-10367-01151-90000080D0000268D00025000101151      GGSL
NJARET20110-10367-01160-10000096D0000751D00018000031160      GGSL
NJARET20110-10367-01161-80000008D0000063D00000000001161      GGSL
NJARET20110-10367-02121-10000024D0000114D0000200001ML2121    GGSL
NJARET20110-10367-02131-00000008D0000038D0000000000ML2131    GGSL
NJARET20110-10367-02141-90000008D0000038D0000300002ML2141    GGSL
NJARET20110-10367-02151-80000016D0000120D0001200003ML2151    GGSL
NJARET20110-10367-02162-40000040D0000273D0001800002ML2162    GGSL
NJARET20110-10367-02163-10000064D0000437D0001700002ML2163    GGSL
NJARET20110-10367-02171-60000072D0000491D0000600003ML2171    GGSL
NJARET20110-10367-02181-50000072D0000491D0000700003ML2181    GGSL
NJARET20110-10367-03010-70000016D0000094D0000200000ML3010    GGSL
NJARET20110-10367-03020-60000016D0000095D0000100000ML3020    GGSL
NJARET20110-10367-03997-10000012D0006593D00007000003997      GGSL
NJARET20110-11192-10594-70000032D0000831D0000300001KHEATMAT  GGSL
NJARET20110-11192-10595-40000027D0001077D0000200001KLIGHT    GGSL
NJARET20110-11192-86019-80000006D0000045D0002100001KMG6      GGSL
NJARET20110-12587-70419-60000024D0000135D003260000070419     GGSL
NJARET20110-12587-78686-40000012D0000106D002010000078686     GGSL
NJARET20110-12587-78836-30000020D0000023D001710000078836     GGSL
NJARET20110-12587-79008-30000012D0000106D000630000079008     GGSL
NJARET20110-14021-00736-80000010D0000057D00001000007110      GGSL
NJARET20110-14021-01417-50000096D0000442D00001000001024      GGSL
NJARET20110-14306-92839-50000009D0000244D0000000000US804687  GGSL
NJARET20110-14306-92841-80000006D0000221D0000000000US900687  GGSL
NJARET20110-14400-10747-40000010D0000018D00005000001440010747GGSL
NJARET20110-14400-66000-90000019D0000239D000050000566000ZFP  GGSL
NJARET20110-14400-71065-00000012D0000054D00001000001440071065GGSL
NJARET20110-14400-71365-10000012D0000054D00012000001440071365GGSL
NJARET20110-15561-21643-20000006D0000376D0000700000PT1643    GGSL
NJARET20110-15759-01375-10000012D0000205D0000000000R1364B    GGSL
NJARET20110-15759-01420-80000001D0000017D0000100000R1115COLRXGGSL
NJARET20110-15759-01428-40000012D0000137D0000000000R1377B    GGSL
NJARET20110-15759-01434-50000006D0000184D0000000000R1380MB   GGSL
NJARET20110-15759-01507-60000003D0000086D0001000000R1203GX   GGSL
NJARET20110-15759-01516-80000001D0000024D0000000000R1251SBX  GGSL
NJARET20110-15759-01521-20000001D0000017D0000500000R1364GX   GGSL
NJARET20110-15759-01524-30000024D0000351D0000000000R1373SG   GGSL
NJARET20110-16069-00005-90000072D0000518D0001500002TP15C     GGSL
NJARET20110-16069-00007-30000360D0002398D0004500004BN1       GGSL
NJARET20110-16069-00008-00000348D0002317D0004200008BN2       GGSL
NJARET20110-16069-00013-40000126D0003626D0008500003BN3       GGSL
NJARET20110-16069-00014-10000066D0001424D0000400001BN4       GGSL
NJARET20110-16069-00015-80000018D0000518D0000100001BN5       GGSL
NJARET20110-16069-00019-60000024D0000276D0002300009TP30C     GGSL
NJARET20110-16069-00030-10000036D0000475D0000900002OW6       GGSL
NJARET20110-16069-00032-50000012D0000129D0000000000HG25      GGSL
NJARET20110-16069-00038-70000024D0000224D0000200000GF1015    GGSL
NJARET20110-16069-00047-90000036D0000259D0000300000TE12C     GGSL
NJARET20110-16069-00049-30000342D0006399D0011000008DX7       GGSL
NJARET20110-16069-00050-90000012D0000328D0000400000DX14      GGSL
NJARET20110-16069-00060-80000015D0000043D0000200001RAP15     GGSL
NJARET20110-16069-00072-10000012D0000080D0000300001TSD12     GGSL
NJARET20110-16069-00076-90000036D0000233D0000000000PN10      GGSL
NJARET20110-16069-00077-60000048D0000497D0000800005PN14      GGSL
NJARET20110-16069-00079-00000024D0000745D0000100000PN28      GGSL
NJARET20110-16069-00145-20000004D0000088D0000000000RH04      GGSL
NJARET20110-16069-00204-60000028D0000373D0000200002WS2050    GGSL
NJARET20110-16069-00218-30000036D0000207D0000800002HST100    GGSL
NJARET20110-16069-00306-70000040D0000480D0000300003WS1050    GGSL
NJARET20110-16069-00358-60000002D0000144D0000100000GS51000   GGSL
NJARET20110-16069-00393-70000144D0000518D0000200002GS20      GGSL
NJARET20110-16069-00394-40000004D0000204D0000800000PN45      GGSL
NJARET20110-16069-00401-90000028D0000262D0000400001GF4050    GGSL
NJARET20110-16069-00436-10000015D0000040D0000200002TWST100   GGSL
NJARET20110-16069-00478-10000008D0000345D0000400001SRHO4     GGSL
NJARET20110-16069-00479-80000612D0011661D0001600000E316B     GGSL
NJARET20110-16069-00494-10000028D0000262D0001900001GFST4050  GGSL
NJARET20110-16069-00498-90000006D0000065D0000200002HGP1012   GGSL
NJARET20110-16069-00546-70000008D0000329D0000800001RRBG4     GGSL
NJARET20110-16069-00597-90000012D0000257D0001800003BTK6      GGSL
NJARET20110-16069-00622-80000036D0000144D0000100001CP612     GGSL
NJARET20110-16069-00625-90000012D0000345D0000100000DXP12     GGSL
NJARET20110-16069-00667-90000036D0000767D0001400002RH04US    GGSL
NJARET20110-17500-08120-00000096D0000134D002880000208120     GGSL
NJARET20110-17500-08150-70001848D0002587D000480002408150     GGSL
NJARET20110-17500-90206-20000534D0011315D000520000390206     GGSL
NJARET20110-17500-91316-70000042D0000803D000330000091316     GGSL
NJARET20110-17500-91334-10000012D0000268D000090000191334     GGSL
NJARET20110-17500-91350-10000020D0000394D000000000091350     GGSL
NJARET20110-17500-91360-00000024D0000207D000030000191360     GGSL
NJARET20110-17500-91367-90000012D0000098D000010000191367     GGSL
NJARET20110-17500-91370-90000006D0000131D000000000091370     GGSL
NJARET20110-17500-91714-10000008D0000174D000110000091714     GGSL
NJARET20110-17500-91818-60000008D0000138D000000000091818     GGSL
NJARET20110-17500-95314-90000008D0000215D000110000295314     GGSL
NJARET20110-17500-95404-70000008D0000263D000020000095404     GGSL
NJARET20110-17849-23011-60000012D0000160D0000100000CF230W    GGSL
NJARET20110-18062-00019-70000048D0000213D0000500000PT06MCCS  GGSL
NJARET20110-18222-00017-30000043D0005341D0001200003PP17      GGSL
NJARET20110-18222-00101-90000108D0000330D0004000001CS06101   GGSL
NJARET20110-18222-00103-30000096D0000293D0005500003CS06103   GGSL
NJARET20110-18222-00105-70000246D0000751D0008700000CS06105   GGSL
NJARET20110-18222-00107-10000180D0000707D0002000001CS06107   GGSL
NJARET20110-18222-00109-50000174D0000531D0004000001CS06109   GGSL
NJARET20110-18222-00110-10000180D0000550D0003900000CS06110   GGSL
NJARET20110-18222-00206-10000024D0000114D0000700000CS06206   GGSL
NJARET20110-18222-00208-50000090D0000430D0000200002CS06208   GGSL
NJARET20110-18222-00213-90000264D0001095D0001700001CS06213   GGSL
NJARET20110-18222-00226-90000032D0000086D0001200000CS04226   GGSL
NJARET20110-18222-00228-30000008D0000021D0000800000CS04228   GGSL
NJARET20110-18222-00246-70000024D0000144D0000700003CS246     GGSL
NJARET20110-18222-00249-80000020D0000217D0000300000CS249     GGSL
NJARET20110-18222-00405-80000014D0000178D0002900004CS01405   GGSL
NJARET20110-18222-00501-70001080D0001409D0015900010CS12501   GGSL
NJARET20110-18222-00503-10000288D0000579D0002600000CS503     GGSL
NJARET20110-18222-00505-50001056D0001159D0001400003CS12505   GGSL
NJARET20110-18222-00507-90000504D0000687D0010600017CS12507   GGSL
NJARET20110-18222-00509-30001008D0001681D0017000016CS12509   GGSL
NJARET20110-18222-00513-00000084D0000174D0000000000CS12513   GGSL
NJARET20110-18222-00526-00000294D0000898D0004400003CS06526   GGSL
NJARET20110-18222-00527-70000852D0001121D0020400017CS12527   GGSL
NJARET20110-18222-00529-10000528D0000882D0000000000CS12529   GGSL
NJARET20110-18222-00531-40000996D0002225D0013200009CS12531   GGSL
NJARET20110-18222-00535-20000264D0000348D0005800000CS12535   GGSL
NJARET20110-18222-00543-70000096D0000131D0001000000CS12543   GGSL
NJARET20110-18222-00545-10000108D0000185D0000000000CS12545   GGSL
NJARET20110-18222-00553-60003456D0005999D0013300077CS12553   GGSL
NJARET20110-18222-00559-80000408D0000535D0012200009CS12559   GGSL
NJARET20110-18222-00561-10000120D0000158D0002100001CS12561   GGSL
NJARET20110-18222-00563-50000540D0000904D0004900008CS12563   GGSL
NJARET20110-18222-00565-90000120D0000203D0000000000CS12565   GGSL
NJARET20110-18222-00566-60000048D0000088D0000100001CS12566   GGSL
NJARET20110-18222-00569-70001632D0002819D0015000019CS12569   GGSL
NJARET20110-18222-00571-00000156D0000327D0001500001CS12571   GGSL
NJARET20110-18222-00583-30000480D0001009D0011000009CS12583   GGSL
NJARET20110-18222-00608-30000120D0000438D0000000000CS608     GGSL
NJARET20110-18222-00610-60000060D0000280D0000000000CS610     GGSL
NJARET20110-18222-00611-30000048D0000194D0000100000CS611     GGSL
NJARET20110-18222-00680-90000060D0000139D0000200000CS12680   GGSL
NJARET20110-18222-00701-10000608D0001041D0004100003CS701     GGSL
NJARET20110-18222-00707-30000112D0000347D0001500000CS707     GGSL
NJARET20110-18222-00709-70000054D0000261D0000000000CS709     GGSL
NJARET20110-18222-00727-10000072D0000488D0000000000CS727     GGSL
NJARET20110-18222-00730-10000048D0000095D0016700002CS730     GGSL
NJARET20110-18222-00749-30000066D0000368D0001000002CS749     GGSL
NJARET20110-18222-00750-90000012D0000122D0000300001CS750     GGSL
NJARET20110-18222-00753-00000120D0000617D0003200001CS753     GGSL
NJARET20110-18222-00755-40000056D0000190D0000500000CS755     GGSL
NJARET20110-18222-00770-70000012D0000096D0000100000CS770     GGSL
NJARET20110-18222-00950-30000288D0000286D0000000000CS950     GGSL
NJARET20110-18222-00954-10000080D0000433D0000000000CS08954   GGSL
NJARET20110-18222-50501-20000096D0000105D0012200002CS1250501XGGSL
NJARET20110-18222-50527-20000072D0000079D0004400027CS1250527XGGSL
NJARET20110-18222-50559-30000108D0000119D0017800005CS1250559XGGSL
NJARET20110-18506-00021-90000006D0000097D00004000020216      GGSL
NJARET20110-18506-00102-50000060D0000262D000450000410212     GGSL
NJARET20110-18506-00110-00000096D0000714D001060000511012     GGSL
NJARET20110-18506-00113-10000012D0000059D00005000001136      GGSL
NJARET20110-18506-00114-80000012D0000099D00010000001146      GGSL
NJARET20110-18506-00116-20000192D0001312D000640001911612     GGSL
NJARET20110-18506-00120-90000004D0000077D00035000001204      GGSL
NJARET20110-18506-00121-60000012D0000115D00058000001216      GGSL
NJARET20110-18506-00122-30000048D0000265D0003200000122       GGSL
NJARET20110-18506-00123-00000072D0000397D0003000000123       GGSL
NJARET20110-18506-00125-40000024D0000120D0001500000125       GGSL
NJARET20110-18506-00130-80000024D0000133D0002500009130       GGSL
NJARET20110-19200-00095-60000060D0000152D002770000000027     GGSL
NJARET20110-19200-00619-40000060D0000217D013990000100706     GGSL
NJARET20110-19200-75055-40000048D0000112D000000000075055     GGSL
NJARET20110-19200-78033-90000018D0000092D00159000001920078033GGSL
NJARET20110-19200-80306-90000012D0000068D000990000080306     GGSL
NJARET20110-19200-83262-50000072D0000305D00130000001920082362GGSL
NJARET20110-19200-83623-40000006D0000047D008330000083623     GGSL
NJARET20110-19200-83722-40000008D0000023D003360000083722     GGSL
NJARET20110-19200-83925-90000009D0000021D000000000083925     GGSL
NJARET20110-19200-89973-40000024D0000384D000390000089973     GGSL
NJARET20110-19200-93039-00000006D0000061D003100000093039     GGSL
NJARET20110-19200-96082-30000012D0000023D000710000096082     GGSL
NJARET20110-19200-98342-60000030D0000136D000650000099427     GGSL
NJARET20110-19200-98665-60000032D0000142D001290000098665     GGSL
NJARET20110-19200-98666-30000016D0000098D000850000098666     GGSL
NJARET20110-19263-25010-70000009D0000641D00003000032501      GGSL
NJARET20110-19263-25030-50000033D0003911D00008000022503      GGSL
NJARET20110-19263-25035-00000024D0000687D0001200000250350    GGSL
NJARET20110-19263-25040-40000017D0002212D00016000022504      GGSL
NJARET20110-19263-25042-80000009D0001534D0000000000250425    GGSL
NJARET20110-19263-25045-90000080D0002910D0000500001250450    GGSL
NJARET20110-19263-25050-30000005D0000779D00001000012505      GGSL
NJARET20110-19263-25052-70000001D0000185D0000000000250525    GGSL
NJARET20110-19263-25055-80000060D0002738D0000900002250550    GGSL
NJARET20110-19263-25080-00000001D0000024D00000000002508      GGSL
NJARET20110-19263-25090-90000001D0000066D00000000002509      GGSL
NJARET20110-19263-25250-70000016D0000143D00001000002525      GGSL
NJARET20110-19263-25280-40000009D0000127D00000000002528      GGSL
NJARET20110-19263-25350-40000024D0000065D00002000002535      GGSL
NJARET20110-19263-25500-30000175D0000205D00001000012550      GGSL
NJARET20110-19263-25510-20001100D0001567D00043000282551      GGSL
NJARET20110-19263-25530-00001250D0002338D00041000292553      GGSL
NJARET20110-19263-25540-90001700D0003813D00074000422554      GGSL
NJARET20110-19263-25550-80000300D0000858D00000000002555      GGSL
NJARET20110-19263-25670-30000012D0000164D00011000002567      GGSL
NJARET20110-19263-25680-20000052D0000965D00031000002568      GGSL
NJARET20110-19263-25750-20000112D0000598D00018000012575      GGSL
NJARET20110-19263-25760-10000384D0002615D00053000112576      GGSL
NJARET20110-19263-25770-00001287D0013749D00098000272577      GGSL
NJARET20110-19263-25780-90000880D0016894D00117000352578      GGSL
NJARET20110-19263-25950-60000252D0000300D00034000112595      GGSL
NJARET20110-19263-26100-40000072D0000239D00000000002610      GGSL
NJARET20110-19263-26180-60000012D0000479D00000000002618      GGSL
NJARET20110-19263-26190-50000024D0001149D00018000002619      GGSL
NJARET20110-19263-26210-00000324D0002433D00004000022621      GGSL
NJARET20110-19263-26260-50000002D0000062D00000000002626      GGSL
NJARET20110-19263-26300-80000792D0001824D00045000312630      GGSL
NJARET20110-19263-26310-70000360D0001003D00072000332631      GGSL
NJARET20110-19263-26310-70000144D0000406D00007000002633      GGSL
NJARET20110-19263-26320-30000288D0000683D00000000002632      GGSL
NJARET20110-19263-26530-90000032D0000117D00006000062653      GGSL
NJARET20110-19263-26560-60000032D0000244D00025000022656      GGSL
NJARET20110-19263-29100-10000003D0000493D00009000012910      GGSL
NJARET20110-19263-29110-00000008D0001316D00001000002911      GGSL
NJARET20110-21344-00321-20000024D0000849D0023900008WX15064   GGSL
NJARET20110-21344-00322-90000016D0000593D0023000003WX15065   GGSL
NJARET20110-21344-00324-30000048D0000445D0000100001WX16852   GGSL
NJARET20110-21344-00328-10000030D0000214D0000000000WX16828   GGSL
NJARET20110-21344-00334-20000018D0000116D0000000000WX16814   GGSL
NJARET20110-21344-00336-60000002D0000186D0000000000WX16854   GGSL
NJARET20110-21344-00338-00000004D0001148D0009700000400338    GGSL
NJARET20110-21344-00339-70000085D0009461D0001800023400339    GGSL
NJARET20110-21344-00340-30000008D0000613D0002600019400340    GGSL
NJARET20110-21344-00343-40000042D0000285D0005300005400343    GGSL
NJARET20110-21344-00344-10000012D0000091D0002700005400344    GGSL
NJARET20110-21344-00345-80000042D0000303D0002600004400345    GGSL
NJARET20110-21344-00346-50000048D0000331D0003500004400346    GGSL
NJARET20110-21344-00347-20000016D0000202D0009700003400347    GGSL
NJARET20110-21344-00348-90000040D0000492D0000900004400348    GGSL
NJARET20110-21344-00349-60000016D0000224D0002700000400349    GGSL
NJARET20110-21344-00350-20000020D0000268D0004300003400350    GGSL
NJARET20110-21344-00354-00000006D0000313D0000600005HQ73481784GGSL
NJARET20110-21344-00361-80000004D0000101D0000400001HQ74912297GGSL
NJARET20110-21344-00362-50000003D0000221D0023600000HQMUSH    GGSL
NJARET20110-21344-00364-90000001D0000386D0010100007400364    GGSL
NJARET20110-21344-00381-60000021D0001170D0002000011JFG18031  GGSL
NJARET20110-21344-00384-70000008D0000411D0006600001JFG18013  GGSL
NJARET20110-21344-00386-10000018D0000616D0001100004JFG18011B GGSL
NJARET20110-21344-00387-80000024D0000821D0008100003JFG18012  GGSL
NJARET20110-21344-00388-50000120D0000642D0001700004JFG18001  GGSL
NJARET20110-21344-00389-20000030D0000344D0001100005JFG18004  GGSL
NJARET20110-21344-00390-80000016D0000351D0003800002JFG18010A GGSL
NJARET20110-21344-00391-50000016D0000576D0002300000JFG18010B GGSL
NJARET20110-21344-00392-20000072D0000449D0001000004JFG18002  GGSL
NJARET20110-21344-00394-60000018D0000347D0000900002JFG18008ASGGSL
NJARET20110-21344-00395-30000040D0001054D0002700005JFG18006  GGSL
NJARET20110-21344-00396-00000016D0000567D0001500004JFG18016  GGSL
NJARET20110-21344-00397-70000012D0000472D0012600003JFG18018  GGSL
NJARET20110-21344-00398-40000001D0000116D0000900002JFG18042  GGSL
NJARET20110-21344-00403-50000010D0000239D0000000000ZT152072  GGSL
NJARET20110-21344-00404-20000005D0000316D0008500002ZT185020  GGSL
NJARET20110-21344-00405-90000008D0000527D0012600000ZT185019  GGSL
NJARET20110-21344-00407-30000004D0000526D0013500000ZT185016  GGSL
NJARET20110-21344-00408-00000006D0000338D0003400001ZT185026  GGSL
NJARET20110-21344-00409-70000108D0000413D0003200003ZT185018  GGSL
NJARET20110-21344-00411-00000006D0000232D0000800000ZT185021  GGSL
NJARET20110-21344-00412-70000004D0000152D0001600000ZT185022  GGSL
NJARET20110-21344-00422-60000010D0000346D0001300003ZT185023  GGSL
NJARET20110-21344-00423-30000155D0020580D0031900045WX17658   GGSL
NJARET20110-21344-00718-00000024D0000468D0003000000WX17422   GGSL
NJARET20110-21344-00719-70000036D0000667D0001100011WX17413   GGSL
NJARET20110-21344-00720-30000018D0000292D0000400002WX17409   GGSL
NJARET20110-21344-00721-00000004D0000078D0000100001WX17230   GGSL
NJARET20110-21344-00722-70000008D0000156D0000000002WX17401   GGSL
NJARET20110-21344-00723-40000004D0000078D0000400004WX17402   GGSL
NJARET20110-21344-00724-10000002D0000080D0005100000WXRACK20  GGSL
NJARET20110-21344-00725-80000002D0000094D0001200001HQ748416  GGSL
NJARET20110-21344-00726-50000004D0000187D0000900001HQ74843056GGSL
NJARET20110-21344-00727-20000004D0000187D0000000000HQ74842665GGSL
NJARET20110-21344-00728-90000006D0000151D0008900001HQ74912300GGSL
NJARET20110-21344-00730-20000002D0000025D0006000000BN19193   GGSL
NJARET20110-21344-00731-90000008D0000119D0002300003BN19190   GGSL
NJARET20110-21344-00732-60000006D0000081D0003700003BN19187   GGSL
NJARET20110-21344-00733-30000006D0000095D0006500000BN19188   GGSL
NJARET20110-21344-00734-00000012D0000390D0000800001WX17725   GGSL
NJARET20110-21344-00735-70000012D0000218D0003500001WX17577RV GGSL
NJARET20110-21344-00736-40000020D0000364D0002200001WX17578RV GGSL
NJARET20110-21344-00740-10000004D0000124D0004500004WX17818   GGSL
NJARET20110-21344-00744-90000004D0000124D0004900007WX17819   GGSL
NJARET20110-21344-00745-60000004D0000052D0019600003YS19006   GGSL
NJARET20110-21344-00746-30000004D0000070D0029200001YS19L005  GGSL
NJARET20110-21344-00747-00000004D0000070D0029900000YS19L004  GGSL
NJARET20110-21344-00748-70000004D0000055D0029300000YS19S002  GGSL
NJARET20110-21344-00749-40000012D0000164D0029500000YS19S003  GGSL
NJARET20110-21344-00750-00000008D0000109D0027500000YS19S001  GGSL
NJARET20110-21344-00762-30000004D0000351D0025500003FDBH1901  GGSL
NJARET20110-21344-00762-30000004D0000480D0010600005MG18387RV GGSL
NJARET20110-21344-00766-10000007D0000980D00097000054007661   GGSL
NJARET20110-21344-00774-60000006D0000195D0001800005WX17800   GGSL
NJARET20110-21344-00776-00000005D0000325D0015500007FDBB1901  GGSL
NJARET20110-21344-00779-10000006D0000136D0006100000JFG19058B GGSL
NJARET20110-21344-00780-70000007D0000455D0008000010MG18396RV GGSL
NJARET20110-21344-00781-40000004D0000156D0010900010MG18397RV GGSL
NJARET20110-21344-00795-10000006D0000642D0010400006MG18389   GGSL
NJARET20110-21344-00798-20000012D0000054D0006200003SSH1813728GGSL
NJARET20110-21344-00799-90000018D0000136D0004300004HS190061C GGSL
NJARET20110-21344-00800-20000030D0000237D0004700006HS190061B GGSL
NJARET20110-21344-00801-90000012D0000086D0004500003HS190061A GGSL
NJARET20110-21344-00802-60000024D0000212D0014500006HS190058C GGSL
NJARET20110-21344-00803-30000012D0000095D0014000005HS190058B GGSL
NJARET20110-21344-00804-00000012D0000099D0014300000HS190058A GGSL
NJARET20110-21344-00805-70000042D0000409D0009000002HS190056  GGSL
NJARET20110-21344-00806-40000032D0000270D0009500000SSH18A025 GGSL
NJARET20110-21344-00807-10000012D0000168D0008000001SSH18A034 GGSL
NJARET20110-21344-00813-20000017D0001547D00043000154008132   GGSL
NJARET20110-21344-00819-40000036D0000304D0000200000WX17931   GGSL
NJARET20110-21344-00820-00000012D0000101D0000400000WX17936   GGSL
NJARET20110-21344-00821-70000036D0000304D0002700002WX17932   GGSL
NJARET20110-21344-00822-40000048D0000405D0002200002WX17930   GGSL
NJARET20110-21344-00823-10000036D0000304D0000400003WX17934   GGSL
NJARET20110-21344-00824-80000084D0000709D0000500002WX17933   GGSL
NJARET20110-21344-00825-50000060D0000350D0002300002JFG18011BWGGSL
NJARET20110-21344-00826-20000072D0000561D0002500004JFG18011AWGGSL
NJARET20110-21344-00827-90000036D0000280D0001900004JFG18008AWGGSL
NJARET20110-21344-00828-60000048D0000312D0002700003JFG18008ACGGSL
NJARET20110-21344-00829-30000020D0000195D0004900008ZT197030  GGSL
NJARET20110-21344-00830-90000024D0000624D0004000001ZT197002  GGSL
NJARET20110-21344-00831-60000030D0000524D0002700001ZT197003  GGSL
NJARET20110-21344-00832-30000006D0000125D0007000000JFG19007B GGSL
NJARET20110-21344-00833-00000008D0000234D0009800000ZT197029  GGSL
NJARET20110-21344-00834-70000001D0000097D0009400000ZT197023RVGGSL
NJARET20110-21344-00838-50000096D0000233D0030500014SK15008E  GGSL
NJARET20110-21344-00839-20000004D0000065D0006100000HS190062  GGSL
NJARET20110-21344-00844-60000054D0000304D0009600015HJAL19011 GGSL
NJARET20110-21964-10100-80000036D0000982D0000500000A6F       GGSL
NJARET20110-21964-10110-70000030D0000206D0000000000A6T       GGSL
NJARET20110-21964-10133-60000024D0000708D0000100000TH3RP     GGSL
NJARET20110-21964-10134-30000006D0000130D0000000000BUF16     GGSL
NJARET20110-21964-10200-50000016D0000766D0000100000B7F       GGSL
NJARET20110-21964-10211-10000018D0000164D0000000000OMT       GGSL
NJARET20110-21964-10218-00000012D0000027D0000000000WN        GGSL
NJARET20110-21964-10305-70000005D0000303D0000300000BTG       GGSL
NJARET20110-21964-10315-60000016D0000575D0000300000SQG       GGSL
NJARET20110-21964-10320-00000018D0000206D0000000000SRG       GGSL
NJARET20110-21964-10322-40000003D0000120D0000300000CPF       GGSL
NJARET20110-21964-10350-70000010D0000245D0014500145X1        GGSL
NJARET20110-21964-10360-60000030D0000797D0000000000W1        GGSL
NJARET20110-21964-10370-50000102D0001149D0000300000OWF       GGSL
NJARET20110-21964-10380-40000005D0000242D0000000000DCF       GGSL
NJARET20110-21964-10386-60000054D0000702D0000600000CUTE      GGSL
NJARET20110-21964-10450-40000024D0000132D0000000000FF        GGSL
NJARET20110-21964-10461-00000018D0000305D0000100000LF4       GGSL
NJARET20110-21964-10481-80000030D0000180D0000700000AM        GGSL
NJARET20110-21964-10482-50000012D0000072D0000000000AMO       GGSL
NJARET20110-21964-10485-60000012D0000115D0000400000RS3HC     GGSL
NJARET20110-21964-10486-30000036D0000376D0000200000RS3WC     GGSL
NJARET20110-21964-10489-40000006D0000050D0000000000BOWM      GGSL
NJARET20110-21964-10547-10000060D0000311D0000000000TSD       GGSL
NJARET20110-21964-10550-10000006D0000083D0000100000SILW      GGSL
NJARET20110-21964-10900-40000006D0000023D0000000000SL        GGSL
NJARET20110-21964-10901-10000012D0000041D0000000000CPR       GGSL
NJARET20110-21964-20061-90000005D0000288D0000300000SDC       GGSL
NJARET20110-21964-20070-10000002D0000082D0000000000RETRO     GGSL
NJARET20110-21964-20078-70000003D0000168D0000000000B7DCWOB7  GGSL
NJARET20110-21964-20500-30000072D0009100D0000300001YF        GGSL
NJARET20110-21964-20510-20000012D0001006D0000300000YCPD90    GGSL
NJARET20110-21964-20520-10000026D0002095D0002900001YCPW180   GGSL
NJARET20110-21964-20530-00000026D0002187D0000200000YCPT360   GGSL
NJARET20110-21964-20740-30000001D0000043D0001700000PWRSTK    GGSL
NJARET20110-21964-25241-00000024D0000709D0000400000CC12S     GGSL
NJARET20110-21964-25242-70000054D0001985D0000200000CC18S     GGSL
NJARET20110-21964-25243-40000012D0000528D0000200000CC24S     GGSL
NJARET20110-21964-25244-10000018D0000532D0000200000CC12N     GGSL
NJARET20110-21964-25245-80000024D0000883D0000500000CC18N     GGSL
NJARET20110-21964-25246-50000006D0000262D0000300000CC24N     GGSL
NJARET20110-21964-25256-40000024D0000709D0000300000CC12FM    GGSL
NJARET20110-21964-25257-10000072D0002649D0000000000CC18FM    GGSL
NJARET20110-21964-30406-50000036D0000329D0000000000SFD       GGSL
NJARET20110-21964-30410-20000012D0000156D0000000000PSFS      GGSL
NJARET20110-21964-40043-90000054D0000974D0000100000CJM8G     GGSL
NJARET20110-21964-40053-80000126D0002809D0000000000CJM15G    GGSL
NJARET20110-21964-40063-70000054D0001552D0000100000CJM23G    GGSL
NJARET20110-21964-41073-50000024D0000500D0000100001CJTHM15Y  GGSL
NJARET20110-21964-41084-10000006D0000177D0000000000CJTHM36Y  GGSL
NJARET20110-21964-41086-50000018D0000298D0000000000CJTHM8Y   GGSL
NJARET20110-21964-50043-60000018D0000402D0000500000CJM13GP   GGSL
NJARET20110-21964-50059-70000006D0000150D0000100000CJM13FSY  GGSL
NJARET20110-21964-50111-20000036D0000263D0000000000WHK       GGSL
NJARET20110-21964-50202-70000012D0000060D0000000000LC18      GGSL
NJARET20110-21964-50227-00000006D0000031D0000000000SWH8      GGSL
NJARET20110-21964-60100-30000012D0000362D0000000000GS        GGSL
NJARET20110-21964-60110-20000006D0000113D0000000000UN        GGSL
NJARET20110-21964-60120-10000036D0000686D0000000000UC        GGSL
NJARET20110-21964-60510-00000012D0000252D0000000000GP        GGSL
NJARET20110-21964-60525-40000018D0000164D0000600000PS        GGSL
NJARET20110-21964-60527-80000006D0000214D0000000000UPA       GGSL
NJARET20110-21964-60528-50000006D0000114D0000000000RLS       GGSL
NJARET20110-21964-60533-90000006D0000137D0000000000TPH       GGSL
NJARET20110-21964-60546-90000006D0000362D0000000000SEP       GGSL
NJARET20110-21964-70101-70000004D0000046D0000000000SS2       GGSL
NJARET20110-21964-70202-10000024D0000164D0000000000WWM       GGSL
NJARET20110-21964-80100-70000048D0000403D0000000000BFB       GGSL
NJARET20110-21964-92006-70000005D0000438D0000000000YCPW180M  GGSL
NJARET20110-22179-10011-40000006D0000060D0000000000LG3104    GGSL
NJARET20110-22179-10012-10000006D0000092D0001900000LG3109    GGSL
NJARET20110-22179-10084-80000108D0000969D0005500000LG7220    GGSL
NJARET20110-22179-10105-00000030D0001261D0000000000LG5518    GGSL
NJARET20110-22179-10106-70000006D0000154D0000600000LG5512    GGSL
NJARET20110-22179-10109-80000006D0000096D0000100000LG5146    GGSL
NJARET20110-22179-10115-90000006D0000115D0000400000LG5599    GGSL
NJARET20110-22179-10120-30000041D0001713D0001600000LG6510    GGSL
NJARET20110-22179-10124-10000144D0000836D0005800003LG6515    GGSL
NJARET20110-22179-10157-90000048D0001048D0005200001LG6530    GGSL
NJARET20110-22179-10167-80000006D0000109D0000100000LG6127    GGSL
NJARET20110-22179-10185-20000516D0004555D0028300019LG6500    GGSL
NJARET20110-22179-10186-90000012D0000507D0000300000LG6555    GGSL
NJARET20110-22179-10243-90000012D0000204D0001500001LG6130    GGSL
NJARET20110-22179-10244-60000012D0000311D0000400000LG6135    GGSL
NJARET20110-22179-10246-00000060D0001030D0004100000LG6570    GGSL
NJARET20110-22179-10248-40000144D0001235D0003700000LG6575    GGSL
NJARET20110-22179-10257-60000048D0000733D0000600000LG3190    GGSL
NJARET20110-22179-10258-30000030D0000889D0001500002LG6580    GGSL
NJARET20110-22179-10259-00000156D0008888D0000400000LG6585    GGSL
NJARET20110-22179-10269-90000024D0000137D0000100000LG8900    GGSL
NJARET20110-22179-10289-70000168D0002402D0000000000LG8920    GGSL
NJARET20110-22179-10327-60000168D0001600D0000300001LG6148    GGSL
NJARET20110-22179-10365-80000012D0000099D0000000000LG7129    GGSL
NJARET20110-22179-10390-00000024D0000256D0000800000LG6332    GGSL
NJARET20110-22179-10391-70000012D0000208D0000400000LG6336    GGSL
NJARET20110-22179-10392-40000102D0002875D0000000000LG4300    GGSL
NJARET20110-22179-10429-70000072D0001341D0001500000LG6334    GGSL
NJARET20110-22179-10434-10000012D0000120D0000500001LG6133    GGSL
NJARET20110-22179-10444-00000012D0000163D0000600002LG3374    GGSL
NJARET20110-22179-10447-10000004D0000306D0000200000LG3382    GGSL
NJARET20110-22179-10448-80000024D0000283D0001100000LG3174    GGSL
NJARET20110-22179-10454-90000048D0000549D0002300003LG3303    GGSL
NJARET20110-22179-10462-40000012D0000107D0000000000LG1142    GGSL
NJARET20110-22179-10474-70000012D0000104D0000000000LG6328    GGSL
NJARET20110-22179-10517-10000006D0000143D0001100000LG3176    GGSL
NJARET20110-22179-10519-50000018D0000317D0000200000LG6544    GGSL
NJARET20110-22179-10520-10000018D0000162D0000000000LG6542    GGSL
NJARET20110-22179-10521-80000030D0001929D0000000000LG6546    GGSL
NJARET20110-22179-10575-10000012D0000089D0000000000LG3102    GGSL
NJARET20110-22401-00350-30000016D0000247D0004300000EDG20GMC  GGSL
NJARET20110-22401-00440-10000010D0000259D0005000000PRO40PC   GGSL
NJARET20110-22401-00740-20000010D0000154D0004900000DBRC20    GGSL
NJARET20110-22401-10087-50000024D0000193D0002800000EAR20TMC  GGSL
NJARET20110-23075-02170-10000028D0000159D0000200002PHEX      GGSL
NJARET20110-23075-02180-00000014D0000073D0000300001P180      GGSL
NJARET20110-23075-02351-40000096D0000365D0000400001P35H      GGSL
NJARET20110-23075-02362-00000064D0000338D0000200001FT36HFB   GGSL
NJARET20110-23075-02721-50000240D0001284D0000000000P72H      GGSL
NJARET20110-23075-02990-50000006D0000033D0000300000KHB6      GGSL
NJARET20110-23075-03220-20000030D0000052D0000000000FR220B    GGSL
NJARET20110-23075-03312-40000060D0000115D0000100000FR312B    GGSL
NJARET20110-23075-03407-70000066D0000143D0000000000FR407     GGSL
NJARET20110-23075-05110-40000032D0000087D0000100001FS110     GGSL
NJARET20110-23075-20500-20000012D0000053D0000000000G108ORG   GGSL
NJARET20110-23865-08801-30000012D0000030D00000000008801      GGSL
NJARET20110-23865-08808-20000228D0000990D00001000018808      GGSL
NJARET20110-23865-09904-00000018D0000138D00000000009904      GGSL
NJARET20110-23865-09910-10000440D0006898D00000000009910      GGSL
NJARET20110-23865-09912-50000160D0002552D000010000009912     GGSL
NJARET20110-23865-09983-50000384D0001118D00002000009983      GGSL
NJARET20110-23865-09984-20000024D0000084D00000000009984      GGSL
NJARET20110-23865-09987-30000012D0000094D00170000009987      GGSL
NJARET20110-23883-16100-20000049D0000501D000740007416100     GGSL
NJARET20110-23883-16200-90000024D0000437D000590000316200     GGSL
NJARET20110-23883-20002-20000017D0000167D000000000020002     GGSL
NJARET20110-23883-20003-90000006D0000161D000140000020003     GGSL
NJARET20110-23883-20010-70000008D0000134D000200000020010     GGSL
NJARET20110-23883-20020-60000012D0000272D000010000020020     GGSL
NJARET20110-23883-61800-10000004D0000332D000530000061800     GGSL
NJARET20110-23883-69324-20000001D0000191D000020000063924     GGSL
NJARET20110-23883-81000-90000001D0000119D000090000081000A    GGSL
NJARET20110-24114-70609-20000150D0000659D0000500001706009    GGSL
NJARET20110-24114-71609-10000125D0000770D0002300003716009    GGSL
NJARET20110-24114-74009-60000025D0000122D0001400001704009    GGSL
NJARET20110-24114-74712-50000050D0000041D0000700000742012A   GGSL
NJARET20110-24114-74718-70000050D0000048D0000600000742018A   GGSL
NJARET20110-24654-05922-10000012D0000151D00019000055926      GGSL
NJARET20110-24654-05922-10000001D0000377D00001000005926DS    GGSL
NJARET20110-24654-05931-30000006D0000091D00003000005935      GGSL
NJARET20110-24654-05962-70000006D0001649D00012000015962DS    GGSL
NJARET20110-24654-05972-60000020D0000695D00004000005972      GGSL
NJARET20110-24654-05973-30000004D0000442D00000000005973      GGSL
NJARET20110-24654-09334-80000015D0000431D00150000189334      GGSL
NJARET20110-24654-30506-90000036D0000163D000150000630506     GGSL
NJARET20110-24654-51704-20000016D0000162D000100000051704     GGSL
NJARET20110-24654-51806-30000012D0000069D000000000051806     GGSL
NJARET20110-24654-51926-80000012D0000121D000090000051926     GGSL
NJARET20110-24654-55118-30000024D0000184D000160000151186     GGSL
NJARET20110-24654-55325-50000024D0000131D000170000053256     GGSL
NJARET20110-25033-01703-00000024D0000269D000110000301703     GGSL
NJARET20110-25033-01707-80000006D0000073D000130000301707     GGSL
NJARET20110-25033-01713-90000006D0000077D000160000301713     GGSL
NJARET20110-25033-01717-70000012D0000203D000100000401717     GGSL
NJARET20110-25033-01727-60000008D0000263D000080000001727     GGSL
NJARET20110-25033-02019-10000008D0000460D000150000002019     GGSL
NJARET20110-25033-02088-70000006D0000083D000070000102088     GGSL
NJARET20110-25033-02089-40000006D0000053D000080000102089     GGSL
NJARET20110-25033-02099-30000006D0000053D000010000002099     GGSL
NJARET20110-25033-02134-10000006D0000110D000010000002134     GGSL
NJARET20110-25033-02135-80000006D0000161D000010000002135     GGSL
NJARET20110-25033-02144-00000006D0000079D000050000102144     GGSL
NJARET20110-25033-02175-40000016D0000640D000060000102175     GGSL
NJARET20110-25033-02211-90000004D0000154D000080000002211     GGSL
NJARET20110-25033-02212-60000006D0000552D000040000002212     GGSL
NJARET20110-25033-02501-10000008D0000078D000040000102501     GGSL
NJARET20110-25033-02510-30000004D0000045D000120000202510     GGSL
NJARET20110-25033-02519-60000032D0000981D000180000102519     GGSL
NJARET20110-25033-02520-20000020D0000425D000070000302520     GGSL
NJARET20110-25033-02521-90000004D0000096D000100000102521     GGSL
NJARET20110-25033-02522-60000011D0000585D000400000602522     GGSL
NJARET20110-25033-02523-30000008D0000460D000350000402523     GGSL
NJARET20110-25033-02525-70000002D0000129D000650000402525     GGSL
NJARET20110-25033-02527-10000008D0000566D000390000302527     GGSL
NJARET20110-25033-02650-60000002D0000222D000120000002650     GGSL
NJARET20110-25033-02660-50000002D0000298D000770000202660     GGSL
NJARET20110-25033-02663-60000002D0000328D000000000002663     GGSL
NJARET20110-25033-02670-40000002D0000530D000090000102670     GGSL
NJARET20110-25033-02683-40000002D0000624D000010000002683     GGSL
NJARET20110-25033-02720-60000003D0000277D000500000302720     GGSL
NJARET20110-25033-02722-00000006D0000637D000340000002722     GGSL
NJARET20110-25033-02728-20000005D0000728D000150000002728     GGSL
NJARET20110-25033-02940-80000002D0000372D000010000002940     GGSL
NJARET20110-25033-03801-10000016D0000350D000250000703801     GGSL
NJARET20110-25033-03802-80000016D0000343D000190000403802     GGSL
NJARET20110-25033-03810-30000004D0000096D000020000003810     GGSL
NJARET20110-25033-03820-20000003D0000181D000010000103820     GGSL
NJARET20110-25033-03821-90000004D0000165D000030000003821     GGSL
NJARET20110-25033-03822-60000004D0000100D000020000003822     GGSL
NJARET20110-25033-12035-80000001D0000055D000010000012035     GGSL
NJARET20110-25033-12202-40000042D0000335D000180000812202     GGSL
NJARET20110-25033-12204-80000012D0000067D000290000412204     GGSL
NJARET20110-25033-12285-70000006D0000056D000080000112285     GGSL
NJARET20110-25033-12402-80000002D0000219D000000000012402     GGSL
NJARET20110-25033-12403-50000001D0000128D000020000012403     GGSL
NJARET20110-25033-12410-30000001D0000156D000010000012410     GGSL
NJARET20110-25033-12411-00000001D0000172D000000000012411     GGSL
NJARET20110-25033-12412-70000001D0000097D000010000012412     GGSL
NJARET20110-25033-12545-20000006D0000030D000010000012545     GGSL
NJARET20110-25033-12585-80000060D0000757D000000000012585     GGSL
NJARET20110-25033-12746-30000030D0000660D000000000012746     GGSL
NJARET20110-25033-12971-90000040D0001528D000200001112971     GGSL
NJARET20110-25033-20220-70000004D0000861D000000000020220     GGSL
NJARET20110-25545-21619-80000078D0001502D0003700003 21619    GGSL
NJARET20110-25845-12355-40000012D0000096D00000000005555      GGSL
NJARET20110-25849-10381-10000090D0002651D000000000010381RG   GGSL
NJARET20110-25881-08503-80000001D0000018D0000600000 08503COMPGGSL
NJARET20110-25881-09984-40000001D0000017D0001700000 09984    GGSL
NJARET20110-26175-86100-00000018D0000081D0001400002861       GGSL
NJARET20110-26432-24016-60000002D0000173D0001100000SB4000PRCGGGSL
NJARET20110-26432-40200-70000001D0000045D0000100000GC200     GGSL
NJARET20110-26600-89334-70000064D0000133D004840000689334     GGSL
NJARET20110-26978-02181-60000230D0001095D001170001002181     GGSL
NJARET20110-26978-02182-30000120D0000586D001240000502182     GGSL
NJARET20110-26978-02188-50000160D0000621D001350001602188     GGSL
NJARET20110-26978-02241-70000170D0000910D000810002102241     GGSL
NJARET20110-26978-02242-40000210D0001124D000910000602242     GGSL
NJARET20110-26978-02301-80000200D0001420D000240001002301     GGSL
NJARET20110-26978-02302-50000200D0001420D000410000802302     GGSL
NJARET20110-26978-02308-70000130D0000732D000160001102308     GGSL
NJARET20110-26978-02362-90000170D0001528D000290000402362     GGSL
NJARET20110-26978-02368-10000070D0000479D000390001102368     GGSL
NJARET20110-26978-03060-30000010D0000042D000100000003060     GGSL
NJARET20110-26978-03082-50000020D0000158D000120000003082     GGSL
NJARET20110-26978-03100-60000005D0000066D00007000000310005   GGSL
NJARET20110-26978-03120-40000005D0000092D00010000000312005   GGSL
NJARET20110-26978-03197-60000008D0000256D000000000003197     GGSL
NJARET20110-26978-05011-30000072D0000070D000000000005011     GGSL
NJARET20110-26978-05041-00001224D0002203D000010000105041     GGSL
NJARET20110-26978-05071-70000108D0000127D000290000005071     GGSL
NJARET20110-26978-05121-90000036D0000051D000000000005121     GGSL
NJARET20110-26978-08060-80000030D0000127D000110000008060     GGSL
NJARET20110-26978-08062-20000010D0000042D000160000008062     GGSL
NJARET20110-26978-08080-60000020D0000158D000100000008080     GGSL
NJARET20110-26978-08098-10000050D0000333D000120000008098     GGSL
NJARET20110-26978-08100-10000010D0000128D00000000000810005   GGSL
NJARET20110-26978-08101-80000005D0000066D00001000010810105   GGSL
NJARET20110-26978-08120-90000010D0000183D00007000010812005   GGSL
NJARET20110-26978-10010-80000066D0000240D000290000210010     GGSL
NJARET20110-26978-10012-20000210D0000762D000270000210012     GGSL
NJARET20110-26978-10013-90000060D0000218D000230000010013     GGSL
NJARET20110-26978-10020-70000040D0000270D000320000010020     GGSL
NJARET20110-26978-10022-10000035D0000237D000340000010022     GGSL
NJARET20110-26978-10023-80000035D0000237D000300000010023     GGSL
NJARET20110-26978-10062-70000200D0000522D001170001810062     GGSL
NJARET20110-26978-10068-90000150D0000389D001190001210068     GGSL
NJARET20110-26978-10082-50000220D0000785D000640001810082     GGSL
NJARET20110-26978-10088-70000140D0000496D000760000710088     GGSL
NJARET20110-26978-10102-00000040D0000211D001200001810102     GGSL
NJARET20110-26978-10108-20000085D0000448D001180001210108     GGSL
NJARET20110-26978-10122-80000085D0000649D001200001610122     GGSL
NJARET20110-26978-10128-00000070D0000533D000910001410128     GGSL
NJARET20110-26978-10142-60000055D0000523D000820000610142     GGSL
NJARET20110-26978-10148-50000035D0000313D000680000410148     GGSL
NJARET20110-26978-10180-80000010D0000032D000180000410180     GGSL
NJARET20110-26978-10182-20000030D0000096D000360000710182     GGSL
NJARET20110-26978-10183-90000010D0000032D000300000110183     GGSL
NJARET20110-26978-10185-30000020D0000064D000200000410185     GGSL
NJARET20110-26978-10240-90000010D0000035D000250000310240     GGSL
NJARET20110-26978-10242-30000040D0000141D000740000610242     GGSL
NJARET20110-26978-10243-00000010D0000035D000370000110243     GGSL
NJARET20110-26978-10245-40000040D0000141D000470000610245     GGSL
NJARET20110-26978-10300-00000030D0000134D000250000110300     GGSL
NJARET20110-26978-10302-40000030D0000134D000430000310302     GGSL
NJARET20110-26978-10305-50000030D0000134D000250000210305     GGSL
NJARET20110-26978-10360-40000010D0000056D000300000110360     GGSL
NJARET20110-26978-10362-80000020D0000111D000210000410362     GGSL
NJARET20110-26978-10365-90000030D0000167D000170000310365     GGSL
NJARET20110-26978-16190-10000050D0000218D000420000516190     GGSL
NJARET20110-26978-16192-50000200D0000870D000710000916192     GGSL
NJARET20110-26978-16193-20000040D0000174D000470000216193     GGSL
NJARET20110-26978-16195-60000060D0000261D000560000616195     GGSL
NJARET20110-26978-16198-70000050D0000218D000010000116198     GGSL
NJARET20110-26978-16240-30000080D0000430D000410000616240     GGSL
NJARET20110-26978-16242-70000130D0000703D000160001316242     GGSL
NJARET20110-26978-16243-40000080D0000433D000560000316243     GGSL
NJARET20110-26978-16245-80000140D0000757D000340001116245     GGSL
NJARET20110-26978-16300-40000080D0000546D000640000916300     GGSL
NJARET20110-26978-16302-80000200D0001364D000450001016302     GGSL
NJARET20110-26978-16303-50000030D0000205D000560000216303     GGSL
NJARET20110-26978-16305-90000160D0001091D000140000616305     GGSL
NJARET20110-26978-16360-80000050D0000508D000250000616360     GGSL
NJARET20110-26978-16362-20000120D0001219D000160000816362     GGSL
NJARET20110-26978-16365-30000080D0000813D000350000816365     GGSL
NJARET20110-26978-26140-30000070D0000630D000080000426140     GGSL
NJARET20110-26978-26143-40000010D0000090D000180000226143     GGSL
NJARET20110-26978-26145-80000050D0000450D000010000126145     GGSL
NJARET20110-26978-26148-90000060D0000540D000000000026148     GGSL
NJARET20110-26978-26180-90000020D0000288D000080000026180     GGSL
NJARET20110-26978-26182-30000080D0001153D000190000826182     GGSL
NJARET20110-26978-26183-00000010D0000144D000140000226183     GGSL
NJARET20110-26978-26185-40000070D0001009D000030000126185     GGSL
NJARET20110-26978-26243-10000004D0000044D000000000026243     GGSL
NJARET20110-26978-26245-50000008D0000088D000030000026245     GGSL
NJARET20110-26978-26270-70000030D0000346D000090000226270     GGSL
NJARET20110-26978-29005-20000005D0000096D000030000029005     GGSL
NJARET20110-26978-29223-00000003D0000096D000000000029223     GGSL
NJARET20110-26978-29228-50000003D0000067D000010000029228     GGSL
NJARET20110-26978-30301-10000276D0001214D000470000630301     GGSL
NJARET20110-26978-30312-70000012D0000012D000400000230312     GGSL
NJARET20110-26978-30402-50000084D0000407D000160000130402     GGSL
NJARET20110-26978-30409-40000060D0000329D000230000030409     GGSL
NJARET20110-26978-30411-70000072D0000449D000420000430411     GGSL
NJARET20110-26978-30413-10000960D0003607D00042000033041396   GGSL
NJARET20110-26978-30500-80000020D0000099D000010000130500     GGSL
NJARET20110-26978-30602-90000288D0001066D002350002330602     GGSL
NJARET20110-26978-30605-00000018D0000071D000460000730605     GGSL
NJARET20110-26978-30705-70000018D0000069D000300000730705     GGSL
NJARET20110-26978-30806-10000048D0000202D000240001030806     GGSL
NJARET20110-26978-30809-20000042D0000177D000310001030809     GGSL
NJARET20110-26978-30909-90000020D0000099D000040000430909     GGSL
NJARET20110-26978-31100-90000040D0000240D000400000731100     GGSL
NJARET20110-26978-31101-60000015D0000090D000020000231101     GGSL
NJARET20110-26978-31108-50000035D0000210D000490000231108     GGSL
NJARET20110-26978-31109-20000015D0000090D000270000531109     GGSL
NJARET20110-26978-31120-70000010D0000125D000270000131120     GGSL
NJARET20110-26978-31121-40000020D0000250D000220000331121     GGSL
NJARET20110-26978-31128-30000020D0000250D000400000431128     GGSL
NJARET20110-26978-31129-00000005D0000062D000250000131129     GGSL
NJARET20110-26978-32101-50000025D0000192D000050000032100     GGSL
NJARET20110-26978-32108-40000065D0000499D000480000432108     GGSL
NJARET20110-26978-32109-10000015D0000115D000440000132109     GGSL
NJARET20110-26978-32121-30000025D0000341D000030000032120     GGSL
NJARET20110-26978-32128-20000020D0000272D000330000432128     GGSL
NJARET20110-26978-32129-90000020D0000272D000260000332129     GGSL
NJARET20110-26978-34061-00000050D0000212D000310001034061     GGSL
NJARET20110-26978-34063-40000040D0000169D000270000634063     GGSL
NJARET20110-26978-34068-90000070D0000296D000230000934068     GGSL
NJARET20110-26978-34081-80000030D0000225D000200000634081     GGSL
NJARET20110-26978-34083-20000050D0000376D000280000434083     GGSL
NJARET20110-26978-34088-70000060D0000451D000330000734088     GGSL
NJARET20110-26978-34101-30000010D0000125D000300000834101     GGSL
NJARET20110-26978-34103-70000015D0000188D000590000734103     GGSL
NJARET20110-26978-34108-20000020D0000250D000030000034108     GGSL
NJARET20110-26978-34121-10000005D0000087D000410000234121     GGSL
NJARET20110-26978-34123-50000005D0000087D000400000234123     GGSL
NJARET20110-26978-34128-00000010D0000174D000410000334128     GGSL
NJARET20110-26978-34143-50000003D0000077D000320000334143     GGSL
NJARET20110-26978-35061-90000060D0000254D000020000235061     GGSL
NJARET20110-26978-35066-40000030D0000127D000170000235066     GGSL
NJARET20110-26978-35068-80000010D0000042D000490001035068     GGSL
NJARET20110-26978-35069-50000010D0000042D000030000035069     GGSL
NJARET20110-26978-35080-00000120D0000946D000930000335080     GGSL
NJARET20110-26978-35081-70000050D0000366D000150000435081     GGSL
NJARET20110-26978-35086-20000020D0000158D000040000135086     GGSL
NJARET20110-26978-35088-60000010D0000079D000000000035088     GGSL
NJARET20110-26978-35089-30000040D0000315D000320000135089     GGSL
NJARET20110-26978-35093-00000005D0000047D000110000035093     GGSL
NJARET20110-26978-35100-50000005D0000076D000220000435100     GGSL
NJARET20110-26978-35101-20000005D0000076D000040000335101     GGSL
NJARET20110-26978-35106-70000005D0000076D000080000135106     GGSL
NJARET20110-26978-35108-10000015D0000229D000030000335108     GGSL
NJARET20110-26978-35109-80000005D0000076D000130000235109     GGSL
NJARET20110-26978-35120-30000010D0000217D000180000035120     GGSL
NJARET20110-26978-35121-00000005D0000109D000050000035121     GGSL
NJARET20110-26978-35128-90000015D0000326D000140000535128     GGSL
NJARET20110-26978-35129-60000005D0000109D000090000035129     GGSL
NJARET20110-26978-35138-80000005D0000082D000060000035138     GGSL
NJARET20110-26978-35198-20000006D0000204D000200001235198     GGSL
NJARET20110-26978-35357-30000003D0000458D00000000003535701   GGSL
NJARET20110-26978-36100-40000010D0000113D000010000036100     GGSL
NJARET20110-26978-36108-00000010D0000113D000050000036108     GGSL
NJARET20110-26978-36148-60000005D0000067D000000000036148     GGSL
NJARET20110-26978-36220-90000005D0000117D000130000436220     GGSL
NJARET20110-26978-36228-50000005D0000117D000140000736228     GGSL
NJARET20110-26978-38142-20000072D0000379D000190000438142     GGSL
NJARET20110-26978-38146-00000084D0000443D000150000438146     GGSL
NJARET20110-26978-38148-40000108D0000569D000000000038148     GGSL
NJARET20110-26978-38192-70000018D0000215D000080000338192     GGSL
NJARET20110-26978-38196-50000102D0001220D000140000338196     GGSL
NJARET20110-26978-39122-30000036D0000143D000560000339122     GGSL
NJARET20110-26978-39126-10000036D0000143D000410000539126     GGSL
NJARET20110-26978-39128-50000072D0000285D000160001439128     GGSL
NJARET20110-26978-39182-70000030D0000306D000460000939182     GGSL
NJARET20110-26978-39186-50000066D0000673D000210000439186     GGSL
NJARET20110-26978-39188-90000006D0000061D000150001539188     GGSL
NJARET20110-26978-48098-30000012D0000053D000190000448098     GGSL
NJARET20110-26978-48128-00000012D0000074D000120000148128     GGSL
NJARET20110-26978-48158-00000006D0000049D000200000848158     GGSL
NJARET20110-26978-63075-90000010D0000063D000090000063075     GGSL
NJARET20110-26978-80101-20000012D0000441D000500000080101     GGSL
NJARET20110-26978-80105-00000020D0000734D000180000080105     GGSL
NJARET20110-26978-80107-40000048D0001345D00039000038010712   GGSL
NJARET20110-26978-80151-70000008D0000303D000490000980151     GGSL
NJARET20110-26978-80155-50000008D0000303D000210000480155     GGSL
NJARET20110-26978-80658-10000006D0000108D000030000080658     GGSL
NJARET20110-26978-81011-30000012D0000307D000330000081011     GGSL
NJARET20110-26978-81015-10000004D0000102D000430000081015     GGSL
NJARET20110-26978-81100-40000084D0000646D000500000481100     GGSL
NJARET20110-26978-81101-10000096D0000861D000750001081101     GGSL
NJARET20110-26978-81121-90000012D0000044D000370000081121     GGSL
NJARET20110-26978-81125-70000012D0000038D000010000081125     GGSL
NJARET20110-26978-81127-10000012D0000038D000000000081127     GGSL
NJARET20110-27452-06200-40000002D0000034D00013000006200      GGSL
NJARET20110-27652-63528-20000001D0000070D0000000000RC435016E GGSL
NJARET20110-27652-80203-50000006D0000285D0000500001LG400151  GGSL
NJARET20110-27652-80205-90000036D0002489D0000400000LG400171  GGSL
NJARET20110-27652-80205-90000005D0000211D0000000000LG400171GDGGSL
NJARET20110-27652-82210-10000008D0000452D0000400004LG400272GDGGSL
NJARET20110-27856-10001-20003036D0009029D0112600110P10232    GGSL
NJARET20110-27856-10002-90005940D0031266D0301400574P10264    GGSL
NJARET20110-27856-10008-10001572D0021379D0113600173P101      GGSL
NJARET20110-27856-10009-80001074D0009827D0103700163P128      GGSL
NJARET20110-27997-20065-70000006D0000059D0000100000KHM       GGSL
NJARET20110-28009-15540-80000360D0001015D0000200002T5540     GGSL
NJARET20110-28929-07820-70000002D0000108D00032000002782SPC   GGSL
NJARET20110-28929-08927-20000001D0000102D00078000008927SHDI  GGSL
NJARET20110-28929-13775-10000003D0000065D0000800000137SP75   GGSL
NJARET20110-28929-27850-80000001D0000054D00000000002785SPC   GGSL
NJARET20110-28929-49100-60000005D0000096D00000000004910B     GGSL
NJARET20110-28929-49101-30000008D0000154D00000000004910G     GGSL
NJARET20110-28929-49106-80000004D0000077D00000000004910Y     GGSL
NJARET20110-28929-49107-50000003D0000058D00003000004910O     GGSL
NJARET20110-29973-12333-20000104D0000366D000900000214110028P GGSL
NJARET20110-29973-12341-70000069D0000343D0009600010141100216UGGSL
NJARET20110-29973-12349-30000040D0000176D000270001014901028P GGSL
NJARET20110-29973-12456-80000072D0000317D000450000214902028P GGSL
NJARET20110-30541-00066-50000024D0000060D0000200000JCDTP03   GGSL
NJARET20110-30541-00069-60000012D0000069D0000400000JCD05CMP  GGSL
NJARET20110-30541-00102-00000018D0000098D0000200002JCD02ER   GGSL
NJARET20110-30541-00501-10000002D0000514D0000000000JCD50BKSM GGSL
NJARET20110-30541-01020-60000288D0000654D0003700003JCD024SM  GGSL
NJARET20110-30541-01020-60000060D0000108D0001200002JCD060SM  GGSL
NJARET20110-30541-01030-50000132D0001107D0006200013JCD100SMJ GGSL
NJARET20110-30541-01034-30000072D0001510D0003900005JCD030SM  GGSL
NJARET20110-30541-01039-80000312D0001623D0003300004JCD05SM   GGSL
NJARET20110-30541-01210-10000024D0000045D0000000000JCD024SMS GGSL
NJARET20110-30541-07006-40000001D0000372D0001300001JCDRACKA  GGSL
NJARET20110-30541-08878-60000048D0000145D0000400000SMMS      GGSL
NJARET20110-30541-08879-30000024D0000072D0001500000SMVS      GGSL
NJARET20110-30541-09981-20000200D0000389D0001500007JCDTPG    GGSL
NJARET20110-30541-09983-60000050D0000099D0000500002JCDTPP    GGSL
NJARET20110-30541-50100-10000024D0000038D0000000000DBM       GGSL
NJARET20110-30541-70065-80000006D0000040D0000100000JCD05OB   GGSL
NJARET20110-30541-77703-10000048D0000134D0000000000SMN3      GGSL
NJARET20110-30541-77710-90000012D0000097D0000000000SMN10     GGSL
NJARET20110-30541-83795-70000024D0000048D0000300000JCD024TMP GGSL
NJARET20110-30541-83796-40000024D0000042D0000000000SR24      GGSL
NJARET20110-31009-40456-80000008D0000047D000020000227010409  GGSL
NJARET20110-31009-43607-10000012D0000201D0000700000952153209 GGSL
NJARET20110-31009-66921-90000010D0000041D00006000022576      GGSL
NJARET20110-31009-67877-80000004D0000024D00004000002579      GGSL
NJARET20110-31009-69125-80000006D0000033D00000000002580      GGSL
NJARET20110-31340-10005-10000084D0001539D0000800003B550120   GGSL
NJARET20110-31340-10006-80000132D0001477D0014700049B550125   GGSL
NJARET20110-31340-10017-40000032D0000586D0003400000B550190   GGSL
NJARET20110-31340-10020-40000008D0000201D0000800000B550205   GGSL
NJARET20110-31365-10600-70000054D0001196D0005600006 42808    GGSL
NJARET20110-31417-00107-60000010D0000054D000420000080202005  GGSL
NJARET20110-31724-40015-90000006D0000221D0000000000400150    GGSL
NJARET20110-31724-81005-70000008D0000290D0002100000810050    GGSL
NJARET20110-31724-85095-40000005D0000087D0000300002850950    GGSL
NJARET20110-31724-86425-80000075D0000750D0000000000864250    GGSL
NJARET20110-31724-88447-80000003D0000113D0000100000884475    GGSL
NJARET20110-32247-00900-30000030D0000107D00022000081009001   GGSL
NJARET20110-32247-00950-80000030D0000105D00016000021009501   GGSL
NJARET20110-32247-10500-20000036D0000356D0000300000110500    GGSL
NJARET20110-32247-14900-60000024D0000194D000570000614900     GGSL
NJARET20110-32247-14905-10000032D0000259D002150000514905     GGSL
NJARET20110-32247-17183-00000012D0000121D002270001117183     GGSL
NJARET20110-32247-17185-40000004D0000092D001840000717185     GGSL
NJARET20110-32247-17325-40000004D0000084D000490000017325     GGSL
NJARET20110-32247-17508-10000030D0000349D002120000817508     GGSL
NJARET20110-32247-17511-10000012D0000131D000230000117511     GGSL
NJARET20110-32247-18225-60000018D0000176D000380000418225     GGSL
NJARET20110-32247-18287-40000018D0000244D000490000018287     GGSL
NJARET20110-32247-18290-40000002D0000073D000150000018290     GGSL
NJARET20110-32247-20785-00000072D0000285D000720000472078430  GGSL
NJARET20110-32247-21605-00000020D0000421D001300001521605     GGSL
NJARET20110-32247-21814-60000019D0000701D000750001421814     GGSL
NJARET20110-32247-22305-80000012D0000223D002770000022305     GGSL
NJARET20110-32247-22315-70000015D0000694D000590000022315     GGSL
NJARET20110-32247-23200-50000050D0001863D000740000023200     GGSL
NJARET20110-32247-25009-20000020D0001378D001640000225009     GGSL
NJARET20110-32247-26784-70000018D0000072D000360000072678430  GGSL
NJARET20110-32247-30156-50000016D0000221D001810000030156     GGSL
NJARET20110-32247-33002-20000012D0000177D00006000003300210   GGSL
NJARET20110-32247-36905-30000047D0001802D008460000336905     GGSL
NJARET20110-32247-38605-00000024D0000432D000260000038605D    GGSL
NJARET20110-32247-42784-50000108D0000432D000150000174278430  GGSL
NJARET20110-32247-47783-30000072D0000288D000230000174778300  GGSL
NJARET20110-32247-49019-10000003D0000036D004090000049019     GGSL
NJARET20110-32247-50240-50000006D0000397D000840000050240     GGSL
NJARET20110-32247-50250-40000009D0000227D003360000050250     GGSL
NJARET20110-32247-52784-20000030D0000120D000420000085278430  GGSL
NJARET20110-32247-55523-40000036D0000546D000070000075552300  GGSL
NJARET20110-32247-55783-20000030D0000154D000360002575578300  GGSL
NJARET20110-32247-56063-40000048D0000249D000060000045606300  GGSL
NJARET20110-32247-56163-10000091D0000769D000030000045616300  GGSL
NJARET20110-32247-56513-40000455D0004095D000250002175651300  GGSL
NJARET20110-32247-56513-40000053D0000477D000050000075651300X GGSL
NJARET20110-32247-56523-30000036D0000506D000310002075652300  GGSL
NJARET20110-32247-56523-30000046D0000628D000620000075652300X GGSL
NJARET20110-32247-56783-10000144D0000668D001860014775678300  GGSL
NJARET20110-32247-56783-10000120D0000569D000070000675678309  GGSL
NJARET20110-32247-56863-00000273D0002033D000050000075686300  GGSL
NJARET20110-32247-56863-00000028D0000208D000700001075686300X GGSL
NJARET20110-32247-57905-60000006D0000074D001980000057905     GGSL
NJARET20110-32247-71060-20000042D0000556D001110000571060     GGSL
NJARET20110-32247-74150-70000480D0002650D0017900031274150    GGSL
NJARET20110-32247-74250-40000408D0003442D0022100041274250    GGSL
NJARET20110-32247-74850-60000116D0002218D0012800020274850    GGSL
NJARET20110-32247-76121-50000003D0000109D000880000676121     GGSL
NJARET20110-32247-76232-80000036D0002306D000380000076232     GGSL
NJARET20110-32247-77160-30000360D0001809D0017100026277160    GGSL
NJARET20110-32247-77260-00000312D0002748D0003100017277260    GGSL
NJARET20110-32247-77860-20000048D0000784D0001900006277860    GGSL
NJARET20110-32247-77960-90000112D0002368D0022200023277960    GGSL
NJARET20110-32247-95517-10000120D0000613D000030000079551750  GGSL
NJARET20110-32247-99605-10000030D0000710D005130006899605     GGSL
NJARET20110-32247-99610-50000020D0000919D000410000199610     GGSL
NJARET20110-32903-00169-30000024D0000029D0000000000SLI06000E3GGSL
NJARET20110-32903-00171-60000336D0000407D0000800007SLI06000A3GGSL
NJARET20110-32903-00191-40000048D0000212D0000300001GAB12000E2GGSL
NJARET20110-32903-00192-10000216D0000261D0000200002SLI06000B9GGSL
NJARET20110-32903-00214-00000192D0000232D0000600004SLI06000E2GGSL
NJARET20110-32903-00222-50000072D0000112D0000800002SLI08000B9GGSL
NJARET20110-32903-00224-90000036D0000248D0003000002VNP18000E2GGSL
NJARET20110-32903-00227-00000006D0000025D0002500001SVN18000E2GGSL
NJARET20110-32903-00228-70000024D0000407D0000100000ROS15500A3GGSL
NJARET20110-32903-00240-90000216D0000335D0003400001SLI08000E2GGSL
NJARET20110-32903-00246-10000024D0000037D0000700002SLI08000A3GGSL
NJARET20110-32903-00258-40000096D0000169D0000400003LIA06000E2GGSL
NJARET20110-32903-00264-50000264D0000702D0000000000LIA08000E2GGSL
NJARET20110-32903-00281-20000120D0000490D0001400004LIA10000E2GGSL
NJARET20110-32903-00283-60000012D0000074D0000200000GAB14000E2GGSL
NJARET20110-32903-00287-40000042D0000328D0002700000VNP24000E2GGSL
NJARET20110-32903-00290-40000036D0000365D0001900001VNP30000E2GGSL
NJARET20110-32903-00293-50000072D0000156D0000300003SLI10000E2GGSL
NJARET20110-32903-00301-70000015D0000219D0003700001ROP28000A3GGSL
NJARET20110-32903-00309-30000084D0000182D0000100001SLI10000E3GGSL
NJARET20110-32903-00326-00000060D0000392D0000200002LIA12000E2GGSL
NJARET20110-32903-00332-10000120D0000260D0000900007SLI10000B9GGSL
NJARET20110-32903-00338-30000108D0000234D0000200002SLI10000A3GGSL
NJARET20110-32903-00341-30000030D0000249D0000100001SLI24000E3GGSL
NJARET20110-32903-00359-80000048D0000074D0000400004SLI08000E3GGSL
NJARET20110-32903-04255-90000096D0000793D0001500003LIA14000E2GGSL
NJARET20110-32903-04257-30000012D0000044D0000700004SLI12000E2GGSL
NJARET20110-32903-07519-90000084D0001076D0001500002LIA16000E2GGSL
NJARET20110-32903-07530-40000024D0000094D0000900003SLI14000E2GGSL
NJARET20110-32903-07534-20000066D0001133D0000200001LIA20000E2GGSL
NJARET20110-32903-07563-20000024D0000105D0000300003SLI17000E2GGSL
NJARET20110-32903-07577-90000036D0000825D0000200002LIA24000E2GGSL
NJARET20110-32903-12006-60000792D0001383D0000600006LIA06000E3GGSL
NJARET20110-32903-12008-00001152D0003047D0005100011LIA08000E3GGSL
NJARET20110-32903-12010-30000696D0002840D0007300028LIA10000E3GGSL
NJARET20110-32903-12012-70000756D0004944D0010700021LIA12000E3GGSL
NJARET20110-32903-12014-10000468D0003866D0004400013LIA14000E3GGSL
NJARET20110-32903-12017-20000408D0005226D0002300009LIA16000E3GGSL
NJARET20110-32903-12020-20000156D0002677D0003000011LIA20000E3GGSL
NJARET20110-32903-12024-00000126D0002887D0001700010LIA24000E3GGSL
NJARET20110-32903-12312-80000024D0000127D0000200002CNA12000E3GGSL
NJARET20110-32903-12318-00000012D0000050D0003500004SVN18000E3GGSL
NJARET20110-32903-12324-10000024D0000111D0002100004SVN24000E3GGSL
NJARET20110-32903-12330-20000018D0000099D0002200002SVN30000E3GGSL
NJARET20110-32903-12712-60000204D0000902D0000300001GAB12000E3GGSL
NJARET20110-32903-12714-00000096D0000570D0003400001GAB14000E3GGSL
NJARET20110-32903-12718-80000048D0000454D0004500005GAB18000E3GGSL
NJARET20110-32903-12722-50000012D0000179D0002900003GAB22000E3GGSL
NJARET20110-32903-12818-50000006D0000041D0000600003VNP18000E3GGSL
NJARET20110-32903-12824-60000042D0000328D0002700003VNP24000E3GGSL
NJARET20110-32903-12830-70000024D0000243D0001900002VNP30000E3GGSL
NJARET20110-32903-23732-00000006D0000039D0000200001SLI20000E2GGSL
NJARET20110-32903-30392-60000120D0000264D0000900001CNA08000E3GGSL
NJARET20110-32903-40400-50000144D0000588D0000100001LIA10000A3GGSL
NJARET20110-32903-40493-70000384D0001021D0000200002LIA08000B9GGSL
NJARET20110-32903-40770-90000018D0000124D0004200002VNP18000A3GGSL
NJARET20110-32903-41472-10000012D0000066D0001900000SVN30000A3GGSL
NJARET20110-32903-41640-40000048D0000128D0000000000LIA08000A3GGSL
NJARET20110-32903-41717-30000288D0002379D0002600003LIA14000B9GGSL
NJARET20110-32903-41728-90000432D0002825D0000300003LIA12000B9GGSL
NJARET20110-32903-41842-20000030D0000304D0003300001VNP30000A3GGSL
NJARET20110-32903-41909-20000228D0002921D0001100002LIA16000A3GGSL
NJARET20110-32903-42050-00000036D0000825D0001100007LIA24000A3GGSL
NJARET20110-32903-42240-50000576D0001014D0000100001LIA06000B9GGSL
NJARET20110-32903-42728-80000012D0000055D0002900002SVN24000A3GGSL
NJARET20110-32903-43116-20000006D0000025D0004200001SVN18000A3GGSL
NJARET20110-32903-45170-20000132D0001090D0000100001LIA14000A3GGSL
NJARET20110-32903-45342-30000042D0000328D0003300002VNP24000A3GGSL
NJARET20110-32903-45788-90000054D0001237D0000700001LIA24000B9GGSL
NJARET20110-32903-46337-80000156D0001998D0001600004LIA16000B9GGSL
NJARET20110-32903-46966-00000042D0000721D0001500006LIA20000A3GGSL
NJARET20110-32903-47208-00000180D0001177D0000100001LIA12000A3GGSL
NJARET20110-32903-48101-30000216D0000380D0000100001LIA06000A3GGSL
NJARET20110-32903-48538-70000054D0000927D0000400002LIA20000B9GGSL
NJARET20110-32903-50286-20000168D0000583D0001300003HSI10008E2GGSL
NJARET20110-32903-50763-80000072D0000264D0000200002SLI12000E3GGSL
NJARET20110-32903-50767-60000036D0000132D0000000000SLI12000A3GGSL
NJARET20110-32903-50794-20000048D0000176D0000300003SLI12000B9GGSL
NJARET20110-32903-50802-40000600D0002352D0003500017SLI14000E3GGSL
NJARET20110-32903-50803-10000132D0000517D0001100008SLI14000A3GGSL
NJARET20110-32903-52340-90000012D0000055D0002600004SVN24000B9GGSL
NJARET20110-32903-52858-90000018D0000124D0000700000VNP18000B9GGSL
NJARET20110-32903-53271-50000036D0000299D0001500002SLI24000E2GGSL
NJARET20110-32903-56391-70000204D0000708D0004200010HSI10008A1GGSL
NJARET20110-32903-57235-30000030D0000304D0002700004VNP30000B9GGSL
NJARET20110-32903-57495-10000012D0000066D0002100002SVN30000B9GGSL
NJARET20110-32903-58303-80000042D0000328D0001700004VNP24000B9GGSL
NJARET20110-32903-58838-50000006D0000025D0002500001SVN18000B9GGSL
NJARET20110-32903-60253-10000012D0000044D0000000000SRO12500A3GGSL
NJARET20110-32903-61636-10000228D0000791D0002200004HSI10008B6GGSL
NJARET20110-32903-72233-80000432D0001763D0001000001LIA10000B9GGSL
NJARET20110-32903-72518-60000064D0000535D0000100001RZWC2G0B9 GGSL
NJARET20110-32903-75049-20000048D0000314D0000800006SLI20000E3GGSL
NJARET20110-32903-75051-50000072D0000315D0001200005SLI17000A3GGSL
NJARET20110-32903-75070-60000042D0000275D0000500005SLI20000A3GGSL
NJARET20110-32903-75076-80000004D0000315D0000000000TES24000G2GGSL
NJARET20110-32903-75080-50000036D0000157D0000600005SLI17000E3GGSL
NJARET20110-32903-75081-20000018D0000118D0000200002SLI20000B9GGSL
NJARET20110-32903-75084-30000048D0000399D0001100009SLI24000A3GGSL
NJARET20110-32903-75089-80000006D0000050D0000500003SLI24000B9GGSL
NJARET20110-32903-91270-80000001D0000041D0000100001RZGH210E3 GGSL
NJARET20110-32903-91319-40000006D0000098D0000100000TEA17000G8GGSL
NJARET20110-32903-91321-70000004D0000152D0000100001TEA24000G8GGSL
NJARET20110-32903-91324-80000002D0000157D0000000000TES24000G8GGSL
NJARET20110-32903-91485-60000005D0000063D0000500001SPX24DBA34GGSL
NJARET20110-32903-91608-90000010D0000066D0000000000IFA1200E35GGSL
NJARET20110-33200-00020-40000024D0000020D00207000003320000020GGSL
NJARET20110-33200-00544-50002544D0025491D005440054400544     GGSL
NJARET20110-33200-01191-00000352D0002489D000520005201191     GGSL
NJARET20110-33200-06527-20000800D0014392D00000000006527      GGSL
NJARET20110-33200-09020-50000316D0002209D001000000709020     GGSL
NJARET20110-33200-09142-40000364D0002548D000890008909142     GGSL
NJARET20110-33200-09293-30000592D0004197D00079000799293      GGSL
NJARET20110-33200-09793-80000002D0000019D00061000009793      GGSL
NJARET20110-33200-09991-80000008D0000033D00025000009991      GGSL
NJARET20110-33200-11321-80000354D0000473D000650002911321     GGSL
NJARET20110-33200-11448-20000030D0000045D001090000011448     GGSL
NJARET20110-33200-94182-80006540D0065531D002900029094182     GGSL
NJARET20110-33200-97209-90000012D0000095D000520000097209     GGSL
NJARET20110-33200-97242-60000004D0000032D002210000097242     GGSL
NJARET20110-33200-97457-40001436D0014949D000000000097457     GGSL
NJARET20110-33349-00130-80005616D0000674D0000300002JP3BULK   GGSL
NJARET20110-33349-03110-70002405D0003344D0012700018JP310     GGSL
NJARET20110-33349-05042-90000120D0000566D0000300001J324      GGSL
NJARET20110-33349-05047-40000012D0000068D0000200000J6R16     GGSL
NJARET20110-33349-05048-10000096D0000391D0000300001J3R36     GGSL
NJARET20110-33349-05072-60000030D0000233D0000800004G416      GGSL
NJARET20110-33349-05082-50000304D0000940D0008000007JP506     GGSL
NJARET20110-33349-05262-10000014D0000198D0000200002T70H      GGSL
NJARET20110-33349-05618-60000544D0003130D0017500024G310      GGSL
NJARET20110-33349-07750-10000435D0001424D0002800004J4R25     GGSL
NJARET20110-33349-41211-10001452D0001595D0003300009JP212     GGSL
NJARET20110-33349-41214-20000320D0000667D0005500021JP226     GGSL
NJARET20110-33349-41221-00001050D0002126D0003200013TDOME     GGSL
NJARET20110-33349-41234-00001600D0002676D0007800024TTRAY     GGSL
NJARET20110-33349-41238-80000378D0001783D0004600023T32       GGSL
NJARET20110-33349-41251-70000330D0000997D0003200008JS50      GGSL
NJARET20110-33349-41254-80000820D0002478D0006400013JS32      GGSL
NJARET20110-33349-41258-60000176D0000325D0000600006TR72      GGSL
NJARET20110-33349-41318-70000252D0000752D0005300013JP322     GGSL
NJARET20110-33349-41444-30001056D0000213D0001600001JP4BULK   GGSL
NJARET20110-33349-41444-30000868D0001968D0005400011JP406     GGSL
NJARET20110-33349-41620-10000075D0000581D0015900002G316      GGSL
NJARET20110-33349-41701-70007000D0000846D0001900008J4BULK    GGSL
NJARET20110-33349-41710-90000544D0001727D0003700013J312      GGSL
NJARET20110-33349-65140-40000034D0000102D0000200002J410      GGSL
NJARET20110-33349-65153-40000010D0000063D0001300002G312      GGSL
NJARET20110-33349-65205-00000033D0000298D0000400002T34H      GGSL
NJARET20110-33349-65220-30000008D0000127D0000200001JH48      GGSL
NJARET20110-33349-66003-10000280D0002863D0002200010J372ST20  GGSL
NJARET20110-33349-66005-50000160D0001330D0002900003J425ST16  GGSL
NJARET20110-33349-66006-20000020D0000210D0000300000J450ST20  GGSL
NJARET20110-33349-66007-90000022D0000176D0000900002J616ST11  GGSL
NJARET20110-33349-66008-60000130D0001860D0002000005J636ST10  GGSL
NJARET20110-33349-66009-30000966D0006161D0015400032T72HST14  GGSL
NJARET20110-33349-66010-90000272D0002165D0006400011TS50HST16 GGSL
NJARET20110-33349-66015-40000112D0000659D0005900005TS20HST14 GGSL
NJARET20110-33349-66016-10000238D0001496D0006200010TS32HST14 GGSL
NJARET20110-33607-00003-60000008D0000239D0002400000EDGE180   GGSL
NJARET20110-33607-00701-10000006D0000057D0001200000RT1       GGSL
NJARET20110-33607-00702-80000012D0000218D0000300000RD2       GGSL
NJARET20110-33607-00703-50000006D0000115D0000100000RP3       GGSL
NJARET20110-33607-00704-20000006D0000081D0002400000REA4      GGSL
NJARET20110-33607-00978-70000002D0000493D0000000000LTASST12  GGSL
NJARET20110-33607-01220-60000006D0000143D0000100000LT20      GGSL
NJARET20110-33607-22000-70000036D0000395D0000100001HCWM1     GGSL
NJARET20110-33607-22005-20000004D0000100D0000700002HC2       GGSL
NJARET20110-33607-22006-90000004D0000100D0000000000HBE6      GGSL
NJARET20110-33607-22310-70000004D0000114D0000200000BPL6      GGSL
NJARET20110-33607-51200-30000004D0000188D0001200001RC3       GGSL
NJARET20110-33607-51300-00000004D0000114D0000100001TNT4      GGSL
NJARET20110-33607-52100-50000008D0000377D0000700000GKS2      GGSL
NJARET20110-34411-02971-80000006D0000142D00077000008550321001GGSL
NJARET20110-34411-60153-20000008D0000225D00000000008405011001GGSL
NJARET20110-34411-74001-90000006D0000305D00016000088740011001GGSL
NJARET20110-34411-92773-10000012D0000094D00026000008702511001GGSL
NJARET20110-34411-92774-80000012D0000146D00015000008705011001GGSL
NJARET20110-34517-15025-00000016D0000139D0002400002GMC10L    GGSL
NJARET20110-34613-00011-90000012D0000103D0002000001LH011     GGSL
NJARET20110-34613-00808-50000050D0000352D0000100001SS8HD     GGSL
NJARET20110-34613-00809-20000030D0000019D0000300003SS6HD     GGSL
NJARET20110-34613-00924-20000024D0000426D0000700000924       GGSL
NJARET20110-34613-01902-90000048D0000416D00006000061902      GGSL
NJARET20110-34613-02124-40000012D0000129D00001000002124      GGSL
NJARET20110-34613-03108-30000012D0000231D00000000003108      GGSL
NJARET20110-34613-03344-50000006D0000141D00000000003344      GGSL
NJARET20110-34613-03398-80000012D0000150D00001000003398      GGSL
NJARET20110-34613-04879-10000006D0000094D00005000004879BL    GGSL
NJARET20110-34613-18050-70000012D0000081D00001000018050BL    GGSL
NJARET20110-34613-59774-90000001D0000189D000770000659774     GGSL
NJARET20110-34613-66637-70000002D0000474D000480000266637     GGSL
NJARET20110-34613-69883-50000008D0000874D000620000069883     GGSL
NJARET20110-35000-00163-40000016D0000025D0008900000US04250A  GGSL
NJARET20110-35000-05361-90000020D0000014D0000000000105375    GGSL
NJARET20110-35000-05364-00002880D0002998D0000000000105374    GGSL
NJARET20110-35000-14112-50000432D0002138D000000000014477     GGSL
NJARET20110-35000-14120-00000360D0001782D000000000014478     GGSL
NJARET20110-35000-14328-00000054D0000267D000000000014483     GGSL
NJARET20110-35000-39013-40000450D0001503D000000000039013     GGSL
NJARET20110-35000-39014-10000030D0000092D000290000539014     GGSL
NJARET20110-35000-39371-50000020D0000119D000000000039371     GGSL
NJARET20110-35000-39373-90000004D0000034D000500000039373     GGSL
NJARET20110-35000-44558-20000400D0002092D0000000000US04121A  GGSL
NJARET20110-35000-44673-20001449D0002185D000010000144673     GGSL
NJARET20110-35000-44674-90000009D0000043D000630000044674     GGSL
NJARET20110-35000-44678-70000729D0001099D000000000044678     GGSL
NJARET20110-35000-45038-50000972D0002384D0000000000US04232A  GGSL
NJARET20110-35000-45041-50000936D0002017D0000000000US04229A  GGSL
NJARET20110-35000-45072-20000504D0001950D0000000000US04274A  GGSL
NJARET20110-35000-45093-70000018D0000070D0005000000US04282A  GGSL
NJARET20110-35000-45122-40000640D0003421D0000000000US04284A  GGSL
NJARET20110-35000-45816-20000252D0001525D0000000000MX04966A  GGSL
NJARET20110-35000-46157-50000172D0000748D000100000146157     GGSL
NJARET20110-35000-47805-40000324D0000761D000130000447805     GGSL
NJARET20110-35000-49860-10000360D0000756D000000000049860     GGSL
NJARET20110-35000-49862-50000360D0000756D000000000049862     GGSL
NJARET20110-35000-49863-20000342D0000726D000000000049863     GGSL
NJARET20110-35000-51119-50000468D0001334D0000000000151119    GGSL
NJARET20110-35000-53032-50004038D0009543D0000000000153041    GGSL
NJARET20110-35000-53058-50004996D0023548D000010000053058     GGSL
NJARET20110-35000-53099-80003600D0008280D000000000053099     GGSL
NJARET20110-35000-53106-30000276D0000373D000000000053106     GGSL
NJARET20110-35000-53122-30001320D0007986D000040000453122     GGSL
NJARET20110-35000-55190-00000180D0000540D0000200000155190    GGSL
NJARET20110-35000-67123-30000012D0000065D000000000067123     GGSL
NJARET20110-35000-96987-30000225D0001361D0000000000MX06813A  GGSL
NJARET20110-35000-97018-30000456D0002937D0000000000US06329A  GGSL
NJARET20110-35000-97301-60000400D0002652D0000000000US06489A  GGSL
NJARET20110-35000-97336-80000068D0000436D0000000000US06516A  GGSL
NJARET20110-35000-97354-20000268D0001252D0007400000US06531A  GGSL
NJARET20110-35110-04915-10000096D0000920D000000000004915     GGSL
NJARET20110-35307-00402-40000012D0000045D0000000000402       GGSL
NJARET20110-35307-00404-80000048D0000178D0000100000404       GGSL
NJARET20110-35307-00781-00000012D0000107D0000500002781       GGSL
NJARET20110-35307-00782-70000024D0000219D0000800001782       GGSL
NJARET20110-35307-00804-60000012D0000020D0000500000804       GGSL
NJARET20110-35307-00812-10000084D0000205D0000700006812       GGSL
NJARET20110-35307-00816-90000024D0000038D0001900005816       GGSL
NJARET20110-35307-00818-30000024D0000042D0000300003818       GGSL
NJARET20110-35307-00819-00000012D0000024D0000300002819       GGSL
NJARET20110-35307-00820-60000012D0000019D0001100003820       GGSL
NJARET20110-35307-00826-80000096D0000174D0000800008826       GGSL
NJARET20110-35307-00827-50000120D0000227D0002200004827       GGSL
NJARET20110-35307-00829-90000012D0000038D0000400000829       GGSL
NJARET20110-35307-00835-00000060D0000338D0003800007835       GGSL
NJARET20110-35307-00838-10000012D0000036D0000000000838       GGSL
NJARET20110-35307-00840-40000108D0000263D0001500011840       GGSL
NJARET20110-35307-00843-50000060D0000174D0000500005843       GGSL
NJARET20110-35307-00844-20000024D0000055D0000500002844       GGSL
NJARET20110-35307-00845-90000012D0000047D0000100000845       GGSL
NJARET20110-35307-00857-20000012D0000066D0000000000857       GGSL
NJARET20110-35307-00861-90000048D0000128D0001800007861       GGSL
NJARET20110-35307-00862-60000048D0000131D0000800004862       GGSL
NJARET20110-35307-00864-00000036D0000141D0001100008864       GGSL
NJARET20110-35307-00869-50000012D0000121D0001200003869       GGSL
NJARET20110-35307-00874-90000048D0000074D0001500004874       GGSL
NJARET20110-35307-00877-00000024D0000037D0000000000877       GGSL
NJARET20110-35307-00916-60000048D0000108D0001400000916       GGSL
NJARET20110-35307-00917-30000048D0000124D0000600001917       GGSL
NJARET20110-35307-00967-80000048D0000094D0001700001967       GGSL
NJARET20110-35307-00970-80000012D0000110D0000000000970       GGSL
NJARET20110-35307-00971-50000048D0000252D0000400000971       GGSL
NJARET20110-35307-00972-20000012D0000068D0001100001972       GGSL
NJARET20110-35307-00973-90000072D0000455D0001200001973       GGSL
NJARET20110-35307-00978-40000048D0000253D0002100005978       GGSL
NJARET20110-35307-00980-70000096D0000107D0000000000980       GGSL
NJARET20110-35307-00985-20000048D0000115D0000100001985       GGSL
NJARET20110-35307-00987-60000096D0000342D0000700002987       GGSL
NJARET20110-35307-01020-90000012D0000015D00000000001020      GGSL
NJARET20110-35307-01035-30000048D0000118D00005000001035      GGSL
NJARET20110-35307-01040-70000024D0000072D00000000001040      GGSL
NJARET20110-35307-01045-20000072D0000281D00014000001045      GGSL
NJARET20110-35307-01050-60000096D0000461D00008000001050      GGSL
NJARET20110-35307-01601-00000084D0001023D00043000161601      GGSL
NJARET20110-35307-01617-10000012D0000028D00000000001617PDQ   GGSL
NJARET20110-35307-01618-80000006D0000038D00010000001618      GGSL
NJARET20110-35307-01630-00000006D0000048D00002000001630      GGSL
NJARET20110-35307-01640-90000018D0000100D00006000031640      GGSL
NJARET20110-35307-01810-60000588D0002697D00002000021810      GGSL
NJARET20110-35307-01810-60000012D0000056D000040000218106     GGSL
NJARET20110-35307-01815-10000036D0000209D00007000071815      GGSL
NJARET20110-35307-01817-50000006D0000045D000010000118176     GGSL
NJARET20110-35307-01825-00000012D0000118D000000000018256     GGSL
NJARET20110-35307-01845-80000012D0000132D00000000001845      GGSL
NJARET20110-35307-01860-10000012D0000228D00000000001860      GGSL
NJARET20110-35307-01875-50000012D0000227D00000000001875      GGSL
NJARET20110-35307-01880-90000015D0000407D00002000001880      GGSL
NJARET20110-35307-90871-10000012D0000042D0000000000871       GGSL
NJARET20110-35307-90872-80000012D0000044D0000100001872       GGSL
NJARET20110-35951-07000-00001488D0015737D000590003107000     GGSL
NJARET20110-35951-07007-90000120D0001880D000090000907007     GGSL
NJARET20110-35951-07009-30000336D0007485D000030000007009     GGSL
NJARET20110-35951-07011-60000092D0006458D000150000407011     GGSL
NJARET20110-35951-07013-00000011D0003487D000110000107014     GGSL
NJARET20110-36151-46825-30000051D0001310D00009000002646825   GGSL
NJARET20110-36241-66300-10000030D0000207D009390000074297     GGSL
NJARET20110-36241-97161-80000004D0000038D001180000097161     GGSL
NJARET20110-36241-97402-20000072D0000321D0035700000974022    GGSL
NJARET20110-36348-00645-90000006D0000091D00009000030645      GGSL
NJARET20110-36348-00745-60000022D0000559D00005000000745      GGSL
NJARET20110-36348-01020-30000005D0000085D00015000001020      GGSL
NJARET20110-36348-01025-80000016D0000449D00014000001025      GGSL
NJARET20110-36348-01030-20000012D0000507D00018000031030      GGSL
NJARET20110-36348-01045-60000010D0000620D00002000001045      GGSL
NJARET20110-36348-01079-10000015D0000806D00032000061079      GGSL
NJARET20110-36348-01085-20000006D0000402D00006000031085      GGSL
NJARET20110-36348-05277-70000008D0000276D00001000005277      GGSL
NJARET20110-36434-00009-50000072D0000993D00005000001000009   GGSL
NJARET20110-36434-11000-80000036D0000359D00051000006011000   GGSL
NJARET20110-36434-12342-80000018D0000113D00020000016012342   GGSL
NJARET20110-36434-12353-40000066D0001084D00009000026012353   GGSL
NJARET20110-36434-12420-30000036D0000392D00009000031012420   GGSL
NJARET20110-36434-12700-60000972D0008252D00073000251012700   GGSL
NJARET20110-36434-12710-50000072D0000525D00023000011012710   GGSL
NJARET20110-36434-12720-40000264D0001727D00049000061012720   GGSL
NJARET20110-36434-12812-60000060D0000973D00023000031012812   GGSL
NJARET20110-36434-12860-70000024D0000321D00012000011012860   GGSL
NJARET20110-36434-13001-30000096D0000507D00018000021013001   GGSL
NJARET20110-36434-13812-50000060D0001089D00006000001013812   GGSL
NJARET20110-36434-13860-60000048D0000728D00006000001013860   GGSL
NJARET20110-36434-15000-40000048D0001566D00002000021015000   GGSL
NJARET20110-36434-15020-20000066D0001166D00032000141015020   GGSL
NJARET20110-36434-15030-10000036D0000759D00027000031015030   GGSL
NJARET20110-36434-15040-00000042D0000425D00038000061015040   GGSL
NJARET20110-36434-15060-80000090D0001370D00004000041015050   GGSL
NJARET20110-36434-15060-80000084D0001278D00014000071015060   GGSL
NJARET20110-36434-15070-70000030D0000411D00023000011015070   GGSL
NJARET20110-36434-17000-20000006D0000280D00031000011017000   GGSL
NJARET20110-36434-17010-10000006D0000132D00000000001017010   GGSL
NJARET20110-36434-20000-60000012D0000272D00010000001020000   GGSL
NJARET20110-36434-22341-80000012D0000130D00017000011022341   GGSL
NJARET20110-36434-22345-60000012D0000131D00003000011022345   GGSL
NJARET20110-36434-28040-40000012D0000168D00002000021028040   GGSL
NJARET20110-36723-01705-60000001D0000032D0000000000 S705D    GGSL
NJARET20110-37321-00022-80000912D0005974D0001200011022       GGSL
NJARET20110-37321-00023-50000024D0000471D0000200002023       GGSL
NJARET20110-37321-00024-20000060D0000742D0000000000024       GGSL
NJARET20110-37321-00036-50000012D0000081D0000300000036       GGSL
NJARET20110-37321-00042-60000006D0000081D0000500000042       GGSL
NJARET20110-37321-00050-10000048D0000048D0000100001050       GGSL
NJARET20110-37321-00051-80000084D0001044D0000500005051       GGSL
NJARET20110-37321-00055-60000003D0000043D0000600002055       GGSL
NJARET20110-37321-00061-70000096D0000748D0001500015061       GGSL
NJARET20110-37321-00065-50000156D0000844D0000300003065       GGSL
NJARET20110-37321-00066-20000084D0001026D0000000000066       GGSL
NJARET20110-37321-00067-90000006D0000060D0000000000067       GGSL
NJARET20110-37321-00068-60000108D0000602D0000900003068       GGSL
NJARET20110-37321-00069-30000060D0000813D0003600013069       GGSL
NJARET20110-37321-00070-90000048D0000742D0000600005070       GGSL
NJARET20110-37321-00081-50000012D0000081D0000300003081       GGSL
NJARET20110-37321-00097-60000072D0000399D0000700005097       GGSL
NJARET20110-37321-00098-30000210D0001001D0000000000098       GGSL
NJARET20110-37321-00099-00000108D0000751D0000000000099       GGSL
NJARET20110-37321-00102-70000120D0001469D0000000000102       GGSL
NJARET20110-37321-00103-40000072D0002622D0000300000103       GGSL
NJARET20110-37321-00106-50000012D0000036D0000000000106       GGSL
NJARET20110-37321-00108-90000036D0000094D0000100001108       GGSL
NJARET20110-37321-00112-60000008D0000026D0000000000112       GGSL
NJARET20110-37321-00116-40000008D0000027D0000000000116       GGSL
NJARET20110-37321-00123-20000024D0000097D0000400001123       GGSL
NJARET20110-37321-00127-00000108D0000951D0000000000127       GGSL
NJARET20110-37321-00141-60000060D0000281D0000100001141       GGSL
NJARET20110-37321-00150-80000120D0002033D0001000009150       GGSL
NJARET20110-37321-00161-40000012D0000063D0000800001161       GGSL
NJARET20110-37321-00165-20000004D0000049D0003700001165       GGSL
NJARET20110-37321-00166-90000060D0000336D0000100001166       GGSL
NJARET20110-37321-00167-60001104D0006927D0000700007167       GGSL
NJARET20110-37321-00196-60000120D0000727D0001100004196       GGSL
NJARET20110-37321-00197-30000192D0001162D0000600001197       GGSL
NJARET20110-37321-00202-40000144D0001577D0000800002202       GGSL
NJARET20110-37321-00203-10000084D0001313D0000900000203       GGSL
NJARET20110-37321-00210-90000180D0001076D0000600006210       GGSL
NJARET20110-37321-00211-60000048D0000414D0000000000211       GGSL
NJARET20110-37321-00212-30000024D0000479D0001200012212       GGSL
NJARET20110-37321-00213-00000180D0001915D0000400004213       GGSL
NJARET20110-37321-00214-70000168D0000942D0000600006214       GGSL
NJARET20110-37321-00216-10000120D0002033D0000600005216       GGSL
NJARET20110-37321-00217-80000096D0001019D0000000000217       GGSL
NJARET20110-37321-00218-50000024D0000375D0000200002218       GGSL
NJARET20110-37321-00221-50000096D0000548D0000300003221       GGSL
NJARET20110-37321-00227-70000036D0000431D0000100000227       GGSL
NJARET20110-37321-00230-70000072D0000644D0000400004230       GGSL
NJARET20110-37321-00237-60000120D0001619D0000200001237       GGSL
NJARET20110-37321-00238-30000576D0005043D0000200002238       GGSL
NJARET20110-37321-00239-00000008D0000189D0000400004239       GGSL
NJARET20110-37321-00240-60000204D0003442D0000700003240       GGSL
NJARET20110-37321-00250-50000228D0001203D0000500002250       GGSL
NJARET20110-37321-00252-90000108D0001363D0000500005252       GGSL
NJARET20110-37321-00253-60000312D0006205D0000600003253       GGSL
NJARET20110-37321-00255-00000408D0008643D0000400004255       GGSL
NJARET20110-37321-00257-40000108D0000433D0001300007257       GGSL
NJARET20110-37321-00258-10000048D0000319D0000200002258       GGSL
NJARET20110-37321-00272-70000144D0000585D0000700007272       GGSL
NJARET20110-37321-00274-10000012D0000081D0000600006274       GGSL
NJARET20110-37321-00276-50000060D0000874D0000500002276       GGSL
NJARET20110-37321-00285-70000060D0000354D0000300003285       GGSL
NJARET20110-37321-00299-40000048D0000417D0000500003299       GGSL
NJARET20110-37321-00301-40000024D0000209D0000900001301       GGSL
NJARET20110-37321-00307-60000072D0000338D0000800008307       GGSL
NJARET20110-37321-00308-30000020D0000209D0000800008308       GGSL
NJARET20110-37321-00309-00000024D0000423D0001300010309       GGSL
NJARET20110-37321-00310-60000006D0000187D0000600006310       GGSL
NJARET20110-37321-00312-00000036D0000740D0000500005312       GGSL
NJARET20110-37321-00321-20000060D0000366D0001100010321       GGSL
NJARET20110-37321-00322-90000016D0000304D0001000010322       GGSL
NJARET20110-37321-00323-60000030D0000308D0000200002323       GGSL
NJARET20110-37321-00331-10000048D0000786D0000100001331       GGSL
NJARET20110-37321-00370-00000012D0000056D0000000000370       GGSL
NJARET20110-37321-00371-70000096D0000592D0000800003371       GGSL
NJARET20110-37321-00372-40000064D0000656D0000200002372       GGSL
NJARET20110-37321-00411-00000012D0000040D0000600006411       GGSL
NJARET20110-37321-00420-20000003D0000185D0000000000420       GGSL
NJARET20110-37321-00426-40000156D0001692D0001300012426       GGSL
NJARET20110-37321-00428-80000360D0001441D0000600004428       GGSL
NJARET20110-37321-00429-50000009D0000185D0000000000429       GGSL
NJARET20110-37321-00442-40000108D0000732D0000500005442       GGSL
NJARET20110-37321-00443-10000084D0000966D0000800008443       GGSL
NJARET20110-37321-00506-30000036D0000164D0000100001506       GGSL
NJARET20110-37321-00527-80000048D0000211D0000400004527       GGSL
NJARET20110-37321-00530-80000044D0000460D0000500001530       GGSL
NJARET20110-37321-00543-80000036D0000119D0000100001543       GGSL
NJARET20110-37321-00549-00000012D0000120D0000500000549       GGSL
NJARET20110-37321-00564-30000012D0000130D0000800003564       GGSL
NJARET20110-37321-00603-90000040D0000524D0001700002603       GGSL
NJARET20110-37321-00609-10000096D0001067D0001100011609       GGSL
NJARET20110-37321-00611-40000016D0000419D0000100001611       GGSL
NJARET20110-37321-00622-00000012D0000040D0000300000622       GGSL
NJARET20110-37321-00623-70000072D0000488D0005600010623       GGSL
NJARET20110-37321-00629-90000036D0000121D0000200000629       GGSL
NJARET20110-37321-00631-20000096D0000389D0000000000631       GGSL
NJARET20110-37321-00651-00000016D0000217D00007000070651      GGSL
NJARET20110-37321-00652-70000216D0001170D0006300063652       GGSL
NJARET20110-37321-00655-80000138D0000928D00092000606556      GGSL
NJARET20110-37321-00680-00000120D0001219D0004400010680       GGSL
NJARET20110-37321-00685-50000048D0000584D0001900004685       GGSL
NJARET20110-37321-00687-90000024D0000328D0001000002687       GGSL
NJARET20110-37321-00688-60000228D0001539D0006800030688       GGSL
NJARET20110-37321-00691-60000045D0000389D0004500045691       GGSL
NJARET20110-37321-00692-30000024D0000319D0007300072692       GGSL
NJARET20110-37321-00692-30000015D0000179D0002500000692X      GGSL
NJARET20110-37321-00692-30000100D0001259D000050000469250     GGSL
NJARET20110-37321-00697-80000060D0000244D0000000000697       GGSL
NJARET20110-37321-00698-50000192D0001148D0000400004698       GGSL
NJARET20110-37321-00705-00000204D0001313D0005200019705       GGSL
NJARET20110-37321-00728-90000108D0001388D0006000014728       GGSL
NJARET20110-37321-00730-20000012D0000072D0000400004730       GGSL
NJARET20110-37321-00731-90000016D0000160D0006000020731       GGSL
NJARET20110-37321-00752-40000006D0000045D0001900009752       GGSL
NJARET20110-37321-00771-50000084D0000442D0001800006771       GGSL
NJARET20110-37321-00775-30002628D0015612D0011200053775       GGSL
NJARET20110-37321-00777-70000456D0004540D0001500002777       GGSL
NJARET20110-37321-00779-10000240D0002079D0003600017779       GGSL
NJARET20110-37321-00784-50000048D0000143D0005200007784       GGSL
NJARET20110-37321-00786-90000156D0000776D0000600002786       GGSL
NJARET20110-37321-00788-30000096D0000640D0000300003788       GGSL
NJARET20110-37321-00789-00000020D0000133D0006300007789       GGSL
NJARET20110-37321-00802-60000168D0001004D0000800005802       GGSL
NJARET20110-37321-00803-30002160D0021497D0001200002803       GGSL
NJARET20110-37321-00806-40000048D0000389D0000100001806       GGSL
NJARET20110-37321-00811-80000060D0000718D0003000011811       GGSL
NJARET20110-37321-00813-20000054D0000800D0001800013813       GGSL
NJARET20110-37321-00814-90000048D0001165D0000300002814       GGSL
NJARET20110-37321-00857-60000012D0000112D0000100001857       GGSL
NJARET20110-37321-00858-30000036D0000551D0000400000858       GGSL
NJARET20110-37321-00862-00000360D0004900D0000000000862       GGSL
NJARET20110-37321-00863-70000063D0000836D0000000000863       GGSL
NJARET20110-37321-00865-10000084D0000450D0001100005865       GGSL
NJARET20110-37321-00866-80000012D0000174D0000500000866       GGSL
NJARET20110-37321-00868-20000042D0000566D0002500005868       GGSL
NJARET20110-37321-00870-50000036D0000168D0007300009870       GGSL
NJARET20110-37321-00871-20000012D0000120D0006300051871       GGSL
NJARET20110-37321-00875-00000060D0000677D0001700001875       GGSL
NJARET20110-37321-00876-70000804D0005333D0000000000876       GGSL
NJARET20110-37321-00880-40000096D0001212D0007800028880       GGSL
NJARET20110-37321-00881-10000036D0000827D0002100003881       GGSL
NJARET20110-37321-00883-50001824D0009674D0001400012883       GGSL
NJARET20110-37321-00897-20000024D0000160D0000000000897       GGSL
NJARET20110-37321-00903-00000132D0000894D0001800007903       GGSL
NJARET20110-37321-00904-70000252D0002295D0006900007904       GGSL
NJARET20110-37321-00905-40000144D0002139D0000100001905       GGSL
NJARET20110-37321-00908-50000168D0001784D0007700011908       GGSL
NJARET20110-37321-00909-20000024D0000479D0000300003909       GGSL
NJARET20110-37321-00917-70000348D0004376D0000800008917       GGSL
NJARET20110-37321-00925-20003276D0010015D0003800038925       GGSL
NJARET20110-37321-00941-20000048D0000542D0002000014941       GGSL
NJARET20110-37321-00944-30000024D0000125D0002600004944       GGSL
NJARET20110-37321-00951-10000156D0000721D0034800186951       GGSL
NJARET20110-37321-00952-80000060D0000338D0002100009952       GGSL
NJARET20110-37321-00963-40000084D0000840D0001800003963       GGSL
NJARET20110-37321-00978-80000063D0000344D0000100001978       GGSL
NJARET20110-37321-00979-50000001D0000009D0001900008979       GGSL
NJARET20110-37321-00983-20000003D0000060D0001500013983       GGSL
NJARET20110-37321-00987-00000156D0001546D0000600006987       GGSL
NJARET20110-37321-00992-40000072D0000705D0003300003992       GGSL
NJARET20110-37321-01972-50000036D0000153D00009000011972      GGSL
NJARET20110-37321-02360-90000120D0000885D00024000182360      GGSL
NJARET20110-37321-02361-60000132D0001600D00013000132361      GGSL
NJARET20110-37321-02362-30000064D0001298D00001000012362      GGSL
NJARET20110-37321-02392-00000018D0000614D00000000002392      GGSL
NJARET20110-37321-02761-40000018D0000394D00003000022761      GGSL
NJARET20110-37321-03081-20000006D0000126D00005000053081      GGSL
NJARET20110-37321-03082-90000006D0000123D00008000023082      GGSL
NJARET20110-37321-04281-50000015D0000314D00008000084281      GGSL
NJARET20110-37321-05131-20000032D0000487D00004000035131      GGSL
NJARET20110-37321-05141-10000008D0000296D00004000035141      GGSL
NJARET20110-37321-05612-60000096D0000985D00003000035612      GGSL
NJARET20110-37321-07460-10000048D0000341D00041000087460      GGSL
NJARET20110-37321-07461-80000072D0000850D00056000107461      GGSL
NJARET20110-37321-07462-50000004D0000137D00042000067462      GGSL
NJARET20110-37321-07464-90000048D0000710D00057000037464      GGSL
NJARET20110-37321-07465-60000028D0000957D00004000027465      GGSL
NJARET20110-37321-07466-30000034D0002607D00004000017466      GGSL
NJARET20110-37321-07467-00000018D0000260D00024000017467      GGSL
NJARET20110-37321-07468-70000048D0001226D00097000007468      GGSL
NJARET20110-37321-07469-40000004D0000334D00002000007469      GGSL
NJARET20110-37321-07490-80000156D0000997D00120000427490      GGSL
NJARET20110-37321-07492-20000060D0001220D00026000067492      GGSL
NJARET20110-37321-07497-70000036D0000168D00065000137497      GGSL
NJARET20110-37321-07498-40000020D0000237D00019000097498      GGSL
NJARET20110-37321-08751-90000012D0000062D00021000038751      GGSL
NJARET20110-37321-09534-70000060D0000727D00025000209534      GGSL
NJARET20110-37321-30103-50000008D0000471D000060000030103     GGSL
NJARET20110-37321-45100-60000084D0000419D000050000545100     GGSL
NJARET20110-37321-45502-80000132D0000708D000010000145502     GGSL
NJARET20110-37321-45602-50000024D0000134D000070000445602     GGSL
NJARET20110-37321-45702-20000108D0000692D000030000045702     GGSL
NJARET20110-37321-60201-90000040D0000389D000330000060202     GGSL
NJARET20110-37321-60204-00000015D0000309D000380000060205     GGSL
NJARET20110-37321-60211-80000160D0001561D000250000260212     GGSL
NJARET20110-37321-60214-90000065D0001368D000180000660215     GGSL
NJARET20110-37321-60217-00000044D0002257D000350000060217     GGSL
NJARET20110-37321-60221-70000110D0001087D000200000060222     GGSL
NJARET20110-37321-60227-90000021D0001065D000420000060227     GGSL
NJARET20110-37321-60251-40000010D0000084D000150000060252     GGSL
NJARET20110-37321-60257-60000002D0000114D000200000060257     GGSL
NJARET20110-37321-60271-20000030D0000280D000170000060272     GGSL
NJARET20110-37321-60274-30000010D0000189D000080000060275     GGSL
NJARET20110-37321-60360-30000009D0000120D000000000060360X    GGSL
NJARET20110-37321-60365-80000002D0000070D000740000860365     GGSL
NJARET20110-37321-60400-60000040D0000523D000220000460400     GGSL
NJARET20110-37321-60410-50000270D0003164D005620000060410     GGSL
NJARET20110-37321-60414-30000114D0003563D001120000660414     GGSL
NJARET20110-37321-60420-40000058D0000702D005830001260420     GGSL
NJARET20110-37321-60424-20000094D0003064D001240000660424     GGSL
NJARET20110-37321-60440-20000023D0000240D000250000060440     GGSL
NJARET20110-37321-60450-10000072D0000499D000000000060450     GGSL
NJARET20110-37321-60460-00000044D0000454D001380000160460     GGSL
NJARET20110-37321-60464-80000020D0000516D001280000060464     GGSL
NJARET20110-37321-60490-70000035D0000535D000940001060490     GGSL
NJARET20110-37321-60514-00000004D0000043D001310000560516X    GGSL
NJARET20110-37321-60613-00000016D0000147D000100000660613     GGSL
NJARET20110-37321-60613-00000026D0000162D000240002460614X    GGSL
NJARET20110-37321-60725-00000081D0000611D000180000860725     GGSL
NJARET20110-37321-60728-10000217D0002645D000100001260728     GGSL
NJARET20110-37321-61118-90000066D0000745D000260001761120     GGSL
NJARET20110-37321-61119-60000024D0000399D000290000761121     GGSL
NJARET20110-38313-00005-90000006D0000130D0000300001GS6750D   GGSL
NJARET20110-38313-00006-60000006D0000102D0000000000FS4310    GGSL
NJARET20110-38313-00007-30000006D0000267D0000000000HS6920    GGSL
NJARET20110-38313-00008-00000066D0001278D0001000002BP3130    GGSL
NJARET20110-38313-00060-80000192D0003805D0006700007BP3160    GGSL
NJARET20110-38313-00079-00000006D0000310D0000000000HS6960    GGSL
NJARET20110-38313-00080-60000216D0004692D0007500009BP3180D   GGSL
NJARET20110-38313-00081-30002352D0021960D0000000000AC7220    GGSL
NJARET20110-38313-00407-10000018D0000320D0001300000RS7041    GGSL
NJARET20110-38313-00524-50000012D0000305D0001000001SL3310    GGSL
NJARET20110-38313-00555-90000024D0000325D0000900002GS3750D   GGSL
NJARET20110-38313-01010-20000300D0001575D0012500029CT3010    GGSL
NJARET20110-38313-01020-10000162D0000851D0007400008CT3020    GGSL
NJARET20110-38313-01030-00000090D0000473D0004500005CT3030    GGSL
NJARET20110-38313-01040-90000012D0000063D0001500000CT3040    GGSL
NJARET20110-38313-03040-70000006D0000053D0000200002GT3040    GGSL
NJARET20110-38313-03050-60000012D0000106D0000400002GT3050    GGSL
NJARET20110-38313-03060-50000012D0000106D0000700003GT3060    GGSL
NJARET20110-38313-03070-40000006D0000053D0000400002GT3070    GGSL
NJARET20110-38313-03080-30000012D0000106D0000900004GT3080    GGSL
NJARET20110-38313-03090-20000006D0000053D0000200002GT3090    GGSL
NJARET20110-38313-03204-30000018D0000211D0000000000FS3204    GGSL
NJARET20110-38313-03214-20000204D0002393D0003000002BP3214D   GGSL
NJARET20110-38313-03230-20000012D0000137D0000200002RP3230    GGSL
NJARET20110-38313-03234-00000042D0000522D0000100001AP3234    GGSL
NJARET20110-38313-03244-90000006D0000128D0000100001HS3244    GGSL
NJARET20110-38313-03334-70000048D0000588D0000300001AP3334    GGSL
NJARET20110-38313-03344-60000012D0000318D0000000000HS3344    GGSL
NJARET20110-38313-03364-40000006D0000155D0000100001SL3364    GGSL
NJARET20110-38313-03394-10000078D0000710D0000000000FS3394    GGSL
NJARET20110-38313-03710-90000018D0000119D0006300011CT3710    GGSL
NJARET20110-38313-03720-80000030D0000199D0006300004CT3720    GGSL
NJARET20110-38313-03730-70000030D0000199D0001900000CT3730    GGSL
NJARET20110-38313-03740-60000030D0000199D0005900001CT3740    GGSL
NJARET20110-38313-03750-50000048D0000318D0003700001CT3750    GGSL
NJARET20110-38313-04122-90000012D0000119D0000000000FS4120    GGSL
NJARET20110-38313-04133-50000012D0000110D0000000000FS4130    GGSL
NJARET20110-38313-04220-20000018D0000352D0000400000AH4220    GGSL
NJARET20110-38313-04264-60000006D0000159D0000000000SL4264    GGSL
NJARET20110-38313-04436-70000054D0001688D0002000001FL3460    GGSL
NJARET20110-38313-04438-10000036D0001135D0002100002FL3420    GGSL
NJARET20110-38313-04910-20000024D0000157D0000000000AG4910    GGSL
NJARET20110-38313-04930-00000012D0000089D0000000000AG4930    GGSL
NJARET20110-38313-04931-70000060D0000466D0000900000AG4930SS  GGSL
NJARET20110-38313-04940-90000060D0000438D0000300000AG4940    GGSL
NJARET20110-38313-04980-50000036D0000293D0000400001AG4980SS  GGSL
NJARET20110-38313-07245-20000018D0000331D0002800002RS7245    GGSL
NJARET20110-38313-07800-30000006D0000158D0000100000QS7800    GGSL
NJARET20110-38313-08300-70000036D0000253D0000200001AC8300    GGSL
NJARET20110-38313-10227-20000006D0000411D0000000000AL6512    GGSL
NJARET20110-38313-13640-60000006D0000092D0000200000BP3640    GGSL
NJARET20110-38313-14214-80000004D0000091D0001500001BP4214D   GGSL
NJARET20110-38313-14224-70000004D0000091D0000100001RP4224D   GGSL
NJARET20110-38313-17100-10000012D0000281D0000500001BP7100D   GGSL
NJARET20110-38313-32140-60000080D0000616D0000100000CT3214    GGSL
NJARET20110-38313-32240-30000024D0000185D0000300000CT3224    GGSL
NJARET20110-38313-32340-00000032D0000246D0001700000CT3234    GGSL
NJARET20110-38313-32440-70000016D0000123D0001600000CT3244    GGSL
NJARET20110-38313-36841-80000016D0000488D0000100000LG3684    GGSL
NJARET20110-38313-37101-20000004D0000088D0000000000LG3710    GGSL
NJARET20110-38313-40002-60000002D0000069D0000000000PD40000   GGSL
NJARET20110-38313-61061-60000002D0000090D0000000000RK61061   GGSL
NJARET20110-38313-61062-30000001D0000054D0000000000RK61062   GGSL
NJARET20110-38313-61600-70000006D0000077D0000000000MA61060   GGSL
NJARET20110-38313-63760-60000006D0000071D0001600001GS3760    GGSL
NJARET20110-38313-64250-10000102D0002205D0003800007BP4250    GGSL
NJARET20110-38313-67265-00000006D0000121D0000000000RS7265D   GGSL
NJARET20110-38313-73001-70000006D0000153D0000000000AC7300    GGSL
NJARET20110-38313-82501-00000006D0000067D0000000000SS25010   GGSL
NJARET20110-38313-83911-60000018D0000507D0000500000HS3911    GGSL
NJARET20110-38398-00605-20000036D0000744D00031000006050      GGSL
NJARET20110-38398-08001-40000006D0000082D00000000008001      GGSL
NJARET20110-38398-40154-30000012D0000106D000000000040154     GGSL
NJARET20110-38776-62181-50000010D0000097D0000200001UR1810WH  GGSL
NJARET20110-38858-02012-30000008D0000120D00006000007220041042GGSL
NJARET20110-38858-02018-50000008D0000153D00006000007222041042GGSL
NJARET20110-38858-02020-80000012D0000230D000050000072220422  GGSL
NJARET20110-38858-02024-60000008D0000198D00004000007224041042GGSL
NJARET20110-38858-02026-00000012D0000298D000060000072240422  GGSL
NJARET20110-38858-02037-60000006D0000094D0000100000135706070 GGSL
NJARET20110-38858-02096-30000024D0000051D000080000154061209  GGSL
NJARET20110-38858-02097-00000024D0000148D000020000054080609  GGSL
NJARET20110-38858-02097-00000024D0000143D000000000154080609U GGSL
NJARET20110-38858-04967-40000002D0000040D000000000034460209  GGSL
NJARET20110-38858-05345-90000012D0000085D0000800002791004901 GGSL
NJARET20110-38858-05346-60000012D0000085D0000500001791004902 GGSL
NJARET20110-38858-05347-30000032D0000353D0001700004791104901 GGSL
NJARET20110-38858-05348-00000036D0000405D0001000002791104902 GGSL
NJARET20110-38858-05349-70000040D0000442D0000800003791204901 GGSL
NJARET20110-38858-05350-30000012D0000132D0000000000791204902 GGSL
NJARET20110-38858-05351-00000016D0000161D0002200003791304901 GGSL
NJARET20110-38858-05352-70000012D0000121D0000900002791304902 GGSL
NJARET20110-38858-05353-40000028D0000447D0001600004790902901 GGSL
NJARET20110-38858-05354-10000022D0000352D0001500002790902902 GGSL
NJARET20110-38858-05650-40000006D0000035D000000000037520609  GGSL
NJARET20110-38858-05652-80000006D0000039D000060000037540609  GGSL
NJARET20110-38858-05653-50000012D0000125D000110000037550609  GGSL
NJARET20110-38858-05654-20000054D0000289D000060000037560609  GGSL
NJARET20110-38858-05655-90000018D0000115D000020000037570609  GGSL
NJARET20110-38858-05657-30000054D0000352D000190000237590609  GGSL
