TXBWIC20110-934320000081AGRI-TEX                      GGPO
TXBWIC20110-221790000320ALLIANCE ANIMAL CARE, LLC     GGPO
TXBWIC20110-364340000040ALLIANCE ANIMAL CARE, LLC     GGPO
TXBWIC20110-415350000546ALLIANCE ANIMAL CARE, LLC     GGPO
TXBWIC20110-565540000071ALLIANCE ANIMAL CARE, LLC     GGPO
TXBWIC20110-725250000030ALLIANCE ANIMAL CARE, LLC     GGPO
TXBWIC20110-726930000277ALLIANCE ANIMAL CARE, LLC     GGPO
TXBWIC20110-727250000124ALLIANCE ANIMAL CARE, LLC     GGPO
TXBWIC20110-848650001532ALLIANCE ANIMAL CARE, LLC     GGPO
TXBWIC20111-071910000048ALLIANCE ANIMAL CARE, LLC     GGPO
TXBWIC20116-510820000004ALLIANCE ANIMAL CARE, LLC     GGPO
TXBWIC20117-191950000079ALLIANCE ANIMAL CARE, LLC     GGPO
TXBWIC20117-296400000200ALLIANCE ANIMAL CARE, LLC     GGPO
TXBWIC20117-296410000281ALLIANCE ANIMAL CARE, LLC     GGPO
TXBWIC20117-322210001157ALLIANCE ANIMAL CARE, LLC     GGPO
TXBWIC20117-427860000044ALLIANCE ANIMAL CARE, LLC     GGPO
TXBWIC20117-522890001038ALLIANCE ANIMAL CARE, LLC     GGPO
TXBWIC20117-709320000034ALLIANCE ANIMAL CARE, LLC     GGPO
TXBWIC20117-768960000472ALLIANCE ANIMAL CARE, LLC     GGPO
TXBWIC20118-744800001232ALLIANCE ANIMAL CARE, LLC     GGPO
TXBWIC20110-954220040317AMERICAN GARDENWORKS, INC.    GGPO
TXBWIC20110-373210003888ANDREWS FARM & SEED           GGPO
TXBWIC20117-174820002922AUSTINVILLE LIMESTONE CO      GGPO
TXBWIC2011P-C11000004747B&G EQUIPMENT CO.             GGPO
TXBWIC20117-322210000149BARBOUR INTERNATIONAL, INC.   GGPO
TXBWIC20110-425790000100BARENBRUG USA-MKTNG DIVIS     GGPO
TXBWIC20110-726930000395BASF CORPORATION              GGPO
TXBWIC20117-184770061222BASF CORPORATION              GGPO
TXBWIC20117-203430000627BASF CORPORATION              GGPO
TXBWIC20117-322210000138BASF CORPORATION              GGPO
TXBWIC20117-322210000015BASF PCS AGENCY               GGPO
TXBWIC20110-112470000264BELL LABORATORIES             GGPO
TXBWIC20110-238830000147BELL LABORATORIES             GGPO
TXBWIC20110-373210000065BELL LABORATORIES             GGPO
TXBWIC20110-425790000073BELL LABORATORIES             GGPO
TXBWIC20110-487450003733BELL LABORATORIES             GGPO
TXBWIC20110-726930000234BELL LABORATORIES             GGPO
TXBWIC20110-728680000047BELL LABORATORIES             GGPO
TXBWIC20117-296400000962BELL LABORATORIES             GGPO
TXBWIC20117-322210000584BELL LABORATORIES             GGPO
TXBWIC20117-423840000128BELL LABORATORIES             GGPO
TXBWIC20116-397510120212BELLINGHAM GLOVE, INC         GGPO
TXBWIC20116-743260017915BELLINGHAM GLOVE, INC         GGPO
TXBWIC20117-137400000000BELLINGHAM GLOVE, INC         GGPO
TXBWIC20118-903490000210BELLINGHAM GLOVE, INC         GGPO
TXBWIC20118-922140000252BELLINGHAM GLOVE, INC         GGPO
TXBWIC20110-322470000052BENGAL PRODUCTS INC.          GGPO
TXBWIC20110-848650007217BENGAL PRODUCTS INC.          GGPO
TXBWIC20110-353070000674BERRY GLOBAL, INC.            GGPO
TXBWIC20110-373210006120BIO WORKS, INC.               GGPO
TXBWIC20116-870730000343BIO WORKS, INC.               GGPO
TXBWIC20111-887160022907BIOSAFE SYSTEMS               GGPO
TXBWIC20110-008740002587BLOEM, LLC                    GGPO
TXBWIC20110-874040006318BLOEM, LLC                    GGPO
TXBWIC20111-081410045763BLOEM, LLC                    GGPO
TXBWIC20118-112140001521BLOEM, LLC                    GGPO
TXBWIC20118-141740002629BLOEM, LLC                    GGPO
TXBWIC20118-185730010271BLOEM, LLC                    GGPO
TXBWIC20118-740450000013BLOEM, LLC                    GGPO
TXBWIC20110-373210519327BONIDE PRODUCTS, INC.         GGPO
TXBWIC20110-726930004037BONIDE PRODUCTS, INC.         GGPO
TXBWIC20110-768070002803BONIDE PRODUCTS, INC.         GGPO
TXBWIC20113-732100001408BONIDE PRODUCTS, INC.         GGPO
TXBWIC20117-269300000233BONIDE PRODUCTS, INC.         GGPO
TXBWIC20117-269320001614BONIDE PRODUCTS, INC.         GGPO
TXBWIC20117-296400001853BROOKHAVEN MILLING            GGPO
TXBWIC20117-296410001356BROOKHAVEN MILLING            GGPO
TXBWIC20110-112470019700CARL POOL PRODUCTS            GGPO
TXBWIC20111-124710000080CARL POOL PRODUCTS            GGPO
TXBWIC20111-124720000864CARL POOL PRODUCTS            GGPO
TXBWIC20111-124730000415CARL POOL PRODUCTS            GGPO
TXBWIC20111-124750000572CARL POOL PRODUCTS            GGPO
TXBWIC20110-866210097813CENTRAL LIFE SCIENCES         GGPO
TXBWIC20110-238830186031CHAPIN INTERNATIONAL          GGPO
TXBWIC20110-004020088283COLLIER METAL SPECIALTIES LTD GGPO
TXBWIC20110-402000000074COLLIER METAL SPECIALTIES LTD GGPO
TXBWIC20117-768960033937COMMODITY MARKETING CO        GGPO
TXBWIC20110-726932630246CONTROL SOLUTIONS, INC.       GGPO
TXBWIC20117-269300001262CONTROL SOLUTIONS, INC.       GGPO
TXBWIC20117-269320015059CONTROL SOLUTIONS, INC.       GGPO
TXBWIC20117-269330002199CONTROL SOLUTIONS, INC.       GGPO
TXBWIC20117-269340008604CONTROL SOLUTIONS, INC.       GGPO
TXBWIC20117-423840341587CONTROL SOLUTIONS, INC.       GGPO
TXBWIC20110-383130024646CORONA CLIPPER INC            GGPO
TXBWIC20115-075910000646CURTIS WAGNER PLASTICS CORP.  GGPO
TXBWIC20117-591880043500CURTIS WAGNER PLASTICS CORP.  GGPO
TXBWIC20111-071910000242D & D COMMODITIES LTD.        GGPO
TXBWIC20117-191950092195D & D COMMODITIES LTD.        GGPO
TXBWIC20118-191950000094D & D COMMODITIES LTD.        GGPO
TXBWIC20110-160690004535DALEN PRODUCTS, INC           GGPO
TXBWIC20111-001600000354DALEN PRODUCTS, INC           GGPO
TXBWIC20118-143730009040DELKIN DEVICES                GGPO
TXBWIC20110-230770000133DELTA INDUSTRIES              GGPO
TXBWIC20110-422060000091DELTA INDUSTRIES              GGPO
TXBWIC20110-238830000252DESIGN TOSCANO COMMERCIAL LLC GGPO
TXBWIC20110-329030000024DESIGN TOSCANO COMMERCIAL LLC GGPO
TXBWIC20110-422060000065DESIGN TOSCANO COMMERCIAL LLC GGPO
TXBWIC20110-725250000068DESIGN TOSCANO COMMERCIAL LLC GGPO
TXBWIC20110-789780000119DESIGN TOSCANO COMMERCIAL LLC GGPO
TXBWIC20116-510820000056DESIGN TOSCANO COMMERCIAL LLC GGPO
TXBWIC20117-322210000381DESIGN TOSCANO COMMERCIAL LLC GGPO
TXBWIC20110-224010010940DEWITT COMPANY, INC           GGPO
TXBWIC20110-269780000430DEWITT COMPANY, INC           GGPO
TXBWIC20110-395260000145DEWITT COMPANY, INC           GGPO
TXBWIC20110-425790270844DEWITT COMPANY, INC           GGPO
TXBWIC20110-425970000010DEWITT COMPANY, INC           GGPO
TXBWIC20110-433260004011DEWITT COMPANY, INC           GGPO
TXBWIC20117-256090000592DEWITT COMPANY, INC           GGPO
TXBWIC20116-153690000400DIAMOND PET FOODS             GGPO
TXBWIC20117-322210000031DIAMOND PET FOODS             GGPO
TXBWIC20117-522890000518DIAMOND PET FOODS             GGPO
TXBWIC20110-642770021465DICAPERL MINERALS CORPORATION GGPO
TXBWIC20117-256090012522DIP'N GROW INC                GGPO
TXBWIC20110-238830000487DONORD CRAFT INTL CO., LTD    GGPO
TXBWIC20110-322210000023DONORD CRAFT INTL CO., LTD    GGPO
TXBWIC20110-726930001011DONORD CRAFT INTL CO., LTD    GGPO
TXBWIC20117-322210000167DONORD CRAFT INTL CO., LTD    GGPO
TXBWIC20117-423840000049DONORD CRAFT INTL CO., LTD    GGPO
TXBWIC20117-427860000007DONORD CRAFT INTL CO., LTD    GGPO
TXBWIC20110-112470000050DOSATRON INTERNATIONAL        GGPO
TXBWIC20110-230770000031DOSATRON INTERNATIONAL        GGPO
TXBWIC20110-425790001088DOSATRON INTERNATIONAL        GGPO
TXBWIC20110-428530000033DOSATRON INTERNATIONAL        GGPO
TXBWIC20110-843690000232DOSATRON INTERNATIONAL        GGPO
TXBWIC20110-886850000076DOSATRON INTERNATIONAL        GGPO
TXBWIC20117-522890000118DOW AGROSCIENCES              GGPO
TXBWIC20110-238830000304DREXEL CHEMICAL COMPANY       GGPO
TXBWIC20110-322210000286DREXEL CHEMICAL COMPANY       GGPO
TXBWIC20110-501970000038DREXEL CHEMICAL COMPANY       GGPO
TXBWIC20110-726930001209DREXEL CHEMICAL COMPANY       GGPO
TXBWIC20117-269320000058DREXEL CHEMICAL COMPANY       GGPO
TXBWIC20117-322210001882DREXEL CHEMICAL COMPANY       GGPO
TXBWIC20117-591880000008DREXEL CHEMICAL COMPANY       GGPO
TXBWIC20116-987030002026EARTH KIND, INC.              GGPO
TXBWIC20110-730350002094EASY GARDENER INC.            GGPO
TXBWIC20110-506990001969EATON BROTHERS CORP.          GGPO
TXBWIC20115-069900001540EATON BROTHERS CORP.          GGPO
TXBWIC20117-681030016225ECOLOGEL SOLUTIONS, LLC       GGPO
TXBWIC20117-681100006160ECOLOGEL SOLUTIONS, LLC       GGPO
TXBWIC20111-869550079945ENVIRO PROTECTION INDUSTRIES  GGPO
TXBWIC20110-851990000039ESSCHERT DESIGN USA           GGPO
TXBWIC20117-256090000057ESSCHERT DESIGN USA           GGPO
TXBWIC20117-865410024545EVOLVED HABITATS              GGPO
TXBWIC20118-506950010365EVOLVED HABITATS              GGPO
TXBWIC20118-550180006966EVOLVED HABITATS              GGPO
TXBWIC20118-550190000140EVOLVED HABITATS              GGPO
TXBWIC20117-296400000606EXEC PEST CONTROL PRODUCTS INCGGPO
TXBWIC20110-501970006205FESTIVAL WINDCHIMES           GGPO
TXBWIC20110-848650003062FESTIVAL WINDCHIMES           GGPO
TXBWIC20115-019700000382FESTIVAL WINDCHIMES           GGPO
TXBWIC20110-230770011716FLEISCHMANN'S VINEGAR COMPANY GGPO
TXBWIC20118-744800000004FLEXRAKE CORP.                GGPO
TXBWIC20110-004020000004FLOPAK                        GGPO
TXBWIC20110-112470000500FLOPAK                        GGPO
TXBWIC20110-238830000055FLOPAK                        GGPO
TXBWIC20110-322210000239FLOPAK                        GGPO
TXBWIC20110-373210004208FLOPAK                        GGPO
TXBWIC20110-425790000231FLOPAK                        GGPO
TXBWIC20110-428530000471FLOPAK                        GGPO
TXBWIC20110-642770000735FLOPAK                        GGPO
TXBWIC20110-726930002772FLOPAK                        GGPO
TXBWIC20110-843690000111FLOPAK                        GGPO
TXBWIC20117-191950000027FLOPAK                        GGPO
TXBWIC20117-322210000204FLOPAK                        GGPO
TXBWIC20117-689800000079FLOPAK                        GGPO
TXBWIC20117-768960000100FLOPAK                        GGPO
TXBWIC20110-103670000718FOXFARM SOIL & FERTILIZER CO. GGPO
TXBWIC20110-221790000080FOXFARM SOIL & FERTILIZER CO. GGPO
TXBWIC20110-238830000433FOXFARM SOIL & FERTILIZER CO. GGPO
TXBWIC20110-353070001037FOXFARM SOIL & FERTILIZER CO. GGPO
TXBWIC20110-415350000432FOXFARM SOIL & FERTILIZER CO. GGPO
TXBWIC20110-433120000238FOXFARM SOIL & FERTILIZER CO. GGPO
TXBWIC20110-725250000114FOXFARM SOIL & FERTILIZER CO. GGPO
TXBWIC20110-726930004375FOXFARM SOIL & FERTILIZER CO. GGPO
TXBWIC20110-727250001763FOXFARM SOIL & FERTILIZER CO. GGPO
TXBWIC20110-728680000052FOXFARM SOIL & FERTILIZER CO. GGPO
TXBWIC20110-843690000012FOXFARM SOIL & FERTILIZER CO. GGPO
TXBWIC20110-946540000392FOXFARM SOIL & FERTILIZER CO. GGPO
TXBWIC20116-153690000800FOXFARM SOIL & FERTILIZER CO. GGPO
TXBWIC20116-902430000622FOXFARM SOIL & FERTILIZER CO. GGPO
TXBWIC20117-255890000914FOXFARM SOIL & FERTILIZER CO. GGPO
TXBWIC20117-322210000477FOXFARM SOIL & FERTILIZER CO. GGPO
TXBWIC20117-423840000049FOXFARM SOIL & FERTILIZER CO. GGPO
TXBWIC20117-522890200078FOXFARM SOIL & FERTILIZER CO. GGPO
TXBWIC20117-689800000060FOXFARM SOIL & FERTILIZER CO. GGPO
TXBWIC20116-440120000066GALLAGHER                     GGPO
TXBWIC20116-444930003677GALLAGHER                     GGPO
TXBWIC20110-230770000600GARDENSCAPE INC               GGPO
TXBWIC20110-344170002824GARDENSCAPE INC               GGPO
TXBWIC20110-074540000998GARDMAN/WORLD SOURCE PARTNERS GGPO
TXBWIC20117-454870117075GARDMAN/WORLD SOURCE PARTNERS GGPO
TXBWIC20118-145670001391GARDMAN/WORLD SOURCE PARTNERS GGPO
TXBWIC20117-174820012369GARICK LLC                    GGPO
TXBWIC20110-738890001684GREEN GLO PRODUCTS            GGPO
TXBWIC20110-364340000033GREEN MEADOWS FORAGE          GGPO
TXBWIC20110-383130000196GREEN MEADOWS FORAGE          GGPO
TXBWIC20110-642770000607GREEN MEADOWS FORAGE          GGPO
TXBWIC20118-144850000069GREEN MEADOWS FORAGE          GGPO
TXBWIC20118-164030000028GREEN MEADOWS FORAGE          GGPO
TXBWIC20110-238830000217GREEN-TEK  INC                GGPO
TXBWIC20110-728680000028HEATH MFG                     GGPO
TXBWIC20110-851990018450HEATH MFG                     GGPO
TXBWIC20111-008510000009HEATH MFG                     GGPO
TXBWIC20116-624980000644HONEYWELL SAFETY PRODUCTS USA GGPO
TXBWIC20110-781590032154HOWARD JOHNSON, INC           GGPO
TXBWIC20110-400250000321J & M PLASTICS                GGPO
TXBWIC20110-103670000067J & M PLASTICS INC            GGPO
TXBWIC20117-896660005665JACTO INC.                    GGPO
TXBWIC20110-238830000072JAIN IRRIGATION, INC.         GGPO
TXBWIC20116-153690000020JAIN IRRIGATION, INC.         GGPO
TXBWIC20116-870730004345JAIN IRRIGATION, INC.         GGPO
TXBWIC20117-768960054878JETTCO SEED                   GGPO
TXBWIC20117-522890000118JF OAKES SALES & MARKETING    GGPO
TXBWIC20110-333490002130JIFFY PRODUCTS OF AMERICA     GGPO
TXBWIC20110-364340000033JIFFY PRODUCTS OF AMERICA     GGPO
TXBWIC20110-425790000851JIFFY PRODUCTS OF AMERICA     GGPO
TXBWIC20117-000010001375JIFFY PRODUCTS OF AMERICA     GGPO
TXBWIC20110-238830000407JONES SEED COMPANY            GGPO
TXBWIC20110-322210002159JONES SEED COMPANY            GGPO
TXBWIC20110-726930000658JONES SEED COMPANY            GGPO
TXBWIC20114-077340005353JONES SEED COMPANY            GGPO
TXBWIC20117-296400029095JONES SEED COMPANY            GGPO
TXBWIC20117-296410014529JONES SEED COMPANY            GGPO
TXBWIC20117-296910000054JONES SEED COMPANY            GGPO
TXBWIC20117-322210000038JONES SEED COMPANY            GGPO
TXBWIC20117-396400001044JONES SEED COMPANY            GGPO
TXBWIC20117-768960001231JONES SEED COMPANY            GGPO
TXBWIC20110-238830000081K-SALES INC.                  GGPO
TXBWIC20110-364340000044K-SALES INC.                  GGPO
TXBWIC20117-256090000592K-SALES INC.                  GGPO
TXBWIC20116-870730000088KEN-BAR INC                   GGPO
TXBWIC20117-522890000118KEN-BAR INC                   GGPO
TXBWIC20117-768960000173KEN-BAR INC                   GGPO
TXBWIC20110-238830000260KENTWOOD COOP                 GGPO
TXBWIC20117-322210000073KENTWOOD COOP                 GGPO
TXBWIC20110-402790002917L E COOKE COMPANY             GGPO
TXBWIC20110-238830000651LAMBERT PEAT MOSS, INC        GGPO
TXBWIC20110-664980063216LAMBERT PEAT MOSS, INC        GGPO
TXBWIC20110-726930000250LAMBERT PEAT MOSS, INC        GGPO
TXBWIC20116-649800001969LAMBERT PEAT MOSS, INC        GGPO
TXBWIC20118-164030000176LAMBERT PEAT MOSS, INC        GGPO
TXBWIC20110-230770000754LANDSCAPERS PRIDE             GGPO
TXBWIC20110-344170003351LANDSCAPERS PRIDE             GGPO
TXBWIC20117-203430000131LANDSCAPERS PRIDE             GGPO
TXBWIC20117-322210000080LEATHER BROTHERS              GGPO
TXBWIC20110-726930001905LEATHER WORKS, LTD.           GGPO
TXBWIC20110-112470003482LIDOCHEM, INC                 GGPO
TXBWIC20110-353070012087LUSTER LEAF PRODUCTS, INC     GGPO
TXBWIC20110-230770000266MARTIN RESOURCES, INC.        GGPO
TXBWIC20110-364340000150MARTIN RESOURCES, INC.        GGPO
TXBWIC20110-238830000342MATCO-NORCA,INC.              GGPO
TXBWIC20110-726930011402MATCO-NORCA,INC.              GGPO
TXBWIC20117-322210002569MATCO-NORCA,INC.              GGPO
TXBWIC20110-230770021860MEDINA AGRI PRODUCTS          GGPO
TXBWIC20110-467530022323MEDINA AGRI PRODUCTS          GGPO
TXBWIC20110-353070000008MELISSA & DOUG, LLC           GGPO
TXBWIC20110-383130000075MELISSA & DOUG, LLC           GGPO
TXBWIC20118-744800000019MELISSA & DOUG, LLC           GGPO
TXBWIC20110-422060021168MELNOR INC.                   GGPO
TXBWIC20114-220600000762MELNOR INC.                   GGPO
TXBWIC20114-220620000157MELNOR INC.                   GGPO
TXBWIC20114-220670000260MELNOR INC.                   GGPO
TXBWIC20114-220680002541MELNOR INC.                   GGPO
TXBWIC20110-537440000036MESSINA WILDLIFE MANAGEMENT   GGPO
TXBWIC20117-768960000400MESSINA WILDLIFE MANAGEMENT   GGPO
TXBWIC20110-238830000301MICHIGAN PEAT COMPANY         GGPO
TXBWIC20110-280090020063MICHIGAN PEAT COMPANY         GGPO
TXBWIC20110-726930004738MICHIGAN PEAT COMPANY         GGPO
TXBWIC20110-851990000034MICHIGAN PEAT COMPANY         GGPO
TXBWIC20117-296400000419MICHIGAN PEAT COMPANY         GGPO
TXBWIC20117-322210000030MICHIGAN PEAT COMPANY         GGPO
TXBWIC20117-522890000562MICHIGAN PEAT COMPANY         GGPO
TXBWIC20118-744800000025MICHIGAN PEAT COMPANY         GGPO
TXBWIC20110-230770005580MICOBE INC.                   GGPO
TXBWIC20117-256090000592MICOBE INC.                   GGPO
TXBWIC20110-483070003760MIDWEST AIR TECHNOLOGIES,INC. GGPO
TXBWIC2011	-084360000060MILLER MANUFACTURING CO       GGPO
TXBWIC20110-843690098045MILLER MANUFACTURING CO       GGPO
TXBWIC20110-857650019603MILLER MANUFACTURING CO       GGPO
TXBWIC20116-592760004105MILLER MANUFACTURING CO       GGPO
TXBWIC20117-311410001448MILLER MANUFACTURING CO       GGPO
TXBWIC20118-436900000343MILLER MANUFACTURING CO       GGPO
TXBWIC20118-436910002374MILLER MANUFACTURING CO       GGPO
TXBWIC20116-300880010504MR. BIRD INC.                 GGPO
TXBWIC20110-238830000828MULDOON MINERALS              GGPO
TXBWIC20117-322210000103MULDOON MINERALS              GGPO
TXBWIC20117-768960000087MULDOON MINERALS              GGPO
TXBWIC20110-344170001608NATURE'S CHOICE, INC          GGPO
TXBWIC20110-934320000078NELSON PLANT FOOD             GGPO
TXBWIC20110-236260018668NEOGEN CORPORATION            GGPO
TXBWIC20110-952420261337NEOGEN CORPORATION            GGPO
TXBWIC20110-952520028863NEOGEN CORPORATION            GGPO
TXBWIC20112-362600003586NEOGEN CORPORATION            GGPO
TXBWIC20112-362630000449NEOGEN CORPORATION            GGPO
TXBWIC20110-726930000417NETAFIM IRRIGATION, INC.      GGPO
TXBWIC20110-269780046500NOVELTY MANUFACTURING CO      GGPO
TXBWIC20110-238830000018NURSERY SUPPLIES, INC.        GGPO
TXBWIC20110-726930001026NURSERY SUPPLIES, INC.        GGPO
TXBWIC20110-843690000120NURSERY SUPPLIES, INC.        GGPO
TXBWIC20117-203430001074NURSERY SUPPLIES, INC.        GGPO
TXBWIC20117-322210000091NURSERY SUPPLIES, INC.        GGPO
TXBWIC20110-353070000927NYP CORPORATION               GGPO
TXBWIC20110-246540000062OHP                           GGPO
TXBWIC20110-363480000057OHP                           GGPO
TXBWIC20110-728680000051OHP                           GGPO
TXBWIC20110-956680000027OHP                           GGPO
TXBWIC20117-191950000148OHP                           GGPO
TXBWIC20117-322210000086OHP                           GGPO
TXBWIC20110-230770008955OLDCASTLE LAWN & GARDEN       GGPO
TXBWIC20110-344170000140OLDCASTLE LAWN & GARDEN       GGPO
TXBWIC20110-642770009800OLDCASTLE LAWN & GARDEN       GGPO
TXBWIC20110-818180005058OLDCASTLE LAWN & GARDEN       GGPO
TXBWIC20110-843690000240OLDCASTLE LAWN & GARDEN       GGPO
TXBWIC20117-427860109063OLDCASTLE LAWN & GARDEN       GGPO
TXBWIC20110-273240000228OLDCASTLE STONE PRODUCTS      GGPO
TXBWIC20110-396450000876OLDCASTLE STONE PRODUCTS      GGPO
TXBWIC20117-174820002365OLDCASTLE STONE PRODUCTS      GGPO
TXBWIC20117-427860001060OLDCASTLE STONE PRODUCTS      GGPO
TXBWIC20110-238830000703ORCON                         GGPO
TXBWIC20116-510820011707ORIGIN POINT BRANDS, LLC      GGPO
TXBWIC20110-725250003819P.F. HARRIS MANUFACTURING CO  GGPO
TXBWIC20110-725720000074P.F. HARRIS MANUFACTURING CO  GGPO
TXBWIC20110-727250010252P.F. HARRIS MANUFACTURING CO  GGPO
TXBWIC20111-007270000164P.F. HARRIS MANUFACTURING CO  GGPO
TXBWIC20110-329030000019PALMETTO VERMICULITE, INC     GGPO
TXBWIC20110-383130000091PALMETTO VERMICULITE, INC     GGPO
TXBWIC20110-425790000230PALMETTO VERMICULITE, INC     GGPO
TXBWIC20110-642770018375PALMETTO VERMICULITE, INC     GGPO
TXBWIC20110-728680000161PALMETTO VERMICULITE, INC     GGPO
TXBWIC20110-843690000022PALMETTO VERMICULITE, INC     GGPO
TXBWIC20116-870730000079PALMETTO VERMICULITE, INC     GGPO
TXBWIC20110-093430000427PANACEA PRODUCTS CORPORATION  GGPO
TXBWIC20110-706860000098PANACEA PRODUCTS CORPORATION  GGPO
TXBWIC20110-934320181073PANACEA PRODUCTS CORPORATION  GGPO
TXBWIC20111-009340052887PANACEA PRODUCTS CORPORATION  GGPO
TXBWIC20119-343280000848PANACEA PRODUCTS CORPORATION  GGPO
TXBWIC20116-870730000137PATTERSON WOOD PRODUCTS, INC. GGPO
TXBWIC20110-396780000238PEAK SEASONS                  GGPO
TXBWIC20110-402790000254PEAK SEASONS                  GGPO
TXBWIC20110-726930000690PEAK SEASONS                  GGPO
TXBWIC20110-889850004196PEAK SEASONS                  GGPO
TXBWIC20117-296410000040PEAK SEASONS                  GGPO
TXBWIC20117-322210000054PEAK SEASONS                  GGPO
TXBWIC20117-423840000128PEAK SEASONS                  GGPO
TXBWIC20118-506950000076PEAK SEASONS                  GGPO
TXBWIC20110-725320046379PLANTATION PRODUCTS LLC       GGPO
TXBWIC20110-238830000031PREMIER TECH HORTICULTURE     GGPO
TXBWIC20110-112470000145PRICE BEVILLE SMITH           GGPO
TXBWIC20110-238830000462PRICE BEVILLE SMITH           GGPO
TXBWIC20110-322470000083PRICE BEVILLE SMITH           GGPO
TXBWIC20110-329030000078PRICE BEVILLE SMITH           GGPO
TXBWIC20110-364340000082PRICE BEVILLE SMITH           GGPO
TXBWIC20110-383130000189PRICE BEVILLE SMITH           GGPO
TXBWIC20110-400250000321PRICE BEVILLE SMITH           GGPO
TXBWIC20110-425790000113PRICE BEVILLE SMITH           GGPO
TXBWIC20110-437920000020PRICE BEVILLE SMITH           GGPO
TXBWIC20110-725250000065PRICE BEVILLE SMITH           GGPO
TXBWIC20110-726930005571PRICE BEVILLE SMITH           GGPO
TXBWIC20110-728680000050PRICE BEVILLE SMITH           GGPO
TXBWIC20110-952420000833PRICE BEVILLE SMITH           GGPO
TXBWIC20116-153690000460PRICE BEVILLE SMITH           GGPO
TXBWIC20116-510820000023PRICE BEVILLE SMITH           GGPO
TXBWIC20116-870730000330PRICE BEVILLE SMITH           GGPO
TXBWIC20117-191950000776PRICE BEVILLE SMITH           GGPO
TXBWIC20117-203430019430PRICE BEVILLE SMITH           GGPO
TXBWIC20117-264820000233PRICE BEVILLE SMITH           GGPO
TXBWIC20117-269320000078PRICE BEVILLE SMITH           GGPO
TXBWIC20117-322210000336PRICE BEVILLE SMITH           GGPO
TXBWIC20117-423840000386PRICE BEVILLE SMITH           GGPO
TXBWIC20117-689800000797PRICE BEVILLE SMITH           GGPO
TXBWIC20118-744800014075PRICE BEVILLE SMITH           GGPO
TXBWIC20110-910530001038PRINCIPLE PLASTICS            GGPO
TXBWIC20117-610490000370PYGAR USA INC.                GGPO
TXBWIC20117-839290005834PYGAR USA INC.                GGPO
TXBWIC20110-725250000205RED CARPET STUDIOS LTD        GGPO
TXBWIC20110-727250000479RED CARPET STUDIOS LTD        GGPO
TXBWIC20110-383130000123ROUGH BROTHERS INC            GGPO
TXBWIC20110-400250000016ROUGH BROTHERS INC            GGPO
TXBWIC20117-322210000022ROUGH BROTHERS INC            GGPO
TXBWIC20118-144850000061ROUGH BROTHERS INC            GGPO
TXBWIC20118-164030000091ROUGH BROTHERS INC            GGPO
TXBWIC20117-322210000045S&S SEEDS LLC                 GGPO
TXBWIC20110-322470000052SAFETY PRODUCTS, INC.         GGPO
TXBWIC20111-076890000317SANCO INDUSTRIES, INC.        GGPO
TXBWIC20117-689800025237SANCO INDUSTRIES, INC.        GGPO
TXBWIC20116-870730563804SBM LIFE SCIENCE CORP/BAYER   GGPO
TXBWIC20110-934320000044SENNINGER IRRIGATION          GGPO
TXBWIC20110-425790001026SEPRO CORPORATION             GGPO
TXBWIC20110-727250000087SEPRO CORPORATION             GGPO
TXBWIC20110-708050000180SHAFER SEED COMPANY           GGPO
TXBWIC20117-768960107722SHAFER SEED COMPANY           GGPO
TXBWIC20117-141830011352SHAKE AWAY                    GGPO
TXBWIC20110-373210000408SOLO, INCORPORATED            GGPO
TXBWIC20110-383130000090SOLO, INCORPORATED            GGPO
TXBWIC20116-870730000481SOLO, INCORPORATED            GGPO
TXBWIC20117-203430033779SOLO, INCORPORATED            GGPO
TXBWIC20117-296400000144SOLO, INCORPORATED            GGPO
TXBWIC20117-296410000020SOLO, INCORPORATED            GGPO
TXBWIC20118-642090000150SOLO, INCORPORATED            GGPO
TXBWIC20110-718980025868SPECIALTY FEEDS INC           GGPO
TXBWIC20116-559720005909SPECTRUM PRODUCTS, INC.       GGPO
TXBWIC20116-990640014029ST. GABRIEL ORGANICS          GGPO
TXBWIC20110-230770011475STRATTON SEED COMPANY         GGPO
TXBWIC20110-185060004447SUMMIT CHEMICAL COMPANY       GGPO
TXBWIC20112-001850001959SUMMIT CHEMICAL COMPANY       GGPO
TXBWIC20110-786270171448SWAN PRODUCTS, LLC            GGPO
TXBWIC20117-867270004386SWAN PRODUCTS, LLC            GGPO
TXBWIC20110-238830000651SYNGENTA PCS                  GGPO
TXBWIC20117-322210000108SYNGENTA PCS                  GGPO
TXBWIC20110-848650000447TARTER                        GGPO
TXBWIC20117-269330000435TEXEL TECHNICAL MATERIALS,INC.GGPO
TXBWIC20110-353070001053THE DRAMM COMPANY-COMMERCIAL  GGPO
TXBWIC20110-003640007721THE DRAMM COMPANY-RETAIL      GGPO
TXBWIC20110-364340085805THE DRAMM COMPANY-RETAIL      GGPO
TXBWIC20111-003640019282THE DRAMM COMPANY-RETAIL      GGPO
TXBWIC20116-003640000740THE DRAMM COMPANY-RETAIL      GGPO
TXBWIC20110-501970242366THE ESPOMA COMPANY            GGPO
TXBWIC20115-019700016281THE ESPOMA COMPANY            GGPO
TXBWIC20118-170850006250THE GREAT STATES CORP         GGPO
TXBWIC20110-112470000057THE HC COMPANIES INC          GGPO
TXBWIC20110-353070000131THE HC COMPANIES INC          GGPO
TXBWIC20110-373210000226THE HC COMPANIES INC          GGPO
TXBWIC20110-642770000202THE HC COMPANIES INC          GGPO
TXBWIC20110-726930000232THE HC COMPANIES INC          GGPO
TXBWIC20110-934320000780THE HC COMPANIES INC          GGPO
TXBWIC20117-256090000479THE HC COMPANIES INC          GGPO
TXBWIC20110-329030053708THE HC COMPANIES, INC         GGPO
TXBWIC20110-565540005786THE HC COMPANIES, INC         GGPO
TXBWIC20117-709320006394THE HC COMPANIES, INC         GGPO
TXBWIC20110-230770001680THE MULCH AND SOIL COMPANY    GGPO
TXBWIC20110-230770000399THE SCOTTS COMPANY-RETAIL DIV GGPO
TXBWIC20110-322470436231THE SCOTTS COMPANY-RETAIL DIV GGPO
TXBWIC20110-364340000168THE SCOTTS COMPANY-RETAIL DIV GGPO
TXBWIC20110-368650003381THE SCOTTS COMPANY-RETAIL DIV GGPO
TXBWIC20110-487450000096THE SCOTTS COMPANY-RETAIL DIV GGPO
TXBWIC20110-501970000034THE SCOTTS COMPANY-RETAIL DIV GGPO
TXBWIC20110-701830036366THE SCOTTS COMPANY-RETAIL DIV GGPO
TXBWIC20110-714590032249THE SCOTTS COMPANY-RETAIL DIV GGPO
TXBWIC20110-715490037827THE SCOTTS COMPANY-RETAIL DIV GGPO
TXBWIC20110-735610163392THE SCOTTS COMPANY-RETAIL DIV GGPO
TXBWIC20113-224710000576THE SCOTTS COMPANY-RETAIL DIV GGPO
TXBWIC20113-224740000053THE SCOTTS COMPANY-RETAIL DIV GGPO
TXBWIC20113-224780003960THE SCOTTS COMPANY-RETAIL DIV GGPO
TXBWIC20117-154900006060THE SCOTTS COMPANY-RETAIL DIV GGPO
TXBWIC20117-356100064095THE SCOTTS COMPANY-RETAIL DIV GGPO
TXBWIC20117-356130018224THE SCOTTS COMPANY-RETAIL DIV GGPO
TXBWIC20117-896660000054THE SCOTTS COMPANY-RETAIL DIV GGPO
TXBWIC20118-886030012290THE SCOTTS COMPANY-RETAIL DIV GGPO
TXBWIC20111-817520001050THERMACELL MOSQUITO REPELLANT GGPO
TXBWIC20118-436540002561THERMACELL MOSQUITO REPELLANT GGPO
TXBWIC20118-744800279437TUFF STUFF PRODUCTS, INC.     GGPO
TXBWIC20110-114230001134UNITED INDUSTRIES             GGPO
TXBWIC20110-711210006033UNITED INDUSTRIES             GGPO
TXBWIC20110-745140000491UNITED INDUSTRIES             GGPO
TXBWIC20111-142300006446UNITED INDUSTRIES             GGPO
TXBWIC20116-511240015007UNITED INDUSTRIES             GGPO
TXBWIC20118-582970000187UNITED INDUSTRIES             GGPO
TXBWIC20118-144850003562VALLEY INDUSTRIES             GGPO
TXBWIC20118-148500000177VALLEY INDUSTRIES             GGPO
TXBWIC20118-164030008633VALLEY INDUSTRIES             GGPO
TXBWIC20110-322210421494VOLUNTARY PURCHASING          GGPO
TXBWIC20110-732220000254VOLUNTARY PURCHASING          GGPO
TXBWIC20112-073220007721VOLUNTARY PURCHASING          GGPO
TXBWIC20117-322212135585VOLUNTARY PURCHASING          GGPO
TXBWIC20117-322240003889VOLUNTARY PURCHASING          GGPO
TXBWIC20110-415350054341WELLMARK INTERNATIONAL        GGPO
TXBWIC20117-522890000086WELLMARK INTERNATIONAL        GGPO
TXBWIC20116-890760012051WEST TEXAS FEEDER SUPPLY      GGPO
TXBWIC20110-238830000029WESTERN PULP PROD             GGPO
TXBWIC20110-503490016501WESTERN PULP PROD             GGPO
TXBWIC20112-005030003883WESTERN PULP PROD             GGPO
TXBWIC20110-353070000035WEYCO GROUP                   GGPO
TXBWIC20117-427860000411WEYCO GROUP                   GGPO
TXBWIC20117-768960000528WEYCO GROUP                   GGPO
TXBWIC20110-359510004389WILT-PRUF PRODUCTS            GGPO
TXBWIC20110-246540005752WOODSTREAM CORPORATION        GGPO
TXBWIC20110-363480009871WOODSTREAM CORPORATION        GGPO
TXBWIC20110-432560004828WOODSTREAM CORPORATION        GGPO
TXBWIC20110-437860000099WOODSTREAM CORPORATION        GGPO
TXBWIC20110-581150000211WOODSTREAM CORPORATION        GGPO
TXBWIC20110-709230019776WOODSTREAM CORPORATION        GGPO
TXBWIC20110-710920002240WOODSTREAM CORPORATION        GGPO
TXBWIC20110-728680114244WOODSTREAM CORPORATION        GGPO
TXBWIC20110-776250004374WOODSTREAM CORPORATION        GGPO
TXBWIC20110-789780071479WOODSTREAM CORPORATION        GGPO
TXBWIC20116-336860000736WOODSTREAM CORPORATION        GGPO
TXBWIC20117-178160000730WOODSTREAM CORPORATION        GGPO
TXBWIC20117-438600001937WOODSTREAM CORPORATION        GGPO
TXBWIC20117-557400000142WOODSTREAM CORPORATION        GGPO
