TXBWIC2011P-C1100-3950E-A0000011D0003095D001850000311003950  GGSL
TXBWIC2011P-C1100-5800E-A0000013D0001316D000670000711005800  GGSL
TXBWIC2011P-C1100-7415E-A0000003D0001315D000130000011007415  GGSL
TXBWIC2011P-C1400-1068P-K0000078D0000598D001010000314001068  GGSL
TXBWIC20110-00402-00000-00003204D0035718D0151000112BWI COMP  GGSL
TXBWIC20110-00402-01012-60000087D0005883D00252000081012      GGSL
TXBWIC20110-00402-01492-60000006D0000018D000280000014SSB     GGSL
TXBWIC20110-00402-01499-50000014D0000033D000660000014SS      GGSL
TXBWIC20110-00402-02419-20000019D0000370D000730000410XS-20   GGSL
TXBWIC20110-00402-02699-50000260D0000221D009400034010XS-20B  GGSL
TXBWIC20110-00402-02750-60000225D0000734D0105000075B75       GGSL
TXBWIC20110-00402-05411-30000025D0000048D00400000755418      GGSL
TXBWIC20110-00402-10147-30000011D0000646D00130000001014 G    GGSL
TXBWIC20110-00402-10148-00000534D0027270D01192001121014      GGSL
TXBWIC20110-00402-11713-90000100D0000339D001750007511730     GGSL
TXBWIC20110-00402-14312-10000010D0000040D000100002014CSB     GGSL
TXBWIC20110-00402-14319-00000012D0000041D000350000014CS      GGSL
TXBWIC20110-00402-14499-90000020D0000090D0000000060144SS     GGSL
TXBWIC20110-00402-21014-40000370D0019058D011160007610145B    GGSL
TXBWIC20110-00402-33117-70000650D0000218D0167500325PC11-7    GGSL
TXBWIC20110-00402-33354-60001325D0000168D0422500200PC5-4     GGSL
TXBWIC20110-00402-33375-10002025D0000391D0630000925PC7-5     GGSL
TXBWIC20110-00402-44475-40000025D0000017D0000000250PLCD 7-5  GGSL
TXBWIC20110-00402-71130-60000050D0000196D000000000071130     GGSL
TXBWIC20110-00772-02105-00000001D0000050D00000000002105      GGSL
TXBWIC20110-00772-02109-80000001D0000030D00000000002109      GGSL
TXBWIC20110-00772-02110-40000001D0000030D00000000002110      GGSL
TXBWIC20110-00772-02111-10000001D0000030D00000000002111      GGSL
TXBWIC20110-00772-02114-20000001D0000030D00000000002114      GGSL
TXBWIC20110-00772-02117-30000001D0000030D00000000002117      GGSL
TXBWIC20110-00772-02125-80000001D0000017D00000000002125      GGSL
TXBWIC20110-00772-04851-40000001D0000010D00000000004851      GGSL
TXBWIC20110-00772-04853-80000001D0000030D00000000004853      GGSL
TXBWIC20110-00772-04854-50000001D0000010D00000000004854      GGSL
TXBWIC20110-00772-04866-80000001D0000025D00000000004866      GGSL
TXBWIC20110-00772-04867-50000001D0000015D00000000004867      GGSL
TXBWIC20110-00772-07527-50000001D0000006D00000000007527      GGSL
TXBWIC20110-00772-08265-50000001D0000030D00000000008265      GGSL
TXBWIC20110-00772-08807-70000001D0000025D00000000008807      GGSL
TXBWIC20110-00772-08814-50000001D0000040D00000000008814      GGSL
TXBWIC20110-00772-08833-60000001D0000030D00000000008833      GGSL
TXBWIC20110-00772-08842-80000001D0000040D00000000008842      GGSL
TXBWIC20110-00772-30412-20000001D0000050D000000000030412     GGSL
TXBWIC20110-10367-00110-70000528D0003200D0049200960110       GGSL
TXBWIC20110-10367-00130-50000077D0003596D0033900030130.0     GGSL
TXBWIC20110-10367-00150-30000030D0000800D0003600066150.0     GGSL
TXBWIC20110-10367-00460-30000016D0000073D0009600016ML0460 8  GGSL
TXBWIC20110-10367-00530-30000013D0000510D0000000000530.0     GGSL
TXBWIC20110-10367-00560-00000088D0000293D0011200040ML0560 8  GGSL
TXBWIC20110-10367-00810-60000096D0000450D0002400096ML0810    GGSL
TXBWIC20110-10367-01020-80000012D0000177D0000000000ML1020    GGSL
TXBWIC20110-10367-01050-50000024D0000283D0001200012ML1050    GGSL
TXBWIC20110-10367-01110-60000016D0000042D00000000081110      GGSL
TXBWIC20110-10367-01111-30000008D0000021D00056000321111.0    GGSL
TXBWIC20110-10367-01120-50000048D0000108D00024000081120.0    GGSL
TXBWIC20110-11247-00000-00000292D0003977D0009800000CPK0225   GGSL
TXBWIC20110-11247-00640-30000039D0001347D000300000000640     GGSL
TXBWIC20110-11247-01050-90000006D0000065D000010000101050     GGSL
TXBWIC20110-11247-02155-00000016D0004279D00046000002155.0    GGSL
TXBWIC20110-11247-03555-70000003D0000734D000000000003555     GGSL
TXBWIC20110-11247-04525-90000198D0004261D001350001504525     GGSL
TXBWIC20110-11247-05450-30000015D0000624D000510003805450     GGSL
TXBWIC20110-11247-06238-60000006D0000105D000010000006238     GGSL
TXBWIC20110-11247-16004-40000030D0000182D002580000016004     GGSL
TXBWIC20110-11247-20103-70000012D0000084D000000001220103     GGSL
TXBWIC20110-11247-21004-60000042D0000311D000000000021004     GGSL
TXBWIC20110-11247-26001-00000024D0000114D000360000026001     GGSL
TXBWIC20110-11247-26128-40000008D0000077D000320000026128     GGSL
TXBWIC20110-11247-26250-20000006D0000154D000040000026250     GGSL
TXBWIC20110-11247-30004-40000036D0000244D001800024630004     GGSL
TXBWIC20110-11247-48024-10000024D0000120D000000002448020     GGSL
TXBWIC20110-11247-52813-40000005D0000076D000000000152813     GGSL
TXBWIC20110-11247-52825-70000005D0000091D001060000152825     GGSL
TXBWIC20110-11247-52826-40000012D0000059D000000001252826     GGSL
TXBWIC20110-11247-52829-50000018D0000178D000120001852829     GGSL
TXBWIC20110-11247-52846-20000001D0000037D000000000052846     GGSL
TXBWIC20110-11247-52861-50000012D0000130D000000000052861     GGSL
TXBWIC20110-11247-52877-60000008D0000442D000080000052877     GGSL
TXBWIC20110-11247-52889-90000090D0001135D000810000452889     GGSL
TXBWIC20110-11247-60116-50000012D0000127D000490001260116     GGSL
TXBWIC20110-11247-61008-20000012D0000040D000000016861008     GGSL
TXBWIC20110-11247-61024-20000159D0000945D008670020461024     GGSL
TXBWIC20110-11247-61300-70000024D0000223D000000015661300     GGSL
TXBWIC20110-11247-70024-00000024D0000127D000000002470024     GGSL
TXBWIC20110-11247-70300-50000006D0000061D000000001870300     GGSL
TXBWIC20110-11247-71016-40000012D0000083D000000008471001     GGSL
TXBWIC20110-11247-90032-90000048D0000231D000120002490001     GGSL
TXBWIC20110-11423-00338-70000072D0000400D0115200000HG-33801  GGSL
TXBWIC20110-11423-94108-50000006D0000066D0015000030HG-94108  GGSL
TXBWIC20110-11423-94127-60000048D0000174D0060400012HG-64127  GGSL
TXBWIC20110-11444-43006-30000002D0000067D0000000000703124    GGSL
TXBWIC20110-11444-43105-30000002D0000034D00000000009730410   GGSL
TXBWIC20110-12090-00002-00000005D0000015D0000000000703778    GGSL
TXBWIC20110-12313-11331-50000010D0000041D00000000001011331   GGSL
TXBWIC20110-12313-11332-20000016D0000281D00000000001011332   GGSL
TXBWIC20110-12313-11353-70000001D0000040D00000000001011353   GGSL
TXBWIC20110-12313-11537-10000016D0001246D00000000001011537   GGSL
TXBWIC20110-12313-12031-30000005D0000039D00000000001012031   GGSL
TXBWIC20110-12313-12421-20000028D0000120D00000000001012421   GGSL
TXBWIC20110-12313-12423-60000030D0000519D00000000001012423   GGSL
TXBWIC20110-12313-15301-40000017D0000088D00000000001015301   GGSL
TXBWIC20110-12313-15871-20000003D0000095D00000000003014756   GGSL
TXBWIC20110-12313-15873-60000001D0000153D00000000003014757   GGSL
TXBWIC20110-12313-16121-70000025D0000466D00000000003011886   GGSL
TXBWIC20110-12313-34952-30000002D0000106D00000000001034952   GGSL
TXBWIC20110-12313-34953-00000004D0000127D00000000001034953   GGSL
TXBWIC20110-12313-38321-30000004D0000444D00000000007938321   GGSL
TXBWIC20110-12313-38322-00000001D0000208D00000000007938322   GGSL
TXBWIC20110-12313-38401-20000001D0000069D00000000003018875   GGSL
TXBWIC20110-12313-38412-80000015D0002231D00000000003014935   GGSL
TXBWIC20110-12313-38431-90000045D0003248D00000000003012681   GGSL
TXBWIC20110-12313-38432-60000016D0001633D00000000003012683   GGSL
TXBWIC20110-12313-40541-00000006D0000132D00000000001040541   GGSL
TXBWIC20110-12313-40543-40000010D0001112D00000000001040543   GGSL
TXBWIC20110-12313-47171-20000012D0000040D00000000003044149   GGSL
TXBWIC20110-12313-47181-10000120D0000320D00000000003044169   GGSL
TXBWIC20110-12313-68341-20000004D0000099D00000000001068341   GGSL
TXBWIC20110-13964-53881-60000002D0000050D0000000000703363    GGSL
TXBWIC20110-14021-01412-00000004D0000496D00000000001024      GGSL
TXBWIC20110-14021-02731-10000001D0000382D00000000001060B     GGSL
TXBWIC20110-14021-02942-10000001D0000270D00000000001036M     GGSL
TXBWIC20110-15966-49430-10000021D0000344D000090000049 00 430 GGSL
TXBWIC20110-16069-00005-90000051D0000288D0014100048TP-15C    GGSL
TXBWIC20110-16069-00007-30000093D0000466D0002100051BN-1      GGSL
TXBWIC20110-16069-00008-00000108D0000593D0028200540BN-2      GGSL
TXBWIC20110-16069-00013-40000008D0000170D0007400008BN-3      GGSL
TXBWIC20110-16069-00014-10000006D0000095D0004000000BN-4      GGSL
TXBWIC20110-16069-00015-80000018D0000426D0004400000BN-5      GGSL
TXBWIC20110-16069-00030-10000030D0000335D0001200000OW-6      GGSL
TXBWIC20110-16069-00038-70000012D0000096D0000000000GF-1015   GGSL
TXBWIC20110-16069-00144-50000030D0000051D0000000000TG-30     GGSL
TXBWIC20110-16069-00145-20000016D0000305D0000000008RHO-4     GGSL
TXBWIC20110-16069-00365-40000036D0000425D0002700000PIN-9     GGSL
TXBWIC20110-18506-00000-00000085D0001308D00340001050111-5    GGSL
TXBWIC20110-18506-00021-90000006D0000081D0020100024021-6     GGSL
TXBWIC20110-18506-00102-50000006D0000024D0024000000102-12    GGSL
TXBWIC20110-18506-00110-50000144D0000955D0017000432110-12    GGSL
TXBWIC20110-18506-00116-20000072D0000451D0006600780116-12    GGSL
TXBWIC20110-18506-00117-90000066D0000548D0008400744117-6     GGSL
TXBWIC20110-18506-00125-40000060D0000310D0039600000125       GGSL
TXBWIC20110-18583-06291-90000027D0000135D0000000000703697    GGSL
TXBWIC20110-18583-07718-00000001D0000020D0000000000703693    GGSL
TXBWIC20110-18583-08758-50000011D0000038D0000000000703525    GGSL
TXBWIC20110-18583-10001-70000001D0000024D0000000000703526    GGSL
TXBWIC20110-18583-10041-30000001D0000024D0000000000703534    GGSL
TXBWIC20110-18583-10042-00000001D0000024D0000000000703535    GGSL
TXBWIC20110-18583-10043-70000001D0000024D0000000000703536    GGSL
TXBWIC20110-18583-10044-40000001D0000024D0000000000703537    GGSL
TXBWIC20110-18583-10123-60000001D0000028D0000000000703552    GGSL
TXBWIC20110-18583-10124-30000001D0000028D0000000000703553    GGSL
TXBWIC20110-18583-10161-80000002D0000056D0000000000703559    GGSL
TXBWIC20110-18583-10162-50000001D0000028D0000000000703560    GGSL
TXBWIC20110-18583-10163-20000001D0000028D0000000000703561    GGSL
TXBWIC20110-18583-10164-90000008D0000205D0000000000703590    GGSL
TXBWIC20110-18583-10847-10000003D0000084D0000000000703558    GGSL
TXBWIC20110-18583-10848-80000001D0000026D0000000000703591    GGSL
TXBWIC20110-18583-10862-40000008D0000168D0000000000703596    GGSL
TXBWIC20110-18583-11661-20000001D0000019D0000000000703649    GGSL
TXBWIC20110-18583-18619-60000020D0000420D0000000000703684    GGSL
TXBWIC20110-18583-19356-90000006D0000423D000000000050MR2     GGSL
TXBWIC20110-18583-19357-60000002D0000135D000000000025MR2     GGSL
TXBWIC20110-20279-99300-10000032D0000187D0000000000703932    GGSL
TXBWIC20110-20279-99500-50000063D0000749D0000000000703936    GGSL
TXBWIC20110-20279-99502-90000117D0000339D0000000000703937    GGSL
TXBWIC20110-20279-99511-10000079D0001017D0000000000703940    GGSL
TXBWIC20110-20279-99803-70000059D0000224D0000000000703957    GGSL
TXBWIC20110-20279-99804-40000006D0000009D0000000000703958    GGSL
TXBWIC20110-22179-10035-00000004D0000196D0005500019LG4110    GGSL
TXBWIC20110-22179-10090-90000018D0000476D0000300012LG4300    GGSL
TXBWIC20110-22179-10115-90000012D0000191D0002600024lg 5599   GGSL
TXBWIC20110-22179-10124-10000090D0000502D0019800000LG6515    GGSL
TXBWIC20110-22179-10139-50000024D0000098D0006600000LG1130    GGSL
TXBWIC20110-22179-10140-10000002D0000253D0010900000LG6520    GGSL
TXBWIC20110-22179-10150-00000076D0000767D00072002727115      GGSL
TXBWIC20110-22179-10151-70000016D0000683D00202000047117      GGSL
TXBWIC20110-22179-10185-20000057D0000638D0009900012LG6500    GGSL
TXBWIC20110-22179-10246-00000090D0001385D0017700258LG6570    GGSL
TXBWIC20110-22179-10247-70000025D0000508D00042002167122      GGSL
TXBWIC20110-22179-10248-40000024D0000186D0011700012LG6575    GGSL
TXBWIC20110-22179-10365-80000006D0000045D0000000132lg 7129   GGSL
TXBWIC20110-22179-10366-50000012D0000105D0001800000LG7262    GGSL
TXBWIC20110-22179-10375-70000012D0000090D0000000006lg 6299   GGSL
TXBWIC20110-22179-10378-80000030D0000209D0000600000lg6274    GGSL
TXBWIC20110-22179-10390-00000027D0000245D0001800144LG6332    GGSL
TXBWIC20110-22179-10395-50000013D0000375D0004500001LG6356    GGSL
TXBWIC20110-22179-10408-20000048D0000406D0000600120LG 6338   GGSL
TXBWIC20110-22179-10429-70000012D0000160D0000000336LG6334    GGSL
TXBWIC20110-22179-10454-90000006D0000053D0000600036lg 3303   GGSL
TXBWIC20110-22179-10458-70000036D0000324D0001500006lg 3234   GGSL
TXBWIC20110-22401-00115-80000730D0005942D0020900056MDC-15    GGSL
TXBWIC20110-22401-00301-50000006D0000066D0003100011THD-20    GGSL
TXBWIC20110-22401-00721-10001000D0013218D0000000001DBR-20    GGSL
TXBWIC20110-22401-10088-20000040D0000883D0003200000EAR-60    GGSL
TXBWIC20110-22401-10089-90000008D0000118D0000000000BBC-20LB  GGSL
TXBWIC20110-23077-00104-60000100D0000391D006450007252050326  GGSL
TXBWIC20110-23077-00107-70033800D0000952D000000006550055010  GGSL
TXBWIC20110-23077-00109-10088725D0002858D004550006550055071  GGSL
TXBWIC20110-23077-00204-30000635D0001699D011680000052055472  GGSL
TXBWIC20110-23077-00205-00008913D0025893D022870023552055475  GGSL
TXBWIC20110-23077-00208-10001409D0005126D006150002052050320  GGSL
TXBWIC20110-23077-00209-80002706D0008745D007640029950055016  GGSL
TXBWIC20110-23077-00210-40002312D0006949D012760062352058069  GGSL
TXBWIC20110-23077-00211-10024000D0001002D000000007552050045  GGSL
TXBWIC20110-23077-00212-80004263D0011917D015030014652058058  GGSL
TXBWIC20110-23077-00213-50001506D0004506D013620000052058059  GGSL
TXBWIC20110-23077-00303-30014112D0000720D000000012640105120  GGSL
TXBWIC20110-23077-00504-40031752D0001696D000000006340200451  GGSL
TXBWIC20110-23077-19142-60000330D0006039D0082400000          GGSL
TXBWIC20110-23077-41518-80000442C0006039C0004500080          GGSL
TXBWIC20110-23077-52600-60000124D0001094D0499600024NG526     GGSL
TXBWIC20110-23626-00595-20000014D0000490D00000000005316362   GGSL
TXBWIC20110-23626-00860-10000124D0001023D0010400020116348    GGSL
TXBWIC20110-23626-01710-80000384D0001848D0115500048800       GGSL
TXBWIC20110-23626-01720-70000264D0001665D0128100018000900    GGSL
TXBWIC20110-23626-02830-20000002D0000101D0003100000116841    GGSL
TXBWIC20110-23626-02842-50000024D0000240D0003200000116845    GGSL
TXBWIC20110-23626-02843-20000024D0000888D0000000000116850    GGSL
TXBWIC20110-23626-04055-70000008D0000040D00000000003512845   GGSL
TXBWIC20110-23626-07002-80000072D0001289D0000000096112825    GGSL
TXBWIC20110-23851-01019-60000009D0000062D00000000003101019   GGSL
TXBWIC20110-23851-01029-50000005D0000065D00000000003101029   GGSL
TXBWIC20110-23851-01030-10000004D0000024D00000000003101030   GGSL
TXBWIC20110-23851-01042-40000011D0000143D00000000003101042   GGSL
TXBWIC20110-23851-01043-10000134D0001117D00000000003101043   GGSL
TXBWIC20110-23851-01045-50000037D0000469D00000000003101045   GGSL
TXBWIC20110-23851-01046-20000029D0000230D00000000003101046   GGSL
TXBWIC20110-23851-01047-90000006D0000129D00000000003101047   GGSL
TXBWIC20110-23851-01050-90000012D0000095D00000000003101050   GGSL
TXBWIC20110-23851-01051-60000060D0000309D00000000003101051   GGSL
TXBWIC20110-23851-01052-30000016D0000071D00000000003101052   GGSL
TXBWIC20110-23851-01054-70000020D0000117D00000000003101054   GGSL
TXBWIC20110-23851-01058-50000030D0000194D00000000003101058   GGSL
TXBWIC20110-23851-01060-80000003D0000020D00000000003101060   GGSL
TXBWIC20110-23851-01063-90000020D0000101D00000000003101063   GGSL
TXBWIC20110-23851-01132-20000013D0000082D00000000003101132   GGSL
TXBWIC20110-23851-01312-80000066D0000653D00000000003101312   GGSL
TXBWIC20110-23851-01325-80000001D0000010D00000000003101325   GGSL
TXBWIC20110-23851-01367-80000053D0000274D00000000003101367   GGSL
TXBWIC20110-23883-00001-10000225D0003425D0022700030G362      GGSL
TXBWIC20110-23883-00002-80000114D0000437D0038700018G385      GGSL
TXBWIC20110-23883-00003-50000054D0000205D0069300084G390      GGSL
TXBWIC20110-23883-01002-70000053D0000438D00147000501002      GGSL
TXBWIC20110-23883-01280-90000002D0000113D00000000241280.0    GGSL
TXBWIC20110-23883-05000-90000014D0000112D00048000095000      GGSL
TXBWIC20110-23883-15710-40003880D0027452D057970430315710     GGSL
TXBWIC20110-23883-26011-80000023D0000592D002860004226011XP   GGSL
TXBWIC20110-23883-26021-70000250D0006123D020770028526021XP   GGSL
TXBWIC20110-23883-26031-60000001D0000044D001500001526031XP   GGSL
TXBWIC20110-23883-27010-00000044D0000788D002910000527010     GGSL
TXBWIC20110-23883-27020-90000118D0002298D008260003827020     GGSL
TXBWIC20110-23883-27030-80000031D0000677D002800002627030     GGSL
TXBWIC20110-23883-60100-30000162D0006095D008260034560100     GGSL
TXBWIC20110-23883-63924-20000018D0002570D000670000063924     GGSL
TXBWIC20110-23883-68060-20000001D0000015D00005000006-8060    GGSL
TXBWIC20110-23883-68238-50000001D0000036D00000000016-8238    GGSL
TXBWIC20110-23883-80000-00000012D0000378D00015007268000A     GGSL
TXBWIC20110-23883-81000-90000004D0000400D000050000081000A    GGSL
TXBWIC20110-23883-84000-60000005D0000257D00006005278701B     GGSL
TXBWIC20110-23883-84600-80000055C0000257C000300084084700A    GGSL
TXBWIC20110-23883-97100-70000004D0002739D000370000197100     GGSL
TXBWIC20110-23883-97361-20000003D0000476D000060000197361     GGSL
TXBWIC20110-23883-97561-60000001D0000194D000140000097561     GGSL
TXBWIC20110-24654-05102-70000012D0000059D00000000005102-6    GGSL
TXBWIC20110-24654-05922-10000018D0000203D00000000605926      GGSL
TXBWIC20110-24654-09334-80000002D0000052D00120000009334      GGSL
TXBWIC20110-24654-55110-70000006D0000033D00006000005110-6    GGSL
TXBWIC20110-24654-55118-30000257D0001744D00649000425118.0    GGSL
TXBWIC20110-25033-14645-70000012D0000018D000000000014645     GGSL
TXBWIC20110-25531-00350-40000001D0000033D00005000007511I     GGSL
TXBWIC20110-25626-00000-00000284D0006648D9897300001          GGSL
TXBWIC20110-25784-20011-80000014D0000028D0000000000703754    GGSL
TXBWIC20110-25784-20015-60000017D0000079D0000000000703755    GGSL
TXBWIC20110-25784-20050-70000002D0000008D0000000000703756    GGSL
TXBWIC20110-26978-30301-10000056D0000268D092440447630301     GGSL
TXBWIC20110-26978-30413-10000012D0000070D000000003630413     GGSL
TXBWIC20110-27324-55140-70000037D0000185D000170000040105130  GGSL
TXBWIC20110-28009-11225-80001622D0007487D01969001591225.0    GGSL
TXBWIC20110-28009-11227-20000060D0000164D00000000061227.0    GGSL
TXBWIC20110-28009-11250-00004483D0033925D02790001121250.0    GGSL
TXBWIC20110-28009-11420-70000549D0002370D00458000101420P     GGSL
TXBWIC20110-28009-11438-20002700D0002331D00000000001438      GGSL
TXBWIC20110-28009-11440-50002575D0017171D00861005331440P     GGSL
TXBWIC20110-28009-11460-30000480D0001342D00000000001460      GGSL
TXBWIC20110-28009-11465-80000240D0000595D00312000001465      GGSL
TXBWIC20110-28009-11550-10042500D0004998D00000000001550P     GGSL
TXBWIC20110-28009-11638-60000900D0000473D00030000001638      GGSL
TXBWIC20110-28009-11640-90025200D0002363D00000000001640      GGSL
TXBWIC20110-28009-11815-10006050D0000727D00000000001815      GGSL
TXBWIC20110-28009-15240-70002011D0008489D00286001735240.0    GGSL
TXBWIC20110-28009-15440-10000300D0001202D00060000005440.0    GGSL
TXBWIC20110-28009-15440-30007200D0000750D00000000001840      GGSL
TXBWIC20110-28009-15450-00000035D0000253D00373000405450.0    GGSL
TXBWIC20110-28009-15540-80005183D0017243D00500001905540.0    GGSL
TXBWIC20110-28009-15720-40000010D0000035D00119000005720.0    GGSL
TXBWIC20110-28009-15740-20001911D0008025D00305000005740.0    GGSL
TXBWIC20110-29049-00602-60000005D0000004D00000000003500602   GGSL
TXBWIC20110-30541-00067-20000018D0000191D0003000006JCD-100FGPGGSL
TXBWIC20110-30541-01020-60000144D0000344D0000000000JCD-024SM GGSL
TXBWIC20110-30541-01030-50000042D0000329D0001800024JCD-100SMJGGSL
TXBWIC20110-30541-01034-30000019D0000390D0003300000JCD-030SM GGSL
TXBWIC20110-30541-83795-70000168D0000375D0000000000JCD-024TMPGGSL
TXBWIC20110-30641-33935-10000090D0000166D0000000000YPDQ      GGSL
TXBWIC20110-30641-35936-60000036D0000068D0000000000WPDQ      GGSL
TXBWIC20110-30907-00488-70000005D0000017D00000000009600488   GGSL
TXBWIC20110-30907-00548-80000029D0000499D00000000009600548   GGSL
TXBWIC20110-30907-03471-60000004D0000092D00000000009676025   GGSL
TXBWIC20110-30907-03472-30000003D0000066D00000000009676050   GGSL
TXBWIC20110-30907-03473-00000001D0000023D00000000009676075   GGSL
TXBWIC20110-30907-03474-70000002D0000046D00000000009676100   GGSL
TXBWIC20110-30907-03488-40000003D0000060D00000000009607701   GGSL
TXBWIC20110-30907-03495-20000001D0000023D00000000009677075   GGSL
TXBWIC20110-30907-03496-90000001D0000023D00000000009677020   GGSL
TXBWIC20110-30907-03510-20000001D0000020D00000000009607703   GGSL
TXBWIC20110-30907-03581-20000003D0000069D00000000009677125   GGSL
TXBWIC20110-30907-03582-90000004D0000092D00000000009677150   GGSL
TXBWIC20110-30907-03598-00000003D0000061D00000000009607713   GGSL
TXBWIC20110-30907-03727-40000002D0000055D00000000009673025   GGSL
TXBWIC20110-30907-03744-10000001D0000025D00000000009607901   GGSL
TXBWIC20110-30907-03749-60000001D0000027D00000000009679025   GGSL
TXBWIC20110-30907-03766-30000001D0000025D00000000009607903   GGSL
TXBWIC20110-30907-03774-80000001D0000027D00000000009674100   GGSL
TXBWIC20110-30907-03837-00000001D0000027D00000000009679125   GGSL
TXBWIC20110-30907-03838-70000002D0000055D00000000009679150   GGSL
TXBWIC20110-30907-03839-40000001D0000027D00000000009672075   GGSL
TXBWIC20110-30907-03840-00000001D0000027D00000000009672100   GGSL
TXBWIC20110-30907-03854-70000002D0000050D00000000009607913   GGSL
TXBWIC20110-30907-04165-30000012D0000397D00000000009604165   GGSL
TXBWIC20110-30907-04735-80000006D0000095D00000000009604735   GGSL
TXBWIC20110-30907-04924-60000006D0000675D00000000006800031   GGSL
TXBWIC20110-30907-04974-10000013D0000078D00000000009602563   GGSL
TXBWIC20110-30907-05123-20000060D0000377D00000000009605122   GGSL
TXBWIC20110-30907-05445-50000007D0000145D00000000009600495   GGSL
TXBWIC20110-30907-05675-60000192D0001075D00000000009640001   GGSL
TXBWIC20110-30907-06212-20000003D0000062D00000000009606380   GGSL
TXBWIC20110-32221-10434-20000228D0003456D006810006010434     GGSL
TXBWIC20110-32221-10505-90000186D0000869D009780080410505     GGSL
TXBWIC20110-32221-10768-80000614D0015520D006170006110768     GGSL
TXBWIC20110-32221-10885-20000775D0011109D009380276510885     GGSL
TXBWIC20110-32221-11008-40001548D0001029D023760018011008     GGSL
TXBWIC20110-32221-11695-00000360D0005572D010800000811695     GGSL
TXBWIC20110-32221-31228-00000417D0001200D004650004531228     GGSL
TXBWIC20110-32221-32297-50000209D0003707D023410013232297     GGSL
TXBWIC20110-32221-32325-50000036D0000198D001710000032325     GGSL
TXBWIC20110-32221-33033-80000480D0003772D005970001233033     GGSL
TXBWIC20110-32221-33035-20000765D0007679D004740013533035     GGSL
TXBWIC20110-32221-33326-10001631D0011154D023120019533326     GGSL
TXBWIC20110-32221-33327-80000469D0005280D009670010433327     GGSL
TXBWIC20110-32221-33704-70001396D0048377D114340029033704     GGSL
TXBWIC20110-32221-40712-20000573D0006059D037280032740712     GGSL
TXBWIC20110-32221-40730-60000005D0000042D001680000040730     GGSL
TXBWIC20110-32221-43040-30000060D0000295D002240000042194     GGSL
TXBWIC20110-32221-57705-00000288D0001644D011400058811685     GGSL
TXBWIC20110-32247-00900-30000024D0000074D00264000061009001   GGSL
TXBWIC20110-32247-00910-20000006D0000017D00228000001009101   GGSL
TXBWIC20110-32247-00950-80000012D0000036D00138000001009501   GGSL
TXBWIC20110-32247-03313-80000010D0000265D00651000003313B     GGSL
TXBWIC20110-32247-03594-10000100D0000560D001180000070359430  GGSL
TXBWIC20110-32247-05514-70002119D0007977D035000008270551430  GGSL
TXBWIC20110-32247-10500-20000141D0001149D0045900195110500    GGSL
TXBWIC20110-32247-11307-60000525D0001183D008960010571130756  GGSL
TXBWIC20110-32247-14905-10000032D0000207D000640000014905     GGSL
TXBWIC20110-32247-15307-20000040D0000100D000000000071530751  GGSL
TXBWIC20110-32247-17423-70000006D0000050D000060000017530     GGSL
TXBWIC20110-32247-17501-20000012D0000134D000240000017508     GGSL
TXBWIC20110-32247-17582-10000006D0000074D000180000617582     GGSL
TXBWIC20110-32247-18221-80000020D0000406D000080000018221     GGSL
TXBWIC20110-32247-18260-70000012D0000112D000180000018260     GGSL
TXBWIC20110-32247-18296-60000006D0000084D000000000018296     GGSL
TXBWIC20110-32247-18348-20000006D0000071D000660000018348     GGSL
TXBWIC20110-32247-18350-50000015D0000089D017400001518350     GGSL
TXBWIC20110-32247-18353-60000012D0000291D002400000618353     GGSL
TXBWIC20110-32247-19594-20000399D0002432D003450002271959430  GGSL
TXBWIC20110-32247-20605-10000073D0001184D000350000021605     GGSL
TXBWIC20110-32247-20784-30000714D0002274D038580000672078430  GGSL
TXBWIC20110-32247-21030-00000030D0000688D003290000021030A    GGSL
TXBWIC20110-32247-21701-90000036D0000261D000240000021701     GGSL
TXBWIC20110-32247-22305-80000018D0000263D001270000022305     GGSL
TXBWIC20110-32247-23405-40000002D0000041D001700000023405B    GGSL
TXBWIC20110-32247-23622-50000010D0000139D000120000023622     GGSL
TXBWIC20110-32247-25006-10000008D0000175D003580000025006A    GGSL
TXBWIC20110-32247-25009-20000004D0000299D000450000025009     GGSL
TXBWIC20110-32247-26007-70000003D0000082D001780000026007B    GGSL
TXBWIC20110-32247-26784-70000042D0000154D014520007872678430  GGSL
TXBWIC20110-32247-30177-00000001D0000019D000070000030177     GGSL
TXBWIC20110-32247-33020-60000002D0000088D001000000033020     GGSL
TXBWIC20110-32247-35605-30000011D0000280D000010000044615A    GGSL
TXBWIC20110-32247-36605-20000066D0001487D001800000499605     GGSL
TXBWIC20110-32247-37594-80000170D0001269D005180000273759430  GGSL
TXBWIC20110-32247-37610-50000142D0002025D003540004737610C    GGSL
TXBWIC20110-32247-38605-00000040D0000639D000710001538605D    GGSL
TXBWIC20110-32247-39594-60000329D0002565D019700000073959430  GGSL
TXBWIC20110-32247-39605-90000001D0000015D000000000039605     GGSL
TXBWIC20110-32247-42784-50000066D0000228D013980000674278430  GGSL
TXBWIC20110-32247-43850-60000171C0000228C00092000004385010   GGSL
TXBWIC20110-32247-47783-30000084D0000300D002220001874778300  GGSL
TXBWIC20110-32247-49019-10000004D0000048D001000000049019     GGSL
TXBWIC20110-32247-49024-50000008D0000097D001310000049024     GGSL
TXBWIC20110-32247-49785-50000564D0001654D023700001274978500  GGSL
TXBWIC20110-32247-50086-90000113C0001654C00030000005008610   GGSL
TXBWIC20110-32247-50154-50000010D0000077D000400000045015430  GGSL
TXBWIC20110-32247-50524-60002723D0017323D033680014875052430  GGSL
TXBWIC20110-32247-51105-60000050D0000554D000660000051105     GGSL
TXBWIC20110-32247-51115-50000004D0000129D000610000051115     GGSL
TXBWIC20110-32247-52524-40000144D0000039D003350001185252430  GGSL
TXBWIC20110-32247-52784-20000090D0000294D016680002485278430  GGSL
TXBWIC20110-32247-53105-40000104D0000812D001420000053105     GGSL
TXBWIC20110-32247-55513-50000110D0000863D008110000075551300  GGSL
TXBWIC20110-32247-55523-40001067D0011769D004260013875552300  GGSL
TXBWIC20110-32247-55783-20000594D0002457D024420003675578300  GGSL
TXBWIC20110-32247-55863-10000011D0000085D002450002475586300  GGSL
TXBWIC20110-32247-56513-40004498D0029390D061950054975651300  GGSL
TXBWIC20110-32247-56523-30057102D0539766D025570033875652300  GGSL
TXBWIC20110-32247-56783-10001626D0005854D085790009075678300  GGSL
TXBWIC20110-32247-56863-00000239D0001295D023440000875686300  GGSL
TXBWIC20110-32247-71030-50000012D0000117D000780000671030     GGSL
TXBWIC20110-32247-71060-20000198D0002341D009960006071060     GGSL
TXBWIC20110-32247-71131-90000044D0000860D003230004071131     GGSL
TXBWIC20110-32247-74150-70000966D0004130D0918001038274150    GGSL
TXBWIC20110-32247-74250-40000624D0004051D0450000582274250    GGSL
TXBWIC20110-32247-74850-60000172D0002777D0222800296274850    GGSL
TXBWIC20110-32247-75902-10000007D0000537D000590002175902     GGSL
TXBWIC20110-32247-76121-50000048D0001511D003270003376121     GGSL
TXBWIC20110-32247-76232-80000009D0000528D000420001276232     GGSL
TXBWIC20110-32247-77160-30000222D0000887D0736800720277160    GGSL
TXBWIC20110-32247-77260-00000060D0000457D0280800492277260    GGSL
TXBWIC20110-32247-77860-20000048D0000691D0028200000277860    GGSL
TXBWIC20110-32247-77960-90000264D0004791D0469200296277960    GGSL
TXBWIC20110-32247-95517-10000060D0000213D003670000079551750  GGSL
TXBWIC20110-32584-94505-70000013D0000060D00000000005594505   GGSL
TXBWIC20110-32584-94506-40000050D0000256D00000000005594506   GGSL
TXBWIC20110-32584-94507-10000018D0000079D00000000005594507   GGSL
TXBWIC20110-32584-94509-50000010D0000048D00000000005594509   GGSL
TXBWIC20110-32584-94510-10000027D0000146D00000000005594510   GGSL
TXBWIC20110-32903-00169-30000120D0000140D0036000024SLI06000E3GGSL
TXBWIC20110-32903-00284-30000008D0000210D0000000028TEA20000G2GGSL
TXBWIC20110-32903-00309-30000252D0000507D0056400156SLI10000E3GGSL
TXBWIC20110-32903-00341-30000066D0000498D0016800006SLI24000E3GGSL
TXBWIC20110-32903-00359-80000312D0000463D0057600168SLI08000E3GGSL
TXBWIC20110-32903-12006-60000144D0000228D0069600096LIA06000E3GGSL
TXBWIC20110-32903-12008-00000168D0000414D0093600144LIA08000E3GGSL
TXBWIC20110-32903-12010-30000132D0000477D0080400048LIA10000E3GGSL
TXBWIC20110-32903-12012-70000144D0000821D0081600048LIA12000E3GGSL
TXBWIC20110-32903-12014-10000192D0001414D0064800060LIA14000E3GGSL
TXBWIC20110-32903-12017-20000084D0001066D0064800060LIA16000E3GGSL
TXBWIC20110-32903-12020-20000048D0000741D0030000042LIA20000E3GGSL
TXBWIC20110-32903-12024-00000024D0000488D0018000018LIA24000E3GGSL
TXBWIC20110-32903-12324-10000036D0000135D0011400018SVN24000E3GGSL
TXBWIC20110-32903-12714-00000192D0001109D0018000084GAB14000E3GGSL
TXBWIC20110-32903-12718-80000048D0000408D0023400042GAB18000E3GGSL
TXBWIC20110-32903-12722-50000018D0000216D0021000006GAB22000E3GGSL
TXBWIC20110-32903-12818-50000018D0000106D0024600018VNP18000E3GGSL
TXBWIC20110-32903-12824-60000018D0000123D0027000024VNP24000E3GGSL
TXBWIC20110-32903-50763-80000264D0000897D0049200180SLI12000E3GGSL
TXBWIC20110-32903-50802-40000120D0000439D0048600192SLI14000E3GGSL
TXBWIC20110-32903-72518-60000095D0000686D0012000048RZ.WC2G0B9GGSL
TXBWIC20110-32903-75049-20000060D0000375D0022800024SLI20000E3GGSL
TXBWIC20110-32903-75080-50000120D0000497D0056400144SLI17000E3GGSL
TXBWIC20110-33349-00000-00012760D0000637D000170000070000362  GGSL
TXBWIC20110-33607-00001-50000074D0001976D0000000000GBA-1     GGSL
TXBWIC20110-33607-00953-40000004D0000084D0000400024SP-33     GGSL
TXBWIC20110-34141-00011-70000004D0000031D0009500000YCBSM3CF-PGGSL
TXBWIC20110-34141-00012-40000066D0000455D0028300000YCBSI3CF-PGGSL
TXBWIC20110-34411-74751-30000036D0001070D0004800000874751-100GGSL
TXBWIC20110-34417-00000-00095550D0002336D010400019550055077  GGSL
TXBWIC20110-34417-53000-30002257D0008265D013280018052050327  GGSL
TXBWIC20110-34613-00002-70000069D0000684D0013900552LH002     GGSL
TXBWIC20110-34613-00003-40000130D0000962D0030300573LH003     GGSL
TXBWIC20110-34613-00004-10000085D0000593D0072800392LH004     GGSL
TXBWIC20110-34613-00005-80000001D0000008D0006400017LH005     GGSL
TXBWIC20110-34613-00006-50000038D0000352D0010200220LH006     GGSL
TXBWIC20110-34613-00022-50000003D0000041D0000500000LH022     GGSL
TXBWIC20110-34613-00029-40000002D0000024D00023000118205      GGSL
TXBWIC20110-34613-00060-70000006D0000056D0000000049TP60      GGSL
TXBWIC20110-34613-06811-90000006D0000088D00000000066811      GGSL
TXBWIC20110-34613-07757-90000012D0000048D00000001207757BL    GGSL
TXBWIC20110-34613-70052-10000006D0000054D000180082270052     GGSL
TXBWIC20110-35307-00820-60000060D0000091D0007200744820       GGSL
TXBWIC20110-35307-00834-30000012D0000030D0000000000834       GGSL
TXBWIC20110-35307-00835-00000012D0000060D0001200000835       GGSL
TXBWIC20110-35307-00839-80000012D0000035D0000000000839       GGSL
TXBWIC20110-35307-00848-00000012D0000023D0001200000848       GGSL
TXBWIC20110-35307-00861-90000024D0000046D0008400348861       GGSL
TXBWIC20110-35307-00865-70000012D0000038D0000000000865       GGSL
TXBWIC20110-35307-00874-90000084D0000114D0016800048874       GGSL
TXBWIC20110-35307-01601-00000006D0000054D00180000241601      GGSL
TXBWIC20110-35307-01609-60000060D0000231D00552005641609CS    GGSL
TXBWIC20110-35307-01618-80000006D0000036D00036000001618      GGSL
TXBWIC20110-35307-01635-50000004D0000061D00028000121635      GGSL
TXBWIC20110-35307-01810-60000170D0000756D00529000121810      GGSL
TXBWIC20110-35307-01815-10000032D0000190D00230000001815      GGSL
TXBWIC20110-35307-01818-20000006D0000056D00000000001818-6    GGSL
TXBWIC20110-35307-01820-50000006D0000066D00144000121820      GGSL
TXBWIC20110-35307-01825-00000048D0000348D00096012361825      GGSL
TXBWIC20110-35307-01840-30000022D0000311D00090000001840      GGSL
TXBWIC20110-35307-01845-80000012D0000131D00000000001845      GGSL
TXBWIC20110-35307-90858-20000012D0000065D0000000000858       GGSL
TXBWIC20110-35307-90879-70000012D0000050D0000000000879       GGSL
TXBWIC20110-35355-00803-60000020D0000015D0001400088SS3       GGSL
TXBWIC20110-35355-00805-00000060D0000084D0001300046SS5       GGSL
TXBWIC20110-35355-00924-80000021D0000146D0196601009924       GGSL
TXBWIC20110-35355-01151-70000010D0000045D00000004801151PDQ   GGSL
TXBWIC20110-35355-03105-80000024D0000218D00012020643105      GGSL
TXBWIC20110-35355-03108-90000024D0000274D00000001743108      GGSL
TXBWIC20110-35355-05939-70000012D0000068D00000000365939      GGSL
TXBWIC20110-35355-94006-00000006D0000034D000090006294006     GGSL
TXBWIC20110-35951-07011-60000055D0004625D000230000007011     GGSL
TXBWIC20110-36348-00610-70000105D0000492D00046000090610      GGSL
TXBWIC20110-36348-00645-90000153D0001915D0012700001645       GGSL
TXBWIC20110-36348-01020-30000010D0000141D00007000001020      GGSL
TXBWIC20110-36348-01030-20000001D0000037D00003000031030      GGSL
TXBWIC20110-36348-01045-60000002D0000110D00000000021045      GGSL
TXBWIC20110-36348-01079-10000052D0002346D00199000071079      GGSL
TXBWIC20110-36348-01085-20000007D0000385D00001000011085      GGSL
TXBWIC20110-36348-03142-00000030D0000333D00000000003142-DS   GGSL
TXBWIC20110-36348-13769-60000006D0000013D0000000000M137      GGSL
TXBWIC20110-36434-00000-00000180D0002919D010800002410-12420  GGSL
TXBWIC20110-36434-10000-00000096C0000160C00084001921014510   GGSL
TXBWIC20110-36434-10012-20000024D0000315D004200000010-10012  GGSL
TXBWIC20110-36434-11000-80000104D0001014D010680006360-11000  GGSL
TXBWIC20110-36434-12342-80000036D0000222D002250004060-12342  GGSL
TXBWIC20110-36434-12343-50000004D0000037D001850000760-12343  GGSL
TXBWIC20110-36434-12345-90000168D0001435D005520062410-12345  GGSL
TXBWIC20110-36434-12346-60000129D0000599D009250015960-12346  GGSL
TXBWIC20110-36434-12348-00000008D0000069D000560000010-12348  GGSL
TXBWIC20110-36434-12349-70000010D0000041D001910000060-12349  GGSL
TXBWIC20110-36434-12353-40000077D0001249D010110000760-12353  GGSL
TXBWIC20110-36434-12354-10000001D0000007D001300003310-12354  GGSL
TXBWIC20110-36434-12355-80000050D0000361D005530002510-12355  GGSL
TXBWIC20110-36434-12356-50000074D0000584D006510003010-12356  GGSL
TXBWIC20110-36434-12357-20000042D0000368D003410003010-12357  GGSL
TXBWIC20110-36434-12700-60000060D0000444D000240034810-12700  GGSL
TXBWIC20110-36434-12710-50000012D0000075D002760002410-12710  GGSL
TXBWIC20110-36434-12720-40000120D0000715D003600003610-12720  GGSL
TXBWIC20110-36434-12721-10000024D0000148D000180000660-12721  GGSL
TXBWIC20110-36434-12730-00000012D0000114D000000001210-12730  GGSL
TXBWIC20110-36434-13600-50000036D0000610D000120030010-13600  GGSL
TXBWIC20110-36434-13610-20000036D0000530D000120025210-13610  GGSL
TXBWIC20110-36434-14800-80000072D0001128D010800009610-14800  GGSL
TXBWIC20110-36434-14860-20000084D0001084D006600000010-14860  GGSL
TXBWIC20110-36434-15050-90000036D0000543D004020000010-15050  GGSL
TXBWIC20110-36434-15080-30000006D0000116D001260000010-15080  GGSL
TXBWIC20110-36434-22318-00000173D0000745D010490010060-22318  GGSL
TXBWIC20110-36434-22626-60000022D0000263D003570001360-22626  GGSL
TXBWIC20110-36434-22731-70000030D0000293D002630002660-22731  GGSL
TXBWIC20110-36434-22732-40000031D0000390D003000009260-22732  GGSL
TXBWIC20110-36434-28010-70000012D0000083D014520062410-28010  GGSL
TXBWIC20110-36434-28020-60000120D0000850D011520010810-28020  GGSL
TXBWIC20110-36434-32700-00000216D0001635D020420009610-32700  GGSL
TXBWIC20110-36434-34500-10000060D0000540D004560033610-34500  GGSL
TXBWIC20110-36434-82342-70000013D0000178D002620001260-82342  GGSL
TXBWIC20110-36865-12250-20003240D0005802D012000036071140180  GGSL
TXBWIC20110-36865-14511-20004500D0000143D004200006071451180  GGSL
TXBWIC20110-36865-45220-30032400D0001350D000000000088452205  GGSL
TXBWIC20110-36865-52965-30018000D0000672D000000000087852965  GGSL
TXBWIC20110-36865-65220-71015200D0042300D000000000088652205  GGSL
TXBWIC20110-37321-00000-00000036D0000346D0008800012908       GGSL
TXBWIC20110-37321-00022-80000540D0003066D0064703048022       GGSL
TXBWIC20110-37321-00024-20000255D0002817D0094501056024       GGSL
TXBWIC20110-37321-00051-80000006D0000063D0000000042051       GGSL
TXBWIC20110-37321-00067-90000006D0000057D0000600006067       GGSL
TXBWIC20110-37321-00069-30000084D0000994D0107700447069       GGSL
TXBWIC20110-37321-00103-40000004D0000128D0000000000103       GGSL
TXBWIC20110-37321-00108-90000012D0000033D0081601764108       GGSL
TXBWIC20110-37321-00116-40000008D0000025D0023200008116       GGSL
TXBWIC20110-37321-00123-20000282D0000969D0030900015123       GGSL
TXBWIC20110-37321-00127-00000060D0000505D0049200528127       GGSL
TXBWIC20110-37321-00148-50000012D0000117D0000000012148       GGSL
TXBWIC20110-37321-00150-80000252D0003624D0169202364150       GGSL
TXBWIC20110-37321-00166-90000015D0000085D0020700000166       GGSL
TXBWIC20110-37321-00167-60000012D0000070D0000000000167       GGSL
TXBWIC20110-37321-00202-40000048D0000450D0222900024202       GGSL
TXBWIC20110-37321-00203-10000012D0000156D0017700000203       GGSL
TXBWIC20110-37321-00210-90000087D0000496D0103200012210       GGSL
TXBWIC20110-37321-00211-60000078D0000613D0086700018211       GGSL
TXBWIC20110-37321-00213-00000243D0002220D0149701008213       GGSL
TXBWIC20110-37321-00214-70000288D0001393D0198600876214       GGSL
TXBWIC20110-37321-00216-10000012D0000160D0000000468216       GGSL
TXBWIC20110-37321-00237-60000012D0000150D0000000000237       GGSL
TXBWIC20110-37321-00238-30000168D0001297D0092100462238       GGSL
TXBWIC20110-37321-00239-00000004D0000088D0005200000239       GGSL
TXBWIC20110-37321-00250-50000138D0000643D0001500462250       GGSL
TXBWIC20110-37321-00252-90000039D0000498D0090000012252       GGSL
TXBWIC20110-37321-00253-60000048D0000773D0034200000253       GGSL
TXBWIC20110-37321-00255-00000024D0000392D0104100807255       GGSL
TXBWIC20110-37321-00257-40000072D0000237D0051300486257       GGSL
TXBWIC20110-37321-00274-10000123D0000699D0077100816274       GGSL
TXBWIC20110-37321-00277-20000006D0000229D0000000006277       GGSL
TXBWIC20110-37321-00285-70000012D0000066D0000000012285       GGSL
TXBWIC20110-37321-00307-60000048D0000176D0046501164307       GGSL
TXBWIC20110-37321-00309-00000114D0001206D0033600378309       GGSL
TXBWIC20110-37321-00312-00000012D0000207D0001200012312       GGSL
TXBWIC20110-37321-00330-40000024D0000210D0040500012330       GGSL
TXBWIC20110-37321-00331-10000324C0000210C0054900024331       GGSL
TXBWIC20110-37321-00370-00000012D0000049D0000000000370       GGSL
TXBWIC20110-37321-00411-00000036D0000115D0014400048411       GGSL
TXBWIC20110-37321-00412-70000024D0000122D0016800000412       GGSL
TXBWIC20110-37321-00420-20000001D0000054D0012800023420       GGSL
TXBWIC20110-37321-00426-40000027D0000255D0075600972426       GGSL
TXBWIC20110-37321-00428-80000096D0000345D0001400432428       GGSL
TXBWIC20110-37321-00442-40000036D0000222D0117300216442       GGSL
TXBWIC20110-37321-00443-10000030D0000306D0040500000443       GGSL
TXBWIC20110-37321-00506-30000024D0000098D0062100384506       GGSL
TXBWIC20110-37321-00549-00000012D0000091D0009600060549       GGSL
TXBWIC20110-37321-00552-00000018D0000293D0016800006552       GGSL
TXBWIC20110-37321-00553-70000022D0000603D0036200002553       GGSL
TXBWIC20110-37321-00567-40000012D0000151D0000000000567       GGSL
TXBWIC20110-37321-00573-50000060D0000252D0072300012573       GGSL
TXBWIC20110-37321-00631-20002236D0005752D1819201944631       GGSL
TXBWIC20110-37321-00655-80000042D0000258D00078012066556      GGSL
TXBWIC20110-37321-00680-00000051D0000329D0107100060680       GGSL
TXBWIC20110-37321-00683-10000012D0000096D0000000000683       GGSL
TXBWIC20110-37321-00684-80000123D0001276D0079200000685       GGSL
TXBWIC20110-37321-00690-90000036D0000364D0043800024690       GGSL
TXBWIC20110-37321-00691-60000069D0000562D0033000036691       GGSL
TXBWIC20110-37321-00692-30000108D0001214D0030900018692150    GGSL
TXBWIC20110-37321-00771-50000072D0000326D0025200000771       GGSL
TXBWIC20110-37321-00775-30000066D0000376D0005400048775       GGSL
TXBWIC20110-37321-00777-70000042D0000393D0024700000777       GGSL
TXBWIC20110-37321-00779-10000024D0000188D0018300552779       GGSL
TXBWIC20110-37321-00786-90000048D0000200D0070200042786       GGSL
TXBWIC20110-37321-00789-00000027D0000206D0089101025791       GGSL
TXBWIC20110-37321-00811-80000081D0000925D0135000312811       GGSL
TXBWIC20110-37321-00813-20000018D0000221D0030300954813       GGSL
TXBWIC20110-37321-00814-90000006D0000140D0006000000814       GGSL
TXBWIC20110-37321-00857-60000108D0000916D0072000012857       GGSL
TXBWIC20110-37321-00862-00000699D0007901D0047400084862       GGSL
TXBWIC20110-37321-00870-50000024D0000111D0008400012870       GGSL
TXBWIC20110-37321-00875-00000024D0000266D0006300000875       GGSL
TXBWIC20110-37321-00880-40000012D0000120D0016200468880       GGSL
TXBWIC20110-37321-00883-50000114D0000533D0024900606883       GGSL
TXBWIC20110-37321-00892-70000072D0000618D0003602028892       GGSL
TXBWIC20110-37321-00925-20000253D0000734D0013101368925       GGSL
TXBWIC20110-37321-00939-90000072D0000696D0003600648939       GGSL
TXBWIC20110-37321-00941-20000188D0001899D0030300708941       GGSL
TXBWIC20110-37321-00951-10000132D0000489D0018001020951       GGSL
TXBWIC20110-37321-00952-80000039D0000207D0016500012952       GGSL
TXBWIC20110-37321-00982-50000012D0000050D0000000000982       GGSL
TXBWIC20110-37321-00987-00000060D0000554D0057000330987       GGSL
TXBWIC20110-37321-02360-90000063D0000440D00432000632360      GGSL
TXBWIC20110-37321-02361-60000140D0001499D01681007322361      GGSL
TXBWIC20110-37321-05611-90000060D0000243D0111600204560       GGSL
TXBWIC20110-37321-05710-90000012D0000073D00120000125710      GGSL
TXBWIC20110-37321-05714-70000008D0000204D00068000325714      GGSL
TXBWIC20110-37321-07490-80000012D0000060D00090004807490      GGSL
TXBWIC20110-37321-08752-60000018D0000203D00147000008752      GGSL
TXBWIC20110-37321-09534-70000063D0000685D00498003369534      GGSL
TXBWIC20110-37321-46126-50000300D0000044D116000000046126     GGSL
TXBWIC20110-37321-46172-20000012D0000049D000000000046172     GGSL
TXBWIC20110-37321-46178-40000036D0000457D000120000046178     GGSL
TXBWIC20110-37321-46400-60000024D0000073D000000000046400     GGSL
TXBWIC20110-37321-48113-30000012D0000111D00171000395712      GGSL
TXBWIC20110-37321-60360-30000061D0000656D006590003060362     GGSL
TXBWIC20110-37321-60414-30000090D0002907D002700000060414     GGSL
TXBWIC20110-37321-60420-40000144D0001774D003410000060420     GGSL
TXBWIC20110-37321-60476-10000118D0001407D020861660860478     GGSL
TXBWIC20110-37321-60514-00000575D0005967D016360122660516     GGSL
TXBWIC20110-37321-60613-00000004D0000036D000800000460613     GGSL
TXBWIC20110-38313-00005-90000009D0000173D0004600003GS 6750D  GGSL
TXBWIC20110-38313-00008-00000072D0001230D0008000026BP 3130   GGSL
TXBWIC20110-38313-00060-80000320D0005379D0010700379BP 3160   GGSL
TXBWIC20110-38313-00080-60000188D0003897D0009300301BP 3180D  GGSL
TXBWIC20110-38313-00217-60000001D0000017D0001300012FS 4350   GGSL
TXBWIC20110-38313-00524-50000006D0000131D0000000000SL 3310   GGSL
TXBWIC20110-38313-00830-70000012D0000366D0002400012BP 6250   GGSL
TXBWIC20110-38313-01010-20000300D0001413D0044400072CT 3010I  GGSL
TXBWIC20110-38313-01020-10000090D0000421D0010800000CT 3020I  GGSL
TXBWIC20110-38313-01030-00000084D0000394D0007800000CT 3030I  GGSL
TXBWIC20110-38313-02706-30000002D0000225D0000000000WB 2706   GGSL
TXBWIC20110-38313-03050-60000018D0000130D0005400174GT 3050   GGSL
TXBWIC20110-38313-03060-50000036D0000250D0000000174GT 3060   GGSL
TXBWIC20110-38313-03080-30000036D0000255D0000000162GT 3080   GGSL
TXBWIC20110-38313-03244-90000012D0000200D0000000090HS 3244   GGSL
TXBWIC20110-38313-03394-10000012D0000086D0001200000FS 3394   GGSL
TXBWIC20110-38313-03470-20000009D0000259D0004900000FL 3470   GGSL
TXBWIC20110-38313-03730-70000012D0000064D0000000240CT 3730   GGSL
TXBWIC20110-38313-03740-60000012D0000073D0000000000CT 3740   GGSL
TXBWIC20110-38313-04110-60000012D0000180D0000000078AL 4110   GGSL
TXBWIC20110-38313-04930-00001068D0006224D0390300166AG 4930   GGSL
TXBWIC20110-38313-04930-70000425D0003047D0077100348AG 4930SS GGSL
TXBWIC20110-38313-06970-40000031D0001342D0009400006AH 6970   GGSL
TXBWIC20110-38313-07001-00000008D0000368D0000900000FK 70010  GGSL
TXBWIC20110-38313-07545-20000042D0000670D0006400008RS 7245   GGSL
TXBWIC20110-38313-10000-10000061D0000579D0006700012SS 10000  GGSL
TXBWIC20110-38313-10227-20000010D0000697D0008200001AL 6512   GGSL
TXBWIC20110-38313-11000-00000025D0000231D0002500003SS 11000  GGSL
TXBWIC20110-38313-12400-70000190D0002212D0013800045RK 24003  GGSL
TXBWIC20110-38313-13214-90000006D0000046D0008400252FS 3214D  GGSL
TXBWIC20110-38313-14300-80000001D0000041D0000000000BM 43001  GGSL
TXBWIC20110-38313-20001-50000014D0000333D0000100000PD 20000  GGSL
TXBWIC20110-38313-20002-20000003D0000046D0000000015RK 20002  GGSL
TXBWIC20110-38313-20022-00000032D0000561D0004600019RK 20022  GGSL
TXBWIC20110-38313-21000-70000009D0000121D0008400073SH 20000  GGSL
TXBWIC20110-38313-24000-40000020D0000146D0004300006FS 4000   GGSL
TXBWIC20110-38313-26020-00000032D0000442D0004600022SS 26020  GGSL
TXBWIC20110-38313-27020-90000005D0000068D0002000000SS 27020  GGSL
TXBWIC20110-38313-28000-00000006D0000101D0000800000SS 28000  GGSL
TXBWIC20110-38313-28010-90000010D0000205D0002900005SS 28010  GGSL
TXBWIC20110-38313-32640-10000036D0000240D0004800018CT 3264   GGSL
TXBWIC20110-38313-33440-60000008D0000070D0000000000CT 3344   GGSL
TXBWIC20110-38313-33640-00000008D0000066D0000000000CT 3364   GGSL
TXBWIC20110-38313-37201-90000003D0000050D0000400003LG 3720   GGSL
TXBWIC20110-38313-53841-50000001D0000046D0000700000TP 3841   GGSL
TXBWIC20110-38313-56200-70000001D0000007D0000200000RK 62000  GGSL
TXBWIC20110-38313-62062-20000007D0000310D0001100000BM 62060  GGSL
TXBWIC20110-38313-64144-30000012D0000237D0000200001SS 64104  GGSL
TXBWIC20110-38313-71005-70000006D0000273D0000000000FK 71005  GGSL
TXBWIC20110-38313-80000-00000010D0000744D0000000007SF 80000  GGSL
TXBWIC20110-38313-81000-90000046D0000437D0006300008RK 10000  GGSL
TXBWIC20110-38313-82000-80000006D0000134D0000000000FK 42000  GGSL
TXBWIC20110-38313-90000-70000012D0000106D0003900004SH 10000  GGSL
TXBWIC20110-38858-05649-80000006D0000034D00000000003751-06-09GGSL
TXBWIC20110-38858-05650-40000006D0000038D00000000003752-06-09GGSL
TXBWIC20110-38858-05655-90000006D0000041D00000000003757-06-09GGSL
TXBWIC20110-38858-05657-30000006D0000041D00000000003759-06-09GGSL
TXBWIC20110-38858-06771-50000004D0000107D00000000003777-04-09GGSL
TXBWIC20110-38858-06935-10000048D0000098D00000000009670-12-00GGSL
TXBWIC20110-38858-10457-10000004D0000036D00000000007985-04-91GGSL
TXBWIC20110-38858-10980-40000010D0000083D00000000001407-10-10GGSL
TXBWIC20110-38858-10983-50000012D0000039D00000000001406-12-10GGSL
TXBWIC20110-38858-10991-00000012D0000039D00000000001406-12-10GGSL
TXBWIC20110-38858-11004-60000012D0000031D00000000001411-12-07GGSL
TXBWIC20110-38858-11009-10000012D0000031D00000000001411-12-10GGSL
TXBWIC20110-38858-11021-30000010D0000053D00000000001423-10-07GGSL
TXBWIC20110-38858-11310-80000012D0000039D00000000001225-12-07GGSL
TXBWIC20110-38858-11311-50000012D0000084D00000000001226-12-07GGSL
TXBWIC20110-38858-13567-40000002D0000062D00000000003550-02-09GGSL
TXBWIC20110-38858-13568-10000006D0000050D00000000003779-06-09GGSL
TXBWIC20110-38858-13576-60000012D0000092D00000000006718-12-76GGSL
TXBWIC20110-39044-12044-30000006D0000183D000000000012044     GGSL
TXBWIC20110-39079-05897-10000012D0000182D0001100000100511010 GGSL
TXBWIC20110-39645-11752-10000116D0000570D001360000040200010  GGSL
TXBWIC20110-39678-95089-80000012D0000172D000000000095508     GGSL
TXBWIC20110-39678-95229-80000012D0000208D000000000095522     GGSL
TXBWIC20110-39996-30293-50000050D0000665D000000007030293     GGSL
TXBWIC20110-40025-40001-00003150D0000488D1670000300RWS-54001 GGSL
TXBWIC20110-40025-54033-40000010D0000444D0007800000RWS-54033 GGSL
TXBWIC20110-40279-03300-20000397D0000673D0087000048          GGSL
TXBWIC20110-40279-03302-60000216D0000401D0067200036          GGSL
TXBWIC20110-40279-03304-00000534D0002001D00300000183304      GGSL
TXBWIC20110-40279-16136-70000252D0000403D000000000016136     GGSL
TXBWIC20110-41535-02008-80000049D0000102D00000000009203350   GGSL
TXBWIC20110-41535-06166-10000006D0000035D00000000009206166   GGSL
TXBWIC20110-41535-06190-60000030D0000164D00000000009236190   GGSL
TXBWIC20110-41535-24550-40000134D0005489D005070000924550     GGSL
TXBWIC20110-41535-24560-30000197D0026339D005720005124560     GGSL
TXBWIC20110-41535-24571-90000588D0009352D0049300286100518540 GGSL
TXBWIC20110-41535-79218-30000013D0000426D00000000009206192   GGSL
TXBWIC20110-41535-79219-00000186D0001734D00000000009206231   GGSL
TXBWIC20110-42206-00202-00000140D0000142D0025000000202S      GGSL
TXBWIC20110-42206-00202-10000006D0000007D0001800000202S      GGSL
TXBWIC20110-42206-00395-90000020D0000046D0043000140395S      GGSL
TXBWIC20110-42206-00525-00000020D0000048D0023400180525C      GGSL
TXBWIC20110-42206-00872-50000018D0000038D0009600114872-6     GGSL
TXBWIC20110-42206-09000-30000070D0000403D00500000109000      GGSL
TXBWIC20110-42206-09620-30000033D0001154D00216000129620-8    GGSL
TXBWIC20110-42206-14058-60000240D0001231D00036000489570      GGSL
TXBWIC20110-42206-14220-70000008D0000030D0006200062312S      GGSL
TXBWIC20110-42206-14221-40000058D0000100D0026000000313S      GGSL
TXBWIC20110-42206-14222-10000006D0000106D0010800090314S      GGSL
TXBWIC20110-42206-14235-10000070D0000071D0031600030390S      GGSL
TXBWIC20110-42206-14328-00000030D0000016D0000000090200C      GGSL
TXBWIC20110-42206-14501-70000040D0000033D00176000101FMC      GGSL
TXBWIC20110-42206-14502-40000036D0000025D00160000301MMC      GGSL
TXBWIC20110-42206-14503-10000136D0000123D00704002742FMC      GGSL
TXBWIC20110-42206-14504-80000072D0000052D00053000322MMC      GGSL
TXBWIC20110-42206-14505-50000034D0000032D002140001001MC      GGSL
TXBWIC20110-42206-14506-20000050D0000049D006320008002MC      GGSL
TXBWIC20110-42206-14570-30000014D0000073D0007000020ZBR3/4    GGSL
TXBWIC20110-42206-14572-70000010D0000033D0008400030ZBF3/4    GGSL
TXBWIC20110-42206-15111-70000012D0000076D000960000015111     GGSL
TXBWIC20110-42206-20491-20000060D0000280D000460006020491-10  GGSL
TXBWIC20110-42206-40261-50000006D0000044D000060000620261     GGSL
TXBWIC20110-42206-40300-10000010D0000064D0013600000XT300     GGSL
TXBWIC20110-42206-40301-80000090D0000554D0035400460XT301     GGSL
TXBWIC20110-42206-63015-50000012D0000318D001000000463015     GGSL
TXBWIC20110-42206-63100-80000003D0000111D000440000063100     GGSL
TXBWIC20110-42579-00035-70000018D0000163D00000000903 YR-3100 GGSL
TXBWIC20110-42579-10342-30000024D0000330D0000000048NB348     GGSL
TXBWIC20110-42579-11212-80000007D0000279D0004500000SSR12GRN  GGSL
TXBWIC20110-42579-11250-00000005D0002001D0004400000P12       GGSL
TXBWIC20110-42579-11500-60000063D0001208D0006300012APB5      GGSL
TXBWIC20110-42579-12342-10000024D0000270D0000000072PSS       GGSL
TXBWIC20110-42579-12343-80000014D0000588D000070000720 YR-3100GGSL
TXBWIC20110-42579-12346-90000024D0000045D0000000192TW3W      GGSL
TXBWIC20110-42579-13250-80000171D0005242D0055800057P3        GGSL
TXBWIC20110-42579-14250-70000157D0014879D0045500051P4        GGSL
TXBWIC20110-42579-15250-60000018D0002826D0010400002P5        GGSL
TXBWIC20110-42579-16250-50000090D0015108D0011100012P6        GGSL
TXBWIC20110-42579-18250-30000030D0008004D0005500009P8        GGSL
TXBWIC20110-42579-19342-40000072D0000774D002640002420 YR-324 GGSL
TXBWIC20110-42579-22341-10001696D0010856D02944009926 YR-350  GGSL
TXBWIC20110-42579-22342-80000624D0005206D0052801500NS12      GGSL
TXBWIC20110-42579-22345-90001308D0001190D0385103072APRC      GGSL
TXBWIC20110-42579-24250-40000010D0000638D000430000020 YR-4250GGSL
TXBWIC20110-42579-25250-30000030D0002372D000210000020 YR-5250GGSL
TXBWIC20110-42579-26250-20000036D0003427D000000000420 YR-6250GGSL
TXBWIC20110-42579-32355-50000378D0001953D0134400028RS15      GGSL
TXBWIC20110-42579-43004-80000035D0003185D0009100004NB4       GGSL
TXBWIC20110-42579-43006-20000034D0004363D0001700005NB6       GGSL
TXBWIC20110-42579-50154-00000280D0007075D0037600024PRO BLK-31GGSL
TXBWIC20110-42579-50169-40000090D0001472D0000000072PRO BLK-45GGSL
TXBWIC20110-42579-63041-70000008D0000909D0002200002KG6       GGSL
TXBWIC20110-42579-63101-80000600D0000455D0000000086TSL-BX    GGSL
TXBWIC20110-42579-63105-60000009D0000492D0005000003350ROLL   GGSL
TXBWIC20110-42579-63106-30001200D0000120D0000000300CLIP-C    GGSL
TXBWIC20110-42579-63111-70001800D0000324D0000000000RPB-RED   GGSL
TXBWIC20110-42579-63306-70001512D0007004D01764007923 YR-350  GGSL
TXBWIC20110-42579-81273-80000001D0000158D0000100000K12       GGSL
TXBWIC20110-42579-81360-50000119D0015445D0011400074NS12250   GGSL
TXBWIC20110-42579-81391-90000005D0001007D0000100003WGC12     GGSL
TXBWIC20110-42579-81392-60000005D0001302D0000000000WGC15     GGSL
TXBWIC20110-42579-81428-20000164D0000286D0010300000BURLAP BAGGGSL
TXBWIC20110-42579-81566-10000113D0012513D0022000020SBLT10300 GGSL
TXBWIC20110-42579-81568-50000108D0014893D0045300026SBLT12300 GGSL
TXBWIC20110-42579-81569-20000353D0058994D0031900218SBLT15.530GGSL
TXBWIC20110-42579-81571-50000110D0003748D0050300067SBLT3300  GGSL
TXBWIC20110-42579-81572-20000024D0001030D0023500002SBLT4300  GGSL
TXBWIC20110-42579-81573-90000235D0015704D0057000119SBLT6300  GGSL
TXBWIC20110-42579-81605-70000020D0001411D0005400002PRO BLK-33GGSL
TXBWIC20110-42579-81606-40000048D0004311D0013400002PRO BLK-43GGSL
TXBWIC20110-42579-81607-10000051D0007104D0006200003PRO BLK-63GGSL
TXBWIC20110-42579-81619-40002500D0000170D0000100032APB1      GGSL
TXBWIC20110-42579-81624-80000054D0000727D0000000018PRO BLK-35GGSL
TXBWIC20110-42579-81733-70000012D0000712D0002100000CS-3300BLKGGSL
TXBWIC20110-42579-81734-40000010D0000768D0001000000CS-4300BLKGGSL
TXBWIC20110-42579-81735-10000017D0001972D0004300033CS-6300BLKGGSL
TXBWIC20110-42579-81738-20000003D0000661D0000900000CS-350BLK GGSL
TXBWIC20110-42579-81739-90000003D0000631D0002400000CS-3100BLKGGSL
TXBWIC20110-42579-81834-10000004D0000071D0000000000BT2.75-100GGSL
TXBWIC20110-42579-81851-80000004D0000191D0000100000DELUXE7   GGSL
TXBWIC20110-42579-82278-20000144D0001252D0000000216TWBAG-36  GGSL
TXBWIC20110-42579-82293-50000056D0000334D0002802100SUPREME625GGSL
TXBWIC20110-42853-00000-00000210D0001017D0030900185BFTD-DB12 GGSL
TXBWIC20110-42853-10000-10000024D0000092D0002000000ST3-BB4   GGSL
TXBWIC20110-42853-42000-00000036D0000207D0000000000TSBF-BB6  GGSL
TXBWIC20110-42853-50000-90000060D0000368D0009600384TSW-BB6   GGSL
TXBWIC20110-42853-61000-50000008D0000034D0001600016FFTR2-BB4 GGSL
TXBWIC20110-42853-77305-40000300D0001032D0007300144FTD-DB12  GGSL
TXBWIC20110-42853-77603-90000024D0000080D0000300001YJTD-DB12-GGSL
TXBWIC20110-42854-63278-50000120D0000270D0000000024FG32PC1-12GGSL
TXBWIC20110-42854-64870-00000012D0000075D0004800006FG48PC1-6 GGSL
TXBWIC20110-43162-56428-70000025D0000352D000460000159021451  GGSL
TXBWIC20110-43256-28160-10000004D0000109D0000800000DT150-DEC2GGSL
TXBWIC20110-43256-29051-10000002D0000157D0001600000DT1260    GGSL
TXBWIC20110-43312-10003-70000486D0001507D0056800000103-0-009 GGSL
TXBWIC20110-43312-10027-30000024D0000210D0006000000104-0-003 GGSL
TXBWIC20110-43312-10031-00000025D0000599D0002000000107-0-002 GGSL
TXBWIC20110-43326-16740-80000003D0000049D0000000033A12X14-P3 GGSL
TXBWIC20110-43326-59710-60000060D0000296D0001200000G6X8      GGSL
TXBWIC20110-43326-59732-80000015D0000498D0000000035G10X12    GGSL
TXBWIC20110-43326-59771-70000032D0000593D0000000004G10X18    GGSL
TXBWIC20110-43725-11311-20000004D0000098D00000000009101614   GGSL
TXBWIC20110-43725-19680-00000002D0000058D00000000009149068   GGSL
TXBWIC20110-43725-19964-20000006D0000155D00000000009121969   GGSL
TXBWIC20110-43725-20505-30000097D0000602D00000000009102050   GGSL
TXBWIC20110-43725-25114-20000002D0000008D00000000009132511   GGSL
TXBWIC20110-43725-29604-40000002D0000008D00000000009129600   GGSL
TXBWIC20110-43725-53019-30000006D0000024D00000000009153019   GGSL
TXBWIC20110-43786-00102-10000004D0000068D0000000000102       GGSL
TXBWIC20110-43786-05140-80000012D0000057D000000000005140     GGSL
TXBWIC20110-43792-50001-30000003D0000114D0000400006Y32       GGSL
TXBWIC20110-43792-60002-70000003D0000117D0000900005W32       GGSL
TXBWIC20110-43792-70002-40000004D0000156D0000200003R32       GGSL
TXBWIC20110-43792-80001-40000033C0000156C0000200003SW10      GGSL
TXBWIC20110-43792-90001- 0000002D0000090D0000400001SH10      GGSL
TXBWIC20110-43792-90003-50000002D0000078D0000100003GA10      GGSL
TXBWIC20110-45446-00150-10000024D0000438D00000000001615097   GGSL
TXBWIC20110-45446-00213-30000001D0000053D00000000003547510   GGSL
TXBWIC20110-46539-62045-60002223D0026105D0749200142          GGSL
TXBWIC20110-46539-64032-40000946D0008534D0505700272          GGSL
TXBWIC20110-46753-00000-00000001D0000192D0000000000          GGSL
TXBWIC20110-46753-01032-30000020D0000080D00006001504675301032GGSL
TXBWIC20110-46753-01128-30000032D0000290D00064001324675301128GGSL
TXBWIC20110-46753-02032-20000006D0000028D00000000784675302032GGSL
TXBWIC20110-46753-02128-20000024D0000275D00000000524675302128GGSL
TXBWIC20110-46753-02500-60000002D0000094D00012000004675302500GGSL
TXBWIC20110-46753-03128-10000020D0000254D00040000084675303128GGSL
TXBWIC20110-46753-04032-00000114D0000653D00108000064675304032GGSL
TXBWIC20110-46753-04033-70000030D0000260D00160007562004675304GGSL
TXBWIC20110-46753-04128-00000080D0001093D00024003284675304128GGSL
TXBWIC20110-46753-04500-40000008D0000508D00005000004675304500GGSL
TXBWIC20110-46753-05032-90000054D0000443D00000005104675305032GGSL
TXBWIC20110-46753-05128-90000028D0000354D00016002004675305128GGSL
TXBWIC20110-46753-07032-70000030D0000151D00147000124675307032GGSL
TXBWIC20110-46753-08032-60000294D0004479D00429006364675308032GGSL
TXBWIC20110-46753-14032-70000040D0000161D00048000124675314032GGSL
TXBWIC20110-46753-14128-70000036D0000265D00080000124675314128GGSL
TXBWIC20110-46753-17005-80000066D0000269D00000000844675317005GGSL
TXBWIC20110-46753-17040-90000633D0008501D00993000104675317040GGSL
TXBWIC20110-46753-21032-70000012D0000058D000520025210327     GGSL
TXBWIC20110-46753-21128-70000028D0000345D000440014812287     GGSL
TXBWIC20110-48307-70003-20000140D0000061D0008500000ST3       GGSL
TXBWIC20110-48307-70004-90000520D0000282D0022700000ST4-WS    GGSL
TXBWIC20110-48307-70005-60000100D0000058D0000000000ST5       GGSL
TXBWIC20110-48307-70006-30000040D0000026D0018700001ST6       GGSL
TXBWIC20110-48745-22244-80000016D0000389D0016000000BL22244   GGSL
TXBWIC20110-48745-31400-60000003D0000146D00000000005331410   GGSL
TXBWIC20110-48745-32553-80000050D0000296D00000000005332553   GGSL
TXBWIC20110-48745-32708-60000360D0004017D010080003632708     GGSL
TXBWIC20110-48745-34532-10000006D0000060D00006000000348206   GGSL
TXBWIC20110-50197-00000-00000186D0000753D0039600876GL6       GGSL
TXBWIC20110-50197-00104-50000426D0001972D0142500252HT4       GGSL
TXBWIC20110-50197-00108-30000102D0000673D0027000000HT8       GGSL
TXBWIC20110-50197-00118-20000447D0004993D0081200001HT18      GGSL
TXBWIC20110-50197-00136-60000583D0010544D0027800166HT36      GGSL
TXBWIC20110-50197-00150-20000215D0004970D0016500098HT50      GGSL
TXBWIC20110-50197-00204-20000270D0001247D0155403396PT4       GGSL
TXBWIC20110-50197-00208-00000024D0000166D0018600000PT8       GGSL
TXBWIC20110-50197-00218-90000130D0001511D0042200000PT18      GGSL
TXBWIC20110-50197-00236-30000153D0002873D0028600081PT36      GGSL
TXBWIC20110-50197-00250-90000013D0000353D0009900010PT50      GGSL
TXBWIC20110-50197-00304-90000475D0002200D0067701416GT4       GGSL
TXBWIC20110-50197-00308-70000029D0000206D0000100108GT8       GGSL
TXBWIC20110-50197-00318-60000171D0002139D0038600010GT18      GGSL
TXBWIC20110-50197-00336-00000051D0001018D0020400013GT36      GGSL
TXBWIC20110-50197-00404-60000108D0000495D0066601164RT4       GGSL
TXBWIC20110-50197-00408-40000042D0000285D0027000000RT8       GGSL
TXBWIC20110-50197-00418-30000096D0001058D0027700088RT18      GGSL
TXBWIC20110-50197-00604-00000522D0002268D0055200816BT4       GGSL
TXBWIC20110-50197-00704-70000108D0000482D0042000312TR4       GGSL
TXBWIC20110-50197-00718-40000034D0000413D0013900002TR18      GGSL
TXBWIC20110-50197-00904-10000228D0001011D0219605160TO4       GGSL
TXBWIC20110-50197-00908-60000030D0000204D0023400000TO8       GGSL
TXBWIC20110-50197-00918-80000042D0000562D0028100017TO18      GGSL
TXBWIC20110-50197-01004-70000144D0000666D0020401500BM04      GGSL
TXBWIC20110-50197-01024-50000024D0000480D0000000000BM24      GGSL
TXBWIC20110-50197-01228-70000026D0000423D0015500010RP28      GGSL
TXBWIC20110-50197-01303-10000420D0002487D0015601404DB03      GGSL
TXBWIC20110-50197-01317-80000039D0001360D0003900008DB17      GGSL
TXBWIC20110-50197-01403-80000060D0000323D0016800000CM3       GGSL
TXBWIC20110-50197-01803-60000120D0000427D0009600024GM3       GGSL
TXBWIC20110-50197-01825-80000328D0003267D0042100000GM25      GGSL
TXBWIC20110-50197-01905-70000012D0000057D0004200036GF5105/6  GGSL
TXBWIC20110-50197-02206-40000108D0000542D0035400390GG6       GGSL
TXBWIC20110-50197-02304-70000012D0000051D0000000024CS4       GGSL
TXBWIC20110-50197-02703-80000024D0000281D0000000012KM4       GGSL
TXBWIC20110-50197-02805-90000036D0000207D0004800144GF101010/6GGSL
TXBWIC20110-50197-02904-90000221D0000998D0096601380FT4       GGSL
TXBWIC20110-50197-02918-60000059D0000738D0015400003FT18      GGSL
TXBWIC20110-50197-03804-10001273D0006543D0280601175BTSP4     GGSL
TXBWIC20110-50197-03808-90000018D0000165D0003600024BTSP8     GGSL
TXBWIC20110-50197-03825-60000173D0004534D0039000038BTSP25    GGSL
TXBWIC20110-50197-03904-80000114D0000519D0064601236PM4       GGSL
TXBWIC20110-50197-03920-80000020D0000263D0015300001PM20      GGSL
TXBWIC20110-50197-05004-30000396D0001843D0100801908CT4       GGSL
TXBWIC20110-50197-05018-00000089D0001214D0047600010CT18      GGSL
TXBWIC20110-50197-05320-40000023D0000346D0031400000ELF20     GGSL
TXBWIC20110-50197-05405-80000108D0000507D0030100264IT5       GGSL
TXBWIC20110-50197-05628-10000020D0000378D0014100000EOLF28    GGSL
TXBWIC20110-50197-05730-10000020D0000378D0002200000EOSR30    GGSL
TXBWIC20110-50197-05830-80000030D0000584D0000000005EOFW30    GGSL
TXBWIC20110-50197-06101-80000060D0000374D0000000144BG1       GGSL
TXBWIC20110-50197-06203-90000024D0000118D0001200024AL3       GGSL
TXBWIC20110-50197-06504-70000084D0000365D0080402196AT4       GGSL
TXBWIC20110-50197-06508-50000036D0000232D0013200006AT8       GGSL
TXBWIC20110-50197-06518-40000006D0000071D0004300000AT18      GGSL
TXBWIC20110-50197-06604-40000156D0000716D0043200012BR4       GGSL
TXBWIC20110-50197-30418-40000030D0000185D0023900006BL18      GGSL
TXBWIC20110-50197-30508-20000126D0000519D0000000240INPF8     GGSL
TXBWIC20110-50197-30608-90000096D0000399D0003600264CAPF8     GGSL
TXBWIC20110-50197-30708-60000048D0000199D0003600198VIPF8     GGSL
TXBWIC20110-50197-30808-30000114D0000469D0002400210ORPF8     GGSL
TXBWIC20110-50197-30924-00000012D0000128D0001200012FI24-6    GGSL
TXBWIC20110-50197-31208-00000006D0000024D0000000102ctpf8     GGSL
TXBWIC20110-50197-31318-60000036D0000203D0012600000topf18    GGSL
TXBWIC20110-50197-51524-50000006D0000033D0000000012EOIC24    GGSL
TXBWIC20110-50197-51824-60000024D0000122D0002400000eowk24    GGSL
TXBWIC20110-50197-70101-30000315D0001953D0033200000ap1       GGSL
TXBWIC20110-50197-70102-00000347D0003768D0012200000ap2       GGSL
TXBWIC20110-50197-70116-70000460D0002303D0000000000AP16      GGSL
TXBWIC20110-50197-70304-80000924D0002263D0049200012CA4X      GGSL
TXBWIC20110-50197-70308-60000138D0000519D0022800006ca8x      GGSL
TXBWIC20110-50197-70516-50000026D0000106D0000000055SS16      GGSL
TXBWIC20110-50197-70608-70000072D0000258D0002400036PTM8      GGSL
TXBWIC20110-50197-70701-50000018D0000214D0000000037PR1       GGSL
TXBWIC20110-50197-70801-20000020D0000211D0000000018VM1       GGSL
TXBWIC20110-50197-71201-90005625D0000616D0000000075mm1       GGSL
TXBWIC20110-50197-71202-60002304D0000610D0002500000mm2       GGSL
TXBWIC20110-50197-71208-80000024D0000108D0003600000MM8       GGSL
TXBWIC20110-50197-71304-70000264D0001584D0031200096EC4       GGSL
TXBWIC20110-50197-71501-00000201D0001304D0030500000lsc1      GGSL
TXBWIC20110-50197-71601-70000071D0000362D0038600000dcm1      GGSL
TXBWIC20110-50197-80117-10000226D0002219D0042900000SC17      GGSL
TXBWIC20110-50349-00000-00000280D0001704D00000000051071-012  GGSL
TXBWIC20110-50349-01003-10000132D0000117D00001000101003-012  GGSL
TXBWIC20110-50349-01018-50000044D0000101D00001000001018-012  GGSL
TXBWIC20110-50349-01025-30000026D0000069D00001000031025-012  GGSL
TXBWIC20110-50349-01031-40000060D0000185D00002000001031-012  GGSL
TXBWIC20110-50349-01035-20000042D0000175D00001000001035-012  GGSL
TXBWIC20110-50349-01037-60000048D0000339D00001000061037-012  GGSL
TXBWIC20110-50349-01039-00000100D0000752D00000000071039-012  GGSL
TXBWIC20110-50349-01052-90000072D0000118D00003000001052-012  GGSL
TXBWIC20110-50349-01056-70000044D0000109D00001000021056-012  GGSL
TXBWIC20110-50349-01078-30000456D0000635D00000000071023-017  GGSL
TXBWIC20110-50349-01096-30000032D0000137D00001000001096-012  GGSL
TXBWIC20110-50349-01097-00000032D0000196D00001000001097-012  GGSL
TXBWIC20110-50349-01098-70000032D0000264D00001000001098-012  GGSL
TXBWIC20110-50349-08886-30000180D0000321D00000000008886-012  GGSL
TXBWIC20110-50349-10011-80000044D0000042D00000000011001-012  GGSL
TXBWIC20110-50349-10110-50000100D0000144D00000000021022-012  GGSL
TXBWIC20110-50349-10141-80000040D0000057D00002000001014-012  GGSL
TXBWIC20110-50349-10161-60000432D0000682D00023000431016-012  GGSL
TXBWIC20110-50349-10231-60000224D0000448D00018000001023-012  GGSL
TXBWIC20110-50349-10291-00000028D0000074D00013000031029-012  GGSL
TXBWIC20110-50349-10331-30001040D0004001D00011000011033-012  GGSL
TXBWIC20110-50349-10361-00000080D0000268D00002000021036-012  GGSL
TXBWIC20110-50349-10381-80000160D0000777D00120002201038-012  GGSL
TXBWIC20110-50349-10541-00000176D0000917D00000000001071-017  GGSL
TXBWIC20110-50349-10591-10000440D0001622D00052000211059-012  GGSL
TXBWIC20110-50349-10691-80000140D0000516D00140000001069-012  GGSL
TXBWIC20110-50349-10781-60000066D0000287D00003000631078-012  GGSL
TXBWIC20110-50349-88811-10000020D0000116D00003000028881-012  GGSL
TXBWIC20110-50349-88821-00000140D0001076D00005000108882-011  GGSL
TXBWIC20110-50349-88851-70000440D0000273D00041001508885-014  GGSL
TXBWIC20110-50699-00014-00000006D0000028D0003000000300014    GGSL
TXBWIC20110-50699-00128-10000004D0000108D0003900000300128    GGSL
TXBWIC20110-50699-00212-00000048D0000393D0008700018300212    GGSL
TXBWIC20110-50699-00304-90000010D0000117D0000000000300304    GGSL
TXBWIC20110-51115-04860-90000005D0000007D00000000004704860   GGSL
TXBWIC20110-51115-04864-70000006D0000009D00000000004704864   GGSL
TXBWIC20110-51115-04865-40000006D0000009D00000000004704865   GGSL
TXBWIC20110-51115-04868-50000006D0000009D00000000004704868   GGSL
TXBWIC20110-51115-05253-80000036D0000054D00000000004705172   GGSL
TXBWIC20110-52427-00551-90000010D0000036D00000000004500102   GGSL
TXBWIC20110-52427-60012-70000096D0000290D000000000060121     GGSL
TXBWIC20110-52427-60035-60000024D0000147D00000000006035240   GGSL
TXBWIC20110-52732-00000-00000105D0004298D00000001142030.0    GGSL
TXBWIC20110-52732-10012-10000005D0000560D00120000081001-B    GGSL
TXBWIC20110-52732-10225-50000002D0000053D000190000060009.0   GGSL
TXBWIC20110-52732-20505-50000038D0002639D00106000002050SU    GGSL
TXBWIC20110-52732-20509-30000077D0008419D00141000022050P     GGSL
TXBWIC20110-52732-20519-20000007D0000808D00033000032050TP    GGSL
TXBWIC20110-52732-21500-90000003D0000570D00001000012150      GGSL
TXBWIC20110-52732-21700-30000006D0001287D00000000042170      GGSL
TXBWIC20110-52732-27500-30000361D0013964D00675000152750      GGSL
TXBWIC20110-52732-34000-80000003D0000063D00005000003400.0    GGSL
TXBWIC20110-52732-65000-80000002D0000254D00028000006500.0    GGSL
TXBWIC20110-52732-68019-70000006D0002040D0000000000F80S      GGSL
TXBWIC20110-53291-19881-90000075D0000676D0033600036820-1002  GGSL
TXBWIC20110-53291-30000-00000024D0000261D0000100000820-1024  GGSL
TXBWIC20110-53291-50052-00000004D0000119D0001600000850-0052  GGSL
TXBWIC20110-53291-55981-80000036D0000133D0018000000820-0188  GGSL
TXBWIC20110-53744-00120-80000132D0000638D0030500004120       GGSL
TXBWIC20110-53744-00141-30000102D0000473D0043400000141       GGSL
TXBWIC20110-56554-73105-10000008D0000088D0000000040RUA16000G1GGSL
TXBWIC20110-58115-00114-60000006D0000087D0000000008114       GGSL
TXBWIC20110-64277-01107-70000489D0007681D0262300159C-3       GGSL
TXBWIC20110-64277-01111-40000573D0011399D0333700319A-3       GGSL
TXBWIC20110-64277-03110-50003739D0038337D05079006781271.cfl00GGSL
TXBWIC20110-64277-20012-80000357D0001246D01545000201348001-20GGSL
TXBWIC20110-64277-40012-20000533D0003056D03200000001348001-40GGSL
TXBWIC20110-66498-01115-70000146D0002758D001640000401115.0   GGSL
TXBWIC20110-66498-02185-90000091D0001286D003260000102185     GGSL
TXBWIC20110-66498-02330-90000030D0000619D00000000006649802330GGSL
TXBWIC20110-66498-02515-40006912D0001597D000000000002515     GGSL
TXBWIC20110-66498-02775-20002950D0039730D022690053702775.0   GGSL
TXBWIC20110-66498-03175-90002450D0000725D000000000203175     GGSL
TXBWIC20110-66498-04175-80000211D0002076D007790018304175.0   GGSL
TXBWIC20110-66498-05113-90000443D0002668D007060007705175.0   GGSL
TXBWIC20110-66498-09776-20000091D0000826D000790000009776     GGSL
TXBWIC20110-66498-09795-30000001D0000011D000740008509795     GGSL
TXBWIC20110-66498-09901-80002163D0013038D021940020309901.0   GGSL
TXBWIC20110-66498-09902-50002711D0025482D036060029609902.0   GGSL
TXBWIC20110-66498-09903-20000476D0006787D004480002309903.0   GGSL
TXBWIC20110-66498-09925-40000150D0000552D005280001209925     GGSL
TXBWIC20110-66498-09929-20000012D0000065D003070000209929     GGSL
TXBWIC20110-66498-09937-70001428D0003833D013680078009937     GGSL
TXBWIC20110-66498-09939-10000043D0000384D000130025309939     GGSL
TXBWIC20110-66498-09947-60000228D0000605D012120057609947     GGSL
TXBWIC20110-66498-09965-00000318D0001953D009180039009965     GGSL
TXBWIC20110-66498-09977-30000228D0001244D008520024009977     GGSL
TXBWIC20110-66498-09985-80000108D0000406D011220018009985     GGSL
TXBWIC20110-66498-89827-70000672D0002678D010920081609827     GGSL
TXBWIC20110-66498-89905-20000756D0002907D004380012609905     GGSL
TXBWIC20110-66498-89955-70000624D0003038D008940040809955     GGSL
TXBWIC20110-70183-50005-50000008D0000203D00244000325000510   GGSL
TXBWIC20110-70183-50006-20000415C0000083C00144000005000610   GGSL
TXBWIC20110-70183-50023-90000012D0000313D00120000065002310   GGSL
TXBWIC20110-70183-50027-70000006D0000029D00252000065002715   GGSL
TXBWIC20110-70183-50029-10000004D0000053D00300000125007410   GGSL
TXBWIC20110-70183-50032-10000051D0000659D00320000565002610   GGSL
TXBWIC20110-70183-50034-50000264D0001052D02235000125003470   GGSL
TXBWIC20110-70183-50038-30000012D0000161D00268000005003810   GGSL
TXBWIC20110-70183-50042-00000004D0000343D00025000055004215   GGSL
TXBWIC20110-70183-50055-00000132D0001453D00672000005005510   GGSL
TXBWIC20110-70183-50060-40000072D0002403D00186000065006010   GGSL
TXBWIC20110-70183-51001-60000104D0001851D00768000045100114   GGSL
TXBWIC20110-70183-51006-10000108D0002330D00936000005100610   GGSL
TXBWIC20110-70183-51007-80000011D0000397D00138000065100710   GGSL
TXBWIC20110-70183-51009-20000008D0000120D00060000205004010   GGSL
TXBWIC20110-70183-51019-10000012D0000263D00160000005101910   GGSL
TXBWIC20110-70183-51090-00000079D0001301D00680000005109010   GGSL
TXBWIC20110-70183-52039-80000028D0000599D00144000005203910   GGSL
TXBWIC20110-70183-52350-40000004D0000099D00024000005235010   GGSL
TXBWIC20110-70183-57050-80000030D0000821D00156000005705010   GGSL
TXBWIC20110-70183-57250-20000044D0000925D00140000045725070   GGSL
TXBWIC20110-70251-00000-00000012D0000144D0012900000761160    GGSL
TXBWIC20110-70251-65240-20000061D0001269D0031000012652400    GGSL
TXBWIC20110-70251-81482-40000024D0000146D00135000008141082   GGSL
TXBWIC20110-70805-51051-60000048D0000287D002790000070805-008-GGSL
TXBWIC20110-70923-00000-00000078D0000408D0039600066600.0     GGSL
TXBWIC20110-70923-00196-50000264D0000529D0079200120T100-12   GGSL
TXBWIC20110-70923-00300-60000588D0002483D0068500262T300FD    GGSL
TXBWIC20110-70923-00402-70000006D0000019D0001200000T401-6    GGSL
TXBWIC20110-70923-00912-10000042D0000218D0006600000T901-6    GGSL
TXBWIC20110-70923-02301-10000006D0000019D0000000000T2302-6   GGSL
TXBWIC20110-70923-02600-50000024D0000213D0000000048T2600     GGSL
TXBWIC20110-70923-02900-60000076D0000374D0030000048T2900     GGSL
TXBWIC20110-70923-08515-60000144D0000233D0021600048T3206     GGSL
TXBWIC20110-70923-11915-80000001D0000209D0000000002T2502-DS  GGSL
TXBWIC20110-70923-12277-60000018D0000090D0005400048T1812     GGSL
TXBWIC20110-70923-29432-90000012D0000104D0001800024T514      GGSL
TXBWIC20110-70923-33443-80000005D0000023D0000000020T334      GGSL
TXBWIC20110-70923-72287-70000010D0000081D0000000000T2950     GGSL
TXBWIC20110-71092-32500-80000162D0000716D0064800024T2506     GGSL
TXBWIC20110-71121-05580-40000012D0000089D01116000125580      GGSL
TXBWIC20110-71121-53940-30000080D0000649D0013600000HG-53944  GGSL
TXBWIC20110-71121-96281-20000138D0000668D0094800000HG-96281  GGSL
TXBWIC20110-71409-54321-40000003D0000008D00000000007754321   GGSL
TXBWIC20110-71409-54364-10000065D0000331D00000000007754364   GGSL
TXBWIC20110-71409-54365-80000053D0000271D00000000007754365   GGSL
TXBWIC20110-71409-54423-50000002D0000005D00000000007754423   GGSL
TXBWIC20110-71459-04201-90000146D0002533D02421000110420110   GGSL
TXBWIC20110-71549-01128-40000032D0000106D00160000000112812   GGSL
TXBWIC20110-71549-01129-10000012D0000000D00112000080112912   GGSL
TXBWIC20110-71549-01656-20000012D0000080D00189002100165610   GGSL
TXBWIC20110-71549-01666-10000006D0000065D00000000000166610   GGSL
TXBWIC20110-71549-01674-60000008D0000067D00012000000167420   GGSL
TXBWIC20110-71549-01936-50000012D0000075D00126000000193610   GGSL
TXBWIC20110-71549-02000-20000006D0000098D00166000000200010   GGSL
TXBWIC20110-71549-02003-30000072D0001148D00108000040200310   GGSL
TXBWIC20110-71549-02014-90000048D0000284D00276000000201405   GGSL
TXBWIC20110-71549-02022-40000008D0000025D00136000000202212   GGSL
TXBWIC20110-71549-02028-60000008D0000028D00008000000202812   GGSL
TXBWIC20110-71549-02030-90000012D0000108D00018000000203012   GGSL
TXBWIC20110-71549-02054-50000016D0000107D00016000000205408   GGSL
TXBWIC20110-71549-02055-20000432D0000869D00474000060205506   GGSL
TXBWIC20110-71549-02545-80000001D0000031D00000000000254501   GGSL
TXBWIC20110-71549-02756-80000031D0000081D00144000080275612   GGSL
TXBWIC20110-71549-02822-00001608D0014903D01248000600282210   GGSL
TXBWIC20110-71549-03455-90000006D0000034D00012000000345510   GGSL
TXBWIC20110-71549-03456-60000012D0000047D00180001200345610   GGSL
TXBWIC20110-71549-04318-60000029D0000133D00522000009994318   GGSL
TXBWIC20110-71549-04385-80000078D0000365D00621007320438580   GGSL
TXBWIC20110-71549-04475-60000004D0000060D00032000000447505   GGSL
TXBWIC20110-71549-04477-00000024D0000108D00084000000447705   GGSL
TXBWIC20110-71549-04478-70000012D0000032D00084000000447805   GGSL
TXBWIC20110-71549-04481-70000008D0000076D00148000000448105   GGSL
TXBWIC20110-71549-04488-60000004D0000057D00052000000448805   GGSL
TXBWIC20110-71549-04491-60000012D0000106D00660000120449105   GGSL
TXBWIC20110-71549-04613-20000048D0000302D00228000360461412   GGSL
TXBWIC20110-71549-04758-00000001D0000027D00011000000475805   GGSL
TXBWIC20110-71549-04759-70000005D0000358D00016000000475905   GGSL
TXBWIC20110-71549-04910-20000018D0000065D00066000000491010   GGSL
TXBWIC20110-71549-07542-20000012D0000052D00000000000754210   GGSL
TXBWIC20110-71549-08410-30000167D0001477D00330002520841010   GGSL
TXBWIC20110-71549-41324- 0000012D0000162D00288000004613264   GGSL
TXBWIC20110-71549-43701-50000020D0000441D00336000000437010   GGSL
TXBWIC20110-71549-43887-60000012D0000046D00264000004388710   GGSL
TXBWIC20110-71549-46008-20000028D0000415D00168000004600810   GGSL
TXBWIC20110-71549-46134-80000006D0000031D00090000004613406   GGSL
TXBWIC20110-71549-46139-30000004D0000059D00008000004613905   GGSL
TXBWIC20110-71549-46503-20000018D0000276D00552000004650306   GGSL
TXBWIC20110-71549-46504-90000006D0000092D0000000000          GGSL
TXBWIC20110-71693-00000-00000500D0000260D000000000002-TB250  GGSL
TXBWIC20110-71693-02101-60006000D0003618D000000000002-P1000S GGSL
TXBWIC20110-71693-02102-30001000D0000520D000000000002-P1000F GGSL
TXBWIC20110-71693-02115-30000250D0000130D000000000002-HB250  GGSL
TXBWIC20110-71693-02250-10000250D0000130D000000000002-PW250  GGSL
TXBWIC20110-71693-04113-70001100D0000000D000000000004-LG1100VGGSL
TXBWIC20110-71693-04114-40005500D0000000D000000000004-LG1100VGGSL
TXBWIC20110-71693-04750-40000750D0000168D000000000004-LG750  GGSL
TXBWIC20110-71693-04754-20001500D0000336D000000000004-LG750VSGGSL
TXBWIC20110-71693-92209-20000001D0000400D000000000002-ORV500 GGSL
TXBWIC20110-71693-98601-80000450D0000234D000000000002-PHH450 GGSL
TXBWIC20110-71860-22470-70000006D0000029D00000000008722470   GGSL
TXBWIC20110-71860-22581-00000003D0000015D00000000008722581   GGSL
TXBWIC20110-71860-63400-10000012D0000084D00000000008763400   GGSL
TXBWIC20110-71860-96712-40000003D0000034D00000000009671112   GGSL
TXBWIC20110-71898-43163-40000550D0010965D00230000527800      GGSL
TXBWIC20110-71898-43180-10000542D0008363D00382000047450      GGSL
TXBWIC20110-71898-43213-60000638D0012408D00200000397324      GGSL
TXBWIC20110-71898-43214-30000219D0003703D00233000277326      GGSL
TXBWIC20110-72525-00003-00000138D0000468D0048600024HRT-6     GGSL
TXBWIC20110-72525-00005-40000117D0000568D0033600003HRP-16    GGSL
TXBWIC20110-72525-00009-20000012D0000086D0002400000HSG-6     GGSL
TXBWIC20110-72525-00022-10000064D0000489D0018900000HBB-32    GGSL
TXBWIC20110-72525-00033-70000012D0000083D0000000000HRS-32    GGSL
TXBWIC20110-72525-00048-10000039D0000157D0016200000HDE-8     GGSL
TXBWIC20110-72525-00055-90000060D0000413D0027000012EGG-16    GGSL
TXBWIC20110-72525-00078-80000030D0000096D0010500000BBTRP     GGSL
TXBWIC20110-72532-00014-80000760D0005718D0099600900          GGSL
TXBWIC20110-72532-00015-50000278D0006602D0048100449          GGSL
TXBWIC20110-72532-00016-20000104D0003990D0028000024          GGSL
TXBWIC20110-72532-00017-90000368D0038239D0020300008          GGSL
TXBWIC20110-72532-22310-30000040D0000293D0024000410stspray-10GGSL
TXBWIC20110-72693-00014-80000036D0000378D003660003382770001  GGSL
TXBWIC20110-72693-00015-50000050D0003450D005090000882100001  GGSL
TXBWIC20110-72693-00022-30009204D0089835D32037036044964      GGSL
TXBWIC20110-72693-00029-20000010D0003150D000520000082100002  GGSL
TXBWIC20110-72693-00046-90000052D0002350D01295000124985      GGSL
TXBWIC20110-72693-00114-50000168D0001067D0273600012MART4317  GGSL
TXBWIC20110-72693-00210-40000006D0000338D002220000082690021  GGSL
TXBWIC20110-72693-00480-10000136D0010618D032320017682002490  GGSL
TXBWIC20110-72693-00498-60000096D0003714D029520002482002489  GGSL
TXBWIC20110-72693-00505-10000246D0003526D051720009082002488  GGSL
TXBWIC20110-72693-00993-60000008D0000258D000110000282100099  GGSL
TXBWIC20110-72693-01004-80000024D0001155D001690000082100100  GGSL
TXBWIC20110-72693-01773-30000417D0002051D04785000364017B     GGSL
TXBWIC20110-72693-02504-20000076D0000869D00933001262504.0    GGSL
TXBWIC20110-72693-02506-60001337D0019946D07585000792506.0    GGSL
TXBWIC20110-72693-02507-30000146D0020702D00939000112507.0    GGSL
TXBWIC20110-72693-02686-50000040D0001247D0136400012CSI2686   GGSL
TXBWIC20110-72693-03143-20000060D0000581D001080000082300314  GGSL
TXBWIC20110-72693-03154-80000084D0000959D002700000682300315  GGSL
TXBWIC20110-72693-03164-70000012D0000114D000710000082300316  GGSL
TXBWIC20110-72693-03174-60000015D0000171D001170000082300317  GGSL
TXBWIC20110-72693-03188-30000005D0000212D001200000082300318  GGSL
TXBWIC20110-72693-03251-40000120D0001330D0000000000CSI3251   GGSL
TXBWIC20110-72693-03254-50000039D0002054D0046800000CSI3254   GGSL
TXBWIC20110-72693-03265-10000031D0000310D001700000082300326  GGSL
TXBWIC20110-72693-03270-50000002D0000100D000100000082300327  GGSL
TXBWIC20110-72693-03284-20000024D0000169D002280005482300328  GGSL
TXBWIC20110-72693-03298-90000025D0001825D003030000082300329  GGSL
TXBWIC20110-72693-03599-70000594D0056430D056750021682003599  GGSL
TXBWIC20110-72693-04320-60000434D0014612D05643000984320      GGSL
TXBWIC20110-72693-04435-70001199D0045468D042250017482004435  GGSL
TXBWIC20110-72693-04438-80002198D0033945D05935001394438      GGSL
TXBWIC20110-72693-04500-20000028D0001680D000640000182304500  GGSL
TXBWIC20110-72693-04504-00000303D0007575D02676001024505.0    GGSL
TXBWIC20110-72693-04505-70000244D0016920D01571001364506.0    GGSL
TXBWIC20110-72693-04506-40000149D0002280D02987001344504      GGSL
TXBWIC20110-72693-04668-90000388D0003755D024120000030466.0   GGSL
TXBWIC20110-72693-04697-90000194D0028724D01858000064697.0    GGSL
TXBWIC20110-72693-05007-50000381D0010087D01665000165007.0    GGSL
TXBWIC20110-72693-08300-40000619D0025217D03213000928300.0    GGSL
TXBWIC20110-72693-10002-20000006D0000078D000310000010002.0   GGSL
TXBWIC20110-72693-10374-00000408D0002233D002680008482021037  GGSL
TXBWIC20110-72693-14057-80000066D0004340D010580015583014005  GGSL
TXBWIC20110-72693-14081-30000020D0000982D000120003283014008  GGSL
TXBWIC20110-72693-17668-30000108D0001693D010030000031766     GGSL
TXBWIC20110-72693-19733-60000030D0000717D007820001231973.0   GGSL
TXBWIC20110-72693-19845-60000393D0003760D026790084031984.0   GGSL
TXBWIC20110-72693-19855-50000141D0001529D000030001231985     GGSL
TXBWIC20110-72693-20038-80000018D0004784D000040000083080147  GGSL
TXBWIC20110-72693-24010-00000018D0000574D00324000002401      GGSL
TXBWIC20110-72693-24030-80000147D0011402D01165000042403      GGSL
TXBWIC20110-72693-24033-90000006D0000268D000060000683014004  GGSL
TXBWIC20110-72693-24957-80000039D0000218D006180000082002495  GGSL
TXBWIC20110-72693-29101-00000018D0000990D006100007983012910  GGSL
TXBWIC20110-72693-30068-20000004D0000528D000000002283013006  GGSL
TXBWIC20110-72693-31550-10000004D0000660D001010000082300332  GGSL
TXBWIC20110-72693-31975-20004145C0000660C004290000231975.0   GGSL
TXBWIC20110-72693-33655-10000004D0000140D000000002883013365  GGSL
TXBWIC20110-72693-33688-90000082D0005570D005060001283013368  GGSL
TXBWIC20110-72693-33850-00000120D0012452D006190004183013385  GGSL
TXBWIC20110-72693-36208-60000001D0000038D005670001983013620  GGSL
TXBWIC20110-72693-37208-50000016D0001848D000000000083013720  GGSL
TXBWIC20110-72693-40010-80000008D0001244D001410000083014003  GGSL
TXBWIC20110-72693-40076-40000002D0000223D000000000083014007  GGSL
TXBWIC20110-72693-40127-30000240D0010991D002920000183014012  GGSL
TXBWIC20110-72693-41440-20000013D0002809D004780000883014144  GGSL
TXBWIC20110-72693-41888-20000006D0000728D000960000083014188  GGSL
TXBWIC20110-72693-44292-40000407D0004502D01733004744429      GGSL
TXBWIC20110-72693-44304-40000795D0012764D06447007234430.0    GGSL
TXBWIC20110-72693-44315-00000542D0011949D04751003274431.0    GGSL
TXBWIC20110-72693-44327-30001214D0036648D09287001684432      GGSL
TXBWIC20110-72693-44410-20000617D0019249D05467003124441.0    GGSL
TXBWIC20110-72693-44430-00000227D0023127D0166500018MART4443  GGSL
TXBWIC20110-72693-44655-70000012D0000231D00591000004465.0    GGSL
TXBWIC20110-72693-44668-70000012D0000645D00152000004466.0    GGSL
TXBWIC20110-72693-45003-50000240D0001438D02541001204500.0    GGSL
TXBWIC20110-72693-45014-10000132D0000664D01844001084501      GGSL
TXBWIC20110-72693-45025-70000467D0005633D03276000484502      GGSL
TXBWIC20110-72693-45030-10000044D0002155D00255000004503.0    GGSL
TXBWIC20110-72693-45105-60000024D0000140D00168000124510      GGSL
TXBWIC20110-72693-45530-60000004D0000124D00066000004553.0    GGSL
TXBWIC20110-72693-46930-30000764D0005974D02664000524693      GGSL
TXBWIC20110-72693-46950-10000206D0005243D00732000164695      GGSL
TXBWIC20110-72693-50041-90000792D0003845D03984003005004      GGSL
TXBWIC20110-72693-50052-50000630D0007545D03840002045005      GGSL
TXBWIC20110-72693-50064-80000456D0003398D057360069682005006  GGSL
TXBWIC20110-72693-52010-30000876D0004322D04188002045201      GGSL
TXBWIC20110-72693-52022-60000384D0004793D02784001085202      GGSL
TXBWIC20110-72693-60025-60000336D0003400D0490800030MART4318  GGSL
TXBWIC20110-72693-60038-60000128D0002896D0301900024MART4319  GGSL
TXBWIC20110-72693-70004-80000036D0000360D005160000082770008  GGSL
TXBWIC20110-72693-77034-80000062D0000652D009150000082770003  GGSL
TXBWIC20110-72693-82104-00000245D0006768D037070043682100005  GGSL
TXBWIC20110-72693-82303-70000144D0000767D019680000082300001  GGSL
TXBWIC20110-72711-60018-30000072D0000252D000550000160012     GGSL
TXBWIC20110-72725-00023-80000064D0000883D0023600000HBB-128   GGSL
TXBWIC20110-72725-00093-10000012D0000082D0001100000FS-14     GGSL
TXBWIC20110-72725-00158-70000016D0000660D0007600000BLKBB-128 GGSL
TXBWIC20110-72725-00183-90000015D0000211D0010800000BLKBB-326 GGSL
TXBWIC20110-72725-00215-40000008D0000214D0002800000BBKIT-LGVPGGSL
TXBWIC20110-72725-00259-10000036D0000150D0000000384CR32      GGSL
TXBWIC20110-72725-00269-00000036D0000398D0019800468DE-FG105P GGSL
TXBWIC20110-72725-00407-60000168D0001109D0018000000DE-FG2P   GGSL
TXBWIC20110-72725-00408-30000032D0000283D0011200344DE-FG4P   GGSL
TXBWIC20110-72725-00432-80000032D0000228D0000000008ST-LIVE   GGSL
TXBWIC20110-72725-00443-40000001D0000231D0000000001FGDEASST-3GGSL
TXBWIC20110-72725-00462-50000006D0000102D0000600000goldbb-32 GGSL
TXBWIC20110-72868-00000-00000624D0000439D0288000768M330      GGSL
TXBWIC20110-72868-00201-40000048D0000067D0000000144M201      GGSL
TXBWIC20110-72868-00300-40000768D0002251D0084000048M6006     GGSL
TXBWIC20110-72868-00326-40009084D0012429D2241501416M326      GGSL
TXBWIC20110-72868-00800-90000216D0002350D0191400240M6009     GGSL
TXBWIC20110-72868-00914-30000006D0000018D0000000000M914      GGSL
TXBWIC20110-72868-00930-30000008D0000077D0000000000M930      GGSL
TXBWIC20110-72868-02000-10000024D0000376D0000000000M9015     GGSL
TXBWIC20110-72868-02300-20000006D0000041D0006600006M7001-1   GGSL
TXBWIC20110-72868-02400-90000088D0001110D0017600000M7002-2   GGSL
TXBWIC20110-72868-03620-00000007D0000546D0002400001VP362     GGSL
TXBWIC20110-72868-03630-90000032D0000222D0136200030VP363     GGSL
TXBWIC20110-72868-03648-40000507D0004886D0190900243VP364B    GGSL
TXBWIC20110-72868-09320-30013752D0002495D1778400072M320      GGSL
TXBWIC20110-72868-11751-00000090D0000503D0040800066M751K     GGSL
TXBWIC20110-72868-12279-80000006D0000019D0000000000M142S     GGSL
TXBWIC20110-72868-13035-90000720D0000589D0382800048M035      GGSL
TXBWIC20110-72868-13150-90000036D0000027D0000000108M150      GGSL
TXBWIC20110-72868-13200-10001188D0001635D0223200888200R      GGSL
TXBWIC20110-72868-13308-40000192D0001803D0034800196M308      GGSL
TXBWIC20110-72868-13309-10017928D0003155D7365603816M309      GGSL
TXBWIC20110-72868-13325-10006192D0002344D0597600000M325      GGSL
TXBWIC20110-72868-13327-50001200D0000168D0270001650M327      GGSL
TXBWIC20110-72868-24178-90000004D0000186D0009700000M241      GGSL
TXBWIC20110-72868-54002-80000888D0001367D0165600252M668      GGSL
TXBWIC20110-72868-54102-50000840D0001426D0002400324M669      GGSL
TXBWIC20110-73035-01212-60000012D0000070D000000013201212     GGSL
TXBWIC20110-73035-01310-90000012D0000044D000120081601310     GGSL
TXBWIC20110-73035-02610-90000160D0000064D000000000002610     GGSL
TXBWIC20110-73035-02611-60000320D0000122D001600000002611     GGSL
TXBWIC20110-73035-02612-30000800D0000319D003200000002612     GGSL
TXBWIC20110-73035-06127-80000016D0000062D000000099206127     GGSL
TXBWIC20110-73035-06703-40000108D0000274D000120088806703     GGSL
TXBWIC20110-73035-09026-10000006D0000037D000240000009026     GGSL
TXBWIC20110-73035-09326-20000012D0000082D000660000009326     GGSL
TXBWIC20110-73035-09327-90000012D0000099D002580000009327     GGSL
TXBWIC20110-73035-09827-40000006D0000006D000000000009827     GGSL
TXBWIC20110-73035-25001-60000198D0000253D000000011105031T    GGSL
TXBWIC20110-73091-02461-30000001D0000010D00000000008502461   GGSL
TXBWIC20110-73091-17500-10000040D0000277D00000000008517500   GGSL
TXBWIC20110-73091-17603-90000039D0000261D00000000008517603   GGSL
TXBWIC20110-73091-17703-60000022D0000265D00000000008517703   GGSL
TXBWIC20110-73222-11047-20000012D0000154D000000001611047     GGSL
TXBWIC20110-73561-00022-20000102D0000438D01032003482000221   GGSL
TXBWIC20110-73561-00028-40000486D0003453D01050001321000283   GGSL
TXBWIC20110-73561-00042-00000864D0003728D11358004082000422   GGSL
TXBWIC20110-73561-00044-40000156D0001098D00264000241000441   GGSL
TXBWIC20110-73561-00055-00000090D0000249D00024000121000551   GGSL
TXBWIC20110-73561-00070-30000012D0000059D00366000181000701   GGSL
TXBWIC20110-73561-00099-40000456D0000973D03378000602000992   GGSL
TXBWIC20110-73561-00119-90000012D0000262D00180000001001193   GGSL
TXBWIC20110-73561-00150-20000006D0000024D00402000663001502   GGSL
TXBWIC20110-73561-00183-00000012D0000151D00018000001001834   GGSL
TXBWIC20110-73561-00190-80000078D0000239D0006000000100195    GGSL
TXBWIC20110-73561-00192-20000036D0000183D01266000541001921   GGSL
TXBWIC20110-73561-00199-10000144D0000436D00708003601001991   GGSL
TXBWIC20110-73561-00252-30000408D0000417D01152012001002522   GGSL
TXBWIC20110-73561-00410-70000090D0000832D00642002461004102   GGSL
TXBWIC20110-73561-00432-90000096D0001033D00108000301004325   GGSL
TXBWIC20110-73561-00440-40000012D0000084D00066000001004402   GGSL
TXBWIC20110-73561-00475-60000015C0000084C00024000001004751   GGSL
TXBWIC20110-73561-00720-70000042D0000136D0012600108100720    GGSL
TXBWIC20110-73561-00831-00000020D0000104D00010000001008311   GGSL
TXBWIC20110-73561-01560-80000006D0000019D0002400030101560    GGSL
TXBWIC20110-73561-01611-70000048D0000557D00078000061016111   GGSL
TXBWIC20110-73561-01660-50001608D0004068D0000000000101660    GGSL
TXBWIC20110-73561-03836-20000018D0000258D00066000001038361   GGSL
TXBWIC20110-73561-10114-10000016D0000185D00194000021011410   GGSL
TXBWIC20110-73561-16001-80000684D0002252D1180801116160101    GGSL
TXBWIC20110-73561-30053-70000012D0000076D00006000063005310   GGSL
TXBWIC20110-73561-36001-20000108D0001145D02688005041360011   GGSL
TXBWIC20110-73561-46001-90000036D0000327D0013800060146002    GGSL
TXBWIC20110-73561-48510-40000084D0000558D00432000604851012   GGSL
TXBWIC20110-73561-48520-30000036D0000223D00237000364852012   GGSL
TXBWIC20110-73561-70101-30000072D0000726D0381600378170101    GGSL
TXBWIC20110-73561-75001-10000072D0000260D00354000241750011   GGSL
TXBWIC20110-73561-85001-80000024D0000265D00318000001850011   GGSL
TXBWIC20110-73889-10004-80000168D0000825D00716005281273      GGSL
TXBWIC20110-74514-57625-20000111D0000300D0031800000HG-95715  GGSL
TXBWIC20110-75424-50631-00000001D0000006D00000000003606310   GGSL
TXBWIC20110-76110-70018-50000042D0000088D00000000001504420   GGSL
TXBWIC20110-76807-00045-10000024D0000136D002400000046220     GGSL
TXBWIC20110-76807-00050-50000072D0000117D022560028846100     GGSL
TXBWIC20110-76807-12281-80000144D0000087D025200004846310     GGSL
TXBWIC20110-76807-61110-70000060D0000264D001730000061110     GGSL
TXBWIC20110-76807-63338-30000012D0000098D0031200012571       GGSL
TXBWIC20110-76817-21015-00000143D0002248D001630003768172     GGSL
TXBWIC20110-77625-71031-70000004D0000198D00002000047103-2    GGSL
TXBWIC20110-77625-81082-60000020D0000247D00172000008108-2    GGSL
TXBWIC20110-77625-81092-50000014D0000176D00240000188109-2    GGSL
TXBWIC20110-77784-05460-40000009D0000180D00000000005460      GGSL
TXBWIC20110-77855-88819-00000048D0000240D00106000008819      GGSL
TXBWIC20110-78159-00000-00004189D0028072D0793500365FGB57366  GGSL
TXBWIC20110-78159-00050-90000410D0002753D06580004179587      GGSL
TXBWIC20110-78159-33369-00000082D0001627D003650004049960     GGSL
TXBWIC20110-78159-33372-00000080D0001345D000670000050011     GGSL
TXBWIC20110-78159-33375-10000001D0000017D002830000032600     GGSL
TXBWIC20110-78159-33388-10000040D0000730D008410000050017     GGSL
TXBWIC20110-78159-33395-90000001D0000023D0080200000FGB51182  GGSL
TXBWIC20110-78159-33427-70000026D0000350D0238600176FGB53014  GGSL
TXBWIC20110-78159-33505-20000040D0000551D0080800040FGB47554  GGSL
TXBWIC20110-78159-33579-30001152D0013928D0478700276FGB46687  GGSL
TXBWIC20110-78627-01912-50000025D0000350D0094000020CSNFA12050GGSL
TXBWIC20110-78627-38474-40000056C0000350C0000000000CELCF34100GGSL
TXBWIC20110-78627-58822-50000030D0000610D0027000005CSNCG58050GGSL
TXBWIC20110-78627-58823-20000027D0000790D0010500000CSNCG58075GGSL
TXBWIC20110-78627-58824-90000012D0000530D0010200006CSNCG58100GGSL
TXBWIC20110-78627-58832-40000092D0001384D0280500210SNFR58050 GGSL
TXBWIC20110-78627-58834-80000093D0002306D0133800171SNFR58100 GGSL
TXBWIC20110-78627-67582-60000050D0001011D0230000345CSNFXP5805GGSL
TXBWIC20110-78627-67583-30000003D0000093D0003000000CSNFXP5807GGSL
TXBWIC20110-78627-67584-00000018D0000798D0090600054CSNFXP5810GGSL
TXBWIC20110-78631-73138-90000001D0000045D00000000006208604   GGSL
TXBWIC20110-78631-73139-60000007D0000072D00000000006208619   GGSL
TXBWIC20110-78978-00090-20000006D0000029D000000000690        GGSL
TXBWIC20110-78978-00391-00000012D0000117D0000000012391       GGSL
TXBWIC20110-78978-00570-90000012D0000205D0000000002570       GGSL
TXBWIC20110-78978-01679-80000028D0000351D0000000076786       GGSL
TXBWIC20110-78978-01774-00000042D0000279D0012700008HUMBAR200-GGSL
TXBWIC20110-78978-02400-70000012D0000023D004560001268        GGSL
TXBWIC20110-78978-05046-40000008D0000197D0000000008334       GGSL
TXBWIC20110-78978-06700-40000024D0000030D000240000067        GGSL
TXBWIC20110-78978-10150-00000008D0000100D00002000328120-2    GGSL
TXBWIC20110-78978-10155-50000002D0000027D0000000001363       GGSL
TXBWIC20110-78978-10156-20000022D0000341D0000000014365       GGSL
TXBWIC20110-78978-10158-60000024D0000302D00100000028117-2    GGSL
TXBWIC20110-78978-10159-30000026D0000324D00000000248119-2    GGSL
TXBWIC20110-78978-10514-00000018D0000249D00000000188504-2    GGSL
TXBWIC20110-78978-10878-30000002D0000028D0000000010WFH001    GGSL
TXBWIC20110-78978-11871-30000018D0000282D00000000189105-2    GGSL
TXBWIC20110-78978-12915-30000010D0000125D00004000388129-2    GGSL
TXBWIC20110-78978-13500-00000004D0000036D0000000040135TF     GGSL
TXBWIC20110-78978-20303-70000002D0000016D0000000036203CPBR   GGSL
TXBWIC20110-78978-21086-80000012D0000106D0000000048409       GGSL
TXBWIC20110-78978-21087-50000096D0000716D0217500294203CPBN   GGSL
TXBWIC20110-78978-21089-90000042D0000533D0043100012209B      GGSL
TXBWIC20110-78978-21090-50000024D0000232D0020800000210PB     GGSL
TXBWIC20110-78978-21091-20000016D0000209D0000000012710B      GGSL
TXBWIC20110-78978-21720-10000006D0000047D0006000000217       GGSL
TXBWIC20110-78978-23153-50000072D0000042D0051600000231-12    GGSL
TXBWIC20110-78978-23900-50000048D0000211D0100500000239       GGSL
TXBWIC20110-78978-27300-90000006D0000018D0027000000273       GGSL
TXBWIC20110-78978-29184-30000004D0000077D0000000000325S      GGSL
TXBWIC20110-78978-31000-10000024D0000093D0000000002310       GGSL
TXBWIC20110-78978-31335-40000008D0000143D00000000309106-2    GGSL
TXBWIC20110-78978-32610-10000126D0000405D00030010683261      GGSL
TXBWIC20110-78978-33600-10000032D0000594D0003500076336       GGSL
TXBWIC20110-78978-33900-20000008D0000184D0000000000339       GGSL
TXBWIC20110-78978-36600-80000010D0000197D0000000010366       GGSL
TXBWIC20110-78978-38118-60000022D0000286D0000000040312C      GGSL
TXBWIC20110-78978-44471-30000002D0000031D00000000089103-2    GGSL
TXBWIC20110-78978-51508-60000014D0000175D0000200052784       GGSL
TXBWIC20110-78978-54037-80000008D0000108D0000000006TSS00349  GGSL
TXBWIC20110-78978-54041-50000002D0000066D0000000000BAMTRIO   GGSL
TXBWIC20110-78978-54044-60000004D0000076D0000000000BAMLFT    GGSL
TXBWIC20110-78978-54699-80000002D0000035D0001000000MCF001    GGSL
TXBWIC20110-78978-55000-10000010D0000150D0000000008370       GGSL
TXBWIC20110-78978-55002-50000036D0000046D0254400036240SF     GGSL
TXBWIC20110-78978-55005-60000048D0000062D0036000036243SF     GGSL
TXBWIC20110-78978-55478-80000006D0000087D00002000309101-2    GGSL
TXBWIC20110-78978-60201-40000008D0000155D00002001349110-2    GGSL
TXBWIC20110-78978-60202-10000020D0000397D00006000409111-2    GGSL
TXBWIC20110-78978-64128-00000004D0000023D0000000010465-2     GGSL
TXBWIC20110-78978-64622-30000010D0000156D00000000209104-2    GGSL
TXBWIC20110-78978-64732-90000010D0000179D00000000089107-2    GGSL
TXBWIC20110-78978-64865-40000014D0000232D0000000008363R      GGSL
TXBWIC20110-78978-64866-10000010D0000166D0000000004363B      GGSL
TXBWIC20110-78978-69452-10000056D0000873D00000000629102-2    GGSL
TXBWIC20110-78978-71315-40000016D0000200D00002000288138-2    GGSL
TXBWIC20110-78978-72760-10000008D0000234D0000000000SGB007    GGSL
TXBWIC20110-78978-78500-70000006D0000075D0024600012785       GGSL
TXBWIC20110-78978-79683-60000004D0000061D0000000000CNCD00351-GGSL
TXBWIC20110-78978-81073-00000010D0000123D00002000168107-2    GGSL
TXBWIC20110-78978-81101-00000010D0000179D00000000218110H-1   GGSL
TXBWIC20110-78978-81162-10000026D0000324D00000000368116-2    GGSL
TXBWIC20110-78978-81182-90000004D0000050D00000000128118-2    GGSL
TXBWIC20110-78978-81302-10000010D0000125D000020006081302     GGSL
TXBWIC20110-78978-81312-00000020D0000250D00002000708131-2    GGSL
TXBWIC20110-78978-81332-80000020D0000249D00000000348133-2    GGSL
TXBWIC20110-78978-91515-20000018D0000225D000020002681392     GGSL
TXBWIC20110-78978-92811-40000012D0000075D0000000118HF950     GGSL
TXBWIC20110-78978-92818-30000014D0000215D0006200004HF940     GGSL
TXBWIC20110-78978-96327-60000042D0000251D0032100120238       GGSL
TXBWIC20110-78978-96330-60000012D0000096D0000000054255CL     GGSL
TXBWIC20110-78978-96663-50000002D0000034D00000000049108-2    GGSL
TXBWIC20110-81818-00010-90002498D0008754D022610017052050045  GGSL
TXBWIC20110-84369-00001-70000042D0000390D0016200024PDF1RED   GGSL
TXBWIC20110-84369-00003-10000041D0000258D0025200012HP3       GGSL
TXBWIC20110-84369-00015-40000006D0000116D0002700003HP15      GGSL
TXBWIC20110-84369-00017-80000039D0000611D0003600003PDFERED   GGSL
TXBWIC20110-84369-00068-00000009D0000051D0012200003HP8       GGSL
TXBWIC20110-84369-00071-00000011D0000132D0005000003PSB70RED  GGSL
TXBWIC20110-84369-00073-40000008D0000097D0004700002PSB70BLUE GGSL
TXBWIC20110-84369-00088-80000002D0000057D000080000888SW      GGSL
TXBWIC20110-84369-00090-10000213D0000571D001920000090        GGSL
TXBWIC20110-84369-00109-00000005D0000029D0000000000WB60      GGSL
TXBWIC20110-84369-00112-00000017D0000332D0018600032CH12      GGSL
TXBWIC20110-84369-00113-70000002D0000021D0013900000HF12BLUE  GGSL
TXBWIC20110-84369-00115-10000006D0000062D0031700006HF12RED   GGSL
TXBWIC20110-84369-00125-00000093D0002166D0026600050CH25      GGSL
TXBWIC20110-84369-00150-20000020D0000719D0015300019CH50      GGSL
TXBWIC20110-84369-00188-50000001D0000035D000040000088ESW     GGSL
TXBWIC20110-84369-00310-00000009D0000187D0004700000PW13      GGSL
TXBWIC20110-84369-00324-70000012D0000027D0000000000PS32BLUE  GGSL
TXBWIC20110-84369-00666-80000108D0000165D0002400012666       GGSL
TXBWIC20110-84369-00680-40000060D0000100D0025200000680       GGSL
TXBWIC20110-84369-00690-30001980D0001818D0140400108690       GGSL
TXBWIC20110-84369-00730-60000024D0000021D0041900012730       GGSL
TXBWIC20110-84369-00740-50000864D0000738D0115200036740       GGSL
TXBWIC20110-84369-00780-10000024D0000044D0032400000780       GGSL
TXBWIC20110-84369-00785-60000030D0000107D0038600072P8FBBLACK GGSL
TXBWIC20110-84369-00786-30000019D0000056D0009900000P8FBBLUE  GGSL
