NJARET2107 -04797-70080-50000004D0000092D0000100000NA32431   GGSL
NJARET21070-10052-00333-10000036D0000156D000000000000333     GGSL
NJARET21070-10367-00460-30000016D0000077D000100000004608     GGSL
NJARET21070-10367-00470-20000012D0000147D00009000010470      GGSL
NJARET21070-10367-01110-60000072D0000248D00081000031110      GGSL
NJARET21070-10367-01111-30000024D0000084D00046000031111      GGSL
NJARET21070-10367-01112-00000032D0000114D00090000021112      GGSL
NJARET21070-10367-01120-50000168D0000517D00079000041120      GGSL
NJARET21070-10367-01130-40000136D0000760D00038000101130      GGSL
NJARET21070-10367-01160-10000032D0000250D00034000011160      GGSL
NJARET21070-10367-01161-80000048D0000375D00002000011161      GGSL
NJARET21070-10367-01162-50000008D0000063D00000000001162      GGSL
NJARET21070-10367-02131-00000008D0000038D0000000000ML2131    GGSL
NJARET21070-10367-02151-80000008D0000060D0002000000ML2151    GGSL
NJARET21070-10367-02181-50000008D0000055D0000100000ML2181    GGSL
NJARET21070-10367-03010-70000016D0000094D0001100000ML3010    GGSL
NJARET21070-11423-00338-70000048D0000262D000020000033801     GGSL
NJARET21070-11423-94239-60000096D0000539D0000100001HG64138   GGSL
NJARET21070-12587-60034-40000024D0000183D000830000060034     GGSL
NJARET21070-12587-60035-10000024D0000183D001390000060035     GGSL
NJARET21070-12587-70111-90000018D0000049D001140000070111     GGSL
NJARET21070-12587-70403-50000024D0000116D000870000070403     GGSL
NJARET21070-12587-78362-70000012D0000093D000520000078362     GGSL
NJARET21070-14306-92844-90000005D0000094D0000000000US295700  GGSL
NJARET21070-14400-10747-40000020D0000036D00000000001440010747GGSL
NJARET21070-14400-40000-10000132D0000921D000000000040000ZFP  GGSL
NJARET21070-14400-61000-40000080D0000870D000420002661000     GGSL
NJARET21070-14400-69056-30000016D0000099D00051000511440069056GGSL
NJARET21070-14400-71400-90000060D0000172D00001000001440071400GGSL
NJARET21070-14400-81200-20000027D0000309D00121001211440081200GGSL
NJARET21070-14400-81400-60000079D0001023D00021000001440081400GGSL
NJARET21070-15561-20813-00000006D0000034D0009600012PT813EA   GGSL
NJARET21070-15561-28301-40000001D0000074D0000000000PT8301    GGSL
NJARET21070-16069-00005-90000048D0000345D0003000000TP15C     GGSL
NJARET21070-16069-00007-30000276D0001838D0000100000BN1       GGSL
NJARET21070-16069-00008-00000756D0005035D0000100001BN2       GGSL
NJARET21070-16069-00013-40000060D0001743D0002800001BN3       GGSL
NJARET21070-16069-00014-10000090D0001966D0003000000BN4       GGSL
NJARET21070-16069-00015-80000030D0000775D0002100000BN5       GGSL
NJARET21070-16069-00030-10000012D0000158D0000100000OW6       GGSL
NJARET21070-16069-00032-50000036D0000394D0009800000HG25      GGSL
NJARET21070-16069-00033-20000012D0000259D0003000000HG50      GGSL
NJARET21070-16069-00038-70000012D0000089D0000400000GF1015    GGSL
NJARET21070-16069-00047-90000024D0000173D0001500000TE12C     GGSL
NJARET21070-16069-00049-30000144D0002728D0010400040DX7       GGSL
NJARET21070-16069-00050-90000084D0002298D0003400001DX14      GGSL
NJARET21070-16069-00072-10000012D0000080D0000800000TSD12     GGSL
NJARET21070-16069-00077-60000048D0000533D0000000000PN14      GGSL
NJARET21070-16069-00079-00000006D0000202D0002000001PN28      GGSL
NJARET21070-16069-00218-30000120D0000698D0002400001HST100    GGSL
NJARET21070-16069-00365-40000252D0002742D0001800000PIN9      GGSL
NJARET21070-16069-00393-70000168D0000567D0003800000GS20      GGSL
NJARET21070-16069-00401-90000028D0000280D0001500001GF4050    GGSL
NJARET21070-16069-00474-30000072D0000476D0000400000GS40BW    GGSL
NJARET21070-16069-00478-10000008D0000356D0001600000SRHO4     GGSL
NJARET21070-16069-00479-80000648D0012115D0001100011E316B     GGSL
NJARET21070-16069-00498-90000036D0000397D0021500000HGP1012   GGSL
NJARET21070-16069-00499-60000008D0000144D0016900000HGP1020   GGSL
NJARET21070-16069-00518-40000060D0000304D0001900000SG2512    GGSL
NJARET21070-16069-00519-10000012D0000086D0000100000SPB56     GGSL
NJARET21070-16069-00667-90000544D0011596D0032600075RH04US    GGSL
NJARET21070-17500-08120-00000192D0000269D001960000008120     GGSL
NJARET21070-17500-08150-70001788D0002843D003500000208150     GGSL
NJARET21070-17500-08150-70000312D0000471D002760002708150M    GGSL
NJARET21070-17500-90206-20000012D0000214D000110000190206     GGSL
NJARET21070-17500-91316-70000066D0001337D000280000191316     GGSL
NJARET21070-17500-95404-70000004D0000131D000000000095404     GGSL
NJARET21070-18062-00019-70000024D0000113D0000300002PT06MCCS  GGSL
NJARET21070-18222-00101-90000036D0000094D0011400021CS06101   GGSL
NJARET21070-18222-00103-30000048D0000147D0004100002CS06103   GGSL
NJARET21070-18222-00105-70000234D0000670D0013100009CS06105   GGSL
NJARET21070-18222-00107-10000048D0000189D0012300005CS06107   GGSL
NJARET21070-18222-00109-50000084D0000232D0012200014CS06109   GGSL
NJARET21070-18222-00110-10000048D0000137D0004700005CS06110   GGSL
NJARET21070-18222-00206-10000036D0000171D0001700005CS06206   GGSL
NJARET21070-18222-00208-50000012D0000057D0001800003CS06208   GGSL
NJARET21070-18222-00213-90000096D0000392D0000200002CS06213   GGSL
NJARET21070-18222-00405-80000002D0000025D0000800000CS01405   GGSL
NJARET21070-18222-00501-70000588D0000776D0016500030CS12501   GGSL
NJARET21070-18222-00503-10000264D0000543D0000900006CS503     GGSL
NJARET21070-18222-00505-50000276D0000303D0012300012CS12505   GGSL
NJARET21070-18222-00507-90000180D0000242D0011700006CS12507   GGSL
NJARET21070-18222-00509-30000276D0000462D0016400003CS12509   GGSL
NJARET21070-18222-00513-00000096D0000198D0002200002CS12513   GGSL
NJARET21070-18222-00526-00000264D0000766D0008500008CS06526   GGSL
NJARET21070-18222-00527-70000360D0000471D0008300006CS12527   GGSL
NJARET21070-18222-00529-10000108D0000190D0007800002CS12529   GGSL
NJARET21070-18222-00531-40000168D0000378D0014000004CS12531   GGSL
NJARET21070-18222-00535-20000072D0000095D0006900002CS12535   GGSL
NJARET21070-18222-00543-70000084D0000115D0007700004CS12543   GGSL
NJARET21070-18222-00545-10000060D0000106D0004100001CS12545   GGSL
NJARET21070-18222-00553-60004452D0007558D0007300014CS12553   GGSL
NJARET21070-18222-00559-80000180D0000238D0009200006CS12559   GGSL
NJARET21070-18222-00561-10000084D0000111D0004600005CS12561   GGSL
NJARET21070-18222-00563-50000192D0000325D0002600004CS12563   GGSL
NJARET21070-18222-00565-90000072D0000126D0001800001CS12565   GGSL
NJARET21070-18222-00569-70000372D0000639D0014300010CS12569   GGSL
NJARET21070-18222-00571-00000060D0000126D0005900006CS12571   GGSL
NJARET21070-18222-00583-30000204D0000432D0008600008CS12583   GGSL
NJARET21070-18222-00608-30000060D0000194D0002600002CS608     GGSL
NJARET21070-18222-00701-10000040D0000069D0005800023CS701     GGSL
NJARET21070-18222-00707-30000216D0000624D0000100002CS707     GGSL
NJARET21070-18222-00709-70000012D0000058D0000000000CS709     GGSL
NJARET21070-18222-00727-10000024D0000163D0000300000CS727     GGSL
NJARET21070-18222-00730-10000072D0000142D0018800016CS730     GGSL
NJARET21070-18222-00749-30000018D0000100D0000300003CS749     GGSL
NJARET21070-18222-00750-90000004D0000038D0000000000CS750     GGSL
NJARET21070-18222-00753-00000040D0000194D0000900001CS753     GGSL
NJARET21070-18222-00950-30000024D0000025D0003900001CS950     GGSL
NJARET21070-18222-50501-20001044D0001147D0010600000CS1250501XGGSL
NJARET21070-18222-50527-20001032D0001133D0010600000CS1250527XGGSL
NJARET21070-18222-50559-30001092D0001199D0009400000CS1250559XGGSL
NJARET21070-18506-00010-30000006D0000049D00001000000106      GGSL
NJARET21070-18506-00102-50000084D0000366D000450000110212     GGSL
NJARET21070-18506-00110-00000300D0001930D001020000011012     GGSL
NJARET21070-18506-00116-20000252D0001761D000310000611612     GGSL
NJARET21070-18506-00117-90000090D0000966D00021000001176      GGSL
NJARET21070-18506-00120-90000008D0000158D00019000001204      GGSL
NJARET21070-18506-00121-60000036D0000357D00035000001216      GGSL
NJARET21070-18506-00122-30000120D0000683D0000600000122       GGSL
NJARET21070-18506-00123-00000180D0001024D0000800000123       GGSL
NJARET21070-18506-00125-40000024D0000123D0002200000125       GGSL
NJARET21070-18506-00130-80000036D0000203D0001200000130       GGSL
NJARET21070-18506-00135-30000006D0000089D0001000000135       GGSL
NJARET21070-18506-00137-70000012D0000104D0000600000137       GGSL
NJARET21070-18506-01140-60000008D0000134D00003000001140      GGSL
NJARET21070-18506-02000-20000006D0000042D00001000002000      GGSL
NJARET21070-18506-02001-90000018D0000206D00025000002001      GGSL
NJARET21070-19200-00095-60000030D0000069D002110000000027     GGSL
NJARET21070-19200-00619-40000048D0000157D013310000000706     GGSL
NJARET21070-19200-00619-40000012D0000040D000100000000706M    GGSL
NJARET21070-19200-02569-00000600D0001290D000000000002569     GGSL
NJARET21070-19200-02699-40000312D0000852D000000000002699     GGSL
NJARET21070-19200-05432-40000048D0000204D000530000075057     GGSL
NJARET21070-19200-74186-60000216D0000849D000000000074186     GGSL
NJARET21070-19200-75352-40000240D0000586D000000000075352     GGSL
NJARET21070-19200-78626-30000009D0000022D003150000078626     GGSL
NJARET21070-19200-78914-10000048D0000135D002070000478914     GGSL
NJARET21070-19200-79326-10000672D0003192D000000000079326     GGSL
NJARET21070-19200-83721-70000252D0000645D005210000583721     GGSL
NJARET21070-19200-89973-40000004D0000064D000320000289973     GGSL
NJARET21070-19200-96082-30000006D0000012D000700000096082     GGSL
NJARET21070-19200-98342-60000072D0000325D000020000099427     GGSL
NJARET21070-19200-98665-60000008D0000035D000980000098665     GGSL
NJARET21070-19200-98666-30000024D0000140D000630000098666     GGSL
NJARET21070-19263-25010-70000002D0000124D00001000012501      GGSL
NJARET21070-19263-25030-50000005D0000694D00000000002503      GGSL
NJARET21070-19263-25035-00000024D0000731D0003800003250350    GGSL
NJARET21070-19263-25045-90000016D0000655D0007200008250450    GGSL
NJARET21070-19263-25052-70000001D0000215D0000500000250525    GGSL
NJARET21070-19263-25055-80000004D0000202D0006200002250550    GGSL
NJARET21070-19263-25350-40000048D0000130D00000000002535      GGSL
NJARET21070-19263-25510-20001525D0003279D00069000002551      GGSL
NJARET21070-19263-25520-10002675D0006634D00143000032552      GGSL
NJARET21070-19263-25530-00002150D0006128D00098000092553      GGSL
NJARET21070-19263-25540-90002500D0008425D00020000042554      GGSL
NJARET21070-19263-25550-80000350D0001502D00073000002555      GGSL
NJARET21070-19263-25750-20000064D0000430D00010000062575      GGSL
NJARET21070-19263-25760-10000012D0000102D00010000012576      GGSL
NJARET21070-19263-25770-00000090D0001184D00003000032577      GGSL
NJARET21070-19263-25780-90000025D0000594D00029000252578      GGSL
NJARET21070-19263-25950-60000288D0000343D00052000002595      GGSL
NJARET21070-19263-26170-70000010D0000267D00000000002617      GGSL
NJARET21070-19263-26210-00000144D0001348D00109000012621      GGSL
NJARET21070-19263-26280-30000001D0000031D00000000002628      GGSL
NJARET21070-19263-26300-80000552D0001330D00052000022630      GGSL
NJARET21070-19263-26310-70000312D0000883D00112000052631      GGSL
NJARET21070-19263-26340-40000144D0000359D00000000002634      GGSL
NJARET21070-21344-00321-20000028D0000814D0009100003WX15064   GGSL
NJARET21070-21344-00322-90000008D0000310D0005800000WX15065   GGSL
NJARET21070-21344-00339-70000059D0006564D0025400124400339    GGSL
NJARET21070-21344-00340-30000012D0001141D0039800207400340    GGSL
NJARET21070-21344-00343-40000006D0000046D0000000000400343    GGSL
NJARET21070-21344-00344-10000030D0000253D0001700000400344    GGSL
NJARET21070-21344-00345-80000012D0000110D0005900001400345    GGSL
NJARET21070-21344-00346-50000018D0000161D0006000001400346    GGSL
NJARET21070-21344-00347-20000008D0000120D0002300000400347    GGSL
NJARET21070-21344-00349-60000004D0000078D0013500001400349    GGSL
NJARET21070-21344-00350-20000004D0000080D0009800000400350    GGSL
NJARET21070-21344-00354-00000002D0000090D0000300003HQ73481784GGSL
NJARET21070-21344-00361-80000016D0000532D0001200004HQ74912297GGSL
NJARET21070-21344-00362-50000002D0000147D0016100001HQMUSH    GGSL
NJARET21070-21344-00384-70000016D0000747D0003500000JFG18013  GGSL
NJARET21070-21344-00385-40000006D0000170D0000500000JFG18011A GGSL
NJARET21070-21344-00386-10000006D0000228D0002900003JFG18011B GGSL
NJARET21070-21344-00387-80000006D0000205D0003600000JFG18012  GGSL
NJARET21070-21344-00388-50000024D0000128D0001400000JFG18001  GGSL
NJARET21070-21344-00391-50000004D0000144D0005900000JFG18010B GGSL
NJARET21070-21344-00392-20000012D0000075D0003900001JFG18002  GGSL
NJARET21070-21344-00394-60000006D0000116D0001400000JFG18008ASGGSL
NJARET21070-21344-00395-30000016D0000440D0003400001JFG18006  GGSL
NJARET21070-21344-00397-70000006D0000240D0008300000JFG18018  GGSL
NJARET21070-21344-00403-50000006D0000143D0007400006ZT152072  GGSL
NJARET21070-21344-00404-20000003D0000193D0000200001ZT185020  GGSL
NJARET21070-21344-00408-00000002D0000114D0000200000ZT185026  GGSL
NJARET21070-21344-00409-70000048D0000204D0007700003ZT185018  GGSL
NJARET21070-21344-00411-00000004D0000155D0008000002ZT185021  GGSL
NJARET21070-21344-00413-40000012D0000021D0010500000400413    GGSL
NJARET21070-21344-00416-50000012D0000021D0010100000400416    GGSL
NJARET21070-21344-00417-20000600D0000512D0009300000400417    GGSL
NJARET21070-21344-00423-30000125D0018420D0086800018WX17658   GGSL
NJARET21070-21344-00718-00000012D0000297D0012900000WX17422   GGSL
NJARET21070-21344-00719-70000006D0000121D0011300000WX17413   GGSL
NJARET21070-21344-00720-30000060D0001260D0011000001WX17409   GGSL
NJARET21070-21344-00721-00000044D0001074D0000400004WX17230   GGSL
NJARET21070-21344-00722-70000292D0007453D0003700008WX17401   GGSL
NJARET21070-21344-00723-40000068D0001753D0014900003WX17402   GGSL
NJARET21070-21344-00724-10000014D0000582D0002000005WXRACK20  GGSL
NJARET21070-21344-00725-80000012D0000562D0003900001HQ748416  GGSL
NJARET21070-21344-00727-20000004D0000187D0000300002HQ74842665GGSL
NJARET21070-21344-00728-90000002D0000050D0000300000HQ74912300GGSL
NJARET21070-21344-00729-60000002D0000057D0000500006HQ7348782 GGSL
NJARET21070-21344-00729-60000006D0000000D0000800000TVHQ734878GGSL
NJARET21070-21344-00735-70000012D0000306D0005500000WX17577RV GGSL
NJARET21070-21344-00736-40000036D0000893D0006300000WX17578RV GGSL
NJARET21070-21344-00740-10000004D0000171D0002600000WX17818   GGSL
NJARET21070-21344-00745-60000008D0000104D0016100001YS19006   GGSL
NJARET21070-21344-00746-30000012D0000210D0018300002YS19L005  GGSL
NJARET21070-21344-00747-00000008D0000140D0019400002YS19L004  GGSL
NJARET21070-21344-00748-70000012D0000164D0019500002YS19S002  GGSL
NJARET21070-21344-00749-40000012D0000164D0019400002YS19S003  GGSL
NJARET21070-21344-00750-00000012D0000164D0013900002YS19S001  GGSL
NJARET21070-21344-00762-30000002D0000208D0019400011FDBH1901  GGSL
NJARET21070-21344-00774-60000022D0000523D0000300007WX17800   GGSL
NJARET21070-21344-00775-30000006D0000265D0001900012WX17802   GGSL
NJARET21070-21344-00776-00000002D0000130D0000800000FDBB1901  GGSL
NJARET21070-21344-00780-70000001D0000061D0001700001MG18396RV GGSL
NJARET21070-21344-00796-80000090D0000140D0002100000SSH1822719GGSL
NJARET21070-21344-00797-50000018D0000070D0005900001SSH1813624GGSL
NJARET21070-21344-00798-20000012D0000054D0001600000SSH1813728GGSL
NJARET21070-21344-00799-90000012D0000101D0003500003HS190061C GGSL
NJARET21070-21344-00800-20000024D0000204D0004000001HS190061B GGSL
NJARET21070-21344-00801-90000018D0000152D0001400001HS190061A GGSL
NJARET21070-21344-00802-60000008D0000105D0002900001HS190058C GGSL
NJARET21070-21344-00803-30000004D0000034D0000400000HS190058B GGSL
NJARET21070-21344-00804-00000016D0000174D0004300002HS190058A GGSL
NJARET21070-21344-00805-70000012D0000139D0001000001HS190056  GGSL
NJARET21070-21344-00807-10000012D0000168D0003900001SSH18A034 GGSL
NJARET21070-21344-00808-80000024D0000125D0003300001SSH18A024 GGSL
NJARET21070-21344-00813-20000008D0000701D00082000564008132   GGSL
NJARET21070-21344-00828-60000012D0000078D0003900000JFG18008ACGGSL
NJARET21070-21344-00829-30000004D0000038D0000100000ZT197030  GGSL
NJARET21070-21344-00831-60000002D0000036D0013100002ZT197003  GGSL
NJARET21070-21344-00832-30000003D0000062D0005300001JFG19007B GGSL
NJARET21070-21344-00837-80000168D0000471D0007700001SK15020B  GGSL
NJARET21070-21344-00838-50000216D0000676D0017400001SK15008E  GGSL
NJARET21070-21344-00839-20000004D0000061D0000800000HS190062  GGSL
NJARET21070-21344-00844-60000030D0000243D0001200001HJAL19011 GGSL
NJARET21070-21344-00846-00000009D0000842D0016600001FDBH1902  GGSL
NJARET21070-21344-01160-60000006D0000121D0005200001BN19296   GGSL
NJARET21070-21344-01162-00000002D0000045D0004600001BN19297   GGSL
NJARET21070-21344-01164-40000008D0000164D0005900001BN19299   GGSL
NJARET21070-21344-01166-80000004D0000075D0005900000BN19300   GGSL
NJARET21070-21344-01168-20000006D0000134D0004400001BN19302   GGSL
NJARET21070-21344-01170-50000007D0000709D0002900009FDBH2001  GGSL
NJARET21070-21344-01172-90000002D0000106D0000300003HQ73482993GGSL
NJARET21070-21344-01173-60000006D0000347D0000800004HQ73483050GGSL
NJARET21070-21344-01176-70000004D0000217D0000100000HQ75752836GGSL
NJARET21070-21344-01178-10000008D0000456D0000500001HQ7575453 GGSL
NJARET21070-21344-01179-80000024D0000230D0001400002HS18MR0461GGSL
NJARET21070-21344-01180-40000018D0000255D0003400002HS18MR0463GGSL
NJARET21070-21344-01184-20000024D0000396D0005900001HS20134   GGSL
NJARET21070-21344-01185-90000024D0000379D0006800001HS20135   GGSL
NJARET21070-21344-01186-60000012D0000161D0006100002HS20136   GGSL
NJARET21070-21344-01187-30000030D0000412D0008400001HS20137   GGSL
NJARET21070-21344-01188-00000004D0000106D0010800002HS20HS0022GGSL
NJARET21070-21344-01192-70000024D0000488D0003600001HS20HS0026GGSL
NJARET21070-21344-01196-50000012D0000434D0029000003MG19632   GGSL
NJARET21070-21344-01197-20000006D0000273D0028400003MG19633   GGSL
NJARET21070-21344-01203-00000008D0000147D0004000001SSH19S104 GGSL
NJARET21070-21344-01204-70000008D0000193D0001700000WX13253   GGSL
NJARET21070-21344-01206-10000012D0000161D0000900003WX18811   GGSL
NJARET21070-21344-01207-80000054D0000892D0002100001WX18812   GGSL
NJARET21070-21344-01208-50000018D0000304D0000600003WX18813   GGSL
NJARET21070-21344-01209-20000004D0000111D0004900000WX18814   GGSL
NJARET21070-21344-01210-80000004D0000111D0002700000WX18815   GGSL
NJARET21070-21344-01212-20000156D0003555D0001300001WX18819   GGSL
NJARET21070-21344-01213-90000180D0004013D0002800007WX18820   GGSL
NJARET21070-21344-01214-60000438D0009387D0002900014WX18821   GGSL
NJARET21070-21344-01215-30000006D0001365D0037100003WX18824   GGSL
NJARET21070-21344-01216-00000001D0000177D0000800009WX18825   GGSL
NJARET21070-21344-01219-10000006D0000266D0003200001WX19199   GGSL
NJARET21070-21344-01221-40000008D0000173D0008100000WX19201   GGSL
NJARET21070-21344-01224-50000028D0000923D0008700006WX19205   GGSL
NJARET21070-21344-01225-20000008D0000428D0017200001WX19206   GGSL
NJARET21070-21344-01226-90000004D0000049D0009100000WX19256   GGSL
NJARET21070-21344-01227-60000008D0000090D0006900000WX19257   GGSL
NJARET21070-21344-01228-30000004D0000042D0004000000WX19258   GGSL
NJARET21070-21344-01237-50000051D0007966D0007800013WX19270   GGSL
NJARET21070-21344-01240-50000018D0000249D0004000002WX86808283GGSL
NJARET21070-21344-01241-20000004D0000058D0002100000WX8594    GGSL
NJARET21070-21344-01254-20000004D0000279D0012700001ZT207012B GGSL
NJARET21070-21344-01256-60000002D0000045D0011600001ZT207016  GGSL
NJARET21070-21344-01259-70000002D0000039D0010100005ZT207024A GGSL
NJARET21070-21344-01260-30000004D0000311D0029000003ZT207025  GGSL
NJARET21070-21344-01261-00000005D0000386D0028800004ZT207026  GGSL
NJARET21070-21344-01262-70000002D0000148D0033400004ZT207027  GGSL
NJARET21070-21344-01264-10000002D0000335D0029000024HR22818AA GGSL
NJARET21070-21344-01265-80000001D0000109D0014600002HR30701AA GGSL
NJARET21070-21344-01266-50000004D0000181D0035600054CU297     GGSL
NJARET21070-21344-01267-20000001D0000122D0025400032FP35      GGSL
NJARET21070-21344-01268-90000001D0000077D0015600007HR26182AA GGSL
NJARET21070-21344-01270-20000003D0000090D0023300008HS20153   GGSL
NJARET21070-21344-01273-30000097D0015942D0024200014WX17658A  GGSL
NJARET21070-21344-01275-70000002D0000115D0010600001JFG20031  GGSL
NJARET21070-21964-10100-80000006D0000164D0000100000A6F       GGSL
NJARET21070-21964-10110-70000006D0000041D0000000000A6T       GGSL
NJARET21070-21964-10121-30000001D0000037D0000500000A6RPX     GGSL
NJARET21070-21964-10133-60000018D0000532D0000400000TH3RP     GGSL
NJARET21070-21964-10200-50000008D0000380D0000100000B7F       GGSL
NJARET21070-21964-10211-10000012D0000110D0000000000OMT       GGSL
NJARET21070-21964-10305-70000005D0000303D0000800000BTG       GGSL
NJARET21070-21964-10315-60000004D0000146D0002400015SQG       GGSL
NJARET21070-21964-10470-20000008D0000216D0000000000H82       GGSL
NJARET21070-21964-10481-80000036D0000215D0000900000AM        GGSL
NJARET21070-21964-10900-40000006D0000023D0000000000SL        GGSL
NJARET21070-21964-20500-30000008D0001012D0002300006YF        GGSL
NJARET21070-21964-20510-20000006D0000503D0002600005YCPD90    GGSL
NJARET21070-21964-20520-10000024D0001934D0000600003YCPW180   GGSL
NJARET21070-21964-20530-00000008D0000673D0001300004YCPT360   GGSL
NJARET21070-21964-25241-00000006D0000177D0000700000CC12S     GGSL
NJARET21070-21964-25242-70000006D0000221D0000300000CC18S     GGSL
NJARET21070-21964-25244-10000012D0000355D0001600000CC12N     GGSL
NJARET21070-21964-25245-80000024D0000883D0000600000CC18N     GGSL
NJARET21070-21964-25245-80000001D0000037D0000800000CC18NX    GGSL
NJARET21070-21964-25256-40000018D0000532D0001100000CC12FM    GGSL
NJARET21070-21964-40043-90000006D0000108D0000000000CJM8G     GGSL
NJARET21070-21964-40063-70000006D0000173D0000000000CJM23G    GGSL
NJARET21070-21964-41084-10000006D0000177D0000100000CJTHM36Y  GGSL
NJARET21070-21964-41086-50000024D0000398D0000300000CJTHM8Y   GGSL
NJARET21070-21964-50059-70000006D0000152D0000300000CJM13FSY  GGSL
NJARET21070-21964-92006-70000001D0000076D0000700000YCPW180M  GGSL
NJARET21070-22179-10012-10000018D0000293D0001600000LG3109    GGSL
NJARET21070-22179-10084-80000012D0000115D0006800001LG7220    GGSL
NJARET21070-22179-10106-70000018D0000484D0006500000LG5512    GGSL
NJARET21070-22179-10124-10000456D0002856D0003200003LG6515    GGSL
NJARET21070-22179-10157-90000054D0001281D0002800000LG6530    GGSL
NJARET21070-22179-10159-30000012D0000230D0000000000LG5185    GGSL
NJARET21070-22179-10163-00002208D0030177D0017200000LG6150    GGSL
NJARET21070-22179-10185-20000138D0001739D0001700000LG6500    GGSL
NJARET21070-22179-10186-90000006D0000274D0000000000LG6555    GGSL
NJARET21070-22179-10244-60000012D0000331D0000400000LG6135    GGSL
NJARET21070-22179-10246-00000060D0001079D0003200001LG6570    GGSL
NJARET21070-22179-10257-60000024D0000418D0000700000LG3190    GGSL
NJARET21070-22179-10258-30000036D0001192D0000600000LG6580    GGSL
NJARET21070-22179-10259-00000012D0000742D0000500000LG6585    GGSL
NJARET21070-22179-10266-80000060D0001346D0001800000LG6145    GGSL
NJARET21070-22179-10326-90000018D0000546D0000200000LG5482    GGSL
NJARET21070-22179-10327-60000108D0001178D0000800007LG6148    GGSL
NJARET21070-22179-10389-40000012D0000106D0000300000LG7265    GGSL
NJARET21070-22179-10390-00000012D0000110D0000000000LG6332    GGSL
NJARET21070-22179-10391-70000084D0001342D0002800000LG6336    GGSL
NJARET21070-22179-10393-10000006D0000093D0000000000LG5367    GGSL
NJARET21070-22179-10408-20000108D0001045D0000500002LG6338    GGSL
NJARET21070-22179-10434-10000012D0000129D0000300001LG6133    GGSL
NJARET21070-22179-10444-00000006D0000089D0000100000LG3374    GGSL
NJARET21070-22179-10471-60000312D0003450D0000400001LG6128    GGSL
NJARET21070-22179-10481-50000006D0000088D0000400000LG5592    GGSL
NJARET21070-22179-10517-10000012D0000307D0000300000LG3176    GGSL
NJARET21070-22401-00301-50000045D0000587D0002700000THD20     GGSL
NJARET21070-22401-00440-10000004D0000132D0011300000PRO40PC   GGSL
NJARET21070-22401-00760-00000006D0000275D0000000000RD60P     GGSL
NJARET21070-22401-10087-50000048D0000487D0001900004EAR20TMC  GGSL
NJARET21070-23883-16100-20000018D0000275D000170000016100     GGSL
NJARET21070-23883-16200-90000024D0000490D000760000016200     GGSL
NJARET21070-23883-20002-20000003D0000066D001870000020002     GGSL
NJARET21070-23883-20003-90000011D0000330D000000000020003     GGSL
NJARET21070-23883-20010-70000006D0000123D000240000220010     GGSL
NJARET21070-23883-20020-60000005D0000141D000800000020020     GGSL
NJARET21070-23883-69324-20000001D0000238D000010000063924     GGSL
NJARET21070-24114-70300-80000075D0000197D0000000000703002    GGSL
NJARET21070-24114-71642-80000010D0000096D0004300000701642    GGSL
NJARET21070-24114-71664-00000025D0000295D0000700000716642    GGSL
NJARET21070-24114-74009-60000125D0000610D0000200001704009    GGSL
NJARET21070-24114-75161-00000045D0000330D0000900001750161    GGSL
NJARET21070-24654-05102-70000168D0000919D000020000251026     GGSL
NJARET21070-24654-05922-10000001D0000377D00001000005926DS    GGSL
NJARET21070-24654-05972-60000008D0000290D00011000005972      GGSL
NJARET21070-24654-51926-80000006D0000063D000030000051926     GGSL
NJARET21070-24654-55025-40000228D0000921D00013000115026      GGSL
NJARET21070-24654-55110-70000102D0000554D000330001451106     GGSL
NJARET21070-24654-55118-30000042D0000345D000090000051186     GGSL
NJARET21070-24654-55325-50000024D0000144D000010000053256     GGSL
NJARET21070-24654-65452-50000240D0001357D000270001154526     GGSL
NJARET21070-25033-01703-00000012D0000146D000140000001703     GGSL
NJARET21070-25033-01713-90000018D0000244D000000000001713     GGSL
NJARET21070-25033-01717-70000018D0000323D000060000001717     GGSL
NJARET21070-25033-01723-80000008D0000204D000080000001723     GGSL
NJARET21070-25033-02019-10000004D0000244D000110000002019     GGSL
NJARET21070-25033-02144-00000006D0000084D000000000002144     GGSL
NJARET21070-25033-02215-70000001D0000121D000070000002215X    GGSL
NJARET21070-25033-02501-10000008D0000082D000120000002501     GGSL
NJARET21070-25033-02510-30000012D0000144D000310000202510     GGSL
NJARET21070-25033-02519-60000032D0001051D000360000002519     GGSL
NJARET21070-25033-02520-20000024D0000541D000140000002520     GGSL
NJARET21070-25033-02521-90000012D0000307D000090000002521     GGSL
NJARET21070-25033-02522-60000006D0000344D000580000002522     GGSL
NJARET21070-25033-02523-30000005D0000318D000200000002523     GGSL
NJARET21070-25033-02525-70000009D0000623D000570000002525     GGSL
NJARET21070-25033-02527-10000011D0000837D000310000002527     GGSL
NJARET21070-25033-02667-40000002D0000502D000070000002667     GGSL
NJARET21070-25033-02670-40000005D0001423D000000000002670     GGSL
NJARET21070-25033-02675-90000005D0001293D000000000002675     GGSL
NJARET21070-25033-02680-30000004D0000902D000010000002680     GGSL
NJARET21070-25033-02720-60000005D0000495D000490000002720     GGSL
NJARET21070-25033-02722-00000006D0000691D000130000102722     GGSL
NJARET21070-25033-02728-20000005D0000774D000080000002728     GGSL
NJARET21070-25033-02750-30000006D0001192D000030000002750     GGSL
NJARET21070-25033-02755-80000002D0000403D000020000002755     GGSL
NJARET21070-25033-03801-10000006D0000146D000510000003801     GGSL
NJARET21070-25033-03802-80000006D0000143D000390000003802     GGSL
NJARET21070-25033-04520-00000002D0000184D000090000004520     GGSL
NJARET21070-25033-05615-20000002D0000480D000050000005615     GGSL
NJARET21070-25033-05620-60000001D0000273D000030000005620     GGSL
NJARET21070-25033-05640-40000001D0000517D000010000005640     GGSL
NJARET21070-25033-05645-90000002D0001422D000020000005645     GGSL
NJARET21070-25033-12195-90000036D0000271D000110000012195     GGSL
NJARET21070-25033-12202-40000030D0000252D000020000012202     GGSL
NJARET21070-25033-12285-70000006D0000058D000010000012285     GGSL
NJARET21070-25033-12410-30000002D0000337D000020000112410     GGSL
NJARET21070-25033-12555-10000006D0000053D000000000012555     GGSL
NJARET21070-25033-12746-30000012D0000301D000000000012746     GGSL
NJARET21070-25033-12776-00000006D0000228D000000000012776     GGSL
NJARET21070-25033-20230-60000002D0000567D000000000020230     GGSL
NJARET21070-25845-12366-00000024D0000208D00003000035566      GGSL
NJARET21070-25849-00082-00000090D0001076D00001000000082P     GGSL
NJARET21070-25849-00305-00000035D0000701D00002000010305RG    GGSL
NJARET21070-25849-10381-10000120D0003728D000120000310381RG   GGSL
NJARET21070-25849-10381-10000014D0000409D000500002010381RGX  GGSL
NJARET21070-25849-10910-30000066D0000307D00025000001008010RGXGGSL
NJARET21070-25849-11010-90000084D0000509D00011000001016010RGXGGSL
NJARET21070-25849-11110-60000120D0000805D00004000011010010RG GGSL
NJARET21070-25849-11110-60000024D0000154D00120001201010010RGXGGSL
NJARET21070-25849-20381-80000120D0003828D000050000120381RG   GGSL
NJARET21070-25849-20381-80000003D0000094D001170000020381RGX  GGSL
NJARET21070-25881-10712-90000003D0000070D0000900000 10712    GGSL
NJARET21070-25881-11041-90000008D0000038D0000800005 11041    GGSL
NJARET21070-26600-89334-70000032D0000059D002660000089334     GGSL
NJARET21070-26600-89334-70000056D0000108D000650000389334M    GGSL
NJARET21070-26978-02181-60000050D0000272D000280000002181     GGSL
NJARET21070-26978-02182-30000030D0000163D000280000002182     GGSL
NJARET21070-26978-02188-50000030D0000130D000280000002188     GGSL
NJARET21070-26978-02241-70000080D0000477D000140000002241     GGSL
NJARET21070-26978-02242-40000040D0000239D000190000102242     GGSL
NJARET21070-26978-02248-60000040D0000196D000320000002248     GGSL
NJARET21070-26978-02301-80000090D0000688D000400000502301     GGSL
NJARET21070-26978-02308-70000090D0000566D000040000002308     GGSL
NJARET21070-26978-02361-20000050D0000481D000520000302361     GGSL
NJARET21070-26978-02362-90000020D0000201D000080000102362     GGSL
NJARET21070-26978-05071-70000036D0000048D000110000005071     GGSL
NJARET21070-26978-05081-60000504D0000729D000300000005081     GGSL
NJARET21070-26978-08060-80000030D0000164D000000000008060     GGSL
NJARET21070-26978-10010-80000006D0000024D000030000010010     GGSL
NJARET21070-26978-10062-70000070D0000195D000100000010062     GGSL
NJARET21070-26978-10068-90000030D0000089D000020000010068     GGSL
NJARET21070-26978-10082-50000080D0000309D000070000210082     GGSL
NJARET21070-26978-10088-70000040D0000148D000050000010088     GGSL
NJARET21070-26978-10102-00000030D0000166D000060000210102     GGSL
NJARET21070-26978-10108-20000025D0000148D000120000010108     GGSL
NJARET21070-26978-10128-00000035D0000271D000080000010128     GGSL
NJARET21070-26978-10180-80000010D0000036D000150000010180     GGSL
NJARET21070-26978-10182-20000010D0000036D000190000010182     GGSL
NJARET21070-26978-10185-30000030D0000107D000250000110185     GGSL
NJARET21070-26978-10240-90000010D0000039D000110000010240     GGSL
NJARET21070-26978-10242-30000030D0000118D000130000110242     GGSL
NJARET21070-26978-10243-00000010D0000039D000070000010243     GGSL
NJARET21070-26978-10302-40000010D0000050D000160000010302     GGSL
NJARET21070-26978-16192-50000040D0000195D000230000716192     GGSL
NJARET21070-26978-16195-60000070D0000341D000240000516195     GGSL
NJARET21070-26978-16240-30000100D0000603D000440000316240     GGSL
NJARET21070-26978-16242-70000040D0000241D000250000216242     GGSL
NJARET21070-26978-16243-40000020D0000121D000170000516243     GGSL
NJARET21070-26978-16245-80000020D0000121D000060000316245     GGSL
NJARET21070-26978-16248-90000020D0000120D000070000216248     GGSL
NJARET21070-26978-16300-40000010D0000076D000260000116300     GGSL
NJARET21070-26978-16302-80000020D0000152D000650000516302     GGSL
NJARET21070-26978-16303-50000010D0000076D000210000016303     GGSL
NJARET21070-26978-16360-80000020D0000228D000130000016360     GGSL
NJARET21070-26978-16362-20000040D0000455D000320000116362     GGSL
NJARET21070-26978-16363-90000010D0000114D000110000016363     GGSL
NJARET21070-26978-16365-30000020D0000228D000100000016365     GGSL
NJARET21070-26978-16368-40000010D0000114D000070000016368     GGSL
NJARET21070-26978-26142-70000160D0001606D000310000126142     GGSL
NJARET21070-26978-26145-80000020D0000201D000130000026145     GGSL
NJARET21070-26978-26168-70000036D0000345D000390000026168     GGSL
NJARET21070-26978-26180-90000010D0000161D000070000026180     GGSL
NJARET21070-26978-26182-30000010D0000144D000060000126182     GGSL
NJARET21070-26978-26248-60000008D0000078D000190000426248     GGSL
NJARET21070-26978-26273-80000010D0000115D000220000026273     GGSL
NJARET21070-26978-26278-30000010D0000115D000150000226278     GGSL
NJARET21070-26978-30104-80000012D0000060D000020000230104     GGSL
NJARET21070-26978-30301-10000024D0000144D000140001430301     GGSL
NJARET21070-26978-30312-70000072D0000081D000000000030312     GGSL
NJARET21070-26978-30409-40000060D0000368D000000000030409     GGSL
NJARET21070-26978-30411-70000060D0000390D000040000430411     GGSL
NJARET21070-26978-30412-40000024D0000027D000000000030412     GGSL
NJARET21070-26978-30413-10000132D0000923D000000000030413     GGSL
NJARET21070-26978-30705-70000048D0000207D000020000030705     GGSL
NJARET21070-26978-30806-10000030D0000138D000050000130806     GGSL
NJARET21070-26978-30809-20000006D0000028D000020000230809     GGSL
NJARET21070-26978-31100-90000025D0000166D000050000231100     GGSL
NJARET21070-26978-31122-10000010D0000125D000050000031122     GGSL
NJARET21070-26978-31128-30000015D0000231D000060000031128     GGSL
NJARET21070-26978-32102-20000035D0000313D000050000032102     GGSL
NJARET21070-26978-32122-70000015D0000197D000000000032122     GGSL
NJARET21070-26978-32128-20000040D0000656D000040000032128     GGSL
NJARET21070-26978-34088-70000030D0000253D000560000034088     GGSL
NJARET21070-26978-34108-20000020D0000280D000010000034108     GGSL
NJARET21070-26978-34121-10000020D0000390D000010000034121     GGSL
NJARET21070-26978-34141-10000003D0000086D000000000034141     GGSL
NJARET21070-26978-34148-00000009D0000257D000020000034148     GGSL
NJARET21070-26978-35059-60000010D0000053D000020000035059     GGSL
NJARET21070-26978-35080-00000020D0000177D000100000635080     GGSL
NJARET21070-26978-35106-70000010D0000171D000060000035106     GGSL
NJARET21070-26978-35108-10000015D0000294D000010000035108     GGSL
NJARET21070-26978-35120-30000035D0000839D000030000135120     GGSL
NJARET21070-26978-35188-30000004D0000264D000270000035188     GGSL
NJARET21070-26978-35198-20000006D0000240D000230000035198     GGSL
NJARET21070-26978-35270-50000002D0000182D000050000035270     GGSL
NJARET21070-26978-35278-10000008D0000726D000020000035278     GGSL
NJARET21070-26978-36100-40000010D0000126D000120000136100     GGSL
NJARET21070-26978-36108-00000010D0000126D000030000036108     GGSL
NJARET21070-26978-36148-60000010D0000161D000170000036148     GGSL
NJARET21070-26978-38142-20000024D0000142D000120000238142     GGSL
NJARET21070-26978-38146-00000036D0000186D000070000138146     GGSL
NJARET21070-26978-38148-40000048D0000283D000160000038148     GGSL
NJARET21070-26978-38192-70000012D0000152D000140000138192     GGSL
NJARET21070-26978-38198-90000054D0000689D000850000538198     GGSL
NJARET21070-26978-39126-10000024D0000106D000320000339126     GGSL
NJARET21070-26978-39128-50000312D0001358D000230000539128     GGSL
NJARET21070-26978-39188-90000060D0000685D000210000439188     GGSL
NJARET21070-26978-48098-30000006D0000017D000260000048098     GGSL
NJARET21070-26978-48128-00000006D0000024D000090000148128     GGSL
NJARET21070-26978-80105-00000004D0000164D000130000080105     GGSL
NJARET21070-26978-81201-80000003D0000150D000040000081201     GGSL
NJARET21070-27652-80204-20000015D0000817D0000000000LG400161  GGSL
NJARET21070-27713-20371-90000018D0000032D000090000020371     GGSL
NJARET21070-27713-49762-00000012D0000031D000000000049762     GGSL
NJARET21070-27856-10001-20006192D0018396D0016700029P10232    GGSL
NJARET21070-27856-10001-20000432D0001283D0000400002P10232M   GGSL
NJARET21070-27856-10002-90008904D0046857D0034000037P10264    GGSL
NJARET21070-27856-10002-90000198D0001041D0001600009P10264M   GGSL
NJARET21070-27856-10008-10002484D0033782D0026200022P101      GGSL
NJARET21070-27856-10008-10000096D0001306D0001400001P101M     GGSL
NJARET21070-27856-10009-80001284D0011749D0020500000P128      GGSL
NJARET21070-27856-10009-80000039D0000357D0000600005P128M     GGSL
NJARET21070-27997-00229-90000006D0000117D0002200000TE        GGSL
NJARET21070-27997-01017-10000004D0000722D0001700000M6T22     GGSL
NJARET21070-29973-12316-50000140D0000778D000180000314116021P GGSL
NJARET21070-29973-12333-20002104D0007406D002180000114110028P GGSL
NJARET21070-29973-12341-70000006D0000030D0059400012141100216UGGSL
NJARET21070-30541-00066-50000072D0000181D0001000000JCDTP03   GGSL
NJARET21070-30541-00067-20000006D0000052D0000200000JCD100FGP GGSL
NJARET21070-30541-00069-60000012D0000069D0000100000JCD05CMP  GGSL
NJARET21070-30541-00801-20000009D0000464D0002300000JCD08BKSM GGSL
NJARET21070-30541-01020-60000048D0000115D0005300001JCD024SM  GGSL
NJARET21070-30541-01030-50000048D0000412D0006400001JCD100SMJ GGSL
NJARET21070-30541-01034-30000024D0000515D0002900000JCD030SM  GGSL
NJARET21070-30541-01039-80000072D0000374D0006600002JCD05SM   GGSL
NJARET21070-30541-08879-30000096D0000307D0002000000SMVS      GGSL
NJARET21070-30541-09981-20000050D0000101D0002300000JCDTPG    GGSL
NJARET21070-31340-10005-10000180D0003361D0004000000B550120   GGSL
NJARET21070-31340-10006-80000516D0005887D0000800001B550125   GGSL
NJARET21070-31340-10007-50000006D0000199D0004700001B550130   GGSL
NJARET21070-31340-10017-40000048D0000899D0002700001B550190   GGSL
NJARET21070-31365-10600-70000012D0000235D0030200000 42808    GGSL
NJARET21070-31365-12205-20000012D0000312D0000000000 49454    GGSL
NJARET21070-31417-00058-10000002D0000049D000630001080631131X GGSL
NJARET21070-31724-84000-90000021D0000495D00018000008400100   GGSL
NJARET21070-31724-84005-40000110D0001296D0000000000840050    GGSL
NJARET21070-31724-84007-80000012D0000229D0000600000840075    GGSL
NJARET21070-31724-85090-90000006D0000221D00008000008509100   GGSL
NJARET21070-31724-85355-90000090D0001489D0000000000853550    GGSL
NJARET21070-31724-86177-60000009D0000333D0000200000861775    GGSL
NJARET21070-32247-00900-30000144D0000511D00064000071009001   GGSL
NJARET21070-32247-00910-20000048D0000167D00051000001009101   GGSL
NJARET21070-32247-00950-80000048D0000150D00060000001009501   GGSL
NJARET21070-32247-05514-70000120D0000618D000210000070551430  GGSL
NJARET21070-32247-05514-70000006D0000024D000290000070551430X GGSL
NJARET21070-32247-10500-20000144D0001457D0002200003110500    GGSL
NJARET21070-32247-14902-00000044D0000639D000160000014902     GGSL
NJARET21070-32247-14905-10000112D0000869D000830001314905     GGSL
NJARET21070-32247-17183-00000204D0002052D000340000017183     GGSL
NJARET21070-32247-17185-40000096D0002214D000620000017185     GGSL
NJARET21070-32247-17187-80000002D0000111D001190000017187     GGSL
NJARET21070-32247-17290-50000060D0000669D000520000017290     GGSL
NJARET21070-32247-17293-60000006D0000064D000560000017293     GGSL
NJARET21070-32247-17323-00000006D0000046D000470000017323     GGSL
NJARET21070-32247-17325-40000004D0000084D000080000017325     GGSL
NJARET21070-32247-17327-80000001D0000037D000360000017327     GGSL
NJARET21070-32247-17508-10000078D0001162D001140000717508     GGSL
NJARET21070-32247-17511-10000006D0000087D000490000017511     GGSL
NJARET21070-32247-17530-20000036D0000344D000030000017530     GGSL
NJARET21070-32247-17540-10000044D0001311D001720000017540     GGSL
NJARET21070-32247-18213-30000008D0000234D000430000018213     GGSL
NJARET21070-32247-18221-80000032D0000718D000970000418221     GGSL
NJARET21070-32247-18225-60000018D0000230D001380000318225     GGSL
NJARET21070-32247-18249-20000003D0000159D000300000018249     GGSL
NJARET21070-32247-18251-50000008D0000220D000210000018251     GGSL
NJARET21070-32247-18260-70000006D0000060D000360000018260     GGSL
NJARET21070-32247-18266-90000018D0000248D000500000018266     GGSL
NJARET21070-32247-18277-50000004D0000082D000390000018277     GGSL
NJARET21070-32247-18320-80000012D0000112D000280000018320     GGSL
NJARET21070-32247-18345-10000006D0000072D000330000018345     GGSL
NJARET21070-32247-18346-80000004D0000071D000420000018346     GGSL
NJARET21070-32247-18348-20000006D0000077D000360000018348     GGSL
NJARET21070-32247-18354-30000006D0000088D000230000018354     GGSL
NJARET21070-32247-20785-00000240D0000738D000680000072078430  GGSL
NJARET21070-32247-21605-00000011D0000232D002780000021605     GGSL
NJARET21070-32247-21701-90000048D0000439D001120000021701     GGSL
NJARET21070-32247-22305-80000019D0000313D004260000022305     GGSL
NJARET21070-32247-22315-70000015D0000636D002220000022315     GGSL
NJARET21070-32247-23622-50000017D0000295D007680000023622     GGSL
NJARET21070-32247-25006-10000005D0000131D001860000625006A    GGSL
NJARET21070-32247-25009-20000005D0000344D001400000025009     GGSL
NJARET21070-32247-26003-90000025D0000674D001140000026003D    GGSL
NJARET21070-32247-26784-70000036D0000144D000680000072678430  GGSL
NJARET21070-32247-27764-80000040D0000200D000200000572776430  GGSL
NJARET21070-32247-30073-50000004D0000055D000060000030073     GGSL
NJARET21070-32247-30156-50000024D0000405D001250000030156     GGSL
NJARET21070-32247-33002-20000024D0000307D00020000003300210   GGSL
NJARET21070-32247-33040-40000107D0001890D005430000033040     GGSL
NJARET21070-32247-33050-30000072D0003149D004880000033050     GGSL
NJARET21070-32247-36905-30000077D0002951D001300000036905     GGSL
NJARET21070-32247-37610-50000140D0002092D000000000037610C    GGSL
NJARET21070-32247-42784-50000006D0000018D000060000374278430  GGSL
NJARET21070-32247-43750-90000008D0000152D00014000004375010   GGSL
NJARET21070-32247-43850-60000004D0000093D00033000004385010   GGSL
NJARET21070-32247-43851-30000012D0000225D00119000004385106   GGSL
NJARET21070-32247-43854-40000004D0000052D00035000004385404   GGSL
NJARET21070-32247-43860-50000016D0000347D00045000014386004   GGSL
NJARET21070-32247-44615-00000015D0000360D000270000044615A    GGSL
NJARET21070-32247-47783-30000120D0000480D000100000074778300  GGSL
NJARET21070-32247-49013-90000036D0000774D000680000049013     GGSL
NJARET21070-32247-49020-70000002D0000122D001020000049020     GGSL
NJARET21070-32247-49801-20000009D0000127D001770000049801C    GGSL
NJARET21070-32247-50087-60000006D0000142D00034000015008710   GGSL
NJARET21070-32247-50088-30000006D0000130D00018000015008810   GGSL
NJARET21070-32247-51062-20000012D0000082D000230000051062     GGSL
NJARET21070-32247-51070-70000008D0000084D000120000051070     GGSL
NJARET21070-32247-51080-60000006D0000028D000040000051080     GGSL
NJARET21070-32247-51105-60000044D0000627D003990000051105     GGSL
NJARET21070-32247-51115-50000050D0001966D000610000051115     GGSL
NJARET21070-32247-52784-20000036D0000144D000480000085278430  GGSL
NJARET21070-32247-53105-40000045D0000511D002320000053105     GGSL
NJARET21070-32247-53115-30000025D0000687D001790000053115     GGSL
NJARET21070-32247-54105-30000006D0000038D00006000005410510   GGSL
NJARET21070-32247-54204-30000018D0000167D00006000005420406   GGSL
NJARET21070-32247-55523-40000612D0006695D000180000075552300  GGSL
NJARET21070-32247-55783-20000132D0000584D000550000075578300  GGSL
NJARET21070-32247-55863-10000002D0000013D001820000075586300X GGSL
NJARET21070-32247-56063-40000024D0000107D000530000045606300  GGSL
NJARET21070-32247-56211-90000006D0000097D00032000005621106   GGSL
NJARET21070-32247-56513-40000520D0004680D000620000175651300  GGSL
NJARET21070-32247-56513-40000010D0000090D002680000075651300X GGSL
NJARET21070-32247-56523-30000612D0008605D000600000475652300  GGSL
NJARET21070-32247-56783-10000150D0000711D007450003575678300  GGSL
NJARET21070-32247-56783-10001200D0005688D000040000075678309  GGSL
NJARET21070-32247-56863-00000455D0003431D000110000075686300  GGSL
NJARET21070-32247-56863-00000021D0000157D000000003475686300X GGSL
NJARET21070-32247-71060-20000072D0000919D000160000271060     GGSL
NJARET21070-32247-71131-90000020D0000374D000120000071131     GGSL
NJARET21070-32247-74250-40000168D0001364D0004100026274250    GGSL
NJARET21070-32247-74850-60000116D0002217D0005300003274850    GGSL
NJARET21070-32247-75902-10000010D0000805D000060000175902     GGSL
NJARET21070-32247-76121-50000015D0000488D000180000076121     GGSL
NJARET21070-32247-76232-80000015D0000974D000110000176232     GGSL
NJARET21070-32247-76565-70000006D0000285D000070000276565     GGSL
NJARET21070-32247-77160-30000648D0003276D0005100017277160    GGSL
NJARET21070-32247-77260-00000372D0003234D0004700016277260    GGSL
NJARET21070-32247-77860-20000120D0001909D0011500001277860    GGSL
NJARET21070-32247-77960-90000128D0002703D0004300002277960    GGSL
NJARET21070-32247-95517-10000060D0000307D000140000079551750  GGSL
NJARET21070-32247-99605-10000032D0000788D002380000099605     GGSL
NJARET21070-32247-99610-50000003D0000138D001820000099610     GGSL
NJARET21070-32903-00169-30000048D0000062D0000300000SLI06000E3GGSL
NJARET21070-32903-00171-60000168D0000198D0001000000SLI06000A3GGSL
NJARET21070-32903-00191-40000024D0000113D0000700000GAB12000E2GGSL
NJARET21070-32903-00192-10000024D0000031D0001200001SLI06000B9GGSL
NJARET21070-32903-00214-00000048D0000062D0001100000SLI06000E2GGSL
NJARET21070-32903-00222-50000144D0000214D0001100000SLI08000B9GGSL
NJARET21070-32903-00236-20000006D0000030D0002000000SVN24000E2GGSL
NJARET21070-32903-00240-90000096D0000147D0001300000SLI08000E2GGSL
NJARET21070-32903-00246-10000216D0000346D0000200001SLI08000A3GGSL
NJARET21070-32903-00257-70000009D0000312D0000900002RZGH210G2 GGSL
NJARET21070-32903-00258-40000072D0000136D0000900000LIA06000E2GGSL
NJARET21070-32903-00264-50000144D0000389D0000800000LIA08000E2GGSL
NJARET21070-32903-00281-20000096D0000420D0001800000LIA10000E2GGSL
NJARET21070-32903-00283-60000060D0000395D0000600000GAB14000E2GGSL
NJARET21070-32903-00287-40000006D0000050D0001000000VNP24000E2GGSL
NJARET21070-32903-00290-40000006D0000065D0000200000VNP30000E2GGSL
NJARET21070-32903-00293-50000072D0000167D0006900000SLI10000E2GGSL
NJARET21070-32903-00309-30000036D0000084D0000300003SLI10000E3GGSL
NJARET21070-32903-00326-00000072D0000495D0000700001LIA12000E2GGSL
NJARET21070-32903-00332-10000048D0000111D0001500000SLI10000B9GGSL
NJARET21070-32903-00359-80000504D0000829D0001000004SLI08000E3GGSL
NJARET21070-32903-04255-90000024D0000145D0000500000LIA14000E2GGSL
NJARET21070-32903-04257-30000048D0000159D0000700000SLI12000E2GGSL
NJARET21070-32903-07519-90000036D0000441D0000400000LIA16000E2GGSL
NJARET21070-32903-07530-40000012D0000051D0000100000SLI14000E2GGSL
NJARET21070-32903-07534-20000006D0000110D0000300000LIA20000E2GGSL
NJARET21070-32903-07563-20000048D0000206D0000700000SLI17000E2GGSL
NJARET21070-32903-12006-60000192D0000348D0000100001LIA06000E3GGSL
NJARET21070-32903-12008-00000072D0000162D0001700005LIA08000E3GGSL
NJARET21070-32903-12010-30000120D0000524D0005400006LIA10000E3GGSL
NJARET21070-32903-12012-70000300D0001796D0002200007LIA12000E3GGSL
NJARET21070-32903-12014-10000156D0001144D0000600006LIA14000E3GGSL
NJARET21070-32903-12017-20000060D0000823D0001300001LIA16000E3GGSL
NJARET21070-32903-12020-20000078D0001411D0001600001LIA20000E3GGSL
NJARET21070-32903-12024-00000018D0000441D0001300000LIA24000E3GGSL
NJARET21070-32903-12312-80000144D0000814D0001300000CNA12000E3GGSL
NJARET21070-32903-12318-00000006D0000027D0001100000SVN18000E3GGSL
NJARET21070-32903-12324-10000006D0000030D0000900000SVN24000E3GGSL
NJARET21070-32903-12330-20000006D0000035D0001400000SVN30000E3GGSL
NJARET21070-32903-12712-60000096D0000453D0001200001GAB12000E3GGSL
NJARET21070-32903-12714-00000168D0001045D0001400000GAB14000E3GGSL
NJARET21070-32903-12718-80000042D0000378D0000100000GAB18000E3GGSL
NJARET21070-32903-12818-50000030D0000179D0000800000VNP18000E3GGSL
NJARET21070-32903-12824-60000042D0000319D0001900001VNP24000E3GGSL
NJARET21070-32903-12830-70000024D0000240D0000400000VNP30000E3GGSL
NJARET21070-32903-30392-60000096D0000226D0002000000CNA08000E3GGSL
NJARET21070-32903-35947-30000156D0000562D0001300001CNA10000E3GGSL
NJARET21070-32903-40400-50000012D0000052D0000100000LIA10000A3GGSL
NJARET21070-32903-40493-70000120D0000317D0004300000LIA08000B9GGSL
NJARET21070-32903-41717-30000168D0001318D0001100001LIA14000B9GGSL
NJARET21070-32903-41842-20000030D0000281D0002800000VNP30000A3GGSL
NJARET21070-32903-42050-00000012D0000294D0000200000LIA24000A3GGSL
NJARET21070-32903-45170-20000108D0000881D0001000004LIA14000A3GGSL
NJARET21070-32903-45342-30000012D0000100D0001000000VNP24000A3GGSL
NJARET21070-32903-45788-90000006D0000147D0001400000LIA24000B9GGSL
NJARET21070-32903-47208-00000180D0001158D0000700000LIA12000A3GGSL
NJARET21070-32903-48538-70000012D0000220D0001200000LIA20000B9GGSL
NJARET21070-32903-50763-80000132D0000520D0000600004SLI12000E3GGSL
NJARET21070-32903-50764-50000072D0000271D0001200000SLI14000B9GGSL
NJARET21070-32903-50766-90000004D0000152D0000000000TEA24000G2GGSL
NJARET21070-32903-50767-60000060D0000221D0000100000SLI12000A3GGSL
NJARET21070-32903-50794-20000012D0000032D0001200000SLI12000B9GGSL
NJARET21070-32903-50802-40000084D0000354D0000200001SLI14000E3GGSL
NJARET21070-32903-50803-10000036D0000135D0001000000SLI14000A3GGSL
NJARET21070-32903-56391-70000204D0000761D0000300000HSI10008A1GGSL
NJARET21070-32903-57235-30000030D0000113D0000000000VNP30000B9GGSL
NJARET21070-32903-61636-10000012D0000045D0002400005HSI10008B6GGSL
NJARET21070-32903-72233-80000012D0000052D0000300003LIA10000B9GGSL
NJARET21070-32903-75051-50000036D0000168D0000600000SLI17000A3GGSL
NJARET21070-32903-75057-70000012D0000056D0000700000SLI17000B9GGSL
NJARET21070-32903-75070-60000006D0000043D0000400000SLI20000A3GGSL
NJARET21070-32903-75081-20000006D0000043D0000700000SLI20000B9GGSL
NJARET21070-32903-75089-80000012D0000107D0001000000SLI24000B9GGSL
NJARET21070-32903-91321-70000004D0000152D0000000000TEA24000G8GGSL
NJARET21070-32903-91485-60000025D0000337D0002600000SPX24DBA34GGSL
NJARET21070-32903-91516-70000008D0000055D0000000000PPF1000   GGSL
NJARET21070-33200-00020-40004536D0003266D00224002243320000020GGSL
NJARET21070-33200-00544-50030596D0306572D055630310700544     GGSL
NJARET21070-33200-01191-00000832D0005882D003670010401191     GGSL
NJARET21070-33200-06527-20000898D0016155D04401009376527      GGSL
NJARET21070-33200-09020-50000332D0002321D001640000409020     GGSL
NJARET21070-33200-09142-40001128D0007885D002870019909142     GGSL
NJARET21070-33200-09293-30003364D0023519D01672004149293      GGSL
NJARET21070-33200-11321-80001188D0001576D001300003511321     GGSL
NJARET21070-33200-94182-80021288D0213306D048300234994182     GGSL
NJARET21070-33200-97242-60000024D0000190D001910000097242     GGSL
NJARET21070-33200-97457-40006578D0068477D075570223397457     GGSL
NJARET21070-33349-41444-30001056D0000213D0000900000JP4BULK   GGSL
NJARET21070-33607-01208-40000018D0000348D0000900000LT8       GGSL
NJARET21070-33607-22000-70000036D0000369D0000600000HCWM1     GGSL
NJARET21070-33607-22004-50000008D0000145D0001100000HHRP4     GGSL
NJARET21070-33607-22005-20000016D0000390D0002000000HC2       GGSL
NJARET21070-33607-22006-90000004D0000109D0002300000HBE6      GGSL
NJARET21070-33607-22075-50000004D0000374D0000200000HTC1      GGSL
NJARET21070-33607-22125-70000002D0000240D0000600001HT2EZ     GGSL
NJARET21070-33607-22255-10000001D0000160D0000000000HT4TURN   GGSL
NJARET21070-33607-22550-70000003D0000302D0003400000SRWM180   GGSL
NJARET21070-33607-51200-30000008D0000288D0000400000RC3       GGSL
NJARET21070-34411-00012-00000012D0000016D00000000008010041002GGSL
NJARET21070-34411-00775-40000006D0000040D00005000008177531001GGSL
NJARET21070-34411-01076-10000020D0000330D00010000008006041001GGSL
NJARET21070-34411-02807-00000012D0000041D00001000008210121001GGSL
NJARET21070-34411-11208-30000004D0000243D00000000008437511002GGSL
NJARET21070-34411-26203-00000006D0000079D00000000008208121001GGSL
NJARET21070-34411-74501-40000024D0000657D00027000018745011002GGSL
NJARET21070-34613-00006-50000006D0000147D0000000000LH006     GGSL
NJARET21070-34613-00013-30000012D0000103D0000000000LH013     GGSL
NJARET21070-34613-00015-70000144D0001803D0001800000LH015     GGSL
NJARET21070-34613-00017-10000012D0000103D0000100000LH017     GGSL
NJARET21070-34613-00022-50000012D0000182D0000600003LH022     GGSL
NJARET21070-34613-00048-50000006D0000077D0000500001TP48      GGSL
NJARET21070-34613-00127-70000006D0000093D0000000000LH127     GGSL
NJARET21070-34613-00225-00000450D0002372D0014400000225       GGSL
NJARET21070-34613-00325-70000450D0003726D0016100001325       GGSL
NJARET21070-34613-00350-90000012D0000052D0000000000350       GGSL
NJARET21070-34613-00407-00000012D0000052D0000300000CVS407    GGSL
NJARET21070-34613-00409-40000024D0000133D0000200001CVS409    GGSL
NJARET21070-34613-00411-70000012D0000120D0000100000CVS411    GGSL
NJARET21070-34613-00412-40000012D0000128D0000100001CVS412    GGSL
NJARET21070-34613-00425-40000450D0004941D0015200001425       GGSL
NJARET21070-34613-00440-70000080D0000444D0000200000440HD     GGSL
NJARET21070-34613-00443-80000025D0000008D0000000000CVS004DL  GGSL
NJARET21070-34613-00540-40000080D0000586D0000100000540HD     GGSL
NJARET21070-34613-00550-30000024D0000083D0000000000550BL     GGSL
NJARET21070-34613-00551-00000012D0000042D0000700002551BL     GGSL
NJARET21070-34613-00553-40000096D0000332D0000500002553BL     GGSL
NJARET21070-34613-00640-10000040D0000366D0000400000640HD     GGSL
NJARET21070-34613-00803-00000240D0000269D0002400001SS3       GGSL
NJARET21070-34613-00804-70000300D0000483D0000200000SS4       GGSL
NJARET21070-34613-00805-40000800D0001480D0001900002SS5       GGSL
NJARET21070-34613-00807-80000010D0000065D0000500000SS7HD     GGSL
NJARET21070-34613-00808-50000010D0000070D0000300000SS8HD     GGSL
NJARET21070-34613-00809-20000020D0000012D0000800000SS6HD     GGSL
NJARET21070-34613-00820-70000012D0000104D0000000000820       GGSL
NJARET21070-34613-00922-80000012D0000169D0000100000922       GGSL
NJARET21070-34613-00924-20000012D0000213D0000000000924       GGSL
NJARET21070-34613-01064-40000006D0000072D00061000001064      GGSL
NJARET21070-34613-01150-40000060D0000231D00015000041150PDQ   GGSL
NJARET21070-34613-01161-00000048D0000156D00006000001161PDQ   GGSL
NJARET21070-34613-01180-10000024D0000063D00008000061180PDQ   GGSL
NJARET21070-34613-03038-30000036D0000190D00002000002104BL    GGSL
NJARET21070-34613-03105-20000024D0000291D00001000003105      GGSL
NJARET21070-34613-03110-60000006D0000047D00000000003110      GGSL
NJARET21070-34613-03344-50000012D0000282D00001000003344      GGSL
NJARET21070-34613-04803-60000015D0000123D0000200000U4803     GGSL
NJARET21070-34613-04830-20000006D0000072D00023000024830      GGSL
NJARET21070-34613-04850-00000024D0000232D00003000023104BL    GGSL
NJARET21070-34613-04851-70000030D0000298D00003000034851BL    GGSL
NJARET21070-34613-04853-10000036D0000357D00001000014853BL    GGSL
NJARET21070-34613-04855-50000024D0000396D00000000008402BL    GGSL
NJARET21070-34613-04856-20000024D0000117D00000000008131BL    GGSL
NJARET21070-34613-04859-30000018D0000206D00002000023378BL    GGSL
NJARET21070-34613-04870-80000048D0000601D0002000004LH015BL   GGSL
NJARET21070-34613-05017-60000084D0000944D00002000005017BL    GGSL
NJARET21070-34613-05171-50000006D0000097D00000000005171      GGSL
NJARET21070-34613-05945-20000006D0000174D00028000005945      GGSL
NJARET21070-34613-07156-00000012D0000171D00001000017156BL    GGSL
NJARET21070-34613-07161-40000060D0000392D00003000017161BL    GGSL
NJARET21070-34613-07162-10000036D0000235D00001000017162BL    GGSL
NJARET21070-34613-07378-60000012D0000081D00000000007378BL    GGSL
NJARET21070-34613-07379-30000012D0000141D00000000007379BL    GGSL
NJARET21070-34613-08055-50000006D0000177D00000000008055      GGSL
NJARET21070-34613-08131-60000006D0000029D00000000008131      GGSL
NJARET21070-34613-08338-90000006D0000192D00000000008338      GGSL
NJARET21070-34613-08975-60000003D0000161D00000000008975      GGSL
NJARET21070-34613-09509-20000036D0000175D00001000019509      GGSL
NJARET21070-34613-18050-70000096D0000650D00003000028050BL    GGSL
NJARET21070-34613-34004-80000125D0000026D0000500001CVS004    GGSL
NJARET21070-34613-34006-20000100D0000033D0000200000CVS006    GGSL
NJARET21070-34613-34007-90000100D0000034D0000300003CVS007    GGSL
NJARET21070-34613-34008-60000100D0000047D0000400001CVS008    GGSL
NJARET21070-34613-34009-30000050D0000030D0000700004CVS009    GGSL
NJARET21070-34613-34010-90000125D0000089D0000300002CVS010    GGSL
NJARET21070-34613-34012-30000075D0000083D0000200000CVS012    GGSL
NJARET21070-34613-34014-70000100D0000146D0000700000CVS014    GGSL
NJARET21070-34613-59738-10000060D0001770D005710057159738     GGSL
NJARET21070-34613-59739-80000043D0001328D005260046259739     GGSL
NJARET21070-34613-59740-40000058D0001765D004850046359740     GGSL
NJARET21070-34613-59741-10000048D0001387D006280050159741     GGSL
NJARET21070-34613-59946-00000019D0001211D002740019159946     GGSL
NJARET21070-34613-59947-70000028D0002129D002740019259947     GGSL
NJARET21070-34613-60479-90000012D0000266D000910000060479A    GGSL
NJARET21070-34613-65497-80000107D0003095D005720052665497     GGSL
NJARET21070-34613-65498-50000077D0002278D004640042965498     GGSL
NJARET21070-34613-65499-20000040D0001175D002240022665499     GGSL
NJARET21070-34613-65677-40000139D0004436D003520031765677     GGSL
NJARET21070-34613-65678-10000093D0003075D004800047865678     GGSL
NJARET21070-34613-65679-80000068D0002256D006630055965679     GGSL
NJARET21070-34613-65680-40000022D0000712D005480044065680     GGSL
NJARET21070-34613-65681-10000052D0001696D006360052465681     GGSL
NJARET21070-34613-65682-80000066D0001995D005360043565682     GGSL
NJARET21070-34613-65767-20000048D0001497D001570013165767     GGSL
NJARET21070-34613-69884-20000015D0000904D000630002069884     GGSL
NJARET21070-34613-69885-90000011D0000713D001670010669885     GGSL
NJARET21070-34613-69886-60000014D0000840D001000006269886     GGSL
NJARET21070-34613-70013-20000012D0000072D000010000070013     GGSL
NJARET21070-34613-70159-70000036D0000430D00001000007159BL    GGSL
NJARET21070-34613-70230-30000024D0000127D000000000070230BL   GGSL
NJARET21070-34613-70708-70000012D0000029D000030000070708     GGSL
NJARET21070-34613-70741-40000015D0000365D000000000070201BL   GGSL
NJARET21070-34613-70791-90000005D0000168D000000000070285BL   GGSL
NJARET21070-34613-91128-60000030D0000199D000030000391128     GGSL
NJARET21070-34613-91146-00000020D0000081D000000000091146     GGSL
NJARET21070-35000-00163-40000016D0000025D0008800000US04250A  GGSL
NJARET21070-35000-05361-90003820D0002636D0028400022105375    GGSL
NJARET21070-35000-05364-00003144D0003270D0000000000105374    GGSL
NJARET21070-35000-14112-50000486D0002406D003480005914477     GGSL
NJARET21070-35000-14120-00000306D0001515D005300007814478     GGSL
NJARET21070-35000-14328-00000210D0001040D003570002114483     GGSL
NJARET21070-35000-14424-90000324D0000340D000000000014424     GGSL
NJARET21070-35000-44627-50001380D0001449D0000800000144630    GGSL
NJARET21070-35000-44673-20002889D0004339D000800000544673     GGSL
NJARET21070-35000-44674-90000009D0000019D000610000044674     GGSL
NJARET21070-35000-44678-70000711D0001072D000260000044678     GGSL
NJARET21070-35000-45038-50000279D0000598D0009200041US04232A  GGSL
NJARET21070-35000-45041-50000612D0001316D0002400005US04229A  GGSL
NJARET21070-35000-45072-20000009D0000035D0000200001US04274A  GGSL
NJARET21070-35000-45118-40000963D0002070D0019000002US04268A  GGSL
NJARET21070-35000-45816-20000255D0001543D0015500041MX04966A  GGSL
NJARET21070-35000-46057-60000016D0000025D0022300000US04248A  GGSL
NJARET21070-35000-46413-20000980D0001029D000450000046413     GGSL
NJARET21070-35000-47041-60000126D0000340D0014600000MX06157A  GGSL
NJARET21070-35000-47805-40000432D0001020D000500000047805     GGSL
NJARET21070-35000-49860-10000006D0000021D000590000049860     GGSL
NJARET21070-35000-49861-80000624D0001485D000590000049861     GGSL
NJARET21070-35000-49874-80000008D0000045D000690000049874     GGSL
NJARET21070-35000-51119-50000024D0000068D0022500001151119    GGSL
NJARET21070-35000-53030-10000468D0001340D0002400000153043    GGSL
NJARET21070-35000-53032-50002334D0005879D0000200002153041    GGSL
NJARET21070-35000-53058-50008604D0040297D031490206453058     GGSL
NJARET21070-35000-53060-80001744D0008146D016460013153060     GGSL
NJARET21070-35000-53099-80002706D0006224D030020034253099     GGSL
NJARET21070-35000-53122-30003456D0020922D045370133853122     GGSL
NJARET21070-35000-55190-00000036D0000108D0012200009155190    GGSL
NJARET21070-35000-96987-30000498D0003013D0051100204MX06813A  GGSL
NJARET21070-35000-97018-30000576D0003709D0054700089US06329A  GGSL
NJARET21070-35000-97301-60000004D0000027D0018700000US06489A  GGSL
NJARET21070-35000-97335-10000836D0004999D0155200192US06517A  GGSL
NJARET21070-35000-97336-80002508D0014998D0099700320US06516A  GGSL
NJARET21070-35000-97337-50000036D0000215D0004100000US06515A  GGSL
NJARET21070-35000-97343-60000450D0001058D0074900006US06522A  GGSL
NJARET21070-35000-98324-40000548D0002685D0034900005US07139A  GGSL
NJARET21070-35000-98595-80000078D0000353D0004500000US07369A  GGSL
NJARET21070-35000-98601-60000054D0000116D0010800000US07368A  GGSL
NJARET21070-35000-98631-30002040D0002101D0000000000MX07180A  GGSL
NJARET21070-35000-98635-10000528D0000544D0000000000MX07179A  GGSL
NJARET21070-35110-01900-00000828D0006819D000660006401900     GGSL
NJARET21070-35110-01903-10000144D0001368D000480000001903     GGSL
NJARET21070-35307-00404-80000024D0000100D0000600002404       GGSL
NJARET21070-35307-00808-40000036D0000096D0000500000808       GGSL
NJARET21070-35307-00810-70000012D0000025D0000100000810       GGSL
NJARET21070-35307-00816-90000060D0000096D0002200002816       GGSL
NJARET21070-35307-00818-30000024D0000042D0000800000818       GGSL
NJARET21070-35307-00819-00000060D0000118D0005300001819       GGSL
NJARET21070-35307-00820-60000048D0000078D0001900001820       GGSL
NJARET21070-35307-00828-20000048D0000115D0001000000828       GGSL
NJARET21070-35307-00829-90000072D0000233D0001300000829       GGSL
NJARET21070-35307-00834-30000180D0000534D0000000000834       GGSL
NJARET21070-35307-00835-00000108D0000657D0001100000835       GGSL
NJARET21070-35307-00838-10000060D0000185D0000700000838       GGSL
NJARET21070-35307-00841-10000324D0000651D0003400002841       GGSL
NJARET21070-35307-00843-50000084D0000244D0002800000843       GGSL
NJARET21070-35307-00844-20000348D0000849D0000600003844       GGSL
NJARET21070-35307-00846-60000156D0000530D0006000000846       GGSL
NJARET21070-35307-00848-00000168D0000368D0002600000848       GGSL
NJARET21070-35307-00857-20000264D0001512D0000100002857       GGSL
NJARET21070-35307-00859-60000048D0000172D0000000000859       GGSL
NJARET21070-35307-00861-90000156D0000417D0004000000861       GGSL
NJARET21070-35307-00864-00000012D0000047D0000000000864       GGSL
NJARET21070-35307-00869-50000012D0000121D0001100001869       GGSL
NJARET21070-35307-00874-90000144D0000229D0003300000874       GGSL
NJARET21070-35307-00877-00000084D0000135D0001500004877       GGSL
NJARET21070-35307-00967-80000012D0000024D0000000000967       GGSL
NJARET21070-35307-00971-50000012D0000063D0001300000971       GGSL
NJARET21070-35307-00972-20000024D0000135D0001600001972       GGSL
NJARET21070-35307-00977-70000060D0000171D0000500000977       GGSL
NJARET21070-35307-00979-10000072D0000060D0000000000979       GGSL
NJARET21070-35307-00980-70000048D0000054D0002000001980       GGSL
NJARET21070-35307-00985-20000024D0000057D0000100001985       GGSL
NJARET21070-35307-00987-60000060D0000225D0004500000987       GGSL
NJARET21070-35307-01025-40000012D0000022D00004000001025      GGSL
NJARET21070-35307-01035-30000048D0000132D00004000001035      GGSL
NJARET21070-35307-01045-20000048D0000216D00009000001045      GGSL
NJARET21070-35307-01050-60000048D0000265D00000000001050      GGSL
NJARET21070-35307-01250-00000048D0000099D00011000001250      GGSL
NJARET21070-35307-01601-00000006D0000079D00002000011601      GGSL
NJARET21070-35307-01618-80000006D0000038D00007000001618      GGSL
NJARET21070-35307-01635-50000006D0000096D00000000001635      GGSL
NJARET21070-35307-01640-90000018D0000125D00005000011640      GGSL
NJARET21070-35307-01810-60000024D0000119D00001000011810      GGSL
NJARET21070-35307-01817-50000006D0000050D000010000118176     GGSL
NJARET21070-35307-01830-40000006D0000104D00001000001830      GGSL
NJARET21070-35307-01845-80000048D0000556D00001000001845      GGSL
NJARET21070-35307-01880-90000012D0000299D00011000001880      GGSL
NJARET21070-35951-07000-00000396D0004212D000670000307000     GGSL
NJARET21070-35951-07009-30000060D0001337D000110000007009     GGSL
NJARET21070-35951-07011-60000020D0001404D000330000207011     GGSL
NJARET21070-36151-46825-30000010D0000276D00028000022646825   GGSL
NJARET21070-36241-66300-10000030D0000201D008620000274297     GGSL
NJARET21070-36241-75610-90000408D0002546D000000000077617     GGSL
NJARET21070-36348-00645-90000006D0000098D00004000000645      GGSL
NJARET21070-36348-00745-60000005D0000126D00011000000745      GGSL
NJARET21070-36348-01079-10000001D0000042D00033000001079      GGSL
NJARET21070-36434-11000-80000018D0000188D00063000016011000   GGSL
NJARET21070-36434-12340-40000012D0000026D00000000006012340   GGSL
NJARET21070-36434-12342-80000078D0000518D00019000026012342   GGSL
NJARET21070-36434-12346-60000084D0000399D00055000016012346   GGSL
NJARET21070-36434-12351-00000006D0000028D00000000006012351   GGSL
NJARET21070-36434-12353-40000060D0001000D00026000026012353   GGSL
NJARET21070-36434-12362-60000010D0000080D00003000001012362   GGSL
NJARET21070-36434-12420-30000120D0001329D00059000001012420   GGSL
NJARET21070-36434-12700-60000432D0003826D00152000131012700   GGSL
NJARET21070-36434-12701-30000018D0000150D00003000006012701   GGSL
NJARET21070-36434-12702-00000042D0000349D00000000006012702   GGSL
NJARET21070-36434-12704-40000012D0000100D00000000006012704   GGSL
NJARET21070-36434-12705-10000012D0000103D00001000006012705   GGSL
NJARET21070-36434-12720-40000216D0001368D00090000011012720   GGSL
NJARET21070-36434-13001-30000036D0000182D00055000001013001   GGSL
NJARET21070-36434-13700-50000084D0000734D00053000011032700   GGSL
NJARET21070-36434-13825-50000018D0000201D00020000006013825   GGSL
NJARET21070-36434-15000-40000030D0001021D00064000011015000   GGSL
NJARET21070-36434-15004-20000018D0000599D00000000001015004   GGSL
NJARET21070-36434-15020-20000060D0001050D00069000001015020   GGSL
NJARET21070-36434-15030-10000018D0000397D00055000001015030   GGSL
NJARET21070-36434-15040-00000006D0000065D00062000001015040   GGSL
NJARET21070-36434-15060-80000012D0000189D00038000001015050   GGSL
NJARET21070-36434-15060-80000066D0001051D00013000001015060   GGSL
NJARET21070-36434-15070-70000006D0000088D00047000001015070   GGSL
NJARET21070-36434-17000-20000120D0005677D00040000041017000   GGSL
NJARET21070-36434-17010-10000012D0000282D00095000091017010   GGSL
NJARET21070-36434-17020-00000102D0001619D00019000011017020   GGSL
NJARET21070-36434-17051-40000024D0000308D00005000001017051   GGSL
NJARET21070-36434-18037-70000012D0000103D00008000001018037   GGSL
NJARET21070-36434-22309-80000012D0000045D00000000006022309   GGSL
NJARET21070-36434-22318-00000072D0000297D00043000006022318   GGSL
NJARET21070-36434-22341-80000024D0000260D00002000001022341   GGSL
NJARET21070-36434-22728-70000006D0000077D00000000006022728   GGSL
NJARET21070-36434-28040-40000108D0001522D00007000011028040   GGSL
NJARET21070-37000-31836-10001725D0012092D005450000031836     GGSL
NJARET21070-37000-92815-70000036D0000328D000000000092815     GGSL
NJARET21070-37321-00022-80002568D0016433D0012900129022       GGSL
NJARET21070-37321-00023-50000072D0001525D0000500005023       GGSL
NJARET21070-37321-00024-20000096D0001199D0000700007024       GGSL
NJARET21070-37321-00025-90002280D0019947D0020300081025       GGSL
NJARET21070-37321-00042-60000012D0000162D0000500000042       GGSL
NJARET21070-37321-00050-10000096D0000096D0000900001050       GGSL
NJARET21070-37321-00051-80000192D0002375D0001900000051       GGSL
NJARET21070-37321-00053-20000036D0000100D0000700000053       GGSL
NJARET21070-37321-00055-60000021D0000291D0001600006055       GGSL
NJARET21070-37321-00061-70000048D0000372D0000700002061       GGSL
NJARET21070-37321-00065-50000288D0001560D0010700027065       GGSL
NJARET21070-37321-00068-60000036D0000200D0000400000068       GGSL
NJARET21070-37321-00069-30000144D0001941D0001300004069       GGSL
NJARET21070-37321-00070-90000024D0000369D0000800001070       GGSL
NJARET21070-37321-00097-60000012D0000067D0000000002097       GGSL
NJARET21070-37321-00099-00000060D0000417D0000100000099       GGSL
NJARET21070-37321-00102-70000060D0000631D0001000000102       GGSL
NJARET21070-37321-00121-80000008D0000094D0004400014121       GGSL
NJARET21070-37321-00127-00000084D0000739D0008800023127       GGSL
NJARET21070-37321-00141-60000792D0003684D0007800026141       GGSL
NJARET21070-37321-00142-30000024D0000219D0001000000142       GGSL
NJARET21070-37321-00160-70000048D0000170D0001600000160       GGSL
NJARET21070-37321-00161-40000012D0000063D0000400000161       GGSL
NJARET21070-37321-00165-20000008D0000097D0000800000165       GGSL
NJARET21070-37321-00166-90000144D0000809D0000000000166       GGSL
NJARET21070-37321-00167-60000120D0000724D0004200002167       GGSL
NJARET21070-37321-00196-60001404D0007895D0005300015196       GGSL
NJARET21070-37321-00198-00000048D0000555D0000400000198       GGSL
NJARET21070-37321-00211-60000024D0000206D0000900001211       GGSL
NJARET21070-37321-00213-00000024D0000254D0000100001213       GGSL
NJARET21070-37321-00214-70002868D0015565D0044200094214       GGSL
NJARET21070-37321-00216-10000012D0000202D0000900003216       GGSL
NJARET21070-37321-00217-80000132D0001398D0001400005217       GGSL
NJARET21070-37321-00218-50000180D0002771D0019700017218       GGSL
NJARET21070-37321-00225-30000156D0000866D0000000000225       GGSL
NJARET21070-37321-00237-60000660D0008153D0000300002237       GGSL
NJARET21070-37321-00238-30001440D0012345D0007000030238       GGSL
NJARET21070-37321-00239-00000060D0001344D0000000000239       GGSL
NJARET21070-37321-00240-60000156D0002630D0000300003240       GGSL
NJARET21070-37321-00250-50000444D0002334D0003100024250       GGSL
NJARET21070-37321-00255-00000012D0000254D0000200002255       GGSL
NJARET21070-37321-00258-10000060D0000397D0000800001258       GGSL
NJARET21070-37321-00272-70000048D0000193D0000500000272       GGSL
NJARET21070-37321-00274-10000744D0004948D0001300002274       GGSL
NJARET21070-37321-00276-50000012D0000175D0000800000276       GGSL
NJARET21070-37321-00299-40000108D0000934D0000100000299       GGSL
NJARET21070-37321-00307-60000264D0001205D0000200002307       GGSL
NJARET21070-37321-00308-30000072D0000750D0002000001308       GGSL
NJARET21070-37321-00309-00000114D0001981D0000100000309       GGSL
NJARET21070-37321-00331-10000012D0000197D0000400003331       GGSL
NJARET21070-37321-00332-80000004D0000223D0000000000332       GGSL
NJARET21070-37321-00363-20000612D0002860D0002700004363       GGSL
NJARET21070-37321-00411-00000036D0000121D0000300000411       GGSL
NJARET21070-37321-00413-40000040D0000486D0000000000413       GGSL
NJARET21070-37321-00428-80000180D0000701D0001600015428       GGSL
NJARET21070-37321-00442-40000264D0001780D0001000009442       GGSL
NJARET21070-37321-00443-10000060D0000689D0000000000443       GGSL
NJARET21070-37321-00506-30002328D0010528D0011000044506       GGSL
NJARET21070-37321-00544-50000072D0000429D0003400000544       GGSL
NJARET21070-37321-00549-00000084D0000805D0001800000549       GGSL
NJARET21070-37321-00560-50000096D0000444D0000500000560       GGSL
NJARET21070-37321-00564-30000012D0000129D0000100001564       GGSL
NJARET21070-37321-00571-10000012D0000103D0000200000571       GGSL
NJARET21070-37321-00573-50000012D0000056D0000100000573       GGSL
NJARET21070-37321-00578-00000004D0000044D0000700000578       GGSL
NJARET21070-37321-00603-90000072D0000942D0001300000603       GGSL
NJARET21070-37321-00603-90000030D0000308D001560007560315X    GGSL
NJARET21070-37321-00609-10000072D0000761D0000100001609       GGSL
NJARET21070-37321-00611-40000028D0000729D0001300000611       GGSL
NJARET21070-37321-00612-10001032D0005419D00008000040612      GGSL
NJARET21070-37321-00613-80000064D0000887D00009000000613      GGSL
NJARET21070-37321-00622-00000012D0000040D0000100000622       GGSL
NJARET21070-37321-00631-20000024D0000097D0001300013631       GGSL
NJARET21070-37321-00651-00000040D0000542D00030000120651      GGSL
NJARET21070-37321-00655-80000072D0000490D00034000106556      GGSL
NJARET21070-37321-00680-00000324D0003183D0001400000680       GGSL
NJARET21070-37321-00681-70000012D0000166D00022000000681      GGSL
NJARET21070-37321-00687-90000024D0000326D0000000000687       GGSL
NJARET21070-37321-00688-60000012D0000081D0000400004688       GGSL
NJARET21070-37321-00691-60000036D0000310D0000100001691       GGSL
NJARET21070-37321-00692-30000092D0001208D0002100000692       GGSL
NJARET21070-37321-00692-30000005D0000060D0000900000692X      GGSL
NJARET21070-37321-00692-30000150D0001788D0000400000692150    GGSL
NJARET21070-37321-00698-50000036D0000214D0000000000698       GGSL
NJARET21070-37321-00705-00000024D0000154D0000800000705       GGSL
NJARET21070-37321-00728-90000048D0000614D0001300000728       GGSL
NJARET21070-37321-00752-40000006D0000045D0000900000752       GGSL
NJARET21070-37321-00753-10000060D0000638D0000900000753       GGSL
NJARET21070-37321-00757-90000006D0000026D0000000000757       GGSL
NJARET21070-37321-00758-60000020D0000206D0001700000758       GGSL
NJARET21070-37321-00758-60000024D0000173D000110000075824     GGSL
NJARET21070-37321-00775-30001104D0006485D0000600006775       GGSL
NJARET21070-37321-00777-70000684D0009254D0000800008777       GGSL
NJARET21070-37321-00779-10000840D0007260D0004600021779       GGSL
NJARET21070-37321-00784-50000132D0000391D0003900020784       GGSL
NJARET21070-37321-00786-90000096D0000476D0003700016786       GGSL
NJARET21070-37321-00789-00000024D0000164D0040600002789       GGSL
NJARET21070-37321-00806-40000912D0007464D0004200039806       GGSL
NJARET21070-37321-00807-10000012D0000310D0000200000807       GGSL
NJARET21070-37321-00811-80000168D0001948D0000100001811       GGSL
NJARET21070-37321-00813-20000012D0000163D0000600006813       GGSL
NJARET21070-37321-00857-60000048D0000367D0000100001857       GGSL
NJARET21070-37321-00861-30000024D0000202D0000000000861       GGSL
NJARET21070-37321-00863-70000063D0000833D0003300002863       GGSL
NJARET21070-37321-00865-10000276D0001501D0001400006865       GGSL
NJARET21070-37321-00866-80000096D0001525D0006300041866       GGSL
NJARET21070-37321-00870-50000096D0000445D0001900000870       GGSL
NJARET21070-37321-00883-50004248D0021821D0006000060883       GGSL
NJARET21070-37321-00897-20000132D0000878D0003700025897       GGSL
NJARET21070-37321-00903-00000120D0000810D0001000010903       GGSL
NJARET21070-37321-00904-70000012D0000109D0000000000904       GGSL
NJARET21070-37321-00905-40000084D0001204D0001000005905       GGSL
NJARET21070-37321-00908-50000072D0000762D0000500005908       GGSL
NJARET21070-37321-00909-20000060D0001195D0000900003909       GGSL
NJARET21070-37321-00917-70000102D0001281D0000100001917       GGSL
NJARET21070-37321-00925-20001332D0004114D0001200011925       GGSL
NJARET21070-37321-00945-00000009D0000090D0000400000945       GGSL
NJARET21070-37321-00946-70000012D0000112D0000100000946       GGSL
NJARET21070-37321-00951-10002376D0009883D0001400015951       GGSL
NJARET21070-37321-00982-50002820D0013243D0015500043982       GGSL
NJARET21070-37321-00983-20000117D0002766D0001300008983       GGSL
NJARET21070-37321-00987-00000024D0000238D0000800000987       GGSL
NJARET21070-37321-00991-70000024D0000166D0000000000991       GGSL
NJARET21070-37321-00992-40000048D0000470D0000600000992       GGSL
NJARET21070-37321-01972-50000012D0000052D00000000001972      GGSL
NJARET21070-37321-02061-50000024D0000459D00040000192061      GGSL
NJARET21070-37321-02360-90000024D0000176D00019000182360      GGSL
NJARET21070-37321-02361-60000036D0000363D00009000122361      GGSL
NJARET21070-37321-02362-30000116D0002331D00007000072362      GGSL
NJARET21070-37321-02392-00000021D0000714D00007000002392      GGSL
NJARET21070-37321-02761-40000006D0000131D00006000002761      GGSL
NJARET21070-37321-03081-20000009D0000188D00003000013081      GGSL
NJARET21070-37321-03082-90000009D0000184D00005000033082      GGSL
NJARET21070-37321-04281-50000030D0000545D00000000004281      GGSL
NJARET21070-37321-05121-30000060D0000376D00005000005121      GGSL
NJARET21070-37321-05141-10000008D0000294D00011000005141      GGSL
NJARET21070-37321-05611-90000012D0000064D00000000005611      GGSL
NJARET21070-37321-05612-60000288D0002907D00000000005612      GGSL
NJARET21070-37321-05710-90000012D0000080D00007000005710      GGSL
NJARET21070-37321-07460-10000048D0000339D00006000007460      GGSL
NJARET21070-37321-07461-80000012D0000141D00004000007461      GGSL
NJARET21070-37321-07462-50000012D0000397D00002000007462      GGSL
NJARET21070-37321-07464-90000024D0000353D00008000007464      GGSL
NJARET21070-37321-07465-60000064D0002175D00011000007465      GGSL
NJARET21070-37321-07466-30000020D0001531D00015000007466      GGSL
NJARET21070-37321-07468-70000030D0000763D00061000007468      GGSL
NJARET21070-37321-07492-20000108D0002057D00023000017492      GGSL
NJARET21070-37321-07493-90000003D0000060D00005000007493      GGSL
NJARET21070-37321-07497-70000216D0001001D00010000017497      GGSL
NJARET21070-37321-07498-40000048D0000516D00018000007498      GGSL
NJARET21070-37321-07504-20000006D0000158D00000000007504      GGSL
NJARET21070-37321-08636-90000030D0000377D00028000008636      GGSL
NJARET21070-37321-08752-60000012D0000151D00000000008752      GGSL
NJARET21070-37321-08941-40000004D0000105D00005000008941      GGSL
NJARET21070-37321-45100-60000012D0000060D000050000045100     GGSL
NJARET21070-37321-45672-80000096D0000653D000020000045672     GGSL
NJARET21070-37321-46125-80000010D0000021D000020000046125     GGSL
NJARET21070-37321-46401-30000012D0000077D000000000046401     GGSL
NJARET21070-37321-46640-60000048D0000289D000190000046640     GGSL
NJARET21070-37321-60204-00000020D0000437D000020000060205     GGSL
NJARET21070-37321-60207-10000006D0000322D000180000060207     GGSL
NJARET21070-37321-60211-80000040D0000413D000030000060212     GGSL
NJARET21070-37321-60217-00000010D0000576D000050000060217     GGSL
NJARET21070-37321-60221-70000040D0000413D000050000060222     GGSL
NJARET21070-37321-60224-80000010D0000222D000160000060225     GGSL
NJARET21070-37321-60251-40000030D0000268D000070000060252     GGSL
NJARET21070-37321-60257-60000002D0000114D000080000260257     GGSL
NJARET21070-37321-60271-20000010D0000099D000070000060272     GGSL
NJARET21070-37321-60318-40000018D0000530D000200000060318     GGSL
NJARET21070-37321-60360-30000012D0000172D000050000060360     GGSL
NJARET21070-37321-60360-30000219D0002924D004690000060360X    GGSL
NJARET21070-37321-60365-80000025D0000764D001600000060365     GGSL
NJARET21070-37321-60414-30000003D0000109D000750000360414     GGSL
NJARET21070-37321-60420-40000010D0000148D003910000060420     GGSL
NJARET21070-37321-60424-20000008D0000321D000950000060424     GGSL
NJARET21070-37321-60430-30000028D0000373D005470000060430     GGSL
NJARET21070-37321-60434-10000004D0000124D001330000060434     GGSL
NJARET21070-37321-60440-20000004D0000047D004150000060440     GGSL
NJARET21070-37321-60444-00000004D0000114D001250006060444     GGSL
NJARET21070-37321-60447-10000008D0000103D000580001860448X    GGSL
NJARET21070-37321-60450-10000036D0000249D000000000060450     GGSL
NJARET21070-37321-60460-00000010D0000114D001050000060460     GGSL
NJARET21070-37321-60464-80000016D0000469D000330000060464     GGSL
NJARET21070-37321-60476-10000048D0000605D003330002060478X    GGSL
NJARET21070-37321-60490-70000169D0002831D000770000060490     GGSL
NJARET21070-37321-60514-00000004D0000056D000000000060514     GGSL
NJARET21070-37321-60514-00000164D0001861D000000000060516X    GGSL
NJARET21070-37321-60613-00000082D0000542D000510000460614X    GGSL
NJARET21070-37321-60728-10000035D0000453D014310000060728     GGSL
NJARET21070-37321-61118-90000018D0000203D000050000061120     GGSL
NJARET21070-38313-00008-00000042D0000835D0005100000BP3130    GGSL
NJARET21070-38313-00060-80000090D0001813D0007000000BP3160    GGSL
NJARET21070-38313-00080-60000102D0002159D0006400001BP3180D   GGSL
NJARET21070-38313-00081-30000030D0000310D0004400001AC7220    GGSL
NJARET21070-38313-00217-60000024D0000473D0002800000FS4350    GGSL
NJARET21070-38313-00407-10000018D0000320D0003500000RS7041    GGSL
NJARET21070-38313-00413-20000001D0000018D0004800000 RS7120   GGSL
NJARET21070-38313-00524-50000018D0000473D0002100000SL3310    GGSL
NJARET21070-38313-01010-20000438D0002284D0010900013CT3010    GGSL
NJARET21070-38313-01020-10000162D0000854D0007600015CT3020    GGSL
NJARET21070-38313-01030-00000072D0000381D0009400001CT3030    GGSL
NJARET21070-38313-01040-90000006D0000032D0001200000CT3040    GGSL
NJARET21070-38313-03214-20000012D0000141D0005700006BP3214D   GGSL
NJARET21070-38313-03334-70000006D0000073D0000100000AP3334    GGSL
NJARET21070-38313-03470-20000007D0000162D0000000000 FL3470   GGSL
NJARET21070-38313-03470-20000006D0000201D0000000000FL3470    GGSL
NJARET21070-38313-03720-80000060D0000399D0003200004CT3720    GGSL
NJARET21070-38313-03740-60000024D0000161D0008400001CT3740    GGSL
NJARET21070-38313-03750-50000030D0000201D0005500003CT3750    GGSL
NJARET21070-38313-04436-70000013D0000284D0001200003 FL3460   GGSL
NJARET21070-38313-04438-10000001D0000024D0002500004 FL3420   GGSL
NJARET21070-38313-06830-10000001D0000083D0001000009 TP6830   GGSL
NJARET21070-38313-06970-40000048D0002052D0000000000AH6970    GGSL
NJARET21070-38313-07245-20000018D0000313D0002400000RS7245    GGSL
NJARET21070-38313-07395-40000005D0000096D0001400001 RS7395   GGSL
NJARET21070-38313-32440-70000008D0000050D0000000000CT3244    GGSL
NJARET21070-38313-53841-50000016D0000926D0000900000TP3841    GGSL
NJARET21070-38313-63460-50000018D0000409D0001400000LR3460    GGSL
NJARET21070-38313-63760-60000066D0000783D0002600000GS3760    GGSL
NJARET21070-38313-64250-10000090D0001993D0004400000BP4250    GGSL
NJARET21070-38313-70422-30000006D0000093D0000100000AC7041    GGSL
NJARET21070-38313-83911-60000024D0000677D0001100000HS3911    GGSL
NJARET21070-38398-00884-10000024D0000077D00004000008840      GGSL
NJARET21070-38398-40154-30000012D0000106D000010000040154     GGSL
NJARET21070-38858-05649-80000006D0000033D000000000037510609  GGSL
NJARET21070-38858-06770-80000020D0000250D000020000037760409  GGSL
NJARET21070-38858-06771-50000004D0000073D000010000037770409  GGSL
NJARET21070-38858-06777-70000006D0000112D000000000037830609  GGSL
NJARET21070-38858-06935-10000036D0000055D000050000096701200  GGSL
NJARET21070-38858-06936-80000108D0000686D000090000096801200  GGSL
NJARET21070-38858-07793-60000036D0000590D000000000067161200  GGSL
NJARET21070-38858-08322-70000012D0000209D00001000001210600   GGSL
NJARET21070-38858-09823-80000006D0000056D00002000009333061184GGSL
NJARET21070-38858-10977-40000001D0000037D00005000001404011080GGSL
NJARET21070-38858-10979-80000012D0000030D00001000011406121080GGSL
NJARET21070-38858-10980-40000010D0000080D00001000011407101080GGSL
NJARET21070-38858-10981-10000002D0000073D00000000001404011081GGSL
NJARET21070-38858-10983-50000216D0000534D00006000011406121081GGSL
NJARET21070-38858-10995-80000024D0000073D00001000011406121084GGSL
NJARET21070-38858-10996-50000010D0000080D00002000001407101084GGSL
NJARET21070-38858-11000-80000010D0000080D00001000001407101085GGSL
NJARET21070-38858-11006-00000010D0000088D0000200000141310070 GGSL
NJARET21070-38858-11022-00000030D0000253D0000000000142410070 GGSL
NJARET21070-38858-11023-70000012D0000033D00004000041425121087GGSL
NJARET21070-38858-11293-40000008D0000119D0000000000128004070 GGSL
NJARET21070-38858-11298-90000006D0000079D0000000000129106070 GGSL
NJARET21070-38858-11299-60000006D0000035D0001100000129006080 GGSL
NJARET21070-38858-11312-20000024D0000226D0000400000122712070 GGSL
NJARET21070-38858-11314-60000012D0000082D0000300000123112070 GGSL
NJARET21070-38858-11726-70000010D0000054D0000000000142710070 GGSL
NJARET21070-38858-11838-70000008D0000145D0000000000128704070 GGSL
NJARET21070-38858-12008-30000012D0000046D0000200000752069183 GGSL
NJARET21070-38858-13573-50000012D0000411D00007000003777022000GGSL
NJARET21070-38858-13575-90000060D0000364D0000000000671712769 GGSL
NJARET21070-38858-13576-60000060D0000439D0000300000671812769 GGSL
NJARET21070-38858-13584-10000156D0000640D000010000196850609  GGSL
NJARET21070-38858-13586-50000084D0000362D0000400004968506579 GGSL
NJARET21070-38858-13588-90000102D0000440D0000200002968506425 GGSL
NJARET21070-38858-14005-00000006D0000056D0000400000126106070 GGSL
NJARET21070-38858-14006-70000028D0000327D000000000035490409  GGSL
NJARET21070-38858-54193-20000012D0000072D000020000040481209U GGSL
NJARET21070-38858-60597-90000010D0000089D000050000096521000  GGSL
NJARET21070-38858-60629-70000036D0000132D0000000000129736070 GGSL
NJARET21070-38902-10120-40000024D0000126D0001700000 123184   GGSL
NJARET21070-38902-10120-40000024D0000135D0003400001123184    GGSL
NJARET21070-39044-16387-70000024D0000192D000000000016387     GGSL
NJARET21070-39526-38165-20000192D0005765D00062000003201C503  GGSL
NJARET21070-39526-38169-00000180D0002740D00068000033201C502  GGSL
NJARET21070-39526-38177-50000030D0000245D00051000023201C501  GGSL
NJARET21070-39526-38178-20000003D0000174D0001600007 3201L162 GGSL
NJARET21070-39526-38178-20000037D0003259D00002000003201L162  GGSL
NJARET21070-39526-38250-50000036D0004187D00038000033201L150  GGSL
NJARET21070-39526-38571-10000035D0006351D00028000003201C115  GGSL
NJARET21070-39526-38988-70000006D0001940D00062000003201C041  GGSL
NJARET21070-39526-45010-50000060D0001264D00033000003201C541  GGSL
NJARET21070-39526-60336-50000003D0000519D00019000003301C144  GGSL
NJARET21070-39526-60552-90000002D0000535D00017000003301R123  GGSL
NJARET21070-40232-01321-80000024D0000952D0000200001 01324    GGSL
NJARET21070-40232-01325-60000132D0004364D0000600000 01322    GGSL
NJARET21070-40235-75032-50000036D0000174D00030000001Q30S6P   GGSL
NJARET21070-40235-75256-50000002D0000041D000100000025G30S    GGSL
NJARET21070-40235-75384-50000004D0000069D00026000001GSAWA    GGSL
NJARET21070-41294-42464-60001038D0009664D000150000042464     GGSL
NJARET21070-41294-97348-90000018D0000055D000750000097348     GGSL
NJARET21070-41333-00149-40000432D0001595D003230000003661     GGSL
NJARET21070-41333-00151-70000320D0001133D003320000004161     GGSL
NJARET21070-41333-00213-20005676D0062350D001900000000232     GGSL
NJARET21070-41333-00276-70000048D0000512D000050000000073     GGSL
NJARET21070-41333-00278-10000036D0000384D000050000066122     GGSL
NJARET21070-41333-00406-80001332D0001524D002080000066150     GGSL
NJARET21070-41333-01310-70000468D0003664D000000000066203     GGSL
NJARET21070-41333-01548-40000036D0000495D000560000001548     GGSL
NJARET21070-41333-03255-90000216D0000642D000680000003255     GGSL
NJARET21070-41333-03256-60000120D0000701D001080000003256     GGSL
NJARET21070-41333-03257-30000240D0001303D000840000003257     GGSL
NJARET21070-41333-03258-00000072D0000770D000240000003258     GGSL
NJARET21070-41333-03263-40000072D0000205D001640000003263     GGSL
NJARET21070-41333-03264-10000048D0000280D000130000003264     GGSL
NJARET21070-41333-03265-80000168D0000912D001160000003265     GGSL
NJARET21070-41333-03266-50000108D0001156D002090000003266     GGSL
NJARET21070-41333-03501-70000048D0000420D000320000077564     GGSL
NJARET21070-41333-03575-80000540D0007290D002120000003575     GGSL
NJARET21070-41333-04864-20000096D0000762D000430000004964     GGSL
NJARET21070-41333-09006-10000312D0002304D000000000009006     GGSL
NJARET21070-41333-10110-10000072D0000063D001120000066175     GGSL
NJARET21070-41333-10210-80000012D0000008D060910000001200     GGSL
NJARET21070-41333-10210-80000072D0000063D000240000003544     GGSL
NJARET21070-41333-10310-50000504D0000440D002500000003545     GGSL
NJARET21070-41333-10709-70000072D0000033D000340000066134     GGSL
NJARET21070-41333-10809-40000036D0000030D000070000066131     GGSL
NJARET21070-41333-11009-70000036D0000024D000060000066127     GGSL
NJARET21070-41333-11210-70000144D0000489D000050000066191     GGSL
NJARET21070-41333-11310-40000036D0000090D000080000066208     GGSL
NJARET21070-41333-11609-90000072D0000080D000890000011609     GGSL
NJARET21070-41333-12810-80000036D0000159D000060000066209     GGSL
NJARET21070-41333-13009-50000108D0000084D000770000066128     GGSL
NJARET21070-41333-14809-00000036D0000014D000200000066140     GGSL
NJARET21070-41333-15909-60000036D0000017D000120000066142     GGSL
NJARET21070-41333-16210-20000072D0000063D000080000066171     GGSL
NJARET21070-41333-16409-00000036D0000014D000030000066272     GGSL
NJARET21070-41333-17064-00000240D0001906D000930000017064     GGSL
NJARET21070-41333-17709-00000072D0000037D001110000017709     GGSL
NJARET21070-41333-19809-50000072D0000033D000140000066141     GGSL
NJARET21070-41333-21210-40000720D0004226D002100000066192     GGSL
NJARET21070-41333-21601-00010224D0048505D000860000003961     GGSL
NJARET21070-41333-22805-10000036D0000084D000080000066154     GGSL
NJARET21070-41333-27035-70002904D0038037D003040005800057     GGSL
NJARET21070-41333-27035-70002160D0020974D000060000000061     GGSL
NJARET21070-41333-43001-00005700D0028704D001190000103361     GGSL
NJARET21070-41333-44001-90004842D0024269D002320000213848     GGSL
NJARET21070-41333-66105-60000044D0000683D000100000066105     GGSL
NJARET21070-41333-66112-40000160D0002024D001140000066112     GGSL
NJARET21070-41333-66155-10000240D0002249D001340000066155     GGSL
NJARET21070-41333-66160-50000072D0000675D001960000066160     GGSL
NJARET21070-41333-66287-90000252D0000514D000090000066287     GGSL
NJARET21070-41333-66385-20000972D0001205D001220000066385     GGSL
NJARET21070-41333-66387-60001152D0001458D000500000003535     GGSL
NJARET21070-41333-66388-30006912D0008322D001030000003534     GGSL
NJARET21070-41333-66391-30001368D0003356D000960000066391     GGSL
NJARET21070-41333-67448-30000576D0000927D001340000067448     GGSL
NJARET21070-41333-70464-70006072D0047170D001830000170464     GGSL
NJARET21070-41333-70464-70006096D0047719D002170001192948     GGSL
NJARET21070-41333-74064-50002900D0022644D002340000003831     GGSL
NJARET21070-41333-74064-50000324D0003791D005440000093148     GGSL
NJARET21070-41333-75864-00000048D0000660D001650000001348     GGSL
NJARET21070-41333-81848-10000024D0000217D000240000082048     GGSL
NJARET21070-41333-82501-40019680D0083906D001520000003761     GGSL
NJARET21070-41333-82648-60000024D0000217D000170000082848     GGSL
NJARET21070-41333-82701-80000144D0001744D000360000077364     GGSL
NJARET21070-41333-83448-10000192D0001740D000140000083648     GGSL
NJARET21070-41333-84248-60000072D0000652D000160000084448     GGSL
NJARET21070-41333-84401-50009360D0039844D000760000004261     GGSL
NJARET21070-41333-93364-10000060D0000722D000170000019235     GGSL
NJARET21070-41333-93464-80000084D0001022D000580000019435     GGSL
NJARET21070-41525-01301-40000002D0000038D01700000004152501301GGSL
NJARET21070-42206-00202-00000020D0000026D0005800000202S      GGSL
NJARET21070-42206-00395-90000060D0000166D0004400000395S      GGSL
NJARET21070-42206-00511-30000006D0000049D0000500000511       GGSL
NJARET21070-42206-07000-50000012D0000142D00025000007000      GGSL
NJARET21070-42206-07800-10000006D0000050D00004000007800      GGSL
NJARET21070-42206-09000-30000020D0000150D00058000029000      GGSL
NJARET21070-42206-09001-00000030D0000167D00045000009001      GGSL
NJARET21070-42206-14057-90000048D0000579D00023000009535C     GGSL
NJARET21070-42206-14189-70000030D0000082D0003000000505S      GGSL
NJARET21070-42206-14200-90000040D0000206D0023500000312S      GGSL
NJARET21070-42206-14328-00000120D0000083D0005600000200C      GGSL
NJARET21070-42206-14330-30000010D0000021D000020000040        GGSL
NJARET21070-42206-14390-70000012D0000125D0001600000101       GGSL
NJARET21070-42206-14503-10000020D0000029D00063000012FMC      GGSL
NJARET21070-42206-14504-80000020D0000028D00091000002MMC      GGSL
NJARET21070-42206-14505-50000010D0000015D000020000001MC      GGSL
NJARET21070-42206-14506-20000020D0000036D000530000002MC      GGSL
NJARET21070-42206-14551-20000010D0000076D0003700000493C      GGSL
NJARET21070-42206-14571-00000030D0000144D0006500000ZBM34     GGSL
NJARET21070-42206-14572-70000040D0000186D0004500000ZBF34     GGSL
NJARET21070-42206-14599-40000012D0000178D00044000009536CH    GGSL
NJARET21070-42206-14656-40000010D0000023D000190000011MQC     GGSL
NJARET21070-42206-22261-90000018D0000188D000260000022261     GGSL
NJARET21070-42206-22300-50000006D0000068D000190000022300     GGSL
NJARET21070-42206-28639-00000012D0000171D0000100000R8639RACK GGSL
NJARET21070-42206-30200-70000020D0000123D0002100000XT200     GGSL
NJARET21070-42206-30201-40000060D0000596D0004800000XT201     GGSL
NJARET21070-42206-40260-80000132D0001008D000480000120260     GGSL
NJARET21070-42206-40301-80000010D0000117D0001600000XT301     GGSL
NJARET21070-42206-40360-50000006D0000218D0003500000XT360M    GGSL
NJARET21070-42206-44000-60000042D0000728D0004500000XT4000    GGSL
NJARET21070-42206-44100-30000012D0000268D0003600000XT4100    GGSL
NJARET21070-42206-95501-20000024D0000117D00044000009550C     GGSL
NJARET21070-42338-00106-90000001D0000088D0000000000IPCD      GGSL
NJARET21070-42338-01100-60000048D0000259D00001000011100      GGSL
NJARET21070-42338-01102-00000072D0000410D00005000001102      GGSL
NJARET21070-42338-01116-70000024D0000129D00000000001116      GGSL
NJARET21070-42338-02122-70000008D0000077D00007000012122B     GGSL
NJARET21070-42338-02173-90000002D0000094D00005000052173W     GGSL
NJARET21070-42338-03451-70000001D0000022D000530000003451     GGSL
NJARET21070-42338-03668-90000012D0000130D00000000003668      GGSL
NJARET21070-42338-03703-70000008D0000163D00000000003703      GGSL
NJARET21070-42338-03715-00000009D0000151D00006000003715      GGSL
NJARET21070-42338-03716-70000018D0000302D00026000003716      GGSL
NJARET21070-42338-03781-50000004D0000134D00003000003781      GGSL
NJARET21070-42338-04052-50000002D0000062D00000000004052      GGSL
NJARET21070-42338-04061-70000020D0000521D00017000034061      GGSL
NJARET21070-42338-04098-30000002D0000060D00003000004098      GGSL
NJARET21070-42338-04201-70000012D0000173D00005000014201      GGSL
NJARET21070-42338-04202-40000004D0000058D00003000024202      GGSL
NJARET21070-42338-04316-80000004D0000082D00000000004316T     GGSL
NJARET21070-42338-04353-30000006D0000216D00008000054353W     GGSL
NJARET21070-42338-04368-70000004D0000163D00000000004368W     GGSL
NJARET21070-42338-04369-40000016D0000765D00003000014369W     GGSL
NJARET21070-42338-04526-10000008D0000144D00001000004526      GGSL
NJARET21070-42338-04552-00000004D0000067D00001000004552A     GGSL
NJARET21070-42338-04579-70000060D0000438D00001000014579      GGSL
NJARET21070-42338-04587-20000001D0000005D00000000004587      GGSL
NJARET21070-42338-04592-60000008D0000027D00002000004592      GGSL
NJARET21070-42338-04712-80000002D0000058D00003000024712      GGSL
NJARET21070-42338-04902-30000004D0000058D00003000004902      GGSL
NJARET21070-42338-04903-00000004D0000058D00002000004903      GGSL
NJARET21070-42338-06256-50000006D0000017D00002000016256      GGSL
NJARET21070-42338-07022-50000008D0000154D00000000007022      GGSL
NJARET21070-42338-08102-30000014D0000273D00024000018102      GGSL
NJARET21070-42338-08104-70000034D0000653D00035000088104      GGSL
NJARET21070-42338-08106-10000012D0000227D00002000008106      GGSL
NJARET21070-42338-08128-30000004D0000078D00002000028128      GGSL
NJARET21070-42338-08140-50000002D0000050D00119000008140      GGSL
NJARET21070-42338-08142-90000002D0000050D00143000008142      GGSL
NJARET21070-42338-08149-80000002D0000053D00000000008149      GGSL
NJARET21070-42338-08191-70000040D0000778D00048000198191      GGSL
NJARET21070-42338-08196-20000004D0000115D00014000028196      GGSL
NJARET21070-42338-08199-30000006D0000176D00015000038199      GGSL
NJARET21070-42338-08201-30000012D0000249D00005000058201      GGSL
NJARET21070-42338-08210-50000004D0000115D00006000018210      GGSL
NJARET21070-42338-08220-40000002D0000061D00005000018220      GGSL
NJARET21070-42338-08234-10000004D0000115D00009000018234      GGSL
NJARET21070-42338-08238-90000002D0000058D00000000008238      GGSL
NJARET21070-42338-08244-00000002D0000058D00008000008244      GGSL
NJARET21070-42338-08250-10000004D0000115D00003000008250      GGSL
NJARET21070-42338-08256-30000008D0000134D00000000008256      GGSL
NJARET21070-42338-08269-30000004D0000115D00002000028269      GGSL
NJARET21070-42338-08270-90000002D0000058D00004000018270      GGSL
NJARET21070-42338-08271-60000004D0000115D00001000018271      GGSL
NJARET21070-42338-08277-80000002D0000058D00002000028277      GGSL
NJARET21070-42338-08282-20000004D0000106D00002000018282      GGSL
NJARET21070-42338-08307-20000010D0000168D00041000038307      GGSL
NJARET21070-42338-08760-50000006D0000110D00002000028760      GGSL
NJARET21070-42338-08810-70000003D0000153D0000100001PQDS      GGSL
NJARET21070-42338-08814-50000036D0000237D0000300000BPQDS     GGSL
NJARET21070-42338-09121-30000006D0000101D00005000059121      GGSL
NJARET21070-42338-09128-20000072D0000864D00003000029128      GGSL
NJARET21070-42338-09129-90000050D0001204D00003000019129      GGSL
NJARET21070-42338-09134-30000028D0000436D00007000039134      GGSL
NJARET21070-42338-09176-30000004D0000089D00008000009176      GGSL
NJARET21070-42338-09178-70000002D0000050D00007000009178      GGSL
NJARET21070-42338-09187-90000003D0000128D00000000009187      GGSL
NJARET21070-42338-12122-40000008D0000077D00004000012122F     GGSL
NJARET21070-42338-14216-80000048D0000072D00004000014216MD    GGSL
NJARET21070-42338-14221-20000024D0000086D00004000014221S     GGSL
NJARET21070-42338-14382-00000002D0000094D00000000004382A     GGSL
NJARET21070-42338-14552-70000004D0000067D00000000004552B     GGSL
NJARET21070-42338-18815-90000002D0000041D00005000028815      GGSL
NJARET21070-42338-22122-10000008D0000077D00008000012122S     GGSL
NJARET21070-42338-23352-10000006D0000065D000020000123352     GGSL
NJARET21070-42338-24417-60000016D0000077D00002000014417C     GGSL
NJARET21070-42338-24552-40000004D0000067D00000000004552G     GGSL
NJARET21070-42338-42179-90000024D0000115D000090000242179     GGSL
NJARET21070-42338-93111-30000004D0000179D000020000093111     GGSL
NJARET21070-42338-93112-00000002D0000101D000000000093112     GGSL
NJARET21070-42338-93113-70000002D0000102D000030000093113     GGSL
NJARET21070-42351-45200-80000012D0000098D0000200001EG50      GGSL
NJARET21070-42351-52370-80000028D0000436D00047000004CH15B    GGSL
NJARET21070-42351-52390-60000012D0000309D00016000004CH20B    GGSL
NJARET21070-42579-11500-60000068D0002007D0004300000APB5      GGSL
NJARET21070-42579-12324-70000072D0000883D000330000020YR324   GGSL
NJARET21070-42579-12348-30001008D0001556D0004300002APRC      GGSL
NJARET21070-42579-12349-00000028D0000184D0007900002RS15      GGSL
NJARET21070-42579-12350-60000028D0000689D000430000020YR350   GGSL
NJARET21070-42579-13100-60000014D0000678D000710000020YR3100  GGSL
NJARET21070-42579-14250-70000002D0000310D0003600000P4        GGSL
NJARET21070-42579-15250-60000006D0001163D0001100000P5        GGSL
NJARET21070-42579-16250-50000026D0005496D0000000000P6        GGSL
NJARET21070-42579-22350-30000288D0002451D00119000076YR350    GGSL
NJARET21070-42579-23100-30000128D0001919D00021000036YR3100   GGSL
NJARET21070-42579-26250-20000004D0000638D000090000020YR6250  GGSL
NJARET21070-42579-32500-90000010D0000446D00009000056YR3300   GGSL
NJARET21070-42579-32501-60000020D0001181D00067000046YR4300   GGSL
NJARET21070-42579-32502-30000017D0001472D00007000016YR6300   GGSL
NJARET21070-42579-43004-80000004D0000391D0000600000NB4       GGSL
NJARET21070-42579-43240-00000120D0001069D0000400003NB324     GGSL
NJARET21070-42579-43480-00000072D0001139D0002000001NB348     GGSL
NJARET21070-42579-63354-80000004D0000445D000560001012YR4300  GGSL
NJARET21070-42579-63376-00000005D0000830D000170000712YR6300  GGSL
NJARET21070-42579-81242-40000008D0000292D0000000000FF3100    GGSL
NJARET21070-42579-81276-90000054D0000849D000270000012YR350   GGSL
NJARET21070-42579-81383-40000001D0000158D0001700001AP10210   GGSL
NJARET21070-42579-81429-90000022D0000444D0000800000DDF7100PC GGSL
NJARET21070-42579-81486-20000004D0000128D0000500000DELUXE6   GGSL
NJARET21070-42579-81517-30000004D0000345D0000000000BB1445DLX GGSL
NJARET21070-42579-81519-70000002D0000055D0000500000PN301220  GGSL
NJARET21070-42579-81522-70000001D0000078D0001000000PN302030  GGSL
NJARET21070-42579-81604-00000001D0000343D0001400000PROBL12300GGSL
NJARET21070-42579-81605-70000001D0000084D0007500000PROBLK3300GGSL
