TXBWIC21070-00402-00000-00000968D0046460D0194300074          GGSL
TXBWIC21070-00402-01012-60000023D0002823D00352000141012      GGSL
TXBWIC21070-00402-01014-00000226D0020427D00781000381014      GGSL
TXBWIC21070-00402-02419-20000008D0000159D000340000110XS-20   GGSL
TXBWIC21070-00402-02699-50000160D0000168D001600014010XS-20B  GGSL
TXBWIC21070-00402-02750-60000075D0000340D0020000350B75       GGSL
TXBWIC21070-00402-05418-20000050D0000152D00500000505418      GGSL
TXBWIC21070-00402-10142-80000212D0017844D003160000410145B    GGSL
TXBWIC21070-00402-10147-30000023D0002107D00058000001014 G    GGSL
TXBWIC21070-00402-14312-10000023D0000111D000140000014CSB     GGSL
TXBWIC21070-00402-14319-00000004D0000019D000710000014CS      GGSL
TXBWIC21070-00402-14411-10000005D0000845D0012800000144SSBK   GGSL
TXBWIC21070-00402-21012-00000005D0000759D00025000001012B     GGSL
TXBWIC21070-00402-22117-10000050D0000020D0000000000VSC117    GGSL
TXBWIC21070-00402-33117-70000150D0000052D0117500025PC11-7    GGSL
TXBWIC21070-00402-33354-60000800D0000099D0370000075PC5-4     GGSL
TXBWIC21070-00402-33375-10001825D0000364D0082500575PC7-5     GGSL
TXBWIC21070-00402-41819-90000066D0000682D001160001814TRS     GGSL
TXBWIC21070-00402-44117-30000150D0000056D0000000000PLCD 11-7 GGSL
TXBWIC21070-00772-06030-10000006D0000043D00000000006030      GGSL
TXBWIC21070-00772-06038-70000001D0000043D00000000006038      GGSL
TXBWIC21070-00772-06060-80000012D0000053D00000000006060      GGSL
TXBWIC21070-00772-06062-20000012D0000053D00000000006062      GGSL
TXBWIC21070-00772-06281-70000012D0000066D00000000006281      GGSL
TXBWIC21070-00772-06282-40000012D0000066D00000000006282      GGSL
TXBWIC21070-00772-06337-10000001D0000032D00000000006337      GGSL
TXBWIC21070-00772-06338-80000001D0000032D00000000006338      GGSL
TXBWIC21070-00772-06346-30000012D0000086D00000000006346      GGSL
TXBWIC21070-00772-06693-80000008D0000129D00000000006693      GGSL
TXBWIC21070-00772-06694-50000008D0000129D00000000006694      GGSL
TXBWIC21070-00772-06702-70000018D0000157D00000000006702      GGSL
TXBWIC21070-00772-06705-80000012D0000059D00000000006705      GGSL
TXBWIC21070-00772-06710-20000012D0000086D00000000006710      GGSL
TXBWIC21070-00772-06712-60000024D0000178D00000000006712      GGSL
TXBWIC21070-00772-06714-00000001D0000071D00000000006714      GGSL
TXBWIC21070-00772-06724-90000003D0000135D00000000006724      GGSL
TXBWIC21070-00772-06725-60000001D0000043D00000000006725      GGSL
TXBWIC21070-00772-06741-60000006D0000050D00000000006741      GGSL
TXBWIC21070-00772-06744-70000004D0000083D00000000006744      GGSL
TXBWIC21070-00772-31715-30000002D0000019D000000000031715     GGSL
TXBWIC21070-10367-00110-70000864D0005124D0200401092110       GGSL
TXBWIC21070-10367-00130-50000368D0017138D0002700043130.0     GGSL
TXBWIC21070-10367-00150-30000210D0005589D0002100094150.0     GGSL
TXBWIC21070-10367-00460-30000088D0000453D0012000000ML0460 8  GGSL
TXBWIC21070-10367-00530-30000013D0000481D0000400000530.0     GGSL
TXBWIC21070-10367-00560-00000048D0000155D0002400008ML0560 8  GGSL
TXBWIC21070-10367-00810-60000047D0000211D0000000060ML0810    GGSL
TXBWIC21070-10367-01010-90000012D0000185D0001200000ML1010    GGSL
TXBWIC21070-10367-01110-60000080D0000209D00008000001110      GGSL
TXBWIC21070-10367-01111-30000088D0000231D00160000001111.0    GGSL
TXBWIC21070-10367-01112-00000088D0000229D00040000001112.0    GGSL
TXBWIC21070-10367-01120-50000120D0000270D00152000001120.0    GGSL
TXBWIC21070-11247-00250-40000014D0000549D000450005100640     GGSL
TXBWIC21070-11247-00911-40000009D0000402D000000000000911     GGSL
TXBWIC21070-11247-00913-80000001D0000088D000000000200913     GGSL
TXBWIC21070-11247-00950-30000021D0000977D000000000000950     GGSL
TXBWIC21070-11247-01050-90000002D0000032D001440000001050     GGSL
TXBWIC21070-11247-01541-20000001D0000038D000280000001541     GGSL
TXBWIC21070-11247-01855-00000001D0000199D000000000001855     GGSL
TXBWIC21070-11247-02305-90000001D0000383D000000000002305     GGSL
TXBWIC21070-11247-02308-00000002D0000159D000000000202301     GGSL
TXBWIC21070-11247-03111-50000104D0003414D001310000003111     GGSL
TXBWIC21070-11247-04525-90000035D0001010D002370000804525     GGSL
TXBWIC21070-11247-05350-60000006D0000310D000420000005350     GGSL
TXBWIC21070-11247-05450-30000035D0001496D001700004505450     GGSL
TXBWIC21070-11247-11024-70000072D0000448D000000000011024     GGSL
TXBWIC21070-11247-12024-60000024D0000126D000000000012024     GGSL
TXBWIC21070-11247-16004-20000060D0000398D001740000016004     GGSL
TXBWIC21070-11247-20002-30000084D0000384D000000000020002     GGSL
TXBWIC21070-11247-21004-60000012D0000094D000000000021004     GGSL
TXBWIC21070-11247-30004-40000096D0000741D002400003630004     GGSL
TXBWIC21070-11247-52803-50000006D0000051D000120000052803     GGSL
TXBWIC21070-11247-52813-40000001D0000018D000930000052813     GGSL
TXBWIC21070-11247-52825-70000084D0001612D001320000052825     GGSL
TXBWIC21070-11247-52826-40000006D0000032D000000000052826     GGSL
TXBWIC21070-11247-52829-50000042D0000484D000060000052829     GGSL
TXBWIC21070-11247-52830-10000002D0000103D000050000052830     GGSL
TXBWIC21070-11247-52847-90000020D0002110D000300000052847     GGSL
TXBWIC21070-11247-52876-90000024D0000095D000000000052876     GGSL
TXBWIC21070-11247-52877-60000008D0000459D000560000052877     GGSL
TXBWIC21070-11247-52880-60000006D0000029D000000000052880     GGSL
TXBWIC21070-11247-52888-20000153D0000881D002520002452888     GGSL
TXBWIC21070-11247-52889-90000204D0003157D003300000352889     GGSL
TXBWIC21070-11247-60116-50000042D0000449D000780003660116     GGSL
TXBWIC21070-11247-61008-20000054D0000537D000000000061008     GGSL
TXBWIC21070-11247-61024-20000219D0001512D006780024061024     GGSL
TXBWIC21070-11247-70024-00000012D0000079D000000000070024     GGSL
TXBWIC21070-11247-90001-50000024D0000135D000360001290001     GGSL
TXBWIC21070-11247-90128-90000004D0000038D000760000090128     GGSL
TXBWIC21070-11423-00338-70000288D0001569D0046200042HG-33801  GGSL
TXBWIC21070-11423-94108-50000066D0000685D0005400000HG-94108  GGSL
TXBWIC21070-11423-94127-60000132D0000614D0010300000HG-64127  GGSL
TXBWIC21070-15966-49430-10000020D0000347D000060000049 00 430 GGSL
TXBWIC21070-16069-00005-90000066D0000418D0015300000TP-15C    GGSL
TXBWIC21070-16069-00007-30000051D0000329D0009000024BN-1      GGSL
TXBWIC21070-16069-00008-00000156D0000959D0027000180BN-2      GGSL
TXBWIC21070-16069-00013-40000056D0001389D0001400006BN-3      GGSL
TXBWIC21070-16069-00014-10000012D0000038D0006000006BN-4      GGSL
TXBWIC21070-16069-00015-80000044D0001112D0000000000BN-5      GGSL
TXBWIC21070-16069-00030-10000137D0001564D0005200000OW-6      GGSL
TXBWIC21070-16069-00047-90000012D0000075D0000000000TE-12C    GGSL
TXBWIC21070-16069-00049-30000056D0000921D0004000000DX-7      GGSL
TXBWIC21070-16069-00504-70000030D0000057D0000000000TG1-3W    GGSL
TXBWIC21070-16069-00549-80000004D0000724D0000500000TN-SFG    GGSL
TXBWIC21070-16069-00626-60000054C0000724C0001000000PTG2-10   GGSL
TXBWIC21070-16069-00667-90000116D0002326D0010800080RHO-4US   GGSL
TXBWIC21070-18506-00000-00001210D0016935D02030001050111-5    GGSL
TXBWIC21070-18506-00010-30000384D0002814D0031200039010-6     GGSL
TXBWIC21070-18506-00021-90000159D0002303D0055500000021-6     GGSL
TXBWIC21070-18506-00102-50000459D0001833D0031800000102-12    GGSL
TXBWIC21070-18506-00110-50002157D0014123D0107100246110-12    GGSL
TXBWIC21070-18506-00116-20000330D0002153D0066500276116-12    GGSL
TXBWIC21070-18506-00117-90000273D0002751D0049800108117-6     GGSL
TXBWIC21070-18506-00125-40000084D0000440D0097200000125       GGSL
TXBWIC21070-18506-00130-80000108D0000622D0044400000130       GGSL
TXBWIC21070-18506-00135-30000012D0000172D0000000000135       GGSL
TXBWIC21070-22102-01010-70000002D0000080D000090000010N       GGSL
TXBWIC21070-22179-10035-00000040D0002025D0011500008LG4110    GGSL
TXBWIC21070-22179-10084-80000006D0000050D0015000072LG7220    GGSL
TXBWIC21070-22179-10090-90000042D0001122D0000000006LG4300    GGSL
TXBWIC21070-22179-10109-80000012D0000177D0000000000lg 5146   GGSL
TXBWIC21070-22179-10115-90000144D0002339D0026900000lg 5599   GGSL
TXBWIC21070-22179-10124-10000486D0002782D0040200024LG6515    GGSL
TXBWIC21070-22179-10139-50000048D0000183D0106200012LG1130    GGSL
TXBWIC21070-22179-10140-10000023D0002463D0004600000LG6520    GGSL
TXBWIC21070-22179-10150-00000228D0002502D00580003367115      GGSL
TXBWIC21070-22179-10151-70000106D0004952D00291000197117      GGSL
TXBWIC21070-22179-10167-80000012D0000229D0000600000lg 6127   GGSL
TXBWIC21070-22179-10185-20000157D0001726D0045300024LG6500    GGSL
TXBWIC21070-22179-10239-20000004D0000335D0000000000LG6155    GGSL
TXBWIC21070-22179-10246-00000267D0004307D0052500618LG6570    GGSL
TXBWIC21070-22179-10247-70000167D0004014D00659001397122      GGSL
TXBWIC21070-22179-10248-40000276D0002302D0028200000LG6575    GGSL
TXBWIC21070-22179-10327-60000024D0000229D0000000000LG6148    GGSL
TXBWIC21070-22179-10363-40000012D0000086D0000000000LG6232    GGSL
TXBWIC21070-22179-10376-40000004D0000079D0000000000LG6292    GGSL
TXBWIC21070-22179-10378-80000006D0000052D0002400000lg6274    GGSL
TXBWIC21070-22179-10390-00000108D0000896D0057000420LG6332    GGSL
TXBWIC21070-22179-10395-50000020D0000634D0006100001LG6356    GGSL
TXBWIC21070-22179-10399-30000012D0000065D0061200072LG7198    GGSL
TXBWIC21070-22179-10408-20000564D0004839D0015000432LG 6338   GGSL
TXBWIC21070-22179-10429-70000434D0006782D0045600540LG6334    GGSL
TXBWIC21070-22179-10454-90000075D0000769D0030900144lg 3303   GGSL
TXBWIC21070-22179-10458-70000072D0000694D0029700003lg 3234   GGSL
TXBWIC21070-22179-10529-40000010D0000064D0052000120lg 7350   GGSL
TXBWIC21070-22401-00115-80000179D0008456D0043300010MDC-15    GGSL
TXBWIC21070-22401-00301-50000021D0000254D0014500002THD-20    GGSL
TXBWIC21070-22401-00381-70000004D0000054D0017600088NDETC-2OLBGGSL
TXBWIC21070-22401-00510-10000050D0000270D0000000000SK-B      GGSL
TXBWIC21070-22401-10088-20000027D0000704D0012300047EAR-60    GGSL
TXBWIC21070-22401-10089-90000004D0000069D0000000000BBC-20LB  GGSL
TXBWIC21070-23626-00605-80000748D0008992D0341900100116334    GGSL
TXBWIC21070-23626-00615-70001069D0011948D0483400128116336    GGSL
TXBWIC21070-23626-00630-00000512D0006980D0051100036116341    GGSL
TXBWIC21070-23626-00650-80000024D0000081D0057000000000600    GGSL
TXBWIC21070-23626-01710-80000060D0000319D0036000000000800    GGSL
TXBWIC21070-23626-01720-70000141D0000976D0009300000000900    GGSL
TXBWIC21070-23626-02830-20000001D0000045D0002300000116841    GGSL
TXBWIC21070-23883-00001-10000404D0007265D0057500072G362      GGSL
TXBWIC21070-23883-00002-80000246D0001093D0002500012G385      GGSL
TXBWIC21070-23883-00003-50000195D0000875D0021300006G390      GGSL
TXBWIC21070-23883-01002-70000182D0001760D00450002301002      GGSL
TXBWIC21070-23883-01105-50000060D0000164D00247002401105      GGSL
TXBWIC21070-23883-04701-60000002D0000055D00040000004701      GGSL
TXBWIC21070-23883-05000-90000039D0000452D00174000005000      GGSL
TXBWIC21070-23883-08620-60000004D0000791D00011000008620B     GGSL
TXBWIC21070-23883-15710-40001218D0014672D183850019815710     GGSL
TXBWIC21070-23883-16100-20000174D0002250D003300000016100MP   GGSL
TXBWIC21070-23883-21210-00000011D0000504D000770000021210XP   GGSL
TXBWIC21070-23883-26011-80000118D0004004D001250000426011XP   GGSL
TXBWIC21070-23883-26021-70000200D0007231D008240000226021XP   GGSL
TXBWIC21070-23883-26031-60000059D0002643D000730001526031XP   GGSL
TXBWIC21070-23883-27010-00000067D0001558D001470000727010     GGSL
TXBWIC21070-23883-27020-90000280D0006755D003490002627020     GGSL
TXBWIC21070-23883-27030-80000078D0002266D001170001127030     GGSL
TXBWIC21070-23883-60100-30000149D0009003D002500002460100     GGSL
TXBWIC21070-23883-61925-10000004D0000040D00014000126-1925    GGSL
TXBWIC21070-23883-63924-20000018D0003245D000390000063924     GGSL
TXBWIC21070-23883-66000-00000006D0000038D00002000006-6000    GGSL
TXBWIC21070-23883-67711-40000001D0000012D00002000006-7711    GGSL
TXBWIC21070-23883-67749-70000001D0000007D00010000006-7749    GGSL
TXBWIC21070-23883-68060-20000002D0000032D00007000006-8060    GGSL
TXBWIC21070-23883-68061-90000007D0000180D00003000016-8061    GGSL
TXBWIC21070-23883-68238-50000005D0000266D00000000006-8238    GGSL
TXBWIC21070-23883-80000-00000094C0000266C00018000068000A     GGSL
TXBWIC21070-23883-84000-60000027D0001412D00018000148701B     GGSL
TXBWIC21070-23883-84600-80000070D0002113D009200000084700A    GGSL
TXBWIC21070-23883-97100-70000004D0002164D000130000197100     GGSL
TXBWIC21070-23883-97561-60000008D0001628D000010000197561     GGSL
TXBWIC21070-24654-05102-70000006D0000031D00000000125102-6    GGSL
TXBWIC21070-24654-05962-70000108D0001230D00078000065962      GGSL
TXBWIC21070-24654-51806-30000006D0000033D00000000005180-6    GGSL
TXBWIC21070-24654-55110-70000390D0001941D00365000185110-6    GGSL
TXBWIC21070-24654-55118-30000120D0000851D00661000125118.0    GGSL
TXBWIC21070-24654-65452-50000006D0000031D00000000005452-6    GGSL
TXBWIC21070-25033-40355-00000001D0000014D000000000040355     GGSL
TXBWIC21070-26455-91350-40000002D0000116D001080001070805-001-GGSL
TXBWIC21070-26978-30301-10000304D0001967D005750003630301     GGSL
TXBWIC21070-28009-11225-80000932D0005575D00489001831225.0    GGSL
TXBWIC21070-28009-11250-00001610D0013787D04581003871250.0    GGSL
TXBWIC21070-28009-11438-20000060D0001307D00000000001438      GGSL
TXBWIC21070-28009-11440-50002641D0019860D00860000001440P     GGSL
TXBWIC21070-28009-11550-10000050D0000349D00000000001550P     GGSL
TXBWIC21070-28009-11638-60000060D0001006D00000000001638      GGSL
TXBWIC21070-28009-11640-90000180D0001238D00000000001640      GGSL
TXBWIC21070-28009-15240-70000300D0001282D00189000015240.0    GGSL
TXBWIC21070-28009-15440-10001380D0004812D00000000005440.0    GGSL
TXBWIC21070-28009-15450-00000027D0000209D00365000005450.0    GGSL
TXBWIC21070-28009-15540-80003759D0012463D02334001605540.0    GGSL
TXBWIC21070-28009-15720-40000065D0000255D00000000005720.0    GGSL
TXBWIC21070-28009-15740-20002150D0009233D00921000505740.0    GGSL
TXBWIC21070-30541-00501-10000001D0000282D0000000000JCD-50BKSMGGSL
TXBWIC21070-30541-01020-60000024D0000056D0000000048JCD-024SM GGSL
TXBWIC21070-30541-01030-50000012D0000102D0006600000JCD-100SMJGGSL
TXBWIC21070-30541-01034-30000016D0000377D0005000000JCD-030SM GGSL
TXBWIC21070-30541-09982-90001048D0002410D0084000000JCD-TPP   GGSL
TXBWIC21070-32247-00900-30000072D0000193D00750000121009001   GGSL
TXBWIC21070-32247-00910-20000012D0000036D00162000001009101   GGSL
TXBWIC21070-32247-00950-80000030D0000087D00102000121009501   GGSL
TXBWIC21070-32247-03115-80000312C0000087C000370000031115     GGSL
TXBWIC21070-32247-03313-80000024D0000626D00360000113313B     GGSL
TXBWIC21070-32247-03594-10000550D0003200D007050000970359430  GGSL
TXBWIC21070-32247-05514-70005232D0019219D048020001070551430  GGSL
TXBWIC21070-32247-10500-20000201D0001523D0005100018110500    GGSL
TXBWIC21070-32247-11307-60000868D0001929D048450000071130756  GGSL
TXBWIC21070-32247-14902-00000016D0000257D000160000014902     GGSL
TXBWIC21070-32247-14905-10001024D0006671D001200000814905     GGSL
TXBWIC21070-32247-15307-20000008D0000020D002680000071530751  GGSL
TXBWIC21070-32247-17183-00000180D0001452D001080000017183     GGSL
TXBWIC21070-32247-17185-40000024D0000441D000400000017185     GGSL
TXBWIC21070-32247-17187-80000090D0003986D000020000017187     GGSL
TXBWIC21070-32247-17290-50000054D0000480D000060000017290     GGSL
TXBWIC21070-32247-17293-60000108D0000923D000060000017293     GGSL
TXBWIC21070-32247-17295-00000096D0001938D000080000017295     GGSL
TXBWIC21070-32247-17323-00000078D0000623D000900000017323     GGSL
TXBWIC21070-32247-17325-40000044D0000740D000000000017325     GGSL
TXBWIC21070-32247-17327-80000030D0001060D000230000017327     GGSL
TXBWIC21070-32247-17508-10000024D0000300D000660000017508     GGSL
TXBWIC21070-32247-17582-10000048D0000559D000000000017582     GGSL
TXBWIC21070-32247-18213-30000004D0000130D000160000018213     GGSL
TXBWIC21070-32247-18221-80000016D0000318D000960000018221     GGSL
TXBWIC21070-32247-18225-60000030D0000330D000660000018225     GGSL
TXBWIC21070-32247-18260-70000024D0000232D000000000018260     GGSL
TXBWIC21070-32247-18266-90000048D0000527D001080000618266     GGSL
TXBWIC21070-32247-18320-80000054D0000464D000060000018320     GGSL
TXBWIC21070-32247-18348-20000018D0000243D000360000018348     GGSL
TXBWIC21070-32247-18350-50000180D0001077D008700000018350     GGSL
TXBWIC21070-32247-18353-60000173D0003835D001800000018353     GGSL
TXBWIC21070-32247-18354-30000012D0000120D000180000018354     GGSL
TXBWIC21070-32247-18362-80000036D0001148D000000000018362     GGSL
TXBWIC21070-32247-18365-90000036D0000960D000000000018365     GGSL
TXBWIC21070-32247-19002-20000041C0000960C000000000019002     GGSL
TXBWIC21070-32247-19594-20000197D0001450D003320000071959430  GGSL
TXBWIC21070-32247-20220-60000040D0000631D000000000020220     GGSL
TXBWIC21070-32247-20784-30001404D0004301D008220018672078430  GGSL
TXBWIC21070-32247-20814-70000070D0002712D000000000021814     GGSL
TXBWIC21070-32247-21605-00000303D0005130D000360000021605     GGSL
TXBWIC21070-32247-21701-90000048D0000356D000000000021701     GGSL
TXBWIC21070-32247-22305-80000022D0000334D001060002422305     GGSL
TXBWIC21070-32247-23100-80000012D0000159D000120000023100     GGSL
TXBWIC21070-32247-23405-40000168D0002137D003740000023405B    GGSL
TXBWIC21070-32247-23415-30000025D0000923D000200000023415     GGSL
TXBWIC21070-32247-24864-80000091D0000578D000000000072486430  GGSL
TXBWIC21070-32247-25006-10000098D0002082D006800000525006A    GGSL
TXBWIC21070-32247-25009-20000025D0001374D000060000025009     GGSL
TXBWIC21070-32247-26003-90000070D0001614D000500000026003D    GGSL
TXBWIC21070-32247-26007-70000008D0000186D002390000026007B    GGSL
TXBWIC21070-32247-26784-70000078D0000260D012000007272678430  GGSL
TXBWIC21070-32247-30073-50000028D0000408D000000000030073     GGSL
TXBWIC21070-32247-30156-50000508D0007418D001000000030156     GGSL
TXBWIC21070-32247-30177-00000039D0002484D000710000130177     GGSL
TXBWIC21070-32247-35594-00000100D0000582D000850000073559430  GGSL
TXBWIC21070-32247-35605-30000120D0002322D001540000044615A    GGSL
TXBWIC21070-32247-37594-80000050D0000402D026520000373759430  GGSL
TXBWIC21070-32247-37610-50000265D0004932D002510006237610A    GGSL
TXBWIC21070-32247-38605-00000680D0008969D000810000038605D    GGSL
TXBWIC21070-32247-38615-90001224D0040196D000200000038615     GGSL
TXBWIC21070-32247-39594-60000120D0000871D024290000073959430  GGSL
TXBWIC21070-32247-42784-50000258D0000932D003900000074278430  GGSL
TXBWIC21070-32247-43850-60001673C0000932C00000000004385010   GGSL
TXBWIC21070-32247-43854-40000012D0000109D00004000004385404   GGSL
TXBWIC21070-32247-45651-70000006D0000063D004610000045651300  GGSL
TXBWIC21070-32247-47783-30000066D0000242D003900000074778300  GGSL
TXBWIC21070-32247-49013-90000002D0000041D000000000049013     GGSL
TXBWIC21070-32247-49019-10000011D0000132D001170000249019     GGSL
TXBWIC21070-32247-49021-40000003D0000077D000000000549021     GGSL
TXBWIC21070-32247-49785-50000066D0000219D012720000074978500  GGSL
TXBWIC21070-32247-50084-50000024D0000423D00000000005008410   GGSL
TXBWIC21070-32247-50087-60000054D0000841D00072000005008710   GGSL
TXBWIC21070-32247-50089-00000028D0000623D00052000005008910   GGSL
TXBWIC21070-32247-50154-50000021D0000159D000560000045015430  GGSL
TXBWIC21070-32247-50240-50000725D0035517D000000000050240     GGSL
TXBWIC21070-32247-50250-40000680D0012607D000380000050250     GGSL
TXBWIC21070-32247-50524-60001971D0012903D071720049475052430  GGSL
TXBWIC21070-32247-51062-20000006D0000040D000120000051062     GGSL
TXBWIC21070-32247-51105-60000032D0000431D004510000051105     GGSL
TXBWIC21070-32247-51115-50000010D0000310D001700000051115     GGSL
TXBWIC21070-32247-52784-20000132D0000475D010380000085278430  GGSL
TXBWIC21070-32247-53105-40000051D0000445D001120000053105     GGSL
TXBWIC21070-32247-53115-30000040D0000876D001080000053115     GGSL
TXBWIC21070-32247-55513-50000459D0003631D014640000075551300  GGSL
TXBWIC21070-32247-55523-40000121D0001732D020460000475552300  GGSL
TXBWIC21070-32247-55783-20000078D0000359D019380001875578300  GGSL
TXBWIC21070-32247-56513-40010700D0063337D098000020675651300  GGSL
TXBWIC21070-32247-56523-30040469D0388713D098890063175652300  GGSL
TXBWIC21070-32247-56783-10000025D0009809D000050000075678309  GGSL
TXBWIC21070-32247-56788-60000954D0003578D060180004875678300  GGSL
TXBWIC21070-32247-56863-00000089D0000592D018920000075686300  GGSL
TXBWIC21070-32247-57905-60001500D0014865D000000000057905     GGSL
TXBWIC21070-32247-60594-60000552D0003216D008100000076059430  GGSL
TXBWIC21070-32247-71060-20001038D0011396D004450034871060     GGSL
TXBWIC21070-32247-71131-90000162D0002871D000840018071131     GGSL
TXBWIC21070-32247-74150-70000534D0002457D0013800240274150    GGSL
TXBWIC21070-32247-74250-40000402D0002565D0055101572274250    GGSL
TXBWIC21070-32247-74850-60000308D0004869D0046400208274850    GGSL
TXBWIC21070-32247-75902-10000111D0007636D000190000675902     GGSL
TXBWIC21070-32247-76121-50000189D0005976D001540003076121     GGSL
TXBWIC21070-32247-76232-80000051D0002710D000510000676232     GGSL
TXBWIC21070-32247-76565-70000012D0000563D000120000076565     GGSL
TXBWIC21070-32247-77160-30000648D0002717D0218300534277160    GGSL
TXBWIC21070-32247-77260-00000738D0005578D0214200474277260    GGSL
TXBWIC21070-32247-77960-90000312D0005270D0168000264277960    GGSL
TXBWIC21070-32247-99605-10000091D0001729D000600003099605     GGSL
TXBWIC21070-32903-00169-30000192D0000232D0014400048SLI06000E3GGSL
TXBWIC21070-32903-00309-30000228D0000500D0028800000SLI10000E3GGSL
TXBWIC21070-32903-00341-30000042D0000276D0006600006SLI24000E3GGSL
TXBWIC21070-32903-00359-80000120D0000187D0012000024SLI08000E3GGSL
TXBWIC21070-32903-12006-60000216D0000396D0019200072LIA06000E3GGSL
TXBWIC21070-32903-12008-00000216D0000590D0052800048LIA08000E3GGSL
TXBWIC21070-32903-12010-30000192D0000799D0054000024LIA10000E3GGSL
TXBWIC21070-32903-12012-70000288D0001894D0026400000LIA12000E3GGSL
TXBWIC21070-32903-12014-10000168D0001403D0001200024LIA14000E3GGSL
TXBWIC21070-32903-12017-20000108D0001378D0012000000LIA16000E3GGSL
TXBWIC21070-32903-12020-20000059D0000982D0006600024LIA20000E3GGSL
TXBWIC21070-32903-12024-00000030D0000645D0004800006LIA24000E3GGSL
TXBWIC21070-32903-12318-00000042D0000167D0000000000SVN18000E3GGSL
TXBWIC21070-32903-12324-10000006D0000030D0000000006SVN24000E3GGSL
TXBWIC21070-32903-12714-00000108D0000658D0000000012GAB14000E3GGSL
TXBWIC21070-32903-12718-80000036D0000333D0005400000GAB18000E3GGSL
TXBWIC21070-32903-12722-50000048D0000602D0009000006GAB22000E3GGSL
TXBWIC21070-32903-12818-50000072D0000479D0003600000VNP18000E3GGSL
TXBWIC21070-32903-12824-60000084D0000503D0001800012VNP24000E3GGSL
TXBWIC21070-32903-50763-80000180D0000635D0007200012SLI12000E3GGSL
TXBWIC21070-32903-50802-40000204D0000803D0022200000SLI14000E3GGSL
TXBWIC21070-32903-58838-50000004D0000121D0000000000TEA24000G1GGSL
TXBWIC21070-32903-72518-60000024D0000204D0000800000RZ.WC2G0B9GGSL
TXBWIC21070-32903-75049-20000036D0000246D0013800012SLI20000E3GGSL
TXBWIC21070-32903-75080-50000060D0000259D0022800012SLI17000E3GGSL
TXBWIC21070-32903-91575-40000048D0000372D0000000000PZA12000Y3GGSL
TXBWIC21070-33524-43225-50000014D0000113D0025900000MP0020    GGSL
TXBWIC21070-33524-43240-80000155D0001881D0112300000MP0020    GGSL
TXBWIC21070-33607-00001-50000040D0001163D0010400000GBA-1     GGSL
TXBWIC21070-33607-00953-40000020D0000543D0013200000SP-33     GGSL
TXBWIC21070-33745-97185-40000006D0000141D001670000097185     GGSL
TXBWIC21070-34613-00002-70000126D0000897D0001300578LH002     GGSL
TXBWIC21070-34613-00003-40000019D0000213D0132500024LH003     GGSL
TXBWIC21070-34613-00004-10000329D0002315D0060100320LH004     GGSL
TXBWIC21070-34613-00005-80000004D0000052D0000400000LH005     GGSL
TXBWIC21070-34613-00006-50000254D0001766D0000200405LH006     GGSL
TXBWIC21070-34613-00016-40000012D0000090D0000000000LH016     GGSL
TXBWIC21070-34613-00022-50000066D0000773D0000300002LH022     GGSL
TXBWIC21070-34613-00025-60000012D0000096D0000000000LH025     GGSL
TXBWIC21070-34613-00068-30000012D0000052D000840000068WP      GGSL
TXBWIC21070-34613-00337-00000036D0000054D0000000000337       GGSL
TXBWIC21070-34613-00540-40000017D0000068D00055000175-40HD    GGSL
TXBWIC21070-34613-00551-00000012D0000037D0000000000551BL     GGSL
TXBWIC21070-34613-00555-80000012D0000037D0000000000555BL     GGSL
TXBWIC21070-34613-00640-10000008D0000032D00016000436-40HD    GGSL
TXBWIC21070-34613-00805-40000001D0000030D0002400047SS5       GGSL
TXBWIC21070-34613-01150-40000280D0000673D00400006201150PDQ   GGSL
TXBWIC21070-34613-01161-00000036D0000084D00276004081161PDQ   GGSL
TXBWIC21070-34613-01503-50000012D0000016D00000000001503      GGSL
TXBWIC21070-34613-01903-60000036D0000144D00000000121903      GGSL
TXBWIC21070-34613-04803-60000001D0000062D0000000002U4803     GGSL
TXBWIC21070-34613-04830-20000006D0000024D00006000304830      GGSL
TXBWIC21070-34613-04850-00000288D0001050D00000000123104BL    GGSL
TXBWIC21070-34613-04864-70000024D0000096D0001200000LH016BL   GGSL
TXBWIC21070-34613-07757-90000348D0001334D00036001567757BL    GGSL
TXBWIC21070-34613-07759-30000012D0000048D00000000007759BL    GGSL
TXBWIC21070-34613-18050-70000012D0000061D00000000008050BL    GGSL
TXBWIC21070-34613-70736-00000012D0000165D000000000070736BL   GGSL
TXBWIC21070-34613-71086-50000031D0000152D0003900000LH015BL   GGSL
TXBWIC21070-34613-71087-20000084D0000347D001740001271087BL   GGSL
TXBWIC21070-34613-71660-70000012D0000270D000120000071660     GGSL
TXBWIC21070-34613-95006-30000001D0000043D000080003095006     GGSL
TXBWIC21070-34613-96006-20000002D0000096D000100002396006     GGSL
TXBWIC21070-35307-00782-70000012D0000093D0000000000782       GGSL
TXBWIC21070-35307-00808-40000012D0000027D0000000000808       GGSL
TXBWIC21070-35307-00818-30000012D0000018D0000000000818       GGSL
TXBWIC21070-35307-00819-00000012D0000016D0001200000819       GGSL
TXBWIC21070-35307-00820-60000048D0000081D0021600240820       GGSL
TXBWIC21070-35307-00826-80000048D0000089D0001200228826       GGSL
TXBWIC21070-35307-00828-20000012D0000024D0000000000828       GGSL
TXBWIC21070-35307-00835-00000012D0000071D0001200000835       GGSL
TXBWIC21070-35307-00843-50000012D0000030D0000000000843       GGSL
TXBWIC21070-35307-00844-20000012D0000029D0000000012844       GGSL
TXBWIC21070-35307-00846-30000012D0000040D0000000012846       GGSL
TXBWIC21070-35307-00848-00000060D0000134D0000000012848       GGSL
TXBWIC21070-35307-00857-20000012D0000057D0000000000857       GGSL
TXBWIC21070-35307-00860-20000006D0000035D0000000000860       GGSL
TXBWIC21070-35307-00874-90000012D0000016D0000000012874       GGSL
TXBWIC21070-35307-01601-00000042D0000553D00000000061601      GGSL
TXBWIC21070-35307-01609-60000012D0000050D0000000000          GGSL
TXBWIC21070-35307-01810-60000226D0001146D00214000591810      GGSL
TXBWIC21070-35307-01815-10000147D0000992D00082000371815      GGSL
TXBWIC21070-35307-01820-50000030D0000375D00072000121820      GGSL
TXBWIC21070-35307-01825-00000096D0000880D00540004681825      GGSL
TXBWIC21070-35307-01840-30000018D0000300D00018000181840      GGSL
TXBWIC21070-35355-00000-00000001D0000298D00003000004960BLD   GGSL
TXBWIC21070-35355-00325-30000004D0000017D0001900016325       GGSL
TXBWIC21070-35355-00802-90000015D0000225D0002800020SS2       GGSL
TXBWIC21070-35355-00803-60000013D0000195D0001700039SS3       GGSL
TXBWIC21070-35355-00804-30000009D0000203D0003000042SS4       GGSL
TXBWIC21070-35355-00806-70000008D0000306D0000600041SS6       GGSL
TXBWIC21070-35355-00807-40000001D0000050D0000000000SS7-HD    GGSL
TXBWIC21070-35355-00924-80000063D0000598D0037100024924       GGSL
TXBWIC21070-35355-01151-70000080D0000336D00120003801151PDQ   GGSL
TXBWIC21070-35355-01160-90000050D0000100D00350003001160      GGSL
TXBWIC21070-35355-03105-80001212D0005454D00012007203105      GGSL
TXBWIC21070-35355-03108-90000018D0000266D00000000003108      GGSL
TXBWIC21070-35355-05945-80000270D0003719D00792001325945      GGSL
TXBWIC21070-35355-70201-90000415D0004306D000000004570201     GGSL
TXBWIC21070-35355-94006-00000001D0000034D000000001994006     GGSL
TXBWIC21070-36348-00610-70000084D0000415D00312000000610      GGSL
TXBWIC21070-36348-00645-90000042D0000558D0011700002645       GGSL
TXBWIC21070-36348-00745-60000011D0000220D00069000000745      GGSL
TXBWIC21070-36348-01020-30000002D0000031D00020000001020      GGSL
TXBWIC21070-36348-01078-40000015D0000463D00056000001078      GGSL
TXBWIC21070-36348-01079-10000042D0001929D00108000001079      GGSL
TXBWIC21070-36348-01085-20000002D0000110D00009000001085      GGSL
TXBWIC21070-36434-00000-00000186D0003057D007560023410-12420  GGSL
TXBWIC21070-36434-10000-00000012D0000109D002040002410-14510  GGSL
TXBWIC21070-36434-10012-20000048D0000623D000000000010-10012  GGSL
TXBWIC21070-36434-11000-80000112D0001189D008870002360-11000  GGSL
TXBWIC21070-36434-12342-80000060D0000373D000850007160-12342  GGSL
TXBWIC21070-36434-12343-50000016D0000151D003120000060-12343  GGSL
TXBWIC21070-36434-12345-90000072D0000690D000960074410-12345  GGSL
TXBWIC21070-36434-12346-60000229D0001105D006820007060-12346  GGSL
TXBWIC21070-36434-12349-70000004D0000016D001810000060-12349  GGSL
TXBWIC21070-36434-12353-40000127D0002260D011340000660-12353  GGSL
TXBWIC21070-36434-12354-10000026D0000167D000450000010-12354  GGSL
TXBWIC21070-36434-12355-80000098D0000715D000370001210-12355  GGSL
TXBWIC21070-36434-12356-50000179D0001498D001290003510-12356  GGSL
TXBWIC21070-36434-12357-20000051D0000417D000690001610-12357  GGSL
TXBWIC21070-36434-12700-60000072D0000486D000000009610-12700  GGSL
TXBWIC21070-36434-12720-40000156D0000960D003000000010-12720  GGSL
TXBWIC21070-36434-12735-80000024D0000204D000000000060-12735  GGSL
TXBWIC21070-36434-13600-50000048D0000824D004440014410-13600  GGSL
TXBWIC21070-36434-14800-80000096D0001598D000360000010-14800  GGSL
TXBWIC21070-36434-14860-20000057D0000761D002280000010-14860  GGSL
TXBWIC21070-36434-15050-90000036D0000577D002100000010-15050  GGSL
TXBWIC21070-36434-15080-30000012D0000246D000000000610-15080  GGSL
TXBWIC21070-36434-17000-20000024D0000928D000000000070-17000  GGSL
TXBWIC21070-36434-17004-00000006D0000278D00006000001017004   GGSL
TXBWIC21070-36434-22318-00000094D0000418D006910005960-22318  GGSL
TXBWIC21070-36434-22341-80000024D0000242D000000001210-22341  GGSL
TXBWIC21070-36434-22373-90000006D0000087D00012000006022373   GGSL
TXBWIC21070-36434-22626-60000086D0001017D001950000860-22626  GGSL
TXBWIC21070-36434-22729-40000012D0000149D000000000060-22729  GGSL
TXBWIC21070-36434-22731-70000060D0000595D002970000460-22731  GGSL
TXBWIC21070-36434-22732-40000045D0000590D007370000060-22732  GGSL
TXBWIC21070-36434-28010-70000240D0001919D004920021610-28010  GGSL
TXBWIC21070-36434-28020-60000336D0002691D003360000010-28020  GGSL
TXBWIC21070-36434-32700-00000792D0006210D035040002410-32700  GGSL
TXBWIC21070-36434-34500-10000216D0001958D003120024010-34500  GGSL
TXBWIC21070-36434-82342-70000006D0000069D002230000060-82342  GGSL
TXBWIC21070-36865-12250-20005930D0010671D024600018071140180  GGSL
TXBWIC21070-36865-14511-20000180D0000371D008400000071451180  GGSL
TXBWIC21070-36865-24511-90000360D0001001D031800000072451180  GGSL
TXBWIC21070-36865-45220-30000600D0001500D000000000088452205  GGSL
TXBWIC21070-36865-65220-70000720D0001800D000000000088652205  GGSL
TXBWIC21070-36865-71751-70000120D0000216D000000000071751180  GGSL
TXBWIC21070-37321-00022-80001131D0006704D0013402001022       GGSL
TXBWIC21070-37321-00023-50000112D0001827D0001200192023       GGSL
TXBWIC21070-37321-00024-20000856D0009126D0011100966024       GGSL
TXBWIC21070-37321-00025-90000144D0001058D0004800024025       GGSL
TXBWIC21070-37321-00050-10000072D0000069D0000000000050       GGSL
TXBWIC21070-37321-00051-80000012D0000140D0000000000051       GGSL
TXBWIC21070-37321-00061-70000240D0001680D0000000144061       GGSL
TXBWIC21070-37321-00065-50000048D0000239D0001200000065       GGSL
TXBWIC21070-37321-00068-60000168D0000789D0063300228068       GGSL
TXBWIC21070-37321-00069-30000362D0004309D0037500267069       GGSL
TXBWIC21070-37321-00070-90000219D0002926D0041400300070       GGSL
TXBWIC21070-37321-00081-50000120D0000752D0000000168081       GGSL
TXBWIC21070-37321-00105-80000036D0000087D0000000180105       GGSL
TXBWIC21070-37321-00106-50000108D0000275D0000000036106       GGSL
TXBWIC21070-37321-00107-20000084D0000219D0000000348107       GGSL
TXBWIC21070-37321-00108-90000168D0000406D0000000384108       GGSL
TXBWIC21070-37321-00121-80000080D0000830D0016800112121       GGSL
TXBWIC21070-37321-00123-20000891D0003098D0056700084123       GGSL
TXBWIC21070-37321-00127-00000177D0001316D0011100144127       GGSL
TXBWIC21070-37321-00141-60000120D0000496D0001200108141       GGSL
TXBWIC21070-37321-00148-50000060D0000588D0027600228148       GGSL
TXBWIC21070-37321-00150-80000531D0007812D0015901548150       GGSL
TXBWIC21070-37321-00166-90000027D0000147D0002400000166       GGSL
TXBWIC21070-37321-00171-30000006D0000044D0003600000171       GGSL
TXBWIC21070-37321-00196-60000024D0000140D0000000000196       GGSL
TXBWIC21070-37321-00202-40000198D0002024D0120900024202       GGSL
TXBWIC21070-37321-00203-10000027D0000427D0094500000203       GGSL
TXBWIC21070-37321-00210-90000165D0000887D0068100000210       GGSL
TXBWIC21070-37321-00211-60000064D0000498D0230700000211       GGSL
TXBWIC21070-37321-00213-00000498D0004891D0047100540213       GGSL
TXBWIC21070-37321-00214-70000663D0003291D0019500576214       GGSL
TXBWIC21070-37321-00216-10000024D0000330D0021600240216       GGSL
TXBWIC21070-37321-00217-80000036D0000352D0000000000217       GGSL
TXBWIC21070-37321-00238-30000201D0001619D0004500240238       GGSL
TXBWIC21070-37321-00239-00000016D0000320D0000000000239       GGSL
TXBWIC21070-37321-00250-50001962D0007848D0068401728250       GGSL
TXBWIC21070-37321-00252-90000333D0003662D0090600003252       GGSL
TXBWIC21070-37321-00253-60000063D0001059D0004800000253       GGSL
TXBWIC21070-37321-00255-00000231D0004205D0179400408255       GGSL
TXBWIC21070-37321-00257-40000138D0000500D0011400120257       GGSL
TXBWIC21070-37321-00272-70000036D0000140D0000000036272       GGSL
TXBWIC21070-37321-00274-10001095D0006522D0036900450274       GGSL
TXBWIC21070-37321-00307-60000096D0000368D0004500624307       GGSL
TXBWIC21070-37321-00308-30000004D0000040D0000000000308       GGSL
TXBWIC21070-37321-00310-50000012D0000311D0000000000310       GGSL
TXBWIC21070-37321-00330-40000102D0000871D0014100000330       GGSL
TXBWIC21070-37321-00331-10000225D0003171D0008400048331       GGSL
TXBWIC21070-37321-00332-80000004D0000191D0000800000332       GGSL
TXBWIC21070-37321-00371-70000024D0000145D0000000000371       GGSL
TXBWIC21070-37321-00372-40000008D0000080D0000000000372       GGSL
TXBWIC21070-37321-00377-90000012D0000356D0015600000377       GGSL
TXBWIC21070-37321-00404-20000048D0000364D0008400000404       GGSL
TXBWIC21070-37321-00412-70000009D0000049D0000000000412       GGSL
TXBWIC21070-37321-00420-20000060D0003193D0000500000420       GGSL
TXBWIC21070-37321-00426-40000375D0003601D0005400480426       GGSL
TXBWIC21070-37321-00428-80000450D0001600D0014400288428       GGSL
TXBWIC21070-37321-00429-50000018D0000300D0003000054429       GGSL
TXBWIC21070-37321-00442-40000135D0000845D0001500012442       GGSL
TXBWIC21070-37321-00443-10000057D0000612D0002400012443       GGSL
TXBWIC21070-37321-00506-30000542D0002170D0006900108506       GGSL
TXBWIC21070-37321-00532-20000008D0000083D0000000000532       GGSL
TXBWIC21070-37321-00543-80000141D0000391D0015600000543       GGSL
TXBWIC21070-37321-00544-50000093D0000534D0001800012544       GGSL
TXBWIC21070-37321-00549-00000012D0000091D0000000000549       GGSL
TXBWIC21070-37321-00552-00000084D0001011D0007800024551       GGSL
TXBWIC21070-37321-00553-70000024D0000677D0015000006553       GGSL
TXBWIC21070-37321-00560-50000480D0001899D0023400078560       GGSL
TXBWIC21070-37321-00564-30000084D0000722D0001200000564       GGSL
TXBWIC21070-37321-00568-10000012D0000260D0021600000568       GGSL
TXBWIC21070-37321-00571-10000057D0000447D0003000018571       GGSL
TXBWIC21070-37321-00573-50000123D0000516D0079500000573       GGSL
TXBWIC21070-37321-00577-30000052D0000515D0006800016574       GGSL
TXBWIC21070-37321-00578-00000004D0000042D0000400000578       GGSL
TXBWIC21070-37321-00603-90000020D0000247D0006000004603       GGSL
TXBWIC21070-37321-00609-10000120D0001289D0004800000609       GGSL
TXBWIC21070-37321-00611-40000966C0000000D0026200120611       GGSL
TXBWIC21070-37321-00612-10000072D0000348D00012000000612      GGSL
TXBWIC21070-37321-00622-00000024D0000078D0000000000622       GGSL
TXBWIC21070-37321-00629-90000108D0000312D0079200024629       GGSL
TXBWIC21070-37321-00631-20000836D0003308D2067600540631       GGSL
TXBWIC21070-37321-00652-70000132D0000609D0016800048652       GGSL
TXBWIC21070-37321-00655-80000216D0001273D00300006006556      GGSL
TXBWIC21070-37321-00680-00000411D0003060D0011700015680       GGSL
TXBWIC21070-37321-00681-70000004D0000052D00000000000681      GGSL
TXBWIC21070-37321-00685-50000357D0003976D0098300000685       GGSL
TXBWIC21070-37321-00688-60000048D0000308D0013200012688       GGSL
TXBWIC21070-37321-00690-90000132D0001281D0018300012690       GGSL
TXBWIC21070-37321-00692-30000263D0002904D0078400012692150    GGSL
TXBWIC21070-37321-00698-50000084D0000417D0001200036698       GGSL
TXBWIC21070-37321-00705-00000024D0000151D0000000000705       GGSL
TXBWIC21070-37321-00728-90000036D0000443D0010800000728       GGSL
TXBWIC21070-37321-00752-40000024D0000181D0015000000752       GGSL
TXBWIC21070-37321-00759-30000036D0000585D0000000000759       GGSL
TXBWIC21070-37321-00771-50000006D0000032D0002400000771       GGSL
TXBWIC21070-37321-00775-30001044D0005762D0099900537775       GGSL
TXBWIC21070-37321-00777-70000146D0001283D0016000024777       GGSL
TXBWIC21070-37321-00779-10000171D0001342D0034200243779       GGSL
TXBWIC21070-37321-00784-50000108D0000296D0007800012784       GGSL
TXBWIC21070-37321-00786-90001254D0004355D0048000360786       GGSL
TXBWIC21070-37321-00789-00000071D0000533D0193401070791       GGSL
TXBWIC21070-37321-00806-40000024D0000195D0001200048806       GGSL
TXBWIC21070-37321-00807-10000008D0000203D0000000000807       GGSL
TXBWIC21070-37321-00811-80000560D0006213D0047600135811       GGSL
TXBWIC21070-37321-00813-20000177D0002308D0023400150813       GGSL
TXBWIC21070-37321-00814-90000030D0000698D0003600006814       GGSL
TXBWIC21070-37321-00857-60000396D0003302D0086400048857       GGSL
TXBWIC21070-37321-00862-00000048D0000612D0018300081862       GGSL
TXBWIC21070-37321-00863-70000012D0000154D0000000000863       GGSL
TXBWIC21070-37321-00866-80000018D0000141D0000000012865       GGSL
TXBWIC21070-37321-00870-50000084D0000549D0036000000870       GGSL
TXBWIC21070-37321-00875-00000637D0007990D0161500000875       GGSL
TXBWIC21070-37321-00876-70000204D0001397D0000000000876       GGSL
TXBWIC21070-37321-00880-40000360D0004276D0022200204880       GGSL
TXBWIC21070-37321-00883-50000648D0003040D0024000516883       GGSL
TXBWIC21070-37321-00892-70000132D0001155D0020400372892       GGSL
TXBWIC21070-37321-00897-20000048D0000308D0008400000897       GGSL
TXBWIC21070-37321-00903-00000036D0000234D0025200000903       GGSL
TXBWIC21070-37321-00904-70000024D0000183D0000000000904       GGSL
TXBWIC21070-37321-00905-40000012D0000162D0008400000905       GGSL
TXBWIC21070-37321-00909-20000024D0000468D0000000000909       GGSL
TXBWIC21070-37321-00917-70000042D0000487D0000000000917       GGSL
TXBWIC21070-37321-00925-20001628D0004495D0114900564925       GGSL
TXBWIC21070-37321-00939-90000192D0001917D0031200108939       GGSL
TXBWIC21070-37321-00941-20000840D0008325D0105400330941       GGSL
TXBWIC21070-37321-00947-40000012D0000097D0010800000947       GGSL
TXBWIC21070-37321-00951-10000951D0003892D0005100573951       GGSL
TXBWIC21070-37321-00952-80000036D0000171D0000000000952       GGSL
TXBWIC21070-37321-00982-50001044D0004275D0028800156982       GGSL
TXBWIC21070-37321-00983-20000009D0000150D0000000000983       GGSL
TXBWIC21070-37321-00987-00000177D0001609D0009000024987       GGSL
TXBWIC21070-37321-00991-70000024D0000156D0000000000991       GGSL
TXBWIC21070-37321-01971-80000048D0000205D00024000001971      GGSL
TXBWIC21070-37321-02021-90000006D0000095D00000000002021      GGSL
TXBWIC21070-37321-02061-50000012D0000225D00000000002061      GGSL
TXBWIC21070-37321-02360-90000084D0000595D00051000002360      GGSL
TXBWIC21070-37321-02361-60000594D0006171D00258003242361      GGSL
TXBWIC21070-37321-02362-30000044D0000715D00000000002362      GGSL
TXBWIC21070-37321-05612-60000036D0000345D00036000005612      GGSL
TXBWIC21070-37321-05710-90000048D0000296D00285000005710      GGSL
TXBWIC21070-37321-05712-30000006D0000058D00018000005712      GGSL
TXBWIC21070-37321-05714-70000012D0000351D00008000005714      GGSL
TXBWIC21070-37321-07458-80000048D0000813D00060000007458      GGSL
TXBWIC21070-37321-07460-10000012D0000075D00000000007460      GGSL
TXBWIC21070-37321-07464-90000024D0000337D0000000000          GGSL
TXBWIC21070-37321-07467-00000018D0000199D0000000000          GGSL
TXBWIC21070-37321-07468-70000012D0000234D0000000000          GGSL
TXBWIC21070-37321-07490-80000036D0000206D00000000007490      GGSL
TXBWIC21070-37321-07492-20000052D0000882D00048000727492      GGSL
TXBWIC21070-37321-08752-60000069D0000822D00189000008752      GGSL
TXBWIC21070-37321-09534-70000072D0000696D00000000489534      GGSL
TXBWIC21070-37321-40058-20000012D0000066D000000000046130     GGSL
TXBWIC21070-37321-45100-60000036D0000163D000000000045100     GGSL
TXBWIC21070-37321-45602-50000024D0000117D000120000045602     GGSL
TXBWIC21070-37321-46126-50004500D0000732D026000030046126     GGSL
TXBWIC21070-37321-46183-80000129D0001074D001200000946183     GGSL
TXBWIC21070-37321-46190-60000096D0000313D000000000046190     GGSL
TXBWIC21070-37321-46191-30000024D0000109D000000002446191     GGSL
TXBWIC21070-37321-46406-80000122C0000000D007440000046406     GGSL
TXBWIC21070-37321-46540-90000004D0000034D000760000046540     GGSL
TXBWIC21070-37321-60221-70000050D0000632D000600005060222     GGSL
TXBWIC21070-37321-60400-60000010D0000127D007040288060402     GGSL
TXBWIC21070-37321-60407-50000012D0000093D000120007260407     GGSL
TXBWIC21070-37321-60420-40000020D0000373D000030000060420     GGSL
TXBWIC21070-37321-60430-30000001D0000011D000460000060432     GGSL
TXBWIC21070-37321-60476-10000103D0001209D033390506060478     GGSL
TXBWIC21070-37321-60490-70000020D0000425D000000000060490     GGSL
TXBWIC21070-37321-60514-00000292D0003140D019410134760516     GGSL
TXBWIC21070-37321-60613-00000016D0000156D000000000060613     GGSL
TXBWIC21070-37332-01064-30000002D0000038D0000000000A209      GGSL
TXBWIC21070-38313-00005-90000002D0000041D0005500000GS 6750D  GGSL
TXBWIC21070-38313-00008-00000040D0000695D0021400030BP 3130   GGSL
TXBWIC21070-38313-00060-80000227D0003938D0030700660BP 3160   GGSL
TXBWIC21070-38313-00080-60000115D0002289D0029100451BP 3180D  GGSL
TXBWIC21070-38313-00217-60000045D0000787D0002300001FS 4350   GGSL
TXBWIC21070-38313-00830-70000024D0000733D0011300009BP 6250   GGSL
TXBWIC21070-38313-01010-20000396D0002003D0021600036CT 3010I  GGSL
TXBWIC21070-38313-01020-10000060D0000295D0038400000CT 3020I  GGSL
TXBWIC21070-38313-01030-00000066D0000337D0004800030CT 3030I  GGSL
TXBWIC21070-38313-03050-60000024D0000168D0010200108GT 3050   GGSL
TXBWIC21070-38313-03060-50000030D0000217D0006000120GT 3060   GGSL
TXBWIC21070-38313-03080-30000042D0000310D0017400114GT 3080   GGSL
TXBWIC21070-38313-03244-90000024D0000412D0000000096HS 3244   GGSL
TXBWIC21070-38313-03470-20000031D0000912D0004700005FL 3470   GGSL
TXBWIC21070-38313-03634-80000006D0000177D0000700000LG 3634   GGSL
TXBWIC21070-38313-03710-90000216D0001052D0007201662CT 3710   GGSL
TXBWIC21070-38313-03730-70000078D0000378D0003600240CT 3730   GGSL
TXBWIC21070-38313-03750-50000120D0000588D0004800192CT 3750   GGSL
TXBWIC21070-38313-04110-60000036D0000574D0000600150AL 4110   GGSL
TXBWIC21070-38313-04930-00001358D0008199D0177400024AG 4930   GGSL
TXBWIC21070-38313-04930-70000543D0003987D0141000030AG 4930SS GGSL
TXBWIC21070-38313-06970-40000054D0002222D0019500018AH 6970   GGSL
TXBWIC21070-38313-07545-20000040D0000671D0008400012RS 7245   GGSL
TXBWIC21070-38313-10000-10000142D0001351D0007700038SS 10000  GGSL
TXBWIC21070-38313-10227-20000041D0002795D0006700007AL 6512   GGSL
TXBWIC21070-38313-11000-00000080D0000747D0006700016SS 11000  GGSL
TXBWIC21070-38313-12400-70000161D0001969D0015800033RK 24003  GGSL
TXBWIC21070-38313-13214-90000042D0000322D0000000300FS 3214D  GGSL
TXBWIC21070-38313-14300-80000003D0000117D0001800000BM 43001  GGSL
TXBWIC21070-38313-20001-50000006D0000142D0001400003PD 20000  GGSL
TXBWIC21070-38313-20002-20000012D0000184D0000000045RK 20002  GGSL
TXBWIC21070-38313-20004-60000027D0000358D0016900048CV 20004  GGSL
TXBWIC21070-38313-20022-00000055D0000999D0015200010RK 20022  GGSL
TXBWIC21070-38313-21000-70000042D0000580D0003500052SH 20000  GGSL
TXBWIC21070-38313-24000-40000016D0000117D0017300024FS 4000   GGSL
TXBWIC21070-38313-26001-90000042D0000497D0001800060SS 26010  GGSL
TXBWIC21070-38313-26020-00000060D0000858D0008800035SS 26020  GGSL
TXBWIC21070-38313-26022-40000006D0000133D0000700000SS 26030  GGSL
TXBWIC21070-38313-27020-90000009D0000130D0007000002SS 27020  GGSL
TXBWIC21070-38313-28000-00000012D0000219D0002400001SS 28000  GGSL
TXBWIC21070-38313-28010-90000035D0000728D0006600006SS 28010  GGSL
TXBWIC21070-38313-32441-40000008D0000091D0000000000GT 3244   GGSL
TXBWIC21070-38313-33140-50000024D0000206D0000000080CT 3314   GGSL
TXBWIC21070-38313-33240-20000088D0000771D0000000016CT 3324   GGSL
TXBWIC21070-38313-33440-60000056D0000434D0006400120CT 3344   GGSL
TXBWIC21070-38313-33640-00000032D0000264D0010400344CT 3364   GGSL
TXBWIC21070-38313-36541-70000024C0000264C0000800004LG 3654   GGSL
TXBWIC21070-38313-36841-80000003D0000090D0000200000LG 3684   GGSL
TXBWIC21070-38313-37201-90000007D0000123D0000300001LG 3720   GGSL
TXBWIC21070-38313-41100-80000004D0000175D0000000000PM 41000  GGSL
TXBWIC21070-38313-53841-50000001D0000049D0000200000TP 3841   GGSL
TXBWIC21070-38313-56200-70000008C0000049C0004500011RK 62000  GGSL
TXBWIC21070-38313-61062-30000009D0000480D0001200011RK 61062  GGSL
TXBWIC21070-38313-65000-10000002D0000047D0000000000SS 65000  GGSL
TXBWIC21070-38313-66000-00000001D0000032D0000000000SS 66000  GGSL
TXBWIC21070-38313-80000-00000010D0000739D0002000006SF 80000  GGSL
TXBWIC21070-38313-81000-90000084D0000827D0011900031RK 10000  GGSL
TXBWIC21070-38313-90000-70000041D0000370D0004700012SH 10000  GGSL
TXBWIC21070-38313-90020-50000002D0000129D0000200000AS 90020  GGSL
TXBWIC21070-38313-90040-30000002D0000167D0000000000AS 90040  GGSL
TXBWIC21070-38776-51012-60000001D0000059D0000000000UR1212ST  GGSL
TXBWIC21070-40025-54033-40000017D0000736D0001900012RWS-54033 GGSL
TXBWIC21070-40025-54053-20000002D0000039D0001400000RWS-54053 GGSL
TXBWIC21070-40200-00000- 0000025D0000010D0000000000VBC H11-7 GGSL
TXBWIC21070-40235-75256-50000008D0000149D00054000002.5G30S   GGSL
TXBWIC21070-40279-03300-20000636D0001207D01224000003300      GGSL
TXBWIC21070-40279-03302-60000192D0000372D0129600024          GGSL
TXBWIC21070-41535-24550-40000171D0007435D008890000124550     GGSL
TXBWIC21070-41535-24560-30000262D0042675D011430002724560     GGSL
TXBWIC21070-41535-24571-90000778D0012719D0110100333100518540 GGSL
TXBWIC21070-42204-14504-80000006D0000006D00013000002MMC      GGSL
TXBWIC21070-42206-00056-90000024D0000170D000520004856-6      GGSL
TXBWIC21070-42206-00202-00000080D0000091D0061000010202S      GGSL
TXBWIC21070-42206-00202-10000002D0000002D0000800000202S      GGSL
TXBWIC21070-42206-00269-30000024D0000088D0007600156269       GGSL
TXBWIC21070-42206-00395-90000062D0000155D0079600070395S      GGSL
TXBWIC21070-42206-00525-00000072D0000182D0027400124525C      GGSL
TXBWIC21070-42206-00702-50000042D0000204D0003000000702-6     GGSL
TXBWIC21070-42206-00872-50000054D0000120D0039000018872-6     GGSL
TXBWIC21070-42206-03010-80000004D0000040D00165000003010-4    GGSL
TXBWIC21070-42206-07800-10000012D0000078D00072000907800      GGSL
TXBWIC21070-42206-09000-30000176D0001149D00492000029000      GGSL
TXBWIC21070-42206-09620-30000134D0005121D00165000099620-8    GGSL
TXBWIC21070-42206-14058-60000300D0001661D00816000369570      GGSL
TXBWIC21070-42206-14066-10000036D0000115D00084000009560C     GGSL
TXBWIC21070-42206-14220-70000020D0000071D0043600130312S      GGSL
TXBWIC21070-42206-14221-40000095D0000174D0010200036313S      GGSL
TXBWIC21070-42206-14222-10000006D0000082D0004800066314S      GGSL
TXBWIC21070-42206-14235-10000204D0000226D0042500000390S      GGSL
TXBWIC21070-42206-14456-00000070D0000108D0032800000420C      GGSL
TXBWIC21070-42206-14501-70000038C0000108C00409000001FMC      GGSL
TXBWIC21070-42206-14502-40000030D0000022D00313000001MMC      GGSL
TXBWIC21070-42206-14503- 0000008D0000009D00012000002FMC      GGSL
TXBWIC21070-42206-14503-10000222D0000214D01561001002FMC      GGSL
TXBWIC21070-42206-14504-80000174D0000145D01433001002MMC      GGSL
TXBWIC21070-42206-14505-50000062D0000058D001900010001MC      GGSL
TXBWIC21070-42206-14506-20000178D0000180D006700011002MC      GGSL
TXBWIC21070-42206-14570-30000052D0000285D0026800000ZBR3/4    GGSL
TXBWIC21070-42206-14571-00000141D0000492D0020900060ZBM3/4    GGSL
TXBWIC21070-42206-14572-70000096D0000360D0017700066ZBF3/4    GGSL
TXBWIC21070-42206-14599-40000018D0000225D00072000009536CH    GGSL
TXBWIC21070-42206-15111-70000026D0000172D000920000615111     GGSL
TXBWIC21070-42206-15404-00000002D0000025D000180006015404     GGSL
TXBWIC21070-42206-15549-80000004D0000063D000070000215549     GGSL
TXBWIC21070-42206-20491-20000124D0000630D003030000020491-10  GGSL
TXBWIC21070-42206-22261-90000174D0001556D004680000022261     GGSL
TXBWIC21070-42206-22300-50000018D0000183D001020000622300     GGSL
TXBWIC21070-42206-38636-60000006D0000048D0000600078R8636     GGSL
TXBWIC21070-42206-40300-10000012D0000089D0004200000XT300     GGSL
TXBWIC21070-42206-40301-80000080D0000472D0018000150XT301     GGSL
TXBWIC21070-42206-44100-30000018D0000320D0001200060XT4100    GGSL
TXBWIC21070-42206-48635-60000072D0000378D0000000204R8635     GGSL
TXBWIC21070-42206-63015-50000005D0000160D000040000063015     GGSL
TXBWIC21070-42206-63100-80000002D0000084D000030000063100     GGSL
TXBWIC21070-42579-00052-40000006D0000248D0002200000ST47812   GGSL
TXBWIC21070-42579-11212-80000011D0000539D0003100000SSR12GRN  GGSL
TXBWIC21070-42579-11250-00000024D0011718D0014200000P12       GGSL
TXBWIC21070-42579-11500-60000083D0002774D0024100002APB5      GGSL
TXBWIC21070-42579-12342-10000024D0000310D0000000000PSS       GGSL
TXBWIC21070-42579-12343-80000021D0001002D000000000020 YR-3100GGSL
TXBWIC21070-42579-12346-90000024D0000049D0004800024TW3W      GGSL
TXBWIC21070-42579-12353-70000015D0000077D0003000000PG12      GGSL
TXBWIC21070-42579-13250-80000397D0015785D0210500029P3        GGSL
TXBWIC21070-42579-14250-70000169D0021840D0066800037P4        GGSL
TXBWIC21070-42579-15250-60000034D0006460D0024000002P5        GGSL
TXBWIC21070-42579-16250-50000174D0027886D0046400003P6        GGSL
TXBWIC21070-42579-18250-30000023D0007136D0009100003P8        GGSL
TXBWIC21070-42579-19342-40000048D0000561D008880002420 YR-324 GGSL
TXBWIC21070-42579-22341-10000864D0006632D05440007686 YR-350  GGSL
TXBWIC21070-42579-22342-80000048D0000475D0055801380NS12      GGSL
TXBWIC21070-42579-22345-90001775D0002536D0262003792APRC      GGSL
TXBWIC21070-42579-23100-30000032D0000224D00064002886 YR-3100 GGSL
TXBWIC21070-42579-24250-40000030D0001571D000640000020 YR-4250GGSL
TXBWIC21070-42579-25250-30000030D0001964D000690000020 YR-5250GGSL
TXBWIC21070-42579-32355-50000224D0001437D0071400014RS15      GGSL
TXBWIC21070-42579-43004-80000013D0001347D0006400000NB4       GGSL
TXBWIC21070-42579-43006-20000022D0003024D0005700006NB6       GGSL
TXBWIC21070-42579-50154-00000112D0003241D0028000016PRO BLK-31GGSL
TXBWIC21070-42579-50169-40000252D0004437D0045000036PRO BLK-45GGSL
TXBWIC21070-42579-50264-60000016D0000355D0000000000SG200PAL  GGSL
TXBWIC21070-42579-63041-70000020D0002595D0002300001KG6       GGSL
TXBWIC21070-42579-63101-80000127D0006718D0000000010TSL-BX    GGSL
TXBWIC21070-42579-63105-60000014D0000833D0005500000350ROLL   GGSL
TXBWIC21070-42579-63306-70000612D0003493D04716000363 YR-350  GGSL
TXBWIC21070-42579-81272-10000002D0000204D0000100001K6        GGSL
TXBWIC21070-42579-81273-80000003D0000612D0000000000K12       GGSL
TXBWIC21070-42579-81360-50000021D0003280D0002500066NS12250   GGSL
TXBWIC21070-42579-81391-90000007D0001471D0000000002WGC12     GGSL
TXBWIC21070-42579-81428-20000266D0000522D0036700000BURLAP BAGGGSL
TXBWIC21070-42579-81566-10000035D0005754D0030400005SBLT10300 GGSL
TXBWIC21070-42579-81568-50000089D0017288D0055100022SBLT12300 GGSL
TXBWIC21070-42579-81569-20000159D0038670D0046900055SBLT15.530GGSL
TXBWIC21070-42579-81571-50000085D0004123D0065400019SBLT3300  GGSL
TXBWIC21070-42579-81572-20000045D0003051D0012500010SBLT4300  GGSL
TXBWIC21070-42579-81573-90000113D0011190D0090100045SBLT6300  GGSL
TXBWIC21070-42579-81605-70000012D0001002D0005100000PRO BLK-33GGSL
TXBWIC21070-42579-81606-40000018D0002005D0012200005PRO BLK-43GGSL
TXBWIC21070-42579-81607-10000068D0010742D0005900012PRO BLK-63GGSL
TXBWIC21070-42579-81608-80000001D0000228D0000700001PRO BLK-83GGSL
TXBWIC21070-42579-81733-70000014D0000866D0006100000CS-3300BLKGGSL
TXBWIC21070-42579-81734-40000034D0002541D0002900008CS-4300BLKGGSL
TXBWIC21070-42579-81735-10000035D0004112D0006800001CS-6300BLKGGSL
TXBWIC21070-42579-81739-90000007D0001616D0000200001CS-3100BLKGGSL
TXBWIC21070-42579-81762-70000004D0002312D0000000000AEC-DS    GGSL
TXBWIC21070-42579-82278-20000012D0000107D0000000072TWBAG-12  GGSL
TXBWIC21070-42579-82283-60000040D0000359D0000000000STRTS-28  GGSL
TXBWIC21070-42853-00000-00000278D0016323D0009900016BFTD-DB12 GGSL
TXBWIC21070-42853-10000-10000036D0000146D0005600000ST3-BB4   GGSL
TXBWIC21070-42853-12000-90000124D0000340D0004400012MGC-DB12  GGSL
TXBWIC21070-42853-40000-20000128D0000346D0000000000TSF-BB8   GGSL
TXBWIC21070-42853-42000-00000168D0001111D0022800066TSBF-BB6  GGSL
TXBWIC21070-42853-50000-90000318D0002113D0069000168TSW-BB6   GGSL
TXBWIC21070-42853-52000-40000012D0000080D0000600006CBTS-BB6  GGSL
TXBWIC21070-42853-60000-60000008D0000022D0000000000FFTR-BB4  GGSL
TXBWIC21070-42853-61000-50000064D0000275D0000000000FFTR2-BB4 GGSL
TXBWIC21070-42853-62000-40000104D0000135D0001900000FFTA-DB12 GGSL
TXBWIC21070-42853-65000-10000016D0000060D0005600060AB6-BB4   GGSL
TXBWIC21070-42853-75117-30000324D0000617D0036000000PFTA-DB12 GGSL
TXBWIC21070-42853-77305-40000364D0015482D0005600029FTD-DB12  GGSL
TXBWIC21070-42853-77603-90000002D0000086D0000600000YJTD-DB12-GGSL
TXBWIC21070-42854-03298-10000492D0001070D0010800012FG32ORB112GGSL
TXBWIC21070-42854-63278-50000060D0000115D0055200000FG32PC1-12GGSL
TXBWIC21070-42854-64870-00000066D0000463D0014400006FG48PC1-6 GGSL
TXBWIC21070-42854-93200-70000024D0000120D0006000000FG32SM1-12GGSL
TXBWIC21070-43256-33050-70000006D0000489D0003300000DT1050    GGSL
TXBWIC21070-43312-10003-70000057D0000175D0002800000103-0-009 GGSL
TXBWIC21070-43312-10027-30000084D0000643D0056400000104-0-003 GGSL
TXBWIC21070-43312-10031-00000010D0000273D0008100000107-0-002 GGSL
TXBWIC21070-43326-16720-00000024D0000207D0000800000A8X10-P8  GGSL
TXBWIC21070-43326-17720-90000016D0000100D0000000000BRB8X10-P GGSL
TXBWIC21070-43326-59771-70000012D0000838D0000000000G10X18    GGSL
TXBWIC21070-43326-59772-40000006D0000546D0000300000G12X20    GGSL
TXBWIC21070-43792-60002-70000001D0000039D0000300005W32       GGSL
TXBWIC21070-43792-90003-50000002D0000086D0001100001GA10      GGSL
TXBWIC21070-44882-30115-20000020D0000163D0000000000WS50      GGSL
TXBWIC21070-44882-30501-30000005D0000045D0000000100FXG5825   GGSL
TXBWIC21070-44882-30502-00000030D0000487D0000000155FXG5850   GGSL
TXBWIC21070-44882-30504-40000021D0000497D0006600054FXG5875   GGSL
TXBWIC21070-44882-30506-80000027D0000864D0000000057FXG58100  GGSL
TXBWIC21070-46539-62045-60003622D0053215D0229100137          GGSL
TXBWIC21070-46539-64032-40001547D0014588D0000001399          GGSL
TXBWIC21070-46753-01032-30000054D0000205D00076000004675301032GGSL
TXBWIC21070-46753-01128-30000052D0000463D00208000004675301128GGSL
TXBWIC21070-46753-02032-20000054D0000256D00099000004675302032GGSL
TXBWIC21070-46753-02128-20000040D0000470D00231000004675302128GGSL
TXBWIC21070-46753-03032-10000012D0000063D00000000004675303032GGSL
TXBWIC21070-46753-03128-10000036D0000478D00120000004675303128GGSL
TXBWIC21070-46753-04032-00000142D0000969D00510000064675304032GGSL
TXBWIC21070-46753-04033-70000096D0000770D00708003122004675304GGSL
TXBWIC21070-46753-04128-00000208D0002904D00468000924675304128GGSL
TXBWIC21070-46753-04500-40000002D0000127D00013000004675304500GGSL
TXBWIC21070-46753-05032-90000222D0001894D00726004804675305032GGSL
TXBWIC21070-46753-05128-90000100D0001351D00212000564675305128GGSL
TXBWIC21070-46753-07032-70000036D0000197D00084000004675307032GGSL
TXBWIC21070-46753-07128-70000004D0000050D00000000004675307128GGSL
TXBWIC21070-46753-08016-60000012D0000104D000000000080160     GGSL
TXBWIC21070-46753-08032-60000456D0007060D01032004174675308032GGSL
TXBWIC21070-46753-10128-10000004D0000049D00000000004675310128GGSL
TXBWIC21070-46753-14032-70000012D0000053D00555000004675314032GGSL
TXBWIC21070-46753-14128-70000084D0000642D00294000044675314128GGSL
TXBWIC21070-46753-15005-00000006D0000059D000000000050050     GGSL
TXBWIC21070-46753-15040-10000040C0000059C000010000050401     GGSL
TXBWIC21070-46753-17005-80000054D0000212D00190000064675317005GGSL
TXBWIC21070-46753-17040-90000689D0009512D01318000004675317040GGSL
TXBWIC21070-46753-17201-40000001D0000368D000000000072014     GGSL
TXBWIC21070-46753-19128-20000004D0000054D0000000000          GGSL
TXBWIC21070-46753-19500-60000006D0000368D0000000000195006    GGSL
TXBWIC21070-46753-19550-10000001D0000521D000000000095501     GGSL
TXBWIC21070-46753-21032-70000144D0000691D008280012010327     GGSL
TXBWIC21070-46753-21128-70000100D0001250D003720011612287     GGSL
TXBWIC21070-46878-26382-60000003D0000033D000000000026382     GGSL
TXBWIC21070-46878-27389-40000009D0000156D000060000027389     GGSL
TXBWIC21070-46878-27436-50000006D0000104D000180000027436     GGSL
TXBWIC21070-46878-27560-70000012D0000208D000390000327560     GGSL
TXBWIC21070-47985-10023-30000085D0000709D0026400000YCBSM3CF-PGGSL
TXBWIC21070-47985-10033-20000155D0001276D0037100000YCBSI3CF-PGGSL
TXBWIC21070-48307-70004-90000186D0001865D0035900025ST4-WS    GGSL
TXBWIC21070-48307-70005-60000168D0002540D0015100006ST5       GGSL
TXBWIC21070-48307-70006-30000020D0000325D0000200003ST6       GGSL
TXBWIC21070-48745-22244-80000032D0000785D0003200000BL22244   GGSL
TXBWIC21070-50197-00104-50000357D0001657D0267200132HT4       GGSL
TXBWIC21070-50197-00108-30000114D0000736D0012000000HT8       GGSL
TXBWIC21070-50197-00118-20000207D0002440D0121500015HT18      GGSL
TXBWIC21070-50197-00136-60000108D0002189D0019400068HT36      GGSL
TXBWIC21070-50197-00150-20000114D0002450D0016300002HT50      GGSL
TXBWIC21070-50197-00204-20000647D0002924D0331300864PT4       GGSL
TXBWIC21070-50197-00208-00000096D0000619D0003400024PT8       GGSL
TXBWIC21070-50197-00218-90000152D0002092D0029700023PT18      GGSL
TXBWIC21070-50197-00236-30000351D0006281D0019300128PT36      GGSL
TXBWIC21070-50197-00250-90000003D0000083D0002500001PT50      GGSL
TXBWIC21070-50197-00304-90000486D0002253D0236300528GT4       GGSL
TXBWIC21070-50197-00308-70000006D0000041D0000000012GT8       GGSL
TXBWIC21070-50197-00318-60000027D0000352D0051000020GT18      GGSL
TXBWIC21070-50197-00336-00000034D0000697D0014500006GT36      GGSL
TXBWIC21070-50197-00404-60000552D0002605D0140100468RT4       GGSL
TXBWIC21070-50197-00408-40000036D0000250D0023400000RT8       GGSL
TXBWIC21070-50197-00418-30000121D0001477D0037900000RT18      GGSL
TXBWIC21070-50197-00604-00000096D0000458D0083100408BT4       GGSL
TXBWIC21070-50197-00704-70000156D0000748D0061100144TR4       GGSL
TXBWIC21070-50197-00718-40000014D0000195D0018600020TR18      GGSL
TXBWIC21070-50197-00904-10000636D0002965D0226901398TO4       GGSL
TXBWIC21070-50197-00908-60000030D0000224D0019800000TO8       GGSL
TXBWIC21070-50197-00918-80000013D0000190D0021400007TO18      GGSL
TXBWIC21070-50197-01004-70000084D0000378D0039600480BM04      GGSL
TXBWIC21070-50197-01130-30000007D0000235D0000000000gs30      GGSL
TXBWIC21070-50197-01228-70000021D0000372D0008500001RP28      GGSL
TXBWIC21070-50197-01303-10000132D0000781D0061200792DB03      GGSL
TXBWIC21070-50197-01317-80000010D0000334D0010500000DB17      GGSL
TXBWIC21070-50197-01403-80000012D0000054D0000000000CM3       GGSL
TXBWIC21070-50197-01606-30000006D0000044D0000000000TP6       GGSL
TXBWIC21070-50197-01706-00000012D0000084D0000000000PO6       GGSL
TXBWIC21070-50197-01803-60000024D0000088D0003600000GM3       GGSL
TXBWIC21070-50197-01825-80000013D0000117D0001200000GM25      GGSL
TXBWIC21070-50197-01905-70000006D0000024D0002400012GF5105/6  GGSL
TXBWIC21070-50197-02006-00000168D0000418D0062100120GL6       GGSL
TXBWIC21070-50197-02206-40000186D0000919D0014700192GG6       GGSL
TXBWIC21070-50197-02304-70000012D0000048D0001200012CS4       GGSL
TXBWIC21070-50197-02805-90000006D0000030D0000000012GF101010/6GGSL
TXBWIC21070-50197-02904-90000418D0001946D0085800390FT4       GGSL
TXBWIC21070-50197-02918-60000035D0000453D0028300014FT18      GGSL
TXBWIC21070-50197-03804-10001721D0008998D0162500258BTSP4     GGSL
TXBWIC21070-50197-03818-80000010D0000216D0005600000BTSP18    GGSL
TXBWIC21070-50197-03825-60000284D0006670D0057300023BTSP25    GGSL
TXBWIC21070-50197-03904-80000282D0001321D0080100360PM4       GGSL
TXBWIC21070-50197-03920-80000008D0000114D0022900003PM20      GGSL
TXBWIC21070-50197-05004-30000432D0002020D0199400540CT4       GGSL
TXBWIC21070-50197-05018-00000052D0000719D0051100000CT18      GGSL
TXBWIC21070-50197-05320-40000002D0000036D0024200000ELF20     GGSL
TXBWIC21070-50197-05405-80000060D0000299D0022900144IT5       GGSL
TXBWIC21070-50197-05420-10000009D0000138D0004800010it20      GGSL
TXBWIC21070-50197-05628-10000021D0000531D0008200020EOLF28    GGSL
TXBWIC21070-50197-05730-10000003D0000063D0000700000EOSR30    GGSL
TXBWIC21070-50197-06203-90000012D0000048D0000000000AL3       GGSL
TXBWIC21070-50197-06504-70000216D0000978D0123600264AT4       GGSL
TXBWIC21070-50197-06508-50000006D0000043D0007200000AT8       GGSL
TXBWIC21070-50197-06604-40000060D0000292D0055800120BR4       GGSL
TXBWIC21070-50197-06708-90000006D0000042D0000000000ET8       GGSL
TXBWIC21070-50197-31308-70000006D0000025D0002400000TOPF8     GGSL
TXBWIC21070-50197-31318-60000006D0000038D0001800012topf18    GGSL
TXBWIC21070-50197-70101-30000039D0000290D0048100000ap1       GGSL
TXBWIC21070-50197-70102-00000074D0000877D0054600005ap2       GGSL
TXBWIC21070-50197-70304-80000136D0000376D0052400072ca4       GGSL
TXBWIC21070-50197-70308-60000126D0000566D0007200060ca8       GGSL
TXBWIC21070-50197-70608-70000006D0000026D0020400804PTM8      GGSL
TXBWIC21070-50197-71304-70000060D0000434D0067200180EC4       GGSL
TXBWIC21070-50197-71501-00000084D0000581D0072700000lsc1      GGSL
TXBWIC21070-50197-71601-70000088D0000453D0062400000dcm1      GGSL
TXBWIC21070-50197-71904-90000012D0000093D0003600000HC4       GGSL
TXBWIC21070-50197-80117-10000033D0000342D0084200120SC17      GGSL
TXBWIC21070-50349-01003-10000003D0000149D00000000001003-012  GGSL
TXBWIC21070-50349-01069-70000020D0000092D00040000001069-012  GGSL
TXBWIC21070-50699-00000-00000002D0000018D0001000000303460    GGSL
TXBWIC21070-50699-00014-00000001D0000005D0002600002300014    GGSL
TXBWIC21070-50699-00128-10000002D0000054D0000000000300128    GGSL
TXBWIC21070-50699-00212-00000060D0000502D0024600000300212    GGSL
TXBWIC21070-51497-15464-60000003D0000395D000100000015464     GGSL
TXBWIC21070-51497-15466-00000008D0000079D000010000015466     GGSL
TXBWIC21070-52427-01038-40000003D0000054D0000000000105462    GGSL
TXBWIC21070-52427-01048-30000002D0000074D0000000000105629    GGSL
TXBWIC21070-52427-01049-00000001D0000037D0000000000105634    GGSL
TXBWIC21070-52427-60035-60000001D0000147D00000000006035240   GGSL
TXBWIC21070-52427-60109-40000002D0000044D00000000006010902   GGSL
TXBWIC21070-52732-00000-00000200C0000000D000100002419109     GGSL
TXBWIC21070-52732-00000-10000001D0000008D000000000018100.0   GGSL
TXBWIC21070-52732-10012-10000003D0000402D001030000010001     GGSL
TXBWIC21070-52732-10225-50000008D0000265D000090000260009.0   GGSL
TXBWIC21070-52732-20505-50000005D0000577D00080000002050SU    GGSL
TXBWIC21070-52732-20509-30000006D0000973D00075000002050P     GGSL
TXBWIC21070-52732-20519-20000007D0001064D00018000032050TP    GGSL
TXBWIC21070-52732-27500-30000397D0016566D01133000642750      GGSL
TXBWIC21070-52732-34000-80000001D0000020D00009000003400.0    GGSL
TXBWIC21070-53291-11002-60000312D0003602D0012000264820-1002  GGSL
TXBWIC21070-53291-19937-30000048D0000100D0001200000820-0409  GGSL
TXBWIC21070-53291-30000-00000003D0000939D0000800000820-1024  GGSL
TXBWIC21070-53291-40003-50000010D0000039D0000000000840-0003  GGSL
TXBWIC21070-53291-40047-90000010D0000030D0001000000840-0047  GGSL
TXBWIC21070-53291-40055-40000010D0000030D0001000000840-0055  GGSL
TXBWIC21070-53291-50052-00000004D0000119D0000800000850-0052  GGSL
TXBWIC21070-53291-55981-80000036D0000135D0000000000820-0188  GGSL
TXBWIC21070-66498-01115-70000129D0002707D003600004201115.0   GGSL
TXBWIC21070-66498-02115-60006068D0090933D051100098402775.0   GGSL
TXBWIC21070-66498-02185-90000440D0005712D000880001002185     GGSL
TXBWIC21070-66498-02330-90000240D0004048D00120000006649802330GGSL
TXBWIC21070-66498-04175-80001525D0016711D003680093604175.0   GGSL
TXBWIC21070-66498-05113-90000307D0002085D000300000505175.0   GGSL
TXBWIC21070-66498-09901-80001519D0010158D109190000109901.0   GGSL
TXBWIC21070-66498-09902-50002890D0029173D092390006509902.0   GGSL
TXBWIC21070-66498-09903-20001348D0019580D027190010109903.0   GGSL
TXBWIC21070-66498-09925-40000120D0000570D008460001209925     GGSL
TXBWIC21070-66498-09929-20000002D0000016D003380000209929     GGSL
TXBWIC21070-66498-09937-70001656D0005563D057960078009937     GGSL
TXBWIC21070-66498-09947-60000480D0001473D011040025209947     GGSL
TXBWIC21070-66498-09950-50001302D0008699D008760053409955     GGSL
TXBWIC21070-66498-09965-00000600D0004734D019260035409965     GGSL
TXBWIC21070-66498-09977-30000360D0002252D003960007209977     GGSL
TXBWIC21070-66498-09985-80000276D0001065D005270031809985     GGSL
TXBWIC21070-66498-89905-20000930D0003972D046580021609905     GGSL
TXBWIC21070-66498-99827-40001140D0005972D013800037209827     GGSL
TXBWIC21070-70183-50005-50000072D0002565D00244000485000510   GGSL
TXBWIC21070-70183-50006-20000234D0008622D00090000305000610   GGSL
TXBWIC21070-70183-50023-90000204D0005198D00078000065002306   GGSL
TXBWIC21070-70183-50026-00000360D0004253D00456001165002610   GGSL
TXBWIC21070-70183-50027-70000522D0002265D00234001805002715   GGSL
TXBWIC21070-70183-50029-10000056D0000690D00131000005007410   GGSL
TXBWIC21070-70183-50034-50002000D0008039D01617000245003470   GGSL
TXBWIC21070-70183-50038-30000060D0000881D00172000045003810   GGSL
TXBWIC21070-70183-50042-00000062D0005666D00030000005004215   GGSL
TXBWIC21070-70183-50055-00001068D0012019D00744000725005510   GGSL
TXBWIC21070-70183-50060-40000528D0018039D00090000005006010   GGSL
TXBWIC21070-70183-50085-70000012D0000618D00006000005008510   GGSL
TXBWIC21070-70183-51001-60000824D0014874D00544000205100114   GGSL
TXBWIC21070-70183-51006-10001814D0042552D00564000245100610   GGSL
TXBWIC21070-70183-51007-80000504D0019314D00234000185100710   GGSL
TXBWIC21070-70183-51009-20000060D0000874D00116000245004010   GGSL
TXBWIC21070-70183-51019-10000168D0003591D00160000365101910   GGSL
TXBWIC21070-70183-51073-30000234D0001131D00438000005107315   GGSL
TXBWIC21070-70183-51090-00000480D0008671D00472000405109010   GGSL
TXBWIC21070-70183-52005-30000008D0000188D00048000045200510   GGSL
TXBWIC21070-70183-52039-80000212D0004653D00096000125203910   GGSL
TXBWIC21070-70183-52350-40000008D0000218D00020000125235010   GGSL
TXBWIC21070-70183-57050-80000294D0008725D00138000065705010   GGSL
TXBWIC21070-70183-57080-50000020D0000314D00008000005708010   GGSL
TXBWIC21070-70183-57250-20000388D0008415D00048000045725070   GGSL
TXBWIC21070-70183-88891-70000006D0000871D00000000008889136   GGSL
TXBWIC21070-70251-65240-20000004D0000112D0001000000652400    GGSL
TXBWIC21070-70251-75546-20000042D0000323D0002700012755460    GGSL
TXBWIC21070-70251-76116-60000078D0000876D0018000000761160    GGSL
TXBWIC21070-70251-79160-60000138D0001305D0013200000791600    GGSL
TXBWIC21070-70251-81182-30000030D0000414D00048000008111082   GGSL
TXBWIC21070-70251-81482-40000006D0000039D00210000128141082   GGSL
TXBWIC21070-70251-82746-60000015D0000157D00051000008274600   GGSL
TXBWIC21070-70805-00000-00000120D0001851D0000000000SH1HORANEYGGSL
TXBWIC21070-70805-51001-10000899D0002228D024400005070805-010-GGSL
TXBWIC21070-70805-51002-80000564D0002606D012730001070805-005-GGSL
TXBWIC21070-70805-51013-40002761D0040547D0267800181BD02      GGSL
TXBWIC21070-70805-51024-00000126D0000448D003060000070805-006-GGSL
TXBWIC21070-70805-51025-70003056D0041913D062880019170805-001-GGSL
TXBWIC21070-70805-51026-40000288D0000966D005280001270805-006-GGSL
TXBWIC21070-70805-51033-20000273D0003671D009920002170805-001-GGSL
TXBWIC21070-70805-51034-90000293D0007509D009780000270805-001-GGSL
TXBWIC21070-70805-51037-00000020D0000257D001470000070805-001-GGSL
TXBWIC21070-70805-51038-70000064D0001515D002310000070805-001-GGSL
TXBWIC21070-70805-51051-60000048D0000306D005920000870805-008-GGSL
TXBWIC21070-70805-53003-30002185D0017735D0352900096BD021     GGSL
TXBWIC21070-70805-62025-30004279D0110904D110780028070805-001-GGSL
TXBWIC21070-70805-84052-10000022D0000684D0008400000KERNEL_M-0GGSL
TXBWIC21070-70805-84053-80000231D0004859D003030000670805-001-GGSL
TXBWIC21070-70805-84054-50000151D0002579D004340000270805-001-GGSL
TXBWIC21070-70805-84075-00000573D0018082D014400000270805-001-GGSL
TXBWIC21070-70805-84076-70000092D0005334D004370000270805-001-GGSL
TXBWIC21070-70805-84077-40000011D0000630D0018300000KERNEL_M-0GGSL
TXBWIC21070-70805-84079-80000248D0009870D004690000470805-001-GGSL
TXBWIC21070-70805-84093-40000045D0002207D0012900005PEANUTSPL-GGSL
TXBWIC21070-70923-00000-00000024D0000105D0043300024600.0     GGSL
TXBWIC21070-70923-00196-50000300D0000632D0101900000T100-12   GGSL
TXBWIC21070-70923-00300-60000330D0001478D0165600000300.0     GGSL
TXBWIC21070-70923-00402-70000090D0000304D0009600006T401-6    GGSL
TXBWIC21070-70923-00912-10000012D0000069D0006900000T901-6    GGSL
TXBWIC21070-70923-01860-40000006D0000032D0000000000T1806-6   GGSL
TXBWIC21070-70923-02111-60000168D0000951D0000600000T21016    GGSL
TXBWIC21070-70923-02301-10000012D0000036D0003600030T2302-6   GGSL
TXBWIC21070-70923-02900-60000088D0000437D0020800024T2900     GGSL
TXBWIC21070-70923-08515-60000024D0000038D0050400000T3206     GGSL
TXBWIC21070-70923-12117-50000001D0000022D0001500000T300-NT   GGSL
TXBWIC21070-70923-12277-60000030D0000143D0002100000T1812     GGSL
TXBWIC21070-70923-29432-90000036D0000301D0000000006T514      GGSL
TXBWIC21070-70923-69500-30000028D0001046D0008800000T2512     GGSL
TXBWIC21070-71092-32500-80000438D0001954D0061800048T2502     GGSL
TXBWIC21070-71121-04460- 0000036D0000365D0009300006HG-61067  GGSL
TXBWIC21070-71121-05580-40000204D0001592D00684001205580      GGSL
TXBWIC21070-71121-53940-30000092D0000764D0022800000HG-53944  GGSL
TXBWIC21070-71121-95704-70000024D0000134D0003000000HG-95704  GGSL
TXBWIC21070-71121-95830-30000006D0000061D0003600000HG-95830  GGSL
TXBWIC21070-71121-96281-20000780D0003653D0065400042HG-96281  GGSL
TXBWIC21070-71549-01128-40000144D0000451D00144000000112812   GGSL
TXBWIC21070-71549-01129-10000112D0000320D00400000480112912   GGSL
TXBWIC21070-71549-01656-20000042D0000284D00339000000165610   GGSL
TXBWIC21070-71549-01666-10000174D0001999D00030000060166610   GGSL
TXBWIC21070-71549-01738-50000552D0004318D00450000120173810   GGSL
TXBWIC21070-71549-01748-40000012D0000104D00225000060174810   GGSL
TXBWIC21070-71549-01936-50000042D0000290D00087001320193610   GGSL
TXBWIC21070-71549-02000-20000012D0000200D00112000000200010   GGSL
TXBWIC21070-71549-02003-30000916D0013415D00308000040200310   GGSL
TXBWIC21070-71549-02014-90000036D0000210D00180000000201405   GGSL
TXBWIC21070-71549-02022-40000144D0000426D00152000000202212   GGSL
TXBWIC21070-71549-02028-60000104D0000329D00016000000202812   GGSL
TXBWIC21070-71549-02029-30000006D0000024D00012000000202912   GGSL
TXBWIC21070-71549-02032-30000004D0000043D00000000000203205   GGSL
TXBWIC21070-71549-02044-60000052D0000386D00152000000204410   GGSL
TXBWIC21070-71549-02045-30000012D0000148D00120000000204510   GGSL
TXBWIC21070-71549-02047-70000644C0000148C00900000480204710   GGSL
TXBWIC21070-71549-02048-40000024D0000610D00032000000204810   GGSL
TXBWIC21070-71549-02049-10000528D0003457D00516000000204910   GGSL
TXBWIC21070-71549-02054-50000048D0000261D00040000000205408   GGSL
TXBWIC21070-71549-02055-20001140D0002313D00498000420205506   GGSL
TXBWIC21070-71549-02057-60000012D0000047D00312000000205710   GGSL
TXBWIC21070-71549-02208-20001488D0012352D00384000040220810   GGSL
TXBWIC21070-71549-02219-80000108D0000755D00012000000221910   GGSL
TXBWIC21070-71549-02756-80000135D0000337D00168000080275612   GGSL
TXBWIC21070-71549-02822-00001071D0010140D01137000360282210   GGSL
TXBWIC21070-71549-03320-00000004D0000064D00000000000332010   GGSL
TXBWIC21070-71549-03455-90000006D0000029D00000000000345510   GGSL
TXBWIC21070-71549-03456-60000066D0000266D00108001800345610   GGSL
TXBWIC21070-71549-03964-60000126D0000799D00042000000396410   GGSL
TXBWIC21070-71549-03987-50000006D0000062D00003000000398710   GGSL
TXBWIC21070-71549-04253-00001020D0006359D00480000040425310   GGSL
TXBWIC21070-71549-04256-10000007D0002091D00000000000425610   GGSL
TXBWIC21070-71549-04318-60000150D0000659D00310000609994318   GGSL
TXBWIC21070-71549-04378-00000138D0001236D00198000000437806   GGSL
TXBWIC21070-71549-04380-30000152D0000589D00096000000438006   GGSL
TXBWIC21070-71549-04385-80000522D0002329D00384000900438580   GGSL
TXBWIC21070-71549-04465-70000048D0000585D00000000000446505   GGSL
TXBWIC21070-71549-04477-00000258D0001126D00162000000447705   GGSL
TXBWIC21070-71549-04478-70000648D0005631D00096000000447805   GGSL
TXBWIC21070-71549-04479-40000408D0003252D00708000000447905   GGSL
TXBWIC21070-71549-04481-70000104D0000897D00032000080448105   GGSL
TXBWIC21070-71549-04486-20000438D0003298D00000000120448605   GGSL
TXBWIC21070-71549-04487-90000180D0001266D00000000000448705   GGSL
TXBWIC21070-71549-04488-60000016D0000239D00024000000448805   GGSL
TXBWIC21070-71549-04491-60000312D0002682D00084000360449105   GGSL
TXBWIC21070-71549-04493-00000076D0000648D00032000000449305   GGSL
TXBWIC21070-71549-04494-70000312D0002503D00384000000449405   GGSL
TXBWIC21070-71549-04495-40000102D0000457D00042000120449505   GGSL
TXBWIC21070-71549-04613-20000012D0000079D00108000000461412   GGSL
TXBWIC21070-71549-04616-30000288D0001383D00092000150461612   GGSL
TXBWIC21070-71549-04657-60000020D0000184D00110000000465705   GGSL
TXBWIC21070-71549-04745-00000048D0000335D00172000060474510   GGSL
TXBWIC21070-71549-04757-30000060D0000899D00096000000475705   GGSL
TXBWIC21070-71549-04758-00000009D0000229D00007000010475805   GGSL
TXBWIC21070-71549-04759-70000043D0002892D00004000000475905   GGSL
TXBWIC21070-71549-04910-20000090D0000351D00084000000491010   GGSL
TXBWIC21070-71549-07472-20000012D0000045D00036000000747210   GGSL
TXBWIC21070-71549-08410-30000564D0005198D00366001260841010   GGSL
TXBWIC21070-71549-43331-40000660D0003814D00840000240433310   GGSL
TXBWIC21070-71549-43361-10000688D0011422D00096000000433610   GGSL
TXBWIC21070-71549-43371-00000072D0002154D00118000000433710   GGSL
TXBWIC21070-71549-43701-50000488D0010003D00220000000437010   GGSL
TXBWIC21070-71549-43820-30000030D0000251D000100000004381012  GGSL
TXBWIC21070-71549-43887-60000408D0001319D00264000004388710   GGSL
TXBWIC21070-71549-46008-20000008D0000117D00140000004600810   GGSL
TXBWIC21070-71549-46025-90000012D0000067D00534000004602510   GGSL
TXBWIC21070-71549-46132-40000360D0004942D00316000204613264   GGSL
TXBWIC21070-71549-46134-80000060D0000258D00096000004613406   GGSL
TXBWIC21070-71549-46503-20000030D0000462D00540000004650306   GGSL
TXBWIC21070-71549-46510-00000084D0001173D00186000004651005   GGSL
TXBWIC21070-71549-46526-10000008D0000086D00004000324652605   GGSL
TXBWIC21070-71549-46527-80000072D0001280D00184000004652705   GGSL
TXBWIC21070-71549-99008-40000048D0000560D00450001509900810   GGSL
TXBWIC21070-71549-99019-00000048D0000577D00177000609901910   GGSL
TXBWIC21070-71898-43163-40000299D0006846D00865000007800      GGSL
TXBWIC21070-71898-43180-10000322D0005925D00933000147450      GGSL
TXBWIC21070-71898-43209-90000002D0000047D00226000007822      GGSL
TXBWIC21070-71898-43210-50000082D0002053D00217000007824      GGSL
TXBWIC21070-71898-43211-20000099D0002677D00384000007828      GGSL
TXBWIC21070-71898-43213-60000470D0010651D01015000057324      GGSL
TXBWIC21070-71898-43214-30000182D0003746D00768000007326      GGSL
TXBWIC21070-71898-43215-00000065D0000581D005730000532150     GGSL
TXBWIC21070-72525-00003-00000186D0000626D0017100084HRT-6     GGSL
TXBWIC21070-72525-00005-40000201D0000978D0012900060HRP-16    GGSL
TXBWIC21070-72525-00022-10000084D0000642D0015000024HBB-32    GGSL
TXBWIC21070-72525-00048-10000024D0000098D0011700000HDE-8     GGSL
TXBWIC21070-72525-00055-90000060D0000410D0007800060EGG-16    GGSL
TXBWIC21070-72525-00078-80000045D0000158D0010500000BBTRP     GGSL
TXBWIC21070-72532-00014-80000981D0007678D0154400780          GGSL
TXBWIC21070-72532-00015-50000245D0006171D0072800244          GGSL
TXBWIC21070-72532-00016-20000060D0002652D0027700028          GGSL
TXBWIC21070-72532-00017-90000199D0022144D0031700006          GGSL
TXBWIC21070-72532-22310-30000060D0000448D0019000210stspray-10GGSL
TXBWIC21070-72532-33208-90000008D0000060D0000000000stfood32-8GGSL
TXBWIC21070-72693-00014-80000064D0000673D003420001282770001  GGSL
TXBWIC21070-72693-00015-50000129D0008901D005600000482100001  GGSL
TXBWIC21070-72693-00022-30000064D0007804D001260000083000002  GGSL
TXBWIC21070-72693-00029-20000015D0004725D000050000282100002  GGSL
TXBWIC21070-72693-00032-20000012D0000360D000690005182100006  GGSL
TXBWIC21070-72693-00046-90000204D0010077D004920000682004985  GGSL
TXBWIC21070-72693-00065-00000012D0000120D000000000082770006  GGSL
TXBWIC21070-72693-00210-40000010D0012100D000000000082690023  GGSL
TXBWIC21070-72693-00220-30000027D0004455D000080000082690032  GGSL
TXBWIC21070-72693-00332-30000098D0001030D000020000082300330  GGSL
TXBWIC21070-72693-00368-20000006D0000306D000110000082690036  GGSL
TXBWIC21070-72693-00480-10000712D0077521D001380003482002490  GGSL
TXBWIC21070-72693-00498-60000812D0042852D002920005282002489  GGSL
TXBWIC21070-72693-00505-10001193D0023359D005640008482002488  GGSL
TXBWIC21070-72693-00993-60000002D0000062D000210000082100099  GGSL
TXBWIC21070-72693-01004-80000075D0003416D000770000482100100  GGSL
TXBWIC21070-72693-01020-80000013D0001518D001190001283014144  GGSL
TXBWIC21070-72693-01021-50000008D0000152D000300000082701021  GGSL
TXBWIC21070-72693-02475-50000083D0002174D003510000082002475  GGSL
TXBWIC21070-72693-02478-60000004D0000748D000650000082002478  GGSL
TXBWIC21070-72693-02479-30000859D0004453D017570003482002479  GGSL
TXBWIC21070-72693-02504-20000060D0000768D003930000082002504  GGSL
TXBWIC21070-72693-02506-60002063D0035562D026000007282002506  GGSL
TXBWIC21070-72693-02507-30000180D0028669D004470002482002507  GGSL
TXBWIC21070-72693-02600-10000006D0000412D000000000082002600  GGSL
TXBWIC21070-72693-02685-80000012D0000374D000060000082002685  GGSL
TXBWIC21070-72693-02686-50000327D0010125D007460001282002686  GGSL
TXBWIC21070-72693-02750-30000003D0000120D000050000082002750  GGSL
TXBWIC21070-72693-03052-70000030D0001740D000060001282300305  GGSL
TXBWIC21070-72693-03143-20000084D0000846D002820000682300314  GGSL
TXBWIC21070-72693-03154-80000240D0002786D004980001882300315  GGSL
TXBWIC21070-72693-03164-70000018D0000154D000390000082300316  GGSL
TXBWIC21070-72693-03174-60000032D0000326D000300000682300317  GGSL
TXBWIC21070-72693-03188-30000004D0000188D001130000082300318  GGSL
TXBWIC21070-72693-03194-40000006D0000165D000300000082300319  GGSL
TXBWIC21070-72693-03254-50000470D0024184D000360002582003254  GGSL
TXBWIC21070-72693-03284-20000018D0000147D000540000082300328  GGSL
TXBWIC21070-72693-03298-90000293D0021392D002660000282300329  GGSL
TXBWIC21070-72693-03395-50000002D0000390D000250000082300339  GGSL
TXBWIC21070-72693-03598-00002021D0072539D068000013082003598  GGSL
TXBWIC21070-72693-03599-70001384D0131480D012510008482003599  GGSL
TXBWIC21070-72693-04320-60002572D0139937D048620014682004320  GGSL
TXBWIC21070-72693-04430-20001685D0027610D022230005182004430  GGSL
TXBWIC21070-72693-04431-90001322D0029794D018260009682004431  GGSL
TXBWIC21070-72693-04432-60004085D0123002D043690008582004432  GGSL
TXBWIC21070-72693-04435-70006206D0233028D022600010082004435  GGSL
TXBWIC21070-72693-04438-80005089D0076543D034150017182004438  GGSL
TXBWIC21070-72693-04491-30000246D0001729D001380002182004491  GGSL
TXBWIC21070-72693-04493-70000341D0006345D003350001582004493  GGSL
TXBWIC21070-72693-04500-20000029D0001730D000460001882304500  GGSL
TXBWIC21070-72693-04504-00000876D0020010D014860001882004505  GGSL
TXBWIC21070-72693-04505-70001342D0104732D013740003282004506  GGSL
TXBWIC21070-72693-04506-40000616D0010405D008650002482004504  GGSL
TXBWIC21070-72693-04508-80000199D0002198D014220003082004508  GGSL
TXBWIC21070-72693-04515-60000006D0000305D000530000082004515  GGSL
TXBWIC21070-72693-04516-30000002D0000417D000000000082004516  GGSL
TXBWIC21070-72693-04517-00000009D0000758D000690000082004517  GGSL
TXBWIC21070-72693-04964-20003169D0028742D2730400354MT10002KITGGSL
TXBWIC21070-72693-05004-40000612D0003254D020640002482005004  GGSL
TXBWIC21070-72693-05005-10000792D0010284D023340001882005005  GGSL
TXBWIC21070-72693-05007-50000595D0016153D004860026082005007  GGSL
TXBWIC21070-72693-05200-00000552D0005552D005000002482030466  GGSL
TXBWIC21070-72693-05201-70000768D0004201D014280004882005201  GGSL
TXBWIC21070-72693-05202-40000516D0006847D011580001282005202  GGSL
TXBWIC21070-72693-06002-90001758D0023575D009840007282004318  GGSL
TXBWIC21070-72693-06003-60001012D0028444D004680003682004319  GGSL
TXBWIC21070-72693-08300-40001242D0062654D021600002082008300  GGSL
TXBWIC21070-72693-10002-20000010D0000130D000760000082004964  GGSL
TXBWIC21070-72693-10011-40000528D0004919D006960020482004317  GGSL
TXBWIC21070-72693-10012-10000008D0000154D000330000082210011  GGSL
TXBWIC21070-72693-10013-80000090D0000706D000840000082210012  GGSL
TXBWIC21070-72693-10221-70000012D0000344D001950000082210022  GGSL
TXBWIC21070-72693-10231-60000042D0000394D002520000082210023  GGSL
TXBWIC21070-72693-14057-80000077D0005390D005550000483014005  GGSL
TXBWIC21070-72693-14081-30000028D0001316D000000000083014008  GGSL
TXBWIC21070-72693-20038-80000002D0000532D000000000083080147  GGSL
TXBWIC21070-72693-21037-00000408D0002543D007200021682021037  GGSL
TXBWIC21070-72693-24010-00000092D0002375D001190001282002401  GGSL
TXBWIC21070-72693-24030-80000396D0031559D006790002482002403  GGSL
TXBWIC21070-72693-24925-70000001D0000042D000000000082002492  GGSL
TXBWIC21070-72693-24957-80000347D0001940D002430008182002495  GGSL
TXBWIC21070-72693-29101-00000003D0000165D001600000283012910  GGSL
TXBWIC21070-72693-29912-20001656D0020115D014070003883012991  GGSL
TXBWIC21070-72693-31550-10000008D0001320D000700000082300332  GGSL
TXBWIC21070-72693-31766-60000213D0003090D003330001282031766  GGSL
TXBWIC21070-72693-31866-30000012D0000115D000000000682031866  GGSL
TXBWIC21070-72693-31967-70000008D0001100D000080000082031968  GGSL
TXBWIC21070-72693-31973-80000146D0003419D001970001282031973  GGSL
TXBWIC21070-72693-31975-20000076D0004877D001940002182031975  GGSL
TXBWIC21070-72693-31984-40001248D0014289D027580055282031984  GGSL
TXBWIC21070-72693-31985-10002177D0027455D018590068482031985  GGSL
TXBWIC21070-72693-33563-90000013D0000791D002180002483013356  GGSL
TXBWIC21070-72693-33655-10000112D0003184D000000000083013365  GGSL
TXBWIC21070-72693-33688-90000083D0006199D002890000683013368  GGSL
TXBWIC21070-72693-33744-20000001D0000083D000190000083013374  GGSL
TXBWIC21070-72693-33820-30000003D0001100D000790000083013382  GGSL
TXBWIC21070-72693-33850-00000049D0004608D001820000083013385  GGSL
TXBWIC21070-72693-33880-70000013D0001967D000440000083013388  GGSL
TXBWIC21070-72693-33953-80000637D0021573D006590005783013395  GGSL
TXBWIC21070-72693-34530-00000174C0021573C000180000083013453  GGSL
TXBWIC21070-72693-34958-20000025D0001857D001270002183013884  GGSL
TXBWIC21070-72693-35969-70000008D0000578D000130000082690040  GGSL
TXBWIC21070-72693-36208-60000180D0008998D004240001883013620  GGSL
TXBWIC21070-72693-38178-00000120D0005838D003120000083013817  GGSL
TXBWIC21070-72693-38528-30000004D0001753D000630000083013852  GGSL
TXBWIC21070-72693-38830-70000018D0000543D000000000083013833  GGSL
TXBWIC21070-72693-40010-80000010D0001639D001030000083014003  GGSL
TXBWIC21070-72693-40127-30000031D0001544D001110000083014012  GGSL
TXBWIC21070-72693-40177-80000780D0004268D018420002482104017  GGSL
TXBWIC21070-72693-41488-40000008D0000557D000080000483014148  GGSL
TXBWIC21070-72693-41878-30000230D0008835D007670005183014187  GGSL
TXBWIC21070-72693-44290-00000596D0007541D013730002482004429  GGSL
TXBWIC21070-72693-44410-20001543D0054829D030150003782004441  GGSL
TXBWIC21070-72693-44430-00000517D0061251D006770001082004443  GGSL
TXBWIC21070-72693-44650-20000219D0004529D001830000082004465  GGSL
TXBWIC21070-72693-44660-10000253D0014574D000430000482004466  GGSL
TXBWIC21070-72693-45000-40000276D0001872D008370000082004500  GGSL
TXBWIC21070-72693-45010-30000516D0004706D007750019282004501  GGSL
TXBWIC21070-72693-45020-20000864D0012114D006600006082004502  GGSL
TXBWIC21070-72693-45030-10000236D0011131D011860000082994503  GGSL
TXBWIC21070-72693-45115-50000024D0000178D004770000082004511  GGSL
TXBWIC21070-72693-45530-60000038D0001356D000280000082004553  GGSL
TXBWIC21070-72693-46930-30000124D0001049D005760001282004693  GGSL
TXBWIC21070-72693-46950-10000034D0000978D001400000082004695  GGSL
TXBWIC21070-72693-46970-90000057D0008831D000900000082004697  GGSL
TXBWIC21070-72693-50064-80000324D0003164D008990183682005006  GGSL
TXBWIC21070-72693-50096-90000012D0001026D000270000382005009  GGSL
TXBWIC21070-72693-69370-80000060D0000447D001560000082690037  GGSL
TXBWIC21070-72693-70004-80000063D0000522D004500000082770008  GGSL
TXBWIC21070-72693-77034-80000294D0003090D003720007182770003  GGSL
TXBWIC21070-72693-81001-30000021D0000307D000310002082810002  GGSL
TXBWIC21070-72693-82104-00002098D0068188D045770001382100005  GGSL
TXBWIC21070-72693-82303-70000240D0001324D011640003682300001  GGSL
TXBWIC21070-72711-60018-30000001D0000040D000220000060012     GGSL
TXBWIC21070-72725-00023-80000068D0000938D0017200012HBB-128   GGSL
TXBWIC21070-72725-00093-10000013C0000938C0000000011FS-14     GGSL
TXBWIC21070-72725-00158-70000020D0000844D0016000000BLKBB-128 GGSL
TXBWIC21070-72725-00183-90000018D0000249D0004800000BLKBB-326 GGSL
TXBWIC21070-72725-00213-30000012D0000090D0007500000BLKBB-16A GGSL
TXBWIC21070-72725-00214-00000012D0000082D0007200012BLKBB-P4  GGSL
TXBWIC21070-72725-00259-10000036D0000147D0042000000CR-32     GGSL
TXBWIC21070-72725-00269-00000180D0001393D0052500369DE-FG105P GGSL
TXBWIC21070-72725-00407-60000216D0001350D0034800000DE-FG2P   GGSL
TXBWIC21070-72725-00408-30000176D0001560D0036800320DE-FG4P   GGSL
TXBWIC21070-72725-00461-80000120D0000370D0000000528360-32S   GGSL
TXBWIC21070-72868-00000-00001728D0001248D0628800000M330      GGSL
TXBWIC21070-72868-00300-40000708D0002161D0111600048M6006     GGSL
TXBWIC21070-72868-00326-40006732D0009638D2230800228M326      GGSL
TXBWIC21070-72868-00800-90000624D0005114D0100200084M6009     GGSL
TXBWIC21070-72868-02000-10000030D0000487D0004800006M9015     GGSL
TXBWIC21070-72868-02220-30000344D0002249D0122400008M6004     GGSL
TXBWIC21070-72868-02300-20000024D0000159D0001800000M7001-1   GGSL
TXBWIC21070-72868-02400-90000024D0000263D0011600232M7002-2   GGSL
TXBWIC21070-72868-03620-00000084D0005970D0025400004VP362     GGSL
TXBWIC21070-72868-03630-90000662D0005011D0333500048VP363     GGSL
TXBWIC21070-72868-03648-40001391D0015592D0161200129VP364B    GGSL
TXBWIC21070-72868-09012-70000012D0000229D0000000000M9012     GGSL
TXBWIC21070-72868-09320-30023256D0004460D2592000000M320      GGSL
TXBWIC21070-72868-11751-00000018D0000135D0012000000M751K     GGSL
TXBWIC21070-72868-13035-90000492D0000430D0732000324M035      GGSL
TXBWIC21070-72868-13200-10001140D0001610D0384000012200R      GGSL
TXBWIC21070-72868-13308-40000104D0001017D0052400012M308      GGSL
TXBWIC21070-72868-13309-10024048D0004399D6192000072M309      GGSL
TXBWIC21070-72868-13310-70000006D0000080D0033600000M310S     GGSL
TXBWIC21070-72868-13325-10003600D0001404D9345601800M325      GGSL
TXBWIC21070-72868-13327-50000600D0000120D1605000300M327      GGSL
TXBWIC21070-72868-24178-90000004D0000182D0005500000M241      GGSL
TXBWIC21070-72868-54002-80000384D0000621D0418800048M668      GGSL
TXBWIC21070-72868-54102-50000720D0001336D0842400072M669      GGSL
TXBWIC21070-72874-06464-80000021C0001336C01560000008412M     GGSL
TXBWIC21070-72874-06465-50000021C0001336C00492000008412L     GGSL
TXBWIC21070-72874-06850-90000012D0000137D00018000006039M     GGSL
TXBWIC21070-72874-06851-60000018D0000206D00066000006039L     GGSL
TXBWIC21070-72874-06852-30000018D0000206D00018000006039X     GGSL
TXBWIC21070-72874-07681-80000006D0000037D0000000000901L      GGSL
TXBWIC21070-72874-07747-10000012D0000037D00144000008438M     GGSL
TXBWIC21070-72874-08550-60000012D0000060D00066000004063L     GGSL
TXBWIC21070-72874-08551-30000012D0000060D00054000004063X     GGSL
TXBWIC21070-72874-40110-80000024D0000028D00036000004011      GGSL
TXBWIC21070-72874-40200-60000024D0000019D00372000004020L     GGSL
TXBWIC21070-72874-40673-80000012D0000118D00036000004067M     GGSL
TXBWIC21070-72874-40674-50000012D0000118D00084000004067L     GGSL
TXBWIC21070-72874-40675-20000012D0000118D00108000004067X     GGSL
TXBWIC21070-72874-40920-30000012D0000039D00108000004092      GGSL
TXBWIC21070-72874-40940-10000012D0000048D00036000004094L     GGSL
TXBWIC21070-72874-40945-60000012D0000048D00120000004094J     GGSL
TXBWIC21070-73035-01212-60000024D0000146D002640014401212     GGSL
TXBWIC21070-73035-01310-90000132D0000519D000480012001310     GGSL
TXBWIC21070-73035-01312-30000012D0000054D000240000001312     GGSL
TXBWIC21070-73035-02610-90001760D0000691D044800000002610     GGSL
TXBWIC21070-73035-02611-60000480D0000183D027200000002611     GGSL
TXBWIC21070-73035-02612-30000640D0000240D048000016002612     GGSL
TXBWIC21070-73035-04226-00000060D0000246D001950040004226     GGSL
TXBWIC21070-73035-06002-80000048D0000036D000120000006001     GGSL
TXBWIC21070-73035-06127-80000040D0000155D002880027206127     GGSL
TXBWIC21070-73035-06528-30000008D0000033D000000000006528     GGSL
TXBWIC21070-73035-06703-40000060D0000175D003960032406703     GGSL
TXBWIC21070-73035-09026-10000012D0000068D000000000009026     GGSL
TXBWIC21070-73035-09326-20000006D0000041D000060000009326     GGSL
TXBWIC21070-73035-09327-90000006D0000050D002040000009327     GGSL
TXBWIC21070-73035-25001-60000015D0000330D000710011605031T    GGSL
TXBWIC21070-73513-00339- 0000006D0000040D00054000003003310   GGSL
TXBWIC21070-73561-00022-20000216D0000998D00720002282000221   GGSL
TXBWIC21070-73561-00028-40001398D0009865D01272000121000283   GGSL
TXBWIC21070-73561-00042-00000420D0001920D06478003542000422   GGSL
TXBWIC21070-73561-00044-40000006D0000043D00000000061000441   GGSL
TXBWIC21070-73561-00055-00000528D0001390D01074002461000551   GGSL
TXBWIC21070-73561-00070-30000072D0000357D00492000001000701   GGSL
TXBWIC21070-73561-00099-40000342D0000779D02676000362000992   GGSL
TXBWIC21070-73561-00119-90000072D0001583D00200000001001193   GGSL
TXBWIC21070-73561-00150-20000054D0000276D00336001083001502   GGSL
TXBWIC21070-73561-00157-10000228D0000344D0003600000400157    GGSL
TXBWIC21070-73561-00179-30000006D0000063D00000000001001791   GGSL
TXBWIC21070-73561-00183-00000012D0000157D00000000001001834   GGSL
TXBWIC21070-73561-00190-80000090D0000275D0012600084100195    GGSL
TXBWIC21070-73561-00192-20000042D0000217D00702000181001921   GGSL
TXBWIC21070-73561-00199-10000096D0000279D00432000361001991   GGSL
TXBWIC21070-73561-00252-30000984D0000997D00720009601002522   GGSL
TXBWIC21070-73561-00404-60000078D0000439D00006000001004043   GGSL
TXBWIC21070-73561-00410-70000690D0006692D01170001261004102   GGSL
TXBWIC21070-73561-00432-90000492D0005393D00312000601004325   GGSL
TXBWIC21070-73561-00440-40000018D0000141D00018000001004402   GGSL
TXBWIC21070-73561-00475-60000012D0000082D00030000061004751   GGSL
TXBWIC21070-73561-00531-90000606D0001662D00480001021000532   GGSL
TXBWIC21070-73561-00590-60000084D0000250D00192000481005901   GGSL
TXBWIC21070-73561-00600-20000030D0000155D00030000903006002   GGSL
TXBWIC21070-73561-00720-70000204D0000651D0007200144100720    GGSL
TXBWIC21070-73561-00831-00000020D0000108D00005000001008311   GGSL
TXBWIC21070-73561-01611-70000192D0002196D00000000001016111   GGSL
TXBWIC21070-73561-03836-20000066D0000779D00102000001038361   GGSL
TXBWIC21070-73561-10114-10000049D0000651D00382000301011410   GGSL
TXBWIC21070-73561-12100-20000006D0000034D0000600000112100    GGSL
TXBWIC21070-73561-30019-30000234D0002410D01002000123001910   GGSL
TXBWIC21070-73561-30027-80000006D0000063D00084000003002710   GGSL
TXBWIC21070-73561-30035-30000048C0000063C00102000003003510   GGSL
TXBWIC21070-73561-36001-20000918D0002767D01302003841360011   GGSL
TXBWIC21070-73561-46001-90000090D0000903D0045000102146002    GGSL
TXBWIC21070-73561-48510-40000252D0001482D00204000484851012   GGSL
TXBWIC21070-73561-60101-60001074D0003359D0461900648160101    GGSL
TXBWIC21070-73561-70101-30000444D0004095D0144600336170101    GGSL
TXBWIC21070-73561-75001-10000648D0002091D00834002761750011   GGSL
TXBWIC21070-73561-85001-80000042D0000394D00270000001850011   GGSL
TXBWIC21070-73889-10003-10000004D0000033D00032000001091      GGSL
TXBWIC21070-73889-10004-80000196D0000963D00676003481273      GGSL
TXBWIC21070-74514-57625-20000105D0000321D0057600024HG-95715  GGSL
TXBWIC21070-76807-00020-80001272D0000801D006720016846310     GGSL
TXBWIC21070-76807-00050-50001512D0002238D004320000046100     GGSL
TXBWIC21070-76807-00100-70000020D0000026D001000000046120     GGSL
TXBWIC21070-76807-53800-80000144D0000574D000600000046200     GGSL
TXBWIC21070-76807-62225-70000072D0000264D000000000047080     GGSL
TXBWIC21070-77342-14494-70000095D0000855D00005001208073807CS GGSL
TXBWIC21070-77625-81082-60000050D0000610D00126000028108-2    GGSL
TXBWIC21070-77625-81092-50000120D0001479D00200000108109-2    GGSL
TXBWIC21070-77784-05460-40000008D0000157D00074000005460      GGSL
TXBWIC21070-78627-01912-50000380D0005949D0059501000CSNFA12050GGSL
TXBWIC21070-78627-34824-90000002D0000114D0000000002CSNCG34100GGSL
TXBWIC21070-78627-58822-50000080D0001894D0005900025CSNCG58050GGSL
TXBWIC21070-78627-58823-20000042D0001386D0000000012CSNCG58075GGSL
TXBWIC21070-78627-58824-90000035D0001801D0001200012CSNCG58100GGSL
TXBWIC21070-78627-58832-40000090D0002245D0012500025SNFR58050 GGSL
TXBWIC21070-78627-58834-80000050D0002294D0013400015SNFR58100 GGSL
TXBWIC21070-78627-67582-60000110D0002907D0049000025CSNFXP5805GGSL
TXBWIC21070-78627-67583-30000060D0002265D0002700000CSNFXP5807GGSL
TXBWIC21070-78627-67584-00000051D0002706D0027600003CSNFXP5810GGSL
TXBWIC21070-78627-99381-40000072D0000474D0004800012CELSP38025GGSL
TXBWIC21070-78978-00570-90000001D0000035D0000000000570       GGSL
TXBWIC21070-78978-02400-70000048D0000096D003450003968        GGSL
TXBWIC21070-78978-05045-70000012D0000039D00128001249100      GGSL
TXBWIC21070-78978-06700-40000027D0000039D001170000367        GGSL
TXBWIC21070-78978-10150-00000002D0000026D00002000008120-2    GGSL
TXBWIC21070-78978-10158-60000012D0000164D00080000008117-2    GGSL
TXBWIC21070-78978-10514-00000001D0000028D00005000008504-2    GGSL
TXBWIC21070-78978-12115-70000004D0000065D000060000050182     GGSL
TXBWIC21070-78978-20540-60000018D0000035D0010300000205-Y     GGSL
TXBWIC21070-78978-21087-50000156D0001179D0045000150203CPBN   GGSL
TXBWIC21070-78978-21089-90000047D0000628D0040100000209B      GGSL
TXBWIC21070-78978-21090-50000024D0000251D0008400000210PB     GGSL
TXBWIC21070-78978-21520-70000108D0000333D0018000000215P      GGSL
TXBWIC21070-78978-21720-10000012D0000090D0007800000217       GGSL
TXBWIC21070-78978-22000-30000040D0000572D0080100000220-6     GGSL
TXBWIC21070-78978-23153-50000084D0000051D0153600000231-12    GGSL
TXBWIC21070-78978-23900-50000201D0000922D0139200000239       GGSL
TXBWIC21070-78978-27300-90000036D0000115D0020400006273       GGSL
TXBWIC21070-78978-31335-40000002D0000048D00000000009106-2    GGSL
TXBWIC21070-78978-33600-10000090D0001703D0013300072336       GGSL
TXBWIC21070-78978-33800-50000061D0001446D0006200020338       GGSL
TXBWIC21070-78978-44471-30000002D0000043D00000000009103-2    GGSL
TXBWIC21070-78978-51508-60000012D0000157D0000000000784       GGSL
TXBWIC21070-78978-54699-80000014D0000263D0001800000MCF001    GGSL
TXBWIC21070-78978-55002-50000192D0000278D0195000006240SF     GGSL
TXBWIC21070-78978-55004-90000004D0000019D0000000000244SFB    GGSL
TXBWIC21070-78978-55005-60000060D0000085D0055800000243SF     GGSL
TXBWIC21070-78978-57084-90000048D0000563D00054001503266      GGSL
TXBWIC21070-78978-60201-40000005D0000110D00008000549110-2    GGSL
TXBWIC21070-78978-64732-90000002D0000048D00000000009107-2    GGSL
TXBWIC21070-78978-64863-00000004D0000060D0000000004312R      GGSL
TXBWIC21070-78978-69452-10000002D0000034D00000000009102-2    GGSL
TXBWIC21070-78978-70046-80000010D0000159D00084000329109-2    GGSL
TXBWIC21070-78978-71315-40000002D0000030D00000000028138-2    GGSL
TXBWIC21070-78978-78500-70000032D0000427D0010000002785       GGSL
TXBWIC21070-78978-81322-90000020D0000254D00158000088132-2    GGSL
TXBWIC21070-78978-92818-30000018D0000286D0004600010HF940     GGSL
TXBWIC21070-78978-96327-60000093D0000574D0031700006238       GGSL
TXBWIC21070-78978-96328-30000018D0000081D0000000000239CL     GGSL
TXBWIC21070-78978-96663-50000002D0000046D00000000009108-2    GGSL
TXBWIC21070-84369-00001-70000021D0000226D0057000000PDF1RED   GGSL
TXBWIC21070-84369-00003-10000066D0000427D0018600000HP3       GGSL
TXBWIC21070-84369-00015-40000003D0000063D0004500000HP15      GGSL
TXBWIC21070-84369-00017-80000003D0000047D0001800000PDFERED   GGSL
TXBWIC21070-84369-00032-10000240D0000932D0052800078AW32      GGSL
TXBWIC21070-84369-00068-00000021D0000117D0000600000HP8       GGSL
TXBWIC21070-84369-00071-00000002D0000028D0004200000PSB70RED  GGSL
TXBWIC21070-84369-00073-40000003D0000037D0001800015PSB70BLUE GGSL
TXBWIC21070-84369-00088-80000001D0000029D000160000088SW      GGSL
TXBWIC21070-84369-00090-10000085D0000290D006370000090        GGSL
TXBWIC21070-84369-00092-50000012D0000007D000520001292        GGSL
TXBWIC21070-84369-00112-00000040D0000953D0000200000CH12      GGSL
TXBWIC21070-84369-00113-70000006D0000064D0000000000HF12BLUE  GGSL
TXBWIC21070-84369-00115-10000012D0000135D0012000000HF12RED   GGSL
TXBWIC21070-84369-00125-00000066D0001818D0003900006CH25      GGSL
TXBWIC21070-84369-00150-20000031D0001326D0000000015CH50      GGSL
TXBWIC21070-84369-00188-50000001D0000034D000020000088ESW     GGSL
TXBWIC21070-84369-00198-40000004D0000005D000410000098CN      GGSL
TXBWIC21070-84369-00310-00000028D0000600D0004700000PW13      GGSL
TXBWIC21070-84369-00650-70000036D0000402D0018600000HP650     GGSL
TXBWIC21070-84369-00666-80000048D0000078D0014400012666       GGSL
TXBWIC21070-84369-00680-40000012D0000018D0069600000680       GGSL
TXBWIC21070-84369-00690-30000468D0000479D0806400000690       GGSL
TXBWIC21070-84369-00730-60000036D0000035D0034800000730       GGSL
TXBWIC21070-84369-00740-50000216D0000207D0604800036740       GGSL
TXBWIC21070-84369-00780-10000036D0000075D0030000000780       GGSL
TXBWIC21070-84369-00786-30000005D0000020D0015600000P8FBBLUE  GGSL
TXBWIC21070-84369-00789-40000017D0000050D0010300000P8FBRED   GGSL
TXBWIC21070-84369-00820-40000036D0000111D0070800000820       GGSL
TXBWIC21070-84369-00825-90000078D0000620D0014300012TM825     GGSL
TXBWIC21070-84369-01000-90000012D0000037D0016800000HP1       GGSL
TXBWIC21070-84369-01009-20000036D0000201D0002400000AF3SL     GGSL
TXBWIC21070-84369-01013-90000024D0000143D0004800000AF5SL     GGSL
TXBWIC21070-84369-01017-70000047D0000304D0001200000AF7SL     GGSL
TXBWIC21070-84369-01018-40000011D0000240D0008900000AH2424    GGSL
TXBWIC21070-84369-01020-70000005D0000151D0005800000AH3030    GGSL
TXBWIC21070-84369-01040-50000112D0000825D0007100000ACP2      GGSL
TXBWIC21070-84369-01043-60000003D0000193D0001900000RHCK1     GGSL
TXBWIC21070-84369-01045-00000120D0000260D0006000024ACC1      GGSL
TXBWIC21070-84369-01110-50000007D0000141D0003400000LT1       GGSL
