NJARET22020-07633-31219-70000216D0003456D0000500001AP30218DW GGSL
NJARET22020-10106-16901-30000024D0000161D0000400000HG56901   GGSL
NJARET22020-10367-00001-80000120D0000498D00016000070001      GGSL
NJARET22020-10367-00300-20000024D0000304D00000000000300      GGSL
NJARET22020-10367-00460-30000160D0000997D000500002004608     GGSL
NJARET22020-10367-00530-30000001D0000045D00000000000530      GGSL
NJARET22020-10367-00560-00000312D0001308D000810002505608     GGSL
NJARET22020-10367-01000-00000096D0001331D00009000051000      GGSL
NJARET22020-10367-01010-90000006D0001264D0000200000ML101012DIGGSL
NJARET22020-10367-01010-90000072D0001145D00008000061010      GGSL
NJARET22020-10367-01020-80000024D0000415D00009000071020      GGSL
NJARET22020-10367-01050-50000012D0000151D00001000001050      GGSL
NJARET22020-10367-01110-60000184D0000721D00110000091110      GGSL
NJARET22020-10367-01111-30000216D0000847D00095000221111      GGSL
NJARET22020-10367-01112-00000128D0000502D00028000041112      GGSL
NJARET22020-10367-01120-50000368D0001443D00110000341120      GGSL
NJARET22020-10367-01121-20000328D0001930D00103000441121      GGSL
NJARET22020-10367-01122-90000232D0001365D00116000261122      GGSL
NJARET22020-10367-01130-40000248D0001590D00120000241130      GGSL
NJARET22020-10367-01140-30000192D0000747D00030000081140      GGSL
NJARET22020-10367-01151-90000144D0000501D00026000121151      GGSL
NJARET22020-10367-01160-10000024D0000188D00000000001160      GGSL
NJARET22020-10367-01230-10000096D0000389D00003000031230      GGSL
NJARET22020-10367-01240-00000624D0003690D00019000031240      GGSL
NJARET22020-10367-02121-10000016D0000076D0000300003ML2121    GGSL
NJARET22020-10367-02131-00000016D0000076D0000400004ML2131    GGSL
NJARET22020-10367-02141-90000008D0000038D0000400004ML2141    GGSL
NJARET22020-10367-03020-60000048D0000286D0000900000ML3020    GGSL
NJARET22020-11192-10594-70000112D0002938D0000900001KHEATMAT  GGSL
NJARET22020-11192-10595-40000009D0000403D0000300001KLIGHT    GGSL
NJARET22020-11192-60378-80000072D0000591D0000000000WFSU18    GGSL
NJARET22020-11192-61501-90000072D0000302D0000000000PREFILL36 GGSL
NJARET22020-11192-86019-80000006D0000045D0001300002KMG6      GGSL
NJARET22020-11423-00338-70000024D0000149D0000900001HG33801   GGSL
NJARET22020-11423-00402-50000018D0000092D0000200000HG402000  GGSL
NJARET22020-11423-94090-30000030D0000150D0000100000HG64090   GGSL
NJARET22020-11423-94108-50000012D0000141D0000000000HG94108   GGSL
NJARET22020-11423-94109-20000048D0000274D0000200002HG94109   GGSL
NJARET22020-11423-94139-90000012D0000064D0000400004HG94127   GGSL
NJARET22020-11423-94239-60000060D0000337D0000400001HG64138   GGSL
NJARET22020-14400-21411-00000012D0000099D00045000001440021411GGSL
NJARET22020-14400-61000-40000014D0000152D000070000061000     GGSL
NJARET22020-14400-62000-30000011D0000140D000040000062000     GGSL
NJARET22020-14400-66000-90000013D0000163D000010000066000ZFP  GGSL
NJARET22020-14400-67000-80000002D0000029D000000000067000     GGSL
NJARET22020-14400-71065-00000132D0000593D00035000001440071065GGSL
NJARET22020-14400-71265-40000108D0000485D00040000001440071265GGSL
NJARET22020-14400-71400-90000084D0000274D00012000001440071400GGSL
NJARET22020-15561-20786-70000006D0000035D0002000000PT786     GGSL
NJARET22020-15561-20811-60000006D0000036D0006900000PT811EA   GGSL
NJARET22020-15561-20813-00000006D0000034D0008400000PT813EA   GGSL
NJARET22020-15561-20937-30000003D0000041D0000700000PT937     GGSL
NJARET22020-15561-20961-80000024D0000037D0000700001PT961     GGSL
NJARET22020-15561-20965-60000024D0000029D0000800001PT965     GGSL
NJARET22020-15561-20966-30000024D0000055D0000700001PT966     GGSL
NJARET22020-15561-20968-70000012D0000028D0000200001PT968     GGSL
NJARET22020-15561-28110-20000216D0001986D0000200001PT8110    GGSL
NJARET22020-15759-01375-10000002D0000034D0000000000R1364BX   GGSL
NJARET22020-16500-51020-80000036D0000165D0000200000HG51020   GGSL
NJARET22020-16500-54010-60000012D0000056D0000000000HG54010   GGSL
NJARET22020-16500-98041-40000024D0000027D001350000098041     GGSL
NJARET22020-17500-08120-00000096D0000134D000690000208120     GGSL
NJARET22020-17500-08150-70000312D0000496D000190000208150     GGSL
NJARET22020-17500-90206-20000390D0010445D001050003090206     GGSL
NJARET22020-17500-91316-70000006D0000151D000460000191316     GGSL
NJARET22020-17500-91334-10000004D0000116D000390000091334     GGSL
NJARET22020-17500-91714-10000016D0000386D000650000091714     GGSL
NJARET22020-17500-95204-30000008D0000210D000120000095204     GGSL
NJARET22020-18062-00019-70000048D0000226D0000500000PT06MCCS  GGSL
NJARET22020-18222-00101-90000006D0000020D0001100000CS06101   GGSL
NJARET22020-18222-00103-30000012D0000041D0000200000CS06103   GGSL
NJARET22020-18222-00105-70000012D0000042D0001500000CS06105   GGSL
NJARET22020-18222-00107-10000048D0000225D0000700000CS06107   GGSL
NJARET22020-18222-00109-50000084D0000279D0005800000CS06109   GGSL
NJARET22020-18222-00110-10000012D0000040D0000400000CS06110   GGSL
NJARET22020-18222-00226-90000016D0000047D0003000000CS04226   GGSL
NJARET22020-18222-00228-30000020D0000059D0000100000CS04228   GGSL
NJARET22020-18222-00304-40000016D0000111D0000000000CS08304   GGSL
NJARET22020-18222-00405-80000006D0000053D0000000000CS01405   GGSL
NJARET22020-18222-00501-70000204D0000344D0001600003CS12501   GGSL
NJARET22020-18222-00503-10000024D0000056D0000200000CS503     GGSL
NJARET22020-18222-00505-50000120D0000146D0000200002CS12505   GGSL
NJARET22020-18222-00507-90000252D0000415D0008500005CS12507   GGSL
NJARET22020-18222-00509-30000060D0000118D0007600000CS12509   GGSL
NJARET22020-18222-00513-00000072D0000175D0001200003CS12513   GGSL
NJARET22020-18222-00526-00000006D0000019D0002900000CS06526   GGSL
NJARET22020-18222-00527-70000036D0000061D0003400003CS12527   GGSL
NJARET22020-18222-00531-40000300D0000731D0005000006CS12531   GGSL
NJARET22020-18222-00535-20000012D0000020D0000200000CS12535   GGSL
NJARET22020-18222-00543-70000228D0000296D0002600005CS12543   GGSL
NJARET22020-18222-00545-10000012D0000022D0000300000CS12545   GGSL
NJARET22020-18222-00549-90000012D0000027D0000200001CS12549   GGSL
NJARET22020-18222-00553-60000432D0000857D0020400001CS12553   GGSL
NJARET22020-18222-00559-80000228D0000396D0004100000CS12559   GGSL
NJARET22020-18222-00561-10000096D0000179D0000500000CS12561   GGSL
NJARET22020-18222-00563-50000024D0000046D0005200002CS12563   GGSL
NJARET22020-18222-00565-90000084D0000187D0004100000CS12565   GGSL
NJARET22020-18222-00569-70000012D0000030D0008300004CS12569   GGSL
NJARET22020-18222-00571-00000276D0000627D0000900004CS12571   GGSL
NJARET22020-18222-00583-30000132D0000323D0001100001CS12583   GGSL
NJARET22020-18222-00611-30000012D0000051D0000000000CS611     GGSL
NJARET22020-18222-00680-90000036D0000089D0000700000CS12680   GGSL
NJARET22020-18222-00689-20000012D0000031D0000000000CS12689   GGSL
NJARET22020-18222-00701-10000064D0000122D0000200001CS701     GGSL
NJARET22020-18222-00707-30000008D0000026D0003000000CS707     GGSL
NJARET22020-18222-00709-70000012D0000061D0000200000CS709     GGSL
NJARET22020-18222-00727-10000012D0000081D0000200000CS727     GGSL
NJARET22020-18222-00730-10000264D0000581D0022400001CS730     GGSL
NJARET22020-18222-00749-30000024D0000141D0000400004CS749     GGSL
NJARET22020-18222-00750-90000004D0000044D0000400001CS750     GGSL
NJARET22020-18222-00755-40000016D0000057D0000800000CS755     GGSL
NJARET22020-18222-00770-70000018D0000151D0000100001CS770     GGSL
NJARET22020-18222-00772-10000004D0000073D0000100001CS772     GGSL
NJARET22020-18222-00807-00000006D0000016D0000300000CS06807   GGSL
NJARET22020-18222-00853-70000006D0000020D0000800000CS06853   GGSL
NJARET22020-18222-00905-30000030D0000060D0000300000CS06905   GGSL
NJARET22020-18222-00907-70000032D0000094D0000500000CS08907   GGSL
NJARET22020-18222-00908-40000016D0000058D0000300000CS08908   GGSL
NJARET22020-18222-00951-00000016D0000065D0000700000CS08951   GGSL
NJARET22020-18222-00954-10000024D0000136D0000600000CS08954   GGSL
NJARET22020-18222-01967-00000018D0000036D0000300000CS06967   GGSL
NJARET22020-18222-50501-20000012D0000016D0008000001CS1250501XGGSL
NJARET22020-18222-50527-20000096D0000122D0003900001CS1250527XGGSL
NJARET22020-18222-50559-30000144D0000184D0004900006CS1250559XGGSL
NJARET22020-18506-00010-30000024D0000197D00001000000106      GGSL
NJARET22020-18506-00012-70000006D0000072D0000200002126       GGSL
NJARET22020-18506-00018-90000012D0000090D00002000010186      GGSL
NJARET22020-18506-00019-60000006D0000057D00000000000196      GGSL
NJARET22020-18506-00028-80000018D0000205D00004000000286      GGSL
NJARET22020-18506-00029-50000006D0000074D00002000000296      GGSL
NJARET22020-18506-00031-80000018D0000204D00000000000316      GGSL
NJARET22020-18506-00102-50000048D0000209D000430000510212     GGSL
NJARET22020-18506-00110-00007740D0057586D000920000411012     GGSL
NJARET22020-18506-00111-70000015D0000250D00000000001115      GGSL
NJARET22020-18506-00113-10000036D0000182D00004000001136      GGSL
NJARET22020-18506-00116-20000612D0004278D000940001011612     GGSL
NJARET22020-18506-00117-90000234D0002463D00035000061176      GGSL
NJARET22020-18506-00118-60000012D0000101D00015000011186      GGSL
NJARET22020-18506-00120-90000008D0000158D00020000001204      GGSL
NJARET22020-18506-00122-30000024D0000137D0004500000122       GGSL
NJARET22020-18506-00123-00000060D0000341D0004300000123       GGSL
NJARET22020-18506-00125-40000012D0000061D0001800000125       GGSL
NJARET22020-18506-00130-80000432D0002441D0001400002130       GGSL
NJARET22020-18506-00131-50000006D0000047D0000000000131       GGSL
NJARET22020-18506-00134-60000012D0000097D0000200000134       GGSL
NJARET22020-18506-00135-30000018D0000267D0000800000135       GGSL
NJARET22020-18506-00175-90000024D0000072D000000000017512     GGSL
NJARET22020-18506-01138-30000012D0000123D00000000001138      GGSL
NJARET22020-18506-01139-00000008D0000087D00001000011139      GGSL
NJARET22020-18506-01152-90000006D0000092D00000000001152      GGSL
NJARET22020-18506-02001-90000024D0000207D0000000000200112    GGSL
NJARET22020-18506-02001-90000003D0000670D000030000120203     GGSL
NJARET22020-19200-00095-60000036D0000097D001770000200027     GGSL
NJARET22020-19200-00619-40001140D0004412D008080000200706     GGSL
NJARET22020-19200-78914-10000204D0000902D001680000078914     GGSL
NJARET22020-19200-79838-90000024D0000099D001480000079838     GGSL
NJARET22020-19200-84251-80000002D0000016D000040000484251     GGSL
NJARET22020-19200-98665-60000024D0000106D000740000098665     GGSL
NJARET22020-19200-98666-30000008D0000049D000500000098666     GGSL
NJARET22020-19263-25010-70000001D0000087D00000000002501      GGSL
NJARET22020-19263-25045-90000008D0000327D0000000000250450    GGSL
NJARET22020-19263-25055-80000004D0000202D0000000000250550    GGSL
NJARET22020-19263-25160-90000009D0000105D00002000002516      GGSL
NJARET22020-19263-25500-30000075D0000125D00002000002550      GGSL
NJARET22020-19263-25510-20001325D0002849D00040000142551      GGSL
NJARET22020-19263-25520-10001450D0003596D00160000192552      GGSL
NJARET22020-19263-25530-00001625D0004631D00088000242553      GGSL
NJARET22020-19263-25540-90001800D0006066D00105000222554      GGSL
NJARET22020-19263-25550-80000375D0001609D00034000052555      GGSL
NJARET22020-19263-25670-30000030D0000429D00020000002567      GGSL
NJARET22020-19263-25680-20000036D0000703D00047000002568      GGSL
NJARET22020-19263-25760-10000120D0001016D00004000002576      GGSL
NJARET22020-19263-25780-90000010D0000237D00028000032578      GGSL
NJARET22020-19263-25950-60000612D0000728D00016000032595      GGSL
NJARET22020-19263-26050-20000600D0000828D00008000002605      GGSL
NJARET22020-19263-26190-50000006D0000287D00028000002619      GGSL
NJARET22020-19263-26210-00000024D0000225D00002000022621      GGSL
NJARET22020-19263-26280-30000002D0000062D00000000002628      GGSL
NJARET22020-19263-26300-80000504D0001215D00015000112630      GGSL
NJARET22020-19263-26310-70000624D0001766D00029000182631      GGSL
NJARET22020-19263-26310-70000432D0001218D00013000012633      GGSL
NJARET22020-19263-26560-60000016D0000230D00072000002656      GGSL
NJARET22020-19263-26580-40000160D0003339D00007000002658      GGSL
NJARET22020-19263-55555-40000016D0000191D00000000002928      GGSL
NJARET22020-21344-00321-20000048D0001236D0000300002WX15064   GGSL
NJARET22020-21344-00322-90000018D0000568D0000000000WX15065   GGSL
NJARET22020-21344-00324-30000004D0000037D0000000000WX16852   GGSL
NJARET22020-21344-00339-70000016D0002527D0074600003400339    GGSL
NJARET22020-21344-00340-30000009D0001201D0095600000400340    GGSL
NJARET22020-21344-00344-10000018D0000161D0000000000400344    GGSL
NJARET22020-21344-00345-80000060D0000549D0001700003400345    GGSL
NJARET22020-21344-00346-50000072D0000627D0001300001400346    GGSL
NJARET22020-21344-00347-20000024D0000333D0000000001400347    GGSL
NJARET22020-21344-00348-90000036D0000674D0002400000400348    GGSL
NJARET22020-21344-00349-60000088D0001573D0008000006400349    GGSL
NJARET22020-21344-00350-20000120D0002284D0002500004400350    GGSL
NJARET22020-21344-00354-00000168D0011251D0013900048HQ73481784GGSL
NJARET22020-21344-00361-80000114D0003794D0015200032HQ74912297GGSL
NJARET22020-21344-00362-50000004D0000272D0014200002HQMUSH    GGSL
NJARET22020-21344-00382-30000054D0001521D0002700006JFG18032  GGSL
NJARET22020-21344-00384-70000056D0002876D0001800002JFG18013  GGSL
NJARET22020-21344-00385-40000132D0003700D0007000008JFG18011A GGSL
NJARET22020-21344-00386-10000090D0004649D0004200009JFG18011B GGSL
NJARET22020-21344-00387-80000042D0001376D0007800004JFG18012  GGSL
NJARET22020-21344-00388-50000144D0000875D0004300005JFG18001  GGSL
NJARET22020-21344-00389-20000070D0000964D0003400007JFG18004  GGSL
NJARET22020-21344-00390-80000048D0001279D0003700005JFG18010A GGSL
NJARET22020-21344-00391-50000016D0000576D0004300000JFG18010B GGSL
NJARET22020-21344-00392-20000096D0000694D0004700008JFG18002  GGSL
NJARET22020-21344-00393-90000180D0006163D0007100011JFG18008A GGSL
NJARET22020-21344-00395-30000016D0000496D0000400000JFG18006  GGSL
NJARET22020-21344-00397-70000033D0001867D0011000006JFG18018  GGSL
NJARET22020-21344-00398-40000002D0000233D0009400001JFG18042  GGSL
NJARET22020-21344-00403-50000034D0000811D0004100005ZT152072  GGSL
NJARET22020-21344-00405-90000003D0000275D0001200001ZT185019  GGSL
NJARET22020-21344-00409-70000384D0002354D0001500005ZT185018  GGSL
NJARET22020-21344-00411-00000006D0000179D0006800003ZT185021  GGSL
NJARET22020-21344-00413-40000048D0000091D0008600000400413    GGSL
NJARET22020-21344-00414-10000012D0000022D0009400000400414    GGSL
NJARET22020-21344-00416-50000024D0000042D0009200000400416    GGSL
NJARET22020-21344-00417-20000024D0000057D0008600000400417    GGSL
NJARET22020-21344-00418-90000012D0000028D0010600000400418    GGSL
NJARET22020-21344-00422-60000008D0000277D0005600001ZT185023  GGSL
NJARET22020-21344-00423-30000349D0048738D0086300053WX17658   GGSL
NJARET22020-21344-00718-00000108D0002693D0005500033WX17422   GGSL
NJARET22020-21344-00719-70000108D0002559D0004500008WX17413   GGSL
NJARET22020-21344-00720-30000156D0003420D0001000008WX17409   GGSL
NJARET22020-21344-00723-40000112D0003095D0000500005WX17402   GGSL
NJARET22020-21344-00724-10000003D0000262D0000000000WXRACK20  GGSL
NJARET22020-21344-00729-60000086D0005283D0007600024HQ7348782 GGSL
NJARET22020-21344-00734-00000016D0000349D0003900000WX17725   GGSL
NJARET22020-21344-00735-70000016D0000382D0003300003WX17577RV GGSL
NJARET22020-21344-00736-40000020D0000485D0003200004WX17578RV GGSL
NJARET22020-21344-00739-50000004D0000126D0003100001WX17816   GGSL
NJARET22020-21344-00741-80000004D0000171D0003200000WX17817   GGSL
NJARET22020-21344-00745-60000020D0000219D0014600000YS19006   GGSL
NJARET22020-21344-00746-30000088D0001560D0013000014YS19L005  GGSL
NJARET22020-21344-00747-00000096D0001661D0014200018YS19L004  GGSL
NJARET22020-21344-00748-70000088D0001213D0013700015YS19S002  GGSL
NJARET22020-21344-00749-40000096D0001309D0012200013YS19S003  GGSL
NJARET22020-21344-00750-00000104D0001417D0007700014YS19S001  GGSL
NJARET22020-21344-00762-30000031D0004127D0007900017FDBH1901  GGSL
NJARET22020-21344-00762-30000002D0000299D0001600006MG18387RV GGSL
NJARET22020-21344-00765-40000010D0000904D0006100002MG18390   GGSL
NJARET22020-21344-00766-10000002D0000295D00043000014007661   GGSL
NJARET22020-21344-00775-30000002D0000096D0000900007WX17802   GGSL
NJARET22020-21344-00779-10000021D0000421D0001800004JFG19058B GGSL
NJARET22020-21344-00780-70000003D0000209D0000000000MG18396RV GGSL
NJARET22020-21344-00781-40000002D0000091D0000700001MG18397RV GGSL
NJARET22020-21344-00785-20000024D0000486D0002100003BN19294   GGSL
NJARET22020-21344-00795-10000010D0001372D0001000002MG18389   GGSL
NJARET22020-21344-00796-80000072D0000233D0000100001SSH1822719GGSL
NJARET22020-21344-00797-50000018D0000070D0003700002SSH1813624GGSL
NJARET22020-21344-00799-90000066D0000630D0000000000HS190061C GGSL
NJARET22020-21344-00800-20000078D0000701D0000400001HS190061B GGSL
NJARET22020-21344-00801-90000048D0000476D0000000000HS190061A GGSL
NJARET22020-21344-00802-60000028D0000339D0000300003HS190058C GGSL
NJARET22020-21344-00803-30000020D0000248D0000000000HS190058B GGSL
NJARET22020-21344-00804-00000056D0000706D0000900001HS190058A GGSL
NJARET22020-21344-00805-70000018D0000206D0000000000HS190056  GGSL
NJARET22020-21344-00806-40000144D0001149D0004400003SSH18A025 GGSL
NJARET22020-21344-00807-10000048D0000544D0001400000SSH18A034 GGSL
NJARET22020-21344-00808-80000216D0001081D0000800001SSH18A024 GGSL
NJARET22020-21344-00813-20000017D0002085D00475000144008132   GGSL
NJARET22020-21344-00821-70000024D0000242D0001000002WX17932   GGSL
NJARET22020-21344-00822-40000012D0000135D0000500004WX17930   GGSL
NJARET22020-21344-00824-80000060D0000622D0002500002WX17933   GGSL
NJARET22020-21344-00825-50000012D0000082D0003400002JFG18011BWGGSL
NJARET22020-21344-00826-20000072D0000536D0003900005JFG18011AWGGSL
NJARET22020-21344-00827-90000024D0000220D0002000002JFG18008AWGGSL
NJARET22020-21344-00828-60000012D0000078D0003300004JFG18008ACGGSL
NJARET22020-21344-00829-30000008D0000115D0008000002ZT197030  GGSL
NJARET22020-21344-00830-90000002D0000052D0006100002ZT197002  GGSL
NJARET22020-21344-00832-30000018D0000357D0003000004JFG19007B GGSL
NJARET22020-21344-00833-00000002D0000058D0006900003ZT197029  GGSL
NJARET22020-21344-00834-70000006D0000512D0006000002ZT197023RVGGSL
NJARET22020-21344-00837-80000024D0000138D0024100075SK15020B  GGSL
NJARET22020-21344-00838-50000192D0001016D0046000076SK15008E  GGSL
NJARET22020-21344-00839-20000004D0000070D0001100000HS190062  GGSL
NJARET22020-21344-00846-00000020D0002072D0014100009FDBH1902  GGSL
NJARET22020-21344-01159-00000006D0000055D0001100006BN19294S  GGSL
NJARET22020-21344-01160-60000022D0000445D0002200002BN19296   GGSL
NJARET22020-21344-01161-30000006D0000055D0005000001BN19296S  GGSL
NJARET22020-21344-01162-00000002D0000045D0003800000BN19297   GGSL
NJARET22020-21344-01163-70000018D0000177D0004700006BN19297S  GGSL
NJARET22020-21344-01164-40000020D0000324D0003800000BN19299   GGSL
NJARET22020-21344-01165-10000006D0000055D0005000007BN19299S  GGSL
NJARET22020-21344-01166-80000036D0000663D0003900000BN19300   GGSL
NJARET22020-21344-01167-50000024D0000216D0004900000BN19300S  GGSL
NJARET22020-21344-01168-20000036D0000711D0000800001BN19302   GGSL
NJARET22020-21344-01169-90000048D0000447D0002000003BN19302S  GGSL
NJARET22020-21344-01170-50000007D0000942D0001100003FDBH2001  GGSL
NJARET22020-21344-01171-20000060D0003724D0006900031HQ73482202GGSL
NJARET22020-21344-01172-90000136D0008889D0012600036HQ73482993GGSL
NJARET22020-21344-01173-60000096D0005808D0007200040HQ73483050GGSL
NJARET22020-21344-01174-30000004D0000242D0000200003HQ73483068GGSL
NJARET22020-21344-01175-00000002D0000094D0000200000HQ75752083GGSL
NJARET22020-21344-01177-40000032D0002077D0010900035HQ75752848GGSL
NJARET22020-21344-01178-10000086D0005724D0014000021HQ7575453 GGSL
NJARET22020-21344-01179-80000024D0000239D0000000000HS18MR0461GGSL
NJARET22020-21344-01180-40000048D0000763D0001100008HS18MR0463GGSL
NJARET22020-21344-01183-50000024D0000500D0001400002HS20132   GGSL
NJARET22020-21344-01184-20000048D0000865D0007900002HS20134   GGSL
NJARET22020-21344-01185-90000102D0001882D0003700002HS20135   GGSL
NJARET22020-21344-01186-60000102D0001584D0003500002HS20136   GGSL
NJARET22020-21344-01187-30000036D0000545D0005500001HS20137   GGSL
NJARET22020-21344-01188-00000012D0000319D0009500005HS20HS0022GGSL
NJARET22020-21344-01189-70000024D0000596D0008000007HS20HS0023GGSL
NJARET22020-21344-01190-30000020D0000337D0009800006HS20HS0024GGSL
NJARET22020-21344-01191-00000028D0000564D0012000004HS20HS0025GGSL
NJARET22020-21344-01192-70000048D0001162D0000600001HS20HS0026GGSL
NJARET22020-21344-01196-50000050D0001815D0022200024MG19632   GGSL
NJARET22020-21344-01197-20000022D0001006D0021600039MG19633   GGSL
NJARET22020-21344-01201-60000048D0000236D0000000000SSH19S094 GGSL
NJARET22020-21344-01202-30000024D0000270D0002500000SSH19S098 GGSL
NJARET22020-21344-01203-00000072D0001210D0001000004SSH19S104 GGSL
NJARET22020-21344-01205-40000028D0000718D0000100000WX13254   GGSL
NJARET22020-21344-01207-80000036D0000401D0000000000WX18812   GGSL
NJARET22020-21344-01209-20000056D0001576D0001000003WX18814   GGSL
NJARET22020-21344-01210-80000028D0000708D0000000002WX18815   GGSL
NJARET22020-21344-01211-50000044D0001273D0002100004WX18816   GGSL
NJARET22020-21344-01212-20000012D0000286D0000000000WX18819   GGSL
NJARET22020-21344-01213-90000012D0000286D0000000000WX18820   GGSL
NJARET22020-21344-01214-60000018D0000430D0000400004WX18821   GGSL
NJARET22020-21344-01215-30000091D0015173D0017200047WX18824   GGSL
NJARET22020-21344-01216-00000052D0008533D0069900015WX18825   GGSL
NJARET22020-21344-01218-40000020D0000270D0000200000WX19198   GGSL
NJARET22020-21344-01219-10000022D0001001D0006100001WX19199   GGSL
NJARET22020-21344-01220-70000026D0001180D0007400001WX19200   GGSL
NJARET22020-21344-01221-40000068D0001395D0003300001WX19201   GGSL
NJARET22020-21344-01222-10000010D0000416D0010400004WX19203   GGSL
NJARET22020-21344-01223-80000002D0000083D0009400007WX19204   GGSL
NJARET22020-21344-01224-50000012D0000472D0005900007WX19205   GGSL
NJARET22020-21344-01225-20000028D0001336D0014100001WX19206   GGSL
NJARET22020-21344-01226-90000092D0001110D0005100003WX19256   GGSL
NJARET22020-21344-01227-60000080D0000959D0003100003WX19257   GGSL
NJARET22020-21344-01228-30000008D0000097D0003800001WX19258   GGSL
NJARET22020-21344-01229-00000004D0000042D0003700001WX19259   GGSL
NJARET22020-21344-01230-60000008D0000218D0001700000WX19260   GGSL
NJARET22020-21344-01231-30000004D0000109D0003800001WX19261   GGSL
NJARET22020-21344-01237-50000073D0011946D0038800057WX19270   GGSL
NJARET22020-21344-01238-20000006D0000271D0004100025WX8561    GGSL
NJARET22020-21344-01240-50000048D0000581D0002300001WX86808283GGSL
NJARET22020-21344-01246-70000016D0000278D0001900000WX8751    GGSL
NJARET22020-21344-01247-40000032D0000290D0000400000WX8752    GGSL
NJARET22020-21344-01248-10000016D0000278D0002900000WX8757    GGSL
NJARET22020-21344-01249-80000032D0000290D0001600000WX8758    GGSL
NJARET22020-21344-01252-80000006D0000138D0006800002ZT207010B GGSL
NJARET22020-21344-01254-20000002D0000156D0011900000ZT207012B GGSL
NJARET22020-21344-01255-90000006D0000136D0010300000ZT207015  GGSL
NJARET22020-21344-01256-60000012D0000283D0009400000ZT207016  GGSL
NJARET22020-21344-01257-30000008D0000130D0009400002ZT207017B GGSL
NJARET22020-21344-01258-00000022D0000387D0004500003ZT207023A GGSL
NJARET22020-21344-01259-70000010D0000135D0007700000ZT207024A GGSL
NJARET22020-21344-01260-30000024D0002024D0019300009ZT207025  GGSL
NJARET22020-21344-01261-00000026D0002192D0018500009ZT207026  GGSL
NJARET22020-21344-01262-70000024D0001881D0024600010ZT207027  GGSL
NJARET22020-21344-01264-10000007D0001645D0049400000HR22818AA GGSL
NJARET22020-21344-01265-80000003D0000459D0031300001HR30701AA GGSL
NJARET22020-21344-01267-20000019D0003514D0039600004FP35      GGSL
NJARET22020-21344-01268-90000008D0000819D0029400000HR26182AA GGSL
NJARET22020-21344-01270-20000013D0000408D0015400024HS20153   GGSL
NJARET22020-21344-01273-30000175D0032247D0086800068WX17658A  GGSL
NJARET22020-21344-01274-00000004D0000734D0022100002JFA16020GHGGSL
NJARET22020-21344-01275-70000026D0002526D0009000004JFG20031  GGSL
NJARET22020-21344-01721-90000060D0000467D00004000046764      GGSL
NJARET22020-21344-01723-30000020D0000044D00000000006761      GGSL
NJARET22020-21344-01724-00000180D0000155D00036000366758      GGSL
NJARET22020-21344-01726-40000060D0000369D00017000046762      GGSL
NJARET22020-21964-10110-70000030D0000215D0000100001A6T       GGSL
NJARET22020-21964-10121-30000060D0001928D0001200010A6RP      GGSL
NJARET22020-21964-10134-30000018D0000415D0000000000BUF16     GGSL
NJARET22020-21964-10200-50000048D0002427D0000500004B7F       GGSL
NJARET22020-21964-10211-10000024D0000228D0001000002OMT       GGSL
NJARET22020-21964-10220-30000007D0000503D0000800004B72       GGSL
NJARET22020-21964-10315-60000014D0000500D0000800000SQG       GGSL
NJARET22020-21964-10350-70000008D0000221D0015100149X1        GGSL
NJARET22020-21964-10360-60000048D0001357D0000300003W1        GGSL
NJARET22020-21964-10370-50000222D0002585D0007100006OWF       GGSL
NJARET22020-21964-10461-00000066D0001208D0001600005LF4       GGSL
NJARET22020-21964-10466-50000024D0000439D0000500001WH3       GGSL
NJARET22020-21964-10481-80000048D0000298D0003500000AM        GGSL
NJARET22020-21964-10485-60000018D0000186D0001500002RS3HC     GGSL
NJARET22020-21964-10486-30000006D0000072D0000100002RS3WC     GGSL
NJARET22020-21964-20061-90000003D0000177D0001000000SDC       GGSL
NJARET22020-21964-20075-60000002D0000141D0000100000B7DC      GGSL
NJARET22020-21964-20500-30000134D0007873D0003400009YF        GGSL
NJARET22020-21964-20510-20000092D0003791D0000500003YCPD90    GGSL
NJARET22020-21964-20520-10000170D0007965D0002100004YCPW180   GGSL
NJARET22020-21964-20530-00000138D0005624D0003500005YCPT360   GGSL
NJARET22020-21964-20740-30000004D0000188D0000900000PWRSTK    GGSL
NJARET22020-21964-25242-70000012D0000465D0000000000CC18S     GGSL
NJARET22020-21964-25244-10000006D0000200D0000300001CC12N     GGSL
NJARET22020-21964-25256-40000018D0000599D0000600001CC12FM    GGSL
NJARET22020-21964-25257-10000006D0000244D0000700001CC18FM    GGSL
NJARET22020-21964-40053-80000030D0000681D0000400000CJM15G    GGSL
NJARET22020-21964-41073-50000054D0001217D0001200002CJTHM15Y  GGSL
NJARET22020-21964-41084-10000006D0000189D0000200000CJTHM36Y  GGSL
NJARET22020-21964-41086-50000072D0001249D0000600003CJTHM8Y   GGSL
NJARET22020-21964-50043-60000012D0000289D0000400000CJM13GP   GGSL
NJARET22020-21964-50059-70000006D0000169D0000000000CJM13FSY  GGSL
NJARET22020-21964-80100-70000012D0000101D0000100001BFB       GGSL
NJARET22020-22179-10011-40000012D0000129D0000500000LG3104    GGSL
NJARET22020-22179-10013-80000054D0000366D0000600000LG1104    GGSL
NJARET22020-22179-10077-00000012D0000102D0000000000LG7150    GGSL
NJARET22020-22179-10084-80000054D0000518D0005800000LG7220    GGSL
NJARET22020-22179-10117-30000006D0000035D0000100000LG1109    GGSL
NJARET22020-22179-10124-10000168D0001058D0008700006LG6515    GGSL
NJARET22020-22179-10133-30000012D0000147D0000000000LG4102    GGSL
NJARET22020-22179-10139-50000012D0000066D0000000000LG1130    GGSL
NJARET22020-22179-10157-90000132D0003132D0004300001LG6530    GGSL
NJARET22020-22179-10164-70000012D0000063D0000000000LG1140    GGSL
NJARET22020-22179-10167-80000006D0000125D0000100001LG6127    GGSL
NJARET22020-22179-10185-20000078D0000983D0015100015LG6500    GGSL
NJARET22020-22179-10186-90000060D0002744D0000000000LG6555    GGSL
NJARET22020-22179-10243-90000024D0000436D0001400000LG6130    GGSL
NJARET22020-22179-10244-60000024D0000662D0000200000LG6135    GGSL
NJARET22020-22179-10246-00000042D0000756D0003400001LG6570    GGSL
NJARET22020-22179-10248-40000048D0000445D0002700004LG6575    GGSL
NJARET22020-22179-10257-60000060D0001045D0001300000LG3190    GGSL
NJARET22020-22179-10258-30000024D0000795D0004200002LG6580    GGSL
NJARET22020-22179-10266-80000132D0002985D0000600001LG6145    GGSL
NJARET22020-22179-10278-10000012D0000075D0000100001LG6284    GGSL
NJARET22020-22179-10327-60000072D0000786D0007500005LG6148    GGSL
NJARET22020-22179-10382-50000012D0000200D0000000000LG1128    GGSL
NJARET22020-22179-10390-00000060D0000685D0001300000LG6332    GGSL
NJARET22020-22179-10391-70000048D0000884D0001400000LG6336    GGSL
NJARET22020-22179-10398-60000012D0000066D0000000000LG7234    GGSL
NJARET22020-22179-10401-30000012D0000245D0000100001LG6182    GGSL
NJARET22020-22179-10408-20000168D0001658D0002200004LG6338    GGSL
NJARET22020-22179-10434-10000048D0000518D0001000001LG6133    GGSL
NJARET22020-22179-10444-00000018D0000266D0000500000LG3374    GGSL
NJARET22020-22179-10448-80000084D0001063D0001100001LG3174    GGSL
NJARET22020-22179-10454-90000018D0000280D0000900001LG3303    GGSL
NJARET22020-22179-10458-70000006D0000063D0000100000LG3234    GGSL
NJARET22020-22179-10461-70000012D0000116D0000400004LG3154    GGSL
NJARET22020-22179-10471-60000060D0000730D0002400001LG6128    GGSL
NJARET22020-22179-10472-30000024D0000220D0000000000LG6378    GGSL
NJARET22020-22179-10474-70000024D0000224D0000100001LG6328    GGSL
NJARET22020-22179-10480-80000012D0000094D0000600000LG5268    GGSL
NJARET22020-22179-10481-50000018D0000268D0000500000LG5592    GGSL
NJARET22020-22179-10517-10000018D0000460D0000300000LG3176    GGSL
NJARET22020-22179-10519-50000012D0000218D0000000000LG6544    GGSL
NJARET22020-22401-00301-50000046D0000628D0001600000THD20     GGSL
NJARET22020-22401-00350-30000016D0000395D0001000000EDG20GMC  GGSL
NJARET22020-22401-00440-10000038D0001338D0000200000PRO40PC   GGSL
NJARET22020-22401-00740-20000055D0001127D0008800000DBRC20    GGSL
NJARET22020-22401-10087-50000028D0000321D0005100013EAR20TMC  GGSL
NJARET22020-23075-02180-00000084D0000466D0000600002P1806     GGSL
NJARET22020-23075-02332-30000072D0000451D0000200001P036      GGSL
NJARET22020-23075-02351-40000448D0001732D0000200002P35H      GGSL
NJARET22020-23075-02361-30000126D0000795D0000200000P36S      GGSL
NJARET22020-23075-02362-00000192D0001024D0001000002FT36HFB   GGSL
NJARET22020-23075-02721-50000168D0000932D0000200001P72H7     GGSL
NJARET22020-23075-02990-50000042D0000228D0000100001KHB6      GGSL
NJARET22020-23075-03220-20000210D0000365D0000200000FR220B    GGSL
NJARET22020-23075-03312-40000280D0000539D0000500002FR312B    GGSL
NJARET22020-23075-03407-70001078D0002474D0009500014FR407     GGSL
NJARET22020-23075-05110-40000352D0000969D0001200001FS110     GGSL
NJARET22020-23803-10031-50000036D0000413D000000000010031     GGSL
NJARET22020-23865-08808-20000012D0000051D00003000038808      GGSL
NJARET22020-23865-09983-50000112D0000312D00011000119983      GGSL
NJARET22020-23883-00003-50000024D0000135D0000000000G390      GGSL
NJARET22020-23883-00032-50000004D0000181D0000000000G2005P    GGSL
NJARET22020-23883-01000-30000012D0000213D00000000001000      GGSL
NJARET22020-23883-01002-70000030D0000379D00001000001002      GGSL
NJARET22020-23883-01055-30000012D0000048D00000000001055      GGSL
NJARET22020-23883-01105-50000012D0000049D00001000001105      GGSL
NJARET22020-23883-05000-90000012D0000088D00001000005000      GGSL
NJARET22020-23883-05001-60000006D0000040D00000000005001      GGSL
NJARET22020-23883-05002-30000006D0000044D00000000005002      GGSL
NJARET22020-23883-06015-20000004D0000067D0000000000G6015     GGSL
NJARET22020-23883-08000-60000003D0000183D00000000008000A     GGSL
NJARET22020-23883-08706-70000027D0000497D00041000038706A     GGSL
NJARET22020-23883-16100-20000109D0001780D001320001616100     GGSL
NJARET22020-23883-16200-90000020D0000447D000750000916200     GGSL
NJARET22020-23883-20000-80000033D0000583D000020000220000     GGSL
NJARET22020-23883-20002-20000050D0001219D002770000920002     GGSL
NJARET22020-23883-20003-90000009D0000300D000340000320003     GGSL
NJARET22020-23883-20010-70000003D0000063D000990001620010     GGSL
NJARET22020-23883-20020-60000005D0000141D000620000220020     GGSL
NJARET22020-23883-20030-50000008D0000297D000070000120030     GGSL
NJARET22020-23883-21220-90000002D0000173D000000000021220XP   GGSL
NJARET22020-23883-26021-70000003D0000146D000000000026021XP   GGSL
NJARET22020-23883-29002-30000002D0000073D000000000029002     GGSL
NJARET22020-23883-61900-80000002D0000258D000000000061900     GGSL
NJARET22020-23883-63800-90000010D0001140D000020000063800     GGSL
NJARET22020-24114-22050-50000001D0000034D0000100001220500    GGSL
NJARET22020-24114-68007-10000005D0000091D0000200000680007    GGSL
NJARET22020-24114-70102-80000050D0000077D0004000009701002    GGSL
NJARET22020-24114-70300-80000500D0001320D0006400015703002    GGSL
NJARET22020-24114-70609-20000125D0000548D0005300019706009    GGSL
NJARET22020-24114-70807-30000250D0001000D0001200000708073    GGSL
NJARET22020-24114-71642-80000040D0000384D0001300004701642    GGSL
NJARET22020-24114-71664-00000200D0002362D0002400003716642    GGSL
NJARET22020-24114-71673-20000750D0004703D0006100021716073    GGSL
NJARET22020-24114-74009-60000203D0000954D0004200019704009    GGSL
NJARET22020-24114-74209-00000075D0000483D0000400001704209    GGSL
NJARET22020-24114-74509-10000275D0001771D0001400010704509    GGSL
NJARET22020-24114-74712-50000050D0000041D0000700002742012A   GGSL
NJARET22020-24114-74718-70000075D0000072D0000800002742018A   GGSL
NJARET22020-24114-74809-20000050D0000322D0001200005704809    GGSL
NJARET22020-24114-74929-70000175D0001127D0001700015704929    GGSL
NJARET22020-24654-02011-50000004D0000213D0000000000567GAL    GGSL
NJARET22020-24654-05102-70000090D0000539D000440000951026     GGSL
NJARET22020-24654-05922-10000066D0000865D00067000025926      GGSL
NJARET22020-24654-05923-80000004D0000113D00000000005929      GGSL
NJARET22020-24654-05931-30000012D0000190D00011000005935      GGSL
NJARET22020-24654-05962-70000018D0000227D00013000105962      GGSL
NJARET22020-24654-05962-70000005D0001496D00004000025962DS    GGSL
NJARET22020-24654-05972-60000012D0000435D00006000005972      GGSL
NJARET22020-24654-05973-30000008D0000923D00000000005973      GGSL
NJARET22020-24654-05974-00000002D0000498D00000000005974      GGSL
NJARET22020-24654-05981-80000002D0000517D00000000005981DS    GGSL
NJARET22020-24654-05982-50000008D0000282D00013000015982      GGSL
NJARET22020-24654-09941-80000018D0000572D00224000009335      GGSL
NJARET22020-24654-51806-30000084D0000506D000920002051806     GGSL
NJARET22020-24654-51826-10000072D0000756D000390000451826     GGSL
NJARET22020-24654-55025-40000960D0003878D00028000125026      GGSL
NJARET22020-24654-55110-70000270D0001607D000630001351106     GGSL
NJARET22020-24654-55118-30000108D0000887D000440000251186     GGSL
NJARET22020-24654-55325-50000048D0000288D000020000053256     GGSL
NJARET22020-24654-55450-40000174D0001042D000330001654506     GGSL
NJARET22020-24654-55456-60000054D0000441D000010000154566     GGSL
NJARET22020-24654-65324-50000042D0000520D000030000053246A    GGSL
NJARET22020-24654-65452-50000108D0000643D000660001354526     GGSL
NJARET22020-24774-00500-90000080D0000350D0000000000HGSLWFT   GGSL
NJARET22020-25033-01703-00000006D0000077D000170000001703     GGSL
NJARET22020-25033-01713-90000012D0000176D000300000301713     GGSL
NJARET22020-25033-01717-70000006D0000154D000040000201717     GGSL
NJARET22020-25033-01723-80000004D0000108D000050000001723     GGSL
NJARET22020-25033-02019-10000004D0000256D000200000002019     GGSL
NJARET22020-25033-02089-40000006D0000059D000040000002089     GGSL
NJARET22020-25033-02134-10000006D0000140D000050000002134     GGSL
NJARET22020-25033-02135-80000006D0000184D000020000002135     GGSL
NJARET22020-25033-02212-60000002D0000252D000030000002212     GGSL
NJARET22020-25033-02215-70000002D0000263D000020000002215     GGSL
NJARET22020-25033-02467-00000008D0000266D000060000002467     GGSL
NJARET22020-25033-02477-90000012D0000356D000080000002477     GGSL
NJARET22020-25033-02481-60000004D0000194D000090000002481     GGSL
NJARET22020-25033-02510-30000008D0000102D000160000102510     GGSL
NJARET22020-25033-02519-60000004D0000140D000120000102519     GGSL
NJARET22020-25033-02520-20000008D0000194D000080000102520     GGSL
NJARET22020-25033-02521-90000004D0000109D000040000002521     GGSL
NJARET22020-25033-02522-60000032D0001937D000270001302522     GGSL
NJARET22020-25033-02523-30000006D0000393D000180000202523     GGSL
NJARET22020-25033-02525-70000036D0002651D000260000002525     GGSL
NJARET22020-25033-02527-10000004D0000322D000260000402527     GGSL
NJARET22020-25033-02650-60000001D0000127D000040000002650     GGSL
NJARET22020-25033-02660-50000002D0000340D000450000002660     GGSL
NJARET22020-25033-02720-60000036D0003781D000080000202720     GGSL
NJARET22020-25033-02722-00000023D0002797D000250000002722     GGSL
NJARET22020-25033-02728-20000012D0001990D000040000002728     GGSL
NJARET22020-25033-02750-30000004D0000819D000020000002750     GGSL
NJARET22020-25033-03801-10000006D0000151D000280000003801     GGSL
NJARET22020-25033-03810-30000008D0000188D000030000203810     GGSL
NJARET22020-25033-03820-20000003D0000209D000050000003820     GGSL
NJARET22020-25033-03821-90000002D0000095D000000000003821     GGSL
NJARET22020-25033-03850-90000008D0000250D000050000003850     GGSL
NJARET22020-25033-05430-10000002D0000233D000010000005430     GGSL
NJARET22020-25033-05625-10000001D0000521D000040000005625     GGSL
NJARET22020-25033-12202-40000030D0000269D000060000012202     GGSL
NJARET22020-25033-12204-80000042D0000265D000090000012204     GGSL
NJARET22020-25033-12285-70000006D0000063D000190000012285     GGSL
NJARET22020-25033-12403-50000002D0000291D000030000012403     GGSL
NJARET22020-25033-12746-30000024D0000621D000000000012746     GGSL
NJARET22020-25033-20235-10000002D0000626D000000000020235     GGSL
NJARET22020-25845-12366-00000048D0000454D00004000005566      GGSL
NJARET22020-25849-10720-80000054D0000547D00002000011020020RG GGSL
NJARET22020-25849-10730-70000092D0000963D00000000001150030RG GGSL
NJARET22020-25849-10910-30000216D0001054D00000000001008010RGCGGSL
NJARET22020-25849-11010-90000210D0001357D00002000001016010RGCGGSL
NJARET22020-25849-11110-60000240D0001745D00003000011010010RG GGSL
NJARET22020-25849-11110-60000060D0000436D00180000481010010RGXGGSL
NJARET22020-25849-11120-50000240D0001524D00006000001010020RG GGSL
NJARET22020-25849-62151-30000072D0000374D00006000006001051NPBGGSL
NJARET22020-25881-08502-10000004D0000058D0000600006 085024   GGSL
NJARET22020-25881-09942-40000024D0000670D0000000000 09942    GGSL
NJARET22020-26619-33000-70000012D0000078D00000000003300001   GGSL
NJARET22020-26619-41000-90000012D0000102D00000000004100001   GGSL
NJARET22020-26978-02181-60000130D0000707D001030000102181     GGSL
NJARET22020-26978-02182-30000150D0000816D000820000102182     GGSL
NJARET22020-26978-02188-50000060D0000321D001000000702188     GGSL
NJARET22020-26978-02241-70000150D0000896D000790000102241     GGSL
NJARET22020-26978-02242-40000590D0003522D000830000302242     GGSL
NJARET22020-26978-02248-60000090D0000548D000850000602248     GGSL
NJARET22020-26978-02301-80000150D0001204D000930000102301     GGSL
NJARET22020-26978-02302-50000200D0001605D000280000202302     GGSL
NJARET22020-26978-02308-70000080D0000646D000480000302308     GGSL
NJARET22020-26978-02361-20000100D0001004D000750000002361     GGSL
NJARET22020-26978-02362-90000140D0001406D000380000202362     GGSL
NJARET22020-26978-02368-10000030D0000284D000280000202368     GGSL
NJARET22020-26978-03060-30000250D0001363D000220000703060     GGSL
NJARET22020-26978-03062-70000070D0000382D000300000603062     GGSL
NJARET22020-26978-03068-90000020D0000109D000000000003068     GGSL
NJARET22020-26978-03082-50000050D0000507D000090000203082     GGSL
NJARET22020-26978-03088-70000180D0001825D000230000203088     GGSL
NJARET22020-26978-03100-60000085D0001437D00029000040310005   GGSL
NJARET22020-26978-03102-00000020D0000338D00024000040310205   GGSL
NJARET22020-26978-03108-20000020D0000338D00003000000310805   GGSL
NJARET22020-26978-03122-80000035D0000826D00018000030312205   GGSL
NJARET22020-26978-04513-30000025D0000194D000020000004513     GGSL
NJARET22020-26978-04523-20000020D0000252D000010000004523     GGSL
NJARET22020-26978-04533-10000030D0000510D000090000004533     GGSL
NJARET22020-26978-05011-30000864D0000968D000000000005011     GGSL
NJARET22020-26978-05041-00000036D0000072D000280000005041     GGSL
NJARET22020-26978-05071-70000216D0000285D000190000505071     GGSL
NJARET22020-26978-05081-60000144D0000233D000070000005081     GGSL
NJARET22020-26978-05121-90000108D0000152D000000000005121     GGSL
NJARET22020-26978-08060-80000050D0000273D000030000108060     GGSL
NJARET22020-26978-08062-20000090D0000491D000150000508062     GGSL
NJARET22020-26978-08080-60000120D0001217D000070000508080     GGSL
NJARET22020-26978-08082-00000050D0000507D000080000508082     GGSL
NJARET22020-26978-08100-10000015D0000234D00003000030810005   GGSL
NJARET22020-26978-08102-50000025D0000390D00008000080810205   GGSL
NJARET22020-26978-08120-90000015D0000354D00003000030812005   GGSL
NJARET22020-26978-08122-30000010D0000236D00007000000812205   GGSL
NJARET22020-26978-08813-00000010D0000069D000000000408813     GGSL
NJARET22020-26978-08820-80000010D0000096D000000000008820     GGSL
NJARET22020-26978-08823-90000010D0000096D000000000008823     GGSL
NJARET22020-26978-08830-70000010D0000095D000010000108830     GGSL
NJARET22020-26978-08833-80000060D0000572D000080000508833     GGSL
NJARET22020-26978-08840-60000025D0000322D000040000108840     GGSL
NJARET22020-26978-10010-80000048D0000194D000290000210010     GGSL
NJARET22020-26978-10012-20000054D0000218D000300000110012     GGSL
NJARET22020-26978-10013-90000048D0000194D000260000110013     GGSL
NJARET22020-26978-10020-70000010D0000083D000340000010020     GGSL
NJARET22020-26978-10022-10000005D0000042D000340000010022     GGSL
NJARET22020-26978-10023-80000060D0000499D000150000010023     GGSL
NJARET22020-26978-10062-70000510D0001541D000600001510062     GGSL
NJARET22020-26978-10068-90000420D0001269D000760001110068     GGSL
NJARET22020-26978-10082-50000480D0002081D001140001710082     GGSL
NJARET22020-26978-10088-70000340D0001475D001090001310088     GGSL
NJARET22020-26978-10102-00000320D0002224D000800002510102     GGSL
NJARET22020-26978-10108-20000285D0002000D000660002110108     GGSL
NJARET22020-26978-10122-80000240D0002506D000630002010122     GGSL
NJARET22020-26978-10128-00000230D0002429D000780001810128     GGSL
NJARET22020-26978-10142-60000130D0001762D000460001110142     GGSL
NJARET22020-26978-10148-50000130D0001792D000340000710148     GGSL
NJARET22020-26978-10180-80000080D0000286D000190000010180     GGSL
NJARET22020-26978-10182-20000170D0000609D000070000110182     GGSL
NJARET22020-26978-10183-90000010D0000036D000340000010183     GGSL
NJARET22020-26978-10185-30000100D0000358D000210000110185     GGSL
NJARET22020-26978-10188-40000050D0000179D000310000010188     GGSL
NJARET22020-26978-10240-90000100D0000394D000360000010240     GGSL
NJARET22020-26978-10242-30000180D0000709D000630000010242     GGSL
NJARET22020-26978-10243-00000010D0000039D000150000010243     GGSL
NJARET22020-26978-10245-40000100D0000394D000310000110245     GGSL
NJARET22020-26978-10248-50000050D0000197D000130000110248     GGSL
NJARET22020-26978-10300-00000060D0000298D000250000010300     GGSL
NJARET22020-26978-10302-40000110D0000547D000290000110302     GGSL
NJARET22020-26978-10303-10000010D0000050D000270000010303     GGSL
NJARET22020-26978-10305-50000060D0000298D000120000010305     GGSL
NJARET22020-26978-10308-60000040D0000199D000160000010308     GGSL
NJARET22020-26978-10360-40000070D0000434D000060000010360     GGSL
NJARET22020-26978-10362-80000090D0000558D000240000010362     GGSL
NJARET22020-26978-10363-50000010D0000062D000100000010363     GGSL
NJARET22020-26978-10365-90000070D0000434D000090000010365     GGSL
NJARET22020-26978-10368-00000020D0000124D000110000110368     GGSL
NJARET22020-26978-16190-10000170D0000830D000660000116190     GGSL
NJARET22020-26978-16192-50000260D0001269D001470000516192     GGSL
NJARET22020-26978-16193-20000090D0000439D000580000316193     GGSL
NJARET22020-26978-16195-60000280D0001366D000980000216195     GGSL
NJARET22020-26978-16198-70000100D0000488D000210000316198     GGSL
NJARET22020-26978-16240-30000160D0001008D000890000216240     GGSL
NJARET22020-26978-16242-70000340D0002142D001470000916242     GGSL
NJARET22020-26978-16243-40000060D0000378D000870000216243     GGSL
NJARET22020-26978-16245-80000500D0003150D000280000916245     GGSL
NJARET22020-26978-16248-90000130D0000819D000200000416248     GGSL
NJARET22020-26978-16300-40000140D0001128D000890000216300     GGSL
NJARET22020-26978-16302-80000270D0002176D001230001016302     GGSL
NJARET22020-26978-16303-50000090D0000725D000200000116303     GGSL
NJARET22020-26978-16305-90000220D0001773D000570000216305     GGSL
NJARET22020-26978-16308-00000110D0000887D000310000016308     GGSL
NJARET22020-26978-16360-80000120D0001321D000030000216360     GGSL
NJARET22020-26978-16362-20000350D0003854D000580000216362     GGSL
NJARET22020-26978-16363-90000060D0000661D000240000016363     GGSL
NJARET22020-26978-16365-30000260D0002863D000300000016365     GGSL
NJARET22020-26978-16368-40000070D0000771D000190000116368     GGSL
NJARET22020-26978-26140-30000120D0001265D000360000426140     GGSL
NJARET22020-26978-26142-70000210D0002203D000590000626142     GGSL
NJARET22020-26978-26143-40000060D0000632D000320000026143     GGSL
NJARET22020-26978-26145-80000130D0001370D000470000226145     GGSL
NJARET22020-26978-26148-90000150D0001581D000300000626148     GGSL
NJARET22020-26978-26160-10000036D0000409D000090000026160     GGSL
NJARET22020-26978-26162-50000092D0001045D000050000026162     GGSL
NJARET22020-26978-26163-20000048D0000545D000010000026163     GGSL
NJARET22020-26978-26165-60000048D0000545D000010000026165     GGSL
NJARET22020-26978-26168-70000036D0000409D000280000126168     GGSL
NJARET22020-26978-26180-90000030D0000524D000300000026180     GGSL
NJARET22020-26978-26182-30000100D0001748D000310000526182     GGSL
NJARET22020-26978-26183-00000040D0000699D000180000026183     GGSL
NJARET22020-26978-26185-40000080D0001398D000270000526185     GGSL
NJARET22020-26978-26188-50000110D0001923D000300000526188     GGSL
NJARET22020-26978-26240-00000004D0000055D000030000126240     GGSL
NJARET22020-26978-26242-40000008D0000111D000200000626242     GGSL
NJARET22020-26978-26243-10000036D0000498D000010000126243     GGSL
NJARET22020-26978-26245-50000004D0000055D000030000026245     GGSL
NJARET22020-26978-26248-60000040D0000553D000130000226248     GGSL
NJARET22020-26978-26270-70000080D0001241D000210000126270     GGSL
NJARET22020-26978-26272-10000050D0000776D000390000226272     GGSL
NJARET22020-26978-26273-80000080D0001241D000080000126273     GGSL
NJARET22020-26978-26275-20000130D0002016D000350001726275     GGSL
NJARET22020-26978-26278-30000090D0001396D000110000126278     GGSL
NJARET22020-26978-30104-80000162D0000896D000390001530104     GGSL
NJARET22020-26978-30301-10000180D0001141D000230002530301     GGSL
NJARET22020-26978-30312-70000060D0000068D000230000130312     GGSL
NJARET22020-26978-30402-50000588D0003525D000300001530402     GGSL
NJARET22020-26978-30409-40000624D0003746D000250001330409     GGSL
NJARET22020-26978-30411-70000216D0001508D000350000930411     GGSL
NJARET22020-26978-30412-40000012D0000014D000010000130412     GGSL
NJARET22020-26978-30413-10000132D0000921D000120000330413     GGSL
NJARET22020-26978-30413-10004032D0019335D00076000543041396   GGSL
NJARET22020-26978-30500-80000360D0002149D000500001830500     GGSL
NJARET22020-26978-30602-90000792D0003493D000840001730602     GGSL
NJARET22020-26978-30605-00000378D0001667D000690001930605     GGSL
NJARET22020-26978-30702-60000402D0001733D000190001730702     GGSL
NJARET22020-26978-30705-70000198D0000853D000570001930705     GGSL
NJARET22020-26978-30806-10000360D0001692D000600002430806     GGSL
NJARET22020-26978-30901-30000250D0001427D000310001930901     GGSL
NJARET22020-26978-31100-90000060D0000489D000130000531100     GGSL
NJARET22020-26978-31102-30000135D0001100D000210001131102     GGSL
NJARET22020-26978-31108-50000015D0000122D000000000131108     GGSL
NJARET22020-26978-31109-20000055D0000448D000290000531109     GGSL
NJARET22020-26978-31120-70000035D0000629D000160000131120     GGSL
NJARET22020-26978-31122-10000010D0000180D000000000031122     GGSL
NJARET22020-26978-31128-30000025D0000449D000240000531128     GGSL
NJARET22020-26978-31129-00000025D0000449D000120000131129     GGSL
NJARET22020-26978-32101-50000125D0001313D000220000432100     GGSL
NJARET22020-26978-32108-40000210D0002155D000300000232108     GGSL
NJARET22020-26978-32109-10000175D0001838D000360000232109     GGSL
NJARET22020-26978-32121-30000020D0000367D000000000032120     GGSL
NJARET22020-26978-32128-20000040D0000734D000030000232128     GGSL
NJARET22020-26978-32129-90000045D0000826D000270000132129     GGSL
NJARET22020-26978-34088-70000010D0000084D000450000034088     GGSL
NJARET22020-26978-35050-30000080D0000376D000030000235050     GGSL
NJARET22020-26978-35058-90000070D0000329D000040000235058     GGSL
NJARET22020-26978-35059-60000020D0000094D000020000235059     GGSL
NJARET22020-26978-35060-20000020D0000109D000030000335060     GGSL
NJARET22020-26978-35068-80000020D0000109D000040000135068     GGSL
NJARET22020-26978-35069-50000020D0000109D000020000135069     GGSL
NJARET22020-26978-35080-00000060D0000608D000490000635080     GGSL
NJARET22020-26978-35082-40000270D0002715D000340000935082     GGSL
NJARET22020-26978-35086-20000010D0000088D000020000135086     GGSL
NJARET22020-26978-35088-60000080D0000811D000000000035088     GGSL
NJARET22020-26978-35089-30000020D0000203D000000000035089     GGSL
NJARET22020-26978-35090-90000045D0000426D000110000235090     GGSL
NJARET22020-26978-35098-50000005D0000047D000000000035098     GGSL
NJARET22020-26978-35100-50000070D0001330D000390000435100     GGSL
NJARET22020-26978-35102-90000065D0001275D000120000335102     GGSL
NJARET22020-26978-35108-10000020D0000392D000000000035108     GGSL
NJARET22020-26978-35109-80000040D0000785D000200000435109     GGSL
NJARET22020-26978-35120-30000045D0001196D000350000535120     GGSL
NJARET22020-26978-35122-70000040D0001033D000150000635122     GGSL
NJARET22020-26978-35128-90000015D0000420D000120000835128     GGSL
NJARET22020-26978-35129-60000005D0000140D000020000235129     GGSL
NJARET22020-26978-35130-20000005D0000109D000010000135130     GGSL
NJARET22020-26978-35138-80000045D0000951D000170000735138     GGSL
NJARET22020-26978-35139-50000020D0000423D000070000635139     GGSL
NJARET22020-26978-35188-30000002D0000182D000180000035188     GGSL
NJARET22020-26978-35190-60000012D0000526D000040000435190     GGSL
NJARET22020-26978-35192-00000016D0000701D000050000535192     GGSL
NJARET22020-26978-35198-20000026D0001140D000330001635198     GGSL
NJARET22020-26978-35199-90000002D0000088D000030000435199     GGSL
NJARET22020-26978-35270-50000004D0000417D000030000335270     GGSL
NJARET22020-26978-35272-90000008D0000835D000100000135272     GGSL
NJARET22020-26978-35278-10000024D0002505D000250001135278     GGSL
NJARET22020-26978-35279-80000010D0001044D000080000335279     GGSL
NJARET22020-26978-36140-00000110D0001899D000270000836140     GGSL
NJARET22020-26978-36148-60000060D0001036D000360000736148     GGSL
NJARET22020-26978-36220-90000040D0001210D000060000236220     GGSL
NJARET22020-26978-36228-50000015D0000454D000030000336228     GGSL
NJARET22020-26978-36298-80000005D0000212D000030000236298     GGSL
NJARET22020-26978-38142-20000108D0000745D000220000338142     GGSL
NJARET22020-26978-38146-00000072D0000505D000210000138146     GGSL
NJARET22020-26978-38148-40000456D0003148D000310000638148     GGSL
NJARET22020-26978-38192-70000078D0001197D000280000538192     GGSL
NJARET22020-26978-38196-50000042D0000644D000320000438196     GGSL
NJARET22020-26978-38198-90000216D0003313D000820001638198     GGSL
NJARET22020-26978-39122-30000192D0001046D000230000239122     GGSL
NJARET22020-26978-39126-10000192D0001046D000210000339126     GGSL
NJARET22020-26978-39128-50000324D0001766D000440000839128     GGSL
NJARET22020-26978-39182-70000126D0001634D000260001139182     GGSL
NJARET22020-26978-39186-50000090D0001167D000340000639186     GGSL
NJARET22020-26978-39188-90000144D0001868D000530000839188     GGSL
NJARET22020-26978-48098-30000030D0000167D000130000748098     GGSL
NJARET22020-26978-48128-00000054D0000446D000210000548128     GGSL
NJARET22020-26978-48158-00000036D0000402D000240000148158     GGSL
NJARET22020-26978-63099-50000005D0000075D000010000063099     GGSL
NJARET22020-26978-80100-50000004D0000173D000160000080100     GGSL
NJARET22020-26978-80101-20000024D0001040D000440000180101     GGSL
NJARET22020-26978-80101-60000216D0007570D00018000088010112   GGSL
NJARET22020-26978-80103-60000004D0000173D000000000080103     GGSL
NJARET22020-26978-80105-00000032D0001447D000500000080105     GGSL
NJARET22020-26978-80107-40000024D0001048D00005000008010712   GGSL
NJARET22020-26978-80155-50000072D0003164D00000000008015536   GGSL
NJARET22020-26978-80156-20000016D0000719D000010000180156     GGSL
NJARET22020-26978-80157-90000024D0001111D00002000008015712   GGSL
NJARET22020-26978-80655-00000036D0000766D000290000080655     GGSL
NJARET22020-26978-81013-70000004D0000121D000000000081013     GGSL
NJARET22020-26978-81075-50000024D0000104D000010000081075     GGSL
NJARET22020-26978-81100-40000024D0000227D000440000081100     GGSL
NJARET22020-26978-81101-10000084D0000927D000450000081101     GGSL
NJARET22020-26978-81112-70000012D0000104D000010000081112     GGSL
NJARET22020-26978-81121-90000012D0000052D000090000081121     GGSL
NJARET22020-26978-81201-80000002D0000110D000280000081201     GGSL
NJARET22020-27652-80203-50000006D0000239D0000000000LG400151  GGSL
NJARET22020-27652-80204-20000068D0004296D0000900000LG400161  GGSL
NJARET22020-27652-80205-90000168D0010525D0013500040LG400171  GGSL
NJARET22020-27856-10001-20017628D0052355D0043300015P10232    GGSL
NJARET22020-27856-10002-90011028D0058007D0086700562P10264    GGSL
NJARET22020-27856-10008-10003324D0045206D0053900010P101      GGSL
NJARET22020-27856-10009-80001308D0011968D0023700015P128      GGSL
NJARET22020-27856-10015-90003120D0029858D0057100038P102128   GGSL
NJARET22020-27997-00229-90000018D0000523D0001500006TE        GGSL
NJARET22020-27997-01017-10000024D0005206D0002600011M6T22     GGSL
NJARET22020-27997-20063-30000030D0000317D0000200001KSM       GGSL
NJARET22020-27997-20064-00000024D0000260D0000100000KGRM      GGSL
NJARET22020-27997-21273-50000036D0000382D0000100001KLRO      GGSL
NJARET22020-29973-12316-50000210D0001434D000090000314116021P GGSL
NJARET22020-29973-12333-20000968D0003746D000430002314110028P GGSL
NJARET22020-29973-12341-70000211D0001152D0085700066141100216UGGSL
NJARET22020-29973-12349-30000336D0001626D000470001214901028P GGSL
NJARET22020-29973-12369-10000001D0000624D000030000014106021P GGSL
NJARET22020-30541-00069-60000012D0000069D0000000000JCD05CMP  GGSL
NJARET22020-30541-00102-00000024D0000129D0000000000JCD02ER   GGSL
NJARET22020-30541-00141-90000018D0000140D0000000000JCD03PT   GGSL
NJARET22020-30541-01010-70000012D0000024D0000000000JCD012SMP GGSL
NJARET22020-30541-01020-60000240D0000576D0007400007JCD024SM  GGSL
NJARET22020-30541-01020-60000240D0000455D0000100001JCD060SM  GGSL
NJARET22020-30541-01030-50000114D0000978D0008900006JCD100SMJ GGSL
NJARET22020-30541-01034-30000048D0001029D0005200001JCD030SM  GGSL
NJARET22020-30541-01039-80000132D0000660D0004300004JCD05SM   GGSL
NJARET22020-30541-01085-50000024D0000122D0000000000JCD05SMP  GGSL
NJARET22020-30541-01210-10000024D0000047D0000000000JCD024SMS GGSL
NJARET22020-30541-08879-30000348D0001106D0000200002SMVS      GGSL
NJARET22020-30541-09981-20000050D0000101D0001100000JCDTPG    GGSL
NJARET22020-30541-36000-40000240D0000360D0000000000CA120     GGSL
NJARET22020-30541-36002-80000036D0000054D0000000000CA36      GGSL
NJARET22020-30541-46688-10000012D0000027D0000000000SMP       GGSL
NJARET22020-30541-50107-00000090D0000129D0000000000DBF       GGSL
NJARET22020-30541-77703-10000024D0000071D0000000000SMN3      GGSL
NJARET22020-30541-83794-00000010D0000329D0000000000JCD024TMN GGSL
NJARET22020-30541-83795-70000001D0000143D0000000000JCD075TMPNGGSL
NJARET22020-31009-43607-10000006D0000109D0000000002952153209 GGSL
NJARET22020-31340-10005-10000108D0002019D0001600011B550120   GGSL
NJARET22020-31340-10006-80000948D0010808D0005200010B550125   GGSL
NJARET22020-31340-10007-50000024D0000795D0001900001B550130   GGSL
NJARET22020-31340-10008-20000001D0000204D0000000000B550135   GGSL
NJARET22020-31340-10017-40000080D0001494D0004400014B550190   GGSL
NJARET22020-31365-05040-90000006D0000037D0001800004 41718    GGSL
NJARET22020-31365-10600-70000016D0000384D0025100064 42808    GGSL
NJARET22020-31365-12205-20000020D0000521D0000000000 49454    GGSL
NJARET22020-31417-00043-70000001D0000006D000430001680201105  GGSL
NJARET22020-31417-00046-80000008D0000098D001640002080201121X GGSL
NJARET22020-31417-00055-00000036D0001085D000460000080601131X GGSL
NJARET22020-31417-00058-10000015D0000351D000000000080631131X GGSL
NJARET22020-31417-00107-60000020D0000116D000060000080202005  GGSL
NJARET22020-32247-00900-30000036D0000136D00132000131009001   GGSL
NJARET22020-32247-00910-20000042D0000160D00109000041009101   GGSL
NJARET22020-32247-00950-80000036D0000136D00115000091009501   GGSL
NJARET22020-32247-02515-70000036D0001652D00300000002515      GGSL
NJARET22020-32247-05514-70000300D0001697D000150000970551430  GGSL
NJARET22020-32247-10500-20000048D0000506D0002600005110500    GGSL
NJARET22020-32247-12764-60000400D0002049D000640003771276430  GGSL
NJARET22020-32247-14900-60000016D0000156D000850000014900     GGSL
NJARET22020-32247-14902-00000032D0000550D001600001814902     GGSL
NJARET22020-32247-14905-10000072D0000636D002620000814905     GGSL
NJARET22020-32247-17183-00000096D0001074D003120001217183     GGSL
NJARET22020-32247-17185-40000040D0000978D001100000317185     GGSL
NJARET22020-32247-17290-50000018D0000222D000640000017290     GGSL
NJARET22020-32247-17293-60000006D0000068D000380000017293     GGSL
NJARET22020-32247-17323-00000012D0000136D000460000017323     GGSL
NJARET22020-32247-17325-40000004D0000089D000310000017325     GGSL
NJARET22020-32247-17327-80000004D0000188D000430000017327     GGSL
NJARET22020-32247-17508-10000090D0001467D003780000917508     GGSL
NJARET22020-32247-17511-10000024D0000422D000490000017511     GGSL
NJARET22020-32247-17530-20000048D0000551D000690000117530     GGSL
NJARET22020-32247-17540-10000008D0000247D001340000617540     GGSL
NJARET22020-32247-18213-30000004D0000124D000840000018213     GGSL
NJARET22020-32247-18221-80000008D0000218D001330000918221     GGSL
NJARET22020-32247-18225-60000012D0000162D001700001118225     GGSL
NJARET22020-32247-18260-70000006D0000077D000260000018260     GGSL
NJARET22020-32247-18266-90000006D0000087D000440000018266     GGSL
NJARET22020-32247-18269-00000004D0000137D000380000018269     GGSL
NJARET22020-32247-18277-50000004D0000118D000390000018277     GGSL
NJARET22020-32247-18320-80000024D0000271D000240000018320     GGSL
NJARET22020-32247-20785-00000096D0000423D000870000972078430  GGSL
NJARET22020-32247-21605-00000076D0001767D004700005021605     GGSL
NJARET22020-32247-21701-90000060D0000598D000900000321701     GGSL
NJARET22020-32247-23616-40000089D0002366D010670005523616     GGSL
NJARET22020-32247-23622-50000041D0000759D004430004123622     GGSL
NJARET22020-32247-25006-10000003D0000083D003690000625006A    GGSL
NJARET22020-32247-25009-20000036D0002136D001670000025009     GGSL
NJARET22020-32247-26002-20000100D0002537D000330002526002A    GGSL
NJARET22020-32247-26003-90000003D0000083D000800000026003D    GGSL
NJARET22020-32247-26005-30000055D0001778D000010000026005     GGSL
NJARET22020-32247-27764-80000312D0001198D000260000672776430  GGSL
NJARET22020-32247-30156-50000012D0000256D001140000230156     GGSL
NJARET22020-32247-32367-30000002D0000066D005230000432367F    GGSL
NJARET22020-32247-33040-40000052D0000963D007260006033040     GGSL
NJARET22020-32247-33050-30000044D0002019D005170000033050     GGSL
NJARET22020-32247-33160-90000035D0002713D002400000033160     GGSL
NJARET22020-32247-34161-50000040D0002567D006920000034161     GGSL
NJARET22020-32247-36905-30000120D0004905D008600016736905     GGSL
NJARET22020-32247-37594-80000020D0000178D000650000073759430X GGSL
NJARET22020-32247-37610-50000028D0000449D000770000037610C    GGSL
NJARET22020-32247-39181-80000071D0002209D009050006539181     GGSL
NJARET22020-32247-39594-60000150D0001478D000030000073959430  GGSL
NJARET22020-32247-39605-90000089D0001791D007960009039605     GGSL
NJARET22020-32247-39615-80000031D0001652D002750000039615     GGSL
NJARET22020-32247-42784-50000012D0000050D000400000974278430  GGSL
NJARET22020-32247-43860-50000008D0000135D00046000024386004   GGSL
NJARET22020-32247-47783-30000036D0000157D000200000374778300  GGSL
NJARET22020-32247-49013-90000008D0000220D001320000049013     GGSL
NJARET22020-32247-49019-10000080D0001018D007780004049019     GGSL
NJARET22020-32247-49024-50000037D0000590D003120000049024     GGSL
NJARET22020-32247-49785-50000462D0001424D000820002874978500  GGSL
NJARET22020-32247-49801-20000030D0000474D001250000049801C    GGSL
NJARET22020-32247-50524-60000008D0000072D000550000075052430X GGSL
NJARET22020-32247-51063-90000006D0000089D000100000051063     GGSL
NJARET22020-32247-51070-70000004D0000045D000360000051070     GGSL
NJARET22020-32247-51080-60000006D0000040D000170000051080     GGSL
NJARET22020-32247-51105-60000076D0001113D004470002551105     GGSL
NJARET22020-32247-51115-50000005D0000206D001740001251115     GGSL
NJARET22020-32247-52784-20000048D0000207D000090000585278430  GGSL
NJARET22020-32247-53105-40000025D0000272D002070000053105     GGSL
NJARET22020-32247-53115-30000030D0000916D000710000053115     GGSL
NJARET22020-32247-54204-30000006D0000078D00022000025420406   GGSL
NJARET22020-32247-55513-50000195D0002087D000370000275551300  GGSL
NJARET22020-32247-55513-50000010D0000107D001130000675551300X GGSL
NJARET22020-32247-55513-50000160D0001797D000050000175551301  GGSL
NJARET22020-32247-55523-40000036D0000603D000050000075552300  GGSL
NJARET22020-32247-55523-40000117D0002057D000100000175552301  GGSL
NJARET22020-32247-55783-20000030D0000168D000700003175578300  GGSL
NJARET22020-32247-55783-20000120D0000457D000000000075578309  GGSL
NJARET22020-32247-55863-10000091D0000812D000050000275586300  GGSL
NJARET22020-32247-55863-10000034D0000303D001050003075586300X GGSL
NJARET22020-32247-56211-90000018D0000305D00043000035621106   GGSL
NJARET22020-32247-56513-40000455D0004359D000250001675651300  GGSL
NJARET22020-32247-56513-40000075D0000719D002760001975651300X GGSL
NJARET22020-32247-56513-40000240D0002414D000150000175651301  GGSL
NJARET22020-32247-56523-30000108D0001617D000290002475652300  GGSL
NJARET22020-32247-56523-30000546D0008583D000380000675652301  GGSL
NJARET22020-32247-56783-10000744D0003813D006020006375678300  GGSL
NJARET22020-32247-56783-10000720D0003636D000100000275678309  GGSL
NJARET22020-32247-56863-00000091D0000731D000170000275686300  GGSL
NJARET22020-32247-56863-00000050D0000402D002230008075686300X GGSL
NJARET22020-32247-56863-00000210D0001770D000030000075686301  GGSL
NJARET22020-32247-56863-00000090D0000759D000250000075686301X GGSL
NJARET22020-32247-57905-60000015D0000197D001990000057905     GGSL
NJARET22020-32247-60594-60000020D0000178D000700000076059430X GGSL
NJARET22020-32247-71060-20000012D0000190D001140000271060     GGSL
NJARET22020-32247-71131-90000004D0000094D000420000271131     GGSL
NJARET22020-32247-74150-70001332D0008227D0035700076274150    GGSL
NJARET22020-32247-74250-40001176D0010944D0035200044274250    GGSL
NJARET22020-32247-74850-60000272D0005841D0043000034274850    GGSL
NJARET22020-32247-75902-10000016D0001515D000380000875902     GGSL
NJARET22020-32247-76121-50000027D0001042D001180000176121     GGSL
NJARET22020-32247-76232-80000015D0001071D000820000076232     GGSL
NJARET22020-32247-76565-70000009D0000561D000350000076565     GGSL
NJARET22020-32247-77160-30001272D0007141D0031600081277160    GGSL
NJARET22020-32247-77260-00000768D0007394D0051800065277260    GGSL
NJARET22020-32247-77860-20000084D0001546D0022100012277860    GGSL
NJARET22020-32247-77960-90000300D0007006D0051900025277960    GGSL
NJARET22020-32247-95517-10000180D0001030D000080000079551750  GGSL
NJARET22020-32247-99605-10000137D0003476D007620003499605     GGSL
NJARET22020-32903-00169-30001008D0001572D0007600019SLI06000E3GGSL
NJARET22020-32903-00171-60000312D0000487D0001200003SLI06000A3GGSL
NJARET22020-32903-00191-40000132D0000747D0001400001GAB12000E2GGSL
NJARET22020-32903-00192-10000552D0000796D0003300005SLI06000B9GGSL
NJARET22020-32903-00193-80000012D0000304D0000500002TEA17000G2GGSL
NJARET22020-32903-00214-00000216D0000337D0001800002SLI06000E2GGSL
NJARET22020-32903-00222-50000024D0000048D0000500001SLI08000B9GGSL
NJARET22020-32903-00224-90000084D0000744D0002800004VNP18000E2GGSL
NJARET22020-32903-00227-00000030D0000160D0000700003SVN18000E2GGSL
NJARET22020-32903-00236-20000042D0000250D0001700004SVN24000E2GGSL
NJARET22020-32903-00240-90000120D0000239D0003000002SLI08000E2GGSL
NJARET22020-32903-00243-00000048D0000341D0001000003SVN30000E2GGSL
NJARET22020-32903-00246-10000312D0000621D0001900004SLI08000A3GGSL
NJARET22020-32903-00257-70000002D0000105D0001400005RZGH210G2 GGSL
NJARET22020-32903-00258-40000240D0000545D0003200003LIA06000E2GGSL
NJARET22020-32903-00264-50000288D0000985D0002400003LIA08000E2GGSL
NJARET22020-32903-00281-20000228D0001195D0002300004LIA10000E2GGSL
NJARET22020-32903-00283-60000084D0000663D0001000000GAB14000E2GGSL
NJARET22020-32903-00284-30000016D0000716D0000100001TEA20000G2GGSL
NJARET22020-32903-00287-40000096D0000963D0002700006VNP24000E2GGSL
NJARET22020-32903-00290-40000066D0000860D0002300004VNP30000E2GGSL
NJARET22020-32903-00293-50000132D0000367D0004100001SLI10000E2GGSL
NJARET22020-32903-00301-70000015D0000281D0001500000ROP28000A3GGSL
NJARET22020-32903-00309-30000120D0000334D0001100006SLI10000E3GGSL
NJARET22020-32903-00313-00000048D0000583D0000700000GAB18000E2GGSL
NJARET22020-32903-00326-00000216D0001780D0002100002LIA12000E2GGSL
NJARET22020-32903-00338-30000216D0000600D0002400008SLI10000A3GGSL
NJARET22020-32903-00341-30000030D0000320D0002900005SLI24000E3GGSL
NJARET22020-32903-00359-80000480D0000951D0002300009SLI08000E3GGSL
NJARET22020-32903-04255-90000180D0001910D0001500000LIA14000E2GGSL
NJARET22020-32903-04257-30000120D0000568D0002700002SLI12000E2GGSL
NJARET22020-32903-04265-80000024D0000460D0001200000GAB22000E2GGSL
NJARET22020-32903-07519-90000120D0001975D0001300007LIA16000E2GGSL
NJARET22020-32903-07530-40000108D0000545D0001700000SLI14000E2GGSL
NJARET22020-32903-07534-20000024D0000529D0001200000LIA20000E2GGSL
NJARET22020-32903-07558-80000096D0000489D0002600009RZWC1Q0B9 GGSL
NJARET22020-32903-07563-20000060D0000337D0002100002SLI17000E2GGSL
NJARET22020-32903-07577-90000012D0000353D0000700002LIA24000E2GGSL
NJARET22020-32903-12006-60001488D0003373D0009800018LIA06000E3GGSL
NJARET22020-32903-12008-00001080D0003694D0008500015LIA08000E3GGSL
NJARET22020-32903-12010-30000720D0003773D0013700021LIA10000E3GGSL
NJARET22020-32903-12012-70000600D0004944D0011200024LIA12000E3GGSL
NJARET22020-32903-12014-10000528D0005602D0008200021LIA14000E3GGSL
NJARET22020-32903-12017-20000288D0004723D0001400010LIA16000E3GGSL
NJARET22020-32903-12020-20000090D0001984D0004300016LIA20000E3GGSL
NJARET22020-32903-12024-00000048D0001413D0001700004LIA24000E3GGSL
NJARET22020-32903-12312-80000204D0001385D0003100009CNA12000E3GGSL
NJARET22020-32903-12318-00000018D0000096D0000300003SVN18000E3GGSL
NJARET22020-32903-12324-10000054D0000321D0003200003SVN24000E3GGSL
NJARET22020-32903-12330-20000042D0000298D0002400003SVN30000E3GGSL
NJARET22020-32903-12712-60000192D0001087D0002900004GAB12000E3GGSL
NJARET22020-32903-12714-00000444D0003503D0002600010GAB14000E3GGSL
NJARET22020-32903-12718-80000108D0001312D0003800005GAB18000E3GGSL
NJARET22020-32903-12722-50000024D0000460D0001200001GAB22000E3GGSL
NJARET22020-32903-12818-50000276D0002170D0001200010VNP18000E3GGSL
NJARET22020-32903-12824-60000012D0000120D0000800005VNP24000E3GGSL
NJARET22020-32903-12830-70000156D0001898D0004200005VNP30000E3GGSL
NJARET22020-32903-22484-90000015D0000281D0000900000ROP28000E2GGSL
NJARET22020-32903-23732-00000018D0000154D0002100000SLI20000E2GGSL
NJARET22020-32903-30392-60000240D0000677D0001100002CNA08000E3GGSL
NJARET22020-32903-31000-90000004D0000179D0000000000TEA20000E3GGSL
NJARET22020-32903-35079-10000009D0000616D0000000000TES20000G2GGSL
NJARET22020-32903-35947-30000240D0001037D0003800019CNA10000E3GGSL
NJARET22020-32903-40400-50000312D0001635D0000300006LIA10000A3GGSL
NJARET22020-32903-40493-70000504D0001653D0005300007LIA08000B9GGSL
NJARET22020-32903-40770-90000204D0001578D0002700003VNP18000A3GGSL
NJARET22020-32903-41472-10000030D0000213D0001500003SVN30000A3GGSL
NJARET22020-32903-41640-40000624D0002134D0003200004LIA08000A3GGSL
NJARET22020-32903-41717-30000276D0002928D0003200006LIA14000B9GGSL
NJARET22020-32903-41728-90000444D0003659D0003300007LIA12000B9GGSL
NJARET22020-32903-41842-20000126D0001507D0002800003VNP30000A3GGSL
NJARET22020-32903-41909-20000204D0003358D0002000006LIA16000A3GGSL
NJARET22020-32903-42050-00000012D0000353D0001100010LIA24000A3GGSL
NJARET22020-32903-42240-50000672D0001473D0005900007LIA06000B9GGSL
NJARET22020-32903-42728-80000030D0000179D0001800004SVN24000A3GGSL
NJARET22020-32903-43116-20000048D0000256D0001100003SVN18000A3GGSL
NJARET22020-32903-45170-20000312D0003310D0002900009LIA14000A3GGSL
NJARET22020-32903-45342-30000168D0001503D0002000005VNP24000A3GGSL
NJARET22020-32903-45788-90000012D0000269D0000900001LIA24000B9GGSL
NJARET22020-32903-46337-80000180D0002963D0001200004LIA16000B9GGSL
NJARET22020-32903-46966-00000024D0000529D0001300005LIA20000A3GGSL
NJARET22020-32903-47208-00000336D0002769D0001800004LIA12000A3GGSL
NJARET22020-32903-48101-30000408D0000926D0001800003LIA06000A3GGSL
NJARET22020-32903-48538-70000030D0000661D0001200003LIA20000B9GGSL
NJARET22020-32903-50286-20000240D0001073D0002600005HSI10008E2GGSL
NJARET22020-32903-50763-80000564D0002643D0006900021SLI12000E3GGSL
NJARET22020-32903-50766-90000056D0003292D0000000000TEA24000G2GGSL
NJARET22020-32903-50767-60000180D0000851D0002900004SLI12000A3GGSL
NJARET22020-32903-50788-10000006D0000411D0000000000TES20000A3GGSL
NJARET22020-32903-50794-20000276D0001281D0003400007SLI12000B9GGSL
NJARET22020-32903-50802-40000648D0003241D0005500018SLI14000E3GGSL
NJARET22020-32903-50803-10000180D0000909D0001800005SLI14000A3GGSL
NJARET22020-32903-53271-50000006D0000064D0002100000SLI24000E2GGSL
NJARET22020-32903-55269-00000006D0000701D0001000001TEA30000E3GGSL
NJARET22020-32903-56391-70000276D0001234D0004800015HSI10008A1GGSL
NJARET22020-32903-61152-60000006D0000152D0000000000TEA17000E3GGSL
NJARET22020-32903-61636-10000408D0001824D0003600017HSI10008B6GGSL
NJARET22020-32903-66002-90000015D0000281D0001800000ROP28000E3GGSL
NJARET22020-32903-71041-00000042D0000375D0001100003RZWC1G0E3 GGSL
NJARET22020-32903-72233-80000360D0001886D0004600007LIA10000B9GGSL
NJARET22020-32903-72518-60000096D0001226D0002900004RZWC2G0B9 GGSL
NJARET22020-32903-72886-60000078D0000696D0004200007RZWC1G0B9 GGSL
NJARET22020-32903-75049-20000054D0000463D0003900008SLI20000E3GGSL
NJARET22020-32903-75051-50000144D0000808D0001300005SLI17000A3GGSL
NJARET22020-32903-75057-70000192D0000990D0001200001SLI17000B9GGSL
NJARET22020-32903-75059-10000002D0000202D0000000000TES24000A3GGSL
NJARET22020-32903-75067-60000024D0001411D0000200002TEA2400A34GGSL
NJARET22020-32903-75070-60000012D0000103D0000800006SLI20000A3GGSL
NJARET22020-32903-75076-80000002D0000202D0000100000TES24000G2GGSL
NJARET22020-32903-75080-50000192D0001077D0002800009SLI17000E3GGSL
NJARET22020-32903-75081-20000090D0000772D0001700004SLI20000B9GGSL
NJARET22020-32903-75084-30000024D0000256D0001200003SLI24000A3GGSL
NJARET22020-32903-75089-80000006D0000064D0002000001SLI24000B9GGSL
NJARET22020-32903-91270-80000004D0000118D0000400004RZGH210E3 GGSL
NJARET22020-32903-91300-20000018D0000181D0000400001VNP2400G18GGSL
NJARET22020-32903-91303-30000078D0001016D0000900002VNP3000G18GGSL
NJARET22020-32903-91319-40000018D0000455D0000300003TEA17000G8GGSL
NJARET22020-32903-91320-00000040D0001791D0000200002TEA20000G8GGSL
NJARET22020-32903-91322-40000022D0002570D0001000000TEA30000G8GGSL
NJARET22020-32903-91323-10000006D0000411D0000100001TES20000G8GGSL
NJARET22020-32903-91324-80000004D0000404D0000100001TES24000G8GGSL
NJARET22020-32903-91484-90000120D0001917D0000200002SPX24DB0E3GGSL
NJARET22020-32903-91485-60000010D0000162D0002400000SPX24DBA34GGSL
NJARET22020-32903-91516-70000016D0000110D0001400002PPF1000   GGSL
NJARET22020-32903-91570-90000024D0000223D0000000000PZA0900Y35GGSL
NJARET22020-32903-91575-40000048D0000644D0000300002PZA1200Y35GGSL
NJARET22020-32903-91580-80000006D0000125D0000100000PZA1600Y35GGSL
NJARET22020-33200-00020-40000444D0000320D00166000733320000020GGSL
NJARET22020-33200-00544-50002290D0026955D014180093300544     GGSL
NJARET22020-33200-01191-00000156D0001103D000140000401191     GGSL
NJARET22020-33200-06527-20000021D0000456D02201000076527      GGSL
NJARET22020-33200-09142-40000128D0000929D001370006809142     GGSL
NJARET22020-33200-09293-30000188D0001369D00271001169293      GGSL
NJARET22020-33200-11321-80000132D0000176D000150001011321     GGSL
NJARET22020-33200-11448-20000294D0000444D000280000111448     GGSL
NJARET22020-33200-94182-80002058D0024225D020370119594182     GGSL
NJARET22020-33200-97242-60000008D0000063D001570000497242     GGSL
NJARET22020-33200-97457-40004354D0051251D009750096097457     GGSL
NJARET22020-33349-03110-70004514D0006727D0006500038JP310     GGSL
NJARET22020-33349-05082-50000432D0001423D0002200008JP506     GGSL
NJARET22020-33349-05618-60000568D0003291D0003600022G310      GGSL
NJARET22020-33349-07750-10000029D0000095D0000000000J4R25     GGSL
NJARET22020-33349-41211-10003256D0003622D0003700019JP212     GGSL
NJARET22020-33349-41214-20000624D0001329D0004000009JP226     GGSL
NJARET22020-33349-41221-00002250D0004727D0005700009TDOME     GGSL
NJARET22020-33349-41234-00003000D0005186D0002000016TTRAY     GGSL
NJARET22020-33349-41251-70001110D0003456D0001000006JS50      GGSL
NJARET22020-33349-41254-80001460D0004606D0002300016JS32      GGSL
NJARET22020-33349-41258-60000902D0001816D0001900018TR72      GGSL
NJARET22020-33349-41318-70000540D0001645D0003200006JP322     GGSL
NJARET22020-33349-41444-30001176D0002631D0005900013JP406     GGSL
NJARET22020-33349-41620-10000117D0000872D0005400011G316      GGSL
NJARET22020-33349-41701-70010000D0001255D0000600004J4BULK    GGSL
NJARET22020-33349-65208-10000399D0002374D0000000000PHEX7     GGSL
NJARET22020-33349-66009-30001806D0011055D0006700067T72HST14  GGSL
NJARET22020-33349-66010-90000560D0004260D0003700028TS50HST8  GGSL
NJARET22020-33349-66015-40000798D0004558D0030400011TS20HST14 GGSL
NJARET22020-33349-66023-90000044D0000394D0000500005T34HG     GGSL
NJARET22020-33349-66037-60000306D0001043D0000900004J312G     GGSL
NJARET22020-33349-66038-30000352D0002763D0000400000J336GS    GGSL
NJARET22020-33349-66040-60000320D0003411D0000300002J372PROGS GGSL
NJARET22020-33349-66041-30000144D0000632D0000400000J3R36G    GGSL
NJARET22020-33349-66042-00000192D0001609D0004300009J425GS    GGSL
NJARET22020-33349-66043-70000110D0000871D0000000000J616GS    GGSL
NJARET22020-33349-66044-40000070D0000994D0001700014J636GS    GGSL
NJARET22020-33349-66045-10000112D0001590D0000000000T70HG     GGSL
NJARET22020-33349-66045-80000275D0002208D0002900008T14HG     GGSL
NJARET22020-33349-66067-30000408D0001368D0000700001J410G     GGSL
NJARET22020-33349-66068-00000880D0008893D0002200012J450GS    GGSL
NJARET22020-33349-66069-70001537D0004680D0014700020J4REFILL  GGSL
NJARET22020-33349-66070-30000060D0000357D0000100000J6R16G    GGSL
NJARET22020-33607-00003-60000008D0000256D0000600000EDGE180   GGSL
NJARET22020-33607-00701-10000048D0000498D0000300000RT1       GGSL
NJARET22020-33607-00704-20000030D0000435D0001000000REA4      GGSL
NJARET22020-33607-00938-10000008D0000221D0001700000M7C       GGSL
NJARET22020-33607-01208-40000012D0000232D0000000000LT8       GGSL
NJARET22020-33607-01220-60000228D0003509D0000200002LT20      GGSL
NJARET22020-33607-22004-50000003D0000569D0000000000HCDECOASSTGGSL
NJARET22020-33607-22004-50000016D0000290D0000600000HHRP4     GGSL
NJARET22020-33607-22005-20000004D0000109D0001100000HC2       GGSL
NJARET22020-33607-22006-90000016D0000437D0001200000HBE6      GGSL
NJARET22020-33607-22010-60000020D0000720D0001600000HCF3      GGSL
NJARET22020-33607-22550-70000014D0001411D0001000000SRWM180   GGSL
NJARET22020-33607-52100-50000016D0000832D0000000000GKS2      GGSL
NJARET22020-33745-97185-40000039D0001236D002410000097185X    GGSL
NJARET22020-34411-00016-80000012D0000058D00000000008016041001GGSL
NJARET22020-34411-00017-50000012D0000033D00000000008001741002GGSL
NJARET22020-34411-00061-80000012D0000054D00000000008060021001GGSL
NJARET22020-34411-00340-40000018D0000223D00000000008450031002GGSL
NJARET22020-34411-00775-40000018D0000126D00002000008177531001GGSL
NJARET22020-34411-18845-30000032D0000261D00007000008883031012GGSL
NJARET22020-34411-20743-70000024D0000692D00000000008004341001GGSL
NJARET22020-34411-80013-30000018D0000259D00001000008800131011GGSL
NJARET22020-34517-15025-00000061D0000633D0001200012GMC10L    GGSL
NJARET22020-34613-00002-70000066D0001672D0000400004LH002     GGSL
NJARET22020-34613-00003-40000024D0000672D0000500004LH003     GGSL
NJARET22020-34613-00004-10000006D0000119D0000300003LH004     GGSL
NJARET22020-34613-00006-50000054D0001490D0000400004LH006     GGSL
NJARET22020-34613-00011-90000024D0000232D0001400001LH011     GGSL
NJARET22020-34613-00012-60000024D0000232D0000700001LH012     GGSL
NJARET22020-34613-00013-30000012D0000116D0000100001LH013     GGSL
NJARET22020-34613-00014-00000060D0000597D0001700000LH014     GGSL
NJARET22020-34613-00015-70000012D0000175D0001000002LH015     GGSL
NJARET22020-34613-00017-10000012D0000116D0000100001LH017     GGSL
NJARET22020-34613-00020-10000024D0000608D0000100001LH020     GGSL
NJARET22020-34613-00022-50000036D0000614D0000200001LH022     GGSL
NJARET22020-34613-00025-60000012D0000275D0000100001LH025     GGSL
NJARET22020-34613-00043-00000012D0000225D0000100001LH043     GGSL
NJARET22020-34613-00048-50000036D0000517D0000300003TP48      GGSL
NJARET22020-34613-00060-70000048D0000752D0000200002TP60      GGSL
NJARET22020-34613-00068-30000042D0000763D000170001168WP      GGSL
NJARET22020-34613-00072-00000030D0000549D0000200003TP72      GGSL
NJARET22020-34613-00128-40000012D0000209D0000000000LH128     GGSL
NJARET22020-34613-00129-10000012D0000209D0000200002LH129     GGSL
NJARET22020-34613-00131-40000012D0000187D0000000000LH131     GGSL
NJARET22020-34613-00216-80000015D0000104D0000000000U2403     GGSL
NJARET22020-34613-00225-00000175D0000781D0012400000225       GGSL
NJARET22020-34613-00325-70000175D0001478D0014200000325       GGSL
NJARET22020-34613-00332-50000012D0000045D0000000000332       GGSL
NJARET22020-34613-00425-40000150D0001406D0013200000425       GGSL
NJARET22020-34613-00436-00000075D0000305D0000000000436       GGSL
NJARET22020-34613-00438-40000025D0000147D0000000000438       GGSL
NJARET22020-34613-00439-10000006D0000072D0000000000439       GGSL
NJARET22020-34613-00440-70000040D0000249D0000100000440HD     GGSL
NJARET22020-34613-00449-00000006D0000094D0000000000449       GGSL
NJARET22020-34613-00450-60000006D0000113D0000000000450       GGSL
NJARET22020-34613-00468-10000047D0003791D0000000000 N308     GGSL
NJARET22020-34613-00470-40000001D0000274D0000000000 N508     GGSL
NJARET22020-34613-00471-10000003D0000426D0000100000 N612A    GGSL
NJARET22020-34613-00473-50000004D0000387D0000700000 N824     GGSL
NJARET22020-34613-00550-30000144D0000559D0000500004550BL     GGSL
NJARET22020-34613-00551-00000048D0000186D0000300000551BL     GGSL
NJARET22020-34613-00552-70000132D0000512D0000200002552BL     GGSL
NJARET22020-34613-00553-40000072D0000279D0000700004553BL     GGSL
NJARET22020-34613-00640-10000040D0000412D0000300000640HD     GGSL
NJARET22020-34613-00802-30000080D0000090D0000300001SS2       GGSL
NJARET22020-34613-00803-00000160D0000202D0001500003SS3       GGSL
NJARET22020-34613-00804-70000120D0000217D0000300003SS4       GGSL
NJARET22020-34613-00805-40000200D0000414D0005000000SS5       GGSL
NJARET22020-34613-00806-10000080D0000228D0003400000SS6       GGSL
NJARET22020-34613-00807-80000020D0000146D0000200000SS7HD     GGSL
NJARET22020-34613-00808-50000030D0000237D0000000000SS8HD     GGSL
NJARET22020-34613-00831-30000110D0000493D0000000000SFS4      GGSL
NJARET22020-34613-00832-00000005D0000090D0000300000SFS6      GGSL
NJARET22020-34613-00835-10000070D0000644D0000000000SFS5      GGSL
NJARET22020-34613-00876-40000020D0000143D0000000000SP6       GGSL
NJARET22020-34613-01150-40000020D0000086D00006000001150PDQ   GGSL
NJARET22020-34613-01161-00000048D0000175D00004000001161PDQ   GGSL
NJARET22020-34613-01180-10000072D0000242D00001000001180PDQ   GGSL
NJARET22020-34613-01501-40000012D0000024D00002000011501      GGSL
NJARET22020-34613-01502-10000012D0000024D00001000001502      GGSL
NJARET22020-34613-01503-80000108D0000216D00003000031503      GGSL
NJARET22020-34613-01505-20000024D0000048D00002000011505      GGSL
NJARET22020-34613-01901-20000060D0000584D00072000011901      GGSL
NJARET22020-34613-01902-90000096D0000934D00024000051902      GGSL
NJARET22020-34613-01903-60000144D0001401D00002000021903      GGSL
NJARET22020-34613-01904-30000048D0000472D00005000031904      GGSL
NJARET22020-34613-01905-00000012D0000118D00002000021905      GGSL
NJARET22020-34613-01908-10000048D0000472D00002000011908      GGSL
NJARET22020-34613-02124-40000024D0000290D00000000002124      GGSL
NJARET22020-34613-03012-30000024D0000354D00000000003012      GGSL
NJARET22020-34613-03104-50000018D0000195D00043000213104      GGSL
NJARET22020-34613-03108-30000060D0001297D00002000023108      GGSL
NJARET22020-34613-03124-30000012D0000169D00000000003124      GGSL
NJARET22020-34613-03344-50000012D0000317D00002000013344      GGSL
NJARET22020-34613-03378-00000006D0000077D00002000023378      GGSL
NJARET22020-34613-03398-80000030D0000422D00000000003398      GGSL
NJARET22020-34613-04406-90000024D0000283D00000000004406BLD   GGSL
NJARET22020-34613-04803-60000015D0000138D0000000000U4803     GGSL
NJARET22020-34613-04830-20000006D0000081D00019000014830      GGSL
NJARET22020-34613-04851-70000006D0000067D00003000034851BL    GGSL
NJARET22020-34613-04853-10000006D0000067D00000000004853BL    GGSL
NJARET22020-34613-04859-30000006D0000077D00002000003378BL    GGSL
NJARET22020-34613-04862-30000132D0001289D0004100001LH013BL   GGSL
NJARET22020-34613-04863-00000072D0000696D0002000002LH014BL   GGSL
NJARET22020-34613-04864-70000180D0001749D0000000000LH016BL   GGSL
NJARET22020-34613-04870-80000516D0007260D0002300009LH015BL   GGSL
NJARET22020-34613-04879-10000012D0000212D00000000004879BL    GGSL
NJARET22020-34613-05012-10000024D0000066D00000000005012BL    GGSL
NJARET22020-34613-05017-60000072D0001019D00002000005017BL    GGSL
NJARET22020-34613-05826-40000006D0000099D00002000025826      GGSL
NJARET22020-34613-06811-90000018D0000397D00003000016811      GGSL
NJARET22020-34613-07378-60000024D0000182D00002000027378BL    GGSL
NJARET22020-34613-07757-90000012D0000117D00002000027757BL    GGSL
NJARET22020-34613-07758-60000048D0000468D00002000027758BL    GGSL
NJARET22020-34613-07759-30000048D0000468D00002000027759BL    GGSL
NJARET22020-34613-08202-30000006D0000107D00006000008202      GGSL
NJARET22020-34613-08205-40000012D0000218D00000000008205      GGSL
NJARET22020-34613-08446-10000036D0000611D0001500003BF24      GGSL
NJARET22020-34613-08975-60000003D0000181D00002000028975      GGSL
NJARET22020-34613-09570-20000036D0000455D00001000009570      GGSL
NJARET22020-34613-09581-80000012D0000088D00001000009581      GGSL
NJARET22020-34613-09628-00000012D0000097D00000000009628      GGSL
NJARET22020-34613-09707-20000012D0000068D00005000059707      GGSL
NJARET22020-34613-09709-60000012D0000067D00000000009709      GGSL
NJARET22020-34613-12060-20000006D0000143D00002000022060N     GGSL
NJARET22020-34613-12828-80000010D0000117D0000700007SMG12828  GGSL
NJARET22020-34613-18050-70000048D0000345D00004000018050BL    GGSL
NJARET22020-34613-34006-20000075D0000028D0000000000CVS006    GGSL
NJARET22020-34613-34008-60000075D0000038D0000000000CVS008    GGSL
NJARET22020-34613-34010-90000075D0000059D0000000000CVS010    GGSL
NJARET22020-34613-34012-30000075D0000092D0000100000CVS012    GGSL
NJARET22020-34613-34014-70000075D0000122D0000100000CVS014    GGSL
NJARET22020-34613-59740-40000002D0000104D004570045659740     GGSL
NJARET22020-34613-59947-70000002D0000244D002410021659947     GGSL
NJARET22020-34613-65497-80000008D0000432D005290052965497     GGSL
NJARET22020-34613-65498-50000012D0000648D004210042065498     GGSL
NJARET22020-34613-65678-10000003D0000162D004230042265678     GGSL
NJARET22020-34613-65679-80000006D0000324D006250062565679     GGSL
NJARET22020-34613-65681-10000004D0000216D005890058965681     GGSL
NJARET22020-34613-65682-80000002D0000108D004670046565682     GGSL
NJARET22020-34613-65767-20000003D0000162D001110011065767     GGSL
NJARET22020-34613-69883-50000001D0000109D000040000069883     GGSL
NJARET22020-34613-70001-90000012D0000057D000020000270001     GGSL
NJARET22020-34613-70011-80000006D0000101D000010000170011     GGSL
NJARET22020-34613-91018-00000050D0000209D000000000091018     GGSL
NJARET22020-34613-91126-20000040D0000282D000050000491126     GGSL
NJARET22020-34613-93506-00000012D0000051D000140000293506     GGSL
NJARET22020-35000-05361-90000380D0000262D0034300042105375    GGSL
NJARET22020-35000-14120-00000078D0000386D002280000014478     GGSL
NJARET22020-35000-44673-20001206D0002412D000490003844673     GGSL
NJARET22020-35000-44678-70000063D0000135D000720001644678     GGSL
NJARET22020-35000-45038-50000369D0001192D0000000000US04232A  GGSL
NJARET22020-35000-45041-50000360D0000774D0001200012US04229A  GGSL
NJARET22020-35000-45816-20000021D0000127D0009300008MX04966A  GGSL
NJARET22020-35000-46413-20000200D0000210D000960003346413     GGSL
NJARET22020-35000-47041-60000030D0000069D0018600004MX06157A  GGSL
NJARET22020-35000-47805-40000009D0000020D000590003947805     GGSL
NJARET22020-35000-49110-70000012D0000131D001730012149110     GGSL
NJARET22020-35000-49861-80000108D0000257D000380003349861     GGSL
NJARET22020-35000-53032-50000168D0000454D0022600226153041    GGSL
NJARET22020-35000-53058-50000880D0004110D008700047253058     GGSL
NJARET22020-35000-53060-80000040D0000218D000370000053060     GGSL
NJARET22020-35000-53099-80000120D0000276D015360018153099     GGSL
NJARET22020-35000-53122-30000150D0000908D016840021853122     GGSL
NJARET22020-35000-96987-30000036D0000218D0014100057MX06813A  GGSL
NJARET22020-35000-97301-60000016D0000106D0016000000US06489A  GGSL
NJARET22020-35000-97336-80000116D0000694D0098200353US06516A  GGSL
NJARET22020-35000-97337-50000008D0000048D0001800000US06515A  GGSL
NJARET22020-35000-98324-40000044D0000216D0031600000US07139A  GGSL
NJARET22020-35000-98601-60000018D0000039D0006600000US07368A  GGSL
NJARET22020-35000-98635-10000024D0000037D0003500005MX07179A  GGSL
NJARET22020-35110-01900-00000020D0000122D003070009801900     GGSL
NJARET22020-35307-00100-90000048D0000173D0000400000STT100    GGSL
NJARET22020-35307-00200-60000024D0000156D0000100001STT200    GGSL
NJARET22020-35307-00404-80000132D0000548D0000600003404       GGSL
NJARET22020-35307-00650-90000010D0000083D0001600000A650      GGSL
NJARET22020-35307-00781-00000156D0001532D0001900003781       GGSL
NJARET22020-35307-00782-70000180D0001814D0001600003782       GGSL
NJARET22020-35307-00803-90000228D0000431D0000900003803       GGSL
NJARET22020-35307-00805-30000144D0000363D0000800003805       GGSL
NJARET22020-35307-00808-40000408D0001092D0001500008808       GGSL
NJARET22020-35307-00812-10000420D0001180D0001900010812       GGSL
NJARET22020-35307-00816-90000012D0000019D0000000000816       GGSL
NJARET22020-35307-00817-60000576D0001485D0005400020817       GGSL
NJARET22020-35307-00818-30000924D0001868D0005600022818       GGSL
NJARET22020-35307-00819-00000216D0000477D0003600012819       GGSL
NJARET22020-35307-00820-60000948D0001790D0004800018820       GGSL
NJARET22020-35307-00826-80000408D0000848D0003900033826       GGSL
NJARET22020-35307-00827-50000312D0000693D0004000031827       GGSL
NJARET22020-35307-00828-20000228D0000629D0000600003828       GGSL
NJARET22020-35307-00829-90000120D0000457D0003100002829       GGSL
NJARET22020-35307-00834-30000012D0000042D0000200002834       GGSL
NJARET22020-35307-00835-00000132D0000896D0003600005835       GGSL
NJARET22020-35307-00838-10000192D0000577D0004100016838       GGSL
NJARET22020-35307-00839-80001212D0004281D0011400022839       GGSL
NJARET22020-35307-00840-40000276D0000696D0002100015840       GGSL
NJARET22020-35307-00841-10000528D0001053D0002400020841       GGSL
NJARET22020-35307-00843-50000120D0000321D0001300013843       GGSL
NJARET22020-35307-00844-20001104D0003039D0012100032844       GGSL
NJARET22020-35307-00845-90000060D0000274D0000700003845       GGSL
NJARET22020-35307-00846-60000252D0000847D0008500048846       GGSL
NJARET22020-35307-00848-00000072D0000113D0000500000848       GGSL
NJARET22020-35307-00857-20000696D0004361D0003300008857       GGSL
NJARET22020-35307-00859-60000072D0000259D0001900008859       GGSL
NJARET22020-35307-00860-20000006D0000049D0000100001860       GGSL
NJARET22020-35307-00861-90000240D0000855D0002500014861       GGSL
NJARET22020-35307-00862-60000144D0000492D0001000004862       GGSL
NJARET22020-35307-00864-00000660D0002840D0004000007864       GGSL
NJARET22020-35307-00865-70000048D0000199D0001600009865       GGSL
NJARET22020-35307-00869-50000036D0000374D0000300001869       GGSL
NJARET22020-35307-00874-90000048D0000080D0000100001874       GGSL
NJARET22020-35307-00875-60001068D0004335D0008000011875       GGSL
NJARET22020-35307-00878-70000012D0000018D0000000000878       GGSL
NJARET22020-35307-00914-20000156D0000884D0000000002914       GGSL
NJARET22020-35307-00916-60000576D0001590D0002900010916       GGSL
NJARET22020-35307-00917-30000024D0000076D0000000000917       GGSL
NJARET22020-35307-00967-80000768D0001707D0008200038967       GGSL
NJARET22020-35307-00970-80000084D0000692D0000200002970       GGSL
NJARET22020-35307-00971-50000132D0000545D0000800005971       GGSL
NJARET22020-35307-00972-20000492D0002965D0005000027972       GGSL
NJARET22020-35307-00973-90000468D0003662D0001100005973       GGSL
NJARET22020-35307-00977-70000432D0001217D0007800036977       GGSL
NJARET22020-35307-00978-40000252D0001482D0009100078978       GGSL
NJARET22020-35307-00979-10000360D0000393D0000100001979       GGSL
NJARET22020-35307-00980-70000192D0000330D0002900012980       GGSL
NJARET22020-35307-00985-20000192D0000461D0000100001985       GGSL
NJARET22020-35307-00987-60000420D0001911D0006500024987       GGSL
NJARET22020-35307-01020-90000240D0000331D00010000041020      GGSL
NJARET22020-35307-01025-40000324D0000585D00009000041025      GGSL
NJARET22020-35307-01045-20000096D0000280D00001000011045      GGSL
NJARET22020-35307-01050-60000144D0000796D00000000001050      GGSL
NJARET22020-35307-01220-30000108D0000390D00005000031220      GGSL
NJARET22020-35307-01601-00000438D0005659D00058000181601      GGSL
NJARET22020-35307-01605-80000036D0000911D00011000011605      GGSL
NJARET22020-35307-01612-60000924D0004509D00094000201612      GGSL
NJARET22020-35307-01618-80000012D0000076D00000000001618      GGSL
NJARET22020-35307-01625-60000030D0000374D00001000001625      GGSL
NJARET22020-35307-01630-00000144D0001143D00005000021630      GGSL
NJARET22020-35307-01635-50000036D0000573D00006000011635      GGSL
NJARET22020-35307-01638-60000132D0000639D00008000041638      GGSL
NJARET22020-35307-01640-90000276D0001918D00038000071640      GGSL
NJARET22020-35307-01646-10000138D0001432D00006000011646      GGSL
NJARET22020-35307-01810-60000828D0004166D00023000081810      GGSL
NJARET22020-35307-01815-10000324D0002118D00024000011815      GGSL
NJARET22020-35307-01817-50000138D0000989D000080000118176     GGSL
NJARET22020-35307-01818-20000048D0000531D000160000418186     GGSL
NJARET22020-35307-01820-50000126D0001582D00026000011820      GGSL
NJARET22020-35307-01825-00000360D0003993D00026000051825      GGSL
NJARET22020-35307-01825-00000012D0000133D000040000318256     GGSL
NJARET22020-35307-01830-40000030D0000519D00015000011830      GGSL
NJARET22020-35307-01835-90000003D0000075D00000000001835      GGSL
NJARET22020-35307-01840-30000078D0001296D00023000021840      GGSL
NJARET22020-35307-01845-80000024D0000299D00009000021845      GGSL
NJARET22020-35307-01845-80000054D0000673D000030000218456     GGSL
NJARET22020-35307-01860-10000036D0000673D00007000001860      GGSL
NJARET22020-35307-01880-90000012D0000299D00004000011880      GGSL
NJARET22020-35307-90807-00000024D0000046D0001000000807       GGSL
NJARET22020-35307-90850-60000018D0000249D0000500004850       GGSL
NJARET22020-35307-90858-20000108D0000702D0001800013858       GGSL
NJARET22020-35307-90868-10000040D0000199D0001500003868       GGSL
NJARET22020-35307-90872-80000084D0000223D0000200001872       GGSL
NJARET22020-35355-91015-50000150D0000530D000030000491015     GGSL
NJARET22020-35951-07000-00000012D0000128D000510000707000     GGSL
NJARET22020-35951-07013-00000001D0000318D000100000007014     GGSL
NJARET22020-36074-12002-30000024D0000110D0000600000BC07      GGSL
NJARET22020-36151-46825-30000020D0000641D00173000042646825   GGSL
NJARET22020-36241-97402-20000012D0000054D0032100000974022    GGSL
NJARET22020-36348-00745-60000027D0000716D00018000000745      GGSL
NJARET22020-36348-01020-30000001D0000018D00036000001020      GGSL
NJARET22020-36348-01025-80000036D0001053D00017000001025      GGSL
NJARET22020-36348-01045-60000002D0000129D00004000001045      GGSL
NJARET22020-36348-01078-40000001D0000039D00010000061078      GGSL
NJARET22020-36348-01079-10000001D0000043D00015000001079      GGSL
NJARET22020-36348-01085-20000012D0000839D00018000001085      GGSL
NJARET22020-36348-13769-60000012D0000034D0000000000M137      GGSL
NJARET22020-36434-00009-50000096D0001419D00064000081000009   GGSL
NJARET22020-36434-11000-80000072D0000769D00032000016011000   GGSL
NJARET22020-36434-12340-40000048D0000114D00008000046012340   GGSL
NJARET22020-36434-12342-80000030D0000201D00001000016012342   GGSL
NJARET22020-36434-12343-50000012D0000114D00011000006012343   GGSL
NJARET22020-36434-12344-20000030D0000267D00001000006012344   GGSL
NJARET22020-36434-12345-90000264D0003157D00032000001012345   GGSL
NJARET22020-36434-12346-60000120D0000588D00049000066012346   GGSL
NJARET22020-36434-12350-30000006D0000041D00000000006012350   GGSL
NJARET22020-36434-12351-00000126D0000619D00014000076012351   GGSL
NJARET22020-36434-12353-40000150D0002642D00069000086012353   GGSL
NJARET22020-36434-12363-30000018D0000661D00013000131012363   GGSL
NJARET22020-36434-12380-00000090D0001128D00012000046012380   GGSL
NJARET22020-36434-12420-30000252D0002941D00062000081012420   GGSL
NJARET22020-36434-12625-20000054D0000376D00003000016012625   GGSL
NJARET22020-36434-12700-60002544D0023125D00825000331012700   GGSL
NJARET22020-36434-12701-30000210D0001871D00025000216012701   GGSL
NJARET22020-36434-12702-00000204D0001818D00019000196012702   GGSL
NJARET22020-36434-12703-70000210D0001871D00027000236012703   GGSL
NJARET22020-36434-12704-40000204D0001818D00044000396012704   GGSL
NJARET22020-36434-12705-10000216D0001925D00029000256012705   GGSL
NJARET22020-36434-12706-80000204D0001818D00013000076012706   GGSL
NJARET22020-36434-12710-50000084D0000665D00047000031012710   GGSL
NJARET22020-36434-12720-40000216D0001514D00172000201012720   GGSL
NJARET22020-36434-12743-30000036D0000337D00000000001012743   GGSL
NJARET22020-36434-12804-10000012D0000208D00000000001012804   GGSL
NJARET22020-36434-12812-60000012D0000208D00016000021012812   GGSL
NJARET22020-36434-12860-70000084D0001205D00020000031012860   GGSL
NJARET22020-36434-13001-30000096D0000544D00025000061013001   GGSL
NJARET22020-36434-13200-00000018D0000097D00005000016013200   GGSL
NJARET22020-36434-13700-50000480D0004277D00088000101032700   GGSL
NJARET22020-36434-13812-50000132D0002569D00023000071013812   GGSL
NJARET22020-36434-13860-60000060D0000974D00034000091013860   GGSL
NJARET22020-36434-15000-40000378D0013219D00148000221015000   GGSL
NJARET22020-36434-15001-10000012D0000428D00000000001015001   GGSL
NJARET22020-36434-15002-80000006D0000214D00000000001015002   GGSL
NJARET22020-36434-15003-50000012D0000428D00000000001015003   GGSL
NJARET22020-36434-15004-20000012D0000428D00000000001015004   GGSL
NJARET22020-36434-15005-90000006D0000214D00000000001015005   GGSL
NJARET22020-36434-15020-20000042D0000795D00064000071015020   GGSL
NJARET22020-36434-15021-90000006D0000114D00000000001015021   GGSL
NJARET22020-36434-15024-00000006D0000116D00000000001015024   GGSL
NJARET22020-36434-15025-70000006D0000116D00000000001015025   GGSL
NJARET22020-36434-15030-10000012D0000271D00088000021015030   GGSL
NJARET22020-36434-15040-00000072D0000776D00054000111015040   GGSL
NJARET22020-36434-15060-80000090D0001470D00067000031015050   GGSL
NJARET22020-36434-15060-80000054D0000882D00016000021015060   GGSL
NJARET22020-36434-15070-70000018D0000264D00059000011015070   GGSL
NJARET22020-36434-15091-20000006D0000128D00001000011015091   GGSL
NJARET22020-36434-15105-60000065D0002742D0001800018601015105 GGSL
NJARET22020-36434-17000-20000072D0003423D00039000031017000   GGSL
NJARET22020-36434-17004-00000060D0003002D00002000001017004   GGSL
NJARET22020-36434-17010-10000024D0000564D00100000241017010   GGSL
NJARET22020-36434-17050-70000150D0002939D00051000081017050   GGSL
NJARET22020-36434-17051-40000090D0001175D00079000051017051   GGSL
NJARET22020-36434-17061-30000040D0000261D00001000021017061   GGSL
NJARET22020-36434-17303-40000013D0001384D000010000017303     GGSL
NJARET22020-36434-18033-90000132D0001496D00005000031018033   GGSL
NJARET22020-36434-18033-90000012D0000136D00000000001028033   GGSL
NJARET22020-36434-18037-70000060D0000553D00004000031018037   GGSL
NJARET22020-36434-18037-70000060D0000497D00003000011028037   GGSL
NJARET22020-36434-19015-40000024D0000146D00000000006019010   GGSL
NJARET22020-36434-20000-60000024D0000582D00055000011020000   GGSL
NJARET22020-36434-22311-10000018D0000111D00000000006022311   GGSL
NJARET22020-36434-22312-80000012D0000121D00002000026022312   GGSL
NJARET22020-36434-22314-20000012D0000115D00002000026022314   GGSL
NJARET22020-36434-22318-00000216D0000937D00125000106022318   GGSL
NJARET22020-36434-22341-80000072D0000837D00042000001022341   GGSL
NJARET22020-36434-22345-60000168D0001969D00025000041022345   GGSL
NJARET22020-36434-22373-90000042D0000714D00006000006022373   GGSL
NJARET22020-36434-22626-60000024D0000318D00002000006022626   GGSL
NJARET22020-36434-22728-70000006D0000082D00000000006022728   GGSL
NJARET22020-36434-22729-40000030D0000424D00003000036022729   GGSL
NJARET22020-36434-22732-40000024D0000336D00007000076022732   GGSL
NJARET22020-36434-23065-20000012D0000133D00000000001023065   GGSL
NJARET22020-36434-28040-40000048D0000720D00009000001028040   GGSL
NJARET22020-36434-71100-70000012D0000121D00000000002071100   GGSL
NJARET22020-36434-71100-70000024D0000242D00001000002071200   GGSL
NJARET22020-37000-00995-50000056D0000622D000030000000995     GGSL
NJARET22020-37000-07312-30000072D0000633D000810000055193     GGSL
NJARET22020-37000-10631-90000018D0000118D001910000010631     GGSL
NJARET22020-37000-19744-70000044D0000172D000090000097584     GGSL
NJARET22020-37000-23542-20000042D0000252D000080000023542     GGSL
NJARET22020-37000-23679-50000024D0000097D001510000077810     GGSL
NJARET22020-37000-31821-70000162D0000582D003880000013093     GGSL
NJARET22020-37000-31836-10000057D0000400D005990000031836     GGSL
NJARET22020-37000-40215-20000304D0003326D001100000040215     GGSL
NJARET22020-37000-41827-60000024D0000242D002400000041827     GGSL
NJARET22020-37000-73977-70000008D0000080D000000000073977     GGSL
NJARET22020-37000-76337-60000028D0000214D000760000076337     GGSL
NJARET22020-37000-92815-70000426D0004303D000370000092815     GGSL
NJARET22020-37321-00020-40000552D0005520D0007100033020       GGSL
NJARET22020-37321-00022-80005514D0040748D00279002100226      GGSL
NJARET22020-37321-00023-50000352D0007674D0005100040023       GGSL
NJARET22020-37321-00024-20000720D0010778D0001700017024       GGSL
NJARET22020-37321-00025-90000696D0006584D0012600017025       GGSL
NJARET22020-37321-00026-60000564D0008654D00053000380266      GGSL
NJARET22020-37321-00050-10000432D0000471D0004100008050       GGSL
NJARET22020-37321-00051-80000240D0003134D0004800018051       GGSL
NJARET22020-37321-00061-70000864D0006964D0007500009061       GGSL
NJARET22020-37321-00065-50000432D0002441D0003700007065       GGSL
NJARET22020-37321-00066-20000528D0006600D0002600010066       GGSL
