TXBWIC2202Z-ZSC11-121DI- 0000005D0002164D000000000211121     GGSL
TXBWIC22020-00402-00000-00002420D0122143D0475400257          GGSL
TXBWIC22020-00402-01012-60000012D0000492D00586000021012      GGSL
TXBWIC22020-00402-01014-00000175D0007496D02541001291014      GGSL
TXBWIC22020-00402-01491- 0000040D0002537D0000000000PS14SSBLK GGSL
TXBWIC22020-00402-01492-60000052D0000160D000590000014SSB     GGSL
TXBWIC22020-00402-01499-50000002D0000006D000480000014SS      GGSL
TXBWIC22020-00402-01621-70000075D0000499D002250015016BA      GGSL
TXBWIC22020-00402-02419-20000043D0001040D000010001010XS-20   GGSL
TXBWIC22020-00402-02566- 0000006D0000370D000000000025VTCB    GGSL
TXBWIC22020-00402-02577-90000006D0000370D000000000025VTCBLK  GGSL
TXBWIC22020-00402-02699-50000060D0000042D013600000010XS-20B  GGSL
TXBWIC22020-00402-02750-60000250D0001212D0090000050B75       GGSL
TXBWIC22020-00402-05418-20000150D0000599D00375001005418      GGSL
TXBWIC22020-00402-10142-80001026D0019127D012350012610145B    GGSL
TXBWIC22020-00402-11730-60000050D0000200D004000007511730     GGSL
TXBWIC22020-00402-14221-60000004D0000363D000030000014TRSBK   GGSL
TXBWIC22020-00402-14282-70000040D0000036D000000000014TRSB    GGSL
TXBWIC22020-00402-14312-10000002D0000008D001340000014CSB     GGSL
TXBWIC22020-00402-22275-80000175D0000037D0040000050VSCH7-5   GGSL
TXBWIC22020-00402-33117-70001725D0000695D0367500000PC11-7    GGSL
TXBWIC22020-00402-33354-60003800D0000605D0370000300PC5-4     GGSL
TXBWIC22020-00402-33375-10004200D0000898D0802500275PC7-5     GGSL
TXBWIC22020-00402-44475-40000050D0000015D0000000000PLCD 7-5  GGSL
TXBWIC22020-00402-60011-20000025D0000135D0000000000117DFHS   GGSL
TXBWIC22020-00402-91014-30000118D0011893D00025000601014 BLACKGGSL
TXBWIC22020-00772-02125-80000002D0000042D00000000002125      GGSL
TXBWIC22020-00772-04251-20000002D0000036D00000000004251      GGSL
TXBWIC22020-00772-06710-20000004D0000031D00000000006710      GGSL
TXBWIC22020-00772-06712-60000004D0000031D00000000006712      GGSL
TXBWIC22020-00772-06714-00000001D0000071D00000000006714      GGSL
TXBWIC22020-00772-07527-50000001D0000009D00000000007527      GGSL
TXBWIC22020-00772-08833-60000003D0000107D00000000008833      GGSL
TXBWIC22020-01850-60960-00000020D0011733D00001000039200      GGSL
TXBWIC22020-02800-91501-30000150D0000761D00300000001501      GGSL
TXBWIC22020-10106-00000-00000006D0000065D0000000000HG-51000  GGSL
TXBWIC22020-10256-01220-30000125D0000981D0000000110GTH/SBPRHSGGSL
TXBWIC22020-10367-00110-70000144D0000966D0014400312110       GGSL
TXBWIC22020-10367-00130-50000041D0002003D0001600005130.0     GGSL
TXBWIC22020-10367-00150-30000041D0001072D0002700072150.0     GGSL
TXBWIC22020-10367-00300-20000024D0000251D0000000000ML0300    GGSL
TXBWIC22020-10367-00430-60000001D0000092D0000100000430.0     GGSL
TXBWIC22020-10367-00460-30000024D0000150D0002400008ML0460 8  GGSL
TXBWIC22020-10367-00530-30000001D0000044D0002000002530.0     GGSL
TXBWIC22020-10367-00560-00000328D0001173D0024000056ML0560 8  GGSL
TXBWIC22020-10367-01000-00000168D0001956D0007200024ML1000    GGSL
TXBWIC22020-10367-01020-80000084D0001225D0004800036ML1020    GGSL
TXBWIC22020-10367-01050-50000096D0001062D0018000000ML1050    GGSL
TXBWIC22020-10367-01110-60000032D0000116D00000000001110      GGSL
TXBWIC22020-10367-01111-30000064D0000224D00064000001111.0    GGSL
TXBWIC22020-10367-01112-00000080D0000270D00056000001112.0    GGSL
TXBWIC22020-10367-01120-50000072D0000249D00352000561120.0    GGSL
TXBWIC22020-10367-01130-40000024D0000143D00168000001130.0    GGSL
TXBWIC22020-10367-01140-30000024D0000087D00000000001140.0    GGSL
TXBWIC22020-10367-01151-90000016D0000052D0000000000ML1151    GGSL
TXBWIC22020-10367-01240-00000036D0000212D00672000121240.0    GGSL
TXBWIC22020-10367-02131-00000008D0000035D0000000000ML2131    GGSL
TXBWIC22020-10367-02151-80000016D0000109D0000000000ML2151    GGSL
TXBWIC22020-10367-02162-40000024D0000149D0011200008ML2162    GGSL
TXBWIC22020-10367-02171-60000008D0000050D0000000000ML2171    GGSL
TXBWIC22020-10367-03010-70000016D0000086D0005600008ML3010    GGSL
TXBWIC22020-11192-10594-70000016D0000344D0000000000KHEATMAT  GGSL
TXBWIC22020-11192-10595-40000045D0001663D0000900000KLIGHT-9  GGSL
TXBWIC22020-11192-60378-80000036D0000278D0000000000WFSU18    GGSL
TXBWIC22020-11192-61501-90000072D0000250D0000000036PREFILL36 GGSL
TXBWIC22020-11192-86019-80000006D0000037D0000000000KMG6      GGSL
TXBWIC22020-11247-00000-00000001D0000028D0015900000CPK0225   GGSL
TXBWIC22020-11247-00250-40000010D0000380D000660000600640     GGSL
TXBWIC22020-11247-00411-90000001D0000042D000040000000411     GGSL
TXBWIC22020-11247-01050-90000005D0000081D000030000501050     GGSL
TXBWIC22020-11247-01541-20000031D0001232D000100000001541     GGSL
TXBWIC22020-11247-01841-30000005D0000179D000000000001841     GGSL
TXBWIC22020-11247-03111-50000080D0002658D000000000003111     GGSL
TXBWIC22020-11247-04525-90000148D0004092D002740096004525     GGSL
TXBWIC22020-11247-04540-20000009D0000383D000000000004540     GGSL
TXBWIC22020-11247-05350-60000018D0000973D000040000205350     GGSL
TXBWIC22020-11247-05450-30000086D0003587D000440003105450     GGSL
TXBWIC22020-11247-06239-30000006D0000301D000140000006239     GGSL
TXBWIC22020-11247-11024-70000132D0000781D000000001211024     GGSL
TXBWIC22020-11247-12024-60000036D0000178D000000003612024     GGSL
TXBWIC22020-11247-13010-80000024D0000090D000570003613010     GGSL
TXBWIC22020-11247-16004-20000102D0000737D001380002416004     GGSL
TXBWIC22020-11247-20002-30000096D0000487D000000000020002     GGSL
TXBWIC22020-11247-20103-70000036D0000269D000000000020103     GGSL
TXBWIC22020-11247-21004-60000120D0000922D000000001821004     GGSL
TXBWIC22020-11247-30004-40000348D0002627D001920002430004     GGSL
TXBWIC22020-11247-52803-50000006D0000049D000000000052803     GGSL
TXBWIC22020-11247-52817-20000002D0000078D000000000052817     GGSL
TXBWIC22020-11247-52825-70000030D0000627D000120001052825     GGSL
TXBWIC22020-11247-52826-40000006D0000032D000060000652826     GGSL
TXBWIC22020-11247-52829-50000005D0000057D000240000652829     GGSL
TXBWIC22020-11247-52833-20000126D0000809D000120000052833     GGSL
TXBWIC22020-11247-52838-70000006D0000042D000000000052838     GGSL
TXBWIC22020-11247-52877-60000016D0000836D000280000052877     GGSL
TXBWIC22020-11247-52878-30000010D0001075D000000000052878     GGSL
TXBWIC22020-11247-52880-60000024D0000144D000000000652880     GGSL
TXBWIC22020-11247-52881-30000002D0000044D000000000052881     GGSL
TXBWIC22020-11247-52888-20000135D0000775D000360004852888     GGSL
TXBWIC22020-11247-52889-90000060D0000942D000760001152889     GGSL
TXBWIC22020-11247-52892-90000006D0000043D000000000052896     GGSL
TXBWIC22020-11247-60116-50000012D0000135D001010000060116     GGSL
TXBWIC22020-11247-61008-20000450D0003392D000000000061008     GGSL
TXBWIC22020-11247-61024-20000684D0004581D003810025261024     GGSL
TXBWIC22020-11247-71016-40000072D0000606D000000001271001     GGSL
TXBWIC22020-11247-90001-50000060D0000313D000120000090001     GGSL
TXBWIC22020-11247-90128-90000008D0000078D000320006890128     GGSL
TXBWIC22020-11247-90250-70000012D0000291D000400000090250     GGSL
TXBWIC22020-11423-00338-70000018D0000102D0051600000HG-33801  GGSL
TXBWIC22020-14021-01317-80000015D0000168D00000000002100-2    GGSL
TXBWIC22020-14021-01412-00000008D0000999D00000000001024      GGSL
TXBWIC22020-14021-03029-80000001D0000209D00000000001040      GGSL
TXBWIC22020-14021-03040-30000002D0000304D00000000003030      GGSL
TXBWIC22020-14021-10118-90000002D0000204D00000000003020      GGSL
TXBWIC22020-15966-49430-10000012D0000173D000170000049 00 430 GGSL
TXBWIC22020-16069-00001-10000012D0000075D0000000000NE-SR     GGSL
TXBWIC22020-16069-00002-80000012D0000075D0000000000NE-OR     GGSL
TXBWIC22020-16069-00005-90000048D0000334D0014700048TP-15C    GGSL
TXBWIC22020-16069-00007-30000195D0001143D0020400048BN-1      GGSL
TXBWIC22020-16069-00008-00000363D0002126D0046200216BN-2      GGSL
TXBWIC22020-16069-00013-40000046D0001058D0008400006BN-3      GGSL
TXBWIC22020-16069-00014-10000024D0000401D0006400012BN-4      GGSL
TXBWIC22020-16069-00015-80000014D0000371D0003800012BN-5      GGSL
TXBWIC22020-16069-00030-10000082D0000869D0013000012OW-6      GGSL
TXBWIC22020-16069-00049-30000054D0000886D0005600024DX-7      GGSL
TXBWIC22020-16069-00060-80000030D0000078D0000000000RAP-15    GGSL
TXBWIC22020-16069-00218-30000024D0000120D0000000000HST-100   GGSL
TXBWIC22020-16069-00365-40000269C0000120C0001800000PIN-9     GGSL
TXBWIC22020-16069-00473-30000012D0005684D0000000001MIXO-30MP GGSL
TXBWIC22020-16069-00504-70000030D0000056D0000000000TG1-3W    GGSL
TXBWIC22020-16069-00527-60000003D0000415D0000000000SG13-4    GGSL
TXBWIC22020-16069-00531-00000008D0004400D0000000002GCM-BDO   GGSL
TXBWIC22020-16069-00546-70000004D0000162D0000000000RRBG-4    GGSL
TXBWIC22020-16069-00626-60000020D0000106D0000000000PTG2-10   GGSL
TXBWIC22020-16069-00667-90000108D0002192D0018400156RHO-4US   GGSL
TXBWIC22020-18506-00000-00000460D0006526D02790002100111-5    GGSL
TXBWIC22020-18506-00010-30000006D0000036D0023800243010-6     GGSL
TXBWIC22020-18506-00021-90000018D0000228D0044000000021-6     GGSL
TXBWIC22020-18506-00102-50000096D0000379D0061400000102-12    GGSL
TXBWIC22020-18506-00110-50000444D0002843D0192700576110-12    GGSL
TXBWIC22020-18506-00116-20000228D0001378D0131300726116-12    GGSL
TXBWIC22020-18506-00117-90000102D0000954D0088500471117-6     GGSL
TXBWIC22020-18506-00125-40001836D0009099D0031200000125       GGSL
TXBWIC22020-18506-00130-80001236D0006792D0021600012130       GGSL
TXBWIC22020-18506-00135-30000006D0000083D0000000000135       GGSL
TXBWIC22020-18506-02001-90000012D0000078D00000000002001      GGSL
TXBWIC22020-18506-03202-90000011D0005159D00001000033200      GGSL
TXBWIC22020-18506-21800-30000001D0000277D000000000021800     GGSL
TXBWIC22020-22102-01010-70000003D0000153D000000004010N       GGSL
TXBWIC22020-22102-02011-30000006D0000315D000060000020FB      GGSL
TXBWIC22020-22102-05211-40000003D0000160D0001800008521G      GGSL
TXBWIC22020-22102-30430-50000010D0000363D0000200000HPW33     GGSL
TXBWIC22020-22102-75210-60000003D0000092D00010000297521      GGSL
TXBWIC22020-22179-10035-00000046D0002337D0018200060LG4110    GGSL
TXBWIC22020-22179-10084-80000018D0000145D0006600102LG7220    GGSL
TXBWIC22020-22179-10090-90000045D0001147D0004200000LG4300    GGSL
TXBWIC22020-22179-10108-10000024D0000182D0000000000LG7265    GGSL
TXBWIC22020-22179-10109-80000018D0000246D0000000000lg 5146   GGSL
TXBWIC22020-22179-10110-40000006D0000154D0000000000lg 5149   GGSL
TXBWIC22020-22179-10115-90000090D0001505D0018300000lg 5599   GGSL
TXBWIC22020-22179-10118-00000006D0000184D0000000000lg 5330   GGSL
TXBWIC22020-22179-10124-10000270D0001442D0079800156LG6515    GGSL
TXBWIC22020-22179-10130-20000006D0000075D0000000006lg 6239   GGSL
TXBWIC22020-22179-10133-30000024D0000244D0000000000LG 4102   GGSL
TXBWIC22020-22179-10138-80000048D0000118D0000000000LG 1125   GGSL
TXBWIC22020-22179-10139-50000228D0001089D0047100000LG1130    GGSL
TXBWIC22020-22179-10140-10000008D0000992D0006400001LG6520    GGSL
TXBWIC22020-22179-10150-00000191D0002219D00573003927115      GGSL
TXBWIC22020-22179-10151-70000101D0004767D00038000517117      GGSL
TXBWIC22020-22179-10164-70000012D0000053D0000000036LG1140    GGSL
TXBWIC22020-22179-10185-20000171D0001896D0043300046LG6500    GGSL
TXBWIC22020-22179-10246-00000093D0001446D0086701152LG6570    GGSL
TXBWIC22020-22179-10247-70000071D0001769D00301002227122      GGSL
TXBWIC22020-22179-10248-40000135D0001135D0060600060LG6575    GGSL
TXBWIC22020-22179-10257-60000024D0000359D0000000012LG3190    GGSL
TXBWIC22020-22179-10259-00000012D0000590D0000000000lg6585    GGSL
TXBWIC22020-22179-10266-80000023D0000395D0001201524LG6145    GGSL
TXBWIC22020-22179-10295-80000012D0000279D0000000000LG6138    GGSL
TXBWIC22020-22179-10326-90000006D0000148D0000000000LG5512    GGSL
TXBWIC22020-22179-10327-60000036D0000342D0000000024LG6148    GGSL
TXBWIC22020-22179-10331-30000018D0000186D0000000000lg 6382   GGSL
TXBWIC22020-22179-10376-40000004D0000071D0000000000LG6292    GGSL
TXBWIC22020-22179-10377-10000012D0000104D0007200576lg 6294   GGSL
TXBWIC22020-22179-10378-80000030D0000213D0001800042lg6274    GGSL
TXBWIC22020-22179-10390-00000252D0002347D0051600216LG6332    GGSL
TXBWIC22020-22179-10391-70000048D0000697D0000000276LG6336    GGSL
TXBWIC22020-22179-10393-10000006D0000089D0000000012lg 5367   GGSL
TXBWIC22020-22179-10395-50000018D0000577D0013300013LG6356    GGSL
TXBWIC22020-22179-10398-60000006D0000029D0000600000lg 7234   GGSL
TXBWIC22020-22179-10406-80000060D0003311D0000000480LG 6344   GGSL
TXBWIC22020-22179-10408-20000243D0002059D0014300732LG 6338   GGSL
TXBWIC22020-22179-10418-10000004D0000160D0000000000lg 1132   GGSL
TXBWIC22020-22179-10421-10000006D0000127D0000000000LG6398    GGSL
TXBWIC22020-22179-10424-20000012D0000114D0000000000lg 1150   GGSL
TXBWIC22020-22179-10429-70000156D0002529D0075600684LG6334    GGSL
TXBWIC22020-22179-10438-90000048D0000810D0000000000lg 1167   GGSL
TXBWIC22020-22179-10442-60000004D0000195D0000000000lg 1178   GGSL
TXBWIC22020-22179-10443-30000012D0000113D0000000018LG3370    GGSL
TXBWIC22020-22179-10454-90000078D0000832D0017400222lg 3303   GGSL
TXBWIC22020-22179-10458-70000162D0001473D0027900000lg 3234   GGSL
TXBWIC22020-22179-10473-00000024D0000248D0000000000lg 6158   GGSL
TXBWIC22020-22179-10474-70000048D0000382D0000000012lg 6328   GGSL
TXBWIC22020-22179-10481-50000018D0000217D0000000000lg 5592   GGSL
TXBWIC22020-22179-10490-70000024D0000199D0012000336LG 6302   GGSL
TXBWIC22020-22179-10492-10000012D0000194D0000000000lg 5225   GGSL
TXBWIC22020-22179-10499-00000018D0000281D0000000000LG9250    GGSL
TXBWIC22020-22179-10517-10000006D0000131D0000300006lg 3176   GGSL
TXBWIC22020-22179-10520-10000012D0000100D0000000018lg 6542   GGSL
TXBWIC22020-22179-10529-40000020D0000147D0021000190lg 7350   GGSL
TXBWIC22020-22179-10534-80000016D0000252D0000000000lg 7360   GGSL
TXBWIC22020-22179-10552-20000040D0000412D0002000360lg 7376   GGSL
TXBWIC22020-22401-00115-80000118D0007473D0027800019MDC-15    GGSL
TXBWIC22020-22401-00301-50000028D0000391D0003800000THD-20    GGSL
TXBWIC22020-22401-00380-10000004D0000074D0058400072NDETC-20MCGGSL
TXBWIC22020-22401-00381-70000032D0000846D0012800048NDETC-2OLBGGSL
TXBWIC22020-22401-10088-20000001D0000036D0009200009EAR-60    GGSL
TXBWIC22020-22401-10089-90000004D0000095D0000000000BBC-20LB  GGSL
TXBWIC22020-22401-10103-20000016D0000464D0000000000BBC5-40DB GGSL
TXBWIC22020-23075-02332-30000072D0000377D0000000072P036      GGSL
TXBWIC22020-23075-02721-50000133D0000614D0001400007P72H-7    GGSL
TXBWIC22020-23626-00605-80003192D0030153D0559600892116334    GGSL
TXBWIC22020-23626-00615-70003032D0031818D0331600579116336    GGSL
TXBWIC22020-23626-00630-00000528D0007681D0262400336116341    GGSL
TXBWIC22020-23626-00650-80000018D0000074D0036000024000600    GGSL
TXBWIC22020-23626-00860-10000120D0001008D0000000052116348    GGSL
TXBWIC22020-23626-01710-80000120D0000653D0045000006000800    GGSL
TXBWIC22020-23626-01720-70000192D0001388D0037200000000900    GGSL
TXBWIC22020-23626-04055-70000018D0000101D0000000000112845    GGSL
TXBWIC22020-23883-00001-10000477D0009065D0118400216G362      GGSL
TXBWIC22020-23883-00002-80000084D0000417D0064801098G385      GGSL
TXBWIC22020-23883-00003-50000066D0000324D0095100006G390      GGSL
TXBWIC22020-23883-01000-30000042D0000622D00030000001000      GGSL
TXBWIC22020-23883-01002-70000327D0003358D00898000331002      GGSL
TXBWIC22020-23883-01105-50000120D0000321D00096004321105      GGSL
TXBWIC22020-23883-04700-90000001D0000028D00000000004700      GGSL
TXBWIC22020-23883-04701-60000003D0000091D00014000024701      GGSL
TXBWIC22020-23883-05000-90000048D0000299D00112000005000      GGSL
TXBWIC22020-23883-08620-60000001D0000228D00013000018620B     GGSL
TXBWIC22020-23883-10030-80000036D0000328D000000000010030     GGSL
TXBWIC22020-23883-15710-40011851D0085297D150070453315710     GGSL
TXBWIC22020-23883-16100-20000005D0000087D000040000016100MP   GGSL
TXBWIC22020-23883-20010-70000008D0000133D000250000020010     GGSL
TXBWIC22020-23883-20020-60000046D0000903D000000000620002     GGSL
TXBWIC22020-23883-21210-00000006D0000366D000010005321210XP   GGSL
TXBWIC22020-23883-21220-90000004D0000276D000000002021220XP   GGSL
TXBWIC22020-23883-21230-80000002D0000159D000000000021230xp   GGSL
TXBWIC22020-23883-26011-80000114D0004230D003200000026011XP   GGSL
TXBWIC22020-23883-26021-70000224D0008221D023120001726021XP   GGSL
TXBWIC22020-23883-26031-60000020D0001030D001490002026031XP   GGSL
TXBWIC22020-23883-27010-00000047D0001171D001790002127010     GGSL
TXBWIC22020-23883-27020-90000159D0004174D004910004227020     GGSL
TXBWIC22020-23883-27030-80000051D0001604D002090002227030     GGSL
TXBWIC22020-23883-60100-30000131D0008017D016000008860100     GGSL
TXBWIC22020-23883-61925-10000001D0000011D00009000006-1925    GGSL
TXBWIC22020-23883-62000-40000018D0000125D00000000006-2000    GGSL
TXBWIC22020-23883-63924-20000018D0003638D000790001063924     GGSL
TXBWIC22020-23883-64601-10000003D0000045D00003000006-4601    GGSL
TXBWIC22020-23883-66000-00000006D0000041D00008000006-6000    GGSL
TXBWIC22020-23883-66002-40000003D0000026D00009000006-6002    GGSL
TXBWIC22020-23883-67711-40000001D0000014D00007000006-7711    GGSL
TXBWIC22020-23883-67749-70000003D0000025D00003000006-7749    GGSL
TXBWIC22020-23883-80000-00000012D0000584D00003000938000A     GGSL
TXBWIC22020-23883-80080-20000002D0000284D00000000018200A     GGSL
TXBWIC22020-23883-81000-90000003D0000370D000010002181000A    GGSL
TXBWIC22020-23883-82080-00000003D0000598D00000000008301C     GGSL
TXBWIC22020-23883-84000-60000003D0000451D00011000008701B     GGSL
TXBWIC22020-23883-84600-80000034D0001114D000080001084700A    GGSL
TXBWIC22020-23883-97100-70000001D0000738D000130000197100     GGSL
TXBWIC22020-23883-97561-60000001D0000253D000010000097561     GGSL
TXBWIC22020-24654-05102-70000006D0000027D00006000005102-6    GGSL
TXBWIC22020-24654-05922-10000042D0000491D00000000005926      GGSL
TXBWIC22020-24654-05931-30000018D0000260D00000000005935      GGSL
TXBWIC22020-24654-05962-70000108D0001255D00072000005962      GGSL
TXBWIC22020-24654-51806-30000036D0000189D00000000005180-6    GGSL
TXBWIC22020-24654-55025-40000096D0000379D00000000005026      GGSL
TXBWIC22020-24654-55110-70000264D0001277D00905000065110-6    GGSL
TXBWIC22020-24654-55118-30000138D0001038D00649000185118.0    GGSL
TXBWIC22020-24654-72125-80000006D0000031D0000000000SB125     GGSL
TXBWIC22020-26455-91350-40000006D0000361D001310000070805-001-GGSL
TXBWIC22020-26978-30104-80000008D0000238D000000000030104     GGSL
TXBWIC22020-26978-30301-10000420D0002521D000290003630301     GGSL
TXBWIC22020-26978-30402-50000072D0000407D000000000030402     GGSL
TXBWIC22020-26978-30409-40000060D0000339D000000000030409     GGSL
TXBWIC22020-26978-30411-70000060D0000339D000000000030411     GGSL
TXBWIC22020-26978-30413-10000060D0000339D000000000030413     GGSL
TXBWIC22020-26978-30500-80000080D0000411D000000000030500     GGSL
TXBWIC22020-26978-30602-90000004D0000082D000000000030602     GGSL
TXBWIC22020-26978-30605-00000004D0000082D000000000030605     GGSL
TXBWIC22020-26978-30702-60000024D0000093D000000000030702     GGSL
TXBWIC22020-26978-30705-70000024D0000093D000000000030705     GGSL
TXBWIC22020-26978-30806-10000001D0000025D000000000030806     GGSL
TXBWIC22020-26978-30901-30000004D0000198D000000000030901     GGSL
TXBWIC22020-26978-31100-90000010D0000076D000000000031100     GGSL
TXBWIC22020-26978-31108-50000005D0000038D000000000031108     GGSL
TXBWIC22020-26978-31109-20000005D0000038D000000000031109     GGSL
TXBWIC22020-26978-35278-10000002D0000196D000000000035278     GGSL
TXBWIC22020-26978-38148-40000003D0000237D000000000038148     GGSL
TXBWIC22020-26978-38198-90000006D0000086D000000000038198     GGSL
TXBWIC22020-26978-48098-30000024D0000117D000000000048098     GGSL
TXBWIC22020-26978-48128-00000024D0000174D000000000048128     GGSL
TXBWIC22020-26978-48158-00000024D0000252D000000000048158     GGSL
TXBWIC22020-26978-70811-00000001D0000045D000000000070811     GGSL
TXBWIC22020-26978-80107-40000002D0000108D000000000080107.12  GGSL
TXBWIC22020-28009-11225-80004341D0025215D00991008951225.0    GGSL
TXBWIC22020-28009-11227-20000012D0000044D00006000001227.0    GGSL
TXBWIC22020-28009-11250-00011306D0101931D08128014091250.0    GGSL
TXBWIC22020-28009-11420-70002165D0011704D00124001301420P     GGSL
TXBWIC22020-28009-11428-30000648D0008494D00000000001428      GGSL
TXBWIC22020-28009-11440-50003582D0029230D00214002581440P     GGSL
TXBWIC22020-28009-11460-30000240D0003558D00240000001460      GGSL
TXBWIC22020-28009-11550-10000100D0000590D00000000001550P     GGSL
TXBWIC22020-28009-11640-90000480D0002731D00000000001640      GGSL
TXBWIC22020-28009-11815-10000055D0000392D00000000001815      GGSL
TXBWIC22020-28009-15240-70001508D0008149D00397007035240.0    GGSL
TXBWIC22020-28009-15440-30000420D0003102D00000000001840      GGSL
TXBWIC22020-28009-15450-00000056D0000432D00161000005450.0    GGSL
TXBWIC22020-28009-15540-80005375D0020233D02029009605540.0    GGSL
TXBWIC22020-28009-15720-40000480D0001488D00000001205720.0    GGSL
TXBWIC22020-28009-15740-20001671D0007739D00060000545740.0    GGSL
TXBWIC22020-30541-00066-50000048D0000107D0000000024JCD-TP03  GGSL
TXBWIC22020-30541-00067-20000018D0000161D0002400000JCD-100FGPGGSL
TXBWIC22020-30541-00110-50000006D0000137D0000600000JCD-08ER  GGSL
TXBWIC22020-30541-00501-10000001D0000288D0000000000JCD-50BKSMGGSL
TXBWIC22020-30541-00801-20000004D0000186D0000000004JCD-08BKSMGGSL
TXBWIC22020-30541-01020-60000216D0000508D0021600000JCD-024SM GGSL
TXBWIC22020-30541-01030-50000030D0000248D0003000000JCD-100SMJGGSL
TXBWIC22020-30541-01034-30000016D0000334D0003400000JCD-030SM GGSL
TXBWIC22020-30541-08875-50000250D0000073D0000000000SMB       GGSL
TXBWIC22020-30541-08878-60000048D0000134D0000000000SMMS      GGSL
TXBWIC22020-30541-09982-90001348D0002580D0064802524JCD-TPP   GGSL
TXBWIC22020-30641-09801-20000625D0001479D0000000025SWPDQ     GGSL
TXBWIC22020-30641-32937-60000684D0001360D0005400072RPDQ      GGSL
TXBWIC22020-30641-33935-10000738D0001462D0000000090YPDQ      GGSL
TXBWIC22020-30641-35936-60000774D0001546D0000000162WPDQ      GGSL
TXBWIC22020-32247-00900-30000246D0000752D00300000421009001   GGSL
TXBWIC22020-32247-00910-20000066D0000229D00018000001009101   GGSL
TXBWIC22020-32247-00950-80000162D0000461D00072000181009501   GGSL
TXBWIC22020-32247-02515-70000012D0000442D00000000002515      GGSL
TXBWIC22020-32247-03115-80000106D0006626D000300000031115     GGSL
TXBWIC22020-32247-03313-80000883D0019299D00209000113313B     GGSL
TXBWIC22020-32247-03594-10001250D0007740D006830000070359430  GGSL
TXBWIC22020-32247-05514-70023112D0090249D032680094170551430  GGSL
TXBWIC22020-32247-10500-20000255D0002204D0015300048110500    GGSL
TXBWIC22020-32247-11307-60029444D0056147D023930018171130756  GGSL
TXBWIC22020-32247-12764-60000064D0000234D000400000071276430  GGSL
TXBWIC22020-32247-14810-80000016D0000150D000000000014810     GGSL
TXBWIC22020-32247-14902-00000104D0001371D000040000014902     GGSL
TXBWIC22020-32247-14905-10002449D0017028D000880001614905     GGSL
TXBWIC22020-32247-15307-20000645D0001379D001410000071530751  GGSL
TXBWIC22020-32247-17183-00000348D0002947D000420001217183     GGSL
TXBWIC22020-32247-17185-40000264D0005061D000560000017185     GGSL
TXBWIC22020-32247-17187-80000144D0006637D000480000017187     GGSL
TXBWIC22020-32247-17290-50000168D0001563D000120000017290     GGSL
TXBWIC22020-32247-17293-60000180D0001625D000000000017293     GGSL
TXBWIC22020-32247-17295-00000052D0001109D000080000017295     GGSL
TXBWIC22020-32247-17323-00000138D0001227D000480000017323     GGSL
TXBWIC22020-32247-17325-40000080D0001484D000160000017325     GGSL
TXBWIC22020-32247-17327-80000170D0006397D000480000017327     GGSL
TXBWIC22020-32247-17424-40000004D0000099D000000000017519     GGSL
TXBWIC22020-32247-17432-90000016D0000661D000160000017504     GGSL
TXBWIC22020-32247-17508-10000145D0002062D000300000017508     GGSL
TXBWIC22020-32247-17511-10000156D0002796D000000000017511     GGSL
TXBWIC22020-32247-17528-90000020D0000495D000000000017540     GGSL
TXBWIC22020-32247-17530-20000036D0000309D000000000017530     GGSL
TXBWIC22020-32247-17582-10000019D0000873D000000000017582     GGSL
TXBWIC22020-32247-18213-30000058D0003420D000260001418213     GGSL
TXBWIC22020-32247-18221-80000109D0003101D000120001218221     GGSL
TXBWIC22020-32247-18222-50000014D0001516D000000000018222     GGSL
TXBWIC22020-32247-18225-60000407D0005957D000490000018225     GGSL
TXBWIC22020-32247-18228-70000024D0001069D000240000018228     GGSL
TXBWIC22020-32247-18251-50000008D0000273D000160000018251     GGSL
TXBWIC22020-32247-18260-70000024D0000247D000000000018260     GGSL
TXBWIC22020-32247-18266-90000132D0001557D000600000018266     GGSL
TXBWIC22020-32247-18272-00000084D0000429D000350001218272     GGSL
TXBWIC22020-32247-18296-60000018D0000208D000060000018296     GGSL
TXBWIC22020-32247-18302-40000020D0000441D000040000018302     GGSL
TXBWIC22020-32247-18320-80000223D0002351D000000000018320     GGSL
TXBWIC22020-32247-18338-30000024D0000282D000000000018338     GGSL
TXBWIC22020-32247-18346-80000024D0000515D000280000018346     GGSL
TXBWIC22020-32247-18348-20000054D0000709D000420000618348     GGSL
TXBWIC22020-32247-18350-50000360D0002468D000600000018350     GGSL
TXBWIC22020-32247-18353-60000594D0013897D000900001818353     GGSL
TXBWIC22020-32247-18354-30000036D0000469D000000000018354     GGSL
TXBWIC22020-32247-18360-40000004D0000202D000000000018360     GGSL
TXBWIC22020-32247-18362-80000054D0002232D000000000018362     GGSL
TXBWIC22020-32247-18363-50000004D0000103D000000000018363     GGSL
TXBWIC22020-32247-19002-20000012D0000103D000000000019002     GGSL
TXBWIC22020-32247-19594-20000250D0001648D000000000071959430  GGSL
TXBWIC22020-32247-20784-30001992D0006240D012910028872078430  GGSL
TXBWIC22020-32247-20814-70000353D0014391D000000000021814     GGSL
TXBWIC22020-32247-21030-00000040D0000882D001790000021030A    GGSL
TXBWIC22020-32247-21605-00000696D0012564D000220000021605     GGSL
TXBWIC22020-32247-21701-90000336D0002687D000120000021701     GGSL
TXBWIC22020-32247-22305-80000138D0002098D001660000022305     GGSL
TXBWIC22020-32247-22315-70000020D0000786D000000000022315     GGSL
TXBWIC22020-32247-23001-80000074D0002009D000000000023001     GGSL
TXBWIC22020-32247-23100-80000012D0000131D000240000023100     GGSL
TXBWIC22020-32247-23405-40000571D0008278D001910000023405B    GGSL
TXBWIC22020-32247-23615-70000001D0000021D000000000023616     GGSL
TXBWIC22020-32247-23622-50000062D0000921D000000000023622     GGSL
TXBWIC22020-32247-24864-80000455D0003075D000000000072486430  GGSL
TXBWIC22020-32247-25006-10001137D0022457D005160000025006A    GGSL
TXBWIC22020-32247-25009-20000350D0018307D000000000025009     GGSL
TXBWIC22020-32247-26003-90000033D0000776D000390000026003D    GGSL
TXBWIC22020-32247-26005-30001530D0037562D000000000026005     GGSL
TXBWIC22020-32247-26007-70000493D0011775D001880000026007B    GGSL
TXBWIC22020-32247-26784-70000264D0000845D009720011472678430  GGSL
TXBWIC22020-32247-27764-80000232D0000860D000000000072776430  GGSL
TXBWIC22020-32247-27791-40000360D0000702D000000048072779180  GGSL
TXBWIC22020-32247-30073-50000005D0001863D000010000030073A    GGSL
TXBWIC22020-32247-30075-90000032D0001250D000320000030075B    GGSL
TXBWIC22020-32247-30156-50001464D0022296D000240000030156     GGSL
TXBWIC22020-32247-30158-90000032D0001250D000320000030158D    GGSL
TXBWIC22020-32247-30177-00000011D0002675D000450000030177     GGSL
TXBWIC22020-32247-30178-70000010D0000391D000000000030178     GGSL
TXBWIC22020-32247-33002-20000012D0000158D00000000003300210   GGSL
TXBWIC22020-32247-33020-60000105D0004186D000880000033020     GGSL
TXBWIC22020-32247-33050-30000040D0001295D000000000033050     GGSL
TXBWIC22020-32247-33160-90000090D0004923D000000000033160     GGSL
TXBWIC22020-32247-34161- 0000055D0002829D000000000034161     GGSL
TXBWIC22020-32247-35594-00000650D0004026D000150001073559430  GGSL
TXBWIC22020-32247-35605-30000099D0002292D000960000044615A    GGSL
TXBWIC22020-32247-37594-80007789D0042889D015210067573759430  GGSL
TXBWIC22020-32247-37610-50000109D0003660D000750000037610A    GGSL
TXBWIC22020-32247-38605-00000022D0000337D000040000038605D    GGSL
TXBWIC22020-32247-39181-80000005D0000125D000200000039181     GGSL
TXBWIC22020-32247-39594-60006681D0050163D014350000073959430  GGSL
TXBWIC22020-32247-39605-90000265D0004269D000000000039605     GGSL
TXBWIC22020-32247-39615-80000390D0016668D000240000039615     GGSL
TXBWIC22020-32247-42784-50001536D0004891D004740020474278430  GGSL
TXBWIC22020-32247-43851-30000006D0000067D00018000124385106   GGSL
TXBWIC22020-32247-43854-40000004D0000036D00000000004385404   GGSL
TXBWIC22020-32247-43860-50000144D0002436D00000000084386004   GGSL
TXBWIC22020-32247-44610-50000035D0001790D000000000044611A    GGSL
TXBWIC22020-32247-45651-70000720D0006075D002420000045651300  GGSL
TXBWIC22020-32247-47783-30000348D0001192D001260006074778300  GGSL
TXBWIC22020-32247-49019-10000069D0000803D000500000749019     GGSL
TXBWIC22020-32247-49024-50000109D0002309D000000000349024     GGSL
TXBWIC22020-32247-49785-50002509D0007701D011760019274978500  GGSL
TXBWIC22020-32247-50087-60000012D0000187D00060000005008710   GGSL
TXBWIC22020-32247-50089-00000040D0000844D00004000005008910   GGSL
TXBWIC22020-32247-50154-50000150D0000957D000080004845015430  GGSL
TXBWIC22020-32247-50250-40000028D0000858D000000000050250     GGSL
TXBWIC22020-32247-50524-60036346D0232517D049140113875052430  GGSL
TXBWIC22020-32247-51062-20000012D0000084D000060000051062     GGSL
TXBWIC22020-32247-51105-60001563D0018425D002450001051105     GGSL
TXBWIC22020-32247-51115-50001900D0062935D001390000051115     GGSL
TXBWIC22020-32247-52524-40000140D0001192D000000000085252430  GGSL
TXBWIC22020-32247-52784-20001386D0004219D007200011485278430  GGSL
TXBWIC22020-32247-53105-40000810D0007210D001980000653105     GGSL
TXBWIC22020-32247-53115-30000970D0022646D001020000053115     GGSL
TXBWIC22020-32247-55513-50006501D0050895D021510016175551301  GGSL
TXBWIC22020-32247-55523-40008356D0100622D012970056475552301  GGSL
TXBWIC22020-32247-55783-20000950D0004640D015190004875578300  GGSL
TXBWIC22020-32247-55863-10000110D0000727D005870000075586300  GGSL
TXBWIC22020-32247-56063-40001616D0006318D002240000045606300  GGSL
TXBWIC22020-32247-56513-40034226D0235806D052670156075651301  GGSL
TXBWIC22020-32247-56523-30104767D1097816D069310252375652301  GGSL
TXBWIC22020-32247-56783-10000032D0013368D000020000275678309  GGSL
TXBWIC22020-32247-56788-60003510D0013308D036420022875678300  GGSL
TXBWIC22020-32247-56863-00003000D0017535D015820048575686301  GGSL
TXBWIC22020-32247-60594-60002250D0014479D006400005076059430  GGSL
TXBWIC22020-32247-71060-20001576D0019040D010130015871060     GGSL
TXBWIC22020-32247-71131-90000413D0007561D002670003371131     GGSL
TXBWIC22020-32247-74150-70002820D0013112D0200401476274150    GGSL
TXBWIC22020-32247-74250-40002116D0018281D0227001584274250    GGSL
TXBWIC22020-32247-74395-20000350D0002639D000690000043959430  GGSL
TXBWIC22020-32247-74850-60000980D0016616D0090000368274850    GGSL
TXBWIC22020-32247-75902-10000126D0009232D000870000175902     GGSL
TXBWIC22020-32247-76121-50000849D0027464D004260000976121     GGSL
TXBWIC22020-32247-76232-80000240D0013542D001080000376232     GGSL
TXBWIC22020-32247-76565-70000060D0003147D000000000076565     GGSL
TXBWIC22020-32247-77160-30002826D0011960D0104200852277160    GGSL
TXBWIC22020-32247-77260-00002923D0022766D0186601320277260    GGSL
TXBWIC22020-32247-77960-90000900D0016698D0075200212277960    GGSL
TXBWIC22020-32247-95517-10000540D0002042D002230000079551750  GGSL
TXBWIC22020-32247-95597-30000144D0000643D000000000079559750  GGSL
TXBWIC22020-32247-99605-10002254D0042388D001160000099605     GGSL
TXBWIC22020-32903-00169-30000096D0000128D0036000048SLI06000E3GGSL
TXBWIC22020-32903-00224-90000012D0000088D0000000000VNP18000E2GGSL
TXBWIC22020-32903-00309-30000204D0000490D0020400012SLI10000E3GGSL
TXBWIC22020-32903-00341-30000090D0000776D0015600000SLI24000E3GGSL
TXBWIC22020-32903-00359-80000096D0000164D0067200000SLI08000E3GGSL
TXBWIC22020-32903-07519-90000024D0000344D0000000000LIA16000E2GGSL
TXBWIC22020-32903-12006-60000192D0000375D0069600096LIA06000E3GGSL
TXBWIC22020-32903-12008-00000168D0000510D0093600000LIA08000E3GGSL
TXBWIC22020-32903-12010-30000228D0001056D0048000060LIA10000E3GGSL
TXBWIC22020-32903-12012-70000143D0001046D0018000012LIA12000E3GGSL
TXBWIC22020-32903-12014-10000084D0000728D0010800024LIA14000E3GGSL
TXBWIC22020-32903-12017-20000072D0000789D0049200060LIA16000E3GGSL
TXBWIC22020-32903-12020-20000108D0002009D0015600018LIA20000E3GGSL
TXBWIC22020-32903-12024-00000030D0000738D0001200012LIA24000E3GGSL
TXBWIC22020-32903-12318-00000024D0000089D0007800000SVN18000E3GGSL
TXBWIC22020-32903-12324-10000006D0000030D0005400000SVN24000E3GGSL
TXBWIC22020-32903-12330-20000012D0000071D0000000000SVN30000E3GGSL
TXBWIC22020-32903-12712-60000048D0000225D0000000000GAB12000E3GGSL
TXBWIC22020-32903-12714-00000204D0001304D0012000036GAB14000E3GGSL
TXBWIC22020-32903-12718-80000030D0000301D0003600006GAB18000E3GGSL
TXBWIC22020-32903-12722-50000084D0001226D0008400168GAB22000E3GGSL
TXBWIC22020-32903-12818-50000084D0000632D0020400000VNP18000E3GGSL
TXBWIC22020-32903-12824-60000030D0000256D0001200012VNP24000E3GGSL
TXBWIC22020-32903-12830-70000012D0000129D0000000000VNP30000E3GGSL
TXBWIC22020-32903-50763-80000120D0000468D0019200000SLI12000E3GGSL
TXBWIC22020-32903-50802-40000072D0000308D0046800012SLI14000E3GGSL
TXBWIC22020-32903-55269-00000010D0000968D0000000000TEA30000E3GGSL
TXBWIC22020-32903-61152-60000006D0000126D0000000000TEA17000E3GGSL
TXBWIC22020-32903-63553-90000004D0000195D0000000000TEA24000E3GGSL
TXBWIC22020-32903-72518-60000136D0001270D0000000032RZ.WC2G0B9GGSL
TXBWIC22020-32903-72886-60000060D0000401D0000000000RZ.WC1G0B9GGSL
TXBWIC22020-32903-75049-20000054D0000394D0010200000SLI20000E3GGSL
TXBWIC22020-32903-75080-50000047D0000217D0043200036SLI17000E3GGSL
TXBWIC22020-32903-91323-10000021D0001043D0000000000TES20000G1GGSL
TXBWIC22020-32903-91324-80000012D0000842D0000000000TES24000G1GGSL
TXBWIC22020-33349-03110-70000259D0000342D0003701443JP310     GGSL
TXBWIC22020-33349-05082-50000032D0000091D0000000000JP506     GGSL
TXBWIC22020-33349-05618-60000040D0000197D0001600024G310      GGSL
TXBWIC22020-33349-41211-10000132D0000128D0000000132JP212     GGSL
TXBWIC22020-33349-41234-00000150D0000232D0010000000TTRAY     GGSL
TXBWIC22020-33349-41251-70000090D0000243D0006000000JS50      GGSL
TXBWIC22020-33349-41254-80000180D0000435D0000000620JS32      GGSL
TXBWIC22020-33349-41444-30000280D0000591D0002800028JP406     GGSL
TXBWIC22020-33349-41702-80000002D0000246D0000200002J4BULK    GGSL
TXBWIC22020-33349-66010-90000128D0000841D0000000000TS50HST-8 GGSL
TXBWIC22020-33349-66015-40000042D0000211D0002800000TS20HST-14GGSL
TXBWIC22020-33349-66037-60000034D0000096D0000000000J312G     GGSL
TXBWIC22020-33349-66038-30000176D0001144D0003200016J336GS    GGSL
TXBWIC22020-33349-66040-60000100D0000896D0000000000J372PROGS GGSL
TXBWIC22020-33349-66041-30000072D0000264D0000000024J3R36G    GGSL
TXBWIC22020-33349-66043-70000044D0000297D0000000011J616GS    GGSL
TXBWIC22020-33349-66044-40000130D0001399D0000000480J636GS    GGSL
TXBWIC22020-33349-66067-30000017D0000046D0000000000J410G     GGSL
TXBWIC22020-33349-66069-70000116D0000346D0000000000J4REFILL  GGSL
TXBWIC22020-33349-66070-30000024D0000112D0000000420J6R16G    GGSL
TXBWIC22020-33524-43225-50000077D0000661D0021100078MP0020    GGSL
TXBWIC22020-33524-43240-80000568D0007036D0000500012MP0020    GGSL
TXBWIC22020-33607-00001-50000060D0002116D0009600028GBA-1     GGSL
TXBWIC22020-33745-97185-40000050D0001295D000010000097185     GGSL
TXBWIC22020-34613-00002-70000882D0011849D0115000305LH002     GGSL
TXBWIC22020-34613-00003-40000489D0006594D0053000259LH003     GGSL
TXBWIC22020-34613-00004-10001011D0013531D0066000149LH004     GGSL
TXBWIC22020-34613-00005-80000007D0000114D0000300000LH005     GGSL
TXBWIC22020-34613-00006-50000955D0012720D0197100230LH006     GGSL
TXBWIC22020-34613-00013-30000024D0000186D0000000000LH013     GGSL
TXBWIC22020-34613-00014-00000024D0000186D0000000000LH014     GGSL
TXBWIC22020-34613-00015-70000096D0001395D0000000000LH015     GGSL
TXBWIC22020-34613-00022-50000004D0000104D0006000038LH022     GGSL
TXBWIC22020-34613-00025-60000006D0000096D0000000012LH025     GGSL
TXBWIC22020-34613-00029-40000002D0000029D00002000228205      GGSL
TXBWIC22020-34613-00043-00000006D0000096D0000000000LH043     GGSL
TXBWIC22020-34613-00068-30000024D0000293D000000000668WP      GGSL
TXBWIC22020-34613-00328-80000012D0000051D0000000000328       GGSL
TXBWIC22020-34613-00332-50000048D0000132D0000000000332       GGSL
TXBWIC22020-34613-00337-00000036D0000088D0000000000337       GGSL
TXBWIC22020-34613-00446-90000036D0000087D0000000000446       GGSL
TXBWIC22020-34613-00451-30000048D0000138D0000000000451       GGSL
TXBWIC22020-34613-00453-70000003D0000187D0000000002453       GGSL
TXBWIC22020-34613-00497-10000001D0000035D0000000000497       GGSL
TXBWIC22020-34613-00499-50000002D0000159D0000000000499       GGSL
TXBWIC22020-34613-00503-90000002D0000045D0000000000503       GGSL
TXBWIC22020-34613-00540-40000048D0000224D00001001135-40HD    GGSL
TXBWIC22020-34613-00550-30000084D0000251D0000000000550BL     GGSL
TXBWIC22020-34613-00551-00000060D0000169D0000000000551BL     GGSL
TXBWIC22020-34613-00552-70000168D0000457D0000000000552BL     GGSL
TXBWIC22020-34613-00553-40000228D0000616D0000000012553bl     GGSL
TXBWIC22020-34613-00555-80000036D0000101D0000000036555BL     GGSL
TXBWIC22020-34613-00640-10000042D0000224D00000000846-40HD    GGSL
TXBWIC22020-34613-00805-40000008D0000123D0001100057SS5       GGSL
TXBWIC22020-34613-01150-40000500D0001265D00120007601150PDQ   GGSL
TXBWIC22020-34613-01161-00000120D0000392D00000003241161PDQ   GGSL
TXBWIC22020-34613-01503-50000036D0000056D00000000001503      GGSL
TXBWIC22020-34613-01505-90000024D0000036D00000000001505      GGSL
TXBWIC22020-34613-01903-60000024D0000118D00000000001903      GGSL
TXBWIC22020-34613-01904-30000012D0000059D00024000121904      GGSL
TXBWIC22020-34613-01908-10000024D0000118D00000000121908      GGSL
TXBWIC22020-34613-03110-60000036D0000242D00030000003110BG    GGSL
TXBWIC22020-34613-03378-00000024D0000203D00000000363378      GGSL
TXBWIC22020-34613-03398-80000006D0000064D00006000003398      GGSL
TXBWIC22020-34613-03603-30000042D0000168D0000000024U3603     GGSL
TXBWIC22020-34613-04803-60000087D0000379D0024900114U4803     GGSL
TXBWIC22020-34613-04830-20000024D0000118D00000000064830      GGSL
TXBWIC22020-34613-04850-00000012D0000058D00036000243104BL    GGSL
TXBWIC22020-34613-04856-20000072D0000177D00000000008131BL    GGSL
TXBWIC22020-34613-04859-30000006D0000070D00000000003378BL    GGSL
TXBWIC22020-34613-04864-70000012D0000093D0000000000LH016BL   GGSL
TXBWIC22020-34613-04879-10000030D0000186D00000000004879BL    GGSL
TXBWIC22020-34613-04883-80000060D0000670D00000000004883BL    GGSL
TXBWIC22020-34613-05012-10000024D0000057D00000000005012BL    GGSL
TXBWIC22020-34613-05013-80000024D0000256D00000000005013BL    GGSL
TXBWIC22020-34613-05017-60000001D0000383D00000000005017BLD   GGSL
TXBWIC22020-34613-05826-40000018D0000154D00024000005826      GGSL
TXBWIC22020-34613-06811-90000006D0000099D00000000006811      GGSL
TXBWIC22020-34613-07160-70000048D0000235D00000000007160BL    GGSL
TXBWIC22020-34613-07161-40000036D0000176D00000000007161BL    GGSL
TXBWIC22020-34613-07758-60000036D0000273D00000018607758BL    GGSL
TXBWIC22020-34613-07759-30000024D0000182D00000000007759BL    GGSL
TXBWIC22020-34613-07835-40000036D0000234D00006000002110BL    GGSL
TXBWIC22020-34613-09570-20000060D0000507D00000000009570      GGSL
TXBWIC22020-34613-09580-10000012D0000029D00000000609580BL    GGSL
TXBWIC22020-34613-09628-00000096D0000760D00000000009628      GGSL
TXBWIC22020-34613-09629-70000060D0000667D00000000009629      GGSL
TXBWIC22020-34613-12060-20000054D0000456D00000000002060N     GGSL
TXBWIC22020-34613-18050-70000012D0000069D00000000008050BL    GGSL
TXBWIC22020-34613-34009-30000024D0000280D00000000002130BG    GGSL
TXBWIC22020-34613-70034-70000012D0000136D000000000070034BG   GGSL
TXBWIC22020-34613-70052-10000690D0008023D000120223270052     GGSL
TXBWIC22020-34613-70731-50000048D0000159D000000000070008 BL  GGSL
TXBWIC22020-34613-70740-70000006D0000029D000000000070740BL   GGSL
TXBWIC22020-34613-71086-50000051D0000403D0000000001LH015BL   GGSL
TXBWIC22020-34613-95006-30000030D0000240D001200015095006     GGSL
TXBWIC22020-34613-96006-20000012D0000114D000000006696006     GGSL
TXBWIC22020-35307-00782-70000024D0000212D0000000000782       GGSL
TXBWIC22020-35307-00803-90000060D0000105D0000000012803       GGSL
TXBWIC22020-35307-00808-40000072D0000169D0000000012808       GGSL
TXBWIC22020-35307-00812-10000048D0000113D0000000000812       GGSL
TXBWIC22020-35307-00817-60000036D0000083D0000000000817       GGSL
TXBWIC22020-35307-00818-30000168D0000295D0000000012818       GGSL
TXBWIC22020-35307-00819-00000060D0000115D0000000060819       GGSL
TXBWIC22020-35307-00820-60000120D0000204D0003600396820       GGSL
TXBWIC22020-35307-00826-80000144D0000274D0004800348826       GGSL
TXBWIC22020-35307-00827-50000060D0000115D0000000012827       GGSL
TXBWIC22020-35307-00828-20000048D0000112D0000000012828       GGSL
TXBWIC22020-35307-00834-30000012D0000035D0000000000834       GGSL
TXBWIC22020-35307-00835-00000036D0000204D0001200000835       GGSL
TXBWIC22020-35307-00839-80000084D0000259D0000000024839       GGSL
TXBWIC22020-35307-00840-40000060D0000141D0000000000840       GGSL
TXBWIC22020-35307-00841-10000060D0000105D0000000012841       GGSL
TXBWIC22020-35307-00843-50000036D0000104D0000000000843       GGSL
TXBWIC22020-35307-00844-20000108D0000254D0002400000844       GGSL
TXBWIC22020-35307-00845-90000024D0000094D0000000000845       GGSL
TXBWIC22020-35307-00846-30000084D0000297D0006000048846       GGSL
TXBWIC22020-35307-00848-00001236D0002550D0002400048848       GGSL
TXBWIC22020-35307-00857-20000036D0000192D0000000000857       GGSL
TXBWIC22020-35307-00859-60000012D0000037D0000000000859       GGSL
TXBWIC22020-35307-00860-20000012D0000084D0000000000860       GGSL
TXBWIC22020-35307-00861-90000024D0000070D0006000204861       GGSL
TXBWIC22020-35307-00862-60000024D0000070D0000000000862       GGSL
TXBWIC22020-35307-00864-00000084D0000322D0000000012864       GGSL
TXBWIC22020-35307-00865-70000024D0000084D0000000000865       GGSL
TXBWIC22020-35307-00869-50000048D0000424D0000000012869       GGSL
TXBWIC22020-35307-00874-90000912D0001288D0001200048874       GGSL
TXBWIC22020-35307-00875-60000012D0000042D0000000000875       GGSL
TXBWIC22020-35307-00877-00000012D0000017D0000000000877       GGSL
TXBWIC22020-35307-00916-60000001D0000057D0000000000916       GGSL
TXBWIC22020-35307-00967-80000012D0000025D0000000000967       GGSL
TXBWIC22020-35307-00973-90000012D0000089D0000000000973       GGSL
TXBWIC22020-35307-00979-10000072D0000084D0000000000979       GGSL
TXBWIC22020-35307-00985-20000002D0000114D0000000000985       GGSL
TXBWIC22020-35307-00987-60000012D0000046D0000000000987       GGSL
TXBWIC22020-35307-01030-80000024D0000048D00000000001030      GGSL
TXBWIC22020-35307-01040-70000024D0000071D00000000001040      GGSL
TXBWIC22020-35307-01250-00000144D0000518D00000000001250      GGSL
TXBWIC22020-35307-01601-00000108D0001438D00024000661601      GGSL
TXBWIC22020-35307-01612-60000072D0000325D00156003121612      GGSL
TXBWIC22020-35307-01618-80000006D0000037D00018000061618      GGSL
TXBWIC22020-35307-01630-00000012D0000086D00000000061630      GGSL
TXBWIC22020-35307-01635-50000038D0000617D00020000061635      GGSL
TXBWIC22020-35307-01638-60000012D0000058D00000000001638      GGSL
TXBWIC22020-35307-01640-90000004D0000166D00000000001640      GGSL
TXBWIC22020-35307-01646-10000002D0000125D00000000001646      GGSL
TXBWIC22020-35307-01810-60000072D0000386D00192001171810      GGSL
TXBWIC22020-35307-01815-10000094D0000682D00024000481815      GGSL
TXBWIC22020-35307-01817-50000030D0000250D00000000121817-6    GGSL
TXBWIC22020-35307-01818-20000018D0000198D00000000061818-6    GGSL
TXBWIC22020-35307-01820-50000020D0000260D00046000601820      GGSL
TXBWIC22020-35307-01825-00000169D0002066D00042006481825      GGSL
TXBWIC22020-35307-01835-90000001D0000075D00000000001835      GGSL
TXBWIC22020-35307-01840-30000024D0000388D00036000181840      GGSL
TXBWIC22020-35307-90858-20000012D0000067D0000000000858       GGSL
TXBWIC22020-35307-90872-80000012D0000039D0000000000872       GGSL
TXBWIC22020-35355-00000-00000001D0000262D00000000024960BLD   GGSL
TXBWIC22020-35355-00072-60000002D0000170D0003200019TP72      GGSL
TXBWIC22020-35355-00325-30000035D0000178D0033400158325       GGSL
TXBWIC22020-35355-00342-00000024D0000059D0000000000342       GGSL
TXBWIC22020-35355-00802-90000017D0000272D0000000079SS2       GGSL
TXBWIC22020-35355-00803-60000017D0000304D0000800097SS3       GGSL
TXBWIC22020-35355-00804-30000013D0000226D0000600044SS4       GGSL
TXBWIC22020-35355-00806-70000006D0000088D0000800045SS6       GGSL
TXBWIC22020-35355-00807-40000003D0000170D0000100000SS7-HD    GGSL
TXBWIC22020-35355-00924-80000347D0003901D0007200172924       GGSL
TXBWIC22020-35355-01151-70000040D0000198D00000001301151PDQ   GGSL
TXBWIC22020-35355-01160-90000030D0000074D00040003701160      GGSL
TXBWIC22020-35355-03105-80000024D0000245D00408000243105      GGSL
TXBWIC22020-35355-03108-90000078D0000668D00000000183108      GGSL
TXBWIC22020-35355-05939-70000024D0000352D00006000005939      GGSL
TXBWIC22020-35355-05945-80001038D0017297D00000003905945      GGSL
TXBWIC22020-35355-70201-90000025D0000526D000000002070201     GGSL
TXBWIC22020-35355-94006-00000006D0000038D000000000694006     GGSL
TXBWIC22020-36348-00610-70000180D0000914D00331000000610      GGSL
TXBWIC22020-36348-00645-90000094D0001317D0012700116645       GGSL
TXBWIC22020-36348-00745-60000009D0000226D00014000020745      GGSL
TXBWIC22020-36348-01020-30000002D0000031D00002000001020      GGSL
TXBWIC22020-36348-01045-60000002D0000142D00003000001045      GGSL
TXBWIC22020-36348-01078-40000010D0000380D00025000101078      GGSL
TXBWIC22020-36348-01079-10000028D0001517D00109000341079      GGSL
TXBWIC22020-36348-01085-20000004D0000246D00000000001085      GGSL
TXBWIC22020-36348-13769-60000006D0000011D0000000000M137      GGSL
TXBWIC22020-36434-00000-00000404D0010181D006720001810-12420  GGSL
TXBWIC22020-36434-07020-00000006D0000099D00000000001017020   GGSL
TXBWIC22020-36434-10000-00000030D0000394D001500000010-14510  GGSL
TXBWIC22020-36434-10012-20000120D0001590D000600000010-10012  GGSL
TXBWIC22020-36434-11000-80000231D0002510D006840003160-11000  GGSL
TXBWIC22020-36434-12340-40000054D0000114D00000000126012340   GGSL
TXBWIC22020-36434-12342-80000078D0000533D004480001760-12342  GGSL
TXBWIC22020-36434-12343-50000028D0000251D002470000360-12343  GGSL
TXBWIC22020-36434-12345-90000072D0000774D002650019210-12345  GGSL
TXBWIC22020-36434-12346-60000315D0001541D010560009060-12346  GGSL
TXBWIC22020-36434-12348-00000032D0000288D000000001610-12348  GGSL
TXBWIC22020-36434-12349-70000024D0000098D001610000660-12349  GGSL
TXBWIC22020-36434-12351-00000018D0000078D00000000006012351   GGSL
TXBWIC22020-36434-12353-40000141D0002519D008890002860-12353  GGSL
TXBWIC22020-36434-12354-10000030D0000200D001090001210-12354  GGSL
TXBWIC22020-36434-12355-80000089D0000673D002590003210-12355  GGSL
TXBWIC22020-36434-12356-50000195D0001689D002770004410-12356  GGSL
TXBWIC22020-36434-12357-20000043D0000409D002210000310-12357  GGSL
TXBWIC22020-36434-12367-10000012D0000105D00696000001012367   GGSL
TXBWIC22020-36434-12380-00000006D0000067D000000000060-12380  GGSL
TXBWIC22020-36434-12430-40000006D0000108D00000000066012430   GGSL
TXBWIC22020-36434-12440-30000036D0000352D00000000006012440   GGSL
TXBWIC22020-36434-12625-20000018D0000111D000000003660-12625  GGSL
TXBWIC22020-36434-12700-60000012D0000086D001200048010-12700  GGSL
TXBWIC22020-36434-12710-50000096D0000672D002640000010-12710  GGSL
TXBWIC22020-36434-12720-40000240D0001486D001200006010-12720  GGSL
TXBWIC22020-36434-13600-50000024D0000463D000360010810-13600  GGSL
TXBWIC22020-36434-13610-20000036D0000543D001080008410-13610  GGSL
TXBWIC22020-36434-14800-80000228D0003966D000840006010-14800  GGSL
TXBWIC22020-36434-14801-80000012D0000225D000000000060-14801  GGSL
TXBWIC22020-36434-14860-20000168D0002341D000000000010-14860  GGSL
TXBWIC22020-36434-15050-90000084D0001350D002400000610-15050  GGSL
TXBWIC22020-36434-15080-30000018D0000387D000540001210-15080  GGSL
TXBWIC22020-36434-15105-60000006D0000241D000500000415105     GGSL
TXBWIC22020-36434-17000-20000228D0009522D00000000721017000   GGSL
TXBWIC22020-36434-17061-30000010D0000064D00150000001017061   GGSL
TXBWIC22020-36434-22310-40000018D0000099D00012000006022310   GGSL
TXBWIC22020-36434-22311-10000012D0000066D00000000006022311   GGSL
TXBWIC22020-36434-22316-60000006D0000051D00000000006022316   GGSL
TXBWIC22020-36434-22317-30000006D0000051D00000000006022317   GGSL
TXBWIC22020-36434-22318-00000382D0001735D010490002260-22318  GGSL
TXBWIC22020-36434-22345-60000024D0000250D000000000010-22345  GGSL
TXBWIC22020-36434-22373-90000012D0000181D00000000606022373   GGSL
TXBWIC22020-36434-22626-60000072D0000908D004020010160-22626  GGSL
TXBWIC22020-36434-22731-70000073D0000774D002250001960-22731  GGSL
TXBWIC22020-36434-22732-40000038D0000557D007010002760-22732  GGSL
TXBWIC22020-36434-28010-70000300D0002232D006600062410-28010  GGSL
TXBWIC22020-36434-28019-20000002D0000191D000000000010-28019  GGSL
TXBWIC22020-36434-32700-00000685D0005402D030390146410-32700  GGSL
TXBWIC22020-36434-34500-10000444D0004378D004440030010-34500  GGSL
TXBWIC22020-36434-60123-00000024D0033144D000000000560123     GGSL
TXBWIC22020-36434-60133-90000002D0003100D000000000060133     GGSL
TXBWIC22020-36434-65095-50000015D0017642D000000001965095     GGSL
TXBWIC22020-36434-82342-70000040D0000534D002070000260-82342  GGSL
TXBWIC22020-36865-12250-20015360D0036532D022800072071140180  GGSL
TXBWIC22020-36865-14511-20003480D0006911D009000000071451180  GGSL
TXBWIC22020-36865-24511-90003180D0009828D018600006072451180  GGSL
TXBWIC22020-37321-00020-40000024D0000233D0000000048020       GGSL
TXBWIC22020-37321-00022-80000096D0000617D0085100027022       GGSL
TXBWIC22020-37321-00023-50000188D0003263D0000000340023       GGSL
TXBWIC22020-37321-00024-20000459D0005968D0053200216024       GGSL
TXBWIC22020-37321-00025-90000228D0001725D0000000180025       GGSL
TXBWIC22020-37321-00026-60000372D0004866D0066600612026       GGSL
TXBWIC22020-37321-00050-10000216D0000205D0002400000050       GGSL
TXBWIC22020-37321-00051-80000054D0000603D0000000000051       GGSL
TXBWIC22020-37321-00061-70000024D0000164D0000000504061       GGSL
TXBWIC22020-37321-00065-50000012D0000057D0000000000065       GGSL
TXBWIC22020-37321-00066-20000024D0000260D0000000360066       GGSL
TXBWIC22020-37321-00068-60000141D0000661D0044800408068       GGSL
TXBWIC22020-37321-00069-30000492D0005884D0088500072069       GGSL
TXBWIC22020-37321-00070-90000096D0001319D0038700384070       GGSL
TXBWIC22020-37321-00081-50000084D0000496D0000000240081       GGSL
TXBWIC22020-37321-00097-60000036D0000177D0001200000097       GGSL
TXBWIC22020-37321-00099-00000252D0001516D0000000180099       GGSL
TXBWIC22020-37321-00105-80000312D0000854D0027600372105       GGSL
TXBWIC22020-37321-00106-50000324D0000914D0012000336106       GGSL
TXBWIC22020-37321-00107-20000276D0000767D0031200576107       GGSL
TXBWIC22020-37321-00108-90000372D0001026D0078001152108       GGSL
TXBWIC22020-37321-00110-20000040D0000134D0000000000110       GGSL
TXBWIC22020-37321-00112-60000048D0000144D0000000240112       GGSL
TXBWIC22020-37321-00114-00000016D0000048D0000000000114       GGSL
TXBWIC22020-37321-00116-40000040D0000125D0000000264116       GGSL
TXBWIC22020-37321-00120-10000192D0001005D0000000132120       GGSL
TXBWIC22020-37321-00121-80000112D0000996D0009600080121       GGSL
TXBWIC22020-37321-00123-20000126D0000460D0260400024123       GGSL
TXBWIC22020-37321-00127-00000204D0001537D0018600468127       GGSL
TXBWIC22020-37321-00141-60000048D0000206D0033600192141       GGSL
TXBWIC22020-37321-00142-30000016D0000144D00000001841428      GGSL
TXBWIC22020-37321-00148-50000024D0000232D0000000948148       GGSL
TXBWIC22020-37321-00150-80000072D0001053D0188701368150       GGSL
TXBWIC22020-37321-00166-90000201D0001093D0010800120166       GGSL
TXBWIC22020-37321-00167-60000030D0000174D0001200012167       GGSL
TXBWIC22020-37321-00171-30000036D0000314D0000000024171       GGSL
TXBWIC22020-37321-00196-60000048D0000257D0000000012196       GGSL
TXBWIC22020-37321-00197-30000131C0000257C0000000072197       GGSL
TXBWIC22020-37321-00198-00000024D0000244D0000000000198       GGSL
TXBWIC22020-37321-00202-40000436D0004250D0021000126202       GGSL
TXBWIC22020-37321-00203-10000354D0004928D0018900114203       GGSL
TXBWIC22020-37321-00204-80000006D0000154D0000000000204       GGSL
TXBWIC22020-37321-00205-50000016D0000737D0000000000205       GGSL
TXBWIC22020-37321-00210-90000120D0000743D0023200042210       GGSL
TXBWIC22020-37321-00211-60000267D0002243D0043800276211       GGSL
TXBWIC22020-37321-00212-30000180D0003220D0000000180212       GGSL
TXBWIC22020-37321-00213-00000300D0003043D0037200048213       GGSL
TXBWIC22020-37321-00214-70000534D0002704D0054000066214       GGSL
TXBWIC22020-37321-00216-10000144D0002157D0004800324216       GGSL
TXBWIC22020-37321-00217-80000072D0000673D0001200000217       GGSL
TXBWIC22020-37321-00218-50000006D0000081D00000000002186      GGSL
TXBWIC22020-37321-00221-50000036D0000189D0000000012221       GGSL
TXBWIC22020-37321-00225-30000012D0000063D0000000000225       GGSL
TXBWIC22020-37321-00227-70000072D0000805D0000000144227       GGSL
TXBWIC22020-37321-00230-70000018D0000147D00000000062306      GGSL
TXBWIC22020-37321-00238-30000126D0001024D0010800534238       GGSL
TXBWIC22020-37321-00250-50000306D0001527D0051901146250       GGSL
TXBWIC22020-37321-00252-90000408D0004416D0031700078252       GGSL
TXBWIC22020-37321-00253-60000336D0006025D0020400135253       GGSL
TXBWIC22020-37321-00255-00000288D0005603D0066600192255       GGSL
TXBWIC22020-37321-00257-40000078D0000328D0027500444257       GGSL
TXBWIC22020-37321-00258-10000024D0000148D00000000002586      GGSL
TXBWIC22020-37321-00272-70000018D0000074D00000000002726      GGSL
TXBWIC22020-37321-00274-10000383D0002213D0041500624274       GGSL
TXBWIC22020-37321-00276-50000024D0000313D0000000120276       GGSL
TXBWIC22020-37321-00277-20000012D0000413D0000000000277       GGSL
TXBWIC22020-37321-00285-70000060D0000323D0000000000285       GGSL
TXBWIC22020-37321-00299-40000036D0000300D0000000000299       GGSL
TXBWIC22020-37321-00301-40000024D0000193D0000000000301       GGSL
TXBWIC22020-37321-00307-60000096D0000400D0052200744307       GGSL
TXBWIC22020-37321-00309-00000087D0001357D0025800066309       GGSL
TXBWIC22020-37321-00310-50000012D0000340D0000000000310       GGSL
TXBWIC22020-37321-00311-30000006D0000170D0000000000311       GGSL
TXBWIC22020-37321-00312-00000048D0000876D0000000000312       GGSL
TXBWIC22020-37321-00330-40000144D0001240D0018300156330       GGSL
TXBWIC22020-37321-00331-10000111D0001576D0028200060331       GGSL
TXBWIC22020-37321-00332-80000008D0000372D0000000000332       GGSL
TXBWIC22020-37321-00363-20000156D0000620D0000000120363       GGSL
TXBWIC22020-37321-00370-00000012D0000050D0000000000370       GGSL
TXBWIC22020-37321-00371-70000018D0000097D00000000003716      GGSL
TXBWIC22020-37321-00372-40000096D0000826D0000000096372       GGSL
TXBWIC22020-37321-00404-20000036D0000273D0000000024404       GGSL
TXBWIC22020-37321-00411-00000060D0000200D0000000000411       GGSL
TXBWIC22020-37321-00412-70000048D0000245D0000000000412       GGSL
TXBWIC22020-37321-00413-40000964D0011212D0000000000413       GGSL
TXBWIC22020-37321-00420-20000028D0001560D0022500585420       GGSL
TXBWIC22020-37321-00426-40000108D0001024D0034200180426       GGSL
TXBWIC22020-37321-00428-80000432D0001608D0036900576428       GGSL
TXBWIC22020-37321-00429-50000015D0000263D0002700054429       GGSL
TXBWIC22020-37321-00442-40000408D0002488D0013200015442       GGSL
TXBWIC22020-37321-00443-10000183D0001879D0017500024443       GGSL
TXBWIC22020-37321-00506-30000048D0000205D00312003365066      GGSL
TXBWIC22020-37321-00543-80000042D0000135D00366000185436      GGSL
TXBWIC22020-37321-00544-50000096D0000533D00096000125446      GGSL
TXBWIC22020-37321-00549-00000012D0000099D0028800120549       GGSL
TXBWIC22020-37321-00552-00000036D0000392D0017400366551       GGSL
TXBWIC22020-37321-00553-70000031D0000916D0015800006553       GGSL
TXBWIC22020-37321-00564-30000072D0000692D00528004205646      GGSL
TXBWIC22020-37321-00571-10000006D0000051D0013500012571       GGSL
TXBWIC22020-37321-00573-50000087D0000222D0009000030573       GGSL
TXBWIC22020-37321-00577-30000056D0000546D0000000020574       GGSL
TXBWIC22020-37321-00603-90000004D0000048D0002000000603       GGSL
TXBWIC22020-37321-00609-10000039D0000387D0000000000609       GGSL
TXBWIC22020-37321-00611-40000068D0001455D0042800012611       GGSL
TXBWIC22020-37321-00612-10000180D0000801D00000001800612      GGSL
TXBWIC22020-37321-00613-80000180D0002007D00000001800613      GGSL
TXBWIC22020-37321-00629-90000156D0000482D0037200000629       GGSL
TXBWIC22020-37321-00631-20010658D0027985D1745803516631       GGSL
TXBWIC22020-37321-00651-00000004D0000047D00004000000651      GGSL
TXBWIC22020-37321-00652-70000060D0000297D00228001206526      GGSL
TXBWIC22020-37321-00655-80000150D0000947D00477007626556      GGSL
TXBWIC22020-37321-00680-00000084D0000745D00900000906806      GGSL
TXBWIC22020-37321-00685-50000246D0002689D0023600000685       GGSL
TXBWIC22020-37321-00687-90000012D0000143D0000000192687       GGSL
TXBWIC22020-37321-00688-60000066D0000396D0003600000688       GGSL
TXBWIC22020-37321-00690-90000378D0003776D0030300012690       GGSL
TXBWIC22020-37321-00691-60000048D0000398D00236000366914      GGSL
TXBWIC22020-37321-00692-30000878D0009352D0098600177692150    GGSL
TXBWIC22020-37321-00695-40000012D0000064D0000000000695       GGSL
TXBWIC22020-37321-00705-00000012D0000074D0000000000705       GGSL
TXBWIC22020-37321-00728-90000024D0000306D0000000000728       GGSL
TXBWIC22020-37321-00752-40000024D0000164D0006000000752       GGSL
TXBWIC22020-37321-00753-10000012D0000113D0000000000753       GGSL
TXBWIC22020-37321-00754-80000008D0000220D0001600000754       GGSL
TXBWIC22020-37321-00757-90000012D0000048D0000000000757       GGSL
TXBWIC22020-37321-00758-60000024D0000172D0000000000758       GGSL
TXBWIC22020-37321-00771-50000168D0000869D0004500045771       GGSL
TXBWIC22020-37321-00772-20000012D0000101D0000000000772       GGSL
TXBWIC22020-37321-00775-30000288D0001598D0105300843775       GGSL
TXBWIC22020-37321-00777-70000111D0001070D0009900072777       GGSL
TXBWIC22020-37321-00779-10000108D0000873D0029400240779       GGSL
TXBWIC22020-37321-00784-50000048D0000153D0032400024784       GGSL
TXBWIC22020-37321-00786-90001206D0004221D0090001200786       GGSL
TXBWIC22020-37321-00788-30000024D0000144D0000000000788       GGSL
TXBWIC22020-37321-00789-00000492D0003180D0068600390791       GGSL
TXBWIC22020-37321-00803-30000042D0000394D00012000008036      GGSL
TXBWIC22020-37321-00807-10000104D0002294D0000000092807       GGSL
TXBWIC22020-37321-00811-80000445D0005186D0071400102811       GGSL
TXBWIC22020-37321-00813-20000150D0002153D0028200258813       GGSL
TXBWIC22020-37321-00814-90000018D0000414D0000000030814       GGSL
TXBWIC22020-37321-00857-60000216D0001762D0085200012857       GGSL
TXBWIC22020-37321-00858-30000048D0000652D0000000012858       GGSL
TXBWIC22020-37321-00862-00000351D0004522D0010200024862       GGSL
TXBWIC22020-37321-00866-80000006D0000088D0000000354866       GGSL
TXBWIC22020-37321-00870-50000156D0001234D0000000024870       GGSL
TXBWIC22020-37321-00871-20000009D0000085D00018002438719      GGSL
TXBWIC22020-37321-00875-00000111D0001209D0024000000875       GGSL
TXBWIC22020-37321-00880-40000159D0001914D0029100156880       GGSL
TXBWIC22020-37321-00881-10000072D0001536D0000000000881       GGSL
TXBWIC22020-37321-00883-50000144D0000720D0030300648883       GGSL
TXBWIC22020-37321-00892-70000084D0000839D0007201356892       GGSL
TXBWIC22020-37321-00897-20000036D0000191D0000000000897       GGSL
TXBWIC22020-37321-00903-00000012D0000074D0000000204903       GGSL
TXBWIC22020-37321-00904-70000072D0000605D0000000000904       GGSL
TXBWIC22020-37321-00905-40000012D0000166D0001200000905       GGSL
TXBWIC22020-37321-00908-50000006D0000059D00000000009086      GGSL
TXBWIC22020-37321-00925-20000774D0002325D0081600930925       GGSL
TXBWIC22020-37321-00939-90000084D0000898D0066000492939       GGSL
TXBWIC22020-37321-00941-20000693D0007119D0180900189941       GGSL
TXBWIC22020-37321-00947-40000054D0000429D0000000018947       GGSL
TXBWIC22020-37321-00951-10000474D0002063D0003300891951       GGSL
TXBWIC22020-37321-00952-80000221D0001174D0007500012952       GGSL
TXBWIC22020-37321-00969-60000012D0000076D0000000192969       GGSL
TXBWIC22020-37321-00978-80000018D0000106D0000000144978       GGSL
TXBWIC22020-37321-00982-50000204D0000847D0021900072982       GGSL
TXBWIC22020-37321-00987-00000291D0002515D0074500120987       GGSL
TXBWIC22020-37321-00992-40000060D0000531D0000000120992       GGSL
TXBWIC22020-37321-01971-80000102C0000531C00000000241971      GGSL
TXBWIC22020-37321-01972-50000048C0000531C00000000121972      GGSL
TXBWIC22020-37321-02021-90000036D0000533D00000000422021      GGSL
TXBWIC22020-37321-02061-50000036D0000612D00000000242061      GGSL
TXBWIC22020-37321-02071-40000012D0000362D00000000002071      GGSL
TXBWIC22020-37321-02360-90000099D0000708D00255001382360      GGSL
TXBWIC22020-37321-02361-60000022D0002473D00069002462361      GGSL
TXBWIC22020-37321-02362-30000016D0000300D00000000002362      GGSL
TXBWIC22020-37321-02600-60000006D0000072D00000000002600      GGSL
TXBWIC22020-37321-02601-30000059D0001191D00000002762601      GGSL
TXBWIC22020-37321-02602-00000048D0000261D00006004262602      GGSL
TXBWIC22020-37321-02603-70000012D0000145D00000000002603      GGSL
TXBWIC22020-37321-02604-40000012D0000212D00000001652604      GGSL
TXBWIC22020-37321-02608-20000016D0000382D00000000002608      GGSL
TXBWIC22020-37321-02610-50000030D0000180D00000000002610      GGSL
TXBWIC22020-37321-02611-20000042D0000537D00000000002611      GGSL
TXBWIC22020-37321-02612-90000021D0000320D00000003842612      GGSL
TXBWIC22020-37321-02613-60000006D0000055D00000000002613      GGSL
TXBWIC22020-37321-02615-00000018D0000345D00000000002615      GGSL
TXBWIC22020-37321-02761-40000018D0000345D00000000062761      GGSL
TXBWIC22020-37321-05121-30000012D0000067D00000000005121      GGSL
TXBWIC22020-37321-05131-20000008D0000110D00000000005131      GGSL
TXBWIC22020-37321-05612-60000384D0003269D00697004625611      GGSL
TXBWIC22020-37321-05710-90000084D0000518D00081001205710      GGSL
TXBWIC22020-37321-05712-30000141D0001374D00042000005712      GGSL
TXBWIC22020-37321-05714-70000008D0000258D00000000325714      GGSL
TXBWIC22020-37321-07458-80000048D0000820D00084000007458      GGSL
TXBWIC22020-37321-07462-50000016D0000616D00000000007462      GGSL
TXBWIC22020-37321-07497-70000012D0000050D00000000007497      GGSL
TXBWIC22020-37321-07498-40000004D0000043D00000000007498      GGSL
TXBWIC22020-37321-08751-90000010D0000523D00000001208751      GGSL
TXBWIC22020-37321-08752-60000036D0000414D00039000608752      GGSL
TXBWIC22020-37321-09534-70000141D0001536D001370033395349     GGSL
TXBWIC22020-37321-45100-60000024D0000111D000000000045100     GGSL
TXBWIC22020-37321-45602-50000012D0000062D000000000045602     GGSL
TXBWIC22020-37321-45672-80000024D0000160D000000000045672     GGSL
TXBWIC22020-37321-46125-80000020D0000038D000000001046125     GGSL
TXBWIC22020-37321-46126-50002100D0000343D029000000046126     GGSL
TXBWIC22020-37321-46172-20000048D0000200D000000000046172     GGSL
TXBWIC22020-37321-46173-90000003D0000073D000000000046173     GGSL
TXBWIC22020-37321-46178-40000012D0000159D000000001246178     GGSL
TXBWIC22020-37321-46180-70000012D0000072D000000000046180     GGSL
TXBWIC22020-37321-46183-80000018D0000134D0001500000691       GGSL
TXBWIC22020-37321-46190-60000120D0000390D001440000046190     GGSL
TXBWIC22020-37321-46400-60000024D0000074D000000000046400     GGSL
TXBWIC22020-37321-46401-30000024D0000150D000000001246401     GGSL
TXBWIC22020-37321-46406-80000050D0000331D003500001646406     GGSL
TXBWIC22020-37321-46431-00000008D0000364D000000000046431     GGSL
TXBWIC22020-37321-46640-60000024D0000132D000000001246640     GGSL
TXBWIC22020-37321-60224-80000255D0003461D000020001060412     GGSL
TXBWIC22020-37321-60251-40000010D0000138D000000000060252     GGSL
TXBWIC22020-37321-60360-30000827D0008687D002000000060362     GGSL
TXBWIC22020-37321-60400-60000100D0001312D000700211960402     GGSL
TXBWIC22020-37321-60414-30000146D0005942D000000003660415     GGSL
TXBWIC22020-37321-60424-20000045D0001877D000000001160425     GGSL
TXBWIC22020-37321-60430-30000005D0000062D000280001060432     GGSL
TXBWIC22020-37321-60460-00000153D0001890D000000001660462     GGSL
TXBWIC22020-37321-60464-80000005D0000158D000150000060465     GGSL
TXBWIC22020-37321-60476-10001862D0022429D024290575860478     GGSL
TXBWIC22020-37321-60514-00000374D0004238D030960140860516     GGSL
TXBWIC22020-37321-60613-00000021D0000178D000000000060613     GGSL
TXBWIC22020-37321-60728-10000014D0000177D000000000060730     GGSL
TXBWIC22020-38313-00000-00001030C0000177C0000400000MR 9236   GGSL
TXBWIC22020-38313-00005-90000038D0000782D0000300002GS 6750D  GGSL
TXBWIC22020-38313-00008-00000304D0005193D0043200060BP 3130   GGSL
TXBWIC22020-38313-00060-80000555D0009878D0171300540BP 3160   GGSL
TXBWIC22020-38313-00080-60000309D0006446D0105300675BP 3180D  GGSL
TXBWIC22020-38313-00081-30000114D0001040D0000000000AC 7220   GGSL
TXBWIC22020-38313-00217-60000011D0000198D0003400001FS 4350   GGSL
TXBWIC22020-38313-00524-50000012D0000261D0000000000SL 3310   GGSL
TXBWIC22020-38313-00555-90000006D0000076D0000000000GS 3750D  GGSL
TXBWIC22020-38313-00700-30000006D0000150D0000000000UT 70000  GGSL
TXBWIC22020-38313-00830-70000056D0001712D0009700048BP 6250   GGSL
TXBWIC22020-38313-01010-20001344D0006648D0195603846CT 3010I  GGSL
TXBWIC22020-38313-01020-10000384D0001884D0010200084CT 3020I  GGSL
TXBWIC22020-38313-01030-00000090D0000454D0043200126CT 3030I  GGSL
TXBWIC22020-38313-01040-90000012D0000058D0001200000CT 3040I  GGSL
TXBWIC22020-38313-03040-70000012D0000095D0000000000GT 3040   GGSL
TXBWIC22020-38313-03050-60000006D0000047D0009600024GT 3050   GGSL
TXBWIC22020-38313-03060-50000012D0000107D0012000000GT 3060   GGSL
TXBWIC22020-38313-03080-30000018D0000135D0011400324GT 3080   GGSL
TXBWIC22020-38313-03090-20000006D0000047D0000000000GT 3090   GGSL
TXBWIC22020-38313-03214-20000120D0001231D0016200024BP 3214D  GGSL
TXBWIC22020-38313-03244-90000030D0000597D0004800162HS 3244   GGSL
TXBWIC22020-38313-03264-40000018D0000314D0059400000SL 3264   GGSL
TXBWIC22020-38313-03334-70000060D0000632D0002400006AP 3334   GGSL
TXBWIC22020-38313-03394-10000048D0000362D0000000006FS 3394   GGSL
TXBWIC22020-38313-03470-20000023D0000668D0008400030FL 3470   GGSL
TXBWIC22020-38313-03634-80000010D0000254D0006900070LG 3634   GGSL
TXBWIC22020-38313-03710-90000060D0000371D0101400000CT 3710   GGSL
TXBWIC22020-38313-03720-80000180D0001105D0056400000CT 3720   GGSL
TXBWIC22020-38313-03730-70000030D0000196D0021500000CT 3730   GGSL
TXBWIC22020-38313-03750-50000042D0000259D0009000000CT 3750   GGSL
TXBWIC22020-38313-04110-60000012D0000252D0007200150AL 4110   GGSL
TXBWIC22020-38313-04930-00002467D0015203D0291500174AG 4930   GGSL
TXBWIC22020-38313-04930-70000524D0003975D0155900060AG 4930SS GGSL
TXBWIC22020-38313-06870-70000004D0000358D0000000000TP 6870   GGSL
TXBWIC22020-38313-06950-60000036D0001772D0000000000AH 6950   GGSL
TXBWIC22020-38313-06970-40000028D0001249D0025500010AH 6970   GGSL
TXBWIC22020-38313-07395-40000012D0000251D0000000000RS 7395   GGSL
TXBWIC22020-38313-07500-20000030D0000516D0000000000RS 7255   GGSL
TXBWIC22020-38313-07545-20000057D0001001D0010700043RS 7245   GGSL
TXBWIC22020-38313-07900-00000012D0000477D0000000000QS 7900   GGSL
TXBWIC22020-38313-08300-00000060D0000383D0006000000AC 8300   GGSL
TXBWIC22020-38313-10000-10000190D0001829D0061300034SS 10000  GGSL
TXBWIC22020-38313-10227-20000012D0000857D0013400026AL 6512   GGSL
TXBWIC22020-38313-11000-00000100D0000961D0026800009SS 11000  GGSL
TXBWIC22020-38313-12400-70000360D0004546D0047200044RK 24003  GGSL
TXBWIC22020-38313-13214-90000030D0000265D0010800282FS 3214D  GGSL
TXBWIC22020-38313-14300-80000006D0000215D0001200000BM 43001  GGSL
TXBWIC22020-38313-17100-10000024D0000472D0000000006BP 7100D  GGSL
TXBWIC22020-38313-19180-10000002D0000100D0000000000MR 9180   GGSL
TXBWIC22020-38313-20001-50000023D0000532D0004400005PD 20000  GGSL
TXBWIC22020-38313-20004-60000051D0000765D0015400111CV 20004  GGSL
TXBWIC22020-38313-20022-00000040D0000722D0008300004RK 20022  GGSL
TXBWIC22020-38313-21000-70000105D0001577D0033300078SH 20000  GGSL
TXBWIC22020-38313-21050-20000042D0000202D0001200258CT 3050I  GGSL
TXBWIC22020-38313-22001-30000024D0000243D0000000000CV 22000  GGSL
TXBWIC22020-38313-24000-40000046D0000334D0064000000FS 4000   GGSL
TXBWIC22020-38313-25008-90000012D0000058D0001200336RK 25008  GGSL
TXBWIC22020-38313-25017-10000042D0000335D0117100006RK 25017  GGSL
TXBWIC22020-38313-26001-90000018D0000228D0000000048SS 26010  GGSL
TXBWIC22020-38313-26020-00000043D0000606D0018700031SS 26020  GGSL
TXBWIC22020-38313-27020-90000030D0000448D0006300006SS 27020  GGSL
TXBWIC22020-38313-28000-00000020D0000378D0003800009SS 28000  GGSL
TXBWIC22020-38313-28010-90000022D0000473D0010300017SS 28010  GGSL
TXBWIC22020-38313-28030-70000012D0000315D0000000000SS 28030  GGSL
TXBWIC22020-38313-29256-00000004D0000000D0000000003MR 9256C-1GGSL
TXBWIC22020-38313-32341-70000011D0000112D0000800068GT 3234   GGSL
TXBWIC22020-38313-32441-40000030D0000300D0004300108GT 3244   GGSL
TXBWIC22020-38313-32541-10000016D0000169D0000000052GT 3254   GGSL
TXBWIC22020-38313-32706-40000040D0004679D0000000004WB 2706FF GGSL
TXBWIC22020-38313-33140-50000072D0000573D0004200040CT 3314   GGSL
TXBWIC22020-38313-33240-20000056D0000420D0006400016CT 3324   GGSL
TXBWIC22020-38313-33340-90000040D0000311D0004000008CT 3334   GGSL
TXBWIC22020-38313-33440-60000096D0000776D0008000336CT 3344   GGSL
TXBWIC22020-38313-33540-30000080D0000617D0008800008CT 3354   GGSL
TXBWIC22020-38313-33640-00000112D0000988D0009600224CT 3364   GGSL
TXBWIC22020-38313-36000-90000004D0000222D0000000000PD 60000  GGSL
TXBWIC22020-38313-36041-20000004D0000072D0000000000LG 3604   GGSL
TXBWIC22020-38313-36241-60000011D0000301D0006600043LG 3624   GGSL
TXBWIC22020-38313-36541-70000020D0000418D0000200128LG 3654   GGSL
TXBWIC22020-38313-37101-20000006D0000111D0001000006LG 3710   GGSL
TXBWIC22020-38313-37201-90000013D0000234D0005200149LG 3720   GGSL
TXBWIC22020-38313-41100-80000004D0000153D0000000004PM 41000  GGSL
TXBWIC22020-38313-45030-40000012D0000221D0000000000RK 45030  GGSL
TXBWIC22020-38313-53841-50000009D0000478D0002300002TP 3841   GGSL
TXBWIC22020-38313-56200-70000018D0000155D0005800000RK 62000  GGSL
TXBWIC22020-38313-60053-20000001D0000033D0000000000UT 60053  GGSL
TXBWIC22020-38313-60061-70000006D0000154D0000000000SH 60061  GGSL
TXBWIC22020-38313-61062-30000003D0000153D0000000009RK 61062  GGSL
TXBWIC22020-38313-62062-20000010D0000476D0008200001BM 62060  GGSL
TXBWIC22020-38313-62065-30000006D0000276D0000000000FK 72065  GGSL
TXBWIC22020-38313-64144-30000016D0000297D0001200003SS 64104  GGSL
TXBWIC22020-38313-65000-10000008D0000177D0000000007SS 65000  GGSL
TXBWIC22020-38313-66000-00000005D0000158D0002700006SS 66000  GGSL
TXBWIC22020-38313-66500-50000006D0000199D0000000000SL 6500   GGSL
TXBWIC22020-38313-68231-60000022D0001464D0017100003SS 68231  GGSL
TXBWIC22020-38313-69961-10000012D0000150D0000600000MA 60061  GGSL
TXBWIC22020-38313-72200-50000012D0000071D0000000000WD 2200DC GGSL
TXBWIC22020-38313-80000-00000005D0000479D0005200001SF 80000  GGSL
TXBWIC22020-38313-81000-90000164D0001729D0051100019RK 10000  GGSL
TXBWIC22020-38313-82000-80000006D0000126D0000000000FK 42000  GGSL
TXBWIC22020-38313-90000-70000111D0001004D0007000013SH 10000  GGSL
TXBWIC22020-38313-90040-30000004D0000352D0000000000AS 90040  GGSL
TXBWIC22020-38313-90110-30000004D0000257D0000000004AS 90110  GGSL
TXBWIC22020-38313-90310-70000006D0000477D0000000000AS 90310  GGSL
TXBWIC22020-38776-00213-30000006D0000378D0000000002UU1906ST  GGSL
TXBWIC22020-38776-00313-00000002D0000146D0000000000UU1412ST  GGSL
TXBWIC22020-38776-32000-80000075D0000141D0000000000EE1025WH  GGSL
TXBWIC22020-38776-51012-60000001D0000051D0000000001UR1212ST  GGSL
TXBWIC22020-38776-62193-80000003D0000283D0000000003UR1810ST  GGSL
TXBWIC22020-38776-63503-40000010D0000075D0000000000DP1510TC3 GGSL
TXBWIC22020-39645-11752-10000251D0001308D000000000040200010  GGSL
TXBWIC22020-39996-30292-80000300D0002568D000100000030292     GGSL
TXBWIC22020-39996-30293-50000250D0003900D000000041030293     GGSL
TXBWIC22020-40025-54033-40000012D0000548D0006300003RWS-54033 GGSL
TXBWIC22020-40200-00000- 0000009C0000548C0002500000VBC H11-7 GGSL
TXBWIC22020-40279-03300-20000396D0000797D01860004323300      GGSL
TXBWIC22020-40279-03302-60000420D0000934D0100800060          GGSL
TXBWIC22020-41535-24550-40000066D0003082D007070023224550     GGSL
TXBWIC22020-41535-24560-30000757D0118154D010710063124560     GGSL
TXBWIC22020-41535-24571-90001618D0023195D0312900973100518540 GGSL
TXBWIC22020-42206-00056-90000014D0000134D000460004856-6      GGSL
TXBWIC22020-42206-00131-30000020D0000058D0000000000T131-10   GGSL
TXBWIC22020-42206-00202-00000200D0000269D0028400220202S      GGSL
TXBWIC22020-42206-00202-10000001D0000001D0001500000202S      GGSL
TXBWIC22020-42206-00269-30000048D0000244D0021600012269       GGSL
TXBWIC22020-42206-00335-50000006D0000017D0000600000335-6     GGSL
TXBWIC22020-42206-00336-20000006D0000027D0000000000336-6     GGSL
TXBWIC22020-42206-00355-30000150D0000700D0000000048355       GGSL
TXBWIC22020-42206-00356-00000150D0000975D0000000048356       GGSL
TXBWIC22020-42206-00395-90000062D0000164D0033800050395S      GGSL
TXBWIC22020-42206-00525-00000055D0000155D0021200037525C      GGSL
TXBWIC22020-42206-00702-50000012D0000068D0000000000702-6     GGSL
TXBWIC22020-42206-00872-50000042D0000113D0027000012872-6     GGSL
TXBWIC22020-42206-03010-80000059D0000657D00109000003010-4    GGSL
TXBWIC22020-42206-03112-90000010D0000012D000000000031Z 1/2   GGSL
TXBWIC22020-42206-03158-70000020D0000026D000000000031Z 5/8   GGSL
TXBWIC22020-42206-03900-20000012D0000224D00006000003900H     GGSL
TXBWIC22020-42206-07800-10000018D0000132D00120000007800      GGSL
TXBWIC22020-42206-09000-30000192D0001335D00214000209000      GGSL
TXBWIC22020-42206-09001-00000030D0000147D00000000009001      GGSL
TXBWIC22020-42206-09002-70000010D0000038D00000000009002      GGSL
TXBWIC22020-42206-09003-40000010D0000036D00000000009003      GGSL
TXBWIC22020-42206-09009-60000015D0000234D00000000009009      GGSL
TXBWIC22020-42206-09520-60000006D0000105D00072000009520      GGSL
TXBWIC22020-42206-09620-30000014D0000608D00182000199620-8    GGSL
TXBWIC22020-42206-14058-60000312D0002021D00144000009570      GGSL
TXBWIC22020-42206-14066-10000084D0000360D00060000009560C     GGSL
TXBWIC22020-42206-14103-30000036D0000101D0000000000112       GGSL
TXBWIC22020-42206-14121-70000024D0000057D000000000053C       GGSL
TXBWIC22020-42206-14220-70000164D0000821D0030600040312S      GGSL
TXBWIC22020-42206-14221-40000175D0000372D0033000000313S      GGSL
TXBWIC22020-42206-14222-10000012D0000254D0009000018314S      GGSL
TXBWIC22020-42206-14235-10000268D0000333D0022300020390S      GGSL
TXBWIC22020-42206-14328-00000120D0000076D0000000000200C      GGSL
TXBWIC22020-42206-14456-00000302D0000567D0034000004420C      GGSL
TXBWIC22020-42206-14501-70000066D0000066D00323000101FMC      GGSL
TXBWIC22020-42206-14502-40000100D0000087D00271000201MMC      GGSL
TXBWIC22020-42206-14503-10000434D0000475D00467000802FMC      GGSL
TXBWIC22020-42206-14504-80000382D0000356D00581000302MMC      GGSL
TXBWIC22020-42206-14505-50000052D0000057D002040003001MC      GGSL
TXBWIC22020-42206-14506-20000130D0000144D005220007002MC      GGSL
TXBWIC22020-42206-14570-30000080D0000514D0015200010ZBR3/4    GGSL
TXBWIC22020-42206-14571-00000208D0000849D0032900030ZBM3/4    GGSL
TXBWIC22020-42206-14572-70000134D0000576D0059000010ZBF3/4    GGSL
TXBWIC22020-42206-14599-40000018D0000258D00018000009536CH    GGSL
TXBWIC22020-42206-15111-70000057D0000406D000840000015111     GGSL
TXBWIC22020-42206-15366-10000010D0000055D000000000015366     GGSL
TXBWIC22020-42206-15404-00000006D0000081D000560000015404     GGSL
TXBWIC22020-42206-15565-80000012D0000147D0043200000R551      GGSL
TXBWIC22020-42206-20491-20000092D0000507D002790001820491-10  GGSL
TXBWIC22020-42206-21701-10000010D0000035D000000000021701R    GGSL
TXBWIC22020-42206-22261-90000174D0001783D004260000022261     GGSL
TXBWIC22020-42206-22300-50000047D0000566D000600000622300     GGSL
TXBWIC22020-42206-22701-00000020D0000070D001660000022701C    GGSL
TXBWIC22020-42206-23701-90000030D0000105D000170000023701S    GGSL
TXBWIC22020-42206-30200-70000020D0000140D0000000000XT200     GGSL
TXBWIC22020-42206-30201-40000004D0000303D0000200000XT201     GGSL
TXBWIC22020-42206-38636-60000006D0000059D0000000012R8636     GGSL
TXBWIC22020-42206-40300-10000010D0000080D0001200000XT300     GGSL
TXBWIC22020-42206-40301-80000098D0000764D0017900430XT301     GGSL
TXBWIC22020-42206-44100-30000006D0000115D0003600000XT4100    GGSL
TXBWIC22020-42206-48635-60000036D0000254D0021600216R8635     GGSL
TXBWIC22020-42206-63015-50000027D0000844D000160000063015     GGSL
TXBWIC22020-42206-63100-80000012D0000512D000000000363100     GGSL
TXBWIC22020-42206-95501-20000012D0000063D00000000129550C     GGSL
TXBWIC22020-42579-00000-00000012D0000134D0000000000LEAFTARP9XGGSL
TXBWIC22020-42579-10342-30000012D0000175D0000000024NB348     GGSL
TXBWIC22020-42579-11190-90000003D0000095D0000000000950       GGSL
TXBWIC22020-42579-11250-00000047D0018362D0013100000P12       GGSL
TXBWIC22020-42579-11500-60000277D0009444D0029800018APBPAL    GGSL
TXBWIC22020-42579-12342-10000012D0000108D0000000000PSS       GGSL
TXBWIC22020-42579-12343-80000210D0007283D000000000020 YR-3100GGSL
TXBWIC22020-42579-12346-90000072D0000140D0000100000TW3W      GGSL
TXBWIC22020-42579-13250-80001076D0030210D0097700360P3        GGSL
TXBWIC22020-42579-14250-70000256D0021977D0022000201P4        GGSL
TXBWIC22020-42579-15250-60000069D0013464D0011700001P5        GGSL
TXBWIC22020-42579-16250-50000050D0011227D0031200048P6        GGSL
TXBWIC22020-42579-18250-30000010D0002942D0018000022P8        GGSL
TXBWIC22020-42579-19342-40000600D0006245D004800019220 YR-324 GGSL
TXBWIC22020-42579-22341-10006809D0040813D05216021446 YR-350  GGSL
TXBWIC22020-42579-22342-80000960D0008383D0016800018NS12      GGSL
TXBWIC22020-42579-22345-90005376D0007871D0272700288APRC      GGSL
TXBWIC22020-42579-32355-50000504D0003112D0078400056RS15      GGSL
TXBWIC22020-42579-32501-60000010D0000559D00000000006 YR-4300 GGSL
TXBWIC22020-42579-43004-80000034D0003598D0006300068NB4       GGSL
TXBWIC22020-42579-43006-20000023D0003493D0003600008NB6       GGSL
TXBWIC22020-42579-50154-00000128D0004112D0020800032PRO BLK-31GGSL
TXBWIC22020-42579-50169-40000216D0004126D0036000000PRO BLK-45GGSL
TXBWIC22020-42579-50171-70000024D0000915D0000000000PRO BLK-41GGSL
TXBWIC22020-42579-50264-60000768D0012434D0000000000SG200PAL  GGSL
TXBWIC22020-42579-63041-70000005D0000634D0001600001KG6       GGSL
TXBWIC22020-42579-63105-60000031D0001845D0007200000350ROLL   GGSL
TXBWIC22020-42579-63111-70003300D0000684D0000000000RPB-RED   GGSL
TXBWIC22020-42579-63306-70000864D0005443D01908001083 YR-350  GGSL
TXBWIC22020-42579-81272-10000001D0000111D0000000000K6        GGSL
TXBWIC22020-42579-81273-80000001D0000223D0000000000K12       GGSL
TXBWIC22020-42579-81360-50000147D0026224D0008800010NS12250   GGSL
TXBWIC22020-42579-81428-20000314D0000665D0093500063BURLAP BAGGGSL
TXBWIC22020-42579-81566-10000153D0022525D0061900032SBLT10300 GGSL
TXBWIC22020-42579-81568-50000205D0036822D0084500121SBLT12300 GGSL
TXBWIC22020-42579-81569-20000454D0103148D0086800250SBLT15.530GGSL
TXBWIC22020-42579-81571-50000535D0023543D0095700189SBLT3300  GGSL
TXBWIC22020-42579-81572-20000141D0008020D0013600049SBLT4300  GGSL
TXBWIC22020-42579-81573-90000365D0033379D0136400369SBLT6300  GGSL
TXBWIC22020-42579-81605-70000011D0001041D0001500002PRO BLK-33GGSL
TXBWIC22020-42579-81606-40000012D0001344D0002200000PRO BLK-43GGSL
TXBWIC22020-42579-81607-10000024D0004164D0009900004PRO BLK-63GGSL
TXBWIC22020-42579-81619-40000005D0000343D0000000009APB1      GGSL
TXBWIC22020-42579-81624-80000018D0000268D0000000000PRO BLK-35GGSL
TXBWIC22020-42579-81733-70000001D0000068D0005200000CS-3300BLKGGSL
TXBWIC22020-42579-81734-40000034D0002672D0000100006CS-4300BLKGGSL
TXBWIC22020-42579-81735-10000020D0002450D0002800011CS-6300BLKGGSL
TXBWIC22020-42579-81738-20000002D0000506D0000800000CS-350BLK GGSL
TXBWIC22020-42579-81739-90000004D0000955D0000900000CS-3100BLKGGSL
TXBWIC22020-42579-81762-70000027D0015609D0000000000AEC-DS    GGSL
TXBWIC22020-42579-81783-20000001D0000508D0000000000FG200PAL  GGSL
TXBWIC22020-42579-82225-60000016D0000241D0000000000SUPREME650GGSL
TXBWIC22020-42579-82278-20000960D0009707D0000000420TWBAG-12  GGSL
TXBWIC22020-42579-82283-60000120D0001078D0000000000STRTS-28  GGSL
TXBWIC22020-42579-82293-50002180D0012833D0033600028SUPREME625GGSL
TXBWIC22020-42579-82320-80000792D0008675D0002400240TWD-24    GGSL
TXBWIC22020-42579-82471-70000020D0000277D0036000000DWB41324  GGSL
TXBWIC22020-42579-82500-40000020D0000117D0000000000NSPJ6     GGSL
TXBWIC22020-42853-00000-00000212D0018965D0043503120BFTD-DB12 GGSL
TXBWIC22020-42853-10000-10002412D0006003D0033200608ST3-BB4   GGSL
TXBWIC22020-42853-42000-00000024D0000154D0019801884TSBF-BB6  GGSL
TXBWIC22020-42853-42001-70000044D0013024D0000000041TSBF-FD48 GGSL
TXBWIC22020-42853-50000-90000143D0009325D0016800171TSW-BB6   GGSL
TXBWIC22020-42853-52000-40000018D0000118D0000000048CBTS-BB6  GGSL
TXBWIC22020-42853-60000-60002896D0004842D0002801272FFTR-BB4  GGSL
TXBWIC22020-42853-61000-50000012D0000050D0005200204FFTR2-BB4 GGSL
TXBWIC22020-42853-62000-40000259D0000307D0078009936FFTA-DB12 GGSL
TXBWIC22020-42853-65000-10000356D0000895D0000000232AB6-BB4   GGSL
TXBWIC22020-42853-75017-60000032D0000166D0000003512PFTR-BB8  GGSL
TXBWIC22020-42853-75117-30000024D0000046D0002403336PFTA-DB12 GGSL
TXBWIC22020-42853-77305-40000855D0027693D0029100447FTD-DB12  GGSL
TXBWIC22020-42853-77603-90000001D0000041D0001800000YJTD-DB12-GGSL
TXBWIC22020-42853-78048-70000240D0001195D0000000000JBTZ-FD48 GGSL
TXBWIC22020-42853-79701-00000144D0000687D0000000000BFTD-FD48 GGSL
TXBWIC22020-42854-03298-10000168D0000360D0068400012FG32ORB112GGSL
TXBWIC22020-42854-63278-50000060D0000118D0073200000FG32PC1-12GGSL
TXBWIC22020-42854-64870-00000060D0000440D0009000000FG48PC1-6 GGSL
TXBWIC22020-42854-93200-70000012D0000060D0013200000FG32SM1-12GGSL
TXBWIC22020-42879-81992-80000024D0000273D0000000000NAT340    GGSL
TXBWIC22020-43312-10003-70000139D0000448D0151700000103-0-009 GGSL
TXBWIC22020-43312-10027-30000036D0000321D0027600024104-0-003 GGSL
TXBWIC22020-43312-10031-00000002D0000012D0013900000107-0-002 GGSL
TXBWIC22020-43326-15720-10000040D0000178D0000000000M8X10     GGSL
TXBWIC22020-43326-15732-40000015D0000130D0000000000M10X12    GGSL
TXBWIC22020-43326-15745-40000016D0000222D0000000000M12X16    GGSL
TXBWIC22020-43326-15750-80000010D0001159D0000000000M16X20    GGSL
TXBWIC22020-43326-15751-50000008D0000116D0000000000M10X20    GGSL
TXBWIC22020-43326-16720-00000048D0000453D0000000000A8X10-P8  GGSL
TXBWIC22020-43326-16730-90000005D0000064D0000000000A9X12-P   GGSL
TXBWIC22020-43326-16771-20000020D0000425D0000000000A10X18-P  GGSL
TXBWIC22020-43326-20003-70000050D0000077D0000000000STR-15    GGSL
TXBWIC22020-43326-20004-40000050D0000087D0000000000STR-21    GGSL
TXBWIC22020-43326-31031-60000250D0000063D0000000000SNUG08BLK-GGSL
TXBWIC22020-43326-59732-80000005D0000216D0000000005G10X12    GGSL
TXBWIC22020-43326-59745-80000024D0001579D0000000000G12X16    GGSL
TXBWIC22020-43326-59772-40000006D0000494D0000000003G12X20    GGSL
TXBWIC22020-43792-50001-30000439D0015848D0002700081Y32       GGSL
TXBWIC22020-43792-60002-70000481D0017869D0004800105W32       GGSL
TXBWIC22020-43792-70002-40000324D0011868D0000500065R32       GGSL
TXBWIC22020-43792-80001-40000229D0008306D0002100027SW10      GGSL
TXBWIC22020-43792-90003-50000110D0005747D0002500018GA10      GGSL
TXBWIC22020-43792-90004-20000020D0002237D0000100004GA30      GGSL
TXBWIC22020-44882-30504-40000006D0000195D0009000027FXG5875   GGSL
TXBWIC22020-44882-30506-80000003D0000146D0003600030FXG58100  GGSL
TXBWIC22020-46539-62045-60001538D0021319D0516300651          GGSL
TXBWIC22020-46539-64032-40004246D0035795D0477105646          GGSL
TXBWIC22020-46753-01032-30000042D0000173D00234000124675301032GGSL
TXBWIC22020-46753-01128-30000176D0001634D00220000204675301128GGSL
TXBWIC22020-46753-01300-30000003D0000719D000000000013003     GGSL
TXBWIC22020-46753-01500-70000002D0000084D0000000000          GGSL
TXBWIC22020-46753-02032-20000078D0000375D00169000004675302032GGSL
TXBWIC22020-46753-02128-20000032D0000388D00251000204675302128GGSL
TXBWIC22020-46753-03128-10000016D0000214D00096000044675303128GGSL
TXBWIC22020-46753-04032-00000480D0002831D00846000724675304032GGSL
TXBWIC22020-46753-04033-70000432D0003571D00666001802004675304GGSL
TXBWIC22020-46753-04128-00000440D0006080D00456002004675304128GGSL
TXBWIC22020-46753-04500-10000002D0000075D0000100000ZZMED5GALPGGSL
TXBWIC22020-46753-04500-40000003D0000181D00025000004675304500GGSL
TXBWIC22020-46753-05032-90000366D0003122D00846002044675305032GGSL
TXBWIC22020-46753-05128-90000276D0003753D00264000844675305128GGSL
TXBWIC22020-46753-07032-70000012D0000060D00177000004675307032GGSL
TXBWIC22020-46753-08016-60000168D0001373D000000003680160     GGSL
TXBWIC22020-46753-08032-60001227D0017928D01143003334675308032GGSL
TXBWIC22020-46753-13032-80000012D0000065D00000000004675313032GGSL
TXBWIC22020-46753-14032-70000472D0001907D00147000124675314032GGSL
TXBWIC22020-46753-14128-70000296D0002248D00198000644675314128GGSL
TXBWIC22020-46753-17005-80000066D0000327D00182000484675317005GGSL
TXBWIC22020-46753-17040-90000542D0007468D01130001604675317040GGSL
TXBWIC22020-46753-19032-20000072D0000437D00000000482004675319GGSL
TXBWIC22020-46753-19128-20000020D0000264D0000000012          GGSL
TXBWIC22020-46753-20128-80000008D0000161D0000000024          GGSL
TXBWIC22020-46753-21032-70000844D0004471D004380050410327     GGSL
TXBWIC22020-46753-21128-70000428D0005770D002760040412287     GGSL
TXBWIC22020-46878-26380-20000024D0000303D000060000326380     GGSL
TXBWIC22020-46878-27389-40000009D0000160D000060000027389     GGSL
TXBWIC22020-46878-27436-50000003D0000053D000090000027436     GGSL
TXBWIC22020-46878-27560-70000006D0000106D000000000027560     GGSL
TXBWIC22020-46878-56361-20000016D0000167D000000000056361     GGSL
TXBWIC22020-46878-58308-50000008D0000379D000000000058308D    GGSL
TXBWIC22020-46878-62100-80000407C0000379C000000000062100     GGSL
TXBWIC22020-47977-00059-60000008D0000124D000000000024701     GGSL
TXBWIC22020-47977-00563-80000003D0000172D000000000024637     GGSL
TXBWIC22020-47977-00807-30000055C0000172C000000000023807     GGSL
TXBWIC22020-47977-00879-00000006D0000025D000000000024123     GGSL
TXBWIC22020-47977-01107-30000008D0000156D000000000024005     GGSL
TXBWIC22020-47977-01258-20000012D0000157D000000000023863     GGSL
TXBWIC22020-47985-10023-30000308D0002364D0001400000YCBSM3CF-PGGSL
TXBWIC22020-47985-10033-20000352D0002820D0061200000YCBSI3CF-PGGSL
TXBWIC22020-48307-70003-20000009D0000074D0019100000ST3       GGSL
TXBWIC22020-48307-70004-90000005D0000054D0025300025ST4-WS    GGSL
TXBWIC22020-48307-70005-60000008D0000126D0026600000ST5       GGSL
TXBWIC22020-48307-70006-30000011D0000198D0006700023ST6       GGSL
TXBWIC22020-48745-22244-80000004D0000101D0002800000BL22244   GGSL
TXBWIC22020-49206-03010-70000008D0000048D0000000000WC8108FE  GGSL
TXBWIC22020-50197-00104-50001134D0005299D0390700120HT4       GGSL
TXBWIC22020-50197-00108-30000246D0001593D0040800018HT8       GGSL
TXBWIC22020-50197-00118-20000605D0007384D0261900053HT18      GGSL
TXBWIC22020-50197-00136-60000408D0008549D0053400276HT36      GGSL
TXBWIC22020-50197-00150-20000199D0004899D0027500014HT50      GGSL
TXBWIC22020-50197-00204-20000560D0002572D0335400852PT4       GGSL
TXBWIC22020-50197-00208-00000114D0000727D0027000042PT8       GGSL
TXBWIC22020-50197-00218-90000368D0004511D0087200048PT18      GGSL
TXBWIC22020-50197-00236-30000121D0002381D0057000134PT36      GGSL
TXBWIC22020-50197-00250-90000104D0002469D0023700011PT50      GGSL
TXBWIC22020-50197-00304-90000924D0004369D0328101608GT4       GGSL
TXBWIC22020-50197-00308-70000030D0000183D0000600000GT8       GGSL
TXBWIC22020-50197-00318-60000184D0002411D0077900036GT18      GGSL
TXBWIC22020-50197-00336-00000145D0002928D0034200041GT36      GGSL
TXBWIC22020-50197-00404-60000660D0003061D0263600984RT4       GGSL
TXBWIC22020-50197-00408-40000114D0000755D0019800012RT8       GGSL
TXBWIC22020-50197-00418-30000274D0003674D0105000057RT18      GGSL
TXBWIC22020-50197-00604-00000462D0002092D0143100120BT4       GGSL
TXBWIC22020-50197-00618-70000006D0000075D0000000003BT18      GGSL
TXBWIC22020-50197-00704-70000258D0001221D0094600009TR4       GGSL
TXBWIC22020-50197-00718-40000070D0000884D0040100031TR18      GGSL
TXBWIC22020-50197-00904-10000948D0004469D0283801494TO4       GGSL
TXBWIC22020-50197-00908-60000107D0000692D0037200012TO8       GGSL
TXBWIC22020-50197-00918-80000076D0000956D0030000017TO18      GGSL
TXBWIC22020-50197-01004-70000191D0000850D0045600708BM04      GGSL
TXBWIC22020-50197-01024-50000002D0000041D0000400000BM24      GGSL
TXBWIC22020-50197-01106-80000012D0000118D0000000000gs6       GGSL
TXBWIC22020-50197-01207-20000006D0000043D0000000000RP7       GGSL
TXBWIC22020-50197-01228-70000006D0000107D0000000007RP28      GGSL
TXBWIC22020-50197-01303-10000216D0001287D0048000564DB03      GGSL
TXBWIC22020-50197-01317-80000004D0000125D0000000000DB17      GGSL
TXBWIC22020-50197-01803-60000203D0000720D0022800012GM3       GGSL
TXBWIC22020-50197-01825-80000285D0002994D0004000034GM25      GGSL
TXBWIC22020-50197-01905-70000042D0000166D0001200006GF5105/6  GGSL
TXBWIC22020-50197-02006-00000256D0000687D0080100198GL6       GGSL
TXBWIC22020-50197-02206-40000552D0002437D0070800102GG6       GGSL
TXBWIC22020-50197-02304-70000048D0000240D0000000000CS4       GGSL
TXBWIC22020-50197-02805-90000054D0000287D0000000000GF101010/6GGSL
TXBWIC22020-50197-02904-90000330D0001568D0196500648FT4       GGSL
TXBWIC22020-50197-02918-60000061D0000772D0046300063FT18      GGSL
TXBWIC22020-50197-03804-10003239D0017648D0312901056BTSP4     GGSL
TXBWIC22020-50197-03808-90000102D0000802D0000000000BTSP8     GGSL
TXBWIC22020-50197-03818-80000059D0001107D0000400008BTSP18    GGSL
TXBWIC22020-50197-03825-60000529D0012728D0085800028BTSP25    GGSL
TXBWIC22020-50197-03904-80000156D0000749D0117000870PM4       GGSL
TXBWIC22020-50197-03920-80000005D0000069D0000000000PM20      GGSL
TXBWIC22020-50197-05004-30000522D0002443D0279100696CT4       GGSL
TXBWIC22020-50197-05018-00000132D0001836D0030600060CT18      GGSL
TXBWIC22020-50197-05225-20000035D0000798D0000000000CGP25     GGSL
TXBWIC22020-50197-05320-40000019D0000298D0059800002ELF20     GGSL
TXBWIC22020-50197-05340-20000016D0000395D0000000000ELF40     GGSL
TXBWIC22020-50197-05405-80000060D0000291D0039700000IT5       GGSL
TXBWIC22020-50197-05420-10000002D0000027D0002900007it20      GGSL
TXBWIC22020-50197-05628-10000010D0000275D0007400006EOLF28    GGSL
TXBWIC22020-50197-05730-10000003D0000082D0000800000EOSR30    GGSL
TXBWIC22020-50197-06504-70000444D0002154D0161101104AT4       GGSL
TXBWIC22020-50197-06508-50000060D0000398D0010800036AT8       GGSL
TXBWIC22020-50197-06518-40000019D0000217D0004500006AT18      GGSL
TXBWIC22020-50197-06604-40000221D0001062D0040200018BR4       GGSL
TXBWIC22020-50197-06708-90000024D0000179D0001800000ET8       GGSL
TXBWIC22020-50197-30508-20000102D0000420D0000000024INPF8     GGSL
TXBWIC22020-50197-30608-90000150D0000619D0003600006CAPF8     GGSL
TXBWIC22020-50197-30708-60000150D0000617D0000000006VIPF8     GGSL
TXBWIC22020-50197-30808-30000114D0000469D0000000000ORPF8     GGSL
TXBWIC22020-50197-31308-70000030D0000124D0004200000TOPF8     GGSL
TXBWIC22020-50197-31318-60000018D0000117D0000000006topf18    GGSL
TXBWIC22020-50197-51324-10000234D0001309D0013200000EONM24    GGSL
TXBWIC22020-50197-51524-50000018D0000106D0000000000EOIC24    GGSL
TXBWIC22020-50197-70101-30000614D0003600D0051500075ap1       GGSL
TXBWIC22020-50197-70102-00000889D0007594D0042200001ap2       GGSL
TXBWIC22020-50197-70116-70000840D0003738D0000000000AP16      GGSL
TXBWIC22020-50197-70304-80000564D0001551D0078000060ca4       GGSL
TXBWIC22020-50197-70308-60000276D0001246D0019800042ca8       GGSL
TXBWIC22020-50197-70516-50000040D0000220D0000000000SS16      GGSL
TXBWIC22020-50197-70608-70000096D0000448D0051000048PTM8      GGSL
TXBWIC22020-50197-70801-20000010D0000134D0001200000VM1       GGSL
TXBWIC22020-50197-71201-90000075D0000572D0000000000mm1       GGSL
TXBWIC22020-50197-71208-80000012D0000048D0009000000MM8       GGSL
TXBWIC22020-50197-71304-70000156D0001052D0021600012EC4       GGSL
TXBWIC22020-50197-71501-00000554D0003820D0085900151lsc1      GGSL
TXBWIC22020-50197-71601-70000205D0000893D0027300010dcm1      GGSL
TXBWIC22020-50197-71804-20000072D0000493D0000000012BO4       GGSL
TXBWIC22020-50197-71904-90000360D0002412D0016800252HC4       GGSL
TXBWIC22020-50349-01039-00000007D0000575D00000000021039-012  GGSL
TXBWIC22020-50349-01043-70000004D0000076D00000002351043-009  GGSL
TXBWIC22020-50349-01052-90000002D0000122D00010000001052-012  GGSL
TXBWIC22020-50349-01069-70000060D0000271D00100000001069-012  GGSL
TXBWIC22020-50349-01078-30000007D0005455D00003000091023-017  GGSL
TXBWIC22020-50349-10110-50000006D0000460D00000000001022-012  GGSL
TXBWIC22020-50349-10211-20000002D0000109D00000000011012-012  GGSL
TXBWIC22020-50349-10230-00000006D0000516D00001000001054-012  GGSL
TXBWIC22020-50349-10330-70000008D0006966D00007000001033-017  GGSL
TXBWIC22020-50349-10541-00000004D0004217D00000000021071-017  GGSL
TXBWIC22020-50349-11155-40000001D0000078D00041000001055-082  GGSL
TXBWIC22020-50349-18885-30000001D0000016D00042000008885-034  GGSL
TXBWIC22020-50699-00000-00000003D0000028D0000000000303460    GGSL
TXBWIC22020-50699-00001-00000010D0000093D0007600000300001    GGSL
TXBWIC22020-50699-00128-10000014D0000467D0005600000300128    GGSL
TXBWIC22020-50699-00212-00000036D0000347D0000000000300212    GGSL
TXBWIC22020-51497-15464-60000008D0001119D000260000115464     GGSL
TXBWIC22020-51497-15466-00000020D0000261D000600000015466     GGSL
TXBWIC22020-52427-00551-90000001D0000019D00000000004500102   GGSL
TXBWIC22020-52427-01038-40000001D0000018D0000000000105462    GGSL
TXBWIC22020-52427-01048-30000001D0000037D0000000000105629    GGSL
TXBWIC22020-52427-60035-60000001D0000188D00000000006035240   GGSL
TXBWIC22020-52427-60109-40000001D0000028D00000000006010902   GGSL
TXBWIC22020-52732-00000-00000057D0003528D000040012919109     GGSL
TXBWIC22020-52732-02030-60000006D0000774D00000000002030P-PLUSGGSL
TXBWIC22020-52732-10012-10000055D0007157D000310001710001     GGSL
TXBWIC22020-52732-10225-50000005D0000157D000170000060009.0   GGSL
TXBWIC22020-52732-20505-50000024D0002374D00037000802050SU    GGSL
TXBWIC22020-52732-20509-30000025D0003946D00039001012050P     GGSL
TXBWIC22020-52732-20519-20000010D0001607D00010000102050TP    GGSL
TXBWIC22020-52732-27500-30000311D0014891D00657001262750      GGSL
TXBWIC22020-52732-65000-80000012D0001536D00004000026500.0    GGSL
TXBWIC22020-53291-11002-60000108D0001170D0007200000820-1002  GGSL
TXBWIC22020-53291-30000-00000001D0000329D0000000000820-1024  GGSL
TXBWIC22020-53291-40055-40000010D0000044D0000000000840-0055  GGSL
TXBWIC22020-53291-55981-80000036D0000161D0001200060820-0188  GGSL
TXBWIC22020-56554-10596-80000012D0000197D0000000006AOS13000P5GGSL
TXBWIC22020-56554-31344-80000006D0000086D0000000000SRA13001P0GGSL
TXBWIC22020-56554-91954-10000008D0000374D0000000000KTS15000A5GGSL
TXBWIC22020-56554-91955-80000004D0000187D0000000000KTS15000E5GGSL
TXBWIC22020-56554-91958-90000002D0000135D0000000004KTX16000A5GGSL
TXBWIC22020-56554-91959-60000002D0000093D0000000000KTX16000E5GGSL
TXBWIC22020-56554-92106-30000048D0000328D0000000000LIA12000A4GGSL
TXBWIC22020-58115-00114-60000004D0000068D0000000004114       GGSL
TXBWIC22020-66498-01115-70000175D0003993D000000000401115.0   GGSL
TXBWIC22020-66498-02115-60004666D0078527D010730145902775.0   GGSL
TXBWIC22020-66498-02185-90000632D0007728D002370012002185     GGSL
TXBWIC22020-66498-02330-90000540D0011286D00000000006649802330GGSL
TXBWIC22020-66498-02510-90000060D0001568D00000001206649801462GGSL
TXBWIC22020-66498-03175-90000146D0002176D000000000003175     GGSL
TXBWIC22020-66498-04175-80000710D0009194D000000110004175.0   GGSL
TXBWIC22020-66498-05113-90000352D0002311D000090000405175.0   GGSL
TXBWIC22020-66498-09782-30000585D0005762D000000000009782.0   GGSL
TXBWIC22020-66498-09795-30000225D0002464D000000000009795     GGSL
TXBWIC22020-66498-09901-80003435D0026420D029950124709901.0   GGSL
TXBWIC22020-66498-09902-50006168D0068044D013590168109902.0   GGSL
TXBWIC22020-66498-09903-20002017D0030862D000770026509903.0   GGSL
TXBWIC22020-66498-09925-40000786D0003870D002700003609925     GGSL
TXBWIC22020-66498-09929-20000047D0000314D001540000509929     GGSL
TXBWIC22020-66498-09937-70001728D0005880D010560147609937     GGSL
TXBWIC22020-66498-09939-10000050D0000450D000000007009939     GGSL
TXBWIC22020-66498-09947-60000516D0001591D002880068409947     GGSL
TXBWIC22020-66498-09950-50000792D0005705D009480073809955     GGSL
TXBWIC22020-66498-09965-00000282D0002209D004980047409965     GGSL
TXBWIC22020-66498-09977-30000480D0002969D003720007209977     GGSL
TXBWIC22020-66498-09985-80000143D0000597D001140007809985     GGSL
TXBWIC22020-66498-89905-20001536D0006910D021150071409905     GGSL
TXBWIC22020-66498-99827-40001044D0005775D007440039609827     GGSL
TXBWIC22020-70183-50005-50000956D0027930D00088000205000510   GGSL
TXBWIC22020-70183-50006-20001794D0067843D00054000005000610   GGSL
TXBWIC22020-70183-50023-90000342D0008275D00078000125002306   GGSL
TXBWIC22020-70183-50026-00003320D0039397D00208000125002610   GGSL
TXBWIC22020-70183-50027-70000798D0003404D00300000005002715   GGSL
TXBWIC22020-70183-50029-10000164D0001867D00003000045007410   GGSL
TXBWIC22020-70183-50030-70000024D0000098D00000000005003090   GGSL
TXBWIC22020-70183-50034-50005334D0022546D00817005285003470   GGSL
TXBWIC22020-70183-50038-30000916D0011804D00032000005003810   GGSL
TXBWIC22020-70183-50042-00000210D0019985D00006000045004215   GGSL
TXBWIC22020-70183-50055-00003708D0043265D00270002285003610   GGSL
TXBWIC22020-70183-50060-40001038D0037337D00030000335006010   GGSL
TXBWIC22020-70183-50085-70000024D0001315D00000000005008510   GGSL
TXBWIC22020-70183-50124-30000006D0000093D00000000005012408   GGSL
TXBWIC22020-70183-50125-00000004D0000086D00000000005012506   GGSL
TXBWIC22020-70183-50202-80000464D0009925D00000000005020210   GGSL
TXBWIC22020-70183-50203-50000120D0001865D00000000005020310   GGSL
TXBWIC22020-70183-50204-20000144D0002235D00000000005020410   GGSL
TXBWIC22020-70183-50205-90000012D0000133D00000000005020510   GGSL
TXBWIC22020-70183-51000-90000456D0018383D00000000005100006   GGSL
TXBWIC22020-70183-51001-60002980D0055342D00288000325100114   GGSL
TXBWIC22020-70183-51006-10005422D0130476D00216000005100612   GGSL
TXBWIC22020-70183-51007-80000240D0009631D00036000065100710   GGSL
TXBWIC22020-70183-51009-20000276D0003863D00072000045004010   GGSL
TXBWIC22020-70183-51019-10001244D0026571D00012000005101910   GGSL
TXBWIC22020-70183-51073-30000786D0003985D00108000545107315   GGSL
TXBWIC22020-70183-51090-00001128D0058561D00207001625109010   GGSL
TXBWIC22020-70183-52005-30000072D0001711D00004000005200510   GGSL
TXBWIC22020-70183-52039-80000308D0006625D00032000325203910   GGSL
TXBWIC22020-70183-52350-40000056D0001418D00016000005235010   GGSL
TXBWIC22020-70183-57050-80000744D0022665D00036000005705010   GGSL
TXBWIC22020-70183-57080-50000384D0006426D00008000005708010   GGSL
TXBWIC22020-70183-57250-20001148D0025811D00056000085725070   GGSL
TXBWIC22020-70183-88891-70000024D0003713D00000000008889136   GGSL
TXBWIC22020-70251-76116-60000006D0000082D0064200024761160    GGSL
TXBWIC22020-70251-79160-60000033D0000352D0007800024791600    GGSL
TXBWIC22020-70251-81482-40001752D0013736D04407000008141082   GGSL
TXBWIC22020-70805-51001-10000960D0002777D014200012070805-010-GGSL
TXBWIC22020-70805-51002-80000690D0003838D008270003070805-005-GGSL
TXBWIC22020-70805-51013-40003122D0053388D0235500151BD02      GGSL
TXBWIC22020-70805-51024-00000156D0000675D002220000070805-006-GGSL
TXBWIC22020-70805-51025-70004601D0068147D025000026470805-001-GGSL
TXBWIC22020-70805-51026-40000432D0001660D004380001870805-006-GGSL
