NJARET20010-03831-30083-70000006D0000184D0000700000BP6250    GGSL
NJARET20010-07633-31219-70000048D0000718D0000700001AP30218DW GGSL
NJARET20010-10052-00333-10000024D0000098D000960000300333     GGSL
NJARET20010-10052-00336-20000002D0000015D000110000000410X    GGSL
NJARET20010-10052-00600-40000002D0000026D0005700000600X      GGSL
NJARET20010-10106-16901-30000012D0000079D000140000856901     GGSL
NJARET20010-10106-16905-10000024D0000116D000020000016905     GGSL
NJARET20010-10367-00001-80000150D0000618D00011000040001      GGSL
NJARET20010-10367-00110-70000792D0005188D00129000180110      GGSL
NJARET20010-10367-00130-50000005D0000205D00057000030130      GGSL
NJARET20010-10367-00150-30000047D0001353D00118000100150      GGSL
NJARET20010-10367-00180-00000384D0001211D00005000010180      GGSL
NJARET20010-10367-00450-40000072D0000341D00022000000450      GGSL
NJARET20010-10367-00460-30000084D0000494D00029000010460      GGSL
NJARET20010-10367-00470-20000036D0000438D00037000000470      GGSL
NJARET20010-10367-00550-10000120D0000348D00037000000550      GGSL
NJARET20010-10367-00560-00000184D0000670D000000000205608     GGSL
NJARET20010-10367-00570-90000132D0000793D00018000000570      GGSL
NJARET20010-10367-00810-60000072D0000406D0000300000ML0810    GGSL
NJARET20010-10367-01000-00000060D0000826D00001000001000      GGSL
NJARET20010-10367-01010-90000024D0000379D00001000001010      GGSL
NJARET20010-10367-01020-80000060D0001030D00001000001020      GGSL
NJARET20010-10367-01050-50000012D0000150D00003000001050      GGSL
NJARET20010-10367-01110-60000064D0000210D00031000011110      GGSL
NJARET20010-10367-01111-30000528D0001732D00033000001111      GGSL
NJARET20010-10367-01112-00000304D0001037D00030000081112      GGSL
NJARET20010-10367-01120-50000752D0002151D00035000111120      GGSL
NJARET20010-10367-01121-20000208D0001215D00056000141121      GGSL
NJARET20010-10367-01122-90000432D0002462D00064000061122      GGSL
NJARET20010-10367-01130-40000272D0001433D00070000021130      GGSL
NJARET20010-10367-01140-30000056D0000187D00017000081140      GGSL
NJARET20010-10367-01151-90000024D0000080D00019000001151      GGSL
NJARET20010-10367-01160-10000056D0000435D00016000011160      GGSL
NJARET20010-10367-01161-80000064D0000497D00017000011161      GGSL
NJARET20010-10367-01162-50000088D0000683D00011000011162      GGSL
NJARET20010-10367-01220-20000024D0000096D00013000121220      GGSL
NJARET20010-10367-01240-00000048D0000282D00016000051240      GGSL
NJARET20010-10367-02121-10000016D0000076D0000700001ML2121    GGSL
NJARET20010-10367-02151-80000056D0000416D0001600000ML2151    GGSL
NJARET20010-10367-02161-70000016D0000108D0000300003ML2161    GGSL
NJARET20010-10367-02162-40000032D0000217D0001300006ML2162    GGSL
NJARET20010-10367-02163-10000040D0000271D0001900003ML2163    GGSL
NJARET20010-10367-02171-60000008D0000054D0000700003ML2171    GGSL
NJARET20010-10367-02181-50000024D0000162D0001600006ML2181    GGSL
NJARET20010-10367-03010-70000008D0000047D0001300000ML3010    GGSL
NJARET20010-10367-03020-60000016D0000095D0000500000ML3020    GGSL
NJARET20010-10367-03999-50000001D0000872D00000000003999      GGSL
NJARET20010-10781-10799-70000030D0000633D00000000001000A     GGSL
NJARET20010-11120-00506-60000012D0000045D00006000000891      GGSL
NJARET20010-11120-00733-60000102D0000309D00179000008538      GGSL
NJARET20010-11192-10594-70000008D0000195D0000100000JHHEATMAT8GGSL
NJARET20010-11192-60612-30000008D0000073D0000000000KGFH      GGSL
NJARET20010-11423-00338-70000048D0000293D000020000033801     GGSL
NJARET20010-11423-94101-60000012D0000074D000010000194101     GGSL
NJARET20010-11423-94108-50000036D0000408D0001200002HG94108   GGSL
NJARET20010-11423-94138-20000024D0000132D000280000794138     GGSL
NJARET20010-11423-94139-90000120D0000632D0000700005HG94127   GGSL
NJARET20010-11423-94211-20000018D0000123D000000000094211     GGSL
NJARET20010-12587-60034-40000048D0000332D003580000060034     GGSL
NJARET20010-12587-60035-10000048D0000332D004290000060035     GGSL
NJARET20010-12587-60764-00000048D0000332D002090000060764     GGSL
NJARET20010-12587-70022-80000072D0000317D003000000070022     GGSL
NJARET20010-12587-70028-00000072D0000317D003820000070028     GGSL
NJARET20010-12587-70054-90000081D0000356D001680000070054     GGSL
NJARET20010-12587-70419-60000108D0000475D003380000070419     GGSL
NJARET20010-12587-78362-70000072D0000509D001140000078362     GGSL
NJARET20010-12587-78634-50000048D0000332D002660000078634     GGSL
NJARET20010-12587-78685-70000072D0000509D000690000078685     GGSL
NJARET20010-12587-78686-40000072D0000498D002090000078686     GGSL
NJARET20010-12587-78709-00000036D0000325D000180000078709     GGSL
NJARET20010-12587-78742-70000048D0000034D001640000078742     GGSL
NJARET20010-12587-78743-40000048D0000030D001260000078743     GGSL
NJARET20010-12587-78835-60000080D0000067D001310000078835     GGSL
NJARET20010-12587-78836-30000080D0000067D001850000078836     GGSL
NJARET20010-12587-78837-00000080D0000067D002100000078837     GGSL
NJARET20010-12587-78838-70000080D0000067D002100000078838     GGSL
NJARET20010-12587-78869-10000210D0000146D001880000078869     GGSL
NJARET20010-12587-78870-70000210D0000129D002600000078870     GGSL
NJARET20010-13887-00404-70000120D0001352D0003800020404P      GGSL
NJARET20010-13887-03005-30000006D0000144D0000000000WC3005A   GGSL
NJARET20010-13887-25715-30000008D0000158D0000000000WC25715   GGSL
NJARET20010-13887-25746-70000008D0000195D0000000000WC25746   GGSL
NJARET20010-14306-92177-80000012D0000387D0000300000US395116  GGSL
NJARET20010-14306-92461-80000010D0000188D0000200000US296116  GGSL
NJARET20010-14306-92839-50000012D0000325D0000100001US804687  GGSL
NJARET20010-14306-92841-80000012D0000442D0000200001US900687  GGSL
NJARET20010-14306-92844-90000005D0000094D0000100000US295700  GGSL
NJARET20010-14306-92845-60000010D0000188D0000400000US295702  GGSL
NJARET20010-14306-92848-70000003D0000097D0000300000US395700  GGSL
NJARET20010-14400-10734-40000024D0000096D00002000001440010734GGSL
NJARET20010-14400-52750-00000102D0000239D00000000001440052750GGSL
NJARET20010-14400-60000-50000024D0000185D000320002060000     GGSL
NJARET20010-14400-61000-40000025D0000205D000030000061000     GGSL
NJARET20010-14400-62000-30000048D0000541D000000000062000     GGSL
NJARET20010-14400-66000-90000101D0000948D000780000066000     GGSL
NJARET20010-14400-69046-40000004D0000038D00000000001440069046GGSL
NJARET20010-14400-71065-00000504D0002118D00007000001440071065GGSL
NJARET20010-14400-71265-40000960D0004051D00000000001440071265GGSL
NJARET20010-14400-72105-20000012D0000056D00000000001440072105GGSL
NJARET20010-14400-80400-70000005D0000050D00011000001440080400GGSL
NJARET20010-14400-81400-60000001D0000013D00007000001440081400GGSL
NJARET20010-15561-20074-50000012D0000042D0001400000PT74      GGSL
NJARET20010-15561-20075-20000012D0000075D0000000000PT75      GGSL
NJARET20010-15561-20125-40000012D0000074D0000400000PT125     GGSL
NJARET20010-15561-20126-10000012D0000143D0000000000PT126     GGSL
NJARET20010-15561-20676-10000003D0000004D0000000000PT676     GGSL
NJARET20010-15561-20960-10000012D0000010D0000300000PT960     GGSL
NJARET20010-15561-20961-80000024D0000032D0000200000PT961     GGSL
NJARET20010-15561-20965-60000012D0000014D0000300000PT965     GGSL
NJARET20010-15561-20968-70000012D0000027D0000300000PT968     GGSL
NJARET20010-15561-20974-80000012D0000066D0000100000PT974     GGSL
NJARET20010-15561-21735-40000004D0000055D0000000000PT1735    GGSL
NJARET20010-15561-21736-10000006D0000116D0000000000PT1736    GGSL
NJARET20010-15561-21737-80000003D0000107D0000000000PT1737    GGSL
NJARET20010-15561-28232-10000006D0000303D0000800000PT8232    GGSL
NJARET20010-15561-28244-40000004D0000475D0000600002PT8244    GGSL
NJARET20010-15759-01521-20000001D0000016D0000600000R1364GX   GGSL
NJARET20010-16069-00001-10000036D0000238D0000200000NESR      GGSL
NJARET20010-16069-00002-80000060D0000386D0000100000NEOR      GGSL
NJARET20010-16069-00005-90000228D0001416D0005600007TP15C     GGSL
NJARET20010-16069-00007-30000396D0002412D0013300014BN1       GGSL
NJARET20010-16069-00008-00000480D0003134D0012200015BN2       GGSL
NJARET20010-16069-00013-40000090D0002410D0005700004BN3       GGSL
NJARET20010-16069-00014-10000066D0001133D0006800012BN4       GGSL
NJARET20010-16069-00019-60000036D0000331D0004900009TP30C     GGSL
NJARET20010-16069-00021-90000015D0000141D0000300000BUR24     GGSL
NJARET20010-16069-00030-10000060D0000750D0004700008OW6       GGSL
NJARET20010-16069-00032-50000048D0000449D0005200007HG25      GGSL
NJARET20010-16069-00033-20000018D0000308D0000500001HG50      GGSL
NJARET20010-16069-00038-70000060D0000491D0005000009GF1015    GGSL
NJARET20010-16069-00047-90000072D0000431D0000200000TE12C     GGSL
NJARET20010-16069-00049-30000324D0005563D0008500007DX7       GGSL
NJARET20010-16069-00050-90000042D0001089D0001600000DX14      GGSL
NJARET20010-16069-00060-80000075D0000184D0000100000RAP15     GGSL
NJARET20010-16069-00072-10000048D0000276D0000200002TSD12     GGSL
NJARET20010-16069-00076-90000036D0000203D0002200003PN10      GGSL
NJARET20010-16069-00077-60000048D0000466D0002600005PN14      GGSL
NJARET20010-16069-00079-00000018D0000525D0000900000PN28      GGSL
NJARET20010-16069-00110-00000030D0000432D0000700000PF3       GGSL
NJARET20010-16069-00144-50000030D0000054D0000200001TG30      GGSL
NJARET20010-16069-00145-20000100D0002195D0006000011RH04      GGSL
NJARET20010-16069-00204-60000084D0001109D0000000000WS2050    GGSL
NJARET20010-16069-00218-30000216D0000916D0006400010HST100    GGSL
NJARET20010-16069-00306-70000040D0000431D0000100000WS1050    GGSL
NJARET20010-16069-00307-40000024D0000500D0000000000WS10100   GGSL
NJARET20010-16069-00393-70000432D0001331D0007100007GS20      GGSL
NJARET20010-16069-00401-90000140D0001061D0001600001GF4050    GGSL
NJARET20010-16069-00436-10000030D0000074D0000100000TWST100   GGSL
NJARET20010-16069-00446-00000016D0000144D0000300002RC168W    GGSL
NJARET20010-16069-00448-40000036D0000256D0000500004BR12      GGSL
NJARET20010-16069-00475-00000045D0000234D0000900009GS40B     GGSL
NJARET20010-16069-00479-80000028D0000580D0008200013E316B     GGSL
NJARET20010-16069-00480-40000060D0000250D0000600002SPT15     GGSL
NJARET20010-16069-00494-10000140D0001061D0002600000GFST4050  GGSL
NJARET20010-16069-00498-90000012D0000102D0001100002HGP1012   GGSL
NJARET20010-16069-00499-60000004D0000058D0000600000HGP1020   GGSL
NJARET20010-16069-00507-80000060D0000529D0000200000TPSM15    GGSL
NJARET20010-16069-00512-20000096D0000495D0000400001PH3       GGSL
NJARET20010-16069-00513-90000020D0000355D0000000000WS5100D   GGSL
NJARET20010-16069-00519-10000036D0000216D0000000000SPB56     GGSL
NJARET20010-16069-00521-40000300D0000282D0000000000TRS1100   GGSL
NJARET20010-16069-00545-00000036D0000136D0000200000PD36      GGSL
NJARET20010-16069-00546-70000004D0000163D0002400001RRBG4     GGSL
NJARET20010-16069-00550-40000010D0000119D0000300000TRWT1     GGSL
NJARET20010-16069-00585-60000072D0000382D0000200001DCLLF412  GGSL
NJARET20010-16069-00597-90000012D0000244D0002700001BTK6      GGSL
NJARET20010-16069-00601-30000008D0000136D0000400002FASM4     GGSL
NJARET20010-16069-00602-00000008D0000284D0000400001FALG4     GGSL
NJARET20010-16069-00609-90000012D0000163D0000100000PTP12     GGSL
NJARET20010-16069-00622-80000036D0000143D0000700002CP612     GGSL
NJARET20010-16069-00626-60000030D0000170D0000000000PTG210    GGSL
NJARET20010-17500-08120-00000204D0000246D004180000008120     GGSL
NJARET20010-17500-08150-70000324D0000441D000000000008150     GGSL
NJARET20010-17500-90206-20000198D0004196D001390001990206     GGSL
NJARET20010-17500-91316-70000102D0001949D000820000891316     GGSL
NJARET20010-17500-91334-10000016D0000357D000090000091334     GGSL
NJARET20010-17500-91350-10000008D0000157D000060000591350     GGSL
NJARET20010-17500-91360-00000048D0000414D000010000091360     GGSL
NJARET20010-17500-91360-00000072D0000621D000000000091364     GGSL
NJARET20010-17500-91362-40000012D0000115D000020000091362     GGSL
NJARET20010-17500-91365-50000024D0000197D000020000091365     GGSL
NJARET20010-17500-91367-90000024D0000197D000000000091367     GGSL
NJARET20010-17500-91714-10000052D0001134D000510000091714     GGSL
NJARET20010-17500-95204-30000040D0000790D000630000095204     GGSL
NJARET20010-17500-95314-90000008D0000215D000010000195314     GGSL
NJARET20010-17500-95334-70000004D0000098D000010000095334     GGSL
NJARET20010-17500-95404-70000012D0000394D000020000095404     GGSL
NJARET20010-17849-19011-30000084D0001023D00000000001W        GGSL
NJARET20010-17849-32372-60000010D0000050D0004900000CLA323    GGSL
NJARET20010-17849-32672-70000025D0000124D0003300000CLA326    GGSL
NJARET20010-18222-00018-00000002D0000309D0000300000PP18      GGSL
NJARET20010-18222-00101-90000054D0000164D0002700000CS06101   GGSL
NJARET20010-18222-00103-30000042D0000127D0003800000CS06103   GGSL
NJARET20010-18222-00105-70000078D0000236D0007200000CS06105   GGSL
NJARET20010-18222-00107-10000048D0000187D0003900000CS06107   GGSL
NJARET20010-18222-00109-50000126D0000382D0003900000CS06109   GGSL
NJARET20010-18222-00110-10000048D0000145D0003300000CS06110   GGSL
NJARET20010-18222-00208-50000018D0000085D0000000000CS06208   GGSL
NJARET20010-18222-00213-90000018D0000074D0001300002CS06213   GGSL
NJARET20010-18222-00246-70000006D0000036D0000000000CS246     GGSL
NJARET20010-18222-00501-70004068D0004559D0000000000CS12501   GGSL
NJARET20010-18222-00503-10000144D0000294D0004700000CS503     GGSL
NJARET20010-18222-00505-50000480D0000514D0007400002CS12505   GGSL
NJARET20010-18222-00507-90000924D0001253D0004700000CS12507   GGSL
NJARET20010-18222-00509-30001368D0002261D0007200002CS12509   GGSL
NJARET20010-18222-00513-00000060D0000123D0001200000CS12513   GGSL
NJARET20010-18222-00526-00000276D0000818D0005500001CS06526   GGSL
NJARET20010-18222-00527-70001464D0001910D0008600000CS12527   GGSL
NJARET20010-18222-00529-10000024D0000042D0001600000CS12529   GGSL
NJARET20010-18222-00531-40000804D0001786D0005100000CS12531   GGSL
NJARET20010-18222-00535-20000036D0000047D0002100000CS12535   GGSL
NJARET20010-18222-00543-70000156D0000212D0003200000CS12543   GGSL
NJARET20010-18222-00545-10000024D0000042D0001600000CS12545   GGSL
NJARET20010-18222-00553-60003012D0005186D0000000000CS12553   GGSL
NJARET20010-18222-00559-80000672D0000876D0005400001CS12559   GGSL
NJARET20010-18222-00561-10000120D0000157D0003100000CS12561   GGSL
NJARET20010-18222-00563-50000732D0001225D0004400000CS12563   GGSL
NJARET20010-18222-00565-90000036D0000063D0001100000CS12565   GGSL
NJARET20010-18222-00566-60000024D0000043D0000600000CS12566   GGSL
NJARET20010-18222-00569-70001692D0002900D0007200001CS12569   GGSL
NJARET20010-18222-00571-00000144D0000300D0004000000CS12571   GGSL
NJARET20010-18222-00583-30000768D0001607D0004600000CS12583   GGSL
NJARET20010-18222-00608-30000552D0001893D0000000000CS608     GGSL
NJARET20010-18222-00610-60000012D0000056D0000000000CS610     GGSL
NJARET20010-18222-00611-30000132D0000447D0000000000CS611     GGSL
NJARET20010-18222-00680-90000012D0000028D0001700000CS12680   GGSL
NJARET20010-18222-00689-20000024D0000055D0000000000CS12689   GGSL
NJARET20010-18222-00701-10000216D0000369D0004200000CS701     GGSL
NJARET20010-18222-00707-30000024D0000074D0000900000CS707     GGSL
NJARET20010-18222-00709-70000018D0000086D0000100001CS709     GGSL
NJARET20010-18222-00727-10000018D0000121D0000000000CS727     GGSL
NJARET20010-18222-00730-10001064D0002078D0010400002CS730     GGSL
NJARET20010-18222-00749-30000030D0000166D0000900000CS749     GGSL
NJARET20010-18222-00753-00000216D0001067D0000000000CS753     GGSL
NJARET20010-18222-00755-40000008D0000027D0000000000CS755     GGSL
NJARET20010-18222-00950-30000120D0000126D0000600004CS950     GGSL
NJARET20010-18222-00954-10000024D0000129D0000000000CS08954   GGSL
NJARET20010-18222-02501-50000003D0000030D0010100052CSV08501NLGGSL
NJARET20010-18222-50501-20000948D0000822D0016800097CS1250501XGGSL
NJARET20010-18222-50527-20000444D0000388D0019400010CS1250527XGGSL
NJARET20010-18222-50559-30000780D0000677D0020100000CS1250559XGGSL
NJARET20010-18506-00010-30000006D0000047D00001000000106      GGSL
NJARET20010-18506-00021-90000024D0000367D00001000000216      GGSL
NJARET20010-18506-00102-50000288D0001256D000510000310212     GGSL
NJARET20010-18506-00106-30000008D0000122D00000000001064      GGSL
NJARET20010-18506-00110-00000528D0003928D001060000611012     GGSL
NJARET20010-18506-00111-70000015D0000248D00008000041115      GGSL
NJARET20010-18506-00114-80000012D0000071D00006000001146      GGSL
NJARET20010-18506-00116-20000468D0003271D000410000911612     GGSL
NJARET20010-18506-00117-90000114D0001223D00026000011176      GGSL
NJARET20010-18506-00121-60000018D0000156D00043000001216      GGSL
NJARET20010-18506-00122-30000132D0000722D0000700000122       GGSL
NJARET20010-18506-00123-00000084D0000459D0001200001123       GGSL
NJARET20010-18506-00125-40000204D0001016D0003100010125       GGSL
NJARET20010-18506-00130-80000120D0000662D0003200011130       GGSL
NJARET20010-18506-00135-30000012D0000174D0001300005135       GGSL
NJARET20010-18506-00136-00000012D0000108D0000300003136       GGSL
NJARET20010-18506-01139-00000032D0000341D00002000021139      GGSL
NJARET20010-18506-01140-60000008D0000131D00004000031140      GGSL
NJARET20010-18506-02000-20000012D0000107D00005000012000      GGSL
NJARET20010-18506-02001-90000030D0000343D00018000012001      GGSL
NJARET20010-19200-00095-60000084D0000200D003830000000027     GGSL
NJARET20010-19200-00619-40000096D0000241D016260000000706     GGSL
NJARET20010-19200-00888-40000120D0000224D011420000000888     GGSL
NJARET20010-19200-02522-50000144D0000253D003030000002522     GGSL
NJARET20010-19200-02569-00000216D0000440D003090000002569     GGSL
NJARET20010-19200-02699-40000144D0000377D001480000002699     GGSL
NJARET20010-19200-02845-50000096D0000319D003680000028455     GGSL
NJARET20010-19200-05432-40000054D0000219D001050000075057     GGSL
NJARET20010-19200-74186-60000180D0000620D003640000074186     GGSL
NJARET20010-19200-75055-40000156D0000281D002510000075055     GGSL
NJARET20010-19200-75352-40000132D0000293D002610000075352     GGSL
NJARET20010-19200-76878-80000108D0000209D001550000076878     GGSL
NJARET20010-19200-76879-50000108D0000185D002160000076879     GGSL
NJARET20010-19200-78033-90000036D0000123D00183000001920078033GGSL
NJARET20010-19200-78625-60000108D0000231D002660000078625     GGSL
NJARET20010-19200-78626-30000108D0000231D004170000078626     GGSL
NJARET20010-19200-78630-00000108D0000231D001980000078630     GGSL
NJARET20010-19200-78631-70000081D0000187D002360000078631     GGSL
NJARET20010-19200-78849-60000384D0001855D016650000078849     GGSL
NJARET20010-19200-78914-10000108D0000210D002570000078914     GGSL
NJARET20010-19200-79326-10000576D0002837D004160000079326     GGSL
NJARET20010-19200-79329-20000288D0001403D010880000079329     GGSL
NJARET20010-19200-79329-20000348D0001712D000000000079329M    GGSL
NJARET20010-19200-79830-30000052D0000435D003860000079830     GGSL
NJARET20010-19200-79831-00000120D0000422D002590000079831     GGSL
NJARET20010-19200-79838-90000018D0000049D001970000079838     GGSL
NJARET20010-19200-80306-90000012D0000068D001080000180306     GGSL
NJARET20010-19200-80313-70000108D0000217D003040000080313     GGSL
NJARET20010-19200-80833-00000132D0000452D004400000080833     GGSL
NJARET20010-19200-81146-00000108D0000265D000550000081146     GGSL
NJARET20010-19200-81545-10000096D0000327D003390000081545     GGSL
NJARET20010-19200-81700-40000102D0000388D000980000081700     GGSL
NJARET20010-19200-82043-10004112D0010645D004040000082043     GGSL
NJARET20010-19200-83262-50000084D0000209D00169000001920082362GGSL
NJARET20010-19200-83623-40000006D0000047D008440000083623     GGSL
NJARET20010-19200-83721-70000312D0000792D009100000083721     GGSL
NJARET20010-19200-83722-40000036D0000085D003390000083722     GGSL
NJARET20010-19200-83925-90000081D0000175D001540000083925     GGSL
NJARET20010-19200-84251-80000266D0002226D000450000084251     GGSL
NJARET20010-19200-89289-60000234D0000601D002500000089289     GGSL
NJARET20010-19200-89868-30000024D0000058D000560000089868     GGSL
NJARET20010-19200-93010-90000300D0001421D012680000093010     GGSL
NJARET20010-19200-93043-70001680D0001278D002440000093043     GGSL
NJARET20010-19200-94121-10000192D0000983D001290000094121     GGSL
NJARET20010-19200-94122-80000060D0000307D000860000094122     GGSL
NJARET20010-19200-96082-30000198D0000341D001920000096082     GGSL
NJARET20010-19200-97181-20000006D0000022D001480000097181     GGSL
NJARET20010-19200-98665-60000016D0000071D001760000098665     GGSL
NJARET20010-19263-25010-70000005D0000356D00020000002501      GGSL
NJARET20010-19263-25030-50000016D0001896D00021000012503      GGSL
NJARET20010-19263-25035-00000016D0000436D0002200001250350    GGSL
NJARET20010-19263-25040-40000009D0001170D00001000002504      GGSL
NJARET20010-19263-25045-90000008D0000277D0003400020250450    GGSL
NJARET20010-19263-25050-30000001D0000156D00001000002505      GGSL
NJARET20010-19263-25160-90000018D0000178D00000000002516      GGSL
NJARET20010-19263-25200-20000004D0000100D00000000002520      GGSL
NJARET20010-19263-25210-10000006D0000187D00000000002521      GGSL
NJARET20010-19263-25500-30000075D0000081D00006000012550      GGSL
NJARET20010-19263-25510-20000550D0000715D00143000122551      GGSL
NJARET20010-19263-25520-10000725D0001117D00170000222552      GGSL
NJARET20010-19263-25530-00001375D0002406D00197000122553      GGSL
NJARET20010-19263-25540-90001325D0002769D00157000262554      GGSL
NJARET20010-19263-25550-80000475D0001259D00018000022555      GGSL
NJARET20010-19263-25680-20000004D0000074D00033000002568      GGSL
NJARET20010-19263-25750-20000032D0000163D00042000012575      GGSL
NJARET20010-19263-25760-10000060D0000390D00040000052576      GGSL
NJARET20010-19263-25770-00000225D0002300D00066000162577      GGSL
NJARET20010-19263-25780-90000120D0002208D00087000112578      GGSL
NJARET20010-19263-25941-40002000D0000120D00011000002594BK    GGSL
NJARET20010-19263-25950-60000324D0000386D00025000062595      GGSL
NJARET20010-19263-26170-70000002D0000053D00009000092617      GGSL
NJARET20010-19263-26210-00000036D0000270D00080000072621      GGSL
NJARET20010-19263-26280-30000001D0000028D00000000002628      GGSL
NJARET20010-19263-26300-80000168D0000388D00026000052630      GGSL
NJARET20010-19263-26310-70000264D0000744D00035000032631      GGSL
NJARET20010-19263-26310-70000144D0000406D00021000012633      GGSL
NJARET20010-19263-26340-40000432D0001076D00004000012634      GGSL
NJARET20010-19263-26530-90000016D0000058D00000000002653      GGSL
NJARET20010-19263-26560-60000064D0000456D00020000112656      GGSL
NJARET20010-19263-26580-40000032D0000298D00014000002658      GGSL
NJARET20010-19962-19710-90000060D0000980D0000300002AP8595098 GGSL
NJARET20010-21344-00321-20000130D0003681D0008000014WX15064   GGSL
NJARET20010-21344-00322-90000012D0000466D0014900006WX15065   GGSL
NJARET20010-21344-00338-00000004D0001148D0010900003400338    GGSL
NJARET20010-21344-00339-70000004D0000445D0010200024400339    GGSL
NJARET20010-21344-00340-30000006D0000597D0040700014400340    GGSL
NJARET20010-21344-00343-40000024D0000183D0000700001400343    GGSL
NJARET20010-21344-00344-10000036D0000263D0000000000400344    GGSL
NJARET20010-21344-00345-80000036D0000246D0000600002400345    GGSL
NJARET20010-21344-00346-50000012D0000091D0000000000400346    GGSL
NJARET20010-21344-00347-20000048D0000586D0001200003400347    GGSL
NJARET20010-21344-00348-90000016D0000228D0000000000400348    GGSL
NJARET20010-21344-00349-60000008D0000103D0000100001400349    GGSL
NJARET20010-21344-00350-20000024D0000363D0000400004400350    GGSL
NJARET20010-21344-00354-00000030D0001490D0016300016HQ73481784GGSL
NJARET20010-21344-00355-70000018D0000894D0010400015HQ73482102GGSL
NJARET20010-21344-00361-80000022D0000528D0009600014HQ74912297GGSL
NJARET20010-21344-00362-50000002D0000147D0025400000HQMUSH    GGSL
NJARET20010-21344-00364-90000016D0005059D0015900000400364    GGSL
NJARET20010-21344-00381-60000012D0001114D0004300001JFG18031  GGSL
NJARET20010-21344-00383-00000005D0000928D0004900016JFG18024  GGSL
NJARET20010-21344-00384-70000016D0000822D0008000003JFG18013  GGSL
NJARET20010-21344-00385-40000042D0000862D0006400009JFG18011A GGSL
NJARET20010-21344-00386-10000036D0001232D0006900004JFG18011B GGSL
NJARET20010-21344-00387-80000030D0001026D0004500004JFG18012  GGSL
NJARET20010-21344-00388-50000048D0000229D0004400002JFG18001  GGSL
NJARET20010-21344-00389-20000080D0000835D0004300004JFG18004  GGSL
NJARET20010-21344-00390-80000016D0000351D0006000002JFG18010A GGSL
NJARET20010-21344-00391-50000012D0000432D0003600002JFG18010B GGSL
NJARET20010-21344-00392-20000096D0000572D0004400004JFG18002  GGSL
NJARET20010-21344-00393-90000036D0000945D0006700007JFG18008A GGSL
NJARET20010-21344-00394-60000036D0000694D0007500008JFG18008ASGGSL
NJARET20010-21344-00395-30000032D0000843D0007300005JFG18006  GGSL
NJARET20010-21344-00396-00000020D0000668D0006000006JFG18016  GGSL
NJARET20010-21344-00397-70000048D0001889D0004800006JFG18018  GGSL
NJARET20010-21344-00402-80000002D0000085D0000200002400402    GGSL
NJARET20010-21344-00403-50000022D0000454D0003900003ZT152072  GGSL
NJARET20010-21344-00404-20000012D0000595D0015500015ZT185020  GGSL
NJARET20010-21344-00405-90000011D0000725D0003700022ZT185019  GGSL
NJARET20010-21344-00406-60000004D0000386D0002700001ZT185024  GGSL
NJARET20010-21344-00407-30000011D0001446D0001900011ZT185016  GGSL
NJARET20010-21344-00408-00000006D0000338D0004900008ZT185026  GGSL
NJARET20010-21344-00409-70000216D0000825D0011900011ZT185018  GGSL
NJARET20010-21344-00410-30000008D0000259D0003900001ZT185006  GGSL
NJARET20010-21344-00411-00000018D0000587D0004800010ZT185021  GGSL
NJARET20010-21344-00412-70000006D0000229D0002500002ZT185022  GGSL
NJARET20010-21344-00413-40000024D0000030D0008500003400413    GGSL
NJARET20010-21344-00414-10000012D0000009D0009200003400414    GGSL
NJARET20010-21344-00417-20000036D0000052D0007100000400417    GGSL
NJARET20010-21344-00418-90000012D0000010D0008000000400418    GGSL
NJARET20010-21344-00420-20000072D0000805D0009100001400420    GGSL
NJARET20010-21344-00422-60000020D0000668D0004100002ZT185023  GGSL
NJARET20010-21344-00423-30000567D0056640D0085000144WX17658   GGSL
NJARET20010-21344-00718-00000144D0002559D0005900018WX17422   GGSL
NJARET20010-21344-00719-70000114D0002116D0003700016WX17413   GGSL
NJARET20010-21344-00720-30000216D0003238D0002600026WX17409   GGSL
NJARET20010-21344-00721-00000104D0002027D0000000002WX17230   GGSL
NJARET20010-21344-00722-70000064D0001247D0000100001WX17401   GGSL
NJARET20010-21344-00723-40000124D0002266D0001500015WX17402   GGSL
NJARET20010-21344-00725-80000022D0000981D0009800004HQ748416  GGSL
NJARET20010-21344-00726-50000010D0000446D0012700006HQ74843056GGSL
NJARET20010-21344-00727-20000024D0001070D0009200008HQ74842665GGSL
NJARET20010-21344-00729-60000020D0000993D0007200021HQ7348782 GGSL
NJARET20010-21344-00746-30000008D0000140D0032900004YS19L005  GGSL
NJARET20010-21344-00747-00000012D0000210D0032900003YS19L004  GGSL
NJARET20010-21344-00748-70000008D0000109D0032800003YS19S002  GGSL
NJARET20010-21344-00749-40000008D0000109D0032700003YS19S003  GGSL
NJARET20010-21344-00750-00000012D0000164D0032700003YS19S001  GGSL
NJARET20010-21344-00762-30000043D0004376D0052700027FDBH1901  GGSL
NJARET20010-21344-00776-00000007D0000455D0029300004FDBB1901  GGSL
NJARET20010-21344-00837-80000024D0000061D0013000000SK15020B  GGSL
NJARET20010-21344-00838-50000096D0000233D0029600000SK15008E  GGSL
NJARET20010-21964-10100-80000012D0000326D0001900000A6F       GGSL
NJARET20010-21964-10110-70000012D0000082D0000600000A6T       GGSL
NJARET20010-21964-10121-30000018D0000528D0000300000A6RP      GGSL
NJARET20010-21964-10133-60000012D0000352D0000600001TH3RP     GGSL
NJARET20010-21964-10134-30000018D0000386D0000900000BUF16     GGSL
NJARET20010-21964-10200-50000012D0000570D0001500000B7F       GGSL
NJARET20010-21964-10211-10000036D0000326D0000700000OMT       GGSL
NJARET20010-21964-10218-00000012D0000027D0000100000WN        GGSL
NJARET20010-21964-10220-30000002D0000122D0000700000B72       GGSL
NJARET20010-21964-10305-70000003D0000180D0001200000BTG       GGSL
NJARET20010-21964-10315-60000004D0000145D0002000000SQG       GGSL
NJARET20010-21964-10320-00000006D0000068D0000300000SRG       GGSL
NJARET20010-21964-10322-40000002D0000080D0000900000CPF       GGSL
NJARET20010-21964-10350-70000012D0000292D0001200000X1        GGSL
NJARET20010-21964-10360-60000024D0000633D0000700001W1        GGSL
NJARET20010-21964-10370-50000066D0000739D0002200000OWF       GGSL
NJARET20010-21964-10380-40000001D0000048D0000800002DCF       GGSL
NJARET20010-21964-10386-60000078D0000910D0001200000CUTE      GGSL
NJARET20010-21964-10450-40000006D0000033D0000200000FF        GGSL
NJARET20010-21964-10461-00000024D0000403D0002500000LF4       GGSL
NJARET20010-21964-10466-50000018D0000290D0001300000WH3       GGSL
NJARET20010-21964-10470-20000006D0000150D0001300000H82       GGSL
NJARET20010-21964-10481-80000042D0000249D0001200000AM        GGSL
NJARET20010-21964-10482-50000012D0000071D0000600000AMO       GGSL
NJARET20010-21964-10485-60000012D0000114D0000600000RS3HC     GGSL
NJARET20010-21964-10486-30000012D0000124D0000900000RS3WC     GGSL
NJARET20010-21964-10489-40000006D0000050D0000200000BOWM      GGSL
NJARET20010-21964-10901-10000012D0000041D0000100000CPR       GGSL
NJARET20010-21964-20061-90000011D0000629D0001200000SDC       GGSL
NJARET20010-21964-20070-10000002D0000081D0000000000RETRO     GGSL
NJARET20010-21964-20075-60000002D0000186D0001000000B7DC      GGSL
NJARET20010-21964-20500-30000006D0000753D0004100000YF        GGSL
NJARET20010-21964-20510-20000016D0001331D0002400000YCPD90    GGSL
NJARET20010-21964-20520-10000048D0003585D0004000022YCPW180   GGSL
NJARET20010-21964-20520-10000002D0000157D0000000000YCPW180MB GGSL
NJARET20010-21964-20530-00000006D0000501D0002800000YCPT360   GGSL
NJARET20010-21964-20707-60000006D0000073D0000400001ACDCADAPT GGSL
NJARET20010-21964-25241-00000012D0000352D0000600000CC12S     GGSL
NJARET20010-21964-25242-70000024D0000876D0001500000CC18S     GGSL
NJARET20010-21964-25243-40000006D0000262D0000800003CC24S     GGSL
NJARET20010-21964-25244-10000018D0000528D0000600000CC12N     GGSL
NJARET20010-21964-25245-80000006D0000219D0001200000CC18N     GGSL
NJARET20010-21964-25256-40000003D0000073D0000400000CC12FMX   GGSL
NJARET20010-21964-30410-20000006D0000077D0000300000PSFS      GGSL
NJARET20010-21964-40043-90000024D0000430D0001300000CJM8G     GGSL
NJARET20010-21964-40044-60000001D0000016D0000000000CJM8BX    GGSL
NJARET20010-21964-40053-80000090D0001995D0001900000CJM15G    GGSL
NJARET20010-21964-40063-70000024D0000687D0000600000CJM23G    GGSL
NJARET20010-21964-40096-50000012D0000035D0000900000JFBIDBK   GGSL
NJARET20010-21964-41073-50000024D0000497D0000900001CJTHM15Y  GGSL
NJARET20010-21964-41086-50000018D0000296D0000400000CJTHM8Y   GGSL
NJARET20010-21964-50043-60000012D0000266D0000300000CJM13GP   GGSL
NJARET20010-21964-50059-70000018D0000451D0000000000CJM13FSY  GGSL
NJARET20010-21964-50100-60000012D0000155D0000700000SKYHK     GGSL
NJARET20010-21964-50111-20000012D0000087D0000300000WHK       GGSL
NJARET20010-21964-50227-00000006D0000031D0000000000SWH8      GGSL
NJARET20010-21964-60100-30000004D0000120D0000000000GS        GGSL
NJARET20010-21964-60120-10000006D0000113D0000100000UC        GGSL
NJARET20010-21964-60250-50000006D0000025D0000500000ADPT      GGSL
NJARET20010-21964-60527-80000001D0000029D0000000000UPAX      GGSL
NJARET20010-21964-60528-50000006D0000113D0000000000RLS       GGSL
NJARET20010-21964-60536-00000001D0000019D0001400000SAMX      GGSL
NJARET20010-21964-60540-70000006D0000037D0000000000BHM       GGSL
NJARET20010-21964-70101-70000004D0000046D0000500000SS2       GGSL
NJARET20010-21964-70202-10000048D0000326D0000500000WWM       GGSL
NJARET20010-21964-80100-70000012D0000100D0000600001BFB       GGSL
NJARET20010-21964-92006-70000001D0000087D0002700000YCPW180M  GGSL
NJARET20010-22179-10011-40000006D0000060D0000000000LG3104    GGSL
NJARET20010-22179-10012-10000072D0000945D0000000000LG3105    GGSL
NJARET20010-22179-10077-00000048D0000391D0000000000LG7150    GGSL
NJARET20010-22179-10081-70000024D0000149D0000000000LG7204    GGSL
NJARET20010-22179-10084-80000066D0000597D0002600000LG7220    GGSL
NJARET20010-22179-10096-10000012D0000267D0000200000LG5328    GGSL
NJARET20010-22179-10106-70000018D0000445D0000500001LG5512    GGSL
NJARET20010-22179-10124-10000240D0001385D0006700001LG6515    GGSL
NJARET20010-22179-10139-50000012D0000062D0000200000LG1130    GGSL
NJARET20010-22179-10140-10000006D0000763D0000000000LG6520    GGSL
NJARET20010-22179-10151-70000010D0000407D0000000000LG7117    GGSL
NJARET20010-22179-10157-90000054D0001170D0001300001LG6530    GGSL
NJARET20010-22179-10163-00000048D0000688D0002100000LG6150    GGSL
NJARET20010-22179-10185-20000162D0001869D0007000003LG6500    GGSL
NJARET20010-22179-10185-20000320D0002585D000040000110032     GGSL
NJARET20010-22179-10186-90000072D0003017D0000300000LG6555    GGSL
NJARET20010-22179-10230-90000012D0000059D0000900000LG8800    GGSL
NJARET20010-22179-10244-60000024D0000578D0000900000LG6135    GGSL
NJARET20010-22179-10246-00000012D0000204D0003500001LG6570    GGSL
NJARET20010-22179-10248-40000048D0000408D0007200001LG6575    GGSL
NJARET20010-22179-10257-60000060D0000995D0001000000LG3190    GGSL
NJARET20010-22179-10259-00000006D0000339D0000400000LG6585    GGSL
NJARET20010-22179-10266-80000012D0000222D0000600001LG6145    GGSL
NJARET20010-22179-10270-50000032D0000366D0000000000LG7115    GGSL
NJARET20010-22179-10326-90000048D0001422D0001500005LG5482    GGSL
NJARET20010-22179-10327-60000072D0000640D0001300003LG6148    GGSL
NJARET20010-22179-10375-70000006D0000051D0000000000LG6299    GGSL
NJARET20010-22179-10377-10000024D0000267D0000200000LG6294    GGSL
NJARET20010-22179-10390-00000096D0000954D0006500000LG6332    GGSL
NJARET20010-22179-10399-30000012D0000084D0000100000LG7198    GGSL
NJARET20010-22179-10408-20000624D0005353D0002800002LG6338    GGSL
NJARET20010-22179-10417-40000004D0000345D0000000000LG6142    GGSL
NJARET20010-22179-10419-80000060D0000274D0000300000LG6166    GGSL
NJARET20010-22179-10420-40000012D0000133D0000000000LG6168    GGSL
NJARET20010-22179-10426-60000036D0000086D0000700003LG6196    GGSL
NJARET20010-22179-10427-30000012D0000118D0000200000LG6217    GGSL
NJARET20010-22179-10429-70000072D0001252D0000800002LG6334    GGSL
NJARET20010-22179-10434-10000036D0000331D0000900002LG6133    GGSL
NJARET20010-22179-10448-80000024D0000264D0001000000LG3174    GGSL
NJARET20010-22179-10454-90000012D0000136D0001100001LG3303    GGSL
NJARET20010-22179-10455-60000012D0000211D0000100000LG3307    GGSL
NJARET20010-22179-10461-70000024D0000219D0000500005LG3154    GGSL
NJARET20010-22179-10471-60000024D0000237D0001300009LG6128    GGSL
NJARET20010-22179-10481-50000084D0001179D0001000000LG5592    GGSL
NJARET20010-22179-10490-70000012D0000103D0000300003LG6302    GGSL
NJARET20010-22179-10517-10000006D0000133D0001300000LG3176    GGSL
NJARET20010-22401-00301-50000058D0000604D0007600008THD20     GGSL
NJARET20010-22401-00350-30000024D0000360D0000900000EDG20GMC  GGSL
NJARET20010-22401-00356-50000024D0000306D0000000000NDE20MC   GGSL
NJARET20010-22401-00364-00000004D0000053D0000000000EER8DB    GGSL
NJARET20010-22401-00440-10000033D0000830D0000500000PRO40     GGSL
NJARET20010-22401-00740-20000041D0000613D0015300000DBRC20    GGSL
NJARET20010-22401-00760-00000006D0000210D0001900019RD60P     GGSL
NJARET20010-22401-10085-10000012D0000139D0000000000VPI20     GGSL
NJARET20010-22401-10087-50000072D0000562D0001000001EAR20TMC  GGSL
NJARET20010-22401-10089-90000004D0000060D0000100000BBC20LB   GGSL
NJARET20010-23075-03312-40000020D0000036D0000000000FR312B    GGSL
NJARET20010-23075-03407-70000044D0000092D0000000000FR407     GGSL
NJARET20010-23075-05032-90000024D0000053D0000200000FS32      GGSL
NJARET20010-23865-08808-20000036D0000169D00011000008808      GGSL
NJARET20010-23865-09904-00000252D0001825D00027000009904      GGSL
NJARET20010-23865-09908-80000216D0002693D00025000009908      GGSL
NJARET20010-23865-09910-10000152D0002379D00064000009910      GGSL
NJARET20010-23865-09912-50000880D0011537D000040000209912     GGSL
NJARET20010-23865-09915-60000030D0000637D000400000009915     GGSL
NJARET20010-23865-09983-50000224D0000692D00044000009983      GGSL
NJARET20010-23883-01055-30000024D0000076D00000000001055      GGSL
NJARET20010-23883-16100-20000323D0002805D005730014716100     GGSL
NJARET20010-23883-16200-90000009D0000163D000880003116200     GGSL
NJARET20010-23883-20002-20000012D0000236D000250000020002     GGSL
NJARET20010-23883-20003-90000001D0000027D000070000020003     GGSL
NJARET20010-23883-20020-60000005D0000113D000320000020020     GGSL
NJARET20010-23883-21220-90000003D0000208D000060000021220XP   GGSL
NJARET20010-23883-60100-30000002D0000122D000000000060100     GGSL
NJARET20010-23883-61800-10000010D0000625D000610000861800     GGSL
NJARET20010-23883-63800-90000007D0000637D000010000163800     GGSL
NJARET20010-23883-81000-90000022D0001885D000130000081000A    GGSL
NJARET20010-24114-20430-70000025D0000160D0002600002204309    GGSL
NJARET20010-24114-20480-20000025D0000160D0002500001204809    GGSL
NJARET20010-24114-22050-50000003D0000103D0000200000220500    GGSL
NJARET20010-24114-30677-30000096D0000413D0001200000776777    GGSL
NJARET20010-24114-70102-80000275D0000506D0006500004701002    GGSL
NJARET20010-24114-70609-20000025D0000109D0002200001706009    GGSL
NJARET20010-24114-70807-30000275D0001092D0002300002708073    GGSL
NJARET20010-24114-71609-10000075D0000458D0001300004716009    GGSL
NJARET20010-24114-71673-20000250D0001633D0000900002716073    GGSL
NJARET20010-24114-74009-60000425D0002057D0001600001704009    GGSL
NJARET20010-24114-74185-70000020D0000280D0000600000741854    GGSL
NJARET20010-24114-74209-00000025D0000160D0000800001704209    GGSL
NJARET20010-24114-74509-10000075D0000479D0000900003704509    GGSL
NJARET20010-24114-74712-50000300D0000243D0001300004742012A   GGSL
NJARET20010-24114-74712-50000075D0000245D0000400001742712    GGSL
NJARET20010-24114-74718-70000250D0000240D0001300004742018A   GGSL
NJARET20010-24114-74718-70000050D0000177D0000200002742718    GGSL
NJARET20010-24114-74809-20000150D0000959D0001600003704809    GGSL
NJARET20010-24114-74929-70000325D0002077D0000700003704929    GGSL
NJARET20010-24114-75042-20000010D0000068D0000100000750642    GGSL
NJARET20010-24114-77077-20000180D0000349D0000000000 770077   GGSL
NJARET20010-24114-77809-90000012D0000043D0000100000778009    GGSL
NJARET20010-24654-00806-90000006D0000056D0000100000971816    GGSL
NJARET20010-24654-05102-70000138D0000749D000460000151026     GGSL
NJARET20010-24654-05462-20000024D0000274D000000000054624     GGSL
NJARET20010-24654-05922-10000072D0000897D00017000015926      GGSL
NJARET20010-24654-05922-10000006D0001570D00008000025926DS    GGSL
NJARET20010-24654-05923-80000004D0000108D00001000005929      GGSL
NJARET20010-24654-05931-30000006D0000089D00006000005935      GGSL
NJARET20010-24654-05931-30000001D0000200D00001000005935DS    GGSL
NJARET20010-24654-05962-70000018D0000218D00024000005962      GGSL
NJARET20010-24654-05962-70000036D0006762D00079000295962DS    GGSL
NJARET20010-24654-05981-80000001D0000237D00006000005981DS    GGSL
NJARET20010-24654-09334-80000167D0004325D00386000659334      GGSL
NJARET20010-24654-30506-90000042D0000185D000190001130506     GGSL
NJARET20010-24654-51630-40000006D0000046D00001000005163      GGSL
NJARET20010-24654-51704-20000008D0000080D000000000051704     GGSL
NJARET20010-24654-51806-30000036D0000188D000070000151806     GGSL
NJARET20010-24654-55085-80000042D0000228D000100000250856     GGSL
NJARET20010-24654-55107-70000004D0000078D000080000051074     GGSL
NJARET20010-24654-55110-70000138D0000749D000800000951106     GGSL
NJARET20010-24654-55118-30000084D0000656D000120000051186     GGSL
NJARET20010-24654-55450-40000018D0000098D000220000454506     GGSL
NJARET20010-24654-65452-50000240D0001303D000840000454526     GGSL
NJARET20010-25033-01703-00000054D0000600D000220000301703     GGSL
NJARET20010-25033-01707-80000024D0000290D000130000001707     GGSL
NJARET20010-25033-01713-90000024D0000305D000250000101713     GGSL
NJARET20010-25033-01717-70000012D0000202D000150000101717     GGSL
NJARET20010-25033-01723-80000008D0000186D000220000101723     GGSL
NJARET20010-25033-01727-60000008D0000261D000060000001727     GGSL
NJARET20010-25033-01729-00000024D0000836D000000000001729M    GGSL
NJARET20010-25033-01735-10000012D0000498D000030000001735M    GGSL
NJARET20010-25033-02019-10000164D0008738D000150000102019     GGSL
NJARET20010-25033-02088-70000018D0000248D000070000102088     GGSL
NJARET20010-25033-02089-40000036D0000315D000090000102089     GGSL
NJARET20010-25033-02099-30000012D0000105D000010000002099     GGSL
NJARET20010-25033-02134-10000018D0000328D000040000002134     GGSL
NJARET20010-25033-02135-80000018D0000479D000030000002135     GGSL
NJARET20010-25033-02144-00000006D0000079D000040000002144     GGSL
NJARET20010-25033-02145-70000006D0000095D000050000102145     GGSL
NJARET20010-25033-02175-40000004D0000159D000200000002175     GGSL
NJARET20010-25033-02200-30000004D0000256D000010000002200     GGSL
NJARET20010-25033-02211-90000004D0000153D000120000002211     GGSL
NJARET20010-25033-02212-60000010D0000913D000130000002212     GGSL
NJARET20010-25033-02213-30000006D0000611D000030000002213     GGSL
NJARET20010-25033-02215-70000002D0000228D000070000002215     GGSL
NJARET20010-25033-02215-70000003D0000305D000030000002215X    GGSL
NJARET20010-25033-02399-40000012D0000056D000050000002399     GGSL
NJARET20010-25033-02467-00000008D0000230D000150000002467     GGSL
NJARET20010-25033-02475-50000001D0000255D000000000002475     GGSL
NJARET20010-25033-02477-90000008D0000205D000370000002477     GGSL
NJARET20010-25033-02479-30000008D0000214D000000000002479     GGSL
NJARET20010-25033-02481-60000016D0000663D000000000002481     GGSL
NJARET20010-25033-02501-10000040D0000385D000260000402501     GGSL
NJARET20010-25033-02510-30000084D0000934D000120000402510     GGSL
NJARET20010-25033-02519-60000076D0002312D000360000302519     GGSL
NJARET20010-25033-02520-20000040D0000844D000240000402520     GGSL
NJARET20010-25033-02521-90000032D0000759D000290000302521     GGSL
NJARET20010-25033-02522-60000043D0002269D000960000802522     GGSL
NJARET20010-25033-02523-30000032D0001828D000640000602523     GGSL
NJARET20010-25033-02525-70000033D0002119D000730000602525     GGSL
NJARET20010-25033-02527-10000022D0001544D000560000802527     GGSL
NJARET20010-25033-02650-60000010D0001079D000200000002650     GGSL
NJARET20010-25033-02660-50000008D0001185D000890004002660     GGSL
NJARET20010-25033-02670-40000014D0003170D000060000002670     GGSL
NJARET20010-25033-02680-30000006D0001068D000120000002680     GGSL
NJARET20010-25033-02683-40000006D0001858D000020000002683     GGSL
NJARET20010-25033-02720-60000025D0002289D000550000202720     GGSL
NJARET20010-25033-02722-00000031D0003265D000210000302722     GGSL
NJARET20010-25033-02728-20000017D0002457D000130000002728     GGSL
NJARET20010-25033-02750-30000014D0002500D000070000002750     GGSL
NJARET20010-25033-02920-00000002D0000277D000040000002920     GGSL
NJARET20010-25033-02940-80000008D0001475D000040000002940     GGSL
NJARET20010-25033-03760-10000060D0000170D000020000003760     GGSL
NJARET20010-25033-03770-00000008D0000204D000000000003770     GGSL
NJARET20010-25033-03800-40000064D0001462D000280001403800     GGSL
NJARET20010-25033-03801-10000064D0001391D000590001403801     GGSL
NJARET20010-25033-03802-80000040D0000850D000100001603802     GGSL
NJARET20010-25033-04511-80000004D0000327D000000000004511     GGSL
NJARET20010-25033-04520-00000076D0005182D000000000004520     GGSL
NJARET20010-25033-04540-80000030D0002755D000030000004540     GGSL
NJARET20010-25033-04560-60000008D0001006D000000000004560     GGSL
NJARET20010-25033-05430-10000002D0000190D000030000005430     GGSL
NJARET20010-25033-05615-20000003D0000663D000100000005615     GGSL
NJARET20010-25033-05625-10000002D0000472D000020000005625     GGSL
NJARET20010-25033-12035-80000001D0000055D000010000012035     GGSL
NJARET20010-25033-12195-90000174D0001105D000120000012195     GGSL
NJARET20010-25033-12202-40000072D0000570D000260000112202     GGSL
NJARET20010-25033-12203-10000108D0000382D000110000012203     GGSL
NJARET20010-25033-12204-80000150D0000831D000310000012204     GGSL
NJARET20010-25033-12205-50000006D0000055D000020000012205     GGSL
NJARET20010-25033-12251-20000006D0000023D000010000012251     GGSL
NJARET20010-25033-12285-70000024D0000221D000110000012285     GGSL
NJARET20010-25033-12305-20000006D0000099D000010000012305     GGSL
NJARET20010-25033-12403-50000003D0000381D000040000012403     GGSL
NJARET20010-25033-12410-30000001D0000155D000020000012410     GGSL
NJARET20010-25033-12411-00000001D0000170D000010000012411     GGSL
NJARET20010-25033-12455-40000008D0000231D000000000012455     GGSL
NJARET20010-25033-12505-60000036D0000198D000080000012505     GGSL
NJARET20010-25033-12535-30000018D0000055D000000000012535     GGSL
NJARET20010-25033-12545-20000024D0000074D000000000012545     GGSL
NJARET20010-25033-12575-90000018D0000200D000000000012575     GGSL
NJARET20010-25033-12585-80000006D0000076D000020000012585     GGSL
NJARET20010-25033-12730-20000150D0001307D000130000712730     GGSL
NJARET20010-25033-12733-30000014D0000075D000100000012733     GGSL
NJARET20010-25033-12741-80000014D0000072D000160000012741     GGSL
NJARET20010-25033-12756-20000012D0000228D000030000112756     GGSL
NJARET20010-25033-12776-00000006D0000215D000010000012776     GGSL
NJARET20010-25033-12784-50000048D0000187D000010000012784     GGSL
NJARET20010-25033-12785-20000018D0000085D000060000412785     GGSL
NJARET20010-25033-12955-90000018D0000176D000050000012955     GGSL
NJARET20010-25033-12971-90000005D0000211D000130000012971     GGSL
NJARET20010-25033-12972-50000010D0000495D000210000012972     GGSL
NJARET20010-25033-12981-80000004D0000060D000000000012981     GGSL
NJARET20010-25033-12982-50000004D0000092D000000000012982     GGSL
NJARET20010-25033-12984-90000006D0000173D000000000112984     GGSL
NJARET20010-25033-20220-70000002D0000427D000000000020220     GGSL
NJARET20010-25033-20225-20000002D0000435D000000000020225     GGSL
NJARET20010-25033-20230-60000002D0000535D000000000020230     GGSL
NJARET20010-25033-20235-10000002D0000563D000000000020235     GGSL
NJARET20010-25033-22780-40000001D0000615D000000000022780     GGSL
NJARET20010-25033-25021-50000001D0000443D000010000025021     GGSL
NJARET20010-25033-25023-90000002D0000566D000000000025023     GGSL
NJARET20010-25033-90101-80000002D0000344D000000000090101     GGSL
NJARET20010-25033-90102-50000002D0000385D000000000090102     GGSL
NJARET20010-25033-90105-60000002D0000656D000000000090105     GGSL
NJARET20010-25033-90106-30000002D0000714D000000000090106     GGSL
NJARET20010-25531-01234-60000009D0000303D000080000075160     GGSL
NJARET20010-25849-00078-30000060D0000634D00002000020078P     GGSL
NJARET20010-25849-00110-00000050D0000370D00004000030110P     GGSL
NJARET20010-25849-00205-30000175D0002487D00010000020205RG    GGSL
NJARET20010-25849-00262-60000100D0000532D00001000000262P     GGSL
NJARET20010-25849-00305-00000070D0000958D00010000000305RG    GGSL
NJARET20010-25849-10381-10000120D0003491D000180000710381RG   GGSL
NJARET20010-25849-10381-10000027D0000785D001490000610381RGX  GGSL
NJARET20010-25849-10910-30000084D0000359D00030000001008010RGXGGSL
NJARET20010-25849-11330-80000250D0003152D00004000021020030RG GGSL
NJARET20010-25849-20381-80000060D0001784D000080000320381RG   GGSL
NJARET20010-25881-08504-50000005D0000115D0000700001 085044   GGSL
NJARET20010-26156-91293-60000012D0000140D000000000036HE6     GGSL
NJARET20010-26175-86100-00000126D0000564D0002900014861       GGSL
NJARET20010-26432-20125-90000018D0000195D0000100001HHBS125   GGSL
NJARET20010-26432-24505-50000002D0000248D0000900000SB4500PRCGGGSL
NJARET20010-26600-89334-70000104D0000214D006910000089334     GGSL
NJARET20010-26978-02181-60000160D0000781D000390000802181     GGSL
NJARET20010-26978-02182-30000100D0000488D000380001002182     GGSL
NJARET20010-26978-02188-50000080D0000310D000270001102188     GGSL
NJARET20010-26978-02241-70000090D0000482D000520001902241     GGSL
NJARET20010-26978-02242-40000180D0000963D000350001102242     GGSL
NJARET20010-26978-02248-60000100D0000432D000280000702248     GGSL
NJARET20010-26978-02301-80000090D0000639D000230000602301     GGSL
NJARET20010-26978-02302-50000130D0000923D000280000902302     GGSL
NJARET20010-26978-02308-70000110D0000619D000260001402308     GGSL
NJARET20010-26978-02361-20000070D0000629D000210000902361     GGSL
NJARET20010-26978-02362-90000020D0000180D000230000802362     GGSL
NJARET20010-26978-02368-10000090D0000616D000180000702368     GGSL
NJARET20010-26978-03060-30000020D0000080D000020000203060     GGSL
NJARET20010-26978-03062-70000050D0000199D000140000403062     GGSL
NJARET20010-26978-03068-90000040D0000160D000010000103068     GGSL
NJARET20010-26978-03080- 0000020D0000148D000100000003080     GGSL
NJARET20010-26978-03082-50000040D0000296D000030000203082     GGSL
NJARET20010-26978-03088-70000040D0000296D000060000303088     GGSL
NJARET20010-26978-03100-60000015D0000185D00007000020310005   GGSL
NJARET20010-26978-03102-00000020D0000246D00005000030310205   GGSL
NJARET20010-26978-03108-20000015D0000185D00002000000310805   GGSL
NJARET20010-26978-03120-40000015D0000258D00004000000312005   GGSL
NJARET20010-26978-03122-80000020D0000344D00010000020312205   GGSL
NJARET20010-26978-03126-60000010D0000051D00000000003126      GGSL
NJARET20010-26978-03128-00000015D0000258D00007000030312805   GGSL
NJARET20010-26978-03197-60000004D0000038D000070000003197     GGSL
NJARET20010-26978-05041-00000072D0000112D000130000705041     GGSL
NJARET20010-26978-05071-70000072D0000085D000140000105071     GGSL
NJARET20010-26978-05081-60000036D0000046D000090000105081     GGSL
NJARET20010-26978-07126-20000010D0000160D000000000007126     GGSL
NJARET20010-26978-08060-80000050D0000200D000100000308060     GGSL
NJARET20010-26978-08061-50000070D0000279D000020000208061     GGSL
NJARET20010-26978-08062-20000050D0000200D000090000308062     GGSL
NJARET20010-26978-08080-60000040D0000296D000100000308080     GGSL
NJARET20010-26978-08081-30000070D0000518D000020000208081     GGSL
NJARET20010-26978-08082-00000040D0000296D000130000308082     GGSL
NJARET20010-26978-08083-70000010D0000021D000000000008083     GGSL
NJARET20010-26978-08100-10000050D0000638D00002000020810005   GGSL
NJARET20010-26978-08101-80000020D0000247D00005000010810105   GGSL
NJARET20010-26978-08102-50000005D0000018D0000300000810205    GGSL
NJARET20010-26978-08120-90000025D0000430D00010000010812005   GGSL
NJARET20010-26978-08121-60000020D0000344D00006000000812105   GGSL
NJARET20010-26978-08122-30000020D0000344D00003000010812205   GGSL
NJARET20010-26978-08178-00000020D0000293D000040000008178     GGSL
NJARET20010-26978-08180-30000002D0000039D000000000008180     GGSL
NJARET20010-26978-08258-90000002D0000035D000000000008258     GGSL
NJARET20010-26978-08813-00000005D0000025D000080000008813     GGSL
NJARET20010-26978-10062-70000310D0000822D000400001010062     GGSL
NJARET20010-26978-10068-90000030D0000080D000390000610068     GGSL
NJARET20010-26978-10082-50000300D0001073D000320000210082     GGSL
NJARET20010-26978-10088-70000150D0000503D000280000310088     GGSL
NJARET20010-26978-10102-00000005D0000026D000850002310102     GGSL
NJARET20010-26978-10108-20000025D0000132D000080000510108     GGSL
NJARET20010-26978-10122-80000010D0000078D000230001110122     GGSL
NJARET20010-26978-10128-00000070D0000545D000090000510128     GGSL
NJARET20010-26978-10142-60000055D0000537D000050000310142     GGSL
NJARET20010-26978-10148-50000025D0000244D000040000310148     GGSL
NJARET20010-26978-10180-80000020D0000064D000100000310180     GGSL
NJARET20010-26978-10182-20000070D0000225D000120000310182     GGSL
NJARET20010-26978-10183-90000020D0000064D000160000210183     GGSL
NJARET20010-26978-10185-30000050D0000161D000210000310185     GGSL
NJARET20010-26978-10240-90000010D0000035D000130000310240     GGSL
NJARET20010-26978-10242-30000030D0000106D000530001110242     GGSL
NJARET20010-26978-10243-00000010D0000035D000090000210243     GGSL
NJARET20010-26978-10245-40000030D0000106D000160000710245     GGSL
NJARET20010-26978-10300-00000010D0000045D000110000210300     GGSL
NJARET20010-26978-10302-40000050D0000223D000130000210302     GGSL
NJARET20010-26978-10303-10000010D0000045D000070000110303     GGSL
NJARET20010-26978-10305-50000020D0000089D000070000110305     GGSL
NJARET20010-26978-10360-40000010D0000056D000090000210360     GGSL
NJARET20010-26978-10362-80000020D0000111D000160000110362     GGSL
NJARET20010-26978-10363-50000010D0000056D000140000110363     GGSL
NJARET20010-26978-10365-90000020D0000111D000090000110365     GGSL
NJARET20010-26978-16190-10000030D0000131D000040000316190     GGSL
NJARET20010-26978-16192-50000090D0000393D000790003816192     GGSL
NJARET20010-26978-16193-20000020D0000087D000330000916193     GGSL
NJARET20010-26978-16195-60000020D0000087D000090000516195     GGSL
NJARET20010-26978-16240-30000220D0001190D000600001916240     GGSL
NJARET20010-26978-16242-70000350D0001894D000170001516242     GGSL
NJARET20010-26978-16243-40000090D0000487D000040000116243     GGSL
NJARET20010-26978-16245-80000070D0000379D000880004316245     GGSL
NJARET20010-26978-16300-40000020D0000136D000540001616300     GGSL
NJARET20010-26978-16302-80000240D0001637D000700002316302     GGSL
NJARET20010-26978-16303-50000010D0000068D000320000916303     GGSL
NJARET20010-26978-16305-90000050D0000341D000440001516305     GGSL
NJARET20010-26978-16360-80000080D0000839D000370000816360     GGSL
NJARET20010-26978-16362-20000040D0000408D000380001016362     GGSL
NJARET20010-26978-16363-90000030D0000306D000170000516363     GGSL
NJARET20010-26978-16365-30000070D0000639D000170000716365     GGSL
NJARET20010-26978-26140-30000030D0000270D000230000526140     GGSL
NJARET20010-26978-26142-70000060D0000488D000540002726142     GGSL
NJARET20010-26978-26143-40000010D0000090D000150000326143     GGSL
NJARET20010-26978-26145-80000070D0000630D000290000826145     GGSL
NJARET20010-26978-26160-10000024D0000230D000090000626160     GGSL
NJARET20010-26978-26162-50000020D0000191D000100000626162     GGSL
NJARET20010-26978-26163-20000016D0000153D000070000626163     GGSL
NJARET20010-26978-26165-60000020D0000191D000070000726165     GGSL
NJARET20010-26978-26180-90000060D0000833D000160000226180     GGSL
NJARET20010-26978-26182-30000060D0000865D000230000326182     GGSL
NJARET20010-26978-26183-00000010D0000144D000190000226183     GGSL
NJARET20010-26978-26185-40000080D0001153D000170000126185     GGSL
NJARET20010-26978-26240-00000020D0000225D000020000226240     GGSL
NJARET20010-26978-26242-40000004D0000045D000030000326242     GGSL
NJARET20010-26978-26243-10000008D0000090D000000000026243     GGSL
NJARET20010-26978-26245-50000004D0000045D000020000226245     GGSL
NJARET20010-26978-26270-70000010D0000115D000190000126270     GGSL
NJARET20010-26978-26272-10000070D0000807D000190000126272     GGSL
NJARET20010-26978-26275-20000090D0001038D000200000426275     GGSL
NJARET20010-26978-29223-00000006D0000192D000070000029223     GGSL
NJARET20010-26978-29306-00000012D0000095D000120000029306     GGSL
NJARET20010-26978-29505-70000005D0000058D000240000029505     GGSL
NJARET20010-26978-30104-80000186D0000924D000040000330104     GGSL
NJARET20010-26978-30200-70000024D0000242D000160000430200     GGSL
NJARET20010-26978-30301-10000636D0003619D000530002630301     GGSL
NJARET20010-26978-30301-10001824D0009193D00011000003030196   GGSL
NJARET20010-26978-30312-70000108D0000136D000210000330312     GGSL
NJARET20010-26978-30402-50000132D0000723D000100000030402     GGSL
NJARET20010-26978-30407-00000096D0000216D00023000003040796   GGSL
NJARET20010-26978-30409-40000036D0000197D000020000030409     GGSL
NJARET20010-26978-30411-70000168D0000986D000060000430411     GGSL
NJARET20010-26978-30412-40000012D0000012D000000000030412     GGSL
NJARET20010-26978-30413-10000084D0000493D000030000330413     GGSL
NJARET20010-26978-30413-10002112D0007955D00011000063041396   GGSL
NJARET20010-26978-30500-80000240D0001188D000740001530500     GGSL
NJARET20010-26978-30602-90000156D0000616D000300001130602     GGSL
NJARET20010-26978-30605-00000126D0000411D000500005030605     GGSL
NJARET20010-26978-30702-60000132D0000482D000370000730702     GGSL
NJARET20010-26978-30705-70000042D0000163D000010000030705     GGSL
NJARET20010-26978-30806-10000276D0001162D000020000330806     GGSL
NJARET20010-26978-30809-20000144D0000606D000100000530809     GGSL
NJARET20010-26978-30901-30000140D0000644D000350001230901     GGSL
NJARET20010-26978-30909-90000080D0000396D000380001430909     GGSL
NJARET20010-26978-31100-90000045D0000253D000040000131100     GGSL
NJARET20010-26978-31101-60000055D0000310D000160000231101     GGSL
NJARET20010-26978-31108-50000045D0000253D000000000031108     GGSL
NJARET20010-26978-31109-20000050D0000282D000070000231109     GGSL
NJARET20010-26978-31120-70000045D0000528D000030000031120     GGSL
NJARET20010-26978-31121-40000035D0000411D000080000031121     GGSL
NJARET20010-26978-31125-20000005D0000017D000000000031125     GGSL
NJARET20010-26978-31128-30000045D0000528D000020000031128     GGSL
NJARET20010-26978-31129-00000030D0000352D000100000031129     GGSL
NJARET20010-26978-31168-90000010D0000226D000080000031168     GGSL
NJARET20010-26978-31169-60000025D0000564D000030000031169     GGSL
NJARET20010-26978-32101-50000025D0000181D000050000032100     GGSL
NJARET20010-26978-32108-40000040D0000289D000040000132108     GGSL
NJARET20010-26978-32109-10000020D0000144D000030000032109     GGSL
NJARET20010-26978-32121-30000010D0000128D000100000632120     GGSL
NJARET20010-26978-32128-20000035D0000447D000040000032128     GGSL
NJARET20010-26978-32129-90000030D0000383D000020000132129     GGSL
NJARET20010-26978-33200-40000010D0000027D000020000033200     GGSL
NJARET20010-26978-34061-00000040D0000160D000040000234061     GGSL
NJARET20010-26978-34063-40000070D0000279D000150000234063     GGSL
NJARET20010-26978-34068-90000060D0000239D000130000234068     GGSL
NJARET20010-26978-34081-80000060D0000423D000170000134081     GGSL
NJARET20010-26978-34083-20000050D0000353D000150000234083     GGSL
NJARET20010-26978-34088-70000060D0000423D000150000234088     GGSL
NJARET20010-26978-34101-30000020D0000235D000150000434101     GGSL
NJARET20010-26978-34103-70000015D0000176D000050000234103     GGSL
NJARET20010-26978-34108-20000030D0000352D000050000234108     GGSL
NJARET20010-26978-34121-10000010D0000164D000120000034121     GGSL
NJARET20010-26978-34123-50000020D0000327D000100000034123     GGSL
NJARET20010-26978-34128-00000010D0000164D000030000034128     GGSL
NJARET20010-26978-34143-50000006D0000164D000110000034143     GGSL
NJARET20010-26978-34148-00000015D0000409D000100000034148     GGSL
NJARET20010-26978-35060-20000070D0000279D000050000535060     GGSL
NJARET20010-26978-35061-90000090D0000359D000100000335061     GGSL
NJARET20010-26978-35066-40000060D0000239D000230000535066     GGSL
NJARET20010-26978-35068-80000090D0000359D000120000735068     GGSL
NJARET20010-26978-35069-50000070D0000279D000080000535069     GGSL
NJARET20010-26978-35080-00000100D0000740D000050000235080     GGSL
NJARET20010-26978-35081-70000040D0000296D000060000135081     GGSL
NJARET20010-26978-35086-20000040D0000296D000170000235086     GGSL
NJARET20010-26978-35087-90000010D0000021D000030000035087     GGSL
NJARET20010-26978-35088-60000080D0000592D000100000535088     GGSL
NJARET20010-26978-35089-30000050D0000370D000140000535089     GGSL
NJARET20010-26978-35100-50000035D0000502D000130000435100     GGSL
NJARET20010-26978-35101-20000030D0000430D000070000335101     GGSL
NJARET20010-26978-35106-70000020D0000287D000180000435106     GGSL
NJARET20010-26978-35108-10000065D0000932D000110000635108     GGSL
NJARET20010-26978-35109-80000030D0000430D000040000435109     GGSL
NJARET20010-26978-35120-30000035D0000714D000040000235120     GGSL
NJARET20010-26978-35121-00000030D0000612D000070000235121     GGSL
NJARET20010-26978-35126-50000015D0000306D000110000135126     GGSL
NJARET20010-26978-35128-90000060D0001223D000080000235128     GGSL
NJARET20010-26978-35129-60000035D0000714D000060000135129     GGSL
NJARET20010-26978-35130-20000005D0000080D000050000135130     GGSL
NJARET20010-26978-35146-30000005D0000148D000010000035146     GGSL
NJARET20010-26978-35148-70000040D0001181D000220000235148     GGSL
NJARET20010-26978-35149-40000020D0000591D000130000135149     GGSL
NJARET20010-26978-35153-10000010D0000044D000140000435153     GGSL
NJARET20010-26978-35168-50000025D0000976D000120000235168     GGSL
NJARET20010-26978-35169-20000010D0000390D000140000135169     GGSL
NJARET20010-26978-35188-30000016D0001077D000060000035188     GGSL
NJARET20010-26978-35189-00000002D0000153D000210000435189     GGSL
NJARET20010-26978-35190-60000002D0000064D000150000335190     GGSL
NJARET20010-26978-35198-20000012D0000383D000430000735198     GGSL
NJARET20010-26978-35198-20000007D0000285D00002000003519801   GGSL
NJARET20010-26978-35199-90000002D0000064D000130000035199     GGSL
NJARET20010-26978-35270-50000002D0000152D000080000435270     GGSL
NJARET20010-26978-35278-10000020D0001522D000080000735278     GGSL
NJARET20010-26978-35279-80000002D0000152D000190000635279     GGSL
NJARET20010-26978-36100-40000005D0000053D000130000336100     GGSL
NJARET20010-26978-36101-10000005D0000083D000030000036101     GGSL
NJARET20010-26978-36108-00000005D0000053D000080000236108     GGSL
NJARET20010-26978-36121-90000005D0000021D000010000036121     GGSL
NJARET20010-26978-36128-80000010D0000147D000080000536128     GGSL
NJARET20010-26978-36140-00000020D0000252D000380000236140     GGSL
NJARET20010-26978-36148-60000040D0000504D000320000536148     GGSL
NJARET20010-26978-36220-90000010D0000221D000330000136220     GGSL
NJARET20010-26978-36228-50000045D0000992D000110000136228     GGSL
NJARET20010-26978-36290-20000005D0000154D000110000136290     GGSL
NJARET20010-26978-36298-80000010D0000309D000100000136298     GGSL
NJARET20010-26978-37240-60000004D0000069D000000000037240     GGSL
NJARET20010-26978-37243-70000001D0000021D00000000003724301   GGSL
NJARET20010-26978-38142-20000072D0000379D000100000438142     GGSL
NJARET20010-26978-38146-00000048D0000244D000090000638146     GGSL
NJARET20010-26978-38148-40000204D0001058D000230001238148     GGSL
NJARET20010-26978-38192-70000030D0000360D000490000138192     GGSL
NJARET20010-26978-38196-50000036D0000383D000050000538196     GGSL
NJARET20010-26978-38198-90000012D0000144D001010004438198     GGSL
NJARET20010-26978-39122-30000384D0001355D000040000439122     GGSL
NJARET20010-26978-39126-10000048D0000190D000290001039126     GGSL
NJARET20010-26978-39128-50000156D0000618D000200001039128     GGSL
NJARET20010-26978-39182-70000060D0000614D000300001139182     GGSL
NJARET20010-26978-39186-50000060D0000614D000290001039186     GGSL
NJARET20010-26978-39188-90000072D0000737D000620003839188     GGSL
NJARET20010-26978-48098-30000018D0000080D000430001148098     GGSL
NJARET20010-26978-48128-00000024D0000148D000210000248128     GGSL
NJARET20010-26978-48158-00000024D0000197D000410000848158     GGSL
NJARET20010-26978-63069-80000010D0000037D000150000163069     GGSL
NJARET20010-26978-80101-20000016D0000588D000150000180101     GGSL
NJARET20010-26978-80101-20000028D0001074D00000000008010104   GGSL
NJARET20010-26978-80105-00000012D0000441D000340000280105     GGSL
NJARET20010-26978-80105-00000028D0001074D00000000008010504   GGSL
NJARET20010-26978-80151-40000012D0000457D00000000008015112   GGSL
NJARET20010-26978-80156-20000008D0000304D000020000280156     GGSL
NJARET20010-26978-80651-20000012D0000216D000020000280651     GGSL
NJARET20010-26978-80655-00000006D0000108D000010000080655     GGSL
NJARET20010-26978-80658-10000006D0000108D000010000080658     GGSL
NJARET20010-26978-81011-30000012D0000307D000330000181011     GGSL
NJARET20010-26978-81015-10000020D0000511D000670000081015     GGSL
NJARET20010-26978-81075-50000018D0000065D000000000081075PC   GGSL
NJARET20010-26978-81100-40000084D0000669D000010000181100     GGSL
NJARET20010-26978-81101-10000120D0001076D000060000081101     GGSL
NJARET20010-26978-81121-90000072D0000264D000040000081121     GGSL
NJARET20010-26978-81125-70000012D0000038D000000000081125     GGSL
NJARET20010-26978-81201-80000002D0000090D000350000081201     GGSL
NJARET20010-27452-02505-40000009D0000138D00001000002505      GGSL
NJARET20010-27452-06200-40000036D0000565D00000000006200      GGSL
NJARET20010-27652-80203-50000012D0000346D0000200000LG400151GDGGSL
NJARET20010-27652-80204-20000004D0000216D0001500000LG400161  GGSL
NJARET20010-27652-80204-20000012D0000649D0000100000LG400161GDGGSL
NJARET20010-27652-80205-90000013D0000892D0002900005LG400171  GGSL
NJARET20010-27652-80205-90000010D0000419D0001500000LG400171GDGGSL
NJARET20010-27856-10001-20006468D0019531D0032400120P10232    GGSL
NJARET20010-27856-10002-90013164D0068672D0095100000P10264    GGSL
NJARET20010-27856-10008-10004108D0055802D0037100000P101      GGSL
NJARET20010-27856-10009-80002043D0018550D0036500060P128      GGSL
NJARET20010-27997-00229-90000012D0000284D0001400000TE        GGSL
NJARET20010-27997-20065-70000006D0000059D0000300000KHM       GGSL
NJARET20010-28929-02780-90000001D0000061D00000000002780SPC   GGSL
NJARET20010-28929-04710-40000002D0000415D00009000004710C     GGSL
NJARET20010-28929-27840-90000002D0000120D00123000002784SPC   GGSL
NJARET20010-28929-34780-80000002D0000163D00077000004780BRC   GGSL
NJARET20010-28929-49120-40000013D0000324D00005000004912      GGSL
NJARET20010-28929-49132-70000001D0000044D00010000004913B     GGSL
NJARET20010-28929-49134-10000001D0000046D00030000004913T     GGSL
NJARET20010-28929-67114-90000003D0000656D007130000167104914SPGGSL
NJARET20010-28929-78974-50000002D0000033D00013000002789W74SPCGGSL
NJARET20010-28929-92181-70000001D0000276D00204000012790192181GGSL
NJARET20010-29925-60009-60000020D0000458D000190000060000     GGSL
NJARET20010-29925-60151-20000045D0000608D000380000860151     GGSL
NJARET20010-29925-60152-90000016D0000248D000640000760152     GGSL
NJARET20010-29925-70161-80000006D0000096D000360000270151     GGSL
NJARET20010-29925-70162-50000004D0000079D000280000070152     GGSL
NJARET20010-29973-12316-50000350D0001782D000160000614116021P GGSL
NJARET20010-29973-12333-20001008D0003288D001390001914110028P GGSL
NJARET20010-29973-12341-70000533D0002500D0037000062141100216UGGSL
NJARET20010-29973-12349-30000664D0002705D000730003014901028P GGSL
NJARET20010-29973-12456-80000120D0000498D000650002514902028P GGSL
NJARET20010-30541-00069-60000012D0000068D0000300001JCD05CMP  GGSL
NJARET20010-30541-00102-00000006D0000032D0000300000JCD02ER   GGSL
NJARET20010-30541-00301-70000001D0000187D0000000000JCD30BKSM GGSL
NJARET20010-30541-00801-20000025D0001260D0001800001JCD08BKSM GGSL
NJARET20010-30541-01020-60000264D0000599D0006500018JCD024SM  GGSL
NJARET20010-30541-01020-60000300D0000538D0005900055JCD060SM  GGSL
NJARET20010-30541-01030-50000162D0001359D0010100006JCD100SMJ GGSL
NJARET20010-30541-01034-30000126D0002642D0005400000JCD030SM  GGSL
NJARET20010-30541-01039-80000180D0000895D0005500003JCD05SM   GGSL
NJARET20010-30541-01210-10000024D0000045D0000300000JCD024SMS GGSL
NJARET20010-30541-08878-60000036D0000108D0000400000SMMS      GGSL
NJARET20010-30541-08879-30000036D0000108D0001600000SMVS      GGSL
NJARET20010-30541-09981-20000200D0000370D0001400006JCDTPG    GGSL
NJARET20010-30541-09982-90000048D0000118D0000200000JCDTPP03  GGSL
NJARET20010-31009-40456-80000004D0000024D000010000027010409  GGSL
NJARET20010-31340-10005-10000084D0001528D0001700002B550120   GGSL
NJARET20010-31340-10006-80000624D0006920D0006700006B550125   GGSL
NJARET20010-31340-10017-40000016D0000291D0003400002B550190   GGSL
NJARET20010-31417-00205-90000012D0000057D000000000070502001  GGSL
NJARET20010-31724-08876-00000048D0000226D00020000008876      GGSL
NJARET20010-31724-10300-50000004D0000088D00004000011030100   GGSL
NJARET20010-31724-10302-90000010D0000093D0000900001103025    GGSL
NJARET20010-31724-10305-00000010D0000132D0002600002103050    GGSL
NJARET20010-31724-20305-70000005D0000092D0000900002203050    GGSL
NJARET20010-31724-40006-70000016D0000109D000010000040006     GGSL
NJARET20010-31724-40011-10000056D0003504D00031000074001100   GGSL
NJARET20010-31724-40012-80000084D0002139D0002500002400125    GGSL
NJARET20010-31724-40015-90000456D0015614D0011500105400150    GGSL
NJARET20010-31724-40015-90000036D0001329D0004300003400150PDQ GGSL
NJARET20010-31724-40017-30000036D0001846D0000500001400175    GGSL
NJARET20010-31724-43007-10000006D0000390D0001700001430075    GGSL
NJARET20010-31724-57575-80000010D0000315D0000000000988VR50   GGSL
NJARET20010-31724-57576-50000012D0000533D0000000000988VR75   GGSL
NJARET20010-31724-81001-90000006D0000374D00011000008100100   GGSL
NJARET20010-31724-81005-70000016D0000580D0001400000810050    GGSL
NJARET20010-31724-84005-40000015D0000185D0002100006840050    GGSL
NJARET20010-31724-85090-90000006D0000207D00029000008509100   GGSL
NJARET20010-31724-85095-40000010D0000175D0004400001850950    GGSL
NJARET20010-31724-85097-80000006D0000156D0001500000850975    GGSL
NJARET20010-31724-85350-40000006D0000175D00005000018535100   GGSL
NJARET20010-31724-85355-90000015D0000233D0007100001853550    GGSL
NJARET20010-31724-85357-30000006D0000133D0000800000853575    GGSL
NJARET20010-31724-86150-90000048D0002116D00049000148615100   GGSL
NJARET20010-31724-86152-30000070D0001026D0003600007861525    GGSL
NJARET20010-31724-86155-40000075D0001829D0004800010861550    GGSL
NJARET20010-31724-86155-40000140D0002178D000140000386155028  GGSL
NJARET20010-31724-86157-80000036D0001235D0005200005861575    GGSL
NJARET20010-31724-86420-30000006D0000282D00023000018642100   GGSL
NJARET20010-31724-86425-80000010D0000270D0001200001864250    GGSL
NJARET20010-31724-86427-20000009D0000329D0002500001864275    GGSL
NJARET20010-31724-86505-70000095D0002930D0004000040865050    GGSL
NJARET20010-31724-86955-00000255D0009024D0028300137869550    GGSL
NJARET20010-31724-88805-60000030D0000708D0000900001888VR50   GGSL
NJARET20010-31724-98440-60000009D0000600D00026000009844100   GGSL
NJARET20010-31724-98445-10000020D0000731D0000100001984450    GGSL
NJARET20010-31724-98447-50000003D0000156D0003100003984475    GGSL
NJARET20010-31724-98800-80000021D0001196D0000000000988VR100  GGSL
NJARET20010-31810-86112-30000008D0000056D000200000086112     GGSL
NJARET20010-32247-00900-30000024D0000082D00017000081009001   GGSL
NJARET20010-32247-00910-20000036D0000123D00027000081009101   GGSL
NJARET20010-32247-00950-80000018D0000061D00020000091009501   GGSL
NJARET20010-32247-00970-60000042D0000091D00017000011009701   GGSL
NJARET20010-32247-05514-70000060D0000298D000460000170551430  GGSL
NJARET20010-32247-10500-20000264D0002522D0003800000110500    GGSL
NJARET20010-32247-14902-00000020D0000299D000430000714902     GGSL
NJARET20010-32247-14905-10000080D0000617D000540001714905     GGSL
NJARET20010-32247-17183-00000090D0000879D001080002617183     GGSL
NJARET20010-32247-17185-40000028D0000623D000750001217185     GGSL
NJARET20010-32247-17187-80000017D0000911D000770001017187     GGSL
NJARET20010-32247-17290-50000030D0000323D000710000917290     GGSL
NJARET20010-32247-17293-60000024D0000248D000260000717293     GGSL
NJARET20010-32247-17295-00000008D0000192D000250000517295     GGSL
NJARET20010-32247-17323-00000006D0000058D000230000317323     GGSL
NJARET20010-32247-17325-40000012D0000242D000300000017325     GGSL
NJARET20010-32247-17327-80000003D0000128D000260000017327     GGSL
NJARET20010-32247-17508-10000036D0000500D000580000917508     GGSL
NJARET20010-32247-17530-20000030D0000290D000220000217530     GGSL
NJARET20010-32247-17540-10000020D0000556D000500000917540     GGSL
NJARET20010-32247-18221-80000012D0000298D000230000818221     GGSL
NJARET20010-32247-18225-60000018D0000222D000350000518225     GGSL
NJARET20010-32247-18249-20000004D0000247D000590000018249     GGSL
NJARET20010-32247-18260-70000006D0000070D000160000018260     GGSL
NJARET20010-32247-18266-90000006D0000080D000220000218266     GGSL
NJARET20010-32247-18277-50000004D0000108D000130000018277     GGSL
NJARET20010-32247-18320-80000006D0000062D000200000018320     GGSL
NJARET20010-32247-18334-50000002D0000209D000190000018334     GGSL
NJARET20010-32247-18346-80000008D0000166D000330000318346     GGSL
NJARET20010-32247-18348-20000012D0000179D000220000218348     GGSL
NJARET20010-32247-18362-80000282D0009082D000410000818362     GGSL
NJARET20010-32247-20785-00000078D0000304D003470000772078430  GGSL
NJARET20010-32247-21605-00000038D0000767D001910008621605     GGSL
NJARET20010-32247-21701-90000072D0000639D000330000821701     GGSL
NJARET20010-32247-22305-80000008D0000142D002430000022305     GGSL
NJARET20010-32247-22315-70000001D0000044D002070000022315     GGSL
NJARET20010-32247-23405-40000002D0000035D000240000023405B    GGSL
NJARET20010-32247-23616-40000095D0002243D007320003423616     GGSL
NJARET20010-32247-23622-50000024D0000410D006980001523622     GGSL
NJARET20010-32247-25006-10000084D0002098D000910000325006A    GGSL
NJARET20010-32247-25009-20000002D0000131D003030000025009     GGSL
NJARET20010-32247-26784-70000114D0000374D000880000372678430  GGSL
NJARET20010-32247-27726-60000048D0000403D0000200000277268    GGSL
NJARET20010-32247-27764-80000040D0000192D000200000272776430  GGSL
NJARET20010-32247-31115-80000006D0000442D001760000031115     GGSL
NJARET20010-32247-32367-30000004D0000119D002580000932367F    GGSL
NJARET20010-32247-33050-30000042D0001797D002190000933050     GGSL
NJARET20010-32247-33160-90000096D0006935D001890000933160     GGSL
NJARET20010-32247-34161-50000062D0003720D001710000434161     GGSL
NJARET20010-32247-36905-30000008D0000300D002000001136905     GGSL
NJARET20010-32247-37610-50000016D0000228D000160000237610C    GGSL
NJARET20010-32247-39181-80000115D0003332D006850001039181     GGSL
NJARET20010-32247-39605-90000010D0000181D002770000539605     GGSL
NJARET20010-32247-42784-50000024D0000095D000500000374278430  GGSL
NJARET20010-32247-43850-60000004D0000119D00026000024385010   GGSL
NJARET20010-32247-43860-50000004D0000097D00025000034386004   GGSL
NJARET20010-32247-45651-70000060D0000640D000060000145651300  GGSL
NJARET20010-32247-47783-30000042D0000167D000660000374778300  GGSL
NJARET20010-32247-49019-10000058D0000651D003110003349019     GGSL
NJARET20010-32247-49785-50000174D0000710D001850002274978500  GGSL
NJARET20010-32247-50524-60000078D0000637D000180000075052430  GGSL
NJARET20010-32247-51070-70000004D0000040D000080000051070     GGSL
NJARET20010-32247-51105-60000029D0000344D002970002751105     GGSL
NJARET20010-32247-51115-50000060D0002236D002790000551115     GGSL
NJARET20010-32247-52784-20000030D0000125D000580000985278430  GGSL
NJARET20010-32247-53105-40000015D0000146D002510000553105     GGSL
NJARET20010-32247-53115-30000064D0001686D001350000453115     GGSL
NJARET20010-32247-55513-50021515D0107665D000380001075551300  GGSL
NJARET20010-32247-55513-50000010D0000097D002860000075551300X GGSL
NJARET20010-32247-55523-40000036D0000546D000300001075552300  GGSL
NJARET20010-32247-55783-20000090D0000446D000660002075578300  GGSL
NJARET20010-32247-55863-10000071D0000570D000580001175586300X GGSL
NJARET20010-32247-56063-40000072D0000373D000110000045606300  GGSL
NJARET20010-32247-56163-10000020D0000169D000710000045616300X GGSL
NJARET20010-32247-56211-90000012D0000176D00015000015621106   GGSL
NJARET20010-32247-56513-40000455D0003948D000480000875651300  GGSL
NJARET20010-32247-56513-40000059D0000512D000650002075651300X GGSL
NJARET20010-32247-56523-30000108D0001464D000760001675652300  GGSL
NJARET20010-32247-56523-30000005D0000068D002210002475652300X GGSL
NJARET20010-32247-56783-10008322D0026760D007720002275678300  GGSL
NJARET20010-32247-56783-10000240D0001097D000550000775678309  GGSL
NJARET20010-32247-56863-00002366D0011877D000440000075686300  GGSL
NJARET20010-32247-56863-00000114D0000818D001930001875686300X GGSL
NJARET20010-32247-57905-60000006D0000071D002070000057905     GGSL
NJARET20010-32247-71060-20000054D0000702D000370000571060     GGSL
NJARET20010-32247-71131-90000004D0000075D000230000071131     GGSL
NJARET20010-32247-74150-70001032D0005451D0022100044274150    GGSL
NJARET20010-32247-74250-40000816D0006518D0024100059274250    GGSL
NJARET20010-32247-74850-60000144D0002587D0018800043274850    GGSL
NJARET20010-32247-76121-50000009D0000314D000900000376121     GGSL
NJARET20010-32247-76232-80000003D0000184D000200000176232     GGSL
NJARET20010-32247-77160-30001140D0005435D0022100035277160    GGSL
NJARET20010-32247-77260-00000588D0004891D0014300031277260    GGSL
NJARET20010-32247-77860-20000282D0004239D0016100004277860    GGSL
NJARET20010-32247-77960-90000212D0004227D0019000015277960    GGSL
NJARET20010-32247-90550-30000002D0000247D0010600008 671025   GGSL
NJARET20010-32247-99605-10000076D0001724D001180001199605     GGSL
NJARET20010-32903-00169-30000792D0000915D0008700020SLI06000E3GGSL
NJARET20010-32903-00171-60000432D0000488D0004200004SLI06000A3GGSL
NJARET20010-32903-00192-10000384D0000430D0001900008SLI06000B9GGSL
NJARET20010-32903-00193-80000006D0000098D0000200001TEA17000G2GGSL
NJARET20010-32903-00214-00000144D0000174D0005000002SLI06000E2GGSL
NJARET20010-32903-00222-50000240D0000371D0006300008SLI08000B9GGSL
NJARET20010-32903-00224-90000012D0000069D0005000004VNP18000E2GGSL
NJARET20010-32903-00227-00000012D0000050D0002200000SVN18000E2GGSL
NJARET20010-32903-00230-00000048D0000086D0000000000CNA08000E2GGSL
NJARET20010-32903-00236-20000012D0000055D0001100000SVN24000E2GGSL
NJARET20010-32903-00240-90000408D0000632D0003500004SLI08000E2GGSL
NJARET20010-32903-00243-00000012D0000066D0001400000SVN30000E2GGSL
NJARET20010-32903-00246-10000240D0000372D0004300005SLI08000A3GGSL
NJARET20010-32903-00257-70000008D0000290D0002500000RZGH210G2 GGSL
NJARET20010-32903-00258-40000192D0000338D0005300004LIA06000E2GGSL
NJARET20010-32903-00264-50000096D0000255D0003500007LIA08000E2GGSL
NJARET20010-32903-00281-20000084D0000343D0002000008LIA10000E2GGSL
NJARET20010-32903-00283-60000012D0000074D0002000000GAB14000E2GGSL
NJARET20010-32903-00284-30000004D0000116D0001800013TEA20000G2GGSL
NJARET20010-32903-00287-40000024D0000187D0003600004VNP24000E2GGSL
NJARET20010-32903-00290-40000006D0000061D0003000000VNP30000E2GGSL
NJARET20010-32903-00293-50000084D0000182D0006000005SLI10000E2GGSL
NJARET20010-32903-00301-70000020D0000292D0001300002ROP28000A3GGSL
NJARET20010-32903-00309-30000648D0001339D0017300018SLI10000E3GGSL
NJARET20010-32903-00313-00000006D0000057D0000500002GAB18000E2GGSL
NJARET20010-32903-00326-00000048D0000314D0002300007LIA12000E2GGSL
NJARET20010-32903-00332-10000276D0000559D0007000007SLI10000B9GGSL
NJARET20010-32903-00338-30000264D0000541D0007100003SLI10000A3GGSL
NJARET20010-32903-00341-30000108D0000897D0005600003SLI24000E3GGSL
NJARET20010-32903-00359-80001224D0001868D0008600018SLI08000E3GGSL
NJARET20010-32903-04255-90000048D0000396D0003500003LIA14000E2GGSL
NJARET20010-32903-04257-30000084D0000308D0003900004SLI12000E2GGSL
NJARET20010-32903-07519-90000036D0000461D0001500003LIA16000E2GGSL
NJARET20010-32903-07530-40000048D0000188D0002000002SLI14000E2GGSL
NJARET20010-32903-07534-20000006D0000103D0002600001LIA20000E2GGSL
NJARET20010-32903-07558-80000204D0000730D0005000010RZWC1Q0B9 GGSL
NJARET20010-32903-07563-20000060D0000262D0002600002SLI17000E2GGSL
NJARET20010-32903-07577-90000006D0000137D0001400001LIA24000E2GGSL
NJARET20010-32903-12006-60000840D0001478D0010900014LIA06000E3GGSL
NJARET20010-32903-12008-00000576D0001532D0005400020LIA08000E3GGSL
NJARET20010-32903-12010-30000564D0002301D0006500019LIA10000E3GGSL
NJARET20010-32903-12012-70000336D0002175D0005500023LIA12000E3GGSL
NJARET20010-32903-12014-10000540D0004460D0003100011LIA14000E3GGSL
NJARET20010-32903-12017-20000240D0003074D0002100008LIA16000E3GGSL
NJARET20010-32903-12020-20000120D0002059D0001800009LIA20000E3GGSL
NJARET20010-32903-12024-00000090D0002062D0003100009LIA24000E3GGSL
NJARET20010-32903-12312-80000072D0000380D0003800005CNA12000E3GGSL
NJARET20010-32903-12314-20000012D0000061D0000100000CNA14000E3GGSL
NJARET20010-32903-12318-00000012D0000050D0002300002SVN18000E3GGSL
NJARET20010-32903-12324-10000018D0000083D0002200002SVN24000E3GGSL
NJARET20010-32903-12330-20000012D0000066D0001800002SVN30000E3GGSL
NJARET20010-32903-12712-60000156D0000690D0004900017GAB12000E3GGSL
NJARET20010-32903-12714-00000108D0000663D0004200003GAB14000E3GGSL
NJARET20010-32903-12718-80000036D0000341D0003900004GAB18000E3GGSL
NJARET20010-32903-12722-50000036D0000484D0002000004GAB22000E3GGSL
NJARET20010-32903-12818-50000084D0000525D0007200006VNP18000E3GGSL
NJARET20010-32903-12824-60000084D0000611D0007400011VNP24000E3GGSL
NJARET20010-32903-12830-70000078D0000752D0005600005VNP30000E3GGSL
NJARET20010-32903-22484-90000010D0000146D0000800000ROP28000E2GGSL
NJARET20010-32903-23732-00000018D0000118D0002300002SLI20000E2GGSL
NJARET20010-32903-30392-60000036D0000053D0002200002CNA08000E3GGSL
NJARET20010-32903-31000-90000008D0000232D0000600002TEA20000E3GGSL
NJARET20010-32903-35947-30000084D0000282D0005100002CNA10000E3GGSL
NJARET20010-32903-40400-50000144D0000588D0005200013LIA10000A3GGSL
NJARET20010-32903-40493-70000480D0001277D0007400010LIA08000B9GGSL
NJARET20010-32903-40770-90000072D0000416D0003400004VNP18000A3GGSL
NJARET20010-32903-41472-10000012D0000066D0001400000SVN30000A3GGSL
NJARET20010-32903-41640-40000288D0000766D0005400007LIA08000A3GGSL
NJARET20010-32903-41717-30000144D0001189D0001400007LIA14000B9GGSL
NJARET20010-32903-41728-90000288D0001816D0005300012LIA12000B9GGSL
NJARET20010-32903-41842-20000066D0000551D0002600002VNP30000A3GGSL
NJARET20010-32903-41909-20000072D0000922D0002100001LIA16000A3GGSL
NJARET20010-32903-42050-00000018D0000412D0001500001LIA24000A3GGSL
NJARET20010-32903-42240-50000624D0001098D0005800012LIA06000B9GGSL
NJARET20010-32903-42728-80000012D0000055D0000900000SVN24000A3GGSL
NJARET20010-32903-43116-20000012D0000050D0002300000SVN18000A3GGSL
NJARET20010-32903-45170-20000228D0001883D0003300003LIA14000A3GGSL
NJARET20010-32903-45342-30000066D0000455D0004100004VNP24000A3GGSL
NJARET20010-32903-45788-90000018D0000412D0001300002LIA24000B9GGSL
NJARET20010-32903-46337-80000096D0001230D0003100003LIA16000B9GGSL
NJARET20010-32903-46966-00000024D0000412D0001900002LIA20000A3GGSL
NJARET20010-32903-47208-00000108D0000684D0001000002LIA12000A3GGSL
NJARET20010-32903-48101-30000384D0000676D0002500005LIA06000A3GGSL
NJARET20010-32903-48538-70000042D0000721D0001600003LIA20000B9GGSL
NJARET20010-32903-50286-20000168D0000583D0005700012HSI10008E2GGSL
NJARET20010-32903-50763-80000528D0001858D0011700024SLI12000E3GGSL
NJARET20010-32903-50764-50000228D0000880D0003100006SLI14000B9GGSL
NJARET20010-32903-50767-60000204D0000695D0002700003SLI12000A3GGSL
NJARET20010-32903-50794-20000156D0000519D0001500007SLI12000B9GGSL
NJARET20010-32903-50802-40000516D0002009D0002900014SLI14000E3GGSL
NJARET20010-32903-50803-10000108D0000423D0002500001SLI14000A3GGSL
NJARET20010-32903-52858-90000030D0000194D0007900002VNP18000B9GGSL
NJARET20010-32903-53271-50000006D0000050D0002500001SLI24000E2GGSL
NJARET20010-32903-55269-00000002D0000151D0000000000TEA30000E3GGSL
NJARET20010-32903-56391-70000456D0001582D0008900030HSI10008A1GGSL
NJARET20010-32903-57235-30000042D0000400D0004900001VNP30000B9GGSL
NJARET20010-32903-57495-10000012D0000062D0001700002SVN30000B9GGSL
NJARET20010-32903-58303-80000066D0000484D0007500004VNP24000B9GGSL
NJARET20010-32903-61152-60000012D0000197D0000100001TEA17000E3GGSL
NJARET20010-32903-61636-10000312D0001083D0007900023HSI10008B6GGSL
NJARET20010-32903-66002-90000015D0000219D0002000002ROP28000E3GGSL
NJARET20010-32903-69739-10000010D0000137D0001100000ROP28000B9GGSL
NJARET20010-32903-71041-00000012D0000075D0000800001RZWC1G0E3 GGSL
NJARET20010-32903-72233-80000300D0001224D0004500013LIA10000B9GGSL
NJARET20010-32903-72518-60000056D0000503D0002400004RZWC2G0B9 GGSL
NJARET20010-32903-72886-60000012D0000075D0004800005RZWC1G0B9 GGSL
NJARET20010-32903-75049-20000132D0000841D0005700010SLI20000E3GGSL
NJARET20010-32903-75051-50000132D0000577D0002700003SLI17000A3GGSL
NJARET20010-32903-75057-70000084D0000367D0002100005SLI17000B9GGSL
NJARET20010-32903-75070-60000030D0000185D0002400004SLI20000A3GGSL
NJARET20010-32903-75080-50000300D0001311D0005900012SLI17000E3GGSL
NJARET20010-32903-75081-20000054D0000319D0002900005SLI20000B9GGSL
NJARET20010-32903-75084-30000012D0000100D0001800001SLI24000A3GGSL
NJARET20010-32903-75089-80000012D0000100D0002700002SLI24000B9GGSL
NJARET20010-32903-91270-80000010D0000345D0002500002RZGH210E3 GGSL
NJARET20010-32903-91319-40000012D0000197D0000100001TEA17000G8GGSL
NJARET20010-32903-91485-60000025D0000315D0001800008SPX24DBA34GGSL
NJARET20010-32903-91516-70000056D0000360D0000000000PPF1000   GGSL
NJARET20010-32903-91590-70000012D0000021D0000100001IFA0600E35GGSL
NJARET20010-32903-91592-10000012D0000021D0000100001IFA0600E21GGSL
NJARET20010-32903-91620-10000006D0000080D0000000000IFA1600E35GGSL
NJARET20010-32903-91622-50000012D0000160D0000000000IFA1600E21GGSL
NJARET20010-33200-00020-40007860D0005513D00093000003320000020GGSL
NJARET20010-33200-00544-50009328D0093475D025360000000544     GGSL
NJARET20010-33200-01191-00000236D0001669D000210000001191     GGSL
NJARET20010-33200-06520-30000050D0000227D000970000006520     GGSL
NJARET20010-33200-06527-20000402D0007122D00129000006527      GGSL
NJARET20010-33200-09142-40000572D0003998D000820000109142     GGSL
NJARET20010-33200-09293-30001492D0010387D00037000009293      GGSL
NJARET20010-33200-09295-70000288D0002223D000000000109295     GGSL
NJARET20010-33200-09793-80000450D0004208D00194000099793      GGSL
NJARET20010-33200-11321-80000078D0000096D001140000011321     GGSL
NJARET20010-33200-11448-20000072D0000089D001880000011448     GGSL
NJARET20010-33200-35240-20000048D0000087D0002900000352402    GGSL
NJARET20010-33200-94182-80003840D0038364D006250000094182     GGSL
NJARET20010-33200-97209-90000156D0001069D000810000097209     GGSL
NJARET20010-33200-97242-60001560D0010862D001500000097242     GGSL
NJARET20010-33349-03110-70000814D0001034D0000100000JP310     GGSL
NJARET20010-33349-05042-90000030D0000140D0000100000J324      GGSL
NJARET20010-33349-05048-10000072D0000291D0000000000J3R36     GGSL
NJARET20010-33349-05072-60000270D0001971D0000400000G41690    GGSL
NJARET20010-33349-05082-50000400D0001227D0002400001JP506     GGSL
NJARET20010-33349-05618-60000008D0000045D0000200000G310      GGSL
NJARET20010-33349-07750-10000203D0000627D0000000000J4R25     GGSL
NJARET20010-33349-41211-10000352D0000356D0000000000JP212     GGSL
NJARET20010-33349-41214-20000416D0000795D0000400002JP226     GGSL
NJARET20010-33349-41221-00000150D0000285D0000000000TDOME     GGSL
NJARET20010-33349-41234-00000850D0001326D0000300001TTRAY     GGSL
NJARET20010-33349-41238-80000070D0000315D0000300001T32       GGSL
NJARET20010-33349-41251-70000210D0000599D0000100001JS50      GGSL
NJARET20010-33349-41254-80000340D0000938D0000100001JS32      GGSL
NJARET20010-33349-41258-60000022D0000038D0000000000TR72      GGSL
NJARET20010-33349-41318-70000198D0000558D0000300000JP322     GGSL
NJARET20010-33349-41444-30000001D0000214D0000100001JP4BULK   GGSL
NJARET20010-33349-41444-30000336D0000696D0000300000JP406     GGSL
NJARET20010-33349-41620-10000105D0000767D0000900001G316      GGSL
NJARET20010-33349-41701-70005000D0000600D0000000000J4BULK    GGSL
NJARET20010-33349-41710-90000391D0001142D0000200002J312      GGSL
NJARET20010-33349-65153-40000120D0000720D0001100000G312      GGSL
NJARET20010-33349-65205-00000044D0000384D0000000000T34H      GGSL
NJARET20010-33349-66002-40000012D0000087D0000200000J336ST16  GGSL
NJARET20010-33349-66003-10000020D0000203D0000000000J372ST20  GGSL
NJARET20010-33349-66005-50000042D0000330D0005600000J425ST16  GGSL
NJARET20010-33349-66006-20000033D0000327D0000300000J450ST20  GGSL
NJARET20010-33349-66008-60000024D0000330D0000700000J636ST10  GGSL
NJARET20010-33349-66009-30000140D0000851D0000300003T72HST14  GGSL
NJARET20010-33349-66010-90000088D0000488D0000200001TS50HST16 GGSL
NJARET20010-33349-66015-40000280D0001506D0000300000TS20HST14 GGSL
NJARET20010-33349-66016-10000168D0000981D0000100001TS32HST14 GGSL
NJARET20010-33607-00003-60000004D0000119D0003500000EDGE180   GGSL
NJARET20010-33607-00104-00000012D0000303D0000500000WST1      GGSL
NJARET20010-33607-00304-40000012D0000141D0000400000TT4T      GGSL
NJARET20010-33607-00978-70000006D0001110D0000100000LTASST12  GGSL
NJARET20010-33607-01206-00000036D0000424D0000100000WHR6      GGSL
NJARET20010-33607-01208-40000018D0000311D0000700000LT8       GGSL
NJARET20010-33607-01220-60000018D0000429D0002300002LT20      GGSL
NJARET20010-33607-22000-70000012D0000132D0001900000HCWM1     GGSL
NJARET20010-33607-22004-50000001D0000188D0000400000HCDECOASSTGGSL
NJARET20010-33607-22005-20000008D0000208D0001400000HC2       GGSL
NJARET20010-33607-22006-90000004D0000100D0000600000HBE6      GGSL
NJARET20010-33607-22010-60000004D0000132D0000600000HCF3      GGSL
NJARET20010-33607-22125-70000002D0000223D0000800000HT2EZ     GGSL
NJARET20010-33607-22550-70000003D0000283D0000500000SRWM180   GGSL
NJARET20010-33607-30000-60000004D0000244D0000200000YT5       GGSL
NJARET20010-33607-30003-70000004D0000251D0000000000YT5PUR    GGSL
NJARET20010-33607-52100-50000012D0000567D0001300000GKS2      GGSL
NJARET20010-33607-52102-90000004D0000170D0000000000GKS2GRN   GGSL
NJARET20010-33607-52103-60000008D0000339D0000000000GKS2PUR   GGSL
NJARET20010-33607-90026-80000001D0000170D0000200001GKSASST   GGSL
NJARET20010-33607-90027-50000001D0000189D0000000000GCASST    GGSL
NJARET20010-33745-97185-40000005D0000106D005470012097185X    GGSL
NJARET20010-34411-00001-40000012D0000024D00007000008010241002GGSL
NJARET20010-34411-00011-30000048D0000057D00005000008011341002GGSL
NJARET20010-34411-00012-00000048D0000062D00004000008010041002GGSL
NJARET20010-34411-00017-50000036D0000095D00004000008001741002GGSL
NJARET20010-34411-00832-40000006D0000036D00005000008083231002GGSL
NJARET20010-34411-01168-30000006D0000187D00000000008167031001GGSL
NJARET20010-34411-01173-70000002D0000075D00009000008167731001GGSL
NJARET20010-34411-02968-80000008D0000070D00003000008550121001GGSL
NJARET20010-34411-02974-90000024D0000104D00005000018311041001GGSL
NJARET20010-34411-02975-60000024D0000117D00005000018312041001GGSL
NJARET20010-34411-02980-00000012D0000046D00002000008401341001GGSL
NJARET20010-34411-02981-70000024D0000162D00004000008313041001GGSL
NJARET20010-34411-02982-40000012D0000117D00002000008402041001GGSL
NJARET20010-34411-02984-80000040D0000036D00005000008011141001GGSL
NJARET20010-34411-03010-30000010D0000105D00000000008162511001GGSL
NJARET20010-34411-03012-70000004D0000088D00000000008167511001GGSL
NJARET20010-34411-03013-40000002D0000057D00000000008160011001GGSL
NJARET20010-34411-03125-40000006D0000206D00002000008658011001GGSL
NJARET20010-34411-03134-60000024D0000248D00000000008201921001GGSL
NJARET20010-34411-05711-70000107D0000703D0000000000 571TFR   GGSL
NJARET20010-34411-11259-50000006D0000084D00001000008165011002GGSL
NJARET20010-34411-12528-10000024D0000175D00004000018528121001GGSL
NJARET20010-34411-18845-30000024D0000182D00004000018883031002GGSL
NJARET20010-34411-26045-60000010D0000080D00000000008381121001GGSL
NJARET20010-34411-60154-90000006D0000243D00008000008407511002GGSL
NJARET20010-34411-60204-10000004D0000217D00016000008410011001GGSL
NJARET20010-34411-60205-80000004D0000180D00000000008290011001GGSL
NJARET20010-34411-64251-10000006D0000084D00000000008642511001GGSL
NJARET20010-34411-64501-70000006D0000123D00000000008645011001GGSL
NJARET20010-34411-64751-60000004D0000112D00000000008647511001GGSL
NJARET20010-34411-74001-90000006D0000305D00077000018740011001GGSL
NJARET20010-34411-74251-80000018D0000304D00038000018742511001GGSL
NJARET20010-34411-74501-40000024D0000688D00031000028745011001GGSL
NJARET20010-34411-74751-30000008D0000320D00030000008747511001GGSL
NJARET20010-34411-80013-30000006D0000080D00007000028800131001GGSL
NJARET20010-34411-80203-80000024D0000436D00001000008802031011GGSL
NJARET20010-34411-92774-80000012D0000146D00010000008705011001GGSL
NJARET20010-34613-00005-80000012D0000207D0000100001LH005     GGSL
NJARET20010-34613-00015-70000012D0000150D0004500001LH015     GGSL
NJARET20010-34613-00048-50000024D0000284D0001000000TP48      GGSL
NJARET20010-34613-00060-70000024D0000310D0000400000TP60      GGSL
NJARET20010-34613-00068-30000006D0000097D000140000068WP      GGSL
NJARET20010-34613-00072-00000006D0000090D0000100001TP72      GGSL
NJARET20010-34613-00216-80000015D0000087D0000100000U2403     GGSL
NJARET20010-34613-00325-70000025D0000192D0000000000325       GGSL
NJARET20010-34613-00332-50000072D0000247D0000000000332       GGSL
NJARET20010-34613-00337-00000048D0000165D0000000000337       GGSL
NJARET20010-34613-00351-60000024D0000110D0000200000351       GGSL
NJARET20010-34613-00356-10000024D0000378D0000000000356       GGSL
NJARET20010-34613-00425-40000025D0000258D0000200000425       GGSL
NJARET20010-34613-00436-00000025D0000091D0000000000436       GGSL
NJARET20010-34613-00437-70000006D0000061D0000000000437       GGSL
NJARET20010-34613-00439-10000006D0000064D0000000000439       GGSL
NJARET20010-34613-00440-70000040D0000229D0000700000440HD     GGSL
NJARET20010-34613-00449-00000006D0000084D0000000000449       GGSL
NJARET20010-34613-00450-60000006D0000101D0000000000450       GGSL
NJARET20010-34613-00457-50000024D0000061D0000000000457       GGSL
NJARET20010-34613-00469-80000002D0000323D0000000000 N408     GGSL
NJARET20010-34613-00540-40000040D0000273D0000200000540HD     GGSL
NJARET20010-34613-00640-10000040D0000345D0000200000640HD     GGSL
NJARET20010-34613-00803-00000040D0000041D0001700004SS3       GGSL
NJARET20010-34613-00804-70000040D0000060D0002600003SS4       GGSL
NJARET20010-34613-00805-40000040D0000068D0003100003SS5       GGSL
NJARET20010-34613-00806-10000040D0000093D0002700002SS6       GGSL
NJARET20010-34613-00831-30000070D0000258D0002700001SFS4      GGSL
NJARET20010-34613-00832-00000015D0000222D0001500000SFS6      GGSL
NJARET20010-34613-00834-40000015D0000262D0000100000SFS8      GGSL
NJARET20010-34613-00835-10000060D0000458D0000000000SFS5      GGSL
NJARET20010-34613-00876-40000040D0000235D0000200000SP6       GGSL
NJARET20010-34613-01150-40000020D0000077D00004000011150PDQ   GGSL
NJARET20010-34613-01151-10000010D0000062D00001000011151PDQ   GGSL
NJARET20010-34613-01160-30000010D0000028D00000000001160      GGSL
NJARET20010-34613-01161-00000048D0000144D00000000001161PDQ   GGSL
NJARET20010-34613-01283-90000012D0000073D00000000001283      GGSL
NJARET20010-34613-01503-80000012D0000021D00000000001503      GGSL
NJARET20010-34613-01505-20000012D0000021D00000000001505      GGSL
NJARET20010-34613-01901-20000024D0000208D00016000021901      GGSL
NJARET20010-34613-01902-90000096D0000832D00020000031902      GGSL
NJARET20010-34613-01903-60000144D0001248D00031000021903      GGSL
NJARET20010-34613-01905-00000012D0000073D00000000001905      GGSL
NJARET20010-34613-03038-30000024D0000127D00000000002104BL    GGSL
NJARET20010-34613-03104-50000036D0000348D00020000013104      GGSL
NJARET20010-34613-03124-30000048D0000604D00000000003124      GGSL
NJARET20010-34613-03603-30000015D0000100D0000500000U3603     GGSL
NJARET20010-34613-04406-90000072D0000810D00004000014406BLD   GGSL
NJARET20010-34613-04830-20000078D0000941D00015000014830      GGSL
NJARET20010-34613-04850-00000018D0000174D00002000003104BL    GGSL
NJARET20010-34613-04851-70000024D0000238D00001000004851BL    GGSL
NJARET20010-34613-04853-10000036D0000357D00002000004853BL    GGSL
NJARET20010-34613-04862-30000036D0000310D0001600000LH013BL   GGSL
NJARET20010-34613-04863-00000072D0000621D0001300000LH014BL   GGSL
NJARET20010-34613-04864-70000036D0000310D0002000000LH016BL   GGSL
NJARET20010-34613-04870-80000012D0000150D0001000001LH015BL   GGSL
NJARET20010-34613-04976-70000080D0000182D000010000110312     GGSL
NJARET20010-34613-04977-40000080D0000236D000040000310412     GGSL
NJARET20010-34613-05171-50000006D0000097D00000000005171      GGSL
NJARET20010-34613-05826-40000006D0000088D00006000025826      GGSL
NJARET20010-34613-05900-10000006D0000072D00005000005900BL    GGSL
NJARET20010-34613-07835-40000042D0000329D00002000002110BL    GGSL
NJARET20010-34613-08205-40000012D0000194D00000000008205      GGSL
NJARET20010-34613-08338-90000006D0000192D00000000008338      GGSL
NJARET20010-34613-08446-10000024D0000357D0001500001BF24      GGSL
NJARET20010-34613-09164-30000012D0000230D00000000009164      GGSL
NJARET20010-34613-09300-50000025D0000024D00000000009300      GGSL
NJARET20010-34613-09501-60000012D0000180D00011000009501      GGSL
NJARET20010-34613-09629-70000012D0000136D00005000039629      GGSL
NJARET20010-34613-18050-70000036D0000244D00029000018050BL    GGSL
NJARET20010-34613-50120-30000004D0000595D000660000150120     GGSL
NJARET20010-34613-50123-40000002D0000590D002360000050123     GGSL
NJARET20010-34613-64979-00000001D0000279D000190000064979     GGSL
NJARET20010-34613-67456-30000010D0001422D001960003767456     GGSL
NJARET20010-34613-68156-10000195D0021587D013050000268156     GGSL
NJARET20010-34613-69373-10000013D0000301D001300000069373     GGSL
NJARET20010-34613-69430-10000001D0000017D007790000069430     GGSL
NJARET20010-34613-69880-40000006D0000202D000940000069880     GGSL
NJARET20010-34613-70230-30000012D0000063D000030000070230BL   GGSL
NJARET20010-34613-70741-40000005D0000122D000000000070201BL   GGSL
NJARET20010-34613-70791-90000005D0000168D000000000070285BL   GGSL
NJARET20010-34613-70930-20000036D0000218D000000000070930BL   GGSL
NJARET20010-34613-80120-40000006D0000038D000140000280120     GGSL
NJARET20010-34613-91018-00000025D0000106D000020000291018     GGSL
NJARET20010-34613-91128-60000010D0000061D000010000191128     GGSL
NJARET20010-35000-00163-40000048D0000044D0035500000US04250A  GGSL
NJARET20010-35000-05361-90003160D0002234D0005400000105375    GGSL
NJARET20010-35000-05364-00001428D0001485D0046800000105374    GGSL
NJARET20010-35000-14112-50000258D0001277D000360000014477     GGSL
NJARET20010-35000-14120-00000048D0000238D001120000014478     GGSL
NJARET20010-35000-14328-00000114D0000588D000750000014483     GGSL
NJARET20010-35000-14424-90000180D0000153D001060000014424     GGSL
NJARET20010-35000-39013-40000666D0001702D001380000039013     GGSL
NJARET20010-35000-39014-10000006D0000014D000640000039014     GGSL
NJARET20010-35000-39371-50002540D0015164D003560000039371     GGSL
NJARET20010-35000-39372-20001840D0010924D002820000039372     GGSL
NJARET20010-35000-39373-90000416D0002488D000560000039373     GGSL
NJARET20010-35000-44627-50000420D0000441D0014100000144630    GGSL
NJARET20010-35000-44668-80000020D0000024D000480000044668     GGSL
NJARET20010-35000-44673-20001008D0001508D004330000044673     GGSL
NJARET20010-35000-44674-90000054D0000078D001780000044674     GGSL
NJARET20010-35000-44678-70000252D0000375D000780000044678     GGSL
NJARET20010-35000-45038-50000036D0000077D0005000000US04232A  GGSL
NJARET20010-35000-45041-50000099D0000213D0002700000US04229A  GGSL
NJARET20010-35000-45072-20000036D0000089D0031000000US04274A  GGSL
NJARET20010-35000-45093-70000360D0000904D0002400000US04282A  GGSL
NJARET20010-35000-45118-40000054D0000127D0004200000US04268A  GGSL
NJARET20010-35000-45122-40000200D0000782D0010400000US04284A  GGSL
NJARET20010-35000-46057-60000048D0000044D0035400000US04248A  GGSL
NJARET20010-35000-46072-10000012D0000028D000030000046072     GGSL
NJARET20010-35000-46157-50001440D0006258D000710000046157     GGSL
NJARET20010-35000-46791-10000018D0000041D005350000046791     GGSL
NJARET20010-35000-47054-60000680D0000714D0004600000US05831A  GGSL
NJARET20010-35000-47805-40000216D0000508D000650000047805     GGSL
NJARET20010-35000-49110-70000160D0000638D003130000049110     GGSL
NJARET20010-35000-49860-10000720D0001483D000130000049860     GGSL
NJARET20010-35000-49861-80001434D0002952D000010000049861     GGSL
NJARET20010-35000-49862-50000720D0001480D000000000049862     GGSL
NJARET20010-35000-49863-20000720D0001483D000000000049863     GGSL
NJARET20010-35000-49874-80000160D0000638D007150000049874     GGSL
NJARET20010-35000-51119-50000288D0000821D0000600000151119    GGSL
NJARET20010-35000-53030-10000162D0000393D0027500000153043    GGSL
NJARET20010-35000-53031-80000150D0000353D0005600000153042    GGSL
NJARET20010-35000-53032-50001572D0003696D0020200002153041    GGSL
NJARET20010-35000-53058-50003752D0017569D011060000553058     GGSL
NJARET20010-35000-53060-80001804D0008425D002900000053060     GGSL
NJARET20010-35000-53063-90001524D0002057D003450000053063     GGSL
NJARET20010-35000-53099-80001206D0002774D001170000053099     GGSL
NJARET20010-35000-53100-10000150D0000353D001510000053100     GGSL
NJARET20010-35000-53106-30000144D0000194D000920000053106     GGSL
NJARET20010-35000-53122-30002829D0017139D005660000053122     GGSL
