TXBWIC2001P-C1100-3900E-A0000002D0000556D000100000011003900  GGSL
TXBWIC2001P-C1100-3950E-A0000006D0001683D002640000511003950  GGSL
TXBWIC2001P-C1100-5800E-A0000046D0004536D000130000211005800  GGSL
TXBWIC2001P-C1100-8081E-A0000006D0000367D000200000011008081  GGSL
TXBWIC2001P-C1400-1068P-K0000012D0000089D001020000014001068  GGSL
TXBWIC20010-0MULT-I SKU- 0000001D0000210D0000000000JBT-DS    GGSL
TXBWIC20010-00001-32168-50000024D0000060D0000000000132168    GGSL
TXBWIC20010-00402-00000-00003541D0035729D0149600018BWI COMP  GGSL
TXBWIC20010-00402-01012-60000240D0004083D00401000071012      GGSL
TXBWIC20010-00402-01492-60000025D0000060D000520001014SSB     GGSL
TXBWIC20010-00402-01499-50000025D0000060D000670000014SS      GGSL
TXBWIC20010-00402-02117-70000300D0001080D0000000010B117      GGSL
TXBWIC20010-00402-02419-20000220D0000188D000650000110XS-20   GGSL
TXBWIC20010-00402-02699-50000020D0000020D000230000010XS-20B  GGSL
TXBWIC20010-00402-02750-60000075D0000221D0005300007B75       GGSL
TXBWIC20010-00402-05411-30000150D0000319D00023000025418      GGSL
TXBWIC20010-00402-10147-30000350D0004921D00151000041014 G    GGSL
TXBWIC20010-00402-10148-00002930D0032517D01914000181014      GGSL
TXBWIC20010-00402-10512-90000006D0000013D000000000010ESB     GGSL
TXBWIC20010-00402-10519-80000020D0000047D000020000010ES      GGSL
TXBWIC20010-00402-11711-50000125D0000294D000000000111718TL   GGSL
TXBWIC20010-00402-11713-90000100D0000249D000170000211730     GGSL
TXBWIC20010-00402-14299-50000001D0000041D0000000000142SS     GGSL
TXBWIC20010-00402-14312-10000020D0000064D000480001414CSB     GGSL
TXBWIC20010-00402-14319-00000033D0000114D000290001214CS      GGSL
TXBWIC20010-00402-14499-90000001D0000045D0000000000144SS     GGSL
TXBWIC20010-00402-14560-60000030D0000082D000450000014EP      GGSL
TXBWIC20010-00402-21014-40001810D0019868D017250035410145B    GGSL
TXBWIC20010-00402-22117-10000275D0000110D0000000001VSC117    GGSL
TXBWIC20010-00402-22275-80000050D0000010D0000000001VSCH7-5   GGSL
TXBWIC20010-00402-33117-70001175D0000395D0008200008PC11-7    GGSL
TXBWIC20010-00402-33354-60002175D0000286D0018700012PC5-4     GGSL
TXBWIC20010-00402-33375-10004400D0000827D0020600004PC7-5     GGSL
TXBWIC20010-00402-41819-90000321D0002073D001070005314TRS     GGSL
TXBWIC20010-00402-44117-30000250D0000091D0000000001PLCD 11-7 GGSL
TXBWIC20010-00402-44475-40000004D0000024D0000000003PLCD 7-5  GGSL
TXBWIC20010-00402-60011-20000100D0000414D0000000001117DFHS   GGSL
TXBWIC20010-00772-00738-20000003D0000019D0000000000738       GGSL
TXBWIC20010-00772-01330-70000001D0000000D00000000001330      GGSL
TXBWIC20010-00772-01331-40000001D0000000D00000000001331      GGSL
TXBWIC20010-00772-01335-20000001D0000000D00000000001335      GGSL
TXBWIC20010-00772-02434-10000006D0000075D00000000002434      GGSL
TXBWIC20010-00772-02564-50000003D0000060D00000000002564      GGSL
TXBWIC20010-00772-04071-60000012D0000432D00000000004071      GGSL
TXBWIC20010-00772-06060-80000006D0000021D00000000006060      GGSL
TXBWIC20010-00772-06063-90000006D0000021D00000000006063      GGSL
TXBWIC20010-00772-06090-50000006D0000021D00000000006090      GGSL
TXBWIC20010-00772-06091-20000006D0000021D00000000006091      GGSL
TXBWIC20010-00772-06092-90000006D0000015D00000000006092      GGSL
TXBWIC20010-00772-06093-60000006D0000015D00000000006093      GGSL
TXBWIC20010-00772-06215-20000006D0000045D00000000006215      GGSL
TXBWIC20010-00772-06216-90000006D0000045D00000000006216      GGSL
TXBWIC20010-00772-06337-10000006D0000024D00000000006337      GGSL
TXBWIC20010-00772-06338-80000006D0000024D00000000006338      GGSL
TXBWIC20010-00772-06345-60000006D0000030D00000000006345      GGSL
TXBWIC20010-00772-06346-30000006D0000030D00000000006346      GGSL
TXBWIC20010-00772-06644-00000001D0000000D00000000006644      GGSL
TXBWIC20010-00772-06702-70000012D0000090D00000000006702      GGSL
TXBWIC20010-00772-06703-40000006D0000030D00000000006703      GGSL
TXBWIC20010-00772-06704-10000006D0000030D00000000006704      GGSL
TXBWIC20010-00772-06705-80000006D0000021D00000000006705      GGSL
TXBWIC20010-00772-06711-90000012D0000060D00000000006711      GGSL
TXBWIC20010-00772-06712-60000012D0000060D00000000006712      GGSL
TXBWIC20010-00772-06713-30000012D0000060D00000000006713      GGSL
TXBWIC20010-00772-06714-00000006D0000060D00000000006714      GGSL
TXBWIC20010-00772-06715-70000006D0000060D00000000006715      GGSL
TXBWIC20010-00772-06723-20000012D0000078D00000000006723      GGSL
TXBWIC20010-00772-06724-90000012D0000078D00000000006724      GGSL
TXBWIC20010-00772-06725-60000012D0000078D00000000006725      GGSL
TXBWIC20010-00772-06740-90000006D0000021D00000000006740      GGSL
TXBWIC20010-00772-06741-60000012D0000090D00000000006741      GGSL
TXBWIC20010-00772-06744-70000003D0000045D00000000006744      GGSL
TXBWIC20010-00772-06753-90000024D0000060D00000000006753      GGSL
TXBWIC20010-00772-06754-60000024D0000060D00000000006754      GGSL
TXBWIC20010-00772-08265-50000001D0000030D00000000008265      GGSL
TXBWIC20010-00772-08807-70000001D0000025D00000000008807      GGSL
TXBWIC20010-00772-08833-60000001D0000030D00000000008833      GGSL
TXBWIC20010-00772-08842-80000001D0000040D00000000008842      GGSL
TXBWIC20010-00772-09168-80000003D0000037D00000000009168      GGSL
TXBWIC20010-00772-09185-50000006D0000060D00000000009185      GGSL
TXBWIC20010-00772-09221-00000003D0000037D00000000009221      GGSL
TXBWIC20010-00772-30142-80000003D0000045D000000000030142     GGSL
TXBWIC20010-00772-30149-70000004D0000040D000000000030149     GGSL
TXBWIC20010-00772-30210-40000012D0000048D000000000030210     GGSL
TXBWIC20010-00772-30211-10000012D0000060D000000000030211     GGSL
TXBWIC20010-00772-30212-80000012D0000078D000000000030212     GGSL
TXBWIC20010-00772-30213-50000012D0000090D000000000030213     GGSL
TXBWIC20010-00772-30214-20000012D0000078D000000000030214     GGSL
TXBWIC20010-00772-30215-90000012D0000090D000000000030215     GGSL
TXBWIC20010-00772-30216-60000008D0000068D000000000030216     GGSL
TXBWIC20010-00772-30217-30000008D0000068D000000000030217     GGSL
TXBWIC20010-00772-31206-60000002D0000010D000000000031206     GGSL
TXBWIC20010-00772-31208-00000002D0000010D000000000031208     GGSL
TXBWIC20010-00772-31322-30000004D0000034D000000000031322     GGSL
TXBWIC20010-00772-31323-00000004D0000034D000000000031323     GGSL
TXBWIC20010-00772-31325-40000004D0000034D000000000031325     GGSL
TXBWIC20010-00772-31341-40000004D0000026D000000000031341     GGSL
TXBWIC20010-00772-31343-80000002D0000013D000000000031343     GGSL
TXBWIC20010-00772-31346-90000002D0000013D000000000031346     GGSL
TXBWIC20010-00772-32800-50000003D0000019D000000000032800     GGSL
TXBWIC20010-01850-60960-00000005D0003219D00000000069600      GGSL
TXBWIC20010-07815-93364-00000009D0000229D001140000056566     GGSL
TXBWIC20010-10367-00002-50000002D0000041D0000000000ML0002    GGSL
TXBWIC20010-10367-00110-70001368D0008758D0020700056110       GGSL
TXBWIC20010-10367-00130-50000049D0002603D0000400000130.0     GGSL
TXBWIC20010-10367-00150-30000291D0007853D0041200088150.0     GGSL
TXBWIC20010-10367-00460-30000128D0000590D0003500002ML0460 8  GGSL
TXBWIC20010-10367-00530-30000016D0000625D0000500000530.0     GGSL
TXBWIC20010-10367-00560-00000328D0001040D0007400001ML0560 8  GGSL
TXBWIC20010-10367-00810-60000144D0000665D0001400037ML0810    GGSL
TXBWIC20010-10367-01000-00000156D0001676D0000800000ML1000    GGSL
TXBWIC20010-10367-01010-90000156D0001958D0000900000ML1010    GGSL
TXBWIC20010-10367-01020-80000180D0002397D0000200000ML1020    GGSL
TXBWIC20010-10367-01050-50000132D0001342D0000000000ML1050    GGSL
TXBWIC20010-10367-01110-60000016D0000051D00011000021110      GGSL
TXBWIC20010-10367-01111-30000056D0000165D00016000021111.0    GGSL
TXBWIC20010-10367-01112-00000016D0000051D00003000031112.0    GGSL
TXBWIC20010-10367-01120-50000096D0000241D00026000031120.0    GGSL
TXBWIC20010-10367-01121-20000008D0000042D00000000051121.0    GGSL
TXBWIC20010-10367-01122-90000064D0000337D00000000021122.0    GGSL
TXBWIC20010-10367-01130-40000016D0000084D00000000001130.0    GGSL
TXBWIC20010-10367-01140-30000060D0000113D00000000001140.0    GGSL
TXBWIC20010-10367-01151-90000032D0000091D0000000000ML1151    GGSL
TXBWIC20010-10367-01160-10000016D0000111D00001000011160.0    GGSL
TXBWIC20010-10367-01161-80000016D0000111D00000000001161.0    GGSL
TXBWIC20010-10367-01162-50000024D0000167D00000000001162.0    GGSL
TXBWIC20010-10367-01220-20000024D0000082D00000000001220.0    GGSL
TXBWIC20010-10367-01240-00000024D0000120D00000000001240.0    GGSL
TXBWIC20010-10367-02121-10000016D0000071D0000100000ML2121    GGSL
TXBWIC20010-10367-02131-00000016D0000071D0000100000ML2131    GGSL
TXBWIC20010-10367-02141-90000016D0000071D0000000000ML2141    GGSL
TXBWIC20010-10367-02151-80000024D0000168D0000000000ML2151    GGSL
TXBWIC20010-10367-02161-70000024D0000140D0000000000ML2161    GGSL
TXBWIC20010-10367-02162-40000024D0000140D0000000000ML2162    GGSL
TXBWIC20010-10367-02163-10000032D0000204D0000000000ML2163    GGSL
TXBWIC20010-10367-02181-50000048D0000335D0000100000ML2181    GGSL
TXBWIC20010-10367-03010-70000056D0000321D0000300001ML3010    GGSL
TXBWIC20010-10367-03020-60000016D0000076D0001000000ML3020    GGSL
TXBWIC20010-10367-05015-00000006D0000139D0000000000ML5015-6  GGSL
TXBWIC20010-11247-00000-00000534D0006394D0007400005CPK0225   GGSL
TXBWIC20010-11247-00640-30000032D0001120D001100000000640     GGSL
TXBWIC20010-11247-00913-80000001D0000084D000010000000913     GGSL
TXBWIC20010-11247-01050-90000005D0000055D00048000031050      GGSL
TXBWIC20010-11247-01855-00000001D0000188D00000000101855      GGSL
TXBWIC20010-11247-02155-00000005D0001122D00000000022155.0    GGSL
TXBWIC20010-11247-03111-50000030D0000922D00051000003111      GGSL
TXBWIC20010-11247-04525-90000271D0006210D002430001204525     GGSL
TXBWIC20010-11247-05350-60000017D0000803D000500000005350     GGSL
TXBWIC20010-11247-05450-30000062D0002410D00128000105450      GGSL
TXBWIC20010-11247-06239-30000002D0000083D00000000016239      GGSL
TXBWIC20010-11247-10002-60000001D0000037D000000000210002     GGSL
TXBWIC20010-11247-11024-70000096D0000499D000010000511024     GGSL
TXBWIC20010-11247-12024-60000168D0000726D000010000312024     GGSL
TXBWIC20010-11247-16004-40000198D0001162D000690000016004     GGSL
TXBWIC20010-11247-20103-70000054D0000389D000000000320103     GGSL
TXBWIC20010-11247-21004-60000030D0000240D000170000121004     GGSL
TXBWIC20010-11247-26001-00000096D0000457D000210000526001     GGSL
TXBWIC20010-11247-26128-40000024D0000229D000130000926128     GGSL
TXBWIC20010-11247-29016-10000012D0000070D000000000029016     GGSL
TXBWIC20010-11247-30004-40000174D0001096D001680000230004     GGSL
TXBWIC20010-11247-52813-40000030D0000400D000440001252813     GGSL
TXBWIC20010-11247-52816-50000006D0000043D000000000052816     GGSL
TXBWIC20010-11247-52820-20000024D0000170D000010000052820     GGSL
TXBWIC20010-11247-52825-70000027D0000445D002860000052825     GGSL
TXBWIC20010-11247-52826-40000024D0000116D000000000052826     GGSL
TXBWIC20010-11247-52827-10000004D0000040D000000000052827     GGSL
TXBWIC20010-11247-52828-80000006D0000038D000000000052828     GGSL
TXBWIC20010-11247-52829-50000024D0000228D000150000152829     GGSL
TXBWIC20010-11247-52830-10000011D0000425D000140000052830     GGSL
TXBWIC20010-11247-52832-50000002D0000026D000000000052832     GGSL
TXBWIC20010-11247-52833-20000114D0000642D000000000052833     GGSL
TXBWIC20010-11247-52838-70000012D0000076D000010000052838     GGSL
TXBWIC20010-11247-52848-60000010D0000243D000000006252848     GGSL
TXBWIC20010-11247-52861-50000012D0000127D000000000052861     GGSL
TXBWIC20010-11247-52863-90000012D0000182D000000000052863     GGSL
TXBWIC20010-11247-52877-60000008D0000406D000260000052877     GGSL
TXBWIC20010-11247-52878-30000004D0000378D000000001052878     GGSL
TXBWIC20010-11247-52880-60000036D0000186D000000000352880     GGSL
TXBWIC20010-11247-52884-40000006D0000044D000010000052884     GGSL
TXBWIC20010-11247-52889-90000079D0000993D004010004252889     GGSL
TXBWIC20010-11247-60116-50000084D0000776D000540001260116     GGSL
TXBWIC20010-11247-61008-20000252D0000829D000000001961008     GGSL
TXBWIC20010-11247-61024-20000576D0003393D000860000661024     GGSL
TXBWIC20010-11247-61300-70000216D0002255D000000002361300     GGSL
TXBWIC20010-11247-70024-00000012D0000062D000000000070024     GGSL
TXBWIC20010-11247-70300-50000002D0000120D000000000070300     GGSL
TXBWIC20010-11247-71016-40000180D0001328D000070000771001     GGSL
TXBWIC20010-11247-71128-40000044D0000756D000000000171128     GGSL
TXBWIC20010-11247-71250-20000008D0000676D000000000071250     GGSL
TXBWIC20010-11247-72020-00000001D0000015D000000000072020     GGSL
TXBWIC20010-11247-90032-90000096D0000430D000060000190001     GGSL
TXBWIC20010-11247-90128-90000016D0000127D000000000090128     GGSL
TXBWIC20010-11423-94127-60000060D0000242D0002200060HG-94127  GGSL
TXBWIC20010-11444-43105-30000005D0000095D00000000009730410   GGSL
TXBWIC20010-12090-00002-00000004D0000011D0000000000703778    GGSL
TXBWIC20010-12313-11332-20000004D0000064D00000000001011332   GGSL
TXBWIC20010-12313-11536-40000010D0000159D00000000001011536   GGSL
TXBWIC20010-12313-11537-10000010D0000742D00000000001011537   GGSL
TXBWIC20010-12313-11871-60000002D0000017D00000000001011871   GGSL
TXBWIC20010-12313-12031-30000004D0000028D00000000001012031   GGSL
TXBWIC20010-12313-12423-60000010D0000158D00000000001012423   GGSL
TXBWIC20010-12313-15301-40000018D0000083D00000000001015301   GGSL
TXBWIC20010-12313-16121-70000014D0000241D00000000003011886   GGSL
TXBWIC20010-12313-16123-10000011D0000884D00000000003011888   GGSL
TXBWIC20010-12313-38401-20000011D0000717D00000000003018875   GGSL
TXBWIC20010-12313-38402-90000003D0000684D00000000003018876   GGSL
TXBWIC20010-12313-38412-80000015D0002185D00000000003014935   GGSL
TXBWIC20010-12313-38431-90000004D0000424D00000000003012681   GGSL
TXBWIC20010-12313-38432-60000050D0004970D00000000003012683   GGSL
TXBWIC20010-12313-40543-40000003D0000313D00000000001040543   GGSL
TXBWIC20010-12313-43421-20000004D0000010D00000000001043422   GGSL
TXBWIC20010-12313-47171-20000036D0000114D00000000003044149   GGSL
TXBWIC20010-12313-47181-10000036D0000096D00000000003044169   GGSL
TXBWIC20010-12313-68341-20000001D0000024D00000000001068341   GGSL
TXBWIC20010-12313-68343-60000001D0000076D00000000001068343   GGSL
TXBWIC20010-13964-53880-90000035D0000406D0000000000703364    GGSL
TXBWIC20010-13964-53881-60000024D0000540D0000000000703363    GGSL
TXBWIC20010-14021-00322-30000001D0000127D00000000002020      GGSL
TXBWIC20010-14021-01412-00000003D0000369D00000000001024      GGSL
TXBWIC20010-14021-01415-10000024D0000110D00000000001000      GGSL
TXBWIC20010-15966-49430-10000003D0000057D000080000549 00 430 GGSL
TXBWIC20010-16069-00001-10000024D0000137D0000000000NE-SR     GGSL
TXBWIC20010-16069-00005-90000120D0000621D0000200000TP-15C    GGSL
TXBWIC20010-16069-00007-30000024D0000102D0001300001BN-1      GGSL
TXBWIC20010-16069-00008-00000132D0000758D0003600001BN-2      GGSL
TXBWIC20010-16069-00013-40000012D0000271D0001700000BN-3      GGSL
TXBWIC20010-16069-00014-10000030D0000397D0001500000BN-4      GGSL
TXBWIC20010-16069-00015-80000024D0000534D0001000000BN-5      GGSL
TXBWIC20010-16069-00021-90000030D0000242D0000000000BUR-24    GGSL
TXBWIC20010-16069-00030-10000030D0000328D0002900003OW-6      GGSL
TXBWIC20010-16069-00049-30000012D0000181D0001400000DX-7      GGSL
TXBWIC20010-16069-00144-50000030D0000030D0000000001TG-30     GGSL
TXBWIC20010-16069-00145-20000096D0001776D0004400019RHO-4     GGSL
TXBWIC20010-16069-00166-70000012D0000181D0000000000TP-60     GGSL
TXBWIC20010-16069-00218-30000048D0000192D0000000000HST-100   GGSL
TXBWIC20010-16069-00365-40000009D0000096D0000900000PIN-9     GGSL
TXBWIC20010-16069-00434-70000030D0000080D0000000000PM-25     GGSL
TXBWIC20010-16069-00473-30000007D0002730D0000000003MIXO-30MP GGSL
TXBWIC20010-16069-00478-00000004D0000126D0000000000SRHO-4    GGSL
TXBWIC20010-16069-00498-90000018D0000099D0000000000HGP-1012  GGSL
TXBWIC20010-16069-00507-80000012D0000093D0000000000TPSM-15   GGSL
TXBWIC20010-16069-00531-00000360D0004491D0000000005GCM-BDO   GGSL
TXBWIC20010-16346-50265-10000024D0000322D0000000000TCC50262  GGSL
TXBWIC20010-16346-50269-00000132D0000804D0000000000TCC50269  GGSL
TXBWIC20010-16346-50293-50000040D0000540D0000000000TCC50293  GGSL
TXBWIC20010-18506-00000-00000040D0000598D00153000550111-5    GGSL
TXBWIC20010-18506-00010-30000018D0000127D0005500056010-6     GGSL
TXBWIC20010-18506-00018-90000012D0000088D0000000000118-6     GGSL
TXBWIC20010-18506-00029-50000006D0000065D000000000029-6      GGSL
TXBWIC20010-18506-00102-50000060D0000244D0007600000102-12    GGSL
TXBWIC20010-18506-00110-50000396D0002583D0018500005110-12    GGSL
TXBWIC20010-18506-00116-20000120D0000743D0001700032116-12    GGSL
TXBWIC20010-18506-00117-90000066D0000626D0000700058117-6     GGSL
TXBWIC20010-18506-00125-40000002D0000062D0001400000125       GGSL
TXBWIC20010-18506-00130-80000036D0000203D0005000000130       GGSL
TXBWIC20010-18506-02000-20000006D0000040D00000000002000      GGSL
TXBWIC20010-18583-06291-90000011D0000055D0000000000703697    GGSL
TXBWIC20010-18583-07718-00000015D0000301D0000000000703693    GGSL
TXBWIC20010-18583-08758-50000004D0000014D0000000000703525    GGSL
TXBWIC20010-18583-10001-70000003D0000072D0000000000703526    GGSL
TXBWIC20010-18583-10002-40000001D0000024D0000000000703527    GGSL
TXBWIC20010-18583-10003-10000001D0000024D0000000000703528    GGSL
TXBWIC20010-18583-10004-80000001D0000024D0000000000703529    GGSL
TXBWIC20010-18583-10041-30000002D0000048D0000000000703534    GGSL
TXBWIC20010-18583-10042-00000002D0000048D0000000000703535    GGSL
TXBWIC20010-18583-10043-70000001D0000024D0000000000703536    GGSL
TXBWIC20010-18583-10044-40000001D0000024D0000000000703537    GGSL
TXBWIC20010-18583-10081-90000001D0000024D0000000000703542    GGSL
TXBWIC20010-18583-10082-60000001D0000024D0000000000703543    GGSL
TXBWIC20010-18583-10083-30000001D0000024D0000000000703544    GGSL
TXBWIC20010-18583-10084-00000001D0000024D0000000000703545    GGSL
TXBWIC20010-18583-10121-20000004D0000113D0000000000703550    GGSL
TXBWIC20010-18583-10122-90000002D0000056D0000000000703551    GGSL
TXBWIC20010-18583-10123-60000001D0000028D0000000000703552    GGSL
TXBWIC20010-18583-10124-30000001D0000028D0000000000703553    GGSL
TXBWIC20010-18583-10161-80000001D0000028D0000000000703559    GGSL
TXBWIC20010-18583-10162-50000001D0000028D0000000000703560    GGSL
TXBWIC20010-18583-10163-20000001D0000028D0000000000703561    GGSL
TXBWIC20010-18583-10164-90000008D0000205D0000000000703590    GGSL
TXBWIC20010-18583-10201-10000003D0000084D0000000000703567    GGSL
TXBWIC20010-18583-10202-80000001D0000028D0000000000703568    GGSL
TXBWIC20010-18583-10203-50000003D0000083D0000000000703569    GGSL
TXBWIC20010-18583-10204-20000001D0000028D0000000000703592    GGSL
TXBWIC20010-18583-10847-10000002D0000056D0000000000703558    GGSL
TXBWIC20010-18583-10848-80000003D0000077D0000000000703591    GGSL
TXBWIC20010-18583-10849-50000009D0000231D0000000000703566    GGSL
TXBWIC20010-18583-10850-10000003D0000077D0000000000703593    GGSL
TXBWIC20010-18583-10851-80000003D0000077D0000000000703594    GGSL
TXBWIC20010-18583-10862-40000010D0000210D0000000000703596    GGSL
TXBWIC20010-18583-10863-10000003D0000063D0000000000703597    GGSL
TXBWIC20010-18583-10864-80000003D0000060D0000000000703598    GGSL
TXBWIC20010-18583-10865-50000003D0000063D0000000000703599    GGSL
TXBWIC20010-18583-10866-20000003D0000063D0000000000703600    GGSL
TXBWIC20010-18583-10875-40000001D0000017D0000000000703602    GGSL
TXBWIC20010-18583-10876-10000002D0000034D0000000000703603    GGSL
TXBWIC20010-18583-10916-40000001D0000024D0000000000703611    GGSL
TXBWIC20010-18583-10917-10000001D0000024D0000000000703612    GGSL
TXBWIC20010-18583-10918-80000001D0000024D0000000000703613    GGSL
TXBWIC20010-18583-10919-50000001D0000024D0000000000703614    GGSL
TXBWIC20010-18583-10956-00000001D0000024D0000000000703619    GGSL
TXBWIC20010-18583-10957-70000001D0000024D0000000000703620    GGSL
TXBWIC20010-18583-10958-40000001D0000024D0000000000703621    GGSL
TXBWIC20010-18583-10959-10000001D0000024D0000000000703622    GGSL
TXBWIC20010-18583-11036-80000003D0000084D0000000000703627    GGSL
TXBWIC20010-18583-11037-50000001D0000028D0000000000703628    GGSL
TXBWIC20010-18583-11038-20000001D0000028D0000000000703629    GGSL
TXBWIC20010-18583-11039-90000001D0000028D0000000000703630    GGSL
TXBWIC20010-18583-11076-40000002D0000056D0000000000703635    GGSL
TXBWIC20010-18583-11077-10000001D0000028D0000000000703636    GGSL
TXBWIC20010-18583-11078-80000001D0000028D0000000000703637    GGSL
TXBWIC20010-18583-11079-50000001D0000028D0000000000703638    GGSL
TXBWIC20010-18583-18497-00000003D0000077D0000000000703675    GGSL
TXBWIC20010-18583-18498-70000002D0000056D0000000000703676    GGSL
TXBWIC20010-18583-18499-40000002D0000056D0000000000703677    GGSL
TXBWIC20010-18583-18500-70000001D0000028D0000000000703678    GGSL
TXBWIC20010-18583-18501-40000001D0000028D0000000000703679    GGSL
TXBWIC20010-18583-18619-60000003D0000063D0000000000703684    GGSL
TXBWIC20010-18583-18620-20000001D0000024D0000000000703685    GGSL
TXBWIC20010-18583-18621-90000001D0000024D0000000000703686    GGSL
TXBWIC20010-18583-18622-60000001D0000024D0000000000703687    GGSL
TXBWIC20010-18583-18623-30000001D0000024D0000000000703688    GGSL
TXBWIC20010-18583-19356-90000006D0000424D000000000050MR2     GGSL
TXBWIC20010-18583-19357-60000002D0000135D000000000025MR2     GGSL
TXBWIC20010-18583-20190-50000002D0000041D00000000002EM-BT    GGSL
TXBWIC20010-18583-20191-20000002D0000041D00000000005EM-BT    GGSL
TXBWIC20010-19263-25540-90000025D0000049D00000000002554      GGSL
TXBWIC20010-20279-99480-00000060D0000149D0000000000703933    GGSL
TXBWIC20010-20279-99500-50000021D0000247D0000000000703936    GGSL
TXBWIC20010-20279-99502-90000037D0000111D0000000000703937    GGSL
TXBWIC20010-20279-99509-80000004D0000013D0000000000703939    GGSL
TXBWIC20010-20279-99511-10000011D0000138D0000000000703940    GGSL
TXBWIC20010-20279-99527-20000007D0000025D0000000000703941    GGSL
TXBWIC20010-20279-99528-90000013D0000049D0000000000703942    GGSL
TXBWIC20010-20279-99800-60000030D0000066D0000000000703955    GGSL
TXBWIC20010-20279-99801-30000019D0000016D0000000000703956    GGSL
TXBWIC20010-20279-99803-70000009D0000036D0000000000703957    GGSL
TXBWIC20010-20279-99804-40000025D0000035D0000000000703958    GGSL
TXBWIC20010-20279-99808-20000004D0000003D0000000000703959    GGSL
TXBWIC20010-22179-00000-00000072D0000644D0000000001LG6294    GGSL
TXBWIC20010-22179-10005-30000006D0000100D0000000000lg 5129   GGSL
TXBWIC20010-22179-10011-40000018D0000162D0000000004lg 3104   GGSL
TXBWIC20010-22179-10012-10000012D0000083D0000000000LG3105    GGSL
TXBWIC20010-22179-10013-80000012D0000063D0000100002LG1100    GGSL
TXBWIC20010-22179-10035-00000055D0002778D0031900001LG4110    GGSL
TXBWIC20010-22179-10077-00000012D0000083D0000000002LG7150    GGSL
TXBWIC20010-22179-10084-80000054D0000426D0001800016LG7220    GGSL
TXBWIC20010-22179-10090-90000048D0001225D0001200000LG4300    GGSL
TXBWIC20010-22179-10096-10000012D0000250D0000000002lg 5328   GGSL
TXBWIC20010-22179-10108-10000036D0000263D0000000001LG7265    GGSL
TXBWIC20010-22179-10109-80000042D0000580D0001500000lg 5146   GGSL
TXBWIC20010-22179-10115-90000036D0000590D0003900001lg 5599   GGSL
TXBWIC20010-22179-10117-30000048D0000215D0000200000LG1105    GGSL
TXBWIC20010-22179-10124-10000228D0001125D0006100003LG6515    GGSL
TXBWIC20010-22179-10130-20000036D0000414D0000000000lg 6239   GGSL
TXBWIC20010-22179-10133-30000006D0000059D0000000002lg 4102   GGSL
TXBWIC20010-22179-10138-80000048D0000114D0000000006LG 1125   GGSL
TXBWIC20010-22179-10139-50000108D0000463D0001500000LG1130    GGSL
TXBWIC20010-22179-10140-10000009D0000984D0008500001LG6520    GGSL
TXBWIC20010-22179-10150-00000200D0001941D00090000647115      GGSL
TXBWIC20010-22179-10151-70000083D0003181D00330000087117      GGSL
TXBWIC20010-22179-10157-90000012D0000217D0000000003LG6530    GGSL
TXBWIC20010-22179-10163-00000048D0000570D0000000000LG6150    GGSL
TXBWIC20010-22179-10167-80000024D0000344D0000000007lg 6127   GGSL
TXBWIC20010-22179-10185-20000126D0001278D0008600005LG6500    GGSL
TXBWIC20010-22179-10239-20000012D0000787D0000000000LG6155    GGSL
TXBWIC20010-22179-10244-60000024D0000465D0000000000LG6135    GGSL
TXBWIC20010-22179-10246-00000186D0002712D0008300147LG6570    GGSL
TXBWIC20010-22179-10247-70000360D0007042D00357003257122      GGSL
TXBWIC20010-22179-10248-40000204D0001514D0004100002LG6575    GGSL
TXBWIC20010-22179-10257-60000202C0001514C0000200005LG3190    GGSL
TXBWIC20010-22179-10263-70000004D0000112D0000000000LG6350    GGSL
TXBWIC20010-22179-10331-30000018D0000200D0000000001lg 6382   GGSL
TXBWIC20010-22179-10363-40000060D0000381D0000000001LG6232    GGSL
TXBWIC20010-22179-10365-80000090D0000585D0001200040lg 7129   GGSL
TXBWIC20010-22179-10366-50000012D0000099D0001300000LG7262    GGSL
TXBWIC20010-22179-10374-00000012D0000064D0000000007lg 6286   GGSL
TXBWIC20010-22179-10378-80000048D0000318D0002400002lg6274    GGSL
TXBWIC20010-22179-10390-00000108D0000869D0003300013LG6332    GGSL
TXBWIC20010-22179-10391-70000024D0000313D0000000004LG6336    GGSL
TXBWIC20010-22179-10393-10000024D0000301D0000000000lg 5367   GGSL
TXBWIC20010-22179-10395-50000040D0001026D0010600000LG6356    GGSL
TXBWIC20010-22179-10399-30000036D0000195D0000400003LG7198    GGSL
TXBWIC20010-22179-10401-30000006D0000076D0000000000lg 6182   GGSL
TXBWIC20010-22179-10408-20000168D0001211D0003000035LG 6338   GGSL
TXBWIC20010-22179-10420-40000006D0000054D0000000000LG6168    GGSL
TXBWIC20010-22179-10422-80000012D0000465D0000000000LG6396    GGSL
TXBWIC20010-22179-10429-70000108D0001489D0004000036LG6334    GGSL
TXBWIC20010-22179-10443-30000006D0000049D0000000000LG3370    GGSL
TXBWIC20010-22179-10448-80000024D0000234D0000000000LG3174    GGSL
TXBWIC20010-22179-10454-90000120D0001181D0001300027lg 3303   GGSL
TXBWIC20010-22179-10458-70000090D0000763D0003300002lg 3234   GGSL
TXBWIC20010-22179-10459-40000018D0000201D0000300000lg3235    GGSL
TXBWIC20010-22179-10462-40000036D0000268D0000000003LG1142    GGSL
TXBWIC20010-22179-10464-80000006D0000085D0000000000LG3216    GGSL
TXBWIC20010-22179-10499-00000006D0000082D0000400000LG9250    GGSL
TXBWIC20010-22179-10509-60000006D0000039D0000000000lg6172    GGSL
TXBWIC20010-22179-10510-20000006D0000061D0000000001lg6228    GGSL
TXBWIC20010-22179-10519-50000024D0000316D0000700000lg 6544   GGSL
TXBWIC20010-22179-10520-10000030D0000202D0000700000lg 6542   GGSL
TXBWIC20010-22401-00115-80000845D0006467D0023800002MDC-15    GGSL
TXBWIC20010-22401-00301-50000022D0000207D0004600000THD-20    GGSL
TXBWIC20010-22401-00350-30000036D0000492D0000000000EDG-20GMC GGSL
TXBWIC20010-22401-00380-10000008D0000168D0000000000NDETC-20MCGGSL
TXBWIC20010-22401-00381-70000012D0000252D0000000000NDETC-2OLBGGSL
TXBWIC20010-22401-00440-10000004D0000091D0000000000PRO-40    GGSL
TXBWIC20010-22401-00510-10000150D0000585D0000900000SK-B      GGSL
TXBWIC20010-22401-00721-10000500D0004255D0000000000DBR-20    GGSL
TXBWIC20010-22401-10088-20000032D0000656D0009700105EAR-60    GGSL
TXBWIC20010-22401-10089-90000024D0000328D0000300000BBC-20LB  GGSL
TXBWIC20010-22401-10103-20000016D0000269D0000000000BBC5-40DB GGSL
TXBWIC20010-23077-00104-60000303D0001216D000900000052050326  GGSL
TXBWIC20010-23077-00107-70000520D0001009D000000000050055010  GGSL
TXBWIC20010-23077-00109-10000455D0001109D000160000250055071  GGSL
TXBWIC20010-23077-00204-30000743D0002058D008420006552055472  GGSL
TXBWIC20010-23077-00205-00008365D0024128D056030187052055475  GGSL
TXBWIC20010-23077-00207-40000150D0000518D000000000352055477  GGSL
TXBWIC20010-23077-00208-10001424D0005647D013690000252050320  GGSL
TXBWIC20010-23077-00209-80002630D0008051D028810033050055016  GGSL
TXBWIC20010-23077-00210-40005143D0014510D071260014052058069  GGSL
TXBWIC20010-23077-00212-80003508D0010583D055220007552058058  GGSL
TXBWIC20010-23077-00213-50002037D0005980D021200001052058059  GGSL
TXBWIC20010-23077-00303-30000392D0001297D000000000040105120  GGSL
TXBWIC20010-23077-00504-40000728D0002605D000000001440200451  GGSL
TXBWIC20010-23077-01900-30000163D0000903D0006900014NG190     GGSL
TXBWIC20010-23077-19142-60000209D0003846D0021700000          GGSL
TXBWIC20010-23077-41518-80000221D0002061D0010900095          GGSL
TXBWIC20010-23077-52600-60000656D0005302D0092700022NG526     GGSL
TXBWIC20010-23534-00428-80000525D0019053D04972000791664288H  GGSL
TXBWIC20010-23626-00860-10000068D0000507D0000000000116348    GGSL
TXBWIC20010-23626-01710-80000192D0000873D0005700002800       GGSL
TXBWIC20010-23626-01720-70000240D0001438D0006900001000900    GGSL
TXBWIC20010-23626-02555-40000008D0000149D0001500001112840    GGSL
TXBWIC20010-23626-02830-20000040D0000470D0007200004116841    GGSL
TXBWIC20010-23626-04055-70000012D0000030D0000000000112845    GGSL
TXBWIC20010-23626-07002-80000012D0000330D0000000001112825    GGSL
TXBWIC20010-23851-01019-60000002D0000014D00000000003101019   GGSL
TXBWIC20010-23851-01029-50000001D0000013D00000000003101029   GGSL
TXBWIC20010-23851-01030-10000015D0000084D00000000003101030   GGSL
TXBWIC20010-23851-01043-10000095D0000777D00000000003101043   GGSL
TXBWIC20010-23851-01045-50000006D0000079D00000000003101045   GGSL
TXBWIC20010-23851-01046-20000016D0000130D00000000003101046   GGSL
TXBWIC20010-23851-01050-90000024D0000177D00000000003101050   GGSL
TXBWIC20010-23851-01051-60000009D0000047D00000000003101051   GGSL
TXBWIC20010-23851-01052-30000002D0000010D00000000003101052   GGSL
TXBWIC20010-23851-01058-50000002D0000013D00000000003101058   GGSL
TXBWIC20010-23851-01063-90000007D0000035D00000000003101063   GGSL
TXBWIC20010-23851-01312-80000067D0000622D00000000003101312   GGSL
TXBWIC20010-23851-01367-80000004D0000021D00000000003101367   GGSL
TXBWIC20010-23883-00001-10000378D0005859D0016600040G362      GGSL
TXBWIC20010-23883-00002-80000096D0000379D0011900003G385      GGSL
TXBWIC20010-23883-00003-50000114D0000441D0007300000G390      GGSL
TXBWIC20010-23883-01002-70000308D0002577D00176000061002      GGSL
TXBWIC20010-23883-01105-50000048D0000124D00000000001105      GGSL
TXBWIC20010-23883-05000-90000019D0000218D00136000005000      GGSL
TXBWIC20010-23883-10030-80000012D0000100D000000000210030     GGSL
TXBWIC20010-23883-15710-40007121D0043801D126830139915710     GGSL
TXBWIC20010-23883-16100-20000250D0002566D010960007316100     GGSL
TXBWIC20010-23883-20020-60000040D0000612D000000000020002     GGSL
TXBWIC20010-23883-26011-80000080D0002124D001560000626011XP   GGSL
TXBWIC20010-23883-26021-70000795D0018818D015480034326021XP   GGSL
TXBWIC20010-23883-26031-60000027D0000983D000620000426031XP   GGSL
TXBWIC20010-23883-27010-00000067D0001311D001300000427010     GGSL
TXBWIC20010-23883-27020-90000136D0002768D003640000027020     GGSL
TXBWIC20010-23883-27030-80000036D0000842D001870000727030     GGSL
TXBWIC20010-23883-60100-30000431D0016107D005900005860100     GGSL
TXBWIC20010-23883-61800-10000007D0000397D000000007461800     GGSL
TXBWIC20010-23883-63924-20000016D0002502D000910000163924     GGSL
TXBWIC20010-23883-68060-20000002D0000033D00013000006-8060    GGSL
TXBWIC20010-23883-68061-90000001D0000025D00038001206-8061    GGSL
TXBWIC20010-23883-68238-50000003D0000103D00004000016-8238    GGSL
TXBWIC20010-23883-80000-00000267D0008142D00008000838000A     GGSL
TXBWIC20010-23883-80080-20000002D0000231D00000000008200A     GGSL
TXBWIC20010-23883-84000-60000120D0006895D00010000918701B     GGSL
TXBWIC20010-23883-84600-80000040D0001103D000030000784700A    GGSL
TXBWIC20010-23883-97100-70000016D0009212D000510000497100     GGSL
TXBWIC20010-23883-97361-20000004D0000622D000280000097361     GGSL
TXBWIC20010-23883-97561-60000003D0000528D000310012197561     GGSL
TXBWIC20010-24114-21654-00000001D0001124D0000000000          GGSL
TXBWIC20010-24114-71079-20000075D0000528D0000100003710079    GGSL
TXBWIC20010-24114-74218-20000100D0000017D0000000000          GGSL
TXBWIC20010-24114-74327-10001750D0006952D000000001374327     GGSL
TXBWIC20010-24114-77123-60000010D0005778D000020000477123     GGSL
TXBWIC20010-24114-77788-70000004D0002188D000000000277788     GGSL
TXBWIC20010-24654-05102-70000030D0000139D00000000085102-6    GGSL
TXBWIC20010-24654-05922-10000006D0000063D00000000015926      GGSL
TXBWIC20010-24654-05931-30000006D0000085D00000000015935      GGSL
TXBWIC20010-24654-09333-10000029D0000642D00002000199333      GGSL
TXBWIC20010-24654-51806-30000006D0000029D00000000015180-6    GGSL
TXBWIC20010-24654-55025-40000012D0000043D00000000005026      GGSL
TXBWIC20010-24654-55110-70000504D0001212D00097000025110-6    GGSL
TXBWIC20010-24654-55118-30000192D0001288D00093000005118.0    GGSL
TXBWIC20010-24654-65452-50000018D0000088D00000000025452-6    GGSL
TXBWIC20010-24654-72125-80000006D0000036D0000000000SB125     GGSL
TXBWIC20010-25033-40307-90000001D0000012D000060000040307     GGSL
TXBWIC20010-25531-00350-40000001D0000029D00007000007511I     GGSL
TXBWIC20010-25626-00000-00000468D0003579D9984500001          GGSL
TXBWIC20010-25784-20011-80000008D0000016D0000000000703754    GGSL
TXBWIC20010-25784-20015-60000001D0000005D0000000000703755    GGSL
TXBWIC20010-25784-35130-80000004D0000012D0000000000703752    GGSL
TXBWIC20010-25845-12346-20000120D0000145D000000000924950     GGSL
TXBWIC20010-25845-12354-70000096D0000116D000000001024951     GGSL
TXBWIC20010-26978-03102-00000005D0000043D000000000003102.05  GGSL
TXBWIC20010-26978-03108-20000010D0000087D000000000003108.05  GGSL
TXBWIC20010-26978-03122-80000010D0000149D000000000003122.05  GGSL
TXBWIC20010-26978-03128-00000015D0000224D000000000003128.05  GGSL
TXBWIC20010-26978-03197-60000004D0000115D000000000003197     GGSL
TXBWIC20010-26978-08060-80000020D0000069D000000000008060     GGSL
TXBWIC20010-26978-08061-50000010D0000035D000000000008061     GGSL
TXBWIC20010-26978-08062-20000010D0000035D000000000008062     GGSL
TXBWIC20010-26978-08080-60000020D0000129D000000000008080     GGSL
TXBWIC20010-26978-08082-00000010D0000064D000000000008082     GGSL
TXBWIC20010-26978-08100-10000005D0000054D000000000008100.05  GGSL
TXBWIC20010-26978-08102-50000005D0000054D000000000008102.05  GGSL
TXBWIC20010-26978-08120-90000010D0000149D000000000008120.05  GGSL
TXBWIC20010-26978-08122-30000005D0000075D000000000008122.05  GGSL
TXBWIC20010-26978-08142-10000006D0000131D000000000008142.03  GGSL
TXBWIC20010-26978-08162-90000009D0000291D000000000008162.03  GGSL
TXBWIC20010-26978-08813-00000015D0000056D000000000008813     GGSL
TXBWIC20010-26978-08820-80000015D0000078D000000000008820     GGSL
TXBWIC20010-26978-08823-90000015D0000078D000000000008823     GGSL
TXBWIC20010-26978-17003-00000006D0000309D000000000017003     GGSL
TXBWIC20010-26978-26160-10000004D0000025D000000000026160     GGSL
TXBWIC20010-26978-26165-60000004D0000025D000000000026165     GGSL
TXBWIC20010-26978-26243-10000004D0000029D000000000026243     GGSL
TXBWIC20010-26978-30104-80000066D0000272D000000000230104     GGSL
TXBWIC20010-26978-30200-70000012D0000249D000000000230200     GGSL
TXBWIC20010-26978-30301-10001980D0007462D002680001130301     GGSL
TXBWIC20010-26978-30402-50000036D0000161D000000000030402     GGSL
TXBWIC20010-26978-30409-40000036D0000161D000000000030409     GGSL
TXBWIC20010-26978-30411-70000024D0000105D000000000030411     GGSL
TXBWIC20010-26978-30413-10000024D0000105D000000000030413     GGSL
TXBWIC20010-26978-30500-80000070D0000310D000000000230500     GGSL
TXBWIC20010-26978-30602-90000018D0000059D000000000030602     GGSL
TXBWIC20010-26978-30605-00000012D0000039D000000000030605     GGSL
TXBWIC20010-26978-30702-60000018D0000056D000000000030702     GGSL
TXBWIC20010-26978-30705-70000024D0000076D000000000030705     GGSL
TXBWIC20010-26978-30806-10000054D0000206D000000000130806     GGSL
TXBWIC20010-26978-30809-20000060D0000206D000000000030809     GGSL
TXBWIC20010-26978-31100-90000015D0000077D000000000031100     GGSL
TXBWIC20010-26978-31101-60000005D0000020D000000000031101     GGSL
TXBWIC20010-26978-31108-50000015D0000077D000000000031108     GGSL
TXBWIC20010-26978-31109-20000015D0000060D000000000031109     GGSL
TXBWIC20010-26978-31120-70000015D0000134D000000000031120     GGSL
TXBWIC20010-26978-31121-40000005D0000039D000000000031121     GGSL
TXBWIC20010-26978-31128-30000015D0000129D000000000031128     GGSL
TXBWIC20010-26978-31129-00000005D0000039D000000000031129     GGSL
TXBWIC20010-26978-31168-90000010D0000177D000000000031168     GGSL
TXBWIC20010-26978-31169-60000010D0000177D000000000031169     GGSL
TXBWIC20010-26978-32128-20000010D0000111D000000000032128     GGSL
TXBWIC20010-26978-34068-90000010D0000035D000000000034068     GGSL
TXBWIC20010-26978-34083-20000010D0000064D000000000034083     GGSL
TXBWIC20010-26978-34088-70000020D0000129D000000000034088     GGSL
TXBWIC20010-26978-34103-70000005D0000054D000000000034103     GGSL
TXBWIC20010-26978-34108-20000010D0000107D000000000034108     GGSL
TXBWIC20010-26978-34123-50000005D0000075D000000000034123     GGSL
TXBWIC20010-26978-34128-00000010D0000149D000000000034128     GGSL
TXBWIC20010-26978-34143-50000003D0000075D000000000034143     GGSL
TXBWIC20010-26978-34148- 0000006D0000150D000000000034148     GGSL
TXBWIC20010-26978-35060-20000020D0000069D000000000035060     GGSL
TXBWIC20010-26978-35066-40000020D0000063D000000000035066     GGSL
TXBWIC20010-26978-35068-80000010D0000035D000000000035068     GGSL
TXBWIC20010-26978-35080-00000030D0000178D000000000035080     GGSL
TXBWIC20010-26978-35088-60000020D0000129D000000000035088     GGSL
TXBWIC20010-26978-35089-30000010D0000064D000000000035089     GGSL
TXBWIC20010-26978-35100-50000010D0000124D000000000035100     GGSL
TXBWIC20010-26978-35108-10000010D0000124D000000000035108     GGSL
TXBWIC20010-26978-35109-80000010D0000124D000000000035109     GGSL
TXBWIC20010-26978-35120-30000010D0000177D000000000035120     GGSL
TXBWIC20010-26978-35128-90000005D0000089D000000000035128     GGSL
TXBWIC20010-26978-35129-60000005D0000089D000000000035129     GGSL
TXBWIC20010-26978-35138-80000010D0000138D000000000035138     GGSL
TXBWIC20010-26978-35190-60000002D0000056D000000000035190     GGSL
TXBWIC20010-26978-35198-20000004D0000111D000000000035198     GGSL
TXBWIC20010-26978-35199-90000006D0000167D000000000035199     GGSL
TXBWIC20010-26978-35278-10000004D0000264D000000000035278     GGSL
TXBWIC20010-26978-35279-80000004D0000264D000000000035279     GGSL
TXBWIC20010-26978-36100-40000005D0000043D000000000036100     GGSL
TXBWIC20010-26978-36108-00000010D0000086D000000000036108     GGSL
TXBWIC20010-26978-36120-20000005D0000052D000000000036120     GGSL
TXBWIC20010-26978-36128-80000005D0000052D000000000036128     GGSL
TXBWIC20010-26978-36140-70000005D0000055D000000000036140     GGSL
TXBWIC20010-26978-36148-60000010D0000109D000000000036148     GGSL
TXBWIC20010-26978-36220-60000005D0000096D000000000036220     GGSL
TXBWIC20010-26978-36228-50000005D0000096D000000000036228     GGSL
TXBWIC20010-26978-36290-20000005D0000134D000000000036290     GGSL
TXBWIC20010-26978-36298-80000005D0000134D000000000036298     GGSL
TXBWIC20010-26978-39186-50000024D0000176D000000000039186     GGSL
TXBWIC20010-26978-48098-30000006D0000018D000000000048098     GGSL
TXBWIC20010-26978-48128-00000006D0000025D000000000048128     GGSL
TXBWIC20010-26978-48158-00000006D0000035D000000000048158     GGSL
TXBWIC20010-26978-70088-90000006D0000038D000000000070088     GGSL
TXBWIC20010-26978-70801-10000075D0000135D000000000070801     GGSL
TXBWIC20010-26978-70802-80000096D0000219D000000000070802     GGSL
TXBWIC20010-26978-70806-60000001D0000109D000000000070806     GGSL
TXBWIC20010-26978-70810-30000005D0000150D000000000070810     GGSL
TXBWIC20010-26978-70811-00000040D0000055D000000000170811     GGSL
TXBWIC20010-26978-80105-00000004D0000117D000000000080105.04  GGSL
TXBWIC20010-26978-80107-40000036D0001468D000000000180107.12  GGSL
TXBWIC20010-26978-81014-40000518C0001468C000060000081014     GGSL
TXBWIC20010-26978-81019-90000518C0001468C000060000081019     GGSL
TXBWIC20010-27324-55140-70000144D0000720D002010000040105130  GGSL
TXBWIC20010-28009-11225-80001455D0006399D03369002651225.0    GGSL
TXBWIC20010-28009-11250-00005738D0040278D07124001641250.0    GGSL
TXBWIC20010-28009-11420-70003398D0014102D00424000101420P     GGSL
TXBWIC20010-28009-11428-30000054D0000614D00108000001428      GGSL
TXBWIC20010-28009-11438-20000840D0016740D00000000001438      GGSL
TXBWIC20010-28009-11440-50001614D0011291D02300000101440P     GGSL
TXBWIC20010-28009-11460-30000012D0001009D00000000001460      GGSL
TXBWIC20010-28009-11550-10000050D0000211D00000000011550P     GGSL
TXBWIC20010-28009-11622-50000050D0000420D00000000001622      GGSL
TXBWIC20010-28009-11638-60000060D0000793D00001000001638      GGSL
TXBWIC20010-28009-11640-90000900D0004713D00000000101640      GGSL
TXBWIC20010-28009-11815-10000055D0000297D00000000001815      GGSL
TXBWIC20010-28009-11925-70000065D0000381D00000000021925      GGSL
TXBWIC20010-28009-15240-70000650D0003161D00679000025240.0    GGSL
TXBWIC20010-28009-15440-10000001D0000189D00004000005440.0    GGSL
TXBWIC20010-28009-15440-30000360D0002262D00000000001840      GGSL
TXBWIC20010-28009-15450-00000059D0000305D00476000005450.0    GGSL
TXBWIC20010-28009-15540-80001885D0004804D02210000005540.0    GGSL
TXBWIC20010-28009-15740-20000785D0003007D01125000005740.0    GGSL
TXBWIC20010-30541-00033-80000002D0000093D0000000000JCD-TPP5  GGSL
TXBWIC20010-30541-00066-50000024D0000054D0000000001JCD-TP03  GGSL
TXBWIC20010-30541-00102-00000012D0000064D0000000000JCD-02ER  GGSL
TXBWIC20010-30541-00109-90000048D0000100D0000000000JCD-02SC  GGSL
TXBWIC20010-30541-00501-10000002D0000468D0000000000JCD-50BKSMGGSL
TXBWIC20010-30541-00801-20000002D0000092D0000000000JCD-08BKSMGGSL
TXBWIC20010-30541-01020-60000228D0000504D0001200001JCD-024SM GGSL
TXBWIC20010-30541-01030-50000102D0000813D0000500000JCD-100SMJGGSL
TXBWIC20010-30541-01034-30000032D0000660D0001600008JCD-030SM GGSL
TXBWIC20010-30541-01091-60000001D0000053D0000000000JCD-08SC  GGSL
TXBWIC20010-30541-01092-30000018D0000095D0000000000JCD-100SC GGSL
TXBWIC20010-30541-09982-90001200D0002166D0000000000JCD-TPP   GGSL
TXBWIC20010-30541-83795-70000072D0000142D0000000000JCD-024TMPGGSL
TXBWIC20010-30541-83796-40000024D0000042D0000100000SR-24     GGSL
TXBWIC20010-30641-09801-20000306D0000726D0001700007SWPDQ     GGSL
TXBWIC20010-30641-32937-60000432D0000685D0001500008RPDQ      GGSL
TXBWIC20010-30641-33935-10000378D0000578D0001100008YPDQ      GGSL
TXBWIC20010-30641-35936-60000396D0000609D0002300013WPDQ      GGSL
TXBWIC20010-30907-00548-80000005D0000086D00000000009600548   GGSL
TXBWIC20010-30907-00697-30000001D0000021D00000000009600697   GGSL
TXBWIC20010-30907-03471-60000001D0000022D00000000009676025   GGSL
TXBWIC20010-30907-03472-30000001D0000022D00000000009676050   GGSL
TXBWIC20010-30907-03559-10000001D0000023D00000000009682025   GGSL
TXBWIC20010-30907-03560-70000001D0000023D00000000009682050   GGSL
TXBWIC20010-30907-03581-20000001D0000023D00000000009677125   GGSL
TXBWIC20010-30907-03582-90000001D0000023D00000000009677150   GGSL
TXBWIC20010-30907-03583-60000001D0000023D00000000009677175   GGSL
TXBWIC20010-30907-03598-00000004D0000077D00000000009607713   GGSL
TXBWIC20010-30907-03727-40000001D0000027D00000000009673025   GGSL
TXBWIC20010-30907-03728-10000001D0000027D00000000009673050   GGSL
TXBWIC20010-30907-03729-80000001D0000027D00000000009673075   GGSL
TXBWIC20010-30907-03730-40000001D0000027D00000000009673100   GGSL
TXBWIC20010-30907-03744-10000004D0000098D00000000009607901   GGSL
TXBWIC20010-30907-03854-70000004D0000098D00000000009607913   GGSL
TXBWIC20010-30907-04924-60000004D0000450D00000000006800031   GGSL
TXBWIC20010-30907-04974-10000008D0000047D00000000009602563   GGSL
TXBWIC20010-30907-05123-20000002D0000013D00000000009605122   GGSL
TXBWIC20010-30907-05445-50000001D0000021D00000000009600495   GGSL
TXBWIC20010-30907-05675-60000001D0000006D00000000009640001   GGSL
TXBWIC20010-30907-06212-20000004D0000083D00000000009606380   GGSL
TXBWIC20010-30907-06215-30000004D0000102D00000000006800074   GGSL
TXBWIC20010-32221-10434-20000696D0010704D000280000410434     GGSL
TXBWIC20010-32221-10505-90001356D0006101D000290000610505     GGSL
TXBWIC20010-32221-10720-00000348D0001890D000360000210720     GGSL
TXBWIC20010-32221-10768-80001051D0026069D008130003010768     GGSL
TXBWIC20010-32221-10885-20001458D0021368D007700057510885     GGSL
TXBWIC20010-32221-11008-40004248D0002830D000880000711008     GGSL
TXBWIC20010-32221-11695-00001745D0026112D011910017411695     GGSL
TXBWIC20010-32221-31063-70000108D0002295D000020001031063     GGSL
TXBWIC20010-32221-31228-00000852D0002331D000390001031228     GGSL
TXBWIC20010-32221-32297-50001404D0025327D000140000532297     GGSL
TXBWIC20010-32221-32325-50000156D0000845D000160000032325     GGSL
TXBWIC20010-32221-33033-80001020D0006972D000510000233033     GGSL
TXBWIC20010-32221-33035-20001776D0016150D000420001033035     GGSL
TXBWIC20010-32221-33326-10006320D0046674D035480010933326     GGSL
TXBWIC20010-32221-33327-80002803D0034515D026640000033327     GGSL
TXBWIC20010-32221-33704-70004536D0158202D024780048033704     GGSL
TXBWIC20010-32221-40550-00000025D0000480D000000000040550     GGSL
TXBWIC20010-32221-40712-20000900D0008943D000500000740712     GGSL
TXBWIC20010-32221-40730-60000080D0000636D001810000040730     GGSL
TXBWIC20010-32221-43040-30000360D0001752D000150000442194     GGSL
TXBWIC20010-32221-57705-00001476D0008255D000980001811685     GGSL
TXBWIC20010-32247-00000-00000716D0012705D000220000117185     GGSL
TXBWIC20010-32247-00900-30000156D0000378D00030000001009001   GGSL
TXBWIC20010-32247-00910-20000048D0000131D00019000051009101   GGSL
TXBWIC20010-32247-00950-80000042D0000101D00014000011009501   GGSL
TXBWIC20010-32247-03313-80006687D0126824D00799000093313B     GGSL
TXBWIC20010-32247-03594-10000700D0003920D003150001070359430  GGSL
TXBWIC20010-32247-05514-70020682D0071705D032520006270551430  GGSL
TXBWIC20010-32247-10500-20002100D0014196D0007300002110500    GGSL
TXBWIC20010-32247-11307-60007570D0013271D017730040071130756  GGSL
TXBWIC20010-32247-14905-10001608D0010042D000550000114905     GGSL
TXBWIC20010-32247-15307-20001006D0001887D004110000171530751  GGSL
TXBWIC20010-32247-17183-00001176D0009164D000070000417183     GGSL
TXBWIC20010-32247-17187-80000443D0018922D000130000017187     GGSL
TXBWIC20010-32247-17290-50000834D0007147D000150000017290     GGSL
TXBWIC20010-32247-17293-60000600D0004946D000090000117293     GGSL
TXBWIC20010-32247-17295-00000272D0005298D000070000017295     GGSL
TXBWIC20010-32247-17323-00000348D0002684D000300000017323     GGSL
TXBWIC20010-32247-17325-40000228D0003709D000060000017325     GGSL
TXBWIC20010-32247-17327-80000210D0007155D000840000017327     GGSL
TXBWIC20010-32247-17424-40000008D0000180D000000000017519     GGSL
TXBWIC20010-32247-17501-20000036D0000404D000150000017508     GGSL
TXBWIC20010-32247-17520-30000006D0000067D000000000017520     GGSL
TXBWIC20010-32247-17528-90000012D0000269D000100000017540     GGSL
TXBWIC20010-32247-17582-10000246D0002752D000000000017582     GGSL
TXBWIC20010-32247-18221-80000080D0001580D000180000018221     GGSL
TXBWIC20010-32247-18225-60000150D0001430D000590000118225     GGSL
TXBWIC20010-32247-18249-20000011D0000542D000000000018249     GGSL
TXBWIC20010-32247-18251-50000004D0000127D000020000018251     GGSL
TXBWIC20010-32247-18266-90000006D0000070D000290000018266     GGSL
TXBWIC20010-32247-18272-00000156D0000735D000170000018272     GGSL
TXBWIC20010-32247-18296-60000018D0000226D000020000018296     GGSL
TXBWIC20010-32247-18320-80000042D0000368D000270000018320     GGSL
TXBWIC20010-32247-18345-10000012D0000134D000000000018345     GGSL
TXBWIC20010-32247-18346-80000012D0000200D000250000018346     GGSL
TXBWIC20010-32247-18348-20000036D0000483D000090000018348     GGSL
TXBWIC20010-32247-18350-50001125D0006529D001650000318350     GGSL
TXBWIC20010-32247-18353-60001175D0027747D000600001118335     GGSL
TXBWIC20010-32247-18354-30000048D0000543D000190000018354     GGSL
TXBWIC20010-32247-18362-80000972D0029895D000000000418362     GGSL
TXBWIC20010-32247-19002-20000042D0000326D000030000019002     GGSL
TXBWIC20010-32247-19003-90000018D0000613D000090000119003     GGSL
TXBWIC20010-32247-19594-20000085D0000524D002160000071959430  GGSL
TXBWIC20010-32247-20220-60000020D0000304D000000000020220     GGSL
TXBWIC20010-32247-20605-10000827D0013403D000850000021605     GGSL
TXBWIC20010-32247-20784-30001116D0003058D003720000972078430  GGSL
TXBWIC20010-32247-20785-00000174D0000578D000140000372078500  GGSL
TXBWIC20010-32247-20814-70000010D0000369D000000000021814     GGSL
TXBWIC20010-32247-21030-00000052D0001071D000000000021030A    GGSL
TXBWIC20010-32247-21031-70000006D0000260D000000000021031     GGSL
TXBWIC20010-32247-21701-90000468D0003350D000070000021701     GGSL
TXBWIC20010-32247-22305-80000030D0000426D000000000422305     GGSL
TXBWIC20010-32247-22315-70000035D0001096D000530000022315     GGSL
TXBWIC20010-32247-23405-40002936D0034977D001970002023405B    GGSL
TXBWIC20010-32247-23415-30000125D0004449D000120000023415     GGSL
TXBWIC20010-32247-25006-10002981D0050015D003300004425006A    GGSL
TXBWIC20010-32247-25009-20000240D0011186D000890000025009     GGSL
TXBWIC20010-32247-26003-90001875D0041676D000300000026003D    GGSL
TXBWIC20010-32247-26007-70000349D0007501D001700000026007B    GGSL
TXBWIC20010-32247-26784-70000180D0000518D000480000072678430  GGSL
TXBWIC20010-32247-27764-80000008D0000034D000010000072776430  GGSL
TXBWIC20010-32247-27791-40000240D0000440D000000000372779180  GGSL
TXBWIC20010-32247-30073-50000212D0003008D000000000030073     GGSL
TXBWIC20010-32247-30156-50000856D0012024D000000000030156     GGSL
TXBWIC20010-32247-30177-00000580D0008159D000040000030177     GGSL
TXBWIC20010-32247-33020-60000299D0011337D000090000033020     GGSL
TXBWIC20010-32247-35594-00000200D0001120D000000000073559430  GGSL
TXBWIC20010-32247-35605-30000160D0002985D001590000044615A    GGSL
TXBWIC20010-32247-36605-20001262D0021160D001000000499605     GGSL
TXBWIC20010-32247-37594-80007314D0035456D012780000073759430  GGSL
TXBWIC20010-32247-37610-50000539D0006484D000400000037610A    GGSL
TXBWIC20010-32247-38605-00000032D0000486D000200000038605D    GGSL
TXBWIC20010-32247-38615-90000400D0000376D000140000038615     GGSL
TXBWIC20010-32247-39594-60008748D0058652D019260000073959430  GGSL
TXBWIC20010-32247-39605-90000800D0011664D000490000039605     GGSL
TXBWIC20010-32247-39615-80002480D0095921D000000000039615     GGSL
TXBWIC20010-32247-42784-50000450D0001249D000520000674278430  GGSL
TXBWIC20010-32247-43850-60000244D0005228D00018000014385010   GGSL
TXBWIC20010-32247-43854-40000028D0000255D00012000004385404   GGSL
TXBWIC20010-32247-43860-50000028D0000476D00007000004386004   GGSL
TXBWIC20010-32247-45651-70001027D0008505D003860002245651300  GGSL
TXBWIC20010-32247-47783-30000138D0000391D000200000174778300  GGSL
TXBWIC20010-32247-49013-90000005D0000100D000270000049013     GGSL
TXBWIC20010-32247-49019-10000208D0002002D001300000049019     GGSL
TXBWIC20010-32247-49021-40000002D0000044D000560000049021     GGSL
TXBWIC20010-32247-49024-50000240D0002788D000050000049024     GGSL
TXBWIC20010-32247-49785-50001194D0003349D001670001574978500  GGSL
TXBWIC20010-32247-50086-90000030D0000480D00012000005008610   GGSL
TXBWIC20010-32247-50087-60000072D0001118D00010000005008710   GGSL
TXBWIC20010-32247-50088-30000030D0000495D00010000005008810   GGSL
TXBWIC20010-32247-50089-00000032D0000694D00016000015008910   GGSL
TXBWIC20010-32247-50090-60000004D0000062D00000000005009010   GGSL
TXBWIC20010-32247-50154-50000335D0001728D004040000345015430  GGSL
TXBWIC20010-32247-50524-60052940D0302436D022060008875052430  GGSL
TXBWIC20010-32247-51105-60001925D0020532D003960006051105     GGSL
TXBWIC20010-32247-51115-50001161D0034688D001640000751115     GGSL
TXBWIC20010-32247-52524-40037248D0005997D003830000085252430  GGSL
TXBWIC20010-32247-52784-20000444D0001240D000390000485278430  GGSL
TXBWIC20010-32247-53105-40002053D0016107D002270008553105     GGSL
TXBWIC20010-32247-53115-30001480D0031267D000180000053115     GGSL
TXBWIC20010-32247-55513-50003227D0022018D011000001075551300  GGSL
TXBWIC20010-32247-55523-40004248D0045278D013830003975552300  GGSL
TXBWIC20010-32247-55783-20000750D0002720D000690000475578300  GGSL
TXBWIC20010-32247-55863-10000463D0002642D001930001875586300  GGSL
TXBWIC20010-32247-56063-40000104D0000403D000340000045606300  GGSL
TXBWIC20010-32247-56163-10000182D0001132D000000000045616300  GGSL
TXBWIC20010-32247-56513-40032703D0194679D026310048075651300  GGSL
TXBWIC20010-32247-56523-30089527D0842331D042600071375652300  GGSL
TXBWIC20010-32247-56783-10020004D0063411D003400002075678300  GGSL
TXBWIC20010-32247-56863-00004190D0021421D013340001875686300  GGSL
TXBWIC20010-32247-57905-60000110D0001061D000000000057905     GGSL
TXBWIC20010-32247-60594-60002136D0012077D009480000076059430  GGSL
TXBWIC20010-32247-71060-20001481D0015530D001120000871060     GGSL
TXBWIC20010-32247-71131-90000373D0005900D000910000371131     GGSL
TXBWIC20010-32247-74150-70003396D0013753D0005500003274150    GGSL
TXBWIC20010-32247-74250-40003840D0023831D0005600006274250    GGSL
TXBWIC20010-32247-74850-60001652D0023236D0007700005274850    GGSL
TXBWIC20010-32247-75902-10000132D0008600D000480000075902     GGSL
TXBWIC20010-32247-76121-50001044D0029648D000690000976121     GGSL
TXBWIC20010-32247-76232-80000228D0011397D000260000276232     GGSL
TXBWIC20010-32247-76565-70000015D0000708D000040000176565     GGSL
TXBWIC20010-32247-77160-30001764D0006595D0012100001277160    GGSL
TXBWIC20010-32247-77260-00001380D0009297D0010600006277260    GGSL
TXBWIC20010-32247-77860-20000264D0003220D0003300000277860    GGSL
TXBWIC20010-32247-77960-90000808D0012681D0019200010277960    GGSL
TXBWIC20010-32247-84526-70000420D0001352D000000000088452600  GGSL
TXBWIC20010-32247-85526-60000600D0001931D000040000088552600  GGSL
TXBWIC20010-32247-86526-50000360D0001159D000060000088652600  GGSL
TXBWIC20010-32247-95517-10000420D0001475D005830000079551750  GGSL
TXBWIC20010-32247-95597-30000384D0001585D000000000079559750  GGSL
TXBWIC20010-32247-99605-10000030D0000546D000000000099605B    GGSL
TXBWIC20010-32584-94501-90000003D0000015D00000000005590001   GGSL
TXBWIC20010-32584-94505-70000003D0000014D00000000005594505   GGSL
TXBWIC20010-32584-94506-40000019D0000096D00000000005594506   GGSL
TXBWIC20010-32584-94509-50000029C0000096C00000000005594509   GGSL
TXBWIC20010-32903-00169-30000192D0000194D0000900000SLI06000E3GGSL
TXBWIC20010-32903-00203-40000006D0000374D0000000000TEA30000G2GGSL
TXBWIC20010-32903-00246-10000048D0000062D0000000000SLI08000A3GGSL
TXBWIC20010-32903-00264-50000024D0000053D0000000000LIA08000E2GGSL
TXBWIC20010-32903-00281-20000048D0000161D0000000000LIA10000E2GGSL
TXBWIC20010-32903-00283-60000012D0000067D0000000000GAB14000E2GGSL
TXBWIC20010-32903-00293-50000012D0000021D0000000000SLI10000E2GGSL
TXBWIC20010-32903-00309-30000336D0000615D0001900001SLI10000E3GGSL
TXBWIC20010-32903-00313-00000012D0000094D0000000002GAB18000E2GGSL
TXBWIC20010-32903-00326-00000048D0000253D0000000000LIA12000E2GGSL
TXBWIC20010-32903-00338-30000012D0000021D0000000000SLI10000A3GGSL
TXBWIC20010-32903-00341-30000144D0000969D0001100000SLI24000E3GGSL
TXBWIC20010-32903-00359-80000216D0000290D0000700000SLI08000E3GGSL
TXBWIC20010-32903-04255-90000060D0000409D0000000000LIA14000E2GGSL
TXBWIC20010-32903-04257-30000012D0000036D0000000000SLI12000E2GGSL
TXBWIC20010-32903-04265-80000006D0000074D0000000000GAB22000E2GGSL
TXBWIC20010-32903-07519-90000048D0000508D0000000001LIA16000E2GGSL
TXBWIC20010-32903-07534-20000024D0000340D0000000001LIA20000E2GGSL
TXBWIC20010-32903-07558-80000024D0000065D0000000000RZ.WC1Q0B9GGSL
TXBWIC20010-32903-07577-90000018D0000339D0000000000LIA24000E2GGSL
TXBWIC20010-32903-12006-60000312D0000467D0001800000LIA06000E3GGSL
TXBWIC20010-32903-12008-00000336D0000762D0001700000LIA08000E3GGSL
TXBWIC20010-32903-12010-30000312D0001068D0004600002LIA10000E3GGSL
TXBWIC20010-32903-12012-70000300D0001603D0003300000LIA12000E3GGSL
TXBWIC20010-32903-12014-10000216D0001487D0001900002LIA14000E3GGSL
TXBWIC20010-32903-12017-20000276D0002967D0001400000LIA16000E3GGSL
TXBWIC20010-32903-12020-20000096D0001401D0001100001LIA20000E3GGSL
TXBWIC20010-32903-12024-00000072D0001438D0000100000LIA24000E3GGSL
TXBWIC20010-32903-12312-80000036D0000157D0000200001CNA12000E3GGSL
TXBWIC20010-32903-12318-00000108D0000367D0000800001SVN18000E3GGSL
TXBWIC20010-32903-12324-10000090D0000333D0000400000SVN24000E3GGSL
TXBWIC20010-32903-12714-00000120D0000622D0000600000GAB14000E3GGSL
TXBWIC20010-32903-12718-80000072D0000580D0001300000GAB18000E3GGSL
TXBWIC20010-32903-12722-50000030D0000380D0002800000GAB22000E3GGSL
TXBWIC20010-32903-12818-50000126D0000735D0001400002VNP18000E3GGSL
TXBWIC20010-32903-12824-60000138D0000914D0000400003VNP24000E3GGSL
TXBWIC20010-32903-12830-70000024D0000200D0000000001VNP30000E3GGSL
TXBWIC20010-32903-23732-00000006D0000033D0000000000SLI20000E2GGSL
TXBWIC20010-32903-30392-60000048D0000105D0000000000CNA08000E3GGSL
TXBWIC20010-32903-35947-30000036D0000100D0000000000CNA10000E3GGSL
TXBWIC20010-32903-40400-50000024D0000080D0000000000LIA10000A3GGSL
TXBWIC20010-32903-41640-40000048D0000106D0000000000LIA08000A3GGSL
TXBWIC20010-32903-41717-30000012D0000082D0000000000lia140000bGGSL
TXBWIC20010-32903-41728-90000012D0000063D0000000000lia12000b9GGSL
TXBWIC20010-32903-41909-20000036D0000381D0000000000LIA16000A3GGSL
TXBWIC20010-32903-42050-00000012D0000226D0000000000LIA24000A3GGSL
TXBWIC20010-32903-42240-50000024D0000035D0000000000LIA06000B9GGSL
TXBWIC20010-32903-45170-20000024D0000164D0000000000LIA14000A3GGSL
TXBWIC20010-32903-46337-80000012D0000127D0000000000LIA16000B9GGSL
TXBWIC20010-32903-46966-00000018D0000255D0000000000LIA20000A3GGSL
TXBWIC20010-32903-47208-00000024D0000126D0000100000LIA12000A3GGSL
TXBWIC20010-32903-48101-30000048D0000070D0000000000LIA06000A3GGSL
TXBWIC20010-32903-48538-70000006D0000085D0000000000LIA20000B9GGSL
TXBWIC20010-32903-50763-80000360D0001023D0001400000SLI12000E3GGSL
TXBWIC20010-32903-50767-60000012D0000036D0000000000SLI12000A3GGSL
TXBWIC20010-32903-50802-40000252D0000832D0000600001SLI14000E3GGSL
TXBWIC20010-32903-50803-10000012D0000039D0000000000SLI14000A3GGSL
TXBWIC20010-32903-53271-50000012D0000082D0000000000SLI24000E2GGSL
TXBWIC20010-32903-55269-00000004D0000249D0000000004TEA30000E3GGSL
TXBWIC20010-32903-60930-10000003D0000132D0000000000TES20000E3GGSL
TXBWIC20010-32903-72233-80000012D0000040D0000000000LIA10000B9GGSL
TXBWIC20010-32903-72518-60000024D0000174D0000200000RZ.WC2G0B9GGSL
TXBWIC20010-32903-72886-60000048D0000229D0000000000RZ.WC1G0B9GGSL
TXBWIC20010-32903-73641-00000032D0000219D0000000000RZ.WC2G0E3GGSL
TXBWIC20010-32903-75049-20000126D0000713D0000800001SLI20000E3GGSL
TXBWIC20010-32903-75051-50000012D0000043D0000000000SLI17000A3GGSL
TXBWIC20010-32903-75070-60000006D0000033D0000000000SLI20000A3GGSL
TXBWIC20010-32903-75080-50000168D0000613D0000700001SLI17000E3GGSL
TXBWIC20010-32903-75084-30000006D0000041D0000000000SLI24000A3GGSL
TXBWIC20010-32903-91517-40000016D0000085D0000000000PPF10001Y2GGSL
TXBWIC20010-32903-91580-80000006D0000097D0000000000PZA16000Y3GGSL
TXBWIC20010-33349-00000-00181752D0013781D000890001570000362  GGSL
TXBWIC20010-33607-00001-50000112D0003074D0003300002GBA-1     GGSL
TXBWIC20010-33607-00953-40000060D0001340D0001700024SP-33     GGSL
TXBWIC20010-33745-97185-40000012D0000292D005760002597185     GGSL
TXBWIC20010-34141-00011-70000062D0000554D0034300000YCBSM3CF-PGGSL
TXBWIC20010-34141-00012-40000809D0005748D0068200000YCBSI3CF-PGGSL
TXBWIC20010-34411-13411-50000020D0000028D000000000001HMBK    GGSL
TXBWIC20010-34411-74251-80000006D0000075D0000700003874251-100GGSL
TXBWIC20010-34411-74501-40000006D0000126D0000300003874501-100GGSL
TXBWIC20010-34417-00000-00002380D0004053D000150000050055077  GGSL
TXBWIC20010-34417-53000-30004939D0016602D019180023852050327  GGSL
TXBWIC20010-34613-00002-70001208D0008446D0252900270LH002     GGSL
TXBWIC20010-34613-00003-40001234D0008601D0057600076LH003     GGSL
TXBWIC20010-34613-00004-10000711D0004841D0215500276LH004     GGSL
TXBWIC20010-34613-00005-80000004D0000062D0006700000LH005     GGSL
TXBWIC20010-34613-00006-50000901D0006317D0153700232LH006     GGSL
TXBWIC20010-34613-00011-90000012D0000075D0000000000lh011     GGSL
TXBWIC20010-34613-00012-60000012D0000075D0000000000LH012     GGSL
TXBWIC20010-34613-00013-30000024D0000150D0000000000LH013     GGSL
TXBWIC20010-34613-00014-00000024D0000150D0000000001LH014     GGSL
TXBWIC20010-34613-00022-50000010D0000128D0008000000LH022     GGSL
TXBWIC20010-34613-00029-40000001D0000011D00023000028205      GGSL
TXBWIC20010-34613-00060-70000042D0000392D0000400007TP60      GGSL
TXBWIC20010-34613-00328-80000012D0000044D0000000000328       GGSL
TXBWIC20010-34613-00451-30000048D0000072D0000100001451       GGSL
TXBWIC20010-34613-00453-70000024D0000056D0000000000453       GGSL
TXBWIC20010-34613-00489-60000012D0000066D0000000000489       GGSL
TXBWIC20010-34613-00493-30000012D0000095D0000000000493       GGSL
TXBWIC20010-34613-00497-10000024D0000032D0000000000497       GGSL
TXBWIC20010-34613-00499-50000024D0000088D0000000000499       GGSL
TXBWIC20010-34613-00500-80000024D0000072D0000000000500       GGSL
TXBWIC20010-34613-00501-50000024D0000044D0000000000501       GGSL
TXBWIC20010-34613-00503-90000024D0000020D0000000000503       GGSL
TXBWIC20010-34613-00555-80000024D0000036D0000000001555BL     GGSL
TXBWIC20010-34613-00640-10000240D0000026D00011000156-40HD    GGSL
TXBWIC20010-34613-00834-40000015D0000243D0000000000SFS8      GGSL
TXBWIC20010-34613-00835-10000040D0000218D0000000000SFS5      GGSL
TXBWIC20010-34613-01904-30000012D0000048D00000000011904      GGSL
TXBWIC20010-34613-01906-70000024D0000258D00000000011906      GGSL
TXBWIC20010-34613-01908-10000048D0000192D00000000001908      GGSL
TXBWIC20010-34613-03110-60000042D0000063D00000000003110      GGSL
TXBWIC20010-34613-03603-30000255D0000850D0000800011U3603     GGSL
TXBWIC20010-34613-04830-20000042D0000168D00000000004830      GGSL
TXBWIC20010-34613-04850-00000018D0000072D00098004043104BL    GGSL
TXBWIC20010-34613-04870-80000024D0000136D0000000840LH015BL   GGSL
TXBWIC20010-34613-05017-60000126D0000819D00000000015017BL    GGSL
TXBWIC20010-34613-06811-90000006D0000088D00000000026811      GGSL
TXBWIC20010-34613-07757-90000024D0000096D00000000797757BL    GGSL
TXBWIC20010-34613-07758-60000072D0000288D00001001227758BL    GGSL
TXBWIC20010-34613-08210-80000012D0000066D0000000000PS10      GGSL
TXBWIC20010-34613-09164-30000007D0000116D00000000009164      GGSL
TXBWIC20010-34613-12812-70000180D0002463D0000200033SMG12812  GGSL
TXBWIC20010-34613-70034-70000012D0000117D000000000070034     GGSL
TXBWIC20010-34613-70052-10001980D0021771D000170007470052     GGSL
TXBWIC20010-34613-70791-90000005D0000125D001750007570285BL   GGSL
TXBWIC20010-34613-71660-70000012D0000258D000000000071660     GGSL
TXBWIC20010-35307-00402-40000024D0000075D0000000000402       GGSL
TXBWIC20010-35307-00781-00000024D0000184D0000000004781       GGSL
TXBWIC20010-35307-00782-70000024D0000184D0000000003782       GGSL
TXBWIC20010-35307-00810-70000036D0000066D0000000000810       GGSL
TXBWIC20010-35307-00817-60000036D0000070D0000000001817       GGSL
TXBWIC20010-35307-00818-30000024D0000037D0000000003818       GGSL
TXBWIC20010-35307-00820-60000156D0000197D0000900026820       GGSL
TXBWIC20010-35307-00826-80000180D0000259D0001300014826       GGSL
TXBWIC20010-35307-00834-30000048D0000119D0000000000834       GGSL
TXBWIC20010-35307-00839-80000012D0000035D0000000000839       GGSL
TXBWIC20010-35307-00840-40000036D0000078D0000000001840       GGSL
TXBWIC20010-35307-00844-20000036D0000072D0000400001844       GGSL
TXBWIC20010-35307-00859-60000024D0000070D0000000000859       GGSL
TXBWIC20010-35307-00861-90000120D0000242D0001400011861       GGSL
TXBWIC20010-35307-00862-60000012D0000028D0000500000862       GGSL
TXBWIC20010-35307-00864-00000012D0000041D0000100000864       GGSL
TXBWIC20010-35307-00865-70000012D0000038D0000300000865       GGSL
TXBWIC20010-35307-00874-90000096D0000130D0002700001874       GGSL
TXBWIC20010-35307-00895-40000008D0003600D0000000003895       GGSL
TXBWIC20010-35307-01601-00000090D0001073D00025000031601      GGSL
TXBWIC20010-35307-01609-60000264D0000912D00036000161609CS    GGSL
TXBWIC20010-35307-01612-60000012D0000035D00001000001612      GGSL
TXBWIC20010-35307-01618-80000012D0000072D00001000001618      GGSL
TXBWIC20010-35307-01640-90000012D0000066D00000000051640      GGSL
TXBWIC20010-35307-01645-40000012D0000112D00000000001645      GGSL
TXBWIC20010-35307-01646-10000006D0000050D00000000011646      GGSL
TXBWIC20010-35307-01810-60000302D0001365D00282000001810      GGSL
TXBWIC20010-35307-01815-10000129D0000767D00109000321815      GGSL
TXBWIC20010-35307-01817-50000048D0000177D00000000011817-6    GGSL
TXBWIC20010-35307-01818-20000012D0000112D00006000001818-6    GGSL
TXBWIC20010-35307-01820-50000024D0000263D00011000001820      GGSL
TXBWIC20010-35307-01825-00000252D0001908D00013000341825      GGSL
TXBWIC20010-35307-01835-90000003D0000080D00007000021835      GGSL
TXBWIC20010-35307-01840-30000072D0001070D00007000001840      GGSL
TXBWIC20010-35307-01845-80000024D0000262D00000000011845      GGSL
TXBWIC20010-35307-01847-20000006D0000128D00000000001847      GGSL
TXBWIC20010-35307-01860-10000006D0000109D00000000001860      GGSL
TXBWIC20010-35307-01875-50000006D0000101D00000000001875      GGSL
TXBWIC20010-35307-90856-80000024D0000048D0000100000856       GGSL
TXBWIC20010-35307-90879-70000036D0000146D0000000000879       GGSL
TXBWIC20010-35355-00000-00000002D0001697D0000000065SD612     GGSL
TXBWIC20010-35355-00072-60000048D0000542D0000000009TP72      GGSL
TXBWIC20010-35355-00342-00000001D0000002D0001700000342       GGSL
TXBWIC20010-35355-00540-00000640D0000064D00047000115-40HD    GGSL
TXBWIC20010-35355-00802-90000440D0000333D0003700048SS2       GGSL
TXBWIC20010-35355-00803-60000280D0000213D0003700043SS3       GGSL
TXBWIC20010-35355-00804-30000120D0000138D0011200026SS4       GGSL
TXBWIC20010-35355-00805-00000040D0000050D0008400031SS5       GGSL
TXBWIC20010-35355-00806-70000180D0000315D0006800022SS6       GGSL
TXBWIC20010-35355-00924-80001331D0009599D0077900046924       GGSL
TXBWIC20010-35355-01151-70000170D0000765D00007000141151PDQ   GGSL
TXBWIC20010-35355-01160-90000117D0000234D00001001111160      GGSL
TXBWIC20010-35355-01284-20000024D0000060D0000000000CVS012HD  GGSL
TXBWIC20010-35355-01901-80000036D0000144D00005000001901      GGSL
TXBWIC20010-35355-01905-60000036D0000144D00000000011905      GGSL
TXBWIC20010-35355-03105-80001752D0007880D00061003003105      GGSL
TXBWIC20010-35355-03108-90000228D0000696D00000000043108      GGSL
TXBWIC20010-35355-04803-20000105D0000449D0000500008U4803     GGSL
TXBWIC20010-35355-05939-70000024D0000226D00011000005939      GGSL
TXBWIC20010-35355-05945-80001260D0016588D00000003575945      GGSL
TXBWIC20010-35355-08338-50000006D0000153D00000000008338      GGSL
TXBWIC20010-35355-09709-20000012D0000044D00000000009709      GGSL
TXBWIC20010-35355-13104-80000006D0000042D00000000003104      GGSL
TXBWIC20010-35355-20608- 0000012D0000048D00000000002060N     GGSL
TXBWIC20010-35355-94006-00000072D0000408D000040001994006     GGSL
TXBWIC20010-35355-95006-90000012D0000086D000090001495006     GGSL
TXBWIC20010-35355-96006-80000024D0000232D000070001996006     GGSL
TXBWIC20010-35951-07011-60000002D0000174D000610000007011     GGSL
TXBWIC20010-36348-00610-70000240D0001116D0003900004610       GGSL
TXBWIC20010-36348-00645-90000038D0000470D0008000004645       GGSL
TXBWIC20010-36348-01020-30000009D0000138D00030000001020      GGSL
TXBWIC20010-36348-01045-60000001D0000055D00000000001045      GGSL
TXBWIC20010-36348-01078-40000015D0000533D00003000001078      GGSL
TXBWIC20010-36348-01079-10000035D0001598D00089000021079      GGSL
TXBWIC20010-36348-01084-50000078D0002184D00032001161084      GGSL
TXBWIC20010-36348-01085-20000003D0000175D00008000001085      GGSL
TXBWIC20010-36348-03141-30000006D0000048D00000000003141.0    GGSL
TXBWIC20010-36348-03142-00000030D0000335D00001000003142-DS   GGSL
TXBWIC20010-36348-05277-70000004D0000126D00000000005277      GGSL
TXBWIC20010-36348-56006-70000036D0000427D0003500000DO5600-6  GGSL
TXBWIC20010-36434-00000-00000265D0004868D000980000610-12420  GGSL
TXBWIC20010-36434-07020-00000024D0000372D00000000011017020   GGSL
TXBWIC20010-36434-10000-00000150D0002330D00009000231013620   GGSL
TXBWIC20010-36434-10000-90000048D0001076D00000000011010000   GGSL
TXBWIC20010-36434-10012-20000132D0001682D000170000010-10012  GGSL
TXBWIC20010-36434-11000-80000309D0002933D005200002260-11000  GGSL
TXBWIC20010-36434-12012-00000012D0000117D000030000010-12012  GGSL
TXBWIC20010-36434-12340-40000126D0000254D00000000046012340   GGSL
TXBWIC20010-36434-12342-80000086D0000537D001760000160-12342  GGSL
TXBWIC20010-36434-12343-50000021D0000187D002520001860-12343  GGSL
TXBWIC20010-36434-12345-90000024D0000240D000080000010-12345  GGSL
TXBWIC20010-36434-12346-60000388D0001726D008520010760-12346  GGSL
TXBWIC20010-36434-12348-00000016D0000152D000060000010-12348  GGSL
TXBWIC20010-36434-12349-70000017D0000067D001340000560-12349  GGSL
TXBWIC20010-36434-12350-30000001D0000038D000000000060 12350  GGSL
TXBWIC20010-36434-12351-00000066D0000278D00000000006012351   GGSL
TXBWIC20010-36434-12353-40000291D0004718D013060003460-12353  GGSL
TXBWIC20010-36434-12354-10000012D0000083D001220001210-12354  GGSL
TXBWIC20010-36434-12355-80000229D0001559D003290001010-12355  GGSL
TXBWIC20010-36434-12356-50000260D0002022D003030004510-12356  GGSL
TXBWIC20010-36434-12357-20000059D0000498D001190001010-12357  GGSL
TXBWIC20010-36434-12358-90000001D0000076D00000000001012358   GGSL
TXBWIC20010-36434-12362-60000040D0000291D000000000110-12362  GGSL
TXBWIC20010-36434-12367-10000002D0000093D00000000001012367   GGSL
TXBWIC20010-36434-12380-00000012D0000116D000000000260-12380  GGSL
TXBWIC20010-36434-12430-40000006D0000104D00000000006012430   GGSL
TXBWIC20010-36434-12440-30000036D0000341D00000000026012440   GGSL
TXBWIC20010-36434-12450-20000042D0000607D00000000026012450   GGSL
TXBWIC20010-36434-12625-20000036D0000215D000000000260-12625  GGSL
TXBWIC20010-36434-12700-60000684D0005083D000300002910-12700  GGSL
TXBWIC20010-36434-12701-30000006D0000045D000000001860-12701  GGSL
TXBWIC20010-36434-12706-80000006D0000045D000000001060-12706  GGSL
TXBWIC20010-36434-12710-50000012D0000079D000040000010-12710  GGSL
TXBWIC20010-36434-12720-40000084D0000509D000210000110-12720  GGSL
TXBWIC20010-36434-12721-10000006D0000036D000090000060-12721  GGSL
TXBWIC20010-36434-12812-60000048D0000712D000000000310-12812  GGSL
TXBWIC20010-36434-12860-70000036D0000432D000000000210-12860  GGSL
TXBWIC20010-36434-13001-00000012D0000058D000000000010-13001  GGSL
TXBWIC20010-36434-13200-00000006D0000028D00011000066013200   GGSL
TXBWIC20010-36434-13600-50000180D0003013D000000001310-13600  GGSL
TXBWIC20010-36434-13610-20000168D0002302D000000002110-13610  GGSL
TXBWIC20010-36434-13611-40000002D0000176D00000000006013611   GGSL
TXBWIC20010-36434-13614-50000002D0000176D00000000006013614   GGSL
TXBWIC20010-36434-13615-20000002D0000176D00000000006013615   GGSL
TXBWIC20010-36434-13616-90000002D0000176D00000000006013616   GGSL
TXBWIC20010-36434-14800-80000312D0004960D000450000210-14800  GGSL
TXBWIC20010-36434-14801-80000006D0000095D000010000060-14801  GGSL
TXBWIC20010-36434-14802-50000001D0000095D00000000006014802   GGSL
TXBWIC20010-36434-14803-20000006D0000095D000010000060-14803  GGSL
TXBWIC20010-36434-14805-60000012D0000197D000000000060-14805  GGSL
TXBWIC20010-36434-14806-30000006D0000095D000040000060-14806  GGSL
TXBWIC20010-36434-14860-20000300D0003730D000370000110-14860  GGSL
TXBWIC20010-36434-14861-20000012D0000154D000020000060-14861  GGSL
TXBWIC20010-36434-14865-00000018D0000231D000010000060-14865  GGSL
TXBWIC20010-36434-14866-70000012D0000154D000010000060-14866  GGSL
TXBWIC20010-36434-15050-90000042D0000632D000220000010-15050  GGSL
TXBWIC20010-36434-15080-30000006D0000117D000040000010-15080  GGSL
TXBWIC20010-36434-17000-20000204D0007705D00000000101017000   GGSL
TXBWIC20010-36434-17004-00000001D0000238D00000000001017004   GGSL
TXBWIC20010-36434-17010-10000042D0000912D000000000110-17010  GGSL
TXBWIC20010-36434-17061-30000001D0000054D00000000021017061   GGSL
TXBWIC20010-36434-18033-90000003D0000381D000000000010 28033  GGSL
TXBWIC20010-36434-18037-70000007D0000648D00001000051028037   GGSL
TXBWIC20010-36434-22310-40000012D0000063D00000000046022310   GGSL
TXBWIC20010-36434-22311-10000012D0000064D00000000016022311   GGSL
TXBWIC20010-36434-22316-60000004D0000177D00000000006022316   GGSL
TXBWIC20010-36434-22317-30000006D0000260D00000000006022317   GGSL
TXBWIC20010-36434-22318-00000345D0001452D004080009560-22318  GGSL
TXBWIC20010-36434-22341-80000084D0000831D000120000010-22341  GGSL
TXBWIC20010-36434-22345-60000084D0000840D000000000210-22345  GGSL
TXBWIC20010-36434-22358-60000012D0000140D000000000110-22358  GGSL
TXBWIC20010-36434-22626-60000151D0001745D002330001560-22626  GGSL
TXBWIC20010-36434-22705-80000012D0000089D00000000001022705   GGSL
TXBWIC20010-36434-22728-70000024D0000281D00000000006022728   GGSL
TXBWIC20010-36434-22731-70000115D0001090D001400000860-22731  GGSL
TXBWIC20010-36434-22732-40000224D0002746D003860001160-22732  GGSL
TXBWIC20010-36434-24211-20000016D0000149D000020000010-24211  GGSL
TXBWIC20010-36434-24501-40000018D0000166D000050000060-24501  GGSL
TXBWIC20010-36434-24502-10000002D0000111D00000000006024502   GGSL
TXBWIC20010-36434-24503-80000012D0000111D000000001260-24503  GGSL
TXBWIC20010-36434-24504-50000002D0000111D00000000006024504   GGSL
TXBWIC20010-36434-24505-20000024D0000221D000050000060-24505  GGSL
TXBWIC20010-36434-24506-90000018D0000166D000070000060-24506  GGSL
TXBWIC20010-36434-28010-70000660D0004569D000290002410-28010  GGSL
TXBWIC20010-36434-28019-20000024D0000180D000010000010-28019  GGSL
TXBWIC20010-36434-28020-60000408D0002825D000860000310-28020  GGSL
TXBWIC20010-36434-32700-00000132D0001089D003120000110-32700  GGSL
TXBWIC20010-36434-34500-10000120D0001167D000100004110-34500  GGSL
TXBWIC20010-36434-60123-00000015D0019486D000000001360123     GGSL
TXBWIC20010-36434-60133-90000001D0001456D000000000060133     GGSL
TXBWIC20010-36434-62020-00000012D0001919D000000000462020     GGSL
TXBWIC20010-36434-65095-50000960D0017872D000000000765095     GGSL
TXBWIC20010-36434-82342-70000110D0001451D001480000360-82342  GGSL
TXBWIC20010-36464-17052-10000030D0000180D000000000010-17052  GGSL
TXBWIC20010-36865-12250-20000094D0010093D000190001171140180  GGSL
TXBWIC20010-36865-12292-20000060D0000154D000000000286752180  GGSL
TXBWIC20010-36865-14511-20000375D0000540D000050000671451180  GGSL
TXBWIC20010-36865-24511-90001080D0003111D000160000172451180  GGSL
TXBWIC20010-36865-45220-30001800D0004500D000000000088452205  GGSL
TXBWIC20010-36865-52965-30000540D0001210D000000000087852965  GGSL
TXBWIC20010-36865-65220-70001260D0003150D000000000088652205  GGSL
TXBWIC20010-36865-71751-70000420D0000756D000000000071751180  GGSL
TXBWIC20010-37321-00000-00000084D0000169D0000300006050       GGSL
TXBWIC20010-37321-00022-80000792D0004328D0003800127022       GGSL
TXBWIC20010-37321-00023-50000020D0000332D0000000001023       GGSL
TXBWIC20010-37321-00024-20000492D0005147D0004600036024       GGSL
TXBWIC20010-37321-00025-90000108D0000792D0000000001025       GGSL
TXBWIC20010-37321-00036-50000060D0000336D0000000001036       GGSL
TXBWIC20010-37321-00040-20000072D0000737D0000000002040       GGSL
TXBWIC20010-37321-00050-10000036D0000031D0000000001049       GGSL
TXBWIC20010-37321-00065-50000012D0000054D0000000001065       GGSL
TXBWIC20010-37321-00068-60000132D0000579D0004500031068       GGSL
TXBWIC20010-37321-00069-30000456D0005136D0007100031069       GGSL
TXBWIC20010-37321-00070-90000016D0002430D0002000045070       GGSL
TXBWIC20010-37321-00097-60000084D0000378D0000000004097       GGSL
TXBWIC20010-37321-00099-00000012D0000074D0000000003099       GGSL
TXBWIC20010-37321-00105-80000288D0000705D0001400032105       GGSL
TXBWIC20010-37321-00106-50000344D0001334D0002900023106       GGSL
TXBWIC20010-37321-00107-20000320D0001248D0002100034107       GGSL
TXBWIC20010-37321-00108-90000320D0001202D0001500045108       GGSL
TXBWIC20010-37321-00110-20000064D0000191D0000000011110       GGSL
TXBWIC20010-37321-00112-60000032D0000090D0000000002112       GGSL
TXBWIC20010-37321-00114-00000056D0000158D0000000001114       GGSL
TXBWIC20010-37321-00116-40000024D0000073D0000000000116       GGSL
TXBWIC20010-37321-00120-10000060D0000293D0000200002120       GGSL
TXBWIC20010-37321-00121-80000040D0000391D0000300011121       GGSL
TXBWIC20010-37321-00123-20000588D0001250D0004700008123       GGSL
TXBWIC20010-37321-00127-00000180D0001374D0001800017127       GGSL
TXBWIC20010-37321-00141-60000060D0000240D0000200010141       GGSL
TXBWIC20010-37321-00148-50000108D0000918D0000000000148       GGSL
TXBWIC20010-37321-00150-80000708D0009626D0003900187150       GGSL
TXBWIC20010-37321-00166-90000024D0000122D0000500006166       GGSL
TXBWIC20010-37321-00171-30000156D0001314D0000000008171       GGSL
TXBWIC20010-37321-00197-30000048D0000245D0000000000197       GGSL
TXBWIC20010-37321-00198-00000024D0000233D0000000000198       GGSL
TXBWIC20010-37321-00201-70000060D0000350D0001300000201       GGSL
TXBWIC20010-37321-00202-40000600D0005607D0008500019202       GGSL
TXBWIC20010-37321-00203-10000204D0002709D0004400005203       GGSL
TXBWIC20010-37321-00210-90000312D0001642D0005100002210       GGSL
TXBWIC20010-37321-00211-60000300D0002337D0004100021211       GGSL
TXBWIC20010-37321-00213-00000504D0004431D0003600019213       GGSL
TXBWIC20010-37321-00214-70000612D0002853D0004500013214       GGSL
TXBWIC20010-37321-00217-80000012D0000107D0000000000217       GGSL
TXBWIC20010-37321-00221-50000048D0000231D0000000008221       GGSL
TXBWIC20010-37321-00225-30000024D0000120D0000100000225       GGSL
TXBWIC20010-37321-00230-70000012D0000095D0000000001230       GGSL
TXBWIC20010-37321-00237-60000012D0000135D0000000001237       GGSL
TXBWIC20010-37321-00238-30000252D0001887D0001100017238       GGSL
TXBWIC20010-37321-00239-00000004D0000079D0000000005239       GGSL
TXBWIC20010-37321-00240-60000024D0000358D0000000003240       GGSL
TXBWIC20010-37321-00250-50000756D0003427D0004700062250       GGSL
TXBWIC20010-37321-00252-90000528D0005666D0002900004252       GGSL
TXBWIC20010-37321-00253-60000336D0005605D0001500000253       GGSL
TXBWIC20010-37321-00255-00000264D0004583D0000000017255       GGSL
TXBWIC20010-37321-00257-40000060D0000208D0000800024257       GGSL
TXBWIC20010-37321-00258-10000036D0000201D0000000004258       GGSL
TXBWIC20010-37321-00272-70000012D0000040D0000000010272       GGSL
TXBWIC20010-37321-00274-10000660D0003744D0004500034274       GGSL
TXBWIC20010-37321-00276-50000072D0000878D0000000001276       GGSL
TXBWIC20010-37321-00285-70000024D0000120D0000000003285       GGSL
TXBWIC20010-37321-00307-60000480D0001790D0002600048307       GGSL
TXBWIC20010-37321-00308-30000008D0000075D0000000000308       GGSL
TXBWIC20010-37321-00309-00000402D0005735D0003100035309       GGSL
TXBWIC20010-37321-00310-60000024D0000628D0000000006310       GGSL
TXBWIC20010-37321-00311-30000018D0000481D0000000000311       GGSL
TXBWIC20010-37321-00312-00000024D0000413D0000000000312       GGSL
TXBWIC20010-37321-00323-60000006D0000050D0000000000323       GGSL
TXBWIC20010-37321-00330-40000324D0002694D0003600000330       GGSL
TXBWIC20010-37321-00331-10000300D0003994D0005200003331       GGSL
TXBWIC20010-37321-00332-80000012D0000528D0000000000332       GGSL
TXBWIC20010-37321-00412-70000420D0001898D0000400000412       GGSL
TXBWIC20010-37321-00413-40000128D0001309D0001500041413       GGSL
TXBWIC20010-37321-00420-20000003D0000159D0011600054420       GGSL
TXBWIC20010-37321-00426-40000192D0001650D0004000027426       GGSL
TXBWIC20010-37321-00428-80000456D0001539D0002000022428       GGSL
TXBWIC20010-37321-00429-50000021D0000341D0002500016429       GGSL
TXBWIC20010-37321-00442-40000360D0002036D0007600007442       GGSL
TXBWIC20010-37321-00443-10000120D0001157D0001100004443       GGSL
TXBWIC20010-37321-00506-30000120D0000468D0001300016506       GGSL
TXBWIC20010-37321-00527-80000012D0000044D0000000000527       GGSL
TXBWIC20010-37321-00543-80000180D0000526D0002100004543       GGSL
TXBWIC20010-37321-00544-50000048D0000248D0000800002544       GGSL
TXBWIC20010-37321-00549-00000036D0000301D0001000000549       GGSL
TXBWIC20010-37321-00552-00000006D0000091D0002100001552       GGSL
TXBWIC20010-37321-00553-70000030D0000814D0003700011553       GGSL
TXBWIC20010-37321-00564-30000060D0000543D0000000026564       GGSL
TXBWIC20010-37321-00573-50000384D0001575D0002300002573       GGSL
TXBWIC20010-37321-00577-30000072D0000284D0000000001577       GGSL
TXBWIC20010-37321-00578-00000040D0000386D0000000001578       GGSL
TXBWIC20010-37321-00609-10000096D0000871D0000900001609       GGSL
TXBWIC20010-37321-00611-40000028D0000751D0001900000611       GGSL
TXBWIC20010-37321-00612-10000024D0000109D00001000040612      GGSL
TXBWIC20010-37321-00613-80000004D0000048D00000000000613      GGSL
TXBWIC20010-37321-00631-20004742D0011352D0187200130631       GGSL
TXBWIC20010-37321-00651-00000004D0000045D00000000030651      GGSL
TXBWIC20010-37321-00652-70000072D0000324D0000000001652       GGSL
TXBWIC20010-37321-00655-80000192D0000995D00044000556556      GGSL
TXBWIC20010-37321-00677-00000012D0000064D0000000000677       GGSL
TXBWIC20010-37321-00680-00000324D0002122D0016600002680       GGSL
TXBWIC20010-37321-00683-10000084D0000635D0004500016683       GGSL
TXBWIC20010-37321-00684-80000792D0006305D0016800009685       GGSL
TXBWIC20010-37321-00688-60000024D0000136D0000000001688       GGSL
TXBWIC20010-37321-00690-90000120D0001181D0001200003690       GGSL
TXBWIC20010-37321-00691-60000099D0000758D0001200004691       GGSL
TXBWIC20010-37321-00692-30001976D0007894D0112700137692       GGSL
TXBWIC20010-37321-00697-80000024D0000080D0000000000697       GGSL
TXBWIC20010-37321-00728-90000048D0000572D0000600001728       GGSL
TXBWIC20010-37321-00771-50000072D0000346D0000300004771       GGSL
TXBWIC20010-37321-00772-20000048D0000373D0000000000772       GGSL
TXBWIC20010-37321-00775-30000408D0002220D0005300014775       GGSL
TXBWIC20010-37321-00777-70000024D0000218D0000500003777       GGSL
TXBWIC20010-37321-00779-10000072D0000542D0000300017779       GGSL
TXBWIC20010-37321-00784-50000036D0000088D0001500001784       GGSL
TXBWIC20010-37321-00786-90000792D0002598D0023600207786       GGSL
TXBWIC20010-37321-00789-00000208D0001262D0268900688791       GGSL
TXBWIC20010-37321-00802-60000024D0000119D0000100002802       GGSL
TXBWIC20010-37321-00803-30000012D0000100D0000000008803       GGSL
TXBWIC20010-37321-00806-40000036D0000249D0000000003806       GGSL
TXBWIC20010-37321-00811-80000660D0007176D0010200006811       GGSL
TXBWIC20010-37321-00813-20000210D0002577D0006800062813       GGSL
TXBWIC20010-37321-00814-90000006D0000130D0000000005814       GGSL
TXBWIC20010-37321-00857-60000288D0002347D0001900002857       GGSL
TXBWIC20010-37321-00858-30000144D0001845D0000000004858       GGSL
TXBWIC20010-37321-00861-30000072D0000574D0000000001861       GGSL
TXBWIC20010-37321-00862-00000264D0002973D0003300011862       GGSL
TXBWIC20010-37321-00863-70000054D0000664D0000500002863       GGSL
TXBWIC20010-37321-00866-80000024D0000121D0000100002865       GGSL
TXBWIC20010-37321-00868-20000012D0000133D0001000000868       GGSL
TXBWIC20010-37321-00870-50000096D0000612D0001500009870       GGSL
TXBWIC20010-37321-00875-00000408D0002838D0025500004875       GGSL
TXBWIC20010-37321-00879-80000036D0000282D0000000004879       GGSL
TXBWIC20010-37321-00880-40000156D0001705D0003500030880       GGSL
TXBWIC20010-37321-00881-10000012D0000243D0000000000881       GGSL
TXBWIC20010-37321-00883-50000228D0001023D0004300076883       GGSL
TXBWIC20010-37321-00892-70000768D0006720D0000000084892       GGSL
TXBWIC20010-37321-00897-20000048D0000272D0002700001897       GGSL
TXBWIC20010-37321-00904-70000012D0000091D0000000002904       GGSL
TXBWIC20010-37321-00925-20001152D0003222D0009400035925       GGSL
TXBWIC20010-37321-00939-90000216D0002094D0003100024939       GGSL
TXBWIC20010-37321-00941-20000624D0006012D0011000019941       GGSL
TXBWIC20010-37321-00945-00000018D0000158D0000000001945       GGSL
TXBWIC20010-37321-00951-10000384D0001426D0003700033951       GGSL
TXBWIC20010-37321-00952-80000012D0000058D0001200001952       GGSL
TXBWIC20010-37321-00963-40000036D0000300D0002000001963       GGSL
TXBWIC20010-37321-00992-40000024D0000198D0000000004992       GGSL
TXBWIC20010-37321-00993-10000012D0000167D0000000001993       GGSL
TXBWIC20010-37321-01971-80000072D0000289D00000000001971      GGSL
TXBWIC20010-37321-01972-50000012D0000045D00000000021972      GGSL
TXBWIC20010-37321-02011-00000012D0000100D00000000032011      GGSL
TXBWIC20010-37321-02021-90000024D0000332D00001000002021      GGSL
TXBWIC20010-37321-02360-90000096D0000625D00011000002360      GGSL
TXBWIC20010-37321-02361-60000552D0005715D00008000392361      GGSL
TXBWIC20010-37321-02362-30000012D0000211D00000000072362      GGSL
TXBWIC20010-37321-02761-40000012D0000214D00001000042761      GGSL
TXBWIC20010-37321-03082-90000018D0000300D00000000003082      GGSL
TXBWIC20010-37321-05611-90000096D0000369D0005300039560       GGSL
TXBWIC20010-37321-05612-60000084D0000739D00035000115612      GGSL
TXBWIC20010-37321-05710-90000072D0000402D00003000015710      GGSL
TXBWIC20010-37321-05714-70000036D0001001D00004000025714      GGSL
TXBWIC20010-37321-07458-80000036D0000559D00004000007458      GGSL
TXBWIC20010-37321-07460-10000012D0000069D00000000017460      GGSL
TXBWIC20010-37321-07461-80000012D0000115D00000000017461      GGSL
TXBWIC20010-37321-07464-90000048D0000610D00006000007464      GGSL
TXBWIC20010-37321-07467-00000012D0000171D00000000007467      GGSL
TXBWIC20010-37321-07468-70000018D0000444D00000000007468      GGSL
TXBWIC20010-37321-07469-40000004D0000311D00000000007469      GGSL
TXBWIC20010-37321-07470-00000002D0000378D00000000007470      GGSL
TXBWIC20010-37321-07490-80000222D0001132D00032001367490      GGSL
TXBWIC20010-37321-07492-20000028D0000448D00020000457492      GGSL
TXBWIC20010-37321-07495-30000003D0000074D00000000007495      GGSL
TXBWIC20010-37321-08636-90000036D0000410D00004000018636      GGSL
TXBWIC20010-37321-08752-60000012D0000137D00045000098752      GGSL
TXBWIC20010-37321-09534-70000456D0004632D00038000139534      GGSL
TXBWIC20010-37321-20069-40000001D0000147D000000000020069     GGSL
TXBWIC20010-37321-20470-80000001D0000496D000010000020472     GGSL
TXBWIC20010-37321-20479-10000006D0000031D0000000000321       GGSL
TXBWIC20010-37321-20539-20000001D0001629D000000000020539     GGSL
TXBWIC20010-37321-20544-60000001D0000973D000000000020544     GGSL
TXBWIC20010-37321-20545-30000001D0000885D000000000020545     GGSL
TXBWIC20010-37321-25100-20000630D0002948D0000000000CAL100    GGSL
TXBWIC20010-37321-45672-80000012D0000074D000000000845672     GGSL
TXBWIC20010-37321-46125-80000040D0000072D000000009246125     GGSL
TXBWIC20010-37321-46126-50001100D0000164D000440000546126     GGSL
TXBWIC20010-37321-46172-20000036D0000153D000090000046172     GGSL
TXBWIC20010-37321-46177-70000024D0000202D000000000046177     GGSL
TXBWIC20010-37321-46178-40000048D0000255D000020000046178     GGSL
TXBWIC20010-37321-46180-70000012D0000071D000000000046180     GGSL
TXBWIC20010-37321-46181-20000004D0000071D000000000046181     GGSL
TXBWIC20010-37321-46186-90000144D0000082D000000000046315     GGSL
TXBWIC20010-37321-48113-30000072D0000637D00011000025712      GGSL
TXBWIC20010-37321-60224-80000838D0009751D001050000060410     GGSL
TXBWIC20010-37321-60251-40000270D0004965D000750009160454     GGSL
TXBWIC20010-37321-60315-30003000D0000191D000520001060315     GGSL
TXBWIC20010-37321-60360-30000660D0006972D003240005660362     GGSL
TXBWIC20010-37321-60365-80000010D0000273D000470000060365     GGSL
TXBWIC20010-37321-60400-60001591D0017967D003690116060402     GGSL
TXBWIC20010-37321-60407-50000084D0000645D000200001360407     GGSL
TXBWIC20010-37321-60414-30000370D0011563D000420004560414     GGSL
TXBWIC20010-37321-60420-40001058D0012817D002080002460420     GGSL
TXBWIC20010-37321-60424-20000421D0013475D001930004560424     GGSL
TXBWIC20010-37321-60430-30000554D0005596D001150001060432     GGSL
TXBWIC20010-37321-60434-10000060D0001592D000200001060434     GGSL
TXBWIC20010-37321-60440-20000550D0005638D001100001060442     GGSL
TXBWIC20010-37321-60444-00000100D0002502D000800000060444     GGSL
TXBWIC20010-37321-60460-00000427D0004285D001210002260460     GGSL
TXBWIC20010-37321-60464-80000010D0000258D000350000060464     GGSL
TXBWIC20010-37321-60476-10007923D0084333D042450836960478     GGSL
TXBWIC20010-37321-60514-00000942D0010187D013040142260516     GGSL
TXBWIC20010-37321-60613-00000024D0000227D000110000060613     GGSL
TXBWIC20010-37321-60728-10000030D0000366D000760001060730     GGSL
TXBWIC20010-37321-61117-20000048D0000501D000000000061117     GGSL
TXBWIC20010-38313-00005-90000056D0001165D0003600000GS 6750D  GGSL
TXBWIC20010-38313-00007-30000006D0000247D0000000000HS 6920   GGSL
TXBWIC20010-38313-00008-00000145D0002364D0015000005BP 3130   GGSL
TXBWIC20010-38313-00060-80000694D0011409D0020600200BP 3160   GGSL
TXBWIC20010-38313-00080-60000567D0011036D0025600267BP 3180D  GGSL
TXBWIC20010-38313-00081-30000042D0000371D0000000020AC 7220   GGSL
TXBWIC20010-38313-00217-60000020D0000324D0000700008FS 4350   GGSL
TXBWIC20010-38313-00524-50000006D0000125D0000000000SL 3310   GGSL
TXBWIC20010-38313-00830-70000057D0001664D0006700000BP 6250   GGSL
TXBWIC20010-38313-01010-20000696D0003288D0010900003CT 3010I  GGSL
TXBWIC20010-38313-01020-10000204D0000967D0001000003CT 3020I  GGSL
TXBWIC20010-38313-01030-00000096D0000466D0002700000CT 3030I  GGSL
TXBWIC20010-38313-01040-90000006D0000029D0000000000CT 3040I  GGSL
TXBWIC20010-38313-03050-60000054D0000366D0000700012GT 3050   GGSL
TXBWIC20010-38313-03060-50000120D0000828D0001300014GT 3060   GGSL
TXBWIC20010-38313-03080-30000078D0000520D0001000017GT 3080   GGSL
TXBWIC20010-38313-03214-20000090D0000862D0001300005BP 3214D  GGSL
TXBWIC20010-38313-03244-90000048D0000819D0000300007HS 3244   GGSL
TXBWIC20010-38313-03334-70000078D0000858D0001300004AP 3334   GGSL
TXBWIC20010-38313-03344-60000006D0000140D0000000000HS 3344   GGSL
TXBWIC20010-38313-03364-40000006D0000136D0000000001SL 3364   GGSL
TXBWIC20010-38313-03470-20000013D0000378D0003400001FL 3470   GGSL
TXBWIC20010-38313-03634-80000009D0000218D0001900000LG 3634   GGSL
TXBWIC20010-38313-03694-20000003D0000084D0000100000LG 3694   GGSL
TXBWIC20010-38313-03710-90001092D0005073D0004100126CT 3710   GGSL
TXBWIC20010-38313-03720-80000012D0000056D0006600000CT 3720   GGSL
TXBWIC20010-38313-03730-70000186D0000885D0001300045CT 3730   GGSL
TXBWIC20010-38313-03750-50000258D0001228D0001400026CT 3750   GGSL
TXBWIC20010-38313-04110-60000054D0000810D0000100014AL 4110   GGSL
TXBWIC20010-38313-04930-00002156D0012531D0175700096AG 4930   GGSL
TXBWIC20010-38313-04930-70000379D0002875D0140700013AG 4930SS GGSL
TXBWIC20010-38313-06100-50000006D0000155D0000000000SH 61000  GGSL
TXBWIC20010-38313-06970-40000077D0003135D0016700013AH 6970   GGSL
TXBWIC20010-38313-07265-00000036D0000576D0000400007RS 7265D  GGSL
TXBWIC20010-38313-07500-20000036D0000559D0000200001RS 7255   GGSL
TXBWIC20010-38313-07545-20000145D0002305D0014700024RS 7245   GGSL
TXBWIC20010-38313-08300-00000012D0000077D0000000000AC 8300   GGSL
TXBWIC20010-38313-10000-10000091D0000821D0015700014SS 10000  GGSL
TXBWIC20010-38313-10227-20000080D0005376D0003300000AL 6512   GGSL
TXBWIC20010-38313-11000-00000027D0000238D0009800001SS 11000  GGSL
TXBWIC20010-38313-12400-70000146D0001704D0044000005RK 24003  GGSL
TXBWIC20010-38313-13214-90000096D0000731D0000000017FS 3214D  GGSL
TXBWIC20010-38313-13640-60000006D0000192D0000000000BP 6340   GGSL
TXBWIC20010-38313-16360-00000012D0000326D0000000000BP 6360   GGSL
TXBWIC20010-38313-20001-50000005D0000107D0001000005PD 20000  GGSL
TXBWIC20010-38313-20002-20000018D0000276D0000200018RK 20002  GGSL
TXBWIC20010-38313-20004-60000020D0000268D0003400090CV 20004  GGSL
TXBWIC20010-38313-20022-00000047D0000787D0011900000RK 20022  GGSL
TXBWIC20010-38313-21000-70000056D0000717D0006900057SH 20000  GGSL
TXBWIC20010-38313-21050-20000018D0000084D0000000000CT 3050I  GGSL
TXBWIC20010-38313-24000-40000006D0000050D0006800013FS 4000   GGSL
TXBWIC20010-38313-25008-90000060D0000260D0000600014RK 25008  GGSL
TXBWIC20010-38313-26001-90000072D0000828D0000000013SS 26010  GGSL
TXBWIC20010-38313-26020-00000034D0000479D0006900003SS 26020  GGSL
TXBWIC20010-38313-27010-00000006D0000083D0000000000SS 27010  GGSL
TXBWIC20010-38313-27020-90000006D0000085D0002400000SS 27020  GGSL
TXBWIC20010-38313-28000-00000010D0000168D0002800000SS 28000  GGSL
TXBWIC20010-38313-28010-90000022D0000442D0004000003SS 28010  GGSL
TXBWIC20010-38313-29001-60000006D0000130D0000000000SS 29010  GGSL
TXBWIC20010-38313-32440-70000248D0001500D0000000034CT 3244   GGSL
TXBWIC20010-38313-32441-40000006D0000056D0000400000GT 3244   GGSL
TXBWIC20010-38313-32541-10000016D0000144D0000000000GT 3254   GGSL
TXBWIC20010-38313-32640-10000160D0000799D0000000018CT 3264   GGSL
TXBWIC20010-38313-33140-50000144D0001092D0001100004CT 3314   GGSL
TXBWIC20010-38313-33240-20000128D0000935D0001200004CT 3324   GGSL
TXBWIC20010-38313-33340-90000112D0000826D0001600004CT 3334   GGSL
TXBWIC20010-38313-33440-60000112D0000850D0001200004CT 3344   GGSL
TXBWIC20010-38313-33540-30000128D0000945D0001400004CT 3354   GGSL
TXBWIC20010-38313-33640-00000120D0000996D0001200004CT 3364   GGSL
TXBWIC20010-38313-36241-60000003D0000077D0000300000LG 3624   GGSL
TXBWIC20010-38313-36541-70000001D0000020D0000700000LG 3654   GGSL
TXBWIC20010-38313-36841-80000001D0000024D0000100000LG 3684   GGSL
TXBWIC20010-38313-37101-20000012D0000210D0000200000LG 3710   GGSL
TXBWIC20010-38313-37201-90000015D0000251D0000300000LG 3720   GGSL
TXBWIC20010-38313-53841-50000013D0000631D0002200000TP 3841   GGSL
TXBWIC20010-38313-56200-70000024D0000185D0000800000RK 62000  GGSL
TXBWIC20010-38313-61062-30000005D0000250D0000000001RK 61062  GGSL
TXBWIC20010-38313-62061-50000048D0000607D0000000000RK 62061  GGSL
TXBWIC20010-38313-62062-20000007D0000290D0000700000BM 62060  GGSL
TXBWIC20010-38313-64144-30000014D0000283D0000300001SS 64104  GGSL
TXBWIC20010-38313-66000-00000001D0000024D0005700000SS 66000  GGSL
TXBWIC20010-38313-80000-00000013D0000940D0001500000SF 80000  GGSL
TXBWIC20010-38313-81000-90000023D0000234D0011700003RK 10000  GGSL
TXBWIC20010-38313-82000-80000001D0000121D0000000000FK 42000  GGSL
TXBWIC20010-38313-90000-70000029D0000266D0004500006SH 10000  GGSL
TXBWIC20010-38776-00207-20000006D0000056D0000000002UU1906BK3 GGSL
TXBWIC20010-38776-00213-30000006D0000054D0000000000UU1906ST  GGSL
TXBWIC20010-38776-00307-90000012D0000065D0000000001UU1412BK3 GGSL
TXBWIC20010-38776-00313-00000012D0000063D0000000000UU1412ST  GGSL
TXBWIC20010-38776-51012-60000012D0000044D0000000001UR1212ST  GGSL
TXBWIC20010-38776-62193-80000010D0000081D0000000000UR1810ST  GGSL
TXBWIC20010-38851-83587-20000006D0000026D00000000009685-06-42GGSL
TXBWIC20010-38858-13575-90000012D0000071D00000000006717-12-76GGSL
TXBWIC20010-38858-13576-60000012D0000086D00000000006718-12-76GGSL
TXBWIC20010-38858-13584-10000012D0000049D00000000009685-06-09GGSL
TXBWIC20010-38858-13588-90000006D0000026D00000000009685-06-42GGSL
TXBWIC20010-39044-15544-50000072D0000324D000020001815544     GGSL
TXBWIC20010-39079-00126-70000084D0000425D0001900000100520392 GGSL
TXBWIC20010-39079-00740-50000102D0000574D0013900004100519503 GGSL
TXBWIC20010-39079-00741-20000108D0000588D0008800000100519504 GGSL
TXBWIC20010-39079-01228-70000028D0000169D0000700000100525424 GGSL
TXBWIC20010-39079-05883-40000072D0000690D0002300000100519880 GGSL
TXBWIC20010-39079-05896-40000300D0002193D0002900004100511009 GGSL
TXBWIC20010-39079-05897-10000252D0003206D0007200000100511010 GGSL
TXBWIC20010-39079-05941-10000216D0001690D0005300002100503441 GGSL
TXBWIC20010-39079-05981-70000042D0000464D0001500000100522363 GGSL
TXBWIC20010-39079-06017-20000072D0000550D00026000003006017   GGSL
TXBWIC20010-39079-06022-60000108D0001149D00030000003006022.0 GGSL
TXBWIC20010-39645-11752-10000050D0000265D000000000140200010  GGSL
TXBWIC20010-39996-30293-50000080D0001064D000000002030293     GGSL
TXBWIC20010-40025-40001-00000500D0000093D0005200000RWS-54001 GGSL
TXBWIC20010-40025-54033-40000015D0000638D0002200004RWS-54033 GGSL
TXBWIC20010-40200-00000- 0000200D0000437D00000000005430      GGSL
TXBWIC20010-40235-75032-50000006D0000026D00010000021Q30S 6P  GGSL
TXBWIC20010-40235-75256-50000016D0000280D00000000002.5G30S   GGSL
TXBWIC20010-40279-03300-20000888D0001643D0013900001          GGSL
TXBWIC20010-40279-03302-60000252D0000473D0014200002          GGSL
TXBWIC20010-40279-03304-00000876D0003306D00098000033304      GGSL
TXBWIC20010-41535-24550-40000148D0005647D008420000224550.0   GGSL
TXBWIC20010-41535-24560-30000292D0041945D015180019824560.0   GGSL
TXBWIC20010-41535-24571-90001352D0016628D0041900043100518540 GGSL
TXBWIC20010-41535-25100-00000012D0000171D00000000009225100   GGSL
TXBWIC20010-41535-79218-30000013D0000433D00000000009206192   GGSL
TXBWIC20010-41535-79219-00000276D0002498D00000000009206231   GGSL
TXBWIC20010-42204-14504-80000001D0000001D00006000002MMC      GGSL
TXBWIC20010-42206-00000-00000007D0001869D000000000915534     GGSL
TXBWIC20010-42206-00056-90000072D0000493D000100000556-6      GGSL
TXBWIC20010-42206-00202-00000080D0000083D0003500002202S      GGSL
TXBWIC20010-42206-00269-30000120D0000448D0001600005269       GGSL
TXBWIC20010-42206-00395-90000130D0000254D0003300005395S      GGSL
TXBWIC20010-42206-00511-30000006D0000040D0001300000511       GGSL
TXBWIC20010-42206-00525-00000080D0000178D0000600004525C      GGSL
TXBWIC20010-42206-00872-50000138D0000278D0004600018872-6     GGSL
TXBWIC20010-42206-02950-80000006D0000066D00000000002950      GGSL
TXBWIC20010-42206-03010-80000009D0000080D00211000083010-4    GGSL
TXBWIC20010-42206-03900-20000006D0000088D00000000003900H     GGSL
TXBWIC20010-42206-07800-10000054D0000282D00004000027800      GGSL
TXBWIC20010-42206-09000-30000080D0000456D00018000029000      GGSL
TXBWIC20010-42206-09001-00000020D0000082D00000000009001      GGSL
TXBWIC20010-42206-09009-60000010D0000149D00000000009009      GGSL
TXBWIC20010-42206-09620-30000011D0000339D00131000029620-8    GGSL
TXBWIC20010-42206-14058-60000228D0001163D00045000049570      GGSL
TXBWIC20010-42206-14220-70000040D0000116D0001200008312S      GGSL
TXBWIC20010-42206-14221-40000030D0000053D0001600001313S      GGSL
TXBWIC20010-42206-14222-10000042D0000525D0001300008314S      GGSL
TXBWIC20010-42206-14235-10000080D0000082D0003100003390S      GGSL
TXBWIC20010-42206-14328-00000060D0000030D0000000001200C      GGSL
TXBWIC20010-42206-14456-00000120D0000179D0000100000420C      GGSL
TXBWIC20010-42206-14501-70000170D0000148D00002000041FMC      GGSL
TXBWIC20010-42206-14502-40000020D0000014D00017000001MMC      GGSL
TXBWIC20010-42206-14503- 0000001D0000001D00013000002FMC      GGSL
TXBWIC20010-42206-14503-10000170D0000141D00066000092FMC      GGSL
TXBWIC20010-42206-14504-80000190D0000118D00051000052MMC      GGSL
TXBWIC20010-42206-14505-50000010D0000009D000190000101MC      GGSL
TXBWIC20010-42206-14506-20000160D0000145D000370000502MC      GGSL
TXBWIC20010-42206-14571-00000150D0000494D0002700003ZBM3/4    GGSL
TXBWIC20010-42206-14572-70000200D0000708D0002900007ZBF3/4    GGSL
TXBWIC20010-42206-14599-40000006D0000075D00000000029536CH    GGSL
TXBWIC20010-42206-15404-00000030D0000300D000110000415404     GGSL
TXBWIC20010-42206-20491-20000140D0000634D000170000220491-10  GGSL
TXBWIC20010-42206-22701-00000040D0000112D000160000022701C    GGSL
TXBWIC20010-42206-23012-60000007D0000119D000090000013012     GGSL
TXBWIC20010-42206-23701-90000040D0000112D000100000023701S    GGSL
TXBWIC20010-42206-40261-50000186D0001245D000500000120261     GGSL
TXBWIC20010-42206-40301-80000110D0000649D0001000026XT301     GGSL
TXBWIC20010-42206-44100-30000054D0000813D0001100004XT4100    GGSL
TXBWIC20010-42206-48635-60000192D0001011D0000000005R8635     GGSL
TXBWIC20010-42206-50300-80000036D0000338D000130000020300     GGSL
TXBWIC20010-42206-63015-50000070D0001794D000660000263015     GGSL
TXBWIC20010-42206-63100-80000008D0000282D000100000263100     GGSL
TXBWIC20010-42579-00000-00000021D0004363D0000500010BRBHPM    GGSL
TXBWIC20010-42579-00035-70000018D0000130D00000000003 YR-3100 GGSL
TXBWIC20010-42579-00052-40000047D0001513D0001400006ST47812   GGSL
TXBWIC20010-42579-00066-10000001D0000580D0000000003ST554096  GGSL
TXBWIC20010-42579-11050-60000014D0000090D00000000001050RC    GGSL
TXBWIC20010-42579-11250-00000017D0006643D0008800002P12       GGSL
TXBWIC20010-42579-11450-40000002D0000091D0000000000450       GGSL
TXBWIC20010-42579-11500-60050000D0002099D0032600005APB5      GGSL
TXBWIC20010-42579-12342-10000048D0000528D0000000001PSS       GGSL
TXBWIC20010-42579-12343-80000014D0000573D000000000120 YR-3100GGSL
TXBWIC20010-42579-12346-90000024D0000041D0000600006TW3W      GGSL
