NJARET21030-02697-83536-10000001D0000038D000000000035368     GGSL
NJARET21030-07633-31219-70000264D0004060D0000800001AP30218DW GGSL
NJARET21030-08182-30017-60000006D0008816D00000000001160B     GGSL
NJARET21030-10367-00001-80000180D0000747D00000000000001      GGSL
NJARET21030-10367-00110-70000852D0005622D00049000220110      GGSL
NJARET21030-10367-00460-30000064D0000307D000000000004608     GGSL
NJARET21030-10367-00470-20000024D0000294D00020000000470      GGSL
NJARET21030-10367-00530-30000001D0000044D00000000000530      GGSL
NJARET21030-10367-00560-00000352D0001291D000120001205608     GGSL
NJARET21030-10367-00810-60000012D0000068D0000000000ML0810    GGSL
NJARET21030-10367-01010-90000036D0000572D00000000011010      GGSL
NJARET21030-10367-01020-80000036D0000622D00000000001020      GGSL
NJARET21030-10367-01050-50000036D0000454D00000000001050      GGSL
NJARET21030-10367-01110-60000216D0000714D00022000051110      GGSL
NJARET21030-10367-01111-30000136D0000449D00078000051111      GGSL
NJARET21030-10367-01112-00000040D0000137D00068000031112      GGSL
NJARET21030-10367-01120-50000368D0001061D00031000101120      GGSL
NJARET21030-10367-01121-20000176D0001036D00033000101121      GGSL
NJARET21030-10367-01122-90000296D0001721D00058000041122      GGSL
NJARET21030-10367-01130-40000280D0001515D00020000131130      GGSL
NJARET21030-10367-01140-30000144D0000485D00010000001140      GGSL
NJARET21030-10367-01151-90000032D0000107D00009000011151      GGSL
NJARET21030-10367-01160-10000056D0000438D00000000001160      GGSL
NJARET21030-10367-01161-80000088D0000688D00004000021161      GGSL
NJARET21030-10367-01162-50000144D0001126D00008000021162      GGSL
NJARET21030-10367-01240-00000012D0000071D00000000001240      GGSL
NJARET21030-10367-02121-10000008D0000038D0000000000ML2121    GGSL
NJARET21030-10367-02151-80000040D0000299D0001300002ML2151    GGSL
NJARET21030-10367-02162-40000056D0000382D0000400002ML2162    GGSL
NJARET21030-10367-02163-10000064D0000437D0001000001ML2163    GGSL
NJARET21030-10367-02171-60000016D0000109D0000300000ML2171    GGSL
NJARET21030-10367-02181-50000072D0000491D0001400001ML2181    GGSL
NJARET21030-10367-03010-70000032D0000189D0000100001ML3010    GGSL
NJARET21030-10367-03020-60000032D0000191D0000100001ML3020    GGSL
NJARET21030-10367-03997-10000001D0000549D00000000003997      GGSL
NJARET21030-11192-10594-70000024D0000624D0000000000KHEATMAT  GGSL
NJARET21030-11192-60612-30000024D0000221D0000500000KGFH      GGSL
NJARET21030-11192-86019-80000030D0000226D0001400000KMG6      GGSL
NJARET21030-11423-00338-70000036D0000222D000150000033801     GGSL
NJARET21030-11423-94108-50000006D0000070D0000400000HG94108   GGSL
NJARET21030-11423-94109-20000006D0000034D000490000094109     GGSL
NJARET21030-12095-60041-10000005D0000162D00000000001561KEW   GGSL
NJARET21030-12587-70022-80000024D0000053D002900000070022     GGSL
NJARET21030-12587-70028-00000060D0000256D003670000070028     GGSL
NJARET21030-12587-70403-50000036D0000202D000930000070403     GGSL
NJARET21030-12587-70419-60000024D0000135D003200000070419     GGSL
NJARET21030-12587-78459-40000024D0000212D000700000078459     GGSL
NJARET21030-12587-78685-70000012D0000108D000510000078685     GGSL
NJARET21030-12587-78743-40000012D0000010D001120000078743     GGSL
NJARET21030-12587-78834-90000048D0000049D001310000078834     GGSL
NJARET21030-12587-78838-70000020D0000023D001530000078838     GGSL
NJARET21030-12587-79008-30000018D0000159D000800000079008     GGSL
NJARET21030-13887-98764-70000002D0000112D0000000000TRSPF23   GGSL
NJARET21030-14306-13393-50000012D0000240D0000000000US347116  GGSL
NJARET21030-14306-13921-00000012D0000416D0000000000US278116  GGSL
NJARET21030-14306-14144-20000005D0000092D0000000000US647116  GGSL
NJARET21030-14306-90826-70000004D0000139D0000000000US278148  GGSL
NJARET21030-14306-92840-10000018D0000662D0000800000US900688  GGSL
NJARET21030-14306-92844-90000020D0000376D0000000000US295700  GGSL
NJARET21030-14306-92848-70000009D0000290D0000500002US395700  GGSL
NJARET21030-14400-60000-50000018D0000179D000000000060000ZFP  GGSL
NJARET21030-14400-62504-60000116D0001474D00239001701440062504GGSL
NJARET21030-14400-66000-90000112D0001407D000200002066000ZFP  GGSL
NJARET21030-14400-67000-80000009D0000129D000200002067000     GGSL
NJARET21030-14400-68100-40000004D0000051D000000000068100ZFP  GGSL
NJARET21030-14400-69056-30000116D0000719D00046000261440069056GGSL
NJARET21030-14400-80400-70000421D0004285D00289002891440080400GGSL
NJARET21030-14400-81200-20000029D0000332D00000000001440081200GGSL
NJARET21030-15561-20910-60000048D0000330D0000200000PT910     GGSL
NJARET21030-15561-20911-30000072D0000442D0000100000PT911     GGSL
NJARET21030-15561-20931-10000006D0000072D0000100000PT931     GGSL
NJARET21030-15561-20936-60000006D0000055D0000000000PT936     GGSL
NJARET21030-15561-20937-30000006D0000082D0000300003PT937     GGSL
NJARET21030-15561-20939-70000006D0000049D0000300002PT939     GGSL
NJARET21030-15561-20961-80000036D0000052D0000000000PT961     GGSL
NJARET21030-15561-20966-30000036D0000085D0000000000PT966     GGSL
NJARET21030-15561-20968-70000036D0000081D0000000000PT968     GGSL
NJARET21030-15561-20974-80000024D0000134D0000000000PT974     GGSL
NJARET21030-15561-20976-20000024D0000095D0000000000PT976     GGSL
NJARET21030-15561-20977-90000024D0000154D0000000000PT977     GGSL
NJARET21030-15561-20978-60000006D0000065D0000000000PT978     GGSL
NJARET21030-15561-28300-70000001D0000061D0000100000PT8300    GGSL
NJARET21030-15561-28301-40000001D0000074D0000100000PT8301    GGSL
NJARET21030-15561-28302-10000001D0000086D0000000000PT8302    GGSL
NJARET21030-15759-01244-00000066D0000743D0000000000R1203B    GGSL
NJARET21030-15759-01306-50000008D0000191D0000000000R1251BG   GGSL
NJARET21030-15759-01419-20000036D0000609D0000000000R1099COLB GGSL
NJARET21030-15759-01420-80000001D0000017D0000000000R1115COLRXGGSL
NJARET21030-15759-01506-90000006D0000103D0000000000R1115COLG GGSL
NJARET21030-15759-01507-60000005D0000144D0000500001R1203GX   GGSL
NJARET21030-15759-01508-30000018D0000518D0000000000R1203W    GGSL
NJARET21030-15759-01518-20000012D0000202D0000100000R1253G    GGSL
NJARET21030-15759-01521-20000024D0000272D0000500002R1364G    GGSL
NJARET21030-15829-18479-40000006D0000121D000000000018479     GGSL
NJARET21030-15829-18480-00000006D0000116D000000000018480     GGSL
NJARET21030-16069-00001-10000012D0000086D0000200000NESR      GGSL
NJARET21030-16069-00002-80000036D0000241D0000200000NEOR      GGSL
NJARET21030-16069-00005-90000324D0002331D0006800006TP15C     GGSL
NJARET21030-16069-00007-30000552D0003676D0010200005BN1       GGSL
NJARET21030-16069-00008-00000804D0005262D0014800067BN2       GGSL
NJARET21030-16069-00013-40000132D0003800D0011300009BN3       GGSL
NJARET21030-16069-00014-10000108D0002331D0006200001BN4       GGSL
NJARET21030-16069-00015-80000024D0000625D0001700001BN5       GGSL
NJARET21030-16069-00019-60000072D0000828D0002800003TP30C     GGSL
NJARET21030-16069-00030-10000018D0000237D0005100000OW6       GGSL
NJARET21030-16069-00032-50000372D0004014D0000600006HG25      GGSL
NJARET21030-16069-00033-20000126D0002531D0000900009HG50      GGSL
NJARET21030-16069-00038-70000816D0007630D0001500016GF1015    GGSL
NJARET21030-16069-00047-90000012D0000086D0000800000TE12C     GGSL
NJARET21030-16069-00049-30000312D0005838D0015200004DX7       GGSL
NJARET21030-16069-00050-90000054D0001554D0002900006DX14      GGSL
NJARET21030-16069-00060-80000030D0000086D0000100001RAP15     GGSL
NJARET21030-16069-00072-10000072D0000464D0001100000TSD12     GGSL
NJARET21030-16069-00076-90000360D0002329D0003100019PN10      GGSL
NJARET21030-16069-00077-60000336D0003626D0002600002PN14      GGSL
NJARET21030-16069-00079-00000090D0002837D0001100000PN28      GGSL
NJARET21030-16069-00110-00000075D0001210D0001100000PF3       GGSL
NJARET21030-16069-00204-60000084D0001087D0000100001WS2050    GGSL
NJARET21030-16069-00205-30000048D0001280D0000000000WS20100   GGSL
NJARET21030-16069-00218-30000180D0001036D0004600004HST100    GGSL
NJARET21030-16069-00306-70000100D0001200D0000600001WS1050    GGSL
NJARET21030-16069-00307-40000048D0001120D0000400000WS10100   GGSL
NJARET21030-16069-00365-40000576D0006267D0004100030PIN9      GGSL
NJARET21030-16069-00393-70000288D0001036D0005900002GS20      GGSL
NJARET21030-16069-00394-40000018D0000919D0002300000PN45      GGSL
NJARET21030-16069-00401-90000420D0003927D0000400004GF4050    GGSL
NJARET21030-16069-00434-70000030D0000091D0000000000PM25      GGSL
NJARET21030-16069-00436-10000045D0000120D0000000000TWST100   GGSL
NJARET21030-16069-00448-40000012D0000112D0000000000BR12      GGSL
NJARET21030-16069-00467-50000020D0000200D0000000000WS550D    GGSL
NJARET21030-16069-00468-20000150D0000336D0000000000HCK50     GGSL
NJARET21030-16069-00474-30000144D0000952D0000500000GS40BW    GGSL
NJARET21030-16069-00479-80000600D0011525D0005400019E316B     GGSL
NJARET21030-16069-00480-40000048D0000242D0000000000SPT15     GGSL
NJARET21030-16069-00485-90000024D0000052D0000000000GS1024    GGSL
NJARET21030-16069-00494-10000056D0000524D0001400001GFST4050  GGSL
NJARET21030-16069-00497-20000024D0000259D0000000000BRG20     GGSL
NJARET21030-16069-00498-90000096D0001036D0000200002HGP1012   GGSL
NJARET21030-16069-00499-60000020D0000360D0000000000HGP1020   GGSL
NJARET21030-16069-00504-70000030D0000059D0000000000TG130W    GGSL
NJARET21030-16069-00518-40000168D0000846D0000100001SG2512    GGSL
NJARET21030-16069-00519-10000012D0000086D0000100001SPB56     GGSL
NJARET21030-16069-00545-00000072D0000295D0000000000PD36      GGSL
NJARET21030-16069-00546-70000024D0000988D0000800004RRBG4     GGSL
NJARET21030-16069-00550-40000050D0000662D0000400000TRWTW     GGSL
NJARET21030-16069-00582-50000020D0000362D0000000000POPNET1   GGSL
NJARET21030-16069-00585-60000036D0000207D0000500000DCLLF412  GGSL
NJARET21030-16069-00597-90000030D0000643D0000700002BTK6      GGSL
NJARET21030-16069-00601-30000008D0000137D0000000000FASM4     GGSL
NJARET21030-16069-00602-00000008D0000299D0000000000FALG4     GGSL
NJARET21030-16069-00609-90000012D0000172D0000000000PTP12     GGSL
NJARET21030-16069-00621-10000004D0000037D0000100000SKOT4     GGSL
NJARET21030-16069-00622-80000156D0000622D0000700000CP612     GGSL
NJARET21030-16069-00625-90000012D0000345D0000100000DXP12     GGSL
NJARET21030-16069-00626-60000010D0000065D0000000000PTG210    GGSL
NJARET21030-16069-00667-90000084D0001789D0119601196RH04US    GGSL
NJARET21030-17500-08120-00000024D0000034D002630000008120     GGSL
NJARET21030-17500-08150-70001224D0001860D001490000008150     GGSL
NJARET21030-17500-08150-70000024D0000034D000640000608150M    GGSL
NJARET21030-17500-91316-70000246D0004268D000430000291316     GGSL
NJARET21030-17500-91334-10000004D0000089D000000000091334     GGSL
NJARET21030-17500-91360-00000048D0000414D000000000091360     GGSL
NJARET21030-17500-91365-50000096D0000786D000010000091365     GGSL
NJARET21030-17500-91714-10000072D0001554D000290000391714     GGSL
NJARET21030-17500-91818-60000008D0000138D000000000091818     GGSL
NJARET21030-17500-95204-30000036D0000711D000240000095204     GGSL
NJARET21030-17500-95404-70000004D0000131D000000000095404     GGSL
NJARET21030-17849-00108-20000006D0000250D0000000000CLA108    GGSL
NJARET21030-17849-11133-00000042D0000250D0000000000CLA111    GGSL
NJARET21030-17849-23011-60000012D0000160D0000000000CF230W    GGSL
NJARET21030-18062-00019-70000144D0000639D0001300001PT06MCCS  GGSL
NJARET21030-18222-00017-30000001D0000123D0001000003PP17      GGSL
NJARET21030-18222-00101-90000042D0000128D0012500000CS06101   GGSL
NJARET21030-18222-00103-30000066D0000202D0006600000CS06103   GGSL
NJARET21030-18222-00105-70000072D0000220D0016600000CS06105   GGSL
NJARET21030-18222-00107-10000036D0000141D0006200000CS06107   GGSL
NJARET21030-18222-00109-50000138D0000421D0010700001CS06109   GGSL
NJARET21030-18222-00110-10000090D0000275D0006200001CS06110   GGSL
NJARET21030-18222-00206-10000024D0000114D0002900000CS06206   GGSL
NJARET21030-18222-00213-90000348D0001417D0001800013CS06213   GGSL
NJARET21030-18222-00246-70000042D0000251D0000000000CS246     GGSL
NJARET21030-18222-00501-70000828D0001093D0018300025CS12501   GGSL
NJARET21030-18222-00503-10000216D0000444D0001800001CS503     GGSL
NJARET21030-18222-00505-50000192D0000211D0016600004CS12505   GGSL
NJARET21030-18222-00507-90000336D0000452D0010600003CS12507   GGSL
NJARET21030-18222-00509-30000252D0000401D0013900002CS12509   GGSL
NJARET21030-18222-00513-00000072D0000149D0002300002CS12513   GGSL
NJARET21030-18222-00526-00000246D0000751D0015100016CS06526   GGSL
NJARET21030-18222-00527-70000552D0000713D0009000006CS12527   GGSL
NJARET21030-18222-00529-10000660D0001108D0015400043CS12529   GGSL
NJARET21030-18222-00531-40000228D0000499D0013200008CS12531   GGSL
NJARET21030-18222-00535-20000096D0000127D0006800002CS12535   GGSL
NJARET21030-18222-00543-70000144D0000197D0005000002CS12543   GGSL
NJARET21030-18222-00545-10000096D0000169D0002000002CS12545   GGSL
NJARET21030-18222-00553-60005076D0008604D0118301162CS12553   GGSL
NJARET21030-18222-00559-80000120D0000150D0008900003CS12559   GGSL
NJARET21030-18222-00561-10000060D0000079D0004300002CS12561   GGSL
NJARET21030-18222-00563-50000120D0000199D0002100004CS12563   GGSL
NJARET21030-18222-00565-90000192D0000328D0002500003CS12565   GGSL
NJARET21030-18222-00569-70000744D0001269D0009800011CS12569   GGSL
NJARET21030-18222-00571-00000204D0000428D0004900000CS12571   GGSL
NJARET21030-18222-00583-30000240D0000495D0008900008CS12583   GGSL
NJARET21030-18222-00608-30000288D0001050D0004600000CS608     GGSL
NJARET21030-18222-00680-90000012D0000028D0000300000CS12680   GGSL
NJARET21030-18222-00701-10000320D0000552D0012300006CS701     GGSL
NJARET21030-18222-00707-30000088D0000256D0001300013CS707     GGSL
NJARET21030-18222-00730-10000512D0000995D0018800008CS730     GGSL
NJARET21030-18222-00749-30000036D0000201D0002900000CS749     GGSL
NJARET21030-18222-00750-90000012D0000122D0000600005CS750     GGSL
NJARET21030-18222-00753-00000048D0000247D0003700001CS753     GGSL
NJARET21030-18222-00757-80000008D0000054D0000000000CS757     GGSL
NJARET21030-18222-50501-20000048D0000053D0010500002CS1250501XGGSL
NJARET21030-18222-50527-20000012D0000013D0001200000CS1250527XGGSL
NJARET21030-18222-50559-30000168D0000185D0012500000CS1250559XGGSL
NJARET21030-18441-19006-80000012D0000042D000010000019006     GGSL
NJARET21030-18441-95008-20000012D0000070D0000000000300000588 GGSL
NJARET21030-18506-00012-70000012D0000139D0000000000126       GGSL
NJARET21030-18506-00021-90000012D0000181D00000000002112      GGSL
NJARET21030-18506-00102-50000300D0001230D000390000410212     GGSL
NJARET21030-18506-00102-50000024D0000105D000030000010224     GGSL
NJARET21030-18506-00110-00000288D0001982D001160000211012     GGSL
NJARET21030-18506-00116-20000576D0003933D000140001411612     GGSL
NJARET21030-18506-00117-90000192D0002060D00043000041176      GGSL
NJARET21030-18506-00118-60000006D0000049D00003000001186      GGSL
NJARET21030-18506-00120-90000008D0000153D00012000001204      GGSL
NJARET21030-18506-00121-60000012D0000115D00014000011216      GGSL
NJARET21030-18506-00122-30000132D0000728D0000100001122       GGSL
NJARET21030-18506-00123-00000228D0001257D0000400004123       GGSL
NJARET21030-18506-00125-40000168D0000843D0001200000125       GGSL
NJARET21030-18506-00130-80000192D0001068D0003100001130       GGSL
NJARET21030-18506-00135-30000030D0000439D0000400000135       GGSL
NJARET21030-18506-00139-10000008D0000224D0000100000139       GGSL
NJARET21030-18506-00175-90000012D0000036D000000000017512     GGSL
NJARET21030-18506-01139-00000008D0000086D00000000001139      GGSL
NJARET21030-18506-01140-60000004D0000066D00005000001140      GGSL
NJARET21030-18506-01150-50000012D0000084D00000000001150      GGSL
NJARET21030-18506-02001-90000210D0002402D00022000002001      GGSL
NJARET21030-18506-02002-60000012D0000389D00000000002002      GGSL
NJARET21030-19200-00095-60000030D0000067D002510000000027     GGSL
NJARET21030-19200-00619-40000012D0000039D013800000200706     GGSL
NJARET21030-19200-00619-40000084D0000277D000060000000706M    GGSL
NJARET21030-19200-05432-40000030D0000134D000790000075057     GGSL
NJARET21030-19200-79838-90000006D0000029D001710000079838     GGSL
NJARET21030-19200-80306-90000012D0000058D000980000280306     GGSL
NJARET21030-19200-82043-10000032D0000082D002800000082043     GGSL
NJARET21030-19200-83262-50000096D0000317D00115000021920082362GGSL
NJARET21030-19200-83623-40000006D0000040D008300000283623     GGSL
NJARET21030-19200-83624-10000012D0000050D002230000083624     GGSL
NJARET21030-19200-89973-40000004D0000072D000340000089973     GGSL
NJARET21030-19200-98342-60000024D0000108D000530000199427     GGSL
NJARET21030-19200-98665-60000048D0000213D001130000198665     GGSL
NJARET21030-19200-98666-30000048D0000293D000710000098666     GGSL
NJARET21030-19236-29050-50000001D0000307D00000000002905      GGSL
NJARET21030-19263-25010-70000003D0000214D00000000002501      GGSL
NJARET21030-19263-25012-10000001D0000090D0000000000250125    GGSL
NJARET21030-19263-25030-50000011D0001304D00023000022503      GGSL
NJARET21030-19263-25035-00000020D0000572D0006200000250350    GGSL
NJARET21030-19263-25040-40000008D0001040D00003000002504      GGSL
NJARET21030-19263-25055-80000024D0001095D0002400000250550    GGSL
NJARET21030-19263-25230-90000002D0000099D00000000002523      GGSL
NJARET21030-19263-25250-70000016D0000143D00000000002525      GGSL
NJARET21030-19263-25350-40000048D0000130D00002000002535      GGSL
NJARET21030-19263-25510-20002100D0003003D00052000122551      GGSL
NJARET21030-19263-25520-10002550D0004259D00049000132552      GGSL
NJARET21030-19263-25530-00002275D0004254D00064000152553      GGSL
NJARET21030-19263-25540-90002050D0004605D00072000212554      GGSL
NJARET21030-19263-25550-80000600D0001716D00011000112555      GGSL
NJARET21030-19263-25670-30000042D0000572D00022000002567      GGSL
NJARET21030-19263-25680-20000072D0001336D00035000002568      GGSL
NJARET21030-19263-25750-20000032D0000171D00004000002575      GGSL
NJARET21030-19263-25760-10000120D0000817D00011000042576      GGSL
NJARET21030-19263-25770-00000378D0004056D00024000032577      GGSL
NJARET21030-19263-25780-90000220D0004247D00045000022578      GGSL
NJARET21030-19263-25941-40008000D0000480D00000000002594BK    GGSL
NJARET21030-19263-25950-60000720D0000857D00064000022595      GGSL
NJARET21030-19263-26040-30000030D0000034D00000000002604      GGSL
NJARET21030-19263-26050-20000300D0000258D00002000002605      GGSL
NJARET21030-19263-26100-40000096D0000319D00000000002610      GGSL
NJARET21030-19263-26170-70000042D0001122D00030000162617      GGSL
NJARET21030-19263-26190-50000090D0004308D00001000002619      GGSL
NJARET21030-19263-26210-00000576D0004326D00039000112621      GGSL
NJARET21030-19263-26270-40000001D0000031D00000000002627      GGSL
NJARET21030-19263-26300-80000744D0001719D00006000012630      GGSL
NJARET21030-19263-26310-70000504D0001421D00004000022631      GGSL
NJARET21030-19263-26310-70000432D0001218D00020000012633      GGSL
NJARET21030-19263-26320-30000144D0000341D00000000002632      GGSL
NJARET21030-19263-26530-90000016D0000058D00001000002653      GGSL
NJARET21030-19263-26560-60000176D0001345D00016000022656      GGSL
NJARET21030-19263-26580-40000112D0001094D00010000032658      GGSL
NJARET21030-19263-29100-10000002D0000329D00001000002910      GGSL
NJARET21030-21344-00321-20000076D0002950D0005800005WX15064   GGSL
NJARET21030-21344-00322-90000058D0002251D0009600003WX15065   GGSL
NJARET21030-21344-00330-40000012D0000068D0000300003WX16812   GGSL
NJARET21030-21344-00331-10000012D0000128D0000000000WX16811   GGSL
NJARET21030-21344-00337-30000001D0000093D0000100000WX16809   GGSL
NJARET21030-21344-00338-00000018D0005165D0006800001400338    GGSL
NJARET21030-21344-00342-70000008D0000183D0000200000400342    GGSL
NJARET21030-21344-00343-40000048D0000366D0000000000400343    GGSL
NJARET21030-21344-00344-10000282D0002018D0009600031400344    GGSL
NJARET21030-21344-00345-80000090D0000689D0012300027400345    GGSL
NJARET21030-21344-00346-50000096D0000733D0012300027400346    GGSL
NJARET21030-21344-00347-20000044D0000668D0005800002400347    GGSL
NJARET21030-21344-00348-90000184D0002532D0014500062400348    GGSL
NJARET21030-21344-00349-60000020D0000303D0018800043400349    GGSL
NJARET21030-21344-00350-20000104D0001619D0015100032400350    GGSL
NJARET21030-21344-00354-00000058D0003026D0000900003HQ73481784GGSL
NJARET21030-21344-00361-80000120D0003018D0004500032HQ74912297GGSL
NJARET21030-21344-00362-50000012D0000882D0021500002HQMUSH    GGSL
NJARET21030-21344-00364-90000053D0012331D0004100033400364    GGSL
NJARET21030-21344-00365-60000024D0000265D0000000000400365    GGSL
NJARET21030-21344-00366-30000024D0000456D0000100000WXPUMP    GGSL
NJARET21030-21344-00380-90000004D0000274D0007100001JFG18026  GGSL
NJARET21030-21344-00381-60000030D0001421D0000400000JFG18031  GGSL
NJARET21030-21344-00384-70000012D0000616D0005000001JFG18013  GGSL
NJARET21030-21344-00385-40000006D0000130D0000200000JFG18011A GGSL
NJARET21030-21344-00386-10000006D0000148D0001200000JFG18011B GGSL
NJARET21030-21344-00387-80000042D0001379D0006100003JFG18012  GGSL
NJARET21030-21344-00388-50000132D0000706D0005200008JFG18001  GGSL
NJARET21030-21344-00389-20000090D0001033D0008300015JFG18004  GGSL
NJARET21030-21344-00390-80000012D0000239D0002500000JFG18010A GGSL
NJARET21030-21344-00391-50000012D0000432D0008700000JFG18010B GGSL
NJARET21030-21344-00392-20000012D0000075D0000000000JFG18002  GGSL
NJARET21030-21344-00394-60000006D0000083D0000300000JFG18008ASGGSL
NJARET21030-21344-00395-30000016D0000392D0000100001JFG18006  GGSL
NJARET21030-21344-00396-00000004D0000102D0000000000JFG18016  GGSL
NJARET21030-21344-00397-70000036D0001429D0016200007JFG18018  GGSL
NJARET21030-21344-00398-40000002D0000200D0000100000JFG18042  GGSL
NJARET21030-21344-00404-20000019D0001203D0002400004ZT185020  GGSL
NJARET21030-21344-00405-90000014D0000922D0005200001ZT185019  GGSL
NJARET21030-21344-00407-30000009D0000929D0012100001ZT185016  GGSL
NJARET21030-21344-00408-00000012D0000675D0000800001ZT185026  GGSL
NJARET21030-21344-00409-70000036D0000138D0000500001ZT185018  GGSL
NJARET21030-21344-00415-80000012D0000025D0011200000400415    GGSL
NJARET21030-21344-00421-90000012D0000039D0011300000400421    GGSL
NJARET21030-21344-00423-30000484D0049746D0001000012WX17658   GGSL
NJARET21030-21344-00718-00000234D0004326D0014100001WX17422   GGSL
NJARET21030-21344-00719-70000474D0007957D0008400006WX17413   GGSL
NJARET21030-21344-00720-30000810D0012265D0012500036WX17409   GGSL
NJARET21030-21344-00721-00001864D0032929D0031600049WX17230   GGSL
NJARET21030-21344-00722-70001028D0018058D0012300044WX17401   GGSL
NJARET21030-21344-00723-40000624D0011215D0017900014WX17402   GGSL
NJARET21030-21344-00724-10000004D0000160D0003700000WXRACK20  GGSL
NJARET21030-21344-00725-80000014D0000656D0008800003HQ748416  GGSL
NJARET21030-21344-00726-50000040D0001865D0010500005HQ74843056GGSL
NJARET21030-21344-00727-20000068D0003175D0007200004HQ74842665GGSL
NJARET21030-21344-00728-90000026D0000654D0005300004HQ74912300GGSL
NJARET21030-21344-00729-60000056D0002922D0004500006HQ7348782 GGSL
NJARET21030-21344-00730-20000018D0000316D0003100001BN19193   GGSL
NJARET21030-21344-00731-90000004D0000070D0000100000BN19190   GGSL
NJARET21030-21344-00732-60000004D0000070D0001000000BN19187   GGSL
NJARET21030-21344-00733-30000008D0000140D0003400001BN19188   GGSL
NJARET21030-21344-00735-70000028D0000509D0008700001WX17577RV GGSL
NJARET21030-21344-00736-40000140D0002271D0009600003WX17578RV GGSL
NJARET21030-21344-00739-50000008D0000248D0007900000WX17816   GGSL
NJARET21030-21344-00740-10000004D0000124D0003900000WX17818   GGSL
NJARET21030-21344-00741-80000012D0000372D0004400000WX17817   GGSL
NJARET21030-21344-00744-90000012D0000372D0003000000WX17819   GGSL
NJARET21030-21344-00745-60000008D0000104D0018800005YS19006   GGSL
NJARET21030-21344-00746-30000048D0000842D0027400002YS19L005  GGSL
NJARET21030-21344-00747-00000048D0000842D0027900004YS19L004  GGSL
NJARET21030-21344-00748-70000048D0000655D0027300002YS19S002  GGSL
NJARET21030-21344-00749-40000036D0000491D0027500002YS19S003  GGSL
NJARET21030-21344-00750-00000060D0000818D0024900005YS19S001  GGSL
NJARET21030-21344-00762-30000094D0009665D0024400010FDBH1901  GGSL
NJARET21030-21344-00762-30000030D0003600D0005800000MG18387RV GGSL
NJARET21030-21344-00765-40000006D0000630D0011100000MG18390   GGSL
NJARET21030-21344-00766-10000008D0001120D00078000064007661   GGSL
NJARET21030-21344-00774-60000032D0001155D0018900056WX17800   GGSL
NJARET21030-21344-00775-30000024D0000806D0022600058WX17802   GGSL
NJARET21030-21344-00776-00000022D0001430D0007700012FDBB1901  GGSL
NJARET21030-21344-00779-10000018D0000409D0004300001JFG19058B GGSL
NJARET21030-21344-00780-70000013D0000845D0003700004MG18396RV GGSL
NJARET21030-21344-00781-40000014D0000546D0006300002MG18397RV GGSL
NJARET21030-21344-00785-20000026D0000495D0009700005BN19294   GGSL
NJARET21030-21344-00795-10000025D0003375D0005600000MG18389   GGSL
NJARET21030-21344-00798-20000072D0000327D0003500000SSH1813728GGSL
NJARET21030-21344-00799-90000030D0000254D0009500013HS190061C GGSL
NJARET21030-21344-00800-20000036D0000304D0009300000HS190061B GGSL
NJARET21030-21344-00801-90000054D0000456D0008600008HS190061A GGSL
NJARET21030-21344-00802-60000052D0000506D0010400018HS190058C GGSL
NJARET21030-21344-00803-30000040D0000390D0009700018HS190058B GGSL
NJARET21030-21344-00804-00000052D0000506D0011700003HS190058A GGSL
NJARET21030-21344-00805-70000072D0000701D0005000002HS190056  GGSL
NJARET21030-21344-00806-40000064D0000540D0007600001SSH18A025 GGSL
NJARET21030-21344-00807-10000084D0001175D0005200001SSH18A034 GGSL
NJARET21030-21344-00808-80000312D0001619D0006000002SSH18A024 GGSL
NJARET21030-21344-00813-20000001D0000091D00013000064008132   GGSL
NJARET21030-21344-00819-40000060D0000509D0002600010WX17931   GGSL
NJARET21030-21344-00820-00000012D0000101D0000000000WX17936   GGSL
NJARET21030-21344-00821-70000060D0000508D0002800000WX17932   GGSL
NJARET21030-21344-00822-40000048D0000414D0002200000WX17930   GGSL
NJARET21030-21344-00823-10000144D0001080D0000300000WX17934   GGSL
NJARET21030-21344-00824-80000204D0001695D0002300013WX17933   GGSL
NJARET21030-21344-00825-50000012D0000096D0001800000JFG18011BWGGSL
NJARET21030-21344-00826-20000036D0000280D0000100000JFG18011AWGGSL
NJARET21030-21344-00828-60000036D0000234D0001300000JFG18008ACGGSL
NJARET21030-21344-00829-30000044D0000429D0001000002ZT197030  GGSL
NJARET21030-21344-00830-90000036D0000936D0000000000ZT197002  GGSL
NJARET21030-21344-00831-60000014D0000255D0000000000ZT197003  GGSL
NJARET21030-21344-00832-30000030D0000624D0005800000JFG19007B GGSL
NJARET21030-21344-00833-00000002D0000058D0008800001ZT197029  GGSL
NJARET21030-21344-00834-70000003D0000292D0008100002ZT197023RVGGSL
NJARET21030-21344-00837-80000264D0001028D0025700000SK15020B  GGSL
NJARET21030-21344-00838-50001392D0003800D0040200010SK15008E  GGSL
NJARET21030-21344-00839-20000064D0001039D0002600000HS190062  GGSL
NJARET21030-21344-00844-60000066D0000385D0004600001HJAL19011 GGSL
NJARET21030-21344-00846-00000009D0000840D0030300014FDBH1902  GGSL
NJARET21030-21344-01159-00000114D0000964D0008900009BN19294S  GGSL
NJARET21030-21344-01160-60000030D0000578D0009500007BN19296   GGSL
NJARET21030-21344-01161-30000102D0000849D0009300007BN19296S  GGSL
NJARET21030-21344-01162-00000026D0000487D0009700003BN19297   GGSL
NJARET21030-21344-01163-70000096D0000845D0009400006BN19297S  GGSL
NJARET21030-21344-01164-40000010D0000190D0010500002BN19299   GGSL
NJARET21030-21344-01165-10000090D0000784D0009500005BN19299S  GGSL
NJARET21030-21344-01166-80000040D0000723D0010000003BN19300   GGSL
NJARET21030-21344-01167-50000078D0000708D0009700008BN19300S  GGSL
NJARET21030-21344-01168-20000036D0000688D0011200004BN19302   GGSL
NJARET21030-21344-01169-90000102D0000939D0008500007BN19302S  GGSL
NJARET21030-21344-01170-50000103D0010622D0015300016FDBH2001  GGSL
NJARET21030-21344-01171-20000052D0002713D0003500004HQ73482202GGSL
NJARET21030-21344-01172-90000078D0004079D0000600006HQ73482993GGSL
NJARET21030-21344-01173-60000056D0002931D0001200009HQ73483050GGSL
NJARET21030-21344-01175-00000076D0003966D0006200014HQ75752083GGSL
NJARET21030-21344-01176-70000048D0002505D0009900012HQ75752836GGSL
NJARET21030-21344-01177-40000078D0004070D0006600016HQ75752848GGSL
NJARET21030-21344-01178-10000096D0005051D0006600030HQ7575453 GGSL
NJARET21030-21344-01179-80000084D0000737D0008600035HS18MR0461GGSL
NJARET21030-21344-01180-40000120D0001600D0010000031HS18MR0463GGSL
NJARET21030-21344-01183-50000006D0000124D0004900013HS20132   GGSL
NJARET21030-21344-01184-20000078D0001295D0018700027HS20134   GGSL
NJARET21030-21344-01185-90000144D0002084D0017600027HS20135   GGSL
NJARET21030-21344-01186-60000078D0001052D0030700178HS20136   GGSL
NJARET21030-21344-01187-30000060D0000791D0019000029HS20137   GGSL
NJARET21030-21344-01188-00000168D0003425D0030800133HS20HS0022GGSL
NJARET21030-21344-01189-70000040D0000746D0034000169HS20HS0023GGSL
NJARET21030-21344-01190-30000028D0000338D0039300011HS20HS0024GGSL
NJARET21030-21344-01191-00000032D0000390D0039200008HS20HS0025GGSL
NJARET21030-21344-01204-70000128D0002385D0006800023WX13253   GGSL
NJARET21030-21344-01205-40000084D0001578D0005400021WX13254   GGSL
NJARET21030-21344-01206-10000312D0003911D0006100005WX18811   GGSL
NJARET21030-21344-01207-80000348D0004386D0006500009WX18812   GGSL
NJARET21030-21344-01208-50000624D0007797D0008100013WX18813   GGSL
NJARET21030-21344-01209-20000084D0002277D0011900038WX18814   GGSL
NJARET21030-21344-01210-80000064D0001732D0012400050WX18815   GGSL
NJARET21030-21344-01211-50000060D0001629D0009200026WX18816   GGSL
NJARET21030-21344-01212-20000114D0002228D0001300001WX18819   GGSL
NJARET21030-21344-01213-90000102D0001993D0000300001WX18820   GGSL
NJARET21030-21344-01214-60000288D0005075D0000400004WX18821   GGSL
NJARET21030-21344-01215-30000072D0016329D0065800323WX18824   GGSL
NJARET21030-21344-01216-00000323D0041687D0036100095WX18825   GGSL
NJARET21030-21344-01218-40000016D0000223D0004600030WX19198   GGSL
NJARET21030-21344-01219-10000096D0003935D0010400006WX19199   GGSL
NJARET21030-21344-01220-70000078D0003329D0011100005WX19200   GGSL
NJARET21030-21344-01221-40000032D0000630D0012000039WX19201   GGSL
NJARET21030-21344-01222-10000220D0006172D0007300012WX19203   GGSL
NJARET21030-21344-01223-80000188D0005119D0006600006WX19204   GGSL
NJARET21030-21344-01224-50000212D0006681D0002300023WX19205   GGSL
NJARET21030-21344-01225-20000032D0001699D0016900063WX19206   GGSL
NJARET21030-21344-01226-90000032D0000325D0005200012WX19256   GGSL
NJARET21030-21344-01227-60000032D0000325D0015200040WX19257   GGSL
NJARET21030-21344-01237-50000124D0017078D0073100381WX19270   GGSL
NJARET21030-21344-01238-20000134D0005951D0009000033WX8561    GGSL
NJARET21030-21344-01241-20000072D0000790D0003200026WX8594    GGSL
NJARET21030-21344-01264-10000086D0013991D0028500026HR22818AA GGSL
NJARET21030-21344-01265-80000072D0008437D0019800048HR30701AA GGSL
NJARET21030-21344-01266-50000134D0007989D0036600017CU297     GGSL
NJARET21030-21344-01267-20000074D0009721D0023500020FP35      GGSL
NJARET21030-21344-01268-90000088D0007983D0024100041HR26182AA GGSL
NJARET21030-21344-01270-20000013D0000376D0034700028HS20153   GGSL
NJARET21030-21344-01273-30000256D0038617D0098300054WX17658A  GGSL
NJARET21030-21964-10100-80000024D0000657D0001500001A6F       GGSL
NJARET21030-21964-10110-70000006D0000041D0000300001A6T       GGSL
NJARET21030-21964-10121-30000036D0001065D0000800001A6RP      GGSL
NJARET21030-21964-10133-60000006D0000177D0001300000TH3RP     GGSL
NJARET21030-21964-10134-30000018D0000389D0001100001BUF16     GGSL
NJARET21030-21964-10200-50000004D0000192D0000300000B7F       GGSL
NJARET21030-21964-10211-10000018D0000164D0000800002OMT       GGSL
NJARET21030-21964-10220-30000014D0000792D0000700001B72       GGSL
NJARET21030-21964-10305-70000014D0000760D0001600014BTG       GGSL
NJARET21030-21964-10315-60000012D0000317D0005700004SQG       GGSL
NJARET21030-21964-10350-70000012D0000294D0016200149X1        GGSL
NJARET21030-21964-10360-60000048D0001276D0001100001W1        GGSL
NJARET21030-21964-10370-50000264D0002979D0001400004OWF       GGSL
NJARET21030-21964-10380-40000002D0000097D0000000000DCF       GGSL
NJARET21030-21964-10450-40000018D0000094D0000000000FF        GGSL
NJARET21030-21964-10461-00000060D0001016D0000800001LF4       GGSL
NJARET21030-21964-10466-50000036D0000610D0001800002WH3       GGSL
NJARET21030-21964-10470-20000018D0000471D0002300014H82       GGSL
NJARET21030-21964-10481-80000054D0000323D0004100002AM        GGSL
NJARET21030-21964-10482-50000012D0000072D0000000000AMO       GGSL
NJARET21030-21964-10483-20000006D0000055D0000000000RS3HL     GGSL
NJARET21030-21964-10485-60000030D0000288D0001500003RS3HC     GGSL
NJARET21030-21964-10486-30000420D0003918D0002500002RS3WC     GGSL
NJARET21030-21964-10489-40000006D0000050D0000000000BOWM      GGSL
NJARET21030-21964-20103-60000004D0000069D0000000000WDCP15    GGSL
NJARET21030-21964-20124-10000001D0000017D0000000000WDWP13RX  GGSL
NJARET21030-21964-20154-80000001D0000013D0000000000ABW9BKX   GGSL
NJARET21030-21964-20510-20000010D0000838D0005100000YCPD90    GGSL
NJARET21030-21964-20520-10000026D0002095D0005800001YCPW180   GGSL
NJARET21030-21964-20530-00000004D0000336D0003200000YCPT360   GGSL
NJARET21030-21964-25241-00000042D0001242D0001900000CC12S     GGSL
NJARET21030-21964-25242-70000060D0002208D0002700001CC18S     GGSL
NJARET21030-21964-25243-40000012D0000528D0000500000CC24S     GGSL
NJARET21030-21964-25244-10000024D0000709D0002400000CC12N     GGSL
NJARET21030-21964-25245-80000036D0001325D0001900000CC18N     GGSL
NJARET21030-21964-25246-50000006D0000262D0000700000CC24N     GGSL
NJARET21030-21964-25246-50000005D0000201D0000000000CC24NMBX  GGSL
NJARET21030-21964-25256-40000006D0000177D0002500001CC12FM    GGSL
NJARET21030-21964-30406-50000004D0000036D0000000000SFDX      GGSL
NJARET21030-21964-40043-90000138D0002446D0003000011CJM8G     GGSL
NJARET21030-21964-40053-80000144D0003216D0001200000CJM15G    GGSL
NJARET21030-21964-40054-50000006D0000120D0000000000CJM15B    GGSL
NJARET21030-21964-40063-70000012D0000346D0000500000CJM23G    GGSL
NJARET21030-21964-40096-50000024D0000070D0000200002JFBIDBK   GGSL
NJARET21030-21964-41073-50000060D0001253D0001900001CJTHM15Y  GGSL
NJARET21030-21964-41084-10000006D0000177D0000500001CJTHM36Y  GGSL
NJARET21030-21964-41086-50000030D0000497D0001900002CJTHM8Y   GGSL
NJARET21030-21964-50043-60000006D0000134D0000200000CJM13GP   GGSL
NJARET21030-21964-50058-00000001D0000022D0000000000CJM13BLPX GGSL
NJARET21030-21964-50100-60000006D0000078D0000200002SKYHK     GGSL
NJARET21030-21964-60120-10000002D0000038D0000900000UCX       GGSL
NJARET21030-21964-60510-00000006D0000126D0000000000GP        GGSL
NJARET21030-21964-60525-40000018D0000143D0000400001PS        GGSL
NJARET21030-21964-60540-70000012D0000074D0000200002BHM       GGSL
NJARET21030-21964-70202-10000012D0000082D0000700000WWM       GGSL
NJARET21030-21964-80100-70000012D0000101D0000500001BFB       GGSL
NJARET21030-21964-92006-70000001D0000076D0001400000YCPW180M  GGSL
NJARET21030-22102-83543-40000008D0000124D0000000000GU180BLK  GGSL
NJARET21030-22179-10011-40000006D0000060D0000000000LG3104    GGSL
NJARET21030-22179-10012-10000048D0000737D0002100004LG3109    GGSL
NJARET21030-22179-10084-80000186D0001667D0003700000LG7220    GGSL
NJARET21030-22179-10105-00000150D0006305D0002500025LG5518    GGSL
NJARET21030-22179-10106-70000018D0000423D0002000009LG5512    GGSL
NJARET21030-22179-10120-30000003D0000125D0005700001LG6510    GGSL
NJARET21030-22179-10124-10000252D0001465D0003200004LG6515    GGSL
NJARET21030-22179-10157-90000024D0000524D0003000001LG6530    GGSL
NJARET21030-22179-10163-00001056D0014393D0012000076LG6150    GGSL
NJARET21030-22179-10185-20000246D0002749D0006900006LG6500    GGSL
NJARET21030-22179-10186-90000006D0000253D0000100000LG6555    GGSL
NJARET21030-22179-10239-20000004D0000361D0000500000LG6155    GGSL
NJARET21030-22179-10244-60000012D0000311D0000400001LG6135    GGSL
NJARET21030-22179-10246-00000048D0000824D0001200001LG6570    GGSL
NJARET21030-22179-10248-40000132D0001132D0001600000LG6575    GGSL
NJARET21030-22179-10257-60000420D0006413D0000000000LG3190    GGSL
NJARET21030-22179-10258-30000018D0000547D0000700000LG6580    GGSL
NJARET21030-22179-10326-90000012D0000358D0001400000LG5482    GGSL
NJARET21030-22179-10327-60001080D0010283D0000000000LG6148    GGSL
NJARET21030-22179-10398-60000006D0000030D0000300000LG7234    GGSL
NJARET21030-22179-10398-60000012D0000060D0000000000LG7236    GGSL
NJARET21030-22179-10408-20000144D0001313D0000300000LG6338    GGSL
NJARET21030-22179-10429-70000012D0000223D0000600001LG6334    GGSL
NJARET21030-22179-10434-10000012D0000120D0000200001LG6133    GGSL
NJARET21030-22179-10444-00000012D0000161D0000200000LG3374    GGSL
NJARET21030-22179-10448-80000024D0000283D0000100000LG3174    GGSL
NJARET21030-22179-10454-90000042D0000481D0000200000LG3303    GGSL
NJARET21030-22179-10458-70000012D0000119D0000000000LG3234    GGSL
NJARET21030-22179-10461-70000012D0000111D0000000000LG3154    GGSL
NJARET21030-22179-10471-60000024D0000256D0000100000LG6128    GGSL
NJARET21030-22179-10474-70000012D0000104D0000000000LG6328    GGSL
NJARET21030-22179-10481-50000012D0000170D0000500002LG5592    GGSL
NJARET21030-22179-10499-00000012D0000206D0000100000LG9250    GGSL
NJARET21030-22401-00350-30000004D0000071D0003600001EDG20GMC  GGSL
NJARET21030-22401-00515-60000200D0000172D0000000000BAS       GGSL
NJARET21030-22401-00740-20000001D0000018D0000200002DBRC20PC  GGSL
NJARET21030-22401-10087-50000016D0000129D0000100000EAR20TMC  GGSL
NJARET21030-22401-10091-20000012D0000143D0000100001SDE20     GGSL
NJARET21030-23075-02170-10000014D0000079D0000000000PHEX      GGSL
NJARET21030-23075-02180-00000028D0000146D0000000000P180      GGSL
NJARET21030-23075-02703-10000072D0000205D0000000000P703      GGSL
NJARET21030-23075-02721-50000096D0000514D0000100000P72H      GGSL
NJARET21030-23075-03312-40000080D0000153D0000000000FR312B    GGSL
NJARET21030-23075-05110-40000064D0000173D0000000000FS110     GGSL
NJARET21030-23075-20500-20000048D0000211D0000000000G108ORG   GGSL
NJARET21030-23075-20501-90000024D0000096D0000100001G608PERLITGGSL
NJARET21030-23183-00085-80000012D0000024D0000200000100045236 GGSL
NJARET21030-23183-00540-20000004D0000203D0000000000100045151 GGSL
NJARET21030-23865-09987-30000052D0000406D00034000009987      GGSL
NJARET21030-23883-01000-30000012D0000134D00000000001000      GGSL
NJARET21030-23883-01002-70000024D0000244D00000000001002      GGSL
NJARET21030-23883-01003-40000006D0000058D00000000001003      GGSL
NJARET21030-23883-01055-30000012D0000039D00000000001055      GGSL
NJARET21030-23883-01105-50000024D0000078D00000000001105      GGSL
NJARET21030-23883-05000-90000024D0000230D00000000005000      GGSL
NJARET21030-23883-08000-60000003D0000148D00000000008000A     GGSL
NJARET21030-23883-08706-70000045D0000482D00022000018706A     GGSL
NJARET21030-23883-16100-20000332D0003193D000970000516100     GGSL
NJARET21030-23883-16200-90000035D0000638D000300000216200     GGSL
NJARET21030-23883-20000-80000003D0000043D000000000020000     GGSL
NJARET21030-23883-20002-20000224D0002630D002020001420002     GGSL
NJARET21030-23883-20003-90000004D0000107D000200000620003     GGSL
NJARET21030-23883-20010-70000051D0000856D000100000020010     GGSL
NJARET21030-23883-20020-60000014D0000318D000290001320020     GGSL
NJARET21030-23883-61700-40000001D0000052D000000000061700     GGSL
NJARET21030-23883-63800-90000002D0000183D000080000563800     GGSL
NJARET21030-23883-81000-90000003D0000357D000070000081000A    GGSL
NJARET21030-24114-20430-70000025D0000161D0000000000204309    GGSL
NJARET21030-24114-20450-50000100D0000644D0000200002204509    GGSL
NJARET21030-24114-20480-20000050D0000322D0000400000204809    GGSL
NJARET21030-24114-22050-50000001D0000034D0001200002220500    GGSL
NJARET21030-24114-30677-30000024D0000104D0000000000776777    GGSL
NJARET21030-24114-70102-80001700D0002595D0005200000701002    GGSL
NJARET21030-24114-70164-60000030D0000320D0000800000701649    GGSL
NJARET21030-24114-70300-80000500D0001249D0003700005703002    GGSL
NJARET21030-24114-70609-20000175D0000769D0001800001706009    GGSL
NJARET21030-24114-70807-30000925D0003699D0001600002708073    GGSL
NJARET21030-24114-71609-10000150D0000923D0000900002716009    GGSL
NJARET21030-24114-71642-80000160D0001533D0001600004701642    GGSL
NJARET21030-24114-71664-00000125D0001477D0001300000716642    GGSL
NJARET21030-24114-71673-20000275D0001809D0003100000716073    GGSL
NJARET21030-24114-71833-00000025D0000280D0000000000718373    GGSL
NJARET21030-24114-71853-80000025D0000280D0000300001718573    GGSL
NJARET21030-24114-71863-70000025D0000280D0000000000718673    GGSL
NJARET21030-24114-73009-70000175D0000627D0001200000730009    GGSL
NJARET21030-24114-74009-60000675D0003292D0001500004704009    GGSL
NJARET21030-24114-74209-00000025D0000161D0000300002704209    GGSL
NJARET21030-24114-74509-10000050D0000322D0000200002704509    GGSL
NJARET21030-24114-74712-50000100D0000082D0000500000742012A   GGSL
NJARET21030-24114-74712-50000075D0000247D0001200000742712    GGSL
NJARET21030-24114-74718-70000100D0000097D0000100000742018A   GGSL
NJARET21030-24114-74718-70000125D0000446D0000100000742718    GGSL
NJARET21030-24114-74809-20000150D0000966D0000000000704809    GGSL
NJARET21030-24114-74929-70000275D0001770D0000500000704929    GGSL
NJARET21030-24114-77077-20000050D0000101D0001400000770077PC  GGSL
NJARET21030-24114-78341-30000075D0000148D000010000183410     GGSL
NJARET21030-24114-78450-20000006D0000181D000000000084500     GGSL
NJARET21030-24114-98010-20000020D0000109D0000200000980100    GGSL
NJARET21030-24654-01061-10000008D0000307D00000000005462GAL   GGSL
NJARET21030-24654-05462-20000004D0000046D000010000054624     GGSL
NJARET21030-24654-05922-10000078D0000979D00017000075926      GGSL
NJARET21030-24654-05962-70000006D0000073D00000000005962      GGSL
NJARET21030-24654-05972-60000004D0000139D00010000025972      GGSL
NJARET21030-24654-05981-80000084D0000852D00003000005981      GGSL
NJARET21030-24654-05982-50000004D0000135D00000000005982      GGSL
NJARET21030-24654-09334-80000033D0000949D00072000019334      GGSL
NJARET21030-24654-30506-90000066D0000299D000230001030506     GGSL
NJARET21030-24654-51704-20000004D0000041D000040000051704     GGSL
NJARET21030-24654-51806-30000288D0001659D000060000651806     GGSL
NJARET21030-24654-51826-10000144D0001449D000000000051826     GGSL
NJARET21030-24654-51926-80000012D0000121D000070000051926     GGSL
NJARET21030-24654-55025-40000252D0000976D00003000035026      GGSL
NJARET21030-24654-55107-70000004D0000078D000000000051074     GGSL
NJARET21030-24654-55110-70000060D0000326D000000000051106     GGSL
NJARET21030-24654-55130-50000006D0000033D00000000005454      GGSL
NJARET21030-24654-55450-40000024D0000131D000020000054506     GGSL
NJARET21030-25033-01703-00000042D0000450D000080000301703     GGSL
NJARET21030-25033-01707-80000012D0000146D000130000001707     GGSL
NJARET21030-25033-01713-90000036D0000461D000110000001713     GGSL
NJARET21030-25033-01717-70000030D0000508D000070000001717     GGSL
NJARET21030-25033-01723-80000016D0000376D000060000001723     GGSL
NJARET21030-25033-02019-10000004D0000230D000110000002019     GGSL
NJARET21030-25033-02077-10000006D0000073D000050000002077     GGSL
NJARET21030-25033-02136-50000006D0000171D000000000002136     GGSL
NJARET21030-25033-02211-90000004D0000154D000030000002211     GGSL
NJARET21030-25033-02211-90000001D0000038D000140000002211X    GGSL
NJARET21030-25033-02212-60000002D0000184D000080000002212     GGSL
NJARET21030-25033-02215-70000004D0000459D000020000002215     GGSL
NJARET21030-25033-02389-50000006D0000419D000000000002389     GGSL
NJARET21030-25033-02399-40000012D0000056D000000000002399     GGSL
NJARET21030-25033-02467-00000004D0000106D000060000002467     GGSL
NJARET21030-25033-02477-90000004D0000104D000250000002477     GGSL
NJARET21030-25033-02481-60000004D0000169D000090000002481     GGSL
NJARET21030-25033-02501-10000020D0000194D000160000102501     GGSL
NJARET21030-25033-02519-60000024D0000736D000300000202519     GGSL
NJARET21030-25033-02520-20000008D0000170D000240000102520     GGSL
NJARET21030-25033-02521-90000008D0000191D000190000102521     GGSL
NJARET21030-25033-02522-60000028D0001488D000580000202522     GGSL
NJARET21030-25033-02523-30000020D0001151D000310000002523     GGSL
NJARET21030-25033-02525-70000020D0001294D000150000202525     GGSL
NJARET21030-25033-02527-10000015D0001061D000380000402527     GGSL
NJARET21030-25033-02650-60000004D0000445D000140000002650     GGSL
NJARET21030-25033-02660-50000002D0000298D000660000002660     GGSL
NJARET21030-25033-02665-00000002D0000358D000020000002665     GGSL
NJARET21030-25033-02667-40000002D0000454D000080000002667     GGSL
NJARET21030-25033-02670-40000001D0000265D000130000002670     GGSL
NJARET21030-25033-02675-90000005D0001171D000070000002675     GGSL
NJARET21030-25033-02680-30000011D0002301D000000000002680     GGSL
NJARET21030-25033-02683-40000002D0000624D000000000002683     GGSL
NJARET21030-25033-02720-60000011D0001015D000360000202720     GGSL
NJARET21030-25033-02722-00000003D0000318D000230000002722     GGSL
NJARET21030-25033-02728-20000005D0000728D000140000002728     GGSL
NJARET21030-25033-02940-80000004D0000743D000060000002940     GGSL
NJARET21030-25033-03760-10000012D0000034D000020000003760     GGSL
NJARET21030-25033-03765-60000008D0000187D000000000003765     GGSL
NJARET21030-25033-03770-00000004D0000103D000000000003770     GGSL
NJARET21030-25033-03800-40000002D0000046D000000000003800     GGSL
NJARET21030-25033-03802-80000004D0000086D000360000003802     GGSL
NJARET21030-25033-03810-30000002D0000048D000010000003810     GGSL
NJARET21030-25033-03821-90000001D0000041D000010000003821     GGSL
NJARET21030-25033-04511-80000001D0000082D000000000004511     GGSL
NJARET21030-25033-04520-00000002D0000175D000110000004520     GGSL
NJARET21030-25033-05615-20000002D0000445D000010000105615     GGSL
NJARET21030-25033-05620-60000002D0000491D000040000005620     GGSL
NJARET21030-25033-05625-10000003D0000818D000000000005625     GGSL
NJARET21030-25033-05635-00000001D0000380D000040000005635     GGSL
NJARET21030-25033-12012-90000006D0000042D000010000112012     GGSL
NJARET21030-25033-12014-30000001D0000007D000010000012014     GGSL
NJARET21030-25033-12039-60000001D0000038D000000000012039     GGSL
NJARET21030-25033-12138-60000006D0000087D000010000112138     GGSL
NJARET21030-25033-12155-30000006D0000023D000020000212155     GGSL
NJARET21030-25033-12195-90000036D0000250D000280000012195     GGSL
NJARET21030-25033-12201-70000006D0000050D000010000012201     GGSL
NJARET21030-25033-12202-40000054D0000431D000170000012202     GGSL
NJARET21030-25033-12203-10000066D0000235D000070000012203     GGSL
NJARET21030-25033-12204-80000036D0000201D000220000012204     GGSL
NJARET21030-25033-12205-50000006D0000055D000010000012205     GGSL
NJARET21030-25033-12285-70000006D0000056D000060000012285     GGSL
NJARET21030-25033-12402-80000001D0000109D000000000012402     GGSL
NJARET21030-25033-12403-50000001D0000128D000030000112403     GGSL
NJARET21030-25033-12410-30000003D0000468D000000000012410     GGSL
NJARET21030-25033-12412-70000002D0000195D000040000012412     GGSL
NJARET21030-25033-12545-20000006D0000019D000000000012545     GGSL
NJARET21030-25033-12585-80000006D0000076D000000000012585     GGSL
NJARET21030-25033-12733-30000006D0000032D000030000012733     GGSL
NJARET21030-25033-12741-80000006D0000031D000000000012741     GGSL
NJARET21030-25033-12746-30000012D0000271D000000000012746     GGSL
NJARET21030-25033-15810-40000001D0000076D000000000015810     GGSL
NJARET21030-25033-20230-60000006D0001616D000000000020230     GGSL
NJARET21030-25033-20235-10000002D0000567D000000000020235     GGSL
NJARET21030-25531-01234-60000011D0000373D000190000675160     GGSL
NJARET21030-25545-21619-80000181D0002955D0016200033 21619    GGSL
NJARET21030-25626-11280-70000002D0000318D000000000015011102  GGSL
NJARET21030-25626-12031-40000024D0000233D000000000041858     GGSL
NJARET21030-25626-12832-70000012D0000147D0000000000212832    GGSL
NJARET21030-25626-13481-60000005D0000187D0000000000820194    GGSL
NJARET21030-25626-13482-30000005D0000177D0000000000820195    GGSL
NJARET21030-25845-12346-20000072D0000099D000000000024950     GGSL
NJARET21030-25845-12363-90000024D0000041D00000000005590      GGSL
NJARET21030-25849-00078-30000030D0000319D00000000000078P     GGSL
NJARET21030-25849-00082-00000030D0000319D00003000030082P     GGSL
NJARET21030-25849-00110-00000200D0001491D00000000000110P     GGSL
NJARET21030-25849-00205-30000175D0003371D00001000000205RG    GGSL
NJARET21030-25849-00262-60000100D0000544D00000000000262P     GGSL
NJARET21030-25849-00280-00000200D0001072D00000000000280P     GGSL
NJARET21030-25849-00305-00000014D0000259D00040000000305RGX   GGSL
NJARET21030-25849-10281-40000057D0000791D000000000010281RG   GGSL
NJARET21030-25849-10381-10000030D0000879D000000000010381RG   GGSL
NJARET21030-25849-10710-90001620D0014778D00006000001020010RG GGSL
NJARET21030-25849-10720-80000918D0006360D00003000031020020RG GGSL
NJARET21030-25849-10720-80000084D0000761D00024000001020020RGXGGSL
NJARET21030-25849-11010-90000120D0000695D00000000001016010RGXGGSL
NJARET21030-25849-11051-20000210D0001124D00000000001016051RGCGGSL
NJARET21030-25849-11051-20000006D0000032D00035000041016051RGXGGSL
NJARET21030-25849-11110-60003120D0016355D00004000021010010RG GGSL
NJARET21030-25849-11110-60000240D0001558D00240001401010010RGXGGSL
NJARET21030-25849-11120-50001440D0006124D00011000041010020RG GGSL
NJARET21030-25849-11151-90000240D0001558D00001000001010051RG GGSL
NJARET21030-25849-11330-80000090D0001548D00010000101020030RGXGGSL
NJARET21030-25849-20381-80000030D0000912D000000000020381RG   GGSL
NJARET21030-25881-08502-10000011D0000170D0000100001 085024   GGSL
NJARET21030-25881-08504-50000008D0000156D0000400004 085044   GGSL
NJARET21030-25881-09942-40000020D0000685D0000000003 09942    GGSL
NJARET21030-25881-09984-40000004D0000070D0001300013 09984    GGSL
NJARET21030-25881-10702-00000006D0000071D0001000010 107024   GGSL
NJARET21030-25881-10703-70000024D0000394D0000000000 107034   GGSL
NJARET21030-25881-10712-90000004D0000062D0000800008 10712    GGSL
NJARET21030-25881-11061-70000010D0000043D0001800000 11061    GGSL
NJARET21030-26175-86100-00000090D0000406D0000000000861       GGSL
NJARET21030-26432-24016-60000006D0000518D0000100000SB4000PRCGGGSL
NJARET21030-26432-24505-50000004D0000499D0000000000SB4500PRCGGGSL
NJARET21030-26432-76025-10000002D0000279D0000000000HR250NF   GGSL
NJARET21030-26600-89334-70000336D0000646D003500000189334     GGSL
NJARET21030-26600-89334-70000016D0000031D000440000189334M    GGSL
NJARET21030-26978-02181-60000290D0001398D000290000502181     GGSL
NJARET21030-26978-02182-30000230D0001122D000570000202182     GGSL
NJARET21030-26978-02188-50000120D0000466D000820000202188     GGSL
NJARET21030-26978-02241-70000220D0001160D000520002002241     GGSL
NJARET21030-26978-02242-40000110D0000589D000180000302242     GGSL
NJARET21030-26978-02248-60000030D0000132D000190000002248     GGSL
NJARET21030-26978-02301-80000100D0000710D000180000602301     GGSL
NJARET21030-26978-02302-50000010D0000071D000040000002302     GGSL
NJARET21030-26978-02362-90000010D0000090D000030000002362     GGSL
NJARET21030-26978-02368-10000050D0000342D000170000202368     GGSL
NJARET21030-26978-03060-30000060D0000253D000050000003060     GGSL
NJARET21030-26978-03062-70000060D0000253D000240000003062     GGSL
NJARET21030-26978-03068-90000050D0000212D000000000003068     GGSL
NJARET21030-26978-03082-50000050D0000394D000240000003082     GGSL
NJARET21030-26978-03088-70000040D0000315D000050000003088     GGSL
NJARET21030-26978-03100-60000060D0000788D00005000000310005   GGSL
NJARET21030-26978-03102-00000040D0000525D00018000000310205   GGSL
NJARET21030-26978-03108-20000030D0000394D00001000010310805   GGSL
NJARET21030-26978-03120-40000065D0001190D00009000010312005   GGSL
NJARET21030-26978-03122-80000055D0001007D00016000010312205   GGSL
NJARET21030-26978-03128-00000045D0000824D00008000030312805   GGSL
NJARET21030-26978-05011-30000432D0000419D000000000005011     GGSL
NJARET21030-26978-05013-70000036D0000035D000010000005013     GGSL
NJARET21030-26978-05071-70000252D0000297D000130000205071     GGSL
NJARET21030-26978-08060-80000040D0000169D000120000408060     GGSL
NJARET21030-26978-08061-50000030D0000127D000060000108061     GGSL
NJARET21030-26978-08062-20000040D0000169D000090000008062     GGSL
NJARET21030-26978-08080-60000010D0000079D000030000008080     GGSL
NJARET21030-26978-08082-00000020D0000158D000030000008082     GGSL
NJARET21030-26978-08097-40000010D0000067D000030000008097     GGSL
NJARET21030-26978-08098-10000050D0000333D000150000308098     GGSL
NJARET21030-26978-08102-50000005D0000057D00000000000810205   GGSL
NJARET21030-26978-08102-50000010D0000119D0000300000810205    GGSL
NJARET21030-26978-08120-90000015D0000275D00001000000812005   GGSL
NJARET21030-26978-08122-30000015D0000275D00012000000812205   GGSL
NJARET21030-26978-08162-90000012D0000476D00002000000816203   GGSL
NJARET21030-26978-08173-50000005D0000073D000010000108173     GGSL
NJARET21030-26978-08203-90000004D0000120D000000000008203     GGSL
NJARET21030-26978-08208-40000004D0000120D000000000008208     GGSL
NJARET21030-26978-10010-80000054D0000196D000070000510010     GGSL
NJARET21030-26978-10012-20000066D0000240D000110000110012     GGSL
NJARET21030-26978-10013-90000042D0000152D000000000010013     GGSL
NJARET21030-26978-10020-70000030D0000203D000000000010020     GGSL
NJARET21030-26978-10022-10000030D0000203D000000000010022     GGSL
NJARET21030-26978-10023-80000045D0000304D000000000010023     GGSL
NJARET21030-26978-10062-70000270D0000716D000020000110062     GGSL
NJARET21030-26978-10068-90000290D0000769D000250000010068     GGSL
NJARET21030-26978-10082-50000400D0001444D000070000210082     GGSL
NJARET21030-26978-10088-70000260D0000939D000130000110088     GGSL
NJARET21030-26978-10102-00000110D0000580D000480000710102     GGSL
NJARET21030-26978-10108-20000165D0000870D000150000110108     GGSL
NJARET21030-26978-10122-80000080D0000622D000050000210122     GGSL
NJARET21030-26978-10128-00000115D0000894D000250000310128     GGSL
NJARET21030-26978-10142-60000140D0001366D000120000010142     GGSL
NJARET21030-26978-10148-50000085D0000830D000220000010148     GGSL
NJARET21030-26978-10180-80000110D0000353D000170000110180     GGSL
NJARET21030-26978-10182-20000130D0000417D000050000210182     GGSL
NJARET21030-26978-10183-90000050D0000161D000080000010183     GGSL
NJARET21030-26978-10185-30000130D0000417D000050000110185     GGSL
NJARET21030-26978-10240-90000100D0000353D000050000010240     GGSL
NJARET21030-26978-10242-30000090D0000318D000420000610242     GGSL
NJARET21030-26978-10243-00000060D0000212D000180000010243     GGSL
NJARET21030-26978-10245-40000120D0000424D000150000010245     GGSL
NJARET21030-26978-10300-00000050D0000223D000170000010300     GGSL
NJARET21030-26978-10302-40000080D0000356D000160000110302     GGSL
NJARET21030-26978-10303-10000050D0000223D000090000010303     GGSL
NJARET21030-26978-10305-50000080D0000356D000030000010305     GGSL
NJARET21030-26978-10360-40000040D0000223D000120000010360     GGSL
NJARET21030-26978-10362-80000040D0000223D000230000210362     GGSL
NJARET21030-26978-10363-50000030D0000167D000060000010363     GGSL
NJARET21030-26978-10365-90000030D0000167D000130000110365     GGSL
NJARET21030-26978-10366-60000010D0000052D000000000010366     GGSL
NJARET21030-26978-16190-10000440D0001914D000500000316190     GGSL
NJARET21030-26978-16192-50000450D0001958D000180000916192     GGSL
NJARET21030-26978-16193-20000240D0001044D000370000516193     GGSL
NJARET21030-26978-16195-60000510D0002219D000450001916195     GGSL
NJARET21030-26978-16198-70000100D0000435D000030000116198     GGSL
NJARET21030-26978-16240-30000040D0000215D000000000016240     GGSL
NJARET21030-26978-16243-40000170D0000920D000010000116243     GGSL
NJARET21030-26978-16245-80000550D0002976D000070000516245     GGSL
NJARET21030-26978-16300-40000260D0001773D000190000416300     GGSL
NJARET21030-26978-16302-80000370D0002523D000440001316302     GGSL
NJARET21030-26978-16303-50000120D0000818D000220000116303     GGSL
NJARET21030-26978-16305-90000340D0002319D000110000916305     GGSL
NJARET21030-26978-16308-00000060D0000409D000050000116308     GGSL
NJARET21030-26978-16360-80000170D0001727D000420000316360     GGSL
NJARET21030-26978-16362-20000200D0002032D000390000616362     GGSL
NJARET21030-26978-16363-90000030D0000305D000080000116363     GGSL
NJARET21030-26978-16365-30000190D0001930D000120000416365     GGSL
NJARET21030-26978-16368-40000060D0000610D000130000016368     GGSL
NJARET21030-26978-26140-30000300D0002700D000060000326140     GGSL
NJARET21030-26978-26142-70000130D0001170D000320000426142     GGSL
NJARET21030-26978-26143-40000190D0001710D000150000126143     GGSL
NJARET21030-26978-26145-80000180D0001620D000120000526145     GGSL
NJARET21030-26978-26148-90000110D0000990D000060000126148     GGSL
NJARET21030-26978-26160-10000004D0000038D000000000026160     GGSL
NJARET21030-26978-26162-50000004D0000038D000000000026162     GGSL
NJARET21030-26978-26165-60000004D0000038D000000000026165     GGSL
NJARET21030-26978-26180-90000110D0001585D000060000126180     GGSL
NJARET21030-26978-26181-60000010D0000136D000000000026181     GGSL
NJARET21030-26978-26182-30000140D0002017D000040000126182     GGSL
NJARET21030-26978-26183-00000100D0001441D000160000126183     GGSL
NJARET21030-26978-26185-40000040D0000576D000070000226185     GGSL
NJARET21030-26978-26188-50000030D0000432D000060000026188     GGSL
NJARET21030-26978-26270-70000010D0000115D000000000026270     GGSL
NJARET21030-26978-29228-50000003D0000083D000000000029228     GGSL
NJARET21030-26978-30104-80000222D0001103D000030000330104     GGSL
NJARET21030-26978-30301-10000576D0003266D000190002130301     GGSL
NJARET21030-26978-30312-70000144D0000145D000180000130312     GGSL
NJARET21030-26978-30402-50000264D0001447D000140000330402     GGSL
NJARET21030-26978-30409-40000276D0001512D000090000430409     GGSL
NJARET21030-26978-30411-70000324D0002022D000300000930411     GGSL
NJARET21030-26978-30413-10000072D0000449D000200000730413     GGSL
NJARET21030-26978-30413-10001440D0005613D00008000023041396   GGSL
NJARET21030-26978-30500-80000150D0000743D000050000530500     GGSL
NJARET21030-26978-30602-90000270D0000980D000170001130602     GGSL
NJARET21030-26978-30605-00000180D0000711D000290001930605     GGSL
NJARET21030-26978-30702-60000144D0000556D000410001030702     GGSL
NJARET21030-26978-30705-70000048D0000185D000470000630705     GGSL
NJARET21030-26978-30809-20000054D0000227D000030000330809     GGSL
NJARET21030-26978-31100-90000065D0000390D000190000631100     GGSL
NJARET21030-26978-31101-60000010D0000056D000000000031101     GGSL
NJARET21030-26978-31102-30000040D0000240D000010000131102     GGSL
NJARET21030-26978-31108-50000045D0000270D000090000331108     GGSL
NJARET21030-26978-31109-20000060D0000360D000090000231109     GGSL
NJARET21030-26978-31120-70000015D0000187D000100000231120     GGSL
NJARET21030-26978-31121-40000050D0000624D000140000231121     GGSL
NJARET21030-26978-31122-10000050D0000624D000080000631122     GGSL
NJARET21030-26978-31128-30000050D0000624D000160000031128     GGSL
NJARET21030-26978-31129-00000040D0000499D000040000031129     GGSL
NJARET21030-26978-31168-90000045D0001081D000050000131168     GGSL
NJARET21030-26978-31169-60000025D0000601D000080000131169     GGSL
NJARET21030-26978-32101-50000015D0000115D000140000532100     GGSL
NJARET21030-26978-32102-20000140D0001074D000140001332102     GGSL
NJARET21030-26978-32108-40000065D0000499D000120000232108     GGSL
NJARET21030-26978-32109-10000040D0000307D000110000132109     GGSL
NJARET21030-26978-32121-30000010D0000132D000000000032121     GGSL
NJARET21030-26978-32122-70000050D0000658D000030000232122     GGSL
NJARET21030-26978-32128-20000030D0000408D000100000132128     GGSL
NJARET21030-26978-32129-90000030D0000408D000130000032129     GGSL
NJARET21030-26978-34061-00000130D0000550D000070000234061     GGSL
NJARET21030-26978-34063-40000080D0000338D000070000434063     GGSL
NJARET21030-26978-34068-90000080D0000338D000140000234068     GGSL
NJARET21030-26978-34081-80000090D0000676D000100000334081     GGSL
NJARET21030-26978-34083-20000080D0000601D000080000334083     GGSL
NJARET21030-26978-34088-70000010D0000075D000000000034088     GGSL
NJARET21030-26978-34101-30000025D0000313D000130000334101     GGSL
NJARET21030-26978-34103-70000025D0000313D000150000234103     GGSL
NJARET21030-26978-34108-20000035D0000438D000020000234108     GGSL
NJARET21030-26978-34121-10000025D0000436D000150000034121     GGSL
NJARET21030-26978-34123-50000040D0000697D000190000034123     GGSL
NJARET21030-26978-34128-00000135D0002353D000120000034128     GGSL
NJARET21030-26978-34143-50000018D0000460D000090000034143     GGSL
NJARET21030-26978-34148-00000012D0000307D000080000034148     GGSL
NJARET21030-26978-35050-30000040D0000210D000010000035050     GGSL
NJARET21030-26978-35058-90000050D0000263D000040000135058     GGSL
NJARET21030-26978-35059-60000030D0000158D000020000135059     GGSL
NJARET21030-26978-35060-20000070D0000296D000400001835060     GGSL
NJARET21030-26978-35062-60000080D0000338D000070000035062     GGSL
NJARET21030-26978-35066-40000010D0000042D000000000035066     GGSL
NJARET21030-26978-35068-80000050D0000212D000220000735068     GGSL
NJARET21030-26978-35080-00000070D0000552D000360000235080     GGSL
NJARET21030-26978-35081-70000080D0000603D000110000335081     GGSL
NJARET21030-26978-35082-40000090D0000709D000100000035082     GGSL
NJARET21030-26978-35085-50000010D0000071D000000000035085     GGSL
NJARET21030-26978-35086-20000040D0000315D000080000135086     GGSL
NJARET21030-26978-35088-60000080D0000630D000240000235088     GGSL
NJARET21030-26978-35089-30000090D0000709D000050000135089     GGSL
NJARET21030-26978-35090-90000020D0000188D000010000035090     GGSL
NJARET21030-26978-35093-00000015D0000141D000010000035093     GGSL
NJARET21030-26978-35098-50000005D0000047D000020000035098     GGSL
NJARET21030-26978-35101-20000170D0001352D000010000135101     GGSL
NJARET21030-26978-35102-90000025D0000381D000030000035102     GGSL
NJARET21030-26978-35105-00000010D0000138D000000000035105     GGSL
NJARET21030-26978-35106-70000015D0000229D000110000135106     GGSL
NJARET21030-26978-35108-10000045D0000686D000320000335108     GGSL
NJARET21030-26978-35109-80000035D0000534D000280000135109     GGSL
NJARET21030-26978-35120-30000045D0000977D000090000035120     GGSL
NJARET21030-26978-35121-00000010D0000217D000000000035121     GGSL
NJARET21030-26978-35126-50000025D0000543D000120000035126     GGSL
NJARET21030-26978-35128-90000050D0001086D000110000335128     GGSL
NJARET21030-26978-35129-60000025D0000543D000220000035129     GGSL
NJARET21030-26978-35130-20000005D0000085D000000000035130     GGSL
NJARET21030-26978-35132-60000030D0000509D000080000135132     GGSL
NJARET21030-26978-35138-80000015D0000246D000080000135138     GGSL
NJARET21030-26978-35139-50000005D0000082D000080000035139     GGSL
NJARET21030-26978-35146-30000005D0000157D000020000135146     GGSL
NJARET21030-26978-35148-70000045D0001415D000150000335148     GGSL
NJARET21030-26978-35149-40000030D0000943D000150000035149     GGSL
NJARET21030-26978-35168-50000025D0001037D000070000135168     GGSL
NJARET21030-26978-35169-20000025D0001037D000180000035169     GGSL
NJARET21030-26978-35188-30000008D0000558D000010000135188     GGSL
NJARET21030-26978-35189-00000002D0000162D000220000035189     GGSL
NJARET21030-26978-35192-00000020D0000681D000040000135192     GGSL
NJARET21030-26978-35198-20000022D0000749D000360000735198     GGSL
NJARET21030-26978-35199-90000006D0000204D000110000135199     GGSL
NJARET21030-26978-35199-90000001D0000043D00000000003519901   GGSL
NJARET21030-26978-35203-30000002D0000060D000050000035203     GGSL
NJARET21030-26978-35208-80000002D0000060D000000000035208     GGSL
NJARET21030-26978-35272-90000012D0000972D000020000235272     GGSL
NJARET21030-26978-35278-10000016D0001297D000150000635278     GGSL
NJARET21030-26978-35279-80000002D0000162D000230000135279     GGSL
NJARET21030-26978-36100-40000030D0000338D000180000036100     GGSL
NJARET21030-26978-36105-90000005D0000051D000000000036105     GGSL
NJARET21030-26978-36108-00000030D0000338D000050000036108     GGSL
NJARET21030-26978-36120-20000020D0000314D000120000036120     GGSL
NJARET21030-26978-36121-90000005D0000071D000000000036121     GGSL
NJARET21030-26978-36128-80000020D0000314D000070000036128     GGSL
NJARET21030-26978-36140-00000040D0000536D000050000036140     GGSL
NJARET21030-26978-36148-60000055D0000737D000100000436148     GGSL
NJARET21030-26978-36220-90000020D0000470D000160000336220     GGSL
NJARET21030-26978-36225-40000010D0000212D000000000036225     GGSL
NJARET21030-26978-36228-50000040D0000939D000140000636228     GGSL
NJARET21030-26978-36290-20000010D0000329D000000000036290     GGSL
NJARET21030-26978-38142-20000120D0000632D000150001238142     GGSL
NJARET21030-26978-38146-00000012D0000063D000100000038146     GGSL
NJARET21030-26978-38148-40000336D0001771D000430001638148     GGSL
NJARET21030-26978-38192-70000192D0002296D000130000338192     GGSL
NJARET21030-26978-38196-50000120D0001435D000350001038196     GGSL
NJARET21030-26978-38198-90000726D0008683D000310001638198     GGSL
NJARET21030-26978-39122-30000120D0000475D000110000139122     GGSL
NJARET21030-26978-39126-10000048D0000190D000060000139126     GGSL
NJARET21030-26978-39128-50000228D0000903D000130000139128     GGSL
NJARET21030-26978-39188-90000018D0000184D000000000039188     GGSL
NJARET21030-26978-48098-30000096D0000427D000170000348098     GGSL
NJARET21030-26978-48128-00000024D0000148D000030000048128     GGSL
NJARET21030-26978-48158-00000018D0000148D000050000048158     GGSL
NJARET21030-26978-63060-50000040D0000156D000050000063060     GGSL
NJARET21030-26978-63065-00000040D0000156D000020000063065     GGSL
NJARET21030-26978-63066-70000030D0000117D000070000063066     GGSL
NJARET21030-26978-63069-80000040D0000156D000030000063069     GGSL
NJARET21030-26978-63070-40000010D0000063D000190000063070     GGSL
NJARET21030-26978-63075-90000010D0000063D000060000063075     GGSL
NJARET21030-26978-63076-60000010D0000063D000120000063076     GGSL
NJARET21030-26978-63079-70000010D0000063D000090000063079     GGSL
NJARET21030-26978-63090-20000005D0000067D000030000063090     GGSL
NJARET21030-26978-63095-70000005D0000067D000050000063095     GGSL
NJARET21030-26978-63099-50000005D0000067D000050000063099     GGSL
NJARET21030-26978-80100-50000012D0000531D000020000080100     GGSL
NJARET21030-26978-80101-20000016D0000588D000130000180101     GGSL
NJARET21030-26978-80101-20000008D0000307D00005000028010104   GGSL
NJARET21030-26978-80105-00000060D0002203D000060000080105     GGSL
NJARET21030-26978-80105-00000016D0000614D00003000038010504   GGSL
NJARET21030-26978-80107-40000192D0005736D00021000008010712   GGSL
NJARET21030-26978-80151-70000092D0003486D000090000080151     GGSL
NJARET21030-26978-80151-70000036D0001345D00000000008015136   GGSL
NJARET21030-26978-80153-10000004D0000152D000000000080153     GGSL
NJARET21030-26978-80155-20000012D0000455D00000000008015512   GGSL
NJARET21030-26978-80155-50000032D0001212D000280000380155     GGSL
NJARET21030-26978-80156-20000008D0000303D000000000080156     GGSL
NJARET21030-26978-80157-90000012D0000455D00002000008015712   GGSL
NJARET21030-26978-81010-60000008D0000244D000050000081010     GGSL
NJARET21030-26978-81011-30000016D0000409D000280000081011     GGSL
NJARET21030-26978-81015-10000024D0000613D000300000081015     GGSL
NJARET21030-26978-81100-40000060D0000461D000080000081100     GGSL
NJARET21030-26978-81101-10000048D0000431D000040000081101     GGSL
NJARET21030-26978-81109-70000012D0000112D000000000081109     GGSL
NJARET21030-26978-81121-90000048D0000176D000190000081121     GGSL
NJARET21030-26978-81201-80000004D0000179D000020000081201     GGSL
NJARET21030-26978-81751-80000012D0000356D000260000081751     GGSL
NJARET21030-26978-81755-60000012D0000356D000260000081755     GGSL
NJARET21030-26978-95208-00000008D0000044D000000000095208     GGSL
NJARET21030-27652-80203-50000025D0001189D0000000000LG400151  GGSL
NJARET21030-27652-80204-20000009D0000490D0000000000LG400161  GGSL
NJARET21030-27652-80205-90000010D0000672D0000000000LG400171  GGSL
NJARET21030-27652-82210-10000008D0000452D0000000000LG400272GDGGSL
NJARET21030-27856-10001-20006552D0019483D0038800000P10232    GGSL
NJARET21030-27856-10001-20000072D0000214D0000200031P10232M   GGSL
NJARET21030-27856-10002-90011616D0061116D0063700000P10264    GGSL
NJARET21030-27856-10002-90000012D0000063D0002800043P10264M   GGSL
NJARET21030-27856-10008-10002384D0032422D0044600002P101      GGSL
NJARET21030-27856-10009-80001698D0015537D0070000000P128      GGSL
NJARET21030-27856-10009-80000003D0000027D0003000030P128M     GGSL
NJARET21030-27997-00229-90000048D0001187D0002500004TE        GGSL
NJARET21030-27997-01017-10000007D0001040D0001000004 M6T22    GGSL
NJARET21030-27997-01017-10000011D0001935D0003100006M6T22     GGSL
NJARET21030-27997-20065-70000006D0000059D0000000000KHM       GGSL
NJARET21030-28009-11225-80000100D0000540D00000000001225      GGSL
NJARET21030-28009-11250-00000032D0000144D0006800000T1225X    GGSL
NJARET21030-28009-11440-50000195D0001383D0000000000T1440     GGSL
NJARET21030-28009-11731-40000260D0002114D00001000001925      GGSL
NJARET21030-28009-11731-40000001D0000009D00000000001925X     GGSL
NJARET21030-28009-11840-30000060D0000526D00002000001840      GGSL
NJARET21030-28009-15540-80000360D0000882D00000000005540      GGSL
NJARET21030-28929-07820-70000006D0000321D00000000002782SPC   GGSL
NJARET21030-28929-08927-20000005D0000480D00000000008927SHDI  GGSL
NJARET21030-28929-13793-50000022D0000167D0000900005137SP93   GGSL
NJARET21030-29925-65122-70000001D0000033D000000000065122     GGSL
NJARET21030-29925-77131-40000001D0000017D000000000077131     GGSL
NJARET21030-29973-12316-50000700D0004109D000020000214116021P GGSL
NJARET21030-29973-12333-20000776D0002728D000860007514110028P GGSL
NJARET21030-29973-12341-70000234D0001163D0001300000141100216UGGSL
NJARET21030-29973-12349-30000008D0000035D000030000314901028P GGSL
NJARET21030-29973-12369-10000001D0000510D000000000014106021P GGSL
NJARET21030-29973-12456-80000568D0002477D000070000214902028P GGSL
NJARET21030-30541-00003-00000050D0000063D0000100001JCD50EP   GGSL
NJARET21030-30541-00109-90000012D0000027D0000000000JCD02SE   GGSL
NJARET21030-30541-00301-70000005D0000922D0000000000JCD30BKSM GGSL
NJARET21030-30541-00801-20000015D0000762D0002800000JCD08BKSM GGSL
NJARET21030-30541-01010-70000024D0000047D0000000000JCD012SMP GGSL
NJARET21030-30541-01020-60000384D0000872D0005400002JCD024SM  GGSL
NJARET21030-30541-01020-60000300D0000538D0000100001JCD060SM  GGSL
NJARET21030-30541-01030-50000114D0000956D0006700002JCD100SMJ GGSL
NJARET21030-30541-01034-30000036D0000755D0004500001JCD030SM  GGSL
NJARET21030-30541-01039-80000156D0000789D0002600000JCD05SM   GGSL
NJARET21030-30541-01084-80000050D0000063D0000200000JCD50EPP  GGSL
NJARET21030-30541-07006-40000016D0006065D0000000000JCDRACKA  GGSL
NJARET21030-30541-08878-60000024D0000072D0000800000SMMS      GGSL
NJARET21030-30541-08879-30000060D0000186D0000600003SMVS      GGSL
NJARET21030-30541-09981-20000050D0000097D0001500000JCDTPG    GGSL
NJARET21030-30541-46688-10000012D0000025D0000000000SMP       GGSL
NJARET21030-30541-77703-10000024D0000067D0000000000SMN3      GGSL
NJARET21030-31009-43607-10000002D0000033D0000000000952153209 GGSL
NJARET21030-31247-74395-20000058D0000407D000420000043959430X GGSL
NJARET21030-31340-10005-10000108D0001979D0001100000B550120   GGSL
NJARET21030-31340-10006-80000324D0003620D0006600010B550125   GGSL
NJARET21030-31340-10007-50000036D0001169D0001200001B550130   GGSL
NJARET21030-31340-10017-40000096D0001759D0001400013B550190   GGSL
NJARET21030-31365-05040-90000006D0000039D0000600000 41718    GGSL
NJARET21030-31365-05080-50000002D0000017D0000500000 41719    GGSL
NJARET21030-31365-10600-70000099D0001669D0017400042 42808    GGSL
NJARET21030-31365-12205-20000005D0000130D0000000000 49454    GGSL
NJARET21030-31417-00005-50000040D0000951D000050000030201111  GGSL
NJARET21030-31417-00043-70000240D0001282D000180000180201105  GGSL
NJARET21030-31417-00046-80000023D0000254D000200002080201121X GGSL
NJARET21030-31417-00047-50000001D0000021D000230000080551121X GGSL
NJARET21030-31417-00048-20000040D0000276D000000000080551105  GGSL
NJARET21030-31417-00049-90000330D0002065D000000000080110021  GGSL
NJARET21030-31417-00055-00000198D0004987D000040000380601131  GGSL
NJARET21030-31417-00055-00000054D0001363D000220000080601131X GGSL
NJARET21030-31417-00056-70000016D0000362D000870000080611131X GGSL
NJARET21030-31417-00057-40000064D0001235D000440000080621131X GGSL
NJARET21030-31417-00105-20000005D0000068D000000000080202020  GGSL
NJARET21030-31417-00107-60000190D0001034D000020000080202005  GGSL
NJARET21030-31417-00300-10000012D0000094D000000000060606061  GGSL
NJARET21030-31724-81001-90000006D0000374D00006000008100100   GGSL
NJARET21030-31724-81005-70000008D0000290D0001900001810050    GGSL
NJARET21030-31724-84000-90000075D0001663D00015000028400100   GGSL
NJARET21030-31724-84005-40000025D0000316D0004400018840050    GGSL
NJARET21030-31724-85090-90000030D0001037D00009000028509100   GGSL
NJARET21030-31724-85095-40000120D0002099D0003300005850950    GGSL
NJARET21030-31724-85097-80000042D0001089D0000400002850975    GGSL
NJARET21030-31724-85350-40000009D0000262D00004000008535100   GGSL
NJARET21030-31724-85355-90000045D0000699D0000700002853550    GGSL
NJARET21030-31724-85357-30000003D0000067D0000100001853575    GGSL
NJARET21030-31724-86171-40000006D0000272D00000000028617130   GGSL
NJARET21030-31724-86175-20000035D0000872D0001700000861750    GGSL
NJARET21030-31724-86175-20000003D0001285D000030000386175028  GGSL
NJARET21030-31724-86177-60000114D0005079D00033000268617100   GGSL
NJARET21030-31724-86177-60000078D0002708D0005400008861775    GGSL
NJARET21030-31724-86425-80000005D0000057D0000000000864250    GGSL
NJARET21030-31724-86427-20000003D0000110D0000000000864275    GGSL
NJARET21030-31724-86505-70000015D0000438D0000000000865050    GGSL
NJARET21030-31724-88451-50000021D0001074D00002000028845100   GGSL
NJARET21030-31724-88455-30000015D0000437D0001500001884550    GGSL
NJARET21030-31724-88457-70000030D0001187D0000000000884575    GGSL
NJARET21030-31724-88805-60000110D0002597D0000000000888VR50   GGSL
NJARET21030-32247-00900-30000240D0000846D00170000221009001   GGSL
NJARET21030-32247-00910-20000108D0000377D00145000021009101   GGSL
NJARET21030-32247-00950-80000126D0000441D00166000021009501   GGSL
NJARET21030-32247-02515-70000362D0014275D00161000082515      GGSL
NJARET21030-32247-03594-10000200D0001468D000020000070359430  GGSL
NJARET21030-32247-05514-70001080D0005564D000600000370551430  GGSL
NJARET21030-32247-05514-70000126D0000649D001380003070551430X GGSL
NJARET21030-32247-10500-20000228D0002263D0004700001110500    GGSL
NJARET21030-32247-14900-60000112D0000854D001100000214900     GGSL
NJARET21030-32247-14901-30000016D0000251D001280000214901     GGSL
NJARET21030-32247-14902-00000180D0002806D001060000714902     GGSL
NJARET21030-32247-14905-10000776D0005978D001540000514905     GGSL
NJARET21030-32247-17183-00000978D0009496D000840000617183     GGSL
NJARET21030-32247-17185-40000316D0007026D000890000017185     GGSL
NJARET21030-32247-17187-80000055D0002918D001610000017187     GGSL
NJARET21030-32247-17290-50000222D0002421D000800000417290     GGSL
NJARET21030-32247-17293-60000084D0000900D000570000017293     GGSL
NJARET21030-32247-17295-00000048D0001213D000310000017295     GGSL
NJARET21030-32247-17323-00000078D0000756D000390000317323     GGSL
NJARET21030-32247-17325-40000084D0001635D000230000017325     GGSL
NJARET21030-32247-17327-80000014D0000557D000150000117327     GGSL
NJARET21030-32247-17378-00000010D0000353D001570000117378     GGSL
NJARET21030-32247-17504-30000011D0000535D001070000417504     GGSL
NJARET21030-32247-17508-10000690D0009626D001900003517508     GGSL
NJARET21030-32247-17511-10000078D0001101D000450000417511     GGSL
NJARET21030-32247-17530-20000048D0000474D000520000017530     GGSL
NJARET21030-32247-17540-10000140D0003964D002570000117540     GGSL
NJARET21030-32247-18213-30000020D0000398D000350000618213     GGSL
NJARET21030-32247-18221-80000152D0003488D001820000118221     GGSL
NJARET21030-32247-18222-50000016D0000255D000380000418222     GGSL
NJARET21030-32247-18225-60000246D0002933D001990001018225     GGSL
NJARET21030-32247-18249-20000004D0000256D000820000018249     GGSL
NJARET21030-32247-18251-50000040D0001327D000380000018251     GGSL
NJARET21030-32247-18260-70000018D0000218D000540000218260     GGSL
NJARET21030-32247-18266-90000048D0000660D000720000118266     GGSL
NJARET21030-32247-18269-00000016D0000517D000440000018269     GGSL
NJARET21030-32247-18272-00000024D0000137D000550000018272     GGSL
NJARET21030-32247-18277-50000028D0000760D000120000018277     GGSL
NJARET21030-32247-18287-40000006D0000081D000470000018287     GGSL
NJARET21030-32247-18296-60000024D0000327D000120000018296     GGSL
NJARET21030-32247-18320-80000036D0000384D000290000318320     GGSL
NJARET21030-32247-18334-50000282D0022938D000420001518334     GGSL
NJARET21030-32247-18336-90000012D0000262D000000000018336     GGSL
NJARET21030-32247-18345-10000042D0000593D000650000118345     GGSL
NJARET21030-32247-18346-80000032D0000672D000510000118346     GGSL
NJARET21030-32247-18348-20000060D0000888D000690000118348     GGSL
NJARET21030-32247-18354-30000024D0000335D000530000018354     GGSL
NJARET21030-32247-18362-80000036D0001148D000000000018362     GGSL
NJARET21030-32247-20785-00000900D0002850D000000000072078430  GGSL
NJARET21030-32247-21605-00000180D0003740D005600001321605     GGSL
NJARET21030-32247-21701-90000228D0002122D000980000121701     GGSL
NJARET21030-32247-21814-60000032D0001419D004770000021814     GGSL
NJARET21030-32247-22305-80000081D0001429D003020000422305     GGSL
NJARET21030-32247-22315-70000088D0003865D001770000022315     GGSL
NJARET21030-32247-23001-80000005D0000160D004050002023001     GGSL
NJARET21030-32247-23002-50000012D0000130D000040000023002     GGSL
NJARET21030-32247-23200-50000022D0000820D000390000023200     GGSL
NJARET21030-32247-23201-20000047D0002563D000000000023201     GGSL
NJARET21030-32247-23616-40000414D0009242D009510000223616     GGSL
NJARET21030-32247-23622-50000320D0004978D008210000223622     GGSL
NJARET21030-32247-25006-10000065D0001678D004510000025006A    GGSL
NJARET21030-32247-25009-20000059D0004064D002960000025009     GGSL
NJARET21030-32247-26002-20000018D0001113D002070000026002A    GGSL
NJARET21030-32247-26003-90000037D0000932D004100001026003D    GGSL
NJARET21030-32247-26784-70000210D0000728D000850000672678430  GGSL
NJARET21030-32247-27764-80000352D0001578D000250001372776430  GGSL
NJARET21030-32247-30073-50000008D0000111D000050000530073     GGSL
NJARET21030-32247-30156-50000060D0000937D001610001130156     GGSL
NJARET21030-32247-31010-90000012D0000108D000000000031010     GGSL
NJARET21030-32247-31115-80000013D0001016D002610000031115     GGSL
NJARET21030-32247-32367-30000048D0001504D006120000832367F    GGSL
NJARET21030-32247-33002-20000048D0000741D00019000003300210   GGSL
NJARET21030-32247-33040-40000299D0004637D006690001733040     GGSL
NJARET21030-32247-33050-30000224D0008527D004360002033050     GGSL
NJARET21030-32247-33160-90000233D0015112D005820002333160     GGSL
NJARET21030-32247-34161-50000279D0015106D006030000034161     GGSL
NJARET21030-32247-36905-30000479D0016924D006030010836905     GGSL
NJARET21030-32247-37594-80000100D0000834D000000000073759430  GGSL
NJARET21030-32247-37594-80000050D0000417D000000000073759430X GGSL
NJARET21030-32247-37610-50000060D0000896D000630000137610C    GGSL
NJARET21030-32247-38505-30000006D0000115D002400000038505     GGSL
NJARET21030-32247-39181-80000730D0017743D010510001239181     GGSL
NJARET21030-32247-39594-60000050D0000493D000120000073959430  GGSL
NJARET21030-32247-39605-90000042D0000795D006870000539605     GGSL
NJARET21030-32247-39615-80000079D0003971D003740000539615     GGSL
NJARET21030-32247-42784-50000294D0001176D000330001474278430  GGSL
NJARET21030-32247-43850-60000004D0000119D00069000004385010   GGSL
NJARET21030-32247-43852-00000003D0000109D00014000004385203   GGSL
NJARET21030-32247-43854-40000004D0000052D00039000004385404   GGSL
NJARET21030-32247-43860-50000012D0000292D00060000004386004   GGSL
NJARET21030-32247-44615-00000012D0000291D001030000044615A    GGSL
NJARET21030-32247-47783-30000156D0000624D000960000374778300  GGSL
NJARET21030-32247-49013-90000009D0000186D001880000049013     GGSL
NJARET21030-32247-49019-10000291D0003492D003430003649019     GGSL
NJARET21030-32247-49020-70000006D0000352D001040000049020     GGSL
NJARET21030-32247-49023-80000012D0000122D000180000049023     GGSL
NJARET21030-32247-49024-50000085D0001173D003370005249024     GGSL
NJARET21030-32247-49785-50000480D0002035D000060000674978500  GGSL
NJARET21030-32247-49801-20000010D0000149D002350000049801C    GGSL
NJARET21030-32247-50087-60000006D0000130D00033000005008710   GGSL
NJARET21030-32247-50088-30000036D0000780D00021000005008810   GGSL
NJARET21030-32247-50240-50000005D0000331D001620000050240     GGSL
NJARET21030-32247-50250-40000010D0000253D004560000050250     GGSL
NJARET21030-32247-50524-60000507D0004287D000090000075052430  GGSL
NJARET21030-32247-50524-60000089D0000755D001220000075052430X GGSL
NJARET21030-32247-51062-20000060D0000398D000350000051062     GGSL
NJARET21030-32247-51070-70000008D0000072D000260000151070     GGSL
NJARET21030-32247-51080-60000042D0000252D000160000151080     GGSL
NJARET21030-32247-51105-60000127D0001756D006000001051105     GGSL
NJARET21030-32247-51115-50000079D0002991D003650000251115     GGSL
NJARET21030-32247-52784-20000120D0000480D001390000485278430  GGSL
NJARET21030-32247-53105-40000135D0001532D004800001153105     GGSL
NJARET21030-32247-53115-30000058D0001593D003490004553115     GGSL
NJARET21030-32247-54105-30000018D0000114D00014000005410510   GGSL
NJARET21030-32247-54204-30000036D0000413D00015000005420406   GGSL
NJARET21030-32247-55513-50001690D0016981D000890000375551300  GGSL
NJARET21030-32247-55513-50000018D0000181D001220000075551300X GGSL
NJARET21030-32247-55523-40001008D0015864D000340000375552300  GGSL
NJARET21030-32247-55523-40000016D0000252D000000000075552300X GGSL
NJARET21030-32247-55783-20000324D0001542D000220005275578300  GGSL
NJARET21030-32247-55863-10000182D0001526D000010000075586300  GGSL
NJARET21030-32247-55863-10000023D0000193D000210001075586300X GGSL
NJARET21030-32247-56063-40000024D0000100D000710002945606300  GGSL
NJARET21030-32247-56163-10000182D0001538D000060000145616300  GGSL
NJARET21030-32247-56163-10000038D0000315D001360002445616300X GGSL
NJARET21030-32247-56211-90000030D0000458D00063000005621106   GGSL
NJARET21030-32247-56513-40004875D0043812D000420001375651300  GGSL
NJARET21030-32247-56513-40000258D0002322D000180001875651300X GGSL
NJARET21030-32247-56523-30002484D0034926D000760001175652300  GGSL
NJARET21030-32247-56523-30000091D0001279D000310001575652300X GGSL
NJARET21030-32247-56783-10003216D0015084D011460002975678300  GGSL
NJARET21030-32247-56783-10003360D0015926D000280000975678309  GGSL
NJARET21030-32247-56863-00001365D0010292D000190000175686300  GGSL
NJARET21030-32247-56863-00000194D0001463D003520014975686300X GGSL
NJARET21030-32247-57905-60000013D0000161D001660003957905     GGSL
NJARET21030-32247-60594-60000050D0000417D000070000076059430  GGSL
NJARET21030-32247-60594-60000040D0000334D000800000076059430X GGSL
NJARET21030-32247-71060-20000174D0002288D000760000271060     GGSL
NJARET21030-32247-71131-90000020D0000393D000390000171131     GGSL
NJARET21030-32247-74150-70002700D0014876D0021900034274150    GGSL
NJARET21030-32247-74250-40001608D0013418D0024600030274250    GGSL
NJARET21030-32247-74395-20000050D0000502D000020000043959430  GGSL
NJARET21030-32247-74850-60000660D0012604D0023900014274850    GGSL
NJARET21030-32247-75902-10000020D0001678D000430001175902     GGSL
NJARET21030-32247-76121-50000258D0008454D000000000076121     GGSL
NJARET21030-32247-76232-80000099D0005900D000380000676232     GGSL
NJARET21030-32247-76565-70000009D0000493D000230000276565     GGSL
NJARET21030-32247-77160-30003132D0015483D0028600035277160    GGSL
NJARET21030-32247-77260-00002004D0017365D0028400037277260    GGSL
NJARET21030-32247-77860-20000342D0005435D0015200023277860    GGSL
NJARET21030-32247-77960-90000592D0012481D0025300017277960    GGSL
NJARET21030-32247-90550-30000042D0004146D0011100060 671025   GGSL
NJARET21030-32247-95517-10000780D0003985D000210000079551750  GGSL
NJARET21030-32247-95517-10000012D0000061D001080002079551750X GGSL
NJARET21030-32247-99605-10000341D0007551D005000001099605     GGSL
NJARET21030-32247-99610-50000007D0000322D002330000199610     GGSL
NJARET21030-32903-00169-30002592D0003175D0000600006SLI06000E3GGSL
NJARET21030-32903-00171-60000720D0000876D0000500001SLI06000A3GGSL
NJARET21030-32903-00191-40000060D0000269D0000000000GAB12000E2GGSL
NJARET21030-32903-00192-10000792D0000963D0000500004SLI06000B9GGSL
NJARET21030-32903-00193-80000018D0000295D0000000000TEA17000G2GGSL
NJARET21030-32903-00203-40000002D0000162D0000000000TEA30000G2GGSL
NJARET21030-32903-00214-00000648D0000791D0001300002SLI06000E2GGSL
NJARET21030-32903-00222-50001056D0001661D0001200005SLI08000B9GGSL
NJARET21030-32903-00224-90000120D0000830D0001200003VNP18000E2GGSL
NJARET21030-32903-00236-20000006D0000028D0002000000SVN24000E2GGSL
NJARET21030-32903-00240-90000744D0001156D0002800002SLI08000E2GGSL
NJARET21030-32903-00243-00000006D0000033D0000700000SVN30000E2GGSL
NJARET21030-32903-00246-10000864D0001344D0001100001SLI08000A3GGSL
NJARET21030-32903-00257-70000009D0000367D0000200000RZGH210G2 GGSL
NJARET21030-32903-00258-40000888D0001563D0000800002LIA06000E2GGSL
NJARET21030-32903-00264-50000960D0002554D0000900003LIA08000E2GGSL
NJARET21030-32903-00281-20000660D0002693D0002100005LIA10000E2GGSL
NJARET21030-32903-00283-60000144D0000895D0000600000GAB14000E2GGSL
NJARET21030-32903-00284-30000012D0000348D0000400004TEA20000G2GGSL
NJARET21030-32903-00287-40000168D0001325D0000100000VNP24000E2GGSL
NJARET21030-32903-00290-40000144D0001477D0000300001VNP30000E2GGSL
NJARET21030-32903-00293-50000348D0000761D0011900002SLI10000E2GGSL
NJARET21030-32903-00301-70000045D0000657D0002600006ROP28000A3GGSL
NJARET21030-32903-00309-30002160D0004729D0003400013SLI10000E3GGSL
NJARET21030-32903-00313-00000042D0000397D0000100000GAB18000E2GGSL
NJARET21030-32903-00326-00000732D0004795D0000600006LIA12000E2GGSL
NJARET21030-32903-00332-10000528D0001153D0002900009SLI10000B9GGSL
NJARET21030-32903-00338-30000696D0001519D0001900002SLI10000A3GGSL
NJARET21030-32903-00341-30000150D0001246D0002300006SLI24000E3GGSL
NJARET21030-32903-00359-80002616D0004104D0002200010SLI08000E3GGSL
NJARET21030-32903-04255-90000024D0000198D0000000000LIA14000E2GGSL
NJARET21030-32903-04257-30000396D0001460D0000700002SLI12000E2GGSL
NJARET21030-32903-04265-80000012D0000179D0000000000GAB22000E2GGSL
NJARET21030-32903-07519-90000240D0003085D0000500000LIA16000E2GGSL
NJARET21030-32903-07530-40000408D0001606D0000400002SLI14000E2GGSL
NJARET21030-32903-07534-20000090D0001544D0000600000LIA20000E2GGSL
NJARET21030-32903-07558-80000072D0000258D0000100002RZWC1Q0B9 GGSL
NJARET21030-32903-07563-20000216D0000944D0000500000SLI17000E2GGSL
NJARET21030-32903-07577-90000018D0000412D0000700000LIA24000E2GGSL
NJARET21030-32903-12006-60003408D0006039D0002200011LIA06000E3GGSL
NJARET21030-32903-12008-00002856D0007684D0001200011LIA08000E3GGSL
NJARET21030-32903-12010-30002868D0011757D0001700017LIA10000E3GGSL
NJARET21030-32903-12012-70001404D0009214D0001900008LIA12000E3GGSL
NJARET21030-32903-12014-10000408D0003370D0001000010LIA14000E3GGSL
NJARET21030-32903-12017-20001200D0015415D0000700011LIA16000E3GGSL
NJARET21030-32903-12020-20000546D0009384D0001200009LIA20000E3GGSL
NJARET21030-32903-12024-00000180D0004182D0000800003LIA24000E3GGSL
NJARET21030-32903-12112-40000012D0000130D0000000000ROS12500E3GGSL
NJARET21030-32903-12312-80000144D0000774D0000000000CNA12000E3GGSL
NJARET21030-32903-12318-00000078D0000325D0000500000SVN18000E3GGSL
NJARET21030-32903-12324-10000180D0000840D0000500001SVN24000E3GGSL
NJARET21030-32903-12330-20000072D0000402D0001000000SVN30000E3GGSL
NJARET21030-32903-12712-60000396D0001797D0000000000GAB12000E3GGSL
NJARET21030-32903-12714-00000324D0002005D0000700001GAB14000E3GGSL
NJARET21030-32903-12718-80000102D0000977D0000100001GAB18000E3GGSL
NJARET21030-32903-12722-50000030D0000448D0000800000GAB22000E3GGSL
NJARET21030-32903-12818-50000366D0002522D0000500000VNP18000E3GGSL
NJARET21030-32903-12824-60000504D0003963D0001800002VNP24000E3GGSL
NJARET21030-32903-12830-70000378D0003880D0000400001VNP30000E3GGSL
NJARET21030-32903-23732-00000066D0000439D0001500000SLI20000E2GGSL
NJARET21030-32903-30392-60000120D0000528D0000000000CNA080E3PCGGSL
NJARET21030-32903-30392-60000168D0000373D0000400000CNA08000E3GGSL
NJARET21030-32903-31000-90000004D0000116D0000000000TEA20000E3GGSL
NJARET21030-32903-35947-30000276D0000927D0000000000CNA10000E3GGSL
NJARET21030-32903-40400-50000528D0002161D0002600003LIA10000A3GGSL
NJARET21030-32903-40493-70001632D0004361D0001600003LIA08000B9GGSL
NJARET21030-32903-40770-90000174D0001208D0001600006VNP18000A3GGSL
NJARET21030-32903-41472-10000030D0000166D0001100000SVN30000A3GGSL
NJARET21030-32903-41640-40000912D0002440D0000300000LIA08000A3GGSL
NJARET21030-32903-41717-30000648D0005381D0000900003LIA14000B9GGSL
NJARET21030-32903-41728-90000972D0006404D0001900009LIA12000B9GGSL
NJARET21030-32903-41842-20000258D0002664D0000600005VNP30000A3GGSL
NJARET21030-32903-41909-20000348D0004469D0001200002LIA16000A3GGSL
NJARET21030-32903-42050-00000042D0000962D0000300000LIA24000A3GGSL
NJARET21030-32903-42240-50001152D0002034D0001000004LIA06000B9GGSL
NJARET21030-32903-42728-80000030D0000139D0000700000SVN24000A3GGSL
NJARET21030-32903-43116-20000036D0000151D0002500005SVN18000A3GGSL
NJARET21030-32903-45170-20000312D0002584D0000300000LIA14000A3GGSL
NJARET21030-32903-45342-30000222D0001740D0001000004VNP24000A3GGSL
NJARET21030-32903-45788-90000006D0000147D0001200010LIA24000B9GGSL
NJARET21030-32903-46337-80000204D0002635D0001400004LIA16000B9GGSL
NJARET21030-32903-46966-00000066D0001133D0000200000LIA20000A3GGSL
NJARET21030-32903-47208-00000480D0003143D0000300000LIA12000A3GGSL
NJARET21030-32903-48101-30000744D0001316D0001800003LIA06000A3GGSL
NJARET21030-32903-48538-70000174D0002993D0001200005LIA20000B9GGSL
NJARET21030-32903-50286-20000216D0000750D0000400004HSI10008E2GGSL
NJARET21030-32903-50763-80001560D0005741D0001300006SLI12000E3GGSL
NJARET21030-32903-50764-50000648D0002568D0003600004SLI14000B9GGSL
NJARET21030-32903-50766-90000004D0000152D0000000000TEA24000G2GGSL
NJARET21030-32903-50767-60000696D0002567D0000700001SLI12000A3GGSL
NJARET21030-32903-50794-20000768D0002828D0001800003SLI12000B9GGSL
NJARET21030-32903-50802-40001308D0005152D0003500008SLI14000E3GGSL
NJARET21030-32903-50803-10000480D0001889D0001500001SLI14000A3GGSL
NJARET21030-32903-52340-90000036D0000166D0000300000SVN24000B9GGSL
NJARET21030-32903-52858-90000264D0001819D0000300000VNP18000B9GGSL
NJARET21030-32903-53271-50000042D0000349D0000400000SLI24000E2GGSL
NJARET21030-32903-56391-70000540D0001893D0000700007HSI10008A1GGSL
NJARET21030-32903-57235-30000030D0000304D0000900002VNP30000B9GGSL
NJARET21030-32903-57495-10000030D0000166D0000800000SVN30000B9GGSL
NJARET21030-32903-58303-80000024D0000197D0000000000VNP24000B9GGSL
NJARET21030-32903-58838-50000018D0000075D0000400000SVN18000B9GGSL
NJARET21030-32903-59134-70000010D0000787D0000200000TES24000E3GGSL
NJARET21030-32903-60930-10000003D0000160D0000000000TES20000E3GGSL
NJARET21030-32903-61152-60000006D0000098D0000000000TEA17000E3GGSL
NJARET21030-32903-61636-10000420D0001467D0001500008HSI10008B6GGSL
NJARET21030-32903-63553-90000004D0000163D0000200000TEA24000E3GGSL
NJARET21030-32903-63553-90000004D0000152D0000000000TEA25000E3GGSL
NJARET21030-32903-66002-90000060D0000886D0002300006ROP28000E3GGSL
NJARET21030-32903-72233-80000132D0000539D0000300003LIA10000B9GGSL
NJARET21030-32903-72518-60000128D0001151D0000000000RZWC2G0B9 GGSL
NJARET21030-32903-72886-60000126D0000790D0000400004RZWC1G0B9 GGSL
NJARET21030-32903-75049-20000336D0002213D0000600004SLI20000E3GGSL
NJARET21030-32903-75051-50000276D0001210D0000700000SLI17000A3GGSL
NJARET21030-32903-75057-70000372D0001629D0000100001SLI17000B9GGSL
NJARET21030-32903-75070-60000066D0000439D0000300000SLI20000A3GGSL
NJARET21030-32903-75076-80000002D0000157D0000000000TES24000G2GGSL
NJARET21030-32903-75080-50000876D0003853D0001000006SLI17000E3GGSL
NJARET21030-32903-75081-20000168D0001121D0001400002SLI20000B9GGSL
NJARET21030-32903-75084-30000048D0000406D0000600000SLI24000A3GGSL
NJARET21030-32903-75089-80000066D0000559D0001100001SLI24000B9GGSL
NJARET21030-32903-91270-80000012D0000443D0000600003RZGH210E3 GGSL
NJARET21030-32903-91300-20000024D0000191D0000400004VNP2400G18GGSL
NJARET21030-32903-91303-30000042D0000426D0000000000VNP3000G18GGSL
NJARET21030-32903-91319-40000024D0000393D0000100000TEA17000G8GGSL
NJARET21030-32903-91320-00000016D0000464D0000000000TEA20000G8GGSL
NJARET21030-32903-91323-10000003D0000160D0000000000TES20000G8GGSL
NJARET21030-32903-91485-60000180D0002257D0000600006SPX24DBA34GGSL
NJARET21030-32903-91516-70000032D0000170D0000100000PPF1000   GGSL
NJARET21030-32903-91590-70000024D0000042D0000600000IFA0600E35GGSL
NJARET21030-32903-91608-90000010D0000066D0000000000IFA1200E35GGSL
NJARET21030-32903-91610-20000010D0000066D0000000000IFA1200E21GGSL
NJARET21030-32903-91620-10000006D0000080D0000000000IFA1600E35GGSL
NJARET21030-32903-91622-50000006D0000080D0000000000IFA1600E21GGSL
NJARET21030-33200-00020-40000048D0000038D01292000543320000020GGSL
NJARET21030-33200-00544-50000388D0003890D108920700100544     GGSL
NJARET21030-33200-00544-50007296D0073106D000000000000544DP   GGSL
NJARET21030-33200-01191-00000064D0000468D002560005801191     GGSL
NJARET21030-33200-09020-50000020D0000140D002650010109020     GGSL
NJARET21030-33200-09142-40000196D0001370D002700012509142     GGSL
NJARET21030-33200-09293-30000160D0001114D00545002959293      GGSL
NJARET21030-33200-11321-80000168D0000223D000720007211321     GGSL
NJARET21030-33200-11448-20000006D0000027D000980000011448     GGSL
NJARET21030-33200-94182-80000712D0007137D052570525794182     GGSL
NJARET21030-33200-97242-60000028D0000222D002080000197242     GGSL
NJARET21030-33200-97457-40000150D0001562D035890294797457     GGSL
NJARET21030-33349-03110-70002294D0003187D0000700001JP310     GGSL
NJARET21030-33349-05042-90000120D0000566D0000200000J324      GGSL
NJARET21030-33349-05047-40000012D0000068D0000000000J6R16     GGSL
NJARET21030-33349-05048-10000096D0000391D0001000005J3R36     GGSL
NJARET21030-33349-05082-50000688D0002128D0003300003JP506     GGSL
NJARET21030-33349-05262-10000014D0000198D0000100000T70H      GGSL
NJARET21030-33349-05618-60002288D0011651D0002000020G310      GGSL
NJARET21030-33349-07750-10000522D0001709D0001100004J4R25     GGSL
NJARET21030-33349-41211-10001540D0001691D0002000006JP212     GGSL
NJARET21030-33349-41214-20000192D0000400D0011100111JP226     GGSL
NJARET21030-33349-41221-00001750D0003544D0001100000TDOME     GGSL
NJARET21030-33349-41234-00000650D0001087D0001600002TTRAY     GGSL
NJARET21030-33349-41238-80000056D0000264D0000100001T32       GGSL
NJARET21030-33349-41251-70000480D0001451D0002700010JS50      GGSL
NJARET21030-33349-41254-80000740D0002237D0001900009JS32      GGSL
NJARET21030-33349-41258-60000176D0000325D0000300001TR72      GGSL
NJARET21030-33349-41318-70000720D0002147D0000200001JP322     GGSL
NJARET21030-33349-41444-30002112D0000426D0001200000JP4BULK   GGSL
NJARET21030-33349-41444-30001680D0003809D0001400007JP406     GGSL
NJARET21030-33349-41620-10000273D0002116D0001500000G316      GGSL
NJARET21030-33349-41701-70015000D0001814D0002000001J4BULK    GGSL
NJARET21030-33349-41710-90000646D0002050D0000300002J312      GGSL
NJARET21030-33349-65140-40000017D0000051D0000000000J410      GGSL
NJARET21030-33349-65153-40000070D0000441D0000400000G312      GGSL
NJARET21030-33349-65205-00000011D0000099D0000000000T34H      GGSL
NJARET21030-33349-66003-10000520D0005318D0000000000J372ST20  GGSL
NJARET21030-33349-66005-50000016D0000133D0000300000J425ST16  GGSL
NJARET21030-33349-66006-20000100D0001049D0000000000J450ST20  GGSL
NJARET21030-33349-66006-20000020D0000210D0000000000J450ST20PCGGSL
NJARET21030-33349-66007-90000011D0000088D0000000000J616ST11  GGSL
NJARET21030-33349-66008-60000210D0003004D0001000005J636ST10  GGSL
NJARET21030-33349-66009-30001428D0009108D0001000006T72HST14  GGSL
NJARET21030-33349-66010-90000224D0001783D0000100000TS50HST16 GGSL
NJARET21030-33349-66015-40000364D0002142D0000100000TS20HST14 GGSL
NJARET21030-33349-66016-10000140D0000880D0000600003TS32HST14 GGSL
NJARET21030-33607-00003-60000004D0000119D0002000001EDGE180   GGSL
NJARET21030-33607-00005-00000003D0000233D0000000000HR1       GGSL
NJARET21030-33607-00010-40000001D0000792D0000000000HRHCSET4  GGSL
NJARET21030-33607-00302-00000012D0000141D0000000000TT2P      GGSL
NJARET21030-33607-00320-40000014D0001554D0000200000TTMIX124  GGSL
NJARET21030-33607-00703-50000006D0000115D0000200000RP3       GGSL
NJARET21030-33607-00911-40000018D0000270D0000000000S11       GGSL
NJARET21030-33607-01206-00000012D0000141D0000000000WHR6      GGSL
NJARET21030-33607-01208-40000024D0000414D0001100002LT8       GGSL
NJARET21030-33607-01220-60000030D0000715D0001400002LT20      GGSL
NJARET21030-33607-22000-70000372D0003418D0002000001HCWM1     GGSL
NJARET21030-33607-22004-50000008D0000201D0001500000D6C       GGSL
NJARET21030-33607-22004-50000008D0000127D0001500000HHRP4     GGSL
NJARET21030-33607-22005-20000012D0000301D0001600000HC2       GGSL
NJARET21030-33607-22006-90000032D0000665D0003100002HBE6      GGSL
NJARET21030-33607-22010-60000056D0001543D0002000002HCF3      GGSL
NJARET21030-33607-22028-10000002D0000141D0000000000SRM90     GGSL
NJARET21030-33607-22075-50000017D0001496D0000900002HTC1      GGSL
NJARET21030-33607-22125-70000012D0001331D0002900001HT2EZ     GGSL
NJARET21030-33607-22250-60000006D0000801D0002000000HT4EZ     GGSL
NJARET21030-33607-22310-70000004D0000114D0000400000BPL6      GGSL
NJARET21030-33607-22310-70000018D0000142D0000600000HG18      GGSL
NJARET21030-33607-22500-20000002D0000299D0000000000SR360     GGSL
NJARET21030-33607-51000-90000008D0000253D0000000000RKT1000   GGSL
NJARET21030-33607-51300-00000004D0000114D0000200000TNT4      GGSL
NJARET21030-33607-52100-50000020D0000943D0001400002GKS2      GGSL
NJARET21030-33607-52103-60000004D0000171D0000000000GKS2PUR   GGSL
NJARET21030-33607-79300-60000001D0000348D0000000000YBHOSEC   GGSL
NJARET21030-33745-97185-40000085D0002539D002350000097185X    GGSL
NJARET21030-34411-00001-40000010D0000021D0023700000 01HM     GGSL
NJARET21030-34411-00011-30000030D0000044D0010100000 01M      GGSL
NJARET21030-34411-00012-00000028D0000046D0000000000 01F      GGSL
NJARET21030-34411-00018-20000084D0000075D00001000018013641001GGSL
NJARET21030-34411-00340-40000012D0000138D00002000018450031002GGSL
NJARET21030-34411-01076-10000030D0000495D00005000028006041001GGSL
NJARET21030-34411-01173-70000004D0000128D00000000008167731011GGSL
NJARET21030-34411-02971-80000006D0000142D00074000008550321001GGSL
NJARET21030-34411-05731-50000020D0000073D00000000008573021012GGSL
NJARET21030-34411-11208-30000005D0000272D0000300000 10034075 GGSL
NJARET21030-34411-12528-10000012D0000087D00000000008528121001GGSL
NJARET21030-34411-26190-30000006D0000075D00001000018219331011GGSL
NJARET21030-34411-74001-90000002D0000102D00000000008740011001GGSL
NJARET21030-34411-74501-40000036D0001032D00002000028745011002GGSL
NJARET21030-34411-80203-80000054D0000981D00003000038802031011GGSL
NJARET21030-34411-92773-10000084D0000658D00007000018702511001GGSL
NJARET21030-34411-92774-80000012D0000146D00000000008705011001GGSL
NJARET21030-34411-92775-50000012D0000195D00000000008707511001GGSL
NJARET21030-34613-00011-90000108D0000931D0000700000LH011     GGSL
NJARET21030-34613-00012-60000012D0000103D0000800000LH012     GGSL
NJARET21030-34613-00014-00000012D0000103D0000600000LH014     GGSL
NJARET21030-34613-00048-50000012D0000153D0000000000TP48      GGSL
NJARET21030-34613-00060-70000024D0000335D0000000000TP60      GGSL
NJARET21030-34613-00068-30000108D0001746D000060000368WP      GGSL
NJARET21030-34613-00072-00000012D0000196D0000200000TP72      GGSL
NJARET21030-34613-00214-40000025D0000030D0000100001CVS010DL  GGSL
NJARET21030-34613-00216-80000015D0000093D0000000000U2403     GGSL
NJARET21030-34613-00451-30000024D0000112D0000000000451       GGSL
NJARET21030-34613-00469-80000002D0000263D0000900006 N408     GGSL
NJARET21030-34613-00550-30000024D0000083D0000000000550BL     GGSL
NJARET21030-34613-00551-00000024D0000083D0000000000551BL     GGSL
