TXBWIC21030-00001-32168-50000001D0000079D0000000000132168    GGSL
TXBWIC21030-00402-00000-00001188D0006853D0451100396          GGSL
TXBWIC21030-00402-01012-60000070D0007278D00381000321012      GGSL
TXBWIC21030-00402-01014-00000452D0034356D01517003211014      GGSL
TXBWIC21030-00402-01492-60000011D0000024D000370000014SSB     GGSL
TXBWIC21030-00402-02419-20000015D0000318D000840000010XS-20   GGSL
TXBWIC21030-00402-02750-60001125D0004959D0017500025B75       GGSL
TXBWIC21030-00402-05418-20000150D0000419D00550000005418      GGSL
TXBWIC21030-00402-10142-80000648D0047399D021070003610145B    GGSL
TXBWIC21030-00402-10147-30000018D0001322D00220000071014 G    GGSL
TXBWIC21030-00402-11730-60000075D0000293D003750002511730     GGSL
TXBWIC21030-00402-14311-40000200D0000550D000000000014CSBK    GGSL
TXBWIC21030-00402-14312-10000302D0000861D000230000014CSB     GGSL
TXBWIC21030-00402-14319-00000208D0000579D000360000014CS      GGSL
TXBWIC21030-00402-33117-70001825D0000605D0090000100PC11-7    GGSL
TXBWIC21030-00402-33354-60001775D0000238D0525000000PC5-4     GGSL
TXBWIC21030-00402-33375-10005100D0000979D0202500200PC7-5     GGSL
TXBWIC21030-00402-41819-90000022D0000245D001330000014TRS     GGSL
TXBWIC21030-00402-44475-40000125D0000043D0000000000PLCD 7-5  GGSL
TXBWIC21030-00772-00475-60000024D0000158D0000000000475       GGSL
TXBWIC21030-00772-00572-20000012D0000119D0000000000572       GGSL
TXBWIC21030-00772-03101-10000024D0000185D00000000003101      GGSL
TXBWIC21030-00772-03129-50000002D0000066D00000000003129      GGSL
TXBWIC21030-00772-04490-50000012D0000119D00000000004490      GGSL
TXBWIC21030-00772-05149-10000006D0000083D00000000005149      GGSL
TXBWIC21030-00772-06060-80000038D0000167D00000000006060      GGSL
TXBWIC21030-00772-06062-20000008D0000035D00000000006062      GGSL
TXBWIC21030-00772-06090-50000230C0000035C00000000006090      GGSL
TXBWIC21030-00772-06092-90000001D0000020D00000000006092      GGSL
TXBWIC21030-00772-06093-60000001D0000020D00000000006093      GGSL
TXBWIC21030-00772-06281-70000018D0000099D00000000006281      GGSL
TXBWIC21030-00772-06282-40000012D0000066D00000000006282      GGSL
TXBWIC21030-00772-06337-10000239C0000066C00000000006337      GGSL
TXBWIC21030-00772-06346-30000018D0000129D00000000006346      GGSL
TXBWIC21030-00772-06435-40000006D0000046D00000000006435      GGSL
TXBWIC21030-00772-06644-00000001D0000000D00000000006644      GGSL
TXBWIC21030-00772-06703-40000001D0000040D00000000006703      GGSL
TXBWIC21030-00772-06704-10000002D0000080D00000000006704      GGSL
TXBWIC21030-00772-06705-80000006D0000030D00000000006705      GGSL
TXBWIC21030-00772-06709-60000003D0000020D00000000006709      GGSL
TXBWIC21030-00772-06710-20000024D0000172D00000000006710      GGSL
TXBWIC21030-00772-06712-60000018D0000129D00000000006712      GGSL
TXBWIC21030-00772-06714-00000001D0000066D00000000006714      GGSL
TXBWIC21030-00772-06715-70000001D0000066D00000000006715      GGSL
TXBWIC21030-00772-06723-20000001D0000043D00000000006723      GGSL
TXBWIC21030-00772-06724-90000002D0000086D00000000006724      GGSL
TXBWIC21030-00772-06740-90000018D0000089D00000000006740      GGSL
TXBWIC21030-00772-06741-60000008D0000066D00000000006741      GGSL
TXBWIC21030-00772-06744-70000006D0000116D00000000006744      GGSL
TXBWIC21030-00772-06753-90000005D0000099D00000000006753      GGSL
TXBWIC21030-00772-09126-80000001D0000020D00000000009126      GGSL
TXBWIC21030-00772-09402-30000006D0000116D00000000009402      GGSL
TXBWIC21030-00772-30128-20000002D0000088D000000000030128     GGSL
TXBWIC21030-00772-30149-70000006D0000083D000000000030149     GGSL
TXBWIC21030-00772-31325-40000012D0000112D000000000031325     GGSL
TXBWIC21030-00772-31341-40000008D0000057D000000000031341     GGSL
TXBWIC21030-00772-31343-80000008D0000057D000000000031343     GGSL
TXBWIC21030-00772-31375-90000010D0000094D000000000031375     GGSL
TXBWIC21030-01850-60960-00000003D0001822D00000000009600      GGSL
TXBWIC21030-02800-91501-30000075D0000506D00000000001501      GGSL
TXBWIC21030-10367-00110-70001500D0009102D0250801440110       GGSL
TXBWIC21030-10367-00130-50000009D0000458D0005600050130.0     GGSL
TXBWIC21030-10367-00150-30000002D0000045D0000000002150.0     GGSL
TXBWIC21030-10367-00460-30000088D0000423D0037600008ML0460 8  GGSL
TXBWIC21030-10367-00530-30000017D0000675D0000200000530.0     GGSL
TXBWIC21030-10367-00560-00000256D0000868D0043200024ML0560 8  GGSL
TXBWIC21030-10367-00810-60000204D0000969D0016800492ML0810    GGSL
TXBWIC21030-10367-01000-00000024D0000284D0000000000ML1000    GGSL
TXBWIC21030-10367-01010-90000036D0000511D0000000000ML1010    GGSL
TXBWIC21030-10367-01020-80000060D0000778D0004800000ML1020    GGSL
TXBWIC21030-10367-01050-50000096D0000906D0002400000ML1050    GGSL
TXBWIC21030-10367-01110-60000040D0000105D00008000081110      GGSL
TXBWIC21030-10367-01111-30000096D0000256D00056000001111.0    GGSL
TXBWIC21030-10367-01112-00000032D0000084D00032000001112.0    GGSL
TXBWIC21030-10367-01120-50000232D0000569D00080000001120.0    GGSL
TXBWIC21030-10367-01121-20000008D0000046D00000000001121.0    GGSL
TXBWIC21030-10367-01162-50000008D0000060D00032000001162.0    GGSL
TXBWIC21030-10367-03020-60000008D0000045D0001600000ML3020    GGSL
TXBWIC21030-11247-00250-40000113D0003861D001050000000640     GGSL
TXBWIC21030-11247-00911-40000013D0000538D000000001000911     GGSL
TXBWIC21030-11247-00913-80000004D0000301D000000000000913     GGSL
TXBWIC21030-11247-01050-90000090D0000858D000480000101050     GGSL
TXBWIC21030-11247-01541-20000006D0000207D000280000001541     GGSL
TXBWIC21030-11247-01841-30000001D0000032D000000000001841     GGSL
TXBWIC21030-11247-03111-50000102D0003202D000890000003111     GGSL
TXBWIC21030-11247-04525-90000271D0006295D003570001004525     GGSL
TXBWIC21030-11247-05350-60000013D0000614D000730000005350     GGSL
TXBWIC21030-11247-05450-30000078D0003237D002040001405450     GGSL
TXBWIC21030-11247-06239-30000011D0000448D000010004006239     GGSL
TXBWIC21030-11247-11024-70000048D0000255D000000004811024     GGSL
TXBWIC21030-11247-13010-80000030D0000099D000900001213010     GGSL
TXBWIC21030-11247-16004-20000192D0001169D003960000616004     GGSL
TXBWIC21030-11247-16040-20000002D0000061D000000000016040     GGSL
TXBWIC21030-11247-20103-70000120D0000810D000000000020103     GGSL
TXBWIC21030-11247-25040-00000060D0001770D000000000025040     GGSL
TXBWIC21030-11247-30004-40000750D0005209D003180016830004     GGSL
TXBWIC21030-11247-52813-40000083D0001108D000740000852813     GGSL
TXBWIC21030-11247-52825-70000230D0003772D000830000452825     GGSL
TXBWIC21030-11247-52826-40000006D0000030D000000000052826     GGSL
TXBWIC21030-11247-52827-10000004D0000044D000000000052827     GGSL
TXBWIC21030-11247-52829-50000048D0000473D000780000052829     GGSL
TXBWIC21030-11247-52830-10000012D0000468D000110000052830     GGSL
TXBWIC21030-11247-52842-40000020D0001629D000000000052842     GGSL
TXBWIC21030-11247-52847-90000011D0001393D000000000052847     GGSL
TXBWIC21030-11247-52851-60000004D0000088D000000000052851     GGSL
TXBWIC21030-11247-52880-60000018D0000149D000000000052880     GGSL
TXBWIC21030-11247-52881-30000013D0000234D000010000052881     GGSL
TXBWIC21030-11247-52888-20000141D0000731D006750000052888     GGSL
TXBWIC21030-11247-52889-90000257D0003272D006870000052889     GGSL
TXBWIC21030-11247-60116-50000062D0000656D001580000060116     GGSL
TXBWIC21030-11247-61024-20000648D0004065D016410025261024     GGSL
TXBWIC21030-11247-71016-40000024D0000194D000000002471001     GGSL
TXBWIC21030-11247-90128-90000108D0000819D000000000090128     GGSL
TXBWIC21030-11423-00338-70000006D0000036D0114400000HG-33801  GGSL
TXBWIC21030-11423-94127-60000066D0000270D0047800012HG-64127  GGSL
TXBWIC21030-14021-01037-50000001D0000076D00000000006000      GGSL
TXBWIC21030-14021-02732-80000001D0000307D00000000001060W     GGSL
TXBWIC21030-15966-49430-10000007D0000120D000050000049 00 430 GGSL
TXBWIC21030-16069-00005-90000237D0001447D0013500024TP-15C    GGSL
TXBWIC21030-16069-00007-30000156D0000961D0025200036BN-1      GGSL
TXBWIC21030-16069-00008-00000495D0002754D0129000252BN-2      GGSL
TXBWIC21030-16069-00013-40000050D0001194D0011000020BN-3      GGSL
TXBWIC21030-16069-00014-10000040D0000724D0008600000BN-4      GGSL
TXBWIC21030-16069-00015-80000040D0000994D0004600000BN-5      GGSL
TXBWIC21030-16069-00030-10000140D0001589D0016000018OW-6      GGSL
TXBWIC21030-16069-00049-30000048D0000753D0017400006DX-7      GGSL
TXBWIC21030-16069-00218-30000012D0000057D0003600000HST-100   GGSL
TXBWIC21030-16069-00365-40000104C0000057C0005400000PIN-9     GGSL
TXBWIC21030-16069-00473-30000001D0000465D0000100000MIXO-30MP GGSL
TXBWIC21030-16069-00504-70000060D0000120D0000000000TG1-3W    GGSL
TXBWIC21030-16069-00531-00000002D0000944D0000000000GCM-BDO   GGSL
TXBWIC21030-16069-00667-90000160D0003111D0030400096RHO-4US   GGSL
TXBWIC21030-18506-00000-00000525D0007289D01230000100111-5    GGSL
TXBWIC21030-18506-00010-30000078D0000556D0023900264010-6     GGSL
TXBWIC21030-18506-00021-90000066D0000918D0021000000021-6     GGSL
TXBWIC21030-18506-00102-50000084D0000325D0053400000102-12    GGSL
TXBWIC21030-18506-00110-50000663D0004291D0143000492110-12    GGSL
TXBWIC21030-18506-00116-20000555D0003543D0026100507116-12    GGSL
TXBWIC21030-18506-00117-90000225D0002156D0086400420117-6     GGSL
TXBWIC21030-18506-00125-40000120D0000550D0026400000125       GGSL
TXBWIC21030-18506-00130-80000072D0000399D0015600000130       GGSL
TXBWIC21030-18506-02000-20000012D0000096D00000000002000      GGSL
TXBWIC21030-18506-02001-90000012D0000155D00000000002001      GGSL
TXBWIC21030-22102-01010-70000005D0000195D000110000010N       GGSL
TXBWIC21030-22179-10034-30000066D0002130D0000000000lg 5137   GGSL
TXBWIC21030-22179-10035-00000129D0006671D0010000009LG4110    GGSL
TXBWIC21030-22179-10084-80000054D0000401D0005400084LG7220    GGSL
TXBWIC21030-22179-10090-90000018D0000524D0002100006LG4300    GGSL
TXBWIC21030-22179-10109-80000036D0000494D0000000000lg 5146   GGSL
TXBWIC21030-22179-10115-90000012D0000177D0000000000lg 5599   GGSL
TXBWIC21030-22179-10124-10000330D0001725D0075000048LG6515    GGSL
TXBWIC21030-22179-10139-50001725D0007116D0100500036LG1130    GGSL
TXBWIC21030-22179-10140-10000001D0000129D0008700000LG6520    GGSL
TXBWIC21030-22179-10150-00000188D0001969D00292007287115      GGSL
TXBWIC21030-22179-10151-70000136D0005427D00166000157117      GGSL
TXBWIC21030-22179-10185-20000087D0000939D0075000000LG6500    GGSL
TXBWIC21030-22179-10230-90000012D0000059D0000000000LG8800    GGSL
TXBWIC21030-22179-10246-00000216D0003329D0111001158LG6570    GGSL
TXBWIC21030-22179-10247-70000195D0004003D00311004557122      GGSL
TXBWIC21030-22179-10248-40000126D0001007D0073500036LG6575    GGSL
TXBWIC21030-22179-10258-30000012D0000339D0000000000LG6580    GGSL
TXBWIC21030-22179-10365-80000006D0000038D0000000006lg 7129   GGSL
TXBWIC21030-22179-10375-70000150D0001007D0000000012lg 6299   GGSL
TXBWIC21030-22179-10376-40000028D0000430D0000000004LG6292    GGSL
TXBWIC21030-22179-10390-00000024D0000192D0004200312LG6332    GGSL
TXBWIC21030-22179-10395-50000060D0001728D0005000007LG6356    GGSL
TXBWIC21030-22179-10399-30000012D0000065D0020400432LG7198    GGSL
TXBWIC21030-22179-10408-20000141D0001099D0042000855LG 6338   GGSL
TXBWIC21030-22179-10417-40000008D0000719D0000400000lg6142    GGSL
TXBWIC21030-22179-10429-70000060D0000858D0020400624LG6334    GGSL
TXBWIC21030-22179-10454-90000063D0000643D0008700192lg 3303   GGSL
TXBWIC21030-22179-10458-70000120D0001101D0017700000lg 3234   GGSL
TXBWIC21030-22179-10517-10000006D0000115D0000000000lg 3176   GGSL
TXBWIC21030-22179-10520-10000012D0000095D0001200000lg 6542   GGSL
TXBWIC21030-22179-10529-40000020D0000141D0020000550lg 7350   GGSL
TXBWIC21030-22401-00115-80000113D0004982D0003800004MDC-15    GGSL
TXBWIC21030-22401-00301-50000006D0000066D0000000000THD-20    GGSL
TXBWIC21030-22401-00380-10000048D0000648D0039200452NDETC-20MCGGSL
TXBWIC21030-22401-00381-70000016D0000216D0000000228NDETC-2OLBGGSL
TXBWIC21030-22401-00510-10000150D0000841D0020000000SK-B      GGSL
TXBWIC21030-22401-10088-20000066D0001750D0000500004EAR-60    GGSL
TXBWIC21030-23626-00605-80002008D0019744D0665200360116334    GGSL
TXBWIC21030-23626-00615-70001590D0015337D0976000088116336    GGSL
TXBWIC21030-23626-00630-00000844D0010044D0230700132116341    GGSL
TXBWIC21030-23626-00650-80000084D0000260D0027000000000600    GGSL
TXBWIC21030-23626-01710-80000252D0001214D0065700000000800    GGSL
TXBWIC21030-23626-01720-70000228D0001440D0064800006000900    GGSL
TXBWIC21030-23626-02830-20000002D0000091D0002600000116841    GGSL
TXBWIC21030-23626-07002-80000004D0000123D0000000000112825    GGSL
TXBWIC21030-23883-00001-10000397D0006516D0064500036G362      GGSL
TXBWIC21030-23883-00002-80000324D0001291D0039900048G385      GGSL
TXBWIC21030-23883-00003-50000645D0002466D0055800183G390      GGSL
TXBWIC21030-23883-01002-70000132D0001143D00453001921002      GGSL
TXBWIC21030-23883-01280-90000020D0001128D00000000001280.0    GGSL
TXBWIC21030-23883-05000-90000027D0000225D00148000005000      GGSL
TXBWIC21030-23883-08620-60000008D0001390D00001000008620B     GGSL
TXBWIC21030-23883-15710-40008430D0054323D011510156715710     GGSL
TXBWIC21030-23883-20020-60000003D0000048D000000000020002     GGSL
TXBWIC21030-23883-21210-00000010D0000443D001200000121210XP   GGSL
TXBWIC21030-23883-21220-90000003D0000168D000000000021220XP   GGSL
TXBWIC21030-23883-26011-80000137D0003730D002610000326011XP   GGSL
TXBWIC21030-23883-26021-70000301D0007885D014360044626021XP   GGSL
TXBWIC21030-23883-26031-60000041D0001666D002680000126031XP   GGSL
TXBWIC21030-23883-27010-00000068D0001430D002150000727010     GGSL
TXBWIC21030-23883-27020-90000236D0005120D008630001727020     GGSL
TXBWIC21030-23883-27030-80000106D0002717D002730000127030     GGSL
TXBWIC21030-23883-60100-30000183D0008763D007560011460100     GGSL
TXBWIC21030-23883-63924-20000040D0006524D000200000563924     GGSL
TXBWIC21030-23883-66000-00000006D0000033D00000000006-6000    GGSL
TXBWIC21030-23883-68061-90000009D0000256D00006000006-8061    GGSL
TXBWIC21030-23883-68180-70000006D0000067D00000000006-8180    GGSL
TXBWIC21030-23883-68238-50000008D0000340D00000000006-8238    GGSL
TXBWIC21030-23883-80000-00000044D0001540D00000000398000A     GGSL
TXBWIC21030-23883-81000-90000005D0000502D000000000181000A    GGSL
TXBWIC21030-23883-84000-60000315D0017518D00000001028701B     GGSL
TXBWIC21030-23883-97100-70000008D0004259D000270000397100     GGSL
TXBWIC21030-23883-97361-20000005D0000834D000090000097361     GGSL
TXBWIC21030-23883-97561-60000004D0000809D000120000197561     GGSL
TXBWIC21030-24654-05102-70000066D0000304D00000000005102-6    GGSL
TXBWIC21030-24654-05922-10000012D0000138D00000000005926      GGSL
TXBWIC21030-24654-05931-30000001D0000239D00000000005935-DS   GGSL
TXBWIC21030-24654-05962-70000054D0000624D00060000005962      GGSL
TXBWIC21030-24654-09334-80000080D0002060D00000000009334      GGSL
TXBWIC21030-24654-51806-30000006D0000029D00000000305180-6    GGSL
TXBWIC21030-24654-55110-70000354D0001808D00198000185110-6    GGSL
TXBWIC21030-24654-55118-30000204D0001403D01231001385118.0    GGSL
TXBWIC21030-24654-65452-50000024D0000119D00000000005452-6    GGSL
TXBWIC21030-25033-12013-60000055C0000119C000030000012013     GGSL
TXBWIC21030-25033-40355-00000002D0000028D000070000040355     GGSL
TXBWIC21030-25845-12346-20000072D0000092D000000000024950     GGSL
TXBWIC21030-25845-12354-70000024D0000032D000960007224951     GGSL
TXBWIC21030-26455-91350-40000018D0000964D0002300011          GGSL
TXBWIC21030-26978-30104-80000013D0000347D000000000030104     GGSL
TXBWIC21030-26978-30301-10000854D0004135D027400036030301     GGSL
TXBWIC21030-26978-38198-90000048D0000539D000000000038198     GGSL
TXBWIC21030-28009-11225-80006587D0035955D01745008941225.0    GGSL
TXBWIC21030-28009-11227-20000384D0000922D00018000181227.0    GGSL
TXBWIC21030-28009-11250-00017317D0144041D05075018161250.0    GGSL
TXBWIC21030-28009-11420-70002092D0010005D00130000331420P     GGSL
TXBWIC21030-28009-11438-20000720D0016218D00000000001438      GGSL
TXBWIC21030-28009-11440-50002442D0018270D01282005861440P     GGSL
TXBWIC21030-28009-11460-30000040D0000544D00000000001460      GGSL
TXBWIC21030-28009-11465-80000006D0000023D00312000001465      GGSL
TXBWIC21030-28009-11550-10000750D0004095D00000000001550P     GGSL
TXBWIC21030-28009-11622-50000050D0000537D00000000001622      GGSL
TXBWIC21030-28009-11640-90000420D0002169D00000007201640      GGSL
TXBWIC21030-28009-11925-70000130D0001106D00065000651925      GGSL
TXBWIC21030-28009-15240-70001662D0008907D01165000815240.0    GGSL
TXBWIC21030-28009-15440-10000060D0000330D00060000005440.0    GGSL
TXBWIC21030-28009-15440-30001020D0007356D00120000001840      GGSL
TXBWIC21030-28009-15450-00000108D0000769D00351000105450.0    GGSL
TXBWIC21030-28009-15540-80006110D0019835D02479002805540.0    GGSL
TXBWIC21030-28009-15720-40001292D0003562D00000000005720.0    GGSL
TXBWIC21030-28009-15740-20003270D0015360D00388002255740.0    GGSL
TXBWIC21030-30541-00067-20000024D0000242D0006600000JCD-100FGPGGSL
TXBWIC21030-30541-00110-50000006D0000117D0000600000JCD-08ER  GGSL
TXBWIC21030-30541-00801-20000003D0000158D0000000000JCD-08BKSMGGSL
TXBWIC21030-30541-01020-60000216D0000483D0050400000JCD-024SM GGSL
TXBWIC21030-30541-01030-50000042D0000371D0016200006JCD-100SMJGGSL
TXBWIC21030-30541-01034-30000010D0000221D0008600002JCD-030SM GGSL
TXBWIC21030-30541-09982-90002122C0000221C0105600000JCD-TPP03 GGSL
TXBWIC21030-30641-09801-20000175D0000363D0000000025SWPDQ     GGSL
TXBWIC21030-30641-32937-60000234D0000419D0000000036RPDQ      GGSL
TXBWIC21030-30641-33935-10000288D0000498D0000000018YPDQ      GGSL
TXBWIC21030-30641-35936-60000360D0000625D0001800036WPDQ      GGSL
TXBWIC21030-32247-00900-30000228D0000692D00864000121009001   GGSL
TXBWIC21030-32247-00910-20000030D0000094D00264000001009101   GGSL
TXBWIC21030-32247-00950-80000162D0000496D00174000001009501   GGSL
TXBWIC21030-32247-02515-70000040D0001216D00000000002515      GGSL
TXBWIC21030-32247-03115-80000047D0002669D000370000031115     GGSL
TXBWIC21030-32247-03313-80000384D0009454D00654000203313B     GGSL
TXBWIC21030-32247-03594-10002423D0014121D005290000070359430  GGSL
TXBWIC21030-32247-05514-70025699D0093488D055720033670551430  GGSL
TXBWIC21030-32247-10500-20000696D0005697D0076200372110500    GGSL
TXBWIC21030-32247-11307-60012582D0023980D040350015271130756  GGSL
TXBWIC21030-32247-14901-30000008D0000125D000080000014901     GGSL
TXBWIC21030-32247-14902-00000008D0000125D000600000014902     GGSL
TXBWIC21030-32247-14905-10000899D0006329D000320000014905     GGSL
TXBWIC21030-32247-15307-20000856D0001696D003740000071530751  GGSL
TXBWIC21030-32247-17183-00001266D0010222D000540000017183     GGSL
TXBWIC21030-32247-17185-40001244D0022890D000320000417185     GGSL
TXBWIC21030-32247-17187-80000952D0042165D000030000217187     GGSL
TXBWIC21030-32247-17290-50001854D0016498D000540000017290     GGSL
TXBWIC21030-32247-17293-60001008D0008632D000240000017293     GGSL
TXBWIC21030-32247-17295-00000248D0005004D000120000017295     GGSL
TXBWIC21030-32247-17323-00000462D0003688D001140000017323     GGSL
TXBWIC21030-32247-17325-40000316D0005318D000280000017325     GGSL
TXBWIC21030-32247-17327-80000355D0012543D000380000017327     GGSL
TXBWIC21030-32247-17424-40000012D0000279D000040000017519     GGSL
TXBWIC21030-32247-17488-60000016D0000372D000040000017590     GGSL
TXBWIC21030-32247-17508-10000018D0000237D000840000017508     GGSL
TXBWIC21030-32247-17511-10000018D0000210D000360000017511     GGSL
TXBWIC21030-32247-17582-10000072D0000828D000060000017582     GGSL
TXBWIC21030-32247-18001-60000060D0001408D000000000018001     GGSL
TXBWIC21030-32247-18213-30000016D0000520D000280000018213     GGSL
TXBWIC21030-32247-18221-80000004D0000082D000920000018221     GGSL
TXBWIC21030-32247-18222-50000016D0000472D000120000018222     GGSL
TXBWIC21030-32247-18225-60000078D0000825D002160000018225     GGSL
TXBWIC21030-32247-18251-50000004D0000116D000520000018251     GGSL
TXBWIC21030-32247-18260-70000018D0000174D000120000018260     GGSL
TXBWIC21030-32247-18266-90000270D0002771D000840000018266     GGSL
TXBWIC21030-32247-18269-00000008D0000202D000040000018269     GGSL
TXBWIC21030-32247-18296-60000018D0000195D000060000018296     GGSL
TXBWIC21030-32247-18302-40000008D0000166D000280000018302     GGSL
TXBWIC21030-32247-18320-80000048D0000433D000540000018320     GGSL
TXBWIC21030-32247-18338-30000012D0000112D000000000018338     GGSL
TXBWIC21030-32247-18341-30000004D0000081D000000000018341     GGSL
TXBWIC21030-32247-18345-10000006D0000069D000000000018345     GGSL
TXBWIC21030-32247-18346-80000008D0000138D000560000018346     GGSL
TXBWIC21030-32247-18348-20000072D0000996D000600000018348     GGSL
TXBWIC21030-32247-18350-50001260D0007657D017100000018350     GGSL
TXBWIC21030-32247-18353-60001212D0026231D003660002418353     GGSL
TXBWIC21030-32247-18354-30000042D0000492D000360000018354     GGSL
TXBWIC21030-32247-18362-80000486D0015611D000000000018362     GGSL
TXBWIC21030-32247-18365-90000006D0000160D000060000018365     GGSL
TXBWIC21030-32247-19594-20000628D0004224D000750000071959430  GGSL
TXBWIC21030-32247-20784-30002854D0008742D038160009672078430  GGSL
TXBWIC21030-32247-20814-70000068D0002732D000200000021814     GGSL
TXBWIC21030-32247-21030-00000001D0000026D002330000021030A    GGSL
TXBWIC21030-32247-21605-00000554D0009361D000970001021605     GGSL
TXBWIC21030-32247-21701-90000204D0001538D000120000021701     GGSL
TXBWIC21030-32247-22305-80000141D0002049D001210003822305     GGSL
TXBWIC21030-32247-22315-70000038D0001249D000290000022315     GGSL
TXBWIC21030-32247-23001-80000046D0001186D000060000023001     GGSL
TXBWIC21030-32247-23002-50001696C0001186C002040000023002     GGSL
TXBWIC21030-32247-23405-40001107D0013882D002710000023405B    GGSL
TXBWIC21030-32247-23415-30000181D0006741D000240000023415     GGSL
TXBWIC21030-32247-25006-10002162D0039113D007860009725006A    GGSL
TXBWIC21030-32247-25009-20000182D0009449D001430000025009     GGSL
TXBWIC21030-32247-26003-90001275D0029395D000740001026003D    GGSL
TXBWIC21030-32247-26007-70000397D0009460D003030000026007B    GGSL
TXBWIC21030-32247-26784-70000198D0000638D014340012672678430  GGSL
TXBWIC21030-32247-27764-80000064D0000216D000000000072776430  GGSL
TXBWIC21030-32247-27791-40000480D0000878D000000000072779180  GGSL
TXBWIC21030-32247-30073-50000613D0009273D000000000030073     GGSL
TXBWIC21030-32247-30156-50001076D0015697D000080000030156     GGSL
TXBWIC21030-32247-30177-00000108D0010132D000230000530177     GGSL
TXBWIC21030-32247-33020-60000082D0003940D000880000033020     GGSL
TXBWIC21030-32247-33050-30000040D0001216D000000000033050     GGSL
TXBWIC21030-32247-34161- 0000003D0000145D000010000034161     GGSL
TXBWIC21030-32247-35594-00001162D0006779D000330000073559430  GGSL
TXBWIC21030-32247-35605-30000201D0003897D002000000044615A    GGSL
TXBWIC21030-32247-37594-80006641D0034151D022830025973759430  GGSL
TXBWIC21030-32247-37610-50000092D0002989D008070008237610A    GGSL
TXBWIC21030-32247-39594-60025294D0157542D023710005073959430  GGSL
TXBWIC21030-32247-39605-90001089D0016476D000000000039605     GGSL
TXBWIC21030-32247-39615-80000570D0022889D000240000039615     GGSL
TXBWIC21030-32247-42784-50001884D0005608D007140009074278430  GGSL
TXBWIC21030-32247-43750-90000020D0000309D00004000004375010   GGSL
TXBWIC21030-32247-43850-60001836D0036126D00072000164385010   GGSL
TXBWIC21030-32247-43854-40000116D0001058D00048000004385404   GGSL
TXBWIC21030-32247-43860-50000232D0003956D00008000004386004   GGSL
TXBWIC21030-32247-45651-70000672D0005330D000670000045651300  GGSL
TXBWIC21030-32247-47783-30000252D0000858D003780003074778300  GGSL
TXBWIC21030-32247-49019-10000141D0001717D000280000549019     GGSL
TXBWIC21030-32247-49024-50000015D0000182D000350000049024     GGSL
TXBWIC21030-32247-49785-50001158D0003714D010020013274978500  GGSL
TXBWIC21030-32247-50084-50000006D0000093D00048000005008410   GGSL
TXBWIC21030-32247-50086-90000042D0000679D00042000065008610   GGSL
TXBWIC21030-32247-50087-60000630D0009812D00060000005008710   GGSL
TXBWIC21030-32247-50088-30000174D0002702D00072000005008810   GGSL
TXBWIC21030-32247-50089-00002268D0036953D00068000005008910   GGSL
TXBWIC21030-32247-50090-60000036D0000555D00000000005009010   GGSL
TXBWIC21030-32247-50154-50000412D0002611D001010006645015430  GGSL
TXBWIC21030-32247-50524-60028617D0177347D091810067575052430  GGSL
TXBWIC21030-32247-51105-60002219D0024657D007340001551105     GGSL
TXBWIC21030-32247-51115-50001175D0036587D001350000051115     GGSL
TXBWIC21030-32247-52524-40000240D0002172D001920004885252430  GGSL
TXBWIC21030-32247-52784-20002052D0005952D016260001885278430  GGSL
TXBWIC21030-32247-53105-40002239D0018281D002390001653105     GGSL
TXBWIC21030-32247-53115-30000475D0010492D001590000053115     GGSL
TXBWIC21030-32247-55513-50005929D0043356D019650000075551300  GGSL
TXBWIC21030-32247-55523-40005212D0060633D027550030775552300  GGSL
TXBWIC21030-32247-55783-20000408D0001805D027900000075578300  GGSL
TXBWIC21030-32247-55863-10000210D0001273D005340000375586300  GGSL
TXBWIC21030-32247-56063-40000488D0001831D001760000045606300  GGSL
TXBWIC21030-32247-56163-10000182D0001088D000000000045616300  GGSL
TXBWIC21030-32247-56513-40042119D0261981D109500094275651300  GGSL
TXBWIC21030-32247-56523-30053370D0547799D170150152275652300  GGSL
TXBWIC21030-32247-56783-10000089D0034909D000050000075678309  GGSL
TXBWIC21030-32247-56788-60005016D0018306D070980009675678300  GGSL
TXBWIC21030-32247-56863-00002939D0016538D021210004475686300  GGSL
TXBWIC21030-32247-57905-60000600D0005946D000000000057905     GGSL
TXBWIC21030-32247-60594-60002909D0017275D005260005076059430  GGSL
TXBWIC21030-32247-71060-20001361D0015521D011950008471060     GGSL
TXBWIC21030-32247-71131-90000349D0006125D004140000171131     GGSL
TXBWIC21030-32247-74150-70002556D0011780D0463200894274150    GGSL
TXBWIC21030-32247-74250-40001892D0014488D0231500708274250    GGSL
TXBWIC21030-32247-74395-20000518D0003707D000280000043959430  GGSL
TXBWIC21030-32247-74850-60000868D0014518D0187800308274850    GGSL
TXBWIC21030-32247-75902-10000084D0006003D000260000275902     GGSL
TXBWIC21030-32247-76121-50000650D0020080D005910006676121     GGSL
TXBWIC21030-32247-76232-80000198D0010771D001050000076232     GGSL
TXBWIC21030-32247-76565-70000027D0001310D000330000076565     GGSL
TXBWIC21030-32247-77160-30001734D0007652D0395400876277160    GGSL
TXBWIC21030-32247-77260-00001950D0017182D0591000636277260    GGSL
TXBWIC21030-32247-77960-90000788D0014243D0336400332277960    GGSL
TXBWIC21030-32247-84526-70000120D0000386D000000000088452600  GGSL
TXBWIC21030-32247-85526-60000120D0000386D001200000088552600  GGSL
TXBWIC21030-32247-86526-50000240D0000773D002400000088652600  GGSL
TXBWIC21030-32247-95517-10000900D0003195D003670000079551750  GGSL
TXBWIC21030-32247-95597-30000048D0000205D000000000079559750  GGSL
TXBWIC21030-32247-99605-10001151D0020266D002460000099605     GGSL
TXBWIC21030-32903-00169-30000312D0000363D0031200000SLI06000E3GGSL
TXBWIC21030-32903-00188-40000006D0000082D0000000000TEA17000A3GGSL
TXBWIC21030-32903-00309-30000360D0000734D0064800000SLI10000E3GGSL
TXBWIC21030-32903-00341-30000090D0000629D0010800024SLI24000E3GGSL
TXBWIC21030-32903-00359-80000216D0000315D0026400000SLI08000E3GGSL
TXBWIC21030-32903-12006-60000360D0000625D0069600048LIA06000E3GGSL
TXBWIC21030-32903-12008-00000312D0000799D0091200168LIA08000E3GGSL
TXBWIC21030-32903-12010-30000456D0001812D0096000036LIA10000E3GGSL
TXBWIC21030-32903-12012-70000276D0001710D0044400048LIA12000E3GGSL
TXBWIC21030-32903-12014-10000216D0001693D0000000000LIA14000E3GGSL
TXBWIC21030-32903-12017-20000240D0002997D0030000084LIA16000E3GGSL
TXBWIC21030-32903-12020-20000120D0001953D0012000030LIA20000E3GGSL
TXBWIC21030-32903-12024-00000066D0001500D0004800018LIA24000E3GGSL
TXBWIC21030-32903-12312-80000012D0000034D0001200000CNA12000E3GGSL
TXBWIC21030-32903-12318-00000054D0000186D0012600000SVN18000E3GGSL
TXBWIC21030-32903-12324-10000042D0000152D0011400000SVN24000E3GGSL
TXBWIC21030-32903-12712-60000012D0000057D0000000000GAB12000E3GGSL
TXBWIC21030-32903-12714-00000216D0001312D0004800060GAB14000E3GGSL
TXBWIC21030-32903-12718-80000084D0000732D0003000060GAB18000E3GGSL
TXBWIC21030-32903-12722-50000030D0000433D0000000036GAB22000E3GGSL
TXBWIC21030-32903-12818-50000166D0001009D0007200078VNP18000E3GGSL
TXBWIC21030-32903-12824-60000132D0000898D0009000060VNP24000E3GGSL
TXBWIC21030-32903-50763-80000240D0000796D0043200000SLI12000E3GGSL
TXBWIC21030-32903-50802-40000168D0000616D0043800000SLI14000E3GGSL
TXBWIC21030-32903-58838-50000012D0000352D0000000000TEA24000G1GGSL
TXBWIC21030-32903-72518-60000184D0001457D0005600032RZ.WC2G0B9GGSL
TXBWIC21030-32903-75049-20000090D0000551D0010800000SLI20000E3GGSL
TXBWIC21030-32903-75050-80000004D0000097D0000000000TEA20000A3GGSL
TXBWIC21030-32903-75076-80000004D0000245D0000000000TES24000G2GGSL
TXBWIC21030-32903-75080-50000216D0000902D0033600000SLI17000E3GGSL
TXBWIC21030-32903-91319-40000012D0000160D0000000000TEA17000G1GGSL
TXBWIC21030-32903-91324-80000004D0000245D0000000000TES24000G1GGSL
TXBWIC21030-32903-91484-90000011C0000245C0000000000SPX24DB0E3GGSL
TXBWIC21030-33607-00001-50000076D0002065D0011600004GBA-1     GGSL
TXBWIC21030-33607-00953-40000032D0000796D0016400024SP-33     GGSL
TXBWIC21030-33745-97185-40000067D0001641D002060000097185     GGSL
TXBWIC21030-34411-74501-40000066D0001386D0004200000874501-100GGSL
TXBWIC21030-35307-00816-90000024D0000037D0000000000816       GGSL
TXBWIC21030-35307-00818-30000012D0000018D0000000000818       GGSL
TXBWIC21030-35307-00820-60000336D0000469D0028800372820       GGSL
TXBWIC21030-35307-00826-80000240D0000380D0026400324826       GGSL
TXBWIC21030-35307-00835-00000012D0000058D0001200012835       GGSL
TXBWIC21030-35307-00839-80000012D0000036D0000000000839       GGSL
TXBWIC21030-35307-00841-10000012D0000021D0000000000841       GGSL
TXBWIC21030-35307-00844-20000072D0000144D0008400012844       GGSL
TXBWIC21030-35307-00846-30000096D0000285D0002400012846       GGSL
TXBWIC21030-35307-00848-00000084D0000143D0009600000848       GGSL
TXBWIC21030-35307-00861-90000156D0000346D0009600252861       GGSL
TXBWIC21030-35307-00862-60000048D0000111D0001200000862       GGSL
TXBWIC21030-35307-00874-90000468D0000636D0025200084874       GGSL
TXBWIC21030-35307-01601-00000258D0003149D00132000061601      GGSL
TXBWIC21030-35307-01609-60000288D0001018D00000002521609CS    GGSL
TXBWIC21030-35307-01618-80000054D0000309D00042000061618      GGSL
TXBWIC21030-35307-01635-50000006D0000094D00024000001635      GGSL
TXBWIC21030-35307-01810-60000636D0002874D00104000431810      GGSL
TXBWIC21030-35307-01815-10000327D0002023D00323000051815      GGSL
TXBWIC21030-35307-01818-20000006D0000058D00000000001818-6    GGSL
TXBWIC21030-35307-01820-50000084D0000946D00090000061820      GGSL
TXBWIC21030-35307-01825-00000300D0002547D00132006601825      GGSL
TXBWIC21030-35307-01840-30000132D0002049D00120000121840      GGSL
TXBWIC21030-35307-01880-90000003D0000080D00000000001880      GGSL
TXBWIC21030-36348-00610-70000204D0001008D00198000000610      GGSL
TXBWIC21030-36348-00645-90000044D0000590D0028300002645       GGSL
TXBWIC21030-36348-00745-60000015D0000334D00113000080745      GGSL
TXBWIC21030-36348-01020-30000014D0000211D00009000061020      GGSL
TXBWIC21030-36348-01045-60000003D0000165D00002000091045      GGSL
TXBWIC21030-36348-01078-40000005D0000176D00109000061078      GGSL
TXBWIC21030-36348-01079-10000020D0000944D00257000121079      GGSL
TXBWIC21030-36348-01085-20000009D0000484D00017000001085      GGSL
TXBWIC21030-36348-13769-60000006D0000015D0000000000M137      GGSL
TXBWIC21030-36434-00000-00000444D0022890D008040016410-12420  GGSL
TXBWIC21030-36434-10000-00000024D0000229D00108001801014510   GGSL
TXBWIC21030-36434-10012-20000096D0001256D000120000010-10012  GGSL
TXBWIC21030-36434-11000-80000300D0003052D010570003260-11000  GGSL
TXBWIC21030-36434-12342-80000052D0000320D002640004160-12342  GGSL
TXBWIC21030-36434-12343-50000021D0000185D003460001260-12343  GGSL
TXBWIC21030-36434-12345-90000216D0002192D000240100810-12345  GGSL
TXBWIC21030-36434-12346-60000348D0001689D011830008360-12346  GGSL
TXBWIC21030-36434-12348-00000040D0000369D000000000810-12348  GGSL
TXBWIC21030-36434-12349-70000070D0000298D001600001660-12349  GGSL
TXBWIC21030-36434-12353-40000277D0004828D014310005960-12353  GGSL
TXBWIC21030-36434-12354-10000059D0000399D001180001610-12354  GGSL
TXBWIC21030-36434-12355-80000164D0001201D005030001910-12355  GGSL
TXBWIC21030-36434-12356-50000166D0001343D005900004010-12356  GGSL
TXBWIC21030-36434-12357-20000086D0000707D001760002510-12357  GGSL
TXBWIC21030-36434-12700-60000240D0001659D000000058810-12700  GGSL
TXBWIC21030-36434-12701-30000042D0000284D000000000060-12701  GGSL
TXBWIC21030-36434-12702-00000030D0000203D000000000060-12702  GGSL
TXBWIC21030-36434-12703-70000030D0000203D000000000060-12703  GGSL
TXBWIC21030-36434-12706-80000030D0000203D000000000060-12706  GGSL
TXBWIC21030-36434-12710-50000156D0001065D001200001210-12710  GGSL
TXBWIC21030-36434-12720-40000108D0000677D001800000010-12720  GGSL
TXBWIC21030-36434-12726-60000030D0000159D000000000060-12726  GGSL
TXBWIC21030-36434-12733-40000024D0000204D000000000060-12733  GGSL
TXBWIC21030-36434-12736-50000024D0000204D000000000060-12736  GGSL
TXBWIC21030-36434-13600-50000120D0001970D003480058810-13600  GGSL
TXBWIC21030-36434-13610-20000084D0001160D002280062410-13610  GGSL
TXBWIC21030-36434-14800-80000322D0005360D003720006010-14800  GGSL
TXBWIC21030-36434-14860-20000228D0003106D000360003610-14860  GGSL
TXBWIC21030-36434-15004-20000012D0000346D000000000010-15004  GGSL
TXBWIC21030-36434-15024-00000012D0000187D000000000010-15024  GGSL
TXBWIC21030-36434-15050-90000126D0001977D002520000010-15050  GGSL
TXBWIC21030-36434-15054-70000012D0000161D000000000010-15054  GGSL
TXBWIC21030-36434-15065-30000012D0000161D00000000001015065   GGSL
TXBWIC21030-36434-15075-20000012D0000142D00000000001015075   GGSL
TXBWIC21030-36434-15080-30000018D0000350D000720000010-15080  GGSL
TXBWIC21030-36434-17000-20000024D0000928D000000004870-17000  GGSL
TXBWIC21030-36434-22310-40000006D0000030D00000000006022310   GGSL
TXBWIC21030-36434-22317-30000006D0000043D00000000006022317   GGSL
TXBWIC21030-36434-22318-00000291D0001266D011490002860-22318  GGSL
TXBWIC21030-36434-22341-80000011D0000121D000720002410-22341  GGSL
TXBWIC21030-36434-22626-60000156D0001855D004770001360-22626  GGSL
TXBWIC21030-36434-22731-70000089D0000869D004050001260-22731  GGSL
TXBWIC21030-36434-22732-40000106D0001356D007900000060-22732  GGSL
TXBWIC21030-36434-28010-70000756D0005606D001080045610-28010  GGSL
TXBWIC21030-36434-28020-60000360D0002608D001800002410-28020  GGSL
TXBWIC21030-36434-32700-00001149D0008380D006740009610-32700  GGSL
TXBWIC21030-36434-34500-10000264D0002380D007560039610-34500  GGSL
TXBWIC21030-36434-65095-50000002D0002128D000000000065095     GGSL
TXBWIC21030-36434-82342-70000045D0000628D003430000060-82342  GGSL
TXBWIC21030-36865-12250-20013380D0025969D040800078071140180  GGSL
TXBWIC21030-36865-12292-20001260D0003458D000000012086752180  GGSL
TXBWIC21030-36865-14511-20003000D0006152D011400024071451180  GGSL
TXBWIC21030-36865-24511-90002340D0007232D019200000072451180  GGSL
TXBWIC21030-36865-45220-30000540D0001350D000000000088452205  GGSL
TXBWIC21030-36865-52965-30000480D0001075D000000000087852965  GGSL
TXBWIC21030-36865-65220-70001620D0004050D000000000088652205  GGSL
TXBWIC21030-36865-71751-70000420D0000756D000000000071751180  GGSL
TXBWIC21030-37321-00022-80002857D0016913D0665302724022       GGSL
TXBWIC21030-37321-00023-50000068D0001105D0000000016023       GGSL
TXBWIC21030-37321-00024-20001491D0016225D0231001539024       GGSL
TXBWIC21030-37321-00040-20000012D0000123D0000000000040       GGSL
TXBWIC21030-37321-00051-80000036D0000376D0000000000051       GGSL
TXBWIC21030-37321-00061-70000012D0000082D0000000288061       GGSL
TXBWIC21030-37321-00067-90000006D0000055D0000000000          GGSL
TXBWIC21030-37321-00068-60000123D0000561D0052200648068       GGSL
TXBWIC21030-37321-00069-30000507D0005828D0142500336069       GGSL
TXBWIC21030-37321-00070-90000243D0003276D0068100360070       GGSL
TXBWIC21030-37321-00098-30000015D0000061D0000000000098       GGSL
TXBWIC21030-37321-00102-70000036D0000382D0000000012102       GGSL
TXBWIC21030-37321-00105-80000096D0000256D0020400624105       GGSL
TXBWIC21030-37321-00106-50000156D0000421D0006000456106       GGSL
TXBWIC21030-37321-00107-20000168D0000435D0030000672107       GGSL
TXBWIC21030-37321-00108-90000240D0000594D0031200972108       GGSL
TXBWIC21030-37321-00120-10000012D0000061D0000000000120       GGSL
TXBWIC21030-37321-00123-20000123D0000441D0003600000123       GGSL
TXBWIC21030-37321-00127-00000183D0001376D0026400276127       GGSL
TXBWIC21030-37321-00141-60000012D0000046D0000000144141       GGSL
TXBWIC21030-37321-00148-50000012D0000118D0000000564148       GGSL
TXBWIC21030-37321-00150-80000315D0004448D0089402712150       GGSL
TXBWIC21030-37321-00166-90000111D0000591D0014400000166       GGSL
TXBWIC21030-37321-00167-60000012D0000070D0000000000167       GGSL
TXBWIC21030-37321-00171-30000012D0000101D0016800000171       GGSL
TXBWIC21030-37321-00196-60000012D0000061D0004800000196       GGSL
TXBWIC21030-37321-00202-40001404D0013821D0272700024202       GGSL
TXBWIC21030-37321-00203-10000596D0008283D0090600000203       GGSL
TXBWIC21030-37321-00210-90000327D0001830D0117600012210       GGSL
TXBWIC21030-37321-00211-60000567D0004175D0267900039211       GGSL
TXBWIC21030-37321-00213-00000510D0004747D0131700744213       GGSL
TXBWIC21030-37321-00214-70000372D0001825D0049800864214       GGSL
TXBWIC21030-37321-00216-10000060D0000825D0009600288216       GGSL
TXBWIC21030-37321-00217-80000024D0000238D0009600000217       GGSL
TXBWIC21030-37321-00225-30000144D0000714D0028800000225       GGSL
TXBWIC21030-37321-00237-60000012D0000143D0000000012237       GGSL
TXBWIC21030-37321-00238-30000180D0001410D0028500312238       GGSL
TXBWIC21030-37321-00239-00000008D0000161D0002800000239       GGSL
TXBWIC21030-37321-00240-60000012D0000179D0003600012240       GGSL
TXBWIC21030-37321-00250-50000591D0002317D0162602520250       GGSL
TXBWIC21030-37321-00252-90000264D0002994D0153600000252       GGSL
TXBWIC21030-37321-00253-60000126D0002029D0040800000253       GGSL
TXBWIC21030-37321-00255-00000048D0000849D0216900708255       GGSL
TXBWIC21030-37321-00257-40000099D0000363D0021900408257       GGSL
TXBWIC21030-37321-00274-10000900D0005081D0162600720274       GGSL
TXBWIC21030-37321-00299-40000024D0000188D0000000000299       GGSL
TXBWIC21030-37321-00301-40000012D0000089D0000000000301       GGSL
TXBWIC21030-37321-00307-60000207D0000807D0028800648307       GGSL
TXBWIC21030-37321-00309-00000204D0003209D0016800234309       GGSL
TXBWIC21030-37321-00310-50000006D0000171D0001800018310       GGSL
TXBWIC21030-37321-00312-00000012D0000207D0000000000312       GGSL
TXBWIC21030-37321-00330-40000078D0000672D0109800000330       GGSL
TXBWIC21030-37321-00331-10000195D0002736D0113700012331       GGSL
TXBWIC21030-37321-00376-20000012D0000206D0014400000376       GGSL
TXBWIC21030-37321-00411-00000036D0000107D0005700108411       GGSL
TXBWIC21030-37321-00412-70000024D0000122D0010800009412       GGSL
TXBWIC21030-37321-00420-20000026D0001278D0032000120420       GGSL
TXBWIC21030-37321-00426-40000129D0001265D0069600744426       GGSL
TXBWIC21030-37321-00428-80000878D0003023D0066000732428       GGSL
TXBWIC21030-37321-00429-50000015D0000246D0012600081429       GGSL
TXBWIC21030-37321-00442-40000066D0000409D0046200000442       GGSL
TXBWIC21030-37321-00443-10000252D0002681D0040800036443       GGSL
TXBWIC21030-37321-00506-30000063D0000268D0020400180506       GGSL
TXBWIC21030-37321-00543-80000237D0000750D0075000012543       GGSL
TXBWIC21030-37321-00544-50000063D0000350D0021600000544       GGSL
TXBWIC21030-37321-00552-00000012D0000193D0026400000552       GGSL
TXBWIC21030-37321-00553-70000018D0000538D0041400006553       GGSL
TXBWIC21030-37321-00560-50000222D0000988D0148200024560       GGSL
TXBWIC21030-37321-00564-30000072D0000680D0019200480564       GGSL
TXBWIC21030-37321-00571-10000084D0000639D0012000000571       GGSL
TXBWIC21030-37321-00573-50000084D0000357D0110400000573       GGSL
TXBWIC21030-37321-00577-30000040D0000390D0034800000574       GGSL
TXBWIC21030-37321-00603-90000043D0000463D0012000010603       GGSL
TXBWIC21030-37321-00609-10000096D0000917D0016800012609       GGSL
TXBWIC21030-37321-00611-40000086D0004310D0008200086611       GGSL
TXBWIC21030-37321-00622-00000012D0000034D0000000000622       GGSL
TXBWIC21030-37321-00629-90000048D0000160D0120000000629       GGSL
TXBWIC21030-37321-00631-20004660D0012914D2821901356631       GGSL
TXBWIC21030-37321-00652-70000084D0000420D0075600000652       GGSL
TXBWIC21030-37321-00655-80000228D0001340D00336008466556      GGSL
TXBWIC21030-37321-00680-00000192D0001536D0068700252680       GGSL
TXBWIC21030-37321-00683-10000012D0000096D0000000000683       GGSL
TXBWIC21030-37321-00685-50000141D0001546D0140400156685       GGSL
TXBWIC21030-37321-00687-90000012D0000154D0006000000687       GGSL
TXBWIC21030-37321-00688-60000024D0000140D0007200000688       GGSL
TXBWIC21030-37321-00690-90000201D0002066D0061500012690       GGSL
TXBWIC21030-37321-00692-30001000D0010968D0177500167692150    GGSL
TXBWIC21030-37321-00698-50000072D0000341D0022800012698       GGSL
TXBWIC21030-37321-00728-90000048D0000588D0012000000728       GGSL
TXBWIC21030-37321-00752-40000006D0000038D0019200000752       GGSL
TXBWIC21030-37321-00754-80000004D0000108D0000000000754       GGSL
TXBWIC21030-37321-00758-60000020D0000186D0003600000758       GGSL
TXBWIC21030-37321-00771-50000078D0000409D0020100012771       GGSL
TXBWIC21030-37321-00775-30000936D0005152D0143701116775       GGSL
TXBWIC21030-37321-00777-70000024D0000212D0025500000777       GGSL
TXBWIC21030-37321-00779-10000048D0000355D0012600420779       GGSL
TXBWIC21030-37321-00784-50000234D0000652D0049200000784       GGSL
TXBWIC21030-37321-00786-90000642D0002687D0179400108786       GGSL
TXBWIC21030-37321-00789-00000116D0000848D0032001911791       GGSL
TXBWIC21030-37321-00803-30000060D0000547D0020400000803       GGSL
TXBWIC21030-37321-00806-40000024D0000166D0020400000806       GGSL
TXBWIC21030-37321-00811-80001692D0018802D0227100342811       GGSL
TXBWIC21030-37321-00813-20000624D0008427D0046500570813       GGSL
TXBWIC21030-37321-00814-90000042D0000958D0011400000814       GGSL
TXBWIC21030-37321-00857-60000336D0002863D0232800060857       GGSL
TXBWIC21030-37321-00858-30000072D0001017D0004800000858       GGSL
TXBWIC21030-37321-00862-00000321D0003743D0030000000862       GGSL
TXBWIC21030-37321-00863-70000018D0000222D0000900003863       GGSL
TXBWIC21030-37321-00866-80000012D0000064D0000000012865       GGSL
TXBWIC21030-37321-00870-50000132D0000870D0046800000870       GGSL
TXBWIC21030-37321-00875-00000199D0003587D0449700024875       GGSL
TXBWIC21030-37321-00880-40000174D0001955D0113100492880       GGSL
TXBWIC21030-37321-00883-50000171D0000792D0003000264883       GGSL
TXBWIC21030-37321-00892-70000540D0004752D0000001092892       GGSL
TXBWIC21030-37321-00897-20000048D0000276D0012000000897       GGSL
TXBWIC21030-37321-00917-70000024D0000257D0000000000917       GGSL
TXBWIC21030-37321-00925-20002947D0008250D0710300888925       GGSL
TXBWIC21030-37321-00939-90000057D0000568D0031500684939       GGSL
TXBWIC21030-37321-00941-20001371D0013289D0286300600941       GGSL
TXBWIC21030-37321-00947-40000048D0000381D0019200000947       GGSL
TXBWIC21030-37321-00951-10000405D0001579D0028500588951       GGSL
TXBWIC21030-37321-00952-80000012D0000051D0016800015952       GGSL
TXBWIC21030-37321-00963-40000012D0000110D0000000000963       GGSL
TXBWIC21030-37321-00987-00000246D0002279D0128400051987       GGSL
TXBWIC21030-37321-01972-50000024D0000090D00000000001972      GGSL
TXBWIC21030-37321-02360-90000186D0001257D00198000002360      GGSL
TXBWIC21030-37321-02361-60000882D0009805D01894004832361      GGSL
TXBWIC21030-37321-02761-40000006D0000117D00012000002761      GGSL
TXBWIC21030-37321-05121-30000012D0000063D00000000005121      GGSL
TXBWIC21030-37321-05612-60000099D0000923D00318000005612      GGSL
TXBWIC21030-37321-05710-90000036D0000213D00165000005710      GGSL
TXBWIC21030-37321-05712-30000012D0000111D00090000005712      GGSL
TXBWIC21030-37321-05714-70000012D0000351D00116000005714      GGSL
TXBWIC21030-37321-07458-80000048D0000748D00120000007458      GGSL
TXBWIC21030-37321-07468-70000012D0000264D00000000007468      GGSL
TXBWIC21030-37321-07490-80000078D0000410D00018003007490      GGSL
TXBWIC21030-37321-07492-20000104D0001716D00128001447492      GGSL
TXBWIC21030-37321-07503-50000036D0000453D00000000007503      GGSL
TXBWIC21030-37321-08636-90000018D0000210D00006000008636      GGSL
TXBWIC21030-37321-08751-90000001D0000055D00000000008751      GGSL
TXBWIC21030-37321-08752-60000090D0000965D00633000008752      GGSL
TXBWIC21030-37321-09534-70000063D0000642D00162001929534      GGSL
TXBWIC21030-37321-20472-20000467C0000642C000000000020473     GGSL
TXBWIC21030-37321-20479-10000006D0000031D0000000000321       GGSL
TXBWIC21030-37321-46126-50000500D0000080D211000010046126     GGSL
TXBWIC21030-37321-46175-30000003D0000065D000000000046175     GGSL
TXBWIC21030-37321-46183-80000153D0001249D0048300000691       GGSL
TXBWIC21030-37321-46190-60000048D0000146D004320000046190     GGSL
TXBWIC21030-37321-46191-30000048D0000237D002400000046191     GGSL
TXBWIC21030-37321-46406-80000040D0000295D008960000046406     GGSL
TXBWIC21030-37321-46540-90000008D0000068D001080000046540     GGSL
TXBWIC21030-37321-60211-80000030D0000324D000000000060212     GGSL
TXBWIC21030-37321-60221-70000050D0000542D000000015060222     GGSL
TXBWIC21030-37321-60224-80000090D0001139D000000000160410     GGSL
TXBWIC21030-37321-60360-30000071D0000729D000010010260362     GGSL
TXBWIC21030-37321-60400-60000822D0010496D001090178160402     GGSL
TXBWIC21030-37321-60407-50000012D0000093D000000016860407     GGSL
TXBWIC21030-37321-60414-30000135D0004484D000000000060414     GGSL
TXBWIC21030-37321-60420-40000008D0000104D000190000360420     GGSL
TXBWIC21030-37321-60424-20000006D0000217D000000000060424     GGSL
TXBWIC21030-37321-60430-30000002D0000022D000700000060432     GGSL
TXBWIC21030-37321-60476-10007225D0080589D051840444660478     GGSL
TXBWIC21030-37321-60514-00000572D0005933D013410147760516     GGSL
TXBWIC21030-37321-60613-00000012D0000117D000440000060613     GGSL
TXBWIC21030-37321-60728-10000006D0000076D000250000060730     GGSL
TXBWIC21030-38313-00005-90000040D0000821D0008400000GS 6750D  GGSL
TXBWIC21030-38313-00008-00000156D0002757D0050300012BP 3130   GGSL
TXBWIC21030-38313-00060-80000945D0015353D0081500277BP 3160   GGSL
TXBWIC21030-38313-00080-60000638D0012020D0093000271BP 3180D  GGSL
TXBWIC21030-38313-00217-60000012D0000196D0005400006FS 4350   GGSL
TXBWIC21030-38313-00830-70000056D0001635D0014600000BP 6250   GGSL
TXBWIC21030-38313-01010-20000894D0004487D0273000108CT 3010I  GGSL
TXBWIC21030-38313-01020-10000234D0001174D0048600024CT 3020I  GGSL
TXBWIC21030-38313-01030-00000318D0001589D0029400000CT 3030I  GGSL
TXBWIC21030-38313-03050-60000060D0000433D0012600156GT 3050   GGSL
TXBWIC21030-38313-03060-50000120D0000808D0022200084GT 3060   GGSL
TXBWIC21030-38313-03080-30000090D0000600D0028800126GT 3080   GGSL
TXBWIC21030-38313-03214-20000048D0000535D0009600000BP 3214D  GGSL
TXBWIC21030-38313-03244-90000078D0001340D0003000090HS 3244   GGSL
TXBWIC21030-38313-03334-70000030D0000357D0012600000AP 3334   GGSL
TXBWIC21030-38313-03470-20000023D0000688D0013700002FL 3470   GGSL
TXBWIC21030-38313-03634-80000025D0000657D0001800000LG 3634   GGSL
TXBWIC21030-38313-03694-20000008D0000224D0000300000LG 3694   GGSL
TXBWIC21030-38313-03710-90001728D0008473D0001200156CT 3710   GGSL
TXBWIC21030-38313-03720-80000012D0000081D0038400000CT 3720   GGSL
TXBWIC21030-38313-03730-70000444D0002182D0001800174CT 3730   GGSL
TXBWIC21030-38313-03750-50000258D0001260D0002400366CT 3750   GGSL
TXBWIC21030-38313-04110-60000084D0001319D0000600048AL 4110   GGSL
TXBWIC21030-38313-04930-00001741D0010330D0628600085AG 4930   GGSL
TXBWIC21030-38313-04930-70000720D0005159D0186700024AG 4930SS GGSL
TXBWIC21030-38313-06970-40000124D0005401D0035900024AH 6970   GGSL
TXBWIC21030-38313-07001-00000003D0000130D0001000006FK 70010  GGSL
TXBWIC21030-38313-07265-00000018D0000288D0001200042RS 7265D  GGSL
TXBWIC21030-38313-07395-40000006D0000150D0000600000RS 7395   GGSL
TXBWIC21030-38313-07545-20000058D0001000D0024700008RS 7245   GGSL
TXBWIC21030-38313-08300-00000012D0000077D0000000000AC 8300   GGSL
TXBWIC21030-38313-10000-00000020D0012980D0000000002SP 1502   GGSL
TXBWIC21030-38313-10000-10000247D0002307D0068900004SS 10000  GGSL
TXBWIC21030-38313-10227-20000036D0002504D0013100003AL 6512   GGSL
TXBWIC21030-38313-11000-00000140D0001315D0033000004SS 11000  GGSL
TXBWIC21030-38313-12400-70000463D0005596D0075300075RK 24003  GGSL
TXBWIC21030-38313-13214-90000150D0001150D0006000018FS 3214D  GGSL
TXBWIC21030-38313-14300-80000001D0000041D0002400001BM 43001  GGSL
TXBWIC21030-38313-20001-50000018D0000406D0005800001PD 20000  GGSL
TXBWIC21030-38313-20002-20000027D0000414D0000300069RK 20002  GGSL
TXBWIC21030-38313-20004-60000093D0001246D0031900080CV 20004  GGSL
TXBWIC21030-38313-20022-00000209D0003608D0043800011RK 20022  GGSL
TXBWIC21030-38313-21000-70000147D0001967D0051900085SH 20000  GGSL
TXBWIC21030-38313-24000-40000044D0000333D0008200006FS 4000   GGSL
TXBWIC21030-38313-25008-90000132D0000572D0004800216RK 25008  GGSL
TXBWIC21030-38313-26001-90000120D0001432D0006600144SS 26010  GGSL
TXBWIC21030-38313-26020-00000137D0002022D0028600002SS 26020  GGSL
TXBWIC21030-38313-27020-90000045D0000642D0003400016SS 27020  GGSL
TXBWIC21030-38313-28000-00000020D0000346D0003300002SS 28000  GGSL
TXBWIC21030-38313-28010-90000041D0000853D0020200003SS 28010  GGSL
TXBWIC21030-38313-32440-70000008D0000048D0000000032CT 3244   GGSL
TXBWIC21030-38313-32441-40000004D0000048D0001200003GT 3244   GGSL
TXBWIC21030-38313-32640-10000048D0000353D0000000030CT 3264   GGSL
TXBWIC21030-38313-33140-50000024D0000202D0008000000CT 3314   GGSL
TXBWIC21030-38313-33340-90000040D0000354D0001600000CT 3334   GGSL
TXBWIC21030-38313-33440-60000224D0001334D0005600280CT 3344   GGSL
TXBWIC21030-38313-33540-30000007C0001334C0010400000CT 3354   GGSL
TXBWIC21030-38313-33640-00000008D0000066D0002400488CT 3364   GGSL
TXBWIC21030-38313-36241-60000003D0000094D0000600000LG 3624   GGSL
TXBWIC21030-38313-36541-70000001D0000028D0001600000LG 3654   GGSL
TXBWIC21030-38313-36841-80000001D0000028D0000300000LG 3684   GGSL
TXBWIC21030-38313-37201-90000011D0000183D0001300043LG 3720   GGSL
TXBWIC21030-38313-41100-80000004D0000175D0000800000PM 41000  GGSL
TXBWIC21030-38313-53841-50000009D0000447D0003100003TP 3841   GGSL
TXBWIC21030-38313-56200-70000011D0000090D0005600000RK 62000  GGSL
TXBWIC21030-38313-60061-70000584C0000090C0003000000SH 60061  GGSL
TXBWIC21030-38313-61062-30000008D0000396D0005500003RK 61062  GGSL
TXBWIC21030-38313-62062-20000003D0000125D0001900001BM 62060  GGSL
TXBWIC21030-38313-64144-30000015D0000300D0003200008SS 64104  GGSL
TXBWIC21030-38313-65000-10000001D0000024D0000300000SS 65000  GGSL
TXBWIC21030-38313-66000-00000004D0000094D0000700006SS 66000  GGSL
TXBWIC21030-38313-80000-00000007D0000532D0002200008SF 80000  GGSL
TXBWIC21030-38313-81000-90000232D0002277D0054800004RK 10000  GGSL
TXBWIC21030-38313-90000-70000196D0001763D0039900022SH 10000  GGSL
TXBWIC21030-38313-90020-50000002D0000153D0000000004AS 90020  GGSL
TXBWIC21030-38313-90300-80000283C0000153C0000400000AS 90300  GGSL
TXBWIC21030-38776-00207-20000030D0000284D0000600000UU1906BK3 GGSL
TXBWIC21030-38776-00213-30000001D0000057D0000000000UU1906ST  GGSL
TXBWIC21030-38776-62193-80000001D0000085D0000400000UR1810ST  GGSL
TXBWIC21030-38858-11293-40000004D0000049D00000000001280-04-07GGSL
TXBWIC21030-38858-11295-80000004D0000047D00000000001285-04-07GGSL
TXBWIC21030-38858-11296-50000004D0000058D00000000001286-04-07GGSL
TXBWIC21030-39044-14636-80000012D0000120D000180000014666     GGSL
TXBWIC21030-39526-38169-00000205C0000120C00020000003201C-502WGGSL
TXBWIC21030-39645-11752-10000301D0001161D001610008040200010  GGSL
TXBWIC21030-40025-54033-40000023D0000995D0002000005RWS-54033 GGSL
TXBWIC21030-40235-75256-50000048D0000838D00084000002.5G30S   GGSL
TXBWIC21030-40279-03300-20000528D0000919D01980000243300      GGSL
TXBWIC21030-40279-03302-60000492D0000909D0105600024          GGSL
TXBWIC21030-41535-24550-40000393D0016217D011740008424550     GGSL
TXBWIC21030-41535-24560-30001162D0188308D007150018524560     GGSL
TXBWIC21030-41535-24571-90001991D0029386D0263200337100518540 GGSL
TXBWIC21030-42204-14504-80000001D0000001D00019000002MMC      GGSL
TXBWIC21030-42206-00056-90000018D0000137D000160008656-6      GGSL
TXBWIC21030-42206-00202-00000270D0000286D0028500010202S      GGSL
TXBWIC21030-42206-00202-10000016D0000019D0000900000202S      GGSL
TXBWIC21030-42206-00269-30000036D0000156D0018000216269       GGSL
TXBWIC21030-42206-00395-90000128D0000293D0056200100395S      GGSL
TXBWIC21030-42206-00525-00000070D0000167D0023000150525C      GGSL
TXBWIC21030-42206-00872-50000072D0000150D0046200132872-6     GGSL
TXBWIC21030-42206-03010-80000028D0000269D00195000013010-4    GGSL
TXBWIC21030-42206-07800-10000042D0000231D00006000967800      GGSL
TXBWIC21030-42206-09000-30000170D0001023D00452000009000      GGSL
TXBWIC21030-42206-09003-40000010D0000030D00000000009003      GGSL
TXBWIC21030-42206-09520-60000006D0000092D00018000489520      GGSL
TXBWIC21030-42206-09620-30000056D0001875D00335000009620-8    GGSL
TXBWIC21030-42206-14058-60000168D0000886D00780000729570      GGSL
TXBWIC21030-42206-14066-10000036D0000108D00036000489560C     GGSL
TXBWIC21030-42206-14220-70000274D0001033D0024600062312S      GGSL
TXBWIC21030-42206-14221-40000233D0000409D0035100012313S      GGSL
TXBWIC21030-42206-14222-10000024D0000344D0009600036314S      GGSL
TXBWIC21030-42206-14235-10000290D0000299D0045000060390S      GGSL
TXBWIC21030-42206-14456-00000082D0000124D0017600020420C      GGSL
TXBWIC21030-42206-14501-70000208D0000178D00291000501FMC      GGSL
TXBWIC21030-42206-14502-40000120D0000085D00364000301MMC      GGSL
TXBWIC21030-42206-14503- 0000002D0000002D00028000002FMC      GGSL
TXBWIC21030-42206-14503-10000560D0000509D01199000502FMC      GGSL
TXBWIC21030-42206-14504-80000506D0000384D01382000302MMC      GGSL
TXBWIC21030-42206-14505-50000080D0000073D003420003001MC      GGSL
TXBWIC21030-42206-14506-20000352D0000339D006540007002MC      GGSL
TXBWIC21030-42206-14570-30000096D0000494D0017400010ZBR3/4    GGSL
TXBWIC21030-42206-14571-00000199D0000642D0047100030ZBM3/4    GGSL
TXBWIC21030-42206-14572-70000202D0000698D0047200000ZBF3/4    GGSL
TXBWIC21030-42206-14599-40000012D0000153D00024000009536CH    GGSL
TXBWIC21030-42206-15106-30000036D0000390D000000013215106     GGSL
TXBWIC21030-42206-15111-70000046D0000285D000690000015111     GGSL
TXBWIC21030-42206-15404-00000012D0000130D000840001815404     GGSL
TXBWIC21030-42206-15565-80000048D0000440D0000000060R551      GGSL
TXBWIC21030-42206-20491-20000244D0001149D003560000020491-10  GGSL
TXBWIC21030-42206-22261-90000084D0000692D011580000622261     GGSL
TXBWIC21030-42206-22300-50000048D0000470D001740000622300     GGSL
TXBWIC21030-42206-22701-00000074D0000221D001120000022701C    GGSL
TXBWIC21030-42206-23701-90000010D0000029D001020000023701S    GGSL
TXBWIC21030-42206-40261-50000006D0000048D000060000020261     GGSL
TXBWIC21030-42206-40300-10000030D0000195D0013600000XT300     GGSL
TXBWIC21030-42206-40301-80000142D0000875D0034200340XT301     GGSL
TXBWIC21030-42206-44100-30000024D0000396D0011400066XT4100    GGSL
TXBWIC21030-42206-48635-60000156D0000819D0007200348R8635     GGSL
TXBWIC21030-42206-63015-50000017D0000465D000520001063015     GGSL
TXBWIC21030-42206-63100-80000014D0000526D000260000063100     GGSL
TXBWIC21030-42579-00052-40000021D0000735D0001700000ST47812   GGSL
TXBWIC21030-42579-10342-30000036D0000496D0000000000NB348     GGSL
TXBWIC21030-42579-11212-80000010D0000480D0001200000SSR12GRN  GGSL
TXBWIC21030-42579-11250-00000001D0001033D0004700011P12       GGSL
TXBWIC21030-42579-11500-60000147D0004393D0009300002APB5      GGSL
TXBWIC21030-42579-12343-80000021D0000911D000000000020 YR-3100GGSL
TXBWIC21030-42579-12346-90000168D0000272D0002400000TW3W      GGSL
TXBWIC21030-42579-13250-80000821D0025377D0166200226P3        GGSL
TXBWIC21030-42579-14250-70000217D0022630D0058700019P4        GGSL
TXBWIC21030-42579-15250-60000106D0011107D0008000000P5        GGSL
TXBWIC21030-42579-16250-50000216D0031568D0017300017P6        GGSL
TXBWIC21030-42579-18250-30000023D0007175D0004800010P8        GGSL
TXBWIC21030-42579-19342-40000384D0004244D003840002420 YR-324 GGSL
TXBWIC21030-42579-22341-10003424D0023470D02176014406 YR-350  GGSL
TXBWIC21030-42579-22342-80001362D0010547D0000000264NS12      GGSL
TXBWIC21030-42579-22345-90002292D0002974D0170301548APRC      GGSL
TXBWIC21030-42579-23100-30000096D0000672D00000000806 YR-3100 GGSL
TXBWIC21030-42579-32355-50000364D0002217D0036400028RS15      GGSL
TXBWIC21030-42579-43004-80000013D0001222D0002200027NB4       GGSL
TXBWIC21030-42579-43006-20000022D0003096D0000900000NB6       GGSL
TXBWIC21030-42579-43240-00000020D0000113D0002000000NB324     GGSL
TXBWIC21030-42579-50154-00000080D0002322D0020000000PRO BLK-31GGSL
TXBWIC21030-42579-50169-40000090D0001704D0014400090PRO BLK-45GGSL
TXBWIC21030-42579-63041-70000019D0002124D0000700000KG6       GGSL
TXBWIC21030-42579-63101-80000013D0000496D0001500000TSL-BX    GGSL
TXBWIC21030-42579-63105-60000028D0001364D0004800000350ROLL   GGSL
TXBWIC21030-42579-63106-30000300D0000030D0030000000CLIP-C    GGSL
TXBWIC21030-42579-63111-70004500D0000810D0000000000RPB-RED   GGSL
TXBWIC21030-42579-63306-70002160D0012035D02808002163 YR-350  GGSL
TXBWIC21030-42579-81360-50000085D0009932D0001400009NS12250   GGSL
TXBWIC21030-42579-81428-20000244D0000478D0092300000BURLAP BAGGGSL
TXBWIC21030-42579-81497-40000004D0000000D0000900002RDR + SIGNGGSL
TXBWIC21030-42579-81566-10000168D0024288D0022600023SBLT10300 GGSL
TXBWIC21030-42579-81568-50000354D0053615D0040900029SBLT12300 GGSL
TXBWIC21030-42579-81569-20000431D0089672D0053100121SBLT15.530GGSL
TXBWIC21030-42579-81571-50000348D0016207D0038900091SBLT3300  GGSL
TXBWIC21030-42579-81572-20000173D0010023D0012100094SBLT4300  GGSL
TXBWIC21030-42579-81573-90000474D0038210D0029200145SBLT6300  GGSL
TXBWIC21030-42579-81605-70000002D0000178D0005300007PRO BLK-33GGSL
TXBWIC21030-42579-81606-40000030D0003428D0009400000PRO BLK-43GGSL
TXBWIC21030-42579-81607-10000066D0011189D0004800001PRO BLK-63GGSL
TXBWIC21030-42579-81608-80000002D0000471D0000700000PRO BLK-83GGSL
TXBWIC21030-42579-81619-40000001D0000055D0000000000APB1      GGSL
TXBWIC21030-42579-81624-80000018D0000279D0000000000PRO BLK-35GGSL
TXBWIC21030-42579-81733-70000038D0002291D0003000000CS-3300BLKGGSL
TXBWIC21030-42579-81734-40000046D0003458D0002900000CS-4300BLKGGSL
TXBWIC21030-42579-81735-10000015D0001764D0003100000CS-6300BLKGGSL
TXBWIC21030-42579-81738-20000005D0001202D0000400000CS-350BLK GGSL
TXBWIC21030-42579-81739-90000012D0002723D0000100002CS-3100BLKGGSL
TXBWIC21030-42579-82278-20000012D0000096D0000000048TWBAG-12  GGSL
TXBWIC21030-42579-82293-50000812D0004119D0000000196SUPREME625GGSL
TXBWIC21030-42853-00000-00000050D0002327D0039500047BFTD-DB12 GGSL
TXBWIC21030-42853-10000-10000006D0000384D0016400000ST3-BB4   GGSL
TXBWIC21030-42853-12000-90000016D0000049D0021600000MGC-DB12  GGSL
TXBWIC21030-42853-42000-00000240D0001282D0040200072TSBF-BB6  GGSL
TXBWIC21030-42853-50000-90000113D0002181D0196800351TSW-BB6   GGSL
TXBWIC21030-42853-52000-40000006D0000041D0000600006CBTS-BB6  GGSL
TXBWIC21030-42853-61000-50000044D0000189D0004000000FFTR2-BB4 GGSL
TXBWIC21030-42853-62000-40000064D0000083D0008800000FFTA-DB12 GGSL
TXBWIC21030-42853-65000-10000020D0000075D0007600124AB6-BB4   GGSL
TXBWIC21030-42853-77301-40001200D0075840D0000000000FTD-BB24  GGSL
TXBWIC21030-42853-77305-40000029D0001222D0083700065FTD-DB12  GGSL
TXBWIC21030-42853-77503-20000064D0008087D0000000000YJTD-FD48-GGSL
TXBWIC21030-42853-77603-90000130D0016260D0000200000YJTD-DB12-GGSL
TXBWIC21030-42853-79701-00000800D0070848D0000000000BFTD-BB24 GGSL
TXBWIC21030-42853-86000-40000012D0000073D0000000000SBTA-DB12 GGSL
TXBWIC21030-42854-03298-10000852D0002078D0142800036FG32ORB112GGSL
TXBWIC21030-42854-63278-50000240D0000547D0058800024FG32PC1-12GGSL
TXBWIC21030-42854-64870-00000090D0000592D0009000012FG48PC1-6 GGSL
TXBWIC21030-42854-93200-70000024D0000122D0010800000FG32SM1-12GGSL
TXBWIC21030-43168-50312-90000002D0000079D000000000093101230  GGSL
TXBWIC21030-43168-50313-60000002D0000094D000000000093101231  GGSL
TXBWIC21030-43312-10003-70000311D0000971D0092200000103-0-009 GGSL
TXBWIC21030-43312-10027-30000012D0000117D0016800000104-0-003 GGSL
TXBWIC21030-43312-10031-00000058D0001444D0009600000107-0-002 GGSL
TXBWIC21030-43326-16740-80000033D0000511D0000000000A12X14-P3 GGSL
TXBWIC21030-43326-17745-20000012D0000158D0000000000BRB12X16-PGGSL
TXBWIC21030-43326-17750-60000008D0000176D0000000000BRB16X20-PGGSL
TXBWIC21030-43326-59578-20000008D0000424D0000000002G12X26    GGSL
TXBWIC21030-43792-50001-30000125D0003529D0000400032Y32       GGSL
TXBWIC21030-43792-60002-70000181D0005797D0003900020W32       GGSL
TXBWIC21030-43792-70002-40000100D0003255D0004400017R32       GGSL
TXBWIC21030-43792-80001-40000049D0001481D0001300019SW10      GGSL
TXBWIC21030-43792-90003-50000025D0000960D0002100001GA10      GGSL
TXBWIC21030-43792-90004-20000005D0000503D0000100000GA30      GGSL
TXBWIC21030-44882-30115-20000025D0000205D0000000100WS50      GGSL
TXBWIC21030-44882-30501-30000035D0000315D0000000010FXG5825   GGSL
TXBWIC21030-44882-30502-00000045D0000729D0000000080FXG5850   GGSL
TXBWIC21030-44882-30504-40000036D0000852D0000000051FXG5875   GGSL
TXBWIC21030-44882-30506-80000021D0000672D0000000012FXG58100  GGSL
TXBWIC21030-46539-62045-60004173D0053832D0196800429          GGSL
TXBWIC21030-46539-64032-40006256D0053050D0032200917          GGSL
TXBWIC21030-46753-01032-30000114D0000438D00132000004675301032GGSL
TXBWIC21030-46753-01128-30000180D0001531D00040000044675301128GGSL
TXBWIC21030-46753-01500-70000005D0000247D00005000004675302500GGSL
TXBWIC21030-46753-02032-20000074D0000344D00187000004675302032GGSL
TXBWIC21030-46753-02128-20000112D0001256D00200000004675302128GGSL
TXBWIC21030-46753-03128-10000048D0000643D00232000004675303128GGSL
TXBWIC21030-46753-04032-00000486D0002785D00322000364675304032GGSL
TXBWIC21030-46753-04033-70000342D0002827D00648003002004675304GGSL
TXBWIC21030-46753-04128-00000468D0006391D00364002204675304128GGSL
TXBWIC21030-46753-04500-40000019D0001132D000240000045004     GGSL
TXBWIC21030-46753-04550-90000003D0001783D000000000045509     GGSL
TXBWIC21030-46753-05032-90000384D0003207D00570003304675305032GGSL
TXBWIC21030-46753-05128-90000136D0001796D00216001164675305128GGSL
TXBWIC21030-46753-07032-70000090D0000449D00153000244675307032GGSL
TXBWIC21030-46753-07128-70000016D0000202D00000000084675307128GGSL
TXBWIC21030-46753-08016-60000024D0000208D000000000080160     GGSL
TXBWIC21030-46753-08032-60000789D0012140D02175005404675308032GGSL
TXBWIC21030-46753-14032-70000096D0000385D00771000364675314032GGSL
TXBWIC21030-46753-14128-70000184D0001332D00306000484675314128GGSL
TXBWIC21030-46753-14550-60000003D0000827D000000000014550     GGSL
TXBWIC21030-46753-17005-80000162D0000685D00270000064675317005GGSL
TXBWIC21030-46753-17040-90002562D0034597D01192001164675317040GGSL
TXBWIC21030-46753-17201-40000001D0000375D000000000072014     GGSL
TXBWIC21030-46753-19032-20000048D0000258D00000000242004675319GGSL
TXBWIC21030-46753-19128-20000020D0000242D0000000000          GGSL
TXBWIC21030-46753-19550-10000002D0001081D000000000095501     GGSL
TXBWIC21030-46753-20128-80000048D0000769D0000000000          GGSL
TXBWIC21030-46753-21032-70000260D0001227D003480034810327     GGSL
TXBWIC21030-46753-21128-70000208D0002449D003680023612287     GGSL
TXBWIC21030-46753-22550-50000002D0001125D000000000025505     GGSL
TXBWIC21030-47985-10023-30000092D0000741D0035400000YCBSM3CF-PGGSL
TXBWIC21030-47985-10033-20000370D0002623D0061600049YCBSI3CF-PGGSL
TXBWIC21030-48307-70003-20000025D0000208D0000900012ST3       GGSL
TXBWIC21030-48307-70004-90000117D0001241D0000300005ST4-WS    GGSL
TXBWIC21030-48307-70006-30000033D0000438D0001600030ST6       GGSL
TXBWIC21030-48745-22244-80000020D0000430D0008400004BL22244   GGSL
TXBWIC21030-49206-03060-20000030D0000255D0000000000UR1810BK3 GGSL
TXBWIC21030-50197-00104-50002580D0011595D0092000444HT4       GGSL
TXBWIC21030-50197-00108-30000240D0001669D0064800012HT8       GGSL
TXBWIC21030-50197-00118-20001465D0017096D0035100054HT18      GGSL
TXBWIC21030-50197-00136-60000630D0012915D0054600055HT36      GGSL
TXBWIC21030-50197-00150-20000299D0007842D0048400018HT50      GGSL
TXBWIC21030-50197-00204-20001434D0006599D0167303252PT4       GGSL
TXBWIC21030-50197-00208-00000168D0001146D0013200018PT8       GGSL
TXBWIC21030-50197-00218-90000662D0008079D0035200061PT18      GGSL
TXBWIC21030-50197-00236-30000383D0007649D0000000094PT36      GGSL
TXBWIC21030-50197-00250-90000126D0003187D0010100000PT50      GGSL
TXBWIC21030-50197-00304-90001944D0008876D0268601176GT4       GGSL
TXBWIC21030-50197-00308-70000006D0000043D0000100000GT8       GGSL
TXBWIC21030-50197-00318-60000453D0005589D0052100046GT18      GGSL
TXBWIC21030-50197-00336-00000247D0005107D0013400001GT36      GGSL
TXBWIC21030-50197-00404-60001710D0007853D0083801518RT4       GGSL
TXBWIC21030-50197-00408-40000150D0001055D0005400144RT8       GGSL
TXBWIC21030-50197-00418-30000387D0004989D0011300028RT18      GGSL
TXBWIC21030-50197-00604-00000708D0003171D0008700396BT4       GGSL
TXBWIC21030-50197-00618-70000011D0000135D0000000000BT18      GGSL
TXBWIC21030-50197-00704-70000378D0001779D0034300336TR4       GGSL
TXBWIC21030-50197-00718-40000194D0002422D0000900015TR18      GGSL
TXBWIC21030-50197-00736-80000008D0000183D0000500000TR36      GGSL
TXBWIC21030-50197-00904-10001854D0008625D0154804608TO4       GGSL
TXBWIC21030-50197-00908-60000174D0001260D0025800006TO8       GGSL
TXBWIC21030-50197-00918-80000169D0002256D0019400044TO18      GGSL
TXBWIC21030-50197-01004-70000456D0002078D0003600780BM04      GGSL
TXBWIC21030-50197-01207-20000318D0002164D0001200042RP7       GGSL
TXBWIC21030-50197-01228-70000144D0002335D0012000015RP28      GGSL
TXBWIC21030-50197-01303-10000408D0002443D0025200840DB03      GGSL
TXBWIC21030-50197-01317-80000036D0001170D0013800010DB17      GGSL
TXBWIC21030-50197-01403-80000168D0000828D0000000012CM3       GGSL
TXBWIC21030-50197-01803-60000072D0000266D0030000012GM3       GGSL
TXBWIC21030-50197-01825-80000437D0004559D0076400237GM25      GGSL
TXBWIC21030-50197-01905-70000030D0000120D0003600000GF5105/6  GGSL
TXBWIC21030-50197-02006-00000306D0000745D0014400630GL6       GGSL
TXBWIC21030-50197-02206-40003419C0000745C0066900396GG6       GGSL
TXBWIC21030-50197-02703-80000012D0000141D0000000000KM4       GGSL
TXBWIC21030-50197-02805-90000048D0000271D0000600012GF101010/6GGSL
TXBWIC21030-50197-02904-90000864D0003976D0050401080FT4       GGSL
TXBWIC21030-50197-02918-60000195D0002459D0017200022FT18      GGSL
TXBWIC21030-50197-03804-10003498D0018696D0252100888BTSP4     GGSL
TXBWIC21030-50197-03808-90000060D0000480D0000000000BTSP8     GGSL
TXBWIC21030-50197-03818-80000016D0000289D0010300000BTSP18    GGSL
TXBWIC21030-50197-03825-60000461D0012381D0027800051BTSP25    GGSL
TXBWIC21030-50197-03904-80001162D0005537D0000600780PM4       GGSL
TXBWIC21030-50197-03920-80000032D0000416D0011100011PM20      GGSL
TXBWIC21030-50197-05004-30001800D0008344D0089702844CT4       GGSL
TXBWIC21030-50197-05018-00000373D0005014D0040200011CT18      GGSL
TXBWIC21030-50197-05206-10005731C0005014C0000000000CGP6      GGSL
TXBWIC21030-50197-05225-20000005D0000135D0000000000CGP25     GGSL
TXBWIC21030-50197-05320-40000117D0001743D0000100008ELF20     GGSL
TXBWIC21030-50197-05405-80000048D0000234D0006100096IT5       GGSL
TXBWIC21030-50197-05420-10000003D0000044D0009700035it20      GGSL
TXBWIC21030-50197-05628-10000027D0000679D0014900000EOLF28    GGSL
TXBWIC21030-50197-05730-10000011D0000266D0000000014EOSR30    GGSL
TXBWIC21030-50197-06101-80003121C0000266C0000000012BG1       GGSL
TXBWIC21030-50197-06504-70000785D0003517D0013801524AT4       GGSL
TXBWIC21030-50197-06508-50000048D0000341D0000600006AT8       GGSL
TXBWIC21030-50197-06518-40000017D0000223D0000100001AT18      GGSL
TXBWIC21030-50197-06604-40000450D0002151D0001800048BR4       GGSL
TXBWIC21030-50197-30418-40000054D0000340D0001200000BL18      GGSL
TXBWIC21030-50197-30508-20000072D0000304D0000000000INPF8     GGSL
TXBWIC21030-50197-30608-90000198D0000852D0000000000CAPF8     GGSL
TXBWIC21030-50197-30708-60000006D0000025D0000000006VIPF8     GGSL
TXBWIC21030-50197-30808-30000006D0000046D0000000000ORPF8     GGSL
TXBWIC21030-50197-31308-70000006D0000025D0003000000TOPF8     GGSL
TXBWIC21030-50197-31318-60000066D0000444D0001800000topf18    GGSL
TXBWIC21030-50197-51701-00000012D0000082D0000000000eoss1     GGSL
TXBWIC21030-50197-70101-30000884D0005660D0039600000ap1       GGSL
TXBWIC21030-50197-70102-00000630D0007028D0045800000ap2       GGSL
TXBWIC21030-50197-70116-70000120D0000482D0000000000AP16      GGSL
TXBWIC21030-50197-70304-80000604D0001353D0044800088ca4       GGSL
TXBWIC21030-50197-70308-60000126D0000461D0000000000ca8       GGSL
TXBWIC21030-50197-70516-50000002D0000012D0000000000SS16      GGSL
TXBWIC21030-50197-70608-70000024D0000108D0004200000PTM8      GGSL
TXBWIC21030-50197-71208-80000012D0000057D0002400000MM8       GGSL
TXBWIC21030-50197-71304-70000324D0001885D0000000048EC4       GGSL
TXBWIC21030-50197-71501-00001201D0007267D0055500002lsc1      GGSL
TXBWIC21030-50197-71601-70000249D0001209D0100700060dcm1      GGSL
TXBWIC21030-50197-71804-20000060D0000407D0000000000BO4       GGSL
TXBWIC21030-50197-71904-90000036D0000220D0012000000HC4       GGSL
TXBWIC21030-50197-80117-10000512D0005048D0135300120SC17      GGSL
TXBWIC21030-50349-01003-10000012D0000372D00000000001003-012  GGSL
TXBWIC21030-50349-01039-00000004D0000291D00000000001039-012  GGSL
TXBWIC21030-50349-01041-30000002D0000159D00000000001041-012  GGSL
TXBWIC21030-50349-01069-70000060D0000247D00020000001069-012  GGSL
TXBWIC21030-50349-01078-30002304C0000247C00003000001023-017  GGSL
TXBWIC21030-50349-10211-20000001D0000044D00000000001012-012  GGSL
TXBWIC21030-50349-10519-90000003D0000183D00000000001051-082  GGSL
TXBWIC21030-50349-10541-00000002D0001834D00000000001071-017  GGSL
TXBWIC21030-50699-00000-00000019D0000176D0000200001303460    GGSL
TXBWIC21030-50699-00001-00000013D0000121D0005600000300001    GGSL
TXBWIC21030-50699-00014-00000015D0000064D0000500002300014    GGSL
TXBWIC21030-50699-00128-10000010D0000275D0000500001300128    GGSL
TXBWIC21030-50699-00212-00000078D0000663D0016500000300212    GGSL
TXBWIC21030-51497-15464-60000013D0001666D000300000615464     GGSL
TXBWIC21030-51497-15466-00000004D0000040D000110000115466     GGSL
TXBWIC21030-52427-00551-90000001D0000019D00000000004500102   GGSL
TXBWIC21030-52427-60012-70000003D0000072D0000000000          GGSL
TXBWIC21030-52427-60035-60000001D0000147D00000000006035240   GGSL
TXBWIC21030-52732-00000-00000030D0001291D000100004319109     GGSL
TXBWIC21030-52732-10012-10000124D0013951D00198000031001-B    GGSL
TXBWIC21030-52732-10225-50000019D0000511D000260000060009.0   GGSL
TXBWIC21030-52732-20505-50000035D0002908D00085000012050SU    GGSL
TXBWIC21030-52732-20509-30000065D0008710D00085000162050P     GGSL
TXBWIC21030-52732-20519-20000015D0001923D00002000032050TP    GGSL
TXBWIC21030-52732-27500-30000438D0017127D00312000392750      GGSL
TXBWIC21030-52732-31000-10000002D0000311D00003000003100.0    GGSL
TXBWIC21030-52732-34000-80000002D0000042D00013000003400.0    GGSL
TXBWIC21030-52732-65000-80000019D0002484D00005000036500.0    GGSL
TXBWIC21030-52732-68016-60000012D0002866D0002400000F80       GGSL
TXBWIC21030-53291-11002-60000396D0003950D0121200012820-1002  GGSL
TXBWIC21030-53291-19881-90000004D0000044D0002300000820-1002  GGSL
TXBWIC21030-53291-19937-30000108D0000189D0008400000820-0409  GGSL
TXBWIC21030-53291-30000-00000011D0002959D0001700000820-1024  GGSL
TXBWIC21030-53291-40052-30000008D0000038D0000000000840-0052  GGSL
TXBWIC21030-53291-40091-20000001D0000076D0000200000840-0091  GGSL
TXBWIC21030-53291-40095-00000012D0000190D0003000000840-0095  GGSL
TXBWIC21030-53291-55981-80000324D0001202D0064800024820-0188  GGSL
TXBWIC21030-56554-31358-50000003D0000030D0000000000SRA13001P0GGSL
TXBWIC21030-56554-31363-90000003D0000034D0000000000SRA13001P0GGSL
TXBWIC21030-56554-67756-40000120D0001089D0000000000MOA22000G0GGSL
TXBWIC21030-56554-73105-10000008D0000106D0000000000RUA16000G1GGSL
TXBWIC21030-56554-91955-80000004D0000135D0000000000KTS15000E5GGSL
TXBWIC21030-66498-01115-70000649D0012929D000820010001115.0   GGSL
TXBWIC21030-66498-02115-60008351D0120006D008480080402775.0   GGSL
TXBWIC21030-66498-02185-90000636D0009156D000120000102185     GGSL
TXBWIC21030-66498-03175-90000105D0001079D000000000003175     GGSL
TXBWIC21030-66498-04175-80002846D0027462D001270001004175.0   GGSL
TXBWIC21030-66498-05113-90001756D0010673D001410000605175.0   GGSL
TXBWIC21030-66498-08781-30000182D0001076D00000000009781      GGSL
TXBWIC21030-66498-09776-20000095D0000899D001390000009776     GGSL
TXBWIC21030-66498-09782-30000325D0003076D000000006509782.0   GGSL
TXBWIC21030-66498-09839-40000001D0000005D000000000009839     GGSL
TXBWIC21030-66498-09901-80007184D0044951D024540051309901.0   GGSL
TXBWIC21030-66498-09902-50010684D0101411D028500066109902.0   GGSL
TXBWIC21030-66498-09903-20006565D0086112D009180023709903.0   GGSL
TXBWIC21030-66498-09925-40000912D0003279D000480004809925     GGSL
TXBWIC21030-66498-09929-20000095D0000517D000470002209929     GGSL
TXBWIC21030-66498-09937-70005304D0013710D002400088809937     GGSL
TXBWIC21030-66498-09939-10000232D0001722D000000000009939     GGSL
TXBWIC21030-66498-09947-60000396D0001003D001300045609947     GGSL
TXBWIC21030-66498-09950-50001788D0008267D000300027009955     GGSL
TXBWIC21030-66498-09965-00001596D0009416D000720036009965     GGSL
TXBWIC21030-66498-09977-30000252D0001297D000360002409977     GGSL
TXBWIC21030-66498-09985-80000456D0001631D001320016209985     GGSL
TXBWIC21030-66498-89905-20003894D0013893D003800038409905     GGSL
TXBWIC21030-66498-99827-40001608D0006210D000480018009827     GGSL
TXBWIC21030-70183-50005-50003012D0081271D00296000005000510   GGSL
TXBWIC21030-70183-50006-20002640D0094629D00180000005000610   GGSL
TXBWIC21030-70183-50023-90000174D0004357D00306000065002306   GGSL
TXBWIC21030-70183-50026-00010008D0111392D00924000205002610   GGSL
TXBWIC21030-70183-50027-70000114D0000526D00408000125002715   GGSL
TXBWIC21030-70183-50029-10000012D0000151D00292000165007410   GGSL
TXBWIC21030-70183-50034-50007222D0028332D01923004685003470   GGSL
TXBWIC21030-70183-50038-30000536D0006565D00300000005003810   GGSL
TXBWIC21030-70183-50042-00000029D0002675D00065000005004215   GGSL
TXBWIC21030-70183-50055-00005796D0064081D01116000365005510   GGSL
TXBWIC21030-70183-50060-40002646D0089508D00222000005006010   GGSL
TXBWIC21030-70183-50085-70000006D0000309D00000000005008510   GGSL
TXBWIC21030-70183-51001-60001476D0026076D01232000165100114   GGSL
TXBWIC21030-70183-51006-10010991D0241816D00852000245100610   GGSL
TXBWIC21030-70183-51007-80000996D0037788D00498000005100710   GGSL
TXBWIC21030-70183-51009-20000064D0000885D00272000005004010   GGSL
TXBWIC21030-70183-51019-10002080D0040683D00152000005101910   GGSL
TXBWIC21030-70183-51073-30000540D0002556D00534000005107315   GGSL
TXBWIC21030-70183-51090-00004407D0179184D00673001725109010   GGSL
TXBWIC21030-70183-52005-30000008D0000175D00104000085200510   GGSL
TXBWIC21030-70183-52039-80000068D0001466D00168000005203910   GGSL
TXBWIC21030-70183-52350-40000024D0000617D00048000005235010   GGSL
TXBWIC21030-70183-57050-80001320D0037693D00282000005705010   GGSL
TXBWIC21030-70183-57080-50000436D0006854D00008000005708010   GGSL
TXBWIC21030-70183-57250-20000532D0011276D00228000045725070   GGSL
TXBWIC21030-70251-65240-20000011D0000294D0001400000652400    GGSL
TXBWIC21030-70251-75546-20000006D0000049D0005400000755460    GGSL
TXBWIC21030-70251-76116-60000159D0001929D0044700024761160    GGSL
TXBWIC21030-70251-79160-60000174D0001760D0015600102791600    GGSL
TXBWIC21030-70251-81182-30000048D0000605D00108000008111082   GGSL
TXBWIC21030-70251-81482-40001188D0007224D00741000248141082   GGSL
TXBWIC21030-70251-82746-60000048D0000559D00096000008274600   GGSL
TXBWIC21030-70805-51001-10001000D0002210D020300016070805-010-GGSL
TXBWIC21030-70805-51002-80001095D0004706D008150011570805-005-GGSL
TXBWIC21030-70805-51013-40003775D0051511D0053200095BD02      GGSL
TXBWIC21030-70805-51024-00000300D0000985D002580000070805-006-GGSL
TXBWIC21030-70805-51025-70007539D0080169D055800035970805-001-GGSL
TXBWIC21030-70805-51026-40000690D0002138D004320000070805-006-GGSL
TXBWIC21030-70805-51033-20000643D0008582D004860000470805-001-GGSL
TXBWIC21030-70805-51034-90000678D0017309D004540001870805-001-GGSL
TXBWIC21030-70805-51037-00000036D0000358D001320000070805-001-GGSL
TXBWIC21030-70805-51038-70000085D0001781D001450000070805-001-GGSL
TXBWIC21030-70805-51051-60000375D0002305D002240001670805-008-GGSL
TXBWIC21030-70805-53003-30003953D0028928D0131000257BD021     GGSL
TXBWIC21030-70805-62025-30012668D0253021D067090052370805-001-GGSL
TXBWIC21030-70805-84052-10000080D0002397D0000000002KERNEL_M-0GGSL
TXBWIC21030-70805-84053-80000191D0004070D002560000270805-001-GGSL
TXBWIC21030-70805-84054-50000337D0005199D003810000870805-001-GGSL
TXBWIC21030-70805-84071-20000006D0000134D0000100000REDMILLET-GGSL
TXBWIC21030-70805-84075-00000829D0023129D013150007170805-001-GGSL
TXBWIC21030-70805-84076-70000217D0012561D002740000070805-001-GGSL
TXBWIC21030-70805-84077-40000077D0004387D0008100000KERNEL_M-0GGSL
TXBWIC21030-70805-84079-80000254D0010182D003620000270805-001-GGSL
TXBWIC21030-70805-84093-40000038D0001869D0014900000PEANUTSPL-GGSL
TXBWIC21030-70923-00000-00000048D0000243D0051700000600.0     GGSL
TXBWIC21030-70923-00196-50000144D0000301D0162000072T100-12   GGSL
TXBWIC21030-70923-00300-60000481D0002404D0247200127T300FD    GGSL
TXBWIC21030-70923-00402-70000066D0000201D0009600012T401-6    GGSL
TXBWIC21030-70923-00912-10000024D0000125D0012300003T901-6    GGSL
TXBWIC21030-70923-02301-10000090D0000279D0009600000T2302-6   GGSL
TXBWIC21030-70923-02900-60000104D0000536D0042000000T2900     GGSL
TXBWIC21030-70923-08515-60000048D0000088D0021600456T3206     GGSL
TXBWIC21030-70923-12277-60000042D0000206D0015000000T1812     GGSL
TXBWIC21030-70923-64051-50000030D0000285D0000000036T702      GGSL
TXBWIC21030-70923-66431-30000042D0000518D0000000102T1240     GGSL
TXBWIC21030-71092-32500-80000096D0000446D0184200012T2506     GGSL
TXBWIC21030-71121-04460- 0000012D0000125D0003000000HG-61067  GGSL
TXBWIC21030-71121-05580-40000192D0001445D00738000005580      GGSL
TXBWIC21030-71121-53940-30000032D0000259D0002000000HG-53944  GGSL
TXBWIC21030-71121-95830-30000018D0000162D0002400000HG-95830  GGSL
TXBWIC21030-71121-96187-70000054D0000758D0000000000hg-96187  GGSL
TXBWIC21030-71121-96281-20000054D0000250D0077400006HG-96281  GGSL
TXBWIC21030-71549-01128-40000088D0000258D00096000960112812   GGSL
TXBWIC21030-71549-01129-10000123D0000985D00323000960112912   GGSL
TXBWIC21030-71549-01656-20000018D0000124D00381000000165610   GGSL
TXBWIC21030-71549-01666-10000084D0000947D00060000000166610   GGSL
TXBWIC21030-71549-01672-20001368D0014747D00000000000167224   GGSL
TXBWIC21030-71549-01738-50001212D0009423D00186000000173810   GGSL
TXBWIC21030-71549-01748-40000024D0000186D00183000000174810   GGSL
TXBWIC21030-71549-01925-90000006D0000034D00012000000192510   GGSL
TXBWIC21030-71549-01936-50000096D0000614D00219000240193610   GGSL
TXBWIC21030-71549-02003-30000392D0006196D00288000040200310   GGSL
TXBWIC21030-71549-02014-90000108D0000634D00132000000201405   GGSL
TXBWIC21030-71549-02022-40000856D0002482D00112000800202212   GGSL
TXBWIC21030-71549-02027-90000008D0000050D00000000000202712   GGSL
TXBWIC21030-71549-02028-60000416D0001305D00016000000202812   GGSL
TXBWIC21030-71549-02029-30000120D0000457D00018000000202912   GGSL
TXBWIC21030-71549-02030-90000006D0000050D00030000000203012   GGSL
TXBWIC21030-71549-02044-60000012D0000092D00116000000204410   GGSL
TXBWIC21030-71549-02045-30000064D0000762D00149000000204510   GGSL
TXBWIC21030-71549-02047-70000792D0004385D00659000000204710   GGSL
TXBWIC21030-71549-02049-10000792D0005180D00708000000204910   GGSL
TXBWIC21030-71549-02054-50000232D0001272D00032000000205408   GGSL
TXBWIC21030-71549-02055-20000978D0002105D02064000240205506   GGSL
TXBWIC21030-71549-02057-60000056C0002105C00281000000205710   GGSL
TXBWIC21030-71549-02127-60000016D0000193D00008000040212710   GGSL
TXBWIC21030-71549-02208-20006728D0054897D00768000240220810   GGSL
TXBWIC21030-71549-02219-80000348D0002402D00000000000221910   GGSL
TXBWIC21030-71549-02575-50000040D0012770D00000000000200328   GGSL
TXBWIC21030-71549-02756-80000360D0000860D00280000000275612   GGSL
TXBWIC21030-71549-02822-00004728D0042971D01773005880282210   GGSL
TXBWIC21030-71549-03390-30000006D0000084D00000000000339010   GGSL
TXBWIC21030-71549-03455-90000018D0000097D00012000000345510   GGSL
TXBWIC21030-71549-03456-60000324D0001338D00132002460345610   GGSL
TXBWIC21030-71549-03964-60000234D0001480D00078000000396410   GGSL
TXBWIC21030-71549-03987-50000108D0001137D00027000000398710   GGSL
TXBWIC21030-71549-04253-00000564D0003536D00736000040425310   GGSL
TXBWIC21030-71549-04318-60000060D0000263D00658000009994318   GGSL
TXBWIC21030-71549-04378-00000228D0001866D00516000480437806   GGSL
TXBWIC21030-71549-04380-30000368D0001312D00400000880438006   GGSL
TXBWIC21030-71549-04385-80000810D0003347D01215004200438580   GGSL
TXBWIC21030-71549-04465-70000008D0000097D00024000000446505   GGSL
TXBWIC21030-71549-04475-60000780D0011618D00000000280447505   GGSL
TXBWIC21030-71549-04477-00001182D0005127D00144000000447705   GGSL
TXBWIC21030-71549-04478-70001356D0011603D00360000000447805   GGSL
TXBWIC21030-71549-04479-40001644D0013024D01032000000447905   GGSL
TXBWIC21030-71549-04481-70001240D0010420D00128000000448105   GGSL
TXBWIC21030-71549-04486-20000918D0006880D00012000120448605   GGSL
TXBWIC21030-71549-04487-90000630D0004421D00018000000448705   GGSL
TXBWIC21030-71549-04488-60000076D0001032D00048000000448805   GGSL
TXBWIC21030-71549-04489-30000008D0000072D00000000000448905   GGSL
TXBWIC21030-71549-04491-60000120D0001070D00564000000449105   GGSL
TXBWIC21030-71549-04493-00000064D0000552D00088000000449305   GGSL
TXBWIC21030-71549-04494-70000168D0001377D00588000000449405   GGSL
TXBWIC21030-71549-04495-40000054D0000251D00138000000449505   GGSL
TXBWIC21030-71549-04613-20000072D0000511D00156000120461412   GGSL
TXBWIC21030-71549-04619-40000012D0000053D00000000000461912   GGSL
TXBWIC21030-71549-04620-00000036D0000182D00000000000462012   GGSL
TXBWIC21030-71549-04657-60000090D0000770D00150000000465705   GGSL
TXBWIC21030-71549-04745-00000060D0000428D00310000060474510   GGSL
TXBWIC21030-71549-04755-90000012D0000106D00000000000475510   GGSL
TXBWIC21030-71549-04756-60000020D0000291D00000000000475610   GGSL
TXBWIC21030-71549-04757-30000188D0002716D00136000000475705   GGSL
TXBWIC21030-71549-04758-00000017D0000395D00017000000475805   GGSL
TXBWIC21030-71549-04759-70000152D0010043D00014000000475905   GGSL
TXBWIC21030-71549-04910-20000018D0000065D00120000000491010   GGSL
TXBWIC21030-71549-07472-20000006D0000022D00000000000747210   GGSL
TXBWIC21030-71549-08410-30001746D0015060D00744003120841010   GGSL
TXBWIC21030-71549-43331-40000372D0002149D01332000000433310   GGSL
TXBWIC21030-71549-43361-10002412D0039534D00464000000433610   GGSL
TXBWIC21030-71549-43371-00000006D0000177D00246000120433710   GGSL
TXBWIC21030-71549-43701-50000324D0006588D00372000000437010   GGSL
TXBWIC21030-71549-43887-60001212D0003908D00300001444388710   GGSL
TXBWIC21030-71549-43890-60000006D0000032D00006000004389005   GGSL
TXBWIC21030-71549-44551-50000004D0000061D00008000040445510   GGSL
TXBWIC21030-71549-46008-20000016D0000249D00148000004600810   GGSL
TXBWIC21030-71549-46025-90000030D0000153D00498000844602510   GGSL
TXBWIC21030-71549-46132-40002124D0028071D00492000004613264   GGSL
TXBWIC21030-71549-46134-80000636D0002744D00132000004613406   GGSL
TXBWIC21030-71549-46135-50000012D0000138D00012000004613504   GGSL
TXBWIC21030-71549-46139-30000020D0000244D00016000004613905   GGSL
TXBWIC21030-71549-46503-20000480D0007157D00558000004650306   GGSL
TXBWIC21030-71549-46510-00000006D0000093D00150000064651005   GGSL
TXBWIC21030-71549-46527-80000389C0000093C00132000004652705   GGSL
TXBWIC21030-71549-99008-40000006D0000090D00456002709900810   GGSL
TXBWIC21030-71549-99019-00000078D0001037D00087000129901910   GGSL
TXBWIC21030-71693-02102-30000001D0000650D000000000002-P1000F GGSL
TXBWIC21030-71693-02104-70000001D0000650D000000000002-P1000VSGGSL
TXBWIC21030-71693-02115-30000001D0000163D000000000002-HB250  GGSL
TXBWIC21030-71693-02251-80000001D0000163D000000000002-BF250  GGSL
TXBWIC21030-71693-04113-70000003D0000924D000000000004-LG1100VGGSL
TXBWIC21030-71693-04114-40000001D0000000D000000000004-LG1100VGGSL
TXBWIC21030-71693-04153-30000001D0000420D000000000004-LG1500VGGSL
TXBWIC21030-71693-04750-40000001D0000210D000000000004-LG750  GGSL
TXBWIC21030-71693-04752-80000001D0000210D000000000004-LG750S GGSL
TXBWIC21030-71693-92602-10000001D0000260D000000000002-PN250  GGSL
TXBWIC21030-71693-98401-40000001D0000425D000000000002-P450PN GGSL
TXBWIC21030-71693-98601-80000001D0000293D000000000002-PHH450 GGSL
TXBWIC21030-71693-98701-50000004D0001172D000000000002-PAO450 GGSL
TXBWIC21030-71693-98801-20000001D0000506D000000000002-UB450  GGSL
TXBWIC21030-71693-98901-90000001D0000400D000000000002-HTP250 GGSL
TXBWIC21030-71898-43163-40000699D0013995D00462000057800      GGSL
TXBWIC21030-71898-43180-10000545D0008932D00594000097450      GGSL
TXBWIC21030-71898-43213-60000838D0017092D00717000007324      GGSL
TXBWIC21030-71898-43214-30000339D0005805D00221000137326      GGSL
TXBWIC21030-71898-43215-00000166D0001795D000500000032150     GGSL
TXBWIC21030-72525-00003-00000168D0000562D0071400300HRT-6     GGSL
TXBWIC21030-72525-00005-40000240D0001190D0055800072HRP-16    GGSL
TXBWIC21030-72525-00022-10000120D0000920D0025500078HBB-32    GGSL
TXBWIC21030-72525-00048-10000039D0000166D0018000000HDE-8     GGSL
TXBWIC21030-72525-00055-90000113D0000799D0024000024EGG-16    GGSL
TXBWIC21030-72525-00078-80000060D0000204D0007500030BBTRP     GGSL
TXBWIC21030-72532-00014-80002227D0016562D0180700696          GGSL
TXBWIC21030-72532-00015-50000873D0020488D0077900325          GGSL
TXBWIC21030-72532-00016-20000292D0012418D0023600014          GGSL
TXBWIC21030-72532-00017-90000229D0027675D0019800005          GGSL
TXBWIC21030-72532-22310-30000180D0001290D0038000160stspray-10GGSL
TXBWIC21030-72693-00014-80000056D0000588D004240000082770001  GGSL
TXBWIC21030-72693-00015-50000165D0011385D007140001382100001  GGSL
TXBWIC21030-72693-00022-30000037D0012783D002120000583000002  GGSL
TXBWIC21030-72693-00029-20000027D0008505D000400001Q82100002  GGSL
TXBWIC21030-72693-00032-20000005D0000170D000480000082100006  GGSL
TXBWIC21030-72693-00046-90000127D0006344D00937000014985      GGSL
TXBWIC21030-72693-00102-20000002D0000110D001560000082701020  GGSL
TXBWIC21030-72693-00210-40000028D0001624D001780000082690021  GGSL
TXBWIC21030-72693-00332-30000012D0000144D000460000082300330  GGSL
TXBWIC21030-72693-00368-20000001D0000051D000320000082690036  GGSL
TXBWIC21030-72693-00480-10000710D0053841D010640005082002490  GGSL
TXBWIC21030-72693-00498-60000380D0014381D008720001682002489  GGSL
TXBWIC21030-72693-00505-10000660D0009871D019860011482002488  GGSL
TXBWIC21030-72693-01004-80000035D0001740D001490000082100100  GGSL
TXBWIC21030-72693-01020-80000131D0028448D001760001583014144  GGSL
TXBWIC21030-72693-02479-30000377D0001879D0316700167CSI2479   GGSL
TXBWIC21030-72693-02504-20000177D0002214D00393001322504.0    GGSL
TXBWIC21030-72693-02506-60001771D0027660D03677001912506.0    GGSL
TXBWIC21030-72693-02507-30000177D0026294D00450000362507.0    GGSL
TXBWIC21030-72693-02686-50000158D0004559D0086000216CSI2686   GGSL
TXBWIC21030-72693-02750-30000020D0000770D0008900000CSI2750   GGSL
TXBWIC21030-72693-03052-70000036D0002236D000180000082300305  GGSL
TXBWIC21030-72693-03143-20000060D0000580D005160000082300314  GGSL
TXBWIC21030-72693-03154-80000156D0001822D010140000682300315  GGSL
TXBWIC21030-72693-03164-70000009D0000091D000440000082300316  GGSL
TXBWIC21030-72693-03174-60000015D0000160D000780000082300317  GGSL
TXBWIC21030-72693-03194-40000006D0000165D000900000082300319  GGSL
TXBWIC21030-72693-03254-50000044D0002472D0036200006CSI3254   GGSL
TXBWIC21030-72693-03265-10000042D0001455D001100000082300326  GGSL
TXBWIC21030-72693-03270-50000004D0000925D000040000082300327  GGSL
TXBWIC21030-72693-03284-20000012D0000098D001320000682300328  GGSL
TXBWIC21030-72693-03298-90000114D0008322D001650009682300329  GGSL
TXBWIC21030-72693-03598-00003835D0133754D0262500452CSI3598   GGSL
TXBWIC21030-72693-03599-70001608D0152760D030480055582003599  GGSL
TXBWIC21030-72693-04320-60002692D0094009D08806011364320      GGSL
TXBWIC21030-72693-04430-20000576D0009262D04062002044430.0    GGSL
TXBWIC21030-72693-04431-90000492D0010847D02589001214431.0    GGSL
TXBWIC21030-72693-04432-60002177D0061839D07794006064432      GGSL
TXBWIC21030-72693-04435-70003028D0107840D057990011882004435  GGSL
TXBWIC21030-72693-04438-80006375D0093253D07350005174438      GGSL
TXBWIC21030-72693-04491-30000276D0001514D00690000724491      GGSL
TXBWIC21030-72693-04493-70000129D0002473D00719000604493      GGSL
TXBWIC21030-72693-04500-20000013D0000780D000380000682304500  GGSL
TXBWIC21030-72693-04504-00000204D0005179D01029000184505.0    GGSL
TXBWIC21030-72693-04505-70000617D0041384D03260001724506.0    GGSL
TXBWIC21030-72693-04506-40000293D0004762D01542000364504      GGSL
TXBWIC21030-72693-04508-80000166D0001746D02424000044508      GGSL
TXBWIC21030-72693-04515-60000029D0001287D00076000044515.0    GGSL
TXBWIC21030-72693-04517-00000024D0001845D00087000004517      GGSL
TXBWIC21030-72693-04964-20007327D0067220D31814031524964      GGSL
TXBWIC21030-72693-05004-40000696D0003572D01680000125004      GGSL
TXBWIC21030-72693-05005-10000515D0006373D02724000245005      GGSL
TXBWIC21030-72693-05007-50000142D0003997D00845000905007.0    GGSL
TXBWIC21030-72693-05200-00000368D0003665D009920001230466.0   GGSL
TXBWIC21030-72693-05201-70000468D0002446D02016002045201      GGSL
TXBWIC21030-72693-05202-40000420D0005346D01374000725202      GGSL
TXBWIC21030-72693-06002-90000774D0008120D0272400192MART4318  GGSL
TXBWIC21030-72693-06003-60000516D0011883D0104200468MART4319  GGSL
TXBWIC21030-72693-08300-40000834D0034016D03884001488300.0    GGSL
TXBWIC21030-72693-10002-20000017D0000198D000340000010002.0   GGSL
TXBWIC21030-72693-10011-40000420D0002837D0110400024MART4317  GGSL
TXBWIC21030-72693-10012-10000013D0000228D001060000482210011  GGSL
TXBWIC21030-72693-10015-20000042D0000392D001920000082210015  GGSL
TXBWIC21030-72693-10221-70000064D0001748D002230000082210022  GGSL
TXBWIC21030-72693-10231-60000042D0000364D004380000082210023  GGSL
TXBWIC21030-72693-14057-80000369D0024430D005120001883014005  GGSL
TXBWIC21030-72693-14081-30000020D0000982D000040000883014008  GGSL
TXBWIC21030-72693-20038-80000004D0001063D000000000083080147  GGSL
TXBWIC21030-72693-21037-00000035D0000206D000240000082021037  GGSL
TXBWIC21030-72693-24010-00000057D0001750D00166000602401      GGSL
TXBWIC21030-72693-24030-80000296D0021824D00553001142403      GGSL
TXBWIC21030-72693-24925-70000081D0003258D004500000082002492  GGSL
TXBWIC21030-72693-24957-80000262D0001464D001960002482002495  GGSL
TXBWIC21030-72693-29101-00000364D0020020D002170004583012910  GGSL
TXBWIC21030-72693-29912-20000911D0010975D0178100384QP12991   GGSL
TXBWIC21030-72693-30068-20000004D0000484D000000000083013006  GGSL
TXBWIC21030-72693-31550-10000004D0000660D000850000082300332  GGSL
TXBWIC21030-72693-31766-60000024D0000344D007020002431766     GGSL
TXBWIC21030-72693-31866-30000012D0000208D000120000031866.0   GGSL
TXBWIC21030-72693-31967-70000005D0000668D000220000031968     GGSL
TXBWIC21030-72693-31973-80000034D0000820D004250004831973.0   GGSL
TXBWIC21030-72693-31975-20000044D0002404D003570000031975.0   GGSL
TXBWIC21030-72693-31984-40000732D0007548D017170010831984.0   GGSL
TXBWIC21030-72693-31985-10000279D0002920D000960008431985     GGSL
TXBWIC21030-72693-33655-10000004D0000140D000000002083013365  GGSL
TXBWIC21030-72693-33688-90000135D0009203D002500000383013368  GGSL
TXBWIC21030-72693-33730-90000008D0001251D000060001283013373  GGSL
TXBWIC21030-72693-33850-00000127D0013316D003670003583013385  GGSL
TXBWIC21030-72693-33953-80000652D0023631D0123000242          GGSL
TXBWIC21030-72693-34530-00000001D0000083D000180000083013453  GGSL
TXBWIC21030-72693-36208-60000033D0001269D004980000083013620  GGSL
TXBWIC21030-72693-36980-10000010D0000856D000000000083013835  GGSL
TXBWIC21030-72693-38178-00000176D0008491D000000049683013817  GGSL
TXBWIC21030-72693-38271-80000024D0002099D000540000013827     GGSL
TXBWIC21030-72693-38830-70000006D0000181D000060000083013833  GGSL
TXBWIC21030-72693-39990-70000002D0000682D000000000083013999  GGSL
TXBWIC21030-72693-40010-80000039D0006403D000620000883014003  GGSL
TXBWIC21030-72693-40177-80000228D0001262D03372000124017B     GGSL
TXBWIC21030-72693-41888-20000003D0000411D000000003183014188  GGSL
TXBWIC21030-72693-44290-00000203D0002254D00006000964429      GGSL
TXBWIC21030-72693-44410-20000827D0027519D02187002794441.0    GGSL
TXBWIC21030-72693-44430-00000352D0039147D0066200076MART4443  GGSL
TXBWIC21030-72693-44650-20000048D0000921D00207000124465.0    GGSL
TXBWIC21030-72693-44660-10000027D0001694D00105000084466      GGSL
TXBWIC21030-72693-45000-40000312D0001920D01353001804500.0    GGSL
TXBWIC21030-72693-45010-30000708D0006317D01088002044501      GGSL
TXBWIC21030-72693-45020-20000600D0008485D01164001924502      GGSL
TXBWIC21030-72693-45030-10000043D0002108D00157000004503.0    GGSL
TXBWIC21030-72693-45115-50000177D0001104D002370008482004511  GGSL
TXBWIC21030-72693-45530-60000004D0000138D00024000124553.0    GGSL
TXBWIC21030-72693-46930-30000456D0003811D00864000364693      GGSL
TXBWIC21030-72693-46950-10000200D0005266D00196000024695      GGSL
TXBWIC21030-72693-46970-90000972D0144176D00147000154697.0    GGSL
TXBWIC21030-72693-50064-80000204D0001744D010680205282005006  GGSL
TXBWIC21030-72693-50096-90000001D0000095D001010000082005009  GGSL
TXBWIC21030-72693-69370-80000036D0000273D003480000082690037  GGSL
TXBWIC21030-72693-70004-80000188D0001778D002650006682770008  GGSL
TXBWIC21030-72693-77034-80000120D0001260D005640000082770003  GGSL
TXBWIC21030-72693-81001-30000011D0000173D001290001682810002  GGSL
TXBWIC21030-72693-82104-00001630D0048835D056220068782100005  GGSL
TXBWIC21030-72693-82303-70000192D0001079D006360001282300001  GGSL
TXBWIC21030-72711-60018-30000006D0000250D000420000060012     GGSL
TXBWIC21030-72725-00023-80000076D0001042D0042000004HBB-128   GGSL
TXBWIC21030-72725-00158-70000024D0000944D0021600000BLKBB-128 GGSL
TXBWIC21030-72725-00183-90000036D0000492D0013200012BLKBB-326 GGSL
TXBWIC21030-72725-00213-30000048D0000384D0017100000BLKBB-16A GGSL
TXBWIC21030-72725-00214-00000012D0000082D0008400000BLKBB-P4  GGSL
TXBWIC21030-72725-00215-40000008D0000210D0004000004BBKIT-LGVPGGSL
TXBWIC21030-72725-00269-00000183D0001188D0099300648DE-FG105P GGSL
TXBWIC21030-72725-00407-60000192D0001158D0104400012DE-FG2P   GGSL
TXBWIC21030-72725-00408-30000216D0001857D0078400440DE-FG4P   GGSL
TXBWIC21030-72725-00420-50000001D0000151D0000000000GRR-20    GGSL
TXBWIC21030-72725-00437-30000012D0000077D0000000000SHAKE-IT  GGSL
TXBWIC21030-72725-00461-80000276D0000759D0000000648360-32S   GGSL
TXBWIC21030-72868-00000-00000288D0000214D0974400096M330      GGSL
TXBWIC21030-72868-00300-40000912D0002718D0054000120M6006     GGSL
TXBWIC21030-72868-00326-40005028D0007249D3384005880M326      GGSL
TXBWIC21030-72868-00800-90000186D0001838D0112200972M6009     GGSL
TXBWIC21030-72868-02000-10000048D0000675D0001800006M9015     GGSL
TXBWIC21030-72868-02220-30000256D0001615D0255200032M6004     GGSL
TXBWIC21030-72868-02300-20000030D0000198D0005400012M7001-1   GGSL
TXBWIC21030-72868-02400-90000044D0000503D0014400000M7002-2   GGSL
TXBWIC21030-72868-03620-00000111D0008022D0066800044VP362     GGSL
TXBWIC21030-72868-03630-90000420D0003086D0147700084VP363     GGSL
TXBWIC21030-72868-03648-40001336D0018009D0607400120VP364B    GGSL
TXBWIC21030-72868-09012-70000030D0000539D0006000000M9012     GGSL
TXBWIC21030-72868-09014-10000040D0000632D0000000000M9014     GGSL
TXBWIC21030-72868-09320-30012024D0002206D1533649104M320      GGSL
TXBWIC21030-72868-11751-00000066D0000432D0015000000M751K     GGSL
TXBWIC21030-72868-13035-90000564D0000493D0924000360M035      GGSL
TXBWIC21030-72868-13150-90000216D0000168D0000000036M150      GGSL
TXBWIC21030-72868-13200-10001980D0002728D0624000564200R      GGSL
TXBWIC21030-72868-13308-40000088D0000834D0100800012M308      GGSL
TXBWIC21030-72868-13309-10015264D0002698D8589600432M309      GGSL
TXBWIC21030-72868-13325-10007920D0003054D2268800432M325      GGSL
TXBWIC21030-72868-13327-50000450D0000090D1770000600M327      GGSL
TXBWIC21030-72868-13362-60000004D0000020D0002500002M362      GGSL
TXBWIC21030-72868-24178-90000018D0000450D0005700003M241      GGSL
TXBWIC21030-72868-36410-50000048D0000922D0002000004VP364B-10 GGSL
TXBWIC21030-72868-54002-80001404D0001809D0541200144M668      GGSL
TXBWIC21030-72868-54102-50002220D0003578D0826800180M669      GGSL
TXBWIC21030-72874-00096-70000012D0000342D00054000004085M     GGSL
TXBWIC21030-72874-00097-40000018D0000517D00030000004085L     GGSL
TXBWIC21030-72874-00098-10000018D0000508D00060000004085X     GGSL
TXBWIC21030-72874-01537-40000012D0000036D00006000008426X     GGSL
TXBWIC21030-72874-06464-80000960D0001898D01560000728412M     GGSL
TXBWIC21030-72874-06465-50000300D0000728D00516000008412L     GGSL
TXBWIC21030-72874-06466-20000156D0000313D00000000368412X     GGSL
TXBWIC21030-72874-06484-60000252D0000644D01128000008412B     GGSL
TXBWIC21030-72874-06851-60000006D0000070D00018000006039L     GGSL
TXBWIC21030-72874-06852-30000012D0000130D00018000006039X     GGSL
TXBWIC21030-72874-06946-90000024D0000075D00060000368438XS    GGSL
TXBWIC21030-72874-06947-60000120D0000275D00084000008438S     GGSL
TXBWIC21030-72874-06949-00000996D0002222D00180000008442L     GGSL
TXBWIC21030-72874-07229-20000012D0000057D00012000008445M     GGSL
TXBWIC21030-72874-07231-50000031D0000140D00024000008445L     GGSL
TXBWIC21030-72874-07747-10000996D0002322D00072000728438L     GGSL
TXBWIC21030-72874-08550-60000006D0000031D00024000004063L     GGSL
TXBWIC21030-72874-08551-30000018D0000091D00012000004063X     GGSL
TXBWIC21030-72874-40110-80000048D0000056D00012000004011      GGSL
TXBWIC21030-72874-40200-60000144D0000114D00168000004020L     GGSL
TXBWIC21030-72874-40206-80000012D0000010D00132000004020B     GGSL
TXBWIC21030-72874-40674-50000048D0000472D00048000004067L     GGSL
TXBWIC21030-72874-40713-10000024D0000129D00024000004071M     GGSL
TXBWIC21030-72874-40920-30000036D0000117D00048000004092      GGSL
TXBWIC21030-72874-60233-80000006D0000074D00030000006023M     GGSL
TXBWIC21030-72874-60234-50000006D0000074D00018000006023L     GGSL
TXBWIC21030-73035-01212-60000108D0000657D002160030001212     GGSL
TXBWIC21030-73035-01310-90000336D0001316D005160033601310     GGSL
TXBWIC21030-73035-01312-30000084D0000382D000240001201312     GGSL
TXBWIC21030-73035-02010-70000064D0000158D000320000002010     GGSL
TXBWIC21030-73035-02610-90000960D0000371D000000000002610     GGSL
TXBWIC21030-73035-02611-60001120D0000426D001600000002611     GGSL
TXBWIC21030-73035-02612-30000640D0000249D016000320002612     GGSL
TXBWIC21030-73035-04128-70000008D0000045D000000000004128     GGSL
TXBWIC21030-73035-04226-00000065D0000270D002450041004226     GGSL
TXBWIC21030-73035-06002-80000168D0000118D001320002406001     GGSL
TXBWIC21030-73035-06127-80000192D0000744D001520042406127     GGSL
TXBWIC21030-73035-06703-40000180D0000464D003480030006703     GGSL
TXBWIC21030-73035-08251-80000012D0000072D000120000008251     GGSL
TXBWIC21030-73035-09026-10000006D0000038D000000000009026     GGSL
TXBWIC21030-73035-09226-50000006D0000037D000180000009226     GGSL
TXBWIC21030-73035-09326-20000006D0000038D000540000009326     GGSL
TXBWIC21030-73035-09327-90000006D0000046D002400000009327     GGSL
TXBWIC21030-73035-09623-20000003D0000055D000150000009623     GGSL
TXBWIC21030-73035-25001-60000026D0000573D000010011105031T    GGSL
TXBWIC21030-73513-00339- 0000054D0000271D00012000003003310   GGSL
TXBWIC21030-73561-00022-20000372D0001716D01068003362000221   GGSL
TXBWIC21030-73561-00028-40001848D0013786D01902000241000283   GGSL
TXBWIC21030-73561-00042-00003324D0014824D09090003902000422   GGSL
TXBWIC21030-73561-00044-40000126D0001043D00222000541000441   GGSL
TXBWIC21030-73561-00055-00001788D0004809D01278003181000551   GGSL
TXBWIC21030-73561-00070-30000162D0000787D00282000901000701   GGSL
TXBWIC21030-73561-00099-40001410D0003283D04356000122000992   GGSL
TXBWIC21030-73561-00119-90000240D0005106D00260000081001193   GGSL
