NJARET2110 -82155-96190-20000032D0000251D0007100009GXP158CC  GGSL
NJARET21100-10052-00333-10000024D0000110D000000000000333     GGSL
NJARET21100-10052-00333-10000035D0000135D000010000100333X    GGSL
NJARET21100-10367-01110-60000024D0000094D00128000131110      GGSL
NJARET21100-10367-01111-30000048D0000188D00103000101111      GGSL
NJARET21100-10367-01112-00000056D0000220D00056000071112      GGSL
NJARET21100-10367-01120-50000160D0000627D00155000241120      GGSL
NJARET21100-10367-01121-20000032D0000188D00092000291121      GGSL
NJARET21100-10367-01122-90000024D0000141D00142000241122      GGSL
NJARET21100-10367-01130-40000064D0000410D00136000071130      GGSL
NJARET21100-10367-01140-30000008D0000031D00054000041140      GGSL
NJARET21100-10367-01160-10000016D0000125D00003000001160      GGSL
NJARET21100-10367-02151-80000048D0000360D0000100001ML2151    GGSL
NJARET21100-11192-86019-80000006D0000045D0001000000KMG6      GGSL
NJARET21100-12587-70028-00000012D0000067D003580000070028     GGSL
NJARET21100-12587-70054-90000009D0000081D000380000070054     GGSL
NJARET21100-12587-70419-60000012D0000067D003150000070419     GGSL
NJARET21100-12587-78685-70000012D0000108D000490000078685     GGSL
NJARET21100-12587-79008-30000474D0004190D000000000079008     GGSL
NJARET21100-14021-00338-40000006D0000035D00004000002000      GGSL
NJARET21100-14021-01317-80000010D0000092D00020000002100      GGSL
NJARET21100-14021-01418-20000360D0001656D00010000011024      GGSL
NJARET21100-14021-01418-20000780D0003588D00012000001060      GGSL
NJARET21100-14400-62000-30000001D0000013D000110000062000     GGSL
NJARET21100-15561-20125-40000006D0000037D0000000000PT125     GGSL
NJARET21100-15561-21643-20000003D0000215D0000300000PT1643    GGSL
NJARET21100-15759-01521-20000018D0000307D0000000000R1364G    GGSL
NJARET21100-15759-01521-20000005D0000085D0000000000R1364GX   GGSL
NJARET21100-16069-00005-90000072D0000548D0002200004TP15C     GGSL
NJARET21100-16069-00007-30000072D0000490D0000200000BN1       GGSL
NJARET21100-16069-00008-00000024D0000171D0007400013BN2       GGSL
NJARET21100-16069-00013-40000030D0000903D0002100003BN3       GGSL
NJARET21100-16069-00014-10000024D0000549D0001000006BN4       GGSL
NJARET21100-16069-00019-60000012D0000146D0000500000TP30C     GGSL
NJARET21100-16069-00030-10000012D0000166D0000100000OW6       GGSL
NJARET21100-16069-00032-50000060D0000676D0008100003HG25      GGSL
NJARET21100-16069-00033-20000006D0000135D0002300004HG50      GGSL
NJARET21100-16069-00047-90000012D0000091D0000900001TE12C     GGSL
NJARET21100-16069-00049-30000012D0000238D0000300003DX7       GGSL
NJARET21100-16069-00050-90000018D0000550D0001900000DX14      GGSL
NJARET21100-16069-00072-10000060D0000404D0000800001TSD12     GGSL
NJARET21100-16069-00076-90000144D0000858D0003700001PN10      GGSL
NJARET21100-16069-00077-60000108D0001181D0000100001PN14      GGSL
NJARET21100-16069-00079-00000012D0000403D0001300000PN28      GGSL
NJARET21100-16069-00218-30000048D0000292D0001000004HST100    GGSL
NJARET21100-16069-00393-70000024D0000091D0002600005GS20      GGSL
NJARET21100-16069-00394-40000018D0000932D0000300001PN45      GGSL
NJARET21100-16069-00446-00000048D0000489D0000000000RC168W    GGSL
NJARET21100-16069-00479-80000024D0000638D0009800002E316B     GGSL
NJARET21100-16069-00498-90000042D0000476D0017700002HGP1012   GGSL
NJARET21100-16069-00499-60000004D0000077D0015500004HGP1020   GGSL
NJARET21100-16069-00518-40000024D0000123D0001100003SG2512    GGSL
NJARET21100-16069-00519-10000132D0000950D0000100000SPB56     GGSL
NJARET21100-16069-00545-00000036D0000148D0000000000PD36      GGSL
NJARET21100-16069-00585-60000012D0000073D0000000000DCLLF412  GGSL
NJARET21100-16069-00597-90000006D0000129D0000600000BTK6      GGSL
NJARET21100-16069-00625-90000048D0001508D0000100000DXP12     GGSL
NJARET21100-16069-00626-60000010D0000065D0000100000PTG210    GGSL
NJARET21100-17500-08120-00000312D0000437D001210000108120     GGSL
NJARET21100-17500-08150-70001152D0001832D001640001308150M    GGSL
NJARET21100-17500-91316-70000012D0000122D000350000391316     GGSL
NJARET21100-18222-00017-30000002D0000347D0000000000PP17      GGSL
NJARET21100-18222-00101-90000078D0000254D0002700015CS06101   GGSL
NJARET21100-18222-00103-30000066D0000213D0000800008CS06103   GGSL
NJARET21100-18222-00105-70000114D0000373D0005000020CS06105   GGSL
NJARET21100-18222-00107-10000096D0000429D0007400005CS06107   GGSL
NJARET21100-18222-00109-50000072D0000230D0004700008CS06109   GGSL
NJARET21100-18222-00110-10000096D0000306D0001200008CS06110   GGSL
NJARET21100-18222-00206-10000042D0000206D0000200000CS06206   GGSL
NJARET21100-18222-00208-50000012D0000060D0001300002CS06208   GGSL
NJARET21100-18222-00226-90000004D0000012D0003600001CS04226   GGSL
NJARET21100-18222-00501-70000192D0000312D0000400002CS12501   GGSL
NJARET21100-18222-00503-10000012D0000028D0000300000CS503     GGSL
NJARET21100-18222-00505-50000768D0000935D0001300002CS12505   GGSL
NJARET21100-18222-00507-90000324D0000469D0004600008CS12507   GGSL
NJARET21100-18222-00509-30000324D0000532D0009200016CS12509   GGSL
NJARET21100-18222-00513-00000024D0000054D0000400004CS12513   GGSL
NJARET21100-18222-00526-00000126D0000346D0000900009CS06526   GGSL
NJARET21100-18222-00527-70000048D0000079D0002600007CS12527   GGSL
NJARET21100-18222-00529-10000048D0000090D0005700002CS12529   GGSL
NJARET21100-18222-00531-40000276D0000652D0006800005CS12531   GGSL
NJARET21100-18222-00535-20000192D0000317D0003700005CS12535   GGSL
NJARET21100-18222-00543-70000180D0000216D0003700003CS12543   GGSL
NJARET21100-18222-00545-10000084D0000154D0002600003CS12545   GGSL
NJARET21100-18222-00553-60000012D0000021D0000700004CS12553   GGSL
NJARET21100-18222-00559-80000096D0000158D0008700005CS12559   GGSL
NJARET21100-18222-00561-10000096D0000173D0002700002CS12561   GGSL
NJARET21100-18222-00565-90000060D0000124D0000000000CS12565   GGSL
NJARET21100-18222-00569-70000144D0000266D0005500007CS12569   GGSL
NJARET21100-18222-00571-00000216D0000486D0001900000CS12571   GGSL
NJARET21100-18222-00583-30000132D0000313D0003100008CS12583   GGSL
NJARET21100-18222-00608-30000024D0000092D0000400002CS608     GGSL
NJARET21100-18222-00701-10000016D0000031D0000000001CS701     GGSL
NJARET21100-18222-00707-30000008D0000025D0000000000CS707     GGSL
NJARET21100-18222-00730-10000112D0000246D0012600041CS730     GGSL
NJARET21100-18222-00950-30000048D0000056D0003100000CS950     GGSL
NJARET21100-18222-50501-20000048D0000059D0009800002CS1250501XGGSL
NJARET21100-18222-50527-20000096D0000115D0008200011CS1250527XGGSL
NJARET21100-18222-50559-30000048D0000056D0008500004CS1250559XGGSL
NJARET21100-18506-00116-20000132D0000874D000110000711612     GGSL
NJARET21100-18506-00117-90000042D0000401D00022000151176      GGSL
NJARET21100-18506-00123-00000012D0000068D0000400001123       GGSL
NJARET21100-18506-00130-80000012D0000068D0002000001130       GGSL
NJARET21100-18506-02001-90000006D0000069D00012000032001      GGSL
NJARET21100-19200-00619-40000564D0002096D011730000000706     GGSL
NJARET21100-19200-00619-40000300D0000990D000510000500706M    GGSL
NJARET21100-19200-78033-90000006D0000025D00145000001920078033GGSL
NJARET21100-19200-78626-30000189D0000533D002860000178626     GGSL
NJARET21100-19200-78914-10000036D0000102D001890000278914     GGSL
NJARET21100-19200-79838-90000024D0000099D001550000079838     GGSL
NJARET21100-19200-83262-50000480D0001658D00062000031920082362GGSL
NJARET21100-19200-83721-70000336D0000860D002510003183721     GGSL
NJARET21100-19200-89973-40000036D0000576D000130000189973     GGSL
NJARET21100-19200-98665-60000016D0000071D000880000098665     GGSL
NJARET21100-19263-25010-70000023D0001844D00005000032501      GGSL
NJARET21100-19263-25030-50000016D0002220D00000000012503      GGSL
NJARET21100-19263-25035-00000016D0000488D0004200005250350    GGSL
NJARET21100-19263-25040-40000003D0000417D00001000012504      GGSL
NJARET21100-19263-25045-90000012D0000491D0002300004250450    GGSL
NJARET21100-19263-25055-80000048D0002424D0003400006250550    GGSL
NJARET21100-19263-25350-40000120D0000324D00000000002535      GGSL
NJARET21100-19263-25510-20000100D0000215D00251000192551      GGSL
NJARET21100-19263-25520-10000775D0001922D00170000172552      GGSL
NJARET21100-19263-25530-00002175D0006199D00243000292553      GGSL
NJARET21100-19263-25540-90001981D0006676D00185000332554      GGSL
NJARET21100-19263-25550-80000550D0002360D00099000162555      GGSL
NJARET21100-19263-25670-30000030D0000429D00026000062567      GGSL
NJARET21100-19263-25680-20000032D0000625D00039000052568      GGSL
NJARET21100-19263-25730-40000004D0000080D00000000002573      GGSL
NJARET21100-19263-25750-20000176D0001183D00018000032575      GGSL
NJARET21100-19263-25760-10000492D0004167D00074000102576      GGSL
NJARET21100-19263-25770-00000378D0004991D00043000282577      GGSL
NJARET21100-19263-25780-90000235D0005579D00067000282578      GGSL
NJARET21100-19263-25950-60000216D0000257D00046000142595      GGSL
NJARET21100-19263-26190-50000036D0001723D00025000062619      GGSL
NJARET21100-19263-26210-00000132D0001236D00081000132621      GGSL
NJARET21100-19263-26280-30000005D0000154D00003000032628      GGSL
NJARET21100-19263-26300-80000072D0000174D00085000162630      GGSL
NJARET21100-19263-26310-70000120D0000340D00102000082631      GGSL
NJARET21100-19263-26560-60000096D0001381D00086000022656      GGSL
NJARET21100-19263-26580-40000064D0001336D00012000012658      GGSL
NJARET21100-21344-00321-20000004D0000155D0008200011WX15064   GGSL
NJARET21100-21344-00322-90000004D0000155D0004800007WX15065   GGSL
NJARET21100-21344-00338-00000001D0000287D0006200001400338    GGSL
NJARET21100-21344-00339-70000005D0000785D0044800002400339    GGSL
NJARET21100-21344-00340-30000001D0000149D0066100002400340    GGSL
NJARET21100-21344-00346-50000006D0000054D0005700001400346    GGSL
NJARET21100-21344-00347-20000004D0000076D0002100001400347    GGSL
NJARET21100-21344-00396-00000004D0000142D0000900002JFG18016  GGSL
NJARET21100-21344-00397-70000003D0000120D0008000002JFG18018  GGSL
NJARET21100-21344-00407-30000002D0000263D0009400001ZT185016  GGSL
NJARET21100-21344-00409-70000012D0000073D0007200005ZT185018  GGSL
NJARET21100-21344-00411-00000002D0000077D0007800001ZT185021  GGSL
NJARET21100-21344-00422-60000002D0000069D0007500004ZT185023  GGSL
NJARET21100-21344-00423-30000008D0001179D0062500265WX17658   GGSL
NJARET21100-21344-00719-70000006D0000149D0010600006WX17413   GGSL
NJARET21100-21344-00720-30000006D0000132D0009700007WX17409   GGSL
NJARET21100-21344-00725-80000004D0000187D0000200006HQ748416  GGSL
NJARET21100-21344-00729-60000006D0000313D0000100001HQ7348782 GGSL
NJARET21100-21344-00730-20000002D0000035D0000700007BN19193   GGSL
NJARET21100-21344-00733-30000002D0000035D0000700007BN19188   GGSL
NJARET21100-21344-00734-00000004D0000079D0005200001WX17725   GGSL
NJARET21100-21344-00735-70000004D0000066D0005100001WX17577RV GGSL
NJARET21100-21344-00739-50000004D0000126D0004000000WX17816   GGSL
NJARET21100-21344-00740-10000004D0000127D0002400001WX17818   GGSL
NJARET21100-21344-00744-90000004D0000127D0001700000WX17819   GGSL
NJARET21100-21344-00747-00000016D0000281D0018700007YS19L004  GGSL
NJARET21100-21344-00748-70000016D0000218D0018400007YS19S002  GGSL
NJARET21100-21344-00750-00000016D0000218D0012800007YS19S001  GGSL
NJARET21100-21344-00766-10000001D0000140D00064000084007661   GGSL
NJARET21100-21344-00774-60000004D0000130D0000600003WX17800   GGSL
NJARET21100-21344-00779-10000003D0000068D0003000001JFG19058B GGSL
NJARET21100-21344-00781-40000003D0000181D0002100000MG18397RV GGSL
NJARET21100-21344-00799-90000006D0000064D0003200003HS190061C GGSL
NJARET21100-21344-00801-90000006D0000064D0001200003HS190061A GGSL
NJARET21100-21344-00802-60000004D0000052D0002700003HS190058C GGSL
NJARET21100-21344-00804-00000004D0000052D0004200004HS190058A GGSL
NJARET21100-21344-00805-70000006D0000080D0000900000HS190056  GGSL
NJARET21100-21344-00806-40000016D0000135D0006400000SSH18A025 GGSL
NJARET21100-21344-00808-80000024D0000125D0003300000SSH18A024 GGSL
NJARET21100-21344-00813-20000007D0000869D00321000164008132   GGSL
NJARET21100-21344-00824-80000012D0000128D0003500001WX17933   GGSL
NJARET21100-21344-00831-60000002D0000036D0012700003ZT197003  GGSL
NJARET21100-21344-00832-30000003D0000062D0005600001JFG19007B GGSL
NJARET21100-21344-00839-20000012D0000209D0001200000HS190062  GGSL
NJARET21100-21344-01163-70000018D0000131D0006200001BN19297S  GGSL
NJARET21100-21344-01169-90000006D0000055D0004500002BN19302S  GGSL
NJARET21100-21344-01180-40000006D0000095D0002900005HS18MR0463GGSL
NJARET21100-21344-01188-00000004D0000043D0010900003HS20HS0022GGSL
NJARET21100-21344-01196-50000002D0000072D0028600002MG19632   GGSL
NJARET21100-21344-01197-20000001D0000045D0027800002MG19633   GGSL
NJARET21100-21344-01201-60000024D0000117D0002100003SSH19S094 GGSL
NJARET21100-21344-01202-30000008D0000087D0003500001SSH19S098 GGSL
NJARET21100-21344-01203-00000008D0000147D0003500002SSH19S104 GGSL
NJARET21100-21344-01207-80000006D0000101D0002700007WX18812   GGSL
NJARET21100-21344-01209-20000008D0000282D0004700004WX18814   GGSL
NJARET21100-21344-01210-80000012D0000394D0002300003WX18815   GGSL
NJARET21100-21344-01211-50000016D0000485D0004800001WX18816   GGSL
NJARET21100-21344-01212-20000012D0000286D0000800008WX18819   GGSL
NJARET21100-21344-01213-90000030D0000716D0000800007WX18820   GGSL
NJARET21100-21344-01214-60000036D0000815D0001500011WX18821   GGSL
NJARET21100-21344-01215-30000002D0000294D0037700031WX18824   GGSL
NJARET21100-21344-01216-00000003D0000530D0021300208WX18825   GGSL
NJARET21100-21344-01221-40000004D0000093D0007700000WX19201   GGSL
NJARET21100-21344-01222-10000006D0000249D0011500001WX19203   GGSL
NJARET21100-21344-01223-80000004D0000166D0011200000WX19204   GGSL
NJARET21100-21344-01237-50000008D0001125D0003100031WX19270   GGSL
NJARET21100-21344-01240-50000006D0000091D0003800001WX86808283GGSL
NJARET21100-21344-01246-70000008D0000207D0002400000WX8751    GGSL
NJARET21100-21344-01247-40000016D0000232D0000600000WX8752    GGSL
NJARET21100-21344-01248-10000008D0000207D0003400000WX8757    GGSL
NJARET21100-21344-01252-80000002D0000034D0008200004ZT207010B GGSL
NJARET21100-21344-01267-20000002D0000375D0023100003FP35      GGSL
NJARET21100-21344-01268-90000003D0000353D0013900001HR26182AA GGSL
NJARET21100-21344-01273-30000010D0001777D0001300010WX17658A  GGSL
NJARET21100-21496-01380-00000006D0000044D0000000000100519554 GGSL
NJARET21100-21964-10121-30000001D0000041D0000400000A6RPX     GGSL
NJARET21100-21964-10133-60000012D0000386D0000100000TH3RP     GGSL
NJARET21100-21964-20500-30000004D0000515D0000500000YF        GGSL
NJARET21100-21964-20510-20000008D0000730D0000500003YCPD90    GGSL
NJARET21100-21964-20520-10000002D0000174D0000100000YCPW180   GGSL
NJARET21100-21964-25242-70000006D0000244D0000100000CC18S     GGSL
NJARET21100-21964-25244-10000042D0001399D0000400000CC12N     GGSL
NJARET21100-21964-25246-50000006D0000296D0000600000CC24N     GGSL
NJARET21100-21964-25256-40000012D0000200D0000800001CC12FM    GGSL
NJARET21100-21964-40043-90000006D0000108D0000000000CJM8G     GGSL
NJARET21100-21964-60533-90000012D0000188D0000000000TPHX      GGSL
NJARET21100-22179-10012-10000006D0000098D0001500002LG3109    GGSL
NJARET21100-22179-10084-80000006D0000058D0006300003LG7220    GGSL
NJARET21100-22179-10124-10000024D0000151D0006300004LG6515    GGSL
NJARET21100-22179-10185-20000012D0000151D0002300006LG6500    GGSL
NJARET21100-22179-10246-00000006D0000108D0003000002LG6570    GGSL
NJARET21100-22179-10248-40000012D0000111D0004600002LG6575    GGSL
NJARET21100-22179-10257-60000012D0000209D0000400000LG3190    GGSL
NJARET21100-22179-10327-60000048D0000524D0002400005LG6148    GGSL
NJARET21100-22179-10434-10000012D0000129D0000200000LG6133    GGSL
NJARET21100-22179-10508-90000084D0000210D0000000000LG6164    GGSL
NJARET21100-22401-10087-50000036D0000371D0002000010EAR20TMC  GGSL
NJARET21100-23183-00085-80000024D0000048D0000000000100045236 GGSL
NJARET21100-23865-08808-20000804D0003632D00029000018808      GGSL
NJARET21100-23865-09910-10000008D0000126D00000000029910      GGSL
NJARET21100-23865-09912-50000336D0005441D000010000009912     GGSL
NJARET21100-23865-09983-50001776D0004940D00129000039983      GGSL
NJARET21100-23865-09984-20000348D0001241D00000000009984      GGSL
NJARET21100-23865-09987-30000880D0006908D00000000009987      GGSL
NJARET21100-23883-16200-90000004D0000091D000490001516200     GGSL
NJARET21100-23883-20002-20000002D0000049D001680001520002     GGSL
NJARET21100-24114-77909-60000012D0000047D0000000000779009    GGSL
NJARET21100-24654-05102-70000072D0000406D000680000751026     GGSL
NJARET21100-24654-05972-60000004D0000145D00006000005972      GGSL
NJARET21100-24654-09941-80000032D0001016D00157000009335      GGSL
NJARET21100-24654-51806-30000006D0000036D000080000651806     GGSL
NJARET21100-24654-55110-70000048D0000279D001240002351106     GGSL
NJARET21100-24654-55450-40000012D0000069D000600001354506     GGSL
NJARET21100-24654-65452-50000012D0000071D001180001554526     GGSL
NJARET21100-25033-02175-40000008D0000367D000010000002175     GGSL
NJARET21100-25033-02467-00000004D0000133D000110000002467     GGSL
NJARET21100-25033-02477-90000004D0000119D000190000002477     GGSL
NJARET21100-25033-02481-60000001D0000049D000070000002481     GGSL
NJARET21100-25033-02501-10000004D0000044D000110000102501     GGSL
NJARET21100-25033-02522-60000002D0000121D000450000402522     GGSL
NJARET21100-25033-02523-30000002D0000131D000030000302523     GGSL
NJARET21100-25033-02525-70000004D0000295D000350000102525     GGSL
NJARET21100-25033-02527-10000008D0000644D000080000202527     GGSL
NJARET21100-25033-02683-40000002D0000710D000040000002683     GGSL
NJARET21100-25033-02720-60000003D0000315D000300000002720     GGSL
NJARET21100-25033-04520-00000002D0000199D000080000004520     GGSL
NJARET21100-25849-00082-00000300D0002798D00000000000082P     GGSL
NJARET21100-25849-10381-10000020D0000595D000190000010381RGX  GGSL
NJARET21100-25849-12500-40000030D0001019D00001000011038500RG GGSL
NJARET21100-25849-62251-00000036D0000261D00000000006009051NPBGGSL
NJARET21100-25881-09985-10000004D0000078D0000400000 09985    GGSL
NJARET21100-25881-10712-90000009D0000140D0000000000 10712    GGSL
NJARET21100-26546-42521-30000006D0000284D0000000000SPQEBZ    GGSL
NJARET21100-26600-89334-70000032D0000069D002410000089334     GGSL
NJARET21100-26600-89334-70000096D0000185D000370000789334M    GGSL
NJARET21100-26978-02181-60000010D0000054D001750001502181     GGSL
NJARET21100-26978-02242-40000030D0000179D001920001002242     GGSL
NJARET21100-26978-02301-80000040D0000323D001450000302301     GGSL
NJARET21100-26978-02302-50000040D0000323D000880000702302     GGSL
NJARET21100-26978-02361-20000040D0000402D001100000302361     GGSL
NJARET21100-26978-02362-90000030D0000301D000850000802362     GGSL
NJARET21100-26978-03082-50000010D0000101D000150000203082     GGSL
NJARET21100-26978-03100-60000015D0000254D00011000040310005   GGSL
NJARET21100-26978-03102-00000005D0000085D00011000010310205   GGSL
NJARET21100-26978-05041-00000072D0000145D000430000005041     GGSL
NJARET21100-26978-05071-70000144D0000190D000120000005071     GGSL
NJARET21100-26978-05081-60000648D0001050D000180000005081     GGSL
NJARET21100-26978-10010-80000012D0000048D000080000310010     GGSL
NJARET21100-26978-10012-20000006D0000024D000070000210012     GGSL
NJARET21100-26978-10062-70000150D0000455D001410000810062     GGSL
NJARET21100-26978-10068-90000050D0000152D001530000210068     GGSL
NJARET21100-26978-10082-50000240D0001051D001590000810082     GGSL
NJARET21100-26978-10088-70000120D0000526D001690000510088     GGSL
NJARET21100-26978-10108-20000075D0000525D000230000310108     GGSL
NJARET21100-26978-10122-80000070D0000748D001830000710122     GGSL
NJARET21100-26978-10128-00000040D0000428D001560000810128     GGSL
NJARET21100-26978-10142-60000050D0000665D000230000710142     GGSL
NJARET21100-26978-10148-50000040D0000541D000760000510148     GGSL
NJARET21100-26978-10180-80000010D0000036D000180000310180     GGSL
NJARET21100-26978-10182-20000010D0000036D000240000810182     GGSL
NJARET21100-26978-10188-40000010D0000032D000420000210188     GGSL
NJARET21100-26978-10243-00000010D0000039D000120000410243     GGSL
NJARET21100-26978-10308-60000030D0000144D000200000310308     GGSL
NJARET21100-26978-16190-10000010D0000049D000950000916190     GGSL
NJARET21100-26978-16192-50000010D0000044D002860003816192     GGSL
NJARET21100-26978-16248-90000010D0000063D000100000216248     GGSL
NJARET21100-26978-16300-40000010D0000081D001600001316300     GGSL
NJARET21100-26978-16302-80000010D0000068D002480003816302     GGSL
NJARET21100-26978-16308-00000010D0000081D000140000216308     GGSL
NJARET21100-26978-16362-20000010D0000110D000480002716362     GGSL
NJARET21100-26978-16368-40000010D0000110D000120000116368     GGSL
NJARET21100-26978-26148-90000010D0000105D000130000126148     GGSL
NJARET21100-26978-26188-50000030D0000480D000350000126188     GGSL
NJARET21100-26978-30301-10000144D0000834D002030004930301     GGSL
NJARET21100-26978-30402-50000036D0000221D000940000630402     GGSL
NJARET21100-26978-30409-40000012D0000074D000640000530409     GGSL
NJARET21100-26978-30411-70000012D0000084D000810000830411     GGSL
NJARET21100-26978-30413-10000012D0000084D000630000530413     GGSL
NJARET21100-26978-30602-90000084D0000370D000320002530602     GGSL
NJARET21100-26978-30603-60000006D0000024D000050000030603     GGSL
NJARET21100-26978-30605-00000102D0000450D000260001730605     GGSL
NJARET21100-26978-30702-60000246D0000792D000180000930702     GGSL
NJARET21100-26978-30705-70000168D0000500D001040000730705     GGSL
NJARET21100-26978-30901-30000010D0000057D000610001530901     GGSL
NJARET21100-26978-31128-30000010D0000180D000160000431128     GGSL
NJARET21100-26978-31129-00000005D0000090D000100000731129     GGSL
NJARET21100-26978-32128-20000010D0000184D000140000832128     GGSL
NJARET21100-26978-32129-90000010D0000184D000140000232129     GGSL
NJARET21100-26978-34088-70000030D0000253D000460000034088     GGSL
NJARET21100-26978-34123-50000005D0000098D000000000034123     GGSL
NJARET21100-26978-34143-50000006D0000172D000010000034143     GGSL
NJARET21100-26978-35060-20000020D0000109D000140000235060     GGSL
NJARET21100-26978-35086-20000030D0000265D000060000135086     GGSL
NJARET21100-26978-35100-50000010D0000196D000180000435100     GGSL
NJARET21100-26978-35102-90000020D0000371D000290000535102     GGSL
NJARET21100-26978-35106-70000015D0000256D000020000035106     GGSL
NJARET21100-26978-35109-80000010D0000196D000170000535109     GGSL
NJARET21100-26978-35120-30000010D0000280D000140000135120     GGSL
NJARET21100-26978-35122-70000015D0000387D000190000535122     GGSL
NJARET21100-26978-35128-90000005D0000140D000450000135128     GGSL
NJARET21100-26978-35129-60000005D0000117D000090000335129     GGSL
NJARET21100-26978-35148-70000015D0000528D000000000035148     GGSL
NJARET21100-26978-35149-40000020D0000704D000020000035149     GGSL
NJARET21100-26978-35188-30000006D0000547D000210000035188     GGSL
NJARET21100-26978-35198-20000010D0000438D000080000435198     GGSL
NJARET21100-26978-35270-50000006D0000626D000050000235270     GGSL
NJARET21100-26978-36148-60000005D0000086D000180000236148     GGSL
NJARET21100-26978-38142-20000012D0000084D000490000138142     GGSL
NJARET21100-26978-38148-40000168D0001179D000820000438148     GGSL
NJARET21100-26978-38198-90000186D0002853D001230001738198     GGSL
NJARET21100-26978-39122-30000024D0000095D000300000239122     GGSL
NJARET21100-26978-39128-50000072D0000392D000800000439128     GGSL
NJARET21100-26978-39188-90000126D0001634D001170000539188     GGSL
NJARET21100-26978-48098-30000030D0000167D000080000048098     GGSL
NJARET21100-26978-48158-00000120D0001340D000470000548158     GGSL
NJARET21100-26978-80101-20000004D0000164D000580000180101     GGSL
NJARET21100-26978-81100-40000012D0000103D000790002181100     GGSL
NJARET21100-27856-10001-20009684D0028761D0001300000P10232    GGSL
NJARET21100-27856-10002-90008856D0046583D0180900000P10264    GGSL
NJARET21100-27856-10002-90007080D0037241D0008800087P10264DP  GGSL
NJARET21100-27856-10008-10002676D0036394D0005000000P101      GGSL
NJARET21100-27856-10009-80002076D0018995D0009700000P128      GGSL
NJARET21100-27856-10015-90006144D0058798D0000000000P102128   GGSL
NJARET21100-27997-00068-40000001D0000060D000000000000068800  GGSL
NJARET21100-27997-00229-90000006D0000152D0000400002TE        GGSL
NJARET21100-27997-01017-10000004D0000678D0000300002 M6T22    GGSL
NJARET21100-27997-01017-10000001D0000180D0001000004M6T22     GGSL
NJARET21100-29973-12333-20000120D0000464D002020003514110028P GGSL
NJARET21100-29973-12341-70000054D0000295D0125500113141100216UGGSL
NJARET21100-29973-12349-30002616D0011595D001320002014901028P GGSL
NJARET21100-30541-01020-60000096D0000230D0006700004JCD024SM  GGSL
NJARET21100-30541-01030-50000018D0000154D0009600015JCD100SMJ GGSL
NJARET21100-30541-01034-30000012D0000257D0004500008JCD030SM  GGSL
NJARET21100-30541-01039-80000024D0000120D0008000009JCD05SM   GGSL
NJARET21100-30541-01210-10000024D0000046D0000100000JCD024SMS GGSL
NJARET21100-30541-08879-30000048D0000145D0001300000SMVS      GGSL
NJARET21100-31340-10005-10000024D0000450D0003300000B550120   GGSL
NJARET21100-31340-10006-80000072D0000816D0007200003B550125   GGSL
NJARET21100-31340-10007-50000024D0000793D0003600000B550130   GGSL
NJARET21100-31340-10017-40000024D0000444D0005000003B550190   GGSL
NJARET21100-31340-10020-40000008D0000204D0004700001B550205   GGSL
NJARET21100-31365-10600-70000033D0000657D0026700000 42808    GGSL
NJARET21100-31417-00055-00000001D0000026D001310000080601131X GGSL
NJARET21100-31417-00058-10000002D0000049D000160000080631131X GGSL
NJARET21100-31417-00107-60000010D0000058D000050000080202005  GGSL
NJARET21100-32247-00910-20000006D0000023D00138000121009101   GGSL
NJARET21100-32247-02515-70000037D0001755D00343000032515      GGSL
NJARET21100-32247-10500-20000012D0000127D0000500000110500    GGSL
NJARET21100-32247-14900-60000016D0000137D000770000014900     GGSL
NJARET21100-32247-14902-00000036D0000558D001810000714902     GGSL
NJARET21100-32247-14905-10000096D0000793D003090000214905     GGSL
NJARET21100-32247-17183-00000090D0000947D003910000817183     GGSL
NJARET21100-32247-17185-40000060D0001466D001530000317185     GGSL
NJARET21100-32247-17187-80000075D0004014D001890000517187     GGSL
NJARET21100-32247-17290-50000012D0000142D000830000417290     GGSL
NJARET21100-32247-17293-60000012D0000136D000450000017293     GGSL
NJARET21100-32247-17323-00000024D0000255D000520000017323     GGSL
NJARET21100-32247-17325-40000016D0000357D000350000017325     GGSL
NJARET21100-32247-17327-80000029D0001361D000230000017327     GGSL
NJARET21100-32247-17504-30000006D0000309D000400000017504     GGSL
NJARET21100-32247-17508-10000036D0000556D004130000317508     GGSL
NJARET21100-32247-17540-10000032D0000988D001480000217540     GGSL
NJARET21100-32247-18213-30000008D0000248D000880000018213     GGSL
NJARET21100-32247-18221-80000016D0000404D001360000018221     GGSL
NJARET21100-32247-18225-60000042D0000568D001750000018225     GGSL
NJARET21100-32247-18249-20000001D0000068D000670000018249     GGSL
NJARET21100-32247-18251-50000004D0000141D000260000018251     GGSL
NJARET21100-32247-18266-90000012D0000175D000470000118266     GGSL
NJARET21100-32247-18290-40000002D0000068D000090000018290     GGSL
NJARET21100-32247-18345-10000006D0000067D000600000018345     GGSL
NJARET21100-32247-18346-80000004D0000091D000400000018346     GGSL
NJARET21100-32247-20785-00000036D0000154D000690000772078430  GGSL
NJARET21100-32247-21605-00000080D0001675D006430000021605     GGSL
NJARET21100-32247-21701-90000084D0000840D000900000421701     GGSL
NJARET21100-32247-21814-60000036D0001830D003560000021814     GGSL
NJARET21100-32247-22305-80000004D0000079D004100000022305     GGSL
NJARET21100-32247-22315-70000006D0000294D002470000022315     GGSL
NJARET21100-32247-23001-80000010D0000341D002070000023001     GGSL
NJARET21100-32247-23002-50000012D0000175D000810000023002     GGSL
NJARET21100-32247-23616-40000026D0000676D012570002023616     GGSL
NJARET21100-32247-23622-50000037D0000685D005560001523622     GGSL
NJARET21100-32247-26784-70000012D0000051D000630000072678430  GGSL
NJARET21100-32247-27764-80000216D0001180D000130000572776430  GGSL
NJARET21100-32247-30156-50000012D0000234D001300000030156     GGSL
NJARET21100-32247-33040-40000026D0000482D008790001933040     GGSL
NJARET21100-32247-36905-30000010D0000406D011060003536905     GGSL
NJARET21100-32247-37610-50000004D0000063D001110000037610C    GGSL
NJARET21100-32247-38605-00000056D0001067D000460000038605D    GGSL
NJARET21100-32247-38615-90000011D0000437D000400000038615     GGSL
NJARET21100-32247-43850-60000004D0000086D00003000004385010   GGSL
NJARET21100-32247-43854-40000004D0000051D00024000004385404   GGSL
NJARET21100-32247-43860-50000012D0000283D00048000004386004   GGSL
NJARET21100-32247-47783-30000012D0000053D000100000074778300  GGSL
NJARET21100-32247-49013-90000002D0000055D001400000049013     GGSL
NJARET21100-32247-50250-40000026D0000682D003390000550250     GGSL
NJARET21100-32247-51115-50000040D0001647D000090000651115     GGSL
NJARET21100-32247-52784-20000084D0000358D000130000085278430  GGSL
NJARET21100-32247-53105-40000005D0000054D003820012053105     GGSL
NJARET21100-32247-53115-30000057D0001658D002330000053115     GGSL
NJARET21100-32247-54105-30000006D0000036D00026000045410510   GGSL
NJARET21100-32247-55523-40000108D0001809D000160000075552300  GGSL
NJARET21100-32247-55783-20000054D0000302D000280000475578300  GGSL
NJARET21100-32247-56513-40000130D0001245D000490000075651300  GGSL
NJARET21100-32247-56523-30000036D0000539D000480000275652300  GGSL
NJARET21100-32247-56783-10000588D0002932D007800000075678300  GGSL
NJARET21100-32247-56783-10000120D0000635D000210000075678309  GGSL
NJARET21100-32247-71060-20000060D0000841D001480000771060     GGSL
NJARET21100-32247-71131-90000008D0000166D000390000071131     GGSL
NJARET21100-32247-74150-70000192D0001164D0061800039274150    GGSL
NJARET21100-32247-74250-40000060D0000560D0061000032274250    GGSL
NJARET21100-32247-74850-60000044D0000920D0064100016274850    GGSL
NJARET21100-32247-75902-10000012D0001067D000730000075902     GGSL
NJARET21100-32247-76121-50000015D0000579D001450000076121     GGSL
NJARET21100-32247-76232-80000018D0001222D001080001776232     GGSL
NJARET21100-32247-76565-70000009D0000561D000340000076565     GGSL
NJARET21100-32247-77160-30000072D0000390D0053100032277160    GGSL
NJARET21100-32247-77260-00000048D0000462D0071000018277260    GGSL
NJARET21100-32247-77860-20000012D0000214D0029200013277860    GGSL
NJARET21100-32247-77960-90000124D0002867D0080100035277960    GGSL
NJARET21100-32247-95517-10000060D0000343D000050000079551750  GGSL
NJARET21100-32903-00171-60000072D0000112D0001500009SLI06000A3GGSL
NJARET21100-32903-00192-10000240D0000374D0002500013SLI06000B9GGSL
NJARET21100-32903-00214-00000048D0000075D0001800007SLI06000E2GGSL
NJARET21100-32903-00222-50000144D0000287D0002700011SLI08000B9GGSL
NJARET21100-32903-00240-90000096D0000180D0001500007SLI08000E2GGSL
NJARET21100-32903-00246-10000096D0000191D0003000009SLI08000A3GGSL
NJARET21100-32903-00257-70000007D0000253D0000700001RZGH210G2 GGSL
NJARET21100-32903-00258-40000096D0000206D0002900007LIA06000E2GGSL
NJARET21100-32903-00264-50000216D0000739D0000800005LIA08000E2GGSL
NJARET21100-32903-00281-20000072D0000377D0003700015LIA10000E2GGSL
NJARET21100-32903-00293-50000060D0000159D0006300008SLI10000E2GGSL
NJARET21100-32903-00309-30000396D0001098D0007400035SLI10000E3GGSL
NJARET21100-32903-00326-00000012D0000099D0002200008LIA12000E2GGSL
NJARET21100-32903-00332-10000168D0000464D0002000012SLI10000B9GGSL
NJARET21100-32903-00338-30000096D0000264D0002000006SLI10000A3GGSL
NJARET21100-32903-00341-30000066D0000693D0002700010SLI24000E3GGSL
NJARET21100-32903-00359-80000336D0000669D0004900019SLI08000E3GGSL
NJARET21100-32903-04255-90000012D0000127D0002000006LIA14000E2GGSL
NJARET21100-32903-04257-30000036D0000170D0002400009SLI12000E2GGSL
NJARET21100-32903-07519-90000024D0000395D0001200005LIA16000E2GGSL
NJARET21100-32903-07530-40000036D0000182D0001900003SLI14000E2GGSL
NJARET21100-32903-07558-80000108D0000547D0003600014RZWC1Q0B9 GGSL
NJARET21100-32903-07563-20000024D0000135D0001100003SLI17000E2GGSL
NJARET21100-32903-07577-90000012D0000353D0001200002LIA24000E2GGSL
NJARET21100-32903-12006-60000768D0001738D0005700017LIA06000E3GGSL
NJARET21100-32903-12008-00000600D0002045D0005400020LIA08000E3GGSL
NJARET21100-32903-12010-30000468D0002447D0006700023LIA10000E3GGSL
NJARET21100-32903-12012-70000408D0003362D0008100028LIA12000E3GGSL
NJARET21100-32903-12014-10000216D0002241D0007600024LIA14000E3GGSL
NJARET21100-32903-12020-20000042D0000926D0003300010LIA20000E3GGSL
NJARET21100-32903-12024-00000048D0001413D0001500009LIA24000E3GGSL
NJARET21100-32903-12312-80000024D0000163D0004400007CNA12000E3GGSL
NJARET21100-32903-12712-60000036D0000204D0001700006GAB12000E3GGSL
NJARET21100-32903-12714-00000048D0000379D0000800008GAB14000E3GGSL
NJARET21100-32903-12718-80000144D0001750D0004200007GAB18000E3GGSL
NJARET21100-32903-12824-60000006D0000060D0001800009VNP24000E3GGSL
NJARET21100-32903-12830-70000012D0000156D0003500008VNP30000E3GGSL
NJARET21100-32903-23732-00000006D0000051D0001400004SLI20000E2GGSL
NJARET21100-32903-30392-60000048D0000135D0002700002CNA08000E3GGSL
NJARET21100-32903-35947-30000024D0000104D0001100006CNA10000E3GGSL
NJARET21100-32903-40400-50000192D0001006D0002800008LIA10000A3GGSL
NJARET21100-32903-40493-70000168D0000567D0001900006LIA08000B9GGSL
NJARET21100-32903-41640-40000192D0000657D0001900008LIA08000A3GGSL
NJARET21100-32903-41717-30000096D0000996D0002800006LIA14000B9GGSL
NJARET21100-32903-41728-90000204D0001681D0001900009LIA12000B9GGSL
NJARET21100-32903-41842-20000006D0000078D0002600000VNP30000A3GGSL
NJARET21100-32903-42050-00000012D0000353D0001200004LIA24000A3GGSL
NJARET21100-32903-42240-50000336D0000763D0003400007LIA06000B9GGSL
NJARET21100-32903-45788-90000018D0000530D0000900000LIA24000B9GGSL
NJARET21100-32903-46337-80000036D0000575D0002400006LIA16000B9GGSL
NJARET21100-32903-46966-00000006D0000132D0001000005LIA20000A3GGSL
NJARET21100-32903-47208-00000072D0000593D0002200006LIA12000A3GGSL
NJARET21100-32903-48101-30000192D0000436D0002000007LIA06000A3GGSL
NJARET21100-32903-48538-70000024D0000529D0000600002LIA20000B9GGSL
NJARET21100-32903-50286-20000048D0000206D0004200006HSI10008E2GGSL
NJARET21100-32903-50763-80000228D0001073D0007800025SLI12000E3GGSL
NJARET21100-32903-50764-50000084D0000419D0001800007SLI14000B9GGSL
NJARET21100-32903-50767-60000084D0000397D0002600010SLI12000A3GGSL
NJARET21100-32903-50794-20000120D0000562D0003100007SLI12000B9GGSL
NJARET21100-32903-50802-40000096D0000479D0006900012SLI14000E3GGSL
NJARET21100-32903-50803-10000048D0000242D0001200005SLI14000A3GGSL
NJARET21100-32903-53271-50000012D0000128D0001000002SLI24000E2GGSL
NJARET21100-32903-56391-70000048D0000205D0004300012HSI10008A1GGSL
NJARET21100-32903-57495-10000024D0000132D0000000000SVN30000B9GGSL
NJARET21100-32903-59134-70000002D0000202D0000200002TES24000E3GGSL
NJARET21100-32903-61636-10000072D0000317D0004700016HSI10008B6GGSL
NJARET21100-32903-71041-00000006D0000054D0000200002RZWC1G0E3 GGSL
NJARET21100-32903-72233-80000228D0001189D0002300007LIA10000B9GGSL
NJARET21100-32903-72886-60000078D0000643D0001100003RZWC1G0B9 GGSL
NJARET21100-32903-75049-20000054D0000463D0003100011SLI20000E3GGSL
NJARET21100-32903-75057-70000036D0000196D0001600006SLI17000B9GGSL
NJARET21100-32903-75070-60000006D0000051D0001500002SLI20000A3GGSL
NJARET21100-32903-75080-50000144D0000808D0004500013SLI17000E3GGSL
NJARET21100-32903-75081-20000024D0000201D0000800006SLI20000B9GGSL
NJARET21100-32903-75084-30000018D0000192D0001000001SLI24000A3GGSL
NJARET21100-32903-75089-80000030D0000309D0001400004SLI24000B9GGSL
NJARET21100-32903-91270-80000007D0000270D0001100002RZGH210E3 GGSL
NJARET21100-32903-91300-20000006D0000047D0000000000VNP2400G18GGSL
NJARET21100-32903-91322-40000002D0000234D0000200000TEA30000G8GGSL
NJARET21100-32903-91485-60000005D0000081D0003200005SPX24DBA34GGSL
NJARET21100-32903-91516-70000144D0000989D0001200012PPF1000   GGSL
NJARET21100-33200-00020-40001284D0000924D00000000003320000020GGSL
NJARET21100-33200-00544-50007098D0071122D047850035500544     GGSL
NJARET21100-33200-01191-00000840D0005939D001940001501191     GGSL
NJARET21100-33200-06527-20000365D0006566D02346000486527      GGSL
NJARET21100-33200-09020-50000004D0000028D002130000009020     GGSL
NJARET21100-33200-09142-40001040D0007270D001910007109142     GGSL
NJARET21100-33200-09293-30002268D0015853D00723000249293      GGSL
NJARET21100-33200-11321-80000612D0000814D002180001111321     GGSL
NJARET21100-33200-35240-20000400D0000760D0001900001352402    GGSL
NJARET21100-33200-94182-80006582D0065957D034000025894182     GGSL
NJARET21100-33200-97242-60000028D0000222D001700000097242     GGSL
NJARET21100-33200-97457-40000324D0003373D026070021997457     GGSL
NJARET21100-33349-41444-30001056D0000211D0000000000JP4BULK   GGSL
NJARET21100-33349-41701-70001000D0000130D0000900000J4BULK    GGSL
NJARET21100-33349-66009-30000014D0000089D0000600002T72HST14  GGSL
NJARET21100-33607-22250-60000001D0000144D0001500000HT4EZ     GGSL
NJARET21100-34411-00571-20000001D0000004D0001400000 571      GGSL
NJARET21100-34411-01076-10000010D0000175D00008000008006041001GGSL
NJARET21100-34613-00015-70000012D0000169D0001400001LH015     GGSL
NJARET21100-34613-00225-00000025D0000108D0013500000225       GGSL
NJARET21100-34613-00325-70000025D0000208D0015200000325       GGSL
NJARET21100-34613-00425-40000050D0000455D0013900000425       GGSL
NJARET21100-34613-00551-00000096D0000372D0000600003551BL     GGSL
NJARET21100-34613-00552-70000060D0000233D0000100000552BL     GGSL
NJARET21100-34613-00553-40000048D0000186D0000300000553BL     GGSL
NJARET21100-34613-00806-10000060D0000171D0000000000SS6       GGSL
NJARET21100-34613-00860-30000024D0000530D0000100000860       GGSL
NJARET21100-34613-01150-40000040D0000173D00009000001150PDQ   GGSL
NJARET21100-34613-01161-00000048D0000175D00006000001161PDQ   GGSL
NJARET21100-34613-01283-90000036D0000219D00000000001283      GGSL
NJARET21100-34613-01503-80000024D0000048D00000000001503      GGSL
NJARET21100-34613-01901-20000024D0000221D00089000021901      GGSL
NJARET21100-34613-01902-90000060D0000533D00062000091902      GGSL
NJARET21100-34613-01903-60000120D0001079D00053000091903      GGSL
NJARET21100-34613-01904-30000012D0000118D00001000001904      GGSL
NJARET21100-34613-03104-50000012D0000130D00062000013104      GGSL
NJARET21100-34613-04406-90000048D0000540D00001000004406BLD   GGSL
NJARET21100-34613-04830-20000012D0000121D00021000014830      GGSL
NJARET21100-34613-04851-70000006D0000060D00001000004851BL    GGSL
NJARET21100-34613-04870-80000012D0000169D0001700001LH015BL   GGSL
NJARET21100-34613-05012-10000024D0000066D00001000005012BL    GGSL
NJARET21100-34613-05939-10000006D0000158D00001000005939      GGSL
NJARET21100-34613-05945-20000006D0000195D00028000005945      GGSL
NJARET21100-34613-07835-40000006D0000053D00002000002110BL    GGSL
NJARET21100-34613-25285-30000001D0000065D0000200000MDS2HD    GGSL
NJARET21100-34613-34014-70000075D0000122D0000200000CVS014    GGSL
NJARET21100-34613-65499-20000002D0000072D002160021665499     GGSL
NJARET21100-34613-66637-70000008D0001897D000030000366637     GGSL
NJARET21100-35000-05361-90001980D0001370D0036400011105375    GGSL
NJARET21100-35000-05364-00003384D0003519D0012700062105374    GGSL
NJARET21100-35000-14112-50000966D0004782D001590004414477     GGSL
NJARET21100-35000-14120-00001116D0005524D002360002914478     GGSL
NJARET21100-35000-14328-00000756D0003742D001790003414483     GGSL
NJARET21100-35000-44627-50000280D0000297D0010100003144630    GGSL
NJARET21100-35000-44673-20001242D0001863D001630004844673     GGSL
NJARET21100-35000-44678-70000351D0000585D000130001044678     GGSL
NJARET21100-35000-45038-50000378D0001104D0004100000US04232A  GGSL
NJARET21100-35000-45041-50000315D0000677D0003300008US04229A  GGSL
NJARET21100-35000-45118-40001143D0002457D0008100019US04268A  GGSL
NJARET21100-35000-45122-40000104D0000662D0000000000US04284A  GGSL
NJARET21100-35000-45816-20000024D0000189D0010500000MX04966A  GGSL
NJARET21100-35000-46157-50000016D0000102D000590000146157     GGSL
NJARET21100-35000-46413-20000560D0000588D000840000546413     GGSL
NJARET21100-35000-47041-60000048D0000130D0013800000MX06157A  GGSL
NJARET21100-35000-47805-40000288D0000680D000500000547805     GGSL
NJARET21100-35000-49110-70000004D0000024D001180000049110     GGSL
NJARET21100-35000-49861-80000396D0000942D000760001649861     GGSL
NJARET21100-35000-51119-50000972D0002770D0014600002151119    GGSL
NJARET21100-35000-53030-10000222D0000633D0009600003153043    GGSL
NJARET21100-35000-53031-80000006D0000024D0010900003153042    GGSL
NJARET21100-35000-53032-50000738D0001891D0001800015153041    GGSL
NJARET21100-35000-53058-50004280D0019988D000950000253058     GGSL
NJARET21100-35000-53060-80002236D0010979D011110000053060     GGSL
NJARET21100-35000-53099-80004962D0011413D020070004153099     GGSL
NJARET21100-35000-53122-30006054D0036714D012700004653122     GGSL
NJARET21100-35000-55190-00000954D0002862D0005700002155190    GGSL
NJARET21100-35000-96987-30001371D0008295D0066700060MX06813A  GGSL
NJARET21100-35000-97018-30001568D0010098D0008000000US06329A  GGSL
NJARET21100-35000-97298-90000008D0000053D0008900015US06490A  GGSL
NJARET21100-35000-97301-60000016D0000106D0018100015US06489A  GGSL
NJARET21100-35000-97335-10002740D0016385D0054500094US06517A  GGSL
NJARET21100-35000-97336-80001436D0008587D0077300042US06516A  GGSL
NJARET21100-35000-97337-50000024D0000144D0002900000US06515A  GGSL
NJARET21100-35000-97343-60000738D0001734D0038600000US06522A  GGSL
NJARET21100-35000-98601-60000063D0000135D0007700000US07368A  GGSL
NJARET21100-35000-98631-30001512D0001557D0000000000MX07180A  GGSL
NJARET21100-35000-98635-10000648D0000909D0003900002MX07179A  GGSL
NJARET21100-35110-01900-00000796D0006009D001660007301900     GGSL
NJARET21100-35110-01903-10000256D0002446D000620000901903     GGSL
NJARET21100-35110-04307-40000020D0000190D0004000001US05253A  GGSL
NJARET21100-35307-00650-90000030D0000249D0000100001A650      GGSL
NJARET21100-35307-00781-00000012D0000125D0000200002781       GGSL
NJARET21100-35307-00816-90000036D0000058D0000600005816       GGSL
NJARET21100-35307-00819-00000012D0000027D0004900007819       GGSL
NJARET21100-35307-00820-60000036D0000069D0001400010820       GGSL
NJARET21100-35307-00827-50000012D0000027D0000200002827       GGSL
NJARET21100-35307-00841-10000036D0000075D0000800008841       GGSL
NJARET21100-35307-00843-50000024D0000081D0001800005843       GGSL
NJARET21100-35307-00844-20000012D0000033D0000800005844       GGSL
NJARET21100-35307-00848-00000012D0000029D0001400009848       GGSL
NJARET21100-35307-00864-00000012D0000054D0001700003864       GGSL
NJARET21100-35307-00865-70000012D0000050D0000100000865       GGSL
NJARET21100-35307-00869-50000012D0000125D0000900001869       GGSL
NJARET21100-35307-00874-90000024D0000040D0002400004874       GGSL
NJARET21100-35307-00877-00000036D0000060D0000400001877       GGSL
NJARET21100-35307-00972-20000024D0000157D0001100007972       GGSL
NJARET21100-35307-00980-70000096D0000165D0001700002980       GGSL
NJARET21100-35307-00987-60000012D0000054D0004300005987       GGSL
NJARET21100-35307-01250-00000024D0000083D00000000001250      GGSL
NJARET21100-35307-01635-50000006D0000096D00001000011635      GGSL
NJARET21100-35951-07000-00000612D0006509D000860002207000     GGSL
NJARET21100-35951-07007-90000108D0001692D000190000007007     GGSL
NJARET21100-35951-07009-30000132D0002941D000330000507009     GGSL
NJARET21100-35951-07011-60000036D0002527D000220000707011     GGSL
NJARET21100-35951-07013-00000010D0003170D000190000207014     GGSL
NJARET21100-36074-12002-30000120D0000551D0001200000BC07      GGSL
NJARET21100-36151-46825-30000008D0000256D00249000082646825   GGSL
NJARET21100-36241-66300-10000096D0000644D008340000174297     GGSL
NJARET21100-36241-97402-20000060D0000268D0032400000974022    GGSL
NJARET21100-36348-00745-60000002D0000053D00023000010745      GGSL
NJARET21100-36348-01020-30000002D0000035D00072000101020      GGSL
NJARET21100-36348-01025-80000004D0000112D00016000021025      GGSL
NJARET21100-36348-01079-10000006D0000269D00012000071079      GGSL
NJARET21100-36434-11000-80000012D0000128D00061000006011000   GGSL
NJARET21100-36434-12342-80000006D0000038D00016000006012342   GGSL
NJARET21100-36434-12345-90000072D0000823D00057000021012345   GGSL
NJARET21100-36434-12353-40000054D0000937D00013000016012353   GGSL
NJARET21100-36434-12363-30000006D0000220D00023000011012363   GGSL
NJARET21100-36434-12700-60000108D0000982D00184000181012700   GGSL
NJARET21100-36434-12720-40000144D0001009D00091000071012720   GGSL
NJARET21100-36434-12860-70000024D0000333D00034000011012860   GGSL
NJARET21100-36434-13001-30000012D0000068D00052000041013001   GGSL
NJARET21100-36434-13700-50000144D0001283D00050000011032700   GGSL
NJARET21100-36434-13812-50000072D0001401D00042000021013812   GGSL
NJARET21100-36434-13860-60000060D0000974D00043000011013860   GGSL
NJARET21100-36434-15000-40000024D0000839D00041000101015000   GGSL
NJARET21100-36434-15020-20000006D0000114D00063000001015020   GGSL
NJARET21100-36434-17000-20000048D0002382D00026000011017000   GGSL
NJARET21100-36434-17010-10000012D0000282D00084000101017010   GGSL
NJARET21100-36434-17050-70000006D0000118D00014000001017050   GGSL
NJARET21100-36434-22318-00000054D0000234D00023000006022318   GGSL
NJARET21100-36434-28040-40000012D0000180D00017000001028040   GGSL
NJARET21100-37000-00992-40001208D0013421D000210000000992     GGSL
NJARET21100-37000-07312-30001086D0009546D000500000007312     GGSL
NJARET21100-37000-10631-90000120D0000787D002500000010631     GGSL
NJARET21100-37000-23679-50000024D0000086D002640000077810     GGSL
NJARET21100-37000-24684-80001050D0009230D000230000024684     GGSL
NJARET21100-37000-31821-70001938D0006260D000000000013093     GGSL
NJARET21100-37000-31836-10001041D0007297D002560000031836     GGSL
NJARET21100-37000-35154-20003156D0010194D000010000008622     GGSL
NJARET21100-37000-40215-20000732D0008008D005000000040215     GGSL
NJARET21100-37000-40509-20000744D0002403D001120000011804     GGSL
NJARET21100-37000-41767-50001204D0007332D000000000021459     GGSL
NJARET21100-37000-41827-60000728D0007338D004420000041827     GGSL
NJARET21100-37000-44750-40000378D0002521D000000000082074     GGSL
NJARET21100-37000-73977-70000240D0002407D000500000073977     GGSL
NJARET21100-37000-76337-60000832D0006373D002850000076337     GGSL
NJARET21100-37000-92811-90000292D0005399D000640000092811     GGSL
NJARET21100-37000-92815-70001416D0012900D000200000092815     GGSL
NJARET21100-37000-99042-00000496D0003021D002970000099042     GGSL
NJARET21100-37321-00022-80000900D0006074D0003300033022       GGSL
NJARET21100-37321-00023-50000008D0000169D0001800014023       GGSL
NJARET21100-37321-00024-20000060D0000868D0011200022024       GGSL
NJARET21100-37321-00025-90000132D0001233D0008200027025       GGSL
NJARET21100-37321-00061-70000012D0000097D0010500015061       GGSL
NJARET21100-37321-00066-20000132D0001659D0005200008066       GGSL
NJARET21100-37321-00069-30000036D0000517D0002100000069       GGSL
NJARET21100-37321-00098-30000585D0002857D0000100001098       GGSL
NJARET21100-37321-00099-00000468D0003343D0000900005099       GGSL
NJARET21100-37321-00102-70000072D0000904D0000300003102       GGSL
NJARET21100-37321-00103-40000016D0000586D0000400000103       GGSL
NJARET21100-37321-00105-80000060D0000189D0003900011105       GGSL
NJARET21100-37321-00106-50000060D0000190D0009300009106       GGSL
NJARET21100-37321-00107-20000108D0000332D0021700011107       GGSL
NJARET21100-37321-00108-90000288D0000903D0007400024108       GGSL
NJARET21100-37321-00110-20000896D0003074D0020900037110       GGSL
NJARET21100-37321-00112-60000392D0001371D0040000162112       GGSL
NJARET21100-37321-00114-00000144D0000503D0020200024114       GGSL
NJARET21100-37321-00116-40000096D0000330D0011800010116       GGSL
NJARET21100-37321-00120-10000108D0000647D0005700015120       GGSL
NJARET21100-37321-00121-80000008D0000104D0004000006121       GGSL
NJARET21100-37321-00123-20000012D0000054D0001500001123       GGSL
NJARET21100-37321-00127-00000096D0000857D0009400015127       GGSL
NJARET21100-37321-00141-60000012D0000056D0007000018141       GGSL
NJARET21100-37321-00148-50000036D0000384D0003600010148       GGSL
NJARET21100-37321-00150-80000036D0000612D0005300010150       GGSL
NJARET21100-37321-00196-60000036D0000219D0002000003196       GGSL
NJARET21100-37321-00197-30000024D0000146D0007900005197       GGSL
NJARET21100-37321-00198-00000012D0000144D0001100002198       GGSL
NJARET21100-37321-00210-90000024D0000143D0000800002210       GGSL
NJARET21100-37321-00211-60000036D0000310D0002000001211       GGSL
NJARET21100-37321-00212-30000016D0000363D0001000010212       GGSL
NJARET21100-37321-00213-00000120D0001277D0003500024213       GGSL
NJARET21100-37321-00214-70000156D0000917D0035600025214       GGSL
NJARET21100-37321-00225-30000024D0000146D0000300003225       GGSL
NJARET21100-37321-00227-70000024D0000301D0000600002227       GGSL
NJARET21100-37321-00230-70000036D0000321D0002600000230       GGSL
NJARET21100-37321-00237-60000048D0000639D0000700002237       GGSL
NJARET21100-37321-00238-30000048D0000405D0001200009238       GGSL
NJARET21100-37321-00239-00000012D0000295D0002900004239       GGSL
NJARET21100-37321-00250-50000048D0000259D0001800002250       GGSL
NJARET21100-37321-00252-90000060D0000754D0003500002252       GGSL
NJARET21100-37321-00253-60000036D0000765D0005900005253       GGSL
NJARET21100-37321-00255-00000012D0000278D0000900005255       GGSL
NJARET21100-37321-00257-40000012D0000048D0002700002257       GGSL
NJARET21100-37321-00274-10000012D0000063D0000000000274       GGSL
NJARET21100-37321-00285-70000084D0000517D0012800018285       GGSL
NJARET21100-37321-00307-60000060D0000293D0018300024307       GGSL
NJARET21100-37321-00309-00000030D0000591D0017500016309       GGSL
NJARET21100-37321-00312-00000036D0000774D0004000006312       GGSL
NJARET21100-37321-00321-20000126D0000567D0000400004321       GGSL
NJARET21100-37321-00323-60000006D0000088D0000000000323       GGSL
NJARET21100-37321-00370-00000012D0000059D0005200002370       GGSL
NJARET21100-37321-00411-00000012D0000045D0003300003411       GGSL
NJARET21100-37321-00412-70000048D0000275D0001000000412       GGSL
NJARET21100-37321-00426-40000012D0000127D0004600006426       GGSL
NJARET21100-37321-00428-80000096D0000394D0010800010428       GGSL
NJARET21100-37321-00429-50000003D0000064D0004300002429       GGSL
NJARET21100-37321-00442-40000012D0000081D0006000009442       GGSL
NJARET21100-37321-00443-10000048D0000632D0001500004443       GGSL
NJARET21100-37321-00506-30000048D0000224D0004600006506       GGSL
NJARET21100-37321-00527-80000084D0000374D0002300006527       GGSL
NJARET21100-37321-00530-80000008D0000086D0006400003530       GGSL
NJARET21100-37321-00549-00000012D0000123D0001600001549       GGSL
NJARET21100-37321-00609-10000036D0000400D0009700002609       GGSL
NJARET21100-37321-00613-80000004D0000058D00002000020613      GGSL
NJARET21100-37321-00629-90000012D0000040D0000000000629       GGSL
NJARET21100-37321-00631-20000024D0000104D0000700007631       GGSL
NJARET21100-37321-00651-00000012D0000162D00011000010651      GGSL
NJARET21100-37321-00652-70000540D0002508D0001100004652       GGSL
NJARET21100-37321-00655-80000048D0000352D00010000016556      GGSL
NJARET21100-37321-00680-00000012D0000121D0000500001680       GGSL
NJARET21100-37321-00692-30000072D0000988D0003900015692       GGSL
NJARET21100-37321-00692-30000018D0000223D0014700101692X      GGSL
NJARET21100-37321-00697-80000024D0000103D0003100009697       GGSL
NJARET21100-37321-00698-50000048D0000294D0001600009698       GGSL
NJARET21100-37321-00705-00000048D0000305D0011500015705       GGSL
NJARET21100-37321-00728-90000036D0000501D0000400001728       GGSL
NJARET21100-37321-00730-20000048D0000288D0004600001730       GGSL
NJARET21100-37321-00731-90000008D0000102D0000300003731       GGSL
NJARET21100-37321-00757-90000006D0000028D0001000001757       GGSL
NJARET21100-37321-00771-50000108D0000572D0012300021771       GGSL
NJARET21100-37321-00772-20000060D0000444D0000200000772       GGSL
NJARET21100-37321-00775-30000012D0000072D0000200001775       GGSL
NJARET21100-37321-00777-70000012D0000119D0000900001777       GGSL
NJARET21100-37321-00786-90000060D0000298D0000300003786       GGSL
NJARET21100-37321-00788-30000012D0000080D0002300003788       GGSL
NJARET21100-37321-00789-00000003D0000021D0062200010789       GGSL
NJARET21100-37321-00803-30000036D0000360D0005000003803       GGSL
NJARET21100-37321-00806-40000096D0000796D0002200014806       GGSL
NJARET21100-37321-00811-80000012D0000143D0000000000811       GGSL
NJARET21100-37321-00857-60000012D0000111D0002200003857       GGSL
NJARET21100-37321-00858-30000048D0000666D0000800002858       GGSL
NJARET21100-37321-00862-00000228D0002950D0000600001862       GGSL
NJARET21100-37321-00865-10000048D0000273D0014600012865       GGSL
NJARET21100-37321-00868-20000072D0001273D0000700007868       GGSL
NJARET21100-37321-00870-50000096D0000444D0000100000870       GGSL
NJARET21100-37321-00871-20000024D0000215D0001000001871       GGSL
NJARET21100-37321-00883-50000120D0000624D0022500011883       GGSL
NJARET21100-37321-00897-20000036D0000243D0001600006897       GGSL
NJARET21100-37321-00903-00000036D0000244D0001500006903       GGSL
NJARET21100-37321-00904-70000012D0000109D0000200001904       GGSL
NJARET21100-37321-00908-50000012D0000127D0000200001908       GGSL
NJARET21100-37321-00909-20000012D0000238D0000600003909       GGSL
NJARET21100-37321-00925-20000624D0001990D0070700097925       GGSL
NJARET21100-37321-00939-90000024D0000290D0007300003939       GGSL
NJARET21100-37321-00944-30000012D0000069D0000300001944       GGSL
NJARET21100-37321-00951-10000336D0001551D0033500150951       GGSL
NJARET21100-37321-00952-80000168D0000948D0000000000952       GGSL
NJARET21100-37321-00963-40000072D0000716D0000400001963       GGSL
NJARET21100-37321-00982-50000048D0000225D0010300002982       GGSL
NJARET21100-37321-00983-20000003D0000060D0000200001983       GGSL
NJARET21100-37321-02021-90000006D0000100D00057000052021      GGSL
NJARET21100-37321-02071-40000006D0000213D00029000022071      GGSL
NJARET21100-37321-02360-90000252D0001579D00077000052360      GGSL
NJARET21100-37321-02361-60000120D0001468D00026000012361      GGSL
NJARET21100-37321-02362-30000008D0000168D00043000082362      GGSL
NJARET21100-37321-05121-30000012D0000079D00021000015121      GGSL
NJARET21100-37321-05131-20000008D0000130D00059000055131      GGSL
NJARET21100-37321-05141-10000004D0000158D00039000015141      GGSL
NJARET21100-37321-07460-10000012D0000093D00002000007460      GGSL
NJARET21100-37321-07461-80000012D0000155D00006000017461      GGSL
NJARET21100-37321-07462-50000004D0000153D00001000017462      GGSL
NJARET21100-37321-07465-60000012D0000423D00006000027465      GGSL
NJARET21100-37321-07466-30000016D0001289D00010000027466      GGSL
NJARET21100-37321-07490-80000144D0000820D00313001017490      GGSL
NJARET21100-37321-08636-90000024D0000302D00104000018636      GGSL
NJARET21100-37321-08751-90000048D0000254D00001000008751      GGSL
NJARET21100-37321-45502-80000012D0000064D000390000245502     GGSL
NJARET21100-37321-46126-50000200D0000038D000040000146126     GGSL
NJARET21100-37321-47062-50000072D0000060D000000000047062     GGSL
NJARET21100-37321-60214-90000005D0000127D000170000260215     GGSL
NJARET21100-37321-60254-50000005D0000111D000020000060255     GGSL
NJARET21100-37321-60257-60000003D0000171D000030000260257     GGSL
NJARET21100-37321-60360-30000006D0000069D005790001260360X    GGSL
NJARET21100-37321-60365-80000010D0000312D003600002060365     GGSL
NJARET21100-37321-60400-60000001D0000013D006050000060400     GGSL
NJARET21100-37321-60440-20000050D0000683D004010000060440     GGSL
NJARET21100-37321-60454-90000045D0000740D004080000060454     GGSL
NJARET21100-37321-60464-80000045D0001618D000460000060464     GGSL
NJARET21100-37321-60476-10000082D0001231D006210002860478X    GGSL
NJARET21100-37321-60490-70000005D0000095D001490001260490     GGSL
NJARET21100-37321-60725-00000009D0000073D000220000160725     GGSL
NJARET21100-37321-60728-10000013D0000194D018670000760728     GGSL
NJARET21100-37321-60728-10000100D0001165D000160000560729     GGSL
NJARET21100-38313-00008-00000024D0000473D0002500011BP3130    GGSL
NJARET21100-38313-00060-80000048D0000992D0002600009BP3160    GGSL
NJARET21100-38313-00080-60000036D0000831D0003100008BP3180D   GGSL
NJARET21100-38313-00081-30000012D0000125D0003500006AC7220    GGSL
NJARET21100-38313-00217-60000006D0000124D0001400000FS4350    GGSL
NJARET21100-38313-00407-10000018D0000337D0002600004RS7041    GGSL
NJARET21100-38313-00413-20000009D0000185D0002700001 RS7120   GGSL
NJARET21100-38313-00524-50000030D0000802D0000600002SL3310    GGSL
NJARET21100-38313-01020-10000096D0000523D0010700019CT3020    GGSL
NJARET21100-38313-01030-00000030D0000166D0008100007CT3030    GGSL
NJARET21100-38313-03214-20000066D0000815D0001500004BP3214D   GGSL
NJARET21100-38313-03334-70000006D0000078D0000000000AP3334    GGSL
NJARET21100-38313-03710-90000060D0000419D0003700011CT3710    GGSL
NJARET21100-38313-03720-80000024D0000168D0002200007CT3720    GGSL
NJARET21100-38313-03730-70000030D0000210D0007000003CT3730    GGSL
NJARET21100-38313-03740-60000024D0000166D0007600003CT3740    GGSL
NJARET21100-38313-03750-50000030D0000210D0004600002CT3750    GGSL
NJARET21100-38313-04436-70000024D0000789D0002000004FL3460    GGSL
NJARET21100-38313-04438-10000006D0000199D0002200003FL3420    GGSL
NJARET21100-38313-06830-10000002D0000143D0000700004 TP6830   GGSL
NJARET21100-38313-07245-20000018D0000348D0001800000RS7245    GGSL
NJARET21100-38313-33740-70000008D0000079D0000300000CT3374    GGSL
NJARET21100-38313-53841-50000012D0000711D0000700003TP3841    GGSL
NJARET21100-38313-63760-60000030D0000370D0001200001GS3760    GGSL
NJARET21100-38313-64250-10000030D0000688D0003900015BP4250    GGSL
NJARET21100-38313-82501-00000006D0000071D0000100001SS25010   GGSL
NJARET21100-38858-02012-30000004D0000062D00003000017220041042GGSL
NJARET21100-38858-05009-00000006D0000077D000000000033600609  GGSL
NJARET21100-38858-05649-80000006D0000033D000070000537510609  GGSL
NJARET21100-38858-05650-40000036D0000215D000070000437520609  GGSL
NJARET21100-38858-05654-20000042D0000239D000050000237560609  GGSL
NJARET21100-38858-05655-90000006D0000039D000220000637570609  GGSL
NJARET21100-38858-05657-30000006D0000039D000020000237590609  GGSL
NJARET21100-38858-05658-00000006D0000032D000020000237600609  GGSL
NJARET21100-38858-06770-80000008D0000100D000000000037760409  GGSL
NJARET21100-38858-06771-50000012D0000218D000130000337770409  GGSL
NJARET21100-38858-06778-40000004D0000127D000030000137850409  GGSL
NJARET21100-38858-06933-70000036D0000068D000130000996501200  GGSL
NJARET21100-38858-06936-80000036D0000230D000170000896801200  GGSL
NJARET21100-38858-07459-10000006D0000045D000090000035120609  GGSL
NJARET21100-38858-07765-30000006D0000101D0000100001980106770 GGSL
NJARET21100-38858-07792-90000072D0000316D000170000767152400  GGSL
NJARET21100-38858-07793-60000168D0002562D000280000767161200  GGSL
NJARET21100-38858-08322-70000006D0000105D00001000001210600   GGSL
NJARET21100-38858-09816-00000006D0000026D00002000019331061179GGSL
NJARET21100-38858-09817-70000006D0000026D00001000019331061184GGSL
NJARET21100-38858-09818-40000006D0000062D00002000029332061179GGSL
NJARET21100-38858-09819-10000006D0000062D00003000029332061184GGSL
NJARET21100-38858-09823-80000006D0000056D00001000009333061184GGSL
NJARET21100-38858-09925-90000006D0000051D00000000009310061174GGSL
NJARET21100-38858-09930-30000006D0000051D00000000009310061178GGSL
NJARET21100-38858-09931-00000006D0000051D00002000009311061174GGSL
NJARET21100-38858-09935-80000006D0000051D00001000009311061178GGSL
NJARET21100-38858-10457-10000008D0000073D00000000007985049180GGSL
NJARET21100-38858-10816-60000354D0001557D00024000249685064502GGSL
NJARET21100-38858-10973-60000014D0000439D0006300063140001070 GGSL
NJARET21100-38858-10974-30000252D0000794D0001400009140112070 GGSL
NJARET21100-38858-10975-00000110D0000915D0001400002140210070 GGSL
NJARET21100-38858-10976-70000050D0000712D0000500001140310070 GGSL
NJARET21100-38858-10979-80000108D0000348D00022000141406121080GGSL
NJARET21100-38858-10981-10000001D0000037D00006000001404011081GGSL
NJARET21100-38858-10983-50000096D0000309D00014000131406121081GGSL
NJARET21100-38858-10984-20000020D0000181D00009000001407101081GGSL
NJARET21100-38858-10985-90000001D0000039D00009000001404011082GGSL
NJARET21100-38858-10987-30000012D0000039D00013000071406121082GGSL
NJARET21100-38858-10988-00000010D0000090D00001000001407101082GGSL
NJARET21100-38858-10989-70000001D0000039D00002000011404011083GGSL
NJARET21100-38858-10993-40000001D0000039D00004000011404011084GGSL
NJARET21100-38858-10995-80000024D0000077D00001000011406121084GGSL
NJARET21100-38858-11000-80000010D0000080D00000000001407101085GGSL
NJARET21100-38858-11004-60000024D0000071D0001000004141112070 GGSL
NJARET21100-38858-11005-30000090D0000414D0001200002141210070 GGSL
NJARET21100-38858-11006-00000010D0000077D0000000000141310070 GGSL
NJARET21100-38858-11007-70000001D0000020D00001000001409011082GGSL
NJARET21100-38858-11008-40000002D0000104D00006000001410011082GGSL
NJARET21100-38858-11009-10000096D0000281D00007000051411121082GGSL
NJARET21100-38858-11010-70000010D0000041D00000000001412101082GGSL
NJARET21100-38858-11011-40000080D0000706D00008000011413101082GGSL
NJARET21100-38858-11014-50000132D0000310D00016000071416121086GGSL
NJARET21100-38858-11016-90000072D0000163D00000000001418121086GGSL
NJARET21100-38858-11020-60000024D0000059D0000500004142212070 GGSL
NJARET21100-38858-11022-00000030D0000254D0000300000142410070 GGSL
NJARET21100-38858-11023-70000144D0000442D00021000091425121087GGSL
NJARET21100-38858-11268-20000006D0000026D0000000000121006070 GGSL
NJARET21100-38858-11288-00000012D0000065D0000200001127012070 GGSL
NJARET21100-38858-11290-30000001D0000313D0001400000127201070 GGSL
NJARET21100-38858-11299-60000024D0000138D0000000000129006080 GGSL
NJARET21100-38858-11300-90000012D0000099D0000000000129106080 GGSL
NJARET21100-38858-11301-60000030D0000287D0000300000130006080 GGSL
NJARET21100-38858-11316-00000036D0000092D0000000000130536070 GGSL
NJARET21100-38858-11391-70000004D0000019D0000000000123806070 GGSL
NJARET21100-38858-11724-30000110D0000833D00002000021431101082GGSL
NJARET21100-38858-11726-70000020D0000107D0001000001142710070 GGSL
NJARET21100-38858-12008-30000006D0000038D0000200000752069183 GGSL
NJARET21100-38858-12010-60000006D0000063D00001000007530623   GGSL
NJARET21100-38858-13567-40000008D0000237D000090000435500209  GGSL
NJARET21100-38858-13569-80000018D0000185D000060000237800609  GGSL
NJARET21100-38858-13570-40000018D0000203D000010000137810609  GGSL
NJARET21100-38858-13572-80000012D0000306D00009000033776042000GGSL
NJARET21100-38858-13573-50000010D0000342D00019000053777022000GGSL
NJARET21100-38858-13574-20000096D0000198D000000000067132400  GGSL
NJARET21100-38858-13575-90000072D0000417D0001600007671712769 GGSL
NJARET21100-38858-13576-60000048D0000326D0001900005671812769 GGSL
NJARET21100-38858-13579-70000006D0000088D000010000170006936  GGSL
NJARET21100-38858-13580-30000006D0000088D000080000170006937  GGSL
NJARET21100-38858-13583-40000324D0000708D000290001096401200  GGSL
NJARET21100-38858-13584-10000078D0000327D000260001896850609  GGSL
NJARET21100-38858-13585-80000006D0000027D0001400002968506423 GGSL
NJARET21100-38858-13586-50000012D0000052D0000100001968506579 GGSL
NJARET21100-38858-13587-20000084D0000512D0002600006968506426 GGSL
NJARET21100-38858-13588-90000066D0000290D0003900008968506425 GGSL
NJARET21100-38858-13601-50000012D0000094D00012000037980069180GGSL
NJARET21100-38858-60603-70000012D0000045D000000000014061230  GGSL
NJARET21100-38858-60617-40000042D0000476D00008000069686061242GGSL
NJARET21100-38858-60621-10000012D0000186D00010000079688041242GGSL
NJARET21100-38858-60623-50000072D0000358D0000500004129236070 GGSL
NJARET21100-38858-60626-60000072D0000399D0000400003129336070 GGSL
NJARET21100-38858-60629-70000072D0000265D0000200002129736070 GGSL
NJARET21100-38858-60632-70000072D0000353D0000400002129836070 GGSL
NJARET21100-38858-60637-20000030D0000294D0000300003124006070 GGSL
NJARET21100-38858-60643-30000004D0000033D0001300011745004222 GGSL
NJARET21100-38858-60645-70000004D0000033D0001000006745104222 GGSL
NJARET21100-38858-60658-70000012D0000092D000010000037620609  GGSL
NJARET21100-38858-60662-40000192D0001217D00004000047896121295GGSL
NJARET21100-38858-60664-80000144D0000908D00006000057897121305GGSL
NJARET21100-38902-10120-40000144D0000886D0001900001123184    GGSL
NJARET21100-39526-38165-20000516D0014937D00065000113201C503  GGSL
NJARET21100-39526-38169-00000600D0008346D00101000093201C502  GGSL
NJARET21100-39526-38178-20000028D0002351D00025000133201L162  GGSL
NJARET21100-39526-38250-50000047D0005287D00064000023201L150  GGSL
NJARET21100-39526-38571-10000041D0007407D00043000013201C115  GGSL
NJARET21100-39526-38988-70000005D0001081D00053000003201C041  GGSL
NJARET21100-39694-71181-70000001D0000072D0000100000LP7118    GGSL
NJARET21100-40235-75128-50000004D0000035D00026000051G30S     GGSL
NJARET21100-41333-00149-40000240D0001178D002610000303661     GGSL
NJARET21100-41333-00151-70000080D0000283D003190000304161     GGSL
NJARET21100-41333-00213-20000540D0007898D003170017000232     GGSL
NJARET21100-41333-00406-80001152D0001290D000810001066150     GGSL
NJARET21100-41333-01310-70000576D0004510D000000000066203     GGSL
NJARET21100-41333-01548-40000816D0011220D000040000001548     GGSL
NJARET21100-41333-03255-90000240D0000791D000190000503255     GGSL
NJARET21100-41333-03257-30000264D0001484D000180001303257     GGSL
NJARET21100-41333-03263-40000264D0000912D001110000303263     GGSL
NJARET21100-41333-03264-10000024D0000140D000130000003264     GGSL
NJARET21100-41333-03265-80000168D0000912D000740000703265     GGSL
NJARET21100-41333-03501-70000024D0000208D000320000077564     GGSL
NJARET21100-41333-03575-80000468D0006318D001670000503575     GGSL
NJARET21100-41333-04864-20000384D0003049D000660000004964     GGSL
NJARET21100-41333-09006-10000252D0001858D000390000109006     GGSL
NJARET21100-41333-10110-10000036D0000031D003410000066175     GGSL
NJARET21100-41333-10210-80000144D0000125D000470000103544     GGSL
NJARET21100-41333-10310-50003240D0002820D001860000003545     GGSL
NJARET21100-41333-10709-70000036D0000017D000330000066134     GGSL
NJARET21100-41333-11210-70000144D0000446D000190000666191     GGSL
NJARET21100-41333-11609-90000072D0000080D000600000011609     GGSL
NJARET21100-41333-13009-50000180D0000140D000430000066128     GGSL
NJARET21100-41333-14809-00000036D0000014D000180000066140     GGSL
NJARET21100-41333-16210-20000036D0000031D000060000066171     GGSL
NJARET21100-41333-17064-00001440D0011292D000230000017064     GGSL
NJARET21100-41333-17709-00000036D0000019D000780000017709     GGSL
NJARET21100-41333-21210-40000936D0005494D003230001066192     GGSL
NJARET21100-41333-21601-00015456D0070533D001660007403961     GGSL
NJARET21100-41333-27035-70003924D0050361D005140045800057     GGSL
NJARET21100-41333-27035-70006744D0065614D000040000000061     GGSL
NJARET21100-41333-43001-00004284D0020686D002960025203361     GGSL
NJARET21100-41333-44001-90009360D0045867D003130008213848     GGSL
NJARET21100-41333-66105-60000240D0003727D000100000266105     GGSL
NJARET21100-41333-66112-40000464D0005870D000400000166112     GGSL
NJARET21100-41333-66155-10000192D0001799D000950000066155     GGSL
NJARET21100-41333-66160-50000240D0002249D001070000066160     GGSL
NJARET21100-41333-66275-60000036D0000060D000250000066200     GGSL
NJARET21100-41333-66287-90001008D0002056D001390000066287     GGSL
NJARET21100-41333-66287-90000001D0000001D000310000066287X    GGSL
NJARET21100-41333-66385-20000324D0000402D002450000566385     GGSL
NJARET21100-41333-66387-60000864D0001071D002180000303535     GGSL
NJARET21100-41333-66388-30001224D0001477D001670001603534     GGSL
NJARET21100-41333-66391-30001404D0003356D001010001766391     GGSL
NJARET21100-41333-67448-30000540D0000869D000780002167448     GGSL
NJARET21100-41333-70464-70002748D0020647D004300032470464     GGSL
NJARET21100-41333-70464-70016260D0127304D000380000292948     GGSL
NJARET21100-41333-74064-50003200D0030164D001220000003831     GGSL
NJARET21100-41333-74064-50000924D0010779D004040000093148     GGSL
NJARET21100-41333-75864-00000672D0009240D000480000001348     GGSL
NJARET21100-41333-82501-40021792D0089651D002200012103761     GGSL
NJARET21100-41333-82701-80000288D0003606D004430000077364     GGSL
NJARET21100-41333-84401-50016760D0068603D002140003004261     GGSL
NJARET21100-41333-93364-10000132D0001653D000110000019235     GGSL
NJARET21100-41333-93464-80000168D0002014D000160000019435     GGSL
NJARET21100-41333-93564-50000036D0000418D000500000093564     GGSL
NJARET21100-41525-01301-40001603D0023208D00000000004152501301GGSL
NJARET21100-41717-02000-40000002D0000234D00004000000200      GGSL
NJARET21100-41911-00033-80000576D0001590D0000500000SW03324R  GGSL
NJARET21100-42206-09001-00000010D0000056D00039000019001      GGSL
NJARET21100-42206-14390-70000012D0000157D0001500000101       GGSL
NJARET21100-42206-14506-20000020D0000041D000480000302MC      GGSL
NJARET21100-42206-14571-00000010D0000051D0006300001ZBM34     GGSL
NJARET21100-42206-14572-70000020D0000102D0004100001ZBF34     GGSL
NJARET21100-42206-40260-80000120D0001234D000360000120260     GGSL
NJARET21100-42206-40301-80000010D0000117D0001400000XT301     GGSL
NJARET21100-42206-63100-80000004D0000193D000110000163100     GGSL
NJARET21100-42206-63280-70000004D0000302D000100000063280     GGSL
NJARET21100-42338-03712-90000004D0000067D00002000013712      GGSL
NJARET21100-42338-04202-40000004D0000064D00001000004202      GGSL
NJARET21100-42338-04204-80000004D0000064D00004000014204      GGSL
NJARET21100-42338-04254-30000004D0000115D00000000004254GW    GGSL
NJARET21100-42338-04353-30000002D0000094D00004000014353W     GGSL
NJARET21100-42338-04579-70000012D0000088D00000000004579      GGSL
NJARET21100-42338-04617-60000004D0000071D00002000004617      GGSL
NJARET21100-42338-04711-10000004D0000120D00003000024711      GGSL
NJARET21100-42338-04713-50000002D0000060D00005000034713      GGSL
NJARET21100-42338-08140-50000006D0000180D00114000138140      GGSL
NJARET21100-42338-08142-90000004D0000120D00140000028142      GGSL
NJARET21100-42338-08191-70000002D0000050D00033000018191      GGSL
NJARET21100-42338-08210-50000004D0000154D00000000008210      GGSL
NJARET21100-42338-08220-40000004D0000145D00002000018220      GGSL
NJARET21100-42338-08244-00000002D0000077D00007000008244      GGSL
NJARET21100-42338-08282-20000002D0000070D00000000008282      GGSL
NJARET21100-42338-09113-80000001D0000041D00003000019113      GGSL
NJARET21100-42338-09134-30000004D0000082D00003000009134      GGSL
NJARET21100-42338-09178-70000002D0000070D00005000009178      GGSL
NJARET21100-42338-12155-20000006D0000245D00002000022155C     GGSL
NJARET21100-42338-34478-40000004D0000106D00006000004478C     GGSL
NJARET21100-42338-93111-30000002D0000090D000010000093111     GGSL
NJARET21100-42351-43340-30000004D0000087D0000200002FB33100   GGSL
NJARET21100-42351-43370-00000036D0001116D0000100000FB5550    GGSL
NJARET21100-42351-45680-80000008D0000108D0001200006LB520B    GGSL
NJARET21100-42351-45690-70000004D0000223D0001100000LB5100B   GGSL
NJARET21100-42351-47110-80000288D0001256D0000000000RC        GGSL
NJARET21100-42579-11500-60000034D0001408D0003700008APB5      GGSL
NJARET21100-42579-12346-90000024D0000053D0002200000TW3W      GGSL
NJARET21100-42579-12348-30000720D0001138D0008500022APRC      GGSL
NJARET21100-42579-12349-00000028D0000184D0009400001RS15      GGSL
NJARET21100-42579-16250-50000025D0005813D0005100000P6        GGSL
NJARET21100-42579-22350-30000416D0003040D00117000306YR350    GGSL
NJARET21100-42579-23100-30000256D0003377D00066000286YR3100   GGSL
NJARET21100-42579-24250-40000002D0000284D000400000020YR4250  GGSL
NJARET21100-42579-25250-30000002D0000323D000000000020YR5250  GGSL
NJARET21100-42579-26250-20000001D0000213D000230000020YR6250  GGSL
NJARET21100-42579-32501-60000020D0001181D00079000066YR4300   GGSL
NJARET21100-42579-43003-10000001D0000065D0000200002NB3       GGSL
NJARET21100-42579-43004-80000012D0001174D0002000012NB4       GGSL
NJARET21100-42579-43120-50000030D0000159D0000000000NB312     GGSL
NJARET21100-42579-43240-00000260D0002032D0000400002NB324     GGSL
NJARET21100-42579-63354-80000001D0000106D000380000212YR4300  GGSL
NJARET21100-42579-81276-90000018D0000278D000330000512YR350   GGSL
NJARET21100-42579-81343-80000008D0000244D000420000312YR3100  GGSL
NJARET21100-42579-81429-90000176D0003550D0000800003DDF7100PC GGSL
NJARET21100-42579-81521-00000001D0000062D0000100000PN302020  GGSL
NJARET21100-42579-81569-20000002D0000856D0002100000SBLT155300GGSL
NJARET21100-42579-81606-40000002D0000222D0005900007PROBLK4300GGSL
NJARET21100-42579-81608-80000002D0000448D0002000000PROBLK8300GGSL
NJARET21100-42579-81619-40000007D0000522D0004400000APB1      GGSL
NJARET21100-42579-81624-80000216D0003118D0007300026PROBLK350 GGSL
NJARET21100-42579-81625-50000136D0003946D0008200046PROBLK3100GGSL
NJARET21100-42579-81639-20000001D0000006D0000200001TIE11100  GGSL
NJARET21100-42579-81782-50000016D0000370D0000000000SG200PAL  GGSL
NJARET21100-42579-81992-80000012D0000121D0002100007NAT340    GGSL
NJARET21100-42579-82278-20000024D0000234D0000000000 TWBAG12  GGSL
NJARET21100-42579-82278-20000009D0000096D0000000000 TWBAG36X GGSL
NJARET21100-42579-82283-60000204D0003038D0224200003STRTS28   GGSL
NJARET21100-42579-82320-80000048D0000749D0003800003TWD24     GGSL
NJARET21100-42853-30000-50000016D0000082D0001400000OTYJIEDB8 GGSL
NJARET21100-42853-40000-20000008D0000023D0004800000TSFBB8    GGSL
NJARET21100-42853-50001-60000024D0000169D0000000000TSWBB6    GGSL
NJARET21100-42853-65000-10000004D0000017D0001100000AB6BB4    GGSL
NJARET21100-42853-71017-00020008D0105042D0000000000FTRSF4    GGSL
NJARET21100-42853-77603-90007152D0027392D0000500000YJTDDB12E GGSL
NJARET21100-42853-80100-70033600D0364560D0000000000WHYTRBB8  GGSL
NJARET21100-42854-03288-20000024D0000053D0000900003FG32WM1   GGSL
NJARET21100-42854-06386-20000001D0000079D0004500000FG16EVO112GGSL
NJARET21100-42854-64870-00000012D0000097D0001800018FG48PC1   GGSL
NJARET21100-42854-73261-40000012D0000046D0001600003FG32DI3   GGSL
NJARET21100-42854-93200-70000012D0000092D0000700001FG32SM1   GGSL
NJARET21100-42854-99013-70000001D0000211D0001400000SOPASW950AGGSL
NJARET21100-43168-50308-20000008D0000584D0000700000 93101226 GGSL
NJARET21100-43168-50313-60000004D0000053D0000100000 93101231 GGSL
NJARET21100-43281-00138-00000012D0000047D0001000000 20669    GGSL
NJARET21100-43281-00139-70000010D0000040D0000000000 20668    GGSL
NJARET21100-43281-00193-90000120D0000455D0010000000 20654    GGSL
NJARET21100-43281-00194-60000324D0001198D0020400192 20652    GGSL
NJARET21100-43281-00194-60000222D0000875D0007100000 20657    GGSL
NJARET21100-43281-00202-80000132D0000502D0000000000 20679    GGSL
NJARET21100-43281-00445-90000002D0000049D0000600000 Z606     GGSL
NJARET21100-43326-15710-20000024D0000063D0002000000 M6X8     GGSL
NJARET21100-43326-15732-40000026D0000171D0007900014 M10X12   GGSL
NJARET21100-43326-16720-00000018D0000182D0004500000 A8X10P   GGSL
NJARET21100-43326-16730-90000012D0000160D0008600000 A9X12P   GGSL
NJARET21100-43326-16764-40000002D0000203D0000400000 A20X40P  GGSL
NJARET21100-43326-20005-10000050D0000081D0000000000STR31     GGSL
NJARET21100-43685-41040-50000006D0000092D0005400000 41040    GGSL
NJARET21100-43786-00102-10000024D0000086D000130000100102     GGSL
NJARET21100-43786-07270-00000084D0000515D000000000007270     GGSL
NJARET21100-44600-08033-80000027D0000101D001550000008033     GGSL
NJARET21100-45635-92273-00000012D0000067D0004400003NHRTU     GGSL
NJARET21100-46385-10024-90000005D0000221D0001100000 10024    GGSL
NJARET21100-46385-10030-00000002D0000099D0000300000 10030    GGSL
NJARET21100-46385-10036-20000061D0003740D0001600005 10036    GGSL
NJARET21100-46385-10048-50000002D0000115D0000000000 10048    GGSL
NJARET21100-46385-40912-00000010D0000207D0000000000 40912    GGSL
NJARET21100-46385-40924-30000067D0001573D0000000000 40924    GGSL
NJARET21100-46385-40932-80000024D0000443D0000600004 40932    GGSL
NJARET21100-46385-40936-60000023D0000471D0001700000 40936    GGSL
NJARET21100-46385-41041-60000005D0000035D0002200000 41041    GGSL
NJARET21100-46385-41044-70000072D0000243D0002000000 41044    GGSL
NJARET21100-46385-92030-40000004D0000163D0001500002 92030    GGSL
NJARET21100-46385-92048-90000001D0000042D0000500000 92048    GGSL
NJARET21100-46539-62005-00000400D0001716D000000000075312     GGSL
NJARET21100-46539-64032-40000352D0003869D0040100127MOF32X    GGSL
NJARET21100-46561-00665-50000006D0000059D00004000003992501001GGSL
NJARET21100-46561-19168-90000006D0000144D000010000091686935J GGSL
NJARET21100-46561-19278-50000016D0000252D00001000013927811001GGSL
NJARET21100-46561-19413-00000018D0000268D000230000094136974J GGSL
NJARET21100-46561-19418-50000004D0000024D000000000094186997J GGSL
NJARET21100-46561-19669-10000004D0000100D000000000096696925J GGSL
NJARET21100-46561-19896-10000020D0000584D000110000298966935  GGSL
NJARET21100-46561-99608-60000012D0000110D00011000033960801006GGSL
NJARET21100-46798-16210-00000012D0000043D000050000016210     GGSL
NJARET21100-46798-16294-00000006D0000040D000000000016294     GGSL
NJARET21100-46798-16354-10000012D0000033D000000000016354     GGSL
NJARET21100-46798-16357-20000004D0000060D000000000016357     GGSL
NJARET21100-46798-16359-60000012D0000036D000020000016359     GGSL
NJARET21100-46798-16434-00000012D0000057D000010000016434     GGSL
NJARET21100-46798-16458-60000001D0000084D000000000016458     GGSL
NJARET21100-46798-16469-20000006D0000181D000000000016469     GGSL
NJARET21100-46798-16477-70000024D0000089D000110000016477     GGSL
NJARET21100-47223-07118-90000204D0000290D00169000000711812   GGSL
NJARET21100-47400-66652-80000012D0001400D000160000066652     GGSL
NJARET21100-47400-66780-80000048D0001680D000060000066780     GGSL
NJARET21100-47815-00035-10000032D0000333D0003300001N35VBOX   GGSL
NJARET21100-47815-00050-40000220D0001910D0013000001N50LBOX   GGSL
NJARET21100-47815-00100-60000050D0000982D0002400000N100SEB   GGSL
NJARET21100-47815-14175-70000216D0000965D0002600001N12EB     GGSL
NJARET21100-47977-00064-00000016D0000352D000070000075590     GGSL
NJARET21100-47977-00081-70000009D0000259D000320000374240     GGSL
NJARET21100-47977-00397-90000026D0001835D00002000007536      GGSL
NJARET21100-47977-00498-30000002D0000054D00000000007458      GGSL
NJARET21100-47977-00801-10000052D0001190D0001500001NA35329   GGSL
NJARET21100-47977-00812-70000004D0000055D0002400006NA35241   GGSL
NJARET21100-47977-00891-20000004D0000042D0001800012NA35223   GGSL
NJARET21100-49206-03877-60000002D0000083D00001000002388340   GGSL
NJARET21100-49206-11133-20000003D0000476D0000000000MP57514   GGSL
NJARET21100-49206-12015-00000002D0000106D0000100000 12015    GGSL
NJARET21100-49206-13247-40000036D0000224D00000000002445000   GGSL
NJARET21100-49206-13685-40000002D0000160D0002000000PDWAGON   GGSL
NJARET21100-49206-15737-80000018D0000178D00012000091573700   GGSL
NJARET21100-49206-16274-70000144D0001994D00000000001627400   GGSL
NJARET21100-49206-16350-80000018D0000354D00000000001635000   GGSL
NJARET21100-49206-16801-50000018D0000498D000110000116801     GGSL
NJARET21100-49206-17890-80000012D0000215D00000000001789000   GGSL
NJARET21100-49206-17891-50000012D0000124D00000000001789100   GGSL
NJARET21100-49206-18295-00000006D0000339D000060000218295     GGSL
NJARET21100-49206-19228-70000012D0000196D000010000119228     GGSL
NJARET21100-49206-24517-40000002D0000133D00023000102451700   GGSL
NJARET21100-49206-63022-20000002D0000117D0002700000163105000 GGSL
NJARET21100-49206-63365-00000006D0000135D00004000042825800   GGSL
NJARET21100-49206-63390-20000084D0001662D00025000032915612   GGSL
NJARET21100-49206-64506-60000006D0000129D00041000042585600   GGSL
NJARET21100-49206-64507-30000012D0000259D00003000022585700   GGSL
NJARET21100-49206-64511-00000006D0000143D00019000052585900   GGSL
NJARET21100-49206-64527-10000012D0000236D00015000022811600   GGSL
NJARET21100-50016-92506-40000006D0000062D0000000000P02506    GGSL
NJARET21100-50197-00104-50000576D0002774D0026700037HT4       GGSL
NJARET21100-50197-00108-30000210D0001510D0028900039HT8       GGSL
NJARET21100-50197-00118-20000325D0004030D0262100187HT18      GGSL
NJARET21100-50197-00136-60000705D0013924D0164100141HT36      GGSL
NJARET21100-50197-00150-20000072D0001766D0044800016HT50      GGSL
NJARET21100-50197-00204-20000264D0001267D0036900036PT4       GGSL
NJARET21100-50197-00208-00000174D0001251D0016500041PT8       GGSL
NJARET21100-50197-00218-90000170D0002108D0256500123PT18      GGSL
NJARET21100-50197-00236-30000098D0001936D0156500056PT36      GGSL
NJARET21100-50197-00250-90000009D0000221D0033000012PT50      GGSL
NJARET21100-50197-00304-90000228D0001093D0027900031GT4       GGSL
NJARET21100-50197-00308-70000042D0000302D0020300025GT8       GGSL
NJARET21100-50197-00318-60000015D0000186D0111000079GT18      GGSL
NJARET21100-50197-00336-00000018D0000356D0048600037GT36      GGSL
NJARET21100-50197-00404-60000120D0000573D0015800018RT4       GGSL
NJARET21100-50197-00408-40000516D0003985D0013000021RT8       GGSL
NJARET21100-50197-00418-30000020D0000248D0076300035RT18      GGSL
NJARET21100-50197-00604-00000156D0000758D0004300002BT4       GGSL
NJARET21100-50197-00618-70000135D0001674D0010300010BT18      GGSL
NJARET21100-50197-00704-70000024D0000114D0012800009TR4       GGSL
NJARET21100-50197-00718-40000019D0000236D0044500017TR18      GGSL
NJARET21100-50197-00736-80000051D0001007D0023200016TR36      GGSL
NJARET21100-50197-00904-10000888D0004396D0038600019TO4       GGSL
NJARET21100-50197-00918-80000024D0000298D0064300019TO18      GGSL
NJARET21100-50197-01009-20000204D0000977D0015600020BM04      GGSL
NJARET21100-50197-01010-80000006D0000065D0001500001BM10      GGSL
NJARET21100-50197-01024-50000022D0000452D0013700021BM24      GGSL
NJARET21100-50197-01207-20000186D0001298D0001200000RP7       GGSL
NJARET21100-50197-01309-30000120D0000755D0011200008DB03      GGSL
NJARET21100-50197-01317-80000070D0001988D0026800065DB17      GGSL
NJARET21100-50197-01504-20000012D0000072D0000400000UR4       GGSL
NJARET21100-50197-01803-60000072D0000258D0007700015GM3       GGSL
NJARET21100-50197-01825-80000062D0000595D0045000025GM25      GGSL
NJARET21100-50197-01906-40000054D0000259D0024400018GF51056   GGSL
NJARET21100-50197-02006-00000354D0000908D0027500029GL6       GGSL
NJARET21100-50197-02206-40001434D0007497D0012300019GG6       GGSL
NJARET21100-50197-02236-10000017D0000210D0009300006GG36      GGSL
NJARET21100-50197-02304-70000528D0004510D0004000011CS4       GGSL
NJARET21100-50197-02806-60000060D0000360D0042700033GF1010106 GGSL
NJARET21100-50197-02904-90000108D0000528D0012800009FT4       GGSL
NJARET21100-50197-02918-60000007D0000087D0048600012FT18      GGSL
NJARET21100-50197-03006-90000150D0000848D0053600042GSUL6     GGSL
NJARET21100-50197-03030-40000038D0000605D0015100002GSUL30    GGSL
NJARET21100-50197-03525-50000001D0000014D0053900000BTSG25    GGSL
NJARET21100-50197-03804-10000768D0004140D0026200018BTSP4     GGSL
NJARET21100-50197-03808-90000090D0000866D0018400060BTSP8     GGSL
NJARET21100-50197-03818-80000237D0004591D0108300060BTSP18    GGSL
NJARET21100-50197-03825-60000049D0001215D0135700034BTSP25    GGSL
NJARET21100-50197-05206-10000018D0000164D0001600000CGP6      GGSL
NJARET21100-50197-05225-20000038D0001050D0100200010CGP25     GGSL
NJARET21100-50197-05320-40000013D0000210D0028200010ELF20     GGSL
NJARET21100-50197-05340-20000016D0000416D0027400018ELF40     GGSL
NJARET21100-50197-05405-80000156D0000720D0017000078IT5       GGSL
NJARET21100-50197-05530-70000020D0000448D0040100020EOLB30    GGSL
NJARET21100-50197-05628-10000017D0000381D0028300035EOLF28    GGSL
NJARET21100-50197-05730-10000010D0000224D0023000016EOSR30    GGSL
NJARET21100-50197-05830-80000078D0001746D0029400000EOFW30    GGSL
NJARET21100-50197-05907-70000120D0000779D0000400000LS7       GGSL
NJARET21100-50197-06030-10000035D0000415D0050300000LL30      GGSL
NJARET21100-50197-06604-40000012D0000058D0011200012BR4       GGSL
NJARET21100-50197-06708-90000006D0000043D0001400002ET8       GGSL
NJARET21100-50197-06718-80000002D0000025D0019000011ET18      GGSL
NJARET21100-50197-30508-20000030D0000126D0002300004INPF8     GGSL
NJARET21100-50197-30608-90000012D0000050D0003800005CAPF8     GGSL
NJARET21100-50197-30808-30000054D0000226D0008400008ORPF8     GGSL
NJARET21100-50197-51324-10000102D0000612D0002200018EONM24    GGSL
NJARET21100-50197-51824-60000138D0000827D0001600004EOWK24    GGSL
NJARET21100-50197-70101-30000375D0002753D0006100002AP1       GGSL
NJARET21100-50197-70101-30000020D0000147D0036500003AP1X      GGSL
NJARET21100-50197-70102-00000048D0000564D0006600000AP2       GGSL
NJARET21100-50197-70102-00000066D0000749D0057600003AP2X      GGSL
NJARET21100-50197-70104-40003420D0009610D0032400019AP4       GGSL
NJARET21100-50197-70108-20001536D0006397D0066200044AP8       GGSL
NJARET21100-50197-70108-20000600D0002778D0000900006AP8D      GGSL
NJARET21100-50197-70116-70000334D0001780D0199400258AP16      GGSL
NJARET21100-50197-70204-10000324D0000910D0029600012AV4       GGSL
NJARET21100-50197-70304-80001548D0004350D0029500031CA4N      GGSL
NJARET21100-50197-70308-60000792D0003326D0029100023CA8       GGSL
NJARET21100-50197-70404-50000048D0000144D0003800006OR4       GGSL
NJARET21100-50197-70508-00000126D0000522D0053100036SS8       GGSL
NJARET21100-50197-70516-50000058D0000305D0209200259SS16      GGSL
NJARET21100-50197-70608-70000156D0000700D0012200016PTM8      GGSL
NJARET21100-50197-70708-40000414D0002625D0014700009PR8       GGSL
NJARET21100-50197-70808-10000264D0001742D0006400042VM8       GGSL
NJARET21100-50197-71202-60000048D0000529D0000200002MM2       GGSL
NJARET21100-50197-71208-80000018D0000086D0014300008MM8       GGSL
NJARET21100-50197-71304-70000324D0002154D0011500010EC4       GGSL
NJARET21100-50197-71501-00000055D0000404D0173200000LSC1      GGSL
NJARET21100-50197-71601-70000065D0000352D0171600130DCM1      GGSL
NJARET21100-50197-72001-40000075D0000440D0035400075LWS1      GGSL
NJARET21100-50699-00008-90000012D0000077D0002400000306008    GGSL
NJARET21100-50699-00012-60000001D0000008D0047600036300012    GGSL
NJARET21100-50699-00016-40000006D0000045D0001900004306016    GGSL
NJARET21100-50699-00212-00000012D0000124D0000000000300212    GGSL
NJARET21100-50699-00303-50000144D0000776D0003200000300303    GGSL
NJARET21100-50699-00303-50000006D0000034D0004800000306303    GGSL
NJARET21100-50699-00304-20000090D0001193D0001100002305304    GGSL
NJARET21100-50699-00424-70000168D0000963D0003300010300424    GGSL
NJARET21100-50699-00436-00000132D0001014D0004000003300436    GGSL
NJARET21100-50699-00726-20000006D0000113D0002300000300726    GGSL
NJARET21100-51700-87104-90000024D0000118D000870000187104     GGSL
NJARET21100-51700-87104-90000192D0000839D000130000687104M    GGSL
NJARET21100-51700-88876-40000006D0000052D000800000088876     GGSL
NJARET21100-51700-89729-20000136D0001427D000680000189729     GGSL
NJARET21100-52837-00670-00000036D0000073D0001800000 FTR      GGSL
NJARET21100-52837-00671-70000012D0000024D0002600000 FTO      GGSL
NJARET21100-52837-00683-00000012D0000024D0001400003 FTGP     GGSL
NJARET21100-56554-10505-00000075D0000272D0000900002NSR003G0G1GGSL
NJARET21100-56554-31344-80000003D0000052D0000000000SRA13001P0GGSL
NJARET21100-56554-73105-10000048D0000776D0001300007RUA1600G18GGSL
NJARET21100-56554-73154-90000024D0000308D0000300003RUA12000G8GGSL
NJARET21100-56554-92059-20000340D0004294D0000800000SPX24DB0A1GGSL
NJARET21100-56554-92106-30000012D0000099D0000800004LIA12000A4GGSL
NJARET21100-62338-07325-50000012D0000039D000000000075143     GGSL
NJARET21100-62338-08046-80000096D0000352D000280000075144     GGSL
NJARET21100-62338-08046-80000108D0000396D000190000475144M    GGSL
NJARET21100-62338-74017-10000078D0000344D0051200008740171    GGSL
NJARET21100-62338-78473-10000378D0001474D000020000278473     GGSL
NJARET21100-62338-79717-50000102D0000398D001230000079717     GGSL
NJARET21100-62338-80420-00000192D0000749D000700000580420     GGSL
NJARET21100-62338-81465-00000006D0000036D000250000181465     GGSL
NJARET21100-62338-82291-40000312D0001217D000600001582291     GGSL
NJARET21100-62338-85595-00000309D0001755D000500005085595     GGSL
NJARET21100-62338-85825-80000012D0000014D003610000085825     GGSL
NJARET21100-62338-85826-50000012D0000014D001430000085826     GGSL
NJARET21100-62338-87979-60000120D0000482D004570000087979     GGSL
NJARET21100-62338-91112-00000096D0000361D000000000091112     GGSL
NJARET21100-62338-93516-40000186D0001536D000000000093516     GGSL
NJARET21100-62338-93790-80000055D0000436D000080000893790     GGSL
NJARET21100-62338-93791-50000270D0002138D000220000093791     GGSL
NJARET21100-62338-93794-60000180D0001426D000000000093794     GGSL
NJARET21100-62338-93947-60000108D0000235D001100000093947     GGSL
NJARET21100-62964-96995-30000045D0000617D000020000296995     GGSL
NJARET21100-64277-06308-30000248D0000870D006180006614020408P GGSL
NJARET21100-64277-06316-80000152D0000754D0204300070140204016UGGSL
NJARET21100-64277-07631-10000064D0000273D001080000114130008P GGSL
NJARET21100-64277-12308-40000512D0001710D005640027914101028P GGSL
NJARET21100-64277-12310-70000070D0000583D000340000214101021P GGSL
NJARET21100-64277-12316-90000868D0004088D0116700220141010216UGGSL
NJARET21100-64277-12351-00000100D0001202D0000400000141100215PGGSL
NJARET21100-64277-12408-10000192D0000743D000470000314105028P GGSL
NJARET21100-64277-12480-70000912D0003529D004910003414106028P GGSL
NJARET21100-64277-12481-40000352D0001324D000890001114114028P GGSL
NJARET21100-64277-12482-10000112D0000358D001220001714104038P GGSL
NJARET21100-64277-32216-60000048D0000276D002300001314903028P GGSL
NJARET21100-66283-02074-60000006D0000111D00014000002074U     GGSL
NJARET21100-66283-34000-40000012D0000458D000100000034000     GGSL
NJARET21100-66283-36943-20000010D0000078D000110000036943     GGSL
NJARET21100-66283-36944-90000010D0000078D000030000036944     GGSL
NJARET21100-66283-39004-70000010D0000088D000050000039004G    GGSL
NJARET21100-66498-09785-40000054D0000258D000360000009785     GGSL
NJARET21100-66498-09905-60000066D0000306D001220000009905     GGSL
NJARET21100-66498-09925-40000018D0000086D001650000009925     GGSL
NJARET21100-66498-09934-60000096D0000399D000900000009934     GGSL
NJARET21100-66498-09935-30000120D0000567D000940000209935     GGSL
NJARET21100-66498-09937-70000060D0000201D001570000009937     GGSL
NJARET21100-66753-53741-50001344D0000541D000140000053741     GGSL
NJARET21100-66807-20170-50000280D0001719D00000000006000106   GGSL
NJARET21100-66807-20290-00000140D0001098D00014000006700104   GGSL
NJARET21100-66807-20291-70000120D0001762D00024000006400204   GGSL
NJARET21100-66807-20292-40000280D0002243D00010000014705106   GGSL
NJARET21100-66807-20293-10000320D0004384D00012000024405206   GGSL
NJARET21100-67863-20138-80000090D0001652D0000800001110102C38PGGSL
NJARET21100-69055-12559-50000309D0015296D001090000012559     GGSL
NJARET21100-69055-12593-90000021D0002426D000000000012593     GGSL
NJARET21100-69055-12594-60000009D0001409D001050000012594     GGSL
NJARET21100-69055-12630-10000282D0017061D000000000012630     GGSL
NJARET21100-69055-12686-80000030D0003465D000020000012686     GGSL
NJARET21100-69055-12707-00000015D0002348D000500000012707     GGSL
NJARET21100-69055-12755-10000003D0000525D000150000012755     GGSL
NJARET21100-69055-12774-20000156D0013650D000260000012774     GGSL
NJARET21100-69055-12861-90000030D0000630D001950000012861     GGSL
NJARET21100-69055-12879-40000621D0088803D009780000012879     GGSL
NJARET21100-69055-12881-70000021D0003003D003320000012881     GGSL
NJARET21100-69055-12887-90000024D0004248D001120000012887     GGSL
NJARET21100-69055-12888-60000015D0002655D001210000012888     GGSL
NJARET21100-69055-12889-30000378D0079377D001940000012889     GGSL
NJARET21100-69055-12890-90000513D0107730D005040000012890     GGSL
NJARET21100-69055-12891-60000030D0006300D001900000012891     GGSL
NJARET21100-69055-12893-00000024D0000504D000060000012893     GGSL
NJARET21100-69055-13105-30003219D0405913D020900000013105     GGSL
NJARET21100-69055-13112-10002154D0290768D003400000013112     GGSL
NJARET21100-69055-85963-60000090D0004455D002000000085963     GGSL
NJARET21100-69055-86799-00000060D0000578D002650000086799     GGSL
NJARET21100-69055-86800-30000006D0000084D000110001186800     GGSL
NJARET21100-69055-87614-50000020D0001010D000580000087614     GGSL
NJARET21100-69055-87662-60001389D0040628D000000000088521     GGSL
NJARET21100-69055-87753-10000922D0027660D003210032187753     GGSL
NJARET21100-69055-87764-70000036D0000661D000190000087764     GGSL
NJARET21100-69055-87855-20000932D0189861D006910000087855     GGSL
NJARET21100-69055-87969-60000008D0000392D000240000087969     GGSL
NJARET21100-69055-88117-00000004D0000840D000000000088117     GGSL
NJARET21100-69055-88531-40000006D0000427D000000000088531     GGSL
NJARET21100-69055-88532-10000470D0013028D001850000088532     GGSL
NJARET21100-69055-88546-80000010D0000564D000570000088546     GGSL
NJARET21100-69055-88587-10000012D0001159D000000000088587     GGSL
NJARET21100-69055-88737-00000040D0002432D000030000088737     GGSL
NJARET21100-69055-88771-40000870D0052200D004120023788771     GGSL
NJARET21100-69055-88801-80000084D0003821D000000000088801     GGSL
NJARET21100-69055-88806-30000042D0001013D000000000088806     GGSL
NJARET21100-69055-88813-10000048D0000849D000070000088813     GGSL
NJARET21100-69055-88815-50001275D0029143D001840018488815     GGSL
NJARET21100-69055-88821-60000006D0000329D000140000088821     GGSL
NJARET21100-69055-88867-40000308D0025130D001200011088867     GGSL
NJARET21100-69055-88887-20000006D0000098D000040000088887     GGSL
NJARET21100-69055-88889-60000030D0000468D000100001088889     GGSL
NJARET21100-69055-88892-60000102D0004641D002100000088892     GGSL
NJARET21100-69055-88893-30001725D0060358D005800000088893     GGSL
NJARET21100-69055-88909-10000328D0045920D002450000004464     GGSL
NJARET21100-70183-50005-50000008D0000344D00059000005000510   GGSL
NJARET21100-70183-50026-00000016D0000264D00422000015002610   GGSL
NJARET21100-70183-50027-70000012D0000070D00363000035002715   GGSL
NJARET21100-70183-50034-50000084D0000477D00601000045003470   GGSL
NJARET21100-70183-50040-60000004D0000076D00177000005004010   GGSL
NJARET21100-70183-50055-00000012D0000154D00043000025005510   GGSL
NJARET21100-70183-50074-10000016D0000252D00109000005007410   GGSL
NJARET21100-70183-51001-60000016D0000410D00305000005100114   GGSL
NJARET21100-70183-51006-10000024D0000767D00014000005100610   GGSL
NJARET21100-70183-51019-10000008D0000245D00168000005101910   GGSL
NJARET21100-70183-51073-30000072D0000367D00159000015107315   GGSL
NJARET21100-70183-51090-00000004D0000102D00294000005109010   GGSL
NJARET21100-70183-88891-70000002D0000432D00016000018889136   GGSL
NJARET21100-70481-01030-00002781D0007263D001600012601031     GGSL
NJARET21100-70481-01101-70002385D0004416D0014200023US05251A  GGSL
NJARET21100-70481-01101-70000090D0000221D00147000021131      GGSL
NJARET21100-70481-01102-40004617D0013564D00045000101163      GGSL
NJARET21100-70481-01103-10000428D0004254D00040000191103      GGSL
NJARET21100-70481-01150-50000996D0002958D00246000421151      GGSL
NJARET21100-70648-30510-20000015D0000091D000000000030510     GGSL
NJARET21100-70648-38001-70000016D0000218D000320000038001     GGSL
NJARET21100-70686-20056-80000012D0000021D000020000286407     GGSL
NJARET21100-70686-20069-80000012D0000022D000160000086421     GGSL
NJARET21100-70686-20091-90000006D0000029D000120000085824     GGSL
NJARET21100-70686-20126-80000012D0000018D000000000086220     GGSL
NJARET21100-70686-20300-20000012D0000046D000000000085874     GGSL
NJARET21100-70686-20302-60000006D0000035D000000000085877     GGSL
NJARET21100-70686-26597-00000012D0000070D000000000085876     GGSL
NJARET21100-70881-23310-10000036D0000071D002730000623310     GGSL
NJARET21100-70881-23320-00000096D0000188D002040000623320     GGSL
NJARET21100-70881-53304-10000036D0000034D001360000053304     GGSL
NJARET21100-70923-00300-60000048D0000256D0008800003300       GGSL
NJARET21100-70923-00300-60000019D0003597D0000200001300FD     GGSL
NJARET21100-70923-08515-60000024D0000048D0002300000T3206     GGSL
NJARET21100-70923-11915-80000018D0000094D0000000000T2502     GGSL
NJARET21100-70923-11915-80000007D0001298D0000000000T2502DS   GGSL
NJARET21100-70923-12277-60000006D0000037D0023200029T1812     GGSL
NJARET21100-71121-95704-70000012D0000081D0004700000HG95704   GGSL
NJARET21100-71121-95715-30000012D0000043D0006900014HG95715   GGSL
NJARET21100-71121-95830-30000048D0000536D0000000000HG15830   GGSL
NJARET21100-71132-00022-00019728D0020714D0230300030HDW12T    GGSL
NJARET21100-71549-01128-40000008D0000029D00054000000112812   GGSL
NJARET21100-71549-01129-10000112D0000404D00130000010112912   GGSL
NJARET21100-71549-01666-10000006D0000100D00010000000166610   GGSL
NJARET21100-71549-01738-50000006D0000064D00036000000173810   GGSL
NJARET21100-71549-01929-70000012D0000085D00041000000192910   GGSL
NJARET21100-71549-02009-50000012D0000096D00048000000200910   GGSL
NJARET21100-71549-02022-40000008D0000034D00010000000202212   GGSL
NJARET21100-71549-02027-90000008D0000068D00009000000202712   GGSL
NJARET21100-71549-02044-60000020D0000223D00043000000204410   GGSL
NJARET21100-71549-02057-60000030D0000167D00160000010205710   GGSL
NJARET21100-71549-02208-20000020D0000169D00122000010220810   GGSL
NJARET21100-71549-02209-90000020D0000292D00387000020220910   GGSL
NJARET21100-71549-02213-60000330D0001367D00511000060221310   GGSL
NJARET21100-71549-02756-80000024D0000073D00048000010275612   GGSL
NJARET21100-71549-03390-30000006D0000096D00010000000339010   GGSL
NJARET21100-71549-03455-90000012D0000086D00160000000345510   GGSL
NJARET21100-71549-03964-60000006D0000057D00092000000396410   GGSL
NJARET21100-71549-03987-50000024D0000369D00217000000398710   GGSL
NJARET21100-71549-04253-00000004D0000039D00016000000425310   GGSL
NJARET21100-71549-04318-60000012D0000071D00184000029994318   GGSL
NJARET21100-71549-04380-30000008D0000042D00027000010438006   GGSL
NJARET21100-71549-04385-80000018D0000106D00582000060438580   GGSL
NJARET21100-71549-04465-70000004D0000073D00022000000446505   GGSL
NJARET21100-71549-04477-00000042D0000270D00292000000447705   GGSL
NJARET21100-71549-04478-70000012D0000152D00072000000447805   GGSL
NJARET21100-71549-04479-40000012D0000141D00048000000447905   GGSL
NJARET21100-71549-04481-70000008D0000100D00114000000448105   GGSL
NJARET21100-71549-04493-00000008D0000100D00001000000449305   GGSL
NJARET21100-71549-04494-70000012D0000141D00002000000449405   GGSL
NJARET21100-71549-04495-40000006D0000039D00001000000449505   GGSL
NJARET21100-71549-04613-20000018D0000232D00009000000461306   GGSL
NJARET21100-71549-04614-90000036D0000276D00016000020461412   GGSL
NJARET21100-71549-04616-30000012D0000082D00018000000461612   GGSL
NJARET21100-71549-04617-00000120D0001160D00015000000461712   GGSL
NJARET21100-71549-04618-70000012D0000070D00007000000461812   GGSL
NJARET21100-71549-04620-00000036D0000256D00004000000462012   GGSL
NJARET21100-71549-04621-70000024D0000106D00026000000462112   GGSL
NJARET21100-71549-04757-30000008D0000200D00072000000475705   GGSL
NJARET21100-71549-04758-00000018D0000108D00113000010475805   GGSL
NJARET21100-71549-08410-30000018D0000197D00275000020841010   GGSL
NJARET21100-71549-43361-10000004D0000097D00127000000433610   GGSL
NJARET21100-71549-43371-00000004D0000175D00073000000433710   GGSL
NJARET21100-71549-43701-50000016D0000483D00082000000437010   GGSL
NJARET21100-71549-46132-40000004D0000081D00135000004613264   GGSL
NJARET21100-71549-46134-80000006D0000039D00102000004613406   GGSL
NJARET21100-71549-99019-00000006D0000096D00068000009901910   GGSL
NJARET21100-71589-81200-10000012D0000043D000200000890116     GGSL
NJARET21100-71605-10301-40000240D0000758D001580005410301     GGSL
NJARET21100-71605-10310-60000012D0000072D000000000010310     GGSL
NJARET21100-71605-10404-20003060D0008974D004630010210404     GGSL
NJARET21100-71605-10410-30001092D0006254D005060011610410     GGSL
NJARET21100-71605-10708-10000450D0004005D001020002810708     GGSL
NJARET21100-71605-10804-00000960D0007238D001980004010804     GGSL
NJARET21100-71605-10808-80000288D0003030D001940003710808     GGSL
NJARET21100-71605-12304-30000528D0001584D003570001412304     GGSL
NJARET21100-71605-12310-40000336D0001848D001450001812306     GGSL
NJARET21100-71605-12504-70001512D0004657D004150002012504     GGSL
