TXBWIC21100-00402-00000-00002130D0115431D0285300159          GGSL
TXBWIC21100-00402-01012-60000054D0006875D00402000151012      GGSL
TXBWIC21100-00402-01014-00000233D0021048D00978000631014      GGSL
TXBWIC21100-00402-01492-60000003D0000012D000680000014SSB     GGSL
TXBWIC21100-00402-01499-50000010D0000037D000200000214SS      GGSL
TXBWIC21100-00402-01621-70000575D0002310D002750000016BA      GGSL
TXBWIC21100-00402-02419-20000017D0000289D000000000010XS-20   GGSL
TXBWIC21100-00402-02540-00000100D0000289D0000000000B54       GGSL
TXBWIC21100-00402-02699-50000080D0000093D001800000010XS-20B  GGSL
TXBWIC21100-00402-02750-60000100D0000431D0020000100B75       GGSL
TXBWIC21100-00402-05418-20000025D0000076D00300000255418      GGSL
TXBWIC21100-00402-07518-40000325D0000788D00000000007518      GGSL
TXBWIC21100-00402-10142-80000771D0069675D009200008110145B    GGSL
TXBWIC21100-00402-10147-30000007D0000775D00107000001014 G    GGSL
TXBWIC21100-00402-11730-60000050D0000180D004000000011730     GGSL
TXBWIC21100-00402-33117-70000075D0000024D0097500000PC11-7    GGSL
TXBWIC21100-00402-33354-60001025D0000141D0132500175PC5-4     GGSL
TXBWIC21100-00402-33375-10000275D0000052D0032500000PC7-5     GGSL
TXBWIC21100-00402-91012-90000030D0003656D00005000251012 BK   GGSL
TXBWIC21100-00402-91014-30000120D0008896D00030000301014 BLACKGGSL
TXBWIC21100-00772-00644-60000006D0000079D0000000000644       GGSL
TXBWIC21100-00772-00775-70000006D0000046D0000000000775       GGSL
TXBWIC21100-00772-02053-40000006D0000043D00000000002053      GGSL
TXBWIC21100-00772-02054-10000009D0000064D00000000002054      GGSL
TXBWIC21100-00772-02055-80000003D0000021D00000000002055      GGSL
TXBWIC21100-00772-02195-10000001D0000022D00000000002195      GGSL
TXBWIC21100-00772-02389-40000002D0000036D00000000002389      GGSL
TXBWIC21100-00772-02923-00000006D0000046D00000000002923      GGSL
TXBWIC21100-00772-03178-30000004D0000047D00000000003178      GGSL
TXBWIC21100-00772-03272-80000006D0000029D00000000003272      GGSL
TXBWIC21100-00772-03273-50000006D0000029D00000000003273      GGSL
TXBWIC21100-00772-03439-50000003D0000027D00000000003439      GGSL
TXBWIC21100-00772-03440-10000003D0000027D00000000003440      GGSL
TXBWIC21100-00772-03723-50000003D0000018D00000000003723      GGSL
TXBWIC21100-00772-03726-60000003D0000018D00000000003726      GGSL
TXBWIC21100-00772-03744-00000009D0000161D00000000003744      GGSL
TXBWIC21100-00772-05397-60000001D0000022D00000000005397      GGSL
TXBWIC21100-00772-06038-70000006D0000043D00000000006038      GGSL
TXBWIC21100-00772-06060-80000006D0000029D00000000006060      GGSL
TXBWIC21100-00772-06091-20000006D0000029D00000000006091      GGSL
TXBWIC21100-00772-06092-90000006D0000022D00000000006092      GGSL
TXBWIC21100-00772-06346-30000006D0000046D00000000006346      GGSL
TXBWIC21100-00772-06685-30000006D0000071D00000000006685      GGSL
TXBWIC21100-00772-06693-80000004D0000064D00000000006693      GGSL
TXBWIC21100-00772-06702-70000006D0000054D00000000006702      GGSL
TXBWIC21100-00772-06714-00000006D0000071D00000000006714      GGSL
TXBWIC21100-00772-06715-70000006D0000071D00000000006715      GGSL
TXBWIC21100-00772-06723-20000006D0000046D00000000006723      GGSL
TXBWIC21100-00772-06724-90000006D0000046D00000000006724      GGSL
TXBWIC21100-00772-09050-60000006D0000029D00000000009050      GGSL
TXBWIC21100-00772-09232-60000002D0000043D00000000009232      GGSL
TXBWIC21100-00772-09279-10000006D0000043D00000000009279      GGSL
TXBWIC21100-00772-09408-50000002D0000043D00000000009408      GGSL
TXBWIC21100-00772-09464-10000001D0000022D00000000009464      GGSL
TXBWIC21100-00772-30260-90000010D0000036D000000000030260     GGSL
TXBWIC21100-00772-30384-20000006D0000054D000000000030384     GGSL
TXBWIC21100-00772-31325-40000006D0000060D000000000031325     GGSL
TXBWIC21100-00772-31341-40000008D0000062D000000000031341     GGSL
TXBWIC21100-10367-00110-70000563D0003471D0094800324110       GGSL
TXBWIC21100-10367-00130-50000508D0025757D0048000019130.0     GGSL
TXBWIC21100-10367-00150-30000135D0004133D0020100096150.0     GGSL
TXBWIC21100-10367-00460-30000016D0000093D0005600008ML0460 8  GGSL
TXBWIC21100-10367-00560-00000024D0000078D0040000000ML0560 8  GGSL
TXBWIC21100-10367-01000-00000024D0000288D0004800012ML1000    GGSL
TXBWIC21100-10367-01010-90000024D0000326D0002400000ML1010    GGSL
TXBWIC21100-10367-01111-30000016D0000042D00088000001111.0    GGSL
TXBWIC21100-10367-01120-50000064D0000203D00104000001120.0    GGSL
TXBWIC21100-10367-02161-70000008D0000050D0000000000ML2161    GGSL
TXBWIC21100-10367-21631- 0000008D0000050D0000000000ML2163    GGSL
TXBWIC21100-11247-00250-40000070D0002775D000740000000640     GGSL
TXBWIC21100-11247-01050-90000039D0000597D000170003901050     GGSL
TXBWIC21100-11247-01541-20000020D0000767D000270000001541     GGSL
TXBWIC21100-11247-02305-90000002D0000734D000000000002305     GGSL
TXBWIC21100-11247-02308-00000003D0000236D000000000102301     GGSL
TXBWIC21100-11247-02450-60000006D0000322D000000000002450     GGSL
TXBWIC21100-11247-04525-90000671D0016669D000080001204525     GGSL
TXBWIC21100-11247-05350-60000001D0000052D000260000005350     GGSL
TXBWIC21100-11247-05450-30000054D0002410D000730000305450     GGSL
TXBWIC21100-11247-13010-80000015D0000056D000360001213010     GGSL
TXBWIC21100-11247-16004-20000012D0000072D001500000016004     GGSL
TXBWIC21100-11247-30004-40000192D0001468D002160000030004     GGSL
TXBWIC21100-11247-52803-50000012D0000010D000000000052803     GGSL
TXBWIC21100-11247-52813-40000008D0000156D000800000052813     GGSL
TXBWIC21100-11247-52825-70000072D0001367D000380000052825     GGSL
TXBWIC21100-11247-52829-50000018D0000210D000360000052829     GGSL
TXBWIC21100-11247-52833-20000012D0000076D000000000052833     GGSL
TXBWIC21100-11247-52877-60000008D0000398D000560000052877     GGSL
TXBWIC21100-11247-52888-20000108D0000625D000390000052888     GGSL
TXBWIC21100-11247-52889-90000084D0001324D000980000452889     GGSL
TXBWIC21100-11247-60116-50000018D0000203D000880000060116     GGSL
TXBWIC21100-11247-61008-20000012D0000142D000000001261300     GGSL
TXBWIC21100-11247-61024-20000144D0000945D003720025261024     GGSL
TXBWIC21100-11247-71016-40000012D0000132D000000003671001     GGSL
TXBWIC21100-11247-90001-50000084D0000459D000480000090001     GGSL
TXBWIC21100-11247-90128-90000004D0000044D000160000490128     GGSL
TXBWIC21100-11423-00338-70000258D0001471D0057000000HG-33801  GGSL
TXBWIC21100-11423-94108-50000015D0000158D0005300000HG-94108  GGSL
TXBWIC21100-14021-00322-30000001D0000129D00000000002020      GGSL
TXBWIC21100-14021-00534-00000001D0000059D00000000008000      GGSL
TXBWIC21100-14021-00632-30000001D0000065D00000000005010      GGSL
TXBWIC21100-14021-00832-70000002D0000082D00000000007050      GGSL
TXBWIC21100-14021-01208-90000001D0000046D00000000007010      GGSL
TXBWIC21100-14021-01234-80000001D0000071D00000000005110      GGSL
TXBWIC21100-14021-01412-00000004D0000616D00000000001024      GGSL
TXBWIC21100-14021-02943-80000138C0000616C00000000001046      GGSL
TXBWIC21100-14021-03228-50000001D0000363D00000000001050BK    GGSL
TXBWIC21100-16069-00005-90000012D0000076D0012300000TP-15C    GGSL
TXBWIC21100-16069-00007-30000027D0000178D0004500000BN-1      GGSL
TXBWIC21100-16069-00008-00000090D0000601D0033000144BN-2      GGSL
TXBWIC21100-16069-00013-40000036D0000917D0003200000BN-3      GGSL
TXBWIC21100-16069-00014-10000006D0000116D0004200000BN-4      GGSL
TXBWIC21100-16069-00015-80000012D0000290D0002400000BN-5      GGSL
TXBWIC21100-16069-00030-10000014D0000167D0008800012OW-6      GGSL
TXBWIC21100-16069-00049-30000016D0000270D0002200006DX-7      GGSL
TXBWIC21100-16069-00597-90000006D0000474D0000000000BTK-6     GGSL
TXBWIC21100-16069-00667-90000015D0000309D0009200072RHO-4US   GGSL
TXBWIC21100-18506-00000-00000135D0002005D01240001000111-5    GGSL
TXBWIC21100-18506-00021-90000012D0000167D0023000180021-6     GGSL
TXBWIC21100-18506-00102-50000063D0000245D0022700000102-12    GGSL
TXBWIC21100-18506-00110-50000072D0000475D0057100048110-12    GGSL
TXBWIC21100-18506-00116-20000138D0000906D0053900204116-12    GGSL
TXBWIC21100-18506-00117-90000045D0000467D0065700078117-6     GGSL
TXBWIC21100-18506-00125-40000012D0000063D0084000000125       GGSL
TXBWIC21100-18506-00130-80000012D0000069D0037200012130       GGSL
TXBWIC21100-22102-02011-30000006D0000311D000360000020FB      GGSL
TXBWIC21100-22102-30430-50000024D0000868D0000000000HPW33     GGSL
TXBWIC21100-22102-75210-60000004D0000122D00000000007521      GGSL
TXBWIC21100-22102-83056-90000024D0000011D0000000000SDC8 CLST/GGSL
TXBWIC21100-22179-10011-40000006D0000061D0000000000lg 3104   GGSL
TXBWIC21100-22179-10035-00000012D0000632D0007700000LG4110    GGSL
TXBWIC21100-22179-10084-80000006D0000058D0015000042LG7220    GGSL
TXBWIC21100-22179-10090-90000069D0001896D0003900003LG4300    GGSL
TXBWIC21100-22179-10109-80000006D0000086D0000000006lg 5146   GGSL
TXBWIC21100-22179-10115-90000115D0001869D0012200000lg 5599   GGSL
TXBWIC21100-22179-10124-10000048D0000277D0046800000LG6515    GGSL
TXBWIC21100-22179-10139-50000012D0000018D0014700000LG1130    GGSL
TXBWIC21100-22179-10140-10000034D0004739D0003100031LG6520    GGSL
TXBWIC21100-22179-10150-00000140D0001559D00340001767115      GGSL
TXBWIC21100-22179-10151-70000013D0000624D00171000007117      GGSL
TXBWIC21100-22179-10185-20000092D0000952D0032600000LG6500    GGSL
TXBWIC21100-22179-10239-20000004D0000327D0000000000LG6155    GGSL
TXBWIC21100-22179-10246-00000168D0002878D0037500411LG6570    GGSL
TXBWIC21100-22179-10247-70000102D0002437D00414000867122      GGSL
TXBWIC21100-22179-10248-40000108D0000883D0015600000LG6575    GGSL
TXBWIC21100-22179-10390-00000048D0000469D0042000336LG6332    GGSL
TXBWIC21100-22179-10391-70000012D0000193D0000000024LG6336    GGSL
TXBWIC21100-22179-10395-50000010D0000326D0007000001LG6356    GGSL
TXBWIC21100-22179-10399-30000065C0000326C0062400048LG7198    GGSL
TXBWIC21100-22179-10406-80000008D0000464D0000000016LG 6344   GGSL
TXBWIC21100-22179-10408-20000294D0002564D0017300030LG 6338   GGSL
TXBWIC21100-22179-10429-70000048D0000761D0002400672LG6334    GGSL
TXBWIC21100-22179-10454-90000078D0000817D0022200060lg 3303   GGSL
TXBWIC21100-22179-10458-70000084D0000805D0013500000lg 3234   GGSL
TXBWIC21100-22179-10517-10000138C0000805C0000000006lg 3176   GGSL
TXBWIC21100-22179-10519-50000006D0000110D0000000000lg 6544   GGSL
TXBWIC21100-22179-10529-40000010D0000080D0049000090lg 7350   GGSL
TXBWIC21100-22401-00115-80000093D0004749D0018100004MDC-15    GGSL
TXBWIC21100-22401-00301-50000030D0000400D0009000000THD-20    GGSL
TXBWIC21100-22401-00721-10000400D0024920D0000000000DBR-20    GGSL
TXBWIC21100-22401-10088-20000069D0002040D0012900000EAR-60    GGSL
TXBWIC21100-23626-00605-80003224D0034516D1756300816116334    GGSL
TXBWIC21100-23626-00615-70002491D0026936D1173200495116336    GGSL
TXBWIC21100-23626-00630-00001172D0016433D0599100316116341    GGSL
TXBWIC21100-23626-00650-80000024D0000086D0049800012000600    GGSL
TXBWIC21100-23626-01710-80000165D0000842D0091500018000800    GGSL
TXBWIC21100-23626-01720-70000198D0001372D0066300030000900    GGSL
TXBWIC21100-23626-02555-40000012D0000249D0000000000112840    GGSL
TXBWIC21100-23626-02830-20000001D0000045D0001600000116841    GGSL
TXBWIC21100-23883-00001-10000162D0003314D0058300000G362      GGSL
TXBWIC21100-23883-00002-80000066D0000329D0015000000G385      GGSL
TXBWIC21100-23883-00003-50000033D0000161D0068100000G390      GGSL
TXBWIC21100-23883-01002-70000113D0001198D00175000061002      GGSL
TXBWIC21100-23883-05000-90000021D0000134D00101000005000      GGSL
TXBWIC21100-23883-08620-60000002D0000444D00006000008620B     GGSL
TXBWIC21100-23883-15710-40002501D0020851D145750122215710     GGSL
TXBWIC21100-23883-16100-20000020D0000282D000850000016100MP   GGSL
TXBWIC21100-23883-21210-00000004D0000151D000600000021210XP   GGSL
TXBWIC21100-23883-26011-80000049D0001778D000370000026011XP   GGSL
TXBWIC21100-23883-26021-70000204D0007789D004550000226021XP   GGSL
TXBWIC21100-23883-26031-60000015D0000758D000220000026031XP   GGSL
TXBWIC21100-23883-27010-00000036D0000907D000300000127010     GGSL
TXBWIC21100-23883-27020-90000110D0002962D000960002127020     GGSL
TXBWIC21100-23883-27030-80000018D0000576D001000000527030     GGSL
TXBWIC21100-23883-60100-30000100D0006303D000430000260100     GGSL
TXBWIC21100-23883-61800-10000010D0000821D000070001061800     GGSL
TXBWIC21100-23883-63924-20000012D0002369D000260000163924     GGSL
TXBWIC21100-23883-67711-40000030C0002369C00002000006-7711    GGSL
TXBWIC21100-23883-81000-90000001D0000126D000080000081000A    GGSL
TXBWIC21100-23883-97100-70000073C0000126C000000000097100     GGSL
TXBWIC21100-23883-97361-20000002D0000436D000090000097361     GGSL
TXBWIC21100-23883-97561-60000002D0000484D000000000197561     GGSL
TXBWIC21100-24654-05922-10000150C0000484C00000000005926      GGSL
TXBWIC21100-24654-05931-30000006D0000083D00000000005935      GGSL
TXBWIC21100-24654-05962-70000012D0000147D00012000005962      GGSL
TXBWIC21100-24654-51806-30000069C0000147C00000000005180-6    GGSL
TXBWIC21100-24654-55110-70000131D0000712D00065000005110-6    GGSL
TXBWIC21100-24654-55118-30000168D0001240D00252000065118.0    GGSL
TXBWIC21100-25845-12346-20000072D0000092D000000000024950     GGSL
TXBWIC21100-26455-91350-40000003D0000174D001190000070805-001-GGSL
TXBWIC21100-26978-30301-10000112D0000724D000450002430301     GGSL
TXBWIC21100-28009-11225-80001495D0007672D02027002181225.0    GGSL
TXBWIC21100-28009-11250-00006564D0052566D02229001251250.0    GGSL
TXBWIC21100-28009-11420-70000170D0001062D00339001301420P     GGSL
TXBWIC21100-28009-11440-50000270D0002514D00617000001440P     GGSL
TXBWIC21100-28009-11465-80000006D0000027D00282000001465      GGSL
TXBWIC21100-28009-15240-70000444D0002304D00700002015240.0    GGSL
TXBWIC21100-28009-15440-10001080D0003802D00000000005440.0    GGSL
TXBWIC21100-28009-15450-00000462D0002787D00064000505450.0    GGSL
TXBWIC21100-28009-15540-80006640D0021604D02539000605540.0    GGSL
TXBWIC21100-28009-15740-20001140D0005349D01025000605740.0    GGSL
TXBWIC21100-30541-01020-60000072D0000188D0012000000JCD-024SM GGSL
TXBWIC21100-30541-01034-30000019D0000461D0004400000JCD-030SM GGSL
TXBWIC21100-30541-09982-90000048D0000118D0079200000JCD-TPP03 GGSL
TXBWIC21100-30641-09801-20000608D0001338D0030000025SWPDQ     GGSL
TXBWIC21100-30641-32937-60000414D0000850D0014400018RPDQ      GGSL
TXBWIC21100-30641-33935-10000450D0000927D0007200018YPDQ      GGSL
TXBWIC21100-30641-35936-60000450D0000938D0018000036WPDQ      GGSL
TXBWIC21100-32247-00900-30000096D0000326D00606000121009001   GGSL
TXBWIC21100-32247-00910-20000060D0000216D00084000181009101   GGSL
TXBWIC21100-32247-00950-80000024D0000083D00078000121009501   GGSL
TXBWIC21100-32247-03313-80000071D0001761D00236000003313B     GGSL
TXBWIC21100-32247-03594-10000365D0002156D006980000070359430  GGSL
TXBWIC21100-32247-05514-70002566D0010541D030260012070551430  GGSL
TXBWIC21100-32247-10500-20000213D0001937D0045300132110500    GGSL
TXBWIC21100-32247-11307-60002102D0004430D023950008071130756  GGSL
TXBWIC21100-32247-14902-00000016D0000261D000080000014902     GGSL
TXBWIC21100-32247-14905-10000016D0000127D001040000814905     GGSL
TXBWIC21100-32247-17183-00000030D0000347D000780000017183     GGSL
TXBWIC21100-32247-17323-00000006D0000062D000600000017323     GGSL
TXBWIC21100-32247-17432-90000002D0000104D000160000017504     GGSL
TXBWIC21100-32247-17508-10000018D0000270D000420000017508     GGSL
TXBWIC21100-32247-18213-30000016D0000445D000000000018213     GGSL
TXBWIC21100-32247-18221-80000044D0001144D000320000018221     GGSL
TXBWIC21100-32247-18222-50000004D0000101D000040000018222     GGSL
TXBWIC21100-32247-18225-60000018D0000237D000600000018225     GGSL
TXBWIC21100-32247-18251-50000012D0000410D000240000018251     GGSL
TXBWIC21100-32247-18269-00000008D0000271D000080000018269     GGSL
TXBWIC21100-32247-18272-00000006D0000037D000290000018272     GGSL
TXBWIC21100-32247-18296-60000012D0000171D000060000018296     GGSL
TXBWIC21100-32247-18302-40000012D0000321D000040000018302     GGSL
TXBWIC21100-32247-18346-80000004D0000089D000320000018346     GGSL
TXBWIC21100-32247-18348-20000012D0000190D000240000018348     GGSL
TXBWIC21100-32247-18350-50000045D0000331D000000003018350     GGSL
TXBWIC21100-32247-18353-60000054D0001381D000720000018353     GGSL
TXBWIC21100-32247-19594-20000149D0001106D001770002871959430  GGSL
TXBWIC21100-32247-20784-30000384D0001520D004920002472078430  GGSL
TXBWIC21100-32247-20814-70000024D0001101D000000000021814     GGSL
TXBWIC21100-32247-21030-00000006D0000037D002180000021030A    GGSL
TXBWIC21100-32247-21605-00000039D0000786D000820000521605     GGSL
TXBWIC21100-32247-21701-90000024D0000220D000120000021701     GGSL
TXBWIC21100-32247-22315-70000010D0000250D000000000022315     GGSL
TXBWIC21100-32247-23001-80000012D0000379D000000000023001     GGSL
TXBWIC21100-32247-25006-10000078D0002330D005400000025006A    GGSL
TXBWIC21100-32247-26003-90000007D0000169D000400000026003D    GGSL
TXBWIC21100-32247-26007-70000013D0000357D002220000026007B    GGSL
TXBWIC21100-32247-26784-70000042D0000167D010380006072678430  GGSL
TXBWIC21100-32247-30156-50000020D0000370D000240000030156     GGSL
TXBWIC21100-32247-33020-60000009D0000445D000600000033020     GGSL
TXBWIC21100-32247-33160-90000040D0000560D000000000033160     GGSL
TXBWIC21100-32247-34161- 0000001D0000000D000000000034161     GGSL
TXBWIC21100-32247-35605-30000010D0000285D001390000044615A    GGSL
TXBWIC21100-32247-37594-80000223D0001630D023300000073759430  GGSL
TXBWIC21100-32247-37610-50000118D0002929D001790000537610A    GGSL
TXBWIC21100-32247-38605-00000142D0002484D000040000038605D    GGSL
TXBWIC21100-32247-38615-90000024D0000785D000000000038615     GGSL
TXBWIC21100-32247-39594-60000405D0003257D019320005073959430  GGSL
TXBWIC21100-32247-39605-90000002D0000035D000000000039605     GGSL
TXBWIC21100-32247-42784-50000180D0000660D000840016274278430  GGSL
TXBWIC21100-32247-47783-30000090D0000354D001080004874778300  GGSL
TXBWIC21100-32247-49019-10000008D0000111D000670000049019     GGSL
TXBWIC21100-32247-49785-50000156D0000611D007920000074978500  GGSL
TXBWIC21100-32247-50087-60000006D0000093D00060000005008710   GGSL
TXBWIC21100-32247-50089-00000004D0000116D00020000005008910   GGSL
TXBWIC21100-32247-50154-50000001D0000008D000570000045015430  GGSL
TXBWIC21100-32247-50240-50000070D0003405D000000000050240     GGSL
TXBWIC21100-32247-50250-40000120D0002228D000320000050250     GGSL
TXBWIC21100-32247-50524-60003754D0026061D047860031075052430  GGSL
TXBWIC21100-32247-51115-50000001D0000033D001590000051115     GGSL
TXBWIC21100-32247-52784-20000108D0000436D007140000085278430  GGSL
TXBWIC21100-32247-53105-40000052D0000541D000200001053105     GGSL
TXBWIC21100-32247-53115-30000005D0000151D001020000053115     GGSL
TXBWIC21100-32247-55513-50000300D0002684D010510001575551301  GGSL
TXBWIC21100-32247-55523-40000360D0005137D012870018875552301  GGSL
TXBWIC21100-32247-55783-20000186D0000853D016440000075578300  GGSL
TXBWIC21100-32247-55863-10000016D0000131D006280000075586300  GGSL
TXBWIC21100-32247-56513-40005433D0036012D044940031775651301  GGSL
TXBWIC21100-32247-56523-30014647D0153195D033500035675652301  GGSL
TXBWIC21100-32247-56783-10000004D0001568D000050000075678309  GGSL
TXBWIC21100-32247-56788-60000504D0002364D059160019875678300  GGSL
TXBWIC21100-32247-56863-00000059D0000447D015960002575686301  GGSL
TXBWIC21100-32247-57905-60000100D0000991D000000000057905     GGSL
TXBWIC21100-32247-60594-60000460D0002813D006900000076059430  GGSL
TXBWIC21100-32247-71060-20000465D0006636D017720000671060     GGSL
TXBWIC21100-32247-71131-90000078D0001686D004150000071131     GGSL
TXBWIC21100-32247-74150-70001608D0007803D0090000762274150    GGSL
TXBWIC21100-32247-74250-40000996D0007931D0097700252274250    GGSL
TXBWIC21100-32247-74395-20000050D0000354D000680000043959430  GGSL
TXBWIC21100-32247-74850-60000484D0008851D0021600280274850    GGSL
TXBWIC21100-32247-75902-10000023D0001827D001210000075902     GGSL
TXBWIC21100-32247-76121-50000192D0007053D006010000676121     GGSL
TXBWIC21100-32247-76232-80000036D0002410D001590000076232     GGSL
TXBWIC21100-32247-76565-70000003D0000180D000030000076565     GGSL
TXBWIC21100-32247-77160-30000492D0002360D0131200696277160    GGSL
TXBWIC21100-32247-77260-00000504D0004408D0126600288277260    GGSL
TXBWIC21100-32247-77960-90000300D0006102D0106400220277960    GGSL
TXBWIC21100-32247-95517-10000270D0000995D002230000079551750  GGSL
TXBWIC21100-32247-99605-10000004D0000081D001270000099605     GGSL
TXBWIC21100-32903-00169-30000024D0000033D0009600024SLI06000E3GGSL
TXBWIC21100-32903-00309-30000084D0000204D0012000000SLI10000E3GGSL
TXBWIC21100-32903-00341-30000018D0000168D0003000012SLI24000E3GGSL
TXBWIC21100-32903-00359-80000072D0000127D0016800024SLI08000E3GGSL
TXBWIC21100-32903-12006-60000024D0000048D0021600096LIA06000E3GGSL
TXBWIC21100-32903-12008-00000120D0000364D0050400048LIA08000E3GGSL
TXBWIC21100-32903-12010-30000108D0000499D0031200012LIA10000E3GGSL
TXBWIC21100-32903-12012-70000060D0000436D0020400000LIA12000E3GGSL
TXBWIC21100-32903-12014-10000036D0000229D0016800024LIA14000E3GGSL
TXBWIC21100-32903-12017-20000048D0000453D0010800000LIA16000E3GGSL
TXBWIC21100-32903-12020-20000012D0000234D0005400000LIA20000E3GGSL
TXBWIC21100-32903-12024-00000006D0000154D0006000006LIA24000E3GGSL
TXBWIC21100-32903-12718-80000018D0000210D0000000000GAB18000E3GGSL
TXBWIC21100-32903-12722-50000030D0000489D0006000030GAB22000E3GGSL
TXBWIC21100-32903-12818-50000018D0000138D0000600000VNP18000E3GGSL
TXBWIC21100-32903-50763-80000060D0000249D0008400024SLI12000E3GGSL
TXBWIC21100-32903-50802-40000024D0000106D0010200000SLI14000E3GGSL
TXBWIC21100-32903-75049-20000018D0000135D0006000012SLI20000E3GGSL
TXBWIC21100-32903-75080-50000048D0000236D0008400000SLI17000E3GGSL
TXBWIC21100-32903-91517-40002504D0010842D0000000000PPF10001Y2GGSL
TXBWIC21100-33524-43225-50000022D0000190D0019500000MP0020    GGSL
TXBWIC21100-33524-43240-80000172D0002166D0067800000MP0020    GGSL
TXBWIC21100-33607-00001-50000028D0000869D0017600000GBA-1     GGSL
TXBWIC21100-33745-97185-40000010D0000243D000080000097185     GGSL
TXBWIC21100-34411-74501-40000006D0000126D0003600000874501-100GGSL
TXBWIC21100-34613-00002-70000129D0001883D0199901084LH002     GGSL
TXBWIC21100-34613-00003-40000075D0001092D0125000147LH003     GGSL
TXBWIC21100-34613-00004-10000080D0001114D0104400118LH004     GGSL
TXBWIC21100-34613-00006-50000092D0001391D0154400590LH006     GGSL
TXBWIC21100-34613-00553-40000036D0000125D0000000024553bl     GGSL
TXBWIC21100-34613-00805-40000006D0000185D0002400040SS5       GGSL
TXBWIC21100-34613-01150-40000020D0000046D00000006601150PDQ   GGSL
TXBWIC21100-34613-01161-00000036D0000084D00000005521161PDQ   GGSL
TXBWIC21100-34613-03603-30000065D0003285D0000000000U3603     GGSL
TXBWIC21100-34613-04803-60000045D0002790D0000000000U4803     GGSL
TXBWIC21100-34613-07758-60000024D0000218D00012018607758BL    GGSL
TXBWIC21100-34613-18050-70000024D0000138D00000000128050BL    GGSL
TXBWIC21100-34613-96006-20000002D0000128D000000002996006     GGSL
TXBWIC21100-35307-00826-80000024D0000046D0006000156826       GGSL
TXBWIC21100-35307-00844-20000012D0000030D0006000000844       GGSL
TXBWIC21100-35307-00848-00000036D0000077D0002400012848       GGSL
TXBWIC21100-35307-00861-90000012D0000036D0014400096861       GGSL
TXBWIC21100-35307-00874-90000072D0000102D0015600060874       GGSL
TXBWIC21100-35307-01601-00000036D0000403D00120000121601      GGSL
TXBWIC21100-35307-01612-60000012D0000043D00456002161612      GGSL
TXBWIC21100-35307-01618-80000012D0000074D00060000001618      GGSL
TXBWIC21100-35307-01810-60000159D0000846D00109000031810      GGSL
TXBWIC21100-35307-01815-10000024D0000167D00115000061815      GGSL
TXBWIC21100-35307-01820-50000011D0000138D00046000011820      GGSL
TXBWIC21100-35307-01825-00000048D0000348D00518002401825      GGSL
TXBWIC21100-35355-00000-00000001D0000293D00002000034960BLD   GGSL
TXBWIC21100-35355-00325-30000125D0000500D0001400013325       GGSL
TXBWIC21100-35355-00342-00000024D0000012D0000000000342       GGSL
TXBWIC21100-35355-00802-90000003D0000045D0000300010SS2       GGSL
TXBWIC21100-35355-00803-60000010D0000161D0001500010SS3       GGSL
TXBWIC21100-35355-00804-30000007D0000154D0003200016SS4       GGSL
TXBWIC21100-35355-00806-70000002D0000070D0000400031SS6       GGSL
TXBWIC21100-35355-00924-80000082D0001156D0011700058924       GGSL
TXBWIC21100-35355-01151-70000010D0000042D00000003901151PDQ   GGSL
TXBWIC21100-35355-01160-90000090D0000214D00000004301160      GGSL
TXBWIC21100-35355-05945-80000012D0000251D00090008105945      GGSL
TXBWIC21100-36348-00610-70000060D0000305D00282000000610      GGSL
TXBWIC21100-36348-00645-90000028D0000383D0006400000645       GGSL
TXBWIC21100-36348-00745-60000006D0000141D00043000010745      GGSL
TXBWIC21100-36348-01020-30000001D0000014D00011000031020      GGSL
TXBWIC21100-36348-01045-60000008D0000460D00000000001045      GGSL
TXBWIC21100-36348-01078-40000014D0000473D00029000001078      GGSL
TXBWIC21100-36348-01079-10000035D0001685D00065000021079      GGSL
TXBWIC21100-36348-03142-00000001D0000353D00000000003142-DS   GGSL
TXBWIC21100-36434-00000-00000366D0007027D015540001210-12420  GGSL
TXBWIC21100-36434-11000-80000158D0001697D013270003660-11000  GGSL
TXBWIC21100-36434-12342-80000053D0000369D006270004360-12342  GGSL
TXBWIC21100-36434-12343-50000003D0000030D002820001560-12343  GGSL
TXBWIC21100-36434-12345-90000048D0000541D000730074410-12345  GGSL
TXBWIC21100-36434-12346-60000170D0000850D020460001060-12346  GGSL
TXBWIC21100-36434-12349-70000008D0000037D002500000060-12349  GGSL
TXBWIC21100-36434-12353-40000098D0001345D011650003260-12353  GGSL
TXBWIC21100-36434-12354-10000040D0000273D000820000710-12354  GGSL
TXBWIC21100-36434-12355-80000048D0000370D001740001910-12355  GGSL
TXBWIC21100-36434-12356-50000066D0000548D002540002610-12356  GGSL
TXBWIC21100-36434-12357-20000103D0000973D000750002010-12357  GGSL
TXBWIC21100-36434-12440-30000012D0000114D00000000006012440   GGSL
TXBWIC21100-36434-12700-60000024D0000162D000000012010-12700  GGSL
TXBWIC21100-36434-12710-50000024D0000169D000120000010-12710  GGSL
TXBWIC21100-36434-12720-40000168D0001114D006360000010-12720  GGSL
TXBWIC21100-36434-14800-80000107D0001922D001920000010-14800  GGSL
TXBWIC21100-36434-14860-20000072D0001028D001560000010-14860  GGSL
TXBWIC21100-36434-15050-90000084D0001424D004800000010-15050  GGSL
TXBWIC21100-36434-15080-30000036D0000829D001440001210-15080  GGSL
TXBWIC21100-36434-17000-20000006D0000278D00000000001017000   GGSL
TXBWIC21100-36434-22309-80000006D0000026D000300000060-22309  GGSL
TXBWIC21100-36434-22318-00000131D0000605D017170001060-22318  GGSL
TXBWIC21100-36434-22626-60000049D0000628D006460000260-22626  GGSL
TXBWIC21100-36434-22731-70000038D0000388D005090000460-22731  GGSL
TXBWIC21100-36434-22732-40000057D0000786D006400000060-22732  GGSL
TXBWIC21100-36434-24211-20000004D0000100D000030000010-24211  GGSL
TXBWIC21100-36434-28010-70000108D0000875D008760030010-28010  GGSL
TXBWIC21100-36434-28020-60000048D0000394D000480003610-28020  GGSL
TXBWIC21100-36434-32700-00000261D0002199D032160000010-32700  GGSL
TXBWIC21100-36434-34500-10000084D0000875D010800008410-34500  GGSL
TXBWIC21100-36434-82342-70000036D0000540D002500000060-82342  GGSL
TXBWIC21100-36865-12250-20003594D0006413D016200024071140180  GGSL
TXBWIC21100-36865-14511-20000120D0000326D006000000071451180  GGSL
TXBWIC21100-36865-24511-90000600D0001923D026400000072451180  GGSL
TXBWIC21100-36865-71751-70000360D0000648D000000000071751180  GGSL
TXBWIC21100-37321-00022-80000312D0001807D0046700490022       GGSL
TXBWIC21100-37321-00023-50000044D0000715D0000000088023       GGSL
TXBWIC21100-37321-00024-20000426D0005516D0045000444024       GGSL
TXBWIC21100-37321-00061-70000007C0005516C0000000144061       GGSL
TXBWIC21100-37321-00068-60000057D0000270D0050700024068       GGSL
TXBWIC21100-37321-00069-30000114D0001490D0027900168069       GGSL
TXBWIC21100-37321-00070-90000084D0001260D0016500228070       GGSL
TXBWIC21100-37321-00105-80000190D0000497D0016800120105       GGSL
TXBWIC21100-37321-00106-50000312D0000874D0022800120106       GGSL
TXBWIC21100-37321-00107-20000456D0001275D0008400168107       GGSL
TXBWIC21100-37321-00108-90000324D0000887D0012000660108       GGSL
TXBWIC21100-37321-00123-20000660D0002521D0041700012123       GGSL
TXBWIC21100-37321-00127-00000117D0000898D0009600156127       GGSL
TXBWIC21100-37321-00141-60000024D0000103D0000000396141       GGSL
TXBWIC21100-37321-00142-30000024D0000210D0000000000142       GGSL
TXBWIC21100-37321-00148-50000012D0000121D0000000456148       GGSL
TXBWIC21100-37321-00150-80000255D0003739D0014101752150       GGSL
TXBWIC21100-37321-00166-90000024D0000122D0016500012166       GGSL
TXBWIC21100-37321-00201-70000036D0000015D0000000000201       GGSL
TXBWIC21100-37321-00202-40000150D0001505D0003900888202       GGSL
TXBWIC21100-37321-00203-10000039D0000532D0085200000203       GGSL
TXBWIC21100-37321-00210-90000153D0000960D0028200027210       GGSL
TXBWIC21100-37321-00211-60000813D0003295D0086700300211       GGSL
TXBWIC21100-37321-00213-00000324D0003355D0021600228213       GGSL
TXBWIC21100-37321-00214-70000300D0001569D0011400324214       GGSL
TXBWIC21100-37321-00217-80000012D0000123D0000000000217       GGSL
TXBWIC21100-37321-00237-60000012D0000168D0014400012237       GGSL
TXBWIC21100-37321-00238-30000222D0001818D0032400048238       GGSL
TXBWIC21100-37321-00250-50000411D0001972D0054300456250       GGSL
TXBWIC21100-37321-00252-90000117D0001326D0045200000252       GGSL
TXBWIC21100-37321-00253-60000048D0000792D0004200000253       GGSL
TXBWIC21100-37321-00255-00000105D0001448D0069000492255       GGSL
TXBWIC21100-37321-00257-40000079C0001425C0033000168257       GGSL
TXBWIC21100-37321-00272-70000006D0000025D00000000002726      GGSL
TXBWIC21100-37321-00274-10000150D0000742D0003300072274       GGSL
TXBWIC21100-37321-00276-50000012D0000169D0000000000276       GGSL
TXBWIC21100-37321-00307-60000135D0000545D0000600396307       GGSL
TXBWIC21100-37321-00309-00000060D0001016D0015300264309       GGSL
TXBWIC21100-37321-00311-30000006D0000175D0000000012311       GGSL
TXBWIC21100-37321-00312-00000012D0000198D0000000000312       GGSL
TXBWIC21100-37321-00330-40000120D0001052D0016500000330       GGSL
TXBWIC21100-37321-00331-10000144D0002085D0010200015331       GGSL
TXBWIC21100-37321-00372-40000008D0000067D0000000000372       GGSL
TXBWIC21100-37321-00376-20000012D0000223D0012000000376       GGSL
TXBWIC21100-37321-00404-20000012D0000093D0004800012404       GGSL
TXBWIC21100-37321-00411-00000012D0000042D0000000000411       GGSL
TXBWIC21100-37321-00420-20000054D0002732D0005500002420       GGSL
TXBWIC21100-37321-00426-40000111D0001087D0012000144426       GGSL
TXBWIC21100-37321-00428-80000240D0000933D0015900384428       GGSL
TXBWIC21100-37321-00442-40000246D0001525D0017700000442       GGSL
TXBWIC21100-37321-00443-10000249D0002653D0001900000443       GGSL
TXBWIC21100-37321-00506-30000078D0000333D0005700093506       GGSL
TXBWIC21100-37321-00543-80000012D0000038D00138000005436      GGSL
TXBWIC21100-37321-00549-00000024D0000192D0021600000549       GGSL
TXBWIC21100-37321-00552-00000059C0000525C0015600000551       GGSL
TXBWIC21100-37321-00553-70000036D0001109D0014400042553       GGSL
TXBWIC21100-37321-00560-50000048D0000215D0001800000560       GGSL
TXBWIC21100-37321-00564-30000102D0001000D00066001505646      GGSL
TXBWIC21100-37321-00571-10000123D0001004D0001500000571       GGSL
TXBWIC21100-37321-00573-50000114D0000494D0040500096573       GGSL
TXBWIC21100-37321-00577-30000088D0000897D0006400008574       GGSL
TXBWIC21100-37321-00603-90000008D0000116D0004000000603       GGSL
TXBWIC21100-37321-00609-10000012D0000133D0000300000609       GGSL
TXBWIC21100-37321-00611-40000020D0000509D0020400116611       GGSL
TXBWIC21100-37321-00631-20003090D0010682D0886300662631       GGSL
TXBWIC21100-37321-00652-70000072D0000346D0013800006652       GGSL
TXBWIC21100-37321-00655-80000195D0001182D00147001206556      GGSL
TXBWIC21100-37321-00680-00000186D0001793D0042000018680       GGSL
TXBWIC21100-37321-00685-50000355D0004190D0018500000685       GGSL
TXBWIC21100-37321-00688-60000012D0000083D00012000426886      GGSL
TXBWIC21100-37321-00690-90000054D0000585D0006900024690       GGSL
TXBWIC21100-37321-00691-60000044D0000371D00016000006914      GGSL
TXBWIC21100-37321-00692-30000629D0006851D0042100060692150    GGSL
TXBWIC21100-37321-00752-40000012D0000084D0012600000752       GGSL
TXBWIC21100-37321-00771-50000048D0000254D0014400036771       GGSL
TXBWIC21100-37321-00772-20000012D0000107D0000000000772       GGSL
TXBWIC21100-37321-00775-30000270D0001447D0072300042775       GGSL
TXBWIC21100-37321-00777-70000048D0000481D0008500000777       GGSL
TXBWIC21100-37321-00779-10000114D0000969D0033300168779       GGSL
TXBWIC21100-37321-00784-50000042D0000126D0013200012784       GGSL
TXBWIC21100-37321-00786-90000149D0000660D0037200036786       GGSL
TXBWIC21100-37321-00788-30000024D0000144D0000000000788       GGSL
TXBWIC21100-37321-00789-00000037D0000281D0161800549791       GGSL
TXBWIC21100-37321-00806-40000024D0000181D0002400000806       GGSL
TXBWIC21100-37321-00811-80000298D0003345D0039900000811       GGSL
TXBWIC21100-37321-00813-20000108D0001448D0012900000813       GGSL
TXBWIC21100-37321-00857-60000132D0001173D0046800012857       GGSL
TXBWIC21100-37321-00862-00000063D0000833D0025500012862       GGSL
TXBWIC21100-37321-00870-50000012D0000056D0006000000870       GGSL
TXBWIC21100-37321-00875-00000141D0001579D0066800098875       GGSL
TXBWIC21100-37321-00876-70000012D0000075D0000000000876       GGSL
TXBWIC21100-37321-00880-40000012D0000151D0037500072880       GGSL
TXBWIC21100-37321-00883-50000216D0001071D0063300120883       GGSL
TXBWIC21100-37321-00892-70000084D0000735D0000000300892       GGSL
TXBWIC21100-37321-00897-20000012D0000078D0004800024897       GGSL
TXBWIC21100-37321-00905-40000012D0000166D0001200048905       GGSL
TXBWIC21100-37321-00909-20000012D0000229D0006000048909       GGSL
TXBWIC21100-37321-00925-20000645D0001925D0083700096925       GGSL
TXBWIC21100-37321-00939-90000204D0002154D0051600768939       GGSL
TXBWIC21100-37321-00941-20000489D0005022D0045600132941       GGSL
TXBWIC21100-37321-00951-10000327D0001414D0004200180951       GGSL
TXBWIC21100-37321-00952-80000024D0000143D0000000000952       GGSL
TXBWIC21100-37321-00963-40000006D0000064D00000000069636      GGSL
TXBWIC21100-37321-00982-50000071D0000315D0012000012982       GGSL
TXBWIC21100-37321-00987-00000132D0001169D0007600006987       GGSL
TXBWIC21100-37321-02360-90000141D0001050D00057000302360      GGSL
TXBWIC21100-37321-02361-60000132D0001439D00219002522361      GGSL
TXBWIC21100-37321-02362-30000008D0000156D00000000002362      GGSL
TXBWIC21100-37321-02603-70000004D0000055D00000000002603      GGSL
TXBWIC21100-37321-02761-40000012D0000248D00000000002761      GGSL
TXBWIC21100-37321-05612-60000476D0004502D00262000005612      GGSL
TXBWIC21100-37321-05710-90000012D0000073D00129000005710      GGSL
TXBWIC21100-37321-05712-30000075D0000655D00015000005712      GGSL
TXBWIC21100-37321-05714-70000024D0000731D00000000005714      GGSL
TXBWIC21100-37321-07458-80000024D0000370D00108000007458      GGSL
TXBWIC21100-37321-07461-80000012D0000108D00000000007461      GGSL
TXBWIC21100-37321-07490-80000003D0000015D00000001327490      GGSL
TXBWIC21100-37321-07492-20000008D0000132D00000000007492      GGSL
TXBWIC21100-37321-07498-40000004D0000022D00000000007498      GGSL
TXBWIC21100-37321-08752-60000030D0000321D00123000008752      GGSL
TXBWIC21100-37321-09534-70000423D0004948D00399000459534      GGSL
TXBWIC21100-37321-45602-50000012D0000064D000000000045602     GGSL
TXBWIC21100-37321-45672-80000012D0000083D000000000045672     GGSL
TXBWIC21100-37321-46126-50002000D0000340D046000010046126     GGSL
TXBWIC21100-37321-46183-80000018D0000134D0010500000691       GGSL
TXBWIC21100-37321-46406-80000040D0000305D006560000046406     GGSL
TXBWIC21100-37321-47062-50000024D0000018D000000000047062     GGSL
TXBWIC21100-37321-60400-60000008D0000129D004570086960402     GGSL
TXBWIC21100-37321-60440-20000005D0000063D000050000060442     GGSL
TXBWIC21100-37321-60476-10000184D0002339D025200143560478     GGSL
TXBWIC21100-37321-60514-00000887D0009990D034450060560516     GGSL
TXBWIC21100-38313-00005-90000006D0000129D0005100000GS 6750D  GGSL
TXBWIC21100-38313-00008-00000039D0000727D0017500000BP 3130   GGSL
TXBWIC21100-38313-00060-80000279D0005082D0042000462BP 3160   GGSL
TXBWIC21100-38313-00080-60000182D0003767D0026000301BP 3180D  GGSL
TXBWIC21100-38313-00217-60000012D0000216D0003000006FS 4350   GGSL
TXBWIC21100-38313-00830-70000040D0001258D0007000008BP 6250   GGSL
TXBWIC21100-38313-01010-20000486D0002490D0018000060CT 3010I  GGSL
TXBWIC21100-38313-01020-10000072D0000369D0027000006CT 3020I  GGSL
TXBWIC21100-38313-01030-00000078D0000399D0015600012CT 3030I  GGSL
TXBWIC21100-38313-03060-50000018D0000130D0006000054GT 3060   GGSL
TXBWIC21100-38313-03080-30000018D0000120D0017400042GT 3080   GGSL
TXBWIC21100-38313-03214-20000024D0000277D0001200000BP 3214D  GGSL
TXBWIC21100-38313-03244-90000054D0000927D0000000036HS 3244   GGSL
TXBWIC21100-38313-03264-40000006D0000121D0027600366SL 3264   GGSL
TXBWIC21100-38313-03334-70000011C0000121C0003600000AP 3334   GGSL
TXBWIC21100-38313-03394-10000006D0000054D0000000000FS 3394   GGSL
TXBWIC21100-38313-03470-20000015D0000423D0001200012FL 3470   GGSL
TXBWIC21100-38313-03710-90000228D0001178D0031201002CT 3710   GGSL
TXBWIC21100-38313-03720-80000006D0000040D0045600054CT 3720   GGSL
TXBWIC21100-38313-03730-70000060D0000325D0006000006CT 3730   GGSL
TXBWIC21100-38313-03740-60000012D0000077D0000000000CT 3740   GGSL
TXBWIC21100-38313-03750-50000012D0000058D0000000102CT 3750   GGSL
TXBWIC21100-38313-04110-60000048D0000736D0000000120AL 4110   GGSL
TXBWIC21100-38313-04150-20000006D0000142D0000000000SL 4150   GGSL
TXBWIC21100-38313-04930-00001444D0008583D0269100048AG 4930   GGSL
TXBWIC21100-38313-04930-70000740D0004776D0086700015AG 4930SS GGSL
TXBWIC21100-38313-06870-70000004D0000404D0000000000TP 6870   GGSL
TXBWIC21100-38313-06970-40000043D0002000D0016800007AH 6970   GGSL
TXBWIC21100-38313-07001-00000003D0000139D0001800001FK 70010  GGSL
TXBWIC21100-38313-07395-40000006D0000132D0000000000RS 7395   GGSL
TXBWIC21100-38313-07545-20000031D0000543D0006300000RS 7245   GGSL
TXBWIC21100-38313-08300-00000012D0000081D0000000000AC 8300   GGSL
TXBWIC21100-38313-10000-10000096D0000914D0012300019SS 10000  GGSL
TXBWIC21100-38313-10227-20000025D0001739D0005500008AL 6512   GGSL
TXBWIC21100-38313-11000-00000035D0000336D0000000014SS 11000  GGSL
TXBWIC21100-38313-12400-70000291D0003614D0016900005RK 24003  GGSL
TXBWIC21100-38313-13214-90000072D0000573D0000000234FS 3214D  GGSL
TXBWIC21100-38313-14300-80000005D0000225D0001000000BM 43001  GGSL
TXBWIC21100-38313-20001-50000011D0000254D0001600000PD 20000  GGSL
TXBWIC21100-38313-20002-20000006D0000104D0000300078RK 20002  GGSL
TXBWIC21100-38313-20004-60000014D0000223D0015700009CV 20004  GGSL
TXBWIC21100-38313-20022-00000061D0001102D0008500014RK 20022  GGSL
TXBWIC21100-38313-21000-70000043D0000635D0007300047SH 20000  GGSL
TXBWIC21100-38313-24000-40000065D0000485D0008300000FS 4000   GGSL
TXBWIC21100-38313-24601-30000012D0000226D0001200000RK 24061  GGSL
TXBWIC21100-38313-25008-90000072D0000312D0000000192RK 25008  GGSL
TXBWIC21100-38313-26001-90000036D0000492D0000000018SS 26010  GGSL
TXBWIC21100-38313-26020-00000051D0000748D0006300007SS 26020  GGSL
TXBWIC21100-38313-26022-40000012D0000196D0000000000SS 26030  GGSL
TXBWIC21100-38313-27020-90000029D0000446D0003700004SS 27020  GGSL
TXBWIC21100-38313-28000-00000014D0000281D0001600000SS 28000  GGSL
TXBWIC21100-38313-28010-90000009D0000191D0005700005SS 28010  GGSL
TXBWIC21100-38313-33140-50000096D0000869D0000000080CT 3314   GGSL
TXBWIC21100-38313-33440-60000008D0000060D0004800056CT 3344   GGSL
TXBWIC21100-38313-33540-30000008D0000074D0000800048CT 3354   GGSL
TXBWIC21100-38313-33640-00000048D0000428D0009600144CT 3364   GGSL
TXBWIC21100-38313-37101-20000001D0000022D0000200000LG 3710   GGSL
TXBWIC21100-38313-37201-90000023D0000460D0002500022LG 3720   GGSL
TXBWIC21100-38313-56200-70000012D0000101D0000000001RK 62000  GGSL
TXBWIC21100-38313-61062-30000006D0000309D0000300003RK 61062  GGSL
TXBWIC21100-38313-62061-50000012D0000163D0000000000RK 62061  GGSL
TXBWIC21100-38313-62062-20000009D0000451D0001200000BM 62060  GGSL
TXBWIC21100-38313-62065-30000006D0000347D0000000000FK 72065  GGSL
TXBWIC21100-38313-63225-00000018D0000258D0001200000BP 3640   GGSL
TXBWIC21100-38313-64144-30000002D0000038D0000000000SS 64104  GGSL
TXBWIC21100-38313-65000-10000007D0000176D0000100000SS 65000  GGSL
TXBWIC21100-38313-69961-10000024D0000317D0000000000MA 60061  GGSL
TXBWIC21100-38313-80000-00000008D0000637D0002200000SF 80000  GGSL
TXBWIC21100-38313-81000-90000056D0000578D0014800025RK 10000  GGSL
TXBWIC21100-38313-82000-80000006D0000133D0000000000FK 42000  GGSL
TXBWIC21100-38313-90000-70000017D0000159D0001900006SH 10000  GGSL
TXBWIC21100-38313-90210-00000002D0000129D0001000000AS 90210  GGSL
TXBWIC21100-38858-06771-50000003D0000282D00000000003777-04-09GGSL
TXBWIC21100-38858-13567-40000002D0000110D00000000003550-02-09GGSL
TXBWIC21100-38858-13595-70000012D0000030D00000000007980-06-91GGSL
TXBWIC21100-39645-11752-10000171D0000950D001270000040200010  GGSL
TXBWIC21100-39996-30293-50000010D0000133D000000000030293     GGSL
TXBWIC21100-40025-54033-40000015D0000661D0004800005RWS-54033 GGSL
TXBWIC21100-40025-54053-20000001D0000017D0001300000RWS-54053 GGSL
TXBWIC21100-40235-75256-50000002D0000037D00046000002.5G30S   GGSL
TXBWIC21100-40279-03300-20000336D0000647D01188002883300      GGSL
TXBWIC21100-40279-03302-60000612D0001302D0080400024          GGSL
TXBWIC21100-41535-24550-40000288D0012715D004800000724550     GGSL
TXBWIC21100-41535-24560-30000750D0127034D008090002824560     GGSL
TXBWIC21100-41535-24571-90001258D0020636D0172900099100518540 GGSL
TXBWIC21100-42204-14504-80000002D0000002D00001000002MMC      GGSL
TXBWIC21100-42206-00202-00000070D0000094D0030400010202S      GGSL
TXBWIC21100-42206-00202-10000001D0000001D0001100000202S      GGSL
TXBWIC21100-42206-00525-00000022D0000066D0014200100525C      GGSL
TXBWIC21100-42206-00872-50000090D0000250D0021000024872-6     GGSL
TXBWIC21100-42206-07800-10000006D0000046D00060000787800      GGSL
TXBWIC21100-42206-09000-30000068D0000486D00264000069000      GGSL
TXBWIC21100-42206-09620-30000019D0000826D00094000009620-8    GGSL
TXBWIC21100-42206-14058-60000228D0001498D00144000369570      GGSL
TXBWIC21100-42206-14066-10000012D0000054D00048000009560C     GGSL
TXBWIC21100-42206-14220-70000010D0000051D0036600130312S      GGSL
TXBWIC21100-42206-14221-40000012D0000026D0010400020313S      GGSL
TXBWIC21100-42206-14235-10000062D0000082D0017500020390S      GGSL
TXBWIC21100-42206-14456-00000048D0000097D0009800000420C      GGSL
TXBWIC21100-42206-14501-70000040D0000042D00217000121FMC      GGSL
TXBWIC21100-42206-14502-40000050D0000043D00165000221MMC      GGSL
TXBWIC21100-42206-14503-10000142D0000151D00985001002FMC      GGSL
TXBWIC21100-42206-14504-80000220D0000194D00877000402MMC      GGSL
TXBWIC21100-42206-14505-50000064D0000072D001660001001MC      GGSL
TXBWIC21100-42206-14506-20000041D0000047D004370007202MC      GGSL
TXBWIC21100-42206-14570-30000002D0000013D0021400000ZBR3/4    GGSL
TXBWIC21100-42206-14571-00000011D0000048D0004900020ZBM3/4    GGSL
TXBWIC21100-42206-14572-70000010D0000041D0006100010ZBF3/4    GGSL
TXBWIC21100-42206-15111-70000021D0000159D000450000615111     GGSL
TXBWIC21100-42206-15565-80000012D0000155D0015600288R551      GGSL
TXBWIC21100-42206-20491-20000053D0000300D001240000020491-10  GGSL
TXBWIC21100-42206-22261-90000162D0001802D000960000022261     GGSL
TXBWIC21100-42206-22300-50000006D0000080D000780000022300     GGSL
TXBWIC21100-42206-22701-00000004D0000016D002380000022701C    GGSL
TXBWIC21100-42206-23701-90000007D0000027D001070000323701S    GGSL
TXBWIC21100-42206-40300-10000020D0000079D0000200000XT300     GGSL
TXBWIC21100-42206-40301-80000038D0000303D0014000040XT301     GGSL
TXBWIC21100-42206-48635-60000012D0000063D0000000072R8635     GGSL
TXBWIC21100-42206-63015-50000002D0000059D000020000063015     GGSL
TXBWIC21100-42579-00000-00000048D0035415D0000000000          GGSL
TXBWIC21100-42579-00052-40000011D0000421D0000600000ST47812   GGSL
TXBWIC21100-42579-11212-80000001D0000051D0003100000SSR12GRN  GGSL
TXBWIC21100-42579-11250-00000011D0005314D0017900009P12       GGSL
TXBWIC21100-42579-11500-60000201D0007127D0010000010APBPAL    GGSL
TXBWIC21100-42579-12343-80000042D0001423D000000000020 YR-3100GGSL
TXBWIC21100-42579-13250-80000628D0021488D0110400073P3        GGSL
TXBWIC21100-42579-14250-70000181D0022944D0083400099P4        GGSL
TXBWIC21100-42579-15250-60000027D0005086D0030100013P5        GGSL
TXBWIC21100-42579-16250-50000100D0019771D0052000011P6        GGSL
TXBWIC21100-42579-18250-30000015D0004536D0017600000P8        GGSL
TXBWIC21100-42579-19342-40000216D0002591D004560000020 YR-324 GGSL
TXBWIC21100-42579-22341-10001088D0007557D01888007686 YR-350  GGSL
TXBWIC21100-42579-22342-80001458D0013659D0007801020NS12      GGSL
TXBWIC21100-42579-22345-90001226D0001897D0259502220APRC      GGSL
TXBWIC21100-42579-23100-30000032D0000224D00000002566 YR-3100 GGSL
TXBWIC21100-42579-32355-50000294D0001835D0015400014RS15      GGSL
TXBWIC21100-42579-43004-80000019D0001894D0003100001NB4       GGSL
TXBWIC21100-42579-43006-20000031D0004169D0003500000NB6       GGSL
TXBWIC21100-42579-50154-00000032D0001032D0012800016PRO BLK-31GGSL
TXBWIC21100-42579-50169-40000108D0002149D0023400000PRO BLK-45GGSL
TXBWIC21100-42579-63041-70000006D0000779D0000700000KG6       GGSL
TXBWIC21100-42579-63105-60000018D0001081D0002500003350ROLL   GGSL
TXBWIC21100-42579-63111-70004800D0000912D0000000000RPB-RED   GGSL
TXBWIC21100-42579-63306-70000252D0001497D04068000003 YR-350  GGSL
TXBWIC21100-42579-81273-80000001D0000204D0000000000K12       GGSL
TXBWIC21100-42579-81360-50000238D0035521D0003200085NS12250   GGSL
TXBWIC21100-42579-81392-60000010D0002718D0000000025WGC15     GGSL
TXBWIC21100-42579-81428-20000649D0001230D0036800008BURLAP BAGGGSL
TXBWIC21100-42579-81486-20000006D0000156D0000000000DELUXE6   GGSL
TXBWIC21100-42579-81505-00000010D0002750D0000000000ULTIMATE12GGSL
TXBWIC21100-42579-81566-10000091D0013577D0052300027SBLT10300 GGSL
TXBWIC21100-42579-81568-50000282D0049524D0074000038SBLT12300 GGSL
TXBWIC21100-42579-81569-20000757D0158743D0079900036SBLT15.530GGSL
TXBWIC21100-42579-81571-50000132D0006408D0079800043SBLT3300  GGSL
TXBWIC21100-42579-81572-20000054D0003474D0011000048SBLT4300  GGSL
TXBWIC21100-42579-81573-90000363D0034342D0114900161SBLT6300  GGSL
TXBWIC21100-42579-81605-70000003D0000256D0003200000PRO BLK-33GGSL
TXBWIC21100-42579-81606-40000021D0002362D0005800002PRO BLK-43GGSL
TXBWIC21100-42579-81607-10000025D0004173D0004900002PRO BLK-63GGSL
TXBWIC21100-42579-81608-80000003D0000677D0000500000PRO BLK-83GGSL
TXBWIC21100-42579-81733-70000023D0001429D0006100000CS-3300BLKGGSL
TXBWIC21100-42579-81734-40000038D0002877D0002800000CS-4300BLKGGSL
TXBWIC21100-42579-81735-10000026D0003055D0003700000CS-6300BLKGGSL
TXBWIC21100-42579-81738-20000002D0000416D0001000000CS-350BLK GGSL
TXBWIC21100-42579-81739-90000003D0000609D0001600000CS-3100BLKGGSL
TXBWIC21100-42579-81762-70000002D0001156D0000000000AEC-DS    GGSL
TXBWIC21100-42579-82224-90000064D0000436D0000000000DELUXE650 GGSL
TXBWIC21100-42579-82293-50000644D0003787D0000000868SUPREME625GGSL
TXBWIC21100-42853-00000-00000037D0000998D0028000002BFTD-DB12 GGSL
TXBWIC21100-42853-10000-10000012D0000041D0001600004ST3-BB4   GGSL
TXBWIC21100-42853-42000-00000084D0000558D0015600000TSBF-BB6  GGSL
TXBWIC21100-42853-50000-90000072D0000481D0044400138TSW-BB6   GGSL
TXBWIC21100-42853-52000-40000006D0000043D0000000006CBTS-BB6  GGSL
TXBWIC21100-42853-61000-50000012D0000053D0000000000FFTR2-BB4 GGSL
TXBWIC21100-42853-62000-40000044D0000056D0161500000FFTA-DB12 GGSL
TXBWIC21100-42853-65000-10000008D0000030D0000000088AB6-BB4   GGSL
TXBWIC21100-42853-75017-60000968D0004487D0063200000PFTR-BB8  GGSL
TXBWIC21100-42853-75117-30002904C0004487C0066000000PFTA-DB12 GGSL
TXBWIC21100-42853-77305-40000063D0002523D0015900064FTD-DB12  GGSL
TXBWIC21100-42853-77603-90000001D0000043D0000400000YJTD-DB12-GGSL
TXBWIC21100-42854-03298-10000228D0000491D0000000024FG32ORB112GGSL
TXBWIC21100-42854-63278-50000024D0000050D0001200204FG32PC1-12GGSL
TXBWIC21100-42854-64870-00000042D0000298D0001800006FG48PC1-6 GGSL
TXBWIC21100-42854-93200-70000012D0000060D0016800012FG32SM1-12GGSL
TXBWIC21100-43312-10001-50000060D0000732D0001200000101-0-027 GGSL
TXBWIC21100-43312-10003-70000149D0000424D0080700000103-0-009 GGSL
TXBWIC21100-43312-10027-30000072D0000569D0060000036104-0-003 GGSL
TXBWIC21100-43312-10030-80000036D0000385D0018000000104-0-058 GGSL
TXBWIC21100-43312-10102-70000144D0000213D0028800000102-0-012 GGSL
TXBWIC21100-43792-50001-30000125D0005078D0002300008Y32       GGSL
TXBWIC21100-43792-60002-70000673D0021606D0003800013W32       GGSL
TXBWIC21100-43792-70002-40000100D0004074D0003100009R32       GGSL
TXBWIC21100-43792-80001-40000085D0003125D0000200010SW10      GGSL
TXBWIC21100-43792-90003-50000180D0009454D0000300002GA10      GGSL
TXBWIC21100-43792-90004-20000031D0003578D0000500002GA30      GGSL
TXBWIC21100-44882-30501-30000015D0000154D0006500065FXG5825   GGSL
TXBWIC21100-44882-30502-00000015D0000243D0014000145FXG5850   GGSL
TXBWIC21100-44882-30504-40000012D0000395D0012600045FXG5875   GGSL
TXBWIC21100-46539-62045-60000733D0011142D0522100039          GGSL
TXBWIC21100-46539-64032-40001593D0014840D0039501109          GGSL
TXBWIC21100-46753-01032-30000040D0000167D00090000004675301032GGSL
TXBWIC21100-46753-01128-30000076D0000686D00048000004675301128GGSL
TXBWIC21100-46753-01500-70000005D0000256D00001000004675302500GGSL
TXBWIC21100-46753-02032-20000034D0000156D00069000004675302032GGSL
TXBWIC21100-46753-02128-20000080D0000853D00019000004675302128GGSL
TXBWIC21100-46753-02550-10000010D0003801D000000000025501     GGSL
TXBWIC21100-46753-03128-10000028D0000357D00024000124675303128GGSL
TXBWIC21100-46753-04032-00000144D0001278D00060000064675304032GGSL
TXBWIC21100-46753-04033-70000084D0000687D00618000602004675304GGSL
TXBWIC21100-46753-04128-00000228D0003163D00248000564675304128GGSL
TXBWIC21100-46753-04500-10000006D0000219D0000400000ZZMED5GALPGGSL
TXBWIC21100-46753-04500-40000011D0000680D00001000024675304500GGSL
TXBWIC21100-46753-05032-90000108D0000925D00696000784675305032GGSL
TXBWIC21100-46753-05128-90000068D0000913D00160000284675305128GGSL
TXBWIC21100-46753-07032-70000012D0000062D00081000004675307032GGSL
TXBWIC21100-46753-07128-70000004D0000051D00000000004675307128GGSL
TXBWIC21100-46753-08032-60000543D0008229D00708001024675308032GGSL
TXBWIC21100-46753-14032-70000044D0000189D00443000004675314032GGSL
TXBWIC21100-46753-14128-70000088D0000688D00098000084675314128GGSL
TXBWIC21100-46753-17005-80000072D0000315D00044000004675317005GGSL
TXBWIC21100-46753-17040-90001384D0018450D01084000284675317040GGSL
TXBWIC21100-46753-17201-40000001D0000368D000000000072014     GGSL
TXBWIC21100-46753-19128-20000004D0000054D0000000004          GGSL
TXBWIC21100-46753-19550-10000002D0001166D000000000295501     GGSL
TXBWIC21100-46753-20128-80000004D0000079D0000000004          GGSL
TXBWIC21100-46753-21032-70000016D0000090D007240004810327     GGSL
TXBWIC21100-46753-21128-70000100D0001230D001920000412287     GGSL
TXBWIC21100-46753-22550-50000002D0001180D000000000225505     GGSL
TXBWIC21100-46753-30165-00000001D0001440D00000000001650      GGSL
TXBWIC21100-46878-26380-20000006D0000066D000420000026380     GGSL
TXBWIC21100-46878-26382-60000003D0000033D000270000026382     GGSL
TXBWIC21100-46878-27436-50000003D0000052D000150000027436     GGSL
TXBWIC21100-46878-27560-70000009D0000156D000120000027560     GGSL
TXBWIC21100-47985-10023-30000128D0000872D0005700015YCBSM3CF-PGGSL
TXBWIC21100-47985-10033-20000264D0001952D0028600025YCBSI3CF-PGGSL
TXBWIC21100-48307-70003-20000006D0000048D0006500000ST3       GGSL
TXBWIC21100-48307-70004-90000018D0000201D0033400000ST4-WS    GGSL
TXBWIC21100-48307-70005-60000006D0000092D0010600000ST5       GGSL
TXBWIC21100-48307-70006-30000004D0000077D0000900001ST6       GGSL
TXBWIC21100-48745-22244-80000016D0000369D0002400004BL22244   GGSL
TXBWIC21100-48745-34532-10000006D0000061D00012000000348206   GGSL
TXBWIC21100-50197-00104-50001164D0004898D0180800000HT4       GGSL
TXBWIC21100-50197-00108-30000108D0000681D0010200000HT8       GGSL
TXBWIC21100-50197-00118-20000667D0007643D0099000007HT18      GGSL
TXBWIC21100-50197-00136-60000586D0011759D0029600000HT36      GGSL
TXBWIC21100-50197-00150-20000103D0002515D0013100018HT50      GGSL
TXBWIC21100-50197-00204-20000768D0003244D0256800660PT4       GGSL
TXBWIC21100-50197-00208-00000048D0000303D0002400006PT8       GGSL
TXBWIC21100-50197-00218-90000297D0003445D0018400006PT18      GGSL
TXBWIC21100-50197-00236-30000471D0009210D0013400000PT36      GGSL
TXBWIC21100-50197-00250-90000373D0008113D0006900004PT50      GGSL
TXBWIC21100-50197-00304-90001038D0004468D0149300078GT4       GGSL
TXBWIC21100-50197-00308-70000006D0000044D0000600012GT8       GGSL
TXBWIC21100-50197-00318-60000305D0003531D0040500000GT18      GGSL
TXBWIC21100-50197-00336-00000125D0002388D0011000004GT36      GGSL
TXBWIC21100-50197-00404-60000803D0003408D0089100228RT4       GGSL
TXBWIC21100-50197-00408-40000132D0000937D0007800000RT8       GGSL
TXBWIC21100-50197-00418-30000285D0003412D0026600000RT18      GGSL
TXBWIC21100-50197-00604-00000522D0002258D0050000264BT4       GGSL
TXBWIC21100-50197-00618-70000005D0000056D0000000018BT18      GGSL
TXBWIC21100-50197-00704-70000324D0001395D0058400000TR4       GGSL
TXBWIC21100-50197-00718-40000159D0001838D0014600000TR18      GGSL
TXBWIC21100-50197-00736-80000180D0003177D0000000005TR36      GGSL
TXBWIC21100-50197-00904-10000684D0002773D0220001068TO4       GGSL
TXBWIC21100-50197-00908-60000030D0000201D0012600000TO8       GGSL
TXBWIC21100-50197-00918-80000167D0001943D0010500000TO18      GGSL
TXBWIC21100-50197-01004-70000216D0000904D0000000624BM04      GGSL
TXBWIC21100-50197-01106-80000006D0000062D0001800006gs6       GGSL
TXBWIC21100-50197-01228-70000012D0000215D0005100011RP28      GGSL
TXBWIC21100-50197-01303-10000488D0002761D0000000936DB03      GGSL
TXBWIC21100-50197-01317-80000041D0001312D0002400002DB17      GGSL
TXBWIC21100-50197-01803-60000048D0000166D0018000000GM3       GGSL
TXBWIC21100-50197-01825-80000479D0004224D0017100024GM25      GGSL
TXBWIC21100-50197-02006-00000228D0000540D0057900012GL6       GGSL
TXBWIC21100-50197-02206-40000156D0000766D0030600060GG6       GGSL
TXBWIC21100-50197-02904-90000930D0003808D0064000168FT4       GGSL
TXBWIC21100-50197-02918-60000257D0002889D0014900002FT18      GGSL
TXBWIC21100-50197-03802-70000080D0000105D0008000000BTSP5OZ   GGSL
TXBWIC21100-50197-03804-10003478D0016397D0142500060BTSP4     GGSL
TXBWIC21100-50197-03818-80000069D0001216D0001200051BTSP18    GGSL
TXBWIC21100-50197-03825-60000648D0014928D0044700011BTSP25    GGSL
TXBWIC21100-50197-03904-80000618D0002610D0059500060PM4       GGSL
TXBWIC21100-50197-03920-80000235D0002571D0002100013PM20      GGSL
TXBWIC21100-50197-05004-30001410D0005908D0191000204CT4       GGSL
TXBWIC21100-50197-05018-00000596D0006678D0030900000CT18      GGSL
TXBWIC21100-50197-05320-40000335D0004843D0027500002ELF20     GGSL
TXBWIC21100-50197-05340-20000010D0000222D0000000014ELF40     GGSL
TXBWIC21100-50197-05405-80000084D0000389D0038500012IT5       GGSL
TXBWIC21100-50197-05420-10000016D0000187D0005700000it20      GGSL
TXBWIC21100-50197-05628-10000161D0003504D0003700000EOLF28    GGSL
TXBWIC21100-50197-05830-80000190D0003783D0001000000EOFW30    GGSL
TXBWIC21100-50197-06504-70000381D0001611D0116100036AT4       GGSL
TXBWIC21100-50197-06508-50000054D0000327D0006000000AT8       GGSL
TXBWIC21100-50197-06518-40000019D0000237D0001100001AT18      GGSL
TXBWIC21100-50197-06604-40000540D0002211D0052800012BR4       GGSL
TXBWIC21100-50197-30508-20000312D0001089D0000000072INPF8     GGSL
TXBWIC21100-50197-30608-90000210D0000734D0000000066CAPF8     GGSL
TXBWIC21100-50197-30708-60000162D0000544D0000000066VIPF8     GGSL
TXBWIC21100-50197-30808-30000204D0000695D0000000060ORPF8     GGSL
TXBWIC21100-50197-31308-70000006D0000020D0003600000TOPF8     GGSL
TXBWIC21100-50197-51324-10000048D0000227D0004800240EONM24    GGSL
TXBWIC21100-50197-51824-60000018D0000086D0000000000eowk24    GGSL
TXBWIC21100-50197-70101-30000630D0003665D0011900000ap1       GGSL
TXBWIC21100-50197-70102-00000935D0008352D0014800000ap2       GGSL
TXBWIC21100-50197-70304-80000708D0001752D0084800084ca4       GGSL
TXBWIC21100-50197-70308-60000324D0001189D0008400012ca8       GGSL
TXBWIC21100-50197-70516-50000170D0000800D0000000036SS16      GGSL
TXBWIC21100-50197-70608-70000192D0000765D0015600534PTM8      GGSL
TXBWIC21100-50197-71208-80000018D0000083D0012000000MM8       GGSL
TXBWIC21100-50197-71304-70000180D0001114D0066000000EC4       GGSL
TXBWIC21100-50197-71501-00000990D0005499D0033700005lsc1      GGSL
TXBWIC21100-50197-71601-70000130D0000533D0021400000dcm1      GGSL
TXBWIC21100-50197-71904-90000096D0000587D0012000528HC4       GGSL
TXBWIC21100-50197-80117-10000101D0001029D0038600000SC17      GGSL
TXBWIC21100-50349-01003-10000010D0000321D00000000121003-012  GGSL
TXBWIC21100-50349-01009-30000006D0000245D00000000001009-012  GGSL
TXBWIC21100-50349-01069-70000060D0000208D00100000001069-012  GGSL
TXBWIC21100-50349-01078-30000001D0000650D00000000051023-017  GGSL
TXBWIC21100-50349-10211-20000010D0000426D00000000121012-012  GGSL
TXBWIC21100-50699-00001-00000003D0000033D0009300001300001    GGSL
TXBWIC21100-50699-00014-00000004D0000017D0000400000300014    GGSL
TXBWIC21100-50699-00128-10000001D0000030D0006900003300128    GGSL
TXBWIC21100-50699-00212-00000144D0001434D0011400000300212    GGSL
TXBWIC21100-52427-01038-40000002D0000036D0000000000105462    GGSL
TXBWIC21100-52427-01049-00000003D0000123D0000000000105634    GGSL
TXBWIC21100-52732-00000-00000006D0000262D00000000122030.0    GGSL
TXBWIC21100-52732-10012-10000003D0000398D001060000210001     GGSL
TXBWIC21100-52732-10225-50000002D0000065D000080000060009.0   GGSL
TXBWIC21100-52732-20505-50000004D0000402D00060000002050SU    GGSL
TXBWIC21100-52732-20509-30000016D0002404D00052000012050P     GGSL
TXBWIC21100-52732-20519-20000002D0000314D00021000012050TP    GGSL
TXBWIC21100-52732-27500-30000371D0016913D00775000722750      GGSL
TXBWIC21100-52732-34000-80000002D0000040D00011000003400.0    GGSL
TXBWIC21100-52732-65000-80000002D0000246D00024000006500.0    GGSL
TXBWIC21100-52732-68016-60000001D0000263D0001500004F80       GGSL
TXBWIC21100-53291-11002-60000132D0001495D0013200024820-1002  GGSL
TXBWIC21100-53291-19881-90000003D0000034D0000700000820-1002  GGSL
TXBWIC21100-53291-30000-00000004D0001252D0000000001820-1024  GGSL
TXBWIC21100-53291-31530-50000013D0000325D0000000001830-1530  GGSL
TXBWIC21100-56554-30763-80000080D0000441D0000000000SRA07501P0GGSL
TXBWIC21100-66498-01115-70000071D0001645D003370001101115.0   GGSL
TXBWIC21100-66498-02115-60002917D0050903D049600062302775.0   GGSL
TXBWIC21100-66498-02185-90000042D0000660D002730000002185     GGSL
TXBWIC21100-66498-02330-90000120D0001985D00000000006649802330GGSL
TXBWIC21100-66498-04175-80000598D0007177D015730115204175.0   GGSL
TXBWIC21100-66498-05113-90000007D0000051D001930001805175.0   GGSL
TXBWIC21100-66498-09776-20000028D0000400D000790000009776     GGSL
TXBWIC21100-66498-09901-80001476D0010981D082900039509901.0   GGSL
TXBWIC21100-66498-09902-50003537D0036628D080420126909902.0   GGSL
TXBWIC21100-66498-09903-20000985D0015565D023740001009903.0   GGSL
TXBWIC21100-66498-09925-40000216D0001047D015780000009925     GGSL
TXBWIC21100-66498-09929-20000038D0000279D002580000009929     GGSL
TXBWIC21100-66498-09937-70001416D0004872D071750079209937     GGSL
TXBWIC21100-66498-09947-60000132D0000450D013200054009947     GGSL
TXBWIC21100-66498-09950-50000942D0006919D021300054609955     GGSL
TXBWIC21100-66498-09965-00000690D0005826D017280029409965     GGSL
TXBWIC21100-66498-09977-30000216D0001464D004080084009977     GGSL
TXBWIC21100-66498-09985-80000264D0001133D008090033009985     GGSL
TXBWIC21100-66498-89905-20001140D0005258D045740009009905     GGSL
TXBWIC21100-66498-99827-40000744D0004265D030120074409827     GGSL
TXBWIC21100-70183-50005-50000032D0001044D00112000045000510   GGSL
TXBWIC21100-70183-50006-20000024D0000875D00042000005000610   GGSL
TXBWIC21100-70183-50023-90000018D0000519D00066000005002306   GGSL
TXBWIC21100-70183-50026-00000124D0001582D00324000045002610   GGSL
TXBWIC21100-70183-50027-70000042D0000201D00150000005002715   GGSL
TXBWIC21100-70183-50029-10000020D0000250D00031000005007410   GGSL
TXBWIC21100-70183-50034-50000285D0001327D00615000005003470   GGSL
TXBWIC21100-70183-50038-30000020D0000272D00100000005003810   GGSL
TXBWIC21100-70183-50042-00000005D0000545D00018000005004215   GGSL
TXBWIC21100-70183-50055-00000024D0000289D00228000005003610   GGSL
TXBWIC21100-70183-50060-40000018D0000667D00057000005006010   GGSL
TXBWIC21100-70183-50085-70000006D0000420D00000000005008510   GGSL
TXBWIC21100-70183-51001-60000128D0002645D00200000085100114   GGSL
TXBWIC21100-70183-51006-10000108D0002468D00252000005100612   GGSL
TXBWIC21100-70183-51007-80000008D0000506D00060000065100710   GGSL
TXBWIC21100-70183-51009-20000012D0000184D00088000005004010   GGSL
TXBWIC21100-70183-51019-10000012D0000303D00068000005101910   GGSL
TXBWIC21100-70183-51073-30000012D0000060D00300000005107315   GGSL
TXBWIC21100-70183-51090-00000064D0001269D00200000045109010   GGSL
TXBWIC21100-70183-52005-30000008D0000191D00040000005200510   GGSL
TXBWIC21100-70183-52039-80000008D0000184D00080000005203910   GGSL
TXBWIC21100-70183-52350-40000004D0000106D00016000005235010   GGSL
TXBWIC21100-70183-57050-80000024D0000779D00048000005705010   GGSL
TXBWIC21100-70183-57250-20000024D0000579D00052000085725070   GGSL
TXBWIC21100-70251-79160-60000003D0000031D0011400012791600    GGSL
TXBWIC21100-70251-81182-30000012D0000143D00012000128111082   GGSL
TXBWIC21100-70251-81482-40000120D0000729D00105000008141082   GGSL
TXBWIC21100-70805-51001-10000479D0001166D018200001070805-010-GGSL
TXBWIC21100-70805-51002-80000555D0002571D008870001070805-005-GGSL
TXBWIC21100-70805-51013-40002083D0030383D0256000208BD02      GGSL
TXBWIC21100-70805-51024-00000114D0000427D003960000070805-006-GGSL
TXBWIC21100-70805-51025-70002745D0039258D053230012970805-001-GGSL
TXBWIC21100-70805-51026-40000215D0000774D003360000070805-006-GGSL
TXBWIC21100-70805-51033-20000297D0004348D006020000670805-001-GGSL
TXBWIC21100-70805-51034-90000359D0010134D006790004770805-001-GGSL
TXBWIC21100-70805-51037-00000023D0000282D000910000070805-001-GGSL
TXBWIC21100-70805-51038-70000023D0000538D001720000070805-001-GGSL
TXBWIC21100-70805-51051-60000064D0000410D003360002470805-008-GGSL
TXBWIC21100-70805-53003-30001467D0011829D0286600211BD021     GGSL
TXBWIC21100-70805-62025-30006514D0165409D056150049170805-001-GGSL
TXBWIC21100-70805-84052-10000014D0000431D0011800000KERNEL_M-0GGSL
TXBWIC21100-70805-84053-80000112D0002695D002700000670805-001-GGSL
TXBWIC21100-70805-84054-50000092D0001591D004170000070805-001-GGSL
TXBWIC21100-70805-84075-00000492D0015114D010870000270805-001-GGSL
TXBWIC21100-70805-84076-70000061D0003495D005530000270805-001-GGSL
TXBWIC21100-70805-84077-40000019D0001112D0014800000KERNEL_M-0GGSL
TXBWIC21100-70805-84079-80000210D0010122D002870000770805-001-GGSL
TXBWIC21100-70805-84093-40000041D0002003D0011400003PEANUTSPL-GGSL
TXBWIC21100-70923-00000-00000060D0000286D0027100000600.0     GGSL
TXBWIC21100-70923-00196-50000108D0000227D0027500012T100-12   GGSL
TXBWIC21100-70923-00300-60000504D0002421D0049200000300.0     GGSL
TXBWIC21100-70923-00402-70000054D0000182D0002400000T401-6    GGSL
TXBWIC21100-70923-00912-10000006D0000031D0002100000T901-6    GGSL
TXBWIC21100-70923-02301-10000102D0000327D0000000000T2302-6   GGSL
TXBWIC21100-70923-02900-60000096D0000536D0008000004T2900     GGSL
TXBWIC21100-70923-12117-50000001D0000024D0002500000T300-NT   GGSL
TXBWIC21100-70923-69500-30000006D0000232D0005800000T2512     GGSL
TXBWIC21100-71092-32500-80000384D0001800D0017300006T2502     GGSL
TXBWIC21100-71121-05580-40000084D0000630D00342000125580      GGSL
TXBWIC21100-71121-53940-30000084D0000699D0032400000HG-53944  GGSL
TXBWIC21100-71121-96281-20000582D0002876D0084300036HG-96281  GGSL
TXBWIC21100-71549-01128-40000040D0000123D00088000000112812   GGSL
TXBWIC21100-71549-01129-10000174D0000000D00040000160112912   GGSL
TXBWIC21100-71549-01656-20000018D0000138D00297000000165610   GGSL
TXBWIC21100-71549-01738-50000018D0000144D00366000180173810   GGSL
TXBWIC21100-71549-01748-40000018D0000141D00165000000174810   GGSL
TXBWIC21100-71549-01936-50000060D0000391D00120000000193610   GGSL
TXBWIC21100-71549-02000-20000006D0000112D00106000000200010   GGSL
TXBWIC21100-71549-02003-30000276D0004795D00080000000200310   GGSL
TXBWIC21100-71549-02014-90000096D0000593D00192000000201405   GGSL
TXBWIC21100-71549-02022-40000016D0000058D00128000000202212   GGSL
TXBWIC21100-71549-02028-60000008D0000026D00008000000202812   GGSL
TXBWIC21100-71549-02030-90000006D0000061D00006000000203012   GGSL
TXBWIC21100-71549-02044-60000004D0000039D00128000000204410   GGSL
TXBWIC21100-71549-02045-30000004D0000062D00136000000204510   GGSL
TXBWIC21100-71549-02055-20000474D0001127D00384000060205506   GGSL
TXBWIC21100-71549-02057-60000006D0000026D00288000000205710   GGSL
TXBWIC21100-71549-02127-60000008D0000100D00004000000212710   GGSL
TXBWIC21100-71549-02208-20000212D0001933D00576000080220810   GGSL
TXBWIC21100-71549-02756-80000064D0000177D00128000000275612   GGSL
TXBWIC21100-71549-02822-00001179D0012362D00762000000282210   GGSL
TXBWIC21100-71549-03456-60000018D0000081D00228000060345610   GGSL
TXBWIC21100-71549-03964-60000006D0000041D00042000000396410   GGSL
TXBWIC21100-71549-04243-10000012D0000129D00000000000424310   GGSL
TXBWIC21100-71549-04253-00000152D0001207D00228000040425310   GGSL
TXBWIC21100-71549-04318-60000074D0000364D00230000009994318   GGSL
TXBWIC21100-71549-04378-00000066D0000024D00087000000437806   GGSL
TXBWIC21100-71549-04380-30000016D0000070D00096000000438006   GGSL
TXBWIC21100-71549-04385-80000084D0000405D00330000120438580   GGSL
TXBWIC21100-71549-04475-60000004D0000062D00028000000447505   GGSL
TXBWIC21100-71549-04478-70000024D0000219D00096000000447805   GGSL
TXBWIC21100-71549-04479-40000012D0000105D00588000000447905   GGSL
TXBWIC21100-71549-04481-70000008D0000074D00032000040448105   GGSL
TXBWIC21100-71549-04486-20000012D0000107D00042000000448605   GGSL
TXBWIC21100-71549-04487-90000006D0000047D00012000000448705   GGSL
TXBWIC21100-71549-04494-70000012D0000118D00372000000449405   GGSL
TXBWIC21100-71549-04495-40000006D0000029D00054000000449505   GGSL
TXBWIC21100-71549-04613-20000024D0000166D00060000000461412   GGSL
TXBWIC21100-71549-04745-00000012D0000085D00087000030474510   GGSL
TXBWIC21100-71549-04757-30000004D0000061D00068000000475705   GGSL
TXBWIC21100-71549-04758-00000001D0000027D00003000000475805   GGSL
TXBWIC21100-71549-04910-20000018D0000078D00060000000491010   GGSL
TXBWIC21100-71549-08410-30000156D0001661D00424000720841010   GGSL
TXBWIC21100-71549-43331-40000012D0000081D00600000240433310   GGSL
TXBWIC21100-71549-43361-10000124D0002838D00052000040433610   GGSL
TXBWIC21100-71549-43701-50000020D0000480D00016000000437010   GGSL
TXBWIC21100-71549-43887-60000012D0000044D00204000364388710   GGSL
TXBWIC21100-71549-44551-50000004D0000084D00008000000445510   GGSL
TXBWIC21100-71549-46008-20000024D0000413D00068000044600810   GGSL
TXBWIC21100-71549-46132-40000008D0000144D00284000004613264   GGSL
TXBWIC21100-71549-46134-80000012D0000059D00060000004613406   GGSL
TXBWIC21100-71549-46510-00000006D0000105D00180000004651005   GGSL
TXBWIC21100-71549-99008-40000048D0000634D00426000009900810   GGSL
TXBWIC21100-71549-99019-00000006D0000144D00195000069901910   GGSL
TXBWIC21100-71559-04648-40000012D0000049D00000000000464812   GGSL
TXBWIC21100-71693-00000-00000002D0000358D000000000002-TB250  GGSL
TXBWIC21100-71693-98701-50000002D0000644D000000000002-PAO450 GGSL
TXBWIC21100-71898-43163-40000583D0013098D01106000517800      GGSL
TXBWIC21100-71898-43180-10000512D0009194D00935000907450      GGSL
TXBWIC21100-71898-43209-90000038D0000899D00166000007822      GGSL
TXBWIC21100-71898-43210-50000050D0001299D00311000107824      GGSL
TXBWIC21100-71898-43211-20000290D0007904D00207000717828      GGSL
TXBWIC21100-71898-43212-90000010D0000236D00144000007321      GGSL
TXBWIC21100-71898-43213-60001033D0022692D01301001547324      GGSL
TXBWIC21100-71898-43214-30000166D0003205D00467000507326      GGSL
TXBWIC21100-71898-43215-00000263D0003719D006890000132150     GGSL
TXBWIC21100-72525-00003-00000198D0000694D0049800000HRT-6     GGSL
TXBWIC21100-72525-00005-40000201D0000970D0041700000HRP-16    GGSL
TXBWIC21100-72525-00022-10000072D0000555D0031200012HBB-32    GGSL
TXBWIC21100-72525-00033-70000012D0000077D0000000000HRS-32    GGSL
TXBWIC21100-72525-00048-10000045D0000183D0007200012HDE-8     GGSL
TXBWIC21100-72525-00055-90000078D0000538D0019800000EGG-16    GGSL
TXBWIC21100-72525-00078-80000045D0000155D0009000000BBTRP     GGSL
TXBWIC21100-72532-00014-80000722D0005610D0196800684          GGSL
TXBWIC21100-72532-00015-50000048D0001850D0054200097          GGSL
TXBWIC21100-72532-00016-20000089D0004089D0028800015          GGSL
TXBWIC21100-72532-00017-90000082D0010518D0025800000          GGSL
TXBWIC21100-72532-22310-30000020D0000166D0029000120stspray-10GGSL
TXBWIC21100-72693-00014-80000822D0008643D003530004882770001  GGSL
TXBWIC21100-72693-00015-50001432D0098601D002440000082100001  GGSL
TXBWIC21100-72693-00022-30000118D0049676D001780007683000002  GGSL
TXBWIC21100-72693-00029-20000101D0031787D000010000082100002  GGSL
TXBWIC21100-72693-00032-20000136D0004112D000560000082100006  GGSL
TXBWIC21100-72693-00046-90000078D0003864D002540000682004985  GGSL
TXBWIC21100-72693-00065-00000144D0001348D000120000082770006  GGSL
TXBWIC21100-72693-00102-20000016D0000880D001410000082701020  GGSL
TXBWIC21100-72693-00210-40000240D0042811D000000000082690021  GGSL
TXBWIC21100-72693-00220-30000029D0004973D000080000082690032  GGSL
TXBWIC21100-72693-00332-30000482D0005118D000080000082300330  GGSL
TXBWIC21100-72693-00368-20000095D0004845D000190000082690036  GGSL
TXBWIC21100-72693-00480-10000183D0022696D001220003282002490  GGSL
TXBWIC21100-72693-00498-60000311D0019154D009920002082002489  GGSL
TXBWIC21100-72693-00505-10000398D0008894D012320005482002488  GGSL
TXBWIC21100-72693-00993-60000004D0000123D000130000282100099  GGSL
TXBWIC21100-72693-01004-80000356D0016402D000000000082100100  GGSL
TXBWIC21100-72693-01020-80000083D0018607D002030000283014144  GGSL
TXBWIC21100-72693-01021-50000031D0000589D000200000082701021  GGSL
TXBWIC21100-72693-02475-50001044D0027041D002470006082002475  GGSL
TXBWIC21100-72693-02478-60000322D0055894D000320000082002478  GGSL
TXBWIC21100-72693-02479-30005790D0029702D008000004182002479  GGSL
TXBWIC21100-72693-02504-20000049D0000637D003230000082002504  GGSL
TXBWIC21100-72693-02506-60020396D0338777D026720003082002506  GGSL
TXBWIC21100-72693-02507-30001538D0235741D003130000982002507  GGSL
TXBWIC21100-72693-02600-10000012D0000791D000000000082002600  GGSL
TXBWIC21100-72693-02685-80000012D0000374D000060000082002685  GGSL
TXBWIC21100-72693-02686-50002082D0061553D004280000682002686  GGSL
TXBWIC21100-72693-02750-30000172D0007211D000000000182002750  GGSL
TXBWIC21100-72693-03052-70000168D0009424D000360000082300305  GGSL
TXBWIC21100-72693-03143-20000054D0000509D002220000082300314  GGSL
TXBWIC21100-72693-03154-80000107D0001302D001370007282300315  GGSL
TXBWIC21100-72693-03164-70000021D0000185D000360000082300316  GGSL
TXBWIC21100-72693-03174-60000009D0000090D017220000082300317  GGSL
TXBWIC21100-72693-03188-30000012D0000561D001000000082300318  GGSL
TXBWIC21100-72693-03194-40000084D0002575D000480000082300319  GGSL
TXBWIC21100-72693-03254-50001518D0080385D000000000582003254  GGSL
TXBWIC21100-72693-03284-20000018D0000143D000120000682300328  GGSL
TXBWIC21100-72693-03298-90001544D0112720D000870001882300329  GGSL
TXBWIC21100-72693-03395-50000023D0004382D000230000082300339  GGSL
TXBWIC21100-72693-03507-20000012D0000109D002280036082100050  GGSL
TXBWIC21100-72693-03598-00022188D0791359D057720001082003598  GGSL
TXBWIC21100-72693-03599-70012521D1189035D013770009682003599  GGSL
TXBWIC21100-72693-04320-60011849D0748106D040750049282004320  GGSL
TXBWIC21100-72693-04430-20001460D0024396D016350010582004430  GGSL
TXBWIC21100-72693-04431-90000853D0019752D024470000982004431  GGSL
TXBWIC21100-72693-04432-60030236D0893782D024400011382004432  GGSL
TXBWIC21100-72693-04435-70034314D1275169D007890015382004435  GGSL
TXBWIC21100-72693-04438-80045021D0676540D065760060982004438  GGSL
TXBWIC21100-72693-04491-30000189D0001331D005180001582004491  GGSL
TXBWIC21100-72693-04493-70000186D0003204D028680032482004493  GGSL
TXBWIC21100-72693-04500-20000300D0017770D000410000382304500  GGSL
TXBWIC21100-72693-04504-00000459D0011892D009320003982004505  GGSL
TXBWIC21100-72693-04505-70008701D0643764D017550003082004506  GGSL
TXBWIC21100-72693-04506-40000325D0005508D008720003682004504  GGSL
TXBWIC21100-72693-04508-80000206D0002337D004390001482004508  GGSL
TXBWIC21100-72693-04964-20017763D0135692D311650221482004964  GGSL
TXBWIC21100-72693-05004-40000492D0002586D010920013282005004  GGSL
TXBWIC21100-72693-05005-10000606D0007738D012780005482005005  GGSL
TXBWIC21100-72693-05007-50000302D0008362D005060001982005007  GGSL
TXBWIC21100-72693-05200-00000244D0002584D002360000482030466  GGSL
TXBWIC21100-72693-05201-70000684D0003711D010320002482005201  GGSL
TXBWIC21100-72693-05202-40000390D0005173D004680003082005202  GGSL
TXBWIC21100-72693-06002-90000600D0009808D013860002482004318  GGSL
TXBWIC21100-72693-06003-60000312D0010397D005080000082004319  GGSL
TXBWIC21100-72693-08300-40008619D0398765D010790001082008300  GGSL
TXBWIC21100-72693-10002-20000005D0000065D000700000082004964  GGSL
TXBWIC21100-72693-10011-40000360D0003800D007440000082004317  GGSL
TXBWIC21100-72693-10012-10000011D0000223D000410000082210011  GGSL
TXBWIC21100-72693-10013-80000018D0000143D000540005482210012  GGSL
TXBWIC21100-72693-10015-20000012D0000134D001620000082210015  GGSL
TXBWIC21100-72693-14057-80000332D0022400D004450005283014005  GGSL
TXBWIC21100-72693-20038-80000050D0013292D000060000083080147  GGSL
TXBWIC21100-72693-21037-00000072D0000552D018120010882021037  GGSL
TXBWIC21100-72693-24010-00000022D0000658D001210001282002401  GGSL
TXBWIC21100-72693-24030-80002884D0223198D002060003682002403  GGSL
TXBWIC21100-72693-24033-90000024D0001072D000180001283014004  GGSL
TXBWIC21100-72693-24925-70000642D0026395D000000000082002492  GGSL
TXBWIC21100-72693-24957-80002706D0015125D001410000082002495  GGSL
TXBWIC21100-72693-29101-00000002D0000110D001800000283012910  GGSL
TXBWIC21100-72693-29912-20000654D0007745D026220001083012991  GGSL
TXBWIC21100-72693-30018-70000011D0002375D000210000083100018  GGSL
TXBWIC21100-72693-30068-20000008D0001045D000000000883013006  GGSL
TXBWIC21100-72693-31550-10000043D0006945D000500000482300332  GGSL
TXBWIC21100-72693-31766-60000049D0000759D002920003082031766  GGSL
TXBWIC21100-72693-31967-70000008D0001101D000080000082031968  GGSL
TXBWIC21100-72693-31973-80000044D0001069D002990001282031973  GGSL
TXBWIC21100-72693-31975-20000340D0024202D001570000282031975  GGSL
TXBWIC21100-72693-31984-40000342D0004017D032650000082031984  GGSL
TXBWIC21100-72693-31985-10001074D0013951D026210003682031985  GGSL
TXBWIC21100-72693-33563-90000131D0009588D001170000083013356  GGSL
TXBWIC21100-72693-33688-90000192D0013790D001680004783013368  GGSL
TXBWIC21100-72693-33730-90000004D0000642D000000012083013373  GGSL
TXBWIC21100-72693-33744-20000051D0004183D000420000083013374  GGSL
TXBWIC21100-72693-33820-30000208D0064357D000900000083013382  GGSL
TXBWIC21100-72693-33850-00000219D0019888D000450002483013385  GGSL
TXBWIC21100-72693-33880-70000032D0004662D000430000583013388  GGSL
TXBWIC21100-72693-33953-80000408D0014624D009370002683013395  GGSL
TXBWIC21100-72693-34958-20000071D0005327D001760001783013884  GGSL
TXBWIC21100-72693-35969-70000005D0000156D000070000082690040  GGSL
TXBWIC21100-72693-36208-60000031D0001633D002070002483013620  GGSL
TXBWIC21100-72693-37208-50000008D0001016D000120000083013720  GGSL
TXBWIC21100-72693-37888-90000004D0000160D000520001683013788  GGSL
TXBWIC21100-72693-38178-00000704D0031264D005600000883013817  GGSL
TXBWIC21100-72693-38271-80000004D0000436D000260001283013827  GGSL
TXBWIC21100-72693-38528-30000102D0041345D002250000083013852  GGSL
TXBWIC21100-72693-38610-50000014D0012564D000160000483013861  GGSL
TXBWIC21100-72693-38830-70000006D0000181D000000002483013833  GGSL
TXBWIC21100-72693-39988-40000010D0001228D000020002083013998  GGSL
TXBWIC21100-72693-39990-70000002D0000607D000020000083013999  GGSL
TXBWIC21100-72693-40010-80000107D0019064D000690000083014003  GGSL
TXBWIC21100-72693-40127-30000063D0003070D001780000083014012  GGSL
TXBWIC21100-72693-40177-80000459D0002368D008120007282104017  GGSL
TXBWIC21100-72693-41488-40000008D0000716D000000000083014148  GGSL
TXBWIC21100-72693-41878-30001464D0050732D019520000083014187  GGSL
TXBWIC21100-72693-44290-00000747D0009623D009960001282004429  GGSL
TXBWIC21100-72693-44410-20012099D0426040D026380004382004441  GGSL
TXBWIC21100-72693-44430-00004704D0551968D007370011182004443  GGSL
TXBWIC21100-72693-44650-20000027D0000539D000750000082004465  GGSL
TXBWIC21100-72693-44660-10000010D0000651D000850000082004466  GGSL
TXBWIC21100-72693-45000-40000132D0000878D006810003682004500  GGSL
TXBWIC21100-72693-45010-30000840D0007107D009560002482004501  GGSL
TXBWIC21100-72693-45020-20000467D0006866D009360002482004502  GGSL
TXBWIC21100-72693-45030-10000028D0001587D010570000082994503  GGSL
TXBWIC21100-72693-45115-50000003D0000023D016710000082004511  GGSL
TXBWIC21100-72693-45530-60000012D0000454D000300000082004553  GGSL
TXBWIC21100-72693-46930-30000432D0003613D011240000082004693  GGSL
TXBWIC21100-72693-46950-10000116D0003106D002820000082004695  GGSL
TXBWIC21100-72693-46970-90000038D0005590D002730003782004697  GGSL
TXBWIC21100-72693-50064-80000408D0003916D022190000082005006  GGSL
TXBWIC21100-72693-50096-90000079D0007450D000210000182005009  GGSL
TXBWIC21100-72693-69370-80000048D0000352D001920000082690037  GGSL
TXBWIC21100-72693-70004-80001409D0012785D002840006082770008  GGSL
TXBWIC21100-72693-77034-80002066D0021705D001840000182770003  GGSL
TXBWIC21100-72693-82104-00017352D0539405D021410007082100005  GGSL
TXBWIC21100-72693-82303-70000228D0001218D005520007282300001  GGSL
TXBWIC21100-72693-82998-50000336D0016499D000680065282995003  GGSL
TXBWIC21100-72711-60018-30000004D0000160D000000000060012     GGSL
TXBWIC21100-72725-00023-80000076D0001048D0018800000HBB-128   GGSL
TXBWIC21100-72725-00025-20000024D0000070D0000000000HMG-4     GGSL
TXBWIC21100-72725-00043-60000004D0000048D0000000000HRS-128   GGSL
TXBWIC21100-72725-00077-10000015D0000049D0000000015RTRP      GGSL
TXBWIC21100-72725-00087-00000024D0000098D0000000036RA-16     GGSL
TXBWIC21100-72725-00158-70000012D0000482D0011200004BLKBB-128 GGSL
TXBWIC21100-72725-00183-90000018D0000243D0006600000BLKBB-326 GGSL
TXBWIC21100-72725-00213-30000012D0000086D0003900000BLKBB-16A GGSL
TXBWIC21100-72725-00214-00000024D0000164D0004500000BLKBB-P4  GGSL
TXBWIC21100-72725-00215-40000008D0000212D0002000000BBKIT-LGVPGGSL
TXBWIC21100-72725-00235-50000012D0000071D0000000024PD-1      GGSL
TXBWIC21100-72725-00259-10000012D0000052D0037200000CR-32     GGSL
TXBWIC21100-72725-00269-00000075D0001050D0058500291DE-FG105P GGSL
TXBWIC21100-72725-00407-60000072D0000449D0034800012DE-FG2P   GGSL
TXBWIC21100-72725-00408-30000104D0000964D0057700272DE-FG4P   GGSL
TXBWIC21100-72725-00420-50000001D0000130D0000000000GRR-20    GGSL
TXBWIC21100-72725-00461-80000036D0000111D0000001368360-32S   GGSL
TXBWIC21100-72868-00000-00000768D0000575D0403200288M330      GGSL
TXBWIC21100-72868-00300-40000492D0001574D0038400000M6006     GGSL
TXBWIC21100-72868-00326-40009372D0013297D0931200204M326      GGSL
TXBWIC21100-72868-00800-90000066D0000768D0103200000M6009     GGSL
TXBWIC21100-72868-02220-30000208D0001392D0060000016M6004     GGSL
TXBWIC21100-72868-02300-20000006D0000038D0000600000M7001-1   GGSL
TXBWIC21100-72868-02400-90000084D0001020D0019200000M7002-2   GGSL
TXBWIC21100-72868-03620-00000147D0011132D0013200003VP362     GGSL
TXBWIC21100-72868-03630-90000273D0002072D0255300000VP363     GGSL
TXBWIC21100-72868-03648-40000435D0004796D0023200036VP364B    GGSL
TXBWIC21100-72868-03660-60000001D0000346D0000100000VP366     GGSL
TXBWIC21100-72868-09320-30008064D0001697D0619200792M320      GGSL
TXBWIC21100-72868-11751-00000006D0000047D0007200006M751K     GGSL
TXBWIC21100-72868-13035-90000672D0000619D0526800072M035      GGSL
TXBWIC21100-72868-13200-10001440D0002132D0054000156200R      GGSL
TXBWIC21100-72868-13308-40000216D0002195D0040300020M308      GGSL
TXBWIC21100-72868-13309-10020304D0003706D1648801440M309      GGSL
TXBWIC21100-72868-13310-70000250C0003706C0027600000M310S     GGSL
TXBWIC21100-72868-13325-10013464D0005394D5947200144M325      GGSL
TXBWIC21100-72868-13327-50003450D0000681D0495000150M327      GGSL
TXBWIC21100-72868-24178-90000011D0000503D0001000000M241      GGSL
TXBWIC21100-72868-54002-80000588D0000997D0255600036M668      GGSL
TXBWIC21100-72868-54102-50001404D0002661D0510000072M669      GGSL
TXBWIC21100-72874-00145-20000048D0000562D00000000004052X     GGSL
TXBWIC21100-72874-01536-70000006D0000019D00132000008426L     GGSL
TXBWIC21100-72874-06851-60000024D0000281D00030000006039L     GGSL
TXBWIC21100-72874-06852-30000006D0000070D00006000006039X     GGSL
TXBWIC21100-72874-06946-90000012D0000038D00276000008438XS    GGSL
TXBWIC21100-72874-06948-30000036D0000114D00180000008442X     GGSL
TXBWIC21100-72874-06949-00000048D0000153D00048000008442L     GGSL
TXBWIC21100-72874-06950-60000036D0000114D00144000008442M     GGSL
TXBWIC21100-72874-08550-60000006D0000031D00066000004063L     GGSL
TXBWIC21100-72874-08551-30000006D0000031D00054000004063X     GGSL
TXBWIC21100-72874-40110-80000012D0000015D00012000004011      GGSL
TXBWIC21100-72874-40200-60000072D0000060D00228000364020L     GGSL
TXBWIC21100-72874-40206-80000024D0000020D00000000004020B     GGSL
TXBWIC21100-72874-40524-30000048D0000562D00000000004052L     GGSL
TXBWIC21100-72874-40673-80000024D0000238D00012000004067M     GGSL
TXBWIC21100-72874-40674-50000012D0000120D00060000004067L     GGSL
TXBWIC21100-72874-40920-30000036D0000116D00036000004092      GGSL
TXBWIC21100-72874-40945-60000012D0000049D00036000004094J     GGSL
TXBWIC21100-72874-60233-80000012D0000160D00012000006023M     GGSL
TXBWIC21100-72874-60234-50000006D0000080D00054000006023L     GGSL
TXBWIC21100-72874-60235-20000018D0000240D00030000006023X     GGSL
TXBWIC21100-73035-01212-60000012D0000073D002640012001212     GGSL
TXBWIC21100-73035-01312-30000012D0000056D000120000001312     GGSL
TXBWIC21100-73035-02010-70000032D0000064D000640000002010     GGSL
TXBWIC21100-73035-02610-90000640D0000219D025600000002610     GGSL
TXBWIC21100-73035-02612-30000640D0000257D032000000002612     GGSL
TXBWIC21100-73035-04226-00000010D0000041D001850032004226     GGSL
TXBWIC21100-73035-06127-80000024D0000093D002880021606127     GGSL
TXBWIC21100-73035-06703-40000072D0000174D003840021606703     GGSL
TXBWIC21100-73035-09327-90000018D0000140D001800000009327     GGSL
TXBWIC21100-73035-09523-50000003D0000057D000030000609523     GGSL
TXBWIC21100-73035-25001-60000014D0000308D000000015705031T    GGSL
TXBWIC21100-73561-00022-20000030D0000162D00792000002000221   GGSL
TXBWIC21100-73561-00028-40000114D0001096D01055000181000283   GGSL
TXBWIC21100-73561-00042-00000084D0000489D06538000122000422   GGSL
TXBWIC21100-73561-00044-40000036D0000334D00084000241000441   GGSL
TXBWIC21100-73561-00055-00000396D0001076D00426000961000551   GGSL
TXBWIC21100-73561-00070-30000036D0000222D00420000001000701   GGSL
TXBWIC21100-73561-00099-40000120D0000340D02238000962000992   GGSL
TXBWIC21100-73561-00119-90000008D0000243D00184000001001193   GGSL
TXBWIC21100-73561-00150-20000036D0000200D00078002763001502   GGSL
TXBWIC21100-73561-00157-10000072D0000109D0006000000400157    GGSL
TXBWIC21100-73561-00179-30000006D0000073D00000000001001791   GGSL
TXBWIC21100-73561-00190-80000132D0000404D0027000054100195    GGSL
TXBWIC21100-73561-00192-20000066D0000387D00576000061001921   GGSL
TXBWIC21100-73561-00199-10000120D0000410D00288000241001991   GGSL
TXBWIC21100-73561-00252-30001152D0001255D00744003121002522   GGSL
TXBWIC21100-73561-00410-70000054D0000644D00882003301004102   GGSL
TXBWIC21100-73561-00432-90000012D0000161D00276000001004325   GGSL
TXBWIC21100-73561-00531-90000294D0000909D01026004501000532   GGSL
TXBWIC21100-73561-00590-60000204D0000641D00366000001005901   GGSL
TXBWIC21100-73561-00600-20000012D0000067D00084000303006002   GGSL
TXBWIC21100-73561-00720-70000096D0000337D0008400132100720    GGSL
TXBWIC21100-73561-01611-70000012D0000164D00090000001016111   GGSL
TXBWIC21100-73561-03836-20000018D0000238D00060000001038361   GGSL
TXBWIC21100-73561-10114-10000038D0000572D00332000121011410   GGSL
TXBWIC21100-73561-30019-30000042D0000525D00900000003001910   GGSL
TXBWIC21100-73561-30035-30000018D0000051D00000000123003510   GGSL
TXBWIC21100-73561-30036-00000018D0000053D00036000003003610   GGSL
TXBWIC21100-73561-30055-10000006D0000064D00012000003005510   GGSL
TXBWIC21100-73561-36001-20000168D0000525D01110000001360011   GGSL
TXBWIC21100-73561-46001-90000048D0000530D0043200000146002    GGSL
TXBWIC21100-73561-48510-40000204D0001435D00252000364851012   GGSL
TXBWIC21100-73561-48520-30000087D0000631D00396000004852012   GGSL
TXBWIC21100-73561-60101-60000594D0001918D0346100024160101    GGSL
TXBWIC21100-73561-70101-30000174D0001840D0137400000170101    GGSL
TXBWIC21100-73561-75001-10000114D0000379D00642000001750011   GGSL
TXBWIC21100-73561-85001-80000030D0000386D00180000001850011   GGSL
TXBWIC21100-73889-10003-10000012D0000098D00000000001091      GGSL
TXBWIC21100-73889-10004-80000324D0001760D00810001801273      GGSL
TXBWIC21100-74514-57625-20000309D0000915D0195900036HG-95715  GGSL
TXBWIC21100-76807-00020-80000072D0000046D002400000046310     GGSL
TXBWIC21100-77625-81082-60000022D0000295D00068000008108-2    GGSL
TXBWIC21100-77625-81092-50000060D0000815D00074000048109-2    GGSL
TXBWIC21100-78627-01717-60000048D0000153D0000000000CLOLH5806FGGSL
TXBWIC21100-78627-01912-50000090D0001526D0007001000CSNFA12050GGSL
TXBWIC21100-78627-34824-90000006D0000377D0004200006CSNCG34100GGSL
TXBWIC21100-78627-58822-50000020D0000521D0019400005CSNCG58050GGSL
TXBWIC21100-78627-58823-20000012D0000418D0008700000CSNCG58075GGSL
TXBWIC21100-78627-58824-90000012D0000640D0012300000CSNCG58100GGSL
TXBWIC21100-78627-58832-40000053D0001300D0057400018SNFR58050 GGSL
TXBWIC21100-78627-58834-80000029D0001357D0029400003SNFR58100 GGSL
TXBWIC21100-78627-67582-60000065D0001706D0054500005CSNFXP5805GGSL
TXBWIC21100-78627-67584-00000051D0002807D0027600003CSNFXP5810GGSL
TXBWIC21100-78627-99381-40000024D0000164D0027600012CELSP38025GGSL
TXBWIC21100-78978-02400-70000045D0000098D001650000368        GGSL
TXBWIC21100-78978-05045-70000012D0000039D00120001049100      GGSL
TXBWIC21100-78978-06700-40000054D0000080D000580000367        GGSL
TXBWIC21100-78978-10158-60000014D0000190D00034000008117-2    GGSL
TXBWIC21100-78978-10878-30000002D0000031D0000000000WFH001    GGSL
TXBWIC21100-78978-20540-60000006D0000012D0010900000205-Y     GGSL
TXBWIC21100-78978-21087-50000152D0001215D0005100096203CPBN   GGSL
TXBWIC21100-78978-21089-90000066D0000883D0030300000209B      GGSL
TXBWIC21100-78978-21090-50000008D0000090D0003200000210PB     GGSL
TXBWIC21100-78978-21720-10000018D0000135D0004200000217       GGSL
TXBWIC21100-78978-22000-30000027D0000417D0066300003220-6     GGSL
TXBWIC21100-78978-23153-50000048D0000031D0123600012231-12    GGSL
TXBWIC21100-78978-23900-50000279D0001364D0046500000239       GGSL
TXBWIC21100-78978-27300-90000017D0000059D0004800000273       GGSL
TXBWIC21100-78978-33600-10000026D0000513D0006500058336       GGSL
TXBWIC21100-78978-33800-50000019D0000506D0003000004338       GGSL
TXBWIC21100-78978-51508-60000002D0000027D0000000000784       GGSL
TXBWIC21100-78978-54699-80000004D0000076D0000000000MCF001    GGSL
TXBWIC21100-78978-55002-50000276D0000404D0088800000240SF     GGSL
TXBWIC21100-78978-55004-90000004D0000022D0000000000244SFB    GGSL
TXBWIC21100-78978-55005-60000108D0000160D0014400012243SF     GGSL
TXBWIC21100-78978-57084-90000012D0000163D00036001443266      GGSL
TXBWIC21100-78978-60100-00000006D0000086D00246001449201-6    GGSL
TXBWIC21100-78978-60201-40000002D0000043D00000000569110-2    GGSL
TXBWIC21100-78978-70046-80000008D0000147D00048000189109-2    GGSL
TXBWIC21100-78978-78500-70000004D0000055D0003800000785       GGSL
TXBWIC21100-78978-81322-90000006D0000081D00094000008132-2    GGSL
TXBWIC21100-78978-92818-30000004D0000065D0003600002HF940     GGSL
TXBWIC21100-78978-96327-60000015D0000097D0003800000238       GGSL
TXBWIC21100-84369-00000-00000103D0023161D0005300001CKDISP    GGSL
TXBWIC21100-84369-00001-70000384D0003453D0044000231PDF1RED   GGSL
TXBWIC21100-84369-00003-10000042D0000313D0003800000HP3       GGSL
TXBWIC21100-84369-00015-40000009D0000216D0002400000HP15      GGSL
TXBWIC21100-84369-00017-80000018D0000399D0001500000PDFERED   GGSL
TXBWIC21100-84369-00032-10000072D0000334D0042000072AW32      GGSL
TXBWIC21100-84369-00053-60000024D0000053D0002400000P5RED     GGSL
TXBWIC21100-84369-00071-00000003D0000048D0000800000PSB70RED  GGSL
TXBWIC21100-84369-00073-40000003D0000048D0000600000PSB70BLUE GGSL
TXBWIC21100-84369-00090-10000147D0000537D004570002490        GGSL
TXBWIC21100-84369-00092-50000036D0000025D001720000092        GGSL
TXBWIC21100-84369-00112-00000052D0001320D0043900002CH12      GGSL
TXBWIC21100-84369-00115-10000019D0000253D0020700008HF12RED   GGSL
TXBWIC21100-84369-00125-00000060D0001883D0102500002CH25      GGSL
TXBWIC21100-84369-00150-20000039D0001821D0032900000CH50      GGSL
TXBWIC21100-84369-00198-40000025D0000038D000160000098CN      GGSL
TXBWIC21100-84369-00310-00000004D0000102D0002400003PW13      GGSL
TXBWIC21100-84369-00324-70000096D0000251D0066000000PS32BLUE  GGSL
TXBWIC21100-84369-00650-70000030D0000418D0030600018HP650     GGSL
TXBWIC21100-84369-00666-80000144D0000257D0079200000666       GGSL
TXBWIC21100-84369-00680-40000024D0000045D0057600000680       GGSL
TXBWIC21100-84369-00690-30000648D0000770D0723600720690       GGSL
TXBWIC21100-84369-00730-60000024D0000026D0048000024730       GGSL
TXBWIC21100-84369-00740-50000468D0000521D0500400072740       GGSL
TXBWIC21100-84369-00780-10000036D0000081D0032400000780       GGSL
TXBWIC21100-84369-00785-60000007D0000030D0011300002P8FBBLACK GGSL
TXBWIC21100-84369-00786-30000041D0000178D0023900001P8FBBLUE  GGSL
TXBWIC21100-84369-00788-70000003D0000013D0021100002P8FBNAVY  GGSL
TXBWIC21100-84369-00789-40000025D0000107D0008100000P8FBRED   GGSL
TXBWIC21100-84369-00790-00000003D0000013D0006500004P8FBBURGUNGGSL
TXBWIC21100-84369-00820-40000024D0000086D0087600000820       GGSL
TXBWIC21100-84369-00825-90000246D0002042D0006600000TM825     GGSL
TXBWIC21100-84369-01000-90000018D0000073D0015000000HP1       GGSL
TXBWIC21100-84369-01009-20000024D0000136D0002400000AF3SL     GGSL
TXBWIC21100-84369-01013-90000036D0000282D0016800012AF5SL     GGSL
TXBWIC21100-84369-01017-70000084D0000623D0013200000AF7SL     GGSL
TXBWIC21100-84369-01018-40000001D0000024D0006300002AH2424    GGSL
TXBWIC21100-84369-01031-30000006D0000029D0006000000SB1       GGSL
TXBWIC21100-84369-01039-90000024D0000038D0001200000SSH2      GGSL
TXBWIC21100-84369-01040-50000002D0000018D0012600012ACP2      GGSL
TXBWIC21100-84369-01043-60000006D0000414D0002100001RHCK1     GGSL
TXBWIC21100-84369-01045-00000732D0001529D0009600000ACC1      GGSL
TXBWIC21100-84369-01110-50000012D0000297D0003700000LT1       GGSL
TXBWIC21100-84369-01830-20000006D0000087D0000000000TM830     GGSL
TXBWIC21100-84369-02001-50000058D0000358D0087900036P20FBBLUE GGSL
TXBWIC21100-84369-02002-20000036D0000220D0091600042P20FBGREENGGSL
TXBWIC21100-84369-02003-90000030D0000183D0074400054P20FBRED  GGSL
TXBWIC21100-84369-02008-40000076D0000472D0003700018P20FBBLACKGGSL
TXBWIC21100-84369-02009-10000007D0000045D0008900000P20FBPURPLGGSL
TXBWIC21100-84369-02010-70000007D0000044D0016700000P20FBNAVY GGSL
TXBWIC21100-84369-02013-80000019D0000118D0007000000P20FBTEAL GGSL
TXBWIC21100-84369-02014-50000005D0000032D0022800000P20FBBURGUGGSL
TXBWIC21100-84369-04043-30000054D0000994D0022200000914043    GGSL
TXBWIC21100-84369-04173-70000006D0000140D0006000000914273    GGSL
TXBWIC21100-84369-07500-80000120D0000220D0091200000750       GGSL
TXBWIC21100-84369-09112-10000089D0001270D01596001989112      GGSL
TXBWIC21100-84369-09203-60000017D0000122D00025000059203      GGSL
TXBWIC21100-84369-09608-90000001D0000081D0000000000LT5       GGSL
TXBWIC21100-84369-09616-40000034D0000873D0058400010PPF3      GGSL
TXBWIC21100-84369-09617-10000022D0000723D0023200004PPF5      GGSL
TXBWIC21100-84369-09618-80000013D0000463D0007500004PPF7      GGSL
TXBWIC21100-84369-09655-30000072D0000535D0267600024PHF3      GGSL
TXBWIC21100-84369-09656-00000054D0000871D0145800150PHF11     GGSL
TXBWIC21100-84369-09657-70000012D0000290D0008200004PHF22     GGSL
TXBWIC21100-84369-09808-30000012D0000019D00228000009808      GGSL
TXBWIC21100-84369-09810-60000096D0000243D00924001449810      GGSL
TXBWIC21100-84369-09812-00000036D0000141D00156000009812      GGSL
TXBWIC21100-84369-09814-40000084D0000213D00948000609814      GGSL
TXBWIC21100-84369-09822-90000012D0000039D00636000369822      GGSL
TXBWIC21100-84369-09832-80000036D0000704D00136000049832      GGSL
TXBWIC21100-84369-09833-50000038D0000955D00532000029833      GGSL
TXBWIC21100-84369-09835-80000023D0000716D00124000069835      GGSL
TXBWIC21100-84369-15041-50000012D0000044D0004800000150415    GGSL
TXBWIC21100-84369-15044-60000004D0000182D0000800000150446    GGSL
TXBWIC21100-84369-15099-60000036D0000078D0007200000ACU2BLACK GGSL
TXBWIC21100-84369-15224-20000008D0000102D0005000002152242    GGSL
TXBWIC21100-84369-15225-90000003D0000050D0002300006152259    GGSL
TXBWIC21100-84369-15226-60000003D0000064D0002400001152266    GGSL
TXBWIC21100-84369-15330-00000036D0000096D0150000324806RED    GGSL
TXBWIC21100-84369-15378-20000003D0000013D0006700002P8FBLIMEGRGGSL
TXBWIC21100-84369-15379-90000009D0000056D0007600000P20FBHOTPIGGSL
TXBWIC21100-84369-15381-20000013D0000083D0014700000P20FBLIMEGGGSL
TXBWIC21100-84369-15401-70000006D0000025D0006700000P8FBBERRYBGGSL
TXBWIC21100-84369-15406-20000007D0000044D0009300000P20FBBERRYGGSL
TXBWIC21100-84369-15439-00000072D0000781D0001200000FF16RED   GGSL
TXBWIC21100-84369-15441-30000072D0000732D0043800012FF11RED   GGSL
TXBWIC21100-84369-15494-90000018D0000219D00883001267906      GGSL
TXBWIC21100-84369-15730-80000001D0000091D0006100000157308    GGSL
TXBWIC21100-84369-15731-50000006D0000571D0004400000157315    GGSL
TXBWIC21100-84369-15747-60000013D0000609D00115000016300      GGSL
TXBWIC21100-84369-15750- 0000004D0000013D00091000156303      GGSL
TXBWIC21100-84369-15780-30000004D0000074D0000400000157803    GGSL
TXBWIC21100-84369-16300-20000006D0000025D00222007027506LIMEGRGGSL
TXBWIC21100-84369-16638-60000002D0000051D0000500026166386    GGSL
TXBWIC21100-84369-17001-70000480D0005292D0822400128170017    GGSL
TXBWIC21100-84369-17002-40001246D0007178D1291200372170024    GGSL
TXBWIC21100-84369-17003-10000636D0002312D0549600216170031    GGSL
TXBWIC21100-84369-17056-70000043D0000525D0027400022GOT2      GGSL
TXBWIC21100-84369-17057-40000036D0000470D0038300012GOT4      GGSL
TXBWIC21100-84369-17058-10000032D0000578D0033400016GOT55     GGSL
TXBWIC21100-84369-17067-30000045D0000882D0026800012GOT105    GGSL
TXBWIC21100-84369-17068-00000016D0000349D0016000011GOT16     GGSL
TXBWIC21100-84369-17098-70000005D0000160D00040000017300      GGSL
TXBWIC21100-84369-17126-70000001D0000038D0003300000171267    GGSL
TXBWIC21100-84369-17135-90000006D0000076D0002100000HH1       GGSL
TXBWIC21100-84369-17197-70000011D0000486D00104000039300      GGSL
TXBWIC21100-84369-17198-40000006D0000489D000390000010300     GGSL
TXBWIC21100-84369-17352-00000008D0000158D0000000002GST16     GGSL
TXBWIC21100-84369-17370-40000001D0000301D0000400000HIVE10    GGSL
TXBWIC21100-84369-17891-40000005D0000022D0005300016P8FBORANGEGGSL
TXBWIC21100-84369-17892-10000006D0000091D0001200000PSB70ORANGGGSL
TXBWIC21100-84369-18120-40000012D0000021D0013800006DT9854    GGSL
TXBWIC21100-84369-18121-10000018D0000053D0039000000DT9855    GGSL
TXBWIC21100-84369-18122-80000012D0000075D0019800006DT9856    GGSL
TXBWIC21100-84369-18123-50000036D0000055D0032400006DT9857    GGSL
TXBWIC21100-84369-18124-20000012D0000045D0013800000DT9858    GGSL
TXBWIC21100-84369-18219-50000042D0000257D0017400006DT9862    GGSL
TXBWIC21100-84369-18248-50000014D0000550D0001600000WCSML     GGSL
TXBWIC21100-84369-18249-20000014D0000669D0002200002WCMED     GGSL
TXBWIC21100-84369-18250-80000020D0001251D0001100005WCLRG     GGSL
TXBWIC21100-84369-18251-50000007D0000632D0000500006WCXLG     GGSL
TXBWIC21100-84369-18252-20000006D0000651D0002100002WCGNT     GGSL
TXBWIC21100-84369-18539-40000021D0000956D0032000000DOMEFDR35 GGSL
TXBWIC21100-84369-18540-00000010D0000389D0032000002DOMEWTR5  GGSL
TXBWIC21100-84369-18541-70000010D0000489D0021100001DOMEFDR45 GGSL
TXBWIC21100-84369-18542-40000013D0000541D0026700004DOMEWTR8  GGSL
TXBWIC21100-84369-18543-10000013D0000653D0020300004DOMEFDR60 GGSL
TXBWIC21100-84369-18544-80000017D0000794D0022900006DOMEWTR10 GGSL
TXBWIC21100-84369-18546-20000020D0000257D0021500025DBW2      GGSL
TXBWIC21100-84369-18560-80002000D0000416D4800000600EGGCTNSLD GGSL
TXBWIC21100-84369-18676-60000001D0000086D0000000000GNB3      GGSL
TXBWIC21100-84369-18695-70000010D0000040D0011600000P8BERRYBLUGGSL
TXBWIC21100-84369-18697-10000019D0000072D0005900000P8BLACK6  GGSL
TXBWIC21100-84369-18702-20000011D0000042D0077300036P8BLUE6   GGSL
TXBWIC21100-84369-18708-40000010D0000036D0013900000P8GREEN6  GGSL
TXBWIC21100-84369-18710-70000002D0000008D0000700000P8HOTPINK GGSL
TXBWIC21100-84369-18712-10000003D0000012D0005000000P8LIMEGREEGGSL
TXBWIC21100-84369-18720-60000016D0000061D0084700036P8RED     GGSL
TXBWIC21100-84369-18743-50000012D0000075D0011000000P20FBORANGGGSL
TXBWIC21100-84369-18840-10000012D0000036D0001800012GGC6LID   GGSL
TXBWIC21100-84369-18841-80000165D0001563D0045100024GGC10CAN  GGSL
TXBWIC21100-84369-18842-50000158D0000688D0052100052GGC10LID  GGSL
TXBWIC21100-84369-18843-20000225D0002198D0057300043GGC20CAN  GGSL
TXBWIC21100-84369-18845-60000102D0001493D0026500018GGC31CAN  GGSL
TXBWIC21100-84369-18846-30000186D0000903D0087000089GGC31LID  GGSL
TXBWIC21100-84369-18849- 0000239D0001041D0086300158GGC20LID  GGSL
TXBWIC21100-84369-99517-70000002D0000022D0000200000DF12FB    GGSL
TXBWIC21100-84865-33100-40000012D0000058D001920000033100     GGSL
TXBWIC21100-84865-55200-30000180D0001416D000000002455201     GGSL
TXBWIC21100-84865-87560-70000045D0000342D000660002487560     GGSL
TXBWIC21100-84865-92464-00000246D0002367D002400000092464     GGSL
TXBWIC21100-84865-92465-70000279D0002256D013680000092465     GGSL
TXBWIC21100-84865-93250-80000024D0000092D000000000093250     GGSL
TXBWIC21100-84865-93290-40000012D0000082D000000000093290     GGSL
TXBWIC21100-84865-93500-40000036D0000135D000570000093500     GGSL
TXBWIC21100-84865-93625-40000123D0001003D002550000093625     GGSL
TXBWIC21100-84865-93650-60000726D0001281D013140000093650     GGSL
TXBWIC21100-84865-97121-70000792D0002286D000120012097121     GGSL
TXBWIC21100-84865-97185-90000300D0001349D000000000097185     GGSL
TXBWIC21100-85199-00000-00000336D0000389D0069600060DD-11     GGSL
TXBWIC21100-85199-03302-20000003D0000337D0001900000AH-12D    GGSL
TXBWIC21100-85199-03306-00000009D0000648D0012800000PH-12     GGSL
TXBWIC21100-85199-03550-70000078D0000655D0008500042PMG-1     GGSL
TXBWIC21100-85199-04100-30000006D0000053D0000000036UB-1      GGSL
TXBWIC21100-85199-04200-00000300D0000299D0178800048DD4-12    GGSL
TXBWIC21100-85199-04400-40000106D0000125D0066000012DD5-12    GGSL
TXBWIC21100-85199-05014-20000228D0000240D0079200000DD-14     GGSL
TXBWIC21100-85199-05015-90000336D0000342D0136800144DD-15     GGSL
TXBWIC21100-85199-05018-00000180D0000184D0054000108DD-18     GGSL
TXBWIC21100-85199-05029-60000060D0000112D0034800024DD-25     GGSL
TXBWIC21100-85199-05100-20000010D0000012D0012000000DD4-10    GGSL
TXBWIC21100-85199-06300-50000006D0000425D0001000001MP-15-4   GGSL
TXBWIC21100-85199-08001-90000024D0000053D0000800000S-1-8     GGSL
TXBWIC21100-85199-21612-80000024D0000022D0001200000NECLR16   GGSL
TXBWIC21100-85199-57001-50000072D0000090D0025200084DDC1-12   GGSL
TXBWIC21100-85199-57002-20000036D0000045D0015600432DDC2-12   GGSL
TXBWIC21100-85199-57003-90000024D0000032D0018000360DDC3-12   GGSL
TXBWIC21100-85199-57004-60000048D0000059D0007200432DDC4-12   GGSL
TXBWIC21100-85199-57005-30000036D0000050D0016800456DDC5-12   GGSL
TXBWIC21100-85199-57006-00000024D0000033D0013200480DDC6-12   GGSL
TXBWIC21100-85199-57007-70000048D0000065D0028800492DDC7-12   GGSL
TXBWIC21100-85765-00270-40000035D0000268D0026900018GWT425    GGSL
