NJARET2105 -04797-70080-50000012D0000277D0000500000NA32431   GGSL
NJARET21050-02697-83528-60000001D0000037D000000000035288     GGSL
NJARET21050-07633-31219-70000024D0000369D0000200000AP30218DW GGSL
NJARET21050-10052-00333-10000024D0000104D000000000000333     GGSL
NJARET21050-10106-16901-30000012D0000079D000000000056901     GGSL
NJARET21050-10367-00001-80000015D0000062D00019000000001      GGSL
NJARET21050-10367-00110-70000012D0000079D00001000010110      GGSL
NJARET21050-10367-00460-30000016D0000077D000180000204608     GGSL
NJARET21050-10367-00470-20000036D0000441D00013000010470      GGSL
NJARET21050-10367-00560-00000040D0000147D000280002505608     GGSL
NJARET21050-10367-01000-00000012D0000166D00002000021000      GGSL
NJARET21050-10367-01010-90000012D0000191D00001000011010      GGSL
NJARET21050-10367-01020-80000024D0000415D00001000011020      GGSL
NJARET21050-10367-01110-60000112D0000370D00093000011110      GGSL
NJARET21050-10367-01111-30000048D0000159D00063000061111      GGSL
NJARET21050-10367-01112-00000088D0000302D00102000021112      GGSL
NJARET21050-10367-01120-50000096D0000277D00139000101120      GGSL
NJARET21050-10367-01121-20000088D0000505D00000000001121      GGSL
NJARET21050-10367-01122-90000168D0000968D00016000161122      GGSL
NJARET21050-10367-01130-40000016D0000087D00094000051130      GGSL
NJARET21050-10367-01140-30000056D0000189D00000000001140      GGSL
NJARET21050-10367-01151-90000040D0000134D00003000011151      GGSL
NJARET21050-10367-01160-10000064D0000500D00054000031160      GGSL
NJARET21050-10367-01162-50000016D0000125D00013000051162      GGSL
NJARET21050-10367-01210-30000012D0000147D00000000001210      GGSL
NJARET21050-10367-01230-10000012D0000049D00000000001230      GGSL
NJARET21050-10367-02131-00000008D0000038D0000000000ML2131    GGSL
NJARET21050-10367-02163-10000008D0000055D0000900001ML2163    GGSL
NJARET21050-10367-02181-50000048D0000327D0000600003ML2181    GGSL
NJARET21050-11423-94116-00000006D0000054D0000000000HG94116   GGSL
NJARET21050-11423-94127-60000084D0000437D0001800000HG64127   GGSL
NJARET21050-11423-94239-60000024D0000133D0001400002HG64138   GGSL
NJARET21050-12587-60034-40000012D0000106D000890000060034     GGSL
NJARET21050-12587-60035-10000032D0000264D001460000060035     GGSL
NJARET21050-12587-70022-80000048D0000232D002860000070022     GGSL
NJARET21050-12587-70028-00000072D0000348D003610000070028     GGSL
NJARET21050-12587-70054-90000036D0000174D000390000070054     GGSL
NJARET21050-12587-70403-50000012D0000058D000890000070403     GGSL
NJARET21050-12587-70419-60000036D0000174D003170000070419     GGSL
NJARET21050-12587-78361-00000030D0000243D000600000078361     GGSL
NJARET21050-12587-78362-70000054D0000436D000540000078362     GGSL
NJARET21050-14306-91164-90000005D0000100D0000000000US562171  GGSL
NJARET21050-14306-92177-80000003D0000097D0000200000US395116  GGSL
NJARET21050-14306-92433-50000003D0000122D0000600000US225688  GGSL
NJARET21050-14306-92461-80000005D0000094D0000100000US296116  GGSL
NJARET21050-14306-92836-40000005D0000092D0000200000US643688  GGSL
NJARET21050-14306-92838-80000003D0000081D0000700000US804688  GGSL
NJARET21050-14306-92840-10000003D0000110D0000200000US900688  GGSL
NJARET21050-14306-92845-60000005D0000094D0000500000US295702  GGSL
NJARET21050-14306-92849-40000003D0000097D0000200000US395702  GGSL
NJARET21050-14306-92962-00000003D0000122D0000200000US225687  GGSL
NJARET21050-14400-10747-40000010D0000018D00002000001440010747GGSL
NJARET21050-14400-10813-60000006D0000026D00002000001440010813GGSL
NJARET21050-14400-21411-00000012D0000099D00075000001440021411GGSL
NJARET21050-14400-40000-10000072D0000503D000080000840000ZFP  GGSL
NJARET21050-14400-60000-50000005D0000050D000030000360000ZFP  GGSL
NJARET21050-14400-61000-40000017D0000184D001360001661000     GGSL
NJARET21050-14400-67000-80000006D0000086D000000000067000     GGSL
NJARET21050-14400-71265-40000060D0000269D00004000001440071265GGSL
NJARET21050-14400-80400-70000022D0000224D00010000101440080400GGSL
NJARET21050-14400-81200-20000034D0000389D00000000001440081200GGSL
NJARET21050-14400-81400-60000014D0000181D00167000001440081400GGSL
NJARET21050-15561-20811-60000006D0000036D0000600006PT811EA   GGSL
NJARET21050-15561-20910-60000014D0000077D0000000000PT910 EA  GGSL
NJARET21050-15561-20961-80000024D0000035D0000000000PT961     GGSL
NJARET21050-15561-20965-60000012D0000014D0000000000PT965     GGSL
NJARET21050-15561-20979-30000006D0000068D0001400000PT979 EA  GGSL
NJARET21050-16069-00005-90000288D0002072D0005800007TP15C     GGSL
NJARET21050-16069-00007-30000552D0003664D0008700017BN1       GGSL
NJARET21050-16069-00008-00002580D0015944D0002500025BN2       GGSL
NJARET21050-16069-00013-40000126D0003549D0007300004BN3       GGSL
NJARET21050-16069-00014-10000048D0001036D0007500008BN4       GGSL
NJARET21050-16069-00015-80000036D0000904D0003800000BN5       GGSL
NJARET21050-16069-00019-60000156D0001795D0001900002TP30C     GGSL
NJARET21050-16069-00030-10000090D0001084D0002100007OW6       GGSL
NJARET21050-16069-00032-50000168D0001813D0011000000HG25      GGSL
NJARET21050-16069-00033-20000036D0000777D0004100006HG50      GGSL
NJARET21050-16069-00038-70000336D0003142D0000000000GF1015    GGSL
NJARET21050-16069-00047-90000024D0000173D0001900000TE12C     GGSL
NJARET21050-16069-00049-30000222D0004120D0016000011DX7       GGSL
NJARET21050-16069-00050-90000072D0002073D0005600009DX14      GGSL
NJARET21050-16069-00060-80000030D0000086D0000000000RAP15     GGSL
NJARET21050-16069-00072-10000060D0000400D0000900000TSD12     GGSL
NJARET21050-16069-00076-90000306D0001979D0006100000PN10      GGSL
NJARET21050-16069-00077-60000168D0001813D0000500005PN14      GGSL
NJARET21050-16069-00079-00000072D0002282D0001800002PN28      GGSL
NJARET21050-16069-00110-00000015D0000242D0000800000PF3       GGSL
NJARET21050-16069-00166-70000024D0000476D0000100001TP60      GGSL
NJARET21050-16069-00218-30000144D0000828D0005100004HST100    GGSL
NJARET21050-16069-00306-70000020D0000240D0000500001WS1050    GGSL
NJARET21050-16069-00307-40000012D0000280D0000400000WS10100   GGSL
NJARET21050-16069-00393-70000792D0002665D0006100001GS20      GGSL
NJARET21050-16069-00394-40000028D0001430D0000500001PN45      GGSL
NJARET21050-16069-00401-90000280D0002618D0002300003GF4050    GGSL
NJARET21050-16069-00468-20000050D0000112D0000000000HCK50     GGSL
NJARET21050-16069-00478-10000020D0000863D0002400001SRHO4     GGSL
NJARET21050-16069-00479-80001888D0035648D0011200034E316B     GGSL
NJARET21050-16069-00494-10000028D0000262D0001500000GFST4050  GGSL
NJARET21050-16069-00498-90000252D0002720D0023200003HGP1012   GGSL
NJARET21050-16069-00499-60000072D0001295D0020200029HGP1020   GGSL
NJARET21050-16069-00518-40000012D0000060D0003000002SG2512    GGSL
NJARET21050-16069-00546-70000024D0000839D0001400005RRBG4     GGSL
NJARET21050-16069-00597-90000006D0000129D0001000002BTK6      GGSL
NJARET21050-16069-00622-80000012D0000048D0002800002CP612     GGSL
NJARET21050-16069-00623-50000024D0000207D0000100000PK24      GGSL
NJARET21050-16069-00667-90008832D0188122D0150701453RH04US    GGSL
NJARET21050-16500-54010-60000012D0000057D000070000254010     GGSL
NJARET21050-17500-08120-00000072D0000101D002480000908120     GGSL
NJARET21050-17500-08150-70000048D0000076D000000000008150     GGSL
NJARET21050-17500-08150-70000156D0000218D001260001708150M    GGSL
NJARET21050-17500-90206-20000990D0019668D001620005090206     GGSL
NJARET21050-17500-91316-70000048D0000966D000090000191316     GGSL
NJARET21050-17500-91334-10000004D0000089D000080000091334     GGSL
NJARET21050-17500-91362-40000012D0000121D000000000091362     GGSL
NJARET21050-17500-91714-10000052D0001202D000000000091714     GGSL
NJARET21050-17500-95204-30000068D0001420D000030000095204     GGSL
NJARET21050-17500-95404-70000028D0000825D000010000195404     GGSL
NJARET21050-18062-00019-70000072D0000320D0000700001PT06MCCS  GGSL
NJARET21050-18222-00017-30000001D0000123D0000500000PP17      GGSL
NJARET21050-18222-00101-90000168D0000497D0018400006CS06101   GGSL
NJARET21050-18222-00103-30000096D0000293D0008300006CS06103   GGSL
NJARET21050-18222-00105-70000138D0000401D0023300007CS06105   GGSL
NJARET21050-18222-00107-10000138D0000542D0014400004CS06107   GGSL
NJARET21050-18222-00109-50000252D0000749D0019900006CS06109   GGSL
NJARET21050-18222-00110-10000078D0000224D0008100006CS06110   GGSL
NJARET21050-18222-00206-10000024D0000114D0002600001CS06206   GGSL
NJARET21050-18222-00208-50000030D0000143D0002200002CS06208   GGSL
NJARET21050-18222-00213-90000036D0000153D0003600018CS06213   GGSL
NJARET21050-18222-00226-90000016D0000043D0003800000CS04226   GGSL
NJARET21050-18222-00228-30000004D0000011D0000100000CS04228   GGSL
NJARET21050-18222-00405-80000010D0000127D0001100001CS01405   GGSL
NJARET21050-18222-00501-70000528D0000685D0025700026CS12501   GGSL
NJARET21050-18222-00503-10000096D0000197D0004800013CS503     GGSL
NJARET21050-18222-00505-50000528D0000579D0018300029CS12505   GGSL
NJARET21050-18222-00507-90000180D0000247D0017500029CS12507   GGSL
NJARET21050-18222-00509-30000252D0000416D0019700003CS12509   GGSL
NJARET21050-18222-00513-00000084D0000167D0003700000CS12513   GGSL
NJARET21050-18222-00526-00000180D0000550D0020200010CS06526   GGSL
NJARET21050-18222-00527-70000756D0000932D0017300029CS12527   GGSL
NJARET21050-18222-00529-10000072D0000127D0010000005CS12529   GGSL
NJARET21050-18222-00531-40000156D0000351D0017500002CS12531   GGSL
NJARET21050-18222-00535-20000168D0000222D0008800004CS12535   GGSL
NJARET21050-18222-00543-70000120D0000165D0009200007CS12543   GGSL
NJARET21050-18222-00545-10000036D0000063D0005100000CS12545   GGSL
NJARET21050-18222-00553-60001068D0001868D0051500338CS12553   GGSL
NJARET21050-18222-00559-80000072D0000095D0013400015CS12559   GGSL
NJARET21050-18222-00561-10000144D0000190D0006500002CS12561   GGSL
NJARET21050-18222-00563-50000180D0000299D0007500003CS12563   GGSL
NJARET21050-18222-00565-90000168D0000295D0003000002CS12565   GGSL
NJARET21050-18222-00566-60000012D0000022D0000000000CS12566   GGSL
NJARET21050-18222-00569-70000732D0001215D0022800005CS12569   GGSL
NJARET21050-18222-00571-00000228D0000478D0007700006CS12571   GGSL
NJARET21050-18222-00583-30000444D0000939D0012800006CS12583   GGSL
NJARET21050-18222-00608-30000108D0000357D0003300000CS608     GGSL
NJARET21050-18222-00611-30000012D0000049D0000000000CS611     GGSL
NJARET21050-18222-00680-90000012D0000028D0000000000CS12680   GGSL
NJARET21050-18222-00701-10000368D0000634D0010000015CS701     GGSL
NJARET21050-18222-00707-30000072D0000223D0003700012CS707     GGSL
NJARET21050-18222-00709-70000030D0000145D0000300000CS709     GGSL
NJARET21050-18222-00727-10000024D0000163D0001000002CS727     GGSL
NJARET21050-18222-00730-10000664D0001225D0028200056CS730     GGSL
NJARET21050-18222-00749-30000084D0000462D0001100005CS749     GGSL
NJARET21050-18222-00750-90000004D0000041D0000100001CS750     GGSL
NJARET21050-18222-00753-00000080D0000400D0002300003CS753     GGSL
NJARET21050-18222-00755-40000008D0000027D0000100000CS755     GGSL
NJARET21050-18222-00772-10000008D0000140D0000000000CS772     GGSL
NJARET21050-18222-00954-10000032D0000173D0000400001CS08954   GGSL
NJARET21050-18222-50501-20000192D0000182D0019800003CS1250501XGGSL
NJARET21050-18222-50527-20000120D0000119D0019900005CS1250527XGGSL
NJARET21050-18222-50559-30000168D0000161D0019200003CS1250559XGGSL
NJARET21050-18506-00010-30000006D0000048D00001000000106      GGSL
NJARET21050-18506-00029-50000006D0000072D00006000010296      GGSL
NJARET21050-18506-00102-50000060D0000238D000550000410212     GGSL
NJARET21050-18506-00110-00000312D0002195D001400000811012     GGSL
NJARET21050-18506-00116-20000552D0003858D000080000811612     GGSL
NJARET21050-18506-00117-90000210D0002067D00010000101176      GGSL
NJARET21050-18506-00118-60000006D0000049D00002000001186      GGSL
NJARET21050-18506-00122-30000120D0000661D0001800002122       GGSL
NJARET21050-18506-00123-00000036D0000198D0001700009123       GGSL
NJARET21050-18506-00125-40000036D0000181D0001800000125       GGSL
NJARET21050-18506-00130-80000204D0001135D0002000001130       GGSL
NJARET21050-18506-00135-30000006D0000088D0001200001135       GGSL
NJARET21050-19200-00095-60000066D0000158D002220000000027     GGSL
NJARET21050-19200-00619-40000084D0000274D013390000000706     GGSL
NJARET21050-19200-00619-40000012D0000040D000110000100706M    GGSL
NJARET21050-19200-05432-40000024D0000099D000660000375057     GGSL
NJARET21050-19200-76879-50000012D0000028D000020000176879     GGSL
NJARET21050-19200-78626-30000486D0001357D002820003078626     GGSL
NJARET21050-19200-78914-10000624D0001707D002240000678914     GGSL
NJARET21050-19200-82043-10001848D0004619D000840008482043     GGSL
NJARET21050-19200-83262-50000012D0000040D00112000001920082362GGSL
NJARET21050-19200-83624-10000012D0000058D002220000083624     GGSL
NJARET21050-19200-83721-70000004D0000012D005520003483721     GGSL
NJARET21050-19200-98665-60000008D0000035D001030000198665     GGSL
NJARET21050-19263-25010-70000002D0000131D00004000042501      GGSL
NJARET21050-19263-25030-50000004D0000474D00015000022503      GGSL
NJARET21050-19263-25042-80000001D0000170D0000100001250425    GGSL
NJARET21050-19263-25045-90000016D0000582D0003300001250450    GGSL
NJARET21050-19263-25050-30000002D0000311D00000000002505      GGSL
NJARET21050-19263-25055-80000008D0000365D0002200000250550    GGSL
NJARET21050-19263-25160-90000009D0000094D00001000002516      GGSL
NJARET21050-19263-25170-80000005D0000096D00000000002517      GGSL
NJARET21050-19263-25500-30000050D0000059D00004000042550      GGSL
NJARET21050-19263-25510-20001725D0002467D00140000132551      GGSL
NJARET21050-19263-25520-10001875D0003111D00081000302552      GGSL
NJARET21050-19263-25530-00002675D0005002D00064000392553      GGSL
NJARET21050-19263-25540-90000775D0001744D00122000322554      GGSL
NJARET21050-19263-25550-80000625D0001788D00074000172555      GGSL
NJARET21050-19263-25670-30000006D0000082D00035000082567      GGSL
NJARET21050-19263-25680-20000016D0000297D00029000142568      GGSL
NJARET21050-19263-25750-20000032D0000171D00023000012575      GGSL
NJARET21050-19263-25760-10000024D0000163D00026000032576      GGSL
NJARET21050-19263-25770-00000099D0000968D00045000052577      GGSL
NJARET21050-19263-25780-90000055D0000877D00065000042578      GGSL
NJARET21050-19263-25950-60000180D0000214D00039000042595      GGSL
NJARET21050-19263-26050-20000100D0000086D00011000002605      GGSL
NJARET21050-19263-26170-70000014D0000374D00000000002617      GGSL
NJARET21050-19263-26210-00000300D0002253D00068000092621      GGSL
NJARET21050-19263-26260-50000004D0000124D00000000002626      GGSL
NJARET21050-19263-26300-80000264D0000610D00083000152630      GGSL
NJARET21050-19263-26310-70000672D0001895D00048000482631      GGSL
NJARET21050-19263-26310-70000432D0001218D00014000002633      GGSL
NJARET21050-19263-26560-60000032D0000199D0000100000 2656     GGSL
NJARET21050-19263-26560-60000064D0000489D00000000002656      GGSL
NJARET21050-19263-26580-40000032D0000255D0000100000 2658     GGSL
NJARET21050-19263-26580-40000096D0000938D00010000052658      GGSL
NJARET21050-21344-00321-20000020D0000776D0000600001WX15064   GGSL
NJARET21050-21344-00322-90000018D0000699D0007800005WX15065   GGSL
NJARET21050-21344-00338-00000001D0000247D0006500000400338    GGSL
NJARET21050-21344-00344-10000102D0000734D0002400005400344    GGSL
NJARET21050-21344-00345-80000066D0000481D0007200003400345    GGSL
NJARET21050-21344-00346-50000066D0000477D0006800004400346    GGSL
NJARET21050-21344-00347-20000016D0000226D0002500007400347    GGSL
NJARET21050-21344-00348-90000060D0000911D0007300006400348    GGSL
NJARET21050-21344-00349-60000040D0000625D0013900003400349    GGSL
NJARET21050-21344-00350-20000024D0000395D0010600004400350    GGSL
NJARET21050-21344-00354-00000120D0005700D0001000009HQ73481784GGSL
NJARET21050-21344-00361-80000122D0002906D0004700036HQ74912297GGSL
NJARET21050-21344-00362-50000017D0001157D0018400018HQMUSH    GGSL
NJARET21050-21344-00364-90000003D0000939D0000500002400364    GGSL
NJARET21050-21344-00380-90000005D0000233D0006600021JFG18026  GGSL
NJARET21050-21344-00381-60000006D0000557D0000200000JFG18031  GGSL
NJARET21050-21344-00382-30000002D0000222D0008300000JFG18032  GGSL
NJARET21050-21344-00384-70000004D0000205D0004000000JFG18013  GGSL
NJARET21050-21344-00385-40000192D0004018D0002000012JFG18011A GGSL
NJARET21050-21344-00386-10000114D0004155D0003900008JFG18011B GGSL
NJARET21050-21344-00387-80000090D0002872D0004100008JFG18012  GGSL
NJARET21050-21344-00388-50000048D0000239D0003300002JFG18001  GGSL
NJARET21050-21344-00389-20000040D0000443D0006300006JFG18004  GGSL
NJARET21050-21344-00390-80000032D0000700D0000900000JFG18010A GGSL
NJARET21050-21344-00391-50000048D0001588D0007000003JFG18010B GGSL
NJARET21050-21344-00392-20000132D0000763D0005800006JFG18002  GGSL
NJARET21050-21344-00393-90000234D0005750D0002100012JFG18008A GGSL
NJARET21050-21344-00394-60000168D0003065D0004100012JFG18008ASGGSL
NJARET21050-21344-00395-30000080D0002032D0006200011JFG18006  GGSL
NJARET21050-21344-00396-00000096D0003297D0002400008JFG18016  GGSL
NJARET21050-21344-00397-70000075D0002796D0011000008JFG18018  GGSL
NJARET21050-21344-00398-40000001D0000114D0009900000JFG18042  GGSL
NJARET21050-21344-00403-50000006D0000143D0009700043ZT152072  GGSL
NJARET21050-21344-00404-20000009D0000570D0000700000ZT185020  GGSL
NJARET21050-21344-00405-90000006D0000395D0003400002ZT185019  GGSL
NJARET21050-21344-00407-30000012D0001449D0010100002ZT185016  GGSL
NJARET21050-21344-00408-00000002D0000113D0000400000ZT185026  GGSL
NJARET21050-21344-00409-70000840D0002974D0012800041ZT185018  GGSL
NJARET21050-21344-00411-00000004D0000155D0009800027ZT185021  GGSL
NJARET21050-21344-00413-40000192D0000107D0010600000400413    GGSL
NJARET21050-21344-00414-10000012D0000022D0009900000400414    GGSL
NJARET21050-21344-00415-80000024D0000050D0010600000400415    GGSL
NJARET21050-21344-00416-50000048D0000077D0010300000400416    GGSL
NJARET21050-21344-00417-20000024D0000059D0014500001400417    GGSL
NJARET21050-21344-00418-90000036D0000088D0011100000400418    GGSL
NJARET21050-21344-00420-20000024D0000388D0010800000400420    GGSL
NJARET21050-21344-00422-60000004D0000138D0009800028ZT185023  GGSL
NJARET21050-21344-00719-70000078D0001486D0004700004WX17413   GGSL
NJARET21050-21344-00720-30000234D0003967D0005700015WX17409   GGSL
NJARET21050-21344-00721-00000424D0008649D0008300070WX17230   GGSL
NJARET21050-21344-00722-70000136D0002720D0001600016WX17401   GGSL
NJARET21050-21344-00723-40000180D0003565D0010200036WX17402   GGSL
NJARET21050-21344-00725-80000050D0002145D0005900015HQ748416  GGSL
NJARET21050-21344-00726-50000066D0002922D0002400023HQ74843056GGSL
NJARET21050-21344-00727-20000072D0003136D0001700015HQ74842665GGSL
NJARET21050-21344-00728-90000020D0000475D0001200006HQ74912300GGSL
NJARET21050-21344-00729-60000056D0002403D0001500017HQ7348782 GGSL
NJARET21050-21344-00733-30000004D0000070D0002900000BN19188   GGSL
NJARET21050-21344-00734-00000040D0001300D0006300008WX17725   GGSL
NJARET21050-21344-00735-70000032D0000613D0007100004WX17577RV GGSL
NJARET21050-21344-00736-40000044D0000844D0007800003WX17578RV GGSL
NJARET21050-21344-00739-50000020D0000595D0007100006WX17816   GGSL
NJARET21050-21344-00740-10000008D0000248D0003600000WX17818   GGSL
NJARET21050-21344-00744-90000004D0000124D0002700000WX17819   GGSL
NJARET21050-21344-00745-60000040D0000520D0017300017YS19006   GGSL
NJARET21050-21344-00746-30000172D0002898D0021300020YS19L005  GGSL
NJARET21050-21344-00747-00000156D0002656D0022400017YS19L004  GGSL
NJARET21050-21344-00748-70000152D0002011D0021800015YS19S002  GGSL
NJARET21050-21344-00749-40000164D0002159D0021900015YS19S003  GGSL
NJARET21050-21344-00750-00000188D0002464D0017800028YS19S001  GGSL
NJARET21050-21344-00762-30000011D0001086D0020000004FDBH1901  GGSL
NJARET21050-21344-00762-30000017D0001824D0003800000MG18387RV GGSL
NJARET21050-21344-00765-40000003D0000300D0010400000MG18390   GGSL
NJARET21050-21344-00766-10000007D0000960D00069000024007661   GGSL
NJARET21050-21344-00774-60000136D0004266D0002400021WX17800   GGSL
NJARET21050-21344-00775-30000126D0004262D0006200034WX17802   GGSL
NJARET21050-21344-00776-00000023D0001458D0001000010FDBB1901  GGSL
NJARET21050-21344-00779-10000012D0000273D0003600000JFG19058B GGSL
NJARET21050-21344-00780-70000009D0000585D0002400005MG18396RV GGSL
NJARET21050-21344-00781-40000010D0000390D0004700012MG18397RV GGSL
NJARET21050-21344-00785-20000026D0000456D0005200014BN19294   GGSL
NJARET21050-21344-00795-10000007D0000869D0004700000MG18389   GGSL
NJARET21050-21344-00796-80000054D0000175D0002700000SSH1822719GGSL
NJARET21050-21344-00797-50000018D0000070D0005900000SSH1813624GGSL
NJARET21050-21344-00798-20000060D0000272D0002100000SSH1813728GGSL
NJARET21050-21344-00799-90000120D0000851D0006300005HS190061C GGSL
NJARET21050-21344-00800-20000174D0001272D0005600006HS190061B GGSL
NJARET21050-21344-00801-90000168D0001207D0005100008HS190061A GGSL
NJARET21050-21344-00802-60000136D0001154D0005000002HS190058C GGSL
NJARET21050-21344-00803-30000128D0001070D0004800004HS190058B GGSL
NJARET21050-21344-00804-00000116D0000964D0006500006HS190058A GGSL
NJARET21050-21344-00805-70000066D0000643D0003000004HS190056  GGSL
NJARET21050-21344-00806-40000064D0000540D0007200002SSH18A025 GGSL
NJARET21050-21344-00807-10000036D0000504D0004600001SSH18A034 GGSL
NJARET21050-21344-00808-80000216D0001054D0004100002SSH18A024 GGSL
NJARET21050-21344-00819-40000024D0000205D0002000001WX17931   GGSL
NJARET21050-21344-00821-70000012D0000101D0002600001WX17932   GGSL
NJARET21050-21344-00822-40000036D0000309D0001600012WX17930   GGSL
NJARET21050-21344-00823-10000024D0000205D0000100000WX17934   GGSL
NJARET21050-21344-00824-80000060D0000506D0001500000WX17933   GGSL
NJARET21050-21344-00825-50000096D0000669D0003600000JFG18011BWGGSL
NJARET21050-21344-00826-20000024D0000187D0005500001JFG18011AWGGSL
NJARET21050-21344-00827-90000072D0000710D0002900000JFG18008AWGGSL
NJARET21050-21344-00828-60000060D0000389D0004000000JFG18008ACGGSL
NJARET21050-21344-00829-30000004D0000039D0000400002ZT197030  GGSL
NJARET21050-21344-00831-60000004D0000073D0014800031ZT197003  GGSL
NJARET21050-21344-00832-30000003D0000062D0005600000JFG19007B GGSL
NJARET21050-21344-00833-00000008D0000226D0007700000ZT197029  GGSL
NJARET21050-21344-00834-70000001D0000097D0007200000ZT197023RVGGSL
NJARET21050-21344-00837-80003264D0009157D0011900002SK15020B  GGSL
NJARET21050-21344-00838-50004224D0010500D0021600001SK15008E  GGSL
NJARET21050-21344-00839-20000020D0000325D0001900000HS190062  GGSL
NJARET21050-21344-00844-60000102D0000596D0002700001HJAL19011 GGSL
NJARET21050-21344-00846-00000090D0007823D0017800003FDBH1902  GGSL
NJARET21050-21344-01159-00000066D0000565D0006200003BN19294S  GGSL
NJARET21050-21344-01160-60000012D0000218D0006600032BN19296   GGSL
NJARET21050-21344-01161-30000036D0000332D0007500005BN19296S  GGSL
NJARET21050-21344-01162-00000014D0000252D0006500034BN19297   GGSL
NJARET21050-21344-01163-70000054D0000495D0007000000BN19297S  GGSL
NJARET21050-21344-01164-40000004D0000069D0008000035BN19299   GGSL
NJARET21050-21344-01165-10000048D0000395D0007500002BN19299S  GGSL
NJARET21050-21344-01166-80000044D0000771D0006700034BN19300   GGSL
NJARET21050-21344-01167-50000054D0000467D0007100003BN19300S  GGSL
NJARET21050-21344-01168-20000032D0000561D0005900048BN19302   GGSL
NJARET21050-21344-01169-90000096D0000834D0004700001BN19302S  GGSL
NJARET21050-21344-01170-50000086D0006957D0004600006FDBH2001  GGSL
NJARET21050-21344-01171-20000024D0001252D0000500001HQ73482202GGSL
NJARET21050-21344-01172-90000108D0005409D0001100011HQ73482993GGSL
NJARET21050-21344-01173-60000104D0005178D0001600006HQ73483050GGSL
NJARET21050-21344-01174-30000086D0004682D0002300022HQ73483068GGSL
NJARET21050-21344-01175-00000034D0001774D0002100013HQ75752083GGSL
NJARET21050-21344-01176-70000046D0002283D0003200024HQ75752836GGSL
NJARET21050-21344-01177-40000040D0002029D0001800019HQ75752848GGSL
NJARET21050-21344-01178-10000101D0004969D0006600027HQ7575453 GGSL
NJARET21050-21344-01179-80000108D0000947D0003500010HS18MR0461GGSL
NJARET21050-21344-01180-40000102D0001353D0005200008HS18MR0463GGSL
NJARET21050-21344-01183-50000036D0000485D0001700000HS20132   GGSL
NJARET21050-21344-01184-20000120D0001897D0007200008HS20134   GGSL
NJARET21050-21344-01185-90000150D0002121D0008100007HS20135   GGSL
NJARET21050-21344-01186-60000090D0001088D0007100009HS20136   GGSL
NJARET21050-21344-01187-30000096D0001209D0009900009HS20137   GGSL
NJARET21050-21344-01188-00000080D0001445D0011800006HS20HS0022GGSL
NJARET21050-21344-01189-70000072D0001316D0011000008HS20HS0023GGSL
NJARET21050-21344-01190-30000088D0001089D0012900010HS20HS0024GGSL
NJARET21050-21344-01191-00000044D0000532D0014200009HS20HS0025GGSL
NJARET21050-21344-01192-70000028D0000580D0005700006HS20HS0026GGSL
NJARET21050-21344-01196-50000194D0009679D0031100023MG19632   GGSL
NJARET21050-21344-01197-20000098D0003646D0030500025MG19633   GGSL
NJARET21050-21344-01201-60000264D0001287D0005000005SSH19S094 GGSL
NJARET21050-21344-01202-30000232D0002441D0006400012SSH19S098 GGSL
NJARET21050-21344-01203-00000136D0002464D0004000007SSH19S104 GGSL
NJARET21050-21344-01204-70000076D0001589D0003400002WX13253   GGSL
NJARET21050-21344-01205-40000040D0000836D0003400001WX13254   GGSL
NJARET21050-21344-01206-10000096D0001303D0003400022WX18811   GGSL
NJARET21050-21344-01207-80000030D0000406D0004500021WX18812   GGSL
NJARET21050-21344-01208-50000060D0000810D0003500032WX18813   GGSL
NJARET21050-21344-01209-20000088D0002223D0005900014WX18814   GGSL
NJARET21050-21344-01210-80000112D0002850D0004900017WX18815   GGSL
NJARET21050-21344-01211-50000040D0000857D0005300004WX18816   GGSL
NJARET21050-21344-01212-20000350D0007133D0010300056WX18819   GGSL
NJARET21050-21344-01213-90000456D0009078D0006800068WX18820   GGSL
NJARET21050-21344-01214-60000680D0013774D0013100128WX18821   GGSL
NJARET21050-21344-01215-30000068D0013893D0042400045WX18824   GGSL
NJARET21050-21344-01216-00000191D0025653D0006700026WX18825   GGSL
NJARET21050-21344-01218-40000064D0000750D0001400006WX19198   GGSL
NJARET21050-21344-01219-10000020D0000929D0008800003WX19199   GGSL
NJARET21050-21344-01220-70000012D0000574D0009900003WX19200   GGSL
NJARET21050-21344-01221-40000236D0004004D0002500012WX19201   GGSL
NJARET21050-21344-01222-10000040D0001313D0003600013WX19203   GGSL
NJARET21050-21344-01223-80000048D0001584D0003200011WX19204   GGSL
NJARET21050-21344-01224-50000018D0000591D0000300003WX19205   GGSL
NJARET21050-21344-01225-20000052D0002604D0008700003WX19206   GGSL
NJARET21050-21344-01226-90000128D0001110D0010800005WX19256   GGSL
NJARET21050-21344-01227-60000120D0001022D0008400000WX19257   GGSL
NJARET21050-21344-01228-30000016D0000150D0004100001WX19258   GGSL
NJARET21050-21344-01229-00000032D0000336D0004600001WX19259   GGSL
NJARET21050-21344-01230-60000036D0000837D0004000000WX19260   GGSL
NJARET21050-21344-01231-30000016D0000348D0004600000WX19261   GGSL
NJARET21050-21344-01233-70000028D0000612D0006200001WX19264   GGSL
NJARET21050-21344-01234-40000028D0000613D0005600000WX19266   GGSL
NJARET21050-21344-01235-10000024D0000475D0007100001WX19267   GGSL
NJARET21050-21344-01237-50000169D0020597D0024500114WX19270   GGSL
NJARET21050-21344-01238-20000038D0001733D0005800004WX8561    GGSL
NJARET21050-21344-01240-50000042D0000344D0004800004WX86808283GGSL
NJARET21050-21344-01241-20000020D0000289D0001500001WX8594    GGSL
NJARET21050-21344-01246-70000112D0001806D0002600000WX8751    GGSL
NJARET21050-21344-01247-40000016D0000217D0000800001WX8752    GGSL
NJARET21050-21344-01248-10000112D0001808D0003500000WX8757    GGSL
NJARET21050-21344-01252-80000022D0000565D0008900016ZT207010B GGSL
NJARET21050-21344-01254-20000004D0000290D0014600032ZT207012B GGSL
NJARET21050-21344-01255-90000034D0000754D0013300012ZT207015  GGSL
NJARET21050-21344-01256-60000030D0000682D0013500019ZT207016  GGSL
NJARET21050-21344-01257-30000064D0001035D0009900015ZT207017B GGSL
NJARET21050-21344-01258-00000038D0000719D0009900035ZT207023A GGSL
NJARET21050-21344-01259-70000016D0000301D0011700034ZT207024A GGSL
NJARET21050-21344-01260-30000011D0000847D0038900148ZT207025  GGSL
NJARET21050-21344-01261-00000011D0000847D0038900151ZT207026  GGSL
NJARET21050-21344-01262-70000011D0000847D0038900084ZT207027  GGSL
NJARET21050-21344-01264-10000039D0005421D0019900057HR22818AA GGSL
NJARET21050-21344-01265-80000002D0000269D0016500019HR30701AA GGSL
NJARET21050-21344-01266-50000065D0003732D0026700064CU297     GGSL
NJARET21050-21344-01267-20000042D0005041D0015800036FP35      GGSL
NJARET21050-21344-01268-90000023D0002071D0017900011HR26182AA GGSL
NJARET21050-21344-01270-20000018D0000480D0024100007HS20153   GGSL
NJARET21050-21344-01273-30000173D0026199D0059900184WX17658A  GGSL
NJARET21050-21344-01274-00000038D0005079D0022600042JFA16020GHGGSL
NJARET21050-21344-01275-70000032D0001887D0011000024JFG20031  GGSL
NJARET21050-21964-10100-80000036D0000986D0000200000A6F       GGSL
NJARET21050-21964-10110-70000012D0000082D0000100000A6T       GGSL
NJARET21050-21964-10121-30000006D0000177D0000000000A6RP      GGSL
NJARET21050-21964-10133-60000006D0000177D0000900001TH3RP     GGSL
NJARET21050-21964-10134-30000018D0000389D0000400002BUF16     GGSL
NJARET21050-21964-10211-10000012D0000110D0000200000OMT       GGSL
NJARET21050-21964-10305-70000001D0000061D0001500000BTG       GGSL
NJARET21050-21964-10315-60000006D0000189D0002800000SQG       GGSL
NJARET21050-21964-10350-70000018D0000442D0014500144X1        GGSL
NJARET21050-21964-10360-60000018D0000478D0000000000W1        GGSL
NJARET21050-21964-10370-50000018D0000203D0000100002OWF       GGSL
NJARET21050-21964-10461-00000018D0000305D0000000000LF4       GGSL
NJARET21050-21964-10466-50000042D0000711D0000400000WH3       GGSL
NJARET21050-21964-10470-20000014D0000352D0000900004H82       GGSL
NJARET21050-21964-10481-80000012D0000072D0002700009AM        GGSL
NJARET21050-21964-10485-60000018D0000173D0000400000RS3HC     GGSL
NJARET21050-21964-10486-30000060D0000626D0000900007RS3WC     GGSL
NJARET21050-21964-20500-30000026D0003213D0004000001YF        GGSL
NJARET21050-21964-20510-20000022D0001743D0003700002YCPD90    GGSL
NJARET21050-21964-20520-10000034D0002619D0002800001YCPW180   GGSL
NJARET21050-21964-20530-00000010D0000841D0002300001YCPT360   GGSL
NJARET21050-21964-25241-00000024D0000709D0001000001CC12S     GGSL
NJARET21050-21964-25242-70000072D0002649D0000800004CC18S     GGSL
NJARET21050-21964-25244-10000006D0000177D0002100000CC12N     GGSL
NJARET21050-21964-25245-80000018D0000662D0001400001CC18N     GGSL
NJARET21050-21964-25245-80000001D0000037D0000900000CC18NX    GGSL
NJARET21050-21964-25256-40000018D0000532D0002000001CC12FM    GGSL
NJARET21050-21964-25257-10000006D0000221D0000500000CC18FM    GGSL
NJARET21050-21964-40043-90000090D0001623D0000300002CJM8G     GGSL
NJARET21050-21964-40053-80000054D0001206D0000000000CJM15G    GGSL
NJARET21050-21964-40063-70000018D0000519D0000200000CJM23G    GGSL
NJARET21050-21964-41073-50000060D0001253D0000300003CJTHM15Y  GGSL
NJARET21050-21964-41084-10000006D0000177D0000300001CJTHM36Y  GGSL
NJARET21050-21964-41086-50000018D0000298D0000800000CJTHM8Y   GGSL
NJARET21050-21964-92006-70000001D0000088D0001200000YCPW180M  GGSL
NJARET21050-22179-10084-80000180D0001619D0007900006LG7220    GGSL
NJARET21050-22179-10106-70000054D0001269D0006800000LG5512    GGSL
NJARET21050-22179-10120-30000048D0002004D0000800000LG6510    GGSL
NJARET21050-22179-10124-10000216D0001256D0009900014LG6515    GGSL
NJARET21050-22179-10157-90000042D0000917D0004500001LG6530    GGSL
NJARET21050-22179-10159-30000048D0000657D0000200000LG5185    GGSL
NJARET21050-22179-10163-00001752D0023942D0044400266LG6150    GGSL
NJARET21050-22179-10167-80000006D0000109D0000000000LG6127    GGSL
NJARET21050-22179-10185-20000108D0001256D0008400006LG6500    GGSL
NJARET21050-22179-10225-50000006D0000064D0000100000LG3120    GGSL
NJARET21050-22179-10243-90000012D0000204D0001300001LG6130    GGSL
NJARET21050-22179-10244-60000012D0000311D0000200000LG6135    GGSL
NJARET21050-22179-10246-00000006D0000103D0005000004LG6570    GGSL
NJARET21050-22179-10248-40000132D0001132D0001300002LG6575    GGSL
NJARET21050-22179-10257-60000012D0000200D0001800006LG3190    GGSL
NJARET21050-22179-10258-30000018D0000547D0000800000LG6580    GGSL
NJARET21050-22179-10259-00000018D0001026D0000700000LG6585    GGSL
NJARET21050-22179-10266-80000180D0003565D0002800013LG6145    GGSL
NJARET21050-22179-10326-90000018D0000537D0000700000LG5482    GGSL
NJARET21050-22179-10327-60000012D0000114D0001900019LG6148    GGSL
NJARET21050-22179-10389-40000012D0000106D0000300002LG7265    GGSL
NJARET21050-22179-10390-00000060D0000639D0000400000LG6332    GGSL
NJARET21050-22179-10391-70000012D0000208D0004400002LG6336    GGSL
NJARET21050-22179-10408-20000096D0000875D0000500005LG6338    GGSL
NJARET21050-22179-10417-40000004D0000367D0000100000LG6142    GGSL
NJARET21050-22179-10434-10000036D0000338D0000000000LG6133    GGSL
NJARET21050-22179-10444-00000006D0000070D0000000000LG3374    GGSL
NJARET21050-22179-10448-80000060D0000667D0000100001LG3174    GGSL
NJARET21050-22179-10454-90000006D0000092D0000000000LG3303    GGSL
NJARET21050-22179-10471-60000072D0000767D0000900009LG6128    GGSL
NJARET21050-22179-10474-70000012D0000104D0000000000LG6328    GGSL
NJARET21050-22179-10481-50000012D0000170D0000000000LG5592    GGSL
NJARET21050-22401-00301-50000020D0000215D0013500059THD20     GGSL
NJARET21050-22401-00350-30000004D0000062D0000100000EDG20GMC  GGSL
NJARET21050-22401-00440-10000001D0000025D0000100001PRO40     GGSL
NJARET21050-22401-10087-50000024D0000193D0008100033EAR20TMC  GGSL
NJARET21050-23865-09908-80000002D0000026D00005000009908X     GGSL
NJARET21050-23883-00009-70000024D0000500D0000400000G362D     GGSL
NJARET21050-23883-01105-50000024D0000078D00004000001105      GGSL
NJARET21050-23883-04701-60000003D0000077D00007000024701      GGSL
NJARET21050-23883-08301-40000002D0000382D00000000008301C     GGSL
NJARET21050-23883-08706-70000009D0000103D00008000008706A     GGSL
NJARET21050-23883-16100-20000094D0001182D001480004516100     GGSL
NJARET21050-23883-16200-90000061D0001116D001550002216200     GGSL
NJARET21050-23883-20002-20000004D0000079D001160000020002     GGSL
NJARET21050-23883-20003-90000011D0000295D000150000320003     GGSL
NJARET21050-23883-20010-70000016D0000268D000490000620010     GGSL
NJARET21050-23883-20020-60000011D0000250D001040000420020     GGSL
NJARET21050-23883-27062-90000001D0000027D000010000027062     GGSL
NJARET21050-23883-31410-10000002D0000087D000000000031410     GGSL
NJARET21050-23883-61800-10000006D0000497D000250000061800     GGSL
NJARET21050-23883-63800-90000001D0000092D000020000263800     GGSL
NJARET21050-23883-81000-90000003D0000400D000000000081000A    GGSL
NJARET21050-24114-20430-70000100D0000644D0000800003204309    GGSL
NJARET21050-24114-20450-50000025D0000161D0000400000204509    GGSL
NJARET21050-24114-22050-50000002D0000069D0001000009220500    GGSL
NJARET21050-24114-70102-80000900D0001370D0005500012701002    GGSL
NJARET21050-24114-70300-80001025D0002696D0002300007703002    GGSL
NJARET21050-24114-70609-20000275D0001208D0002300016706009    GGSL
NJARET21050-24114-70807-30000675D0002700D0000500006708073    GGSL
NJARET21050-24114-71609-10000050D0000308D0000000000716009    GGSL
NJARET21050-24114-71664-00000050D0000591D0000900002716642    GGSL
NJARET21050-24114-71673-20000300D0001974D0000900000716073    GGSL
NJARET21050-24114-74009-60000450D0002194D0001500009704009    GGSL
NJARET21050-24114-74209-00000100D0000644D0000800003704209    GGSL
NJARET21050-24114-74509-10000350D0002253D0000100001704509    GGSL
NJARET21050-24114-74712-50000175D0000577D0000100001742712    GGSL
NJARET21050-24114-74809-20000025D0000161D0000200000704809    GGSL
NJARET21050-24114-74929-70000050D0000322D0000300000704929    GGSL
NJARET21050-24114-78341-30000025D0000049D000000000083410     GGSL
NJARET21050-24654-05462-20000004D0000046D000000000054624     GGSL
NJARET21050-24654-05922-10000054D0000691D00018000025926      GGSL
NJARET21050-24654-05923-80000004D0000113D00000000005929      GGSL
NJARET21050-24654-05931-30000012D0000186D00000000005935      GGSL
NJARET21050-24654-05972-60000008D0000278D00006000005972      GGSL
NJARET21050-24654-09334-80000010D0000288D00001000019334      GGSL
NJARET21050-24654-30506-90000018D0000081D000000000030506     GGSL
NJARET21050-24654-51704-20000008D0000085D000020000151704     GGSL
NJARET21050-24654-51826-10000060D0000604D000000000051826     GGSL
NJARET21050-24654-51926-80000012D0000123D000050000051926     GGSL
NJARET21050-24654-55025-40000492D0001906D00008000085026      GGSL
NJARET21050-24654-72125-80000036D0000259D0000400003SB125     GGSL
NJARET21050-25033-01703-00000012D0000142D000240000501703     GGSL
NJARET21050-25033-01713-90000018D0000244D000150000501713     GGSL
NJARET21050-25033-01717-70000030D0000538D000110000301717     GGSL
NJARET21050-25033-01723-80000012D0000298D000120000101723     GGSL
NJARET21050-25033-02019-10000004D0000244D000150000102019     GGSL
NJARET21050-25033-02077-10000006D0000077D000040000002077     GGSL
NJARET21050-25033-02088-70000006D0000088D000050000002088     GGSL
NJARET21050-25033-02113-60000006D0000251D000000000002113     GGSL
NJARET21050-25033-02114-30000001D0000083D000010000002114     GGSL
NJARET21050-25033-02144-00000006D0000084D000020000002144     GGSL
NJARET21050-25033-02212-60000002D0000195D000050000002212     GGSL
NJARET21050-25033-02213-30000002D0000217D000000000002213     GGSL
NJARET21050-25033-02314-70000012D0000260D000030000002314     GGSL
NJARET21050-25033-02467-00000012D0000368D000120000002467     GGSL
NJARET21050-25033-02477-90000004D0000110D000230000002477     GGSL
NJARET21050-25033-02501-10000016D0000163D000190000102501     GGSL
NJARET21050-25033-02510-30000008D0000094D000370000002510     GGSL
NJARET21050-25033-02519-60000004D0000129D000470000102519     GGSL
NJARET21050-25033-02520-20000004D0000089D000200000002520     GGSL
NJARET21050-25033-02521-90000004D0000101D000150000002521     GGSL
NJARET21050-25033-02522-60000006D0000336D000800000702522     GGSL
NJARET21050-25033-02523-30000005D0000303D000380000302523     GGSL
NJARET21050-25033-02525-70000008D0000544D000770000302525     GGSL
NJARET21050-25033-02527-10000007D0000521D000490000302527     GGSL
NJARET21050-25033-02650-60000002D0000234D000090000002650     GGSL
NJARET21050-25033-02660-50000005D0000785D000600000002660     GGSL
NJARET21050-25033-02670-40000006D0001674D000070000002670     GGSL
NJARET21050-25033-02675-90000002D0000492D000050000002675     GGSL
NJARET21050-25033-02680-30000002D0000440D000050000002680     GGSL
NJARET21050-25033-02683-40000006D0001969D000050000002683     GGSL
NJARET21050-25033-02720-60000003D0000291D000630000002720     GGSL
NJARET21050-25033-02722-00000016D0001797D000230000002722     GGSL
NJARET21050-25033-02728-20000003D0000460D000150000002728     GGSL
NJARET21050-25033-02750-30000006D0001136D000070000002750     GGSL
NJARET21050-25033-02910-10000002D0000268D000040000002910     GGSL
NJARET21050-25033-02920-00000002D0000330D000600000002920     GGSL
NJARET21050-25033-03801-10000002D0000046D000300000103801     GGSL
NJARET21050-25033-12202-40000048D0000400D000160000412202     GGSL
NJARET21050-25033-12203-10000006D0000022D000210000212203     GGSL
NJARET21050-25033-12204-80000018D0000105D000310000112204     GGSL
NJARET21050-25033-12285-70000012D0000117D000060000012285     GGSL
NJARET21050-25033-12403-50000001D0000135D000020000012403     GGSL
NJARET21050-25033-12410-30000002D0000328D000020000012410     GGSL
NJARET21050-25033-12412-70000004D0000409D000010000012412     GGSL
NJARET21050-25033-12420-20000001D0000136D000010000012420     GGSL
NJARET21050-25033-12971-90000002D0000089D000120000412971     GGSL
NJARET21050-25033-12972-50000002D0000105D000140000212972     GGSL
NJARET21050-25033-12974-00000003D0000218D000110000012974     GGSL
NJARET21050-25033-20235-10000010D0002834D000020000020235     GGSL
NJARET21050-25531-01234-60000040D0001244D000010000175160     GGSL
NJARET21050-25545-00119-00000003D0000040D0000000000 00119    GGSL
NJARET21050-25545-84421-60000001D0000010D0000000000 84421    GGSL
NJARET21050-25849-00205-30000035D0000701D00000000000205RG    GGSL
NJARET21050-25849-00305-00000105D0002022D00000000000305RG    GGSL
NJARET21050-25849-10381-10000180D0005490D000050000510381RG   GGSL
NJARET21050-25849-10710-90000216D0002044D00000000001020010RG GGSL
NJARET21050-25849-10720-80000054D0000505D00002000021020020RG GGSL
NJARET21050-25849-10720-80000024D0000224D00000000001020020RGXGGSL
NJARET21050-25849-11051-20000012D0000073D00011000001016051NPCGGSL
NJARET21050-25849-11051-20000024D0000127D00021000001016051RGXGGSL
NJARET21050-25849-11110-60000600D0003655D00003000031010010RG GGSL
NJARET21050-25849-11110-60000216D0001449D00144001441010010RGXGGSL
NJARET21050-25849-11151-90000120D0000768D00000000001010051RG GGSL
NJARET21050-25849-11151-90000255D0001711D00075000001010051RGXGGSL
NJARET21050-25849-20381-80000150D0004710D000040000420381RG   GGSL
NJARET21050-25849-20381-80000012D0000377D000000000020381RGX  GGSL
NJARET21050-25881-08502-10000008D0000122D0001600000 085024   GGSL
NJARET21050-25881-09942-40000008D0000274D0001600000 09942    GGSL
NJARET21050-25881-09985-10000004D0000082D0000800000 09985    GGSL
NJARET21050-25881-10702-00000008D0000099D0001000010 107024   GGSL
NJARET21050-25881-10703-70000014D0000216D0001000000 107034   GGSL
NJARET21050-25881-11041-90000024D0000113D0001600000 11041    GGSL
NJARET21050-26600-89334-70000048D0000090D003340000689334     GGSL
NJARET21050-26978-02181-60000110D0000592D000100000002181     GGSL
NJARET21050-26978-02182-30000240D0001303D000000000202182     GGSL
NJARET21050-26978-02188-50000230D0000991D000340000202188     GGSL
NJARET21050-26978-02241-70000060D0000357D000050000302241     GGSL
NJARET21050-26978-02242-40000340D0001999D000050000502242     GGSL
NJARET21050-26978-02248-60000370D0001689D000560004102248     GGSL
NJARET21050-26978-02301-80000080D0000633D000000000002301     GGSL
NJARET21050-26978-02302-50000140D0001035D000360003602302     GGSL
NJARET21050-26978-02308-70000270D0001616D000380002102308     GGSL
NJARET21050-26978-02361-20000070D0000691D000010000102361     GGSL
NJARET21050-26978-02362-90000140D0001330D000360003402362     GGSL
NJARET21050-26978-02368-10000080D0000609D000290000602368     GGSL
NJARET21050-26978-03082-50000020D0000177D000210000203082     GGSL
NJARET21050-26978-03088-70000060D0000530D000080000303088     GGSL
NJARET21050-26978-03100-60000005D0000073D00000000000310005   GGSL
NJARET21050-26978-03102-00000020D0000294D00012000020310205   GGSL
NJARET21050-26978-03120-40000005D0000103D00004000040312005   GGSL
NJARET21050-26978-03122-80000015D0000308D00008000020312205   GGSL
NJARET21050-26978-03128-00000005D0000103D00003000030312805   GGSL
NJARET21050-26978-04513-30000025D0000177D000120000604513     GGSL
NJARET21050-26978-04523-20000025D0000288D000120000504523     GGSL
NJARET21050-26978-04533-10000020D0000304D000120000104533     GGSL
NJARET21050-26978-05041-00000036D0000065D000500001505041     GGSL
NJARET21050-26978-05081-60000036D0000046D000480000105081     GGSL
NJARET21050-26978-08060-80000040D0000190D000000000008060     GGSL
NJARET21050-26978-08061-50000020D0000095D000030000008061     GGSL
NJARET21050-26978-08062-20000030D0000143D000040000008062     GGSL
NJARET21050-26978-08080-60000010D0000088D000000000008080     GGSL
NJARET21050-26978-08098-10000020D0000149D000090000008098     GGSL
NJARET21050-26978-08178-00000005D0000073D000000000008178     GGSL
NJARET21050-26978-10010-80000012D0000048D000010000110010     GGSL
NJARET21050-26978-10012-20000024D0000097D000040000410012     GGSL
NJARET21050-26978-10013-90000012D0000048D000070000710013     GGSL
NJARET21050-26978-10020-70000015D0000109D000030000210020     GGSL
NJARET21050-26978-10062-70000150D0000437D000010000110062     GGSL
NJARET21050-26978-10068-90000130D0000358D000020000210068     GGSL
NJARET21050-26978-10082-50000020D0000080D000040000110082     GGSL
NJARET21050-26978-10088-70000050D0000193D000000000010088     GGSL
NJARET21050-26978-10102-00000075D0000428D000060000210102     GGSL
NJARET21050-26978-10108-20000020D0000118D000040000210108     GGSL
NJARET21050-26978-10122-80000100D0000713D000020000210122     GGSL
NJARET21050-26978-10128-00000040D0000297D000040000010128     GGSL
NJARET21050-26978-10142-60000025D0000272D000000000010142     GGSL
NJARET21050-26978-10148-50000040D0000435D000070000210148     GGSL
NJARET21050-26978-10180-80000030D0000107D000000000010180     GGSL
NJARET21050-26978-10182-20000030D0000107D000000000010182     GGSL
NJARET21050-26978-10183-90000060D0000196D000080000110183     GGSL
NJARET21050-26978-10185-30000030D0000107D000010000010185     GGSL
NJARET21050-26978-10242-30000130D0000507D000150000210242     GGSL
NJARET21050-26978-10243-00000070D0000275D000050000110243     GGSL
NJARET21050-26978-10245-40000010D0000039D000310000710245     GGSL
NJARET21050-26978-10248-50000110D0000392D000080000310248     GGSL
NJARET21050-26978-10300-00000040D0000193D000120000110300     GGSL
NJARET21050-26978-10302-40000040D0000198D000030000210302     GGSL
NJARET21050-26978-10303-10000050D0000248D000000000010303     GGSL
NJARET21050-26978-10305-50000020D0000099D000130000210305     GGSL
NJARET21050-26978-10360-40000020D0000124D000040000010360     GGSL
NJARET21050-26978-10362-80000020D0000124D000140000110362     GGSL
NJARET21050-26978-10365-90000030D0000186D000010000010365     GGSL
NJARET21050-26978-16190-10000160D0000769D000000000016190     GGSL
NJARET21050-26978-16193-20000080D0000390D000080000016193     GGSL
NJARET21050-26978-16198-70000010D0000044D000000000016198     GGSL
NJARET21050-26978-16240-30000410D0002358D000350000916240     GGSL
NJARET21050-26978-16242-70000710D0003928D000180001816242     GGSL
NJARET21050-26978-16243-40000180D0001042D000020000216243     GGSL
NJARET21050-26978-16245-80000170D0001000D000040000416245     GGSL
NJARET21050-26978-16248-90000220D0001215D000070000716248     GGSL
NJARET21050-26978-16300-40000060D0000456D000050000216300     GGSL
NJARET21050-26978-16302-80000100D0000760D000180000216302     GGSL
NJARET21050-26978-16303-50000060D0000456D000030000216303     GGSL
NJARET21050-26978-16305-90000030D0000205D000010000116305     GGSL
NJARET21050-26978-16308-00000030D0000220D000020000216308     GGSL
NJARET21050-26978-16360-80000200D0002276D000060000416360     GGSL
NJARET21050-26978-16362-20000040D0000455D000010000116362     GGSL
NJARET21050-26978-16363-90000040D0000455D000000000016363     GGSL
NJARET21050-26978-16365-30000140D0001544D000000000116365     GGSL
NJARET21050-26978-16368-40000040D0000455D000000000016368     GGSL
NJARET21050-26978-26140-30000020D0000201D000000000026140     GGSL
NJARET21050-26978-26142-70000210D0002065D000230000026142     GGSL
NJARET21050-26978-26143-40000080D0000802D000020000126143     GGSL
NJARET21050-26978-26145-80000150D0001443D000000000026145     GGSL
NJARET21050-26978-26148-90000070D0000671D000000000026148     GGSL
NJARET21050-26978-26180-90000030D0000482D000090000826180     GGSL
NJARET21050-26978-26182-30000030D0000482D000120001126182     GGSL
NJARET21050-26978-26183-00000010D0000161D000120001226183     GGSL
NJARET21050-26978-26185-40000050D0000770D000120001026185     GGSL
NJARET21050-26978-26188-50000050D0000803D000100001026188     GGSL
NJARET21050-26978-26240-00000008D0000088D000040000426240     GGSL
NJARET21050-26978-26242-40000048D0000536D000010000126242     GGSL
NJARET21050-26978-26243-10000008D0000088D000000000026243     GGSL
NJARET21050-26978-26248-60000064D0000723D000260002426248     GGSL
NJARET21050-26978-26270-70000130D0001539D000210001626270     GGSL
NJARET21050-26978-26272-10000440D0005179D000200001926272     GGSL
NJARET21050-26978-26273-80000140D0001627D000190001226273     GGSL
NJARET21050-26978-26275-20000240D0002860D000420003826275     GGSL
NJARET21050-26978-26278-30000030D0000346D000190001526278     GGSL
NJARET21050-26978-29005-20000005D0000096D000010000029005     GGSL
NJARET21050-26978-29505-70000010D0000122D000050000329505     GGSL
NJARET21050-26978-30104-80000318D0001622D000150001530104     GGSL
NJARET21050-26978-30301-10000552D0003211D000480004830301     GGSL
NJARET21050-26978-30312-70000108D0000121D000040000230312     GGSL
NJARET21050-26978-30402-50000036D0000205D000000000030402     GGSL
NJARET21050-26978-30409-40000120D0000737D000020000230409     GGSL
NJARET21050-26978-30411-70000036D0000243D000010000230411     GGSL
NJARET21050-26978-30413-10000192D0001097D000000000030413     GGSL
NJARET21050-26978-30500-80000800D0004074D000060000830500     GGSL
NJARET21050-26978-30602-90000078D0000343D000000000030602     GGSL
NJARET21050-26978-30605-00000048D0000206D000000000030605     GGSL
NJARET21050-26978-30702-60000096D0000408D000000000030702     GGSL
NJARET21050-26978-30705-70000054D0000233D000000000030705     GGSL
NJARET21050-26978-30806-10000366D0001578D000110001130806     GGSL
NJARET21050-26978-30809-20000402D0001757D000060000630809     GGSL
NJARET21050-26978-30901-30000090D0000464D000010000230901     GGSL
NJARET21050-26978-30909-90000430D0002138D000050000530909     GGSL
NJARET21050-26978-31100-90000070D0000460D000010000131100     GGSL
NJARET21050-26978-31108-50000005D0000034D000000000031108     GGSL
NJARET21050-26978-31120-70000040D0000544D000050000331120     GGSL
NJARET21050-26978-31122-10000005D0000062D000180001331122     GGSL
NJARET21050-26978-31128-30000045D0000629D000130000331128     GGSL
NJARET21050-26978-31129-00000025D0000349D000040000031129     GGSL
NJARET21050-26978-31168-90000020D0000538D000000000031168     GGSL
NJARET21050-26978-32101-50000025D0000215D000000000032100     GGSL
NJARET21050-26978-32102-20000045D0000354D000360002832102     GGSL
NJARET21050-26978-32108-40000005D0000043D000030000032108     GGSL
NJARET21050-26978-32128-20000035D0000533D000000000032128     GGSL
NJARET21050-26978-34061-00000020D0000095D000000000034061     GGSL
NJARET21050-26978-34068-90000080D0000357D000020000034068     GGSL
NJARET21050-26978-34081-80000050D0000412D000010000134081     GGSL
NJARET21050-26978-34083-20000020D0000168D000010000134083     GGSL
NJARET21050-26978-34101-30000035D0000482D000010000034101     GGSL
NJARET21050-26978-34103-70000045D0000596D000010000134103     GGSL
NJARET21050-26978-34108-20000030D0000390D000150000534108     GGSL
NJARET21050-26978-34121-10000020D0000390D000090000334121     GGSL
NJARET21050-26978-34123-50000035D0000683D000100000334123     GGSL
NJARET21050-26978-34128-00000025D0000488D000030000334128     GGSL
NJARET21050-26978-34141-10000003D0000086D000170000934141     GGSL
NJARET21050-26978-34143-50000024D0000687D000010000034143     GGSL
NJARET21050-26978-34148-00000009D0000257D000010000134148     GGSL
NJARET21050-26978-35050-30000010D0000059D000000000035050     GGSL
NJARET21050-26978-35059-60000010D0000059D000060000435059     GGSL
NJARET21050-26978-35060-20000020D0000095D000270001135060     GGSL
NJARET21050-26978-35062-60000070D0000333D000000000035062     GGSL
NJARET21050-26978-35068-80000100D0000470D000030000335068     GGSL
NJARET21050-26978-35069-50000020D0000095D000000000035069     GGSL
NJARET21050-26978-35080-00000110D0000971D000170000335080     GGSL
NJARET21050-26978-35081-70000030D0000265D000030000035081     GGSL
NJARET21050-26978-35082-40000080D0000706D000000000035082     GGSL
NJARET21050-26978-35086-20000050D0000442D000000000035086     GGSL
NJARET21050-26978-35088-60000140D0001227D000010000035088     GGSL
NJARET21050-26978-35089-30000020D0000167D000030000035089     GGSL
NJARET21050-26978-35102-90000010D0000171D000000000035102     GGSL
NJARET21050-26978-35106-70000015D0000256D000040000035106     GGSL
NJARET21050-26978-35108-10000110D0001799D000030000335108     GGSL
NJARET21050-26978-35109-80000010D0000162D000240000135109     GGSL
NJARET21050-26978-35120-30000030D0000703D000010000135120     GGSL
NJARET21050-26978-35126-50000020D0000486D000070000035126     GGSL
NJARET21050-26978-35128-90000015D0000365D000010000135128     GGSL
NJARET21050-26978-35129-60000005D0000122D000180000035129     GGSL
NJARET21050-26978-35132-60000025D0000475D000000000035132     GGSL
NJARET21050-26978-35138-80000015D0000276D000000000035138     GGSL
NJARET21050-26978-35139-50000015D0000276D000030000035139     GGSL
NJARET21050-26978-35148-70000030D0001057D000010000135148     GGSL
NJARET21050-26978-35149-40000005D0000112D000140000235149     GGSL
NJARET21050-26978-35168-50000020D0000904D000000000035168     GGSL
NJARET21050-26978-35169-20000020D0000929D000140000135169     GGSL
NJARET21050-26978-35187-60000002D0000147D000010000035187     GGSL
NJARET21050-26978-35188-30000008D0000729D000280000735188     GGSL
NJARET21050-26978-35189-00000002D0000182D000190000135189     GGSL
NJARET21050-26978-35192-00000004D0000152D000000000035192     GGSL
NJARET21050-26978-35198-20000008D0000305D000000000035198     GGSL
NJARET21050-26978-35199-90000010D0000381D000000000035199     GGSL
NJARET21050-26978-35230-90000014D0000833D000020000035230     GGSL
NJARET21050-26978-35279-80000014D0001271D000120000835279     GGSL
NJARET21050-26978-35358-00000002D0000381D00000000003535801   GGSL
NJARET21050-26978-36100-40000015D0000190D000120000136100     GGSL
NJARET21050-26978-36108-00000020D0000253D000000000036108     GGSL
NJARET21050-26978-36120-20000015D0000264D000090000136120     GGSL
NJARET21050-26978-36128-80000015D0000264D000050000136128     GGSL
NJARET21050-26978-36148-60000020D0000300D000000000036148     GGSL
NJARET21050-26978-36220-90000025D0000657D000050000136220     GGSL
NJARET21050-26978-36228-50000025D0000657D000010000036228     GGSL
NJARET21050-26978-36298-80000020D0000736D000100000336298     GGSL
NJARET21050-26978-37248-20000002D0000115D000000000037248     GGSL
NJARET21050-26978-38142-20000036D0000197D000220001038142     GGSL
NJARET21050-26978-38146-00000348D0001776D000290001138146     GGSL
NJARET21050-26978-38148-40000408D0002267D000290000638148     GGSL
NJARET21050-26978-38192-70000126D0001533D000110000538192     GGSL
NJARET21050-26978-38198-90000156D0001994D000060000638198     GGSL
NJARET21050-26978-39122-30000036D0000148D000030000039122     GGSL
NJARET21050-26978-39126-10000024D0000100D000200001239126     GGSL
NJARET21050-26978-39128-50000120D0000523D000010000139128     GGSL
NJARET21050-26978-39182-70000264D0002746D000240002339182     GGSL
NJARET21050-26978-39186-50000204D0002108D000170000839186     GGSL
NJARET21050-26978-39188-90000312D0003285D000500002739188     GGSL
NJARET21050-26978-48098-30000090D0000385D000390000348098     GGSL
NJARET21050-26978-48128-00000096D0000576D000270001648128     GGSL
NJARET21050-26978-48158-00000102D0000790D000490001448158     GGSL
NJARET21050-26978-63060-50000010D0000044D000030000063060     GGSL
NJARET21050-26978-63065-00000010D0000044D000000000063065     GGSL
NJARET21050-26978-63066-70000020D0000087D000040000063066     GGSL
NJARET21050-26978-63069-80000010D0000044D000000000063069     GGSL
NJARET21050-26978-63076-60000010D0000071D000110000063076     GGSL
NJARET21050-26978-63079-70000010D0000071D000080000163079     GGSL
NJARET21050-26978-80100-50000012D0000591D000050000180100     GGSL
NJARET21050-26978-80101-20000036D0001473D000000000080101     GGSL
NJARET21050-26978-80101-60000012D0000509D00000000008010112   GGSL
NJARET21050-26978-80103-60000004D0000147D000000000080103     GGSL
NJARET21050-26978-80105-00000036D0001473D000010000180105     GGSL
NJARET21050-26978-80105-00000008D0000307D00004000048010504   GGSL
NJARET21050-26978-80107-40000108D0004238D00009000008010712   GGSL
NJARET21050-26978-80151-70000048D0002038D000020000280151     GGSL
NJARET21050-26978-80151-70000012D0000526D00003000038015104   GGSL
NJARET21050-26978-80155-50000032D0001358D000080000880155     GGSL
NJARET21050-26978-80658-10000012D0000228D000040000480658     GGSL
NJARET21050-26978-81011-30000012D0000342D000220000181011     GGSL
NJARET21050-26978-81015-10000016D0000456D000240000181015     GGSL
NJARET21050-26978-81100-40000264D0002233D000050000581100     GGSL
NJARET21050-26978-81101-10000216D0002123D000030000381101     GGSL
NJARET21050-26978-81112-70000024D0000223D000060000281112     GGSL
NJARET21050-26978-81121-90000024D0000098D000070000081121     GGSL
NJARET21050-26978-81751-80000016D0000530D000170000081751     GGSL
NJARET21050-26978-81755-60000008D0000265D000210000081755     GGSL
NJARET21050-27856-10001-20006768D0020101D0061400065P10232    GGSL
NJARET21050-27856-10002-90010554D0055514D0130000152P10264    GGSL
NJARET21050-27856-10008-10003544D0048198D0086500029P101      GGSL
NJARET21050-27856-10009-80002604D0023827D0044500202P128      GGSL
NJARET21050-27997-00229-90000036D0000910D0001900009TE        GGSL
NJARET21050-27997-01017-10000003D0000511D0002200005M6T22     GGSL
NJARET21050-28009-11440-50000195D0001383D0000200002T1440     GGSL
NJARET21050-28009-11440-50000065D0000424D0006500065T1440X    GGSL
NJARET21050-28009-11731-40000017D0000134D0000000000T1925X    GGSL
NJARET21050-29973-12316-50000070D0000411D000040000414116021P GGSL
NJARET21050-29973-12333-20000032D0000113D000920009114110028P GGSL
NJARET21050-30541-00066-50000216D0000544D0001400003JCDTP03   GGSL
NJARET21050-30541-00801-20000001D0000051D0002000000 JCD08BKSMGGSL
NJARET21050-30541-00801-20000013D0000660D0002300003JCD08BKSM GGSL
NJARET21050-30541-01020-60000504D0001144D0006500010JCD024SM  GGSL
NJARET21050-30541-01030-50000138D0001143D0007700016JCD100SMJ GGSL
NJARET21050-30541-01034-30000036D0000755D0005300006JCD030SM  GGSL
NJARET21050-30541-01039-80000180D0000941D0006500022JCD05SM   GGSL
NJARET21050-30541-01210-10000024D0000046D0000000000JCD024SMS GGSL
NJARET21050-30541-07002-60000001D0000150D0000100000JCDSTKT2  GGSL
NJARET21050-30541-08879-30000132D0000424D0001100008SMVS      GGSL
NJARET21050-31247-74395-20000010D0000100D000320000043959430X GGSL
NJARET21050-31340-10005-10000096D0001759D0001500015B550120   GGSL
NJARET21050-31340-10006-80000420D0004693D0011000032B550125   GGSL
NJARET21050-31340-10007-50000018D0000585D0000700001B550130   GGSL
NJARET21050-31340-10017-40000032D0000586D0001700012B550190   GGSL
NJARET21050-31340-10020-40000024D0000604D0000800000B550205   GGSL
NJARET21050-31365-10600-70000031D0000525D0006700020 42808    GGSL
NJARET21050-31417-00049-90000083D0000520D000000000080110021X GGSL
NJARET21050-31417-00055-00000001D0000026D000140000080601131X GGSL
NJARET21050-31417-00056-70000019D0000428D000520000080611131X GGSL
NJARET21050-31417-00057-40000030D0000579D000040000080621131X GGSL
NJARET21050-31724-76125-00000010D0000220D0000000000761250    GGSL
NJARET21050-31724-81001-90000015D0000947D00004000038100100   GGSL
NJARET21050-31724-81005-70000028D0001026D0000800004810050    GGSL
NJARET21050-31724-84000-90000003D0000071D00033000008400100   GGSL
NJARET21050-31724-84005-40000180D0002175D0004400002840050    GGSL
NJARET21050-31724-84007-80000012D0000229D0002000001840075    GGSL
NJARET21050-31724-85090-90000051D0001858D00014000078509100   GGSL
NJARET21050-31724-85095-40000050D0000920D0001200012850950    GGSL
NJARET21050-31724-85097-80000039D0001057D0002500012850975    GGSL
NJARET21050-31724-85350-40000006D0000186D00001000018535100   GGSL
NJARET21050-31724-85355-90000005D0000083D0003900007853550    GGSL
NJARET21050-31724-86171-40000006D0000272D00002000028617130   GGSL
NJARET21050-31724-86175-20000055D0001445D0000000000861750    GGSL
NJARET21050-31724-86177-60000021D0000998D00001000018617100   GGSL
NJARET21050-31724-86177-60000048D0001761D0001100001861775    GGSL
NJARET21050-31724-86505-70000010D0000365D0000000000865050    GGSL
NJARET21050-31724-88455-30000035D0001085D0000400004884550    GGSL
NJARET21050-32247-00900-30000090D0000320D00110000321009001   GGSL
NJARET21050-32247-00910-20000186D0000655D00083000061009101   GGSL
NJARET21050-32247-00950-80000228D0000768D00099000231009501   GGSL
NJARET21050-32247-02515-70000034D0001462D00368000002515      GGSL
NJARET21050-32247-05514-70001200D0006180D000280000970551430  GGSL
NJARET21050-32247-05514-70000083D0000403D001180000170551430X GGSL
NJARET21050-32247-10500-20000024D0000238D0004100001110500    GGSL
NJARET21050-32247-14900-60000056D0000453D000950000114900     GGSL
NJARET21050-32247-14901-30000020D0000313D001200000014901     GGSL
NJARET21050-32247-14902-00000124D0001942D000540000614902     GGSL
NJARET21050-32247-14905-10000744D0005883D000820000714905     GGSL
NJARET21050-32247-17183-00000348D0003474D000310002417183     GGSL
NJARET21050-32247-17185-40000112D0002561D001010001717185     GGSL
NJARET21050-32247-17187-80000047D0002557D000800000317187     GGSL
NJARET21050-32247-17290-50000060D0000660D000680000017290     GGSL
NJARET21050-32247-17293-60000030D0000321D000420000117293     GGSL
NJARET21050-32247-17295-00000012D0000303D000200000117295     GGSL
NJARET21050-32247-17323-00000036D0000360D000450000117323     GGSL
NJARET21050-32247-17325-40000032D0000675D000100000117325     GGSL
NJARET21050-32247-17327-80000008D0000354D000370000017327     GGSL
NJARET21050-32247-17378-00000001D0000042D001550000017378     GGSL
NJARET21050-32247-17504-30000035D0001701D000580000617504     GGSL
NJARET21050-32247-17508-10000504D0006841D001610002217508     GGSL
NJARET21050-32247-17511-10000054D0000786D000510000117511     GGSL
NJARET21050-32247-17530-20000174D0001667D000110000417530     GGSL
NJARET21050-32247-17540-10000232D0006406D002060000117540     GGSL
NJARET21050-32247-18213-30000136D0003933D000560000718213     GGSL
NJARET21050-32247-18216-40000004D0000256D000120000218216     GGSL
NJARET21050-32247-18221-80000104D0002547D001080000018221     GGSL
NJARET21050-32247-18225-60000276D0003354D001290000318225     GGSL
NJARET21050-32247-18249-20000011D0000672D000460000018249     GGSL
NJARET21050-32247-18251-50000016D0000486D000220000018251     GGSL
NJARET21050-32247-18260-70000048D0000495D000350000018260     GGSL
NJARET21050-32247-18266-90000084D0001028D000450000018266     GGSL
NJARET21050-32247-18269-00000020D0000624D000360000018269     GGSL
NJARET21050-32247-18272-00000054D0000293D000350000018272     GGSL
NJARET21050-32247-18277-50000008D0000205D000370000118277     GGSL
NJARET21050-32247-18287-40000006D0000081D000450000018287     GGSL
NJARET21050-32247-18290-40000001D0000036D000140000018290     GGSL
NJARET21050-32247-18320-80000024D0000227D000250000018320     GGSL
NJARET21050-32247-18334-50000004D0000432D000060000018334     GGSL
NJARET21050-32247-18336-90000012D0000262D000020000018336     GGSL
NJARET21050-32247-18345-10000096D0001267D000390000218345     GGSL
NJARET21050-32247-18346-80000028D0000588D000410000018346     GGSL
NJARET21050-32247-18348-20000078D0001092D000440000118348     GGSL
NJARET21050-32247-18354-30000036D0000439D000250000118354     GGSL
NJARET21050-32247-18362-80000006D0000240D000090000018362     GGSL
NJARET21050-32247-20785-00000060D0000234D000000000072078430  GGSL
NJARET21050-32247-21605-00000155D0003163D003140001521605     GGSL
NJARET21050-32247-21701-90000216D0001840D001000000521701     GGSL
NJARET21050-32247-21814-60000043D0002062D004110000021814     GGSL
NJARET21050-32247-22305-80000047D0000877D004510000622305     GGSL
NJARET21050-32247-22311-90000049D0000412D000000000022311     GGSL
NJARET21050-32247-22315-70000008D0000370D002670001022315     GGSL
NJARET21050-32247-23001-80000082D0002629D001710000023001     GGSL
NJARET21050-32247-23002-50000036D0000492D000800000023002     GGSL
NJARET21050-32247-23003-20000004D0000098D002360000023003A    GGSL
NJARET21050-32247-23616-40000118D0002876D003090003023616     GGSL
NJARET21050-32247-23622-50000047D0000816D007910000023622     GGSL
NJARET21050-32247-25006-10000093D0002190D002250002525006A    GGSL
NJARET21050-32247-25009-20000033D0002092D001550001025009     GGSL
NJARET21050-32247-26002-20000017D0001126D001540000026002A    GGSL
NJARET21050-32247-26003-90000093D0002445D001460000026003D    GGSL
NJARET21050-32247-26784-70000108D0000432D000810000172678430  GGSL
NJARET21050-32247-27764-80000040D0000200D000200001172776430  GGSL
NJARET21050-32247-30156-50000068D0001190D001480001230156     GGSL
NJARET21050-32247-31115-80000001D0000074D002400000231115     GGSL
NJARET21050-32247-33002-20000024D0000371D00027000033300210   GGSL
NJARET21050-32247-33040-40000053D0000926D006220001133040     GGSL
NJARET21050-32247-33050-30000017D0000736D005600000033050     GGSL
NJARET21050-32247-33160-90000028D0002048D001840000033160     GGSL
NJARET21050-32247-34161-50000076D0004560D003200001234161     GGSL
NJARET21050-32247-36905-30000068D0002606D002220001036905     GGSL
NJARET21050-32247-37594-80000025D0000207D000750000073759430X GGSL
NJARET21050-32247-37610-50000092D0001311D000740000637610C    GGSL
NJARET21050-32247-39181-80000020D0000582D004620000039181     GGSL
NJARET21050-32247-42784-50000150D0000600D000470003274278430  GGSL
NJARET21050-32247-43750-90000004D0000086D00019000004375010   GGSL
NJARET21050-32247-43850-60000040D0001021D00042000084385010   GGSL
NJARET21050-32247-43851-30000006D0000088D00121000004385106   GGSL
NJARET21050-32247-43860-50000016D0000347D00055000064386004   GGSL
NJARET21050-32247-44615-00000006D0000146D000430000044615A    GGSL
NJARET21050-32247-45651-70000120D0001309D000020000045651300  GGSL
NJARET21050-32247-47783-30000198D0000792D000330000274778300  GGSL
NJARET21050-32247-49013-90000005D0000130D001830000049013     GGSL
NJARET21050-32247-49019-10000182D0002170D001270000149019     GGSL
NJARET21050-32247-49024-50000043D0000639D000120001049024     GGSL
NJARET21050-32247-49785-50000030D0000144D000330001074978500  GGSL
NJARET21050-32247-49801-20000051D0000708D001660000049801C    GGSL
NJARET21050-32247-50087-60000006D0000130D00037000005008710   GGSL
NJARET21050-32247-50088-30000018D0000389D00015000005008810   GGSL
NJARET21050-32247-50154-50000100D0000845D000080000045015430  GGSL
NJARET21050-32247-50250-40000005D0000126D004510000050250     GGSL
NJARET21050-32247-50524-60000234D0001984D000040000475052430  GGSL
NJARET21050-32247-50524-60000107D0000907D000390000075052430X GGSL
NJARET21050-32247-51062-20000018D0000139D000310000051062     GGSL
NJARET21050-32247-51070-70000016D0000158D000170000051070     GGSL
NJARET21050-32247-51080-60000036D0000206D000050000051080     GGSL
NJARET21050-32247-51105-60000067D0000927D004480000551105     GGSL
NJARET21050-32247-51115-50000072D0002797D001760000051115     GGSL
NJARET21050-32247-52784-20000198D0000742D000630000585278430  GGSL
NJARET21050-32247-53105-40000069D0000783D002860000453105     GGSL
NJARET21050-32247-53115-30000071D0001728D002040000053115     GGSL
NJARET21050-32247-54105-30000030D0000191D00005000015410510   GGSL
NJARET21050-32247-54204-30000024D0000255D00014000015420406   GGSL
NJARET21050-32247-55513-50001365D0013620D000690001675551300  GGSL
NJARET21050-32247-55513-50000098D0000985D001640000075551300X GGSL
NJARET21050-32247-55523-40001080D0016547D000460002375552300  GGSL
NJARET21050-32247-55523-40000050D0000787D001320001675552300X GGSL
NJARET21050-32247-55783-20000378D0001754D000420004275578300  GGSL
NJARET21050-32247-55863-10000182D0001525D000060000075586300  GGSL
NJARET21050-32247-55863-10000141D0001033D002460000075586300X GGSL
NJARET21050-32247-56063-40000064D0000315D000610000245606300  GGSL
NJARET21050-32247-56163-10000182D0001538D000030000045616300  GGSL
NJARET21050-32247-56163-10000015D0000099D000900000045616300X GGSL
NJARET21050-32247-56211-90000060D0000800D00039000015621106   GGSL
NJARET21050-32247-56513-40006045D0054054D000350003275651300  GGSL
NJARET21050-32247-56513-40000110D0000950D004680028275651300X GGSL
NJARET21050-32247-56517- 0000004D0000044D000870006045651300X GGSL
NJARET21050-32247-56523-30005328D0057044D000300003075652300  GGSL
NJARET21050-32247-56523-30000045D0000612D002020020275652300X GGSL
NJARET21050-32247-56783-10003276D0014428D011050018175678300  GGSL
NJARET21050-32247-56783-10003000D0014086D000050000575678309  GGSL
NJARET21050-32247-56863-00001001D0007548D000090000675686300  GGSL
NJARET21050-32247-56863-00000153D0001059D003020007875686300X GGSL
NJARET21050-32247-57905-60000005D0000062D002160000457905     GGSL
NJARET21050-32247-71060-20000078D0001033D000010000171060     GGSL
NJARET21050-32247-71131-90000052D0000954D000130000171131     GGSL
NJARET21050-32247-74150-70001848D0010131D0000400004274150    GGSL
NJARET21050-32247-74250-40000444D0003674D0001000004274250    GGSL
NJARET21050-32247-74850-60000724D0013771D0001800008274850    GGSL
NJARET21050-32247-76121-50000009D0000283D000010000176121     GGSL
NJARET21050-32247-76232-80000045D0002662D000070000276232     GGSL
NJARET21050-32247-76565-70000006D0000292D000010000076565     GGSL
NJARET21050-32247-77160-30001848D0009258D0007500057277160    GGSL
NJARET21050-32247-77260-00001668D0014628D0007800057277260    GGSL
NJARET21050-32247-77860-20000240D0003897D0020300023277860    GGSL
NJARET21050-32247-77960-90000556D0011680D0008200082277960    GGSL
NJARET21050-32247-85024-70000540D0000998D000000000088502440  GGSL
NJARET21050-32247-86024-60000540D0001231D000000000088602440  GGSL
NJARET21050-32247-90550-30000029D0002858D0005500016 671025   GGSL
NJARET21050-32247-95517-10000840D0004292D000180000279551750  GGSL
NJARET21050-32247-95517-10000048D0000238D000920000079551750X GGSL
NJARET21050-32247-99605-10000145D0003201D003270002699605     GGSL
NJARET21050-32247-99610-50000039D0001792D001850000099610     GGSL
NJARET21050-32903-00169-30000336D0000417D0000200002SLI06000E3GGSL
NJARET21050-32903-00171-60000192D0000230D0000500005SLI06000A3GGSL
NJARET21050-32903-00191-40000024D0000113D0000000000GAB12000E2GGSL
NJARET21050-32903-00192-10000360D0000458D0000500005SLI06000B9GGSL
NJARET21050-32903-00214-00000216D0000261D0000900002SLI06000E2GGSL
NJARET21050-32903-00222-50000408D0000631D0000900004SLI08000B9GGSL
NJARET21050-32903-00224-90000078D0000519D0000100001VNP18000E2GGSL
NJARET21050-32903-00227-00000024D0000107D0001000000SVN18000E2GGSL
NJARET21050-32903-00236-20000012D0000060D0002100000SVN24000E2GGSL
NJARET21050-32903-00240-90000264D0000400D0001300002SLI08000E2GGSL
NJARET21050-32903-00246-10000192D0000293D0002600003SLI08000A3GGSL
NJARET21050-32903-00257-70000001D0000044D0000000000RZGH210G2 GGSL
NJARET21050-32903-00258-40000432D0000700D0001800007LIA06000E2GGSL
NJARET21050-32903-00264-50000456D0001099D0000400003LIA08000E2GGSL
NJARET21050-32903-00281-20000108D0000422D0004200014LIA10000E2GGSL
NJARET21050-32903-00283-60000060D0000395D0000300001GAB14000E2GGSL
NJARET21050-32903-00287-40000144D0001140D0000000000VNP24000E2GGSL
NJARET21050-32903-00290-40000066D0000655D0001300003VNP30000E2GGSL
NJARET21050-32903-00293-50000228D0000467D0009300007SLI10000E2GGSL
NJARET21050-32903-00301-70000015D0000234D0000700000ROP28000A3GGSL
NJARET21050-32903-00309-30000624D0001305D0001100011SLI10000E3GGSL
NJARET21050-32903-00326-00000204D0001267D0003700010LIA12000E2GGSL
NJARET21050-32903-00332-10000132D0000306D0000000001SLI10000B9GGSL
NJARET21050-32903-00338-30000252D0000532D0001800004SLI10000A3GGSL
NJARET21050-32903-00341-30000024D0000214D0000400001SLI24000E3GGSL
NJARET21050-32903-00359-80000936D0001492D0002100016SLI08000E3GGSL
NJARET21050-32903-04255-90000168D0001412D0001600009LIA14000E2GGSL
NJARET21050-32903-04257-30000156D0000554D0000700005SLI12000E2GGSL
NJARET21050-32903-07519-90000132D0001496D0000600003LIA16000E2GGSL
NJARET21050-32903-07530-40000060D0000220D0001200005SLI14000E2GGSL
NJARET21050-32903-07534-20000048D0000882D0000700004LIA20000E2GGSL
NJARET21050-32903-07558-80000006D0000021D0000100001RZWC1Q0B9 GGSL
NJARET21050-32903-07563-20000012D0000056D0000600000SLI17000E2GGSL
NJARET21050-32903-07577-90000036D0000883D0000800001LIA24000E2GGSL
NJARET21050-32903-12006-60000888D0001559D0000100001LIA06000E3GGSL
NJARET21050-32903-12008-00000336D0000958D0000200001LIA08000E3GGSL
NJARET21050-32903-12010-30000876D0003674D0000500005LIA10000E3GGSL
NJARET21050-32903-12012-70000552D0003423D0000800004LIA12000E3GGSL
NJARET21050-32903-12014-10000192D0001664D0000700008LIA14000E3GGSL
NJARET21050-32903-12020-20000012D0000206D0000000001LIA20000E3GGSL
NJARET21050-32903-12024-00000084D0002060D0000100001LIA24000E3GGSL
NJARET21050-32903-12312-80000168D0000936D0000300003CNA12000E3GGSL
NJARET21050-32903-12318-00000030D0000134D0001300000SVN18000E3GGSL
NJARET21050-32903-12324-10000018D0000087D0001100000SVN24000E3GGSL
NJARET21050-32903-12330-20000012D0000069D0001600000SVN30000E3GGSL
NJARET21050-32903-12712-60000228D0001069D0001800015GAB12000E3GGSL
NJARET21050-32903-12714-00000216D0001395D0001800003GAB14000E3GGSL
NJARET21050-32903-12718-80000090D0000887D0000800004GAB18000E3GGSL
NJARET21050-32903-12722-50000024D0000384D0001100000GAB22000E3GGSL
NJARET21050-32903-12818-50000018D0000133D0000100001VNP18000E3GGSL
NJARET21050-32903-12824-60000060D0000502D0000100000VNP24000E3GGSL
NJARET21050-32903-12830-70000084D0000850D0000000000VNP30000E3GGSL
NJARET21050-32903-23732-00000018D0000125D0001000000SLI20000E2GGSL
NJARET21050-32903-30392-60000408D0000948D0000000000CNA08000E3GGSL
NJARET21050-32903-35947-30000180D0000634D0000100001CNA10000E3GGSL
NJARET21050-32903-40400-50000240D0000965D0000900002LIA10000A3GGSL
NJARET21050-32903-40493-70000696D0001700D0000600006LIA08000B9GGSL
NJARET21050-32903-40770-90000132D0000918D0000300003VNP18000A3GGSL
NJARET21050-32903-41640-40000432D0001100D0000500001LIA08000A3GGSL
NJARET21050-32903-41717-30000276D0002100D0000000002LIA14000B9GGSL
NJARET21050-32903-41728-90000288D0001848D0000000000LIA12000B9GGSL
NJARET21050-32903-41842-20000036D0000274D0000000000VNP30000A3GGSL
NJARET21050-32903-41909-20000108D0001470D0000000000LIA16000A3GGSL
NJARET21050-32903-42050-00000012D0000294D0000200000LIA24000A3GGSL
NJARET21050-32903-42240-50000792D0001323D0000300003LIA06000B9GGSL
NJARET21050-32903-42728-80000018D0000089D0001400001SVN24000A3GGSL
NJARET21050-32903-43116-20000024D0000107D0001800001SVN18000A3GGSL
NJARET21050-32903-45170-20000036D0000319D0000500001LIA14000A3GGSL
NJARET21050-32903-45342-30000084D0000622D0000000000VNP24000A3GGSL
NJARET21050-32903-45788-90000018D0000432D0001600001LIA24000B9GGSL
NJARET21050-32903-46337-80000048D0000658D0000100001LIA16000B9GGSL
NJARET21050-32903-46966-00000042D0000772D0000300003LIA20000A3GGSL
NJARET21050-32903-47208-00000252D0001545D0001400011LIA12000A3GGSL
NJARET21050-32903-48101-30000120D0000227D0000700001LIA06000A3GGSL
NJARET21050-32903-48538-70000078D0001418D0002000002LIA20000B9GGSL
NJARET21050-32903-50286-20000156D0000582D0000800004HSI10008E2GGSL
NJARET21050-32903-50763-80000768D0002820D0001000011SLI12000E3GGSL
NJARET21050-32903-50764-50000264D0001063D0003500003SLI14000B9GGSL
NJARET21050-32903-50766-90000004D0000152D0000000000TEA24000G2GGSL
NJARET21050-32903-50767-60000060D0000221D0000300000SLI12000A3GGSL
NJARET21050-32903-50794-20000132D0000520D0000100001SLI12000B9GGSL
NJARET21050-32903-50802-40000168D0000704D0000000000SLI14000E3GGSL
NJARET21050-32903-50803-10000096D0000401D0000000000SLI14000A3GGSL
NJARET21050-32903-52340-90000012D0000055D0000600001SVN24000B9GGSL
NJARET21050-32903-52858-90000006D0000030D0000000000VNP18000B9GGSL
NJARET21050-32903-53271-50000600D0004997D0002100002SLI24000E2GGSL
NJARET21050-32903-56391-70000372D0001366D0001500015HSI10008A1GGSL
NJARET21050-32903-58838-50000030D0000124D0000500001SVN18000B9GGSL
NJARET21050-32903-61636-10000276D0001026D0000800005HSI10008B6GGSL
NJARET21050-32903-63553-90000004D0000163D0000100000TEA24000E3GGSL
NJARET21050-32903-66002-90000025D0000390D0000000000ROP28000E3GGSL
NJARET21050-32903-71041-00000012D0000075D0000100001RZWC1G0E3 GGSL
NJARET21050-32903-72233-80000240D0000988D0000000001LIA10000B9GGSL
NJARET21050-32903-72518-60000080D0000760D0000100001RZWC2G0B9 GGSL
NJARET21050-32903-75049-20000072D0000511D0001500007SLI20000E3GGSL
NJARET21050-32903-75051-50000060D0000277D0000500000SLI17000A3GGSL
NJARET21050-32903-75057-70000096D0000448D0000800005SLI17000B9GGSL
NJARET21050-32903-75070-60000006D0000039D0001000003SLI20000A3GGSL
NJARET21050-32903-75080-50000228D0001029D0000900006SLI17000E3GGSL
NJARET21050-32903-75081-20000024D0000172D0000500000SLI20000B9GGSL
NJARET21050-32903-75089-80000036D0000320D0001400001SLI24000B9GGSL
NJARET21050-32903-91270-80000001D0000044D0000000000RZGH210E3 GGSL
NJARET21050-32903-91300-20000006D0000047D0000400004VNP2400G18GGSL
NJARET21050-32903-91485-60000010D0000135D0000000000SPX24DBA34GGSL
NJARET21050-32903-91575-40000012D0000124D0000000000PZA1200Y35GGSL
NJARET21050-33200-00020-40003960D0002762D00789005333320000020GGSL
NJARET21050-33200-00544-50001238D0012405D116090790500544     GGSL
NJARET21050-33200-01191-00000020D0000149D003000015501191     GGSL
NJARET21050-33200-06527-20000160D0002878D02708004266527      GGSL
NJARET21050-33200-09020-50000168D0001174D001780004909020     GGSL
NJARET21050-33200-09142-40000024D0000168D002970025009142     GGSL
NJARET21050-33200-09293-30000116D0000811D01230004839293      GGSL
NJARET21050-33200-09793-80000002D0000019D00053000009793      GGSL
NJARET21050-33200-11321-80000072D0000094D002280011011321     GGSL
NJARET21050-33200-94182-80000288D0002886D082680577594182     GGSL
NJARET21050-33200-97242-60000024D0000190D002010000497242     GGSL
NJARET21050-33200-97457-40000820D0008536D046460216097457     GGSL
NJARET21050-33349-05048-10000024D0000098D0000400000J3R36     GGSL
NJARET21050-33349-05082-50000080D0000247D0002500000JP506     GGSL
NJARET21050-33349-05618-60000728D0003554D0001500010G310      GGSL
NJARET21050-33349-41211-10000176D0000193D0000000000JP212     GGSL
NJARET21050-33349-41221-00000050D0000101D0000400000TDOME     GGSL
NJARET21050-33349-41251-70000030D0000091D0000500000JS50      GGSL
NJARET21050-33349-41254-80000020D0000060D0000100000JS32      GGSL
NJARET21050-33349-41444-30001056D0000213D0001100000JP4BULK   GGSL
NJARET21050-33349-41444-30000028D0000063D0000000000JP406     GGSL
NJARET21050-33349-41701-70003000D0000363D0001600000J4BULK    GGSL
NJARET21050-33349-66006-20000020D0000210D0000000000J450ST20  GGSL
NJARET21050-33349-66009-30000014D0000089D0001100002T72HST14  GGSL
NJARET21050-33607-00003-60000008D0000247D0001500005EDGE180   GGSL
NJARET21050-33607-00301-30000012D0000141D0000000000TT1W      GGSL
NJARET21050-33607-00302-00000012D0000141D0000000000TT2P      GGSL
NJARET21050-33607-00304-40000012D0000141D0000000000TT4T      GGSL
NJARET21050-33607-00320-40000001D0000106D0000200001TTMIX124  GGSL
NJARET21050-33607-00704-20000006D0000087D0002100000REA4      GGSL
NJARET21050-33607-00938-10000008D0000211D0002300000M7C       GGSL
NJARET21050-33607-01208-40000030D0000555D0000100000LT8       GGSL
NJARET21050-33607-01220-60000006D0000155D0005500000LT20      GGSL
NJARET21050-33607-22000-70000096D0000978D0001900002HCWM1     GGSL
NJARET21050-33607-22004-50000008D0000201D0000200000D6C       GGSL
NJARET21050-33607-22004-50000024D0000435D0001200000HHRP4     GGSL
NJARET21050-33607-22005-20000012D0000296D0003400003HC2       GGSL
NJARET21050-33607-22006-90000012D0000278D0002500000HBE6      GGSL
NJARET21050-33607-22010-60000012D0000346D0003700000HCF3      GGSL
NJARET21050-33607-22075-50000014D0001267D0002200005HTC1      GGSL
NJARET21050-33607-22125-70000015D0001771D0001300000HT2EZ     GGSL
NJARET21050-33607-22250-60000002D0000278D0001800000HT4EZ     GGSL
NJARET21050-33607-22310-70000004D0000114D0000200000BPL6      GGSL
NJARET21050-33607-22550-70000003D0000261D0003700000SRWM180   GGSL
NJARET21050-33607-51200-30000004D0000144D0000900000RC3       GGSL
NJARET21050-33607-51300-00000004D0000114D0000100000TNT4      GGSL
NJARET21050-33607-90042-80000004D0000232D0000000000HT100S    GGSL
NJARET21050-33745-97185-40000014D0000418D001840000097185X    GGSL
NJARET21050-34411-00011-30000012D0000014D00000000008011341002GGSL
NJARET21050-34411-00340-40000006D0000069D00000000008450031002GGSL
NJARET21050-34411-18845-30000016D0000121D00004000008883031012GGSL
NJARET21050-34411-74001-90000004D0000203D00003000008740011001GGSL
NJARET21050-34411-80013-30000006D0000080D00007000078800131011GGSL
NJARET21050-34613-00011-90000048D0000414D0000100000LH011     GGSL
NJARET21050-34613-00012-60000024D0000207D0000600000LH012     GGSL
NJARET21050-34613-00014-00000024D0000207D0000300000LH014     GGSL
NJARET21050-34613-00225-00000150D0000791D0018400009225       GGSL
NJARET21050-34613-00325-70000025D0000207D0018900001325       GGSL
NJARET21050-34613-00425-40000025D0000275D0001300007425       GGSL
NJARET21050-34613-00448-30000012D0000048D0000000000448       GGSL
NJARET21050-34613-01064-40000024D0000288D00064000021064      GGSL
NJARET21050-34613-01901-20000024D0000208D00002000001901      GGSL
NJARET21050-34613-02130-50000012D0000142D00000000002130      GGSL
NJARET21050-34613-03104-50000006D0000058D00013000043104      GGSL
NJARET21050-34613-04863-00000024D0000207D0000000000LH014BL   GGSL
NJARET21050-34613-04864-70000012D0000103D0000000000LH016BL   GGSL
NJARET21050-34613-04870-80000036D0000451D0000100000LH015BL   GGSL
NJARET21050-34613-07174-40000018D0000184D00006000027174BL    GGSL
NJARET21050-34613-08140-80000018D0000266D00003000008140      GGSL
NJARET21050-34613-08141-50000012D0000182D00004000008141      GGSL
NJARET21050-34613-08401-00000012D0000169D00000000008401      GGSL
NJARET21050-34613-08446-10000012D0000194D0000000000BF24      GGSL
NJARET21050-34613-09580-10000012D0000061D00000000009580BL    GGSL
NJARET21050-34613-59774-90000041D0008508D000120000059774     GGSL
NJARET21050-34613-60476-80000010D0000249D000390000060476A    GGSL
NJARET21050-34613-60479-90000009D0000200D000910000660479A    GGSL
NJARET21050-34613-60481-20000003D0000115D000010000160481A    GGSL
NJARET21050-34613-60566-60000002D0000157D000000000060566     GGSL
NJARET21050-34613-65497-80000675D0020800D008240067965497     GGSL
NJARET21050-34613-65498-50000456D0015045D006840056465498     GGSL
NJARET21050-34613-65677-40000671D0020994D006170048165677     GGSL
NJARET21050-34613-65678-10000122D0004307D008770086165678     GGSL
NJARET21050-34613-65679-80000301D0009308D007080067765679     GGSL
NJARET21050-34613-65680-40000026D0000740D007790060865680     GGSL
NJARET21050-34613-65681-10000054D0001598D009390074665681     GGSL
NJARET21050-34613-65682-80000348D0010705D007120053565682     GGSL
NJARET21050-34613-66637-70000001D0000237D000380000066637     GGSL
NJARET21050-34613-69884-20000010D0000746D001130006769884     GGSL
NJARET21050-34613-69885-90000007D0000522D002280016169885     GGSL
NJARET21050-34613-69886-60000006D0000447D001530010669886     GGSL
NJARET21050-34613-70737-70000024D0000394D000000000070737BL   GGSL
NJARET21050-34613-91128-60000010D0000066D000000000091128     GGSL
NJARET21050-35000-05361-90000040D0000030D0037300081105375    GGSL
NJARET21050-35000-05364-00001380D0001435D0034000278105374    GGSL
NJARET21050-35000-14112-50000204D0001010D002160004614477     GGSL
NJARET21050-35000-14120-00000216D0001069D002390000514478     GGSL
NJARET21050-35000-14328-00000054D0000267D001820000514483     GGSL
NJARET21050-35000-44627-50000800D0000840D0010300045144630    GGSL
NJARET21050-35000-44673-20002565D0003850D004470034944673     GGSL
NJARET21050-35000-45038-50000684D0001471D0015500030US04232A  GGSL
NJARET21050-35000-45041-50000639D0001374D0005800058US04229A  GGSL
NJARET21050-35000-45072-20000270D0000698D0004800025US04274A  GGSL
NJARET21050-35000-45118-40000864D0001886D0030400304US04268A  GGSL
NJARET21050-35000-45329-70000308D0001266D0000000000US04574A  GGSL
NJARET21050-35000-46413-20000180D0000189D001110006746413     GGSL
NJARET21050-35000-47041-60000876D0002365D0022500075MX06157A  GGSL
NJARET21050-35000-49861-80001650D0003927D002050013149861     GGSL
NJARET21050-35000-49875-50000020D0000024D0015600000144633    GGSL
NJARET21050-35000-51119-50000012D0000034D0010300001151119    GGSL
NJARET21050-35000-53032-50000120D0000400D0035400202153041    GGSL
NJARET21050-35000-53058-50002064D0009646D015370073053058     GGSL
NJARET21050-35000-53060-80000040D0000255D005540008153060     GGSL
NJARET21050-35000-53122-30001215D0007432D023550042253122     GGSL
NJARET21050-35000-97018-30000160D0001030D0024600150US06329A  GGSL
NJARET21050-35000-97336-80000228D0001363D0086400306US06516A  GGSL
NJARET21050-35000-98595-80000042D0000190D0006800017US07369A  GGSL
NJARET21050-35000-98601-60000117D0000252D0010100019US07368A  GGSL
NJARET21050-35000-98631-30001128D0001162D0009700097MX07180A  GGSL
NJARET21050-35000-98635-10000216D0000222D0002700015MX07179A  GGSL
NJARET21050-35110-01900-00001060D0009227D002000019401900     GGSL
NJARET21050-35110-01903-10000748D0007106D001480007601903     GGSL
NJARET21050-35127-69982-00000048D0000312D0000100001ARBSWINGTNGGSL
NJARET21050-35307-00404-80000024D0000089D0000100001404       GGSL
NJARET21050-35307-00781-00000024D0000214D0000400000781       GGSL
NJARET21050-35307-00782-70000048D0000438D0000500002782       GGSL
NJARET21050-35307-00808-40000048D0000128D0000900009808       GGSL
NJARET21050-35307-00810-70000144D0000300D0005300053810       GGSL
NJARET21050-35307-00816-90000084D0000135D0000000000816       GGSL
NJARET21050-35307-00817-60000072D0000166D0000200001817       GGSL
NJARET21050-35307-00818-30000012D0000021D0000000000818       GGSL
NJARET21050-35307-00827-50000012D0000023D0000000000827       GGSL
NJARET21050-35307-00829-90000024D0000076D0000000000829       GGSL
NJARET21050-35307-00834-30000060D0000171D0000000000834       GGSL
NJARET21050-35307-00835-00000132D0000743D0000000000835       GGSL
NJARET21050-35307-00838-10000060D0000179D0004600023838       GGSL
NJARET21050-35307-00839-80000096D0000324D0000100001839       GGSL
NJARET21050-35307-00840-40000024D0000059D0000000000840       GGSL
NJARET21050-35307-00841-10000084D0000164D0000200002841       GGSL
NJARET21050-35307-00843-50000036D0000104D0000100001843       GGSL
NJARET21050-35307-00844-20000192D0000436D0000600003844       GGSL
NJARET21050-35307-00845-90000072D0000281D0001900010845       GGSL
NJARET21050-35307-00848-00000024D0000045D0000100000848       GGSL
NJARET21050-35307-00857-20000120D0000659D0000000000857       GGSL
NJARET21050-35307-00861-90000048D0000128D0000200001861       GGSL
NJARET21050-35307-00862-60000048D0000131D0003100023862       GGSL
NJARET21050-35307-00864-00000156D0000585D0000500005864       GGSL
NJARET21050-35307-00865-70000060D0000227D0000100000865       GGSL
NJARET21050-35307-00874-90000036D0000056D0000500000874       GGSL
NJARET21050-35307-00875-60000300D0001055D0000000000875       GGSL
NJARET21050-35307-00877-00000048D0000074D0003400007877       GGSL
NJARET21050-35307-00967-80000144D0000283D0000100001967       GGSL
NJARET21050-35307-00970-80000012D0000110D0000100001970       GGSL
NJARET21050-35307-00971-50000108D0000568D0001300009971       GGSL
NJARET21050-35307-00972-20000132D0000743D0001200012972       GGSL
NJARET21050-35307-00973-90000012D0000076D0000000000973       GGSL
NJARET21050-35307-00978-40000084D0000443D0000800008978       GGSL
NJARET21050-35307-01030-80000216D0000427D00000000001030      GGSL
NJARET21050-35307-01035-30000192D0000470D00019000071035      GGSL
NJARET21050-35307-01040-70000072D0000185D00012000081040      GGSL
NJARET21050-35307-01045-20000240D0000936D00011000021045      GGSL
NJARET21050-35307-01050-60000024D0000115D00012000111050      GGSL
NJARET21050-35307-01601-00000012D0000146D00000000001601      GGSL
NJARET21050-35307-01609-60000024D0000097D00002000021609CS    GGSL
NJARET21050-35307-01612-60000276D0001121D00002000021612      GGSL
NJARET21050-35307-01618-80000030D0000190D00010000011618      GGSL
NJARET21050-35307-01625-60000006D0000069D00001000011625      GGSL
NJARET21050-35307-01640-90000042D0000233D00010000011640      GGSL
NJARET21050-35307-01646-10000006D0000052D00000000001646      GGSL
NJARET21050-35307-01810-60000276D0001271D00020000201810      GGSL
NJARET21050-35307-01815-10000012D0000074D00001000011815      GGSL
NJARET21050-35307-01815-10000018D0000112D000000000018156     GGSL
NJARET21050-35307-01817-50000006D0000045D000000000018176     GGSL
NJARET21050-35307-01818-20000006D0000059D000010000118186     GGSL
NJARET21050-35307-01820-50000054D0000595D00003000031820      GGSL
NJARET21050-35307-01825-00000018D0000177D000000000018256     GGSL
NJARET21050-35307-01830-40000006D0000095D00005000021830      GGSL
NJARET21050-35307-01835-90000009D0000250D00000000001835      GGSL
NJARET21050-35307-01840-30000030D0000466D00001000001840      GGSL
NJARET21050-35307-01845-80000132D0001380D00010000001845      GGSL
NJARET21050-35307-01845-80000012D0000135D000000000018456     GGSL
NJARET21050-35307-01860-10000012D0000228D00001000001860      GGSL
NJARET21050-35307-01880-90000006D0000163D00014000001880      GGSL
NJARET21050-35307-90872-80000012D0000044D0000600006872       GGSL
NJARET21050-35951-07000-00000012D0000128D000150000007000     GGSL
NJARET21050-35951-07009-30000012D0000267D000060000007009     GGSL
NJARET21050-36074-12002-30000024D0000110D0002300001BC07      GGSL
NJARET21050-36151-46825-30000023D0000595D00018000032646825   GGSL
NJARET21050-36241-97402-20000024D0000107D0033700000974022    GGSL
NJARET21050-36348-00645-90000006D0000091D00006000010645      GGSL
NJARET21050-36348-00745-60000007D0000180D00017000000745      GGSL
NJARET21050-36348-01020-30000030D0000510D00038000071020      GGSL
NJARET21050-36348-01025-80000001D0000029D00004000001025      GGSL
NJARET21050-36348-01079-10000003D0000150D00015000001079      GGSL
NJARET21050-36348-01085-20000003D0000185D00001000001085      GGSL
NJARET21050-36348-05277-70000008D0000216D00003000005277      GGSL
NJARET21050-36348-06400-80000006D0000061D00000000006400      GGSL
NJARET21050-36434-00009-50000108D0001489D00000000001000009   GGSL
NJARET21050-36434-12342-80000090D0000563D00005000006012342   GGSL
NJARET21050-36434-12345-90000192D0002145D00000000001012345   GGSL
NJARET21050-36434-12346-60000006D0000028D00000000016012346   GGSL
NJARET21050-36434-12353-40000006D0000099D00002000026012353   GGSL
NJARET21050-36434-12363-30000078D0002672D00001000011012363   GGSL
NJARET21050-36434-12420-30000396D0004312D00019000061012420   GGSL
NJARET21050-36434-12625-20000006D0000039D00000000006012625   GGSL
NJARET21050-36434-12700-60001368D0011614D00002000011012700   GGSL
NJARET21050-36434-12703-70000066D0000549D00000000006012703   GGSL
NJARET21050-36434-12704-40000018D0000150D00000000006012704   GGSL
NJARET21050-36434-12706-80000012D0000100D00000000006012706   GGSL
NJARET21050-36434-12710-50000168D0001225D00005000021012710   GGSL
NJARET21050-36434-12720-40000216D0001320D00000000001012720   GGSL
NJARET21050-36434-12812-60000024D0000389D00000000001012812   GGSL
NJARET21050-36434-12860-70000036D0000481D00000000001012860   GGSL
NJARET21050-36434-13001-30000072D0000368D00025000051013001   GGSL
NJARET21050-36434-13700-50000024D0000200D00000000011032700   GGSL
NJARET21050-36434-13812-50000132D0002180D00000000001013812   GGSL
NJARET21050-36434-13860-60000012D0000182D00000000001013860   GGSL
NJARET21050-36434-15000-40000156D0005090D00005000051015000   GGSL
NJARET21050-36434-15002-80000006D0000200D00000000001015002   GGSL
NJARET21050-36434-15005-90000012D0000399D00000000001015005   GGSL
NJARET21050-36434-15020-20000066D0001154D00004000031015020   GGSL
NJARET21050-36434-15021-90000006D0000106D00000000001015021   GGSL
NJARET21050-36434-15024-00000006D0000108D00000000001015024   GGSL
NJARET21050-36434-15025-70000006D0000108D00000000001015025   GGSL
NJARET21050-36434-15030-10000054D0001138D00034000081015030   GGSL
NJARET21050-36434-15040-00000042D0000425D00031000051015040   GGSL
NJARET21050-36434-15060-80000072D0001096D00021000161015050   GGSL
NJARET21050-36434-15060-80000036D0000548D00000000001015060   GGSL
NJARET21050-36434-15070-70000024D0000329D00000000001015070   GGSL
NJARET21050-36434-17002-60000006D0000280D00000000001017002   GGSL
NJARET21050-36434-17004-00000006D0000280D00000000001017004   GGSL
NJARET21050-36434-17010-10000096D0002107D00024000181017010   GGSL
NJARET21050-36434-17020-00000012D0000188D00000000001017020   GGSL
NJARET21050-36434-17050-70000090D0001644D00019000101017050   GGSL
NJARET21050-36434-17051-40000126D0001535D00001000011017051   GGSL
NJARET21050-36434-17061-30000010D0000061D00000000001017061   GGSL
NJARET21050-36434-18037-70000012D0000093D00000000001028037   GGSL
NJARET21050-36434-20000-60000012D0000272D00000000001020000   GGSL
NJARET21050-36434-22312-80000012D0000113D00000000006022312   GGSL
NJARET21050-36434-22313-50000012D0000122D00000000001022313   GGSL
NJARET21050-36434-22314-20000006D0000054D00001000006022314   GGSL
NJARET21050-36434-22318-00000096D0000389D00010000016022318   GGSL
NJARET21050-36434-22345-60000060D0000656D00000000001022345   GGSL
NJARET21050-36434-28040-40000216D0003020D00042000161028040   GGSL
NJARET21050-36723-50712-00000003D0000139D0000000000 S712     GGSL
NJARET21050-36865-43016-40000240D0001121D000000000070430160  GGSL
NJARET21050-37321-00022-80002196D0014860D0077900779022       GGSL
NJARET21050-37321-00023-50000188D0003792D0010300103023       GGSL
NJARET21050-37321-00024-20003060D0037399D0018800091024       GGSL
NJARET21050-37321-00040-20000012D0000147D0000000000040       GGSL
NJARET21050-37321-00042-60000018D0000243D0000700000042       GGSL
NJARET21050-37321-00050-10000120D0000120D0001900003050       GGSL
NJARET21050-37321-00051-80000114D0001410D0001700011051       GGSL
NJARET21050-37321-00053-20000024D0000067D0000400004053       GGSL
NJARET21050-37321-00061-70000384D0002958D0000600005061       GGSL
NJARET21050-37321-00066-20000048D0000585D0000000000066       GGSL
NJARET21050-37321-00068-60000192D0001046D0001600003068       GGSL
NJARET21050-37321-00069-30000120D0001619D0004400009069       GGSL
NJARET21050-37321-00070-90000036D0000556D0001500001070       GGSL
NJARET21050-37321-00082-20000024D0000413D0000200000082       GGSL
NJARET21050-37321-00097-60000108D0000599D0001800004097       GGSL
NJARET21050-37321-00099-00000012D0000083D0000900000099       GGSL
NJARET21050-37321-00123-20000012D0000049D0000000000123       GGSL
NJARET21050-37321-00127-00001464D0012925D0023300233127       GGSL
NJARET21050-37321-00148-50000060D0000623D0000000000148       GGSL
NJARET21050-37321-00150-80000204D0003439D0002300019150       GGSL
NJARET21050-37321-00160-70000012D0000042D0000000000160       GGSL
NJARET21050-37321-00165-20000004D0000049D0000300000165       GGSL
NJARET21050-37321-00166-90000132D0000742D0001700003166       GGSL
NJARET21050-37321-00167-60000240D0001509D0007700017167       GGSL
NJARET21050-37321-00197-30000168D0001020D0000400000197       GGSL
NJARET21050-37321-00202-40000108D0001177D0002600012202       GGSL
NJARET21050-37321-00203-10000036D0000560D0001000004203       GGSL
NJARET21050-37321-00210-90000084D0000501D0001400013210       GGSL
NJARET21050-37321-00211-60000360D0003101D0002000020211       GGSL
NJARET21050-37321-00212-30000040D0000794D0001100005212       GGSL
NJARET21050-37321-00213-00000420D0004334D0001200012213       GGSL
NJARET21050-37321-00216-10000264D0004451D0000400004216       GGSL
NJARET21050-37321-00217-80000048D0000508D0000700007217       GGSL
NJARET21050-37321-00218-50000108D0001679D0003300008218       GGSL
NJARET21050-37321-00221-50000072D0000410D0002100005221       GGSL
NJARET21050-37321-00225-30000096D0000539D0001300002225       GGSL
NJARET21050-37321-00230-70000540D0004839D0003700037230       GGSL
NJARET21050-37321-00237-60000036D0000485D0000100000237       GGSL
NJARET21050-37321-00238-30002328D0019883D0008500085238       GGSL
NJARET21050-37321-00239-00000084D0001946D0000000000239       GGSL
NJARET21050-37321-00240-60000060D0001012D0001000000240       GGSL
NJARET21050-37321-00250-50000300D0001625D0017500175250       GGSL
NJARET21050-37321-00252-90000348D0004309D0002700015252       GGSL
NJARET21050-37321-00253-60000096D0001914D0002200016253       GGSL
NJARET21050-37321-00255-00000612D0013003D0018900142255       GGSL
NJARET21050-37321-00257-40000204D0000815D0003300011257       GGSL
NJARET21050-37321-00272-70000036D0000146D0001800005272       GGSL
NJARET21050-37321-00274-10000168D0001090D0000000000274       GGSL
NJARET21050-37321-00277-20000030D0001029D0000100001277       GGSL
NJARET21050-37321-00299-40000060D0000519D0000000000299       GGSL
NJARET21050-37321-00301-40000180D0001316D0000200000301       GGSL
NJARET21050-37321-00308-30000108D0001112D0009400054308       GGSL
NJARET21050-37321-00309-00000210D0003686D0000800008309       GGSL
NJARET21050-37321-00310-60000060D0001865D0001300007310       GGSL
NJARET21050-37321-00311-30000066D0002124D0000900009311       GGSL
NJARET21050-37321-00313-70000004D0000463D0000100001313       GGSL
NJARET21050-37321-00321-20000300D0001793D0001300013321       GGSL
NJARET21050-37321-00322-90000076D0001407D0000600005322       GGSL
NJARET21050-37321-00323-60000090D0000918D0000500004323       GGSL
NJARET21050-37321-00330-40000168D0001684D0000900003330       GGSL
NJARET21050-37321-00331-10000072D0001182D0000200001331       GGSL
NJARET21050-37321-00370-00000120D0000493D0000200002370       GGSL
NJARET21050-37321-00371-70000132D0000740D0000400002371       GGSL
NJARET21050-37321-00372-40000044D0000381D0000100000372       GGSL
NJARET21050-37321-00411-00000072D0000241D0000000000411       GGSL
NJARET21050-37321-00413-40000020D0000243D0000500000413       GGSL
NJARET21050-37321-00426-40000096D0001036D0000000000426       GGSL
NJARET21050-37321-00428-80000024D0000097D0000100001428       GGSL
NJARET21050-37321-00429-50000027D0000532D0000300002429       GGSL
NJARET21050-37321-00443-10000024D0000276D0000000000443       GGSL
NJARET21050-37321-00527-80000072D0000285D0000800001527       GGSL
NJARET21050-37321-00530-80000056D0000513D0002000001530       GGSL
NJARET21050-37321-00543-80000132D0000414D0000900001543       GGSL
NJARET21050-37321-00544-50000276D0001650D0005600015544       GGSL
NJARET21050-37321-00549-00000276D0002694D0002300004549       GGSL
NJARET21050-37321-00560-50000048D0000223D0001200004560       GGSL
NJARET21050-37321-00564-30000072D0000777D0000400001564       GGSL
NJARET21050-37321-00571-10000024D0000208D0000700000571       GGSL
NJARET21050-37321-00573-50000012D0000056D0000400000573       GGSL
NJARET21050-37321-00574-20000012D0000098D0000100000574       GGSL
NJARET21050-37321-00603-90000012D0000157D0000400004603       GGSL
NJARET21050-37321-00603-90000128D0001312D002450001160315X    GGSL
NJARET21050-37321-00609-10000012D0000133D0001900011609       GGSL
NJARET21050-37321-00611-40000048D0001249D0001000010611       GGSL
NJARET21050-37321-00611-40000048D0000864D000020000061146     GGSL
NJARET21050-37321-00613-80000104D0001441D00009000000613      GGSL
NJARET21050-37321-00622-00000084D0000274D0002000005622       GGSL
NJARET21050-37321-00623-70000048D0000293D0000600000623       GGSL
NJARET21050-37321-00629-90000216D0000724D0000600005629       GGSL
NJARET21050-37321-00631-20000420D0001704D0001800018631       GGSL
NJARET21050-37321-00652-70000816D0004398D0000500005652       GGSL
NJARET21050-37321-00655-80000258D0001632D00056000566556      GGSL
NJARET21050-37321-00680-00000012D0000121D0000000000680       GGSL
NJARET21050-37321-00681-70000008D0000103D00028000000681      GGSL
NJARET21050-37321-00685-50000072D0000873D0000900002685       GGSL
NJARET21050-37321-00687-90000036D0000491D0000000000687       GGSL
NJARET21050-37321-00688-60002148D0014302D0005300053688       GGSL
NJARET21050-37321-00690-90000048D0000540D0000000000690       GGSL
NJARET21050-37321-00691-60000081D0000475D000030000269127     GGSL
NJARET21050-37321-00692-30000036D0000476D0000500005692       GGSL
NJARET21050-37321-00692-30000250D0002915D0005400060692X      GGSL
NJARET21050-37321-00692-30000050D0000628D000010000169250     GGSL
NJARET21050-37321-00698-50000120D0000714D0000600001698       GGSL
NJARET21050-37321-00705-00000408D0002616D0000200002705       GGSL
NJARET21050-37321-00728-90000072D0000863D0002100002728       GGSL
NJARET21050-37321-00731-90000056D0000557D0000100001731       GGSL
NJARET21050-37321-00753-10000012D0000128D0000000000753       GGSL
NJARET21050-37321-00757-90000072D0000306D0000600006757       GGSL
NJARET21050-37321-00758-60000016D0000165D0002600001758       GGSL
NJARET21050-37321-00759-30000024D0000376D0000500001759       GGSL
NJARET21050-37321-00775-30001488D0008871D0004800010775       GGSL
NJARET21050-37321-00784-50000012D0000036D0000100001784       GGSL
NJARET21050-37321-00786-90000036D0000179D0002700022786       GGSL
NJARET21050-37321-00789-00000250D0001706D0050600016789       GGSL
NJARET21050-37321-00802-60000024D0000143D0000100001802       GGSL
NJARET21050-37321-00811-80000516D0006130D0002600020811       GGSL
NJARET21050-37321-00813-20000300D0004316D0002000020813       GGSL
NJARET21050-37321-00814-90000114D0002755D0000200001814       GGSL
NJARET21050-37321-00857-60000036D0000334D0002200003857       GGSL
NJARET21050-37321-00858-30000048D0000731D0000100000858       GGSL
NJARET21050-37321-00862-00000012D0000164D0000000000862       GGSL
NJARET21050-37321-00863-70000099D0001265D0000000000863       GGSL
NJARET21050-37321-00865-10000072D0000405D0001900005865       GGSL
NJARET21050-37321-00866-80000024D0000363D0009400005866       GGSL
NJARET21050-37321-00868-20000048D0000643D0000000000868       GGSL
NJARET21050-37321-00871-20000048D0000478D0000000003871       GGSL
