TXBWIC2203Z-ZSC11-121DI- 0000002D0000865D000010000011121     GGSL
TXBWIC22030-     -     - 0000004D0000081D0000000000116332    GGSL
TXBWIC22030-00402-00000-00002154D0115982D0433400131          GGSL
TXBWIC22030-00402-01012-60000036D0000000D00542000001012      GGSL
TXBWIC22030-00402-01014-00000416D0000002D02125000411014      GGSL
TXBWIC22030-00402-01499-50000028D0000092D000200000014SS      GGSL
TXBWIC22030-00402-01621-70000200D0000964D000750000016BA      GGSL
TXBWIC22030-00402-02419-20000010D0000245D000010000010XS-20   GGSL
TXBWIC22030-00402-02699-50000340D0000412D010200000010XS-20B  GGSL
TXBWIC22030-00402-02750-60000700D0003629D0025000075B75       GGSL
TXBWIC22030-00402-05418-20000375D0001450D00075000505418      GGSL
TXBWIC22030-00402-07518-40000050D0000136D00000000007518      GGSL
TXBWIC22030-00402-07530-90000100D0000305D00000000007530      GGSL
TXBWIC22030-00402-10142-80000615D0002415D011560009010145B    GGSL
TXBWIC22030-00402-10147-30000013D0000000D00122000001014 G    GGSL
TXBWIC22030-00402-11730-60000200D0000830D002000002511730     GGSL
TXBWIC22030-00402-14221-60000002D0000195D000030000014TRSBK   GGSL
TXBWIC22030-00402-14292-60000063C0000195C0000100000142SSB    GGSL
TXBWIC22030-00402-14319-00000006D0000025D001210000014CS      GGSL
TXBWIC22030-00402-14560-60000005D0000019D000360000514EP      GGSL
TXBWIC22030-00402-22275-80000050D0000011D0040000000VSCH7-5   GGSL
TXBWIC22030-00402-33117-70001225D0000532D0185000025PC11-7    GGSL
TXBWIC22030-00402-33354-60001825D0000291D0087500025PC5-4     GGSL
TXBWIC22030-00402-33375-10005700D0001289D0145001100PC7-5     GGSL
TXBWIC22030-00402-41819-90000045D0000409D000160002114TRS     GGSL
TXBWIC22030-00402-91014-30000055D0005606D00187001701014 BLACKGGSL
TXBWIC22030-00772-06090-50000002D0000058D00000000006090      GGSL
TXBWIC22030-00772-06091-20000002D0000058D00000000006091      GGSL
TXBWIC22030-00772-06281-70000018D0000107D00000000006281      GGSL
TXBWIC22030-00772-06282-40000018D0000107D00000000006282      GGSL
TXBWIC22030-00772-06418-70000004D0000064D00000000006418      GGSL
TXBWIC22030-00772-06703-40000002D0000086D00000000006703      GGSL
TXBWIC22030-00772-06704-10000002D0000086D00000000006704      GGSL
TXBWIC22030-00772-06705-80000012D0000065D00000000006705      GGSL
TXBWIC22030-00772-06712-60000012D0000092D00000000006712      GGSL
TXBWIC22030-00772-06723-20000004D0000185D00000000006723      GGSL
TXBWIC22030-00772-06740-90000012D0000065D00000000006740      GGSL
TXBWIC22030-00772-06744-70000004D0000083D00000000006744      GGSL
TXBWIC22030-01850-60960-00000001D0000587D00001000029200      GGSL
TXBWIC22030-10256-01220-30000145D0001063D0000000005GTH/SBPRHSGGSL
TXBWIC22030-10367-00110-70000138D0000910D0004200228110       GGSL
TXBWIC22030-10367-00130-50000021D0001062D0000000001130.0     GGSL
TXBWIC22030-10367-00150-30000047D0001311D0000000049150.0     GGSL
TXBWIC22030-10367-00460-30000080D0000455D0006400072ML0460 8  GGSL
TXBWIC22030-10367-00530-30000002D0000080D0001700004530.0     GGSL
TXBWIC22030-10367-00560-00000168D0000602D0028800016ML0560 8  GGSL
TXBWIC22030-10367-01000-00000120D0001471D0001200036ML1000    GGSL
TXBWIC22030-10367-01010-90000492D0005762D0003600312ML1010    GGSL
TXBWIC22030-10367-01020-80000072D0001071D0003600012ML1020    GGSL
TXBWIC22030-10367-01050-50000048D0000553D0013200012ML1050    GGSL
TXBWIC22030-10367-01110-60000016D0000060D00000000481110      GGSL
TXBWIC22030-10367-01111-30000064D0000200D00024000721111.0    GGSL
TXBWIC22030-10367-01112-00000032D0000100D00032000081112.0    GGSL
TXBWIC22030-10367-01120-50000184D0000599D00328000321120.0    GGSL
TXBWIC22030-10367-01121-20000024D0000127D00048000561121.0    GGSL
TXBWIC22030-10367-01130-40000008D0000048D00160000081130.0    GGSL
TXBWIC22030-10367-01161-80000008D0000054D00000000001161.0    GGSL
TXBWIC22030-10367-01240-00000012D0000071D00672000121240.0    GGSL
TXBWIC22030-10367-02131-00000008D0000035D0000000000ML2131    GGSL
TXBWIC22030-10367-02141-90000008D0000035D0000000000ML2141    GGSL
TXBWIC22030-10367-02151-80000008D0000055D0000000000ML2151    GGSL
TXBWIC22030-10367-02161-70000008D0000050D0000000000ML2161    GGSL
TXBWIC22030-10367-02162-40000016D0000100D0011200000ML2162    GGSL
TXBWIC22030-10367-03010-70000016D0000089D0007200008ML3010    GGSL
TXBWIC22030-11192-10594-70000008D0000179D0000000000KHEATMAT  GGSL
TXBWIC22030-11192-61501-90000036D0000125D0000000000PREFILL36 GGSL
TXBWIC22030-11247-00000-00000002D0000057D0015700000CPK0225   GGSL
TXBWIC22030-11247-00250-40000106D0004272D000720000900640     GGSL
TXBWIC22030-11247-00913-80000001D0000091D000000000000913     GGSL
TXBWIC22030-11247-01050-90000049C0000091C000170000001050     GGSL
TXBWIC22030-11247-01541-20000005D0000202D000350000001541     GGSL
TXBWIC22030-11247-03111-50000079D0002742D000000002903111     GGSL
TXBWIC22030-11247-04525-90000774D0018992D002330040704525     GGSL
TXBWIC22030-11247-05450-30000049D0002186D001330001505450     GGSL
TXBWIC22030-11247-12024-60000060D0000298D000000004812024     GGSL
TXBWIC22030-11247-13010-80000024D0000093D000390004813010     GGSL
TXBWIC22030-11247-16004-20000114D0000810D002340003016004     GGSL
TXBWIC22030-11247-20103-70000060D0000445D000000000620103     GGSL
TXBWIC22030-11247-21004-60000036D0000282D000000001821004     GGSL
TXBWIC22030-11247-29016-10000012D0000088D000000002429016     GGSL
TXBWIC22030-11247-30004-40000198D0001500D004860007230004     GGSL
TXBWIC22030-11247-52813-40000006D0000106D000350000252813     GGSL
TXBWIC22030-11247-52824-00000012D0000076D000000000052824     GGSL
TXBWIC22030-11247-52825-70000110D0002219D000130002052825     GGSL
TXBWIC22030-11247-52826-40000006D0000032D000000000652826     GGSL
TXBWIC22030-11247-52829-50000012D0000139D000120001252829     GGSL
TXBWIC22030-11247-52830-10000002D0000102D000020000252830     GGSL
TXBWIC22030-11247-52833-20000102D0000655D001020000652833     GGSL
TXBWIC22030-11247-52847-90000002D0000265D000280000052847     GGSL
TXBWIC22030-11247-52851-60000002D0000048D000000000052851     GGSL
TXBWIC22030-11247-52876-90000012D0000050D000000000052876     GGSL
TXBWIC22030-11247-52877-60000004D0000233D000440000052877     GGSL
TXBWIC22030-11247-52880-60000012D0000067D000000000052880     GGSL
TXBWIC22030-11247-52888-20000081D0000480D001590000652888     GGSL
TXBWIC22030-11247-52889-90000064D0001011D001840000852889     GGSL
TXBWIC22030-11247-52892-90000006D0000043D000000000052896     GGSL
TXBWIC22030-11247-60116-50000013D0000146D000900001260116     GGSL
TXBWIC22030-11247-61008-20000042D0000432D000000001861300     GGSL
TXBWIC22030-11247-61024-20000501D0003457D008520035461024     GGSL
TXBWIC22030-11247-71016-40000096D0000780D000000001271001     GGSL
TXBWIC22030-11247-71128-40000024D0000471D000000000071128     GGSL
TXBWIC22030-11247-71250-20000006D0000280D000000000071250     GGSL
TXBWIC22030-11247-90001-50000024D0000135D001560000090001     GGSL
TXBWIC22030-11247-90128-90000084D0000821D000280000490128     GGSL
TXBWIC22030-11247-90250-70000004D0000108D000340000090250     GGSL
TXBWIC22030-11423-00338-70000048D0000315D0045600000HG-33801  GGSL
TXBWIC22030-11423-94108-50000006D0000065D0007700006HG-94108  GGSL
TXBWIC22030-11423-94127-60000024D0000110D0039700000HG-64127  GGSL
TXBWIC22030-14021-00534-00000003D0000178D00000000008000      GGSL
TXBWIC22030-14021-00832-70000007D0000285D00000000007050      GGSL
TXBWIC22030-14021-01208-90000003D0000139D00000000007010      GGSL
TXBWIC22030-14021-01317-80000025D0000279D00000000002100-2    GGSL
TXBWIC22030-14021-01412-00000003D0000375D00000000001024      GGSL
TXBWIC22030-14021-02734-20000002D0000532D00000000001036A     GGSL
TXBWIC22030-14021-03029-80000001D0000209D00000000001040      GGSL
TXBWIC22030-14021-10118-90000003D0000306D00000000003020      GGSL
TXBWIC22030-16069-00005-90000072D0000496D0026400036TP-15C    GGSL
TXBWIC22030-16069-00007-30000072D0000449D0029400030BN-1      GGSL
TXBWIC22030-16069-00008-00000192D0001288D0078900204BN-2      GGSL
TXBWIC22030-16069-00013-40000018D0000485D0006800012BN-3      GGSL
TXBWIC22030-16069-00014-10000042D0000837D0005800000BN-4      GGSL
TXBWIC22030-16069-00015-80000012D0000328D0006200000BN-5      GGSL
TXBWIC22030-16069-00019-60000024D0000268D0000000000TP-30C    GGSL
TXBWIC22030-16069-00030-10000090D0001080D0022400018OW-6      GGSL
TXBWIC22030-16069-00049-30000118D0002169D0000600006DX-7      GGSL
TXBWIC22030-16069-00473-30000001D0000508D0000000000MIXO-30MP GGSL
TXBWIC22030-16069-00504-70000060D0000126D0000000000TG1-3W    GGSL
TXBWIC22030-16069-00531-00000002D0001225D0000000000GCM-BDO   GGSL
TXBWIC22030-16069-00667-90000132D0002821D0030400128RHO-4US   GGSL
TXBWIC22030-18506-00000-00000710D0010140D02420000600111-5    GGSL
TXBWIC22030-18506-00010-30000018D0000146D0022900228010-6     GGSL
TXBWIC22030-18506-00021-90000024D0000339D0042200000021-6     GGSL
TXBWIC22030-18506-00102-50000048D0000187D0068000012102-12    GGSL
TXBWIC22030-18506-00110-50000402D0002666D0174100492110-12    GGSL
TXBWIC22030-18506-00116-20000225D0001439D0141500540116-12    GGSL
TXBWIC22030-18506-00117-90000129D0001242D0088200420117-6     GGSL
TXBWIC22030-18506-00125-40000036D0000185D0034800000125       GGSL
TXBWIC22030-18506-00130-80000180D0000933D0022800000130       GGSL
TXBWIC22030-18506-03202-90000002D0000938D00001000013200      GGSL
TXBWIC22030-22102-01010-70000040D0001718D000000000010N       GGSL
TXBWIC22030-22102-05211-40000044C0001718C0002000006521G      GGSL
TXBWIC22030-22102-75210-60000061C0001718C00016000237521      GGSL
TXBWIC22030-22179-10035-00000097D0005046D0011700030LG4110    GGSL
TXBWIC22030-22179-10084-80000030D0000241D0009600072LG7220    GGSL
TXBWIC22030-22179-10090-90000026D0000727D0006200000LG4300    GGSL
TXBWIC22030-22179-10108-10000012D0000096D0000000000LG7265    GGSL
TXBWIC22030-22179-10109-80000018D0000282D0000000000lg 5146   GGSL
TXBWIC22030-22179-10110-40000006D0000171D0000000000lg 5149   GGSL
TXBWIC22030-22179-10115-90000126D0002253D0020700006lg 5599   GGSL
TXBWIC22030-22179-10117-30000024D0000164D0000000000LG1109    GGSL
TXBWIC22030-22179-10124-10000294D0001636D0103200000LG6515    GGSL
TXBWIC22030-22179-10130-20000006D0000082D0000000000lg 6239   GGSL
TXBWIC22030-22179-10139-50000359C0000082C0057600000LG1130    GGSL
TXBWIC22030-22179-10140-10000008D0001045D0008600002LG6520    GGSL
TXBWIC22030-22179-10150-00000251D0003060D00532003447115      GGSL
TXBWIC22030-22179-10151-70000104D0004871D00314000137117      GGSL
TXBWIC22030-22179-10167-80000024D0000413D0001200000lg 6127   GGSL
TXBWIC22030-22179-10185-20000146D0001673D0062900038LG6500    GGSL
TXBWIC22030-22179-10246-00000141D0002301D0120301032LG6570    GGSL
TXBWIC22030-22179-10247-70000225D0005811D00465002097122      GGSL
TXBWIC22030-22179-10248-40000252D0002112D0067800024LG6575    GGSL
TXBWIC22030-22179-10257-60000048D0000809D0000000012LG3190    GGSL
TXBWIC22030-22179-10269-90000012D0000069D0000000000LG8900    GGSL
TXBWIC22030-22179-10295-80000023C0000069C0000000000LG6138    GGSL
TXBWIC22030-22179-10374-00000060D0000374D0000000000lg 6286   GGSL
TXBWIC22030-22179-10376-40000024D0000461D0000000000LG6292    GGSL
TXBWIC22030-22179-10377-10000024D0000208D0007200552lg 6294   GGSL
TXBWIC22030-22179-10378-80000090D0000710D0000600006lg6274    GGSL
TXBWIC22030-22179-10390-00000096D0000873D0054000168LG6332    GGSL
TXBWIC22030-22179-10391-70000132D0001971D0000000144LG6336    GGSL
TXBWIC22030-22179-10393-10000006D0000077D0000000006lg 5367   GGSL
TXBWIC22030-22179-10395-50000030D0000942D0011500007LG6356    GGSL
TXBWIC22030-22179-10398-60000029C0000942C0000600000lg 7234   GGSL
TXBWIC22030-22179-10406-80000192D0011816D0000000288LG 6344   GGSL
TXBWIC22030-22179-10408-20000188D0001792D0067700687LG 6338   GGSL
TXBWIC22030-22179-10429-70000168D0002644D0075600528LG6334    GGSL
TXBWIC22030-22179-10443-30000036D0000338D0000000018LG3370    GGSL
TXBWIC22030-22179-10444-00000012D0000172D0000000000lg 3374   GGSL
TXBWIC22030-22179-10454-90000162D0001710D0017700105lg 3303   GGSL
TXBWIC22030-22179-10458-70000072D0000705D0022900006lg 3234   GGSL
TXBWIC22030-22179-10474-70000012D0000103D0000000000lg 6328   GGSL
TXBWIC22030-22179-10490-70000048D0000422D0010800288LG 6302   GGSL
TXBWIC22030-22179-10519-50000030D0000457D0000000000lg 6544   GGSL
TXBWIC22030-22179-10520-10000018D0000138D0000000000lg 6542   GGSL
TXBWIC22030-22179-10529-40000010D0000085D0025000190lg 7350   GGSL
TXBWIC22030-22401-00115-80000167D0010507D0010600006MDC-15    GGSL
TXBWIC22030-22401-00301-50000038D0000637D0000000000THD-20    GGSL
TXBWIC22030-22401-00380-10000028D0000518D0038000216NDETC-20MCGGSL
TXBWIC22030-22401-00381-70000012D0000222D0006800064NDETC-2OLBGGSL
TXBWIC22030-22401-10088-20000077D0002886D0001900000EAR-60    GGSL
TXBWIC22030-23075-02332-30000024D0000124D0002400072P036      GGSL
TXBWIC22030-23075-02721-50000028D0000132D0000000014P72H-7    GGSL
TXBWIC22030-23626-00605-80001172D0013608D0726800568116334    GGSL
TXBWIC22030-23626-00615-70001380D0015810D0190100136116336    GGSL
TXBWIC22030-23626-00630-00001180D0018485D0158800096116341    GGSL
TXBWIC22030-23626-00650-80000066D0000261D0022800012000600    GGSL
TXBWIC22030-23626-01710-80000144D0000805D0029400000000800    GGSL
TXBWIC22030-23626-01720-70000096D0000720D0020700051000900    GGSL
TXBWIC22030-23626-02555-40000003D0000078D0000000000112840    GGSL
TXBWIC22030-23626-07002-80000004D0000156D0000000000112825    GGSL
TXBWIC22030-23883-00001-10000164D0003301D0095100252G362      GGSL
TXBWIC22030-23883-00002-80000186D0000926D0044401092G385      GGSL
TXBWIC22030-23883-00003-50000159D0000746D0063900030G390      GGSL
TXBWIC22030-23883-01002-70000189D0002048D00689000361002      GGSL
TXBWIC22030-23883-05000-90000047D0000310D00120000065000      GGSL
TXBWIC22030-23883-08620-60000009D0001969D00007000028620B     GGSL
TXBWIC22030-23883-15710-40002562D0021624D136780261015710     GGSL
TXBWIC22030-23883-16100-20000060D0000477D000040000016100MP   GGSL
TXBWIC22030-23883-21210-00000009D0000385D000010004121210XP   GGSL
TXBWIC22030-23883-26011-80000033D0001319D002230004026011XP   GGSL
TXBWIC22030-23883-26021-70000241D0009321D019690001526021XP   GGSL
TXBWIC22030-23883-26031-60000019D0000957D001050003626031XP   GGSL
TXBWIC22030-23883-27010-00000029D0000750D001450002627010     GGSL
TXBWIC22030-23883-27020-90000167D0004460D003550006227020     GGSL
TXBWIC22030-23883-27030-80000046D0001455D001580002627030     GGSL
TXBWIC22030-23883-60100-30000125D0008182D011960017560100     GGSL
TXBWIC22030-23883-61925-10000012D0000146D00011000006-1925    GGSL
TXBWIC22030-23883-63924-20000010D0002119D000680001463924     GGSL
TXBWIC22030-23883-64601-10000012D0000200D00003000006-4601    GGSL
TXBWIC22030-23883-68060-20000002D0000047D00003000006-8060    GGSL
TXBWIC22030-23883-68219-40000006D0000110D00000000006-8219    GGSL
TXBWIC22030-23883-80000-00000045D0002285D00003000608000A     GGSL
TXBWIC22030-23883-80080-20000001D0000144D00000000008200A     GGSL
TXBWIC22030-23883-82080-00000001D0000199D00000000008301C     GGSL
TXBWIC22030-23883-84600-80000019D0000616D000030000584700A    GGSL
TXBWIC22030-23883-97100-70000005D0001775D000190000097100     GGSL
TXBWIC22030-23883-97361-20000004D0000839D000020000197361     GGSL
TXBWIC22030-23883-97561-60000001D0000245D000000000097561     GGSL
TXBWIC22030-24114-77123-60000150D0000651D000000000077123     GGSL
TXBWIC22030-24654-05102-70000006D0000033D00000000005102-6    GGSL
TXBWIC22030-24654-05962-70000042D0000514D00030000125962      GGSL
TXBWIC22030-24654-09941-80000015D0000438D00126000009935      GGSL
TXBWIC22030-24654-55110-70000288D0001504D00503000365110-6    GGSL
TXBWIC22030-24654-55118-30000252D0001878D00445000065118.0    GGSL
TXBWIC22030-26455-91350-40000009D0000610D001270000070805-001-GGSL
TXBWIC22030-26978-30301-10000014D0000084D000150002430301     GGSL
TXBWIC22030-28009-11225-80003692D0020687D01212007711225.0    GGSL
TXBWIC22030-28009-11227-20000006D0000024D00000000001227.0    GGSL
TXBWIC22030-28009-11250-00017014D0161066D01309011271250.0    GGSL
TXBWIC22030-28009-11420-70002334D0012462D00000003951420P     GGSL
TXBWIC22030-28009-11428-30000486D0006364D00000000001428      GGSL
TXBWIC22030-28009-11440-50002424D0022033D00974006411440P     GGSL
TXBWIC22030-28009-11465-80000018D0000080D00108000001465      GGSL
TXBWIC22030-28009-11550-10000900D0005623D00000000001550P     GGSL
TXBWIC22030-28009-11640-90000600D0004235D00000006001640      GGSL
TXBWIC22030-28009-11925-70000065D0000689D00000000001925      GGSL
TXBWIC22030-28009-15240-70000920D0005464D00123003565240.0    GGSL
TXBWIC22030-28009-15440-10000180D0000944D00180000005440.0    GGSL
TXBWIC22030-28009-15440-30000118D0001070D00000001201840      GGSL
TXBWIC22030-28009-15450-00000121D0000978D00190000005450.0    GGSL
TXBWIC22030-28009-15540-80002905D0014027D01660007805540.0    GGSL
TXBWIC22030-28009-15720-40001200D0004026D00000001205720.0    GGSL
TXBWIC22030-28009-15740-20001345D0007959D00077002095740.0    GGSL
TXBWIC22030-30541-00066-50000024D0000065D0000000000JCD-TP03  GGSL
TXBWIC22030-30541-00067-20000006D0000058D0001200006JCD-100FGPGGSL
TXBWIC22030-30541-00801-20000008D0000412D0000000000JCD-08BKSMGGSL
TXBWIC22030-30541-01020-60000072D0000190D0009600024JCD-024SM GGSL
TXBWIC22030-30541-01030-50000048D0000419D0000000012JCD-100SMJGGSL
TXBWIC22030-30541-01034-30000047D0001001D0000000004JCD-030SM GGSL
TXBWIC22030-30541-09982-90000124D0000265D0062402500JCD-TPP   GGSL
TXBWIC22030-30641-09801-20000225D0000537D0010000025SWPDQ     GGSL
TXBWIC22030-30641-32937-60000234D0000468D0007200036RPDQ      GGSL
TXBWIC22030-30641-33935-10000216D0000432D0007200000YPDQ      GGSL
TXBWIC22030-30641-35936-60000324D0000648D0014400000WPDQ      GGSL
TXBWIC22030-32247-00900-30000180D0000575D00246000121009001   GGSL
TXBWIC22030-32247-00910-20000006D0000016D00018000001009101   GGSL
TXBWIC22030-32247-00950-80003156D0008295D00018000061009501   GGSL
TXBWIC22030-32247-02515-70000050D0001947D00000000002515      GGSL
TXBWIC22030-32247-03115-80000062D0003875D000150000031115     GGSL
TXBWIC22030-32247-03313-80000314D0007307D00476000083313B     GGSL
TXBWIC22030-32247-03594-10001110D0006851D005720000070359430  GGSL
TXBWIC22030-32247-05514-70010813D0043428D020680037470551430  GGSL
TXBWIC22030-32247-10500-20000447D0004088D0033600084110500    GGSL
TXBWIC22030-32247-11307-60008465D0017044D000000016371130756  GGSL
TXBWIC22030-32247-12764-60000056D0000250D000080000071276430  GGSL
TXBWIC22030-32247-14902-00000076D0001002D000000000014902     GGSL
TXBWIC22030-32247-14905-10000368D0002679D000160000814905     GGSL
TXBWIC22030-32247-15307-20000802D0001730D000290001071530751  GGSL
TXBWIC22030-32247-17183-00001752D0015091D000300000017183     GGSL
TXBWIC22030-32247-17185-40000880D0017109D000520000017185     GGSL
TXBWIC22030-32247-17187-80000669D0031237D000480000017187     GGSL
TXBWIC22030-32247-17290-50001230D0011444D000120000017290     GGSL
TXBWIC22030-32247-17293-60000006D0000069D000000000017293     GGSL
TXBWIC22030-32247-17295-00000560D0011609D000080000017295     GGSL
TXBWIC22030-32247-17323-00000534D0004794D000480000017323     GGSL
TXBWIC22030-32247-17325-40000404D0007255D000160000017325     GGSL
TXBWIC22030-32247-17327-80000306D0011515D000400000017327     GGSL
TXBWIC22030-32247-17424-40000016D0000396D000000000017519     GGSL
TXBWIC22030-32247-17432-90000006D0000311D000100000017504     GGSL
TXBWIC22030-32247-17508-10000012D0000149D000180000017508     GGSL
TXBWIC22030-32247-17511-10000018D0000223D000000000017511     GGSL
TXBWIC22030-32247-18213-30001022D0024954D000020000018213     GGSL
TXBWIC22030-32247-18221-80000056D0001227D000040001618221     GGSL
TXBWIC22030-32247-18222-50000916D0018265D000000000018222     GGSL
TXBWIC22030-32247-18225-60000121D0001720D000130001218225     GGSL
TXBWIC22030-32247-18251-50000036D0001064D000040000418251     GGSL
TXBWIC22030-32247-18266-90000090D0001051D000600000018266     GGSL
TXBWIC22030-32247-18269-00000012D0000376D000000000018269     GGSL
TXBWIC22030-32247-18272-00000084D0000444D000350000018272     GGSL
TXBWIC22030-32247-18296-60000018D0000223D000000000618296     GGSL
TXBWIC22030-32247-18302-40000004D0000157D000000000018302     GGSL
TXBWIC22030-32247-18338-30000030D0000300D000000000018338     GGSL
TXBWIC22030-32247-18345-10000024D0000296D000000000018345     GGSL
TXBWIC22030-32247-18346-80000016D0000293D000200000018346     GGSL
TXBWIC22030-32247-18348-20000060D0000849D000180000018348     GGSL
TXBWIC22030-32247-18350-50000945D0006206D000300000018350     GGSL
TXBWIC22030-32247-18353-60000524D0012920D000480001818335     GGSL
TXBWIC22030-32247-18355-00000001D0001040D000000000018355A    GGSL
TXBWIC22030-32247-18362-80000222D0007240D000000000018362     GGSL
TXBWIC22030-32247-19594-20000715D0004704D000000000071959430  GGSL
TXBWIC22030-32247-20784-30002784D0008961D015430020472078430  GGSL
TXBWIC22030-32247-20814-70000010D0000408D000000000021814     GGSL
TXBWIC22030-32247-21030-00000041D0001025D001780000021030A    GGSL
TXBWIC22030-32247-21605-00000284D0005254D000000004021605     GGSL
TXBWIC22030-32247-21701-90000264D0002086D000120000021701     GGSL
TXBWIC22030-32247-22305-80000118D0001929D000720002522305     GGSL
TXBWIC22030-32247-22315-70000012D0000472D000000000022315     GGSL
TXBWIC22030-32247-23001-80000001D0000597D000000000023001A    GGSL
TXBWIC22030-32247-23100-80000012D0000131D000240000023100     GGSL
TXBWIC22030-32247-23405-40000069D0001041D000790000023405B    GGSL
TXBWIC22030-32247-25006-10000335D0006936D003230000825006A    GGSL
TXBWIC22030-32247-25009-20000102D0005759D000000000025009     GGSL
TXBWIC22030-32247-26005-30001578D0038741D000000000026005     GGSL
TXBWIC22030-32247-26007-70000179D0004163D001000000226007B    GGSL
TXBWIC22030-32247-26008-40000040D0001808D000000000026008A    GGSL
TXBWIC22030-32247-26784-70000204D0000641D008520007272678430  GGSL
TXBWIC22030-32247-27764-80000056D0000208D000000000072776430  GGSL
TXBWIC22030-32247-27791-40001680D0003508D000000048072779180  GGSL
TXBWIC22030-32247-30073-50001901D0031184D000010000030073     GGSL
TXBWIC22030-32247-30156-50002448D0038017D000240000030156     GGSL
TXBWIC22030-32247-30177-00000295D0015000D000320000030177     GGSL
TXBWIC22030-32247-33020-60000113D0004475D000240004733020     GGSL
TXBWIC22030-32247-33040-40000050D0000743D000000000033040     GGSL
TXBWIC22030-32247-33050-30000040D0001472D000000000033050     GGSL
TXBWIC22030-32247-33160-90000040D0002486D000000000033160     GGSL
TXBWIC22030-32247-35594-00000912D0005680D000000000073559430  GGSL
TXBWIC22030-32247-35605-30000034D0000661D000510000044615A    GGSL
TXBWIC22030-32247-37594-80003798D0020220D005740015273759430  GGSL
TXBWIC22030-32247-37610-50000200D0003037D000380000037610A    GGSL
TXBWIC22030-32247-39181-80000050D0001247D000200000039181     GGSL
TXBWIC22030-32247-39594-60004983D0037565D006780010073959430  GGSL
TXBWIC22030-32247-39605-90000100D0001611D000000000039605     GGSL
TXBWIC22030-32247-39615-80000080D0003419D000240000039615     GGSL
TXBWIC22030-32247-42784-50002704D0008229D004140011474278430  GGSL
TXBWIC22030-32247-43851-30000003D0000057D00024000004385106   GGSL
TXBWIC22030-32247-43860-50000060D0001029D00000000084386004   GGSL
TXBWIC22030-32247-45651-70000265D0002270D002420000045651300  GGSL
TXBWIC22030-32247-47783-30000282D0001068D001980000074778300  GGSL
TXBWIC22030-32247-49019-10000040D0000550D000220000449019     GGSL
TXBWIC22030-32247-49024-50000026D0000380D000010001449024     GGSL
TXBWIC22030-32247-49785-50001134D0004144D006600006074978500  GGSL
TXBWIC22030-32247-50524-60023033D0150071D014440076175052430  GGSL
TXBWIC22030-32247-51062-20000012D0000085D000060000051062     GGSL
TXBWIC22030-32247-51105-60000953D0011185D001000001251105     GGSL
TXBWIC22030-32247-51115-50000330D0011160D000950000051115     GGSL
TXBWIC22030-32247-52524-40000336D0002833D000000000085252430  GGSL
TXBWIC22030-32247-52784-20001764D0005237D003480004285278430  GGSL
TXBWIC22030-32247-53105-40000208D0001915D000800010053105     GGSL
TXBWIC22030-32247-53115-30000127D0003088D000860000053115     GGSL
TXBWIC22030-32247-55513-50002671D0021571D015010034675551301  GGSL
TXBWIC22030-32247-55523-40004505D0053423D010020021975552301  GGSL
TXBWIC22030-32247-55783-20000956D0004549D011950005475578300  GGSL
TXBWIC22030-32247-55863-10000004D0000023D005830000075586300  GGSL
TXBWIC22030-32247-56063-40000072D0000277D002080000045606300  GGSL
TXBWIC22030-32247-56513-40039774D0264420D016600112775651301  GGSL
TXBWIC22030-32247-56523-30051938D0561878D026210148375652301  GGSL
TXBWIC22030-32247-56783-10000042D0017040D000020000075678309  GGSL
TXBWIC22030-32247-56788-60002892D0010300D032820033675678300  GGSL
TXBWIC22030-32247-56863-00002267D0012326D009530036975686301  GGSL
TXBWIC22030-32247-57905-60000400D0004220D000000000057905     GGSL
TXBWIC22030-32247-60594-60001406D0008573D003310000076059430  GGSL
TXBWIC22030-32247-71060-20001244D0015917D005890012871060     GGSL
TXBWIC22030-32247-71131-90000337D0006342D001700002571131     GGSL
TXBWIC22030-32247-74150-70002004D0010450D0093601272274150    GGSL
TXBWIC22030-32247-74250-40001807D0014887D0105101194274250    GGSL
TXBWIC22030-32247-74395-20000100D0000754D000690000043959430  GGSL
TXBWIC22030-32247-74850-60001008D0017604D0037600420274850    GGSL
TXBWIC22030-32247-75902-10000214D0015923D000690000175902     GGSL
TXBWIC22030-32247-76121-50000468D0016490D002010020776121     GGSL
TXBWIC22030-32247-76232-80000321D0018596D000990000376232     GGSL
TXBWIC22030-32247-76565-70000033D0001649D000000000076565     GGSL
TXBWIC22030-32247-77160-30001146D0005757D0056401007277160    GGSL
TXBWIC22030-32247-77260-00001824D0015692D0039001344277260    GGSL
TXBWIC22030-32247-77960-90000752D0012357D0024800280277960    GGSL
TXBWIC22030-32247-85526-60000120D0000180D000000000088552600  GGSL
TXBWIC22030-32247-86526-50000120D0000180D000600000088652600  GGSL
TXBWIC22030-32247-95517-10000070D0000256D002130000079551750  GGSL
TXBWIC22030-32247-95597-30000192D0000876D000000000079559750  GGSL
TXBWIC22030-32247-99605-10001089D0020829D001100000099605     GGSL
TXBWIC22030-32903-00169-30000096D0000142D0012000048SLI06000E3GGSL
TXBWIC22030-32903-00191-40000012D0000049D0000000000gab12000e2GGSL
TXBWIC22030-32903-00224-90000006D0000039D0000000000VNP18000E2GGSL
TXBWIC22030-32903-00228-70000012D0000190D0000000000SRO15500A3GGSL
TXBWIC22030-32903-00236-20000006D0000023D0000000000SVN24000E2GGSL
TXBWIC22030-32903-00287-40000006D0000044D0000000000VNP24000E2GGSL
TXBWIC22030-32903-00309-30000552D0001340D0037200036SLI10000E3GGSL
TXBWIC22030-32903-00313-00000006D0000053D0000000000GAB18000E2GGSL
TXBWIC22030-32903-00341-30000060D0000579D0007800000SLI24000E3GGSL
TXBWIC22030-32903-00359-80000168D0000292D0043200024SLI08000E3GGSL
TXBWIC22030-32903-12006-60000120D0000248D0052800096LIA06000E3GGSL
TXBWIC22030-32903-12008-00000309D0000938D0055200072LIA08000E3GGSL
TXBWIC22030-32903-12010-30000156D0000725D0038400024LIA10000E3GGSL
TXBWIC22030-32903-12012-70000120D0000859D0024000012LIA12000E3GGSL
TXBWIC22030-32903-12014-10000300D0002081D0009600000LIA14000E3GGSL
TXBWIC22030-32903-12017-20000228D0003343D0024000000LIA16000E3GGSL
TXBWIC22030-32903-12020-20000048D0000936D0012600018LIA20000E3GGSL
TXBWIC22030-32903-12024-00000012D0000352D0001800000LIA24000E3GGSL
TXBWIC22030-32903-12318-00000102D0000452D0007800000SVN18000E2GGSL
TXBWIC22030-32903-12324-10000048D0000241D0007200000SVN24000E3GGSL
TXBWIC22030-32903-12714-00000240D0001695D0002400084GAB14000E3GGSL
TXBWIC22030-32903-12718-80000030D0000327D0001200006GAB18000E3GGSL
TXBWIC22030-32903-12722-50000048D0000716D0013200036GAB22000E3GGSL
TXBWIC22030-32903-12818-50000054D0000427D0007800000VNP18000E3GGSL
TXBWIC22030-32903-12824-60000246D0002147D0003000006VNP24000E3GGSL
TXBWIC22030-32903-21026-20000024D0000110D0000000000SRO15500E3GGSL
TXBWIC22030-32903-23751-10000012D0000190D0000000000ROS15500E2GGSL
TXBWIC22030-32903-40770-90000006D0000039D0000000000VNP18000A3GGSL
TXBWIC22030-32903-42728-80000006D0000023D0000000000SVN24000A3GGSL
TXBWIC22030-32903-43116-20000006D0000023D0000000000SVN18000A3GGSL
TXBWIC22030-32903-45342-30000006D0000044D0000000000VNP24000A3GGSL
TXBWIC22030-32903-50763-80000096D0000396D0002400036SLI12000E3GGSL
TXBWIC22030-32903-50802-40000132D0000608D0030000024SLI14000E3GGSL
TXBWIC22030-32903-60256-20000012D0000048D0000000000SRO15500E2GGSL
TXBWIC22030-32903-72518-60000024D0000234D0000000016RZ.WC2G0B9GGSL
TXBWIC22030-32903-75049-20000054D0000414D0006600000SLI20000E3GGSL
TXBWIC22030-32903-75067-60000008D0000318D0000000000TEA24000A3GGSL
TXBWIC22030-32903-75080-50000168D0000849D0025200000SLI17000E3GGSL
TXBWIC22030-33349-03110-70000333D0000401D0000001480JP310     GGSL
TXBWIC22030-33349-05618-60000024D0000119D0001600000G310      GGSL
TXBWIC22030-33349-41211-10000132D0000128D0000000000JP212     GGSL
TXBWIC22030-33349-41214-20000016D0000031D0000000000JP226     GGSL
TXBWIC22030-33349-41251-70000060D0000158D0000000000JS50      GGSL
TXBWIC22030-33349-41254-80000460D0001138D0000000480JS32      GGSL
TXBWIC22030-33349-41444-30000028D0000060D0000000056JP406     GGSL
TXBWIC22030-33349-41702-80000005D0000627D0000300000J4BULK    GGSL
TXBWIC22030-33349-66010-90000024D0000160D0000000008TS50HST-8 GGSL
TXBWIC22030-33349-66015-40000028D0000138D0000000000TS20HST-14GGSL
TXBWIC22030-33349-66038-30000064D0000430D0001600000J336GS    GGSL
TXBWIC22030-33349-66041-30000024D0000087D0000000000J3R36G    GGSL
TXBWIC22030-33349-66043-70000011D0000075D0000000000J616GS    GGSL
TXBWIC22030-33349-66044-40000110D0001144D0000000370J636GS    GGSL
TXBWIC22030-33349-66070-30000036D0000156D0000000444J6R16G    GGSL
TXBWIC22030-33524-43225-50000249D0002163D0000000000MP0020    GGSL
TXBWIC22030-33524-43240-80000014D0000188D0000500000MP0020    GGSL
TXBWIC22030-33607-00001-50000084D0003099D0010000028GBA-1     GGSL
TXBWIC22030-33745-97185-40000004D0000103D000010000097185     GGSL
TXBWIC22030-34411-74501-40000030D0000710D0000000000874501-100GGSL
TXBWIC22030-34613-00002-70000245D0003295D0107800107LH002     GGSL
TXBWIC22030-34613-00003-40000262D0003687D0052400101LH003     GGSL
TXBWIC22030-34613-00004-10000160D0002306D0060800088LH004     GGSL
TXBWIC22030-34613-00005-80000001D0000021D0000200000LH005     GGSL
TXBWIC22030-34613-00006-50000235D0003654D0187900104LH006     GGSL
TXBWIC22030-34613-00016-40000012D0000041D0000000000LH016     GGSL
TXBWIC22030-34613-00022-50000015D0000392D0005400022LH022     GGSL
TXBWIC22030-34613-00029-40000007D0000099D00014000248205      GGSL
TXBWIC22030-34613-00060-70000001D0000069D0002900015TP60      GGSL
TXBWIC22030-34613-00068-30000006D0000073D000360015068WP      GGSL
TXBWIC22030-34613-00225-00000001D0000067D0002100000225       GGSL
TXBWIC22030-34613-00328-80000012D0000051D0000000012328       GGSL
TXBWIC22030-34613-00540-40000027D0000134D00006000945-40HD    GGSL
TXBWIC22030-34613-00553-40000012D0000029D0000000000553bl     GGSL
TXBWIC22030-34613-00640-10000007D0000037D00000001546-40HD    GGSL
TXBWIC22030-34613-00805-40000009D0000084D0000200110SS5       GGSL
TXBWIC22030-34613-01150-40000080D0000225D00140006601150PDQ   GGSL
TXBWIC22030-34613-01161-00000036D0000117D00000003001161PDQ   GGSL
TXBWIC22030-34613-01904-30000012D0000059D00024000001904      GGSL
TXBWIC22030-34613-01908-10000012D0000059D00012000001908      GGSL
TXBWIC22030-34613-03378-00000012D0000101D00000000243378      GGSL
TXBWIC22030-34613-03603-30000093D0000372D0000900171U3603     GGSL
TXBWIC22030-34613-04803-60000060D0000300D0019800069U4803     GGSL
TXBWIC22030-34613-04830-20000048D0000492D00006000004830      GGSL
TXBWIC22030-34613-04850-00000294D0001452D00036000003104BL    GGSL
TXBWIC22030-34613-07757-90000468D0001794D00000000967757BL    GGSL
TXBWIC22030-34613-07758-60001596D0006118D00000000847758BL    GGSL
TXBWIC22030-34613-07759-30001740D0006715D00072000727759BL    GGSL
TXBWIC22030-34613-09509-20000060D0000229D00000007449509      GGSL
TXBWIC22030-34613-09580-10000108D0000338D00000000249580BL    GGSL
TXBWIC22030-34613-09706-50000036D0000148D00000000009706      GGSL
TXBWIC22030-34613-34009-30000012D0000140D00024000002130BG    GGSL
TXBWIC22030-34613-70052-10002094D0024158D000180013270052     GGSL
TXBWIC22030-34613-71087-20001776D0008099D000540099071087BL   GGSL
TXBWIC22030-34613-95006-30000012D0000096D001260013295006     GGSL
TXBWIC22030-34613-96006-20000024D0000228D000060006696006BG   GGSL
TXBWIC22030-35307-00803-90000012D0000021D0000000000803       GGSL
TXBWIC22030-35307-00808-40000012D0000028D0000000000808       GGSL
TXBWIC22030-35307-00816-90000012D0000019D0000000000816       GGSL
TXBWIC22030-35307-00818-30000012D0000021D0000000000818       GGSL
TXBWIC22030-35307-00819-00000060D0000114D0000000000819       GGSL
TXBWIC22030-35307-00820-60000120D0000189D0025200300820       GGSL
TXBWIC22030-35307-00826-80000108D0000208D0016800300826       GGSL
TXBWIC22030-35307-00827-50000012D0000023D0000000000827       GGSL
TXBWIC22030-35307-00828-20000012D0000028D0000000000828       GGSL
TXBWIC22030-35307-00835-00000012D0000090D0002400000835       GGSL
TXBWIC22030-35307-00839-80000024D0000074D0000000000839       GGSL
TXBWIC22030-35307-00841-10000012D0000021D0000000000841       GGSL
TXBWIC22030-35307-00844-20000012D0000032D0004800000844       GGSL
TXBWIC22030-35307-00846-30000048D0000152D0009600000846       GGSL
TXBWIC22030-35307-00848-00000072D0000156D0000000024848       GGSL
TXBWIC22030-35307-00861-90000036D0000149D0007200312861       GGSL
TXBWIC22030-35307-00864-00000012D0000046D0000000000864       GGSL
TXBWIC22030-35307-00869-50000012D0000106D0000000000869       GGSL
TXBWIC22030-35307-00874-90000156D0000233D0048000048874       GGSL
TXBWIC22030-35307-01250-00000036D0000132D00000000001250      GGSL
TXBWIC22030-35307-01601-00000174D0002387D00228000301601      GGSL
TXBWIC22030-35307-01612-60000048D0000176D00132002281612      GGSL
TXBWIC22030-35307-01618-80000024D0000148D00000000001618      GGSL
TXBWIC22030-35307-01630-00000006D0000043D00000000001630      GGSL
TXBWIC22030-35307-01635-50000009D0000146D00035000001635      GGSL
TXBWIC22030-35307-01810-60000278D0001455D00333000181810      GGSL
TXBWIC22030-35307-01815-10000157D0001164D00192000131815      GGSL
TXBWIC22030-35307-01817-50000012D0000096D00000000001817-6    GGSL
TXBWIC22030-35307-01818-20000006D0000066D00000000001818-6    GGSL
TXBWIC22030-35307-01820-50000075D0000974D00085000381820      GGSL
TXBWIC22030-35307-01825-00000197D0001981D00236004741825      GGSL
TXBWIC22030-35307-01840-30000048D0000767D00084000061840      GGSL
TXBWIC22030-35307-01845-80000012D0000158D00000000001845      GGSL
TXBWIC22030-35355-00000-00000041D0009291D00000000054960BLD   GGSL
TXBWIC22030-35355-00072-60000001D0000080D0003200016TP72      GGSL
TXBWIC22030-35355-00325-30000048D0000247D0029100164325       GGSL
TXBWIC22030-35355-00802-90000010D0000160D0000600128SS2       GGSL
TXBWIC22030-35355-00803-60000017D0000195D0000600124SS3       GGSL
TXBWIC22030-35355-00804-30000012D0000261D0000000168SS4       GGSL
TXBWIC22030-35355-00806-70000026D0000339D0000800151SS6       GGSL
TXBWIC22030-35355-00924-80001376D0016776D0022500307924       GGSL
TXBWIC22030-35355-01151-70000010D0000048D00010004301151PDQ   GGSL
TXBWIC22030-35355-01160-90000030D0000082D00040003101160      GGSL
TXBWIC22030-35355-01901-80000012D0000059D00012000001901      GGSL
TXBWIC22030-35355-03105-80000012D0000130D00396000243105      GGSL
TXBWIC22030-35355-03108-90000024D0000297D00006000063108      GGSL
TXBWIC22030-35355-05945-80000240D0004210D00024002285945      GGSL
TXBWIC22030-35355-94006-00000080D0000525D000400017294006     GGSL
TXBWIC22030-35951-07011-60000001D0000087D000450000007011     GGSL
TXBWIC22030-36348-00610-70000133D0000672D00385000000610      GGSL
TXBWIC22030-36348-00645-90000050D0000696D0013000096645       GGSL
TXBWIC22030-36348-00745-60000010D0000253D00003000030745      GGSL
TXBWIC22030-36348-01078-40000014D0000519D00024000001078      GGSL
TXBWIC22030-36348-01079-10000048D0002386D00078000181079      GGSL
TXBWIC22030-36434-00000-00000292D0068134D003840035610-12420  GGSL
TXBWIC22030-36434-10000-00000024D0000238D001440000010-14510  GGSL
TXBWIC22030-36434-10012-20000036D0000521D000000007210-10012  GGSL
TXBWIC22030-36434-11000-80000289D0003137D003350003860-11000  GGSL
TXBWIC22030-36434-12342-80000086D0000579D003270002760-12342  GGSL
TXBWIC22030-36434-12343-50000022D0000221D002060000560-12343  GGSL
TXBWIC22030-36434-12345-90000096D0001078D000480045710-12345  GGSL
TXBWIC22030-36434-12346-60000485D0002283D006630006160-12346  GGSL
TXBWIC22030-36434-12348-00000024D0000218D000000000010-12348  GGSL
TXBWIC22030-36434-12349-70000058D0000266D001020000360-12349  GGSL
TXBWIC22030-36434-12353-40000228D0004220D005770005560-12353  GGSL
TXBWIC22030-36434-12354-10000062D0000421D001480001810-12354  GGSL
TXBWIC22030-36434-12355-80000139D0001038D002770007510-12355  GGSL
TXBWIC22030-36434-12356-50000185D0001616D002780005210-12356  GGSL
TXBWIC22030-36434-12357-20000093D0000889D002840000010-12357  GGSL
TXBWIC22030-36434-12625-20000036D0000223D000000000060-12625  GGSL
TXBWIC22030-36434-12700-60000264D0002046D000360018010-12700  GGSL
TXBWIC22030-36434-12710-50000060D0000438D001920000010-12710  GGSL
TXBWIC22030-36434-12720-40000023D0000157D000360007210-12720  GGSL
TXBWIC22030-36434-12721-10000006D0000027D000000000060-12721  GGSL
TXBWIC22030-36434-13200-00000024D0000115D00096000006013200   GGSL
TXBWIC22030-36434-13600-50000060D0001153D000000008410-13600  GGSL
TXBWIC22030-36434-13610-20000096D0001547D000000013210-13610  GGSL
TXBWIC22030-36434-14800-80000168D0002952D000000004810-14800  GGSL
TXBWIC22030-36434-14803-20000006D0000096D000000000060-14803  GGSL
TXBWIC22030-36434-14806-30000006D0000096D000000000060-14806  GGSL
TXBWIC22030-36434-14860-20000012D0000164D000000000010-14860  GGSL
TXBWIC22030-36434-14865-00000006D0000083D000000000060-14865  GGSL
TXBWIC22030-36434-15050-90000078D0001308D001320001210-15050  GGSL
TXBWIC22030-36434-15080-30000030D0000631D000240001210-15080  GGSL
TXBWIC22030-36434-15105-60000015D0000631D000170003115105     GGSL
TXBWIC22030-36434-17000-20000096D0003996D000000002470-17000  GGSL
TXBWIC22030-36434-17010-10000012D0000277D000000000010-17010  GGSL
TXBWIC22030-36434-17051-40000012D0000154D000000000010 17051  GGSL
TXBWIC22030-36434-17061-30000010D0000071D00140000001017061   GGSL
TXBWIC22030-36434-18037-70000012D0000098D00000000001028037   GGSL
TXBWIC22030-36434-22318-00000257D0001187D007210001860-22318  GGSL
TXBWIC22030-36434-22341-80000012D0000138D000000001210-22341  GGSL
TXBWIC22030-36434-22358-60000006D0000073D000000000010-22358  GGSL
TXBWIC22030-36434-22373-90000060D0000904D00000000006022373   GGSL
TXBWIC22030-36434-22626-60000208D0002564D002290001560-22626  GGSL
TXBWIC22030-36434-22731-70000077D0000831D001380002260-22731  GGSL
TXBWIC22030-36434-22732-40000061D0000861D006380000060-22732  GGSL
TXBWIC22030-36434-28010-70000972D0007240D004200027610-28010  GGSL
TXBWIC22030-36434-28020-60000432D0003160D000000003610-28020  GGSL
TXBWIC22030-36434-32700-00003005D0020715D004260120010-32700  GGSL
TXBWIC22030-36434-34500-10000096D0000988D002760022810-34500  GGSL
TXBWIC22030-36434-60123-00000006D0008012D000000000060123     GGSL
TXBWIC22030-36434-60133-90000002D0003063D000000000060133     GGSL
TXBWIC22030-36434-65095-50000018D0025126D000000000365095     GGSL
TXBWIC22030-36434-82342-70000032D0000462D001600000260-82342  GGSL
TXBWIC22030-36865-12250-20011398D0022409D003000078071140180  GGSL
TXBWIC22030-36865-14511-20000540D0001115D009000000071451180  GGSL
TXBWIC22030-36865-24511-90003480D0010281D002400000072451180  GGSL
TXBWIC22030-36865-71751-70000180D0000346D000000000071751180  GGSL
TXBWIC22030-37321-00022-80000171D0001069D0005400012022       GGSL
TXBWIC22030-37321-00023-50000016D0000288D0000000324023       GGSL
TXBWIC22030-37321-00024-20000201D0002749D0035200186024       GGSL
TXBWIC22030-37321-00026-60000144D0002000D0067801014026       GGSL
TXBWIC22030-37321-00051-80000006D0000073D0000000000051       GGSL
TXBWIC22030-37321-00053-20000012D0000029D0000000000053       GGSL
TXBWIC22030-37321-00066-20000012D0000161D0000000180066       GGSL
TXBWIC22030-37321-00068-60000048D0000240D0044300288068       GGSL
TXBWIC22030-37321-00069-30000264D0003326D0108000408069       GGSL
TXBWIC22030-37321-00070-90000138D0001989D0057000456070       GGSL
TXBWIC22030-37321-00081-50000012D0000077D0000000228081       GGSL
TXBWIC22030-37321-00097-60000012D0000055D0000000000097       GGSL
TXBWIC22030-37321-00105-80000180D0000493D0045600288105       GGSL
TXBWIC22030-37321-00106-50000144D0000404D0212400588106       GGSL
TXBWIC22030-37321-00107-20000108D0000309D0214800540107       GGSL
TXBWIC22030-37321-00108-90000264D0000717D0112800816108       GGSL
TXBWIC22030-37321-00110-20000104D0000346D0000000160110       GGSL
TXBWIC22030-37321-00114-00000016D0000048D0000800000114       GGSL
TXBWIC22030-37321-00116-40000016D0000052D0000000128116       GGSL
TXBWIC22030-37321-00120-10000012D0000066D0000000120120       GGSL
TXBWIC22030-37321-00123-20000078D0000302D0275400000123       GGSL
TXBWIC22030-37321-00127-00000192D0001594D0042000360127       GGSL
TXBWIC22030-37321-00141-60000024D0000107D0031200168141       GGSL
TXBWIC22030-37321-00150-80000150D0002272D0185101254150       GGSL
TXBWIC22030-37321-00166-90000114D0000637D0015000120166       GGSL
TXBWIC22030-37321-00196-60000012D0000064D0000000000196       GGSL
TXBWIC22030-37321-00197-30000048D0000262D0000000000197       GGSL
TXBWIC22030-37321-00202-40000471D0005137D0011300222202       GGSL
TXBWIC22030-37321-00203-10000222D0003237D0025800096203       GGSL
TXBWIC22030-37321-00210-90000163D0001009D0075600060210       GGSL
TXBWIC22030-37321-00211-60000168D0001447D0006000288211       GGSL
TXBWIC22030-37321-00213-00000291D0003061D0049100048213       GGSL
TXBWIC22030-37321-00214-70000291D0001590D0047100048214       GGSL
TXBWIC22030-37321-00216-10000048D0000732D0004800276216       GGSL
TXBWIC22030-37321-00217-80000024D0000222D0000000012217       GGSL
TXBWIC22030-37321-00238-30000156D0001284D0046200474238       GGSL
TXBWIC22030-37321-00240-60000012D0000143D0001200000240       GGSL
TXBWIC22030-37321-00250-50000594D0002869D0116401110250       GGSL
TXBWIC22030-37321-00252-90000084D0000953D0094500150252       GGSL
TXBWIC22030-37321-00253-60000060D0001198D0042600024253       GGSL
TXBWIC22030-37321-00255-00000081D0001672D0068100180255       GGSL
TXBWIC22030-37321-00257-40000030D0000116D00324004502576      GGSL
TXBWIC22030-37321-00274-10000382D0002215D00798009422746      GGSL
TXBWIC22030-37321-00277-20000006D0000215D0000000000277       GGSL
TXBWIC22030-37321-00285-70000012D0000063D0000000000285       GGSL
TXBWIC22030-37321-00307-60000065D0000265D0053400696307       GGSL
TXBWIC22030-37321-00309-00000054D0000818D0029100012309       GGSL
TXBWIC22030-37321-00312-00000012D0000265D0000000000312       GGSL
TXBWIC22030-37321-00330-40000123D0001080D0049800012330       GGSL
TXBWIC22030-37321-00331-10000063D0000924D00858000063316      GGSL
TXBWIC22030-37321-00377-90000012D0000298D0012000000377       GGSL
TXBWIC22030-37321-00404-20000024D0000187D0000000024404       GGSL
TXBWIC22030-37321-00411-00000024D0000086D0019200012411       GGSL
TXBWIC22030-37321-00420-20000019D0001021D0026200591420       GGSL
TXBWIC22030-37321-00426-40000042D0000467D0088800192426       GGSL
TXBWIC22030-37321-00428-80000195D0000748D0075900540428       GGSL
TXBWIC22030-37321-00442-40000027D0000165D0013200096442       GGSL
TXBWIC22030-37321-00443-10000102D0001074D0037900060443       GGSL
TXBWIC22030-37321-00506-30000060D0000280D0042000312506       GGSL
TXBWIC22030-37321-00543-80000072D0000248D00552000005436      GGSL
TXBWIC22030-37321-00544-50000048D0000271D00300000065446      GGSL
TXBWIC22030-37321-00549-00000168D0001390D0021600000549       GGSL
TXBWIC22030-37321-00552-00000024D0000369D0016200006552       GGSL
TXBWIC22030-37321-00553-70000026D0000766D0021300000553       GGSL
TXBWIC22030-37321-00560-50000012D0000057D0000600000560       GGSL
TXBWIC22030-37321-00564-30000204D0001975D00390003365646      GGSL
TXBWIC22030-37321-00568-10000024D0000482D0007200000568       GGSL
TXBWIC22030-37321-00571-10000093D0000759D0006300000571       GGSL
TXBWIC22030-37321-00573-50000075D0000336D0014700021573       GGSL
TXBWIC22030-37321-00577-30000044D0000426D0012400000574       GGSL
TXBWIC22030-37321-00611-40000076D0001645D0039600024611       GGSL
TXBWIC22030-37321-00629-90000012D0000038D0033600000629       GGSL
TXBWIC22030-37321-00631-20003534D0010105D1663001596631       GGSL
TXBWIC22030-37321-00634-30000012D0000077D0000000000634       GGSL
TXBWIC22030-37321-00652-70000096D0000510D0046200018652       GGSL
TXBWIC22030-37321-00655-80000138D0000838D00471005586556      GGSL
TXBWIC22030-37321-00680-00000251D0002285D0083100006680       GGSL
TXBWIC22030-37321-00685-50000442D0004921D0055800087685       GGSL
TXBWIC22030-37321-00690-90000033D0000339D0050400006690       GGSL
TXBWIC22030-37321-00691-60000032D0000267D00441000046914      GGSL
TXBWIC22030-37321-00692-30000658D0007331D0209100022692150    GGSL
TXBWIC22030-37321-00697-80000036D0000117D0000000000697       GGSL
TXBWIC22030-37321-00698-50000012D0000066D0000000024698       GGSL
TXBWIC22030-37321-00705-00000012D0000063D0000000000705       GGSL
TXBWIC22030-37321-00728-90000012D0000160D0000000000728       GGSL
TXBWIC22030-37321-00753-10000600D0005622D0000000000753       GGSL
TXBWIC22030-37321-00754-80000320D0008787D0001600000754       GGSL
TXBWIC22030-37321-00771-50000048D0000239D0014400030771       GGSL
TXBWIC22030-37321-00775-30000465D0002720D0160200588775       GGSL
TXBWIC22030-37321-00777-70000021D0000223D0016200015777       GGSL
TXBWIC22030-37321-00779-10000114D0001012D0027300219779       GGSL
TXBWIC22030-37321-00784-50000150D0000447D0057000036784       GGSL
TXBWIC22030-37321-00786-90000966D0003279D0170400300786       GGSL
TXBWIC22030-37321-00789-00000152D0001097D0054700406791       GGSL
TXBWIC22030-37321-00803-30000066D0000591D00072000008036      GGSL
TXBWIC22030-37321-00807-10000016D0000376D0000000096807       GGSL
TXBWIC22030-37321-00811-80000510D0005883D02139000488116      GGSL
TXBWIC22030-37321-00813-20000150D0002210D0044400180813       GGSL
TXBWIC22030-37321-00814-90000012D0001198D0000000030814       GGSL
TXBWIC22030-37321-00857-60000204D0001817D0115200024857       GGSL
TXBWIC22030-37321-00858-30000036D0000509D0002400120858       GGSL
TXBWIC22030-37321-00862-00000252D0003141D0033900027862       GGSL
TXBWIC22030-37321-00863-70000012D0000155D00000000008634      GGSL
TXBWIC22030-37321-00866-80000036D0000190D0000000000865       GGSL
TXBWIC22030-37321-00870-50000060D0000274D0014400036870       GGSL
TXBWIC22030-37321-00871-20000045D0000453D00063000098719      GGSL
TXBWIC22030-37321-00875-00000057D0000633D0023000012875       GGSL
TXBWIC22030-37321-00880-40000111D0001288D0047700144880       GGSL
TXBWIC22030-37321-00883-50000036D0000181D00324006428836      GGSL
TXBWIC22030-37321-00892-70000084D0000784D0006001224892       GGSL
TXBWIC22030-37321-00903-00000012D0000074D0000000120903       GGSL
TXBWIC22030-37321-00908-50000006D0000064D00000000009086      GGSL
TXBWIC22030-37321-00925-20001096D0003508D0212100615925       GGSL
TXBWIC22030-37321-00939-90000171D0001912D0047700480939       GGSL
TXBWIC22030-37321-00941-20000711D0007675D0213900156941       GGSL
TXBWIC22030-37321-00951-10000114D0000503D0064500741951       GGSL
TXBWIC22030-37321-00952-80000099D0000548D0009300060952       GGSL
TXBWIC22030-37321-00963-40000024D0000196D00000000729636      GGSL
TXBWIC22030-37321-00969-60000012D0000076D0000000096969       GGSL
TXBWIC22030-37321-00982-50000060D0000288D0017100180982       GGSL
TXBWIC22030-37321-00987-00000063D0000612D0096400468987       GGSL
TXBWIC22030-37321-01971-80000024D0000102D00024000001971      GGSL
TXBWIC22030-37321-01972-50000012D0000048D00000000001972      GGSL
TXBWIC22030-37321-02360-90000078D0000580D002880003023606     GGSL
TXBWIC22030-37321-02361-60000057D0000656D00030002372361      GGSL
TXBWIC22030-37321-02601-30000030D0000580D00006002462601      GGSL
TXBWIC22030-37321-02602-00000096D0000509D00000003542602      GGSL
TXBWIC22030-37321-02604-40000033D0000613D00000001412604      GGSL
TXBWIC22030-37321-02612-90000024D0000348D00000003722612      GGSL
TXBWIC22030-37321-02613-60000012D0000110D00000000002613      GGSL
TXBWIC22030-37321-05612-60000079D0001100D00859003965612      GGSL
TXBWIC22030-37321-05712-30000027D0000264D00051000005712      GGSL
TXBWIC22030-37321-05714-70000016D0000475D00024000285714      GGSL
TXBWIC22030-37321-07458-80000024D0000396D00048000007458      GGSL
TXBWIC22030-37321-07465-60000004D0000131D00012000007465      GGSL
TXBWIC22030-37321-07490-80000012D0000070D00132000007490      GGSL
TXBWIC22030-37321-08751-90000019D0000354D00216001258751      GGSL
TXBWIC22030-37321-08752-60000060D0000632D00012000128752      GGSL
TXBWIC22030-37321-09534-70000119D0001364D00357003069534      GGSL
TXBWIC22030-37321-46126-50000400D0000068D094000020046126     GGSL
TXBWIC22030-37321-46183-80000009D0000079D0000000000691       GGSL
TXBWIC22030-37321-46190-60000048D0000175D001200000046190     GGSL
TXBWIC22030-37321-46406-80000054D0000420D003020000846406     GGSL
TXBWIC22030-37321-46540-90000004D0000039D000120000046540     GGSL
TXBWIC22030-37321-46640-60000012D0000069D000000000046640     GGSL
TXBWIC22030-37321-60224-80000002D0000028D000000001060412     GGSL
TXBWIC22030-37321-60360-30000106D0001206D003820000060362     GGSL
TXBWIC22030-37321-60400-60000212D0002809D000000205060402     GGSL
TXBWIC22030-37321-60414-30000036D0001336D000000000060415     GGSL
TXBWIC22030-37321-60420-40000015D0000217D000000000060422     GGSL
TXBWIC22030-37321-60424-20000011D0000415D000000000060425     GGSL
TXBWIC22030-37321-60434-10000020D0000638D000150000060435     GGSL
TXBWIC22030-37321-60460-00000016D0000198D000010000060462     GGSL
TXBWIC22030-37321-60476-10003178D0038473D041090388760478     GGSL
TXBWIC22030-37321-60514-00000342D0004039D025800145460516     GGSL
TXBWIC22030-37321-60613-00000008D0000082D000000000060613     GGSL
TXBWIC22030-37321-61119-60000006D0000088D000000009661121     GGSL
TXBWIC22030-38313-00000-00000027C0000000D0000000003MR 9236   GGSL
TXBWIC22030-38313-00005-90000045D0000980D0000000000GS 6750D  GGSL
TXBWIC22030-38313-00008-00000030D0000795D0055000061BP 3130   GGSL
TXBWIC22030-38313-00060-80000404D0007398D0184400498BP 3160   GGSL
TXBWIC22030-38313-00080-60000206D0004420D0156200588BP 3180D  GGSL
TXBWIC22030-38313-00217-60000006D0000116D0002300012FS 4350   GGSL
TXBWIC22030-38313-00830-70000015D0000472D0008500049BP 6250   GGSL
TXBWIC22030-38313-01010-20001044D0005239D0140403210CT 3010I  GGSL
TXBWIC22030-38313-01020-10000096D0000486D0007200072CT 3020I  GGSL
TXBWIC22030-38313-01030-00000468D0002355D0034200348CT 3030I  GGSL
TXBWIC22030-38313-03050-60000042D0000366D0010800000GT 3050   GGSL
TXBWIC22030-38313-03060-50000006D0000040D0023400006GT 3060   GGSL
TXBWIC22030-38313-03080-30000030D0000229D0010200276GT 3080   GGSL
TXBWIC22030-38313-03214-20000060D0000733D0007200048BP 3214D  GGSL
TXBWIC22030-38313-03244-90000036D0000683D0015000138HS 3244   GGSL
TXBWIC22030-38313-03264-40000006D0000121D0058800000SL 3264   GGSL
TXBWIC22030-38313-03470-20000060D0001851D0006200000FL 3470   GGSL
TXBWIC22030-38313-03634-80000041D0001097D0006500030LG 3634   GGSL
TXBWIC22030-38313-03720-80000767C0001097C0069000000CT 3720   GGSL
TXBWIC22030-38313-03730-70000012D0000080D0020300000CT 3730   GGSL
TXBWIC22030-38313-04110-60000024D0000490D0003000150AL 4110   GGSL
TXBWIC22030-38313-04122-90000012D0000139D0012000000FS 4120   GGSL
TXBWIC22030-38313-04930-00002183D0012815D0230900178AG 4930   GGSL
TXBWIC22030-38313-04930-70001952D0013114D0063200078AG 4930SS GGSL
TXBWIC22030-38313-06970-40000088D0003956D0013900001AH 6970   GGSL
TXBWIC22030-38313-07545-20000082D0001414D0008100014RS 7245   GGSL
TXBWIC22030-38313-08300-00000012D0000081D0004800000AC 8300   GGSL
TXBWIC22030-38313-10000-10000144D0001404D0046400022SS 10000  GGSL
TXBWIC22030-38313-10101-50000001D0000113D0000000000WB 1010   GGSL
TXBWIC22030-38313-10227-20000051D0003442D0011100000AL 6512   GGSL
TXBWIC22030-38313-11000-00000063D0000619D0020400005SS 11000  GGSL
TXBWIC22030-38313-12400-70000278D0003512D0029300070RK 24003  GGSL
TXBWIC22030-38313-13214-90000048D0000420D0017400228FS 3214D  GGSL
TXBWIC22030-38313-13670-30000012D0000279D0000000030BP 3670   GGSL
TXBWIC22030-38313-20001-50000016D0000386D0002800004PD 20000  GGSL
TXBWIC22030-38313-20002-20000015D0000255D0006300102RK 20002  GGSL
TXBWIC22030-38313-20004-60000049D0000762D0008500106CV 20004  GGSL
TXBWIC22030-38313-20022-00000053D0000950D0005000003RK 20022  GGSL
TXBWIC22030-38313-21000-70000089D0001327D0031200080SH 20000  GGSL
TXBWIC22030-38313-21050-20000054D0000253D0000000210CT 3050I  GGSL
TXBWIC22030-38313-24000-40000041D0000316D0062100000FS 4000   GGSL
TXBWIC22030-38313-25008-90000060D0000290D0000000288RK 25008  GGSL
TXBWIC22030-38313-25017-10000177D0001386D0096700014RK 25017  GGSL
TXBWIC22030-38313-26001-90000096D0001216D0000000012SS 26010  GGSL
TXBWIC22030-38313-26020-00000067D0001027D0028000007SS 26020  GGSL
TXBWIC22030-38313-27020-90000020D0000296D0003400018SS 27020  GGSL
TXBWIC22030-38313-28000-00000011D0000208D0004000007SS 28000  GGSL
TXBWIC22030-38313-28010-90000067D0001410D0006600004SS 28010  GGSL
TXBWIC22030-38313-32341-70000021D0000217D0000700047GT 3234   GGSL
TXBWIC22030-38313-32441-40000044D0000462D0001400077GT 3244   GGSL
TXBWIC22030-38313-32541-10000020D0000200D0001200020GT 3254   GGSL
TXBWIC22030-38313-32706-40000007D0000884D0000000000WB 2706FF GGSL
TXBWIC22030-38313-33140-50000008D0000072D0002600056CT 3314   GGSL
TXBWIC22030-38313-33240-20000016D0000155D0005600008CT 3324   GGSL
TXBWIC22030-38313-33340-90000008D0000073D0003200008CT 3334   GGSL
TXBWIC22030-38313-33440-60000192D0001598D0016000160CT 3344   GGSL
TXBWIC22030-38313-33540-30000008D0000070D0006400008CT 3354   GGSL
TXBWIC22030-38313-33640-00000096D0000864D0021600104CT 3364   GGSL
TXBWIC22030-38313-36241-60000051D0001449D0001300027LG 3624   GGSL
TXBWIC22030-38313-36541-70000012D0000261D0000200104LG 3654   GGSL
TXBWIC22030-38313-36841-80000008D0000214D0000300136LG 3684   GGSL
TXBWIC22030-38313-37101-20000002D0000043D0000800006LG 3710   GGSL
TXBWIC22030-38313-37201-90000009D0000162D0005500122LG 3720   GGSL
TXBWIC22030-38313-40021-70000002D0000077D0000000000PD 40020  GGSL
TXBWIC22030-38313-41100-80000004D0000161D0000000000PM 41000  GGSL
TXBWIC22030-38313-42000-00000004D0000153D0000000000PM 42000  GGSL
TXBWIC22030-38313-42919-50000006D0000259D0000000000FK 42010  GGSL
TXBWIC22030-38313-53841-50000007D0000368D0001600002TP 3841   GGSL
TXBWIC22030-38313-56200-70000027D0000233D0001900006RK 62000  GGSL
TXBWIC22030-38313-61062-30000001D0000051D0000100003RK 61062  GGSL
TXBWIC22030-38313-62062-20000008D0000369D0004400000BM 62060  GGSL
TXBWIC22030-38313-63010-20000006D0000261D0000000000SS 63010  GGSL
TXBWIC22030-38313-64063-70000004D0000206D0000000010RK 61063  GGSL
TXBWIC22030-38313-64106-10000006D0000118D0000000006SS 64106  GGSL
TXBWIC22030-38313-64144-30000002D0000037D0001100003SS 64104  GGSL
TXBWIC22030-38313-65000-10000010D0000249D0000300000SS 65000  GGSL
TXBWIC22030-38313-66000-00000010D0000239D0000100024SS 66000  GGSL
TXBWIC22030-38313-68231-60000032D0001578D0013600001SS 68231  GGSL
TXBWIC22030-38313-69961-10000006D0000075D0000000000MA 60061  GGSL
TXBWIC22030-38313-71090-30000002D0000107D0000000000BR 71090  GGSL
TXBWIC22030-38313-73003-10000004D0000069D0000000000ST 73003  GGSL
TXBWIC22030-38313-80000-00000018D0001525D0003100000SF 80000  GGSL
TXBWIC22030-38313-81000-90000200D0002057D0027700029RK 10000  GGSL
TXBWIC22030-38313-90000-70000065D0000594D0001100020SH 10000  GGSL
TXBWIC22030-38313-90110-30000004D0000257D0000000000AS 90110  GGSL
TXBWIC22030-38313-90210-00000002D0000122D0000800000AS 90210  GGSL
TXBWIC22030-38313-90220-90000004D0000271D0000000000AS 90220  GGSL
TXBWIC22030-38313-90310-70000008D0000584D0000000000AS 90310  GGSL
TXBWIC22030-38776-00213-30000001D0000063D0000000001UU1906ST  GGSL
TXBWIC22030-38776-51012-60000001D0000051D0000000000UR1212ST  GGSL
TXBWIC22030-38776-62193-80000001D0000094D0000000002UR1810ST  GGSL
TXBWIC22030-38858-06770-80000008D0000120D00000000003776-04-09GGSL
TXBWIC22030-38858-11293-40000004D0000070D00000000001280-04-07GGSL
TXBWIC22030-38858-11294-10000004D0000094D00000000001281-04-07GGSL
TXBWIC22030-38858-11295-80000004D0000062D00000000001285-04-07GGSL
TXBWIC22030-38858-11296-50000004D0000081D00000000001286-04-07GGSL
TXBWIC22030-39645-11752-10000194D0000903D002230002140200010  GGSL
TXBWIC22030-39996-30293-50000010D0000263D000000041030293     GGSL
TXBWIC22030-40025-54033-40000018D0000892D0006900003RWS-54033 GGSL
TXBWIC22030-40025-54053-20000006D0000128D0002200000RWS-54053 GGSL
TXBWIC22030-40279-03300-20000480D0001156D01512000123300      GGSL
TXBWIC22030-40279-03302-60000420D0001034D0049200072          GGSL
TXBWIC22030-41535-24550-40000351D0016470D003150008624550     GGSL
TXBWIC22030-41535-24560-30001086D0181352D010870025924560     GGSL
TXBWIC22030-41535-24571-90001202D0020606D0286100672100518540 GGSL
TXBWIC22030-41700-70000-50000012D0000045D0000000000G108ORG   GGSL
TXBWIC22030-42204-14504-80000006D0000006D00004000002MMC      GGSL
TXBWIC22030-42206-00056-90000036D0000347D000280005456-6      GGSL
TXBWIC22030-42206-00202-00000354D0000483D0056400066202S      GGSL
TXBWIC22030-42206-00202-10000010D0000013D0001400000202S      GGSL
TXBWIC22030-42206-00269-30000012D0000056D0012000072269       GGSL
TXBWIC22030-42206-00336-20000006D0000027D0000000000336-6     GGSL
TXBWIC22030-42206-00356-00000012D0000078D0000000048356       GGSL
TXBWIC22030-42206-00357-70000144D0002184D0000000060357       GGSL
TXBWIC22030-42206-00395-90000132D0000357D0029500051395S      GGSL
TXBWIC22030-42206-00525-00000114D0000326D0009800061525C      GGSL
TXBWIC22030-42206-00872-50000066D0000178D0026400006872-6     GGSL
TXBWIC22030-42206-03010-80000023D0000245D00066000123010-4    GGSL
TXBWIC22030-42206-03112-90000010D0000012D000000000031Z 1/2   GGSL
TXBWIC22030-42206-09000-30000181D0001287D00200000209000      GGSL
TXBWIC22030-42206-09620-30000062D0002713D00160000079620-8    GGSL
TXBWIC22030-42206-14058-60000024D0000187D00036000489570      GGSL
TXBWIC22030-42206-14066-10000024D0000100D00012000129560C     GGSL
TXBWIC22030-42206-14220-70000110D0000564D0031800072312S      GGSL
TXBWIC22030-42206-14221-40000184D0000398D0049100000313S      GGSL
TXBWIC22030-42206-14222-10000024D0000488D0005400030314S      GGSL
TXBWIC22030-42206-14235-10000112D0000148D0055300000390S      GGSL
TXBWIC22030-42206-14456-00000088D0000183D0023800016420C      GGSL
TXBWIC22030-42206-14501-70000094D0000097D00369000001FMC      GGSL
TXBWIC22030-42206-14502-40000118D0000098D00323000001MMC      GGSL
TXBWIC22030-42206-14503- 0000002D0000002D00009000002FMC      GGSL
TXBWIC22030-42206-14503-10000336D0000375D00567001262FMC      GGSL
TXBWIC22030-42206-14504-80000240D0000222D00647001202MMC      GGSL
TXBWIC22030-42206-14505-50000074D0000082D002300001001MC      GGSL
TXBWIC22030-42206-14506-20000171D0000201D005600013002MC      GGSL
TXBWIC22030-42206-14570-30000102D0000677D0017600020ZBR3/4    GGSL
TXBWIC22030-42206-14571-00000211D0000873D0034200030ZBM3/4    GGSL
TXBWIC22030-42206-14572-70000221D0000980D0037700032ZBF3/4    GGSL
TXBWIC22030-42206-14599-40000012D0000180D00006000009536CH    GGSL
TXBWIC22030-42206-15111-70000048D0000363D000940000015111     GGSL
TXBWIC22030-42206-20491-20000187D0001048D003150001020491-10  GGSL
TXBWIC22030-42206-22261-90000084D0000935D001800015622261     GGSL
TXBWIC22030-42206-22300-50000018D0000239D000780001222300     GGSL
TXBWIC22030-42206-22701-00000008D0000031D001380001022701C    GGSL
TXBWIC22030-42206-38636-60000006D0000059D0000000054R8636     GGSL
TXBWIC22030-42206-40301-80000126D0000962D0017900310XT301     GGSL
TXBWIC22030-42206-44100-30000012D0000254D0000600012XT4100    GGSL
TXBWIC22030-42206-48635-60000036D0000251D0020400168R8635     GGSL
TXBWIC22030-42206-63015-50000011D0000377D000080000863015     GGSL
TXBWIC22030-42206-95501-20000012D0000063D00000000009550C     GGSL
TXBWIC22030-42579-00052-40000003D0000135D0001300003ST47812   GGSL
TXBWIC22030-42579-11212-80000009D0000505D0004900006SSR12GRN  GGSL
TXBWIC22030-42579-11250-00000005D0002278D0012500000P12       GGSL
TXBWIC22030-42579-11500-60000082D0004631D0028200065APB5      GGSL
TXBWIC22030-42579-12342-10000156D0001965D0000000000PSS       GGSL
TXBWIC22030-42579-12343-80000014D0000739D000000000020 YR-3100GGSL
TXBWIC22030-42579-12346-90000048D0000100D0000100000TW3W      GGSL
TXBWIC22030-42579-13250-80000767D0035967D0090700105P3        GGSL
TXBWIC22030-42579-14250-70000649D0049978D0098200047P4        GGSL
TXBWIC22030-42579-15250-60000211D0022206D0020000009P5        GGSL
TXBWIC22030-42579-16250-50000510D0064330D0056300026P6        GGSL
TXBWIC22030-42579-18250-30000041D0012492D0019500001P8        GGSL
TXBWIC22030-42579-19342-40000312D0003867D003120000020 YR-324 GGSL
TXBWIC22030-42579-22341-10003200D0025502D04704011206 YR-350  GGSL
TXBWIC22030-42579-22342-80000252D0003618D0024000054NS12      GGSL
TXBWIC22030-42579-22345-90001668D0003724D0579003288APRC      GGSL
TXBWIC22030-42579-23100-30000016D0000137D00128002726 YR-3100 GGSL
TXBWIC22030-42579-32355-50000336D0002239D0067200098RS15      GGSL
TXBWIC22030-42579-43004-80000034D0003633D0012000012NB4       GGSL
TXBWIC22030-42579-43006-20000013D0001996D0005400000NB6       GGSL
TXBWIC22030-42579-50154-00000136D0004636D0029600016PRO BLK-31GGSL
TXBWIC22030-42579-50169-40000342D0007120D0059400018PRO BLK-45GGSL
TXBWIC22030-42579-50264-60011398C0007120C0000000000SG200PAL  GGSL
TXBWIC22030-42579-63041-70000005D0000554D0000900001KG6       GGSL
TXBWIC22030-42579-63101-80000041D0001744D0000000099TSL-BX    GGSL
TXBWIC22030-42579-63105-60000023D0001487D0006600009350ROLL   GGSL
TXBWIC22030-42579-63306-70000936D0005998D02880001803 YR-350  GGSL
TXBWIC22030-42579-81359-90000003D0000386D0000000000SG12500   GGSL
TXBWIC22030-42579-81360-50000055D0011787D0003100009NS12250   GGSL
TXBWIC22030-42579-81405-30000010D0000088D0000000000AP75      GGSL
TXBWIC22030-42579-81428-20000164D0000336D0076400014BURLAP BAGGGSL
TXBWIC22030-42579-81497-40000003D0000000D0000300002RDR + SIGNGGSL
TXBWIC22030-42579-81566-10000093D0015276D0064200035SBLT10300 GGSL
TXBWIC22030-42579-81568-50000197D0035961D0094500102SBLT12300 GGSL
TXBWIC22030-42579-81569-20000461D0105042D0107500341SBLT15.530GGSL
TXBWIC22030-42579-81571-50000353D0016369D0077800107SBLT3300  GGSL
TXBWIC22030-42579-81572-20000157D0009067D0033100087SBLT4300  GGSL
TXBWIC22030-42579-81573-90000437D0041618D0132400263SBLT6300  GGSL
TXBWIC22030-42579-81605-70000006D0000595D0001500001PRO BLK-33GGSL
TXBWIC22030-42579-81606-40000086D0010668D0008000001PRO BLK-43GGSL
TXBWIC22030-42579-81607-10000060D0010953D0009900001PRO BLK-63GGSL
TXBWIC22030-42579-81608-80000001D0000271D0000900000PRO BLK-83GGSL
TXBWIC22030-42579-81619-40000008D0000549D0000000000APB1      GGSL
TXBWIC22030-42579-81624-80000036D0000580D0000000000PRO BLK-35GGSL
TXBWIC22030-42579-81626-20000016D0000300D0000000000PRO BRN-35GGSL
TXBWIC22030-42579-81733-70000023D0001625D0005000000CS-3300BLKGGSL
TXBWIC22030-42579-81734-40000052D0004599D0004200029CS-4300BLKGGSL
TXBWIC22030-42579-81735-10000037D0005229D0007200003CS-6300BLKGGSL
TXBWIC22030-42579-81738-20000002D0000491D0000600000CS-350BLK GGSL
TXBWIC22030-42579-81739-90000006D0001674D0000800000CS-3100BLKGGSL
TXBWIC22030-42579-82278-20001950D0021317D0022800384TWBAG-12  GGSL
TXBWIC22030-42579-82293-50000028D0000222D0033600000SUPREME625GGSL
TXBWIC22030-42579-82320-80000024D0000269D0000000192TWD-24    GGSL
TXBWIC22030-42579-82350-50000025D0000069D0000000000BIO-DSTAKEGGSL
TXBWIC22030-42579-82366-60000006D0001309D0000000000WGC15F    GGSL
TXBWIC22030-42579-82375-80000002D0000978D0000400000ULTIMATE15GGSL
TXBWIC22030-42579-82471-70000040D0000538D0084000000DWB41324  GGSL
TXBWIC22030-42579-82472-40000048D0001324D0140400012DWB41350  GGSL
TXBWIC22030-42853-00000-00003085D0068248D0041400115BFTD-DB12 GGSL
TXBWIC22030-42853-10000-10000132D0000381D0028800552ST3-BB4   GGSL
TXBWIC22030-42853-12000-90000096D0000254D0000800000MGC-DB12  GGSL
TXBWIC22030-42853-40000-20000001D0000133D0000000001TSF-FD48  GGSL
TXBWIC22030-42853-42000-00001782D0010106D0040800102TSBF-BB6  GGSL
TXBWIC22030-42853-42001-70000031D0009430D0000100011TSBF-FD48 GGSL
TXBWIC22030-42853-50000-90000189D0005070D0027600085TSW-BB6   GGSL
TXBWIC22030-42853-60000-60000200D0000348D0012001020FFTR-BB4  GGSL
TXBWIC22030-42853-61000-50000256D0001100D0002400004FFTR2-BB4 GGSL
TXBWIC22030-42853-62000-40009892D0010690D0004400840FFTA-DB12 GGSL
TXBWIC22030-42853-65000-10000108D0000253D0000000156AB6-BB4   GGSL
TXBWIC22030-42853-75017-60003456D0015897D0009600128PFTR-BB8  GGSL
TXBWIC22030-42853-75117-30003324D0005893D0002400072PFTA-DB12 GGSL
TXBWIC22030-42853-77305-40001783D0054669D0041500329FTD-DB12  GGSL
TXBWIC22030-42853-77503-20000064D0008087D0000000000YJTD-FD48-GGSL
TXBWIC22030-42853-77603-90000096D0012131D0000000000YJTD-FD48-GGSL
TXBWIC22030-42853-79701-00013872D0051120D0000000000BFTD-FD48 GGSL
TXBWIC22030-42853-81100-60000050D0002363D0003400000WHYTA-DB16GGSL
TXBWIC22030-42854-03298-10000108D0000237D0136800036FG32ORB112GGSL
TXBWIC22030-42854-09098-10000001D0000205D0000000000FG32ORB190GGSL
TXBWIC22030-42854-63278-50000084D0000167D0062400000FG32PC1-12GGSL
TXBWIC22030-42854-64870-00000036D0000252D0016200006FG48PC1-6 GGSL
TXBWIC22030-43312-10003-70000145D0000452D0079300220103-0-009 GGSL
TXBWIC22030-43312-10027-30000144D0001248D0026400000104-0-003 GGSL
TXBWIC22030-43312-10031-00000043D0000286D0009600000107-0-002 GGSL
TXBWIC22030-43326-15745-40000016D0000222D0000000000M12X16    GGSL
TXBWIC22030-43792-50001-30000100D0003432D0002500019Y32       GGSL
TXBWIC22030-43792-60002-70000115D0004102D0005400024W32       GGSL
TXBWIC22030-43792-70002-40000075D0002702D0003600019R32       GGSL
TXBWIC22030-43792-80001-40000011D0000409D0000600011SW10      GGSL
TXBWIC22030-43792-90003-50000015D0000788D0002300004GA10      GGSL
TXBWIC22030-43792-90004-20000007D0000777D0000000000GA30      GGSL
TXBWIC22030-44882-30501-30000015D0000219D0000000035FXG5825   GGSL
TXBWIC22030-44882-30502-00000010D0000212D0006000105FXG5850   GGSL
TXBWIC22030-44882-30504-40000009D0000270D0007200012FXG5875   GGSL
TXBWIC22030-46539-62045-60004002D0055409D0838400916          GGSL
TXBWIC22030-46539-64032-40004257D0036955D0493204446          GGSL
TXBWIC22030-46753-00000-00000001D0000344D0000000000          GGSL
TXBWIC22030-46753-01032-30000006D0000025D00204000004675301032GGSL
TXBWIC22030-46753-01128-30000406C0000025C00260000284675301128GGSL
TXBWIC22030-46753-01500-70000003D0000155D00005000004675302500GGSL
TXBWIC22030-46753-02032-20000048D0000250D00151000124675302032GGSL
TXBWIC22030-46753-02033-90000060D0000366D00000000004675302033GGSL
TXBWIC22030-46753-02128-20000052D0000644D00159000204675302128GGSL
TXBWIC22030-46753-03128-10000056D0000751D00108000084675303128GGSL
TXBWIC22030-46753-04032-00000360D0002167D01074000424675304032GGSL
TXBWIC22030-46753-04033-70001535C0000150C00419001562004675304GGSL
TXBWIC22030-46753-04128-00000212D0003305D00388001564675304128GGSL
TXBWIC22030-46753-04500-40000016D0001018D000060000145004     GGSL
TXBWIC22030-46753-05032-90000436C0000900C00558001984675305032GGSL
TXBWIC22030-46753-05128-90001824C0000900C00440000644675305128GGSL
TXBWIC22030-46753-07032-70000036D0000197D00129000004675307032GGSL
TXBWIC22030-46753-08016-60000036D0000304D000000002480160     GGSL
TXBWIC22030-46753-08032-60000129D0004082D00966004624675308032GGSL
TXBWIC22030-46753-13032-80000012D0000059D00000000004675313032GGSL
TXBWIC22030-46753-14032-70001178C0000059C00183000244675314032GGSL
TXBWIC22030-46753-14128-70000096D0000831D00330000364675314128GGSL
TXBWIC22030-46753-14550-60000001D0000298D000000000014550     GGSL
TXBWIC22030-46753-17005-80000192D0000808D00338000064675317005GGSL
TXBWIC22030-46753-17040-90002594D0035277D00766002504675317040GGSL
TXBWIC22030-46753-17201-40000014D0005950D000000000072014     GGSL
TXBWIC22030-46753-18004-00000012D0000118D0000000024          GGSL
TXBWIC22030-46753-19032-20000024D0000162D00000000122004675319GGSL
TXBWIC22030-46753-19128-20000012D0000170D0000000004          GGSL
TXBWIC22030-46753-20128-80000012D0000204D0002000008          GGSL
TXBWIC22030-46753-21032-70002880C0000204C006060025210327     GGSL
TXBWIC22030-46753-21128-70001759C0000204C002920035612287     GGSL
TXBWIC22030-46878-26380-20000027D0000402D000300000026380     GGSL
TXBWIC22030-46878-26381-90000033D0000447D000120000026381     GGSL
TXBWIC22030-46878-26382-60000024D0000336D000240000026382     GGSL
TXBWIC22030-46878-27389-40000036D0000852D000240000027389     GGSL
TXBWIC22030-46878-27436-50000021D0000498D000180000027436     GGSL
TXBWIC22030-46878-27560-70000036D0000852D000240000327560     GGSL
TXBWIC22030-47977-00562-10000004D0000157D000000000024602     GGSL
TXBWIC22030-47977-00823-30000004D0000038D000000000024075     GGSL
TXBWIC22030-47977-00940-70000004D0000026D000000000024126     GGSL
TXBWIC22030-47985-10023-30000176D0001291D0011700020YCBSM3CF-PGGSL
TXBWIC22030-47985-10033-20000415D0003344D0067400000YCBSI3CF-PGGSL
TXBWIC22030-48307-70003-20000015D0000129D0016600000ST3       GGSL
TXBWIC22030-48307-70004-90000032D0000379D0023600001ST4-WS    GGSL
TXBWIC22030-48307-70005-60000019D0000309D0022800005ST5       GGSL
TXBWIC22030-48307-70006-30000063D0001192D0007500041ST6       GGSL
TXBWIC22030-48745-22244-80000020D0000538D0000800000BL22244   GGSL
TXBWIC22030-50197-00104-50001590D0007426D0268300294HT4       GGSL
TXBWIC22030-50197-00108-30000114D0000858D0027600024HT8       GGSL
TXBWIC22030-50197-00118-20001195D0014575D0126500171HT18      GGSL
TXBWIC22030-50197-00136-60000484D0010349D0045900208HT36      GGSL
TXBWIC22030-50197-00150-20000267D0007499D0012700053HT50      GGSL
TXBWIC22030-50197-00204-20001212D0005796D0247900600PT4       GGSL
TXBWIC22030-50197-00208-00000102D0000757D0019200018PT8       GGSL
TXBWIC22030-50197-00218-90000742D0009613D0024900009PT18      GGSL
TXBWIC22030-50197-00236-30000331D0006790D0037400225PT36      GGSL
TXBWIC22030-50197-00250-90000068D0001866D0013700013PT50      GGSL
TXBWIC22030-50197-00304-90001768D0008416D0303700828GT4       GGSL
TXBWIC22030-50197-00308-70000006D0000043D0000600000GT8       GGSL
TXBWIC22030-50197-00318-60000336D0004401D0054000060GT18      GGSL
TXBWIC22030-50197-00336-00000159D0003492D0021400023GT36      GGSL
TXBWIC22030-50197-00404-60001434D0006822D0176600738RT4       GGSL
TXBWIC22030-50197-00408-40000150D0001103D0012000036RT8       GGSL
TXBWIC22030-50197-00418-30000507D0006515D0093300066RT18      GGSL
TXBWIC22030-50197-00604-00000540D0002411D0099600096BT4       GGSL
TXBWIC22030-50197-00618-70000001D0000014D0000500000BT18      GGSL
TXBWIC22030-50197-00704-70000381D0001821D0064700066TR4       GGSL
TXBWIC22030-50197-00718-40000255D0003293D0021400046TR18      GGSL
TXBWIC22030-50197-00904-10001296D0006223D0234500978TO4       GGSL
TXBWIC22030-50197-00908-60000126D0000927D0028800012TO8       GGSL
TXBWIC22030-50197-00918-80000168D0002283D0019200012TO18      GGSL
TXBWIC22030-50197-01004-70000408D0001904D0032400408BM04      GGSL
TXBWIC22030-50197-01024-50000014D0000293D0000600001BM24      GGSL
TXBWIC22030-50197-01228-70000006D0000110D0000000000RP28      GGSL
TXBWIC22030-50197-01303-10000287D0001726D0042000252DB03      GGSL
TXBWIC22030-50197-01803-60000144D0000499D0013200012GM3       GGSL
TXBWIC22030-50197-01825-80000456D0004691D0050600080GM25      GGSL
TXBWIC22030-50197-01905-70000012D0000058D0000600000GF5105/6  GGSL
TXBWIC22030-50197-02006-00000480D0001229D0057900078GL6       GGSL
TXBWIC22030-50197-02206-40000312D0001535D0048600084GG6       GGSL
TXBWIC22030-50197-02304-70000024D0000127D0000000000CS4       GGSL
TXBWIC22030-50197-02805-90000006D0000039D0000000000GF101010/6GGSL
TXBWIC22030-50197-02904-90000534D0002554D0155400630FT4       GGSL
TXBWIC22030-50197-02918-60000208D0002691D0037100028FT18      GGSL
TXBWIC22030-50197-03430-20000306D0002631D0072900040SPF30     GGSL
TXBWIC22030-50197-03802-70000960D0001296D0000000000BTSP5OZ   GGSL
TXBWIC22030-50197-03804-10002932D0015962D0309800510BTSP4     GGSL
TXBWIC22030-50197-03818-80000004D0000092D0000800000BTSP18    GGSL
TXBWIC22030-50197-03825-60000405D0010828D0052300108BTSP25    GGSL
TXBWIC22030-50197-03904-80000846D0004062D0076200738PM4       GGSL
TXBWIC22030-50197-05004-30001463D0006990D0199000408CT4       GGSL
TXBWIC22030-50197-05018-00000257D0003517D0039000038CT18      GGSL
TXBWIC22030-50197-05320-40000114D0001859D0047500014ELF20     GGSL
TXBWIC22030-50197-05405-80000036D0000182D0038500000IT5       GGSL
TXBWIC22030-50197-05420-10000021D0000205D0002200003it20      GGSL
TXBWIC22030-50197-05628-10000012D0000297D0008400000EOLF28    GGSL
TXBWIC22030-50197-05730-10000008D0000213D0001700000EOSR30    GGSL
TXBWIC22030-50197-06030-10000058D0000695D0010100030LL30      GGSL
TXBWIC22030-50197-06504-70000876D0004115D0147300648AT4       GGSL
TXBWIC22030-50197-06508-50000024D0000189D0016800000AT8       GGSL
TXBWIC22030-50197-06518-40000008D0000115D0004500002AT18      GGSL
TXBWIC22030-50197-06604-40000396D0001969D0010800024BR4       GGSL
TXBWIC22030-50197-06708-90000012D0000093D0001200006ET8       GGSL
TXBWIC22030-50197-06718-80000008D0000111D0001200000ET18      GGSL
TXBWIC22030-50197-30316-30000018D0000119D0013200006gr16      GGSL
TXBWIC22030-50197-30416-00000030D0000194D0010200066bl16      GGSL
TXBWIC22030-50197-30508-20000096D0000401D0000000048INPF8     GGSL
TXBWIC22030-50197-30608-90000030D0000128D0003000024CAPF8     GGSL
TXBWIC22030-50197-30708-60000012D0000050D0000000006VIPF8     GGSL
TXBWIC22030-50197-30808-30000024D0000100D0001200006ORPF8     GGSL
TXBWIC22030-50197-31308-70000006D0000025D0004800000TOPF8     GGSL
TXBWIC22030-50197-31318-60000006D0000038D0000000000topf18    GGSL
TXBWIC22030-50197-51324-10000006D0000039D0016800000EONM24    GGSL
TXBWIC22030-50197-70101-30000512D0003258D0034700020ap1       GGSL
TXBWIC22030-50197-70102-00000304D0003629D0040600015ap2       GGSL
TXBWIC22030-50197-70304-80000384D0001226D0057600060ca4       GGSL
TXBWIC22030-50197-70308-60000210D0000960D0003600024ca8       GGSL
TXBWIC22030-50197-70516-50000014D0000078D0000100000SS16      GGSL
TXBWIC22030-50197-70608-70000102D0000530D0049200030PTM8      GGSL
TXBWIC22030-50197-71202-60000816D0004896D0000000000mm2       GGSL
TXBWIC22030-50197-71208-80000006D0000032D0010800000MM8       GGSL
TXBWIC22030-50197-71304-70000120D0000829D0004800012EC4       GGSL
TXBWIC22030-50197-71501-00000651D0004535D0081200690lsc1      GGSL
TXBWIC22030-50197-71601-70000215D0001105D0031300000dcm1      GGSL
TXBWIC22030-50197-71775-50001976D0008716D0312401146mc75      GGSL
TXBWIC22030-50197-71804-20000012D0000085D0000000000BO4       GGSL
TXBWIC22030-50197-71904-90000204D0001396D0000000156HC4       GGSL
TXBWIC22030-50197-80117-10000200D0002359D0057000468SC17      GGSL
TXBWIC22030-50349-01003-10000026D0001628D00000000001003-012  GGSL
TXBWIC22030-50349-01009-30000004D0000232D00001000011009-012  GGSL
TXBWIC22030-50349-01037-60000011D0001049D00003000081037-012  GGSL
TXBWIC22030-50349-01039-00000011D0000903D00000000011039-012  GGSL
TXBWIC22030-50349-01041-30000008D0000718D00000000121041-012  GGSL
TXBWIC22030-50349-01043-70000210D0004538D00000000261043-009  GGSL
TXBWIC22030-50349-01052-90000010D0000610D00000000001052-012  GGSL
TXBWIC22030-50349-01061-10000002D0000123D00000000001061-012  GGSL
TXBWIC22030-50349-01069-70000120D0000557D00000000001069-012  GGSL
TXBWIC22030-50349-01072-70000002D0000162D00000000001072-012  GGSL
TXBWIC22030-50349-01078-30000011D0008423D00003000011023-017  GGSL
TXBWIC22030-50349-10211-20000001D0000049D00000000001012-012  GGSL
TXBWIC22030-50349-10230-00000004D0000344D00001000001054-012  GGSL
TXBWIC22030-50349-10519-90000001D0000068D00001000001051-082  GGSL
TXBWIC22030-50349-10541-00000007D0007380D00000000051071-017  GGSL
TXBWIC22030-50349-11155-40000002D0000156D00039000001055-082  GGSL
TXBWIC22030-50349-18885-30000014D0000167D00040000008885-034  GGSL
TXBWIC22030-50699-00000-00000017D0000158D0000000000303460    GGSL
TXBWIC22030-50699-00001-00000015D0000162D0006000000300001    GGSL
TXBWIC22030-50699-00128-10000010D0000329D0006100000300128    GGSL
TXBWIC22030-50699-00212-00000030D0000295D0009000000300212    GGSL
TXBWIC22030-51497-15464-60000002D0000280D000350000015464     GGSL
TXBWIC22030-52427-01038-40000002D0000036D0000000000105462    GGSL
TXBWIC22030-52732-00000-00000125D0007074D000300000619109     GGSL
TXBWIC22030-52732-10012-10000079D0010190D001050000910001     GGSL
TXBWIC22030-52732-10225-50000013D0000463D000090000360009.0   GGSL
TXBWIC22030-52732-14124-70000127D0002375D007210014214124     GGSL
TXBWIC22030-52732-20505-50000089D0007538D00059000042050SU    GGSL
TXBWIC22030-52732-20509-30000124D0017064D00074000082050P     GGSL
TXBWIC22030-52732-20519-20000015D0002244D00020000022050TP    GGSL
TXBWIC22030-52732-21500-90000004D0001040D00000000002150      GGSL
TXBWIC22030-52732-21700-30000009D0002452D00000000002170      GGSL
TXBWIC22030-52732-27500-30000238D0012164D00583001822750      GGSL
TXBWIC22030-52732-31000-10000001D0000192D00000000003100.0    GGSL
TXBWIC22030-52732-34000-80000001D0000022D00007000003400.0    GGSL
TXBWIC22030-52732-65000-80000014D0001924D00015000016500.0    GGSL
TXBWIC22030-53291-11002-60000120D0001426D0045600324820-1002  GGSL
TXBWIC22030-53291-19937-30000012D0000028D0000000000820-0409  GGSL
TXBWIC22030-53291-30000-00000001D0000329D0001600001820-1024  GGSL
TXBWIC22030-53291-40047-90000005D0000022D0001500025840-0047  GGSL
TXBWIC22030-53291-40053-00000001D0000051D0000000000840-0053  GGSL
TXBWIC22030-53291-41502-20000006D0000150D0000000006840-1502  GGSL
TXBWIC22030-53291-55981-80000264D0001129D0042000156820-0188  GGSL
TXBWIC22030-56554-10596-80000006D0000087D0000000000AOS13000P5GGSL
TXBWIC22030-56554-67705-20000006D0000095D0002400000moa22000G1GGSL
TXBWIC22030-56554-67756-40000018D0000251D0000000000moa2200f04GGSL
TXBWIC22030-56554-91955-80000004D0000164D0000000000KTS15000E5GGSL
TXBWIC22030-58115-00114-60000004D0000064D0000000000114       GGSL
TXBWIC22030-66498-01115-70000027D0000827D000110002201115.0   GGSL
TXBWIC22030-66498-02115-60005451D0104253D000950204102775.0   GGSL
TXBWIC22030-66498-02185-90000481D0007462D000260010402185     GGSL
TXBWIC22030-66498-03175-90000070D0000847D000000000003175     GGSL
TXBWIC22030-66498-04175-80001163D0014759D000000009304175.0   GGSL
TXBWIC22030-66498-05113-90000020D0000128D000090000405175.0   GGSL
TXBWIC22030-66498-08781-30000091D0000760D00000000009781      GGSL
TXBWIC22030-66498-09776-20000014D0000190D000650000009776     GGSL
TXBWIC22030-66498-09782-30000065D0000714D001300000009782.0   GGSL
TXBWIC22030-66498-09785-40000024D0000112D000000000009785     GGSL
TXBWIC22030-66498-09795-30000211D0002642D000000000009795     GGSL
TXBWIC22030-66498-09901-80005710D0048906D030270052309901.0   GGSL
TXBWIC22030-66498-09902-50007513D0091026D027380073409902.0   GGSL
TXBWIC22030-66498-09903-20006470D0099002D006540126709903.0   GGSL
TXBWIC22030-66498-09925-40000462D0002398D001500028209925     GGSL
TXBWIC22030-66498-09929-20000088D0000669D000770000009929     GGSL
TXBWIC22030-66498-09937-70002580D0009541D032280152409937     GGSL
TXBWIC22030-66498-09939-10000082D0000831D000000000009939     GGSL
TXBWIC22030-66498-09947-60000420D0001505D004200120009947     GGSL
TXBWIC22030-66498-09950-50001764D0013980D016260080409955     GGSL
TXBWIC22030-66498-09965-00002580D0023272D004200136809965     GGSL
TXBWIC22030-66498-09977-30000300D0002056D002640026409977     GGSL
TXBWIC22030-66498-09985-80000473D0002287D004860075609985     GGSL
TXBWIC22030-66498-89905-20002122D0010586D026910036609905     GGSL
TXBWIC22030-66498-99827-40001427D0008660D013680147609827     GGSL
TXBWIC22030-70183-50005-50000640D0018555D00040000205000510   GGSL
TXBWIC22030-70183-50006-20001464D0056132D00024000125000610   GGSL
TXBWIC22030-70183-50023-90000042D0001080D00060000125002306   GGSL
TXBWIC22030-70183-50026-00013228D0156625D00152000405002610   GGSL
TXBWIC22030-70183-50027-70000126D0000569D00240000065002715   GGSL
TXBWIC22030-70183-50029-10000012D0000143D00003000085007410   GGSL
TXBWIC22030-70183-50034-50005187D0022695D00444000785003470   GGSL
TXBWIC22030-70183-50038-30000124D0001583D00012000045003810   GGSL
TXBWIC22030-70183-50042-00000016D0001662D00000000005004215   GGSL
TXBWIC22030-70183-50055-00004764D0055896D00198000365003610   GGSL
TXBWIC22030-70183-50060-40002922D0105195D00021000005006010   GGSL
TXBWIC22030-70183-50202-80001248D0026732D00000000005020210   GGSL
TXBWIC22030-70183-50203-50000630D0009815D00000000005020310   GGSL
TXBWIC22030-70183-50204-20000006D0000093D00000000005020410   GGSL
TXBWIC22030-70183-50205-90000006D0000067D00000000005020510   GGSL
TXBWIC22030-70183-51000-90000072D0002890D00000000005100006   GGSL
TXBWIC22030-70183-51001-60000527D0010180D00124000445100114   GGSL
TXBWIC22030-70183-51006-10001814D0042128D00000000365100612   GGSL
TXBWIC22030-70183-51007-80000036D0001436D00006000065100710   GGSL
TXBWIC22030-70183-51009-20000056D0000819D00040000045004010   GGSL
TXBWIC22030-70183-51019-10001164D0023657D00020000005101910   GGSL
TXBWIC22030-70183-51073-30000126D0000602D00060000125107315   GGSL
TXBWIC22030-70183-51090-00000324D0014672D00115000345109010   GGSL
TXBWIC22030-70183-52005-30000004D0000100D00000000005200510   GGSL
TXBWIC22030-70183-52039-80000048D0001059D00020000325203910   GGSL
TXBWIC22030-70183-52350-40000004D0000106D00012000005235010   GGSL
TXBWIC22030-70183-57050-80001134D0034473D00006000245705010   GGSL
TXBWIC22030-70183-57080-50000056D0000936D00008000005708010   GGSL
TXBWIC22030-70183-57250-20000264D0006025D00032000005725070   GGSL
TXBWIC22030-70251-65240-20000004D0000122D0002400000652400    GGSL
TXBWIC22030-70251-76116-60000165D0002085D0040600033761160    GGSL
TXBWIC22030-70251-79160-60000120D0001352D0027900039791600    GGSL
TXBWIC22030-70251-81182-30000024D0000322D00000000008111082   GGSL
TXBWIC22030-70251-81482-40001115D0008447D03216001928141082   GGSL
TXBWIC22030-70251-82746-60000036D0000351D00003000128274600   GGSL
TXBWIC22030-70735-00000-00000012D0000017D0014300000CHINAMARKEGGSL
TXBWIC22030-70805-51001-10001238D0003617D007800005070805-010-GGSL
TXBWIC22030-70805-51002-80000840D0004702D007670009570805-005-GGSL
TXBWIC22030-70805-51013-40003402D0058292D0129700333BD02      GGSL
TXBWIC22030-70805-51024-00000216D0000932D000900001870805-006-GGSL
TXBWIC22030-70805-51025-70005259D0080635D083170022770805-001-GGSL
TXBWIC22030-70805-51026-40000534D0002109D003000004870805-006-GGSL
TXBWIC22030-70805-51033-20000436D0007898D006270003070805-001-GGSL
TXBWIC22030-70805-51034-90000393D0014072D007100001470805-001-GGSL
TXBWIC22030-70805-51037-00000024D0000305D000810001070805-001-GGSL
TXBWIC22030-70805-51038-70000040D0000980D000530001970805-001-GGSL
TXBWIC22030-70805-51051-60000224D0001580D004320002470805-008-GGSL
TXBWIC22030-70805-53003-30003080D0028783D0203800158BD021     GGSL
TXBWIC22030-70805-62025-30008745D0252896D083720084970805-001-GGSL
TXBWIC22030-70805-84052-10000066D0002357D0008700002KERNEL_M-0GGSL
TXBWIC22030-70805-84053-80000284D0007137D002000000670805-001-GGSL
TXBWIC22030-70805-84054-50000216D0002666D003470002670805-001-GGSL
TXBWIC22030-70805-84075-00000960D0023399D005250004070805-001-GGSL
TXBWIC22030-70805-84076-70000157D0010555D003650001070805-001-GGSL
TXBWIC22030-70805-84077-40000063D0004469D0010000001KERNEL_M-0GGSL
TXBWIC22030-70805-84079-80000284D0013787D002490002270805-001-GGSL
TXBWIC22030-70805-84093-40000039D0002180D0013700001PEANUTSPL-GGSL
TXBWIC22030-70923-00000-00000024D0000125D0014500000600.0     GGSL
TXBWIC22030-70923-00196-50000132D0000287D0033500024T100-12   GGSL
TXBWIC22030-70923-00300-60000300D0001544D0046800060300.0     GGSL
TXBWIC22030-70923-00402-70000066D0000225D0007800012T401-6    GGSL
TXBWIC22030-70923-00912-10000003D0000016D0001800006T901-6    GGSL
TXBWIC22030-70923-02301-10000012D0000044D0001800000T2302-6   GGSL
TXBWIC22030-70923-02900-60000108D0000557D0029200036T2900     GGSL
TXBWIC22030-70923-08515-60000120D0000210D0004200000T3206     GGSL
TXBWIC22030-70923-11915-80000014D0003136D0000000001T2502-DS  GGSL
TXBWIC22030-70923-12117-50000010D0000232D0007000000T300-NT   GGSL
TXBWIC22030-70923-12277-60000006D0000030D0012900000T1812     GGSL
TXBWIC22030-70923-69500-30000005D0000187D0005500010T2512     GGSL
TXBWIC22030-71092-32500-80000270D0001141D0069400036T2502     GGSL
TXBWIC22030-71121-05580-40000120D0000907D00468000005580      GGSL
TXBWIC22030-71121-53940-30000064D0000552D0015200004HG-53944  GGSL
TXBWIC22030-71121-61067-60000002D0001174D0000000000HG-861067 GGSL
TXBWIC22030-71121-95675-00000048D0000192D0001200000HG-30110  GGSL
TXBWIC22030-71121-95704-70000095D0000404D0011100156HG-95704  GGSL
TXBWIC22030-71121-96280-50000672D0002152D0004800216HG-96280  GGSL
TXBWIC22030-71121-96281-20000156D0000828D0072700012HG-96281  GGSL
TXBWIC22030-71121-96470-00000030D0000218D0000000000HG-96470  GGSL
TXBWIC22030-71549-01128-40000280D0002628D00080000080112812   GGSL
TXBWIC22030-71549-01129-10000208D0002557D00088000000112912   GGSL
TXBWIC22030-71549-01656-20000048D0000318D00237000000165610   GGSL
TXBWIC22030-71549-01666-10000024D0000288D00225000000166610   GGSL
TXBWIC22030-71549-01674-60000042D0000204D00042000000167442   GGSL
TXBWIC22030-71549-01748-40000012D0000104D00120000000174810   GGSL
TXBWIC22030-71549-01751-40000120D0001233D00006000000175110   GGSL
TXBWIC22030-71549-01925-90000012D0000063D00006000000192510   GGSL
TXBWIC22030-71549-01936-50000180D0001184D00468000000193610   GGSL
TXBWIC22030-71549-02000-20000024D0000365D00040000000200010   GGSL
TXBWIC22030-71549-02003-30000152D0002631D00372000080200310   GGSL
TXBWIC22030-71549-02014-90000300D0001732D00024000240201405   GGSL
TXBWIC22030-71549-02022-40000176D0000605D00088000000202212   GGSL
TXBWIC22030-71549-02028-60000024C0000086D00000000000202812   GGSL
TXBWIC22030-71549-02029-30000036D0000144D00006000000202912   GGSL
TXBWIC22030-71549-02030-90000006D0000053D00000000000203012   GGSL
TXBWIC22030-71549-02045-30000020D0000265D00116000000204510   GGSL
TXBWIC22030-71549-02047-70000024D0000156D00816000000204710   GGSL
TXBWIC22030-71549-02048-40000004D0000102D00032000000204810   GGSL
TXBWIC22030-71549-02049-10000120D0000894D00840000000204910   GGSL
TXBWIC22030-71549-02054-50000024D0000139D00016000000205408   GGSL
TXBWIC22030-71549-02055-20000504D0001185D00288000360205506   GGSL
TXBWIC22030-71549-02057-60000006D0000019D00258000000205710   GGSL
TXBWIC22030-71549-02127-60000016D0000182D00004000000212710   GGSL
TXBWIC22030-71549-02208-20010928D0094928D00228000000220810   GGSL
TXBWIC22030-71549-02219-80000092D0000642D00008000000221910   GGSL
TXBWIC22030-71549-02756-80000312D0000869D00000000080275612   GGSL
TXBWIC22030-71549-02822-00000793D0010151D00372000600282210   GGSL
TXBWIC22030-71549-02831-20000006D0000040D00000000000283105   GGSL
TXBWIC22030-71549-03320-00000004D0000068D00000000000332010   GGSL
TXBWIC22030-71549-03390-30000006D0000069D00018000000339010   GGSL
TXBWIC22030-71549-03455-90000060D0000314D00000000000345510   GGSL
TXBWIC22030-71549-03456-60000060D0000262D00174000000345610   GGSL
TXBWIC22030-71549-03964-60000018D0000149D00000000120396410   GGSL
TXBWIC22030-71549-03987-50000006D0000066D00000000060398710   GGSL
TXBWIC22030-71549-04243-10000012D0000138D00000000000424310   GGSL
TXBWIC22030-71549-04253-00001916D0012480D00116000000425310   GGSL
TXBWIC22030-71549-04256-10000003D0000954D00000000000425610   GGSL
TXBWIC22030-71549-04318-60000098D0000441D00186000009994318   GGSL
TXBWIC22030-71549-04378-00000210D0001971D00003000000437806   GGSL
TXBWIC22030-71549-04380-30000352D0003790D00000000160438006   GGSL
TXBWIC22030-71549-04385-80000381D0001665D00087001980438580   GGSL
TXBWIC22030-71549-04465-70000572D0007407D00016000000446505   GGSL
TXBWIC22030-71549-04476-30000008D0000079D00000000000447605   GGSL
TXBWIC22030-71549-04477-00000822D0003797D00000000240447705   GGSL
TXBWIC22030-71549-04478-70000540D0004852D00000000240447805   GGSL
TXBWIC22030-71549-04479-40000756D0006370D00480000360447905   GGSL
TXBWIC22030-71549-04481-70000840D0007522D00004000120448105   GGSL
TXBWIC22030-71549-04486-20001908D0015231D00048000060448605   GGSL
TXBWIC22030-71549-04487-90000966D0007239D00000000120448705   GGSL
TXBWIC22030-71549-04488-60000092D0001337D00012000040448805   GGSL
TXBWIC22030-71549-04491-60000156D0001445D00036000240449105   GGSL
TXBWIC22030-71549-04493-00000076D0000681D00000000000449305   GGSL
TXBWIC22030-71549-04494-70000251D0002053D00252000120449405   GGSL
TXBWIC22030-71549-04495-40000054D0000265D00066000000449505   GGSL
TXBWIC22030-71549-04613-20000048D0000313D00108000120461412   GGSL
TXBWIC22030-71549-04616-30000060D0000284D00005000480461612   GGSL
TXBWIC22030-71549-04617-00000012D0000085D00000000000461712   GGSL
TXBWIC22030-71549-04620-00000012D0000060D00000000000462012   GGSL
TXBWIC22030-71549-04657-60000010D0000090D00090000000465705   GGSL
TXBWIC22030-71549-04745-00000012D0000088D00035000000474510   GGSL
TXBWIC22030-71549-04757-30000020D0000307D00064000000475705   GGSL
TXBWIC22030-71549-04758-00000006D0000278D00000000020475805   GGSL
TXBWIC22030-71549-04759-70000002D0000141D00000000000475905   GGSL
TXBWIC22030-71549-04910-20000054D0000218D00024000000491010   GGSL
TXBWIC22030-71549-08410-30000342D0003333D00346000180841010   GGSL
TXBWIC22030-71549-43331-40000168D0000974D00288000240433310   GGSL
TXBWIC22030-71549-43361-10000432D0007551D00000000120433610   GGSL
TXBWIC22030-71549-43371-00000028D0000838D00080000000433710   GGSL
TXBWIC22030-71549-43701-50000124D0002683D00000000320437010   GGSL
TXBWIC22030-71549-43887-60000096D0000333D00096000124388710   GGSL
TXBWIC22030-71549-43890-60000006D0000031D00000000004389005   GGSL
TXBWIC22030-71549-44551-50000004D0000065D00004000000445510   GGSL
TXBWIC22030-71549-46008-20000056D0000833D00040000004600810   GGSL
TXBWIC22030-71549-46025-90000210D0001137D00288001024602510   GGSL
TXBWIC22030-71549-46026-60000012D0000093D00024000004602610   GGSL
TXBWIC22030-71549-46132-40000728D0009738D00236000004613264   GGSL
TXBWIC22030-71549-46134-80000402D0001832D00000000004613406   GGSL
TXBWIC22030-71549-46135-50000008D0000098D00020000004613504   GGSL
TXBWIC22030-71549-46139-30000008D0000126D00000000004613905   GGSL
TXBWIC22030-71549-46503-20001086D0017799D00492000004650306   GGSL
TXBWIC22030-71549-46510-00000018D0000299D00150000004651005   GGSL
TXBWIC22030-71549-99008-40000024D0000272D00363000009900810   GGSL
TXBWIC22030-71549-99019-00000054D0000637D00177000009901910   GGSL
TXBWIC22030-71693-00000-00000002D0001091D000000000002-SP660VSGGSL
TXBWIC22030-71693-02101-60000003D0005011D000000000002-P1000S GGSL
TXBWIC22030-71693-02102-30000002D0001323D000000000002-P1000F GGSL
TXBWIC22030-71693-02104-70000003D0001931D000000000002-P1000VSGGSL
TXBWIC22030-71693-02110-80000002D0001985D000000000002-SP660S GGSL
TXBWIC22030-71693-02115-30000006D0001020D000000000002-HB250  GGSL
TXBWIC22030-71693-02229-70000001D0000715D000000000002-P1000FAGGSL
TXBWIC22030-71693-02250-10000006D0000993D000000000002-PW250  GGSL
TXBWIC22030-71693-02251-80000005D0000841D000000000002-BF250  GGSL
TXBWIC22030-71693-02252-50000001D0000152D000000000002-CH250  GGSL
TXBWIC22030-71693-02253-20000001D0000152D000000000002-TH250  GGSL
TXBWIC22030-71693-02550-20000001D0000358D000000000002-P500   GGSL
TXBWIC22030-71693-04110-60000002D0000651D000000000004-LG1100 GGSL
TXBWIC22030-71693-04111-30000015D0004750D000000000004-LG1100SGGSL
TXBWIC22030-71693-04112-00000002D0000598D000000000004-LG1100FGGSL
TXBWIC22030-71693-04113-70000001D0000299D000000000004-LG1100VGGSL
TXBWIC22030-71693-04114-40000008D0002545D000000000004-LG1100VGGSL
TXBWIC22030-71693-04750-40000001D0000240D000000000004-LG750  GGSL
TXBWIC22030-71693-04753-50000001D0000240D000000000004-LG750V GGSL
TXBWIC22030-71693-92209-20000002D0001018D000000000002-ORV500 GGSL
TXBWIC22030-71693-92409-60000001D0000264D000000000002-ORH240 GGSL
TXBWIC22030-71693-92602-10000007D0001633D000000000002-PN250  GGSL
TXBWIC22030-71693-98601-80000001D0000273D000000000002-PHH450 GGSL
TXBWIC22030-71693-98701-50000008D0002429D000000000002-PAO450 GGSL
TXBWIC22030-71693-98801-20000005D0002427D000000000002-UB450  GGSL
TXBWIC22030-71898-43163-40000483D0010879D00164001657800      GGSL
TXBWIC22030-71898-43180-10000591D0010797D00234000807450      GGSL
TXBWIC22030-71898-43209-90000082D0001881D00194002027822      GGSL
TXBWIC22030-71898-43210-50000077D0002009D00991001067824      GGSL
TXBWIC22030-71898-43211-20000710D0018808D01210001617828      GGSL
TXBWIC22030-71898-43212-90000005D0000098D00030000147321      GGSL
TXBWIC22030-71898-43213-60002011D0044987D01264004607324      GGSL
TXBWIC22030-71898-43214-30000386D0008017D00284000117326      GGSL
TXBWIC22030-71898-43215-00000120D0001851D001710000132150     GGSL
TXBWIC22030-72525-00003-00000111D0000387D0033400126HRT-6     GGSL
TXBWIC22030-72525-00005-40000207D0001033D0033600006HRP-16    GGSL
TXBWIC22030-72525-00022-10000087D0000700D0021000003HBB-32    GGSL
TXBWIC22030-72525-00048-10000036D0000155D0001500012HDE-8     GGSL
TXBWIC22030-72525-00055-90000012D0000087D0015900012EGG-16    GGSL
TXBWIC22030-72532-00014-80000803D0006296D0298501056          GGSL
TXBWIC22030-72532-00015-50000149D0003866D0156900343          GGSL
TXBWIC22030-72532-00016-20000089D0003954D0044400039          GGSL
TXBWIC22030-72532-00017-90000148D0019923D0008700404          GGSL
TXBWIC22030-72532-22310-30000071D0000558D0040000150stspray-10GGSL
TXBWIC22030-72532-33208-90000016D0000125D0000100000stfood32-8GGSL
TXBWIC22030-72532-50001-30000035D0000305D0000000000stsolid-5 GGSL
TXBWIC22030-72693-00014-80000069D0000759D004130001282770001  GGSL
TXBWIC22030-72693-00015-50000015D0001035D000360000082100001  GGSL
TXBWIC22030-72693-00022-30000061D0014050D001130000883000002  GGSL
TXBWIC22030-72693-00032-20000040D0001200D000700000482100006  GGSL
TXBWIC22030-72693-00046-90000124D0006214D003910002682004985  GGSL
TXBWIC22030-72693-00085-80000221D0018797D017300014082100008  GGSL
TXBWIC22030-72693-00102-20000020D0000800D000980000082701020  GGSL
TXBWIC22030-72693-00332-30000059D0000621D000360001682300330  GGSL
TXBWIC22030-72693-00368-20000085D0004335D000650000682690036  GGSL
TXBWIC22030-72693-00480-10000492D0080277D026940011882002490  GGSL
TXBWIC22030-72693-00498-60000476D0030453D014120004882002489  GGSL
TXBWIC22030-72693-00505-10000612D0014279D020720009682002488  GGSL
TXBWIC22030-72693-00993-60000024D0000705D000390000082100099  GGSL
TXBWIC22030-72693-01020-80000068D0016721D001810002883014144  GGSL
TXBWIC22030-72693-01021-50000002D0000038D000150000082701021  GGSL
TXBWIC22030-72693-02475-50000073D0002312D005610023182002475  GGSL
TXBWIC22030-72693-02478-60000022D0004540D000570000082002478  GGSL
TXBWIC22030-72693-02479-30000553D0003207D019460026682002479  GGSL
TXBWIC22030-72693-02504-20000060D0000870D006950001582002504  GGSL
TXBWIC22030-72693-02506-60001890D0056938D067790021082002506  GGSL
TXBWIC22030-72693-02507-30000089D0026221D005350008782002507  GGSL
TXBWIC22030-72693-02685-80000006D0000164D000000000082002685  GGSL
TXBWIC22030-72693-02686-50000299D0008848D006370001382002686  GGSL
TXBWIC22030-72693-02750-30000001D0000053D000000000082002750  GGSL
TXBWIC22030-72693-03052-70000006D0000326D002040000082300305  GGSL
TXBWIC22030-72693-03143-20000018D0000168D000480000082300314  GGSL
TXBWIC22030-72693-03154-80000066D0000774D002270001282300315  GGSL
TXBWIC22030-72693-03164-70000006D0000056D000510000082300316  GGSL
TXBWIC22030-72693-03174-60000051D0000480D001530000082300317  GGSL
TXBWIC22030-72693-03188-30000008D0000388D000540002082300318  GGSL
TXBWIC22030-72693-03194-40000006D0000185D000650000682300319  GGSL
TXBWIC22030-72693-03284-20000006D0000025D000120000082300328  GGSL
TXBWIC22030-72693-03298-90000037D0002701D007070053482300329  GGSL
TXBWIC22030-72693-03395-50000011D0002145D000120000282300339  GGSL
TXBWIC22030-72693-03507-20000192D0001222D010330027682100050  GGSL
TXBWIC22030-72693-03598-00000465D0020414D039620036982003598  GGSL
TXBWIC22030-72693-03599-70002186D0213786D029290051382003599  GGSL
TXBWIC22030-72693-04320-60006089D0625258D025630009082004320  GGSL
TXBWIC22030-72693-04430-20000570D0010403D026670038182004430  GGSL
TXBWIC22030-72693-04431-90000546D0013844D040380023082004431  GGSL
TXBWIC22030-72693-04432-60001477D0050169D043670010082004432  GGSL
TXBWIC22030-72693-04435-70001390D0058421D092280040582004435  GGSL
TXBWIC22030-72693-04438-80006295D0106061D106830104782004438  GGSL
TXBWIC22030-72693-04491-30000156D0001173D009770002482004491  GGSL
TXBWIC22030-72693-04493-70000021D0000751D012860034882004493  GGSL
TXBWIC22030-72693-04500-20000086D0005160D003730000082304500  GGSL
TXBWIC22030-72693-04504-00000574D0013269D017810013282004505  GGSL
TXBWIC22030-72693-04505-70000824D0069616D038650006982004506  GGSL
TXBWIC22030-72693-04506-40000285D0004734D013280027682004504  GGSL
TXBWIC22030-72693-04508-80000128D0001343D001390002382004508  GGSL
TXBWIC22030-72693-04517-00000008D0000658D000250000082004517  GGSL
TXBWIC22030-72693-04964-20007915D0054696D188780553882004964  GGSL
TXBWIC22030-72693-05004-40000468D0002536D017040007282005004  GGSL
TXBWIC22030-72693-05005-10000612D0007873D016680022882005005  GGSL
TXBWIC22030-72693-05007-50000425D0011613D008540002782005007  GGSL
TXBWIC22030-72693-05200-00000344D0003595D006440003682030466  GGSL
TXBWIC22030-72693-05201-70000312D0001738D019200052882005201  GGSL
TXBWIC22030-72693-05202-40000792D0009568D014460022282005202  GGSL
TXBWIC22030-72693-06002-90001068D0017531D023880010282004318  GGSL
TXBWIC22030-72693-06003-60000832D0036375D001160006482004319  GGSL
TXBWIC22030-72693-08300-40000581D0030600D016120003782008300  GGSL
TXBWIC22030-72693-10002-20000033D0000443D000350000082004964  GGSL
TXBWIC22030-72693-10011-40000456D0005221D010540001282004317  GGSL
TXBWIC22030-72693-10012-10000048D0000969D000950000882210011  GGSL
TXBWIC22030-72693-10013-80000168D0001484D002340000682210012  GGSL
TXBWIC22030-72693-10015-20000349C0001484C001140001282210015  GGSL
TXBWIC22030-72693-10116-60000024D0000208D001920001882210016  GGSL
TXBWIC22030-72693-10221-70000043D0001173D000550000082210022  GGSL
TXBWIC22030-72693-10231-60000060D0000542D001380000082210023  GGSL
TXBWIC22030-72693-14057-80000266D0018694D010940010683014005  GGSL
TXBWIC22030-72693-24010-00000056D0001517D004310000082002401  GGSL
TXBWIC22030-72693-24030-80000377D0028636D010510006782002403  GGSL
TXBWIC22030-72693-24925-70000471D0020544D001740097582002492  GGSL
TXBWIC22030-72693-24957-80000238D0001414D010000021682002495  GGSL
TXBWIC22030-72693-29101-00000250D0013750D004480001683012910  GGSL
TXBWIC22030-72693-29912-20001092D0012596D040030031583012991  GGSL
TXBWIC22030-72693-31550-10000005D0000541D000170000082300332  GGSL
TXBWIC22030-72693-31766-60000030D0000459D003180001282031766  GGSL
TXBWIC22030-72693-31866-30000006D0000087D000000001282031866  GGSL
TXBWIC22030-72693-31973-80000070D0001797D004300000282031973  GGSL
TXBWIC22030-72693-31975-20000007D0000605D001720000582031975  GGSL
TXBWIC22030-72693-31984-40000914D0010219D041000040882031984  GGSL
TXBWIC22030-72693-31985-10001645D0018876D066810285682031985  GGSL
TXBWIC22030-72693-33563-90000141D0012327D001140001883013356  GGSL
TXBWIC22030-72693-33688-90000048D0005121D004350007283013368  GGSL
TXBWIC22030-72693-33744-20000017D0001502D000470000383013374  GGSL
TXBWIC22030-72693-33820-30000052D0017435D001230000083013382  GGSL
TXBWIC22030-72693-33850-00000053D0005443D004710002083013385  GGSL
TXBWIC22030-72693-33880-70000014D0002025D000510000083013388  GGSL
TXBWIC22030-72693-33953-80000336D0014853D018850109983013395  GGSL
TXBWIC22030-72693-34958-20000060D0004581D002050001683013884  GGSL
TXBWIC22030-72693-36208-60000001D0000066D009650002483013620  GGSL
TXBWIC22030-72693-38178-00000068D0003019D004600000083013817  GGSL
TXBWIC22030-72693-38515-30000004D0000085D000000000083013851  GGSL
TXBWIC22030-72693-38528-30000007D0003089D001840000083013852  GGSL
TXBWIC22030-72693-38830-70000060D0001807D000060016283013833  GGSL
TXBWIC22030-72693-40010-80000020D0001192D001350000083014003  GGSL
TXBWIC22030-72693-40177-80000693D0003053D017750021682104017  GGSL
TXBWIC22030-72693-41488-40000004D0000428D000880000083014148  GGSL
TXBWIC22030-72693-41878-30001417D0053342D011510027083014187  GGSL
TXBWIC22030-72693-41888-20001437C0053342C001180001083014188  GGSL
TXBWIC22030-72693-44290-00000432D0005246D012850024382004429  GGSL
TXBWIC22030-72693-44410-20000626D0025391D033030021682004441  GGSL
TXBWIC22030-72693-44430-00000178D0024745D010440033282004443  GGSL
TXBWIC22030-72693-44650-20000021D0000415D000000000082004465  GGSL
TXBWIC22030-72693-44660-10000009D0000532D000080000082004466  GGSL
TXBWIC22030-72693-45000-40000082D0000595D012600007282004500  GGSL
TXBWIC22030-72693-45010-30000312D0003000D024200014482004501  GGSL
TXBWIC22030-72693-45020-20000252D0003962D022070003682004502  GGSL
TXBWIC22030-72693-45030-10000118D0006628D010170000082994503  GGSL
TXBWIC22030-72693-45115-50000411D0002661D004890000082004511  GGSL
TXBWIC22030-72693-45530-60000002D0000081D000720000082004553  GGSL
TXBWIC22030-72693-46930-30000456D0004178D009840001282004693  GGSL
