NJARET20040-03831-30083-70000006D0000184D0000100000BP6250    GGSL
NJARET20040-10052-00333-10000216D0000881D000590000000333     GGSL
NJARET20040-10052-00333-10000001D0000004D000010000000333X    GGSL
NJARET20040-10052-00336-20000012D0000094D000010000000410     GGSL
NJARET20040-10052-00336-20000008D0000060D000000000000410X    GGSL
NJARET20040-10052-00600-40000034D0000447D0000900000600X      GGSL
NJARET20040-10367-00001-80000015D0000062D00000000000001      GGSL
NJARET20040-10367-00110-70000252D0001651D00112000000110      GGSL
NJARET20040-10367-00130-50000003D0000140D00021000000130      GGSL
NJARET20040-10367-00150-30000011D0000313D00049000000150      GGSL
NJARET20040-10367-00180-00000168D0000610D00014000000180      GGSL
NJARET20040-10367-00450-40000048D0000227D00017000000450      GGSL
NJARET20040-10367-00460-30000036D0000212D00017000000460      GGSL
NJARET20040-10367-00470-20000012D0000132D00034000000470      GGSL
NJARET20040-10367-00550-10000096D0000278D00035000000550      GGSL
NJARET20040-10367-00560-00000036D0000118D00005000000560      GGSL
NJARET20040-10367-00560-00000016D0000058D000000000105608     GGSL
NJARET20040-10367-00570-90000060D0000361D00025000000570      GGSL
NJARET20040-10367-01020-80000012D0000206D00000000001020      GGSL
NJARET20040-10367-01110-60000040D0000131D00077000001110      GGSL
NJARET20040-10367-01111-30000064D0000210D00072000001111      GGSL
NJARET20040-10367-01112-00000032D0000109D00021000031112      GGSL
NJARET20040-10367-01120-50000176D0000503D00098000001120      GGSL
NJARET20040-10367-01121-20000040D0000234D00119000001121      GGSL
NJARET20040-10367-01122-90000072D0000420D00112000001122      GGSL
NJARET20040-10367-01130-40000032D0000172D00113000001130      GGSL
NJARET20040-10367-01140-30000008D0000027D00021000001140      GGSL
NJARET20040-10367-01151-90000016D0000053D00022000001151      GGSL
NJARET20040-10367-01160-10000056D0000435D00012000001160      GGSL
NJARET20040-10367-01161-80000040D0000310D00024000001161      GGSL
NJARET20040-10367-01162-50000040D0000310D00027000001162      GGSL
NJARET20040-10367-02131-00000016D0000076D0000200000ML2131    GGSL
NJARET20040-10367-02151-80000032D0000238D0001700000ML2151    GGSL
NJARET20040-10367-02161-70000008D0000054D0000000000ML2161    GGSL
NJARET20040-10367-02162-40000016D0000108D0000300000ML2162    GGSL
NJARET20040-10367-02163-10000024D0000162D0000300000ML2163    GGSL
NJARET20040-10367-02171-60000008D0000054D0000300001ML2171    GGSL
NJARET20040-10367-02181-50000024D0000162D0001000002ML2181    GGSL
NJARET20040-11120-00733-60000258D0000703D00073000008538      GGSL
NJARET20040-11192-10595-40000009D0000342D0000000000KLIGHT    GGSL
NJARET20040-11423-00338-70000024D0000147D000090000033801     GGSL
NJARET20040-11423-94109-20000012D0000067D000540000094109     GGSL
NJARET20040-11423-94137-50000012D0000063D000010000094137     GGSL
NJARET20040-12587-60035-10000872D0007264D001540000060035     GGSL
NJARET20040-12587-60764-00000276D0002318D000000000060764     GGSL
NJARET20040-12587-70022-80000048D0000257D002960000070022     GGSL
NJARET20040-12587-70028-00000024D0000122D003780000070028     GGSL
NJARET20040-12587-70054-90000009D0000046D001650000070054     GGSL
NJARET20040-12587-70403-50000036D0000202D001610000070403     GGSL
NJARET20040-12587-70419-60000036D0000196D003350000070419     GGSL
NJARET20040-12587-78361-00000216D0001786D000520000078361     GGSL
NJARET20040-12587-78362-70000312D0002527D000000000078362     GGSL
NJARET20040-12587-78459-40000072D0000636D000840000078459     GGSL
NJARET20040-12587-78634-50000580D0004833D000010000078634     GGSL
NJARET20040-12587-78685-70000060D0000542D000580000078685     GGSL
NJARET20040-12587-78686-40000036D0000318D002030000078686     GGSL
NJARET20040-12587-78709-00000198D0001788D000000000078709     GGSL
NJARET20040-12587-78742-70001932D0001564D000000000078742     GGSL
NJARET20040-12587-78743-40000024D0000021D001220000078743     GGSL
NJARET20040-12587-78834-90000072D0000073D001450000078834     GGSL
NJARET20040-12587-78835-60002280D0002198D000000000078835     GGSL
NJARET20040-12587-78836-30000020D0000023D001810000078836     GGSL
NJARET20040-12587-78837-00003580D0003455D000280000078837     GGSL
NJARET20040-12587-78838-70001000D0000971D001580000078838     GGSL
NJARET20040-12587-78869-10003660D0003140D000660000078869     GGSL
NJARET20040-12587-78870-70000030D0000027D002590000078870     GGSL
NJARET20040-12587-79008-30000072D0000636D001780000079008     GGSL
NJARET20040-13887-00404-70000108D0001217D0000900000404P      GGSL
NJARET20040-14306-14144-20000005D0000092D0000400000US647116  GGSL
NJARET20040-14306-92433-50000021D0000851D0001400001US225688  GGSL
NJARET20040-14400-10730-60000004D0000271D00003000001440010730GGSL
NJARET20040-14400-10734-40000012D0000048D00000000001440010734GGSL
NJARET20040-14400-30000-40000072D0000358D000190000030000     GGSL
NJARET20040-14400-31000-30000144D0000372D00030000001440032000GGSL
NJARET20040-14400-40000-10000036D0000226D000260000040000     GGSL
NJARET20040-14400-42000-90000108D0000372D000050000042000     GGSL
NJARET20040-14400-61180-30000040D0000237D00047000001440061180GGSL
NJARET20040-14400-67000-80000038D0000538D000000000067000     GGSL
NJARET20040-14400-71265-40000036D0000161D00000000001440071265GGSL
NJARET20040-14400-81200-20000001D0000011D00017000001440081200GGSL
NJARET20040-14400-81400-60000004D0000051D00002000001440081400GGSL
NJARET20040-15561-20007-30000004D0000048D0000400001PT7       GGSL
NJARET20040-15561-20677-80000003D0000006D0000000000PT677     GGSL
NJARET20040-15561-20871-00000012D0000085D0000000000PT871     GGSL
NJARET20040-15561-20945-80000144D0000379D0000000000PT945     GGSL
NJARET20040-15561-20960-10000012D0000010D0000100000PT960     GGSL
NJARET20040-15561-20961-80000012D0000017D0000100000PT961     GGSL
NJARET20040-15561-20965-60000012D0000014D0000100000PT965     GGSL
NJARET20040-15561-20966-30000012D0000028D0000000000PT966     GGSL
NJARET20040-15561-28200-00000006D0000305D0000700000PT8200    GGSL
NJARET20040-15561-28232-10000006D0000303D0000500000PT8232    GGSL
NJARET20040-15561-28244-40000004D0000475D0000400000PT8244    GGSL
NJARET20040-15759-01434-50000006D0000184D0000100000R1380MB   GGSL
NJARET20040-15759-01524-30000008D0000116D0000300000R1373SG   GGSL
NJARET20040-16069-00005-90000180D0001118D0002200000TP15C     GGSL
NJARET20040-16069-00007-30000180D0001096D0006400000BN1       GGSL
NJARET20040-16069-00008-00000228D0001489D0003800000BN2       GGSL
NJARET20040-16069-00013-40000024D0000643D0004600000BN3       GGSL
NJARET20040-16069-00014-10000030D0000515D0003400000BN4       GGSL
NJARET20040-16069-00015-80000006D0000156D0000100000BN5       GGSL
NJARET20040-16069-00019-60000048D0000441D0001600000TP30C     GGSL
NJARET20040-16069-00030-10000042D0000509D0002300000OW6       GGSL
NJARET20040-16069-00032-50000144D0001346D0001600000HG25      GGSL
NJARET20040-16069-00038-70000144D0001177D0001500001GF1015    GGSL
NJARET20040-16069-00047-90000012D0000072D0000600000TE12C     GGSL
NJARET20040-16069-00049-30000144D0002472D0005800000DX7       GGSL
NJARET20040-16069-00050-90000012D0000311D0001500000DX14      GGSL
NJARET20040-16069-00076-90000072D0000407D0001200000PN10      GGSL
NJARET20040-16069-00077-60000108D0001036D0000900000PN14      GGSL
NJARET20040-16069-00079-00000018D0000525D0001100000PN28      GGSL
NJARET20040-16069-00110-00000015D0000216D0000400000PF3       GGSL
NJARET20040-16069-00145-20000108D0002294D0005000000RH04      GGSL
NJARET20040-16069-00166-70000096D0001495D0001400000TP60      GGSL
NJARET20040-16069-00218-30000096D0000407D0005300000HST100    GGSL
NJARET20040-16069-00365-40000945D0010710D0001300012PIN9      GGSL
NJARET20040-16069-00393-70000312D0000939D0003500000GS20      GGSL
NJARET20040-16069-00393-70000036D0000111D0000300000GS20C     GGSL
NJARET20040-16069-00394-40000002D0000094D0002700000PN45      GGSL
NJARET20040-16069-00401-90000084D0000634D0000700000GF4050    GGSL
NJARET20040-16069-00478-10000004D0000147D0000500000SRHO4     GGSL
NJARET20040-16069-00479-80000048D0000994D0002800000E316B     GGSL
NJARET20040-16069-00498-90000036D0000305D0000000000HGP1012   GGSL
NJARET20040-16069-00546-70000016D0000653D0001600000RRBG4     GGSL
NJARET20040-16069-00622-80000024D0000095D0000000000CP612     GGSL
NJARET20040-16069-00623-50000024D0000162D0000200000PK24      GGSL
NJARET20040-16069-00625-90000012D0000272D0000100000DXP12     GGSL
NJARET20040-16500-51020-80000024D0000112D000020000051020     GGSL
NJARET20040-16500-98041-40000024D0000027D001560000098041     GGSL
NJARET20040-16500-98130-50002016D0003891D001810000098130     GGSL
NJARET20040-17500-08120-00000156D0000239D003620000008120     GGSL
NJARET20040-17500-08150-70002556D0003578D000910000008150     GGSL
NJARET20040-17500-90206-20000258D0005467D000900000090206     GGSL
NJARET20040-17500-91316-70000024D0000459D000520000091316     GGSL
NJARET20040-17500-91714-10000016D0000349D000380000091714     GGSL
NJARET20040-17500-95204-30000008D0000158D000440000095204     GGSL
NJARET20040-17849-11022-70000012D0000192D0000600000CLA110    GGSL
NJARET20040-17849-32372-60000040D0000198D0002600000CLA323    GGSL
NJARET20040-17849-32472-30000005D0000025D0000000000CLA324    GGSL
NJARET20040-17849-32672-70000025D0000124D0002200000CLA326    GGSL
NJARET20040-18222-00101-90000030D0000091D0002200000CS06101   GGSL
NJARET20040-18222-00103-30000084D0000255D0001400000CS06103   GGSL
NJARET20040-18222-00105-70000072D0000218D0004500000CS06105   GGSL
NJARET20040-18222-00107-10000072D0000281D0001600000CS06107   GGSL
NJARET20040-18222-00109-50000060D0000182D0004100000CS06109   GGSL
NJARET20040-18222-00110-10000024D0000073D0003500000CS06110   GGSL
NJARET20040-18222-00206-10000012D0000056D0001000000CS06206   GGSL
NJARET20040-18222-00213-90000114D0000467D0000400000CS06213   GGSL
NJARET20040-18222-00501-70000708D0000917D0019600010CS12501   GGSL
NJARET20040-18222-00503-10000156D0000318D0000700000CS503     GGSL
NJARET20040-18222-00505-50000276D0000295D0007100002CS12505   GGSL
NJARET20040-18222-00507-90000216D0000294D0002000001CS12507   GGSL
NJARET20040-18222-00509-30000156D0000255D0001800000CS12509   GGSL
NJARET20040-18222-00513-00000036D0000074D0001300000CS12513   GGSL
NJARET20040-18222-00526-00001032D0003034D0004600031CS06526   GGSL
NJARET20040-18222-00527-70000132D0000173D0004200000CS12527   GGSL
NJARET20040-18222-00529-10000060D0000105D0000800000CS12529   GGSL
NJARET20040-18222-00531-40000144D0000321D0002900001CS12531   GGSL
NJARET20040-18222-00535-20000084D0000110D0002800000CS12535   GGSL
NJARET20040-18222-00543-70000084D0000114D0001400001CS12543   GGSL
NJARET20040-18222-00545-10000072D0000126D0001300000CS12545   GGSL
NJARET20040-18222-00553-60004836D0008220D0045700400CS12553   GGSL
NJARET20040-18222-00559-80000108D0000141D0002200000CS12559   GGSL
NJARET20040-18222-00561-10000060D0000079D0001500000CS12561   GGSL
NJARET20040-18222-00563-50000096D0000161D0002600002CS12563   GGSL
NJARET20040-18222-00565-90001248D0002119D0008200017CS12565   GGSL
NJARET20040-18222-00566-60000024D0000043D0000300000CS12566   GGSL
NJARET20040-18222-00569-70000516D0000888D0001400002CS12569   GGSL
NJARET20040-18222-00571-00000048D0000095D0003800011CS12571   GGSL
NJARET20040-18222-00583-30000168D0000353D0002700001CS12583   GGSL
NJARET20040-18222-00608-30000600D0002042D0000800003CS608     GGSL
NJARET20040-18222-00611-30000156D0000529D0000200000CS611     GGSL
NJARET20040-18222-00680-90000060D0000128D0000700007CS12680   GGSL
NJARET20040-18222-00701-10000112D0000192D0005600001CS701     GGSL
NJARET20040-18222-00730-10000040D0000078D0010300000CS730     GGSL
NJARET20040-18222-00749-30000012D0000066D0001100000CS749     GGSL
NJARET20040-18222-00753-00000008D0000039D0004100041CS753     GGSL
NJARET20040-18222-50501-20000048D0000052D0007100000CS1250501XGGSL
NJARET20040-18222-50527-20000096D0000105D0017600000CS1250527XGGSL
NJARET20040-18222-50559-30000024D0000026D0016200000CS1250559XGGSL
NJARET20040-18506-00018-90000006D0000043D00005000000186      GGSL
NJARET20040-18506-00028-80000006D0000066D00006000000286      GGSL
NJARET20040-18506-00029-50000006D0000071D00006000000296      GGSL
NJARET20040-18506-00102-50000072D0000314D000350000110212     GGSL
NJARET20040-18506-00102-50000024D0000105D000060000010224     GGSL
NJARET20040-18506-00110-00000144D0001071D001050000011012     GGSL
NJARET20040-18506-00116-20000024D0000168D000110000011612     GGSL
NJARET20040-18506-00117-90000018D0000193D00014000001176      GGSL
NJARET20040-18506-00118-60000006D0000049D00004000001186      GGSL
NJARET20040-18506-00120-90000004D0000076D00011000001204      GGSL
NJARET20040-18506-00123-00000024D0000131D0000200000123       GGSL
NJARET20040-18506-00125-40000024D0000120D0001300000125       GGSL
NJARET20040-18506-00130-80000024D0000132D0002000000130       GGSL
NJARET20040-18506-02001-90000012D0000137D00017000002001      GGSL
NJARET20040-18506-03001-80000018D0000137D00000000003001      GGSL
NJARET20040-19200-00619-40000360D0001220D015560000000706     GGSL
NJARET20040-19200-02522-50000996D0001947D000160000002522     GGSL
NJARET20040-19200-02569-00000108D0000270D000000000002569     GGSL
NJARET20040-19200-02699-40000492D0001335D000000000002699     GGSL
NJARET20040-19200-02845-50005400D0022335D000000000028455     GGSL
NJARET20040-19200-05432-40000288D0001140D000470000175057     GGSL
NJARET20040-19200-74186-60005232D0021605D000000000074186     GGSL
NJARET20040-19200-75055-40000192D0000431D001530000075055     GGSL
NJARET20040-19200-75352-40005052D0012696D000000000075352     GGSL
NJARET20040-19200-76878-80000180D0000366D001340000076878     GGSL
NJARET20040-19200-76879-50000132D0000235D000000000376879     GGSL
NJARET20040-19200-78033-90000006D0000025D00179000001920078033GGSL
NJARET20040-19200-78626-30001944D0004841D000080000978626     GGSL
NJARET20040-19200-79174-80000066D0000165D000000000079174     GGSL
NJARET20040-19200-79326-10000576D0002943D000000000079326     GGSL
NJARET20040-19200-79329-20000576D0003020D000000000079329     GGSL
NJARET20040-19200-79830-30000324D0002709D002220000079830     GGSL
NJARET20040-19200-79831-00000252D0000887D001480000079831     GGSL
NJARET20040-19200-79838-90000006D0000029D001920000079838     GGSL
NJARET20040-19200-80078-50000216D0000742D000910000080078     GGSL
NJARET20040-19200-80833-00000156D0000697D000000000080833     GGSL
NJARET20040-19200-81146-00000048D0000145D000000000081146     GGSL
NJARET20040-19200-81700-40000900D0003442D000000000081700     GGSL
NJARET20040-19200-82043-10002912D0007258D001660000182043     GGSL
NJARET20040-19200-83262-50000012D0000073D00167000001920082362GGSL
NJARET20040-19200-83624-10000012D0000058D002250000083624     GGSL
NJARET20040-19200-83721-70000256D0000655D006010000083721     GGSL
NJARET20040-19200-84251-80000598D0005176D000000000084251     GGSL
NJARET20040-19200-89868-30000008D0000019D000530000089868     GGSL
NJARET20040-19200-94121-10000504D0002777D000000000094121     GGSL
NJARET20040-19200-94122-80001524D0008105D000080001394122     GGSL
NJARET20040-19200-95872-10000080D0000668D000000000095872     GGSL
NJARET20040-19200-96082-30000084D0000151D000940000096082     GGSL
NJARET20040-19200-98356-50001020D0005050D000000000098356     GGSL
NJARET20040-19200-98665-60000008D0000035D001650000098665     GGSL
NJARET20040-19200-98666-30000008D0000049D001100000098666     GGSL
NJARET20040-19263-25010-70000001D0000071D00024000002501      GGSL
NJARET20040-19263-25030-50000001D0000119D00014000002503      GGSL
NJARET20040-19263-25035-00000012D0000327D0002900000250350    GGSL
NJARET20040-19263-25050-30000001D0000156D00000000002505      GGSL
NJARET20040-19263-25500-30000025D0000027D00000000002550      GGSL
NJARET20040-19263-25510-20000700D0000910D00091000002551      GGSL
NJARET20040-19263-25520-10001300D0002002D00145000002552      GGSL
NJARET20040-19263-25530-00001075D0001881D00106000012553      GGSL
NJARET20040-19263-25540-90001350D0002822D00075000022554      GGSL
NJARET20040-19263-25550-80000450D0001193D00042000002555      GGSL
NJARET20040-19263-25670-30000006D0000082D00015000002567      GGSL
NJARET20040-19263-25680-20000012D0000223D00016000002568      GGSL
NJARET20040-19263-25750-20000032D0000163D00035000002575      GGSL
NJARET20040-19263-25760-10000060D0000390D00065000002576      GGSL
NJARET20040-19263-25770-00000126D0001288D00068000002577      GGSL
NJARET20040-19263-25780-90000025D0000460D00051000002578      GGSL
NJARET20040-19263-25941-40001000D0000060D00000000002594BK    GGSL
NJARET20040-19263-25950-60000252D0000300D00015000002595      GGSL
NJARET20040-19263-26050-20000200D0000172D00007000002605      GGSL
NJARET20040-19263-26190-50000006D0000287D00022000002619      GGSL
NJARET20040-19263-26210-00000204D0001525D00044000052621      GGSL
NJARET20040-19263-26280-30000003D0000083D00000000002628      GGSL
NJARET20040-19263-26300-80000312D0000721D00030000022630      GGSL
NJARET20040-19263-26310-70000408D0001151D00037000002631      GGSL
NJARET20040-19263-26310-70000144D0000406D00013000002633      GGSL
NJARET20040-19263-26320-30000144D0000341D00000000002632      GGSL
NJARET20040-19263-26560-60000032D0000195D0000300000 2656     GGSL
NJARET20040-19263-26560-60000144D0001025D00007000002656      GGSL
NJARET20040-19263-26580-40000080D0000745D00009000002658      GGSL
NJARET20040-21344-00321-20000004D0000101D0002300000WX15064   GGSL
NJARET20040-21344-00322-90000016D0000595D0011600000WX15065   GGSL
NJARET20040-21344-00323-60000012D0000111D0002900000WX16851   GGSL
NJARET20040-21344-00339-70000084D0006740D0017000005400339    GGSL
NJARET20040-21344-00340-30000088D0006170D0030000003400340    GGSL
NJARET20040-21344-00343-40000024D0000183D0007100000400343    GGSL
NJARET20040-21344-00344-10000060D0000457D0006300003400344    GGSL
NJARET20040-21344-00345-80000042D0000320D0004900001400345    GGSL
NJARET20040-21344-00346-50000042D0000320D0006300002400346    GGSL
NJARET20040-21344-00347-20000048D0000729D0011100000400347    GGSL
NJARET20040-21344-00348-90000104D0001576D0005500002400348    GGSL
NJARET20040-21344-00349-60000088D0001332D0003300000400349    GGSL
NJARET20040-21344-00350-20000072D0001089D0008300001400350    GGSL
NJARET20040-21344-00354-00000012D0000383D0012400000HQ73481784GGSL
NJARET20040-21344-00355-70000008D0000355D0006800000HQ73482102GGSL
NJARET20040-21344-00361-80000004D0000096D0006000000HQ74912297GGSL
NJARET20040-21344-00365-60000048D0000530D0000400000400365    GGSL
NJARET20040-21344-00380-90000007D0001166D0011600000JFG18026  GGSL
NJARET20040-21344-00382-30000002D0000191D0009500001JFG18032  GGSL
NJARET20040-21344-00383-00000005D0000826D0002400000JFG18024  GGSL
NJARET20040-21344-00384-70000008D0000411D0007400000JFG18013  GGSL
NJARET20040-21344-00385-40000018D0000390D0005000000JFG18011A GGSL
NJARET20040-21344-00386-10000012D0000411D0006100000JFG18011B GGSL
NJARET20040-21344-00387-80000024D0000734D0009400000JFG18012  GGSL
NJARET20040-21344-00390-80000012D0000221D0005400000JFG18010A GGSL
NJARET20040-21344-00391-50000012D0000370D0003100000JFG18010B GGSL
NJARET20040-21344-00392-20000012D0000075D0003800000JFG18002  GGSL
NJARET20040-21344-00393-90000054D0001105D0004700001JFG18008A GGSL
NJARET20040-21344-00394-60000024D0000462D0005600001JFG18008ASGGSL
NJARET20040-21344-00395-30000012D0000316D0005900000JFG18006  GGSL
NJARET20040-21344-00396-00000008D0000283D0004600000JFG18016  GGSL
NJARET20040-21344-00397-70000021D0000810D0016300001JFG18018  GGSL
NJARET20040-21344-00403-50000008D0000191D0001200000ZT152072  GGSL
NJARET20040-21344-00404-20000004D0000235D0012100000ZT185020  GGSL
NJARET20040-21344-00405-90000006D0000386D0017500000ZT185019  GGSL
NJARET20040-21344-00407-30000002D0000263D0014700004ZT185016  GGSL
NJARET20040-21344-00408-00000002D0000113D0003600000ZT185026  GGSL
NJARET20040-21344-00409-70000012D0000035D0012600000ZT185018  GGSL
NJARET20040-21344-00410-30000008D0000307D0002900000ZT185006  GGSL
NJARET20040-21344-00411-00000002D0000077D0002500000ZT185021  GGSL
NJARET20040-21344-00412-70000002D0000076D0000500000ZT185022  GGSL
NJARET20040-21344-00413-40000012D0000009D0006600000400413    GGSL
NJARET20040-21344-00415-80000024D0000018D0009500000400415    GGSL
NJARET20040-21344-00416-50000024D0000016D0007700000400416    GGSL
NJARET20040-21344-00417-20000024D0000023D0005300000400417    GGSL
NJARET20040-21344-00418-90000024D0000020D0006700000400418    GGSL
NJARET20040-21344-00420-20000012D0000074D0007900000400420    GGSL
NJARET20040-21344-00421-90000024D0000078D0008900000400421    GGSL
NJARET20040-21344-00422-60000002D0000069D0002600000ZT185023  GGSL
NJARET20040-21344-00423-30000044D0005983D0005200025WX17658   GGSL
NJARET20040-21344-00718-00000042D0000750D0005100001WX17422   GGSL
NJARET20040-21344-00719-70000054D0001052D0004000000WX17413   GGSL
NJARET20040-21344-00720-30000072D0001041D0006900001WX17409   GGSL
NJARET20040-21344-00721-00000244D0004435D0030200006WX17230   GGSL
NJARET20040-21344-00722-70000104D0001934D0009100005WX17401   GGSL
NJARET20040-21344-00723-40000100D0001750D0012800001WX17402   GGSL
NJARET20040-21344-00725-80000002D0000065D0007900000HQ748416  GGSL
NJARET20040-21344-00729-60000010D0000497D0000900000HQ7348782 GGSL
NJARET20040-21344-00730-20000044D0000730D0009200001BN19193   GGSL
NJARET20040-21344-00731-90000024D0000356D0008200004BN19190   GGSL
NJARET20040-21344-00732-60000028D0000424D0009200008BN19187   GGSL
NJARET20040-21344-00733-30000020D0000299D0009600001BN19188   GGSL
NJARET20040-21344-00734-00000076D0002374D0003900014WX17725   GGSL
NJARET20040-21344-00735-70000040D0000668D0006500000WX17577RV GGSL
NJARET20040-21344-00736-40000040D0000668D0007200000WX17578RV GGSL
NJARET20040-21344-00739-50000012D0000372D0005500000WX17816   GGSL
NJARET20040-21344-00740-10000012D0000339D0004700000WX17818   GGSL
NJARET20040-21344-00741-80000012D0000372D0006300000WX17817   GGSL
NJARET20040-21344-00744-90000008D0000248D0006100000WX17819   GGSL
NJARET20040-21344-00745-60000008D0000089D0024200000YS19006   GGSL
NJARET20040-21344-00746-30000016D0000281D0032000000YS19L005  GGSL
NJARET20040-21344-00747-00000008D0000140D0032100000YS19L004  GGSL
NJARET20040-21344-00750-00000016D0000218D0031800000YS19S001  GGSL
NJARET20040-21344-00762-30000092D0006870D0028200004FDBH1901  GGSL
NJARET20040-21344-00762-30000009D0001080D0013600004MG18387RV GGSL
NJARET20040-21344-00765-40000011D0001155D0015300002MG18390   GGSL
NJARET20040-21344-00766-10000013D0001820D00123000044007661   GGSL
NJARET20040-21344-00774-60000076D0002435D0015800005WX17800   GGSL
NJARET20040-21344-00775-30000076D0002400D0012000002WX17802   GGSL
NJARET20040-21344-00776-00000003D0000177D0027100000FDBB1901  GGSL
NJARET20040-21344-00779-10000027D0000547D0008900000JFG19058B GGSL
NJARET20040-21344-00780-70000011D0000706D0013400008MG18396RV GGSL
NJARET20040-21344-00781-40000021D0000813D0015600016MG18397RV GGSL
NJARET20040-21344-00795-10000013D0001671D0012700004MG18389   GGSL
NJARET20040-21344-00796-80000090D0000292D0006500000SSH1822719GGSL
NJARET20040-21344-00797-50000018D0000070D0007900000SSH1813624GGSL
NJARET20040-21344-00798-20000072D0000327D0008200003SSH1813728GGSL
NJARET20040-21344-00799-90000036D0000281D0006400000HS190061C GGSL
NJARET20040-21344-00800-20000042D0000332D0005600000HS190061B GGSL
NJARET20040-21344-00801-90000060D0000469D0007900000HS190061A GGSL
NJARET20040-21344-00802-60000060D0000573D0016200000HS190058C GGSL
NJARET20040-21344-00803-30000060D0000573D0015200000HS190058B GGSL
NJARET20040-21344-00804-00000076D0000718D0016100000HS190058A GGSL
NJARET20040-21344-00805-70000030D0000271D0010700000HS190056  GGSL
NJARET20040-21344-00806-40000080D0000675D0010500003SSH18A025 GGSL
NJARET20040-21344-00807-10000012D0000168D0009600002SSH18A034 GGSL
NJARET20040-21344-00808-80000240D0001228D0011800002SSH18A024 GGSL
NJARET20040-21344-00813-20000063D0004335D00238000044008132   GGSL
NJARET20040-21344-00820-00000036D0000304D0001800001WX17936   GGSL
NJARET20040-21344-00821-70000012D0000101D0003800000WX17932   GGSL
NJARET20040-21344-00822-40000012D0000101D0004200000WX17930   GGSL
NJARET20040-21344-00823-10000024D0000203D0000600000WX17934   GGSL
NJARET20040-21344-00824-80000060D0000506D0002900001WX17933   GGSL
NJARET20040-21344-00825-50000024D0000140D0002900001JFG18011BWGGSL
NJARET20040-21344-00826-20000024D0000187D0003500002JFG18011AWGGSL
NJARET20040-21344-00827-90000024D0000187D0002600001JFG18008AWGGSL
NJARET20040-21344-00828-60000024D0000156D0003600001JFG18008ACGGSL
NJARET20040-21344-00829-30000036D0000340D0008600002ZT197030  GGSL
NJARET20040-21344-00830-90000012D0000298D0009000000ZT197002  GGSL
NJARET20040-21344-00831-60000012D0000208D0009100000ZT197003  GGSL
NJARET20040-21344-00832-30000009D0000178D0009400000JFG19007B GGSL
NJARET20040-21344-00833-00000014D0000409D0010600002ZT197029  GGSL
NJARET20040-21344-00837-80001800D0006909D0005400008SK15020B  GGSL
NJARET20040-21344-00838-50002112D0006843D0012900005SK15008E  GGSL
NJARET20040-21344-00839-20000016D0000242D0008700000HS190062  GGSL
NJARET20040-21344-00844-60000102D0000581D0014700000HJAL19011 GGSL
NJARET20040-21964-10100-80000012D0000326D0001200000A6F       GGSL
NJARET20040-21964-10110-70000006D0000041D0001000000A6T       GGSL
NJARET20040-21964-10200-50000004D0000190D0001000000B7F       GGSL
NJARET20040-21964-10220-30000005D0000264D0000400000B72       GGSL
NJARET20040-21964-10305-70000003D0000180D0000900000BTG       GGSL
NJARET20040-21964-10315-60000011D0000321D0000000000SQG       GGSL
NJARET20040-21964-10350-70000002D0000049D0017500144X1        GGSL
NJARET20040-21964-10370-50000030D0000336D0000500000OWF       GGSL
NJARET20040-21964-10386-60000054D0000693D0000300000CUTE      GGSL
NJARET20040-21964-10461-00000012D0000202D0003000000LF4       GGSL
NJARET20040-21964-10466-50000018D0000303D0002300000WH3       GGSL
NJARET20040-21964-10470-20000004D0000100D0002000000H82       GGSL
NJARET20040-21964-10480-10000012D0000036D0000000000NGT       GGSL
NJARET20040-21964-10481-80000024D0000137D0002000000AM        GGSL
NJARET20040-21964-10483-20000006D0000062D0000700007RS3HL     GGSL
NJARET20040-21964-10485-60000006D0000057D0001500000RS3HC     GGSL
NJARET20040-21964-10550-10000006D0000083D0000200000SILW      GGSL
NJARET20040-21964-10551-80000002D0000025D0000400000SILFX     GGSL
NJARET20040-21964-20061-90000006D0000277D0000000000SDC       GGSL
NJARET20040-21964-20075-60000003D0000212D0000400000B7DC      GGSL
NJARET20040-21964-20500-30000010D0001256D0003500000YF        GGSL
NJARET20040-21964-20510-20000024D0001997D0000400000YCPD90    GGSL
NJARET20040-21964-20520-10000004D0000320D0004000000YCPW180   GGSL
NJARET20040-21964-20530-00000030D0002504D0000300000YCPT360   GGSL
NJARET20040-21964-25241-00000006D0000176D0000800000CC12S     GGSL
NJARET20040-21964-25242-70000012D0000438D0001100000CC18S     GGSL
NJARET20040-21964-25244-10000012D0000352D0000700000CC12N     GGSL
NJARET20040-21964-25245-80000006D0000219D0000800000CC18N     GGSL
NJARET20040-21964-25256-40000001D0000024D0000000000CC12FMX   GGSL
NJARET20040-21964-40043-90000006D0000107D0001100000CJM8G     GGSL
NJARET20040-21964-40053-80000054D0001197D0000300000CJM15G    GGSL
NJARET20040-21964-41064-30000001D0000022D0000300000CJTHM23BX GGSL
NJARET20040-21964-41073-50000036D0000746D0000700000CJTHM15Y  GGSL
NJARET20040-21964-50100-60000012D0000155D0000400000SKYHK     GGSL
NJARET20040-21964-50202-70000012D0000059D0000200000LC18      GGSL
NJARET20040-21964-60536-00000004D0000075D0001000000SAMX      GGSL
NJARET20040-21964-60544-50000001D0000064D0002000000UNBSX     GGSL
NJARET20040-21964-70101-70000004D0000046D0000400000SS2       GGSL
NJARET20040-21964-70202-10000024D0000163D0000200000WWM       GGSL
NJARET20040-21964-80100-70000012D0000100D0000400000BFB       GGSL
NJARET20040-21964-80130-40000012D0000034D0000300000PLBO      GGSL
NJARET20040-21964-92006-70000002D0000174D0002500000YCPW180M  GGSL
NJARET20040-22179-10084-80000018D0000163D0001300001LG7220    GGSL
NJARET20040-22179-10120-30000052D0002290D0002700021LG6510    GGSL
NJARET20040-22179-10124-10000168D0000969D0009800000LG6515    GGSL
NJARET20040-22179-10157-90000018D0000390D0001800001LG6530    GGSL
NJARET20040-22179-10185-20000402D0004925D0035600339LG6500    GGSL
NJARET20040-22179-10230-90000060D0000296D0000700000LG8800    GGSL
NJARET20040-22179-10239-20000004D0000338D0000600000LG6155    GGSL
NJARET20040-22179-10246-00000108D0001892D0014300127LG6570    GGSL
NJARET20040-22179-10248-40000024D0000204D0001400000LG6575    GGSL
NJARET20040-22179-10257-60000024D0000399D0000500000LG3190    GGSL
NJARET20040-22179-10266-80000012D0000222D0000400000LG6145    GGSL
NJARET20040-22179-10326-90000018D0000533D0000800000LG5482    GGSL
NJARET20040-22179-10327-60000048D0000427D0001000001LG6148    GGSL
NJARET20040-22179-10390-00000768D0007369D0017500175LG6332    GGSL
NJARET20040-22179-10408-20000168D0001670D0001000000LG6338    GGSL
NJARET20040-22179-10417-40000024D0002081D0000000000LG6142    GGSL
NJARET20040-22179-10419-80000048D0000213D0000100001LG6166    GGSL
NJARET20040-22179-10420-40000012D0000130D0000100001LG6168    GGSL
NJARET20040-22179-10429-70000096D0001749D0000000000LG6334    GGSL
NJARET20040-22179-10434-10000024D0000221D0000800000LG6133    GGSL
NJARET20040-22179-10444-00000006D0000076D0000300000LG3374    GGSL
NJARET20040-22179-10448-80000024D0000264D0000500000LG3174    GGSL
NJARET20040-22179-10454-90000018D0000204D0000600000LG3303    GGSL
NJARET20040-22179-10466-20000072D0002571D0000400000LG3319    GGSL
NJARET20040-22179-10471-60000012D0000119D0000200000LG6128    GGSL
NJARET20040-22401-00301-50000023D0000240D0000000000THD20     GGSL
NJARET20040-22401-00401-20000024D0000315D0000000000PRO20B    GGSL
NJARET20040-22401-00440-10000018D0000453D0000100000PRO40     GGSL
NJARET20040-22401-00440-10000009D0000226D0007500000PRO40PC   GGSL
NJARET20040-22401-00740-20000023D0000344D0003000000DBRC20    GGSL
NJARET20040-22401-10087-50000040D0000312D0003700015EAR20TMC  GGSL
NJARET20040-22401-10088-20000006D0000133D0000000000EAR60     GGSL
NJARET20040-23075-02721-50000048D0000243D0000200000P72H      GGSL
NJARET20040-23865-08808-20000048D0000208D00003000028808      GGSL
NJARET20040-23865-09904-00000063D0000466D00017000009904      GGSL
NJARET20040-23865-09908-80000006D0000080D00015000019908      GGSL
NJARET20040-23865-09910-10000004D0000062D00058000009910      GGSL
NJARET20040-23865-09912-50000040D0000564D000010000009912     GGSL
NJARET20040-23865-09915-60000014D0000308D000080000509915     GGSL
NJARET20040-23865-09983-50000048D0000138D00036000009983      GGSL
NJARET20040-23865-09984-20000036D0000145D00003000009984      GGSL
NJARET20040-23865-09987-30000340D0002635D00175000009987      GGSL
NJARET20040-23883-00009-70000018D0000465D0000000000G362D     GGSL
NJARET20040-23883-16100-20000071D0000931D001920000016100     GGSL
NJARET20040-23883-16200-90000017D0000307D000860000016200     GGSL
NJARET20040-23883-20002-20000020D0000394D000550000020002     GGSL
NJARET20040-23883-20003-90000006D0000160D000000000020003     GGSL
NJARET20040-23883-20010-70000013D0000216D000650000020010     GGSL
NJARET20040-23883-20020-60000012D0000270D000680000020020     GGSL
NJARET20040-23883-20030-50000002D0000059D000020000220030     GGSL
NJARET20040-23883-26021-70000003D0000113D000000000026021XP   GGSL
NJARET20040-23883-26031-60000003D0000143D000000000026031XP   GGSL
NJARET20040-23883-61900-80000001D0000100D000000000061900     GGSL
NJARET20040-23883-63800-90000002D0000182D000030000063800     GGSL
NJARET20040-23883-69324-20000002D0000379D000040000063924     GGSL
NJARET20040-23883-81000-90000002D0000171D000100000081000A    GGSL
NJARET20040-24114-20480-20000025D0000160D0002600000204809    GGSL
NJARET20040-24114-21823-60000025D0000278D0000300000218273    GGSL
NJARET20040-24114-30677-30000012D0000052D0000900000776777    GGSL
NJARET20040-24114-70102-80000150D0000276D0007000000701002    GGSL
NJARET20040-24114-70402-90000375D0000938D0002200000704002    GGSL
NJARET20040-24114-70609-20000075D0000327D0001800000706009    GGSL
NJARET20040-24114-70807-30000300D0001186D0001700001708073    GGSL
NJARET20040-24114-71079-20000100D0000719D0001700000710079    GGSL
NJARET20040-24114-71609-10000025D0000153D0001700000716009    GGSL
NJARET20040-24114-71642-80000010D0000177D0004900000701642    GGSL
NJARET20040-24114-71673-20000075D0000490D0001900000716073    GGSL
NJARET20040-24114-71833-00000025D0000278D0000500000718373    GGSL
NJARET20040-24114-71853-80000025D0000278D0000500000718573    GGSL
NJARET20040-24114-71863-70000025D0000278D0000300000718673    GGSL
NJARET20040-24114-74009-60000175D0000847D0002700000704009    GGSL
NJARET20040-24114-74185-70000030D0000420D0000100000741854    GGSL
NJARET20040-24114-74209-00000050D0000320D0000900000704209    GGSL
NJARET20040-24114-74509-10000200D0001278D0001200000704509    GGSL
NJARET20040-24114-74809-20000100D0000639D0001900000704809    GGSL
NJARET20040-24114-74929-70000050D0000320D0000800000704929    GGSL
NJARET20040-24114-78345-10000012D0000064D000000000083450     GGSL
NJARET20040-24654-05102-70000048D0000261D000180000051026     GGSL
NJARET20040-24654-05922-10000030D0000374D00011000005926      GGSL
NJARET20040-24654-05922-10000001D0000262D00002000005926DS    GGSL
NJARET20040-24654-05962-70000084D0001016D00025000005962      GGSL
NJARET20040-24654-05962-70000005D0000939D00024000015962DS    GGSL
NJARET20040-24654-05981-80000048D0000492D00003000005981      GGSL
NJARET20040-24654-09334-80000071D0002026D00154000009334      GGSL
NJARET20040-24654-30506-90000036D0000162D000050000030506     GGSL
NJARET20040-24654-51806-30000054D0000311D000100000151806     GGSL
NJARET20040-24654-51826-10000030D0000300D000200000051826     GGSL
NJARET20040-24654-55085-80000018D0000098D000070000050856     GGSL
NJARET20040-24654-55110-70000078D0000424D000870000151106     GGSL
NJARET20040-24654-55118-30000006D0000045D00006000005118      GGSL
NJARET20040-24654-55325-50000006D0000033D000000000053256     GGSL
NJARET20040-24654-55450-40000018D0000098D000180000054506     GGSL
NJARET20040-24654-65324-50000012D0000141D000120000053246A    GGSL
NJARET20040-24654-65452-50000036D0000195D000620000054526     GGSL
NJARET20040-24654-72125-80000018D0000096D0000300000SB125     GGSL
NJARET20040-25033-01703-00000006D0000067D000140000001703     GGSL
NJARET20040-25033-01707-80000006D0000072D000110000001707     GGSL
NJARET20040-25033-01713-90000018D0000229D000170000001713     GGSL
NJARET20040-25033-01717-70000012D0000202D000100000001717     GGSL
NJARET20040-25033-02019-10000008D0000457D000090000002019     GGSL
NJARET20040-25033-02088-70000018D0000226D000020000002088     GGSL
NJARET20040-25033-02089-40000012D0000097D000050000202089     GGSL
NJARET20040-25033-02145-70000012D0000191D000010000002145     GGSL
NJARET20040-25033-02212-60000002D0000183D000120000002212     GGSL
NJARET20040-25033-02393-20000004D0000400D000030000002393     GGSL
NJARET20040-25033-02510-30000004D0000044D000330000002510     GGSL
NJARET20040-25033-02519-60000004D0000122D000240000002519     GGSL
NJARET20040-25033-02522-60000004D0000211D000610000002522     GGSL
NJARET20040-25033-02523-30000005D0000286D000460000002523     GGSL
NJARET20040-25033-02525-70000005D0000321D000590000002525     GGSL
NJARET20040-25033-02527-10000005D0000351D000340000002527     GGSL
NJARET20040-25033-02667-40000004D0000864D000090000002667     GGSL
NJARET20040-25033-02670-40000003D0000790D000090000002670     GGSL
NJARET20040-25033-02675-90000001D0000232D000120000002675     GGSL
NJARET20040-25033-02680-30000003D0000623D000080000002680     GGSL
NJARET20040-25033-02720-60000005D0000458D000390000002720     GGSL
NJARET20040-25033-02722-00000002D0000211D000120000002722     GGSL
NJARET20040-25033-02728-20000004D0000578D000060000002728     GGSL
NJARET20040-25033-03800-40000008D0000183D000400000003800     GGSL
NJARET20040-25033-03801-10000008D0000174D000300000003801     GGSL
NJARET20040-25033-03802-80000012D0000255D000260000203802     GGSL
NJARET20040-25033-05615-20000004D0000884D000060000005615     GGSL
NJARET20040-25033-05625-10000002D0000541D000020000005625     GGSL
NJARET20040-25033-12195-90000030D0000196D000060000012195     GGSL
NJARET20040-25033-12201-70000012D0000100D000020000012201     GGSL
NJARET20040-25033-12202-40000030D0000238D000110000012202     GGSL
NJARET20040-25033-12203-10000006D0000021D000180000012203     GGSL
NJARET20040-25033-12204-80000018D0000100D000250000012204     GGSL
NJARET20040-25033-12403-50000001D0000127D000030000012403     GGSL
NJARET20040-25033-12410-30000002D0000310D000030000012410     GGSL
NJARET20040-25033-12412-70000003D0000290D000110000212412     GGSL
NJARET20040-25033-12730-20000096D0000886D000330000012730     GGSL
NJARET20040-25033-12746-30000018D0000354D000300002612746     GGSL
NJARET20040-25033-12785-20000006D0000015D000030000012785     GGSL
NJARET20040-25033-12971-90000011D0000404D001960018712971     GGSL
NJARET20040-25033-12974-00000013D0000802D000500000512974     GGSL
NJARET20040-25033-12981-80000004D0000055D000080000612981     GGSL
NJARET20040-25033-20230-60000002D0000535D000000000020230     GGSL
NJARET20040-25033-25021-50000001D0000443D000000000025021     GGSL
NJARET20040-25531-01234-60000003D0000101D000260000075160     GGSL
NJARET20040-25545-21619-80000080D0001237D0009000011 21619    GGSL
NJARET20040-25626-15049-60000018D0000070D000040000085049     GGSL
NJARET20040-25845-12346-20000048D0000077D00000000005585      GGSL
NJARET20040-25845-12366-00000060D0000509D00001000005566      GGSL
NJARET20040-25849-00128-50000150D0001310D00000000000128P     GGSL
NJARET20040-25849-00205-30000245D0004477D00002000000205RG    GGSL
NJARET20040-25849-00205-30000012D0000210D00000000000205RGX   GGSL
NJARET20040-25849-00305-00000070D0001277D00002000000305RG    GGSL
NJARET20040-25849-00305-00000062D0001038D00010000000305RGX   GGSL
NJARET20040-25849-10381-10000480D0013434D000220000010381RG   GGSL
NJARET20040-25849-10381-10000153D0004451D001070000610381RGX  GGSL
NJARET20040-25849-10710-90000054D0000609D00009000001020010RG GGSL
NJARET20040-25849-10720-80000063D0000558D00155000001020020RGXGGSL
NJARET20040-25849-10910-30000114D0000487D00038000071008010RGXGGSL
NJARET20040-25849-11010-90000102D0000576D00001000001016010RGXGGSL
NJARET20040-25849-11051-20000156D0000817D00044000001016051RGXGGSL
NJARET20040-25849-11110-60000480D0003048D00003000001010010RG GGSL
NJARET20040-25849-11110-60000605D0003387D00228000001010010RGXGGSL
NJARET20040-25849-11151-90000120D0000762D00004000001010051RG GGSL
NJARET20040-25849-11151-90000136D0000809D00133000051010051RGXGGSL
NJARET20040-25849-11330-80000124D0002054D00050000011020030RGXGGSL
NJARET20040-25849-20381-80000180D0005351D000110000020381RG   GGSL
NJARET20040-25849-20381-80000031D0000922D000000000020381RGX  GGSL
NJARET20040-25849-22810-10000060D0000344D00002000002260010RG GGSL
NJARET20040-25849-22821-70000060D0000110D00000000002260021R6XGGSL
NJARET20040-25849-62151-30000036D0000104D00009000006001051NPBGGSL
NJARET20040-25881-08502-10000004D0000060D0000300003 085024   GGSL
NJARET20040-25881-08503-80000001D0000018D0002300000 08503COMPGGSL
NJARET20040-25881-09942-40000008D0000223D0000600000 09942    GGSL
NJARET20040-25881-10712-90000002D0000031D0001200002 10712    GGSL
NJARET20040-25881-11091-40000006D0000021D0000600000 11091    GGSL
NJARET20040-26175-86100-00000324D0001618D0002500000861       GGSL
NJARET20040-26432-20125-90000072D0000779D0000900000HHBS125   GGSL
NJARET20040-26432-24016-60000017D0001457D0002000000SB4000PRCGGGSL
NJARET20040-26432-24505-50000003D0000371D0000100000SB4500PRCGGGSL
NJARET20040-26432-26110-90000005D0001263D0000000000SB6500    GGSL
NJARET20040-26432-27000-20000001D0000295D0000000000TBS7000RDOGGSL
NJARET20040-26600-89334-70000824D0001475D006140000089334     GGSL
NJARET20040-26978-02181-60000130D0000537D000050000002181     GGSL
NJARET20040-26978-02182-30000070D0000342D000290000002182     GGSL
NJARET20040-26978-02188-50000080D0000310D000270000002188     GGSL
NJARET20040-26978-02241-70000130D0000696D000130000002241     GGSL
NJARET20040-26978-02242-40000180D0000963D000210000002242     GGSL
NJARET20040-26978-02248-60000210D0000901D000250000002248     GGSL
NJARET20040-26978-02301-80000100D0000710D000070000002301     GGSL
NJARET20040-26978-02302-50000100D0000710D000200000002302     GGSL
NJARET20040-26978-02308-70000110D0000619D000310000002308     GGSL
NJARET20040-26978-02361-20000110D0000989D000140000002361     GGSL
NJARET20040-26978-02362-90000150D0001349D000150000002362     GGSL
NJARET20040-26978-02368-10000100D0000684D000320000002368     GGSL
NJARET20040-26978-03062-70000010D0000040D000110000003062     GGSL
NJARET20040-26978-03068-90000010D0000040D000030000003068     GGSL
NJARET20040-26978-03082-50000010D0000074D000050000003082     GGSL
NJARET20040-26978-03088-70000020D0000148D000010000003088     GGSL
NJARET20040-26978-03122-80000010D0000172D00009000000312205   GGSL
NJARET20040-26978-05041-00000216D0000354D000190000005041     GGSL
NJARET20040-26978-05071-70000036D0000042D000290000005071     GGSL
NJARET20040-26978-05081-60000180D0000230D000140000005081     GGSL
NJARET20040-26978-08062-20000010D0000040D000070000008062     GGSL
NJARET20040-26978-10010-80000036D0000131D000080000110010     GGSL
NJARET20040-26978-10012-20000036D0000131D000100000110012     GGSL
NJARET20040-26978-10013-90000030D0000109D000100000110013     GGSL
NJARET20040-26978-10062-70000170D0000438D000080000810062     GGSL
NJARET20040-26978-10068-90000060D0000159D000200000010068     GGSL
NJARET20040-26978-10082-50000110D0000378D000050000010082     GGSL
NJARET20040-26978-10088-70000100D0000349D000000000010088     GGSL
NJARET20040-26978-10102-00000030D0000158D000480000010102     GGSL
NJARET20040-26978-10108-20000005D0000026D000390000010108     GGSL
NJARET20040-26978-10122-80000030D0000234D000280000010122     GGSL
NJARET20040-26978-10128-00000015D0000117D000420000010128     GGSL
NJARET20040-26978-10142-60000010D0000098D000210000010142     GGSL
NJARET20040-26978-10148-50000010D0000098D000260000010148     GGSL
NJARET20040-26978-10180-80000090D0000289D000050000010180     GGSL
NJARET20040-26978-10182-20000090D0000289D000090000010182     GGSL
NJARET20040-26978-10185-30000070D0000225D000240000010185     GGSL
NJARET20040-26978-10240-90000090D0000318D000190000010240     GGSL
NJARET20040-26978-10242-30000100D0000349D000310000010242     GGSL
NJARET20040-26978-10243-00000010D0000035D000190000010243     GGSL
NJARET20040-26978-10245-40000060D0000212D000260000010245     GGSL
NJARET20040-26978-10300-00000030D0000134D000220000010300     GGSL
NJARET20040-26978-10302-40000080D0000356D000230000010302     GGSL
NJARET20040-26978-10305-50000060D0000267D000110000010305     GGSL
NJARET20040-26978-10360-40000020D0000111D000140000010360     GGSL
NJARET20040-26978-10362-80000080D0000446D000170000010362     GGSL
NJARET20040-26978-10365-90000050D0000279D000070000010365     GGSL
NJARET20040-26978-16190-10000220D0000961D000240000016190     GGSL
NJARET20040-26978-16192-50000370D0001401D000060000316192     GGSL
NJARET20040-26978-16193-20000070D0000306D000330000016193     GGSL
NJARET20040-26978-16195-60000260D0001081D000050000516195     GGSL
NJARET20040-26978-16240-30000230D0001244D000080000016240     GGSL
NJARET20040-26978-16242-70000390D0002110D000220000116242     GGSL
NJARET20040-26978-16243-40000170D0000920D000340000016243     GGSL
NJARET20040-26978-16245-80000400D0002158D000120000116245     GGSL
NJARET20040-26978-16300-40000220D0001500D000310000016300     GGSL
NJARET20040-26978-16302-80000170D0001159D000670000816302     GGSL
NJARET20040-26978-16303-50000080D0000546D000430000016303     GGSL
NJARET20040-26978-16305-90000320D0002175D000150000016305     GGSL
NJARET20040-26978-16360-80000120D0001223D000420000016360     GGSL
NJARET20040-26978-16362-20000110D0001121D000150000116362     GGSL
NJARET20040-26978-16363-90000130D0001325D000170000016363     GGSL
NJARET20040-26978-16365-30000190D0001925D000100000016365     GGSL
NJARET20040-26978-26140-30000050D0000450D000170000026140     GGSL
NJARET20040-26978-26142-70000140D0001248D000370000026142     GGSL
NJARET20040-26978-26143-40000040D0000360D000150000026143     GGSL
NJARET20040-26978-26145-80000060D0000540D000110000026145     GGSL
NJARET20040-26978-26162-50000008D0000077D000010000026162     GGSL
NJARET20040-26978-26182-30000110D0001585D000160000026182     GGSL
NJARET20040-26978-26183-00000020D0000288D000110000026183     GGSL
NJARET20040-26978-26185-40000040D0000576D000180000026185     GGSL
NJARET20040-26978-26242-40000020D0000225D000090000026242     GGSL
NJARET20040-26978-26270-70000020D0000231D000180000026270     GGSL
NJARET20040-26978-26272-10000030D0000346D000310000026272     GGSL
NJARET20040-26978-26273-80000030D0000346D000130000026273     GGSL
NJARET20040-26978-26275-20000070D0000807D000260000026275     GGSL
NJARET20040-26978-29301-50000012D0000106D000090000029301     GGSL
NJARET20040-26978-29306-00000042D0000344D000110000029306     GGSL
NJARET20040-26978-30301-10000912D0004397D000290000330301     GGSL
NJARET20040-26978-30301-10000384D0001606D00001000003030196   GGSL
NJARET20040-26978-30312-70000012D0000012D000460000130312     GGSL
NJARET20040-26978-30402-50000144D0000789D000250000030402     GGSL
NJARET20040-26978-30407-00000012D0000075D000000000030407     GGSL
NJARET20040-26978-30411-70000084D0000493D000170000030411     GGSL
NJARET20040-26978-30413-10000084D0000493D000010000030413     GGSL
NJARET20040-26978-30413-10000096D0000361D00025000003041396   GGSL
NJARET20040-26978-30500-80000160D0000792D000400000130500     GGSL
NJARET20040-26978-30602-90007560D0023225D009620095230602     GGSL
NJARET20040-26978-30605-00000450D0001407D000760000230605     GGSL
NJARET20040-26978-30702-60000114D0000371D000370000230702     GGSL
NJARET20040-26978-30705-70000138D0000418D000140000230705     GGSL
NJARET20040-26978-30806-10000036D0000152D000660000730806     GGSL
NJARET20040-26978-30809-20000060D0000253D000500000630809     GGSL
NJARET20040-26978-30901-30000060D0000223D000340000130901     GGSL
NJARET20040-26978-30909-90000060D0000248D000280000130909     GGSL
NJARET20040-26978-31100-90000010D0000056D000360000331100     GGSL
NJARET20040-26978-31101-60000015D0000084D000240000031101     GGSL
NJARET20040-26978-31108-50000020D0000113D000210000031108     GGSL
NJARET20040-26978-31109-20000015D0000084D000180000131109     GGSL
NJARET20040-26978-31121-40000015D0000176D000190000031121     GGSL
NJARET20040-26978-31128-30000020D0000235D000320000031128     GGSL
NJARET20040-26978-31168-90000010D0000226D000160000031168     GGSL
NJARET20040-26978-32108-40000035D0000253D000150000032108     GGSL
NJARET20040-26978-34101-30000010D0000117D000200000034101     GGSL
NJARET20040-26978-34108-20000030D0000352D000120000134108     GGSL
NJARET20040-26978-35061-90000010D0000040D000180000035061     GGSL
NJARET20040-26978-35068-80000010D0000040D000360000035068     GGSL
NJARET20040-26978-35080-00000010D0000074D000300000035080     GGSL
NJARET20040-26978-35081-70000020D0000148D000130000035081     GGSL
NJARET20040-26978-35088-60000010D0000074D000320000135088     GGSL
NJARET20040-26978-35100-50000010D0000143D000290000035100     GGSL
NJARET20040-26978-35101-20000015D0000215D000080000035101     GGSL
NJARET20040-26978-35108-10000005D0000072D000420000035108     GGSL
NJARET20040-26978-35109-80000005D0000072D000250000035109     GGSL
NJARET20040-26978-35120-30000010D0000204D000210000035120     GGSL
NJARET20040-26978-35188-30000010D0000660D000010000035188     GGSL
NJARET20040-26978-35190-60000004D0000128D000010000135190     GGSL
NJARET20040-26978-35198-20000008D0000256D000110000035198     GGSL
NJARET20040-26978-35199-90000004D0000128D000160000035199     GGSL
NJARET20040-26978-35270-50000004D0000304D000010000035270     GGSL
NJARET20040-26978-35278-10000014D0001065D000170000035278     GGSL
NJARET20040-26978-35278-10000002D0000181D00002000003527801   GGSL
NJARET20040-26978-35279-80000006D0000457D000150000035279     GGSL
NJARET20040-26978-35358-00000002D0000317D00034000003535801   GGSL
NJARET20040-26978-36101-10000005D0000042D000020000036101     GGSL
NJARET20040-26978-36128-80000010D0000147D000080000036128     GGSL
NJARET20040-26978-36140-00000020D0000252D000250000036140     GGSL
NJARET20040-26978-36148-60000020D0000252D000250000036148     GGSL
NJARET20040-26978-36220-90000005D0000110D000290000036220     GGSL
NJARET20040-26978-36228-50000015D0000331D000340000036228     GGSL
NJARET20040-26978-38142-20000096D0000506D000160000238142     GGSL
NJARET20040-26978-38146-00000024D0000126D000360000138146     GGSL
NJARET20040-26978-38148-40000024D0000126D000000000038148     GGSL
NJARET20040-26978-38192-70000036D0000432D000200000038192     GGSL
NJARET20040-26978-38196-50000024D0000283D000290000038196     GGSL
NJARET20040-26978-38198-90000228D0002736D000500004638198     GGSL
NJARET20040-26978-39122-30000024D0000095D000270000039122     GGSL
NJARET20040-26978-39126-10000072D0000285D000430000039126     GGSL
NJARET20040-26978-39128-50000180D0000674D000200000139128     GGSL
NJARET20040-26978-39182-70000090D0000921D000390000039182     GGSL
NJARET20040-26978-39186-50000042D0000430D000230000039186     GGSL
NJARET20040-26978-39188-90000180D0001841D000630000039188     GGSL
NJARET20040-26978-48098-30000012D0000053D000340000048098     GGSL
NJARET20040-26978-48128-00000006D0000037D000240000048128     GGSL
NJARET20040-26978-48158-00000012D0000098D000080000048158     GGSL
NJARET20040-26978-80100-50000004D0000177D000040000080100     GGSL
NJARET20040-26978-80101-20000044D0001616D000010000080101     GGSL
NJARET20040-26978-80101-20000004D0000153D00000000008010104   GGSL
NJARET20040-26978-80105-00000008D0000307D00000000008010504   GGSL
NJARET20040-26978-80107-40000012D0000339D00049000438010712   GGSL
NJARET20040-26978-80151-70000092D0003501D000000000080151     GGSL
NJARET20040-26978-80151-70000004D0000157D00000000008015104   GGSL
NJARET20040-26978-80155-20000012D0000457D00001000008015512   GGSL
NJARET20040-26978-80155-50000044D0001674D000000000080155     GGSL
NJARET20040-26978-80651-20000006D0000108D000050000080651     GGSL
NJARET20040-26978-81011-30000004D0000102D000290000081011     GGSL
NJARET20040-26978-81075-50000012D0000042D000110000081075     GGSL
NJARET20040-26978-81100-40000192D0001537D000070000081100     GGSL
NJARET20040-26978-81101-10000096D0000861D000030000081101     GGSL
NJARET20040-26978-81121-90000060D0000227D000040000081121     GGSL
NJARET20040-26978-81201-80000005D0000224D000120000081201     GGSL
NJARET20040-26978-81705-10000004D0000135D000000000081705     GGSL
NJARET20040-26978-81751-80000004D0000119D000100000081751     GGSL
NJARET20040-26978-81755-60000012D0000356D000110000081755     GGSL
NJARET20040-27452-06200-40000002D0000034D00013000006200      GGSL
NJARET20040-27652-80201-10000018D0000423D0000000000LG4001409PGGSL
NJARET20040-27652-80203-50000012D0000566D0003000000LG400151  GGSL
NJARET20040-27652-80204-20000004D0000216D0003900000LG400161  GGSL
NJARET20040-27652-80205-90000008D0000549D0004100000LG400171  GGSL
NJARET20040-27713-49762-00000012D0000105D000010000049762     GGSL
NJARET20040-27713-49763-70000012D0000087D000000000049763     GGSL
NJARET20040-27856-10001-20005628D0016749D0014000004P10232    GGSL
NJARET20040-27856-10002-90006792D0035701D0130000004P10264    GGSL
NJARET20040-27856-10008-10003696D0050219D0026500000P101      GGSL
NJARET20040-27856-10009-80002136D0019514D0007700000P128      GGSL
NJARET20040-27997-00229-90000012D0000284D0000900000TE        GGSL
NJARET20040-27997-00817-80000003D0000091D000000000000221100  GGSL
NJARET20040-27997-01017-10000009D0001522D0001200000M6T22     GGSL
NJARET20040-27997-01800-90000003D0000321D000030000000063000  GGSL
NJARET20040-28009-11225-80000200D0001026D00000000001225      GGSL
NJARET20040-28009-11225-80000100D0000513D00000000001225X     GGSL
NJARET20040-28009-11440-50000065D0000369D0000000000T1440     GGSL
NJARET20040-28009-11440-50000065D0000525D00002000001440      GGSL
NJARET20040-28009-11731-40000130D0000978D00000000001925      GGSL
NJARET20040-28009-11815-10000055D0000328D0000000000T1815     GGSL
NJARET20040-28009-11840-30000040D0000281D0000900000T1840X    GGSL
NJARET20040-28009-15540-80000660D0001723D0000000000T5540     GGSL
NJARET20040-28929-02780-90000007D0000442D00053000052780SPC   GGSL
NJARET20040-28929-02781-60000046D0002751D00122000202781SPC   GGSL
NJARET20040-28929-02930-80000001D0000071D00002000002930DL    GGSL
NJARET20040-28929-02931-50000008D0000639D00050000052931DL    GGSL
NJARET20040-28929-04750-00000001D0000100D00052000004750BR    GGSL
NJARET20040-28929-04902-30000002D0000088D00187000004902C     GGSL
NJARET20040-28929-06250-30000001D0000092D00130000016250      GGSL
NJARET20040-28929-07820-70000002D0000120D00144000002782SPC   GGSL
NJARET20040-28929-08911-10000048D0004160D00071000008911E     GGSL
NJARET20040-28929-27840-90000010D0000601D00106000102784SPC   GGSL
NJARET20040-28929-27850-80000021D0001262D00100000082785SPC   GGSL
NJARET20040-28929-34780-80000013D0001133D00143000014780BRC   GGSL
NJARET20040-28929-49132-70000003D0000133D00007000004913B     GGSL
NJARET20040-28929-49133-40000005D0000222D00073000004913N     GGSL
NJARET20040-28929-49134-10000001D0000044D00029000004913T     GGSL
NJARET20040-28929-67114-90000021D0004589D006720000567104914SPGGSL
NJARET20040-28929-92022-30000001D0000276D00134000002790202203GGSL
NJARET20040-29925-13194-10000001D0000071D000000000013194     GGSL
NJARET20040-29925-13581-90000002D0000044D000020000013581     GGSL
NJARET20040-29925-60009-60000008D0000183D000000000060000     GGSL
NJARET20040-29925-60151-20000011D0000149D000040000060151     GGSL
NJARET20040-29925-60152-90000012D0000185D000150000060152     GGSL
NJARET20040-29925-70153-30000009D0000221D000000000070153     GGSL
NJARET20040-29925-70161-80000002D0000032D000010000070151     GGSL
NJARET20040-29925-70162-50000002D0000039D000000000070152     GGSL
NJARET20040-29925-80101-10000004D0000074D000020000080161     GGSL
NJARET20040-29925-80102-80000001D0000023D000120000080162     GGSL
NJARET20040-29973-12316-50000560D0002850D000040000014116021P GGSL
NJARET20040-29973-12333-20000792D0002655D000000000014110028P GGSL
NJARET20040-29973-12341-70000363D0001702D0000000000141100216UGGSL
NJARET20040-29973-12349-30000232D0000993D000120000014901028P GGSL
NJARET20040-29973-12456-80000104D0000432D000120000014902028P GGSL
NJARET20040-30541-00069-60000012D0000068D0000100000JCD05CMP  GGSL
NJARET20040-30541-00301-70000001D0000191D0000000000JCD30BKSM GGSL
NJARET20040-30541-00801-20000005D0000252D0002200000JCD08BKSM GGSL
NJARET20040-30541-01020-60000576D0001329D0003800001JCD024SM  GGSL
NJARET20040-30541-01030-50000108D0000906D0007800000JCD100SMJ GGSL
NJARET20040-30541-01034-30000066D0001384D0004400000JCD030SM  GGSL
NJARET20040-30541-01039-80000096D0000477D0003100000JCD05SM   GGSL
NJARET20040-30541-08878-60000024D0000072D0000200000SMMS      GGSL
NJARET20040-30541-08879-30000024D0000078D0001400000SMVS      GGSL
NJARET20040-30541-09981-20000200D0000370D0000500000JCDTPG    GGSL
NJARET20040-30541-83795-70000024D0000047D0000000000JCD024TMP GGSL
NJARET20040-31340-10005-10000036D0000655D0001800000B550120   GGSL
NJARET20040-31340-10006-80000204D0002262D0009900000B550125   GGSL
NJARET20040-31340-10017-40000056D0001019D0001800000B550190   GGSL
NJARET20040-31340-10020-40000004D0000100D0000500000B550205   GGSL
NJARET20040-31365-05040-90000002D0000011D0000000000 41718    GGSL
NJARET20040-31365-05080-50000001D0000008D0000700000 41719    GGSL
NJARET20040-31365-10600-70000046D0000810D0009100005 42808    GGSL
NJARET20040-31417-00043-70000016D0000085D000250000080201105  GGSL
NJARET20040-31417-00046-80000040D0000438D000500000080201121X GGSL
NJARET20040-31417-00047-50000040D0000706D000600000080551121X GGSL
NJARET20040-31417-00055-00000264D0006600D000000000080601131  GGSL
NJARET20040-31417-00055-00000004D0000100D001440000080601131X GGSL
NJARET20040-31417-00056-70000066D0001474D000000000080611131  GGSL
NJARET20040-31417-00057-40000020D0000383D000460000480621131X GGSL
NJARET20040-31417-00105-20000005D0000067D000000000080202020  GGSL
NJARET20040-31417-00107-60000010D0000054D000470000080202005  GGSL
NJARET20040-31417-00205-90000048D0000230D000010000070502001  GGSL
NJARET20040-31724-08876-00000016D0000075D00018000008876      GGSL
NJARET20040-31724-10302-90000010D0000093D0000700000103025    GGSL
NJARET20040-31724-10305-00000085D0001017D0002200000103050    GGSL
NJARET20040-31724-20305-70000010D0000184D0000500000203050    GGSL
NJARET20040-31724-40011-10000040D0002421D00014000004001100   GGSL
NJARET20040-31724-40012-80000036D0000917D0001400000400125    GGSL
NJARET20040-31724-40015-90000702D0023962D0001500000400150    GGSL
NJARET20040-31724-40015-90000054D0001953D0005200000400150PDQ GGSL
NJARET20040-31724-40017-30000008D0000410D0000000000400175    GGSL
NJARET20040-31724-43007-10000006D0000390D0000400000430075    GGSL
NJARET20040-31724-76125-00000030D0000636D0000000000761250    GGSL
NJARET20040-31724-81001-90000012D0000749D00007000008100100   GGSL
NJARET20040-31724-81005-70000004D0000145D0000900000810050    GGSL
NJARET20040-31724-84000-90000006D0000133D00013000008400100   GGSL
NJARET20040-31724-84005-40000020D0000246D0001100000840050    GGSL
NJARET20040-31724-84007-80000003D0000054D0000800000840075    GGSL
NJARET20040-31724-85090-90000009D0000311D00023000008509100   GGSL
NJARET20040-31724-85095-40000020D0000350D0001100000850950    GGSL
NJARET20040-31724-85097-80000006D0000156D0001100000850975    GGSL
NJARET20040-31724-85357-30000003D0000067D0000200000853575    GGSL
NJARET20040-31724-86150-90000033D0001455D00034000008615100   GGSL
NJARET20040-31724-86152-30000040D0000586D0003100000861525    GGSL
NJARET20040-31724-86155-40000065D0001585D0002600000861550    GGSL
NJARET20040-31724-86157-80000081D0002267D0003100000861575    GGSL
NJARET20040-31724-86420-30000012D0000564D00010000008642100   GGSL
NJARET20040-31724-86425-80000010D0000270D0001700000864250    GGSL
NJARET20040-31724-86427-20000003D0000110D0002100000864275    GGSL
NJARET20040-31724-86505-70000165D0004993D0000000000865050    GGSL
NJARET20040-31724-86955-00000055D0001990D0000000000869550    GGSL
NJARET20040-31724-88440-90000021D0001074D00002000008844100   GGSL
NJARET20040-31724-88445-40000015D0000415D0000500000884450    GGSL
NJARET20040-31724-88447-80000006D0000226D0001500000884475    GGSL
NJARET20040-31724-88805-60000005D0000118D0001500001888VR50   GGSL
NJARET20040-31724-98440-60000012D0000800D00018000009844100   GGSL
NJARET20040-31724-98447-50000003D0000156D0002300000984475    GGSL
NJARET20040-31810-86112-30000052D0000363D000000000086112     GGSL
NJARET20040-32247-00900-30000240D0000760D00057000011009001   GGSL
NJARET20040-32247-00910-20000120D0000399D00048000001009101   GGSL
NJARET20040-32247-00950-80000042D0000138D00055000001009501   GGSL
NJARET20040-32247-00970-60000012D0000035D00004000001009701   GGSL
NJARET20040-32247-02515-70000273D0010873D00542000002515      GGSL
NJARET20040-32247-05514-70001800D0008945D000120000070551430  GGSL
NJARET20040-32247-05514-70000098D0000487D000270000070551430X GGSL
NJARET20040-32247-10500-20000060D0000573D0003100000110500    GGSL
NJARET20040-32247-14900-60000128D0000987D000320000014900     GGSL
NJARET20040-32247-14901-30000004D0000060D000210000014901     GGSL
NJARET20040-32247-14902-00000304D0004460D000640000014902     GGSL
NJARET20040-32247-14905-10000688D0005304D001650000014905     GGSL
NJARET20040-32247-17183-00000702D0006784D000270000017183     GGSL
NJARET20040-32247-17185-40000448D0009942D000400000017185     GGSL
NJARET20040-32247-17187-80000095D0005042D000070000017187     GGSL
NJARET20040-32247-17290-50000222D0002362D000480000017290     GGSL
NJARET20040-32247-17293-60000108D0001118D000480000017293     GGSL
NJARET20040-32247-17295-00000252D0006005D000090000017295     GGSL
NJARET20040-32247-17323-00000156D0001497D000190000017323     GGSL
NJARET20040-32247-17325-40000076D0001514D000340000017325     GGSL
NJARET20040-32247-17327-80000027D0001155D000200000017327     GGSL
NJARET20040-32247-17378-00000004D0000162D001640000017378     GGSL
NJARET20040-32247-17504-30000021D0000972D000280000017504     GGSL
NJARET20040-32247-17508-10000402D0005470D001850000017508     GGSL
NJARET20040-32247-17511-10000042D0000583D000250000017511     GGSL
NJARET20040-32247-17519-70000036D0000933D000040000017519     GGSL
NJARET20040-32247-17530-20000066D0000638D000310000017530     GGSL
NJARET20040-32247-17540-10000384D0009988D001260000017540     GGSL
NJARET20040-32247-17930-00000006D0000081D000010000017930     GGSL
NJARET20040-32247-18221-80000360D0008378D000870000318221     GGSL
NJARET20040-32247-18225-60000432D0005132D001390000118225     GGSL
NJARET20040-32247-18249-20000044D0002683D000330000018249     GGSL
NJARET20040-32247-18251-50000052D0001637D000180000318251     GGSL
NJARET20040-32247-18260-70000048D0000561D000050000018260     GGSL
NJARET20040-32247-18266-90000114D0001514D000160000018266     GGSL
NJARET20040-32247-18269-00000048D0001438D000070000218269     GGSL
NJARET20040-32247-18272-00000036D0000180D000200000018272     GGSL
NJARET20040-32247-18277-50000012D0000322D000120000018277     GGSL
NJARET20040-32247-18296-60000036D0000442D000110000018296     GGSL
NJARET20040-32247-18320-80000084D0000865D000000000018320     GGSL
NJARET20040-32247-18334-50000003D0000313D003520000018334     GGSL
NJARET20040-32247-18345-10000156D0002145D000090000018345     GGSL
NJARET20040-32247-18346-80000056D0001164D000170000218346     GGSL
NJARET20040-32247-18348-20000162D0002373D000300000118348     GGSL
NJARET20040-32247-18354-30000084D0001175D000090000018354     GGSL
NJARET20040-32247-20785-00000480D0001872D001750000072078430  GGSL
NJARET20040-32247-21605-00000308D0006312D002300000021605     GGSL
NJARET20040-32247-21701-90000372D0003267D000590000121701     GGSL
NJARET20040-32247-21701-90000048D0000426D000000000021801     GGSL
NJARET20040-32247-21814-60000098D0004432D002240000021814     GGSL
NJARET20040-32247-22305-80000109D0001815D005310000022305     GGSL
NJARET20040-32247-22315-70000097D0004185D000920000022315     GGSL
NJARET20040-32247-23200-50000118D0004124D001350000023200     GGSL
NJARET20040-32247-23201-20000054D0002493D001610000223201     GGSL
NJARET20040-32247-23616-40000435D0010010D008500001023616     GGSL
NJARET20040-32247-23622-50000648D0010385D006040001023622     GGSL
NJARET20040-32247-25006-10000257D0005857D001410000025006A    GGSL
NJARET20040-32247-25009-20000065D0003942D001880000025009     GGSL
NJARET20040-32247-26002-20000095D0006343D000840000026002A    GGSL
NJARET20040-32247-26003-90000242D0006562D001590000026003D    GGSL
NJARET20040-32247-26784-70000198D0000630D000460000072678430  GGSL
NJARET20040-32247-27764-80000304D0001464D000120000472776430  GGSL
NJARET20040-32247-30156-50000344D0006053D000810000030156     GGSL
NJARET20040-32247-30158-90000014D0000599D000170000030158     GGSL
NJARET20040-32247-31010-90000006D0000054D000040000031010     GGSL
NJARET20040-32247-31115-80000053D0003872D001020000031115     GGSL
NJARET20040-32247-32367-30000216D0005834D001400000032367F    GGSL
NJARET20040-32247-33002-20000072D0001060D00011000003300210   GGSL
NJARET20040-32247-33006-00000012D0000164D00001000003300610   GGSL
NJARET20040-32247-33040-40000595D0009874D007990001033040     GGSL
NJARET20040-32247-33050-30000192D0007944D004920000033050     GGSL
NJARET20040-32247-33160-90000507D0034995D002000000133160     GGSL
NJARET20040-32247-34161-50000311D0018167D006090000034161     GGSL
NJARET20040-32247-36905-30000570D0020885D002970000036905     GGSL
NJARET20040-32247-37594-80000550D0004417D000060000073759430  GGSL
NJARET20040-32247-37594-80000017D0000137D000990000073759430X GGSL
NJARET20040-32247-37610-50000016D0000229D000280000037610C    GGSL
NJARET20040-32247-38505-30000021D0000384D002130000038505     GGSL
NJARET20040-32247-38605-00000003D0000051D001230000038605D    GGSL
NJARET20040-32247-39181-80000815D0022414D004270000039181     GGSL
NJARET20040-32247-39594-60000050D0000518D000100000273959430  GGSL
NJARET20040-32247-39605-90000166D0002995D001140000039605     GGSL
NJARET20040-32247-39615-80000063D0003009D000980000039615     GGSL
NJARET20040-32247-42784-50000102D0000380D000200000074278430  GGSL
NJARET20040-32247-43750-90000008D0000171D00026000004375010   GGSL
NJARET20040-32247-43850-60000028D0000799D00028000004385010   GGSL
NJARET20040-32247-43851-30000006D0000126D00127000004385106   GGSL
NJARET20040-32247-43852-00000003D0000109D00015000004385203   GGSL
NJARET20040-32247-43854-40000008D0000104D00056000004385404   GGSL
NJARET20040-32247-43860-50000024D0000585D00055000004386004   GGSL
NJARET20040-32247-44615-00000008D0000185D000970000044615A    GGSL
NJARET20040-32247-45651-70000060D0000654D000120000045651300  GGSL
NJARET20040-32247-47783-30000024D0000096D000320000174778300  GGSL
NJARET20040-32247-49013-90000003D0000074D000500000049013     GGSL
NJARET20040-32247-49019-10000347D0003879D011340000049019     GGSL
NJARET20040-32247-49023-80000012D0000106D000200000549023     GGSL
NJARET20040-32247-49024-50000145D0002053D001670002049024     GGSL
NJARET20040-32247-49785-50000510D0002081D000360000074978500  GGSL
NJARET20040-32247-49801-20000020D0000286D000530000549801C    GGSL
NJARET20040-32247-50087-60000012D0000259D00046000005008710   GGSL
NJARET20040-32247-50088-30000018D0000389D00039000005008810   GGSL
NJARET20040-32247-50154-50000350D0002956D000070000045015430  GGSL
NJARET20040-32247-50154-50000049D0000415D000500000045015430X GGSL
NJARET20040-32247-50524-60000741D0006053D000150000075052430  GGSL
NJARET20040-32247-50524-60000053D0000433D000270000075052430X GGSL
NJARET20040-32247-51062-20000036D0000321D000230000051062     GGSL
NJARET20040-32247-51070-70000004D0000040D000220000051070     GGSL
NJARET20040-32247-51080-60000030D0000171D000180000051080     GGSL
NJARET20040-32247-51105-60000209D0002739D001600000051105     GGSL
NJARET20040-32247-51115-50000121D0004428D001570000051115     GGSL
NJARET20040-32247-52784-20000222D0000943D000360000085278430  GGSL
NJARET20040-32247-53105-40000222D0002139D001700000053105     GGSL
NJARET20040-32247-53115-30000175D0004603D000650000053115     GGSL
NJARET20040-32247-54105-30000072D0000373D00004000005410510   GGSL
NJARET20040-32247-54204-30000042D0000376D00011000005420406   GGSL
NJARET20040-32247-55513-50000845D0008177D000600000175551300  GGSL
NJARET20040-32247-55513-50000176D0001704D001950001575551300X GGSL
NJARET20040-32247-55523-40000180D0002730D000610000075552300  GGSL
NJARET20040-32247-55523-40000073D0001107D001250000075552300X GGSL
NJARET20040-32247-55783-20000540D0002675D000410000075578300  GGSL
NJARET20040-32247-55863-10000364D0002940D000040000075586300  GGSL
NJARET20040-32247-55863-10000171D0001382D000920000175586300X GGSL
NJARET20040-32247-56063-40000024D0000124D000310000045606300  GGSL
NJARET20040-32247-56211-90000120D0001620D00025000005621106   GGSL
NJARET20040-32247-56513-40002665D0023124D000740000075651300  GGSL
NJARET20040-32247-56513-40000082D0000712D002240000075651300X GGSL
NJARET20040-32247-56517- 0000015D0000164D000590000045651300X GGSL
NJARET20040-32247-56523-30002700D0036596D001100000075652300  GGSL
NJARET20040-32247-56523-30000137D0001856D001510000075652300X GGSL
NJARET20040-32247-56783-10001170D0005347D006250000275678300  GGSL
NJARET20040-32247-56783-10001800D0008225D000150000275678309  GGSL
NJARET20040-32247-56863-00001001D0007269D000210000075686300  GGSL
NJARET20040-32247-56863-00000316D0002294D000400000075686300X GGSL
NJARET20040-32247-57905-60000040D0000476D001370000057905     GGSL
NJARET20040-32247-60594-60000100D0000803D000090000076059430  GGSL
NJARET20040-32247-60594-60000016D0000128D001340000076059430X GGSL
NJARET20040-32247-71060-20000240D0003032D001030000071060     GGSL
NJARET20040-32247-71131-90000032D0000591D000200000071131     GGSL
NJARET20040-32247-74150-70001116D0006026D0015600001274150    GGSL
NJARET20040-32247-74250-40000984D0007966D0009800000274250    GGSL
NJARET20040-32247-74850-60000332D0005976D0011100001274850    GGSL
NJARET20040-32247-75902-10000027D0002156D000230000075902     GGSL
NJARET20040-32247-76121-50000114D0003876D000820000076121     GGSL
NJARET20040-32247-76232-80000096D0005807D000200000076232     GGSL
NJARET20040-32247-76565-70000021D0001100D000220000076565     GGSL
NJARET20040-32247-77160-30000888D0004261D0017500002277160    GGSL
NJARET20040-32247-77260-00000888D0007458D0013600001277260    GGSL
NJARET20040-32247-77860-20000228D0003476D0012600000277860    GGSL
NJARET20040-32247-77960-90000664D0013419D0006700000277960    GGSL
NJARET20040-32247-90550-30000011D0001116D0005700000 671025   GGSL
NJARET20040-32247-95517-10001140D0005524D000160000179551750  GGSL
NJARET20040-32247-95517-10000025D0000123D001180000079551750X GGSL
NJARET20040-32247-99605-10000552D0012303D004740000099605     GGSL
NJARET20040-32247-99610-50000023D0001014D000910000099610     GGSL
NJARET20040-32903-00169-30000456D0000552D0006800005SLI06000E3GGSL
NJARET20040-32903-00171-60000192D0000232D0001500000SLI06000A3GGSL
NJARET20040-32903-00192-10000360D0000436D0001400000SLI06000B9GGSL
NJARET20040-32903-00214-00000096D0000116D0002800000SLI06000E2GGSL
NJARET20040-32903-00222-50000240D0000372D0003100000SLI08000B9GGSL
NJARET20040-32903-00224-90000036D0000248D0002900000VNP18000E2GGSL
NJARET20040-32903-00227-00000006D0000025D0001900000SVN18000E2GGSL
NJARET20040-32903-00236-20000012D0000055D0000800000SVN24000E2GGSL
NJARET20040-32903-00240-90000096D0000149D0002300000SLI08000E2GGSL
NJARET20040-32903-00243-00000018D0000099D0000900000SVN30000E2GGSL
NJARET20040-32903-00246-10000144D0000223D0001500000SLI08000A3GGSL
NJARET20040-32903-00257-70000018D0000625D0002000002RZGH210G2 GGSL
NJARET20040-32903-00258-40000192D0000338D0002500000LIA06000E2GGSL
NJARET20040-32903-00264-50000048D0000128D0002600000LIA08000E2GGSL
NJARET20040-32903-00281-20000108D0000441D0002600000LIA10000E2GGSL
NJARET20040-32903-00283-60000024D0000147D0001500000GAB14000E2GGSL
NJARET20040-32903-00284-30000008D0000232D0000000000TEA20000G2GGSL
NJARET20040-32903-00287-40000024D0000187D0001800000VNP24000E2GGSL
NJARET20040-32903-00290-40000042D0000426D0001100000VNP30000E2GGSL
NJARET20040-32903-00293-50000024D0000052D0002600000SLI10000E2GGSL
NJARET20040-32903-00301-70000005D0000073D0000700000ROP28000A3GGSL
NJARET20040-32903-00309-30000492D0001068D0007600000SLI10000E3GGSL
NJARET20040-32903-00326-00000072D0000471D0004200000LIA12000E2GGSL
NJARET20040-32903-00332-10000108D0000234D0005600002SLI10000B9GGSL
NJARET20040-32903-00338-30000108D0000234D0002800000SLI10000A3GGSL
NJARET20040-32903-00341-30000078D0000648D0001900000SLI24000E3GGSL
NJARET20040-32903-00359-80000480D0000744D0001500000SLI08000E3GGSL
NJARET20040-32903-04255-90000024D0000198D0003000000LIA14000E2GGSL
NJARET20040-32903-04257-30000072D0000264D0002000000SLI12000E2GGSL
NJARET20040-32903-07519-90000012D0000154D0001500000LIA16000E2GGSL
NJARET20040-32903-07530-40000048D0000188D0001700000SLI14000E2GGSL
NJARET20040-32903-07558-80000018D0000064D0001500000RZWC1Q0B9 GGSL
NJARET20040-32903-07563-20000048D0000210D0000800000SLI17000E2GGSL
NJARET20040-32903-12006-60000720D0001267D0005700000LIA06000E3GGSL
NJARET20040-32903-12008-00000672D0001788D0004200001LIA08000E3GGSL
NJARET20040-32903-12010-30000804D0003280D0005100002LIA10000E3GGSL
NJARET20040-32903-12012-70000456D0002970D0006200002LIA12000E3GGSL
NJARET20040-32903-12014-10000432D0003568D0006200002LIA14000E3GGSL
NJARET20040-32903-12017-20000240D0003074D0002100000LIA16000E3GGSL
NJARET20040-32903-12020-20000114D0001938D0000300000LIA20000E3GGSL
NJARET20040-32903-12024-00000048D0001100D0002700001LIA24000E3GGSL
NJARET20040-32903-12112-40000012D0000130D0000100000ROS12500E3GGSL
NJARET20040-32903-12115-50000024D0000407D0002000000ROS15500E3GGSL
NJARET20040-32903-12312-80000312D0001536D0001000002CNA12000E3GGSL
NJARET20040-32903-12318-00000042D0000174D0001000000SVN18000E3GGSL
NJARET20040-32903-12324-10000042D0000194D0000800000SVN24000E3GGSL
NJARET20040-32903-12330-20000036D0000199D0000600000SVN30000E3GGSL
NJARET20040-32903-12712-60000072D0000318D0004000003GAB12000E3GGSL
NJARET20040-32903-12714-00000132D0000810D0004000000GAB14000E3GGSL
NJARET20040-32903-12718-80000054D0000511D0001900000GAB18000E3GGSL
NJARET20040-32903-12722-50000030D0000448D0000700000GAB22000E3GGSL
NJARET20040-32903-12818-50000126D0000868D0000900000VNP18000E3GGSL
NJARET20040-32903-12824-60000180D0001406D0002500000VNP24000E3GGSL
NJARET20040-32903-12830-70000126D0001278D0000800000VNP30000E3GGSL
NJARET20040-32903-23732-00000006D0000039D0001500000SLI20000E2GGSL
NJARET20040-32903-30392-60000120D0000238D0001000005CNA08000E3GGSL
NJARET20040-32903-35947-30000240D0000746D0000700000CNA10000E3GGSL
NJARET20040-32903-40493-70000288D0000766D0003400000LIA08000B9GGSL
NJARET20040-32903-40770-90000030D0000207D0001600000VNP18000A3GGSL
NJARET20040-32903-41472-10000018D0000099D0000800000SVN30000A3GGSL
NJARET20040-32903-41640-40000120D0000319D0002400000LIA08000A3GGSL
NJARET20040-32903-41717-30000120D0000991D0003200000LIA14000B9GGSL
NJARET20040-32903-41728-90000156D0001020D0004100000LIA12000B9GGSL
NJARET20040-32903-41842-20000066D0000669D0000300000VNP30000A3GGSL
NJARET20040-32903-41909-20000024D0000307D0001900000LIA16000A3GGSL
NJARET20040-32903-42050-00000012D0000275D0002000000LIA24000A3GGSL
NJARET20040-32903-42240-50000432D0000760D0003500000LIA06000B9GGSL
NJARET20040-32903-42728-80000006D0000028D0000900000SVN24000A3GGSL
NJARET20040-32903-43116-20000018D0000075D0001500000SVN18000A3GGSL
NJARET20040-32903-45170-20000084D0000694D0002800000LIA14000A3GGSL
NJARET20040-32903-45342-30000072D0000562D0001800000VNP24000A3GGSL
NJARET20040-32903-45788-90000036D0000825D0001300000LIA24000B9GGSL
NJARET20040-32903-46337-80000060D0000769D0002900000LIA16000B9GGSL
NJARET20040-32903-47208-00000132D0000863D0002500000LIA12000A3GGSL
NJARET20040-32903-48101-30000144D0000253D0002400002LIA06000A3GGSL
NJARET20040-32903-48538-70000036D0000618D0001500000LIA20000B9GGSL
NJARET20040-32903-50286-20000048D0000167D0002800000HSI10008E2GGSL
NJARET20040-32903-50763-80000144D0000528D0008900002SLI12000E3GGSL
NJARET20040-32903-50764-50000096D0000376D0000700000SLI14000B9GGSL
NJARET20040-32903-50767-60000084D0000308D0000900000SLI12000A3GGSL
NJARET20040-32903-50794-20000108D0000396D0003900000SLI12000B9GGSL
NJARET20040-32903-50802-40000360D0001411D0007600003SLI14000E3GGSL
NJARET20040-32903-50803-10000048D0000188D0001900000SLI14000A3GGSL
NJARET20040-32903-52340-90000018D0000078D0001000000SVN24000B9GGSL
NJARET20040-32903-52858-90000090D0000620D0004500000VNP18000B9GGSL
NJARET20040-32903-56391-70000156D0000541D0002800000HSI10008A1GGSL
NJARET20040-32903-57235-30000138D0001399D0003800000VNP30000B9GGSL
NJARET20040-32903-57495-10000036D0000187D0000600000SVN30000B9GGSL
NJARET20040-32903-58303-80000108D0000843D0005500000VNP24000B9GGSL
NJARET20040-32903-58838-50000036D0000140D0000800000SVN18000B9GGSL
NJARET20040-32903-61636-10000144D0000500D0001900000HSI10008B6GGSL
NJARET20040-32903-66002-90000025D0000365D0000800000ROP28000E3GGSL
NJARET20040-32903-69739-10000015D0000206D0000600000ROP28000B9GGSL
NJARET20040-32903-72233-80000252D0001028D0003100000LIA10000B9GGSL
NJARET20040-32903-72518-60000040D0000299D0001800000RZWC2G0B9 GGSL
NJARET20040-32903-72886-60000072D0000346D0000700000RZWC1G0B9 GGSL
NJARET20040-32903-75049-20000060D0000392D0002700000SLI20000E3GGSL
NJARET20040-32903-75051-50000036D0000157D0001000000SLI17000A3GGSL
NJARET20040-32903-75057-70000060D0000262D0000500000SLI17000B9GGSL
NJARET20040-32903-75070-60000006D0000039D0001400000SLI20000A3GGSL
NJARET20040-32903-75080-50000096D0000420D0002300000SLI17000E3GGSL
NJARET20040-32903-75081-20000036D0000235D0000600000SLI20000B9GGSL
NJARET20040-32903-75084-30000006D0000050D0001100000SLI24000A3GGSL
NJARET20040-32903-75089-80000042D0000349D0001800000SLI24000B9GGSL
NJARET20040-32903-91270-80000004D0000116D0001100000RZGH210E3 GGSL
NJARET20040-32903-91485-60000020D0000252D0000300000SPX24DBA34GGSL
NJARET20040-32903-91516-70000016D0000103D0000000000PPF1000   GGSL
NJARET20040-33200-00020-40006636D0004628D00095000003320000020GGSL
NJARET20040-33200-00544-50002776D0027900D016510000000544     GGSL
NJARET20040-33200-01191-00000140D0000997D001450000101191     GGSL
NJARET20040-33200-06527-20000209D0003760D00274000006527      GGSL
NJARET20040-33200-09142-40000232D0001633D000770000009142     GGSL
NJARET20040-33200-09293-30000124D0000903D00163000009293      GGSL
NJARET20040-33200-09793-80000280D0002368D00054000009793      GGSL
NJARET20040-33200-11321-80000372D0000497D000000000011321     GGSL
NJARET20040-33200-11448-20000024D0000072D001720000211448     GGSL
NJARET20040-33200-94182-80000076D0000789D014550000094182     GGSL
NJARET20040-33200-97209-90000168D0001202D000000000097209     GGSL
NJARET20040-33200-97242-60000220D0001538D002350000097242     GGSL
NJARET20040-33287-15032-80000001D0000036D0003900000SGA3070   GGSL
NJARET20040-33349-03110-70001073D0001363D0002000003JP310     GGSL
NJARET20040-33349-05042-90000300D0001404D0000700000J324      GGSL
NJARET20040-33349-05082-50000432D0001266D0001500000JP506     GGSL
NJARET20040-33349-07750-10000522D0001613D0001900000J4R25     GGSL
NJARET20040-33349-41211-10000528D0000533D0001100000JP212     GGSL
NJARET20040-33349-41214-20000352D0000676D0001300000JP226     GGSL
NJARET20040-33349-41221-00000500D0000950D0001400000TDOME     GGSL
NJARET20040-33349-41234-00002200D0003432D0000600000TTRAY     GGSL
NJARET20040-33349-41238-80000406D0001827D0001300000T32       GGSL
NJARET20040-33349-41251-70000450D0001283D0000400000JS50      GGSL
NJARET20040-33349-41254-80000700D0001932D0000800000JS32      GGSL
NJARET20040-33349-41318-70000378D0001066D0000000000JP322     GGSL
NJARET20040-33349-41444-30000003D0000643D0000300001JP4BULK   GGSL
NJARET20040-33349-41444-30000840D0001739D0001100003JP406     GGSL
NJARET20040-33349-41701-70010000D0001200D0001500000J4BULK    GGSL
NJARET20040-33349-41708-60000015D0000092D0000000000J3R72     GGSL
NJARET20040-33349-41710-90000374D0001092D0000100001J312      GGSL
NJARET20040-33349-65205-00000022D0000192D0000200000T34H      GGSL
NJARET20040-33349-65220-30000032D0000503D0000000000JH48      GGSL
NJARET20040-33349-66003-10000280D0002842D0000000000J372ST20  GGSL
NJARET20040-33349-66005-50000042D0000330D0000000000J425ST16  GGSL
NJARET20040-33349-66006-20000033D0000327D0000000000J450ST20  GGSL
NJARET20040-33349-66007-90000011D0000061D0000000000J616ST11PCGGSL
NJARET20040-33349-66008-60000216D0001198D0000500001J636ST10  GGSL
NJARET20040-33349-66009-30000770D0004682D0001800001T72HST14  GGSL
NJARET20040-33349-66010-90000484D0002686D0001700000TS50HST16 GGSL
NJARET20040-33349-66015-40000224D0001205D0000100000TS20HST14 GGSL
NJARET20040-33349-66016-10000070D0000409D0001300000TS32HST14 GGSL
NJARET20040-33607-00301-30000012D0000141D0000000000TT1W      GGSL
NJARET20040-33607-00302-00000012D0000141D0000000000TT2P      GGSL
NJARET20040-33607-00304-40000012D0000141D0000100000TT4T      GGSL
NJARET20040-33607-00978-70000001D0000185D0000300000LTASST12  GGSL
NJARET20040-33607-01220-60000018D0000429D0001000000LT20      GGSL
NJARET20040-33607-22000-70000072D0000791D0001200000HCWM1     GGSL
NJARET20040-33607-22002-10000001D0000000D0000000000HCWM1DSP  GGSL
NJARET20040-33607-22005-20000008D0000201D0002700000HC2       GGSL
NJARET20040-33607-22006-90000008D0000201D0001100000HBE6      GGSL
NJARET20040-33607-22010-60000012D0000396D0001100000HCF3      GGSL
NJARET20040-33607-22075-50000006D0000518D0001000000HTC1      GGSL
NJARET20040-33607-22125-70000009D0001001D0001200000HT2EZ     GGSL
NJARET20040-33607-22250-60000003D0000401D0001000000HT4EZ     GGSL
NJARET20040-33607-22310-70000012D0000094D0001100000HG18      GGSL
NJARET20040-33607-22550-70000002D0000160D0000200000SRWM180   GGSL
NJARET20040-33745-97185-40000056D0001660D003740000097185X    GGSL
NJARET20040-34411-00011-30000012D0000014D00000000008011341002GGSL
NJARET20040-34411-00018-20000072D0000064D00008000008013641001GGSL
NJARET20040-34411-00164-60000012D0000049D00000000008011341003GGSL
NJARET20040-34411-00166-00000012D0000115D00000000008011241001GGSL
NJARET20040-34411-00571-20000006D0000032D0001500000 571      GGSL
NJARET20040-34411-01173-70000008D0000298D00000000008167731001GGSL
NJARET20040-34411-01995-50000006D0000431D00002000008190031001GGSL
NJARET20040-34411-02730-10000012D0000155D0000200000 440GP    GGSL
NJARET20040-34411-02969-50000020D0000236D0000000000 50502GP  GGSL
NJARET20040-34411-02979-40000006D0000112D00000000008423041001GGSL
NJARET20040-34411-02984-80000020D0000018D00000000008011141001GGSL
NJARET20040-34411-05711-70000024D0000135D0038300000 571TFR   GGSL
NJARET20040-34411-11207-60000016D0000607D0000800000 10034050 GGSL
NJARET20040-34411-11208-30000004D0000222D0000300000 10034075 GGSL
NJARET20040-34411-11208-30000002D0000122D00000000008347511001GGSL
NJARET20040-34411-11209-00000002D0000142D0000100000 10034100 GGSL
NJARET20040-34411-20743-70000006D0000160D00000000008044341001GGSL
NJARET20040-34411-26002-90000010D0000219D00000000008550921001GGSL
NJARET20040-34411-60152-50000025D0000421D00000000008402511001GGSL
NJARET20040-34411-60153-20000016D0000449D00011000008405011001GGSL
NJARET20040-34411-60154-90000016D0000647D00000000008407511002GGSL
NJARET20040-34411-60204-10000010D0000544D00000000008410011001GGSL
NJARET20040-34411-74001-90000050D0002525D00013000008740011001GGSL
NJARET20040-34411-74251-80000060D0000996D00019000008742511001GGSL
NJARET20040-34411-74501-40000030D0000829D00044000008745011001GGSL
NJARET20040-34411-74751-30000036D0001413D00026000008747511001GGSL
NJARET20040-34411-92773-10000048D0000376D00261000008702511001GGSL
NJARET20040-34411-92774-80000084D0001019D00012000008705011001GGSL
NJARET20040-34411-92775-50000048D0000779D00004000008707511001GGSL
NJARET20040-34613-00011-90000036D0000310D0000400000LH011     GGSL
NJARET20040-34613-00015-70000036D0000451D0003200000LH015     GGSL
NJARET20040-34613-00048-50000012D0000142D0000600000TP48      GGSL
NJARET20040-34613-00060-70000012D0000155D0000000000TP60      GGSL
NJARET20040-34613-00425-40000025D0000258D0000000000425       GGSL
NJARET20040-34613-00440-70000040D0000229D0000600000440HD     GGSL
NJARET20040-34613-00473-50000002D0000165D0000300000 N824     GGSL
NJARET20040-34613-00540-40000080D0000546D0000000000540HD     GGSL
NJARET20040-34613-00803-00000020D0000022D0000900000SS3       GGSL
NJARET20040-34613-00805-40000020D0000037D0001900000SS5       GGSL
NJARET20040-34613-00820-70000012D0000104D0000700000820       GGSL
NJARET20040-34613-00860-30000012D0000233D0000700000860       GGSL
NJARET20040-34613-01160-30000020D0000055D00002000001160      GGSL
NJARET20040-34613-01180-10000024D0000058D00000000001180PDQ   GGSL
NJARET20040-34613-01901-20000012D0000104D00018000001901      GGSL
NJARET20040-34613-01903-60000036D0000312D00022000001903      GGSL
NJARET20040-34613-02124-40000036D0000387D00005000002124      GGSL
NJARET20040-34613-02404-70000018D0000072D0000100000Y2404     GGSL
NJARET20040-34613-03104-50000012D0000116D00009000003104      GGSL
NJARET20040-34613-03485-50000006D0000078D00000000003485      GGSL
NJARET20040-34613-03603-30000030D0000200D0000000000U3603     GGSL
NJARET20040-34613-04357-40000024D0000055D0000000000550       GGSL
NJARET20040-34613-04803-60000030D0000230D0000000000U4803     GGSL
NJARET20040-34613-04862-30000024D0000207D0001300000LH013BL   GGSL
NJARET20040-34613-04863-00000024D0000207D0001000000LH014BL   GGSL
NJARET20040-34613-04864-70000012D0000103D0001800000LH016BL   GGSL
NJARET20040-34613-04870-80000024D0000300D0001000000LH015BL   GGSL
NJARET20040-34613-05826-40000006D0000088D00004000005826      GGSL
NJARET20040-34613-05945-20000006D0000174D00022000005945      GGSL
NJARET20040-34613-06586-60000012D0000206D00000000006586      GGSL
NJARET20040-34613-08446-10000048D0000776D0000100000BF24      GGSL
NJARET20040-34613-18050-70000012D0000081D00028000008050BL    GGSL
NJARET20040-34613-25027-90000001D0000043D0000700000MDSLH     GGSL
NJARET20040-34613-50120-30000020D0002730D000260000950120     GGSL
NJARET20040-34613-50123-40000017D0005072D002150000550123     GGSL
NJARET20040-34613-50997-10000002D0000764D000200000050997     GGSL
NJARET20040-34613-60566-60000002D0000157D000570000060566     GGSL
NJARET20040-34613-64979-00000006D0001671D000080000064979     GGSL
NJARET20040-34613-65497-80000049D0001504D000150000365497     GGSL
NJARET20040-34613-65498-50000097D0003021D000390000665498     GGSL
NJARET20040-34613-65677-40000070D0001904D000060000465677     GGSL
NJARET20040-34613-65679-80000001D0000041D000000000065679     GGSL
NJARET20040-34613-65681-10000011D0000404D000030000065681     GGSL
NJARET20040-34613-65682-80000080D0002225D001740000665682     GGSL
NJARET20040-34613-66637-70000001D0000293D002440000066637     GGSL
NJARET20040-34613-67456-30000017D0002584D000000000067456     GGSL
NJARET20040-34613-68156-10000679D0076173D000010000068156     GGSL
NJARET20040-34613-69372-40000089D0001559D002010000669372     GGSL
NJARET20040-34613-69373-10000027D0000649D000230000069373     GGSL
NJARET20040-34613-69883-50000072D0005933D001370000569883     GGSL
NJARET20040-34613-69885-90000006D0000352D000350000069885     GGSL
NJARET20040-34613-70740-70000006D0000054D000010000070740BL   GGSL
NJARET20040-35000-00163-40002464D0003171D0000000000US04250A  GGSL
NJARET20040-35000-05361-90000280D0000213D0000000000105375    GGSL
NJARET20040-35000-05364-00000612D0000636D0000000000105374    GGSL
NJARET20040-35000-14112-50000216D0001091D000000000014477     GGSL
NJARET20040-35000-14120-00000336D0001690D000270000014478     GGSL
NJARET20040-35000-14328-00000264D0001307D000000000014483     GGSL
NJARET20040-35000-14424-90001116D0001145D000320000014424     GGSL
NJARET20040-35000-39013-40000540D0001536D000000000039013     GGSL
NJARET20040-35000-39014-10000384D0001022D000000000039014     GGSL
NJARET20040-35000-39371-50000320D0001910D000000000039371     GGSL
NJARET20040-35000-39372-20000320D0001914D000000000039372     GGSL
NJARET20040-35000-39373-90000016D0000096D000080000039373     GGSL
NJARET20040-35000-44558-20000096D0000502D0003200000US04121A  GGSL
NJARET20040-35000-44623-70000018D0000041D000000000044623     GGSL
NJARET20040-35000-44627-50000720D0000756D0000000000144630    GGSL
NJARET20040-35000-44628-20000060D0000073D0006200000144631    GGSL
NJARET20040-35000-44668-80000140D0000146D000410000044668     GGSL
NJARET20040-35000-44673-20000639D0000959D000000000044673     GGSL
NJARET20040-35000-44674-90001008D0001729D000650000044674     GGSL
NJARET20040-35000-45041-50000468D0001006D0000000000US04229A  GGSL
NJARET20040-35000-45122-40000416D0001799D0000000000US04284A  GGSL
NJARET20040-35000-45816-20000075D0000454D0002600000MX04966A  GGSL
NJARET20040-35000-46057-60000800D0001144D0026400000US04248A  GGSL
NJARET20040-35000-46072-10000036D0000084D000000000046072     GGSL
NJARET20040-35000-46283-10000036D0000123D000110000046283     GGSL
NJARET20040-35000-46412-50001960D0002067D000020000146412     GGSL
NJARET20040-35000-46413-20000020D0000021D000000000046413     GGSL
NJARET20040-35000-46791-10002202D0006760D000000000046791     GGSL
NJARET20040-35000-47054-60000200D0000210D0000000000US05831A  GGSL
NJARET20040-35000-49110-70000944D0003238D000000000049110     GGSL
NJARET20040-35000-49860-10000048D0000109D000000000049860     GGSL
NJARET20040-35000-49861-80000324D0000732D000000000049861     GGSL
NJARET20040-35000-49862-50000360D0000743D000000000049862     GGSL
NJARET20040-35000-49863-20000018D0000039D000000000049863     GGSL
NJARET20040-35000-49874-80000808D0003800D004940000049874     GGSL
NJARET20040-35000-49875-50000080D0000098D0024900000144633    GGSL
NJARET20040-35000-51119-50000072D0000205D0000000000151119    GGSL
NJARET20040-35000-53031-80000012D0000038D0000300000153042    GGSL
NJARET20040-35000-53032-50000624D0001513D0000000000153041    GGSL
NJARET20040-35000-53060-80000672D0003138D000000000053060     GGSL
NJARET20040-35000-53063-90002844D0003887D000210000353063     GGSL
NJARET20040-35000-53086-80000468D0000647D000000000053086     GGSL
NJARET20040-35000-53099-80000450D0001035D000000000053099     GGSL
NJARET20040-35000-53106-30000372D0000502D000000000053106     GGSL
NJARET20040-35000-53122-30000516D0003122D000000000053122     GGSL
NJARET20040-35000-67123-30000024D0000129D000080000067123     GGSL
NJARET20040-35000-74127-10000528D0002154D000980000076326     GGSL
NJARET20040-35000-96987-30000252D0001525D0000000000MX06813A  GGSL
NJARET20040-35000-97018-30000796D0005126D0021900000US06329A  GGSL
NJARET20040-35110-01900-00004560D0033106D000070000301900     GGSL
NJARET20040-35110-04307-40000092D0000765D0005000000US05253A  GGSL
NJARET20040-35307-00650-90000040D0000296D0000600000650       GGSL
NJARET20040-35307-00781-00000012D0000106D0000600000781       GGSL
NJARET20040-35307-00782-70000012D0000109D0000700000782       GGSL
NJARET20040-35307-00805-30000012D0000029D0000000000805       GGSL
NJARET20040-35307-00808-40000012D0000032D0000000000808       GGSL
NJARET20040-35307-00810-70000132D0000273D0000800001810       GGSL
NJARET20040-35307-00812-10000300D0000726D0001500000812       GGSL
NJARET20040-35307-00816-90000108D0000172D0000900000816       GGSL
NJARET20040-35307-00817-60000072D0000165D0000200000817       GGSL
NJARET20040-35307-00818-30000060D0000105D0001100000818       GGSL
NJARET20040-35307-00819-00000036D0000070D0000100000819       GGSL
NJARET20040-35307-00820-60000132D0000213D0000800001820       GGSL
NJARET20040-35307-00826-80000132D0000238D0000000000826       GGSL
NJARET20040-35307-00827-50000216D0000406D0000100001827       GGSL
NJARET20040-35307-00829-90000012D0000038D0000000000829       GGSL
NJARET20040-35307-00834-30000156D0000428D0003000000834       GGSL
NJARET20040-35307-00835-00000084D0000470D0000700000835       GGSL
NJARET20040-35307-00838-10000156D0000462D0000000000838       GGSL
NJARET20040-35307-00839-80000120D0000402D0008200000839       GGSL
NJARET20040-35307-00840-40000180D0000436D0000900000840       GGSL
NJARET20040-35307-00841-10000228D0000442D0002900000841       GGSL
NJARET20040-35307-00843-50000132D0000380D0000400000843       GGSL
NJARET20040-35307-00844-20000168D0000383D0003900002844       GGSL
NJARET20040-35307-00845-90000048D0000186D0001100000845       GGSL
NJARET20040-35307-00846-60000060D0000197D0000500000846       GGSL
NJARET20040-35307-00848-00000060D0000113D0001100000848       GGSL
NJARET20040-35307-00857-20000048D0000262D0001400000857       GGSL
NJARET20040-35307-00859-60000012D0000042D0000400001859       GGSL
NJARET20040-35307-00861-90000048D0000127D0001200000861       GGSL
NJARET20040-35307-00862-60000036D0000098D0001400001862       GGSL
NJARET20040-35307-00864-00000036D0000140D0000800000864       GGSL
NJARET20040-35307-00865-70000024D0000090D0001200000865       GGSL
NJARET20040-35307-00869-50000012D0000120D0001700000869       GGSL
NJARET20040-35307-00874-90000060D0000092D0001300000874       GGSL
NJARET20040-35307-00875-60000336D0001173D0001900000875       GGSL
NJARET20040-35307-00877-00000048D0000073D0001100000877       GGSL
NJARET20040-35307-00878-70000012D0000026D0000400000878       GGSL
NJARET20040-35307-00916-60000072D0000161D0001400000916       GGSL
NJARET20040-35307-00917-30000024D0000062D0000400000917       GGSL
NJARET20040-35307-00967-80000012D0000023D0002900000967       GGSL
NJARET20040-35307-00970-80000036D0000326D0000000000970       GGSL
NJARET20040-35307-00971-50000048D0000251D0000400000971       GGSL
NJARET20040-35307-00972-20000096D0000537D0000500000972       GGSL
NJARET20040-35307-00973-90000132D0000828D0000600000973       GGSL
NJARET20040-35307-00977-70000204D0000541D0000200000977       GGSL
NJARET20040-35307-00978-40000240D0001255D0001700001978       GGSL
NJARET20040-35307-00980-70000048D0000053D0000600000980       GGSL
NJARET20040-35307-00987-60000156D0000552D0000500001987       GGSL
NJARET20040-35307-01020-90000024D0000030D00006000001020      GGSL
NJARET20040-35307-01025-40000060D0000087D00008000001025      GGSL
NJARET20040-35307-01030-80000072D0000141D00012000001030      GGSL
NJARET20040-35307-01035-30000120D0000292D00013000001035      GGSL
NJARET20040-35307-01040-70000072D0000215D00010000001040      GGSL
NJARET20040-35307-01045-20000096D0000372D00017000001045      GGSL
NJARET20040-35307-01050-60000072D0000343D00015000001050      GGSL
NJARET20040-35307-01601-00000084D0001016D00043000001601      GGSL
NJARET20040-35307-01609-60000240D0000967D00027000001609CS    GGSL
NJARET20040-35307-01612-60000300D0001209D00038000001612      GGSL
NJARET20040-35307-01615-70000024D0000021D00000000001615CS    GGSL
NJARET20040-35307-01617-10000012D0000027D00001000001617PDQ   GGSL
NJARET20040-35307-01618-80000042D0000263D00006000001618      GGSL
NJARET20040-35307-01630-00000012D0000094D00000000001630      GGSL
NJARET20040-35307-01635-50000006D0000095D00000000001635      GGSL
NJARET20040-35307-01638-60000012D0000053D00003000001638      GGSL
NJARET20040-35307-01640-90000018D0000099D00022000001640      GGSL
NJARET20040-35307-01810-60000060D0000274D00083000011810      GGSL
NJARET20040-35307-01815-10000012D0000074D00000000001815      GGSL
NJARET20040-35307-01820-50000012D0000131D00018000001820      GGSL
NJARET20040-35307-01825-00000012D0000116D00007000001825      GGSL
NJARET20040-35307-01840-30000048D0000739D00005000001840      GGSL
NJARET20040-35307-01845-80000096D0001050D00000000001845      GGSL
NJARET20040-35307-01847-20000012D0000266D00007000001847      GGSL
NJARET20040-35307-01880-90000015D0000404D00009000001880      GGSL
NJARET20040-35355-02022-90000048D0000131D0000200000Y2022     GGSL
NJARET20040-35951-07000-00000012D0000127D000310000007000     GGSL
NJARET20040-35951-07011-60000004D0000318D000160000007011     GGSL
NJARET20040-36151-46825-30000042D0001047D00000000002646825   GGSL
NJARET20040-36241-04650-70002460D0012231D000020000304650     GGSL
NJARET20040-36241-20663-50000276D0000601D002670000074278     GGSL
NJARET20040-36241-66300-10000240D0001483D009850000074297     GGSL
NJARET20040-36241-75610-90002372D0015156D000210002177617     GGSL
NJARET20040-36241-88786-50001008D0006347D000180001888786     GGSL
NJARET20040-36241-97161-80000004D0000038D001250000197161     GGSL
NJARET20040-36241-97402-20000012D0000054D0041900000974022    GGSL
NJARET20040-36348-00745-60000007D0000164D00027000000745      GGSL
NJARET20040-36348-01020-30000002D0000034D00142000001020      GGSL
NJARET20040-36348-01030-20000004D0000172D00007000001030      GGSL
NJARET20040-36348-01045-60000001D0000062D00023000001045      GGSL
NJARET20040-36348-01079-10000003D0000160D00017000001079      GGSL
NJARET20040-36434-00009-50000024D0000331D00020000001000009   GGSL
NJARET20040-36434-11000-80000018D0000179D00007000006011000   GGSL
NJARET20040-36434-12340-40000012D0000026D00000000006012340   GGSL
NJARET20040-36434-12342-80000042D0000263D00023000006012342   GGSL
NJARET20040-36434-12345-90000096D0001072D00012000001012345   GGSL
NJARET20040-36434-12346-60000042D0000193D00013000006012346   GGSL
NJARET20040-36434-12348-00000008D0000077D00000000001012348   GGSL
NJARET20040-36434-12349-70000006D0000024D00006000006012349   GGSL
NJARET20040-36434-12353-40000078D0001282D00016000006012353   GGSL
NJARET20040-36434-12363-30000018D0000617D00003000001012363   GGSL
NJARET20040-36434-12368-80000012D0000114D00000000001012368   GGSL
NJARET20040-36434-12380-00000012D0000127D00000000006012380   GGSL
NJARET20040-36434-12420-30000012D0000131D00018000001012420   GGSL
NJARET20040-36434-12700-60001008D0008274D00210000011012700   GGSL
NJARET20040-36434-12710-50000024D0000175D00027000001012710   GGSL
NJARET20040-36434-12720-40000072D0000471D00042000001012720   GGSL
NJARET20040-36434-12812-60000048D0000778D00007000001012812   GGSL
NJARET20040-36434-12860-70000024D0000321D00019000001012860   GGSL
NJARET20040-36434-13001-30000012D0000063D00019000001013001   GGSL
NJARET20040-36434-13700-50000048D0000399D00007000001032700   GGSL
NJARET20040-36434-13812-50000012D0000218D00014000001013812   GGSL
NJARET20040-36434-13860-60000048D0000728D00007000001013860   GGSL
NJARET20040-36434-15000-40000060D0001958D00026000001015000   GGSL
NJARET20040-36434-15020-20000030D0000530D00029000001015020   GGSL
NJARET20040-36434-15030-10000006D0000126D00009000001015030   GGSL
NJARET20040-36434-15040-00000048D0000486D00008000001015040   GGSL
NJARET20040-36434-15060-80000024D0000365D00013000001015050   GGSL
NJARET20040-36434-15060-80000036D0000548D00016000001015060   GGSL
NJARET20040-36434-17000-20000024D0001064D00016000001017000   GGSL
NJARET20040-36434-17010-10000048D0001054D00010000001017010   GGSL
NJARET20040-36434-17020-00000054D0000846D00006000001017020   GGSL
NJARET20040-36434-17062-00000020D0000154D00002000001017062   GGSL
NJARET20040-36434-22318-00000006D0000024D00000000006022318   GGSL
NJARET20040-36434-22341-80000012D0000130D00013000001022341   GGSL
NJARET20040-36434-22373-90000006D0000095D00000000006022373   GGSL
NJARET20040-36434-28040-40000024D0000336D00008000001028040   GGSL
NJARET20040-36865-43016-40000080D0000374D000000000070430160  GGSL
NJARET20040-37000-88859-80000004D0000020D0000000000888598    GGSL
NJARET20040-37321-00022-80026628D0195542D0208801922022       GGSL
NJARET20040-37321-00022-80000576D0003086D000050000002248     GGSL
NJARET20040-37321-00023-50000040D0000786D0001400001023       GGSL
NJARET20040-37321-00024-20006204D0075976D0008300002024       GGSL
NJARET20040-37321-00025-90000204D0001736D0005600000025       GGSL
NJARET20040-37321-00040-20000024D0000285D0001100000040       GGSL
NJARET20040-37321-00042-60000006D0000079D0000500000042       GGSL
NJARET20040-37321-00050-10000192D0000190D0002800000050       GGSL
NJARET20040-37321-00051-80000138D0001659D0003000004051       GGSL
NJARET20040-37321-00055-60000006D0000083D0000700000055       GGSL
NJARET20040-37321-00061-70000228D0001719D0005500002061       GGSL
NJARET20040-37321-00065-50000180D0000943D0000900000065       GGSL
NJARET20040-37321-00066-20000180D0002124D0002300000066       GGSL
NJARET20040-37321-00067-90000060D0000595D0000200000067       GGSL
NJARET20040-37321-00068-60000048D0000259D0002000000068       GGSL
NJARET20040-37321-00069-30000036D0000471D0003100001069       GGSL
NJARET20040-37321-00070-90000036D0000538D0002200000070       GGSL
NJARET20040-37321-00080-80000024D0000110D0001000000080       GGSL
NJARET20040-37321-00081-50000012D0000079D0000400000081       GGSL
NJARET20040-37321-00097-60000264D0001379D0001000000097       GGSL
NJARET20040-37321-00098-30000015D0000070D0001200000098       GGSL
NJARET20040-37321-00099-00000012D0000081D0001300000099       GGSL
NJARET20040-37321-00102-70000012D0000143D0001200000102       GGSL
NJARET20040-37321-00103-40000004D0000141D0000400000103       GGSL
NJARET20040-37321-00105-80000108D0000312D0000700000105       GGSL
NJARET20040-37321-00106-50000108D0000293D0004400000106       GGSL
NJARET20040-37321-00107-20000108D0000312D0002600000107       GGSL
NJARET20040-37321-00108-90000336D0000971D0010300000108       GGSL
NJARET20040-37321-00110-20000184D0000602D0031000001110       GGSL
NJARET20040-37321-00112-60000192D0000628D0015100000112       GGSL
NJARET20040-37321-00114-00000088D0000288D0003600000114       GGSL
NJARET20040-37321-00116-40000040D0000131D0002400009116       GGSL
NJARET20040-37321-00120-10000180D0000944D0004100001120       GGSL
NJARET20040-37321-00121-80000056D0000610D0003500000121       GGSL
NJARET20040-37321-00123-20000024D0000094D0000800000123       GGSL
NJARET20040-37321-00127-00000192D0001640D0004500000127       GGSL
NJARET20040-37321-00141-60000420D0001938D0001200004141       GGSL
NJARET20040-37321-00142-30000048D0000426D0000300000142       GGSL
NJARET20040-37321-00147-80000072D0000481D0001400000147       GGSL
NJARET20040-37321-00148-50000324D0003225D0000800000148       GGSL
NJARET20040-37321-00150-80000132D0002163D0010600000150       GGSL
NJARET20040-37321-00160-70000048D0000165D0000700000160       GGSL
NJARET20040-37321-00161-40000072D0000365D0000600000161       GGSL
NJARET20040-37321-00167-60000072D0000439D0007300001167       GGSL
NJARET20040-37321-00171-30000096D0000889D0000300000171       GGSL
NJARET20040-37321-00196-60000036D0000212D0003700000196       GGSL
NJARET20040-37321-00198-00000012D0000135D0000600000198       GGSL
NJARET20040-37321-00201-70000096D0000666D0000700000201       GGSL
NJARET20040-37321-00202-40000252D0002671D0006000001202       GGSL
NJARET20040-37321-00203-10000036D0000544D0001100000203       GGSL
NJARET20040-37321-00204-80000006D0000170D0000100000204       GGSL
NJARET20040-37321-00205-50000024D0001262D0001200000205       GGSL
NJARET20040-37321-00210-90000096D0000556D0005700000210       GGSL
NJARET20040-37321-00211-60000180D0001489D0002300001211       GGSL
NJARET20040-37321-00212-30000024D0000463D0002300000212       GGSL
NJARET20040-37321-00213-00000252D0002371D0007500000213       GGSL
NJARET20040-37321-00214-70000720D0003853D0005400000214       GGSL
NJARET20040-37321-00216-10000156D0002557D0003400000216       GGSL
NJARET20040-37321-00217-80000168D0001729D0000500000217       GGSL
NJARET20040-37321-00218-50001032D0016041D0004700000218       GGSL
